{"abi":[{"inputs":[{"internalType":"contract ERC20","name":"_token","type":"address"},{"internalType":"string","name":"_name","type":"string"}],"stateMutability":"nonpayable","type":"constructor","name":"constructor"},{"anonymous":false,"inputs":[{"indexed":true,"internalType":"address","name":"previousOwner","type":"address"},{"indexed":true,"internalType":"address","name":"newOwner","type":"address"}],"name":"OwnershipTransferred","type":"event"},{"anonymous":false,"inputs":[{"indexed":true,"internalType":"address","name":"user","type":"address"},{"indexed":false,"internalType":"uint256","name":"timeStamp","type":"uint256"},{"indexed":false,"internalType":"uint256","name":"amountToken","type":"uint256"}],"name":"TokenClaimed","type":"event"},{"inputs":[{"internalType":"address[]","name":"_users","type":"address[]"},{"internalType":"uint256[]","name":"_tokenAmounts","type":"uint256[]"}],"name":"allotTokens","outputs":[],"stateMutability":"nonpayable","type":"function"},{"inputs":[{"internalType":"uint256","name":"_index","type":"uint256"}],"name":"claimVestedTokens","outputs":[],"stateMutability":"nonpayable","type":"function"},{"inputs":[],"name":"emergencyTokenWithdraw","outputs":[],"stateMutability":"nonpayable","type":"function"},{"inputs":[{"internalType":"address","name":"_user","type":"address"}],"name":"getNextVestingClaim","outputs":[{"internalType":"int256","name":"","type":"int256"},{"internalType":"uint256","name":"","type":"uint256"},{"internalType":"uint256","name":"","type":"uint256"}],"stateMutability":"view","type":"function"},{"inputs":[{"internalType":"uint256","name":"_index","type":"uint256"}],"name":"isVestingClaimable","outputs":[{"internalType":"bool","name":"","type":"bool"},{"internalType":"uint256","name":"","type":"uint256"}],"stateMutability":"view","type":"function"},{"inputs":[],"name":"owner","outputs":[{"internalType":"address","name":"","type":"address"}],"stateMutability":"view","type":"function"},{"inputs":[],"name":"pool_name","outputs":[{"internalType":"string","name":"","type":"string"}],"stateMutability":"view","type":"function"},{"inputs":[],"name":"renounceOwnership","outputs":[],"stateMutability":"nonpayable","type":"function"},{"inputs":[{"internalType":"uint256[]","name":"_periods","type":"uint256[]"},{"internalType":"uint256[]","name":"_percents","type":"uint256[]"}],"name":"setupVestingMode","outputs":[],"stateMutability":"nonpayable","type":"function"},{"inputs":[{"internalType":"uint256","name":"startTime","type":"uint256"}],"name":"startVestingMode","outputs":[],"stateMutability":"nonpayable","type":"function"},{"inputs":[],"name":"token","outputs":[{"internalType":"contract ERC20","name":"","type":"address"}],"stateMutability":"view","type":"function"},{"inputs":[{"internalType":"address","name":"","type":"address"}],"name":"tokensAlloted","outputs":[{"internalType":"uint256","name":"","type":"uint256"}],"stateMutability":"view","type":"function"},{"inputs":[{"internalType":"address","name":"","type":"address"}],"name":"tokensClaimed","outputs":[{"internalType":"uint256","name":"","type":"uint256"}],"stateMutability":"view","type":"function"},{"inputs":[{"internalType":"address","name":"newOwner","type":"address"}],"name":"transferOwnership","outputs":[],"stateMutability":"nonpayable","type":"function"},{"inputs":[],"name":"vestInfo","outputs":[{"internalType":"uint256","name":"startTime","type":"uint256"},{"internalType":"bool","name":"vestingTimerStarted","type":"bool"}],"stateMutability":"view","type":"function"},{"inputs":[],"name":"vestInfoLength","outputs":[{"internalType":"uint256","name":"","type":"uint256"}],"stateMutability":"view","type":"function"}],"bytecode":"60a06040523480156200001157600080fd5b506040516200177a3803806200177a833981016040819052620000349162000165565b6200003f336200006f565b6001600160601b0319606083901b16608052805162000066906003906020840190620000bf565b505050620002b1565b600080546001600160a01b038381166001600160a01b0319831681178455604051919092169283917f8be0079c531659141344cd1fd0a4f28419497f9722a3daafe3b4186f6b6457e09190a35050565b828054620000cd906200025e565b90600052602060002090601f016020900481019282620000f157600085556200013c565b82601f106200010c57805160ff19168380011785556200013c565b828001600101855582156200013c579182015b828111156200013c5782518255916020019190600101906200011f565b506200014a9291506200014e565b5090565b5b808211156200014a57600081556001016200014f565b6000806040838503121562000178578182fd5b82516001600160a01b03811681146200018f578283fd5b602084810151919350906001600160401b0380821115620001ae578384fd5b818601915086601f830112620001c2578384fd5b815181811115620001d757620001d76200029b565b604051601f8201601f19908116603f011681019083821181831017156200020257620002026200029b565b8160405282815289868487010111156200021a578687fd5b8693505b828410156200023d57848401860151818501870152928501926200021e565b828411156200024e57868684830101525b8096505050505050509250929050565b600181811c908216806200027357607f821691505b602082108114156200029557634e487b7160e01b600052602260045260246000fd5b50919050565b634e487b7160e01b600052604160045260246000fd5b60805160601c61148e620002ec6000396000818161024f0152818161088601528181610ae601528181610b5a0152610bfe015261148e6000f3fe608060405234801561001057600080fd5b50600436106100d05760003560e01c8063029704af146100d557806311e128a9146100f157806322e77e2d146101065780632d59680d14610134578063624601b614610149578063715018a6146101695780637935510b146101715780637cae771b146101845780637d8ab226146101975780638da5cb5b146101aa57806393aefa76146101bf578063bcb43a1d146101c7578063bde59079146101ed578063f2fde38b1461020d578063fa71067d14610220578063fc0c546a1461024a575b600080fd5b6100de60085481565b6040519081526020015b60405180910390f35b6101046100ff3660046111c0565b610271565b005b610119610114366004611131565b61049a565b604080519384526020840192909252908201526060016100e8565b61013c6105dd565b6040516100e8919061126b565b6100de610157366004611131565b60026020526000908152604090205481565b61010461066f565b61010461017f36600461120b565b6106aa565b61010461019236600461120b565b6108ef565b6101046101a5366004611158565b610953565b6101b2610b16565b6040516100e89190611257565b610104610b25565b6006546007546101d8919060ff1682565b604080519283529015156020830152016100e8565b6100de6101fb366004611131565b60016020526000908152604090205481565b61010461021b366004611131565b610c25565b61023361022e36600461120b565b610cc5565b6040805192151583526020830191909152016100e8565b6101b27f000000000000000000000000000000000000000000000000000000000000000081565b3361027a610b16565b6001600160a01b0316146102a95760405162461bcd60e51b81526004016102a09061131d565b60405180910390fd5b60075460ff16156102cc5760405162461bcd60e51b81526004016102a0906112ec565b82806102ea5760405162461bcd60e51b81526004016102a09061129e565b8082146103095760405162461bcd60e51b81526004016102a0906112c6565b6000805b8281101561035b5784848281811061033557634e487b7160e01b600052603260045260246000fd5b90506020020135826103479190611352565b91508061035381611427565b91505061030d565b50620f424081146103b85760405162461bcd60e51b815260206004820152602160248201527f50657263656e7461676573206164642075702073686f756c64206265203130306044820152602560f81b60648201526084016102a0565b60088290556040805160a06020880280830182019093526080820188815291928392918a918a9182919086019084908082843760009201919091525050509082525060408051602087810282810182019093528782529283019290918891889182918501908490808284376000920182905250938552505050602080830182905260409092015281518051600492610454928492910190611088565b50602082810151805161046d9260018501920190611088565b50604082015160028201556060909101516003909101805460ff1916911515919091179055505050505050565b6007546000908190819060ff166104bb5750600019915060009050806105d6565b6001600160a01b038416600090815260016020526040902054806104eb57600019600080935093509350506105d6565b60045460005b818110156105c65760008061050583610cc5565b915091506000620f4240866004600101868154811061053457634e487b7160e01b600052603260045260246000fd5b9060005260206000200154610549919061138a565b610553919061136a565b6001600160a01b038b16600090815260096020908152604080832088845290915290205490915060ff168361059557509297509195509093506105d692505050565b806105af5750929750919550600094506105d69350505050565b5050505080806105be90611427565b9150506104f1565b5060001960008094509450945050505b9193909250565b6060600380546105ec906113ec565b80601f0160208091040260200160405190810160405280929190818152602001828054610618906113ec565b80156106655780601f1061063a57610100808354040283529160200191610665565b820191906000526020600020905b81548152906001019060200180831161064857829003601f168201915b5050505050905090565b33610678610b16565b6001600160a01b03161461069e5760405162461bcd60e51b81526004016102a09061131d565b6106a86000610d46565b565b60006106b582610cc5565b509050806107025760405162461bcd60e51b815260206004820152601a6024820152794e6f7420636c61696d61626c6520617420746869732074696d6560301b60448201526064016102a0565b336000908152600160205260409020548061076a5760405162461bcd60e51b815260206004820152602260248201527f4e6f20746f6b656e732068617665206265656e20616c6c6f74656420746f20796044820152616f7560f01b60648201526084016102a0565b33600090815260096020908152604080832086845290915290205460ff1680156107e25760405162461bcd60e51b815260206004820152602360248201527f54686973207665737420616d6f756e7420697320616c726561647920636c61696044820152621b595960ea1b60648201526084016102a0565b3360009081526009602090815260408083208784529091528120805460ff1916600117905560058054620f42409185918890811061083057634e487b7160e01b600052603260045260246000fd5b9060005260206000200154610845919061138a565b61084f919061136a565b33600090815260026020526040812080549293508392909190610873908490611352565b909155506108ad90506001600160a01b037f0000000000000000000000000000000000000000000000000000000000000000163383610d96565b604080514281526020810183905233917fcb1e26772e882480176a3e649a5f7937dc0ec3f50126283faf56f927b070be80910160405180910390a25050505050565b336108f8610b16565b6001600160a01b03161461091e5760405162461bcd60e51b81526004016102a09061131d565b60075460ff16156109415760405162461bcd60e51b81526004016102a0906112ec565b6006556007805460ff19166001179055565b3361095c610b16565b6001600160a01b0316146109825760405162461bcd60e51b81526004016102a09061131d565b60075460ff16156109a55760405162461bcd60e51b81526004016102a0906112ec565b82806109c35760405162461bcd60e51b81526004016102a09061129e565b8082146109e25760405162461bcd60e51b81526004016102a0906112c6565b6000805b82811015610ad0576000878783818110610a1057634e487b7160e01b600052603260045260246000fd5b9050602002016020810190610a259190611131565b9050858583818110610a4757634e487b7160e01b600052603260045260246000fd5b9050602002013560016000836001600160a01b03166001600160a01b031681526020019081526020016000206000828254610a829190611352565b909155508690508583818110610aa857634e487b7160e01b600052603260045260246000fd5b9050602002013583610aba9190611352565b9250508080610ac890611427565b9150506109e6565b50610b0e610adc610b16565b6001600160a01b037f000000000000000000000000000000000000000000000000000000000000000016903084610dfe565b505050505050565b6000546001600160a01b031690565b33610b2e610b16565b6001600160a01b031614610b545760405162461bcd60e51b81526004016102a09061131d565b6106a8337f00000000000000000000000000000000000000000000000000000000000000006001600160a01b03166370a08231306040518263ffffffff1660e01b8152600401610ba49190611257565b60206040518083038186803b158015610bbc57600080fd5b505afa158015610bd0573d6000803e3d6000fd5b505050506040513d601f19601f82011682018060405250810190610bf49190611223565b6001600160a01b037f0000000000000000000000000000000000000000000000000000000000000000169190610d96565b33610c2e610b16565b6001600160a01b031614610c545760405162461bcd60e51b81526004016102a09061131d565b6001600160a01b038116610cb95760405162461bcd60e51b815260206004820152602660248201527f4f776e61626c653a206e6577206f776e657220697320746865207a65726f206160448201526564647265737360d01b60648201526084016102a0565b610cc281610d46565b50565b600754600090819060ff16610cdf57506000928392509050565b600060046000018481548110610d0557634e487b7160e01b600052603260045260246000fd5b6000918252602082200154600654909250610d21908390611352565b9050428110600081610d3a57610d3742846113a9565b90505b90969095509350505050565b600080546001600160a01b038381166001600160a01b0319831681178455604051919092169283917f8be0079c531659141344cd1fd0a4f28419497f9722a3daafe3b4186f6b6457e09190a35050565b6040516001600160a01b038316602482015260448101829052610df990849063a9059cbb60e01b906064015b60408051601f198184030181529190526020810180516001600160e01b03166001600160e01b031990931692909217909152610e3c565b505050565b6040516001600160a01b0380851660248301528316604482015260648101829052610e369085906323b872dd60e01b90608401610dc2565b50505050565b6000610e91826040518060400160405280602081526020017f5361666545524332303a206c6f772d6c6576656c2063616c6c206661696c6564815250856001600160a01b0316610f0e9092919063ffffffff16565b805190915015610df95780806020019051810190610eaf91906111eb565b610df95760405162461bcd60e51b815260206004820152602a60248201527f5361666545524332303a204552433230206f7065726174696f6e20646964206e6044820152691bdd081cdd58d8d9595960b21b60648201526084016102a0565b6060610f1d8484600085610f27565b90505b9392505050565b606082471015610f885760405162461bcd60e51b815260206004820152602660248201527f416464726573733a20696e73756666696369656e742062616c616e636520666f6044820152651c8818d85b1b60d21b60648201526084016102a0565b843b610fd65760405162461bcd60e51b815260206004820152601d60248201527f416464726573733a2063616c6c20746f206e6f6e2d636f6e747261637400000060448201526064016102a0565b600080866001600160a01b03168587604051610ff2919061123b565b60006040518083038185875af1925050503d806000811461102f576040519150601f19603f3d011682016040523d82523d6000602084013e611034565b606091505b509150915061104482828661104f565b979650505050505050565b6060831561105e575081610f20565b82511561106e5782518084602001fd5b8160405162461bcd60e51b81526004016102a0919061126b565b8280548282559060005260206000209081019282156110c3579160200282015b828111156110c35782518255916020019190600101906110a8565b506110cf9291506110d3565b5090565b5b808211156110cf57600081556001016110d4565b60008083601f8401126110f9578182fd5b5081356001600160401b0381111561110f578182fd5b6020830191508360208260051b850101111561112a57600080fd5b9250929050565b600060208284031215611142578081fd5b81356001600160a01b0381168114610f20578182fd5b6000806000806040858703121561116d578283fd5b84356001600160401b0380821115611183578485fd5b61118f888389016110e8565b909650945060208701359150808211156111a7578384fd5b506111b4878288016110e8565b95989497509550505050565b600080600080604085870312156111d5578384fd5b84356001600160401b0380821115611183578586fd5b6000602082840312156111fc578081fd5b81518015158114610f20578182fd5b60006020828403121561121c578081fd5b5035919050565b600060208284031215611234578081fd5b5051919050565b6000825161124d8184602087016113c0565b9190910192915050565b6001600160a01b0391909116815260200190565b602081526000825180602084015261128a8160408501602087016113c0565b601f01601f19169190910160400192915050565b6020808252600e908201526d092dcecc2d8d2c840d8cadccee8d60931b604082015260600190565b6020808252600c908201526b57726f6e672072616e67657360a01b604082015260600190565b60208082526017908201527615995cdd1a5b99c8185b1c9958591e481cdd185c9d1959604a1b604082015260600190565b6020808252818101527f4f776e61626c653a2063616c6c6572206973206e6f7420746865206f776e6572604082015260600190565b6000821982111561136557611365611442565b500190565b60008261138557634e487b7160e01b81526012600452602481fd5b500490565b60008160001904831182151516156113a4576113a4611442565b500290565b6000828210156113bb576113bb611442565b500390565b60005b838110156113db5781810151838201526020016113c3565b83811115610e365750506000910152565b600181811c9082168061140057607f821691505b6020821081141561142157634e487b7160e01b600052602260045260246000fd5b50919050565b600060001982141561143b5761143b611442565b5060010190565b634e487b7160e01b600052601160045260246000fdfea26469706673582212202d6b7d99aeaef1dedb22e0afc6eb97c31c760a13134a72b98aa2d0afed91118a64736f6c63430008040033","bytecodeSha1":"16811aceb22e5063dc8b66e506a2917f80d550e9","compiler":{"evm_version":"istanbul","optimizer":{"enabled":true,"runs":1},"version":"0.8.4+commit.c7e474f2"},"contractName":"Vesting","language":"Solidity","natspec":{"kind":"dev","methods":{"allotTokens(address[],uint256[])":{"details":"Allot tokens to users and transfer that many tokens to the contract","notice":"- Access control: Public onlyOwner.","params":{"_tokenAmounts":"- Array of token amounts alloted to users.","_users":"- Array of user addresses for alloting the tokens."}},"claimVestedTokens(uint256)":{"details":"Allow users to claim their vested token, according to the index of the vested period.","notice":"- Access control: External.","params":{"_index":"- The index of the vesting period."}},"getNextVestingClaim(address)":{"details":"To get the next vesting claim for a user.","notice":"- Access control: External. View.","params":{"_user":"- The user's address."},"returns":{"_0":"- int256 : the next period. -1 to indicate none found.","_1":"- uint256 : the amount of token claimable","_2":"- uint256 : time left to claim. If 0 (and next claim period is valid), it is currently claimable."}},"isVestingClaimable(uint256)":{"details":"Check whether a particular vesting index has elapsed and claimable","notice":"- Access control: Public.","returns":{"_0":"- Bool: Claimable, uint256: If started and not claimable, returns the time needed to be claimable."}},"owner()":{"details":"Returns the address of the current owner."},"pool_name()":{"details":"Returns the name of the Vesting Pool."},"renounceOwnership()":{"details":"Leaves the contract without owner. It will not be possible to call `onlyOwner` functions anymore. Can only be called by the current owner. NOTE: Renouncing ownership will leave the contract without an owner, thereby removing any functionality that is only available to the owner."},"setupVestingMode(uint256[],uint256[])":{"details":"Setup and turn on the vesting feature","notice":"- Access control: Public onlyOwner.","params":{"_percents":"- Array of percents release of the vesting.","_periods":"- Array of period of the vesting."}},"startVestingMode(uint256)":{"details":"Start the vesting counter.","notice":"- Access control: External. onlyOwner.","params":{"startTime":"- Time at which the vesting will start."}},"transferOwnership(address)":{"details":"Transfers ownership of the contract to a new account (`newOwner`). Can only be called by the current owner."}},"version":1},"opcodes":"PUSH1 0x80 PUSH1 0x40 MSTORE CALLVALUE DUP1 ISZERO PUSH2 0x10 JUMPI PUSH1 0x0 DUP1 REVERT JUMPDEST POP PUSH1 0x4 CALLDATASIZE LT PUSH2 0xD0 JUMPI PUSH1 0x0 CALLDATALOAD PUSH1 0xE0 SHR DUP1 PUSH4 0x29704AF EQ PUSH2 0xD5 JUMPI DUP1 PUSH4 0x11E128A9 EQ PUSH2 0xF1 JUMPI DUP1 PUSH4 0x22E77E2D EQ PUSH2 0x106 JUMPI DUP1 PUSH4 0x2D59680D EQ PUSH2 0x134 JUMPI DUP1 PUSH4 0x624601B6 EQ PUSH2 0x149 JUMPI DUP1 PUSH4 0x715018A6 EQ PUSH2 0x169 JUMPI DUP1 PUSH4 0x7935510B EQ PUSH2 0x171 JUMPI DUP1 PUSH4 0x7CAE771B EQ PUSH2 0x184 JUMPI DUP1 PUSH4 0x7D8AB226 EQ PUSH2 0x197 JUMPI DUP1 PUSH4 0x8DA5CB5B EQ PUSH2 0x1AA JUMPI DUP1 PUSH4 0x93AEFA76 EQ PUSH2 0x1BF JUMPI DUP1 PUSH4 0xBCB43A1D EQ PUSH2 0x1C7 JUMPI DUP1 PUSH4 0xBDE59079 EQ PUSH2 0x1ED JUMPI DUP1 PUSH4 0xF2FDE38B EQ PUSH2 0x20D JUMPI DUP1 PUSH4 0xFA71067D EQ PUSH2 0x220 JUMPI DUP1 PUSH4 0xFC0C546A EQ PUSH2 0x24A JUMPI JUMPDEST PUSH1 0x0 DUP1 REVERT JUMPDEST PUSH2 0xDE PUSH1 0x8 SLOAD DUP2 JUMP JUMPDEST PUSH1 0x40 MLOAD SWAP1 DUP2 MSTORE PUSH1 0x20 ADD JUMPDEST PUSH1 0x40 MLOAD DUP1 SWAP2 SUB SWAP1 RETURN JUMPDEST PUSH2 0x104 PUSH2 0xFF CALLDATASIZE PUSH1 0x4 PUSH2 0x11C0 JUMP JUMPDEST PUSH2 0x271 JUMP JUMPDEST STOP JUMPDEST PUSH2 0x119 PUSH2 0x114 CALLDATASIZE PUSH1 0x4 PUSH2 0x1131 JUMP JUMPDEST PUSH2 0x49A JUMP JUMPDEST PUSH1 0x40 DUP1 MLOAD SWAP4 DUP5 MSTORE PUSH1 0x20 DUP5 ADD SWAP3 SWAP1 SWAP3 MSTORE SWAP1 DUP3 ADD MSTORE PUSH1 0x60 ADD PUSH2 0xE8 JUMP JUMPDEST PUSH2 0x13C PUSH2 0x5DD JUMP JUMPDEST PUSH1 0x40 MLOAD PUSH2 0xE8 SWAP2 SWAP1 PUSH2 0x126B JUMP JUMPDEST PUSH2 0xDE PUSH2 0x157 CALLDATASIZE PUSH1 0x4 PUSH2 0x1131 JUMP JUMPDEST PUSH1 0x2 PUSH1 0x20 MSTORE PUSH1 0x0 SWAP1 DUP2 MSTORE PUSH1 0x40 SWAP1 KECCAK256 SLOAD DUP2 JUMP JUMPDEST PUSH2 0x104 PUSH2 0x66F JUMP JUMPDEST PUSH2 0x104 PUSH2 0x17F CALLDATASIZE PUSH1 0x4 PUSH2 0x120B JUMP JUMPDEST PUSH2 0x6AA JUMP JUMPDEST PUSH2 0x104 PUSH2 0x192 CALLDATASIZE PUSH1 0x4 PUSH2 0x120B JUMP JUMPDEST PUSH2 0x8EF JUMP JUMPDEST PUSH2 0x104 PUSH2 0x1A5 CALLDATASIZE PUSH1 0x4 PUSH2 0x1158 JUMP JUMPDEST PUSH2 0x953 JUMP JUMPDEST PUSH2 0x1B2 PUSH2 0xB16 JUMP JUMPDEST PUSH1 0x40 MLOAD PUSH2 0xE8 SWAP2 SWAP1 PUSH2 0x1257 JUMP JUMPDEST PUSH2 0x104 PUSH2 0xB25 JUMP JUMPDEST PUSH1 0x6 SLOAD PUSH1 0x7 SLOAD PUSH2 0x1D8 SWAP2 SWAP1 PUSH1 0xFF AND DUP3 JUMP JUMPDEST PUSH1 0x40 DUP1 MLOAD SWAP3 DUP4 MSTORE SWAP1 ISZERO ISZERO PUSH1 0x20 DUP4 ADD MSTORE ADD PUSH2 0xE8 JUMP JUMPDEST PUSH2 0xDE PUSH2 0x1FB CALLDATASIZE PUSH1 0x4 PUSH2 0x1131 JUMP JUMPDEST PUSH1 0x1 PUSH1 0x20 MSTORE PUSH1 0x0 SWAP1 DUP2 MSTORE PUSH1 0x40 SWAP1 KECCAK256 SLOAD DUP2 JUMP JUMPDEST PUSH2 0x104 PUSH2 0x21B CALLDATASIZE PUSH1 0x4 PUSH2 0x1131 JUMP JUMPDEST PUSH2 0xC25 JUMP JUMPDEST PUSH2 0x233 PUSH2 0x22E CALLDATASIZE PUSH1 0x4 PUSH2 0x120B JUMP JUMPDEST PUSH2 0xCC5 JUMP JUMPDEST PUSH1 0x40 DUP1 MLOAD SWAP3 ISZERO ISZERO DUP4 MSTORE PUSH1 0x20 DUP4 ADD SWAP2 SWAP1 SWAP2 MSTORE ADD PUSH2 0xE8 JUMP JUMPDEST PUSH2 0x1B2 PUSH32 0x0 DUP2 JUMP JUMPDEST CALLER PUSH2 0x27A PUSH2 0xB16 JUMP JUMPDEST PUSH1 0x1 PUSH1 0x1 PUSH1 0xA0 SHL SUB AND EQ PUSH2 0x2A9 JUMPI PUSH1 0x40 MLOAD PUSH3 0x461BCD PUSH1 0xE5 SHL DUP2 MSTORE PUSH1 0x4 ADD PUSH2 0x2A0 SWAP1 PUSH2 0x131D JUMP JUMPDEST PUSH1 0x40 MLOAD DUP1 SWAP2 SUB SWAP1 REVERT JUMPDEST PUSH1 0x7 SLOAD PUSH1 0xFF AND ISZERO PUSH2 0x2CC JUMPI PUSH1 0x40 MLOAD PUSH3 0x461BCD PUSH1 0xE5 SHL DUP2 MSTORE PUSH1 0x4 ADD PUSH2 0x2A0 SWAP1 PUSH2 0x12EC JUMP JUMPDEST DUP3 DUP1 PUSH2 0x2EA JUMPI PUSH1 0x40 MLOAD PUSH3 0x461BCD PUSH1 0xE5 SHL DUP2 MSTORE PUSH1 0x4 ADD PUSH2 0x2A0 SWAP1 PUSH2 0x129E JUMP JUMPDEST DUP1 DUP3 EQ PUSH2 0x309 JUMPI PUSH1 0x40 MLOAD PUSH3 0x461BCD PUSH1 0xE5 SHL DUP2 MSTORE PUSH1 0x4 ADD PUSH2 0x2A0 SWAP1 PUSH2 0x12C6 JUMP JUMPDEST PUSH1 0x0 DUP1 JUMPDEST DUP3 DUP2 LT ISZERO PUSH2 0x35B JUMPI DUP5 DUP5 DUP3 DUP2 DUP2 LT PUSH2 0x335 JUMPI PUSH4 0x4E487B71 PUSH1 0xE0 SHL PUSH1 0x0 MSTORE PUSH1 0x32 PUSH1 0x4 MSTORE PUSH1 0x24 PUSH1 0x0 REVERT JUMPDEST SWAP1 POP PUSH1 0x20 MUL ADD CALLDATALOAD DUP3 PUSH2 0x347 SWAP2 SWAP1 PUSH2 0x1352 JUMP JUMPDEST SWAP2 POP DUP1 PUSH2 0x353 DUP2 PUSH2 0x1427 JUMP JUMPDEST SWAP2 POP POP PUSH2 0x30D JUMP JUMPDEST POP PUSH3 0xF4240 DUP2 EQ PUSH2 0x3B8 JUMPI PUSH1 0x40 MLOAD PUSH3 0x461BCD PUSH1 0xE5 SHL DUP2 MSTORE PUSH1 0x20 PUSH1 0x4 DUP3 ADD MSTORE PUSH1 0x21 PUSH1 0x24 DUP3 ADD MSTORE PUSH32 0x50657263656E7461676573206164642075702073686F756C6420626520313030 PUSH1 0x44 DUP3 ADD MSTORE PUSH1 0x25 PUSH1 0xF8 SHL PUSH1 0x64 DUP3 ADD MSTORE PUSH1 0x84 ADD PUSH2 0x2A0 JUMP JUMPDEST PUSH1 0x8 DUP3 SWAP1 SSTORE PUSH1 0x40 DUP1 MLOAD PUSH1 0xA0 PUSH1 0x20 DUP9 MUL DUP1 DUP4 ADD DUP3 ADD SWAP1 SWAP4 MSTORE PUSH1 0x80 DUP3 ADD DUP9 DUP2 MSTORE SWAP2 SWAP3 DUP4 SWAP3 SWAP2 DUP11 SWAP2 DUP11 SWAP2 DUP3 SWAP2 SWAP1 DUP7 ADD SWAP1 DUP5 SWAP1 DUP1 DUP3 DUP5 CALLDATACOPY PUSH1 0x0 SWAP3 ADD SWAP2 SWAP1 SWAP2 MSTORE POP POP POP SWAP1 DUP3 MSTORE POP PUSH1 0x40 DUP1 MLOAD PUSH1 0x20 DUP8 DUP2 MUL DUP3 DUP2 ADD DUP3 ADD SWAP1 SWAP4 MSTORE DUP8 DUP3 MSTORE SWAP3 DUP4 ADD SWAP3 SWAP1 SWAP2 DUP9 SWAP2 DUP9 SWAP2 DUP3 SWAP2 DUP6 ADD SWAP1 DUP5 SWAP1 DUP1 DUP3 DUP5 CALLDATACOPY PUSH1 0x0 SWAP3 ADD DUP3 SWAP1 MSTORE POP SWAP4 DUP6 MSTORE POP POP POP PUSH1 0x20 DUP1 DUP4 ADD DUP3 SWAP1 MSTORE PUSH1 0x40 SWAP1 SWAP3 ADD MSTORE DUP2 MLOAD DUP1 MLOAD PUSH1 0x4 SWAP3 PUSH2 0x454 SWAP3 DUP5 SWAP3 SWAP2 ADD SWAP1 PUSH2 0x1088 JUMP JUMPDEST POP PUSH1 0x20 DUP3 DUP2 ADD MLOAD DUP1 MLOAD PUSH2 0x46D SWAP3 PUSH1 0x1 DUP6 ADD SWAP3 ADD SWAP1 PUSH2 0x1088 JUMP JUMPDEST POP PUSH1 0x40 DUP3 ADD MLOAD PUSH1 0x2 DUP3 ADD SSTORE PUSH1 0x60 SWAP1 SWAP2 ADD MLOAD PUSH1 0x3 SWAP1 SWAP2 ADD DUP1 SLOAD PUSH1 0xFF NOT AND SWAP2 ISZERO ISZERO SWAP2 SWAP1 SWAP2 OR SWAP1 SSTORE POP POP POP POP POP POP JUMP JUMPDEST PUSH1 0x7 SLOAD PUSH1 0x0 SWAP1 DUP2 SWAP1 DUP2 SWAP1 PUSH1 0xFF AND PUSH2 0x4BB JUMPI POP PUSH1 0x0 NOT SWAP2 POP PUSH1 0x0 SWAP1 POP DUP1 PUSH2 0x5D6 JUMP JUMPDEST PUSH1 0x1 PUSH1 0x1 PUSH1 0xA0 SHL SUB DUP5 AND PUSH1 0x0 SWAP1 DUP2 MSTORE PUSH1 0x1 PUSH1 0x20 MSTORE PUSH1 0x40 SWAP1 KECCAK256 SLOAD DUP1 PUSH2 0x4EB JUMPI PUSH1 0x0 NOT PUSH1 0x0 DUP1 SWAP4 POP SWAP4 POP SWAP4 POP POP PUSH2 0x5D6 JUMP JUMPDEST PUSH1 0x4 SLOAD PUSH1 0x0 JUMPDEST DUP2 DUP2 LT ISZERO PUSH2 0x5C6 JUMPI PUSH1 0x0 DUP1 PUSH2 0x505 DUP4 PUSH2 0xCC5 JUMP JUMPDEST SWAP2 POP SWAP2 POP PUSH1 0x0 PUSH3 0xF4240 DUP7 PUSH1 0x4 PUSH1 0x1 ADD DUP7 DUP2 SLOAD DUP2 LT PUSH2 0x534 JUMPI PUSH4 0x4E487B71 PUSH1 0xE0 SHL PUSH1 0x0 MSTORE PUSH1 0x32 PUSH1 0x4 MSTORE PUSH1 0x24 PUSH1 0x0 REVERT JUMPDEST SWAP1 PUSH1 0x0 MSTORE PUSH1 0x20 PUSH1 0x0 KECCAK256 ADD SLOAD PUSH2 0x549 SWAP2 SWAP1 PUSH2 0x138A JUMP JUMPDEST PUSH2 0x553 SWAP2 SWAP1 PUSH2 0x136A JUMP JUMPDEST PUSH1 0x1 PUSH1 0x1 PUSH1 0xA0 SHL SUB DUP12 AND PUSH1 0x0 SWAP1 DUP2 MSTORE PUSH1 0x9 PUSH1 0x20 SWAP1 DUP2 MSTORE PUSH1 0x40 DUP1 DUP4 KECCAK256 DUP9 DUP5 MSTORE SWAP1 SWAP2 MSTORE SWAP1 KECCAK256 SLOAD SWAP1 SWAP2 POP PUSH1 0xFF AND DUP4 PUSH2 0x595 JUMPI POP SWAP3 SWAP8 POP SWAP2 SWAP6 POP SWAP1 SWAP4 POP PUSH2 0x5D6 SWAP3 POP POP POP JUMP JUMPDEST DUP1 PUSH2 0x5AF JUMPI POP SWAP3 SWAP8 POP SWAP2 SWAP6 POP PUSH1 0x0 SWAP5 POP PUSH2 0x5D6 SWAP4 POP POP POP POP JUMP JUMPDEST POP POP POP POP DUP1 DUP1 PUSH2 0x5BE SWAP1 PUSH2 0x1427 JUMP JUMPDEST SWAP2 POP POP PUSH2 0x4F1 JUMP JUMPDEST POP PUSH1 0x0 NOT PUSH1 0x0 DUP1 SWAP5 POP SWAP5 POP SWAP5 POP POP POP JUMPDEST SWAP2 SWAP4 SWAP1 SWAP3 POP JUMP JUMPDEST PUSH1 0x60 PUSH1 0x3 DUP1 SLOAD PUSH2 0x5EC SWAP1 PUSH2 0x13EC JUMP JUMPDEST DUP1 PUSH1 0x1F ADD PUSH1 0x20 DUP1 SWAP2 DIV MUL PUSH1 0x20 ADD PUSH1 0x40 MLOAD SWAP1 DUP2 ADD PUSH1 0x40 MSTORE DUP1 SWAP3 SWAP2 SWAP1 DUP2 DUP2 MSTORE PUSH1 0x20 ADD DUP3 DUP1 SLOAD PUSH2 0x618 SWAP1 PUSH2 0x13EC JUMP JUMPDEST DUP1 ISZERO PUSH2 0x665 JUMPI DUP1 PUSH1 0x1F LT PUSH2 0x63A JUMPI PUSH2 0x100 DUP1 DUP4 SLOAD DIV MUL DUP4 MSTORE SWAP2 PUSH1 0x20 ADD SWAP2 PUSH2 0x665 JUMP JUMPDEST DUP3 ADD SWAP2 SWAP1 PUSH1 0x0 MSTORE PUSH1 0x20 PUSH1 0x0 KECCAK256 SWAP1 JUMPDEST DUP2 SLOAD DUP2 MSTORE SWAP1 PUSH1 0x1 ADD SWAP1 PUSH1 0x20 ADD DUP1 DUP4 GT PUSH2 0x648 JUMPI DUP3 SWAP1 SUB PUSH1 0x1F AND DUP3 ADD SWAP2 JUMPDEST POP POP POP POP POP SWAP1 POP SWAP1 JUMP JUMPDEST CALLER PUSH2 0x678 PUSH2 0xB16 JUMP JUMPDEST PUSH1 0x1 PUSH1 0x1 PUSH1 0xA0 SHL SUB AND EQ PUSH2 0x69E JUMPI PUSH1 0x40 MLOAD PUSH3 0x461BCD PUSH1 0xE5 SHL DUP2 MSTORE PUSH1 0x4 ADD PUSH2 0x2A0 SWAP1 PUSH2 0x131D JUMP JUMPDEST PUSH2 0x6A8 PUSH1 0x0 PUSH2 0xD46 JUMP JUMPDEST JUMP JUMPDEST PUSH1 0x0 PUSH2 0x6B5 DUP3 PUSH2 0xCC5 JUMP JUMPDEST POP SWAP1 POP DUP1 PUSH2 0x702 JUMPI PUSH1 0x40 MLOAD PUSH3 0x461BCD PUSH1 0xE5 SHL DUP2 MSTORE PUSH1 0x20 PUSH1 0x4 DUP3 ADD MSTORE PUSH1 0x1A PUSH1 0x24 DUP3 ADD MSTORE PUSH26 0x4E6F7420636C61696D61626C6520617420746869732074696D65 PUSH1 0x30 SHL PUSH1 0x44 DUP3 ADD MSTORE PUSH1 0x64 ADD PUSH2 0x2A0 JUMP JUMPDEST CALLER PUSH1 0x0 SWAP1 DUP2 MSTORE PUSH1 0x1 PUSH1 0x20 MSTORE PUSH1 0x40 SWAP1 KECCAK256 SLOAD DUP1 PUSH2 0x76A JUMPI PUSH1 0x40 MLOAD PUSH3 0x461BCD PUSH1 0xE5 SHL DUP2 MSTORE PUSH1 0x20 PUSH1 0x4 DUP3 ADD MSTORE PUSH1 0x22 PUSH1 0x24 DUP3 ADD MSTORE PUSH32 0x4E6F20746F6B656E732068617665206265656E20616C6C6F74656420746F2079 PUSH1 0x44 DUP3 ADD MSTORE PUSH2 0x6F75 PUSH1 0xF0 SHL PUSH1 0x64 DUP3 ADD MSTORE PUSH1 0x84 ADD PUSH2 0x2A0 JUMP JUMPDEST CALLER PUSH1 0x0 SWAP1 DUP2 MSTORE PUSH1 0x9 PUSH1 0x20 SWAP1 DUP2 MSTORE PUSH1 0x40 DUP1 DUP4 KECCAK256 DUP7 DUP5 MSTORE SWAP1 SWAP2 MSTORE SWAP1 KECCAK256 SLOAD PUSH1 0xFF AND DUP1 ISZERO PUSH2 0x7E2 JUMPI PUSH1 0x40 MLOAD PUSH3 0x461BCD PUSH1 0xE5 SHL DUP2 MSTORE PUSH1 0x20 PUSH1 0x4 DUP3 ADD MSTORE PUSH1 0x23 PUSH1 0x24 DUP3 ADD MSTORE PUSH32 0x54686973207665737420616D6F756E7420697320616C726561647920636C6169 PUSH1 0x44 DUP3 ADD MSTORE PUSH3 0x1B5959 PUSH1 0xEA SHL PUSH1 0x64 DUP3 ADD MSTORE PUSH1 0x84 ADD PUSH2 0x2A0 JUMP JUMPDEST CALLER PUSH1 0x0 SWAP1 DUP2 MSTORE PUSH1 0x9 PUSH1 0x20 SWAP1 DUP2 MSTORE PUSH1 0x40 DUP1 DUP4 KECCAK256 DUP8 DUP5 MSTORE SWAP1 SWAP2 MSTORE DUP2 KECCAK256 DUP1 SLOAD PUSH1 0xFF NOT AND PUSH1 0x1 OR SWAP1 SSTORE PUSH1 0x5 DUP1 SLOAD PUSH3 0xF4240 SWAP2 DUP6 SWAP2 DUP9 SWAP1 DUP2 LT PUSH2 0x830 JUMPI PUSH4 0x4E487B71 PUSH1 0xE0 SHL PUSH1 0x0 MSTORE PUSH1 0x32 PUSH1 0x4 MSTORE PUSH1 0x24 PUSH1 0x0 REVERT JUMPDEST SWAP1 PUSH1 0x0 MSTORE PUSH1 0x20 PUSH1 0x0 KECCAK256 ADD SLOAD PUSH2 0x845 SWAP2 SWAP1 PUSH2 0x138A JUMP JUMPDEST PUSH2 0x84F SWAP2 SWAP1 PUSH2 0x136A JUMP JUMPDEST CALLER PUSH1 0x0 SWAP1 DUP2 MSTORE PUSH1 0x2 PUSH1 0x20 MSTORE PUSH1 0x40 DUP2 KECCAK256 DUP1 SLOAD SWAP3 SWAP4 POP DUP4 SWAP3 SWAP1 SWAP2 SWAP1 PUSH2 0x873 SWAP1 DUP5 SWAP1 PUSH2 0x1352 JUMP JUMPDEST SWAP1 SWAP2 SSTORE POP PUSH2 0x8AD SWAP1 POP PUSH1 0x1 PUSH1 0x1 PUSH1 0xA0 SHL SUB PUSH32 0x0 AND CALLER DUP4 PUSH2 0xD96 JUMP JUMPDEST PUSH1 0x40 DUP1 MLOAD TIMESTAMP DUP2 MSTORE PUSH1 0x20 DUP2 ADD DUP4 SWAP1 MSTORE CALLER SWAP2 PUSH32 0xCB1E26772E882480176A3E649A5F7937DC0EC3F50126283FAF56F927B070BE80 SWAP2 ADD PUSH1 0x40 MLOAD DUP1 SWAP2 SUB SWAP1 LOG2 POP POP POP POP POP JUMP JUMPDEST CALLER PUSH2 0x8F8 PUSH2 0xB16 JUMP JUMPDEST PUSH1 0x1 PUSH1 0x1 PUSH1 0xA0 SHL SUB AND EQ PUSH2 0x91E JUMPI PUSH1 0x40 MLOAD PUSH3 0x461BCD PUSH1 0xE5 SHL DUP2 MSTORE PUSH1 0x4 ADD PUSH2 0x2A0 SWAP1 PUSH2 0x131D JUMP JUMPDEST PUSH1 0x7 SLOAD PUSH1 0xFF AND ISZERO PUSH2 0x941 JUMPI PUSH1 0x40 MLOAD PUSH3 0x461BCD PUSH1 0xE5 SHL DUP2 MSTORE PUSH1 0x4 ADD PUSH2 0x2A0 SWAP1 PUSH2 0x12EC JUMP JUMPDEST PUSH1 0x6 SSTORE PUSH1 0x7 DUP1 SLOAD PUSH1 0xFF NOT AND PUSH1 0x1 OR SWAP1 SSTORE JUMP JUMPDEST CALLER PUSH2 0x95C PUSH2 0xB16 JUMP JUMPDEST PUSH1 0x1 PUSH1 0x1 PUSH1 0xA0 SHL SUB AND EQ PUSH2 0x982 JUMPI PUSH1 0x40 MLOAD PUSH3 0x461BCD PUSH1 0xE5 SHL DUP2 MSTORE PUSH1 0x4 ADD PUSH2 0x2A0 SWAP1 PUSH2 0x131D JUMP JUMPDEST PUSH1 0x7 SLOAD PUSH1 0xFF AND ISZERO PUSH2 0x9A5 JUMPI PUSH1 0x40 MLOAD PUSH3 0x461BCD PUSH1 0xE5 SHL DUP2 MSTORE PUSH1 0x4 ADD PUSH2 0x2A0 SWAP1 PUSH2 0x12EC JUMP JUMPDEST DUP3 DUP1 PUSH2 0x9C3 JUMPI PUSH1 0x40 MLOAD PUSH3 0x461BCD PUSH1 0xE5 SHL DUP2 MSTORE PUSH1 0x4 ADD PUSH2 0x2A0 SWAP1 PUSH2 0x129E JUMP JUMPDEST DUP1 DUP3 EQ PUSH2 0x9E2 JUMPI PUSH1 0x40 MLOAD PUSH3 0x461BCD PUSH1 0xE5 SHL DUP2 MSTORE PUSH1 0x4 ADD PUSH2 0x2A0 SWAP1 PUSH2 0x12C6 JUMP JUMPDEST PUSH1 0x0 DUP1 JUMPDEST DUP3 DUP2 LT ISZERO PUSH2 0xAD0 JUMPI PUSH1 0x0 DUP8 DUP8 DUP4 DUP2 DUP2 LT PUSH2 0xA10 JUMPI PUSH4 0x4E487B71 PUSH1 0xE0 SHL PUSH1 0x0 MSTORE PUSH1 0x32 PUSH1 0x4 MSTORE PUSH1 0x24 PUSH1 0x0 REVERT JUMPDEST SWAP1 POP PUSH1 0x20 MUL ADD PUSH1 0x20 DUP2 ADD SWAP1 PUSH2 0xA25 SWAP2 SWAP1 PUSH2 0x1131 JUMP JUMPDEST SWAP1 POP DUP6 DUP6 DUP4 DUP2 DUP2 LT PUSH2 0xA47 JUMPI PUSH4 0x4E487B71 PUSH1 0xE0 SHL PUSH1 0x0 MSTORE PUSH1 0x32 PUSH1 0x4 MSTORE PUSH1 0x24 PUSH1 0x0 REVERT JUMPDEST SWAP1 POP PUSH1 0x20 MUL ADD CALLDATALOAD PUSH1 0x1 PUSH1 0x0 DUP4 PUSH1 0x1 PUSH1 0x1 PUSH1 0xA0 SHL SUB AND PUSH1 0x1 PUSH1 0x1 PUSH1 0xA0 SHL SUB AND DUP2 MSTORE PUSH1 0x20 ADD SWAP1 DUP2 MSTORE PUSH1 0x20 ADD PUSH1 0x0 KECCAK256 PUSH1 0x0 DUP3 DUP3 SLOAD PUSH2 0xA82 SWAP2 SWAP1 PUSH2 0x1352 JUMP JUMPDEST SWAP1 SWAP2 SSTORE POP DUP7 SWAP1 POP DUP6 DUP4 DUP2 DUP2 LT PUSH2 0xAA8 JUMPI PUSH4 0x4E487B71 PUSH1 0xE0 SHL PUSH1 0x0 MSTORE PUSH1 0x32 PUSH1 0x4 MSTORE PUSH1 0x24 PUSH1 0x0 REVERT JUMPDEST SWAP1 POP PUSH1 0x20 MUL ADD CALLDATALOAD DUP4 PUSH2 0xABA SWAP2 SWAP1 PUSH2 0x1352 JUMP JUMPDEST SWAP3 POP POP DUP1 DUP1 PUSH2 0xAC8 SWAP1 PUSH2 0x1427 JUMP JUMPDEST SWAP2 POP POP PUSH2 0x9E6 JUMP JUMPDEST POP PUSH2 0xB0E PUSH2 0xADC PUSH2 0xB16 JUMP JUMPDEST PUSH1 0x1 PUSH1 0x1 PUSH1 0xA0 SHL SUB PUSH32 0x0 AND SWAP1 ADDRESS DUP5 PUSH2 0xDFE JUMP JUMPDEST POP POP POP POP POP POP JUMP JUMPDEST PUSH1 0x0 SLOAD PUSH1 0x1 PUSH1 0x1 PUSH1 0xA0 SHL SUB AND SWAP1 JUMP JUMPDEST CALLER PUSH2 0xB2E PUSH2 0xB16 JUMP JUMPDEST PUSH1 0x1 PUSH1 0x1 PUSH1 0xA0 SHL SUB AND EQ PUSH2 0xB54 JUMPI PUSH1 0x40 MLOAD PUSH3 0x461BCD PUSH1 0xE5 SHL DUP2 MSTORE PUSH1 0x4 ADD PUSH2 0x2A0 SWAP1 PUSH2 0x131D JUMP JUMPDEST PUSH2 0x6A8 CALLER PUSH32 0x0 PUSH1 0x1 PUSH1 0x1 PUSH1 0xA0 SHL SUB AND PUSH4 0x70A08231 ADDRESS PUSH1 0x40 MLOAD DUP3 PUSH4 0xFFFFFFFF AND PUSH1 0xE0 SHL DUP2 MSTORE PUSH1 0x4 ADD PUSH2 0xBA4 SWAP2 SWAP1 PUSH2 0x1257 JUMP JUMPDEST PUSH1 0x20 PUSH1 0x40 MLOAD DUP1 DUP4 SUB DUP2 DUP7 DUP1 EXTCODESIZE ISZERO DUP1 ISZERO PUSH2 0xBBC JUMPI PUSH1 0x0 DUP1 REVERT JUMPDEST POP GAS STATICCALL ISZERO DUP1 ISZERO PUSH2 0xBD0 JUMPI RETURNDATASIZE PUSH1 0x0 DUP1 RETURNDATACOPY RETURNDATASIZE PUSH1 0x0 REVERT JUMPDEST POP POP POP POP PUSH1 0x40 MLOAD RETURNDATASIZE PUSH1 0x1F NOT PUSH1 0x1F DUP3 ADD AND DUP3 ADD DUP1 PUSH1 0x40 MSTORE POP DUP2 ADD SWAP1 PUSH2 0xBF4 SWAP2 SWAP1 PUSH2 0x1223 JUMP JUMPDEST PUSH1 0x1 PUSH1 0x1 PUSH1 0xA0 SHL SUB PUSH32 0x0 AND SWAP2 SWAP1 PUSH2 0xD96 JUMP JUMPDEST CALLER PUSH2 0xC2E PUSH2 0xB16 JUMP JUMPDEST PUSH1 0x1 PUSH1 0x1 PUSH1 0xA0 SHL SUB AND EQ PUSH2 0xC54 JUMPI PUSH1 0x40 MLOAD PUSH3 0x461BCD PUSH1 0xE5 SHL DUP2 MSTORE PUSH1 0x4 ADD PUSH2 0x2A0 SWAP1 PUSH2 0x131D JUMP JUMPDEST PUSH1 0x1 PUSH1 0x1 PUSH1 0xA0 SHL SUB DUP2 AND PUSH2 0xCB9 JUMPI PUSH1 0x40 MLOAD PUSH3 0x461BCD PUSH1 0xE5 SHL DUP2 MSTORE PUSH1 0x20 PUSH1 0x4 DUP3 ADD MSTORE PUSH1 0x26 PUSH1 0x24 DUP3 ADD MSTORE PUSH32 0x4F776E61626C653A206E6577206F776E657220697320746865207A65726F2061 PUSH1 0x44 DUP3 ADD MSTORE PUSH6 0x646472657373 PUSH1 0xD0 SHL PUSH1 0x64 DUP3 ADD MSTORE PUSH1 0x84 ADD PUSH2 0x2A0 JUMP JUMPDEST PUSH2 0xCC2 DUP2 PUSH2 0xD46 JUMP JUMPDEST POP JUMP JUMPDEST PUSH1 0x7 SLOAD PUSH1 0x0 SWAP1 DUP2 SWAP1 PUSH1 0xFF AND PUSH2 0xCDF JUMPI POP PUSH1 0x0 SWAP3 DUP4 SWAP3 POP SWAP1 POP JUMP JUMPDEST PUSH1 0x0 PUSH1 0x4 PUSH1 0x0 ADD DUP5 DUP2 SLOAD DUP2 LT PUSH2 0xD05 JUMPI PUSH4 0x4E487B71 PUSH1 0xE0 SHL PUSH1 0x0 MSTORE PUSH1 0x32 PUSH1 0x4 MSTORE PUSH1 0x24 PUSH1 0x0 REVERT JUMPDEST PUSH1 0x0 SWAP2 DUP3 MSTORE PUSH1 0x20 DUP3 KECCAK256 ADD SLOAD PUSH1 0x6 SLOAD SWAP1 SWAP3 POP PUSH2 0xD21 SWAP1 DUP4 SWAP1 PUSH2 0x1352 JUMP JUMPDEST SWAP1 POP TIMESTAMP DUP2 LT PUSH1 0x0 DUP2 PUSH2 0xD3A JUMPI PUSH2 0xD37 TIMESTAMP DUP5 PUSH2 0x13A9 JUMP JUMPDEST SWAP1 POP JUMPDEST SWAP1 SWAP7 SWAP1 SWAP6 POP SWAP4 POP POP POP POP JUMP JUMPDEST PUSH1 0x0 DUP1 SLOAD PUSH1 0x1 PUSH1 0x1 PUSH1 0xA0 SHL SUB DUP4 DUP2 AND PUSH1 0x1 PUSH1 0x1 PUSH1 0xA0 SHL SUB NOT DUP4 AND DUP2 OR DUP5 SSTORE PUSH1 0x40 MLOAD SWAP2 SWAP1 SWAP3 AND SWAP3 DUP4 SWAP2 PUSH32 0x8BE0079C531659141344CD1FD0A4F28419497F9722A3DAAFE3B4186F6B6457E0 SWAP2 SWAP1 LOG3 POP POP JUMP JUMPDEST PUSH1 0x40 MLOAD PUSH1 0x1 PUSH1 0x1 PUSH1 0xA0 SHL SUB DUP4 AND PUSH1 0x24 DUP3 ADD MSTORE PUSH1 0x44 DUP2 ADD DUP3 SWAP1 MSTORE PUSH2 0xDF9 SWAP1 DUP5 SWAP1 PUSH4 0xA9059CBB PUSH1 0xE0 SHL SWAP1 PUSH1 0x64 ADD JUMPDEST PUSH1 0x40 DUP1 MLOAD PUSH1 0x1F NOT DUP2 DUP5 SUB ADD DUP2 MSTORE SWAP2 SWAP1 MSTORE PUSH1 0x20 DUP2 ADD DUP1 MLOAD PUSH1 0x1 PUSH1 0x1 PUSH1 0xE0 SHL SUB AND PUSH1 0x1 PUSH1 0x1 PUSH1 0xE0 SHL SUB NOT SWAP1 SWAP4 AND SWAP3 SWAP1 SWAP3 OR SWAP1 SWAP2 MSTORE PUSH2 0xE3C JUMP JUMPDEST POP POP POP JUMP JUMPDEST PUSH1 0x40 MLOAD PUSH1 0x1 PUSH1 0x1 PUSH1 0xA0 SHL SUB DUP1 DUP6 AND PUSH1 0x24 DUP4 ADD MSTORE DUP4 AND PUSH1 0x44 DUP3 ADD MSTORE PUSH1 0x64 DUP2 ADD DUP3 SWAP1 MSTORE PUSH2 0xE36 SWAP1 DUP6 SWAP1 PUSH4 0x23B872DD PUSH1 0xE0 SHL SWAP1 PUSH1 0x84 ADD PUSH2 0xDC2 JUMP JUMPDEST POP POP POP POP JUMP JUMPDEST PUSH1 0x0 PUSH2 0xE91 DUP3 PUSH1 0x40 MLOAD DUP1 PUSH1 0x40 ADD PUSH1 0x40 MSTORE DUP1 PUSH1 0x20 DUP2 MSTORE PUSH1 0x20 ADD PUSH32 0x5361666545524332303A206C6F772D6C6576656C2063616C6C206661696C6564 DUP2 MSTORE POP DUP6 PUSH1 0x1 PUSH1 0x1 PUSH1 0xA0 SHL SUB AND PUSH2 0xF0E SWAP1 SWAP3 SWAP2 SWAP1 PUSH4 0xFFFFFFFF AND JUMP JUMPDEST DUP1 MLOAD SWAP1 SWAP2 POP ISZERO PUSH2 0xDF9 JUMPI DUP1 DUP1 PUSH1 0x20 ADD SWAP1 MLOAD DUP2 ADD SWAP1 PUSH2 0xEAF SWAP2 SWAP1 PUSH2 0x11EB JUMP JUMPDEST PUSH2 0xDF9 JUMPI PUSH1 0x40 MLOAD PUSH3 0x461BCD PUSH1 0xE5 SHL DUP2 MSTORE PUSH1 0x20 PUSH1 0x4 DUP3 ADD MSTORE PUSH1 0x2A PUSH1 0x24 DUP3 ADD MSTORE PUSH32 0x5361666545524332303A204552433230206F7065726174696F6E20646964206E PUSH1 0x44 DUP3 ADD MSTORE PUSH10 0x1BDD081CDD58D8D95959 PUSH1 0xB2 SHL PUSH1 0x64 DUP3 ADD MSTORE PUSH1 0x84 ADD PUSH2 0x2A0 JUMP JUMPDEST PUSH1 0x60 PUSH2 0xF1D DUP5 DUP5 PUSH1 0x0 DUP6 PUSH2 0xF27 JUMP JUMPDEST SWAP1 POP JUMPDEST SWAP4 SWAP3 POP POP POP JUMP JUMPDEST PUSH1 0x60 DUP3 SELFBALANCE LT ISZERO PUSH2 0xF88 JUMPI PUSH1 0x40 MLOAD PUSH3 0x461BCD PUSH1 0xE5 SHL DUP2 MSTORE PUSH1 0x20 PUSH1 0x4 DUP3 ADD MSTORE PUSH1 0x26 PUSH1 0x24 DUP3 ADD MSTORE PUSH32 0x416464726573733A20696E73756666696369656E742062616C616E636520666F PUSH1 0x44 DUP3 ADD MSTORE PUSH6 0x1C8818D85B1B PUSH1 0xD2 SHL PUSH1 0x64 DUP3 ADD MSTORE PUSH1 0x84 ADD PUSH2 0x2A0 JUMP JUMPDEST DUP5 EXTCODESIZE PUSH2 0xFD6 JUMPI PUSH1 0x40 MLOAD PUSH3 0x461BCD PUSH1 0xE5 SHL DUP2 MSTORE PUSH1 0x20 PUSH1 0x4 DUP3 ADD MSTORE PUSH1 0x1D PUSH1 0x24 DUP3 ADD MSTORE PUSH32 0x416464726573733A2063616C6C20746F206E6F6E2D636F6E7472616374000000 PUSH1 0x44 DUP3 ADD MSTORE PUSH1 0x64 ADD PUSH2 0x2A0 JUMP JUMPDEST PUSH1 0x0 DUP1 DUP7 PUSH1 0x1 PUSH1 0x1 PUSH1 0xA0 SHL SUB AND DUP6 DUP8 PUSH1 0x40 MLOAD PUSH2 0xFF2 SWAP2 SWAP1 PUSH2 0x123B JUMP JUMPDEST PUSH1 0x0 PUSH1 0x40 MLOAD DUP1 DUP4 SUB DUP2 DUP6 DUP8 GAS CALL SWAP3 POP POP POP RETURNDATASIZE DUP1 PUSH1 0x0 DUP2 EQ PUSH2 0x102F JUMPI PUSH1 0x40 MLOAD SWAP2 POP PUSH1 0x1F NOT PUSH1 0x3F RETURNDATASIZE ADD AND DUP3 ADD PUSH1 0x40 MSTORE RETURNDATASIZE DUP3 MSTORE RETURNDATASIZE PUSH1 0x0 PUSH1 0x20 DUP5 ADD RETURNDATACOPY PUSH2 0x1034 JUMP JUMPDEST PUSH1 0x60 SWAP2 POP JUMPDEST POP SWAP2 POP SWAP2 POP PUSH2 0x1044 DUP3 DUP3 DUP7 PUSH2 0x104F JUMP JUMPDEST SWAP8 SWAP7 POP POP POP POP POP POP POP JUMP JUMPDEST PUSH1 0x60 DUP4 ISZERO PUSH2 0x105E JUMPI POP DUP2 PUSH2 0xF20 JUMP JUMPDEST DUP3 MLOAD ISZERO PUSH2 0x106E JUMPI DUP3 MLOAD DUP1 DUP5 PUSH1 0x20 ADD REVERT JUMPDEST DUP2 PUSH1 0x40 MLOAD PUSH3 0x461BCD PUSH1 0xE5 SHL DUP2 MSTORE PUSH1 0x4 ADD PUSH2 0x2A0 SWAP2 SWAP1 PUSH2 0x126B JUMP JUMPDEST DUP3 DUP1 SLOAD DUP3 DUP3 SSTORE SWAP1 PUSH1 0x0 MSTORE PUSH1 0x20 PUSH1 0x0 KECCAK256 SWAP1 DUP2 ADD SWAP3 DUP3 ISZERO PUSH2 0x10C3 JUMPI SWAP2 PUSH1 0x20 MUL DUP3 ADD JUMPDEST DUP3 DUP2 GT ISZERO PUSH2 0x10C3 JUMPI DUP3 MLOAD DUP3 SSTORE SWAP2 PUSH1 0x20 ADD SWAP2 SWAP1 PUSH1 0x1 ADD SWAP1 PUSH2 0x10A8 JUMP JUMPDEST POP PUSH2 0x10CF SWAP3 SWAP2 POP PUSH2 0x10D3 JUMP JUMPDEST POP SWAP1 JUMP JUMPDEST JUMPDEST DUP1 DUP3 GT ISZERO PUSH2 0x10CF JUMPI PUSH1 0x0 DUP2 SSTORE PUSH1 0x1 ADD PUSH2 0x10D4 JUMP JUMPDEST PUSH1 0x0 DUP1 DUP4 PUSH1 0x1F DUP5 ADD SLT PUSH2 0x10F9 JUMPI DUP2 DUP3 REVERT JUMPDEST POP DUP2 CALLDATALOAD PUSH1 0x1 PUSH1 0x1 PUSH1 0x40 SHL SUB DUP2 GT ISZERO PUSH2 0x110F JUMPI DUP2 DUP3 REVERT JUMPDEST PUSH1 0x20 DUP4 ADD SWAP2 POP DUP4 PUSH1 0x20 DUP3 PUSH1 0x5 SHL DUP6 ADD ADD GT ISZERO PUSH2 0x112A JUMPI PUSH1 0x0 DUP1 REVERT JUMPDEST SWAP3 POP SWAP3 SWAP1 POP JUMP JUMPDEST PUSH1 0x0 PUSH1 0x20 DUP3 DUP5 SUB SLT ISZERO PUSH2 0x1142 JUMPI DUP1 DUP2 REVERT JUMPDEST DUP2 CALLDATALOAD PUSH1 0x1 PUSH1 0x1 PUSH1 0xA0 SHL SUB DUP2 AND DUP2 EQ PUSH2 0xF20 JUMPI DUP2 DUP3 REVERT JUMPDEST PUSH1 0x0 DUP1 PUSH1 0x0 DUP1 PUSH1 0x40 DUP6 DUP8 SUB SLT ISZERO PUSH2 0x116D JUMPI DUP3 DUP4 REVERT JUMPDEST DUP5 CALLDATALOAD PUSH1 0x1 PUSH1 0x1 PUSH1 0x40 SHL SUB DUP1 DUP3 GT ISZERO PUSH2 0x1183 JUMPI DUP5 DUP6 REVERT JUMPDEST PUSH2 0x118F DUP9 DUP4 DUP10 ADD PUSH2 0x10E8 JUMP JUMPDEST SWAP1 SWAP7 POP SWAP5 POP PUSH1 0x20 DUP8 ADD CALLDATALOAD SWAP2 POP DUP1 DUP3 GT ISZERO PUSH2 0x11A7 JUMPI DUP4 DUP5 REVERT JUMPDEST POP PUSH2 0x11B4 DUP8 DUP3 DUP9 ADD PUSH2 0x10E8 JUMP JUMPDEST SWAP6 SWAP9 SWAP5 SWAP8 POP SWAP6 POP POP POP POP JUMP JUMPDEST PUSH1 0x0 DUP1 PUSH1 0x0 DUP1 PUSH1 0x40 DUP6 DUP8 SUB SLT ISZERO PUSH2 0x11D5 JUMPI DUP4 DUP5 REVERT JUMPDEST DUP5 CALLDATALOAD PUSH1 0x1 PUSH1 0x1 PUSH1 0x40 SHL SUB DUP1 DUP3 GT ISZERO PUSH2 0x1183 JUMPI DUP6 DUP7 REVERT JUMPDEST PUSH1 0x0 PUSH1 0x20 DUP3 DUP5 SUB SLT ISZERO PUSH2 0x11FC JUMPI DUP1 DUP2 REVERT JUMPDEST DUP2 MLOAD DUP1 ISZERO ISZERO DUP2 EQ PUSH2 0xF20 JUMPI DUP2 DUP3 REVERT JUMPDEST PUSH1 0x0 PUSH1 0x20 DUP3 DUP5 SUB SLT ISZERO PUSH2 0x121C JUMPI DUP1 DUP2 REVERT JUMPDEST POP CALLDATALOAD SWAP2 SWAP1 POP JUMP JUMPDEST PUSH1 0x0 PUSH1 0x20 DUP3 DUP5 SUB SLT ISZERO PUSH2 0x1234 JUMPI DUP1 DUP2 REVERT JUMPDEST POP MLOAD SWAP2 SWAP1 POP JUMP JUMPDEST PUSH1 0x0 DUP3 MLOAD PUSH2 0x124D DUP2 DUP5 PUSH1 0x20 DUP8 ADD PUSH2 0x13C0 JUMP JUMPDEST SWAP2 SWAP1 SWAP2 ADD SWAP3 SWAP2 POP POP JUMP JUMPDEST PUSH1 0x1 PUSH1 0x1 PUSH1 0xA0 SHL SUB SWAP2 SWAP1 SWAP2 AND DUP2 MSTORE PUSH1 0x20 ADD SWAP1 JUMP JUMPDEST PUSH1 0x20 DUP2 MSTORE PUSH1 0x0 DUP3 MLOAD DUP1 PUSH1 0x20 DUP5 ADD MSTORE PUSH2 0x128A DUP2 PUSH1 0x40 DUP6 ADD PUSH1 0x20 DUP8 ADD PUSH2 0x13C0 JUMP JUMPDEST PUSH1 0x1F ADD PUSH1 0x1F NOT AND SWAP2 SWAP1 SWAP2 ADD PUSH1 0x40 ADD SWAP3 SWAP2 POP POP JUMP JUMPDEST PUSH1 0x20 DUP1 DUP3 MSTORE PUSH1 0xE SWAP1 DUP3 ADD MSTORE PUSH14 0x92DCECC2D8D2C840D8CADCCEE8D PUSH1 0x93 SHL PUSH1 0x40 DUP3 ADD MSTORE PUSH1 0x60 ADD SWAP1 JUMP JUMPDEST PUSH1 0x20 DUP1 DUP3 MSTORE PUSH1 0xC SWAP1 DUP3 ADD MSTORE PUSH12 0x57726F6E672072616E676573 PUSH1 0xA0 SHL PUSH1 0x40 DUP3 ADD MSTORE PUSH1 0x60 ADD SWAP1 JUMP JUMPDEST PUSH1 0x20 DUP1 DUP3 MSTORE PUSH1 0x17 SWAP1 DUP3 ADD MSTORE PUSH23 0x15995CDD1A5B99C8185B1C9958591E481CDD185C9D1959 PUSH1 0x4A SHL PUSH1 0x40 DUP3 ADD MSTORE PUSH1 0x60 ADD SWAP1 JUMP JUMPDEST PUSH1 0x20 DUP1 DUP3 MSTORE DUP2 DUP2 ADD MSTORE PUSH32 0x4F776E61626C653A2063616C6C6572206973206E6F7420746865206F776E6572 PUSH1 0x40 DUP3 ADD MSTORE PUSH1 0x60 ADD SWAP1 JUMP JUMPDEST PUSH1 0x0 DUP3 NOT DUP3 GT ISZERO PUSH2 0x1365 JUMPI PUSH2 0x1365 PUSH2 0x1442 JUMP JUMPDEST POP ADD SWAP1 JUMP JUMPDEST PUSH1 0x0 DUP3 PUSH2 0x1385 JUMPI PUSH4 0x4E487B71 PUSH1 0xE0 SHL DUP2 MSTORE PUSH1 0x12 PUSH1 0x4 MSTORE PUSH1 0x24 DUP2 REVERT JUMPDEST POP DIV SWAP1 JUMP JUMPDEST PUSH1 0x0 DUP2 PUSH1 0x0 NOT DIV DUP4 GT DUP3 ISZERO ISZERO AND ISZERO PUSH2 0x13A4 JUMPI PUSH2 0x13A4 PUSH2 0x1442 JUMP JUMPDEST POP MUL SWAP1 JUMP JUMPDEST PUSH1 0x0 DUP3 DUP3 LT ISZERO PUSH2 0x13BB JUMPI PUSH2 0x13BB PUSH2 0x1442 JUMP JUMPDEST POP SUB SWAP1 JUMP JUMPDEST PUSH1 0x0 JUMPDEST DUP4 DUP2 LT ISZERO PUSH2 0x13DB JUMPI DUP2 DUP2 ADD MLOAD DUP4 DUP3 ADD MSTORE PUSH1 0x20 ADD PUSH2 0x13C3 JUMP JUMPDEST DUP4 DUP2 GT ISZERO PUSH2 0xE36 JUMPI POP POP PUSH1 0x0 SWAP2 ADD MSTORE JUMP JUMPDEST PUSH1 0x1 DUP2 DUP2 SHR SWAP1 DUP3 AND DUP1 PUSH2 0x1400 JUMPI PUSH1 0x7F DUP3 AND SWAP2 POP JUMPDEST PUSH1 0x20 DUP3 LT DUP2 EQ ISZERO PUSH2 0x1421 JUMPI PUSH4 0x4E487B71 PUSH1 0xE0 SHL PUSH1 0x0 MSTORE PUSH1 0x22 PUSH1 0x4 MSTORE PUSH1 0x24 PUSH1 0x0 REVERT JUMPDEST POP SWAP2 SWAP1 POP JUMP JUMPDEST PUSH1 0x0 PUSH1 0x0 NOT DUP3 EQ ISZERO PUSH2 0x143B JUMPI PUSH2 0x143B PUSH2 0x1442 JUMP JUMPDEST POP PUSH1 0x1 ADD SWAP1 JUMP JUMPDEST PUSH4 0x4E487B71 PUSH1 0xE0 SHL PUSH1 0x0 MSTORE PUSH1 0x11 PUSH1 0x4 MSTORE PUSH1 0x24 PUSH1 0x0 REVERT INVALID LOG2 PUSH5 0x6970667358 0x22 SLT KECCAK256 0x2D PUSH12 0x7D99AEAEF1DEDB22E0AFC6EB SWAP8 0xC3 SHR PUSH23 0xA13134A72B98AA2D0AFED91118A64736F6C6343000804 STOP CALLER ","sha1":"5aadc9df9b72000c8ca1ffc86fed65d6f657d0fe","source":"// SPDX-License-Identifier: agpl-3.0\n\n// This program is free software: you can redistribute it and/or modify\n// it under the terms of the GNU General Public License as published by\n// the Free Software Foundation, either version 3 of the License, or\n// (at your option) any later version.\n\n// This program is distributed in the hope that it will be useful,\n// but WITHOUT ANY WARRANTY; without even the implied warranty of\n// MERCHANTABILITY or FITNESS FOR A PARTICULAR PURPOSE.  See the\n// GNU General Public License for more details.\n\n// You should have received a copy of the GNU General Public License\n\npragma solidity ^0.8.0;\n\nimport \"@openzeppelin/contracts/token/ERC20/ERC20.sol\";\nimport \"@openzeppelin/contracts/token/ERC20/utils/SafeERC20.sol\";\nimport \"@openzeppelin/contracts/utils/Address.sol\";\nimport \"@openzeppelin/contracts/access/Ownable.sol\";\n\ncontract Vesting is Ownable {\n    using Address for address;\n    using SafeERC20 for ERC20;\n\n    // Map user address to amount of tokens alloted //\n    mapping(address => uint256) public tokensAlloted;\n    mapping(address => uint256) public tokensClaimed;\n\n    uint256 internal constant PERCENT100 = 1e6;\n\n    string private _pool_name;\n\n    struct VestingInfo {\n        uint256[] periods;\n        uint256[] percents;\n        uint256 startTime;\n        bool vestingTimerStarted;\n    }\n    VestingInfo public vestInfo;\n    uint256 public vestInfoLength;\n    mapping(address => mapping(uint256 => bool)) investorsClaimMap;\n\n    ERC20 public immutable token;\n\n    event TokenClaimed(\n        address indexed user,\n        uint256 timeStamp,\n        uint256 amountToken\n    );\n\n    constructor(ERC20 _token, string memory _name) {\n        token = _token;\n        _pool_name = _name;\n    }\n\n    /**\n     * @dev Setup and turn on the vesting feature\n     * @param _periods - Array of period of the vesting.\n     * @param _percents - Array of percents release of the vesting.\n     * @notice - Access control: Public onlyOwner.\n     */\n    function setupVestingMode(\n        uint256[] calldata _periods,\n        uint256[] calldata _percents\n    ) public onlyOwner {\n        require(!vestInfo.vestingTimerStarted, \"Vesting already started\");\n\n        uint256 len = _periods.length;\n        require(len > 0, \"Invalid length\");\n        require(len == _percents.length, \"Wrong ranges\");\n\n        // check that all percentages should add up to 100% //\n        // 100% is 1e6\n        uint256 totalPcnt;\n        for (uint256 n = 0; n < len; n++) {\n            totalPcnt = totalPcnt + _percents[n];\n        }\n        require(totalPcnt == PERCENT100, \"Percentages add up should be 100%\");\n\n        vestInfoLength = len;\n        vestInfo = VestingInfo({\n            periods: _periods,\n            percents: _percents,\n            startTime: 0,\n            vestingTimerStarted: false\n        });\n    }\n\n    /**\n     * @dev Allot tokens to users and transfer that many tokens to the contract\n     * @param _users - Array of user addresses for alloting the tokens.\n     * @param _tokenAmounts - Array of token amounts alloted to users.\n     * @notice - Access control: Public onlyOwner.\n     */\n    function allotTokens(\n        address[] calldata _users,\n        uint256[] calldata _tokenAmounts\n    ) public onlyOwner {\n        require(!vestInfo.vestingTimerStarted, \"Vesting already started\");\n\n        uint256 len = _users.length;\n        require(len > 0, \"Invalid length\");\n        require(len == _tokenAmounts.length, \"Wrong ranges\");\n\n        uint256 totalAllotedAmount;\n\n        for (uint256 n = 0; n < len; n++) {\n            address _user = _users[n];\n            tokensAlloted[_user] += _tokenAmounts[n];\n            totalAllotedAmount += _tokenAmounts[n];\n        }\n\n        token.safeTransferFrom(owner(), address(this), totalAllotedAmount);\n    }\n\n    /**\n     * @dev Start the vesting counter.\n     * @param startTime - Time at which the vesting will start.\n     * @notice - Access control: External. onlyOwner.\n     */\n    function startVestingMode(uint256 startTime) external onlyOwner {\n        // Can be started only once\n        require(!vestInfo.vestingTimerStarted, \"Vesting already started\");\n\n        vestInfo.startTime = startTime;\n        vestInfo.vestingTimerStarted = true;\n    }\n\n    /**\n     * @dev Check whether a particular vesting index has elapsed and claimable\n     * @return - Bool: Claimable, uint256: If started and not claimable, returns the time needed to be claimable.\n     * @notice - Access control: Public.\n     */\n    function isVestingClaimable(uint256 _index)\n        public\n        view\n        returns (bool, uint256)\n    {\n        if (!vestInfo.vestingTimerStarted) {\n            return (false, 0);\n        }\n        uint256 period = vestInfo.periods[_index];\n        uint256 releaseTime = vestInfo.startTime + period;\n        bool claimable = (block.timestamp > releaseTime);\n        uint256 remainTime;\n        if (!claimable) {\n            remainTime = releaseTime - block.timestamp;\n        }\n        return (claimable, remainTime);\n    }\n\n    /**\n     * @dev Allow users to claim their vested token, according to the index of the vested period.\n     * @param _index - The index of the vesting period.\n     * @notice - Access control: External.\n     */\n    function claimVestedTokens(uint256 _index) external {\n        (bool claimable, ) = isVestingClaimable(_index);\n        require(claimable, \"Not claimable at this time\");\n\n        uint256 amtTotalToken = tokensAlloted[msg.sender];\n\n        require(amtTotalToken > 0, \"No tokens have been alloted to you\");\n\n        bool claimed = investorsClaimMap[msg.sender][_index];\n        require(!claimed, \"This vest amount is already claimed\");\n\n        investorsClaimMap[msg.sender][_index] = true;\n\n        uint256 amtTokens = (vestInfo.percents[_index] * amtTotalToken) /\n            PERCENT100;\n\n        tokensClaimed[msg.sender] += amtTokens;\n\n        token.safeTransfer(msg.sender, amtTokens);\n        emit TokenClaimed(msg.sender, block.timestamp, amtTokens);\n    }\n\n    /**\n     * @dev To get the next vesting claim for a user.\n     * @param _user - The user's address.\n     * @return - int256 : the next period. -1 to indicate none found.\n     * @return - uint256 : the amount of token claimable\n     * @return - uint256 : time left to claim. If 0 (and next claim period is valid), it is currently claimable.\n     * @notice - Access control: External. View.\n     */\n    function getNextVestingClaim(address _user)\n        external\n        view\n        returns (\n            int256,\n            uint256,\n            uint256\n        )\n    {\n        if (!vestInfo.vestingTimerStarted) {\n            return (-1, 0, 0);\n        }\n\n        uint256 amtTotalToken = tokensAlloted[_user];\n        if (amtTotalToken == 0) {\n            return (-1, 0, 0);\n        }\n\n        uint256 len = vestInfo.periods.length;\n        for (uint256 n = 0; n < len; n++) {\n            (bool claimable, uint256 time) = isVestingClaimable(n);\n            uint256 amtTokens = (vestInfo.percents[n] * amtTotalToken) /\n                PERCENT100;\n            bool claimed = investorsClaimMap[_user][n];\n\n            if (!claimable) {\n                return (int256(n), amtTokens, time);\n            } else {\n                if (!claimed) {\n                    return (int256(n), amtTokens, 0);\n                }\n            }\n        }\n        // All claimed\n        return (-1, 0, 0);\n    }\n\n    /**\n     * @dev Returns the name of the Vesting Pool.\n     */\n    function pool_name() public view returns (string memory) {\n        return _pool_name;\n    }\n\n    // Withdraw tokens. EMERGENCY ONLY.\n    function emergencyTokenWithdraw() external onlyOwner {\n        token.safeTransfer(address(msg.sender), token.balanceOf(address(this)));\n    }\n}\n","sourcePath":"contracts/Vesting.sol","type":"contract","deployment":{"address":"0x26522B9cd96912a4B42239648d6c3D03085D5ee0","chainid":"97","blockHeight":21168939}}