{"bytecode":"6080604052620f4240600d55600e805460ff1916601217905560006013553480156200002a57600080fd5b5060405162005759380380620057598339810160408190526200004d91620002f0565b6040805180820182526006815265213ab33332b960d11b60208083019182528351808501909452600384526221232960e91b90840152815191929162000096916000916200024a565b508051620000ac9060019060208401906200024a565b505050620000c9620000c36200014060201b60201c565b62000144565b6001600755620000db60003362000196565b601080546001600160a01b038087166001600160a01b0319928316179092556017805485841690831617905542601a556018805484841690831617905560128054928616929091169190911790556200013660003362000196565b50505050620003ad565b3390565b600680546001600160a01b038381166001600160a01b0319831681179093556040519116919082907f8be0079c531659141344cd1fd0a4f28419497f9722a3daafe3b4186f6b6457e090600090a35050565b620001a28282620001a6565b5050565b60008281526008602090815260408083206001600160a01b038516845290915290205460ff16620001a25760008281526008602090815260408083206001600160a01b03851684529091529020805460ff19166001179055620002063390565b6001600160a01b0316816001600160a01b0316837f2f8788117e7eff1d82e926ec794901d17c78024a50270940304540a733656f0d60405160405180910390a45050565b828054620002589062000357565b90600052602060002090601f0160209004810192826200027c5760008555620002c7565b82601f106200029757805160ff1916838001178555620002c7565b82800160010185558215620002c7579182015b82811115620002c7578251825591602001919060010190620002aa565b50620002d5929150620002d9565b5090565b5b80821115620002d55760008155600101620002da565b6000806000806080858703121562000306578384fd5b8451620003138162000394565b6020860151909450620003268162000394565b6040860151909350620003398162000394565b60608601519092506200034c8162000394565b939692955090935050565b600181811c908216806200036c57607f821691505b602082108114156200038e57634e487b7160e01b600052602260045260246000fd5b50919050565b6001600160a01b0381168114620003aa57600080fd5b50565b61539c80620003bd6000396000f3fe608060405234801561001057600080fd5b50600436106102935760003560e01c806301ffc9a71461029857806305271a2a146102c057806306517a29146102d557806306fdde03146102ec578063076d948c14610301578063081812fc14610314578063095ea7b31461033f57806316dc165b1461035457806316f0115b1461036757806323b872dd1461037a578063248a9ca31461038d578063263f3e7e146103a05780632f2ff15d146103b357806336568abe146103c6578063409e2205146103d9578063426a84931461043c57806342842e0e1461044f57806342966c68146104625780634aed53c2146104755780634f558e79146104885780636198e3391461049b5780636352211e146104ae578063645734e6146104c157806367807f7d146104c9578063689ab5ac146104eb57806369c672471461052e57806370a082311461054e578063715018a61461056157806375794a3c1461056957806378c533ce1461057257806379502c5514610592578063841edc0e146105a55780638a584118146105c55780638da5cb5b1461061057806391d148541461061857806395d89b411461062b578063a217fddf14610633578063a22cb4651461063b578063a6d14c021461064e578063a880042514610656578063b07f0a4114610669578063b888879e1461067c578063b88d4fde1461068f578063bbe33ea5146106a2578063becef607146106b5578063c0d720bb146106c8578063c87b56dd146106db578063d149cc30146106ee578063d547741f14610701578063d5a0e67314610714578063d67a6b7014610734578063dba34e9714610747578063e342b5981461076e578063e345e0bc14610781578063e985e9c5146107bb578063f2fde38b146107ce578063fe99049a146107e1575b600080fd5b6102ab6102a6366004614baf565b6107f4565b60405190151581526020015b60405180910390f35b600e5460405160ff90911681526020016102b7565b6102de600d5481565b6040519081526020016102b7565b6102f4610805565b6040516102b79190614f83565b6102de61030f366004614b73565b610897565b610327610322366004614b73565b6108dc565b6040516001600160a01b0390911681526020016102b7565b61035261034d366004614a70565b610969565b005b601054610327906001600160a01b031681565b601754610327906001600160a01b031681565b6103526103883660046148f2565b610a7a565b6102de61039b366004614b73565b610aab565b6102de6103ae366004614b73565b610ac0565b6103526103c1366004614b8b565b610ad2565b6103526103d4366004614b8b565b610aef565b6104296103e7366004614b73565b601460205260009081526040902080546001820154600283015460038401546004850154600586015460069096015460ff958616969495939492939192911687565b6040516102b79796959493929190614f27565b61035261044a366004614a9b565b610b6d565b61035261045d3660046148f2565b610bb1565b610352610470366004614b73565b610bcc565b6103526104833660046149f3565b610c11565b6102ab610496366004614b73565b610d33565b6103526104a9366004614b73565b610d3e565b6103276104bc366004614b73565b610fc7565b61035261103e565b6104dc6104d7366004614c69565b6110c8565b6040516102b793929190615154565b6105176104f9366004614b73565b60156020526000908152604090205460ff8082169161010090041682565b6040805192151583529015156020830152016102b7565b61054161053c366004614bff565b611242565b6040516102b79190614ee3565b6102de61055c366004614882565b611634565b6103526116bb565b6102de60135481565b6102de610580366004614b73565b600f6020526000908152604090205481565b601854610327906001600160a01b031681565b6102de6105b3366004614b73565b60166020526000908152604090205481565b6106006105d3366004614b73565b60196020526000908152604090208054600182015460029092015490919060ff8082169161010090041684565b6040516102b794939291906150df565b6103276116f6565b6102ab610626366004614b8b565b611705565b6102f4611730565b6102de600081565b610352610649366004614a43565b61173f565b6102de600581565b6102de610664366004614b73565b611800565b6102de610677366004614b73565b611817565b601254610327906001600160a01b031681565b61035261069d366004614932565b611b1c565b6103526106b0366004614b0e565b611b4f565b6102de6106c3366004614b73565b611d5e565b6102de6106d6366004614cbe565b611d70565b6102f46106e9366004614b73565b6120a5565b6102de6106fc366004614c48565b6120b0565b61035261070f366004614b8b565b6120cf565b6102de610722366004614b73565b600a6020526000908152604090205481565b6102ab610742366004614c48565b6120ec565b6102de7fdeb3b49547f710c56a925b6e16e3557a50fab4dd8f243bc314f3afba2054ec5b81565b61035261077c366004614acf565b612314565b6102de61078f366004614b8b565b6000828152600b602090815260408083206001600160a01b038516845260010190915290205492915050565b6102ab6107c93660046148ba565b612361565b6103526107dc366004614882565b61238f565b6102de6107ef3660046149ae565b61242c565b60006107ff82612503565b92915050565b6060600080546108149061520f565b80601f01602080910402602001604051908101604052809291908181526020018280546108409061520f565b801561088d5780601f106108625761010080835404028352916020019161088d565b820191906000526020600020905b81548152906001019060200180831161087057829003601f168201915b5050505050905090565b6000805b6108a483611800565b8110156108d6576108b86106c384836120b0565b6108c2908361516a565b9150806108ce81615244565b91505061089b565b50919050565b60006108e782612528565b61094d5760405162461bcd60e51b815260206004820152602c60248201527f4552433732313a20617070726f76656420717565727920666f72206e6f6e657860448201526b34b9ba32b73a103a37b5b2b760a11b60648201526084015b60405180910390fd5b506000908152600460205260409020546001600160a01b031690565b600061097482610fc7565b9050806001600160a01b0316836001600160a01b031614156109e25760405162461bcd60e51b815260206004820152602160248201527f4552433732313a20617070726f76616c20746f2063757272656e74206f776e656044820152603960f91b6064820152608401610944565b336001600160a01b03821614806109fe57506109fe8133612361565b610a6b5760405162461bcd60e51b815260206004820152603860248201527f4552433732313a20617070726f76652063616c6c6572206973206e6f74206f776044820152771b995c881b9bdc88185c1c1c9bdd995908199bdc88185b1b60421b6064820152608401610944565b610a758383612545565b505050565b610a8433826125b3565b610aa05760405162461bcd60e51b815260040161094490615072565b610a7583838361267d565b60009081526008602052604090206001015490565b6000908152600a602052604090205490565b610adb82610aab565b610ae58133612816565b610a75838361287a565b6001600160a01b0381163314610b5f5760405162461bcd60e51b815260206004820152602f60248201527f416363657373436f6e74726f6c3a2063616e206f6e6c792072656e6f756e636560448201526e103937b632b9903337b91039b2b63360891b6064820152608401610944565b610b698282612900565b5050565b610b7682610fc7565b6001600160a01b0316336001600160a01b031614610ba65760405162461bcd60e51b815260040161094490614f96565b610a75838383612967565b610a7583838360405180602001604052806000815250611b1c565b610bd581610fc7565b6001600160a01b0316336001600160a01b031614610c055760405162461bcd60e51b815260040161094490614f96565b610c0e81612a2c565b50565b610c1a82610d33565b610c4c5760405162461bcd60e51b815260206004820152600360248201526227189960e91b6044820152606401610944565b6000806000610c5b8685612a44565b509250925092506000610c6d86612b71565b9050610ca98682848460600151610c84919061516a565b878560400151610c94919061516a565b878660800151610ca4919061516a565b612c60565b601754606082015160808301516040516357a5c96760e01b81529394506001600160a01b03909216926357a5c96792610ce9928b92909190600401615154565b600060405180830381600087803b158015610d0357600080fd5b505af1158015610d17573d6000803e3d6000fd5b50505050610d288989898989612c92565b505050505050505050565b60006107ff82612528565b60008181526014602052604090206005810154421015610d705760405162461bcd60e51b8152600401610944906150c3565b6001815460ff166003811115610d9657634e487b7160e01b600052602160045260246000fd5b14610dc85760405162461bcd60e51b81526020600482015260026024820152614f3560f01b6044820152606401610944565b600581015460009081526016602052604090205480610df95760405162461bcd60e51b815260040161094490615004565b6012546040516303906d2960e11b8152600481018390526000916001600160a01b031690630720da529060240160a06040518083038186803b158015610e3e57600080fd5b505afa158015610e52573d6000803e3d6000fd5b505050506040513d601f19601f82011682018060405250810190610e769190614d60565b5091935060029250610e86915050565b600684015460ff166002811115610ead57634e487b7160e01b600052602160045260246000fd5b148015610ebd5750826001015481115b80610efc57506001600684015460ff166002811115610eec57634e487b7160e01b600052602160045260246000fd5b148015610efc5750826001015481105b15610f1057610f0a84611817565b50610fc1565b825460ff19166003178355601754604051636198e33960e01b8152600481018690526001600160a01b0390911690636198e33990602401600060405180830381600087803b158015610f6157600080fd5b505af1158015610f75573d6000803e3d6000fd5b50505050610f8284612a2c565b837f5f36a4a575e512eb69d6d28c3b0ff98cca7ba50ad5bf04e14094ad1d425e0d318460040154604051610fb891815260200190565b60405180910390a25b50505050565b6000818152600260205260408120546001600160a01b0316806107ff5760405162461bcd60e51b815260206004820152602960248201527f4552433732313a206f776e657220717565727920666f72206e6f6e657869737460448201526832b73a103a37b5b2b760b91b6064820152608401610944565b60105460175460405163095ea7b360e01b81526001600160a01b039283169263095ea7b3926110769291169060001990600401614eca565b602060405180830381600087803b15801561109057600080fd5b505af11580156110a4573d6000803e3d6000fd5b505050506040513d601f19601f82011682018060405250810190610c0e9190614b57565b600080600080601260009054906101000a90046001600160a01b03166001600160a01b0316631acf55826040518163ffffffff1660e01b815260040160206040518083038186803b15801561111c57600080fd5b505afa158015611130573d6000803e3d6000fd5b505050506040513d601f19601f820116820180604052508101906111549190614be7565b60185460175460405163e39d06e960e01b8152600481018d9052602481018c9052604481018b90528915156064820152881515608482015260a481018490526001600160a01b0392831660c4820152911660e482015290915073__FeeCalculator_________________________9063e39d06e9906101040160206040518083038186803b1580156111e557600080fd5b505af41580156111f9573d6000803e3d6000fd5b505050506040513d601f19601f8201168201806040525081019061121d9190614be7565b915061122888612ed8565b9250611234828461516a565b935050955095509592505050565b6060816112765760405162461bcd60e51b81526020600482015260026024820152614e3160f01b6044820152606401610944565b816001600160401b0381111561129c57634e487b7160e01b600052604160045260246000fd5b6040519080825280602002602001820160405280156112c5578160200160208202803683370190505b50905060006112d385612b71565b905060006112e086611d5e565b905060008080805b878110156114f35760006112fa612f76565b90508088838151811061131d57634e487b7160e01b600052603260045260246000fd5b60200260200101818152505061135a8b828c8c8681811061134e57634e487b7160e01b600052603260045260246000fd5b90506020020135612f90565b6000868b8b8581811061137d57634e487b7160e01b600052603260045260246000fd5b9050602002013589604001516113939190615196565b61139d9190615182565b90506113a9818761516a565b95506000878c8c868181106113ce57634e487b7160e01b600052603260045260246000fd5b905060200201358a606001516113e49190615196565b6113ee9190615182565b90506113fa818761516a565b95506000888d8d8781811061141f57634e487b7160e01b600052603260045260246000fd5b905060200201358b608001516114359190615196565b61143f9190615182565b905061144b818761516a565b955060006040518060e001604052808c60000151600381111561147e57634e487b7160e01b600052602160045260246000fd5b81526020018c6020015181526020018581526020018481526020018381526020018c60a0015181526020018c60c0015160028111156114cd57634e487b7160e01b600052602160045260246000fd5b905290506114db85826130ba565b505050505080806114eb90615244565b9150506112e8565b50611529898684886060015161150991906151b5565b86896040015161151991906151b5565b858a60800151610ca491906151b5565b601754606082015160808301516040516357a5c96760e01b81529398506001600160a01b03909216926357a5c96792611569928e92909190600401615154565b600060405180830381600087803b15801561158357600080fd5b505af1158015611597573d6000803e3d6000fd5b5050505060005b878110156116275760006115d88883815181106115cb57634e487b7160e01b600052603260045260246000fd5b6020026020010151612b71565b90506116148883815181106115fd57634e487b7160e01b600052603260045260246000fd5b602002602001015182606001518360800151613172565b508061161f81615244565b91505061159e565b5050505050509392505050565b60006001600160a01b03821661169f5760405162461bcd60e51b815260206004820152602a60248201527f4552433732313a2062616c616e636520717565727920666f7220746865207a65604482015269726f206164647265737360b01b6064820152608401610944565b506001600160a01b031660009081526003602052604090205490565b336116c46116f6565b6001600160a01b0316146116ea5760405162461bcd60e51b81526004016109449061503d565b6116f460006131dd565b565b6006546001600160a01b031690565b60009182526008602090815260408084206001600160a01b0393909316845291905290205460ff1690565b6060600180546108149061520f565b6001600160a01b0382163314156117945760405162461bcd60e51b815260206004820152601960248201527822a9219b99189d1030b8383937bb32903a379031b0b63632b960391b6044820152606401610944565b3360008181526005602090815260408083206001600160a01b03871680855290835292819020805460ff191686151590811790915590519081529192917f17307eab39ab6107e8899845ad3d59bd9653f200f220920489ca2b5937696c31910160405180910390a35050565b6000818152600c602052604081206107ff9061322f565b600061182282610d33565b6118545760405162461bcd60e51b815260206004820152600360248201526204f31360ec1b6044820152606401610944565b600082815260146020526040902060058101544210156118865760405162461bcd60e51b8152600401610944906150c3565b6001815460ff1660038111156118ac57634e487b7160e01b600052602160045260246000fd5b146118df5760405162461bcd60e51b815260206004820152600360248201526213cc4d60ea1b6044820152606401610944565b6005810154600090815260166020526040902054806119105760405162461bcd60e51b815260040161094490615004565b6012546040516303906d2960e11b8152600481018390526000916001600160a01b031690630720da529060240160a06040518083038186803b15801561195557600080fd5b505afa158015611969573d6000803e3d6000fd5b505050506040513d601f19601f8201168201806040525081019061198d9190614d60565b509193506002925061199d915050565b600684015460ff1660028111156119c457634e487b7160e01b600052602160045260246000fd5b1415611a09578083600101541115611a045760405162461bcd60e51b81526020600482015260036024820152624f313760e81b6044820152606401610944565b611a43565b8083600101541015611a435760405162461bcd60e51b815260206004820152600360248201526209e62760eb1b6044820152606401610944565b60038301546017549094506001600160a01b03166381b34f1586611a6681610fc7565b6040516001600160e01b031960e085901b16815260048101929092526001600160a01b0316602482015260448101879052606401600060405180830381600087803b158015611ab457600080fd5b505af1158015611ac8573d6000803e3d6000fd5b50505050611ad585612a2c565b825460ff1916600217835560405184815285907e84fe51c7cb34b132b7b6eb5d5a87a489f8d6d284758d00a0402c1bad9a0def9060200160405180910390a2505050919050565b611b27335b836125b3565b611b435760405162461bcd60e51b815260040161094490615072565b610fc184848484613239565b81611b815760405162461bcd60e51b8152602060048201526002602482015261138d60f21b6044820152606401610944565b6000611b8c82612b71565b606081015160408201516080830151929350909160005b86811015611ce0576000611bdc898984818110611bd057634e487b7160e01b600052603260045260246000fd5b90506020020135612b71565b9050806060015185611bee919061516a565b9450806040015184611c00919061516a565b9350806080015183611c12919061516a565b6017549093506001600160a01b0316630dbf21b08a8a85818110611c4657634e487b7160e01b600052603260045260246000fd5b905060200201356040518263ffffffff1660e01b8152600401611c6b91815260200190565b600060405180830381600087803b158015611c8557600080fd5b505af1158015611c99573d6000803e3d6000fd5b50505050611ccd898984818110611cc057634e487b7160e01b600052603260045260246000fd5b905060200201358861326c565b5080611cd881615244565b915050611ba3565b50611cee8585858585612c60565b506017546040516357a5c96760e01b81526001600160a01b03909116906357a5c96790611d2390889087908690600401615154565b600060405180830381600087803b158015611d3d57600080fd5b505af1158015611d51573d6000803e3d6000fd5b5050505050505050505050565b6000908152600f602052604090205490565b600060026007541415611dc55760405162461bcd60e51b815260206004820152601f60248201527f5265656e7472616e637947756172643a207265656e7472616e742063616c6c006044820152606401610944565b600260075560008080611de4611ddb428b6151b5565b8c8c8b8b6110c8565b919450925090506005611df7428b6151b5565b611e01908d615196565b611e0b9190615196565b611e19846301e13380615196565b611e24906064615196565b11611e565760405162461bcd60e51b8152602060048201526002602482015261279960f11b6044820152606401610944565b6010546040516323b872dd60e01b8152336004820152306024820152604481018590526000916001600160a01b0316906323b872dd90606401602060405180830381600087803b158015611ea957600080fd5b505af1158015611ebd573d6000803e3d6000fd5b505050506040513d601f19601f82011682018060405250810190611ee19190614b57565b905080611f155760405162461bcd60e51b81526020600482015260026024820152614f3360f01b6044820152606401610944565b600189151581148015611f2a57506001891515145b80611f3c575089158015611f3c575088155b15611f45575060025b6040805160e0810190915260009080600181526020018e81526020018f81526020018f81526020018581526020018d8152602001836002811115611f9957634e487b7160e01b600052602160045260246000fd5b90529050611fa5612f76565b6040805180820182528d151581528c15156020808301918252600085815260159091529290922090518154925161ffff1990931690151561ff00191617610100921515929092029190911790559650611ffe87826130ba565b61201c87336120178a85602001518660a00151886133e8565b613526565b6120268789613549565b6000612032868b613553565b90506120478883606001518460800151613172565b336001600160a01b0316887f89f823a0225c73a75066e963ce2eea7708b57680ec86102773dbd244f5412892838a8d60405161208593929190615135565b60405180910390a35050600160075550939b9a5050505050505050505050565b60606107ff82613a14565b6000828152600c602052604081206120c89083613b76565b9392505050565b6120d882610aab565b6120e28133612816565b610a758383612900565b6012546040516303906d2960e11b815260048101849052600091829182916001600160a01b031690630720da529060240160a06040518083038186803b15801561213557600080fd5b505afa158015612149573d6000803e3d6000fd5b505050506040513d601f19601f8201168201806040525081019061216d9190614d60565b50600088815260146020526040902060058101549396509094509250508281106121be5760405162461bcd60e51b8152602060048201526002602482015261433160f01b6044820152606401610944565b60008181526016602052604090205480612309576121dd6001896151b5565b90505b85612309576012546040516303906d2960e11b8152600481018390526000916001600160a01b031690630720da529060240160a06040518083038186803b15801561222a57600080fd5b505afa15801561223e573d6000803e3d6000fd5b505050506040513d601f19601f820116820180604052508101906122629190614d60565b50935050505080600014156122b857600082116122a65760405162461bcd60e51b8152602060048201526002602482015261433360f01b6044820152606401610944565b6122b16001836151b5565b9150612303565b828111156122ed5760405162461bcd60e51b815260206004820152600260248201526110cd60f21b6044820152606401610944565b6000838152601660205260409020829055600196505b506121e0565b505050505092915050565b8060005b81811015610fc15761234f84848381811061234357634e487b7160e01b600052603260045260246000fd5b90506020020135610d3e565b8061235981615244565b915050612318565b6001600160a01b03918216600090815260056020908152604080832093909416825291909152205460ff1690565b336123986116f6565b6001600160a01b0316146123be5760405162461bcd60e51b81526004016109449061503d565b6001600160a01b0381166124235760405162461bcd60e51b815260206004820152602660248201527f4f776e61626c653a206e6577206f776e657220697320746865207a65726f206160448201526564647265737360d01b6064820152608401610944565b610c0e816131dd565b6000612436612f76565b90506000806000806124488787612a44565b935093509350935060006040518060e001604052808360000151600381111561248157634e487b7160e01b600052602160045260246000fd5b8152602001836020015181526020018681526020018481526020018581526020018360a0015181526020018360c0015160028111156124d057634e487b7160e01b600052602160045260246000fd5b905290506124de86826130ba565b6124e9868486613172565b6124f68a8a8a898b612c92565b5050505050949350505050565b60006001600160e01b03198216637965db0b60e01b14806107ff57506107ff82613b82565b6000908152600260205260409020546001600160a01b0316151590565b600081815260046020526040902080546001600160a01b0319166001600160a01b038416908117909155819061257a82610fc7565b6001600160a01b03167f8c5be1e5ebec7d5bd14f71427d1e84f3dd0314c0f7b2291e5b200ac8c7c3b92560405160405180910390a45050565b60006125be82612528565b61261f5760405162461bcd60e51b815260206004820152602c60248201527f4552433732313a206f70657261746f7220717565727920666f72206e6f6e657860448201526b34b9ba32b73a103a37b5b2b760a11b6064820152608401610944565b600061262a83610fc7565b9050806001600160a01b0316846001600160a01b031614806126655750836001600160a01b031661265a846108dc565b6001600160a01b0316145b8061267557506126758185612361565b949350505050565b826001600160a01b031661269082610fc7565b6001600160a01b0316146126f85760405162461bcd60e51b815260206004820152602960248201527f4552433732313a207472616e73666572206f6620746f6b656e2074686174206960448201526839903737ba1037bbb760b91b6064820152608401610944565b6001600160a01b03821661275a5760405162461bcd60e51b8152602060048201526024808201527f4552433732313a207472616e7366657220746f20746865207a65726f206164646044820152637265737360e01b6064820152608401610944565b612765838383613bd2565b612770600082612545565b6001600160a01b03831660009081526003602052604081208054600192906127999084906151b5565b90915550506001600160a01b03821660009081526003602052604081208054600192906127c790849061516a565b909155505060008181526002602052604080822080546001600160a01b0319166001600160a01b03868116918217909255915184939187169160008051602061532783398151915291a4505050565b6128208282611705565b610b6957612838816001600160a01b03166014613bea565b612843836020613bea565b604051602001612854929190614e1e565b60408051601f198184030181529082905262461bcd60e51b825261094491600401614f83565b6128848282611705565b610b695760008281526008602090815260408083206001600160a01b03851684529091529020805460ff191660011790556128bc3390565b6001600160a01b0316816001600160a01b0316837f2f8788117e7eff1d82e926ec794901d17c78024a50270940304540a733656f0d60405160405180910390a45050565b61290a8282611705565b15610b695760008281526008602090815260408083206001600160a01b0385168085529252808320805460ff1916905551339285917ff6391f5c32d9c69d2a47ea670b442974b53935d1edc7fd64eb21e047a839171b9190a45050565b6000828152600b602090815260408083206001600160a01b03871684526001019091529020546129c9576000828152600b602090815260408220805460018101825590835291200180546001600160a01b0319166001600160a01b0385161790555b6000828152600b602090815260408083206001600160a01b0387168085526001909101835292819020849055518381528492917f8a156bd946dc74ec284c5f4b365ce75ef2a5b9d9462b4cdb1d2400cabf136541910160405180910390a3505050565b6000818152600a6020526040812055610c0e81613dcb565b6000806000612a516146b3565b612a5a86612b71565b90506000612a6787611d5e565b905080868360400151612a7a9190615196565b612a849190615182565b945080868360800151612a979190615196565b612aa19190615182565b935080868360600151612ab49190615196565b612abe9190615182565b9250612af58783858560600151612ad591906151b5565b888660400151612ae591906151b5565b888760800151610ca491906151b5565b601754606082015160808301516040516357a5c96760e01b81529395506001600160a01b03909216926357a5c96792612b35928c92909190600401615154565b600060405180830381600087803b158015612b4f57600080fd5b505af1158015612b63573d6000803e3d6000fd5b505050505092959194509250565b612b796146b3565b60008281526014602052604090819020815160e081019092528054829060ff166003811115612bb857634e487b7160e01b600052602160045260246000fd5b6003811115612bd757634e487b7160e01b600052602160045260246000fd5b81526001820154602082015260028083015460408301526003830154606083015260048301546080830152600583015460a0830152600683015460c09092019160ff1690811115612c3857634e487b7160e01b600052602160045260246000fd5b6002811115612c5757634e487b7160e01b600052602160045260246000fd5b90525092915050565b612c686146b3565b5060608401839052604084018290526080840181905283612c8986826130ba565b95945050505050565b612c9b83610fc7565b6001600160a01b0316856001600160a01b031614612ce05760405162461bcd60e51b81526020600482015260026024820152614e3960f01b6044820152606401610944565b6001600160a01b038416612d1c5760405162461bcd60e51b815260206004820152600360248201526204e31360ec1b6044820152606401610944565b336001600160a01b03861614801590612d3c5750612d3a8533612361565b155b15612d87576000838152600b60209081526040808320338452600101909152902054612d699082906151b5565b6000848152600b602090815260408083203384526001019091529020555b6000838152600f6020526040902054612da19082906151b5565b6000848152600f6020526040902055612db982612528565b612dd657612dd18483612dcb86610ac0565b84613e5d565b612e7e565b836001600160a01b0316612de983610fc7565b6001600160a01b031614612e255760405162461bcd60e51b81526020600482015260036024820152624e313160e81b6044820152606401610944565b612e2e82610ac0565b612e3784610ac0565b14612e545760405162461bcd60e51b815260040161094490615021565b6000828152600f6020526040902054612e6e90829061516a565b6000838152600f60205260409020555b6000838152600a60205260408082205484835291819020919091555183906001600160a01b03808716919088169060008051602061534783398151915290612ec99087908790614f75565b60405180910390a45050505050565b60006064601860009054906101000a90046001600160a01b03166001600160a01b031663f3fa34956040518163ffffffff1660e01b815260040160206040518083038186803b158015612f2a57600080fd5b505afa158015612f3e573d6000803e3d6000fd5b505050506040513d601f19601f82011682018060405250810190612f629190614be7565b612f6c9084615196565b6107ff9190615182565b6013805460009182612f8783615244565b91905055905090565b612f9a33846125b3565b612fcb5760405162461bcd60e51b8152602060048201526002602482015261271960f11b6044820152606401610944565b612fd482612528565b156130065760405162461bcd60e51b81526020600482015260026024820152614e3360f01b6044820152606401610944565b6130258261301385610ac0565b6000918252600a602052604090912055565b6000838152600f602052604090205461303f9082906151b5565b6000848152600f602052604081209190915561305a84610fc7565b9050613070818461306a87610ac0565b85613e5d565b83816001600160a01b03167ff66885c33d648fcd0d97e0f2a18e30102169c22763473af0fb716f11b4a17dd685856040516130ac929190614f75565b60405180910390a350505050565b60008281526014602052604090208151815483929190829060ff191660018360038111156130f857634e487b7160e01b600052602160045260246000fd5b02179055506020820151816001015560408201518160020155606082015181600301556080820151816004015560a0820151816005015560c08201518160060160006101000a81548160ff0219169083600281111561316757634e487b7160e01b600052602160045260246000fd5b021790555050505050565b60175460405163edd0d42160e01b81526001600160a01b039091169063edd0d421906131a690869086908690600401615154565b600060405180830381600087803b1580156131c057600080fd5b505af11580156131d4573d6000803e3d6000fd5b50505050505050565b600680546001600160a01b038381166001600160a01b0319831681179093556040519116919082907f8be0079c531659141344cd1fd0a4f28419497f9722a3daafe3b4186f6b6457e090600090a35050565b60006107ff825490565b61324484848461267d565b61325084848484613ee7565b610fc15760405162461bcd60e51b815260040161094490614fb2565b61327533611b21565b6132a65760405162461bcd60e51b81526020600482015260026024820152614e3560f01b6044820152606401610944565b808214156132db5760405162461bcd60e51b8152602060048201526002602482015261271b60f11b6044820152606401610944565b6132e481610ac0565b6132ed83610ac0565b1461330a5760405162461bcd60e51b815260040161094490615021565b600061331583610fc7565b905061332082610fc7565b6001600160a01b0316816001600160a01b0316146133655760405162461bcd60e51b815260206004820152600260248201526109c760f31b6044820152606401610944565b6000838152600f602052604080822054848352912054613385908261516a565b6000848152600f602052604090205561339d84612a2c565b8284836001600160a01b03167fb3ce851d16b3bbec3774d5631a3893dfa2a80e067cfad265dd594402ac3d6096846040516133da91815260200190565b60405180910390a450505050565b600083838387604051602001613401949392919061510b565b60408051808303601f19018152918152815160209283012060008181526019909352912060020154909150610100900460ff16156134675760405162461bcd60e51b8152602060048201526003602482015262138c4d60ea1b6044820152606401610944565b604051806080016040528085815260200184815260200183600281111561349e57634e487b7160e01b600052602160045260246000fd5b815260016020918201819052600084815260198352604090819020845181559284015183830155830151600280840180549293909260ff19169184908111156134f757634e487b7160e01b600052602160045260246000fd5b021790555060609190910151600290910180549115156101000261ff0019909216919091179055949350505050565b6000838152600a60205260409020819055600d54610a7590839085908490613e5d565b610b698282613ff4565b60006064601860009054906101000a90046001600160a01b03166001600160a01b031663ca535c3b6040518163ffffffff1660e01b815260040160206040518083038186803b1580156135a557600080fd5b505afa1580156135b9573d6000803e3d6000fd5b505050506040513d601f19601f820116820180604052508101906135dd9190614be7565b6135e79085615196565b6135f19190615182565b905080156136f25760105460185460408051630605cc7760e21b815290516001600160a01b039384169363a9059cbb93169163181731dc916004808301926020929190829003018186803b15801561364857600080fd5b505afa15801561365c573d6000803e3d6000fd5b505050506040513d601f19601f82011682018060405250810190613680919061489e565b836040518363ffffffff1660e01b815260040161369e929190614eca565b602060405180830381600087803b1580156136b857600080fd5b505af11580156136cc573d6000803e3d6000fd5b505050506040513d601f19601f820116820180604052508101906136f09190614b57565b505b60006136fe82856151b5565b90508015613a0d5760185460408051634905129f60e11b815290516000926001600160a01b03169163920a253e916004808301926020929190829003018186803b15801561374b57600080fd5b505afa15801561375f573d6000803e3d6000fd5b505050506040513d601f19601f820116820180604052508101906137839190614be7565b1180156137a957506137936116f6565b6001600160a01b0316836001600160a01b031614155b80156137be57506001600160a01b0383163314155b156139385760006064601860009054906101000a90046001600160a01b03166001600160a01b031663920a253e6040518163ffffffff1660e01b815260040160206040518083038186803b15801561381557600080fd5b505afa158015613829573d6000803e3d6000fd5b505050506040513d601f19601f8201168201806040525081019061384d9190614be7565b6138579084615196565b6138619190615182565b905061386d81836151b5565b60105460405163a9059cbb60e01b81529193506001600160a01b03169063a9059cbb906138a09087908590600401614eca565b602060405180830381600087803b1580156138ba57600080fd5b505af11580156138ce573d6000803e3d6000fd5b505050506040513d601f19601f820116820180604052508101906138f29190614b57565b50836001600160a01b03167f2fc41b7d7df3272c17d9b581fcf235307bc027599c6ed68442c4100bd3a841988260405161392e91815260200190565b60405180910390a2505b6010546001600160a01b031663a9059cbb6139516116f6565b836040518363ffffffff1660e01b815260040161396f929190614eca565b602060405180830381600087803b15801561398957600080fd5b505af115801561399d573d6000803e3d6000fd5b505050506040513d601f19601f820116820180604052508101906139c19190614b57565b506139ca6116f6565b6001600160a01b03167ff0f0487d8990103573e0e5cf4e87e101e2a1ba84c733c556b7a5807e570e5d4c82604051613a0491815260200190565b60405180910390a25b5092915050565b6060613a1f82612528565b613a855760405162461bcd60e51b815260206004820152603160248201527f45524337323155524953746f726167653a2055524920717565727920666f72206044820152703737b732bc34b9ba32b73a103a37b5b2b760791b6064820152608401610944565b60008281526009602052604081208054613a9e9061520f565b80601f0160208091040260200160405190810160405280929190818152602001828054613aca9061520f565b8015613b175780601f10613aec57610100808354040283529160200191613b17565b820191906000526020600020905b815481529060010190602001808311613afa57829003601f168201915b505050505090506000613b2861407f565b9050805160001415613b3b575092915050565b815115613b6d578082604051602001613b55929190614def565b60405160208183030381529060405292505050919050565b6126758461409f565b60006120c88383614169565b60006001600160e01b031982166380ac58cd60e01b1480613bb357506001600160e01b03198216635b5e139f60e01b145b806107ff57506301ffc9a760e01b6001600160e01b03198316146107ff565b6001600160a01b03831615610a7557610a75816141a1565b60606000613bf9836002615196565b613c0490600261516a565b6001600160401b03811115613c2957634e487b7160e01b600052604160045260246000fd5b6040519080825280601f01601f191660200182016040528015613c53576020820181803683370190505b509050600360fc1b81600081518110613c7c57634e487b7160e01b600052603260045260246000fd5b60200101906001600160f81b031916908160001a905350600f60fb1b81600181518110613cb957634e487b7160e01b600052603260045260246000fd5b60200101906001600160f81b031916908160001a9053506000613cdd846002615196565b613ce890600161516a565b90505b6001811115613d7c576f181899199a1a9b1b9c1cb0b131b232b360811b85600f1660108110613d2a57634e487b7160e01b600052603260045260246000fd5b1a60f81b828281518110613d4e57634e487b7160e01b600052603260045260246000fd5b60200101906001600160f81b031916908160001a90535060049490941c93613d75816151f8565b9050613ceb565b5083156120c85760405162461bcd60e51b815260206004820181905260248201527f537472696e67733a20686578206c656e67746820696e73756666696369656e746044820152606401610944565b6000613dd682610fc7565b90506000613de383610ac0565b6000848152600f6020908152604080832054848452600c90925290912091925090613e0e9085614255565b506000848152600f6020526040812055613e2784614261565b8360006001600160a01b0316846001600160a01b03166000805160206153478339815191526000856040516133da929190614f75565b613e6683612528565b613e8e57613e7484846142f6565b6000828152600c60205260409020613e8c9084614422565b505b6000838152600f6020526040902054613ea890829061516a565b6000848152600f60205260408082209290925590516001600160a01b038616908290600080516020615347833981519152906133da9088908790614f75565b60006001600160a01b0384163b15613fe957604051630a85bd0160e11b81526001600160a01b0385169063150b7a0290613f2b903390899088908890600401614e8d565b602060405180830381600087803b158015613f4557600080fd5b505af1925050508015613f75575060408051601f3d908101601f19168201909252613f7291810190614bcb565b60015b613fcf573d808015613fa3576040519150601f19603f3d011682016040523d82523d6000602084013e613fa8565b606091505b508051613fc75760405162461bcd60e51b815260040161094490614fb2565b805181602001fd5b6001600160e01b031916630a85bd0160e11b149050612675565b506001949350505050565b613ffd82612528565b6140605760405162461bcd60e51b815260206004820152602e60248201527f45524337323155524953746f726167653a2055524920736574206f66206e6f6e60448201526d32bc34b9ba32b73a103a37b5b2b760911b6064820152608401610944565b60008281526009602090815260409091208251610a759284019061470f565b606060405180606001604052806022815260200161530560229139905090565b60606140aa82612528565b61410e5760405162461bcd60e51b815260206004820152602f60248201527f4552433732314d657461646174613a2055524920717565727920666f72206e6f60448201526e3732bc34b9ba32b73a103a37b5b2b760891b6064820152608401610944565b600061411861407f565b9050600081511161413857604051806020016040528060008152506120c8565b806141428461442e565b604051602001614153929190614def565b6040516020818303038152906040529392505050565b600082600001828154811061418e57634e487b7160e01b600052603260045260246000fd5b9060005260206000200154905092915050565b6000818152600b60205260408120905b8154811015610a75578160010160008360000183815481106141e357634e487b7160e01b600052603260045260246000fd5b60009182526020808320909101546001600160a01b03168352820192909252604001812055815482908290811061422a57634e487b7160e01b600052603260045260246000fd5b600091825260209091200180546001600160a01b03191690558061424d81615244565b9150506141b1565b60006120c88383614547565b600061426c82610fc7565b905061427a81600084613bd2565b614285600083612545565b6001600160a01b03811660009081526003602052604081208054600192906142ae9084906151b5565b909155505060008281526002602052604080822080546001600160a01b0319169055518391906001600160a01b03841690600080516020615327833981519152908390a45050565b6001600160a01b03821661434c5760405162461bcd60e51b815260206004820181905260248201527f4552433732313a206d696e7420746f20746865207a65726f20616464726573736044820152606401610944565b61435581612528565b156143a15760405162461bcd60e51b815260206004820152601c60248201527b115490cdcc8c4e881d1bdad95b88185b1c9958591e481b5a5b9d195960221b6044820152606401610944565b6143ad60008383613bd2565b6001600160a01b03821660009081526003602052604081208054600192906143d690849061516a565b909155505060008181526002602052604080822080546001600160a01b0319166001600160a01b0386169081179091559051839290600080516020615327833981519152908290a45050565b60006120c88383614664565b6060816144525750506040805180820190915260018152600360fc1b602082015290565b8160005b811561447c578061446681615244565b91506144759050600a83615182565b9150614456565b6000816001600160401b038111156144a457634e487b7160e01b600052604160045260246000fd5b6040519080825280601f01601f1916602001820160405280156144ce576020820181803683370190505b5090505b8415612675576144e36001836151b5565b91506144f0600a8661525f565b6144fb90603061516a565b60f81b81838151811061451e57634e487b7160e01b600052603260045260246000fd5b60200101906001600160f81b031916908160001a905350614540600a86615182565b94506144d2565b6000818152600183016020526040812054801561465a57600061456b6001836151b5565b855490915060009061457f906001906151b5565b90508181146146005760008660000182815481106145ad57634e487b7160e01b600052603260045260246000fd5b90600052602060002001549050808760000184815481106145de57634e487b7160e01b600052603260045260246000fd5b6000918252602080832090910192909255918252600188019052604090208390555b855486908061461f57634e487b7160e01b600052603160045260246000fd5b6001900381819060005260206000200160009055905585600101600086815260200190815260200160002060009055600193505050506107ff565b60009150506107ff565b60008181526001830160205260408120546146ab575081546001818101845560008481526020808220909301849055845484825282860190935260409020919091556107ff565b5060006107ff565b6040805160e08101909152806000815260200160008152602001600081526020016000815260200160008152602001600081526020016000600281111561470a57634e487b7160e01b600052602160045260246000fd5b905290565b82805461471b9061520f565b90600052602060002090601f01602090048101928261473d5760008555614783565b82601f1061475657805160ff1916838001178555614783565b82800160010185558215614783579182015b82811115614783578251825591602001919060010190614768565b5061478f929150614793565b5090565b5b8082111561478f5760008155600101614794565b60006001600160401b03808411156147c2576147c26152b5565b604051601f8501601f19908116603f011681019082821181831017156147ea576147ea6152b5565b8160405280935085815286868601111561480357600080fd5b858560208301376000602087830101525050509392505050565b60008083601f84011261482e578182fd5b5081356001600160401b03811115614844578182fd5b6020830191508360208260051b850101111561485f57600080fd5b9250929050565b80516001600160501b038116811461487d57600080fd5b919050565b600060208284031215614893578081fd5b81356120c8816152cb565b6000602082840312156148af578081fd5b81516120c8816152cb565b600080604083850312156148cc578081fd5b82356148d7816152cb565b915060208301356148e7816152cb565b809150509250929050565b600080600060608486031215614906578081fd5b8335614911816152cb565b92506020840135614921816152cb565b929592945050506040919091013590565b60008060008060808587031215614947578081fd5b8435614952816152cb565b93506020850135614962816152cb565b92506040850135915060608501356001600160401b03811115614983578182fd5b8501601f81018713614993578182fd5b6149a2878235602084016147a8565b91505092959194509250565b600080600080608085870312156149c3578384fd5b84356149ce816152cb565b935060208501356149de816152cb565b93969395505050506040820135916060013590565b600080600080600060a08688031215614a0a578081fd5b8535614a15816152cb565b94506020860135614a25816152cb565b94979496505050506040830135926060810135926080909101359150565b60008060408385031215614a55578182fd5b8235614a60816152cb565b915060208301356148e7816152e0565b60008060408385031215614a82578182fd5b8235614a8d816152cb565b946020939093013593505050565b600080600060608486031215614aaf578081fd5b8335614aba816152cb565b95602085013595506040909401359392505050565b60008060208385031215614ae1578182fd5b82356001600160401b03811115614af6578283fd5b614b028582860161481d565b90969095509350505050565b600080600060408486031215614b22578081fd5b83356001600160401b03811115614b37578182fd5b614b438682870161481d565b909790965060209590950135949350505050565b600060208284031215614b68578081fd5b81516120c8816152e0565b600060208284031215614b84578081fd5b5035919050565b60008060408385031215614b9d578182fd5b8235915060208301356148e7816152cb565b600060208284031215614bc0578081fd5b81356120c8816152ee565b600060208284031215614bdc578081fd5b81516120c8816152ee565b600060208284031215614bf8578081fd5b5051919050565b600080600060408486031215614c13578081fd5b8335925060208401356001600160401b03811115614c2f578182fd5b614c3b8682870161481d565b9497909650939450505050565b60008060408385031215614c5a578182fd5b50508035926020909101359150565b600080600080600060a08688031215614c80578283fd5b8535945060208601359350604086013592506060860135614ca0816152e0565b91506080860135614cb0816152e0565b809150509295509295909350565b600080600080600080600060e0888a031215614cd8578485fd5b8735965060208801359550604088013594506060880135614cf8816152e0565b93506080880135614d08816152e0565b925060a0880135614d18816152cb565b915060c08801356001600160401b03811115614d32578182fd5b8801601f81018a13614d42578182fd5b614d518a8235602084016147a8565b91505092959891949750929550565b600080600080600060a08688031215614d77578283fd5b614d8086614866565b9450602086015193506040860151925060608601519150614da360808701614866565b90509295509295909350565b60008151808452614dc78160208601602086016151cc565b601f01601f19169290920160200192915050565b60038110614deb57614deb61529f565b9052565b60008351614e018184602088016151cc565b835190830190614e158183602088016151cc565b01949350505050565b76020b1b1b2b9b9a1b7b73a3937b61d1030b1b1b7bab73a1604d1b815260008351614e508160178501602088016151cc565b7001034b99036b4b9b9b4b733903937b6329607d1b6017918401918201528351614e818160288401602088016151cc565b01602801949350505050565b6001600160a01b0385811682528416602082015260408101839052608060608201819052600090614ec090830184614daf565b9695505050505050565b6001600160a01b03929092168252602082015260400190565b6020808252825182820181905260009190848201906040850190845b81811015614f1b57835183529284019291840191600101614eff565b50909695505050505050565b60e0810160048910614f3b57614f3b61529f565b8882528760208301528660408301528560608301528460808301528360a0830152614f6960c0830184614ddb565b98975050505050505050565b918252602082015260400190565b6020815260006120c86020830184614daf565b6020808252600290820152614f3960f01b604082015260600190565b60208082526032908201527f4552433732313a207472616e7366657220746f206e6f6e20455243373231526560408201527131b2b4bb32b91034b6b83632b6b2b73a32b960711b606082015260800190565b60208082526003908201526204f32360ec1b604082015260600190565b6020808252600290820152614e3760f01b604082015260600190565b6020808252818101527f4f776e61626c653a2063616c6c6572206973206e6f7420746865206f776e6572604082015260600190565b60208082526031908201527f4552433732313a207472616e736665722063616c6c6572206973206e6f74206f6040820152701ddb995c881b9bdc88185c1c1c9bdd9959607a1b606082015260800190565b60208082526002908201526113cd60f21b604082015260600190565b84815260208101849052608081016150fa6040830185614ddb565b821515606083015295945050505050565b84815260208101849052608081016151266040830185614ddb565b82606083015295945050505050565b838152826020820152606060408201526000612c896060830184614daf565b9283526020830191909152604082015260600190565b6000821982111561517d5761517d615273565b500190565b60008261519157615191615289565b500490565b60008160001904831182151516156151b0576151b0615273565b500290565b6000828210156151c7576151c7615273565b500390565b60005b838110156151e75781810151838201526020016151cf565b83811115610fc15750506000910152565b60008161520757615207615273565b506000190190565b600181811c9082168061522357607f821691505b602082108114156108d657634e487b7160e01b600052602260045260246000fd5b600060001982141561525857615258615273565b5060010190565b60008261526e5761526e615289565b500690565b634e487b7160e01b600052601160045260246000fd5b634e487b7160e01b600052601260045260246000fd5b634e487b7160e01b600052602160045260246000fd5b634e487b7160e01b600052604160045260246000fd5b6001600160a01b0381168114610c0e57600080fd5b8015158114610c0e57600080fd5b6001600160e01b031981168114610c0e57600080fdfe68747470733a2f2f676174657761792e70696e6174612e636c6f75642f697066732fddf252ad1be2c89b69c2b068fc378daa952ba7f163c4a11628f55a4df523b3ef823a343d1c899e61a4db12247636a6882bf1fefae78bef39170f8d0f5b53e456a2646970667358221220bbfc5cf1a091751adf9131d55d647943bf7f219e8246d894d470099b86f629ad64736f6c63430008040033","bytecodeSha1":"3eb8c0e42ff48945ddfd392dfca78d6ece5cc684","type":"contract","abi":[{"inputs":[{"internalType":"contract ERC20","name":"_tokenX","type":"address"},{"internalType":"contract IPriceProvider","name":"pp","type":"address"},{"internalType":"contract BufferIBFRPoolV2","name":"_pool","type":"address"},{"internalType":"contract OptionConfig","name":"_config","type":"address"}],"stateMutability":"nonpayable","type":"constructor","name":"constructor"},{"anonymous":false,"inputs":[{"indexed":true,"internalType":"address","name":"owner","type":"address"},{"indexed":true,"internalType":"address","name":"approved","type":"address"},{"indexed":true,"internalType":"uint256","name":"tokenId","type":"uint256"}],"name":"Approval","type":"event"},{"anonymous":false,"inputs":[{"indexed":true,"internalType":"address","name":"owner","type":"address"},{"indexed":true,"internalType":"address","name":"operator","type":"address"},{"indexed":false,"internalType":"bool","name":"approved","type":"bool"}],"name":"ApprovalForAll","type":"event"},{"anonymous":false,"inputs":[{"indexed":true,"internalType":"address","name":"approval","type":"address"},{"indexed":true,"internalType":"uint256","name":"tokenId","type":"uint256"},{"indexed":false,"internalType":"uint256","name":"allowance","type":"uint256"}],"name":"ApprovalUnits","type":"event"},{"anonymous":false,"inputs":[{"indexed":true,"internalType":"address","name":"account","type":"address"},{"indexed":false,"internalType":"bool","name":"status","type":"bool"}],"name":"AutoExerciseStatusChange","type":"event"},{"anonymous":false,"inputs":[{"indexed":true,"internalType":"uint256","name":"id","type":"uint256"},{"indexed":true,"internalType":"address","name":"account","type":"address"},{"indexed":false,"internalType":"uint256","name":"settlementFee","type":"uint256"},{"indexed":false,"internalType":"uint256","name":"totalFee","type":"uint256"},{"indexed":false,"internalType":"string","name":"metadata","type":"string"}],"name":"Create","type":"event"},{"anonymous":false,"inputs":[{"indexed":true,"internalType":"uint256","name":"id","type":"uint256"},{"indexed":false,"internalType":"uint256","name":"profit","type":"uint256"}],"name":"Exercise","type":"event"},{"anonymous":false,"inputs":[{"indexed":true,"internalType":"uint256","name":"id","type":"uint256"},{"indexed":false,"internalType":"uint256","name":"premium","type":"uint256"}],"name":"Expire","type":"event"},{"anonymous":false,"inputs":[{"indexed":true,"internalType":"address","name":"owner","type":"address"},{"indexed":true,"internalType":"uint256","name":"tokenId","type":"uint256"},{"indexed":true,"internalType":"uint256","name":"targetTokenId","type":"uint256"},{"indexed":false,"internalType":"uint256","name":"mergeUnits","type":"uint256"}],"name":"Merge","type":"event"},{"anonymous":false,"inputs":[{"indexed":true,"internalType":"address","name":"previousOwner","type":"address"},{"indexed":true,"internalType":"address","name":"newOwner","type":"address"}],"name":"OwnershipTransferred","type":"event"},{"anonymous":false,"inputs":[{"indexed":true,"internalType":"address","name":"owner","type":"address"},{"indexed":false,"internalType":"uint256","name":"amount","type":"uint256"}],"name":"PayAdminFee","type":"event"},{"anonymous":false,"inputs":[{"indexed":true,"internalType":"address","name":"referrer","type":"address"},{"indexed":false,"internalType":"uint256","name":"amount","type":"uint256"}],"name":"PayReferralFee","type":"event"},{"anonymous":false,"inputs":[{"indexed":true,"internalType":"bytes32","name":"role","type":"bytes32"},{"indexed":true,"internalType":"bytes32","name":"previousAdminRole","type":"bytes32"},{"indexed":true,"internalType":"bytes32","name":"newAdminRole","type":"bytes32"}],"name":"RoleAdminChanged","type":"event"},{"anonymous":false,"inputs":[{"indexed":true,"internalType":"bytes32","name":"role","type":"bytes32"},{"indexed":true,"internalType":"address","name":"account","type":"address"},{"indexed":true,"internalType":"address","name":"sender","type":"address"}],"name":"RoleGranted","type":"event"},{"anonymous":false,"inputs":[{"indexed":true,"internalType":"bytes32","name":"role","type":"bytes32"},{"indexed":true,"internalType":"address","name":"account","type":"address"},{"indexed":true,"internalType":"address","name":"sender","type":"address"}],"name":"RoleRevoked","type":"event"},{"anonymous":false,"inputs":[{"indexed":true,"internalType":"address","name":"owner","type":"address"},{"indexed":true,"internalType":"uint256","name":"tokenId","type":"uint256"},{"indexed":false,"internalType":"uint256","name":"newTokenId","type":"uint256"},{"indexed":false,"internalType":"uint256","name":"splitUnits","type":"uint256"}],"name":"Split","type":"event"},{"anonymous":false,"inputs":[{"indexed":true,"internalType":"address","name":"from","type":"address"},{"indexed":true,"internalType":"address","name":"to","type":"address"},{"indexed":true,"internalType":"uint256","name":"tokenId","type":"uint256"}],"name":"Transfer","type":"event"},{"anonymous":false,"inputs":[{"indexed":true,"internalType":"address","name":"from","type":"address"},{"indexed":true,"internalType":"address","name":"to","type":"address"},{"indexed":true,"internalType":"uint256","name":"tokenId","type":"uint256"},{"indexed":false,"internalType":"uint256","name":"targetTokenId","type":"uint256"},{"indexed":false,"internalType":"uint256","name":"transferUnits","type":"uint256"}],"name":"TransferUnits","type":"event"},{"anonymous":false,"inputs":[{"indexed":false,"internalType":"uint256","name":"startHour","type":"uint256"},{"indexed":false,"internalType":"uint256","name":"startMinute","type":"uint256"},{"indexed":false,"internalType":"uint256","name":"endHour","type":"uint256"},{"indexed":false,"internalType":"uint256","name":"endMinute","type":"uint256"}],"name":"UpdateOptionCreationWindow","type":"event"},{"inputs":[],"name":"AUTO_CLOSER_ROLE","outputs":[{"internalType":"bytes32","name":"","type":"bytes32"}],"stateMutability":"view","type":"function"},{"inputs":[],"name":"DEFAULT_ADMIN_ROLE","outputs":[{"internalType":"bytes32","name":"","type":"bytes32"}],"stateMutability":"view","type":"function"},{"inputs":[{"internalType":"uint256","name":"","type":"uint256"}],"name":"_units","outputs":[{"internalType":"uint256","name":"","type":"uint256"}],"stateMutability":"view","type":"function"},{"inputs":[{"internalType":"uint256","name":"optionId_","type":"uint256"},{"internalType":"address","name":"spender_","type":"address"}],"name":"allowance","outputs":[{"internalType":"uint256","name":"","type":"uint256"}],"stateMutability":"view","type":"function"},{"inputs":[{"internalType":"address","name":"to","type":"address"},{"internalType":"uint256","name":"tokenId","type":"uint256"}],"name":"approve","outputs":[],"stateMutability":"nonpayable","type":"function"},{"inputs":[{"internalType":"address","name":"to_","type":"address"},{"internalType":"uint256","name":"optionId_","type":"uint256"},{"internalType":"uint256","name":"allowance_","type":"uint256"}],"name":"approve","outputs":[],"stateMutability":"nonpayable","type":"function"},{"inputs":[],"name":"approvePoolToTransferTokenX","outputs":[],"stateMutability":"nonpayable","type":"function"},{"inputs":[{"internalType":"address","name":"owner","type":"address"}],"name":"balanceOf","outputs":[{"internalType":"uint256","name":"","type":"uint256"}],"stateMutability":"view","type":"function"},{"inputs":[{"internalType":"uint256","name":"","type":"uint256"}],"name":"binaryOptionType","outputs":[{"internalType":"bool","name":"isYes","type":"bool"},{"internalType":"bool","name":"isAbove","type":"bool"}],"stateMutability":"view","type":"function"},{"inputs":[{"internalType":"uint256","name":"tokenId_","type":"uint256"}],"name":"burn","outputs":[],"stateMutability":"nonpayable","type":"function"},{"inputs":[],"name":"config","outputs":[{"internalType":"contract OptionConfig","name":"","type":"address"}],"stateMutability":"view","type":"function"},{"inputs":[{"internalType":"uint256","name":"amount","type":"uint256"},{"internalType":"uint256","name":"strike","type":"uint256"},{"internalType":"uint256","name":"expiration","type":"uint256"},{"internalType":"bool","name":"isYes","type":"bool"},{"internalType":"bool","name":"isAbove","type":"bool"},{"internalType":"address","name":"referrer","type":"address"},{"internalType":"string","name":"metadata","type":"string"}],"name":"create","outputs":[{"internalType":"uint256","name":"optionID","type":"uint256"}],"stateMutability":"nonpayable","type":"function"},{"inputs":[{"internalType":"uint256","name":"optionID","type":"uint256"}],"name":"exercise","outputs":[{"internalType":"uint256","name":"profit","type":"uint256"}],"stateMutability":"nonpayable","type":"function"},{"inputs":[{"internalType":"uint256","name":"optionID","type":"uint256"}],"name":"exists","outputs":[{"internalType":"bool","name":"","type":"bool"}],"stateMutability":"view","type":"function"},{"inputs":[{"internalType":"uint256","name":"","type":"uint256"}],"name":"expiryToRoundID","outputs":[{"internalType":"uint256","name":"","type":"uint256"}],"stateMutability":"view","type":"function"},{"inputs":[{"internalType":"uint256","name":"period","type":"uint256"},{"internalType":"uint256","name":"amount","type":"uint256"},{"internalType":"uint256","name":"strike","type":"uint256"},{"internalType":"bool","name":"isYes","type":"bool"},{"internalType":"bool","name":"isAbove","type":"bool"}],"name":"fees","outputs":[{"internalType":"uint256","name":"total","type":"uint256"},{"internalType":"uint256","name":"settlementFee","type":"uint256"},{"internalType":"uint256","name":"premium","type":"uint256"}],"stateMutability":"view","type":"function"},{"inputs":[{"internalType":"uint256","name":"tokenId","type":"uint256"}],"name":"getApproved","outputs":[{"internalType":"address","name":"","type":"address"}],"stateMutability":"view","type":"function"},{"inputs":[{"internalType":"bytes32","name":"role","type":"bytes32"}],"name":"getRoleAdmin","outputs":[{"internalType":"bytes32","name":"","type":"bytes32"}],"stateMutability":"view","type":"function"},{"inputs":[{"internalType":"bytes32","name":"role","type":"bytes32"},{"internalType":"address","name":"account","type":"address"}],"name":"grantRole","outputs":[],"stateMutability":"nonpayable","type":"function"},{"inputs":[{"internalType":"bytes32","name":"role","type":"bytes32"},{"internalType":"address","name":"account","type":"address"}],"name":"hasRole","outputs":[{"internalType":"bool","name":"","type":"bool"}],"stateMutability":"view","type":"function"},{"inputs":[{"internalType":"address","name":"owner","type":"address"},{"internalType":"address","name":"operator","type":"address"}],"name":"isApprovedForAll","outputs":[{"internalType":"bool","name":"","type":"bool"}],"stateMutability":"view","type":"function"},{"inputs":[],"name":"maxUnits","outputs":[{"internalType":"uint256","name":"","type":"uint256"}],"stateMutability":"view","type":"function"},{"inputs":[{"internalType":"uint256[]","name":"optionIDs","type":"uint256[]"},{"internalType":"uint256","name":"targetOptionID","type":"uint256"}],"name":"merge","outputs":[],"stateMutability":"nonpayable","type":"function"},{"inputs":[],"name":"minimumYield","outputs":[{"internalType":"uint256","name":"","type":"uint256"}],"stateMutability":"view","type":"function"},{"inputs":[],"name":"name","outputs":[{"internalType":"string","name":"","type":"string"}],"stateMutability":"view","type":"function"},{"inputs":[],"name":"nextTokenId","outputs":[{"internalType":"uint256","name":"","type":"uint256"}],"stateMutability":"view","type":"function"},{"inputs":[{"internalType":"uint256","name":"","type":"uint256"}],"name":"optionSlotMapping","outputs":[{"internalType":"uint256","name":"","type":"uint256"}],"stateMutability":"view","type":"function"},{"inputs":[{"internalType":"uint256","name":"","type":"uint256"}],"name":"options","outputs":[{"internalType":"enum IBufferOptions.State","name":"state","type":"uint8"},{"internalType":"uint256","name":"strike","type":"uint256"},{"internalType":"uint256","name":"amount","type":"uint256"},{"internalType":"uint256","name":"lockedAmount","type":"uint256"},{"internalType":"uint256","name":"premium","type":"uint256"},{"internalType":"uint256","name":"expiration","type":"uint256"},{"internalType":"enum IBufferOptions.OptionType","name":"optionType","type":"uint8"}],"stateMutability":"view","type":"function"},{"inputs":[],"name":"owner","outputs":[{"internalType":"address","name":"","type":"address"}],"stateMutability":"view","type":"function"},{"inputs":[{"internalType":"uint256","name":"tokenId","type":"uint256"}],"name":"ownerOf","outputs":[{"internalType":"address","name":"","type":"address"}],"stateMutability":"view","type":"function"},{"inputs":[],"name":"pool","outputs":[{"internalType":"contract BufferIBFRPoolV2","name":"","type":"address"}],"stateMutability":"view","type":"function"},{"inputs":[],"name":"priceProvider","outputs":[{"internalType":"contract IPriceProvider","name":"","type":"address"}],"stateMutability":"view","type":"function"},{"inputs":[],"name":"renounceOwnership","outputs":[],"stateMutability":"nonpayable","type":"function"},{"inputs":[{"internalType":"bytes32","name":"role","type":"bytes32"},{"internalType":"address","name":"account","type":"address"}],"name":"renounceRole","outputs":[],"stateMutability":"nonpayable","type":"function"},{"inputs":[{"internalType":"bytes32","name":"role","type":"bytes32"},{"internalType":"address","name":"account","type":"address"}],"name":"revokeRole","outputs":[],"stateMutability":"nonpayable","type":"function"},{"inputs":[{"internalType":"address","name":"from","type":"address"},{"internalType":"address","name":"to","type":"address"},{"internalType":"uint256","name":"tokenId","type":"uint256"}],"name":"safeTransferFrom","outputs":[],"stateMutability":"nonpayable","type":"function"},{"inputs":[{"internalType":"address","name":"from","type":"address"},{"internalType":"address","name":"to","type":"address"},{"internalType":"uint256","name":"tokenId","type":"uint256"},{"internalType":"bytes","name":"_data","type":"bytes"}],"name":"safeTransferFrom","outputs":[],"stateMutability":"nonpayable","type":"function"},{"inputs":[{"internalType":"address","name":"operator","type":"address"},{"internalType":"bool","name":"approved","type":"bool"}],"name":"setApprovalForAll","outputs":[],"stateMutability":"nonpayable","type":"function"},{"inputs":[{"internalType":"uint256","name":"roundId","type":"uint256"},{"internalType":"uint256","name":"optionID","type":"uint256"}],"name":"setRoundIDForExpiry","outputs":[{"internalType":"bool","name":"isCorrectRoundId","type":"bool"}],"stateMutability":"nonpayable","type":"function"},{"inputs":[{"internalType":"uint256","name":"","type":"uint256"}],"name":"slotDetails","outputs":[{"internalType":"uint256","name":"strike","type":"uint256"},{"internalType":"uint256","name":"expiration","type":"uint256"},{"internalType":"enum IBufferOptions.OptionType","name":"optionType","type":"uint8"},{"internalType":"bool","name":"isValid","type":"bool"}],"stateMutability":"view","type":"function"},{"inputs":[{"internalType":"uint256","name":"optionId_","type":"uint256"}],"name":"slotOf","outputs":[{"internalType":"uint256","name":"","type":"uint256"}],"stateMutability":"view","type":"function"},{"inputs":[{"internalType":"uint256","name":"optionID","type":"uint256"},{"internalType":"uint256[]","name":"splitUnits_","type":"uint256[]"}],"name":"split","outputs":[{"internalType":"uint256[]","name":"newOptionIDs","type":"uint256[]"}],"stateMutability":"nonpayable","type":"function"},{"inputs":[{"internalType":"bytes4","name":"interfaceId","type":"bytes4"}],"name":"supportsInterface","outputs":[{"internalType":"bool","name":"","type":"bool"}],"stateMutability":"view","type":"function"},{"inputs":[],"name":"symbol","outputs":[{"internalType":"string","name":"","type":"string"}],"stateMutability":"view","type":"function"},{"inputs":[{"internalType":"uint256","name":"slot_","type":"uint256"},{"internalType":"uint256","name":"index_","type":"uint256"}],"name":"tokenOfSlotByIndex","outputs":[{"internalType":"uint256","name":"","type":"uint256"}],"stateMutability":"view","type":"function"},{"inputs":[{"internalType":"uint256","name":"tokenId","type":"uint256"}],"name":"tokenURI","outputs":[{"internalType":"string","name":"","type":"string"}],"stateMutability":"view","type":"function"},{"inputs":[],"name":"tokenX","outputs":[{"internalType":"contract ERC20","name":"","type":"address"}],"stateMutability":"view","type":"function"},{"inputs":[{"internalType":"uint256","name":"slot_","type":"uint256"}],"name":"tokensInSlot","outputs":[{"internalType":"uint256","name":"","type":"uint256"}],"stateMutability":"view","type":"function"},{"inputs":[{"internalType":"address","name":"from","type":"address"},{"internalType":"address","name":"to","type":"address"},{"internalType":"uint256","name":"tokenId","type":"uint256"}],"name":"transferFrom","outputs":[],"stateMutability":"nonpayable","type":"function"},{"inputs":[{"internalType":"address","name":"from_","type":"address"},{"internalType":"address","name":"to_","type":"address"},{"internalType":"uint256","name":"optionID","type":"uint256"},{"internalType":"uint256","name":"targetOptionID","type":"uint256"},{"internalType":"uint256","name":"transferUnits_","type":"uint256"}],"name":"transferFrom","outputs":[],"stateMutability":"nonpayable","type":"function"},{"inputs":[{"internalType":"address","name":"from_","type":"address"},{"internalType":"address","name":"to_","type":"address"},{"internalType":"uint256","name":"optionID","type":"uint256"},{"internalType":"uint256","name":"transferUnits_","type":"uint256"}],"name":"transferFrom","outputs":[{"internalType":"uint256","name":"newOptionID","type":"uint256"}],"stateMutability":"nonpayable","type":"function"},{"inputs":[{"internalType":"address","name":"newOwner","type":"address"}],"name":"transferOwnership","outputs":[],"stateMutability":"nonpayable","type":"function"},{"inputs":[],"name":"unitDecimals","outputs":[{"internalType":"uint8","name":"","type":"uint8"}],"stateMutability":"view","type":"function"},{"inputs":[{"internalType":"uint256","name":"slot_","type":"uint256"}],"name":"unitsInSlot","outputs":[{"internalType":"uint256","name":"units_","type":"uint256"}],"stateMutability":"view","type":"function"},{"inputs":[{"internalType":"uint256","name":"optionId_","type":"uint256"}],"name":"unitsInToken","outputs":[{"internalType":"uint256","name":"","type":"uint256"}],"stateMutability":"view","type":"function"},{"inputs":[{"internalType":"uint256","name":"optionID","type":"uint256"}],"name":"unlock","outputs":[],"stateMutability":"nonpayable","type":"function"},{"inputs":[{"internalType":"uint256[]","name":"optionIDs","type":"uint256[]"}],"name":"unlockAll","outputs":[],"stateMutability":"nonpayable","type":"function"}],"compiler":{"version":"0.8.4+commit.c7e474f2","evm_version":"istanbul","optimizer":{"enabled":true,"runs":1}},"contractName":"BufferBinaryEuropeanTokenXOptions","deployedBytecode":"608060405234801561001057600080fd5b50600436106102935760003560e01c806301ffc9a71461029857806305271a2a146102c057806306517a29146102d557806306fdde03146102ec578063076d948c14610301578063081812fc14610314578063095ea7b31461033f57806316dc165b1461035457806316f0115b1461036757806323b872dd1461037a578063248a9ca31461038d578063263f3e7e146103a05780632f2ff15d146103b357806336568abe146103c6578063409e2205146103d9578063426a84931461043c57806342842e0e1461044f57806342966c68146104625780634aed53c2146104755780634f558e79146104885780636198e3391461049b5780636352211e146104ae578063645734e6146104c157806367807f7d146104c9578063689ab5ac146104eb57806369c672471461052e57806370a082311461054e578063715018a61461056157806375794a3c1461056957806378c533ce1461057257806379502c5514610592578063841edc0e146105a55780638a584118146105c55780638da5cb5b1461061057806391d148541461061857806395d89b411461062b578063a217fddf14610633578063a22cb4651461063b578063a6d14c021461064e578063a880042514610656578063b07f0a4114610669578063b888879e1461067c578063b88d4fde1461068f578063bbe33ea5146106a2578063becef607146106b5578063c0d720bb146106c8578063c87b56dd146106db578063d149cc30146106ee578063d547741f14610701578063d5a0e67314610714578063d67a6b7014610734578063dba34e9714610747578063e342b5981461076e578063e345e0bc14610781578063e985e9c5146107bb578063f2fde38b146107ce578063fe99049a146107e1575b600080fd5b6102ab6102a6366004614baf565b6107f4565b60405190151581526020015b60405180910390f35b600e5460405160ff90911681526020016102b7565b6102de600d5481565b6040519081526020016102b7565b6102f4610805565b6040516102b79190614f83565b6102de61030f366004614b73565b610897565b610327610322366004614b73565b6108dc565b6040516001600160a01b0390911681526020016102b7565b61035261034d366004614a70565b610969565b005b601054610327906001600160a01b031681565b601754610327906001600160a01b031681565b6103526103883660046148f2565b610a7a565b6102de61039b366004614b73565b610aab565b6102de6103ae366004614b73565b610ac0565b6103526103c1366004614b8b565b610ad2565b6103526103d4366004614b8b565b610aef565b6104296103e7366004614b73565b601460205260009081526040902080546001820154600283015460038401546004850154600586015460069096015460ff958616969495939492939192911687565b6040516102b79796959493929190614f27565b61035261044a366004614a9b565b610b6d565b61035261045d3660046148f2565b610bb1565b610352610470366004614b73565b610bcc565b6103526104833660046149f3565b610c11565b6102ab610496366004614b73565b610d33565b6103526104a9366004614b73565b610d3e565b6103276104bc366004614b73565b610fc7565b61035261103e565b6104dc6104d7366004614c69565b6110c8565b6040516102b793929190615154565b6105176104f9366004614b73565b60156020526000908152604090205460ff8082169161010090041682565b6040805192151583529015156020830152016102b7565b61054161053c366004614bff565b611242565b6040516102b79190614ee3565b6102de61055c366004614882565b611634565b6103526116bb565b6102de60135481565b6102de610580366004614b73565b600f6020526000908152604090205481565b601854610327906001600160a01b031681565b6102de6105b3366004614b73565b60166020526000908152604090205481565b6106006105d3366004614b73565b60196020526000908152604090208054600182015460029092015490919060ff8082169161010090041684565b6040516102b794939291906150df565b6103276116f6565b6102ab610626366004614b8b565b611705565b6102f4611730565b6102de600081565b610352610649366004614a43565b61173f565b6102de600581565b6102de610664366004614b73565b611800565b6102de610677366004614b73565b611817565b601254610327906001600160a01b031681565b61035261069d366004614932565b611b1c565b6103526106b0366004614b0e565b611b4f565b6102de6106c3366004614b73565b611d5e565b6102de6106d6366004614cbe565b611d70565b6102f46106e9366004614b73565b6120a5565b6102de6106fc366004614c48565b6120b0565b61035261070f366004614b8b565b6120cf565b6102de610722366004614b73565b600a6020526000908152604090205481565b6102ab610742366004614c48565b6120ec565b6102de7fdeb3b49547f710c56a925b6e16e3557a50fab4dd8f243bc314f3afba2054ec5b81565b61035261077c366004614acf565b612314565b6102de61078f366004614b8b565b6000828152600b602090815260408083206001600160a01b038516845260010190915290205492915050565b6102ab6107c93660046148ba565b612361565b6103526107dc366004614882565b61238f565b6102de6107ef3660046149ae565b61242c565b60006107ff82612503565b92915050565b6060600080546108149061520f565b80601f01602080910402602001604051908101604052809291908181526020018280546108409061520f565b801561088d5780601f106108625761010080835404028352916020019161088d565b820191906000526020600020905b81548152906001019060200180831161087057829003601f168201915b5050505050905090565b6000805b6108a483611800565b8110156108d6576108b86106c384836120b0565b6108c2908361516a565b9150806108ce81615244565b91505061089b565b50919050565b60006108e782612528565b61094d5760405162461bcd60e51b815260206004820152602c60248201527f4552433732313a20617070726f76656420717565727920666f72206e6f6e657860448201526b34b9ba32b73a103a37b5b2b760a11b60648201526084015b60405180910390fd5b506000908152600460205260409020546001600160a01b031690565b600061097482610fc7565b9050806001600160a01b0316836001600160a01b031614156109e25760405162461bcd60e51b815260206004820152602160248201527f4552433732313a20617070726f76616c20746f2063757272656e74206f776e656044820152603960f91b6064820152608401610944565b336001600160a01b03821614806109fe57506109fe8133612361565b610a6b5760405162461bcd60e51b815260206004820152603860248201527f4552433732313a20617070726f76652063616c6c6572206973206e6f74206f776044820152771b995c881b9bdc88185c1c1c9bdd995908199bdc88185b1b60421b6064820152608401610944565b610a758383612545565b505050565b610a8433826125b3565b610aa05760405162461bcd60e51b815260040161094490615072565b610a7583838361267d565b60009081526008602052604090206001015490565b6000908152600a602052604090205490565b610adb82610aab565b610ae58133612816565b610a75838361287a565b6001600160a01b0381163314610b5f5760405162461bcd60e51b815260206004820152602f60248201527f416363657373436f6e74726f6c3a2063616e206f6e6c792072656e6f756e636560448201526e103937b632b9903337b91039b2b63360891b6064820152608401610944565b610b698282612900565b5050565b610b7682610fc7565b6001600160a01b0316336001600160a01b031614610ba65760405162461bcd60e51b815260040161094490614f96565b610a75838383612967565b610a7583838360405180602001604052806000815250611b1c565b610bd581610fc7565b6001600160a01b0316336001600160a01b031614610c055760405162461bcd60e51b815260040161094490614f96565b610c0e81612a2c565b50565b610c1a82610d33565b610c4c5760405162461bcd60e51b815260206004820152600360248201526227189960e91b6044820152606401610944565b6000806000610c5b8685612a44565b509250925092506000610c6d86612b71565b9050610ca98682848460600151610c84919061516a565b878560400151610c94919061516a565b878660800151610ca4919061516a565b612c60565b601754606082015160808301516040516357a5c96760e01b81529394506001600160a01b03909216926357a5c96792610ce9928b92909190600401615154565b600060405180830381600087803b158015610d0357600080fd5b505af1158015610d17573d6000803e3d6000fd5b50505050610d288989898989612c92565b505050505050505050565b60006107ff82612528565b60008181526014602052604090206005810154421015610d705760405162461bcd60e51b8152600401610944906150c3565b6001815460ff166003811115610d9657634e487b7160e01b600052602160045260246000fd5b14610dc85760405162461bcd60e51b81526020600482015260026024820152614f3560f01b6044820152606401610944565b600581015460009081526016602052604090205480610df95760405162461bcd60e51b815260040161094490615004565b6012546040516303906d2960e11b8152600481018390526000916001600160a01b031690630720da529060240160a06040518083038186803b158015610e3e57600080fd5b505afa158015610e52573d6000803e3d6000fd5b505050506040513d601f19601f82011682018060405250810190610e769190614d60565b5091935060029250610e86915050565b600684015460ff166002811115610ead57634e487b7160e01b600052602160045260246000fd5b148015610ebd5750826001015481115b80610efc57506001600684015460ff166002811115610eec57634e487b7160e01b600052602160045260246000fd5b148015610efc5750826001015481105b15610f1057610f0a84611817565b50610fc1565b825460ff19166003178355601754604051636198e33960e01b8152600481018690526001600160a01b0390911690636198e33990602401600060405180830381600087803b158015610f6157600080fd5b505af1158015610f75573d6000803e3d6000fd5b50505050610f8284612a2c565b837f5f36a4a575e512eb69d6d28c3b0ff98cca7ba50ad5bf04e14094ad1d425e0d318460040154604051610fb891815260200190565b60405180910390a25b50505050565b6000818152600260205260408120546001600160a01b0316806107ff5760405162461bcd60e51b815260206004820152602960248201527f4552433732313a206f776e657220717565727920666f72206e6f6e657869737460448201526832b73a103a37b5b2b760b91b6064820152608401610944565b60105460175460405163095ea7b360e01b81526001600160a01b039283169263095ea7b3926110769291169060001990600401614eca565b602060405180830381600087803b15801561109057600080fd5b505af11580156110a4573d6000803e3d6000fd5b505050506040513d601f19601f82011682018060405250810190610c0e9190614b57565b600080600080601260009054906101000a90046001600160a01b03166001600160a01b0316631acf55826040518163ffffffff1660e01b815260040160206040518083038186803b15801561111c57600080fd5b505afa158015611130573d6000803e3d6000fd5b505050506040513d601f19601f820116820180604052508101906111549190614be7565b60185460175460405163e39d06e960e01b8152600481018d9052602481018c9052604481018b90528915156064820152881515608482015260a481018490526001600160a01b0392831660c4820152911660e482015290915073__$b949255e90277c788dcf25edf1f9288c61$__9063e39d06e9906101040160206040518083038186803b1580156111e557600080fd5b505af41580156111f9573d6000803e3d6000fd5b505050506040513d601f19601f8201168201806040525081019061121d9190614be7565b915061122888612ed8565b9250611234828461516a565b935050955095509592505050565b6060816112765760405162461bcd60e51b81526020600482015260026024820152614e3160f01b6044820152606401610944565b816001600160401b0381111561129c57634e487b7160e01b600052604160045260246000fd5b6040519080825280602002602001820160405280156112c5578160200160208202803683370190505b50905060006112d385612b71565b905060006112e086611d5e565b905060008080805b878110156114f35760006112fa612f76565b90508088838151811061131d57634e487b7160e01b600052603260045260246000fd5b60200260200101818152505061135a8b828c8c8681811061134e57634e487b7160e01b600052603260045260246000fd5b90506020020135612f90565b6000868b8b8581811061137d57634e487b7160e01b600052603260045260246000fd5b9050602002013589604001516113939190615196565b61139d9190615182565b90506113a9818761516a565b95506000878c8c868181106113ce57634e487b7160e01b600052603260045260246000fd5b905060200201358a606001516113e49190615196565b6113ee9190615182565b90506113fa818761516a565b95506000888d8d8781811061141f57634e487b7160e01b600052603260045260246000fd5b905060200201358b608001516114359190615196565b61143f9190615182565b905061144b818761516a565b955060006040518060e001604052808c60000151600381111561147e57634e487b7160e01b600052602160045260246000fd5b81526020018c6020015181526020018581526020018481526020018381526020018c60a0015181526020018c60c0015160028111156114cd57634e487b7160e01b600052602160045260246000fd5b905290506114db85826130ba565b505050505080806114eb90615244565b9150506112e8565b50611529898684886060015161150991906151b5565b86896040015161151991906151b5565b858a60800151610ca491906151b5565b601754606082015160808301516040516357a5c96760e01b81529398506001600160a01b03909216926357a5c96792611569928e92909190600401615154565b600060405180830381600087803b15801561158357600080fd5b505af1158015611597573d6000803e3d6000fd5b5050505060005b878110156116275760006115d88883815181106115cb57634e487b7160e01b600052603260045260246000fd5b6020026020010151612b71565b90506116148883815181106115fd57634e487b7160e01b600052603260045260246000fd5b602002602001015182606001518360800151613172565b508061161f81615244565b91505061159e565b5050505050509392505050565b60006001600160a01b03821661169f5760405162461bcd60e51b815260206004820152602a60248201527f4552433732313a2062616c616e636520717565727920666f7220746865207a65604482015269726f206164647265737360b01b6064820152608401610944565b506001600160a01b031660009081526003602052604090205490565b336116c46116f6565b6001600160a01b0316146116ea5760405162461bcd60e51b81526004016109449061503d565b6116f460006131dd565b565b6006546001600160a01b031690565b60009182526008602090815260408084206001600160a01b0393909316845291905290205460ff1690565b6060600180546108149061520f565b6001600160a01b0382163314156117945760405162461bcd60e51b815260206004820152601960248201527822a9219b99189d1030b8383937bb32903a379031b0b63632b960391b6044820152606401610944565b3360008181526005602090815260408083206001600160a01b03871680855290835292819020805460ff191686151590811790915590519081529192917f17307eab39ab6107e8899845ad3d59bd9653f200f220920489ca2b5937696c31910160405180910390a35050565b6000818152600c602052604081206107ff9061322f565b600061182282610d33565b6118545760405162461bcd60e51b815260206004820152600360248201526204f31360ec1b6044820152606401610944565b600082815260146020526040902060058101544210156118865760405162461bcd60e51b8152600401610944906150c3565b6001815460ff1660038111156118ac57634e487b7160e01b600052602160045260246000fd5b146118df5760405162461bcd60e51b815260206004820152600360248201526213cc4d60ea1b6044820152606401610944565b6005810154600090815260166020526040902054806119105760405162461bcd60e51b815260040161094490615004565b6012546040516303906d2960e11b8152600481018390526000916001600160a01b031690630720da529060240160a06040518083038186803b15801561195557600080fd5b505afa158015611969573d6000803e3d6000fd5b505050506040513d601f19601f8201168201806040525081019061198d9190614d60565b509193506002925061199d915050565b600684015460ff1660028111156119c457634e487b7160e01b600052602160045260246000fd5b1415611a09578083600101541115611a045760405162461bcd60e51b81526020600482015260036024820152624f313760e81b6044820152606401610944565b611a43565b8083600101541015611a435760405162461bcd60e51b815260206004820152600360248201526209e62760eb1b6044820152606401610944565b60038301546017549094506001600160a01b03166381b34f1586611a6681610fc7565b6040516001600160e01b031960e085901b16815260048101929092526001600160a01b0316602482015260448101879052606401600060405180830381600087803b158015611ab457600080fd5b505af1158015611ac8573d6000803e3d6000fd5b50505050611ad585612a2c565b825460ff1916600217835560405184815285907e84fe51c7cb34b132b7b6eb5d5a87a489f8d6d284758d00a0402c1bad9a0def9060200160405180910390a2505050919050565b611b27335b836125b3565b611b435760405162461bcd60e51b815260040161094490615072565b610fc184848484613239565b81611b815760405162461bcd60e51b8152602060048201526002602482015261138d60f21b6044820152606401610944565b6000611b8c82612b71565b606081015160408201516080830151929350909160005b86811015611ce0576000611bdc898984818110611bd057634e487b7160e01b600052603260045260246000fd5b90506020020135612b71565b9050806060015185611bee919061516a565b9450806040015184611c00919061516a565b9350806080015183611c12919061516a565b6017549093506001600160a01b0316630dbf21b08a8a85818110611c4657634e487b7160e01b600052603260045260246000fd5b905060200201356040518263ffffffff1660e01b8152600401611c6b91815260200190565b600060405180830381600087803b158015611c8557600080fd5b505af1158015611c99573d6000803e3d6000fd5b50505050611ccd898984818110611cc057634e487b7160e01b600052603260045260246000fd5b905060200201358861326c565b5080611cd881615244565b915050611ba3565b50611cee8585858585612c60565b506017546040516357a5c96760e01b81526001600160a01b03909116906357a5c96790611d2390889087908690600401615154565b600060405180830381600087803b158015611d3d57600080fd5b505af1158015611d51573d6000803e3d6000fd5b5050505050505050505050565b6000908152600f602052604090205490565b600060026007541415611dc55760405162461bcd60e51b815260206004820152601f60248201527f5265656e7472616e637947756172643a207265656e7472616e742063616c6c006044820152606401610944565b600260075560008080611de4611ddb428b6151b5565b8c8c8b8b6110c8565b919450925090506005611df7428b6151b5565b611e01908d615196565b611e0b9190615196565b611e19846301e13380615196565b611e24906064615196565b11611e565760405162461bcd60e51b8152602060048201526002602482015261279960f11b6044820152606401610944565b6010546040516323b872dd60e01b8152336004820152306024820152604481018590526000916001600160a01b0316906323b872dd90606401602060405180830381600087803b158015611ea957600080fd5b505af1158015611ebd573d6000803e3d6000fd5b505050506040513d601f19601f82011682018060405250810190611ee19190614b57565b905080611f155760405162461bcd60e51b81526020600482015260026024820152614f3360f01b6044820152606401610944565b600189151581148015611f2a57506001891515145b80611f3c575089158015611f3c575088155b15611f45575060025b6040805160e0810190915260009080600181526020018e81526020018f81526020018f81526020018581526020018d8152602001836002811115611f9957634e487b7160e01b600052602160045260246000fd5b90529050611fa5612f76565b6040805180820182528d151581528c15156020808301918252600085815260159091529290922090518154925161ffff1990931690151561ff00191617610100921515929092029190911790559650611ffe87826130ba565b61201c87336120178a85602001518660a00151886133e8565b613526565b6120268789613549565b6000612032868b613553565b90506120478883606001518460800151613172565b336001600160a01b0316887f89f823a0225c73a75066e963ce2eea7708b57680ec86102773dbd244f5412892838a8d60405161208593929190615135565b60405180910390a35050600160075550939b9a5050505050505050505050565b60606107ff82613a14565b6000828152600c602052604081206120c89083613b76565b9392505050565b6120d882610aab565b6120e28133612816565b610a758383612900565b6012546040516303906d2960e11b815260048101849052600091829182916001600160a01b031690630720da529060240160a06040518083038186803b15801561213557600080fd5b505afa158015612149573d6000803e3d6000fd5b505050506040513d601f19601f8201168201806040525081019061216d9190614d60565b50600088815260146020526040902060058101549396509094509250508281106121be5760405162461bcd60e51b8152602060048201526002602482015261433160f01b6044820152606401610944565b60008181526016602052604090205480612309576121dd6001896151b5565b90505b85612309576012546040516303906d2960e11b8152600481018390526000916001600160a01b031690630720da529060240160a06040518083038186803b15801561222a57600080fd5b505afa15801561223e573d6000803e3d6000fd5b505050506040513d601f19601f820116820180604052508101906122629190614d60565b50935050505080600014156122b857600082116122a65760405162461bcd60e51b8152602060048201526002602482015261433360f01b6044820152606401610944565b6122b16001836151b5565b9150612303565b828111156122ed5760405162461bcd60e51b815260206004820152600260248201526110cd60f21b6044820152606401610944565b6000838152601660205260409020829055600196505b506121e0565b505050505092915050565b8060005b81811015610fc15761234f84848381811061234357634e487b7160e01b600052603260045260246000fd5b90506020020135610d3e565b8061235981615244565b915050612318565b6001600160a01b03918216600090815260056020908152604080832093909416825291909152205460ff1690565b336123986116f6565b6001600160a01b0316146123be5760405162461bcd60e51b81526004016109449061503d565b6001600160a01b0381166124235760405162461bcd60e51b815260206004820152602660248201527f4f776e61626c653a206e6577206f776e657220697320746865207a65726f206160448201526564647265737360d01b6064820152608401610944565b610c0e816131dd565b6000612436612f76565b90506000806000806124488787612a44565b935093509350935060006040518060e001604052808360000151600381111561248157634e487b7160e01b600052602160045260246000fd5b8152602001836020015181526020018681526020018481526020018581526020018360a0015181526020018360c0015160028111156124d057634e487b7160e01b600052602160045260246000fd5b905290506124de86826130ba565b6124e9868486613172565b6124f68a8a8a898b612c92565b5050505050949350505050565b60006001600160e01b03198216637965db0b60e01b14806107ff57506107ff82613b82565b6000908152600260205260409020546001600160a01b0316151590565b600081815260046020526040902080546001600160a01b0319166001600160a01b038416908117909155819061257a82610fc7565b6001600160a01b03167f8c5be1e5ebec7d5bd14f71427d1e84f3dd0314c0f7b2291e5b200ac8c7c3b92560405160405180910390a45050565b60006125be82612528565b61261f5760405162461bcd60e51b815260206004820152602c60248201527f4552433732313a206f70657261746f7220717565727920666f72206e6f6e657860448201526b34b9ba32b73a103a37b5b2b760a11b6064820152608401610944565b600061262a83610fc7565b9050806001600160a01b0316846001600160a01b031614806126655750836001600160a01b031661265a846108dc565b6001600160a01b0316145b8061267557506126758185612361565b949350505050565b826001600160a01b031661269082610fc7565b6001600160a01b0316146126f85760405162461bcd60e51b815260206004820152602960248201527f4552433732313a207472616e73666572206f6620746f6b656e2074686174206960448201526839903737ba1037bbb760b91b6064820152608401610944565b6001600160a01b03821661275a5760405162461bcd60e51b8152602060048201526024808201527f4552433732313a207472616e7366657220746f20746865207a65726f206164646044820152637265737360e01b6064820152608401610944565b612765838383613bd2565b612770600082612545565b6001600160a01b03831660009081526003602052604081208054600192906127999084906151b5565b90915550506001600160a01b03821660009081526003602052604081208054600192906127c790849061516a565b909155505060008181526002602052604080822080546001600160a01b0319166001600160a01b03868116918217909255915184939187169160008051602061532783398151915291a4505050565b6128208282611705565b610b6957612838816001600160a01b03166014613bea565b612843836020613bea565b604051602001612854929190614e1e565b60408051601f198184030181529082905262461bcd60e51b825261094491600401614f83565b6128848282611705565b610b695760008281526008602090815260408083206001600160a01b03851684529091529020805460ff191660011790556128bc3390565b6001600160a01b0316816001600160a01b0316837f2f8788117e7eff1d82e926ec794901d17c78024a50270940304540a733656f0d60405160405180910390a45050565b61290a8282611705565b15610b695760008281526008602090815260408083206001600160a01b0385168085529252808320805460ff1916905551339285917ff6391f5c32d9c69d2a47ea670b442974b53935d1edc7fd64eb21e047a839171b9190a45050565b6000828152600b602090815260408083206001600160a01b03871684526001019091529020546129c9576000828152600b602090815260408220805460018101825590835291200180546001600160a01b0319166001600160a01b0385161790555b6000828152600b602090815260408083206001600160a01b0387168085526001909101835292819020849055518381528492917f8a156bd946dc74ec284c5f4b365ce75ef2a5b9d9462b4cdb1d2400cabf136541910160405180910390a3505050565b6000818152600a6020526040812055610c0e81613dcb565b6000806000612a516146b3565b612a5a86612b71565b90506000612a6787611d5e565b905080868360400151612a7a9190615196565b612a849190615182565b945080868360800151612a979190615196565b612aa19190615182565b935080868360600151612ab49190615196565b612abe9190615182565b9250612af58783858560600151612ad591906151b5565b888660400151612ae591906151b5565b888760800151610ca491906151b5565b601754606082015160808301516040516357a5c96760e01b81529395506001600160a01b03909216926357a5c96792612b35928c92909190600401615154565b600060405180830381600087803b158015612b4f57600080fd5b505af1158015612b63573d6000803e3d6000fd5b505050505092959194509250565b612b796146b3565b60008281526014602052604090819020815160e081019092528054829060ff166003811115612bb857634e487b7160e01b600052602160045260246000fd5b6003811115612bd757634e487b7160e01b600052602160045260246000fd5b81526001820154602082015260028083015460408301526003830154606083015260048301546080830152600583015460a0830152600683015460c09092019160ff1690811115612c3857634e487b7160e01b600052602160045260246000fd5b6002811115612c5757634e487b7160e01b600052602160045260246000fd5b90525092915050565b612c686146b3565b5060608401839052604084018290526080840181905283612c8986826130ba565b95945050505050565b612c9b83610fc7565b6001600160a01b0316856001600160a01b031614612ce05760405162461bcd60e51b81526020600482015260026024820152614e3960f01b6044820152606401610944565b6001600160a01b038416612d1c5760405162461bcd60e51b815260206004820152600360248201526204e31360ec1b6044820152606401610944565b336001600160a01b03861614801590612d3c5750612d3a8533612361565b155b15612d87576000838152600b60209081526040808320338452600101909152902054612d699082906151b5565b6000848152600b602090815260408083203384526001019091529020555b6000838152600f6020526040902054612da19082906151b5565b6000848152600f6020526040902055612db982612528565b612dd657612dd18483612dcb86610ac0565b84613e5d565b612e7e565b836001600160a01b0316612de983610fc7565b6001600160a01b031614612e255760405162461bcd60e51b81526020600482015260036024820152624e313160e81b6044820152606401610944565b612e2e82610ac0565b612e3784610ac0565b14612e545760405162461bcd60e51b815260040161094490615021565b6000828152600f6020526040902054612e6e90829061516a565b6000838152600f60205260409020555b6000838152600a60205260408082205484835291819020919091555183906001600160a01b03808716919088169060008051602061534783398151915290612ec99087908790614f75565b60405180910390a45050505050565b60006064601860009054906101000a90046001600160a01b03166001600160a01b031663f3fa34956040518163ffffffff1660e01b815260040160206040518083038186803b158015612f2a57600080fd5b505afa158015612f3e573d6000803e3d6000fd5b505050506040513d601f19601f82011682018060405250810190612f629190614be7565b612f6c9084615196565b6107ff9190615182565b6013805460009182612f8783615244565b91905055905090565b612f9a33846125b3565b612fcb5760405162461bcd60e51b8152602060048201526002602482015261271960f11b6044820152606401610944565b612fd482612528565b156130065760405162461bcd60e51b81526020600482015260026024820152614e3360f01b6044820152606401610944565b6130258261301385610ac0565b6000918252600a602052604090912055565b6000838152600f602052604090205461303f9082906151b5565b6000848152600f602052604081209190915561305a84610fc7565b9050613070818461306a87610ac0565b85613e5d565b83816001600160a01b03167ff66885c33d648fcd0d97e0f2a18e30102169c22763473af0fb716f11b4a17dd685856040516130ac929190614f75565b60405180910390a350505050565b60008281526014602052604090208151815483929190829060ff191660018360038111156130f857634e487b7160e01b600052602160045260246000fd5b02179055506020820151816001015560408201518160020155606082015181600301556080820151816004015560a0820151816005015560c08201518160060160006101000a81548160ff0219169083600281111561316757634e487b7160e01b600052602160045260246000fd5b021790555050505050565b60175460405163edd0d42160e01b81526001600160a01b039091169063edd0d421906131a690869086908690600401615154565b600060405180830381600087803b1580156131c057600080fd5b505af11580156131d4573d6000803e3d6000fd5b50505050505050565b600680546001600160a01b038381166001600160a01b0319831681179093556040519116919082907f8be0079c531659141344cd1fd0a4f28419497f9722a3daafe3b4186f6b6457e090600090a35050565b60006107ff825490565b61324484848461267d565b61325084848484613ee7565b610fc15760405162461bcd60e51b815260040161094490614fb2565b61327533611b21565b6132a65760405162461bcd60e51b81526020600482015260026024820152614e3560f01b6044820152606401610944565b808214156132db5760405162461bcd60e51b8152602060048201526002602482015261271b60f11b6044820152606401610944565b6132e481610ac0565b6132ed83610ac0565b1461330a5760405162461bcd60e51b815260040161094490615021565b600061331583610fc7565b905061332082610fc7565b6001600160a01b0316816001600160a01b0316146133655760405162461bcd60e51b815260206004820152600260248201526109c760f31b6044820152606401610944565b6000838152600f602052604080822054848352912054613385908261516a565b6000848152600f602052604090205561339d84612a2c565b8284836001600160a01b03167fb3ce851d16b3bbec3774d5631a3893dfa2a80e067cfad265dd594402ac3d6096846040516133da91815260200190565b60405180910390a450505050565b600083838387604051602001613401949392919061510b565b60408051808303601f19018152918152815160209283012060008181526019909352912060020154909150610100900460ff16156134675760405162461bcd60e51b8152602060048201526003602482015262138c4d60ea1b6044820152606401610944565b604051806080016040528085815260200184815260200183600281111561349e57634e487b7160e01b600052602160045260246000fd5b815260016020918201819052600084815260198352604090819020845181559284015183830155830151600280840180549293909260ff19169184908111156134f757634e487b7160e01b600052602160045260246000fd5b021790555060609190910151600290910180549115156101000261ff0019909216919091179055949350505050565b6000838152600a60205260409020819055600d54610a7590839085908490613e5d565b610b698282613ff4565b60006064601860009054906101000a90046001600160a01b03166001600160a01b031663ca535c3b6040518163ffffffff1660e01b815260040160206040518083038186803b1580156135a557600080fd5b505afa1580156135b9573d6000803e3d6000fd5b505050506040513d601f19601f820116820180604052508101906135dd9190614be7565b6135e79085615196565b6135f19190615182565b905080156136f25760105460185460408051630605cc7760e21b815290516001600160a01b039384169363a9059cbb93169163181731dc916004808301926020929190829003018186803b15801561364857600080fd5b505afa15801561365c573d6000803e3d6000fd5b505050506040513d601f19601f82011682018060405250810190613680919061489e565b836040518363ffffffff1660e01b815260040161369e929190614eca565b602060405180830381600087803b1580156136b857600080fd5b505af11580156136cc573d6000803e3d6000fd5b505050506040513d601f19601f820116820180604052508101906136f09190614b57565b505b60006136fe82856151b5565b90508015613a0d5760185460408051634905129f60e11b815290516000926001600160a01b03169163920a253e916004808301926020929190829003018186803b15801561374b57600080fd5b505afa15801561375f573d6000803e3d6000fd5b505050506040513d601f19601f820116820180604052508101906137839190614be7565b1180156137a957506137936116f6565b6001600160a01b0316836001600160a01b031614155b80156137be57506001600160a01b0383163314155b156139385760006064601860009054906101000a90046001600160a01b03166001600160a01b031663920a253e6040518163ffffffff1660e01b815260040160206040518083038186803b15801561381557600080fd5b505afa158015613829573d6000803e3d6000fd5b505050506040513d601f19601f8201168201806040525081019061384d9190614be7565b6138579084615196565b6138619190615182565b905061386d81836151b5565b60105460405163a9059cbb60e01b81529193506001600160a01b03169063a9059cbb906138a09087908590600401614eca565b602060405180830381600087803b1580156138ba57600080fd5b505af11580156138ce573d6000803e3d6000fd5b505050506040513d601f19601f820116820180604052508101906138f29190614b57565b50836001600160a01b03167f2fc41b7d7df3272c17d9b581fcf235307bc027599c6ed68442c4100bd3a841988260405161392e91815260200190565b60405180910390a2505b6010546001600160a01b031663a9059cbb6139516116f6565b836040518363ffffffff1660e01b815260040161396f929190614eca565b602060405180830381600087803b15801561398957600080fd5b505af115801561399d573d6000803e3d6000fd5b505050506040513d601f19601f820116820180604052508101906139c19190614b57565b506139ca6116f6565b6001600160a01b03167ff0f0487d8990103573e0e5cf4e87e101e2a1ba84c733c556b7a5807e570e5d4c82604051613a0491815260200190565b60405180910390a25b5092915050565b6060613a1f82612528565b613a855760405162461bcd60e51b815260206004820152603160248201527f45524337323155524953746f726167653a2055524920717565727920666f72206044820152703737b732bc34b9ba32b73a103a37b5b2b760791b6064820152608401610944565b60008281526009602052604081208054613a9e9061520f565b80601f0160208091040260200160405190810160405280929190818152602001828054613aca9061520f565b8015613b175780601f10613aec57610100808354040283529160200191613b17565b820191906000526020600020905b815481529060010190602001808311613afa57829003601f168201915b505050505090506000613b2861407f565b9050805160001415613b3b575092915050565b815115613b6d578082604051602001613b55929190614def565b60405160208183030381529060405292505050919050565b6126758461409f565b60006120c88383614169565b60006001600160e01b031982166380ac58cd60e01b1480613bb357506001600160e01b03198216635b5e139f60e01b145b806107ff57506301ffc9a760e01b6001600160e01b03198316146107ff565b6001600160a01b03831615610a7557610a75816141a1565b60606000613bf9836002615196565b613c0490600261516a565b6001600160401b03811115613c2957634e487b7160e01b600052604160045260246000fd5b6040519080825280601f01601f191660200182016040528015613c53576020820181803683370190505b509050600360fc1b81600081518110613c7c57634e487b7160e01b600052603260045260246000fd5b60200101906001600160f81b031916908160001a905350600f60fb1b81600181518110613cb957634e487b7160e01b600052603260045260246000fd5b60200101906001600160f81b031916908160001a9053506000613cdd846002615196565b613ce890600161516a565b90505b6001811115613d7c576f181899199a1a9b1b9c1cb0b131b232b360811b85600f1660108110613d2a57634e487b7160e01b600052603260045260246000fd5b1a60f81b828281518110613d4e57634e487b7160e01b600052603260045260246000fd5b60200101906001600160f81b031916908160001a90535060049490941c93613d75816151f8565b9050613ceb565b5083156120c85760405162461bcd60e51b815260206004820181905260248201527f537472696e67733a20686578206c656e67746820696e73756666696369656e746044820152606401610944565b6000613dd682610fc7565b90506000613de383610ac0565b6000848152600f6020908152604080832054848452600c90925290912091925090613e0e9085614255565b506000848152600f6020526040812055613e2784614261565b8360006001600160a01b0316846001600160a01b03166000805160206153478339815191526000856040516133da929190614f75565b613e6683612528565b613e8e57613e7484846142f6565b6000828152600c60205260409020613e8c9084614422565b505b6000838152600f6020526040902054613ea890829061516a565b6000848152600f60205260408082209290925590516001600160a01b038616908290600080516020615347833981519152906133da9088908790614f75565b60006001600160a01b0384163b15613fe957604051630a85bd0160e11b81526001600160a01b0385169063150b7a0290613f2b903390899088908890600401614e8d565b602060405180830381600087803b158015613f4557600080fd5b505af1925050508015613f75575060408051601f3d908101601f19168201909252613f7291810190614bcb565b60015b613fcf573d808015613fa3576040519150601f19603f3d011682016040523d82523d6000602084013e613fa8565b606091505b508051613fc75760405162461bcd60e51b815260040161094490614fb2565b805181602001fd5b6001600160e01b031916630a85bd0160e11b149050612675565b506001949350505050565b613ffd82612528565b6140605760405162461bcd60e51b815260206004820152602e60248201527f45524337323155524953746f726167653a2055524920736574206f66206e6f6e60448201526d32bc34b9ba32b73a103a37b5b2b760911b6064820152608401610944565b60008281526009602090815260409091208251610a759284019061470f565b606060405180606001604052806022815260200161530560229139905090565b60606140aa82612528565b61410e5760405162461bcd60e51b815260206004820152602f60248201527f4552433732314d657461646174613a2055524920717565727920666f72206e6f60448201526e3732bc34b9ba32b73a103a37b5b2b760891b6064820152608401610944565b600061411861407f565b9050600081511161413857604051806020016040528060008152506120c8565b806141428461442e565b604051602001614153929190614def565b6040516020818303038152906040529392505050565b600082600001828154811061418e57634e487b7160e01b600052603260045260246000fd5b9060005260206000200154905092915050565b6000818152600b60205260408120905b8154811015610a75578160010160008360000183815481106141e357634e487b7160e01b600052603260045260246000fd5b60009182526020808320909101546001600160a01b03168352820192909252604001812055815482908290811061422a57634e487b7160e01b600052603260045260246000fd5b600091825260209091200180546001600160a01b03191690558061424d81615244565b9150506141b1565b60006120c88383614547565b600061426c82610fc7565b905061427a81600084613bd2565b614285600083612545565b6001600160a01b03811660009081526003602052604081208054600192906142ae9084906151b5565b909155505060008281526002602052604080822080546001600160a01b0319169055518391906001600160a01b03841690600080516020615327833981519152908390a45050565b6001600160a01b03821661434c5760405162461bcd60e51b815260206004820181905260248201527f4552433732313a206d696e7420746f20746865207a65726f20616464726573736044820152606401610944565b61435581612528565b156143a15760405162461bcd60e51b815260206004820152601c60248201527b115490cdcc8c4e881d1bdad95b88185b1c9958591e481b5a5b9d195960221b6044820152606401610944565b6143ad60008383613bd2565b6001600160a01b03821660009081526003602052604081208054600192906143d690849061516a565b909155505060008181526002602052604080822080546001600160a01b0319166001600160a01b0386169081179091559051839290600080516020615327833981519152908290a45050565b60006120c88383614664565b6060816144525750506040805180820190915260018152600360fc1b602082015290565b8160005b811561447c578061446681615244565b91506144759050600a83615182565b9150614456565b6000816001600160401b038111156144a457634e487b7160e01b600052604160045260246000fd5b6040519080825280601f01601f1916602001820160405280156144ce576020820181803683370190505b5090505b8415612675576144e36001836151b5565b91506144f0600a8661525f565b6144fb90603061516a565b60f81b81838151811061451e57634e487b7160e01b600052603260045260246000fd5b60200101906001600160f81b031916908160001a905350614540600a86615182565b94506144d2565b6000818152600183016020526040812054801561465a57600061456b6001836151b5565b855490915060009061457f906001906151b5565b90508181146146005760008660000182815481106145ad57634e487b7160e01b600052603260045260246000fd5b90600052602060002001549050808760000184815481106145de57634e487b7160e01b600052603260045260246000fd5b6000918252602080832090910192909255918252600188019052604090208390555b855486908061461f57634e487b7160e01b600052603160045260246000fd5b6001900381819060005260206000200160009055905585600101600086815260200190815260200160002060009055600193505050506107ff565b60009150506107ff565b60008181526001830160205260408120546146ab575081546001818101845560008481526020808220909301849055845484825282860190935260409020919091556107ff565b5060006107ff565b6040805160e08101909152806000815260200160008152602001600081526020016000815260200160008152602001600081526020016000600281111561470a57634e487b7160e01b600052602160045260246000fd5b905290565b82805461471b9061520f565b90600052602060002090601f01602090048101928261473d5760008555614783565b82601f1061475657805160ff1916838001178555614783565b82800160010185558215614783579182015b82811115614783578251825591602001919060010190614768565b5061478f929150614793565b5090565b5b8082111561478f5760008155600101614794565b60006001600160401b03808411156147c2576147c26152b5565b604051601f8501601f19908116603f011681019082821181831017156147ea576147ea6152b5565b8160405280935085815286868601111561480357600080fd5b858560208301376000602087830101525050509392505050565b60008083601f84011261482e578182fd5b5081356001600160401b03811115614844578182fd5b6020830191508360208260051b850101111561485f57600080fd5b9250929050565b80516001600160501b038116811461487d57600080fd5b919050565b600060208284031215614893578081fd5b81356120c8816152cb565b6000602082840312156148af578081fd5b81516120c8816152cb565b600080604083850312156148cc578081fd5b82356148d7816152cb565b915060208301356148e7816152cb565b809150509250929050565b600080600060608486031215614906578081fd5b8335614911816152cb565b92506020840135614921816152cb565b929592945050506040919091013590565b60008060008060808587031215614947578081fd5b8435614952816152cb565b93506020850135614962816152cb565b92506040850135915060608501356001600160401b03811115614983578182fd5b8501601f81018713614993578182fd5b6149a2878235602084016147a8565b91505092959194509250565b600080600080608085870312156149c3578384fd5b84356149ce816152cb565b935060208501356149de816152cb565b93969395505050506040820135916060013590565b600080600080600060a08688031215614a0a578081fd5b8535614a15816152cb565b94506020860135614a25816152cb565b94979496505050506040830135926060810135926080909101359150565b60008060408385031215614a55578182fd5b8235614a60816152cb565b915060208301356148e7816152e0565b60008060408385031215614a82578182fd5b8235614a8d816152cb565b946020939093013593505050565b600080600060608486031215614aaf578081fd5b8335614aba816152cb565b95602085013595506040909401359392505050565b60008060208385031215614ae1578182fd5b82356001600160401b03811115614af6578283fd5b614b028582860161481d565b90969095509350505050565b600080600060408486031215614b22578081fd5b83356001600160401b03811115614b37578182fd5b614b438682870161481d565b909790965060209590950135949350505050565b600060208284031215614b68578081fd5b81516120c8816152e0565b600060208284031215614b84578081fd5b5035919050565b60008060408385031215614b9d578182fd5b8235915060208301356148e7816152cb565b600060208284031215614bc0578081fd5b81356120c8816152ee565b600060208284031215614bdc578081fd5b81516120c8816152ee565b600060208284031215614bf8578081fd5b5051919050565b600080600060408486031215614c13578081fd5b8335925060208401356001600160401b03811115614c2f578182fd5b614c3b8682870161481d565b9497909650939450505050565b60008060408385031215614c5a578182fd5b50508035926020909101359150565b600080600080600060a08688031215614c80578283fd5b8535945060208601359350604086013592506060860135614ca0816152e0565b91506080860135614cb0816152e0565b809150509295509295909350565b600080600080600080600060e0888a031215614cd8578485fd5b8735965060208801359550604088013594506060880135614cf8816152e0565b93506080880135614d08816152e0565b925060a0880135614d18816152cb565b915060c08801356001600160401b03811115614d32578182fd5b8801601f81018a13614d42578182fd5b614d518a8235602084016147a8565b91505092959891949750929550565b600080600080600060a08688031215614d77578283fd5b614d8086614866565b9450602086015193506040860151925060608601519150614da360808701614866565b90509295509295909350565b60008151808452614dc78160208601602086016151cc565b601f01601f19169290920160200192915050565b60038110614deb57614deb61529f565b9052565b60008351614e018184602088016151cc565b835190830190614e158183602088016151cc565b01949350505050565b76020b1b1b2b9b9a1b7b73a3937b61d1030b1b1b7bab73a1604d1b815260008351614e508160178501602088016151cc565b7001034b99036b4b9b9b4b733903937b6329607d1b6017918401918201528351614e818160288401602088016151cc565b01602801949350505050565b6001600160a01b0385811682528416602082015260408101839052608060608201819052600090614ec090830184614daf565b9695505050505050565b6001600160a01b03929092168252602082015260400190565b6020808252825182820181905260009190848201906040850190845b81811015614f1b57835183529284019291840191600101614eff565b50909695505050505050565b60e0810160048910614f3b57614f3b61529f565b8882528760208301528660408301528560608301528460808301528360a0830152614f6960c0830184614ddb565b98975050505050505050565b918252602082015260400190565b6020815260006120c86020830184614daf565b6020808252600290820152614f3960f01b604082015260600190565b60208082526032908201527f4552433732313a207472616e7366657220746f206e6f6e20455243373231526560408201527131b2b4bb32b91034b6b83632b6b2b73a32b960711b606082015260800190565b60208082526003908201526204f32360ec1b604082015260600190565b6020808252600290820152614e3760f01b604082015260600190565b6020808252818101527f4f776e61626c653a2063616c6c6572206973206e6f7420746865206f776e6572604082015260600190565b60208082526031908201527f4552433732313a207472616e736665722063616c6c6572206973206e6f74206f6040820152701ddb995c881b9bdc88185c1c1c9bdd9959607a1b606082015260800190565b60208082526002908201526113cd60f21b604082015260600190565b84815260208101849052608081016150fa6040830185614ddb565b821515606083015295945050505050565b84815260208101849052608081016151266040830185614ddb565b82606083015295945050505050565b838152826020820152606060408201526000612c896060830184614daf565b9283526020830191909152604082015260600190565b6000821982111561517d5761517d615273565b500190565b60008261519157615191615289565b500490565b60008160001904831182151516156151b0576151b0615273565b500290565b6000828210156151c7576151c7615273565b500390565b60005b838110156151e75781810151838201526020016151cf565b83811115610fc15750506000910152565b60008161520757615207615273565b506000190190565b600181811c9082168061522357607f821691505b602082108114156108d657634e487b7160e01b600052602260045260246000fd5b600060001982141561525857615258615273565b5060010190565b60008261526e5761526e615289565b500690565b634e487b7160e01b600052601160045260246000fd5b634e487b7160e01b600052601260045260246000fd5b634e487b7160e01b600052602160045260246000fd5b634e487b7160e01b600052604160045260246000fd5b6001600160a01b0381168114610c0e57600080fd5b8015158114610c0e57600080fd5b6001600160e01b031981168114610c0e57600080fdfe68747470733a2f2f676174657761792e70696e6174612e636c6f75642f697066732fddf252ad1be2c89b69c2b068fc378daa952ba7f163c4a11628f55a4df523b3ef823a343d1c899e61a4db12247636a6882bf1fefae78bef39170f8d0f5b53e456a2646970667358221220bbfc5cf1a091751adf9131d55d647943bf7f219e8246d894d470099b86f629ad64736f6c63430008040033","language":"Solidity","natspec":{"methods":{"approve(address,uint256)":{"details":"See {IERC721-approve}."},"balanceOf(address)":{"details":"See {IERC721-balanceOf}."},"create(uint256,uint256,uint256,bool,bool,address,string)":{"notice":"Creates a new option","params":{"amount":"Option amount in tokenX","referrer":"Referrer address"},"returns":{"optionID":"Created option's ID"}},"exercise(uint256)":{"notice":"Exercises an option if it was ITM at the time of expiry","params":{"optionID":"ID of your option"},"returns":{"profit":"Profit sent to the user"}},"fees(uint256,uint256,uint256,bool,bool)":{"notice":"Used for getting the option's price using blackscholes","params":{"amount":"Option amount","isAbove":"whether the price will stay above this strike or not","isYes":"whether the option isAbove or not","period":"Option period in seconds","strike":"Strike price of the option"},"returns":{"premium":"Amount that covers the price difference in the ITM options","settlementFee":"Amount to be distributed to the Buffer token holders","total":"Total price to be paid"}},"getApproved(uint256)":{"details":"See {IERC721-getApproved}."},"getRoleAdmin(bytes32)":{"details":"Returns the admin role that controls `role`. See {grantRole} and {revokeRole}. To change a role's admin, use {_setRoleAdmin}."},"grantRole(bytes32,address)":{"details":"Grants `role` to `account`. If `account` had not been already granted `role`, emits a {RoleGranted} event. Requirements: - the caller must have ``role``'s admin role."},"hasRole(bytes32,address)":{"details":"Returns `true` if `account` has been granted `role`."},"isApprovedForAll(address,address)":{"details":"See {IERC721-isApprovedForAll}."},"merge(uint256[],uint256)":{"notice":"Merges the options","params":{"optionIDs":"An array of the optionsIds to be merged","targetOptionID":"OptionId to be merged into"}},"name()":{"details":"See {IERC721Metadata-name}."},"owner()":{"details":"Returns the address of the current owner."},"ownerOf(uint256)":{"details":"See {IERC721-ownerOf}."},"renounceOwnership()":{"details":"Leaves the contract without owner. It will not be possible to call `onlyOwner` functions anymore. Can only be called by the current owner. NOTE: Renouncing ownership will leave the contract without an owner, thereby removing any functionality that is only available to the owner."},"renounceRole(bytes32,address)":{"details":"Revokes `role` from the calling account. Roles are often managed via {grantRole} and {revokeRole}: this function's purpose is to provide a mechanism for accounts to lose their privileges if they are compromised (such as when a trusted device is misplaced). If the calling account had been granted `role`, emits a {RoleRevoked} event. Requirements: - the caller must be `account`."},"revokeRole(bytes32,address)":{"details":"Revokes `role` from `account`. If `account` had been granted `role`, emits a {RoleRevoked} event. Requirements: - the caller must have ``role``'s admin role."},"safeTransferFrom(address,address,uint256)":{"details":"See {IERC721-safeTransferFrom}."},"safeTransferFrom(address,address,uint256,bytes)":{"details":"See {IERC721-safeTransferFrom}."},"setApprovalForAll(address,bool)":{"details":"See {IERC721-setApprovalForAll}."},"setRoundIDForExpiry(uint256,uint256)":{"notice":"Sets the expiry price in the oracle","details":"a roundId must be provided to confirm price validity, which is the first Chainlink price provided after the expiryTimestamp","params":{"roundId":"the first roundId after expiryTimestamp"}},"split(uint256,uint256[])":{"notice":"Splits the option","params":{"optionID":"OptionId to be splitted","splitUnits_":"Units to be splitted into"},"returns":{"newOptionIDs":"An array of the splitted options"}},"symbol()":{"details":"See {IERC721Metadata-symbol}."},"tokenURI(uint256)":{"details":"Template code provided by OpenZepplin Code Wizard"},"transferFrom(address,address,uint256)":{"details":"See {IERC721-transferFrom}."},"transferFrom(address,address,uint256,uint256)":{"notice":"Transfer part of units of a option to target address.","params":{"from_":"Address of the option sender","optionID":"Id of the option to transfer","to_":"Address of the option recipient","transferUnits_":"Amount of units to transfer"}},"transferFrom(address,address,uint256,uint256,uint256)":{"notice":"Transfer part of units of a option to another option.","params":{"from_":"Address of the option sender","optionID":"Id of the option to transfer","targetOptionID":"Id of the option to receive","to_":"Address of the option recipient","transferUnits_":"Amount of units to transfer"}},"transferOwnership(address)":{"details":"Transfers ownership of the contract to a new account (`newOwner`). Can only be called by the current owner."},"unlock(uint256)":{"notice":"Unlocks the locked funds if the option was OTM at the time of expiry otherwise exercises it","params":{"optionID":"ID of the option"}},"unlockAll(uint256[])":{"notice":"Unlocks an array of options","params":{"optionIDs":"array of options"}},"approvePoolToTransferTokenX()":{"notice":"Call this to set the max approval for tokenX transfers from the options to pool"}},"kind":"dev","notice":"Buffer TokenX Options Contract","version":1,"author":"Heisenberg","title":"Buffer TokenX Bidirectional (Call and Put) Options"},"opcodes":"PUSH1 0x80 PUSH1 0x40 MSTORE CALLVALUE DUP1 ISZERO PUSH2 0x10 JUMPI PUSH1 0x0 DUP1 REVERT JUMPDEST POP PUSH1 0x4 CALLDATASIZE LT PUSH2 0x293 JUMPI PUSH1 0x0 CALLDATALOAD PUSH1 0xE0 SHR DUP1 PUSH4 0x1FFC9A7 EQ PUSH2 0x298 JUMPI DUP1 PUSH4 0x5271A2A EQ PUSH2 0x2C0 JUMPI DUP1 PUSH4 0x6517A29 EQ PUSH2 0x2D5 JUMPI DUP1 PUSH4 0x6FDDE03 EQ PUSH2 0x2EC JUMPI DUP1 PUSH4 0x76D948C EQ PUSH2 0x301 JUMPI DUP1 PUSH4 0x81812FC EQ PUSH2 0x314 JUMPI DUP1 PUSH4 0x95EA7B3 EQ PUSH2 0x33F JUMPI DUP1 PUSH4 0x16DC165B EQ PUSH2 0x354 JUMPI DUP1 PUSH4 0x16F0115B EQ PUSH2 0x367 JUMPI DUP1 PUSH4 0x23B872DD EQ PUSH2 0x37A JUMPI DUP1 PUSH4 0x248A9CA3 EQ PUSH2 0x38D JUMPI DUP1 PUSH4 0x263F3E7E EQ PUSH2 0x3A0 JUMPI DUP1 PUSH4 0x2F2FF15D EQ PUSH2 0x3B3 JUMPI DUP1 PUSH4 0x36568ABE EQ PUSH2 0x3C6 JUMPI DUP1 PUSH4 0x409E2205 EQ PUSH2 0x3D9 JUMPI DUP1 PUSH4 0x426A8493 EQ PUSH2 0x43C JUMPI DUP1 PUSH4 0x42842E0E EQ PUSH2 0x44F JUMPI DUP1 PUSH4 0x42966C68 EQ PUSH2 0x462 JUMPI DUP1 PUSH4 0x4AED53C2 EQ PUSH2 0x475 JUMPI DUP1 PUSH4 0x4F558E79 EQ PUSH2 0x488 JUMPI DUP1 PUSH4 0x6198E339 EQ PUSH2 0x49B JUMPI DUP1 PUSH4 0x6352211E EQ PUSH2 0x4AE JUMPI DUP1 PUSH4 0x645734E6 EQ PUSH2 0x4C1 JUMPI DUP1 PUSH4 0x67807F7D EQ PUSH2 0x4C9 JUMPI DUP1 PUSH4 0x689AB5AC EQ PUSH2 0x4EB JUMPI DUP1 PUSH4 0x69C67247 EQ PUSH2 0x52E JUMPI DUP1 PUSH4 0x70A08231 EQ PUSH2 0x54E JUMPI DUP1 PUSH4 0x715018A6 EQ PUSH2 0x561 JUMPI DUP1 PUSH4 0x75794A3C EQ PUSH2 0x569 JUMPI DUP1 PUSH4 0x78C533CE EQ PUSH2 0x572 JUMPI DUP1 PUSH4 0x79502C55 EQ PUSH2 0x592 JUMPI DUP1 PUSH4 0x841EDC0E EQ PUSH2 0x5A5 JUMPI DUP1 PUSH4 0x8A584118 EQ PUSH2 0x5C5 JUMPI DUP1 PUSH4 0x8DA5CB5B EQ PUSH2 0x610 JUMPI DUP1 PUSH4 0x91D14854 EQ PUSH2 0x618 JUMPI DUP1 PUSH4 0x95D89B41 EQ PUSH2 0x62B JUMPI DUP1 PUSH4 0xA217FDDF EQ PUSH2 0x633 JUMPI DUP1 PUSH4 0xA22CB465 EQ PUSH2 0x63B JUMPI DUP1 PUSH4 0xA6D14C02 EQ PUSH2 0x64E JUMPI DUP1 PUSH4 0xA8800425 EQ PUSH2 0x656 JUMPI DUP1 PUSH4 0xB07F0A41 EQ PUSH2 0x669 JUMPI DUP1 PUSH4 0xB888879E EQ PUSH2 0x67C JUMPI DUP1 PUSH4 0xB88D4FDE EQ PUSH2 0x68F JUMPI DUP1 PUSH4 0xBBE33EA5 EQ PUSH2 0x6A2 JUMPI DUP1 PUSH4 0xBECEF607 EQ PUSH2 0x6B5 JUMPI DUP1 PUSH4 0xC0D720BB EQ PUSH2 0x6C8 JUMPI DUP1 PUSH4 0xC87B56DD EQ PUSH2 0x6DB JUMPI DUP1 PUSH4 0xD149CC30 EQ PUSH2 0x6EE JUMPI DUP1 PUSH4 0xD547741F EQ PUSH2 0x701 JUMPI DUP1 PUSH4 0xD5A0E673 EQ PUSH2 0x714 JUMPI DUP1 PUSH4 0xD67A6B70 EQ PUSH2 0x734 JUMPI DUP1 PUSH4 0xDBA34E97 EQ PUSH2 0x747 JUMPI DUP1 PUSH4 0xE342B598 EQ PUSH2 0x76E JUMPI DUP1 PUSH4 0xE345E0BC EQ PUSH2 0x781 JUMPI DUP1 PUSH4 0xE985E9C5 EQ PUSH2 0x7BB JUMPI DUP1 PUSH4 0xF2FDE38B EQ PUSH2 0x7CE JUMPI DUP1 PUSH4 0xFE99049A EQ PUSH2 0x7E1 JUMPI JUMPDEST PUSH1 0x0 DUP1 REVERT JUMPDEST PUSH2 0x2AB PUSH2 0x2A6 CALLDATASIZE PUSH1 0x4 PUSH2 0x4BAF JUMP JUMPDEST PUSH2 0x7F4 JUMP JUMPDEST PUSH1 0x40 MLOAD SWAP1 ISZERO ISZERO DUP2 MSTORE PUSH1 0x20 ADD JUMPDEST PUSH1 0x40 MLOAD DUP1 SWAP2 SUB SWAP1 RETURN JUMPDEST PUSH1 0xE SLOAD PUSH1 0x40 MLOAD PUSH1 0xFF SWAP1 SWAP2 AND DUP2 MSTORE PUSH1 0x20 ADD PUSH2 0x2B7 JUMP JUMPDEST PUSH2 0x2DE PUSH1 0xD SLOAD DUP2 JUMP JUMPDEST PUSH1 0x40 MLOAD SWAP1 DUP2 MSTORE PUSH1 0x20 ADD PUSH2 0x2B7 JUMP JUMPDEST PUSH2 0x2F4 PUSH2 0x805 JUMP JUMPDEST PUSH1 0x40 MLOAD PUSH2 0x2B7 SWAP2 SWAP1 PUSH2 0x4F83 JUMP JUMPDEST PUSH2 0x2DE PUSH2 0x30F CALLDATASIZE PUSH1 0x4 PUSH2 0x4B73 JUMP JUMPDEST PUSH2 0x897 JUMP JUMPDEST PUSH2 0x327 PUSH2 0x322 CALLDATASIZE PUSH1 0x4 PUSH2 0x4B73 JUMP JUMPDEST PUSH2 0x8DC JUMP JUMPDEST PUSH1 0x40 MLOAD PUSH1 0x1 PUSH1 0x1 PUSH1 0xA0 SHL SUB SWAP1 SWAP2 AND DUP2 MSTORE PUSH1 0x20 ADD PUSH2 0x2B7 JUMP JUMPDEST PUSH2 0x352 PUSH2 0x34D CALLDATASIZE PUSH1 0x4 PUSH2 0x4A70 JUMP JUMPDEST PUSH2 0x969 JUMP JUMPDEST STOP JUMPDEST PUSH1 0x10 SLOAD PUSH2 0x327 SWAP1 PUSH1 0x1 PUSH1 0x1 PUSH1 0xA0 SHL SUB AND DUP2 JUMP JUMPDEST PUSH1 0x17 SLOAD PUSH2 0x327 SWAP1 PUSH1 0x1 PUSH1 0x1 PUSH1 0xA0 SHL SUB AND DUP2 JUMP JUMPDEST PUSH2 0x352 PUSH2 0x388 CALLDATASIZE PUSH1 0x4 PUSH2 0x48F2 JUMP JUMPDEST PUSH2 0xA7A JUMP JUMPDEST PUSH2 0x2DE PUSH2 0x39B CALLDATASIZE PUSH1 0x4 PUSH2 0x4B73 JUMP JUMPDEST PUSH2 0xAAB JUMP JUMPDEST PUSH2 0x2DE PUSH2 0x3AE CALLDATASIZE PUSH1 0x4 PUSH2 0x4B73 JUMP JUMPDEST PUSH2 0xAC0 JUMP JUMPDEST PUSH2 0x352 PUSH2 0x3C1 CALLDATASIZE PUSH1 0x4 PUSH2 0x4B8B JUMP JUMPDEST PUSH2 0xAD2 JUMP JUMPDEST PUSH2 0x352 PUSH2 0x3D4 CALLDATASIZE PUSH1 0x4 PUSH2 0x4B8B JUMP JUMPDEST PUSH2 0xAEF JUMP JUMPDEST PUSH2 0x429 PUSH2 0x3E7 CALLDATASIZE PUSH1 0x4 PUSH2 0x4B73 JUMP JUMPDEST PUSH1 0x14 PUSH1 0x20 MSTORE PUSH1 0x0 SWAP1 DUP2 MSTORE PUSH1 0x40 SWAP1 KECCAK256 DUP1 SLOAD PUSH1 0x1 DUP3 ADD SLOAD PUSH1 0x2 DUP4 ADD SLOAD PUSH1 0x3 DUP5 ADD SLOAD PUSH1 0x4 DUP6 ADD SLOAD PUSH1 0x5 DUP7 ADD SLOAD PUSH1 0x6 SWAP1 SWAP7 ADD SLOAD PUSH1 0xFF SWAP6 DUP7 AND SWAP7 SWAP5 SWAP6 SWAP4 SWAP5 SWAP3 SWAP4 SWAP2 SWAP3 SWAP2 AND DUP8 JUMP JUMPDEST PUSH1 0x40 MLOAD PUSH2 0x2B7 SWAP8 SWAP7 SWAP6 SWAP5 SWAP4 SWAP3 SWAP2 SWAP1 PUSH2 0x4F27 JUMP JUMPDEST PUSH2 0x352 PUSH2 0x44A CALLDATASIZE PUSH1 0x4 PUSH2 0x4A9B JUMP JUMPDEST PUSH2 0xB6D JUMP JUMPDEST PUSH2 0x352 PUSH2 0x45D CALLDATASIZE PUSH1 0x4 PUSH2 0x48F2 JUMP JUMPDEST PUSH2 0xBB1 JUMP JUMPDEST PUSH2 0x352 PUSH2 0x470 CALLDATASIZE PUSH1 0x4 PUSH2 0x4B73 JUMP JUMPDEST PUSH2 0xBCC JUMP JUMPDEST PUSH2 0x352 PUSH2 0x483 CALLDATASIZE PUSH1 0x4 PUSH2 0x49F3 JUMP JUMPDEST PUSH2 0xC11 JUMP JUMPDEST PUSH2 0x2AB PUSH2 0x496 CALLDATASIZE PUSH1 0x4 PUSH2 0x4B73 JUMP JUMPDEST PUSH2 0xD33 JUMP JUMPDEST PUSH2 0x352 PUSH2 0x4A9 CALLDATASIZE PUSH1 0x4 PUSH2 0x4B73 JUMP JUMPDEST PUSH2 0xD3E JUMP JUMPDEST PUSH2 0x327 PUSH2 0x4BC CALLDATASIZE PUSH1 0x4 PUSH2 0x4B73 JUMP JUMPDEST PUSH2 0xFC7 JUMP JUMPDEST PUSH2 0x352 PUSH2 0x103E JUMP JUMPDEST PUSH2 0x4DC PUSH2 0x4D7 CALLDATASIZE PUSH1 0x4 PUSH2 0x4C69 JUMP JUMPDEST PUSH2 0x10C8 JUMP JUMPDEST PUSH1 0x40 MLOAD PUSH2 0x2B7 SWAP4 SWAP3 SWAP2 SWAP1 PUSH2 0x5154 JUMP JUMPDEST PUSH2 0x517 PUSH2 0x4F9 CALLDATASIZE PUSH1 0x4 PUSH2 0x4B73 JUMP JUMPDEST PUSH1 0x15 PUSH1 0x20 MSTORE PUSH1 0x0 SWAP1 DUP2 MSTORE PUSH1 0x40 SWAP1 KECCAK256 SLOAD PUSH1 0xFF DUP1 DUP3 AND SWAP2 PUSH2 0x100 SWAP1 DIV AND DUP3 JUMP JUMPDEST PUSH1 0x40 DUP1 MLOAD SWAP3 ISZERO ISZERO DUP4 MSTORE SWAP1 ISZERO ISZERO PUSH1 0x20 DUP4 ADD MSTORE ADD PUSH2 0x2B7 JUMP JUMPDEST PUSH2 0x541 PUSH2 0x53C CALLDATASIZE PUSH1 0x4 PUSH2 0x4BFF JUMP JUMPDEST PUSH2 0x1242 JUMP JUMPDEST PUSH1 0x40 MLOAD PUSH2 0x2B7 SWAP2 SWAP1 PUSH2 0x4EE3 JUMP JUMPDEST PUSH2 0x2DE PUSH2 0x55C CALLDATASIZE PUSH1 0x4 PUSH2 0x4882 JUMP JUMPDEST PUSH2 0x1634 JUMP JUMPDEST PUSH2 0x352 PUSH2 0x16BB JUMP JUMPDEST PUSH2 0x2DE PUSH1 0x13 SLOAD DUP2 JUMP JUMPDEST PUSH2 0x2DE PUSH2 0x580 CALLDATASIZE PUSH1 0x4 PUSH2 0x4B73 JUMP JUMPDEST PUSH1 0xF PUSH1 0x20 MSTORE PUSH1 0x0 SWAP1 DUP2 MSTORE PUSH1 0x40 SWAP1 KECCAK256 SLOAD DUP2 JUMP JUMPDEST PUSH1 0x18 SLOAD PUSH2 0x327 SWAP1 PUSH1 0x1 PUSH1 0x1 PUSH1 0xA0 SHL SUB AND DUP2 JUMP JUMPDEST PUSH2 0x2DE PUSH2 0x5B3 CALLDATASIZE PUSH1 0x4 PUSH2 0x4B73 JUMP JUMPDEST PUSH1 0x16 PUSH1 0x20 MSTORE PUSH1 0x0 SWAP1 DUP2 MSTORE PUSH1 0x40 SWAP1 KECCAK256 SLOAD DUP2 JUMP JUMPDEST PUSH2 0x600 PUSH2 0x5D3 CALLDATASIZE PUSH1 0x4 PUSH2 0x4B73 JUMP JUMPDEST PUSH1 0x19 PUSH1 0x20 MSTORE PUSH1 0x0 SWAP1 DUP2 MSTORE PUSH1 0x40 SWAP1 KECCAK256 DUP1 SLOAD PUSH1 0x1 DUP3 ADD SLOAD PUSH1 0x2 SWAP1 SWAP3 ADD SLOAD SWAP1 SWAP2 SWAP1 PUSH1 0xFF DUP1 DUP3 AND SWAP2 PUSH2 0x100 SWAP1 DIV AND DUP5 JUMP JUMPDEST PUSH1 0x40 MLOAD PUSH2 0x2B7 SWAP5 SWAP4 SWAP3 SWAP2 SWAP1 PUSH2 0x50DF JUMP JUMPDEST PUSH2 0x327 PUSH2 0x16F6 JUMP JUMPDEST PUSH2 0x2AB PUSH2 0x626 CALLDATASIZE PUSH1 0x4 PUSH2 0x4B8B JUMP JUMPDEST PUSH2 0x1705 JUMP JUMPDEST PUSH2 0x2F4 PUSH2 0x1730 JUMP JUMPDEST PUSH2 0x2DE PUSH1 0x0 DUP2 JUMP JUMPDEST PUSH2 0x352 PUSH2 0x649 CALLDATASIZE PUSH1 0x4 PUSH2 0x4A43 JUMP JUMPDEST PUSH2 0x173F JUMP JUMPDEST PUSH2 0x2DE PUSH1 0x5 DUP2 JUMP JUMPDEST PUSH2 0x2DE PUSH2 0x664 CALLDATASIZE PUSH1 0x4 PUSH2 0x4B73 JUMP JUMPDEST PUSH2 0x1800 JUMP JUMPDEST PUSH2 0x2DE PUSH2 0x677 CALLDATASIZE PUSH1 0x4 PUSH2 0x4B73 JUMP JUMPDEST PUSH2 0x1817 JUMP JUMPDEST PUSH1 0x12 SLOAD PUSH2 0x327 SWAP1 PUSH1 0x1 PUSH1 0x1 PUSH1 0xA0 SHL SUB AND DUP2 JUMP JUMPDEST PUSH2 0x352 PUSH2 0x69D CALLDATASIZE PUSH1 0x4 PUSH2 0x4932 JUMP JUMPDEST PUSH2 0x1B1C JUMP JUMPDEST PUSH2 0x352 PUSH2 0x6B0 CALLDATASIZE PUSH1 0x4 PUSH2 0x4B0E JUMP JUMPDEST PUSH2 0x1B4F JUMP JUMPDEST PUSH2 0x2DE PUSH2 0x6C3 CALLDATASIZE PUSH1 0x4 PUSH2 0x4B73 JUMP JUMPDEST PUSH2 0x1D5E JUMP JUMPDEST PUSH2 0x2DE PUSH2 0x6D6 CALLDATASIZE PUSH1 0x4 PUSH2 0x4CBE JUMP JUMPDEST PUSH2 0x1D70 JUMP JUMPDEST PUSH2 0x2F4 PUSH2 0x6E9 CALLDATASIZE PUSH1 0x4 PUSH2 0x4B73 JUMP JUMPDEST PUSH2 0x20A5 JUMP JUMPDEST PUSH2 0x2DE PUSH2 0x6FC CALLDATASIZE PUSH1 0x4 PUSH2 0x4C48 JUMP JUMPDEST PUSH2 0x20B0 JUMP JUMPDEST PUSH2 0x352 PUSH2 0x70F CALLDATASIZE PUSH1 0x4 PUSH2 0x4B8B JUMP JUMPDEST PUSH2 0x20CF JUMP JUMPDEST PUSH2 0x2DE PUSH2 0x722 CALLDATASIZE PUSH1 0x4 PUSH2 0x4B73 JUMP JUMPDEST PUSH1 0xA PUSH1 0x20 MSTORE PUSH1 0x0 SWAP1 DUP2 MSTORE PUSH1 0x40 SWAP1 KECCAK256 SLOAD DUP2 JUMP JUMPDEST PUSH2 0x2AB PUSH2 0x742 CALLDATASIZE PUSH1 0x4 PUSH2 0x4C48 JUMP JUMPDEST PUSH2 0x20EC JUMP JUMPDEST PUSH2 0x2DE PUSH32 0xDEB3B49547F710C56A925B6E16E3557A50FAB4DD8F243BC314F3AFBA2054EC5B DUP2 JUMP JUMPDEST PUSH2 0x352 PUSH2 0x77C CALLDATASIZE PUSH1 0x4 PUSH2 0x4ACF JUMP JUMPDEST PUSH2 0x2314 JUMP JUMPDEST PUSH2 0x2DE PUSH2 0x78F CALLDATASIZE PUSH1 0x4 PUSH2 0x4B8B JUMP JUMPDEST PUSH1 0x0 DUP3 DUP2 MSTORE PUSH1 0xB PUSH1 0x20 SWAP1 DUP2 MSTORE PUSH1 0x40 DUP1 DUP4 KECCAK256 PUSH1 0x1 PUSH1 0x1 PUSH1 0xA0 SHL SUB DUP6 AND DUP5 MSTORE PUSH1 0x1 ADD SWAP1 SWAP2 MSTORE SWAP1 KECCAK256 SLOAD SWAP3 SWAP2 POP POP JUMP JUMPDEST PUSH2 0x2AB PUSH2 0x7C9 CALLDATASIZE PUSH1 0x4 PUSH2 0x48BA JUMP JUMPDEST PUSH2 0x2361 JUMP JUMPDEST PUSH2 0x352 PUSH2 0x7DC CALLDATASIZE PUSH1 0x4 PUSH2 0x4882 JUMP JUMPDEST PUSH2 0x238F JUMP JUMPDEST PUSH2 0x2DE PUSH2 0x7EF CALLDATASIZE PUSH1 0x4 PUSH2 0x49AE JUMP JUMPDEST PUSH2 0x242C JUMP JUMPDEST PUSH1 0x0 PUSH2 0x7FF DUP3 PUSH2 0x2503 JUMP JUMPDEST SWAP3 SWAP2 POP POP JUMP JUMPDEST PUSH1 0x60 PUSH1 0x0 DUP1 SLOAD PUSH2 0x814 SWAP1 PUSH2 0x520F JUMP JUMPDEST DUP1 PUSH1 0x1F ADD PUSH1 0x20 DUP1 SWAP2 DIV MUL PUSH1 0x20 ADD PUSH1 0x40 MLOAD SWAP1 DUP2 ADD PUSH1 0x40 MSTORE DUP1 SWAP3 SWAP2 SWAP1 DUP2 DUP2 MSTORE PUSH1 0x20 ADD DUP3 DUP1 SLOAD PUSH2 0x840 SWAP1 PUSH2 0x520F JUMP JUMPDEST DUP1 ISZERO PUSH2 0x88D JUMPI DUP1 PUSH1 0x1F LT PUSH2 0x862 JUMPI PUSH2 0x100 DUP1 DUP4 SLOAD DIV MUL DUP4 MSTORE SWAP2 PUSH1 0x20 ADD SWAP2 PUSH2 0x88D JUMP JUMPDEST DUP3 ADD SWAP2 SWAP1 PUSH1 0x0 MSTORE PUSH1 0x20 PUSH1 0x0 KECCAK256 SWAP1 JUMPDEST DUP2 SLOAD DUP2 MSTORE SWAP1 PUSH1 0x1 ADD SWAP1 PUSH1 0x20 ADD DUP1 DUP4 GT PUSH2 0x870 JUMPI DUP3 SWAP1 SUB PUSH1 0x1F AND DUP3 ADD SWAP2 JUMPDEST POP POP POP POP POP SWAP1 POP SWAP1 JUMP JUMPDEST PUSH1 0x0 DUP1 JUMPDEST PUSH2 0x8A4 DUP4 PUSH2 0x1800 JUMP JUMPDEST DUP2 LT ISZERO PUSH2 0x8D6 JUMPI PUSH2 0x8B8 PUSH2 0x6C3 DUP5 DUP4 PUSH2 0x20B0 JUMP JUMPDEST PUSH2 0x8C2 SWAP1 DUP4 PUSH2 0x516A JUMP JUMPDEST SWAP2 POP DUP1 PUSH2 0x8CE DUP2 PUSH2 0x5244 JUMP JUMPDEST SWAP2 POP POP PUSH2 0x89B JUMP JUMPDEST POP SWAP2 SWAP1 POP JUMP JUMPDEST PUSH1 0x0 PUSH2 0x8E7 DUP3 PUSH2 0x2528 JUMP JUMPDEST PUSH2 0x94D JUMPI PUSH1 0x40 MLOAD PUSH3 0x461BCD PUSH1 0xE5 SHL DUP2 MSTORE PUSH1 0x20 PUSH1 0x4 DUP3 ADD MSTORE PUSH1 0x2C PUSH1 0x24 DUP3 ADD MSTORE PUSH32 0x4552433732313A20617070726F76656420717565727920666F72206E6F6E6578 PUSH1 0x44 DUP3 ADD MSTORE PUSH12 0x34B9BA32B73A103A37B5B2B7 PUSH1 0xA1 SHL PUSH1 0x64 DUP3 ADD MSTORE PUSH1 0x84 ADD JUMPDEST PUSH1 0x40 MLOAD DUP1 SWAP2 SUB SWAP1 REVERT JUMPDEST POP PUSH1 0x0 SWAP1 DUP2 MSTORE PUSH1 0x4 PUSH1 0x20 MSTORE PUSH1 0x40 SWAP1 KECCAK256 SLOAD PUSH1 0x1 PUSH1 0x1 PUSH1 0xA0 SHL SUB AND SWAP1 JUMP JUMPDEST PUSH1 0x0 PUSH2 0x974 DUP3 PUSH2 0xFC7 JUMP JUMPDEST SWAP1 POP DUP1 PUSH1 0x1 PUSH1 0x1 PUSH1 0xA0 SHL SUB AND DUP4 PUSH1 0x1 PUSH1 0x1 PUSH1 0xA0 SHL SUB AND EQ ISZERO PUSH2 0x9E2 JUMPI PUSH1 0x40 MLOAD PUSH3 0x461BCD PUSH1 0xE5 SHL DUP2 MSTORE PUSH1 0x20 PUSH1 0x4 DUP3 ADD MSTORE PUSH1 0x21 PUSH1 0x24 DUP3 ADD MSTORE PUSH32 0x4552433732313A20617070726F76616C20746F2063757272656E74206F776E65 PUSH1 0x44 DUP3 ADD MSTORE PUSH1 0x39 PUSH1 0xF9 SHL PUSH1 0x64 DUP3 ADD MSTORE PUSH1 0x84 ADD PUSH2 0x944 JUMP JUMPDEST CALLER PUSH1 0x1 PUSH1 0x1 PUSH1 0xA0 SHL SUB DUP3 AND EQ DUP1 PUSH2 0x9FE JUMPI POP PUSH2 0x9FE DUP2 CALLER PUSH2 0x2361 JUMP JUMPDEST PUSH2 0xA6B JUMPI PUSH1 0x40 MLOAD PUSH3 0x461BCD PUSH1 0xE5 SHL DUP2 MSTORE PUSH1 0x20 PUSH1 0x4 DUP3 ADD MSTORE PUSH1 0x38 PUSH1 0x24 DUP3 ADD MSTORE PUSH32 0x4552433732313A20617070726F76652063616C6C6572206973206E6F74206F77 PUSH1 0x44 DUP3 ADD MSTORE PUSH24 0x1B995C881B9BDC88185C1C1C9BDD995908199BDC88185B1B PUSH1 0x42 SHL PUSH1 0x64 DUP3 ADD MSTORE PUSH1 0x84 ADD PUSH2 0x944 JUMP JUMPDEST PUSH2 0xA75 DUP4 DUP4 PUSH2 0x2545 JUMP JUMPDEST POP POP POP JUMP JUMPDEST PUSH2 0xA84 CALLER DUP3 PUSH2 0x25B3 JUMP JUMPDEST PUSH2 0xAA0 JUMPI PUSH1 0x40 MLOAD PUSH3 0x461BCD PUSH1 0xE5 SHL DUP2 MSTORE PUSH1 0x4 ADD PUSH2 0x944 SWAP1 PUSH2 0x5072 JUMP JUMPDEST PUSH2 0xA75 DUP4 DUP4 DUP4 PUSH2 0x267D JUMP JUMPDEST PUSH1 0x0 SWAP1 DUP2 MSTORE PUSH1 0x8 PUSH1 0x20 MSTORE PUSH1 0x40 SWAP1 KECCAK256 PUSH1 0x1 ADD SLOAD SWAP1 JUMP JUMPDEST PUSH1 0x0 SWAP1 DUP2 MSTORE PUSH1 0xA PUSH1 0x20 MSTORE PUSH1 0x40 SWAP1 KECCAK256 SLOAD SWAP1 JUMP JUMPDEST PUSH2 0xADB DUP3 PUSH2 0xAAB JUMP JUMPDEST PUSH2 0xAE5 DUP2 CALLER PUSH2 0x2816 JUMP JUMPDEST PUSH2 0xA75 DUP4 DUP4 PUSH2 0x287A JUMP JUMPDEST PUSH1 0x1 PUSH1 0x1 PUSH1 0xA0 SHL SUB DUP2 AND CALLER EQ PUSH2 0xB5F JUMPI PUSH1 0x40 MLOAD PUSH3 0x461BCD PUSH1 0xE5 SHL DUP2 MSTORE PUSH1 0x20 PUSH1 0x4 DUP3 ADD MSTORE PUSH1 0x2F PUSH1 0x24 DUP3 ADD MSTORE PUSH32 0x416363657373436F6E74726F6C3A2063616E206F6E6C792072656E6F756E6365 PUSH1 0x44 DUP3 ADD MSTORE PUSH15 0x103937B632B9903337B91039B2B633 PUSH1 0x89 SHL PUSH1 0x64 DUP3 ADD MSTORE PUSH1 0x84 ADD PUSH2 0x944 JUMP JUMPDEST PUSH2 0xB69 DUP3 DUP3 PUSH2 0x2900 JUMP JUMPDEST POP POP JUMP JUMPDEST PUSH2 0xB76 DUP3 PUSH2 0xFC7 JUMP JUMPDEST PUSH1 0x1 PUSH1 0x1 PUSH1 0xA0 SHL SUB AND CALLER PUSH1 0x1 PUSH1 0x1 PUSH1 0xA0 SHL SUB AND EQ PUSH2 0xBA6 JUMPI PUSH1 0x40 MLOAD PUSH3 0x461BCD PUSH1 0xE5 SHL DUP2 MSTORE PUSH1 0x4 ADD PUSH2 0x944 SWAP1 PUSH2 0x4F96 JUMP JUMPDEST PUSH2 0xA75 DUP4 DUP4 DUP4 PUSH2 0x2967 JUMP JUMPDEST PUSH2 0xA75 DUP4 DUP4 DUP4 PUSH1 0x40 MLOAD DUP1 PUSH1 0x20 ADD PUSH1 0x40 MSTORE DUP1 PUSH1 0x0 DUP2 MSTORE POP PUSH2 0x1B1C JUMP JUMPDEST PUSH2 0xBD5 DUP2 PUSH2 0xFC7 JUMP JUMPDEST PUSH1 0x1 PUSH1 0x1 PUSH1 0xA0 SHL SUB AND CALLER PUSH1 0x1 PUSH1 0x1 PUSH1 0xA0 SHL SUB AND EQ PUSH2 0xC05 JUMPI PUSH1 0x40 MLOAD PUSH3 0x461BCD PUSH1 0xE5 SHL DUP2 MSTORE PUSH1 0x4 ADD PUSH2 0x944 SWAP1 PUSH2 0x4F96 JUMP JUMPDEST PUSH2 0xC0E DUP2 PUSH2 0x2A2C JUMP JUMPDEST POP JUMP JUMPDEST PUSH2 0xC1A DUP3 PUSH2 0xD33 JUMP JUMPDEST PUSH2 0xC4C JUMPI PUSH1 0x40 MLOAD PUSH3 0x461BCD PUSH1 0xE5 SHL DUP2 MSTORE PUSH1 0x20 PUSH1 0x4 DUP3 ADD MSTORE PUSH1 0x3 PUSH1 0x24 DUP3 ADD MSTORE PUSH3 0x271899 PUSH1 0xE9 SHL PUSH1 0x44 DUP3 ADD MSTORE PUSH1 0x64 ADD PUSH2 0x944 JUMP JUMPDEST PUSH1 0x0 DUP1 PUSH1 0x0 PUSH2 0xC5B DUP7 DUP6 PUSH2 0x2A44 JUMP JUMPDEST POP SWAP3 POP SWAP3 POP SWAP3 POP PUSH1 0x0 PUSH2 0xC6D DUP7 PUSH2 0x2B71 JUMP JUMPDEST SWAP1 POP PUSH2 0xCA9 DUP7 DUP3 DUP5 DUP5 PUSH1 0x60 ADD MLOAD PUSH2 0xC84 SWAP2 SWAP1 PUSH2 0x516A JUMP JUMPDEST DUP8 DUP6 PUSH1 0x40 ADD MLOAD PUSH2 0xC94 SWAP2 SWAP1 PUSH2 0x516A JUMP JUMPDEST DUP8 DUP7 PUSH1 0x80 ADD MLOAD PUSH2 0xCA4 SWAP2 SWAP1 PUSH2 0x516A JUMP JUMPDEST PUSH2 0x2C60 JUMP JUMPDEST PUSH1 0x17 SLOAD PUSH1 0x60 DUP3 ADD MLOAD PUSH1 0x80 DUP4 ADD MLOAD PUSH1 0x40 MLOAD PUSH4 0x57A5C967 PUSH1 0xE0 SHL DUP2 MSTORE SWAP4 SWAP5 POP PUSH1 0x1 PUSH1 0x1 PUSH1 0xA0 SHL SUB SWAP1 SWAP3 AND SWAP3 PUSH4 0x57A5C967 SWAP3 PUSH2 0xCE9 SWAP3 DUP12 SWAP3 SWAP1 SWAP2 SWAP1 PUSH1 0x4 ADD PUSH2 0x5154 JUMP JUMPDEST PUSH1 0x0 PUSH1 0x40 MLOAD DUP1 DUP4 SUB DUP2 PUSH1 0x0 DUP8 DUP1 EXTCODESIZE ISZERO DUP1 ISZERO PUSH2 0xD03 JUMPI PUSH1 0x0 DUP1 REVERT JUMPDEST POP GAS CALL ISZERO DUP1 ISZERO PUSH2 0xD17 JUMPI RETURNDATASIZE PUSH1 0x0 DUP1 RETURNDATACOPY RETURNDATASIZE PUSH1 0x0 REVERT JUMPDEST POP POP POP POP PUSH2 0xD28 DUP10 DUP10 DUP10 DUP10 DUP10 PUSH2 0x2C92 JUMP JUMPDEST POP POP POP POP POP POP POP POP POP JUMP JUMPDEST PUSH1 0x0 PUSH2 0x7FF DUP3 PUSH2 0x2528 JUMP JUMPDEST PUSH1 0x0 DUP2 DUP2 MSTORE PUSH1 0x14 PUSH1 0x20 MSTORE PUSH1 0x40 SWAP1 KECCAK256 PUSH1 0x5 DUP2 ADD SLOAD TIMESTAMP LT ISZERO PUSH2 0xD70 JUMPI PUSH1 0x40 MLOAD PUSH3 0x461BCD PUSH1 0xE5 SHL DUP2 MSTORE PUSH1 0x4 ADD PUSH2 0x944 SWAP1 PUSH2 0x50C3 JUMP JUMPDEST PUSH1 0x1 DUP2 SLOAD PUSH1 0xFF AND PUSH1 0x3 DUP2 GT ISZERO PUSH2 0xD96 JUMPI PUSH4 0x4E487B71 PUSH1 0xE0 SHL PUSH1 0x0 MSTORE PUSH1 0x21 PUSH1 0x4 MSTORE PUSH1 0x24 PUSH1 0x0 REVERT JUMPDEST EQ PUSH2 0xDC8 JUMPI PUSH1 0x40 MLOAD PUSH3 0x461BCD PUSH1 0xE5 SHL DUP2 MSTORE PUSH1 0x20 PUSH1 0x4 DUP3 ADD MSTORE PUSH1 0x2 PUSH1 0x24 DUP3 ADD MSTORE PUSH2 0x4F35 PUSH1 0xF0 SHL PUSH1 0x44 DUP3 ADD MSTORE PUSH1 0x64 ADD PUSH2 0x944 JUMP JUMPDEST PUSH1 0x5 DUP2 ADD SLOAD PUSH1 0x0 SWAP1 DUP2 MSTORE PUSH1 0x16 PUSH1 0x20 MSTORE PUSH1 0x40 SWAP1 KECCAK256 SLOAD DUP1 PUSH2 0xDF9 JUMPI PUSH1 0x40 MLOAD PUSH3 0x461BCD PUSH1 0xE5 SHL DUP2 MSTORE PUSH1 0x4 ADD PUSH2 0x944 SWAP1 PUSH2 0x5004 JUMP JUMPDEST PUSH1 0x12 SLOAD PUSH1 0x40 MLOAD PUSH4 0x3906D29 PUSH1 0xE1 SHL DUP2 MSTORE PUSH1 0x4 DUP2 ADD DUP4 SWAP1 MSTORE PUSH1 0x0 SWAP2 PUSH1 0x1 PUSH1 0x1 PUSH1 0xA0 SHL SUB AND SWAP1 PUSH4 0x720DA52 SWAP1 PUSH1 0x24 ADD PUSH1 0xA0 PUSH1 0x40 MLOAD DUP1 DUP4 SUB DUP2 DUP7 DUP1 EXTCODESIZE ISZERO DUP1 ISZERO PUSH2 0xE3E JUMPI PUSH1 0x0 DUP1 REVERT JUMPDEST POP GAS STATICCALL ISZERO DUP1 ISZERO PUSH2 0xE52 JUMPI RETURNDATASIZE PUSH1 0x0 DUP1 RETURNDATACOPY RETURNDATASIZE PUSH1 0x0 REVERT JUMPDEST POP POP POP POP PUSH1 0x40 MLOAD RETURNDATASIZE PUSH1 0x1F NOT PUSH1 0x1F DUP3 ADD AND DUP3 ADD DUP1 PUSH1 0x40 MSTORE POP DUP2 ADD SWAP1 PUSH2 0xE76 SWAP2 SWAP1 PUSH2 0x4D60 JUMP JUMPDEST POP SWAP2 SWAP4 POP PUSH1 0x2 SWAP3 POP PUSH2 0xE86 SWAP2 POP POP JUMP JUMPDEST PUSH1 0x6 DUP5 ADD SLOAD PUSH1 0xFF AND PUSH1 0x2 DUP2 GT ISZERO PUSH2 0xEAD JUMPI PUSH4 0x4E487B71 PUSH1 0xE0 SHL PUSH1 0x0 MSTORE PUSH1 0x21 PUSH1 0x4 MSTORE PUSH1 0x24 PUSH1 0x0 REVERT JUMPDEST EQ DUP1 ISZERO PUSH2 0xEBD JUMPI POP DUP3 PUSH1 0x1 ADD SLOAD DUP2 GT JUMPDEST DUP1 PUSH2 0xEFC JUMPI POP PUSH1 0x1 PUSH1 0x6 DUP5 ADD SLOAD PUSH1 0xFF AND PUSH1 0x2 DUP2 GT ISZERO PUSH2 0xEEC JUMPI PUSH4 0x4E487B71 PUSH1 0xE0 SHL PUSH1 0x0 MSTORE PUSH1 0x21 PUSH1 0x4 MSTORE PUSH1 0x24 PUSH1 0x0 REVERT JUMPDEST EQ DUP1 ISZERO PUSH2 0xEFC JUMPI POP DUP3 PUSH1 0x1 ADD SLOAD DUP2 LT JUMPDEST ISZERO PUSH2 0xF10 JUMPI PUSH2 0xF0A DUP5 PUSH2 0x1817 JUMP JUMPDEST POP PUSH2 0xFC1 JUMP JUMPDEST DUP3 SLOAD PUSH1 0xFF NOT AND PUSH1 0x3 OR DUP4 SSTORE PUSH1 0x17 SLOAD PUSH1 0x40 MLOAD PUSH4 0x6198E339 PUSH1 0xE0 SHL DUP2 MSTORE PUSH1 0x4 DUP2 ADD DUP7 SWAP1 MSTORE PUSH1 0x1 PUSH1 0x1 PUSH1 0xA0 SHL SUB SWAP1 SWAP2 AND SWAP1 PUSH4 0x6198E339 SWAP1 PUSH1 0x24 ADD PUSH1 0x0 PUSH1 0x40 MLOAD DUP1 DUP4 SUB DUP2 PUSH1 0x0 DUP8 DUP1 EXTCODESIZE ISZERO DUP1 ISZERO PUSH2 0xF61 JUMPI PUSH1 0x0 DUP1 REVERT JUMPDEST POP GAS CALL ISZERO DUP1 ISZERO PUSH2 0xF75 JUMPI RETURNDATASIZE PUSH1 0x0 DUP1 RETURNDATACOPY RETURNDATASIZE PUSH1 0x0 REVERT JUMPDEST POP POP POP POP PUSH2 0xF82 DUP5 PUSH2 0x2A2C JUMP JUMPDEST DUP4 PUSH32 0x5F36A4A575E512EB69D6D28C3B0FF98CCA7BA50AD5BF04E14094AD1D425E0D31 DUP5 PUSH1 0x4 ADD SLOAD PUSH1 0x40 MLOAD PUSH2 0xFB8 SWAP2 DUP2 MSTORE PUSH1 0x20 ADD SWAP1 JUMP JUMPDEST PUSH1 0x40 MLOAD DUP1 SWAP2 SUB SWAP1 LOG2 JUMPDEST POP POP POP POP JUMP JUMPDEST PUSH1 0x0 DUP2 DUP2 MSTORE PUSH1 0x2 PUSH1 0x20 MSTORE PUSH1 0x40 DUP2 KECCAK256 SLOAD PUSH1 0x1 PUSH1 0x1 PUSH1 0xA0 SHL SUB AND DUP1 PUSH2 0x7FF JUMPI PUSH1 0x40 MLOAD PUSH3 0x461BCD PUSH1 0xE5 SHL DUP2 MSTORE PUSH1 0x20 PUSH1 0x4 DUP3 ADD MSTORE PUSH1 0x29 PUSH1 0x24 DUP3 ADD MSTORE PUSH32 0x4552433732313A206F776E657220717565727920666F72206E6F6E6578697374 PUSH1 0x44 DUP3 ADD MSTORE PUSH9 0x32B73A103A37B5B2B7 PUSH1 0xB9 SHL PUSH1 0x64 DUP3 ADD MSTORE PUSH1 0x84 ADD PUSH2 0x944 JUMP JUMPDEST PUSH1 0x10 SLOAD PUSH1 0x17 SLOAD PUSH1 0x40 MLOAD PUSH4 0x95EA7B3 PUSH1 0xE0 SHL DUP2 MSTORE PUSH1 0x1 PUSH1 0x1 PUSH1 0xA0 SHL SUB SWAP3 DUP4 AND SWAP3 PUSH4 0x95EA7B3 SWAP3 PUSH2 0x1076 SWAP3 SWAP2 AND SWAP1 PUSH1 0x0 NOT SWAP1 PUSH1 0x4 ADD PUSH2 0x4ECA JUMP JUMPDEST PUSH1 0x20 PUSH1 0x40 MLOAD DUP1 DUP4 SUB DUP2 PUSH1 0x0 DUP8 DUP1 EXTCODESIZE ISZERO DUP1 ISZERO PUSH2 0x1090 JUMPI PUSH1 0x0 DUP1 REVERT JUMPDEST POP GAS CALL ISZERO DUP1 ISZERO PUSH2 0x10A4 JUMPI RETURNDATASIZE PUSH1 0x0 DUP1 RETURNDATACOPY RETURNDATASIZE PUSH1 0x0 REVERT JUMPDEST POP POP POP POP PUSH1 0x40 MLOAD RETURNDATASIZE PUSH1 0x1F NOT PUSH1 0x1F DUP3 ADD AND DUP3 ADD DUP1 PUSH1 0x40 MSTORE POP DUP2 ADD SWAP1 PUSH2 0xC0E SWAP2 SWAP1 PUSH2 0x4B57 JUMP JUMPDEST PUSH1 0x0 DUP1 PUSH1 0x0 DUP1 PUSH1 0x12 PUSH1 0x0 SWAP1 SLOAD SWAP1 PUSH2 0x100 EXP SWAP1 DIV PUSH1 0x1 PUSH1 0x1 PUSH1 0xA0 SHL SUB AND PUSH1 0x1 PUSH1 0x1 PUSH1 0xA0 SHL SUB AND PUSH4 0x1ACF5582 PUSH1 0x40 MLOAD DUP2 PUSH4 0xFFFFFFFF AND PUSH1 0xE0 SHL DUP2 MSTORE PUSH1 0x4 ADD PUSH1 0x20 PUSH1 0x40 MLOAD DUP1 DUP4 SUB DUP2 DUP7 DUP1 EXTCODESIZE ISZERO DUP1 ISZERO PUSH2 0x111C JUMPI PUSH1 0x0 DUP1 REVERT JUMPDEST POP GAS STATICCALL ISZERO DUP1 ISZERO PUSH2 0x1130 JUMPI RETURNDATASIZE PUSH1 0x0 DUP1 RETURNDATACOPY RETURNDATASIZE PUSH1 0x0 REVERT JUMPDEST POP POP POP POP PUSH1 0x40 MLOAD RETURNDATASIZE PUSH1 0x1F NOT PUSH1 0x1F DUP3 ADD AND DUP3 ADD DUP1 PUSH1 0x40 MSTORE POP DUP2 ADD SWAP1 PUSH2 0x1154 SWAP2 SWAP1 PUSH2 0x4BE7 JUMP JUMPDEST PUSH1 0x18 SLOAD PUSH1 0x17 SLOAD PUSH1 0x40 MLOAD PUSH4 0xE39D06E9 PUSH1 0xE0 SHL DUP2 MSTORE PUSH1 0x4 DUP2 ADD DUP14 SWAP1 MSTORE PUSH1 0x24 DUP2 ADD DUP13 SWAP1 MSTORE PUSH1 0x44 DUP2 ADD DUP12 SWAP1 MSTORE DUP10 ISZERO ISZERO PUSH1 0x64 DUP3 ADD MSTORE DUP9 ISZERO ISZERO PUSH1 0x84 DUP3 ADD MSTORE PUSH1 0xA4 DUP2 ADD DUP5 SWAP1 MSTORE PUSH1 0x1 PUSH1 0x1 PUSH1 0xA0 SHL SUB SWAP3 DUP4 AND PUSH1 0xC4 DUP3 ADD MSTORE SWAP2 AND PUSH1 0xE4 DUP3 ADD MSTORE SWAP1 SWAP2 POP PUSH20 0x0 SWAP1 PUSH4 0xE39D06E9 SWAP1 PUSH2 0x104 ADD PUSH1 0x20 PUSH1 0x40 MLOAD DUP1 DUP4 SUB DUP2 DUP7 DUP1 EXTCODESIZE ISZERO DUP1 ISZERO PUSH2 0x11E5 JUMPI PUSH1 0x0 DUP1 REVERT JUMPDEST POP GAS DELEGATECALL ISZERO DUP1 ISZERO PUSH2 0x11F9 JUMPI RETURNDATASIZE PUSH1 0x0 DUP1 RETURNDATACOPY RETURNDATASIZE PUSH1 0x0 REVERT JUMPDEST POP POP POP POP PUSH1 0x40 MLOAD RETURNDATASIZE PUSH1 0x1F NOT PUSH1 0x1F DUP3 ADD AND DUP3 ADD DUP1 PUSH1 0x40 MSTORE POP DUP2 ADD SWAP1 PUSH2 0x121D SWAP2 SWAP1 PUSH2 0x4BE7 JUMP JUMPDEST SWAP2 POP PUSH2 0x1228 DUP9 PUSH2 0x2ED8 JUMP JUMPDEST SWAP3 POP PUSH2 0x1234 DUP3 DUP5 PUSH2 0x516A JUMP JUMPDEST SWAP4 POP POP SWAP6 POP SWAP6 POP SWAP6 SWAP3 POP POP POP JUMP JUMPDEST PUSH1 0x60 DUP2 PUSH2 0x1276 JUMPI PUSH1 0x40 MLOAD PUSH3 0x461BCD PUSH1 0xE5 SHL DUP2 MSTORE PUSH1 0x20 PUSH1 0x4 DUP3 ADD MSTORE PUSH1 0x2 PUSH1 0x24 DUP3 ADD MSTORE PUSH2 0x4E31 PUSH1 0xF0 SHL PUSH1 0x44 DUP3 ADD MSTORE PUSH1 0x64 ADD PUSH2 0x944 JUMP JUMPDEST DUP2 PUSH1 0x1 PUSH1 0x1 PUSH1 0x40 SHL SUB DUP2 GT ISZERO PUSH2 0x129C JUMPI PUSH4 0x4E487B71 PUSH1 0xE0 SHL PUSH1 0x0 MSTORE PUSH1 0x41 PUSH1 0x4 MSTORE PUSH1 0x24 PUSH1 0x0 REVERT JUMPDEST PUSH1 0x40 MLOAD SWAP1 DUP1 DUP3 MSTORE DUP1 PUSH1 0x20 MUL PUSH1 0x20 ADD DUP3 ADD PUSH1 0x40 MSTORE DUP1 ISZERO PUSH2 0x12C5 JUMPI DUP2 PUSH1 0x20 ADD PUSH1 0x20 DUP3 MUL DUP1 CALLDATASIZE DUP4 CALLDATACOPY ADD SWAP1 POP JUMPDEST POP SWAP1 POP PUSH1 0x0 PUSH2 0x12D3 DUP6 PUSH2 0x2B71 JUMP JUMPDEST SWAP1 POP PUSH1 0x0 PUSH2 0x12E0 DUP7 PUSH2 0x1D5E JUMP JUMPDEST SWAP1 POP PUSH1 0x0 DUP1 DUP1 DUP1 JUMPDEST DUP8 DUP2 LT ISZERO PUSH2 0x14F3 JUMPI PUSH1 0x0 PUSH2 0x12FA PUSH2 0x2F76 JUMP JUMPDEST SWAP1 POP DUP1 DUP9 DUP4 DUP2 MLOAD DUP2 LT PUSH2 0x131D JUMPI PUSH4 0x4E487B71 PUSH1 0xE0 SHL PUSH1 0x0 MSTORE PUSH1 0x32 PUSH1 0x4 MSTORE PUSH1 0x24 PUSH1 0x0 REVERT JUMPDEST PUSH1 0x20 MUL PUSH1 0x20 ADD ADD DUP2 DUP2 MSTORE POP POP PUSH2 0x135A DUP12 DUP3 DUP13 DUP13 DUP7 DUP2 DUP2 LT PUSH2 0x134E JUMPI PUSH4 0x4E487B71 PUSH1 0xE0 SHL PUSH1 0x0 MSTORE PUSH1 0x32 PUSH1 0x4 MSTORE PUSH1 0x24 PUSH1 0x0 REVERT JUMPDEST SWAP1 POP PUSH1 0x20 MUL ADD CALLDATALOAD PUSH2 0x2F90 JUMP JUMPDEST PUSH1 0x0 DUP7 DUP12 DUP12 DUP6 DUP2 DUP2 LT PUSH2 0x137D JUMPI PUSH4 0x4E487B71 PUSH1 0xE0 SHL PUSH1 0x0 MSTORE PUSH1 0x32 PUSH1 0x4 MSTORE PUSH1 0x24 PUSH1 0x0 REVERT JUMPDEST SWAP1 POP PUSH1 0x20 MUL ADD CALLDATALOAD DUP10 PUSH1 0x40 ADD MLOAD PUSH2 0x1393 SWAP2 SWAP1 PUSH2 0x5196 JUMP JUMPDEST PUSH2 0x139D SWAP2 SWAP1 PUSH2 0x5182 JUMP JUMPDEST SWAP1 POP PUSH2 0x13A9 DUP2 DUP8 PUSH2 0x516A JUMP JUMPDEST SWAP6 POP PUSH1 0x0 DUP8 DUP13 DUP13 DUP7 DUP2 DUP2 LT PUSH2 0x13CE JUMPI PUSH4 0x4E487B71 PUSH1 0xE0 SHL PUSH1 0x0 MSTORE PUSH1 0x32 PUSH1 0x4 MSTORE PUSH1 0x24 PUSH1 0x0 REVERT JUMPDEST SWAP1 POP PUSH1 0x20 MUL ADD CALLDATALOAD DUP11 PUSH1 0x60 ADD MLOAD PUSH2 0x13E4 SWAP2 SWAP1 PUSH2 0x5196 JUMP JUMPDEST PUSH2 0x13EE SWAP2 SWAP1 PUSH2 0x5182 JUMP JUMPDEST SWAP1 POP PUSH2 0x13FA DUP2 DUP8 PUSH2 0x516A JUMP JUMPDEST SWAP6 POP PUSH1 0x0 DUP9 DUP14 DUP14 DUP8 DUP2 DUP2 LT PUSH2 0x141F JUMPI PUSH4 0x4E487B71 PUSH1 0xE0 SHL PUSH1 0x0 MSTORE PUSH1 0x32 PUSH1 0x4 MSTORE PUSH1 0x24 PUSH1 0x0 REVERT JUMPDEST SWAP1 POP PUSH1 0x20 MUL ADD CALLDATALOAD DUP12 PUSH1 0x80 ADD MLOAD PUSH2 0x1435 SWAP2 SWAP1 PUSH2 0x5196 JUMP JUMPDEST PUSH2 0x143F SWAP2 SWAP1 PUSH2 0x5182 JUMP JUMPDEST SWAP1 POP PUSH2 0x144B DUP2 DUP8 PUSH2 0x516A JUMP JUMPDEST SWAP6 POP PUSH1 0x0 PUSH1 0x40 MLOAD DUP1 PUSH1 0xE0 ADD PUSH1 0x40 MSTORE DUP1 DUP13 PUSH1 0x0 ADD MLOAD PUSH1 0x3 DUP2 GT ISZERO PUSH2 0x147E JUMPI PUSH4 0x4E487B71 PUSH1 0xE0 SHL PUSH1 0x0 MSTORE PUSH1 0x21 PUSH1 0x4 MSTORE PUSH1 0x24 PUSH1 0x0 REVERT JUMPDEST DUP2 MSTORE PUSH1 0x20 ADD DUP13 PUSH1 0x20 ADD MLOAD DUP2 MSTORE PUSH1 0x20 ADD DUP6 DUP2 MSTORE PUSH1 0x20 ADD DUP5 DUP2 MSTORE PUSH1 0x20 ADD DUP4 DUP2 MSTORE PUSH1 0x20 ADD DUP13 PUSH1 0xA0 ADD MLOAD DUP2 MSTORE PUSH1 0x20 ADD DUP13 PUSH1 0xC0 ADD MLOAD PUSH1 0x2 DUP2 GT ISZERO PUSH2 0x14CD JUMPI PUSH4 0x4E487B71 PUSH1 0xE0 SHL PUSH1 0x0 MSTORE PUSH1 0x21 PUSH1 0x4 MSTORE PUSH1 0x24 PUSH1 0x0 REVERT JUMPDEST SWAP1 MSTORE SWAP1 POP PUSH2 0x14DB DUP6 DUP3 PUSH2 0x30BA JUMP JUMPDEST POP POP POP POP POP DUP1 DUP1 PUSH2 0x14EB SWAP1 PUSH2 0x5244 JUMP JUMPDEST SWAP2 POP POP PUSH2 0x12E8 JUMP JUMPDEST POP PUSH2 0x1529 DUP10 DUP7 DUP5 DUP9 PUSH1 0x60 ADD MLOAD PUSH2 0x1509 SWAP2 SWAP1 PUSH2 0x51B5 JUMP JUMPDEST DUP7 DUP10 PUSH1 0x40 ADD MLOAD PUSH2 0x1519 SWAP2 SWAP1 PUSH2 0x51B5 JUMP JUMPDEST DUP6 DUP11 PUSH1 0x80 ADD MLOAD PUSH2 0xCA4 SWAP2 SWAP1 PUSH2 0x51B5 JUMP JUMPDEST PUSH1 0x17 SLOAD PUSH1 0x60 DUP3 ADD MLOAD PUSH1 0x80 DUP4 ADD MLOAD PUSH1 0x40 MLOAD PUSH4 0x57A5C967 PUSH1 0xE0 SHL DUP2 MSTORE SWAP4 SWAP9 POP PUSH1 0x1 PUSH1 0x1 PUSH1 0xA0 SHL SUB SWAP1 SWAP3 AND SWAP3 PUSH4 0x57A5C967 SWAP3 PUSH2 0x1569 SWAP3 DUP15 SWAP3 SWAP1 SWAP2 SWAP1 PUSH1 0x4 ADD PUSH2 0x5154 JUMP JUMPDEST PUSH1 0x0 PUSH1 0x40 MLOAD DUP1 DUP4 SUB DUP2 PUSH1 0x0 DUP8 DUP1 EXTCODESIZE ISZERO DUP1 ISZERO PUSH2 0x1583 JUMPI PUSH1 0x0 DUP1 REVERT JUMPDEST POP GAS CALL ISZERO DUP1 ISZERO PUSH2 0x1597 JUMPI RETURNDATASIZE PUSH1 0x0 DUP1 RETURNDATACOPY RETURNDATASIZE PUSH1 0x0 REVERT JUMPDEST POP POP POP POP PUSH1 0x0 JUMPDEST DUP8 DUP2 LT ISZERO PUSH2 0x1627 JUMPI PUSH1 0x0 PUSH2 0x15D8 DUP9 DUP4 DUP2 MLOAD DUP2 LT PUSH2 0x15CB JUMPI PUSH4 0x4E487B71 PUSH1 0xE0 SHL PUSH1 0x0 MSTORE PUSH1 0x32 PUSH1 0x4 MSTORE PUSH1 0x24 PUSH1 0x0 REVERT JUMPDEST PUSH1 0x20 MUL PUSH1 0x20 ADD ADD MLOAD PUSH2 0x2B71 JUMP JUMPDEST SWAP1 POP PUSH2 0x1614 DUP9 DUP4 DUP2 MLOAD DUP2 LT PUSH2 0x15FD JUMPI PUSH4 0x4E487B71 PUSH1 0xE0 SHL PUSH1 0x0 MSTORE PUSH1 0x32 PUSH1 0x4 MSTORE PUSH1 0x24 PUSH1 0x0 REVERT JUMPDEST PUSH1 0x20 MUL PUSH1 0x20 ADD ADD MLOAD DUP3 PUSH1 0x60 ADD MLOAD DUP4 PUSH1 0x80 ADD MLOAD PUSH2 0x3172 JUMP JUMPDEST POP DUP1 PUSH2 0x161F DUP2 PUSH2 0x5244 JUMP JUMPDEST SWAP2 POP POP PUSH2 0x159E JUMP JUMPDEST POP POP POP POP POP POP SWAP4 SWAP3 POP POP POP JUMP JUMPDEST PUSH1 0x0 PUSH1 0x1 PUSH1 0x1 PUSH1 0xA0 SHL SUB DUP3 AND PUSH2 0x169F JUMPI PUSH1 0x40 MLOAD PUSH3 0x461BCD PUSH1 0xE5 SHL DUP2 MSTORE PUSH1 0x20 PUSH1 0x4 DUP3 ADD MSTORE PUSH1 0x2A PUSH1 0x24 DUP3 ADD MSTORE PUSH32 0x4552433732313A2062616C616E636520717565727920666F7220746865207A65 PUSH1 0x44 DUP3 ADD MSTORE PUSH10 0x726F2061646472657373 PUSH1 0xB0 SHL PUSH1 0x64 DUP3 ADD MSTORE PUSH1 0x84 ADD PUSH2 0x944 JUMP JUMPDEST POP PUSH1 0x1 PUSH1 0x1 PUSH1 0xA0 SHL SUB AND PUSH1 0x0 SWAP1 DUP2 MSTORE PUSH1 0x3 PUSH1 0x20 MSTORE PUSH1 0x40 SWAP1 KECCAK256 SLOAD SWAP1 JUMP JUMPDEST CALLER PUSH2 0x16C4 PUSH2 0x16F6 JUMP JUMPDEST PUSH1 0x1 PUSH1 0x1 PUSH1 0xA0 SHL SUB AND EQ PUSH2 0x16EA JUMPI PUSH1 0x40 MLOAD PUSH3 0x461BCD PUSH1 0xE5 SHL DUP2 MSTORE PUSH1 0x4 ADD PUSH2 0x944 SWAP1 PUSH2 0x503D JUMP JUMPDEST PUSH2 0x16F4 PUSH1 0x0 PUSH2 0x31DD JUMP JUMPDEST JUMP JUMPDEST PUSH1 0x6 SLOAD PUSH1 0x1 PUSH1 0x1 PUSH1 0xA0 SHL SUB AND SWAP1 JUMP JUMPDEST PUSH1 0x0 SWAP2 DUP3 MSTORE PUSH1 0x8 PUSH1 0x20 SWAP1 DUP2 MSTORE PUSH1 0x40 DUP1 DUP5 KECCAK256 PUSH1 0x1 PUSH1 0x1 PUSH1 0xA0 SHL SUB SWAP4 SWAP1 SWAP4 AND DUP5 MSTORE SWAP2 SWAP1 MSTORE SWAP1 KECCAK256 SLOAD PUSH1 0xFF AND SWAP1 JUMP JUMPDEST PUSH1 0x60 PUSH1 0x1 DUP1 SLOAD PUSH2 0x814 SWAP1 PUSH2 0x520F JUMP JUMPDEST PUSH1 0x1 PUSH1 0x1 PUSH1 0xA0 SHL SUB DUP3 AND CALLER EQ ISZERO PUSH2 0x1794 JUMPI PUSH1 0x40 MLOAD PUSH3 0x461BCD PUSH1 0xE5 SHL DUP2 MSTORE PUSH1 0x20 PUSH1 0x4 DUP3 ADD MSTORE PUSH1 0x19 PUSH1 0x24 DUP3 ADD MSTORE PUSH25 0x22A9219B99189D1030B8383937BB32903A379031B0B63632B9 PUSH1 0x39 SHL PUSH1 0x44 DUP3 ADD MSTORE PUSH1 0x64 ADD PUSH2 0x944 JUMP JUMPDEST CALLER PUSH1 0x0 DUP2 DUP2 MSTORE PUSH1 0x5 PUSH1 0x20 SWAP1 DUP2 MSTORE PUSH1 0x40 DUP1 DUP4 KECCAK256 PUSH1 0x1 PUSH1 0x1 PUSH1 0xA0 SHL SUB DUP8 AND DUP1 DUP6 MSTORE SWAP1 DUP4 MSTORE SWAP3 DUP2 SWAP1 KECCAK256 DUP1 SLOAD PUSH1 0xFF NOT AND DUP7 ISZERO ISZERO SWAP1 DUP2 OR SWAP1 SWAP2 SSTORE SWAP1 MLOAD SWAP1 DUP2 MSTORE SWAP2 SWAP3 SWAP2 PUSH32 0x17307EAB39AB6107E8899845AD3D59BD9653F200F220920489CA2B5937696C31 SWAP2 ADD PUSH1 0x40 MLOAD DUP1 SWAP2 SUB SWAP1 LOG3 POP POP JUMP JUMPDEST PUSH1 0x0 DUP2 DUP2 MSTORE PUSH1 0xC PUSH1 0x20 MSTORE PUSH1 0x40 DUP2 KECCAK256 PUSH2 0x7FF SWAP1 PUSH2 0x322F JUMP JUMPDEST PUSH1 0x0 PUSH2 0x1822 DUP3 PUSH2 0xD33 JUMP JUMPDEST PUSH2 0x1854 JUMPI PUSH1 0x40 MLOAD PUSH3 0x461BCD PUSH1 0xE5 SHL DUP2 MSTORE PUSH1 0x20 PUSH1 0x4 DUP3 ADD MSTORE PUSH1 0x3 PUSH1 0x24 DUP3 ADD MSTORE PUSH3 0x4F313 PUSH1 0xEC SHL PUSH1 0x44 DUP3 ADD MSTORE PUSH1 0x64 ADD PUSH2 0x944 JUMP JUMPDEST PUSH1 0x0 DUP3 DUP2 MSTORE PUSH1 0x14 PUSH1 0x20 MSTORE PUSH1 0x40 SWAP1 KECCAK256 PUSH1 0x5 DUP2 ADD SLOAD TIMESTAMP LT ISZERO PUSH2 0x1886 JUMPI PUSH1 0x40 MLOAD PUSH3 0x461BCD PUSH1 0xE5 SHL DUP2 MSTORE PUSH1 0x4 ADD PUSH2 0x944 SWAP1 PUSH2 0x50C3 JUMP JUMPDEST PUSH1 0x1 DUP2 SLOAD PUSH1 0xFF AND PUSH1 0x3 DUP2 GT ISZERO PUSH2 0x18AC JUMPI PUSH4 0x4E487B71 PUSH1 0xE0 SHL PUSH1 0x0 MSTORE PUSH1 0x21 PUSH1 0x4 MSTORE PUSH1 0x24 PUSH1 0x0 REVERT JUMPDEST EQ PUSH2 0x18DF JUMPI PUSH1 0x40 MLOAD PUSH3 0x461BCD PUSH1 0xE5 SHL DUP2 MSTORE PUSH1 0x20 PUSH1 0x4 DUP3 ADD MSTORE PUSH1 0x3 PUSH1 0x24 DUP3 ADD MSTORE PUSH3 0x13CC4D PUSH1 0xEA SHL PUSH1 0x44 DUP3 ADD MSTORE PUSH1 0x64 ADD PUSH2 0x944 JUMP JUMPDEST PUSH1 0x5 DUP2 ADD SLOAD PUSH1 0x0 SWAP1 DUP2 MSTORE PUSH1 0x16 PUSH1 0x20 MSTORE PUSH1 0x40 SWAP1 KECCAK256 SLOAD DUP1 PUSH2 0x1910 JUMPI PUSH1 0x40 MLOAD PUSH3 0x461BCD PUSH1 0xE5 SHL DUP2 MSTORE PUSH1 0x4 ADD PUSH2 0x944 SWAP1 PUSH2 0x5004 JUMP JUMPDEST PUSH1 0x12 SLOAD PUSH1 0x40 MLOAD PUSH4 0x3906D29 PUSH1 0xE1 SHL DUP2 MSTORE PUSH1 0x4 DUP2 ADD DUP4 SWAP1 MSTORE PUSH1 0x0 SWAP2 PUSH1 0x1 PUSH1 0x1 PUSH1 0xA0 SHL SUB AND SWAP1 PUSH4 0x720DA52 SWAP1 PUSH1 0x24 ADD PUSH1 0xA0 PUSH1 0x40 MLOAD DUP1 DUP4 SUB DUP2 DUP7 DUP1 EXTCODESIZE ISZERO DUP1 ISZERO PUSH2 0x1955 JUMPI PUSH1 0x0 DUP1 REVERT JUMPDEST POP GAS STATICCALL ISZERO DUP1 ISZERO PUSH2 0x1969 JUMPI RETURNDATASIZE PUSH1 0x0 DUP1 RETURNDATACOPY RETURNDATASIZE PUSH1 0x0 REVERT JUMPDEST POP POP POP POP PUSH1 0x40 MLOAD RETURNDATASIZE PUSH1 0x1F NOT PUSH1 0x1F DUP3 ADD AND DUP3 ADD DUP1 PUSH1 0x40 MSTORE POP DUP2 ADD SWAP1 PUSH2 0x198D SWAP2 SWAP1 PUSH2 0x4D60 JUMP JUMPDEST POP SWAP2 SWAP4 POP PUSH1 0x2 SWAP3 POP PUSH2 0x199D SWAP2 POP POP JUMP JUMPDEST PUSH1 0x6 DUP5 ADD SLOAD PUSH1 0xFF AND PUSH1 0x2 DUP2 GT ISZERO PUSH2 0x19C4 JUMPI PUSH4 0x4E487B71 PUSH1 0xE0 SHL PUSH1 0x0 MSTORE PUSH1 0x21 PUSH1 0x4 MSTORE PUSH1 0x24 PUSH1 0x0 REVERT JUMPDEST EQ ISZERO PUSH2 0x1A09 JUMPI DUP1 DUP4 PUSH1 0x1 ADD SLOAD GT ISZERO PUSH2 0x1A04 JUMPI PUSH1 0x40 MLOAD PUSH3 0x461BCD PUSH1 0xE5 SHL DUP2 MSTORE PUSH1 0x20 PUSH1 0x4 DUP3 ADD MSTORE PUSH1 0x3 PUSH1 0x24 DUP3 ADD MSTORE PUSH3 0x4F3137 PUSH1 0xE8 SHL PUSH1 0x44 DUP3 ADD MSTORE PUSH1 0x64 ADD PUSH2 0x944 JUMP JUMPDEST PUSH2 0x1A43 JUMP JUMPDEST DUP1 DUP4 PUSH1 0x1 ADD SLOAD LT ISZERO PUSH2 0x1A43 JUMPI PUSH1 0x40 MLOAD PUSH3 0x461BCD PUSH1 0xE5 SHL DUP2 MSTORE PUSH1 0x20 PUSH1 0x4 DUP3 ADD MSTORE PUSH1 0x3 PUSH1 0x24 DUP3 ADD MSTORE PUSH3 0x9E627 PUSH1 0xEB SHL PUSH1 0x44 DUP3 ADD MSTORE PUSH1 0x64 ADD PUSH2 0x944 JUMP JUMPDEST PUSH1 0x3 DUP4 ADD SLOAD PUSH1 0x17 SLOAD SWAP1 SWAP5 POP PUSH1 0x1 PUSH1 0x1 PUSH1 0xA0 SHL SUB AND PUSH4 0x81B34F15 DUP7 PUSH2 0x1A66 DUP2 PUSH2 0xFC7 JUMP JUMPDEST PUSH1 0x40 MLOAD PUSH1 0x1 PUSH1 0x1 PUSH1 0xE0 SHL SUB NOT PUSH1 0xE0 DUP6 SWAP1 SHL AND DUP2 MSTORE PUSH1 0x4 DUP2 ADD SWAP3 SWAP1 SWAP3 MSTORE PUSH1 0x1 PUSH1 0x1 PUSH1 0xA0 SHL SUB AND PUSH1 0x24 DUP3 ADD MSTORE PUSH1 0x44 DUP2 ADD DUP8 SWAP1 MSTORE PUSH1 0x64 ADD PUSH1 0x0 PUSH1 0x40 MLOAD DUP1 DUP4 SUB DUP2 PUSH1 0x0 DUP8 DUP1 EXTCODESIZE ISZERO DUP1 ISZERO PUSH2 0x1AB4 JUMPI PUSH1 0x0 DUP1 REVERT JUMPDEST POP GAS CALL ISZERO DUP1 ISZERO PUSH2 0x1AC8 JUMPI RETURNDATASIZE PUSH1 0x0 DUP1 RETURNDATACOPY RETURNDATASIZE PUSH1 0x0 REVERT JUMPDEST POP POP POP POP PUSH2 0x1AD5 DUP6 PUSH2 0x2A2C JUMP JUMPDEST DUP3 SLOAD PUSH1 0xFF NOT AND PUSH1 0x2 OR DUP4 SSTORE PUSH1 0x40 MLOAD DUP5 DUP2 MSTORE DUP6 SWAP1 PUSH31 0x84FE51C7CB34B132B7B6EB5D5A87A489F8D6D284758D00A0402C1BAD9A0DEF SWAP1 PUSH1 0x20 ADD PUSH1 0x40 MLOAD DUP1 SWAP2 SUB SWAP1 LOG2 POP POP POP SWAP2 SWAP1 POP JUMP JUMPDEST PUSH2 0x1B27 CALLER JUMPDEST DUP4 PUSH2 0x25B3 JUMP JUMPDEST PUSH2 0x1B43 JUMPI PUSH1 0x40 MLOAD PUSH3 0x461BCD PUSH1 0xE5 SHL DUP2 MSTORE PUSH1 0x4 ADD PUSH2 0x944 SWAP1 PUSH2 0x5072 JUMP JUMPDEST PUSH2 0xFC1 DUP5 DUP5 DUP5 DUP5 PUSH2 0x3239 JUMP JUMPDEST DUP2 PUSH2 0x1B81 JUMPI PUSH1 0x40 MLOAD PUSH3 0x461BCD PUSH1 0xE5 SHL DUP2 MSTORE PUSH1 0x20 PUSH1 0x4 DUP3 ADD MSTORE PUSH1 0x2 PUSH1 0x24 DUP3 ADD MSTORE PUSH2 0x138D PUSH1 0xF2 SHL PUSH1 0x44 DUP3 ADD MSTORE PUSH1 0x64 ADD PUSH2 0x944 JUMP JUMPDEST PUSH1 0x0 PUSH2 0x1B8C DUP3 PUSH2 0x2B71 JUMP JUMPDEST PUSH1 0x60 DUP2 ADD MLOAD PUSH1 0x40 DUP3 ADD MLOAD PUSH1 0x80 DUP4 ADD MLOAD SWAP3 SWAP4 POP SWAP1 SWAP2 PUSH1 0x0 JUMPDEST DUP7 DUP2 LT ISZERO PUSH2 0x1CE0 JUMPI PUSH1 0x0 PUSH2 0x1BDC DUP10 DUP10 DUP5 DUP2 DUP2 LT PUSH2 0x1BD0 JUMPI PUSH4 0x4E487B71 PUSH1 0xE0 SHL PUSH1 0x0 MSTORE PUSH1 0x32 PUSH1 0x4 MSTORE PUSH1 0x24 PUSH1 0x0 REVERT JUMPDEST SWAP1 POP PUSH1 0x20 MUL ADD CALLDATALOAD PUSH2 0x2B71 JUMP JUMPDEST SWAP1 POP DUP1 PUSH1 0x60 ADD MLOAD DUP6 PUSH2 0x1BEE SWAP2 SWAP1 PUSH2 0x516A JUMP JUMPDEST SWAP5 POP DUP1 PUSH1 0x40 ADD MLOAD DUP5 PUSH2 0x1C00 SWAP2 SWAP1 PUSH2 0x516A JUMP JUMPDEST SWAP4 POP DUP1 PUSH1 0x80 ADD MLOAD DUP4 PUSH2 0x1C12 SWAP2 SWAP1 PUSH2 0x516A JUMP JUMPDEST PUSH1 0x17 SLOAD SWAP1 SWAP4 POP PUSH1 0x1 PUSH1 0x1 PUSH1 0xA0 SHL SUB AND PUSH4 0xDBF21B0 DUP11 DUP11 DUP6 DUP2 DUP2 LT PUSH2 0x1C46 JUMPI PUSH4 0x4E487B71 PUSH1 0xE0 SHL PUSH1 0x0 MSTORE PUSH1 0x32 PUSH1 0x4 MSTORE PUSH1 0x24 PUSH1 0x0 REVERT JUMPDEST SWAP1 POP PUSH1 0x20 MUL ADD CALLDATALOAD PUSH1 0x40 MLOAD DUP3 PUSH4 0xFFFFFFFF AND PUSH1 0xE0 SHL DUP2 MSTORE PUSH1 0x4 ADD PUSH2 0x1C6B SWAP2 DUP2 MSTORE PUSH1 0x20 ADD SWAP1 JUMP JUMPDEST PUSH1 0x0 PUSH1 0x40 MLOAD DUP1 DUP4 SUB DUP2 PUSH1 0x0 DUP8 DUP1 EXTCODESIZE ISZERO DUP1 ISZERO PUSH2 0x1C85 JUMPI PUSH1 0x0 DUP1 REVERT JUMPDEST POP GAS CALL ISZERO DUP1 ISZERO PUSH2 0x1C99 JUMPI RETURNDATASIZE PUSH1 0x0 DUP1 RETURNDATACOPY RETURNDATASIZE PUSH1 0x0 REVERT JUMPDEST POP POP POP POP PUSH2 0x1CCD DUP10 DUP10 DUP5 DUP2 DUP2 LT PUSH2 0x1CC0 JUMPI PUSH4 0x4E487B71 PUSH1 0xE0 SHL PUSH1 0x0 MSTORE PUSH1 0x32 PUSH1 0x4 MSTORE PUSH1 0x24 PUSH1 0x0 REVERT JUMPDEST SWAP1 POP PUSH1 0x20 MUL ADD CALLDATALOAD DUP9 PUSH2 0x326C JUMP JUMPDEST POP DUP1 PUSH2 0x1CD8 DUP2 PUSH2 0x5244 JUMP JUMPDEST SWAP2 POP POP PUSH2 0x1BA3 JUMP JUMPDEST POP PUSH2 0x1CEE DUP6 DUP6 DUP6 DUP6 DUP6 PUSH2 0x2C60 JUMP JUMPDEST POP PUSH1 0x17 SLOAD PUSH1 0x40 MLOAD PUSH4 0x57A5C967 PUSH1 0xE0 SHL DUP2 MSTORE PUSH1 0x1 PUSH1 0x1 PUSH1 0xA0 SHL SUB SWAP1 SWAP2 AND SWAP1 PUSH4 0x57A5C967 SWAP1 PUSH2 0x1D23 SWAP1 DUP9 SWAP1 DUP8 SWAP1 DUP7 SWAP1 PUSH1 0x4 ADD PUSH2 0x5154 JUMP JUMPDEST PUSH1 0x0 PUSH1 0x40 MLOAD DUP1 DUP4 SUB DUP2 PUSH1 0x0 DUP8 DUP1 EXTCODESIZE ISZERO DUP1 ISZERO PUSH2 0x1D3D JUMPI PUSH1 0x0 DUP1 REVERT JUMPDEST POP GAS CALL ISZERO DUP1 ISZERO PUSH2 0x1D51 JUMPI RETURNDATASIZE PUSH1 0x0 DUP1 RETURNDATACOPY RETURNDATASIZE PUSH1 0x0 REVERT JUMPDEST POP POP POP POP POP POP POP POP POP POP POP JUMP JUMPDEST PUSH1 0x0 SWAP1 DUP2 MSTORE PUSH1 0xF PUSH1 0x20 MSTORE PUSH1 0x40 SWAP1 KECCAK256 SLOAD SWAP1 JUMP JUMPDEST PUSH1 0x0 PUSH1 0x2 PUSH1 0x7 SLOAD EQ ISZERO PUSH2 0x1DC5 JUMPI PUSH1 0x40 MLOAD PUSH3 0x461BCD PUSH1 0xE5 SHL DUP2 MSTORE PUSH1 0x20 PUSH1 0x4 DUP3 ADD MSTORE PUSH1 0x1F PUSH1 0x24 DUP3 ADD MSTORE PUSH32 0x5265656E7472616E637947756172643A207265656E7472616E742063616C6C00 PUSH1 0x44 DUP3 ADD MSTORE PUSH1 0x64 ADD PUSH2 0x944 JUMP JUMPDEST PUSH1 0x2 PUSH1 0x7 SSTORE PUSH1 0x0 DUP1 DUP1 PUSH2 0x1DE4 PUSH2 0x1DDB TIMESTAMP DUP12 PUSH2 0x51B5 JUMP JUMPDEST DUP13 DUP13 DUP12 DUP12 PUSH2 0x10C8 JUMP JUMPDEST SWAP2 SWAP5 POP SWAP3 POP SWAP1 POP PUSH1 0x5 PUSH2 0x1DF7 TIMESTAMP DUP12 PUSH2 0x51B5 JUMP JUMPDEST PUSH2 0x1E01 SWAP1 DUP14 PUSH2 0x5196 JUMP JUMPDEST PUSH2 0x1E0B SWAP2 SWAP1 PUSH2 0x5196 JUMP JUMPDEST PUSH2 0x1E19 DUP5 PUSH4 0x1E13380 PUSH2 0x5196 JUMP JUMPDEST PUSH2 0x1E24 SWAP1 PUSH1 0x64 PUSH2 0x5196 JUMP JUMPDEST GT PUSH2 0x1E56 JUMPI PUSH1 0x40 MLOAD PUSH3 0x461BCD PUSH1 0xE5 SHL DUP2 MSTORE PUSH1 0x20 PUSH1 0x4 DUP3 ADD MSTORE PUSH1 0x2 PUSH1 0x24 DUP3 ADD MSTORE PUSH2 0x2799 PUSH1 0xF1 SHL PUSH1 0x44 DUP3 ADD MSTORE PUSH1 0x64 ADD PUSH2 0x944 JUMP JUMPDEST PUSH1 0x10 SLOAD PUSH1 0x40 MLOAD PUSH4 0x23B872DD PUSH1 0xE0 SHL DUP2 MSTORE CALLER PUSH1 0x4 DUP3 ADD MSTORE ADDRESS PUSH1 0x24 DUP3 ADD MSTORE PUSH1 0x44 DUP2 ADD DUP6 SWAP1 MSTORE PUSH1 0x0 SWAP2 PUSH1 0x1 PUSH1 0x1 PUSH1 0xA0 SHL SUB AND SWAP1 PUSH4 0x23B872DD SWAP1 PUSH1 0x64 ADD PUSH1 0x20 PUSH1 0x40 MLOAD DUP1 DUP4 SUB DUP2 PUSH1 0x0 DUP8 DUP1 EXTCODESIZE ISZERO DUP1 ISZERO PUSH2 0x1EA9 JUMPI PUSH1 0x0 DUP1 REVERT JUMPDEST POP GAS CALL ISZERO DUP1 ISZERO PUSH2 0x1EBD JUMPI RETURNDATASIZE PUSH1 0x0 DUP1 RETURNDATACOPY RETURNDATASIZE PUSH1 0x0 REVERT JUMPDEST POP POP POP POP PUSH1 0x40 MLOAD RETURNDATASIZE PUSH1 0x1F NOT PUSH1 0x1F DUP3 ADD AND DUP3 ADD DUP1 PUSH1 0x40 MSTORE POP DUP2 ADD SWAP1 PUSH2 0x1EE1 SWAP2 SWAP1 PUSH2 0x4B57 JUMP JUMPDEST SWAP1 POP DUP1 PUSH2 0x1F15 JUMPI PUSH1 0x40 MLOAD PUSH3 0x461BCD PUSH1 0xE5 SHL DUP2 MSTORE PUSH1 0x20 PUSH1 0x4 DUP3 ADD MSTORE PUSH1 0x2 PUSH1 0x24 DUP3 ADD MSTORE PUSH2 0x4F33 PUSH1 0xF0 SHL PUSH1 0x44 DUP3 ADD MSTORE PUSH1 0x64 ADD PUSH2 0x944 JUMP JUMPDEST PUSH1 0x1 DUP10 ISZERO ISZERO DUP2 EQ DUP1 ISZERO PUSH2 0x1F2A JUMPI POP PUSH1 0x1 DUP10 ISZERO ISZERO EQ JUMPDEST DUP1 PUSH2 0x1F3C JUMPI POP DUP10 ISZERO DUP1 ISZERO PUSH2 0x1F3C JUMPI POP DUP9 ISZERO JUMPDEST ISZERO PUSH2 0x1F45 JUMPI POP PUSH1 0x2 JUMPDEST PUSH1 0x40 DUP1 MLOAD PUSH1 0xE0 DUP2 ADD SWAP1 SWAP2 MSTORE PUSH1 0x0 SWAP1 DUP1 PUSH1 0x1 DUP2 MSTORE PUSH1 0x20 ADD DUP15 DUP2 MSTORE PUSH1 0x20 ADD DUP16 DUP2 MSTORE PUSH1 0x20 ADD DUP16 DUP2 MSTORE PUSH1 0x20 ADD DUP6 DUP2 MSTORE PUSH1 0x20 ADD DUP14 DUP2 MSTORE PUSH1 0x20 ADD DUP4 PUSH1 0x2 DUP2 GT ISZERO PUSH2 0x1F99 JUMPI PUSH4 0x4E487B71 PUSH1 0xE0 SHL PUSH1 0x0 MSTORE PUSH1 0x21 PUSH1 0x4 MSTORE PUSH1 0x24 PUSH1 0x0 REVERT JUMPDEST SWAP1 MSTORE SWAP1 POP PUSH2 0x1FA5 PUSH2 0x2F76 JUMP JUMPDEST PUSH1 0x40 DUP1 MLOAD DUP1 DUP3 ADD DUP3 MSTORE DUP14 ISZERO ISZERO DUP2 MSTORE DUP13 ISZERO ISZERO PUSH1 0x20 DUP1 DUP4 ADD SWAP2 DUP3 MSTORE PUSH1 0x0 DUP6 DUP2 MSTORE PUSH1 0x15 SWAP1 SWAP2 MSTORE SWAP3 SWAP1 SWAP3 KECCAK256 SWAP1 MLOAD DUP2 SLOAD SWAP3 MLOAD PUSH2 0xFFFF NOT SWAP1 SWAP4 AND SWAP1 ISZERO ISZERO PUSH2 0xFF00 NOT AND OR PUSH2 0x100 SWAP3 ISZERO ISZERO SWAP3 SWAP1 SWAP3 MUL SWAP2 SWAP1 SWAP2 OR SWAP1 SSTORE SWAP7 POP PUSH2 0x1FFE DUP8 DUP3 PUSH2 0x30BA JUMP JUMPDEST PUSH2 0x201C DUP8 CALLER PUSH2 0x2017 DUP11 DUP6 PUSH1 0x20 ADD MLOAD DUP7 PUSH1 0xA0 ADD MLOAD DUP9 PUSH2 0x33E8 JUMP JUMPDEST PUSH2 0x3526 JUMP JUMPDEST PUSH2 0x2026 DUP8 DUP10 PUSH2 0x3549 JUMP JUMPDEST PUSH1 0x0 PUSH2 0x2032 DUP7 DUP12 PUSH2 0x3553 JUMP JUMPDEST SWAP1 POP PUSH2 0x2047 DUP9 DUP4 PUSH1 0x60 ADD MLOAD DUP5 PUSH1 0x80 ADD MLOAD PUSH2 0x3172 JUMP JUMPDEST CALLER PUSH1 0x1 PUSH1 0x1 PUSH1 0xA0 SHL SUB AND DUP9 PUSH32 0x89F823A0225C73A75066E963CE2EEA7708B57680EC86102773DBD244F5412892 DUP4 DUP11 DUP14 PUSH1 0x40 MLOAD PUSH2 0x2085 SWAP4 SWAP3 SWAP2 SWAP1 PUSH2 0x5135 JUMP JUMPDEST PUSH1 0x40 MLOAD DUP1 SWAP2 SUB SWAP1 LOG3 POP POP PUSH1 0x1 PUSH1 0x7 SSTORE POP SWAP4 SWAP12 SWAP11 POP POP POP POP POP POP POP POP POP POP POP JUMP JUMPDEST PUSH1 0x60 PUSH2 0x7FF DUP3 PUSH2 0x3A14 JUMP JUMPDEST PUSH1 0x0 DUP3 DUP2 MSTORE PUSH1 0xC PUSH1 0x20 MSTORE PUSH1 0x40 DUP2 KECCAK256 PUSH2 0x20C8 SWAP1 DUP4 PUSH2 0x3B76 JUMP JUMPDEST SWAP4 SWAP3 POP POP POP JUMP JUMPDEST PUSH2 0x20D8 DUP3 PUSH2 0xAAB JUMP JUMPDEST PUSH2 0x20E2 DUP2 CALLER PUSH2 0x2816 JUMP JUMPDEST PUSH2 0xA75 DUP4 DUP4 PUSH2 0x2900 JUMP JUMPDEST PUSH1 0x12 SLOAD PUSH1 0x40 MLOAD PUSH4 0x3906D29 PUSH1 0xE1 SHL DUP2 MSTORE PUSH1 0x4 DUP2 ADD DUP5 SWAP1 MSTORE PUSH1 0x0 SWAP2 DUP3 SWAP2 DUP3 SWAP2 PUSH1 0x1 PUSH1 0x1 PUSH1 0xA0 SHL SUB AND SWAP1 PUSH4 0x720DA52 SWAP1 PUSH1 0x24 ADD PUSH1 0xA0 PUSH1 0x40 MLOAD DUP1 DUP4 SUB DUP2 DUP7 DUP1 EXTCODESIZE ISZERO DUP1 ISZERO PUSH2 0x2135 JUMPI PUSH1 0x0 DUP1 REVERT JUMPDEST POP GAS STATICCALL ISZERO DUP1 ISZERO PUSH2 0x2149 JUMPI RETURNDATASIZE PUSH1 0x0 DUP1 RETURNDATACOPY RETURNDATASIZE PUSH1 0x0 REVERT JUMPDEST POP POP POP POP PUSH1 0x40 MLOAD RETURNDATASIZE PUSH1 0x1F NOT PUSH1 0x1F DUP3 ADD AND DUP3 ADD DUP1 PUSH1 0x40 MSTORE POP DUP2 ADD SWAP1 PUSH2 0x216D SWAP2 SWAP1 PUSH2 0x4D60 JUMP JUMPDEST POP PUSH1 0x0 DUP9 DUP2 MSTORE PUSH1 0x14 PUSH1 0x20 MSTORE PUSH1 0x40 SWAP1 KECCAK256 PUSH1 0x5 DUP2 ADD SLOAD SWAP4 SWAP7 POP SWAP1 SWAP5 POP SWAP3 POP POP DUP3 DUP2 LT PUSH2 0x21BE JUMPI PUSH1 0x40 MLOAD PUSH3 0x461BCD PUSH1 0xE5 SHL DUP2 MSTORE PUSH1 0x20 PUSH1 0x4 DUP3 ADD MSTORE PUSH1 0x2 PUSH1 0x24 DUP3 ADD MSTORE PUSH2 0x4331 PUSH1 0xF0 SHL PUSH1 0x44 DUP3 ADD MSTORE PUSH1 0x64 ADD PUSH2 0x944 JUMP JUMPDEST PUSH1 0x0 DUP2 DUP2 MSTORE PUSH1 0x16 PUSH1 0x20 MSTORE PUSH1 0x40 SWAP1 KECCAK256 SLOAD DUP1 PUSH2 0x2309 JUMPI PUSH2 0x21DD PUSH1 0x1 DUP10 PUSH2 0x51B5 JUMP JUMPDEST SWAP1 POP JUMPDEST DUP6 PUSH2 0x2309 JUMPI PUSH1 0x12 SLOAD PUSH1 0x40 MLOAD PUSH4 0x3906D29 PUSH1 0xE1 SHL DUP2 MSTORE PUSH1 0x4 DUP2 ADD DUP4 SWAP1 MSTORE PUSH1 0x0 SWAP2 PUSH1 0x1 PUSH1 0x1 PUSH1 0xA0 SHL SUB AND SWAP1 PUSH4 0x720DA52 SWAP1 PUSH1 0x24 ADD PUSH1 0xA0 PUSH1 0x40 MLOAD DUP1 DUP4 SUB DUP2 DUP7 DUP1 EXTCODESIZE ISZERO DUP1 ISZERO PUSH2 0x222A JUMPI PUSH1 0x0 DUP1 REVERT JUMPDEST POP GAS STATICCALL ISZERO DUP1 ISZERO PUSH2 0x223E JUMPI RETURNDATASIZE PUSH1 0x0 DUP1 RETURNDATACOPY RETURNDATASIZE PUSH1 0x0 REVERT JUMPDEST POP POP POP POP PUSH1 0x40 MLOAD RETURNDATASIZE PUSH1 0x1F NOT PUSH1 0x1F DUP3 ADD AND DUP3 ADD DUP1 PUSH1 0x40 MSTORE POP DUP2 ADD SWAP1 PUSH2 0x2262 SWAP2 SWAP1 PUSH2 0x4D60 JUMP JUMPDEST POP SWAP4 POP POP POP POP DUP1 PUSH1 0x0 EQ ISZERO PUSH2 0x22B8 JUMPI PUSH1 0x0 DUP3 GT PUSH2 0x22A6 JUMPI PUSH1 0x40 MLOAD PUSH3 0x461BCD PUSH1 0xE5 SHL DUP2 MSTORE PUSH1 0x20 PUSH1 0x4 DUP3 ADD MSTORE PUSH1 0x2 PUSH1 0x24 DUP3 ADD MSTORE PUSH2 0x4333 PUSH1 0xF0 SHL PUSH1 0x44 DUP3 ADD MSTORE PUSH1 0x64 ADD PUSH2 0x944 JUMP JUMPDEST PUSH2 0x22B1 PUSH1 0x1 DUP4 PUSH2 0x51B5 JUMP JUMPDEST SWAP2 POP PUSH2 0x2303 JUMP JUMPDEST DUP3 DUP2 GT ISZERO PUSH2 0x22ED JUMPI PUSH1 0x40 MLOAD PUSH3 0x461BCD PUSH1 0xE5 SHL DUP2 MSTORE PUSH1 0x20 PUSH1 0x4 DUP3 ADD MSTORE PUSH1 0x2 PUSH1 0x24 DUP3 ADD MSTORE PUSH2 0x10CD PUSH1 0xF2 SHL PUSH1 0x44 DUP3 ADD MSTORE PUSH1 0x64 ADD PUSH2 0x944 JUMP JUMPDEST PUSH1 0x0 DUP4 DUP2 MSTORE PUSH1 0x16 PUSH1 0x20 MSTORE PUSH1 0x40 SWAP1 KECCAK256 DUP3 SWAP1 SSTORE PUSH1 0x1 SWAP7 POP JUMPDEST POP PUSH2 0x21E0 JUMP JUMPDEST POP POP POP POP POP SWAP3 SWAP2 POP POP JUMP JUMPDEST DUP1 PUSH1 0x0 JUMPDEST DUP2 DUP2 LT ISZERO PUSH2 0xFC1 JUMPI PUSH2 0x234F DUP5 DUP5 DUP4 DUP2 DUP2 LT PUSH2 0x2343 JUMPI PUSH4 0x4E487B71 PUSH1 0xE0 SHL PUSH1 0x0 MSTORE PUSH1 0x32 PUSH1 0x4 MSTORE PUSH1 0x24 PUSH1 0x0 REVERT JUMPDEST SWAP1 POP PUSH1 0x20 MUL ADD CALLDATALOAD PUSH2 0xD3E JUMP JUMPDEST DUP1 PUSH2 0x2359 DUP2 PUSH2 0x5244 JUMP JUMPDEST SWAP2 POP POP PUSH2 0x2318 JUMP JUMPDEST PUSH1 0x1 PUSH1 0x1 PUSH1 0xA0 SHL SUB SWAP2 DUP3 AND PUSH1 0x0 SWAP1 DUP2 MSTORE PUSH1 0x5 PUSH1 0x20 SWAP1 DUP2 MSTORE PUSH1 0x40 DUP1 DUP4 KECCAK256 SWAP4 SWAP1 SWAP5 AND DUP3 MSTORE SWAP2 SWAP1 SWAP2 MSTORE KECCAK256 SLOAD PUSH1 0xFF AND SWAP1 JUMP JUMPDEST CALLER PUSH2 0x2398 PUSH2 0x16F6 JUMP JUMPDEST PUSH1 0x1 PUSH1 0x1 PUSH1 0xA0 SHL SUB AND EQ PUSH2 0x23BE JUMPI PUSH1 0x40 MLOAD PUSH3 0x461BCD PUSH1 0xE5 SHL DUP2 MSTORE PUSH1 0x4 ADD PUSH2 0x944 SWAP1 PUSH2 0x503D JUMP JUMPDEST PUSH1 0x1 PUSH1 0x1 PUSH1 0xA0 SHL SUB DUP2 AND PUSH2 0x2423 JUMPI PUSH1 0x40 MLOAD PUSH3 0x461BCD PUSH1 0xE5 SHL DUP2 MSTORE PUSH1 0x20 PUSH1 0x4 DUP3 ADD MSTORE PUSH1 0x26 PUSH1 0x24 DUP3 ADD MSTORE PUSH32 0x4F776E61626C653A206E6577206F776E657220697320746865207A65726F2061 PUSH1 0x44 DUP3 ADD MSTORE PUSH6 0x646472657373 PUSH1 0xD0 SHL PUSH1 0x64 DUP3 ADD MSTORE PUSH1 0x84 ADD PUSH2 0x944 JUMP JUMPDEST PUSH2 0xC0E DUP2 PUSH2 0x31DD JUMP JUMPDEST PUSH1 0x0 PUSH2 0x2436 PUSH2 0x2F76 JUMP JUMPDEST SWAP1 POP PUSH1 0x0 DUP1 PUSH1 0x0 DUP1 PUSH2 0x2448 DUP8 DUP8 PUSH2 0x2A44 JUMP JUMPDEST SWAP4 POP SWAP4 POP SWAP4 POP SWAP4 POP PUSH1 0x0 PUSH1 0x40 MLOAD DUP1 PUSH1 0xE0 ADD PUSH1 0x40 MSTORE DUP1 DUP4 PUSH1 0x0 ADD MLOAD PUSH1 0x3 DUP2 GT ISZERO PUSH2 0x2481 JUMPI PUSH4 0x4E487B71 PUSH1 0xE0 SHL PUSH1 0x0 MSTORE PUSH1 0x21 PUSH1 0x4 MSTORE PUSH1 0x24 PUSH1 0x0 REVERT JUMPDEST DUP2 MSTORE PUSH1 0x20 ADD DUP4 PUSH1 0x20 ADD MLOAD DUP2 MSTORE PUSH1 0x20 ADD DUP7 DUP2 MSTORE PUSH1 0x20 ADD DUP5 DUP2 MSTORE PUSH1 0x20 ADD DUP6 DUP2 MSTORE PUSH1 0x20 ADD DUP4 PUSH1 0xA0 ADD MLOAD DUP2 MSTORE PUSH1 0x20 ADD DUP4 PUSH1 0xC0 ADD MLOAD PUSH1 0x2 DUP2 GT ISZERO PUSH2 0x24D0 JUMPI PUSH4 0x4E487B71 PUSH1 0xE0 SHL PUSH1 0x0 MSTORE PUSH1 0x21 PUSH1 0x4 MSTORE PUSH1 0x24 PUSH1 0x0 REVERT JUMPDEST SWAP1 MSTORE SWAP1 POP PUSH2 0x24DE DUP7 DUP3 PUSH2 0x30BA JUMP JUMPDEST PUSH2 0x24E9 DUP7 DUP5 DUP7 PUSH2 0x3172 JUMP JUMPDEST PUSH2 0x24F6 DUP11 DUP11 DUP11 DUP10 DUP12 PUSH2 0x2C92 JUMP JUMPDEST POP POP POP POP POP SWAP5 SWAP4 POP POP POP POP JUMP JUMPDEST PUSH1 0x0 PUSH1 0x1 PUSH1 0x1 PUSH1 0xE0 SHL SUB NOT DUP3 AND PUSH4 0x7965DB0B PUSH1 0xE0 SHL EQ DUP1 PUSH2 0x7FF JUMPI POP PUSH2 0x7FF DUP3 PUSH2 0x3B82 JUMP JUMPDEST PUSH1 0x0 SWAP1 DUP2 MSTORE PUSH1 0x2 PUSH1 0x20 MSTORE PUSH1 0x40 SWAP1 KECCAK256 SLOAD PUSH1 0x1 PUSH1 0x1 PUSH1 0xA0 SHL SUB AND ISZERO ISZERO SWAP1 JUMP JUMPDEST PUSH1 0x0 DUP2 DUP2 MSTORE PUSH1 0x4 PUSH1 0x20 MSTORE PUSH1 0x40 SWAP1 KECCAK256 DUP1 SLOAD PUSH1 0x1 PUSH1 0x1 PUSH1 0xA0 SHL SUB NOT AND PUSH1 0x1 PUSH1 0x1 PUSH1 0xA0 SHL SUB DUP5 AND SWAP1 DUP2 OR SWAP1 SWAP2 SSTORE DUP2 SWAP1 PUSH2 0x257A DUP3 PUSH2 0xFC7 JUMP JUMPDEST PUSH1 0x1 PUSH1 0x1 PUSH1 0xA0 SHL SUB AND PUSH32 0x8C5BE1E5EBEC7D5BD14F71427D1E84F3DD0314C0F7B2291E5B200AC8C7C3B925 PUSH1 0x40 MLOAD PUSH1 0x40 MLOAD DUP1 SWAP2 SUB SWAP1 LOG4 POP POP JUMP JUMPDEST PUSH1 0x0 PUSH2 0x25BE DUP3 PUSH2 0x2528 JUMP JUMPDEST PUSH2 0x261F JUMPI PUSH1 0x40 MLOAD PUSH3 0x461BCD PUSH1 0xE5 SHL DUP2 MSTORE PUSH1 0x20 PUSH1 0x4 DUP3 ADD MSTORE PUSH1 0x2C PUSH1 0x24 DUP3 ADD MSTORE PUSH32 0x4552433732313A206F70657261746F7220717565727920666F72206E6F6E6578 PUSH1 0x44 DUP3 ADD MSTORE PUSH12 0x34B9BA32B73A103A37B5B2B7 PUSH1 0xA1 SHL PUSH1 0x64 DUP3 ADD MSTORE PUSH1 0x84 ADD PUSH2 0x944 JUMP JUMPDEST PUSH1 0x0 PUSH2 0x262A DUP4 PUSH2 0xFC7 JUMP JUMPDEST SWAP1 POP DUP1 PUSH1 0x1 PUSH1 0x1 PUSH1 0xA0 SHL SUB AND DUP5 PUSH1 0x1 PUSH1 0x1 PUSH1 0xA0 SHL SUB AND EQ DUP1 PUSH2 0x2665 JUMPI POP DUP4 PUSH1 0x1 PUSH1 0x1 PUSH1 0xA0 SHL SUB AND PUSH2 0x265A DUP5 PUSH2 0x8DC JUMP JUMPDEST PUSH1 0x1 PUSH1 0x1 PUSH1 0xA0 SHL SUB AND EQ JUMPDEST DUP1 PUSH2 0x2675 JUMPI POP PUSH2 0x2675 DUP2 DUP6 PUSH2 0x2361 JUMP JUMPDEST SWAP5 SWAP4 POP POP POP POP JUMP JUMPDEST DUP3 PUSH1 0x1 PUSH1 0x1 PUSH1 0xA0 SHL SUB AND PUSH2 0x2690 DUP3 PUSH2 0xFC7 JUMP JUMPDEST PUSH1 0x1 PUSH1 0x1 PUSH1 0xA0 SHL SUB AND EQ PUSH2 0x26F8 JUMPI PUSH1 0x40 MLOAD PUSH3 0x461BCD PUSH1 0xE5 SHL DUP2 MSTORE PUSH1 0x20 PUSH1 0x4 DUP3 ADD MSTORE PUSH1 0x29 PUSH1 0x24 DUP3 ADD MSTORE PUSH32 0x4552433732313A207472616E73666572206F6620746F6B656E20746861742069 PUSH1 0x44 DUP3 ADD MSTORE PUSH9 0x39903737BA1037BBB7 PUSH1 0xB9 SHL PUSH1 0x64 DUP3 ADD MSTORE PUSH1 0x84 ADD PUSH2 0x944 JUMP JUMPDEST PUSH1 0x1 PUSH1 0x1 PUSH1 0xA0 SHL SUB DUP3 AND PUSH2 0x275A JUMPI PUSH1 0x40 MLOAD PUSH3 0x461BCD PUSH1 0xE5 SHL DUP2 MSTORE PUSH1 0x20 PUSH1 0x4 DUP3 ADD MSTORE PUSH1 0x24 DUP1 DUP3 ADD MSTORE PUSH32 0x4552433732313A207472616E7366657220746F20746865207A65726F20616464 PUSH1 0x44 DUP3 ADD MSTORE PUSH4 0x72657373 PUSH1 0xE0 SHL PUSH1 0x64 DUP3 ADD MSTORE PUSH1 0x84 ADD PUSH2 0x944 JUMP JUMPDEST PUSH2 0x2765 DUP4 DUP4 DUP4 PUSH2 0x3BD2 JUMP JUMPDEST PUSH2 0x2770 PUSH1 0x0 DUP3 PUSH2 0x2545 JUMP JUMPDEST PUSH1 0x1 PUSH1 0x1 PUSH1 0xA0 SHL SUB DUP4 AND PUSH1 0x0 SWAP1 DUP2 MSTORE PUSH1 0x3 PUSH1 0x20 MSTORE PUSH1 0x40 DUP2 KECCAK256 DUP1 SLOAD PUSH1 0x1 SWAP3 SWAP1 PUSH2 0x2799 SWAP1 DUP5 SWAP1 PUSH2 0x51B5 JUMP JUMPDEST SWAP1 SWAP2 SSTORE POP POP PUSH1 0x1 PUSH1 0x1 PUSH1 0xA0 SHL SUB DUP3 AND PUSH1 0x0 SWAP1 DUP2 MSTORE PUSH1 0x3 PUSH1 0x20 MSTORE PUSH1 0x40 DUP2 KECCAK256 DUP1 SLOAD PUSH1 0x1 SWAP3 SWAP1 PUSH2 0x27C7 SWAP1 DUP5 SWAP1 PUSH2 0x516A JUMP JUMPDEST SWAP1 SWAP2 SSTORE POP POP PUSH1 0x0 DUP2 DUP2 MSTORE PUSH1 0x2 PUSH1 0x20 MSTORE PUSH1 0x40 DUP1 DUP3 KECCAK256 DUP1 SLOAD PUSH1 0x1 PUSH1 0x1 PUSH1 0xA0 SHL SUB NOT AND PUSH1 0x1 PUSH1 0x1 PUSH1 0xA0 SHL SUB DUP7 DUP2 AND SWAP2 DUP3 OR SWAP1 SWAP3 SSTORE SWAP2 MLOAD DUP5 SWAP4 SWAP2 DUP8 AND SWAP2 PUSH1 0x0 DUP1 MLOAD PUSH1 0x20 PUSH2 0x5327 DUP4 CODECOPY DUP2 MLOAD SWAP2 MSTORE SWAP2 LOG4 POP POP POP JUMP JUMPDEST PUSH2 0x2820 DUP3 DUP3 PUSH2 0x1705 JUMP JUMPDEST PUSH2 0xB69 JUMPI PUSH2 0x2838 DUP2 PUSH1 0x1 PUSH1 0x1 PUSH1 0xA0 SHL SUB AND PUSH1 0x14 PUSH2 0x3BEA JUMP JUMPDEST PUSH2 0x2843 DUP4 PUSH1 0x20 PUSH2 0x3BEA JUMP JUMPDEST PUSH1 0x40 MLOAD PUSH1 0x20 ADD PUSH2 0x2854 SWAP3 SWAP2 SWAP1 PUSH2 0x4E1E JUMP JUMPDEST PUSH1 0x40 DUP1 MLOAD PUSH1 0x1F NOT DUP2 DUP5 SUB ADD DUP2 MSTORE SWAP1 DUP3 SWAP1 MSTORE PUSH3 0x461BCD PUSH1 0xE5 SHL DUP3 MSTORE PUSH2 0x944 SWAP2 PUSH1 0x4 ADD PUSH2 0x4F83 JUMP JUMPDEST PUSH2 0x2884 DUP3 DUP3 PUSH2 0x1705 JUMP JUMPDEST PUSH2 0xB69 JUMPI PUSH1 0x0 DUP3 DUP2 MSTORE PUSH1 0x8 PUSH1 0x20 SWAP1 DUP2 MSTORE PUSH1 0x40 DUP1 DUP4 KECCAK256 PUSH1 0x1 PUSH1 0x1 PUSH1 0xA0 SHL SUB DUP6 AND DUP5 MSTORE SWAP1 SWAP2 MSTORE SWAP1 KECCAK256 DUP1 SLOAD PUSH1 0xFF NOT AND PUSH1 0x1 OR SWAP1 SSTORE PUSH2 0x28BC CALLER SWAP1 JUMP JUMPDEST PUSH1 0x1 PUSH1 0x1 PUSH1 0xA0 SHL SUB AND DUP2 PUSH1 0x1 PUSH1 0x1 PUSH1 0xA0 SHL SUB AND DUP4 PUSH32 0x2F8788117E7EFF1D82E926EC794901D17C78024A50270940304540A733656F0D PUSH1 0x40 MLOAD PUSH1 0x40 MLOAD DUP1 SWAP2 SUB SWAP1 LOG4 POP POP JUMP JUMPDEST PUSH2 0x290A DUP3 DUP3 PUSH2 0x1705 JUMP JUMPDEST ISZERO PUSH2 0xB69 JUMPI PUSH1 0x0 DUP3 DUP2 MSTORE PUSH1 0x8 PUSH1 0x20 SWAP1 DUP2 MSTORE PUSH1 0x40 DUP1 DUP4 KECCAK256 PUSH1 0x1 PUSH1 0x1 PUSH1 0xA0 SHL SUB DUP6 AND DUP1 DUP6 MSTORE SWAP3 MSTORE DUP1 DUP4 KECCAK256 DUP1 SLOAD PUSH1 0xFF NOT AND SWAP1 SSTORE MLOAD CALLER SWAP3 DUP6 SWAP2 PUSH32 0xF6391F5C32D9C69D2A47EA670B442974B53935D1EDC7FD64EB21E047A839171B SWAP2 SWAP1 LOG4 POP POP JUMP JUMPDEST PUSH1 0x0 DUP3 DUP2 MSTORE PUSH1 0xB PUSH1 0x20 SWAP1 DUP2 MSTORE PUSH1 0x40 DUP1 DUP4 KECCAK256 PUSH1 0x1 PUSH1 0x1 PUSH1 0xA0 SHL SUB DUP8 AND DUP5 MSTORE PUSH1 0x1 ADD SWAP1 SWAP2 MSTORE SWAP1 KECCAK256 SLOAD PUSH2 0x29C9 JUMPI PUSH1 0x0 DUP3 DUP2 MSTORE PUSH1 0xB PUSH1 0x20 SWAP1 DUP2 MSTORE PUSH1 0x40 DUP3 KECCAK256 DUP1 SLOAD PUSH1 0x1 DUP2 ADD DUP3 SSTORE SWAP1 DUP4 MSTORE SWAP2 KECCAK256 ADD DUP1 SLOAD PUSH1 0x1 PUSH1 0x1 PUSH1 0xA0 SHL SUB NOT AND PUSH1 0x1 PUSH1 0x1 PUSH1 0xA0 SHL SUB DUP6 AND OR SWAP1 SSTORE JUMPDEST PUSH1 0x0 DUP3 DUP2 MSTORE PUSH1 0xB PUSH1 0x20 SWAP1 DUP2 MSTORE PUSH1 0x40 DUP1 DUP4 KECCAK256 PUSH1 0x1 PUSH1 0x1 PUSH1 0xA0 SHL SUB DUP8 AND DUP1 DUP6 MSTORE PUSH1 0x1 SWAP1 SWAP2 ADD DUP4 MSTORE SWAP3 DUP2 SWAP1 KECCAK256 DUP5 SWAP1 SSTORE MLOAD DUP4 DUP2 MSTORE DUP5 SWAP3 SWAP2 PUSH32 0x8A156BD946DC74EC284C5F4B365CE75EF2A5B9D9462B4CDB1D2400CABF136541 SWAP2 ADD PUSH1 0x40 MLOAD DUP1 SWAP2 SUB SWAP1 LOG3 POP POP POP JUMP JUMPDEST PUSH1 0x0 DUP2 DUP2 MSTORE PUSH1 0xA PUSH1 0x20 MSTORE PUSH1 0x40 DUP2 KECCAK256 SSTORE PUSH2 0xC0E DUP2 PUSH2 0x3DCB JUMP JUMPDEST PUSH1 0x0 DUP1 PUSH1 0x0 PUSH2 0x2A51 PUSH2 0x46B3 JUMP JUMPDEST PUSH2 0x2A5A DUP7 PUSH2 0x2B71 JUMP JUMPDEST SWAP1 POP PUSH1 0x0 PUSH2 0x2A67 DUP8 PUSH2 0x1D5E JUMP JUMPDEST SWAP1 POP DUP1 DUP7 DUP4 PUSH1 0x40 ADD MLOAD PUSH2 0x2A7A SWAP2 SWAP1 PUSH2 0x5196 JUMP JUMPDEST PUSH2 0x2A84 SWAP2 SWAP1 PUSH2 0x5182 JUMP JUMPDEST SWAP5 POP DUP1 DUP7 DUP4 PUSH1 0x80 ADD MLOAD PUSH2 0x2A97 SWAP2 SWAP1 PUSH2 0x5196 JUMP JUMPDEST PUSH2 0x2AA1 SWAP2 SWAP1 PUSH2 0x5182 JUMP JUMPDEST SWAP4 POP DUP1 DUP7 DUP4 PUSH1 0x60 ADD MLOAD PUSH2 0x2AB4 SWAP2 SWAP1 PUSH2 0x5196 JUMP JUMPDEST PUSH2 0x2ABE SWAP2 SWAP1 PUSH2 0x5182 JUMP JUMPDEST SWAP3 POP PUSH2 0x2AF5 DUP8 DUP4 DUP6 DUP6 PUSH1 0x60 ADD MLOAD PUSH2 0x2AD5 SWAP2 SWAP1 PUSH2 0x51B5 JUMP JUMPDEST DUP9 DUP7 PUSH1 0x40 ADD MLOAD PUSH2 0x2AE5 SWAP2 SWAP1 PUSH2 0x51B5 JUMP JUMPDEST DUP9 DUP8 PUSH1 0x80 ADD MLOAD PUSH2 0xCA4 SWAP2 SWAP1 PUSH2 0x51B5 JUMP JUMPDEST PUSH1 0x17 SLOAD PUSH1 0x60 DUP3 ADD MLOAD PUSH1 0x80 DUP4 ADD MLOAD PUSH1 0x40 MLOAD PUSH4 0x57A5C967 PUSH1 0xE0 SHL DUP2 MSTORE SWAP4 SWAP6 POP PUSH1 0x1 PUSH1 0x1 PUSH1 0xA0 SHL SUB SWAP1 SWAP3 AND SWAP3 PUSH4 0x57A5C967 SWAP3 PUSH2 0x2B35 SWAP3 DUP13 SWAP3 SWAP1 SWAP2 SWAP1 PUSH1 0x4 ADD PUSH2 0x5154 JUMP JUMPDEST PUSH1 0x0 PUSH1 0x40 MLOAD DUP1 DUP4 SUB DUP2 PUSH1 0x0 DUP8 DUP1 EXTCODESIZE ISZERO DUP1 ISZERO PUSH2 0x2B4F JUMPI PUSH1 0x0 DUP1 REVERT JUMPDEST POP GAS CALL ISZERO DUP1 ISZERO PUSH2 0x2B63 JUMPI RETURNDATASIZE PUSH1 0x0 DUP1 RETURNDATACOPY RETURNDATASIZE PUSH1 0x0 REVERT JUMPDEST POP POP POP POP POP SWAP3 SWAP6 SWAP2 SWAP5 POP SWAP3 POP JUMP JUMPDEST PUSH2 0x2B79 PUSH2 0x46B3 JUMP JUMPDEST PUSH1 0x0 DUP3 DUP2 MSTORE PUSH1 0x14 PUSH1 0x20 MSTORE PUSH1 0x40 SWAP1 DUP2 SWAP1 KECCAK256 DUP2 MLOAD PUSH1 0xE0 DUP2 ADD SWAP1 SWAP3 MSTORE DUP1 SLOAD DUP3 SWAP1 PUSH1 0xFF AND PUSH1 0x3 DUP2 GT ISZERO PUSH2 0x2BB8 JUMPI PUSH4 0x4E487B71 PUSH1 0xE0 SHL PUSH1 0x0 MSTORE PUSH1 0x21 PUSH1 0x4 MSTORE PUSH1 0x24 PUSH1 0x0 REVERT JUMPDEST PUSH1 0x3 DUP2 GT ISZERO PUSH2 0x2BD7 JUMPI PUSH4 0x4E487B71 PUSH1 0xE0 SHL PUSH1 0x0 MSTORE PUSH1 0x21 PUSH1 0x4 MSTORE PUSH1 0x24 PUSH1 0x0 REVERT JUMPDEST DUP2 MSTORE PUSH1 0x1 DUP3 ADD SLOAD PUSH1 0x20 DUP3 ADD MSTORE PUSH1 0x2 DUP1 DUP4 ADD SLOAD PUSH1 0x40 DUP4 ADD MSTORE PUSH1 0x3 DUP4 ADD SLOAD PUSH1 0x60 DUP4 ADD MSTORE PUSH1 0x4 DUP4 ADD SLOAD PUSH1 0x80 DUP4 ADD MSTORE PUSH1 0x5 DUP4 ADD SLOAD PUSH1 0xA0 DUP4 ADD MSTORE PUSH1 0x6 DUP4 ADD SLOAD PUSH1 0xC0 SWAP1 SWAP3 ADD SWAP2 PUSH1 0xFF AND SWAP1 DUP2 GT ISZERO PUSH2 0x2C38 JUMPI PUSH4 0x4E487B71 PUSH1 0xE0 SHL PUSH1 0x0 MSTORE PUSH1 0x21 PUSH1 0x4 MSTORE PUSH1 0x24 PUSH1 0x0 REVERT JUMPDEST PUSH1 0x2 DUP2 GT ISZERO PUSH2 0x2C57 JUMPI PUSH4 0x4E487B71 PUSH1 0xE0 SHL PUSH1 0x0 MSTORE PUSH1 0x21 PUSH1 0x4 MSTORE PUSH1 0x24 PUSH1 0x0 REVERT JUMPDEST SWAP1 MSTORE POP SWAP3 SWAP2 POP POP JUMP JUMPDEST PUSH2 0x2C68 PUSH2 0x46B3 JUMP JUMPDEST POP PUSH1 0x60 DUP5 ADD DUP4 SWAP1 MSTORE PUSH1 0x40 DUP5 ADD DUP3 SWAP1 MSTORE PUSH1 0x80 DUP5 ADD DUP2 SWAP1 MSTORE DUP4 PUSH2 0x2C89 DUP7 DUP3 PUSH2 0x30BA JUMP JUMPDEST SWAP6 SWAP5 POP POP POP POP POP JUMP JUMPDEST PUSH2 0x2C9B DUP4 PUSH2 0xFC7 JUMP JUMPDEST PUSH1 0x1 PUSH1 0x1 PUSH1 0xA0 SHL SUB AND DUP6 PUSH1 0x1 PUSH1 0x1 PUSH1 0xA0 SHL SUB AND EQ PUSH2 0x2CE0 JUMPI PUSH1 0x40 MLOAD PUSH3 0x461BCD PUSH1 0xE5 SHL DUP2 MSTORE PUSH1 0x20 PUSH1 0x4 DUP3 ADD MSTORE PUSH1 0x2 PUSH1 0x24 DUP3 ADD MSTORE PUSH2 0x4E39 PUSH1 0xF0 SHL PUSH1 0x44 DUP3 ADD MSTORE PUSH1 0x64 ADD PUSH2 0x944 JUMP JUMPDEST PUSH1 0x1 PUSH1 0x1 PUSH1 0xA0 SHL SUB DUP5 AND PUSH2 0x2D1C JUMPI PUSH1 0x40 MLOAD PUSH3 0x461BCD PUSH1 0xE5 SHL DUP2 MSTORE PUSH1 0x20 PUSH1 0x4 DUP3 ADD MSTORE PUSH1 0x3 PUSH1 0x24 DUP3 ADD MSTORE PUSH3 0x4E313 PUSH1 0xEC SHL PUSH1 0x44 DUP3 ADD MSTORE PUSH1 0x64 ADD PUSH2 0x944 JUMP JUMPDEST CALLER PUSH1 0x1 PUSH1 0x1 PUSH1 0xA0 SHL SUB DUP7 AND EQ DUP1 ISZERO SWAP1 PUSH2 0x2D3C JUMPI POP PUSH2 0x2D3A DUP6 CALLER PUSH2 0x2361 JUMP JUMPDEST ISZERO JUMPDEST ISZERO PUSH2 0x2D87 JUMPI PUSH1 0x0 DUP4 DUP2 MSTORE PUSH1 0xB PUSH1 0x20 SWAP1 DUP2 MSTORE PUSH1 0x40 DUP1 DUP4 KECCAK256 CALLER DUP5 MSTORE PUSH1 0x1 ADD SWAP1 SWAP2 MSTORE SWAP1 KECCAK256 SLOAD PUSH2 0x2D69 SWAP1 DUP3 SWAP1 PUSH2 0x51B5 JUMP JUMPDEST PUSH1 0x0 DUP5 DUP2 MSTORE PUSH1 0xB PUSH1 0x20 SWAP1 DUP2 MSTORE PUSH1 0x40 DUP1 DUP4 KECCAK256 CALLER DUP5 MSTORE PUSH1 0x1 ADD SWAP1 SWAP2 MSTORE SWAP1 KECCAK256 SSTORE JUMPDEST PUSH1 0x0 DUP4 DUP2 MSTORE PUSH1 0xF PUSH1 0x20 MSTORE PUSH1 0x40 SWAP1 KECCAK256 SLOAD PUSH2 0x2DA1 SWAP1 DUP3 SWAP1 PUSH2 0x51B5 JUMP JUMPDEST PUSH1 0x0 DUP5 DUP2 MSTORE PUSH1 0xF PUSH1 0x20 MSTORE PUSH1 0x40 SWAP1 KECCAK256 SSTORE PUSH2 0x2DB9 DUP3 PUSH2 0x2528 JUMP JUMPDEST PUSH2 0x2DD6 JUMPI PUSH2 0x2DD1 DUP5 DUP4 PUSH2 0x2DCB DUP7 PUSH2 0xAC0 JUMP JUMPDEST DUP5 PUSH2 0x3E5D JUMP JUMPDEST PUSH2 0x2E7E JUMP JUMPDEST DUP4 PUSH1 0x1 PUSH1 0x1 PUSH1 0xA0 SHL SUB AND PUSH2 0x2DE9 DUP4 PUSH2 0xFC7 JUMP JUMPDEST PUSH1 0x1 PUSH1 0x1 PUSH1 0xA0 SHL SUB AND EQ PUSH2 0x2E25 JUMPI PUSH1 0x40 MLOAD PUSH3 0x461BCD PUSH1 0xE5 SHL DUP2 MSTORE PUSH1 0x20 PUSH1 0x4 DUP3 ADD MSTORE PUSH1 0x3 PUSH1 0x24 DUP3 ADD MSTORE PUSH3 0x4E3131 PUSH1 0xE8 SHL PUSH1 0x44 DUP3 ADD MSTORE PUSH1 0x64 ADD PUSH2 0x944 JUMP JUMPDEST PUSH2 0x2E2E DUP3 PUSH2 0xAC0 JUMP JUMPDEST PUSH2 0x2E37 DUP5 PUSH2 0xAC0 JUMP JUMPDEST EQ PUSH2 0x2E54 JUMPI PUSH1 0x40 MLOAD PUSH3 0x461BCD PUSH1 0xE5 SHL DUP2 MSTORE PUSH1 0x4 ADD PUSH2 0x944 SWAP1 PUSH2 0x5021 JUMP JUMPDEST PUSH1 0x0 DUP3 DUP2 MSTORE PUSH1 0xF PUSH1 0x20 MSTORE PUSH1 0x40 SWAP1 KECCAK256 SLOAD PUSH2 0x2E6E SWAP1 DUP3 SWAP1 PUSH2 0x516A JUMP JUMPDEST PUSH1 0x0 DUP4 DUP2 MSTORE PUSH1 0xF PUSH1 0x20 MSTORE PUSH1 0x40 SWAP1 KECCAK256 SSTORE JUMPDEST PUSH1 0x0 DUP4 DUP2 MSTORE PUSH1 0xA PUSH1 0x20 MSTORE PUSH1 0x40 DUP1 DUP3 KECCAK256 SLOAD DUP5 DUP4 MSTORE SWAP2 DUP2 SWAP1 KECCAK256 SWAP2 SWAP1 SWAP2 SSTORE MLOAD DUP4 SWAP1 PUSH1 0x1 PUSH1 0x1 PUSH1 0xA0 SHL SUB DUP1 DUP8 AND SWAP2 SWAP1 DUP9 AND SWAP1 PUSH1 0x0 DUP1 MLOAD PUSH1 0x20 PUSH2 0x5347 DUP4 CODECOPY DUP2 MLOAD SWAP2 MSTORE SWAP1 PUSH2 0x2EC9 SWAP1 DUP8 SWAP1 DUP8 SWAP1 PUSH2 0x4F75 JUMP JUMPDEST PUSH1 0x40 MLOAD DUP1 SWAP2 SUB SWAP1 LOG4 POP POP POP POP POP JUMP JUMPDEST PUSH1 0x0 PUSH1 0x64 PUSH1 0x18 PUSH1 0x0 SWAP1 SLOAD SWAP1 PUSH2 0x100 EXP SWAP1 DIV PUSH1 0x1 PUSH1 0x1 PUSH1 0xA0 SHL SUB AND PUSH1 0x1 PUSH1 0x1 PUSH1 0xA0 SHL SUB AND PUSH4 0xF3FA3495 PUSH1 0x40 MLOAD DUP2 PUSH4 0xFFFFFFFF AND PUSH1 0xE0 SHL DUP2 MSTORE PUSH1 0x4 ADD PUSH1 0x20 PUSH1 0x40 MLOAD DUP1 DUP4 SUB DUP2 DUP7 DUP1 EXTCODESIZE ISZERO DUP1 ISZERO PUSH2 0x2F2A JUMPI PUSH1 0x0 DUP1 REVERT JUMPDEST POP GAS STATICCALL ISZERO DUP1 ISZERO PUSH2 0x2F3E JUMPI RETURNDATASIZE PUSH1 0x0 DUP1 RETURNDATACOPY RETURNDATASIZE PUSH1 0x0 REVERT JUMPDEST POP POP POP POP PUSH1 0x40 MLOAD RETURNDATASIZE PUSH1 0x1F NOT PUSH1 0x1F DUP3 ADD AND DUP3 ADD DUP1 PUSH1 0x40 MSTORE POP DUP2 ADD SWAP1 PUSH2 0x2F62 SWAP2 SWAP1 PUSH2 0x4BE7 JUMP JUMPDEST PUSH2 0x2F6C SWAP1 DUP5 PUSH2 0x5196 JUMP JUMPDEST PUSH2 0x7FF SWAP2 SWAP1 PUSH2 0x5182 JUMP JUMPDEST PUSH1 0x13 DUP1 SLOAD PUSH1 0x0 SWAP2 DUP3 PUSH2 0x2F87 DUP4 PUSH2 0x5244 JUMP JUMPDEST SWAP2 SWAP1 POP SSTORE SWAP1 POP SWAP1 JUMP JUMPDEST PUSH2 0x2F9A CALLER DUP5 PUSH2 0x25B3 JUMP JUMPDEST PUSH2 0x2FCB JUMPI PUSH1 0x40 MLOAD PUSH3 0x461BCD PUSH1 0xE5 SHL DUP2 MSTORE PUSH1 0x20 PUSH1 0x4 DUP3 ADD MSTORE PUSH1 0x2 PUSH1 0x24 DUP3 ADD MSTORE PUSH2 0x2719 PUSH1 0xF1 SHL PUSH1 0x44 DUP3 ADD MSTORE PUSH1 0x64 ADD PUSH2 0x944 JUMP JUMPDEST PUSH2 0x2FD4 DUP3 PUSH2 0x2528 JUMP JUMPDEST ISZERO PUSH2 0x3006 JUMPI PUSH1 0x40 MLOAD PUSH3 0x461BCD PUSH1 0xE5 SHL DUP2 MSTORE PUSH1 0x20 PUSH1 0x4 DUP3 ADD MSTORE PUSH1 0x2 PUSH1 0x24 DUP3 ADD MSTORE PUSH2 0x4E33 PUSH1 0xF0 SHL PUSH1 0x44 DUP3 ADD MSTORE PUSH1 0x64 ADD PUSH2 0x944 JUMP JUMPDEST PUSH2 0x3025 DUP3 PUSH2 0x3013 DUP6 PUSH2 0xAC0 JUMP JUMPDEST PUSH1 0x0 SWAP2 DUP3 MSTORE PUSH1 0xA PUSH1 0x20 MSTORE PUSH1 0x40 SWAP1 SWAP2 KECCAK256 SSTORE JUMP JUMPDEST PUSH1 0x0 DUP4 DUP2 MSTORE PUSH1 0xF PUSH1 0x20 MSTORE PUSH1 0x40 SWAP1 KECCAK256 SLOAD PUSH2 0x303F SWAP1 DUP3 SWAP1 PUSH2 0x51B5 JUMP JUMPDEST PUSH1 0x0 DUP5 DUP2 MSTORE PUSH1 0xF PUSH1 0x20 MSTORE PUSH1 0x40 DUP2 KECCAK256 SWAP2 SWAP1 SWAP2 SSTORE PUSH2 0x305A DUP5 PUSH2 0xFC7 JUMP JUMPDEST SWAP1 POP PUSH2 0x3070 DUP2 DUP5 PUSH2 0x306A DUP8 PUSH2 0xAC0 JUMP JUMPDEST DUP6 PUSH2 0x3E5D JUMP JUMPDEST DUP4 DUP2 PUSH1 0x1 PUSH1 0x1 PUSH1 0xA0 SHL SUB AND PUSH32 0xF66885C33D648FCD0D97E0F2A18E30102169C22763473AF0FB716F11B4A17DD6 DUP6 DUP6 PUSH1 0x40 MLOAD PUSH2 0x30AC SWAP3 SWAP2 SWAP1 PUSH2 0x4F75 JUMP JUMPDEST PUSH1 0x40 MLOAD DUP1 SWAP2 SUB SWAP1 LOG3 POP POP POP POP JUMP JUMPDEST PUSH1 0x0 DUP3 DUP2 MSTORE PUSH1 0x14 PUSH1 0x20 MSTORE PUSH1 0x40 SWAP1 KECCAK256 DUP2 MLOAD DUP2 SLOAD DUP4 SWAP3 SWAP2 SWAP1 DUP3 SWAP1 PUSH1 0xFF NOT AND PUSH1 0x1 DUP4 PUSH1 0x3 DUP2 GT ISZERO PUSH2 0x30F8 JUMPI PUSH4 0x4E487B71 PUSH1 0xE0 SHL PUSH1 0x0 MSTORE PUSH1 0x21 PUSH1 0x4 MSTORE PUSH1 0x24 PUSH1 0x0 REVERT JUMPDEST MUL OR SWAP1 SSTORE POP PUSH1 0x20 DUP3 ADD MLOAD DUP2 PUSH1 0x1 ADD SSTORE PUSH1 0x40 DUP3 ADD MLOAD DUP2 PUSH1 0x2 ADD SSTORE PUSH1 0x60 DUP3 ADD MLOAD DUP2 PUSH1 0x3 ADD SSTORE PUSH1 0x80 DUP3 ADD MLOAD DUP2 PUSH1 0x4 ADD SSTORE PUSH1 0xA0 DUP3 ADD MLOAD DUP2 PUSH1 0x5 ADD SSTORE PUSH1 0xC0 DUP3 ADD MLOAD DUP2 PUSH1 0x6 ADD PUSH1 0x0 PUSH2 0x100 EXP DUP2 SLOAD DUP2 PUSH1 0xFF MUL NOT AND SWAP1 DUP4 PUSH1 0x2 DUP2 GT ISZERO PUSH2 0x3167 JUMPI PUSH4 0x4E487B71 PUSH1 0xE0 SHL PUSH1 0x0 MSTORE PUSH1 0x21 PUSH1 0x4 MSTORE PUSH1 0x24 PUSH1 0x0 REVERT JUMPDEST MUL OR SWAP1 SSTORE POP POP POP POP POP JUMP JUMPDEST PUSH1 0x17 SLOAD PUSH1 0x40 MLOAD PUSH4 0xEDD0D421 PUSH1 0xE0 SHL DUP2 MSTORE PUSH1 0x1 PUSH1 0x1 PUSH1 0xA0 SHL SUB SWAP1 SWAP2 AND SWAP1 PUSH4 0xEDD0D421 SWAP1 PUSH2 0x31A6 SWAP1 DUP7 SWAP1 DUP7 SWAP1 DUP7 SWAP1 PUSH1 0x4 ADD PUSH2 0x5154 JUMP JUMPDEST PUSH1 0x0 PUSH1 0x40 MLOAD DUP1 DUP4 SUB DUP2 PUSH1 0x0 DUP8 DUP1 EXTCODESIZE ISZERO DUP1 ISZERO PUSH2 0x31C0 JUMPI PUSH1 0x0 DUP1 REVERT JUMPDEST POP GAS CALL ISZERO DUP1 ISZERO PUSH2 0x31D4 JUMPI RETURNDATASIZE PUSH1 0x0 DUP1 RETURNDATACOPY RETURNDATASIZE PUSH1 0x0 REVERT JUMPDEST POP POP POP POP POP POP POP JUMP JUMPDEST PUSH1 0x6 DUP1 SLOAD PUSH1 0x1 PUSH1 0x1 PUSH1 0xA0 SHL SUB DUP4 DUP2 AND PUSH1 0x1 PUSH1 0x1 PUSH1 0xA0 SHL SUB NOT DUP4 AND DUP2 OR SWAP1 SWAP4 SSTORE PUSH1 0x40 MLOAD SWAP2 AND SWAP2 SWAP1 DUP3 SWAP1 PUSH32 0x8BE0079C531659141344CD1FD0A4F28419497F9722A3DAAFE3B4186F6B6457E0 SWAP1 PUSH1 0x0 SWAP1 LOG3 POP POP JUMP JUMPDEST PUSH1 0x0 PUSH2 0x7FF DUP3 SLOAD SWAP1 JUMP JUMPDEST PUSH2 0x3244 DUP5 DUP5 DUP5 PUSH2 0x267D JUMP JUMPDEST PUSH2 0x3250 DUP5 DUP5 DUP5 DUP5 PUSH2 0x3EE7 JUMP JUMPDEST PUSH2 0xFC1 JUMPI PUSH1 0x40 MLOAD PUSH3 0x461BCD PUSH1 0xE5 SHL DUP2 MSTORE PUSH1 0x4 ADD PUSH2 0x944 SWAP1 PUSH2 0x4FB2 JUMP JUMPDEST PUSH2 0x3275 CALLER PUSH2 0x1B21 JUMP JUMPDEST PUSH2 0x32A6 JUMPI PUSH1 0x40 MLOAD PUSH3 0x461BCD PUSH1 0xE5 SHL DUP2 MSTORE PUSH1 0x20 PUSH1 0x4 DUP3 ADD MSTORE PUSH1 0x2 PUSH1 0x24 DUP3 ADD MSTORE PUSH2 0x4E35 PUSH1 0xF0 SHL PUSH1 0x44 DUP3 ADD MSTORE PUSH1 0x64 ADD PUSH2 0x944 JUMP JUMPDEST DUP1 DUP3 EQ ISZERO PUSH2 0x32DB JUMPI PUSH1 0x40 MLOAD PUSH3 0x461BCD PUSH1 0xE5 SHL DUP2 MSTORE PUSH1 0x20 PUSH1 0x4 DUP3 ADD MSTORE PUSH1 0x2 PUSH1 0x24 DUP3 ADD MSTORE PUSH2 0x271B PUSH1 0xF1 SHL PUSH1 0x44 DUP3 ADD MSTORE PUSH1 0x64 ADD PUSH2 0x944 JUMP JUMPDEST PUSH2 0x32E4 DUP2 PUSH2 0xAC0 JUMP JUMPDEST PUSH2 0x32ED DUP4 PUSH2 0xAC0 JUMP JUMPDEST EQ PUSH2 0x330A JUMPI PUSH1 0x40 MLOAD PUSH3 0x461BCD PUSH1 0xE5 SHL DUP2 MSTORE PUSH1 0x4 ADD PUSH2 0x944 SWAP1 PUSH2 0x5021 JUMP JUMPDEST PUSH1 0x0 PUSH2 0x3315 DUP4 PUSH2 0xFC7 JUMP JUMPDEST SWAP1 POP PUSH2 0x3320 DUP3 PUSH2 0xFC7 JUMP JUMPDEST PUSH1 0x1 PUSH1 0x1 PUSH1 0xA0 SHL SUB AND DUP2 PUSH1 0x1 PUSH1 0x1 PUSH1 0xA0 SHL SUB AND EQ PUSH2 0x3365 JUMPI PUSH1 0x40 MLOAD PUSH3 0x461BCD PUSH1 0xE5 SHL DUP2 MSTORE PUSH1 0x20 PUSH1 0x4 DUP3 ADD MSTORE PUSH1 0x2 PUSH1 0x24 DUP3 ADD MSTORE PUSH2 0x9C7 PUSH1 0xF3 SHL PUSH1 0x44 DUP3 ADD MSTORE PUSH1 0x64 ADD PUSH2 0x944 JUMP JUMPDEST PUSH1 0x0 DUP4 DUP2 MSTORE PUSH1 0xF PUSH1 0x20 MSTORE PUSH1 0x40 DUP1 DUP3 KECCAK256 SLOAD DUP5 DUP4 MSTORE SWAP2 KECCAK256 SLOAD PUSH2 0x3385 SWAP1 DUP3 PUSH2 0x516A JUMP JUMPDEST PUSH1 0x0 DUP5 DUP2 MSTORE PUSH1 0xF PUSH1 0x20 MSTORE PUSH1 0x40 SWAP1 KECCAK256 SSTORE PUSH2 0x339D DUP5 PUSH2 0x2A2C JUMP JUMPDEST DUP3 DUP5 DUP4 PUSH1 0x1 PUSH1 0x1 PUSH1 0xA0 SHL SUB AND PUSH32 0xB3CE851D16B3BBEC3774D5631A3893DFA2A80E067CFAD265DD594402AC3D6096 DUP5 PUSH1 0x40 MLOAD PUSH2 0x33DA SWAP2 DUP2 MSTORE PUSH1 0x20 ADD SWAP1 JUMP JUMPDEST PUSH1 0x40 MLOAD DUP1 SWAP2 SUB SWAP1 LOG4 POP POP POP POP JUMP JUMPDEST PUSH1 0x0 DUP4 DUP4 DUP4 DUP8 PUSH1 0x40 MLOAD PUSH1 0x20 ADD PUSH2 0x3401 SWAP5 SWAP4 SWAP3 SWAP2 SWAP1 PUSH2 0x510B JUMP JUMPDEST PUSH1 0x40 DUP1 MLOAD DUP1 DUP4 SUB PUSH1 0x1F NOT ADD DUP2 MSTORE SWAP2 DUP2 MSTORE DUP2 MLOAD PUSH1 0x20 SWAP3 DUP4 ADD KECCAK256 PUSH1 0x0 DUP2 DUP2 MSTORE PUSH1 0x19 SWAP1 SWAP4 MSTORE SWAP2 KECCAK256 PUSH1 0x2 ADD SLOAD SWAP1 SWAP2 POP PUSH2 0x100 SWAP1 DIV PUSH1 0xFF AND ISZERO PUSH2 0x3467 JUMPI PUSH1 0x40 MLOAD PUSH3 0x461BCD PUSH1 0xE5 SHL DUP2 MSTORE PUSH1 0x20 PUSH1 0x4 DUP3 ADD MSTORE PUSH1 0x3 PUSH1 0x24 DUP3 ADD MSTORE PUSH3 0x138C4D PUSH1 0xEA SHL PUSH1 0x44 DUP3 ADD MSTORE PUSH1 0x64 ADD PUSH2 0x944 JUMP JUMPDEST PUSH1 0x40 MLOAD DUP1 PUSH1 0x80 ADD PUSH1 0x40 MSTORE DUP1 DUP6 DUP2 MSTORE PUSH1 0x20 ADD DUP5 DUP2 MSTORE PUSH1 0x20 ADD DUP4 PUSH1 0x2 DUP2 GT ISZERO PUSH2 0x349E JUMPI PUSH4 0x4E487B71 PUSH1 0xE0 SHL PUSH1 0x0 MSTORE PUSH1 0x21 PUSH1 0x4 MSTORE PUSH1 0x24 PUSH1 0x0 REVERT JUMPDEST DUP2 MSTORE PUSH1 0x1 PUSH1 0x20 SWAP2 DUP3 ADD DUP2 SWAP1 MSTORE PUSH1 0x0 DUP5 DUP2 MSTORE PUSH1 0x19 DUP4 MSTORE PUSH1 0x40 SWAP1 DUP2 SWAP1 KECCAK256 DUP5 MLOAD DUP2 SSTORE SWAP3 DUP5 ADD MLOAD DUP4 DUP4 ADD SSTORE DUP4 ADD MLOAD PUSH1 0x2 DUP1 DUP5 ADD DUP1 SLOAD SWAP3 SWAP4 SWAP1 SWAP3 PUSH1 0xFF NOT AND SWAP2 DUP5 SWAP1 DUP2 GT ISZERO PUSH2 0x34F7 JUMPI PUSH4 0x4E487B71 PUSH1 0xE0 SHL PUSH1 0x0 MSTORE PUSH1 0x21 PUSH1 0x4 MSTORE PUSH1 0x24 PUSH1 0x0 REVERT JUMPDEST MUL OR SWAP1 SSTORE POP PUSH1 0x60 SWAP2 SWAP1 SWAP2 ADD MLOAD PUSH1 0x2 SWAP1 SWAP2 ADD DUP1 SLOAD SWAP2 ISZERO ISZERO PUSH2 0x100 MUL PUSH2 0xFF00 NOT SWAP1 SWAP3 AND SWAP2 SWAP1 SWAP2 OR SWAP1 SSTORE SWAP5 SWAP4 POP POP POP POP JUMP JUMPDEST PUSH1 0x0 DUP4 DUP2 MSTORE PUSH1 0xA PUSH1 0x20 MSTORE PUSH1 0x40 SWAP1 KECCAK256 DUP2 SWAP1 SSTORE PUSH1 0xD SLOAD PUSH2 0xA75 SWAP1 DUP4 SWAP1 DUP6 SWAP1 DUP5 SWAP1 PUSH2 0x3E5D JUMP JUMPDEST PUSH2 0xB69 DUP3 DUP3 PUSH2 0x3FF4 JUMP JUMPDEST PUSH1 0x0 PUSH1 0x64 PUSH1 0x18 PUSH1 0x0 SWAP1 SLOAD SWAP1 PUSH2 0x100 EXP SWAP1 DIV PUSH1 0x1 PUSH1 0x1 PUSH1 0xA0 SHL SUB AND PUSH1 0x1 PUSH1 0x1 PUSH1 0xA0 SHL SUB AND PUSH4 0xCA535C3B PUSH1 0x40 MLOAD DUP2 PUSH4 0xFFFFFFFF AND PUSH1 0xE0 SHL DUP2 MSTORE PUSH1 0x4 ADD PUSH1 0x20 PUSH1 0x40 MLOAD DUP1 DUP4 SUB DUP2 DUP7 DUP1 EXTCODESIZE ISZERO DUP1 ISZERO PUSH2 0x35A5 JUMPI PUSH1 0x0 DUP1 REVERT JUMPDEST POP GAS STATICCALL ISZERO DUP1 ISZERO PUSH2 0x35B9 JUMPI RETURNDATASIZE PUSH1 0x0 DUP1 RETURNDATACOPY RETURNDATASIZE PUSH1 0x0 REVERT JUMPDEST POP POP POP POP PUSH1 0x40 MLOAD RETURNDATASIZE PUSH1 0x1F NOT PUSH1 0x1F DUP3 ADD AND DUP3 ADD DUP1 PUSH1 0x40 MSTORE POP DUP2 ADD SWAP1 PUSH2 0x35DD SWAP2 SWAP1 PUSH2 0x4BE7 JUMP JUMPDEST PUSH2 0x35E7 SWAP1 DUP6 PUSH2 0x5196 JUMP JUMPDEST PUSH2 0x35F1 SWAP2 SWAP1 PUSH2 0x5182 JUMP JUMPDEST SWAP1 POP DUP1 ISZERO PUSH2 0x36F2 JUMPI PUSH1 0x10 SLOAD PUSH1 0x18 SLOAD PUSH1 0x40 DUP1 MLOAD PUSH4 0x605CC77 PUSH1 0xE2 SHL DUP2 MSTORE SWAP1 MLOAD PUSH1 0x1 PUSH1 0x1 PUSH1 0xA0 SHL SUB SWAP4 DUP5 AND SWAP4 PUSH4 0xA9059CBB SWAP4 AND SWAP2 PUSH4 0x181731DC SWAP2 PUSH1 0x4 DUP1 DUP4 ADD SWAP3 PUSH1 0x20 SWAP3 SWAP2 SWAP1 DUP3 SWAP1 SUB ADD DUP2 DUP7 DUP1 EXTCODESIZE ISZERO DUP1 ISZERO PUSH2 0x3648 JUMPI PUSH1 0x0 DUP1 REVERT JUMPDEST POP GAS STATICCALL ISZERO DUP1 ISZERO PUSH2 0x365C JUMPI RETURNDATASIZE PUSH1 0x0 DUP1 RETURNDATACOPY RETURNDATASIZE PUSH1 0x0 REVERT JUMPDEST POP POP POP POP PUSH1 0x40 MLOAD RETURNDATASIZE PUSH1 0x1F NOT PUSH1 0x1F DUP3 ADD AND DUP3 ADD DUP1 PUSH1 0x40 MSTORE POP DUP2 ADD SWAP1 PUSH2 0x3680 SWAP2 SWAP1 PUSH2 0x489E JUMP JUMPDEST DUP4 PUSH1 0x40 MLOAD DUP4 PUSH4 0xFFFFFFFF AND PUSH1 0xE0 SHL DUP2 MSTORE PUSH1 0x4 ADD PUSH2 0x369E SWAP3 SWAP2 SWAP1 PUSH2 0x4ECA JUMP JUMPDEST PUSH1 0x20 PUSH1 0x40 MLOAD DUP1 DUP4 SUB DUP2 PUSH1 0x0 DUP8 DUP1 EXTCODESIZE ISZERO DUP1 ISZERO PUSH2 0x36B8 JUMPI PUSH1 0x0 DUP1 REVERT JUMPDEST POP GAS CALL ISZERO DUP1 ISZERO PUSH2 0x36CC JUMPI RETURNDATASIZE PUSH1 0x0 DUP1 RETURNDATACOPY RETURNDATASIZE PUSH1 0x0 REVERT JUMPDEST POP POP POP POP PUSH1 0x40 MLOAD RETURNDATASIZE PUSH1 0x1F NOT PUSH1 0x1F DUP3 ADD AND DUP3 ADD DUP1 PUSH1 0x40 MSTORE POP DUP2 ADD SWAP1 PUSH2 0x36F0 SWAP2 SWAP1 PUSH2 0x4B57 JUMP JUMPDEST POP JUMPDEST PUSH1 0x0 PUSH2 0x36FE DUP3 DUP6 PUSH2 0x51B5 JUMP JUMPDEST SWAP1 POP DUP1 ISZERO PUSH2 0x3A0D JUMPI PUSH1 0x18 SLOAD PUSH1 0x40 DUP1 MLOAD PUSH4 0x4905129F PUSH1 0xE1 SHL DUP2 MSTORE SWAP1 MLOAD PUSH1 0x0 SWAP3 PUSH1 0x1 PUSH1 0x1 PUSH1 0xA0 SHL SUB AND SWAP2 PUSH4 0x920A253E SWAP2 PUSH1 0x4 DUP1 DUP4 ADD SWAP3 PUSH1 0x20 SWAP3 SWAP2 SWAP1 DUP3 SWAP1 SUB ADD DUP2 DUP7 DUP1 EXTCODESIZE ISZERO DUP1 ISZERO PUSH2 0x374B JUMPI PUSH1 0x0 DUP1 REVERT JUMPDEST POP GAS STATICCALL ISZERO DUP1 ISZERO PUSH2 0x375F JUMPI RETURNDATASIZE PUSH1 0x0 DUP1 RETURNDATACOPY RETURNDATASIZE PUSH1 0x0 REVERT JUMPDEST POP POP POP POP PUSH1 0x40 MLOAD RETURNDATASIZE PUSH1 0x1F NOT PUSH1 0x1F DUP3 ADD AND DUP3 ADD DUP1 PUSH1 0x40 MSTORE POP DUP2 ADD SWAP1 PUSH2 0x3783 SWAP2 SWAP1 PUSH2 0x4BE7 JUMP JUMPDEST GT DUP1 ISZERO PUSH2 0x37A9 JUMPI POP PUSH2 0x3793 PUSH2 0x16F6 JUMP JUMPDEST PUSH1 0x1 PUSH1 0x1 PUSH1 0xA0 SHL SUB AND DUP4 PUSH1 0x1 PUSH1 0x1 PUSH1 0xA0 SHL SUB AND EQ ISZERO JUMPDEST DUP1 ISZERO PUSH2 0x37BE JUMPI POP PUSH1 0x1 PUSH1 0x1 PUSH1 0xA0 SHL SUB DUP4 AND CALLER EQ ISZERO JUMPDEST ISZERO PUSH2 0x3938 JUMPI PUSH1 0x0 PUSH1 0x64 PUSH1 0x18 PUSH1 0x0 SWAP1 SLOAD SWAP1 PUSH2 0x100 EXP SWAP1 DIV PUSH1 0x1 PUSH1 0x1 PUSH1 0xA0 SHL SUB AND PUSH1 0x1 PUSH1 0x1 PUSH1 0xA0 SHL SUB AND PUSH4 0x920A253E PUSH1 0x40 MLOAD DUP2 PUSH4 0xFFFFFFFF AND PUSH1 0xE0 SHL DUP2 MSTORE PUSH1 0x4 ADD PUSH1 0x20 PUSH1 0x40 MLOAD DUP1 DUP4 SUB DUP2 DUP7 DUP1 EXTCODESIZE ISZERO DUP1 ISZERO PUSH2 0x3815 JUMPI PUSH1 0x0 DUP1 REVERT JUMPDEST POP GAS STATICCALL ISZERO DUP1 ISZERO PUSH2 0x3829 JUMPI RETURNDATASIZE PUSH1 0x0 DUP1 RETURNDATACOPY RETURNDATASIZE PUSH1 0x0 REVERT JUMPDEST POP POP POP POP PUSH1 0x40 MLOAD RETURNDATASIZE PUSH1 0x1F NOT PUSH1 0x1F DUP3 ADD AND DUP3 ADD DUP1 PUSH1 0x40 MSTORE POP DUP2 ADD SWAP1 PUSH2 0x384D SWAP2 SWAP1 PUSH2 0x4BE7 JUMP JUMPDEST PUSH2 0x3857 SWAP1 DUP5 PUSH2 0x5196 JUMP JUMPDEST PUSH2 0x3861 SWAP2 SWAP1 PUSH2 0x5182 JUMP JUMPDEST SWAP1 POP PUSH2 0x386D DUP2 DUP4 PUSH2 0x51B5 JUMP JUMPDEST PUSH1 0x10 SLOAD PUSH1 0x40 MLOAD PUSH4 0xA9059CBB PUSH1 0xE0 SHL DUP2 MSTORE SWAP2 SWAP4 POP PUSH1 0x1 PUSH1 0x1 PUSH1 0xA0 SHL SUB AND SWAP1 PUSH4 0xA9059CBB SWAP1 PUSH2 0x38A0 SWAP1 DUP8 SWAP1 DUP6 SWAP1 PUSH1 0x4 ADD PUSH2 0x4ECA JUMP JUMPDEST PUSH1 0x20 PUSH1 0x40 MLOAD DUP1 DUP4 SUB DUP2 PUSH1 0x0 DUP8 DUP1 EXTCODESIZE ISZERO DUP1 ISZERO PUSH2 0x38BA JUMPI PUSH1 0x0 DUP1 REVERT JUMPDEST POP GAS CALL ISZERO DUP1 ISZERO PUSH2 0x38CE JUMPI RETURNDATASIZE PUSH1 0x0 DUP1 RETURNDATACOPY RETURNDATASIZE PUSH1 0x0 REVERT JUMPDEST POP POP POP POP PUSH1 0x40 MLOAD RETURNDATASIZE PUSH1 0x1F NOT PUSH1 0x1F DUP3 ADD AND DUP3 ADD DUP1 PUSH1 0x40 MSTORE POP DUP2 ADD SWAP1 PUSH2 0x38F2 SWAP2 SWAP1 PUSH2 0x4B57 JUMP JUMPDEST POP DUP4 PUSH1 0x1 PUSH1 0x1 PUSH1 0xA0 SHL SUB AND PUSH32 0x2FC41B7D7DF3272C17D9B581FCF235307BC027599C6ED68442C4100BD3A84198 DUP3 PUSH1 0x40 MLOAD PUSH2 0x392E SWAP2 DUP2 MSTORE PUSH1 0x20 ADD SWAP1 JUMP JUMPDEST PUSH1 0x40 MLOAD DUP1 SWAP2 SUB SWAP1 LOG2 POP JUMPDEST PUSH1 0x10 SLOAD PUSH1 0x1 PUSH1 0x1 PUSH1 0xA0 SHL SUB AND PUSH4 0xA9059CBB PUSH2 0x3951 PUSH2 0x16F6 JUMP JUMPDEST DUP4 PUSH1 0x40 MLOAD DUP4 PUSH4 0xFFFFFFFF AND PUSH1 0xE0 SHL DUP2 MSTORE PUSH1 0x4 ADD PUSH2 0x396F SWAP3 SWAP2 SWAP1 PUSH2 0x4ECA JUMP JUMPDEST PUSH1 0x20 PUSH1 0x40 MLOAD DUP1 DUP4 SUB DUP2 PUSH1 0x0 DUP8 DUP1 EXTCODESIZE ISZERO DUP1 ISZERO PUSH2 0x3989 JUMPI PUSH1 0x0 DUP1 REVERT JUMPDEST POP GAS CALL ISZERO DUP1 ISZERO PUSH2 0x399D JUMPI RETURNDATASIZE PUSH1 0x0 DUP1 RETURNDATACOPY RETURNDATASIZE PUSH1 0x0 REVERT JUMPDEST POP POP POP POP PUSH1 0x40 MLOAD RETURNDATASIZE PUSH1 0x1F NOT PUSH1 0x1F DUP3 ADD AND DUP3 ADD DUP1 PUSH1 0x40 MSTORE POP DUP2 ADD SWAP1 PUSH2 0x39C1 SWAP2 SWAP1 PUSH2 0x4B57 JUMP JUMPDEST POP PUSH2 0x39CA PUSH2 0x16F6 JUMP JUMPDEST PUSH1 0x1 PUSH1 0x1 PUSH1 0xA0 SHL SUB AND PUSH32 0xF0F0487D8990103573E0E5CF4E87E101E2A1BA84C733C556B7A5807E570E5D4C DUP3 PUSH1 0x40 MLOAD PUSH2 0x3A04 SWAP2 DUP2 MSTORE PUSH1 0x20 ADD SWAP1 JUMP JUMPDEST PUSH1 0x40 MLOAD DUP1 SWAP2 SUB SWAP1 LOG2 JUMPDEST POP SWAP3 SWAP2 POP POP JUMP JUMPDEST PUSH1 0x60 PUSH2 0x3A1F DUP3 PUSH2 0x2528 JUMP JUMPDEST PUSH2 0x3A85 JUMPI PUSH1 0x40 MLOAD PUSH3 0x461BCD PUSH1 0xE5 SHL DUP2 MSTORE PUSH1 0x20 PUSH1 0x4 DUP3 ADD MSTORE PUSH1 0x31 PUSH1 0x24 DUP3 ADD MSTORE PUSH32 0x45524337323155524953746F726167653A2055524920717565727920666F7220 PUSH1 0x44 DUP3 ADD MSTORE PUSH17 0x3737B732BC34B9BA32B73A103A37B5B2B7 PUSH1 0x79 SHL PUSH1 0x64 DUP3 ADD MSTORE PUSH1 0x84 ADD PUSH2 0x944 JUMP JUMPDEST PUSH1 0x0 DUP3 DUP2 MSTORE PUSH1 0x9 PUSH1 0x20 MSTORE PUSH1 0x40 DUP2 KECCAK256 DUP1 SLOAD PUSH2 0x3A9E SWAP1 PUSH2 0x520F JUMP JUMPDEST DUP1 PUSH1 0x1F ADD PUSH1 0x20 DUP1 SWAP2 DIV MUL PUSH1 0x20 ADD PUSH1 0x40 MLOAD SWAP1 DUP2 ADD PUSH1 0x40 MSTORE DUP1 SWAP3 SWAP2 SWAP1 DUP2 DUP2 MSTORE PUSH1 0x20 ADD DUP3 DUP1 SLOAD PUSH2 0x3ACA SWAP1 PUSH2 0x520F JUMP JUMPDEST DUP1 ISZERO PUSH2 0x3B17 JUMPI DUP1 PUSH1 0x1F LT PUSH2 0x3AEC JUMPI PUSH2 0x100 DUP1 DUP4 SLOAD DIV MUL DUP4 MSTORE SWAP2 PUSH1 0x20 ADD SWAP2 PUSH2 0x3B17 JUMP JUMPDEST DUP3 ADD SWAP2 SWAP1 PUSH1 0x0 MSTORE PUSH1 0x20 PUSH1 0x0 KECCAK256 SWAP1 JUMPDEST DUP2 SLOAD DUP2 MSTORE SWAP1 PUSH1 0x1 ADD SWAP1 PUSH1 0x20 ADD DUP1 DUP4 GT PUSH2 0x3AFA JUMPI DUP3 SWAP1 SUB PUSH1 0x1F AND DUP3 ADD SWAP2 JUMPDEST POP POP POP POP POP SWAP1 POP PUSH1 0x0 PUSH2 0x3B28 PUSH2 0x407F JUMP JUMPDEST SWAP1 POP DUP1 MLOAD PUSH1 0x0 EQ ISZERO PUSH2 0x3B3B JUMPI POP SWAP3 SWAP2 POP POP JUMP JUMPDEST DUP2 MLOAD ISZERO PUSH2 0x3B6D JUMPI DUP1 DUP3 PUSH1 0x40 MLOAD PUSH1 0x20 ADD PUSH2 0x3B55 SWAP3 SWAP2 SWAP1 PUSH2 0x4DEF JUMP JUMPDEST PUSH1 0x40 MLOAD PUSH1 0x20 DUP2 DUP4 SUB SUB DUP2 MSTORE SWAP1 PUSH1 0x40 MSTORE SWAP3 POP POP POP SWAP2 SWAP1 POP JUMP JUMPDEST PUSH2 0x2675 DUP5 PUSH2 0x409F JUMP JUMPDEST PUSH1 0x0 PUSH2 0x20C8 DUP4 DUP4 PUSH2 0x4169 JUMP JUMPDEST PUSH1 0x0 PUSH1 0x1 PUSH1 0x1 PUSH1 0xE0 SHL SUB NOT DUP3 AND PUSH4 0x80AC58CD PUSH1 0xE0 SHL EQ DUP1 PUSH2 0x3BB3 JUMPI POP PUSH1 0x1 PUSH1 0x1 PUSH1 0xE0 SHL SUB NOT DUP3 AND PUSH4 0x5B5E139F PUSH1 0xE0 SHL EQ JUMPDEST DUP1 PUSH2 0x7FF JUMPI POP PUSH4 0x1FFC9A7 PUSH1 0xE0 SHL PUSH1 0x1 PUSH1 0x1 PUSH1 0xE0 SHL SUB NOT DUP4 AND EQ PUSH2 0x7FF JUMP JUMPDEST PUSH1 0x1 PUSH1 0x1 PUSH1 0xA0 SHL SUB DUP4 AND ISZERO PUSH2 0xA75 JUMPI PUSH2 0xA75 DUP2 PUSH2 0x41A1 JUMP JUMPDEST PUSH1 0x60 PUSH1 0x0 PUSH2 0x3BF9 DUP4 PUSH1 0x2 PUSH2 0x5196 JUMP JUMPDEST PUSH2 0x3C04 SWAP1 PUSH1 0x2 PUSH2 0x516A JUMP JUMPDEST PUSH1 0x1 PUSH1 0x1 PUSH1 0x40 SHL SUB DUP2 GT ISZERO PUSH2 0x3C29 JUMPI PUSH4 0x4E487B71 PUSH1 0xE0 SHL PUSH1 0x0 MSTORE PUSH1 0x41 PUSH1 0x4 MSTORE PUSH1 0x24 PUSH1 0x0 REVERT JUMPDEST PUSH1 0x40 MLOAD SWAP1 DUP1 DUP3 MSTORE DUP1 PUSH1 0x1F ADD PUSH1 0x1F NOT AND PUSH1 0x20 ADD DUP3 ADD PUSH1 0x40 MSTORE DUP1 ISZERO PUSH2 0x3C53 JUMPI PUSH1 0x20 DUP3 ADD DUP2 DUP1 CALLDATASIZE DUP4 CALLDATACOPY ADD SWAP1 POP JUMPDEST POP SWAP1 POP PUSH1 0x3 PUSH1 0xFC SHL DUP2 PUSH1 0x0 DUP2 MLOAD DUP2 LT PUSH2 0x3C7C JUMPI PUSH4 0x4E487B71 PUSH1 0xE0 SHL PUSH1 0x0 MSTORE PUSH1 0x32 PUSH1 0x4 MSTORE PUSH1 0x24 PUSH1 0x0 REVERT JUMPDEST PUSH1 0x20 ADD ADD SWAP1 PUSH1 0x1 PUSH1 0x1 PUSH1 0xF8 SHL SUB NOT AND SWAP1 DUP2 PUSH1 0x0 BYTE SWAP1 MSTORE8 POP PUSH1 0xF PUSH1 0xFB SHL DUP2 PUSH1 0x1 DUP2 MLOAD DUP2 LT PUSH2 0x3CB9 JUMPI PUSH4 0x4E487B71 PUSH1 0xE0 SHL PUSH1 0x0 MSTORE PUSH1 0x32 PUSH1 0x4 MSTORE PUSH1 0x24 PUSH1 0x0 REVERT JUMPDEST PUSH1 0x20 ADD ADD SWAP1 PUSH1 0x1 PUSH1 0x1 PUSH1 0xF8 SHL SUB NOT AND SWAP1 DUP2 PUSH1 0x0 BYTE SWAP1 MSTORE8 POP PUSH1 0x0 PUSH2 0x3CDD DUP5 PUSH1 0x2 PUSH2 0x5196 JUMP JUMPDEST PUSH2 0x3CE8 SWAP1 PUSH1 0x1 PUSH2 0x516A JUMP JUMPDEST SWAP1 POP JUMPDEST PUSH1 0x1 DUP2 GT ISZERO PUSH2 0x3D7C JUMPI PUSH16 0x181899199A1A9B1B9C1CB0B131B232B3 PUSH1 0x81 SHL DUP6 PUSH1 0xF AND PUSH1 0x10 DUP2 LT PUSH2 0x3D2A JUMPI PUSH4 0x4E487B71 PUSH1 0xE0 SHL PUSH1 0x0 MSTORE PUSH1 0x32 PUSH1 0x4 MSTORE PUSH1 0x24 PUSH1 0x0 REVERT JUMPDEST BYTE PUSH1 0xF8 SHL DUP3 DUP3 DUP2 MLOAD DUP2 LT PUSH2 0x3D4E JUMPI PUSH4 0x4E487B71 PUSH1 0xE0 SHL PUSH1 0x0 MSTORE PUSH1 0x32 PUSH1 0x4 MSTORE PUSH1 0x24 PUSH1 0x0 REVERT JUMPDEST PUSH1 0x20 ADD ADD SWAP1 PUSH1 0x1 PUSH1 0x1 PUSH1 0xF8 SHL SUB NOT AND SWAP1 DUP2 PUSH1 0x0 BYTE SWAP1 MSTORE8 POP PUSH1 0x4 SWAP5 SWAP1 SWAP5 SHR SWAP4 PUSH2 0x3D75 DUP2 PUSH2 0x51F8 JUMP JUMPDEST SWAP1 POP PUSH2 0x3CEB JUMP JUMPDEST POP DUP4 ISZERO PUSH2 0x20C8 JUMPI PUSH1 0x40 MLOAD PUSH3 0x461BCD PUSH1 0xE5 SHL DUP2 MSTORE PUSH1 0x20 PUSH1 0x4 DUP3 ADD DUP2 SWAP1 MSTORE PUSH1 0x24 DUP3 ADD MSTORE PUSH32 0x537472696E67733A20686578206C656E67746820696E73756666696369656E74 PUSH1 0x44 DUP3 ADD MSTORE PUSH1 0x64 ADD PUSH2 0x944 JUMP JUMPDEST PUSH1 0x0 PUSH2 0x3DD6 DUP3 PUSH2 0xFC7 JUMP JUMPDEST SWAP1 POP PUSH1 0x0 PUSH2 0x3DE3 DUP4 PUSH2 0xAC0 JUMP JUMPDEST PUSH1 0x0 DUP5 DUP2 MSTORE PUSH1 0xF PUSH1 0x20 SWAP1 DUP2 MSTORE PUSH1 0x40 DUP1 DUP4 KECCAK256 SLOAD DUP5 DUP5 MSTORE PUSH1 0xC SWAP1 SWAP3 MSTORE SWAP1 SWAP2 KECCAK256 SWAP2 SWAP3 POP SWAP1 PUSH2 0x3E0E SWAP1 DUP6 PUSH2 0x4255 JUMP JUMPDEST POP PUSH1 0x0 DUP5 DUP2 MSTORE PUSH1 0xF PUSH1 0x20 MSTORE PUSH1 0x40 DUP2 KECCAK256 SSTORE PUSH2 0x3E27 DUP5 PUSH2 0x4261 JUMP JUMPDEST DUP4 PUSH1 0x0 PUSH1 0x1 PUSH1 0x1 PUSH1 0xA0 SHL SUB AND DUP5 PUSH1 0x1 PUSH1 0x1 PUSH1 0xA0 SHL SUB AND PUSH1 0x0 DUP1 MLOAD PUSH1 0x20 PUSH2 0x5347 DUP4 CODECOPY DUP2 MLOAD SWAP2 MSTORE PUSH1 0x0 DUP6 PUSH1 0x40 MLOAD PUSH2 0x33DA SWAP3 SWAP2 SWAP1 PUSH2 0x4F75 JUMP JUMPDEST PUSH2 0x3E66 DUP4 PUSH2 0x2528 JUMP JUMPDEST PUSH2 0x3E8E JUMPI PUSH2 0x3E74 DUP5 DUP5 PUSH2 0x42F6 JUMP JUMPDEST PUSH1 0x0 DUP3 DUP2 MSTORE PUSH1 0xC PUSH1 0x20 MSTORE PUSH1 0x40 SWAP1 KECCAK256 PUSH2 0x3E8C SWAP1 DUP5 PUSH2 0x4422 JUMP JUMPDEST POP JUMPDEST PUSH1 0x0 DUP4 DUP2 MSTORE PUSH1 0xF PUSH1 0x20 MSTORE PUSH1 0x40 SWAP1 KECCAK256 SLOAD PUSH2 0x3EA8 SWAP1 DUP3 SWAP1 PUSH2 0x516A JUMP JUMPDEST PUSH1 0x0 DUP5 DUP2 MSTORE PUSH1 0xF PUSH1 0x20 MSTORE PUSH1 0x40 DUP1 DUP3 KECCAK256 SWAP3 SWAP1 SWAP3 SSTORE SWAP1 MLOAD PUSH1 0x1 PUSH1 0x1 PUSH1 0xA0 SHL SUB DUP7 AND SWAP1 DUP3 SWAP1 PUSH1 0x0 DUP1 MLOAD PUSH1 0x20 PUSH2 0x5347 DUP4 CODECOPY DUP2 MLOAD SWAP2 MSTORE SWAP1 PUSH2 0x33DA SWAP1 DUP9 SWAP1 DUP8 SWAP1 PUSH2 0x4F75 JUMP JUMPDEST PUSH1 0x0 PUSH1 0x1 PUSH1 0x1 PUSH1 0xA0 SHL SUB DUP5 AND EXTCODESIZE ISZERO PUSH2 0x3FE9 JUMPI PUSH1 0x40 MLOAD PUSH4 0xA85BD01 PUSH1 0xE1 SHL DUP2 MSTORE PUSH1 0x1 PUSH1 0x1 PUSH1 0xA0 SHL SUB DUP6 AND SWAP1 PUSH4 0x150B7A02 SWAP1 PUSH2 0x3F2B SWAP1 CALLER SWAP1 DUP10 SWAP1 DUP9 SWAP1 DUP9 SWAP1 PUSH1 0x4 ADD PUSH2 0x4E8D JUMP JUMPDEST PUSH1 0x20 PUSH1 0x40 MLOAD DUP1 DUP4 SUB DUP2 PUSH1 0x0 DUP8 DUP1 EXTCODESIZE ISZERO DUP1 ISZERO PUSH2 0x3F45 JUMPI PUSH1 0x0 DUP1 REVERT JUMPDEST POP GAS CALL SWAP3 POP POP POP DUP1 ISZERO PUSH2 0x3F75 JUMPI POP PUSH1 0x40 DUP1 MLOAD PUSH1 0x1F RETURNDATASIZE SWAP1 DUP2 ADD PUSH1 0x1F NOT AND DUP3 ADD SWAP1 SWAP3 MSTORE PUSH2 0x3F72 SWAP2 DUP2 ADD SWAP1 PUSH2 0x4BCB JUMP JUMPDEST PUSH1 0x1 JUMPDEST PUSH2 0x3FCF JUMPI RETURNDATASIZE DUP1 DUP1 ISZERO PUSH2 0x3FA3 JUMPI PUSH1 0x40 MLOAD SWAP2 POP PUSH1 0x1F NOT PUSH1 0x3F RETURNDATASIZE ADD AND DUP3 ADD PUSH1 0x40 MSTORE RETURNDATASIZE DUP3 MSTORE RETURNDATASIZE PUSH1 0x0 PUSH1 0x20 DUP5 ADD RETURNDATACOPY PUSH2 0x3FA8 JUMP JUMPDEST PUSH1 0x60 SWAP2 POP JUMPDEST POP DUP1 MLOAD PUSH2 0x3FC7 JUMPI PUSH1 0x40 MLOAD PUSH3 0x461BCD PUSH1 0xE5 SHL DUP2 MSTORE PUSH1 0x4 ADD PUSH2 0x944 SWAP1 PUSH2 0x4FB2 JUMP JUMPDEST DUP1 MLOAD DUP2 PUSH1 0x20 ADD REVERT JUMPDEST PUSH1 0x1 PUSH1 0x1 PUSH1 0xE0 SHL SUB NOT AND PUSH4 0xA85BD01 PUSH1 0xE1 SHL EQ SWAP1 POP PUSH2 0x2675 JUMP JUMPDEST POP PUSH1 0x1 SWAP5 SWAP4 POP POP POP POP JUMP JUMPDEST PUSH2 0x3FFD DUP3 PUSH2 0x2528 JUMP JUMPDEST PUSH2 0x4060 JUMPI PUSH1 0x40 MLOAD PUSH3 0x461BCD PUSH1 0xE5 SHL DUP2 MSTORE PUSH1 0x20 PUSH1 0x4 DUP3 ADD MSTORE PUSH1 0x2E PUSH1 0x24 DUP3 ADD MSTORE PUSH32 0x45524337323155524953746F726167653A2055524920736574206F66206E6F6E PUSH1 0x44 DUP3 ADD MSTORE PUSH14 0x32BC34B9BA32B73A103A37B5B2B7 PUSH1 0x91 SHL PUSH1 0x64 DUP3 ADD MSTORE PUSH1 0x84 ADD PUSH2 0x944 JUMP JUMPDEST PUSH1 0x0 DUP3 DUP2 MSTORE PUSH1 0x9 PUSH1 0x20 SWAP1 DUP2 MSTORE PUSH1 0x40 SWAP1 SWAP2 KECCAK256 DUP3 MLOAD PUSH2 0xA75 SWAP3 DUP5 ADD SWAP1 PUSH2 0x470F JUMP JUMPDEST PUSH1 0x60 PUSH1 0x40 MLOAD DUP1 PUSH1 0x60 ADD PUSH1 0x40 MSTORE DUP1 PUSH1 0x22 DUP2 MSTORE PUSH1 0x20 ADD PUSH2 0x5305 PUSH1 0x22 SWAP2 CODECOPY SWAP1 POP SWAP1 JUMP JUMPDEST PUSH1 0x60 PUSH2 0x40AA DUP3 PUSH2 0x2528 JUMP JUMPDEST PUSH2 0x410E JUMPI PUSH1 0x40 MLOAD PUSH3 0x461BCD PUSH1 0xE5 SHL DUP2 MSTORE PUSH1 0x20 PUSH1 0x4 DUP3 ADD MSTORE PUSH1 0x2F PUSH1 0x24 DUP3 ADD MSTORE PUSH32 0x4552433732314D657461646174613A2055524920717565727920666F72206E6F PUSH1 0x44 DUP3 ADD MSTORE PUSH15 0x3732BC34B9BA32B73A103A37B5B2B7 PUSH1 0x89 SHL PUSH1 0x64 DUP3 ADD MSTORE PUSH1 0x84 ADD PUSH2 0x944 JUMP JUMPDEST PUSH1 0x0 PUSH2 0x4118 PUSH2 0x407F JUMP JUMPDEST SWAP1 POP PUSH1 0x0 DUP2 MLOAD GT PUSH2 0x4138 JUMPI PUSH1 0x40 MLOAD DUP1 PUSH1 0x20 ADD PUSH1 0x40 MSTORE DUP1 PUSH1 0x0 DUP2 MSTORE POP PUSH2 0x20C8 JUMP JUMPDEST DUP1 PUSH2 0x4142 DUP5 PUSH2 0x442E JUMP JUMPDEST PUSH1 0x40 MLOAD PUSH1 0x20 ADD PUSH2 0x4153 SWAP3 SWAP2 SWAP1 PUSH2 0x4DEF JUMP JUMPDEST PUSH1 0x40 MLOAD PUSH1 0x20 DUP2 DUP4 SUB SUB DUP2 MSTORE SWAP1 PUSH1 0x40 MSTORE SWAP4 SWAP3 POP POP POP JUMP JUMPDEST PUSH1 0x0 DUP3 PUSH1 0x0 ADD DUP3 DUP2 SLOAD DUP2 LT PUSH2 0x418E JUMPI PUSH4 0x4E487B71 PUSH1 0xE0 SHL PUSH1 0x0 MSTORE PUSH1 0x32 PUSH1 0x4 MSTORE PUSH1 0x24 PUSH1 0x0 REVERT JUMPDEST SWAP1 PUSH1 0x0 MSTORE PUSH1 0x20 PUSH1 0x0 KECCAK256 ADD SLOAD SWAP1 POP SWAP3 SWAP2 POP POP JUMP JUMPDEST PUSH1 0x0 DUP2 DUP2 MSTORE PUSH1 0xB PUSH1 0x20 MSTORE PUSH1 0x40 DUP2 KECCAK256 SWAP1 JUMPDEST DUP2 SLOAD DUP2 LT ISZERO PUSH2 0xA75 JUMPI DUP2 PUSH1 0x1 ADD PUSH1 0x0 DUP4 PUSH1 0x0 ADD DUP4 DUP2 SLOAD DUP2 LT PUSH2 0x41E3 JUMPI PUSH4 0x4E487B71 PUSH1 0xE0 SHL PUSH1 0x0 MSTORE PUSH1 0x32 PUSH1 0x4 MSTORE PUSH1 0x24 PUSH1 0x0 REVERT JUMPDEST PUSH1 0x0 SWAP2 DUP3 MSTORE PUSH1 0x20 DUP1 DUP4 KECCAK256 SWAP1 SWAP2 ADD SLOAD PUSH1 0x1 PUSH1 0x1 PUSH1 0xA0 SHL SUB AND DUP4 MSTORE DUP3 ADD SWAP3 SWAP1 SWAP3 MSTORE PUSH1 0x40 ADD DUP2 KECCAK256 SSTORE DUP2 SLOAD DUP3 SWAP1 DUP3 SWAP1 DUP2 LT PUSH2 0x422A JUMPI PUSH4 0x4E487B71 PUSH1 0xE0 SHL PUSH1 0x0 MSTORE PUSH1 0x32 PUSH1 0x4 MSTORE PUSH1 0x24 PUSH1 0x0 REVERT JUMPDEST PUSH1 0x0 SWAP2 DUP3 MSTORE PUSH1 0x20 SWAP1 SWAP2 KECCAK256 ADD DUP1 SLOAD PUSH1 0x1 PUSH1 0x1 PUSH1 0xA0 SHL SUB NOT AND SWAP1 SSTORE DUP1 PUSH2 0x424D DUP2 PUSH2 0x5244 JUMP JUMPDEST SWAP2 POP POP PUSH2 0x41B1 JUMP JUMPDEST PUSH1 0x0 PUSH2 0x20C8 DUP4 DUP4 PUSH2 0x4547 JUMP JUMPDEST PUSH1 0x0 PUSH2 0x426C DUP3 PUSH2 0xFC7 JUMP JUMPDEST SWAP1 POP PUSH2 0x427A DUP2 PUSH1 0x0 DUP5 PUSH2 0x3BD2 JUMP JUMPDEST PUSH2 0x4285 PUSH1 0x0 DUP4 PUSH2 0x2545 JUMP JUMPDEST PUSH1 0x1 PUSH1 0x1 PUSH1 0xA0 SHL SUB DUP2 AND PUSH1 0x0 SWAP1 DUP2 MSTORE PUSH1 0x3 PUSH1 0x20 MSTORE PUSH1 0x40 DUP2 KECCAK256 DUP1 SLOAD PUSH1 0x1 SWAP3 SWAP1 PUSH2 0x42AE SWAP1 DUP5 SWAP1 PUSH2 0x51B5 JUMP JUMPDEST SWAP1 SWAP2 SSTORE POP POP PUSH1 0x0 DUP3 DUP2 MSTORE PUSH1 0x2 PUSH1 0x20 MSTORE PUSH1 0x40 DUP1 DUP3 KECCAK256 DUP1 SLOAD PUSH1 0x1 PUSH1 0x1 PUSH1 0xA0 SHL SUB NOT AND SWAP1 SSTORE MLOAD DUP4 SWAP2 SWAP1 PUSH1 0x1 PUSH1 0x1 PUSH1 0xA0 SHL SUB DUP5 AND SWAP1 PUSH1 0x0 DUP1 MLOAD PUSH1 0x20 PUSH2 0x5327 DUP4 CODECOPY DUP2 MLOAD SWAP2 MSTORE SWAP1 DUP4 SWAP1 LOG4 POP POP JUMP JUMPDEST PUSH1 0x1 PUSH1 0x1 PUSH1 0xA0 SHL SUB DUP3 AND PUSH2 0x434C JUMPI PUSH1 0x40 MLOAD PUSH3 0x461BCD PUSH1 0xE5 SHL DUP2 MSTORE PUSH1 0x20 PUSH1 0x4 DUP3 ADD DUP2 SWAP1 MSTORE PUSH1 0x24 DUP3 ADD MSTORE PUSH32 0x4552433732313A206D696E7420746F20746865207A65726F2061646472657373 PUSH1 0x44 DUP3 ADD MSTORE PUSH1 0x64 ADD PUSH2 0x944 JUMP JUMPDEST PUSH2 0x4355 DUP2 PUSH2 0x2528 JUMP JUMPDEST ISZERO PUSH2 0x43A1 JUMPI PUSH1 0x40 MLOAD PUSH3 0x461BCD PUSH1 0xE5 SHL DUP2 MSTORE PUSH1 0x20 PUSH1 0x4 DUP3 ADD MSTORE PUSH1 0x1C PUSH1 0x24 DUP3 ADD MSTORE PUSH28 0x115490CDCC8C4E881D1BDAD95B88185B1C9958591E481B5A5B9D1959 PUSH1 0x22 SHL PUSH1 0x44 DUP3 ADD MSTORE PUSH1 0x64 ADD PUSH2 0x944 JUMP JUMPDEST PUSH2 0x43AD PUSH1 0x0 DUP4 DUP4 PUSH2 0x3BD2 JUMP JUMPDEST PUSH1 0x1 PUSH1 0x1 PUSH1 0xA0 SHL SUB DUP3 AND PUSH1 0x0 SWAP1 DUP2 MSTORE PUSH1 0x3 PUSH1 0x20 MSTORE PUSH1 0x40 DUP2 KECCAK256 DUP1 SLOAD PUSH1 0x1 SWAP3 SWAP1 PUSH2 0x43D6 SWAP1 DUP5 SWAP1 PUSH2 0x516A JUMP JUMPDEST SWAP1 SWAP2 SSTORE POP POP PUSH1 0x0 DUP2 DUP2 MSTORE PUSH1 0x2 PUSH1 0x20 MSTORE PUSH1 0x40 DUP1 DUP3 KECCAK256 DUP1 SLOAD PUSH1 0x1 PUSH1 0x1 PUSH1 0xA0 SHL SUB NOT AND PUSH1 0x1 PUSH1 0x1 PUSH1 0xA0 SHL SUB DUP7 AND SWAP1 DUP2 OR SWAP1 SWAP2 SSTORE SWAP1 MLOAD DUP4 SWAP3 SWAP1 PUSH1 0x0 DUP1 MLOAD PUSH1 0x20 PUSH2 0x5327 DUP4 CODECOPY DUP2 MLOAD SWAP2 MSTORE SWAP1 DUP3 SWAP1 LOG4 POP POP JUMP JUMPDEST PUSH1 0x0 PUSH2 0x20C8 DUP4 DUP4 PUSH2 0x4664 JUMP JUMPDEST PUSH1 0x60 DUP2 PUSH2 0x4452 JUMPI POP POP PUSH1 0x40 DUP1 MLOAD DUP1 DUP3 ADD SWAP1 SWAP2 MSTORE PUSH1 0x1 DUP2 MSTORE PUSH1 0x3 PUSH1 0xFC SHL PUSH1 0x20 DUP3 ADD MSTORE SWAP1 JUMP JUMPDEST DUP2 PUSH1 0x0 JUMPDEST DUP2 ISZERO PUSH2 0x447C JUMPI DUP1 PUSH2 0x4466 DUP2 PUSH2 0x5244 JUMP JUMPDEST SWAP2 POP PUSH2 0x4475 SWAP1 POP PUSH1 0xA DUP4 PUSH2 0x5182 JUMP JUMPDEST SWAP2 POP PUSH2 0x4456 JUMP JUMPDEST PUSH1 0x0 DUP2 PUSH1 0x1 PUSH1 0x1 PUSH1 0x40 SHL SUB DUP2 GT ISZERO PUSH2 0x44A4 JUMPI PUSH4 0x4E487B71 PUSH1 0xE0 SHL PUSH1 0x0 MSTORE PUSH1 0x41 PUSH1 0x4 MSTORE PUSH1 0x24 PUSH1 0x0 REVERT JUMPDEST PUSH1 0x40 MLOAD SWAP1 DUP1 DUP3 MSTORE DUP1 PUSH1 0x1F ADD PUSH1 0x1F NOT AND PUSH1 0x20 ADD DUP3 ADD PUSH1 0x40 MSTORE DUP1 ISZERO PUSH2 0x44CE JUMPI PUSH1 0x20 DUP3 ADD DUP2 DUP1 CALLDATASIZE DUP4 CALLDATACOPY ADD SWAP1 POP JUMPDEST POP SWAP1 POP JUMPDEST DUP5 ISZERO PUSH2 0x2675 JUMPI PUSH2 0x44E3 PUSH1 0x1 DUP4 PUSH2 0x51B5 JUMP JUMPDEST SWAP2 POP PUSH2 0x44F0 PUSH1 0xA DUP7 PUSH2 0x525F JUMP JUMPDEST PUSH2 0x44FB SWAP1 PUSH1 0x30 PUSH2 0x516A JUMP JUMPDEST PUSH1 0xF8 SHL DUP2 DUP4 DUP2 MLOAD DUP2 LT PUSH2 0x451E JUMPI PUSH4 0x4E487B71 PUSH1 0xE0 SHL PUSH1 0x0 MSTORE PUSH1 0x32 PUSH1 0x4 MSTORE PUSH1 0x24 PUSH1 0x0 REVERT JUMPDEST PUSH1 0x20 ADD ADD SWAP1 PUSH1 0x1 PUSH1 0x1 PUSH1 0xF8 SHL SUB NOT AND SWAP1 DUP2 PUSH1 0x0 BYTE SWAP1 MSTORE8 POP PUSH2 0x4540 PUSH1 0xA DUP7 PUSH2 0x5182 JUMP JUMPDEST SWAP5 POP PUSH2 0x44D2 JUMP JUMPDEST PUSH1 0x0 DUP2 DUP2 MSTORE PUSH1 0x1 DUP4 ADD PUSH1 0x20 MSTORE PUSH1 0x40 DUP2 KECCAK256 SLOAD DUP1 ISZERO PUSH2 0x465A JUMPI PUSH1 0x0 PUSH2 0x456B PUSH1 0x1 DUP4 PUSH2 0x51B5 JUMP JUMPDEST DUP6 SLOAD SWAP1 SWAP2 POP PUSH1 0x0 SWAP1 PUSH2 0x457F SWAP1 PUSH1 0x1 SWAP1 PUSH2 0x51B5 JUMP JUMPDEST SWAP1 POP DUP2 DUP2 EQ PUSH2 0x4600 JUMPI PUSH1 0x0 DUP7 PUSH1 0x0 ADD DUP3 DUP2 SLOAD DUP2 LT PUSH2 0x45AD JUMPI PUSH4 0x4E487B71 PUSH1 0xE0 SHL PUSH1 0x0 MSTORE PUSH1 0x32 PUSH1 0x4 MSTORE PUSH1 0x24 PUSH1 0x0 REVERT JUMPDEST SWAP1 PUSH1 0x0 MSTORE PUSH1 0x20 PUSH1 0x0 KECCAK256 ADD SLOAD SWAP1 POP DUP1 DUP8 PUSH1 0x0 ADD DUP5 DUP2 SLOAD DUP2 LT PUSH2 0x45DE JUMPI PUSH4 0x4E487B71 PUSH1 0xE0 SHL PUSH1 0x0 MSTORE PUSH1 0x32 PUSH1 0x4 MSTORE PUSH1 0x24 PUSH1 0x0 REVERT JUMPDEST PUSH1 0x0 SWAP2 DUP3 MSTORE PUSH1 0x20 DUP1 DUP4 KECCAK256 SWAP1 SWAP2 ADD SWAP3 SWAP1 SWAP3 SSTORE SWAP2 DUP3 MSTORE PUSH1 0x1 DUP9 ADD SWAP1 MSTORE PUSH1 0x40 SWAP1 KECCAK256 DUP4 SWAP1 SSTORE JUMPDEST DUP6 SLOAD DUP7 SWAP1 DUP1 PUSH2 0x461F JUMPI PUSH4 0x4E487B71 PUSH1 0xE0 SHL PUSH1 0x0 MSTORE PUSH1 0x31 PUSH1 0x4 MSTORE PUSH1 0x24 PUSH1 0x0 REVERT JUMPDEST PUSH1 0x1 SWAP1 SUB DUP2 DUP2 SWAP1 PUSH1 0x0 MSTORE PUSH1 0x20 PUSH1 0x0 KECCAK256 ADD PUSH1 0x0 SWAP1 SSTORE SWAP1 SSTORE DUP6 PUSH1 0x1 ADD PUSH1 0x0 DUP7 DUP2 MSTORE PUSH1 0x20 ADD SWAP1 DUP2 MSTORE PUSH1 0x20 ADD PUSH1 0x0 KECCAK256 PUSH1 0x0 SWAP1 SSTORE PUSH1 0x1 SWAP4 POP POP POP POP PUSH2 0x7FF JUMP JUMPDEST PUSH1 0x0 SWAP2 POP POP PUSH2 0x7FF JUMP JUMPDEST PUSH1 0x0 DUP2 DUP2 MSTORE PUSH1 0x1 DUP4 ADD PUSH1 0x20 MSTORE PUSH1 0x40 DUP2 KECCAK256 SLOAD PUSH2 0x46AB JUMPI POP DUP2 SLOAD PUSH1 0x1 DUP2 DUP2 ADD DUP5 SSTORE PUSH1 0x0 DUP5 DUP2 MSTORE PUSH1 0x20 DUP1 DUP3 KECCAK256 SWAP1 SWAP4 ADD DUP5 SWAP1 SSTORE DUP5 SLOAD DUP5 DUP3 MSTORE DUP3 DUP7 ADD SWAP1 SWAP4 MSTORE PUSH1 0x40 SWAP1 KECCAK256 SWAP2 SWAP1 SWAP2 SSTORE PUSH2 0x7FF JUMP JUMPDEST POP PUSH1 0x0 PUSH2 0x7FF JUMP JUMPDEST PUSH1 0x40 DUP1 MLOAD PUSH1 0xE0 DUP2 ADD SWAP1 SWAP2 MSTORE DUP1 PUSH1 0x0 DUP2 MSTORE PUSH1 0x20 ADD PUSH1 0x0 DUP2 MSTORE PUSH1 0x20 ADD PUSH1 0x0 DUP2 MSTORE PUSH1 0x20 ADD PUSH1 0x0 DUP2 MSTORE PUSH1 0x20 ADD PUSH1 0x0 DUP2 MSTORE PUSH1 0x20 ADD PUSH1 0x0 DUP2 MSTORE PUSH1 0x20 ADD PUSH1 0x0 PUSH1 0x2 DUP2 GT ISZERO PUSH2 0x470A JUMPI PUSH4 0x4E487B71 PUSH1 0xE0 SHL PUSH1 0x0 MSTORE PUSH1 0x21 PUSH1 0x4 MSTORE PUSH1 0x24 PUSH1 0x0 REVERT JUMPDEST SWAP1 MSTORE SWAP1 JUMP JUMPDEST DUP3 DUP1 SLOAD PUSH2 0x471B SWAP1 PUSH2 0x520F JUMP JUMPDEST SWAP1 PUSH1 0x0 MSTORE PUSH1 0x20 PUSH1 0x0 KECCAK256 SWAP1 PUSH1 0x1F ADD PUSH1 0x20 SWAP1 DIV DUP2 ADD SWAP3 DUP3 PUSH2 0x473D JUMPI PUSH1 0x0 DUP6 SSTORE PUSH2 0x4783 JUMP JUMPDEST DUP3 PUSH1 0x1F LT PUSH2 0x4756 JUMPI DUP1 MLOAD PUSH1 0xFF NOT AND DUP4 DUP1 ADD OR DUP6 SSTORE PUSH2 0x4783 JUMP JUMPDEST DUP3 DUP1 ADD PUSH1 0x1 ADD DUP6 SSTORE DUP3 ISZERO PUSH2 0x4783 JUMPI SWAP2 DUP3 ADD JUMPDEST DUP3 DUP2 GT ISZERO PUSH2 0x4783 JUMPI DUP3 MLOAD DUP3 SSTORE SWAP2 PUSH1 0x20 ADD SWAP2 SWAP1 PUSH1 0x1 ADD SWAP1 PUSH2 0x4768 JUMP JUMPDEST POP PUSH2 0x478F SWAP3 SWAP2 POP PUSH2 0x4793 JUMP JUMPDEST POP SWAP1 JUMP JUMPDEST JUMPDEST DUP1 DUP3 GT ISZERO PUSH2 0x478F JUMPI PUSH1 0x0 DUP2 SSTORE PUSH1 0x1 ADD PUSH2 0x4794 JUMP JUMPDEST PUSH1 0x0 PUSH1 0x1 PUSH1 0x1 PUSH1 0x40 SHL SUB DUP1 DUP5 GT ISZERO PUSH2 0x47C2 JUMPI PUSH2 0x47C2 PUSH2 0x52B5 JUMP JUMPDEST PUSH1 0x40 MLOAD PUSH1 0x1F DUP6 ADD PUSH1 0x1F NOT SWAP1 DUP2 AND PUSH1 0x3F ADD AND DUP2 ADD SWAP1 DUP3 DUP3 GT DUP2 DUP4 LT OR ISZERO PUSH2 0x47EA JUMPI PUSH2 0x47EA PUSH2 0x52B5 JUMP JUMPDEST DUP2 PUSH1 0x40 MSTORE DUP1 SWAP4 POP DUP6 DUP2 MSTORE DUP7 DUP7 DUP7 ADD GT ISZERO PUSH2 0x4803 JUMPI PUSH1 0x0 DUP1 REVERT JUMPDEST DUP6 DUP6 PUSH1 0x20 DUP4 ADD CALLDATACOPY PUSH1 0x0 PUSH1 0x20 DUP8 DUP4 ADD ADD MSTORE POP POP POP SWAP4 SWAP3 POP POP POP JUMP JUMPDEST PUSH1 0x0 DUP1 DUP4 PUSH1 0x1F DUP5 ADD SLT PUSH2 0x482E JUMPI DUP2 DUP3 REVERT JUMPDEST POP DUP2 CALLDATALOAD PUSH1 0x1 PUSH1 0x1 PUSH1 0x40 SHL SUB DUP2 GT ISZERO PUSH2 0x4844 JUMPI DUP2 DUP3 REVERT JUMPDEST PUSH1 0x20 DUP4 ADD SWAP2 POP DUP4 PUSH1 0x20 DUP3 PUSH1 0x5 SHL DUP6 ADD ADD GT ISZERO PUSH2 0x485F JUMPI PUSH1 0x0 DUP1 REVERT JUMPDEST SWAP3 POP SWAP3 SWAP1 POP JUMP JUMPDEST DUP1 MLOAD PUSH1 0x1 PUSH1 0x1 PUSH1 0x50 SHL SUB DUP2 AND DUP2 EQ PUSH2 0x487D JUMPI PUSH1 0x0 DUP1 REVERT JUMPDEST SWAP2 SWAP1 POP JUMP JUMPDEST PUSH1 0x0 PUSH1 0x20 DUP3 DUP5 SUB SLT ISZERO PUSH2 0x4893 JUMPI DUP1 DUP2 REVERT JUMPDEST DUP2 CALLDATALOAD PUSH2 0x20C8 DUP2 PUSH2 0x52CB JUMP JUMPDEST PUSH1 0x0 PUSH1 0x20 DUP3 DUP5 SUB SLT ISZERO PUSH2 0x48AF JUMPI DUP1 DUP2 REVERT JUMPDEST DUP2 MLOAD PUSH2 0x20C8 DUP2 PUSH2 0x52CB JUMP JUMPDEST PUSH1 0x0 DUP1 PUSH1 0x40 DUP4 DUP6 SUB SLT ISZERO PUSH2 0x48CC JUMPI DUP1 DUP2 REVERT JUMPDEST DUP3 CALLDATALOAD PUSH2 0x48D7 DUP2 PUSH2 0x52CB JUMP JUMPDEST SWAP2 POP PUSH1 0x20 DUP4 ADD CALLDATALOAD PUSH2 0x48E7 DUP2 PUSH2 0x52CB JUMP JUMPDEST DUP1 SWAP2 POP POP SWAP3 POP SWAP3 SWAP1 POP JUMP JUMPDEST PUSH1 0x0 DUP1 PUSH1 0x0 PUSH1 0x60 DUP5 DUP7 SUB SLT ISZERO PUSH2 0x4906 JUMPI DUP1 DUP2 REVERT JUMPDEST DUP4 CALLDATALOAD PUSH2 0x4911 DUP2 PUSH2 0x52CB JUMP JUMPDEST SWAP3 POP PUSH1 0x20 DUP5 ADD CALLDATALOAD PUSH2 0x4921 DUP2 PUSH2 0x52CB JUMP JUMPDEST SWAP3 SWAP6 SWAP3 SWAP5 POP POP POP PUSH1 0x40 SWAP2 SWAP1 SWAP2 ADD CALLDATALOAD SWAP1 JUMP JUMPDEST PUSH1 0x0 DUP1 PUSH1 0x0 DUP1 PUSH1 0x80 DUP6 DUP8 SUB SLT ISZERO PUSH2 0x4947 JUMPI DUP1 DUP2 REVERT JUMPDEST DUP5 CALLDATALOAD PUSH2 0x4952 DUP2 PUSH2 0x52CB JUMP JUMPDEST SWAP4 POP PUSH1 0x20 DUP6 ADD CALLDATALOAD PUSH2 0x4962 DUP2 PUSH2 0x52CB JUMP JUMPDEST SWAP3 POP PUSH1 0x40 DUP6 ADD CALLDATALOAD SWAP2 POP PUSH1 0x60 DUP6 ADD CALLDATALOAD PUSH1 0x1 PUSH1 0x1 PUSH1 0x40 SHL SUB DUP2 GT ISZERO PUSH2 0x4983 JUMPI DUP2 DUP3 REVERT JUMPDEST DUP6 ADD PUSH1 0x1F DUP2 ADD DUP8 SGT PUSH2 0x4993 JUMPI DUP2 DUP3 REVERT JUMPDEST PUSH2 0x49A2 DUP8 DUP3 CALLDATALOAD PUSH1 0x20 DUP5 ADD PUSH2 0x47A8 JUMP JUMPDEST SWAP2 POP POP SWAP3 SWAP6 SWAP2 SWAP5 POP SWAP3 POP JUMP JUMPDEST PUSH1 0x0 DUP1 PUSH1 0x0 DUP1 PUSH1 0x80 DUP6 DUP8 SUB SLT ISZERO PUSH2 0x49C3 JUMPI DUP4 DUP5 REVERT JUMPDEST DUP5 CALLDATALOAD PUSH2 0x49CE DUP2 PUSH2 0x52CB JUMP JUMPDEST SWAP4 POP PUSH1 0x20 DUP6 ADD CALLDATALOAD PUSH2 0x49DE DUP2 PUSH2 0x52CB JUMP JUMPDEST SWAP4 SWAP7 SWAP4 SWAP6 POP POP POP POP PUSH1 0x40 DUP3 ADD CALLDATALOAD SWAP2 PUSH1 0x60 ADD CALLDATALOAD SWAP1 JUMP JUMPDEST PUSH1 0x0 DUP1 PUSH1 0x0 DUP1 PUSH1 0x0 PUSH1 0xA0 DUP7 DUP9 SUB SLT ISZERO PUSH2 0x4A0A JUMPI DUP1 DUP2 REVERT JUMPDEST DUP6 CALLDATALOAD PUSH2 0x4A15 DUP2 PUSH2 0x52CB JUMP JUMPDEST SWAP5 POP PUSH1 0x20 DUP7 ADD CALLDATALOAD PUSH2 0x4A25 DUP2 PUSH2 0x52CB JUMP JUMPDEST SWAP5 SWAP8 SWAP5 SWAP7 POP POP POP POP PUSH1 0x40 DUP4 ADD CALLDATALOAD SWAP3 PUSH1 0x60 DUP2 ADD CALLDATALOAD SWAP3 PUSH1 0x80 SWAP1 SWAP2 ADD CALLDATALOAD SWAP2 POP JUMP JUMPDEST PUSH1 0x0 DUP1 PUSH1 0x40 DUP4 DUP6 SUB SLT ISZERO PUSH2 0x4A55 JUMPI DUP2 DUP3 REVERT JUMPDEST DUP3 CALLDATALOAD PUSH2 0x4A60 DUP2 PUSH2 0x52CB JUMP JUMPDEST SWAP2 POP PUSH1 0x20 DUP4 ADD CALLDATALOAD PUSH2 0x48E7 DUP2 PUSH2 0x52E0 JUMP JUMPDEST PUSH1 0x0 DUP1 PUSH1 0x40 DUP4 DUP6 SUB SLT ISZERO PUSH2 0x4A82 JUMPI DUP2 DUP3 REVERT JUMPDEST DUP3 CALLDATALOAD PUSH2 0x4A8D DUP2 PUSH2 0x52CB JUMP JUMPDEST SWAP5 PUSH1 0x20 SWAP4 SWAP1 SWAP4 ADD CALLDATALOAD SWAP4 POP POP POP JUMP JUMPDEST PUSH1 0x0 DUP1 PUSH1 0x0 PUSH1 0x60 DUP5 DUP7 SUB SLT ISZERO PUSH2 0x4AAF JUMPI DUP1 DUP2 REVERT JUMPDEST DUP4 CALLDATALOAD PUSH2 0x4ABA DUP2 PUSH2 0x52CB JUMP JUMPDEST SWAP6 PUSH1 0x20 DUP6 ADD CALLDATALOAD SWAP6 POP PUSH1 0x40 SWAP1 SWAP5 ADD CALLDATALOAD SWAP4 SWAP3 POP POP POP JUMP JUMPDEST PUSH1 0x0 DUP1 PUSH1 0x20 DUP4 DUP6 SUB SLT ISZERO PUSH2 0x4AE1 JUMPI DUP2 DUP3 REVERT JUMPDEST DUP3 CALLDATALOAD PUSH1 0x1 PUSH1 0x1 PUSH1 0x40 SHL SUB DUP2 GT ISZERO PUSH2 0x4AF6 JUMPI DUP3 DUP4 REVERT JUMPDEST PUSH2 0x4B02 DUP6 DUP3 DUP7 ADD PUSH2 0x481D JUMP JUMPDEST SWAP1 SWAP7 SWAP1 SWAP6 POP SWAP4 POP POP POP POP JUMP JUMPDEST PUSH1 0x0 DUP1 PUSH1 0x0 PUSH1 0x40 DUP5 DUP7 SUB SLT ISZERO PUSH2 0x4B22 JUMPI DUP1 DUP2 REVERT JUMPDEST DUP4 CALLDATALOAD PUSH1 0x1 PUSH1 0x1 PUSH1 0x40 SHL SUB DUP2 GT ISZERO PUSH2 0x4B37 JUMPI DUP2 DUP3 REVERT JUMPDEST PUSH2 0x4B43 DUP7 DUP3 DUP8 ADD PUSH2 0x481D JUMP JUMPDEST SWAP1 SWAP8 SWAP1 SWAP7 POP PUSH1 0x20 SWAP6 SWAP1 SWAP6 ADD CALLDATALOAD SWAP5 SWAP4 POP POP POP POP JUMP JUMPDEST PUSH1 0x0 PUSH1 0x20 DUP3 DUP5 SUB SLT ISZERO PUSH2 0x4B68 JUMPI DUP1 DUP2 REVERT JUMPDEST DUP2 MLOAD PUSH2 0x20C8 DUP2 PUSH2 0x52E0 JUMP JUMPDEST PUSH1 0x0 PUSH1 0x20 DUP3 DUP5 SUB SLT ISZERO PUSH2 0x4B84 JUMPI DUP1 DUP2 REVERT JUMPDEST POP CALLDATALOAD SWAP2 SWAP1 POP JUMP JUMPDEST PUSH1 0x0 DUP1 PUSH1 0x40 DUP4 DUP6 SUB SLT ISZERO PUSH2 0x4B9D JUMPI DUP2 DUP3 REVERT JUMPDEST DUP3 CALLDATALOAD SWAP2 POP PUSH1 0x20 DUP4 ADD CALLDATALOAD PUSH2 0x48E7 DUP2 PUSH2 0x52CB JUMP JUMPDEST PUSH1 0x0 PUSH1 0x20 DUP3 DUP5 SUB SLT ISZERO PUSH2 0x4BC0 JUMPI DUP1 DUP2 REVERT JUMPDEST DUP2 CALLDATALOAD PUSH2 0x20C8 DUP2 PUSH2 0x52EE JUMP JUMPDEST PUSH1 0x0 PUSH1 0x20 DUP3 DUP5 SUB SLT ISZERO PUSH2 0x4BDC JUMPI DUP1 DUP2 REVERT JUMPDEST DUP2 MLOAD PUSH2 0x20C8 DUP2 PUSH2 0x52EE JUMP JUMPDEST PUSH1 0x0 PUSH1 0x20 DUP3 DUP5 SUB SLT ISZERO PUSH2 0x4BF8 JUMPI DUP1 DUP2 REVERT JUMPDEST POP MLOAD SWAP2 SWAP1 POP JUMP JUMPDEST PUSH1 0x0 DUP1 PUSH1 0x0 PUSH1 0x40 DUP5 DUP7 SUB SLT ISZERO PUSH2 0x4C13 JUMPI DUP1 DUP2 REVERT JUMPDEST DUP4 CALLDATALOAD SWAP3 POP PUSH1 0x20 DUP5 ADD CALLDATALOAD PUSH1 0x1 PUSH1 0x1 PUSH1 0x40 SHL SUB DUP2 GT ISZERO PUSH2 0x4C2F JUMPI DUP2 DUP3 REVERT JUMPDEST PUSH2 0x4C3B DUP7 DUP3 DUP8 ADD PUSH2 0x481D JUMP JUMPDEST SWAP5 SWAP8 SWAP1 SWAP7 POP SWAP4 SWAP5 POP POP POP POP JUMP JUMPDEST PUSH1 0x0 DUP1 PUSH1 0x40 DUP4 DUP6 SUB SLT ISZERO PUSH2 0x4C5A JUMPI DUP2 DUP3 REVERT JUMPDEST POP POP DUP1 CALLDATALOAD SWAP3 PUSH1 0x20 SWAP1 SWAP2 ADD CALLDATALOAD SWAP2 POP JUMP JUMPDEST PUSH1 0x0 DUP1 PUSH1 0x0 DUP1 PUSH1 0x0 PUSH1 0xA0 DUP7 DUP9 SUB SLT ISZERO PUSH2 0x4C80 JUMPI DUP3 DUP4 REVERT JUMPDEST DUP6 CALLDATALOAD SWAP5 POP PUSH1 0x20 DUP7 ADD CALLDATALOAD SWAP4 POP PUSH1 0x40 DUP7 ADD CALLDATALOAD SWAP3 POP PUSH1 0x60 DUP7 ADD CALLDATALOAD PUSH2 0x4CA0 DUP2 PUSH2 0x52E0 JUMP JUMPDEST SWAP2 POP PUSH1 0x80 DUP7 ADD CALLDATALOAD PUSH2 0x4CB0 DUP2 PUSH2 0x52E0 JUMP JUMPDEST DUP1 SWAP2 POP POP SWAP3 SWAP6 POP SWAP3 SWAP6 SWAP1 SWAP4 POP JUMP JUMPDEST PUSH1 0x0 DUP1 PUSH1 0x0 DUP1 PUSH1 0x0 DUP1 PUSH1 0x0 PUSH1 0xE0 DUP9 DUP11 SUB SLT ISZERO PUSH2 0x4CD8 JUMPI DUP5 DUP6 REVERT JUMPDEST DUP8 CALLDATALOAD SWAP7 POP PUSH1 0x20 DUP9 ADD CALLDATALOAD SWAP6 POP PUSH1 0x40 DUP9 ADD CALLDATALOAD SWAP5 POP PUSH1 0x60 DUP9 ADD CALLDATALOAD PUSH2 0x4CF8 DUP2 PUSH2 0x52E0 JUMP JUMPDEST SWAP4 POP PUSH1 0x80 DUP9 ADD CALLDATALOAD PUSH2 0x4D08 DUP2 PUSH2 0x52E0 JUMP JUMPDEST SWAP3 POP PUSH1 0xA0 DUP9 ADD CALLDATALOAD PUSH2 0x4D18 DUP2 PUSH2 0x52CB JUMP JUMPDEST SWAP2 POP PUSH1 0xC0 DUP9 ADD CALLDATALOAD PUSH1 0x1 PUSH1 0x1 PUSH1 0x40 SHL SUB DUP2 GT ISZERO PUSH2 0x4D32 JUMPI DUP2 DUP3 REVERT JUMPDEST DUP9 ADD PUSH1 0x1F DUP2 ADD DUP11 SGT PUSH2 0x4D42 JUMPI DUP2 DUP3 REVERT JUMPDEST PUSH2 0x4D51 DUP11 DUP3 CALLDATALOAD PUSH1 0x20 DUP5 ADD PUSH2 0x47A8 JUMP JUMPDEST SWAP2 POP POP SWAP3 SWAP6 SWAP9 SWAP2 SWAP5 SWAP8 POP SWAP3 SWAP6 POP JUMP JUMPDEST PUSH1 0x0 DUP1 PUSH1 0x0 DUP1 PUSH1 0x0 PUSH1 0xA0 DUP7 DUP9 SUB SLT ISZERO PUSH2 0x4D77 JUMPI DUP3 DUP4 REVERT JUMPDEST PUSH2 0x4D80 DUP7 PUSH2 0x4866 JUMP JUMPDEST SWAP5 POP PUSH1 0x20 DUP7 ADD MLOAD SWAP4 POP PUSH1 0x40 DUP7 ADD MLOAD SWAP3 POP PUSH1 0x60 DUP7 ADD MLOAD SWAP2 POP PUSH2 0x4DA3 PUSH1 0x80 DUP8 ADD PUSH2 0x4866 JUMP JUMPDEST SWAP1 POP SWAP3 SWAP6 POP SWAP3 SWAP6 SWAP1 SWAP4 POP JUMP JUMPDEST PUSH1 0x0 DUP2 MLOAD DUP1 DUP5 MSTORE PUSH2 0x4DC7 DUP2 PUSH1 0x20 DUP7 ADD PUSH1 0x20 DUP7 ADD PUSH2 0x51CC JUMP JUMPDEST PUSH1 0x1F ADD PUSH1 0x1F NOT AND SWAP3 SWAP1 SWAP3 ADD PUSH1 0x20 ADD SWAP3 SWAP2 POP POP JUMP JUMPDEST PUSH1 0x3 DUP2 LT PUSH2 0x4DEB JUMPI PUSH2 0x4DEB PUSH2 0x529F JUMP JUMPDEST SWAP1 MSTORE JUMP JUMPDEST PUSH1 0x0 DUP4 MLOAD PUSH2 0x4E01 DUP2 DUP5 PUSH1 0x20 DUP9 ADD PUSH2 0x51CC JUMP JUMPDEST DUP4 MLOAD SWAP1 DUP4 ADD SWAP1 PUSH2 0x4E15 DUP2 DUP4 PUSH1 0x20 DUP9 ADD PUSH2 0x51CC JUMP JUMPDEST ADD SWAP5 SWAP4 POP POP POP POP JUMP JUMPDEST PUSH23 0x20B1B1B2B9B9A1B7B73A3937B61D1030B1B1B7BAB73A1 PUSH1 0x4D SHL DUP2 MSTORE PUSH1 0x0 DUP4 MLOAD PUSH2 0x4E50 DUP2 PUSH1 0x17 DUP6 ADD PUSH1 0x20 DUP9 ADD PUSH2 0x51CC JUMP JUMPDEST PUSH17 0x1034B99036B4B9B9B4B733903937B6329 PUSH1 0x7D SHL PUSH1 0x17 SWAP2 DUP5 ADD SWAP2 DUP3 ADD MSTORE DUP4 MLOAD PUSH2 0x4E81 DUP2 PUSH1 0x28 DUP5 ADD PUSH1 0x20 DUP9 ADD PUSH2 0x51CC JUMP JUMPDEST ADD PUSH1 0x28 ADD SWAP5 SWAP4 POP POP POP POP JUMP JUMPDEST PUSH1 0x1 PUSH1 0x1 PUSH1 0xA0 SHL SUB DUP6 DUP2 AND DUP3 MSTORE DUP5 AND PUSH1 0x20 DUP3 ADD MSTORE PUSH1 0x40 DUP2 ADD DUP4 SWAP1 MSTORE PUSH1 0x80 PUSH1 0x60 DUP3 ADD DUP2 SWAP1 MSTORE PUSH1 0x0 SWAP1 PUSH2 0x4EC0 SWAP1 DUP4 ADD DUP5 PUSH2 0x4DAF JUMP JUMPDEST SWAP7 SWAP6 POP POP POP POP POP POP JUMP JUMPDEST PUSH1 0x1 PUSH1 0x1 PUSH1 0xA0 SHL SUB SWAP3 SWAP1 SWAP3 AND DUP3 MSTORE PUSH1 0x20 DUP3 ADD MSTORE PUSH1 0x40 ADD SWAP1 JUMP JUMPDEST PUSH1 0x20 DUP1 DUP3 MSTORE DUP3 MLOAD DUP3 DUP3 ADD DUP2 SWAP1 MSTORE PUSH1 0x0 SWAP2 SWAP1 DUP5 DUP3 ADD SWAP1 PUSH1 0x40 DUP6 ADD SWAP1 DUP5 JUMPDEST DUP2 DUP2 LT ISZERO PUSH2 0x4F1B JUMPI DUP4 MLOAD DUP4 MSTORE SWAP3 DUP5 ADD SWAP3 SWAP2 DUP5 ADD SWAP2 PUSH1 0x1 ADD PUSH2 0x4EFF JUMP JUMPDEST POP SWAP1 SWAP7 SWAP6 POP POP POP POP POP POP JUMP JUMPDEST PUSH1 0xE0 DUP2 ADD PUSH1 0x4 DUP10 LT PUSH2 0x4F3B JUMPI PUSH2 0x4F3B PUSH2 0x529F JUMP JUMPDEST DUP9 DUP3 MSTORE DUP8 PUSH1 0x20 DUP4 ADD MSTORE DUP7 PUSH1 0x40 DUP4 ADD MSTORE DUP6 PUSH1 0x60 DUP4 ADD MSTORE DUP5 PUSH1 0x80 DUP4 ADD MSTORE DUP4 PUSH1 0xA0 DUP4 ADD MSTORE PUSH2 0x4F69 PUSH1 0xC0 DUP4 ADD DUP5 PUSH2 0x4DDB JUMP JUMPDEST SWAP9 SWAP8 POP POP POP POP POP POP POP POP JUMP JUMPDEST SWAP2 DUP3 MSTORE PUSH1 0x20 DUP3 ADD MSTORE PUSH1 0x40 ADD SWAP1 JUMP JUMPDEST PUSH1 0x20 DUP2 MSTORE PUSH1 0x0 PUSH2 0x20C8 PUSH1 0x20 DUP4 ADD DUP5 PUSH2 0x4DAF JUMP JUMPDEST PUSH1 0x20 DUP1 DUP3 MSTORE PUSH1 0x2 SWAP1 DUP3 ADD MSTORE PUSH2 0x4F39 PUSH1 0xF0 SHL PUSH1 0x40 DUP3 ADD MSTORE PUSH1 0x60 ADD SWAP1 JUMP JUMPDEST PUSH1 0x20 DUP1 DUP3 MSTORE PUSH1 0x32 SWAP1 DUP3 ADD MSTORE PUSH32 0x4552433732313A207472616E7366657220746F206E6F6E204552433732315265 PUSH1 0x40 DUP3 ADD MSTORE PUSH18 0x31B2B4BB32B91034B6B83632B6B2B73A32B9 PUSH1 0x71 SHL PUSH1 0x60 DUP3 ADD MSTORE PUSH1 0x80 ADD SWAP1 JUMP JUMPDEST PUSH1 0x20 DUP1 DUP3 MSTORE PUSH1 0x3 SWAP1 DUP3 ADD MSTORE PUSH3 0x4F323 PUSH1 0xEC SHL PUSH1 0x40 DUP3 ADD MSTORE PUSH1 0x60 ADD SWAP1 JUMP JUMPDEST PUSH1 0x20 DUP1 DUP3 MSTORE PUSH1 0x2 SWAP1 DUP3 ADD MSTORE PUSH2 0x4E37 PUSH1 0xF0 SHL PUSH1 0x40 DUP3 ADD MSTORE PUSH1 0x60 ADD SWAP1 JUMP JUMPDEST PUSH1 0x20 DUP1 DUP3 MSTORE DUP2 DUP2 ADD MSTORE PUSH32 0x4F776E61626C653A2063616C6C6572206973206E6F7420746865206F776E6572 PUSH1 0x40 DUP3 ADD MSTORE PUSH1 0x60 ADD SWAP1 JUMP JUMPDEST PUSH1 0x20 DUP1 DUP3 MSTORE PUSH1 0x31 SWAP1 DUP3 ADD MSTORE PUSH32 0x4552433732313A207472616E736665722063616C6C6572206973206E6F74206F PUSH1 0x40 DUP3 ADD MSTORE PUSH17 0x1DDB995C881B9BDC88185C1C1C9BDD9959 PUSH1 0x7A SHL PUSH1 0x60 DUP3 ADD MSTORE PUSH1 0x80 ADD SWAP1 JUMP JUMPDEST PUSH1 0x20 DUP1 DUP3 MSTORE PUSH1 0x2 SWAP1 DUP3 ADD MSTORE PUSH2 0x13CD PUSH1 0xF2 SHL PUSH1 0x40 DUP3 ADD MSTORE PUSH1 0x60 ADD SWAP1 JUMP JUMPDEST DUP5 DUP2 MSTORE PUSH1 0x20 DUP2 ADD DUP5 SWAP1 MSTORE PUSH1 0x80 DUP2 ADD PUSH2 0x50FA PUSH1 0x40 DUP4 ADD DUP6 PUSH2 0x4DDB JUMP JUMPDEST DUP3 ISZERO ISZERO PUSH1 0x60 DUP4 ADD MSTORE SWAP6 SWAP5 POP POP POP POP POP JUMP JUMPDEST DUP5 DUP2 MSTORE PUSH1 0x20 DUP2 ADD DUP5 SWAP1 MSTORE PUSH1 0x80 DUP2 ADD PUSH2 0x5126 PUSH1 0x40 DUP4 ADD DUP6 PUSH2 0x4DDB JUMP JUMPDEST DUP3 PUSH1 0x60 DUP4 ADD MSTORE SWAP6 SWAP5 POP POP POP POP POP JUMP JUMPDEST DUP4 DUP2 MSTORE DUP3 PUSH1 0x20 DUP3 ADD MSTORE PUSH1 0x60 PUSH1 0x40 DUP3 ADD MSTORE PUSH1 0x0 PUSH2 0x2C89 PUSH1 0x60 DUP4 ADD DUP5 PUSH2 0x4DAF JUMP JUMPDEST SWAP3 DUP4 MSTORE PUSH1 0x20 DUP4 ADD SWAP2 SWAP1 SWAP2 MSTORE PUSH1 0x40 DUP3 ADD MSTORE PUSH1 0x60 ADD SWAP1 JUMP JUMPDEST PUSH1 0x0 DUP3 NOT DUP3 GT ISZERO PUSH2 0x517D JUMPI PUSH2 0x517D PUSH2 0x5273 JUMP JUMPDEST POP ADD SWAP1 JUMP JUMPDEST PUSH1 0x0 DUP3 PUSH2 0x5191 JUMPI PUSH2 0x5191 PUSH2 0x5289 JUMP JUMPDEST POP DIV SWAP1 JUMP JUMPDEST PUSH1 0x0 DUP2 PUSH1 0x0 NOT DIV DUP4 GT DUP3 ISZERO ISZERO AND ISZERO PUSH2 0x51B0 JUMPI PUSH2 0x51B0 PUSH2 0x5273 JUMP JUMPDEST POP MUL SWAP1 JUMP JUMPDEST PUSH1 0x0 DUP3 DUP3 LT ISZERO PUSH2 0x51C7 JUMPI PUSH2 0x51C7 PUSH2 0x5273 JUMP JUMPDEST POP SUB SWAP1 JUMP JUMPDEST PUSH1 0x0 JUMPDEST DUP4 DUP2 LT ISZERO PUSH2 0x51E7 JUMPI DUP2 DUP2 ADD MLOAD DUP4 DUP3 ADD MSTORE PUSH1 0x20 ADD PUSH2 0x51CF JUMP JUMPDEST DUP4 DUP2 GT ISZERO PUSH2 0xFC1 JUMPI POP POP PUSH1 0x0 SWAP2 ADD MSTORE JUMP JUMPDEST PUSH1 0x0 DUP2 PUSH2 0x5207 JUMPI PUSH2 0x5207 PUSH2 0x5273 JUMP JUMPDEST POP PUSH1 0x0 NOT ADD SWAP1 JUMP JUMPDEST PUSH1 0x1 DUP2 DUP2 SHR SWAP1 DUP3 AND DUP1 PUSH2 0x5223 JUMPI PUSH1 0x7F DUP3 AND SWAP2 POP JUMPDEST PUSH1 0x20 DUP3 LT DUP2 EQ ISZERO PUSH2 0x8D6 JUMPI PUSH4 0x4E487B71 PUSH1 0xE0 SHL PUSH1 0x0 MSTORE PUSH1 0x22 PUSH1 0x4 MSTORE PUSH1 0x24 PUSH1 0x0 REVERT JUMPDEST PUSH1 0x0 PUSH1 0x0 NOT DUP3 EQ ISZERO PUSH2 0x5258 JUMPI PUSH2 0x5258 PUSH2 0x5273 JUMP JUMPDEST POP PUSH1 0x1 ADD SWAP1 JUMP JUMPDEST PUSH1 0x0 DUP3 PUSH2 0x526E JUMPI PUSH2 0x526E PUSH2 0x5289 JUMP JUMPDEST POP MOD SWAP1 JUMP JUMPDEST PUSH4 0x4E487B71 PUSH1 0xE0 SHL PUSH1 0x0 MSTORE PUSH1 0x11 PUSH1 0x4 MSTORE PUSH1 0x24 PUSH1 0x0 REVERT JUMPDEST PUSH4 0x4E487B71 PUSH1 0xE0 SHL PUSH1 0x0 MSTORE PUSH1 0x12 PUSH1 0x4 MSTORE PUSH1 0x24 PUSH1 0x0 REVERT JUMPDEST PUSH4 0x4E487B71 PUSH1 0xE0 SHL PUSH1 0x0 MSTORE PUSH1 0x21 PUSH1 0x4 MSTORE PUSH1 0x24 PUSH1 0x0 REVERT JUMPDEST PUSH4 0x4E487B71 PUSH1 0xE0 SHL PUSH1 0x0 MSTORE PUSH1 0x41 PUSH1 0x4 MSTORE PUSH1 0x24 PUSH1 0x0 REVERT JUMPDEST PUSH1 0x1 PUSH1 0x1 PUSH1 0xA0 SHL SUB DUP2 AND DUP2 EQ PUSH2 0xC0E JUMPI PUSH1 0x0 DUP1 REVERT JUMPDEST DUP1 ISZERO ISZERO DUP2 EQ PUSH2 0xC0E JUMPI PUSH1 0x0 DUP1 REVERT JUMPDEST PUSH1 0x1 PUSH1 0x1 PUSH1 0xE0 SHL SUB NOT DUP2 AND DUP2 EQ PUSH2 0xC0E JUMPI PUSH1 0x0 DUP1 REVERT INVALID PUSH9 0x747470733A2F2F6761 PUSH21 0x657761792E70696E6174612E636C6F75642F697066 PUSH20 0x2FDDF252AD1BE2C89B69C2B068FC378DAA952BA7 CALL PUSH4 0xC4A11628 CREATE2 GAS 0x4D CREATE2 0x23 0xB3 0xEF DUP3 GASPRICE CALLVALUE RETURNDATASIZE SHR DUP10 SWAP15 PUSH2 0xA4DB SLT 0x24 PUSH23 0x36A6882BF1FEFAE78BEF39170F8D0F5B53E456A2646970 PUSH7 0x7358221220BBFC 0x5C CALL LOG0 SWAP2 PUSH22 0x1ADF9131D55D647943BF7F219E8246D894D470099B86 0xF6 0x29 0xAD PUSH5 0x736F6C6343 STOP ADDMOD DIV STOP CALLER ","sha1":"ecd111a60b72014546478da8fab019aaeaf1910a","source":"pragma solidity ^0.8.0;\n\n// SPDX-License-Identifier: BUSL-1.1\n\nimport \"@openzeppelin/contracts/access/Ownable.sol\";\nimport \"@openzeppelin/contracts/security/ReentrancyGuard.sol\";\nimport \"@openzeppelin/contracts/token/ERC20/ERC20.sol\";\nimport \"./OptionConfig.sol\";\nimport \"./BufferNFTCore.sol\";\nimport \"../Pool/BufferIBFRPoolV2.sol\";\nimport \"../Libraries/OptionFeeCalculator.sol\";\n\n/**\n * @author Heisenberg\n * @title Buffer TokenX Bidirectional (Call and Put) Options\n * @notice Buffer TokenX Options Contract\n */\ncontract BufferBinaryEuropeanTokenXOptions is\n    IBufferOptions,\n    Ownable,\n    ReentrancyGuard,\n    BufferNFTCore\n{\n    ERC20 public tokenX;\n    mapping(uint256 => string) private _tokenURIs;\n    IPriceProvider public priceProvider;\n    uint256 public nextTokenId = 0;\n    mapping(uint256 => Option) public options;\n    mapping(uint256 => BinaryOptionType) public binaryOptionType;\n    mapping(uint256 => uint256) public expiryToRoundID;\n    BufferIBFRPoolV2 public pool;\n    OptionConfig public config;\n    mapping(uint256 => SlotDetail) public slotDetails;\n    uint256 internal contractCreationTimestamp;\n\n    bytes32 public constant AUTO_CLOSER_ROLE = keccak256(\"AUTO_CLOSER_ROLE\");\n\n    uint256 public constant minimumYield = 5;\n\n    constructor(\n        ERC20 _tokenX,\n        IPriceProvider pp,\n        BufferIBFRPoolV2 _pool,\n        OptionConfig _config\n    ) {\n        tokenX = _tokenX;\n        pool = _pool;\n        contractCreationTimestamp = block.timestamp;\n        config = _config;\n        priceProvider = pp;\n        _setupRole(DEFAULT_ADMIN_ROLE, msg.sender);\n    }\n\n    /**\n     * @notice Call this to set the max approval for tokenX transfers from the options to pool\n     */\n    function approvePoolToTransferTokenX() public {\n        tokenX.approve(address(pool), ~uint256(0));\n    }\n\n    /************************************************\n     *  OPTIONS CORE\n     ***********************************************/\n    /**\n     * @notice Creates a new option\n     * @param amount Option amount in tokenX\n     * @param referrer Referrer address\n     * @param metadata Option metadata\n     * @return optionID Created option's ID\n     */\n    function create(\n        uint256 amount,\n        uint256 strike,\n        uint256 expiration,\n        bool isYes,\n        bool isAbove,\n        address referrer,\n        string memory metadata\n    ) external nonReentrant returns (uint256 optionID) {\n        (uint256 totalFee, uint256 settlementFee, uint256 premium) = fees(\n            expiration - block.timestamp,\n            amount,\n            strike,\n            isYes,\n            isAbove\n        );\n\n        require(\n            totalFee * 365 days * 100 >\n                amount * (expiration - block.timestamp) * minimumYield,\n            \"O2\"\n        );\n\n        // User has to approve first inorder to execute this function\n        bool success = tokenX.transferFrom(msg.sender, address(this), totalFee);\n        require(success, \"O3\");\n        OptionType optionType = OptionType.Put;\n\n        if (\n            (isYes == true && isAbove == true) ||\n            (isYes == false && isAbove == false)\n        ) {\n            optionType = OptionType.Call;\n        }\n        Option memory option = Option(\n            State.Active,\n            strike,\n            amount,\n            amount,\n            premium,\n            expiration,\n            optionType\n        );\n        optionID = _generateTokenId();\n        binaryOptionType[optionID] = BinaryOptionType(isYes, isAbove);\n        _setOption(optionID, option);\n        _mint(\n            optionID,\n            msg.sender,\n            createSlot(optionID, option.strike, option.expiration, optionType)\n        );\n        _setTokenURI(optionID, metadata);\n        uint256 stakingAmount = distributeSettlementFee(\n            settlementFee,\n            referrer\n        );\n\n        _lock(optionID, option.lockedAmount, option.premium);\n        emit Create(optionID, msg.sender, stakingAmount, totalFee, metadata);\n    }\n\n    function distributeSettlementFee(uint256 settlementFee, address referrer)\n        internal\n        returns (uint256 stakingAmount)\n    {\n        stakingAmount = ((settlementFee * config.stakingFeePercentage()) / 100);\n\n        // Incase the stakingAmount is 0\n        if (stakingAmount > 0) {\n            tokenX.transfer(config.settlementFeeRecipient(), stakingAmount);\n        }\n\n        uint256 adminFee = settlementFee - stakingAmount;\n        if (adminFee > 0) {\n            if (\n                config.referralRewardPercentage() > 0 &&\n                referrer != owner() &&\n                referrer != msg.sender\n            ) {\n                uint256 referralReward = (adminFee *\n                    config.referralRewardPercentage()) / 100;\n                adminFee = adminFee - referralReward;\n                tokenX.transfer(referrer, referralReward);\n                emit PayReferralFee(referrer, referralReward);\n            }\n            tokenX.transfer(owner(), adminFee);\n            emit PayAdminFee(owner(), adminFee);\n        }\n    }\n\n    function _modifyOption(\n        uint256 optionID,\n        Option memory option,\n        uint256 lockedAmount,\n        uint256 amount,\n        uint256 premium\n    ) internal returns (Option memory modifiedOption) {\n        option.lockedAmount = lockedAmount;\n        option.amount = amount;\n        option.premium = premium;\n        modifiedOption = option;\n        _setOption(optionID, option);\n    }\n\n    function _lock(\n        uint256 id,\n        uint256 lockedAmount,\n        uint256 premium\n    ) internal {\n        pool.lock(id, lockedAmount, premium);\n    }\n\n    /**\n     * @notice Sets the expiry price in the oracle\n     * @dev a roundId must be provided to confirm price validity,\n     * which is the first Chainlink price provided after the expiryTimestamp\n     * @param roundId the first roundId after expiryTimestamp\n     */\n    function setRoundIDForExpiry(uint256 roundId, uint256 optionID)\n        external\n        returns (bool isCorrectRoundId)\n    {\n        (, uint256 price, , uint256 roundTimestamp, ) = priceProvider\n            .getRoundData(roundId);\n        Option storage option = options[optionID];\n        uint256 expiryTimestamp = option.expiration;\n        require(expiryTimestamp < roundTimestamp, \"C1\");\n        require(price >= 0, \"C2\");\n        uint256 previousRoundId = expiryToRoundID[expiryTimestamp];\n        if (previousRoundId <= 0) {\n            previousRoundId = roundId - 1;\n            while (!isCorrectRoundId) {\n                (, , , uint256 previousRoundTimestamp, ) = priceProvider\n                    .getRoundData(previousRoundId);\n                if (previousRoundTimestamp == 0) {\n                    require(previousRoundId > 0, \"C3\");\n                    previousRoundId = previousRoundId - 1;\n                } else if (previousRoundTimestamp > expiryTimestamp) {\n                    revert(\"C4\");\n                } else {\n                    isCorrectRoundId = true;\n                    expiryToRoundID[expiryTimestamp] = previousRoundId;\n                }\n            }\n        }\n    }\n\n    /**\n     * @notice Unlocks the locked funds if the option was\n     * OTM at the time of expiry otherwise exercises it\n     * @param optionID ID of the option\n     */\n    function unlock(uint256 optionID) public {\n        Option storage option = options[optionID];\n        require(option.expiration <= block.timestamp, \"O4\");\n        require(option.state == State.Active, \"O5\");\n        uint256 roundID = expiryToRoundID[option.expiration];\n        require(roundID > 0, \"O20\");\n        (, uint256 priceAtExpiration, , , ) = priceProvider.getRoundData(\n            roundID\n        );\n        if (\n            (option.optionType == OptionType.Call &&\n                priceAtExpiration > option.strike) ||\n            (option.optionType == OptionType.Put &&\n                priceAtExpiration < option.strike)\n        ) {\n            exercise(optionID);\n        } else {\n            option.state = State.Expired;\n            pool.unlock(optionID);\n            burnToken(optionID);\n            emit Expire(optionID, option.premium);\n        }\n    }\n\n    /**\n     * @notice Unlocks an array of options\n     * @param optionIDs array of options\n     */\n    function unlockAll(uint256[] calldata optionIDs) external {\n        uint256 arrayLength = optionIDs.length;\n        for (uint256 i = 0; i < arrayLength; i++) {\n            unlock(optionIDs[i]);\n        }\n    }\n\n    /**\n     * @notice Exercises an option if it was\n     * ITM at the time of expiry\n     * @param optionID ID of your option\n     * @return profit Profit sent to the user\n     */\n    function exercise(uint256 optionID) public returns (uint256 profit) {\n        require(exists(optionID), \"O10\");\n\n        Option storage option = options[optionID];\n\n        require(option.expiration <= block.timestamp, \"O4\");\n        require(option.state == State.Active, \"O14\");\n        uint256 roundID = expiryToRoundID[option.expiration];\n        require(roundID > 0, \"O20\");\n        (, uint256 priceAtExpiration, , , ) = priceProvider.getRoundData(\n            roundID\n        );\n\n        if (option.optionType == OptionType.Call) {\n            require(option.strike <= priceAtExpiration, \"O17\");\n        } else {\n            require(option.strike >= priceAtExpiration, \"O18\");\n        }\n        profit = option.lockedAmount;\n        pool.send(optionID, ownerOf(optionID), profit);\n        // Burn the option\n        burnToken(optionID);\n        option.state = State.Exercised;\n        emit Exercise(optionID, profit);\n    }\n\n    /**\n     * @notice Used for getting the option's price using blackscholes\n     * @param period Option period in seconds\n     * @param amount Option amount\n     * @param strike Strike price of the option\n     * @param isYes whether the option isAbove or not\n     * @param isAbove whether the price will stay above this strike or not\n     * @return total Total price to be paid\n     * @return settlementFee Amount to be distributed to the Buffer token holders\n     * @return premium Amount that covers the price difference in the ITM options\n     */\n    function fees(\n        uint256 period,\n        uint256 amount,\n        uint256 strike,\n        bool isYes,\n        bool isAbove\n    )\n        public\n        view\n        returns (\n            uint256 total,\n            uint256 settlementFee,\n            uint256 premium\n        )\n    {\n        uint256 currentPrice = priceProvider.getUsdPrice();\n\n        premium = FeeCalculator.feesTokenXBinary(\n            period,\n            amount,\n            strike,\n            isYes,\n            isAbove,\n            currentPrice,\n            config,\n            pool\n        );\n        settlementFee = getSettlementFee(amount);\n        total = settlementFee + premium;\n    }\n\n    /**\n     * @notice Calculates settlementFee\n     * @param amount Option amount\n     * @return fee Settlement fee amount\n     */\n    function getSettlementFee(uint256 amount)\n        internal\n        view\n        returns (uint256 fee)\n    {\n        return (amount * config.settlementFeePercentage()) / 100;\n    }\n\n\n    function _generateTokenId() internal returns (uint256) {\n        return nextTokenId++;\n    }\n\n    function _getOption(uint256 optionID)\n        internal\n        view\n        returns (Option memory)\n    {\n        return options[optionID];\n    }\n\n    function _setOption(uint256 optionID, Option memory option) internal {\n        options[optionID] = option;\n    }\n\n    function burn(uint256 tokenId_) external {\n        require(msg.sender == ownerOf(tokenId_), \"O9\");\n        burnToken(tokenId_);\n    }\n\n    /************************************************\n     *  ERC3525 Functions\n     ***********************************************/\n\n    /**\n     * @notice Splits the option\n     * @param optionID OptionId to be splitted\n     * @param splitUnits_ Units to be splitted into\n     * @return newOptionIDs An array of the splitted options\n     */\n    function split(uint256 optionID, uint256[] calldata splitUnits_)\n        external\n        returns (uint256[] memory newOptionIDs)\n    {\n        require(splitUnits_.length > 0, \"N1\");\n        newOptionIDs = new uint256[](splitUnits_.length);\n        Option memory option = _getOption(optionID);\n        uint256 totalUnits = unitsInToken(optionID);\n        uint256 totalChildAmount;\n        uint256 totalChildLockedAmount;\n        uint256 totalChildPremium;\n        // Create child options\n        for (uint256 i = 0; i < splitUnits_.length; i++) {\n            uint256 newOptionID = _generateTokenId();\n            newOptionIDs[i] = newOptionID;\n\n            _split(optionID, newOptionID, splitUnits_[i]);\n\n            uint256 childAmount = (option.amount * splitUnits_[i]) / totalUnits;\n            totalChildAmount += childAmount;\n\n            uint256 childLockedAmount = (option.lockedAmount * splitUnits_[i]) /\n                totalUnits;\n            totalChildLockedAmount += childLockedAmount;\n\n            uint256 childPremium = (option.premium * splitUnits_[i]) /\n                totalUnits;\n            totalChildPremium += childPremium;\n\n            Option memory newOption = Option(\n                option.state,\n                option.strike,\n                childAmount,\n                childLockedAmount,\n                childPremium,\n                option.expiration,\n                option.optionType\n            );\n            _setOption(newOptionID, newOption);\n        }\n        // Modify the parent option once all child options are created\n        option = _modifyOption(\n            optionID,\n            option,\n            option.lockedAmount - totalChildLockedAmount,\n            option.amount - totalChildAmount,\n            option.premium - totalChildPremium\n        );\n        pool.changeLock(optionID, option.lockedAmount, option.premium);\n\n        // Lock the amount in the pool for the child options\n        for (uint256 i = 0; i < splitUnits_.length; i++) {\n            Option memory newOption = _getOption(newOptionIDs[i]);\n            _lock(newOptionIDs[i], newOption.lockedAmount, newOption.premium);\n        }\n    }\n\n    /**\n     * @notice Merges the options\n     * @param optionIDs An array of the optionsIds to be merged\n     * @param targetOptionID OptionId to be merged into\n     */\n    function merge(uint256[] calldata optionIDs, uint256 targetOptionID)\n        external\n    {\n        require(optionIDs.length > 0, \"N4\");\n        Option memory targetOption = _getOption(targetOptionID);\n\n        uint256 totalLockedAmount = targetOption.lockedAmount;\n        uint256 totalAmount = targetOption.amount;\n        uint256 totalPremium = targetOption.premium;\n\n        for (uint256 i = 0; i < optionIDs.length; i++) {\n            Option memory option = _getOption(optionIDs[i]);\n            totalLockedAmount = totalLockedAmount + option.lockedAmount;\n            totalAmount = totalAmount + option.amount;\n            totalPremium = totalPremium + option.premium;\n            pool.unlockWithoutProfit(optionIDs[i]);\n            _merge(optionIDs[i], targetOptionID);\n        }\n        _modifyOption(\n            targetOptionID,\n            targetOption,\n            totalLockedAmount,\n            totalAmount,\n            totalPremium\n        );\n        pool.changeLock(targetOptionID, totalLockedAmount, totalPremium);\n    }\n\n    /**\n     * @notice Transfer part of units of a option to another option.\n     * @param optionID Id of the option to transfer\n     * @param transferUnits_ Amount of units to transfer\n     */\n    function _beforeTransferFrom(uint256 optionID, uint256 transferUnits_)\n        internal\n        returns (\n            uint256 newAmount,\n            uint256 newPremium,\n            uint256 newLockedAmount,\n            Option memory option\n        )\n    {\n        option = _getOption(optionID);\n        uint256 totalUnits = unitsInToken(optionID);\n        newAmount = (option.amount * transferUnits_) / totalUnits;\n        newPremium = (option.premium * transferUnits_) / totalUnits;\n        newLockedAmount = (option.lockedAmount * transferUnits_) / totalUnits;\n\n        option = _modifyOption(\n            optionID,\n            option,\n            option.lockedAmount - newLockedAmount,\n            option.amount - newAmount,\n            option.premium - newPremium\n        );\n        pool.changeLock(optionID, option.lockedAmount, option.premium);\n    }\n\n    /**\n     * @notice Transfer part of units of a option to target address.\n     * @param from_ Address of the option sender\n     * @param to_ Address of the option recipient\n     * @param optionID Id of the option to transfer\n     * @param transferUnits_ Amount of units to transfer\n     */\n    function transferFrom(\n        address from_,\n        address to_,\n        uint256 optionID,\n        uint256 transferUnits_\n    ) external returns (uint256 newOptionID) {\n        newOptionID = _generateTokenId();\n        (\n            uint256 newAmount,\n            uint256 newPremium,\n            uint256 newLockedAmount,\n            Option memory option\n        ) = _beforeTransferFrom(optionID, transferUnits_);\n        Option memory newOption = Option(\n            option.state,\n            option.strike,\n            newAmount,\n            newLockedAmount,\n            newPremium,\n            option.expiration,\n            option.optionType\n        );\n        _setOption(newOptionID, newOption);\n\n        _lock(newOptionID, newLockedAmount, newPremium);\n        _transferUnitsFrom(from_, to_, optionID, newOptionID, transferUnits_);\n    }\n\n    /**\n     * @notice Transfer part of units of a option to another option.\n     * @param from_ Address of the option sender\n     * @param to_ Address of the option recipient\n     * @param optionID Id of the option to transfer\n     * @param targetOptionID Id of the option to receive\n     * @param transferUnits_ Amount of units to transfer\n     */\n    function transferFrom(\n        address from_,\n        address to_,\n        uint256 optionID,\n        uint256 targetOptionID,\n        uint256 transferUnits_\n    ) external virtual {\n        require(exists(targetOptionID), \"N12\");\n        (\n            uint256 newAmount,\n            uint256 newPremium,\n            uint256 newLockedAmount,\n\n        ) = _beforeTransferFrom(optionID, transferUnits_);\n        Option memory targetOption = _getOption(targetOptionID);\n        targetOption = _modifyOption(\n            targetOptionID,\n            targetOption,\n            targetOption.lockedAmount + newLockedAmount,\n            targetOption.amount + newAmount,\n            targetOption.premium + newPremium\n        );\n\n        pool.changeLock(\n            targetOptionID,\n            targetOption.lockedAmount,\n            targetOption.premium\n        );\n        _transferUnitsFrom(\n            from_,\n            to_,\n            optionID,\n            targetOptionID,\n            transferUnits_\n        );\n    }\n\n    function createSlot(\n        uint256 optionID,\n        uint256 strike,\n        uint256 expiration,\n        OptionType optionType\n    ) internal returns (uint256 slot) {\n        slot = uint256(\n            keccak256(abi.encode(strike, expiration, optionType, optionID))\n        );\n        require(!slotDetails[slot].isValid, \"N14\");\n        slotDetails[slot] = SlotDetail(strike, expiration, optionType, true);\n    }\n}\n","sourcePath":"contracts/Options/BufferBinaryEuropeanTokenXOptions.sol","deployment":{"address":"0x26f9332EdB0bE6cb5c5F8B02Bdd3e5060C5d14C3","chainid":"588","blockHeight":5426594}}