{"abi":[{"inputs":[{"internalType":"address","name":"staking","type":"address"},{"internalType":"uint256","name":"initialImpliedVolRate","type":"uint256"},{"internalType":"contract BufferIBFRPoolV2","name":"_pool","type":"address"}],"stateMutability":"nonpayable","type":"constructor","name":"constructor"},{"anonymous":false,"inputs":[{"indexed":true,"internalType":"address","name":"approval","type":"address"},{"indexed":true,"internalType":"uint256","name":"tokenId","type":"uint256"},{"indexed":false,"internalType":"uint256","name":"allowance","type":"uint256"}],"name":"ApprovalUnits","type":"event"},{"anonymous":false,"inputs":[{"indexed":true,"internalType":"address","name":"account","type":"address"},{"indexed":false,"internalType":"bool","name":"status","type":"bool"}],"name":"AutoExerciseStatusChange","type":"event"},{"anonymous":false,"inputs":[{"indexed":true,"internalType":"uint256","name":"id","type":"uint256"},{"indexed":true,"internalType":"address","name":"account","type":"address"},{"indexed":false,"internalType":"uint256","name":"settlementFee","type":"uint256"},{"indexed":false,"internalType":"uint256","name":"totalFee","type":"uint256"},{"indexed":false,"internalType":"string","name":"metadata","type":"string"}],"name":"Create","type":"event"},{"anonymous":false,"inputs":[{"indexed":true,"internalType":"uint256","name":"id","type":"uint256"},{"indexed":false,"internalType":"uint256","name":"profit","type":"uint256"}],"name":"Exercise","type":"event"},{"anonymous":false,"inputs":[{"indexed":true,"internalType":"uint256","name":"id","type":"uint256"},{"indexed":false,"internalType":"uint256","name":"premium","type":"uint256"}],"name":"Expire","type":"event"},{"anonymous":false,"inputs":[{"indexed":true,"internalType":"address","name":"owner","type":"address"},{"indexed":true,"internalType":"uint256","name":"tokenId","type":"uint256"},{"indexed":true,"internalType":"uint256","name":"targetTokenId","type":"uint256"},{"indexed":false,"internalType":"uint256","name":"mergeUnits","type":"uint256"}],"name":"Merge","type":"event"},{"anonymous":false,"inputs":[{"indexed":true,"internalType":"address","name":"previousOwner","type":"address"},{"indexed":true,"internalType":"address","name":"newOwner","type":"address"}],"name":"OwnershipTransferred","type":"event"},{"anonymous":false,"inputs":[{"indexed":true,"internalType":"address","name":"owner","type":"address"},{"indexed":false,"internalType":"uint256","name":"amount","type":"uint256"}],"name":"PayAdminFee","type":"event"},{"anonymous":false,"inputs":[{"indexed":true,"internalType":"address","name":"referrer","type":"address"},{"indexed":false,"internalType":"uint256","name":"amount","type":"uint256"}],"name":"PayReferralFee","type":"event"},{"anonymous":false,"inputs":[{"indexed":true,"internalType":"address","name":"owner","type":"address"},{"indexed":true,"internalType":"uint256","name":"tokenId","type":"uint256"},{"indexed":false,"internalType":"uint256","name":"newTokenId","type":"uint256"},{"indexed":false,"internalType":"uint256","name":"splitUnits","type":"uint256"}],"name":"Split","type":"event"},{"anonymous":false,"inputs":[{"indexed":true,"internalType":"address","name":"from","type":"address"},{"indexed":true,"internalType":"address","name":"to","type":"address"},{"indexed":true,"internalType":"uint256","name":"tokenId","type":"uint256"},{"indexed":false,"internalType":"uint256","name":"targetTokenId","type":"uint256"},{"indexed":false,"internalType":"uint256","name":"transferUnits","type":"uint256"}],"name":"TransferUnits","type":"event"},{"anonymous":false,"inputs":[{"indexed":false,"internalType":"uint256","name":"value","type":"uint256"}],"name":"UpdateImpliedVolatility","type":"event"},{"anonymous":false,"inputs":[{"indexed":false,"internalType":"uint256","name":"value","type":"uint256"}],"name":"UpdateNFTSaleRoyaltyPercentage","type":"event"},{"anonymous":false,"inputs":[{"indexed":false,"internalType":"uint256","name":"value","type":"uint256"}],"name":"UpdateOptionCollaterizationRatio","type":"event"},{"anonymous":false,"inputs":[{"indexed":false,"internalType":"uint256","name":"startHour","type":"uint256"},{"indexed":false,"internalType":"uint256","name":"startMinute","type":"uint256"},{"indexed":false,"internalType":"uint256","name":"endHour","type":"uint256"},{"indexed":false,"internalType":"uint256","name":"endMinute","type":"uint256"}],"name":"UpdateOptionCreationWindow","type":"event"},{"anonymous":false,"inputs":[{"indexed":false,"internalType":"uint256","name":"value","type":"uint256"}],"name":"UpdateReferralRewardPercentage","type":"event"},{"anonymous":false,"inputs":[{"indexed":false,"internalType":"uint256","name":"value","type":"uint256"}],"name":"UpdateSettlementFeePercentage","type":"event"},{"anonymous":false,"inputs":[{"indexed":false,"internalType":"address","name":"account","type":"address"}],"name":"UpdateSettlementFeeRecipient","type":"event"},{"anonymous":false,"inputs":[{"indexed":false,"internalType":"uint256","name":"value","type":"uint256"}],"name":"UpdateStakingFeePercentage","type":"event"},{"anonymous":false,"inputs":[{"indexed":false,"internalType":"uint256","name":"value","type":"uint256"}],"name":"UpdateStrike","type":"event"},{"anonymous":false,"inputs":[{"indexed":false,"internalType":"enum IOptionsConfig.PermittedTradingType","name":"permissionType","type":"uint8"}],"name":"UpdateTradingPermission","type":"event"},{"anonymous":false,"inputs":[{"indexed":false,"internalType":"uint256","name":"value","type":"uint256"}],"name":"UpdateUnits","type":"event"},{"inputs":[{"internalType":"enum IBufferOptions.OptionType","name":"optionType","type":"uint8"},{"internalType":"uint256","name":"period","type":"uint256"},{"internalType":"uint256","name":"amount","type":"uint256"},{"internalType":"uint256","name":"strikeFee","type":"uint256"},{"internalType":"uint256","name":"totalFee","type":"uint256"},{"internalType":"uint256","name":"msgValue","type":"uint256"}],"name":"checkParams","outputs":[],"stateMutability":"pure","type":"function"},{"inputs":[],"name":"impliedVolRate","outputs":[{"internalType":"uint256","name":"","type":"uint256"}],"stateMutability":"view","type":"function"},{"inputs":[],"name":"nftSaleRoyaltyPercentage","outputs":[{"internalType":"uint256","name":"","type":"uint256"}],"stateMutability":"view","type":"function"},{"inputs":[],"name":"optionCollateralizationRatio","outputs":[{"internalType":"uint256","name":"","type":"uint256"}],"stateMutability":"view","type":"function"},{"inputs":[],"name":"owner","outputs":[{"internalType":"address","name":"","type":"address"}],"stateMutability":"view","type":"function"},{"inputs":[],"name":"permittedTradingType","outputs":[{"internalType":"enum IOptionsConfig.PermittedTradingType","name":"","type":"uint8"}],"stateMutability":"view","type":"function"},{"inputs":[],"name":"pool","outputs":[{"internalType":"contract BufferIBFRPoolV2","name":"","type":"address"}],"stateMutability":"view","type":"function"},{"inputs":[],"name":"referralRewardPercentage","outputs":[{"internalType":"uint256","name":"","type":"uint256"}],"stateMutability":"view","type":"function"},{"inputs":[],"name":"renounceOwnership","outputs":[],"stateMutability":"nonpayable","type":"function"},{"inputs":[{"internalType":"uint256","name":"value","type":"uint256"}],"name":"setImpliedVolRate","outputs":[],"stateMutability":"nonpayable","type":"function"},{"inputs":[{"internalType":"uint256","name":"value","type":"uint256"}],"name":"setNFTSaleRoyaltyPercentage","outputs":[],"stateMutability":"nonpayable","type":"function"},{"inputs":[{"internalType":"uint256","name":"value","type":"uint256"}],"name":"setOptionCollaterizationRatio","outputs":[],"stateMutability":"nonpayable","type":"function"},{"inputs":[{"internalType":"uint256","name":"value","type":"uint256"}],"name":"setReferralRewardPercentage","outputs":[],"stateMutability":"nonpayable","type":"function"},{"inputs":[{"internalType":"uint256","name":"value","type":"uint256"}],"name":"setSettlementFeePercentage","outputs":[],"stateMutability":"nonpayable","type":"function"},{"inputs":[{"internalType":"address","name":"recipient","type":"address"}],"name":"setSettlementFeeRecipient","outputs":[],"stateMutability":"nonpayable","type":"function"},{"inputs":[{"internalType":"uint256","name":"value","type":"uint256"}],"name":"setStakingFeePercentage","outputs":[],"stateMutability":"nonpayable","type":"function"},{"inputs":[{"internalType":"enum IOptionsConfig.PermittedTradingType","name":"permissionType","type":"uint8"}],"name":"setTradingPermission","outputs":[],"stateMutability":"nonpayable","type":"function"},{"inputs":[{"internalType":"uint256","name":"value","type":"uint256"}],"name":"setUtilizationRate","outputs":[],"stateMutability":"nonpayable","type":"function"},{"inputs":[],"name":"settlementFeePercentage","outputs":[{"internalType":"uint256","name":"","type":"uint256"}],"stateMutability":"view","type":"function"},{"inputs":[],"name":"settlementFeeRecipient","outputs":[{"internalType":"address","name":"","type":"address"}],"stateMutability":"view","type":"function"},{"inputs":[],"name":"stakingFeePercentage","outputs":[{"internalType":"uint256","name":"","type":"uint256"}],"stateMutability":"view","type":"function"},{"inputs":[{"internalType":"address","name":"newOwner","type":"address"}],"name":"transferOwnership","outputs":[],"stateMutability":"nonpayable","type":"function"},{"inputs":[],"name":"utilizationRate","outputs":[{"internalType":"uint256","name":"","type":"uint256"}],"stateMutability":"view","type":"function"}],"bytecode":"608060405260646002556001600355603260045560006005556005600655640165a0bc0060085534801561003257600080fd5b50604051610dd8380380610dd8833981016040819052610051916100e1565b61005a33610091565b600780546001600160a01b039485166001600160a01b0319918216179091556001929092556009805491909316911617905561013b565b600080546001600160a01b038381166001600160a01b0319831681178455604051919092169283917f8be0079c531659141344cd1fd0a4f28419497f9722a3daafe3b4186f6b6457e09190a35050565b6000806000606084860312156100f5578283fd5b835161010081610123565b60208501516040860151919450925061011881610123565b809150509250925092565b6001600160a01b038116811461013857600080fd5b50565b610c8e8061014a6000396000f3fe608060405234801561001057600080fd5b506004361061011d5760003560e01c806316f0115b14610122578063180acf6e1461014b578063181731dc1461016057806318f88e5b146101735780631ec3ad1d1461018a578063302ce6511461019d57806340774ff6146101a65780635cb6bc81146101b957806364ac2655146101cc5780636c321c8a146101df578063715018a6146101e85780638da5cb5b146101f0578063920a253e146101f857806396350a8514610201578063ca535c3b14610214578063ceaeeba91461021d578063cedcc6da14610230578063e2bef75414610243578063ed0974c714610256578063f12a04661461025f578063f2fde38b14610280578063f3fa349514610293578063ff0b025d1461029c575b600080fd5b600954610135906001600160a01b031681565b6040516101429190610bc2565b60405180910390f35b61015e610159366004610baa565b6102af565b005b600754610135906001600160a01b031681565b61017c60015481565b604051908152602001610142565b61015e610198366004610baa565b610374565b61017c60025481565b61015e6101b4366004610baa565b610434565b61015e6101c7366004610baa565b610468565b61015e6101da366004610b3d565b6104ed565b61017c60085481565b61015e6106a0565b6101356106db565b61017c60055481565b61015e61020f366004610b0f565b6106ea565b61017c60045481565b61015e61022b366004610baa565b610777565b61015e61023e366004610baa565b610836565b61015e610251366004610baa565b6108f7565b61017c60065481565b60095461027390600160a01b900460ff1681565b6040516101429190610bd6565b61015e61028e366004610b0f565b610989565b61017c60035481565b61015e6102aa366004610b8b565b610a29565b336102b86106db565b6001600160a01b0316146102e75760405162461bcd60e51b81526004016102de90610c23565b60405180910390fd5b60648111156103385760405162461bcd60e51b815260206004820181905260248201527f5374616b696e6746656550657263656e7461676520697320746f6f206869676860448201526064016102de565b60048190556040518181527f7ab3467fb06d3d8716698bece5f22a665374115bd3d0a43d6e11b76fcec1dfbb906020015b60405180910390a150565b3361037d6106db565b6001600160a01b0316146103a35760405162461bcd60e51b81526004016102de90610c23565b601481106103ff5760405162461bcd60e51b815260206004820152602360248201527f536574746c656d656e7446656550657263656e7461676520697320746f6f20686044820152620d2ced60eb1b60648201526084016102de565b60038190556040518181527f803e7bbaebadbda418ec6dd788e57c29c1cf3faeb7e139d21247e624c9e6d11990602001610369565b3361043d6106db565b6001600160a01b0316146104635760405162461bcd60e51b81526004016102de90610c23565b600855565b336104716106db565b6001600160a01b0316146104975760405162461bcd60e51b81526004016102de90610c23565b600a8111156104b85760405162461bcd60e51b81526004016102de90610bfe565b60068190556040518181527f8fb679aa627958fc7143b0829745d581e0f5e98599847e7097749ce89d8c88e090602001610369565b600286600281111561050f57634e487b7160e01b600052602160045260246000fd5b148061053a5750600186600281111561053857634e487b7160e01b600052602160045260246000fd5b145b61057a5760405162461bcd60e51b815260206004820152601160248201527057726f6e67206f7074696f6e207479706560781b60448201526064016102de565b620151808510156105c35760405162461bcd60e51b815260206004820152601360248201527214195c9a5bd9081a5cc81d1bdbc81cda1bdc9d606a1b60448201526064016102de565b6276a70085111561060b5760405162461bcd60e51b8152602060048201526012602482015271506572696f6420697320746f6f206c6f6e6760701b60448201526064016102de565b82841161065a5760405162461bcd60e51b815260206004820152601d60248201527f507269636520646966666572656e636520697320746f6f206c6172676500000060448201526064016102de565b818110156106985760405162461bcd60e51b815260206004820152600b60248201526a57726f6e672076616c756560a81b60448201526064016102de565b505050505050565b336106a96106db565b6001600160a01b0316146106cf5760405162461bcd60e51b81526004016102de90610c23565b6106d96000610abf565b565b6000546001600160a01b031690565b336106f36106db565b6001600160a01b0316146107195760405162461bcd60e51b81526004016102de90610c23565b6001600160a01b03811661072c57600080fd5b600780546001600160a01b0319166001600160a01b0383161790556040517f92f6c1e8df34c666f737a2407b4e63d3a77f133b69fdf70f01b5e3b8072551f690610369908390610bc2565b336107806106db565b6001600160a01b0316146107a65760405162461bcd60e51b81526004016102de90610c23565b60648110156108015760405162461bcd60e51b815260206004820152602160248201527f496d706c696564566f6c52617465206c696d697420697320746f6f20736d616c6044820152601b60fa1b60648201526084016102de565b60018190556040518181527f3e0c59249d1a9c5f08383bdbdfbc45517a71b76e72223ae649c576e4d125869690602001610369565b3361083f6106db565b6001600160a01b0316146108655760405162461bcd60e51b81526004016102de90610c23565b60648111156108c25760405162461bcd60e51b8152602060048201526024808201527f526566657272616c52657761726450657263656e7461676520697320746f6f206044820152630d0d2ced60e31b60648201526084016102de565b60058190556040518181527f0c089466003b94ffb5787d1d1affe1c743f8ca63f949d2296cfa4d7986601ade90602001610369565b336109006106db565b6001600160a01b0316146109265760405162461bcd60e51b81526004016102de90610c23565b80603211158015610938575060648111155b6109545760405162461bcd60e51b81526004016102de90610bfe565b60028190556040518181527f66b26a0dfaa5fc9f5c7432381208aa4bd7f13f4489299b52f09f1af7669bb93b90602001610369565b336109926106db565b6001600160a01b0316146109b85760405162461bcd60e51b81526004016102de90610c23565b6001600160a01b038116610a1d5760405162461bcd60e51b815260206004820152602660248201527f4f776e61626c653a206e6577206f776e657220697320746865207a65726f206160448201526564647265737360d01b60648201526084016102de565b610a2681610abf565b50565b33610a326106db565b6001600160a01b031614610a585760405162461bcd60e51b81526004016102de90610c23565b6009805482919060ff60a01b1916600160a01b836003811115610a8b57634e487b7160e01b600052602160045260246000fd5b02179055507f75e98309d621801fc34e8ce7fa6eaa10b82599a58639171fe865e39bb4728d48816040516103699190610bd6565b600080546001600160a01b038381166001600160a01b0319831681178455604051919092169283917f8be0079c531659141344cd1fd0a4f28419497f9722a3daafe3b4186f6b6457e09190a35050565b600060208284031215610b20578081fd5b81356001600160a01b0381168114610b36578182fd5b9392505050565b60008060008060008060c08789031215610b55578182fd5b863560038110610b63578283fd5b9860208801359850604088013597606081013597506080810135965060a00135945092505050565b600060208284031215610b9c578081fd5b813560048110610b36578182fd5b600060208284031215610bbb578081fd5b5035919050565b6001600160a01b0391909116815260200190565b6020810160048310610bf857634e487b7160e01b600052602160045260246000fd5b91905290565b6020808252600b908201526a77726f6e672076616c756560a81b604082015260600190565b6020808252818101527f4f776e61626c653a2063616c6c6572206973206e6f7420746865206f776e657260408201526060019056fea264697066735822122074734ee9bcb7097f4df2737e4e488247e1ad629744ed0435ccf0207b71e5f05464736f6c63430008040033","bytecodeSha1":"9dbfee589e5c4f31b080bb689f4fecd592441dea","compiler":{"evm_version":"istanbul","optimizer":{"enabled":true,"runs":1},"version":"0.8.4+commit.c7e474f2"},"contractName":"OptionConfigBinary","language":"Solidity","natspec":{"author":"Heisenberg","kind":"dev","methods":{"checkParams(uint8,uint256,uint256,uint256,uint256,uint256)":{"notice":"Check the validity of the input params","params":{"amount":"Option amount","msgValue":"the msg.value given to the Create function","optionType":"Call or Put option type","period":"Option period in seconds (1 days <= period <= 90 days)","strikeFee":"strike fee for the option","totalFee":"total fee for the option"}},"owner()":{"details":"Returns the address of the current owner."},"renounceOwnership()":{"details":"Leaves the contract without owner. It will not be possible to call `onlyOwner` functions anymore. Can only be called by the current owner. NOTE: Renouncing ownership will leave the contract without an owner, thereby removing any functionality that is only available to the owner."},"setImpliedVolRate(uint256)":{"notice":"Used for adjusting the options prices while balancing asset's implied volatility rate","params":{"value":"New IVRate value"}},"setNFTSaleRoyaltyPercentage(uint256)":{"notice":"Used for changing nftSaleRoyaltyPercentage","params":{"value":"New nftSaleRoyaltyPercentage value"}},"setOptionCollaterizationRatio(uint256)":{"notice":"Used for changing option collateralization ratio","params":{"value":"New optionCollateralizationRatio value"}},"setReferralRewardPercentage(uint256)":{"notice":"Used for adjusting the referral reward percentage","params":{"value":"New Referral Reward Percentage"}},"setSettlementFeePercentage(uint256)":{"notice":"Used for adjusting the settlement fee percentage","params":{"value":"New Settlement Fee Percentage"}},"setSettlementFeeRecipient(address)":{"notice":"Used for changing settlementFeeRecipient","params":{"recipient":"New settlementFee recipient address"}},"setStakingFeePercentage(uint256)":{"notice":"Used for adjusting the staking fee percentage","params":{"value":"New Staking Fee Percentage"}},"setUtilizationRate(uint256)":{"notice":"Used for updating utilizationRate value","params":{"value":"New utilizationRate value*"}},"transferOwnership(address)":{"details":"Transfers ownership of the contract to a new account (`newOwner`). Can only be called by the current owner."}},"notice":"Buffer BNB Options Contract","title":"Buffer BNB Bidirectional (Call and Put) Options","version":1},"opcodes":"PUSH1 0x80 PUSH1 0x40 MSTORE CALLVALUE DUP1 ISZERO PUSH2 0x10 JUMPI PUSH1 0x0 DUP1 REVERT JUMPDEST POP PUSH1 0x4 CALLDATASIZE LT PUSH2 0x11D JUMPI PUSH1 0x0 CALLDATALOAD PUSH1 0xE0 SHR DUP1 PUSH4 0x16F0115B EQ PUSH2 0x122 JUMPI DUP1 PUSH4 0x180ACF6E EQ PUSH2 0x14B JUMPI DUP1 PUSH4 0x181731DC EQ PUSH2 0x160 JUMPI DUP1 PUSH4 0x18F88E5B EQ PUSH2 0x173 JUMPI DUP1 PUSH4 0x1EC3AD1D EQ PUSH2 0x18A JUMPI DUP1 PUSH4 0x302CE651 EQ PUSH2 0x19D JUMPI DUP1 PUSH4 0x40774FF6 EQ PUSH2 0x1A6 JUMPI DUP1 PUSH4 0x5CB6BC81 EQ PUSH2 0x1B9 JUMPI DUP1 PUSH4 0x64AC2655 EQ PUSH2 0x1CC JUMPI DUP1 PUSH4 0x6C321C8A EQ PUSH2 0x1DF JUMPI DUP1 PUSH4 0x715018A6 EQ PUSH2 0x1E8 JUMPI DUP1 PUSH4 0x8DA5CB5B EQ PUSH2 0x1F0 JUMPI DUP1 PUSH4 0x920A253E EQ PUSH2 0x1F8 JUMPI DUP1 PUSH4 0x96350A85 EQ PUSH2 0x201 JUMPI DUP1 PUSH4 0xCA535C3B EQ PUSH2 0x214 JUMPI DUP1 PUSH4 0xCEAEEBA9 EQ PUSH2 0x21D JUMPI DUP1 PUSH4 0xCEDCC6DA EQ PUSH2 0x230 JUMPI DUP1 PUSH4 0xE2BEF754 EQ PUSH2 0x243 JUMPI DUP1 PUSH4 0xED0974C7 EQ PUSH2 0x256 JUMPI DUP1 PUSH4 0xF12A0466 EQ PUSH2 0x25F JUMPI DUP1 PUSH4 0xF2FDE38B EQ PUSH2 0x280 JUMPI DUP1 PUSH4 0xF3FA3495 EQ PUSH2 0x293 JUMPI DUP1 PUSH4 0xFF0B025D EQ PUSH2 0x29C JUMPI JUMPDEST PUSH1 0x0 DUP1 REVERT JUMPDEST PUSH1 0x9 SLOAD PUSH2 0x135 SWAP1 PUSH1 0x1 PUSH1 0x1 PUSH1 0xA0 SHL SUB AND DUP2 JUMP JUMPDEST PUSH1 0x40 MLOAD PUSH2 0x142 SWAP2 SWAP1 PUSH2 0xBC2 JUMP JUMPDEST PUSH1 0x40 MLOAD DUP1 SWAP2 SUB SWAP1 RETURN JUMPDEST PUSH2 0x15E PUSH2 0x159 CALLDATASIZE PUSH1 0x4 PUSH2 0xBAA JUMP JUMPDEST PUSH2 0x2AF JUMP JUMPDEST STOP JUMPDEST PUSH1 0x7 SLOAD PUSH2 0x135 SWAP1 PUSH1 0x1 PUSH1 0x1 PUSH1 0xA0 SHL SUB AND DUP2 JUMP JUMPDEST PUSH2 0x17C PUSH1 0x1 SLOAD DUP2 JUMP JUMPDEST PUSH1 0x40 MLOAD SWAP1 DUP2 MSTORE PUSH1 0x20 ADD PUSH2 0x142 JUMP JUMPDEST PUSH2 0x15E PUSH2 0x198 CALLDATASIZE PUSH1 0x4 PUSH2 0xBAA JUMP JUMPDEST PUSH2 0x374 JUMP JUMPDEST PUSH2 0x17C PUSH1 0x2 SLOAD DUP2 JUMP JUMPDEST PUSH2 0x15E PUSH2 0x1B4 CALLDATASIZE PUSH1 0x4 PUSH2 0xBAA JUMP JUMPDEST PUSH2 0x434 JUMP JUMPDEST PUSH2 0x15E PUSH2 0x1C7 CALLDATASIZE PUSH1 0x4 PUSH2 0xBAA JUMP JUMPDEST PUSH2 0x468 JUMP JUMPDEST PUSH2 0x15E PUSH2 0x1DA CALLDATASIZE PUSH1 0x4 PUSH2 0xB3D JUMP JUMPDEST PUSH2 0x4ED JUMP JUMPDEST PUSH2 0x17C PUSH1 0x8 SLOAD DUP2 JUMP JUMPDEST PUSH2 0x15E PUSH2 0x6A0 JUMP JUMPDEST PUSH2 0x135 PUSH2 0x6DB JUMP JUMPDEST PUSH2 0x17C PUSH1 0x5 SLOAD DUP2 JUMP JUMPDEST PUSH2 0x15E PUSH2 0x20F CALLDATASIZE PUSH1 0x4 PUSH2 0xB0F JUMP JUMPDEST PUSH2 0x6EA JUMP JUMPDEST PUSH2 0x17C PUSH1 0x4 SLOAD DUP2 JUMP JUMPDEST PUSH2 0x15E PUSH2 0x22B CALLDATASIZE PUSH1 0x4 PUSH2 0xBAA JUMP JUMPDEST PUSH2 0x777 JUMP JUMPDEST PUSH2 0x15E PUSH2 0x23E CALLDATASIZE PUSH1 0x4 PUSH2 0xBAA JUMP JUMPDEST PUSH2 0x836 JUMP JUMPDEST PUSH2 0x15E PUSH2 0x251 CALLDATASIZE PUSH1 0x4 PUSH2 0xBAA JUMP JUMPDEST PUSH2 0x8F7 JUMP JUMPDEST PUSH2 0x17C PUSH1 0x6 SLOAD DUP2 JUMP JUMPDEST PUSH1 0x9 SLOAD PUSH2 0x273 SWAP1 PUSH1 0x1 PUSH1 0xA0 SHL SWAP1 DIV PUSH1 0xFF AND DUP2 JUMP JUMPDEST PUSH1 0x40 MLOAD PUSH2 0x142 SWAP2 SWAP1 PUSH2 0xBD6 JUMP JUMPDEST PUSH2 0x15E PUSH2 0x28E CALLDATASIZE PUSH1 0x4 PUSH2 0xB0F JUMP JUMPDEST PUSH2 0x989 JUMP JUMPDEST PUSH2 0x17C PUSH1 0x3 SLOAD DUP2 JUMP JUMPDEST PUSH2 0x15E PUSH2 0x2AA CALLDATASIZE PUSH1 0x4 PUSH2 0xB8B JUMP JUMPDEST PUSH2 0xA29 JUMP JUMPDEST CALLER PUSH2 0x2B8 PUSH2 0x6DB JUMP JUMPDEST PUSH1 0x1 PUSH1 0x1 PUSH1 0xA0 SHL SUB AND EQ PUSH2 0x2E7 JUMPI PUSH1 0x40 MLOAD PUSH3 0x461BCD PUSH1 0xE5 SHL DUP2 MSTORE PUSH1 0x4 ADD PUSH2 0x2DE SWAP1 PUSH2 0xC23 JUMP JUMPDEST PUSH1 0x40 MLOAD DUP1 SWAP2 SUB SWAP1 REVERT JUMPDEST PUSH1 0x64 DUP2 GT ISZERO PUSH2 0x338 JUMPI PUSH1 0x40 MLOAD PUSH3 0x461BCD PUSH1 0xE5 SHL DUP2 MSTORE PUSH1 0x20 PUSH1 0x4 DUP3 ADD DUP2 SWAP1 MSTORE PUSH1 0x24 DUP3 ADD MSTORE PUSH32 0x5374616B696E6746656550657263656E7461676520697320746F6F2068696768 PUSH1 0x44 DUP3 ADD MSTORE PUSH1 0x64 ADD PUSH2 0x2DE JUMP JUMPDEST PUSH1 0x4 DUP2 SWAP1 SSTORE PUSH1 0x40 MLOAD DUP2 DUP2 MSTORE PUSH32 0x7AB3467FB06D3D8716698BECE5F22A665374115BD3D0A43D6E11B76FCEC1DFBB SWAP1 PUSH1 0x20 ADD JUMPDEST PUSH1 0x40 MLOAD DUP1 SWAP2 SUB SWAP1 LOG1 POP JUMP JUMPDEST CALLER PUSH2 0x37D PUSH2 0x6DB JUMP JUMPDEST PUSH1 0x1 PUSH1 0x1 PUSH1 0xA0 SHL SUB AND EQ PUSH2 0x3A3 JUMPI PUSH1 0x40 MLOAD PUSH3 0x461BCD PUSH1 0xE5 SHL DUP2 MSTORE PUSH1 0x4 ADD PUSH2 0x2DE SWAP1 PUSH2 0xC23 JUMP JUMPDEST PUSH1 0x14 DUP2 LT PUSH2 0x3FF JUMPI PUSH1 0x40 MLOAD PUSH3 0x461BCD PUSH1 0xE5 SHL DUP2 MSTORE PUSH1 0x20 PUSH1 0x4 DUP3 ADD MSTORE PUSH1 0x23 PUSH1 0x24 DUP3 ADD MSTORE PUSH32 0x536574746C656D656E7446656550657263656E7461676520697320746F6F2068 PUSH1 0x44 DUP3 ADD MSTORE PUSH3 0xD2CED PUSH1 0xEB SHL PUSH1 0x64 DUP3 ADD MSTORE PUSH1 0x84 ADD PUSH2 0x2DE JUMP JUMPDEST PUSH1 0x3 DUP2 SWAP1 SSTORE PUSH1 0x40 MLOAD DUP2 DUP2 MSTORE PUSH32 0x803E7BBAEBADBDA418EC6DD788E57C29C1CF3FAEB7E139D21247E624C9E6D119 SWAP1 PUSH1 0x20 ADD PUSH2 0x369 JUMP JUMPDEST CALLER PUSH2 0x43D PUSH2 0x6DB JUMP JUMPDEST PUSH1 0x1 PUSH1 0x1 PUSH1 0xA0 SHL SUB AND EQ PUSH2 0x463 JUMPI PUSH1 0x40 MLOAD PUSH3 0x461BCD PUSH1 0xE5 SHL DUP2 MSTORE PUSH1 0x4 ADD PUSH2 0x2DE SWAP1 PUSH2 0xC23 JUMP JUMPDEST PUSH1 0x8 SSTORE JUMP JUMPDEST CALLER PUSH2 0x471 PUSH2 0x6DB JUMP JUMPDEST PUSH1 0x1 PUSH1 0x1 PUSH1 0xA0 SHL SUB AND EQ PUSH2 0x497 JUMPI PUSH1 0x40 MLOAD PUSH3 0x461BCD PUSH1 0xE5 SHL DUP2 MSTORE PUSH1 0x4 ADD PUSH2 0x2DE SWAP1 PUSH2 0xC23 JUMP JUMPDEST PUSH1 0xA DUP2 GT ISZERO PUSH2 0x4B8 JUMPI PUSH1 0x40 MLOAD PUSH3 0x461BCD PUSH1 0xE5 SHL DUP2 MSTORE PUSH1 0x4 ADD PUSH2 0x2DE SWAP1 PUSH2 0xBFE JUMP JUMPDEST PUSH1 0x6 DUP2 SWAP1 SSTORE PUSH1 0x40 MLOAD DUP2 DUP2 MSTORE PUSH32 0x8FB679AA627958FC7143B0829745D581E0F5E98599847E7097749CE89D8C88E0 SWAP1 PUSH1 0x20 ADD PUSH2 0x369 JUMP JUMPDEST PUSH1 0x2 DUP7 PUSH1 0x2 DUP2 GT ISZERO PUSH2 0x50F JUMPI PUSH4 0x4E487B71 PUSH1 0xE0 SHL PUSH1 0x0 MSTORE PUSH1 0x21 PUSH1 0x4 MSTORE PUSH1 0x24 PUSH1 0x0 REVERT JUMPDEST EQ DUP1 PUSH2 0x53A JUMPI POP PUSH1 0x1 DUP7 PUSH1 0x2 DUP2 GT ISZERO PUSH2 0x538 JUMPI PUSH4 0x4E487B71 PUSH1 0xE0 SHL PUSH1 0x0 MSTORE PUSH1 0x21 PUSH1 0x4 MSTORE PUSH1 0x24 PUSH1 0x0 REVERT JUMPDEST EQ JUMPDEST PUSH2 0x57A JUMPI PUSH1 0x40 MLOAD PUSH3 0x461BCD PUSH1 0xE5 SHL DUP2 MSTORE PUSH1 0x20 PUSH1 0x4 DUP3 ADD MSTORE PUSH1 0x11 PUSH1 0x24 DUP3 ADD MSTORE PUSH17 0x57726F6E67206F7074696F6E2074797065 PUSH1 0x78 SHL PUSH1 0x44 DUP3 ADD MSTORE PUSH1 0x64 ADD PUSH2 0x2DE JUMP JUMPDEST PUSH3 0x15180 DUP6 LT ISZERO PUSH2 0x5C3 JUMPI PUSH1 0x40 MLOAD PUSH3 0x461BCD PUSH1 0xE5 SHL DUP2 MSTORE PUSH1 0x20 PUSH1 0x4 DUP3 ADD MSTORE PUSH1 0x13 PUSH1 0x24 DUP3 ADD MSTORE PUSH19 0x14195C9A5BD9081A5CC81D1BDBC81CDA1BDC9D PUSH1 0x6A SHL PUSH1 0x44 DUP3 ADD MSTORE PUSH1 0x64 ADD PUSH2 0x2DE JUMP JUMPDEST PUSH3 0x76A700 DUP6 GT ISZERO PUSH2 0x60B JUMPI PUSH1 0x40 MLOAD PUSH3 0x461BCD PUSH1 0xE5 SHL DUP2 MSTORE PUSH1 0x20 PUSH1 0x4 DUP3 ADD MSTORE PUSH1 0x12 PUSH1 0x24 DUP3 ADD MSTORE PUSH18 0x506572696F6420697320746F6F206C6F6E67 PUSH1 0x70 SHL PUSH1 0x44 DUP3 ADD MSTORE PUSH1 0x64 ADD PUSH2 0x2DE JUMP JUMPDEST DUP3 DUP5 GT PUSH2 0x65A JUMPI PUSH1 0x40 MLOAD PUSH3 0x461BCD PUSH1 0xE5 SHL DUP2 MSTORE PUSH1 0x20 PUSH1 0x4 DUP3 ADD MSTORE PUSH1 0x1D PUSH1 0x24 DUP3 ADD MSTORE PUSH32 0x507269636520646966666572656E636520697320746F6F206C61726765000000 PUSH1 0x44 DUP3 ADD MSTORE PUSH1 0x64 ADD PUSH2 0x2DE JUMP JUMPDEST DUP2 DUP2 LT ISZERO PUSH2 0x698 JUMPI PUSH1 0x40 MLOAD PUSH3 0x461BCD PUSH1 0xE5 SHL DUP2 MSTORE PUSH1 0x20 PUSH1 0x4 DUP3 ADD MSTORE PUSH1 0xB PUSH1 0x24 DUP3 ADD MSTORE PUSH11 0x57726F6E672076616C7565 PUSH1 0xA8 SHL PUSH1 0x44 DUP3 ADD MSTORE PUSH1 0x64 ADD PUSH2 0x2DE JUMP JUMPDEST POP POP POP POP POP POP JUMP JUMPDEST CALLER PUSH2 0x6A9 PUSH2 0x6DB JUMP JUMPDEST PUSH1 0x1 PUSH1 0x1 PUSH1 0xA0 SHL SUB AND EQ PUSH2 0x6CF JUMPI PUSH1 0x40 MLOAD PUSH3 0x461BCD PUSH1 0xE5 SHL DUP2 MSTORE PUSH1 0x4 ADD PUSH2 0x2DE SWAP1 PUSH2 0xC23 JUMP JUMPDEST PUSH2 0x6D9 PUSH1 0x0 PUSH2 0xABF JUMP JUMPDEST JUMP JUMPDEST PUSH1 0x0 SLOAD PUSH1 0x1 PUSH1 0x1 PUSH1 0xA0 SHL SUB AND SWAP1 JUMP JUMPDEST CALLER PUSH2 0x6F3 PUSH2 0x6DB JUMP JUMPDEST PUSH1 0x1 PUSH1 0x1 PUSH1 0xA0 SHL SUB AND EQ PUSH2 0x719 JUMPI PUSH1 0x40 MLOAD PUSH3 0x461BCD PUSH1 0xE5 SHL DUP2 MSTORE PUSH1 0x4 ADD PUSH2 0x2DE SWAP1 PUSH2 0xC23 JUMP JUMPDEST PUSH1 0x1 PUSH1 0x1 PUSH1 0xA0 SHL SUB DUP2 AND PUSH2 0x72C JUMPI PUSH1 0x0 DUP1 REVERT JUMPDEST PUSH1 0x7 DUP1 SLOAD PUSH1 0x1 PUSH1 0x1 PUSH1 0xA0 SHL SUB NOT AND PUSH1 0x1 PUSH1 0x1 PUSH1 0xA0 SHL SUB DUP4 AND OR SWAP1 SSTORE PUSH1 0x40 MLOAD PUSH32 0x92F6C1E8DF34C666F737A2407B4E63D3A77F133B69FDF70F01B5E3B8072551F6 SWAP1 PUSH2 0x369 SWAP1 DUP4 SWAP1 PUSH2 0xBC2 JUMP JUMPDEST CALLER PUSH2 0x780 PUSH2 0x6DB JUMP JUMPDEST PUSH1 0x1 PUSH1 0x1 PUSH1 0xA0 SHL SUB AND EQ PUSH2 0x7A6 JUMPI PUSH1 0x40 MLOAD PUSH3 0x461BCD PUSH1 0xE5 SHL DUP2 MSTORE PUSH1 0x4 ADD PUSH2 0x2DE SWAP1 PUSH2 0xC23 JUMP JUMPDEST PUSH1 0x64 DUP2 LT ISZERO PUSH2 0x801 JUMPI PUSH1 0x40 MLOAD PUSH3 0x461BCD PUSH1 0xE5 SHL DUP2 MSTORE PUSH1 0x20 PUSH1 0x4 DUP3 ADD MSTORE PUSH1 0x21 PUSH1 0x24 DUP3 ADD MSTORE PUSH32 0x496D706C696564566F6C52617465206C696D697420697320746F6F20736D616C PUSH1 0x44 DUP3 ADD MSTORE PUSH1 0x1B PUSH1 0xFA SHL PUSH1 0x64 DUP3 ADD MSTORE PUSH1 0x84 ADD PUSH2 0x2DE JUMP JUMPDEST PUSH1 0x1 DUP2 SWAP1 SSTORE PUSH1 0x40 MLOAD DUP2 DUP2 MSTORE PUSH32 0x3E0C59249D1A9C5F08383BDBDFBC45517A71B76E72223AE649C576E4D1258696 SWAP1 PUSH1 0x20 ADD PUSH2 0x369 JUMP JUMPDEST CALLER PUSH2 0x83F PUSH2 0x6DB JUMP JUMPDEST PUSH1 0x1 PUSH1 0x1 PUSH1 0xA0 SHL SUB AND EQ PUSH2 0x865 JUMPI PUSH1 0x40 MLOAD PUSH3 0x461BCD PUSH1 0xE5 SHL DUP2 MSTORE PUSH1 0x4 ADD PUSH2 0x2DE SWAP1 PUSH2 0xC23 JUMP JUMPDEST PUSH1 0x64 DUP2 GT ISZERO PUSH2 0x8C2 JUMPI PUSH1 0x40 MLOAD PUSH3 0x461BCD PUSH1 0xE5 SHL DUP2 MSTORE PUSH1 0x20 PUSH1 0x4 DUP3 ADD MSTORE PUSH1 0x24 DUP1 DUP3 ADD MSTORE PUSH32 0x526566657272616C52657761726450657263656E7461676520697320746F6F20 PUSH1 0x44 DUP3 ADD MSTORE PUSH4 0xD0D2CED PUSH1 0xE3 SHL PUSH1 0x64 DUP3 ADD MSTORE PUSH1 0x84 ADD PUSH2 0x2DE JUMP JUMPDEST PUSH1 0x5 DUP2 SWAP1 SSTORE PUSH1 0x40 MLOAD DUP2 DUP2 MSTORE PUSH32 0xC089466003B94FFB5787D1D1AFFE1C743F8CA63F949D2296CFA4D7986601ADE SWAP1 PUSH1 0x20 ADD PUSH2 0x369 JUMP JUMPDEST CALLER PUSH2 0x900 PUSH2 0x6DB JUMP JUMPDEST PUSH1 0x1 PUSH1 0x1 PUSH1 0xA0 SHL SUB AND EQ PUSH2 0x926 JUMPI PUSH1 0x40 MLOAD PUSH3 0x461BCD PUSH1 0xE5 SHL DUP2 MSTORE PUSH1 0x4 ADD PUSH2 0x2DE SWAP1 PUSH2 0xC23 JUMP JUMPDEST DUP1 PUSH1 0x32 GT ISZERO DUP1 ISZERO PUSH2 0x938 JUMPI POP PUSH1 0x64 DUP2 GT ISZERO JUMPDEST PUSH2 0x954 JUMPI PUSH1 0x40 MLOAD PUSH3 0x461BCD PUSH1 0xE5 SHL DUP2 MSTORE PUSH1 0x4 ADD PUSH2 0x2DE SWAP1 PUSH2 0xBFE JUMP JUMPDEST PUSH1 0x2 DUP2 SWAP1 SSTORE PUSH1 0x40 MLOAD DUP2 DUP2 MSTORE PUSH32 0x66B26A0DFAA5FC9F5C7432381208AA4BD7F13F4489299B52F09F1AF7669BB93B SWAP1 PUSH1 0x20 ADD PUSH2 0x369 JUMP JUMPDEST CALLER PUSH2 0x992 PUSH2 0x6DB JUMP JUMPDEST PUSH1 0x1 PUSH1 0x1 PUSH1 0xA0 SHL SUB AND EQ PUSH2 0x9B8 JUMPI PUSH1 0x40 MLOAD PUSH3 0x461BCD PUSH1 0xE5 SHL DUP2 MSTORE PUSH1 0x4 ADD PUSH2 0x2DE SWAP1 PUSH2 0xC23 JUMP JUMPDEST PUSH1 0x1 PUSH1 0x1 PUSH1 0xA0 SHL SUB DUP2 AND PUSH2 0xA1D JUMPI PUSH1 0x40 MLOAD PUSH3 0x461BCD PUSH1 0xE5 SHL DUP2 MSTORE PUSH1 0x20 PUSH1 0x4 DUP3 ADD MSTORE PUSH1 0x26 PUSH1 0x24 DUP3 ADD MSTORE PUSH32 0x4F776E61626C653A206E6577206F776E657220697320746865207A65726F2061 PUSH1 0x44 DUP3 ADD MSTORE PUSH6 0x646472657373 PUSH1 0xD0 SHL PUSH1 0x64 DUP3 ADD MSTORE PUSH1 0x84 ADD PUSH2 0x2DE JUMP JUMPDEST PUSH2 0xA26 DUP2 PUSH2 0xABF JUMP JUMPDEST POP JUMP JUMPDEST CALLER PUSH2 0xA32 PUSH2 0x6DB JUMP JUMPDEST PUSH1 0x1 PUSH1 0x1 PUSH1 0xA0 SHL SUB AND EQ PUSH2 0xA58 JUMPI PUSH1 0x40 MLOAD PUSH3 0x461BCD PUSH1 0xE5 SHL DUP2 MSTORE PUSH1 0x4 ADD PUSH2 0x2DE SWAP1 PUSH2 0xC23 JUMP JUMPDEST PUSH1 0x9 DUP1 SLOAD DUP3 SWAP2 SWAP1 PUSH1 0xFF PUSH1 0xA0 SHL NOT AND PUSH1 0x1 PUSH1 0xA0 SHL DUP4 PUSH1 0x3 DUP2 GT ISZERO PUSH2 0xA8B JUMPI PUSH4 0x4E487B71 PUSH1 0xE0 SHL PUSH1 0x0 MSTORE PUSH1 0x21 PUSH1 0x4 MSTORE PUSH1 0x24 PUSH1 0x0 REVERT JUMPDEST MUL OR SWAP1 SSTORE POP PUSH32 0x75E98309D621801FC34E8CE7FA6EAA10B82599A58639171FE865E39BB4728D48 DUP2 PUSH1 0x40 MLOAD PUSH2 0x369 SWAP2 SWAP1 PUSH2 0xBD6 JUMP JUMPDEST PUSH1 0x0 DUP1 SLOAD PUSH1 0x1 PUSH1 0x1 PUSH1 0xA0 SHL SUB DUP4 DUP2 AND PUSH1 0x1 PUSH1 0x1 PUSH1 0xA0 SHL SUB NOT DUP4 AND DUP2 OR DUP5 SSTORE PUSH1 0x40 MLOAD SWAP2 SWAP1 SWAP3 AND SWAP3 DUP4 SWAP2 PUSH32 0x8BE0079C531659141344CD1FD0A4F28419497F9722A3DAAFE3B4186F6B6457E0 SWAP2 SWAP1 LOG3 POP POP JUMP JUMPDEST PUSH1 0x0 PUSH1 0x20 DUP3 DUP5 SUB SLT ISZERO PUSH2 0xB20 JUMPI DUP1 DUP2 REVERT JUMPDEST DUP2 CALLDATALOAD PUSH1 0x1 PUSH1 0x1 PUSH1 0xA0 SHL SUB DUP2 AND DUP2 EQ PUSH2 0xB36 JUMPI DUP2 DUP3 REVERT JUMPDEST SWAP4 SWAP3 POP POP POP JUMP JUMPDEST PUSH1 0x0 DUP1 PUSH1 0x0 DUP1 PUSH1 0x0 DUP1 PUSH1 0xC0 DUP8 DUP10 SUB SLT ISZERO PUSH2 0xB55 JUMPI DUP2 DUP3 REVERT JUMPDEST DUP7 CALLDATALOAD PUSH1 0x3 DUP2 LT PUSH2 0xB63 JUMPI DUP3 DUP4 REVERT JUMPDEST SWAP9 PUSH1 0x20 DUP9 ADD CALLDATALOAD SWAP9 POP PUSH1 0x40 DUP9 ADD CALLDATALOAD SWAP8 PUSH1 0x60 DUP2 ADD CALLDATALOAD SWAP8 POP PUSH1 0x80 DUP2 ADD CALLDATALOAD SWAP7 POP PUSH1 0xA0 ADD CALLDATALOAD SWAP5 POP SWAP3 POP POP POP JUMP JUMPDEST PUSH1 0x0 PUSH1 0x20 DUP3 DUP5 SUB SLT ISZERO PUSH2 0xB9C JUMPI DUP1 DUP2 REVERT JUMPDEST DUP2 CALLDATALOAD PUSH1 0x4 DUP2 LT PUSH2 0xB36 JUMPI DUP2 DUP3 REVERT JUMPDEST PUSH1 0x0 PUSH1 0x20 DUP3 DUP5 SUB SLT ISZERO PUSH2 0xBBB JUMPI DUP1 DUP2 REVERT JUMPDEST POP CALLDATALOAD SWAP2 SWAP1 POP JUMP JUMPDEST PUSH1 0x1 PUSH1 0x1 PUSH1 0xA0 SHL SUB SWAP2 SWAP1 SWAP2 AND DUP2 MSTORE PUSH1 0x20 ADD SWAP1 JUMP JUMPDEST PUSH1 0x20 DUP2 ADD PUSH1 0x4 DUP4 LT PUSH2 0xBF8 JUMPI PUSH4 0x4E487B71 PUSH1 0xE0 SHL PUSH1 0x0 MSTORE PUSH1 0x21 PUSH1 0x4 MSTORE PUSH1 0x24 PUSH1 0x0 REVERT JUMPDEST SWAP2 SWAP1 MSTORE SWAP1 JUMP JUMPDEST PUSH1 0x20 DUP1 DUP3 MSTORE PUSH1 0xB SWAP1 DUP3 ADD MSTORE PUSH11 0x77726F6E672076616C7565 PUSH1 0xA8 SHL PUSH1 0x40 DUP3 ADD MSTORE PUSH1 0x60 ADD SWAP1 JUMP JUMPDEST PUSH1 0x20 DUP1 DUP3 MSTORE DUP2 DUP2 ADD MSTORE PUSH32 0x4F776E61626C653A2063616C6C6572206973206E6F7420746865206F776E6572 PUSH1 0x40 DUP3 ADD MSTORE PUSH1 0x60 ADD SWAP1 JUMP INVALID LOG2 PUSH5 0x6970667358 0x22 SLT KECCAK256 PUSH21 0x734EE9BCB7097F4DF2737E4E488247E1AD629744ED DIV CALLDATALOAD 0xCC CREATE KECCAK256 PUSH28 0x71E5F05464736F6C6343000804003300000000000000000000000000 ","sha1":"c0dbe2da0a05e11d59afa7542ac56922ce0e1f54","source":"pragma solidity ^0.8.0;\n\n// SPDX-License-Identifier: BUSL-1.1\n\nimport \"@openzeppelin/contracts/access/Ownable.sol\";\nimport \"../Pool/BufferIBFRPoolV2.sol\";\n\n/**\n * @author Heisenberg\n * @title Buffer BNB Bidirectional (Call and Put) Options\n * @notice Buffer BNB Options Contract\n */\ncontract OptionConfigBinary is Ownable, IBufferOptions, IOptionsConfig {\n    uint256 public impliedVolRate;\n    uint256 public optionCollateralizationRatio = 100;\n    uint256 public settlementFeePercentage = 1;\n    uint256 public stakingFeePercentage = 50;\n    uint256 public referralRewardPercentage = 0;\n    uint256 public nftSaleRoyaltyPercentage = 5;\n    uint256 internal constant PRICE_DECIMALS = 1e8;\n    address public settlementFeeRecipient;\n    uint256 public utilizationRate = 60e8;\n    BufferIBFRPoolV2 public pool;\n    PermittedTradingType public permittedTradingType;\n\n    constructor(\n        address staking,\n        uint256 initialImpliedVolRate,\n        BufferIBFRPoolV2 _pool\n    ) {\n        settlementFeeRecipient = staking;\n        impliedVolRate = initialImpliedVolRate;\n        pool = _pool;\n    }\n\n    /**\n     * @notice Check the validity of the input params\n     * @param optionType Call or Put option type\n     * @param period Option period in seconds (1 days <= period <= 90 days)\n     * @param amount Option amount\n     * @param strikeFee strike fee for the option\n     * @param totalFee total fee for the option\n     * @param msgValue the msg.value given to the Create function\n     */\n    function checkParams(\n        IBufferOptions.OptionType optionType,\n        uint256 period,\n        uint256 amount,\n        uint256 strikeFee,\n        uint256 totalFee,\n        uint256 msgValue\n    ) external pure {\n        require(\n            optionType == IBufferOptions.OptionType.Call ||\n                optionType == IBufferOptions.OptionType.Put,\n            \"Wrong option type\"\n        );\n        require(period >= 1 days, \"Period is too short\");\n        require(period <= 90 days, \"Period is too long\");\n        require(amount > strikeFee, \"Price difference is too large\");\n        require(msgValue >= totalFee, \"Wrong value\");\n    }\n\n    /**\n     * @notice Used for adjusting the options prices while balancing asset's implied volatility rate\n     * @param value New IVRate value\n     */\n    function setImpliedVolRate(uint256 value) external onlyOwner {\n        require(value >= 100, \"ImpliedVolRate limit is too small\");\n        impliedVolRate = value;\n        emit UpdateImpliedVolatility(value);\n    }\n\n    function setTradingPermission(PermittedTradingType permissionType)\n        external\n        onlyOwner\n    {\n        permittedTradingType = permissionType;\n        emit UpdateTradingPermission(permissionType);\n    }\n\n\n    /**\n     * @notice Used for adjusting the settlement fee percentage\n     * @param value New Settlement Fee Percentage\n     */\n    function setSettlementFeePercentage(uint256 value) external onlyOwner {\n        require(value < 20, \"SettlementFeePercentage is too high\");\n        settlementFeePercentage = value;\n        emit UpdateSettlementFeePercentage(value);\n    }\n\n    /**\n     * @notice Used for changing settlementFeeRecipient\n     * @param recipient New settlementFee recipient address\n     */\n    function setSettlementFeeRecipient(address recipient) external onlyOwner {\n        require(address(recipient) != address(0));\n        settlementFeeRecipient = recipient;\n        emit UpdateSettlementFeeRecipient(address(recipient));\n    }\n\n    /**\n     * @notice Used for adjusting the staking fee percentage\n     * @param value New Staking Fee Percentage\n     */\n    function setStakingFeePercentage(uint256 value) external onlyOwner {\n        require(value <= 100, \"StakingFeePercentage is too high\");\n        stakingFeePercentage = value;\n        emit UpdateStakingFeePercentage(value);\n    }\n\n    /**\n     * @notice Used for adjusting the referral reward percentage\n     * @param value New Referral Reward Percentage\n     */\n    function setReferralRewardPercentage(uint256 value) external onlyOwner {\n        require(value <= 100, \"ReferralRewardPercentage is too high\");\n        referralRewardPercentage = value;\n        emit UpdateReferralRewardPercentage(value);\n    }\n\n    /**\n     * @notice Used for changing option collateralization ratio\n     * @param value New optionCollateralizationRatio value\n     */\n    function setOptionCollaterizationRatio(uint256 value) external onlyOwner {\n        require(50 <= value && value <= 100, \"wrong value\");\n        optionCollateralizationRatio = value;\n        emit UpdateOptionCollaterizationRatio(value);\n    }\n\n    /**\n     * @notice Used for changing nftSaleRoyaltyPercentage\n     * @param value New nftSaleRoyaltyPercentage value\n     */\n    function setNFTSaleRoyaltyPercentage(uint256 value) external onlyOwner {\n        require(value <= 10, \"wrong value\");\n        nftSaleRoyaltyPercentage = value;\n        emit UpdateNFTSaleRoyaltyPercentage(value);\n    }\n\n    /**\n     * @notice Used for updating utilizationRate value\n     * @param value New utilizationRate value\n     **/\n    function setUtilizationRate(uint256 value) external onlyOwner {\n        utilizationRate = value;\n    }\n}\n","sourcePath":"contracts/Options/OptionConfigBinary.sol","type":"contract","deployment":{"address":"0x9bE7abE78A8fc78eDc763fDB864B50c6e98ACB97","chainid":"588","blockHeight":5426590}}