{"abi":[{"inputs":[{"internalType":"address","name":"_token0","type":"address"},{"internalType":"address","name":"_token1","type":"address"},{"internalType":"contract ISlidingWindowOracleV1","name":"_twap","type":"address"},{"internalType":"contract AggregatorV3Interface","name":"pp","type":"address"}],"stateMutability":"nonpayable","type":"constructor","name":"constructor"},{"inputs":[],"name":"decimals","outputs":[{"internalType":"uint256","name":"","type":"uint256"}],"stateMutability":"view","type":"function"},{"inputs":[{"internalType":"uint256","name":"roundId","type":"uint256"}],"name":"getRoundData","outputs":[{"internalType":"uint256","name":"roundTimestamp","type":"uint256"},{"internalType":"uint256","name":"price","type":"uint256"}],"stateMutability":"view","type":"function"},{"inputs":[],"name":"getUsdPrice","outputs":[{"internalType":"uint256","name":"price","type":"uint256"}],"stateMutability":"view","type":"function"},{"inputs":[],"name":"priceProvider","outputs":[{"internalType":"contract AggregatorV3Interface","name":"","type":"address"}],"stateMutability":"view","type":"function"},{"inputs":[{"internalType":"uint256","name":"token_price","type":"uint256"}],"name":"toUsd","outputs":[{"internalType":"uint256","name":"price","type":"uint256"}],"stateMutability":"view","type":"function"},{"inputs":[],"name":"token0","outputs":[{"internalType":"address","name":"","type":"address"}],"stateMutability":"view","type":"function"},{"inputs":[],"name":"token1","outputs":[{"internalType":"address","name":"","type":"address"}],"stateMutability":"view","type":"function"},{"inputs":[],"name":"twap","outputs":[{"internalType":"contract ISlidingWindowOracleV1","name":"","type":"address"}],"stateMutability":"view","type":"function"}],"bytecode":"608060405234801561001057600080fd5b506040516106a53803806106a583398101604081905261002f91610081565b600080546001600160a01b039586166001600160a01b031991821617909155600180549486169482169490941790935560038054918516918416919091179055600280549190931691161790556100f7565b60008060008060808587031215610096578384fd5b84516100a1816100df565b60208601519094506100b2816100df565b60408601519093506100c3816100df565b60608601519092506100d4816100df565b939692955090935050565b6001600160a01b03811681146100f457600080fd5b50565b61059f806101066000396000f3fe608060405234801561001057600080fd5b50600436106100785760003560e01c80630720da521461007d5780630dfe1681146100aa5780631208aa18146100d55780631acf5582146100e8578063313ce567146100fe578063879b47ef14610106578063b888879e14610119578063d21220a71461012c575b600080fd5b61009061008b366004610454565b61013f565b604080519283526020830191909152015b60405180910390f35b6000546100bd906001600160a01b031681565b6040516001600160a01b0390911681526020016100a1565b6002546100bd906001600160a01b031681565b6100f06101e9565b6040519081526020016100a1565b6100f0610289565b6100f0610114366004610454565b61030e565b6003546100bd906001600160a01b031681565b6001546100bd906001600160a01b031681565b60025460008054600154604051631b3a41e960e31b81526001600160a01b0392831660048201529082166024820152604481018590529192839291169063d9d20f4890606401604080518083038186803b15801561019c57600080fd5b505afa1580156101b0573d6000803e3d6000fd5b505050506040513d601f19601f820116820180604052508101906101d49190610484565b90925090506101e28161030e565b9050915091565b6002546000805460015460405163e34161c360e01b81526001600160a01b03928316600482015290821660248201529192839291169063e34161c39060440160206040518083038186803b15801561024057600080fd5b505afa158015610254573d6000803e3d6000fd5b505050506040513d601f19601f82011682018060405250810190610278919061046c565b90506102838161030e565b91505090565b6003546040805163313ce56760e01b815290516000926001600160a01b03169163313ce567916004808301926020929190829003018186803b1580156102ce57600080fd5b505afa1580156102e2573d6000803e3d6000fd5b505050506040513d601f19601f8201168201806040525081019061030691906104f6565b60ff16905090565b600080600360009054906101000a90046001600160a01b03166001600160a01b031663feaf968c6040518163ffffffff1660e01b815260040160a06040518083038186803b15801561035f57600080fd5b505afa158015610373573d6000803e3d6000fd5b505050506040513d601f19601f8201168201806040525081019061039791906104a7565b505060025460408051630a9ee07f60e31b815290519395508594506001600160a01b03909116926354f703f892506004808301926020929190829003018186803b1580156103e457600080fd5b505afa1580156103f8573d6000803e3d6000fd5b505050506040513d601f19601f8201168201806040525081019061041c919061046c565b610426828661053e565b610430919061051e565b949350505050565b80516001600160501b038116811461044f57600080fd5b919050565b600060208284031215610465578081fd5b5035919050565b60006020828403121561047d578081fd5b5051919050565b60008060408385031215610496578081fd5b505080516020909101519092909150565b600080600080600060a086880312156104be578081fd5b6104c786610438565b94506020860151935060408601519250606086015191506104ea60808701610438565b90509295509295909350565b600060208284031215610507578081fd5b815160ff81168114610517578182fd5b9392505050565b60008261053957634e487b7160e01b81526012600452602481fd5b500490565b600081600019048311821515161561056457634e487b7160e01b81526011600452602481fd5b50029056fea2646970667358221220aa23a78c9ca39b857831387e209ee89938d5bb32ec6980f86f102a55905a939c64736f6c63430008040033","bytecodeSha1":"6a038b8a52839037d064c4b5352033d3c30cf3f6","compiler":{"evm_version":"istanbul","optimizer":{"enabled":true,"runs":1},"version":"0.8.4+commit.c7e474f2"},"contractName":"TwapPriceProvider","language":"Solidity","natspec":{"kind":"dev","methods":{},"version":1},"opcodes":"PUSH1 0x80 PUSH1 0x40 MSTORE CALLVALUE DUP1 ISZERO PUSH2 0x10 JUMPI PUSH1 0x0 DUP1 REVERT JUMPDEST POP PUSH1 0x4 CALLDATASIZE LT PUSH2 0x78 JUMPI PUSH1 0x0 CALLDATALOAD PUSH1 0xE0 SHR DUP1 PUSH4 0x720DA52 EQ PUSH2 0x7D JUMPI DUP1 PUSH4 0xDFE1681 EQ PUSH2 0xAA JUMPI DUP1 PUSH4 0x1208AA18 EQ PUSH2 0xD5 JUMPI DUP1 PUSH4 0x1ACF5582 EQ PUSH2 0xE8 JUMPI DUP1 PUSH4 0x313CE567 EQ PUSH2 0xFE JUMPI DUP1 PUSH4 0x879B47EF EQ PUSH2 0x106 JUMPI DUP1 PUSH4 0xB888879E EQ PUSH2 0x119 JUMPI DUP1 PUSH4 0xD21220A7 EQ PUSH2 0x12C JUMPI JUMPDEST PUSH1 0x0 DUP1 REVERT JUMPDEST PUSH2 0x90 PUSH2 0x8B CALLDATASIZE PUSH1 0x4 PUSH2 0x454 JUMP JUMPDEST PUSH2 0x13F JUMP JUMPDEST PUSH1 0x40 DUP1 MLOAD SWAP3 DUP4 MSTORE PUSH1 0x20 DUP4 ADD SWAP2 SWAP1 SWAP2 MSTORE ADD JUMPDEST PUSH1 0x40 MLOAD DUP1 SWAP2 SUB SWAP1 RETURN JUMPDEST PUSH1 0x0 SLOAD PUSH2 0xBD SWAP1 PUSH1 0x1 PUSH1 0x1 PUSH1 0xA0 SHL SUB AND DUP2 JUMP JUMPDEST PUSH1 0x40 MLOAD PUSH1 0x1 PUSH1 0x1 PUSH1 0xA0 SHL SUB SWAP1 SWAP2 AND DUP2 MSTORE PUSH1 0x20 ADD PUSH2 0xA1 JUMP JUMPDEST PUSH1 0x2 SLOAD PUSH2 0xBD SWAP1 PUSH1 0x1 PUSH1 0x1 PUSH1 0xA0 SHL SUB AND DUP2 JUMP JUMPDEST PUSH2 0xF0 PUSH2 0x1E9 JUMP JUMPDEST PUSH1 0x40 MLOAD SWAP1 DUP2 MSTORE PUSH1 0x20 ADD PUSH2 0xA1 JUMP JUMPDEST PUSH2 0xF0 PUSH2 0x289 JUMP JUMPDEST PUSH2 0xF0 PUSH2 0x114 CALLDATASIZE PUSH1 0x4 PUSH2 0x454 JUMP JUMPDEST PUSH2 0x30E JUMP JUMPDEST PUSH1 0x3 SLOAD PUSH2 0xBD SWAP1 PUSH1 0x1 PUSH1 0x1 PUSH1 0xA0 SHL SUB AND DUP2 JUMP JUMPDEST PUSH1 0x1 SLOAD PUSH2 0xBD SWAP1 PUSH1 0x1 PUSH1 0x1 PUSH1 0xA0 SHL SUB AND DUP2 JUMP JUMPDEST PUSH1 0x2 SLOAD PUSH1 0x0 DUP1 SLOAD PUSH1 0x1 SLOAD PUSH1 0x40 MLOAD PUSH4 0x1B3A41E9 PUSH1 0xE3 SHL DUP2 MSTORE PUSH1 0x1 PUSH1 0x1 PUSH1 0xA0 SHL SUB SWAP3 DUP4 AND PUSH1 0x4 DUP3 ADD MSTORE SWAP1 DUP3 AND PUSH1 0x24 DUP3 ADD MSTORE PUSH1 0x44 DUP2 ADD DUP6 SWAP1 MSTORE SWAP2 SWAP3 DUP4 SWAP3 SWAP2 AND SWAP1 PUSH4 0xD9D20F48 SWAP1 PUSH1 0x64 ADD PUSH1 0x40 DUP1 MLOAD DUP1 DUP4 SUB DUP2 DUP7 DUP1 EXTCODESIZE ISZERO DUP1 ISZERO PUSH2 0x19C JUMPI PUSH1 0x0 DUP1 REVERT JUMPDEST POP GAS STATICCALL ISZERO DUP1 ISZERO PUSH2 0x1B0 JUMPI RETURNDATASIZE PUSH1 0x0 DUP1 RETURNDATACOPY RETURNDATASIZE PUSH1 0x0 REVERT JUMPDEST POP POP POP POP PUSH1 0x40 MLOAD RETURNDATASIZE PUSH1 0x1F NOT PUSH1 0x1F DUP3 ADD AND DUP3 ADD DUP1 PUSH1 0x40 MSTORE POP DUP2 ADD SWAP1 PUSH2 0x1D4 SWAP2 SWAP1 PUSH2 0x484 JUMP JUMPDEST SWAP1 SWAP3 POP SWAP1 POP PUSH2 0x1E2 DUP2 PUSH2 0x30E JUMP JUMPDEST SWAP1 POP SWAP2 POP SWAP2 JUMP JUMPDEST PUSH1 0x2 SLOAD PUSH1 0x0 DUP1 SLOAD PUSH1 0x1 SLOAD PUSH1 0x40 MLOAD PUSH4 0xE34161C3 PUSH1 0xE0 SHL DUP2 MSTORE PUSH1 0x1 PUSH1 0x1 PUSH1 0xA0 SHL SUB SWAP3 DUP4 AND PUSH1 0x4 DUP3 ADD MSTORE SWAP1 DUP3 AND PUSH1 0x24 DUP3 ADD MSTORE SWAP2 SWAP3 DUP4 SWAP3 SWAP2 AND SWAP1 PUSH4 0xE34161C3 SWAP1 PUSH1 0x44 ADD PUSH1 0x20 PUSH1 0x40 MLOAD DUP1 DUP4 SUB DUP2 DUP7 DUP1 EXTCODESIZE ISZERO DUP1 ISZERO PUSH2 0x240 JUMPI PUSH1 0x0 DUP1 REVERT JUMPDEST POP GAS STATICCALL ISZERO DUP1 ISZERO PUSH2 0x254 JUMPI RETURNDATASIZE PUSH1 0x0 DUP1 RETURNDATACOPY RETURNDATASIZE PUSH1 0x0 REVERT JUMPDEST POP POP POP POP PUSH1 0x40 MLOAD RETURNDATASIZE PUSH1 0x1F NOT PUSH1 0x1F DUP3 ADD AND DUP3 ADD DUP1 PUSH1 0x40 MSTORE POP DUP2 ADD SWAP1 PUSH2 0x278 SWAP2 SWAP1 PUSH2 0x46C JUMP JUMPDEST SWAP1 POP PUSH2 0x283 DUP2 PUSH2 0x30E JUMP JUMPDEST SWAP2 POP POP SWAP1 JUMP JUMPDEST PUSH1 0x3 SLOAD PUSH1 0x40 DUP1 MLOAD PUSH4 0x313CE567 PUSH1 0xE0 SHL DUP2 MSTORE SWAP1 MLOAD PUSH1 0x0 SWAP3 PUSH1 0x1 PUSH1 0x1 PUSH1 0xA0 SHL SUB AND SWAP2 PUSH4 0x313CE567 SWAP2 PUSH1 0x4 DUP1 DUP4 ADD SWAP3 PUSH1 0x20 SWAP3 SWAP2 SWAP1 DUP3 SWAP1 SUB ADD DUP2 DUP7 DUP1 EXTCODESIZE ISZERO DUP1 ISZERO PUSH2 0x2CE JUMPI PUSH1 0x0 DUP1 REVERT JUMPDEST POP GAS STATICCALL ISZERO DUP1 ISZERO PUSH2 0x2E2 JUMPI RETURNDATASIZE PUSH1 0x0 DUP1 RETURNDATACOPY RETURNDATASIZE PUSH1 0x0 REVERT JUMPDEST POP POP POP POP PUSH1 0x40 MLOAD RETURNDATASIZE PUSH1 0x1F NOT PUSH1 0x1F DUP3 ADD AND DUP3 ADD DUP1 PUSH1 0x40 MSTORE POP DUP2 ADD SWAP1 PUSH2 0x306 SWAP2 SWAP1 PUSH2 0x4F6 JUMP JUMPDEST PUSH1 0xFF AND SWAP1 POP SWAP1 JUMP JUMPDEST PUSH1 0x0 DUP1 PUSH1 0x3 PUSH1 0x0 SWAP1 SLOAD SWAP1 PUSH2 0x100 EXP SWAP1 DIV PUSH1 0x1 PUSH1 0x1 PUSH1 0xA0 SHL SUB AND PUSH1 0x1 PUSH1 0x1 PUSH1 0xA0 SHL SUB AND PUSH4 0xFEAF968C PUSH1 0x40 MLOAD DUP2 PUSH4 0xFFFFFFFF AND PUSH1 0xE0 SHL DUP2 MSTORE PUSH1 0x4 ADD PUSH1 0xA0 PUSH1 0x40 MLOAD DUP1 DUP4 SUB DUP2 DUP7 DUP1 EXTCODESIZE ISZERO DUP1 ISZERO PUSH2 0x35F JUMPI PUSH1 0x0 DUP1 REVERT JUMPDEST POP GAS STATICCALL ISZERO DUP1 ISZERO PUSH2 0x373 JUMPI RETURNDATASIZE PUSH1 0x0 DUP1 RETURNDATACOPY RETURNDATASIZE PUSH1 0x0 REVERT JUMPDEST POP POP POP POP PUSH1 0x40 MLOAD RETURNDATASIZE PUSH1 0x1F NOT PUSH1 0x1F DUP3 ADD AND DUP3 ADD DUP1 PUSH1 0x40 MSTORE POP DUP2 ADD SWAP1 PUSH2 0x397 SWAP2 SWAP1 PUSH2 0x4A7 JUMP JUMPDEST POP POP PUSH1 0x2 SLOAD PUSH1 0x40 DUP1 MLOAD PUSH4 0xA9EE07F PUSH1 0xE3 SHL DUP2 MSTORE SWAP1 MLOAD SWAP4 SWAP6 POP DUP6 SWAP5 POP PUSH1 0x1 PUSH1 0x1 PUSH1 0xA0 SHL SUB SWAP1 SWAP2 AND SWAP3 PUSH4 0x54F703F8 SWAP3 POP PUSH1 0x4 DUP1 DUP4 ADD SWAP3 PUSH1 0x20 SWAP3 SWAP2 SWAP1 DUP3 SWAP1 SUB ADD DUP2 DUP7 DUP1 EXTCODESIZE ISZERO DUP1 ISZERO PUSH2 0x3E4 JUMPI PUSH1 0x0 DUP1 REVERT JUMPDEST POP GAS STATICCALL ISZERO DUP1 ISZERO PUSH2 0x3F8 JUMPI RETURNDATASIZE PUSH1 0x0 DUP1 RETURNDATACOPY RETURNDATASIZE PUSH1 0x0 REVERT JUMPDEST POP POP POP POP PUSH1 0x40 MLOAD RETURNDATASIZE PUSH1 0x1F NOT PUSH1 0x1F DUP3 ADD AND DUP3 ADD DUP1 PUSH1 0x40 MSTORE POP DUP2 ADD SWAP1 PUSH2 0x41C SWAP2 SWAP1 PUSH2 0x46C JUMP JUMPDEST PUSH2 0x426 DUP3 DUP7 PUSH2 0x53E JUMP JUMPDEST PUSH2 0x430 SWAP2 SWAP1 PUSH2 0x51E JUMP JUMPDEST SWAP5 SWAP4 POP POP POP POP JUMP JUMPDEST DUP1 MLOAD PUSH1 0x1 PUSH1 0x1 PUSH1 0x50 SHL SUB DUP2 AND DUP2 EQ PUSH2 0x44F JUMPI PUSH1 0x0 DUP1 REVERT JUMPDEST SWAP2 SWAP1 POP JUMP JUMPDEST PUSH1 0x0 PUSH1 0x20 DUP3 DUP5 SUB SLT ISZERO PUSH2 0x465 JUMPI DUP1 DUP2 REVERT JUMPDEST POP CALLDATALOAD SWAP2 SWAP1 POP JUMP JUMPDEST PUSH1 0x0 PUSH1 0x20 DUP3 DUP5 SUB SLT ISZERO PUSH2 0x47D JUMPI DUP1 DUP2 REVERT JUMPDEST POP MLOAD SWAP2 SWAP1 POP JUMP JUMPDEST PUSH1 0x0 DUP1 PUSH1 0x40 DUP4 DUP6 SUB SLT ISZERO PUSH2 0x496 JUMPI DUP1 DUP2 REVERT JUMPDEST POP POP DUP1 MLOAD PUSH1 0x20 SWAP1 SWAP2 ADD MLOAD SWAP1 SWAP3 SWAP1 SWAP2 POP JUMP JUMPDEST PUSH1 0x0 DUP1 PUSH1 0x0 DUP1 PUSH1 0x0 PUSH1 0xA0 DUP7 DUP9 SUB SLT ISZERO PUSH2 0x4BE JUMPI DUP1 DUP2 REVERT JUMPDEST PUSH2 0x4C7 DUP7 PUSH2 0x438 JUMP JUMPDEST SWAP5 POP PUSH1 0x20 DUP7 ADD MLOAD SWAP4 POP PUSH1 0x40 DUP7 ADD MLOAD SWAP3 POP PUSH1 0x60 DUP7 ADD MLOAD SWAP2 POP PUSH2 0x4EA PUSH1 0x80 DUP8 ADD PUSH2 0x438 JUMP JUMPDEST SWAP1 POP SWAP3 SWAP6 POP SWAP3 SWAP6 SWAP1 SWAP4 POP JUMP JUMPDEST PUSH1 0x0 PUSH1 0x20 DUP3 DUP5 SUB SLT ISZERO PUSH2 0x507 JUMPI DUP1 DUP2 REVERT JUMPDEST DUP2 MLOAD PUSH1 0xFF DUP2 AND DUP2 EQ PUSH2 0x517 JUMPI DUP2 DUP3 REVERT JUMPDEST SWAP4 SWAP3 POP POP POP JUMP JUMPDEST PUSH1 0x0 DUP3 PUSH2 0x539 JUMPI PUSH4 0x4E487B71 PUSH1 0xE0 SHL DUP2 MSTORE PUSH1 0x12 PUSH1 0x4 MSTORE PUSH1 0x24 DUP2 REVERT JUMPDEST POP DIV SWAP1 JUMP JUMPDEST PUSH1 0x0 DUP2 PUSH1 0x0 NOT DIV DUP4 GT DUP3 ISZERO ISZERO AND ISZERO PUSH2 0x564 JUMPI PUSH4 0x4E487B71 PUSH1 0xE0 SHL DUP2 MSTORE PUSH1 0x11 PUSH1 0x4 MSTORE PUSH1 0x24 DUP2 REVERT JUMPDEST POP MUL SWAP1 JUMP INVALID LOG2 PUSH5 0x6970667358 0x22 SLT KECCAK256 0xAA 0x23 0xA7 DUP13 SWAP13 LOG3 SWAP12 DUP6 PUSH25 0x31387E209EE89938D5BB32EC6980F86F102A55905A939C6473 PUSH16 0x6C634300080400330000000000000000 ","sha1":"bad46af2d5dfdbbfb92be082bf3507be62883f70","source":"pragma solidity ^0.8.0;\n\n// SPDX-License-Identifier: BUSL-1.1\n\nimport \"./Interfaces/Interfaces.sol\";\nimport \"./PriceProvider.sol\";\n\ncontract TwapPriceProvider {\n    address public token0;\n    address public token1;\n    ISlidingWindowOracleV1 public twap;\n    AggregatorV3Interface public priceProvider;\n\n    constructor(\n        address _token0,\n        address _token1,\n        ISlidingWindowOracleV1 _twap,\n        AggregatorV3Interface pp\n    ) {\n        token0 = _token0;\n        token1 = _token1;\n        priceProvider = pp;\n        twap = _twap;\n    }\n\n    function getRoundData(uint256 roundId)\n        external\n        view\n        returns (uint256 roundTimestamp, uint256 price)\n    {\n        (roundTimestamp, price) = twap.getTimeWeightedAverage(\n            token0,\n            token1,\n            roundId\n        );\n        price = toUsd(price);\n    }\n\n    function decimals() external view returns (uint256) {\n        return priceProvider.decimals();\n    }\n\n    function toUsd(uint256 token_price) public view returns (uint256 price) {\n        (, int256 latestPrice, , , ) = priceProvider.latestRoundData();\n        uint256 bnb_price = uint256(latestPrice);\n        price = (token_price * bnb_price) / twap.factor();\n    }\n\n    // Should return USD price\n    function getUsdPrice() external view returns (uint256 price) {\n        uint256 token_price = twap.consult(token0, token1);\n        price = toUsd(token_price);\n    }\n}\n\ncontract FakeTwapPriceProvider {\n    address public token0;\n    address public token1;\n    FakePriceProvider public priceProvider;\n    uint256 public price;\n    mapping(uint256 => uint256) public roundIDToExpiry;\n    mapping(uint256 => uint256) public roundIDToPrice;\n\n    constructor(\n        address _token0,\n        address _token1,\n        FakePriceProvider pp\n    ) {\n        token0 = _token0;\n        token1 = _token1;\n        priceProvider = pp;\n    }\n\n    function setPrice(uint256 _price) external {\n        price = _price;\n    }\n\n    function getRoundData(uint256 roundID)\n        external\n        view\n        returns (\n            uint80 roundId,\n            uint256 _price,\n            uint256 startedAt,\n            uint256 updatedAt,\n            uint80 answeredInRound\n        )\n    {\n        (roundId, _price, startedAt, updatedAt, answeredInRound) = (\n            uint80(roundID),\n            roundIDToPrice[roundID],\n            0,\n            roundIDToExpiry[roundID],\n            0\n        );\n    }\n\n    function setRoundData(\n        uint256 roundID,\n        uint256 expiry,\n        uint256 _price\n    ) external {\n        roundIDToExpiry[roundID] = expiry;\n        roundIDToPrice[roundID] = _price;\n    }\n\n    // Should return USD price\n    function getUsdPrice() external view returns (uint256 _price) {\n        uint256 bnb_price = priceProvider.getUsdPrice();\n        uint256 token_price = price;\n        _price = (token_price * bnb_price) / 1e8;\n    }\n}\n","sourcePath":"contracts/TwapPriceProvider.sol","type":"contract","deployment":{"address":"0x2d7bfa5A88a29A70EF587D3c9E2A2fF1F01Fddf9","chainid":"97","blockHeight":20362660}}