{"bytecode":"6080604052620f4240600d55600e805460ff1916601217905560006015553480156200002a57600080fd5b5060405162005da538038062005da58339810160408190526200004d916200030e565b604080518082018252600a8152694275666665722050726f60b01b60208083019182528351808501909452600384526221232960e91b9084015281519192916200009a9160009162000268565b508051620000b090600190602084019062000268565b505050620000cd620000c76200015e60201b60201c565b62000162565b6001600755620000df600033620001b4565b601080546001600160a01b03199081166001600160a01b038981169190911790925560118054821687841617905560128054821688841617905560198054821685841617905542601c55601a805482168484161790556014805490911691851691909117905562000152600033620001b4565b505050505050620003f7565b3390565b600680546001600160a01b038381166001600160a01b0319831681179093556040519116919082907f8be0079c531659141344cd1fd0a4f28419497f9722a3daafe3b4186f6b6457e090600090a35050565b620001c08282620001c4565b5050565b60008281526008602090815260408083206001600160a01b038516845290915290205460ff16620001c05760008281526008602090815260408083206001600160a01b03851684529091529020805460ff19166001179055620002243390565b6001600160a01b0316816001600160a01b0316837f2f8788117e7eff1d82e926ec794901d17c78024a50270940304540a733656f0d60405160405180910390a45050565b8280546200027690620003a1565b90600052602060002090601f0160209004810192826200029a5760008555620002e5565b82601f10620002b557805160ff1916838001178555620002e5565b82800160010185558215620002e5579182015b82811115620002e5578251825591602001919060010190620002c8565b50620002f3929150620002f7565b5090565b5b80821115620002f35760008155600101620002f8565b60008060008060008060c0878903121562000327578182fd5b86516200033481620003de565b60208801519096506200034781620003de565b60408801519095506200035a81620003de565b60608801519094506200036d81620003de565b60808801519093506200038081620003de565b60a08801519092506200039381620003de565b809150509295509295509295565b600181811c90821680620003b657607f821691505b60208210811415620003d857634e487b7160e01b600052602260045260246000fd5b50919050565b6001600160a01b0381168114620003f457600080fd5b50565b61599e80620004076000396000f3fe608060405234801561001057600080fd5b506004361061029e5760003560e01c806301ffc9a7146102a357806305271a2a146102cb57806306517a29146102e057806306fdde03146102f7578063076d948c1461030c578063081812fc1461031f578063095ea7b31461033f578063108348eb1461035457806316f0115b1461036757806323b872dd1461037a578063248a9ca31461038d578063263f3e7e146103a05780632f2ff15d146103b357806336568abe146103c6578063409e2205146103d9578063426a84931461043c57806342842e0e1461044f57806342966c68146104625780634aed53c2146104755780634f558e79146104885780636198e3391461049b5780636352211e146104ae57806367807f7d146104c1578063689ab5ac146104e357806369c672471461052657806370a0823114610546578063715018a61461055957806375794a3c1461056157806378c533ce1461056a57806379502c551461058a578063841edc0e1461059d5780638a584118146105bd5780638da5cb5b146106085780638dd7d2c11461061057806391d148541461062357806395d89b4114610636578063992642e51461063e578063a04030ba14610651578063a217fddf14610664578063a22cb4651461066c578063a6d14c021461067f578063a880042514610687578063b07f0a411461069a578063b888879e146106ad578063b88d4fde146106c0578063bbe33ea5146106d3578063becef607146106e6578063c37e04f6146106f9578063c87b56dd1461070c578063d149cc301461071f578063d547741f14610732578063d5a0e67314610745578063dba34e9714610765578063e342b5981461078c578063e345e0bc1461079f578063e985e9c5146107d9578063f2fde38b146107ec578063fe99049a146107ff575b600080fd5b6102b66102b13660046150c2565b610812565b60405190151581526020015b60405180910390f35b600e5460405160ff90911681526020016102c2565b6102e9600d5481565b6040519081526020016102c2565b6102ff610823565b6040516102c2919061547b565b6102e961031a366004615086565b6108b5565b61033261032d366004615086565b6108fa565b6040516102c29190615371565b61035261034d366004614f83565b610987565b005b601254610332906001600160a01b031681565b601954610332906001600160a01b031681565b610352610388366004614e05565b610a98565b6102e961039b366004615086565b610ac9565b6102e96103ae366004615086565b610ade565b6103526103c136600461509e565b610af0565b6103526103d436600461509e565b610b0d565b6104296103e7366004615086565b601660205260009081526040902080546001820154600283015460038401546004850154600586015460069096015460ff958616969495939492939192911687565b6040516102c2979695949392919061541f565b61035261044a366004614fae565b610b8b565b61035261045d366004614e05565b610bcf565b610352610470366004615086565b610bea565b610352610483366004614f06565b610c2f565b6102b6610496366004615086565b610d51565b6103526104a9366004615086565b610d5c565b6103326104bc366004615086565b610fe9565b6104d46104cf36600461521d565b611060565b6040516102c293929190615668565b61050f6104f1366004615086565b60176020526000908152604090205460ff8082169161010090041682565b6040805192151583529015156020830152016102c2565b610539610534366004615112565b61128a565b6040516102c291906153db565b6102e9610554366004614d95565b61167c565b610352611703565b6102e960155481565b6102e9610578366004615086565b600f6020526000908152604090205481565b601a54610332906001600160a01b031681565b6102e96105ab366004615086565b60186020526000908152604090205481565b6105f86105cb366004615086565b601b6020526000908152604090208054600182015460029092015490919060ff8082169161010090041684565b6040516102c294939291906155f3565b61033261173e565b6102b661061e366004615086565b61174d565b6102b661063136600461509e565b6119e2565b6102ff611a0d565b601054610332906001600160a01b031681565b6102e961065f36600461515b565b611a1c565b6102e9600081565b61035261067a366004614f56565b612728565b6102e9600581565b6102e9610695366004615086565b6127e9565b6102e96106a8366004615086565b612800565b601454610332906001600160a01b031681565b6103526106ce366004614e45565b612b07565b6103526106e1366004615021565b612b3a565b6102e96106f4366004615086565b612d49565b601154610332906001600160a01b031681565b6102ff61071a366004615086565b612d5b565b6102e961072d3660046151ac565b612d66565b61035261074036600461509e565b612d85565b6102e9610753366004615086565b600a6020526000908152604090205481565b6102e97fdeb3b49547f710c56a925b6e16e3557a50fab4dd8f243bc314f3afba2054ec5b81565b61035261079a366004614fe2565b612da2565b6102e96107ad36600461509e565b6000828152600b602090815260408083206001600160a01b038516845260010190915290205492915050565b6102b66107e7366004614dcd565b612def565b6103526107fa366004614d95565b612e1d565b6102e961080d366004614ec1565b612eba565b600061081d82612f91565b92915050565b60606000805461083290615811565b80601f016020809104026020016040519081016040528092919081815260200182805461085e90615811565b80156108ab5780601f10610880576101008083540402835291602001916108ab565b820191906000526020600020905b81548152906001019060200180831161088e57829003601f168201915b5050505050905090565b6000805b6108c2836127e9565b8110156108f4576108d66106f48483612d66565b6108e0908361567e565b9150806108ec81615846565b9150506108b9565b50919050565b600061090582612fb6565b61096b5760405162461bcd60e51b815260206004820152602c60248201527f4552433732313a20617070726f76656420717565727920666f72206e6f6e657860448201526b34b9ba32b73a103a37b5b2b760a11b60648201526084015b60405180910390fd5b506000908152600460205260409020546001600160a01b031690565b600061099282610fe9565b9050806001600160a01b0316836001600160a01b03161415610a005760405162461bcd60e51b815260206004820152602160248201527f4552433732313a20617070726f76616c20746f2063757272656e74206f776e656044820152603960f91b6064820152608401610962565b336001600160a01b0382161480610a1c5750610a1c8133612def565b610a895760405162461bcd60e51b815260206004820152603860248201527f4552433732313a20617070726f76652063616c6c6572206973206e6f74206f776044820152771b995c881b9bdc88185c1c1c9bdd995908199bdc88185b1b60421b6064820152608401610962565b610a938383612fd3565b505050565b610aa23382613041565b610abe5760405162461bcd60e51b81526004016109629061556a565b610a9383838361310b565b60009081526008602052604090206001015490565b6000908152600a602052604090205490565b610af982610ac9565b610b0381336132a4565b610a938383613308565b6001600160a01b0381163314610b7d5760405162461bcd60e51b815260206004820152602f60248201527f416363657373436f6e74726f6c3a2063616e206f6e6c792072656e6f756e636560448201526e103937b632b9903337b91039b2b63360891b6064820152608401610962565b610b87828261338e565b5050565b610b9482610fe9565b6001600160a01b0316336001600160a01b031614610bc45760405162461bcd60e51b81526004016109629061548e565b610a938383836133f5565b610a9383838360405180602001604052806000815250612b07565b610bf381610fe9565b6001600160a01b0316336001600160a01b031614610c235760405162461bcd60e51b81526004016109629061548e565b610c2c816134ba565b50565b610c3882610d51565b610c6a5760405162461bcd60e51b815260206004820152600360248201526227189960e91b6044820152606401610962565b6000806000610c7986856134d2565b509250925092506000610c8b866135ff565b9050610cc78682848460600151610ca2919061567e565b878560400151610cb2919061567e565b878660800151610cc2919061567e565b6136ee565b601954606082015160808301516040516357a5c96760e01b81529394506001600160a01b03909216926357a5c96792610d07928b92909190600401615668565b600060405180830381600087803b158015610d2157600080fd5b505af1158015610d35573d6000803e3d6000fd5b50505050610d468989898989613720565b505050505050505050565b600061081d82612fb6565b60008181526016602052604090206005810154421015610d8e5760405162461bcd60e51b8152600401610962906155d7565b6001815460ff166003811115610db457634e487b7160e01b600052602160045260246000fd5b14610de65760405162461bcd60e51b81526020600482015260026024820152614f3560f01b6044820152606401610962565b600581015460009081526018602052604090205480610e175760405162461bcd60e51b8152600401610962906154fc565b6011546012546040516312add1fd60e21b81526000926001600160a01b0390811692634ab747f492610e51929091169086906004016153c2565b604080518083038186803b158015610e6857600080fd5b505afa158015610e7c573d6000803e3d6000fd5b505050506040513d601f19601f82011682018060405250810190610ea091906151cd565b915060029050600684015460ff166002811115610ecd57634e487b7160e01b600052602160045260246000fd5b148015610ede575082600101548110155b80610f1e57506001600684015460ff166002811115610f0d57634e487b7160e01b600052602160045260246000fd5b148015610f1e575082600101548111155b15610f3257610f2c84612800565b50610fe3565b825460ff19166003178355601954604051636198e33960e01b8152600481018690526001600160a01b0390911690636198e33990602401600060405180830381600087803b158015610f8357600080fd5b505af1158015610f97573d6000803e3d6000fd5b50505050610fa4846134ba565b837f5f36a4a575e512eb69d6d28c3b0ff98cca7ba50ad5bf04e14094ad1d425e0d318460040154604051610fda91815260200190565b60405180910390a25b50505050565b6000818152600260205260408120546001600160a01b03168061081d5760405162461bcd60e51b815260206004820152602960248201527f4552433732313a206f776e657220717565727920666f72206e6f6e657869737460448201526832b73a103a37b5b2b760b91b6064820152608401610962565b600080600080601460009054906101000a90046001600160a01b03166001600160a01b0316631acf55826040518163ffffffff1660e01b815260040160206040518083038186803b1580156110b457600080fd5b505afa1580156110c8573d6000803e3d6000fd5b505050506040513d601f19601f820116820180604052508101906110ec91906150fa565b60115460125460405163141ac1e360e11b81529293506000926001600160a01b039283169263283583c69261112692911690600401615371565b60206040518083038186803b15801561113e57600080fd5b505afa158015611152573d6000803e3d6000fd5b505050506040513d601f19601f8201168201806040525081019061117691906150fa565b6040805160a0810182528c8152602081018c81528183018c81528b1515606084019081528b151560808501908152601a546019549651636dfd2eeb60e11b8152865160048201529451602486015292516044850152905115156064840152511515608483015260a4820187905260c482018590526001600160a01b0390811660e483015290921661010483015291925073__FeeCalculator_________________________9063dbfa5dd6906101240160606040518083038186803b15801561123e57600080fd5b505af4158015611252573d6000803e3d6000fd5b505050506040513d601f19601f8201168201806040525081019061127691906151f0565b919d909c50909a5098505050505050505050565b6060816112be5760405162461bcd60e51b81526020600482015260026024820152614e3160f01b6044820152606401610962565b816001600160401b038111156112e457634e487b7160e01b600052604160045260246000fd5b60405190808252806020026020018201604052801561130d578160200160208202803683370190505b509050600061131b856135ff565b9050600061132886612d49565b905060008080805b8781101561153b576000611342613966565b90508088838151811061136557634e487b7160e01b600052603260045260246000fd5b6020026020010181815250506113a28b828c8c8681811061139657634e487b7160e01b600052603260045260246000fd5b90506020020135613980565b6000868b8b858181106113c557634e487b7160e01b600052603260045260246000fd5b9050602002013589604001516113db9190615798565b6113e59190615696565b90506113f1818761567e565b95506000878c8c8681811061141657634e487b7160e01b600052603260045260246000fd5b905060200201358a6060015161142c9190615798565b6114369190615696565b9050611442818761567e565b95506000888d8d8781811061146757634e487b7160e01b600052603260045260246000fd5b905060200201358b6080015161147d9190615798565b6114879190615696565b9050611493818761567e565b955060006040518060e001604052808c6000015160038111156114c657634e487b7160e01b600052602160045260246000fd5b81526020018c6020015181526020018581526020018481526020018381526020018c60a0015181526020018c60c00151600281111561151557634e487b7160e01b600052602160045260246000fd5b905290506115238582613aaa565b5050505050808061153390615846565b915050611330565b50611571898684886060015161155191906157b7565b86896040015161156191906157b7565b858a60800151610cc291906157b7565b601954606082015160808301516040516357a5c96760e01b81529398506001600160a01b03909216926357a5c967926115b1928e92909190600401615668565b600060405180830381600087803b1580156115cb57600080fd5b505af11580156115df573d6000803e3d6000fd5b5050505060005b8781101561166f57600061162088838151811061161357634e487b7160e01b600052603260045260246000fd5b60200260200101516135ff565b905061165c88838151811061164557634e487b7160e01b600052603260045260246000fd5b602002602001015182606001518360800151613b62565b508061166781615846565b9150506115e6565b5050505050509392505050565b60006001600160a01b0382166116e75760405162461bcd60e51b815260206004820152602a60248201527f4552433732313a2062616c616e636520717565727920666f7220746865207a65604482015269726f206164647265737360b01b6064820152608401610962565b506001600160a01b031660009081526003602052604090205490565b3361170c61173e565b6001600160a01b0316146117325760405162461bcd60e51b815260040161096290615535565b61173c6000613bcd565b565b6006546001600160a01b031690565b6011546012546040516312add1fd60e21b8152600092839283926001600160a01b0392831692634ab747f49261178a9291169088906004016153c2565b604080518083038186803b1580156117a157600080fd5b505afa1580156117b5573d6000803e3d6000fd5b505050506040513d601f19601f820116820180604052508101906117d991906151cd565b915091506000601960009054906101000a90046001600160a01b03166001600160a01b031663a834069b6040518163ffffffff1660e01b815260040160206040518083038186803b15801561182d57600080fd5b505afa158015611841573d6000803e3d6000fd5b505050506040513d601f19601f8201168201806040525081019061186591906150fa565b905082811061189b5760405162461bcd60e51b8152602060048201526002602482015261433160f01b6044820152606401610962565b60006118a86001876157b7565b90505b846119d9576011546012546040516312add1fd60e21b81526000926001600160a01b0390811692634ab747f4926118ea929091169086906004016153c2565b604080518083038186803b15801561190157600080fd5b505afa158015611915573d6000803e3d6000fd5b505050506040513d601f19601f8201168201806040525081019061193991906151cd565b5090508061198857600082116119765760405162461bcd60e51b8152602060048201526002602482015261433360f01b6044820152606401610962565b6119816001836157b7565b91506119d3565b828111156119bd5760405162461bcd60e51b815260206004820152600260248201526110cd60f21b6044820152606401610962565b6000838152601860205260409020829055600195505b506118ab565b50505050919050565b60009182526008602090815260408084206001600160a01b0393909316845291905290205460ff1690565b60606001805461083290615811565b600060026007541415611a715760405162461bcd60e51b815260206004820152601f60248201527f5265656e7472616e637947756172643a207265656e7472616e742063616c6c006044820152606401610962565b60026007556019546040805163392e53cd60e01b815290516001600160a01b039092169163392e53cd91600480820192602092909190829003018186803b158015611abb57600080fd5b505afa158015611acf573d6000803e3d6000fd5b505050506040513d601f19601f82011682018060405250810190611af3919061506a565b8015611b805750601a60009054906101000a90046001600160a01b03166001600160a01b031663392e53cd6040518163ffffffff1660e01b815260040160206040518083038186803b158015611b4857600080fd5b505afa158015611b5c573d6000803e3d6000fd5b505050506040513d601f19601f82011682018060405250810190611b80919061506a565b611bc55760405162461bcd60e51b8152602060048201526016602482015275496e697469616c697a6174696f6e2070656e64696e6760501b6044820152606401610962565b6019546040805163a834069b60e01b815290516000926001600160a01b03169163a834069b916004808301926020929190829003018186803b158015611c0a57600080fd5b505afa158015611c1e573d6000803e3d6000fd5b505050506040513d601f19601f82011682018060405250810190611c4291906150fa565b9050428111611c635760405162461bcd60e51b8152600401610962906155bb565b6000611c6f42836157b7565b905061a8c0811015611c935760405162461bcd60e51b8152600401610962906155bb565b6000806000611d2a848b601a60009054906101000a90046001600160a01b03166001600160a01b0316635ee971016040518163ffffffff1660e01b815260040160206040518083038186803b158015611ceb57600080fd5b505afa158015611cff573d6000803e3d6000fd5b505050506040513d601f19601f82011682018060405250810190611d2391906150fa565b8c8c611060565b919450925090506005611d3d858c615798565b611d479190615798565b611d55846301e13380615798565b611d60906064615798565b11611d925760405162461bcd60e51b8152602060048201526002602482015261279960f11b6044820152606401610962565b60145460408051630d67aac160e11b815290516000926001600160a01b031691631acf5582916004808301926020929190829003018186803b158015611dd757600080fd5b505afa158015611deb573d6000803e3d6000fd5b505050506040513d601f19601f82011682018060405250810190611e0f91906150fa565b90506000601960009054906101000a90046001600160a01b03166001600160a01b03166316dc165b6040518163ffffffff1660e01b815260040160206040518083038186803b158015611e6157600080fd5b505afa158015611e75573d6000803e3d6000fd5b505050506040513d601f19601f82011682018060405250810190611e999190614db1565b6001600160a01b031663313ce5676040518163ffffffff1660e01b815260040160206040518083038186803b158015611ed157600080fd5b505afa158015611ee5573d6000803e3d6000fd5b505050506040513d601f19601f82011682018060405250810190611f099190615272565b611f1490600a6156ed565b9050601960009054906101000a90046001600160a01b03166001600160a01b031663a4475ce46040518163ffffffff1660e01b815260040160206040518083038186803b158015611f6457600080fd5b505afa158015611f78573d6000803e3d6000fd5b505050506040513d601f19601f82011682018060405250810190611f9c9190614db1565b6001600160a01b0316336001600160a01b031614612144576010546000906001600160a01b03166323b872dd3330611fd8866305f5e100615798565b601060009054906101000a90046001600160a01b03166001600160a01b031663313ce5676040518163ffffffff1660e01b815260040160206040518083038186803b15801561202657600080fd5b505afa15801561203a573d6000803e3d6000fd5b505050506040513d601f19601f8201168201806040525081019061205e9190615272565b61206990600a6156ed565b612073898d615798565b61207d9190615798565b6120879190615696565b6040516001600160e01b031960e086901b1681526001600160a01b0393841660048201529290911660248301526044820152606401602060405180830381600087803b1580156120d657600080fd5b505af11580156120ea573d6000803e3d6000fd5b505050506040513d601f19601f8201168201806040525081019061210e919061506a565b9050806121425760405162461bcd60e51b81526020600482015260026024820152614f3360f01b6044820152606401610962565b505b60018b151581148015612159575060018b1515145b8061216b57508b15801561216b57508a155b15612174575060025b6040805160e08101825260018152601a548251635ee9710160e01b815292516000936020808501936001600160a01b031692635ee97101926004808201939291829003018186803b1580156121c857600080fd5b505afa1580156121dc573d6000803e3d6000fd5b505050506040513d601f19601f8201168201806040525081019061220091906150fa565b81526020018f81526020018f81526020018681526020018942612223919061567e565b815260200183600281111561224857634e487b7160e01b600052602160045260246000fd5b90529050612254613966565b6040805180820182528f151581528e15156020808301918252600085815260179091529290922090518154925161ffff1990931690151561ff001916176101009215159290920291909117905599506122ad8a82613aaa565b6122cb8a336122c68d85602001518660a0015188613c1f565b613d5d565b6122d58a8c613d80565b6122e88a82606001518360800151613b62565b601960009054906101000a90046001600160a01b03166001600160a01b031663a4475ce46040518163ffffffff1660e01b815260040160206040518083038186803b15801561233657600080fd5b505afa15801561234a573d6000803e3d6000fd5b505050506040513d601f19601f8201168201806040525081019061236e9190614db1565b6001600160a01b0316336001600160a01b0316146126cb5760105460195460408051632911d73960e21b815290516001600160a01b039384169363a9059cbb93169163a4475ce4916004808301926020929190829003018186803b1580156123d557600080fd5b505afa1580156123e9573d6000803e3d6000fd5b505050506040513d601f19601f8201168201806040525081019061240d9190614db1565b61241b866305f5e100615798565b601060009054906101000a90046001600160a01b03166001600160a01b031663313ce5676040518163ffffffff1660e01b815260040160206040518083038186803b15801561246957600080fd5b505afa15801561247d573d6000803e3d6000fd5b505050506040513d601f19601f820116820180604052508101906124a19190615272565b6124ac90600a6156ed565b6124b6898b615798565b6124c09190615798565b6124ca9190615696565b6040518363ffffffff1660e01b81526004016124e79291906153c2565b602060405180830381600087803b15801561250157600080fd5b505af1158015612515573d6000803e3d6000fd5b505050506040513d601f19601f82011682018060405250810190612539919061506a565b506010546001600160a01b031663a9059cbb61255361173e565b612561866305f5e100615798565b601060009054906101000a90046001600160a01b03166001600160a01b031663313ce5676040518163ffffffff1660e01b815260040160206040518083038186803b1580156125af57600080fd5b505afa1580156125c3573d6000803e3d6000fd5b505050506040513d601f19601f820116820180604052508101906125e79190615272565b6125f290600a6156ed565b6125fc898c615798565b6126069190615798565b6126109190615696565b6040518363ffffffff1660e01b815260040161262d9291906153c2565b602060405180830381600087803b15801561264757600080fd5b505af115801561265b573d6000803e3d6000fd5b505050506040513d601f19601f8201168201806040525081019061267f919061506a565b5061268861173e565b6001600160a01b03167ff0f0487d8990103573e0e5cf4e87e101e2a1ba84c733c556b7a5807e570e5d4c876040516126c291815260200190565b60405180910390a25b336001600160a01b03168a7f89f823a0225c73a75066e963ce2eea7708b57680ec86102773dbd244f5412892888a8f60405161270993929190615649565b60405180910390a35050600160075550959a9950505050505050505050565b6001600160a01b03821633141561277d5760405162461bcd60e51b815260206004820152601960248201527822a9219b99189d1030b8383937bb32903a379031b0b63632b960391b6044820152606401610962565b3360008181526005602090815260408083206001600160a01b03871680855290835292819020805460ff191686151590811790915590519081529192917f17307eab39ab6107e8899845ad3d59bd9653f200f220920489ca2b5937696c31910160405180910390a35050565b6000818152600c6020526040812061081d90613d8a565b600061280b82610d51565b61283d5760405162461bcd60e51b815260206004820152600360248201526204f31360ec1b6044820152606401610962565b6000828152601660205260409020600581015442101561286f5760405162461bcd60e51b8152600401610962906155d7565b6001815460ff16600381111561289557634e487b7160e01b600052602160045260246000fd5b146128c85760405162461bcd60e51b815260206004820152600360248201526213cc4d60ea1b6044820152606401610962565b6005810154600090815260186020526040902054806128f95760405162461bcd60e51b8152600401610962906154fc565b6011546012546040516312add1fd60e21b81526000926001600160a01b0390811692634ab747f492612933929091169086906004016153c2565b604080518083038186803b15801561294a57600080fd5b505afa15801561295e573d6000803e3d6000fd5b505050506040513d601f19601f8201168201806040525081019061298291906151cd565b915060029050600684015460ff1660028111156129af57634e487b7160e01b600052602160045260246000fd5b14156129f45780836001015411156129ef5760405162461bcd60e51b81526020600482015260036024820152624f313760e81b6044820152606401610962565b612a2e565b8083600101541015612a2e5760405162461bcd60e51b815260206004820152600360248201526209e62760eb1b6044820152606401610962565b60038301546019549094506001600160a01b03166381b34f1586612a5181610fe9565b6040516001600160e01b031960e085901b16815260048101929092526001600160a01b0316602482015260448101879052606401600060405180830381600087803b158015612a9f57600080fd5b505af1158015612ab3573d6000803e3d6000fd5b50505050612ac0856134ba565b825460ff1916600217835560405184815285907e84fe51c7cb34b132b7b6eb5d5a87a489f8d6d284758d00a0402c1bad9a0def9060200160405180910390a2505050919050565b612b12335b83613041565b612b2e5760405162461bcd60e51b81526004016109629061556a565b610fe384848484613d94565b81612b6c5760405162461bcd60e51b8152602060048201526002602482015261138d60f21b6044820152606401610962565b6000612b77826135ff565b606081015160408201516080830151929350909160005b86811015612ccb576000612bc7898984818110612bbb57634e487b7160e01b600052603260045260246000fd5b905060200201356135ff565b9050806060015185612bd9919061567e565b9450806040015184612beb919061567e565b9350806080015183612bfd919061567e565b6019549093506001600160a01b0316630dbf21b08a8a85818110612c3157634e487b7160e01b600052603260045260246000fd5b905060200201356040518263ffffffff1660e01b8152600401612c5691815260200190565b600060405180830381600087803b158015612c7057600080fd5b505af1158015612c84573d6000803e3d6000fd5b50505050612cb8898984818110612cab57634e487b7160e01b600052603260045260246000fd5b9050602002013588613dc7565b5080612cc381615846565b915050612b8e565b50612cd985858585856136ee565b506019546040516357a5c96760e01b81526001600160a01b03909116906357a5c96790612d0e90889087908690600401615668565b600060405180830381600087803b158015612d2857600080fd5b505af1158015612d3c573d6000803e3d6000fd5b5050505050505050505050565b6000908152600f602052604090205490565b606061081d82613f43565b6000828152600c60205260408120612d7e90836140a5565b9392505050565b612d8e82610ac9565b612d9881336132a4565b610a93838361338e565b8060005b81811015610fe357612ddd848483818110612dd157634e487b7160e01b600052603260045260246000fd5b90506020020135610d5c565b80612de781615846565b915050612da6565b6001600160a01b03918216600090815260056020908152604080832093909416825291909152205460ff1690565b33612e2661173e565b6001600160a01b031614612e4c5760405162461bcd60e51b815260040161096290615535565b6001600160a01b038116612eb15760405162461bcd60e51b815260206004820152602660248201527f4f776e61626c653a206e6577206f776e657220697320746865207a65726f206160448201526564647265737360d01b6064820152608401610962565b610c2c81613bcd565b6000612ec4613966565b9050600080600080612ed687876134d2565b935093509350935060006040518060e0016040528083600001516003811115612f0f57634e487b7160e01b600052602160045260246000fd5b8152602001836020015181526020018681526020018481526020018581526020018360a0015181526020018360c001516002811115612f5e57634e487b7160e01b600052602160045260246000fd5b90529050612f6c8682613aaa565b612f77868486613b62565b612f848a8a8a898b613720565b5050505050949350505050565b60006001600160e01b03198216637965db0b60e01b148061081d575061081d826140b1565b6000908152600260205260409020546001600160a01b0316151590565b600081815260046020526040902080546001600160a01b0319166001600160a01b038416908117909155819061300882610fe9565b6001600160a01b03167f8c5be1e5ebec7d5bd14f71427d1e84f3dd0314c0f7b2291e5b200ac8c7c3b92560405160405180910390a45050565b600061304c82612fb6565b6130ad5760405162461bcd60e51b815260206004820152602c60248201527f4552433732313a206f70657261746f7220717565727920666f72206e6f6e657860448201526b34b9ba32b73a103a37b5b2b760a11b6064820152608401610962565b60006130b883610fe9565b9050806001600160a01b0316846001600160a01b031614806130f35750836001600160a01b03166130e8846108fa565b6001600160a01b0316145b8061310357506131038185612def565b949350505050565b826001600160a01b031661311e82610fe9565b6001600160a01b0316146131865760405162461bcd60e51b815260206004820152602960248201527f4552433732313a207472616e73666572206f6620746f6b656e2074686174206960448201526839903737ba1037bbb760b91b6064820152608401610962565b6001600160a01b0382166131e85760405162461bcd60e51b8152602060048201526024808201527f4552433732313a207472616e7366657220746f20746865207a65726f206164646044820152637265737360e01b6064820152608401610962565b6131f3838383614101565b6131fe600082612fd3565b6001600160a01b03831660009081526003602052604081208054600192906132279084906157b7565b90915550506001600160a01b038216600090815260036020526040812080546001929061325590849061567e565b909155505060008181526002602052604080822080546001600160a01b0319166001600160a01b03868116918217909255915184939187169160008051602061592983398151915291a4505050565b6132ae82826119e2565b610b87576132c6816001600160a01b03166014614119565b6132d1836020614119565b6040516020016132e2929190615302565b60408051601f198184030181529082905262461bcd60e51b82526109629160040161547b565b61331282826119e2565b610b875760008281526008602090815260408083206001600160a01b03851684529091529020805460ff1916600117905561334a3390565b6001600160a01b0316816001600160a01b0316837f2f8788117e7eff1d82e926ec794901d17c78024a50270940304540a733656f0d60405160405180910390a45050565b61339882826119e2565b15610b875760008281526008602090815260408083206001600160a01b0385168085529252808320805460ff1916905551339285917ff6391f5c32d9c69d2a47ea670b442974b53935d1edc7fd64eb21e047a839171b9190a45050565b6000828152600b602090815260408083206001600160a01b0387168452600101909152902054613457576000828152600b602090815260408220805460018101825590835291200180546001600160a01b0319166001600160a01b0385161790555b6000828152600b602090815260408083206001600160a01b0387168085526001909101835292819020849055518381528492917f8a156bd946dc74ec284c5f4b365ce75ef2a5b9d9462b4cdb1d2400cabf136541910160405180910390a3505050565b6000818152600a6020526040812055610c2c816142fa565b60008060006134df614be2565b6134e8866135ff565b905060006134f587612d49565b9050808683604001516135089190615798565b6135129190615696565b9450808683608001516135259190615798565b61352f9190615696565b9350808683606001516135429190615798565b61354c9190615696565b9250613583878385856060015161356391906157b7565b88866040015161357391906157b7565b888760800151610cc291906157b7565b601954606082015160808301516040516357a5c96760e01b81529395506001600160a01b03909216926357a5c967926135c3928c92909190600401615668565b600060405180830381600087803b1580156135dd57600080fd5b505af11580156135f1573d6000803e3d6000fd5b505050505092959194509250565b613607614be2565b60008281526016602052604090819020815160e081019092528054829060ff16600381111561364657634e487b7160e01b600052602160045260246000fd5b600381111561366557634e487b7160e01b600052602160045260246000fd5b81526001820154602082015260028083015460408301526003830154606083015260048301546080830152600583015460a0830152600683015460c09092019160ff16908111156136c657634e487b7160e01b600052602160045260246000fd5b60028111156136e557634e487b7160e01b600052602160045260246000fd5b90525092915050565b6136f6614be2565b50606084018390526040840182905260808401819052836137178682613aaa565b95945050505050565b61372983610fe9565b6001600160a01b0316856001600160a01b03161461376e5760405162461bcd60e51b81526020600482015260026024820152614e3960f01b6044820152606401610962565b6001600160a01b0384166137aa5760405162461bcd60e51b815260206004820152600360248201526204e31360ec1b6044820152606401610962565b336001600160a01b038616148015906137ca57506137c88533612def565b155b15613815576000838152600b602090815260408083203384526001019091529020546137f79082906157b7565b6000848152600b602090815260408083203384526001019091529020555b6000838152600f602052604090205461382f9082906157b7565b6000848152600f602052604090205561384782612fb6565b6138645761385f848361385986610ade565b8461438c565b61390c565b836001600160a01b031661387783610fe9565b6001600160a01b0316146138b35760405162461bcd60e51b81526020600482015260036024820152624e313160e81b6044820152606401610962565b6138bc82610ade565b6138c584610ade565b146138e25760405162461bcd60e51b815260040161096290615519565b6000828152600f60205260409020546138fc90829061567e565b6000838152600f60205260409020555b6000838152600a60205260408082205484835291819020919091555183906001600160a01b03808716919088169060008051602061594983398151915290613957908790879061546d565b60405180910390a45050505050565b601580546000918261397783615846565b91905055905090565b61398a3384613041565b6139bb5760405162461bcd60e51b8152602060048201526002602482015261271960f11b6044820152606401610962565b6139c482612fb6565b156139f65760405162461bcd60e51b81526020600482015260026024820152614e3360f01b6044820152606401610962565b613a1582613a0385610ade565b6000918252600a602052604090912055565b6000838152600f6020526040902054613a2f9082906157b7565b6000848152600f6020526040812091909155613a4a84610fe9565b9050613a608184613a5a87610ade565b8561438c565b83816001600160a01b03167ff66885c33d648fcd0d97e0f2a18e30102169c22763473af0fb716f11b4a17dd68585604051613a9c92919061546d565b60405180910390a350505050565b60008281526016602052604090208151815483929190829060ff19166001836003811115613ae857634e487b7160e01b600052602160045260246000fd5b02179055506020820151816001015560408201518160020155606082015181600301556080820151816004015560a0820151816005015560c08201518160060160006101000a81548160ff02191690836002811115613b5757634e487b7160e01b600052602160045260246000fd5b021790555050505050565b60195460405163edd0d42160e01b81526001600160a01b039091169063edd0d42190613b9690869086908690600401615668565b600060405180830381600087803b158015613bb057600080fd5b505af1158015613bc4573d6000803e3d6000fd5b50505050505050565b600680546001600160a01b038381166001600160a01b0319831681179093556040519116919082907f8be0079c531659141344cd1fd0a4f28419497f9722a3daafe3b4186f6b6457e090600090a35050565b600083838387604051602001613c38949392919061561f565b60408051808303601f1901815291815281516020928301206000818152601b909352912060020154909150610100900460ff1615613c9e5760405162461bcd60e51b8152602060048201526003602482015262138c4d60ea1b6044820152606401610962565b6040518060800160405280858152602001848152602001836002811115613cd557634e487b7160e01b600052602160045260246000fd5b8152600160209182018190526000848152601b8352604090819020845181559284015183830155830151600280840180549293909260ff1916918490811115613d2e57634e487b7160e01b600052602160045260246000fd5b021790555060609190910151600290910180549115156101000261ff0019909216919091179055949350505050565b6000838152600a60205260409020819055600d54610a939083908590849061438c565b610b878282614416565b600061081d825490565b613d9f84848461310b565b613dab848484846144a1565b610fe35760405162461bcd60e51b8152600401610962906154aa565b613dd033612b0c565b613e015760405162461bcd60e51b81526020600482015260026024820152614e3560f01b6044820152606401610962565b80821415613e365760405162461bcd60e51b8152602060048201526002602482015261271b60f11b6044820152606401610962565b613e3f81610ade565b613e4883610ade565b14613e655760405162461bcd60e51b815260040161096290615519565b6000613e7083610fe9565b9050613e7b82610fe9565b6001600160a01b0316816001600160a01b031614613ec05760405162461bcd60e51b815260206004820152600260248201526109c760f31b6044820152606401610962565b6000838152600f602052604080822054848352912054613ee0908261567e565b6000848152600f6020526040902055613ef8846134ba565b8284836001600160a01b03167fb3ce851d16b3bbec3774d5631a3893dfa2a80e067cfad265dd594402ac3d609684604051613f3591815260200190565b60405180910390a450505050565b6060613f4e82612fb6565b613fb45760405162461bcd60e51b815260206004820152603160248201527f45524337323155524953746f726167653a2055524920717565727920666f72206044820152703737b732bc34b9ba32b73a103a37b5b2b760791b6064820152608401610962565b60008281526009602052604081208054613fcd90615811565b80601f0160208091040260200160405190810160405280929190818152602001828054613ff990615811565b80156140465780601f1061401b57610100808354040283529160200191614046565b820191906000526020600020905b81548152906001019060200180831161402957829003601f168201915b5050505050905060006140576145ae565b905080516000141561406a575092915050565b81511561409c5780826040516020016140849291906152d3565b60405160208183030381529060405292505050919050565b613103846145ce565b6000612d7e8383614698565b60006001600160e01b031982166380ac58cd60e01b14806140e257506001600160e01b03198216635b5e139f60e01b145b8061081d57506301ffc9a760e01b6001600160e01b031983161461081d565b6001600160a01b03831615610a9357610a93816146d0565b60606000614128836002615798565b61413390600261567e565b6001600160401b0381111561415857634e487b7160e01b600052604160045260246000fd5b6040519080825280601f01601f191660200182016040528015614182576020820181803683370190505b509050600360fc1b816000815181106141ab57634e487b7160e01b600052603260045260246000fd5b60200101906001600160f81b031916908160001a905350600f60fb1b816001815181106141e857634e487b7160e01b600052603260045260246000fd5b60200101906001600160f81b031916908160001a905350600061420c846002615798565b61421790600161567e565b90505b60018111156142ab576f181899199a1a9b1b9c1cb0b131b232b360811b85600f166010811061425957634e487b7160e01b600052603260045260246000fd5b1a60f81b82828151811061427d57634e487b7160e01b600052603260045260246000fd5b60200101906001600160f81b031916908160001a90535060049490941c936142a4816157fa565b905061421a565b508315612d7e5760405162461bcd60e51b815260206004820181905260248201527f537472696e67733a20686578206c656e67746820696e73756666696369656e746044820152606401610962565b600061430582610fe9565b9050600061431283610ade565b6000848152600f6020908152604080832054848452600c9092529091209192509061433d9085614784565b506000848152600f602052604081205561435684614790565b8360006001600160a01b0316846001600160a01b0316600080516020615949833981519152600085604051613f3592919061546d565b61439583612fb6565b6143bd576143a38484614825565b6000828152600c602052604090206143bb9084614951565b505b6000838152600f60205260409020546143d790829061567e565b6000848152600f60205260408082209290925590516001600160a01b03861690829060008051602061594983398151915290613f35908890879061546d565b61441f82612fb6565b6144825760405162461bcd60e51b815260206004820152602e60248201527f45524337323155524953746f726167653a2055524920736574206f66206e6f6e60448201526d32bc34b9ba32b73a103a37b5b2b760911b6064820152608401610962565b60008281526009602090815260409091208251610a9392840190614c3e565b60006001600160a01b0384163b156145a357604051630a85bd0160e11b81526001600160a01b0385169063150b7a02906144e5903390899088908890600401615385565b602060405180830381600087803b1580156144ff57600080fd5b505af192505050801561452f575060408051601f3d908101601f1916820190925261452c918101906150de565b60015b614589573d80801561455d576040519150601f19603f3d011682016040523d82523d6000602084013e614562565b606091505b5080516145815760405162461bcd60e51b8152600401610962906154aa565b805181602001fd5b6001600160e01b031916630a85bd0160e11b149050613103565b506001949350505050565b606060405180606001604052806022815260200161590760229139905090565b60606145d982612fb6565b61463d5760405162461bcd60e51b815260206004820152602f60248201527f4552433732314d657461646174613a2055524920717565727920666f72206e6f60448201526e3732bc34b9ba32b73a103a37b5b2b760891b6064820152608401610962565b60006146476145ae565b905060008151116146675760405180602001604052806000815250612d7e565b806146718461495d565b6040516020016146829291906152d3565b6040516020818303038152906040529392505050565b60008260000182815481106146bd57634e487b7160e01b600052603260045260246000fd5b9060005260206000200154905092915050565b6000818152600b60205260408120905b8154811015610a935781600101600083600001838154811061471257634e487b7160e01b600052603260045260246000fd5b60009182526020808320909101546001600160a01b03168352820192909252604001812055815482908290811061475957634e487b7160e01b600052603260045260246000fd5b600091825260209091200180546001600160a01b03191690558061477c81615846565b9150506146e0565b6000612d7e8383614a76565b600061479b82610fe9565b90506147a981600084614101565b6147b4600083612fd3565b6001600160a01b03811660009081526003602052604081208054600192906147dd9084906157b7565b909155505060008281526002602052604080822080546001600160a01b0319169055518391906001600160a01b03841690600080516020615929833981519152908390a45050565b6001600160a01b03821661487b5760405162461bcd60e51b815260206004820181905260248201527f4552433732313a206d696e7420746f20746865207a65726f20616464726573736044820152606401610962565b61488481612fb6565b156148d05760405162461bcd60e51b815260206004820152601c60248201527b115490cdcc8c4e881d1bdad95b88185b1c9958591e481b5a5b9d195960221b6044820152606401610962565b6148dc60008383614101565b6001600160a01b038216600090815260036020526040812080546001929061490590849061567e565b909155505060008181526002602052604080822080546001600160a01b0319166001600160a01b0386169081179091559051839290600080516020615929833981519152908290a45050565b6000612d7e8383614b93565b6060816149815750506040805180820190915260018152600360fc1b602082015290565b8160005b81156149ab578061499581615846565b91506149a49050600a83615696565b9150614985565b6000816001600160401b038111156149d357634e487b7160e01b600052604160045260246000fd5b6040519080825280601f01601f1916602001820160405280156149fd576020820181803683370190505b5090505b841561310357614a126001836157b7565b9150614a1f600a86615861565b614a2a90603061567e565b60f81b818381518110614a4d57634e487b7160e01b600052603260045260246000fd5b60200101906001600160f81b031916908160001a905350614a6f600a86615696565b9450614a01565b60008181526001830160205260408120548015614b89576000614a9a6001836157b7565b8554909150600090614aae906001906157b7565b9050818114614b2f576000866000018281548110614adc57634e487b7160e01b600052603260045260246000fd5b9060005260206000200154905080876000018481548110614b0d57634e487b7160e01b600052603260045260246000fd5b6000918252602080832090910192909255918252600188019052604090208390555b8554869080614b4e57634e487b7160e01b600052603160045260246000fd5b60019003818190600052602060002001600090559055856001016000868152602001908152602001600020600090556001935050505061081d565b600091505061081d565b6000818152600183016020526040812054614bda5750815460018181018455600084815260208082209093018490558454848252828601909352604090209190915561081d565b50600061081d565b6040805160e081019091528060008152602001600081526020016000815260200160008152602001600081526020016000815260200160006002811115614c3957634e487b7160e01b600052602160045260246000fd5b905290565b828054614c4a90615811565b90600052602060002090601f016020900481019282614c6c5760008555614cb2565b82601f10614c8557805160ff1916838001178555614cb2565b82800160010185558215614cb2579182015b82811115614cb2578251825591602001919060010190614c97565b50614cbe929150614cc2565b5090565b5b80821115614cbe5760008155600101614cc3565b60006001600160401b0380841115614cf157614cf16158b7565b604051601f8501601f19908116603f01168101908282118183101715614d1957614d196158b7565b81604052809350858152868686011115614d3257600080fd5b858560208301376000602087830101525050509392505050565b60008083601f840112614d5d578182fd5b5081356001600160401b03811115614d73578182fd5b6020830191508360208260051b8501011115614d8e57600080fd5b9250929050565b600060208284031215614da6578081fd5b8135612d7e816158cd565b600060208284031215614dc2578081fd5b8151612d7e816158cd565b60008060408385031215614ddf578081fd5b8235614dea816158cd565b91506020830135614dfa816158cd565b809150509250929050565b600080600060608486031215614e19578081fd5b8335614e24816158cd565b92506020840135614e34816158cd565b929592945050506040919091013590565b60008060008060808587031215614e5a578081fd5b8435614e65816158cd565b93506020850135614e75816158cd565b92506040850135915060608501356001600160401b03811115614e96578182fd5b8501601f81018713614ea6578182fd5b614eb587823560208401614cd7565b91505092959194509250565b60008060008060808587031215614ed6578384fd5b8435614ee1816158cd565b93506020850135614ef1816158cd565b93969395505050506040820135916060013590565b600080600080600060a08688031215614f1d578081fd5b8535614f28816158cd565b94506020860135614f38816158cd565b94979496505050506040830135926060810135926080909101359150565b60008060408385031215614f68578182fd5b8235614f73816158cd565b91506020830135614dfa816158e2565b60008060408385031215614f95578182fd5b8235614fa0816158cd565b946020939093013593505050565b600080600060608486031215614fc2578081fd5b8335614fcd816158cd565b95602085013595506040909401359392505050565b60008060208385031215614ff4578182fd5b82356001600160401b03811115615009578283fd5b61501585828601614d4c565b90969095509350505050565b600080600060408486031215615035578081fd5b83356001600160401b0381111561504a578182fd5b61505686828701614d4c565b909790965060209590950135949350505050565b60006020828403121561507b578081fd5b8151612d7e816158e2565b600060208284031215615097578081fd5b5035919050565b600080604083850312156150b0578182fd5b823591506020830135614dfa816158cd565b6000602082840312156150d3578081fd5b8135612d7e816158f0565b6000602082840312156150ef578081fd5b8151612d7e816158f0565b60006020828403121561510b578081fd5b5051919050565b600080600060408486031215615126578081fd5b8335925060208401356001600160401b03811115615142578182fd5b61514e86828701614d4c565b9497909650939450505050565b60008060008060808587031215615170578182fd5b843593506020850135615182816158e2565b92506040850135615192816158e2565b915060608501356001600160401b03811115614e96578182fd5b600080604083850312156151be578182fd5b50508035926020909101359150565b600080604083850312156151df578182fd5b505080516020909101519092909150565b600080600060608486031215615204578081fd5b8351925060208401519150604084015190509250925092565b600080600080600060a08688031215615234578283fd5b8535945060208601359350604086013592506060860135615254816158e2565b91506080860135615264816158e2565b809150509295509295909350565b600060208284031215615283578081fd5b815160ff81168114612d7e578182fd5b600081518084526152ab8160208601602086016157ce565b601f01601f19169290920160200192915050565b600381106152cf576152cf6158a1565b9052565b600083516152e58184602088016157ce565b8351908301906152f98183602088016157ce565b01949350505050565b76020b1b1b2b9b9a1b7b73a3937b61d1030b1b1b7bab73a1604d1b8152600083516153348160178501602088016157ce565b7001034b99036b4b9b9b4b733903937b6329607d1b60179184019182015283516153658160288401602088016157ce565b01602801949350505050565b6001600160a01b0391909116815260200190565b6001600160a01b03858116825284166020820152604081018390526080606082018190526000906153b890830184615293565b9695505050505050565b6001600160a01b03929092168252602082015260400190565b6020808252825182820181905260009190848201906040850190845b81811015615413578351835292840192918401916001016153f7565b50909695505050505050565b60e0810160048910615433576154336158a1565b8882528760208301528660408301528560608301528460808301528360a083015261546160c08301846152bf565b98975050505050505050565b918252602082015260400190565b602081526000612d7e6020830184615293565b6020808252600290820152614f3960f01b604082015260600190565b60208082526032908201527f4552433732313a207472616e7366657220746f206e6f6e20455243373231526560408201527131b2b4bb32b91034b6b83632b6b2b73a32b960711b606082015260800190565b60208082526003908201526204f32360ec1b604082015260600190565b6020808252600290820152614e3760f01b604082015260600190565b6020808252818101527f4f776e61626c653a2063616c6c6572206973206e6f7420746865206f776e6572604082015260600190565b60208082526031908201527f4552433732313a207472616e736665722063616c6c6572206973206e6f74206f6040820152701ddb995c881b9bdc88185c1c1c9bdd9959607a1b606082015260800190565b6020808252600290820152614f3160f01b604082015260600190565b60208082526002908201526113cd60f21b604082015260600190565b848152602081018490526080810161560e60408301856152bf565b821515606083015295945050505050565b848152602081018490526080810161563a60408301856152bf565b82606083015295945050505050565b8381528260208201526060604082015260006137176060830184615293565b9283526020830191909152604082015260600190565b6000821982111561569157615691615875565b500190565b6000826156a5576156a561588b565b500490565b600181815b808511156156e55781600019048211156156cb576156cb615875565b808516156156d857918102915b93841c93908002906156af565b509250929050565b6000612d7e60ff8416836000826157065750600161081d565b816157135750600061081d565b816001811461572957600281146157335761574f565b600191505061081d565b60ff84111561574457615744615875565b50506001821b61081d565b5060208310610133831016604e8410600b8410161715615772575081810a61081d565b61577c83836156aa565b806000190482111561579057615790615875565b029392505050565b60008160001904831182151516156157b2576157b2615875565b500290565b6000828210156157c9576157c9615875565b500390565b60005b838110156157e95781810151838201526020016157d1565b83811115610fe35750506000910152565b60008161580957615809615875565b506000190190565b600181811c9082168061582557607f821691505b602082108114156108f457634e487b7160e01b600052602260045260246000fd5b600060001982141561585a5761585a615875565b5060010190565b6000826158705761587061588b565b500690565b634e487b7160e01b600052601160045260246000fd5b634e487b7160e01b600052601260045260246000fd5b634e487b7160e01b600052602160045260246000fd5b634e487b7160e01b600052604160045260246000fd5b6001600160a01b0381168114610c2c57600080fd5b8015158114610c2c57600080fd5b6001600160e01b031981168114610c2c57600080fdfe68747470733a2f2f676174657761792e70696e6174612e636c6f75642f697066732fddf252ad1be2c89b69c2b068fc378daa952ba7f163c4a11628f55a4df523b3ef823a343d1c899e61a4db12247636a6882bf1fefae78bef39170f8d0f5b53e456a26469706673582212200dc58023cbd6093c91bbe380eafa466d8082ad611a4e31050b6092bdffe264fd64736f6c63430008040033","bytecodeSha1":"5ba48adf373756d3cc8ccbce16863a582ea2f784","type":"contract","abi":[{"inputs":[{"internalType":"contract ERC20","name":"_stableCoin","type":"address"},{"internalType":"address","name":"_tvlOracle","type":"address"},{"internalType":"contract ISlidingWindowOracle","name":"_KPIOracle","type":"address"},{"internalType":"contract IPriceProvider","name":"pp","type":"address"},{"internalType":"contract BufferEpocPoolV2Unintialized","name":"_pool","type":"address"},{"internalType":"contract OptionConfigUnintialized","name":"_config","type":"address"}],"stateMutability":"nonpayable","type":"constructor","name":"constructor"},{"anonymous":false,"inputs":[{"indexed":true,"internalType":"address","name":"owner","type":"address"},{"indexed":true,"internalType":"address","name":"approved","type":"address"},{"indexed":true,"internalType":"uint256","name":"tokenId","type":"uint256"}],"name":"Approval","type":"event"},{"anonymous":false,"inputs":[{"indexed":true,"internalType":"address","name":"owner","type":"address"},{"indexed":true,"internalType":"address","name":"operator","type":"address"},{"indexed":false,"internalType":"bool","name":"approved","type":"bool"}],"name":"ApprovalForAll","type":"event"},{"anonymous":false,"inputs":[{"indexed":true,"internalType":"address","name":"approval","type":"address"},{"indexed":true,"internalType":"uint256","name":"tokenId","type":"uint256"},{"indexed":false,"internalType":"uint256","name":"allowance","type":"uint256"}],"name":"ApprovalUnits","type":"event"},{"anonymous":false,"inputs":[{"indexed":true,"internalType":"address","name":"account","type":"address"},{"indexed":false,"internalType":"bool","name":"status","type":"bool"}],"name":"AutoExerciseStatusChange","type":"event"},{"anonymous":false,"inputs":[{"indexed":true,"internalType":"uint256","name":"id","type":"uint256"},{"indexed":true,"internalType":"address","name":"account","type":"address"},{"indexed":false,"internalType":"uint256","name":"settlementFee","type":"uint256"},{"indexed":false,"internalType":"uint256","name":"totalFee","type":"uint256"},{"indexed":false,"internalType":"string","name":"metadata","type":"string"}],"name":"Create","type":"event"},{"anonymous":false,"inputs":[{"indexed":true,"internalType":"uint256","name":"id","type":"uint256"},{"indexed":false,"internalType":"uint256","name":"profit","type":"uint256"}],"name":"Exercise","type":"event"},{"anonymous":false,"inputs":[{"indexed":true,"internalType":"uint256","name":"id","type":"uint256"},{"indexed":false,"internalType":"uint256","name":"premium","type":"uint256"}],"name":"Expire","type":"event"},{"anonymous":false,"inputs":[{"indexed":true,"internalType":"address","name":"owner","type":"address"},{"indexed":true,"internalType":"uint256","name":"tokenId","type":"uint256"},{"indexed":true,"internalType":"uint256","name":"targetTokenId","type":"uint256"},{"indexed":false,"internalType":"uint256","name":"mergeUnits","type":"uint256"}],"name":"Merge","type":"event"},{"anonymous":false,"inputs":[{"indexed":true,"internalType":"address","name":"previousOwner","type":"address"},{"indexed":true,"internalType":"address","name":"newOwner","type":"address"}],"name":"OwnershipTransferred","type":"event"},{"anonymous":false,"inputs":[{"indexed":true,"internalType":"address","name":"owner","type":"address"},{"indexed":false,"internalType":"uint256","name":"amount","type":"uint256"}],"name":"PayAdminFee","type":"event"},{"anonymous":false,"inputs":[{"indexed":true,"internalType":"address","name":"referrer","type":"address"},{"indexed":false,"internalType":"uint256","name":"amount","type":"uint256"}],"name":"PayReferralFee","type":"event"},{"anonymous":false,"inputs":[{"indexed":true,"internalType":"bytes32","name":"role","type":"bytes32"},{"indexed":true,"internalType":"bytes32","name":"previousAdminRole","type":"bytes32"},{"indexed":true,"internalType":"bytes32","name":"newAdminRole","type":"bytes32"}],"name":"RoleAdminChanged","type":"event"},{"anonymous":false,"inputs":[{"indexed":true,"internalType":"bytes32","name":"role","type":"bytes32"},{"indexed":true,"internalType":"address","name":"account","type":"address"},{"indexed":true,"internalType":"address","name":"sender","type":"address"}],"name":"RoleGranted","type":"event"},{"anonymous":false,"inputs":[{"indexed":true,"internalType":"bytes32","name":"role","type":"bytes32"},{"indexed":true,"internalType":"address","name":"account","type":"address"},{"indexed":true,"internalType":"address","name":"sender","type":"address"}],"name":"RoleRevoked","type":"event"},{"anonymous":false,"inputs":[{"indexed":true,"internalType":"address","name":"owner","type":"address"},{"indexed":true,"internalType":"uint256","name":"tokenId","type":"uint256"},{"indexed":false,"internalType":"uint256","name":"newTokenId","type":"uint256"},{"indexed":false,"internalType":"uint256","name":"splitUnits","type":"uint256"}],"name":"Split","type":"event"},{"anonymous":false,"inputs":[{"indexed":true,"internalType":"address","name":"from","type":"address"},{"indexed":true,"internalType":"address","name":"to","type":"address"},{"indexed":true,"internalType":"uint256","name":"tokenId","type":"uint256"}],"name":"Transfer","type":"event"},{"anonymous":false,"inputs":[{"indexed":true,"internalType":"address","name":"from","type":"address"},{"indexed":true,"internalType":"address","name":"to","type":"address"},{"indexed":true,"internalType":"uint256","name":"tokenId","type":"uint256"},{"indexed":false,"internalType":"uint256","name":"targetTokenId","type":"uint256"},{"indexed":false,"internalType":"uint256","name":"transferUnits","type":"uint256"}],"name":"TransferUnits","type":"event"},{"anonymous":false,"inputs":[{"indexed":false,"internalType":"uint256","name":"startHour","type":"uint256"},{"indexed":false,"internalType":"uint256","name":"startMinute","type":"uint256"},{"indexed":false,"internalType":"uint256","name":"endHour","type":"uint256"},{"indexed":false,"internalType":"uint256","name":"endMinute","type":"uint256"}],"name":"UpdateOptionCreationWindow","type":"event"},{"inputs":[],"name":"AUTO_CLOSER_ROLE","outputs":[{"internalType":"bytes32","name":"","type":"bytes32"}],"stateMutability":"view","type":"function"},{"inputs":[],"name":"DEFAULT_ADMIN_ROLE","outputs":[{"internalType":"bytes32","name":"","type":"bytes32"}],"stateMutability":"view","type":"function"},{"inputs":[],"name":"KPIOracle","outputs":[{"internalType":"contract ISlidingWindowOracle","name":"","type":"address"}],"stateMutability":"view","type":"function"},{"inputs":[{"internalType":"uint256","name":"","type":"uint256"}],"name":"_units","outputs":[{"internalType":"uint256","name":"","type":"uint256"}],"stateMutability":"view","type":"function"},{"inputs":[{"internalType":"uint256","name":"optionId_","type":"uint256"},{"internalType":"address","name":"spender_","type":"address"}],"name":"allowance","outputs":[{"internalType":"uint256","name":"","type":"uint256"}],"stateMutability":"view","type":"function"},{"inputs":[{"internalType":"address","name":"to","type":"address"},{"internalType":"uint256","name":"tokenId","type":"uint256"}],"name":"approve","outputs":[],"stateMutability":"nonpayable","type":"function"},{"inputs":[{"internalType":"address","name":"to_","type":"address"},{"internalType":"uint256","name":"optionId_","type":"uint256"},{"internalType":"uint256","name":"allowance_","type":"uint256"}],"name":"approve","outputs":[],"stateMutability":"nonpayable","type":"function"},{"inputs":[{"internalType":"address","name":"owner","type":"address"}],"name":"balanceOf","outputs":[{"internalType":"uint256","name":"","type":"uint256"}],"stateMutability":"view","type":"function"},{"inputs":[{"internalType":"uint256","name":"","type":"uint256"}],"name":"binaryOptionType","outputs":[{"internalType":"bool","name":"isYes","type":"bool"},{"internalType":"bool","name":"isAbove","type":"bool"}],"stateMutability":"view","type":"function"},{"inputs":[{"internalType":"uint256","name":"tokenId_","type":"uint256"}],"name":"burn","outputs":[],"stateMutability":"nonpayable","type":"function"},{"inputs":[],"name":"config","outputs":[{"internalType":"contract OptionConfigUnintialized","name":"","type":"address"}],"stateMutability":"view","type":"function"},{"inputs":[{"internalType":"uint256","name":"amount","type":"uint256"},{"internalType":"bool","name":"isYes","type":"bool"},{"internalType":"bool","name":"isAbove","type":"bool"},{"internalType":"string","name":"metadata","type":"string"}],"name":"create","outputs":[{"internalType":"uint256","name":"optionID","type":"uint256"}],"stateMutability":"nonpayable","type":"function"},{"inputs":[{"internalType":"uint256","name":"optionID","type":"uint256"}],"name":"exercise","outputs":[{"internalType":"uint256","name":"profit","type":"uint256"}],"stateMutability":"nonpayable","type":"function"},{"inputs":[{"internalType":"uint256","name":"optionID","type":"uint256"}],"name":"exists","outputs":[{"internalType":"bool","name":"","type":"bool"}],"stateMutability":"view","type":"function"},{"inputs":[{"internalType":"uint256","name":"","type":"uint256"}],"name":"expiryToRoundID","outputs":[{"internalType":"uint256","name":"","type":"uint256"}],"stateMutability":"view","type":"function"},{"inputs":[{"internalType":"uint256","name":"period","type":"uint256"},{"internalType":"uint256","name":"amount","type":"uint256"},{"internalType":"uint256","name":"strike","type":"uint256"},{"internalType":"bool","name":"isYes","type":"bool"},{"internalType":"bool","name":"isAbove","type":"bool"}],"name":"fees","outputs":[{"internalType":"uint256","name":"total","type":"uint256"},{"internalType":"uint256","name":"settlementFee","type":"uint256"},{"internalType":"uint256","name":"premium","type":"uint256"}],"stateMutability":"view","type":"function"},{"inputs":[{"internalType":"uint256","name":"tokenId","type":"uint256"}],"name":"getApproved","outputs":[{"internalType":"address","name":"","type":"address"}],"stateMutability":"view","type":"function"},{"inputs":[{"internalType":"bytes32","name":"role","type":"bytes32"}],"name":"getRoleAdmin","outputs":[{"internalType":"bytes32","name":"","type":"bytes32"}],"stateMutability":"view","type":"function"},{"inputs":[{"internalType":"bytes32","name":"role","type":"bytes32"},{"internalType":"address","name":"account","type":"address"}],"name":"grantRole","outputs":[],"stateMutability":"nonpayable","type":"function"},{"inputs":[{"internalType":"bytes32","name":"role","type":"bytes32"},{"internalType":"address","name":"account","type":"address"}],"name":"hasRole","outputs":[{"internalType":"bool","name":"","type":"bool"}],"stateMutability":"view","type":"function"},{"inputs":[{"internalType":"address","name":"owner","type":"address"},{"internalType":"address","name":"operator","type":"address"}],"name":"isApprovedForAll","outputs":[{"internalType":"bool","name":"","type":"bool"}],"stateMutability":"view","type":"function"},{"inputs":[],"name":"maxUnits","outputs":[{"internalType":"uint256","name":"","type":"uint256"}],"stateMutability":"view","type":"function"},{"inputs":[{"internalType":"uint256[]","name":"optionIDs","type":"uint256[]"},{"internalType":"uint256","name":"targetOptionID","type":"uint256"}],"name":"merge","outputs":[],"stateMutability":"nonpayable","type":"function"},{"inputs":[],"name":"minimumYield","outputs":[{"internalType":"uint256","name":"","type":"uint256"}],"stateMutability":"view","type":"function"},{"inputs":[],"name":"name","outputs":[{"internalType":"string","name":"","type":"string"}],"stateMutability":"view","type":"function"},{"inputs":[],"name":"nextTokenId","outputs":[{"internalType":"uint256","name":"","type":"uint256"}],"stateMutability":"view","type":"function"},{"inputs":[{"internalType":"uint256","name":"","type":"uint256"}],"name":"optionSlotMapping","outputs":[{"internalType":"uint256","name":"","type":"uint256"}],"stateMutability":"view","type":"function"},{"inputs":[{"internalType":"uint256","name":"","type":"uint256"}],"name":"options","outputs":[{"internalType":"enum IBufferOptions.State","name":"state","type":"uint8"},{"internalType":"uint256","name":"strike","type":"uint256"},{"internalType":"uint256","name":"amount","type":"uint256"},{"internalType":"uint256","name":"lockedAmount","type":"uint256"},{"internalType":"uint256","name":"premium","type":"uint256"},{"internalType":"uint256","name":"expiration","type":"uint256"},{"internalType":"enum IBufferOptions.OptionType","name":"optionType","type":"uint8"}],"stateMutability":"view","type":"function"},{"inputs":[],"name":"owner","outputs":[{"internalType":"address","name":"","type":"address"}],"stateMutability":"view","type":"function"},{"inputs":[{"internalType":"uint256","name":"tokenId","type":"uint256"}],"name":"ownerOf","outputs":[{"internalType":"address","name":"","type":"address"}],"stateMutability":"view","type":"function"},{"inputs":[],"name":"pool","outputs":[{"internalType":"contract BufferEpocPoolV2Unintialized","name":"","type":"address"}],"stateMutability":"view","type":"function"},{"inputs":[],"name":"priceProvider","outputs":[{"internalType":"contract IPriceProvider","name":"","type":"address"}],"stateMutability":"view","type":"function"},{"inputs":[],"name":"renounceOwnership","outputs":[],"stateMutability":"nonpayable","type":"function"},{"inputs":[{"internalType":"bytes32","name":"role","type":"bytes32"},{"internalType":"address","name":"account","type":"address"}],"name":"renounceRole","outputs":[],"stateMutability":"nonpayable","type":"function"},{"inputs":[{"internalType":"bytes32","name":"role","type":"bytes32"},{"internalType":"address","name":"account","type":"address"}],"name":"revokeRole","outputs":[],"stateMutability":"nonpayable","type":"function"},{"inputs":[{"internalType":"address","name":"from","type":"address"},{"internalType":"address","name":"to","type":"address"},{"internalType":"uint256","name":"tokenId","type":"uint256"}],"name":"safeTransferFrom","outputs":[],"stateMutability":"nonpayable","type":"function"},{"inputs":[{"internalType":"address","name":"from","type":"address"},{"internalType":"address","name":"to","type":"address"},{"internalType":"uint256","name":"tokenId","type":"uint256"},{"internalType":"bytes","name":"_data","type":"bytes"}],"name":"safeTransferFrom","outputs":[],"stateMutability":"nonpayable","type":"function"},{"inputs":[{"internalType":"address","name":"operator","type":"address"},{"internalType":"bool","name":"approved","type":"bool"}],"name":"setApprovalForAll","outputs":[],"stateMutability":"nonpayable","type":"function"},{"inputs":[{"internalType":"uint256","name":"roundId","type":"uint256"}],"name":"setRoundIDForExpiry","outputs":[{"internalType":"bool","name":"isCorrectRoundId","type":"bool"}],"stateMutability":"nonpayable","type":"function"},{"inputs":[{"internalType":"uint256","name":"","type":"uint256"}],"name":"slotDetails","outputs":[{"internalType":"uint256","name":"strike","type":"uint256"},{"internalType":"uint256","name":"expiration","type":"uint256"},{"internalType":"enum IBufferOptions.OptionType","name":"optionType","type":"uint8"},{"internalType":"bool","name":"isValid","type":"bool"}],"stateMutability":"view","type":"function"},{"inputs":[{"internalType":"uint256","name":"optionId_","type":"uint256"}],"name":"slotOf","outputs":[{"internalType":"uint256","name":"","type":"uint256"}],"stateMutability":"view","type":"function"},{"inputs":[{"internalType":"uint256","name":"optionID","type":"uint256"},{"internalType":"uint256[]","name":"splitUnits_","type":"uint256[]"}],"name":"split","outputs":[{"internalType":"uint256[]","name":"newOptionIDs","type":"uint256[]"}],"stateMutability":"nonpayable","type":"function"},{"inputs":[],"name":"stableCoin","outputs":[{"internalType":"contract ERC20","name":"","type":"address"}],"stateMutability":"view","type":"function"},{"inputs":[{"internalType":"bytes4","name":"interfaceId","type":"bytes4"}],"name":"supportsInterface","outputs":[{"internalType":"bool","name":"","type":"bool"}],"stateMutability":"view","type":"function"},{"inputs":[],"name":"symbol","outputs":[{"internalType":"string","name":"","type":"string"}],"stateMutability":"view","type":"function"},{"inputs":[{"internalType":"uint256","name":"slot_","type":"uint256"},{"internalType":"uint256","name":"index_","type":"uint256"}],"name":"tokenOfSlotByIndex","outputs":[{"internalType":"uint256","name":"","type":"uint256"}],"stateMutability":"view","type":"function"},{"inputs":[{"internalType":"uint256","name":"tokenId","type":"uint256"}],"name":"tokenURI","outputs":[{"internalType":"string","name":"","type":"string"}],"stateMutability":"view","type":"function"},{"inputs":[{"internalType":"uint256","name":"slot_","type":"uint256"}],"name":"tokensInSlot","outputs":[{"internalType":"uint256","name":"","type":"uint256"}],"stateMutability":"view","type":"function"},{"inputs":[{"internalType":"address","name":"from","type":"address"},{"internalType":"address","name":"to","type":"address"},{"internalType":"uint256","name":"tokenId","type":"uint256"}],"name":"transferFrom","outputs":[],"stateMutability":"nonpayable","type":"function"},{"inputs":[{"internalType":"address","name":"from_","type":"address"},{"internalType":"address","name":"to_","type":"address"},{"internalType":"uint256","name":"optionID","type":"uint256"},{"internalType":"uint256","name":"targetOptionID","type":"uint256"},{"internalType":"uint256","name":"transferUnits_","type":"uint256"}],"name":"transferFrom","outputs":[],"stateMutability":"nonpayable","type":"function"},{"inputs":[{"internalType":"address","name":"from_","type":"address"},{"internalType":"address","name":"to_","type":"address"},{"internalType":"uint256","name":"optionID","type":"uint256"},{"internalType":"uint256","name":"transferUnits_","type":"uint256"}],"name":"transferFrom","outputs":[{"internalType":"uint256","name":"newOptionID","type":"uint256"}],"stateMutability":"nonpayable","type":"function"},{"inputs":[{"internalType":"address","name":"newOwner","type":"address"}],"name":"transferOwnership","outputs":[],"stateMutability":"nonpayable","type":"function"},{"inputs":[],"name":"tvlOracle","outputs":[{"internalType":"address","name":"","type":"address"}],"stateMutability":"view","type":"function"},{"inputs":[],"name":"unitDecimals","outputs":[{"internalType":"uint8","name":"","type":"uint8"}],"stateMutability":"view","type":"function"},{"inputs":[{"internalType":"uint256","name":"slot_","type":"uint256"}],"name":"unitsInSlot","outputs":[{"internalType":"uint256","name":"units_","type":"uint256"}],"stateMutability":"view","type":"function"},{"inputs":[{"internalType":"uint256","name":"optionId_","type":"uint256"}],"name":"unitsInToken","outputs":[{"internalType":"uint256","name":"","type":"uint256"}],"stateMutability":"view","type":"function"},{"inputs":[{"internalType":"uint256","name":"optionID","type":"uint256"}],"name":"unlock","outputs":[],"stateMutability":"nonpayable","type":"function"},{"inputs":[{"internalType":"uint256[]","name":"optionIDs","type":"uint256[]"}],"name":"unlockAll","outputs":[],"stateMutability":"nonpayable","type":"function"}],"compiler":{"version":"0.8.4+commit.c7e474f2","evm_version":"istanbul","optimizer":{"enabled":true,"runs":1}},"contractName":"BufferBinaryEuropeanKPIOptions","deployedBytecode":"608060405234801561001057600080fd5b506004361061029e5760003560e01c806301ffc9a7146102a357806305271a2a146102cb57806306517a29146102e057806306fdde03146102f7578063076d948c1461030c578063081812fc1461031f578063095ea7b31461033f578063108348eb1461035457806316f0115b1461036757806323b872dd1461037a578063248a9ca31461038d578063263f3e7e146103a05780632f2ff15d146103b357806336568abe146103c6578063409e2205146103d9578063426a84931461043c57806342842e0e1461044f57806342966c68146104625780634aed53c2146104755780634f558e79146104885780636198e3391461049b5780636352211e146104ae57806367807f7d146104c1578063689ab5ac146104e357806369c672471461052657806370a0823114610546578063715018a61461055957806375794a3c1461056157806378c533ce1461056a57806379502c551461058a578063841edc0e1461059d5780638a584118146105bd5780638da5cb5b146106085780638dd7d2c11461061057806391d148541461062357806395d89b4114610636578063992642e51461063e578063a04030ba14610651578063a217fddf14610664578063a22cb4651461066c578063a6d14c021461067f578063a880042514610687578063b07f0a411461069a578063b888879e146106ad578063b88d4fde146106c0578063bbe33ea5146106d3578063becef607146106e6578063c37e04f6146106f9578063c87b56dd1461070c578063d149cc301461071f578063d547741f14610732578063d5a0e67314610745578063dba34e9714610765578063e342b5981461078c578063e345e0bc1461079f578063e985e9c5146107d9578063f2fde38b146107ec578063fe99049a146107ff575b600080fd5b6102b66102b13660046150c2565b610812565b60405190151581526020015b60405180910390f35b600e5460405160ff90911681526020016102c2565b6102e9600d5481565b6040519081526020016102c2565b6102ff610823565b6040516102c2919061547b565b6102e961031a366004615086565b6108b5565b61033261032d366004615086565b6108fa565b6040516102c29190615371565b61035261034d366004614f83565b610987565b005b601254610332906001600160a01b031681565b601954610332906001600160a01b031681565b610352610388366004614e05565b610a98565b6102e961039b366004615086565b610ac9565b6102e96103ae366004615086565b610ade565b6103526103c136600461509e565b610af0565b6103526103d436600461509e565b610b0d565b6104296103e7366004615086565b601660205260009081526040902080546001820154600283015460038401546004850154600586015460069096015460ff958616969495939492939192911687565b6040516102c2979695949392919061541f565b61035261044a366004614fae565b610b8b565b61035261045d366004614e05565b610bcf565b610352610470366004615086565b610bea565b610352610483366004614f06565b610c2f565b6102b6610496366004615086565b610d51565b6103526104a9366004615086565b610d5c565b6103326104bc366004615086565b610fe9565b6104d46104cf36600461521d565b611060565b6040516102c293929190615668565b61050f6104f1366004615086565b60176020526000908152604090205460ff8082169161010090041682565b6040805192151583529015156020830152016102c2565b610539610534366004615112565b61128a565b6040516102c291906153db565b6102e9610554366004614d95565b61167c565b610352611703565b6102e960155481565b6102e9610578366004615086565b600f6020526000908152604090205481565b601a54610332906001600160a01b031681565b6102e96105ab366004615086565b60186020526000908152604090205481565b6105f86105cb366004615086565b601b6020526000908152604090208054600182015460029092015490919060ff8082169161010090041684565b6040516102c294939291906155f3565b61033261173e565b6102b661061e366004615086565b61174d565b6102b661063136600461509e565b6119e2565b6102ff611a0d565b601054610332906001600160a01b031681565b6102e961065f36600461515b565b611a1c565b6102e9600081565b61035261067a366004614f56565b612728565b6102e9600581565b6102e9610695366004615086565b6127e9565b6102e96106a8366004615086565b612800565b601454610332906001600160a01b031681565b6103526106ce366004614e45565b612b07565b6103526106e1366004615021565b612b3a565b6102e96106f4366004615086565b612d49565b601154610332906001600160a01b031681565b6102ff61071a366004615086565b612d5b565b6102e961072d3660046151ac565b612d66565b61035261074036600461509e565b612d85565b6102e9610753366004615086565b600a6020526000908152604090205481565b6102e97fdeb3b49547f710c56a925b6e16e3557a50fab4dd8f243bc314f3afba2054ec5b81565b61035261079a366004614fe2565b612da2565b6102e96107ad36600461509e565b6000828152600b602090815260408083206001600160a01b038516845260010190915290205492915050565b6102b66107e7366004614dcd565b612def565b6103526107fa366004614d95565b612e1d565b6102e961080d366004614ec1565b612eba565b600061081d82612f91565b92915050565b60606000805461083290615811565b80601f016020809104026020016040519081016040528092919081815260200182805461085e90615811565b80156108ab5780601f10610880576101008083540402835291602001916108ab565b820191906000526020600020905b81548152906001019060200180831161088e57829003601f168201915b5050505050905090565b6000805b6108c2836127e9565b8110156108f4576108d66106f48483612d66565b6108e0908361567e565b9150806108ec81615846565b9150506108b9565b50919050565b600061090582612fb6565b61096b5760405162461bcd60e51b815260206004820152602c60248201527f4552433732313a20617070726f76656420717565727920666f72206e6f6e657860448201526b34b9ba32b73a103a37b5b2b760a11b60648201526084015b60405180910390fd5b506000908152600460205260409020546001600160a01b031690565b600061099282610fe9565b9050806001600160a01b0316836001600160a01b03161415610a005760405162461bcd60e51b815260206004820152602160248201527f4552433732313a20617070726f76616c20746f2063757272656e74206f776e656044820152603960f91b6064820152608401610962565b336001600160a01b0382161480610a1c5750610a1c8133612def565b610a895760405162461bcd60e51b815260206004820152603860248201527f4552433732313a20617070726f76652063616c6c6572206973206e6f74206f776044820152771b995c881b9bdc88185c1c1c9bdd995908199bdc88185b1b60421b6064820152608401610962565b610a938383612fd3565b505050565b610aa23382613041565b610abe5760405162461bcd60e51b81526004016109629061556a565b610a9383838361310b565b60009081526008602052604090206001015490565b6000908152600a602052604090205490565b610af982610ac9565b610b0381336132a4565b610a938383613308565b6001600160a01b0381163314610b7d5760405162461bcd60e51b815260206004820152602f60248201527f416363657373436f6e74726f6c3a2063616e206f6e6c792072656e6f756e636560448201526e103937b632b9903337b91039b2b63360891b6064820152608401610962565b610b87828261338e565b5050565b610b9482610fe9565b6001600160a01b0316336001600160a01b031614610bc45760405162461bcd60e51b81526004016109629061548e565b610a938383836133f5565b610a9383838360405180602001604052806000815250612b07565b610bf381610fe9565b6001600160a01b0316336001600160a01b031614610c235760405162461bcd60e51b81526004016109629061548e565b610c2c816134ba565b50565b610c3882610d51565b610c6a5760405162461bcd60e51b815260206004820152600360248201526227189960e91b6044820152606401610962565b6000806000610c7986856134d2565b509250925092506000610c8b866135ff565b9050610cc78682848460600151610ca2919061567e565b878560400151610cb2919061567e565b878660800151610cc2919061567e565b6136ee565b601954606082015160808301516040516357a5c96760e01b81529394506001600160a01b03909216926357a5c96792610d07928b92909190600401615668565b600060405180830381600087803b158015610d2157600080fd5b505af1158015610d35573d6000803e3d6000fd5b50505050610d468989898989613720565b505050505050505050565b600061081d82612fb6565b60008181526016602052604090206005810154421015610d8e5760405162461bcd60e51b8152600401610962906155d7565b6001815460ff166003811115610db457634e487b7160e01b600052602160045260246000fd5b14610de65760405162461bcd60e51b81526020600482015260026024820152614f3560f01b6044820152606401610962565b600581015460009081526018602052604090205480610e175760405162461bcd60e51b8152600401610962906154fc565b6011546012546040516312add1fd60e21b81526000926001600160a01b0390811692634ab747f492610e51929091169086906004016153c2565b604080518083038186803b158015610e6857600080fd5b505afa158015610e7c573d6000803e3d6000fd5b505050506040513d601f19601f82011682018060405250810190610ea091906151cd565b915060029050600684015460ff166002811115610ecd57634e487b7160e01b600052602160045260246000fd5b148015610ede575082600101548110155b80610f1e57506001600684015460ff166002811115610f0d57634e487b7160e01b600052602160045260246000fd5b148015610f1e575082600101548111155b15610f3257610f2c84612800565b50610fe3565b825460ff19166003178355601954604051636198e33960e01b8152600481018690526001600160a01b0390911690636198e33990602401600060405180830381600087803b158015610f8357600080fd5b505af1158015610f97573d6000803e3d6000fd5b50505050610fa4846134ba565b837f5f36a4a575e512eb69d6d28c3b0ff98cca7ba50ad5bf04e14094ad1d425e0d318460040154604051610fda91815260200190565b60405180910390a25b50505050565b6000818152600260205260408120546001600160a01b03168061081d5760405162461bcd60e51b815260206004820152602960248201527f4552433732313a206f776e657220717565727920666f72206e6f6e657869737460448201526832b73a103a37b5b2b760b91b6064820152608401610962565b600080600080601460009054906101000a90046001600160a01b03166001600160a01b0316631acf55826040518163ffffffff1660e01b815260040160206040518083038186803b1580156110b457600080fd5b505afa1580156110c8573d6000803e3d6000fd5b505050506040513d601f19601f820116820180604052508101906110ec91906150fa565b60115460125460405163141ac1e360e11b81529293506000926001600160a01b039283169263283583c69261112692911690600401615371565b60206040518083038186803b15801561113e57600080fd5b505afa158015611152573d6000803e3d6000fd5b505050506040513d601f19601f8201168201806040525081019061117691906150fa565b6040805160a0810182528c8152602081018c81528183018c81528b1515606084019081528b151560808501908152601a546019549651636dfd2eeb60e11b8152865160048201529451602486015292516044850152905115156064840152511515608483015260a4820187905260c482018590526001600160a01b0390811660e483015290921661010483015291925073__$b949255e90277c788dcf25edf1f9288c61$__9063dbfa5dd6906101240160606040518083038186803b15801561123e57600080fd5b505af4158015611252573d6000803e3d6000fd5b505050506040513d601f19601f8201168201806040525081019061127691906151f0565b919d909c50909a5098505050505050505050565b6060816112be5760405162461bcd60e51b81526020600482015260026024820152614e3160f01b6044820152606401610962565b816001600160401b038111156112e457634e487b7160e01b600052604160045260246000fd5b60405190808252806020026020018201604052801561130d578160200160208202803683370190505b509050600061131b856135ff565b9050600061132886612d49565b905060008080805b8781101561153b576000611342613966565b90508088838151811061136557634e487b7160e01b600052603260045260246000fd5b6020026020010181815250506113a28b828c8c8681811061139657634e487b7160e01b600052603260045260246000fd5b90506020020135613980565b6000868b8b858181106113c557634e487b7160e01b600052603260045260246000fd5b9050602002013589604001516113db9190615798565b6113e59190615696565b90506113f1818761567e565b95506000878c8c8681811061141657634e487b7160e01b600052603260045260246000fd5b905060200201358a6060015161142c9190615798565b6114369190615696565b9050611442818761567e565b95506000888d8d8781811061146757634e487b7160e01b600052603260045260246000fd5b905060200201358b6080015161147d9190615798565b6114879190615696565b9050611493818761567e565b955060006040518060e001604052808c6000015160038111156114c657634e487b7160e01b600052602160045260246000fd5b81526020018c6020015181526020018581526020018481526020018381526020018c60a0015181526020018c60c00151600281111561151557634e487b7160e01b600052602160045260246000fd5b905290506115238582613aaa565b5050505050808061153390615846565b915050611330565b50611571898684886060015161155191906157b7565b86896040015161156191906157b7565b858a60800151610cc291906157b7565b601954606082015160808301516040516357a5c96760e01b81529398506001600160a01b03909216926357a5c967926115b1928e92909190600401615668565b600060405180830381600087803b1580156115cb57600080fd5b505af11580156115df573d6000803e3d6000fd5b5050505060005b8781101561166f57600061162088838151811061161357634e487b7160e01b600052603260045260246000fd5b60200260200101516135ff565b905061165c88838151811061164557634e487b7160e01b600052603260045260246000fd5b602002602001015182606001518360800151613b62565b508061166781615846565b9150506115e6565b5050505050509392505050565b60006001600160a01b0382166116e75760405162461bcd60e51b815260206004820152602a60248201527f4552433732313a2062616c616e636520717565727920666f7220746865207a65604482015269726f206164647265737360b01b6064820152608401610962565b506001600160a01b031660009081526003602052604090205490565b3361170c61173e565b6001600160a01b0316146117325760405162461bcd60e51b815260040161096290615535565b61173c6000613bcd565b565b6006546001600160a01b031690565b6011546012546040516312add1fd60e21b8152600092839283926001600160a01b0392831692634ab747f49261178a9291169088906004016153c2565b604080518083038186803b1580156117a157600080fd5b505afa1580156117b5573d6000803e3d6000fd5b505050506040513d601f19601f820116820180604052508101906117d991906151cd565b915091506000601960009054906101000a90046001600160a01b03166001600160a01b031663a834069b6040518163ffffffff1660e01b815260040160206040518083038186803b15801561182d57600080fd5b505afa158015611841573d6000803e3d6000fd5b505050506040513d601f19601f8201168201806040525081019061186591906150fa565b905082811061189b5760405162461bcd60e51b8152602060048201526002602482015261433160f01b6044820152606401610962565b60006118a86001876157b7565b90505b846119d9576011546012546040516312add1fd60e21b81526000926001600160a01b0390811692634ab747f4926118ea929091169086906004016153c2565b604080518083038186803b15801561190157600080fd5b505afa158015611915573d6000803e3d6000fd5b505050506040513d601f19601f8201168201806040525081019061193991906151cd565b5090508061198857600082116119765760405162461bcd60e51b8152602060048201526002602482015261433360f01b6044820152606401610962565b6119816001836157b7565b91506119d3565b828111156119bd5760405162461bcd60e51b815260206004820152600260248201526110cd60f21b6044820152606401610962565b6000838152601860205260409020829055600195505b506118ab565b50505050919050565b60009182526008602090815260408084206001600160a01b0393909316845291905290205460ff1690565b60606001805461083290615811565b600060026007541415611a715760405162461bcd60e51b815260206004820152601f60248201527f5265656e7472616e637947756172643a207265656e7472616e742063616c6c006044820152606401610962565b60026007556019546040805163392e53cd60e01b815290516001600160a01b039092169163392e53cd91600480820192602092909190829003018186803b158015611abb57600080fd5b505afa158015611acf573d6000803e3d6000fd5b505050506040513d601f19601f82011682018060405250810190611af3919061506a565b8015611b805750601a60009054906101000a90046001600160a01b03166001600160a01b031663392e53cd6040518163ffffffff1660e01b815260040160206040518083038186803b158015611b4857600080fd5b505afa158015611b5c573d6000803e3d6000fd5b505050506040513d601f19601f82011682018060405250810190611b80919061506a565b611bc55760405162461bcd60e51b8152602060048201526016602482015275496e697469616c697a6174696f6e2070656e64696e6760501b6044820152606401610962565b6019546040805163a834069b60e01b815290516000926001600160a01b03169163a834069b916004808301926020929190829003018186803b158015611c0a57600080fd5b505afa158015611c1e573d6000803e3d6000fd5b505050506040513d601f19601f82011682018060405250810190611c4291906150fa565b9050428111611c635760405162461bcd60e51b8152600401610962906155bb565b6000611c6f42836157b7565b905061a8c0811015611c935760405162461bcd60e51b8152600401610962906155bb565b6000806000611d2a848b601a60009054906101000a90046001600160a01b03166001600160a01b0316635ee971016040518163ffffffff1660e01b815260040160206040518083038186803b158015611ceb57600080fd5b505afa158015611cff573d6000803e3d6000fd5b505050506040513d601f19601f82011682018060405250810190611d2391906150fa565b8c8c611060565b919450925090506005611d3d858c615798565b611d479190615798565b611d55846301e13380615798565b611d60906064615798565b11611d925760405162461bcd60e51b8152602060048201526002602482015261279960f11b6044820152606401610962565b60145460408051630d67aac160e11b815290516000926001600160a01b031691631acf5582916004808301926020929190829003018186803b158015611dd757600080fd5b505afa158015611deb573d6000803e3d6000fd5b505050506040513d601f19601f82011682018060405250810190611e0f91906150fa565b90506000601960009054906101000a90046001600160a01b03166001600160a01b03166316dc165b6040518163ffffffff1660e01b815260040160206040518083038186803b158015611e6157600080fd5b505afa158015611e75573d6000803e3d6000fd5b505050506040513d601f19601f82011682018060405250810190611e999190614db1565b6001600160a01b031663313ce5676040518163ffffffff1660e01b815260040160206040518083038186803b158015611ed157600080fd5b505afa158015611ee5573d6000803e3d6000fd5b505050506040513d601f19601f82011682018060405250810190611f099190615272565b611f1490600a6156ed565b9050601960009054906101000a90046001600160a01b03166001600160a01b031663a4475ce46040518163ffffffff1660e01b815260040160206040518083038186803b158015611f6457600080fd5b505afa158015611f78573d6000803e3d6000fd5b505050506040513d601f19601f82011682018060405250810190611f9c9190614db1565b6001600160a01b0316336001600160a01b031614612144576010546000906001600160a01b03166323b872dd3330611fd8866305f5e100615798565b601060009054906101000a90046001600160a01b03166001600160a01b031663313ce5676040518163ffffffff1660e01b815260040160206040518083038186803b15801561202657600080fd5b505afa15801561203a573d6000803e3d6000fd5b505050506040513d601f19601f8201168201806040525081019061205e9190615272565b61206990600a6156ed565b612073898d615798565b61207d9190615798565b6120879190615696565b6040516001600160e01b031960e086901b1681526001600160a01b0393841660048201529290911660248301526044820152606401602060405180830381600087803b1580156120d657600080fd5b505af11580156120ea573d6000803e3d6000fd5b505050506040513d601f19601f8201168201806040525081019061210e919061506a565b9050806121425760405162461bcd60e51b81526020600482015260026024820152614f3360f01b6044820152606401610962565b505b60018b151581148015612159575060018b1515145b8061216b57508b15801561216b57508a155b15612174575060025b6040805160e08101825260018152601a548251635ee9710160e01b815292516000936020808501936001600160a01b031692635ee97101926004808201939291829003018186803b1580156121c857600080fd5b505afa1580156121dc573d6000803e3d6000fd5b505050506040513d601f19601f8201168201806040525081019061220091906150fa565b81526020018f81526020018f81526020018681526020018942612223919061567e565b815260200183600281111561224857634e487b7160e01b600052602160045260246000fd5b90529050612254613966565b6040805180820182528f151581528e15156020808301918252600085815260179091529290922090518154925161ffff1990931690151561ff001916176101009215159290920291909117905599506122ad8a82613aaa565b6122cb8a336122c68d85602001518660a0015188613c1f565b613d5d565b6122d58a8c613d80565b6122e88a82606001518360800151613b62565b601960009054906101000a90046001600160a01b03166001600160a01b031663a4475ce46040518163ffffffff1660e01b815260040160206040518083038186803b15801561233657600080fd5b505afa15801561234a573d6000803e3d6000fd5b505050506040513d601f19601f8201168201806040525081019061236e9190614db1565b6001600160a01b0316336001600160a01b0316146126cb5760105460195460408051632911d73960e21b815290516001600160a01b039384169363a9059cbb93169163a4475ce4916004808301926020929190829003018186803b1580156123d557600080fd5b505afa1580156123e9573d6000803e3d6000fd5b505050506040513d601f19601f8201168201806040525081019061240d9190614db1565b61241b866305f5e100615798565b601060009054906101000a90046001600160a01b03166001600160a01b031663313ce5676040518163ffffffff1660e01b815260040160206040518083038186803b15801561246957600080fd5b505afa15801561247d573d6000803e3d6000fd5b505050506040513d601f19601f820116820180604052508101906124a19190615272565b6124ac90600a6156ed565b6124b6898b615798565b6124c09190615798565b6124ca9190615696565b6040518363ffffffff1660e01b81526004016124e79291906153c2565b602060405180830381600087803b15801561250157600080fd5b505af1158015612515573d6000803e3d6000fd5b505050506040513d601f19601f82011682018060405250810190612539919061506a565b506010546001600160a01b031663a9059cbb61255361173e565b612561866305f5e100615798565b601060009054906101000a90046001600160a01b03166001600160a01b031663313ce5676040518163ffffffff1660e01b815260040160206040518083038186803b1580156125af57600080fd5b505afa1580156125c3573d6000803e3d6000fd5b505050506040513d601f19601f820116820180604052508101906125e79190615272565b6125f290600a6156ed565b6125fc898c615798565b6126069190615798565b6126109190615696565b6040518363ffffffff1660e01b815260040161262d9291906153c2565b602060405180830381600087803b15801561264757600080fd5b505af115801561265b573d6000803e3d6000fd5b505050506040513d601f19601f8201168201806040525081019061267f919061506a565b5061268861173e565b6001600160a01b03167ff0f0487d8990103573e0e5cf4e87e101e2a1ba84c733c556b7a5807e570e5d4c876040516126c291815260200190565b60405180910390a25b336001600160a01b03168a7f89f823a0225c73a75066e963ce2eea7708b57680ec86102773dbd244f5412892888a8f60405161270993929190615649565b60405180910390a35050600160075550959a9950505050505050505050565b6001600160a01b03821633141561277d5760405162461bcd60e51b815260206004820152601960248201527822a9219b99189d1030b8383937bb32903a379031b0b63632b960391b6044820152606401610962565b3360008181526005602090815260408083206001600160a01b03871680855290835292819020805460ff191686151590811790915590519081529192917f17307eab39ab6107e8899845ad3d59bd9653f200f220920489ca2b5937696c31910160405180910390a35050565b6000818152600c6020526040812061081d90613d8a565b600061280b82610d51565b61283d5760405162461bcd60e51b815260206004820152600360248201526204f31360ec1b6044820152606401610962565b6000828152601660205260409020600581015442101561286f5760405162461bcd60e51b8152600401610962906155d7565b6001815460ff16600381111561289557634e487b7160e01b600052602160045260246000fd5b146128c85760405162461bcd60e51b815260206004820152600360248201526213cc4d60ea1b6044820152606401610962565b6005810154600090815260186020526040902054806128f95760405162461bcd60e51b8152600401610962906154fc565b6011546012546040516312add1fd60e21b81526000926001600160a01b0390811692634ab747f492612933929091169086906004016153c2565b604080518083038186803b15801561294a57600080fd5b505afa15801561295e573d6000803e3d6000fd5b505050506040513d601f19601f8201168201806040525081019061298291906151cd565b915060029050600684015460ff1660028111156129af57634e487b7160e01b600052602160045260246000fd5b14156129f45780836001015411156129ef5760405162461bcd60e51b81526020600482015260036024820152624f313760e81b6044820152606401610962565b612a2e565b8083600101541015612a2e5760405162461bcd60e51b815260206004820152600360248201526209e62760eb1b6044820152606401610962565b60038301546019549094506001600160a01b03166381b34f1586612a5181610fe9565b6040516001600160e01b031960e085901b16815260048101929092526001600160a01b0316602482015260448101879052606401600060405180830381600087803b158015612a9f57600080fd5b505af1158015612ab3573d6000803e3d6000fd5b50505050612ac0856134ba565b825460ff1916600217835560405184815285907e84fe51c7cb34b132b7b6eb5d5a87a489f8d6d284758d00a0402c1bad9a0def9060200160405180910390a2505050919050565b612b12335b83613041565b612b2e5760405162461bcd60e51b81526004016109629061556a565b610fe384848484613d94565b81612b6c5760405162461bcd60e51b8152602060048201526002602482015261138d60f21b6044820152606401610962565b6000612b77826135ff565b606081015160408201516080830151929350909160005b86811015612ccb576000612bc7898984818110612bbb57634e487b7160e01b600052603260045260246000fd5b905060200201356135ff565b9050806060015185612bd9919061567e565b9450806040015184612beb919061567e565b9350806080015183612bfd919061567e565b6019549093506001600160a01b0316630dbf21b08a8a85818110612c3157634e487b7160e01b600052603260045260246000fd5b905060200201356040518263ffffffff1660e01b8152600401612c5691815260200190565b600060405180830381600087803b158015612c7057600080fd5b505af1158015612c84573d6000803e3d6000fd5b50505050612cb8898984818110612cab57634e487b7160e01b600052603260045260246000fd5b9050602002013588613dc7565b5080612cc381615846565b915050612b8e565b50612cd985858585856136ee565b506019546040516357a5c96760e01b81526001600160a01b03909116906357a5c96790612d0e90889087908690600401615668565b600060405180830381600087803b158015612d2857600080fd5b505af1158015612d3c573d6000803e3d6000fd5b5050505050505050505050565b6000908152600f602052604090205490565b606061081d82613f43565b6000828152600c60205260408120612d7e90836140a5565b9392505050565b612d8e82610ac9565b612d9881336132a4565b610a93838361338e565b8060005b81811015610fe357612ddd848483818110612dd157634e487b7160e01b600052603260045260246000fd5b90506020020135610d5c565b80612de781615846565b915050612da6565b6001600160a01b03918216600090815260056020908152604080832093909416825291909152205460ff1690565b33612e2661173e565b6001600160a01b031614612e4c5760405162461bcd60e51b815260040161096290615535565b6001600160a01b038116612eb15760405162461bcd60e51b815260206004820152602660248201527f4f776e61626c653a206e6577206f776e657220697320746865207a65726f206160448201526564647265737360d01b6064820152608401610962565b610c2c81613bcd565b6000612ec4613966565b9050600080600080612ed687876134d2565b935093509350935060006040518060e0016040528083600001516003811115612f0f57634e487b7160e01b600052602160045260246000fd5b8152602001836020015181526020018681526020018481526020018581526020018360a0015181526020018360c001516002811115612f5e57634e487b7160e01b600052602160045260246000fd5b90529050612f6c8682613aaa565b612f77868486613b62565b612f848a8a8a898b613720565b5050505050949350505050565b60006001600160e01b03198216637965db0b60e01b148061081d575061081d826140b1565b6000908152600260205260409020546001600160a01b0316151590565b600081815260046020526040902080546001600160a01b0319166001600160a01b038416908117909155819061300882610fe9565b6001600160a01b03167f8c5be1e5ebec7d5bd14f71427d1e84f3dd0314c0f7b2291e5b200ac8c7c3b92560405160405180910390a45050565b600061304c82612fb6565b6130ad5760405162461bcd60e51b815260206004820152602c60248201527f4552433732313a206f70657261746f7220717565727920666f72206e6f6e657860448201526b34b9ba32b73a103a37b5b2b760a11b6064820152608401610962565b60006130b883610fe9565b9050806001600160a01b0316846001600160a01b031614806130f35750836001600160a01b03166130e8846108fa565b6001600160a01b0316145b8061310357506131038185612def565b949350505050565b826001600160a01b031661311e82610fe9565b6001600160a01b0316146131865760405162461bcd60e51b815260206004820152602960248201527f4552433732313a207472616e73666572206f6620746f6b656e2074686174206960448201526839903737ba1037bbb760b91b6064820152608401610962565b6001600160a01b0382166131e85760405162461bcd60e51b8152602060048201526024808201527f4552433732313a207472616e7366657220746f20746865207a65726f206164646044820152637265737360e01b6064820152608401610962565b6131f3838383614101565b6131fe600082612fd3565b6001600160a01b03831660009081526003602052604081208054600192906132279084906157b7565b90915550506001600160a01b038216600090815260036020526040812080546001929061325590849061567e565b909155505060008181526002602052604080822080546001600160a01b0319166001600160a01b03868116918217909255915184939187169160008051602061592983398151915291a4505050565b6132ae82826119e2565b610b87576132c6816001600160a01b03166014614119565b6132d1836020614119565b6040516020016132e2929190615302565b60408051601f198184030181529082905262461bcd60e51b82526109629160040161547b565b61331282826119e2565b610b875760008281526008602090815260408083206001600160a01b03851684529091529020805460ff1916600117905561334a3390565b6001600160a01b0316816001600160a01b0316837f2f8788117e7eff1d82e926ec794901d17c78024a50270940304540a733656f0d60405160405180910390a45050565b61339882826119e2565b15610b875760008281526008602090815260408083206001600160a01b0385168085529252808320805460ff1916905551339285917ff6391f5c32d9c69d2a47ea670b442974b53935d1edc7fd64eb21e047a839171b9190a45050565b6000828152600b602090815260408083206001600160a01b0387168452600101909152902054613457576000828152600b602090815260408220805460018101825590835291200180546001600160a01b0319166001600160a01b0385161790555b6000828152600b602090815260408083206001600160a01b0387168085526001909101835292819020849055518381528492917f8a156bd946dc74ec284c5f4b365ce75ef2a5b9d9462b4cdb1d2400cabf136541910160405180910390a3505050565b6000818152600a6020526040812055610c2c816142fa565b60008060006134df614be2565b6134e8866135ff565b905060006134f587612d49565b9050808683604001516135089190615798565b6135129190615696565b9450808683608001516135259190615798565b61352f9190615696565b9350808683606001516135429190615798565b61354c9190615696565b9250613583878385856060015161356391906157b7565b88866040015161357391906157b7565b888760800151610cc291906157b7565b601954606082015160808301516040516357a5c96760e01b81529395506001600160a01b03909216926357a5c967926135c3928c92909190600401615668565b600060405180830381600087803b1580156135dd57600080fd5b505af11580156135f1573d6000803e3d6000fd5b505050505092959194509250565b613607614be2565b60008281526016602052604090819020815160e081019092528054829060ff16600381111561364657634e487b7160e01b600052602160045260246000fd5b600381111561366557634e487b7160e01b600052602160045260246000fd5b81526001820154602082015260028083015460408301526003830154606083015260048301546080830152600583015460a0830152600683015460c09092019160ff16908111156136c657634e487b7160e01b600052602160045260246000fd5b60028111156136e557634e487b7160e01b600052602160045260246000fd5b90525092915050565b6136f6614be2565b50606084018390526040840182905260808401819052836137178682613aaa565b95945050505050565b61372983610fe9565b6001600160a01b0316856001600160a01b03161461376e5760405162461bcd60e51b81526020600482015260026024820152614e3960f01b6044820152606401610962565b6001600160a01b0384166137aa5760405162461bcd60e51b815260206004820152600360248201526204e31360ec1b6044820152606401610962565b336001600160a01b038616148015906137ca57506137c88533612def565b155b15613815576000838152600b602090815260408083203384526001019091529020546137f79082906157b7565b6000848152600b602090815260408083203384526001019091529020555b6000838152600f602052604090205461382f9082906157b7565b6000848152600f602052604090205561384782612fb6565b6138645761385f848361385986610ade565b8461438c565b61390c565b836001600160a01b031661387783610fe9565b6001600160a01b0316146138b35760405162461bcd60e51b81526020600482015260036024820152624e313160e81b6044820152606401610962565b6138bc82610ade565b6138c584610ade565b146138e25760405162461bcd60e51b815260040161096290615519565b6000828152600f60205260409020546138fc90829061567e565b6000838152600f60205260409020555b6000838152600a60205260408082205484835291819020919091555183906001600160a01b03808716919088169060008051602061594983398151915290613957908790879061546d565b60405180910390a45050505050565b601580546000918261397783615846565b91905055905090565b61398a3384613041565b6139bb5760405162461bcd60e51b8152602060048201526002602482015261271960f11b6044820152606401610962565b6139c482612fb6565b156139f65760405162461bcd60e51b81526020600482015260026024820152614e3360f01b6044820152606401610962565b613a1582613a0385610ade565b6000918252600a602052604090912055565b6000838152600f6020526040902054613a2f9082906157b7565b6000848152600f6020526040812091909155613a4a84610fe9565b9050613a608184613a5a87610ade565b8561438c565b83816001600160a01b03167ff66885c33d648fcd0d97e0f2a18e30102169c22763473af0fb716f11b4a17dd68585604051613a9c92919061546d565b60405180910390a350505050565b60008281526016602052604090208151815483929190829060ff19166001836003811115613ae857634e487b7160e01b600052602160045260246000fd5b02179055506020820151816001015560408201518160020155606082015181600301556080820151816004015560a0820151816005015560c08201518160060160006101000a81548160ff02191690836002811115613b5757634e487b7160e01b600052602160045260246000fd5b021790555050505050565b60195460405163edd0d42160e01b81526001600160a01b039091169063edd0d42190613b9690869086908690600401615668565b600060405180830381600087803b158015613bb057600080fd5b505af1158015613bc4573d6000803e3d6000fd5b50505050505050565b600680546001600160a01b038381166001600160a01b0319831681179093556040519116919082907f8be0079c531659141344cd1fd0a4f28419497f9722a3daafe3b4186f6b6457e090600090a35050565b600083838387604051602001613c38949392919061561f565b60408051808303601f1901815291815281516020928301206000818152601b909352912060020154909150610100900460ff1615613c9e5760405162461bcd60e51b8152602060048201526003602482015262138c4d60ea1b6044820152606401610962565b6040518060800160405280858152602001848152602001836002811115613cd557634e487b7160e01b600052602160045260246000fd5b8152600160209182018190526000848152601b8352604090819020845181559284015183830155830151600280840180549293909260ff1916918490811115613d2e57634e487b7160e01b600052602160045260246000fd5b021790555060609190910151600290910180549115156101000261ff0019909216919091179055949350505050565b6000838152600a60205260409020819055600d54610a939083908590849061438c565b610b878282614416565b600061081d825490565b613d9f84848461310b565b613dab848484846144a1565b610fe35760405162461bcd60e51b8152600401610962906154aa565b613dd033612b0c565b613e015760405162461bcd60e51b81526020600482015260026024820152614e3560f01b6044820152606401610962565b80821415613e365760405162461bcd60e51b8152602060048201526002602482015261271b60f11b6044820152606401610962565b613e3f81610ade565b613e4883610ade565b14613e655760405162461bcd60e51b815260040161096290615519565b6000613e7083610fe9565b9050613e7b82610fe9565b6001600160a01b0316816001600160a01b031614613ec05760405162461bcd60e51b815260206004820152600260248201526109c760f31b6044820152606401610962565b6000838152600f602052604080822054848352912054613ee0908261567e565b6000848152600f6020526040902055613ef8846134ba565b8284836001600160a01b03167fb3ce851d16b3bbec3774d5631a3893dfa2a80e067cfad265dd594402ac3d609684604051613f3591815260200190565b60405180910390a450505050565b6060613f4e82612fb6565b613fb45760405162461bcd60e51b815260206004820152603160248201527f45524337323155524953746f726167653a2055524920717565727920666f72206044820152703737b732bc34b9ba32b73a103a37b5b2b760791b6064820152608401610962565b60008281526009602052604081208054613fcd90615811565b80601f0160208091040260200160405190810160405280929190818152602001828054613ff990615811565b80156140465780601f1061401b57610100808354040283529160200191614046565b820191906000526020600020905b81548152906001019060200180831161402957829003601f168201915b5050505050905060006140576145ae565b905080516000141561406a575092915050565b81511561409c5780826040516020016140849291906152d3565b60405160208183030381529060405292505050919050565b613103846145ce565b6000612d7e8383614698565b60006001600160e01b031982166380ac58cd60e01b14806140e257506001600160e01b03198216635b5e139f60e01b145b8061081d57506301ffc9a760e01b6001600160e01b031983161461081d565b6001600160a01b03831615610a9357610a93816146d0565b60606000614128836002615798565b61413390600261567e565b6001600160401b0381111561415857634e487b7160e01b600052604160045260246000fd5b6040519080825280601f01601f191660200182016040528015614182576020820181803683370190505b509050600360fc1b816000815181106141ab57634e487b7160e01b600052603260045260246000fd5b60200101906001600160f81b031916908160001a905350600f60fb1b816001815181106141e857634e487b7160e01b600052603260045260246000fd5b60200101906001600160f81b031916908160001a905350600061420c846002615798565b61421790600161567e565b90505b60018111156142ab576f181899199a1a9b1b9c1cb0b131b232b360811b85600f166010811061425957634e487b7160e01b600052603260045260246000fd5b1a60f81b82828151811061427d57634e487b7160e01b600052603260045260246000fd5b60200101906001600160f81b031916908160001a90535060049490941c936142a4816157fa565b905061421a565b508315612d7e5760405162461bcd60e51b815260206004820181905260248201527f537472696e67733a20686578206c656e67746820696e73756666696369656e746044820152606401610962565b600061430582610fe9565b9050600061431283610ade565b6000848152600f6020908152604080832054848452600c9092529091209192509061433d9085614784565b506000848152600f602052604081205561435684614790565b8360006001600160a01b0316846001600160a01b0316600080516020615949833981519152600085604051613f3592919061546d565b61439583612fb6565b6143bd576143a38484614825565b6000828152600c602052604090206143bb9084614951565b505b6000838152600f60205260409020546143d790829061567e565b6000848152600f60205260408082209290925590516001600160a01b03861690829060008051602061594983398151915290613f35908890879061546d565b61441f82612fb6565b6144825760405162461bcd60e51b815260206004820152602e60248201527f45524337323155524953746f726167653a2055524920736574206f66206e6f6e60448201526d32bc34b9ba32b73a103a37b5b2b760911b6064820152608401610962565b60008281526009602090815260409091208251610a9392840190614c3e565b60006001600160a01b0384163b156145a357604051630a85bd0160e11b81526001600160a01b0385169063150b7a02906144e5903390899088908890600401615385565b602060405180830381600087803b1580156144ff57600080fd5b505af192505050801561452f575060408051601f3d908101601f1916820190925261452c918101906150de565b60015b614589573d80801561455d576040519150601f19603f3d011682016040523d82523d6000602084013e614562565b606091505b5080516145815760405162461bcd60e51b8152600401610962906154aa565b805181602001fd5b6001600160e01b031916630a85bd0160e11b149050613103565b506001949350505050565b606060405180606001604052806022815260200161590760229139905090565b60606145d982612fb6565b61463d5760405162461bcd60e51b815260206004820152602f60248201527f4552433732314d657461646174613a2055524920717565727920666f72206e6f60448201526e3732bc34b9ba32b73a103a37b5b2b760891b6064820152608401610962565b60006146476145ae565b905060008151116146675760405180602001604052806000815250612d7e565b806146718461495d565b6040516020016146829291906152d3565b6040516020818303038152906040529392505050565b60008260000182815481106146bd57634e487b7160e01b600052603260045260246000fd5b9060005260206000200154905092915050565b6000818152600b60205260408120905b8154811015610a935781600101600083600001838154811061471257634e487b7160e01b600052603260045260246000fd5b60009182526020808320909101546001600160a01b03168352820192909252604001812055815482908290811061475957634e487b7160e01b600052603260045260246000fd5b600091825260209091200180546001600160a01b03191690558061477c81615846565b9150506146e0565b6000612d7e8383614a76565b600061479b82610fe9565b90506147a981600084614101565b6147b4600083612fd3565b6001600160a01b03811660009081526003602052604081208054600192906147dd9084906157b7565b909155505060008281526002602052604080822080546001600160a01b0319169055518391906001600160a01b03841690600080516020615929833981519152908390a45050565b6001600160a01b03821661487b5760405162461bcd60e51b815260206004820181905260248201527f4552433732313a206d696e7420746f20746865207a65726f20616464726573736044820152606401610962565b61488481612fb6565b156148d05760405162461bcd60e51b815260206004820152601c60248201527b115490cdcc8c4e881d1bdad95b88185b1c9958591e481b5a5b9d195960221b6044820152606401610962565b6148dc60008383614101565b6001600160a01b038216600090815260036020526040812080546001929061490590849061567e565b909155505060008181526002602052604080822080546001600160a01b0319166001600160a01b0386169081179091559051839290600080516020615929833981519152908290a45050565b6000612d7e8383614b93565b6060816149815750506040805180820190915260018152600360fc1b602082015290565b8160005b81156149ab578061499581615846565b91506149a49050600a83615696565b9150614985565b6000816001600160401b038111156149d357634e487b7160e01b600052604160045260246000fd5b6040519080825280601f01601f1916602001820160405280156149fd576020820181803683370190505b5090505b841561310357614a126001836157b7565b9150614a1f600a86615861565b614a2a90603061567e565b60f81b818381518110614a4d57634e487b7160e01b600052603260045260246000fd5b60200101906001600160f81b031916908160001a905350614a6f600a86615696565b9450614a01565b60008181526001830160205260408120548015614b89576000614a9a6001836157b7565b8554909150600090614aae906001906157b7565b9050818114614b2f576000866000018281548110614adc57634e487b7160e01b600052603260045260246000fd5b9060005260206000200154905080876000018481548110614b0d57634e487b7160e01b600052603260045260246000fd5b6000918252602080832090910192909255918252600188019052604090208390555b8554869080614b4e57634e487b7160e01b600052603160045260246000fd5b60019003818190600052602060002001600090559055856001016000868152602001908152602001600020600090556001935050505061081d565b600091505061081d565b6000818152600183016020526040812054614bda5750815460018181018455600084815260208082209093018490558454848252828601909352604090209190915561081d565b50600061081d565b6040805160e081019091528060008152602001600081526020016000815260200160008152602001600081526020016000815260200160006002811115614c3957634e487b7160e01b600052602160045260246000fd5b905290565b828054614c4a90615811565b90600052602060002090601f016020900481019282614c6c5760008555614cb2565b82601f10614c8557805160ff1916838001178555614cb2565b82800160010185558215614cb2579182015b82811115614cb2578251825591602001919060010190614c97565b50614cbe929150614cc2565b5090565b5b80821115614cbe5760008155600101614cc3565b60006001600160401b0380841115614cf157614cf16158b7565b604051601f8501601f19908116603f01168101908282118183101715614d1957614d196158b7565b81604052809350858152868686011115614d3257600080fd5b858560208301376000602087830101525050509392505050565b60008083601f840112614d5d578182fd5b5081356001600160401b03811115614d73578182fd5b6020830191508360208260051b8501011115614d8e57600080fd5b9250929050565b600060208284031215614da6578081fd5b8135612d7e816158cd565b600060208284031215614dc2578081fd5b8151612d7e816158cd565b60008060408385031215614ddf578081fd5b8235614dea816158cd565b91506020830135614dfa816158cd565b809150509250929050565b600080600060608486031215614e19578081fd5b8335614e24816158cd565b92506020840135614e34816158cd565b929592945050506040919091013590565b60008060008060808587031215614e5a578081fd5b8435614e65816158cd565b93506020850135614e75816158cd565b92506040850135915060608501356001600160401b03811115614e96578182fd5b8501601f81018713614ea6578182fd5b614eb587823560208401614cd7565b91505092959194509250565b60008060008060808587031215614ed6578384fd5b8435614ee1816158cd565b93506020850135614ef1816158cd565b93969395505050506040820135916060013590565b600080600080600060a08688031215614f1d578081fd5b8535614f28816158cd565b94506020860135614f38816158cd565b94979496505050506040830135926060810135926080909101359150565b60008060408385031215614f68578182fd5b8235614f73816158cd565b91506020830135614dfa816158e2565b60008060408385031215614f95578182fd5b8235614fa0816158cd565b946020939093013593505050565b600080600060608486031215614fc2578081fd5b8335614fcd816158cd565b95602085013595506040909401359392505050565b60008060208385031215614ff4578182fd5b82356001600160401b03811115615009578283fd5b61501585828601614d4c565b90969095509350505050565b600080600060408486031215615035578081fd5b83356001600160401b0381111561504a578182fd5b61505686828701614d4c565b909790965060209590950135949350505050565b60006020828403121561507b578081fd5b8151612d7e816158e2565b600060208284031215615097578081fd5b5035919050565b600080604083850312156150b0578182fd5b823591506020830135614dfa816158cd565b6000602082840312156150d3578081fd5b8135612d7e816158f0565b6000602082840312156150ef578081fd5b8151612d7e816158f0565b60006020828403121561510b578081fd5b5051919050565b600080600060408486031215615126578081fd5b8335925060208401356001600160401b03811115615142578182fd5b61514e86828701614d4c565b9497909650939450505050565b60008060008060808587031215615170578182fd5b843593506020850135615182816158e2565b92506040850135615192816158e2565b915060608501356001600160401b03811115614e96578182fd5b600080604083850312156151be578182fd5b50508035926020909101359150565b600080604083850312156151df578182fd5b505080516020909101519092909150565b600080600060608486031215615204578081fd5b8351925060208401519150604084015190509250925092565b600080600080600060a08688031215615234578283fd5b8535945060208601359350604086013592506060860135615254816158e2565b91506080860135615264816158e2565b809150509295509295909350565b600060208284031215615283578081fd5b815160ff81168114612d7e578182fd5b600081518084526152ab8160208601602086016157ce565b601f01601f19169290920160200192915050565b600381106152cf576152cf6158a1565b9052565b600083516152e58184602088016157ce565b8351908301906152f98183602088016157ce565b01949350505050565b76020b1b1b2b9b9a1b7b73a3937b61d1030b1b1b7bab73a1604d1b8152600083516153348160178501602088016157ce565b7001034b99036b4b9b9b4b733903937b6329607d1b60179184019182015283516153658160288401602088016157ce565b01602801949350505050565b6001600160a01b0391909116815260200190565b6001600160a01b03858116825284166020820152604081018390526080606082018190526000906153b890830184615293565b9695505050505050565b6001600160a01b03929092168252602082015260400190565b6020808252825182820181905260009190848201906040850190845b81811015615413578351835292840192918401916001016153f7565b50909695505050505050565b60e0810160048910615433576154336158a1565b8882528760208301528660408301528560608301528460808301528360a083015261546160c08301846152bf565b98975050505050505050565b918252602082015260400190565b602081526000612d7e6020830184615293565b6020808252600290820152614f3960f01b604082015260600190565b60208082526032908201527f4552433732313a207472616e7366657220746f206e6f6e20455243373231526560408201527131b2b4bb32b91034b6b83632b6b2b73a32b960711b606082015260800190565b60208082526003908201526204f32360ec1b604082015260600190565b6020808252600290820152614e3760f01b604082015260600190565b6020808252818101527f4f776e61626c653a2063616c6c6572206973206e6f7420746865206f776e6572604082015260600190565b60208082526031908201527f4552433732313a207472616e736665722063616c6c6572206973206e6f74206f6040820152701ddb995c881b9bdc88185c1c1c9bdd9959607a1b606082015260800190565b6020808252600290820152614f3160f01b604082015260600190565b60208082526002908201526113cd60f21b604082015260600190565b848152602081018490526080810161560e60408301856152bf565b821515606083015295945050505050565b848152602081018490526080810161563a60408301856152bf565b82606083015295945050505050565b8381528260208201526060604082015260006137176060830184615293565b9283526020830191909152604082015260600190565b6000821982111561569157615691615875565b500190565b6000826156a5576156a561588b565b500490565b600181815b808511156156e55781600019048211156156cb576156cb615875565b808516156156d857918102915b93841c93908002906156af565b509250929050565b6000612d7e60ff8416836000826157065750600161081d565b816157135750600061081d565b816001811461572957600281146157335761574f565b600191505061081d565b60ff84111561574457615744615875565b50506001821b61081d565b5060208310610133831016604e8410600b8410161715615772575081810a61081d565b61577c83836156aa565b806000190482111561579057615790615875565b029392505050565b60008160001904831182151516156157b2576157b2615875565b500290565b6000828210156157c9576157c9615875565b500390565b60005b838110156157e95781810151838201526020016157d1565b83811115610fe35750506000910152565b60008161580957615809615875565b506000190190565b600181811c9082168061582557607f821691505b602082108114156108f457634e487b7160e01b600052602260045260246000fd5b600060001982141561585a5761585a615875565b5060010190565b6000826158705761587061588b565b500690565b634e487b7160e01b600052601160045260246000fd5b634e487b7160e01b600052601260045260246000fd5b634e487b7160e01b600052602160045260246000fd5b634e487b7160e01b600052604160045260246000fd5b6001600160a01b0381168114610c2c57600080fd5b8015158114610c2c57600080fd5b6001600160e01b031981168114610c2c57600080fdfe68747470733a2f2f676174657761792e70696e6174612e636c6f75642f697066732fddf252ad1be2c89b69c2b068fc378daa952ba7f163c4a11628f55a4df523b3ef823a343d1c899e61a4db12247636a6882bf1fefae78bef39170f8d0f5b53e456a26469706673582212200dc58023cbd6093c91bbe380eafa466d8082ad611a4e31050b6092bdffe264fd64736f6c63430008040033","language":"Solidity","natspec":{"methods":{"approve(address,uint256)":{"details":"See {IERC721-approve}."},"balanceOf(address)":{"details":"See {IERC721-balanceOf}."},"create(uint256,bool,bool,string)":{"notice":"Creates a new option","params":{"amount":"Option amount in tokenX","isAbove":"Whether the price will stay above this strike or not","isYes":"Whether the option isAbove or not"},"returns":{"optionID":"Created option's ID"}},"exercise(uint256)":{"notice":"Exercises an option if it was ITM at the time of expiry","params":{"optionID":"ID of your option"},"returns":{"profit":"Profit sent to the user"}},"fees(uint256,uint256,uint256,bool,bool)":{"notice":"Used for getting the option's price using blackscholes","params":{"amount":"Option amount","isAbove":"whether the price will stay above this strike or not","isYes":"whether the option isAbove or not","period":"Option period in seconds","strike":"Strike price of the option"},"returns":{"premium":"Amount that covers the price difference in the ITM options","settlementFee":"Amount to be distributed to the Buffer token holders","total":"Total price to be paid"}},"getApproved(uint256)":{"details":"See {IERC721-getApproved}."},"getRoleAdmin(bytes32)":{"details":"Returns the admin role that controls `role`. See {grantRole} and {revokeRole}. To change a role's admin, use {_setRoleAdmin}."},"grantRole(bytes32,address)":{"details":"Grants `role` to `account`. If `account` had not been already granted `role`, emits a {RoleGranted} event. Requirements: - the caller must have ``role``'s admin role."},"hasRole(bytes32,address)":{"details":"Returns `true` if `account` has been granted `role`."},"isApprovedForAll(address,address)":{"details":"See {IERC721-isApprovedForAll}."},"merge(uint256[],uint256)":{"notice":"Merges the options","params":{"optionIDs":"An array of the optionsIds to be merged","targetOptionID":"OptionId to be merged into"}},"name()":{"details":"See {IERC721Metadata-name}."},"owner()":{"details":"Returns the address of the current owner."},"ownerOf(uint256)":{"details":"See {IERC721-ownerOf}."},"renounceOwnership()":{"details":"Leaves the contract without owner. It will not be possible to call `onlyOwner` functions anymore. Can only be called by the current owner. NOTE: Renouncing ownership will leave the contract without an owner, thereby removing any functionality that is only available to the owner."},"renounceRole(bytes32,address)":{"details":"Revokes `role` from the calling account. Roles are often managed via {grantRole} and {revokeRole}: this function's purpose is to provide a mechanism for accounts to lose their privileges if they are compromised (such as when a trusted device is misplaced). If the calling account had been granted `role`, emits a {RoleRevoked} event. Requirements: - the caller must be `account`."},"revokeRole(bytes32,address)":{"details":"Revokes `role` from `account`. If `account` had been granted `role`, emits a {RoleRevoked} event. Requirements: - the caller must have ``role``'s admin role."},"safeTransferFrom(address,address,uint256)":{"details":"See {IERC721-safeTransferFrom}."},"safeTransferFrom(address,address,uint256,bytes)":{"details":"See {IERC721-safeTransferFrom}."},"setApprovalForAll(address,bool)":{"details":"See {IERC721-setApprovalForAll}."},"setRoundIDForExpiry(uint256)":{"notice":"Sets the expiry price in the oracle","details":"a roundId must be provided to confirm price validity, which is the first Chainlink price provided after the expiryTimestamp","params":{"roundId":"the first roundId after expiryTimestamp"},"returns":{"isCorrectRoundId":"Has the roundID been set"}},"split(uint256,uint256[])":{"notice":"Splits the option","params":{"optionID":"OptionId to be splitted","splitUnits_":"Units to be splitted into"},"returns":{"newOptionIDs":"An array of the splitted options"}},"symbol()":{"details":"See {IERC721Metadata-symbol}."},"tokenURI(uint256)":{"details":"Template code provided by OpenZepplin Code Wizard"},"transferFrom(address,address,uint256)":{"details":"See {IERC721-transferFrom}."},"transferFrom(address,address,uint256,uint256)":{"notice":"Transfer part of units of a option to target address.","params":{"from_":"Address of the option sender","optionID":"Id of the option to transfer","to_":"Address of the option recipient","transferUnits_":"Amount of units to transfer"}},"transferFrom(address,address,uint256,uint256,uint256)":{"notice":"Transfer part of units of a option to another option.","params":{"from_":"Address of the option sender","optionID":"Id of the option to transfer","targetOptionID":"Id of the option to receive","to_":"Address of the option recipient","transferUnits_":"Amount of units to transfer"}},"transferOwnership(address)":{"details":"Transfers ownership of the contract to a new account (`newOwner`). Can only be called by the current owner."},"unlock(uint256)":{"notice":"Unlocks the locked funds if the option was OTM at the time of expiry otherwise exercises it","params":{"optionID":"ID of the option"}},"unlockAll(uint256[])":{"notice":"Unlocks an array of options","params":{"optionIDs":"array of options"}}},"kind":"dev","notice":"Buffer TokenX Options Contract","version":1,"author":"Heisenberg","title":"Buffer TokenX Bidirectional (Call and Put) Options"},"opcodes":"PUSH1 0x80 PUSH1 0x40 MSTORE CALLVALUE DUP1 ISZERO PUSH2 0x10 JUMPI PUSH1 0x0 DUP1 REVERT JUMPDEST POP PUSH1 0x4 CALLDATASIZE LT PUSH2 0x29E JUMPI PUSH1 0x0 CALLDATALOAD PUSH1 0xE0 SHR DUP1 PUSH4 0x1FFC9A7 EQ PUSH2 0x2A3 JUMPI DUP1 PUSH4 0x5271A2A EQ PUSH2 0x2CB JUMPI DUP1 PUSH4 0x6517A29 EQ PUSH2 0x2E0 JUMPI DUP1 PUSH4 0x6FDDE03 EQ PUSH2 0x2F7 JUMPI DUP1 PUSH4 0x76D948C EQ PUSH2 0x30C JUMPI DUP1 PUSH4 0x81812FC EQ PUSH2 0x31F JUMPI DUP1 PUSH4 0x95EA7B3 EQ PUSH2 0x33F JUMPI DUP1 PUSH4 0x108348EB EQ PUSH2 0x354 JUMPI DUP1 PUSH4 0x16F0115B EQ PUSH2 0x367 JUMPI DUP1 PUSH4 0x23B872DD EQ PUSH2 0x37A JUMPI DUP1 PUSH4 0x248A9CA3 EQ PUSH2 0x38D JUMPI DUP1 PUSH4 0x263F3E7E EQ PUSH2 0x3A0 JUMPI DUP1 PUSH4 0x2F2FF15D EQ PUSH2 0x3B3 JUMPI DUP1 PUSH4 0x36568ABE EQ PUSH2 0x3C6 JUMPI DUP1 PUSH4 0x409E2205 EQ PUSH2 0x3D9 JUMPI DUP1 PUSH4 0x426A8493 EQ PUSH2 0x43C JUMPI DUP1 PUSH4 0x42842E0E EQ PUSH2 0x44F JUMPI DUP1 PUSH4 0x42966C68 EQ PUSH2 0x462 JUMPI DUP1 PUSH4 0x4AED53C2 EQ PUSH2 0x475 JUMPI DUP1 PUSH4 0x4F558E79 EQ PUSH2 0x488 JUMPI DUP1 PUSH4 0x6198E339 EQ PUSH2 0x49B JUMPI DUP1 PUSH4 0x6352211E EQ PUSH2 0x4AE JUMPI DUP1 PUSH4 0x67807F7D EQ PUSH2 0x4C1 JUMPI DUP1 PUSH4 0x689AB5AC EQ PUSH2 0x4E3 JUMPI DUP1 PUSH4 0x69C67247 EQ PUSH2 0x526 JUMPI DUP1 PUSH4 0x70A08231 EQ PUSH2 0x546 JUMPI DUP1 PUSH4 0x715018A6 EQ PUSH2 0x559 JUMPI DUP1 PUSH4 0x75794A3C EQ PUSH2 0x561 JUMPI DUP1 PUSH4 0x78C533CE EQ PUSH2 0x56A JUMPI DUP1 PUSH4 0x79502C55 EQ PUSH2 0x58A JUMPI DUP1 PUSH4 0x841EDC0E EQ PUSH2 0x59D JUMPI DUP1 PUSH4 0x8A584118 EQ PUSH2 0x5BD JUMPI DUP1 PUSH4 0x8DA5CB5B EQ PUSH2 0x608 JUMPI DUP1 PUSH4 0x8DD7D2C1 EQ PUSH2 0x610 JUMPI DUP1 PUSH4 0x91D14854 EQ PUSH2 0x623 JUMPI DUP1 PUSH4 0x95D89B41 EQ PUSH2 0x636 JUMPI DUP1 PUSH4 0x992642E5 EQ PUSH2 0x63E JUMPI DUP1 PUSH4 0xA04030BA EQ PUSH2 0x651 JUMPI DUP1 PUSH4 0xA217FDDF EQ PUSH2 0x664 JUMPI DUP1 PUSH4 0xA22CB465 EQ PUSH2 0x66C JUMPI DUP1 PUSH4 0xA6D14C02 EQ PUSH2 0x67F JUMPI DUP1 PUSH4 0xA8800425 EQ PUSH2 0x687 JUMPI DUP1 PUSH4 0xB07F0A41 EQ PUSH2 0x69A JUMPI DUP1 PUSH4 0xB888879E EQ PUSH2 0x6AD JUMPI DUP1 PUSH4 0xB88D4FDE EQ PUSH2 0x6C0 JUMPI DUP1 PUSH4 0xBBE33EA5 EQ PUSH2 0x6D3 JUMPI DUP1 PUSH4 0xBECEF607 EQ PUSH2 0x6E6 JUMPI DUP1 PUSH4 0xC37E04F6 EQ PUSH2 0x6F9 JUMPI DUP1 PUSH4 0xC87B56DD EQ PUSH2 0x70C JUMPI DUP1 PUSH4 0xD149CC30 EQ PUSH2 0x71F JUMPI DUP1 PUSH4 0xD547741F EQ PUSH2 0x732 JUMPI DUP1 PUSH4 0xD5A0E673 EQ PUSH2 0x745 JUMPI DUP1 PUSH4 0xDBA34E97 EQ PUSH2 0x765 JUMPI DUP1 PUSH4 0xE342B598 EQ PUSH2 0x78C JUMPI DUP1 PUSH4 0xE345E0BC EQ PUSH2 0x79F JUMPI DUP1 PUSH4 0xE985E9C5 EQ PUSH2 0x7D9 JUMPI DUP1 PUSH4 0xF2FDE38B EQ PUSH2 0x7EC JUMPI DUP1 PUSH4 0xFE99049A EQ PUSH2 0x7FF JUMPI JUMPDEST PUSH1 0x0 DUP1 REVERT JUMPDEST PUSH2 0x2B6 PUSH2 0x2B1 CALLDATASIZE PUSH1 0x4 PUSH2 0x50C2 JUMP JUMPDEST PUSH2 0x812 JUMP JUMPDEST PUSH1 0x40 MLOAD SWAP1 ISZERO ISZERO DUP2 MSTORE PUSH1 0x20 ADD JUMPDEST PUSH1 0x40 MLOAD DUP1 SWAP2 SUB SWAP1 RETURN JUMPDEST PUSH1 0xE SLOAD PUSH1 0x40 MLOAD PUSH1 0xFF SWAP1 SWAP2 AND DUP2 MSTORE PUSH1 0x20 ADD PUSH2 0x2C2 JUMP JUMPDEST PUSH2 0x2E9 PUSH1 0xD SLOAD DUP2 JUMP JUMPDEST PUSH1 0x40 MLOAD SWAP1 DUP2 MSTORE PUSH1 0x20 ADD PUSH2 0x2C2 JUMP JUMPDEST PUSH2 0x2FF PUSH2 0x823 JUMP JUMPDEST PUSH1 0x40 MLOAD PUSH2 0x2C2 SWAP2 SWAP1 PUSH2 0x547B JUMP JUMPDEST PUSH2 0x2E9 PUSH2 0x31A CALLDATASIZE PUSH1 0x4 PUSH2 0x5086 JUMP JUMPDEST PUSH2 0x8B5 JUMP JUMPDEST PUSH2 0x332 PUSH2 0x32D CALLDATASIZE PUSH1 0x4 PUSH2 0x5086 JUMP JUMPDEST PUSH2 0x8FA JUMP JUMPDEST PUSH1 0x40 MLOAD PUSH2 0x2C2 SWAP2 SWAP1 PUSH2 0x5371 JUMP JUMPDEST PUSH2 0x352 PUSH2 0x34D CALLDATASIZE PUSH1 0x4 PUSH2 0x4F83 JUMP JUMPDEST PUSH2 0x987 JUMP JUMPDEST STOP JUMPDEST PUSH1 0x12 SLOAD PUSH2 0x332 SWAP1 PUSH1 0x1 PUSH1 0x1 PUSH1 0xA0 SHL SUB AND DUP2 JUMP JUMPDEST PUSH1 0x19 SLOAD PUSH2 0x332 SWAP1 PUSH1 0x1 PUSH1 0x1 PUSH1 0xA0 SHL SUB AND DUP2 JUMP JUMPDEST PUSH2 0x352 PUSH2 0x388 CALLDATASIZE PUSH1 0x4 PUSH2 0x4E05 JUMP JUMPDEST PUSH2 0xA98 JUMP JUMPDEST PUSH2 0x2E9 PUSH2 0x39B CALLDATASIZE PUSH1 0x4 PUSH2 0x5086 JUMP JUMPDEST PUSH2 0xAC9 JUMP JUMPDEST PUSH2 0x2E9 PUSH2 0x3AE CALLDATASIZE PUSH1 0x4 PUSH2 0x5086 JUMP JUMPDEST PUSH2 0xADE JUMP JUMPDEST PUSH2 0x352 PUSH2 0x3C1 CALLDATASIZE PUSH1 0x4 PUSH2 0x509E JUMP JUMPDEST PUSH2 0xAF0 JUMP JUMPDEST PUSH2 0x352 PUSH2 0x3D4 CALLDATASIZE PUSH1 0x4 PUSH2 0x509E JUMP JUMPDEST PUSH2 0xB0D JUMP JUMPDEST PUSH2 0x429 PUSH2 0x3E7 CALLDATASIZE PUSH1 0x4 PUSH2 0x5086 JUMP JUMPDEST PUSH1 0x16 PUSH1 0x20 MSTORE PUSH1 0x0 SWAP1 DUP2 MSTORE PUSH1 0x40 SWAP1 KECCAK256 DUP1 SLOAD PUSH1 0x1 DUP3 ADD SLOAD PUSH1 0x2 DUP4 ADD SLOAD PUSH1 0x3 DUP5 ADD SLOAD PUSH1 0x4 DUP6 ADD SLOAD PUSH1 0x5 DUP7 ADD SLOAD PUSH1 0x6 SWAP1 SWAP7 ADD SLOAD PUSH1 0xFF SWAP6 DUP7 AND SWAP7 SWAP5 SWAP6 SWAP4 SWAP5 SWAP3 SWAP4 SWAP2 SWAP3 SWAP2 AND DUP8 JUMP JUMPDEST PUSH1 0x40 MLOAD PUSH2 0x2C2 SWAP8 SWAP7 SWAP6 SWAP5 SWAP4 SWAP3 SWAP2 SWAP1 PUSH2 0x541F JUMP JUMPDEST PUSH2 0x352 PUSH2 0x44A CALLDATASIZE PUSH1 0x4 PUSH2 0x4FAE JUMP JUMPDEST PUSH2 0xB8B JUMP JUMPDEST PUSH2 0x352 PUSH2 0x45D CALLDATASIZE PUSH1 0x4 PUSH2 0x4E05 JUMP JUMPDEST PUSH2 0xBCF JUMP JUMPDEST PUSH2 0x352 PUSH2 0x470 CALLDATASIZE PUSH1 0x4 PUSH2 0x5086 JUMP JUMPDEST PUSH2 0xBEA JUMP JUMPDEST PUSH2 0x352 PUSH2 0x483 CALLDATASIZE PUSH1 0x4 PUSH2 0x4F06 JUMP JUMPDEST PUSH2 0xC2F JUMP JUMPDEST PUSH2 0x2B6 PUSH2 0x496 CALLDATASIZE PUSH1 0x4 PUSH2 0x5086 JUMP JUMPDEST PUSH2 0xD51 JUMP JUMPDEST PUSH2 0x352 PUSH2 0x4A9 CALLDATASIZE PUSH1 0x4 PUSH2 0x5086 JUMP JUMPDEST PUSH2 0xD5C JUMP JUMPDEST PUSH2 0x332 PUSH2 0x4BC CALLDATASIZE PUSH1 0x4 PUSH2 0x5086 JUMP JUMPDEST PUSH2 0xFE9 JUMP JUMPDEST PUSH2 0x4D4 PUSH2 0x4CF CALLDATASIZE PUSH1 0x4 PUSH2 0x521D JUMP JUMPDEST PUSH2 0x1060 JUMP JUMPDEST PUSH1 0x40 MLOAD PUSH2 0x2C2 SWAP4 SWAP3 SWAP2 SWAP1 PUSH2 0x5668 JUMP JUMPDEST PUSH2 0x50F PUSH2 0x4F1 CALLDATASIZE PUSH1 0x4 PUSH2 0x5086 JUMP JUMPDEST PUSH1 0x17 PUSH1 0x20 MSTORE PUSH1 0x0 SWAP1 DUP2 MSTORE PUSH1 0x40 SWAP1 KECCAK256 SLOAD PUSH1 0xFF DUP1 DUP3 AND SWAP2 PUSH2 0x100 SWAP1 DIV AND DUP3 JUMP JUMPDEST PUSH1 0x40 DUP1 MLOAD SWAP3 ISZERO ISZERO DUP4 MSTORE SWAP1 ISZERO ISZERO PUSH1 0x20 DUP4 ADD MSTORE ADD PUSH2 0x2C2 JUMP JUMPDEST PUSH2 0x539 PUSH2 0x534 CALLDATASIZE PUSH1 0x4 PUSH2 0x5112 JUMP JUMPDEST PUSH2 0x128A JUMP JUMPDEST PUSH1 0x40 MLOAD PUSH2 0x2C2 SWAP2 SWAP1 PUSH2 0x53DB JUMP JUMPDEST PUSH2 0x2E9 PUSH2 0x554 CALLDATASIZE PUSH1 0x4 PUSH2 0x4D95 JUMP JUMPDEST PUSH2 0x167C JUMP JUMPDEST PUSH2 0x352 PUSH2 0x1703 JUMP JUMPDEST PUSH2 0x2E9 PUSH1 0x15 SLOAD DUP2 JUMP JUMPDEST PUSH2 0x2E9 PUSH2 0x578 CALLDATASIZE PUSH1 0x4 PUSH2 0x5086 JUMP JUMPDEST PUSH1 0xF PUSH1 0x20 MSTORE PUSH1 0x0 SWAP1 DUP2 MSTORE PUSH1 0x40 SWAP1 KECCAK256 SLOAD DUP2 JUMP JUMPDEST PUSH1 0x1A SLOAD PUSH2 0x332 SWAP1 PUSH1 0x1 PUSH1 0x1 PUSH1 0xA0 SHL SUB AND DUP2 JUMP JUMPDEST PUSH2 0x2E9 PUSH2 0x5AB CALLDATASIZE PUSH1 0x4 PUSH2 0x5086 JUMP JUMPDEST PUSH1 0x18 PUSH1 0x20 MSTORE PUSH1 0x0 SWAP1 DUP2 MSTORE PUSH1 0x40 SWAP1 KECCAK256 SLOAD DUP2 JUMP JUMPDEST PUSH2 0x5F8 PUSH2 0x5CB CALLDATASIZE PUSH1 0x4 PUSH2 0x5086 JUMP JUMPDEST PUSH1 0x1B PUSH1 0x20 MSTORE PUSH1 0x0 SWAP1 DUP2 MSTORE PUSH1 0x40 SWAP1 KECCAK256 DUP1 SLOAD PUSH1 0x1 DUP3 ADD SLOAD PUSH1 0x2 SWAP1 SWAP3 ADD SLOAD SWAP1 SWAP2 SWAP1 PUSH1 0xFF DUP1 DUP3 AND SWAP2 PUSH2 0x100 SWAP1 DIV AND DUP5 JUMP JUMPDEST PUSH1 0x40 MLOAD PUSH2 0x2C2 SWAP5 SWAP4 SWAP3 SWAP2 SWAP1 PUSH2 0x55F3 JUMP JUMPDEST PUSH2 0x332 PUSH2 0x173E JUMP JUMPDEST PUSH2 0x2B6 PUSH2 0x61E CALLDATASIZE PUSH1 0x4 PUSH2 0x5086 JUMP JUMPDEST PUSH2 0x174D JUMP JUMPDEST PUSH2 0x2B6 PUSH2 0x631 CALLDATASIZE PUSH1 0x4 PUSH2 0x509E JUMP JUMPDEST PUSH2 0x19E2 JUMP JUMPDEST PUSH2 0x2FF PUSH2 0x1A0D JUMP JUMPDEST PUSH1 0x10 SLOAD PUSH2 0x332 SWAP1 PUSH1 0x1 PUSH1 0x1 PUSH1 0xA0 SHL SUB AND DUP2 JUMP JUMPDEST PUSH2 0x2E9 PUSH2 0x65F CALLDATASIZE PUSH1 0x4 PUSH2 0x515B JUMP JUMPDEST PUSH2 0x1A1C JUMP JUMPDEST PUSH2 0x2E9 PUSH1 0x0 DUP2 JUMP JUMPDEST PUSH2 0x352 PUSH2 0x67A CALLDATASIZE PUSH1 0x4 PUSH2 0x4F56 JUMP JUMPDEST PUSH2 0x2728 JUMP JUMPDEST PUSH2 0x2E9 PUSH1 0x5 DUP2 JUMP JUMPDEST PUSH2 0x2E9 PUSH2 0x695 CALLDATASIZE PUSH1 0x4 PUSH2 0x5086 JUMP JUMPDEST PUSH2 0x27E9 JUMP JUMPDEST PUSH2 0x2E9 PUSH2 0x6A8 CALLDATASIZE PUSH1 0x4 PUSH2 0x5086 JUMP JUMPDEST PUSH2 0x2800 JUMP JUMPDEST PUSH1 0x14 SLOAD PUSH2 0x332 SWAP1 PUSH1 0x1 PUSH1 0x1 PUSH1 0xA0 SHL SUB AND DUP2 JUMP JUMPDEST PUSH2 0x352 PUSH2 0x6CE CALLDATASIZE PUSH1 0x4 PUSH2 0x4E45 JUMP JUMPDEST PUSH2 0x2B07 JUMP JUMPDEST PUSH2 0x352 PUSH2 0x6E1 CALLDATASIZE PUSH1 0x4 PUSH2 0x5021 JUMP JUMPDEST PUSH2 0x2B3A JUMP JUMPDEST PUSH2 0x2E9 PUSH2 0x6F4 CALLDATASIZE PUSH1 0x4 PUSH2 0x5086 JUMP JUMPDEST PUSH2 0x2D49 JUMP JUMPDEST PUSH1 0x11 SLOAD PUSH2 0x332 SWAP1 PUSH1 0x1 PUSH1 0x1 PUSH1 0xA0 SHL SUB AND DUP2 JUMP JUMPDEST PUSH2 0x2FF PUSH2 0x71A CALLDATASIZE PUSH1 0x4 PUSH2 0x5086 JUMP JUMPDEST PUSH2 0x2D5B JUMP JUMPDEST PUSH2 0x2E9 PUSH2 0x72D CALLDATASIZE PUSH1 0x4 PUSH2 0x51AC JUMP JUMPDEST PUSH2 0x2D66 JUMP JUMPDEST PUSH2 0x352 PUSH2 0x740 CALLDATASIZE PUSH1 0x4 PUSH2 0x509E JUMP JUMPDEST PUSH2 0x2D85 JUMP JUMPDEST PUSH2 0x2E9 PUSH2 0x753 CALLDATASIZE PUSH1 0x4 PUSH2 0x5086 JUMP JUMPDEST PUSH1 0xA PUSH1 0x20 MSTORE PUSH1 0x0 SWAP1 DUP2 MSTORE PUSH1 0x40 SWAP1 KECCAK256 SLOAD DUP2 JUMP JUMPDEST PUSH2 0x2E9 PUSH32 0xDEB3B49547F710C56A925B6E16E3557A50FAB4DD8F243BC314F3AFBA2054EC5B DUP2 JUMP JUMPDEST PUSH2 0x352 PUSH2 0x79A CALLDATASIZE PUSH1 0x4 PUSH2 0x4FE2 JUMP JUMPDEST PUSH2 0x2DA2 JUMP JUMPDEST PUSH2 0x2E9 PUSH2 0x7AD CALLDATASIZE PUSH1 0x4 PUSH2 0x509E JUMP JUMPDEST PUSH1 0x0 DUP3 DUP2 MSTORE PUSH1 0xB PUSH1 0x20 SWAP1 DUP2 MSTORE PUSH1 0x40 DUP1 DUP4 KECCAK256 PUSH1 0x1 PUSH1 0x1 PUSH1 0xA0 SHL SUB DUP6 AND DUP5 MSTORE PUSH1 0x1 ADD SWAP1 SWAP2 MSTORE SWAP1 KECCAK256 SLOAD SWAP3 SWAP2 POP POP JUMP JUMPDEST PUSH2 0x2B6 PUSH2 0x7E7 CALLDATASIZE PUSH1 0x4 PUSH2 0x4DCD JUMP JUMPDEST PUSH2 0x2DEF JUMP JUMPDEST PUSH2 0x352 PUSH2 0x7FA CALLDATASIZE PUSH1 0x4 PUSH2 0x4D95 JUMP JUMPDEST PUSH2 0x2E1D JUMP JUMPDEST PUSH2 0x2E9 PUSH2 0x80D CALLDATASIZE PUSH1 0x4 PUSH2 0x4EC1 JUMP JUMPDEST PUSH2 0x2EBA JUMP JUMPDEST PUSH1 0x0 PUSH2 0x81D DUP3 PUSH2 0x2F91 JUMP JUMPDEST SWAP3 SWAP2 POP POP JUMP JUMPDEST PUSH1 0x60 PUSH1 0x0 DUP1 SLOAD PUSH2 0x832 SWAP1 PUSH2 0x5811 JUMP JUMPDEST DUP1 PUSH1 0x1F ADD PUSH1 0x20 DUP1 SWAP2 DIV MUL PUSH1 0x20 ADD PUSH1 0x40 MLOAD SWAP1 DUP2 ADD PUSH1 0x40 MSTORE DUP1 SWAP3 SWAP2 SWAP1 DUP2 DUP2 MSTORE PUSH1 0x20 ADD DUP3 DUP1 SLOAD PUSH2 0x85E SWAP1 PUSH2 0x5811 JUMP JUMPDEST DUP1 ISZERO PUSH2 0x8AB JUMPI DUP1 PUSH1 0x1F LT PUSH2 0x880 JUMPI PUSH2 0x100 DUP1 DUP4 SLOAD DIV MUL DUP4 MSTORE SWAP2 PUSH1 0x20 ADD SWAP2 PUSH2 0x8AB JUMP JUMPDEST DUP3 ADD SWAP2 SWAP1 PUSH1 0x0 MSTORE PUSH1 0x20 PUSH1 0x0 KECCAK256 SWAP1 JUMPDEST DUP2 SLOAD DUP2 MSTORE SWAP1 PUSH1 0x1 ADD SWAP1 PUSH1 0x20 ADD DUP1 DUP4 GT PUSH2 0x88E JUMPI DUP3 SWAP1 SUB PUSH1 0x1F AND DUP3 ADD SWAP2 JUMPDEST POP POP POP POP POP SWAP1 POP SWAP1 JUMP JUMPDEST PUSH1 0x0 DUP1 JUMPDEST PUSH2 0x8C2 DUP4 PUSH2 0x27E9 JUMP JUMPDEST DUP2 LT ISZERO PUSH2 0x8F4 JUMPI PUSH2 0x8D6 PUSH2 0x6F4 DUP5 DUP4 PUSH2 0x2D66 JUMP JUMPDEST PUSH2 0x8E0 SWAP1 DUP4 PUSH2 0x567E JUMP JUMPDEST SWAP2 POP DUP1 PUSH2 0x8EC DUP2 PUSH2 0x5846 JUMP JUMPDEST SWAP2 POP POP PUSH2 0x8B9 JUMP JUMPDEST POP SWAP2 SWAP1 POP JUMP JUMPDEST PUSH1 0x0 PUSH2 0x905 DUP3 PUSH2 0x2FB6 JUMP JUMPDEST PUSH2 0x96B JUMPI PUSH1 0x40 MLOAD PUSH3 0x461BCD PUSH1 0xE5 SHL DUP2 MSTORE PUSH1 0x20 PUSH1 0x4 DUP3 ADD MSTORE PUSH1 0x2C PUSH1 0x24 DUP3 ADD MSTORE PUSH32 0x4552433732313A20617070726F76656420717565727920666F72206E6F6E6578 PUSH1 0x44 DUP3 ADD MSTORE PUSH12 0x34B9BA32B73A103A37B5B2B7 PUSH1 0xA1 SHL PUSH1 0x64 DUP3 ADD MSTORE PUSH1 0x84 ADD JUMPDEST PUSH1 0x40 MLOAD DUP1 SWAP2 SUB SWAP1 REVERT JUMPDEST POP PUSH1 0x0 SWAP1 DUP2 MSTORE PUSH1 0x4 PUSH1 0x20 MSTORE PUSH1 0x40 SWAP1 KECCAK256 SLOAD PUSH1 0x1 PUSH1 0x1 PUSH1 0xA0 SHL SUB AND SWAP1 JUMP JUMPDEST PUSH1 0x0 PUSH2 0x992 DUP3 PUSH2 0xFE9 JUMP JUMPDEST SWAP1 POP DUP1 PUSH1 0x1 PUSH1 0x1 PUSH1 0xA0 SHL SUB AND DUP4 PUSH1 0x1 PUSH1 0x1 PUSH1 0xA0 SHL SUB AND EQ ISZERO PUSH2 0xA00 JUMPI PUSH1 0x40 MLOAD PUSH3 0x461BCD PUSH1 0xE5 SHL DUP2 MSTORE PUSH1 0x20 PUSH1 0x4 DUP3 ADD MSTORE PUSH1 0x21 PUSH1 0x24 DUP3 ADD MSTORE PUSH32 0x4552433732313A20617070726F76616C20746F2063757272656E74206F776E65 PUSH1 0x44 DUP3 ADD MSTORE PUSH1 0x39 PUSH1 0xF9 SHL PUSH1 0x64 DUP3 ADD MSTORE PUSH1 0x84 ADD PUSH2 0x962 JUMP JUMPDEST CALLER PUSH1 0x1 PUSH1 0x1 PUSH1 0xA0 SHL SUB DUP3 AND EQ DUP1 PUSH2 0xA1C JUMPI POP PUSH2 0xA1C DUP2 CALLER PUSH2 0x2DEF JUMP JUMPDEST PUSH2 0xA89 JUMPI PUSH1 0x40 MLOAD PUSH3 0x461BCD PUSH1 0xE5 SHL DUP2 MSTORE PUSH1 0x20 PUSH1 0x4 DUP3 ADD MSTORE PUSH1 0x38 PUSH1 0x24 DUP3 ADD MSTORE PUSH32 0x4552433732313A20617070726F76652063616C6C6572206973206E6F74206F77 PUSH1 0x44 DUP3 ADD MSTORE PUSH24 0x1B995C881B9BDC88185C1C1C9BDD995908199BDC88185B1B PUSH1 0x42 SHL PUSH1 0x64 DUP3 ADD MSTORE PUSH1 0x84 ADD PUSH2 0x962 JUMP JUMPDEST PUSH2 0xA93 DUP4 DUP4 PUSH2 0x2FD3 JUMP JUMPDEST POP POP POP JUMP JUMPDEST PUSH2 0xAA2 CALLER DUP3 PUSH2 0x3041 JUMP JUMPDEST PUSH2 0xABE JUMPI PUSH1 0x40 MLOAD PUSH3 0x461BCD PUSH1 0xE5 SHL DUP2 MSTORE PUSH1 0x4 ADD PUSH2 0x962 SWAP1 PUSH2 0x556A JUMP JUMPDEST PUSH2 0xA93 DUP4 DUP4 DUP4 PUSH2 0x310B JUMP JUMPDEST PUSH1 0x0 SWAP1 DUP2 MSTORE PUSH1 0x8 PUSH1 0x20 MSTORE PUSH1 0x40 SWAP1 KECCAK256 PUSH1 0x1 ADD SLOAD SWAP1 JUMP JUMPDEST PUSH1 0x0 SWAP1 DUP2 MSTORE PUSH1 0xA PUSH1 0x20 MSTORE PUSH1 0x40 SWAP1 KECCAK256 SLOAD SWAP1 JUMP JUMPDEST PUSH2 0xAF9 DUP3 PUSH2 0xAC9 JUMP JUMPDEST PUSH2 0xB03 DUP2 CALLER PUSH2 0x32A4 JUMP JUMPDEST PUSH2 0xA93 DUP4 DUP4 PUSH2 0x3308 JUMP JUMPDEST PUSH1 0x1 PUSH1 0x1 PUSH1 0xA0 SHL SUB DUP2 AND CALLER EQ PUSH2 0xB7D JUMPI PUSH1 0x40 MLOAD PUSH3 0x461BCD PUSH1 0xE5 SHL DUP2 MSTORE PUSH1 0x20 PUSH1 0x4 DUP3 ADD MSTORE PUSH1 0x2F PUSH1 0x24 DUP3 ADD MSTORE PUSH32 0x416363657373436F6E74726F6C3A2063616E206F6E6C792072656E6F756E6365 PUSH1 0x44 DUP3 ADD MSTORE PUSH15 0x103937B632B9903337B91039B2B633 PUSH1 0x89 SHL PUSH1 0x64 DUP3 ADD MSTORE PUSH1 0x84 ADD PUSH2 0x962 JUMP JUMPDEST PUSH2 0xB87 DUP3 DUP3 PUSH2 0x338E JUMP JUMPDEST POP POP JUMP JUMPDEST PUSH2 0xB94 DUP3 PUSH2 0xFE9 JUMP JUMPDEST PUSH1 0x1 PUSH1 0x1 PUSH1 0xA0 SHL SUB AND CALLER PUSH1 0x1 PUSH1 0x1 PUSH1 0xA0 SHL SUB AND EQ PUSH2 0xBC4 JUMPI PUSH1 0x40 MLOAD PUSH3 0x461BCD PUSH1 0xE5 SHL DUP2 MSTORE PUSH1 0x4 ADD PUSH2 0x962 SWAP1 PUSH2 0x548E JUMP JUMPDEST PUSH2 0xA93 DUP4 DUP4 DUP4 PUSH2 0x33F5 JUMP JUMPDEST PUSH2 0xA93 DUP4 DUP4 DUP4 PUSH1 0x40 MLOAD DUP1 PUSH1 0x20 ADD PUSH1 0x40 MSTORE DUP1 PUSH1 0x0 DUP2 MSTORE POP PUSH2 0x2B07 JUMP JUMPDEST PUSH2 0xBF3 DUP2 PUSH2 0xFE9 JUMP JUMPDEST PUSH1 0x1 PUSH1 0x1 PUSH1 0xA0 SHL SUB AND CALLER PUSH1 0x1 PUSH1 0x1 PUSH1 0xA0 SHL SUB AND EQ PUSH2 0xC23 JUMPI PUSH1 0x40 MLOAD PUSH3 0x461BCD PUSH1 0xE5 SHL DUP2 MSTORE PUSH1 0x4 ADD PUSH2 0x962 SWAP1 PUSH2 0x548E JUMP JUMPDEST PUSH2 0xC2C DUP2 PUSH2 0x34BA JUMP JUMPDEST POP JUMP JUMPDEST PUSH2 0xC38 DUP3 PUSH2 0xD51 JUMP JUMPDEST PUSH2 0xC6A JUMPI PUSH1 0x40 MLOAD PUSH3 0x461BCD PUSH1 0xE5 SHL DUP2 MSTORE PUSH1 0x20 PUSH1 0x4 DUP3 ADD MSTORE PUSH1 0x3 PUSH1 0x24 DUP3 ADD MSTORE PUSH3 0x271899 PUSH1 0xE9 SHL PUSH1 0x44 DUP3 ADD MSTORE PUSH1 0x64 ADD PUSH2 0x962 JUMP JUMPDEST PUSH1 0x0 DUP1 PUSH1 0x0 PUSH2 0xC79 DUP7 DUP6 PUSH2 0x34D2 JUMP JUMPDEST POP SWAP3 POP SWAP3 POP SWAP3 POP PUSH1 0x0 PUSH2 0xC8B DUP7 PUSH2 0x35FF JUMP JUMPDEST SWAP1 POP PUSH2 0xCC7 DUP7 DUP3 DUP5 DUP5 PUSH1 0x60 ADD MLOAD PUSH2 0xCA2 SWAP2 SWAP1 PUSH2 0x567E JUMP JUMPDEST DUP8 DUP6 PUSH1 0x40 ADD MLOAD PUSH2 0xCB2 SWAP2 SWAP1 PUSH2 0x567E JUMP JUMPDEST DUP8 DUP7 PUSH1 0x80 ADD MLOAD PUSH2 0xCC2 SWAP2 SWAP1 PUSH2 0x567E JUMP JUMPDEST PUSH2 0x36EE JUMP JUMPDEST PUSH1 0x19 SLOAD PUSH1 0x60 DUP3 ADD MLOAD PUSH1 0x80 DUP4 ADD MLOAD PUSH1 0x40 MLOAD PUSH4 0x57A5C967 PUSH1 0xE0 SHL DUP2 MSTORE SWAP4 SWAP5 POP PUSH1 0x1 PUSH1 0x1 PUSH1 0xA0 SHL SUB SWAP1 SWAP3 AND SWAP3 PUSH4 0x57A5C967 SWAP3 PUSH2 0xD07 SWAP3 DUP12 SWAP3 SWAP1 SWAP2 SWAP1 PUSH1 0x4 ADD PUSH2 0x5668 JUMP JUMPDEST PUSH1 0x0 PUSH1 0x40 MLOAD DUP1 DUP4 SUB DUP2 PUSH1 0x0 DUP8 DUP1 EXTCODESIZE ISZERO DUP1 ISZERO PUSH2 0xD21 JUMPI PUSH1 0x0 DUP1 REVERT JUMPDEST POP GAS CALL ISZERO DUP1 ISZERO PUSH2 0xD35 JUMPI RETURNDATASIZE PUSH1 0x0 DUP1 RETURNDATACOPY RETURNDATASIZE PUSH1 0x0 REVERT JUMPDEST POP POP POP POP PUSH2 0xD46 DUP10 DUP10 DUP10 DUP10 DUP10 PUSH2 0x3720 JUMP JUMPDEST POP POP POP POP POP POP POP POP POP JUMP JUMPDEST PUSH1 0x0 PUSH2 0x81D DUP3 PUSH2 0x2FB6 JUMP JUMPDEST PUSH1 0x0 DUP2 DUP2 MSTORE PUSH1 0x16 PUSH1 0x20 MSTORE PUSH1 0x40 SWAP1 KECCAK256 PUSH1 0x5 DUP2 ADD SLOAD TIMESTAMP LT ISZERO PUSH2 0xD8E JUMPI PUSH1 0x40 MLOAD PUSH3 0x461BCD PUSH1 0xE5 SHL DUP2 MSTORE PUSH1 0x4 ADD PUSH2 0x962 SWAP1 PUSH2 0x55D7 JUMP JUMPDEST PUSH1 0x1 DUP2 SLOAD PUSH1 0xFF AND PUSH1 0x3 DUP2 GT ISZERO PUSH2 0xDB4 JUMPI PUSH4 0x4E487B71 PUSH1 0xE0 SHL PUSH1 0x0 MSTORE PUSH1 0x21 PUSH1 0x4 MSTORE PUSH1 0x24 PUSH1 0x0 REVERT JUMPDEST EQ PUSH2 0xDE6 JUMPI PUSH1 0x40 MLOAD PUSH3 0x461BCD PUSH1 0xE5 SHL DUP2 MSTORE PUSH1 0x20 PUSH1 0x4 DUP3 ADD MSTORE PUSH1 0x2 PUSH1 0x24 DUP3 ADD MSTORE PUSH2 0x4F35 PUSH1 0xF0 SHL PUSH1 0x44 DUP3 ADD MSTORE PUSH1 0x64 ADD PUSH2 0x962 JUMP JUMPDEST PUSH1 0x5 DUP2 ADD SLOAD PUSH1 0x0 SWAP1 DUP2 MSTORE PUSH1 0x18 PUSH1 0x20 MSTORE PUSH1 0x40 SWAP1 KECCAK256 SLOAD DUP1 PUSH2 0xE17 JUMPI PUSH1 0x40 MLOAD PUSH3 0x461BCD PUSH1 0xE5 SHL DUP2 MSTORE PUSH1 0x4 ADD PUSH2 0x962 SWAP1 PUSH2 0x54FC JUMP JUMPDEST PUSH1 0x11 SLOAD PUSH1 0x12 SLOAD PUSH1 0x40 MLOAD PUSH4 0x12ADD1FD PUSH1 0xE2 SHL DUP2 MSTORE PUSH1 0x0 SWAP3 PUSH1 0x1 PUSH1 0x1 PUSH1 0xA0 SHL SUB SWAP1 DUP2 AND SWAP3 PUSH4 0x4AB747F4 SWAP3 PUSH2 0xE51 SWAP3 SWAP1 SWAP2 AND SWAP1 DUP7 SWAP1 PUSH1 0x4 ADD PUSH2 0x53C2 JUMP JUMPDEST PUSH1 0x40 DUP1 MLOAD DUP1 DUP4 SUB DUP2 DUP7 DUP1 EXTCODESIZE ISZERO DUP1 ISZERO PUSH2 0xE68 JUMPI PUSH1 0x0 DUP1 REVERT JUMPDEST POP GAS STATICCALL ISZERO DUP1 ISZERO PUSH2 0xE7C JUMPI RETURNDATASIZE PUSH1 0x0 DUP1 RETURNDATACOPY RETURNDATASIZE PUSH1 0x0 REVERT JUMPDEST POP POP POP POP PUSH1 0x40 MLOAD RETURNDATASIZE PUSH1 0x1F NOT PUSH1 0x1F DUP3 ADD AND DUP3 ADD DUP1 PUSH1 0x40 MSTORE POP DUP2 ADD SWAP1 PUSH2 0xEA0 SWAP2 SWAP1 PUSH2 0x51CD JUMP JUMPDEST SWAP2 POP PUSH1 0x2 SWAP1 POP PUSH1 0x6 DUP5 ADD SLOAD PUSH1 0xFF AND PUSH1 0x2 DUP2 GT ISZERO PUSH2 0xECD JUMPI PUSH4 0x4E487B71 PUSH1 0xE0 SHL PUSH1 0x0 MSTORE PUSH1 0x21 PUSH1 0x4 MSTORE PUSH1 0x24 PUSH1 0x0 REVERT JUMPDEST EQ DUP1 ISZERO PUSH2 0xEDE JUMPI POP DUP3 PUSH1 0x1 ADD SLOAD DUP2 LT ISZERO JUMPDEST DUP1 PUSH2 0xF1E JUMPI POP PUSH1 0x1 PUSH1 0x6 DUP5 ADD SLOAD PUSH1 0xFF AND PUSH1 0x2 DUP2 GT ISZERO PUSH2 0xF0D JUMPI PUSH4 0x4E487B71 PUSH1 0xE0 SHL PUSH1 0x0 MSTORE PUSH1 0x21 PUSH1 0x4 MSTORE PUSH1 0x24 PUSH1 0x0 REVERT JUMPDEST EQ DUP1 ISZERO PUSH2 0xF1E JUMPI POP DUP3 PUSH1 0x1 ADD SLOAD DUP2 GT ISZERO JUMPDEST ISZERO PUSH2 0xF32 JUMPI PUSH2 0xF2C DUP5 PUSH2 0x2800 JUMP JUMPDEST POP PUSH2 0xFE3 JUMP JUMPDEST DUP3 SLOAD PUSH1 0xFF NOT AND PUSH1 0x3 OR DUP4 SSTORE PUSH1 0x19 SLOAD PUSH1 0x40 MLOAD PUSH4 0x6198E339 PUSH1 0xE0 SHL DUP2 MSTORE PUSH1 0x4 DUP2 ADD DUP7 SWAP1 MSTORE PUSH1 0x1 PUSH1 0x1 PUSH1 0xA0 SHL SUB SWAP1 SWAP2 AND SWAP1 PUSH4 0x6198E339 SWAP1 PUSH1 0x24 ADD PUSH1 0x0 PUSH1 0x40 MLOAD DUP1 DUP4 SUB DUP2 PUSH1 0x0 DUP8 DUP1 EXTCODESIZE ISZERO DUP1 ISZERO PUSH2 0xF83 JUMPI PUSH1 0x0 DUP1 REVERT JUMPDEST POP GAS CALL ISZERO DUP1 ISZERO PUSH2 0xF97 JUMPI RETURNDATASIZE PUSH1 0x0 DUP1 RETURNDATACOPY RETURNDATASIZE PUSH1 0x0 REVERT JUMPDEST POP POP POP POP PUSH2 0xFA4 DUP5 PUSH2 0x34BA JUMP JUMPDEST DUP4 PUSH32 0x5F36A4A575E512EB69D6D28C3B0FF98CCA7BA50AD5BF04E14094AD1D425E0D31 DUP5 PUSH1 0x4 ADD SLOAD PUSH1 0x40 MLOAD PUSH2 0xFDA SWAP2 DUP2 MSTORE PUSH1 0x20 ADD SWAP1 JUMP JUMPDEST PUSH1 0x40 MLOAD DUP1 SWAP2 SUB SWAP1 LOG2 JUMPDEST POP POP POP POP JUMP JUMPDEST PUSH1 0x0 DUP2 DUP2 MSTORE PUSH1 0x2 PUSH1 0x20 MSTORE PUSH1 0x40 DUP2 KECCAK256 SLOAD PUSH1 0x1 PUSH1 0x1 PUSH1 0xA0 SHL SUB AND DUP1 PUSH2 0x81D JUMPI PUSH1 0x40 MLOAD PUSH3 0x461BCD PUSH1 0xE5 SHL DUP2 MSTORE PUSH1 0x20 PUSH1 0x4 DUP3 ADD MSTORE PUSH1 0x29 PUSH1 0x24 DUP3 ADD MSTORE PUSH32 0x4552433732313A206F776E657220717565727920666F72206E6F6E6578697374 PUSH1 0x44 DUP3 ADD MSTORE PUSH9 0x32B73A103A37B5B2B7 PUSH1 0xB9 SHL PUSH1 0x64 DUP3 ADD MSTORE PUSH1 0x84 ADD PUSH2 0x962 JUMP JUMPDEST PUSH1 0x0 DUP1 PUSH1 0x0 DUP1 PUSH1 0x14 PUSH1 0x0 SWAP1 SLOAD SWAP1 PUSH2 0x100 EXP SWAP1 DIV PUSH1 0x1 PUSH1 0x1 PUSH1 0xA0 SHL SUB AND PUSH1 0x1 PUSH1 0x1 PUSH1 0xA0 SHL SUB AND PUSH4 0x1ACF5582 PUSH1 0x40 MLOAD DUP2 PUSH4 0xFFFFFFFF AND PUSH1 0xE0 SHL DUP2 MSTORE PUSH1 0x4 ADD PUSH1 0x20 PUSH1 0x40 MLOAD DUP1 DUP4 SUB DUP2 DUP7 DUP1 EXTCODESIZE ISZERO DUP1 ISZERO PUSH2 0x10B4 JUMPI PUSH1 0x0 DUP1 REVERT JUMPDEST POP GAS STATICCALL ISZERO DUP1 ISZERO PUSH2 0x10C8 JUMPI RETURNDATASIZE PUSH1 0x0 DUP1 RETURNDATACOPY RETURNDATASIZE PUSH1 0x0 REVERT JUMPDEST POP POP POP POP PUSH1 0x40 MLOAD RETURNDATASIZE PUSH1 0x1F NOT PUSH1 0x1F DUP3 ADD AND DUP3 ADD DUP1 PUSH1 0x40 MSTORE POP DUP2 ADD SWAP1 PUSH2 0x10EC SWAP2 SWAP1 PUSH2 0x50FA JUMP JUMPDEST PUSH1 0x11 SLOAD PUSH1 0x12 SLOAD PUSH1 0x40 MLOAD PUSH4 0x141AC1E3 PUSH1 0xE1 SHL DUP2 MSTORE SWAP3 SWAP4 POP PUSH1 0x0 SWAP3 PUSH1 0x1 PUSH1 0x1 PUSH1 0xA0 SHL SUB SWAP3 DUP4 AND SWAP3 PUSH4 0x283583C6 SWAP3 PUSH2 0x1126 SWAP3 SWAP2 AND SWAP1 PUSH1 0x4 ADD PUSH2 0x5371 JUMP JUMPDEST PUSH1 0x20 PUSH1 0x40 MLOAD DUP1 DUP4 SUB DUP2 DUP7 DUP1 EXTCODESIZE ISZERO DUP1 ISZERO PUSH2 0x113E JUMPI PUSH1 0x0 DUP1 REVERT JUMPDEST POP GAS STATICCALL ISZERO DUP1 ISZERO PUSH2 0x1152 JUMPI RETURNDATASIZE PUSH1 0x0 DUP1 RETURNDATACOPY RETURNDATASIZE PUSH1 0x0 REVERT JUMPDEST POP POP POP POP PUSH1 0x40 MLOAD RETURNDATASIZE PUSH1 0x1F NOT PUSH1 0x1F DUP3 ADD AND DUP3 ADD DUP1 PUSH1 0x40 MSTORE POP DUP2 ADD SWAP1 PUSH2 0x1176 SWAP2 SWAP1 PUSH2 0x50FA JUMP JUMPDEST PUSH1 0x40 DUP1 MLOAD PUSH1 0xA0 DUP2 ADD DUP3 MSTORE DUP13 DUP2 MSTORE PUSH1 0x20 DUP2 ADD DUP13 DUP2 MSTORE DUP2 DUP4 ADD DUP13 DUP2 MSTORE DUP12 ISZERO ISZERO PUSH1 0x60 DUP5 ADD SWAP1 DUP2 MSTORE DUP12 ISZERO ISZERO PUSH1 0x80 DUP6 ADD SWAP1 DUP2 MSTORE PUSH1 0x1A SLOAD PUSH1 0x19 SLOAD SWAP7 MLOAD PUSH4 0x6DFD2EEB PUSH1 0xE1 SHL DUP2 MSTORE DUP7 MLOAD PUSH1 0x4 DUP3 ADD MSTORE SWAP5 MLOAD PUSH1 0x24 DUP7 ADD MSTORE SWAP3 MLOAD PUSH1 0x44 DUP6 ADD MSTORE SWAP1 MLOAD ISZERO ISZERO PUSH1 0x64 DUP5 ADD MSTORE MLOAD ISZERO ISZERO PUSH1 0x84 DUP4 ADD MSTORE PUSH1 0xA4 DUP3 ADD DUP8 SWAP1 MSTORE PUSH1 0xC4 DUP3 ADD DUP6 SWAP1 MSTORE PUSH1 0x1 PUSH1 0x1 PUSH1 0xA0 SHL SUB SWAP1 DUP2 AND PUSH1 0xE4 DUP4 ADD MSTORE SWAP1 SWAP3 AND PUSH2 0x104 DUP4 ADD MSTORE SWAP2 SWAP3 POP PUSH20 0x0 SWAP1 PUSH4 0xDBFA5DD6 SWAP1 PUSH2 0x124 ADD PUSH1 0x60 PUSH1 0x40 MLOAD DUP1 DUP4 SUB DUP2 DUP7 DUP1 EXTCODESIZE ISZERO DUP1 ISZERO PUSH2 0x123E JUMPI PUSH1 0x0 DUP1 REVERT JUMPDEST POP GAS DELEGATECALL ISZERO DUP1 ISZERO PUSH2 0x1252 JUMPI RETURNDATASIZE PUSH1 0x0 DUP1 RETURNDATACOPY RETURNDATASIZE PUSH1 0x0 REVERT JUMPDEST POP POP POP POP PUSH1 0x40 MLOAD RETURNDATASIZE PUSH1 0x1F NOT PUSH1 0x1F DUP3 ADD AND DUP3 ADD DUP1 PUSH1 0x40 MSTORE POP DUP2 ADD SWAP1 PUSH2 0x1276 SWAP2 SWAP1 PUSH2 0x51F0 JUMP JUMPDEST SWAP2 SWAP14 SWAP1 SWAP13 POP SWAP1 SWAP11 POP SWAP9 POP POP POP POP POP POP POP POP POP JUMP JUMPDEST PUSH1 0x60 DUP2 PUSH2 0x12BE JUMPI PUSH1 0x40 MLOAD PUSH3 0x461BCD PUSH1 0xE5 SHL DUP2 MSTORE PUSH1 0x20 PUSH1 0x4 DUP3 ADD MSTORE PUSH1 0x2 PUSH1 0x24 DUP3 ADD MSTORE PUSH2 0x4E31 PUSH1 0xF0 SHL PUSH1 0x44 DUP3 ADD MSTORE PUSH1 0x64 ADD PUSH2 0x962 JUMP JUMPDEST DUP2 PUSH1 0x1 PUSH1 0x1 PUSH1 0x40 SHL SUB DUP2 GT ISZERO PUSH2 0x12E4 JUMPI PUSH4 0x4E487B71 PUSH1 0xE0 SHL PUSH1 0x0 MSTORE PUSH1 0x41 PUSH1 0x4 MSTORE PUSH1 0x24 PUSH1 0x0 REVERT JUMPDEST PUSH1 0x40 MLOAD SWAP1 DUP1 DUP3 MSTORE DUP1 PUSH1 0x20 MUL PUSH1 0x20 ADD DUP3 ADD PUSH1 0x40 MSTORE DUP1 ISZERO PUSH2 0x130D JUMPI DUP2 PUSH1 0x20 ADD PUSH1 0x20 DUP3 MUL DUP1 CALLDATASIZE DUP4 CALLDATACOPY ADD SWAP1 POP JUMPDEST POP SWAP1 POP PUSH1 0x0 PUSH2 0x131B DUP6 PUSH2 0x35FF JUMP JUMPDEST SWAP1 POP PUSH1 0x0 PUSH2 0x1328 DUP7 PUSH2 0x2D49 JUMP JUMPDEST SWAP1 POP PUSH1 0x0 DUP1 DUP1 DUP1 JUMPDEST DUP8 DUP2 LT ISZERO PUSH2 0x153B JUMPI PUSH1 0x0 PUSH2 0x1342 PUSH2 0x3966 JUMP JUMPDEST SWAP1 POP DUP1 DUP9 DUP4 DUP2 MLOAD DUP2 LT PUSH2 0x1365 JUMPI PUSH4 0x4E487B71 PUSH1 0xE0 SHL PUSH1 0x0 MSTORE PUSH1 0x32 PUSH1 0x4 MSTORE PUSH1 0x24 PUSH1 0x0 REVERT JUMPDEST PUSH1 0x20 MUL PUSH1 0x20 ADD ADD DUP2 DUP2 MSTORE POP POP PUSH2 0x13A2 DUP12 DUP3 DUP13 DUP13 DUP7 DUP2 DUP2 LT PUSH2 0x1396 JUMPI PUSH4 0x4E487B71 PUSH1 0xE0 SHL PUSH1 0x0 MSTORE PUSH1 0x32 PUSH1 0x4 MSTORE PUSH1 0x24 PUSH1 0x0 REVERT JUMPDEST SWAP1 POP PUSH1 0x20 MUL ADD CALLDATALOAD PUSH2 0x3980 JUMP JUMPDEST PUSH1 0x0 DUP7 DUP12 DUP12 DUP6 DUP2 DUP2 LT PUSH2 0x13C5 JUMPI PUSH4 0x4E487B71 PUSH1 0xE0 SHL PUSH1 0x0 MSTORE PUSH1 0x32 PUSH1 0x4 MSTORE PUSH1 0x24 PUSH1 0x0 REVERT JUMPDEST SWAP1 POP PUSH1 0x20 MUL ADD CALLDATALOAD DUP10 PUSH1 0x40 ADD MLOAD PUSH2 0x13DB SWAP2 SWAP1 PUSH2 0x5798 JUMP JUMPDEST PUSH2 0x13E5 SWAP2 SWAP1 PUSH2 0x5696 JUMP JUMPDEST SWAP1 POP PUSH2 0x13F1 DUP2 DUP8 PUSH2 0x567E JUMP JUMPDEST SWAP6 POP PUSH1 0x0 DUP8 DUP13 DUP13 DUP7 DUP2 DUP2 LT PUSH2 0x1416 JUMPI PUSH4 0x4E487B71 PUSH1 0xE0 SHL PUSH1 0x0 MSTORE PUSH1 0x32 PUSH1 0x4 MSTORE PUSH1 0x24 PUSH1 0x0 REVERT JUMPDEST SWAP1 POP PUSH1 0x20 MUL ADD CALLDATALOAD DUP11 PUSH1 0x60 ADD MLOAD PUSH2 0x142C SWAP2 SWAP1 PUSH2 0x5798 JUMP JUMPDEST PUSH2 0x1436 SWAP2 SWAP1 PUSH2 0x5696 JUMP JUMPDEST SWAP1 POP PUSH2 0x1442 DUP2 DUP8 PUSH2 0x567E JUMP JUMPDEST SWAP6 POP PUSH1 0x0 DUP9 DUP14 DUP14 DUP8 DUP2 DUP2 LT PUSH2 0x1467 JUMPI PUSH4 0x4E487B71 PUSH1 0xE0 SHL PUSH1 0x0 MSTORE PUSH1 0x32 PUSH1 0x4 MSTORE PUSH1 0x24 PUSH1 0x0 REVERT JUMPDEST SWAP1 POP PUSH1 0x20 MUL ADD CALLDATALOAD DUP12 PUSH1 0x80 ADD MLOAD PUSH2 0x147D SWAP2 SWAP1 PUSH2 0x5798 JUMP JUMPDEST PUSH2 0x1487 SWAP2 SWAP1 PUSH2 0x5696 JUMP JUMPDEST SWAP1 POP PUSH2 0x1493 DUP2 DUP8 PUSH2 0x567E JUMP JUMPDEST SWAP6 POP PUSH1 0x0 PUSH1 0x40 MLOAD DUP1 PUSH1 0xE0 ADD PUSH1 0x40 MSTORE DUP1 DUP13 PUSH1 0x0 ADD MLOAD PUSH1 0x3 DUP2 GT ISZERO PUSH2 0x14C6 JUMPI PUSH4 0x4E487B71 PUSH1 0xE0 SHL PUSH1 0x0 MSTORE PUSH1 0x21 PUSH1 0x4 MSTORE PUSH1 0x24 PUSH1 0x0 REVERT JUMPDEST DUP2 MSTORE PUSH1 0x20 ADD DUP13 PUSH1 0x20 ADD MLOAD DUP2 MSTORE PUSH1 0x20 ADD DUP6 DUP2 MSTORE PUSH1 0x20 ADD DUP5 DUP2 MSTORE PUSH1 0x20 ADD DUP4 DUP2 MSTORE PUSH1 0x20 ADD DUP13 PUSH1 0xA0 ADD MLOAD DUP2 MSTORE PUSH1 0x20 ADD DUP13 PUSH1 0xC0 ADD MLOAD PUSH1 0x2 DUP2 GT ISZERO PUSH2 0x1515 JUMPI PUSH4 0x4E487B71 PUSH1 0xE0 SHL PUSH1 0x0 MSTORE PUSH1 0x21 PUSH1 0x4 MSTORE PUSH1 0x24 PUSH1 0x0 REVERT JUMPDEST SWAP1 MSTORE SWAP1 POP PUSH2 0x1523 DUP6 DUP3 PUSH2 0x3AAA JUMP JUMPDEST POP POP POP POP POP DUP1 DUP1 PUSH2 0x1533 SWAP1 PUSH2 0x5846 JUMP JUMPDEST SWAP2 POP POP PUSH2 0x1330 JUMP JUMPDEST POP PUSH2 0x1571 DUP10 DUP7 DUP5 DUP9 PUSH1 0x60 ADD MLOAD PUSH2 0x1551 SWAP2 SWAP1 PUSH2 0x57B7 JUMP JUMPDEST DUP7 DUP10 PUSH1 0x40 ADD MLOAD PUSH2 0x1561 SWAP2 SWAP1 PUSH2 0x57B7 JUMP JUMPDEST DUP6 DUP11 PUSH1 0x80 ADD MLOAD PUSH2 0xCC2 SWAP2 SWAP1 PUSH2 0x57B7 JUMP JUMPDEST PUSH1 0x19 SLOAD PUSH1 0x60 DUP3 ADD MLOAD PUSH1 0x80 DUP4 ADD MLOAD PUSH1 0x40 MLOAD PUSH4 0x57A5C967 PUSH1 0xE0 SHL DUP2 MSTORE SWAP4 SWAP9 POP PUSH1 0x1 PUSH1 0x1 PUSH1 0xA0 SHL SUB SWAP1 SWAP3 AND SWAP3 PUSH4 0x57A5C967 SWAP3 PUSH2 0x15B1 SWAP3 DUP15 SWAP3 SWAP1 SWAP2 SWAP1 PUSH1 0x4 ADD PUSH2 0x5668 JUMP JUMPDEST PUSH1 0x0 PUSH1 0x40 MLOAD DUP1 DUP4 SUB DUP2 PUSH1 0x0 DUP8 DUP1 EXTCODESIZE ISZERO DUP1 ISZERO PUSH2 0x15CB JUMPI PUSH1 0x0 DUP1 REVERT JUMPDEST POP GAS CALL ISZERO DUP1 ISZERO PUSH2 0x15DF JUMPI RETURNDATASIZE PUSH1 0x0 DUP1 RETURNDATACOPY RETURNDATASIZE PUSH1 0x0 REVERT JUMPDEST POP POP POP POP PUSH1 0x0 JUMPDEST DUP8 DUP2 LT ISZERO PUSH2 0x166F JUMPI PUSH1 0x0 PUSH2 0x1620 DUP9 DUP4 DUP2 MLOAD DUP2 LT PUSH2 0x1613 JUMPI PUSH4 0x4E487B71 PUSH1 0xE0 SHL PUSH1 0x0 MSTORE PUSH1 0x32 PUSH1 0x4 MSTORE PUSH1 0x24 PUSH1 0x0 REVERT JUMPDEST PUSH1 0x20 MUL PUSH1 0x20 ADD ADD MLOAD PUSH2 0x35FF JUMP JUMPDEST SWAP1 POP PUSH2 0x165C DUP9 DUP4 DUP2 MLOAD DUP2 LT PUSH2 0x1645 JUMPI PUSH4 0x4E487B71 PUSH1 0xE0 SHL PUSH1 0x0 MSTORE PUSH1 0x32 PUSH1 0x4 MSTORE PUSH1 0x24 PUSH1 0x0 REVERT JUMPDEST PUSH1 0x20 MUL PUSH1 0x20 ADD ADD MLOAD DUP3 PUSH1 0x60 ADD MLOAD DUP4 PUSH1 0x80 ADD MLOAD PUSH2 0x3B62 JUMP JUMPDEST POP DUP1 PUSH2 0x1667 DUP2 PUSH2 0x5846 JUMP JUMPDEST SWAP2 POP POP PUSH2 0x15E6 JUMP JUMPDEST POP POP POP POP POP POP SWAP4 SWAP3 POP POP POP JUMP JUMPDEST PUSH1 0x0 PUSH1 0x1 PUSH1 0x1 PUSH1 0xA0 SHL SUB DUP3 AND PUSH2 0x16E7 JUMPI PUSH1 0x40 MLOAD PUSH3 0x461BCD PUSH1 0xE5 SHL DUP2 MSTORE PUSH1 0x20 PUSH1 0x4 DUP3 ADD MSTORE PUSH1 0x2A PUSH1 0x24 DUP3 ADD MSTORE PUSH32 0x4552433732313A2062616C616E636520717565727920666F7220746865207A65 PUSH1 0x44 DUP3 ADD MSTORE PUSH10 0x726F2061646472657373 PUSH1 0xB0 SHL PUSH1 0x64 DUP3 ADD MSTORE PUSH1 0x84 ADD PUSH2 0x962 JUMP JUMPDEST POP PUSH1 0x1 PUSH1 0x1 PUSH1 0xA0 SHL SUB AND PUSH1 0x0 SWAP1 DUP2 MSTORE PUSH1 0x3 PUSH1 0x20 MSTORE PUSH1 0x40 SWAP1 KECCAK256 SLOAD SWAP1 JUMP JUMPDEST CALLER PUSH2 0x170C PUSH2 0x173E JUMP JUMPDEST PUSH1 0x1 PUSH1 0x1 PUSH1 0xA0 SHL SUB AND EQ PUSH2 0x1732 JUMPI PUSH1 0x40 MLOAD PUSH3 0x461BCD PUSH1 0xE5 SHL DUP2 MSTORE PUSH1 0x4 ADD PUSH2 0x962 SWAP1 PUSH2 0x5535 JUMP JUMPDEST PUSH2 0x173C PUSH1 0x0 PUSH2 0x3BCD JUMP JUMPDEST JUMP JUMPDEST PUSH1 0x6 SLOAD PUSH1 0x1 PUSH1 0x1 PUSH1 0xA0 SHL SUB AND SWAP1 JUMP JUMPDEST PUSH1 0x11 SLOAD PUSH1 0x12 SLOAD PUSH1 0x40 MLOAD PUSH4 0x12ADD1FD PUSH1 0xE2 SHL DUP2 MSTORE PUSH1 0x0 SWAP3 DUP4 SWAP3 DUP4 SWAP3 PUSH1 0x1 PUSH1 0x1 PUSH1 0xA0 SHL SUB SWAP3 DUP4 AND SWAP3 PUSH4 0x4AB747F4 SWAP3 PUSH2 0x178A SWAP3 SWAP2 AND SWAP1 DUP9 SWAP1 PUSH1 0x4 ADD PUSH2 0x53C2 JUMP JUMPDEST PUSH1 0x40 DUP1 MLOAD DUP1 DUP4 SUB DUP2 DUP7 DUP1 EXTCODESIZE ISZERO DUP1 ISZERO PUSH2 0x17A1 JUMPI PUSH1 0x0 DUP1 REVERT JUMPDEST POP GAS STATICCALL ISZERO DUP1 ISZERO PUSH2 0x17B5 JUMPI RETURNDATASIZE PUSH1 0x0 DUP1 RETURNDATACOPY RETURNDATASIZE PUSH1 0x0 REVERT JUMPDEST POP POP POP POP PUSH1 0x40 MLOAD RETURNDATASIZE PUSH1 0x1F NOT PUSH1 0x1F DUP3 ADD AND DUP3 ADD DUP1 PUSH1 0x40 MSTORE POP DUP2 ADD SWAP1 PUSH2 0x17D9 SWAP2 SWAP1 PUSH2 0x51CD JUMP JUMPDEST SWAP2 POP SWAP2 POP PUSH1 0x0 PUSH1 0x19 PUSH1 0x0 SWAP1 SLOAD SWAP1 PUSH2 0x100 EXP SWAP1 DIV PUSH1 0x1 PUSH1 0x1 PUSH1 0xA0 SHL SUB AND PUSH1 0x1 PUSH1 0x1 PUSH1 0xA0 SHL SUB AND PUSH4 0xA834069B PUSH1 0x40 MLOAD DUP2 PUSH4 0xFFFFFFFF AND PUSH1 0xE0 SHL DUP2 MSTORE PUSH1 0x4 ADD PUSH1 0x20 PUSH1 0x40 MLOAD DUP1 DUP4 SUB DUP2 DUP7 DUP1 EXTCODESIZE ISZERO DUP1 ISZERO PUSH2 0x182D JUMPI PUSH1 0x0 DUP1 REVERT JUMPDEST POP GAS STATICCALL ISZERO DUP1 ISZERO PUSH2 0x1841 JUMPI RETURNDATASIZE PUSH1 0x0 DUP1 RETURNDATACOPY RETURNDATASIZE PUSH1 0x0 REVERT JUMPDEST POP POP POP POP PUSH1 0x40 MLOAD RETURNDATASIZE PUSH1 0x1F NOT PUSH1 0x1F DUP3 ADD AND DUP3 ADD DUP1 PUSH1 0x40 MSTORE POP DUP2 ADD SWAP1 PUSH2 0x1865 SWAP2 SWAP1 PUSH2 0x50FA JUMP JUMPDEST SWAP1 POP DUP3 DUP2 LT PUSH2 0x189B JUMPI PUSH1 0x40 MLOAD PUSH3 0x461BCD PUSH1 0xE5 SHL DUP2 MSTORE PUSH1 0x20 PUSH1 0x4 DUP3 ADD MSTORE PUSH1 0x2 PUSH1 0x24 DUP3 ADD MSTORE PUSH2 0x4331 PUSH1 0xF0 SHL PUSH1 0x44 DUP3 ADD MSTORE PUSH1 0x64 ADD PUSH2 0x962 JUMP JUMPDEST PUSH1 0x0 PUSH2 0x18A8 PUSH1 0x1 DUP8 PUSH2 0x57B7 JUMP JUMPDEST SWAP1 POP JUMPDEST DUP5 PUSH2 0x19D9 JUMPI PUSH1 0x11 SLOAD PUSH1 0x12 SLOAD PUSH1 0x40 MLOAD PUSH4 0x12ADD1FD PUSH1 0xE2 SHL DUP2 MSTORE PUSH1 0x0 SWAP3 PUSH1 0x1 PUSH1 0x1 PUSH1 0xA0 SHL SUB SWAP1 DUP2 AND SWAP3 PUSH4 0x4AB747F4 SWAP3 PUSH2 0x18EA SWAP3 SWAP1 SWAP2 AND SWAP1 DUP7 SWAP1 PUSH1 0x4 ADD PUSH2 0x53C2 JUMP JUMPDEST PUSH1 0x40 DUP1 MLOAD DUP1 DUP4 SUB DUP2 DUP7 DUP1 EXTCODESIZE ISZERO DUP1 ISZERO PUSH2 0x1901 JUMPI PUSH1 0x0 DUP1 REVERT JUMPDEST POP GAS STATICCALL ISZERO DUP1 ISZERO PUSH2 0x1915 JUMPI RETURNDATASIZE PUSH1 0x0 DUP1 RETURNDATACOPY RETURNDATASIZE PUSH1 0x0 REVERT JUMPDEST POP POP POP POP PUSH1 0x40 MLOAD RETURNDATASIZE PUSH1 0x1F NOT PUSH1 0x1F DUP3 ADD AND DUP3 ADD DUP1 PUSH1 0x40 MSTORE POP DUP2 ADD SWAP1 PUSH2 0x1939 SWAP2 SWAP1 PUSH2 0x51CD JUMP JUMPDEST POP SWAP1 POP DUP1 PUSH2 0x1988 JUMPI PUSH1 0x0 DUP3 GT PUSH2 0x1976 JUMPI PUSH1 0x40 MLOAD PUSH3 0x461BCD PUSH1 0xE5 SHL DUP2 MSTORE PUSH1 0x20 PUSH1 0x4 DUP3 ADD MSTORE PUSH1 0x2 PUSH1 0x24 DUP3 ADD MSTORE PUSH2 0x4333 PUSH1 0xF0 SHL PUSH1 0x44 DUP3 ADD MSTORE PUSH1 0x64 ADD PUSH2 0x962 JUMP JUMPDEST PUSH2 0x1981 PUSH1 0x1 DUP4 PUSH2 0x57B7 JUMP JUMPDEST SWAP2 POP PUSH2 0x19D3 JUMP JUMPDEST DUP3 DUP2 GT ISZERO PUSH2 0x19BD JUMPI PUSH1 0x40 MLOAD PUSH3 0x461BCD PUSH1 0xE5 SHL DUP2 MSTORE PUSH1 0x20 PUSH1 0x4 DUP3 ADD MSTORE PUSH1 0x2 PUSH1 0x24 DUP3 ADD MSTORE PUSH2 0x10CD PUSH1 0xF2 SHL PUSH1 0x44 DUP3 ADD MSTORE PUSH1 0x64 ADD PUSH2 0x962 JUMP JUMPDEST PUSH1 0x0 DUP4 DUP2 MSTORE PUSH1 0x18 PUSH1 0x20 MSTORE PUSH1 0x40 SWAP1 KECCAK256 DUP3 SWAP1 SSTORE PUSH1 0x1 SWAP6 POP JUMPDEST POP PUSH2 0x18AB JUMP JUMPDEST POP POP POP POP SWAP2 SWAP1 POP JUMP JUMPDEST PUSH1 0x0 SWAP2 DUP3 MSTORE PUSH1 0x8 PUSH1 0x20 SWAP1 DUP2 MSTORE PUSH1 0x40 DUP1 DUP5 KECCAK256 PUSH1 0x1 PUSH1 0x1 PUSH1 0xA0 SHL SUB SWAP4 SWAP1 SWAP4 AND DUP5 MSTORE SWAP2 SWAP1 MSTORE SWAP1 KECCAK256 SLOAD PUSH1 0xFF AND SWAP1 JUMP JUMPDEST PUSH1 0x60 PUSH1 0x1 DUP1 SLOAD PUSH2 0x832 SWAP1 PUSH2 0x5811 JUMP JUMPDEST PUSH1 0x0 PUSH1 0x2 PUSH1 0x7 SLOAD EQ ISZERO PUSH2 0x1A71 JUMPI PUSH1 0x40 MLOAD PUSH3 0x461BCD PUSH1 0xE5 SHL DUP2 MSTORE PUSH1 0x20 PUSH1 0x4 DUP3 ADD MSTORE PUSH1 0x1F PUSH1 0x24 DUP3 ADD MSTORE PUSH32 0x5265656E7472616E637947756172643A207265656E7472616E742063616C6C00 PUSH1 0x44 DUP3 ADD MSTORE PUSH1 0x64 ADD PUSH2 0x962 JUMP JUMPDEST PUSH1 0x2 PUSH1 0x7 SSTORE PUSH1 0x19 SLOAD PUSH1 0x40 DUP1 MLOAD PUSH4 0x392E53CD PUSH1 0xE0 SHL DUP2 MSTORE SWAP1 MLOAD PUSH1 0x1 PUSH1 0x1 PUSH1 0xA0 SHL SUB SWAP1 SWAP3 AND SWAP2 PUSH4 0x392E53CD SWAP2 PUSH1 0x4 DUP1 DUP3 ADD SWAP3 PUSH1 0x20 SWAP3 SWAP1 SWAP2 SWAP1 DUP3 SWAP1 SUB ADD DUP2 DUP7 DUP1 EXTCODESIZE ISZERO DUP1 ISZERO PUSH2 0x1ABB JUMPI PUSH1 0x0 DUP1 REVERT JUMPDEST POP GAS STATICCALL ISZERO DUP1 ISZERO PUSH2 0x1ACF JUMPI RETURNDATASIZE PUSH1 0x0 DUP1 RETURNDATACOPY RETURNDATASIZE PUSH1 0x0 REVERT JUMPDEST POP POP POP POP PUSH1 0x40 MLOAD RETURNDATASIZE PUSH1 0x1F NOT PUSH1 0x1F DUP3 ADD AND DUP3 ADD DUP1 PUSH1 0x40 MSTORE POP DUP2 ADD SWAP1 PUSH2 0x1AF3 SWAP2 SWAP1 PUSH2 0x506A JUMP JUMPDEST DUP1 ISZERO PUSH2 0x1B80 JUMPI POP PUSH1 0x1A PUSH1 0x0 SWAP1 SLOAD SWAP1 PUSH2 0x100 EXP SWAP1 DIV PUSH1 0x1 PUSH1 0x1 PUSH1 0xA0 SHL SUB AND PUSH1 0x1 PUSH1 0x1 PUSH1 0xA0 SHL SUB AND PUSH4 0x392E53CD PUSH1 0x40 MLOAD DUP2 PUSH4 0xFFFFFFFF AND PUSH1 0xE0 SHL DUP2 MSTORE PUSH1 0x4 ADD PUSH1 0x20 PUSH1 0x40 MLOAD DUP1 DUP4 SUB DUP2 DUP7 DUP1 EXTCODESIZE ISZERO DUP1 ISZERO PUSH2 0x1B48 JUMPI PUSH1 0x0 DUP1 REVERT JUMPDEST POP GAS STATICCALL ISZERO DUP1 ISZERO PUSH2 0x1B5C JUMPI RETURNDATASIZE PUSH1 0x0 DUP1 RETURNDATACOPY RETURNDATASIZE PUSH1 0x0 REVERT JUMPDEST POP POP POP POP PUSH1 0x40 MLOAD RETURNDATASIZE PUSH1 0x1F NOT PUSH1 0x1F DUP3 ADD AND DUP3 ADD DUP1 PUSH1 0x40 MSTORE POP DUP2 ADD SWAP1 PUSH2 0x1B80 SWAP2 SWAP1 PUSH2 0x506A JUMP JUMPDEST PUSH2 0x1BC5 JUMPI PUSH1 0x40 MLOAD PUSH3 0x461BCD PUSH1 0xE5 SHL DUP2 MSTORE PUSH1 0x20 PUSH1 0x4 DUP3 ADD MSTORE PUSH1 0x16 PUSH1 0x24 DUP3 ADD MSTORE PUSH22 0x496E697469616C697A6174696F6E2070656E64696E67 PUSH1 0x50 SHL PUSH1 0x44 DUP3 ADD MSTORE PUSH1 0x64 ADD PUSH2 0x962 JUMP JUMPDEST PUSH1 0x19 SLOAD PUSH1 0x40 DUP1 MLOAD PUSH4 0xA834069B PUSH1 0xE0 SHL DUP2 MSTORE SWAP1 MLOAD PUSH1 0x0 SWAP3 PUSH1 0x1 PUSH1 0x1 PUSH1 0xA0 SHL SUB AND SWAP2 PUSH4 0xA834069B SWAP2 PUSH1 0x4 DUP1 DUP4 ADD SWAP3 PUSH1 0x20 SWAP3 SWAP2 SWAP1 DUP3 SWAP1 SUB ADD DUP2 DUP7 DUP1 EXTCODESIZE ISZERO DUP1 ISZERO PUSH2 0x1C0A JUMPI PUSH1 0x0 DUP1 REVERT JUMPDEST POP GAS STATICCALL ISZERO DUP1 ISZERO PUSH2 0x1C1E JUMPI RETURNDATASIZE PUSH1 0x0 DUP1 RETURNDATACOPY RETURNDATASIZE PUSH1 0x0 REVERT JUMPDEST POP POP POP POP PUSH1 0x40 MLOAD RETURNDATASIZE PUSH1 0x1F NOT PUSH1 0x1F DUP3 ADD AND DUP3 ADD DUP1 PUSH1 0x40 MSTORE POP DUP2 ADD SWAP1 PUSH2 0x1C42 SWAP2 SWAP1 PUSH2 0x50FA JUMP JUMPDEST SWAP1 POP TIMESTAMP DUP2 GT PUSH2 0x1C63 JUMPI PUSH1 0x40 MLOAD PUSH3 0x461BCD PUSH1 0xE5 SHL DUP2 MSTORE PUSH1 0x4 ADD PUSH2 0x962 SWAP1 PUSH2 0x55BB JUMP JUMPDEST PUSH1 0x0 PUSH2 0x1C6F TIMESTAMP DUP4 PUSH2 0x57B7 JUMP JUMPDEST SWAP1 POP PUSH2 0xA8C0 DUP2 LT ISZERO PUSH2 0x1C93 JUMPI PUSH1 0x40 MLOAD PUSH3 0x461BCD PUSH1 0xE5 SHL DUP2 MSTORE PUSH1 0x4 ADD PUSH2 0x962 SWAP1 PUSH2 0x55BB JUMP JUMPDEST PUSH1 0x0 DUP1 PUSH1 0x0 PUSH2 0x1D2A DUP5 DUP12 PUSH1 0x1A PUSH1 0x0 SWAP1 SLOAD SWAP1 PUSH2 0x100 EXP SWAP1 DIV PUSH1 0x1 PUSH1 0x1 PUSH1 0xA0 SHL SUB AND PUSH1 0x1 PUSH1 0x1 PUSH1 0xA0 SHL SUB AND PUSH4 0x5EE97101 PUSH1 0x40 MLOAD DUP2 PUSH4 0xFFFFFFFF AND PUSH1 0xE0 SHL DUP2 MSTORE PUSH1 0x4 ADD PUSH1 0x20 PUSH1 0x40 MLOAD DUP1 DUP4 SUB DUP2 DUP7 DUP1 EXTCODESIZE ISZERO DUP1 ISZERO PUSH2 0x1CEB JUMPI PUSH1 0x0 DUP1 REVERT JUMPDEST POP GAS STATICCALL ISZERO DUP1 ISZERO PUSH2 0x1CFF JUMPI RETURNDATASIZE PUSH1 0x0 DUP1 RETURNDATACOPY RETURNDATASIZE PUSH1 0x0 REVERT JUMPDEST POP POP POP POP PUSH1 0x40 MLOAD RETURNDATASIZE PUSH1 0x1F NOT PUSH1 0x1F DUP3 ADD AND DUP3 ADD DUP1 PUSH1 0x40 MSTORE POP DUP2 ADD SWAP1 PUSH2 0x1D23 SWAP2 SWAP1 PUSH2 0x50FA JUMP JUMPDEST DUP13 DUP13 PUSH2 0x1060 JUMP JUMPDEST SWAP2 SWAP5 POP SWAP3 POP SWAP1 POP PUSH1 0x5 PUSH2 0x1D3D DUP6 DUP13 PUSH2 0x5798 JUMP JUMPDEST PUSH2 0x1D47 SWAP2 SWAP1 PUSH2 0x5798 JUMP JUMPDEST PUSH2 0x1D55 DUP5 PUSH4 0x1E13380 PUSH2 0x5798 JUMP JUMPDEST PUSH2 0x1D60 SWAP1 PUSH1 0x64 PUSH2 0x5798 JUMP JUMPDEST GT PUSH2 0x1D92 JUMPI PUSH1 0x40 MLOAD PUSH3 0x461BCD PUSH1 0xE5 SHL DUP2 MSTORE PUSH1 0x20 PUSH1 0x4 DUP3 ADD MSTORE PUSH1 0x2 PUSH1 0x24 DUP3 ADD MSTORE PUSH2 0x2799 PUSH1 0xF1 SHL PUSH1 0x44 DUP3 ADD MSTORE PUSH1 0x64 ADD PUSH2 0x962 JUMP JUMPDEST PUSH1 0x14 SLOAD PUSH1 0x40 DUP1 MLOAD PUSH4 0xD67AAC1 PUSH1 0xE1 SHL DUP2 MSTORE SWAP1 MLOAD PUSH1 0x0 SWAP3 PUSH1 0x1 PUSH1 0x1 PUSH1 0xA0 SHL SUB AND SWAP2 PUSH4 0x1ACF5582 SWAP2 PUSH1 0x4 DUP1 DUP4 ADD SWAP3 PUSH1 0x20 SWAP3 SWAP2 SWAP1 DUP3 SWAP1 SUB ADD DUP2 DUP7 DUP1 EXTCODESIZE ISZERO DUP1 ISZERO PUSH2 0x1DD7 JUMPI PUSH1 0x0 DUP1 REVERT JUMPDEST POP GAS STATICCALL ISZERO DUP1 ISZERO PUSH2 0x1DEB JUMPI RETURNDATASIZE PUSH1 0x0 DUP1 RETURNDATACOPY RETURNDATASIZE PUSH1 0x0 REVERT JUMPDEST POP POP POP POP PUSH1 0x40 MLOAD RETURNDATASIZE PUSH1 0x1F NOT PUSH1 0x1F DUP3 ADD AND DUP3 ADD DUP1 PUSH1 0x40 MSTORE POP DUP2 ADD SWAP1 PUSH2 0x1E0F SWAP2 SWAP1 PUSH2 0x50FA JUMP JUMPDEST SWAP1 POP PUSH1 0x0 PUSH1 0x19 PUSH1 0x0 SWAP1 SLOAD SWAP1 PUSH2 0x100 EXP SWAP1 DIV PUSH1 0x1 PUSH1 0x1 PUSH1 0xA0 SHL SUB AND PUSH1 0x1 PUSH1 0x1 PUSH1 0xA0 SHL SUB AND PUSH4 0x16DC165B PUSH1 0x40 MLOAD DUP2 PUSH4 0xFFFFFFFF AND PUSH1 0xE0 SHL DUP2 MSTORE PUSH1 0x4 ADD PUSH1 0x20 PUSH1 0x40 MLOAD DUP1 DUP4 SUB DUP2 DUP7 DUP1 EXTCODESIZE ISZERO DUP1 ISZERO PUSH2 0x1E61 JUMPI PUSH1 0x0 DUP1 REVERT JUMPDEST POP GAS STATICCALL ISZERO DUP1 ISZERO PUSH2 0x1E75 JUMPI RETURNDATASIZE PUSH1 0x0 DUP1 RETURNDATACOPY RETURNDATASIZE PUSH1 0x0 REVERT JUMPDEST POP POP POP POP PUSH1 0x40 MLOAD RETURNDATASIZE PUSH1 0x1F NOT PUSH1 0x1F DUP3 ADD AND DUP3 ADD DUP1 PUSH1 0x40 MSTORE POP DUP2 ADD SWAP1 PUSH2 0x1E99 SWAP2 SWAP1 PUSH2 0x4DB1 JUMP JUMPDEST PUSH1 0x1 PUSH1 0x1 PUSH1 0xA0 SHL SUB AND PUSH4 0x313CE567 PUSH1 0x40 MLOAD DUP2 PUSH4 0xFFFFFFFF AND PUSH1 0xE0 SHL DUP2 MSTORE PUSH1 0x4 ADD PUSH1 0x20 PUSH1 0x40 MLOAD DUP1 DUP4 SUB DUP2 DUP7 DUP1 EXTCODESIZE ISZERO DUP1 ISZERO PUSH2 0x1ED1 JUMPI PUSH1 0x0 DUP1 REVERT JUMPDEST POP GAS STATICCALL ISZERO DUP1 ISZERO PUSH2 0x1EE5 JUMPI RETURNDATASIZE PUSH1 0x0 DUP1 RETURNDATACOPY RETURNDATASIZE PUSH1 0x0 REVERT JUMPDEST POP POP POP POP PUSH1 0x40 MLOAD RETURNDATASIZE PUSH1 0x1F NOT PUSH1 0x1F DUP3 ADD AND DUP3 ADD DUP1 PUSH1 0x40 MSTORE POP DUP2 ADD SWAP1 PUSH2 0x1F09 SWAP2 SWAP1 PUSH2 0x5272 JUMP JUMPDEST PUSH2 0x1F14 SWAP1 PUSH1 0xA PUSH2 0x56ED JUMP JUMPDEST SWAP1 POP PUSH1 0x19 PUSH1 0x0 SWAP1 SLOAD SWAP1 PUSH2 0x100 EXP SWAP1 DIV PUSH1 0x1 PUSH1 0x1 PUSH1 0xA0 SHL SUB AND PUSH1 0x1 PUSH1 0x1 PUSH1 0xA0 SHL SUB AND PUSH4 0xA4475CE4 PUSH1 0x40 MLOAD DUP2 PUSH4 0xFFFFFFFF AND PUSH1 0xE0 SHL DUP2 MSTORE PUSH1 0x4 ADD PUSH1 0x20 PUSH1 0x40 MLOAD DUP1 DUP4 SUB DUP2 DUP7 DUP1 EXTCODESIZE ISZERO DUP1 ISZERO PUSH2 0x1F64 JUMPI PUSH1 0x0 DUP1 REVERT JUMPDEST POP GAS STATICCALL ISZERO DUP1 ISZERO PUSH2 0x1F78 JUMPI RETURNDATASIZE PUSH1 0x0 DUP1 RETURNDATACOPY RETURNDATASIZE PUSH1 0x0 REVERT JUMPDEST POP POP POP POP PUSH1 0x40 MLOAD RETURNDATASIZE PUSH1 0x1F NOT PUSH1 0x1F DUP3 ADD AND DUP3 ADD DUP1 PUSH1 0x40 MSTORE POP DUP2 ADD SWAP1 PUSH2 0x1F9C SWAP2 SWAP1 PUSH2 0x4DB1 JUMP JUMPDEST PUSH1 0x1 PUSH1 0x1 PUSH1 0xA0 SHL SUB AND CALLER PUSH1 0x1 PUSH1 0x1 PUSH1 0xA0 SHL SUB AND EQ PUSH2 0x2144 JUMPI PUSH1 0x10 SLOAD PUSH1 0x0 SWAP1 PUSH1 0x1 PUSH1 0x1 PUSH1 0xA0 SHL SUB AND PUSH4 0x23B872DD CALLER ADDRESS PUSH2 0x1FD8 DUP7 PUSH4 0x5F5E100 PUSH2 0x5798 JUMP JUMPDEST PUSH1 0x10 PUSH1 0x0 SWAP1 SLOAD SWAP1 PUSH2 0x100 EXP SWAP1 DIV PUSH1 0x1 PUSH1 0x1 PUSH1 0xA0 SHL SUB AND PUSH1 0x1 PUSH1 0x1 PUSH1 0xA0 SHL SUB AND PUSH4 0x313CE567 PUSH1 0x40 MLOAD DUP2 PUSH4 0xFFFFFFFF AND PUSH1 0xE0 SHL DUP2 MSTORE PUSH1 0x4 ADD PUSH1 0x20 PUSH1 0x40 MLOAD DUP1 DUP4 SUB DUP2 DUP7 DUP1 EXTCODESIZE ISZERO DUP1 ISZERO PUSH2 0x2026 JUMPI PUSH1 0x0 DUP1 REVERT JUMPDEST POP GAS STATICCALL ISZERO DUP1 ISZERO PUSH2 0x203A JUMPI RETURNDATASIZE PUSH1 0x0 DUP1 RETURNDATACOPY RETURNDATASIZE PUSH1 0x0 REVERT JUMPDEST POP POP POP POP PUSH1 0x40 MLOAD RETURNDATASIZE PUSH1 0x1F NOT PUSH1 0x1F DUP3 ADD AND DUP3 ADD DUP1 PUSH1 0x40 MSTORE POP DUP2 ADD SWAP1 PUSH2 0x205E SWAP2 SWAP1 PUSH2 0x5272 JUMP JUMPDEST PUSH2 0x2069 SWAP1 PUSH1 0xA PUSH2 0x56ED JUMP JUMPDEST PUSH2 0x2073 DUP10 DUP14 PUSH2 0x5798 JUMP JUMPDEST PUSH2 0x207D SWAP2 SWAP1 PUSH2 0x5798 JUMP JUMPDEST PUSH2 0x2087 SWAP2 SWAP1 PUSH2 0x5696 JUMP JUMPDEST PUSH1 0x40 MLOAD PUSH1 0x1 PUSH1 0x1 PUSH1 0xE0 SHL SUB NOT PUSH1 0xE0 DUP7 SWAP1 SHL AND DUP2 MSTORE PUSH1 0x1 PUSH1 0x1 PUSH1 0xA0 SHL SUB SWAP4 DUP5 AND PUSH1 0x4 DUP3 ADD MSTORE SWAP3 SWAP1 SWAP2 AND PUSH1 0x24 DUP4 ADD MSTORE PUSH1 0x44 DUP3 ADD MSTORE PUSH1 0x64 ADD PUSH1 0x20 PUSH1 0x40 MLOAD DUP1 DUP4 SUB DUP2 PUSH1 0x0 DUP8 DUP1 EXTCODESIZE ISZERO DUP1 ISZERO PUSH2 0x20D6 JUMPI PUSH1 0x0 DUP1 REVERT JUMPDEST POP GAS CALL ISZERO DUP1 ISZERO PUSH2 0x20EA JUMPI RETURNDATASIZE PUSH1 0x0 DUP1 RETURNDATACOPY RETURNDATASIZE PUSH1 0x0 REVERT JUMPDEST POP POP POP POP PUSH1 0x40 MLOAD RETURNDATASIZE PUSH1 0x1F NOT PUSH1 0x1F DUP3 ADD AND DUP3 ADD DUP1 PUSH1 0x40 MSTORE POP DUP2 ADD SWAP1 PUSH2 0x210E SWAP2 SWAP1 PUSH2 0x506A JUMP JUMPDEST SWAP1 POP DUP1 PUSH2 0x2142 JUMPI PUSH1 0x40 MLOAD PUSH3 0x461BCD PUSH1 0xE5 SHL DUP2 MSTORE PUSH1 0x20 PUSH1 0x4 DUP3 ADD MSTORE PUSH1 0x2 PUSH1 0x24 DUP3 ADD MSTORE PUSH2 0x4F33 PUSH1 0xF0 SHL PUSH1 0x44 DUP3 ADD MSTORE PUSH1 0x64 ADD PUSH2 0x962 JUMP JUMPDEST POP JUMPDEST PUSH1 0x1 DUP12 ISZERO ISZERO DUP2 EQ DUP1 ISZERO PUSH2 0x2159 JUMPI POP PUSH1 0x1 DUP12 ISZERO ISZERO EQ JUMPDEST DUP1 PUSH2 0x216B JUMPI POP DUP12 ISZERO DUP1 ISZERO PUSH2 0x216B JUMPI POP DUP11 ISZERO JUMPDEST ISZERO PUSH2 0x2174 JUMPI POP PUSH1 0x2 JUMPDEST PUSH1 0x40 DUP1 MLOAD PUSH1 0xE0 DUP2 ADD DUP3 MSTORE PUSH1 0x1 DUP2 MSTORE PUSH1 0x1A SLOAD DUP3 MLOAD PUSH4 0x5EE97101 PUSH1 0xE0 SHL DUP2 MSTORE SWAP3 MLOAD PUSH1 0x0 SWAP4 PUSH1 0x20 DUP1 DUP6 ADD SWAP4 PUSH1 0x1 PUSH1 0x1 PUSH1 0xA0 SHL SUB AND SWAP3 PUSH4 0x5EE97101 SWAP3 PUSH1 0x4 DUP1 DUP3 ADD SWAP4 SWAP3 SWAP2 DUP3 SWAP1 SUB ADD DUP2 DUP7 DUP1 EXTCODESIZE ISZERO DUP1 ISZERO PUSH2 0x21C8 JUMPI PUSH1 0x0 DUP1 REVERT JUMPDEST POP GAS STATICCALL ISZERO DUP1 ISZERO PUSH2 0x21DC JUMPI RETURNDATASIZE PUSH1 0x0 DUP1 RETURNDATACOPY RETURNDATASIZE PUSH1 0x0 REVERT JUMPDEST POP POP POP POP PUSH1 0x40 MLOAD RETURNDATASIZE PUSH1 0x1F NOT PUSH1 0x1F DUP3 ADD AND DUP3 ADD DUP1 PUSH1 0x40 MSTORE POP DUP2 ADD SWAP1 PUSH2 0x2200 SWAP2 SWAP1 PUSH2 0x50FA JUMP JUMPDEST DUP2 MSTORE PUSH1 0x20 ADD DUP16 DUP2 MSTORE PUSH1 0x20 ADD DUP16 DUP2 MSTORE PUSH1 0x20 ADD DUP7 DUP2 MSTORE PUSH1 0x20 ADD DUP10 TIMESTAMP PUSH2 0x2223 SWAP2 SWAP1 PUSH2 0x567E JUMP JUMPDEST DUP2 MSTORE PUSH1 0x20 ADD DUP4 PUSH1 0x2 DUP2 GT ISZERO PUSH2 0x2248 JUMPI PUSH4 0x4E487B71 PUSH1 0xE0 SHL PUSH1 0x0 MSTORE PUSH1 0x21 PUSH1 0x4 MSTORE PUSH1 0x24 PUSH1 0x0 REVERT JUMPDEST SWAP1 MSTORE SWAP1 POP PUSH2 0x2254 PUSH2 0x3966 JUMP JUMPDEST PUSH1 0x40 DUP1 MLOAD DUP1 DUP3 ADD DUP3 MSTORE DUP16 ISZERO ISZERO DUP2 MSTORE DUP15 ISZERO ISZERO PUSH1 0x20 DUP1 DUP4 ADD SWAP2 DUP3 MSTORE PUSH1 0x0 DUP6 DUP2 MSTORE PUSH1 0x17 SWAP1 SWAP2 MSTORE SWAP3 SWAP1 SWAP3 KECCAK256 SWAP1 MLOAD DUP2 SLOAD SWAP3 MLOAD PUSH2 0xFFFF NOT SWAP1 SWAP4 AND SWAP1 ISZERO ISZERO PUSH2 0xFF00 NOT AND OR PUSH2 0x100 SWAP3 ISZERO ISZERO SWAP3 SWAP1 SWAP3 MUL SWAP2 SWAP1 SWAP2 OR SWAP1 SSTORE SWAP10 POP PUSH2 0x22AD DUP11 DUP3 PUSH2 0x3AAA JUMP JUMPDEST PUSH2 0x22CB DUP11 CALLER PUSH2 0x22C6 DUP14 DUP6 PUSH1 0x20 ADD MLOAD DUP7 PUSH1 0xA0 ADD MLOAD DUP9 PUSH2 0x3C1F JUMP JUMPDEST PUSH2 0x3D5D JUMP JUMPDEST PUSH2 0x22D5 DUP11 DUP13 PUSH2 0x3D80 JUMP JUMPDEST PUSH2 0x22E8 DUP11 DUP3 PUSH1 0x60 ADD MLOAD DUP4 PUSH1 0x80 ADD MLOAD PUSH2 0x3B62 JUMP JUMPDEST PUSH1 0x19 PUSH1 0x0 SWAP1 SLOAD SWAP1 PUSH2 0x100 EXP SWAP1 DIV PUSH1 0x1 PUSH1 0x1 PUSH1 0xA0 SHL SUB AND PUSH1 0x1 PUSH1 0x1 PUSH1 0xA0 SHL SUB AND PUSH4 0xA4475CE4 PUSH1 0x40 MLOAD DUP2 PUSH4 0xFFFFFFFF AND PUSH1 0xE0 SHL DUP2 MSTORE PUSH1 0x4 ADD PUSH1 0x20 PUSH1 0x40 MLOAD DUP1 DUP4 SUB DUP2 DUP7 DUP1 EXTCODESIZE ISZERO DUP1 ISZERO PUSH2 0x2336 JUMPI PUSH1 0x0 DUP1 REVERT JUMPDEST POP GAS STATICCALL ISZERO DUP1 ISZERO PUSH2 0x234A JUMPI RETURNDATASIZE PUSH1 0x0 DUP1 RETURNDATACOPY RETURNDATASIZE PUSH1 0x0 REVERT JUMPDEST POP POP POP POP PUSH1 0x40 MLOAD RETURNDATASIZE PUSH1 0x1F NOT PUSH1 0x1F DUP3 ADD AND DUP3 ADD DUP1 PUSH1 0x40 MSTORE POP DUP2 ADD SWAP1 PUSH2 0x236E SWAP2 SWAP1 PUSH2 0x4DB1 JUMP JUMPDEST PUSH1 0x1 PUSH1 0x1 PUSH1 0xA0 SHL SUB AND CALLER PUSH1 0x1 PUSH1 0x1 PUSH1 0xA0 SHL SUB AND EQ PUSH2 0x26CB JUMPI PUSH1 0x10 SLOAD PUSH1 0x19 SLOAD PUSH1 0x40 DUP1 MLOAD PUSH4 0x2911D739 PUSH1 0xE2 SHL DUP2 MSTORE SWAP1 MLOAD PUSH1 0x1 PUSH1 0x1 PUSH1 0xA0 SHL SUB SWAP4 DUP5 AND SWAP4 PUSH4 0xA9059CBB SWAP4 AND SWAP2 PUSH4 0xA4475CE4 SWAP2 PUSH1 0x4 DUP1 DUP4 ADD SWAP3 PUSH1 0x20 SWAP3 SWAP2 SWAP1 DUP3 SWAP1 SUB ADD DUP2 DUP7 DUP1 EXTCODESIZE ISZERO DUP1 ISZERO PUSH2 0x23D5 JUMPI PUSH1 0x0 DUP1 REVERT JUMPDEST POP GAS STATICCALL ISZERO DUP1 ISZERO PUSH2 0x23E9 JUMPI RETURNDATASIZE PUSH1 0x0 DUP1 RETURNDATACOPY RETURNDATASIZE PUSH1 0x0 REVERT JUMPDEST POP POP POP POP PUSH1 0x40 MLOAD RETURNDATASIZE PUSH1 0x1F NOT PUSH1 0x1F DUP3 ADD AND DUP3 ADD DUP1 PUSH1 0x40 MSTORE POP DUP2 ADD SWAP1 PUSH2 0x240D SWAP2 SWAP1 PUSH2 0x4DB1 JUMP JUMPDEST PUSH2 0x241B DUP7 PUSH4 0x5F5E100 PUSH2 0x5798 JUMP JUMPDEST PUSH1 0x10 PUSH1 0x0 SWAP1 SLOAD SWAP1 PUSH2 0x100 EXP SWAP1 DIV PUSH1 0x1 PUSH1 0x1 PUSH1 0xA0 SHL SUB AND PUSH1 0x1 PUSH1 0x1 PUSH1 0xA0 SHL SUB AND PUSH4 0x313CE567 PUSH1 0x40 MLOAD DUP2 PUSH4 0xFFFFFFFF AND PUSH1 0xE0 SHL DUP2 MSTORE PUSH1 0x4 ADD PUSH1 0x20 PUSH1 0x40 MLOAD DUP1 DUP4 SUB DUP2 DUP7 DUP1 EXTCODESIZE ISZERO DUP1 ISZERO PUSH2 0x2469 JUMPI PUSH1 0x0 DUP1 REVERT JUMPDEST POP GAS STATICCALL ISZERO DUP1 ISZERO PUSH2 0x247D JUMPI RETURNDATASIZE PUSH1 0x0 DUP1 RETURNDATACOPY RETURNDATASIZE PUSH1 0x0 REVERT JUMPDEST POP POP POP POP PUSH1 0x40 MLOAD RETURNDATASIZE PUSH1 0x1F NOT PUSH1 0x1F DUP3 ADD AND DUP3 ADD DUP1 PUSH1 0x40 MSTORE POP DUP2 ADD SWAP1 PUSH2 0x24A1 SWAP2 SWAP1 PUSH2 0x5272 JUMP JUMPDEST PUSH2 0x24AC SWAP1 PUSH1 0xA PUSH2 0x56ED JUMP JUMPDEST PUSH2 0x24B6 DUP10 DUP12 PUSH2 0x5798 JUMP JUMPDEST PUSH2 0x24C0 SWAP2 SWAP1 PUSH2 0x5798 JUMP JUMPDEST PUSH2 0x24CA SWAP2 SWAP1 PUSH2 0x5696 JUMP JUMPDEST PUSH1 0x40 MLOAD DUP4 PUSH4 0xFFFFFFFF AND PUSH1 0xE0 SHL DUP2 MSTORE PUSH1 0x4 ADD PUSH2 0x24E7 SWAP3 SWAP2 SWAP1 PUSH2 0x53C2 JUMP JUMPDEST PUSH1 0x20 PUSH1 0x40 MLOAD DUP1 DUP4 SUB DUP2 PUSH1 0x0 DUP8 DUP1 EXTCODESIZE ISZERO DUP1 ISZERO PUSH2 0x2501 JUMPI PUSH1 0x0 DUP1 REVERT JUMPDEST POP GAS CALL ISZERO DUP1 ISZERO PUSH2 0x2515 JUMPI RETURNDATASIZE PUSH1 0x0 DUP1 RETURNDATACOPY RETURNDATASIZE PUSH1 0x0 REVERT JUMPDEST POP POP POP POP PUSH1 0x40 MLOAD RETURNDATASIZE PUSH1 0x1F NOT PUSH1 0x1F DUP3 ADD AND DUP3 ADD DUP1 PUSH1 0x40 MSTORE POP DUP2 ADD SWAP1 PUSH2 0x2539 SWAP2 SWAP1 PUSH2 0x506A JUMP JUMPDEST POP PUSH1 0x10 SLOAD PUSH1 0x1 PUSH1 0x1 PUSH1 0xA0 SHL SUB AND PUSH4 0xA9059CBB PUSH2 0x2553 PUSH2 0x173E JUMP JUMPDEST PUSH2 0x2561 DUP7 PUSH4 0x5F5E100 PUSH2 0x5798 JUMP JUMPDEST PUSH1 0x10 PUSH1 0x0 SWAP1 SLOAD SWAP1 PUSH2 0x100 EXP SWAP1 DIV PUSH1 0x1 PUSH1 0x1 PUSH1 0xA0 SHL SUB AND PUSH1 0x1 PUSH1 0x1 PUSH1 0xA0 SHL SUB AND PUSH4 0x313CE567 PUSH1 0x40 MLOAD DUP2 PUSH4 0xFFFFFFFF AND PUSH1 0xE0 SHL DUP2 MSTORE PUSH1 0x4 ADD PUSH1 0x20 PUSH1 0x40 MLOAD DUP1 DUP4 SUB DUP2 DUP7 DUP1 EXTCODESIZE ISZERO DUP1 ISZERO PUSH2 0x25AF JUMPI PUSH1 0x0 DUP1 REVERT JUMPDEST POP GAS STATICCALL ISZERO DUP1 ISZERO PUSH2 0x25C3 JUMPI RETURNDATASIZE PUSH1 0x0 DUP1 RETURNDATACOPY RETURNDATASIZE PUSH1 0x0 REVERT JUMPDEST POP POP POP POP PUSH1 0x40 MLOAD RETURNDATASIZE PUSH1 0x1F NOT PUSH1 0x1F DUP3 ADD AND DUP3 ADD DUP1 PUSH1 0x40 MSTORE POP DUP2 ADD SWAP1 PUSH2 0x25E7 SWAP2 SWAP1 PUSH2 0x5272 JUMP JUMPDEST PUSH2 0x25F2 SWAP1 PUSH1 0xA PUSH2 0x56ED JUMP JUMPDEST PUSH2 0x25FC DUP10 DUP13 PUSH2 0x5798 JUMP JUMPDEST PUSH2 0x2606 SWAP2 SWAP1 PUSH2 0x5798 JUMP JUMPDEST PUSH2 0x2610 SWAP2 SWAP1 PUSH2 0x5696 JUMP JUMPDEST PUSH1 0x40 MLOAD DUP4 PUSH4 0xFFFFFFFF AND PUSH1 0xE0 SHL DUP2 MSTORE PUSH1 0x4 ADD PUSH2 0x262D SWAP3 SWAP2 SWAP1 PUSH2 0x53C2 JUMP JUMPDEST PUSH1 0x20 PUSH1 0x40 MLOAD DUP1 DUP4 SUB DUP2 PUSH1 0x0 DUP8 DUP1 EXTCODESIZE ISZERO DUP1 ISZERO PUSH2 0x2647 JUMPI PUSH1 0x0 DUP1 REVERT JUMPDEST POP GAS CALL ISZERO DUP1 ISZERO PUSH2 0x265B JUMPI RETURNDATASIZE PUSH1 0x0 DUP1 RETURNDATACOPY RETURNDATASIZE PUSH1 0x0 REVERT JUMPDEST POP POP POP POP PUSH1 0x40 MLOAD RETURNDATASIZE PUSH1 0x1F NOT PUSH1 0x1F DUP3 ADD AND DUP3 ADD DUP1 PUSH1 0x40 MSTORE POP DUP2 ADD SWAP1 PUSH2 0x267F SWAP2 SWAP1 PUSH2 0x506A JUMP JUMPDEST POP PUSH2 0x2688 PUSH2 0x173E JUMP JUMPDEST PUSH1 0x1 PUSH1 0x1 PUSH1 0xA0 SHL SUB AND PUSH32 0xF0F0487D8990103573E0E5CF4E87E101E2A1BA84C733C556B7A5807E570E5D4C DUP8 PUSH1 0x40 MLOAD PUSH2 0x26C2 SWAP2 DUP2 MSTORE PUSH1 0x20 ADD SWAP1 JUMP JUMPDEST PUSH1 0x40 MLOAD DUP1 SWAP2 SUB SWAP1 LOG2 JUMPDEST CALLER PUSH1 0x1 PUSH1 0x1 PUSH1 0xA0 SHL SUB AND DUP11 PUSH32 0x89F823A0225C73A75066E963CE2EEA7708B57680EC86102773DBD244F5412892 DUP9 DUP11 DUP16 PUSH1 0x40 MLOAD PUSH2 0x2709 SWAP4 SWAP3 SWAP2 SWAP1 PUSH2 0x5649 JUMP JUMPDEST PUSH1 0x40 MLOAD DUP1 SWAP2 SUB SWAP1 LOG3 POP POP PUSH1 0x1 PUSH1 0x7 SSTORE POP SWAP6 SWAP11 SWAP10 POP POP POP POP POP POP POP POP POP POP JUMP JUMPDEST PUSH1 0x1 PUSH1 0x1 PUSH1 0xA0 SHL SUB DUP3 AND CALLER EQ ISZERO PUSH2 0x277D JUMPI PUSH1 0x40 MLOAD PUSH3 0x461BCD PUSH1 0xE5 SHL DUP2 MSTORE PUSH1 0x20 PUSH1 0x4 DUP3 ADD MSTORE PUSH1 0x19 PUSH1 0x24 DUP3 ADD MSTORE PUSH25 0x22A9219B99189D1030B8383937BB32903A379031B0B63632B9 PUSH1 0x39 SHL PUSH1 0x44 DUP3 ADD MSTORE PUSH1 0x64 ADD PUSH2 0x962 JUMP JUMPDEST CALLER PUSH1 0x0 DUP2 DUP2 MSTORE PUSH1 0x5 PUSH1 0x20 SWAP1 DUP2 MSTORE PUSH1 0x40 DUP1 DUP4 KECCAK256 PUSH1 0x1 PUSH1 0x1 PUSH1 0xA0 SHL SUB DUP8 AND DUP1 DUP6 MSTORE SWAP1 DUP4 MSTORE SWAP3 DUP2 SWAP1 KECCAK256 DUP1 SLOAD PUSH1 0xFF NOT AND DUP7 ISZERO ISZERO SWAP1 DUP2 OR SWAP1 SWAP2 SSTORE SWAP1 MLOAD SWAP1 DUP2 MSTORE SWAP2 SWAP3 SWAP2 PUSH32 0x17307EAB39AB6107E8899845AD3D59BD9653F200F220920489CA2B5937696C31 SWAP2 ADD PUSH1 0x40 MLOAD DUP1 SWAP2 SUB SWAP1 LOG3 POP POP JUMP JUMPDEST PUSH1 0x0 DUP2 DUP2 MSTORE PUSH1 0xC PUSH1 0x20 MSTORE PUSH1 0x40 DUP2 KECCAK256 PUSH2 0x81D SWAP1 PUSH2 0x3D8A JUMP JUMPDEST PUSH1 0x0 PUSH2 0x280B DUP3 PUSH2 0xD51 JUMP JUMPDEST PUSH2 0x283D JUMPI PUSH1 0x40 MLOAD PUSH3 0x461BCD PUSH1 0xE5 SHL DUP2 MSTORE PUSH1 0x20 PUSH1 0x4 DUP3 ADD MSTORE PUSH1 0x3 PUSH1 0x24 DUP3 ADD MSTORE PUSH3 0x4F313 PUSH1 0xEC SHL PUSH1 0x44 DUP3 ADD MSTORE PUSH1 0x64 ADD PUSH2 0x962 JUMP JUMPDEST PUSH1 0x0 DUP3 DUP2 MSTORE PUSH1 0x16 PUSH1 0x20 MSTORE PUSH1 0x40 SWAP1 KECCAK256 PUSH1 0x5 DUP2 ADD SLOAD TIMESTAMP LT ISZERO PUSH2 0x286F JUMPI PUSH1 0x40 MLOAD PUSH3 0x461BCD PUSH1 0xE5 SHL DUP2 MSTORE PUSH1 0x4 ADD PUSH2 0x962 SWAP1 PUSH2 0x55D7 JUMP JUMPDEST PUSH1 0x1 DUP2 SLOAD PUSH1 0xFF AND PUSH1 0x3 DUP2 GT ISZERO PUSH2 0x2895 JUMPI PUSH4 0x4E487B71 PUSH1 0xE0 SHL PUSH1 0x0 MSTORE PUSH1 0x21 PUSH1 0x4 MSTORE PUSH1 0x24 PUSH1 0x0 REVERT JUMPDEST EQ PUSH2 0x28C8 JUMPI PUSH1 0x40 MLOAD PUSH3 0x461BCD PUSH1 0xE5 SHL DUP2 MSTORE PUSH1 0x20 PUSH1 0x4 DUP3 ADD MSTORE PUSH1 0x3 PUSH1 0x24 DUP3 ADD MSTORE PUSH3 0x13CC4D PUSH1 0xEA SHL PUSH1 0x44 DUP3 ADD MSTORE PUSH1 0x64 ADD PUSH2 0x962 JUMP JUMPDEST PUSH1 0x5 DUP2 ADD SLOAD PUSH1 0x0 SWAP1 DUP2 MSTORE PUSH1 0x18 PUSH1 0x20 MSTORE PUSH1 0x40 SWAP1 KECCAK256 SLOAD DUP1 PUSH2 0x28F9 JUMPI PUSH1 0x40 MLOAD PUSH3 0x461BCD PUSH1 0xE5 SHL DUP2 MSTORE PUSH1 0x4 ADD PUSH2 0x962 SWAP1 PUSH2 0x54FC JUMP JUMPDEST PUSH1 0x11 SLOAD PUSH1 0x12 SLOAD PUSH1 0x40 MLOAD PUSH4 0x12ADD1FD PUSH1 0xE2 SHL DUP2 MSTORE PUSH1 0x0 SWAP3 PUSH1 0x1 PUSH1 0x1 PUSH1 0xA0 SHL SUB SWAP1 DUP2 AND SWAP3 PUSH4 0x4AB747F4 SWAP3 PUSH2 0x2933 SWAP3 SWAP1 SWAP2 AND SWAP1 DUP7 SWAP1 PUSH1 0x4 ADD PUSH2 0x53C2 JUMP JUMPDEST PUSH1 0x40 DUP1 MLOAD DUP1 DUP4 SUB DUP2 DUP7 DUP1 EXTCODESIZE ISZERO DUP1 ISZERO PUSH2 0x294A JUMPI PUSH1 0x0 DUP1 REVERT JUMPDEST POP GAS STATICCALL ISZERO DUP1 ISZERO PUSH2 0x295E JUMPI RETURNDATASIZE PUSH1 0x0 DUP1 RETURNDATACOPY RETURNDATASIZE PUSH1 0x0 REVERT JUMPDEST POP POP POP POP PUSH1 0x40 MLOAD RETURNDATASIZE PUSH1 0x1F NOT PUSH1 0x1F DUP3 ADD AND DUP3 ADD DUP1 PUSH1 0x40 MSTORE POP DUP2 ADD SWAP1 PUSH2 0x2982 SWAP2 SWAP1 PUSH2 0x51CD JUMP JUMPDEST SWAP2 POP PUSH1 0x2 SWAP1 POP PUSH1 0x6 DUP5 ADD SLOAD PUSH1 0xFF AND PUSH1 0x2 DUP2 GT ISZERO PUSH2 0x29AF JUMPI PUSH4 0x4E487B71 PUSH1 0xE0 SHL PUSH1 0x0 MSTORE PUSH1 0x21 PUSH1 0x4 MSTORE PUSH1 0x24 PUSH1 0x0 REVERT JUMPDEST EQ ISZERO PUSH2 0x29F4 JUMPI DUP1 DUP4 PUSH1 0x1 ADD SLOAD GT ISZERO PUSH2 0x29EF JUMPI PUSH1 0x40 MLOAD PUSH3 0x461BCD PUSH1 0xE5 SHL DUP2 MSTORE PUSH1 0x20 PUSH1 0x4 DUP3 ADD MSTORE PUSH1 0x3 PUSH1 0x24 DUP3 ADD MSTORE PUSH3 0x4F3137 PUSH1 0xE8 SHL PUSH1 0x44 DUP3 ADD MSTORE PUSH1 0x64 ADD PUSH2 0x962 JUMP JUMPDEST PUSH2 0x2A2E JUMP JUMPDEST DUP1 DUP4 PUSH1 0x1 ADD SLOAD LT ISZERO PUSH2 0x2A2E JUMPI PUSH1 0x40 MLOAD PUSH3 0x461BCD PUSH1 0xE5 SHL DUP2 MSTORE PUSH1 0x20 PUSH1 0x4 DUP3 ADD MSTORE PUSH1 0x3 PUSH1 0x24 DUP3 ADD MSTORE PUSH3 0x9E627 PUSH1 0xEB SHL PUSH1 0x44 DUP3 ADD MSTORE PUSH1 0x64 ADD PUSH2 0x962 JUMP JUMPDEST PUSH1 0x3 DUP4 ADD SLOAD PUSH1 0x19 SLOAD SWAP1 SWAP5 POP PUSH1 0x1 PUSH1 0x1 PUSH1 0xA0 SHL SUB AND PUSH4 0x81B34F15 DUP7 PUSH2 0x2A51 DUP2 PUSH2 0xFE9 JUMP JUMPDEST PUSH1 0x40 MLOAD PUSH1 0x1 PUSH1 0x1 PUSH1 0xE0 SHL SUB NOT PUSH1 0xE0 DUP6 SWAP1 SHL AND DUP2 MSTORE PUSH1 0x4 DUP2 ADD SWAP3 SWAP1 SWAP3 MSTORE PUSH1 0x1 PUSH1 0x1 PUSH1 0xA0 SHL SUB AND PUSH1 0x24 DUP3 ADD MSTORE PUSH1 0x44 DUP2 ADD DUP8 SWAP1 MSTORE PUSH1 0x64 ADD PUSH1 0x0 PUSH1 0x40 MLOAD DUP1 DUP4 SUB DUP2 PUSH1 0x0 DUP8 DUP1 EXTCODESIZE ISZERO DUP1 ISZERO PUSH2 0x2A9F JUMPI PUSH1 0x0 DUP1 REVERT JUMPDEST POP GAS CALL ISZERO DUP1 ISZERO PUSH2 0x2AB3 JUMPI RETURNDATASIZE PUSH1 0x0 DUP1 RETURNDATACOPY RETURNDATASIZE PUSH1 0x0 REVERT JUMPDEST POP POP POP POP PUSH2 0x2AC0 DUP6 PUSH2 0x34BA JUMP JUMPDEST DUP3 SLOAD PUSH1 0xFF NOT AND PUSH1 0x2 OR DUP4 SSTORE PUSH1 0x40 MLOAD DUP5 DUP2 MSTORE DUP6 SWAP1 PUSH31 0x84FE51C7CB34B132B7B6EB5D5A87A489F8D6D284758D00A0402C1BAD9A0DEF SWAP1 PUSH1 0x20 ADD PUSH1 0x40 MLOAD DUP1 SWAP2 SUB SWAP1 LOG2 POP POP POP SWAP2 SWAP1 POP JUMP JUMPDEST PUSH2 0x2B12 CALLER JUMPDEST DUP4 PUSH2 0x3041 JUMP JUMPDEST PUSH2 0x2B2E JUMPI PUSH1 0x40 MLOAD PUSH3 0x461BCD PUSH1 0xE5 SHL DUP2 MSTORE PUSH1 0x4 ADD PUSH2 0x962 SWAP1 PUSH2 0x556A JUMP JUMPDEST PUSH2 0xFE3 DUP5 DUP5 DUP5 DUP5 PUSH2 0x3D94 JUMP JUMPDEST DUP2 PUSH2 0x2B6C JUMPI PUSH1 0x40 MLOAD PUSH3 0x461BCD PUSH1 0xE5 SHL DUP2 MSTORE PUSH1 0x20 PUSH1 0x4 DUP3 ADD MSTORE PUSH1 0x2 PUSH1 0x24 DUP3 ADD MSTORE PUSH2 0x138D PUSH1 0xF2 SHL PUSH1 0x44 DUP3 ADD MSTORE PUSH1 0x64 ADD PUSH2 0x962 JUMP JUMPDEST PUSH1 0x0 PUSH2 0x2B77 DUP3 PUSH2 0x35FF JUMP JUMPDEST PUSH1 0x60 DUP2 ADD MLOAD PUSH1 0x40 DUP3 ADD MLOAD PUSH1 0x80 DUP4 ADD MLOAD SWAP3 SWAP4 POP SWAP1 SWAP2 PUSH1 0x0 JUMPDEST DUP7 DUP2 LT ISZERO PUSH2 0x2CCB JUMPI PUSH1 0x0 PUSH2 0x2BC7 DUP10 DUP10 DUP5 DUP2 DUP2 LT PUSH2 0x2BBB JUMPI PUSH4 0x4E487B71 PUSH1 0xE0 SHL PUSH1 0x0 MSTORE PUSH1 0x32 PUSH1 0x4 MSTORE PUSH1 0x24 PUSH1 0x0 REVERT JUMPDEST SWAP1 POP PUSH1 0x20 MUL ADD CALLDATALOAD PUSH2 0x35FF JUMP JUMPDEST SWAP1 POP DUP1 PUSH1 0x60 ADD MLOAD DUP6 PUSH2 0x2BD9 SWAP2 SWAP1 PUSH2 0x567E JUMP JUMPDEST SWAP5 POP DUP1 PUSH1 0x40 ADD MLOAD DUP5 PUSH2 0x2BEB SWAP2 SWAP1 PUSH2 0x567E JUMP JUMPDEST SWAP4 POP DUP1 PUSH1 0x80 ADD MLOAD DUP4 PUSH2 0x2BFD SWAP2 SWAP1 PUSH2 0x567E JUMP JUMPDEST PUSH1 0x19 SLOAD SWAP1 SWAP4 POP PUSH1 0x1 PUSH1 0x1 PUSH1 0xA0 SHL SUB AND PUSH4 0xDBF21B0 DUP11 DUP11 DUP6 DUP2 DUP2 LT PUSH2 0x2C31 JUMPI PUSH4 0x4E487B71 PUSH1 0xE0 SHL PUSH1 0x0 MSTORE PUSH1 0x32 PUSH1 0x4 MSTORE PUSH1 0x24 PUSH1 0x0 REVERT JUMPDEST SWAP1 POP PUSH1 0x20 MUL ADD CALLDATALOAD PUSH1 0x40 MLOAD DUP3 PUSH4 0xFFFFFFFF AND PUSH1 0xE0 SHL DUP2 MSTORE PUSH1 0x4 ADD PUSH2 0x2C56 SWAP2 DUP2 MSTORE PUSH1 0x20 ADD SWAP1 JUMP JUMPDEST PUSH1 0x0 PUSH1 0x40 MLOAD DUP1 DUP4 SUB DUP2 PUSH1 0x0 DUP8 DUP1 EXTCODESIZE ISZERO DUP1 ISZERO PUSH2 0x2C70 JUMPI PUSH1 0x0 DUP1 REVERT JUMPDEST POP GAS CALL ISZERO DUP1 ISZERO PUSH2 0x2C84 JUMPI RETURNDATASIZE PUSH1 0x0 DUP1 RETURNDATACOPY RETURNDATASIZE PUSH1 0x0 REVERT JUMPDEST POP POP POP POP PUSH2 0x2CB8 DUP10 DUP10 DUP5 DUP2 DUP2 LT PUSH2 0x2CAB JUMPI PUSH4 0x4E487B71 PUSH1 0xE0 SHL PUSH1 0x0 MSTORE PUSH1 0x32 PUSH1 0x4 MSTORE PUSH1 0x24 PUSH1 0x0 REVERT JUMPDEST SWAP1 POP PUSH1 0x20 MUL ADD CALLDATALOAD DUP9 PUSH2 0x3DC7 JUMP JUMPDEST POP DUP1 PUSH2 0x2CC3 DUP2 PUSH2 0x5846 JUMP JUMPDEST SWAP2 POP POP PUSH2 0x2B8E JUMP JUMPDEST POP PUSH2 0x2CD9 DUP6 DUP6 DUP6 DUP6 DUP6 PUSH2 0x36EE JUMP JUMPDEST POP PUSH1 0x19 SLOAD PUSH1 0x40 MLOAD PUSH4 0x57A5C967 PUSH1 0xE0 SHL DUP2 MSTORE PUSH1 0x1 PUSH1 0x1 PUSH1 0xA0 SHL SUB SWAP1 SWAP2 AND SWAP1 PUSH4 0x57A5C967 SWAP1 PUSH2 0x2D0E SWAP1 DUP9 SWAP1 DUP8 SWAP1 DUP7 SWAP1 PUSH1 0x4 ADD PUSH2 0x5668 JUMP JUMPDEST PUSH1 0x0 PUSH1 0x40 MLOAD DUP1 DUP4 SUB DUP2 PUSH1 0x0 DUP8 DUP1 EXTCODESIZE ISZERO DUP1 ISZERO PUSH2 0x2D28 JUMPI PUSH1 0x0 DUP1 REVERT JUMPDEST POP GAS CALL ISZERO DUP1 ISZERO PUSH2 0x2D3C JUMPI RETURNDATASIZE PUSH1 0x0 DUP1 RETURNDATACOPY RETURNDATASIZE PUSH1 0x0 REVERT JUMPDEST POP POP POP POP POP POP POP POP POP POP POP JUMP JUMPDEST PUSH1 0x0 SWAP1 DUP2 MSTORE PUSH1 0xF PUSH1 0x20 MSTORE PUSH1 0x40 SWAP1 KECCAK256 SLOAD SWAP1 JUMP JUMPDEST PUSH1 0x60 PUSH2 0x81D DUP3 PUSH2 0x3F43 JUMP JUMPDEST PUSH1 0x0 DUP3 DUP2 MSTORE PUSH1 0xC PUSH1 0x20 MSTORE PUSH1 0x40 DUP2 KECCAK256 PUSH2 0x2D7E SWAP1 DUP4 PUSH2 0x40A5 JUMP JUMPDEST SWAP4 SWAP3 POP POP POP JUMP JUMPDEST PUSH2 0x2D8E DUP3 PUSH2 0xAC9 JUMP JUMPDEST PUSH2 0x2D98 DUP2 CALLER PUSH2 0x32A4 JUMP JUMPDEST PUSH2 0xA93 DUP4 DUP4 PUSH2 0x338E JUMP JUMPDEST DUP1 PUSH1 0x0 JUMPDEST DUP2 DUP2 LT ISZERO PUSH2 0xFE3 JUMPI PUSH2 0x2DDD DUP5 DUP5 DUP4 DUP2 DUP2 LT PUSH2 0x2DD1 JUMPI PUSH4 0x4E487B71 PUSH1 0xE0 SHL PUSH1 0x0 MSTORE PUSH1 0x32 PUSH1 0x4 MSTORE PUSH1 0x24 PUSH1 0x0 REVERT JUMPDEST SWAP1 POP PUSH1 0x20 MUL ADD CALLDATALOAD PUSH2 0xD5C JUMP JUMPDEST DUP1 PUSH2 0x2DE7 DUP2 PUSH2 0x5846 JUMP JUMPDEST SWAP2 POP POP PUSH2 0x2DA6 JUMP JUMPDEST PUSH1 0x1 PUSH1 0x1 PUSH1 0xA0 SHL SUB SWAP2 DUP3 AND PUSH1 0x0 SWAP1 DUP2 MSTORE PUSH1 0x5 PUSH1 0x20 SWAP1 DUP2 MSTORE PUSH1 0x40 DUP1 DUP4 KECCAK256 SWAP4 SWAP1 SWAP5 AND DUP3 MSTORE SWAP2 SWAP1 SWAP2 MSTORE KECCAK256 SLOAD PUSH1 0xFF AND SWAP1 JUMP JUMPDEST CALLER PUSH2 0x2E26 PUSH2 0x173E JUMP JUMPDEST PUSH1 0x1 PUSH1 0x1 PUSH1 0xA0 SHL SUB AND EQ PUSH2 0x2E4C JUMPI PUSH1 0x40 MLOAD PUSH3 0x461BCD PUSH1 0xE5 SHL DUP2 MSTORE PUSH1 0x4 ADD PUSH2 0x962 SWAP1 PUSH2 0x5535 JUMP JUMPDEST PUSH1 0x1 PUSH1 0x1 PUSH1 0xA0 SHL SUB DUP2 AND PUSH2 0x2EB1 JUMPI PUSH1 0x40 MLOAD PUSH3 0x461BCD PUSH1 0xE5 SHL DUP2 MSTORE PUSH1 0x20 PUSH1 0x4 DUP3 ADD MSTORE PUSH1 0x26 PUSH1 0x24 DUP3 ADD MSTORE PUSH32 0x4F776E61626C653A206E6577206F776E657220697320746865207A65726F2061 PUSH1 0x44 DUP3 ADD MSTORE PUSH6 0x646472657373 PUSH1 0xD0 SHL PUSH1 0x64 DUP3 ADD MSTORE PUSH1 0x84 ADD PUSH2 0x962 JUMP JUMPDEST PUSH2 0xC2C DUP2 PUSH2 0x3BCD JUMP JUMPDEST PUSH1 0x0 PUSH2 0x2EC4 PUSH2 0x3966 JUMP JUMPDEST SWAP1 POP PUSH1 0x0 DUP1 PUSH1 0x0 DUP1 PUSH2 0x2ED6 DUP8 DUP8 PUSH2 0x34D2 JUMP JUMPDEST SWAP4 POP SWAP4 POP SWAP4 POP SWAP4 POP PUSH1 0x0 PUSH1 0x40 MLOAD DUP1 PUSH1 0xE0 ADD PUSH1 0x40 MSTORE DUP1 DUP4 PUSH1 0x0 ADD MLOAD PUSH1 0x3 DUP2 GT ISZERO PUSH2 0x2F0F JUMPI PUSH4 0x4E487B71 PUSH1 0xE0 SHL PUSH1 0x0 MSTORE PUSH1 0x21 PUSH1 0x4 MSTORE PUSH1 0x24 PUSH1 0x0 REVERT JUMPDEST DUP2 MSTORE PUSH1 0x20 ADD DUP4 PUSH1 0x20 ADD MLOAD DUP2 MSTORE PUSH1 0x20 ADD DUP7 DUP2 MSTORE PUSH1 0x20 ADD DUP5 DUP2 MSTORE PUSH1 0x20 ADD DUP6 DUP2 MSTORE PUSH1 0x20 ADD DUP4 PUSH1 0xA0 ADD MLOAD DUP2 MSTORE PUSH1 0x20 ADD DUP4 PUSH1 0xC0 ADD MLOAD PUSH1 0x2 DUP2 GT ISZERO PUSH2 0x2F5E JUMPI PUSH4 0x4E487B71 PUSH1 0xE0 SHL PUSH1 0x0 MSTORE PUSH1 0x21 PUSH1 0x4 MSTORE PUSH1 0x24 PUSH1 0x0 REVERT JUMPDEST SWAP1 MSTORE SWAP1 POP PUSH2 0x2F6C DUP7 DUP3 PUSH2 0x3AAA JUMP JUMPDEST PUSH2 0x2F77 DUP7 DUP5 DUP7 PUSH2 0x3B62 JUMP JUMPDEST PUSH2 0x2F84 DUP11 DUP11 DUP11 DUP10 DUP12 PUSH2 0x3720 JUMP JUMPDEST POP POP POP POP POP SWAP5 SWAP4 POP POP POP POP JUMP JUMPDEST PUSH1 0x0 PUSH1 0x1 PUSH1 0x1 PUSH1 0xE0 SHL SUB NOT DUP3 AND PUSH4 0x7965DB0B PUSH1 0xE0 SHL EQ DUP1 PUSH2 0x81D JUMPI POP PUSH2 0x81D DUP3 PUSH2 0x40B1 JUMP JUMPDEST PUSH1 0x0 SWAP1 DUP2 MSTORE PUSH1 0x2 PUSH1 0x20 MSTORE PUSH1 0x40 SWAP1 KECCAK256 SLOAD PUSH1 0x1 PUSH1 0x1 PUSH1 0xA0 SHL SUB AND ISZERO ISZERO SWAP1 JUMP JUMPDEST PUSH1 0x0 DUP2 DUP2 MSTORE PUSH1 0x4 PUSH1 0x20 MSTORE PUSH1 0x40 SWAP1 KECCAK256 DUP1 SLOAD PUSH1 0x1 PUSH1 0x1 PUSH1 0xA0 SHL SUB NOT AND PUSH1 0x1 PUSH1 0x1 PUSH1 0xA0 SHL SUB DUP5 AND SWAP1 DUP2 OR SWAP1 SWAP2 SSTORE DUP2 SWAP1 PUSH2 0x3008 DUP3 PUSH2 0xFE9 JUMP JUMPDEST PUSH1 0x1 PUSH1 0x1 PUSH1 0xA0 SHL SUB AND PUSH32 0x8C5BE1E5EBEC7D5BD14F71427D1E84F3DD0314C0F7B2291E5B200AC8C7C3B925 PUSH1 0x40 MLOAD PUSH1 0x40 MLOAD DUP1 SWAP2 SUB SWAP1 LOG4 POP POP JUMP JUMPDEST PUSH1 0x0 PUSH2 0x304C DUP3 PUSH2 0x2FB6 JUMP JUMPDEST PUSH2 0x30AD JUMPI PUSH1 0x40 MLOAD PUSH3 0x461BCD PUSH1 0xE5 SHL DUP2 MSTORE PUSH1 0x20 PUSH1 0x4 DUP3 ADD MSTORE PUSH1 0x2C PUSH1 0x24 DUP3 ADD MSTORE PUSH32 0x4552433732313A206F70657261746F7220717565727920666F72206E6F6E6578 PUSH1 0x44 DUP3 ADD MSTORE PUSH12 0x34B9BA32B73A103A37B5B2B7 PUSH1 0xA1 SHL PUSH1 0x64 DUP3 ADD MSTORE PUSH1 0x84 ADD PUSH2 0x962 JUMP JUMPDEST PUSH1 0x0 PUSH2 0x30B8 DUP4 PUSH2 0xFE9 JUMP JUMPDEST SWAP1 POP DUP1 PUSH1 0x1 PUSH1 0x1 PUSH1 0xA0 SHL SUB AND DUP5 PUSH1 0x1 PUSH1 0x1 PUSH1 0xA0 SHL SUB AND EQ DUP1 PUSH2 0x30F3 JUMPI POP DUP4 PUSH1 0x1 PUSH1 0x1 PUSH1 0xA0 SHL SUB AND PUSH2 0x30E8 DUP5 PUSH2 0x8FA JUMP JUMPDEST PUSH1 0x1 PUSH1 0x1 PUSH1 0xA0 SHL SUB AND EQ JUMPDEST DUP1 PUSH2 0x3103 JUMPI POP PUSH2 0x3103 DUP2 DUP6 PUSH2 0x2DEF JUMP JUMPDEST SWAP5 SWAP4 POP POP POP POP JUMP JUMPDEST DUP3 PUSH1 0x1 PUSH1 0x1 PUSH1 0xA0 SHL SUB AND PUSH2 0x311E DUP3 PUSH2 0xFE9 JUMP JUMPDEST PUSH1 0x1 PUSH1 0x1 PUSH1 0xA0 SHL SUB AND EQ PUSH2 0x3186 JUMPI PUSH1 0x40 MLOAD PUSH3 0x461BCD PUSH1 0xE5 SHL DUP2 MSTORE PUSH1 0x20 PUSH1 0x4 DUP3 ADD MSTORE PUSH1 0x29 PUSH1 0x24 DUP3 ADD MSTORE PUSH32 0x4552433732313A207472616E73666572206F6620746F6B656E20746861742069 PUSH1 0x44 DUP3 ADD MSTORE PUSH9 0x39903737BA1037BBB7 PUSH1 0xB9 SHL PUSH1 0x64 DUP3 ADD MSTORE PUSH1 0x84 ADD PUSH2 0x962 JUMP JUMPDEST PUSH1 0x1 PUSH1 0x1 PUSH1 0xA0 SHL SUB DUP3 AND PUSH2 0x31E8 JUMPI PUSH1 0x40 MLOAD PUSH3 0x461BCD PUSH1 0xE5 SHL DUP2 MSTORE PUSH1 0x20 PUSH1 0x4 DUP3 ADD MSTORE PUSH1 0x24 DUP1 DUP3 ADD MSTORE PUSH32 0x4552433732313A207472616E7366657220746F20746865207A65726F20616464 PUSH1 0x44 DUP3 ADD MSTORE PUSH4 0x72657373 PUSH1 0xE0 SHL PUSH1 0x64 DUP3 ADD MSTORE PUSH1 0x84 ADD PUSH2 0x962 JUMP JUMPDEST PUSH2 0x31F3 DUP4 DUP4 DUP4 PUSH2 0x4101 JUMP JUMPDEST PUSH2 0x31FE PUSH1 0x0 DUP3 PUSH2 0x2FD3 JUMP JUMPDEST PUSH1 0x1 PUSH1 0x1 PUSH1 0xA0 SHL SUB DUP4 AND PUSH1 0x0 SWAP1 DUP2 MSTORE PUSH1 0x3 PUSH1 0x20 MSTORE PUSH1 0x40 DUP2 KECCAK256 DUP1 SLOAD PUSH1 0x1 SWAP3 SWAP1 PUSH2 0x3227 SWAP1 DUP5 SWAP1 PUSH2 0x57B7 JUMP JUMPDEST SWAP1 SWAP2 SSTORE POP POP PUSH1 0x1 PUSH1 0x1 PUSH1 0xA0 SHL SUB DUP3 AND PUSH1 0x0 SWAP1 DUP2 MSTORE PUSH1 0x3 PUSH1 0x20 MSTORE PUSH1 0x40 DUP2 KECCAK256 DUP1 SLOAD PUSH1 0x1 SWAP3 SWAP1 PUSH2 0x3255 SWAP1 DUP5 SWAP1 PUSH2 0x567E JUMP JUMPDEST SWAP1 SWAP2 SSTORE POP POP PUSH1 0x0 DUP2 DUP2 MSTORE PUSH1 0x2 PUSH1 0x20 MSTORE PUSH1 0x40 DUP1 DUP3 KECCAK256 DUP1 SLOAD PUSH1 0x1 PUSH1 0x1 PUSH1 0xA0 SHL SUB NOT AND PUSH1 0x1 PUSH1 0x1 PUSH1 0xA0 SHL SUB DUP7 DUP2 AND SWAP2 DUP3 OR SWAP1 SWAP3 SSTORE SWAP2 MLOAD DUP5 SWAP4 SWAP2 DUP8 AND SWAP2 PUSH1 0x0 DUP1 MLOAD PUSH1 0x20 PUSH2 0x5929 DUP4 CODECOPY DUP2 MLOAD SWAP2 MSTORE SWAP2 LOG4 POP POP POP JUMP JUMPDEST PUSH2 0x32AE DUP3 DUP3 PUSH2 0x19E2 JUMP JUMPDEST PUSH2 0xB87 JUMPI PUSH2 0x32C6 DUP2 PUSH1 0x1 PUSH1 0x1 PUSH1 0xA0 SHL SUB AND PUSH1 0x14 PUSH2 0x4119 JUMP JUMPDEST PUSH2 0x32D1 DUP4 PUSH1 0x20 PUSH2 0x4119 JUMP JUMPDEST PUSH1 0x40 MLOAD PUSH1 0x20 ADD PUSH2 0x32E2 SWAP3 SWAP2 SWAP1 PUSH2 0x5302 JUMP JUMPDEST PUSH1 0x40 DUP1 MLOAD PUSH1 0x1F NOT DUP2 DUP5 SUB ADD DUP2 MSTORE SWAP1 DUP3 SWAP1 MSTORE PUSH3 0x461BCD PUSH1 0xE5 SHL DUP3 MSTORE PUSH2 0x962 SWAP2 PUSH1 0x4 ADD PUSH2 0x547B JUMP JUMPDEST PUSH2 0x3312 DUP3 DUP3 PUSH2 0x19E2 JUMP JUMPDEST PUSH2 0xB87 JUMPI PUSH1 0x0 DUP3 DUP2 MSTORE PUSH1 0x8 PUSH1 0x20 SWAP1 DUP2 MSTORE PUSH1 0x40 DUP1 DUP4 KECCAK256 PUSH1 0x1 PUSH1 0x1 PUSH1 0xA0 SHL SUB DUP6 AND DUP5 MSTORE SWAP1 SWAP2 MSTORE SWAP1 KECCAK256 DUP1 SLOAD PUSH1 0xFF NOT AND PUSH1 0x1 OR SWAP1 SSTORE PUSH2 0x334A CALLER SWAP1 JUMP JUMPDEST PUSH1 0x1 PUSH1 0x1 PUSH1 0xA0 SHL SUB AND DUP2 PUSH1 0x1 PUSH1 0x1 PUSH1 0xA0 SHL SUB AND DUP4 PUSH32 0x2F8788117E7EFF1D82E926EC794901D17C78024A50270940304540A733656F0D PUSH1 0x40 MLOAD PUSH1 0x40 MLOAD DUP1 SWAP2 SUB SWAP1 LOG4 POP POP JUMP JUMPDEST PUSH2 0x3398 DUP3 DUP3 PUSH2 0x19E2 JUMP JUMPDEST ISZERO PUSH2 0xB87 JUMPI PUSH1 0x0 DUP3 DUP2 MSTORE PUSH1 0x8 PUSH1 0x20 SWAP1 DUP2 MSTORE PUSH1 0x40 DUP1 DUP4 KECCAK256 PUSH1 0x1 PUSH1 0x1 PUSH1 0xA0 SHL SUB DUP6 AND DUP1 DUP6 MSTORE SWAP3 MSTORE DUP1 DUP4 KECCAK256 DUP1 SLOAD PUSH1 0xFF NOT AND SWAP1 SSTORE MLOAD CALLER SWAP3 DUP6 SWAP2 PUSH32 0xF6391F5C32D9C69D2A47EA670B442974B53935D1EDC7FD64EB21E047A839171B SWAP2 SWAP1 LOG4 POP POP JUMP JUMPDEST PUSH1 0x0 DUP3 DUP2 MSTORE PUSH1 0xB PUSH1 0x20 SWAP1 DUP2 MSTORE PUSH1 0x40 DUP1 DUP4 KECCAK256 PUSH1 0x1 PUSH1 0x1 PUSH1 0xA0 SHL SUB DUP8 AND DUP5 MSTORE PUSH1 0x1 ADD SWAP1 SWAP2 MSTORE SWAP1 KECCAK256 SLOAD PUSH2 0x3457 JUMPI PUSH1 0x0 DUP3 DUP2 MSTORE PUSH1 0xB PUSH1 0x20 SWAP1 DUP2 MSTORE PUSH1 0x40 DUP3 KECCAK256 DUP1 SLOAD PUSH1 0x1 DUP2 ADD DUP3 SSTORE SWAP1 DUP4 MSTORE SWAP2 KECCAK256 ADD DUP1 SLOAD PUSH1 0x1 PUSH1 0x1 PUSH1 0xA0 SHL SUB NOT AND PUSH1 0x1 PUSH1 0x1 PUSH1 0xA0 SHL SUB DUP6 AND OR SWAP1 SSTORE JUMPDEST PUSH1 0x0 DUP3 DUP2 MSTORE PUSH1 0xB PUSH1 0x20 SWAP1 DUP2 MSTORE PUSH1 0x40 DUP1 DUP4 KECCAK256 PUSH1 0x1 PUSH1 0x1 PUSH1 0xA0 SHL SUB DUP8 AND DUP1 DUP6 MSTORE PUSH1 0x1 SWAP1 SWAP2 ADD DUP4 MSTORE SWAP3 DUP2 SWAP1 KECCAK256 DUP5 SWAP1 SSTORE MLOAD DUP4 DUP2 MSTORE DUP5 SWAP3 SWAP2 PUSH32 0x8A156BD946DC74EC284C5F4B365CE75EF2A5B9D9462B4CDB1D2400CABF136541 SWAP2 ADD PUSH1 0x40 MLOAD DUP1 SWAP2 SUB SWAP1 LOG3 POP POP POP JUMP JUMPDEST PUSH1 0x0 DUP2 DUP2 MSTORE PUSH1 0xA PUSH1 0x20 MSTORE PUSH1 0x40 DUP2 KECCAK256 SSTORE PUSH2 0xC2C DUP2 PUSH2 0x42FA JUMP JUMPDEST PUSH1 0x0 DUP1 PUSH1 0x0 PUSH2 0x34DF PUSH2 0x4BE2 JUMP JUMPDEST PUSH2 0x34E8 DUP7 PUSH2 0x35FF JUMP JUMPDEST SWAP1 POP PUSH1 0x0 PUSH2 0x34F5 DUP8 PUSH2 0x2D49 JUMP JUMPDEST SWAP1 POP DUP1 DUP7 DUP4 PUSH1 0x40 ADD MLOAD PUSH2 0x3508 SWAP2 SWAP1 PUSH2 0x5798 JUMP JUMPDEST PUSH2 0x3512 SWAP2 SWAP1 PUSH2 0x5696 JUMP JUMPDEST SWAP5 POP DUP1 DUP7 DUP4 PUSH1 0x80 ADD MLOAD PUSH2 0x3525 SWAP2 SWAP1 PUSH2 0x5798 JUMP JUMPDEST PUSH2 0x352F SWAP2 SWAP1 PUSH2 0x5696 JUMP JUMPDEST SWAP4 POP DUP1 DUP7 DUP4 PUSH1 0x60 ADD MLOAD PUSH2 0x3542 SWAP2 SWAP1 PUSH2 0x5798 JUMP JUMPDEST PUSH2 0x354C SWAP2 SWAP1 PUSH2 0x5696 JUMP JUMPDEST SWAP3 POP PUSH2 0x3583 DUP8 DUP4 DUP6 DUP6 PUSH1 0x60 ADD MLOAD PUSH2 0x3563 SWAP2 SWAP1 PUSH2 0x57B7 JUMP JUMPDEST DUP9 DUP7 PUSH1 0x40 ADD MLOAD PUSH2 0x3573 SWAP2 SWAP1 PUSH2 0x57B7 JUMP JUMPDEST DUP9 DUP8 PUSH1 0x80 ADD MLOAD PUSH2 0xCC2 SWAP2 SWAP1 PUSH2 0x57B7 JUMP JUMPDEST PUSH1 0x19 SLOAD PUSH1 0x60 DUP3 ADD MLOAD PUSH1 0x80 DUP4 ADD MLOAD PUSH1 0x40 MLOAD PUSH4 0x57A5C967 PUSH1 0xE0 SHL DUP2 MSTORE SWAP4 SWAP6 POP PUSH1 0x1 PUSH1 0x1 PUSH1 0xA0 SHL SUB SWAP1 SWAP3 AND SWAP3 PUSH4 0x57A5C967 SWAP3 PUSH2 0x35C3 SWAP3 DUP13 SWAP3 SWAP1 SWAP2 SWAP1 PUSH1 0x4 ADD PUSH2 0x5668 JUMP JUMPDEST PUSH1 0x0 PUSH1 0x40 MLOAD DUP1 DUP4 SUB DUP2 PUSH1 0x0 DUP8 DUP1 EXTCODESIZE ISZERO DUP1 ISZERO PUSH2 0x35DD JUMPI PUSH1 0x0 DUP1 REVERT JUMPDEST POP GAS CALL ISZERO DUP1 ISZERO PUSH2 0x35F1 JUMPI RETURNDATASIZE PUSH1 0x0 DUP1 RETURNDATACOPY RETURNDATASIZE PUSH1 0x0 REVERT JUMPDEST POP POP POP POP POP SWAP3 SWAP6 SWAP2 SWAP5 POP SWAP3 POP JUMP JUMPDEST PUSH2 0x3607 PUSH2 0x4BE2 JUMP JUMPDEST PUSH1 0x0 DUP3 DUP2 MSTORE PUSH1 0x16 PUSH1 0x20 MSTORE PUSH1 0x40 SWAP1 DUP2 SWAP1 KECCAK256 DUP2 MLOAD PUSH1 0xE0 DUP2 ADD SWAP1 SWAP3 MSTORE DUP1 SLOAD DUP3 SWAP1 PUSH1 0xFF AND PUSH1 0x3 DUP2 GT ISZERO PUSH2 0x3646 JUMPI PUSH4 0x4E487B71 PUSH1 0xE0 SHL PUSH1 0x0 MSTORE PUSH1 0x21 PUSH1 0x4 MSTORE PUSH1 0x24 PUSH1 0x0 REVERT JUMPDEST PUSH1 0x3 DUP2 GT ISZERO PUSH2 0x3665 JUMPI PUSH4 0x4E487B71 PUSH1 0xE0 SHL PUSH1 0x0 MSTORE PUSH1 0x21 PUSH1 0x4 MSTORE PUSH1 0x24 PUSH1 0x0 REVERT JUMPDEST DUP2 MSTORE PUSH1 0x1 DUP3 ADD SLOAD PUSH1 0x20 DUP3 ADD MSTORE PUSH1 0x2 DUP1 DUP4 ADD SLOAD PUSH1 0x40 DUP4 ADD MSTORE PUSH1 0x3 DUP4 ADD SLOAD PUSH1 0x60 DUP4 ADD MSTORE PUSH1 0x4 DUP4 ADD SLOAD PUSH1 0x80 DUP4 ADD MSTORE PUSH1 0x5 DUP4 ADD SLOAD PUSH1 0xA0 DUP4 ADD MSTORE PUSH1 0x6 DUP4 ADD SLOAD PUSH1 0xC0 SWAP1 SWAP3 ADD SWAP2 PUSH1 0xFF AND SWAP1 DUP2 GT ISZERO PUSH2 0x36C6 JUMPI PUSH4 0x4E487B71 PUSH1 0xE0 SHL PUSH1 0x0 MSTORE PUSH1 0x21 PUSH1 0x4 MSTORE PUSH1 0x24 PUSH1 0x0 REVERT JUMPDEST PUSH1 0x2 DUP2 GT ISZERO PUSH2 0x36E5 JUMPI PUSH4 0x4E487B71 PUSH1 0xE0 SHL PUSH1 0x0 MSTORE PUSH1 0x21 PUSH1 0x4 MSTORE PUSH1 0x24 PUSH1 0x0 REVERT JUMPDEST SWAP1 MSTORE POP SWAP3 SWAP2 POP POP JUMP JUMPDEST PUSH2 0x36F6 PUSH2 0x4BE2 JUMP JUMPDEST POP PUSH1 0x60 DUP5 ADD DUP4 SWAP1 MSTORE PUSH1 0x40 DUP5 ADD DUP3 SWAP1 MSTORE PUSH1 0x80 DUP5 ADD DUP2 SWAP1 MSTORE DUP4 PUSH2 0x3717 DUP7 DUP3 PUSH2 0x3AAA JUMP JUMPDEST SWAP6 SWAP5 POP POP POP POP POP JUMP JUMPDEST PUSH2 0x3729 DUP4 PUSH2 0xFE9 JUMP JUMPDEST PUSH1 0x1 PUSH1 0x1 PUSH1 0xA0 SHL SUB AND DUP6 PUSH1 0x1 PUSH1 0x1 PUSH1 0xA0 SHL SUB AND EQ PUSH2 0x376E JUMPI PUSH1 0x40 MLOAD PUSH3 0x461BCD PUSH1 0xE5 SHL DUP2 MSTORE PUSH1 0x20 PUSH1 0x4 DUP3 ADD MSTORE PUSH1 0x2 PUSH1 0x24 DUP3 ADD MSTORE PUSH2 0x4E39 PUSH1 0xF0 SHL PUSH1 0x44 DUP3 ADD MSTORE PUSH1 0x64 ADD PUSH2 0x962 JUMP JUMPDEST PUSH1 0x1 PUSH1 0x1 PUSH1 0xA0 SHL SUB DUP5 AND PUSH2 0x37AA JUMPI PUSH1 0x40 MLOAD PUSH3 0x461BCD PUSH1 0xE5 SHL DUP2 MSTORE PUSH1 0x20 PUSH1 0x4 DUP3 ADD MSTORE PUSH1 0x3 PUSH1 0x24 DUP3 ADD MSTORE PUSH3 0x4E313 PUSH1 0xEC SHL PUSH1 0x44 DUP3 ADD MSTORE PUSH1 0x64 ADD PUSH2 0x962 JUMP JUMPDEST CALLER PUSH1 0x1 PUSH1 0x1 PUSH1 0xA0 SHL SUB DUP7 AND EQ DUP1 ISZERO SWAP1 PUSH2 0x37CA JUMPI POP PUSH2 0x37C8 DUP6 CALLER PUSH2 0x2DEF JUMP JUMPDEST ISZERO JUMPDEST ISZERO PUSH2 0x3815 JUMPI PUSH1 0x0 DUP4 DUP2 MSTORE PUSH1 0xB PUSH1 0x20 SWAP1 DUP2 MSTORE PUSH1 0x40 DUP1 DUP4 KECCAK256 CALLER DUP5 MSTORE PUSH1 0x1 ADD SWAP1 SWAP2 MSTORE SWAP1 KECCAK256 SLOAD PUSH2 0x37F7 SWAP1 DUP3 SWAP1 PUSH2 0x57B7 JUMP JUMPDEST PUSH1 0x0 DUP5 DUP2 MSTORE PUSH1 0xB PUSH1 0x20 SWAP1 DUP2 MSTORE PUSH1 0x40 DUP1 DUP4 KECCAK256 CALLER DUP5 MSTORE PUSH1 0x1 ADD SWAP1 SWAP2 MSTORE SWAP1 KECCAK256 SSTORE JUMPDEST PUSH1 0x0 DUP4 DUP2 MSTORE PUSH1 0xF PUSH1 0x20 MSTORE PUSH1 0x40 SWAP1 KECCAK256 SLOAD PUSH2 0x382F SWAP1 DUP3 SWAP1 PUSH2 0x57B7 JUMP JUMPDEST PUSH1 0x0 DUP5 DUP2 MSTORE PUSH1 0xF PUSH1 0x20 MSTORE PUSH1 0x40 SWAP1 KECCAK256 SSTORE PUSH2 0x3847 DUP3 PUSH2 0x2FB6 JUMP JUMPDEST PUSH2 0x3864 JUMPI PUSH2 0x385F DUP5 DUP4 PUSH2 0x3859 DUP7 PUSH2 0xADE JUMP JUMPDEST DUP5 PUSH2 0x438C JUMP JUMPDEST PUSH2 0x390C JUMP JUMPDEST DUP4 PUSH1 0x1 PUSH1 0x1 PUSH1 0xA0 SHL SUB AND PUSH2 0x3877 DUP4 PUSH2 0xFE9 JUMP JUMPDEST PUSH1 0x1 PUSH1 0x1 PUSH1 0xA0 SHL SUB AND EQ PUSH2 0x38B3 JUMPI PUSH1 0x40 MLOAD PUSH3 0x461BCD PUSH1 0xE5 SHL DUP2 MSTORE PUSH1 0x20 PUSH1 0x4 DUP3 ADD MSTORE PUSH1 0x3 PUSH1 0x24 DUP3 ADD MSTORE PUSH3 0x4E3131 PUSH1 0xE8 SHL PUSH1 0x44 DUP3 ADD MSTORE PUSH1 0x64 ADD PUSH2 0x962 JUMP JUMPDEST PUSH2 0x38BC DUP3 PUSH2 0xADE JUMP JUMPDEST PUSH2 0x38C5 DUP5 PUSH2 0xADE JUMP JUMPDEST EQ PUSH2 0x38E2 JUMPI PUSH1 0x40 MLOAD PUSH3 0x461BCD PUSH1 0xE5 SHL DUP2 MSTORE PUSH1 0x4 ADD PUSH2 0x962 SWAP1 PUSH2 0x5519 JUMP JUMPDEST PUSH1 0x0 DUP3 DUP2 MSTORE PUSH1 0xF PUSH1 0x20 MSTORE PUSH1 0x40 SWAP1 KECCAK256 SLOAD PUSH2 0x38FC SWAP1 DUP3 SWAP1 PUSH2 0x567E JUMP JUMPDEST PUSH1 0x0 DUP4 DUP2 MSTORE PUSH1 0xF PUSH1 0x20 MSTORE PUSH1 0x40 SWAP1 KECCAK256 SSTORE JUMPDEST PUSH1 0x0 DUP4 DUP2 MSTORE PUSH1 0xA PUSH1 0x20 MSTORE PUSH1 0x40 DUP1 DUP3 KECCAK256 SLOAD DUP5 DUP4 MSTORE SWAP2 DUP2 SWAP1 KECCAK256 SWAP2 SWAP1 SWAP2 SSTORE MLOAD DUP4 SWAP1 PUSH1 0x1 PUSH1 0x1 PUSH1 0xA0 SHL SUB DUP1 DUP8 AND SWAP2 SWAP1 DUP9 AND SWAP1 PUSH1 0x0 DUP1 MLOAD PUSH1 0x20 PUSH2 0x5949 DUP4 CODECOPY DUP2 MLOAD SWAP2 MSTORE SWAP1 PUSH2 0x3957 SWAP1 DUP8 SWAP1 DUP8 SWAP1 PUSH2 0x546D JUMP JUMPDEST PUSH1 0x40 MLOAD DUP1 SWAP2 SUB SWAP1 LOG4 POP POP POP POP POP JUMP JUMPDEST PUSH1 0x15 DUP1 SLOAD PUSH1 0x0 SWAP2 DUP3 PUSH2 0x3977 DUP4 PUSH2 0x5846 JUMP JUMPDEST SWAP2 SWAP1 POP SSTORE SWAP1 POP SWAP1 JUMP JUMPDEST PUSH2 0x398A CALLER DUP5 PUSH2 0x3041 JUMP JUMPDEST PUSH2 0x39BB JUMPI PUSH1 0x40 MLOAD PUSH3 0x461BCD PUSH1 0xE5 SHL DUP2 MSTORE PUSH1 0x20 PUSH1 0x4 DUP3 ADD MSTORE PUSH1 0x2 PUSH1 0x24 DUP3 ADD MSTORE PUSH2 0x2719 PUSH1 0xF1 SHL PUSH1 0x44 DUP3 ADD MSTORE PUSH1 0x64 ADD PUSH2 0x962 JUMP JUMPDEST PUSH2 0x39C4 DUP3 PUSH2 0x2FB6 JUMP JUMPDEST ISZERO PUSH2 0x39F6 JUMPI PUSH1 0x40 MLOAD PUSH3 0x461BCD PUSH1 0xE5 SHL DUP2 MSTORE PUSH1 0x20 PUSH1 0x4 DUP3 ADD MSTORE PUSH1 0x2 PUSH1 0x24 DUP3 ADD MSTORE PUSH2 0x4E33 PUSH1 0xF0 SHL PUSH1 0x44 DUP3 ADD MSTORE PUSH1 0x64 ADD PUSH2 0x962 JUMP JUMPDEST PUSH2 0x3A15 DUP3 PUSH2 0x3A03 DUP6 PUSH2 0xADE JUMP JUMPDEST PUSH1 0x0 SWAP2 DUP3 MSTORE PUSH1 0xA PUSH1 0x20 MSTORE PUSH1 0x40 SWAP1 SWAP2 KECCAK256 SSTORE JUMP JUMPDEST PUSH1 0x0 DUP4 DUP2 MSTORE PUSH1 0xF PUSH1 0x20 MSTORE PUSH1 0x40 SWAP1 KECCAK256 SLOAD PUSH2 0x3A2F SWAP1 DUP3 SWAP1 PUSH2 0x57B7 JUMP JUMPDEST PUSH1 0x0 DUP5 DUP2 MSTORE PUSH1 0xF PUSH1 0x20 MSTORE PUSH1 0x40 DUP2 KECCAK256 SWAP2 SWAP1 SWAP2 SSTORE PUSH2 0x3A4A DUP5 PUSH2 0xFE9 JUMP JUMPDEST SWAP1 POP PUSH2 0x3A60 DUP2 DUP5 PUSH2 0x3A5A DUP8 PUSH2 0xADE JUMP JUMPDEST DUP6 PUSH2 0x438C JUMP JUMPDEST DUP4 DUP2 PUSH1 0x1 PUSH1 0x1 PUSH1 0xA0 SHL SUB AND PUSH32 0xF66885C33D648FCD0D97E0F2A18E30102169C22763473AF0FB716F11B4A17DD6 DUP6 DUP6 PUSH1 0x40 MLOAD PUSH2 0x3A9C SWAP3 SWAP2 SWAP1 PUSH2 0x546D JUMP JUMPDEST PUSH1 0x40 MLOAD DUP1 SWAP2 SUB SWAP1 LOG3 POP POP POP POP JUMP JUMPDEST PUSH1 0x0 DUP3 DUP2 MSTORE PUSH1 0x16 PUSH1 0x20 MSTORE PUSH1 0x40 SWAP1 KECCAK256 DUP2 MLOAD DUP2 SLOAD DUP4 SWAP3 SWAP2 SWAP1 DUP3 SWAP1 PUSH1 0xFF NOT AND PUSH1 0x1 DUP4 PUSH1 0x3 DUP2 GT ISZERO PUSH2 0x3AE8 JUMPI PUSH4 0x4E487B71 PUSH1 0xE0 SHL PUSH1 0x0 MSTORE PUSH1 0x21 PUSH1 0x4 MSTORE PUSH1 0x24 PUSH1 0x0 REVERT JUMPDEST MUL OR SWAP1 SSTORE POP PUSH1 0x20 DUP3 ADD MLOAD DUP2 PUSH1 0x1 ADD SSTORE PUSH1 0x40 DUP3 ADD MLOAD DUP2 PUSH1 0x2 ADD SSTORE PUSH1 0x60 DUP3 ADD MLOAD DUP2 PUSH1 0x3 ADD SSTORE PUSH1 0x80 DUP3 ADD MLOAD DUP2 PUSH1 0x4 ADD SSTORE PUSH1 0xA0 DUP3 ADD MLOAD DUP2 PUSH1 0x5 ADD SSTORE PUSH1 0xC0 DUP3 ADD MLOAD DUP2 PUSH1 0x6 ADD PUSH1 0x0 PUSH2 0x100 EXP DUP2 SLOAD DUP2 PUSH1 0xFF MUL NOT AND SWAP1 DUP4 PUSH1 0x2 DUP2 GT ISZERO PUSH2 0x3B57 JUMPI PUSH4 0x4E487B71 PUSH1 0xE0 SHL PUSH1 0x0 MSTORE PUSH1 0x21 PUSH1 0x4 MSTORE PUSH1 0x24 PUSH1 0x0 REVERT JUMPDEST MUL OR SWAP1 SSTORE POP POP POP POP POP JUMP JUMPDEST PUSH1 0x19 SLOAD PUSH1 0x40 MLOAD PUSH4 0xEDD0D421 PUSH1 0xE0 SHL DUP2 MSTORE PUSH1 0x1 PUSH1 0x1 PUSH1 0xA0 SHL SUB SWAP1 SWAP2 AND SWAP1 PUSH4 0xEDD0D421 SWAP1 PUSH2 0x3B96 SWAP1 DUP7 SWAP1 DUP7 SWAP1 DUP7 SWAP1 PUSH1 0x4 ADD PUSH2 0x5668 JUMP JUMPDEST PUSH1 0x0 PUSH1 0x40 MLOAD DUP1 DUP4 SUB DUP2 PUSH1 0x0 DUP8 DUP1 EXTCODESIZE ISZERO DUP1 ISZERO PUSH2 0x3BB0 JUMPI PUSH1 0x0 DUP1 REVERT JUMPDEST POP GAS CALL ISZERO DUP1 ISZERO PUSH2 0x3BC4 JUMPI RETURNDATASIZE PUSH1 0x0 DUP1 RETURNDATACOPY RETURNDATASIZE PUSH1 0x0 REVERT JUMPDEST POP POP POP POP POP POP POP JUMP JUMPDEST PUSH1 0x6 DUP1 SLOAD PUSH1 0x1 PUSH1 0x1 PUSH1 0xA0 SHL SUB DUP4 DUP2 AND PUSH1 0x1 PUSH1 0x1 PUSH1 0xA0 SHL SUB NOT DUP4 AND DUP2 OR SWAP1 SWAP4 SSTORE PUSH1 0x40 MLOAD SWAP2 AND SWAP2 SWAP1 DUP3 SWAP1 PUSH32 0x8BE0079C531659141344CD1FD0A4F28419497F9722A3DAAFE3B4186F6B6457E0 SWAP1 PUSH1 0x0 SWAP1 LOG3 POP POP JUMP JUMPDEST PUSH1 0x0 DUP4 DUP4 DUP4 DUP8 PUSH1 0x40 MLOAD PUSH1 0x20 ADD PUSH2 0x3C38 SWAP5 SWAP4 SWAP3 SWAP2 SWAP1 PUSH2 0x561F JUMP JUMPDEST PUSH1 0x40 DUP1 MLOAD DUP1 DUP4 SUB PUSH1 0x1F NOT ADD DUP2 MSTORE SWAP2 DUP2 MSTORE DUP2 MLOAD PUSH1 0x20 SWAP3 DUP4 ADD KECCAK256 PUSH1 0x0 DUP2 DUP2 MSTORE PUSH1 0x1B SWAP1 SWAP4 MSTORE SWAP2 KECCAK256 PUSH1 0x2 ADD SLOAD SWAP1 SWAP2 POP PUSH2 0x100 SWAP1 DIV PUSH1 0xFF AND ISZERO PUSH2 0x3C9E JUMPI PUSH1 0x40 MLOAD PUSH3 0x461BCD PUSH1 0xE5 SHL DUP2 MSTORE PUSH1 0x20 PUSH1 0x4 DUP3 ADD MSTORE PUSH1 0x3 PUSH1 0x24 DUP3 ADD MSTORE PUSH3 0x138C4D PUSH1 0xEA SHL PUSH1 0x44 DUP3 ADD MSTORE PUSH1 0x64 ADD PUSH2 0x962 JUMP JUMPDEST PUSH1 0x40 MLOAD DUP1 PUSH1 0x80 ADD PUSH1 0x40 MSTORE DUP1 DUP6 DUP2 MSTORE PUSH1 0x20 ADD DUP5 DUP2 MSTORE PUSH1 0x20 ADD DUP4 PUSH1 0x2 DUP2 GT ISZERO PUSH2 0x3CD5 JUMPI PUSH4 0x4E487B71 PUSH1 0xE0 SHL PUSH1 0x0 MSTORE PUSH1 0x21 PUSH1 0x4 MSTORE PUSH1 0x24 PUSH1 0x0 REVERT JUMPDEST DUP2 MSTORE PUSH1 0x1 PUSH1 0x20 SWAP2 DUP3 ADD DUP2 SWAP1 MSTORE PUSH1 0x0 DUP5 DUP2 MSTORE PUSH1 0x1B DUP4 MSTORE PUSH1 0x40 SWAP1 DUP2 SWAP1 KECCAK256 DUP5 MLOAD DUP2 SSTORE SWAP3 DUP5 ADD MLOAD DUP4 DUP4 ADD SSTORE DUP4 ADD MLOAD PUSH1 0x2 DUP1 DUP5 ADD DUP1 SLOAD SWAP3 SWAP4 SWAP1 SWAP3 PUSH1 0xFF NOT AND SWAP2 DUP5 SWAP1 DUP2 GT ISZERO PUSH2 0x3D2E JUMPI PUSH4 0x4E487B71 PUSH1 0xE0 SHL PUSH1 0x0 MSTORE PUSH1 0x21 PUSH1 0x4 MSTORE PUSH1 0x24 PUSH1 0x0 REVERT JUMPDEST MUL OR SWAP1 SSTORE POP PUSH1 0x60 SWAP2 SWAP1 SWAP2 ADD MLOAD PUSH1 0x2 SWAP1 SWAP2 ADD DUP1 SLOAD SWAP2 ISZERO ISZERO PUSH2 0x100 MUL PUSH2 0xFF00 NOT SWAP1 SWAP3 AND SWAP2 SWAP1 SWAP2 OR SWAP1 SSTORE SWAP5 SWAP4 POP POP POP POP JUMP JUMPDEST PUSH1 0x0 DUP4 DUP2 MSTORE PUSH1 0xA PUSH1 0x20 MSTORE PUSH1 0x40 SWAP1 KECCAK256 DUP2 SWAP1 SSTORE PUSH1 0xD SLOAD PUSH2 0xA93 SWAP1 DUP4 SWAP1 DUP6 SWAP1 DUP5 SWAP1 PUSH2 0x438C JUMP JUMPDEST PUSH2 0xB87 DUP3 DUP3 PUSH2 0x4416 JUMP JUMPDEST PUSH1 0x0 PUSH2 0x81D DUP3 SLOAD SWAP1 JUMP JUMPDEST PUSH2 0x3D9F DUP5 DUP5 DUP5 PUSH2 0x310B JUMP JUMPDEST PUSH2 0x3DAB DUP5 DUP5 DUP5 DUP5 PUSH2 0x44A1 JUMP JUMPDEST PUSH2 0xFE3 JUMPI PUSH1 0x40 MLOAD PUSH3 0x461BCD PUSH1 0xE5 SHL DUP2 MSTORE PUSH1 0x4 ADD PUSH2 0x962 SWAP1 PUSH2 0x54AA JUMP JUMPDEST PUSH2 0x3DD0 CALLER PUSH2 0x2B0C JUMP JUMPDEST PUSH2 0x3E01 JUMPI PUSH1 0x40 MLOAD PUSH3 0x461BCD PUSH1 0xE5 SHL DUP2 MSTORE PUSH1 0x20 PUSH1 0x4 DUP3 ADD MSTORE PUSH1 0x2 PUSH1 0x24 DUP3 ADD MSTORE PUSH2 0x4E35 PUSH1 0xF0 SHL PUSH1 0x44 DUP3 ADD MSTORE PUSH1 0x64 ADD PUSH2 0x962 JUMP JUMPDEST DUP1 DUP3 EQ ISZERO PUSH2 0x3E36 JUMPI PUSH1 0x40 MLOAD PUSH3 0x461BCD PUSH1 0xE5 SHL DUP2 MSTORE PUSH1 0x20 PUSH1 0x4 DUP3 ADD MSTORE PUSH1 0x2 PUSH1 0x24 DUP3 ADD MSTORE PUSH2 0x271B PUSH1 0xF1 SHL PUSH1 0x44 DUP3 ADD MSTORE PUSH1 0x64 ADD PUSH2 0x962 JUMP JUMPDEST PUSH2 0x3E3F DUP2 PUSH2 0xADE JUMP JUMPDEST PUSH2 0x3E48 DUP4 PUSH2 0xADE JUMP JUMPDEST EQ PUSH2 0x3E65 JUMPI PUSH1 0x40 MLOAD PUSH3 0x461BCD PUSH1 0xE5 SHL DUP2 MSTORE PUSH1 0x4 ADD PUSH2 0x962 SWAP1 PUSH2 0x5519 JUMP JUMPDEST PUSH1 0x0 PUSH2 0x3E70 DUP4 PUSH2 0xFE9 JUMP JUMPDEST SWAP1 POP PUSH2 0x3E7B DUP3 PUSH2 0xFE9 JUMP JUMPDEST PUSH1 0x1 PUSH1 0x1 PUSH1 0xA0 SHL SUB AND DUP2 PUSH1 0x1 PUSH1 0x1 PUSH1 0xA0 SHL SUB AND EQ PUSH2 0x3EC0 JUMPI PUSH1 0x40 MLOAD PUSH3 0x461BCD PUSH1 0xE5 SHL DUP2 MSTORE PUSH1 0x20 PUSH1 0x4 DUP3 ADD MSTORE PUSH1 0x2 PUSH1 0x24 DUP3 ADD MSTORE PUSH2 0x9C7 PUSH1 0xF3 SHL PUSH1 0x44 DUP3 ADD MSTORE PUSH1 0x64 ADD PUSH2 0x962 JUMP JUMPDEST PUSH1 0x0 DUP4 DUP2 MSTORE PUSH1 0xF PUSH1 0x20 MSTORE PUSH1 0x40 DUP1 DUP3 KECCAK256 SLOAD DUP5 DUP4 MSTORE SWAP2 KECCAK256 SLOAD PUSH2 0x3EE0 SWAP1 DUP3 PUSH2 0x567E JUMP JUMPDEST PUSH1 0x0 DUP5 DUP2 MSTORE PUSH1 0xF PUSH1 0x20 MSTORE PUSH1 0x40 SWAP1 KECCAK256 SSTORE PUSH2 0x3EF8 DUP5 PUSH2 0x34BA JUMP JUMPDEST DUP3 DUP5 DUP4 PUSH1 0x1 PUSH1 0x1 PUSH1 0xA0 SHL SUB AND PUSH32 0xB3CE851D16B3BBEC3774D5631A3893DFA2A80E067CFAD265DD594402AC3D6096 DUP5 PUSH1 0x40 MLOAD PUSH2 0x3F35 SWAP2 DUP2 MSTORE PUSH1 0x20 ADD SWAP1 JUMP JUMPDEST PUSH1 0x40 MLOAD DUP1 SWAP2 SUB SWAP1 LOG4 POP POP POP POP JUMP JUMPDEST PUSH1 0x60 PUSH2 0x3F4E DUP3 PUSH2 0x2FB6 JUMP JUMPDEST PUSH2 0x3FB4 JUMPI PUSH1 0x40 MLOAD PUSH3 0x461BCD PUSH1 0xE5 SHL DUP2 MSTORE PUSH1 0x20 PUSH1 0x4 DUP3 ADD MSTORE PUSH1 0x31 PUSH1 0x24 DUP3 ADD MSTORE PUSH32 0x45524337323155524953746F726167653A2055524920717565727920666F7220 PUSH1 0x44 DUP3 ADD MSTORE PUSH17 0x3737B732BC34B9BA32B73A103A37B5B2B7 PUSH1 0x79 SHL PUSH1 0x64 DUP3 ADD MSTORE PUSH1 0x84 ADD PUSH2 0x962 JUMP JUMPDEST PUSH1 0x0 DUP3 DUP2 MSTORE PUSH1 0x9 PUSH1 0x20 MSTORE PUSH1 0x40 DUP2 KECCAK256 DUP1 SLOAD PUSH2 0x3FCD SWAP1 PUSH2 0x5811 JUMP JUMPDEST DUP1 PUSH1 0x1F ADD PUSH1 0x20 DUP1 SWAP2 DIV MUL PUSH1 0x20 ADD PUSH1 0x40 MLOAD SWAP1 DUP2 ADD PUSH1 0x40 MSTORE DUP1 SWAP3 SWAP2 SWAP1 DUP2 DUP2 MSTORE PUSH1 0x20 ADD DUP3 DUP1 SLOAD PUSH2 0x3FF9 SWAP1 PUSH2 0x5811 JUMP JUMPDEST DUP1 ISZERO PUSH2 0x4046 JUMPI DUP1 PUSH1 0x1F LT PUSH2 0x401B JUMPI PUSH2 0x100 DUP1 DUP4 SLOAD DIV MUL DUP4 MSTORE SWAP2 PUSH1 0x20 ADD SWAP2 PUSH2 0x4046 JUMP JUMPDEST DUP3 ADD SWAP2 SWAP1 PUSH1 0x0 MSTORE PUSH1 0x20 PUSH1 0x0 KECCAK256 SWAP1 JUMPDEST DUP2 SLOAD DUP2 MSTORE SWAP1 PUSH1 0x1 ADD SWAP1 PUSH1 0x20 ADD DUP1 DUP4 GT PUSH2 0x4029 JUMPI DUP3 SWAP1 SUB PUSH1 0x1F AND DUP3 ADD SWAP2 JUMPDEST POP POP POP POP POP SWAP1 POP PUSH1 0x0 PUSH2 0x4057 PUSH2 0x45AE JUMP JUMPDEST SWAP1 POP DUP1 MLOAD PUSH1 0x0 EQ ISZERO PUSH2 0x406A JUMPI POP SWAP3 SWAP2 POP POP JUMP JUMPDEST DUP2 MLOAD ISZERO PUSH2 0x409C JUMPI DUP1 DUP3 PUSH1 0x40 MLOAD PUSH1 0x20 ADD PUSH2 0x4084 SWAP3 SWAP2 SWAP1 PUSH2 0x52D3 JUMP JUMPDEST PUSH1 0x40 MLOAD PUSH1 0x20 DUP2 DUP4 SUB SUB DUP2 MSTORE SWAP1 PUSH1 0x40 MSTORE SWAP3 POP POP POP SWAP2 SWAP1 POP JUMP JUMPDEST PUSH2 0x3103 DUP5 PUSH2 0x45CE JUMP JUMPDEST PUSH1 0x0 PUSH2 0x2D7E DUP4 DUP4 PUSH2 0x4698 JUMP JUMPDEST PUSH1 0x0 PUSH1 0x1 PUSH1 0x1 PUSH1 0xE0 SHL SUB NOT DUP3 AND PUSH4 0x80AC58CD PUSH1 0xE0 SHL EQ DUP1 PUSH2 0x40E2 JUMPI POP PUSH1 0x1 PUSH1 0x1 PUSH1 0xE0 SHL SUB NOT DUP3 AND PUSH4 0x5B5E139F PUSH1 0xE0 SHL EQ JUMPDEST DUP1 PUSH2 0x81D JUMPI POP PUSH4 0x1FFC9A7 PUSH1 0xE0 SHL PUSH1 0x1 PUSH1 0x1 PUSH1 0xE0 SHL SUB NOT DUP4 AND EQ PUSH2 0x81D JUMP JUMPDEST PUSH1 0x1 PUSH1 0x1 PUSH1 0xA0 SHL SUB DUP4 AND ISZERO PUSH2 0xA93 JUMPI PUSH2 0xA93 DUP2 PUSH2 0x46D0 JUMP JUMPDEST PUSH1 0x60 PUSH1 0x0 PUSH2 0x4128 DUP4 PUSH1 0x2 PUSH2 0x5798 JUMP JUMPDEST PUSH2 0x4133 SWAP1 PUSH1 0x2 PUSH2 0x567E JUMP JUMPDEST PUSH1 0x1 PUSH1 0x1 PUSH1 0x40 SHL SUB DUP2 GT ISZERO PUSH2 0x4158 JUMPI PUSH4 0x4E487B71 PUSH1 0xE0 SHL PUSH1 0x0 MSTORE PUSH1 0x41 PUSH1 0x4 MSTORE PUSH1 0x24 PUSH1 0x0 REVERT JUMPDEST PUSH1 0x40 MLOAD SWAP1 DUP1 DUP3 MSTORE DUP1 PUSH1 0x1F ADD PUSH1 0x1F NOT AND PUSH1 0x20 ADD DUP3 ADD PUSH1 0x40 MSTORE DUP1 ISZERO PUSH2 0x4182 JUMPI PUSH1 0x20 DUP3 ADD DUP2 DUP1 CALLDATASIZE DUP4 CALLDATACOPY ADD SWAP1 POP JUMPDEST POP SWAP1 POP PUSH1 0x3 PUSH1 0xFC SHL DUP2 PUSH1 0x0 DUP2 MLOAD DUP2 LT PUSH2 0x41AB JUMPI PUSH4 0x4E487B71 PUSH1 0xE0 SHL PUSH1 0x0 MSTORE PUSH1 0x32 PUSH1 0x4 MSTORE PUSH1 0x24 PUSH1 0x0 REVERT JUMPDEST PUSH1 0x20 ADD ADD SWAP1 PUSH1 0x1 PUSH1 0x1 PUSH1 0xF8 SHL SUB NOT AND SWAP1 DUP2 PUSH1 0x0 BYTE SWAP1 MSTORE8 POP PUSH1 0xF PUSH1 0xFB SHL DUP2 PUSH1 0x1 DUP2 MLOAD DUP2 LT PUSH2 0x41E8 JUMPI PUSH4 0x4E487B71 PUSH1 0xE0 SHL PUSH1 0x0 MSTORE PUSH1 0x32 PUSH1 0x4 MSTORE PUSH1 0x24 PUSH1 0x0 REVERT JUMPDEST PUSH1 0x20 ADD ADD SWAP1 PUSH1 0x1 PUSH1 0x1 PUSH1 0xF8 SHL SUB NOT AND SWAP1 DUP2 PUSH1 0x0 BYTE SWAP1 MSTORE8 POP PUSH1 0x0 PUSH2 0x420C DUP5 PUSH1 0x2 PUSH2 0x5798 JUMP JUMPDEST PUSH2 0x4217 SWAP1 PUSH1 0x1 PUSH2 0x567E JUMP JUMPDEST SWAP1 POP JUMPDEST PUSH1 0x1 DUP2 GT ISZERO PUSH2 0x42AB JUMPI PUSH16 0x181899199A1A9B1B9C1CB0B131B232B3 PUSH1 0x81 SHL DUP6 PUSH1 0xF AND PUSH1 0x10 DUP2 LT PUSH2 0x4259 JUMPI PUSH4 0x4E487B71 PUSH1 0xE0 SHL PUSH1 0x0 MSTORE PUSH1 0x32 PUSH1 0x4 MSTORE PUSH1 0x24 PUSH1 0x0 REVERT JUMPDEST BYTE PUSH1 0xF8 SHL DUP3 DUP3 DUP2 MLOAD DUP2 LT PUSH2 0x427D JUMPI PUSH4 0x4E487B71 PUSH1 0xE0 SHL PUSH1 0x0 MSTORE PUSH1 0x32 PUSH1 0x4 MSTORE PUSH1 0x24 PUSH1 0x0 REVERT JUMPDEST PUSH1 0x20 ADD ADD SWAP1 PUSH1 0x1 PUSH1 0x1 PUSH1 0xF8 SHL SUB NOT AND SWAP1 DUP2 PUSH1 0x0 BYTE SWAP1 MSTORE8 POP PUSH1 0x4 SWAP5 SWAP1 SWAP5 SHR SWAP4 PUSH2 0x42A4 DUP2 PUSH2 0x57FA JUMP JUMPDEST SWAP1 POP PUSH2 0x421A JUMP JUMPDEST POP DUP4 ISZERO PUSH2 0x2D7E JUMPI PUSH1 0x40 MLOAD PUSH3 0x461BCD PUSH1 0xE5 SHL DUP2 MSTORE PUSH1 0x20 PUSH1 0x4 DUP3 ADD DUP2 SWAP1 MSTORE PUSH1 0x24 DUP3 ADD MSTORE PUSH32 0x537472696E67733A20686578206C656E67746820696E73756666696369656E74 PUSH1 0x44 DUP3 ADD MSTORE PUSH1 0x64 ADD PUSH2 0x962 JUMP JUMPDEST PUSH1 0x0 PUSH2 0x4305 DUP3 PUSH2 0xFE9 JUMP JUMPDEST SWAP1 POP PUSH1 0x0 PUSH2 0x4312 DUP4 PUSH2 0xADE JUMP JUMPDEST PUSH1 0x0 DUP5 DUP2 MSTORE PUSH1 0xF PUSH1 0x20 SWAP1 DUP2 MSTORE PUSH1 0x40 DUP1 DUP4 KECCAK256 SLOAD DUP5 DUP5 MSTORE PUSH1 0xC SWAP1 SWAP3 MSTORE SWAP1 SWAP2 KECCAK256 SWAP2 SWAP3 POP SWAP1 PUSH2 0x433D SWAP1 DUP6 PUSH2 0x4784 JUMP JUMPDEST POP PUSH1 0x0 DUP5 DUP2 MSTORE PUSH1 0xF PUSH1 0x20 MSTORE PUSH1 0x40 DUP2 KECCAK256 SSTORE PUSH2 0x4356 DUP5 PUSH2 0x4790 JUMP JUMPDEST DUP4 PUSH1 0x0 PUSH1 0x1 PUSH1 0x1 PUSH1 0xA0 SHL SUB AND DUP5 PUSH1 0x1 PUSH1 0x1 PUSH1 0xA0 SHL SUB AND PUSH1 0x0 DUP1 MLOAD PUSH1 0x20 PUSH2 0x5949 DUP4 CODECOPY DUP2 MLOAD SWAP2 MSTORE PUSH1 0x0 DUP6 PUSH1 0x40 MLOAD PUSH2 0x3F35 SWAP3 SWAP2 SWAP1 PUSH2 0x546D JUMP JUMPDEST PUSH2 0x4395 DUP4 PUSH2 0x2FB6 JUMP JUMPDEST PUSH2 0x43BD JUMPI PUSH2 0x43A3 DUP5 DUP5 PUSH2 0x4825 JUMP JUMPDEST PUSH1 0x0 DUP3 DUP2 MSTORE PUSH1 0xC PUSH1 0x20 MSTORE PUSH1 0x40 SWAP1 KECCAK256 PUSH2 0x43BB SWAP1 DUP5 PUSH2 0x4951 JUMP JUMPDEST POP JUMPDEST PUSH1 0x0 DUP4 DUP2 MSTORE PUSH1 0xF PUSH1 0x20 MSTORE PUSH1 0x40 SWAP1 KECCAK256 SLOAD PUSH2 0x43D7 SWAP1 DUP3 SWAP1 PUSH2 0x567E JUMP JUMPDEST PUSH1 0x0 DUP5 DUP2 MSTORE PUSH1 0xF PUSH1 0x20 MSTORE PUSH1 0x40 DUP1 DUP3 KECCAK256 SWAP3 SWAP1 SWAP3 SSTORE SWAP1 MLOAD PUSH1 0x1 PUSH1 0x1 PUSH1 0xA0 SHL SUB DUP7 AND SWAP1 DUP3 SWAP1 PUSH1 0x0 DUP1 MLOAD PUSH1 0x20 PUSH2 0x5949 DUP4 CODECOPY DUP2 MLOAD SWAP2 MSTORE SWAP1 PUSH2 0x3F35 SWAP1 DUP9 SWAP1 DUP8 SWAP1 PUSH2 0x546D JUMP JUMPDEST PUSH2 0x441F DUP3 PUSH2 0x2FB6 JUMP JUMPDEST PUSH2 0x4482 JUMPI PUSH1 0x40 MLOAD PUSH3 0x461BCD PUSH1 0xE5 SHL DUP2 MSTORE PUSH1 0x20 PUSH1 0x4 DUP3 ADD MSTORE PUSH1 0x2E PUSH1 0x24 DUP3 ADD MSTORE PUSH32 0x45524337323155524953746F726167653A2055524920736574206F66206E6F6E PUSH1 0x44 DUP3 ADD MSTORE PUSH14 0x32BC34B9BA32B73A103A37B5B2B7 PUSH1 0x91 SHL PUSH1 0x64 DUP3 ADD MSTORE PUSH1 0x84 ADD PUSH2 0x962 JUMP JUMPDEST PUSH1 0x0 DUP3 DUP2 MSTORE PUSH1 0x9 PUSH1 0x20 SWAP1 DUP2 MSTORE PUSH1 0x40 SWAP1 SWAP2 KECCAK256 DUP3 MLOAD PUSH2 0xA93 SWAP3 DUP5 ADD SWAP1 PUSH2 0x4C3E JUMP JUMPDEST PUSH1 0x0 PUSH1 0x1 PUSH1 0x1 PUSH1 0xA0 SHL SUB DUP5 AND EXTCODESIZE ISZERO PUSH2 0x45A3 JUMPI PUSH1 0x40 MLOAD PUSH4 0xA85BD01 PUSH1 0xE1 SHL DUP2 MSTORE PUSH1 0x1 PUSH1 0x1 PUSH1 0xA0 SHL SUB DUP6 AND SWAP1 PUSH4 0x150B7A02 SWAP1 PUSH2 0x44E5 SWAP1 CALLER SWAP1 DUP10 SWAP1 DUP9 SWAP1 DUP9 SWAP1 PUSH1 0x4 ADD PUSH2 0x5385 JUMP JUMPDEST PUSH1 0x20 PUSH1 0x40 MLOAD DUP1 DUP4 SUB DUP2 PUSH1 0x0 DUP8 DUP1 EXTCODESIZE ISZERO DUP1 ISZERO PUSH2 0x44FF JUMPI PUSH1 0x0 DUP1 REVERT JUMPDEST POP GAS CALL SWAP3 POP POP POP DUP1 ISZERO PUSH2 0x452F JUMPI POP PUSH1 0x40 DUP1 MLOAD PUSH1 0x1F RETURNDATASIZE SWAP1 DUP2 ADD PUSH1 0x1F NOT AND DUP3 ADD SWAP1 SWAP3 MSTORE PUSH2 0x452C SWAP2 DUP2 ADD SWAP1 PUSH2 0x50DE JUMP JUMPDEST PUSH1 0x1 JUMPDEST PUSH2 0x4589 JUMPI RETURNDATASIZE DUP1 DUP1 ISZERO PUSH2 0x455D JUMPI PUSH1 0x40 MLOAD SWAP2 POP PUSH1 0x1F NOT PUSH1 0x3F RETURNDATASIZE ADD AND DUP3 ADD PUSH1 0x40 MSTORE RETURNDATASIZE DUP3 MSTORE RETURNDATASIZE PUSH1 0x0 PUSH1 0x20 DUP5 ADD RETURNDATACOPY PUSH2 0x4562 JUMP JUMPDEST PUSH1 0x60 SWAP2 POP JUMPDEST POP DUP1 MLOAD PUSH2 0x4581 JUMPI PUSH1 0x40 MLOAD PUSH3 0x461BCD PUSH1 0xE5 SHL DUP2 MSTORE PUSH1 0x4 ADD PUSH2 0x962 SWAP1 PUSH2 0x54AA JUMP JUMPDEST DUP1 MLOAD DUP2 PUSH1 0x20 ADD REVERT JUMPDEST PUSH1 0x1 PUSH1 0x1 PUSH1 0xE0 SHL SUB NOT AND PUSH4 0xA85BD01 PUSH1 0xE1 SHL EQ SWAP1 POP PUSH2 0x3103 JUMP JUMPDEST POP PUSH1 0x1 SWAP5 SWAP4 POP POP POP POP JUMP JUMPDEST PUSH1 0x60 PUSH1 0x40 MLOAD DUP1 PUSH1 0x60 ADD PUSH1 0x40 MSTORE DUP1 PUSH1 0x22 DUP2 MSTORE PUSH1 0x20 ADD PUSH2 0x5907 PUSH1 0x22 SWAP2 CODECOPY SWAP1 POP SWAP1 JUMP JUMPDEST PUSH1 0x60 PUSH2 0x45D9 DUP3 PUSH2 0x2FB6 JUMP JUMPDEST PUSH2 0x463D JUMPI PUSH1 0x40 MLOAD PUSH3 0x461BCD PUSH1 0xE5 SHL DUP2 MSTORE PUSH1 0x20 PUSH1 0x4 DUP3 ADD MSTORE PUSH1 0x2F PUSH1 0x24 DUP3 ADD MSTORE PUSH32 0x4552433732314D657461646174613A2055524920717565727920666F72206E6F PUSH1 0x44 DUP3 ADD MSTORE PUSH15 0x3732BC34B9BA32B73A103A37B5B2B7 PUSH1 0x89 SHL PUSH1 0x64 DUP3 ADD MSTORE PUSH1 0x84 ADD PUSH2 0x962 JUMP JUMPDEST PUSH1 0x0 PUSH2 0x4647 PUSH2 0x45AE JUMP JUMPDEST SWAP1 POP PUSH1 0x0 DUP2 MLOAD GT PUSH2 0x4667 JUMPI PUSH1 0x40 MLOAD DUP1 PUSH1 0x20 ADD PUSH1 0x40 MSTORE DUP1 PUSH1 0x0 DUP2 MSTORE POP PUSH2 0x2D7E JUMP JUMPDEST DUP1 PUSH2 0x4671 DUP5 PUSH2 0x495D JUMP JUMPDEST PUSH1 0x40 MLOAD PUSH1 0x20 ADD PUSH2 0x4682 SWAP3 SWAP2 SWAP1 PUSH2 0x52D3 JUMP JUMPDEST PUSH1 0x40 MLOAD PUSH1 0x20 DUP2 DUP4 SUB SUB DUP2 MSTORE SWAP1 PUSH1 0x40 MSTORE SWAP4 SWAP3 POP POP POP JUMP JUMPDEST PUSH1 0x0 DUP3 PUSH1 0x0 ADD DUP3 DUP2 SLOAD DUP2 LT PUSH2 0x46BD JUMPI PUSH4 0x4E487B71 PUSH1 0xE0 SHL PUSH1 0x0 MSTORE PUSH1 0x32 PUSH1 0x4 MSTORE PUSH1 0x24 PUSH1 0x0 REVERT JUMPDEST SWAP1 PUSH1 0x0 MSTORE PUSH1 0x20 PUSH1 0x0 KECCAK256 ADD SLOAD SWAP1 POP SWAP3 SWAP2 POP POP JUMP JUMPDEST PUSH1 0x0 DUP2 DUP2 MSTORE PUSH1 0xB PUSH1 0x20 MSTORE PUSH1 0x40 DUP2 KECCAK256 SWAP1 JUMPDEST DUP2 SLOAD DUP2 LT ISZERO PUSH2 0xA93 JUMPI DUP2 PUSH1 0x1 ADD PUSH1 0x0 DUP4 PUSH1 0x0 ADD DUP4 DUP2 SLOAD DUP2 LT PUSH2 0x4712 JUMPI PUSH4 0x4E487B71 PUSH1 0xE0 SHL PUSH1 0x0 MSTORE PUSH1 0x32 PUSH1 0x4 MSTORE PUSH1 0x24 PUSH1 0x0 REVERT JUMPDEST PUSH1 0x0 SWAP2 DUP3 MSTORE PUSH1 0x20 DUP1 DUP4 KECCAK256 SWAP1 SWAP2 ADD SLOAD PUSH1 0x1 PUSH1 0x1 PUSH1 0xA0 SHL SUB AND DUP4 MSTORE DUP3 ADD SWAP3 SWAP1 SWAP3 MSTORE PUSH1 0x40 ADD DUP2 KECCAK256 SSTORE DUP2 SLOAD DUP3 SWAP1 DUP3 SWAP1 DUP2 LT PUSH2 0x4759 JUMPI PUSH4 0x4E487B71 PUSH1 0xE0 SHL PUSH1 0x0 MSTORE PUSH1 0x32 PUSH1 0x4 MSTORE PUSH1 0x24 PUSH1 0x0 REVERT JUMPDEST PUSH1 0x0 SWAP2 DUP3 MSTORE PUSH1 0x20 SWAP1 SWAP2 KECCAK256 ADD DUP1 SLOAD PUSH1 0x1 PUSH1 0x1 PUSH1 0xA0 SHL SUB NOT AND SWAP1 SSTORE DUP1 PUSH2 0x477C DUP2 PUSH2 0x5846 JUMP JUMPDEST SWAP2 POP POP PUSH2 0x46E0 JUMP JUMPDEST PUSH1 0x0 PUSH2 0x2D7E DUP4 DUP4 PUSH2 0x4A76 JUMP JUMPDEST PUSH1 0x0 PUSH2 0x479B DUP3 PUSH2 0xFE9 JUMP JUMPDEST SWAP1 POP PUSH2 0x47A9 DUP2 PUSH1 0x0 DUP5 PUSH2 0x4101 JUMP JUMPDEST PUSH2 0x47B4 PUSH1 0x0 DUP4 PUSH2 0x2FD3 JUMP JUMPDEST PUSH1 0x1 PUSH1 0x1 PUSH1 0xA0 SHL SUB DUP2 AND PUSH1 0x0 SWAP1 DUP2 MSTORE PUSH1 0x3 PUSH1 0x20 MSTORE PUSH1 0x40 DUP2 KECCAK256 DUP1 SLOAD PUSH1 0x1 SWAP3 SWAP1 PUSH2 0x47DD SWAP1 DUP5 SWAP1 PUSH2 0x57B7 JUMP JUMPDEST SWAP1 SWAP2 SSTORE POP POP PUSH1 0x0 DUP3 DUP2 MSTORE PUSH1 0x2 PUSH1 0x20 MSTORE PUSH1 0x40 DUP1 DUP3 KECCAK256 DUP1 SLOAD PUSH1 0x1 PUSH1 0x1 PUSH1 0xA0 SHL SUB NOT AND SWAP1 SSTORE MLOAD DUP4 SWAP2 SWAP1 PUSH1 0x1 PUSH1 0x1 PUSH1 0xA0 SHL SUB DUP5 AND SWAP1 PUSH1 0x0 DUP1 MLOAD PUSH1 0x20 PUSH2 0x5929 DUP4 CODECOPY DUP2 MLOAD SWAP2 MSTORE SWAP1 DUP4 SWAP1 LOG4 POP POP JUMP JUMPDEST PUSH1 0x1 PUSH1 0x1 PUSH1 0xA0 SHL SUB DUP3 AND PUSH2 0x487B JUMPI PUSH1 0x40 MLOAD PUSH3 0x461BCD PUSH1 0xE5 SHL DUP2 MSTORE PUSH1 0x20 PUSH1 0x4 DUP3 ADD DUP2 SWAP1 MSTORE PUSH1 0x24 DUP3 ADD MSTORE PUSH32 0x4552433732313A206D696E7420746F20746865207A65726F2061646472657373 PUSH1 0x44 DUP3 ADD MSTORE PUSH1 0x64 ADD PUSH2 0x962 JUMP JUMPDEST PUSH2 0x4884 DUP2 PUSH2 0x2FB6 JUMP JUMPDEST ISZERO PUSH2 0x48D0 JUMPI PUSH1 0x40 MLOAD PUSH3 0x461BCD PUSH1 0xE5 SHL DUP2 MSTORE PUSH1 0x20 PUSH1 0x4 DUP3 ADD MSTORE PUSH1 0x1C PUSH1 0x24 DUP3 ADD MSTORE PUSH28 0x115490CDCC8C4E881D1BDAD95B88185B1C9958591E481B5A5B9D1959 PUSH1 0x22 SHL PUSH1 0x44 DUP3 ADD MSTORE PUSH1 0x64 ADD PUSH2 0x962 JUMP JUMPDEST PUSH2 0x48DC PUSH1 0x0 DUP4 DUP4 PUSH2 0x4101 JUMP JUMPDEST PUSH1 0x1 PUSH1 0x1 PUSH1 0xA0 SHL SUB DUP3 AND PUSH1 0x0 SWAP1 DUP2 MSTORE PUSH1 0x3 PUSH1 0x20 MSTORE PUSH1 0x40 DUP2 KECCAK256 DUP1 SLOAD PUSH1 0x1 SWAP3 SWAP1 PUSH2 0x4905 SWAP1 DUP5 SWAP1 PUSH2 0x567E JUMP JUMPDEST SWAP1 SWAP2 SSTORE POP POP PUSH1 0x0 DUP2 DUP2 MSTORE PUSH1 0x2 PUSH1 0x20 MSTORE PUSH1 0x40 DUP1 DUP3 KECCAK256 DUP1 SLOAD PUSH1 0x1 PUSH1 0x1 PUSH1 0xA0 SHL SUB NOT AND PUSH1 0x1 PUSH1 0x1 PUSH1 0xA0 SHL SUB DUP7 AND SWAP1 DUP2 OR SWAP1 SWAP2 SSTORE SWAP1 MLOAD DUP4 SWAP3 SWAP1 PUSH1 0x0 DUP1 MLOAD PUSH1 0x20 PUSH2 0x5929 DUP4 CODECOPY DUP2 MLOAD SWAP2 MSTORE SWAP1 DUP3 SWAP1 LOG4 POP POP JUMP JUMPDEST PUSH1 0x0 PUSH2 0x2D7E DUP4 DUP4 PUSH2 0x4B93 JUMP JUMPDEST PUSH1 0x60 DUP2 PUSH2 0x4981 JUMPI POP POP PUSH1 0x40 DUP1 MLOAD DUP1 DUP3 ADD SWAP1 SWAP2 MSTORE PUSH1 0x1 DUP2 MSTORE PUSH1 0x3 PUSH1 0xFC SHL PUSH1 0x20 DUP3 ADD MSTORE SWAP1 JUMP JUMPDEST DUP2 PUSH1 0x0 JUMPDEST DUP2 ISZERO PUSH2 0x49AB JUMPI DUP1 PUSH2 0x4995 DUP2 PUSH2 0x5846 JUMP JUMPDEST SWAP2 POP PUSH2 0x49A4 SWAP1 POP PUSH1 0xA DUP4 PUSH2 0x5696 JUMP JUMPDEST SWAP2 POP PUSH2 0x4985 JUMP JUMPDEST PUSH1 0x0 DUP2 PUSH1 0x1 PUSH1 0x1 PUSH1 0x40 SHL SUB DUP2 GT ISZERO PUSH2 0x49D3 JUMPI PUSH4 0x4E487B71 PUSH1 0xE0 SHL PUSH1 0x0 MSTORE PUSH1 0x41 PUSH1 0x4 MSTORE PUSH1 0x24 PUSH1 0x0 REVERT JUMPDEST PUSH1 0x40 MLOAD SWAP1 DUP1 DUP3 MSTORE DUP1 PUSH1 0x1F ADD PUSH1 0x1F NOT AND PUSH1 0x20 ADD DUP3 ADD PUSH1 0x40 MSTORE DUP1 ISZERO PUSH2 0x49FD JUMPI PUSH1 0x20 DUP3 ADD DUP2 DUP1 CALLDATASIZE DUP4 CALLDATACOPY ADD SWAP1 POP JUMPDEST POP SWAP1 POP JUMPDEST DUP5 ISZERO PUSH2 0x3103 JUMPI PUSH2 0x4A12 PUSH1 0x1 DUP4 PUSH2 0x57B7 JUMP JUMPDEST SWAP2 POP PUSH2 0x4A1F PUSH1 0xA DUP7 PUSH2 0x5861 JUMP JUMPDEST PUSH2 0x4A2A SWAP1 PUSH1 0x30 PUSH2 0x567E JUMP JUMPDEST PUSH1 0xF8 SHL DUP2 DUP4 DUP2 MLOAD DUP2 LT PUSH2 0x4A4D JUMPI PUSH4 0x4E487B71 PUSH1 0xE0 SHL PUSH1 0x0 MSTORE PUSH1 0x32 PUSH1 0x4 MSTORE PUSH1 0x24 PUSH1 0x0 REVERT JUMPDEST PUSH1 0x20 ADD ADD SWAP1 PUSH1 0x1 PUSH1 0x1 PUSH1 0xF8 SHL SUB NOT AND SWAP1 DUP2 PUSH1 0x0 BYTE SWAP1 MSTORE8 POP PUSH2 0x4A6F PUSH1 0xA DUP7 PUSH2 0x5696 JUMP JUMPDEST SWAP5 POP PUSH2 0x4A01 JUMP JUMPDEST PUSH1 0x0 DUP2 DUP2 MSTORE PUSH1 0x1 DUP4 ADD PUSH1 0x20 MSTORE PUSH1 0x40 DUP2 KECCAK256 SLOAD DUP1 ISZERO PUSH2 0x4B89 JUMPI PUSH1 0x0 PUSH2 0x4A9A PUSH1 0x1 DUP4 PUSH2 0x57B7 JUMP JUMPDEST DUP6 SLOAD SWAP1 SWAP2 POP PUSH1 0x0 SWAP1 PUSH2 0x4AAE SWAP1 PUSH1 0x1 SWAP1 PUSH2 0x57B7 JUMP JUMPDEST SWAP1 POP DUP2 DUP2 EQ PUSH2 0x4B2F JUMPI PUSH1 0x0 DUP7 PUSH1 0x0 ADD DUP3 DUP2 SLOAD DUP2 LT PUSH2 0x4ADC JUMPI PUSH4 0x4E487B71 PUSH1 0xE0 SHL PUSH1 0x0 MSTORE PUSH1 0x32 PUSH1 0x4 MSTORE PUSH1 0x24 PUSH1 0x0 REVERT JUMPDEST SWAP1 PUSH1 0x0 MSTORE PUSH1 0x20 PUSH1 0x0 KECCAK256 ADD SLOAD SWAP1 POP DUP1 DUP8 PUSH1 0x0 ADD DUP5 DUP2 SLOAD DUP2 LT PUSH2 0x4B0D JUMPI PUSH4 0x4E487B71 PUSH1 0xE0 SHL PUSH1 0x0 MSTORE PUSH1 0x32 PUSH1 0x4 MSTORE PUSH1 0x24 PUSH1 0x0 REVERT JUMPDEST PUSH1 0x0 SWAP2 DUP3 MSTORE PUSH1 0x20 DUP1 DUP4 KECCAK256 SWAP1 SWAP2 ADD SWAP3 SWAP1 SWAP3 SSTORE SWAP2 DUP3 MSTORE PUSH1 0x1 DUP9 ADD SWAP1 MSTORE PUSH1 0x40 SWAP1 KECCAK256 DUP4 SWAP1 SSTORE JUMPDEST DUP6 SLOAD DUP7 SWAP1 DUP1 PUSH2 0x4B4E JUMPI PUSH4 0x4E487B71 PUSH1 0xE0 SHL PUSH1 0x0 MSTORE PUSH1 0x31 PUSH1 0x4 MSTORE PUSH1 0x24 PUSH1 0x0 REVERT JUMPDEST PUSH1 0x1 SWAP1 SUB DUP2 DUP2 SWAP1 PUSH1 0x0 MSTORE PUSH1 0x20 PUSH1 0x0 KECCAK256 ADD PUSH1 0x0 SWAP1 SSTORE SWAP1 SSTORE DUP6 PUSH1 0x1 ADD PUSH1 0x0 DUP7 DUP2 MSTORE PUSH1 0x20 ADD SWAP1 DUP2 MSTORE PUSH1 0x20 ADD PUSH1 0x0 KECCAK256 PUSH1 0x0 SWAP1 SSTORE PUSH1 0x1 SWAP4 POP POP POP POP PUSH2 0x81D JUMP JUMPDEST PUSH1 0x0 SWAP2 POP POP PUSH2 0x81D JUMP JUMPDEST PUSH1 0x0 DUP2 DUP2 MSTORE PUSH1 0x1 DUP4 ADD PUSH1 0x20 MSTORE PUSH1 0x40 DUP2 KECCAK256 SLOAD PUSH2 0x4BDA JUMPI POP DUP2 SLOAD PUSH1 0x1 DUP2 DUP2 ADD DUP5 SSTORE PUSH1 0x0 DUP5 DUP2 MSTORE PUSH1 0x20 DUP1 DUP3 KECCAK256 SWAP1 SWAP4 ADD DUP5 SWAP1 SSTORE DUP5 SLOAD DUP5 DUP3 MSTORE DUP3 DUP7 ADD SWAP1 SWAP4 MSTORE PUSH1 0x40 SWAP1 KECCAK256 SWAP2 SWAP1 SWAP2 SSTORE PUSH2 0x81D JUMP JUMPDEST POP PUSH1 0x0 PUSH2 0x81D JUMP JUMPDEST PUSH1 0x40 DUP1 MLOAD PUSH1 0xE0 DUP2 ADD SWAP1 SWAP2 MSTORE DUP1 PUSH1 0x0 DUP2 MSTORE PUSH1 0x20 ADD PUSH1 0x0 DUP2 MSTORE PUSH1 0x20 ADD PUSH1 0x0 DUP2 MSTORE PUSH1 0x20 ADD PUSH1 0x0 DUP2 MSTORE PUSH1 0x20 ADD PUSH1 0x0 DUP2 MSTORE PUSH1 0x20 ADD PUSH1 0x0 DUP2 MSTORE PUSH1 0x20 ADD PUSH1 0x0 PUSH1 0x2 DUP2 GT ISZERO PUSH2 0x4C39 JUMPI PUSH4 0x4E487B71 PUSH1 0xE0 SHL PUSH1 0x0 MSTORE PUSH1 0x21 PUSH1 0x4 MSTORE PUSH1 0x24 PUSH1 0x0 REVERT JUMPDEST SWAP1 MSTORE SWAP1 JUMP JUMPDEST DUP3 DUP1 SLOAD PUSH2 0x4C4A SWAP1 PUSH2 0x5811 JUMP JUMPDEST SWAP1 PUSH1 0x0 MSTORE PUSH1 0x20 PUSH1 0x0 KECCAK256 SWAP1 PUSH1 0x1F ADD PUSH1 0x20 SWAP1 DIV DUP2 ADD SWAP3 DUP3 PUSH2 0x4C6C JUMPI PUSH1 0x0 DUP6 SSTORE PUSH2 0x4CB2 JUMP JUMPDEST DUP3 PUSH1 0x1F LT PUSH2 0x4C85 JUMPI DUP1 MLOAD PUSH1 0xFF NOT AND DUP4 DUP1 ADD OR DUP6 SSTORE PUSH2 0x4CB2 JUMP JUMPDEST DUP3 DUP1 ADD PUSH1 0x1 ADD DUP6 SSTORE DUP3 ISZERO PUSH2 0x4CB2 JUMPI SWAP2 DUP3 ADD JUMPDEST DUP3 DUP2 GT ISZERO PUSH2 0x4CB2 JUMPI DUP3 MLOAD DUP3 SSTORE SWAP2 PUSH1 0x20 ADD SWAP2 SWAP1 PUSH1 0x1 ADD SWAP1 PUSH2 0x4C97 JUMP JUMPDEST POP PUSH2 0x4CBE SWAP3 SWAP2 POP PUSH2 0x4CC2 JUMP JUMPDEST POP SWAP1 JUMP JUMPDEST JUMPDEST DUP1 DUP3 GT ISZERO PUSH2 0x4CBE JUMPI PUSH1 0x0 DUP2 SSTORE PUSH1 0x1 ADD PUSH2 0x4CC3 JUMP JUMPDEST PUSH1 0x0 PUSH1 0x1 PUSH1 0x1 PUSH1 0x40 SHL SUB DUP1 DUP5 GT ISZERO PUSH2 0x4CF1 JUMPI PUSH2 0x4CF1 PUSH2 0x58B7 JUMP JUMPDEST PUSH1 0x40 MLOAD PUSH1 0x1F DUP6 ADD PUSH1 0x1F NOT SWAP1 DUP2 AND PUSH1 0x3F ADD AND DUP2 ADD SWAP1 DUP3 DUP3 GT DUP2 DUP4 LT OR ISZERO PUSH2 0x4D19 JUMPI PUSH2 0x4D19 PUSH2 0x58B7 JUMP JUMPDEST DUP2 PUSH1 0x40 MSTORE DUP1 SWAP4 POP DUP6 DUP2 MSTORE DUP7 DUP7 DUP7 ADD GT ISZERO PUSH2 0x4D32 JUMPI PUSH1 0x0 DUP1 REVERT JUMPDEST DUP6 DUP6 PUSH1 0x20 DUP4 ADD CALLDATACOPY PUSH1 0x0 PUSH1 0x20 DUP8 DUP4 ADD ADD MSTORE POP POP POP SWAP4 SWAP3 POP POP POP JUMP JUMPDEST PUSH1 0x0 DUP1 DUP4 PUSH1 0x1F DUP5 ADD SLT PUSH2 0x4D5D JUMPI DUP2 DUP3 REVERT JUMPDEST POP DUP2 CALLDATALOAD PUSH1 0x1 PUSH1 0x1 PUSH1 0x40 SHL SUB DUP2 GT ISZERO PUSH2 0x4D73 JUMPI DUP2 DUP3 REVERT JUMPDEST PUSH1 0x20 DUP4 ADD SWAP2 POP DUP4 PUSH1 0x20 DUP3 PUSH1 0x5 SHL DUP6 ADD ADD GT ISZERO PUSH2 0x4D8E JUMPI PUSH1 0x0 DUP1 REVERT JUMPDEST SWAP3 POP SWAP3 SWAP1 POP JUMP JUMPDEST PUSH1 0x0 PUSH1 0x20 DUP3 DUP5 SUB SLT ISZERO PUSH2 0x4DA6 JUMPI DUP1 DUP2 REVERT JUMPDEST DUP2 CALLDATALOAD PUSH2 0x2D7E DUP2 PUSH2 0x58CD JUMP JUMPDEST PUSH1 0x0 PUSH1 0x20 DUP3 DUP5 SUB SLT ISZERO PUSH2 0x4DC2 JUMPI DUP1 DUP2 REVERT JUMPDEST DUP2 MLOAD PUSH2 0x2D7E DUP2 PUSH2 0x58CD JUMP JUMPDEST PUSH1 0x0 DUP1 PUSH1 0x40 DUP4 DUP6 SUB SLT ISZERO PUSH2 0x4DDF JUMPI DUP1 DUP2 REVERT JUMPDEST DUP3 CALLDATALOAD PUSH2 0x4DEA DUP2 PUSH2 0x58CD JUMP JUMPDEST SWAP2 POP PUSH1 0x20 DUP4 ADD CALLDATALOAD PUSH2 0x4DFA DUP2 PUSH2 0x58CD JUMP JUMPDEST DUP1 SWAP2 POP POP SWAP3 POP SWAP3 SWAP1 POP JUMP JUMPDEST PUSH1 0x0 DUP1 PUSH1 0x0 PUSH1 0x60 DUP5 DUP7 SUB SLT ISZERO PUSH2 0x4E19 JUMPI DUP1 DUP2 REVERT JUMPDEST DUP4 CALLDATALOAD PUSH2 0x4E24 DUP2 PUSH2 0x58CD JUMP JUMPDEST SWAP3 POP PUSH1 0x20 DUP5 ADD CALLDATALOAD PUSH2 0x4E34 DUP2 PUSH2 0x58CD JUMP JUMPDEST SWAP3 SWAP6 SWAP3 SWAP5 POP POP POP PUSH1 0x40 SWAP2 SWAP1 SWAP2 ADD CALLDATALOAD SWAP1 JUMP JUMPDEST PUSH1 0x0 DUP1 PUSH1 0x0 DUP1 PUSH1 0x80 DUP6 DUP8 SUB SLT ISZERO PUSH2 0x4E5A JUMPI DUP1 DUP2 REVERT JUMPDEST DUP5 CALLDATALOAD PUSH2 0x4E65 DUP2 PUSH2 0x58CD JUMP JUMPDEST SWAP4 POP PUSH1 0x20 DUP6 ADD CALLDATALOAD PUSH2 0x4E75 DUP2 PUSH2 0x58CD JUMP JUMPDEST SWAP3 POP PUSH1 0x40 DUP6 ADD CALLDATALOAD SWAP2 POP PUSH1 0x60 DUP6 ADD CALLDATALOAD PUSH1 0x1 PUSH1 0x1 PUSH1 0x40 SHL SUB DUP2 GT ISZERO PUSH2 0x4E96 JUMPI DUP2 DUP3 REVERT JUMPDEST DUP6 ADD PUSH1 0x1F DUP2 ADD DUP8 SGT PUSH2 0x4EA6 JUMPI DUP2 DUP3 REVERT JUMPDEST PUSH2 0x4EB5 DUP8 DUP3 CALLDATALOAD PUSH1 0x20 DUP5 ADD PUSH2 0x4CD7 JUMP JUMPDEST SWAP2 POP POP SWAP3 SWAP6 SWAP2 SWAP5 POP SWAP3 POP JUMP JUMPDEST PUSH1 0x0 DUP1 PUSH1 0x0 DUP1 PUSH1 0x80 DUP6 DUP8 SUB SLT ISZERO PUSH2 0x4ED6 JUMPI DUP4 DUP5 REVERT JUMPDEST DUP5 CALLDATALOAD PUSH2 0x4EE1 DUP2 PUSH2 0x58CD JUMP JUMPDEST SWAP4 POP PUSH1 0x20 DUP6 ADD CALLDATALOAD PUSH2 0x4EF1 DUP2 PUSH2 0x58CD JUMP JUMPDEST SWAP4 SWAP7 SWAP4 SWAP6 POP POP POP POP PUSH1 0x40 DUP3 ADD CALLDATALOAD SWAP2 PUSH1 0x60 ADD CALLDATALOAD SWAP1 JUMP JUMPDEST PUSH1 0x0 DUP1 PUSH1 0x0 DUP1 PUSH1 0x0 PUSH1 0xA0 DUP7 DUP9 SUB SLT ISZERO PUSH2 0x4F1D JUMPI DUP1 DUP2 REVERT JUMPDEST DUP6 CALLDATALOAD PUSH2 0x4F28 DUP2 PUSH2 0x58CD JUMP JUMPDEST SWAP5 POP PUSH1 0x20 DUP7 ADD CALLDATALOAD PUSH2 0x4F38 DUP2 PUSH2 0x58CD JUMP JUMPDEST SWAP5 SWAP8 SWAP5 SWAP7 POP POP POP POP PUSH1 0x40 DUP4 ADD CALLDATALOAD SWAP3 PUSH1 0x60 DUP2 ADD CALLDATALOAD SWAP3 PUSH1 0x80 SWAP1 SWAP2 ADD CALLDATALOAD SWAP2 POP JUMP JUMPDEST PUSH1 0x0 DUP1 PUSH1 0x40 DUP4 DUP6 SUB SLT ISZERO PUSH2 0x4F68 JUMPI DUP2 DUP3 REVERT JUMPDEST DUP3 CALLDATALOAD PUSH2 0x4F73 DUP2 PUSH2 0x58CD JUMP JUMPDEST SWAP2 POP PUSH1 0x20 DUP4 ADD CALLDATALOAD PUSH2 0x4DFA DUP2 PUSH2 0x58E2 JUMP JUMPDEST PUSH1 0x0 DUP1 PUSH1 0x40 DUP4 DUP6 SUB SLT ISZERO PUSH2 0x4F95 JUMPI DUP2 DUP3 REVERT JUMPDEST DUP3 CALLDATALOAD PUSH2 0x4FA0 DUP2 PUSH2 0x58CD JUMP JUMPDEST SWAP5 PUSH1 0x20 SWAP4 SWAP1 SWAP4 ADD CALLDATALOAD SWAP4 POP POP POP JUMP JUMPDEST PUSH1 0x0 DUP1 PUSH1 0x0 PUSH1 0x60 DUP5 DUP7 SUB SLT ISZERO PUSH2 0x4FC2 JUMPI DUP1 DUP2 REVERT JUMPDEST DUP4 CALLDATALOAD PUSH2 0x4FCD DUP2 PUSH2 0x58CD JUMP JUMPDEST SWAP6 PUSH1 0x20 DUP6 ADD CALLDATALOAD SWAP6 POP PUSH1 0x40 SWAP1 SWAP5 ADD CALLDATALOAD SWAP4 SWAP3 POP POP POP JUMP JUMPDEST PUSH1 0x0 DUP1 PUSH1 0x20 DUP4 DUP6 SUB SLT ISZERO PUSH2 0x4FF4 JUMPI DUP2 DUP3 REVERT JUMPDEST DUP3 CALLDATALOAD PUSH1 0x1 PUSH1 0x1 PUSH1 0x40 SHL SUB DUP2 GT ISZERO PUSH2 0x5009 JUMPI DUP3 DUP4 REVERT JUMPDEST PUSH2 0x5015 DUP6 DUP3 DUP7 ADD PUSH2 0x4D4C JUMP JUMPDEST SWAP1 SWAP7 SWAP1 SWAP6 POP SWAP4 POP POP POP POP JUMP JUMPDEST PUSH1 0x0 DUP1 PUSH1 0x0 PUSH1 0x40 DUP5 DUP7 SUB SLT ISZERO PUSH2 0x5035 JUMPI DUP1 DUP2 REVERT JUMPDEST DUP4 CALLDATALOAD PUSH1 0x1 PUSH1 0x1 PUSH1 0x40 SHL SUB DUP2 GT ISZERO PUSH2 0x504A JUMPI DUP2 DUP3 REVERT JUMPDEST PUSH2 0x5056 DUP7 DUP3 DUP8 ADD PUSH2 0x4D4C JUMP JUMPDEST SWAP1 SWAP8 SWAP1 SWAP7 POP PUSH1 0x20 SWAP6 SWAP1 SWAP6 ADD CALLDATALOAD SWAP5 SWAP4 POP POP POP POP JUMP JUMPDEST PUSH1 0x0 PUSH1 0x20 DUP3 DUP5 SUB SLT ISZERO PUSH2 0x507B JUMPI DUP1 DUP2 REVERT JUMPDEST DUP2 MLOAD PUSH2 0x2D7E DUP2 PUSH2 0x58E2 JUMP JUMPDEST PUSH1 0x0 PUSH1 0x20 DUP3 DUP5 SUB SLT ISZERO PUSH2 0x5097 JUMPI DUP1 DUP2 REVERT JUMPDEST POP CALLDATALOAD SWAP2 SWAP1 POP JUMP JUMPDEST PUSH1 0x0 DUP1 PUSH1 0x40 DUP4 DUP6 SUB SLT ISZERO PUSH2 0x50B0 JUMPI DUP2 DUP3 REVERT JUMPDEST DUP3 CALLDATALOAD SWAP2 POP PUSH1 0x20 DUP4 ADD CALLDATALOAD PUSH2 0x4DFA DUP2 PUSH2 0x58CD JUMP JUMPDEST PUSH1 0x0 PUSH1 0x20 DUP3 DUP5 SUB SLT ISZERO PUSH2 0x50D3 JUMPI DUP1 DUP2 REVERT JUMPDEST DUP2 CALLDATALOAD PUSH2 0x2D7E DUP2 PUSH2 0x58F0 JUMP JUMPDEST PUSH1 0x0 PUSH1 0x20 DUP3 DUP5 SUB SLT ISZERO PUSH2 0x50EF JUMPI DUP1 DUP2 REVERT JUMPDEST DUP2 MLOAD PUSH2 0x2D7E DUP2 PUSH2 0x58F0 JUMP JUMPDEST PUSH1 0x0 PUSH1 0x20 DUP3 DUP5 SUB SLT ISZERO PUSH2 0x510B JUMPI DUP1 DUP2 REVERT JUMPDEST POP MLOAD SWAP2 SWAP1 POP JUMP JUMPDEST PUSH1 0x0 DUP1 PUSH1 0x0 PUSH1 0x40 DUP5 DUP7 SUB SLT ISZERO PUSH2 0x5126 JUMPI DUP1 DUP2 REVERT JUMPDEST DUP4 CALLDATALOAD SWAP3 POP PUSH1 0x20 DUP5 ADD CALLDATALOAD PUSH1 0x1 PUSH1 0x1 PUSH1 0x40 SHL SUB DUP2 GT ISZERO PUSH2 0x5142 JUMPI DUP2 DUP3 REVERT JUMPDEST PUSH2 0x514E DUP7 DUP3 DUP8 ADD PUSH2 0x4D4C JUMP JUMPDEST SWAP5 SWAP8 SWAP1 SWAP7 POP SWAP4 SWAP5 POP POP POP POP JUMP JUMPDEST PUSH1 0x0 DUP1 PUSH1 0x0 DUP1 PUSH1 0x80 DUP6 DUP8 SUB SLT ISZERO PUSH2 0x5170 JUMPI DUP2 DUP3 REVERT JUMPDEST DUP5 CALLDATALOAD SWAP4 POP PUSH1 0x20 DUP6 ADD CALLDATALOAD PUSH2 0x5182 DUP2 PUSH2 0x58E2 JUMP JUMPDEST SWAP3 POP PUSH1 0x40 DUP6 ADD CALLDATALOAD PUSH2 0x5192 DUP2 PUSH2 0x58E2 JUMP JUMPDEST SWAP2 POP PUSH1 0x60 DUP6 ADD CALLDATALOAD PUSH1 0x1 PUSH1 0x1 PUSH1 0x40 SHL SUB DUP2 GT ISZERO PUSH2 0x4E96 JUMPI DUP2 DUP3 REVERT JUMPDEST PUSH1 0x0 DUP1 PUSH1 0x40 DUP4 DUP6 SUB SLT ISZERO PUSH2 0x51BE JUMPI DUP2 DUP3 REVERT JUMPDEST POP POP DUP1 CALLDATALOAD SWAP3 PUSH1 0x20 SWAP1 SWAP2 ADD CALLDATALOAD SWAP2 POP JUMP JUMPDEST PUSH1 0x0 DUP1 PUSH1 0x40 DUP4 DUP6 SUB SLT ISZERO PUSH2 0x51DF JUMPI DUP2 DUP3 REVERT JUMPDEST POP POP DUP1 MLOAD PUSH1 0x20 SWAP1 SWAP2 ADD MLOAD SWAP1 SWAP3 SWAP1 SWAP2 POP JUMP JUMPDEST PUSH1 0x0 DUP1 PUSH1 0x0 PUSH1 0x60 DUP5 DUP7 SUB SLT ISZERO PUSH2 0x5204 JUMPI DUP1 DUP2 REVERT JUMPDEST DUP4 MLOAD SWAP3 POP PUSH1 0x20 DUP5 ADD MLOAD SWAP2 POP PUSH1 0x40 DUP5 ADD MLOAD SWAP1 POP SWAP3 POP SWAP3 POP SWAP3 JUMP JUMPDEST PUSH1 0x0 DUP1 PUSH1 0x0 DUP1 PUSH1 0x0 PUSH1 0xA0 DUP7 DUP9 SUB SLT ISZERO PUSH2 0x5234 JUMPI DUP3 DUP4 REVERT JUMPDEST DUP6 CALLDATALOAD SWAP5 POP PUSH1 0x20 DUP7 ADD CALLDATALOAD SWAP4 POP PUSH1 0x40 DUP7 ADD CALLDATALOAD SWAP3 POP PUSH1 0x60 DUP7 ADD CALLDATALOAD PUSH2 0x5254 DUP2 PUSH2 0x58E2 JUMP JUMPDEST SWAP2 POP PUSH1 0x80 DUP7 ADD CALLDATALOAD PUSH2 0x5264 DUP2 PUSH2 0x58E2 JUMP JUMPDEST DUP1 SWAP2 POP POP SWAP3 SWAP6 POP SWAP3 SWAP6 SWAP1 SWAP4 POP JUMP JUMPDEST PUSH1 0x0 PUSH1 0x20 DUP3 DUP5 SUB SLT ISZERO PUSH2 0x5283 JUMPI DUP1 DUP2 REVERT JUMPDEST DUP2 MLOAD PUSH1 0xFF DUP2 AND DUP2 EQ PUSH2 0x2D7E JUMPI DUP2 DUP3 REVERT JUMPDEST PUSH1 0x0 DUP2 MLOAD DUP1 DUP5 MSTORE PUSH2 0x52AB DUP2 PUSH1 0x20 DUP7 ADD PUSH1 0x20 DUP7 ADD PUSH2 0x57CE JUMP JUMPDEST PUSH1 0x1F ADD PUSH1 0x1F NOT AND SWAP3 SWAP1 SWAP3 ADD PUSH1 0x20 ADD SWAP3 SWAP2 POP POP JUMP JUMPDEST PUSH1 0x3 DUP2 LT PUSH2 0x52CF JUMPI PUSH2 0x52CF PUSH2 0x58A1 JUMP JUMPDEST SWAP1 MSTORE JUMP JUMPDEST PUSH1 0x0 DUP4 MLOAD PUSH2 0x52E5 DUP2 DUP5 PUSH1 0x20 DUP9 ADD PUSH2 0x57CE JUMP JUMPDEST DUP4 MLOAD SWAP1 DUP4 ADD SWAP1 PUSH2 0x52F9 DUP2 DUP4 PUSH1 0x20 DUP9 ADD PUSH2 0x57CE JUMP JUMPDEST ADD SWAP5 SWAP4 POP POP POP POP JUMP JUMPDEST PUSH23 0x20B1B1B2B9B9A1B7B73A3937B61D1030B1B1B7BAB73A1 PUSH1 0x4D SHL DUP2 MSTORE PUSH1 0x0 DUP4 MLOAD PUSH2 0x5334 DUP2 PUSH1 0x17 DUP6 ADD PUSH1 0x20 DUP9 ADD PUSH2 0x57CE JUMP JUMPDEST PUSH17 0x1034B99036B4B9B9B4B733903937B6329 PUSH1 0x7D SHL PUSH1 0x17 SWAP2 DUP5 ADD SWAP2 DUP3 ADD MSTORE DUP4 MLOAD PUSH2 0x5365 DUP2 PUSH1 0x28 DUP5 ADD PUSH1 0x20 DUP9 ADD PUSH2 0x57CE JUMP JUMPDEST ADD PUSH1 0x28 ADD SWAP5 SWAP4 POP POP POP POP JUMP JUMPDEST PUSH1 0x1 PUSH1 0x1 PUSH1 0xA0 SHL SUB SWAP2 SWAP1 SWAP2 AND DUP2 MSTORE PUSH1 0x20 ADD SWAP1 JUMP JUMPDEST PUSH1 0x1 PUSH1 0x1 PUSH1 0xA0 SHL SUB DUP6 DUP2 AND DUP3 MSTORE DUP5 AND PUSH1 0x20 DUP3 ADD MSTORE PUSH1 0x40 DUP2 ADD DUP4 SWAP1 MSTORE PUSH1 0x80 PUSH1 0x60 DUP3 ADD DUP2 SWAP1 MSTORE PUSH1 0x0 SWAP1 PUSH2 0x53B8 SWAP1 DUP4 ADD DUP5 PUSH2 0x5293 JUMP JUMPDEST SWAP7 SWAP6 POP POP POP POP POP POP JUMP JUMPDEST PUSH1 0x1 PUSH1 0x1 PUSH1 0xA0 SHL SUB SWAP3 SWAP1 SWAP3 AND DUP3 MSTORE PUSH1 0x20 DUP3 ADD MSTORE PUSH1 0x40 ADD SWAP1 JUMP JUMPDEST PUSH1 0x20 DUP1 DUP3 MSTORE DUP3 MLOAD DUP3 DUP3 ADD DUP2 SWAP1 MSTORE PUSH1 0x0 SWAP2 SWAP1 DUP5 DUP3 ADD SWAP1 PUSH1 0x40 DUP6 ADD SWAP1 DUP5 JUMPDEST DUP2 DUP2 LT ISZERO PUSH2 0x5413 JUMPI DUP4 MLOAD DUP4 MSTORE SWAP3 DUP5 ADD SWAP3 SWAP2 DUP5 ADD SWAP2 PUSH1 0x1 ADD PUSH2 0x53F7 JUMP JUMPDEST POP SWAP1 SWAP7 SWAP6 POP POP POP POP POP POP JUMP JUMPDEST PUSH1 0xE0 DUP2 ADD PUSH1 0x4 DUP10 LT PUSH2 0x5433 JUMPI PUSH2 0x5433 PUSH2 0x58A1 JUMP JUMPDEST DUP9 DUP3 MSTORE DUP8 PUSH1 0x20 DUP4 ADD MSTORE DUP7 PUSH1 0x40 DUP4 ADD MSTORE DUP6 PUSH1 0x60 DUP4 ADD MSTORE DUP5 PUSH1 0x80 DUP4 ADD MSTORE DUP4 PUSH1 0xA0 DUP4 ADD MSTORE PUSH2 0x5461 PUSH1 0xC0 DUP4 ADD DUP5 PUSH2 0x52BF JUMP JUMPDEST SWAP9 SWAP8 POP POP POP POP POP POP POP POP JUMP JUMPDEST SWAP2 DUP3 MSTORE PUSH1 0x20 DUP3 ADD MSTORE PUSH1 0x40 ADD SWAP1 JUMP JUMPDEST PUSH1 0x20 DUP2 MSTORE PUSH1 0x0 PUSH2 0x2D7E PUSH1 0x20 DUP4 ADD DUP5 PUSH2 0x5293 JUMP JUMPDEST PUSH1 0x20 DUP1 DUP3 MSTORE PUSH1 0x2 SWAP1 DUP3 ADD MSTORE PUSH2 0x4F39 PUSH1 0xF0 SHL PUSH1 0x40 DUP3 ADD MSTORE PUSH1 0x60 ADD SWAP1 JUMP JUMPDEST PUSH1 0x20 DUP1 DUP3 MSTORE PUSH1 0x32 SWAP1 DUP3 ADD MSTORE PUSH32 0x4552433732313A207472616E7366657220746F206E6F6E204552433732315265 PUSH1 0x40 DUP3 ADD MSTORE PUSH18 0x31B2B4BB32B91034B6B83632B6B2B73A32B9 PUSH1 0x71 SHL PUSH1 0x60 DUP3 ADD MSTORE PUSH1 0x80 ADD SWAP1 JUMP JUMPDEST PUSH1 0x20 DUP1 DUP3 MSTORE PUSH1 0x3 SWAP1 DUP3 ADD MSTORE PUSH3 0x4F323 PUSH1 0xEC SHL PUSH1 0x40 DUP3 ADD MSTORE PUSH1 0x60 ADD SWAP1 JUMP JUMPDEST PUSH1 0x20 DUP1 DUP3 MSTORE PUSH1 0x2 SWAP1 DUP3 ADD MSTORE PUSH2 0x4E37 PUSH1 0xF0 SHL PUSH1 0x40 DUP3 ADD MSTORE PUSH1 0x60 ADD SWAP1 JUMP JUMPDEST PUSH1 0x20 DUP1 DUP3 MSTORE DUP2 DUP2 ADD MSTORE PUSH32 0x4F776E61626C653A2063616C6C6572206973206E6F7420746865206F776E6572 PUSH1 0x40 DUP3 ADD MSTORE PUSH1 0x60 ADD SWAP1 JUMP JUMPDEST PUSH1 0x20 DUP1 DUP3 MSTORE PUSH1 0x31 SWAP1 DUP3 ADD MSTORE PUSH32 0x4552433732313A207472616E736665722063616C6C6572206973206E6F74206F PUSH1 0x40 DUP3 ADD MSTORE PUSH17 0x1DDB995C881B9BDC88185C1C1C9BDD9959 PUSH1 0x7A SHL PUSH1 0x60 DUP3 ADD MSTORE PUSH1 0x80 ADD SWAP1 JUMP JUMPDEST PUSH1 0x20 DUP1 DUP3 MSTORE PUSH1 0x2 SWAP1 DUP3 ADD MSTORE PUSH2 0x4F31 PUSH1 0xF0 SHL PUSH1 0x40 DUP3 ADD MSTORE PUSH1 0x60 ADD SWAP1 JUMP JUMPDEST PUSH1 0x20 DUP1 DUP3 MSTORE PUSH1 0x2 SWAP1 DUP3 ADD MSTORE PUSH2 0x13CD PUSH1 0xF2 SHL PUSH1 0x40 DUP3 ADD MSTORE PUSH1 0x60 ADD SWAP1 JUMP JUMPDEST DUP5 DUP2 MSTORE PUSH1 0x20 DUP2 ADD DUP5 SWAP1 MSTORE PUSH1 0x80 DUP2 ADD PUSH2 0x560E PUSH1 0x40 DUP4 ADD DUP6 PUSH2 0x52BF JUMP JUMPDEST DUP3 ISZERO ISZERO PUSH1 0x60 DUP4 ADD MSTORE SWAP6 SWAP5 POP POP POP POP POP JUMP JUMPDEST DUP5 DUP2 MSTORE PUSH1 0x20 DUP2 ADD DUP5 SWAP1 MSTORE PUSH1 0x80 DUP2 ADD PUSH2 0x563A PUSH1 0x40 DUP4 ADD DUP6 PUSH2 0x52BF JUMP JUMPDEST DUP3 PUSH1 0x60 DUP4 ADD MSTORE SWAP6 SWAP5 POP POP POP POP POP JUMP JUMPDEST DUP4 DUP2 MSTORE DUP3 PUSH1 0x20 DUP3 ADD MSTORE PUSH1 0x60 PUSH1 0x40 DUP3 ADD MSTORE PUSH1 0x0 PUSH2 0x3717 PUSH1 0x60 DUP4 ADD DUP5 PUSH2 0x5293 JUMP JUMPDEST SWAP3 DUP4 MSTORE PUSH1 0x20 DUP4 ADD SWAP2 SWAP1 SWAP2 MSTORE PUSH1 0x40 DUP3 ADD MSTORE PUSH1 0x60 ADD SWAP1 JUMP JUMPDEST PUSH1 0x0 DUP3 NOT DUP3 GT ISZERO PUSH2 0x5691 JUMPI PUSH2 0x5691 PUSH2 0x5875 JUMP JUMPDEST POP ADD SWAP1 JUMP JUMPDEST PUSH1 0x0 DUP3 PUSH2 0x56A5 JUMPI PUSH2 0x56A5 PUSH2 0x588B JUMP JUMPDEST POP DIV SWAP1 JUMP JUMPDEST PUSH1 0x1 DUP2 DUP2 JUMPDEST DUP1 DUP6 GT ISZERO PUSH2 0x56E5 JUMPI DUP2 PUSH1 0x0 NOT DIV DUP3 GT ISZERO PUSH2 0x56CB JUMPI PUSH2 0x56CB PUSH2 0x5875 JUMP JUMPDEST DUP1 DUP6 AND ISZERO PUSH2 0x56D8 JUMPI SWAP2 DUP2 MUL SWAP2 JUMPDEST SWAP4 DUP5 SHR SWAP4 SWAP1 DUP1 MUL SWAP1 PUSH2 0x56AF JUMP JUMPDEST POP SWAP3 POP SWAP3 SWAP1 POP JUMP JUMPDEST PUSH1 0x0 PUSH2 0x2D7E PUSH1 0xFF DUP5 AND DUP4 PUSH1 0x0 DUP3 PUSH2 0x5706 JUMPI POP PUSH1 0x1 PUSH2 0x81D JUMP JUMPDEST DUP2 PUSH2 0x5713 JUMPI POP PUSH1 0x0 PUSH2 0x81D JUMP JUMPDEST DUP2 PUSH1 0x1 DUP2 EQ PUSH2 0x5729 JUMPI PUSH1 0x2 DUP2 EQ PUSH2 0x5733 JUMPI PUSH2 0x574F JUMP JUMPDEST PUSH1 0x1 SWAP2 POP POP PUSH2 0x81D JUMP JUMPDEST PUSH1 0xFF DUP5 GT ISZERO PUSH2 0x5744 JUMPI PUSH2 0x5744 PUSH2 0x5875 JUMP JUMPDEST POP POP PUSH1 0x1 DUP3 SHL PUSH2 0x81D JUMP JUMPDEST POP PUSH1 0x20 DUP4 LT PUSH2 0x133 DUP4 LT AND PUSH1 0x4E DUP5 LT PUSH1 0xB DUP5 LT AND OR ISZERO PUSH2 0x5772 JUMPI POP DUP2 DUP2 EXP PUSH2 0x81D JUMP JUMPDEST PUSH2 0x577C DUP4 DUP4 PUSH2 0x56AA JUMP JUMPDEST DUP1 PUSH1 0x0 NOT DIV DUP3 GT ISZERO PUSH2 0x5790 JUMPI PUSH2 0x5790 PUSH2 0x5875 JUMP JUMPDEST MUL SWAP4 SWAP3 POP POP POP JUMP JUMPDEST PUSH1 0x0 DUP2 PUSH1 0x0 NOT DIV DUP4 GT DUP3 ISZERO ISZERO AND ISZERO PUSH2 0x57B2 JUMPI PUSH2 0x57B2 PUSH2 0x5875 JUMP JUMPDEST POP MUL SWAP1 JUMP JUMPDEST PUSH1 0x0 DUP3 DUP3 LT ISZERO PUSH2 0x57C9 JUMPI PUSH2 0x57C9 PUSH2 0x5875 JUMP JUMPDEST POP SUB SWAP1 JUMP JUMPDEST PUSH1 0x0 JUMPDEST DUP4 DUP2 LT ISZERO PUSH2 0x57E9 JUMPI DUP2 DUP2 ADD MLOAD DUP4 DUP3 ADD MSTORE PUSH1 0x20 ADD PUSH2 0x57D1 JUMP JUMPDEST DUP4 DUP2 GT ISZERO PUSH2 0xFE3 JUMPI POP POP PUSH1 0x0 SWAP2 ADD MSTORE JUMP JUMPDEST PUSH1 0x0 DUP2 PUSH2 0x5809 JUMPI PUSH2 0x5809 PUSH2 0x5875 JUMP JUMPDEST POP PUSH1 0x0 NOT ADD SWAP1 JUMP JUMPDEST PUSH1 0x1 DUP2 DUP2 SHR SWAP1 DUP3 AND DUP1 PUSH2 0x5825 JUMPI PUSH1 0x7F DUP3 AND SWAP2 POP JUMPDEST PUSH1 0x20 DUP3 LT DUP2 EQ ISZERO PUSH2 0x8F4 JUMPI PUSH4 0x4E487B71 PUSH1 0xE0 SHL PUSH1 0x0 MSTORE PUSH1 0x22 PUSH1 0x4 MSTORE PUSH1 0x24 PUSH1 0x0 REVERT JUMPDEST PUSH1 0x0 PUSH1 0x0 NOT DUP3 EQ ISZERO PUSH2 0x585A JUMPI PUSH2 0x585A PUSH2 0x5875 JUMP JUMPDEST POP PUSH1 0x1 ADD SWAP1 JUMP JUMPDEST PUSH1 0x0 DUP3 PUSH2 0x5870 JUMPI PUSH2 0x5870 PUSH2 0x588B JUMP JUMPDEST POP MOD SWAP1 JUMP JUMPDEST PUSH4 0x4E487B71 PUSH1 0xE0 SHL PUSH1 0x0 MSTORE PUSH1 0x11 PUSH1 0x4 MSTORE PUSH1 0x24 PUSH1 0x0 REVERT JUMPDEST PUSH4 0x4E487B71 PUSH1 0xE0 SHL PUSH1 0x0 MSTORE PUSH1 0x12 PUSH1 0x4 MSTORE PUSH1 0x24 PUSH1 0x0 REVERT JUMPDEST PUSH4 0x4E487B71 PUSH1 0xE0 SHL PUSH1 0x0 MSTORE PUSH1 0x21 PUSH1 0x4 MSTORE PUSH1 0x24 PUSH1 0x0 REVERT JUMPDEST PUSH4 0x4E487B71 PUSH1 0xE0 SHL PUSH1 0x0 MSTORE PUSH1 0x41 PUSH1 0x4 MSTORE PUSH1 0x24 PUSH1 0x0 REVERT JUMPDEST PUSH1 0x1 PUSH1 0x1 PUSH1 0xA0 SHL SUB DUP2 AND DUP2 EQ PUSH2 0xC2C JUMPI PUSH1 0x0 DUP1 REVERT JUMPDEST DUP1 ISZERO ISZERO DUP2 EQ PUSH2 0xC2C JUMPI PUSH1 0x0 DUP1 REVERT JUMPDEST PUSH1 0x1 PUSH1 0x1 PUSH1 0xE0 SHL SUB NOT DUP2 AND DUP2 EQ PUSH2 0xC2C JUMPI PUSH1 0x0 DUP1 REVERT INVALID PUSH9 0x747470733A2F2F6761 PUSH21 0x657761792E70696E6174612E636C6F75642F697066 PUSH20 0x2FDDF252AD1BE2C89B69C2B068FC378DAA952BA7 CALL PUSH4 0xC4A11628 CREATE2 GAS 0x4D CREATE2 0x23 0xB3 0xEF DUP3 GASPRICE CALLVALUE RETURNDATASIZE SHR DUP10 SWAP15 PUSH2 0xA4DB SLT 0x24 PUSH23 0x36A6882BF1FEFAE78BEF39170F8D0F5B53E456A2646970 PUSH7 0x73582212200DC5 DUP1 0x23 0xCB 0xD6 MULMOD EXTCODECOPY SWAP2 0xBB 0xE3 DUP1 0xEA STATICCALL CHAINID PUSH14 0x8082AD611A4E31050B6092BDFFE2 PUSH5 0xFD64736F6C PUSH4 0x43000804 STOP CALLER ","sha1":"297775d9a71681d6b3900321540fa2696da035e2","source":"pragma solidity ^0.8.0;\n\n// SPDX-License-Identifier: BUSL-1.1\n\nimport \"@openzeppelin/contracts/access/Ownable.sol\";\nimport \"@openzeppelin/contracts/security/ReentrancyGuard.sol\";\nimport \"@openzeppelin/contracts/token/ERC20/ERC20.sol\";\nimport \"../OptionsUtils/OptionConfigUnintialized.sol\";\nimport \"..//OptionsUtils/BufferNFTCore.sol\";\nimport \"../Pool/BufferEpocPoolV2Unintialized.sol\";\nimport \"../Libraries/OptionFeeCalculator.sol\";\n\n/**\n * @author Heisenberg\n * @title Buffer TokenX Bidirectional (Call and Put) Options\n * @notice Buffer TokenX Options Contract\n */\ncontract BufferBinaryEuropeanKPIOptions is\n    IBufferOptions,\n    Ownable,\n    ReentrancyGuard,\n    BufferNFTCore\n{\n    ERC20 public stableCoin;\n    ISlidingWindowOracle public KPIOracle;\n    address public tvlOracle;\n    mapping(uint256 => string) private _tokenURIs;\n    IPriceProvider public priceProvider;\n    uint256 public nextTokenId = 0;\n    mapping(uint256 => Option) public options;\n    mapping(uint256 => BinaryOptionType) public binaryOptionType;\n    mapping(uint256 => uint256) public expiryToRoundID;\n    BufferEpocPoolV2Unintialized public pool;\n    OptionConfigUnintialized public config;\n    mapping(uint256 => SlotDetail) public slotDetails;\n    uint256 internal contractCreationTimestamp;\n\n    bytes32 public constant AUTO_CLOSER_ROLE = keccak256(\"AUTO_CLOSER_ROLE\");\n\n    uint256 public constant minimumYield = 5;\n\n    constructor(\n        ERC20 _stableCoin,\n        address _tvlOracle,\n        ISlidingWindowOracle _KPIOracle,\n        IPriceProvider pp,\n        BufferEpocPoolV2Unintialized _pool,\n        OptionConfigUnintialized _config\n    ) {\n        stableCoin = _stableCoin;\n        KPIOracle = _KPIOracle;\n        tvlOracle = _tvlOracle;\n        pool = _pool;\n        contractCreationTimestamp = block.timestamp;\n        config = _config;\n        priceProvider = pp;\n        _setupRole(DEFAULT_ADMIN_ROLE, msg.sender);\n    }\n\n    /************************************************\n     *  OPTIONS CORE\n     ***********************************************/\n    /**\n     * @notice Creates a new option\n     * @param amount Option amount in tokenX\n     * @param isYes Whether the option isAbove or not\n     * @param isAbove Whether the price will stay above this strike or not\n     * @param metadata Option metadata\n     * @return optionID Created option's ID\n     */\n    function create(\n        uint256 amount,\n        bool isYes,\n        bool isAbove,\n        string memory metadata\n    ) external nonReentrant returns (uint256 optionID) {\n        require(\n            pool.isInitialized() && config.isInitialized(),\n            \"Initialization pending\"\n        );\n        uint256 poolExpiration = pool.fixedExpiry();\n        require(poolExpiration > block.timestamp, \"O1\");\n        uint256 period = poolExpiration - block.timestamp;\n\n        require(period >= 12 hours, \"O1\");\n\n        (uint256 totalFee, uint256 settlementFee, uint256 premium) = fees(\n            period,\n            amount,\n            config.fixedStrike(),\n            isYes,\n            isAbove\n        );\n\n        require(\n            totalFee * 365 days * 100 > amount * period * minimumYield,\n            \"O2\"\n        );\n        uint256 currentPrice = priceProvider.getUsdPrice();\n        uint256 tokenXDecimals = 10**(ERC20(pool.tokenX()).decimals());\n        if (msg.sender != pool.projectOwner()) {\n            // User has to approve first inorder to execute this function\n            bool success = stableCoin.transferFrom(\n                msg.sender,\n                address(this),\n                (totalFee * currentPrice * (10**stableCoin.decimals())) /\n                    (tokenXDecimals * 1e8)\n            );\n            require(success, \"O3\");\n        }\n        OptionType optionType = OptionType.Put;\n\n        if (\n            (isYes == true && isAbove == true) ||\n            (isYes == false && isAbove == false)\n        ) {\n            optionType = OptionType.Call;\n        }\n        Option memory option = Option(\n            State.Active,\n            config.fixedStrike(),\n            amount,\n            amount,\n            premium,\n            block.timestamp + period,\n            optionType\n        );\n        optionID = _generateTokenId();\n        binaryOptionType[optionID] = BinaryOptionType(isYes, isAbove);\n        _setOption(optionID, option);\n        _mint(\n            optionID,\n            msg.sender,\n            createSlot(optionID, option.strike, option.expiration, optionType)\n        );\n        _setTokenURI(optionID, metadata);\n\n        _lock(optionID, option.lockedAmount, option.premium);\n\n        if (msg.sender != pool.projectOwner()) {\n            stableCoin.transfer(\n                pool.projectOwner(),\n                (premium * currentPrice * (10**stableCoin.decimals())) /\n                    (tokenXDecimals * 1e8)\n            );\n            stableCoin.transfer(\n                owner(),\n                (settlementFee * currentPrice * (10**stableCoin.decimals())) /\n                    (tokenXDecimals * 1e8)\n            );\n            emit PayAdminFee(owner(), settlementFee);\n        }\n\n        emit Create(optionID, msg.sender, settlementFee, totalFee, metadata);\n    }\n\n    function _modifyOption(\n        uint256 optionID,\n        Option memory option,\n        uint256 lockedAmount,\n        uint256 amount,\n        uint256 premium\n    ) internal returns (Option memory modifiedOption) {\n        option.lockedAmount = lockedAmount;\n        option.amount = amount;\n        option.premium = premium;\n        modifiedOption = option;\n        _setOption(optionID, option);\n    }\n\n    function _lock(\n        uint256 id,\n        uint256 lockedAmount,\n        uint256 premium\n    ) internal {\n        pool.lock(id, lockedAmount, premium);\n    }\n\n    /**\n     * @notice Sets the expiry price in the oracle\n     * @dev a roundId must be provided to confirm price validity,\n     * which is the first Chainlink price provided after the expiryTimestamp\n     * @param roundId the first roundId after expiryTimestamp\n     * @return isCorrectRoundId Has the roundID been set\n     */\n    function setRoundIDForExpiry(uint256 roundId)\n        external\n        returns (bool isCorrectRoundId)\n    {\n        (uint256 roundTimestamp, uint256 KPI) = KPIOracle\n            .getTimeWeightedAverageTVL(tvlOracle, roundId);\n        uint256 expiryTimestamp = pool.fixedExpiry();\n        require(expiryTimestamp < roundTimestamp, \"C1\");\n        require(KPI >= 0, \"C2\");\n        uint256 previousRoundId = roundId - 1;\n        while (!isCorrectRoundId) {\n            (uint256 previousRoundTimestamp, ) = KPIOracle\n                .getTimeWeightedAverageTVL(tvlOracle, previousRoundId);\n\n            if (previousRoundTimestamp == 0) {\n                require(previousRoundId > 0, \"C3\");\n                previousRoundId = previousRoundId - 1;\n            } else if (previousRoundTimestamp > expiryTimestamp) {\n                revert(\"C4\");\n            } else {\n                isCorrectRoundId = true;\n                expiryToRoundID[expiryTimestamp] = previousRoundId;\n            }\n        }\n    }\n\n    /**\n     * @notice Unlocks the locked funds if the option was\n     * OTM at the time of expiry otherwise exercises it\n     * @param optionID ID of the option\n     */\n    function unlock(uint256 optionID) public {\n        Option storage option = options[optionID];\n        require(option.expiration <= block.timestamp, \"O4\");\n        require(option.state == State.Active, \"O5\");\n        uint256 roundID = expiryToRoundID[option.expiration];\n        require(roundID > 0, \"O20\");\n\n        (, uint256 KPIAtExpiration) = KPIOracle.getTimeWeightedAverageTVL(\n            tvlOracle,\n            roundID\n        );\n        if (\n            (option.optionType == OptionType.Call &&\n                KPIAtExpiration >= option.strike) ||\n            (option.optionType == OptionType.Put &&\n                KPIAtExpiration <= option.strike)\n        ) {\n            exercise(optionID);\n        } else {\n            option.state = State.Expired;\n            pool.unlock(optionID);\n            burnToken(optionID);\n            emit Expire(optionID, option.premium);\n        }\n    }\n\n    /**\n     * @notice Unlocks an array of options\n     * @param optionIDs array of options\n     */\n    function unlockAll(uint256[] calldata optionIDs) external {\n        uint256 arrayLength = optionIDs.length;\n        for (uint256 i = 0; i < arrayLength; i++) {\n            unlock(optionIDs[i]);\n        }\n    }\n\n    /**\n     * @notice Exercises an option if it was\n     * ITM at the time of expiry\n     * @param optionID ID of your option\n     * @return profit Profit sent to the user\n     */\n    function exercise(uint256 optionID) public returns (uint256 profit) {\n        require(exists(optionID), \"O10\");\n\n        Option storage option = options[optionID];\n\n        require(option.expiration <= block.timestamp, \"O4\");\n        require(option.state == State.Active, \"O14\");\n        uint256 roundID = expiryToRoundID[option.expiration];\n        require(roundID > 0, \"O20\");\n\n        (, uint256 KPIAtExpiration) = KPIOracle.getTimeWeightedAverageTVL(\n            tvlOracle,\n            roundID\n        );\n\n        if (option.optionType == OptionType.Call) {\n            require(option.strike <= KPIAtExpiration, \"O17\");\n        } else {\n            require(option.strike >= KPIAtExpiration, \"O18\");\n        }\n        profit = option.lockedAmount;\n        pool.send(optionID, ownerOf(optionID), profit);\n        // Burn the option\n        burnToken(optionID);\n        option.state = State.Exercised;\n        emit Exercise(optionID, profit);\n    }\n\n    /**\n     * @notice Used for getting the option's price using blackscholes\n     * @param period Option period in seconds\n     * @param amount Option amount\n     * @param strike Strike price of the option\n     * @param isYes whether the option isAbove or not\n     * @param isAbove whether the price will stay above this strike or not\n     * @return total Total price to be paid\n     * @return settlementFee Amount to be distributed to the Buffer token holders\n     * @return premium Amount that covers the price difference in the ITM options\n     */\n    function fees(\n        uint256 period,\n        uint256 amount,\n        uint256 strike,\n        bool isYes,\n        bool isAbove\n    )\n        public\n        view\n        returns (\n            uint256 total,\n            uint256 settlementFee,\n            uint256 premium\n        )\n    {\n        uint256 currentPrice = priceProvider.getUsdPrice();\n        uint256 KPI = KPIOracle.consult(tvlOracle);\n        OptionDetails memory _optionDetails = OptionDetails(\n            period,\n            amount,\n            strike,\n            isYes,\n            isAbove\n        );\n        (total, settlementFee, premium) = FeeCalculator.feesKPIBinary(\n            _optionDetails,\n            currentPrice,\n            KPI,\n            config,\n            pool\n        );\n    }\n\n    function _generateTokenId() internal returns (uint256) {\n        return nextTokenId++;\n    }\n\n    function _getOption(uint256 optionID)\n        internal\n        view\n        returns (Option memory)\n    {\n        return options[optionID];\n    }\n\n    function _setOption(uint256 optionID, Option memory option) internal {\n        options[optionID] = option;\n    }\n\n    function burn(uint256 tokenId_) external {\n        require(msg.sender == ownerOf(tokenId_), \"O9\");\n        burnToken(tokenId_);\n    }\n\n    /************************************************\n     *  ERC3525 Functions\n     ***********************************************/\n\n    /**\n     * @notice Splits the option\n     * @param optionID OptionId to be splitted\n     * @param splitUnits_ Units to be splitted into\n     * @return newOptionIDs An array of the splitted options\n     */\n    function split(uint256 optionID, uint256[] calldata splitUnits_)\n        external\n        returns (uint256[] memory newOptionIDs)\n    {\n        require(splitUnits_.length > 0, \"N1\");\n        newOptionIDs = new uint256[](splitUnits_.length);\n        Option memory option = _getOption(optionID);\n        uint256 totalUnits = unitsInToken(optionID);\n        uint256 totalChildAmount;\n        uint256 totalChildLockedAmount;\n        uint256 totalChildPremium;\n        // Create child options\n        for (uint256 i = 0; i < splitUnits_.length; i++) {\n            uint256 newOptionID = _generateTokenId();\n            newOptionIDs[i] = newOptionID;\n\n            _split(optionID, newOptionID, splitUnits_[i]);\n\n            uint256 childAmount = (option.amount * splitUnits_[i]) / totalUnits;\n            totalChildAmount += childAmount;\n\n            uint256 childLockedAmount = (option.lockedAmount * splitUnits_[i]) /\n                totalUnits;\n            totalChildLockedAmount += childLockedAmount;\n\n            uint256 childPremium = (option.premium * splitUnits_[i]) /\n                totalUnits;\n            totalChildPremium += childPremium;\n\n            Option memory newOption = Option(\n                option.state,\n                option.strike,\n                childAmount,\n                childLockedAmount,\n                childPremium,\n                option.expiration,\n                option.optionType\n            );\n            _setOption(newOptionID, newOption);\n        }\n        // Modify the parent option once all child options are created\n        option = _modifyOption(\n            optionID,\n            option,\n            option.lockedAmount - totalChildLockedAmount,\n            option.amount - totalChildAmount,\n            option.premium - totalChildPremium\n        );\n        pool.changeLock(optionID, option.lockedAmount, option.premium);\n\n        // Lock the amount in the pool for the child options\n        for (uint256 i = 0; i < splitUnits_.length; i++) {\n            Option memory newOption = _getOption(newOptionIDs[i]);\n            _lock(newOptionIDs[i], newOption.lockedAmount, newOption.premium);\n        }\n    }\n\n    /**\n     * @notice Merges the options\n     * @param optionIDs An array of the optionsIds to be merged\n     * @param targetOptionID OptionId to be merged into\n     */\n    function merge(uint256[] calldata optionIDs, uint256 targetOptionID)\n        external\n    {\n        require(optionIDs.length > 0, \"N4\");\n        Option memory targetOption = _getOption(targetOptionID);\n\n        uint256 totalLockedAmount = targetOption.lockedAmount;\n        uint256 totalAmount = targetOption.amount;\n        uint256 totalPremium = targetOption.premium;\n\n        for (uint256 i = 0; i < optionIDs.length; i++) {\n            Option memory option = _getOption(optionIDs[i]);\n            totalLockedAmount = totalLockedAmount + option.lockedAmount;\n            totalAmount = totalAmount + option.amount;\n            totalPremium = totalPremium + option.premium;\n            pool.unlockWithoutProfit(optionIDs[i]);\n            _merge(optionIDs[i], targetOptionID);\n        }\n        _modifyOption(\n            targetOptionID,\n            targetOption,\n            totalLockedAmount,\n            totalAmount,\n            totalPremium\n        );\n        pool.changeLock(targetOptionID, totalLockedAmount, totalPremium);\n    }\n\n    /**\n     * @notice Transfer part of units of a option to another option.\n     * @param optionID Id of the option to transfer\n     * @param transferUnits_ Amount of units to transfer\n     */\n    function _beforeTransferFrom(uint256 optionID, uint256 transferUnits_)\n        internal\n        returns (\n            uint256 newAmount,\n            uint256 newPremium,\n            uint256 newLockedAmount,\n            Option memory option\n        )\n    {\n        option = _getOption(optionID);\n        uint256 totalUnits = unitsInToken(optionID);\n        newAmount = (option.amount * transferUnits_) / totalUnits;\n        newPremium = (option.premium * transferUnits_) / totalUnits;\n        newLockedAmount = (option.lockedAmount * transferUnits_) / totalUnits;\n\n        option = _modifyOption(\n            optionID,\n            option,\n            option.lockedAmount - newLockedAmount,\n            option.amount - newAmount,\n            option.premium - newPremium\n        );\n        pool.changeLock(optionID, option.lockedAmount, option.premium);\n    }\n\n    /**\n     * @notice Transfer part of units of a option to target address.\n     * @param from_ Address of the option sender\n     * @param to_ Address of the option recipient\n     * @param optionID Id of the option to transfer\n     * @param transferUnits_ Amount of units to transfer\n     */\n    function transferFrom(\n        address from_,\n        address to_,\n        uint256 optionID,\n        uint256 transferUnits_\n    ) external returns (uint256 newOptionID) {\n        newOptionID = _generateTokenId();\n        (\n            uint256 newAmount,\n            uint256 newPremium,\n            uint256 newLockedAmount,\n            Option memory option\n        ) = _beforeTransferFrom(optionID, transferUnits_);\n        Option memory newOption = Option(\n            option.state,\n            option.strike,\n            newAmount,\n            newLockedAmount,\n            newPremium,\n            option.expiration,\n            option.optionType\n        );\n        _setOption(newOptionID, newOption);\n\n        _lock(newOptionID, newLockedAmount, newPremium);\n        _transferUnitsFrom(from_, to_, optionID, newOptionID, transferUnits_);\n    }\n\n    /**\n     * @notice Transfer part of units of a option to another option.\n     * @param from_ Address of the option sender\n     * @param to_ Address of the option recipient\n     * @param optionID Id of the option to transfer\n     * @param targetOptionID Id of the option to receive\n     * @param transferUnits_ Amount of units to transfer\n     */\n    function transferFrom(\n        address from_,\n        address to_,\n        uint256 optionID,\n        uint256 targetOptionID,\n        uint256 transferUnits_\n    ) external virtual {\n        require(exists(targetOptionID), \"N12\");\n        (\n            uint256 newAmount,\n            uint256 newPremium,\n            uint256 newLockedAmount,\n\n        ) = _beforeTransferFrom(optionID, transferUnits_);\n        Option memory targetOption = _getOption(targetOptionID);\n        targetOption = _modifyOption(\n            targetOptionID,\n            targetOption,\n            targetOption.lockedAmount + newLockedAmount,\n            targetOption.amount + newAmount,\n            targetOption.premium + newPremium\n        );\n\n        pool.changeLock(\n            targetOptionID,\n            targetOption.lockedAmount,\n            targetOption.premium\n        );\n        _transferUnitsFrom(\n            from_,\n            to_,\n            optionID,\n            targetOptionID,\n            transferUnits_\n        );\n    }\n\n    function createSlot(\n        uint256 optionID,\n        uint256 strike,\n        uint256 expiration,\n        OptionType optionType\n    ) internal returns (uint256 slot) {\n        slot = uint256(\n            keccak256(abi.encode(strike, expiration, optionType, optionID))\n        );\n        require(!slotDetails[slot].isValid, \"N14\");\n        slotDetails[slot] = SlotDetail(strike, expiration, optionType, true);\n    }\n}\n","sourcePath":"contracts/KPI Options/BufferBinaryEuropeanKPIOptions.sol","deployment":{"address":"0x62a63E8Db1Bab481CF4ad8Ccc670453A4F563184","chainid":"97","blockHeight":20152784}}