{"abi":[{"inputs":[{"internalType":"contract ERC20","name":"_stableCoin","type":"address"},{"internalType":"contract ITwapPriceProvider","name":"pp","type":"address"},{"internalType":"contract BufferEpocPoolV2Unintialized","name":"_pool","type":"address"},{"internalType":"contract OptionConfigUnintialized","name":"_config","type":"address"}],"stateMutability":"nonpayable","type":"constructor","name":"constructor"},{"anonymous":false,"inputs":[{"indexed":true,"internalType":"address","name":"owner","type":"address"},{"indexed":true,"internalType":"address","name":"approved","type":"address"},{"indexed":true,"internalType":"uint256","name":"tokenId","type":"uint256"}],"name":"Approval","type":"event"},{"anonymous":false,"inputs":[{"indexed":true,"internalType":"address","name":"owner","type":"address"},{"indexed":true,"internalType":"address","name":"operator","type":"address"},{"indexed":false,"internalType":"bool","name":"approved","type":"bool"}],"name":"ApprovalForAll","type":"event"},{"anonymous":false,"inputs":[{"indexed":true,"internalType":"address","name":"approval","type":"address"},{"indexed":true,"internalType":"uint256","name":"tokenId","type":"uint256"},{"indexed":false,"internalType":"uint256","name":"allowance","type":"uint256"}],"name":"ApprovalUnits","type":"event"},{"anonymous":false,"inputs":[{"indexed":true,"internalType":"address","name":"account","type":"address"},{"indexed":false,"internalType":"bool","name":"status","type":"bool"}],"name":"AutoExerciseStatusChange","type":"event"},{"anonymous":false,"inputs":[{"indexed":true,"internalType":"uint256","name":"id","type":"uint256"},{"indexed":true,"internalType":"address","name":"account","type":"address"},{"indexed":false,"internalType":"uint256","name":"settlementFee","type":"uint256"},{"indexed":false,"internalType":"uint256","name":"totalFee","type":"uint256"},{"indexed":false,"internalType":"string","name":"metadata","type":"string"}],"name":"Create","type":"event"},{"anonymous":false,"inputs":[{"indexed":true,"internalType":"uint256","name":"id","type":"uint256"},{"indexed":false,"internalType":"uint256","name":"profit","type":"uint256"}],"name":"Exercise","type":"event"},{"anonymous":false,"inputs":[{"indexed":true,"internalType":"uint256","name":"id","type":"uint256"},{"indexed":false,"internalType":"uint256","name":"premium","type":"uint256"}],"name":"Expire","type":"event"},{"anonymous":false,"inputs":[{"indexed":true,"internalType":"address","name":"owner","type":"address"},{"indexed":true,"internalType":"uint256","name":"tokenId","type":"uint256"},{"indexed":true,"internalType":"uint256","name":"targetTokenId","type":"uint256"},{"indexed":false,"internalType":"uint256","name":"mergeUnits","type":"uint256"}],"name":"Merge","type":"event"},{"anonymous":false,"inputs":[{"indexed":true,"internalType":"address","name":"previousOwner","type":"address"},{"indexed":true,"internalType":"address","name":"newOwner","type":"address"}],"name":"OwnershipTransferred","type":"event"},{"anonymous":false,"inputs":[{"indexed":true,"internalType":"address","name":"owner","type":"address"},{"indexed":false,"internalType":"uint256","name":"amount","type":"uint256"}],"name":"PayAdminFee","type":"event"},{"anonymous":false,"inputs":[{"indexed":true,"internalType":"address","name":"referrer","type":"address"},{"indexed":false,"internalType":"uint256","name":"amount","type":"uint256"}],"name":"PayReferralFee","type":"event"},{"anonymous":false,"inputs":[{"indexed":true,"internalType":"bytes32","name":"role","type":"bytes32"},{"indexed":true,"internalType":"bytes32","name":"previousAdminRole","type":"bytes32"},{"indexed":true,"internalType":"bytes32","name":"newAdminRole","type":"bytes32"}],"name":"RoleAdminChanged","type":"event"},{"anonymous":false,"inputs":[{"indexed":true,"internalType":"bytes32","name":"role","type":"bytes32"},{"indexed":true,"internalType":"address","name":"account","type":"address"},{"indexed":true,"internalType":"address","name":"sender","type":"address"}],"name":"RoleGranted","type":"event"},{"anonymous":false,"inputs":[{"indexed":true,"internalType":"bytes32","name":"role","type":"bytes32"},{"indexed":true,"internalType":"address","name":"account","type":"address"},{"indexed":true,"internalType":"address","name":"sender","type":"address"}],"name":"RoleRevoked","type":"event"},{"anonymous":false,"inputs":[{"indexed":true,"internalType":"address","name":"owner","type":"address"},{"indexed":true,"internalType":"uint256","name":"tokenId","type":"uint256"},{"indexed":false,"internalType":"uint256","name":"newTokenId","type":"uint256"},{"indexed":false,"internalType":"uint256","name":"splitUnits","type":"uint256"}],"name":"Split","type":"event"},{"anonymous":false,"inputs":[{"indexed":true,"internalType":"address","name":"from","type":"address"},{"indexed":true,"internalType":"address","name":"to","type":"address"},{"indexed":true,"internalType":"uint256","name":"tokenId","type":"uint256"}],"name":"Transfer","type":"event"},{"anonymous":false,"inputs":[{"indexed":true,"internalType":"address","name":"from","type":"address"},{"indexed":true,"internalType":"address","name":"to","type":"address"},{"indexed":true,"internalType":"uint256","name":"tokenId","type":"uint256"},{"indexed":false,"internalType":"uint256","name":"targetTokenId","type":"uint256"},{"indexed":false,"internalType":"uint256","name":"transferUnits","type":"uint256"}],"name":"TransferUnits","type":"event"},{"anonymous":false,"inputs":[{"indexed":false,"internalType":"uint256","name":"startHour","type":"uint256"},{"indexed":false,"internalType":"uint256","name":"startMinute","type":"uint256"},{"indexed":false,"internalType":"uint256","name":"endHour","type":"uint256"},{"indexed":false,"internalType":"uint256","name":"endMinute","type":"uint256"}],"name":"UpdateOptionCreationWindow","type":"event"},{"inputs":[],"name":"DEFAULT_ADMIN_ROLE","outputs":[{"internalType":"bytes32","name":"","type":"bytes32"}],"stateMutability":"view","type":"function"},{"inputs":[{"internalType":"uint256","name":"","type":"uint256"}],"name":"_units","outputs":[{"internalType":"uint256","name":"","type":"uint256"}],"stateMutability":"view","type":"function"},{"inputs":[{"internalType":"uint256","name":"optionId_","type":"uint256"},{"internalType":"address","name":"spender_","type":"address"}],"name":"allowance","outputs":[{"internalType":"uint256","name":"","type":"uint256"}],"stateMutability":"view","type":"function"},{"inputs":[{"internalType":"address","name":"to","type":"address"},{"internalType":"uint256","name":"tokenId","type":"uint256"}],"name":"approve","outputs":[],"stateMutability":"nonpayable","type":"function"},{"inputs":[{"internalType":"address","name":"to_","type":"address"},{"internalType":"uint256","name":"optionId_","type":"uint256"},{"internalType":"uint256","name":"allowance_","type":"uint256"}],"name":"approve","outputs":[],"stateMutability":"nonpayable","type":"function"},{"inputs":[{"internalType":"address","name":"owner","type":"address"}],"name":"balanceOf","outputs":[{"internalType":"uint256","name":"","type":"uint256"}],"stateMutability":"view","type":"function"},{"inputs":[{"internalType":"uint256","name":"tokenId_","type":"uint256"}],"name":"burn","outputs":[],"stateMutability":"nonpayable","type":"function"},{"inputs":[],"name":"config","outputs":[{"internalType":"contract OptionConfigUnintialized","name":"","type":"address"}],"stateMutability":"view","type":"function"},{"inputs":[{"internalType":"uint256","name":"amount","type":"uint256"},{"internalType":"string","name":"metadata","type":"string"}],"name":"create","outputs":[{"internalType":"uint256","name":"optionID","type":"uint256"}],"stateMutability":"nonpayable","type":"function"},{"inputs":[{"internalType":"uint256","name":"optionID","type":"uint256"}],"name":"exercise","outputs":[{"internalType":"uint256","name":"payout","type":"uint256"}],"stateMutability":"nonpayable","type":"function"},{"inputs":[{"internalType":"uint256","name":"optionID","type":"uint256"}],"name":"exists","outputs":[{"internalType":"bool","name":"","type":"bool"}],"stateMutability":"view","type":"function"},{"inputs":[{"internalType":"uint256","name":"","type":"uint256"}],"name":"expiryToRoundID","outputs":[{"internalType":"uint256","name":"","type":"uint256"}],"stateMutability":"view","type":"function"},{"inputs":[{"internalType":"uint256","name":"period","type":"uint256"},{"internalType":"uint256","name":"amount","type":"uint256"},{"internalType":"uint256","name":"strike","type":"uint256"},{"internalType":"enum IOptions.OptionType","name":"optionType","type":"uint8"}],"name":"fees","outputs":[{"internalType":"uint256","name":"total","type":"uint256"},{"internalType":"uint256","name":"settlementFee","type":"uint256"},{"internalType":"uint256","name":"premium","type":"uint256"}],"stateMutability":"view","type":"function"},{"inputs":[],"name":"fixedOptionType","outputs":[{"internalType":"enum IOptions.OptionType","name":"","type":"uint8"}],"stateMutability":"view","type":"function"},{"inputs":[{"internalType":"uint256","name":"tokenId","type":"uint256"}],"name":"getApproved","outputs":[{"internalType":"address","name":"","type":"address"}],"stateMutability":"view","type":"function"},{"inputs":[{"internalType":"uint256","name":"optionID","type":"uint256"}],"name":"getPayout","outputs":[{"internalType":"uint256","name":"payout","type":"uint256"}],"stateMutability":"nonpayable","type":"function"},{"inputs":[{"internalType":"bytes32","name":"role","type":"bytes32"}],"name":"getRoleAdmin","outputs":[{"internalType":"bytes32","name":"","type":"bytes32"}],"stateMutability":"view","type":"function"},{"inputs":[{"internalType":"bytes32","name":"role","type":"bytes32"},{"internalType":"address","name":"account","type":"address"}],"name":"grantRole","outputs":[],"stateMutability":"nonpayable","type":"function"},{"inputs":[{"internalType":"bytes32","name":"role","type":"bytes32"},{"internalType":"address","name":"account","type":"address"}],"name":"hasRole","outputs":[{"internalType":"bool","name":"","type":"bool"}],"stateMutability":"view","type":"function"},{"inputs":[{"internalType":"address","name":"owner","type":"address"},{"internalType":"address","name":"operator","type":"address"}],"name":"isApprovedForAll","outputs":[{"internalType":"bool","name":"","type":"bool"}],"stateMutability":"view","type":"function"},{"inputs":[],"name":"maxUnits","outputs":[{"internalType":"uint256","name":"","type":"uint256"}],"stateMutability":"view","type":"function"},{"inputs":[{"internalType":"uint256[]","name":"optionIDs","type":"uint256[]"},{"internalType":"uint256","name":"targetOptionID","type":"uint256"}],"name":"merge","outputs":[],"stateMutability":"nonpayable","type":"function"},{"inputs":[],"name":"minimumYield","outputs":[{"internalType":"uint256","name":"","type":"uint256"}],"stateMutability":"view","type":"function"},{"inputs":[],"name":"name","outputs":[{"internalType":"string","name":"","type":"string"}],"stateMutability":"view","type":"function"},{"inputs":[],"name":"nextTokenId","outputs":[{"internalType":"uint256","name":"","type":"uint256"}],"stateMutability":"view","type":"function"},{"inputs":[{"internalType":"uint256","name":"","type":"uint256"}],"name":"optionSlotMapping","outputs":[{"internalType":"uint256","name":"","type":"uint256"}],"stateMutability":"view","type":"function"},{"inputs":[{"internalType":"uint256","name":"","type":"uint256"}],"name":"options","outputs":[{"internalType":"enum IOptions.State","name":"state","type":"uint8"},{"internalType":"uint256","name":"strike","type":"uint256"},{"internalType":"uint256","name":"amount","type":"uint256"},{"internalType":"uint256","name":"lockedAmount","type":"uint256"},{"internalType":"uint256","name":"premium","type":"uint256"},{"internalType":"uint256","name":"expiration","type":"uint256"},{"internalType":"enum IOptions.OptionType","name":"optionType","type":"uint8"}],"stateMutability":"view","type":"function"},{"inputs":[],"name":"owner","outputs":[{"internalType":"address","name":"","type":"address"}],"stateMutability":"view","type":"function"},{"inputs":[{"internalType":"uint256","name":"tokenId","type":"uint256"}],"name":"ownerOf","outputs":[{"internalType":"address","name":"","type":"address"}],"stateMutability":"view","type":"function"},{"inputs":[],"name":"pool","outputs":[{"internalType":"contract BufferEpocPoolV2Unintialized","name":"","type":"address"}],"stateMutability":"view","type":"function"},{"inputs":[],"name":"priceProvider","outputs":[{"internalType":"contract ITwapPriceProvider","name":"","type":"address"}],"stateMutability":"view","type":"function"},{"inputs":[],"name":"renounceOwnership","outputs":[],"stateMutability":"nonpayable","type":"function"},{"inputs":[{"internalType":"bytes32","name":"role","type":"bytes32"},{"internalType":"address","name":"account","type":"address"}],"name":"renounceRole","outputs":[],"stateMutability":"nonpayable","type":"function"},{"inputs":[{"internalType":"bytes32","name":"role","type":"bytes32"},{"internalType":"address","name":"account","type":"address"}],"name":"revokeRole","outputs":[],"stateMutability":"nonpayable","type":"function"},{"inputs":[{"internalType":"address","name":"from","type":"address"},{"internalType":"address","name":"to","type":"address"},{"internalType":"uint256","name":"tokenId","type":"uint256"}],"name":"safeTransferFrom","outputs":[],"stateMutability":"nonpayable","type":"function"},{"inputs":[{"internalType":"address","name":"from","type":"address"},{"internalType":"address","name":"to","type":"address"},{"internalType":"uint256","name":"tokenId","type":"uint256"},{"internalType":"bytes","name":"_data","type":"bytes"}],"name":"safeTransferFrom","outputs":[],"stateMutability":"nonpayable","type":"function"},{"inputs":[{"internalType":"address","name":"operator","type":"address"},{"internalType":"bool","name":"approved","type":"bool"}],"name":"setApprovalForAll","outputs":[],"stateMutability":"nonpayable","type":"function"},{"inputs":[{"internalType":"uint256","name":"roundId","type":"uint256"}],"name":"setRoundIDForExpiry","outputs":[{"internalType":"bool","name":"isCorrectRoundId","type":"bool"}],"stateMutability":"nonpayable","type":"function"},{"inputs":[{"internalType":"uint256","name":"","type":"uint256"}],"name":"slotDetails","outputs":[{"internalType":"uint256","name":"strike","type":"uint256"},{"internalType":"uint256","name":"expiration","type":"uint256"},{"internalType":"enum IOptions.OptionType","name":"optionType","type":"uint8"},{"internalType":"bool","name":"isValid","type":"bool"}],"stateMutability":"view","type":"function"},{"inputs":[{"internalType":"uint256","name":"optionId_","type":"uint256"}],"name":"slotOf","outputs":[{"internalType":"uint256","name":"","type":"uint256"}],"stateMutability":"view","type":"function"},{"inputs":[{"internalType":"uint256","name":"optionID","type":"uint256"},{"internalType":"uint256[]","name":"splitUnits_","type":"uint256[]"}],"name":"split","outputs":[{"internalType":"uint256[]","name":"newOptionIDs","type":"uint256[]"}],"stateMutability":"nonpayable","type":"function"},{"inputs":[],"name":"stableCoin","outputs":[{"internalType":"contract ERC20","name":"","type":"address"}],"stateMutability":"view","type":"function"},{"inputs":[{"internalType":"bytes4","name":"interfaceId","type":"bytes4"}],"name":"supportsInterface","outputs":[{"internalType":"bool","name":"","type":"bool"}],"stateMutability":"view","type":"function"},{"inputs":[],"name":"symbol","outputs":[{"internalType":"string","name":"","type":"string"}],"stateMutability":"view","type":"function"},{"inputs":[{"internalType":"uint256","name":"slot_","type":"uint256"},{"internalType":"uint256","name":"index_","type":"uint256"}],"name":"tokenOfSlotByIndex","outputs":[{"internalType":"uint256","name":"","type":"uint256"}],"stateMutability":"view","type":"function"},{"inputs":[{"internalType":"uint256","name":"tokenId","type":"uint256"}],"name":"tokenURI","outputs":[{"internalType":"string","name":"","type":"string"}],"stateMutability":"view","type":"function"},{"inputs":[{"internalType":"uint256","name":"slot_","type":"uint256"}],"name":"tokensInSlot","outputs":[{"internalType":"uint256","name":"","type":"uint256"}],"stateMutability":"view","type":"function"},{"inputs":[{"internalType":"address","name":"from","type":"address"},{"internalType":"address","name":"to","type":"address"},{"internalType":"uint256","name":"tokenId","type":"uint256"}],"name":"transferFrom","outputs":[],"stateMutability":"nonpayable","type":"function"},{"inputs":[{"internalType":"address","name":"from_","type":"address"},{"internalType":"address","name":"to_","type":"address"},{"internalType":"uint256","name":"optionID","type":"uint256"},{"internalType":"uint256","name":"targetOptionID","type":"uint256"},{"internalType":"uint256","name":"transferUnits_","type":"uint256"}],"name":"transferFrom","outputs":[],"stateMutability":"nonpayable","type":"function"},{"inputs":[{"internalType":"address","name":"from_","type":"address"},{"internalType":"address","name":"to_","type":"address"},{"internalType":"uint256","name":"optionID","type":"uint256"},{"internalType":"uint256","name":"transferUnits_","type":"uint256"}],"name":"transferFrom","outputs":[{"internalType":"uint256","name":"newOptionID","type":"uint256"}],"stateMutability":"nonpayable","type":"function"},{"inputs":[{"internalType":"address","name":"newOwner","type":"address"}],"name":"transferOwnership","outputs":[],"stateMutability":"nonpayable","type":"function"},{"inputs":[],"name":"unitDecimals","outputs":[{"internalType":"uint8","name":"","type":"uint8"}],"stateMutability":"view","type":"function"},{"inputs":[{"internalType":"uint256","name":"slot_","type":"uint256"}],"name":"unitsInSlot","outputs":[{"internalType":"uint256","name":"units_","type":"uint256"}],"stateMutability":"view","type":"function"},{"inputs":[{"internalType":"uint256","name":"optionId_","type":"uint256"}],"name":"unitsInToken","outputs":[{"internalType":"uint256","name":"","type":"uint256"}],"stateMutability":"view","type":"function"},{"inputs":[{"internalType":"uint256","name":"optionID","type":"uint256"}],"name":"unlock","outputs":[],"stateMutability":"nonpayable","type":"function"},{"inputs":[{"internalType":"uint256[]","name":"optionIDs","type":"uint256[]"}],"name":"unlockAll","outputs":[],"stateMutability":"nonpayable","type":"function"}],"bytecode":"6080604052620f4240600d55600e805460ff19166012908117909155805460ff60a01b1916600160a11b17905560006013553480156200003e57600080fd5b5060405162005e9a38038062005e9a833981016040819052620000619162000308565b604080518082018252600a8152694275666665722050726f60b01b60208083019182528351808501909452600384526221232960e91b908401528151919291620000ae9160009162000262565b508051620000c490600190602084019062000262565b505050620000e1620000db6200015860201b60201c565b6200015c565b6001600755620000f3600033620001ae565b601080546001600160a01b038087166001600160a01b03199283161790925560158054858416908316179055426019556016805484841690831617905560128054928616929091169190911790556200014e600033620001ae565b50505050620003c5565b3390565b600680546001600160a01b038381166001600160a01b0319831681179093556040519116919082907f8be0079c531659141344cd1fd0a4f28419497f9722a3daafe3b4186f6b6457e090600090a35050565b620001ba8282620001be565b5050565b60008281526008602090815260408083206001600160a01b038516845290915290205460ff16620001ba5760008281526008602090815260408083206001600160a01b03851684529091529020805460ff191660011790556200021e3390565b6001600160a01b0316816001600160a01b0316837f2f8788117e7eff1d82e926ec794901d17c78024a50270940304540a733656f0d60405160405180910390a45050565b82805462000270906200036f565b90600052602060002090601f016020900481019282620002945760008555620002df565b82601f10620002af57805160ff1916838001178555620002df565b82800160010185558215620002df579182015b82811115620002df578251825591602001919060010190620002c2565b50620002ed929150620002f1565b5090565b5b80821115620002ed5760008155600101620002f2565b600080600080608085870312156200031e578384fd5b84516200032b81620003ac565b60208601519094506200033e81620003ac565b60408601519093506200035181620003ac565b60608601519092506200036481620003ac565b939692955090935050565b600181811c908216806200038457607f821691505b60208210811415620003a657634e487b7160e01b600052602260045260246000fd5b50919050565b6001600160a01b0381168114620003c257600080fd5b50565b615ac580620003d56000396000f3fe608060405234801561001057600080fd5b50600436106102885760003560e01c80630118fa491461028d57806301ffc9a7146102b357806305271a2a146102d657806306517a29146102eb57806306fdde03146102f4578063076d948c14610309578063081812fc1461031c578063095ea7b31461034757806316f0115b1461035c5780631cecaa311461036f57806323b872dd14610390578063248a9ca3146103a3578063263f3e7e146103b65780632f2ff15d146103c957806336568abe146103dc5780633e56f9f9146103ef578063409e220514610402578063426a84931461046557806342842e0e1461047857806342966c681461048b5780634aed53c21461049e5780634f558e79146104b15780636198e339146104c45780636352211e146104d757806369c67247146104ea57806370a082311461050a578063715018a61461051d57806375794a3c1461052557806378c533ce1461052e57806379502c551461054e578063841edc0e146105615780638a584118146105815780638da5cb5b146105cc5780638dd7d2c1146105d457806391d14854146105e757806395d89b41146105fa578063992642e514610602578063a217fddf14610615578063a22cb4651461061d578063a6d14c0214610630578063a880042514610638578063b07f0a411461064b578063b888879e1461065e578063b88d4fde14610671578063bbe33ea514610684578063becef60714610697578063c7c3b53f146106aa578063c87b56dd146106cc578063d149cc30146106df578063d547741f146106f2578063d5a0e67314610705578063e342b59814610725578063e345e0bc14610738578063e985e9c514610772578063f2fde38b14610785578063fe99049a14610798575b600080fd5b6102a061029b36600461523d565b6107ab565b6040519081526020015b60405180910390f35b6102c66102c13660046151a4565b611601565b60405190151581526020016102aa565b600e5460405160ff90911681526020016102aa565b6102a0600d5481565b6102fc611612565b6040516102aa919061554b565b6102a0610317366004615168565b6116a4565b61032f61032a366004615168565b6116e9565b6040516001600160a01b0390911681526020016102aa565b61035a610355366004615065565b611771565b005b60155461032f906001600160a01b031681565b60125461038390600160a01b900460ff1681565b6040516102aa91906154e1565b61035a61039e366004614ee7565b611882565b6102a06103b1366004615168565b6118b3565b6102a06103c4366004615168565b6118c8565b61035a6103d7366004615180565b6118da565b61035a6103ea366004615180565b6118f7565b6102a06103fd366004615168565b611975565b610452610410366004615168565b601460205260009081526040902080546001820154600283015460038401546004850154600586015460069096015460ff958616969495939492939192911687565b6040516102aa97969594939291906154ef565b61035a610473366004615090565b611bce565b61035a610486366004614ee7565b611c12565b61035a610499366004615168565b611c2d565b61035a6104ac366004614fe8565b611c72565b6102c66104bf366004615168565b611d94565b61035a6104d2366004615168565b611d9f565b61032f6104e5366004615168565b61201d565b6104fd6104f83660046151f4565b612094565b6040516102aa919061549d565b6102a0610518366004614e77565b612486565b61035a61250d565b6102a060135481565b6102a061053c366004615168565b600f6020526000908152604090205481565b60165461032f906001600160a01b031681565b6102a061056f366004615168565b60176020526000908152604090205481565b6105bc61058f366004615168565b60186020526000908152604090208054600182015460029092015490919060ff8082169161010090041684565b6040516102aa94939291906156c3565b61032f612548565b6102c66105e2366004615168565b612557565b6102c66105f5366004615180565b6127d3565b6102fc6127fe565b60105461032f906001600160a01b031681565b6102a0600081565b61035a61062b366004615038565b61280d565b6102a0600581565b6102a0610646366004615168565b6128ce565b6102a0610659366004615168565b6128e5565b60125461032f906001600160a01b031681565b61035a61067f366004614f27565b612aa6565b61035a610692366004615103565b612ad9565b6102a06106a5366004615168565b612ce8565b6106bd6106b8366004615305565b612cfa565b6040516102aa93929190615738565b6102fc6106da366004615168565b612e3d565b6102a06106ed366004615294565b612e48565b61035a610700366004615180565b612e67565b6102a0610713366004615168565b600a6020526000908152604090205481565b61035a6107333660046150c4565b612e84565b6102a0610746366004615180565b6000828152600b602090815260408083206001600160a01b038516845260010190915290205492915050565b6102c6610780366004614eaf565b612ed1565b61035a610793366004614e77565b612eff565b6102a06107a6366004614fa3565b612f9c565b6000600260075414156108055760405162461bcd60e51b815260206004820152601f60248201527f5265656e7472616e637947756172643a207265656e7472616e742063616c6c0060448201526064015b60405180910390fd5b60026007556015546040805163392e53cd60e01b815290516001600160a01b039092169163392e53cd91600480820192602092909190829003018186803b15801561084f57600080fd5b505afa158015610863573d6000803e3d6000fd5b505050506040513d601f19601f82011682018060405250810190610887919061514c565b80156109145750601660009054906101000a90046001600160a01b03166001600160a01b031663392e53cd6040518163ffffffff1660e01b815260040160206040518083038186803b1580156108dc57600080fd5b505afa1580156108f0573d6000803e3d6000fd5b505050506040513d601f19601f82011682018060405250810190610914919061514c565b6109595760405162461bcd60e51b8152602060048201526016602482015275496e697469616c697a6174696f6e2070656e64696e6760501b60448201526064016107fc565b6015546040805163a834069b60e01b815290516000926001600160a01b03169163a834069b916004808301926020929190829003018186803b15801561099e57600080fd5b505afa1580156109b2573d6000803e3d6000fd5b505050506040513d601f19601f820116820180604052508101906109d691906151dc565b90504281116109f75760405162461bcd60e51b81526004016107fc9061568b565b6000610a0342836158de565b905061a8c0811015610a275760405162461bcd60e51b81526004016107fc9061568b565b6000806000610ac98489601660009054906101000a90046001600160a01b03166001600160a01b0316635ee971016040518163ffffffff1660e01b815260040160206040518083038186803b158015610a7f57600080fd5b505afa158015610a93573d6000803e3d6000fd5b505050506040513d601f19601f82011682018060405250810190610ab791906151dc565b601254600160a01b900460ff16612cfa565b919450925090506005610adc858a6158bf565b610ae691906158bf565b610af4846301e133806158bf565b610aff9060646158bf565b11610b315760405162461bcd60e51b8152602060048201526002602482015261279960f11b60448201526064016107fc565b60125460408051630d67aac160e11b815290516000926001600160a01b031691631acf5582916004808301926020929190829003018186803b158015610b7657600080fd5b505afa158015610b8a573d6000803e3d6000fd5b505050506040513d601f19601f82011682018060405250810190610bae91906151dc565b90506000601560009054906101000a90046001600160a01b03166001600160a01b03166316dc165b6040518163ffffffff1660e01b815260040160206040518083038186803b158015610c0057600080fd5b505afa158015610c14573d6000803e3d6000fd5b505050506040513d601f19601f82011682018060405250810190610c389190614e93565b6001600160a01b031663313ce5676040518163ffffffff1660e01b815260040160206040518083038186803b158015610c7057600080fd5b505afa158015610c84573d6000803e3d6000fd5b505050506040513d601f19601f82011682018060405250810190610ca89190615348565b610cb390600a615813565b9050601560009054906101000a90046001600160a01b03166001600160a01b031663a4475ce46040518163ffffffff1660e01b815260040160206040518083038186803b158015610d0357600080fd5b505afa158015610d17573d6000803e3d6000fd5b505050506040513d601f19601f82011682018060405250810190610d3b9190614e93565b6001600160a01b0316336001600160a01b031614610f65576010546012546040805163313ce56760e01b815290516000936001600160a01b03908116936323b872dd93339330939092169163313ce56791600480820192602092909190829003018186803b158015610dac57600080fd5b505afa158015610dc0573d6000803e3d6000fd5b505050506040513d601f19601f82011682018060405250810190610de491906151dc565b610def90600a615807565b610df990876158bf565b601060009054906101000a90046001600160a01b03166001600160a01b031663313ce5676040518163ffffffff1660e01b815260040160206040518083038186803b158015610e4757600080fd5b505afa158015610e5b573d6000803e3d6000fd5b505050506040513d601f19601f82011682018060405250810190610e7f9190615348565b610e8a90600a615813565b610e94898d6158bf565b610e9e91906158bf565b610ea891906157b0565b6040516001600160e01b031960e086901b1681526001600160a01b0393841660048201529290911660248301526044820152606401602060405180830381600087803b158015610ef757600080fd5b505af1158015610f0b573d6000803e3d6000fd5b505050506040513d601f19601f82011682018060405250810190610f2f919061514c565b905080610f635760405162461bcd60e51b81526020600482015260026024820152614f3360f01b60448201526064016107fc565b505b6040805160e081018252600181526016548251635ee9710160e01b815292516000936020808501936001600160a01b031692635ee97101926004808201939291829003018186803b158015610fb957600080fd5b505afa158015610fcd573d6000803e3d6000fd5b505050506040513d601f19601f82011682018060405250810190610ff191906151dc565b8152602081018d90526040016110088d60026158bf565b8152602001858152602001898152602001601260149054906101000a900460ff16600281111561104857634e487b7160e01b600052602160045260246000fd5b90529050611054613073565b9850611060898261308d565b61108d89336110888c85602001518660a00151601260149054906101000a900460ff16613145565b613283565b611097898b6132a6565b6110aa89826060015183608001516132b0565b601560009054906101000a90046001600160a01b03166001600160a01b031663a4475ce46040518163ffffffff1660e01b815260040160206040518083038186803b1580156110f857600080fd5b505afa15801561110c573d6000803e3d6000fd5b505050506040513d601f19601f820116820180604052508101906111309190614e93565b6001600160a01b0316336001600160a01b0316146115a75760105460155460408051632911d73960e21b815290516001600160a01b039384169363a9059cbb93169163a4475ce4916004808301926020929190829003018186803b15801561119757600080fd5b505afa1580156111ab573d6000803e3d6000fd5b505050506040513d601f19601f820116820180604052508101906111cf9190614e93565b601260009054906101000a90046001600160a01b03166001600160a01b031663313ce5676040518163ffffffff1660e01b815260040160206040518083038186803b15801561121d57600080fd5b505afa158015611231573d6000803e3d6000fd5b505050506040513d601f19601f8201168201806040525081019061125591906151dc565b61126090600a615807565b61126a90866158bf565b601060009054906101000a90046001600160a01b03166001600160a01b031663313ce5676040518163ffffffff1660e01b815260040160206040518083038186803b1580156112b857600080fd5b505afa1580156112cc573d6000803e3d6000fd5b505050506040513d601f19601f820116820180604052508101906112f09190615348565b6112fb90600a615813565b611305888a6158bf565b61130f91906158bf565b61131991906157b0565b6040518363ffffffff1660e01b8152600401611336929190615484565b602060405180830381600087803b15801561135057600080fd5b505af1158015611364573d6000803e3d6000fd5b505050506040513d601f19601f82011682018060405250810190611388919061514c565b506010546001600160a01b031663a9059cbb6113a2612548565b601260009054906101000a90046001600160a01b03166001600160a01b031663313ce5676040518163ffffffff1660e01b815260040160206040518083038186803b1580156113f057600080fd5b505afa158015611404573d6000803e3d6000fd5b505050506040513d601f19601f8201168201806040525081019061142891906151dc565b61143390600a615807565b61143d90866158bf565b601060009054906101000a90046001600160a01b03166001600160a01b031663313ce5676040518163ffffffff1660e01b815260040160206040518083038186803b15801561148b57600080fd5b505afa15801561149f573d6000803e3d6000fd5b505050506040513d601f19601f820116820180604052508101906114c39190615348565b6114ce90600a615813565b6114d8888b6158bf565b6114e291906158bf565b6114ec91906157b0565b6040518363ffffffff1660e01b8152600401611509929190615484565b602060405180830381600087803b15801561152357600080fd5b505af1158015611537573d6000803e3d6000fd5b505050506040513d601f19601f8201168201806040525081019061155b919061514c565b50611564612548565b6001600160a01b03167ff0f0487d8990103573e0e5cf4e87e101e2a1ba84c733c556b7a5807e570e5d4c8660405161159e91815260200190565b60405180910390a25b336001600160a01b0316897f89f823a0225c73a75066e963ce2eea7708b57680ec86102773dbd244f541289287898e6040516115e593929190615719565b60405180910390a3505060016007555094979650505050505050565b600061160c8261331b565b92915050565b60606000805461162190615938565b80601f016020809104026020016040519081016040528092919081815260200182805461164d90615938565b801561169a5780601f1061166f5761010080835404028352916020019161169a565b820191906000526020600020905b81548152906001019060200180831161167d57829003601f168201915b5050505050905090565b6000805b6116b1836128ce565b8110156116e3576116c56106a58483612e48565b6116cf9083615798565b9150806116db8161596d565b9150506116a8565b50919050565b60006116f482613340565b6117555760405162461bcd60e51b815260206004820152602c60248201527f4552433732313a20617070726f76656420717565727920666f72206e6f6e657860448201526b34b9ba32b73a103a37b5b2b760a11b60648201526084016107fc565b506000908152600460205260409020546001600160a01b031690565b600061177c8261201d565b9050806001600160a01b0316836001600160a01b031614156117ea5760405162461bcd60e51b815260206004820152602160248201527f4552433732313a20617070726f76616c20746f2063757272656e74206f776e656044820152603960f91b60648201526084016107fc565b336001600160a01b038216148061180657506118068133612ed1565b6118735760405162461bcd60e51b815260206004820152603860248201527f4552433732313a20617070726f76652063616c6c6572206973206e6f74206f776044820152771b995c881b9bdc88185c1c1c9bdd995908199bdc88185b1b60421b60648201526084016107fc565b61187d838361335d565b505050565b61188c33826133cb565b6118a85760405162461bcd60e51b81526004016107fc9061563a565b61187d838383613495565b60009081526008602052604090206001015490565b6000908152600a602052604090205490565b6118e3826118b3565b6118ed813361362e565b61187d8383613692565b6001600160a01b03811633146119675760405162461bcd60e51b815260206004820152602f60248201527f416363657373436f6e74726f6c3a2063616e206f6e6c792072656e6f756e636560448201526e103937b632b9903337b91039b2b63360891b60648201526084016107fc565b6119718282613718565b5050565b60008181526014602052604081206001815460ff1660038111156119a957634e487b7160e01b600052602160045260246000fd5b146119dc5760405162461bcd60e51b815260206004820152600360248201526213cc4d60ea1b60448201526064016107fc565b600581015460009081526017602052604090205480611a0d5760405162461bcd60e51b81526004016107fc906155cc565b6012546040516303906d2960e11b8152600481018390526000916001600160a01b031690630720da5290602401604080518083038186803b158015611a5157600080fd5b505afa158015611a65573d6000803e3d6000fd5b505050506040513d601f19601f82011682018060405250810190611a8991906152b5565b91505060028360030154611a9d91906157b0565b93506002600684015460ff166002811115611ac857634e487b7160e01b600052602160045260246000fd5b1415611b425780836001015410611b075760405162461bcd60e51b81526020600482015260036024820152624f313760e81b60448201526064016107fc565b808360020154846001015483611b1d91906158de565b611b2791906158bf565b611b3191906157b0565b611b3b9085615798565b9350611bb2565b80836001015411611b7b5760405162461bcd60e51b815260206004820152600360248201526209e62760eb1b60448201526064016107fc565b808360020154828560010154611b9191906158de565b611b9b91906158bf565b611ba591906157b0565b611baf9085615798565b93505b8260030154841115611bc657826003015493505b505050919050565b611bd78261201d565b6001600160a01b0316336001600160a01b031614611c075760405162461bcd60e51b81526004016107fc9061555e565b61187d83838361377f565b61187d83838360405180602001604052806000815250612aa6565b611c368161201d565b6001600160a01b0316336001600160a01b031614611c665760405162461bcd60e51b81526004016107fc9061555e565b611c6f81613844565b50565b611c7b82611d94565b611cad5760405162461bcd60e51b815260206004820152600360248201526227189960e91b60448201526064016107fc565b6000806000611cbc868561385c565b509250925092506000611cce86613989565b9050611d0a8682848460600151611ce59190615798565b878560400151611cf59190615798565b878660800151611d059190615798565b613a78565b601554606082015160808301516040516357a5c96760e01b81529394506001600160a01b03909216926357a5c96792611d4a928b92909190600401615738565b600060405180830381600087803b158015611d6457600080fd5b505af1158015611d78573d6000803e3d6000fd5b50505050611d898989898989613aaa565b505050505050505050565b600061160c82613340565b60008181526014602052604090206005810154421015611dd15760405162461bcd60e51b81526004016107fc906156a7565b6001815460ff166003811115611df757634e487b7160e01b600052602160045260246000fd5b14611e295760405162461bcd60e51b81526020600482015260026024820152614f3560f01b60448201526064016107fc565b600581015460009081526017602052604090205480611e5a5760405162461bcd60e51b81526004016107fc906155cc565b6012546040516303906d2960e11b8152600481018390526000916001600160a01b031690630720da5290602401604080518083038186803b158015611e9e57600080fd5b505afa158015611eb2573d6000803e3d6000fd5b505050506040513d601f19601f82011682018060405250810190611ed691906152b5565b915060029050600684015460ff166002811115611f0357634e487b7160e01b600052602160045260246000fd5b148015611f135750826001015481115b80611f5257506001600684015460ff166002811115611f4257634e487b7160e01b600052602160045260246000fd5b148015611f525750826001015481105b15611f6657611f60846128e5565b50612017565b825460ff19166003178355601554604051636198e33960e01b8152600481018690526001600160a01b0390911690636198e33990602401600060405180830381600087803b158015611fb757600080fd5b505af1158015611fcb573d6000803e3d6000fd5b50505050611fd884613844565b837f5f36a4a575e512eb69d6d28c3b0ff98cca7ba50ad5bf04e14094ad1d425e0d31846004015460405161200e91815260200190565b60405180910390a25b50505050565b6000818152600260205260408120546001600160a01b03168061160c5760405162461bcd60e51b815260206004820152602960248201527f4552433732313a206f776e657220717565727920666f72206e6f6e657869737460448201526832b73a103a37b5b2b760b91b60648201526084016107fc565b6060816120c85760405162461bcd60e51b81526020600482015260026024820152614e3160f01b60448201526064016107fc565b816001600160401b038111156120ee57634e487b7160e01b600052604160045260246000fd5b604051908082528060200260200182016040528015612117578160200160208202803683370190505b509050600061212585613989565b9050600061213286612ce8565b905060008080805b8781101561234557600061214c613073565b90508088838151811061216f57634e487b7160e01b600052603260045260246000fd5b6020026020010181815250506121ac8b828c8c868181106121a057634e487b7160e01b600052603260045260246000fd5b90506020020135613cf0565b6000868b8b858181106121cf57634e487b7160e01b600052603260045260246000fd5b9050602002013589604001516121e591906158bf565b6121ef91906157b0565b90506121fb8187615798565b95506000878c8c8681811061222057634e487b7160e01b600052603260045260246000fd5b905060200201358a6060015161223691906158bf565b61224091906157b0565b905061224c8187615798565b95506000888d8d8781811061227157634e487b7160e01b600052603260045260246000fd5b905060200201358b6080015161228791906158bf565b61229191906157b0565b905061229d8187615798565b955060006040518060e001604052808c6000015160038111156122d057634e487b7160e01b600052602160045260246000fd5b81526020018c6020015181526020018581526020018481526020018381526020018c60a0015181526020018c60c00151600281111561231f57634e487b7160e01b600052602160045260246000fd5b9052905061232d858261308d565b5050505050808061233d9061596d565b91505061213a565b5061237b898684886060015161235b91906158de565b86896040015161236b91906158de565b858a60800151611d0591906158de565b601554606082015160808301516040516357a5c96760e01b81529398506001600160a01b03909216926357a5c967926123bb928e92909190600401615738565b600060405180830381600087803b1580156123d557600080fd5b505af11580156123e9573d6000803e3d6000fd5b5050505060005b8781101561247957600061242a88838151811061241d57634e487b7160e01b600052603260045260246000fd5b6020026020010151613989565b905061246688838151811061244f57634e487b7160e01b600052603260045260246000fd5b6020026020010151826060015183608001516132b0565b50806124718161596d565b9150506123f0565b5050505050509392505050565b60006001600160a01b0382166124f15760405162461bcd60e51b815260206004820152602a60248201527f4552433732313a2062616c616e636520717565727920666f7220746865207a65604482015269726f206164647265737360b01b60648201526084016107fc565b506001600160a01b031660009081526003602052604090205490565b33612516612548565b6001600160a01b03161461253c5760405162461bcd60e51b81526004016107fc90615605565b6125466000613e1a565b565b6006546001600160a01b031690565b6012546040516303906d2960e11b815260048101839052600091829182916001600160a01b031690630720da5290602401604080518083038186803b15801561259f57600080fd5b505afa1580156125b3573d6000803e3d6000fd5b505050506040513d601f19601f820116820180604052508101906125d791906152b5565b915091506000601560009054906101000a90046001600160a01b03166001600160a01b031663a834069b6040518163ffffffff1660e01b815260040160206040518083038186803b15801561262b57600080fd5b505afa15801561263f573d6000803e3d6000fd5b505050506040513d601f19601f8201168201806040525081019061266391906151dc565b90508281106126995760405162461bcd60e51b8152602060048201526002602482015261433160f01b60448201526064016107fc565b60006126a66001876158de565b90505b846127ca576012546040516303906d2960e11b8152600481018390526000916001600160a01b031690630720da5290602401604080518083038186803b1580156126f257600080fd5b505afa158015612706573d6000803e3d6000fd5b505050506040513d601f19601f8201168201806040525081019061272a91906152b5565b5090508061277957600082116127675760405162461bcd60e51b8152602060048201526002602482015261433360f01b60448201526064016107fc565b6127726001836158de565b91506127c4565b828111156127ae5760405162461bcd60e51b815260206004820152600260248201526110cd60f21b60448201526064016107fc565b6000838152601760205260409020829055600195505b506126a9565b50505050919050565b60009182526008602090815260408084206001600160a01b0393909316845291905290205460ff1690565b60606001805461162190615938565b6001600160a01b0382163314156128625760405162461bcd60e51b815260206004820152601960248201527822a9219b99189d1030b8383937bb32903a379031b0b63632b960391b60448201526064016107fc565b3360008181526005602090815260408083206001600160a01b03871680855290835292819020805460ff191686151590811790915590519081529192917f17307eab39ab6107e8899845ad3d59bd9653f200f220920489ca2b5937696c31910160405180910390a35050565b6000818152600c6020526040812061160c90613e6c565b60006128f082611d94565b6129225760405162461bcd60e51b815260206004820152600360248201526204f31360ec1b60448201526064016107fc565b6015546040805163a834069b60e01b8152905142926001600160a01b03169163a834069b916004808301926020929190829003018186803b15801561296657600080fd5b505afa15801561297a573d6000803e3d6000fd5b505050506040513d601f19601f8201168201806040525081019061299e91906151dc565b11156129bc5760405162461bcd60e51b81526004016107fc906156a7565b6129c582611975565b6015549091506001600160a01b03166381b34f15836129e38161201d565b6040516001600160e01b031960e085901b16815260048101929092526001600160a01b0316602482015260448101849052606401600060405180830381600087803b158015612a3157600080fd5b505af1158015612a45573d6000803e3d6000fd5b50505050612a5282613844565b600082815260146020908152604091829020805460ff19166002178155915183815284917e84fe51c7cb34b132b7b6eb5d5a87a489f8d6d284758d00a0402c1bad9a0def910160405180910390a250919050565b612ab1335b836133cb565b612acd5760405162461bcd60e51b81526004016107fc9061563a565b61201784848484613e76565b81612b0b5760405162461bcd60e51b8152602060048201526002602482015261138d60f21b60448201526064016107fc565b6000612b1682613989565b606081015160408201516080830151929350909160005b86811015612c6a576000612b66898984818110612b5a57634e487b7160e01b600052603260045260246000fd5b90506020020135613989565b9050806060015185612b789190615798565b9450806040015184612b8a9190615798565b9350806080015183612b9c9190615798565b6015549093506001600160a01b0316630dbf21b08a8a85818110612bd057634e487b7160e01b600052603260045260246000fd5b905060200201356040518263ffffffff1660e01b8152600401612bf591815260200190565b600060405180830381600087803b158015612c0f57600080fd5b505af1158015612c23573d6000803e3d6000fd5b50505050612c57898984818110612c4a57634e487b7160e01b600052603260045260246000fd5b9050602002013588613ea9565b5080612c628161596d565b915050612b2d565b50612c788585858585613a78565b506015546040516357a5c96760e01b81526001600160a01b03909116906357a5c96790612cad90889087908690600401615738565b600060405180830381600087803b158015612cc757600080fd5b505af1158015612cdb573d6000803e3d6000fd5b5050505050505050505050565b6000908152600f602052604090205490565b600080600080601260009054906101000a90046001600160a01b03166001600160a01b0316631acf55826040518163ffffffff1660e01b815260040160206040518083038186803b158015612d4e57600080fd5b505afa158015612d62573d6000803e3d6000fd5b505050506040513d601f19601f82011682018060405250810190612d8691906151dc565b60165460155460405163a5c8287560e01b815292935073__FeeCalculator_________________________9263a5c8287592612ddc928d928d928d928d928a926001600160a01b0390811692169060040161574e565b60606040518083038186803b158015612df457600080fd5b505af4158015612e08573d6000803e3d6000fd5b505050506040513d601f19601f82011682018060405250810190612e2c91906152d8565b919a90995090975095505050505050565b606061160c82614025565b6000828152600c60205260408120612e609083614187565b9392505050565b612e70826118b3565b612e7a813361362e565b61187d8383613718565b8060005b8181101561201757612ebf848483818110612eb357634e487b7160e01b600052603260045260246000fd5b90506020020135611d9f565b80612ec98161596d565b915050612e88565b6001600160a01b03918216600090815260056020908152604080832093909416825291909152205460ff1690565b33612f08612548565b6001600160a01b031614612f2e5760405162461bcd60e51b81526004016107fc90615605565b6001600160a01b038116612f935760405162461bcd60e51b815260206004820152602660248201527f4f776e61626c653a206e6577206f776e657220697320746865207a65726f206160448201526564647265737360d01b60648201526084016107fc565b611c6f81613e1a565b6000612fa6613073565b9050600080600080612fb8878761385c565b935093509350935060006040518060e0016040528083600001516003811115612ff157634e487b7160e01b600052602160045260246000fd5b8152602001836020015181526020018681526020018481526020018581526020018360a0015181526020018360c00151600281111561304057634e487b7160e01b600052602160045260246000fd5b9052905061304e868261308d565b6130598684866132b0565b6130668a8a8a898b613aaa565b5050505050949350505050565b60138054600091826130848361596d565b91905055905090565b60008281526014602052604090208151815483929190829060ff191660018360038111156130cb57634e487b7160e01b600052602160045260246000fd5b02179055506020820151816001015560408201518160020155606082015181600301556080820151816004015560a0820151816005015560c08201518160060160006101000a81548160ff0219169083600281111561313a57634e487b7160e01b600052602160045260246000fd5b021790555050505050565b60008383838760405160200161315e94939291906156ef565b60408051808303601f19018152918152815160209283012060008181526018909352912060020154909150610100900460ff16156131c45760405162461bcd60e51b8152602060048201526003602482015262138c4d60ea1b60448201526064016107fc565b60405180608001604052808581526020018481526020018360028111156131fb57634e487b7160e01b600052602160045260246000fd5b815260016020918201819052600084815260188352604090819020845181559284015183830155830151600280840180549293909260ff191691849081111561325457634e487b7160e01b600052602160045260246000fd5b021790555060609190910151600290910180549115156101000261ff0019909216919091179055949350505050565b6000838152600a60205260409020819055600d5461187d90839085908490614193565b611971828261421d565b60155460405163edd0d42160e01b81526001600160a01b039091169063edd0d421906132e490869086908690600401615738565b600060405180830381600087803b1580156132fe57600080fd5b505af1158015613312573d6000803e3d6000fd5b50505050505050565b60006001600160e01b03198216637965db0b60e01b148061160c575061160c826142a8565b6000908152600260205260409020546001600160a01b0316151590565b600081815260046020526040902080546001600160a01b0319166001600160a01b03841690811790915581906133928261201d565b6001600160a01b03167f8c5be1e5ebec7d5bd14f71427d1e84f3dd0314c0f7b2291e5b200ac8c7c3b92560405160405180910390a45050565b60006133d682613340565b6134375760405162461bcd60e51b815260206004820152602c60248201527f4552433732313a206f70657261746f7220717565727920666f72206e6f6e657860448201526b34b9ba32b73a103a37b5b2b760a11b60648201526084016107fc565b60006134428361201d565b9050806001600160a01b0316846001600160a01b0316148061347d5750836001600160a01b0316613472846116e9565b6001600160a01b0316145b8061348d575061348d8185612ed1565b949350505050565b826001600160a01b03166134a88261201d565b6001600160a01b0316146135105760405162461bcd60e51b815260206004820152602960248201527f4552433732313a207472616e73666572206f6620746f6b656e2074686174206960448201526839903737ba1037bbb760b91b60648201526084016107fc565b6001600160a01b0382166135725760405162461bcd60e51b8152602060048201526024808201527f4552433732313a207472616e7366657220746f20746865207a65726f206164646044820152637265737360e01b60648201526084016107fc565b61357d8383836142f8565b61358860008261335d565b6001600160a01b03831660009081526003602052604081208054600192906135b19084906158de565b90915550506001600160a01b03821660009081526003602052604081208054600192906135df908490615798565b909155505060008181526002602052604080822080546001600160a01b0319166001600160a01b038681169182179092559151849391871691600080516020615a5083398151915291a4505050565b61363882826127d3565b61197157613650816001600160a01b03166014614310565b61365b836020614310565b60405160200161366c9291906153d8565b60408051601f198184030181529082905262461bcd60e51b82526107fc9160040161554b565b61369c82826127d3565b6119715760008281526008602090815260408083206001600160a01b03851684529091529020805460ff191660011790556136d43390565b6001600160a01b0316816001600160a01b0316837f2f8788117e7eff1d82e926ec794901d17c78024a50270940304540a733656f0d60405160405180910390a45050565b61372282826127d3565b156119715760008281526008602090815260408083206001600160a01b0385168085529252808320805460ff1916905551339285917ff6391f5c32d9c69d2a47ea670b442974b53935d1edc7fd64eb21e047a839171b9190a45050565b6000828152600b602090815260408083206001600160a01b03871684526001019091529020546137e1576000828152600b602090815260408220805460018101825590835291200180546001600160a01b0319166001600160a01b0385161790555b6000828152600b602090815260408083206001600160a01b0387168085526001909101835292819020849055518381528492917f8a156bd946dc74ec284c5f4b365ce75ef2a5b9d9462b4cdb1d2400cabf136541910160405180910390a3505050565b6000818152600a6020526040812055611c6f816144f1565b6000806000613869614cc4565b61387286613989565b9050600061387f87612ce8565b90508086836040015161389291906158bf565b61389c91906157b0565b9450808683608001516138af91906158bf565b6138b991906157b0565b9350808683606001516138cc91906158bf565b6138d691906157b0565b925061390d87838585606001516138ed91906158de565b8886604001516138fd91906158de565b888760800151611d0591906158de565b601554606082015160808301516040516357a5c96760e01b81529395506001600160a01b03909216926357a5c9679261394d928c92909190600401615738565b600060405180830381600087803b15801561396757600080fd5b505af115801561397b573d6000803e3d6000fd5b505050505092959194509250565b613991614cc4565b60008281526014602052604090819020815160e081019092528054829060ff1660038111156139d057634e487b7160e01b600052602160045260246000fd5b60038111156139ef57634e487b7160e01b600052602160045260246000fd5b81526001820154602082015260028083015460408301526003830154606083015260048301546080830152600583015460a0830152600683015460c09092019160ff1690811115613a5057634e487b7160e01b600052602160045260246000fd5b6002811115613a6f57634e487b7160e01b600052602160045260246000fd5b90525092915050565b613a80614cc4565b5060608401839052604084018290526080840181905283613aa1868261308d565b95945050505050565b613ab38361201d565b6001600160a01b0316856001600160a01b031614613af85760405162461bcd60e51b81526020600482015260026024820152614e3960f01b60448201526064016107fc565b6001600160a01b038416613b345760405162461bcd60e51b815260206004820152600360248201526204e31360ec1b60448201526064016107fc565b336001600160a01b03861614801590613b545750613b528533612ed1565b155b15613b9f576000838152600b60209081526040808320338452600101909152902054613b819082906158de565b6000848152600b602090815260408083203384526001019091529020555b6000838152600f6020526040902054613bb99082906158de565b6000848152600f6020526040902055613bd182613340565b613bee57613be98483613be3866118c8565b84614193565b613c96565b836001600160a01b0316613c018361201d565b6001600160a01b031614613c3d5760405162461bcd60e51b81526020600482015260036024820152624e313160e81b60448201526064016107fc565b613c46826118c8565b613c4f846118c8565b14613c6c5760405162461bcd60e51b81526004016107fc906155e9565b6000828152600f6020526040902054613c86908290615798565b6000838152600f60205260409020555b6000838152600a60205260408082205484835291819020919091555183906001600160a01b038087169190881690600080516020615a7083398151915290613ce1908790879061553d565b60405180910390a45050505050565b613cfa33846133cb565b613d2b5760405162461bcd60e51b8152602060048201526002602482015261271960f11b60448201526064016107fc565b613d3482613340565b15613d665760405162461bcd60e51b81526020600482015260026024820152614e3360f01b60448201526064016107fc565b613d8582613d73856118c8565b6000918252600a602052604090912055565b6000838152600f6020526040902054613d9f9082906158de565b6000848152600f6020526040812091909155613dba8461201d565b9050613dd08184613dca876118c8565b85614193565b83816001600160a01b03167ff66885c33d648fcd0d97e0f2a18e30102169c22763473af0fb716f11b4a17dd68585604051613e0c92919061553d565b60405180910390a350505050565b600680546001600160a01b038381166001600160a01b0319831681179093556040519116919082907f8be0079c531659141344cd1fd0a4f28419497f9722a3daafe3b4186f6b6457e090600090a35050565b600061160c825490565b613e81848484613495565b613e8d84848484614583565b6120175760405162461bcd60e51b81526004016107fc9061557a565b613eb233612aab565b613ee35760405162461bcd60e51b81526020600482015260026024820152614e3560f01b60448201526064016107fc565b80821415613f185760405162461bcd60e51b8152602060048201526002602482015261271b60f11b60448201526064016107fc565b613f21816118c8565b613f2a836118c8565b14613f475760405162461bcd60e51b81526004016107fc906155e9565b6000613f528361201d565b9050613f5d8261201d565b6001600160a01b0316816001600160a01b031614613fa25760405162461bcd60e51b815260206004820152600260248201526109c760f31b60448201526064016107fc565b6000838152600f602052604080822054848352912054613fc29082615798565b6000848152600f6020526040902055613fda84613844565b8284836001600160a01b03167fb3ce851d16b3bbec3774d5631a3893dfa2a80e067cfad265dd594402ac3d60968460405161401791815260200190565b60405180910390a450505050565b606061403082613340565b6140965760405162461bcd60e51b815260206004820152603160248201527f45524337323155524953746f726167653a2055524920717565727920666f72206044820152703737b732bc34b9ba32b73a103a37b5b2b760791b60648201526084016107fc565b600082815260096020526040812080546140af90615938565b80601f01602080910402602001604051908101604052809291908181526020018280546140db90615938565b80156141285780601f106140fd57610100808354040283529160200191614128565b820191906000526020600020905b81548152906001019060200180831161410b57829003601f168201915b505050505090506000614139614690565b905080516000141561414c575092915050565b81511561417e5780826040516020016141669291906153a9565b60405160208183030381529060405292505050919050565b61348d846146b0565b6000612e60838361477a565b61419c83613340565b6141c4576141aa84846147b2565b6000828152600c602052604090206141c290846148de565b505b6000838152600f60205260409020546141de908290615798565b6000848152600f60205260408082209290925590516001600160a01b038616908290600080516020615a7083398151915290614017908890879061553d565b61422682613340565b6142895760405162461bcd60e51b815260206004820152602e60248201527f45524337323155524953746f726167653a2055524920736574206f66206e6f6e60448201526d32bc34b9ba32b73a103a37b5b2b760911b60648201526084016107fc565b6000828152600960209081526040909120825161187d92840190614d20565b60006001600160e01b031982166380ac58cd60e01b14806142d957506001600160e01b03198216635b5e139f60e01b145b8061160c57506301ffc9a760e01b6001600160e01b031983161461160c565b6001600160a01b0383161561187d5761187d816148ea565b6060600061431f8360026158bf565b61432a906002615798565b6001600160401b0381111561434f57634e487b7160e01b600052604160045260246000fd5b6040519080825280601f01601f191660200182016040528015614379576020820181803683370190505b509050600360fc1b816000815181106143a257634e487b7160e01b600052603260045260246000fd5b60200101906001600160f81b031916908160001a905350600f60fb1b816001815181106143df57634e487b7160e01b600052603260045260246000fd5b60200101906001600160f81b031916908160001a90535060006144038460026158bf565b61440e906001615798565b90505b60018111156144a2576f181899199a1a9b1b9c1cb0b131b232b360811b85600f166010811061445057634e487b7160e01b600052603260045260246000fd5b1a60f81b82828151811061447457634e487b7160e01b600052603260045260246000fd5b60200101906001600160f81b031916908160001a90535060049490941c9361449b81615921565b9050614411565b508315612e605760405162461bcd60e51b815260206004820181905260248201527f537472696e67733a20686578206c656e67746820696e73756666696369656e7460448201526064016107fc565b60006144fc8261201d565b90506000614509836118c8565b6000848152600f6020908152604080832054848452600c90925290912091925090614534908561499e565b506000848152600f602052604081205561454d846149aa565b8360006001600160a01b0316846001600160a01b0316600080516020615a7083398151915260008560405161401792919061553d565b60006001600160a01b0384163b1561468557604051630a85bd0160e11b81526001600160a01b0385169063150b7a02906145c7903390899088908890600401615447565b602060405180830381600087803b1580156145e157600080fd5b505af1925050508015614611575060408051601f3d908101601f1916820190925261460e918101906151c0565b60015b61466b573d80801561463f576040519150601f19603f3d011682016040523d82523d6000602084013e614644565b606091505b5080516146635760405162461bcd60e51b81526004016107fc9061557a565b805181602001fd5b6001600160e01b031916630a85bd0160e11b14905061348d565b506001949350505050565b6060604051806060016040528060228152602001615a2e60229139905090565b60606146bb82613340565b61471f5760405162461bcd60e51b815260206004820152602f60248201527f4552433732314d657461646174613a2055524920717565727920666f72206e6f60448201526e3732bc34b9ba32b73a103a37b5b2b760891b60648201526084016107fc565b6000614729614690565b905060008151116147495760405180602001604052806000815250612e60565b8061475384614a3f565b6040516020016147649291906153a9565b6040516020818303038152906040529392505050565b600082600001828154811061479f57634e487b7160e01b600052603260045260246000fd5b9060005260206000200154905092915050565b6001600160a01b0382166148085760405162461bcd60e51b815260206004820181905260248201527f4552433732313a206d696e7420746f20746865207a65726f206164647265737360448201526064016107fc565b61481181613340565b1561485d5760405162461bcd60e51b815260206004820152601c60248201527b115490cdcc8c4e881d1bdad95b88185b1c9958591e481b5a5b9d195960221b60448201526064016107fc565b614869600083836142f8565b6001600160a01b0382166000908152600360205260408120805460019290614892908490615798565b909155505060008181526002602052604080822080546001600160a01b0319166001600160a01b0386169081179091559051839290600080516020615a50833981519152908290a45050565b6000612e608383614b58565b6000818152600b60205260408120905b815481101561187d5781600101600083600001838154811061492c57634e487b7160e01b600052603260045260246000fd5b60009182526020808320909101546001600160a01b03168352820192909252604001812055815482908290811061497357634e487b7160e01b600052603260045260246000fd5b600091825260209091200180546001600160a01b0319169055806149968161596d565b9150506148fa565b6000612e608383614ba7565b60006149b58261201d565b90506149c3816000846142f8565b6149ce60008361335d565b6001600160a01b03811660009081526003602052604081208054600192906149f79084906158de565b909155505060008281526002602052604080822080546001600160a01b0319169055518391906001600160a01b03841690600080516020615a50833981519152908390a45050565b606081614a635750506040805180820190915260018152600360fc1b602082015290565b8160005b8115614a8d5780614a778161596d565b9150614a869050600a836157b0565b9150614a67565b6000816001600160401b03811115614ab557634e487b7160e01b600052604160045260246000fd5b6040519080825280601f01601f191660200182016040528015614adf576020820181803683370190505b5090505b841561348d57614af46001836158de565b9150614b01600a86615988565b614b0c906030615798565b60f81b818381518110614b2f57634e487b7160e01b600052603260045260246000fd5b60200101906001600160f81b031916908160001a905350614b51600a866157b0565b9450614ae3565b6000818152600183016020526040812054614b9f5750815460018181018455600084815260208082209093018490558454848252828601909352604090209190915561160c565b50600061160c565b60008181526001830160205260408120548015614cba576000614bcb6001836158de565b8554909150600090614bdf906001906158de565b9050818114614c60576000866000018281548110614c0d57634e487b7160e01b600052603260045260246000fd5b9060005260206000200154905080876000018481548110614c3e57634e487b7160e01b600052603260045260246000fd5b6000918252602080832090910192909255918252600188019052604090208390555b8554869080614c7f57634e487b7160e01b600052603160045260246000fd5b60019003818190600052602060002001600090559055856001016000868152602001908152602001600020600090556001935050505061160c565b600091505061160c565b6040805160e081019091528060008152602001600081526020016000815260200160008152602001600081526020016000815260200160006002811115614d1b57634e487b7160e01b600052602160045260246000fd5b905290565b828054614d2c90615938565b90600052602060002090601f016020900481019282614d4e5760008555614d94565b82601f10614d6757805160ff1916838001178555614d94565b82800160010185558215614d94579182015b82811115614d94578251825591602001919060010190614d79565b50614da0929150614da4565b5090565b5b80821115614da05760008155600101614da5565b60006001600160401b0380841115614dd357614dd36159de565b604051601f8501601f19908116603f01168101908282118183101715614dfb57614dfb6159de565b81604052809350858152868686011115614e1457600080fd5b858560208301376000602087830101525050509392505050565b60008083601f840112614e3f578182fd5b5081356001600160401b03811115614e55578182fd5b6020830191508360208260051b8501011115614e7057600080fd5b9250929050565b600060208284031215614e88578081fd5b8135612e60816159f4565b600060208284031215614ea4578081fd5b8151612e60816159f4565b60008060408385031215614ec1578081fd5b8235614ecc816159f4565b91506020830135614edc816159f4565b809150509250929050565b600080600060608486031215614efb578081fd5b8335614f06816159f4565b92506020840135614f16816159f4565b929592945050506040919091013590565b60008060008060808587031215614f3c578081fd5b8435614f47816159f4565b93506020850135614f57816159f4565b92506040850135915060608501356001600160401b03811115614f78578182fd5b8501601f81018713614f88578182fd5b614f9787823560208401614db9565b91505092959194509250565b60008060008060808587031215614fb8578384fd5b8435614fc3816159f4565b93506020850135614fd3816159f4565b93969395505050506040820135916060013590565b600080600080600060a08688031215614fff578081fd5b853561500a816159f4565b9450602086013561501a816159f4565b94979496505050506040830135926060810135926080909101359150565b6000806040838503121561504a578182fd5b8235615055816159f4565b91506020830135614edc81615a09565b60008060408385031215615077578182fd5b8235615082816159f4565b946020939093013593505050565b6000806000606084860312156150a4578081fd5b83356150af816159f4565b95602085013595506040909401359392505050565b600080602083850312156150d6578182fd5b82356001600160401b038111156150eb578283fd5b6150f785828601614e2e565b90969095509350505050565b600080600060408486031215615117578081fd5b83356001600160401b0381111561512c578182fd5b61513886828701614e2e565b909790965060209590950135949350505050565b60006020828403121561515d578081fd5b8151612e6081615a09565b600060208284031215615179578081fd5b5035919050565b60008060408385031215615192578182fd5b823591506020830135614edc816159f4565b6000602082840312156151b5578081fd5b8135612e6081615a17565b6000602082840312156151d1578081fd5b8151612e6081615a17565b6000602082840312156151ed578081fd5b5051919050565b600080600060408486031215615208578081fd5b8335925060208401356001600160401b03811115615224578182fd5b61523086828701614e2e565b9497909650939450505050565b6000806040838503121561524f578182fd5b8235915060208301356001600160401b0381111561526b578182fd5b8301601f8101851361527b578182fd5b61528a85823560208401614db9565b9150509250929050565b600080604083850312156152a6578182fd5b50508035926020909101359150565b600080604083850312156152c7578182fd5b505080516020909101519092909150565b6000806000606084860312156152ec578081fd5b8351925060208401519150604084015190509250925092565b6000806000806080858703121561531a578182fd5b84359350602085013592506040850135915060608501356003811061533d578182fd5b939692955090935050565b600060208284031215615359578081fd5b815160ff81168114612e60578182fd5b600081518084526153818160208601602086016158f5565b601f01601f19169290920160200192915050565b600381106153a5576153a56159c8565b9052565b600083516153bb8184602088016158f5565b8351908301906153cf8183602088016158f5565b01949350505050565b76020b1b1b2b9b9a1b7b73a3937b61d1030b1b1b7bab73a1604d1b81526000835161540a8160178501602088016158f5565b7001034b99036b4b9b9b4b733903937b6329607d1b601791840191820152835161543b8160288401602088016158f5565b01602801949350505050565b6001600160a01b038581168252841660208201526040810183905260806060820181905260009061547a90830184615369565b9695505050505050565b6001600160a01b03929092168252602082015260400190565b6020808252825182820181905260009190848201906040850190845b818110156154d5578351835292840192918401916001016154b9565b50909695505050505050565b6020810161160c8284615395565b60e0810160048910615503576155036159c8565b8882528760208301528660408301528560608301528460808301528360a083015261553160c0830184615395565b98975050505050505050565b918252602082015260400190565b602081526000612e606020830184615369565b6020808252600290820152614f3960f01b604082015260600190565b60208082526032908201527f4552433732313a207472616e7366657220746f206e6f6e20455243373231526560408201527131b2b4bb32b91034b6b83632b6b2b73a32b960711b606082015260800190565b60208082526003908201526204f32360ec1b604082015260600190565b6020808252600290820152614e3760f01b604082015260600190565b6020808252818101527f4f776e61626c653a2063616c6c6572206973206e6f7420746865206f776e6572604082015260600190565b60208082526031908201527f4552433732313a207472616e736665722063616c6c6572206973206e6f74206f6040820152701ddb995c881b9bdc88185c1c1c9bdd9959607a1b606082015260800190565b6020808252600290820152614f3160f01b604082015260600190565b60208082526002908201526113cd60f21b604082015260600190565b84815260208101849052608081016156de6040830185615395565b821515606083015295945050505050565b848152602081018490526080810161570a6040830185615395565b82606083015295945050505050565b838152826020820152606060408201526000613aa16060830184615369565b9283526020830191909152604082015260600190565b878152602081018790526040810186905260e081016157706060830187615395565b60808201949094526001600160a01b0392831660a0820152911660c090910152949350505050565b600082198211156157ab576157ab61599c565b500190565b6000826157bf576157bf6159b2565b500490565b600181815b808511156157ff5781600019048211156157e5576157e561599c565b808516156157f257918102915b93841c93908002906157c9565b509250929050565b6000612e60838361581e565b6000612e6060ff8416835b60008261582d5750600161160c565b8161583a5750600061160c565b8160018114615850576002811461585a57615876565b600191505061160c565b60ff84111561586b5761586b61599c565b50506001821b61160c565b5060208310610133831016604e8410600b8410161715615899575081810a61160c565b6158a383836157c4565b80600019048211156158b7576158b761599c565b029392505050565b60008160001904831182151516156158d9576158d961599c565b500290565b6000828210156158f0576158f061599c565b500390565b60005b838110156159105781810151838201526020016158f8565b838111156120175750506000910152565b6000816159305761593061599c565b506000190190565b600181811c9082168061594c57607f821691505b602082108114156116e357634e487b7160e01b600052602260045260246000fd5b60006000198214156159815761598161599c565b5060010190565b600082615997576159976159b2565b500690565b634e487b7160e01b600052601160045260246000fd5b634e487b7160e01b600052601260045260246000fd5b634e487b7160e01b600052602160045260246000fd5b634e487b7160e01b600052604160045260246000fd5b6001600160a01b0381168114611c6f57600080fd5b8015158114611c6f57600080fd5b6001600160e01b031981168114611c6f57600080fdfe68747470733a2f2f676174657761792e70696e6174612e636c6f75642f697066732fddf252ad1be2c89b69c2b068fc378daa952ba7f163c4a11628f55a4df523b3ef823a343d1c899e61a4db12247636a6882bf1fefae78bef39170f8d0f5b53e456a26469706673582212208115184f01ec184fdee193c9cac57c54ac8af3fbd81814e3824e8f022a8f0b3b64736f6c63430008040033","bytecodeSha1":"b0bd953dd069574ebfa71d220ad3dbdd017e35e5","compiler":{"evm_version":"istanbul","optimizer":{"enabled":true,"runs":1},"version":"0.8.4+commit.c7e474f2"},"contractName":"BufferCashSettledEuropeanOptions","deployedBytecode":"608060405234801561001057600080fd5b50600436106102885760003560e01c80630118fa491461028d57806301ffc9a7146102b357806305271a2a146102d657806306517a29146102eb57806306fdde03146102f4578063076d948c14610309578063081812fc1461031c578063095ea7b31461034757806316f0115b1461035c5780631cecaa311461036f57806323b872dd14610390578063248a9ca3146103a3578063263f3e7e146103b65780632f2ff15d146103c957806336568abe146103dc5780633e56f9f9146103ef578063409e220514610402578063426a84931461046557806342842e0e1461047857806342966c681461048b5780634aed53c21461049e5780634f558e79146104b15780636198e339146104c45780636352211e146104d757806369c67247146104ea57806370a082311461050a578063715018a61461051d57806375794a3c1461052557806378c533ce1461052e57806379502c551461054e578063841edc0e146105615780638a584118146105815780638da5cb5b146105cc5780638dd7d2c1146105d457806391d14854146105e757806395d89b41146105fa578063992642e514610602578063a217fddf14610615578063a22cb4651461061d578063a6d14c0214610630578063a880042514610638578063b07f0a411461064b578063b888879e1461065e578063b88d4fde14610671578063bbe33ea514610684578063becef60714610697578063c7c3b53f146106aa578063c87b56dd146106cc578063d149cc30146106df578063d547741f146106f2578063d5a0e67314610705578063e342b59814610725578063e345e0bc14610738578063e985e9c514610772578063f2fde38b14610785578063fe99049a14610798575b600080fd5b6102a061029b36600461523d565b6107ab565b6040519081526020015b60405180910390f35b6102c66102c13660046151a4565b611601565b60405190151581526020016102aa565b600e5460405160ff90911681526020016102aa565b6102a0600d5481565b6102fc611612565b6040516102aa919061554b565b6102a0610317366004615168565b6116a4565b61032f61032a366004615168565b6116e9565b6040516001600160a01b0390911681526020016102aa565b61035a610355366004615065565b611771565b005b60155461032f906001600160a01b031681565b60125461038390600160a01b900460ff1681565b6040516102aa91906154e1565b61035a61039e366004614ee7565b611882565b6102a06103b1366004615168565b6118b3565b6102a06103c4366004615168565b6118c8565b61035a6103d7366004615180565b6118da565b61035a6103ea366004615180565b6118f7565b6102a06103fd366004615168565b611975565b610452610410366004615168565b601460205260009081526040902080546001820154600283015460038401546004850154600586015460069096015460ff958616969495939492939192911687565b6040516102aa97969594939291906154ef565b61035a610473366004615090565b611bce565b61035a610486366004614ee7565b611c12565b61035a610499366004615168565b611c2d565b61035a6104ac366004614fe8565b611c72565b6102c66104bf366004615168565b611d94565b61035a6104d2366004615168565b611d9f565b61032f6104e5366004615168565b61201d565b6104fd6104f83660046151f4565b612094565b6040516102aa919061549d565b6102a0610518366004614e77565b612486565b61035a61250d565b6102a060135481565b6102a061053c366004615168565b600f6020526000908152604090205481565b60165461032f906001600160a01b031681565b6102a061056f366004615168565b60176020526000908152604090205481565b6105bc61058f366004615168565b60186020526000908152604090208054600182015460029092015490919060ff8082169161010090041684565b6040516102aa94939291906156c3565b61032f612548565b6102c66105e2366004615168565b612557565b6102c66105f5366004615180565b6127d3565b6102fc6127fe565b60105461032f906001600160a01b031681565b6102a0600081565b61035a61062b366004615038565b61280d565b6102a0600581565b6102a0610646366004615168565b6128ce565b6102a0610659366004615168565b6128e5565b60125461032f906001600160a01b031681565b61035a61067f366004614f27565b612aa6565b61035a610692366004615103565b612ad9565b6102a06106a5366004615168565b612ce8565b6106bd6106b8366004615305565b612cfa565b6040516102aa93929190615738565b6102fc6106da366004615168565b612e3d565b6102a06106ed366004615294565b612e48565b61035a610700366004615180565b612e67565b6102a0610713366004615168565b600a6020526000908152604090205481565b61035a6107333660046150c4565b612e84565b6102a0610746366004615180565b6000828152600b602090815260408083206001600160a01b038516845260010190915290205492915050565b6102c6610780366004614eaf565b612ed1565b61035a610793366004614e77565b612eff565b6102a06107a6366004614fa3565b612f9c565b6000600260075414156108055760405162461bcd60e51b815260206004820152601f60248201527f5265656e7472616e637947756172643a207265656e7472616e742063616c6c0060448201526064015b60405180910390fd5b60026007556015546040805163392e53cd60e01b815290516001600160a01b039092169163392e53cd91600480820192602092909190829003018186803b15801561084f57600080fd5b505afa158015610863573d6000803e3d6000fd5b505050506040513d601f19601f82011682018060405250810190610887919061514c565b80156109145750601660009054906101000a90046001600160a01b03166001600160a01b031663392e53cd6040518163ffffffff1660e01b815260040160206040518083038186803b1580156108dc57600080fd5b505afa1580156108f0573d6000803e3d6000fd5b505050506040513d601f19601f82011682018060405250810190610914919061514c565b6109595760405162461bcd60e51b8152602060048201526016602482015275496e697469616c697a6174696f6e2070656e64696e6760501b60448201526064016107fc565b6015546040805163a834069b60e01b815290516000926001600160a01b03169163a834069b916004808301926020929190829003018186803b15801561099e57600080fd5b505afa1580156109b2573d6000803e3d6000fd5b505050506040513d601f19601f820116820180604052508101906109d691906151dc565b90504281116109f75760405162461bcd60e51b81526004016107fc9061568b565b6000610a0342836158de565b905061a8c0811015610a275760405162461bcd60e51b81526004016107fc9061568b565b6000806000610ac98489601660009054906101000a90046001600160a01b03166001600160a01b0316635ee971016040518163ffffffff1660e01b815260040160206040518083038186803b158015610a7f57600080fd5b505afa158015610a93573d6000803e3d6000fd5b505050506040513d601f19601f82011682018060405250810190610ab791906151dc565b601254600160a01b900460ff16612cfa565b919450925090506005610adc858a6158bf565b610ae691906158bf565b610af4846301e133806158bf565b610aff9060646158bf565b11610b315760405162461bcd60e51b8152602060048201526002602482015261279960f11b60448201526064016107fc565b60125460408051630d67aac160e11b815290516000926001600160a01b031691631acf5582916004808301926020929190829003018186803b158015610b7657600080fd5b505afa158015610b8a573d6000803e3d6000fd5b505050506040513d601f19601f82011682018060405250810190610bae91906151dc565b90506000601560009054906101000a90046001600160a01b03166001600160a01b03166316dc165b6040518163ffffffff1660e01b815260040160206040518083038186803b158015610c0057600080fd5b505afa158015610c14573d6000803e3d6000fd5b505050506040513d601f19601f82011682018060405250810190610c389190614e93565b6001600160a01b031663313ce5676040518163ffffffff1660e01b815260040160206040518083038186803b158015610c7057600080fd5b505afa158015610c84573d6000803e3d6000fd5b505050506040513d601f19601f82011682018060405250810190610ca89190615348565b610cb390600a615813565b9050601560009054906101000a90046001600160a01b03166001600160a01b031663a4475ce46040518163ffffffff1660e01b815260040160206040518083038186803b158015610d0357600080fd5b505afa158015610d17573d6000803e3d6000fd5b505050506040513d601f19601f82011682018060405250810190610d3b9190614e93565b6001600160a01b0316336001600160a01b031614610f65576010546012546040805163313ce56760e01b815290516000936001600160a01b03908116936323b872dd93339330939092169163313ce56791600480820192602092909190829003018186803b158015610dac57600080fd5b505afa158015610dc0573d6000803e3d6000fd5b505050506040513d601f19601f82011682018060405250810190610de491906151dc565b610def90600a615807565b610df990876158bf565b601060009054906101000a90046001600160a01b03166001600160a01b031663313ce5676040518163ffffffff1660e01b815260040160206040518083038186803b158015610e4757600080fd5b505afa158015610e5b573d6000803e3d6000fd5b505050506040513d601f19601f82011682018060405250810190610e7f9190615348565b610e8a90600a615813565b610e94898d6158bf565b610e9e91906158bf565b610ea891906157b0565b6040516001600160e01b031960e086901b1681526001600160a01b0393841660048201529290911660248301526044820152606401602060405180830381600087803b158015610ef757600080fd5b505af1158015610f0b573d6000803e3d6000fd5b505050506040513d601f19601f82011682018060405250810190610f2f919061514c565b905080610f635760405162461bcd60e51b81526020600482015260026024820152614f3360f01b60448201526064016107fc565b505b6040805160e081018252600181526016548251635ee9710160e01b815292516000936020808501936001600160a01b031692635ee97101926004808201939291829003018186803b158015610fb957600080fd5b505afa158015610fcd573d6000803e3d6000fd5b505050506040513d601f19601f82011682018060405250810190610ff191906151dc565b8152602081018d90526040016110088d60026158bf565b8152602001858152602001898152602001601260149054906101000a900460ff16600281111561104857634e487b7160e01b600052602160045260246000fd5b90529050611054613073565b9850611060898261308d565b61108d89336110888c85602001518660a00151601260149054906101000a900460ff16613145565b613283565b611097898b6132a6565b6110aa89826060015183608001516132b0565b601560009054906101000a90046001600160a01b03166001600160a01b031663a4475ce46040518163ffffffff1660e01b815260040160206040518083038186803b1580156110f857600080fd5b505afa15801561110c573d6000803e3d6000fd5b505050506040513d601f19601f820116820180604052508101906111309190614e93565b6001600160a01b0316336001600160a01b0316146115a75760105460155460408051632911d73960e21b815290516001600160a01b039384169363a9059cbb93169163a4475ce4916004808301926020929190829003018186803b15801561119757600080fd5b505afa1580156111ab573d6000803e3d6000fd5b505050506040513d601f19601f820116820180604052508101906111cf9190614e93565b601260009054906101000a90046001600160a01b03166001600160a01b031663313ce5676040518163ffffffff1660e01b815260040160206040518083038186803b15801561121d57600080fd5b505afa158015611231573d6000803e3d6000fd5b505050506040513d601f19601f8201168201806040525081019061125591906151dc565b61126090600a615807565b61126a90866158bf565b601060009054906101000a90046001600160a01b03166001600160a01b031663313ce5676040518163ffffffff1660e01b815260040160206040518083038186803b1580156112b857600080fd5b505afa1580156112cc573d6000803e3d6000fd5b505050506040513d601f19601f820116820180604052508101906112f09190615348565b6112fb90600a615813565b611305888a6158bf565b61130f91906158bf565b61131991906157b0565b6040518363ffffffff1660e01b8152600401611336929190615484565b602060405180830381600087803b15801561135057600080fd5b505af1158015611364573d6000803e3d6000fd5b505050506040513d601f19601f82011682018060405250810190611388919061514c565b506010546001600160a01b031663a9059cbb6113a2612548565b601260009054906101000a90046001600160a01b03166001600160a01b031663313ce5676040518163ffffffff1660e01b815260040160206040518083038186803b1580156113f057600080fd5b505afa158015611404573d6000803e3d6000fd5b505050506040513d601f19601f8201168201806040525081019061142891906151dc565b61143390600a615807565b61143d90866158bf565b601060009054906101000a90046001600160a01b03166001600160a01b031663313ce5676040518163ffffffff1660e01b815260040160206040518083038186803b15801561148b57600080fd5b505afa15801561149f573d6000803e3d6000fd5b505050506040513d601f19601f820116820180604052508101906114c39190615348565b6114ce90600a615813565b6114d8888b6158bf565b6114e291906158bf565b6114ec91906157b0565b6040518363ffffffff1660e01b8152600401611509929190615484565b602060405180830381600087803b15801561152357600080fd5b505af1158015611537573d6000803e3d6000fd5b505050506040513d601f19601f8201168201806040525081019061155b919061514c565b50611564612548565b6001600160a01b03167ff0f0487d8990103573e0e5cf4e87e101e2a1ba84c733c556b7a5807e570e5d4c8660405161159e91815260200190565b60405180910390a25b336001600160a01b0316897f89f823a0225c73a75066e963ce2eea7708b57680ec86102773dbd244f541289287898e6040516115e593929190615719565b60405180910390a3505060016007555094979650505050505050565b600061160c8261331b565b92915050565b60606000805461162190615938565b80601f016020809104026020016040519081016040528092919081815260200182805461164d90615938565b801561169a5780601f1061166f5761010080835404028352916020019161169a565b820191906000526020600020905b81548152906001019060200180831161167d57829003601f168201915b5050505050905090565b6000805b6116b1836128ce565b8110156116e3576116c56106a58483612e48565b6116cf9083615798565b9150806116db8161596d565b9150506116a8565b50919050565b60006116f482613340565b6117555760405162461bcd60e51b815260206004820152602c60248201527f4552433732313a20617070726f76656420717565727920666f72206e6f6e657860448201526b34b9ba32b73a103a37b5b2b760a11b60648201526084016107fc565b506000908152600460205260409020546001600160a01b031690565b600061177c8261201d565b9050806001600160a01b0316836001600160a01b031614156117ea5760405162461bcd60e51b815260206004820152602160248201527f4552433732313a20617070726f76616c20746f2063757272656e74206f776e656044820152603960f91b60648201526084016107fc565b336001600160a01b038216148061180657506118068133612ed1565b6118735760405162461bcd60e51b815260206004820152603860248201527f4552433732313a20617070726f76652063616c6c6572206973206e6f74206f776044820152771b995c881b9bdc88185c1c1c9bdd995908199bdc88185b1b60421b60648201526084016107fc565b61187d838361335d565b505050565b61188c33826133cb565b6118a85760405162461bcd60e51b81526004016107fc9061563a565b61187d838383613495565b60009081526008602052604090206001015490565b6000908152600a602052604090205490565b6118e3826118b3565b6118ed813361362e565b61187d8383613692565b6001600160a01b03811633146119675760405162461bcd60e51b815260206004820152602f60248201527f416363657373436f6e74726f6c3a2063616e206f6e6c792072656e6f756e636560448201526e103937b632b9903337b91039b2b63360891b60648201526084016107fc565b6119718282613718565b5050565b60008181526014602052604081206001815460ff1660038111156119a957634e487b7160e01b600052602160045260246000fd5b146119dc5760405162461bcd60e51b815260206004820152600360248201526213cc4d60ea1b60448201526064016107fc565b600581015460009081526017602052604090205480611a0d5760405162461bcd60e51b81526004016107fc906155cc565b6012546040516303906d2960e11b8152600481018390526000916001600160a01b031690630720da5290602401604080518083038186803b158015611a5157600080fd5b505afa158015611a65573d6000803e3d6000fd5b505050506040513d601f19601f82011682018060405250810190611a8991906152b5565b91505060028360030154611a9d91906157b0565b93506002600684015460ff166002811115611ac857634e487b7160e01b600052602160045260246000fd5b1415611b425780836001015410611b075760405162461bcd60e51b81526020600482015260036024820152624f313760e81b60448201526064016107fc565b808360020154846001015483611b1d91906158de565b611b2791906158bf565b611b3191906157b0565b611b3b9085615798565b9350611bb2565b80836001015411611b7b5760405162461bcd60e51b815260206004820152600360248201526209e62760eb1b60448201526064016107fc565b808360020154828560010154611b9191906158de565b611b9b91906158bf565b611ba591906157b0565b611baf9085615798565b93505b8260030154841115611bc657826003015493505b505050919050565b611bd78261201d565b6001600160a01b0316336001600160a01b031614611c075760405162461bcd60e51b81526004016107fc9061555e565b61187d83838361377f565b61187d83838360405180602001604052806000815250612aa6565b611c368161201d565b6001600160a01b0316336001600160a01b031614611c665760405162461bcd60e51b81526004016107fc9061555e565b611c6f81613844565b50565b611c7b82611d94565b611cad5760405162461bcd60e51b815260206004820152600360248201526227189960e91b60448201526064016107fc565b6000806000611cbc868561385c565b509250925092506000611cce86613989565b9050611d0a8682848460600151611ce59190615798565b878560400151611cf59190615798565b878660800151611d059190615798565b613a78565b601554606082015160808301516040516357a5c96760e01b81529394506001600160a01b03909216926357a5c96792611d4a928b92909190600401615738565b600060405180830381600087803b158015611d6457600080fd5b505af1158015611d78573d6000803e3d6000fd5b50505050611d898989898989613aaa565b505050505050505050565b600061160c82613340565b60008181526014602052604090206005810154421015611dd15760405162461bcd60e51b81526004016107fc906156a7565b6001815460ff166003811115611df757634e487b7160e01b600052602160045260246000fd5b14611e295760405162461bcd60e51b81526020600482015260026024820152614f3560f01b60448201526064016107fc565b600581015460009081526017602052604090205480611e5a5760405162461bcd60e51b81526004016107fc906155cc565b6012546040516303906d2960e11b8152600481018390526000916001600160a01b031690630720da5290602401604080518083038186803b158015611e9e57600080fd5b505afa158015611eb2573d6000803e3d6000fd5b505050506040513d601f19601f82011682018060405250810190611ed691906152b5565b915060029050600684015460ff166002811115611f0357634e487b7160e01b600052602160045260246000fd5b148015611f135750826001015481115b80611f5257506001600684015460ff166002811115611f4257634e487b7160e01b600052602160045260246000fd5b148015611f525750826001015481105b15611f6657611f60846128e5565b50612017565b825460ff19166003178355601554604051636198e33960e01b8152600481018690526001600160a01b0390911690636198e33990602401600060405180830381600087803b158015611fb757600080fd5b505af1158015611fcb573d6000803e3d6000fd5b50505050611fd884613844565b837f5f36a4a575e512eb69d6d28c3b0ff98cca7ba50ad5bf04e14094ad1d425e0d31846004015460405161200e91815260200190565b60405180910390a25b50505050565b6000818152600260205260408120546001600160a01b03168061160c5760405162461bcd60e51b815260206004820152602960248201527f4552433732313a206f776e657220717565727920666f72206e6f6e657869737460448201526832b73a103a37b5b2b760b91b60648201526084016107fc565b6060816120c85760405162461bcd60e51b81526020600482015260026024820152614e3160f01b60448201526064016107fc565b816001600160401b038111156120ee57634e487b7160e01b600052604160045260246000fd5b604051908082528060200260200182016040528015612117578160200160208202803683370190505b509050600061212585613989565b9050600061213286612ce8565b905060008080805b8781101561234557600061214c613073565b90508088838151811061216f57634e487b7160e01b600052603260045260246000fd5b6020026020010181815250506121ac8b828c8c868181106121a057634e487b7160e01b600052603260045260246000fd5b90506020020135613cf0565b6000868b8b858181106121cf57634e487b7160e01b600052603260045260246000fd5b9050602002013589604001516121e591906158bf565b6121ef91906157b0565b90506121fb8187615798565b95506000878c8c8681811061222057634e487b7160e01b600052603260045260246000fd5b905060200201358a6060015161223691906158bf565b61224091906157b0565b905061224c8187615798565b95506000888d8d8781811061227157634e487b7160e01b600052603260045260246000fd5b905060200201358b6080015161228791906158bf565b61229191906157b0565b905061229d8187615798565b955060006040518060e001604052808c6000015160038111156122d057634e487b7160e01b600052602160045260246000fd5b81526020018c6020015181526020018581526020018481526020018381526020018c60a0015181526020018c60c00151600281111561231f57634e487b7160e01b600052602160045260246000fd5b9052905061232d858261308d565b5050505050808061233d9061596d565b91505061213a565b5061237b898684886060015161235b91906158de565b86896040015161236b91906158de565b858a60800151611d0591906158de565b601554606082015160808301516040516357a5c96760e01b81529398506001600160a01b03909216926357a5c967926123bb928e92909190600401615738565b600060405180830381600087803b1580156123d557600080fd5b505af11580156123e9573d6000803e3d6000fd5b5050505060005b8781101561247957600061242a88838151811061241d57634e487b7160e01b600052603260045260246000fd5b6020026020010151613989565b905061246688838151811061244f57634e487b7160e01b600052603260045260246000fd5b6020026020010151826060015183608001516132b0565b50806124718161596d565b9150506123f0565b5050505050509392505050565b60006001600160a01b0382166124f15760405162461bcd60e51b815260206004820152602a60248201527f4552433732313a2062616c616e636520717565727920666f7220746865207a65604482015269726f206164647265737360b01b60648201526084016107fc565b506001600160a01b031660009081526003602052604090205490565b33612516612548565b6001600160a01b03161461253c5760405162461bcd60e51b81526004016107fc90615605565b6125466000613e1a565b565b6006546001600160a01b031690565b6012546040516303906d2960e11b815260048101839052600091829182916001600160a01b031690630720da5290602401604080518083038186803b15801561259f57600080fd5b505afa1580156125b3573d6000803e3d6000fd5b505050506040513d601f19601f820116820180604052508101906125d791906152b5565b915091506000601560009054906101000a90046001600160a01b03166001600160a01b031663a834069b6040518163ffffffff1660e01b815260040160206040518083038186803b15801561262b57600080fd5b505afa15801561263f573d6000803e3d6000fd5b505050506040513d601f19601f8201168201806040525081019061266391906151dc565b90508281106126995760405162461bcd60e51b8152602060048201526002602482015261433160f01b60448201526064016107fc565b60006126a66001876158de565b90505b846127ca576012546040516303906d2960e11b8152600481018390526000916001600160a01b031690630720da5290602401604080518083038186803b1580156126f257600080fd5b505afa158015612706573d6000803e3d6000fd5b505050506040513d601f19601f8201168201806040525081019061272a91906152b5565b5090508061277957600082116127675760405162461bcd60e51b8152602060048201526002602482015261433360f01b60448201526064016107fc565b6127726001836158de565b91506127c4565b828111156127ae5760405162461bcd60e51b815260206004820152600260248201526110cd60f21b60448201526064016107fc565b6000838152601760205260409020829055600195505b506126a9565b50505050919050565b60009182526008602090815260408084206001600160a01b0393909316845291905290205460ff1690565b60606001805461162190615938565b6001600160a01b0382163314156128625760405162461bcd60e51b815260206004820152601960248201527822a9219b99189d1030b8383937bb32903a379031b0b63632b960391b60448201526064016107fc565b3360008181526005602090815260408083206001600160a01b03871680855290835292819020805460ff191686151590811790915590519081529192917f17307eab39ab6107e8899845ad3d59bd9653f200f220920489ca2b5937696c31910160405180910390a35050565b6000818152600c6020526040812061160c90613e6c565b60006128f082611d94565b6129225760405162461bcd60e51b815260206004820152600360248201526204f31360ec1b60448201526064016107fc565b6015546040805163a834069b60e01b8152905142926001600160a01b03169163a834069b916004808301926020929190829003018186803b15801561296657600080fd5b505afa15801561297a573d6000803e3d6000fd5b505050506040513d601f19601f8201168201806040525081019061299e91906151dc565b11156129bc5760405162461bcd60e51b81526004016107fc906156a7565b6129c582611975565b6015549091506001600160a01b03166381b34f15836129e38161201d565b6040516001600160e01b031960e085901b16815260048101929092526001600160a01b0316602482015260448101849052606401600060405180830381600087803b158015612a3157600080fd5b505af1158015612a45573d6000803e3d6000fd5b50505050612a5282613844565b600082815260146020908152604091829020805460ff19166002178155915183815284917e84fe51c7cb34b132b7b6eb5d5a87a489f8d6d284758d00a0402c1bad9a0def910160405180910390a250919050565b612ab1335b836133cb565b612acd5760405162461bcd60e51b81526004016107fc9061563a565b61201784848484613e76565b81612b0b5760405162461bcd60e51b8152602060048201526002602482015261138d60f21b60448201526064016107fc565b6000612b1682613989565b606081015160408201516080830151929350909160005b86811015612c6a576000612b66898984818110612b5a57634e487b7160e01b600052603260045260246000fd5b90506020020135613989565b9050806060015185612b789190615798565b9450806040015184612b8a9190615798565b9350806080015183612b9c9190615798565b6015549093506001600160a01b0316630dbf21b08a8a85818110612bd057634e487b7160e01b600052603260045260246000fd5b905060200201356040518263ffffffff1660e01b8152600401612bf591815260200190565b600060405180830381600087803b158015612c0f57600080fd5b505af1158015612c23573d6000803e3d6000fd5b50505050612c57898984818110612c4a57634e487b7160e01b600052603260045260246000fd5b9050602002013588613ea9565b5080612c628161596d565b915050612b2d565b50612c788585858585613a78565b506015546040516357a5c96760e01b81526001600160a01b03909116906357a5c96790612cad90889087908690600401615738565b600060405180830381600087803b158015612cc757600080fd5b505af1158015612cdb573d6000803e3d6000fd5b5050505050505050505050565b6000908152600f602052604090205490565b600080600080601260009054906101000a90046001600160a01b03166001600160a01b0316631acf55826040518163ffffffff1660e01b815260040160206040518083038186803b158015612d4e57600080fd5b505afa158015612d62573d6000803e3d6000fd5b505050506040513d601f19601f82011682018060405250810190612d8691906151dc565b60165460155460405163a5c8287560e01b815292935073__$b949255e90277c788dcf25edf1f9288c61$__9263a5c8287592612ddc928d928d928d928d928a926001600160a01b0390811692169060040161574e565b60606040518083038186803b158015612df457600080fd5b505af4158015612e08573d6000803e3d6000fd5b505050506040513d601f19601f82011682018060405250810190612e2c91906152d8565b919a90995090975095505050505050565b606061160c82614025565b6000828152600c60205260408120612e609083614187565b9392505050565b612e70826118b3565b612e7a813361362e565b61187d8383613718565b8060005b8181101561201757612ebf848483818110612eb357634e487b7160e01b600052603260045260246000fd5b90506020020135611d9f565b80612ec98161596d565b915050612e88565b6001600160a01b03918216600090815260056020908152604080832093909416825291909152205460ff1690565b33612f08612548565b6001600160a01b031614612f2e5760405162461bcd60e51b81526004016107fc90615605565b6001600160a01b038116612f935760405162461bcd60e51b815260206004820152602660248201527f4f776e61626c653a206e6577206f776e657220697320746865207a65726f206160448201526564647265737360d01b60648201526084016107fc565b611c6f81613e1a565b6000612fa6613073565b9050600080600080612fb8878761385c565b935093509350935060006040518060e0016040528083600001516003811115612ff157634e487b7160e01b600052602160045260246000fd5b8152602001836020015181526020018681526020018481526020018581526020018360a0015181526020018360c00151600281111561304057634e487b7160e01b600052602160045260246000fd5b9052905061304e868261308d565b6130598684866132b0565b6130668a8a8a898b613aaa565b5050505050949350505050565b60138054600091826130848361596d565b91905055905090565b60008281526014602052604090208151815483929190829060ff191660018360038111156130cb57634e487b7160e01b600052602160045260246000fd5b02179055506020820151816001015560408201518160020155606082015181600301556080820151816004015560a0820151816005015560c08201518160060160006101000a81548160ff0219169083600281111561313a57634e487b7160e01b600052602160045260246000fd5b021790555050505050565b60008383838760405160200161315e94939291906156ef565b60408051808303601f19018152918152815160209283012060008181526018909352912060020154909150610100900460ff16156131c45760405162461bcd60e51b8152602060048201526003602482015262138c4d60ea1b60448201526064016107fc565b60405180608001604052808581526020018481526020018360028111156131fb57634e487b7160e01b600052602160045260246000fd5b815260016020918201819052600084815260188352604090819020845181559284015183830155830151600280840180549293909260ff191691849081111561325457634e487b7160e01b600052602160045260246000fd5b021790555060609190910151600290910180549115156101000261ff0019909216919091179055949350505050565b6000838152600a60205260409020819055600d5461187d90839085908490614193565b611971828261421d565b60155460405163edd0d42160e01b81526001600160a01b039091169063edd0d421906132e490869086908690600401615738565b600060405180830381600087803b1580156132fe57600080fd5b505af1158015613312573d6000803e3d6000fd5b50505050505050565b60006001600160e01b03198216637965db0b60e01b148061160c575061160c826142a8565b6000908152600260205260409020546001600160a01b0316151590565b600081815260046020526040902080546001600160a01b0319166001600160a01b03841690811790915581906133928261201d565b6001600160a01b03167f8c5be1e5ebec7d5bd14f71427d1e84f3dd0314c0f7b2291e5b200ac8c7c3b92560405160405180910390a45050565b60006133d682613340565b6134375760405162461bcd60e51b815260206004820152602c60248201527f4552433732313a206f70657261746f7220717565727920666f72206e6f6e657860448201526b34b9ba32b73a103a37b5b2b760a11b60648201526084016107fc565b60006134428361201d565b9050806001600160a01b0316846001600160a01b0316148061347d5750836001600160a01b0316613472846116e9565b6001600160a01b0316145b8061348d575061348d8185612ed1565b949350505050565b826001600160a01b03166134a88261201d565b6001600160a01b0316146135105760405162461bcd60e51b815260206004820152602960248201527f4552433732313a207472616e73666572206f6620746f6b656e2074686174206960448201526839903737ba1037bbb760b91b60648201526084016107fc565b6001600160a01b0382166135725760405162461bcd60e51b8152602060048201526024808201527f4552433732313a207472616e7366657220746f20746865207a65726f206164646044820152637265737360e01b60648201526084016107fc565b61357d8383836142f8565b61358860008261335d565b6001600160a01b03831660009081526003602052604081208054600192906135b19084906158de565b90915550506001600160a01b03821660009081526003602052604081208054600192906135df908490615798565b909155505060008181526002602052604080822080546001600160a01b0319166001600160a01b038681169182179092559151849391871691600080516020615a5083398151915291a4505050565b61363882826127d3565b61197157613650816001600160a01b03166014614310565b61365b836020614310565b60405160200161366c9291906153d8565b60408051601f198184030181529082905262461bcd60e51b82526107fc9160040161554b565b61369c82826127d3565b6119715760008281526008602090815260408083206001600160a01b03851684529091529020805460ff191660011790556136d43390565b6001600160a01b0316816001600160a01b0316837f2f8788117e7eff1d82e926ec794901d17c78024a50270940304540a733656f0d60405160405180910390a45050565b61372282826127d3565b156119715760008281526008602090815260408083206001600160a01b0385168085529252808320805460ff1916905551339285917ff6391f5c32d9c69d2a47ea670b442974b53935d1edc7fd64eb21e047a839171b9190a45050565b6000828152600b602090815260408083206001600160a01b03871684526001019091529020546137e1576000828152600b602090815260408220805460018101825590835291200180546001600160a01b0319166001600160a01b0385161790555b6000828152600b602090815260408083206001600160a01b0387168085526001909101835292819020849055518381528492917f8a156bd946dc74ec284c5f4b365ce75ef2a5b9d9462b4cdb1d2400cabf136541910160405180910390a3505050565b6000818152600a6020526040812055611c6f816144f1565b6000806000613869614cc4565b61387286613989565b9050600061387f87612ce8565b90508086836040015161389291906158bf565b61389c91906157b0565b9450808683608001516138af91906158bf565b6138b991906157b0565b9350808683606001516138cc91906158bf565b6138d691906157b0565b925061390d87838585606001516138ed91906158de565b8886604001516138fd91906158de565b888760800151611d0591906158de565b601554606082015160808301516040516357a5c96760e01b81529395506001600160a01b03909216926357a5c9679261394d928c92909190600401615738565b600060405180830381600087803b15801561396757600080fd5b505af115801561397b573d6000803e3d6000fd5b505050505092959194509250565b613991614cc4565b60008281526014602052604090819020815160e081019092528054829060ff1660038111156139d057634e487b7160e01b600052602160045260246000fd5b60038111156139ef57634e487b7160e01b600052602160045260246000fd5b81526001820154602082015260028083015460408301526003830154606083015260048301546080830152600583015460a0830152600683015460c09092019160ff1690811115613a5057634e487b7160e01b600052602160045260246000fd5b6002811115613a6f57634e487b7160e01b600052602160045260246000fd5b90525092915050565b613a80614cc4565b5060608401839052604084018290526080840181905283613aa1868261308d565b95945050505050565b613ab38361201d565b6001600160a01b0316856001600160a01b031614613af85760405162461bcd60e51b81526020600482015260026024820152614e3960f01b60448201526064016107fc565b6001600160a01b038416613b345760405162461bcd60e51b815260206004820152600360248201526204e31360ec1b60448201526064016107fc565b336001600160a01b03861614801590613b545750613b528533612ed1565b155b15613b9f576000838152600b60209081526040808320338452600101909152902054613b819082906158de565b6000848152600b602090815260408083203384526001019091529020555b6000838152600f6020526040902054613bb99082906158de565b6000848152600f6020526040902055613bd182613340565b613bee57613be98483613be3866118c8565b84614193565b613c96565b836001600160a01b0316613c018361201d565b6001600160a01b031614613c3d5760405162461bcd60e51b81526020600482015260036024820152624e313160e81b60448201526064016107fc565b613c46826118c8565b613c4f846118c8565b14613c6c5760405162461bcd60e51b81526004016107fc906155e9565b6000828152600f6020526040902054613c86908290615798565b6000838152600f60205260409020555b6000838152600a60205260408082205484835291819020919091555183906001600160a01b038087169190881690600080516020615a7083398151915290613ce1908790879061553d565b60405180910390a45050505050565b613cfa33846133cb565b613d2b5760405162461bcd60e51b8152602060048201526002602482015261271960f11b60448201526064016107fc565b613d3482613340565b15613d665760405162461bcd60e51b81526020600482015260026024820152614e3360f01b60448201526064016107fc565b613d8582613d73856118c8565b6000918252600a602052604090912055565b6000838152600f6020526040902054613d9f9082906158de565b6000848152600f6020526040812091909155613dba8461201d565b9050613dd08184613dca876118c8565b85614193565b83816001600160a01b03167ff66885c33d648fcd0d97e0f2a18e30102169c22763473af0fb716f11b4a17dd68585604051613e0c92919061553d565b60405180910390a350505050565b600680546001600160a01b038381166001600160a01b0319831681179093556040519116919082907f8be0079c531659141344cd1fd0a4f28419497f9722a3daafe3b4186f6b6457e090600090a35050565b600061160c825490565b613e81848484613495565b613e8d84848484614583565b6120175760405162461bcd60e51b81526004016107fc9061557a565b613eb233612aab565b613ee35760405162461bcd60e51b81526020600482015260026024820152614e3560f01b60448201526064016107fc565b80821415613f185760405162461bcd60e51b8152602060048201526002602482015261271b60f11b60448201526064016107fc565b613f21816118c8565b613f2a836118c8565b14613f475760405162461bcd60e51b81526004016107fc906155e9565b6000613f528361201d565b9050613f5d8261201d565b6001600160a01b0316816001600160a01b031614613fa25760405162461bcd60e51b815260206004820152600260248201526109c760f31b60448201526064016107fc565b6000838152600f602052604080822054848352912054613fc29082615798565b6000848152600f6020526040902055613fda84613844565b8284836001600160a01b03167fb3ce851d16b3bbec3774d5631a3893dfa2a80e067cfad265dd594402ac3d60968460405161401791815260200190565b60405180910390a450505050565b606061403082613340565b6140965760405162461bcd60e51b815260206004820152603160248201527f45524337323155524953746f726167653a2055524920717565727920666f72206044820152703737b732bc34b9ba32b73a103a37b5b2b760791b60648201526084016107fc565b600082815260096020526040812080546140af90615938565b80601f01602080910402602001604051908101604052809291908181526020018280546140db90615938565b80156141285780601f106140fd57610100808354040283529160200191614128565b820191906000526020600020905b81548152906001019060200180831161410b57829003601f168201915b505050505090506000614139614690565b905080516000141561414c575092915050565b81511561417e5780826040516020016141669291906153a9565b60405160208183030381529060405292505050919050565b61348d846146b0565b6000612e60838361477a565b61419c83613340565b6141c4576141aa84846147b2565b6000828152600c602052604090206141c290846148de565b505b6000838152600f60205260409020546141de908290615798565b6000848152600f60205260408082209290925590516001600160a01b038616908290600080516020615a7083398151915290614017908890879061553d565b61422682613340565b6142895760405162461bcd60e51b815260206004820152602e60248201527f45524337323155524953746f726167653a2055524920736574206f66206e6f6e60448201526d32bc34b9ba32b73a103a37b5b2b760911b60648201526084016107fc565b6000828152600960209081526040909120825161187d92840190614d20565b60006001600160e01b031982166380ac58cd60e01b14806142d957506001600160e01b03198216635b5e139f60e01b145b8061160c57506301ffc9a760e01b6001600160e01b031983161461160c565b6001600160a01b0383161561187d5761187d816148ea565b6060600061431f8360026158bf565b61432a906002615798565b6001600160401b0381111561434f57634e487b7160e01b600052604160045260246000fd5b6040519080825280601f01601f191660200182016040528015614379576020820181803683370190505b509050600360fc1b816000815181106143a257634e487b7160e01b600052603260045260246000fd5b60200101906001600160f81b031916908160001a905350600f60fb1b816001815181106143df57634e487b7160e01b600052603260045260246000fd5b60200101906001600160f81b031916908160001a90535060006144038460026158bf565b61440e906001615798565b90505b60018111156144a2576f181899199a1a9b1b9c1cb0b131b232b360811b85600f166010811061445057634e487b7160e01b600052603260045260246000fd5b1a60f81b82828151811061447457634e487b7160e01b600052603260045260246000fd5b60200101906001600160f81b031916908160001a90535060049490941c9361449b81615921565b9050614411565b508315612e605760405162461bcd60e51b815260206004820181905260248201527f537472696e67733a20686578206c656e67746820696e73756666696369656e7460448201526064016107fc565b60006144fc8261201d565b90506000614509836118c8565b6000848152600f6020908152604080832054848452600c90925290912091925090614534908561499e565b506000848152600f602052604081205561454d846149aa565b8360006001600160a01b0316846001600160a01b0316600080516020615a7083398151915260008560405161401792919061553d565b60006001600160a01b0384163b1561468557604051630a85bd0160e11b81526001600160a01b0385169063150b7a02906145c7903390899088908890600401615447565b602060405180830381600087803b1580156145e157600080fd5b505af1925050508015614611575060408051601f3d908101601f1916820190925261460e918101906151c0565b60015b61466b573d80801561463f576040519150601f19603f3d011682016040523d82523d6000602084013e614644565b606091505b5080516146635760405162461bcd60e51b81526004016107fc9061557a565b805181602001fd5b6001600160e01b031916630a85bd0160e11b14905061348d565b506001949350505050565b6060604051806060016040528060228152602001615a2e60229139905090565b60606146bb82613340565b61471f5760405162461bcd60e51b815260206004820152602f60248201527f4552433732314d657461646174613a2055524920717565727920666f72206e6f60448201526e3732bc34b9ba32b73a103a37b5b2b760891b60648201526084016107fc565b6000614729614690565b905060008151116147495760405180602001604052806000815250612e60565b8061475384614a3f565b6040516020016147649291906153a9565b6040516020818303038152906040529392505050565b600082600001828154811061479f57634e487b7160e01b600052603260045260246000fd5b9060005260206000200154905092915050565b6001600160a01b0382166148085760405162461bcd60e51b815260206004820181905260248201527f4552433732313a206d696e7420746f20746865207a65726f206164647265737360448201526064016107fc565b61481181613340565b1561485d5760405162461bcd60e51b815260206004820152601c60248201527b115490cdcc8c4e881d1bdad95b88185b1c9958591e481b5a5b9d195960221b60448201526064016107fc565b614869600083836142f8565b6001600160a01b0382166000908152600360205260408120805460019290614892908490615798565b909155505060008181526002602052604080822080546001600160a01b0319166001600160a01b0386169081179091559051839290600080516020615a50833981519152908290a45050565b6000612e608383614b58565b6000818152600b60205260408120905b815481101561187d5781600101600083600001838154811061492c57634e487b7160e01b600052603260045260246000fd5b60009182526020808320909101546001600160a01b03168352820192909252604001812055815482908290811061497357634e487b7160e01b600052603260045260246000fd5b600091825260209091200180546001600160a01b0319169055806149968161596d565b9150506148fa565b6000612e608383614ba7565b60006149b58261201d565b90506149c3816000846142f8565b6149ce60008361335d565b6001600160a01b03811660009081526003602052604081208054600192906149f79084906158de565b909155505060008281526002602052604080822080546001600160a01b0319169055518391906001600160a01b03841690600080516020615a50833981519152908390a45050565b606081614a635750506040805180820190915260018152600360fc1b602082015290565b8160005b8115614a8d5780614a778161596d565b9150614a869050600a836157b0565b9150614a67565b6000816001600160401b03811115614ab557634e487b7160e01b600052604160045260246000fd5b6040519080825280601f01601f191660200182016040528015614adf576020820181803683370190505b5090505b841561348d57614af46001836158de565b9150614b01600a86615988565b614b0c906030615798565b60f81b818381518110614b2f57634e487b7160e01b600052603260045260246000fd5b60200101906001600160f81b031916908160001a905350614b51600a866157b0565b9450614ae3565b6000818152600183016020526040812054614b9f5750815460018181018455600084815260208082209093018490558454848252828601909352604090209190915561160c565b50600061160c565b60008181526001830160205260408120548015614cba576000614bcb6001836158de565b8554909150600090614bdf906001906158de565b9050818114614c60576000866000018281548110614c0d57634e487b7160e01b600052603260045260246000fd5b9060005260206000200154905080876000018481548110614c3e57634e487b7160e01b600052603260045260246000fd5b6000918252602080832090910192909255918252600188019052604090208390555b8554869080614c7f57634e487b7160e01b600052603160045260246000fd5b60019003818190600052602060002001600090559055856001016000868152602001908152602001600020600090556001935050505061160c565b600091505061160c565b6040805160e081019091528060008152602001600081526020016000815260200160008152602001600081526020016000815260200160006002811115614d1b57634e487b7160e01b600052602160045260246000fd5b905290565b828054614d2c90615938565b90600052602060002090601f016020900481019282614d4e5760008555614d94565b82601f10614d6757805160ff1916838001178555614d94565b82800160010185558215614d94579182015b82811115614d94578251825591602001919060010190614d79565b50614da0929150614da4565b5090565b5b80821115614da05760008155600101614da5565b60006001600160401b0380841115614dd357614dd36159de565b604051601f8501601f19908116603f01168101908282118183101715614dfb57614dfb6159de565b81604052809350858152868686011115614e1457600080fd5b858560208301376000602087830101525050509392505050565b60008083601f840112614e3f578182fd5b5081356001600160401b03811115614e55578182fd5b6020830191508360208260051b8501011115614e7057600080fd5b9250929050565b600060208284031215614e88578081fd5b8135612e60816159f4565b600060208284031215614ea4578081fd5b8151612e60816159f4565b60008060408385031215614ec1578081fd5b8235614ecc816159f4565b91506020830135614edc816159f4565b809150509250929050565b600080600060608486031215614efb578081fd5b8335614f06816159f4565b92506020840135614f16816159f4565b929592945050506040919091013590565b60008060008060808587031215614f3c578081fd5b8435614f47816159f4565b93506020850135614f57816159f4565b92506040850135915060608501356001600160401b03811115614f78578182fd5b8501601f81018713614f88578182fd5b614f9787823560208401614db9565b91505092959194509250565b60008060008060808587031215614fb8578384fd5b8435614fc3816159f4565b93506020850135614fd3816159f4565b93969395505050506040820135916060013590565b600080600080600060a08688031215614fff578081fd5b853561500a816159f4565b9450602086013561501a816159f4565b94979496505050506040830135926060810135926080909101359150565b6000806040838503121561504a578182fd5b8235615055816159f4565b91506020830135614edc81615a09565b60008060408385031215615077578182fd5b8235615082816159f4565b946020939093013593505050565b6000806000606084860312156150a4578081fd5b83356150af816159f4565b95602085013595506040909401359392505050565b600080602083850312156150d6578182fd5b82356001600160401b038111156150eb578283fd5b6150f785828601614e2e565b90969095509350505050565b600080600060408486031215615117578081fd5b83356001600160401b0381111561512c578182fd5b61513886828701614e2e565b909790965060209590950135949350505050565b60006020828403121561515d578081fd5b8151612e6081615a09565b600060208284031215615179578081fd5b5035919050565b60008060408385031215615192578182fd5b823591506020830135614edc816159f4565b6000602082840312156151b5578081fd5b8135612e6081615a17565b6000602082840312156151d1578081fd5b8151612e6081615a17565b6000602082840312156151ed578081fd5b5051919050565b600080600060408486031215615208578081fd5b8335925060208401356001600160401b03811115615224578182fd5b61523086828701614e2e565b9497909650939450505050565b6000806040838503121561524f578182fd5b8235915060208301356001600160401b0381111561526b578182fd5b8301601f8101851361527b578182fd5b61528a85823560208401614db9565b9150509250929050565b600080604083850312156152a6578182fd5b50508035926020909101359150565b600080604083850312156152c7578182fd5b505080516020909101519092909150565b6000806000606084860312156152ec578081fd5b8351925060208401519150604084015190509250925092565b6000806000806080858703121561531a578182fd5b84359350602085013592506040850135915060608501356003811061533d578182fd5b939692955090935050565b600060208284031215615359578081fd5b815160ff81168114612e60578182fd5b600081518084526153818160208601602086016158f5565b601f01601f19169290920160200192915050565b600381106153a5576153a56159c8565b9052565b600083516153bb8184602088016158f5565b8351908301906153cf8183602088016158f5565b01949350505050565b76020b1b1b2b9b9a1b7b73a3937b61d1030b1b1b7bab73a1604d1b81526000835161540a8160178501602088016158f5565b7001034b99036b4b9b9b4b733903937b6329607d1b601791840191820152835161543b8160288401602088016158f5565b01602801949350505050565b6001600160a01b038581168252841660208201526040810183905260806060820181905260009061547a90830184615369565b9695505050505050565b6001600160a01b03929092168252602082015260400190565b6020808252825182820181905260009190848201906040850190845b818110156154d5578351835292840192918401916001016154b9565b50909695505050505050565b6020810161160c8284615395565b60e0810160048910615503576155036159c8565b8882528760208301528660408301528560608301528460808301528360a083015261553160c0830184615395565b98975050505050505050565b918252602082015260400190565b602081526000612e606020830184615369565b6020808252600290820152614f3960f01b604082015260600190565b60208082526032908201527f4552433732313a207472616e7366657220746f206e6f6e20455243373231526560408201527131b2b4bb32b91034b6b83632b6b2b73a32b960711b606082015260800190565b60208082526003908201526204f32360ec1b604082015260600190565b6020808252600290820152614e3760f01b604082015260600190565b6020808252818101527f4f776e61626c653a2063616c6c6572206973206e6f7420746865206f776e6572604082015260600190565b60208082526031908201527f4552433732313a207472616e736665722063616c6c6572206973206e6f74206f6040820152701ddb995c881b9bdc88185c1c1c9bdd9959607a1b606082015260800190565b6020808252600290820152614f3160f01b604082015260600190565b60208082526002908201526113cd60f21b604082015260600190565b84815260208101849052608081016156de6040830185615395565b821515606083015295945050505050565b848152602081018490526080810161570a6040830185615395565b82606083015295945050505050565b838152826020820152606060408201526000613aa16060830184615369565b9283526020830191909152604082015260600190565b878152602081018790526040810186905260e081016157706060830187615395565b60808201949094526001600160a01b0392831660a0820152911660c090910152949350505050565b600082198211156157ab576157ab61599c565b500190565b6000826157bf576157bf6159b2565b500490565b600181815b808511156157ff5781600019048211156157e5576157e561599c565b808516156157f257918102915b93841c93908002906157c9565b509250929050565b6000612e60838361581e565b6000612e6060ff8416835b60008261582d5750600161160c565b8161583a5750600061160c565b8160018114615850576002811461585a57615876565b600191505061160c565b60ff84111561586b5761586b61599c565b50506001821b61160c565b5060208310610133831016604e8410600b8410161715615899575081810a61160c565b6158a383836157c4565b80600019048211156158b7576158b761599c565b029392505050565b60008160001904831182151516156158d9576158d961599c565b500290565b6000828210156158f0576158f061599c565b500390565b60005b838110156159105781810151838201526020016158f8565b838111156120175750506000910152565b6000816159305761593061599c565b506000190190565b600181811c9082168061594c57607f821691505b602082108114156116e357634e487b7160e01b600052602260045260246000fd5b60006000198214156159815761598161599c565b5060010190565b600082615997576159976159b2565b500690565b634e487b7160e01b600052601160045260246000fd5b634e487b7160e01b600052601260045260246000fd5b634e487b7160e01b600052602160045260246000fd5b634e487b7160e01b600052604160045260246000fd5b6001600160a01b0381168114611c6f57600080fd5b8015158114611c6f57600080fd5b6001600160e01b031981168114611c6f57600080fdfe68747470733a2f2f676174657761792e70696e6174612e636c6f75642f697066732fddf252ad1be2c89b69c2b068fc378daa952ba7f163c4a11628f55a4df523b3ef823a343d1c899e61a4db12247636a6882bf1fefae78bef39170f8d0f5b53e456a26469706673582212208115184f01ec184fdee193c9cac57c54ac8af3fbd81814e3824e8f022a8f0b3b64736f6c63430008040033","language":"Solidity","natspec":{"author":"Heisenberg","kind":"dev","methods":{"approve(address,uint256)":{"details":"See {IERC721-approve}."},"balanceOf(address)":{"details":"See {IERC721-balanceOf}."},"create(uint256,string)":{"notice":"Creates a new option","params":{"amount":"Option amount in tokenX"},"returns":{"optionID":"Created option's ID"}},"exercise(uint256)":{"notice":"Exercises an option if it was ITM at the time of expiry","params":{"optionID":"ID of your option"}},"fees(uint256,uint256,uint256,uint8)":{"notice":"Used for getting the actual options prices in pool's tokenX","params":{"amount":"Option amount","optionType":"call/put","period":"Option period in seconds (1 days <= period <= 4 weeks)","strike":"Strike price of the option"},"returns":{"premium":"Amount that covers the price difference in the ITM options","settlementFee":"Amount to be distributed to the Buffer token holders","total":"Total price to be paid"}},"getApproved(uint256)":{"details":"See {IERC721-getApproved}."},"getRoleAdmin(bytes32)":{"details":"Returns the admin role that controls `role`. See {grantRole} and {revokeRole}. To change a role's admin, use {_setRoleAdmin}."},"grantRole(bytes32,address)":{"details":"Grants `role` to `account`. If `account` had not been already granted `role`, emits a {RoleGranted} event. Requirements: - the caller must have ``role``'s admin role."},"hasRole(bytes32,address)":{"details":"Returns `true` if `account` has been granted `role`."},"isApprovedForAll(address,address)":{"details":"See {IERC721-isApprovedForAll}."},"merge(uint256[],uint256)":{"notice":"Merges the options","params":{"optionIDs":"An array of the optionsIds to be merged","targetOptionID":"OptionId to be merged into"}},"name()":{"details":"See {IERC721Metadata-name}."},"owner()":{"details":"Returns the address of the current owner."},"ownerOf(uint256)":{"details":"See {IERC721-ownerOf}."},"renounceOwnership()":{"details":"Leaves the contract without owner. It will not be possible to call `onlyOwner` functions anymore. Can only be called by the current owner. NOTE: Renouncing ownership will leave the contract without an owner, thereby removing any functionality that is only available to the owner."},"renounceRole(bytes32,address)":{"details":"Revokes `role` from the calling account. Roles are often managed via {grantRole} and {revokeRole}: this function's purpose is to provide a mechanism for accounts to lose their privileges if they are compromised (such as when a trusted device is misplaced). If the calling account had been granted `role`, emits a {RoleRevoked} event. Requirements: - the caller must be `account`."},"revokeRole(bytes32,address)":{"details":"Revokes `role` from `account`. If `account` had been granted `role`, emits a {RoleRevoked} event. Requirements: - the caller must have ``role``'s admin role."},"safeTransferFrom(address,address,uint256)":{"details":"See {IERC721-safeTransferFrom}."},"safeTransferFrom(address,address,uint256,bytes)":{"details":"See {IERC721-safeTransferFrom}."},"setApprovalForAll(address,bool)":{"details":"See {IERC721-setApprovalForAll}."},"setRoundIDForExpiry(uint256)":{"details":"a roundId must be provided to confirm price validity, which is the first Chainlink price provided after the expiryTimestamp","notice":"Sets the expiry price in the oracle","params":{"roundId":"the first roundId after expiryTimestamp"}},"split(uint256,uint256[])":{"notice":"Splits the option","params":{"optionID":"OptionId to be splitted","splitUnits_":"Units to be splitted into"},"returns":{"newOptionIDs":"An array of the splitted options"}},"symbol()":{"details":"See {IERC721Metadata-symbol}."},"tokenURI(uint256)":{"details":"Template code provided by OpenZepplin Code Wizard"},"transferFrom(address,address,uint256)":{"details":"See {IERC721-transferFrom}."},"transferFrom(address,address,uint256,uint256)":{"notice":"Transfer part of units of a option to target address.","params":{"from_":"Address of the option sender","optionID":"Id of the option to transfer","to_":"Address of the option recipient","transferUnits_":"Amount of units to transfer"}},"transferFrom(address,address,uint256,uint256,uint256)":{"notice":"Transfer part of units of a option to another option.","params":{"from_":"Address of the option sender","optionID":"Id of the option to transfer","targetOptionID":"Id of the option to receive","to_":"Address of the option recipient","transferUnits_":"Amount of units to transfer"}},"transferOwnership(address)":{"details":"Transfers ownership of the contract to a new account (`newOwner`). Can only be called by the current owner."},"unlock(uint256)":{"notice":"Unlocks the locked funds if the option was OTM at the time of expiry otherwise exercises it","params":{"optionID":"ID of the option"}},"unlockAll(uint256[])":{"notice":"Unlocks an array of options","params":{"optionIDs":"array of options"}}},"notice":"Buffer TokenX Options Contract","title":"Buffer TokenX Bidirectional (Call and Put) Options","version":1},"opcodes":"PUSH1 0x80 PUSH1 0x40 MSTORE CALLVALUE DUP1 ISZERO PUSH2 0x10 JUMPI PUSH1 0x0 DUP1 REVERT JUMPDEST POP PUSH1 0x4 CALLDATASIZE LT PUSH2 0x288 JUMPI PUSH1 0x0 CALLDATALOAD PUSH1 0xE0 SHR DUP1 PUSH4 0x118FA49 EQ PUSH2 0x28D JUMPI DUP1 PUSH4 0x1FFC9A7 EQ PUSH2 0x2B3 JUMPI DUP1 PUSH4 0x5271A2A EQ PUSH2 0x2D6 JUMPI DUP1 PUSH4 0x6517A29 EQ PUSH2 0x2EB JUMPI DUP1 PUSH4 0x6FDDE03 EQ PUSH2 0x2F4 JUMPI DUP1 PUSH4 0x76D948C EQ PUSH2 0x309 JUMPI DUP1 PUSH4 0x81812FC EQ PUSH2 0x31C JUMPI DUP1 PUSH4 0x95EA7B3 EQ PUSH2 0x347 JUMPI DUP1 PUSH4 0x16F0115B EQ PUSH2 0x35C JUMPI DUP1 PUSH4 0x1CECAA31 EQ PUSH2 0x36F JUMPI DUP1 PUSH4 0x23B872DD EQ PUSH2 0x390 JUMPI DUP1 PUSH4 0x248A9CA3 EQ PUSH2 0x3A3 JUMPI DUP1 PUSH4 0x263F3E7E EQ PUSH2 0x3B6 JUMPI DUP1 PUSH4 0x2F2FF15D EQ PUSH2 0x3C9 JUMPI DUP1 PUSH4 0x36568ABE EQ PUSH2 0x3DC JUMPI DUP1 PUSH4 0x3E56F9F9 EQ PUSH2 0x3EF JUMPI DUP1 PUSH4 0x409E2205 EQ PUSH2 0x402 JUMPI DUP1 PUSH4 0x426A8493 EQ PUSH2 0x465 JUMPI DUP1 PUSH4 0x42842E0E EQ PUSH2 0x478 JUMPI DUP1 PUSH4 0x42966C68 EQ PUSH2 0x48B JUMPI DUP1 PUSH4 0x4AED53C2 EQ PUSH2 0x49E JUMPI DUP1 PUSH4 0x4F558E79 EQ PUSH2 0x4B1 JUMPI DUP1 PUSH4 0x6198E339 EQ PUSH2 0x4C4 JUMPI DUP1 PUSH4 0x6352211E EQ PUSH2 0x4D7 JUMPI DUP1 PUSH4 0x69C67247 EQ PUSH2 0x4EA JUMPI DUP1 PUSH4 0x70A08231 EQ PUSH2 0x50A JUMPI DUP1 PUSH4 0x715018A6 EQ PUSH2 0x51D JUMPI DUP1 PUSH4 0x75794A3C EQ PUSH2 0x525 JUMPI DUP1 PUSH4 0x78C533CE EQ PUSH2 0x52E JUMPI DUP1 PUSH4 0x79502C55 EQ PUSH2 0x54E JUMPI DUP1 PUSH4 0x841EDC0E EQ PUSH2 0x561 JUMPI DUP1 PUSH4 0x8A584118 EQ PUSH2 0x581 JUMPI DUP1 PUSH4 0x8DA5CB5B EQ PUSH2 0x5CC JUMPI DUP1 PUSH4 0x8DD7D2C1 EQ PUSH2 0x5D4 JUMPI DUP1 PUSH4 0x91D14854 EQ PUSH2 0x5E7 JUMPI DUP1 PUSH4 0x95D89B41 EQ PUSH2 0x5FA JUMPI DUP1 PUSH4 0x992642E5 EQ PUSH2 0x602 JUMPI DUP1 PUSH4 0xA217FDDF EQ PUSH2 0x615 JUMPI DUP1 PUSH4 0xA22CB465 EQ PUSH2 0x61D JUMPI DUP1 PUSH4 0xA6D14C02 EQ PUSH2 0x630 JUMPI DUP1 PUSH4 0xA8800425 EQ PUSH2 0x638 JUMPI DUP1 PUSH4 0xB07F0A41 EQ PUSH2 0x64B JUMPI DUP1 PUSH4 0xB888879E EQ PUSH2 0x65E JUMPI DUP1 PUSH4 0xB88D4FDE EQ PUSH2 0x671 JUMPI DUP1 PUSH4 0xBBE33EA5 EQ PUSH2 0x684 JUMPI DUP1 PUSH4 0xBECEF607 EQ PUSH2 0x697 JUMPI DUP1 PUSH4 0xC7C3B53F EQ PUSH2 0x6AA JUMPI DUP1 PUSH4 0xC87B56DD EQ PUSH2 0x6CC JUMPI DUP1 PUSH4 0xD149CC30 EQ PUSH2 0x6DF JUMPI DUP1 PUSH4 0xD547741F EQ PUSH2 0x6F2 JUMPI DUP1 PUSH4 0xD5A0E673 EQ PUSH2 0x705 JUMPI DUP1 PUSH4 0xE342B598 EQ PUSH2 0x725 JUMPI DUP1 PUSH4 0xE345E0BC EQ PUSH2 0x738 JUMPI DUP1 PUSH4 0xE985E9C5 EQ PUSH2 0x772 JUMPI DUP1 PUSH4 0xF2FDE38B EQ PUSH2 0x785 JUMPI DUP1 PUSH4 0xFE99049A EQ PUSH2 0x798 JUMPI JUMPDEST PUSH1 0x0 DUP1 REVERT JUMPDEST PUSH2 0x2A0 PUSH2 0x29B CALLDATASIZE PUSH1 0x4 PUSH2 0x523D JUMP JUMPDEST PUSH2 0x7AB JUMP JUMPDEST PUSH1 0x40 MLOAD SWAP1 DUP2 MSTORE PUSH1 0x20 ADD JUMPDEST PUSH1 0x40 MLOAD DUP1 SWAP2 SUB SWAP1 RETURN JUMPDEST PUSH2 0x2C6 PUSH2 0x2C1 CALLDATASIZE PUSH1 0x4 PUSH2 0x51A4 JUMP JUMPDEST PUSH2 0x1601 JUMP JUMPDEST PUSH1 0x40 MLOAD SWAP1 ISZERO ISZERO DUP2 MSTORE PUSH1 0x20 ADD PUSH2 0x2AA JUMP JUMPDEST PUSH1 0xE SLOAD PUSH1 0x40 MLOAD PUSH1 0xFF SWAP1 SWAP2 AND DUP2 MSTORE PUSH1 0x20 ADD PUSH2 0x2AA JUMP JUMPDEST PUSH2 0x2A0 PUSH1 0xD SLOAD DUP2 JUMP JUMPDEST PUSH2 0x2FC PUSH2 0x1612 JUMP JUMPDEST PUSH1 0x40 MLOAD PUSH2 0x2AA SWAP2 SWAP1 PUSH2 0x554B JUMP JUMPDEST PUSH2 0x2A0 PUSH2 0x317 CALLDATASIZE PUSH1 0x4 PUSH2 0x5168 JUMP JUMPDEST PUSH2 0x16A4 JUMP JUMPDEST PUSH2 0x32F PUSH2 0x32A CALLDATASIZE PUSH1 0x4 PUSH2 0x5168 JUMP JUMPDEST PUSH2 0x16E9 JUMP JUMPDEST PUSH1 0x40 MLOAD PUSH1 0x1 PUSH1 0x1 PUSH1 0xA0 SHL SUB SWAP1 SWAP2 AND DUP2 MSTORE PUSH1 0x20 ADD PUSH2 0x2AA JUMP JUMPDEST PUSH2 0x35A PUSH2 0x355 CALLDATASIZE PUSH1 0x4 PUSH2 0x5065 JUMP JUMPDEST PUSH2 0x1771 JUMP JUMPDEST STOP JUMPDEST PUSH1 0x15 SLOAD PUSH2 0x32F SWAP1 PUSH1 0x1 PUSH1 0x1 PUSH1 0xA0 SHL SUB AND DUP2 JUMP JUMPDEST PUSH1 0x12 SLOAD PUSH2 0x383 SWAP1 PUSH1 0x1 PUSH1 0xA0 SHL SWAP1 DIV PUSH1 0xFF AND DUP2 JUMP JUMPDEST PUSH1 0x40 MLOAD PUSH2 0x2AA SWAP2 SWAP1 PUSH2 0x54E1 JUMP JUMPDEST PUSH2 0x35A PUSH2 0x39E CALLDATASIZE PUSH1 0x4 PUSH2 0x4EE7 JUMP JUMPDEST PUSH2 0x1882 JUMP JUMPDEST PUSH2 0x2A0 PUSH2 0x3B1 CALLDATASIZE PUSH1 0x4 PUSH2 0x5168 JUMP JUMPDEST PUSH2 0x18B3 JUMP JUMPDEST PUSH2 0x2A0 PUSH2 0x3C4 CALLDATASIZE PUSH1 0x4 PUSH2 0x5168 JUMP JUMPDEST PUSH2 0x18C8 JUMP JUMPDEST PUSH2 0x35A PUSH2 0x3D7 CALLDATASIZE PUSH1 0x4 PUSH2 0x5180 JUMP JUMPDEST PUSH2 0x18DA JUMP JUMPDEST PUSH2 0x35A PUSH2 0x3EA CALLDATASIZE PUSH1 0x4 PUSH2 0x5180 JUMP JUMPDEST PUSH2 0x18F7 JUMP JUMPDEST PUSH2 0x2A0 PUSH2 0x3FD CALLDATASIZE PUSH1 0x4 PUSH2 0x5168 JUMP JUMPDEST PUSH2 0x1975 JUMP JUMPDEST PUSH2 0x452 PUSH2 0x410 CALLDATASIZE PUSH1 0x4 PUSH2 0x5168 JUMP JUMPDEST PUSH1 0x14 PUSH1 0x20 MSTORE PUSH1 0x0 SWAP1 DUP2 MSTORE PUSH1 0x40 SWAP1 KECCAK256 DUP1 SLOAD PUSH1 0x1 DUP3 ADD SLOAD PUSH1 0x2 DUP4 ADD SLOAD PUSH1 0x3 DUP5 ADD SLOAD PUSH1 0x4 DUP6 ADD SLOAD PUSH1 0x5 DUP7 ADD SLOAD PUSH1 0x6 SWAP1 SWAP7 ADD SLOAD PUSH1 0xFF SWAP6 DUP7 AND SWAP7 SWAP5 SWAP6 SWAP4 SWAP5 SWAP3 SWAP4 SWAP2 SWAP3 SWAP2 AND DUP8 JUMP JUMPDEST PUSH1 0x40 MLOAD PUSH2 0x2AA SWAP8 SWAP7 SWAP6 SWAP5 SWAP4 SWAP3 SWAP2 SWAP1 PUSH2 0x54EF JUMP JUMPDEST PUSH2 0x35A PUSH2 0x473 CALLDATASIZE PUSH1 0x4 PUSH2 0x5090 JUMP JUMPDEST PUSH2 0x1BCE JUMP JUMPDEST PUSH2 0x35A PUSH2 0x486 CALLDATASIZE PUSH1 0x4 PUSH2 0x4EE7 JUMP JUMPDEST PUSH2 0x1C12 JUMP JUMPDEST PUSH2 0x35A PUSH2 0x499 CALLDATASIZE PUSH1 0x4 PUSH2 0x5168 JUMP JUMPDEST PUSH2 0x1C2D JUMP JUMPDEST PUSH2 0x35A PUSH2 0x4AC CALLDATASIZE PUSH1 0x4 PUSH2 0x4FE8 JUMP JUMPDEST PUSH2 0x1C72 JUMP JUMPDEST PUSH2 0x2C6 PUSH2 0x4BF CALLDATASIZE PUSH1 0x4 PUSH2 0x5168 JUMP JUMPDEST PUSH2 0x1D94 JUMP JUMPDEST PUSH2 0x35A PUSH2 0x4D2 CALLDATASIZE PUSH1 0x4 PUSH2 0x5168 JUMP JUMPDEST PUSH2 0x1D9F JUMP JUMPDEST PUSH2 0x32F PUSH2 0x4E5 CALLDATASIZE PUSH1 0x4 PUSH2 0x5168 JUMP JUMPDEST PUSH2 0x201D JUMP JUMPDEST PUSH2 0x4FD PUSH2 0x4F8 CALLDATASIZE PUSH1 0x4 PUSH2 0x51F4 JUMP JUMPDEST PUSH2 0x2094 JUMP JUMPDEST PUSH1 0x40 MLOAD PUSH2 0x2AA SWAP2 SWAP1 PUSH2 0x549D JUMP JUMPDEST PUSH2 0x2A0 PUSH2 0x518 CALLDATASIZE PUSH1 0x4 PUSH2 0x4E77 JUMP JUMPDEST PUSH2 0x2486 JUMP JUMPDEST PUSH2 0x35A PUSH2 0x250D JUMP JUMPDEST PUSH2 0x2A0 PUSH1 0x13 SLOAD DUP2 JUMP JUMPDEST PUSH2 0x2A0 PUSH2 0x53C CALLDATASIZE PUSH1 0x4 PUSH2 0x5168 JUMP JUMPDEST PUSH1 0xF PUSH1 0x20 MSTORE PUSH1 0x0 SWAP1 DUP2 MSTORE PUSH1 0x40 SWAP1 KECCAK256 SLOAD DUP2 JUMP JUMPDEST PUSH1 0x16 SLOAD PUSH2 0x32F SWAP1 PUSH1 0x1 PUSH1 0x1 PUSH1 0xA0 SHL SUB AND DUP2 JUMP JUMPDEST PUSH2 0x2A0 PUSH2 0x56F CALLDATASIZE PUSH1 0x4 PUSH2 0x5168 JUMP JUMPDEST PUSH1 0x17 PUSH1 0x20 MSTORE PUSH1 0x0 SWAP1 DUP2 MSTORE PUSH1 0x40 SWAP1 KECCAK256 SLOAD DUP2 JUMP JUMPDEST PUSH2 0x5BC PUSH2 0x58F CALLDATASIZE PUSH1 0x4 PUSH2 0x5168 JUMP JUMPDEST PUSH1 0x18 PUSH1 0x20 MSTORE PUSH1 0x0 SWAP1 DUP2 MSTORE PUSH1 0x40 SWAP1 KECCAK256 DUP1 SLOAD PUSH1 0x1 DUP3 ADD SLOAD PUSH1 0x2 SWAP1 SWAP3 ADD SLOAD SWAP1 SWAP2 SWAP1 PUSH1 0xFF DUP1 DUP3 AND SWAP2 PUSH2 0x100 SWAP1 DIV AND DUP5 JUMP JUMPDEST PUSH1 0x40 MLOAD PUSH2 0x2AA SWAP5 SWAP4 SWAP3 SWAP2 SWAP1 PUSH2 0x56C3 JUMP JUMPDEST PUSH2 0x32F PUSH2 0x2548 JUMP JUMPDEST PUSH2 0x2C6 PUSH2 0x5E2 CALLDATASIZE PUSH1 0x4 PUSH2 0x5168 JUMP JUMPDEST PUSH2 0x2557 JUMP JUMPDEST PUSH2 0x2C6 PUSH2 0x5F5 CALLDATASIZE PUSH1 0x4 PUSH2 0x5180 JUMP JUMPDEST PUSH2 0x27D3 JUMP JUMPDEST PUSH2 0x2FC PUSH2 0x27FE JUMP JUMPDEST PUSH1 0x10 SLOAD PUSH2 0x32F SWAP1 PUSH1 0x1 PUSH1 0x1 PUSH1 0xA0 SHL SUB AND DUP2 JUMP JUMPDEST PUSH2 0x2A0 PUSH1 0x0 DUP2 JUMP JUMPDEST PUSH2 0x35A PUSH2 0x62B CALLDATASIZE PUSH1 0x4 PUSH2 0x5038 JUMP JUMPDEST PUSH2 0x280D JUMP JUMPDEST PUSH2 0x2A0 PUSH1 0x5 DUP2 JUMP JUMPDEST PUSH2 0x2A0 PUSH2 0x646 CALLDATASIZE PUSH1 0x4 PUSH2 0x5168 JUMP JUMPDEST PUSH2 0x28CE JUMP JUMPDEST PUSH2 0x2A0 PUSH2 0x659 CALLDATASIZE PUSH1 0x4 PUSH2 0x5168 JUMP JUMPDEST PUSH2 0x28E5 JUMP JUMPDEST PUSH1 0x12 SLOAD PUSH2 0x32F SWAP1 PUSH1 0x1 PUSH1 0x1 PUSH1 0xA0 SHL SUB AND DUP2 JUMP JUMPDEST PUSH2 0x35A PUSH2 0x67F CALLDATASIZE PUSH1 0x4 PUSH2 0x4F27 JUMP JUMPDEST PUSH2 0x2AA6 JUMP JUMPDEST PUSH2 0x35A PUSH2 0x692 CALLDATASIZE PUSH1 0x4 PUSH2 0x5103 JUMP JUMPDEST PUSH2 0x2AD9 JUMP JUMPDEST PUSH2 0x2A0 PUSH2 0x6A5 CALLDATASIZE PUSH1 0x4 PUSH2 0x5168 JUMP JUMPDEST PUSH2 0x2CE8 JUMP JUMPDEST PUSH2 0x6BD PUSH2 0x6B8 CALLDATASIZE PUSH1 0x4 PUSH2 0x5305 JUMP JUMPDEST PUSH2 0x2CFA JUMP JUMPDEST PUSH1 0x40 MLOAD PUSH2 0x2AA SWAP4 SWAP3 SWAP2 SWAP1 PUSH2 0x5738 JUMP JUMPDEST PUSH2 0x2FC PUSH2 0x6DA CALLDATASIZE PUSH1 0x4 PUSH2 0x5168 JUMP JUMPDEST PUSH2 0x2E3D JUMP JUMPDEST PUSH2 0x2A0 PUSH2 0x6ED CALLDATASIZE PUSH1 0x4 PUSH2 0x5294 JUMP JUMPDEST PUSH2 0x2E48 JUMP JUMPDEST PUSH2 0x35A PUSH2 0x700 CALLDATASIZE PUSH1 0x4 PUSH2 0x5180 JUMP JUMPDEST PUSH2 0x2E67 JUMP JUMPDEST PUSH2 0x2A0 PUSH2 0x713 CALLDATASIZE PUSH1 0x4 PUSH2 0x5168 JUMP JUMPDEST PUSH1 0xA PUSH1 0x20 MSTORE PUSH1 0x0 SWAP1 DUP2 MSTORE PUSH1 0x40 SWAP1 KECCAK256 SLOAD DUP2 JUMP JUMPDEST PUSH2 0x35A PUSH2 0x733 CALLDATASIZE PUSH1 0x4 PUSH2 0x50C4 JUMP JUMPDEST PUSH2 0x2E84 JUMP JUMPDEST PUSH2 0x2A0 PUSH2 0x746 CALLDATASIZE PUSH1 0x4 PUSH2 0x5180 JUMP JUMPDEST PUSH1 0x0 DUP3 DUP2 MSTORE PUSH1 0xB PUSH1 0x20 SWAP1 DUP2 MSTORE PUSH1 0x40 DUP1 DUP4 KECCAK256 PUSH1 0x1 PUSH1 0x1 PUSH1 0xA0 SHL SUB DUP6 AND DUP5 MSTORE PUSH1 0x1 ADD SWAP1 SWAP2 MSTORE SWAP1 KECCAK256 SLOAD SWAP3 SWAP2 POP POP JUMP JUMPDEST PUSH2 0x2C6 PUSH2 0x780 CALLDATASIZE PUSH1 0x4 PUSH2 0x4EAF JUMP JUMPDEST PUSH2 0x2ED1 JUMP JUMPDEST PUSH2 0x35A PUSH2 0x793 CALLDATASIZE PUSH1 0x4 PUSH2 0x4E77 JUMP JUMPDEST PUSH2 0x2EFF JUMP JUMPDEST PUSH2 0x2A0 PUSH2 0x7A6 CALLDATASIZE PUSH1 0x4 PUSH2 0x4FA3 JUMP JUMPDEST PUSH2 0x2F9C JUMP JUMPDEST PUSH1 0x0 PUSH1 0x2 PUSH1 0x7 SLOAD EQ ISZERO PUSH2 0x805 JUMPI PUSH1 0x40 MLOAD PUSH3 0x461BCD PUSH1 0xE5 SHL DUP2 MSTORE PUSH1 0x20 PUSH1 0x4 DUP3 ADD MSTORE PUSH1 0x1F PUSH1 0x24 DUP3 ADD MSTORE PUSH32 0x5265656E7472616E637947756172643A207265656E7472616E742063616C6C00 PUSH1 0x44 DUP3 ADD MSTORE PUSH1 0x64 ADD JUMPDEST PUSH1 0x40 MLOAD DUP1 SWAP2 SUB SWAP1 REVERT JUMPDEST PUSH1 0x2 PUSH1 0x7 SSTORE PUSH1 0x15 SLOAD PUSH1 0x40 DUP1 MLOAD PUSH4 0x392E53CD PUSH1 0xE0 SHL DUP2 MSTORE SWAP1 MLOAD PUSH1 0x1 PUSH1 0x1 PUSH1 0xA0 SHL SUB SWAP1 SWAP3 AND SWAP2 PUSH4 0x392E53CD SWAP2 PUSH1 0x4 DUP1 DUP3 ADD SWAP3 PUSH1 0x20 SWAP3 SWAP1 SWAP2 SWAP1 DUP3 SWAP1 SUB ADD DUP2 DUP7 DUP1 EXTCODESIZE ISZERO DUP1 ISZERO PUSH2 0x84F JUMPI PUSH1 0x0 DUP1 REVERT JUMPDEST POP GAS STATICCALL ISZERO DUP1 ISZERO PUSH2 0x863 JUMPI RETURNDATASIZE PUSH1 0x0 DUP1 RETURNDATACOPY RETURNDATASIZE PUSH1 0x0 REVERT JUMPDEST POP POP POP POP PUSH1 0x40 MLOAD RETURNDATASIZE PUSH1 0x1F NOT PUSH1 0x1F DUP3 ADD AND DUP3 ADD DUP1 PUSH1 0x40 MSTORE POP DUP2 ADD SWAP1 PUSH2 0x887 SWAP2 SWAP1 PUSH2 0x514C JUMP JUMPDEST DUP1 ISZERO PUSH2 0x914 JUMPI POP PUSH1 0x16 PUSH1 0x0 SWAP1 SLOAD SWAP1 PUSH2 0x100 EXP SWAP1 DIV PUSH1 0x1 PUSH1 0x1 PUSH1 0xA0 SHL SUB AND PUSH1 0x1 PUSH1 0x1 PUSH1 0xA0 SHL SUB AND PUSH4 0x392E53CD PUSH1 0x40 MLOAD DUP2 PUSH4 0xFFFFFFFF AND PUSH1 0xE0 SHL DUP2 MSTORE PUSH1 0x4 ADD PUSH1 0x20 PUSH1 0x40 MLOAD DUP1 DUP4 SUB DUP2 DUP7 DUP1 EXTCODESIZE ISZERO DUP1 ISZERO PUSH2 0x8DC JUMPI PUSH1 0x0 DUP1 REVERT JUMPDEST POP GAS STATICCALL ISZERO DUP1 ISZERO PUSH2 0x8F0 JUMPI RETURNDATASIZE PUSH1 0x0 DUP1 RETURNDATACOPY RETURNDATASIZE PUSH1 0x0 REVERT JUMPDEST POP POP POP POP PUSH1 0x40 MLOAD RETURNDATASIZE PUSH1 0x1F NOT PUSH1 0x1F DUP3 ADD AND DUP3 ADD DUP1 PUSH1 0x40 MSTORE POP DUP2 ADD SWAP1 PUSH2 0x914 SWAP2 SWAP1 PUSH2 0x514C JUMP JUMPDEST PUSH2 0x959 JUMPI PUSH1 0x40 MLOAD PUSH3 0x461BCD PUSH1 0xE5 SHL DUP2 MSTORE PUSH1 0x20 PUSH1 0x4 DUP3 ADD MSTORE PUSH1 0x16 PUSH1 0x24 DUP3 ADD MSTORE PUSH22 0x496E697469616C697A6174696F6E2070656E64696E67 PUSH1 0x50 SHL PUSH1 0x44 DUP3 ADD MSTORE PUSH1 0x64 ADD PUSH2 0x7FC JUMP JUMPDEST PUSH1 0x15 SLOAD PUSH1 0x40 DUP1 MLOAD PUSH4 0xA834069B PUSH1 0xE0 SHL DUP2 MSTORE SWAP1 MLOAD PUSH1 0x0 SWAP3 PUSH1 0x1 PUSH1 0x1 PUSH1 0xA0 SHL SUB AND SWAP2 PUSH4 0xA834069B SWAP2 PUSH1 0x4 DUP1 DUP4 ADD SWAP3 PUSH1 0x20 SWAP3 SWAP2 SWAP1 DUP3 SWAP1 SUB ADD DUP2 DUP7 DUP1 EXTCODESIZE ISZERO DUP1 ISZERO PUSH2 0x99E JUMPI PUSH1 0x0 DUP1 REVERT JUMPDEST POP GAS STATICCALL ISZERO DUP1 ISZERO PUSH2 0x9B2 JUMPI RETURNDATASIZE PUSH1 0x0 DUP1 RETURNDATACOPY RETURNDATASIZE PUSH1 0x0 REVERT JUMPDEST POP POP POP POP PUSH1 0x40 MLOAD RETURNDATASIZE PUSH1 0x1F NOT PUSH1 0x1F DUP3 ADD AND DUP3 ADD DUP1 PUSH1 0x40 MSTORE POP DUP2 ADD SWAP1 PUSH2 0x9D6 SWAP2 SWAP1 PUSH2 0x51DC JUMP JUMPDEST SWAP1 POP TIMESTAMP DUP2 GT PUSH2 0x9F7 JUMPI PUSH1 0x40 MLOAD PUSH3 0x461BCD PUSH1 0xE5 SHL DUP2 MSTORE PUSH1 0x4 ADD PUSH2 0x7FC SWAP1 PUSH2 0x568B JUMP JUMPDEST PUSH1 0x0 PUSH2 0xA03 TIMESTAMP DUP4 PUSH2 0x58DE JUMP JUMPDEST SWAP1 POP PUSH2 0xA8C0 DUP2 LT ISZERO PUSH2 0xA27 JUMPI PUSH1 0x40 MLOAD PUSH3 0x461BCD PUSH1 0xE5 SHL DUP2 MSTORE PUSH1 0x4 ADD PUSH2 0x7FC SWAP1 PUSH2 0x568B JUMP JUMPDEST PUSH1 0x0 DUP1 PUSH1 0x0 PUSH2 0xAC9 DUP5 DUP10 PUSH1 0x16 PUSH1 0x0 SWAP1 SLOAD SWAP1 PUSH2 0x100 EXP SWAP1 DIV PUSH1 0x1 PUSH1 0x1 PUSH1 0xA0 SHL SUB AND PUSH1 0x1 PUSH1 0x1 PUSH1 0xA0 SHL SUB AND PUSH4 0x5EE97101 PUSH1 0x40 MLOAD DUP2 PUSH4 0xFFFFFFFF AND PUSH1 0xE0 SHL DUP2 MSTORE PUSH1 0x4 ADD PUSH1 0x20 PUSH1 0x40 MLOAD DUP1 DUP4 SUB DUP2 DUP7 DUP1 EXTCODESIZE ISZERO DUP1 ISZERO PUSH2 0xA7F JUMPI PUSH1 0x0 DUP1 REVERT JUMPDEST POP GAS STATICCALL ISZERO DUP1 ISZERO PUSH2 0xA93 JUMPI RETURNDATASIZE PUSH1 0x0 DUP1 RETURNDATACOPY RETURNDATASIZE PUSH1 0x0 REVERT JUMPDEST POP POP POP POP PUSH1 0x40 MLOAD RETURNDATASIZE PUSH1 0x1F NOT PUSH1 0x1F DUP3 ADD AND DUP3 ADD DUP1 PUSH1 0x40 MSTORE POP DUP2 ADD SWAP1 PUSH2 0xAB7 SWAP2 SWAP1 PUSH2 0x51DC JUMP JUMPDEST PUSH1 0x12 SLOAD PUSH1 0x1 PUSH1 0xA0 SHL SWAP1 DIV PUSH1 0xFF AND PUSH2 0x2CFA JUMP JUMPDEST SWAP2 SWAP5 POP SWAP3 POP SWAP1 POP PUSH1 0x5 PUSH2 0xADC DUP6 DUP11 PUSH2 0x58BF JUMP JUMPDEST PUSH2 0xAE6 SWAP2 SWAP1 PUSH2 0x58BF JUMP JUMPDEST PUSH2 0xAF4 DUP5 PUSH4 0x1E13380 PUSH2 0x58BF JUMP JUMPDEST PUSH2 0xAFF SWAP1 PUSH1 0x64 PUSH2 0x58BF JUMP JUMPDEST GT PUSH2 0xB31 JUMPI PUSH1 0x40 MLOAD PUSH3 0x461BCD PUSH1 0xE5 SHL DUP2 MSTORE PUSH1 0x20 PUSH1 0x4 DUP3 ADD MSTORE PUSH1 0x2 PUSH1 0x24 DUP3 ADD MSTORE PUSH2 0x2799 PUSH1 0xF1 SHL PUSH1 0x44 DUP3 ADD MSTORE PUSH1 0x64 ADD PUSH2 0x7FC JUMP JUMPDEST PUSH1 0x12 SLOAD PUSH1 0x40 DUP1 MLOAD PUSH4 0xD67AAC1 PUSH1 0xE1 SHL DUP2 MSTORE SWAP1 MLOAD PUSH1 0x0 SWAP3 PUSH1 0x1 PUSH1 0x1 PUSH1 0xA0 SHL SUB AND SWAP2 PUSH4 0x1ACF5582 SWAP2 PUSH1 0x4 DUP1 DUP4 ADD SWAP3 PUSH1 0x20 SWAP3 SWAP2 SWAP1 DUP3 SWAP1 SUB ADD DUP2 DUP7 DUP1 EXTCODESIZE ISZERO DUP1 ISZERO PUSH2 0xB76 JUMPI PUSH1 0x0 DUP1 REVERT JUMPDEST POP GAS STATICCALL ISZERO DUP1 ISZERO PUSH2 0xB8A JUMPI RETURNDATASIZE PUSH1 0x0 DUP1 RETURNDATACOPY RETURNDATASIZE PUSH1 0x0 REVERT JUMPDEST POP POP POP POP PUSH1 0x40 MLOAD RETURNDATASIZE PUSH1 0x1F NOT PUSH1 0x1F DUP3 ADD AND DUP3 ADD DUP1 PUSH1 0x40 MSTORE POP DUP2 ADD SWAP1 PUSH2 0xBAE SWAP2 SWAP1 PUSH2 0x51DC JUMP JUMPDEST SWAP1 POP PUSH1 0x0 PUSH1 0x15 PUSH1 0x0 SWAP1 SLOAD SWAP1 PUSH2 0x100 EXP SWAP1 DIV PUSH1 0x1 PUSH1 0x1 PUSH1 0xA0 SHL SUB AND PUSH1 0x1 PUSH1 0x1 PUSH1 0xA0 SHL SUB AND PUSH4 0x16DC165B PUSH1 0x40 MLOAD DUP2 PUSH4 0xFFFFFFFF AND PUSH1 0xE0 SHL DUP2 MSTORE PUSH1 0x4 ADD PUSH1 0x20 PUSH1 0x40 MLOAD DUP1 DUP4 SUB DUP2 DUP7 DUP1 EXTCODESIZE ISZERO DUP1 ISZERO PUSH2 0xC00 JUMPI PUSH1 0x0 DUP1 REVERT JUMPDEST POP GAS STATICCALL ISZERO DUP1 ISZERO PUSH2 0xC14 JUMPI RETURNDATASIZE PUSH1 0x0 DUP1 RETURNDATACOPY RETURNDATASIZE PUSH1 0x0 REVERT JUMPDEST POP POP POP POP PUSH1 0x40 MLOAD RETURNDATASIZE PUSH1 0x1F NOT PUSH1 0x1F DUP3 ADD AND DUP3 ADD DUP1 PUSH1 0x40 MSTORE POP DUP2 ADD SWAP1 PUSH2 0xC38 SWAP2 SWAP1 PUSH2 0x4E93 JUMP JUMPDEST PUSH1 0x1 PUSH1 0x1 PUSH1 0xA0 SHL SUB AND PUSH4 0x313CE567 PUSH1 0x40 MLOAD DUP2 PUSH4 0xFFFFFFFF AND PUSH1 0xE0 SHL DUP2 MSTORE PUSH1 0x4 ADD PUSH1 0x20 PUSH1 0x40 MLOAD DUP1 DUP4 SUB DUP2 DUP7 DUP1 EXTCODESIZE ISZERO DUP1 ISZERO PUSH2 0xC70 JUMPI PUSH1 0x0 DUP1 REVERT JUMPDEST POP GAS STATICCALL ISZERO DUP1 ISZERO PUSH2 0xC84 JUMPI RETURNDATASIZE PUSH1 0x0 DUP1 RETURNDATACOPY RETURNDATASIZE PUSH1 0x0 REVERT JUMPDEST POP POP POP POP PUSH1 0x40 MLOAD RETURNDATASIZE PUSH1 0x1F NOT PUSH1 0x1F DUP3 ADD AND DUP3 ADD DUP1 PUSH1 0x40 MSTORE POP DUP2 ADD SWAP1 PUSH2 0xCA8 SWAP2 SWAP1 PUSH2 0x5348 JUMP JUMPDEST PUSH2 0xCB3 SWAP1 PUSH1 0xA PUSH2 0x5813 JUMP JUMPDEST SWAP1 POP PUSH1 0x15 PUSH1 0x0 SWAP1 SLOAD SWAP1 PUSH2 0x100 EXP SWAP1 DIV PUSH1 0x1 PUSH1 0x1 PUSH1 0xA0 SHL SUB AND PUSH1 0x1 PUSH1 0x1 PUSH1 0xA0 SHL SUB AND PUSH4 0xA4475CE4 PUSH1 0x40 MLOAD DUP2 PUSH4 0xFFFFFFFF AND PUSH1 0xE0 SHL DUP2 MSTORE PUSH1 0x4 ADD PUSH1 0x20 PUSH1 0x40 MLOAD DUP1 DUP4 SUB DUP2 DUP7 DUP1 EXTCODESIZE ISZERO DUP1 ISZERO PUSH2 0xD03 JUMPI PUSH1 0x0 DUP1 REVERT JUMPDEST POP GAS STATICCALL ISZERO DUP1 ISZERO PUSH2 0xD17 JUMPI RETURNDATASIZE PUSH1 0x0 DUP1 RETURNDATACOPY RETURNDATASIZE PUSH1 0x0 REVERT JUMPDEST POP POP POP POP PUSH1 0x40 MLOAD RETURNDATASIZE PUSH1 0x1F NOT PUSH1 0x1F DUP3 ADD AND DUP3 ADD DUP1 PUSH1 0x40 MSTORE POP DUP2 ADD SWAP1 PUSH2 0xD3B SWAP2 SWAP1 PUSH2 0x4E93 JUMP JUMPDEST PUSH1 0x1 PUSH1 0x1 PUSH1 0xA0 SHL SUB AND CALLER PUSH1 0x1 PUSH1 0x1 PUSH1 0xA0 SHL SUB AND EQ PUSH2 0xF65 JUMPI PUSH1 0x10 SLOAD PUSH1 0x12 SLOAD PUSH1 0x40 DUP1 MLOAD PUSH4 0x313CE567 PUSH1 0xE0 SHL DUP2 MSTORE SWAP1 MLOAD PUSH1 0x0 SWAP4 PUSH1 0x1 PUSH1 0x1 PUSH1 0xA0 SHL SUB SWAP1 DUP2 AND SWAP4 PUSH4 0x23B872DD SWAP4 CALLER SWAP4 ADDRESS SWAP4 SWAP1 SWAP3 AND SWAP2 PUSH4 0x313CE567 SWAP2 PUSH1 0x4 DUP1 DUP3 ADD SWAP3 PUSH1 0x20 SWAP3 SWAP1 SWAP2 SWAP1 DUP3 SWAP1 SUB ADD DUP2 DUP7 DUP1 EXTCODESIZE ISZERO DUP1 ISZERO PUSH2 0xDAC JUMPI PUSH1 0x0 DUP1 REVERT JUMPDEST POP GAS STATICCALL ISZERO DUP1 ISZERO PUSH2 0xDC0 JUMPI RETURNDATASIZE PUSH1 0x0 DUP1 RETURNDATACOPY RETURNDATASIZE PUSH1 0x0 REVERT JUMPDEST POP POP POP POP PUSH1 0x40 MLOAD RETURNDATASIZE PUSH1 0x1F NOT PUSH1 0x1F DUP3 ADD AND DUP3 ADD DUP1 PUSH1 0x40 MSTORE POP DUP2 ADD SWAP1 PUSH2 0xDE4 SWAP2 SWAP1 PUSH2 0x51DC JUMP JUMPDEST PUSH2 0xDEF SWAP1 PUSH1 0xA PUSH2 0x5807 JUMP JUMPDEST PUSH2 0xDF9 SWAP1 DUP8 PUSH2 0x58BF JUMP JUMPDEST PUSH1 0x10 PUSH1 0x0 SWAP1 SLOAD SWAP1 PUSH2 0x100 EXP SWAP1 DIV PUSH1 0x1 PUSH1 0x1 PUSH1 0xA0 SHL SUB AND PUSH1 0x1 PUSH1 0x1 PUSH1 0xA0 SHL SUB AND PUSH4 0x313CE567 PUSH1 0x40 MLOAD DUP2 PUSH4 0xFFFFFFFF AND PUSH1 0xE0 SHL DUP2 MSTORE PUSH1 0x4 ADD PUSH1 0x20 PUSH1 0x40 MLOAD DUP1 DUP4 SUB DUP2 DUP7 DUP1 EXTCODESIZE ISZERO DUP1 ISZERO PUSH2 0xE47 JUMPI PUSH1 0x0 DUP1 REVERT JUMPDEST POP GAS STATICCALL ISZERO DUP1 ISZERO PUSH2 0xE5B JUMPI RETURNDATASIZE PUSH1 0x0 DUP1 RETURNDATACOPY RETURNDATASIZE PUSH1 0x0 REVERT JUMPDEST POP POP POP POP PUSH1 0x40 MLOAD RETURNDATASIZE PUSH1 0x1F NOT PUSH1 0x1F DUP3 ADD AND DUP3 ADD DUP1 PUSH1 0x40 MSTORE POP DUP2 ADD SWAP1 PUSH2 0xE7F SWAP2 SWAP1 PUSH2 0x5348 JUMP JUMPDEST PUSH2 0xE8A SWAP1 PUSH1 0xA PUSH2 0x5813 JUMP JUMPDEST PUSH2 0xE94 DUP10 DUP14 PUSH2 0x58BF JUMP JUMPDEST PUSH2 0xE9E SWAP2 SWAP1 PUSH2 0x58BF JUMP JUMPDEST PUSH2 0xEA8 SWAP2 SWAP1 PUSH2 0x57B0 JUMP JUMPDEST PUSH1 0x40 MLOAD PUSH1 0x1 PUSH1 0x1 PUSH1 0xE0 SHL SUB NOT PUSH1 0xE0 DUP7 SWAP1 SHL AND DUP2 MSTORE PUSH1 0x1 PUSH1 0x1 PUSH1 0xA0 SHL SUB SWAP4 DUP5 AND PUSH1 0x4 DUP3 ADD MSTORE SWAP3 SWAP1 SWAP2 AND PUSH1 0x24 DUP4 ADD MSTORE PUSH1 0x44 DUP3 ADD MSTORE PUSH1 0x64 ADD PUSH1 0x20 PUSH1 0x40 MLOAD DUP1 DUP4 SUB DUP2 PUSH1 0x0 DUP8 DUP1 EXTCODESIZE ISZERO DUP1 ISZERO PUSH2 0xEF7 JUMPI PUSH1 0x0 DUP1 REVERT JUMPDEST POP GAS CALL ISZERO DUP1 ISZERO PUSH2 0xF0B JUMPI RETURNDATASIZE PUSH1 0x0 DUP1 RETURNDATACOPY RETURNDATASIZE PUSH1 0x0 REVERT JUMPDEST POP POP POP POP PUSH1 0x40 MLOAD RETURNDATASIZE PUSH1 0x1F NOT PUSH1 0x1F DUP3 ADD AND DUP3 ADD DUP1 PUSH1 0x40 MSTORE POP DUP2 ADD SWAP1 PUSH2 0xF2F SWAP2 SWAP1 PUSH2 0x514C JUMP JUMPDEST SWAP1 POP DUP1 PUSH2 0xF63 JUMPI PUSH1 0x40 MLOAD PUSH3 0x461BCD PUSH1 0xE5 SHL DUP2 MSTORE PUSH1 0x20 PUSH1 0x4 DUP3 ADD MSTORE PUSH1 0x2 PUSH1 0x24 DUP3 ADD MSTORE PUSH2 0x4F33 PUSH1 0xF0 SHL PUSH1 0x44 DUP3 ADD MSTORE PUSH1 0x64 ADD PUSH2 0x7FC JUMP JUMPDEST POP JUMPDEST PUSH1 0x40 DUP1 MLOAD PUSH1 0xE0 DUP2 ADD DUP3 MSTORE PUSH1 0x1 DUP2 MSTORE PUSH1 0x16 SLOAD DUP3 MLOAD PUSH4 0x5EE97101 PUSH1 0xE0 SHL DUP2 MSTORE SWAP3 MLOAD PUSH1 0x0 SWAP4 PUSH1 0x20 DUP1 DUP6 ADD SWAP4 PUSH1 0x1 PUSH1 0x1 PUSH1 0xA0 SHL SUB AND SWAP3 PUSH4 0x5EE97101 SWAP3 PUSH1 0x4 DUP1 DUP3 ADD SWAP4 SWAP3 SWAP2 DUP3 SWAP1 SUB ADD DUP2 DUP7 DUP1 EXTCODESIZE ISZERO DUP1 ISZERO PUSH2 0xFB9 JUMPI PUSH1 0x0 DUP1 REVERT JUMPDEST POP GAS STATICCALL ISZERO DUP1 ISZERO PUSH2 0xFCD JUMPI RETURNDATASIZE PUSH1 0x0 DUP1 RETURNDATACOPY RETURNDATASIZE PUSH1 0x0 REVERT JUMPDEST POP POP POP POP PUSH1 0x40 MLOAD RETURNDATASIZE PUSH1 0x1F NOT PUSH1 0x1F DUP3 ADD AND DUP3 ADD DUP1 PUSH1 0x40 MSTORE POP DUP2 ADD SWAP1 PUSH2 0xFF1 SWAP2 SWAP1 PUSH2 0x51DC JUMP JUMPDEST DUP2 MSTORE PUSH1 0x20 DUP2 ADD DUP14 SWAP1 MSTORE PUSH1 0x40 ADD PUSH2 0x1008 DUP14 PUSH1 0x2 PUSH2 0x58BF JUMP JUMPDEST DUP2 MSTORE PUSH1 0x20 ADD DUP6 DUP2 MSTORE PUSH1 0x20 ADD DUP10 DUP2 MSTORE PUSH1 0x20 ADD PUSH1 0x12 PUSH1 0x14 SWAP1 SLOAD SWAP1 PUSH2 0x100 EXP SWAP1 DIV PUSH1 0xFF AND PUSH1 0x2 DUP2 GT ISZERO PUSH2 0x1048 JUMPI PUSH4 0x4E487B71 PUSH1 0xE0 SHL PUSH1 0x0 MSTORE PUSH1 0x21 PUSH1 0x4 MSTORE PUSH1 0x24 PUSH1 0x0 REVERT JUMPDEST SWAP1 MSTORE SWAP1 POP PUSH2 0x1054 PUSH2 0x3073 JUMP JUMPDEST SWAP9 POP PUSH2 0x1060 DUP10 DUP3 PUSH2 0x308D JUMP JUMPDEST PUSH2 0x108D DUP10 CALLER PUSH2 0x1088 DUP13 DUP6 PUSH1 0x20 ADD MLOAD DUP7 PUSH1 0xA0 ADD MLOAD PUSH1 0x12 PUSH1 0x14 SWAP1 SLOAD SWAP1 PUSH2 0x100 EXP SWAP1 DIV PUSH1 0xFF AND PUSH2 0x3145 JUMP JUMPDEST PUSH2 0x3283 JUMP JUMPDEST PUSH2 0x1097 DUP10 DUP12 PUSH2 0x32A6 JUMP JUMPDEST PUSH2 0x10AA DUP10 DUP3 PUSH1 0x60 ADD MLOAD DUP4 PUSH1 0x80 ADD MLOAD PUSH2 0x32B0 JUMP JUMPDEST PUSH1 0x15 PUSH1 0x0 SWAP1 SLOAD SWAP1 PUSH2 0x100 EXP SWAP1 DIV PUSH1 0x1 PUSH1 0x1 PUSH1 0xA0 SHL SUB AND PUSH1 0x1 PUSH1 0x1 PUSH1 0xA0 SHL SUB AND PUSH4 0xA4475CE4 PUSH1 0x40 MLOAD DUP2 PUSH4 0xFFFFFFFF AND PUSH1 0xE0 SHL DUP2 MSTORE PUSH1 0x4 ADD PUSH1 0x20 PUSH1 0x40 MLOAD DUP1 DUP4 SUB DUP2 DUP7 DUP1 EXTCODESIZE ISZERO DUP1 ISZERO PUSH2 0x10F8 JUMPI PUSH1 0x0 DUP1 REVERT JUMPDEST POP GAS STATICCALL ISZERO DUP1 ISZERO PUSH2 0x110C JUMPI RETURNDATASIZE PUSH1 0x0 DUP1 RETURNDATACOPY RETURNDATASIZE PUSH1 0x0 REVERT JUMPDEST POP POP POP POP PUSH1 0x40 MLOAD RETURNDATASIZE PUSH1 0x1F NOT PUSH1 0x1F DUP3 ADD AND DUP3 ADD DUP1 PUSH1 0x40 MSTORE POP DUP2 ADD SWAP1 PUSH2 0x1130 SWAP2 SWAP1 PUSH2 0x4E93 JUMP JUMPDEST PUSH1 0x1 PUSH1 0x1 PUSH1 0xA0 SHL SUB AND CALLER PUSH1 0x1 PUSH1 0x1 PUSH1 0xA0 SHL SUB AND EQ PUSH2 0x15A7 JUMPI PUSH1 0x10 SLOAD PUSH1 0x15 SLOAD PUSH1 0x40 DUP1 MLOAD PUSH4 0x2911D739 PUSH1 0xE2 SHL DUP2 MSTORE SWAP1 MLOAD PUSH1 0x1 PUSH1 0x1 PUSH1 0xA0 SHL SUB SWAP4 DUP5 AND SWAP4 PUSH4 0xA9059CBB SWAP4 AND SWAP2 PUSH4 0xA4475CE4 SWAP2 PUSH1 0x4 DUP1 DUP4 ADD SWAP3 PUSH1 0x20 SWAP3 SWAP2 SWAP1 DUP3 SWAP1 SUB ADD DUP2 DUP7 DUP1 EXTCODESIZE ISZERO DUP1 ISZERO PUSH2 0x1197 JUMPI PUSH1 0x0 DUP1 REVERT JUMPDEST POP GAS STATICCALL ISZERO DUP1 ISZERO PUSH2 0x11AB JUMPI RETURNDATASIZE PUSH1 0x0 DUP1 RETURNDATACOPY RETURNDATASIZE PUSH1 0x0 REVERT JUMPDEST POP POP POP POP PUSH1 0x40 MLOAD RETURNDATASIZE PUSH1 0x1F NOT PUSH1 0x1F DUP3 ADD AND DUP3 ADD DUP1 PUSH1 0x40 MSTORE POP DUP2 ADD SWAP1 PUSH2 0x11CF SWAP2 SWAP1 PUSH2 0x4E93 JUMP JUMPDEST PUSH1 0x12 PUSH1 0x0 SWAP1 SLOAD SWAP1 PUSH2 0x100 EXP SWAP1 DIV PUSH1 0x1 PUSH1 0x1 PUSH1 0xA0 SHL SUB AND PUSH1 0x1 PUSH1 0x1 PUSH1 0xA0 SHL SUB AND PUSH4 0x313CE567 PUSH1 0x40 MLOAD DUP2 PUSH4 0xFFFFFFFF AND PUSH1 0xE0 SHL DUP2 MSTORE PUSH1 0x4 ADD PUSH1 0x20 PUSH1 0x40 MLOAD DUP1 DUP4 SUB DUP2 DUP7 DUP1 EXTCODESIZE ISZERO DUP1 ISZERO PUSH2 0x121D JUMPI PUSH1 0x0 DUP1 REVERT JUMPDEST POP GAS STATICCALL ISZERO DUP1 ISZERO PUSH2 0x1231 JUMPI RETURNDATASIZE PUSH1 0x0 DUP1 RETURNDATACOPY RETURNDATASIZE PUSH1 0x0 REVERT JUMPDEST POP POP POP POP PUSH1 0x40 MLOAD RETURNDATASIZE PUSH1 0x1F NOT PUSH1 0x1F DUP3 ADD AND DUP3 ADD DUP1 PUSH1 0x40 MSTORE POP DUP2 ADD SWAP1 PUSH2 0x1255 SWAP2 SWAP1 PUSH2 0x51DC JUMP JUMPDEST PUSH2 0x1260 SWAP1 PUSH1 0xA PUSH2 0x5807 JUMP JUMPDEST PUSH2 0x126A SWAP1 DUP7 PUSH2 0x58BF JUMP JUMPDEST PUSH1 0x10 PUSH1 0x0 SWAP1 SLOAD SWAP1 PUSH2 0x100 EXP SWAP1 DIV PUSH1 0x1 PUSH1 0x1 PUSH1 0xA0 SHL SUB AND PUSH1 0x1 PUSH1 0x1 PUSH1 0xA0 SHL SUB AND PUSH4 0x313CE567 PUSH1 0x40 MLOAD DUP2 PUSH4 0xFFFFFFFF AND PUSH1 0xE0 SHL DUP2 MSTORE PUSH1 0x4 ADD PUSH1 0x20 PUSH1 0x40 MLOAD DUP1 DUP4 SUB DUP2 DUP7 DUP1 EXTCODESIZE ISZERO DUP1 ISZERO PUSH2 0x12B8 JUMPI PUSH1 0x0 DUP1 REVERT JUMPDEST POP GAS STATICCALL ISZERO DUP1 ISZERO PUSH2 0x12CC JUMPI RETURNDATASIZE PUSH1 0x0 DUP1 RETURNDATACOPY RETURNDATASIZE PUSH1 0x0 REVERT JUMPDEST POP POP POP POP PUSH1 0x40 MLOAD RETURNDATASIZE PUSH1 0x1F NOT PUSH1 0x1F DUP3 ADD AND DUP3 ADD DUP1 PUSH1 0x40 MSTORE POP DUP2 ADD SWAP1 PUSH2 0x12F0 SWAP2 SWAP1 PUSH2 0x5348 JUMP JUMPDEST PUSH2 0x12FB SWAP1 PUSH1 0xA PUSH2 0x5813 JUMP JUMPDEST PUSH2 0x1305 DUP9 DUP11 PUSH2 0x58BF JUMP JUMPDEST PUSH2 0x130F SWAP2 SWAP1 PUSH2 0x58BF JUMP JUMPDEST PUSH2 0x1319 SWAP2 SWAP1 PUSH2 0x57B0 JUMP JUMPDEST PUSH1 0x40 MLOAD DUP4 PUSH4 0xFFFFFFFF AND PUSH1 0xE0 SHL DUP2 MSTORE PUSH1 0x4 ADD PUSH2 0x1336 SWAP3 SWAP2 SWAP1 PUSH2 0x5484 JUMP JUMPDEST PUSH1 0x20 PUSH1 0x40 MLOAD DUP1 DUP4 SUB DUP2 PUSH1 0x0 DUP8 DUP1 EXTCODESIZE ISZERO DUP1 ISZERO PUSH2 0x1350 JUMPI PUSH1 0x0 DUP1 REVERT JUMPDEST POP GAS CALL ISZERO DUP1 ISZERO PUSH2 0x1364 JUMPI RETURNDATASIZE PUSH1 0x0 DUP1 RETURNDATACOPY RETURNDATASIZE PUSH1 0x0 REVERT JUMPDEST POP POP POP POP PUSH1 0x40 MLOAD RETURNDATASIZE PUSH1 0x1F NOT PUSH1 0x1F DUP3 ADD AND DUP3 ADD DUP1 PUSH1 0x40 MSTORE POP DUP2 ADD SWAP1 PUSH2 0x1388 SWAP2 SWAP1 PUSH2 0x514C JUMP JUMPDEST POP PUSH1 0x10 SLOAD PUSH1 0x1 PUSH1 0x1 PUSH1 0xA0 SHL SUB AND PUSH4 0xA9059CBB PUSH2 0x13A2 PUSH2 0x2548 JUMP JUMPDEST PUSH1 0x12 PUSH1 0x0 SWAP1 SLOAD SWAP1 PUSH2 0x100 EXP SWAP1 DIV PUSH1 0x1 PUSH1 0x1 PUSH1 0xA0 SHL SUB AND PUSH1 0x1 PUSH1 0x1 PUSH1 0xA0 SHL SUB AND PUSH4 0x313CE567 PUSH1 0x40 MLOAD DUP2 PUSH4 0xFFFFFFFF AND PUSH1 0xE0 SHL DUP2 MSTORE PUSH1 0x4 ADD PUSH1 0x20 PUSH1 0x40 MLOAD DUP1 DUP4 SUB DUP2 DUP7 DUP1 EXTCODESIZE ISZERO DUP1 ISZERO PUSH2 0x13F0 JUMPI PUSH1 0x0 DUP1 REVERT JUMPDEST POP GAS STATICCALL ISZERO DUP1 ISZERO PUSH2 0x1404 JUMPI RETURNDATASIZE PUSH1 0x0 DUP1 RETURNDATACOPY RETURNDATASIZE PUSH1 0x0 REVERT JUMPDEST POP POP POP POP PUSH1 0x40 MLOAD RETURNDATASIZE PUSH1 0x1F NOT PUSH1 0x1F DUP3 ADD AND DUP3 ADD DUP1 PUSH1 0x40 MSTORE POP DUP2 ADD SWAP1 PUSH2 0x1428 SWAP2 SWAP1 PUSH2 0x51DC JUMP JUMPDEST PUSH2 0x1433 SWAP1 PUSH1 0xA PUSH2 0x5807 JUMP JUMPDEST PUSH2 0x143D SWAP1 DUP7 PUSH2 0x58BF JUMP JUMPDEST PUSH1 0x10 PUSH1 0x0 SWAP1 SLOAD SWAP1 PUSH2 0x100 EXP SWAP1 DIV PUSH1 0x1 PUSH1 0x1 PUSH1 0xA0 SHL SUB AND PUSH1 0x1 PUSH1 0x1 PUSH1 0xA0 SHL SUB AND PUSH4 0x313CE567 PUSH1 0x40 MLOAD DUP2 PUSH4 0xFFFFFFFF AND PUSH1 0xE0 SHL DUP2 MSTORE PUSH1 0x4 ADD PUSH1 0x20 PUSH1 0x40 MLOAD DUP1 DUP4 SUB DUP2 DUP7 DUP1 EXTCODESIZE ISZERO DUP1 ISZERO PUSH2 0x148B JUMPI PUSH1 0x0 DUP1 REVERT JUMPDEST POP GAS STATICCALL ISZERO DUP1 ISZERO PUSH2 0x149F JUMPI RETURNDATASIZE PUSH1 0x0 DUP1 RETURNDATACOPY RETURNDATASIZE PUSH1 0x0 REVERT JUMPDEST POP POP POP POP PUSH1 0x40 MLOAD RETURNDATASIZE PUSH1 0x1F NOT PUSH1 0x1F DUP3 ADD AND DUP3 ADD DUP1 PUSH1 0x40 MSTORE POP DUP2 ADD SWAP1 PUSH2 0x14C3 SWAP2 SWAP1 PUSH2 0x5348 JUMP JUMPDEST PUSH2 0x14CE SWAP1 PUSH1 0xA PUSH2 0x5813 JUMP JUMPDEST PUSH2 0x14D8 DUP9 DUP12 PUSH2 0x58BF JUMP JUMPDEST PUSH2 0x14E2 SWAP2 SWAP1 PUSH2 0x58BF JUMP JUMPDEST PUSH2 0x14EC SWAP2 SWAP1 PUSH2 0x57B0 JUMP JUMPDEST PUSH1 0x40 MLOAD DUP4 PUSH4 0xFFFFFFFF AND PUSH1 0xE0 SHL DUP2 MSTORE PUSH1 0x4 ADD PUSH2 0x1509 SWAP3 SWAP2 SWAP1 PUSH2 0x5484 JUMP JUMPDEST PUSH1 0x20 PUSH1 0x40 MLOAD DUP1 DUP4 SUB DUP2 PUSH1 0x0 DUP8 DUP1 EXTCODESIZE ISZERO DUP1 ISZERO PUSH2 0x1523 JUMPI PUSH1 0x0 DUP1 REVERT JUMPDEST POP GAS CALL ISZERO DUP1 ISZERO PUSH2 0x1537 JUMPI RETURNDATASIZE PUSH1 0x0 DUP1 RETURNDATACOPY RETURNDATASIZE PUSH1 0x0 REVERT JUMPDEST POP POP POP POP PUSH1 0x40 MLOAD RETURNDATASIZE PUSH1 0x1F NOT PUSH1 0x1F DUP3 ADD AND DUP3 ADD DUP1 PUSH1 0x40 MSTORE POP DUP2 ADD SWAP1 PUSH2 0x155B SWAP2 SWAP1 PUSH2 0x514C JUMP JUMPDEST POP PUSH2 0x1564 PUSH2 0x2548 JUMP JUMPDEST PUSH1 0x1 PUSH1 0x1 PUSH1 0xA0 SHL SUB AND PUSH32 0xF0F0487D8990103573E0E5CF4E87E101E2A1BA84C733C556B7A5807E570E5D4C DUP7 PUSH1 0x40 MLOAD PUSH2 0x159E SWAP2 DUP2 MSTORE PUSH1 0x20 ADD SWAP1 JUMP JUMPDEST PUSH1 0x40 MLOAD DUP1 SWAP2 SUB SWAP1 LOG2 JUMPDEST CALLER PUSH1 0x1 PUSH1 0x1 PUSH1 0xA0 SHL SUB AND DUP10 PUSH32 0x89F823A0225C73A75066E963CE2EEA7708B57680EC86102773DBD244F5412892 DUP8 DUP10 DUP15 PUSH1 0x40 MLOAD PUSH2 0x15E5 SWAP4 SWAP3 SWAP2 SWAP1 PUSH2 0x5719 JUMP JUMPDEST PUSH1 0x40 MLOAD DUP1 SWAP2 SUB SWAP1 LOG3 POP POP PUSH1 0x1 PUSH1 0x7 SSTORE POP SWAP5 SWAP8 SWAP7 POP POP POP POP POP POP POP JUMP JUMPDEST PUSH1 0x0 PUSH2 0x160C DUP3 PUSH2 0x331B JUMP JUMPDEST SWAP3 SWAP2 POP POP JUMP JUMPDEST PUSH1 0x60 PUSH1 0x0 DUP1 SLOAD PUSH2 0x1621 SWAP1 PUSH2 0x5938 JUMP JUMPDEST DUP1 PUSH1 0x1F ADD PUSH1 0x20 DUP1 SWAP2 DIV MUL PUSH1 0x20 ADD PUSH1 0x40 MLOAD SWAP1 DUP2 ADD PUSH1 0x40 MSTORE DUP1 SWAP3 SWAP2 SWAP1 DUP2 DUP2 MSTORE PUSH1 0x20 ADD DUP3 DUP1 SLOAD PUSH2 0x164D SWAP1 PUSH2 0x5938 JUMP JUMPDEST DUP1 ISZERO PUSH2 0x169A JUMPI DUP1 PUSH1 0x1F LT PUSH2 0x166F JUMPI PUSH2 0x100 DUP1 DUP4 SLOAD DIV MUL DUP4 MSTORE SWAP2 PUSH1 0x20 ADD SWAP2 PUSH2 0x169A JUMP JUMPDEST DUP3 ADD SWAP2 SWAP1 PUSH1 0x0 MSTORE PUSH1 0x20 PUSH1 0x0 KECCAK256 SWAP1 JUMPDEST DUP2 SLOAD DUP2 MSTORE SWAP1 PUSH1 0x1 ADD SWAP1 PUSH1 0x20 ADD DUP1 DUP4 GT PUSH2 0x167D JUMPI DUP3 SWAP1 SUB PUSH1 0x1F AND DUP3 ADD SWAP2 JUMPDEST POP POP POP POP POP SWAP1 POP SWAP1 JUMP JUMPDEST PUSH1 0x0 DUP1 JUMPDEST PUSH2 0x16B1 DUP4 PUSH2 0x28CE JUMP JUMPDEST DUP2 LT ISZERO PUSH2 0x16E3 JUMPI PUSH2 0x16C5 PUSH2 0x6A5 DUP5 DUP4 PUSH2 0x2E48 JUMP JUMPDEST PUSH2 0x16CF SWAP1 DUP4 PUSH2 0x5798 JUMP JUMPDEST SWAP2 POP DUP1 PUSH2 0x16DB DUP2 PUSH2 0x596D JUMP JUMPDEST SWAP2 POP POP PUSH2 0x16A8 JUMP JUMPDEST POP SWAP2 SWAP1 POP JUMP JUMPDEST PUSH1 0x0 PUSH2 0x16F4 DUP3 PUSH2 0x3340 JUMP JUMPDEST PUSH2 0x1755 JUMPI PUSH1 0x40 MLOAD PUSH3 0x461BCD PUSH1 0xE5 SHL DUP2 MSTORE PUSH1 0x20 PUSH1 0x4 DUP3 ADD MSTORE PUSH1 0x2C PUSH1 0x24 DUP3 ADD MSTORE PUSH32 0x4552433732313A20617070726F76656420717565727920666F72206E6F6E6578 PUSH1 0x44 DUP3 ADD MSTORE PUSH12 0x34B9BA32B73A103A37B5B2B7 PUSH1 0xA1 SHL PUSH1 0x64 DUP3 ADD MSTORE PUSH1 0x84 ADD PUSH2 0x7FC JUMP JUMPDEST POP PUSH1 0x0 SWAP1 DUP2 MSTORE PUSH1 0x4 PUSH1 0x20 MSTORE PUSH1 0x40 SWAP1 KECCAK256 SLOAD PUSH1 0x1 PUSH1 0x1 PUSH1 0xA0 SHL SUB AND SWAP1 JUMP JUMPDEST PUSH1 0x0 PUSH2 0x177C DUP3 PUSH2 0x201D JUMP JUMPDEST SWAP1 POP DUP1 PUSH1 0x1 PUSH1 0x1 PUSH1 0xA0 SHL SUB AND DUP4 PUSH1 0x1 PUSH1 0x1 PUSH1 0xA0 SHL SUB AND EQ ISZERO PUSH2 0x17EA JUMPI PUSH1 0x40 MLOAD PUSH3 0x461BCD PUSH1 0xE5 SHL DUP2 MSTORE PUSH1 0x20 PUSH1 0x4 DUP3 ADD MSTORE PUSH1 0x21 PUSH1 0x24 DUP3 ADD MSTORE PUSH32 0x4552433732313A20617070726F76616C20746F2063757272656E74206F776E65 PUSH1 0x44 DUP3 ADD MSTORE PUSH1 0x39 PUSH1 0xF9 SHL PUSH1 0x64 DUP3 ADD MSTORE PUSH1 0x84 ADD PUSH2 0x7FC JUMP JUMPDEST CALLER PUSH1 0x1 PUSH1 0x1 PUSH1 0xA0 SHL SUB DUP3 AND EQ DUP1 PUSH2 0x1806 JUMPI POP PUSH2 0x1806 DUP2 CALLER PUSH2 0x2ED1 JUMP JUMPDEST PUSH2 0x1873 JUMPI PUSH1 0x40 MLOAD PUSH3 0x461BCD PUSH1 0xE5 SHL DUP2 MSTORE PUSH1 0x20 PUSH1 0x4 DUP3 ADD MSTORE PUSH1 0x38 PUSH1 0x24 DUP3 ADD MSTORE PUSH32 0x4552433732313A20617070726F76652063616C6C6572206973206E6F74206F77 PUSH1 0x44 DUP3 ADD MSTORE PUSH24 0x1B995C881B9BDC88185C1C1C9BDD995908199BDC88185B1B PUSH1 0x42 SHL PUSH1 0x64 DUP3 ADD MSTORE PUSH1 0x84 ADD PUSH2 0x7FC JUMP JUMPDEST PUSH2 0x187D DUP4 DUP4 PUSH2 0x335D JUMP JUMPDEST POP POP POP JUMP JUMPDEST PUSH2 0x188C CALLER DUP3 PUSH2 0x33CB JUMP JUMPDEST PUSH2 0x18A8 JUMPI PUSH1 0x40 MLOAD PUSH3 0x461BCD PUSH1 0xE5 SHL DUP2 MSTORE PUSH1 0x4 ADD PUSH2 0x7FC SWAP1 PUSH2 0x563A JUMP JUMPDEST PUSH2 0x187D DUP4 DUP4 DUP4 PUSH2 0x3495 JUMP JUMPDEST PUSH1 0x0 SWAP1 DUP2 MSTORE PUSH1 0x8 PUSH1 0x20 MSTORE PUSH1 0x40 SWAP1 KECCAK256 PUSH1 0x1 ADD SLOAD SWAP1 JUMP JUMPDEST PUSH1 0x0 SWAP1 DUP2 MSTORE PUSH1 0xA PUSH1 0x20 MSTORE PUSH1 0x40 SWAP1 KECCAK256 SLOAD SWAP1 JUMP JUMPDEST PUSH2 0x18E3 DUP3 PUSH2 0x18B3 JUMP JUMPDEST PUSH2 0x18ED DUP2 CALLER PUSH2 0x362E JUMP JUMPDEST PUSH2 0x187D DUP4 DUP4 PUSH2 0x3692 JUMP JUMPDEST PUSH1 0x1 PUSH1 0x1 PUSH1 0xA0 SHL SUB DUP2 AND CALLER EQ PUSH2 0x1967 JUMPI PUSH1 0x40 MLOAD PUSH3 0x461BCD PUSH1 0xE5 SHL DUP2 MSTORE PUSH1 0x20 PUSH1 0x4 DUP3 ADD MSTORE PUSH1 0x2F PUSH1 0x24 DUP3 ADD MSTORE PUSH32 0x416363657373436F6E74726F6C3A2063616E206F6E6C792072656E6F756E6365 PUSH1 0x44 DUP3 ADD MSTORE PUSH15 0x103937B632B9903337B91039B2B633 PUSH1 0x89 SHL PUSH1 0x64 DUP3 ADD MSTORE PUSH1 0x84 ADD PUSH2 0x7FC JUMP JUMPDEST PUSH2 0x1971 DUP3 DUP3 PUSH2 0x3718 JUMP JUMPDEST POP POP JUMP JUMPDEST PUSH1 0x0 DUP2 DUP2 MSTORE PUSH1 0x14 PUSH1 0x20 MSTORE PUSH1 0x40 DUP2 KECCAK256 PUSH1 0x1 DUP2 SLOAD PUSH1 0xFF AND PUSH1 0x3 DUP2 GT ISZERO PUSH2 0x19A9 JUMPI PUSH4 0x4E487B71 PUSH1 0xE0 SHL PUSH1 0x0 MSTORE PUSH1 0x21 PUSH1 0x4 MSTORE PUSH1 0x24 PUSH1 0x0 REVERT JUMPDEST EQ PUSH2 0x19DC JUMPI PUSH1 0x40 MLOAD PUSH3 0x461BCD PUSH1 0xE5 SHL DUP2 MSTORE PUSH1 0x20 PUSH1 0x4 DUP3 ADD MSTORE PUSH1 0x3 PUSH1 0x24 DUP3 ADD MSTORE PUSH3 0x13CC4D PUSH1 0xEA SHL PUSH1 0x44 DUP3 ADD MSTORE PUSH1 0x64 ADD PUSH2 0x7FC JUMP JUMPDEST PUSH1 0x5 DUP2 ADD SLOAD PUSH1 0x0 SWAP1 DUP2 MSTORE PUSH1 0x17 PUSH1 0x20 MSTORE PUSH1 0x40 SWAP1 KECCAK256 SLOAD DUP1 PUSH2 0x1A0D JUMPI PUSH1 0x40 MLOAD PUSH3 0x461BCD PUSH1 0xE5 SHL DUP2 MSTORE PUSH1 0x4 ADD PUSH2 0x7FC SWAP1 PUSH2 0x55CC JUMP JUMPDEST PUSH1 0x12 SLOAD PUSH1 0x40 MLOAD PUSH4 0x3906D29 PUSH1 0xE1 SHL DUP2 MSTORE PUSH1 0x4 DUP2 ADD DUP4 SWAP1 MSTORE PUSH1 0x0 SWAP2 PUSH1 0x1 PUSH1 0x1 PUSH1 0xA0 SHL SUB AND SWAP1 PUSH4 0x720DA52 SWAP1 PUSH1 0x24 ADD PUSH1 0x40 DUP1 MLOAD DUP1 DUP4 SUB DUP2 DUP7 DUP1 EXTCODESIZE ISZERO DUP1 ISZERO PUSH2 0x1A51 JUMPI PUSH1 0x0 DUP1 REVERT JUMPDEST POP GAS STATICCALL ISZERO DUP1 ISZERO PUSH2 0x1A65 JUMPI RETURNDATASIZE PUSH1 0x0 DUP1 RETURNDATACOPY RETURNDATASIZE PUSH1 0x0 REVERT JUMPDEST POP POP POP POP PUSH1 0x40 MLOAD RETURNDATASIZE PUSH1 0x1F NOT PUSH1 0x1F DUP3 ADD AND DUP3 ADD DUP1 PUSH1 0x40 MSTORE POP DUP2 ADD SWAP1 PUSH2 0x1A89 SWAP2 SWAP1 PUSH2 0x52B5 JUMP JUMPDEST SWAP2 POP POP PUSH1 0x2 DUP4 PUSH1 0x3 ADD SLOAD PUSH2 0x1A9D SWAP2 SWAP1 PUSH2 0x57B0 JUMP JUMPDEST SWAP4 POP PUSH1 0x2 PUSH1 0x6 DUP5 ADD SLOAD PUSH1 0xFF AND PUSH1 0x2 DUP2 GT ISZERO PUSH2 0x1AC8 JUMPI PUSH4 0x4E487B71 PUSH1 0xE0 SHL PUSH1 0x0 MSTORE PUSH1 0x21 PUSH1 0x4 MSTORE PUSH1 0x24 PUSH1 0x0 REVERT JUMPDEST EQ ISZERO PUSH2 0x1B42 JUMPI DUP1 DUP4 PUSH1 0x1 ADD SLOAD LT PUSH2 0x1B07 JUMPI PUSH1 0x40 MLOAD PUSH3 0x461BCD PUSH1 0xE5 SHL DUP2 MSTORE PUSH1 0x20 PUSH1 0x4 DUP3 ADD MSTORE PUSH1 0x3 PUSH1 0x24 DUP3 ADD MSTORE PUSH3 0x4F3137 PUSH1 0xE8 SHL PUSH1 0x44 DUP3 ADD MSTORE PUSH1 0x64 ADD PUSH2 0x7FC JUMP JUMPDEST DUP1 DUP4 PUSH1 0x2 ADD SLOAD DUP5 PUSH1 0x1 ADD SLOAD DUP4 PUSH2 0x1B1D SWAP2 SWAP1 PUSH2 0x58DE JUMP JUMPDEST PUSH2 0x1B27 SWAP2 SWAP1 PUSH2 0x58BF JUMP JUMPDEST PUSH2 0x1B31 SWAP2 SWAP1 PUSH2 0x57B0 JUMP JUMPDEST PUSH2 0x1B3B SWAP1 DUP6 PUSH2 0x5798 JUMP JUMPDEST SWAP4 POP PUSH2 0x1BB2 JUMP JUMPDEST DUP1 DUP4 PUSH1 0x1 ADD SLOAD GT PUSH2 0x1B7B JUMPI PUSH1 0x40 MLOAD PUSH3 0x461BCD PUSH1 0xE5 SHL DUP2 MSTORE PUSH1 0x20 PUSH1 0x4 DUP3 ADD MSTORE PUSH1 0x3 PUSH1 0x24 DUP3 ADD MSTORE PUSH3 0x9E627 PUSH1 0xEB SHL PUSH1 0x44 DUP3 ADD MSTORE PUSH1 0x64 ADD PUSH2 0x7FC JUMP JUMPDEST DUP1 DUP4 PUSH1 0x2 ADD SLOAD DUP3 DUP6 PUSH1 0x1 ADD SLOAD PUSH2 0x1B91 SWAP2 SWAP1 PUSH2 0x58DE JUMP JUMPDEST PUSH2 0x1B9B SWAP2 SWAP1 PUSH2 0x58BF JUMP JUMPDEST PUSH2 0x1BA5 SWAP2 SWAP1 PUSH2 0x57B0 JUMP JUMPDEST PUSH2 0x1BAF SWAP1 DUP6 PUSH2 0x5798 JUMP JUMPDEST SWAP4 POP JUMPDEST DUP3 PUSH1 0x3 ADD SLOAD DUP5 GT ISZERO PUSH2 0x1BC6 JUMPI DUP3 PUSH1 0x3 ADD SLOAD SWAP4 POP JUMPDEST POP POP POP SWAP2 SWAP1 POP JUMP JUMPDEST PUSH2 0x1BD7 DUP3 PUSH2 0x201D JUMP JUMPDEST PUSH1 0x1 PUSH1 0x1 PUSH1 0xA0 SHL SUB AND CALLER PUSH1 0x1 PUSH1 0x1 PUSH1 0xA0 SHL SUB AND EQ PUSH2 0x1C07 JUMPI PUSH1 0x40 MLOAD PUSH3 0x461BCD PUSH1 0xE5 SHL DUP2 MSTORE PUSH1 0x4 ADD PUSH2 0x7FC SWAP1 PUSH2 0x555E JUMP JUMPDEST PUSH2 0x187D DUP4 DUP4 DUP4 PUSH2 0x377F JUMP JUMPDEST PUSH2 0x187D DUP4 DUP4 DUP4 PUSH1 0x40 MLOAD DUP1 PUSH1 0x20 ADD PUSH1 0x40 MSTORE DUP1 PUSH1 0x0 DUP2 MSTORE POP PUSH2 0x2AA6 JUMP JUMPDEST PUSH2 0x1C36 DUP2 PUSH2 0x201D JUMP JUMPDEST PUSH1 0x1 PUSH1 0x1 PUSH1 0xA0 SHL SUB AND CALLER PUSH1 0x1 PUSH1 0x1 PUSH1 0xA0 SHL SUB AND EQ PUSH2 0x1C66 JUMPI PUSH1 0x40 MLOAD PUSH3 0x461BCD PUSH1 0xE5 SHL DUP2 MSTORE PUSH1 0x4 ADD PUSH2 0x7FC SWAP1 PUSH2 0x555E JUMP JUMPDEST PUSH2 0x1C6F DUP2 PUSH2 0x3844 JUMP JUMPDEST POP JUMP JUMPDEST PUSH2 0x1C7B DUP3 PUSH2 0x1D94 JUMP JUMPDEST PUSH2 0x1CAD JUMPI PUSH1 0x40 MLOAD PUSH3 0x461BCD PUSH1 0xE5 SHL DUP2 MSTORE PUSH1 0x20 PUSH1 0x4 DUP3 ADD MSTORE PUSH1 0x3 PUSH1 0x24 DUP3 ADD MSTORE PUSH3 0x271899 PUSH1 0xE9 SHL PUSH1 0x44 DUP3 ADD MSTORE PUSH1 0x64 ADD PUSH2 0x7FC JUMP JUMPDEST PUSH1 0x0 DUP1 PUSH1 0x0 PUSH2 0x1CBC DUP7 DUP6 PUSH2 0x385C JUMP JUMPDEST POP SWAP3 POP SWAP3 POP SWAP3 POP PUSH1 0x0 PUSH2 0x1CCE DUP7 PUSH2 0x3989 JUMP JUMPDEST SWAP1 POP PUSH2 0x1D0A DUP7 DUP3 DUP5 DUP5 PUSH1 0x60 ADD MLOAD PUSH2 0x1CE5 SWAP2 SWAP1 PUSH2 0x5798 JUMP JUMPDEST DUP8 DUP6 PUSH1 0x40 ADD MLOAD PUSH2 0x1CF5 SWAP2 SWAP1 PUSH2 0x5798 JUMP JUMPDEST DUP8 DUP7 PUSH1 0x80 ADD MLOAD PUSH2 0x1D05 SWAP2 SWAP1 PUSH2 0x5798 JUMP JUMPDEST PUSH2 0x3A78 JUMP JUMPDEST PUSH1 0x15 SLOAD PUSH1 0x60 DUP3 ADD MLOAD PUSH1 0x80 DUP4 ADD MLOAD PUSH1 0x40 MLOAD PUSH4 0x57A5C967 PUSH1 0xE0 SHL DUP2 MSTORE SWAP4 SWAP5 POP PUSH1 0x1 PUSH1 0x1 PUSH1 0xA0 SHL SUB SWAP1 SWAP3 AND SWAP3 PUSH4 0x57A5C967 SWAP3 PUSH2 0x1D4A SWAP3 DUP12 SWAP3 SWAP1 SWAP2 SWAP1 PUSH1 0x4 ADD PUSH2 0x5738 JUMP JUMPDEST PUSH1 0x0 PUSH1 0x40 MLOAD DUP1 DUP4 SUB DUP2 PUSH1 0x0 DUP8 DUP1 EXTCODESIZE ISZERO DUP1 ISZERO PUSH2 0x1D64 JUMPI PUSH1 0x0 DUP1 REVERT JUMPDEST POP GAS CALL ISZERO DUP1 ISZERO PUSH2 0x1D78 JUMPI RETURNDATASIZE PUSH1 0x0 DUP1 RETURNDATACOPY RETURNDATASIZE PUSH1 0x0 REVERT JUMPDEST POP POP POP POP PUSH2 0x1D89 DUP10 DUP10 DUP10 DUP10 DUP10 PUSH2 0x3AAA JUMP JUMPDEST POP POP POP POP POP POP POP POP POP JUMP JUMPDEST PUSH1 0x0 PUSH2 0x160C DUP3 PUSH2 0x3340 JUMP JUMPDEST PUSH1 0x0 DUP2 DUP2 MSTORE PUSH1 0x14 PUSH1 0x20 MSTORE PUSH1 0x40 SWAP1 KECCAK256 PUSH1 0x5 DUP2 ADD SLOAD TIMESTAMP LT ISZERO PUSH2 0x1DD1 JUMPI PUSH1 0x40 MLOAD PUSH3 0x461BCD PUSH1 0xE5 SHL DUP2 MSTORE PUSH1 0x4 ADD PUSH2 0x7FC SWAP1 PUSH2 0x56A7 JUMP JUMPDEST PUSH1 0x1 DUP2 SLOAD PUSH1 0xFF AND PUSH1 0x3 DUP2 GT ISZERO PUSH2 0x1DF7 JUMPI PUSH4 0x4E487B71 PUSH1 0xE0 SHL PUSH1 0x0 MSTORE PUSH1 0x21 PUSH1 0x4 MSTORE PUSH1 0x24 PUSH1 0x0 REVERT JUMPDEST EQ PUSH2 0x1E29 JUMPI PUSH1 0x40 MLOAD PUSH3 0x461BCD PUSH1 0xE5 SHL DUP2 MSTORE PUSH1 0x20 PUSH1 0x4 DUP3 ADD MSTORE PUSH1 0x2 PUSH1 0x24 DUP3 ADD MSTORE PUSH2 0x4F35 PUSH1 0xF0 SHL PUSH1 0x44 DUP3 ADD MSTORE PUSH1 0x64 ADD PUSH2 0x7FC JUMP JUMPDEST PUSH1 0x5 DUP2 ADD SLOAD PUSH1 0x0 SWAP1 DUP2 MSTORE PUSH1 0x17 PUSH1 0x20 MSTORE PUSH1 0x40 SWAP1 KECCAK256 SLOAD DUP1 PUSH2 0x1E5A JUMPI PUSH1 0x40 MLOAD PUSH3 0x461BCD PUSH1 0xE5 SHL DUP2 MSTORE PUSH1 0x4 ADD PUSH2 0x7FC SWAP1 PUSH2 0x55CC JUMP JUMPDEST PUSH1 0x12 SLOAD PUSH1 0x40 MLOAD PUSH4 0x3906D29 PUSH1 0xE1 SHL DUP2 MSTORE PUSH1 0x4 DUP2 ADD DUP4 SWAP1 MSTORE PUSH1 0x0 SWAP2 PUSH1 0x1 PUSH1 0x1 PUSH1 0xA0 SHL SUB AND SWAP1 PUSH4 0x720DA52 SWAP1 PUSH1 0x24 ADD PUSH1 0x40 DUP1 MLOAD DUP1 DUP4 SUB DUP2 DUP7 DUP1 EXTCODESIZE ISZERO DUP1 ISZERO PUSH2 0x1E9E JUMPI PUSH1 0x0 DUP1 REVERT JUMPDEST POP GAS STATICCALL ISZERO DUP1 ISZERO PUSH2 0x1EB2 JUMPI RETURNDATASIZE PUSH1 0x0 DUP1 RETURNDATACOPY RETURNDATASIZE PUSH1 0x0 REVERT JUMPDEST POP POP POP POP PUSH1 0x40 MLOAD RETURNDATASIZE PUSH1 0x1F NOT PUSH1 0x1F DUP3 ADD AND DUP3 ADD DUP1 PUSH1 0x40 MSTORE POP DUP2 ADD SWAP1 PUSH2 0x1ED6 SWAP2 SWAP1 PUSH2 0x52B5 JUMP JUMPDEST SWAP2 POP PUSH1 0x2 SWAP1 POP PUSH1 0x6 DUP5 ADD SLOAD PUSH1 0xFF AND PUSH1 0x2 DUP2 GT ISZERO PUSH2 0x1F03 JUMPI PUSH4 0x4E487B71 PUSH1 0xE0 SHL PUSH1 0x0 MSTORE PUSH1 0x21 PUSH1 0x4 MSTORE PUSH1 0x24 PUSH1 0x0 REVERT JUMPDEST EQ DUP1 ISZERO PUSH2 0x1F13 JUMPI POP DUP3 PUSH1 0x1 ADD SLOAD DUP2 GT JUMPDEST DUP1 PUSH2 0x1F52 JUMPI POP PUSH1 0x1 PUSH1 0x6 DUP5 ADD SLOAD PUSH1 0xFF AND PUSH1 0x2 DUP2 GT ISZERO PUSH2 0x1F42 JUMPI PUSH4 0x4E487B71 PUSH1 0xE0 SHL PUSH1 0x0 MSTORE PUSH1 0x21 PUSH1 0x4 MSTORE PUSH1 0x24 PUSH1 0x0 REVERT JUMPDEST EQ DUP1 ISZERO PUSH2 0x1F52 JUMPI POP DUP3 PUSH1 0x1 ADD SLOAD DUP2 LT JUMPDEST ISZERO PUSH2 0x1F66 JUMPI PUSH2 0x1F60 DUP5 PUSH2 0x28E5 JUMP JUMPDEST POP PUSH2 0x2017 JUMP JUMPDEST DUP3 SLOAD PUSH1 0xFF NOT AND PUSH1 0x3 OR DUP4 SSTORE PUSH1 0x15 SLOAD PUSH1 0x40 MLOAD PUSH4 0x6198E339 PUSH1 0xE0 SHL DUP2 MSTORE PUSH1 0x4 DUP2 ADD DUP7 SWAP1 MSTORE PUSH1 0x1 PUSH1 0x1 PUSH1 0xA0 SHL SUB SWAP1 SWAP2 AND SWAP1 PUSH4 0x6198E339 SWAP1 PUSH1 0x24 ADD PUSH1 0x0 PUSH1 0x40 MLOAD DUP1 DUP4 SUB DUP2 PUSH1 0x0 DUP8 DUP1 EXTCODESIZE ISZERO DUP1 ISZERO PUSH2 0x1FB7 JUMPI PUSH1 0x0 DUP1 REVERT JUMPDEST POP GAS CALL ISZERO DUP1 ISZERO PUSH2 0x1FCB JUMPI RETURNDATASIZE PUSH1 0x0 DUP1 RETURNDATACOPY RETURNDATASIZE PUSH1 0x0 REVERT JUMPDEST POP POP POP POP PUSH2 0x1FD8 DUP5 PUSH2 0x3844 JUMP JUMPDEST DUP4 PUSH32 0x5F36A4A575E512EB69D6D28C3B0FF98CCA7BA50AD5BF04E14094AD1D425E0D31 DUP5 PUSH1 0x4 ADD SLOAD PUSH1 0x40 MLOAD PUSH2 0x200E SWAP2 DUP2 MSTORE PUSH1 0x20 ADD SWAP1 JUMP JUMPDEST PUSH1 0x40 MLOAD DUP1 SWAP2 SUB SWAP1 LOG2 JUMPDEST POP POP POP POP JUMP JUMPDEST PUSH1 0x0 DUP2 DUP2 MSTORE PUSH1 0x2 PUSH1 0x20 MSTORE PUSH1 0x40 DUP2 KECCAK256 SLOAD PUSH1 0x1 PUSH1 0x1 PUSH1 0xA0 SHL SUB AND DUP1 PUSH2 0x160C JUMPI PUSH1 0x40 MLOAD PUSH3 0x461BCD PUSH1 0xE5 SHL DUP2 MSTORE PUSH1 0x20 PUSH1 0x4 DUP3 ADD MSTORE PUSH1 0x29 PUSH1 0x24 DUP3 ADD MSTORE PUSH32 0x4552433732313A206F776E657220717565727920666F72206E6F6E6578697374 PUSH1 0x44 DUP3 ADD MSTORE PUSH9 0x32B73A103A37B5B2B7 PUSH1 0xB9 SHL PUSH1 0x64 DUP3 ADD MSTORE PUSH1 0x84 ADD PUSH2 0x7FC JUMP JUMPDEST PUSH1 0x60 DUP2 PUSH2 0x20C8 JUMPI PUSH1 0x40 MLOAD PUSH3 0x461BCD PUSH1 0xE5 SHL DUP2 MSTORE PUSH1 0x20 PUSH1 0x4 DUP3 ADD MSTORE PUSH1 0x2 PUSH1 0x24 DUP3 ADD MSTORE PUSH2 0x4E31 PUSH1 0xF0 SHL PUSH1 0x44 DUP3 ADD MSTORE PUSH1 0x64 ADD PUSH2 0x7FC JUMP JUMPDEST DUP2 PUSH1 0x1 PUSH1 0x1 PUSH1 0x40 SHL SUB DUP2 GT ISZERO PUSH2 0x20EE JUMPI PUSH4 0x4E487B71 PUSH1 0xE0 SHL PUSH1 0x0 MSTORE PUSH1 0x41 PUSH1 0x4 MSTORE PUSH1 0x24 PUSH1 0x0 REVERT JUMPDEST PUSH1 0x40 MLOAD SWAP1 DUP1 DUP3 MSTORE DUP1 PUSH1 0x20 MUL PUSH1 0x20 ADD DUP3 ADD PUSH1 0x40 MSTORE DUP1 ISZERO PUSH2 0x2117 JUMPI DUP2 PUSH1 0x20 ADD PUSH1 0x20 DUP3 MUL DUP1 CALLDATASIZE DUP4 CALLDATACOPY ADD SWAP1 POP JUMPDEST POP SWAP1 POP PUSH1 0x0 PUSH2 0x2125 DUP6 PUSH2 0x3989 JUMP JUMPDEST SWAP1 POP PUSH1 0x0 PUSH2 0x2132 DUP7 PUSH2 0x2CE8 JUMP JUMPDEST SWAP1 POP PUSH1 0x0 DUP1 DUP1 DUP1 JUMPDEST DUP8 DUP2 LT ISZERO PUSH2 0x2345 JUMPI PUSH1 0x0 PUSH2 0x214C PUSH2 0x3073 JUMP JUMPDEST SWAP1 POP DUP1 DUP9 DUP4 DUP2 MLOAD DUP2 LT PUSH2 0x216F JUMPI PUSH4 0x4E487B71 PUSH1 0xE0 SHL PUSH1 0x0 MSTORE PUSH1 0x32 PUSH1 0x4 MSTORE PUSH1 0x24 PUSH1 0x0 REVERT JUMPDEST PUSH1 0x20 MUL PUSH1 0x20 ADD ADD DUP2 DUP2 MSTORE POP POP PUSH2 0x21AC DUP12 DUP3 DUP13 DUP13 DUP7 DUP2 DUP2 LT PUSH2 0x21A0 JUMPI PUSH4 0x4E487B71 PUSH1 0xE0 SHL PUSH1 0x0 MSTORE PUSH1 0x32 PUSH1 0x4 MSTORE PUSH1 0x24 PUSH1 0x0 REVERT JUMPDEST SWAP1 POP PUSH1 0x20 MUL ADD CALLDATALOAD PUSH2 0x3CF0 JUMP JUMPDEST PUSH1 0x0 DUP7 DUP12 DUP12 DUP6 DUP2 DUP2 LT PUSH2 0x21CF JUMPI PUSH4 0x4E487B71 PUSH1 0xE0 SHL PUSH1 0x0 MSTORE PUSH1 0x32 PUSH1 0x4 MSTORE PUSH1 0x24 PUSH1 0x0 REVERT JUMPDEST SWAP1 POP PUSH1 0x20 MUL ADD CALLDATALOAD DUP10 PUSH1 0x40 ADD MLOAD PUSH2 0x21E5 SWAP2 SWAP1 PUSH2 0x58BF JUMP JUMPDEST PUSH2 0x21EF SWAP2 SWAP1 PUSH2 0x57B0 JUMP JUMPDEST SWAP1 POP PUSH2 0x21FB DUP2 DUP8 PUSH2 0x5798 JUMP JUMPDEST SWAP6 POP PUSH1 0x0 DUP8 DUP13 DUP13 DUP7 DUP2 DUP2 LT PUSH2 0x2220 JUMPI PUSH4 0x4E487B71 PUSH1 0xE0 SHL PUSH1 0x0 MSTORE PUSH1 0x32 PUSH1 0x4 MSTORE PUSH1 0x24 PUSH1 0x0 REVERT JUMPDEST SWAP1 POP PUSH1 0x20 MUL ADD CALLDATALOAD DUP11 PUSH1 0x60 ADD MLOAD PUSH2 0x2236 SWAP2 SWAP1 PUSH2 0x58BF JUMP JUMPDEST PUSH2 0x2240 SWAP2 SWAP1 PUSH2 0x57B0 JUMP JUMPDEST SWAP1 POP PUSH2 0x224C DUP2 DUP8 PUSH2 0x5798 JUMP JUMPDEST SWAP6 POP PUSH1 0x0 DUP9 DUP14 DUP14 DUP8 DUP2 DUP2 LT PUSH2 0x2271 JUMPI PUSH4 0x4E487B71 PUSH1 0xE0 SHL PUSH1 0x0 MSTORE PUSH1 0x32 PUSH1 0x4 MSTORE PUSH1 0x24 PUSH1 0x0 REVERT JUMPDEST SWAP1 POP PUSH1 0x20 MUL ADD CALLDATALOAD DUP12 PUSH1 0x80 ADD MLOAD PUSH2 0x2287 SWAP2 SWAP1 PUSH2 0x58BF JUMP JUMPDEST PUSH2 0x2291 SWAP2 SWAP1 PUSH2 0x57B0 JUMP JUMPDEST SWAP1 POP PUSH2 0x229D DUP2 DUP8 PUSH2 0x5798 JUMP JUMPDEST SWAP6 POP PUSH1 0x0 PUSH1 0x40 MLOAD DUP1 PUSH1 0xE0 ADD PUSH1 0x40 MSTORE DUP1 DUP13 PUSH1 0x0 ADD MLOAD PUSH1 0x3 DUP2 GT ISZERO PUSH2 0x22D0 JUMPI PUSH4 0x4E487B71 PUSH1 0xE0 SHL PUSH1 0x0 MSTORE PUSH1 0x21 PUSH1 0x4 MSTORE PUSH1 0x24 PUSH1 0x0 REVERT JUMPDEST DUP2 MSTORE PUSH1 0x20 ADD DUP13 PUSH1 0x20 ADD MLOAD DUP2 MSTORE PUSH1 0x20 ADD DUP6 DUP2 MSTORE PUSH1 0x20 ADD DUP5 DUP2 MSTORE PUSH1 0x20 ADD DUP4 DUP2 MSTORE PUSH1 0x20 ADD DUP13 PUSH1 0xA0 ADD MLOAD DUP2 MSTORE PUSH1 0x20 ADD DUP13 PUSH1 0xC0 ADD MLOAD PUSH1 0x2 DUP2 GT ISZERO PUSH2 0x231F JUMPI PUSH4 0x4E487B71 PUSH1 0xE0 SHL PUSH1 0x0 MSTORE PUSH1 0x21 PUSH1 0x4 MSTORE PUSH1 0x24 PUSH1 0x0 REVERT JUMPDEST SWAP1 MSTORE SWAP1 POP PUSH2 0x232D DUP6 DUP3 PUSH2 0x308D JUMP JUMPDEST POP POP POP POP POP DUP1 DUP1 PUSH2 0x233D SWAP1 PUSH2 0x596D JUMP JUMPDEST SWAP2 POP POP PUSH2 0x213A JUMP JUMPDEST POP PUSH2 0x237B DUP10 DUP7 DUP5 DUP9 PUSH1 0x60 ADD MLOAD PUSH2 0x235B SWAP2 SWAP1 PUSH2 0x58DE JUMP JUMPDEST DUP7 DUP10 PUSH1 0x40 ADD MLOAD PUSH2 0x236B SWAP2 SWAP1 PUSH2 0x58DE JUMP JUMPDEST DUP6 DUP11 PUSH1 0x80 ADD MLOAD PUSH2 0x1D05 SWAP2 SWAP1 PUSH2 0x58DE JUMP JUMPDEST PUSH1 0x15 SLOAD PUSH1 0x60 DUP3 ADD MLOAD PUSH1 0x80 DUP4 ADD MLOAD PUSH1 0x40 MLOAD PUSH4 0x57A5C967 PUSH1 0xE0 SHL DUP2 MSTORE SWAP4 SWAP9 POP PUSH1 0x1 PUSH1 0x1 PUSH1 0xA0 SHL SUB SWAP1 SWAP3 AND SWAP3 PUSH4 0x57A5C967 SWAP3 PUSH2 0x23BB SWAP3 DUP15 SWAP3 SWAP1 SWAP2 SWAP1 PUSH1 0x4 ADD PUSH2 0x5738 JUMP JUMPDEST PUSH1 0x0 PUSH1 0x40 MLOAD DUP1 DUP4 SUB DUP2 PUSH1 0x0 DUP8 DUP1 EXTCODESIZE ISZERO DUP1 ISZERO PUSH2 0x23D5 JUMPI PUSH1 0x0 DUP1 REVERT JUMPDEST POP GAS CALL ISZERO DUP1 ISZERO PUSH2 0x23E9 JUMPI RETURNDATASIZE PUSH1 0x0 DUP1 RETURNDATACOPY RETURNDATASIZE PUSH1 0x0 REVERT JUMPDEST POP POP POP POP PUSH1 0x0 JUMPDEST DUP8 DUP2 LT ISZERO PUSH2 0x2479 JUMPI PUSH1 0x0 PUSH2 0x242A DUP9 DUP4 DUP2 MLOAD DUP2 LT PUSH2 0x241D JUMPI PUSH4 0x4E487B71 PUSH1 0xE0 SHL PUSH1 0x0 MSTORE PUSH1 0x32 PUSH1 0x4 MSTORE PUSH1 0x24 PUSH1 0x0 REVERT JUMPDEST PUSH1 0x20 MUL PUSH1 0x20 ADD ADD MLOAD PUSH2 0x3989 JUMP JUMPDEST SWAP1 POP PUSH2 0x2466 DUP9 DUP4 DUP2 MLOAD DUP2 LT PUSH2 0x244F JUMPI PUSH4 0x4E487B71 PUSH1 0xE0 SHL PUSH1 0x0 MSTORE PUSH1 0x32 PUSH1 0x4 MSTORE PUSH1 0x24 PUSH1 0x0 REVERT JUMPDEST PUSH1 0x20 MUL PUSH1 0x20 ADD ADD MLOAD DUP3 PUSH1 0x60 ADD MLOAD DUP4 PUSH1 0x80 ADD MLOAD PUSH2 0x32B0 JUMP JUMPDEST POP DUP1 PUSH2 0x2471 DUP2 PUSH2 0x596D JUMP JUMPDEST SWAP2 POP POP PUSH2 0x23F0 JUMP JUMPDEST POP POP POP POP POP POP SWAP4 SWAP3 POP POP POP JUMP JUMPDEST PUSH1 0x0 PUSH1 0x1 PUSH1 0x1 PUSH1 0xA0 SHL SUB DUP3 AND PUSH2 0x24F1 JUMPI PUSH1 0x40 MLOAD PUSH3 0x461BCD PUSH1 0xE5 SHL DUP2 MSTORE PUSH1 0x20 PUSH1 0x4 DUP3 ADD MSTORE PUSH1 0x2A PUSH1 0x24 DUP3 ADD MSTORE PUSH32 0x4552433732313A2062616C616E636520717565727920666F7220746865207A65 PUSH1 0x44 DUP3 ADD MSTORE PUSH10 0x726F2061646472657373 PUSH1 0xB0 SHL PUSH1 0x64 DUP3 ADD MSTORE PUSH1 0x84 ADD PUSH2 0x7FC JUMP JUMPDEST POP PUSH1 0x1 PUSH1 0x1 PUSH1 0xA0 SHL SUB AND PUSH1 0x0 SWAP1 DUP2 MSTORE PUSH1 0x3 PUSH1 0x20 MSTORE PUSH1 0x40 SWAP1 KECCAK256 SLOAD SWAP1 JUMP JUMPDEST CALLER PUSH2 0x2516 PUSH2 0x2548 JUMP JUMPDEST PUSH1 0x1 PUSH1 0x1 PUSH1 0xA0 SHL SUB AND EQ PUSH2 0x253C JUMPI PUSH1 0x40 MLOAD PUSH3 0x461BCD PUSH1 0xE5 SHL DUP2 MSTORE PUSH1 0x4 ADD PUSH2 0x7FC SWAP1 PUSH2 0x5605 JUMP JUMPDEST PUSH2 0x2546 PUSH1 0x0 PUSH2 0x3E1A JUMP JUMPDEST JUMP JUMPDEST PUSH1 0x6 SLOAD PUSH1 0x1 PUSH1 0x1 PUSH1 0xA0 SHL SUB AND SWAP1 JUMP JUMPDEST PUSH1 0x12 SLOAD PUSH1 0x40 MLOAD PUSH4 0x3906D29 PUSH1 0xE1 SHL DUP2 MSTORE PUSH1 0x4 DUP2 ADD DUP4 SWAP1 MSTORE PUSH1 0x0 SWAP2 DUP3 SWAP2 DUP3 SWAP2 PUSH1 0x1 PUSH1 0x1 PUSH1 0xA0 SHL SUB AND SWAP1 PUSH4 0x720DA52 SWAP1 PUSH1 0x24 ADD PUSH1 0x40 DUP1 MLOAD DUP1 DUP4 SUB DUP2 DUP7 DUP1 EXTCODESIZE ISZERO DUP1 ISZERO PUSH2 0x259F JUMPI PUSH1 0x0 DUP1 REVERT JUMPDEST POP GAS STATICCALL ISZERO DUP1 ISZERO PUSH2 0x25B3 JUMPI RETURNDATASIZE PUSH1 0x0 DUP1 RETURNDATACOPY RETURNDATASIZE PUSH1 0x0 REVERT JUMPDEST POP POP POP POP PUSH1 0x40 MLOAD RETURNDATASIZE PUSH1 0x1F NOT PUSH1 0x1F DUP3 ADD AND DUP3 ADD DUP1 PUSH1 0x40 MSTORE POP DUP2 ADD SWAP1 PUSH2 0x25D7 SWAP2 SWAP1 PUSH2 0x52B5 JUMP JUMPDEST SWAP2 POP SWAP2 POP PUSH1 0x0 PUSH1 0x15 PUSH1 0x0 SWAP1 SLOAD SWAP1 PUSH2 0x100 EXP SWAP1 DIV PUSH1 0x1 PUSH1 0x1 PUSH1 0xA0 SHL SUB AND PUSH1 0x1 PUSH1 0x1 PUSH1 0xA0 SHL SUB AND PUSH4 0xA834069B PUSH1 0x40 MLOAD DUP2 PUSH4 0xFFFFFFFF AND PUSH1 0xE0 SHL DUP2 MSTORE PUSH1 0x4 ADD PUSH1 0x20 PUSH1 0x40 MLOAD DUP1 DUP4 SUB DUP2 DUP7 DUP1 EXTCODESIZE ISZERO DUP1 ISZERO PUSH2 0x262B JUMPI PUSH1 0x0 DUP1 REVERT JUMPDEST POP GAS STATICCALL ISZERO DUP1 ISZERO PUSH2 0x263F JUMPI RETURNDATASIZE PUSH1 0x0 DUP1 RETURNDATACOPY RETURNDATASIZE PUSH1 0x0 REVERT JUMPDEST POP POP POP POP PUSH1 0x40 MLOAD RETURNDATASIZE PUSH1 0x1F NOT PUSH1 0x1F DUP3 ADD AND DUP3 ADD DUP1 PUSH1 0x40 MSTORE POP DUP2 ADD SWAP1 PUSH2 0x2663 SWAP2 SWAP1 PUSH2 0x51DC JUMP JUMPDEST SWAP1 POP DUP3 DUP2 LT PUSH2 0x2699 JUMPI PUSH1 0x40 MLOAD PUSH3 0x461BCD PUSH1 0xE5 SHL DUP2 MSTORE PUSH1 0x20 PUSH1 0x4 DUP3 ADD MSTORE PUSH1 0x2 PUSH1 0x24 DUP3 ADD MSTORE PUSH2 0x4331 PUSH1 0xF0 SHL PUSH1 0x44 DUP3 ADD MSTORE PUSH1 0x64 ADD PUSH2 0x7FC JUMP JUMPDEST PUSH1 0x0 PUSH2 0x26A6 PUSH1 0x1 DUP8 PUSH2 0x58DE JUMP JUMPDEST SWAP1 POP JUMPDEST DUP5 PUSH2 0x27CA JUMPI PUSH1 0x12 SLOAD PUSH1 0x40 MLOAD PUSH4 0x3906D29 PUSH1 0xE1 SHL DUP2 MSTORE PUSH1 0x4 DUP2 ADD DUP4 SWAP1 MSTORE PUSH1 0x0 SWAP2 PUSH1 0x1 PUSH1 0x1 PUSH1 0xA0 SHL SUB AND SWAP1 PUSH4 0x720DA52 SWAP1 PUSH1 0x24 ADD PUSH1 0x40 DUP1 MLOAD DUP1 DUP4 SUB DUP2 DUP7 DUP1 EXTCODESIZE ISZERO DUP1 ISZERO PUSH2 0x26F2 JUMPI PUSH1 0x0 DUP1 REVERT JUMPDEST POP GAS STATICCALL ISZERO DUP1 ISZERO PUSH2 0x2706 JUMPI RETURNDATASIZE PUSH1 0x0 DUP1 RETURNDATACOPY RETURNDATASIZE PUSH1 0x0 REVERT JUMPDEST POP POP POP POP PUSH1 0x40 MLOAD RETURNDATASIZE PUSH1 0x1F NOT PUSH1 0x1F DUP3 ADD AND DUP3 ADD DUP1 PUSH1 0x40 MSTORE POP DUP2 ADD SWAP1 PUSH2 0x272A SWAP2 SWAP1 PUSH2 0x52B5 JUMP JUMPDEST POP SWAP1 POP DUP1 PUSH2 0x2779 JUMPI PUSH1 0x0 DUP3 GT PUSH2 0x2767 JUMPI PUSH1 0x40 MLOAD PUSH3 0x461BCD PUSH1 0xE5 SHL DUP2 MSTORE PUSH1 0x20 PUSH1 0x4 DUP3 ADD MSTORE PUSH1 0x2 PUSH1 0x24 DUP3 ADD MSTORE PUSH2 0x4333 PUSH1 0xF0 SHL PUSH1 0x44 DUP3 ADD MSTORE PUSH1 0x64 ADD PUSH2 0x7FC JUMP JUMPDEST PUSH2 0x2772 PUSH1 0x1 DUP4 PUSH2 0x58DE JUMP JUMPDEST SWAP2 POP PUSH2 0x27C4 JUMP JUMPDEST DUP3 DUP2 GT ISZERO PUSH2 0x27AE JUMPI PUSH1 0x40 MLOAD PUSH3 0x461BCD PUSH1 0xE5 SHL DUP2 MSTORE PUSH1 0x20 PUSH1 0x4 DUP3 ADD MSTORE PUSH1 0x2 PUSH1 0x24 DUP3 ADD MSTORE PUSH2 0x10CD PUSH1 0xF2 SHL PUSH1 0x44 DUP3 ADD MSTORE PUSH1 0x64 ADD PUSH2 0x7FC JUMP JUMPDEST PUSH1 0x0 DUP4 DUP2 MSTORE PUSH1 0x17 PUSH1 0x20 MSTORE PUSH1 0x40 SWAP1 KECCAK256 DUP3 SWAP1 SSTORE PUSH1 0x1 SWAP6 POP JUMPDEST POP PUSH2 0x26A9 JUMP JUMPDEST POP POP POP POP SWAP2 SWAP1 POP JUMP JUMPDEST PUSH1 0x0 SWAP2 DUP3 MSTORE PUSH1 0x8 PUSH1 0x20 SWAP1 DUP2 MSTORE PUSH1 0x40 DUP1 DUP5 KECCAK256 PUSH1 0x1 PUSH1 0x1 PUSH1 0xA0 SHL SUB SWAP4 SWAP1 SWAP4 AND DUP5 MSTORE SWAP2 SWAP1 MSTORE SWAP1 KECCAK256 SLOAD PUSH1 0xFF AND SWAP1 JUMP JUMPDEST PUSH1 0x60 PUSH1 0x1 DUP1 SLOAD PUSH2 0x1621 SWAP1 PUSH2 0x5938 JUMP JUMPDEST PUSH1 0x1 PUSH1 0x1 PUSH1 0xA0 SHL SUB DUP3 AND CALLER EQ ISZERO PUSH2 0x2862 JUMPI PUSH1 0x40 MLOAD PUSH3 0x461BCD PUSH1 0xE5 SHL DUP2 MSTORE PUSH1 0x20 PUSH1 0x4 DUP3 ADD MSTORE PUSH1 0x19 PUSH1 0x24 DUP3 ADD MSTORE PUSH25 0x22A9219B99189D1030B8383937BB32903A379031B0B63632B9 PUSH1 0x39 SHL PUSH1 0x44 DUP3 ADD MSTORE PUSH1 0x64 ADD PUSH2 0x7FC JUMP JUMPDEST CALLER PUSH1 0x0 DUP2 DUP2 MSTORE PUSH1 0x5 PUSH1 0x20 SWAP1 DUP2 MSTORE PUSH1 0x40 DUP1 DUP4 KECCAK256 PUSH1 0x1 PUSH1 0x1 PUSH1 0xA0 SHL SUB DUP8 AND DUP1 DUP6 MSTORE SWAP1 DUP4 MSTORE SWAP3 DUP2 SWAP1 KECCAK256 DUP1 SLOAD PUSH1 0xFF NOT AND DUP7 ISZERO ISZERO SWAP1 DUP2 OR SWAP1 SWAP2 SSTORE SWAP1 MLOAD SWAP1 DUP2 MSTORE SWAP2 SWAP3 SWAP2 PUSH32 0x17307EAB39AB6107E8899845AD3D59BD9653F200F220920489CA2B5937696C31 SWAP2 ADD PUSH1 0x40 MLOAD DUP1 SWAP2 SUB SWAP1 LOG3 POP POP JUMP JUMPDEST PUSH1 0x0 DUP2 DUP2 MSTORE PUSH1 0xC PUSH1 0x20 MSTORE PUSH1 0x40 DUP2 KECCAK256 PUSH2 0x160C SWAP1 PUSH2 0x3E6C JUMP JUMPDEST PUSH1 0x0 PUSH2 0x28F0 DUP3 PUSH2 0x1D94 JUMP JUMPDEST PUSH2 0x2922 JUMPI PUSH1 0x40 MLOAD PUSH3 0x461BCD PUSH1 0xE5 SHL DUP2 MSTORE PUSH1 0x20 PUSH1 0x4 DUP3 ADD MSTORE PUSH1 0x3 PUSH1 0x24 DUP3 ADD MSTORE PUSH3 0x4F313 PUSH1 0xEC SHL PUSH1 0x44 DUP3 ADD MSTORE PUSH1 0x64 ADD PUSH2 0x7FC JUMP JUMPDEST PUSH1 0x15 SLOAD PUSH1 0x40 DUP1 MLOAD PUSH4 0xA834069B PUSH1 0xE0 SHL DUP2 MSTORE SWAP1 MLOAD TIMESTAMP SWAP3 PUSH1 0x1 PUSH1 0x1 PUSH1 0xA0 SHL SUB AND SWAP2 PUSH4 0xA834069B SWAP2 PUSH1 0x4 DUP1 DUP4 ADD SWAP3 PUSH1 0x20 SWAP3 SWAP2 SWAP1 DUP3 SWAP1 SUB ADD DUP2 DUP7 DUP1 EXTCODESIZE ISZERO DUP1 ISZERO PUSH2 0x2966 JUMPI PUSH1 0x0 DUP1 REVERT JUMPDEST POP GAS STATICCALL ISZERO DUP1 ISZERO PUSH2 0x297A JUMPI RETURNDATASIZE PUSH1 0x0 DUP1 RETURNDATACOPY RETURNDATASIZE PUSH1 0x0 REVERT JUMPDEST POP POP POP POP PUSH1 0x40 MLOAD RETURNDATASIZE PUSH1 0x1F NOT PUSH1 0x1F DUP3 ADD AND DUP3 ADD DUP1 PUSH1 0x40 MSTORE POP DUP2 ADD SWAP1 PUSH2 0x299E SWAP2 SWAP1 PUSH2 0x51DC JUMP JUMPDEST GT ISZERO PUSH2 0x29BC JUMPI PUSH1 0x40 MLOAD PUSH3 0x461BCD PUSH1 0xE5 SHL DUP2 MSTORE PUSH1 0x4 ADD PUSH2 0x7FC SWAP1 PUSH2 0x56A7 JUMP JUMPDEST PUSH2 0x29C5 DUP3 PUSH2 0x1975 JUMP JUMPDEST PUSH1 0x15 SLOAD SWAP1 SWAP2 POP PUSH1 0x1 PUSH1 0x1 PUSH1 0xA0 SHL SUB AND PUSH4 0x81B34F15 DUP4 PUSH2 0x29E3 DUP2 PUSH2 0x201D JUMP JUMPDEST PUSH1 0x40 MLOAD PUSH1 0x1 PUSH1 0x1 PUSH1 0xE0 SHL SUB NOT PUSH1 0xE0 DUP6 SWAP1 SHL AND DUP2 MSTORE PUSH1 0x4 DUP2 ADD SWAP3 SWAP1 SWAP3 MSTORE PUSH1 0x1 PUSH1 0x1 PUSH1 0xA0 SHL SUB AND PUSH1 0x24 DUP3 ADD MSTORE PUSH1 0x44 DUP2 ADD DUP5 SWAP1 MSTORE PUSH1 0x64 ADD PUSH1 0x0 PUSH1 0x40 MLOAD DUP1 DUP4 SUB DUP2 PUSH1 0x0 DUP8 DUP1 EXTCODESIZE ISZERO DUP1 ISZERO PUSH2 0x2A31 JUMPI PUSH1 0x0 DUP1 REVERT JUMPDEST POP GAS CALL ISZERO DUP1 ISZERO PUSH2 0x2A45 JUMPI RETURNDATASIZE PUSH1 0x0 DUP1 RETURNDATACOPY RETURNDATASIZE PUSH1 0x0 REVERT JUMPDEST POP POP POP POP PUSH2 0x2A52 DUP3 PUSH2 0x3844 JUMP JUMPDEST PUSH1 0x0 DUP3 DUP2 MSTORE PUSH1 0x14 PUSH1 0x20 SWAP1 DUP2 MSTORE PUSH1 0x40 SWAP2 DUP3 SWAP1 KECCAK256 DUP1 SLOAD PUSH1 0xFF NOT AND PUSH1 0x2 OR DUP2 SSTORE SWAP2 MLOAD DUP4 DUP2 MSTORE DUP5 SWAP2 PUSH31 0x84FE51C7CB34B132B7B6EB5D5A87A489F8D6D284758D00A0402C1BAD9A0DEF SWAP2 ADD PUSH1 0x40 MLOAD DUP1 SWAP2 SUB SWAP1 LOG2 POP SWAP2 SWAP1 POP JUMP JUMPDEST PUSH2 0x2AB1 CALLER JUMPDEST DUP4 PUSH2 0x33CB JUMP JUMPDEST PUSH2 0x2ACD JUMPI PUSH1 0x40 MLOAD PUSH3 0x461BCD PUSH1 0xE5 SHL DUP2 MSTORE PUSH1 0x4 ADD PUSH2 0x7FC SWAP1 PUSH2 0x563A JUMP JUMPDEST PUSH2 0x2017 DUP5 DUP5 DUP5 DUP5 PUSH2 0x3E76 JUMP JUMPDEST DUP2 PUSH2 0x2B0B JUMPI PUSH1 0x40 MLOAD PUSH3 0x461BCD PUSH1 0xE5 SHL DUP2 MSTORE PUSH1 0x20 PUSH1 0x4 DUP3 ADD MSTORE PUSH1 0x2 PUSH1 0x24 DUP3 ADD MSTORE PUSH2 0x138D PUSH1 0xF2 SHL PUSH1 0x44 DUP3 ADD MSTORE PUSH1 0x64 ADD PUSH2 0x7FC JUMP JUMPDEST PUSH1 0x0 PUSH2 0x2B16 DUP3 PUSH2 0x3989 JUMP JUMPDEST PUSH1 0x60 DUP2 ADD MLOAD PUSH1 0x40 DUP3 ADD MLOAD PUSH1 0x80 DUP4 ADD MLOAD SWAP3 SWAP4 POP SWAP1 SWAP2 PUSH1 0x0 JUMPDEST DUP7 DUP2 LT ISZERO PUSH2 0x2C6A JUMPI PUSH1 0x0 PUSH2 0x2B66 DUP10 DUP10 DUP5 DUP2 DUP2 LT PUSH2 0x2B5A JUMPI PUSH4 0x4E487B71 PUSH1 0xE0 SHL PUSH1 0x0 MSTORE PUSH1 0x32 PUSH1 0x4 MSTORE PUSH1 0x24 PUSH1 0x0 REVERT JUMPDEST SWAP1 POP PUSH1 0x20 MUL ADD CALLDATALOAD PUSH2 0x3989 JUMP JUMPDEST SWAP1 POP DUP1 PUSH1 0x60 ADD MLOAD DUP6 PUSH2 0x2B78 SWAP2 SWAP1 PUSH2 0x5798 JUMP JUMPDEST SWAP5 POP DUP1 PUSH1 0x40 ADD MLOAD DUP5 PUSH2 0x2B8A SWAP2 SWAP1 PUSH2 0x5798 JUMP JUMPDEST SWAP4 POP DUP1 PUSH1 0x80 ADD MLOAD DUP4 PUSH2 0x2B9C SWAP2 SWAP1 PUSH2 0x5798 JUMP JUMPDEST PUSH1 0x15 SLOAD SWAP1 SWAP4 POP PUSH1 0x1 PUSH1 0x1 PUSH1 0xA0 SHL SUB AND PUSH4 0xDBF21B0 DUP11 DUP11 DUP6 DUP2 DUP2 LT PUSH2 0x2BD0 JUMPI PUSH4 0x4E487B71 PUSH1 0xE0 SHL PUSH1 0x0 MSTORE PUSH1 0x32 PUSH1 0x4 MSTORE PUSH1 0x24 PUSH1 0x0 REVERT JUMPDEST SWAP1 POP PUSH1 0x20 MUL ADD CALLDATALOAD PUSH1 0x40 MLOAD DUP3 PUSH4 0xFFFFFFFF AND PUSH1 0xE0 SHL DUP2 MSTORE PUSH1 0x4 ADD PUSH2 0x2BF5 SWAP2 DUP2 MSTORE PUSH1 0x20 ADD SWAP1 JUMP JUMPDEST PUSH1 0x0 PUSH1 0x40 MLOAD DUP1 DUP4 SUB DUP2 PUSH1 0x0 DUP8 DUP1 EXTCODESIZE ISZERO DUP1 ISZERO PUSH2 0x2C0F JUMPI PUSH1 0x0 DUP1 REVERT JUMPDEST POP GAS CALL ISZERO DUP1 ISZERO PUSH2 0x2C23 JUMPI RETURNDATASIZE PUSH1 0x0 DUP1 RETURNDATACOPY RETURNDATASIZE PUSH1 0x0 REVERT JUMPDEST POP POP POP POP PUSH2 0x2C57 DUP10 DUP10 DUP5 DUP2 DUP2 LT PUSH2 0x2C4A JUMPI PUSH4 0x4E487B71 PUSH1 0xE0 SHL PUSH1 0x0 MSTORE PUSH1 0x32 PUSH1 0x4 MSTORE PUSH1 0x24 PUSH1 0x0 REVERT JUMPDEST SWAP1 POP PUSH1 0x20 MUL ADD CALLDATALOAD DUP9 PUSH2 0x3EA9 JUMP JUMPDEST POP DUP1 PUSH2 0x2C62 DUP2 PUSH2 0x596D JUMP JUMPDEST SWAP2 POP POP PUSH2 0x2B2D JUMP JUMPDEST POP PUSH2 0x2C78 DUP6 DUP6 DUP6 DUP6 DUP6 PUSH2 0x3A78 JUMP JUMPDEST POP PUSH1 0x15 SLOAD PUSH1 0x40 MLOAD PUSH4 0x57A5C967 PUSH1 0xE0 SHL DUP2 MSTORE PUSH1 0x1 PUSH1 0x1 PUSH1 0xA0 SHL SUB SWAP1 SWAP2 AND SWAP1 PUSH4 0x57A5C967 SWAP1 PUSH2 0x2CAD SWAP1 DUP9 SWAP1 DUP8 SWAP1 DUP7 SWAP1 PUSH1 0x4 ADD PUSH2 0x5738 JUMP JUMPDEST PUSH1 0x0 PUSH1 0x40 MLOAD DUP1 DUP4 SUB DUP2 PUSH1 0x0 DUP8 DUP1 EXTCODESIZE ISZERO DUP1 ISZERO PUSH2 0x2CC7 JUMPI PUSH1 0x0 DUP1 REVERT JUMPDEST POP GAS CALL ISZERO DUP1 ISZERO PUSH2 0x2CDB JUMPI RETURNDATASIZE PUSH1 0x0 DUP1 RETURNDATACOPY RETURNDATASIZE PUSH1 0x0 REVERT JUMPDEST POP POP POP POP POP POP POP POP POP POP POP JUMP JUMPDEST PUSH1 0x0 SWAP1 DUP2 MSTORE PUSH1 0xF PUSH1 0x20 MSTORE PUSH1 0x40 SWAP1 KECCAK256 SLOAD SWAP1 JUMP JUMPDEST PUSH1 0x0 DUP1 PUSH1 0x0 DUP1 PUSH1 0x12 PUSH1 0x0 SWAP1 SLOAD SWAP1 PUSH2 0x100 EXP SWAP1 DIV PUSH1 0x1 PUSH1 0x1 PUSH1 0xA0 SHL SUB AND PUSH1 0x1 PUSH1 0x1 PUSH1 0xA0 SHL SUB AND PUSH4 0x1ACF5582 PUSH1 0x40 MLOAD DUP2 PUSH4 0xFFFFFFFF AND PUSH1 0xE0 SHL DUP2 MSTORE PUSH1 0x4 ADD PUSH1 0x20 PUSH1 0x40 MLOAD DUP1 DUP4 SUB DUP2 DUP7 DUP1 EXTCODESIZE ISZERO DUP1 ISZERO PUSH2 0x2D4E JUMPI PUSH1 0x0 DUP1 REVERT JUMPDEST POP GAS STATICCALL ISZERO DUP1 ISZERO PUSH2 0x2D62 JUMPI RETURNDATASIZE PUSH1 0x0 DUP1 RETURNDATACOPY RETURNDATASIZE PUSH1 0x0 REVERT JUMPDEST POP POP POP POP PUSH1 0x40 MLOAD RETURNDATASIZE PUSH1 0x1F NOT PUSH1 0x1F DUP3 ADD AND DUP3 ADD DUP1 PUSH1 0x40 MSTORE POP DUP2 ADD SWAP1 PUSH2 0x2D86 SWAP2 SWAP1 PUSH2 0x51DC JUMP JUMPDEST PUSH1 0x16 SLOAD PUSH1 0x15 SLOAD PUSH1 0x40 MLOAD PUSH4 0xA5C82875 PUSH1 0xE0 SHL DUP2 MSTORE SWAP3 SWAP4 POP PUSH20 0x0 SWAP3 PUSH4 0xA5C82875 SWAP3 PUSH2 0x2DDC SWAP3 DUP14 SWAP3 DUP14 SWAP3 DUP14 SWAP3 DUP14 SWAP3 DUP11 SWAP3 PUSH1 0x1 PUSH1 0x1 PUSH1 0xA0 SHL SUB SWAP1 DUP2 AND SWAP3 AND SWAP1 PUSH1 0x4 ADD PUSH2 0x574E JUMP JUMPDEST PUSH1 0x60 PUSH1 0x40 MLOAD DUP1 DUP4 SUB DUP2 DUP7 DUP1 EXTCODESIZE ISZERO DUP1 ISZERO PUSH2 0x2DF4 JUMPI PUSH1 0x0 DUP1 REVERT JUMPDEST POP GAS DELEGATECALL ISZERO DUP1 ISZERO PUSH2 0x2E08 JUMPI RETURNDATASIZE PUSH1 0x0 DUP1 RETURNDATACOPY RETURNDATASIZE PUSH1 0x0 REVERT JUMPDEST POP POP POP POP PUSH1 0x40 MLOAD RETURNDATASIZE PUSH1 0x1F NOT PUSH1 0x1F DUP3 ADD AND DUP3 ADD DUP1 PUSH1 0x40 MSTORE POP DUP2 ADD SWAP1 PUSH2 0x2E2C SWAP2 SWAP1 PUSH2 0x52D8 JUMP JUMPDEST SWAP2 SWAP11 SWAP1 SWAP10 POP SWAP1 SWAP8 POP SWAP6 POP POP POP POP POP POP JUMP JUMPDEST PUSH1 0x60 PUSH2 0x160C DUP3 PUSH2 0x4025 JUMP JUMPDEST PUSH1 0x0 DUP3 DUP2 MSTORE PUSH1 0xC PUSH1 0x20 MSTORE PUSH1 0x40 DUP2 KECCAK256 PUSH2 0x2E60 SWAP1 DUP4 PUSH2 0x4187 JUMP JUMPDEST SWAP4 SWAP3 POP POP POP JUMP JUMPDEST PUSH2 0x2E70 DUP3 PUSH2 0x18B3 JUMP JUMPDEST PUSH2 0x2E7A DUP2 CALLER PUSH2 0x362E JUMP JUMPDEST PUSH2 0x187D DUP4 DUP4 PUSH2 0x3718 JUMP JUMPDEST DUP1 PUSH1 0x0 JUMPDEST DUP2 DUP2 LT ISZERO PUSH2 0x2017 JUMPI PUSH2 0x2EBF DUP5 DUP5 DUP4 DUP2 DUP2 LT PUSH2 0x2EB3 JUMPI PUSH4 0x4E487B71 PUSH1 0xE0 SHL PUSH1 0x0 MSTORE PUSH1 0x32 PUSH1 0x4 MSTORE PUSH1 0x24 PUSH1 0x0 REVERT JUMPDEST SWAP1 POP PUSH1 0x20 MUL ADD CALLDATALOAD PUSH2 0x1D9F JUMP JUMPDEST DUP1 PUSH2 0x2EC9 DUP2 PUSH2 0x596D JUMP JUMPDEST SWAP2 POP POP PUSH2 0x2E88 JUMP JUMPDEST PUSH1 0x1 PUSH1 0x1 PUSH1 0xA0 SHL SUB SWAP2 DUP3 AND PUSH1 0x0 SWAP1 DUP2 MSTORE PUSH1 0x5 PUSH1 0x20 SWAP1 DUP2 MSTORE PUSH1 0x40 DUP1 DUP4 KECCAK256 SWAP4 SWAP1 SWAP5 AND DUP3 MSTORE SWAP2 SWAP1 SWAP2 MSTORE KECCAK256 SLOAD PUSH1 0xFF AND SWAP1 JUMP JUMPDEST CALLER PUSH2 0x2F08 PUSH2 0x2548 JUMP JUMPDEST PUSH1 0x1 PUSH1 0x1 PUSH1 0xA0 SHL SUB AND EQ PUSH2 0x2F2E JUMPI PUSH1 0x40 MLOAD PUSH3 0x461BCD PUSH1 0xE5 SHL DUP2 MSTORE PUSH1 0x4 ADD PUSH2 0x7FC SWAP1 PUSH2 0x5605 JUMP JUMPDEST PUSH1 0x1 PUSH1 0x1 PUSH1 0xA0 SHL SUB DUP2 AND PUSH2 0x2F93 JUMPI PUSH1 0x40 MLOAD PUSH3 0x461BCD PUSH1 0xE5 SHL DUP2 MSTORE PUSH1 0x20 PUSH1 0x4 DUP3 ADD MSTORE PUSH1 0x26 PUSH1 0x24 DUP3 ADD MSTORE PUSH32 0x4F776E61626C653A206E6577206F776E657220697320746865207A65726F2061 PUSH1 0x44 DUP3 ADD MSTORE PUSH6 0x646472657373 PUSH1 0xD0 SHL PUSH1 0x64 DUP3 ADD MSTORE PUSH1 0x84 ADD PUSH2 0x7FC JUMP JUMPDEST PUSH2 0x1C6F DUP2 PUSH2 0x3E1A JUMP JUMPDEST PUSH1 0x0 PUSH2 0x2FA6 PUSH2 0x3073 JUMP JUMPDEST SWAP1 POP PUSH1 0x0 DUP1 PUSH1 0x0 DUP1 PUSH2 0x2FB8 DUP8 DUP8 PUSH2 0x385C JUMP JUMPDEST SWAP4 POP SWAP4 POP SWAP4 POP SWAP4 POP PUSH1 0x0 PUSH1 0x40 MLOAD DUP1 PUSH1 0xE0 ADD PUSH1 0x40 MSTORE DUP1 DUP4 PUSH1 0x0 ADD MLOAD PUSH1 0x3 DUP2 GT ISZERO PUSH2 0x2FF1 JUMPI PUSH4 0x4E487B71 PUSH1 0xE0 SHL PUSH1 0x0 MSTORE PUSH1 0x21 PUSH1 0x4 MSTORE PUSH1 0x24 PUSH1 0x0 REVERT JUMPDEST DUP2 MSTORE PUSH1 0x20 ADD DUP4 PUSH1 0x20 ADD MLOAD DUP2 MSTORE PUSH1 0x20 ADD DUP7 DUP2 MSTORE PUSH1 0x20 ADD DUP5 DUP2 MSTORE PUSH1 0x20 ADD DUP6 DUP2 MSTORE PUSH1 0x20 ADD DUP4 PUSH1 0xA0 ADD MLOAD DUP2 MSTORE PUSH1 0x20 ADD DUP4 PUSH1 0xC0 ADD MLOAD PUSH1 0x2 DUP2 GT ISZERO PUSH2 0x3040 JUMPI PUSH4 0x4E487B71 PUSH1 0xE0 SHL PUSH1 0x0 MSTORE PUSH1 0x21 PUSH1 0x4 MSTORE PUSH1 0x24 PUSH1 0x0 REVERT JUMPDEST SWAP1 MSTORE SWAP1 POP PUSH2 0x304E DUP7 DUP3 PUSH2 0x308D JUMP JUMPDEST PUSH2 0x3059 DUP7 DUP5 DUP7 PUSH2 0x32B0 JUMP JUMPDEST PUSH2 0x3066 DUP11 DUP11 DUP11 DUP10 DUP12 PUSH2 0x3AAA JUMP JUMPDEST POP POP POP POP POP SWAP5 SWAP4 POP POP POP POP JUMP JUMPDEST PUSH1 0x13 DUP1 SLOAD PUSH1 0x0 SWAP2 DUP3 PUSH2 0x3084 DUP4 PUSH2 0x596D JUMP JUMPDEST SWAP2 SWAP1 POP SSTORE SWAP1 POP SWAP1 JUMP JUMPDEST PUSH1 0x0 DUP3 DUP2 MSTORE PUSH1 0x14 PUSH1 0x20 MSTORE PUSH1 0x40 SWAP1 KECCAK256 DUP2 MLOAD DUP2 SLOAD DUP4 SWAP3 SWAP2 SWAP1 DUP3 SWAP1 PUSH1 0xFF NOT AND PUSH1 0x1 DUP4 PUSH1 0x3 DUP2 GT ISZERO PUSH2 0x30CB JUMPI PUSH4 0x4E487B71 PUSH1 0xE0 SHL PUSH1 0x0 MSTORE PUSH1 0x21 PUSH1 0x4 MSTORE PUSH1 0x24 PUSH1 0x0 REVERT JUMPDEST MUL OR SWAP1 SSTORE POP PUSH1 0x20 DUP3 ADD MLOAD DUP2 PUSH1 0x1 ADD SSTORE PUSH1 0x40 DUP3 ADD MLOAD DUP2 PUSH1 0x2 ADD SSTORE PUSH1 0x60 DUP3 ADD MLOAD DUP2 PUSH1 0x3 ADD SSTORE PUSH1 0x80 DUP3 ADD MLOAD DUP2 PUSH1 0x4 ADD SSTORE PUSH1 0xA0 DUP3 ADD MLOAD DUP2 PUSH1 0x5 ADD SSTORE PUSH1 0xC0 DUP3 ADD MLOAD DUP2 PUSH1 0x6 ADD PUSH1 0x0 PUSH2 0x100 EXP DUP2 SLOAD DUP2 PUSH1 0xFF MUL NOT AND SWAP1 DUP4 PUSH1 0x2 DUP2 GT ISZERO PUSH2 0x313A JUMPI PUSH4 0x4E487B71 PUSH1 0xE0 SHL PUSH1 0x0 MSTORE PUSH1 0x21 PUSH1 0x4 MSTORE PUSH1 0x24 PUSH1 0x0 REVERT JUMPDEST MUL OR SWAP1 SSTORE POP POP POP POP POP JUMP JUMPDEST PUSH1 0x0 DUP4 DUP4 DUP4 DUP8 PUSH1 0x40 MLOAD PUSH1 0x20 ADD PUSH2 0x315E SWAP5 SWAP4 SWAP3 SWAP2 SWAP1 PUSH2 0x56EF JUMP JUMPDEST PUSH1 0x40 DUP1 MLOAD DUP1 DUP4 SUB PUSH1 0x1F NOT ADD DUP2 MSTORE SWAP2 DUP2 MSTORE DUP2 MLOAD PUSH1 0x20 SWAP3 DUP4 ADD KECCAK256 PUSH1 0x0 DUP2 DUP2 MSTORE PUSH1 0x18 SWAP1 SWAP4 MSTORE SWAP2 KECCAK256 PUSH1 0x2 ADD SLOAD SWAP1 SWAP2 POP PUSH2 0x100 SWAP1 DIV PUSH1 0xFF AND ISZERO PUSH2 0x31C4 JUMPI PUSH1 0x40 MLOAD PUSH3 0x461BCD PUSH1 0xE5 SHL DUP2 MSTORE PUSH1 0x20 PUSH1 0x4 DUP3 ADD MSTORE PUSH1 0x3 PUSH1 0x24 DUP3 ADD MSTORE PUSH3 0x138C4D PUSH1 0xEA SHL PUSH1 0x44 DUP3 ADD MSTORE PUSH1 0x64 ADD PUSH2 0x7FC JUMP JUMPDEST PUSH1 0x40 MLOAD DUP1 PUSH1 0x80 ADD PUSH1 0x40 MSTORE DUP1 DUP6 DUP2 MSTORE PUSH1 0x20 ADD DUP5 DUP2 MSTORE PUSH1 0x20 ADD DUP4 PUSH1 0x2 DUP2 GT ISZERO PUSH2 0x31FB JUMPI PUSH4 0x4E487B71 PUSH1 0xE0 SHL PUSH1 0x0 MSTORE PUSH1 0x21 PUSH1 0x4 MSTORE PUSH1 0x24 PUSH1 0x0 REVERT JUMPDEST DUP2 MSTORE PUSH1 0x1 PUSH1 0x20 SWAP2 DUP3 ADD DUP2 SWAP1 MSTORE PUSH1 0x0 DUP5 DUP2 MSTORE PUSH1 0x18 DUP4 MSTORE PUSH1 0x40 SWAP1 DUP2 SWAP1 KECCAK256 DUP5 MLOAD DUP2 SSTORE SWAP3 DUP5 ADD MLOAD DUP4 DUP4 ADD SSTORE DUP4 ADD MLOAD PUSH1 0x2 DUP1 DUP5 ADD DUP1 SLOAD SWAP3 SWAP4 SWAP1 SWAP3 PUSH1 0xFF NOT AND SWAP2 DUP5 SWAP1 DUP2 GT ISZERO PUSH2 0x3254 JUMPI PUSH4 0x4E487B71 PUSH1 0xE0 SHL PUSH1 0x0 MSTORE PUSH1 0x21 PUSH1 0x4 MSTORE PUSH1 0x24 PUSH1 0x0 REVERT JUMPDEST MUL OR SWAP1 SSTORE POP PUSH1 0x60 SWAP2 SWAP1 SWAP2 ADD MLOAD PUSH1 0x2 SWAP1 SWAP2 ADD DUP1 SLOAD SWAP2 ISZERO ISZERO PUSH2 0x100 MUL PUSH2 0xFF00 NOT SWAP1 SWAP3 AND SWAP2 SWAP1 SWAP2 OR SWAP1 SSTORE SWAP5 SWAP4 POP POP POP POP JUMP JUMPDEST PUSH1 0x0 DUP4 DUP2 MSTORE PUSH1 0xA PUSH1 0x20 MSTORE PUSH1 0x40 SWAP1 KECCAK256 DUP2 SWAP1 SSTORE PUSH1 0xD SLOAD PUSH2 0x187D SWAP1 DUP4 SWAP1 DUP6 SWAP1 DUP5 SWAP1 PUSH2 0x4193 JUMP JUMPDEST PUSH2 0x1971 DUP3 DUP3 PUSH2 0x421D JUMP JUMPDEST PUSH1 0x15 SLOAD PUSH1 0x40 MLOAD PUSH4 0xEDD0D421 PUSH1 0xE0 SHL DUP2 MSTORE PUSH1 0x1 PUSH1 0x1 PUSH1 0xA0 SHL SUB SWAP1 SWAP2 AND SWAP1 PUSH4 0xEDD0D421 SWAP1 PUSH2 0x32E4 SWAP1 DUP7 SWAP1 DUP7 SWAP1 DUP7 SWAP1 PUSH1 0x4 ADD PUSH2 0x5738 JUMP JUMPDEST PUSH1 0x0 PUSH1 0x40 MLOAD DUP1 DUP4 SUB DUP2 PUSH1 0x0 DUP8 DUP1 EXTCODESIZE ISZERO DUP1 ISZERO PUSH2 0x32FE JUMPI PUSH1 0x0 DUP1 REVERT JUMPDEST POP GAS CALL ISZERO DUP1 ISZERO PUSH2 0x3312 JUMPI RETURNDATASIZE PUSH1 0x0 DUP1 RETURNDATACOPY RETURNDATASIZE PUSH1 0x0 REVERT JUMPDEST POP POP POP POP POP POP POP JUMP JUMPDEST PUSH1 0x0 PUSH1 0x1 PUSH1 0x1 PUSH1 0xE0 SHL SUB NOT DUP3 AND PUSH4 0x7965DB0B PUSH1 0xE0 SHL EQ DUP1 PUSH2 0x160C JUMPI POP PUSH2 0x160C DUP3 PUSH2 0x42A8 JUMP JUMPDEST PUSH1 0x0 SWAP1 DUP2 MSTORE PUSH1 0x2 PUSH1 0x20 MSTORE PUSH1 0x40 SWAP1 KECCAK256 SLOAD PUSH1 0x1 PUSH1 0x1 PUSH1 0xA0 SHL SUB AND ISZERO ISZERO SWAP1 JUMP JUMPDEST PUSH1 0x0 DUP2 DUP2 MSTORE PUSH1 0x4 PUSH1 0x20 MSTORE PUSH1 0x40 SWAP1 KECCAK256 DUP1 SLOAD PUSH1 0x1 PUSH1 0x1 PUSH1 0xA0 SHL SUB NOT AND PUSH1 0x1 PUSH1 0x1 PUSH1 0xA0 SHL SUB DUP5 AND SWAP1 DUP2 OR SWAP1 SWAP2 SSTORE DUP2 SWAP1 PUSH2 0x3392 DUP3 PUSH2 0x201D JUMP JUMPDEST PUSH1 0x1 PUSH1 0x1 PUSH1 0xA0 SHL SUB AND PUSH32 0x8C5BE1E5EBEC7D5BD14F71427D1E84F3DD0314C0F7B2291E5B200AC8C7C3B925 PUSH1 0x40 MLOAD PUSH1 0x40 MLOAD DUP1 SWAP2 SUB SWAP1 LOG4 POP POP JUMP JUMPDEST PUSH1 0x0 PUSH2 0x33D6 DUP3 PUSH2 0x3340 JUMP JUMPDEST PUSH2 0x3437 JUMPI PUSH1 0x40 MLOAD PUSH3 0x461BCD PUSH1 0xE5 SHL DUP2 MSTORE PUSH1 0x20 PUSH1 0x4 DUP3 ADD MSTORE PUSH1 0x2C PUSH1 0x24 DUP3 ADD MSTORE PUSH32 0x4552433732313A206F70657261746F7220717565727920666F72206E6F6E6578 PUSH1 0x44 DUP3 ADD MSTORE PUSH12 0x34B9BA32B73A103A37B5B2B7 PUSH1 0xA1 SHL PUSH1 0x64 DUP3 ADD MSTORE PUSH1 0x84 ADD PUSH2 0x7FC JUMP JUMPDEST PUSH1 0x0 PUSH2 0x3442 DUP4 PUSH2 0x201D JUMP JUMPDEST SWAP1 POP DUP1 PUSH1 0x1 PUSH1 0x1 PUSH1 0xA0 SHL SUB AND DUP5 PUSH1 0x1 PUSH1 0x1 PUSH1 0xA0 SHL SUB AND EQ DUP1 PUSH2 0x347D JUMPI POP DUP4 PUSH1 0x1 PUSH1 0x1 PUSH1 0xA0 SHL SUB AND PUSH2 0x3472 DUP5 PUSH2 0x16E9 JUMP JUMPDEST PUSH1 0x1 PUSH1 0x1 PUSH1 0xA0 SHL SUB AND EQ JUMPDEST DUP1 PUSH2 0x348D JUMPI POP PUSH2 0x348D DUP2 DUP6 PUSH2 0x2ED1 JUMP JUMPDEST SWAP5 SWAP4 POP POP POP POP JUMP JUMPDEST DUP3 PUSH1 0x1 PUSH1 0x1 PUSH1 0xA0 SHL SUB AND PUSH2 0x34A8 DUP3 PUSH2 0x201D JUMP JUMPDEST PUSH1 0x1 PUSH1 0x1 PUSH1 0xA0 SHL SUB AND EQ PUSH2 0x3510 JUMPI PUSH1 0x40 MLOAD PUSH3 0x461BCD PUSH1 0xE5 SHL DUP2 MSTORE PUSH1 0x20 PUSH1 0x4 DUP3 ADD MSTORE PUSH1 0x29 PUSH1 0x24 DUP3 ADD MSTORE PUSH32 0x4552433732313A207472616E73666572206F6620746F6B656E20746861742069 PUSH1 0x44 DUP3 ADD MSTORE PUSH9 0x39903737BA1037BBB7 PUSH1 0xB9 SHL PUSH1 0x64 DUP3 ADD MSTORE PUSH1 0x84 ADD PUSH2 0x7FC JUMP JUMPDEST PUSH1 0x1 PUSH1 0x1 PUSH1 0xA0 SHL SUB DUP3 AND PUSH2 0x3572 JUMPI PUSH1 0x40 MLOAD PUSH3 0x461BCD PUSH1 0xE5 SHL DUP2 MSTORE PUSH1 0x20 PUSH1 0x4 DUP3 ADD MSTORE PUSH1 0x24 DUP1 DUP3 ADD MSTORE PUSH32 0x4552433732313A207472616E7366657220746F20746865207A65726F20616464 PUSH1 0x44 DUP3 ADD MSTORE PUSH4 0x72657373 PUSH1 0xE0 SHL PUSH1 0x64 DUP3 ADD MSTORE PUSH1 0x84 ADD PUSH2 0x7FC JUMP JUMPDEST PUSH2 0x357D DUP4 DUP4 DUP4 PUSH2 0x42F8 JUMP JUMPDEST PUSH2 0x3588 PUSH1 0x0 DUP3 PUSH2 0x335D JUMP JUMPDEST PUSH1 0x1 PUSH1 0x1 PUSH1 0xA0 SHL SUB DUP4 AND PUSH1 0x0 SWAP1 DUP2 MSTORE PUSH1 0x3 PUSH1 0x20 MSTORE PUSH1 0x40 DUP2 KECCAK256 DUP1 SLOAD PUSH1 0x1 SWAP3 SWAP1 PUSH2 0x35B1 SWAP1 DUP5 SWAP1 PUSH2 0x58DE JUMP JUMPDEST SWAP1 SWAP2 SSTORE POP POP PUSH1 0x1 PUSH1 0x1 PUSH1 0xA0 SHL SUB DUP3 AND PUSH1 0x0 SWAP1 DUP2 MSTORE PUSH1 0x3 PUSH1 0x20 MSTORE PUSH1 0x40 DUP2 KECCAK256 DUP1 SLOAD PUSH1 0x1 SWAP3 SWAP1 PUSH2 0x35DF SWAP1 DUP5 SWAP1 PUSH2 0x5798 JUMP JUMPDEST SWAP1 SWAP2 SSTORE POP POP PUSH1 0x0 DUP2 DUP2 MSTORE PUSH1 0x2 PUSH1 0x20 MSTORE PUSH1 0x40 DUP1 DUP3 KECCAK256 DUP1 SLOAD PUSH1 0x1 PUSH1 0x1 PUSH1 0xA0 SHL SUB NOT AND PUSH1 0x1 PUSH1 0x1 PUSH1 0xA0 SHL SUB DUP7 DUP2 AND SWAP2 DUP3 OR SWAP1 SWAP3 SSTORE SWAP2 MLOAD DUP5 SWAP4 SWAP2 DUP8 AND SWAP2 PUSH1 0x0 DUP1 MLOAD PUSH1 0x20 PUSH2 0x5A50 DUP4 CODECOPY DUP2 MLOAD SWAP2 MSTORE SWAP2 LOG4 POP POP POP JUMP JUMPDEST PUSH2 0x3638 DUP3 DUP3 PUSH2 0x27D3 JUMP JUMPDEST PUSH2 0x1971 JUMPI PUSH2 0x3650 DUP2 PUSH1 0x1 PUSH1 0x1 PUSH1 0xA0 SHL SUB AND PUSH1 0x14 PUSH2 0x4310 JUMP JUMPDEST PUSH2 0x365B DUP4 PUSH1 0x20 PUSH2 0x4310 JUMP JUMPDEST PUSH1 0x40 MLOAD PUSH1 0x20 ADD PUSH2 0x366C SWAP3 SWAP2 SWAP1 PUSH2 0x53D8 JUMP JUMPDEST PUSH1 0x40 DUP1 MLOAD PUSH1 0x1F NOT DUP2 DUP5 SUB ADD DUP2 MSTORE SWAP1 DUP3 SWAP1 MSTORE PUSH3 0x461BCD PUSH1 0xE5 SHL DUP3 MSTORE PUSH2 0x7FC SWAP2 PUSH1 0x4 ADD PUSH2 0x554B JUMP JUMPDEST PUSH2 0x369C DUP3 DUP3 PUSH2 0x27D3 JUMP JUMPDEST PUSH2 0x1971 JUMPI PUSH1 0x0 DUP3 DUP2 MSTORE PUSH1 0x8 PUSH1 0x20 SWAP1 DUP2 MSTORE PUSH1 0x40 DUP1 DUP4 KECCAK256 PUSH1 0x1 PUSH1 0x1 PUSH1 0xA0 SHL SUB DUP6 AND DUP5 MSTORE SWAP1 SWAP2 MSTORE SWAP1 KECCAK256 DUP1 SLOAD PUSH1 0xFF NOT AND PUSH1 0x1 OR SWAP1 SSTORE PUSH2 0x36D4 CALLER SWAP1 JUMP JUMPDEST PUSH1 0x1 PUSH1 0x1 PUSH1 0xA0 SHL SUB AND DUP2 PUSH1 0x1 PUSH1 0x1 PUSH1 0xA0 SHL SUB AND DUP4 PUSH32 0x2F8788117E7EFF1D82E926EC794901D17C78024A50270940304540A733656F0D PUSH1 0x40 MLOAD PUSH1 0x40 MLOAD DUP1 SWAP2 SUB SWAP1 LOG4 POP POP JUMP JUMPDEST PUSH2 0x3722 DUP3 DUP3 PUSH2 0x27D3 JUMP JUMPDEST ISZERO PUSH2 0x1971 JUMPI PUSH1 0x0 DUP3 DUP2 MSTORE PUSH1 0x8 PUSH1 0x20 SWAP1 DUP2 MSTORE PUSH1 0x40 DUP1 DUP4 KECCAK256 PUSH1 0x1 PUSH1 0x1 PUSH1 0xA0 SHL SUB DUP6 AND DUP1 DUP6 MSTORE SWAP3 MSTORE DUP1 DUP4 KECCAK256 DUP1 SLOAD PUSH1 0xFF NOT AND SWAP1 SSTORE MLOAD CALLER SWAP3 DUP6 SWAP2 PUSH32 0xF6391F5C32D9C69D2A47EA670B442974B53935D1EDC7FD64EB21E047A839171B SWAP2 SWAP1 LOG4 POP POP JUMP JUMPDEST PUSH1 0x0 DUP3 DUP2 MSTORE PUSH1 0xB PUSH1 0x20 SWAP1 DUP2 MSTORE PUSH1 0x40 DUP1 DUP4 KECCAK256 PUSH1 0x1 PUSH1 0x1 PUSH1 0xA0 SHL SUB DUP8 AND DUP5 MSTORE PUSH1 0x1 ADD SWAP1 SWAP2 MSTORE SWAP1 KECCAK256 SLOAD PUSH2 0x37E1 JUMPI PUSH1 0x0 DUP3 DUP2 MSTORE PUSH1 0xB PUSH1 0x20 SWAP1 DUP2 MSTORE PUSH1 0x40 DUP3 KECCAK256 DUP1 SLOAD PUSH1 0x1 DUP2 ADD DUP3 SSTORE SWAP1 DUP4 MSTORE SWAP2 KECCAK256 ADD DUP1 SLOAD PUSH1 0x1 PUSH1 0x1 PUSH1 0xA0 SHL SUB NOT AND PUSH1 0x1 PUSH1 0x1 PUSH1 0xA0 SHL SUB DUP6 AND OR SWAP1 SSTORE JUMPDEST PUSH1 0x0 DUP3 DUP2 MSTORE PUSH1 0xB PUSH1 0x20 SWAP1 DUP2 MSTORE PUSH1 0x40 DUP1 DUP4 KECCAK256 PUSH1 0x1 PUSH1 0x1 PUSH1 0xA0 SHL SUB DUP8 AND DUP1 DUP6 MSTORE PUSH1 0x1 SWAP1 SWAP2 ADD DUP4 MSTORE SWAP3 DUP2 SWAP1 KECCAK256 DUP5 SWAP1 SSTORE MLOAD DUP4 DUP2 MSTORE DUP5 SWAP3 SWAP2 PUSH32 0x8A156BD946DC74EC284C5F4B365CE75EF2A5B9D9462B4CDB1D2400CABF136541 SWAP2 ADD PUSH1 0x40 MLOAD DUP1 SWAP2 SUB SWAP1 LOG3 POP POP POP JUMP JUMPDEST PUSH1 0x0 DUP2 DUP2 MSTORE PUSH1 0xA PUSH1 0x20 MSTORE PUSH1 0x40 DUP2 KECCAK256 SSTORE PUSH2 0x1C6F DUP2 PUSH2 0x44F1 JUMP JUMPDEST PUSH1 0x0 DUP1 PUSH1 0x0 PUSH2 0x3869 PUSH2 0x4CC4 JUMP JUMPDEST PUSH2 0x3872 DUP7 PUSH2 0x3989 JUMP JUMPDEST SWAP1 POP PUSH1 0x0 PUSH2 0x387F DUP8 PUSH2 0x2CE8 JUMP JUMPDEST SWAP1 POP DUP1 DUP7 DUP4 PUSH1 0x40 ADD MLOAD PUSH2 0x3892 SWAP2 SWAP1 PUSH2 0x58BF JUMP JUMPDEST PUSH2 0x389C SWAP2 SWAP1 PUSH2 0x57B0 JUMP JUMPDEST SWAP5 POP DUP1 DUP7 DUP4 PUSH1 0x80 ADD MLOAD PUSH2 0x38AF SWAP2 SWAP1 PUSH2 0x58BF JUMP JUMPDEST PUSH2 0x38B9 SWAP2 SWAP1 PUSH2 0x57B0 JUMP JUMPDEST SWAP4 POP DUP1 DUP7 DUP4 PUSH1 0x60 ADD MLOAD PUSH2 0x38CC SWAP2 SWAP1 PUSH2 0x58BF JUMP JUMPDEST PUSH2 0x38D6 SWAP2 SWAP1 PUSH2 0x57B0 JUMP JUMPDEST SWAP3 POP PUSH2 0x390D DUP8 DUP4 DUP6 DUP6 PUSH1 0x60 ADD MLOAD PUSH2 0x38ED SWAP2 SWAP1 PUSH2 0x58DE JUMP JUMPDEST DUP9 DUP7 PUSH1 0x40 ADD MLOAD PUSH2 0x38FD SWAP2 SWAP1 PUSH2 0x58DE JUMP JUMPDEST DUP9 DUP8 PUSH1 0x80 ADD MLOAD PUSH2 0x1D05 SWAP2 SWAP1 PUSH2 0x58DE JUMP JUMPDEST PUSH1 0x15 SLOAD PUSH1 0x60 DUP3 ADD MLOAD PUSH1 0x80 DUP4 ADD MLOAD PUSH1 0x40 MLOAD PUSH4 0x57A5C967 PUSH1 0xE0 SHL DUP2 MSTORE SWAP4 SWAP6 POP PUSH1 0x1 PUSH1 0x1 PUSH1 0xA0 SHL SUB SWAP1 SWAP3 AND SWAP3 PUSH4 0x57A5C967 SWAP3 PUSH2 0x394D SWAP3 DUP13 SWAP3 SWAP1 SWAP2 SWAP1 PUSH1 0x4 ADD PUSH2 0x5738 JUMP JUMPDEST PUSH1 0x0 PUSH1 0x40 MLOAD DUP1 DUP4 SUB DUP2 PUSH1 0x0 DUP8 DUP1 EXTCODESIZE ISZERO DUP1 ISZERO PUSH2 0x3967 JUMPI PUSH1 0x0 DUP1 REVERT JUMPDEST POP GAS CALL ISZERO DUP1 ISZERO PUSH2 0x397B JUMPI RETURNDATASIZE PUSH1 0x0 DUP1 RETURNDATACOPY RETURNDATASIZE PUSH1 0x0 REVERT JUMPDEST POP POP POP POP POP SWAP3 SWAP6 SWAP2 SWAP5 POP SWAP3 POP JUMP JUMPDEST PUSH2 0x3991 PUSH2 0x4CC4 JUMP JUMPDEST PUSH1 0x0 DUP3 DUP2 MSTORE PUSH1 0x14 PUSH1 0x20 MSTORE PUSH1 0x40 SWAP1 DUP2 SWAP1 KECCAK256 DUP2 MLOAD PUSH1 0xE0 DUP2 ADD SWAP1 SWAP3 MSTORE DUP1 SLOAD DUP3 SWAP1 PUSH1 0xFF AND PUSH1 0x3 DUP2 GT ISZERO PUSH2 0x39D0 JUMPI PUSH4 0x4E487B71 PUSH1 0xE0 SHL PUSH1 0x0 MSTORE PUSH1 0x21 PUSH1 0x4 MSTORE PUSH1 0x24 PUSH1 0x0 REVERT JUMPDEST PUSH1 0x3 DUP2 GT ISZERO PUSH2 0x39EF JUMPI PUSH4 0x4E487B71 PUSH1 0xE0 SHL PUSH1 0x0 MSTORE PUSH1 0x21 PUSH1 0x4 MSTORE PUSH1 0x24 PUSH1 0x0 REVERT JUMPDEST DUP2 MSTORE PUSH1 0x1 DUP3 ADD SLOAD PUSH1 0x20 DUP3 ADD MSTORE PUSH1 0x2 DUP1 DUP4 ADD SLOAD PUSH1 0x40 DUP4 ADD MSTORE PUSH1 0x3 DUP4 ADD SLOAD PUSH1 0x60 DUP4 ADD MSTORE PUSH1 0x4 DUP4 ADD SLOAD PUSH1 0x80 DUP4 ADD MSTORE PUSH1 0x5 DUP4 ADD SLOAD PUSH1 0xA0 DUP4 ADD MSTORE PUSH1 0x6 DUP4 ADD SLOAD PUSH1 0xC0 SWAP1 SWAP3 ADD SWAP2 PUSH1 0xFF AND SWAP1 DUP2 GT ISZERO PUSH2 0x3A50 JUMPI PUSH4 0x4E487B71 PUSH1 0xE0 SHL PUSH1 0x0 MSTORE PUSH1 0x21 PUSH1 0x4 MSTORE PUSH1 0x24 PUSH1 0x0 REVERT JUMPDEST PUSH1 0x2 DUP2 GT ISZERO PUSH2 0x3A6F JUMPI PUSH4 0x4E487B71 PUSH1 0xE0 SHL PUSH1 0x0 MSTORE PUSH1 0x21 PUSH1 0x4 MSTORE PUSH1 0x24 PUSH1 0x0 REVERT JUMPDEST SWAP1 MSTORE POP SWAP3 SWAP2 POP POP JUMP JUMPDEST PUSH2 0x3A80 PUSH2 0x4CC4 JUMP JUMPDEST POP PUSH1 0x60 DUP5 ADD DUP4 SWAP1 MSTORE PUSH1 0x40 DUP5 ADD DUP3 SWAP1 MSTORE PUSH1 0x80 DUP5 ADD DUP2 SWAP1 MSTORE DUP4 PUSH2 0x3AA1 DUP7 DUP3 PUSH2 0x308D JUMP JUMPDEST SWAP6 SWAP5 POP POP POP POP POP JUMP JUMPDEST PUSH2 0x3AB3 DUP4 PUSH2 0x201D JUMP JUMPDEST PUSH1 0x1 PUSH1 0x1 PUSH1 0xA0 SHL SUB AND DUP6 PUSH1 0x1 PUSH1 0x1 PUSH1 0xA0 SHL SUB AND EQ PUSH2 0x3AF8 JUMPI PUSH1 0x40 MLOAD PUSH3 0x461BCD PUSH1 0xE5 SHL DUP2 MSTORE PUSH1 0x20 PUSH1 0x4 DUP3 ADD MSTORE PUSH1 0x2 PUSH1 0x24 DUP3 ADD MSTORE PUSH2 0x4E39 PUSH1 0xF0 SHL PUSH1 0x44 DUP3 ADD MSTORE PUSH1 0x64 ADD PUSH2 0x7FC JUMP JUMPDEST PUSH1 0x1 PUSH1 0x1 PUSH1 0xA0 SHL SUB DUP5 AND PUSH2 0x3B34 JUMPI PUSH1 0x40 MLOAD PUSH3 0x461BCD PUSH1 0xE5 SHL DUP2 MSTORE PUSH1 0x20 PUSH1 0x4 DUP3 ADD MSTORE PUSH1 0x3 PUSH1 0x24 DUP3 ADD MSTORE PUSH3 0x4E313 PUSH1 0xEC SHL PUSH1 0x44 DUP3 ADD MSTORE PUSH1 0x64 ADD PUSH2 0x7FC JUMP JUMPDEST CALLER PUSH1 0x1 PUSH1 0x1 PUSH1 0xA0 SHL SUB DUP7 AND EQ DUP1 ISZERO SWAP1 PUSH2 0x3B54 JUMPI POP PUSH2 0x3B52 DUP6 CALLER PUSH2 0x2ED1 JUMP JUMPDEST ISZERO JUMPDEST ISZERO PUSH2 0x3B9F JUMPI PUSH1 0x0 DUP4 DUP2 MSTORE PUSH1 0xB PUSH1 0x20 SWAP1 DUP2 MSTORE PUSH1 0x40 DUP1 DUP4 KECCAK256 CALLER DUP5 MSTORE PUSH1 0x1 ADD SWAP1 SWAP2 MSTORE SWAP1 KECCAK256 SLOAD PUSH2 0x3B81 SWAP1 DUP3 SWAP1 PUSH2 0x58DE JUMP JUMPDEST PUSH1 0x0 DUP5 DUP2 MSTORE PUSH1 0xB PUSH1 0x20 SWAP1 DUP2 MSTORE PUSH1 0x40 DUP1 DUP4 KECCAK256 CALLER DUP5 MSTORE PUSH1 0x1 ADD SWAP1 SWAP2 MSTORE SWAP1 KECCAK256 SSTORE JUMPDEST PUSH1 0x0 DUP4 DUP2 MSTORE PUSH1 0xF PUSH1 0x20 MSTORE PUSH1 0x40 SWAP1 KECCAK256 SLOAD PUSH2 0x3BB9 SWAP1 DUP3 SWAP1 PUSH2 0x58DE JUMP JUMPDEST PUSH1 0x0 DUP5 DUP2 MSTORE PUSH1 0xF PUSH1 0x20 MSTORE PUSH1 0x40 SWAP1 KECCAK256 SSTORE PUSH2 0x3BD1 DUP3 PUSH2 0x3340 JUMP JUMPDEST PUSH2 0x3BEE JUMPI PUSH2 0x3BE9 DUP5 DUP4 PUSH2 0x3BE3 DUP7 PUSH2 0x18C8 JUMP JUMPDEST DUP5 PUSH2 0x4193 JUMP JUMPDEST PUSH2 0x3C96 JUMP JUMPDEST DUP4 PUSH1 0x1 PUSH1 0x1 PUSH1 0xA0 SHL SUB AND PUSH2 0x3C01 DUP4 PUSH2 0x201D JUMP JUMPDEST PUSH1 0x1 PUSH1 0x1 PUSH1 0xA0 SHL SUB AND EQ PUSH2 0x3C3D JUMPI PUSH1 0x40 MLOAD PUSH3 0x461BCD PUSH1 0xE5 SHL DUP2 MSTORE PUSH1 0x20 PUSH1 0x4 DUP3 ADD MSTORE PUSH1 0x3 PUSH1 0x24 DUP3 ADD MSTORE PUSH3 0x4E3131 PUSH1 0xE8 SHL PUSH1 0x44 DUP3 ADD MSTORE PUSH1 0x64 ADD PUSH2 0x7FC JUMP JUMPDEST PUSH2 0x3C46 DUP3 PUSH2 0x18C8 JUMP JUMPDEST PUSH2 0x3C4F DUP5 PUSH2 0x18C8 JUMP JUMPDEST EQ PUSH2 0x3C6C JUMPI PUSH1 0x40 MLOAD PUSH3 0x461BCD PUSH1 0xE5 SHL DUP2 MSTORE PUSH1 0x4 ADD PUSH2 0x7FC SWAP1 PUSH2 0x55E9 JUMP JUMPDEST PUSH1 0x0 DUP3 DUP2 MSTORE PUSH1 0xF PUSH1 0x20 MSTORE PUSH1 0x40 SWAP1 KECCAK256 SLOAD PUSH2 0x3C86 SWAP1 DUP3 SWAP1 PUSH2 0x5798 JUMP JUMPDEST PUSH1 0x0 DUP4 DUP2 MSTORE PUSH1 0xF PUSH1 0x20 MSTORE PUSH1 0x40 SWAP1 KECCAK256 SSTORE JUMPDEST PUSH1 0x0 DUP4 DUP2 MSTORE PUSH1 0xA PUSH1 0x20 MSTORE PUSH1 0x40 DUP1 DUP3 KECCAK256 SLOAD DUP5 DUP4 MSTORE SWAP2 DUP2 SWAP1 KECCAK256 SWAP2 SWAP1 SWAP2 SSTORE MLOAD DUP4 SWAP1 PUSH1 0x1 PUSH1 0x1 PUSH1 0xA0 SHL SUB DUP1 DUP8 AND SWAP2 SWAP1 DUP9 AND SWAP1 PUSH1 0x0 DUP1 MLOAD PUSH1 0x20 PUSH2 0x5A70 DUP4 CODECOPY DUP2 MLOAD SWAP2 MSTORE SWAP1 PUSH2 0x3CE1 SWAP1 DUP8 SWAP1 DUP8 SWAP1 PUSH2 0x553D JUMP JUMPDEST PUSH1 0x40 MLOAD DUP1 SWAP2 SUB SWAP1 LOG4 POP POP POP POP POP JUMP JUMPDEST PUSH2 0x3CFA CALLER DUP5 PUSH2 0x33CB JUMP JUMPDEST PUSH2 0x3D2B JUMPI PUSH1 0x40 MLOAD PUSH3 0x461BCD PUSH1 0xE5 SHL DUP2 MSTORE PUSH1 0x20 PUSH1 0x4 DUP3 ADD MSTORE PUSH1 0x2 PUSH1 0x24 DUP3 ADD MSTORE PUSH2 0x2719 PUSH1 0xF1 SHL PUSH1 0x44 DUP3 ADD MSTORE PUSH1 0x64 ADD PUSH2 0x7FC JUMP JUMPDEST PUSH2 0x3D34 DUP3 PUSH2 0x3340 JUMP JUMPDEST ISZERO PUSH2 0x3D66 JUMPI PUSH1 0x40 MLOAD PUSH3 0x461BCD PUSH1 0xE5 SHL DUP2 MSTORE PUSH1 0x20 PUSH1 0x4 DUP3 ADD MSTORE PUSH1 0x2 PUSH1 0x24 DUP3 ADD MSTORE PUSH2 0x4E33 PUSH1 0xF0 SHL PUSH1 0x44 DUP3 ADD MSTORE PUSH1 0x64 ADD PUSH2 0x7FC JUMP JUMPDEST PUSH2 0x3D85 DUP3 PUSH2 0x3D73 DUP6 PUSH2 0x18C8 JUMP JUMPDEST PUSH1 0x0 SWAP2 DUP3 MSTORE PUSH1 0xA PUSH1 0x20 MSTORE PUSH1 0x40 SWAP1 SWAP2 KECCAK256 SSTORE JUMP JUMPDEST PUSH1 0x0 DUP4 DUP2 MSTORE PUSH1 0xF PUSH1 0x20 MSTORE PUSH1 0x40 SWAP1 KECCAK256 SLOAD PUSH2 0x3D9F SWAP1 DUP3 SWAP1 PUSH2 0x58DE JUMP JUMPDEST PUSH1 0x0 DUP5 DUP2 MSTORE PUSH1 0xF PUSH1 0x20 MSTORE PUSH1 0x40 DUP2 KECCAK256 SWAP2 SWAP1 SWAP2 SSTORE PUSH2 0x3DBA DUP5 PUSH2 0x201D JUMP JUMPDEST SWAP1 POP PUSH2 0x3DD0 DUP2 DUP5 PUSH2 0x3DCA DUP8 PUSH2 0x18C8 JUMP JUMPDEST DUP6 PUSH2 0x4193 JUMP JUMPDEST DUP4 DUP2 PUSH1 0x1 PUSH1 0x1 PUSH1 0xA0 SHL SUB AND PUSH32 0xF66885C33D648FCD0D97E0F2A18E30102169C22763473AF0FB716F11B4A17DD6 DUP6 DUP6 PUSH1 0x40 MLOAD PUSH2 0x3E0C SWAP3 SWAP2 SWAP1 PUSH2 0x553D JUMP JUMPDEST PUSH1 0x40 MLOAD DUP1 SWAP2 SUB SWAP1 LOG3 POP POP POP POP JUMP JUMPDEST PUSH1 0x6 DUP1 SLOAD PUSH1 0x1 PUSH1 0x1 PUSH1 0xA0 SHL SUB DUP4 DUP2 AND PUSH1 0x1 PUSH1 0x1 PUSH1 0xA0 SHL SUB NOT DUP4 AND DUP2 OR SWAP1 SWAP4 SSTORE PUSH1 0x40 MLOAD SWAP2 AND SWAP2 SWAP1 DUP3 SWAP1 PUSH32 0x8BE0079C531659141344CD1FD0A4F28419497F9722A3DAAFE3B4186F6B6457E0 SWAP1 PUSH1 0x0 SWAP1 LOG3 POP POP JUMP JUMPDEST PUSH1 0x0 PUSH2 0x160C DUP3 SLOAD SWAP1 JUMP JUMPDEST PUSH2 0x3E81 DUP5 DUP5 DUP5 PUSH2 0x3495 JUMP JUMPDEST PUSH2 0x3E8D DUP5 DUP5 DUP5 DUP5 PUSH2 0x4583 JUMP JUMPDEST PUSH2 0x2017 JUMPI PUSH1 0x40 MLOAD PUSH3 0x461BCD PUSH1 0xE5 SHL DUP2 MSTORE PUSH1 0x4 ADD PUSH2 0x7FC SWAP1 PUSH2 0x557A JUMP JUMPDEST PUSH2 0x3EB2 CALLER PUSH2 0x2AAB JUMP JUMPDEST PUSH2 0x3EE3 JUMPI PUSH1 0x40 MLOAD PUSH3 0x461BCD PUSH1 0xE5 SHL DUP2 MSTORE PUSH1 0x20 PUSH1 0x4 DUP3 ADD MSTORE PUSH1 0x2 PUSH1 0x24 DUP3 ADD MSTORE PUSH2 0x4E35 PUSH1 0xF0 SHL PUSH1 0x44 DUP3 ADD MSTORE PUSH1 0x64 ADD PUSH2 0x7FC JUMP JUMPDEST DUP1 DUP3 EQ ISZERO PUSH2 0x3F18 JUMPI PUSH1 0x40 MLOAD PUSH3 0x461BCD PUSH1 0xE5 SHL DUP2 MSTORE PUSH1 0x20 PUSH1 0x4 DUP3 ADD MSTORE PUSH1 0x2 PUSH1 0x24 DUP3 ADD MSTORE PUSH2 0x271B PUSH1 0xF1 SHL PUSH1 0x44 DUP3 ADD MSTORE PUSH1 0x64 ADD PUSH2 0x7FC JUMP JUMPDEST PUSH2 0x3F21 DUP2 PUSH2 0x18C8 JUMP JUMPDEST PUSH2 0x3F2A DUP4 PUSH2 0x18C8 JUMP JUMPDEST EQ PUSH2 0x3F47 JUMPI PUSH1 0x40 MLOAD PUSH3 0x461BCD PUSH1 0xE5 SHL DUP2 MSTORE PUSH1 0x4 ADD PUSH2 0x7FC SWAP1 PUSH2 0x55E9 JUMP JUMPDEST PUSH1 0x0 PUSH2 0x3F52 DUP4 PUSH2 0x201D JUMP JUMPDEST SWAP1 POP PUSH2 0x3F5D DUP3 PUSH2 0x201D JUMP JUMPDEST PUSH1 0x1 PUSH1 0x1 PUSH1 0xA0 SHL SUB AND DUP2 PUSH1 0x1 PUSH1 0x1 PUSH1 0xA0 SHL SUB AND EQ PUSH2 0x3FA2 JUMPI PUSH1 0x40 MLOAD PUSH3 0x461BCD PUSH1 0xE5 SHL DUP2 MSTORE PUSH1 0x20 PUSH1 0x4 DUP3 ADD MSTORE PUSH1 0x2 PUSH1 0x24 DUP3 ADD MSTORE PUSH2 0x9C7 PUSH1 0xF3 SHL PUSH1 0x44 DUP3 ADD MSTORE PUSH1 0x64 ADD PUSH2 0x7FC JUMP JUMPDEST PUSH1 0x0 DUP4 DUP2 MSTORE PUSH1 0xF PUSH1 0x20 MSTORE PUSH1 0x40 DUP1 DUP3 KECCAK256 SLOAD DUP5 DUP4 MSTORE SWAP2 KECCAK256 SLOAD PUSH2 0x3FC2 SWAP1 DUP3 PUSH2 0x5798 JUMP JUMPDEST PUSH1 0x0 DUP5 DUP2 MSTORE PUSH1 0xF PUSH1 0x20 MSTORE PUSH1 0x40 SWAP1 KECCAK256 SSTORE PUSH2 0x3FDA DUP5 PUSH2 0x3844 JUMP JUMPDEST DUP3 DUP5 DUP4 PUSH1 0x1 PUSH1 0x1 PUSH1 0xA0 SHL SUB AND PUSH32 0xB3CE851D16B3BBEC3774D5631A3893DFA2A80E067CFAD265DD594402AC3D6096 DUP5 PUSH1 0x40 MLOAD PUSH2 0x4017 SWAP2 DUP2 MSTORE PUSH1 0x20 ADD SWAP1 JUMP JUMPDEST PUSH1 0x40 MLOAD DUP1 SWAP2 SUB SWAP1 LOG4 POP POP POP POP JUMP JUMPDEST PUSH1 0x60 PUSH2 0x4030 DUP3 PUSH2 0x3340 JUMP JUMPDEST PUSH2 0x4096 JUMPI PUSH1 0x40 MLOAD PUSH3 0x461BCD PUSH1 0xE5 SHL DUP2 MSTORE PUSH1 0x20 PUSH1 0x4 DUP3 ADD MSTORE PUSH1 0x31 PUSH1 0x24 DUP3 ADD MSTORE PUSH32 0x45524337323155524953746F726167653A2055524920717565727920666F7220 PUSH1 0x44 DUP3 ADD MSTORE PUSH17 0x3737B732BC34B9BA32B73A103A37B5B2B7 PUSH1 0x79 SHL PUSH1 0x64 DUP3 ADD MSTORE PUSH1 0x84 ADD PUSH2 0x7FC JUMP JUMPDEST PUSH1 0x0 DUP3 DUP2 MSTORE PUSH1 0x9 PUSH1 0x20 MSTORE PUSH1 0x40 DUP2 KECCAK256 DUP1 SLOAD PUSH2 0x40AF SWAP1 PUSH2 0x5938 JUMP JUMPDEST DUP1 PUSH1 0x1F ADD PUSH1 0x20 DUP1 SWAP2 DIV MUL PUSH1 0x20 ADD PUSH1 0x40 MLOAD SWAP1 DUP2 ADD PUSH1 0x40 MSTORE DUP1 SWAP3 SWAP2 SWAP1 DUP2 DUP2 MSTORE PUSH1 0x20 ADD DUP3 DUP1 SLOAD PUSH2 0x40DB SWAP1 PUSH2 0x5938 JUMP JUMPDEST DUP1 ISZERO PUSH2 0x4128 JUMPI DUP1 PUSH1 0x1F LT PUSH2 0x40FD JUMPI PUSH2 0x100 DUP1 DUP4 SLOAD DIV MUL DUP4 MSTORE SWAP2 PUSH1 0x20 ADD SWAP2 PUSH2 0x4128 JUMP JUMPDEST DUP3 ADD SWAP2 SWAP1 PUSH1 0x0 MSTORE PUSH1 0x20 PUSH1 0x0 KECCAK256 SWAP1 JUMPDEST DUP2 SLOAD DUP2 MSTORE SWAP1 PUSH1 0x1 ADD SWAP1 PUSH1 0x20 ADD DUP1 DUP4 GT PUSH2 0x410B JUMPI DUP3 SWAP1 SUB PUSH1 0x1F AND DUP3 ADD SWAP2 JUMPDEST POP POP POP POP POP SWAP1 POP PUSH1 0x0 PUSH2 0x4139 PUSH2 0x4690 JUMP JUMPDEST SWAP1 POP DUP1 MLOAD PUSH1 0x0 EQ ISZERO PUSH2 0x414C JUMPI POP SWAP3 SWAP2 POP POP JUMP JUMPDEST DUP2 MLOAD ISZERO PUSH2 0x417E JUMPI DUP1 DUP3 PUSH1 0x40 MLOAD PUSH1 0x20 ADD PUSH2 0x4166 SWAP3 SWAP2 SWAP1 PUSH2 0x53A9 JUMP JUMPDEST PUSH1 0x40 MLOAD PUSH1 0x20 DUP2 DUP4 SUB SUB DUP2 MSTORE SWAP1 PUSH1 0x40 MSTORE SWAP3 POP POP POP SWAP2 SWAP1 POP JUMP JUMPDEST PUSH2 0x348D DUP5 PUSH2 0x46B0 JUMP JUMPDEST PUSH1 0x0 PUSH2 0x2E60 DUP4 DUP4 PUSH2 0x477A JUMP JUMPDEST PUSH2 0x419C DUP4 PUSH2 0x3340 JUMP JUMPDEST PUSH2 0x41C4 JUMPI PUSH2 0x41AA DUP5 DUP5 PUSH2 0x47B2 JUMP JUMPDEST PUSH1 0x0 DUP3 DUP2 MSTORE PUSH1 0xC PUSH1 0x20 MSTORE PUSH1 0x40 SWAP1 KECCAK256 PUSH2 0x41C2 SWAP1 DUP5 PUSH2 0x48DE JUMP JUMPDEST POP JUMPDEST PUSH1 0x0 DUP4 DUP2 MSTORE PUSH1 0xF PUSH1 0x20 MSTORE PUSH1 0x40 SWAP1 KECCAK256 SLOAD PUSH2 0x41DE SWAP1 DUP3 SWAP1 PUSH2 0x5798 JUMP JUMPDEST PUSH1 0x0 DUP5 DUP2 MSTORE PUSH1 0xF PUSH1 0x20 MSTORE PUSH1 0x40 DUP1 DUP3 KECCAK256 SWAP3 SWAP1 SWAP3 SSTORE SWAP1 MLOAD PUSH1 0x1 PUSH1 0x1 PUSH1 0xA0 SHL SUB DUP7 AND SWAP1 DUP3 SWAP1 PUSH1 0x0 DUP1 MLOAD PUSH1 0x20 PUSH2 0x5A70 DUP4 CODECOPY DUP2 MLOAD SWAP2 MSTORE SWAP1 PUSH2 0x4017 SWAP1 DUP9 SWAP1 DUP8 SWAP1 PUSH2 0x553D JUMP JUMPDEST PUSH2 0x4226 DUP3 PUSH2 0x3340 JUMP JUMPDEST PUSH2 0x4289 JUMPI PUSH1 0x40 MLOAD PUSH3 0x461BCD PUSH1 0xE5 SHL DUP2 MSTORE PUSH1 0x20 PUSH1 0x4 DUP3 ADD MSTORE PUSH1 0x2E PUSH1 0x24 DUP3 ADD MSTORE PUSH32 0x45524337323155524953746F726167653A2055524920736574206F66206E6F6E PUSH1 0x44 DUP3 ADD MSTORE PUSH14 0x32BC34B9BA32B73A103A37B5B2B7 PUSH1 0x91 SHL PUSH1 0x64 DUP3 ADD MSTORE PUSH1 0x84 ADD PUSH2 0x7FC JUMP JUMPDEST PUSH1 0x0 DUP3 DUP2 MSTORE PUSH1 0x9 PUSH1 0x20 SWAP1 DUP2 MSTORE PUSH1 0x40 SWAP1 SWAP2 KECCAK256 DUP3 MLOAD PUSH2 0x187D SWAP3 DUP5 ADD SWAP1 PUSH2 0x4D20 JUMP JUMPDEST PUSH1 0x0 PUSH1 0x1 PUSH1 0x1 PUSH1 0xE0 SHL SUB NOT DUP3 AND PUSH4 0x80AC58CD PUSH1 0xE0 SHL EQ DUP1 PUSH2 0x42D9 JUMPI POP PUSH1 0x1 PUSH1 0x1 PUSH1 0xE0 SHL SUB NOT DUP3 AND PUSH4 0x5B5E139F PUSH1 0xE0 SHL EQ JUMPDEST DUP1 PUSH2 0x160C JUMPI POP PUSH4 0x1FFC9A7 PUSH1 0xE0 SHL PUSH1 0x1 PUSH1 0x1 PUSH1 0xE0 SHL SUB NOT DUP4 AND EQ PUSH2 0x160C JUMP JUMPDEST PUSH1 0x1 PUSH1 0x1 PUSH1 0xA0 SHL SUB DUP4 AND ISZERO PUSH2 0x187D JUMPI PUSH2 0x187D DUP2 PUSH2 0x48EA JUMP JUMPDEST PUSH1 0x60 PUSH1 0x0 PUSH2 0x431F DUP4 PUSH1 0x2 PUSH2 0x58BF JUMP JUMPDEST PUSH2 0x432A SWAP1 PUSH1 0x2 PUSH2 0x5798 JUMP JUMPDEST PUSH1 0x1 PUSH1 0x1 PUSH1 0x40 SHL SUB DUP2 GT ISZERO PUSH2 0x434F JUMPI PUSH4 0x4E487B71 PUSH1 0xE0 SHL PUSH1 0x0 MSTORE PUSH1 0x41 PUSH1 0x4 MSTORE PUSH1 0x24 PUSH1 0x0 REVERT JUMPDEST PUSH1 0x40 MLOAD SWAP1 DUP1 DUP3 MSTORE DUP1 PUSH1 0x1F ADD PUSH1 0x1F NOT AND PUSH1 0x20 ADD DUP3 ADD PUSH1 0x40 MSTORE DUP1 ISZERO PUSH2 0x4379 JUMPI PUSH1 0x20 DUP3 ADD DUP2 DUP1 CALLDATASIZE DUP4 CALLDATACOPY ADD SWAP1 POP JUMPDEST POP SWAP1 POP PUSH1 0x3 PUSH1 0xFC SHL DUP2 PUSH1 0x0 DUP2 MLOAD DUP2 LT PUSH2 0x43A2 JUMPI PUSH4 0x4E487B71 PUSH1 0xE0 SHL PUSH1 0x0 MSTORE PUSH1 0x32 PUSH1 0x4 MSTORE PUSH1 0x24 PUSH1 0x0 REVERT JUMPDEST PUSH1 0x20 ADD ADD SWAP1 PUSH1 0x1 PUSH1 0x1 PUSH1 0xF8 SHL SUB NOT AND SWAP1 DUP2 PUSH1 0x0 BYTE SWAP1 MSTORE8 POP PUSH1 0xF PUSH1 0xFB SHL DUP2 PUSH1 0x1 DUP2 MLOAD DUP2 LT PUSH2 0x43DF JUMPI PUSH4 0x4E487B71 PUSH1 0xE0 SHL PUSH1 0x0 MSTORE PUSH1 0x32 PUSH1 0x4 MSTORE PUSH1 0x24 PUSH1 0x0 REVERT JUMPDEST PUSH1 0x20 ADD ADD SWAP1 PUSH1 0x1 PUSH1 0x1 PUSH1 0xF8 SHL SUB NOT AND SWAP1 DUP2 PUSH1 0x0 BYTE SWAP1 MSTORE8 POP PUSH1 0x0 PUSH2 0x4403 DUP5 PUSH1 0x2 PUSH2 0x58BF JUMP JUMPDEST PUSH2 0x440E SWAP1 PUSH1 0x1 PUSH2 0x5798 JUMP JUMPDEST SWAP1 POP JUMPDEST PUSH1 0x1 DUP2 GT ISZERO PUSH2 0x44A2 JUMPI PUSH16 0x181899199A1A9B1B9C1CB0B131B232B3 PUSH1 0x81 SHL DUP6 PUSH1 0xF AND PUSH1 0x10 DUP2 LT PUSH2 0x4450 JUMPI PUSH4 0x4E487B71 PUSH1 0xE0 SHL PUSH1 0x0 MSTORE PUSH1 0x32 PUSH1 0x4 MSTORE PUSH1 0x24 PUSH1 0x0 REVERT JUMPDEST BYTE PUSH1 0xF8 SHL DUP3 DUP3 DUP2 MLOAD DUP2 LT PUSH2 0x4474 JUMPI PUSH4 0x4E487B71 PUSH1 0xE0 SHL PUSH1 0x0 MSTORE PUSH1 0x32 PUSH1 0x4 MSTORE PUSH1 0x24 PUSH1 0x0 REVERT JUMPDEST PUSH1 0x20 ADD ADD SWAP1 PUSH1 0x1 PUSH1 0x1 PUSH1 0xF8 SHL SUB NOT AND SWAP1 DUP2 PUSH1 0x0 BYTE SWAP1 MSTORE8 POP PUSH1 0x4 SWAP5 SWAP1 SWAP5 SHR SWAP4 PUSH2 0x449B DUP2 PUSH2 0x5921 JUMP JUMPDEST SWAP1 POP PUSH2 0x4411 JUMP JUMPDEST POP DUP4 ISZERO PUSH2 0x2E60 JUMPI PUSH1 0x40 MLOAD PUSH3 0x461BCD PUSH1 0xE5 SHL DUP2 MSTORE PUSH1 0x20 PUSH1 0x4 DUP3 ADD DUP2 SWAP1 MSTORE PUSH1 0x24 DUP3 ADD MSTORE PUSH32 0x537472696E67733A20686578206C656E67746820696E73756666696369656E74 PUSH1 0x44 DUP3 ADD MSTORE PUSH1 0x64 ADD PUSH2 0x7FC JUMP JUMPDEST PUSH1 0x0 PUSH2 0x44FC DUP3 PUSH2 0x201D JUMP JUMPDEST SWAP1 POP PUSH1 0x0 PUSH2 0x4509 DUP4 PUSH2 0x18C8 JUMP JUMPDEST PUSH1 0x0 DUP5 DUP2 MSTORE PUSH1 0xF PUSH1 0x20 SWAP1 DUP2 MSTORE PUSH1 0x40 DUP1 DUP4 KECCAK256 SLOAD DUP5 DUP5 MSTORE PUSH1 0xC SWAP1 SWAP3 MSTORE SWAP1 SWAP2 KECCAK256 SWAP2 SWAP3 POP SWAP1 PUSH2 0x4534 SWAP1 DUP6 PUSH2 0x499E JUMP JUMPDEST POP PUSH1 0x0 DUP5 DUP2 MSTORE PUSH1 0xF PUSH1 0x20 MSTORE PUSH1 0x40 DUP2 KECCAK256 SSTORE PUSH2 0x454D DUP5 PUSH2 0x49AA JUMP JUMPDEST DUP4 PUSH1 0x0 PUSH1 0x1 PUSH1 0x1 PUSH1 0xA0 SHL SUB AND DUP5 PUSH1 0x1 PUSH1 0x1 PUSH1 0xA0 SHL SUB AND PUSH1 0x0 DUP1 MLOAD PUSH1 0x20 PUSH2 0x5A70 DUP4 CODECOPY DUP2 MLOAD SWAP2 MSTORE PUSH1 0x0 DUP6 PUSH1 0x40 MLOAD PUSH2 0x4017 SWAP3 SWAP2 SWAP1 PUSH2 0x553D JUMP JUMPDEST PUSH1 0x0 PUSH1 0x1 PUSH1 0x1 PUSH1 0xA0 SHL SUB DUP5 AND EXTCODESIZE ISZERO PUSH2 0x4685 JUMPI PUSH1 0x40 MLOAD PUSH4 0xA85BD01 PUSH1 0xE1 SHL DUP2 MSTORE PUSH1 0x1 PUSH1 0x1 PUSH1 0xA0 SHL SUB DUP6 AND SWAP1 PUSH4 0x150B7A02 SWAP1 PUSH2 0x45C7 SWAP1 CALLER SWAP1 DUP10 SWAP1 DUP9 SWAP1 DUP9 SWAP1 PUSH1 0x4 ADD PUSH2 0x5447 JUMP JUMPDEST PUSH1 0x20 PUSH1 0x40 MLOAD DUP1 DUP4 SUB DUP2 PUSH1 0x0 DUP8 DUP1 EXTCODESIZE ISZERO DUP1 ISZERO PUSH2 0x45E1 JUMPI PUSH1 0x0 DUP1 REVERT JUMPDEST POP GAS CALL SWAP3 POP POP POP DUP1 ISZERO PUSH2 0x4611 JUMPI POP PUSH1 0x40 DUP1 MLOAD PUSH1 0x1F RETURNDATASIZE SWAP1 DUP2 ADD PUSH1 0x1F NOT AND DUP3 ADD SWAP1 SWAP3 MSTORE PUSH2 0x460E SWAP2 DUP2 ADD SWAP1 PUSH2 0x51C0 JUMP JUMPDEST PUSH1 0x1 JUMPDEST PUSH2 0x466B JUMPI RETURNDATASIZE DUP1 DUP1 ISZERO PUSH2 0x463F JUMPI PUSH1 0x40 MLOAD SWAP2 POP PUSH1 0x1F NOT PUSH1 0x3F RETURNDATASIZE ADD AND DUP3 ADD PUSH1 0x40 MSTORE RETURNDATASIZE DUP3 MSTORE RETURNDATASIZE PUSH1 0x0 PUSH1 0x20 DUP5 ADD RETURNDATACOPY PUSH2 0x4644 JUMP JUMPDEST PUSH1 0x60 SWAP2 POP JUMPDEST POP DUP1 MLOAD PUSH2 0x4663 JUMPI PUSH1 0x40 MLOAD PUSH3 0x461BCD PUSH1 0xE5 SHL DUP2 MSTORE PUSH1 0x4 ADD PUSH2 0x7FC SWAP1 PUSH2 0x557A JUMP JUMPDEST DUP1 MLOAD DUP2 PUSH1 0x20 ADD REVERT JUMPDEST PUSH1 0x1 PUSH1 0x1 PUSH1 0xE0 SHL SUB NOT AND PUSH4 0xA85BD01 PUSH1 0xE1 SHL EQ SWAP1 POP PUSH2 0x348D JUMP JUMPDEST POP PUSH1 0x1 SWAP5 SWAP4 POP POP POP POP JUMP JUMPDEST PUSH1 0x60 PUSH1 0x40 MLOAD DUP1 PUSH1 0x60 ADD PUSH1 0x40 MSTORE DUP1 PUSH1 0x22 DUP2 MSTORE PUSH1 0x20 ADD PUSH2 0x5A2E PUSH1 0x22 SWAP2 CODECOPY SWAP1 POP SWAP1 JUMP JUMPDEST PUSH1 0x60 PUSH2 0x46BB DUP3 PUSH2 0x3340 JUMP JUMPDEST PUSH2 0x471F JUMPI PUSH1 0x40 MLOAD PUSH3 0x461BCD PUSH1 0xE5 SHL DUP2 MSTORE PUSH1 0x20 PUSH1 0x4 DUP3 ADD MSTORE PUSH1 0x2F PUSH1 0x24 DUP3 ADD MSTORE PUSH32 0x4552433732314D657461646174613A2055524920717565727920666F72206E6F PUSH1 0x44 DUP3 ADD MSTORE PUSH15 0x3732BC34B9BA32B73A103A37B5B2B7 PUSH1 0x89 SHL PUSH1 0x64 DUP3 ADD MSTORE PUSH1 0x84 ADD PUSH2 0x7FC JUMP JUMPDEST PUSH1 0x0 PUSH2 0x4729 PUSH2 0x4690 JUMP JUMPDEST SWAP1 POP PUSH1 0x0 DUP2 MLOAD GT PUSH2 0x4749 JUMPI PUSH1 0x40 MLOAD DUP1 PUSH1 0x20 ADD PUSH1 0x40 MSTORE DUP1 PUSH1 0x0 DUP2 MSTORE POP PUSH2 0x2E60 JUMP JUMPDEST DUP1 PUSH2 0x4753 DUP5 PUSH2 0x4A3F JUMP JUMPDEST PUSH1 0x40 MLOAD PUSH1 0x20 ADD PUSH2 0x4764 SWAP3 SWAP2 SWAP1 PUSH2 0x53A9 JUMP JUMPDEST PUSH1 0x40 MLOAD PUSH1 0x20 DUP2 DUP4 SUB SUB DUP2 MSTORE SWAP1 PUSH1 0x40 MSTORE SWAP4 SWAP3 POP POP POP JUMP JUMPDEST PUSH1 0x0 DUP3 PUSH1 0x0 ADD DUP3 DUP2 SLOAD DUP2 LT PUSH2 0x479F JUMPI PUSH4 0x4E487B71 PUSH1 0xE0 SHL PUSH1 0x0 MSTORE PUSH1 0x32 PUSH1 0x4 MSTORE PUSH1 0x24 PUSH1 0x0 REVERT JUMPDEST SWAP1 PUSH1 0x0 MSTORE PUSH1 0x20 PUSH1 0x0 KECCAK256 ADD SLOAD SWAP1 POP SWAP3 SWAP2 POP POP JUMP JUMPDEST PUSH1 0x1 PUSH1 0x1 PUSH1 0xA0 SHL SUB DUP3 AND PUSH2 0x4808 JUMPI PUSH1 0x40 MLOAD PUSH3 0x461BCD PUSH1 0xE5 SHL DUP2 MSTORE PUSH1 0x20 PUSH1 0x4 DUP3 ADD DUP2 SWAP1 MSTORE PUSH1 0x24 DUP3 ADD MSTORE PUSH32 0x4552433732313A206D696E7420746F20746865207A65726F2061646472657373 PUSH1 0x44 DUP3 ADD MSTORE PUSH1 0x64 ADD PUSH2 0x7FC JUMP JUMPDEST PUSH2 0x4811 DUP2 PUSH2 0x3340 JUMP JUMPDEST ISZERO PUSH2 0x485D JUMPI PUSH1 0x40 MLOAD PUSH3 0x461BCD PUSH1 0xE5 SHL DUP2 MSTORE PUSH1 0x20 PUSH1 0x4 DUP3 ADD MSTORE PUSH1 0x1C PUSH1 0x24 DUP3 ADD MSTORE PUSH28 0x115490CDCC8C4E881D1BDAD95B88185B1C9958591E481B5A5B9D1959 PUSH1 0x22 SHL PUSH1 0x44 DUP3 ADD MSTORE PUSH1 0x64 ADD PUSH2 0x7FC JUMP JUMPDEST PUSH2 0x4869 PUSH1 0x0 DUP4 DUP4 PUSH2 0x42F8 JUMP JUMPDEST PUSH1 0x1 PUSH1 0x1 PUSH1 0xA0 SHL SUB DUP3 AND PUSH1 0x0 SWAP1 DUP2 MSTORE PUSH1 0x3 PUSH1 0x20 MSTORE PUSH1 0x40 DUP2 KECCAK256 DUP1 SLOAD PUSH1 0x1 SWAP3 SWAP1 PUSH2 0x4892 SWAP1 DUP5 SWAP1 PUSH2 0x5798 JUMP JUMPDEST SWAP1 SWAP2 SSTORE POP POP PUSH1 0x0 DUP2 DUP2 MSTORE PUSH1 0x2 PUSH1 0x20 MSTORE PUSH1 0x40 DUP1 DUP3 KECCAK256 DUP1 SLOAD PUSH1 0x1 PUSH1 0x1 PUSH1 0xA0 SHL SUB NOT AND PUSH1 0x1 PUSH1 0x1 PUSH1 0xA0 SHL SUB DUP7 AND SWAP1 DUP2 OR SWAP1 SWAP2 SSTORE SWAP1 MLOAD DUP4 SWAP3 SWAP1 PUSH1 0x0 DUP1 MLOAD PUSH1 0x20 PUSH2 0x5A50 DUP4 CODECOPY DUP2 MLOAD SWAP2 MSTORE SWAP1 DUP3 SWAP1 LOG4 POP POP JUMP JUMPDEST PUSH1 0x0 PUSH2 0x2E60 DUP4 DUP4 PUSH2 0x4B58 JUMP JUMPDEST PUSH1 0x0 DUP2 DUP2 MSTORE PUSH1 0xB PUSH1 0x20 MSTORE PUSH1 0x40 DUP2 KECCAK256 SWAP1 JUMPDEST DUP2 SLOAD DUP2 LT ISZERO PUSH2 0x187D JUMPI DUP2 PUSH1 0x1 ADD PUSH1 0x0 DUP4 PUSH1 0x0 ADD DUP4 DUP2 SLOAD DUP2 LT PUSH2 0x492C JUMPI PUSH4 0x4E487B71 PUSH1 0xE0 SHL PUSH1 0x0 MSTORE PUSH1 0x32 PUSH1 0x4 MSTORE PUSH1 0x24 PUSH1 0x0 REVERT JUMPDEST PUSH1 0x0 SWAP2 DUP3 MSTORE PUSH1 0x20 DUP1 DUP4 KECCAK256 SWAP1 SWAP2 ADD SLOAD PUSH1 0x1 PUSH1 0x1 PUSH1 0xA0 SHL SUB AND DUP4 MSTORE DUP3 ADD SWAP3 SWAP1 SWAP3 MSTORE PUSH1 0x40 ADD DUP2 KECCAK256 SSTORE DUP2 SLOAD DUP3 SWAP1 DUP3 SWAP1 DUP2 LT PUSH2 0x4973 JUMPI PUSH4 0x4E487B71 PUSH1 0xE0 SHL PUSH1 0x0 MSTORE PUSH1 0x32 PUSH1 0x4 MSTORE PUSH1 0x24 PUSH1 0x0 REVERT JUMPDEST PUSH1 0x0 SWAP2 DUP3 MSTORE PUSH1 0x20 SWAP1 SWAP2 KECCAK256 ADD DUP1 SLOAD PUSH1 0x1 PUSH1 0x1 PUSH1 0xA0 SHL SUB NOT AND SWAP1 SSTORE DUP1 PUSH2 0x4996 DUP2 PUSH2 0x596D JUMP JUMPDEST SWAP2 POP POP PUSH2 0x48FA JUMP JUMPDEST PUSH1 0x0 PUSH2 0x2E60 DUP4 DUP4 PUSH2 0x4BA7 JUMP JUMPDEST PUSH1 0x0 PUSH2 0x49B5 DUP3 PUSH2 0x201D JUMP JUMPDEST SWAP1 POP PUSH2 0x49C3 DUP2 PUSH1 0x0 DUP5 PUSH2 0x42F8 JUMP JUMPDEST PUSH2 0x49CE PUSH1 0x0 DUP4 PUSH2 0x335D JUMP JUMPDEST PUSH1 0x1 PUSH1 0x1 PUSH1 0xA0 SHL SUB DUP2 AND PUSH1 0x0 SWAP1 DUP2 MSTORE PUSH1 0x3 PUSH1 0x20 MSTORE PUSH1 0x40 DUP2 KECCAK256 DUP1 SLOAD PUSH1 0x1 SWAP3 SWAP1 PUSH2 0x49F7 SWAP1 DUP5 SWAP1 PUSH2 0x58DE JUMP JUMPDEST SWAP1 SWAP2 SSTORE POP POP PUSH1 0x0 DUP3 DUP2 MSTORE PUSH1 0x2 PUSH1 0x20 MSTORE PUSH1 0x40 DUP1 DUP3 KECCAK256 DUP1 SLOAD PUSH1 0x1 PUSH1 0x1 PUSH1 0xA0 SHL SUB NOT AND SWAP1 SSTORE MLOAD DUP4 SWAP2 SWAP1 PUSH1 0x1 PUSH1 0x1 PUSH1 0xA0 SHL SUB DUP5 AND SWAP1 PUSH1 0x0 DUP1 MLOAD PUSH1 0x20 PUSH2 0x5A50 DUP4 CODECOPY DUP2 MLOAD SWAP2 MSTORE SWAP1 DUP4 SWAP1 LOG4 POP POP JUMP JUMPDEST PUSH1 0x60 DUP2 PUSH2 0x4A63 JUMPI POP POP PUSH1 0x40 DUP1 MLOAD DUP1 DUP3 ADD SWAP1 SWAP2 MSTORE PUSH1 0x1 DUP2 MSTORE PUSH1 0x3 PUSH1 0xFC SHL PUSH1 0x20 DUP3 ADD MSTORE SWAP1 JUMP JUMPDEST DUP2 PUSH1 0x0 JUMPDEST DUP2 ISZERO PUSH2 0x4A8D JUMPI DUP1 PUSH2 0x4A77 DUP2 PUSH2 0x596D JUMP JUMPDEST SWAP2 POP PUSH2 0x4A86 SWAP1 POP PUSH1 0xA DUP4 PUSH2 0x57B0 JUMP JUMPDEST SWAP2 POP PUSH2 0x4A67 JUMP JUMPDEST PUSH1 0x0 DUP2 PUSH1 0x1 PUSH1 0x1 PUSH1 0x40 SHL SUB DUP2 GT ISZERO PUSH2 0x4AB5 JUMPI PUSH4 0x4E487B71 PUSH1 0xE0 SHL PUSH1 0x0 MSTORE PUSH1 0x41 PUSH1 0x4 MSTORE PUSH1 0x24 PUSH1 0x0 REVERT JUMPDEST PUSH1 0x40 MLOAD SWAP1 DUP1 DUP3 MSTORE DUP1 PUSH1 0x1F ADD PUSH1 0x1F NOT AND PUSH1 0x20 ADD DUP3 ADD PUSH1 0x40 MSTORE DUP1 ISZERO PUSH2 0x4ADF JUMPI PUSH1 0x20 DUP3 ADD DUP2 DUP1 CALLDATASIZE DUP4 CALLDATACOPY ADD SWAP1 POP JUMPDEST POP SWAP1 POP JUMPDEST DUP5 ISZERO PUSH2 0x348D JUMPI PUSH2 0x4AF4 PUSH1 0x1 DUP4 PUSH2 0x58DE JUMP JUMPDEST SWAP2 POP PUSH2 0x4B01 PUSH1 0xA DUP7 PUSH2 0x5988 JUMP JUMPDEST PUSH2 0x4B0C SWAP1 PUSH1 0x30 PUSH2 0x5798 JUMP JUMPDEST PUSH1 0xF8 SHL DUP2 DUP4 DUP2 MLOAD DUP2 LT PUSH2 0x4B2F JUMPI PUSH4 0x4E487B71 PUSH1 0xE0 SHL PUSH1 0x0 MSTORE PUSH1 0x32 PUSH1 0x4 MSTORE PUSH1 0x24 PUSH1 0x0 REVERT JUMPDEST PUSH1 0x20 ADD ADD SWAP1 PUSH1 0x1 PUSH1 0x1 PUSH1 0xF8 SHL SUB NOT AND SWAP1 DUP2 PUSH1 0x0 BYTE SWAP1 MSTORE8 POP PUSH2 0x4B51 PUSH1 0xA DUP7 PUSH2 0x57B0 JUMP JUMPDEST SWAP5 POP PUSH2 0x4AE3 JUMP JUMPDEST PUSH1 0x0 DUP2 DUP2 MSTORE PUSH1 0x1 DUP4 ADD PUSH1 0x20 MSTORE PUSH1 0x40 DUP2 KECCAK256 SLOAD PUSH2 0x4B9F JUMPI POP DUP2 SLOAD PUSH1 0x1 DUP2 DUP2 ADD DUP5 SSTORE PUSH1 0x0 DUP5 DUP2 MSTORE PUSH1 0x20 DUP1 DUP3 KECCAK256 SWAP1 SWAP4 ADD DUP5 SWAP1 SSTORE DUP5 SLOAD DUP5 DUP3 MSTORE DUP3 DUP7 ADD SWAP1 SWAP4 MSTORE PUSH1 0x40 SWAP1 KECCAK256 SWAP2 SWAP1 SWAP2 SSTORE PUSH2 0x160C JUMP JUMPDEST POP PUSH1 0x0 PUSH2 0x160C JUMP JUMPDEST PUSH1 0x0 DUP2 DUP2 MSTORE PUSH1 0x1 DUP4 ADD PUSH1 0x20 MSTORE PUSH1 0x40 DUP2 KECCAK256 SLOAD DUP1 ISZERO PUSH2 0x4CBA JUMPI PUSH1 0x0 PUSH2 0x4BCB PUSH1 0x1 DUP4 PUSH2 0x58DE JUMP JUMPDEST DUP6 SLOAD SWAP1 SWAP2 POP PUSH1 0x0 SWAP1 PUSH2 0x4BDF SWAP1 PUSH1 0x1 SWAP1 PUSH2 0x58DE JUMP JUMPDEST SWAP1 POP DUP2 DUP2 EQ PUSH2 0x4C60 JUMPI PUSH1 0x0 DUP7 PUSH1 0x0 ADD DUP3 DUP2 SLOAD DUP2 LT PUSH2 0x4C0D JUMPI PUSH4 0x4E487B71 PUSH1 0xE0 SHL PUSH1 0x0 MSTORE PUSH1 0x32 PUSH1 0x4 MSTORE PUSH1 0x24 PUSH1 0x0 REVERT JUMPDEST SWAP1 PUSH1 0x0 MSTORE PUSH1 0x20 PUSH1 0x0 KECCAK256 ADD SLOAD SWAP1 POP DUP1 DUP8 PUSH1 0x0 ADD DUP5 DUP2 SLOAD DUP2 LT PUSH2 0x4C3E JUMPI PUSH4 0x4E487B71 PUSH1 0xE0 SHL PUSH1 0x0 MSTORE PUSH1 0x32 PUSH1 0x4 MSTORE PUSH1 0x24 PUSH1 0x0 REVERT JUMPDEST PUSH1 0x0 SWAP2 DUP3 MSTORE PUSH1 0x20 DUP1 DUP4 KECCAK256 SWAP1 SWAP2 ADD SWAP3 SWAP1 SWAP3 SSTORE SWAP2 DUP3 MSTORE PUSH1 0x1 DUP9 ADD SWAP1 MSTORE PUSH1 0x40 SWAP1 KECCAK256 DUP4 SWAP1 SSTORE JUMPDEST DUP6 SLOAD DUP7 SWAP1 DUP1 PUSH2 0x4C7F JUMPI PUSH4 0x4E487B71 PUSH1 0xE0 SHL PUSH1 0x0 MSTORE PUSH1 0x31 PUSH1 0x4 MSTORE PUSH1 0x24 PUSH1 0x0 REVERT JUMPDEST PUSH1 0x1 SWAP1 SUB DUP2 DUP2 SWAP1 PUSH1 0x0 MSTORE PUSH1 0x20 PUSH1 0x0 KECCAK256 ADD PUSH1 0x0 SWAP1 SSTORE SWAP1 SSTORE DUP6 PUSH1 0x1 ADD PUSH1 0x0 DUP7 DUP2 MSTORE PUSH1 0x20 ADD SWAP1 DUP2 MSTORE PUSH1 0x20 ADD PUSH1 0x0 KECCAK256 PUSH1 0x0 SWAP1 SSTORE PUSH1 0x1 SWAP4 POP POP POP POP PUSH2 0x160C JUMP JUMPDEST PUSH1 0x0 SWAP2 POP POP PUSH2 0x160C JUMP JUMPDEST PUSH1 0x40 DUP1 MLOAD PUSH1 0xE0 DUP2 ADD SWAP1 SWAP2 MSTORE DUP1 PUSH1 0x0 DUP2 MSTORE PUSH1 0x20 ADD PUSH1 0x0 DUP2 MSTORE PUSH1 0x20 ADD PUSH1 0x0 DUP2 MSTORE PUSH1 0x20 ADD PUSH1 0x0 DUP2 MSTORE PUSH1 0x20 ADD PUSH1 0x0 DUP2 MSTORE PUSH1 0x20 ADD PUSH1 0x0 DUP2 MSTORE PUSH1 0x20 ADD PUSH1 0x0 PUSH1 0x2 DUP2 GT ISZERO PUSH2 0x4D1B JUMPI PUSH4 0x4E487B71 PUSH1 0xE0 SHL PUSH1 0x0 MSTORE PUSH1 0x21 PUSH1 0x4 MSTORE PUSH1 0x24 PUSH1 0x0 REVERT JUMPDEST SWAP1 MSTORE SWAP1 JUMP JUMPDEST DUP3 DUP1 SLOAD PUSH2 0x4D2C SWAP1 PUSH2 0x5938 JUMP JUMPDEST SWAP1 PUSH1 0x0 MSTORE PUSH1 0x20 PUSH1 0x0 KECCAK256 SWAP1 PUSH1 0x1F ADD PUSH1 0x20 SWAP1 DIV DUP2 ADD SWAP3 DUP3 PUSH2 0x4D4E JUMPI PUSH1 0x0 DUP6 SSTORE PUSH2 0x4D94 JUMP JUMPDEST DUP3 PUSH1 0x1F LT PUSH2 0x4D67 JUMPI DUP1 MLOAD PUSH1 0xFF NOT AND DUP4 DUP1 ADD OR DUP6 SSTORE PUSH2 0x4D94 JUMP JUMPDEST DUP3 DUP1 ADD PUSH1 0x1 ADD DUP6 SSTORE DUP3 ISZERO PUSH2 0x4D94 JUMPI SWAP2 DUP3 ADD JUMPDEST DUP3 DUP2 GT ISZERO PUSH2 0x4D94 JUMPI DUP3 MLOAD DUP3 SSTORE SWAP2 PUSH1 0x20 ADD SWAP2 SWAP1 PUSH1 0x1 ADD SWAP1 PUSH2 0x4D79 JUMP JUMPDEST POP PUSH2 0x4DA0 SWAP3 SWAP2 POP PUSH2 0x4DA4 JUMP JUMPDEST POP SWAP1 JUMP JUMPDEST JUMPDEST DUP1 DUP3 GT ISZERO PUSH2 0x4DA0 JUMPI PUSH1 0x0 DUP2 SSTORE PUSH1 0x1 ADD PUSH2 0x4DA5 JUMP JUMPDEST PUSH1 0x0 PUSH1 0x1 PUSH1 0x1 PUSH1 0x40 SHL SUB DUP1 DUP5 GT ISZERO PUSH2 0x4DD3 JUMPI PUSH2 0x4DD3 PUSH2 0x59DE JUMP JUMPDEST PUSH1 0x40 MLOAD PUSH1 0x1F DUP6 ADD PUSH1 0x1F NOT SWAP1 DUP2 AND PUSH1 0x3F ADD AND DUP2 ADD SWAP1 DUP3 DUP3 GT DUP2 DUP4 LT OR ISZERO PUSH2 0x4DFB JUMPI PUSH2 0x4DFB PUSH2 0x59DE JUMP JUMPDEST DUP2 PUSH1 0x40 MSTORE DUP1 SWAP4 POP DUP6 DUP2 MSTORE DUP7 DUP7 DUP7 ADD GT ISZERO PUSH2 0x4E14 JUMPI PUSH1 0x0 DUP1 REVERT JUMPDEST DUP6 DUP6 PUSH1 0x20 DUP4 ADD CALLDATACOPY PUSH1 0x0 PUSH1 0x20 DUP8 DUP4 ADD ADD MSTORE POP POP POP SWAP4 SWAP3 POP POP POP JUMP JUMPDEST PUSH1 0x0 DUP1 DUP4 PUSH1 0x1F DUP5 ADD SLT PUSH2 0x4E3F JUMPI DUP2 DUP3 REVERT JUMPDEST POP DUP2 CALLDATALOAD PUSH1 0x1 PUSH1 0x1 PUSH1 0x40 SHL SUB DUP2 GT ISZERO PUSH2 0x4E55 JUMPI DUP2 DUP3 REVERT JUMPDEST PUSH1 0x20 DUP4 ADD SWAP2 POP DUP4 PUSH1 0x20 DUP3 PUSH1 0x5 SHL DUP6 ADD ADD GT ISZERO PUSH2 0x4E70 JUMPI PUSH1 0x0 DUP1 REVERT JUMPDEST SWAP3 POP SWAP3 SWAP1 POP JUMP JUMPDEST PUSH1 0x0 PUSH1 0x20 DUP3 DUP5 SUB SLT ISZERO PUSH2 0x4E88 JUMPI DUP1 DUP2 REVERT JUMPDEST DUP2 CALLDATALOAD PUSH2 0x2E60 DUP2 PUSH2 0x59F4 JUMP JUMPDEST PUSH1 0x0 PUSH1 0x20 DUP3 DUP5 SUB SLT ISZERO PUSH2 0x4EA4 JUMPI DUP1 DUP2 REVERT JUMPDEST DUP2 MLOAD PUSH2 0x2E60 DUP2 PUSH2 0x59F4 JUMP JUMPDEST PUSH1 0x0 DUP1 PUSH1 0x40 DUP4 DUP6 SUB SLT ISZERO PUSH2 0x4EC1 JUMPI DUP1 DUP2 REVERT JUMPDEST DUP3 CALLDATALOAD PUSH2 0x4ECC DUP2 PUSH2 0x59F4 JUMP JUMPDEST SWAP2 POP PUSH1 0x20 DUP4 ADD CALLDATALOAD PUSH2 0x4EDC DUP2 PUSH2 0x59F4 JUMP JUMPDEST DUP1 SWAP2 POP POP SWAP3 POP SWAP3 SWAP1 POP JUMP JUMPDEST PUSH1 0x0 DUP1 PUSH1 0x0 PUSH1 0x60 DUP5 DUP7 SUB SLT ISZERO PUSH2 0x4EFB JUMPI DUP1 DUP2 REVERT JUMPDEST DUP4 CALLDATALOAD PUSH2 0x4F06 DUP2 PUSH2 0x59F4 JUMP JUMPDEST SWAP3 POP PUSH1 0x20 DUP5 ADD CALLDATALOAD PUSH2 0x4F16 DUP2 PUSH2 0x59F4 JUMP JUMPDEST SWAP3 SWAP6 SWAP3 SWAP5 POP POP POP PUSH1 0x40 SWAP2 SWAP1 SWAP2 ADD CALLDATALOAD SWAP1 JUMP JUMPDEST PUSH1 0x0 DUP1 PUSH1 0x0 DUP1 PUSH1 0x80 DUP6 DUP8 SUB SLT ISZERO PUSH2 0x4F3C JUMPI DUP1 DUP2 REVERT JUMPDEST DUP5 CALLDATALOAD PUSH2 0x4F47 DUP2 PUSH2 0x59F4 JUMP JUMPDEST SWAP4 POP PUSH1 0x20 DUP6 ADD CALLDATALOAD PUSH2 0x4F57 DUP2 PUSH2 0x59F4 JUMP JUMPDEST SWAP3 POP PUSH1 0x40 DUP6 ADD CALLDATALOAD SWAP2 POP PUSH1 0x60 DUP6 ADD CALLDATALOAD PUSH1 0x1 PUSH1 0x1 PUSH1 0x40 SHL SUB DUP2 GT ISZERO PUSH2 0x4F78 JUMPI DUP2 DUP3 REVERT JUMPDEST DUP6 ADD PUSH1 0x1F DUP2 ADD DUP8 SGT PUSH2 0x4F88 JUMPI DUP2 DUP3 REVERT JUMPDEST PUSH2 0x4F97 DUP8 DUP3 CALLDATALOAD PUSH1 0x20 DUP5 ADD PUSH2 0x4DB9 JUMP JUMPDEST SWAP2 POP POP SWAP3 SWAP6 SWAP2 SWAP5 POP SWAP3 POP JUMP JUMPDEST PUSH1 0x0 DUP1 PUSH1 0x0 DUP1 PUSH1 0x80 DUP6 DUP8 SUB SLT ISZERO PUSH2 0x4FB8 JUMPI DUP4 DUP5 REVERT JUMPDEST DUP5 CALLDATALOAD PUSH2 0x4FC3 DUP2 PUSH2 0x59F4 JUMP JUMPDEST SWAP4 POP PUSH1 0x20 DUP6 ADD CALLDATALOAD PUSH2 0x4FD3 DUP2 PUSH2 0x59F4 JUMP JUMPDEST SWAP4 SWAP7 SWAP4 SWAP6 POP POP POP POP PUSH1 0x40 DUP3 ADD CALLDATALOAD SWAP2 PUSH1 0x60 ADD CALLDATALOAD SWAP1 JUMP JUMPDEST PUSH1 0x0 DUP1 PUSH1 0x0 DUP1 PUSH1 0x0 PUSH1 0xA0 DUP7 DUP9 SUB SLT ISZERO PUSH2 0x4FFF JUMPI DUP1 DUP2 REVERT JUMPDEST DUP6 CALLDATALOAD PUSH2 0x500A DUP2 PUSH2 0x59F4 JUMP JUMPDEST SWAP5 POP PUSH1 0x20 DUP7 ADD CALLDATALOAD PUSH2 0x501A DUP2 PUSH2 0x59F4 JUMP JUMPDEST SWAP5 SWAP8 SWAP5 SWAP7 POP POP POP POP PUSH1 0x40 DUP4 ADD CALLDATALOAD SWAP3 PUSH1 0x60 DUP2 ADD CALLDATALOAD SWAP3 PUSH1 0x80 SWAP1 SWAP2 ADD CALLDATALOAD SWAP2 POP JUMP JUMPDEST PUSH1 0x0 DUP1 PUSH1 0x40 DUP4 DUP6 SUB SLT ISZERO PUSH2 0x504A JUMPI DUP2 DUP3 REVERT JUMPDEST DUP3 CALLDATALOAD PUSH2 0x5055 DUP2 PUSH2 0x59F4 JUMP JUMPDEST SWAP2 POP PUSH1 0x20 DUP4 ADD CALLDATALOAD PUSH2 0x4EDC DUP2 PUSH2 0x5A09 JUMP JUMPDEST PUSH1 0x0 DUP1 PUSH1 0x40 DUP4 DUP6 SUB SLT ISZERO PUSH2 0x5077 JUMPI DUP2 DUP3 REVERT JUMPDEST DUP3 CALLDATALOAD PUSH2 0x5082 DUP2 PUSH2 0x59F4 JUMP JUMPDEST SWAP5 PUSH1 0x20 SWAP4 SWAP1 SWAP4 ADD CALLDATALOAD SWAP4 POP POP POP JUMP JUMPDEST PUSH1 0x0 DUP1 PUSH1 0x0 PUSH1 0x60 DUP5 DUP7 SUB SLT ISZERO PUSH2 0x50A4 JUMPI DUP1 DUP2 REVERT JUMPDEST DUP4 CALLDATALOAD PUSH2 0x50AF DUP2 PUSH2 0x59F4 JUMP JUMPDEST SWAP6 PUSH1 0x20 DUP6 ADD CALLDATALOAD SWAP6 POP PUSH1 0x40 SWAP1 SWAP5 ADD CALLDATALOAD SWAP4 SWAP3 POP POP POP JUMP JUMPDEST PUSH1 0x0 DUP1 PUSH1 0x20 DUP4 DUP6 SUB SLT ISZERO PUSH2 0x50D6 JUMPI DUP2 DUP3 REVERT JUMPDEST DUP3 CALLDATALOAD PUSH1 0x1 PUSH1 0x1 PUSH1 0x40 SHL SUB DUP2 GT ISZERO PUSH2 0x50EB JUMPI DUP3 DUP4 REVERT JUMPDEST PUSH2 0x50F7 DUP6 DUP3 DUP7 ADD PUSH2 0x4E2E JUMP JUMPDEST SWAP1 SWAP7 SWAP1 SWAP6 POP SWAP4 POP POP POP POP JUMP JUMPDEST PUSH1 0x0 DUP1 PUSH1 0x0 PUSH1 0x40 DUP5 DUP7 SUB SLT ISZERO PUSH2 0x5117 JUMPI DUP1 DUP2 REVERT JUMPDEST DUP4 CALLDATALOAD PUSH1 0x1 PUSH1 0x1 PUSH1 0x40 SHL SUB DUP2 GT ISZERO PUSH2 0x512C JUMPI DUP2 DUP3 REVERT JUMPDEST PUSH2 0x5138 DUP7 DUP3 DUP8 ADD PUSH2 0x4E2E JUMP JUMPDEST SWAP1 SWAP8 SWAP1 SWAP7 POP PUSH1 0x20 SWAP6 SWAP1 SWAP6 ADD CALLDATALOAD SWAP5 SWAP4 POP POP POP POP JUMP JUMPDEST PUSH1 0x0 PUSH1 0x20 DUP3 DUP5 SUB SLT ISZERO PUSH2 0x515D JUMPI DUP1 DUP2 REVERT JUMPDEST DUP2 MLOAD PUSH2 0x2E60 DUP2 PUSH2 0x5A09 JUMP JUMPDEST PUSH1 0x0 PUSH1 0x20 DUP3 DUP5 SUB SLT ISZERO PUSH2 0x5179 JUMPI DUP1 DUP2 REVERT JUMPDEST POP CALLDATALOAD SWAP2 SWAP1 POP JUMP JUMPDEST PUSH1 0x0 DUP1 PUSH1 0x40 DUP4 DUP6 SUB SLT ISZERO PUSH2 0x5192 JUMPI DUP2 DUP3 REVERT JUMPDEST DUP3 CALLDATALOAD SWAP2 POP PUSH1 0x20 DUP4 ADD CALLDATALOAD PUSH2 0x4EDC DUP2 PUSH2 0x59F4 JUMP JUMPDEST PUSH1 0x0 PUSH1 0x20 DUP3 DUP5 SUB SLT ISZERO PUSH2 0x51B5 JUMPI DUP1 DUP2 REVERT JUMPDEST DUP2 CALLDATALOAD PUSH2 0x2E60 DUP2 PUSH2 0x5A17 JUMP JUMPDEST PUSH1 0x0 PUSH1 0x20 DUP3 DUP5 SUB SLT ISZERO PUSH2 0x51D1 JUMPI DUP1 DUP2 REVERT JUMPDEST DUP2 MLOAD PUSH2 0x2E60 DUP2 PUSH2 0x5A17 JUMP JUMPDEST PUSH1 0x0 PUSH1 0x20 DUP3 DUP5 SUB SLT ISZERO PUSH2 0x51ED JUMPI DUP1 DUP2 REVERT JUMPDEST POP MLOAD SWAP2 SWAP1 POP JUMP JUMPDEST PUSH1 0x0 DUP1 PUSH1 0x0 PUSH1 0x40 DUP5 DUP7 SUB SLT ISZERO PUSH2 0x5208 JUMPI DUP1 DUP2 REVERT JUMPDEST DUP4 CALLDATALOAD SWAP3 POP PUSH1 0x20 DUP5 ADD CALLDATALOAD PUSH1 0x1 PUSH1 0x1 PUSH1 0x40 SHL SUB DUP2 GT ISZERO PUSH2 0x5224 JUMPI DUP2 DUP3 REVERT JUMPDEST PUSH2 0x5230 DUP7 DUP3 DUP8 ADD PUSH2 0x4E2E JUMP JUMPDEST SWAP5 SWAP8 SWAP1 SWAP7 POP SWAP4 SWAP5 POP POP POP POP JUMP JUMPDEST PUSH1 0x0 DUP1 PUSH1 0x40 DUP4 DUP6 SUB SLT ISZERO PUSH2 0x524F JUMPI DUP2 DUP3 REVERT JUMPDEST DUP3 CALLDATALOAD SWAP2 POP PUSH1 0x20 DUP4 ADD CALLDATALOAD PUSH1 0x1 PUSH1 0x1 PUSH1 0x40 SHL SUB DUP2 GT ISZERO PUSH2 0x526B JUMPI DUP2 DUP3 REVERT JUMPDEST DUP4 ADD PUSH1 0x1F DUP2 ADD DUP6 SGT PUSH2 0x527B JUMPI DUP2 DUP3 REVERT JUMPDEST PUSH2 0x528A DUP6 DUP3 CALLDATALOAD PUSH1 0x20 DUP5 ADD PUSH2 0x4DB9 JUMP JUMPDEST SWAP2 POP POP SWAP3 POP SWAP3 SWAP1 POP JUMP JUMPDEST PUSH1 0x0 DUP1 PUSH1 0x40 DUP4 DUP6 SUB SLT ISZERO PUSH2 0x52A6 JUMPI DUP2 DUP3 REVERT JUMPDEST POP POP DUP1 CALLDATALOAD SWAP3 PUSH1 0x20 SWAP1 SWAP2 ADD CALLDATALOAD SWAP2 POP JUMP JUMPDEST PUSH1 0x0 DUP1 PUSH1 0x40 DUP4 DUP6 SUB SLT ISZERO PUSH2 0x52C7 JUMPI DUP2 DUP3 REVERT JUMPDEST POP POP DUP1 MLOAD PUSH1 0x20 SWAP1 SWAP2 ADD MLOAD SWAP1 SWAP3 SWAP1 SWAP2 POP JUMP JUMPDEST PUSH1 0x0 DUP1 PUSH1 0x0 PUSH1 0x60 DUP5 DUP7 SUB SLT ISZERO PUSH2 0x52EC JUMPI DUP1 DUP2 REVERT JUMPDEST DUP4 MLOAD SWAP3 POP PUSH1 0x20 DUP5 ADD MLOAD SWAP2 POP PUSH1 0x40 DUP5 ADD MLOAD SWAP1 POP SWAP3 POP SWAP3 POP SWAP3 JUMP JUMPDEST PUSH1 0x0 DUP1 PUSH1 0x0 DUP1 PUSH1 0x80 DUP6 DUP8 SUB SLT ISZERO PUSH2 0x531A JUMPI DUP2 DUP3 REVERT JUMPDEST DUP5 CALLDATALOAD SWAP4 POP PUSH1 0x20 DUP6 ADD CALLDATALOAD SWAP3 POP PUSH1 0x40 DUP6 ADD CALLDATALOAD SWAP2 POP PUSH1 0x60 DUP6 ADD CALLDATALOAD PUSH1 0x3 DUP2 LT PUSH2 0x533D JUMPI DUP2 DUP3 REVERT JUMPDEST SWAP4 SWAP7 SWAP3 SWAP6 POP SWAP1 SWAP4 POP POP JUMP JUMPDEST PUSH1 0x0 PUSH1 0x20 DUP3 DUP5 SUB SLT ISZERO PUSH2 0x5359 JUMPI DUP1 DUP2 REVERT JUMPDEST DUP2 MLOAD PUSH1 0xFF DUP2 AND DUP2 EQ PUSH2 0x2E60 JUMPI DUP2 DUP3 REVERT JUMPDEST PUSH1 0x0 DUP2 MLOAD DUP1 DUP5 MSTORE PUSH2 0x5381 DUP2 PUSH1 0x20 DUP7 ADD PUSH1 0x20 DUP7 ADD PUSH2 0x58F5 JUMP JUMPDEST PUSH1 0x1F ADD PUSH1 0x1F NOT AND SWAP3 SWAP1 SWAP3 ADD PUSH1 0x20 ADD SWAP3 SWAP2 POP POP JUMP JUMPDEST PUSH1 0x3 DUP2 LT PUSH2 0x53A5 JUMPI PUSH2 0x53A5 PUSH2 0x59C8 JUMP JUMPDEST SWAP1 MSTORE JUMP JUMPDEST PUSH1 0x0 DUP4 MLOAD PUSH2 0x53BB DUP2 DUP5 PUSH1 0x20 DUP9 ADD PUSH2 0x58F5 JUMP JUMPDEST DUP4 MLOAD SWAP1 DUP4 ADD SWAP1 PUSH2 0x53CF DUP2 DUP4 PUSH1 0x20 DUP9 ADD PUSH2 0x58F5 JUMP JUMPDEST ADD SWAP5 SWAP4 POP POP POP POP JUMP JUMPDEST PUSH23 0x20B1B1B2B9B9A1B7B73A3937B61D1030B1B1B7BAB73A1 PUSH1 0x4D SHL DUP2 MSTORE PUSH1 0x0 DUP4 MLOAD PUSH2 0x540A DUP2 PUSH1 0x17 DUP6 ADD PUSH1 0x20 DUP9 ADD PUSH2 0x58F5 JUMP JUMPDEST PUSH17 0x1034B99036B4B9B9B4B733903937B6329 PUSH1 0x7D SHL PUSH1 0x17 SWAP2 DUP5 ADD SWAP2 DUP3 ADD MSTORE DUP4 MLOAD PUSH2 0x543B DUP2 PUSH1 0x28 DUP5 ADD PUSH1 0x20 DUP9 ADD PUSH2 0x58F5 JUMP JUMPDEST ADD PUSH1 0x28 ADD SWAP5 SWAP4 POP POP POP POP JUMP JUMPDEST PUSH1 0x1 PUSH1 0x1 PUSH1 0xA0 SHL SUB DUP6 DUP2 AND DUP3 MSTORE DUP5 AND PUSH1 0x20 DUP3 ADD MSTORE PUSH1 0x40 DUP2 ADD DUP4 SWAP1 MSTORE PUSH1 0x80 PUSH1 0x60 DUP3 ADD DUP2 SWAP1 MSTORE PUSH1 0x0 SWAP1 PUSH2 0x547A SWAP1 DUP4 ADD DUP5 PUSH2 0x5369 JUMP JUMPDEST SWAP7 SWAP6 POP POP POP POP POP POP JUMP JUMPDEST PUSH1 0x1 PUSH1 0x1 PUSH1 0xA0 SHL SUB SWAP3 SWAP1 SWAP3 AND DUP3 MSTORE PUSH1 0x20 DUP3 ADD MSTORE PUSH1 0x40 ADD SWAP1 JUMP JUMPDEST PUSH1 0x20 DUP1 DUP3 MSTORE DUP3 MLOAD DUP3 DUP3 ADD DUP2 SWAP1 MSTORE PUSH1 0x0 SWAP2 SWAP1 DUP5 DUP3 ADD SWAP1 PUSH1 0x40 DUP6 ADD SWAP1 DUP5 JUMPDEST DUP2 DUP2 LT ISZERO PUSH2 0x54D5 JUMPI DUP4 MLOAD DUP4 MSTORE SWAP3 DUP5 ADD SWAP3 SWAP2 DUP5 ADD SWAP2 PUSH1 0x1 ADD PUSH2 0x54B9 JUMP JUMPDEST POP SWAP1 SWAP7 SWAP6 POP POP POP POP POP POP JUMP JUMPDEST PUSH1 0x20 DUP2 ADD PUSH2 0x160C DUP3 DUP5 PUSH2 0x5395 JUMP JUMPDEST PUSH1 0xE0 DUP2 ADD PUSH1 0x4 DUP10 LT PUSH2 0x5503 JUMPI PUSH2 0x5503 PUSH2 0x59C8 JUMP JUMPDEST DUP9 DUP3 MSTORE DUP8 PUSH1 0x20 DUP4 ADD MSTORE DUP7 PUSH1 0x40 DUP4 ADD MSTORE DUP6 PUSH1 0x60 DUP4 ADD MSTORE DUP5 PUSH1 0x80 DUP4 ADD MSTORE DUP4 PUSH1 0xA0 DUP4 ADD MSTORE PUSH2 0x5531 PUSH1 0xC0 DUP4 ADD DUP5 PUSH2 0x5395 JUMP JUMPDEST SWAP9 SWAP8 POP POP POP POP POP POP POP POP JUMP JUMPDEST SWAP2 DUP3 MSTORE PUSH1 0x20 DUP3 ADD MSTORE PUSH1 0x40 ADD SWAP1 JUMP JUMPDEST PUSH1 0x20 DUP2 MSTORE PUSH1 0x0 PUSH2 0x2E60 PUSH1 0x20 DUP4 ADD DUP5 PUSH2 0x5369 JUMP JUMPDEST PUSH1 0x20 DUP1 DUP3 MSTORE PUSH1 0x2 SWAP1 DUP3 ADD MSTORE PUSH2 0x4F39 PUSH1 0xF0 SHL PUSH1 0x40 DUP3 ADD MSTORE PUSH1 0x60 ADD SWAP1 JUMP JUMPDEST PUSH1 0x20 DUP1 DUP3 MSTORE PUSH1 0x32 SWAP1 DUP3 ADD MSTORE PUSH32 0x4552433732313A207472616E7366657220746F206E6F6E204552433732315265 PUSH1 0x40 DUP3 ADD MSTORE PUSH18 0x31B2B4BB32B91034B6B83632B6B2B73A32B9 PUSH1 0x71 SHL PUSH1 0x60 DUP3 ADD MSTORE PUSH1 0x80 ADD SWAP1 JUMP JUMPDEST PUSH1 0x20 DUP1 DUP3 MSTORE PUSH1 0x3 SWAP1 DUP3 ADD MSTORE PUSH3 0x4F323 PUSH1 0xEC SHL PUSH1 0x40 DUP3 ADD MSTORE PUSH1 0x60 ADD SWAP1 JUMP JUMPDEST PUSH1 0x20 DUP1 DUP3 MSTORE PUSH1 0x2 SWAP1 DUP3 ADD MSTORE PUSH2 0x4E37 PUSH1 0xF0 SHL PUSH1 0x40 DUP3 ADD MSTORE PUSH1 0x60 ADD SWAP1 JUMP JUMPDEST PUSH1 0x20 DUP1 DUP3 MSTORE DUP2 DUP2 ADD MSTORE PUSH32 0x4F776E61626C653A2063616C6C6572206973206E6F7420746865206F776E6572 PUSH1 0x40 DUP3 ADD MSTORE PUSH1 0x60 ADD SWAP1 JUMP JUMPDEST PUSH1 0x20 DUP1 DUP3 MSTORE PUSH1 0x31 SWAP1 DUP3 ADD MSTORE PUSH32 0x4552433732313A207472616E736665722063616C6C6572206973206E6F74206F PUSH1 0x40 DUP3 ADD MSTORE PUSH17 0x1DDB995C881B9BDC88185C1C1C9BDD9959 PUSH1 0x7A SHL PUSH1 0x60 DUP3 ADD MSTORE PUSH1 0x80 ADD SWAP1 JUMP JUMPDEST PUSH1 0x20 DUP1 DUP3 MSTORE PUSH1 0x2 SWAP1 DUP3 ADD MSTORE PUSH2 0x4F31 PUSH1 0xF0 SHL PUSH1 0x40 DUP3 ADD MSTORE PUSH1 0x60 ADD SWAP1 JUMP JUMPDEST PUSH1 0x20 DUP1 DUP3 MSTORE PUSH1 0x2 SWAP1 DUP3 ADD MSTORE PUSH2 0x13CD PUSH1 0xF2 SHL PUSH1 0x40 DUP3 ADD MSTORE PUSH1 0x60 ADD SWAP1 JUMP JUMPDEST DUP5 DUP2 MSTORE PUSH1 0x20 DUP2 ADD DUP5 SWAP1 MSTORE PUSH1 0x80 DUP2 ADD PUSH2 0x56DE PUSH1 0x40 DUP4 ADD DUP6 PUSH2 0x5395 JUMP JUMPDEST DUP3 ISZERO ISZERO PUSH1 0x60 DUP4 ADD MSTORE SWAP6 SWAP5 POP POP POP POP POP JUMP JUMPDEST DUP5 DUP2 MSTORE PUSH1 0x20 DUP2 ADD DUP5 SWAP1 MSTORE PUSH1 0x80 DUP2 ADD PUSH2 0x570A PUSH1 0x40 DUP4 ADD DUP6 PUSH2 0x5395 JUMP JUMPDEST DUP3 PUSH1 0x60 DUP4 ADD MSTORE SWAP6 SWAP5 POP POP POP POP POP JUMP JUMPDEST DUP4 DUP2 MSTORE DUP3 PUSH1 0x20 DUP3 ADD MSTORE PUSH1 0x60 PUSH1 0x40 DUP3 ADD MSTORE PUSH1 0x0 PUSH2 0x3AA1 PUSH1 0x60 DUP4 ADD DUP5 PUSH2 0x5369 JUMP JUMPDEST SWAP3 DUP4 MSTORE PUSH1 0x20 DUP4 ADD SWAP2 SWAP1 SWAP2 MSTORE PUSH1 0x40 DUP3 ADD MSTORE PUSH1 0x60 ADD SWAP1 JUMP JUMPDEST DUP8 DUP2 MSTORE PUSH1 0x20 DUP2 ADD DUP8 SWAP1 MSTORE PUSH1 0x40 DUP2 ADD DUP7 SWAP1 MSTORE PUSH1 0xE0 DUP2 ADD PUSH2 0x5770 PUSH1 0x60 DUP4 ADD DUP8 PUSH2 0x5395 JUMP JUMPDEST PUSH1 0x80 DUP3 ADD SWAP5 SWAP1 SWAP5 MSTORE PUSH1 0x1 PUSH1 0x1 PUSH1 0xA0 SHL SUB SWAP3 DUP4 AND PUSH1 0xA0 DUP3 ADD MSTORE SWAP2 AND PUSH1 0xC0 SWAP1 SWAP2 ADD MSTORE SWAP5 SWAP4 POP POP POP POP JUMP JUMPDEST PUSH1 0x0 DUP3 NOT DUP3 GT ISZERO PUSH2 0x57AB JUMPI PUSH2 0x57AB PUSH2 0x599C JUMP JUMPDEST POP ADD SWAP1 JUMP JUMPDEST PUSH1 0x0 DUP3 PUSH2 0x57BF JUMPI PUSH2 0x57BF PUSH2 0x59B2 JUMP JUMPDEST POP DIV SWAP1 JUMP JUMPDEST PUSH1 0x1 DUP2 DUP2 JUMPDEST DUP1 DUP6 GT ISZERO PUSH2 0x57FF JUMPI DUP2 PUSH1 0x0 NOT DIV DUP3 GT ISZERO PUSH2 0x57E5 JUMPI PUSH2 0x57E5 PUSH2 0x599C JUMP JUMPDEST DUP1 DUP6 AND ISZERO PUSH2 0x57F2 JUMPI SWAP2 DUP2 MUL SWAP2 JUMPDEST SWAP4 DUP5 SHR SWAP4 SWAP1 DUP1 MUL SWAP1 PUSH2 0x57C9 JUMP JUMPDEST POP SWAP3 POP SWAP3 SWAP1 POP JUMP JUMPDEST PUSH1 0x0 PUSH2 0x2E60 DUP4 DUP4 PUSH2 0x581E JUMP JUMPDEST PUSH1 0x0 PUSH2 0x2E60 PUSH1 0xFF DUP5 AND DUP4 JUMPDEST PUSH1 0x0 DUP3 PUSH2 0x582D JUMPI POP PUSH1 0x1 PUSH2 0x160C JUMP JUMPDEST DUP2 PUSH2 0x583A JUMPI POP PUSH1 0x0 PUSH2 0x160C JUMP JUMPDEST DUP2 PUSH1 0x1 DUP2 EQ PUSH2 0x5850 JUMPI PUSH1 0x2 DUP2 EQ PUSH2 0x585A JUMPI PUSH2 0x5876 JUMP JUMPDEST PUSH1 0x1 SWAP2 POP POP PUSH2 0x160C JUMP JUMPDEST PUSH1 0xFF DUP5 GT ISZERO PUSH2 0x586B JUMPI PUSH2 0x586B PUSH2 0x599C JUMP JUMPDEST POP POP PUSH1 0x1 DUP3 SHL PUSH2 0x160C JUMP JUMPDEST POP PUSH1 0x20 DUP4 LT PUSH2 0x133 DUP4 LT AND PUSH1 0x4E DUP5 LT PUSH1 0xB DUP5 LT AND OR ISZERO PUSH2 0x5899 JUMPI POP DUP2 DUP2 EXP PUSH2 0x160C JUMP JUMPDEST PUSH2 0x58A3 DUP4 DUP4 PUSH2 0x57C4 JUMP JUMPDEST DUP1 PUSH1 0x0 NOT DIV DUP3 GT ISZERO PUSH2 0x58B7 JUMPI PUSH2 0x58B7 PUSH2 0x599C JUMP JUMPDEST MUL SWAP4 SWAP3 POP POP POP JUMP JUMPDEST PUSH1 0x0 DUP2 PUSH1 0x0 NOT DIV DUP4 GT DUP3 ISZERO ISZERO AND ISZERO PUSH2 0x58D9 JUMPI PUSH2 0x58D9 PUSH2 0x599C JUMP JUMPDEST POP MUL SWAP1 JUMP JUMPDEST PUSH1 0x0 DUP3 DUP3 LT ISZERO PUSH2 0x58F0 JUMPI PUSH2 0x58F0 PUSH2 0x599C JUMP JUMPDEST POP SUB SWAP1 JUMP JUMPDEST PUSH1 0x0 JUMPDEST DUP4 DUP2 LT ISZERO PUSH2 0x5910 JUMPI DUP2 DUP2 ADD MLOAD DUP4 DUP3 ADD MSTORE PUSH1 0x20 ADD PUSH2 0x58F8 JUMP JUMPDEST DUP4 DUP2 GT ISZERO PUSH2 0x2017 JUMPI POP POP PUSH1 0x0 SWAP2 ADD MSTORE JUMP JUMPDEST PUSH1 0x0 DUP2 PUSH2 0x5930 JUMPI PUSH2 0x5930 PUSH2 0x599C JUMP JUMPDEST POP PUSH1 0x0 NOT ADD SWAP1 JUMP JUMPDEST PUSH1 0x1 DUP2 DUP2 SHR SWAP1 DUP3 AND DUP1 PUSH2 0x594C JUMPI PUSH1 0x7F DUP3 AND SWAP2 POP JUMPDEST PUSH1 0x20 DUP3 LT DUP2 EQ ISZERO PUSH2 0x16E3 JUMPI PUSH4 0x4E487B71 PUSH1 0xE0 SHL PUSH1 0x0 MSTORE PUSH1 0x22 PUSH1 0x4 MSTORE PUSH1 0x24 PUSH1 0x0 REVERT JUMPDEST PUSH1 0x0 PUSH1 0x0 NOT DUP3 EQ ISZERO PUSH2 0x5981 JUMPI PUSH2 0x5981 PUSH2 0x599C JUMP JUMPDEST POP PUSH1 0x1 ADD SWAP1 JUMP JUMPDEST PUSH1 0x0 DUP3 PUSH2 0x5997 JUMPI PUSH2 0x5997 PUSH2 0x59B2 JUMP JUMPDEST POP MOD SWAP1 JUMP JUMPDEST PUSH4 0x4E487B71 PUSH1 0xE0 SHL PUSH1 0x0 MSTORE PUSH1 0x11 PUSH1 0x4 MSTORE PUSH1 0x24 PUSH1 0x0 REVERT JUMPDEST PUSH4 0x4E487B71 PUSH1 0xE0 SHL PUSH1 0x0 MSTORE PUSH1 0x12 PUSH1 0x4 MSTORE PUSH1 0x24 PUSH1 0x0 REVERT JUMPDEST PUSH4 0x4E487B71 PUSH1 0xE0 SHL PUSH1 0x0 MSTORE PUSH1 0x21 PUSH1 0x4 MSTORE PUSH1 0x24 PUSH1 0x0 REVERT JUMPDEST PUSH4 0x4E487B71 PUSH1 0xE0 SHL PUSH1 0x0 MSTORE PUSH1 0x41 PUSH1 0x4 MSTORE PUSH1 0x24 PUSH1 0x0 REVERT JUMPDEST PUSH1 0x1 PUSH1 0x1 PUSH1 0xA0 SHL SUB DUP2 AND DUP2 EQ PUSH2 0x1C6F JUMPI PUSH1 0x0 DUP1 REVERT JUMPDEST DUP1 ISZERO ISZERO DUP2 EQ PUSH2 0x1C6F JUMPI PUSH1 0x0 DUP1 REVERT JUMPDEST PUSH1 0x1 PUSH1 0x1 PUSH1 0xE0 SHL SUB NOT DUP2 AND DUP2 EQ PUSH2 0x1C6F JUMPI PUSH1 0x0 DUP1 REVERT INVALID PUSH9 0x747470733A2F2F6761 PUSH21 0x657761792E70696E6174612E636C6F75642F697066 PUSH20 0x2FDDF252AD1BE2C89B69C2B068FC378DAA952BA7 CALL PUSH4 0xC4A11628 CREATE2 GAS 0x4D CREATE2 0x23 0xB3 0xEF DUP3 GASPRICE CALLVALUE RETURNDATASIZE SHR DUP10 SWAP15 PUSH2 0xA4DB SLT 0x24 PUSH23 0x36A6882BF1FEFAE78BEF39170F8D0F5B53E456A2646970 PUSH7 0x73582212208115 XOR 0x4F ADD 0xEC XOR 0x4F 0xDE 0xE1 SWAP4 0xC9 0xCA 0xC5 PUSH29 0x54AC8AF3FBD81814E3824E8F022A8F0B3B64736F6C6343000804003300 ","sha1":"a35dc132c27a06eccd94ad42e454eed629b3e765","source":"pragma solidity ^0.8.0;\n\n// SPDX-License-Identifier: BUSL-1.1\n\nimport \"@openzeppelin/contracts/access/Ownable.sol\";\nimport \"@openzeppelin/contracts/security/ReentrancyGuard.sol\";\nimport \"@openzeppelin/contracts/token/ERC20/ERC20.sol\";\nimport \"../OptionsUtils/OptionConfigUnintialized.sol\";\nimport \"..//OptionsUtils/BufferNFTCore.sol\";\nimport \"../Pool/BufferEpocPoolV2Unintialized.sol\";\nimport \"../Libraries/OptionFeeCalculator.sol\";\n\n/**\n * @author Heisenberg\n * @title Buffer TokenX Bidirectional (Call and Put) Options\n * @notice Buffer TokenX Options Contract\n */\ncontract BufferCashSettledEuropeanOptions is\n    IBufferOptions,\n    Ownable,\n    ReentrancyGuard,\n    BufferNFTCore\n{\n    ERC20 public stableCoin;\n    mapping(uint256 => string) private _tokenURIs;\n    ITwapPriceProvider public priceProvider; // Gives pool's tokenX price in stable coin\n    OptionType public fixedOptionType = OptionType.Call;\n    uint256 public nextTokenId = 0;\n    mapping(uint256 => Option) public options;\n    BufferEpocPoolV2Unintialized public pool;\n    OptionConfigUnintialized public config;\n    mapping(uint256 => uint256) public expiryToRoundID;\n    mapping(uint256 => SlotDetail) public slotDetails;\n\n    uint256 internal contractCreationTimestamp;\n\n    uint256 public constant minimumYield = 5;\n\n    constructor(\n        ERC20 _stableCoin,\n        ITwapPriceProvider pp,\n        BufferEpocPoolV2Unintialized _pool,\n        OptionConfigUnintialized _config\n    ) {\n        stableCoin = _stableCoin;\n        pool = _pool;\n        contractCreationTimestamp = block.timestamp;\n        config = _config;\n        priceProvider = pp;\n        _setupRole(DEFAULT_ADMIN_ROLE, msg.sender);\n    }\n\n    /************************************************\n     *  OPTIONS CORE\n     ***********************************************/\n    /**\n     * @notice Creates a new option\n     * @param amount Option amount in tokenX\n     * @param metadata Option metadata\n     * @return optionID Created option's ID\n     */\n    function create(uint256 amount, string memory metadata)\n        external\n        nonReentrant\n        returns (uint256 optionID)\n    {\n        require(\n            pool.isInitialized() && config.isInitialized(),\n            \"Initialization pending\"\n        );\n        uint256 poolExpiration = pool.fixedExpiry();\n        require(poolExpiration > block.timestamp, \"O1\");\n        uint256 period = poolExpiration - block.timestamp;\n\n        require(period >= 12 hours, \"O1\");\n\n        (uint256 totalFee, uint256 settlementFee, uint256 premium) = fees(\n            period,\n            amount,\n            config.fixedStrike(),\n            fixedOptionType\n        );\n\n        require(\n            totalFee * 365 days * 100 > amount * period * minimumYield,\n            \"O2\"\n        );\n\n        uint256 currentPrice = priceProvider.getUsdPrice();\n        uint256 tokenXDecimals = 10**(ERC20(pool.tokenX()).decimals());\n\n        if (msg.sender != pool.projectOwner()) {\n            // User has to approve first inorder to execute this function\n            bool success = stableCoin.transferFrom(\n                msg.sender,\n                address(this),\n                (totalFee * currentPrice * (10**stableCoin.decimals())) /\n                    (tokenXDecimals * (10**(priceProvider.decimals())))\n            );\n            require(success, \"O3\");\n        }\n\n        Option memory option = Option(\n            State.Active,\n            config.fixedStrike(),\n            amount,\n            2 * amount,\n            premium,\n            poolExpiration,\n            fixedOptionType\n        );\n        optionID = _generateTokenId();\n\n        _setOption(optionID, option);\n        _mint(\n            optionID,\n            msg.sender,\n            createSlot(\n                optionID,\n                option.strike,\n                option.expiration,\n                fixedOptionType\n            )\n        );\n        _setTokenURI(optionID, metadata);\n        _lock(optionID, option.lockedAmount, option.premium);\n\n        if (msg.sender != pool.projectOwner()) {\n            stableCoin.transfer(\n                pool.projectOwner(),\n                (premium * currentPrice * (10**stableCoin.decimals())) /\n                    (tokenXDecimals * (10**(priceProvider.decimals())))\n            );\n            stableCoin.transfer(\n                owner(),\n                (settlementFee * currentPrice * (10**stableCoin.decimals())) /\n                    (tokenXDecimals * (10**(priceProvider.decimals())))\n            );\n            emit PayAdminFee(owner(), settlementFee);\n        }\n\n        emit Create(optionID, msg.sender, settlementFee, totalFee, metadata);\n    }\n\n    function _modifyOption(\n        uint256 optionID,\n        Option memory option,\n        uint256 lockedAmount,\n        uint256 amount,\n        uint256 premium\n    ) internal returns (Option memory modifiedOption) {\n        option.lockedAmount = lockedAmount;\n        option.amount = amount;\n        option.premium = premium;\n        modifiedOption = option;\n        _setOption(optionID, option);\n    }\n\n    function _lock(\n        uint256 id,\n        uint256 lockedAmount,\n        uint256 premium\n    ) internal {\n        pool.lock(id, lockedAmount, premium);\n    }\n\n    /**\n     * @notice Sets the expiry price in the oracle\n     * @dev a roundId must be provided to confirm price validity,\n     * which is the first Chainlink price provided after the expiryTimestamp\n     * @param roundId the first roundId after expiryTimestamp\n     */\n    function setRoundIDForExpiry(uint256 roundId)\n        external\n        returns (bool isCorrectRoundId)\n    {\n        (uint256 roundTimestamp, uint256 price) = priceProvider.getRoundData(\n            roundId\n        );\n        uint256 expiryTimestamp = pool.fixedExpiry();\n        require(expiryTimestamp < roundTimestamp, \"C1\");\n        require(price >= 0, \"C2\");\n        uint256 previousRoundId = roundId - 1;\n        while (!isCorrectRoundId) {\n            (uint256 previousRoundTimestamp, ) = priceProvider.getRoundData(\n                previousRoundId\n            );\n            if (previousRoundTimestamp == 0) {\n                require(previousRoundId > 0, \"C3\");\n                previousRoundId = previousRoundId - 1;\n            } else if (previousRoundTimestamp > expiryTimestamp) {\n                revert(\"C4\");\n            } else {\n                isCorrectRoundId = true;\n                expiryToRoundID[expiryTimestamp] = previousRoundId;\n            }\n        }\n    }\n\n    /**\n     * @notice Unlocks the locked funds if the option was\n     * OTM at the time of expiry otherwise exercises it\n     * @param optionID ID of the option\n     */\n    function unlock(uint256 optionID) public {\n        Option storage option = options[optionID];\n        require(option.expiration <= block.timestamp, \"O4\");\n        require(option.state == State.Active, \"O5\");\n        uint256 roundID = expiryToRoundID[option.expiration];\n        require(roundID > 0, \"O20\");\n        (, uint256 priceAtExpiration) = priceProvider.getRoundData(roundID);\n        if (\n            (option.optionType == OptionType.Call &&\n                priceAtExpiration > option.strike) ||\n            (option.optionType == OptionType.Put &&\n                priceAtExpiration < option.strike)\n        ) {\n            exercise(optionID);\n        } else {\n            option.state = State.Expired;\n            pool.unlock(optionID);\n            burnToken(optionID);\n            emit Expire(optionID, option.premium);\n        }\n    }\n\n    /**\n     * @notice Unlocks an array of options\n     * @param optionIDs array of options\n     */\n    function unlockAll(uint256[] calldata optionIDs) external {\n        uint256 arrayLength = optionIDs.length;\n        for (uint256 i = 0; i < arrayLength; i++) {\n            unlock(optionIDs[i]);\n        }\n    }\n\n    function getPayout(uint256 optionID) public returns (uint256 payout) {\n        Option storage option = options[optionID];\n        require(option.state == State.Active, \"O14\");\n\n        uint256 roundID = expiryToRoundID[option.expiration];\n        require(roundID > 0, \"O20\");\n\n        (, uint256 priceAtExpiration) = priceProvider.getRoundData(roundID);\n\n        payout = option.lockedAmount / 2;\n\n        if (option.optionType == OptionType.Call) {\n            require(option.strike < priceAtExpiration, \"O17\");\n            payout +=\n                ((priceAtExpiration - option.strike) * option.amount) /\n                priceAtExpiration;\n        } else {\n            require(option.strike > priceAtExpiration, \"O18\");\n            payout +=\n                ((option.strike - priceAtExpiration) * option.amount) /\n                priceAtExpiration;\n        }\n\n        if (payout > option.lockedAmount) payout = option.lockedAmount;\n    }\n\n    /**\n     * @notice Exercises an option if it was\n     * ITM at the time of expiry\n     * @param optionID ID of your option\n     */\n    function exercise(uint256 optionID) public returns (uint256 payout) {\n        require(exists(optionID), \"O10\");\n        require(pool.fixedExpiry() <= block.timestamp, \"O4\");\n\n        payout = getPayout(optionID);\n        pool.send(optionID, ownerOf(optionID), payout);\n\n        // Burn the option\n        burnToken(optionID);\n        Option storage option = options[optionID];\n        option.state = State.Exercised;\n\n        emit Exercise(optionID, payout);\n    }\n\n    /**\n     * @notice Used for getting the actual options prices in pool's tokenX\n     * @param period Option period in seconds (1 days <= period <= 4 weeks)\n     * @param amount Option amount\n     * @param strike Strike price of the option\n     * @param optionType call/put\n     * @return total Total price to be paid\n     * @return settlementFee Amount to be distributed to the Buffer token holders\n     * @return premium Amount that covers the price difference in the ITM options\n     */\n    function fees(\n        uint256 period,\n        uint256 amount,\n        uint256 strike,\n        OptionType optionType\n    )\n        public\n        view\n        returns (\n            uint256 total,\n            uint256 settlementFee,\n            uint256 premium\n        )\n    {\n        uint256 currentPrice = priceProvider.getUsdPrice();\n\n        (total, settlementFee, premium) = FeeCalculator.feesSuccessOptions(\n            period,\n            amount,\n            strike,\n            optionType,\n            currentPrice,\n            config,\n            pool\n        );\n    }\n\n    function _generateTokenId() internal returns (uint256) {\n        return nextTokenId++;\n    }\n\n    function _getOption(uint256 optionID)\n        internal\n        view\n        returns (Option memory)\n    {\n        return options[optionID];\n    }\n\n    function _setOption(uint256 optionID, Option memory option) internal {\n        options[optionID] = option;\n    }\n\n    function burn(uint256 tokenId_) external {\n        require(msg.sender == ownerOf(tokenId_), \"O9\");\n        burnToken(tokenId_);\n    }\n\n    /************************************************\n     *  ERC3525 Functions\n     ***********************************************/\n\n    /**\n     * @notice Splits the option\n     * @param optionID OptionId to be splitted\n     * @param splitUnits_ Units to be splitted into\n     * @return newOptionIDs An array of the splitted options\n     */\n    function split(uint256 optionID, uint256[] calldata splitUnits_)\n        external\n        returns (uint256[] memory newOptionIDs)\n    {\n        require(splitUnits_.length > 0, \"N1\");\n        newOptionIDs = new uint256[](splitUnits_.length);\n        Option memory option = _getOption(optionID);\n        uint256 totalUnits = unitsInToken(optionID);\n        uint256 totalChildAmount;\n        uint256 totalChildLockedAmount;\n        uint256 totalChildPremium;\n        // Create child options\n        for (uint256 i = 0; i < splitUnits_.length; i++) {\n            uint256 newOptionID = _generateTokenId();\n            newOptionIDs[i] = newOptionID;\n\n            _split(optionID, newOptionID, splitUnits_[i]);\n\n            uint256 childAmount = (option.amount * splitUnits_[i]) / totalUnits;\n            totalChildAmount += childAmount;\n\n            uint256 childLockedAmount = (option.lockedAmount * splitUnits_[i]) /\n                totalUnits;\n            totalChildLockedAmount += childLockedAmount;\n\n            uint256 childPremium = (option.premium * splitUnits_[i]) /\n                totalUnits;\n            totalChildPremium += childPremium;\n\n            Option memory newOption = Option(\n                option.state,\n                option.strike,\n                childAmount,\n                childLockedAmount,\n                childPremium,\n                option.expiration,\n                option.optionType\n            );\n            _setOption(newOptionID, newOption);\n        }\n        // Modify the parent option once all child options are created\n        option = _modifyOption(\n            optionID,\n            option,\n            option.lockedAmount - totalChildLockedAmount,\n            option.amount - totalChildAmount,\n            option.premium - totalChildPremium\n        );\n        pool.changeLock(optionID, option.lockedAmount, option.premium);\n\n        // Lock the amount in the pool for the child options\n        for (uint256 i = 0; i < splitUnits_.length; i++) {\n            Option memory newOption = _getOption(newOptionIDs[i]);\n            _lock(newOptionIDs[i], newOption.lockedAmount, newOption.premium);\n        }\n    }\n\n    /**\n     * @notice Merges the options\n     * @param optionIDs An array of the optionsIds to be merged\n     * @param targetOptionID OptionId to be merged into\n     */\n    function merge(uint256[] calldata optionIDs, uint256 targetOptionID)\n        external\n    {\n        require(optionIDs.length > 0, \"N4\");\n        Option memory targetOption = _getOption(targetOptionID);\n\n        uint256 totalLockedAmount = targetOption.lockedAmount;\n        uint256 totalAmount = targetOption.amount;\n        uint256 totalPremium = targetOption.premium;\n\n        for (uint256 i = 0; i < optionIDs.length; i++) {\n            Option memory option = _getOption(optionIDs[i]);\n            totalLockedAmount = totalLockedAmount + option.lockedAmount;\n            totalAmount = totalAmount + option.amount;\n            totalPremium = totalPremium + option.premium;\n            pool.unlockWithoutProfit(optionIDs[i]);\n            _merge(optionIDs[i], targetOptionID);\n        }\n        _modifyOption(\n            targetOptionID,\n            targetOption,\n            totalLockedAmount,\n            totalAmount,\n            totalPremium\n        );\n        pool.changeLock(targetOptionID, totalLockedAmount, totalPremium);\n    }\n\n    /**\n     * @notice Transfer part of units of a option to another option.\n     * @param optionID Id of the option to transfer\n     * @param transferUnits_ Amount of units to transfer\n     */\n    function _beforeTransferFrom(uint256 optionID, uint256 transferUnits_)\n        internal\n        returns (\n            uint256 newAmount,\n            uint256 newPremium,\n            uint256 newLockedAmount,\n            Option memory option\n        )\n    {\n        option = _getOption(optionID);\n        uint256 totalUnits = unitsInToken(optionID);\n        newAmount = (option.amount * transferUnits_) / totalUnits;\n        newPremium = (option.premium * transferUnits_) / totalUnits;\n        newLockedAmount = (option.lockedAmount * transferUnits_) / totalUnits;\n\n        option = _modifyOption(\n            optionID,\n            option,\n            option.lockedAmount - newLockedAmount,\n            option.amount - newAmount,\n            option.premium - newPremium\n        );\n        pool.changeLock(optionID, option.lockedAmount, option.premium);\n    }\n\n    /**\n     * @notice Transfer part of units of a option to target address.\n     * @param from_ Address of the option sender\n     * @param to_ Address of the option recipient\n     * @param optionID Id of the option to transfer\n     * @param transferUnits_ Amount of units to transfer\n     */\n    function transferFrom(\n        address from_,\n        address to_,\n        uint256 optionID,\n        uint256 transferUnits_\n    ) external returns (uint256 newOptionID) {\n        newOptionID = _generateTokenId();\n        (\n            uint256 newAmount,\n            uint256 newPremium,\n            uint256 newLockedAmount,\n            Option memory option\n        ) = _beforeTransferFrom(optionID, transferUnits_);\n        Option memory newOption = Option(\n            option.state,\n            option.strike,\n            newAmount,\n            newLockedAmount,\n            newPremium,\n            option.expiration,\n            option.optionType\n        );\n        _setOption(newOptionID, newOption);\n\n        _lock(newOptionID, newLockedAmount, newPremium);\n        _transferUnitsFrom(from_, to_, optionID, newOptionID, transferUnits_);\n    }\n\n    /**\n     * @notice Transfer part of units of a option to another option.\n     * @param from_ Address of the option sender\n     * @param to_ Address of the option recipient\n     * @param optionID Id of the option to transfer\n     * @param targetOptionID Id of the option to receive\n     * @param transferUnits_ Amount of units to transfer\n     */\n    function transferFrom(\n        address from_,\n        address to_,\n        uint256 optionID,\n        uint256 targetOptionID,\n        uint256 transferUnits_\n    ) external virtual {\n        require(exists(targetOptionID), \"N12\");\n        (\n            uint256 newAmount,\n            uint256 newPremium,\n            uint256 newLockedAmount,\n\n        ) = _beforeTransferFrom(optionID, transferUnits_);\n        Option memory targetOption = _getOption(targetOptionID);\n        targetOption = _modifyOption(\n            targetOptionID,\n            targetOption,\n            targetOption.lockedAmount + newLockedAmount,\n            targetOption.amount + newAmount,\n            targetOption.premium + newPremium\n        );\n\n        pool.changeLock(\n            targetOptionID,\n            targetOption.lockedAmount,\n            targetOption.premium\n        );\n        _transferUnitsFrom(\n            from_,\n            to_,\n            optionID,\n            targetOptionID,\n            transferUnits_\n        );\n    }\n\n    function createSlot(\n        uint256 optionID,\n        uint256 strike,\n        uint256 expiration,\n        OptionType optionType\n    ) internal returns (uint256 slot) {\n        slot = uint256(\n            keccak256(abi.encode(strike, expiration, optionType, optionID))\n        );\n        require(!slotDetails[slot].isValid, \"N14\");\n        slotDetails[slot] = SlotDetail(strike, expiration, optionType, true);\n    }\n}\n","sourcePath":"contracts/Call Options/BufferCashSettledEuropeanOptions.sol","type":"contract","deployment":{"address":"0x69B31b250703DfE2B7988DE8444FB0fD24c50824","chainid":"97","blockHeight":20559234}}