{"bytecode":"610bb461003a600b82828239805160001a60731461002d57634e487b7160e01b600052600060045260246000fd5b30600052607381538281f3fe730000000000000000000000000000000000000000301460806040526004361061006c5760003560e01c8063351f62a0146100715780634fe8c640146100a4578063934ce3d6146100c5578063d69bde77146100d8578063dbfa5dd6146100eb578063fbef1d55146100fe575b600080fd5b61008461007f366004610a1d565b610111565b604080519384526020840192909252908201526060015b60405180910390f35b6100b76100b236600461092d565b610211565b60405190815260200161009b565b6100846100d336600461099d565b61035e565b6100b76100e636600461095c565b61039b565b6100846100f936600461084a565b6104d2565b61008461010c366004610a1d565b61050d565b60008060008073__OptionMath____________________________632c607c3b61013c8c888a61039b565b8b8a8f60028e600281111561016157634e487b7160e01b600052602160045260246000fd5b146040518663ffffffff1660e01b8152600401610182959493929190610a91565b60206040518083038186803b15801561019a57600080fd5b505af41580156101ae573d6000803e3d6000fd5b505050506040513d601f19601f820116820180604052508101906101d29190610915565b90506101de8a876105fd565b9250866101eb8b83610b1a565b6101f59190610afa565b91506102018284610ae2565b9350509750975097945050505050565b600080826001600160a01b031663d9ac10d96040518163ffffffff1660e01b815260040160206040518083038186803b15801561024d57600080fd5b505afa158015610261573d6000803e3d6000fd5b505050506040513d601f19601f820116820180604052508101906102859190610915565b9050600081116102c05760405162461bcd60e51b815260206004820152600260248201526109e760f31b604482015260640160405180910390fd5b8084846001600160a01b0316636ab28bc86040518163ffffffff1660e01b815260040160206040518083038186803b1580156102fb57600080fd5b505afa15801561030f573d6000803e3d6000fd5b505050506040513d601f19601f820116820180604052508101906103339190610915565b61033d9190610ae2565b61034c906402540be400610b1a565b6103569190610afa565b949350505050565b60008060006103738a85878c8f8b8e8e61068d565b905061037f8a866105fd565b915061038b8183610ae2565b9250985098509895505050505050565b6000816001600160a01b03166318f88e5b6040518163ffffffff1660e01b815260040160206040518083038186803b1580156103d657600080fd5b505afa1580156103ea573d6000803e3d6000fd5b505050506040513d601f19601f8201168201806040525081019061040e9190610915565b9050600061041c8585610211565b905063ee6b28008111156104ca57826001600160a01b0316636c321c8a6040518163ffffffff1660e01b815260040160206040518083038186803b15801561046357600080fd5b505afa158015610477573d6000803e3d6000fd5b505050506040513d601f19601f8201168201806040525081019061049b9190610915565b6104a963ee6b280083610b39565b6104b39084610b1a565b6104bd9190610afa565b6104c79083610ae2565b91505b509392505050565b60008060006104e48885878a8a610750565b90506104f48860200151866105fd565b91506105008183610ae2565b9250955095509592505050565b60008060008073__OptionMath____________________________632c607c3b6105388c888a61039b565b8b8a8f60028e600281111561055d57634e487b7160e01b600052602160045260246000fd5b146040518663ffffffff1660e01b815260040161057e959493929190610a91565b60206040518083038186803b15801561059657600080fd5b505af41580156105aa573d6000803e3d6000fd5b505050506040513d601f19601f820116820180604052508101906105ce9190610915565b9050866105db8b83610b1a565b6105e59190610afa565b91506105f18a876105fd565b92506102018284610ae2565b60006064826001600160a01b031663f3fa34956040518163ffffffff1660e01b815260040160206040518083038186803b15801561063a57600080fd5b505afa15801561064e573d6000803e3d6000fd5b505050506040513d601f19601f820116820180604052508101906106729190610915565b61067c9085610b1a565b6106869190610afa565b9392505050565b60008073__OptionMath____________________________63d573d6156106b58c8c8c61039b565b89888a89896040518763ffffffff1660e01b81526004016106db96959493929190610ab6565b60206040518083038186803b1580156106f357600080fd5b505af4158015610707573d6000803e3d6000fd5b505050506040513d601f19601f8201168201806040525081019061072b9190610915565b9050846107388b83610b1a565b6107429190610afa565b9a9950505050505050505050565b60008073__OptionMath____________________________63d573d61561077c8960200151898961039b565b6040808b01518b5160608d015160808e015193516001600160e01b031960e088901b1681526107b295948b939291600401610ab6565b60206040518083038186803b1580156107ca57600080fd5b505af41580156107de573d6000803e3d6000fd5b505050506040513d601f19601f820116820180604052508101906108029190610915565b9050838760200151826108159190610b1a565b61081f9190610afa565b979650505050505050565b8035801515811461083a57600080fd5b919050565b803561083a81610b66565b6000806000806000858703610120811215610863578182fd5b60a0811215610870578182fd5b5060405160a081016001600160401b038111828210171561089f57634e487b7160e01b83526041600452602483fd5b80604052508635815260208701356020820152604087013560408201526108c86060880161082a565b60608201526108d96080880161082a565b6080820152945060a0860135935060c086013592506108fa60e0870161083f565b9150610909610100870161083f565b90509295509295909350565b600060208284031215610926578081fd5b5051919050565b6000806040838503121561093f578182fd5b82359150602083013561095181610b66565b809150509250929050565b600080600060608486031215610970578283fd5b83359250602084013561098281610b66565b9150604084013561099281610b66565b809150509250925092565b600080600080600080600080610100898b0312156109b9578283fd5b8835975060208901359650604089013595506109d760608a0161082a565b94506109e560808a0161082a565b935060a0890135925060c08901356109fc81610b66565b915060e0890135610a0c81610b66565b809150509295985092959890939650565b600080600080600080600060e0888a031215610a37578283fd5b873596506020880135955060408801359450606088013560038110610a5a578384fd5b93506080880135925060a0880135610a7181610b66565b915060c0880135610a8181610b66565b8091505092959891949750929550565b9485526020850193909352604084019190915260608301521515608082015260a00190565b95865260208601949094526040850192909252606084015215156080830152151560a082015260c00190565b60008219821115610af557610af5610b50565b500190565b600082610b1557634e487b7160e01b81526012600452602481fd5b500490565b6000816000190483118215151615610b3457610b34610b50565b500290565b600082821015610b4b57610b4b610b50565b500390565b634e487b7160e01b600052601160045260246000fd5b6001600160a01b0381168114610b7b57600080fd5b5056fea264697066735822122004a02867ff727e25093a9a010a5f1634f310210a5cfa62e03390f398932e164f64736f6c63430008040033","bytecodeSha1":"718069576b0d9ecd9a08b432b2af552c4d591c8e","type":"library","abi":[{"inputs":[{"internalType":"uint256","name":"amount","type":"uint256"},{"internalType":"contract BufferEpocPoolV2Unintialized","name":"pool","type":"BufferEpocPoolV2Unintialized"},{"internalType":"contract OptionConfigUnintialized","name":"config","type":"OptionConfigUnintialized"}],"name":"currentImpliedVolatility","outputs":[{"internalType":"uint256","name":"iv","type":"uint256"}],"stateMutability":"view","type":"function"},{"inputs":[{"internalType":"uint256","name":"period","type":"uint256"},{"internalType":"uint256","name":"amount","type":"uint256"},{"internalType":"uint256","name":"strike","type":"uint256"},{"internalType":"enum IBufferOptions.OptionType","name":"optionType","type":"IBufferOptions.OptionType"},{"internalType":"uint256","name":"currentPrice","type":"uint256"},{"internalType":"contract OptionConfigUnintialized","name":"config","type":"OptionConfigUnintialized"},{"internalType":"contract BufferEpocPoolV2Unintialized","name":"pool","type":"BufferEpocPoolV2Unintialized"}],"name":"fees","outputs":[{"internalType":"uint256","name":"total","type":"uint256"},{"internalType":"uint256","name":"settlementFee","type":"uint256"},{"internalType":"uint256","name":"premium","type":"uint256"}],"stateMutability":"view","type":"function"},{"inputs":[{"internalType":"uint256","name":"period","type":"uint256"},{"internalType":"uint256","name":"amount","type":"uint256"},{"internalType":"uint256","name":"strike","type":"uint256"},{"internalType":"bool","name":"isYes","type":"bool"},{"internalType":"bool","name":"isAbove","type":"bool"},{"internalType":"uint256","name":"currentPrice","type":"uint256"},{"internalType":"contract OptionConfigUnintialized","name":"config","type":"OptionConfigUnintialized"},{"internalType":"contract BufferEpocPoolV2Unintialized","name":"pool","type":"BufferEpocPoolV2Unintialized"}],"name":"feesBinary","outputs":[{"internalType":"uint256","name":"total","type":"uint256"},{"internalType":"uint256","name":"settlementFee","type":"uint256"},{"internalType":"uint256","name":"premium","type":"uint256"}],"stateMutability":"view","type":"function"},{"inputs":[{"components":[{"internalType":"uint256","name":"period","type":"uint256"},{"internalType":"uint256","name":"amount","type":"uint256"},{"internalType":"uint256","name":"strike","type":"uint256"},{"internalType":"bool","name":"isYes","type":"bool"},{"internalType":"bool","name":"isAbove","type":"bool"}],"internalType":"struct IBufferOptions.OptionDetails","name":"optionDetails","type":"tuple"},{"internalType":"uint256","name":"currentPrice","type":"uint256"},{"internalType":"uint256","name":"KPI","type":"uint256"},{"internalType":"contract OptionConfigUnintialized","name":"config","type":"OptionConfigUnintialized"},{"internalType":"contract BufferEpocPoolV2Unintialized","name":"pool","type":"BufferEpocPoolV2Unintialized"}],"name":"feesKPIBinary","outputs":[{"internalType":"uint256","name":"total","type":"uint256"},{"internalType":"uint256","name":"settlementFee","type":"uint256"},{"internalType":"uint256","name":"premium","type":"uint256"}],"stateMutability":"view","type":"function"},{"inputs":[{"internalType":"uint256","name":"period","type":"uint256"},{"internalType":"uint256","name":"amount","type":"uint256"},{"internalType":"uint256","name":"strike","type":"uint256"},{"internalType":"enum IBufferOptions.OptionType","name":"optionType","type":"IBufferOptions.OptionType"},{"internalType":"uint256","name":"currentPrice","type":"uint256"},{"internalType":"contract OptionConfigUnintialized","name":"config","type":"OptionConfigUnintialized"},{"internalType":"contract BufferEpocPoolV2Unintialized","name":"pool","type":"BufferEpocPoolV2Unintialized"}],"name":"feesUsd","outputs":[{"internalType":"uint256","name":"total","type":"uint256"},{"internalType":"uint256","name":"settlementFee","type":"uint256"},{"internalType":"uint256","name":"premium","type":"uint256"}],"stateMutability":"view","type":"function"},{"inputs":[{"internalType":"uint256","name":"amount","type":"uint256"},{"internalType":"contract BufferEpocPoolV2Unintialized","name":"pool","type":"BufferEpocPoolV2Unintialized"}],"name":"getNewUtilisation","outputs":[{"internalType":"uint256","name":"utilization","type":"uint256"}],"stateMutability":"view","type":"function"}],"compiler":{"version":"0.8.4+commit.c7e474f2","evm_version":"istanbul","optimizer":{"enabled":true,"runs":1}},"contractName":"FeeCalculator","deployedBytecode":"730000000000000000000000000000000000000000301460806040526004361061006c5760003560e01c8063351f62a0146100715780634fe8c640146100a4578063934ce3d6146100c5578063d69bde77146100d8578063dbfa5dd6146100eb578063fbef1d55146100fe575b600080fd5b61008461007f366004610a1d565b610111565b604080519384526020840192909252908201526060015b60405180910390f35b6100b76100b236600461092d565b610211565b60405190815260200161009b565b6100846100d336600461099d565b61035e565b6100b76100e636600461095c565b61039b565b6100846100f936600461084a565b6104d2565b61008461010c366004610a1d565b61050d565b60008060008073__$21a7d244ba8ae9c6f13b9eaa6b054f8aee$__632c607c3b61013c8c888a61039b565b8b8a8f60028e600281111561016157634e487b7160e01b600052602160045260246000fd5b146040518663ffffffff1660e01b8152600401610182959493929190610a91565b60206040518083038186803b15801561019a57600080fd5b505af41580156101ae573d6000803e3d6000fd5b505050506040513d601f19601f820116820180604052508101906101d29190610915565b90506101de8a876105fd565b9250866101eb8b83610b1a565b6101f59190610afa565b91506102018284610ae2565b9350509750975097945050505050565b600080826001600160a01b031663d9ac10d96040518163ffffffff1660e01b815260040160206040518083038186803b15801561024d57600080fd5b505afa158015610261573d6000803e3d6000fd5b505050506040513d601f19601f820116820180604052508101906102859190610915565b9050600081116102c05760405162461bcd60e51b815260206004820152600260248201526109e760f31b604482015260640160405180910390fd5b8084846001600160a01b0316636ab28bc86040518163ffffffff1660e01b815260040160206040518083038186803b1580156102fb57600080fd5b505afa15801561030f573d6000803e3d6000fd5b505050506040513d601f19601f820116820180604052508101906103339190610915565b61033d9190610ae2565b61034c906402540be400610b1a565b6103569190610afa565b949350505050565b60008060006103738a85878c8f8b8e8e61068d565b905061037f8a866105fd565b915061038b8183610ae2565b9250985098509895505050505050565b6000816001600160a01b03166318f88e5b6040518163ffffffff1660e01b815260040160206040518083038186803b1580156103d657600080fd5b505afa1580156103ea573d6000803e3d6000fd5b505050506040513d601f19601f8201168201806040525081019061040e9190610915565b9050600061041c8585610211565b905063ee6b28008111156104ca57826001600160a01b0316636c321c8a6040518163ffffffff1660e01b815260040160206040518083038186803b15801561046357600080fd5b505afa158015610477573d6000803e3d6000fd5b505050506040513d601f19601f8201168201806040525081019061049b9190610915565b6104a963ee6b280083610b39565b6104b39084610b1a565b6104bd9190610afa565b6104c79083610ae2565b91505b509392505050565b60008060006104e48885878a8a610750565b90506104f48860200151866105fd565b91506105008183610ae2565b9250955095509592505050565b60008060008073__$21a7d244ba8ae9c6f13b9eaa6b054f8aee$__632c607c3b6105388c888a61039b565b8b8a8f60028e600281111561055d57634e487b7160e01b600052602160045260246000fd5b146040518663ffffffff1660e01b815260040161057e959493929190610a91565b60206040518083038186803b15801561059657600080fd5b505af41580156105aa573d6000803e3d6000fd5b505050506040513d601f19601f820116820180604052508101906105ce9190610915565b9050866105db8b83610b1a565b6105e59190610afa565b91506105f18a876105fd565b92506102018284610ae2565b60006064826001600160a01b031663f3fa34956040518163ffffffff1660e01b815260040160206040518083038186803b15801561063a57600080fd5b505afa15801561064e573d6000803e3d6000fd5b505050506040513d601f19601f820116820180604052508101906106729190610915565b61067c9085610b1a565b6106869190610afa565b9392505050565b60008073__$21a7d244ba8ae9c6f13b9eaa6b054f8aee$__63d573d6156106b58c8c8c61039b565b89888a89896040518763ffffffff1660e01b81526004016106db96959493929190610ab6565b60206040518083038186803b1580156106f357600080fd5b505af4158015610707573d6000803e3d6000fd5b505050506040513d601f19601f8201168201806040525081019061072b9190610915565b9050846107388b83610b1a565b6107429190610afa565b9a9950505050505050505050565b60008073__$21a7d244ba8ae9c6f13b9eaa6b054f8aee$__63d573d61561077c8960200151898961039b565b6040808b01518b5160608d015160808e015193516001600160e01b031960e088901b1681526107b295948b939291600401610ab6565b60206040518083038186803b1580156107ca57600080fd5b505af41580156107de573d6000803e3d6000fd5b505050506040513d601f19601f820116820180604052508101906108029190610915565b9050838760200151826108159190610b1a565b61081f9190610afa565b979650505050505050565b8035801515811461083a57600080fd5b919050565b803561083a81610b66565b6000806000806000858703610120811215610863578182fd5b60a0811215610870578182fd5b5060405160a081016001600160401b038111828210171561089f57634e487b7160e01b83526041600452602483fd5b80604052508635815260208701356020820152604087013560408201526108c86060880161082a565b60608201526108d96080880161082a565b6080820152945060a0860135935060c086013592506108fa60e0870161083f565b9150610909610100870161083f565b90509295509295909350565b600060208284031215610926578081fd5b5051919050565b6000806040838503121561093f578182fd5b82359150602083013561095181610b66565b809150509250929050565b600080600060608486031215610970578283fd5b83359250602084013561098281610b66565b9150604084013561099281610b66565b809150509250925092565b600080600080600080600080610100898b0312156109b9578283fd5b8835975060208901359650604089013595506109d760608a0161082a565b94506109e560808a0161082a565b935060a0890135925060c08901356109fc81610b66565b915060e0890135610a0c81610b66565b809150509295985092959890939650565b600080600080600080600060e0888a031215610a37578283fd5b873596506020880135955060408801359450606088013560038110610a5a578384fd5b93506080880135925060a0880135610a7181610b66565b915060c0880135610a8181610b66565b8091505092959891949750929550565b9485526020850193909352604084019190915260608301521515608082015260a00190565b95865260208601949094526040850192909252606084015215156080830152151560a082015260c00190565b60008219821115610af557610af5610b50565b500190565b600082610b1557634e487b7160e01b81526012600452602481fd5b500490565b6000816000190483118215151615610b3457610b34610b50565b500290565b600082821015610b4b57610b4b610b50565b500390565b634e487b7160e01b600052601160045260246000fd5b6001600160a01b0381168114610b7b57600080fd5b5056fea264697066735822122004a02867ff727e25093a9a010a5f1634f310210a5cfa62e03390f398932e164f64736f6c63430008040033","language":"Solidity","natspec":{"methods":{"currentImpliedVolatility(uint256,BufferEpocPoolV2Unintialized,OptionConfigUnintialized)":{"notice":"Calculate the Utilisation adjusted ImpliedVol for the pool according to https://www.desmos.com/calculator/xdmhn97opd","params":{"amount":"Option amount","config":"The option configuration","pool":"The pool selling the option"},"returns":{"iv":"The adjusted ImpliedVol"}},"fees(uint256,uint256,uint256,IBufferOptions.OptionType,uint256,OptionConfigUnintialized,BufferEpocPoolV2Unintialized)":{"notice":"Used for getting the price for Options in tokenX","params":{"amount":"Option amount","config":"The option configuration","currentPrice":"Current price of the underlying asset","optionType":"Type of the Option","period":"Option period in seconds (1 days <= period <= 4 weeks)","pool":"The pool selling the option","strike":"Strike price of the option"},"returns":{"premium":"Amount that covers the price difference in the ITM options","settlementFee":"Amount to be distributed to the Buffer token holders","total":"Total price to be paid"}},"feesBinary(uint256,uint256,uint256,bool,bool,uint256,OptionConfigUnintialized,BufferEpocPoolV2Unintialized)":{"notice":"Used for getting the price for Binary Options","params":{"amount":"Option amount","config":"The option configuration","currentPrice":"Current price of the underlying asset","isAbove":"whether the price will stay above this strike or not","isYes":"whether the option isAbove or not","period":"Option period in seconds (1 days <= period <= 4 weeks)","pool":"The pool selling the option","strike":"Strike price of the option"},"returns":{"premium":"Amount that covers the price difference in the ITM options","settlementFee":"Amount to be distributed to the Buffer token holders","total":"Total price to be paid"}},"feesKPIBinary(IBufferOptions.OptionDetails,uint256,uint256,OptionConfigUnintialized,BufferEpocPoolV2Unintialized)":{"notice":"Used for getting the price for Binary KPI Options","params":{"KPI":"KPI value for option","config":"Option config","currentPrice":"Current price of the tokenX","optionDetails":"Details of the option to be priced","pool":"pool contract"},"returns":{"premium":"Amount that covers the price difference in the ITM options","settlementFee":"Amount to be distributed to the Buffer token holders","total":"Total price to be paid"}},"feesUsd(uint256,uint256,uint256,IBufferOptions.OptionType,uint256,OptionConfigUnintialized,BufferEpocPoolV2Unintialized)":{"notice":"Used for getting the price for Options in USD","params":{"amount":"Option amount","config":"The option configuration","currentPrice":"Current price of the underlying asset","optionType":"Type of the Option","period":"Option period in seconds (1 days <= period <= 4 weeks)","pool":"The pool selling the option","strike":"Strike price of the option"},"returns":{"premium":"Amount that covers the price difference in the ITM options in USD","settlementFee":"Amount to be distributed to the Buffer token holders in USD","total":"Total price to be paid in USD"}},"getNewUtilisation(uint256,BufferEpocPoolV2Unintialized)":{"notice":"Calculate the current Utilisation","params":{"amount":"Option amount","pool":"The pool selling the option"},"returns":{"utilization":"Current utilization"}}},"kind":"dev","version":1},"opcodes":"PUSH20 0x0 ADDRESS EQ PUSH1 0x80 PUSH1 0x40 MSTORE PUSH1 0x4 CALLDATASIZE LT PUSH2 0x6C JUMPI PUSH1 0x0 CALLDATALOAD PUSH1 0xE0 SHR DUP1 PUSH4 0x351F62A0 EQ PUSH2 0x71 JUMPI DUP1 PUSH4 0x4FE8C640 EQ PUSH2 0xA4 JUMPI DUP1 PUSH4 0x934CE3D6 EQ PUSH2 0xC5 JUMPI DUP1 PUSH4 0xD69BDE77 EQ PUSH2 0xD8 JUMPI DUP1 PUSH4 0xDBFA5DD6 EQ PUSH2 0xEB JUMPI DUP1 PUSH4 0xFBEF1D55 EQ PUSH2 0xFE JUMPI JUMPDEST PUSH1 0x0 DUP1 REVERT JUMPDEST PUSH2 0x84 PUSH2 0x7F CALLDATASIZE PUSH1 0x4 PUSH2 0xA1D JUMP JUMPDEST PUSH2 0x111 JUMP JUMPDEST PUSH1 0x40 DUP1 MLOAD SWAP4 DUP5 MSTORE PUSH1 0x20 DUP5 ADD SWAP3 SWAP1 SWAP3 MSTORE SWAP1 DUP3 ADD MSTORE PUSH1 0x60 ADD JUMPDEST PUSH1 0x40 MLOAD DUP1 SWAP2 SUB SWAP1 RETURN JUMPDEST PUSH2 0xB7 PUSH2 0xB2 CALLDATASIZE PUSH1 0x4 PUSH2 0x92D JUMP JUMPDEST PUSH2 0x211 JUMP JUMPDEST PUSH1 0x40 MLOAD SWAP1 DUP2 MSTORE PUSH1 0x20 ADD PUSH2 0x9B JUMP JUMPDEST PUSH2 0x84 PUSH2 0xD3 CALLDATASIZE PUSH1 0x4 PUSH2 0x99D JUMP JUMPDEST PUSH2 0x35E JUMP JUMPDEST PUSH2 0xB7 PUSH2 0xE6 CALLDATASIZE PUSH1 0x4 PUSH2 0x95C JUMP JUMPDEST PUSH2 0x39B JUMP JUMPDEST PUSH2 0x84 PUSH2 0xF9 CALLDATASIZE PUSH1 0x4 PUSH2 0x84A JUMP JUMPDEST PUSH2 0x4D2 JUMP JUMPDEST PUSH2 0x84 PUSH2 0x10C CALLDATASIZE PUSH1 0x4 PUSH2 0xA1D JUMP JUMPDEST PUSH2 0x50D JUMP JUMPDEST PUSH1 0x0 DUP1 PUSH1 0x0 DUP1 PUSH20 0x0 PUSH4 0x2C607C3B PUSH2 0x13C DUP13 DUP9 DUP11 PUSH2 0x39B JUMP JUMPDEST DUP12 DUP11 DUP16 PUSH1 0x2 DUP15 PUSH1 0x2 DUP2 GT ISZERO PUSH2 0x161 JUMPI PUSH4 0x4E487B71 PUSH1 0xE0 SHL PUSH1 0x0 MSTORE PUSH1 0x21 PUSH1 0x4 MSTORE PUSH1 0x24 PUSH1 0x0 REVERT JUMPDEST EQ PUSH1 0x40 MLOAD DUP7 PUSH4 0xFFFFFFFF AND PUSH1 0xE0 SHL DUP2 MSTORE PUSH1 0x4 ADD PUSH2 0x182 SWAP6 SWAP5 SWAP4 SWAP3 SWAP2 SWAP1 PUSH2 0xA91 JUMP JUMPDEST PUSH1 0x20 PUSH1 0x40 MLOAD DUP1 DUP4 SUB DUP2 DUP7 DUP1 EXTCODESIZE ISZERO DUP1 ISZERO PUSH2 0x19A JUMPI PUSH1 0x0 DUP1 REVERT JUMPDEST POP GAS DELEGATECALL ISZERO DUP1 ISZERO PUSH2 0x1AE JUMPI RETURNDATASIZE PUSH1 0x0 DUP1 RETURNDATACOPY RETURNDATASIZE PUSH1 0x0 REVERT JUMPDEST POP POP POP POP PUSH1 0x40 MLOAD RETURNDATASIZE PUSH1 0x1F NOT PUSH1 0x1F DUP3 ADD AND DUP3 ADD DUP1 PUSH1 0x40 MSTORE POP DUP2 ADD SWAP1 PUSH2 0x1D2 SWAP2 SWAP1 PUSH2 0x915 JUMP JUMPDEST SWAP1 POP PUSH2 0x1DE DUP11 DUP8 PUSH2 0x5FD JUMP JUMPDEST SWAP3 POP DUP7 PUSH2 0x1EB DUP12 DUP4 PUSH2 0xB1A JUMP JUMPDEST PUSH2 0x1F5 SWAP2 SWAP1 PUSH2 0xAFA JUMP JUMPDEST SWAP2 POP PUSH2 0x201 DUP3 DUP5 PUSH2 0xAE2 JUMP JUMPDEST SWAP4 POP POP SWAP8 POP SWAP8 POP SWAP8 SWAP5 POP POP POP POP POP JUMP JUMPDEST PUSH1 0x0 DUP1 DUP3 PUSH1 0x1 PUSH1 0x1 PUSH1 0xA0 SHL SUB AND PUSH4 0xD9AC10D9 PUSH1 0x40 MLOAD DUP2 PUSH4 0xFFFFFFFF AND PUSH1 0xE0 SHL DUP2 MSTORE PUSH1 0x4 ADD PUSH1 0x20 PUSH1 0x40 MLOAD DUP1 DUP4 SUB DUP2 DUP7 DUP1 EXTCODESIZE ISZERO DUP1 ISZERO PUSH2 0x24D JUMPI PUSH1 0x0 DUP1 REVERT JUMPDEST POP GAS STATICCALL ISZERO DUP1 ISZERO PUSH2 0x261 JUMPI RETURNDATASIZE PUSH1 0x0 DUP1 RETURNDATACOPY RETURNDATASIZE PUSH1 0x0 REVERT JUMPDEST POP POP POP POP PUSH1 0x40 MLOAD RETURNDATASIZE PUSH1 0x1F NOT PUSH1 0x1F DUP3 ADD AND DUP3 ADD DUP1 PUSH1 0x40 MSTORE POP DUP2 ADD SWAP1 PUSH2 0x285 SWAP2 SWAP1 PUSH2 0x915 JUMP JUMPDEST SWAP1 POP PUSH1 0x0 DUP2 GT PUSH2 0x2C0 JUMPI PUSH1 0x40 MLOAD PUSH3 0x461BCD PUSH1 0xE5 SHL DUP2 MSTORE PUSH1 0x20 PUSH1 0x4 DUP3 ADD MSTORE PUSH1 0x2 PUSH1 0x24 DUP3 ADD MSTORE PUSH2 0x9E7 PUSH1 0xF3 SHL PUSH1 0x44 DUP3 ADD MSTORE PUSH1 0x64 ADD PUSH1 0x40 MLOAD DUP1 SWAP2 SUB SWAP1 REVERT JUMPDEST DUP1 DUP5 DUP5 PUSH1 0x1 PUSH1 0x1 PUSH1 0xA0 SHL SUB AND PUSH4 0x6AB28BC8 PUSH1 0x40 MLOAD DUP2 PUSH4 0xFFFFFFFF AND PUSH1 0xE0 SHL DUP2 MSTORE PUSH1 0x4 ADD PUSH1 0x20 PUSH1 0x40 MLOAD DUP1 DUP4 SUB DUP2 DUP7 DUP1 EXTCODESIZE ISZERO DUP1 ISZERO PUSH2 0x2FB JUMPI PUSH1 0x0 DUP1 REVERT JUMPDEST POP GAS STATICCALL ISZERO DUP1 ISZERO PUSH2 0x30F JUMPI RETURNDATASIZE PUSH1 0x0 DUP1 RETURNDATACOPY RETURNDATASIZE PUSH1 0x0 REVERT JUMPDEST POP POP POP POP PUSH1 0x40 MLOAD RETURNDATASIZE PUSH1 0x1F NOT PUSH1 0x1F DUP3 ADD AND DUP3 ADD DUP1 PUSH1 0x40 MSTORE POP DUP2 ADD SWAP1 PUSH2 0x333 SWAP2 SWAP1 PUSH2 0x915 JUMP JUMPDEST PUSH2 0x33D SWAP2 SWAP1 PUSH2 0xAE2 JUMP JUMPDEST PUSH2 0x34C SWAP1 PUSH5 0x2540BE400 PUSH2 0xB1A JUMP JUMPDEST PUSH2 0x356 SWAP2 SWAP1 PUSH2 0xAFA JUMP JUMPDEST SWAP5 SWAP4 POP POP POP POP JUMP JUMPDEST PUSH1 0x0 DUP1 PUSH1 0x0 PUSH2 0x373 DUP11 DUP6 DUP8 DUP13 DUP16 DUP12 DUP15 DUP15 PUSH2 0x68D JUMP JUMPDEST SWAP1 POP PUSH2 0x37F DUP11 DUP7 PUSH2 0x5FD JUMP JUMPDEST SWAP2 POP PUSH2 0x38B DUP2 DUP4 PUSH2 0xAE2 JUMP JUMPDEST SWAP3 POP SWAP9 POP SWAP9 POP SWAP9 SWAP6 POP POP POP POP POP POP JUMP JUMPDEST PUSH1 0x0 DUP2 PUSH1 0x1 PUSH1 0x1 PUSH1 0xA0 SHL SUB AND PUSH4 0x18F88E5B PUSH1 0x40 MLOAD DUP2 PUSH4 0xFFFFFFFF AND PUSH1 0xE0 SHL DUP2 MSTORE PUSH1 0x4 ADD PUSH1 0x20 PUSH1 0x40 MLOAD DUP1 DUP4 SUB DUP2 DUP7 DUP1 EXTCODESIZE ISZERO DUP1 ISZERO PUSH2 0x3D6 JUMPI PUSH1 0x0 DUP1 REVERT JUMPDEST POP GAS STATICCALL ISZERO DUP1 ISZERO PUSH2 0x3EA JUMPI RETURNDATASIZE PUSH1 0x0 DUP1 RETURNDATACOPY RETURNDATASIZE PUSH1 0x0 REVERT JUMPDEST POP POP POP POP PUSH1 0x40 MLOAD RETURNDATASIZE PUSH1 0x1F NOT PUSH1 0x1F DUP3 ADD AND DUP3 ADD DUP1 PUSH1 0x40 MSTORE POP DUP2 ADD SWAP1 PUSH2 0x40E SWAP2 SWAP1 PUSH2 0x915 JUMP JUMPDEST SWAP1 POP PUSH1 0x0 PUSH2 0x41C DUP6 DUP6 PUSH2 0x211 JUMP JUMPDEST SWAP1 POP PUSH4 0xEE6B2800 DUP2 GT ISZERO PUSH2 0x4CA JUMPI DUP3 PUSH1 0x1 PUSH1 0x1 PUSH1 0xA0 SHL SUB AND PUSH4 0x6C321C8A PUSH1 0x40 MLOAD DUP2 PUSH4 0xFFFFFFFF AND PUSH1 0xE0 SHL DUP2 MSTORE PUSH1 0x4 ADD PUSH1 0x20 PUSH1 0x40 MLOAD DUP1 DUP4 SUB DUP2 DUP7 DUP1 EXTCODESIZE ISZERO DUP1 ISZERO PUSH2 0x463 JUMPI PUSH1 0x0 DUP1 REVERT JUMPDEST POP GAS STATICCALL ISZERO DUP1 ISZERO PUSH2 0x477 JUMPI RETURNDATASIZE PUSH1 0x0 DUP1 RETURNDATACOPY RETURNDATASIZE PUSH1 0x0 REVERT JUMPDEST POP POP POP POP PUSH1 0x40 MLOAD RETURNDATASIZE PUSH1 0x1F NOT PUSH1 0x1F DUP3 ADD AND DUP3 ADD DUP1 PUSH1 0x40 MSTORE POP DUP2 ADD SWAP1 PUSH2 0x49B SWAP2 SWAP1 PUSH2 0x915 JUMP JUMPDEST PUSH2 0x4A9 PUSH4 0xEE6B2800 DUP4 PUSH2 0xB39 JUMP JUMPDEST PUSH2 0x4B3 SWAP1 DUP5 PUSH2 0xB1A JUMP JUMPDEST PUSH2 0x4BD SWAP2 SWAP1 PUSH2 0xAFA JUMP JUMPDEST PUSH2 0x4C7 SWAP1 DUP4 PUSH2 0xAE2 JUMP JUMPDEST SWAP2 POP JUMPDEST POP SWAP4 SWAP3 POP POP POP JUMP JUMPDEST PUSH1 0x0 DUP1 PUSH1 0x0 PUSH2 0x4E4 DUP9 DUP6 DUP8 DUP11 DUP11 PUSH2 0x750 JUMP JUMPDEST SWAP1 POP PUSH2 0x4F4 DUP9 PUSH1 0x20 ADD MLOAD DUP7 PUSH2 0x5FD JUMP JUMPDEST SWAP2 POP PUSH2 0x500 DUP2 DUP4 PUSH2 0xAE2 JUMP JUMPDEST SWAP3 POP SWAP6 POP SWAP6 POP SWAP6 SWAP3 POP POP POP JUMP JUMPDEST PUSH1 0x0 DUP1 PUSH1 0x0 DUP1 PUSH20 0x0 PUSH4 0x2C607C3B PUSH2 0x538 DUP13 DUP9 DUP11 PUSH2 0x39B JUMP JUMPDEST DUP12 DUP11 DUP16 PUSH1 0x2 DUP15 PUSH1 0x2 DUP2 GT ISZERO PUSH2 0x55D JUMPI PUSH4 0x4E487B71 PUSH1 0xE0 SHL PUSH1 0x0 MSTORE PUSH1 0x21 PUSH1 0x4 MSTORE PUSH1 0x24 PUSH1 0x0 REVERT JUMPDEST EQ PUSH1 0x40 MLOAD DUP7 PUSH4 0xFFFFFFFF AND PUSH1 0xE0 SHL DUP2 MSTORE PUSH1 0x4 ADD PUSH2 0x57E SWAP6 SWAP5 SWAP4 SWAP3 SWAP2 SWAP1 PUSH2 0xA91 JUMP JUMPDEST PUSH1 0x20 PUSH1 0x40 MLOAD DUP1 DUP4 SUB DUP2 DUP7 DUP1 EXTCODESIZE ISZERO DUP1 ISZERO PUSH2 0x596 JUMPI PUSH1 0x0 DUP1 REVERT JUMPDEST POP GAS DELEGATECALL ISZERO DUP1 ISZERO PUSH2 0x5AA JUMPI RETURNDATASIZE PUSH1 0x0 DUP1 RETURNDATACOPY RETURNDATASIZE PUSH1 0x0 REVERT JUMPDEST POP POP POP POP PUSH1 0x40 MLOAD RETURNDATASIZE PUSH1 0x1F NOT PUSH1 0x1F DUP3 ADD AND DUP3 ADD DUP1 PUSH1 0x40 MSTORE POP DUP2 ADD SWAP1 PUSH2 0x5CE SWAP2 SWAP1 PUSH2 0x915 JUMP JUMPDEST SWAP1 POP DUP7 PUSH2 0x5DB DUP12 DUP4 PUSH2 0xB1A JUMP JUMPDEST PUSH2 0x5E5 SWAP2 SWAP1 PUSH2 0xAFA JUMP JUMPDEST SWAP2 POP PUSH2 0x5F1 DUP11 DUP8 PUSH2 0x5FD JUMP JUMPDEST SWAP3 POP PUSH2 0x201 DUP3 DUP5 PUSH2 0xAE2 JUMP JUMPDEST PUSH1 0x0 PUSH1 0x64 DUP3 PUSH1 0x1 PUSH1 0x1 PUSH1 0xA0 SHL SUB AND PUSH4 0xF3FA3495 PUSH1 0x40 MLOAD DUP2 PUSH4 0xFFFFFFFF AND PUSH1 0xE0 SHL DUP2 MSTORE PUSH1 0x4 ADD PUSH1 0x20 PUSH1 0x40 MLOAD DUP1 DUP4 SUB DUP2 DUP7 DUP1 EXTCODESIZE ISZERO DUP1 ISZERO PUSH2 0x63A JUMPI PUSH1 0x0 DUP1 REVERT JUMPDEST POP GAS STATICCALL ISZERO DUP1 ISZERO PUSH2 0x64E JUMPI RETURNDATASIZE PUSH1 0x0 DUP1 RETURNDATACOPY RETURNDATASIZE PUSH1 0x0 REVERT JUMPDEST POP POP POP POP PUSH1 0x40 MLOAD RETURNDATASIZE PUSH1 0x1F NOT PUSH1 0x1F DUP3 ADD AND DUP3 ADD DUP1 PUSH1 0x40 MSTORE POP DUP2 ADD SWAP1 PUSH2 0x672 SWAP2 SWAP1 PUSH2 0x915 JUMP JUMPDEST PUSH2 0x67C SWAP1 DUP6 PUSH2 0xB1A JUMP JUMPDEST PUSH2 0x686 SWAP2 SWAP1 PUSH2 0xAFA JUMP JUMPDEST SWAP4 SWAP3 POP POP POP JUMP JUMPDEST PUSH1 0x0 DUP1 PUSH20 0x0 PUSH4 0xD573D615 PUSH2 0x6B5 DUP13 DUP13 DUP13 PUSH2 0x39B JUMP JUMPDEST DUP10 DUP9 DUP11 DUP10 DUP10 PUSH1 0x40 MLOAD DUP8 PUSH4 0xFFFFFFFF AND PUSH1 0xE0 SHL DUP2 MSTORE PUSH1 0x4 ADD PUSH2 0x6DB SWAP7 SWAP6 SWAP5 SWAP4 SWAP3 SWAP2 SWAP1 PUSH2 0xAB6 JUMP JUMPDEST PUSH1 0x20 PUSH1 0x40 MLOAD DUP1 DUP4 SUB DUP2 DUP7 DUP1 EXTCODESIZE ISZERO DUP1 ISZERO PUSH2 0x6F3 JUMPI PUSH1 0x0 DUP1 REVERT JUMPDEST POP GAS DELEGATECALL ISZERO DUP1 ISZERO PUSH2 0x707 JUMPI RETURNDATASIZE PUSH1 0x0 DUP1 RETURNDATACOPY RETURNDATASIZE PUSH1 0x0 REVERT JUMPDEST POP POP POP POP PUSH1 0x40 MLOAD RETURNDATASIZE PUSH1 0x1F NOT PUSH1 0x1F DUP3 ADD AND DUP3 ADD DUP1 PUSH1 0x40 MSTORE POP DUP2 ADD SWAP1 PUSH2 0x72B SWAP2 SWAP1 PUSH2 0x915 JUMP JUMPDEST SWAP1 POP DUP5 PUSH2 0x738 DUP12 DUP4 PUSH2 0xB1A JUMP JUMPDEST PUSH2 0x742 SWAP2 SWAP1 PUSH2 0xAFA JUMP JUMPDEST SWAP11 SWAP10 POP POP POP POP POP POP POP POP POP POP JUMP JUMPDEST PUSH1 0x0 DUP1 PUSH20 0x0 PUSH4 0xD573D615 PUSH2 0x77C DUP10 PUSH1 0x20 ADD MLOAD DUP10 DUP10 PUSH2 0x39B JUMP JUMPDEST PUSH1 0x40 DUP1 DUP12 ADD MLOAD DUP12 MLOAD PUSH1 0x60 DUP14 ADD MLOAD PUSH1 0x80 DUP15 ADD MLOAD SWAP4 MLOAD PUSH1 0x1 PUSH1 0x1 PUSH1 0xE0 SHL SUB NOT PUSH1 0xE0 DUP9 SWAP1 SHL AND DUP2 MSTORE PUSH2 0x7B2 SWAP6 SWAP5 DUP12 SWAP4 SWAP3 SWAP2 PUSH1 0x4 ADD PUSH2 0xAB6 JUMP JUMPDEST PUSH1 0x20 PUSH1 0x40 MLOAD DUP1 DUP4 SUB DUP2 DUP7 DUP1 EXTCODESIZE ISZERO DUP1 ISZERO PUSH2 0x7CA JUMPI PUSH1 0x0 DUP1 REVERT JUMPDEST POP GAS DELEGATECALL ISZERO DUP1 ISZERO PUSH2 0x7DE JUMPI RETURNDATASIZE PUSH1 0x0 DUP1 RETURNDATACOPY RETURNDATASIZE PUSH1 0x0 REVERT JUMPDEST POP POP POP POP PUSH1 0x40 MLOAD RETURNDATASIZE PUSH1 0x1F NOT PUSH1 0x1F DUP3 ADD AND DUP3 ADD DUP1 PUSH1 0x40 MSTORE POP DUP2 ADD SWAP1 PUSH2 0x802 SWAP2 SWAP1 PUSH2 0x915 JUMP JUMPDEST SWAP1 POP DUP4 DUP8 PUSH1 0x20 ADD MLOAD DUP3 PUSH2 0x815 SWAP2 SWAP1 PUSH2 0xB1A JUMP JUMPDEST PUSH2 0x81F SWAP2 SWAP1 PUSH2 0xAFA JUMP JUMPDEST SWAP8 SWAP7 POP POP POP POP POP POP POP JUMP JUMPDEST DUP1 CALLDATALOAD DUP1 ISZERO ISZERO DUP2 EQ PUSH2 0x83A JUMPI PUSH1 0x0 DUP1 REVERT JUMPDEST SWAP2 SWAP1 POP JUMP JUMPDEST DUP1 CALLDATALOAD PUSH2 0x83A DUP2 PUSH2 0xB66 JUMP JUMPDEST PUSH1 0x0 DUP1 PUSH1 0x0 DUP1 PUSH1 0x0 DUP6 DUP8 SUB PUSH2 0x120 DUP2 SLT ISZERO PUSH2 0x863 JUMPI DUP2 DUP3 REVERT JUMPDEST PUSH1 0xA0 DUP2 SLT ISZERO PUSH2 0x870 JUMPI DUP2 DUP3 REVERT JUMPDEST POP PUSH1 0x40 MLOAD PUSH1 0xA0 DUP2 ADD PUSH1 0x1 PUSH1 0x1 PUSH1 0x40 SHL SUB DUP2 GT DUP3 DUP3 LT OR ISZERO PUSH2 0x89F JUMPI PUSH4 0x4E487B71 PUSH1 0xE0 SHL DUP4 MSTORE PUSH1 0x41 PUSH1 0x4 MSTORE PUSH1 0x24 DUP4 REVERT JUMPDEST DUP1 PUSH1 0x40 MSTORE POP DUP7 CALLDATALOAD DUP2 MSTORE PUSH1 0x20 DUP8 ADD CALLDATALOAD PUSH1 0x20 DUP3 ADD MSTORE PUSH1 0x40 DUP8 ADD CALLDATALOAD PUSH1 0x40 DUP3 ADD MSTORE PUSH2 0x8C8 PUSH1 0x60 DUP9 ADD PUSH2 0x82A JUMP JUMPDEST PUSH1 0x60 DUP3 ADD MSTORE PUSH2 0x8D9 PUSH1 0x80 DUP9 ADD PUSH2 0x82A JUMP JUMPDEST PUSH1 0x80 DUP3 ADD MSTORE SWAP5 POP PUSH1 0xA0 DUP7 ADD CALLDATALOAD SWAP4 POP PUSH1 0xC0 DUP7 ADD CALLDATALOAD SWAP3 POP PUSH2 0x8FA PUSH1 0xE0 DUP8 ADD PUSH2 0x83F JUMP JUMPDEST SWAP2 POP PUSH2 0x909 PUSH2 0x100 DUP8 ADD PUSH2 0x83F JUMP JUMPDEST SWAP1 POP SWAP3 SWAP6 POP SWAP3 SWAP6 SWAP1 SWAP4 POP JUMP JUMPDEST PUSH1 0x0 PUSH1 0x20 DUP3 DUP5 SUB SLT ISZERO PUSH2 0x926 JUMPI DUP1 DUP2 REVERT JUMPDEST POP MLOAD SWAP2 SWAP1 POP JUMP JUMPDEST PUSH1 0x0 DUP1 PUSH1 0x40 DUP4 DUP6 SUB SLT ISZERO PUSH2 0x93F JUMPI DUP2 DUP3 REVERT JUMPDEST DUP3 CALLDATALOAD SWAP2 POP PUSH1 0x20 DUP4 ADD CALLDATALOAD PUSH2 0x951 DUP2 PUSH2 0xB66 JUMP JUMPDEST DUP1 SWAP2 POP POP SWAP3 POP SWAP3 SWAP1 POP JUMP JUMPDEST PUSH1 0x0 DUP1 PUSH1 0x0 PUSH1 0x60 DUP5 DUP7 SUB SLT ISZERO PUSH2 0x970 JUMPI DUP3 DUP4 REVERT JUMPDEST DUP4 CALLDATALOAD SWAP3 POP PUSH1 0x20 DUP5 ADD CALLDATALOAD PUSH2 0x982 DUP2 PUSH2 0xB66 JUMP JUMPDEST SWAP2 POP PUSH1 0x40 DUP5 ADD CALLDATALOAD PUSH2 0x992 DUP2 PUSH2 0xB66 JUMP JUMPDEST DUP1 SWAP2 POP POP SWAP3 POP SWAP3 POP SWAP3 JUMP JUMPDEST PUSH1 0x0 DUP1 PUSH1 0x0 DUP1 PUSH1 0x0 DUP1 PUSH1 0x0 DUP1 PUSH2 0x100 DUP10 DUP12 SUB SLT ISZERO PUSH2 0x9B9 JUMPI DUP3 DUP4 REVERT JUMPDEST DUP9 CALLDATALOAD SWAP8 POP PUSH1 0x20 DUP10 ADD CALLDATALOAD SWAP7 POP PUSH1 0x40 DUP10 ADD CALLDATALOAD SWAP6 POP PUSH2 0x9D7 PUSH1 0x60 DUP11 ADD PUSH2 0x82A JUMP JUMPDEST SWAP5 POP PUSH2 0x9E5 PUSH1 0x80 DUP11 ADD PUSH2 0x82A JUMP JUMPDEST SWAP4 POP PUSH1 0xA0 DUP10 ADD CALLDATALOAD SWAP3 POP PUSH1 0xC0 DUP10 ADD CALLDATALOAD PUSH2 0x9FC DUP2 PUSH2 0xB66 JUMP JUMPDEST SWAP2 POP PUSH1 0xE0 DUP10 ADD CALLDATALOAD PUSH2 0xA0C DUP2 PUSH2 0xB66 JUMP JUMPDEST DUP1 SWAP2 POP POP SWAP3 SWAP6 SWAP9 POP SWAP3 SWAP6 SWAP9 SWAP1 SWAP4 SWAP7 POP JUMP JUMPDEST PUSH1 0x0 DUP1 PUSH1 0x0 DUP1 PUSH1 0x0 DUP1 PUSH1 0x0 PUSH1 0xE0 DUP9 DUP11 SUB SLT ISZERO PUSH2 0xA37 JUMPI DUP3 DUP4 REVERT JUMPDEST DUP8 CALLDATALOAD SWAP7 POP PUSH1 0x20 DUP9 ADD CALLDATALOAD SWAP6 POP PUSH1 0x40 DUP9 ADD CALLDATALOAD SWAP5 POP PUSH1 0x60 DUP9 ADD CALLDATALOAD PUSH1 0x3 DUP2 LT PUSH2 0xA5A JUMPI DUP4 DUP5 REVERT JUMPDEST SWAP4 POP PUSH1 0x80 DUP9 ADD CALLDATALOAD SWAP3 POP PUSH1 0xA0 DUP9 ADD CALLDATALOAD PUSH2 0xA71 DUP2 PUSH2 0xB66 JUMP JUMPDEST SWAP2 POP PUSH1 0xC0 DUP9 ADD CALLDATALOAD PUSH2 0xA81 DUP2 PUSH2 0xB66 JUMP JUMPDEST DUP1 SWAP2 POP POP SWAP3 SWAP6 SWAP9 SWAP2 SWAP5 SWAP8 POP SWAP3 SWAP6 POP JUMP JUMPDEST SWAP5 DUP6 MSTORE PUSH1 0x20 DUP6 ADD SWAP4 SWAP1 SWAP4 MSTORE PUSH1 0x40 DUP5 ADD SWAP2 SWAP1 SWAP2 MSTORE PUSH1 0x60 DUP4 ADD MSTORE ISZERO ISZERO PUSH1 0x80 DUP3 ADD MSTORE PUSH1 0xA0 ADD SWAP1 JUMP JUMPDEST SWAP6 DUP7 MSTORE PUSH1 0x20 DUP7 ADD SWAP5 SWAP1 SWAP5 MSTORE PUSH1 0x40 DUP6 ADD SWAP3 SWAP1 SWAP3 MSTORE PUSH1 0x60 DUP5 ADD MSTORE ISZERO ISZERO PUSH1 0x80 DUP4 ADD MSTORE ISZERO ISZERO PUSH1 0xA0 DUP3 ADD MSTORE PUSH1 0xC0 ADD SWAP1 JUMP JUMPDEST PUSH1 0x0 DUP3 NOT DUP3 GT ISZERO PUSH2 0xAF5 JUMPI PUSH2 0xAF5 PUSH2 0xB50 JUMP JUMPDEST POP ADD SWAP1 JUMP JUMPDEST PUSH1 0x0 DUP3 PUSH2 0xB15 JUMPI PUSH4 0x4E487B71 PUSH1 0xE0 SHL DUP2 MSTORE PUSH1 0x12 PUSH1 0x4 MSTORE PUSH1 0x24 DUP2 REVERT JUMPDEST POP DIV SWAP1 JUMP JUMPDEST PUSH1 0x0 DUP2 PUSH1 0x0 NOT DIV DUP4 GT DUP3 ISZERO ISZERO AND ISZERO PUSH2 0xB34 JUMPI PUSH2 0xB34 PUSH2 0xB50 JUMP JUMPDEST POP MUL SWAP1 JUMP JUMPDEST PUSH1 0x0 DUP3 DUP3 LT ISZERO PUSH2 0xB4B JUMPI PUSH2 0xB4B PUSH2 0xB50 JUMP JUMPDEST POP SUB SWAP1 JUMP JUMPDEST PUSH4 0x4E487B71 PUSH1 0xE0 SHL PUSH1 0x0 MSTORE PUSH1 0x11 PUSH1 0x4 MSTORE PUSH1 0x24 PUSH1 0x0 REVERT JUMPDEST PUSH1 0x1 PUSH1 0x1 PUSH1 0xA0 SHL SUB DUP2 AND DUP2 EQ PUSH2 0xB7B JUMPI PUSH1 0x0 DUP1 REVERT JUMPDEST POP JUMP INVALID LOG2 PUSH5 0x6970667358 0x22 SLT KECCAK256 DIV LOG0 0x28 PUSH8 0xFF727E25093A9A01 EXP 0x5F AND CALLVALUE RETURN LT 0x21 EXP 0x5C STATICCALL PUSH3 0xE03390 RETURN SWAP9 SWAP4 0x2E AND 0x4F PUSH5 0x736F6C6343 STOP ADDMOD DIV STOP CALLER ","sha1":"72a52097c389cb86eb5e3364ba3cc43fe25e051a","source":"// SPDX-License-Identifier: BUSL-1.1\n\npragma solidity ^0.8.0;\n\n/**\n * Smart contract library of mathematical functions operating with signed\n * 64.64-bit fixed point numbers.  Signed 64.64-bit fixed point number is\n * basically a simple fraction whose numerator is signed 128-bit integer and\n * denominator is 2^64.  As long as denominator is always the same, there is no\n * need to store it, thus in Solidity signed 64.64-bit fixed point numbers are\n * represented by int128 type holding only the numerator.\n */\nimport \"../Libraries/OptionMath.sol\";\nimport \"../OptionsUtils/OptionConfigUnintialized.sol\";\nimport \"../Interfaces/Interfaces.sol\";\nimport \"../Pool/BufferEpocPoolV2Unintialized.sol\";\n\nlibrary FeeCalculator {\n    /**\n     * @notice Calculate the current Utilisation\n     * @param amount Option amount\n     * @param pool The pool selling the option\n     * @return utilization Current utilization\n     */\n    function getNewUtilisation(\n        uint256 amount,\n        BufferEpocPoolV2Unintialized pool\n    ) public view returns (uint256 utilization) {\n        uint256 poolBalance = pool.totalTokenXBalance();\n        require(poolBalance > 0, \"O8\");\n\n        utilization = ((pool.lockedAmount() + amount) * 100e8) / poolBalance;\n    }\n\n    /**\n     * @notice Calculate the Utilisation adjusted ImpliedVol for the pool according to https://www.desmos.com/calculator/xdmhn97opd\n     * @param amount Option amount\n     * @param pool The pool selling the option\n     * @param config The option configuration\n     * @return iv The adjusted ImpliedVol\n     */\n    function currentImpliedVolatility(\n        uint256 amount,\n        BufferEpocPoolV2Unintialized pool,\n        OptionConfigUnintialized config\n    ) public view returns (uint256 iv) {\n        iv = config.impliedVolRate();\n        uint256 utilization = getNewUtilisation(amount, pool);\n        if (utilization > 40e8) {\n            iv += (iv * (utilization - 40e8)) / config.utilizationRate();\n        }\n    }\n\n    /**\n     * @notice Used for getting the price for Options in tokenX\n     * @param period Option period in seconds (1 days <= period <= 4 weeks)\n     * @param amount Option amount\n     * @param strike Strike price of the option\n     * @param optionType Type of the Option\n     * @param currentPrice Current price of the underlying asset\n     * @param config The option configuration\n     * @param pool The pool selling the option\n     * @return total Total price to be paid\n     * @return settlementFee Amount to be distributed to the Buffer token holders\n     * @return premium Amount that covers the price difference in the ITM options\n     */\n    function fees(\n        uint256 period,\n        uint256 amount,\n        uint256 strike,\n        IBufferOptions.OptionType optionType,\n        uint256 currentPrice,\n        OptionConfigUnintialized config,\n        BufferEpocPoolV2Unintialized pool\n    )\n        public\n        view\n        returns (\n            uint256 total,\n            uint256 settlementFee,\n            uint256 premium\n        )\n    {\n        // usdPremium per amount is USD Price of the option in 1e8\n        uint256 usdPremium = OptionMath.blackScholesPrice(\n            currentImpliedVolatility(amount, pool, config),\n            strike,\n            currentPrice,\n            period,\n            optionType == IBufferOptions.OptionType.Call\n        );\n        premium = (usdPremium * amount) / currentPrice;\n        settlementFee = getSettlementFee(amount, config);\n        total = settlementFee + premium;\n    }\n\n    /**\n     * @notice Used for getting the price for Options in USD\n     * @param period Option period in seconds (1 days <= period <= 4 weeks)\n     * @param amount Option amount\n     * @param strike Strike price of the option\n     * @param optionType Type of the Option\n     * @param currentPrice Current price of the underlying asset\n     * @param config The option configuration\n     * @param pool The pool selling the option\n     * @return total Total price to be paid in USD\n     * @return settlementFee Amount to be distributed to the Buffer token holders in USD\n     * @return premium Amount that covers the price difference in the ITM options in USD\n     */\n    function feesUsd(\n        uint256 period,\n        uint256 amount,\n        uint256 strike,\n        IBufferOptions.OptionType optionType,\n        uint256 currentPrice,\n        OptionConfigUnintialized config,\n        BufferEpocPoolV2Unintialized pool\n    )\n        public\n        view\n        returns (\n            uint256 total,\n            uint256 settlementFee,\n            uint256 premium\n        )\n    {\n        // usdPremium per asset amount is USD Price of the option in 1e8\n        uint256 usdPremium = OptionMath.blackScholesPrice(\n            currentImpliedVolatility(amount, pool, config),\n            strike,\n            currentPrice,\n            period,\n            optionType == IBufferOptions.OptionType.Call\n        );\n        settlementFee = getSettlementFee(amount, config);\n        premium = (usdPremium * amount) / currentPrice;\n        total = settlementFee + premium;\n    }\n\n    /**\n     * @notice Used for getting the price for Binary Options\n     * @param period Option period in seconds (1 days <= period <= 4 weeks)\n     * @param amount Option amount\n     * @param strike Strike price of the option\n     * @param isYes whether the option isAbove or not\n     * @param isAbove whether the price will stay above this strike or not\n     * @param currentPrice Current price of the underlying asset\n     * @param config The option configuration\n     * @param pool The pool selling the option\n     * @return total Total price to be paid\n     * @return settlementFee Amount to be distributed to the Buffer token holders\n     * @return premium Amount that covers the price difference in the ITM options\n     */\n    function feesBinary(\n        uint256 period,\n        uint256 amount,\n        uint256 strike,\n        bool isYes,\n        bool isAbove,\n        uint256 currentPrice,\n        OptionConfigUnintialized config,\n        BufferEpocPoolV2Unintialized pool\n    )\n        external\n        view\n        returns (\n            uint256 total,\n            uint256 settlementFee,\n            uint256 premium\n        )\n    {\n        premium = getPremium(\n            amount,\n            pool,\n            config,\n            strike,\n            period,\n            currentPrice,\n            isYes,\n            isAbove\n        );\n        settlementFee = getSettlementFee(amount, config);\n        total = settlementFee + premium;\n    }\n\n    /**\n     * @notice Used for getting the price for Binary KPI Options\n     * @param optionDetails Details of the option to be priced\n     * @param currentPrice Current price of the tokenX\n     * @param KPI KPI value for option\n     * @param config Option config\n     * @param pool pool contract\n     * @return total Total price to be paid\n     * @return settlementFee Amount to be distributed to the Buffer token holders\n     * @return premium Amount that covers the price difference in the ITM options\n     */\n    function feesKPIBinary(\n        IBufferOptions.OptionDetails memory optionDetails,\n        uint256 currentPrice,\n        uint256 KPI,\n        OptionConfigUnintialized config,\n        BufferEpocPoolV2Unintialized pool\n    )\n        external\n        view\n        returns (\n            uint256 total,\n            uint256 settlementFee,\n            uint256 premium\n        )\n    {\n        premium = getPremiumBinary(\n            optionDetails,\n            pool,\n            config,\n            currentPrice,\n            KPI\n        );\n        settlementFee = getSettlementFee(optionDetails.amount, config);\n        total = settlementFee + premium;\n    }\n\n    /**\n     * @notice Calculates settlementFee\n     * @param amount Option amount\n     * @return fee Settlement fee amount\n     */\n    function getSettlementFee(uint256 amount, OptionConfigUnintialized config)\n        internal\n        view\n        returns (uint256 fee)\n    {\n        return (amount * config.settlementFeePercentage()) / 100;\n    }\n\n    function getPremium(\n        uint256 amount,\n        BufferEpocPoolV2Unintialized pool,\n        OptionConfigUnintialized config,\n        uint256 strike,\n        uint256 period,\n        uint256 currentPrice,\n        bool isYes,\n        bool isAbove\n    ) internal view returns (uint256 premium) {\n        // usdPremium per amount is USD Price of the option in 1e8\n        uint256 usdPremium = OptionMath.blackScholesPriceBinary(\n            currentImpliedVolatility(amount, pool, config),\n            strike,\n            currentPrice,\n            period,\n            isYes,\n            isAbove\n        );\n        premium = (usdPremium * amount) / currentPrice;\n    }\n\n    function getPremiumBinary(\n        IBufferOptions.OptionDetails memory optionDetails,\n        BufferEpocPoolV2Unintialized pool,\n        OptionConfigUnintialized config,\n        uint256 currentPrice,\n        uint256 KPI\n    ) internal view returns (uint256 premium) {\n        // TODO : check unit\n        // usdPremium per amount is USD Price of the option in 1e8\n        uint256 usdPremium = OptionMath.blackScholesPriceBinary(\n            currentImpliedVolatility(optionDetails.amount, pool, config),\n            optionDetails.strike,\n            KPI,\n            optionDetails.period,\n            optionDetails.isYes,\n            optionDetails.isAbove\n        );\n        premium = (usdPremium * optionDetails.amount) / currentPrice;\n    }\n}\n","sourcePath":"contracts/Libraries/OptionFeeCalculator.sol","deployment":{"address":"0x8593078cee829C427F175E3721ad1c69f957f389","chainid":"97","blockHeight":20152766}}