{"bytecode":"6122ac61003a600b82828239805160001a60731461002d57634e487b7160e01b600052600060045260246000fd5b30600052607381538281f3fe73000000000000000000000000000000000000000030146080604052600436106100565760003560e01c80632c607c3b1461005b578063942c1d7a14610081578063d573d615146100a1578063f1dc0478146100b4575b600080fd5b61006e610069366004612170565b6100c7565b6040519081526020015b60405180910390f35b61009461008f3660046120f5565b61052b565b6040516100789190612210565b61006e6100af3660046121ac565b61080d565b6100946100c2366004612089565b610c71565b6000806100d76305f5e100611090565b905060006100e6612710611090565b905060006100f389611090565b6040516325f39a6360e01b815273__ABDKMath64x64_________________________916325f39a639161012e91600f0b90869060040161221e565b60206040518083038186803b15801561014657600080fd5b505af415801561015a573d6000803e3d6000fd5b505050506040513d601f19601f8201168201806040525081019061017e919061206d565b604051635b4b90a360e11b815290915060009073__ABDKMath64x64_________________________9063b6972146906101c190600f86900b90869060040161221e565b60206040518083038186803b1580156101d957600080fd5b505af41580156101ed573d6000803e3d6000fd5b505050506040513d601f19601f82011682018060405250810190610211919061206d565b9050600061021e8a611090565b6040516325f39a6360e01b815273__ABDKMath64x64_________________________916325f39a639161025991600f0b90899060040161221e565b60206040518083038186803b15801561027157600080fd5b505af4158015610285573d6000803e3d6000fd5b505050506040513d601f19601f820116820180604052508101906102a9919061206d565b905060006102b68a611090565b6040516325f39a6360e01b815273__ABDKMath64x64_________________________916325f39a63916102f191600f0b908a9060040161221e565b60206040518083038186803b15801561030957600080fd5b505af415801561031d573d6000803e3d6000fd5b505050506040513d601f19601f82011682018060405250810190610341919061206d565b9050600061034e8a611090565b600f0b73__ABDKMath64x64_________________________6325f39a63909161037a6301e13380611090565b6040518363ffffffff1660e01b815260040161039792919061221e565b60206040518083038186803b1580156103af57600080fd5b505af41580156103c3573d6000803e3d6000fd5b505050506040513d601f19601f820116820180604052508101906103e7919061206d565b905060006103f8858585858e610c71565b905073__ABDKMath64x64_________________________63a7f7d0d082600f0b73__ABDKMath64x64_________________________63b697214690918c6040518363ffffffff1660e01b815260040161045292919061221e565b60206040518083038186803b15801561046a57600080fd5b505af415801561047e573d6000803e3d6000fd5b505050506040513d601f19601f820116820180604052508101906104a2919061206d565b6040518263ffffffff1660e01b81526004016104be9190612210565b60206040518083038186803b1580156104d657600080fd5b505af41580156104ea573d6000803e3d6000fd5b505050506040513d601f19601f8201168201806040525081019061050e91906121e9565b6001600160401b0316985050505050505050505b95945050505050565b604051635b4b90a360e11b8152600090819073__ABDKMath64x64_________________________9063b69721469061056d90600f89900b908c9060040161221e565b60206040518083038186803b15801561058557600080fd5b505af4158015610599573d6000803e3d6000fd5b505050506040513d601f19601f820116820180604052508101906105bd919061206d565b604051631b8f6ab960e21b815290915060009073__ABDKMath64x64_________________________90636e3daae4906105fe90600f86900b90600401612210565b60206040518083038186803b15801561061657600080fd5b505af415801561062a573d6000803e3d6000fd5b505050506040513d601f19601f8201168201806040525081019061064e919061206d565b905060006106ff600184600f0b901d6106f68a600f0b73__ABDKMath64x64_________________________6325f39a6390918e6040518363ffffffff1660e01b815260040161069e92919061221e565b60206040518083038186803b1580156106b657600080fd5b505af41580156106ca573d6000803e3d6000fd5b505050506040513d601f19601f820116820180604052508101906106ee919061206d565b600f0b6110ad565b600f0b906110e7565b6040516325f39a6360e01b815273__ABDKMath64x64_________________________916325f39a639161073a91600f0b90869060040161221e565b60206040518083038186803b15801561075257600080fd5b505af4158015610766573d6000803e3d6000fd5b505050506040513d601f19601f8201168201806040525081019061078a919061206d565b9050600061079c600f83900b84611122565b905086156107dd5785156107be576107b381611155565b945050505050610803565b6107b36107ca82611155565b6107d46001611090565b600f0b90611122565b85156107f7576107b36107ca6107f283612232565b611155565b6107b36107f282612232565b9695505050505050565b60008061081d6305f5e100611090565b9050600061082c612710611090565b905060006108398a611090565b6040516325f39a6360e01b815273__ABDKMath64x64_________________________916325f39a639161087491600f0b90869060040161221e565b60206040518083038186803b15801561088c57600080fd5b505af41580156108a0573d6000803e3d6000fd5b505050506040513d601f19601f820116820180604052508101906108c4919061206d565b604051635b4b90a360e11b815290915060009073__ABDKMath64x64_________________________9063b69721469061090790600f86900b90869060040161221e565b60206040518083038186803b15801561091f57600080fd5b505af4158015610933573d6000803e3d6000fd5b505050506040513d601f19601f82011682018060405250810190610957919061206d565b905060006109648b611090565b6040516325f39a6360e01b815273__ABDKMath64x64_________________________916325f39a639161099f91600f0b90899060040161221e565b60206040518083038186803b1580156109b757600080fd5b505af41580156109cb573d6000803e3d6000fd5b505050506040513d601f19601f820116820180604052508101906109ef919061206d565b905060006109fc8b611090565b6040516325f39a6360e01b815273__ABDKMath64x64_________________________916325f39a6391610a3791600f0b908a9060040161221e565b60206040518083038186803b158015610a4f57600080fd5b505af4158015610a63573d6000803e3d6000fd5b505050506040513d601f19601f82011682018060405250810190610a87919061206d565b90506000610a948b611090565b600f0b73__ABDKMath64x64_________________________6325f39a639091610ac06301e13380611090565b6040518363ffffffff1660e01b8152600401610add92919061221e565b60206040518083038186803b158015610af557600080fd5b505af4158015610b09573d6000803e3d6000fd5b505050506040513d601f19601f82011682018060405250810190610b2d919061206d565b90506000610b3f858585858f8f61052b565b905073__ABDKMath64x64_________________________63a7f7d0d082600f0b73__ABDKMath64x64_________________________63b697214690918c6040518363ffffffff1660e01b8152600401610b9992919061221e565b60206040518083038186803b158015610bb157600080fd5b505af4158015610bc5573d6000803e3d6000fd5b505050506040513d601f19601f82011682018060405250810190610be9919061206d565b6040518263ffffffff1660e01b8152600401610c059190612210565b60206040518083038186803b158015610c1d57600080fd5b505af4158015610c31573d6000803e3d6000fd5b505050506040513d601f19601f82011682018060405250810190610c5591906121e9565b6001600160401b03169f9e505050505050505050505050505050565b604051635b4b90a360e11b8152600090819073__ABDKMath64x64_________________________9063b697214690610cb390600f88900b908b9060040161221e565b60206040518083038186803b158015610ccb57600080fd5b505af4158015610cdf573d6000803e3d6000fd5b505050506040513d601f19601f82011682018060405250810190610d03919061206d565b604051631b8f6ab960e21b815290915060009073__ABDKMath64x64_________________________90636e3daae490610d4490600f86900b90600401612210565b60206040518083038186803b158015610d5c57600080fd5b505af4158015610d70573d6000803e3d6000fd5b505050506040513d601f19601f82011682018060405250810190610d94919061206d565b90506000610de4600184600f0b901d6106f689600f0b73__ABDKMath64x64_________________________6325f39a6390918d6040518363ffffffff1660e01b815260040161069e92919061221e565b6040516325f39a6360e01b815273__ABDKMath64x64_________________________916325f39a6391610e1f91600f0b90869060040161221e565b60206040518083038186803b158015610e3757600080fd5b505af4158015610e4b573d6000803e3d6000fd5b505050506040513d601f19601f82011682018060405250810190610e6f919061206d565b90506000610e81600f83900b84611122565b90508515610fc157610fb673__ABDKMath64x64_________________________63b6972146600f8c900b610eb485611155565b6040518363ffffffff1660e01b8152600401610ed192919061221e565b60206040518083038186803b158015610ee957600080fd5b505af4158015610efd573d6000803e3d6000fd5b505050506040513d601f19601f82011682018060405250810190610f21919061206d565b73__ABDKMath64x64_________________________63b6972146600f8c900b610f4987611155565b6040518363ffffffff1660e01b8152600401610f6692919061221e565b60206040518083038186803b158015610f7e57600080fd5b505af4158015610f92573d6000803e3d6000fd5b505050506040513d601f19601f820116820180604052508101906107d4919061206d565b945050505050610522565b61108773__ABDKMath64x64_________________________63b6972146600f8c900b610fef6107f286612232565b6040518363ffffffff1660e01b815260040161100c92919061221e565b60206040518083038186803b15801561102457600080fd5b505af4158015611038573d6000803e3d6000fd5b505050506040513d601f19601f8201168201806040525081019061105c919061206d565b73__ABDKMath64x64_________________________63b6972146600f8c900b610f496107f288612232565b610fb690612232565b600060016001603f1b038211156110a657600080fd5b5060401b90565b60008082600f0b136110be57600080fd5b60806110c9836114a6565b600f0b6fb17217f7d1cf79abc9e3b39803f2f6af02901c9050919050565b6000600f83810b9083900b0160016001607f1b03198112801590611112575060016001607f1b038113155b61111b57600080fd5b9392505050565b6000600f82810b9084900b0360016001607f1b03198112801590611112575060016001607f1b0381131561111b57600080fd5b604051635b4b90a360e11b8152600090819073__ABDKMath64x64_________________________9063b69721469061119790600f87900b90879060040161221e565b60206040518083038186803b1580156111af57600080fd5b505af41580156111c3573d6000803e3d6000fd5b505050506040513d601f19601f820116820180604052508101906111e7919061206d565b9050600061120660016111f984612232565b600f0b901d600f0b611580565b600f0b73__ABDKMath64x64_________________________6325f39a63909161141067d3c84b78b749bd6b600f0b73__ABDKMath64x64_________________________63b6972146909161126a600360401b8a600f0b6110e790919063ffffffff16565b604051631b8f6ab960e21b815273__ABDKMath64x64_________________________91636e3daae4916112a391600f0b90600401612210565b60206040518083038186803b1580156112bb57600080fd5b505af41580156112cf573d6000803e3d6000fd5b505050506040513d601f19601f820116820180604052508101906112f3919061206d565b6040518363ffffffff1660e01b815260040161131092919061221e565b60206040518083038186803b15801561132857600080fd5b505af415801561133c573d6000803e3d6000fd5b505050506040513d601f19601f82011682018060405250810190611360919061206d565b6106f673__ABDKMath64x64_________________________63b697214668019abac0ea1da65036611394600f8e900b6115d9565b6040518363ffffffff1660e01b81526004016113b192919061221e565b60206040518083038186803b1580156113c957600080fd5b505af41580156113dd573d6000803e3d6000fd5b505050506040513d601f19601f82011682018060405250810190611401919061206d565b679109f285df452394906110e7565b6040518363ffffffff1660e01b815260040161142d92919061221e565b60206040518083038186803b15801561144557600080fd5b505af4158015611459573d6000803e3d6000fd5b505050506040513d601f19601f8201168201806040525081019061147d919061206d565b9050600084600f0b13611490578061149e565b61149e600160401b82611122565b949350505050565b60008082600f0b136114b757600080fd5b6000600f83900b600160401b81126114d1576040918201911d5b600160201b81126114e4576020918201911d5b6201000081126114f6576010918201911d5b6101008112611507576008918201911d5b60108112611517576004918201911d5b60048112611527576002918201911d5b60028112611536576001820191505b603f19820160401b600f85900b607f8490031b6001603f1b5b60008113156115755790800260ff81901c8281029390930192607f011c9060011d61154f565b509095945050505050565b6000600160461b82600f0b1261159557600080fd5b6001600160461b031982600f0b12156115b057506000919050565b6115d3608083600f0b700171547652b82fe1777d0ffda0d23a7d1202901d61160c565b92915050565b6000600f82900b60016001607f1b031914156115f457600080fd5b600082600f0b1261160557816115d3565b5060000390565b6000600160461b82600f0b1261162157600080fd5b6001600160461b031982600f0b121561163c57506000919050565b6001607f1b60006001603f1b8416600f0b131561166a5770016a09e667f3bcc908b2fb1366ea957d3e0260801c5b6000836001603e1b16600f0b1315611693577001306fe0a31b7152de8d5a46305c85edec0260801c5b6000836001603d1b16600f0b13156116bc577001172b83c7d517adcdf7c8c50eb14a791f0260801c5b6000836001603c1b16600f0b13156116e55770010b5586cf9890f6298b92b71842a983630260801c5b6000836001603b1b16600f0b131561170e577001059b0d31585743ae7c548eb68ca417fd0260801c5b6000836001603a1b16600f0b131561173757700102c9a3e778060ee6f7caca4f7a29bde80260801c5b600083600160391b16600f0b13156117605770010163da9fb33356d84a66ae336dcdfa3f0260801c5b600083600160381b16600f0b131561178957700100b1afa5abcbed6129ab13ec11dc95430260801c5b600083600160371b16600f0b13156117b25770010058c86da1c09ea1ff19d294cf2f679b0260801c5b600083600160361b16600f0b13156117db577001002c605e2e8cec506d21bfc89a23a00f0260801c5b600083600160351b16600f0b131561180457700100162f3904051fa128bca9c55c31e5df0260801c5b600083600160341b16600f0b131561182d577001000b175effdc76ba38e31671ca9397250260801c5b600083600160331b16600f0b131561185657700100058ba01fb9f96d6cacd4b180917c3d0260801c5b600083600160321b16600f0b131561187f5770010002c5cc37da9491d0985c348c68e7b30260801c5b600083600160311b16600f0b13156118a8577001000162e525ee054754457d59952920260260801c5b600083600160301b16600f0b13156118d15770010000b17255775c040618bf4a4ade83fc0260801c5b6000836001602f1b16600f0b13156118fa577001000058b91b5bc9ae2eed81e9b7d4cfab0260801c5b6000836001602e1b16600f0b131561192357700100002c5c89d5ec6ca4d7c8acc017b7c90260801c5b6000836001602d1b16600f0b131561194c5770010000162e43f4f831060e02d839a9d16d0260801c5b6000836001602c1b16600f0b131561197557700100000b1721bcfc99d9f890ea069117630260801c5b6000836001602b1b16600f0b131561199e5770010000058b90cf1e6d97f9ca14dbcc16280260801c5b6000836001602a1b16600f0b13156119c7577001000002c5c863b73f016468f6bac5ca2b0260801c5b600083600160291b16600f0b13156119f057700100000162e430e5a18f6119e3c02282a50260801c5b600083600160281b16600f0b1315611a19577001000000b1721835514b86e6d96efd1bfe0260801c5b600083600160271b16600f0b1315611a4257700100000058b90c0b48c6be5df846c5b2ef0260801c5b600083600160261b16600f0b1315611a6b5770010000002c5c8601cc6b9e94213c72737a0260801c5b600083600160251b16600f0b1315611a94577001000000162e42fff037df38aa2b219f060260801c5b600083600160241b16600f0b1315611abd5770010000000b17217fba9c739aa5819f44f90260801c5b600083600160231b16600f0b1315611ae6577001000000058b90bfcdee5acd3c1cedc8230260801c5b600083600160221b16600f0b1315611b0f57700100000002c5c85fe31f35a6a30da1be500260801c5b600083600160211b16600f0b1315611b385770010000000162e42ff0999ce3541b9fffcf0260801c5b600083600160201b16600f0b1315611b6157700100000000b17217f80f4ef5aadda455540260801c5b600083638000000016600f0b1315611b8a5770010000000058b90bfbf8479bd5a81b51ad0260801c5b600083634000000016600f0b1315611bb3577001000000002c5c85fdf84bd62ae30a74cc0260801c5b600083632000000016600f0b1315611bdc57700100000000162e42fefb2fed257559bdaa0260801c5b600083631000000016600f0b1315611c05577001000000000b17217f7d5a7716bba4a9ae0260801c5b600083630800000016600f0b1315611c2e57700100000000058b90bfbe9ddbac5e109cce0260801c5b600083630400000016600f0b1315611c575770010000000002c5c85fdf4b15de6f17eb0d0260801c5b600083630200000016600f0b1315611c80577001000000000162e42fefa494f1478fde050260801c5b600083630100000016600f0b1315611ca95770010000000000b17217f7d20cf927c8e94c0260801c5b6000836280000016600f0b1315611cd1577001000000000058b90bfbe8f71cb4e4b33d0260801c5b6000836240000016600f0b1315611cf957700100000000002c5c85fdf477b662b269450260801c5b6000836220000016600f0b1315611d215770010000000000162e42fefa3ae53369388c0260801c5b6000836210000016600f0b1315611d4957700100000000000b17217f7d1d351a389d400260801c5b6000836208000016600f0b1315611d715770010000000000058b90bfbe8e8b2d3d4ede0260801c5b6000836204000016600f0b1315611d99577001000000000002c5c85fdf4741bea6e77e0260801c5b6000836202000016600f0b1315611dc157700100000000000162e42fefa39fe95583c20260801c5b6000836201000016600f0b1315611de85769b17217f7d1cfb72b45e1600160801b010260801c5b60008361800016600f0b1315611e0e576958b90bfbe8e7cc35c3f0600160801b010260801c5b60008361400016600f0b1315611e3457692c5c85fdf473e242ea38600160801b010260801c5b60008361200016600f0b1315611e5a5769162e42fefa39f02b772c600160801b010260801c5b60008361100016600f0b1315611e8057690b17217f7d1cf7d83c1a600160801b010260801c5b60008361080016600f0b1315611ea65769058b90bfbe8e7bdcbe2e600160801b010260801c5b60008361040016600f0b1315611ecc576902c5c85fdf473dea871f600160801b010260801c5b60008361020016600f0b1315611ef257690162e42fefa39ef44d91600160801b010260801c5b60008361010016600f0b1315611f175768b17217f7d1cf79e949600160801b010260801c5b600083608016600f0b1315611f3b576858b90bfbe8e7bce544600160801b010260801c5b600083604016600f0b1315611f5f57682c5c85fdf473de6eca600160801b010260801c5b600083602016600f0b1315611f835768162e42fefa39ef366f600160801b010260801c5b600083601016600f0b1315611fa757680b17217f7d1cf79afa600160801b010260801c5b600083600816600f0b1315611fcb5768058b90bfbe8e7bcd6d600160801b010260801c5b600083600416600f0b1315611fef576802c5c85fdf473de6b2600160801b010260801c5b600083600216600f0b131561201357680162e42fefa39ef358600160801b010260801c5b600083600116600f0b13156120365767b17217f7d1cf79ab600160801b010260801c5b600f83810b60401d603f03900b1c60016001607f1b038111156115d357600080fd5b8035801515811461206857600080fd5b919050565b60006020828403121561207e578081fd5b815161111b81612264565b600080600080600060a086880312156120a0578081fd5b85356120ab81612264565b945060208601356120bb81612264565b935060408601356120cb81612264565b925060608601356120db81612264565b91506120e960808701612058565b90509295509295909350565b60008060008060008060c0878903121561210d578081fd5b863561211881612264565b9550602087013561212881612264565b9450604087013561213881612264565b9350606087013561214881612264565b925061215660808801612058565b915061216460a08801612058565b90509295509295509295565b600080600080600060a08688031215612187578081fd5b853594506020860135935060408601359250606086013591506120e960808701612058565b60008060008060008060c087890312156121c4578182fd5b8635955060208701359450604087013593506060870135925061215660808801612058565b6000602082840312156121fa578081fd5b81516001600160401b038116811461111b578182fd5b600f9190910b815260200190565b600f92830b8152910b602082015260400190565b6000600f82900b60016001607f1b031981141561225d57634e487b7160e01b82526011600452602482fd5b9003919050565b80600f0b811461227357600080fd5b5056fea2646970667358221220efae46a2faf84cdf4aae970b314884b0d46e2143e77d6531bdacd269fa68c5bd64736f6c63430008040033","bytecodeSha1":"bb78993b2b99012027c43d0ad9666aa5133f9a8f","type":"library","abi":[{"inputs":[{"internalType":"int128","name":"varianceAnnualized64x64","type":"int128"},{"internalType":"int128","name":"strike64x64","type":"int128"},{"internalType":"int128","name":"spot64x64","type":"int128"},{"internalType":"int128","name":"timeToMaturity64x64","type":"int128"},{"internalType":"bool","name":"isCall","type":"bool"}],"name":"_blackScholesPrice","outputs":[{"internalType":"int128","name":"","type":"int128"}],"stateMutability":"pure","type":"function"},{"inputs":[{"internalType":"int128","name":"varianceAnnualized64x64","type":"int128"},{"internalType":"int128","name":"strike64x64","type":"int128"},{"internalType":"int128","name":"spot64x64","type":"int128"},{"internalType":"int128","name":"timeToMaturity64x64","type":"int128"},{"internalType":"bool","name":"isYes","type":"bool"},{"internalType":"bool","name":"isAbove","type":"bool"}],"name":"_blackScholesPriceBinary","outputs":[{"internalType":"int128","name":"","type":"int128"}],"stateMutability":"pure","type":"function"},{"inputs":[{"internalType":"uint256","name":"impliedVol","type":"uint256"},{"internalType":"uint256","name":"strike","type":"uint256"},{"internalType":"uint256","name":"spot","type":"uint256"},{"internalType":"uint256","name":"period","type":"uint256"},{"internalType":"bool","name":"isCall","type":"bool"}],"name":"blackScholesPrice","outputs":[{"internalType":"uint256","name":"","type":"uint256"}],"stateMutability":"pure","type":"function"},{"inputs":[{"internalType":"uint256","name":"impliedVol","type":"uint256"},{"internalType":"uint256","name":"strike","type":"uint256"},{"internalType":"uint256","name":"spot","type":"uint256"},{"internalType":"uint256","name":"period","type":"uint256"},{"internalType":"bool","name":"isYes","type":"bool"},{"internalType":"bool","name":"isAbove","type":"bool"}],"name":"blackScholesPriceBinary","outputs":[{"internalType":"uint256","name":"","type":"uint256"}],"stateMutability":"pure","type":"function"}],"compiler":{"version":"0.8.4+commit.c7e474f2","evm_version":"istanbul","optimizer":{"enabled":true,"runs":1}},"contractName":"OptionMath","deployedBytecode":"73000000000000000000000000000000000000000030146080604052600436106100565760003560e01c80632c607c3b1461005b578063942c1d7a14610081578063d573d615146100a1578063f1dc0478146100b4575b600080fd5b61006e610069366004612170565b6100c7565b6040519081526020015b60405180910390f35b61009461008f3660046120f5565b61052b565b6040516100789190612210565b61006e6100af3660046121ac565b61080d565b6100946100c2366004612089565b610c71565b6000806100d76305f5e100611090565b905060006100e6612710611090565b905060006100f389611090565b6040516325f39a6360e01b815273__$92bf7947cd67a34d98eeb8f6c624606735$__916325f39a639161012e91600f0b90869060040161221e565b60206040518083038186803b15801561014657600080fd5b505af415801561015a573d6000803e3d6000fd5b505050506040513d601f19601f8201168201806040525081019061017e919061206d565b604051635b4b90a360e11b815290915060009073__$92bf7947cd67a34d98eeb8f6c624606735$__9063b6972146906101c190600f86900b90869060040161221e565b60206040518083038186803b1580156101d957600080fd5b505af41580156101ed573d6000803e3d6000fd5b505050506040513d601f19601f82011682018060405250810190610211919061206d565b9050600061021e8a611090565b6040516325f39a6360e01b815273__$92bf7947cd67a34d98eeb8f6c624606735$__916325f39a639161025991600f0b90899060040161221e565b60206040518083038186803b15801561027157600080fd5b505af4158015610285573d6000803e3d6000fd5b505050506040513d601f19601f820116820180604052508101906102a9919061206d565b905060006102b68a611090565b6040516325f39a6360e01b815273__$92bf7947cd67a34d98eeb8f6c624606735$__916325f39a63916102f191600f0b908a9060040161221e565b60206040518083038186803b15801561030957600080fd5b505af415801561031d573d6000803e3d6000fd5b505050506040513d601f19601f82011682018060405250810190610341919061206d565b9050600061034e8a611090565b600f0b73__$92bf7947cd67a34d98eeb8f6c624606735$__6325f39a63909161037a6301e13380611090565b6040518363ffffffff1660e01b815260040161039792919061221e565b60206040518083038186803b1580156103af57600080fd5b505af41580156103c3573d6000803e3d6000fd5b505050506040513d601f19601f820116820180604052508101906103e7919061206d565b905060006103f8858585858e610c71565b905073__$92bf7947cd67a34d98eeb8f6c624606735$__63a7f7d0d082600f0b73__$92bf7947cd67a34d98eeb8f6c624606735$__63b697214690918c6040518363ffffffff1660e01b815260040161045292919061221e565b60206040518083038186803b15801561046a57600080fd5b505af415801561047e573d6000803e3d6000fd5b505050506040513d601f19601f820116820180604052508101906104a2919061206d565b6040518263ffffffff1660e01b81526004016104be9190612210565b60206040518083038186803b1580156104d657600080fd5b505af41580156104ea573d6000803e3d6000fd5b505050506040513d601f19601f8201168201806040525081019061050e91906121e9565b6001600160401b0316985050505050505050505b95945050505050565b604051635b4b90a360e11b8152600090819073__$92bf7947cd67a34d98eeb8f6c624606735$__9063b69721469061056d90600f89900b908c9060040161221e565b60206040518083038186803b15801561058557600080fd5b505af4158015610599573d6000803e3d6000fd5b505050506040513d601f19601f820116820180604052508101906105bd919061206d565b604051631b8f6ab960e21b815290915060009073__$92bf7947cd67a34d98eeb8f6c624606735$__90636e3daae4906105fe90600f86900b90600401612210565b60206040518083038186803b15801561061657600080fd5b505af415801561062a573d6000803e3d6000fd5b505050506040513d601f19601f8201168201806040525081019061064e919061206d565b905060006106ff600184600f0b901d6106f68a600f0b73__$92bf7947cd67a34d98eeb8f6c624606735$__6325f39a6390918e6040518363ffffffff1660e01b815260040161069e92919061221e565b60206040518083038186803b1580156106b657600080fd5b505af41580156106ca573d6000803e3d6000fd5b505050506040513d601f19601f820116820180604052508101906106ee919061206d565b600f0b6110ad565b600f0b906110e7565b6040516325f39a6360e01b815273__$92bf7947cd67a34d98eeb8f6c624606735$__916325f39a639161073a91600f0b90869060040161221e565b60206040518083038186803b15801561075257600080fd5b505af4158015610766573d6000803e3d6000fd5b505050506040513d601f19601f8201168201806040525081019061078a919061206d565b9050600061079c600f83900b84611122565b905086156107dd5785156107be576107b381611155565b945050505050610803565b6107b36107ca82611155565b6107d46001611090565b600f0b90611122565b85156107f7576107b36107ca6107f283612232565b611155565b6107b36107f282612232565b9695505050505050565b60008061081d6305f5e100611090565b9050600061082c612710611090565b905060006108398a611090565b6040516325f39a6360e01b815273__$92bf7947cd67a34d98eeb8f6c624606735$__916325f39a639161087491600f0b90869060040161221e565b60206040518083038186803b15801561088c57600080fd5b505af41580156108a0573d6000803e3d6000fd5b505050506040513d601f19601f820116820180604052508101906108c4919061206d565b604051635b4b90a360e11b815290915060009073__$92bf7947cd67a34d98eeb8f6c624606735$__9063b69721469061090790600f86900b90869060040161221e565b60206040518083038186803b15801561091f57600080fd5b505af4158015610933573d6000803e3d6000fd5b505050506040513d601f19601f82011682018060405250810190610957919061206d565b905060006109648b611090565b6040516325f39a6360e01b815273__$92bf7947cd67a34d98eeb8f6c624606735$__916325f39a639161099f91600f0b90899060040161221e565b60206040518083038186803b1580156109b757600080fd5b505af41580156109cb573d6000803e3d6000fd5b505050506040513d601f19601f820116820180604052508101906109ef919061206d565b905060006109fc8b611090565b6040516325f39a6360e01b815273__$92bf7947cd67a34d98eeb8f6c624606735$__916325f39a6391610a3791600f0b908a9060040161221e565b60206040518083038186803b158015610a4f57600080fd5b505af4158015610a63573d6000803e3d6000fd5b505050506040513d601f19601f82011682018060405250810190610a87919061206d565b90506000610a948b611090565b600f0b73__$92bf7947cd67a34d98eeb8f6c624606735$__6325f39a639091610ac06301e13380611090565b6040518363ffffffff1660e01b8152600401610add92919061221e565b60206040518083038186803b158015610af557600080fd5b505af4158015610b09573d6000803e3d6000fd5b505050506040513d601f19601f82011682018060405250810190610b2d919061206d565b90506000610b3f858585858f8f61052b565b905073__$92bf7947cd67a34d98eeb8f6c624606735$__63a7f7d0d082600f0b73__$92bf7947cd67a34d98eeb8f6c624606735$__63b697214690918c6040518363ffffffff1660e01b8152600401610b9992919061221e565b60206040518083038186803b158015610bb157600080fd5b505af4158015610bc5573d6000803e3d6000fd5b505050506040513d601f19601f82011682018060405250810190610be9919061206d565b6040518263ffffffff1660e01b8152600401610c059190612210565b60206040518083038186803b158015610c1d57600080fd5b505af4158015610c31573d6000803e3d6000fd5b505050506040513d601f19601f82011682018060405250810190610c5591906121e9565b6001600160401b03169f9e505050505050505050505050505050565b604051635b4b90a360e11b8152600090819073__$92bf7947cd67a34d98eeb8f6c624606735$__9063b697214690610cb390600f88900b908b9060040161221e565b60206040518083038186803b158015610ccb57600080fd5b505af4158015610cdf573d6000803e3d6000fd5b505050506040513d601f19601f82011682018060405250810190610d03919061206d565b604051631b8f6ab960e21b815290915060009073__$92bf7947cd67a34d98eeb8f6c624606735$__90636e3daae490610d4490600f86900b90600401612210565b60206040518083038186803b158015610d5c57600080fd5b505af4158015610d70573d6000803e3d6000fd5b505050506040513d601f19601f82011682018060405250810190610d94919061206d565b90506000610de4600184600f0b901d6106f689600f0b73__$92bf7947cd67a34d98eeb8f6c624606735$__6325f39a6390918d6040518363ffffffff1660e01b815260040161069e92919061221e565b6040516325f39a6360e01b815273__$92bf7947cd67a34d98eeb8f6c624606735$__916325f39a6391610e1f91600f0b90869060040161221e565b60206040518083038186803b158015610e3757600080fd5b505af4158015610e4b573d6000803e3d6000fd5b505050506040513d601f19601f82011682018060405250810190610e6f919061206d565b90506000610e81600f83900b84611122565b90508515610fc157610fb673__$92bf7947cd67a34d98eeb8f6c624606735$__63b6972146600f8c900b610eb485611155565b6040518363ffffffff1660e01b8152600401610ed192919061221e565b60206040518083038186803b158015610ee957600080fd5b505af4158015610efd573d6000803e3d6000fd5b505050506040513d601f19601f82011682018060405250810190610f21919061206d565b73__$92bf7947cd67a34d98eeb8f6c624606735$__63b6972146600f8c900b610f4987611155565b6040518363ffffffff1660e01b8152600401610f6692919061221e565b60206040518083038186803b158015610f7e57600080fd5b505af4158015610f92573d6000803e3d6000fd5b505050506040513d601f19601f820116820180604052508101906107d4919061206d565b945050505050610522565b61108773__$92bf7947cd67a34d98eeb8f6c624606735$__63b6972146600f8c900b610fef6107f286612232565b6040518363ffffffff1660e01b815260040161100c92919061221e565b60206040518083038186803b15801561102457600080fd5b505af4158015611038573d6000803e3d6000fd5b505050506040513d601f19601f8201168201806040525081019061105c919061206d565b73__$92bf7947cd67a34d98eeb8f6c624606735$__63b6972146600f8c900b610f496107f288612232565b610fb690612232565b600060016001603f1b038211156110a657600080fd5b5060401b90565b60008082600f0b136110be57600080fd5b60806110c9836114a6565b600f0b6fb17217f7d1cf79abc9e3b39803f2f6af02901c9050919050565b6000600f83810b9083900b0160016001607f1b03198112801590611112575060016001607f1b038113155b61111b57600080fd5b9392505050565b6000600f82810b9084900b0360016001607f1b03198112801590611112575060016001607f1b0381131561111b57600080fd5b604051635b4b90a360e11b8152600090819073__$92bf7947cd67a34d98eeb8f6c624606735$__9063b69721469061119790600f87900b90879060040161221e565b60206040518083038186803b1580156111af57600080fd5b505af41580156111c3573d6000803e3d6000fd5b505050506040513d601f19601f820116820180604052508101906111e7919061206d565b9050600061120660016111f984612232565b600f0b901d600f0b611580565b600f0b73__$92bf7947cd67a34d98eeb8f6c624606735$__6325f39a63909161141067d3c84b78b749bd6b600f0b73__$92bf7947cd67a34d98eeb8f6c624606735$__63b6972146909161126a600360401b8a600f0b6110e790919063ffffffff16565b604051631b8f6ab960e21b815273__$92bf7947cd67a34d98eeb8f6c624606735$__91636e3daae4916112a391600f0b90600401612210565b60206040518083038186803b1580156112bb57600080fd5b505af41580156112cf573d6000803e3d6000fd5b505050506040513d601f19601f820116820180604052508101906112f3919061206d565b6040518363ffffffff1660e01b815260040161131092919061221e565b60206040518083038186803b15801561132857600080fd5b505af415801561133c573d6000803e3d6000fd5b505050506040513d601f19601f82011682018060405250810190611360919061206d565b6106f673__$92bf7947cd67a34d98eeb8f6c624606735$__63b697214668019abac0ea1da65036611394600f8e900b6115d9565b6040518363ffffffff1660e01b81526004016113b192919061221e565b60206040518083038186803b1580156113c957600080fd5b505af41580156113dd573d6000803e3d6000fd5b505050506040513d601f19601f82011682018060405250810190611401919061206d565b679109f285df452394906110e7565b6040518363ffffffff1660e01b815260040161142d92919061221e565b60206040518083038186803b15801561144557600080fd5b505af4158015611459573d6000803e3d6000fd5b505050506040513d601f19601f8201168201806040525081019061147d919061206d565b9050600084600f0b13611490578061149e565b61149e600160401b82611122565b949350505050565b60008082600f0b136114b757600080fd5b6000600f83900b600160401b81126114d1576040918201911d5b600160201b81126114e4576020918201911d5b6201000081126114f6576010918201911d5b6101008112611507576008918201911d5b60108112611517576004918201911d5b60048112611527576002918201911d5b60028112611536576001820191505b603f19820160401b600f85900b607f8490031b6001603f1b5b60008113156115755790800260ff81901c8281029390930192607f011c9060011d61154f565b509095945050505050565b6000600160461b82600f0b1261159557600080fd5b6001600160461b031982600f0b12156115b057506000919050565b6115d3608083600f0b700171547652b82fe1777d0ffda0d23a7d1202901d61160c565b92915050565b6000600f82900b60016001607f1b031914156115f457600080fd5b600082600f0b1261160557816115d3565b5060000390565b6000600160461b82600f0b1261162157600080fd5b6001600160461b031982600f0b121561163c57506000919050565b6001607f1b60006001603f1b8416600f0b131561166a5770016a09e667f3bcc908b2fb1366ea957d3e0260801c5b6000836001603e1b16600f0b1315611693577001306fe0a31b7152de8d5a46305c85edec0260801c5b6000836001603d1b16600f0b13156116bc577001172b83c7d517adcdf7c8c50eb14a791f0260801c5b6000836001603c1b16600f0b13156116e55770010b5586cf9890f6298b92b71842a983630260801c5b6000836001603b1b16600f0b131561170e577001059b0d31585743ae7c548eb68ca417fd0260801c5b6000836001603a1b16600f0b131561173757700102c9a3e778060ee6f7caca4f7a29bde80260801c5b600083600160391b16600f0b13156117605770010163da9fb33356d84a66ae336dcdfa3f0260801c5b600083600160381b16600f0b131561178957700100b1afa5abcbed6129ab13ec11dc95430260801c5b600083600160371b16600f0b13156117b25770010058c86da1c09ea1ff19d294cf2f679b0260801c5b600083600160361b16600f0b13156117db577001002c605e2e8cec506d21bfc89a23a00f0260801c5b600083600160351b16600f0b131561180457700100162f3904051fa128bca9c55c31e5df0260801c5b600083600160341b16600f0b131561182d577001000b175effdc76ba38e31671ca9397250260801c5b600083600160331b16600f0b131561185657700100058ba01fb9f96d6cacd4b180917c3d0260801c5b600083600160321b16600f0b131561187f5770010002c5cc37da9491d0985c348c68e7b30260801c5b600083600160311b16600f0b13156118a8577001000162e525ee054754457d59952920260260801c5b600083600160301b16600f0b13156118d15770010000b17255775c040618bf4a4ade83fc0260801c5b6000836001602f1b16600f0b13156118fa577001000058b91b5bc9ae2eed81e9b7d4cfab0260801c5b6000836001602e1b16600f0b131561192357700100002c5c89d5ec6ca4d7c8acc017b7c90260801c5b6000836001602d1b16600f0b131561194c5770010000162e43f4f831060e02d839a9d16d0260801c5b6000836001602c1b16600f0b131561197557700100000b1721bcfc99d9f890ea069117630260801c5b6000836001602b1b16600f0b131561199e5770010000058b90cf1e6d97f9ca14dbcc16280260801c5b6000836001602a1b16600f0b13156119c7577001000002c5c863b73f016468f6bac5ca2b0260801c5b600083600160291b16600f0b13156119f057700100000162e430e5a18f6119e3c02282a50260801c5b600083600160281b16600f0b1315611a19577001000000b1721835514b86e6d96efd1bfe0260801c5b600083600160271b16600f0b1315611a4257700100000058b90c0b48c6be5df846c5b2ef0260801c5b600083600160261b16600f0b1315611a6b5770010000002c5c8601cc6b9e94213c72737a0260801c5b600083600160251b16600f0b1315611a94577001000000162e42fff037df38aa2b219f060260801c5b600083600160241b16600f0b1315611abd5770010000000b17217fba9c739aa5819f44f90260801c5b600083600160231b16600f0b1315611ae6577001000000058b90bfcdee5acd3c1cedc8230260801c5b600083600160221b16600f0b1315611b0f57700100000002c5c85fe31f35a6a30da1be500260801c5b600083600160211b16600f0b1315611b385770010000000162e42ff0999ce3541b9fffcf0260801c5b600083600160201b16600f0b1315611b6157700100000000b17217f80f4ef5aadda455540260801c5b600083638000000016600f0b1315611b8a5770010000000058b90bfbf8479bd5a81b51ad0260801c5b600083634000000016600f0b1315611bb3577001000000002c5c85fdf84bd62ae30a74cc0260801c5b600083632000000016600f0b1315611bdc57700100000000162e42fefb2fed257559bdaa0260801c5b600083631000000016600f0b1315611c05577001000000000b17217f7d5a7716bba4a9ae0260801c5b600083630800000016600f0b1315611c2e57700100000000058b90bfbe9ddbac5e109cce0260801c5b600083630400000016600f0b1315611c575770010000000002c5c85fdf4b15de6f17eb0d0260801c5b600083630200000016600f0b1315611c80577001000000000162e42fefa494f1478fde050260801c5b600083630100000016600f0b1315611ca95770010000000000b17217f7d20cf927c8e94c0260801c5b6000836280000016600f0b1315611cd1577001000000000058b90bfbe8f71cb4e4b33d0260801c5b6000836240000016600f0b1315611cf957700100000000002c5c85fdf477b662b269450260801c5b6000836220000016600f0b1315611d215770010000000000162e42fefa3ae53369388c0260801c5b6000836210000016600f0b1315611d4957700100000000000b17217f7d1d351a389d400260801c5b6000836208000016600f0b1315611d715770010000000000058b90bfbe8e8b2d3d4ede0260801c5b6000836204000016600f0b1315611d99577001000000000002c5c85fdf4741bea6e77e0260801c5b6000836202000016600f0b1315611dc157700100000000000162e42fefa39fe95583c20260801c5b6000836201000016600f0b1315611de85769b17217f7d1cfb72b45e1600160801b010260801c5b60008361800016600f0b1315611e0e576958b90bfbe8e7cc35c3f0600160801b010260801c5b60008361400016600f0b1315611e3457692c5c85fdf473e242ea38600160801b010260801c5b60008361200016600f0b1315611e5a5769162e42fefa39f02b772c600160801b010260801c5b60008361100016600f0b1315611e8057690b17217f7d1cf7d83c1a600160801b010260801c5b60008361080016600f0b1315611ea65769058b90bfbe8e7bdcbe2e600160801b010260801c5b60008361040016600f0b1315611ecc576902c5c85fdf473dea871f600160801b010260801c5b60008361020016600f0b1315611ef257690162e42fefa39ef44d91600160801b010260801c5b60008361010016600f0b1315611f175768b17217f7d1cf79e949600160801b010260801c5b600083608016600f0b1315611f3b576858b90bfbe8e7bce544600160801b010260801c5b600083604016600f0b1315611f5f57682c5c85fdf473de6eca600160801b010260801c5b600083602016600f0b1315611f835768162e42fefa39ef366f600160801b010260801c5b600083601016600f0b1315611fa757680b17217f7d1cf79afa600160801b010260801c5b600083600816600f0b1315611fcb5768058b90bfbe8e7bcd6d600160801b010260801c5b600083600416600f0b1315611fef576802c5c85fdf473de6b2600160801b010260801c5b600083600216600f0b131561201357680162e42fefa39ef358600160801b010260801c5b600083600116600f0b13156120365767b17217f7d1cf79ab600160801b010260801c5b600f83810b60401d603f03900b1c60016001607f1b038111156115d357600080fd5b8035801515811461206857600080fd5b919050565b60006020828403121561207e578081fd5b815161111b81612264565b600080600080600060a086880312156120a0578081fd5b85356120ab81612264565b945060208601356120bb81612264565b935060408601356120cb81612264565b925060608601356120db81612264565b91506120e960808701612058565b90509295509295909350565b60008060008060008060c0878903121561210d578081fd5b863561211881612264565b9550602087013561212881612264565b9450604087013561213881612264565b9350606087013561214881612264565b925061215660808801612058565b915061216460a08801612058565b90509295509295509295565b600080600080600060a08688031215612187578081fd5b853594506020860135935060408601359250606086013591506120e960808701612058565b60008060008060008060c087890312156121c4578182fd5b8635955060208701359450604087013593506060870135925061215660808801612058565b6000602082840312156121fa578081fd5b81516001600160401b038116811461111b578182fd5b600f9190910b815260200190565b600f92830b8152910b602082015260400190565b6000600f82900b60016001607f1b031981141561225d57634e487b7160e01b82526011600452602482fd5b9003919050565b80600f0b811461227357600080fd5b5056fea2646970667358221220efae46a2faf84cdf4aae970b314884b0d46e2143e77d6531bdacd269fa68c5bd64736f6c63430008040033","language":"Solidity","natspec":{"methods":{"_blackScholesPrice(int128,int128,int128,int128,bool)":{"notice":"calculate the price of an option using the Black-Scholes model","params":{"isCall":"whether to price \"call\" or \"put\" option","spot64x64":"64x64 fixed point representation of spot price","strike64x64":"64x64 fixed point representation of strike price","timeToMaturity64x64":"64x64 fixed point representation of duration of option contract (in years)","varianceAnnualized64x64":"64x64 fixed point representation of annualized variance"},"returns":{"_0":"64x64 fixed point representation of Black-Scholes option price"}},"_blackScholesPriceBinary(int128,int128,int128,int128,bool,bool)":{"notice":"calculate the price of an option using the Black-Scholes model","params":{"isAbove":"whether to the user bets the price will stay above this strike or not","isYes":"whether to price \"call\" or \"put\" option","spot64x64":"64x64 fixed point representation of spot price","strike64x64":"64x64 fixed point representation of strike price","timeToMaturity64x64":"64x64 fixed point representation of duration of option contract (in years)","varianceAnnualized64x64":"64x64 fixed point representation of annualized variance"},"returns":{"_0":"64x64 fixed point representation of Black-Scholes option price"}},"blackScholesPrice(uint256,uint256,uint256,uint256,bool)":{"notice":"calculate the price of an option using the Black-Scholes model","params":{"impliedVol":"uint256 representation of annualized impliedVol with a factor of 1e4","isCall":"whether to price \"call\" or \"put\" option","period":"uint256 representation of duration of option contract (in seconds)","spot":"uint256 representation of spot price with a factor of 1e8","strike":"uint256 representation of strike price with a factor of 1e8"},"returns":{"_0":"uint256 representation of Black-Scholes option price with a factor of 1e8"}},"blackScholesPriceBinary(uint256,uint256,uint256,uint256,bool,bool)":{"notice":"calculate the price of an option using the Black-Scholes model","params":{"impliedVol":"uint256 representation of annualized impliedVol with a factor of 1e4","isAbove":"whether to the user bets the price will stay above this strike or not","isYes":"whether to price \"call\" or \"put\" option","period":"uint256 representation of duration of option contract (in seconds)","spot":"uint256 representation of spot price with a factor of 1e8","strike":"uint256 representation of strike price with a factor of 1e8"},"returns":{"_0":"uint256 representation of Black-Scholes option price with a factor of 1e8"}}},"kind":"dev","version":1},"opcodes":"PUSH20 0x0 ADDRESS EQ PUSH1 0x80 PUSH1 0x40 MSTORE PUSH1 0x4 CALLDATASIZE LT PUSH2 0x56 JUMPI PUSH1 0x0 CALLDATALOAD PUSH1 0xE0 SHR DUP1 PUSH4 0x2C607C3B EQ PUSH2 0x5B JUMPI DUP1 PUSH4 0x942C1D7A EQ PUSH2 0x81 JUMPI DUP1 PUSH4 0xD573D615 EQ PUSH2 0xA1 JUMPI DUP1 PUSH4 0xF1DC0478 EQ PUSH2 0xB4 JUMPI JUMPDEST PUSH1 0x0 DUP1 REVERT JUMPDEST PUSH2 0x6E PUSH2 0x69 CALLDATASIZE PUSH1 0x4 PUSH2 0x2170 JUMP JUMPDEST PUSH2 0xC7 JUMP JUMPDEST PUSH1 0x40 MLOAD SWAP1 DUP2 MSTORE PUSH1 0x20 ADD JUMPDEST PUSH1 0x40 MLOAD DUP1 SWAP2 SUB SWAP1 RETURN JUMPDEST PUSH2 0x94 PUSH2 0x8F CALLDATASIZE PUSH1 0x4 PUSH2 0x20F5 JUMP JUMPDEST PUSH2 0x52B JUMP JUMPDEST PUSH1 0x40 MLOAD PUSH2 0x78 SWAP2 SWAP1 PUSH2 0x2210 JUMP JUMPDEST PUSH2 0x6E PUSH2 0xAF CALLDATASIZE PUSH1 0x4 PUSH2 0x21AC JUMP JUMPDEST PUSH2 0x80D JUMP JUMPDEST PUSH2 0x94 PUSH2 0xC2 CALLDATASIZE PUSH1 0x4 PUSH2 0x2089 JUMP JUMPDEST PUSH2 0xC71 JUMP JUMPDEST PUSH1 0x0 DUP1 PUSH2 0xD7 PUSH4 0x5F5E100 PUSH2 0x1090 JUMP JUMPDEST SWAP1 POP PUSH1 0x0 PUSH2 0xE6 PUSH2 0x2710 PUSH2 0x1090 JUMP JUMPDEST SWAP1 POP PUSH1 0x0 PUSH2 0xF3 DUP10 PUSH2 0x1090 JUMP JUMPDEST PUSH1 0x40 MLOAD PUSH4 0x25F39A63 PUSH1 0xE0 SHL DUP2 MSTORE PUSH20 0x0 SWAP2 PUSH4 0x25F39A63 SWAP2 PUSH2 0x12E SWAP2 PUSH1 0xF SIGNEXTEND SWAP1 DUP7 SWAP1 PUSH1 0x4 ADD PUSH2 0x221E JUMP JUMPDEST PUSH1 0x20 PUSH1 0x40 MLOAD DUP1 DUP4 SUB DUP2 DUP7 DUP1 EXTCODESIZE ISZERO DUP1 ISZERO PUSH2 0x146 JUMPI PUSH1 0x0 DUP1 REVERT JUMPDEST POP GAS DELEGATECALL ISZERO DUP1 ISZERO PUSH2 0x15A JUMPI RETURNDATASIZE PUSH1 0x0 DUP1 RETURNDATACOPY RETURNDATASIZE PUSH1 0x0 REVERT JUMPDEST POP POP POP POP PUSH1 0x40 MLOAD RETURNDATASIZE PUSH1 0x1F NOT PUSH1 0x1F DUP3 ADD AND DUP3 ADD DUP1 PUSH1 0x40 MSTORE POP DUP2 ADD SWAP1 PUSH2 0x17E SWAP2 SWAP1 PUSH2 0x206D JUMP JUMPDEST PUSH1 0x40 MLOAD PUSH4 0x5B4B90A3 PUSH1 0xE1 SHL DUP2 MSTORE SWAP1 SWAP2 POP PUSH1 0x0 SWAP1 PUSH20 0x0 SWAP1 PUSH4 0xB6972146 SWAP1 PUSH2 0x1C1 SWAP1 PUSH1 0xF DUP7 SWAP1 SIGNEXTEND SWAP1 DUP7 SWAP1 PUSH1 0x4 ADD PUSH2 0x221E JUMP JUMPDEST PUSH1 0x20 PUSH1 0x40 MLOAD DUP1 DUP4 SUB DUP2 DUP7 DUP1 EXTCODESIZE ISZERO DUP1 ISZERO PUSH2 0x1D9 JUMPI PUSH1 0x0 DUP1 REVERT JUMPDEST POP GAS DELEGATECALL ISZERO DUP1 ISZERO PUSH2 0x1ED JUMPI RETURNDATASIZE PUSH1 0x0 DUP1 RETURNDATACOPY RETURNDATASIZE PUSH1 0x0 REVERT JUMPDEST POP POP POP POP PUSH1 0x40 MLOAD RETURNDATASIZE PUSH1 0x1F NOT PUSH1 0x1F DUP3 ADD AND DUP3 ADD DUP1 PUSH1 0x40 MSTORE POP DUP2 ADD SWAP1 PUSH2 0x211 SWAP2 SWAP1 PUSH2 0x206D JUMP JUMPDEST SWAP1 POP PUSH1 0x0 PUSH2 0x21E DUP11 PUSH2 0x1090 JUMP JUMPDEST PUSH1 0x40 MLOAD PUSH4 0x25F39A63 PUSH1 0xE0 SHL DUP2 MSTORE PUSH20 0x0 SWAP2 PUSH4 0x25F39A63 SWAP2 PUSH2 0x259 SWAP2 PUSH1 0xF SIGNEXTEND SWAP1 DUP10 SWAP1 PUSH1 0x4 ADD PUSH2 0x221E JUMP JUMPDEST PUSH1 0x20 PUSH1 0x40 MLOAD DUP1 DUP4 SUB DUP2 DUP7 DUP1 EXTCODESIZE ISZERO DUP1 ISZERO PUSH2 0x271 JUMPI PUSH1 0x0 DUP1 REVERT JUMPDEST POP GAS DELEGATECALL ISZERO DUP1 ISZERO PUSH2 0x285 JUMPI RETURNDATASIZE PUSH1 0x0 DUP1 RETURNDATACOPY RETURNDATASIZE PUSH1 0x0 REVERT JUMPDEST POP POP POP POP PUSH1 0x40 MLOAD RETURNDATASIZE PUSH1 0x1F NOT PUSH1 0x1F DUP3 ADD AND DUP3 ADD DUP1 PUSH1 0x40 MSTORE POP DUP2 ADD SWAP1 PUSH2 0x2A9 SWAP2 SWAP1 PUSH2 0x206D JUMP JUMPDEST SWAP1 POP PUSH1 0x0 PUSH2 0x2B6 DUP11 PUSH2 0x1090 JUMP JUMPDEST PUSH1 0x40 MLOAD PUSH4 0x25F39A63 PUSH1 0xE0 SHL DUP2 MSTORE PUSH20 0x0 SWAP2 PUSH4 0x25F39A63 SWAP2 PUSH2 0x2F1 SWAP2 PUSH1 0xF SIGNEXTEND SWAP1 DUP11 SWAP1 PUSH1 0x4 ADD PUSH2 0x221E JUMP JUMPDEST PUSH1 0x20 PUSH1 0x40 MLOAD DUP1 DUP4 SUB DUP2 DUP7 DUP1 EXTCODESIZE ISZERO DUP1 ISZERO PUSH2 0x309 JUMPI PUSH1 0x0 DUP1 REVERT JUMPDEST POP GAS DELEGATECALL ISZERO DUP1 ISZERO PUSH2 0x31D JUMPI RETURNDATASIZE PUSH1 0x0 DUP1 RETURNDATACOPY RETURNDATASIZE PUSH1 0x0 REVERT JUMPDEST POP POP POP POP PUSH1 0x40 MLOAD RETURNDATASIZE PUSH1 0x1F NOT PUSH1 0x1F DUP3 ADD AND DUP3 ADD DUP1 PUSH1 0x40 MSTORE POP DUP2 ADD SWAP1 PUSH2 0x341 SWAP2 SWAP1 PUSH2 0x206D JUMP JUMPDEST SWAP1 POP PUSH1 0x0 PUSH2 0x34E DUP11 PUSH2 0x1090 JUMP JUMPDEST PUSH1 0xF SIGNEXTEND PUSH20 0x0 PUSH4 0x25F39A63 SWAP1 SWAP2 PUSH2 0x37A PUSH4 0x1E13380 PUSH2 0x1090 JUMP JUMPDEST PUSH1 0x40 MLOAD DUP4 PUSH4 0xFFFFFFFF AND PUSH1 0xE0 SHL DUP2 MSTORE PUSH1 0x4 ADD PUSH2 0x397 SWAP3 SWAP2 SWAP1 PUSH2 0x221E JUMP JUMPDEST PUSH1 0x20 PUSH1 0x40 MLOAD DUP1 DUP4 SUB DUP2 DUP7 DUP1 EXTCODESIZE ISZERO DUP1 ISZERO PUSH2 0x3AF JUMPI PUSH1 0x0 DUP1 REVERT JUMPDEST POP GAS DELEGATECALL ISZERO DUP1 ISZERO PUSH2 0x3C3 JUMPI RETURNDATASIZE PUSH1 0x0 DUP1 RETURNDATACOPY RETURNDATASIZE PUSH1 0x0 REVERT JUMPDEST POP POP POP POP PUSH1 0x40 MLOAD RETURNDATASIZE PUSH1 0x1F NOT PUSH1 0x1F DUP3 ADD AND DUP3 ADD DUP1 PUSH1 0x40 MSTORE POP DUP2 ADD SWAP1 PUSH2 0x3E7 SWAP2 SWAP1 PUSH2 0x206D JUMP JUMPDEST SWAP1 POP PUSH1 0x0 PUSH2 0x3F8 DUP6 DUP6 DUP6 DUP6 DUP15 PUSH2 0xC71 JUMP JUMPDEST SWAP1 POP PUSH20 0x0 PUSH4 0xA7F7D0D0 DUP3 PUSH1 0xF SIGNEXTEND PUSH20 0x0 PUSH4 0xB6972146 SWAP1 SWAP2 DUP13 PUSH1 0x40 MLOAD DUP4 PUSH4 0xFFFFFFFF AND PUSH1 0xE0 SHL DUP2 MSTORE PUSH1 0x4 ADD PUSH2 0x452 SWAP3 SWAP2 SWAP1 PUSH2 0x221E JUMP JUMPDEST PUSH1 0x20 PUSH1 0x40 MLOAD DUP1 DUP4 SUB DUP2 DUP7 DUP1 EXTCODESIZE ISZERO DUP1 ISZERO PUSH2 0x46A JUMPI PUSH1 0x0 DUP1 REVERT JUMPDEST POP GAS DELEGATECALL ISZERO DUP1 ISZERO PUSH2 0x47E JUMPI RETURNDATASIZE PUSH1 0x0 DUP1 RETURNDATACOPY RETURNDATASIZE PUSH1 0x0 REVERT JUMPDEST POP POP POP POP PUSH1 0x40 MLOAD RETURNDATASIZE PUSH1 0x1F NOT PUSH1 0x1F DUP3 ADD AND DUP3 ADD DUP1 PUSH1 0x40 MSTORE POP DUP2 ADD SWAP1 PUSH2 0x4A2 SWAP2 SWAP1 PUSH2 0x206D JUMP JUMPDEST PUSH1 0x40 MLOAD DUP3 PUSH4 0xFFFFFFFF AND PUSH1 0xE0 SHL DUP2 MSTORE PUSH1 0x4 ADD PUSH2 0x4BE SWAP2 SWAP1 PUSH2 0x2210 JUMP JUMPDEST PUSH1 0x20 PUSH1 0x40 MLOAD DUP1 DUP4 SUB DUP2 DUP7 DUP1 EXTCODESIZE ISZERO DUP1 ISZERO PUSH2 0x4D6 JUMPI PUSH1 0x0 DUP1 REVERT JUMPDEST POP GAS DELEGATECALL ISZERO DUP1 ISZERO PUSH2 0x4EA JUMPI RETURNDATASIZE PUSH1 0x0 DUP1 RETURNDATACOPY RETURNDATASIZE PUSH1 0x0 REVERT JUMPDEST POP POP POP POP PUSH1 0x40 MLOAD RETURNDATASIZE PUSH1 0x1F NOT PUSH1 0x1F DUP3 ADD AND DUP3 ADD DUP1 PUSH1 0x40 MSTORE POP DUP2 ADD SWAP1 PUSH2 0x50E SWAP2 SWAP1 PUSH2 0x21E9 JUMP JUMPDEST PUSH1 0x1 PUSH1 0x1 PUSH1 0x40 SHL SUB AND SWAP9 POP POP POP POP POP POP POP POP POP JUMPDEST SWAP6 SWAP5 POP POP POP POP POP JUMP JUMPDEST PUSH1 0x40 MLOAD PUSH4 0x5B4B90A3 PUSH1 0xE1 SHL DUP2 MSTORE PUSH1 0x0 SWAP1 DUP2 SWAP1 PUSH20 0x0 SWAP1 PUSH4 0xB6972146 SWAP1 PUSH2 0x56D SWAP1 PUSH1 0xF DUP10 SWAP1 SIGNEXTEND SWAP1 DUP13 SWAP1 PUSH1 0x4 ADD PUSH2 0x221E JUMP JUMPDEST PUSH1 0x20 PUSH1 0x40 MLOAD DUP1 DUP4 SUB DUP2 DUP7 DUP1 EXTCODESIZE ISZERO DUP1 ISZERO PUSH2 0x585 JUMPI PUSH1 0x0 DUP1 REVERT JUMPDEST POP GAS DELEGATECALL ISZERO DUP1 ISZERO PUSH2 0x599 JUMPI RETURNDATASIZE PUSH1 0x0 DUP1 RETURNDATACOPY RETURNDATASIZE PUSH1 0x0 REVERT JUMPDEST POP POP POP POP PUSH1 0x40 MLOAD RETURNDATASIZE PUSH1 0x1F NOT PUSH1 0x1F DUP3 ADD AND DUP3 ADD DUP1 PUSH1 0x40 MSTORE POP DUP2 ADD SWAP1 PUSH2 0x5BD SWAP2 SWAP1 PUSH2 0x206D JUMP JUMPDEST PUSH1 0x40 MLOAD PUSH4 0x1B8F6AB9 PUSH1 0xE2 SHL DUP2 MSTORE SWAP1 SWAP2 POP PUSH1 0x0 SWAP1 PUSH20 0x0 SWAP1 PUSH4 0x6E3DAAE4 SWAP1 PUSH2 0x5FE SWAP1 PUSH1 0xF DUP7 SWAP1 SIGNEXTEND SWAP1 PUSH1 0x4 ADD PUSH2 0x2210 JUMP JUMPDEST PUSH1 0x20 PUSH1 0x40 MLOAD DUP1 DUP4 SUB DUP2 DUP7 DUP1 EXTCODESIZE ISZERO DUP1 ISZERO PUSH2 0x616 JUMPI PUSH1 0x0 DUP1 REVERT JUMPDEST POP GAS DELEGATECALL ISZERO DUP1 ISZERO PUSH2 0x62A JUMPI RETURNDATASIZE PUSH1 0x0 DUP1 RETURNDATACOPY RETURNDATASIZE PUSH1 0x0 REVERT JUMPDEST POP POP POP POP PUSH1 0x40 MLOAD RETURNDATASIZE PUSH1 0x1F NOT PUSH1 0x1F DUP3 ADD AND DUP3 ADD DUP1 PUSH1 0x40 MSTORE POP DUP2 ADD SWAP1 PUSH2 0x64E SWAP2 SWAP1 PUSH2 0x206D JUMP JUMPDEST SWAP1 POP PUSH1 0x0 PUSH2 0x6FF PUSH1 0x1 DUP5 PUSH1 0xF SIGNEXTEND SWAP1 SAR PUSH2 0x6F6 DUP11 PUSH1 0xF SIGNEXTEND PUSH20 0x0 PUSH4 0x25F39A63 SWAP1 SWAP2 DUP15 PUSH1 0x40 MLOAD DUP4 PUSH4 0xFFFFFFFF AND PUSH1 0xE0 SHL DUP2 MSTORE PUSH1 0x4 ADD PUSH2 0x69E SWAP3 SWAP2 SWAP1 PUSH2 0x221E JUMP JUMPDEST PUSH1 0x20 PUSH1 0x40 MLOAD DUP1 DUP4 SUB DUP2 DUP7 DUP1 EXTCODESIZE ISZERO DUP1 ISZERO PUSH2 0x6B6 JUMPI PUSH1 0x0 DUP1 REVERT JUMPDEST POP GAS DELEGATECALL ISZERO DUP1 ISZERO PUSH2 0x6CA JUMPI RETURNDATASIZE PUSH1 0x0 DUP1 RETURNDATACOPY RETURNDATASIZE PUSH1 0x0 REVERT JUMPDEST POP POP POP POP PUSH1 0x40 MLOAD RETURNDATASIZE PUSH1 0x1F NOT PUSH1 0x1F DUP3 ADD AND DUP3 ADD DUP1 PUSH1 0x40 MSTORE POP DUP2 ADD SWAP1 PUSH2 0x6EE SWAP2 SWAP1 PUSH2 0x206D JUMP JUMPDEST PUSH1 0xF SIGNEXTEND PUSH2 0x10AD JUMP JUMPDEST PUSH1 0xF SIGNEXTEND SWAP1 PUSH2 0x10E7 JUMP JUMPDEST PUSH1 0x40 MLOAD PUSH4 0x25F39A63 PUSH1 0xE0 SHL DUP2 MSTORE PUSH20 0x0 SWAP2 PUSH4 0x25F39A63 SWAP2 PUSH2 0x73A SWAP2 PUSH1 0xF SIGNEXTEND SWAP1 DUP7 SWAP1 PUSH1 0x4 ADD PUSH2 0x221E JUMP JUMPDEST PUSH1 0x20 PUSH1 0x40 MLOAD DUP1 DUP4 SUB DUP2 DUP7 DUP1 EXTCODESIZE ISZERO DUP1 ISZERO PUSH2 0x752 JUMPI PUSH1 0x0 DUP1 REVERT JUMPDEST POP GAS DELEGATECALL ISZERO DUP1 ISZERO PUSH2 0x766 JUMPI RETURNDATASIZE PUSH1 0x0 DUP1 RETURNDATACOPY RETURNDATASIZE PUSH1 0x0 REVERT JUMPDEST POP POP POP POP PUSH1 0x40 MLOAD RETURNDATASIZE PUSH1 0x1F NOT PUSH1 0x1F DUP3 ADD AND DUP3 ADD DUP1 PUSH1 0x40 MSTORE POP DUP2 ADD SWAP1 PUSH2 0x78A SWAP2 SWAP1 PUSH2 0x206D JUMP JUMPDEST SWAP1 POP PUSH1 0x0 PUSH2 0x79C PUSH1 0xF DUP4 SWAP1 SIGNEXTEND DUP5 PUSH2 0x1122 JUMP JUMPDEST SWAP1 POP DUP7 ISZERO PUSH2 0x7DD JUMPI DUP6 ISZERO PUSH2 0x7BE JUMPI PUSH2 0x7B3 DUP2 PUSH2 0x1155 JUMP JUMPDEST SWAP5 POP POP POP POP POP PUSH2 0x803 JUMP JUMPDEST PUSH2 0x7B3 PUSH2 0x7CA DUP3 PUSH2 0x1155 JUMP JUMPDEST PUSH2 0x7D4 PUSH1 0x1 PUSH2 0x1090 JUMP JUMPDEST PUSH1 0xF SIGNEXTEND SWAP1 PUSH2 0x1122 JUMP JUMPDEST DUP6 ISZERO PUSH2 0x7F7 JUMPI PUSH2 0x7B3 PUSH2 0x7CA PUSH2 0x7F2 DUP4 PUSH2 0x2232 JUMP JUMPDEST PUSH2 0x1155 JUMP JUMPDEST PUSH2 0x7B3 PUSH2 0x7F2 DUP3 PUSH2 0x2232 JUMP JUMPDEST SWAP7 SWAP6 POP POP POP POP POP POP JUMP JUMPDEST PUSH1 0x0 DUP1 PUSH2 0x81D PUSH4 0x5F5E100 PUSH2 0x1090 JUMP JUMPDEST SWAP1 POP PUSH1 0x0 PUSH2 0x82C PUSH2 0x2710 PUSH2 0x1090 JUMP JUMPDEST SWAP1 POP PUSH1 0x0 PUSH2 0x839 DUP11 PUSH2 0x1090 JUMP JUMPDEST PUSH1 0x40 MLOAD PUSH4 0x25F39A63 PUSH1 0xE0 SHL DUP2 MSTORE PUSH20 0x0 SWAP2 PUSH4 0x25F39A63 SWAP2 PUSH2 0x874 SWAP2 PUSH1 0xF SIGNEXTEND SWAP1 DUP7 SWAP1 PUSH1 0x4 ADD PUSH2 0x221E JUMP JUMPDEST PUSH1 0x20 PUSH1 0x40 MLOAD DUP1 DUP4 SUB DUP2 DUP7 DUP1 EXTCODESIZE ISZERO DUP1 ISZERO PUSH2 0x88C JUMPI PUSH1 0x0 DUP1 REVERT JUMPDEST POP GAS DELEGATECALL ISZERO DUP1 ISZERO PUSH2 0x8A0 JUMPI RETURNDATASIZE PUSH1 0x0 DUP1 RETURNDATACOPY RETURNDATASIZE PUSH1 0x0 REVERT JUMPDEST POP POP POP POP PUSH1 0x40 MLOAD RETURNDATASIZE PUSH1 0x1F NOT PUSH1 0x1F DUP3 ADD AND DUP3 ADD DUP1 PUSH1 0x40 MSTORE POP DUP2 ADD SWAP1 PUSH2 0x8C4 SWAP2 SWAP1 PUSH2 0x206D JUMP JUMPDEST PUSH1 0x40 MLOAD PUSH4 0x5B4B90A3 PUSH1 0xE1 SHL DUP2 MSTORE SWAP1 SWAP2 POP PUSH1 0x0 SWAP1 PUSH20 0x0 SWAP1 PUSH4 0xB6972146 SWAP1 PUSH2 0x907 SWAP1 PUSH1 0xF DUP7 SWAP1 SIGNEXTEND SWAP1 DUP7 SWAP1 PUSH1 0x4 ADD PUSH2 0x221E JUMP JUMPDEST PUSH1 0x20 PUSH1 0x40 MLOAD DUP1 DUP4 SUB DUP2 DUP7 DUP1 EXTCODESIZE ISZERO DUP1 ISZERO PUSH2 0x91F JUMPI PUSH1 0x0 DUP1 REVERT JUMPDEST POP GAS DELEGATECALL ISZERO DUP1 ISZERO PUSH2 0x933 JUMPI RETURNDATASIZE PUSH1 0x0 DUP1 RETURNDATACOPY RETURNDATASIZE PUSH1 0x0 REVERT JUMPDEST POP POP POP POP PUSH1 0x40 MLOAD RETURNDATASIZE PUSH1 0x1F NOT PUSH1 0x1F DUP3 ADD AND DUP3 ADD DUP1 PUSH1 0x40 MSTORE POP DUP2 ADD SWAP1 PUSH2 0x957 SWAP2 SWAP1 PUSH2 0x206D JUMP JUMPDEST SWAP1 POP PUSH1 0x0 PUSH2 0x964 DUP12 PUSH2 0x1090 JUMP JUMPDEST PUSH1 0x40 MLOAD PUSH4 0x25F39A63 PUSH1 0xE0 SHL DUP2 MSTORE PUSH20 0x0 SWAP2 PUSH4 0x25F39A63 SWAP2 PUSH2 0x99F SWAP2 PUSH1 0xF SIGNEXTEND SWAP1 DUP10 SWAP1 PUSH1 0x4 ADD PUSH2 0x221E JUMP JUMPDEST PUSH1 0x20 PUSH1 0x40 MLOAD DUP1 DUP4 SUB DUP2 DUP7 DUP1 EXTCODESIZE ISZERO DUP1 ISZERO PUSH2 0x9B7 JUMPI PUSH1 0x0 DUP1 REVERT JUMPDEST POP GAS DELEGATECALL ISZERO DUP1 ISZERO PUSH2 0x9CB JUMPI RETURNDATASIZE PUSH1 0x0 DUP1 RETURNDATACOPY RETURNDATASIZE PUSH1 0x0 REVERT JUMPDEST POP POP POP POP PUSH1 0x40 MLOAD RETURNDATASIZE PUSH1 0x1F NOT PUSH1 0x1F DUP3 ADD AND DUP3 ADD DUP1 PUSH1 0x40 MSTORE POP DUP2 ADD SWAP1 PUSH2 0x9EF SWAP2 SWAP1 PUSH2 0x206D JUMP JUMPDEST SWAP1 POP PUSH1 0x0 PUSH2 0x9FC DUP12 PUSH2 0x1090 JUMP JUMPDEST PUSH1 0x40 MLOAD PUSH4 0x25F39A63 PUSH1 0xE0 SHL DUP2 MSTORE PUSH20 0x0 SWAP2 PUSH4 0x25F39A63 SWAP2 PUSH2 0xA37 SWAP2 PUSH1 0xF SIGNEXTEND SWAP1 DUP11 SWAP1 PUSH1 0x4 ADD PUSH2 0x221E JUMP JUMPDEST PUSH1 0x20 PUSH1 0x40 MLOAD DUP1 DUP4 SUB DUP2 DUP7 DUP1 EXTCODESIZE ISZERO DUP1 ISZERO PUSH2 0xA4F JUMPI PUSH1 0x0 DUP1 REVERT JUMPDEST POP GAS DELEGATECALL ISZERO DUP1 ISZERO PUSH2 0xA63 JUMPI RETURNDATASIZE PUSH1 0x0 DUP1 RETURNDATACOPY RETURNDATASIZE PUSH1 0x0 REVERT JUMPDEST POP POP POP POP PUSH1 0x40 MLOAD RETURNDATASIZE PUSH1 0x1F NOT PUSH1 0x1F DUP3 ADD AND DUP3 ADD DUP1 PUSH1 0x40 MSTORE POP DUP2 ADD SWAP1 PUSH2 0xA87 SWAP2 SWAP1 PUSH2 0x206D JUMP JUMPDEST SWAP1 POP PUSH1 0x0 PUSH2 0xA94 DUP12 PUSH2 0x1090 JUMP JUMPDEST PUSH1 0xF SIGNEXTEND PUSH20 0x0 PUSH4 0x25F39A63 SWAP1 SWAP2 PUSH2 0xAC0 PUSH4 0x1E13380 PUSH2 0x1090 JUMP JUMPDEST PUSH1 0x40 MLOAD DUP4 PUSH4 0xFFFFFFFF AND PUSH1 0xE0 SHL DUP2 MSTORE PUSH1 0x4 ADD PUSH2 0xADD SWAP3 SWAP2 SWAP1 PUSH2 0x221E JUMP JUMPDEST PUSH1 0x20 PUSH1 0x40 MLOAD DUP1 DUP4 SUB DUP2 DUP7 DUP1 EXTCODESIZE ISZERO DUP1 ISZERO PUSH2 0xAF5 JUMPI PUSH1 0x0 DUP1 REVERT JUMPDEST POP GAS DELEGATECALL ISZERO DUP1 ISZERO PUSH2 0xB09 JUMPI RETURNDATASIZE PUSH1 0x0 DUP1 RETURNDATACOPY RETURNDATASIZE PUSH1 0x0 REVERT JUMPDEST POP POP POP POP PUSH1 0x40 MLOAD RETURNDATASIZE PUSH1 0x1F NOT PUSH1 0x1F DUP3 ADD AND DUP3 ADD DUP1 PUSH1 0x40 MSTORE POP DUP2 ADD SWAP1 PUSH2 0xB2D SWAP2 SWAP1 PUSH2 0x206D JUMP JUMPDEST SWAP1 POP PUSH1 0x0 PUSH2 0xB3F DUP6 DUP6 DUP6 DUP6 DUP16 DUP16 PUSH2 0x52B JUMP JUMPDEST SWAP1 POP PUSH20 0x0 PUSH4 0xA7F7D0D0 DUP3 PUSH1 0xF SIGNEXTEND PUSH20 0x0 PUSH4 0xB6972146 SWAP1 SWAP2 DUP13 PUSH1 0x40 MLOAD DUP4 PUSH4 0xFFFFFFFF AND PUSH1 0xE0 SHL DUP2 MSTORE PUSH1 0x4 ADD PUSH2 0xB99 SWAP3 SWAP2 SWAP1 PUSH2 0x221E JUMP JUMPDEST PUSH1 0x20 PUSH1 0x40 MLOAD DUP1 DUP4 SUB DUP2 DUP7 DUP1 EXTCODESIZE ISZERO DUP1 ISZERO PUSH2 0xBB1 JUMPI PUSH1 0x0 DUP1 REVERT JUMPDEST POP GAS DELEGATECALL ISZERO DUP1 ISZERO PUSH2 0xBC5 JUMPI RETURNDATASIZE PUSH1 0x0 DUP1 RETURNDATACOPY RETURNDATASIZE PUSH1 0x0 REVERT JUMPDEST POP POP POP POP PUSH1 0x40 MLOAD RETURNDATASIZE PUSH1 0x1F NOT PUSH1 0x1F DUP3 ADD AND DUP3 ADD DUP1 PUSH1 0x40 MSTORE POP DUP2 ADD SWAP1 PUSH2 0xBE9 SWAP2 SWAP1 PUSH2 0x206D JUMP JUMPDEST PUSH1 0x40 MLOAD DUP3 PUSH4 0xFFFFFFFF AND PUSH1 0xE0 SHL DUP2 MSTORE PUSH1 0x4 ADD PUSH2 0xC05 SWAP2 SWAP1 PUSH2 0x2210 JUMP JUMPDEST PUSH1 0x20 PUSH1 0x40 MLOAD DUP1 DUP4 SUB DUP2 DUP7 DUP1 EXTCODESIZE ISZERO DUP1 ISZERO PUSH2 0xC1D JUMPI PUSH1 0x0 DUP1 REVERT JUMPDEST POP GAS DELEGATECALL ISZERO DUP1 ISZERO PUSH2 0xC31 JUMPI RETURNDATASIZE PUSH1 0x0 DUP1 RETURNDATACOPY RETURNDATASIZE PUSH1 0x0 REVERT JUMPDEST POP POP POP POP PUSH1 0x40 MLOAD RETURNDATASIZE PUSH1 0x1F NOT PUSH1 0x1F DUP3 ADD AND DUP3 ADD DUP1 PUSH1 0x40 MSTORE POP DUP2 ADD SWAP1 PUSH2 0xC55 SWAP2 SWAP1 PUSH2 0x21E9 JUMP JUMPDEST PUSH1 0x1 PUSH1 0x1 PUSH1 0x40 SHL SUB AND SWAP16 SWAP15 POP POP POP POP POP POP POP POP POP POP POP POP POP POP POP JUMP JUMPDEST PUSH1 0x40 MLOAD PUSH4 0x5B4B90A3 PUSH1 0xE1 SHL DUP2 MSTORE PUSH1 0x0 SWAP1 DUP2 SWAP1 PUSH20 0x0 SWAP1 PUSH4 0xB6972146 SWAP1 PUSH2 0xCB3 SWAP1 PUSH1 0xF DUP9 SWAP1 SIGNEXTEND SWAP1 DUP12 SWAP1 PUSH1 0x4 ADD PUSH2 0x221E JUMP JUMPDEST PUSH1 0x20 PUSH1 0x40 MLOAD DUP1 DUP4 SUB DUP2 DUP7 DUP1 EXTCODESIZE ISZERO DUP1 ISZERO PUSH2 0xCCB JUMPI PUSH1 0x0 DUP1 REVERT JUMPDEST POP GAS DELEGATECALL ISZERO DUP1 ISZERO PUSH2 0xCDF JUMPI RETURNDATASIZE PUSH1 0x0 DUP1 RETURNDATACOPY RETURNDATASIZE PUSH1 0x0 REVERT JUMPDEST POP POP POP POP PUSH1 0x40 MLOAD RETURNDATASIZE PUSH1 0x1F NOT PUSH1 0x1F DUP3 ADD AND DUP3 ADD DUP1 PUSH1 0x40 MSTORE POP DUP2 ADD SWAP1 PUSH2 0xD03 SWAP2 SWAP1 PUSH2 0x206D JUMP JUMPDEST PUSH1 0x40 MLOAD PUSH4 0x1B8F6AB9 PUSH1 0xE2 SHL DUP2 MSTORE SWAP1 SWAP2 POP PUSH1 0x0 SWAP1 PUSH20 0x0 SWAP1 PUSH4 0x6E3DAAE4 SWAP1 PUSH2 0xD44 SWAP1 PUSH1 0xF DUP7 SWAP1 SIGNEXTEND SWAP1 PUSH1 0x4 ADD PUSH2 0x2210 JUMP JUMPDEST PUSH1 0x20 PUSH1 0x40 MLOAD DUP1 DUP4 SUB DUP2 DUP7 DUP1 EXTCODESIZE ISZERO DUP1 ISZERO PUSH2 0xD5C JUMPI PUSH1 0x0 DUP1 REVERT JUMPDEST POP GAS DELEGATECALL ISZERO DUP1 ISZERO PUSH2 0xD70 JUMPI RETURNDATASIZE PUSH1 0x0 DUP1 RETURNDATACOPY RETURNDATASIZE PUSH1 0x0 REVERT JUMPDEST POP POP POP POP PUSH1 0x40 MLOAD RETURNDATASIZE PUSH1 0x1F NOT PUSH1 0x1F DUP3 ADD AND DUP3 ADD DUP1 PUSH1 0x40 MSTORE POP DUP2 ADD SWAP1 PUSH2 0xD94 SWAP2 SWAP1 PUSH2 0x206D JUMP JUMPDEST SWAP1 POP PUSH1 0x0 PUSH2 0xDE4 PUSH1 0x1 DUP5 PUSH1 0xF SIGNEXTEND SWAP1 SAR PUSH2 0x6F6 DUP10 PUSH1 0xF SIGNEXTEND PUSH20 0x0 PUSH4 0x25F39A63 SWAP1 SWAP2 DUP14 PUSH1 0x40 MLOAD DUP4 PUSH4 0xFFFFFFFF AND PUSH1 0xE0 SHL DUP2 MSTORE PUSH1 0x4 ADD PUSH2 0x69E SWAP3 SWAP2 SWAP1 PUSH2 0x221E JUMP JUMPDEST PUSH1 0x40 MLOAD PUSH4 0x25F39A63 PUSH1 0xE0 SHL DUP2 MSTORE PUSH20 0x0 SWAP2 PUSH4 0x25F39A63 SWAP2 PUSH2 0xE1F SWAP2 PUSH1 0xF SIGNEXTEND SWAP1 DUP7 SWAP1 PUSH1 0x4 ADD PUSH2 0x221E JUMP JUMPDEST PUSH1 0x20 PUSH1 0x40 MLOAD DUP1 DUP4 SUB DUP2 DUP7 DUP1 EXTCODESIZE ISZERO DUP1 ISZERO PUSH2 0xE37 JUMPI PUSH1 0x0 DUP1 REVERT JUMPDEST POP GAS DELEGATECALL ISZERO DUP1 ISZERO PUSH2 0xE4B JUMPI RETURNDATASIZE PUSH1 0x0 DUP1 RETURNDATACOPY RETURNDATASIZE PUSH1 0x0 REVERT JUMPDEST POP POP POP POP PUSH1 0x40 MLOAD RETURNDATASIZE PUSH1 0x1F NOT PUSH1 0x1F DUP3 ADD AND DUP3 ADD DUP1 PUSH1 0x40 MSTORE POP DUP2 ADD SWAP1 PUSH2 0xE6F SWAP2 SWAP1 PUSH2 0x206D JUMP JUMPDEST SWAP1 POP PUSH1 0x0 PUSH2 0xE81 PUSH1 0xF DUP4 SWAP1 SIGNEXTEND DUP5 PUSH2 0x1122 JUMP JUMPDEST SWAP1 POP DUP6 ISZERO PUSH2 0xFC1 JUMPI PUSH2 0xFB6 PUSH20 0x0 PUSH4 0xB6972146 PUSH1 0xF DUP13 SWAP1 SIGNEXTEND PUSH2 0xEB4 DUP6 PUSH2 0x1155 JUMP JUMPDEST PUSH1 0x40 MLOAD DUP4 PUSH4 0xFFFFFFFF AND PUSH1 0xE0 SHL DUP2 MSTORE PUSH1 0x4 ADD PUSH2 0xED1 SWAP3 SWAP2 SWAP1 PUSH2 0x221E JUMP JUMPDEST PUSH1 0x20 PUSH1 0x40 MLOAD DUP1 DUP4 SUB DUP2 DUP7 DUP1 EXTCODESIZE ISZERO DUP1 ISZERO PUSH2 0xEE9 JUMPI PUSH1 0x0 DUP1 REVERT JUMPDEST POP GAS DELEGATECALL ISZERO DUP1 ISZERO PUSH2 0xEFD JUMPI RETURNDATASIZE PUSH1 0x0 DUP1 RETURNDATACOPY RETURNDATASIZE PUSH1 0x0 REVERT JUMPDEST POP POP POP POP PUSH1 0x40 MLOAD RETURNDATASIZE PUSH1 0x1F NOT PUSH1 0x1F DUP3 ADD AND DUP3 ADD DUP1 PUSH1 0x40 MSTORE POP DUP2 ADD SWAP1 PUSH2 0xF21 SWAP2 SWAP1 PUSH2 0x206D JUMP JUMPDEST PUSH20 0x0 PUSH4 0xB6972146 PUSH1 0xF DUP13 SWAP1 SIGNEXTEND PUSH2 0xF49 DUP8 PUSH2 0x1155 JUMP JUMPDEST PUSH1 0x40 MLOAD DUP4 PUSH4 0xFFFFFFFF AND PUSH1 0xE0 SHL DUP2 MSTORE PUSH1 0x4 ADD PUSH2 0xF66 SWAP3 SWAP2 SWAP1 PUSH2 0x221E JUMP JUMPDEST PUSH1 0x20 PUSH1 0x40 MLOAD DUP1 DUP4 SUB DUP2 DUP7 DUP1 EXTCODESIZE ISZERO DUP1 ISZERO PUSH2 0xF7E JUMPI PUSH1 0x0 DUP1 REVERT JUMPDEST POP GAS DELEGATECALL ISZERO DUP1 ISZERO PUSH2 0xF92 JUMPI RETURNDATASIZE PUSH1 0x0 DUP1 RETURNDATACOPY RETURNDATASIZE PUSH1 0x0 REVERT JUMPDEST POP POP POP POP PUSH1 0x40 MLOAD RETURNDATASIZE PUSH1 0x1F NOT PUSH1 0x1F DUP3 ADD AND DUP3 ADD DUP1 PUSH1 0x40 MSTORE POP DUP2 ADD SWAP1 PUSH2 0x7D4 SWAP2 SWAP1 PUSH2 0x206D JUMP JUMPDEST SWAP5 POP POP POP POP POP PUSH2 0x522 JUMP JUMPDEST PUSH2 0x1087 PUSH20 0x0 PUSH4 0xB6972146 PUSH1 0xF DUP13 SWAP1 SIGNEXTEND PUSH2 0xFEF PUSH2 0x7F2 DUP7 PUSH2 0x2232 JUMP JUMPDEST PUSH1 0x40 MLOAD DUP4 PUSH4 0xFFFFFFFF AND PUSH1 0xE0 SHL DUP2 MSTORE PUSH1 0x4 ADD PUSH2 0x100C SWAP3 SWAP2 SWAP1 PUSH2 0x221E JUMP JUMPDEST PUSH1 0x20 PUSH1 0x40 MLOAD DUP1 DUP4 SUB DUP2 DUP7 DUP1 EXTCODESIZE ISZERO DUP1 ISZERO PUSH2 0x1024 JUMPI PUSH1 0x0 DUP1 REVERT JUMPDEST POP GAS DELEGATECALL ISZERO DUP1 ISZERO PUSH2 0x1038 JUMPI RETURNDATASIZE PUSH1 0x0 DUP1 RETURNDATACOPY RETURNDATASIZE PUSH1 0x0 REVERT JUMPDEST POP POP POP POP PUSH1 0x40 MLOAD RETURNDATASIZE PUSH1 0x1F NOT PUSH1 0x1F DUP3 ADD AND DUP3 ADD DUP1 PUSH1 0x40 MSTORE POP DUP2 ADD SWAP1 PUSH2 0x105C SWAP2 SWAP1 PUSH2 0x206D JUMP JUMPDEST PUSH20 0x0 PUSH4 0xB6972146 PUSH1 0xF DUP13 SWAP1 SIGNEXTEND PUSH2 0xF49 PUSH2 0x7F2 DUP9 PUSH2 0x2232 JUMP JUMPDEST PUSH2 0xFB6 SWAP1 PUSH2 0x2232 JUMP JUMPDEST PUSH1 0x0 PUSH1 0x1 PUSH1 0x1 PUSH1 0x3F SHL SUB DUP3 GT ISZERO PUSH2 0x10A6 JUMPI PUSH1 0x0 DUP1 REVERT JUMPDEST POP PUSH1 0x40 SHL SWAP1 JUMP JUMPDEST PUSH1 0x0 DUP1 DUP3 PUSH1 0xF SIGNEXTEND SGT PUSH2 0x10BE JUMPI PUSH1 0x0 DUP1 REVERT JUMPDEST PUSH1 0x80 PUSH2 0x10C9 DUP4 PUSH2 0x14A6 JUMP JUMPDEST PUSH1 0xF SIGNEXTEND PUSH16 0xB17217F7D1CF79ABC9E3B39803F2F6AF MUL SWAP1 SHR SWAP1 POP SWAP2 SWAP1 POP JUMP JUMPDEST PUSH1 0x0 PUSH1 0xF DUP4 DUP2 SIGNEXTEND SWAP1 DUP4 SWAP1 SIGNEXTEND ADD PUSH1 0x1 PUSH1 0x1 PUSH1 0x7F SHL SUB NOT DUP2 SLT DUP1 ISZERO SWAP1 PUSH2 0x1112 JUMPI POP PUSH1 0x1 PUSH1 0x1 PUSH1 0x7F SHL SUB DUP2 SGT ISZERO JUMPDEST PUSH2 0x111B JUMPI PUSH1 0x0 DUP1 REVERT JUMPDEST SWAP4 SWAP3 POP POP POP JUMP JUMPDEST PUSH1 0x0 PUSH1 0xF DUP3 DUP2 SIGNEXTEND SWAP1 DUP5 SWAP1 SIGNEXTEND SUB PUSH1 0x1 PUSH1 0x1 PUSH1 0x7F SHL SUB NOT DUP2 SLT DUP1 ISZERO SWAP1 PUSH2 0x1112 JUMPI POP PUSH1 0x1 PUSH1 0x1 PUSH1 0x7F SHL SUB DUP2 SGT ISZERO PUSH2 0x111B JUMPI PUSH1 0x0 DUP1 REVERT JUMPDEST PUSH1 0x40 MLOAD PUSH4 0x5B4B90A3 PUSH1 0xE1 SHL DUP2 MSTORE PUSH1 0x0 SWAP1 DUP2 SWAP1 PUSH20 0x0 SWAP1 PUSH4 0xB6972146 SWAP1 PUSH2 0x1197 SWAP1 PUSH1 0xF DUP8 SWAP1 SIGNEXTEND SWAP1 DUP8 SWAP1 PUSH1 0x4 ADD PUSH2 0x221E JUMP JUMPDEST PUSH1 0x20 PUSH1 0x40 MLOAD DUP1 DUP4 SUB DUP2 DUP7 DUP1 EXTCODESIZE ISZERO DUP1 ISZERO PUSH2 0x11AF JUMPI PUSH1 0x0 DUP1 REVERT JUMPDEST POP GAS DELEGATECALL ISZERO DUP1 ISZERO PUSH2 0x11C3 JUMPI RETURNDATASIZE PUSH1 0x0 DUP1 RETURNDATACOPY RETURNDATASIZE PUSH1 0x0 REVERT JUMPDEST POP POP POP POP PUSH1 0x40 MLOAD RETURNDATASIZE PUSH1 0x1F NOT PUSH1 0x1F DUP3 ADD AND DUP3 ADD DUP1 PUSH1 0x40 MSTORE POP DUP2 ADD SWAP1 PUSH2 0x11E7 SWAP2 SWAP1 PUSH2 0x206D JUMP JUMPDEST SWAP1 POP PUSH1 0x0 PUSH2 0x1206 PUSH1 0x1 PUSH2 0x11F9 DUP5 PUSH2 0x2232 JUMP JUMPDEST PUSH1 0xF SIGNEXTEND SWAP1 SAR PUSH1 0xF SIGNEXTEND PUSH2 0x1580 JUMP JUMPDEST PUSH1 0xF SIGNEXTEND PUSH20 0x0 PUSH4 0x25F39A63 SWAP1 SWAP2 PUSH2 0x1410 PUSH8 0xD3C84B78B749BD6B PUSH1 0xF SIGNEXTEND PUSH20 0x0 PUSH4 0xB6972146 SWAP1 SWAP2 PUSH2 0x126A PUSH1 0x3 PUSH1 0x40 SHL DUP11 PUSH1 0xF SIGNEXTEND PUSH2 0x10E7 SWAP1 SWAP2 SWAP1 PUSH4 0xFFFFFFFF AND JUMP JUMPDEST PUSH1 0x40 MLOAD PUSH4 0x1B8F6AB9 PUSH1 0xE2 SHL DUP2 MSTORE PUSH20 0x0 SWAP2 PUSH4 0x6E3DAAE4 SWAP2 PUSH2 0x12A3 SWAP2 PUSH1 0xF SIGNEXTEND SWAP1 PUSH1 0x4 ADD PUSH2 0x2210 JUMP JUMPDEST PUSH1 0x20 PUSH1 0x40 MLOAD DUP1 DUP4 SUB DUP2 DUP7 DUP1 EXTCODESIZE ISZERO DUP1 ISZERO PUSH2 0x12BB JUMPI PUSH1 0x0 DUP1 REVERT JUMPDEST POP GAS DELEGATECALL ISZERO DUP1 ISZERO PUSH2 0x12CF JUMPI RETURNDATASIZE PUSH1 0x0 DUP1 RETURNDATACOPY RETURNDATASIZE PUSH1 0x0 REVERT JUMPDEST POP POP POP POP PUSH1 0x40 MLOAD RETURNDATASIZE PUSH1 0x1F NOT PUSH1 0x1F DUP3 ADD AND DUP3 ADD DUP1 PUSH1 0x40 MSTORE POP DUP2 ADD SWAP1 PUSH2 0x12F3 SWAP2 SWAP1 PUSH2 0x206D JUMP JUMPDEST PUSH1 0x40 MLOAD DUP4 PUSH4 0xFFFFFFFF AND PUSH1 0xE0 SHL DUP2 MSTORE PUSH1 0x4 ADD PUSH2 0x1310 SWAP3 SWAP2 SWAP1 PUSH2 0x221E JUMP JUMPDEST PUSH1 0x20 PUSH1 0x40 MLOAD DUP1 DUP4 SUB DUP2 DUP7 DUP1 EXTCODESIZE ISZERO DUP1 ISZERO PUSH2 0x1328 JUMPI PUSH1 0x0 DUP1 REVERT JUMPDEST POP GAS DELEGATECALL ISZERO DUP1 ISZERO PUSH2 0x133C JUMPI RETURNDATASIZE PUSH1 0x0 DUP1 RETURNDATACOPY RETURNDATASIZE PUSH1 0x0 REVERT JUMPDEST POP POP POP POP PUSH1 0x40 MLOAD RETURNDATASIZE PUSH1 0x1F NOT PUSH1 0x1F DUP3 ADD AND DUP3 ADD DUP1 PUSH1 0x40 MSTORE POP DUP2 ADD SWAP1 PUSH2 0x1360 SWAP2 SWAP1 PUSH2 0x206D JUMP JUMPDEST PUSH2 0x6F6 PUSH20 0x0 PUSH4 0xB6972146 PUSH9 0x19ABAC0EA1DA65036 PUSH2 0x1394 PUSH1 0xF DUP15 SWAP1 SIGNEXTEND PUSH2 0x15D9 JUMP JUMPDEST PUSH1 0x40 MLOAD DUP4 PUSH4 0xFFFFFFFF AND PUSH1 0xE0 SHL DUP2 MSTORE PUSH1 0x4 ADD PUSH2 0x13B1 SWAP3 SWAP2 SWAP1 PUSH2 0x221E JUMP JUMPDEST PUSH1 0x20 PUSH1 0x40 MLOAD DUP1 DUP4 SUB DUP2 DUP7 DUP1 EXTCODESIZE ISZERO DUP1 ISZERO PUSH2 0x13C9 JUMPI PUSH1 0x0 DUP1 REVERT JUMPDEST POP GAS DELEGATECALL ISZERO DUP1 ISZERO PUSH2 0x13DD JUMPI RETURNDATASIZE PUSH1 0x0 DUP1 RETURNDATACOPY RETURNDATASIZE PUSH1 0x0 REVERT JUMPDEST POP POP POP POP PUSH1 0x40 MLOAD RETURNDATASIZE PUSH1 0x1F NOT PUSH1 0x1F DUP3 ADD AND DUP3 ADD DUP1 PUSH1 0x40 MSTORE POP DUP2 ADD SWAP1 PUSH2 0x1401 SWAP2 SWAP1 PUSH2 0x206D JUMP JUMPDEST PUSH8 0x9109F285DF452394 SWAP1 PUSH2 0x10E7 JUMP JUMPDEST PUSH1 0x40 MLOAD DUP4 PUSH4 0xFFFFFFFF AND PUSH1 0xE0 SHL DUP2 MSTORE PUSH1 0x4 ADD PUSH2 0x142D SWAP3 SWAP2 SWAP1 PUSH2 0x221E JUMP JUMPDEST PUSH1 0x20 PUSH1 0x40 MLOAD DUP1 DUP4 SUB DUP2 DUP7 DUP1 EXTCODESIZE ISZERO DUP1 ISZERO PUSH2 0x1445 JUMPI PUSH1 0x0 DUP1 REVERT JUMPDEST POP GAS DELEGATECALL ISZERO DUP1 ISZERO PUSH2 0x1459 JUMPI RETURNDATASIZE PUSH1 0x0 DUP1 RETURNDATACOPY RETURNDATASIZE PUSH1 0x0 REVERT JUMPDEST POP POP POP POP PUSH1 0x40 MLOAD RETURNDATASIZE PUSH1 0x1F NOT PUSH1 0x1F DUP3 ADD AND DUP3 ADD DUP1 PUSH1 0x40 MSTORE POP DUP2 ADD SWAP1 PUSH2 0x147D SWAP2 SWAP1 PUSH2 0x206D JUMP JUMPDEST SWAP1 POP PUSH1 0x0 DUP5 PUSH1 0xF SIGNEXTEND SGT PUSH2 0x1490 JUMPI DUP1 PUSH2 0x149E JUMP JUMPDEST PUSH2 0x149E PUSH1 0x1 PUSH1 0x40 SHL DUP3 PUSH2 0x1122 JUMP JUMPDEST SWAP5 SWAP4 POP POP POP POP JUMP JUMPDEST PUSH1 0x0 DUP1 DUP3 PUSH1 0xF SIGNEXTEND SGT PUSH2 0x14B7 JUMPI PUSH1 0x0 DUP1 REVERT JUMPDEST PUSH1 0x0 PUSH1 0xF DUP4 SWAP1 SIGNEXTEND PUSH1 0x1 PUSH1 0x40 SHL DUP2 SLT PUSH2 0x14D1 JUMPI PUSH1 0x40 SWAP2 DUP3 ADD SWAP2 SAR JUMPDEST PUSH1 0x1 PUSH1 0x20 SHL DUP2 SLT PUSH2 0x14E4 JUMPI PUSH1 0x20 SWAP2 DUP3 ADD SWAP2 SAR JUMPDEST PUSH3 0x10000 DUP2 SLT PUSH2 0x14F6 JUMPI PUSH1 0x10 SWAP2 DUP3 ADD SWAP2 SAR JUMPDEST PUSH2 0x100 DUP2 SLT PUSH2 0x1507 JUMPI PUSH1 0x8 SWAP2 DUP3 ADD SWAP2 SAR JUMPDEST PUSH1 0x10 DUP2 SLT PUSH2 0x1517 JUMPI PUSH1 0x4 SWAP2 DUP3 ADD SWAP2 SAR JUMPDEST PUSH1 0x4 DUP2 SLT PUSH2 0x1527 JUMPI PUSH1 0x2 SWAP2 DUP3 ADD SWAP2 SAR JUMPDEST PUSH1 0x2 DUP2 SLT PUSH2 0x1536 JUMPI PUSH1 0x1 DUP3 ADD SWAP2 POP JUMPDEST PUSH1 0x3F NOT DUP3 ADD PUSH1 0x40 SHL PUSH1 0xF DUP6 SWAP1 SIGNEXTEND PUSH1 0x7F DUP5 SWAP1 SUB SHL PUSH1 0x1 PUSH1 0x3F SHL JUMPDEST PUSH1 0x0 DUP2 SGT ISZERO PUSH2 0x1575 JUMPI SWAP1 DUP1 MUL PUSH1 0xFF DUP2 SWAP1 SHR DUP3 DUP2 MUL SWAP4 SWAP1 SWAP4 ADD SWAP3 PUSH1 0x7F ADD SHR SWAP1 PUSH1 0x1 SAR PUSH2 0x154F JUMP JUMPDEST POP SWAP1 SWAP6 SWAP5 POP POP POP POP POP JUMP JUMPDEST PUSH1 0x0 PUSH1 0x1 PUSH1 0x46 SHL DUP3 PUSH1 0xF SIGNEXTEND SLT PUSH2 0x1595 JUMPI PUSH1 0x0 DUP1 REVERT JUMPDEST PUSH1 0x1 PUSH1 0x1 PUSH1 0x46 SHL SUB NOT DUP3 PUSH1 0xF SIGNEXTEND SLT ISZERO PUSH2 0x15B0 JUMPI POP PUSH1 0x0 SWAP2 SWAP1 POP JUMP JUMPDEST PUSH2 0x15D3 PUSH1 0x80 DUP4 PUSH1 0xF SIGNEXTEND PUSH17 0x171547652B82FE1777D0FFDA0D23A7D12 MUL SWAP1 SAR PUSH2 0x160C JUMP JUMPDEST SWAP3 SWAP2 POP POP JUMP JUMPDEST PUSH1 0x0 PUSH1 0xF DUP3 SWAP1 SIGNEXTEND PUSH1 0x1 PUSH1 0x1 PUSH1 0x7F SHL SUB NOT EQ ISZERO PUSH2 0x15F4 JUMPI PUSH1 0x0 DUP1 REVERT JUMPDEST PUSH1 0x0 DUP3 PUSH1 0xF SIGNEXTEND SLT PUSH2 0x1605 JUMPI DUP2 PUSH2 0x15D3 JUMP JUMPDEST POP PUSH1 0x0 SUB SWAP1 JUMP JUMPDEST PUSH1 0x0 PUSH1 0x1 PUSH1 0x46 SHL DUP3 PUSH1 0xF SIGNEXTEND SLT PUSH2 0x1621 JUMPI PUSH1 0x0 DUP1 REVERT JUMPDEST PUSH1 0x1 PUSH1 0x1 PUSH1 0x46 SHL SUB NOT DUP3 PUSH1 0xF SIGNEXTEND SLT ISZERO PUSH2 0x163C JUMPI POP PUSH1 0x0 SWAP2 SWAP1 POP JUMP JUMPDEST PUSH1 0x1 PUSH1 0x7F SHL PUSH1 0x0 PUSH1 0x1 PUSH1 0x3F SHL DUP5 AND PUSH1 0xF SIGNEXTEND SGT ISZERO PUSH2 0x166A JUMPI PUSH17 0x16A09E667F3BCC908B2FB1366EA957D3E MUL PUSH1 0x80 SHR JUMPDEST PUSH1 0x0 DUP4 PUSH1 0x1 PUSH1 0x3E SHL AND PUSH1 0xF SIGNEXTEND SGT ISZERO PUSH2 0x1693 JUMPI PUSH17 0x1306FE0A31B7152DE8D5A46305C85EDEC MUL PUSH1 0x80 SHR JUMPDEST PUSH1 0x0 DUP4 PUSH1 0x1 PUSH1 0x3D SHL AND PUSH1 0xF SIGNEXTEND SGT ISZERO PUSH2 0x16BC JUMPI PUSH17 0x1172B83C7D517ADCDF7C8C50EB14A791F MUL PUSH1 0x80 SHR JUMPDEST PUSH1 0x0 DUP4 PUSH1 0x1 PUSH1 0x3C SHL AND PUSH1 0xF SIGNEXTEND SGT ISZERO PUSH2 0x16E5 JUMPI PUSH17 0x10B5586CF9890F6298B92B71842A98363 MUL PUSH1 0x80 SHR JUMPDEST PUSH1 0x0 DUP4 PUSH1 0x1 PUSH1 0x3B SHL AND PUSH1 0xF SIGNEXTEND SGT ISZERO PUSH2 0x170E JUMPI PUSH17 0x1059B0D31585743AE7C548EB68CA417FD MUL PUSH1 0x80 SHR JUMPDEST PUSH1 0x0 DUP4 PUSH1 0x1 PUSH1 0x3A SHL AND PUSH1 0xF SIGNEXTEND SGT ISZERO PUSH2 0x1737 JUMPI PUSH17 0x102C9A3E778060EE6F7CACA4F7A29BDE8 MUL PUSH1 0x80 SHR JUMPDEST PUSH1 0x0 DUP4 PUSH1 0x1 PUSH1 0x39 SHL AND PUSH1 0xF SIGNEXTEND SGT ISZERO PUSH2 0x1760 JUMPI PUSH17 0x10163DA9FB33356D84A66AE336DCDFA3F MUL PUSH1 0x80 SHR JUMPDEST PUSH1 0x0 DUP4 PUSH1 0x1 PUSH1 0x38 SHL AND PUSH1 0xF SIGNEXTEND SGT ISZERO PUSH2 0x1789 JUMPI PUSH17 0x100B1AFA5ABCBED6129AB13EC11DC9543 MUL PUSH1 0x80 SHR JUMPDEST PUSH1 0x0 DUP4 PUSH1 0x1 PUSH1 0x37 SHL AND PUSH1 0xF SIGNEXTEND SGT ISZERO PUSH2 0x17B2 JUMPI PUSH17 0x10058C86DA1C09EA1FF19D294CF2F679B MUL PUSH1 0x80 SHR JUMPDEST PUSH1 0x0 DUP4 PUSH1 0x1 PUSH1 0x36 SHL AND PUSH1 0xF SIGNEXTEND SGT ISZERO PUSH2 0x17DB JUMPI PUSH17 0x1002C605E2E8CEC506D21BFC89A23A00F MUL PUSH1 0x80 SHR JUMPDEST PUSH1 0x0 DUP4 PUSH1 0x1 PUSH1 0x35 SHL AND PUSH1 0xF SIGNEXTEND SGT ISZERO PUSH2 0x1804 JUMPI PUSH17 0x100162F3904051FA128BCA9C55C31E5DF MUL PUSH1 0x80 SHR JUMPDEST PUSH1 0x0 DUP4 PUSH1 0x1 PUSH1 0x34 SHL AND PUSH1 0xF SIGNEXTEND SGT ISZERO PUSH2 0x182D JUMPI PUSH17 0x1000B175EFFDC76BA38E31671CA939725 MUL PUSH1 0x80 SHR JUMPDEST PUSH1 0x0 DUP4 PUSH1 0x1 PUSH1 0x33 SHL AND PUSH1 0xF SIGNEXTEND SGT ISZERO PUSH2 0x1856 JUMPI PUSH17 0x100058BA01FB9F96D6CACD4B180917C3D MUL PUSH1 0x80 SHR JUMPDEST PUSH1 0x0 DUP4 PUSH1 0x1 PUSH1 0x32 SHL AND PUSH1 0xF SIGNEXTEND SGT ISZERO PUSH2 0x187F JUMPI PUSH17 0x10002C5CC37DA9491D0985C348C68E7B3 MUL PUSH1 0x80 SHR JUMPDEST PUSH1 0x0 DUP4 PUSH1 0x1 PUSH1 0x31 SHL AND PUSH1 0xF SIGNEXTEND SGT ISZERO PUSH2 0x18A8 JUMPI PUSH17 0x1000162E525EE054754457D5995292026 MUL PUSH1 0x80 SHR JUMPDEST PUSH1 0x0 DUP4 PUSH1 0x1 PUSH1 0x30 SHL AND PUSH1 0xF SIGNEXTEND SGT ISZERO PUSH2 0x18D1 JUMPI PUSH17 0x10000B17255775C040618BF4A4ADE83FC MUL PUSH1 0x80 SHR JUMPDEST PUSH1 0x0 DUP4 PUSH1 0x1 PUSH1 0x2F SHL AND PUSH1 0xF SIGNEXTEND SGT ISZERO PUSH2 0x18FA JUMPI PUSH17 0x1000058B91B5BC9AE2EED81E9B7D4CFAB MUL PUSH1 0x80 SHR JUMPDEST PUSH1 0x0 DUP4 PUSH1 0x1 PUSH1 0x2E SHL AND PUSH1 0xF SIGNEXTEND SGT ISZERO PUSH2 0x1923 JUMPI PUSH17 0x100002C5C89D5EC6CA4D7C8ACC017B7C9 MUL PUSH1 0x80 SHR JUMPDEST PUSH1 0x0 DUP4 PUSH1 0x1 PUSH1 0x2D SHL AND PUSH1 0xF SIGNEXTEND SGT ISZERO PUSH2 0x194C JUMPI PUSH17 0x10000162E43F4F831060E02D839A9D16D MUL PUSH1 0x80 SHR JUMPDEST PUSH1 0x0 DUP4 PUSH1 0x1 PUSH1 0x2C SHL AND PUSH1 0xF SIGNEXTEND SGT ISZERO PUSH2 0x1975 JUMPI PUSH17 0x100000B1721BCFC99D9F890EA06911763 MUL PUSH1 0x80 SHR JUMPDEST PUSH1 0x0 DUP4 PUSH1 0x1 PUSH1 0x2B SHL AND PUSH1 0xF SIGNEXTEND SGT ISZERO PUSH2 0x199E JUMPI PUSH17 0x10000058B90CF1E6D97F9CA14DBCC1628 MUL PUSH1 0x80 SHR JUMPDEST PUSH1 0x0 DUP4 PUSH1 0x1 PUSH1 0x2A SHL AND PUSH1 0xF SIGNEXTEND SGT ISZERO PUSH2 0x19C7 JUMPI PUSH17 0x1000002C5C863B73F016468F6BAC5CA2B MUL PUSH1 0x80 SHR JUMPDEST PUSH1 0x0 DUP4 PUSH1 0x1 PUSH1 0x29 SHL AND PUSH1 0xF SIGNEXTEND SGT ISZERO PUSH2 0x19F0 JUMPI PUSH17 0x100000162E430E5A18F6119E3C02282A5 MUL PUSH1 0x80 SHR JUMPDEST PUSH1 0x0 DUP4 PUSH1 0x1 PUSH1 0x28 SHL AND PUSH1 0xF SIGNEXTEND SGT ISZERO PUSH2 0x1A19 JUMPI PUSH17 0x1000000B1721835514B86E6D96EFD1BFE MUL PUSH1 0x80 SHR JUMPDEST PUSH1 0x0 DUP4 PUSH1 0x1 PUSH1 0x27 SHL AND PUSH1 0xF SIGNEXTEND SGT ISZERO PUSH2 0x1A42 JUMPI PUSH17 0x100000058B90C0B48C6BE5DF846C5B2EF MUL PUSH1 0x80 SHR JUMPDEST PUSH1 0x0 DUP4 PUSH1 0x1 PUSH1 0x26 SHL AND PUSH1 0xF SIGNEXTEND SGT ISZERO PUSH2 0x1A6B JUMPI PUSH17 0x10000002C5C8601CC6B9E94213C72737A MUL PUSH1 0x80 SHR JUMPDEST PUSH1 0x0 DUP4 PUSH1 0x1 PUSH1 0x25 SHL AND PUSH1 0xF SIGNEXTEND SGT ISZERO PUSH2 0x1A94 JUMPI PUSH17 0x1000000162E42FFF037DF38AA2B219F06 MUL PUSH1 0x80 SHR JUMPDEST PUSH1 0x0 DUP4 PUSH1 0x1 PUSH1 0x24 SHL AND PUSH1 0xF SIGNEXTEND SGT ISZERO PUSH2 0x1ABD JUMPI PUSH17 0x10000000B17217FBA9C739AA5819F44F9 MUL PUSH1 0x80 SHR JUMPDEST PUSH1 0x0 DUP4 PUSH1 0x1 PUSH1 0x23 SHL AND PUSH1 0xF SIGNEXTEND SGT ISZERO PUSH2 0x1AE6 JUMPI PUSH17 0x1000000058B90BFCDEE5ACD3C1CEDC823 MUL PUSH1 0x80 SHR JUMPDEST PUSH1 0x0 DUP4 PUSH1 0x1 PUSH1 0x22 SHL AND PUSH1 0xF SIGNEXTEND SGT ISZERO PUSH2 0x1B0F JUMPI PUSH17 0x100000002C5C85FE31F35A6A30DA1BE50 MUL PUSH1 0x80 SHR JUMPDEST PUSH1 0x0 DUP4 PUSH1 0x1 PUSH1 0x21 SHL AND PUSH1 0xF SIGNEXTEND SGT ISZERO PUSH2 0x1B38 JUMPI PUSH17 0x10000000162E42FF0999CE3541B9FFFCF MUL PUSH1 0x80 SHR JUMPDEST PUSH1 0x0 DUP4 PUSH1 0x1 PUSH1 0x20 SHL AND PUSH1 0xF SIGNEXTEND SGT ISZERO PUSH2 0x1B61 JUMPI PUSH17 0x100000000B17217F80F4EF5AADDA45554 MUL PUSH1 0x80 SHR JUMPDEST PUSH1 0x0 DUP4 PUSH4 0x80000000 AND PUSH1 0xF SIGNEXTEND SGT ISZERO PUSH2 0x1B8A JUMPI PUSH17 0x10000000058B90BFBF8479BD5A81B51AD MUL PUSH1 0x80 SHR JUMPDEST PUSH1 0x0 DUP4 PUSH4 0x40000000 AND PUSH1 0xF SIGNEXTEND SGT ISZERO PUSH2 0x1BB3 JUMPI PUSH17 0x1000000002C5C85FDF84BD62AE30A74CC MUL PUSH1 0x80 SHR JUMPDEST PUSH1 0x0 DUP4 PUSH4 0x20000000 AND PUSH1 0xF SIGNEXTEND SGT ISZERO PUSH2 0x1BDC JUMPI PUSH17 0x100000000162E42FEFB2FED257559BDAA MUL PUSH1 0x80 SHR JUMPDEST PUSH1 0x0 DUP4 PUSH4 0x10000000 AND PUSH1 0xF SIGNEXTEND SGT ISZERO PUSH2 0x1C05 JUMPI PUSH17 0x1000000000B17217F7D5A7716BBA4A9AE MUL PUSH1 0x80 SHR JUMPDEST PUSH1 0x0 DUP4 PUSH4 0x8000000 AND PUSH1 0xF SIGNEXTEND SGT ISZERO PUSH2 0x1C2E JUMPI PUSH17 0x100000000058B90BFBE9DDBAC5E109CCE MUL PUSH1 0x80 SHR JUMPDEST PUSH1 0x0 DUP4 PUSH4 0x4000000 AND PUSH1 0xF SIGNEXTEND SGT ISZERO PUSH2 0x1C57 JUMPI PUSH17 0x10000000002C5C85FDF4B15DE6F17EB0D MUL PUSH1 0x80 SHR JUMPDEST PUSH1 0x0 DUP4 PUSH4 0x2000000 AND PUSH1 0xF SIGNEXTEND SGT ISZERO PUSH2 0x1C80 JUMPI PUSH17 0x1000000000162E42FEFA494F1478FDE05 MUL PUSH1 0x80 SHR JUMPDEST PUSH1 0x0 DUP4 PUSH4 0x1000000 AND PUSH1 0xF SIGNEXTEND SGT ISZERO PUSH2 0x1CA9 JUMPI PUSH17 0x10000000000B17217F7D20CF927C8E94C MUL PUSH1 0x80 SHR JUMPDEST PUSH1 0x0 DUP4 PUSH3 0x800000 AND PUSH1 0xF SIGNEXTEND SGT ISZERO PUSH2 0x1CD1 JUMPI PUSH17 0x1000000000058B90BFBE8F71CB4E4B33D MUL PUSH1 0x80 SHR JUMPDEST PUSH1 0x0 DUP4 PUSH3 0x400000 AND PUSH1 0xF SIGNEXTEND SGT ISZERO PUSH2 0x1CF9 JUMPI PUSH17 0x100000000002C5C85FDF477B662B26945 MUL PUSH1 0x80 SHR JUMPDEST PUSH1 0x0 DUP4 PUSH3 0x200000 AND PUSH1 0xF SIGNEXTEND SGT ISZERO PUSH2 0x1D21 JUMPI PUSH17 0x10000000000162E42FEFA3AE53369388C MUL PUSH1 0x80 SHR JUMPDEST PUSH1 0x0 DUP4 PUSH3 0x100000 AND PUSH1 0xF SIGNEXTEND SGT ISZERO PUSH2 0x1D49 JUMPI PUSH17 0x100000000000B17217F7D1D351A389D40 MUL PUSH1 0x80 SHR JUMPDEST PUSH1 0x0 DUP4 PUSH3 0x80000 AND PUSH1 0xF SIGNEXTEND SGT ISZERO PUSH2 0x1D71 JUMPI PUSH17 0x10000000000058B90BFBE8E8B2D3D4EDE MUL PUSH1 0x80 SHR JUMPDEST PUSH1 0x0 DUP4 PUSH3 0x40000 AND PUSH1 0xF SIGNEXTEND SGT ISZERO PUSH2 0x1D99 JUMPI PUSH17 0x1000000000002C5C85FDF4741BEA6E77E MUL PUSH1 0x80 SHR JUMPDEST PUSH1 0x0 DUP4 PUSH3 0x20000 AND PUSH1 0xF SIGNEXTEND SGT ISZERO PUSH2 0x1DC1 JUMPI PUSH17 0x100000000000162E42FEFA39FE95583C2 MUL PUSH1 0x80 SHR JUMPDEST PUSH1 0x0 DUP4 PUSH3 0x10000 AND PUSH1 0xF SIGNEXTEND SGT ISZERO PUSH2 0x1DE8 JUMPI PUSH10 0xB17217F7D1CFB72B45E1 PUSH1 0x1 PUSH1 0x80 SHL ADD MUL PUSH1 0x80 SHR JUMPDEST PUSH1 0x0 DUP4 PUSH2 0x8000 AND PUSH1 0xF SIGNEXTEND SGT ISZERO PUSH2 0x1E0E JUMPI PUSH10 0x58B90BFBE8E7CC35C3F0 PUSH1 0x1 PUSH1 0x80 SHL ADD MUL PUSH1 0x80 SHR JUMPDEST PUSH1 0x0 DUP4 PUSH2 0x4000 AND PUSH1 0xF SIGNEXTEND SGT ISZERO PUSH2 0x1E34 JUMPI PUSH10 0x2C5C85FDF473E242EA38 PUSH1 0x1 PUSH1 0x80 SHL ADD MUL PUSH1 0x80 SHR JUMPDEST PUSH1 0x0 DUP4 PUSH2 0x2000 AND PUSH1 0xF SIGNEXTEND SGT ISZERO PUSH2 0x1E5A JUMPI PUSH10 0x162E42FEFA39F02B772C PUSH1 0x1 PUSH1 0x80 SHL ADD MUL PUSH1 0x80 SHR JUMPDEST PUSH1 0x0 DUP4 PUSH2 0x1000 AND PUSH1 0xF SIGNEXTEND SGT ISZERO PUSH2 0x1E80 JUMPI PUSH10 0xB17217F7D1CF7D83C1A PUSH1 0x1 PUSH1 0x80 SHL ADD MUL PUSH1 0x80 SHR JUMPDEST PUSH1 0x0 DUP4 PUSH2 0x800 AND PUSH1 0xF SIGNEXTEND SGT ISZERO PUSH2 0x1EA6 JUMPI PUSH10 0x58B90BFBE8E7BDCBE2E PUSH1 0x1 PUSH1 0x80 SHL ADD MUL PUSH1 0x80 SHR JUMPDEST PUSH1 0x0 DUP4 PUSH2 0x400 AND PUSH1 0xF SIGNEXTEND SGT ISZERO PUSH2 0x1ECC JUMPI PUSH10 0x2C5C85FDF473DEA871F PUSH1 0x1 PUSH1 0x80 SHL ADD MUL PUSH1 0x80 SHR JUMPDEST PUSH1 0x0 DUP4 PUSH2 0x200 AND PUSH1 0xF SIGNEXTEND SGT ISZERO PUSH2 0x1EF2 JUMPI PUSH10 0x162E42FEFA39EF44D91 PUSH1 0x1 PUSH1 0x80 SHL ADD MUL PUSH1 0x80 SHR JUMPDEST PUSH1 0x0 DUP4 PUSH2 0x100 AND PUSH1 0xF SIGNEXTEND SGT ISZERO PUSH2 0x1F17 JUMPI PUSH9 0xB17217F7D1CF79E949 PUSH1 0x1 PUSH1 0x80 SHL ADD MUL PUSH1 0x80 SHR JUMPDEST PUSH1 0x0 DUP4 PUSH1 0x80 AND PUSH1 0xF SIGNEXTEND SGT ISZERO PUSH2 0x1F3B JUMPI PUSH9 0x58B90BFBE8E7BCE544 PUSH1 0x1 PUSH1 0x80 SHL ADD MUL PUSH1 0x80 SHR JUMPDEST PUSH1 0x0 DUP4 PUSH1 0x40 AND PUSH1 0xF SIGNEXTEND SGT ISZERO PUSH2 0x1F5F JUMPI PUSH9 0x2C5C85FDF473DE6ECA PUSH1 0x1 PUSH1 0x80 SHL ADD MUL PUSH1 0x80 SHR JUMPDEST PUSH1 0x0 DUP4 PUSH1 0x20 AND PUSH1 0xF SIGNEXTEND SGT ISZERO PUSH2 0x1F83 JUMPI PUSH9 0x162E42FEFA39EF366F PUSH1 0x1 PUSH1 0x80 SHL ADD MUL PUSH1 0x80 SHR JUMPDEST PUSH1 0x0 DUP4 PUSH1 0x10 AND PUSH1 0xF SIGNEXTEND SGT ISZERO PUSH2 0x1FA7 JUMPI PUSH9 0xB17217F7D1CF79AFA PUSH1 0x1 PUSH1 0x80 SHL ADD MUL PUSH1 0x80 SHR JUMPDEST PUSH1 0x0 DUP4 PUSH1 0x8 AND PUSH1 0xF SIGNEXTEND SGT ISZERO PUSH2 0x1FCB JUMPI PUSH9 0x58B90BFBE8E7BCD6D PUSH1 0x1 PUSH1 0x80 SHL ADD MUL PUSH1 0x80 SHR JUMPDEST PUSH1 0x0 DUP4 PUSH1 0x4 AND PUSH1 0xF SIGNEXTEND SGT ISZERO PUSH2 0x1FEF JUMPI PUSH9 0x2C5C85FDF473DE6B2 PUSH1 0x1 PUSH1 0x80 SHL ADD MUL PUSH1 0x80 SHR JUMPDEST PUSH1 0x0 DUP4 PUSH1 0x2 AND PUSH1 0xF SIGNEXTEND SGT ISZERO PUSH2 0x2013 JUMPI PUSH9 0x162E42FEFA39EF358 PUSH1 0x1 PUSH1 0x80 SHL ADD MUL PUSH1 0x80 SHR JUMPDEST PUSH1 0x0 DUP4 PUSH1 0x1 AND PUSH1 0xF SIGNEXTEND SGT ISZERO PUSH2 0x2036 JUMPI PUSH8 0xB17217F7D1CF79AB PUSH1 0x1 PUSH1 0x80 SHL ADD MUL PUSH1 0x80 SHR JUMPDEST PUSH1 0xF DUP4 DUP2 SIGNEXTEND PUSH1 0x40 SAR PUSH1 0x3F SUB SWAP1 SIGNEXTEND SHR PUSH1 0x1 PUSH1 0x1 PUSH1 0x7F SHL SUB DUP2 GT ISZERO PUSH2 0x15D3 JUMPI PUSH1 0x0 DUP1 REVERT JUMPDEST DUP1 CALLDATALOAD DUP1 ISZERO ISZERO DUP2 EQ PUSH2 0x2068 JUMPI PUSH1 0x0 DUP1 REVERT JUMPDEST SWAP2 SWAP1 POP JUMP JUMPDEST PUSH1 0x0 PUSH1 0x20 DUP3 DUP5 SUB SLT ISZERO PUSH2 0x207E JUMPI DUP1 DUP2 REVERT JUMPDEST DUP2 MLOAD PUSH2 0x111B DUP2 PUSH2 0x2264 JUMP JUMPDEST PUSH1 0x0 DUP1 PUSH1 0x0 DUP1 PUSH1 0x0 PUSH1 0xA0 DUP7 DUP9 SUB SLT ISZERO PUSH2 0x20A0 JUMPI DUP1 DUP2 REVERT JUMPDEST DUP6 CALLDATALOAD PUSH2 0x20AB DUP2 PUSH2 0x2264 JUMP JUMPDEST SWAP5 POP PUSH1 0x20 DUP7 ADD CALLDATALOAD PUSH2 0x20BB DUP2 PUSH2 0x2264 JUMP JUMPDEST SWAP4 POP PUSH1 0x40 DUP7 ADD CALLDATALOAD PUSH2 0x20CB DUP2 PUSH2 0x2264 JUMP JUMPDEST SWAP3 POP PUSH1 0x60 DUP7 ADD CALLDATALOAD PUSH2 0x20DB DUP2 PUSH2 0x2264 JUMP JUMPDEST SWAP2 POP PUSH2 0x20E9 PUSH1 0x80 DUP8 ADD PUSH2 0x2058 JUMP JUMPDEST SWAP1 POP SWAP3 SWAP6 POP SWAP3 SWAP6 SWAP1 SWAP4 POP JUMP JUMPDEST PUSH1 0x0 DUP1 PUSH1 0x0 DUP1 PUSH1 0x0 DUP1 PUSH1 0xC0 DUP8 DUP10 SUB SLT ISZERO PUSH2 0x210D JUMPI DUP1 DUP2 REVERT JUMPDEST DUP7 CALLDATALOAD PUSH2 0x2118 DUP2 PUSH2 0x2264 JUMP JUMPDEST SWAP6 POP PUSH1 0x20 DUP8 ADD CALLDATALOAD PUSH2 0x2128 DUP2 PUSH2 0x2264 JUMP JUMPDEST SWAP5 POP PUSH1 0x40 DUP8 ADD CALLDATALOAD PUSH2 0x2138 DUP2 PUSH2 0x2264 JUMP JUMPDEST SWAP4 POP PUSH1 0x60 DUP8 ADD CALLDATALOAD PUSH2 0x2148 DUP2 PUSH2 0x2264 JUMP JUMPDEST SWAP3 POP PUSH2 0x2156 PUSH1 0x80 DUP9 ADD PUSH2 0x2058 JUMP JUMPDEST SWAP2 POP PUSH2 0x2164 PUSH1 0xA0 DUP9 ADD PUSH2 0x2058 JUMP JUMPDEST SWAP1 POP SWAP3 SWAP6 POP SWAP3 SWAP6 POP SWAP3 SWAP6 JUMP JUMPDEST PUSH1 0x0 DUP1 PUSH1 0x0 DUP1 PUSH1 0x0 PUSH1 0xA0 DUP7 DUP9 SUB SLT ISZERO PUSH2 0x2187 JUMPI DUP1 DUP2 REVERT JUMPDEST DUP6 CALLDATALOAD SWAP5 POP PUSH1 0x20 DUP7 ADD CALLDATALOAD SWAP4 POP PUSH1 0x40 DUP7 ADD CALLDATALOAD SWAP3 POP PUSH1 0x60 DUP7 ADD CALLDATALOAD SWAP2 POP PUSH2 0x20E9 PUSH1 0x80 DUP8 ADD PUSH2 0x2058 JUMP JUMPDEST PUSH1 0x0 DUP1 PUSH1 0x0 DUP1 PUSH1 0x0 DUP1 PUSH1 0xC0 DUP8 DUP10 SUB SLT ISZERO PUSH2 0x21C4 JUMPI DUP2 DUP3 REVERT JUMPDEST DUP7 CALLDATALOAD SWAP6 POP PUSH1 0x20 DUP8 ADD CALLDATALOAD SWAP5 POP PUSH1 0x40 DUP8 ADD CALLDATALOAD SWAP4 POP PUSH1 0x60 DUP8 ADD CALLDATALOAD SWAP3 POP PUSH2 0x2156 PUSH1 0x80 DUP9 ADD PUSH2 0x2058 JUMP JUMPDEST PUSH1 0x0 PUSH1 0x20 DUP3 DUP5 SUB SLT ISZERO PUSH2 0x21FA JUMPI DUP1 DUP2 REVERT JUMPDEST DUP2 MLOAD PUSH1 0x1 PUSH1 0x1 PUSH1 0x40 SHL SUB DUP2 AND DUP2 EQ PUSH2 0x111B JUMPI DUP2 DUP3 REVERT JUMPDEST PUSH1 0xF SWAP2 SWAP1 SWAP2 SIGNEXTEND DUP2 MSTORE PUSH1 0x20 ADD SWAP1 JUMP JUMPDEST PUSH1 0xF SWAP3 DUP4 SIGNEXTEND DUP2 MSTORE SWAP2 SIGNEXTEND PUSH1 0x20 DUP3 ADD MSTORE PUSH1 0x40 ADD SWAP1 JUMP JUMPDEST PUSH1 0x0 PUSH1 0xF DUP3 SWAP1 SIGNEXTEND PUSH1 0x1 PUSH1 0x1 PUSH1 0x7F SHL SUB NOT DUP2 EQ ISZERO PUSH2 0x225D JUMPI PUSH4 0x4E487B71 PUSH1 0xE0 SHL DUP3 MSTORE PUSH1 0x11 PUSH1 0x4 MSTORE PUSH1 0x24 DUP3 REVERT JUMPDEST SWAP1 SUB SWAP2 SWAP1 POP JUMP JUMPDEST DUP1 PUSH1 0xF SIGNEXTEND DUP2 EQ PUSH2 0x2273 JUMPI PUSH1 0x0 DUP1 REVERT JUMPDEST POP JUMP INVALID LOG2 PUSH5 0x6970667358 0x22 SLT KECCAK256 0xEF 0xAE CHAINID LOG2 STATICCALL 0xF8 0x4C 0xDF 0x4A 0xAE SWAP8 SIGNEXTEND BALANCE 0x48 DUP5 0xB0 0xD4 PUSH15 0x2143E77D6531BDACD269FA68C5BD64 PUSH20 0x6F6C634300080400330000000000000000000000 ","sha1":"df13ae45513d78dbb18acd6723238c107ced71e5","source":"// SPDX-License-Identifier: BUSL-1.1\n\npragma solidity ^0.8.0;\n\n/**\n * Smart contract library of mathematical functions operating with signed\n * 64.64-bit fixed point numbers.  Signed 64.64-bit fixed point number is\n * basically a simple fraction whose numerator is signed 128-bit integer and\n * denominator is 2^64.  As long as denominator is always the same, there is no\n * need to store it, thus in Solidity signed 64.64-bit fixed point numbers are\n * represented by int128 type holding only the numerator.\n */\nlibrary ABDKMath64x64 {\n    /*\n     * Minimum value signed 64.64-bit fixed point number may have.\n     */\n    int128 private constant MIN_64x64 = -0x80000000000000000000000000000000;\n\n    /*\n     * Maximum value signed 64.64-bit fixed point number may have.\n     */\n    int128 private constant MAX_64x64 = 0x7FFFFFFFFFFFFFFFFFFFFFFFFFFFFFFF;\n\n    /**\n     * Convert signed 256-bit integer number into signed 64.64-bit fixed point\n     * number.  Revert on overflow.\n     *\n     * @param x signed 256-bit integer number\n     * @return signed 64.64-bit fixed point number\n     */\n    function fromInt(int256 x) public pure returns (int128) {\n        unchecked {\n            require(x >= -0x8000000000000000 && x <= 0x7FFFFFFFFFFFFFFF);\n            return int128(x << 64);\n        }\n    }\n\n    /**\n     * Convert signed 64.64 fixed point number into signed 64-bit integer number\n     * rounding down.\n     *\n     * @param x signed 64.64-bit fixed point number\n     * @return signed 64-bit integer number\n     */\n    function toInt(int128 x) public pure returns (int64) {\n        unchecked {\n            return int64(x >> 64);\n        }\n    }\n\n    /**\n     * Convert unsigned 256-bit integer number into signed 64.64-bit fixed point\n     * number.  Revert on overflow.\n     *\n     * @param x unsigned 256-bit integer number\n     * @return signed 64.64-bit fixed point number\n     */\n    function fromUInt(uint256 x) internal pure returns (int128) {\n        unchecked {\n            require(x <= 0x7FFFFFFFFFFFFFFF);\n            return int128(int256(x << 64));\n        }\n    }\n\n    /**\n     * Convert signed 64.64 fixed point number into unsigned 64-bit integer\n     * number rounding down.  Revert on underflow.\n     *\n     * @param x signed 64.64-bit fixed point number\n     * @return unsigned 64-bit integer number\n     */\n    function toUInt(int128 x) public pure returns (uint64) {\n        unchecked {\n            require(x >= 0);\n            return uint64(uint128(x >> 64));\n        }\n    }\n\n    /**\n     * Convert signed 128.128 fixed point number into signed 64.64-bit fixed point\n     * number rounding down.  Revert on overflow.\n     *\n     * @param x signed 128.128-bin fixed point number\n     * @return signed 64.64-bit fixed point number\n     */\n    function from128x128(int256 x) internal pure returns (int128) {\n        unchecked {\n            int256 result = x >> 64;\n            require(result >= MIN_64x64 && result <= MAX_64x64);\n            return int128(result);\n        }\n    }\n\n    /**\n     * Convert signed 64.64 fixed point number into signed 128.128 fixed point\n     * number.\n     *\n     * @param x signed 64.64-bit fixed point number\n     * @return signed 128.128 fixed point number\n     */\n    function to128x128(int128 x) internal pure returns (int256) {\n        unchecked {\n            return int256(x) << 64;\n        }\n    }\n\n    /**\n     * Calculate x + y.  Revert on overflow.\n     *\n     * @param x signed 64.64-bit fixed point number\n     * @param y signed 64.64-bit fixed point number\n     * @return signed 64.64-bit fixed point number\n     */\n    function add(int128 x, int128 y) internal pure returns (int128) {\n        unchecked {\n            int256 result = int256(x) + y;\n            require(result >= MIN_64x64 && result <= MAX_64x64);\n            return int128(result);\n        }\n    }\n\n    /**\n     * Calculate x - y.  Revert on overflow.\n     *\n     * @param x signed 64.64-bit fixed point number\n     * @param y signed 64.64-bit fixed point number\n     * @return signed 64.64-bit fixed point number\n     */\n    function sub(int128 x, int128 y) internal pure returns (int128) {\n        unchecked {\n            int256 result = int256(x) - y;\n            require(result >= MIN_64x64 && result <= MAX_64x64);\n            return int128(result);\n        }\n    }\n\n    /**\n     * Calculate x * y rounding down.  Revert on overflow.\n     *\n     * @param x signed 64.64-bit fixed point number\n     * @param y signed 64.64-bit fixed point number\n     * @return signed 64.64-bit fixed point number\n     */\n    function mul(int128 x, int128 y) public pure returns (int128) {\n        unchecked {\n            int256 result = (int256(x) * y) >> 64;\n            require(result >= MIN_64x64 && result <= MAX_64x64);\n            return int128(result);\n        }\n    }\n\n    /**\n     * Calculate x * y rounding towards zero, where x is signed 64.64 fixed point\n     * number and y is signed 256-bit integer number.  Revert on overflow.\n     *\n     * @param x signed 64.64 fixed point number\n     * @param y signed 256-bit integer number\n     * @return signed 256-bit integer number\n     */\n    function muli(int128 x, int256 y) internal pure returns (int256) {\n        unchecked {\n            if (x == MIN_64x64) {\n                require(\n                    y >= -0xFFFFFFFFFFFFFFFFFFFFFFFFFFFFFFFFFFFFFFFFFFFFFFFF &&\n                        y <= 0x1000000000000000000000000000000000000000000000000\n                );\n                return -y << 63;\n            } else {\n                bool negativeResult = false;\n                if (x < 0) {\n                    x = -x;\n                    negativeResult = true;\n                }\n                if (y < 0) {\n                    y = -y; // We rely on overflow behavior here\n                    negativeResult = !negativeResult;\n                }\n                uint256 absoluteResult = mulu(x, uint256(y));\n                if (negativeResult) {\n                    require(\n                        absoluteResult <=\n                            0x8000000000000000000000000000000000000000000000000000000000000000\n                    );\n                    return -int256(absoluteResult); // We rely on overflow behavior here\n                } else {\n                    require(\n                        absoluteResult <=\n                            0x7FFFFFFFFFFFFFFFFFFFFFFFFFFFFFFFFFFFFFFFFFFFFFFFFFFFFFFFFFFFFFFF\n                    );\n                    return int256(absoluteResult);\n                }\n            }\n        }\n    }\n\n    /**\n     * Calculate x * y rounding down, where x is signed 64.64 fixed point number\n     * and y is unsigned 256-bit integer number.  Revert on overflow.\n     *\n     * @param x signed 64.64 fixed point number\n     * @param y unsigned 256-bit integer number\n     * @return unsigned 256-bit integer number\n     */\n    function mulu(int128 x, uint256 y) internal pure returns (uint256) {\n        unchecked {\n            if (y == 0) return 0;\n\n            require(x >= 0);\n\n            uint256 lo = (uint256(int256(x)) *\n                (y & 0xFFFFFFFFFFFFFFFFFFFFFFFFFFFFFFFF)) >> 64;\n            uint256 hi = uint256(int256(x)) * (y >> 128);\n\n            require(hi <= 0xFFFFFFFFFFFFFFFFFFFFFFFFFFFFFFFFFFFFFFFFFFFFFFFF);\n            hi <<= 64;\n\n            require(\n                hi <=\n                    0xFFFFFFFFFFFFFFFFFFFFFFFFFFFFFFFFFFFFFFFFFFFFFFFFFFFFFFFFFFFFFFFF -\n                        lo\n            );\n            return hi + lo;\n        }\n    }\n\n    /**\n     * Calculate x / y rounding towards zero.  Revert on overflow or when y is\n     * zero.\n     *\n     * @param x signed 64.64-bit fixed point number\n     * @param y signed 64.64-bit fixed point number\n     * @return signed 64.64-bit fixed point number\n     */\n    function div(int128 x, int128 y) public pure returns (int128) {\n        unchecked {\n            require(y != 0);\n            int256 result = (int256(x) << 64) / y;\n            require(result >= MIN_64x64 && result <= MAX_64x64);\n            return int128(result);\n        }\n    }\n\n    /**\n     * Calculate x / y rounding towards zero, where x and y are signed 256-bit\n     * integer numbers.  Revert on overflow or when y is zero.\n     *\n     * @param x signed 256-bit integer number\n     * @param y signed 256-bit integer number\n     * @return signed 64.64-bit fixed point number\n     */\n    function divi(int256 x, int256 y) internal pure returns (int128) {\n        unchecked {\n            require(y != 0);\n\n            bool negativeResult = false;\n            if (x < 0) {\n                x = -x; // We rely on overflow behavior here\n                negativeResult = true;\n            }\n            if (y < 0) {\n                y = -y; // We rely on overflow behavior here\n                negativeResult = !negativeResult;\n            }\n            uint128 absoluteResult = divuu(uint256(x), uint256(y));\n            if (negativeResult) {\n                require(absoluteResult <= 0x80000000000000000000000000000000);\n                return -int128(absoluteResult); // We rely on overflow behavior here\n            } else {\n                require(absoluteResult <= 0x7FFFFFFFFFFFFFFFFFFFFFFFFFFFFFFF);\n                return int128(absoluteResult); // We rely on overflow behavior here\n            }\n        }\n    }\n\n    /**\n     * Calculate x / y rounding towards zero, where x and y are unsigned 256-bit\n     * integer numbers.  Revert on overflow or when y is zero.\n     *\n     * @param x unsigned 256-bit integer number\n     * @param y unsigned 256-bit integer number\n     * @return signed 64.64-bit fixed point number\n     */\n    function divu(uint256 x, uint256 y) public pure returns (int128) {\n        unchecked {\n            require(y != 0);\n            uint128 result = divuu(x, y);\n            require(result <= uint128(MAX_64x64));\n            return int128(result);\n        }\n    }\n\n    /**\n     * Calculate -x.  Revert on overflow.\n     *\n     * @param x signed 64.64-bit fixed point number\n     * @return signed 64.64-bit fixed point number\n     */\n    function neg(int128 x) internal pure returns (int128) {\n        unchecked {\n            require(x != MIN_64x64);\n            return -x;\n        }\n    }\n\n    /**\n     * Calculate |x|.  Revert on overflow.\n     *\n     * @param x signed 64.64-bit fixed point number\n     * @return signed 64.64-bit fixed point number\n     */\n    function abs(int128 x) internal pure returns (int128) {\n        unchecked {\n            require(x != MIN_64x64);\n            return x < 0 ? -x : x;\n        }\n    }\n\n    /**\n     * Calculate 1 / x rounding towards zero.  Revert on overflow or when x is\n     * zero.\n     *\n     * @param x signed 64.64-bit fixed point number\n     * @return signed 64.64-bit fixed point number\n     */\n    function inv(int128 x) internal pure returns (int128) {\n        unchecked {\n            require(x != 0);\n            int256 result = int256(0x100000000000000000000000000000000) / x;\n            require(result >= MIN_64x64 && result <= MAX_64x64);\n            return int128(result);\n        }\n    }\n\n    /**\n     * Calculate arithmetics average of x and y, i.e. (x + y) / 2 rounding down.\n     *\n     * @param x signed 64.64-bit fixed point number\n     * @param y signed 64.64-bit fixed point number\n     * @return signed 64.64-bit fixed point number\n     */\n    function avg(int128 x, int128 y) internal pure returns (int128) {\n        unchecked {\n            return int128((int256(x) + int256(y)) >> 1);\n        }\n    }\n\n    /**\n     * Calculate geometric average of x and y, i.e. sqrt (x * y) rounding down.\n     * Revert on overflow or in case x * y is negative.\n     *\n     * @param x signed 64.64-bit fixed point number\n     * @param y signed 64.64-bit fixed point number\n     * @return signed 64.64-bit fixed point number\n     */\n    function gavg(int128 x, int128 y) internal pure returns (int128) {\n        unchecked {\n            int256 m = int256(x) * int256(y);\n            require(m >= 0);\n            require(\n                m <\n                    0x4000000000000000000000000000000000000000000000000000000000000000\n            );\n            return int128(sqrtu(uint256(m)));\n        }\n    }\n\n    /**\n     * Calculate x^y assuming 0^0 is 1, where x is signed 64.64 fixed point number\n     * and y is unsigned 256-bit integer number.  Revert on overflow.\n     *\n     * @param x signed 64.64-bit fixed point number\n     * @param y uint256 value\n     * @return signed 64.64-bit fixed point number\n     */\n    function pow(int128 x, uint256 y) internal pure returns (int128) {\n        unchecked {\n            bool negative = x < 0 && y & 1 == 1;\n\n            uint256 absX = uint128(x < 0 ? -x : x);\n            uint256 absResult;\n            absResult = 0x100000000000000000000000000000000;\n\n            if (absX <= 0x10000000000000000) {\n                absX <<= 63;\n                while (y != 0) {\n                    if (y & 0x1 != 0) {\n                        absResult = (absResult * absX) >> 127;\n                    }\n                    absX = (absX * absX) >> 127;\n\n                    if (y & 0x2 != 0) {\n                        absResult = (absResult * absX) >> 127;\n                    }\n                    absX = (absX * absX) >> 127;\n\n                    if (y & 0x4 != 0) {\n                        absResult = (absResult * absX) >> 127;\n                    }\n                    absX = (absX * absX) >> 127;\n\n                    if (y & 0x8 != 0) {\n                        absResult = (absResult * absX) >> 127;\n                    }\n                    absX = (absX * absX) >> 127;\n\n                    y >>= 4;\n                }\n\n                absResult >>= 64;\n            } else {\n                uint256 absXShift = 63;\n                if (absX < 0x1000000000000000000000000) {\n                    absX <<= 32;\n                    absXShift -= 32;\n                }\n                if (absX < 0x10000000000000000000000000000) {\n                    absX <<= 16;\n                    absXShift -= 16;\n                }\n                if (absX < 0x1000000000000000000000000000000) {\n                    absX <<= 8;\n                    absXShift -= 8;\n                }\n                if (absX < 0x10000000000000000000000000000000) {\n                    absX <<= 4;\n                    absXShift -= 4;\n                }\n                if (absX < 0x40000000000000000000000000000000) {\n                    absX <<= 2;\n                    absXShift -= 2;\n                }\n                if (absX < 0x80000000000000000000000000000000) {\n                    absX <<= 1;\n                    absXShift -= 1;\n                }\n\n                uint256 resultShift = 0;\n                while (y != 0) {\n                    require(absXShift < 64);\n\n                    if (y & 0x1 != 0) {\n                        absResult = (absResult * absX) >> 127;\n                        resultShift += absXShift;\n                        if (absResult > 0x100000000000000000000000000000000) {\n                            absResult >>= 1;\n                            resultShift += 1;\n                        }\n                    }\n                    absX = (absX * absX) >> 127;\n                    absXShift <<= 1;\n                    if (absX >= 0x100000000000000000000000000000000) {\n                        absX >>= 1;\n                        absXShift += 1;\n                    }\n\n                    y >>= 1;\n                }\n\n                require(resultShift < 64);\n                absResult >>= 64 - resultShift;\n            }\n            int256 result = negative ? -int256(absResult) : int256(absResult);\n            require(result >= MIN_64x64 && result <= MAX_64x64);\n            return int128(result);\n        }\n    }\n\n    /**\n     * Calculate sqrt (x) rounding down.  Revert if x < 0.\n     *\n     * @param x signed 64.64-bit fixed point number\n     * @return signed 64.64-bit fixed point number\n     */\n    function sqrt(int128 x) public pure returns (int128) {\n        unchecked {\n            require(x >= 0);\n            return int128(sqrtu(uint256(int256(x)) << 64));\n        }\n    }\n\n    /**\n     * Calculate binary logarithm of x.  Revert if x <= 0.\n     *\n     * @param x signed 64.64-bit fixed point number\n     * @return signed 64.64-bit fixed point number\n     */\n    function log_2(int128 x) internal pure returns (int128) {\n        unchecked {\n            require(x > 0);\n\n            int256 msb = 0;\n            int256 xc = x;\n            if (xc >= 0x10000000000000000) {\n                xc >>= 64;\n                msb += 64;\n            }\n            if (xc >= 0x100000000) {\n                xc >>= 32;\n                msb += 32;\n            }\n            if (xc >= 0x10000) {\n                xc >>= 16;\n                msb += 16;\n            }\n            if (xc >= 0x100) {\n                xc >>= 8;\n                msb += 8;\n            }\n            if (xc >= 0x10) {\n                xc >>= 4;\n                msb += 4;\n            }\n            if (xc >= 0x4) {\n                xc >>= 2;\n                msb += 2;\n            }\n            if (xc >= 0x2) msb += 1; // No need to shift xc anymore\n\n            int256 result = (msb - 64) << 64;\n            uint256 ux = uint256(int256(x)) << uint256(127 - msb);\n            for (int256 bit = 0x8000000000000000; bit > 0; bit >>= 1) {\n                ux *= ux;\n                uint256 b = ux >> 255;\n                ux >>= 127 + b;\n                result += bit * int256(b);\n            }\n\n            return int128(result);\n        }\n    }\n\n    /**\n     * Calculate natural logarithm of x.  Revert if x <= 0.\n     *\n     * @param x signed 64.64-bit fixed point number\n     * @return signed 64.64-bit fixed point number\n     */\n    function ln(int128 x) internal pure returns (int128) {\n        unchecked {\n            require(x > 0);\n\n            return\n                int128(\n                    int256(\n                        (uint256(int256(log_2(x))) *\n                            0xB17217F7D1CF79ABC9E3B39803F2F6AF) >> 128\n                    )\n                );\n        }\n    }\n\n    /**\n     * Calculate binary exponent of x.  Revert on overflow.\n     *\n     * @param x signed 64.64-bit fixed point number\n     * @return signed 64.64-bit fixed point number\n     */\n    function exp_2(int128 x) internal pure returns (int128) {\n        unchecked {\n            require(x < 0x400000000000000000); // Overflow\n\n            if (x < -0x400000000000000000) return 0; // Underflow\n\n            uint256 result = 0x80000000000000000000000000000000;\n\n            if (x & 0x8000000000000000 > 0)\n                result = (result * 0x16A09E667F3BCC908B2FB1366EA957D3E) >> 128;\n            if (x & 0x4000000000000000 > 0)\n                result = (result * 0x1306FE0A31B7152DE8D5A46305C85EDEC) >> 128;\n            if (x & 0x2000000000000000 > 0)\n                result = (result * 0x1172B83C7D517ADCDF7C8C50EB14A791F) >> 128;\n            if (x & 0x1000000000000000 > 0)\n                result = (result * 0x10B5586CF9890F6298B92B71842A98363) >> 128;\n            if (x & 0x800000000000000 > 0)\n                result = (result * 0x1059B0D31585743AE7C548EB68CA417FD) >> 128;\n            if (x & 0x400000000000000 > 0)\n                result = (result * 0x102C9A3E778060EE6F7CACA4F7A29BDE8) >> 128;\n            if (x & 0x200000000000000 > 0)\n                result = (result * 0x10163DA9FB33356D84A66AE336DCDFA3F) >> 128;\n            if (x & 0x100000000000000 > 0)\n                result = (result * 0x100B1AFA5ABCBED6129AB13EC11DC9543) >> 128;\n            if (x & 0x80000000000000 > 0)\n                result = (result * 0x10058C86DA1C09EA1FF19D294CF2F679B) >> 128;\n            if (x & 0x40000000000000 > 0)\n                result = (result * 0x1002C605E2E8CEC506D21BFC89A23A00F) >> 128;\n            if (x & 0x20000000000000 > 0)\n                result = (result * 0x100162F3904051FA128BCA9C55C31E5DF) >> 128;\n            if (x & 0x10000000000000 > 0)\n                result = (result * 0x1000B175EFFDC76BA38E31671CA939725) >> 128;\n            if (x & 0x8000000000000 > 0)\n                result = (result * 0x100058BA01FB9F96D6CACD4B180917C3D) >> 128;\n            if (x & 0x4000000000000 > 0)\n                result = (result * 0x10002C5CC37DA9491D0985C348C68E7B3) >> 128;\n            if (x & 0x2000000000000 > 0)\n                result = (result * 0x1000162E525EE054754457D5995292026) >> 128;\n            if (x & 0x1000000000000 > 0)\n                result = (result * 0x10000B17255775C040618BF4A4ADE83FC) >> 128;\n            if (x & 0x800000000000 > 0)\n                result = (result * 0x1000058B91B5BC9AE2EED81E9B7D4CFAB) >> 128;\n            if (x & 0x400000000000 > 0)\n                result = (result * 0x100002C5C89D5EC6CA4D7C8ACC017B7C9) >> 128;\n            if (x & 0x200000000000 > 0)\n                result = (result * 0x10000162E43F4F831060E02D839A9D16D) >> 128;\n            if (x & 0x100000000000 > 0)\n                result = (result * 0x100000B1721BCFC99D9F890EA06911763) >> 128;\n            if (x & 0x80000000000 > 0)\n                result = (result * 0x10000058B90CF1E6D97F9CA14DBCC1628) >> 128;\n            if (x & 0x40000000000 > 0)\n                result = (result * 0x1000002C5C863B73F016468F6BAC5CA2B) >> 128;\n            if (x & 0x20000000000 > 0)\n                result = (result * 0x100000162E430E5A18F6119E3C02282A5) >> 128;\n            if (x & 0x10000000000 > 0)\n                result = (result * 0x1000000B1721835514B86E6D96EFD1BFE) >> 128;\n            if (x & 0x8000000000 > 0)\n                result = (result * 0x100000058B90C0B48C6BE5DF846C5B2EF) >> 128;\n            if (x & 0x4000000000 > 0)\n                result = (result * 0x10000002C5C8601CC6B9E94213C72737A) >> 128;\n            if (x & 0x2000000000 > 0)\n                result = (result * 0x1000000162E42FFF037DF38AA2B219F06) >> 128;\n            if (x & 0x1000000000 > 0)\n                result = (result * 0x10000000B17217FBA9C739AA5819F44F9) >> 128;\n            if (x & 0x800000000 > 0)\n                result = (result * 0x1000000058B90BFCDEE5ACD3C1CEDC823) >> 128;\n            if (x & 0x400000000 > 0)\n                result = (result * 0x100000002C5C85FE31F35A6A30DA1BE50) >> 128;\n            if (x & 0x200000000 > 0)\n                result = (result * 0x10000000162E42FF0999CE3541B9FFFCF) >> 128;\n            if (x & 0x100000000 > 0)\n                result = (result * 0x100000000B17217F80F4EF5AADDA45554) >> 128;\n            if (x & 0x80000000 > 0)\n                result = (result * 0x10000000058B90BFBF8479BD5A81B51AD) >> 128;\n            if (x & 0x40000000 > 0)\n                result = (result * 0x1000000002C5C85FDF84BD62AE30A74CC) >> 128;\n            if (x & 0x20000000 > 0)\n                result = (result * 0x100000000162E42FEFB2FED257559BDAA) >> 128;\n            if (x & 0x10000000 > 0)\n                result = (result * 0x1000000000B17217F7D5A7716BBA4A9AE) >> 128;\n            if (x & 0x8000000 > 0)\n                result = (result * 0x100000000058B90BFBE9DDBAC5E109CCE) >> 128;\n            if (x & 0x4000000 > 0)\n                result = (result * 0x10000000002C5C85FDF4B15DE6F17EB0D) >> 128;\n            if (x & 0x2000000 > 0)\n                result = (result * 0x1000000000162E42FEFA494F1478FDE05) >> 128;\n            if (x & 0x1000000 > 0)\n                result = (result * 0x10000000000B17217F7D20CF927C8E94C) >> 128;\n            if (x & 0x800000 > 0)\n                result = (result * 0x1000000000058B90BFBE8F71CB4E4B33D) >> 128;\n            if (x & 0x400000 > 0)\n                result = (result * 0x100000000002C5C85FDF477B662B26945) >> 128;\n            if (x & 0x200000 > 0)\n                result = (result * 0x10000000000162E42FEFA3AE53369388C) >> 128;\n            if (x & 0x100000 > 0)\n                result = (result * 0x100000000000B17217F7D1D351A389D40) >> 128;\n            if (x & 0x80000 > 0)\n                result = (result * 0x10000000000058B90BFBE8E8B2D3D4EDE) >> 128;\n            if (x & 0x40000 > 0)\n                result = (result * 0x1000000000002C5C85FDF4741BEA6E77E) >> 128;\n            if (x & 0x20000 > 0)\n                result = (result * 0x100000000000162E42FEFA39FE95583C2) >> 128;\n            if (x & 0x10000 > 0)\n                result = (result * 0x1000000000000B17217F7D1CFB72B45E1) >> 128;\n            if (x & 0x8000 > 0)\n                result = (result * 0x100000000000058B90BFBE8E7CC35C3F0) >> 128;\n            if (x & 0x4000 > 0)\n                result = (result * 0x10000000000002C5C85FDF473E242EA38) >> 128;\n            if (x & 0x2000 > 0)\n                result = (result * 0x1000000000000162E42FEFA39F02B772C) >> 128;\n            if (x & 0x1000 > 0)\n                result = (result * 0x10000000000000B17217F7D1CF7D83C1A) >> 128;\n            if (x & 0x800 > 0)\n                result = (result * 0x1000000000000058B90BFBE8E7BDCBE2E) >> 128;\n            if (x & 0x400 > 0)\n                result = (result * 0x100000000000002C5C85FDF473DEA871F) >> 128;\n            if (x & 0x200 > 0)\n                result = (result * 0x10000000000000162E42FEFA39EF44D91) >> 128;\n            if (x & 0x100 > 0)\n                result = (result * 0x100000000000000B17217F7D1CF79E949) >> 128;\n            if (x & 0x80 > 0)\n                result = (result * 0x10000000000000058B90BFBE8E7BCE544) >> 128;\n            if (x & 0x40 > 0)\n                result = (result * 0x1000000000000002C5C85FDF473DE6ECA) >> 128;\n            if (x & 0x20 > 0)\n                result = (result * 0x100000000000000162E42FEFA39EF366F) >> 128;\n            if (x & 0x10 > 0)\n                result = (result * 0x1000000000000000B17217F7D1CF79AFA) >> 128;\n            if (x & 0x8 > 0)\n                result = (result * 0x100000000000000058B90BFBE8E7BCD6D) >> 128;\n            if (x & 0x4 > 0)\n                result = (result * 0x10000000000000002C5C85FDF473DE6B2) >> 128;\n            if (x & 0x2 > 0)\n                result = (result * 0x1000000000000000162E42FEFA39EF358) >> 128;\n            if (x & 0x1 > 0)\n                result = (result * 0x10000000000000000B17217F7D1CF79AB) >> 128;\n\n            result >>= uint256(int256(63 - (x >> 64)));\n            require(result <= uint256(int256(MAX_64x64)));\n\n            return int128(int256(result));\n        }\n    }\n\n    /**\n     * Calculate natural exponent of x.  Revert on overflow.\n     *\n     * @param x signed 64.64-bit fixed point number\n     * @return signed 64.64-bit fixed point number\n     */\n    function exp(int128 x) internal pure returns (int128) {\n        unchecked {\n            require(x < 0x400000000000000000); // Overflow\n\n            if (x < -0x400000000000000000) return 0; // Underflow\n\n            return\n                exp_2(\n                    int128(\n                        (int256(x) * 0x171547652B82FE1777D0FFDA0D23A7D12) >> 128\n                    )\n                );\n        }\n    }\n\n    /**\n     * Calculate x / y rounding towards zero, where x and y are unsigned 256-bit\n     * integer numbers.  Revert on overflow or when y is zero.\n     *\n     * @param x unsigned 256-bit integer number\n     * @param y unsigned 256-bit integer number\n     * @return unsigned 64.64-bit fixed point number\n     */\n    function divuu(uint256 x, uint256 y) private pure returns (uint128) {\n        unchecked {\n            require(y != 0);\n\n            uint256 result;\n\n            if (x <= 0xFFFFFFFFFFFFFFFFFFFFFFFFFFFFFFFFFFFFFFFFFFFFFFFF)\n                result = (x << 64) / y;\n            else {\n                uint256 msb = 192;\n                uint256 xc = x >> 192;\n                if (xc >= 0x100000000) {\n                    xc >>= 32;\n                    msb += 32;\n                }\n                if (xc >= 0x10000) {\n                    xc >>= 16;\n                    msb += 16;\n                }\n                if (xc >= 0x100) {\n                    xc >>= 8;\n                    msb += 8;\n                }\n                if (xc >= 0x10) {\n                    xc >>= 4;\n                    msb += 4;\n                }\n                if (xc >= 0x4) {\n                    xc >>= 2;\n                    msb += 2;\n                }\n                if (xc >= 0x2) msb += 1; // No need to shift xc anymore\n\n                result = (x << (255 - msb)) / (((y - 1) >> (msb - 191)) + 1);\n                require(result <= 0xFFFFFFFFFFFFFFFFFFFFFFFFFFFFFFFF);\n\n                uint256 hi = result * (y >> 128);\n                uint256 lo = result * (y & 0xFFFFFFFFFFFFFFFFFFFFFFFFFFFFFFFF);\n\n                uint256 xh = x >> 192;\n                uint256 xl = x << 64;\n\n                if (xl < lo) xh -= 1;\n                xl -= lo; // We rely on overflow behavior here\n                lo = hi << 128;\n                if (xl < lo) xh -= 1;\n                xl -= lo; // We rely on overflow behavior here\n\n                assert(xh == hi >> 128);\n\n                result += xl / y;\n            }\n\n            require(result <= 0xFFFFFFFFFFFFFFFFFFFFFFFFFFFFFFFF);\n            return uint128(result);\n        }\n    }\n\n    /**\n     * Calculate sqrt (x) rounding down, where x is unsigned 256-bit integer\n     * number.\n     *\n     * @param x unsigned 256-bit integer number\n     * @return unsigned 128-bit integer number\n     */\n    function sqrtu(uint256 x) private pure returns (uint128) {\n        unchecked {\n            if (x == 0) return 0;\n            else {\n                uint256 xx = x;\n                uint256 r = 1;\n                if (xx >= 0x100000000000000000000000000000000) {\n                    xx >>= 128;\n                    r <<= 64;\n                }\n                if (xx >= 0x10000000000000000) {\n                    xx >>= 64;\n                    r <<= 32;\n                }\n                if (xx >= 0x100000000) {\n                    xx >>= 32;\n                    r <<= 16;\n                }\n                if (xx >= 0x10000) {\n                    xx >>= 16;\n                    r <<= 8;\n                }\n                if (xx >= 0x100) {\n                    xx >>= 8;\n                    r <<= 4;\n                }\n                if (xx >= 0x10) {\n                    xx >>= 4;\n                    r <<= 2;\n                }\n                if (xx >= 0x8) {\n                    r <<= 1;\n                }\n                r = (r + x / r) >> 1;\n                r = (r + x / r) >> 1;\n                r = (r + x / r) >> 1;\n                r = (r + x / r) >> 1;\n                r = (r + x / r) >> 1;\n                r = (r + x / r) >> 1;\n                r = (r + x / r) >> 1; // Seven iterations should be enough\n                uint256 r1 = x / r;\n                return uint128(r < r1 ? r : r1);\n            }\n        }\n    }\n}\n\nlibrary OptionMath {\n    using ABDKMath64x64 for int128;\n\n    // 64x64 fixed point integer constants\n    int128 internal constant ONE_64x64 = 0x10000000000000000;\n    int128 internal constant THREE_64x64 = 0x30000000000000000;\n\n    // 64x64 fixed point constants used in Choudhury’s approximation of the Black-Scholes CDF\n    int128 private constant CDF_CONST_0 = 0x09109f285df452394; // 2260 / 3989\n    int128 private constant CDF_CONST_1 = 0x19abac0ea1da65036; // 6400 / 3989\n    int128 private constant CDF_CONST_2 = 0x0d3c84b78b749bd6b; // 3300 / 3989\n\n    /**\n     * @notice calculate the exponential decay coefficient for a given interval\n     * @param oldTimestamp timestamp of previous update\n     * @param newTimestamp current timestamp\n     * @return 64x64 fixed point representation of exponential decay coefficient\n     */\n    function _decay(uint256 oldTimestamp, uint256 newTimestamp)\n        internal\n        pure\n        returns (int128)\n    {\n        return\n            ONE_64x64.sub(\n                (-ABDKMath64x64.divu(newTimestamp - oldTimestamp, 7 days)).exp()\n            );\n    }\n\n    /**\n     * @notice calculate Choudhury’s approximation of the Black-Scholes CDF\n     * @param input64x64 64x64 fixed point representation of random variable\n     * @return 64x64 fixed point representation of the approximated CDF of x\n     */\n    function _N(int128 input64x64) internal pure returns (int128) {\n        // squaring via mul is cheaper than via pow\n        int128 inputSquared64x64 = input64x64.mul(input64x64);\n\n        int128 value64x64 = (-inputSquared64x64 >> 1).exp().div(\n            CDF_CONST_0.add(CDF_CONST_1.mul(input64x64.abs())).add(\n                CDF_CONST_2.mul(inputSquared64x64.add(THREE_64x64).sqrt())\n            )\n        );\n\n        return input64x64 > 0 ? ONE_64x64.sub(value64x64) : value64x64;\n    }\n\n    /**\n     * @notice calculate the price of an option using the Black-Scholes model\n     * @param impliedVol uint256 representation of annualized impliedVol with a factor of 1e4\n     * @param strike uint256 representation of strike price with a factor of 1e8\n     * @param spot uint256 representation of spot price with a factor of 1e8\n     * @param period uint256 representation of duration of option contract (in seconds)\n     * @param isCall whether to price \"call\" or \"put\" option\n     * @return uint256 representation of Black-Scholes option price with a factor of 1e8\n     */\n    function blackScholesPrice(\n        uint256 impliedVol,\n        uint256 strike,\n        uint256 spot,\n        uint256 period,\n        bool isCall\n    ) public pure returns (uint256) {\n        int128 D8 = ABDKMath64x64.fromUInt(10**8);\n        int128 D4 = ABDKMath64x64.fromUInt(10**4);\n        int128 impliedVol64x64 = ABDKMath64x64.fromUInt(impliedVol).div(D4);\n        int128 variance64x64 = impliedVol64x64.mul(impliedVol64x64);\n        int128 strike64x64 = ABDKMath64x64.fromUInt(strike).div(D8);\n        int128 spot64x64 = ABDKMath64x64.fromUInt(spot).div(D8);\n        int128 maturity64x64 = ABDKMath64x64.fromUInt(period).div(\n            ABDKMath64x64.fromUInt(365 days)\n        );\n\n        int128 premium64x64 = _blackScholesPrice(\n            variance64x64,\n            strike64x64,\n            spot64x64,\n            maturity64x64,\n            isCall\n        );\n        return ABDKMath64x64.toUInt(premium64x64.mul(D8));\n    }\n\n    /**\n     * @notice calculate the price of an option using the Black-Scholes model\n     * @param varianceAnnualized64x64 64x64 fixed point representation of annualized variance\n     * @param strike64x64 64x64 fixed point representation of strike price\n     * @param spot64x64 64x64 fixed point representation of spot price\n     * @param timeToMaturity64x64 64x64 fixed point representation of duration of option contract (in years)\n     * @param isCall whether to price \"call\" or \"put\" option\n     * @return 64x64 fixed point representation of Black-Scholes option price\n     */\n    function _blackScholesPrice(\n        int128 varianceAnnualized64x64,\n        int128 strike64x64,\n        int128 spot64x64,\n        int128 timeToMaturity64x64,\n        bool isCall\n    ) public pure returns (int128) {\n        int128 cumulativeVariance64x64 = timeToMaturity64x64.mul(\n            varianceAnnualized64x64\n        );\n        int128 cumulativeVarianceSqrt64x64 = cumulativeVariance64x64.sqrt();\n\n        int128 d1_64x64 = spot64x64\n            .div(strike64x64)\n            .ln()\n            .add(cumulativeVariance64x64 >> 1)\n            .div(cumulativeVarianceSqrt64x64);\n        int128 d2_64x64 = d1_64x64.sub(cumulativeVarianceSqrt64x64);\n\n        if (isCall) {\n            return\n                spot64x64.mul(_N(d1_64x64)).sub(strike64x64.mul(_N(d2_64x64)));\n        } else {\n            return\n                -spot64x64.mul(_N(-d1_64x64)).sub(\n                    strike64x64.mul(_N(-d2_64x64))\n                );\n        }\n    }\n\n    /**\n     * @notice calculate the price of an option using the Black-Scholes model\n     * @param impliedVol uint256 representation of annualized impliedVol with a factor of 1e4\n     * @param strike uint256 representation of strike price with a factor of 1e8\n     * @param spot uint256 representation of spot price with a factor of 1e8\n     * @param period uint256 representation of duration of option contract (in seconds)\n     * @param isYes whether to price \"call\" or \"put\" option\n     * @param isAbove whether to the user bets the price will stay above this strike or not\n     * @return uint256 representation of Black-Scholes option price with a factor of 1e8\n     */\n    function blackScholesPriceBinary(\n        uint256 impliedVol,\n        uint256 strike,\n        uint256 spot,\n        uint256 period,\n        bool isYes,\n        bool isAbove\n    ) public pure returns (uint256) {\n        int128 D8 = ABDKMath64x64.fromUInt(10**8);\n        int128 D4 = ABDKMath64x64.fromUInt(10**4);\n        int128 impliedVol64x64 = ABDKMath64x64.fromUInt(impliedVol).div(D4);\n        int128 variance64x64 = impliedVol64x64.mul(impliedVol64x64);\n        int128 strike64x64 = ABDKMath64x64.fromUInt(strike).div(D8);\n        int128 spot64x64 = ABDKMath64x64.fromUInt(spot).div(D8);\n        int128 maturity64x64 = ABDKMath64x64.fromUInt(period).div(\n            ABDKMath64x64.fromUInt(365 days)\n        );\n\n        int128 premium64x64 = _blackScholesPriceBinary(\n            variance64x64,\n            strike64x64,\n            spot64x64,\n            maturity64x64,\n            isYes,\n            isAbove\n        );\n        return ABDKMath64x64.toUInt(premium64x64.mul(D8));\n    }\n\n\n\n    /**\n     * @notice calculate the price of an option using the Black-Scholes model\n     * @param varianceAnnualized64x64 64x64 fixed point representation of annualized variance\n     * @param strike64x64 64x64 fixed point representation of strike price\n     * @param spot64x64 64x64 fixed point representation of spot price\n     * @param timeToMaturity64x64 64x64 fixed point representation of duration of option contract (in years)\n     * @param isYes whether to price \"call\" or \"put\" option\n     * @param isAbove whether to the user bets the price will stay above this strike or not\n     * @return 64x64 fixed point representation of Black-Scholes option price\n     */\n    function _blackScholesPriceBinary(\n        int128 varianceAnnualized64x64,\n        int128 strike64x64,\n        int128 spot64x64,\n        int128 timeToMaturity64x64,\n        bool isYes,\n        bool isAbove\n    ) public pure returns (int128) {\n        int128 cumulativeVariance64x64 = timeToMaturity64x64.mul(\n            varianceAnnualized64x64\n        );\n        int128 cumulativeVarianceSqrt64x64 = cumulativeVariance64x64.sqrt();\n\n        int128 d1_64x64 = spot64x64\n            .div(strike64x64)\n            .ln()\n            .add(cumulativeVariance64x64 >> 1)\n            .div(cumulativeVarianceSqrt64x64);\n        int128 d2_64x64 = d1_64x64.sub(cumulativeVarianceSqrt64x64);\n\n        if (isYes) {\n            if (isAbove) {\n                return _N(d2_64x64);\n            } else {\n                return ABDKMath64x64.fromUInt(1).sub(_N(d2_64x64));\n            }\n        } else {\n            if (isAbove) {\n                return ABDKMath64x64.fromUInt(1).sub(_N(-d2_64x64));\n            } else {\n                return _N(-d2_64x64);\n            }\n        }\n    }\n\n}\n","sourcePath":"contracts/Libraries/OptionMath.sol","deployment":{"address":"0x97eAAabE4B8e56A43B0Ca957ccb2d3482acFd0eE","chainid":"97","blockHeight":20383058}}