{"bytecode":"610caf61003a600b82828239805160001a60731461002d57634e487b7160e01b600052600060045260246000fd5b30600052607381538281f3fe73000000000000000000000000000000000000000030146080604052600436106100775760003560e01c8063351f62a01461007c5780634fe8c640146100af578063934ce3d6146100d0578063c04a1afe146100e3578063d69bde77146100f6578063dbfa5dd614610109578063fbef1d551461011c575b600080fd5b61008f61008a366004610b18565b61012f565b604080519384526020840192909252908201526060015b60405180910390f35b6100c26100bd366004610a28565b61022f565b6040519081526020016100a6565b61008f6100de366004610a98565b61037c565b61008f6100f1366004610b18565b6103b9565b6100c2610104366004610a57565b6104b4565b61008f610117366004610945565b6105eb565b61008f61012a366004610b18565b610626565b60008060008073__OptionMath____________________________632c607c3b61015a8c888a6104b4565b8b8a8f60028e600281111561017f57634e487b7160e01b600052602160045260246000fd5b146040518663ffffffff1660e01b81526004016101a0959493929190610b8c565b60206040518083038186803b1580156101b857600080fd5b505af41580156101cc573d6000803e3d6000fd5b505050506040513d601f19601f820116820180604052508101906101f09190610a10565b90506101fc8a876106f4565b9250866102098b83610c15565b6102139190610bf5565b915061021f8284610bdd565b9350509750975097945050505050565b600080826001600160a01b031663d9ac10d96040518163ffffffff1660e01b815260040160206040518083038186803b15801561026b57600080fd5b505afa15801561027f573d6000803e3d6000fd5b505050506040513d601f19601f820116820180604052508101906102a39190610a10565b9050600081116102de5760405162461bcd60e51b815260206004820152600260248201526109e760f31b604482015260640160405180910390fd5b8084846001600160a01b0316636ab28bc86040518163ffffffff1660e01b815260040160206040518083038186803b15801561031957600080fd5b505afa15801561032d573d6000803e3d6000fd5b505050506040513d601f19601f820116820180604052508101906103519190610a10565b61035b9190610bdd565b61036a906402540be400610c15565b6103749190610bf5565b949350505050565b60008060006103918a85878c8f8b8e8e610784565b905061039d8a866106f4565b91506103a98183610bdd565b9250985098509895505050505050565b60008060008073__OptionMath____________________________632c607c3b6103e48c888a6104b4565b8b8a8f60028e600281111561040957634e487b7160e01b600052602160045260246000fd5b146040518663ffffffff1660e01b815260040161042a959493929190610b8c565b60206040518083038186803b15801561044257600080fd5b505af4158015610456573d6000803e3d6000fd5b505050506040513d601f19601f8201168201806040525081019061047a9190610a10565b9050868a6104888284610bdd565b6104929190610c15565b61049c9190610bf5565b91506104a88a876106f4565b925061021f8284610bdd565b6000816001600160a01b03166318f88e5b6040518163ffffffff1660e01b815260040160206040518083038186803b1580156104ef57600080fd5b505afa158015610503573d6000803e3d6000fd5b505050506040513d601f19601f820116820180604052508101906105279190610a10565b90506000610535858561022f565b905063ee6b28008111156105e357826001600160a01b0316636c321c8a6040518163ffffffff1660e01b815260040160206040518083038186803b15801561057c57600080fd5b505afa158015610590573d6000803e3d6000fd5b505050506040513d601f19601f820116820180604052508101906105b49190610a10565b6105c263ee6b280083610c34565b6105cc9084610c15565b6105d69190610bf5565b6105e09083610bdd565b91505b509392505050565b60008060006105fd8885878a8a610847565b905061060d8860200151866106f4565b91506106198183610bdd565b9250955095509592505050565b60008060008073__OptionMath____________________________632c607c3b6106518c888a6104b4565b8b8a8f60028e600281111561067657634e487b7160e01b600052602160045260246000fd5b146040518663ffffffff1660e01b8152600401610697959493929190610b8c565b60206040518083038186803b1580156106af57600080fd5b505af41580156106c3573d6000803e3d6000fd5b505050506040513d601f19601f820116820180604052508101906106e79190610a10565b9050866104928b83610c15565b60006064826001600160a01b031663f3fa34956040518163ffffffff1660e01b815260040160206040518083038186803b15801561073157600080fd5b505afa158015610745573d6000803e3d6000fd5b505050506040513d601f19601f820116820180604052508101906107699190610a10565b6107739085610c15565b61077d9190610bf5565b9392505050565b60008073__OptionMath____________________________63d573d6156107ac8c8c8c6104b4565b89888a89896040518763ffffffff1660e01b81526004016107d296959493929190610bb1565b60206040518083038186803b1580156107ea57600080fd5b505af41580156107fe573d6000803e3d6000fd5b505050506040513d601f19601f820116820180604052508101906108229190610a10565b90508461082f8b83610c15565b6108399190610bf5565b9a9950505050505050505050565b60008073__OptionMath____________________________63d573d615610873896020015189896104b4565b6040808b01518b5160608d015160808e015193516001600160e01b031960e088901b1681526108a995948b939291600401610bb1565b60206040518083038186803b1580156108c157600080fd5b505af41580156108d5573d6000803e3d6000fd5b505050506040513d601f19601f820116820180604052508101906108f99190610a10565b90506305f5e1008760200151826109109190610c15565b61091a9190610bf5565b979650505050505050565b8035801515811461093557600080fd5b919050565b803561093581610c61565b600080600080600085870361012081121561095e578182fd5b60a081121561096b578182fd5b5060405160a081016001600160401b038111828210171561099a57634e487b7160e01b83526041600452602483fd5b80604052508635815260208701356020820152604087013560408201526109c360608801610925565b60608201526109d460808801610925565b6080820152945060a0860135935060c086013592506109f560e0870161093a565b9150610a04610100870161093a565b90509295509295909350565b600060208284031215610a21578081fd5b5051919050565b60008060408385031215610a3a578182fd5b823591506020830135610a4c81610c61565b809150509250929050565b600080600060608486031215610a6b578283fd5b833592506020840135610a7d81610c61565b91506040840135610a8d81610c61565b809150509250925092565b600080600080600080600080610100898b031215610ab4578283fd5b883597506020890135965060408901359550610ad260608a01610925565b9450610ae060808a01610925565b935060a0890135925060c0890135610af781610c61565b915060e0890135610b0781610c61565b809150509295985092959890939650565b600080600080600080600060e0888a031215610b32578283fd5b873596506020880135955060408801359450606088013560038110610b55578384fd5b93506080880135925060a0880135610b6c81610c61565b915060c0880135610b7c81610c61565b8091505092959891949750929550565b9485526020850193909352604084019190915260608301521515608082015260a00190565b95865260208601949094526040850192909252606084015215156080830152151560a082015260c00190565b60008219821115610bf057610bf0610c4b565b500190565b600082610c1057634e487b7160e01b81526012600452602481fd5b500490565b6000816000190483118215151615610c2f57610c2f610c4b565b500290565b600082821015610c4657610c46610c4b565b500390565b634e487b7160e01b600052601160045260246000fd5b6001600160a01b0381168114610c7657600080fd5b5056fea26469706673582212203d94efebee22bddaac51555d1909c22b3dec9047bad64e7219ed23b48cd881cd64736f6c63430008040033","bytecodeSha1":"688b9bf4da41a9633dd8e4bba027a79a4a14a873","type":"library","abi":[{"inputs":[{"internalType":"uint256","name":"amount","type":"uint256"},{"internalType":"contract BufferEpocPoolV2Unintialized","name":"pool","type":"BufferEpocPoolV2Unintialized"},{"internalType":"contract OptionConfigUnintialized","name":"config","type":"OptionConfigUnintialized"}],"name":"currentImpliedVolatility","outputs":[{"internalType":"uint256","name":"iv","type":"uint256"}],"stateMutability":"view","type":"function"},{"inputs":[{"internalType":"uint256","name":"period","type":"uint256"},{"internalType":"uint256","name":"amount","type":"uint256"},{"internalType":"uint256","name":"strike","type":"uint256"},{"internalType":"enum IBufferOptions.OptionType","name":"optionType","type":"IBufferOptions.OptionType"},{"internalType":"uint256","name":"currentPrice","type":"uint256"},{"internalType":"contract OptionConfigUnintialized","name":"config","type":"OptionConfigUnintialized"},{"internalType":"contract BufferEpocPoolV2Unintialized","name":"pool","type":"BufferEpocPoolV2Unintialized"}],"name":"fees","outputs":[{"internalType":"uint256","name":"total","type":"uint256"},{"internalType":"uint256","name":"settlementFee","type":"uint256"},{"internalType":"uint256","name":"premium","type":"uint256"}],"stateMutability":"view","type":"function"},{"inputs":[{"internalType":"uint256","name":"period","type":"uint256"},{"internalType":"uint256","name":"amount","type":"uint256"},{"internalType":"uint256","name":"strike","type":"uint256"},{"internalType":"bool","name":"isYes","type":"bool"},{"internalType":"bool","name":"isAbove","type":"bool"},{"internalType":"uint256","name":"currentPrice","type":"uint256"},{"internalType":"contract OptionConfigUnintialized","name":"config","type":"OptionConfigUnintialized"},{"internalType":"contract BufferEpocPoolV2Unintialized","name":"pool","type":"BufferEpocPoolV2Unintialized"}],"name":"feesBinary","outputs":[{"internalType":"uint256","name":"total","type":"uint256"},{"internalType":"uint256","name":"settlementFee","type":"uint256"},{"internalType":"uint256","name":"premium","type":"uint256"}],"stateMutability":"view","type":"function"},{"inputs":[{"components":[{"internalType":"uint256","name":"period","type":"uint256"},{"internalType":"uint256","name":"amount","type":"uint256"},{"internalType":"uint256","name":"strike","type":"uint256"},{"internalType":"bool","name":"isYes","type":"bool"},{"internalType":"bool","name":"isAbove","type":"bool"}],"internalType":"struct IBufferOptions.OptionDetails","name":"optionDetails","type":"tuple"},{"internalType":"uint256","name":"currentPrice","type":"uint256"},{"internalType":"uint256","name":"KPI","type":"uint256"},{"internalType":"contract OptionConfigUnintialized","name":"config","type":"OptionConfigUnintialized"},{"internalType":"contract BufferEpocPoolV2Unintialized","name":"pool","type":"BufferEpocPoolV2Unintialized"}],"name":"feesKPIBinary","outputs":[{"internalType":"uint256","name":"total","type":"uint256"},{"internalType":"uint256","name":"settlementFee","type":"uint256"},{"internalType":"uint256","name":"premium","type":"uint256"}],"stateMutability":"view","type":"function"},{"inputs":[{"internalType":"uint256","name":"period","type":"uint256"},{"internalType":"uint256","name":"amount","type":"uint256"},{"internalType":"uint256","name":"strike","type":"uint256"},{"internalType":"enum IBufferOptions.OptionType","name":"optionType","type":"IBufferOptions.OptionType"},{"internalType":"uint256","name":"currentPrice","type":"uint256"},{"internalType":"contract OptionConfigUnintialized","name":"config","type":"OptionConfigUnintialized"},{"internalType":"contract BufferEpocPoolV2Unintialized","name":"pool","type":"BufferEpocPoolV2Unintialized"}],"name":"feesSuccessOptions","outputs":[{"internalType":"uint256","name":"total","type":"uint256"},{"internalType":"uint256","name":"settlementFee","type":"uint256"},{"internalType":"uint256","name":"premium","type":"uint256"}],"stateMutability":"view","type":"function"},{"inputs":[{"internalType":"uint256","name":"period","type":"uint256"},{"internalType":"uint256","name":"amount","type":"uint256"},{"internalType":"uint256","name":"strike","type":"uint256"},{"internalType":"enum IBufferOptions.OptionType","name":"optionType","type":"IBufferOptions.OptionType"},{"internalType":"uint256","name":"currentPrice","type":"uint256"},{"internalType":"contract OptionConfigUnintialized","name":"config","type":"OptionConfigUnintialized"},{"internalType":"contract BufferEpocPoolV2Unintialized","name":"pool","type":"BufferEpocPoolV2Unintialized"}],"name":"feesUsd","outputs":[{"internalType":"uint256","name":"total","type":"uint256"},{"internalType":"uint256","name":"settlementFee","type":"uint256"},{"internalType":"uint256","name":"premium","type":"uint256"}],"stateMutability":"view","type":"function"},{"inputs":[{"internalType":"uint256","name":"amount","type":"uint256"},{"internalType":"contract BufferEpocPoolV2Unintialized","name":"pool","type":"BufferEpocPoolV2Unintialized"}],"name":"getNewUtilisation","outputs":[{"internalType":"uint256","name":"utilization","type":"uint256"}],"stateMutability":"view","type":"function"}],"compiler":{"version":"0.8.4+commit.c7e474f2","evm_version":"istanbul","optimizer":{"enabled":true,"runs":1}},"contractName":"FeeCalculator","deployedBytecode":"73000000000000000000000000000000000000000030146080604052600436106100775760003560e01c8063351f62a01461007c5780634fe8c640146100af578063934ce3d6146100d0578063c04a1afe146100e3578063d69bde77146100f6578063dbfa5dd614610109578063fbef1d551461011c575b600080fd5b61008f61008a366004610b18565b61012f565b604080519384526020840192909252908201526060015b60405180910390f35b6100c26100bd366004610a28565b61022f565b6040519081526020016100a6565b61008f6100de366004610a98565b61037c565b61008f6100f1366004610b18565b6103b9565b6100c2610104366004610a57565b6104b4565b61008f610117366004610945565b6105eb565b61008f61012a366004610b18565b610626565b60008060008073__$21a7d244ba8ae9c6f13b9eaa6b054f8aee$__632c607c3b61015a8c888a6104b4565b8b8a8f60028e600281111561017f57634e487b7160e01b600052602160045260246000fd5b146040518663ffffffff1660e01b81526004016101a0959493929190610b8c565b60206040518083038186803b1580156101b857600080fd5b505af41580156101cc573d6000803e3d6000fd5b505050506040513d601f19601f820116820180604052508101906101f09190610a10565b90506101fc8a876106f4565b9250866102098b83610c15565b6102139190610bf5565b915061021f8284610bdd565b9350509750975097945050505050565b600080826001600160a01b031663d9ac10d96040518163ffffffff1660e01b815260040160206040518083038186803b15801561026b57600080fd5b505afa15801561027f573d6000803e3d6000fd5b505050506040513d601f19601f820116820180604052508101906102a39190610a10565b9050600081116102de5760405162461bcd60e51b815260206004820152600260248201526109e760f31b604482015260640160405180910390fd5b8084846001600160a01b0316636ab28bc86040518163ffffffff1660e01b815260040160206040518083038186803b15801561031957600080fd5b505afa15801561032d573d6000803e3d6000fd5b505050506040513d601f19601f820116820180604052508101906103519190610a10565b61035b9190610bdd565b61036a906402540be400610c15565b6103749190610bf5565b949350505050565b60008060006103918a85878c8f8b8e8e610784565b905061039d8a866106f4565b91506103a98183610bdd565b9250985098509895505050505050565b60008060008073__$21a7d244ba8ae9c6f13b9eaa6b054f8aee$__632c607c3b6103e48c888a6104b4565b8b8a8f60028e600281111561040957634e487b7160e01b600052602160045260246000fd5b146040518663ffffffff1660e01b815260040161042a959493929190610b8c565b60206040518083038186803b15801561044257600080fd5b505af4158015610456573d6000803e3d6000fd5b505050506040513d601f19601f8201168201806040525081019061047a9190610a10565b9050868a6104888284610bdd565b6104929190610c15565b61049c9190610bf5565b91506104a88a876106f4565b925061021f8284610bdd565b6000816001600160a01b03166318f88e5b6040518163ffffffff1660e01b815260040160206040518083038186803b1580156104ef57600080fd5b505afa158015610503573d6000803e3d6000fd5b505050506040513d601f19601f820116820180604052508101906105279190610a10565b90506000610535858561022f565b905063ee6b28008111156105e357826001600160a01b0316636c321c8a6040518163ffffffff1660e01b815260040160206040518083038186803b15801561057c57600080fd5b505afa158015610590573d6000803e3d6000fd5b505050506040513d601f19601f820116820180604052508101906105b49190610a10565b6105c263ee6b280083610c34565b6105cc9084610c15565b6105d69190610bf5565b6105e09083610bdd565b91505b509392505050565b60008060006105fd8885878a8a610847565b905061060d8860200151866106f4565b91506106198183610bdd565b9250955095509592505050565b60008060008073__$21a7d244ba8ae9c6f13b9eaa6b054f8aee$__632c607c3b6106518c888a6104b4565b8b8a8f60028e600281111561067657634e487b7160e01b600052602160045260246000fd5b146040518663ffffffff1660e01b8152600401610697959493929190610b8c565b60206040518083038186803b1580156106af57600080fd5b505af41580156106c3573d6000803e3d6000fd5b505050506040513d601f19601f820116820180604052508101906106e79190610a10565b9050866104928b83610c15565b60006064826001600160a01b031663f3fa34956040518163ffffffff1660e01b815260040160206040518083038186803b15801561073157600080fd5b505afa158015610745573d6000803e3d6000fd5b505050506040513d601f19601f820116820180604052508101906107699190610a10565b6107739085610c15565b61077d9190610bf5565b9392505050565b60008073__$21a7d244ba8ae9c6f13b9eaa6b054f8aee$__63d573d6156107ac8c8c8c6104b4565b89888a89896040518763ffffffff1660e01b81526004016107d296959493929190610bb1565b60206040518083038186803b1580156107ea57600080fd5b505af41580156107fe573d6000803e3d6000fd5b505050506040513d601f19601f820116820180604052508101906108229190610a10565b90508461082f8b83610c15565b6108399190610bf5565b9a9950505050505050505050565b60008073__$21a7d244ba8ae9c6f13b9eaa6b054f8aee$__63d573d615610873896020015189896104b4565b6040808b01518b5160608d015160808e015193516001600160e01b031960e088901b1681526108a995948b939291600401610bb1565b60206040518083038186803b1580156108c157600080fd5b505af41580156108d5573d6000803e3d6000fd5b505050506040513d601f19601f820116820180604052508101906108f99190610a10565b90506305f5e1008760200151826109109190610c15565b61091a9190610bf5565b979650505050505050565b8035801515811461093557600080fd5b919050565b803561093581610c61565b600080600080600085870361012081121561095e578182fd5b60a081121561096b578182fd5b5060405160a081016001600160401b038111828210171561099a57634e487b7160e01b83526041600452602483fd5b80604052508635815260208701356020820152604087013560408201526109c360608801610925565b60608201526109d460808801610925565b6080820152945060a0860135935060c086013592506109f560e0870161093a565b9150610a04610100870161093a565b90509295509295909350565b600060208284031215610a21578081fd5b5051919050565b60008060408385031215610a3a578182fd5b823591506020830135610a4c81610c61565b809150509250929050565b600080600060608486031215610a6b578283fd5b833592506020840135610a7d81610c61565b91506040840135610a8d81610c61565b809150509250925092565b600080600080600080600080610100898b031215610ab4578283fd5b883597506020890135965060408901359550610ad260608a01610925565b9450610ae060808a01610925565b935060a0890135925060c0890135610af781610c61565b915060e0890135610b0781610c61565b809150509295985092959890939650565b600080600080600080600060e0888a031215610b32578283fd5b873596506020880135955060408801359450606088013560038110610b55578384fd5b93506080880135925060a0880135610b6c81610c61565b915060c0880135610b7c81610c61565b8091505092959891949750929550565b9485526020850193909352604084019190915260608301521515608082015260a00190565b95865260208601949094526040850192909252606084015215156080830152151560a082015260c00190565b60008219821115610bf057610bf0610c4b565b500190565b600082610c1057634e487b7160e01b81526012600452602481fd5b500490565b6000816000190483118215151615610c2f57610c2f610c4b565b500290565b600082821015610c4657610c46610c4b565b500390565b634e487b7160e01b600052601160045260246000fd5b6001600160a01b0381168114610c7657600080fd5b5056fea26469706673582212203d94efebee22bddaac51555d1909c22b3dec9047bad64e7219ed23b48cd881cd64736f6c63430008040033","language":"Solidity","natspec":{"methods":{"currentImpliedVolatility(uint256,BufferEpocPoolV2Unintialized,OptionConfigUnintialized)":{"notice":"Calculate the Utilisation adjusted ImpliedVol for the pool according to https://www.desmos.com/calculator/xdmhn97opd","params":{"amount":"Option amount","config":"The option configuration","pool":"The pool selling the option"},"returns":{"iv":"The adjusted ImpliedVol"}},"fees(uint256,uint256,uint256,IBufferOptions.OptionType,uint256,OptionConfigUnintialized,BufferEpocPoolV2Unintialized)":{"notice":"Used for getting the price for Options in tokenX","params":{"amount":"Option amount","config":"The option configuration","currentPrice":"Current price of the underlying asset","optionType":"Type of the Option","period":"Option period in seconds (1 days <= period <= 4 weeks)","pool":"The pool selling the option","strike":"Strike price of the option"},"returns":{"premium":"Amount that covers the price difference in the ITM options","settlementFee":"Amount to be distributed to the Buffer token holders","total":"Total price to be paid"}},"feesBinary(uint256,uint256,uint256,bool,bool,uint256,OptionConfigUnintialized,BufferEpocPoolV2Unintialized)":{"notice":"Used for getting the price for Binary Options","params":{"amount":"Option amount","config":"The option configuration","currentPrice":"Current price of the underlying asset","isAbove":"whether the price will stay above this strike or not","isYes":"whether the option isAbove or not","period":"Option period in seconds (1 days <= period <= 4 weeks)","pool":"The pool selling the option","strike":"Strike price of the option"},"returns":{"premium":"Amount that covers the price difference in the ITM options","settlementFee":"Amount to be distributed to the Buffer token holders","total":"Total price to be paid"}},"feesKPIBinary(IBufferOptions.OptionDetails,uint256,uint256,OptionConfigUnintialized,BufferEpocPoolV2Unintialized)":{"notice":"Used for getting the price for Binary KPI Options","params":{"KPI":"KPI value for option","config":"Option config","currentPrice":"Current price of the tokenX","optionDetails":"Details of the option to be priced","pool":"pool contract"},"returns":{"premium":"Amount that covers the price difference in the ITM options","settlementFee":"Amount to be distributed to the Buffer token holders","total":"Total price to be paid"}},"feesSuccessOptions(uint256,uint256,uint256,IBufferOptions.OptionType,uint256,OptionConfigUnintialized,BufferEpocPoolV2Unintialized)":{"notice":"Used for getting the price for Options in tokenX","params":{"amount":"Option amount","config":"The option configuration","currentPrice":"Current price of the underlying asset","optionType":"Type of the Option","period":"Option period in seconds (1 days <= period <= 4 weeks)","pool":"The pool selling the option","strike":"Strike price of the option"},"returns":{"premium":"Amount that covers the price difference in the ITM options","settlementFee":"Amount to be distributed to the Buffer token holders","total":"Total price to be paid"}},"feesUsd(uint256,uint256,uint256,IBufferOptions.OptionType,uint256,OptionConfigUnintialized,BufferEpocPoolV2Unintialized)":{"notice":"Used for getting the price for Options in USD","params":{"amount":"Option amount","config":"The option configuration","currentPrice":"Current price of the underlying asset","optionType":"Type of the Option","period":"Option period in seconds (1 days <= period <= 4 weeks)","pool":"The pool selling the option","strike":"Strike price of the option"},"returns":{"premium":"Amount that covers the price difference in the ITM options in USD","settlementFee":"Amount to be distributed to the Buffer token holders in USD","total":"Total price to be paid in USD"}},"getNewUtilisation(uint256,BufferEpocPoolV2Unintialized)":{"notice":"Calculate the current Utilisation","params":{"amount":"Option amount","pool":"The pool selling the option"},"returns":{"utilization":"Current utilization"}}},"kind":"dev","version":1},"opcodes":"PUSH20 0x0 ADDRESS EQ PUSH1 0x80 PUSH1 0x40 MSTORE PUSH1 0x4 CALLDATASIZE LT PUSH2 0x77 JUMPI PUSH1 0x0 CALLDATALOAD PUSH1 0xE0 SHR DUP1 PUSH4 0x351F62A0 EQ PUSH2 0x7C JUMPI DUP1 PUSH4 0x4FE8C640 EQ PUSH2 0xAF JUMPI DUP1 PUSH4 0x934CE3D6 EQ PUSH2 0xD0 JUMPI DUP1 PUSH4 0xC04A1AFE EQ PUSH2 0xE3 JUMPI DUP1 PUSH4 0xD69BDE77 EQ PUSH2 0xF6 JUMPI DUP1 PUSH4 0xDBFA5DD6 EQ PUSH2 0x109 JUMPI DUP1 PUSH4 0xFBEF1D55 EQ PUSH2 0x11C JUMPI JUMPDEST PUSH1 0x0 DUP1 REVERT JUMPDEST PUSH2 0x8F PUSH2 0x8A CALLDATASIZE PUSH1 0x4 PUSH2 0xB18 JUMP JUMPDEST PUSH2 0x12F JUMP JUMPDEST PUSH1 0x40 DUP1 MLOAD SWAP4 DUP5 MSTORE PUSH1 0x20 DUP5 ADD SWAP3 SWAP1 SWAP3 MSTORE SWAP1 DUP3 ADD MSTORE PUSH1 0x60 ADD JUMPDEST PUSH1 0x40 MLOAD DUP1 SWAP2 SUB SWAP1 RETURN JUMPDEST PUSH2 0xC2 PUSH2 0xBD CALLDATASIZE PUSH1 0x4 PUSH2 0xA28 JUMP JUMPDEST PUSH2 0x22F JUMP JUMPDEST PUSH1 0x40 MLOAD SWAP1 DUP2 MSTORE PUSH1 0x20 ADD PUSH2 0xA6 JUMP JUMPDEST PUSH2 0x8F PUSH2 0xDE CALLDATASIZE PUSH1 0x4 PUSH2 0xA98 JUMP JUMPDEST PUSH2 0x37C JUMP JUMPDEST PUSH2 0x8F PUSH2 0xF1 CALLDATASIZE PUSH1 0x4 PUSH2 0xB18 JUMP JUMPDEST PUSH2 0x3B9 JUMP JUMPDEST PUSH2 0xC2 PUSH2 0x104 CALLDATASIZE PUSH1 0x4 PUSH2 0xA57 JUMP JUMPDEST PUSH2 0x4B4 JUMP JUMPDEST PUSH2 0x8F PUSH2 0x117 CALLDATASIZE PUSH1 0x4 PUSH2 0x945 JUMP JUMPDEST PUSH2 0x5EB JUMP JUMPDEST PUSH2 0x8F PUSH2 0x12A CALLDATASIZE PUSH1 0x4 PUSH2 0xB18 JUMP JUMPDEST PUSH2 0x626 JUMP JUMPDEST PUSH1 0x0 DUP1 PUSH1 0x0 DUP1 PUSH20 0x0 PUSH4 0x2C607C3B PUSH2 0x15A DUP13 DUP9 DUP11 PUSH2 0x4B4 JUMP JUMPDEST DUP12 DUP11 DUP16 PUSH1 0x2 DUP15 PUSH1 0x2 DUP2 GT ISZERO PUSH2 0x17F JUMPI PUSH4 0x4E487B71 PUSH1 0xE0 SHL PUSH1 0x0 MSTORE PUSH1 0x21 PUSH1 0x4 MSTORE PUSH1 0x24 PUSH1 0x0 REVERT JUMPDEST EQ PUSH1 0x40 MLOAD DUP7 PUSH4 0xFFFFFFFF AND PUSH1 0xE0 SHL DUP2 MSTORE PUSH1 0x4 ADD PUSH2 0x1A0 SWAP6 SWAP5 SWAP4 SWAP3 SWAP2 SWAP1 PUSH2 0xB8C JUMP JUMPDEST PUSH1 0x20 PUSH1 0x40 MLOAD DUP1 DUP4 SUB DUP2 DUP7 DUP1 EXTCODESIZE ISZERO DUP1 ISZERO PUSH2 0x1B8 JUMPI PUSH1 0x0 DUP1 REVERT JUMPDEST POP GAS DELEGATECALL ISZERO DUP1 ISZERO PUSH2 0x1CC JUMPI RETURNDATASIZE PUSH1 0x0 DUP1 RETURNDATACOPY RETURNDATASIZE PUSH1 0x0 REVERT JUMPDEST POP POP POP POP PUSH1 0x40 MLOAD RETURNDATASIZE PUSH1 0x1F NOT PUSH1 0x1F DUP3 ADD AND DUP3 ADD DUP1 PUSH1 0x40 MSTORE POP DUP2 ADD SWAP1 PUSH2 0x1F0 SWAP2 SWAP1 PUSH2 0xA10 JUMP JUMPDEST SWAP1 POP PUSH2 0x1FC DUP11 DUP8 PUSH2 0x6F4 JUMP JUMPDEST SWAP3 POP DUP7 PUSH2 0x209 DUP12 DUP4 PUSH2 0xC15 JUMP JUMPDEST PUSH2 0x213 SWAP2 SWAP1 PUSH2 0xBF5 JUMP JUMPDEST SWAP2 POP PUSH2 0x21F DUP3 DUP5 PUSH2 0xBDD JUMP JUMPDEST SWAP4 POP POP SWAP8 POP SWAP8 POP SWAP8 SWAP5 POP POP POP POP POP JUMP JUMPDEST PUSH1 0x0 DUP1 DUP3 PUSH1 0x1 PUSH1 0x1 PUSH1 0xA0 SHL SUB AND PUSH4 0xD9AC10D9 PUSH1 0x40 MLOAD DUP2 PUSH4 0xFFFFFFFF AND PUSH1 0xE0 SHL DUP2 MSTORE PUSH1 0x4 ADD PUSH1 0x20 PUSH1 0x40 MLOAD DUP1 DUP4 SUB DUP2 DUP7 DUP1 EXTCODESIZE ISZERO DUP1 ISZERO PUSH2 0x26B JUMPI PUSH1 0x0 DUP1 REVERT JUMPDEST POP GAS STATICCALL ISZERO DUP1 ISZERO PUSH2 0x27F JUMPI RETURNDATASIZE PUSH1 0x0 DUP1 RETURNDATACOPY RETURNDATASIZE PUSH1 0x0 REVERT JUMPDEST POP POP POP POP PUSH1 0x40 MLOAD RETURNDATASIZE PUSH1 0x1F NOT PUSH1 0x1F DUP3 ADD AND DUP3 ADD DUP1 PUSH1 0x40 MSTORE POP DUP2 ADD SWAP1 PUSH2 0x2A3 SWAP2 SWAP1 PUSH2 0xA10 JUMP JUMPDEST SWAP1 POP PUSH1 0x0 DUP2 GT PUSH2 0x2DE JUMPI PUSH1 0x40 MLOAD PUSH3 0x461BCD PUSH1 0xE5 SHL DUP2 MSTORE PUSH1 0x20 PUSH1 0x4 DUP3 ADD MSTORE PUSH1 0x2 PUSH1 0x24 DUP3 ADD MSTORE PUSH2 0x9E7 PUSH1 0xF3 SHL PUSH1 0x44 DUP3 ADD MSTORE PUSH1 0x64 ADD PUSH1 0x40 MLOAD DUP1 SWAP2 SUB SWAP1 REVERT JUMPDEST DUP1 DUP5 DUP5 PUSH1 0x1 PUSH1 0x1 PUSH1 0xA0 SHL SUB AND PUSH4 0x6AB28BC8 PUSH1 0x40 MLOAD DUP2 PUSH4 0xFFFFFFFF AND PUSH1 0xE0 SHL DUP2 MSTORE PUSH1 0x4 ADD PUSH1 0x20 PUSH1 0x40 MLOAD DUP1 DUP4 SUB DUP2 DUP7 DUP1 EXTCODESIZE ISZERO DUP1 ISZERO PUSH2 0x319 JUMPI PUSH1 0x0 DUP1 REVERT JUMPDEST POP GAS STATICCALL ISZERO DUP1 ISZERO PUSH2 0x32D JUMPI RETURNDATASIZE PUSH1 0x0 DUP1 RETURNDATACOPY RETURNDATASIZE PUSH1 0x0 REVERT JUMPDEST POP POP POP POP PUSH1 0x40 MLOAD RETURNDATASIZE PUSH1 0x1F NOT PUSH1 0x1F DUP3 ADD AND DUP3 ADD DUP1 PUSH1 0x40 MSTORE POP DUP2 ADD SWAP1 PUSH2 0x351 SWAP2 SWAP1 PUSH2 0xA10 JUMP JUMPDEST PUSH2 0x35B SWAP2 SWAP1 PUSH2 0xBDD JUMP JUMPDEST PUSH2 0x36A SWAP1 PUSH5 0x2540BE400 PUSH2 0xC15 JUMP JUMPDEST PUSH2 0x374 SWAP2 SWAP1 PUSH2 0xBF5 JUMP JUMPDEST SWAP5 SWAP4 POP POP POP POP JUMP JUMPDEST PUSH1 0x0 DUP1 PUSH1 0x0 PUSH2 0x391 DUP11 DUP6 DUP8 DUP13 DUP16 DUP12 DUP15 DUP15 PUSH2 0x784 JUMP JUMPDEST SWAP1 POP PUSH2 0x39D DUP11 DUP7 PUSH2 0x6F4 JUMP JUMPDEST SWAP2 POP PUSH2 0x3A9 DUP2 DUP4 PUSH2 0xBDD JUMP JUMPDEST SWAP3 POP SWAP9 POP SWAP9 POP SWAP9 SWAP6 POP POP POP POP POP POP JUMP JUMPDEST PUSH1 0x0 DUP1 PUSH1 0x0 DUP1 PUSH20 0x0 PUSH4 0x2C607C3B PUSH2 0x3E4 DUP13 DUP9 DUP11 PUSH2 0x4B4 JUMP JUMPDEST DUP12 DUP11 DUP16 PUSH1 0x2 DUP15 PUSH1 0x2 DUP2 GT ISZERO PUSH2 0x409 JUMPI PUSH4 0x4E487B71 PUSH1 0xE0 SHL PUSH1 0x0 MSTORE PUSH1 0x21 PUSH1 0x4 MSTORE PUSH1 0x24 PUSH1 0x0 REVERT JUMPDEST EQ PUSH1 0x40 MLOAD DUP7 PUSH4 0xFFFFFFFF AND PUSH1 0xE0 SHL DUP2 MSTORE PUSH1 0x4 ADD PUSH2 0x42A SWAP6 SWAP5 SWAP4 SWAP3 SWAP2 SWAP1 PUSH2 0xB8C JUMP JUMPDEST PUSH1 0x20 PUSH1 0x40 MLOAD DUP1 DUP4 SUB DUP2 DUP7 DUP1 EXTCODESIZE ISZERO DUP1 ISZERO PUSH2 0x442 JUMPI PUSH1 0x0 DUP1 REVERT JUMPDEST POP GAS DELEGATECALL ISZERO DUP1 ISZERO PUSH2 0x456 JUMPI RETURNDATASIZE PUSH1 0x0 DUP1 RETURNDATACOPY RETURNDATASIZE PUSH1 0x0 REVERT JUMPDEST POP POP POP POP PUSH1 0x40 MLOAD RETURNDATASIZE PUSH1 0x1F NOT PUSH1 0x1F DUP3 ADD AND DUP3 ADD DUP1 PUSH1 0x40 MSTORE POP DUP2 ADD SWAP1 PUSH2 0x47A SWAP2 SWAP1 PUSH2 0xA10 JUMP JUMPDEST SWAP1 POP DUP7 DUP11 PUSH2 0x488 DUP3 DUP5 PUSH2 0xBDD JUMP JUMPDEST PUSH2 0x492 SWAP2 SWAP1 PUSH2 0xC15 JUMP JUMPDEST PUSH2 0x49C SWAP2 SWAP1 PUSH2 0xBF5 JUMP JUMPDEST SWAP2 POP PUSH2 0x4A8 DUP11 DUP8 PUSH2 0x6F4 JUMP JUMPDEST SWAP3 POP PUSH2 0x21F DUP3 DUP5 PUSH2 0xBDD JUMP JUMPDEST PUSH1 0x0 DUP2 PUSH1 0x1 PUSH1 0x1 PUSH1 0xA0 SHL SUB AND PUSH4 0x18F88E5B PUSH1 0x40 MLOAD DUP2 PUSH4 0xFFFFFFFF AND PUSH1 0xE0 SHL DUP2 MSTORE PUSH1 0x4 ADD PUSH1 0x20 PUSH1 0x40 MLOAD DUP1 DUP4 SUB DUP2 DUP7 DUP1 EXTCODESIZE ISZERO DUP1 ISZERO PUSH2 0x4EF JUMPI PUSH1 0x0 DUP1 REVERT JUMPDEST POP GAS STATICCALL ISZERO DUP1 ISZERO PUSH2 0x503 JUMPI RETURNDATASIZE PUSH1 0x0 DUP1 RETURNDATACOPY RETURNDATASIZE PUSH1 0x0 REVERT JUMPDEST POP POP POP POP PUSH1 0x40 MLOAD RETURNDATASIZE PUSH1 0x1F NOT PUSH1 0x1F DUP3 ADD AND DUP3 ADD DUP1 PUSH1 0x40 MSTORE POP DUP2 ADD SWAP1 PUSH2 0x527 SWAP2 SWAP1 PUSH2 0xA10 JUMP JUMPDEST SWAP1 POP PUSH1 0x0 PUSH2 0x535 DUP6 DUP6 PUSH2 0x22F JUMP JUMPDEST SWAP1 POP PUSH4 0xEE6B2800 DUP2 GT ISZERO PUSH2 0x5E3 JUMPI DUP3 PUSH1 0x1 PUSH1 0x1 PUSH1 0xA0 SHL SUB AND PUSH4 0x6C321C8A PUSH1 0x40 MLOAD DUP2 PUSH4 0xFFFFFFFF AND PUSH1 0xE0 SHL DUP2 MSTORE PUSH1 0x4 ADD PUSH1 0x20 PUSH1 0x40 MLOAD DUP1 DUP4 SUB DUP2 DUP7 DUP1 EXTCODESIZE ISZERO DUP1 ISZERO PUSH2 0x57C JUMPI PUSH1 0x0 DUP1 REVERT JUMPDEST POP GAS STATICCALL ISZERO DUP1 ISZERO PUSH2 0x590 JUMPI RETURNDATASIZE PUSH1 0x0 DUP1 RETURNDATACOPY RETURNDATASIZE PUSH1 0x0 REVERT JUMPDEST POP POP POP POP PUSH1 0x40 MLOAD RETURNDATASIZE PUSH1 0x1F NOT PUSH1 0x1F DUP3 ADD AND DUP3 ADD DUP1 PUSH1 0x40 MSTORE POP DUP2 ADD SWAP1 PUSH2 0x5B4 SWAP2 SWAP1 PUSH2 0xA10 JUMP JUMPDEST PUSH2 0x5C2 PUSH4 0xEE6B2800 DUP4 PUSH2 0xC34 JUMP JUMPDEST PUSH2 0x5CC SWAP1 DUP5 PUSH2 0xC15 JUMP JUMPDEST PUSH2 0x5D6 SWAP2 SWAP1 PUSH2 0xBF5 JUMP JUMPDEST PUSH2 0x5E0 SWAP1 DUP4 PUSH2 0xBDD JUMP JUMPDEST SWAP2 POP JUMPDEST POP SWAP4 SWAP3 POP POP POP JUMP JUMPDEST PUSH1 0x0 DUP1 PUSH1 0x0 PUSH2 0x5FD DUP9 DUP6 DUP8 DUP11 DUP11 PUSH2 0x847 JUMP JUMPDEST SWAP1 POP PUSH2 0x60D DUP9 PUSH1 0x20 ADD MLOAD DUP7 PUSH2 0x6F4 JUMP JUMPDEST SWAP2 POP PUSH2 0x619 DUP2 DUP4 PUSH2 0xBDD JUMP JUMPDEST SWAP3 POP SWAP6 POP SWAP6 POP SWAP6 SWAP3 POP POP POP JUMP JUMPDEST PUSH1 0x0 DUP1 PUSH1 0x0 DUP1 PUSH20 0x0 PUSH4 0x2C607C3B PUSH2 0x651 DUP13 DUP9 DUP11 PUSH2 0x4B4 JUMP JUMPDEST DUP12 DUP11 DUP16 PUSH1 0x2 DUP15 PUSH1 0x2 DUP2 GT ISZERO PUSH2 0x676 JUMPI PUSH4 0x4E487B71 PUSH1 0xE0 SHL PUSH1 0x0 MSTORE PUSH1 0x21 PUSH1 0x4 MSTORE PUSH1 0x24 PUSH1 0x0 REVERT JUMPDEST EQ PUSH1 0x40 MLOAD DUP7 PUSH4 0xFFFFFFFF AND PUSH1 0xE0 SHL DUP2 MSTORE PUSH1 0x4 ADD PUSH2 0x697 SWAP6 SWAP5 SWAP4 SWAP3 SWAP2 SWAP1 PUSH2 0xB8C JUMP JUMPDEST PUSH1 0x20 PUSH1 0x40 MLOAD DUP1 DUP4 SUB DUP2 DUP7 DUP1 EXTCODESIZE ISZERO DUP1 ISZERO PUSH2 0x6AF JUMPI PUSH1 0x0 DUP1 REVERT JUMPDEST POP GAS DELEGATECALL ISZERO DUP1 ISZERO PUSH2 0x6C3 JUMPI RETURNDATASIZE PUSH1 0x0 DUP1 RETURNDATACOPY RETURNDATASIZE PUSH1 0x0 REVERT JUMPDEST POP POP POP POP PUSH1 0x40 MLOAD RETURNDATASIZE PUSH1 0x1F NOT PUSH1 0x1F DUP3 ADD AND DUP3 ADD DUP1 PUSH1 0x40 MSTORE POP DUP2 ADD SWAP1 PUSH2 0x6E7 SWAP2 SWAP1 PUSH2 0xA10 JUMP JUMPDEST SWAP1 POP DUP7 PUSH2 0x492 DUP12 DUP4 PUSH2 0xC15 JUMP JUMPDEST PUSH1 0x0 PUSH1 0x64 DUP3 PUSH1 0x1 PUSH1 0x1 PUSH1 0xA0 SHL SUB AND PUSH4 0xF3FA3495 PUSH1 0x40 MLOAD DUP2 PUSH4 0xFFFFFFFF AND PUSH1 0xE0 SHL DUP2 MSTORE PUSH1 0x4 ADD PUSH1 0x20 PUSH1 0x40 MLOAD DUP1 DUP4 SUB DUP2 DUP7 DUP1 EXTCODESIZE ISZERO DUP1 ISZERO PUSH2 0x731 JUMPI PUSH1 0x0 DUP1 REVERT JUMPDEST POP GAS STATICCALL ISZERO DUP1 ISZERO PUSH2 0x745 JUMPI RETURNDATASIZE PUSH1 0x0 DUP1 RETURNDATACOPY RETURNDATASIZE PUSH1 0x0 REVERT JUMPDEST POP POP POP POP PUSH1 0x40 MLOAD RETURNDATASIZE PUSH1 0x1F NOT PUSH1 0x1F DUP3 ADD AND DUP3 ADD DUP1 PUSH1 0x40 MSTORE POP DUP2 ADD SWAP1 PUSH2 0x769 SWAP2 SWAP1 PUSH2 0xA10 JUMP JUMPDEST PUSH2 0x773 SWAP1 DUP6 PUSH2 0xC15 JUMP JUMPDEST PUSH2 0x77D SWAP2 SWAP1 PUSH2 0xBF5 JUMP JUMPDEST SWAP4 SWAP3 POP POP POP JUMP JUMPDEST PUSH1 0x0 DUP1 PUSH20 0x0 PUSH4 0xD573D615 PUSH2 0x7AC DUP13 DUP13 DUP13 PUSH2 0x4B4 JUMP JUMPDEST DUP10 DUP9 DUP11 DUP10 DUP10 PUSH1 0x40 MLOAD DUP8 PUSH4 0xFFFFFFFF AND PUSH1 0xE0 SHL DUP2 MSTORE PUSH1 0x4 ADD PUSH2 0x7D2 SWAP7 SWAP6 SWAP5 SWAP4 SWAP3 SWAP2 SWAP1 PUSH2 0xBB1 JUMP JUMPDEST PUSH1 0x20 PUSH1 0x40 MLOAD DUP1 DUP4 SUB DUP2 DUP7 DUP1 EXTCODESIZE ISZERO DUP1 ISZERO PUSH2 0x7EA JUMPI PUSH1 0x0 DUP1 REVERT JUMPDEST POP GAS DELEGATECALL ISZERO DUP1 ISZERO PUSH2 0x7FE JUMPI RETURNDATASIZE PUSH1 0x0 DUP1 RETURNDATACOPY RETURNDATASIZE PUSH1 0x0 REVERT JUMPDEST POP POP POP POP PUSH1 0x40 MLOAD RETURNDATASIZE PUSH1 0x1F NOT PUSH1 0x1F DUP3 ADD AND DUP3 ADD DUP1 PUSH1 0x40 MSTORE POP DUP2 ADD SWAP1 PUSH2 0x822 SWAP2 SWAP1 PUSH2 0xA10 JUMP JUMPDEST SWAP1 POP DUP5 PUSH2 0x82F DUP12 DUP4 PUSH2 0xC15 JUMP JUMPDEST PUSH2 0x839 SWAP2 SWAP1 PUSH2 0xBF5 JUMP JUMPDEST SWAP11 SWAP10 POP POP POP POP POP POP POP POP POP POP JUMP JUMPDEST PUSH1 0x0 DUP1 PUSH20 0x0 PUSH4 0xD573D615 PUSH2 0x873 DUP10 PUSH1 0x20 ADD MLOAD DUP10 DUP10 PUSH2 0x4B4 JUMP JUMPDEST PUSH1 0x40 DUP1 DUP12 ADD MLOAD DUP12 MLOAD PUSH1 0x60 DUP14 ADD MLOAD PUSH1 0x80 DUP15 ADD MLOAD SWAP4 MLOAD PUSH1 0x1 PUSH1 0x1 PUSH1 0xE0 SHL SUB NOT PUSH1 0xE0 DUP9 SWAP1 SHL AND DUP2 MSTORE PUSH2 0x8A9 SWAP6 SWAP5 DUP12 SWAP4 SWAP3 SWAP2 PUSH1 0x4 ADD PUSH2 0xBB1 JUMP JUMPDEST PUSH1 0x20 PUSH1 0x40 MLOAD DUP1 DUP4 SUB DUP2 DUP7 DUP1 EXTCODESIZE ISZERO DUP1 ISZERO PUSH2 0x8C1 JUMPI PUSH1 0x0 DUP1 REVERT JUMPDEST POP GAS DELEGATECALL ISZERO DUP1 ISZERO PUSH2 0x8D5 JUMPI RETURNDATASIZE PUSH1 0x0 DUP1 RETURNDATACOPY RETURNDATASIZE PUSH1 0x0 REVERT JUMPDEST POP POP POP POP PUSH1 0x40 MLOAD RETURNDATASIZE PUSH1 0x1F NOT PUSH1 0x1F DUP3 ADD AND DUP3 ADD DUP1 PUSH1 0x40 MSTORE POP DUP2 ADD SWAP1 PUSH2 0x8F9 SWAP2 SWAP1 PUSH2 0xA10 JUMP JUMPDEST SWAP1 POP PUSH4 0x5F5E100 DUP8 PUSH1 0x20 ADD MLOAD DUP3 PUSH2 0x910 SWAP2 SWAP1 PUSH2 0xC15 JUMP JUMPDEST PUSH2 0x91A SWAP2 SWAP1 PUSH2 0xBF5 JUMP JUMPDEST SWAP8 SWAP7 POP POP POP POP POP POP POP JUMP JUMPDEST DUP1 CALLDATALOAD DUP1 ISZERO ISZERO DUP2 EQ PUSH2 0x935 JUMPI PUSH1 0x0 DUP1 REVERT JUMPDEST SWAP2 SWAP1 POP JUMP JUMPDEST DUP1 CALLDATALOAD PUSH2 0x935 DUP2 PUSH2 0xC61 JUMP JUMPDEST PUSH1 0x0 DUP1 PUSH1 0x0 DUP1 PUSH1 0x0 DUP6 DUP8 SUB PUSH2 0x120 DUP2 SLT ISZERO PUSH2 0x95E JUMPI DUP2 DUP3 REVERT JUMPDEST PUSH1 0xA0 DUP2 SLT ISZERO PUSH2 0x96B JUMPI DUP2 DUP3 REVERT JUMPDEST POP PUSH1 0x40 MLOAD PUSH1 0xA0 DUP2 ADD PUSH1 0x1 PUSH1 0x1 PUSH1 0x40 SHL SUB DUP2 GT DUP3 DUP3 LT OR ISZERO PUSH2 0x99A JUMPI PUSH4 0x4E487B71 PUSH1 0xE0 SHL DUP4 MSTORE PUSH1 0x41 PUSH1 0x4 MSTORE PUSH1 0x24 DUP4 REVERT JUMPDEST DUP1 PUSH1 0x40 MSTORE POP DUP7 CALLDATALOAD DUP2 MSTORE PUSH1 0x20 DUP8 ADD CALLDATALOAD PUSH1 0x20 DUP3 ADD MSTORE PUSH1 0x40 DUP8 ADD CALLDATALOAD PUSH1 0x40 DUP3 ADD MSTORE PUSH2 0x9C3 PUSH1 0x60 DUP9 ADD PUSH2 0x925 JUMP JUMPDEST PUSH1 0x60 DUP3 ADD MSTORE PUSH2 0x9D4 PUSH1 0x80 DUP9 ADD PUSH2 0x925 JUMP JUMPDEST PUSH1 0x80 DUP3 ADD MSTORE SWAP5 POP PUSH1 0xA0 DUP7 ADD CALLDATALOAD SWAP4 POP PUSH1 0xC0 DUP7 ADD CALLDATALOAD SWAP3 POP PUSH2 0x9F5 PUSH1 0xE0 DUP8 ADD PUSH2 0x93A JUMP JUMPDEST SWAP2 POP PUSH2 0xA04 PUSH2 0x100 DUP8 ADD PUSH2 0x93A JUMP JUMPDEST SWAP1 POP SWAP3 SWAP6 POP SWAP3 SWAP6 SWAP1 SWAP4 POP JUMP JUMPDEST PUSH1 0x0 PUSH1 0x20 DUP3 DUP5 SUB SLT ISZERO PUSH2 0xA21 JUMPI DUP1 DUP2 REVERT JUMPDEST POP MLOAD SWAP2 SWAP1 POP JUMP JUMPDEST PUSH1 0x0 DUP1 PUSH1 0x40 DUP4 DUP6 SUB SLT ISZERO PUSH2 0xA3A JUMPI DUP2 DUP3 REVERT JUMPDEST DUP3 CALLDATALOAD SWAP2 POP PUSH1 0x20 DUP4 ADD CALLDATALOAD PUSH2 0xA4C DUP2 PUSH2 0xC61 JUMP JUMPDEST DUP1 SWAP2 POP POP SWAP3 POP SWAP3 SWAP1 POP JUMP JUMPDEST PUSH1 0x0 DUP1 PUSH1 0x0 PUSH1 0x60 DUP5 DUP7 SUB SLT ISZERO PUSH2 0xA6B JUMPI DUP3 DUP4 REVERT JUMPDEST DUP4 CALLDATALOAD SWAP3 POP PUSH1 0x20 DUP5 ADD CALLDATALOAD PUSH2 0xA7D DUP2 PUSH2 0xC61 JUMP JUMPDEST SWAP2 POP PUSH1 0x40 DUP5 ADD CALLDATALOAD PUSH2 0xA8D DUP2 PUSH2 0xC61 JUMP JUMPDEST DUP1 SWAP2 POP POP SWAP3 POP SWAP3 POP SWAP3 JUMP JUMPDEST PUSH1 0x0 DUP1 PUSH1 0x0 DUP1 PUSH1 0x0 DUP1 PUSH1 0x0 DUP1 PUSH2 0x100 DUP10 DUP12 SUB SLT ISZERO PUSH2 0xAB4 JUMPI DUP3 DUP4 REVERT JUMPDEST DUP9 CALLDATALOAD SWAP8 POP PUSH1 0x20 DUP10 ADD CALLDATALOAD SWAP7 POP PUSH1 0x40 DUP10 ADD CALLDATALOAD SWAP6 POP PUSH2 0xAD2 PUSH1 0x60 DUP11 ADD PUSH2 0x925 JUMP JUMPDEST SWAP5 POP PUSH2 0xAE0 PUSH1 0x80 DUP11 ADD PUSH2 0x925 JUMP JUMPDEST SWAP4 POP PUSH1 0xA0 DUP10 ADD CALLDATALOAD SWAP3 POP PUSH1 0xC0 DUP10 ADD CALLDATALOAD PUSH2 0xAF7 DUP2 PUSH2 0xC61 JUMP JUMPDEST SWAP2 POP PUSH1 0xE0 DUP10 ADD CALLDATALOAD PUSH2 0xB07 DUP2 PUSH2 0xC61 JUMP JUMPDEST DUP1 SWAP2 POP POP SWAP3 SWAP6 SWAP9 POP SWAP3 SWAP6 SWAP9 SWAP1 SWAP4 SWAP7 POP JUMP JUMPDEST PUSH1 0x0 DUP1 PUSH1 0x0 DUP1 PUSH1 0x0 DUP1 PUSH1 0x0 PUSH1 0xE0 DUP9 DUP11 SUB SLT ISZERO PUSH2 0xB32 JUMPI DUP3 DUP4 REVERT JUMPDEST DUP8 CALLDATALOAD SWAP7 POP PUSH1 0x20 DUP9 ADD CALLDATALOAD SWAP6 POP PUSH1 0x40 DUP9 ADD CALLDATALOAD SWAP5 POP PUSH1 0x60 DUP9 ADD CALLDATALOAD PUSH1 0x3 DUP2 LT PUSH2 0xB55 JUMPI DUP4 DUP5 REVERT JUMPDEST SWAP4 POP PUSH1 0x80 DUP9 ADD CALLDATALOAD SWAP3 POP PUSH1 0xA0 DUP9 ADD CALLDATALOAD PUSH2 0xB6C DUP2 PUSH2 0xC61 JUMP JUMPDEST SWAP2 POP PUSH1 0xC0 DUP9 ADD CALLDATALOAD PUSH2 0xB7C DUP2 PUSH2 0xC61 JUMP JUMPDEST DUP1 SWAP2 POP POP SWAP3 SWAP6 SWAP9 SWAP2 SWAP5 SWAP8 POP SWAP3 SWAP6 POP JUMP JUMPDEST SWAP5 DUP6 MSTORE PUSH1 0x20 DUP6 ADD SWAP4 SWAP1 SWAP4 MSTORE PUSH1 0x40 DUP5 ADD SWAP2 SWAP1 SWAP2 MSTORE PUSH1 0x60 DUP4 ADD MSTORE ISZERO ISZERO PUSH1 0x80 DUP3 ADD MSTORE PUSH1 0xA0 ADD SWAP1 JUMP JUMPDEST SWAP6 DUP7 MSTORE PUSH1 0x20 DUP7 ADD SWAP5 SWAP1 SWAP5 MSTORE PUSH1 0x40 DUP6 ADD SWAP3 SWAP1 SWAP3 MSTORE PUSH1 0x60 DUP5 ADD MSTORE ISZERO ISZERO PUSH1 0x80 DUP4 ADD MSTORE ISZERO ISZERO PUSH1 0xA0 DUP3 ADD MSTORE PUSH1 0xC0 ADD SWAP1 JUMP JUMPDEST PUSH1 0x0 DUP3 NOT DUP3 GT ISZERO PUSH2 0xBF0 JUMPI PUSH2 0xBF0 PUSH2 0xC4B JUMP JUMPDEST POP ADD SWAP1 JUMP JUMPDEST PUSH1 0x0 DUP3 PUSH2 0xC10 JUMPI PUSH4 0x4E487B71 PUSH1 0xE0 SHL DUP2 MSTORE PUSH1 0x12 PUSH1 0x4 MSTORE PUSH1 0x24 DUP2 REVERT JUMPDEST POP DIV SWAP1 JUMP JUMPDEST PUSH1 0x0 DUP2 PUSH1 0x0 NOT DIV DUP4 GT DUP3 ISZERO ISZERO AND ISZERO PUSH2 0xC2F JUMPI PUSH2 0xC2F PUSH2 0xC4B JUMP JUMPDEST POP MUL SWAP1 JUMP JUMPDEST PUSH1 0x0 DUP3 DUP3 LT ISZERO PUSH2 0xC46 JUMPI PUSH2 0xC46 PUSH2 0xC4B JUMP JUMPDEST POP SUB SWAP1 JUMP JUMPDEST PUSH4 0x4E487B71 PUSH1 0xE0 SHL PUSH1 0x0 MSTORE PUSH1 0x11 PUSH1 0x4 MSTORE PUSH1 0x24 PUSH1 0x0 REVERT JUMPDEST PUSH1 0x1 PUSH1 0x1 PUSH1 0xA0 SHL SUB DUP2 AND DUP2 EQ PUSH2 0xC76 JUMPI PUSH1 0x0 DUP1 REVERT JUMPDEST POP JUMP INVALID LOG2 PUSH5 0x6970667358 0x22 SLT KECCAK256 RETURNDATASIZE SWAP5 0xEF 0xEB 0xEE 0x22 0xBD 0xDA 0xAC MLOAD SSTORE 0x5D NOT MULMOD 0xC2 0x2B RETURNDATASIZE 0xEC SWAP1 SELFBALANCE 0xBA 0xD6 0x4E PUSH19 0x19ED23B48CD881CD64736F6C63430008040033 ","sha1":"f9beb09cec40ba559ab871cf84e3fa575bfc981d","source":"// SPDX-License-Identifier: BUSL-1.1\n\npragma solidity ^0.8.0;\n\n/**\n * Smart contract library of mathematical functions operating with signed\n * 64.64-bit fixed point numbers.  Signed 64.64-bit fixed point number is\n * basically a simple fraction whose numerator is signed 128-bit integer and\n * denominator is 2^64.  As long as denominator is always the same, there is no\n * need to store it, thus in Solidity signed 64.64-bit fixed point numbers are\n * represented by int128 type holding only the numerator.\n */\nimport \"../Libraries/OptionMath.sol\";\nimport \"../OptionsUtils/OptionConfigUnintialized.sol\";\nimport \"../Interfaces/Interfaces.sol\";\nimport \"../Pool/BufferEpocPoolV2Unintialized.sol\";\n\nlibrary FeeCalculator {\n    /**\n     * @notice Calculate the current Utilisation\n     * @param amount Option amount\n     * @param pool The pool selling the option\n     * @return utilization Current utilization\n     */\n    function getNewUtilisation(\n        uint256 amount,\n        BufferEpocPoolV2Unintialized pool\n    ) public view returns (uint256 utilization) {\n        uint256 poolBalance = pool.totalTokenXBalance();\n        require(poolBalance > 0, \"O8\");\n\n        utilization = ((pool.lockedAmount() + amount) * 100e8) / poolBalance;\n    }\n\n    /**\n     * @notice Calculate the Utilisation adjusted ImpliedVol for the pool according to https://www.desmos.com/calculator/xdmhn97opd\n     * @param amount Option amount\n     * @param pool The pool selling the option\n     * @param config The option configuration\n     * @return iv The adjusted ImpliedVol\n     */\n    function currentImpliedVolatility(\n        uint256 amount,\n        BufferEpocPoolV2Unintialized pool,\n        OptionConfigUnintialized config\n    ) public view returns (uint256 iv) {\n        iv = config.impliedVolRate();\n        uint256 utilization = getNewUtilisation(amount, pool);\n        if (utilization > 40e8) {\n            iv += (iv * (utilization - 40e8)) / config.utilizationRate();\n        }\n    }\n\n    /**\n     * @notice Used for getting the price for Options in tokenX\n     * @param period Option period in seconds (1 days <= period <= 4 weeks)\n     * @param amount Option amount\n     * @param strike Strike price of the option\n     * @param optionType Type of the Option\n     * @param currentPrice Current price of the underlying asset\n     * @param config The option configuration\n     * @param pool The pool selling the option\n     * @return total Total price to be paid\n     * @return settlementFee Amount to be distributed to the Buffer token holders\n     * @return premium Amount that covers the price difference in the ITM options\n     */\n    function fees(\n        uint256 period,\n        uint256 amount,\n        uint256 strike,\n        IBufferOptions.OptionType optionType,\n        uint256 currentPrice,\n        OptionConfigUnintialized config,\n        BufferEpocPoolV2Unintialized pool\n    )\n        public\n        view\n        returns (\n            uint256 total,\n            uint256 settlementFee,\n            uint256 premium\n        )\n    {\n        // usdPremium per amount is USD Price of the option in 1e8\n        uint256 usdPremium = OptionMath.blackScholesPrice(\n            currentImpliedVolatility(amount, pool, config),\n            strike,\n            currentPrice,\n            period,\n            optionType == IBufferOptions.OptionType.Call\n        );\n        premium = (usdPremium * amount) / currentPrice;\n        settlementFee = getSettlementFee(amount, config);\n        total = settlementFee + premium;\n    }\n\n    /**\n     * @notice Used for getting the price for Options in tokenX\n     * @param period Option period in seconds (1 days <= period <= 4 weeks)\n     * @param amount Option amount\n     * @param strike Strike price of the option\n     * @param optionType Type of the Option\n     * @param currentPrice Current price of the underlying asset\n     * @param config The option configuration\n     * @param pool The pool selling the option\n     * @return total Total price to be paid\n     * @return settlementFee Amount to be distributed to the Buffer token holders\n     * @return premium Amount that covers the price difference in the ITM options\n     */\n    function feesSuccessOptions(\n        uint256 period,\n        uint256 amount,\n        uint256 strike,\n        IBufferOptions.OptionType optionType,\n        uint256 currentPrice,\n        OptionConfigUnintialized config,\n        BufferEpocPoolV2Unintialized pool\n    )\n        public\n        view\n        returns (\n            uint256 total,\n            uint256 settlementFee,\n            uint256 premium\n        )\n    {\n        // usdPremium per amount is USD Price of the option in 1e8\n        uint256 usdPremium = OptionMath.blackScholesPrice(\n            currentImpliedVolatility(amount, pool, config),\n            strike,\n            currentPrice,\n            period,\n            optionType == IBufferOptions.OptionType.Call\n        );\n        premium = ((usdPremium + currentPrice) * amount) / currentPrice;\n        settlementFee = getSettlementFee(amount, config);\n        total = settlementFee + premium;\n    }\n\n    /**\n     * @notice Used for getting the price for Options in USD\n     * @param period Option period in seconds (1 days <= period <= 4 weeks)\n     * @param amount Option amount\n     * @param strike Strike price of the option\n     * @param optionType Type of the Option\n     * @param currentPrice Current price of the underlying asset\n     * @param config The option configuration\n     * @param pool The pool selling the option\n     * @return total Total price to be paid in USD\n     * @return settlementFee Amount to be distributed to the Buffer token holders in USD\n     * @return premium Amount that covers the price difference in the ITM options in USD\n     */\n    function feesUsd(\n        uint256 period,\n        uint256 amount,\n        uint256 strike,\n        IBufferOptions.OptionType optionType,\n        uint256 currentPrice,\n        OptionConfigUnintialized config,\n        BufferEpocPoolV2Unintialized pool\n    )\n        public\n        view\n        returns (\n            uint256 total,\n            uint256 settlementFee,\n            uint256 premium\n        )\n    {\n        // usdPremium per asset amount is USD Price of the option in 1e8\n        uint256 usdPremium = OptionMath.blackScholesPrice(\n            currentImpliedVolatility(amount, pool, config),\n            strike,\n            currentPrice,\n            period,\n            optionType == IBufferOptions.OptionType.Call\n        );\n        settlementFee = getSettlementFee(amount, config);\n        premium = (usdPremium * amount) / currentPrice;\n        total = settlementFee + premium;\n    }\n\n    /**\n     * @notice Used for getting the price for Binary Options\n     * @param period Option period in seconds (1 days <= period <= 4 weeks)\n     * @param amount Option amount\n     * @param strike Strike price of the option\n     * @param isYes whether the option isAbove or not\n     * @param isAbove whether the price will stay above this strike or not\n     * @param currentPrice Current price of the underlying asset\n     * @param config The option configuration\n     * @param pool The pool selling the option\n     * @return total Total price to be paid\n     * @return settlementFee Amount to be distributed to the Buffer token holders\n     * @return premium Amount that covers the price difference in the ITM options\n     */\n    function feesBinary(\n        uint256 period,\n        uint256 amount,\n        uint256 strike,\n        bool isYes,\n        bool isAbove,\n        uint256 currentPrice,\n        OptionConfigUnintialized config,\n        BufferEpocPoolV2Unintialized pool\n    )\n        external\n        view\n        returns (\n            uint256 total,\n            uint256 settlementFee,\n            uint256 premium\n        )\n    {\n        premium = getPremium(\n            amount,\n            pool,\n            config,\n            strike,\n            period,\n            currentPrice,\n            isYes,\n            isAbove\n        );\n        settlementFee = getSettlementFee(amount, config);\n        total = settlementFee + premium;\n    }\n\n    /**\n     * @notice Used for getting the price for Binary KPI Options\n     * @param optionDetails Details of the option to be priced\n     * @param currentPrice Current price of the tokenX\n     * @param KPI KPI value for option\n     * @param config Option config\n     * @param pool pool contract\n     * @return total Total price to be paid\n     * @return settlementFee Amount to be distributed to the Buffer token holders\n     * @return premium Amount that covers the price difference in the ITM options\n     */\n    function feesKPIBinary(\n        IBufferOptions.OptionDetails memory optionDetails,\n        uint256 currentPrice,\n        uint256 KPI,\n        OptionConfigUnintialized config,\n        BufferEpocPoolV2Unintialized pool\n    )\n        external\n        view\n        returns (\n            uint256 total,\n            uint256 settlementFee,\n            uint256 premium\n        )\n    {\n        premium = getPremiumBinary(\n            optionDetails,\n            pool,\n            config,\n            currentPrice,\n            KPI\n        );\n        settlementFee = getSettlementFee(optionDetails.amount, config);\n        total = settlementFee + premium;\n    }\n\n    /**\n     * @notice Calculates settlementFee\n     * @param amount Option amount\n     * @return fee Settlement fee amount\n     */\n    function getSettlementFee(uint256 amount, OptionConfigUnintialized config)\n        internal\n        view\n        returns (uint256 fee)\n    {\n        return (amount * config.settlementFeePercentage()) / 100;\n    }\n\n    function getPremium(\n        uint256 amount,\n        BufferEpocPoolV2Unintialized pool,\n        OptionConfigUnintialized config,\n        uint256 strike,\n        uint256 period,\n        uint256 currentPrice,\n        bool isYes,\n        bool isAbove\n    ) internal view returns (uint256 premium) {\n        // usdPremium per amount is USD Price of the option in 1e8\n        uint256 usdPremium = OptionMath.blackScholesPriceBinary(\n            currentImpliedVolatility(amount, pool, config),\n            strike,\n            currentPrice,\n            period,\n            isYes,\n            isAbove\n        );\n        premium = (usdPremium * amount) / currentPrice;\n    }\n\n    function getPremiumBinary(\n        IBufferOptions.OptionDetails memory optionDetails,\n        BufferEpocPoolV2Unintialized pool,\n        OptionConfigUnintialized config,\n        uint256 currentPrice,\n        uint256 KPI\n    ) internal view returns (uint256 premium) {\n        // TODO : check unit\n        // usdPremium per amount is USD Price of the option in 1e8\n        uint256 usdPremium = OptionMath.blackScholesPriceBinary(\n            currentImpliedVolatility(optionDetails.amount, pool, config),\n            optionDetails.strike,\n            KPI,\n            optionDetails.period,\n            optionDetails.isYes,\n            optionDetails.isAbove\n        );\n        premium = (usdPremium * optionDetails.amount) / 1e8;\n    }\n}\n","sourcePath":"contracts/Libraries/OptionFeeCalculator.sol","deployment":{"address":"0xAab23a633b9254B87833f3CdbEF1308E90244acA","chainid":"97","blockHeight":20383075}}