{"bytecode":"6106e361003a600b82828239805160001a60731461002d57634e487b7160e01b600052600060045260246000fd5b30600052607381538281f3fe73000000000000000000000000000000000000000030146080604052600436106100775760003560e01c806325f39a631461007c5780636b300f51146100a75780636e3daae4146100ba57806399adc78a146100cd578063a7f7d0d0146100f7578063b697214614610122578063fc505d3714610135575b600080fd5b61008f61008a366004610642565b610148565b604051600f9190910b81526020015b60405180910390f35b61008f6100b5366004610674565b6101b6565b61008f6100c8366004610628565b6101e7565b6100e46100db366004610628565b600f0b60401d90565b60405160079190910b815260200161009e565b61010a610105366004610628565b61020f565b6040516001600160401b03909116815260200161009e565b61008f610130366004610642565b61022b565b61008f61014336600461068c565b610261565b600081600f0b6000141561015b57600080fd5b600082600f0b604085600f0b901b8161018457634e487b7160e01b600052601260045260246000fd5b05905060016001607f1b031981128015906101a6575060016001607f1b038113155b6101af57600080fd5b9392505050565b600060016001603f1b031982121580156101d7575060016001603f1b038213155b6101e057600080fd5b5060401b90565b60008082600f0b12156101f957600080fd5b610209604083600f0b901b610298565b92915050565b60008082600f0b121561022157600080fd5b50600f0b60401d90565b6000600f83810b9083900b0260401d60016001607f1b031981128015906101a6575060016001607f1b038113156101af57600080fd5b60008161026d57600080fd5b6000610279848461047d565b905060016001607f1b036001600160801b03821611156101af57600080fd5b6000816102a757506000919050565b816001600160801b82106102c05760809190911c9060401b5b600160401b82106102d65760409190911c9060201b5b600160201b82106102ec5760209190911c9060101b5b6201000082106103015760109190911c9060081b5b61010082106103155760089190911c9060041b5b601082106103285760049190911c9060021b5b600882106103345760011b5b600181858161035357634e487b7160e01b600052601260045260246000fd5b048201901c9050600181858161037957634e487b7160e01b600052601260045260246000fd5b048201901c9050600181858161039f57634e487b7160e01b600052601260045260246000fd5b048201901c905060018185816103c557634e487b7160e01b600052601260045260246000fd5b048201901c905060018185816103eb57634e487b7160e01b600052601260045260246000fd5b048201901c9050600181858161041157634e487b7160e01b600052601260045260246000fd5b048201901c9050600181858161043757634e487b7160e01b600052601260045260246000fd5b048201901c9050600081858161045d57634e487b7160e01b600052601260045260246000fd5b04905080821061046d578061046f565b815b95945050505050565b919050565b60008161048957600080fd5b60006001600160c01b0384116104c25782604085901b816104ba57634e487b7160e01b600052601260045260246000fd5b049050610602565b60c084811c600160201b81106104da576020918201911c5b6201000081106104ec576010918201911c5b61010081106104fd576008918201911c5b6010811061050d576004918201911c5b6004811061051d576002918201911c5b6002811061052c576001820191505b60bf820360018603901c6001018260ff0387901b8161055b57634e487b7160e01b600052601260045260246000fd5b0492506001600160801b0383111561057257600080fd5b608085901c83026001600160801b038616840260c088901c604089901b8281101561059e576001820391505b608084901b929003828110156105b5576001820391505b829003608084901c82146105d957634e487b7160e01b600052600160045260246000fd5b8881816105f657634e487b7160e01b600052601260045260246000fd5b04870196505050505050505b6001600160801b038111156101af57600080fd5b8035600f81900b811461047857600080fd5b600060208284031215610639578081fd5b6101af82610616565b60008060408385031215610654578081fd5b61065d83610616565b915061066b60208401610616565b90509250929050565b600060208284031215610685578081fd5b5035919050565b6000806040838503121561069e578182fd5b5050803592602090910135915056fea2646970667358221220d48b35f219a656db8d2b184adf8ff21e2e3e14acd7e1c1e64030604221f06f1064736f6c63430008040033","bytecodeSha1":"4da91cfe389de817df5a66619811b70c643312a7","type":"library","abi":[{"inputs":[{"internalType":"int128","name":"x","type":"int128"},{"internalType":"int128","name":"y","type":"int128"}],"name":"div","outputs":[{"internalType":"int128","name":"","type":"int128"}],"stateMutability":"pure","type":"function"},{"inputs":[{"internalType":"uint256","name":"x","type":"uint256"},{"internalType":"uint256","name":"y","type":"uint256"}],"name":"divu","outputs":[{"internalType":"int128","name":"","type":"int128"}],"stateMutability":"pure","type":"function"},{"inputs":[{"internalType":"int256","name":"x","type":"int256"}],"name":"fromInt","outputs":[{"internalType":"int128","name":"","type":"int128"}],"stateMutability":"pure","type":"function"},{"inputs":[{"internalType":"int128","name":"x","type":"int128"},{"internalType":"int128","name":"y","type":"int128"}],"name":"mul","outputs":[{"internalType":"int128","name":"","type":"int128"}],"stateMutability":"pure","type":"function"},{"inputs":[{"internalType":"int128","name":"x","type":"int128"}],"name":"sqrt","outputs":[{"internalType":"int128","name":"","type":"int128"}],"stateMutability":"pure","type":"function"},{"inputs":[{"internalType":"int128","name":"x","type":"int128"}],"name":"toInt","outputs":[{"internalType":"int64","name":"","type":"int64"}],"stateMutability":"pure","type":"function"},{"inputs":[{"internalType":"int128","name":"x","type":"int128"}],"name":"toUInt","outputs":[{"internalType":"uint64","name":"","type":"uint64"}],"stateMutability":"pure","type":"function"}],"compiler":{"version":"0.8.4+commit.c7e474f2","evm_version":"istanbul","optimizer":{"enabled":true,"runs":1}},"contractName":"ABDKMath64x64","language":"Solidity","natspec":{"methods":{"div(int128,int128)":{"notice":"Calculate x / y rounding towards zero.  Revert on overflow or when y is zero.","params":{"x":"signed 64.64-bit fixed point number","y":"signed 64.64-bit fixed point number"},"returns":{"_0":"signed 64.64-bit fixed point number"}},"divu(uint256,uint256)":{"notice":"Calculate x / y rounding towards zero, where x and y are unsigned 256-bit integer numbers.  Revert on overflow or when y is zero.","params":{"x":"unsigned 256-bit integer number","y":"unsigned 256-bit integer number"},"returns":{"_0":"signed 64.64-bit fixed point number"}},"fromInt(int256)":{"notice":"Convert signed 256-bit integer number into signed 64.64-bit fixed point number.  Revert on overflow.","params":{"x":"signed 256-bit integer number"},"returns":{"_0":"signed 64.64-bit fixed point number"}},"mul(int128,int128)":{"notice":"Calculate x * y rounding down.  Revert on overflow.","params":{"x":"signed 64.64-bit fixed point number","y":"signed 64.64-bit fixed point number"},"returns":{"_0":"signed 64.64-bit fixed point number"}},"sqrt(int128)":{"notice":"Calculate sqrt (x) rounding down.  Revert if x < 0.","params":{"x":"signed 64.64-bit fixed point number"},"returns":{"_0":"signed 64.64-bit fixed point number"}},"toInt(int128)":{"notice":"Convert signed 64.64 fixed point number into signed 64-bit integer number rounding down.","params":{"x":"signed 64.64-bit fixed point number"},"returns":{"_0":"signed 64-bit integer number"}},"toUInt(int128)":{"notice":"Convert signed 64.64 fixed point number into unsigned 64-bit integer number rounding down.  Revert on underflow.","params":{"x":"signed 64.64-bit fixed point number"},"returns":{"_0":"unsigned 64-bit integer number"}}},"kind":"dev","notice":"Smart contract library of mathematical functions operating with signed 64.64-bit fixed point numbers.  Signed 64.64-bit fixed point number is basically a simple fraction whose numerator is signed 128-bit integer and denominator is 2^64.  As long as denominator is always the same, there is no need to store it, thus in Solidity signed 64.64-bit fixed point numbers are represented by int128 type holding only the numerator.","version":1},"opcodes":"PUSH20 0x0 ADDRESS EQ PUSH1 0x80 PUSH1 0x40 MSTORE PUSH1 0x4 CALLDATASIZE LT PUSH2 0x77 JUMPI PUSH1 0x0 CALLDATALOAD PUSH1 0xE0 SHR DUP1 PUSH4 0x25F39A63 EQ PUSH2 0x7C JUMPI DUP1 PUSH4 0x6B300F51 EQ PUSH2 0xA7 JUMPI DUP1 PUSH4 0x6E3DAAE4 EQ PUSH2 0xBA JUMPI DUP1 PUSH4 0x99ADC78A EQ PUSH2 0xCD JUMPI DUP1 PUSH4 0xA7F7D0D0 EQ PUSH2 0xF7 JUMPI DUP1 PUSH4 0xB6972146 EQ PUSH2 0x122 JUMPI DUP1 PUSH4 0xFC505D37 EQ PUSH2 0x135 JUMPI JUMPDEST PUSH1 0x0 DUP1 REVERT JUMPDEST PUSH2 0x8F PUSH2 0x8A CALLDATASIZE PUSH1 0x4 PUSH2 0x642 JUMP JUMPDEST PUSH2 0x148 JUMP JUMPDEST PUSH1 0x40 MLOAD PUSH1 0xF SWAP2 SWAP1 SWAP2 SIGNEXTEND DUP2 MSTORE PUSH1 0x20 ADD JUMPDEST PUSH1 0x40 MLOAD DUP1 SWAP2 SUB SWAP1 RETURN JUMPDEST PUSH2 0x8F PUSH2 0xB5 CALLDATASIZE PUSH1 0x4 PUSH2 0x674 JUMP JUMPDEST PUSH2 0x1B6 JUMP JUMPDEST PUSH2 0x8F PUSH2 0xC8 CALLDATASIZE PUSH1 0x4 PUSH2 0x628 JUMP JUMPDEST PUSH2 0x1E7 JUMP JUMPDEST PUSH2 0xE4 PUSH2 0xDB CALLDATASIZE PUSH1 0x4 PUSH2 0x628 JUMP JUMPDEST PUSH1 0xF SIGNEXTEND PUSH1 0x40 SAR SWAP1 JUMP JUMPDEST PUSH1 0x40 MLOAD PUSH1 0x7 SWAP2 SWAP1 SWAP2 SIGNEXTEND DUP2 MSTORE PUSH1 0x20 ADD PUSH2 0x9E JUMP JUMPDEST PUSH2 0x10A PUSH2 0x105 CALLDATASIZE PUSH1 0x4 PUSH2 0x628 JUMP JUMPDEST PUSH2 0x20F JUMP JUMPDEST PUSH1 0x40 MLOAD PUSH1 0x1 PUSH1 0x1 PUSH1 0x40 SHL SUB SWAP1 SWAP2 AND DUP2 MSTORE PUSH1 0x20 ADD PUSH2 0x9E JUMP JUMPDEST PUSH2 0x8F PUSH2 0x130 CALLDATASIZE PUSH1 0x4 PUSH2 0x642 JUMP JUMPDEST PUSH2 0x22B JUMP JUMPDEST PUSH2 0x8F PUSH2 0x143 CALLDATASIZE PUSH1 0x4 PUSH2 0x68C JUMP JUMPDEST PUSH2 0x261 JUMP JUMPDEST PUSH1 0x0 DUP2 PUSH1 0xF SIGNEXTEND PUSH1 0x0 EQ ISZERO PUSH2 0x15B JUMPI PUSH1 0x0 DUP1 REVERT JUMPDEST PUSH1 0x0 DUP3 PUSH1 0xF SIGNEXTEND PUSH1 0x40 DUP6 PUSH1 0xF SIGNEXTEND SWAP1 SHL DUP2 PUSH2 0x184 JUMPI PUSH4 0x4E487B71 PUSH1 0xE0 SHL PUSH1 0x0 MSTORE PUSH1 0x12 PUSH1 0x4 MSTORE PUSH1 0x24 PUSH1 0x0 REVERT JUMPDEST SDIV SWAP1 POP PUSH1 0x1 PUSH1 0x1 PUSH1 0x7F SHL SUB NOT DUP2 SLT DUP1 ISZERO SWAP1 PUSH2 0x1A6 JUMPI POP PUSH1 0x1 PUSH1 0x1 PUSH1 0x7F SHL SUB DUP2 SGT ISZERO JUMPDEST PUSH2 0x1AF JUMPI PUSH1 0x0 DUP1 REVERT JUMPDEST SWAP4 SWAP3 POP POP POP JUMP JUMPDEST PUSH1 0x0 PUSH1 0x1 PUSH1 0x1 PUSH1 0x3F SHL SUB NOT DUP3 SLT ISZERO DUP1 ISZERO PUSH2 0x1D7 JUMPI POP PUSH1 0x1 PUSH1 0x1 PUSH1 0x3F SHL SUB DUP3 SGT ISZERO JUMPDEST PUSH2 0x1E0 JUMPI PUSH1 0x0 DUP1 REVERT JUMPDEST POP PUSH1 0x40 SHL SWAP1 JUMP JUMPDEST PUSH1 0x0 DUP1 DUP3 PUSH1 0xF SIGNEXTEND SLT ISZERO PUSH2 0x1F9 JUMPI PUSH1 0x0 DUP1 REVERT JUMPDEST PUSH2 0x209 PUSH1 0x40 DUP4 PUSH1 0xF SIGNEXTEND SWAP1 SHL PUSH2 0x298 JUMP JUMPDEST SWAP3 SWAP2 POP POP JUMP JUMPDEST PUSH1 0x0 DUP1 DUP3 PUSH1 0xF SIGNEXTEND SLT ISZERO PUSH2 0x221 JUMPI PUSH1 0x0 DUP1 REVERT JUMPDEST POP PUSH1 0xF SIGNEXTEND PUSH1 0x40 SAR SWAP1 JUMP JUMPDEST PUSH1 0x0 PUSH1 0xF DUP4 DUP2 SIGNEXTEND SWAP1 DUP4 SWAP1 SIGNEXTEND MUL PUSH1 0x40 SAR PUSH1 0x1 PUSH1 0x1 PUSH1 0x7F SHL SUB NOT DUP2 SLT DUP1 ISZERO SWAP1 PUSH2 0x1A6 JUMPI POP PUSH1 0x1 PUSH1 0x1 PUSH1 0x7F SHL SUB DUP2 SGT ISZERO PUSH2 0x1AF JUMPI PUSH1 0x0 DUP1 REVERT JUMPDEST PUSH1 0x0 DUP2 PUSH2 0x26D JUMPI PUSH1 0x0 DUP1 REVERT JUMPDEST PUSH1 0x0 PUSH2 0x279 DUP5 DUP5 PUSH2 0x47D JUMP JUMPDEST SWAP1 POP PUSH1 0x1 PUSH1 0x1 PUSH1 0x7F SHL SUB PUSH1 0x1 PUSH1 0x1 PUSH1 0x80 SHL SUB DUP3 AND GT ISZERO PUSH2 0x1AF JUMPI PUSH1 0x0 DUP1 REVERT JUMPDEST PUSH1 0x0 DUP2 PUSH2 0x2A7 JUMPI POP PUSH1 0x0 SWAP2 SWAP1 POP JUMP JUMPDEST DUP2 PUSH1 0x1 PUSH1 0x1 PUSH1 0x80 SHL DUP3 LT PUSH2 0x2C0 JUMPI PUSH1 0x80 SWAP2 SWAP1 SWAP2 SHR SWAP1 PUSH1 0x40 SHL JUMPDEST PUSH1 0x1 PUSH1 0x40 SHL DUP3 LT PUSH2 0x2D6 JUMPI PUSH1 0x40 SWAP2 SWAP1 SWAP2 SHR SWAP1 PUSH1 0x20 SHL JUMPDEST PUSH1 0x1 PUSH1 0x20 SHL DUP3 LT PUSH2 0x2EC JUMPI PUSH1 0x20 SWAP2 SWAP1 SWAP2 SHR SWAP1 PUSH1 0x10 SHL JUMPDEST PUSH3 0x10000 DUP3 LT PUSH2 0x301 JUMPI PUSH1 0x10 SWAP2 SWAP1 SWAP2 SHR SWAP1 PUSH1 0x8 SHL JUMPDEST PUSH2 0x100 DUP3 LT PUSH2 0x315 JUMPI PUSH1 0x8 SWAP2 SWAP1 SWAP2 SHR SWAP1 PUSH1 0x4 SHL JUMPDEST PUSH1 0x10 DUP3 LT PUSH2 0x328 JUMPI PUSH1 0x4 SWAP2 SWAP1 SWAP2 SHR SWAP1 PUSH1 0x2 SHL JUMPDEST PUSH1 0x8 DUP3 LT PUSH2 0x334 JUMPI PUSH1 0x1 SHL JUMPDEST PUSH1 0x1 DUP2 DUP6 DUP2 PUSH2 0x353 JUMPI PUSH4 0x4E487B71 PUSH1 0xE0 SHL PUSH1 0x0 MSTORE PUSH1 0x12 PUSH1 0x4 MSTORE PUSH1 0x24 PUSH1 0x0 REVERT JUMPDEST DIV DUP3 ADD SWAP1 SHR SWAP1 POP PUSH1 0x1 DUP2 DUP6 DUP2 PUSH2 0x379 JUMPI PUSH4 0x4E487B71 PUSH1 0xE0 SHL PUSH1 0x0 MSTORE PUSH1 0x12 PUSH1 0x4 MSTORE PUSH1 0x24 PUSH1 0x0 REVERT JUMPDEST DIV DUP3 ADD SWAP1 SHR SWAP1 POP PUSH1 0x1 DUP2 DUP6 DUP2 PUSH2 0x39F JUMPI PUSH4 0x4E487B71 PUSH1 0xE0 SHL PUSH1 0x0 MSTORE PUSH1 0x12 PUSH1 0x4 MSTORE PUSH1 0x24 PUSH1 0x0 REVERT JUMPDEST DIV DUP3 ADD SWAP1 SHR SWAP1 POP PUSH1 0x1 DUP2 DUP6 DUP2 PUSH2 0x3C5 JUMPI PUSH4 0x4E487B71 PUSH1 0xE0 SHL PUSH1 0x0 MSTORE PUSH1 0x12 PUSH1 0x4 MSTORE PUSH1 0x24 PUSH1 0x0 REVERT JUMPDEST DIV DUP3 ADD SWAP1 SHR SWAP1 POP PUSH1 0x1 DUP2 DUP6 DUP2 PUSH2 0x3EB JUMPI PUSH4 0x4E487B71 PUSH1 0xE0 SHL PUSH1 0x0 MSTORE PUSH1 0x12 PUSH1 0x4 MSTORE PUSH1 0x24 PUSH1 0x0 REVERT JUMPDEST DIV DUP3 ADD SWAP1 SHR SWAP1 POP PUSH1 0x1 DUP2 DUP6 DUP2 PUSH2 0x411 JUMPI PUSH4 0x4E487B71 PUSH1 0xE0 SHL PUSH1 0x0 MSTORE PUSH1 0x12 PUSH1 0x4 MSTORE PUSH1 0x24 PUSH1 0x0 REVERT JUMPDEST DIV DUP3 ADD SWAP1 SHR SWAP1 POP PUSH1 0x1 DUP2 DUP6 DUP2 PUSH2 0x437 JUMPI PUSH4 0x4E487B71 PUSH1 0xE0 SHL PUSH1 0x0 MSTORE PUSH1 0x12 PUSH1 0x4 MSTORE PUSH1 0x24 PUSH1 0x0 REVERT JUMPDEST DIV DUP3 ADD SWAP1 SHR SWAP1 POP PUSH1 0x0 DUP2 DUP6 DUP2 PUSH2 0x45D JUMPI PUSH4 0x4E487B71 PUSH1 0xE0 SHL PUSH1 0x0 MSTORE PUSH1 0x12 PUSH1 0x4 MSTORE PUSH1 0x24 PUSH1 0x0 REVERT JUMPDEST DIV SWAP1 POP DUP1 DUP3 LT PUSH2 0x46D JUMPI DUP1 PUSH2 0x46F JUMP JUMPDEST DUP2 JUMPDEST SWAP6 SWAP5 POP POP POP POP POP JUMP JUMPDEST SWAP2 SWAP1 POP JUMP JUMPDEST PUSH1 0x0 DUP2 PUSH2 0x489 JUMPI PUSH1 0x0 DUP1 REVERT JUMPDEST PUSH1 0x0 PUSH1 0x1 PUSH1 0x1 PUSH1 0xC0 SHL SUB DUP5 GT PUSH2 0x4C2 JUMPI DUP3 PUSH1 0x40 DUP6 SWAP1 SHL DUP2 PUSH2 0x4BA JUMPI PUSH4 0x4E487B71 PUSH1 0xE0 SHL PUSH1 0x0 MSTORE PUSH1 0x12 PUSH1 0x4 MSTORE PUSH1 0x24 PUSH1 0x0 REVERT JUMPDEST DIV SWAP1 POP PUSH2 0x602 JUMP JUMPDEST PUSH1 0xC0 DUP5 DUP2 SHR PUSH1 0x1 PUSH1 0x20 SHL DUP2 LT PUSH2 0x4DA JUMPI PUSH1 0x20 SWAP2 DUP3 ADD SWAP2 SHR JUMPDEST PUSH3 0x10000 DUP2 LT PUSH2 0x4EC JUMPI PUSH1 0x10 SWAP2 DUP3 ADD SWAP2 SHR JUMPDEST PUSH2 0x100 DUP2 LT PUSH2 0x4FD JUMPI PUSH1 0x8 SWAP2 DUP3 ADD SWAP2 SHR JUMPDEST PUSH1 0x10 DUP2 LT PUSH2 0x50D JUMPI PUSH1 0x4 SWAP2 DUP3 ADD SWAP2 SHR JUMPDEST PUSH1 0x4 DUP2 LT PUSH2 0x51D JUMPI PUSH1 0x2 SWAP2 DUP3 ADD SWAP2 SHR JUMPDEST PUSH1 0x2 DUP2 LT PUSH2 0x52C JUMPI PUSH1 0x1 DUP3 ADD SWAP2 POP JUMPDEST PUSH1 0xBF DUP3 SUB PUSH1 0x1 DUP7 SUB SWAP1 SHR PUSH1 0x1 ADD DUP3 PUSH1 0xFF SUB DUP8 SWAP1 SHL DUP2 PUSH2 0x55B JUMPI PUSH4 0x4E487B71 PUSH1 0xE0 SHL PUSH1 0x0 MSTORE PUSH1 0x12 PUSH1 0x4 MSTORE PUSH1 0x24 PUSH1 0x0 REVERT JUMPDEST DIV SWAP3 POP PUSH1 0x1 PUSH1 0x1 PUSH1 0x80 SHL SUB DUP4 GT ISZERO PUSH2 0x572 JUMPI PUSH1 0x0 DUP1 REVERT JUMPDEST PUSH1 0x80 DUP6 SWAP1 SHR DUP4 MUL PUSH1 0x1 PUSH1 0x1 PUSH1 0x80 SHL SUB DUP7 AND DUP5 MUL PUSH1 0xC0 DUP9 SWAP1 SHR PUSH1 0x40 DUP10 SWAP1 SHL DUP3 DUP2 LT ISZERO PUSH2 0x59E JUMPI PUSH1 0x1 DUP3 SUB SWAP2 POP JUMPDEST PUSH1 0x80 DUP5 SWAP1 SHL SWAP3 SWAP1 SUB DUP3 DUP2 LT ISZERO PUSH2 0x5B5 JUMPI PUSH1 0x1 DUP3 SUB SWAP2 POP JUMPDEST DUP3 SWAP1 SUB PUSH1 0x80 DUP5 SWAP1 SHR DUP3 EQ PUSH2 0x5D9 JUMPI PUSH4 0x4E487B71 PUSH1 0xE0 SHL PUSH1 0x0 MSTORE PUSH1 0x1 PUSH1 0x4 MSTORE PUSH1 0x24 PUSH1 0x0 REVERT JUMPDEST DUP9 DUP2 DUP2 PUSH2 0x5F6 JUMPI PUSH4 0x4E487B71 PUSH1 0xE0 SHL PUSH1 0x0 MSTORE PUSH1 0x12 PUSH1 0x4 MSTORE PUSH1 0x24 PUSH1 0x0 REVERT JUMPDEST DIV DUP8 ADD SWAP7 POP POP POP POP POP POP POP JUMPDEST PUSH1 0x1 PUSH1 0x1 PUSH1 0x80 SHL SUB DUP2 GT ISZERO PUSH2 0x1AF JUMPI PUSH1 0x0 DUP1 REVERT JUMPDEST DUP1 CALLDATALOAD PUSH1 0xF DUP2 SWAP1 SIGNEXTEND DUP2 EQ PUSH2 0x478 JUMPI PUSH1 0x0 DUP1 REVERT JUMPDEST PUSH1 0x0 PUSH1 0x20 DUP3 DUP5 SUB SLT ISZERO PUSH2 0x639 JUMPI DUP1 DUP2 REVERT JUMPDEST PUSH2 0x1AF DUP3 PUSH2 0x616 JUMP JUMPDEST PUSH1 0x0 DUP1 PUSH1 0x40 DUP4 DUP6 SUB SLT ISZERO PUSH2 0x654 JUMPI DUP1 DUP2 REVERT JUMPDEST PUSH2 0x65D DUP4 PUSH2 0x616 JUMP JUMPDEST SWAP2 POP PUSH2 0x66B PUSH1 0x20 DUP5 ADD PUSH2 0x616 JUMP JUMPDEST SWAP1 POP SWAP3 POP SWAP3 SWAP1 POP JUMP JUMPDEST PUSH1 0x0 PUSH1 0x20 DUP3 DUP5 SUB SLT ISZERO PUSH2 0x685 JUMPI DUP1 DUP2 REVERT JUMPDEST POP CALLDATALOAD SWAP2 SWAP1 POP JUMP JUMPDEST PUSH1 0x0 DUP1 PUSH1 0x40 DUP4 DUP6 SUB SLT ISZERO PUSH2 0x69E JUMPI DUP2 DUP3 REVERT JUMPDEST POP POP DUP1 CALLDATALOAD SWAP3 PUSH1 0x20 SWAP1 SWAP2 ADD CALLDATALOAD SWAP2 POP JUMP INVALID LOG2 PUSH5 0x6970667358 0x22 SLT KECCAK256 0xD4 DUP12 CALLDATALOAD CALLCODE NOT 0xA6 JUMP 0xDB DUP14 0x2B XOR 0x4A 0xDF DUP16 CALLCODE 0x1E 0x2E RETURNDATACOPY EQ 0xAC 0xD7 0xE1 0xC1 0xE6 BLOCKHASH ADDRESS PUSH1 0x42 0x21 CREATE PUSH16 0x1064736F6C6343000804003300000000 ","sha1":"df13ae45513d78dbb18acd6723238c107ced71e5","source":"// SPDX-License-Identifier: BUSL-1.1\n\npragma solidity ^0.8.0;\n\n/**\n * Smart contract library of mathematical functions operating with signed\n * 64.64-bit fixed point numbers.  Signed 64.64-bit fixed point number is\n * basically a simple fraction whose numerator is signed 128-bit integer and\n * denominator is 2^64.  As long as denominator is always the same, there is no\n * need to store it, thus in Solidity signed 64.64-bit fixed point numbers are\n * represented by int128 type holding only the numerator.\n */\nlibrary ABDKMath64x64 {\n    /*\n     * Minimum value signed 64.64-bit fixed point number may have.\n     */\n    int128 private constant MIN_64x64 = -0x80000000000000000000000000000000;\n\n    /*\n     * Maximum value signed 64.64-bit fixed point number may have.\n     */\n    int128 private constant MAX_64x64 = 0x7FFFFFFFFFFFFFFFFFFFFFFFFFFFFFFF;\n\n    /**\n     * Convert signed 256-bit integer number into signed 64.64-bit fixed point\n     * number.  Revert on overflow.\n     *\n     * @param x signed 256-bit integer number\n     * @return signed 64.64-bit fixed point number\n     */\n    function fromInt(int256 x) public pure returns (int128) {\n        unchecked {\n            require(x >= -0x8000000000000000 && x <= 0x7FFFFFFFFFFFFFFF);\n            return int128(x << 64);\n        }\n    }\n\n    /**\n     * Convert signed 64.64 fixed point number into signed 64-bit integer number\n     * rounding down.\n     *\n     * @param x signed 64.64-bit fixed point number\n     * @return signed 64-bit integer number\n     */\n    function toInt(int128 x) public pure returns (int64) {\n        unchecked {\n            return int64(x >> 64);\n        }\n    }\n\n    /**\n     * Convert unsigned 256-bit integer number into signed 64.64-bit fixed point\n     * number.  Revert on overflow.\n     *\n     * @param x unsigned 256-bit integer number\n     * @return signed 64.64-bit fixed point number\n     */\n    function fromUInt(uint256 x) internal pure returns (int128) {\n        unchecked {\n            require(x <= 0x7FFFFFFFFFFFFFFF);\n            return int128(int256(x << 64));\n        }\n    }\n\n    /**\n     * Convert signed 64.64 fixed point number into unsigned 64-bit integer\n     * number rounding down.  Revert on underflow.\n     *\n     * @param x signed 64.64-bit fixed point number\n     * @return unsigned 64-bit integer number\n     */\n    function toUInt(int128 x) public pure returns (uint64) {\n        unchecked {\n            require(x >= 0);\n            return uint64(uint128(x >> 64));\n        }\n    }\n\n    /**\n     * Convert signed 128.128 fixed point number into signed 64.64-bit fixed point\n     * number rounding down.  Revert on overflow.\n     *\n     * @param x signed 128.128-bin fixed point number\n     * @return signed 64.64-bit fixed point number\n     */\n    function from128x128(int256 x) internal pure returns (int128) {\n        unchecked {\n            int256 result = x >> 64;\n            require(result >= MIN_64x64 && result <= MAX_64x64);\n            return int128(result);\n        }\n    }\n\n    /**\n     * Convert signed 64.64 fixed point number into signed 128.128 fixed point\n     * number.\n     *\n     * @param x signed 64.64-bit fixed point number\n     * @return signed 128.128 fixed point number\n     */\n    function to128x128(int128 x) internal pure returns (int256) {\n        unchecked {\n            return int256(x) << 64;\n        }\n    }\n\n    /**\n     * Calculate x + y.  Revert on overflow.\n     *\n     * @param x signed 64.64-bit fixed point number\n     * @param y signed 64.64-bit fixed point number\n     * @return signed 64.64-bit fixed point number\n     */\n    function add(int128 x, int128 y) internal pure returns (int128) {\n        unchecked {\n            int256 result = int256(x) + y;\n            require(result >= MIN_64x64 && result <= MAX_64x64);\n            return int128(result);\n        }\n    }\n\n    /**\n     * Calculate x - y.  Revert on overflow.\n     *\n     * @param x signed 64.64-bit fixed point number\n     * @param y signed 64.64-bit fixed point number\n     * @return signed 64.64-bit fixed point number\n     */\n    function sub(int128 x, int128 y) internal pure returns (int128) {\n        unchecked {\n            int256 result = int256(x) - y;\n            require(result >= MIN_64x64 && result <= MAX_64x64);\n            return int128(result);\n        }\n    }\n\n    /**\n     * Calculate x * y rounding down.  Revert on overflow.\n     *\n     * @param x signed 64.64-bit fixed point number\n     * @param y signed 64.64-bit fixed point number\n     * @return signed 64.64-bit fixed point number\n     */\n    function mul(int128 x, int128 y) public pure returns (int128) {\n        unchecked {\n            int256 result = (int256(x) * y) >> 64;\n            require(result >= MIN_64x64 && result <= MAX_64x64);\n            return int128(result);\n        }\n    }\n\n    /**\n     * Calculate x * y rounding towards zero, where x is signed 64.64 fixed point\n     * number and y is signed 256-bit integer number.  Revert on overflow.\n     *\n     * @param x signed 64.64 fixed point number\n     * @param y signed 256-bit integer number\n     * @return signed 256-bit integer number\n     */\n    function muli(int128 x, int256 y) internal pure returns (int256) {\n        unchecked {\n            if (x == MIN_64x64) {\n                require(\n                    y >= -0xFFFFFFFFFFFFFFFFFFFFFFFFFFFFFFFFFFFFFFFFFFFFFFFF &&\n                        y <= 0x1000000000000000000000000000000000000000000000000\n                );\n                return -y << 63;\n            } else {\n                bool negativeResult = false;\n                if (x < 0) {\n                    x = -x;\n                    negativeResult = true;\n                }\n                if (y < 0) {\n                    y = -y; // We rely on overflow behavior here\n                    negativeResult = !negativeResult;\n                }\n                uint256 absoluteResult = mulu(x, uint256(y));\n                if (negativeResult) {\n                    require(\n                        absoluteResult <=\n                            0x8000000000000000000000000000000000000000000000000000000000000000\n                    );\n                    return -int256(absoluteResult); // We rely on overflow behavior here\n                } else {\n                    require(\n                        absoluteResult <=\n                            0x7FFFFFFFFFFFFFFFFFFFFFFFFFFFFFFFFFFFFFFFFFFFFFFFFFFFFFFFFFFFFFFF\n                    );\n                    return int256(absoluteResult);\n                }\n            }\n        }\n    }\n\n    /**\n     * Calculate x * y rounding down, where x is signed 64.64 fixed point number\n     * and y is unsigned 256-bit integer number.  Revert on overflow.\n     *\n     * @param x signed 64.64 fixed point number\n     * @param y unsigned 256-bit integer number\n     * @return unsigned 256-bit integer number\n     */\n    function mulu(int128 x, uint256 y) internal pure returns (uint256) {\n        unchecked {\n            if (y == 0) return 0;\n\n            require(x >= 0);\n\n            uint256 lo = (uint256(int256(x)) *\n                (y & 0xFFFFFFFFFFFFFFFFFFFFFFFFFFFFFFFF)) >> 64;\n            uint256 hi = uint256(int256(x)) * (y >> 128);\n\n            require(hi <= 0xFFFFFFFFFFFFFFFFFFFFFFFFFFFFFFFFFFFFFFFFFFFFFFFF);\n            hi <<= 64;\n\n            require(\n                hi <=\n                    0xFFFFFFFFFFFFFFFFFFFFFFFFFFFFFFFFFFFFFFFFFFFFFFFFFFFFFFFFFFFFFFFF -\n                        lo\n            );\n            return hi + lo;\n        }\n    }\n\n    /**\n     * Calculate x / y rounding towards zero.  Revert on overflow or when y is\n     * zero.\n     *\n     * @param x signed 64.64-bit fixed point number\n     * @param y signed 64.64-bit fixed point number\n     * @return signed 64.64-bit fixed point number\n     */\n    function div(int128 x, int128 y) public pure returns (int128) {\n        unchecked {\n            require(y != 0);\n            int256 result = (int256(x) << 64) / y;\n            require(result >= MIN_64x64 && result <= MAX_64x64);\n            return int128(result);\n        }\n    }\n\n    /**\n     * Calculate x / y rounding towards zero, where x and y are signed 256-bit\n     * integer numbers.  Revert on overflow or when y is zero.\n     *\n     * @param x signed 256-bit integer number\n     * @param y signed 256-bit integer number\n     * @return signed 64.64-bit fixed point number\n     */\n    function divi(int256 x, int256 y) internal pure returns (int128) {\n        unchecked {\n            require(y != 0);\n\n            bool negativeResult = false;\n            if (x < 0) {\n                x = -x; // We rely on overflow behavior here\n                negativeResult = true;\n            }\n            if (y < 0) {\n                y = -y; // We rely on overflow behavior here\n                negativeResult = !negativeResult;\n            }\n            uint128 absoluteResult = divuu(uint256(x), uint256(y));\n            if (negativeResult) {\n                require(absoluteResult <= 0x80000000000000000000000000000000);\n                return -int128(absoluteResult); // We rely on overflow behavior here\n            } else {\n                require(absoluteResult <= 0x7FFFFFFFFFFFFFFFFFFFFFFFFFFFFFFF);\n                return int128(absoluteResult); // We rely on overflow behavior here\n            }\n        }\n    }\n\n    /**\n     * Calculate x / y rounding towards zero, where x and y are unsigned 256-bit\n     * integer numbers.  Revert on overflow or when y is zero.\n     *\n     * @param x unsigned 256-bit integer number\n     * @param y unsigned 256-bit integer number\n     * @return signed 64.64-bit fixed point number\n     */\n    function divu(uint256 x, uint256 y) public pure returns (int128) {\n        unchecked {\n            require(y != 0);\n            uint128 result = divuu(x, y);\n            require(result <= uint128(MAX_64x64));\n            return int128(result);\n        }\n    }\n\n    /**\n     * Calculate -x.  Revert on overflow.\n     *\n     * @param x signed 64.64-bit fixed point number\n     * @return signed 64.64-bit fixed point number\n     */\n    function neg(int128 x) internal pure returns (int128) {\n        unchecked {\n            require(x != MIN_64x64);\n            return -x;\n        }\n    }\n\n    /**\n     * Calculate |x|.  Revert on overflow.\n     *\n     * @param x signed 64.64-bit fixed point number\n     * @return signed 64.64-bit fixed point number\n     */\n    function abs(int128 x) internal pure returns (int128) {\n        unchecked {\n            require(x != MIN_64x64);\n            return x < 0 ? -x : x;\n        }\n    }\n\n    /**\n     * Calculate 1 / x rounding towards zero.  Revert on overflow or when x is\n     * zero.\n     *\n     * @param x signed 64.64-bit fixed point number\n     * @return signed 64.64-bit fixed point number\n     */\n    function inv(int128 x) internal pure returns (int128) {\n        unchecked {\n            require(x != 0);\n            int256 result = int256(0x100000000000000000000000000000000) / x;\n            require(result >= MIN_64x64 && result <= MAX_64x64);\n            return int128(result);\n        }\n    }\n\n    /**\n     * Calculate arithmetics average of x and y, i.e. (x + y) / 2 rounding down.\n     *\n     * @param x signed 64.64-bit fixed point number\n     * @param y signed 64.64-bit fixed point number\n     * @return signed 64.64-bit fixed point number\n     */\n    function avg(int128 x, int128 y) internal pure returns (int128) {\n        unchecked {\n            return int128((int256(x) + int256(y)) >> 1);\n        }\n    }\n\n    /**\n     * Calculate geometric average of x and y, i.e. sqrt (x * y) rounding down.\n     * Revert on overflow or in case x * y is negative.\n     *\n     * @param x signed 64.64-bit fixed point number\n     * @param y signed 64.64-bit fixed point number\n     * @return signed 64.64-bit fixed point number\n     */\n    function gavg(int128 x, int128 y) internal pure returns (int128) {\n        unchecked {\n            int256 m = int256(x) * int256(y);\n            require(m >= 0);\n            require(\n                m <\n                    0x4000000000000000000000000000000000000000000000000000000000000000\n            );\n            return int128(sqrtu(uint256(m)));\n        }\n    }\n\n    /**\n     * Calculate x^y assuming 0^0 is 1, where x is signed 64.64 fixed point number\n     * and y is unsigned 256-bit integer number.  Revert on overflow.\n     *\n     * @param x signed 64.64-bit fixed point number\n     * @param y uint256 value\n     * @return signed 64.64-bit fixed point number\n     */\n    function pow(int128 x, uint256 y) internal pure returns (int128) {\n        unchecked {\n            bool negative = x < 0 && y & 1 == 1;\n\n            uint256 absX = uint128(x < 0 ? -x : x);\n            uint256 absResult;\n            absResult = 0x100000000000000000000000000000000;\n\n            if (absX <= 0x10000000000000000) {\n                absX <<= 63;\n                while (y != 0) {\n                    if (y & 0x1 != 0) {\n                        absResult = (absResult * absX) >> 127;\n                    }\n                    absX = (absX * absX) >> 127;\n\n                    if (y & 0x2 != 0) {\n                        absResult = (absResult * absX) >> 127;\n                    }\n                    absX = (absX * absX) >> 127;\n\n                    if (y & 0x4 != 0) {\n                        absResult = (absResult * absX) >> 127;\n                    }\n                    absX = (absX * absX) >> 127;\n\n                    if (y & 0x8 != 0) {\n                        absResult = (absResult * absX) >> 127;\n                    }\n                    absX = (absX * absX) >> 127;\n\n                    y >>= 4;\n                }\n\n                absResult >>= 64;\n            } else {\n                uint256 absXShift = 63;\n                if (absX < 0x1000000000000000000000000) {\n                    absX <<= 32;\n                    absXShift -= 32;\n                }\n                if (absX < 0x10000000000000000000000000000) {\n                    absX <<= 16;\n                    absXShift -= 16;\n                }\n                if (absX < 0x1000000000000000000000000000000) {\n                    absX <<= 8;\n                    absXShift -= 8;\n                }\n                if (absX < 0x10000000000000000000000000000000) {\n                    absX <<= 4;\n                    absXShift -= 4;\n                }\n                if (absX < 0x40000000000000000000000000000000) {\n                    absX <<= 2;\n                    absXShift -= 2;\n                }\n                if (absX < 0x80000000000000000000000000000000) {\n                    absX <<= 1;\n                    absXShift -= 1;\n                }\n\n                uint256 resultShift = 0;\n                while (y != 0) {\n                    require(absXShift < 64);\n\n                    if (y & 0x1 != 0) {\n                        absResult = (absResult * absX) >> 127;\n                        resultShift += absXShift;\n                        if (absResult > 0x100000000000000000000000000000000) {\n                            absResult >>= 1;\n                            resultShift += 1;\n                        }\n                    }\n                    absX = (absX * absX) >> 127;\n                    absXShift <<= 1;\n                    if (absX >= 0x100000000000000000000000000000000) {\n                        absX >>= 1;\n                        absXShift += 1;\n                    }\n\n                    y >>= 1;\n                }\n\n                require(resultShift < 64);\n                absResult >>= 64 - resultShift;\n            }\n            int256 result = negative ? -int256(absResult) : int256(absResult);\n            require(result >= MIN_64x64 && result <= MAX_64x64);\n            return int128(result);\n        }\n    }\n\n    /**\n     * Calculate sqrt (x) rounding down.  Revert if x < 0.\n     *\n     * @param x signed 64.64-bit fixed point number\n     * @return signed 64.64-bit fixed point number\n     */\n    function sqrt(int128 x) public pure returns (int128) {\n        unchecked {\n            require(x >= 0);\n            return int128(sqrtu(uint256(int256(x)) << 64));\n        }\n    }\n\n    /**\n     * Calculate binary logarithm of x.  Revert if x <= 0.\n     *\n     * @param x signed 64.64-bit fixed point number\n     * @return signed 64.64-bit fixed point number\n     */\n    function log_2(int128 x) internal pure returns (int128) {\n        unchecked {\n            require(x > 0);\n\n            int256 msb = 0;\n            int256 xc = x;\n            if (xc >= 0x10000000000000000) {\n                xc >>= 64;\n                msb += 64;\n            }\n            if (xc >= 0x100000000) {\n                xc >>= 32;\n                msb += 32;\n            }\n            if (xc >= 0x10000) {\n                xc >>= 16;\n                msb += 16;\n            }\n            if (xc >= 0x100) {\n                xc >>= 8;\n                msb += 8;\n            }\n            if (xc >= 0x10) {\n                xc >>= 4;\n                msb += 4;\n            }\n            if (xc >= 0x4) {\n                xc >>= 2;\n                msb += 2;\n            }\n            if (xc >= 0x2) msb += 1; // No need to shift xc anymore\n\n            int256 result = (msb - 64) << 64;\n            uint256 ux = uint256(int256(x)) << uint256(127 - msb);\n            for (int256 bit = 0x8000000000000000; bit > 0; bit >>= 1) {\n                ux *= ux;\n                uint256 b = ux >> 255;\n                ux >>= 127 + b;\n                result += bit * int256(b);\n            }\n\n            return int128(result);\n        }\n    }\n\n    /**\n     * Calculate natural logarithm of x.  Revert if x <= 0.\n     *\n     * @param x signed 64.64-bit fixed point number\n     * @return signed 64.64-bit fixed point number\n     */\n    function ln(int128 x) internal pure returns (int128) {\n        unchecked {\n            require(x > 0);\n\n            return\n                int128(\n                    int256(\n                        (uint256(int256(log_2(x))) *\n                            0xB17217F7D1CF79ABC9E3B39803F2F6AF) >> 128\n                    )\n                );\n        }\n    }\n\n    /**\n     * Calculate binary exponent of x.  Revert on overflow.\n     *\n     * @param x signed 64.64-bit fixed point number\n     * @return signed 64.64-bit fixed point number\n     */\n    function exp_2(int128 x) internal pure returns (int128) {\n        unchecked {\n            require(x < 0x400000000000000000); // Overflow\n\n            if (x < -0x400000000000000000) return 0; // Underflow\n\n            uint256 result = 0x80000000000000000000000000000000;\n\n            if (x & 0x8000000000000000 > 0)\n                result = (result * 0x16A09E667F3BCC908B2FB1366EA957D3E) >> 128;\n            if (x & 0x4000000000000000 > 0)\n                result = (result * 0x1306FE0A31B7152DE8D5A46305C85EDEC) >> 128;\n            if (x & 0x2000000000000000 > 0)\n                result = (result * 0x1172B83C7D517ADCDF7C8C50EB14A791F) >> 128;\n            if (x & 0x1000000000000000 > 0)\n                result = (result * 0x10B5586CF9890F6298B92B71842A98363) >> 128;\n            if (x & 0x800000000000000 > 0)\n                result = (result * 0x1059B0D31585743AE7C548EB68CA417FD) >> 128;\n            if (x & 0x400000000000000 > 0)\n                result = (result * 0x102C9A3E778060EE6F7CACA4F7A29BDE8) >> 128;\n            if (x & 0x200000000000000 > 0)\n                result = (result * 0x10163DA9FB33356D84A66AE336DCDFA3F) >> 128;\n            if (x & 0x100000000000000 > 0)\n                result = (result * 0x100B1AFA5ABCBED6129AB13EC11DC9543) >> 128;\n            if (x & 0x80000000000000 > 0)\n                result = (result * 0x10058C86DA1C09EA1FF19D294CF2F679B) >> 128;\n            if (x & 0x40000000000000 > 0)\n                result = (result * 0x1002C605E2E8CEC506D21BFC89A23A00F) >> 128;\n            if (x & 0x20000000000000 > 0)\n                result = (result * 0x100162F3904051FA128BCA9C55C31E5DF) >> 128;\n            if (x & 0x10000000000000 > 0)\n                result = (result * 0x1000B175EFFDC76BA38E31671CA939725) >> 128;\n            if (x & 0x8000000000000 > 0)\n                result = (result * 0x100058BA01FB9F96D6CACD4B180917C3D) >> 128;\n            if (x & 0x4000000000000 > 0)\n                result = (result * 0x10002C5CC37DA9491D0985C348C68E7B3) >> 128;\n            if (x & 0x2000000000000 > 0)\n                result = (result * 0x1000162E525EE054754457D5995292026) >> 128;\n            if (x & 0x1000000000000 > 0)\n                result = (result * 0x10000B17255775C040618BF4A4ADE83FC) >> 128;\n            if (x & 0x800000000000 > 0)\n                result = (result * 0x1000058B91B5BC9AE2EED81E9B7D4CFAB) >> 128;\n            if (x & 0x400000000000 > 0)\n                result = (result * 0x100002C5C89D5EC6CA4D7C8ACC017B7C9) >> 128;\n            if (x & 0x200000000000 > 0)\n                result = (result * 0x10000162E43F4F831060E02D839A9D16D) >> 128;\n            if (x & 0x100000000000 > 0)\n                result = (result * 0x100000B1721BCFC99D9F890EA06911763) >> 128;\n            if (x & 0x80000000000 > 0)\n                result = (result * 0x10000058B90CF1E6D97F9CA14DBCC1628) >> 128;\n            if (x & 0x40000000000 > 0)\n                result = (result * 0x1000002C5C863B73F016468F6BAC5CA2B) >> 128;\n            if (x & 0x20000000000 > 0)\n                result = (result * 0x100000162E430E5A18F6119E3C02282A5) >> 128;\n            if (x & 0x10000000000 > 0)\n                result = (result * 0x1000000B1721835514B86E6D96EFD1BFE) >> 128;\n            if (x & 0x8000000000 > 0)\n                result = (result * 0x100000058B90C0B48C6BE5DF846C5B2EF) >> 128;\n            if (x & 0x4000000000 > 0)\n                result = (result * 0x10000002C5C8601CC6B9E94213C72737A) >> 128;\n            if (x & 0x2000000000 > 0)\n                result = (result * 0x1000000162E42FFF037DF38AA2B219F06) >> 128;\n            if (x & 0x1000000000 > 0)\n                result = (result * 0x10000000B17217FBA9C739AA5819F44F9) >> 128;\n            if (x & 0x800000000 > 0)\n                result = (result * 0x1000000058B90BFCDEE5ACD3C1CEDC823) >> 128;\n            if (x & 0x400000000 > 0)\n                result = (result * 0x100000002C5C85FE31F35A6A30DA1BE50) >> 128;\n            if (x & 0x200000000 > 0)\n                result = (result * 0x10000000162E42FF0999CE3541B9FFFCF) >> 128;\n            if (x & 0x100000000 > 0)\n                result = (result * 0x100000000B17217F80F4EF5AADDA45554) >> 128;\n            if (x & 0x80000000 > 0)\n                result = (result * 0x10000000058B90BFBF8479BD5A81B51AD) >> 128;\n            if (x & 0x40000000 > 0)\n                result = (result * 0x1000000002C5C85FDF84BD62AE30A74CC) >> 128;\n            if (x & 0x20000000 > 0)\n                result = (result * 0x100000000162E42FEFB2FED257559BDAA) >> 128;\n            if (x & 0x10000000 > 0)\n                result = (result * 0x1000000000B17217F7D5A7716BBA4A9AE) >> 128;\n            if (x & 0x8000000 > 0)\n                result = (result * 0x100000000058B90BFBE9DDBAC5E109CCE) >> 128;\n            if (x & 0x4000000 > 0)\n                result = (result * 0x10000000002C5C85FDF4B15DE6F17EB0D) >> 128;\n            if (x & 0x2000000 > 0)\n                result = (result * 0x1000000000162E42FEFA494F1478FDE05) >> 128;\n            if (x & 0x1000000 > 0)\n                result = (result * 0x10000000000B17217F7D20CF927C8E94C) >> 128;\n            if (x & 0x800000 > 0)\n                result = (result * 0x1000000000058B90BFBE8F71CB4E4B33D) >> 128;\n            if (x & 0x400000 > 0)\n                result = (result * 0x100000000002C5C85FDF477B662B26945) >> 128;\n            if (x & 0x200000 > 0)\n                result = (result * 0x10000000000162E42FEFA3AE53369388C) >> 128;\n            if (x & 0x100000 > 0)\n                result = (result * 0x100000000000B17217F7D1D351A389D40) >> 128;\n            if (x & 0x80000 > 0)\n                result = (result * 0x10000000000058B90BFBE8E8B2D3D4EDE) >> 128;\n            if (x & 0x40000 > 0)\n                result = (result * 0x1000000000002C5C85FDF4741BEA6E77E) >> 128;\n            if (x & 0x20000 > 0)\n                result = (result * 0x100000000000162E42FEFA39FE95583C2) >> 128;\n            if (x & 0x10000 > 0)\n                result = (result * 0x1000000000000B17217F7D1CFB72B45E1) >> 128;\n            if (x & 0x8000 > 0)\n                result = (result * 0x100000000000058B90BFBE8E7CC35C3F0) >> 128;\n            if (x & 0x4000 > 0)\n                result = (result * 0x10000000000002C5C85FDF473E242EA38) >> 128;\n            if (x & 0x2000 > 0)\n                result = (result * 0x1000000000000162E42FEFA39F02B772C) >> 128;\n            if (x & 0x1000 > 0)\n                result = (result * 0x10000000000000B17217F7D1CF7D83C1A) >> 128;\n            if (x & 0x800 > 0)\n                result = (result * 0x1000000000000058B90BFBE8E7BDCBE2E) >> 128;\n            if (x & 0x400 > 0)\n                result = (result * 0x100000000000002C5C85FDF473DEA871F) >> 128;\n            if (x & 0x200 > 0)\n                result = (result * 0x10000000000000162E42FEFA39EF44D91) >> 128;\n            if (x & 0x100 > 0)\n                result = (result * 0x100000000000000B17217F7D1CF79E949) >> 128;\n            if (x & 0x80 > 0)\n                result = (result * 0x10000000000000058B90BFBE8E7BCE544) >> 128;\n            if (x & 0x40 > 0)\n                result = (result * 0x1000000000000002C5C85FDF473DE6ECA) >> 128;\n            if (x & 0x20 > 0)\n                result = (result * 0x100000000000000162E42FEFA39EF366F) >> 128;\n            if (x & 0x10 > 0)\n                result = (result * 0x1000000000000000B17217F7D1CF79AFA) >> 128;\n            if (x & 0x8 > 0)\n                result = (result * 0x100000000000000058B90BFBE8E7BCD6D) >> 128;\n            if (x & 0x4 > 0)\n                result = (result * 0x10000000000000002C5C85FDF473DE6B2) >> 128;\n            if (x & 0x2 > 0)\n                result = (result * 0x1000000000000000162E42FEFA39EF358) >> 128;\n            if (x & 0x1 > 0)\n                result = (result * 0x10000000000000000B17217F7D1CF79AB) >> 128;\n\n            result >>= uint256(int256(63 - (x >> 64)));\n            require(result <= uint256(int256(MAX_64x64)));\n\n            return int128(int256(result));\n        }\n    }\n\n    /**\n     * Calculate natural exponent of x.  Revert on overflow.\n     *\n     * @param x signed 64.64-bit fixed point number\n     * @return signed 64.64-bit fixed point number\n     */\n    function exp(int128 x) internal pure returns (int128) {\n        unchecked {\n            require(x < 0x400000000000000000); // Overflow\n\n            if (x < -0x400000000000000000) return 0; // Underflow\n\n            return\n                exp_2(\n                    int128(\n                        (int256(x) * 0x171547652B82FE1777D0FFDA0D23A7D12) >> 128\n                    )\n                );\n        }\n    }\n\n    /**\n     * Calculate x / y rounding towards zero, where x and y are unsigned 256-bit\n     * integer numbers.  Revert on overflow or when y is zero.\n     *\n     * @param x unsigned 256-bit integer number\n     * @param y unsigned 256-bit integer number\n     * @return unsigned 64.64-bit fixed point number\n     */\n    function divuu(uint256 x, uint256 y) private pure returns (uint128) {\n        unchecked {\n            require(y != 0);\n\n            uint256 result;\n\n            if (x <= 0xFFFFFFFFFFFFFFFFFFFFFFFFFFFFFFFFFFFFFFFFFFFFFFFF)\n                result = (x << 64) / y;\n            else {\n                uint256 msb = 192;\n                uint256 xc = x >> 192;\n                if (xc >= 0x100000000) {\n                    xc >>= 32;\n                    msb += 32;\n                }\n                if (xc >= 0x10000) {\n                    xc >>= 16;\n                    msb += 16;\n                }\n                if (xc >= 0x100) {\n                    xc >>= 8;\n                    msb += 8;\n                }\n                if (xc >= 0x10) {\n                    xc >>= 4;\n                    msb += 4;\n                }\n                if (xc >= 0x4) {\n                    xc >>= 2;\n                    msb += 2;\n                }\n                if (xc >= 0x2) msb += 1; // No need to shift xc anymore\n\n                result = (x << (255 - msb)) / (((y - 1) >> (msb - 191)) + 1);\n                require(result <= 0xFFFFFFFFFFFFFFFFFFFFFFFFFFFFFFFF);\n\n                uint256 hi = result * (y >> 128);\n                uint256 lo = result * (y & 0xFFFFFFFFFFFFFFFFFFFFFFFFFFFFFFFF);\n\n                uint256 xh = x >> 192;\n                uint256 xl = x << 64;\n\n                if (xl < lo) xh -= 1;\n                xl -= lo; // We rely on overflow behavior here\n                lo = hi << 128;\n                if (xl < lo) xh -= 1;\n                xl -= lo; // We rely on overflow behavior here\n\n                assert(xh == hi >> 128);\n\n                result += xl / y;\n            }\n\n            require(result <= 0xFFFFFFFFFFFFFFFFFFFFFFFFFFFFFFFF);\n            return uint128(result);\n        }\n    }\n\n    /**\n     * Calculate sqrt (x) rounding down, where x is unsigned 256-bit integer\n     * number.\n     *\n     * @param x unsigned 256-bit integer number\n     * @return unsigned 128-bit integer number\n     */\n    function sqrtu(uint256 x) private pure returns (uint128) {\n        unchecked {\n            if (x == 0) return 0;\n            else {\n                uint256 xx = x;\n                uint256 r = 1;\n                if (xx >= 0x100000000000000000000000000000000) {\n                    xx >>= 128;\n                    r <<= 64;\n                }\n                if (xx >= 0x10000000000000000) {\n                    xx >>= 64;\n                    r <<= 32;\n                }\n                if (xx >= 0x100000000) {\n                    xx >>= 32;\n                    r <<= 16;\n                }\n                if (xx >= 0x10000) {\n                    xx >>= 16;\n                    r <<= 8;\n                }\n                if (xx >= 0x100) {\n                    xx >>= 8;\n                    r <<= 4;\n                }\n                if (xx >= 0x10) {\n                    xx >>= 4;\n                    r <<= 2;\n                }\n                if (xx >= 0x8) {\n                    r <<= 1;\n                }\n                r = (r + x / r) >> 1;\n                r = (r + x / r) >> 1;\n                r = (r + x / r) >> 1;\n                r = (r + x / r) >> 1;\n                r = (r + x / r) >> 1;\n                r = (r + x / r) >> 1;\n                r = (r + x / r) >> 1; // Seven iterations should be enough\n                uint256 r1 = x / r;\n                return uint128(r < r1 ? r : r1);\n            }\n        }\n    }\n}\n\nlibrary OptionMath {\n    using ABDKMath64x64 for int128;\n\n    // 64x64 fixed point integer constants\n    int128 internal constant ONE_64x64 = 0x10000000000000000;\n    int128 internal constant THREE_64x64 = 0x30000000000000000;\n\n    // 64x64 fixed point constants used in Choudhury’s approximation of the Black-Scholes CDF\n    int128 private constant CDF_CONST_0 = 0x09109f285df452394; // 2260 / 3989\n    int128 private constant CDF_CONST_1 = 0x19abac0ea1da65036; // 6400 / 3989\n    int128 private constant CDF_CONST_2 = 0x0d3c84b78b749bd6b; // 3300 / 3989\n\n    /**\n     * @notice calculate the exponential decay coefficient for a given interval\n     * @param oldTimestamp timestamp of previous update\n     * @param newTimestamp current timestamp\n     * @return 64x64 fixed point representation of exponential decay coefficient\n     */\n    function _decay(uint256 oldTimestamp, uint256 newTimestamp)\n        internal\n        pure\n        returns (int128)\n    {\n        return\n            ONE_64x64.sub(\n                (-ABDKMath64x64.divu(newTimestamp - oldTimestamp, 7 days)).exp()\n            );\n    }\n\n    /**\n     * @notice calculate Choudhury’s approximation of the Black-Scholes CDF\n     * @param input64x64 64x64 fixed point representation of random variable\n     * @return 64x64 fixed point representation of the approximated CDF of x\n     */\n    function _N(int128 input64x64) internal pure returns (int128) {\n        // squaring via mul is cheaper than via pow\n        int128 inputSquared64x64 = input64x64.mul(input64x64);\n\n        int128 value64x64 = (-inputSquared64x64 >> 1).exp().div(\n            CDF_CONST_0.add(CDF_CONST_1.mul(input64x64.abs())).add(\n                CDF_CONST_2.mul(inputSquared64x64.add(THREE_64x64).sqrt())\n            )\n        );\n\n        return input64x64 > 0 ? ONE_64x64.sub(value64x64) : value64x64;\n    }\n\n    /**\n     * @notice calculate the price of an option using the Black-Scholes model\n     * @param impliedVol uint256 representation of annualized impliedVol with a factor of 1e4\n     * @param strike uint256 representation of strike price with a factor of 1e8\n     * @param spot uint256 representation of spot price with a factor of 1e8\n     * @param period uint256 representation of duration of option contract (in seconds)\n     * @param isCall whether to price \"call\" or \"put\" option\n     * @return uint256 representation of Black-Scholes option price with a factor of 1e8\n     */\n    function blackScholesPrice(\n        uint256 impliedVol,\n        uint256 strike,\n        uint256 spot,\n        uint256 period,\n        bool isCall\n    ) public pure returns (uint256) {\n        int128 D8 = ABDKMath64x64.fromUInt(10**8);\n        int128 D4 = ABDKMath64x64.fromUInt(10**4);\n        int128 impliedVol64x64 = ABDKMath64x64.fromUInt(impliedVol).div(D4);\n        int128 variance64x64 = impliedVol64x64.mul(impliedVol64x64);\n        int128 strike64x64 = ABDKMath64x64.fromUInt(strike).div(D8);\n        int128 spot64x64 = ABDKMath64x64.fromUInt(spot).div(D8);\n        int128 maturity64x64 = ABDKMath64x64.fromUInt(period).div(\n            ABDKMath64x64.fromUInt(365 days)\n        );\n\n        int128 premium64x64 = _blackScholesPrice(\n            variance64x64,\n            strike64x64,\n            spot64x64,\n            maturity64x64,\n            isCall\n        );\n        return ABDKMath64x64.toUInt(premium64x64.mul(D8));\n    }\n\n    /**\n     * @notice calculate the price of an option using the Black-Scholes model\n     * @param varianceAnnualized64x64 64x64 fixed point representation of annualized variance\n     * @param strike64x64 64x64 fixed point representation of strike price\n     * @param spot64x64 64x64 fixed point representation of spot price\n     * @param timeToMaturity64x64 64x64 fixed point representation of duration of option contract (in years)\n     * @param isCall whether to price \"call\" or \"put\" option\n     * @return 64x64 fixed point representation of Black-Scholes option price\n     */\n    function _blackScholesPrice(\n        int128 varianceAnnualized64x64,\n        int128 strike64x64,\n        int128 spot64x64,\n        int128 timeToMaturity64x64,\n        bool isCall\n    ) public pure returns (int128) {\n        int128 cumulativeVariance64x64 = timeToMaturity64x64.mul(\n            varianceAnnualized64x64\n        );\n        int128 cumulativeVarianceSqrt64x64 = cumulativeVariance64x64.sqrt();\n\n        int128 d1_64x64 = spot64x64\n            .div(strike64x64)\n            .ln()\n            .add(cumulativeVariance64x64 >> 1)\n            .div(cumulativeVarianceSqrt64x64);\n        int128 d2_64x64 = d1_64x64.sub(cumulativeVarianceSqrt64x64);\n\n        if (isCall) {\n            return\n                spot64x64.mul(_N(d1_64x64)).sub(strike64x64.mul(_N(d2_64x64)));\n        } else {\n            return\n                -spot64x64.mul(_N(-d1_64x64)).sub(\n                    strike64x64.mul(_N(-d2_64x64))\n                );\n        }\n    }\n\n    /**\n     * @notice calculate the price of an option using the Black-Scholes model\n     * @param impliedVol uint256 representation of annualized impliedVol with a factor of 1e4\n     * @param strike uint256 representation of strike price with a factor of 1e8\n     * @param spot uint256 representation of spot price with a factor of 1e8\n     * @param period uint256 representation of duration of option contract (in seconds)\n     * @param isYes whether to price \"call\" or \"put\" option\n     * @param isAbove whether to the user bets the price will stay above this strike or not\n     * @return uint256 representation of Black-Scholes option price with a factor of 1e8\n     */\n    function blackScholesPriceBinary(\n        uint256 impliedVol,\n        uint256 strike,\n        uint256 spot,\n        uint256 period,\n        bool isYes,\n        bool isAbove\n    ) public pure returns (uint256) {\n        int128 D8 = ABDKMath64x64.fromUInt(10**8);\n        int128 D4 = ABDKMath64x64.fromUInt(10**4);\n        int128 impliedVol64x64 = ABDKMath64x64.fromUInt(impliedVol).div(D4);\n        int128 variance64x64 = impliedVol64x64.mul(impliedVol64x64);\n        int128 strike64x64 = ABDKMath64x64.fromUInt(strike).div(D8);\n        int128 spot64x64 = ABDKMath64x64.fromUInt(spot).div(D8);\n        int128 maturity64x64 = ABDKMath64x64.fromUInt(period).div(\n            ABDKMath64x64.fromUInt(365 days)\n        );\n\n        int128 premium64x64 = _blackScholesPriceBinary(\n            variance64x64,\n            strike64x64,\n            spot64x64,\n            maturity64x64,\n            isYes,\n            isAbove\n        );\n        return ABDKMath64x64.toUInt(premium64x64.mul(D8));\n    }\n\n\n\n    /**\n     * @notice calculate the price of an option using the Black-Scholes model\n     * @param varianceAnnualized64x64 64x64 fixed point representation of annualized variance\n     * @param strike64x64 64x64 fixed point representation of strike price\n     * @param spot64x64 64x64 fixed point representation of spot price\n     * @param timeToMaturity64x64 64x64 fixed point representation of duration of option contract (in years)\n     * @param isYes whether to price \"call\" or \"put\" option\n     * @param isAbove whether to the user bets the price will stay above this strike or not\n     * @return 64x64 fixed point representation of Black-Scholes option price\n     */\n    function _blackScholesPriceBinary(\n        int128 varianceAnnualized64x64,\n        int128 strike64x64,\n        int128 spot64x64,\n        int128 timeToMaturity64x64,\n        bool isYes,\n        bool isAbove\n    ) public pure returns (int128) {\n        int128 cumulativeVariance64x64 = timeToMaturity64x64.mul(\n            varianceAnnualized64x64\n        );\n        int128 cumulativeVarianceSqrt64x64 = cumulativeVariance64x64.sqrt();\n\n        int128 d1_64x64 = spot64x64\n            .div(strike64x64)\n            .ln()\n            .add(cumulativeVariance64x64 >> 1)\n            .div(cumulativeVarianceSqrt64x64);\n        int128 d2_64x64 = d1_64x64.sub(cumulativeVarianceSqrt64x64);\n\n        if (isYes) {\n            if (isAbove) {\n                return _N(d2_64x64);\n            } else {\n                return ABDKMath64x64.fromUInt(1).sub(_N(d2_64x64));\n            }\n        } else {\n            if (isAbove) {\n                return ABDKMath64x64.fromUInt(1).sub(_N(-d2_64x64));\n            } else {\n                return _N(-d2_64x64);\n            }\n        }\n    }\n\n}\n","sourcePath":"contracts/Libraries/OptionMath.sol","deployment":{"address":"0xAC336F9B7F0728CE605FB6BfD4cE5d7eC6F6ee99","chainid":"97","blockHeight":20152736}}