{"bytecode":"6080604052620f4240600d55600e805460ff19166012908117909155805460ff60a01b1916600160a11b17905560006013553480156200003e57600080fd5b5060405162005b7338038062005b73833981016040819052620000619162000308565b604080518082018252600a8152694275666665722050726f60b01b60208083019182528351808501909452600384526221232960e91b908401528151919291620000ae9160009162000262565b508051620000c490600190602084019062000262565b505050620000e1620000db6200015860201b60201c565b6200015c565b6001600755620000f3600033620001ae565b601080546001600160a01b038087166001600160a01b03199283161790925560158054858416908316179055426018556016805484841690831617905560128054928616929091169190911790556200014e600033620001ae565b50505050620003c5565b3390565b600680546001600160a01b038381166001600160a01b0319831681179093556040519116919082907f8be0079c531659141344cd1fd0a4f28419497f9722a3daafe3b4186f6b6457e090600090a35050565b620001ba8282620001be565b5050565b60008281526008602090815260408083206001600160a01b038516845290915290205460ff16620001ba5760008281526008602090815260408083206001600160a01b03851684529091529020805460ff191660011790556200021e3390565b6001600160a01b0316816001600160a01b0316837f2f8788117e7eff1d82e926ec794901d17c78024a50270940304540a733656f0d60405160405180910390a45050565b82805462000270906200036f565b90600052602060002090601f016020900481019282620002945760008555620002df565b82601f10620002af57805160ff1916838001178555620002df565b82800160010185558215620002df579182015b82811115620002df578251825591602001919060010190620002c2565b50620002ed929150620002f1565b5090565b5b80821115620002ed5760008155600101620002f2565b600080600080608085870312156200031e578384fd5b84516200032b81620003ac565b60208601519094506200033e81620003ac565b60408601519093506200035181620003ac565b60608601519092506200036481620003ac565b939692955090935050565b600181811c908216806200038457607f821691505b60208210811415620003a657634e487b7160e01b600052602260045260246000fd5b50919050565b6001600160a01b0381168114620003c257600080fd5b50565b61579e80620003d56000396000f3fe608060405234801561001057600080fd5b50600436106102675760003560e01c80630118fa491461026c57806301ffc9a71461029257806305271a2a146102b557806306517a29146102ca57806306fdde03146102d3578063076d948c146102e8578063081812fc146102fb578063095ea7b31461032657806316f0115b1461033b5780631cecaa311461034e57806323b872dd1461036f578063248a9ca314610382578063263f3e7e146103955780632f2ff15d146103a857806336568abe146103bb578063409e2205146103ce578063426a84931461043157806342842e0e1461044457806342966c68146104575780634aed53c21461046a5780634f558e791461047d5780636198e339146104905780636352211e146104a357806369c67247146104b657806370a08231146104d6578063715018a6146104e957806375794a3c146104f157806378c533ce146104fa57806379502c551461051a5780638a5841181461052d5780638da5cb5b1461057857806391d148541461058057806395d89b4114610593578063992642e51461059b578063a217fddf146105ae578063a22cb465146105b6578063a6d14c02146105c9578063a8800425146105d1578063b07f0a41146105e4578063b888879e146105f7578063b88d4fde1461060a578063bbe33ea51461061d578063becef60714610630578063c7c3b53f14610643578063c87b56dd14610665578063d149cc3014610678578063d547741f1461068b578063d5a0e6731461069e578063e342b598146106be578063e345e0bc146106d1578063e985e9c51461070b578063f2fde38b1461071e578063fe99049a14610731575b600080fd5b61027f61027a366004614f3f565b610744565b6040519081526020015b60405180910390f35b6102a56102a0366004614ea6565b6113d2565b6040519015158152602001610289565b600e5460405160ff9091168152602001610289565b61027f600d5481565b6102db6113e3565b604051610289919061524e565b61027f6102f6366004614e6a565b611475565b61030e610309366004614e6a565b6114ba565b6040516001600160a01b039091168152602001610289565b610339610334366004614d67565b611542565b005b60155461030e906001600160a01b031681565b60125461036290600160a01b900460ff1681565b60405161028991906151e4565b61033961037d366004614be9565b611653565b61027f610390366004614e6a565b611684565b61027f6103a3366004614e6a565b611699565b6103396103b6366004614e82565b6116ab565b6103396103c9366004614e82565b6116c8565b61041e6103dc366004614e6a565b601460205260009081526040902080546001820154600283015460038401546004850154600586015460069096015460ff958616969495939492939192911687565b60405161028997969594939291906151f2565b61033961043f366004614d92565b611746565b610339610452366004614be9565b61178a565b610339610465366004614e6a565b6117a5565b610339610478366004614cea565b6117ea565b6102a561048b366004614e6a565b61190c565b61033961049e366004614e6a565b611917565b61030e6104b1366004614e6a565b611a69565b6104c96104c4366004614ef6565b611ae0565b60405161028991906151a0565b61027f6104e4366004614b79565b611ed2565b610339611f59565b61027f60135481565b61027f610508366004614e6a565b600f6020526000908152604090205481565b60165461030e906001600160a01b031681565b61056861053b366004614e6a565b60176020526000908152604090208054600182015460029092015490919060ff8082169161010090041684565b60405161028994939291906153a9565b61030e611f94565b6102a561058e366004614e82565b611fa3565b6102db611fce565b60105461030e906001600160a01b031681565b61027f600081565b6103396105c4366004614d3a565b611fdd565b61027f600581565b61027f6105df366004614e6a565b61209e565b61027f6105f2366004614e6a565b6120b5565b60125461030e906001600160a01b031681565b610339610618366004614c29565b6127a2565b61033961062b366004614e05565b6127db565b61027f61063e366004614e6a565b6129ea565b610656610651366004614fe4565b6129fc565b6040516102899392919061541e565b6102db610673366004614e6a565b612b3f565b61027f610686366004614f96565b612b4a565b610339610699366004614e82565b612b69565b61027f6106ac366004614e6a565b600a6020526000908152604090205481565b6103396106cc366004614dc6565b612b86565b61027f6106df366004614e82565b6000828152600b602090815260408083206001600160a01b038516845260010190915290205492915050565b6102a5610719366004614bb1565b612bd3565b61033961072c366004614b79565b612c01565b61027f61073f366004614ca5565b612c9e565b60006002600754141561079e5760405162461bcd60e51b815260206004820152601f60248201527f5265656e7472616e637947756172643a207265656e7472616e742063616c6c0060448201526064015b60405180910390fd5b60026007556015546040805163392e53cd60e01b815290516001600160a01b039092169163392e53cd91600480820192602092909190829003018186803b1580156107e857600080fd5b505afa1580156107fc573d6000803e3d6000fd5b505050506040513d601f19601f820116820180604052508101906108209190614e4e565b80156108ad5750601660009054906101000a90046001600160a01b03166001600160a01b031663392e53cd6040518163ffffffff1660e01b815260040160206040518083038186803b15801561087557600080fd5b505afa158015610889573d6000803e3d6000fd5b505050506040513d601f19601f820116820180604052508101906108ad9190614e4e565b6108f25760405162461bcd60e51b8152602060048201526016602482015275496e697469616c697a6174696f6e2070656e64696e6760501b6044820152606401610795565b6015546040805163a834069b60e01b815290516000926001600160a01b03169163a834069b916004808301926020929190829003018186803b15801561093757600080fd5b505afa15801561094b573d6000803e3d6000fd5b505050506040513d601f19601f8201168201806040525081019061096f9190614ede565b90504281116109905760405162461bcd60e51b81526004016107959061538d565b600061099c42836155b7565b905061a8c08110156109c05760405162461bcd60e51b81526004016107959061538d565b6000806000610a628489601660009054906101000a90046001600160a01b03166001600160a01b0316635ee971016040518163ffffffff1660e01b815260040160206040518083038186803b158015610a1857600080fd5b505afa158015610a2c573d6000803e3d6000fd5b505050506040513d601f19601f82011682018060405250810190610a509190614ede565b601254600160a01b900460ff166129fc565b919450925090506005610a75858a615598565b610a7f9190615598565b610a8d846301e13380615598565b610a98906064615598565b11610aca5760405162461bcd60e51b8152602060048201526002602482015261279960f11b6044820152606401610795565b60125460408051630d67aac160e11b815290516000926001600160a01b031691631acf5582916004808301926020929190829003018186803b158015610b0f57600080fd5b505afa158015610b23573d6000803e3d6000fd5b505050506040513d601f19601f82011682018060405250810190610b479190614ede565b90506000601560009054906101000a90046001600160a01b03166001600160a01b03166316dc165b6040518163ffffffff1660e01b815260040160206040518083038186803b158015610b9957600080fd5b505afa158015610bad573d6000803e3d6000fd5b505050506040513d601f19601f82011682018060405250810190610bd19190614b95565b6001600160a01b031663313ce5676040518163ffffffff1660e01b815260040160206040518083038186803b158015610c0957600080fd5b505afa158015610c1d573d6000803e3d6000fd5b505050506040513d601f19601f82011682018060405250810190610c419190615027565b610c4c90600a6154ed565b9050601560009054906101000a90046001600160a01b03166001600160a01b031663a4475ce46040518163ffffffff1660e01b815260040160206040518083038186803b158015610c9c57600080fd5b505afa158015610cb0573d6000803e3d6000fd5b505050506040513d601f19601f82011682018060405250810190610cd49190614b95565b6001600160a01b0316336001600160a01b031614610e50576010546000906001600160a01b03166323b872dd3330610d10866305f5e100615598565b601060009054906101000a90046001600160a01b03166001600160a01b031663313ce5676040518163ffffffff1660e01b815260040160206040518083038186803b158015610d5e57600080fd5b505afa158015610d72573d6000803e3d6000fd5b505050506040513d601f19601f82011682018060405250810190610d969190615027565b610da190600a6154ed565b610dab898d615598565b610db59190615598565b610dbf9190615496565b6040518463ffffffff1660e01b8152600401610ddd93929190615126565b602060405180830381600087803b158015610df757600080fd5b505af1158015610e0b573d6000803e3d6000fd5b505050506040513d601f19601f82011682018060405250810190610e2f9190614e4e565b905080610e4e5760405162461bcd60e51b8152600401610795906152cf565b505b6040805160e081018252600181526016548251635ee9710160e01b815292516000936020808501936001600160a01b031692635ee97101926004808201939291829003018186803b158015610ea457600080fd5b505afa158015610eb8573d6000803e3d6000fd5b505050506040513d601f19601f82011682018060405250810190610edc9190614ede565b81526020018c81526020018c81526020018581526020018842610eff919061547e565b8152602001601260149054906101000a900460ff166002811115610f3357634e487b7160e01b600052602160045260246000fd5b90529050610f3f612d75565b9850610f4b8982612d8f565b610f788933610f738c85602001518660a00151601260149054906101000a900460ff16612e47565b612f85565b610f82898b612fa8565b610f958982606001518360800151612fb2565b601560009054906101000a90046001600160a01b03166001600160a01b031663a4475ce46040518163ffffffff1660e01b815260040160206040518083038186803b158015610fe357600080fd5b505afa158015610ff7573d6000803e3d6000fd5b505050506040513d601f19601f8201168201806040525081019061101b9190614b95565b6001600160a01b0316336001600160a01b0316146113785760105460155460408051632911d73960e21b815290516001600160a01b039384169363a9059cbb93169163a4475ce4916004808301926020929190829003018186803b15801561108257600080fd5b505afa158015611096573d6000803e3d6000fd5b505050506040513d601f19601f820116820180604052508101906110ba9190614b95565b6110c8856305f5e100615598565b601060009054906101000a90046001600160a01b03166001600160a01b031663313ce5676040518163ffffffff1660e01b815260040160206040518083038186803b15801561111657600080fd5b505afa15801561112a573d6000803e3d6000fd5b505050506040513d601f19601f8201168201806040525081019061114e9190615027565b61115990600a6154ed565b611163888a615598565b61116d9190615598565b6111779190615496565b6040518363ffffffff1660e01b8152600401611194929190615187565b602060405180830381600087803b1580156111ae57600080fd5b505af11580156111c2573d6000803e3d6000fd5b505050506040513d601f19601f820116820180604052508101906111e69190614e4e565b506010546001600160a01b031663a9059cbb611200611f94565b61120e856305f5e100615598565b601060009054906101000a90046001600160a01b03166001600160a01b031663313ce5676040518163ffffffff1660e01b815260040160206040518083038186803b15801561125c57600080fd5b505afa158015611270573d6000803e3d6000fd5b505050506040513d601f19601f820116820180604052508101906112949190615027565b61129f90600a6154ed565b6112a9888b615598565b6112b39190615598565b6112bd9190615496565b6040518363ffffffff1660e01b81526004016112da929190615187565b602060405180830381600087803b1580156112f457600080fd5b505af1158015611308573d6000803e3d6000fd5b505050506040513d601f19601f8201168201806040525081019061132c9190614e4e565b50611335611f94565b6001600160a01b03167ff0f0487d8990103573e0e5cf4e87e101e2a1ba84c733c556b7a5807e570e5d4c8660405161136f91815260200190565b60405180910390a25b336001600160a01b0316897f89f823a0225c73a75066e963ce2eea7708b57680ec86102773dbd244f541289287898e6040516113b6939291906153ff565b60405180910390a3505060016007555094979650505050505050565b60006113dd8261301d565b92915050565b6060600080546113f290615611565b80601f016020809104026020016040519081016040528092919081815260200182805461141e90615611565b801561146b5780601f106114405761010080835404028352916020019161146b565b820191906000526020600020905b81548152906001019060200180831161144e57829003601f168201915b5050505050905090565b6000805b6114828361209e565b8110156114b45761149661063e8483612b4a565b6114a0908361547e565b9150806114ac81615646565b915050611479565b50919050565b60006114c582613042565b6115265760405162461bcd60e51b815260206004820152602c60248201527f4552433732313a20617070726f76656420717565727920666f72206e6f6e657860448201526b34b9ba32b73a103a37b5b2b760a11b6064820152608401610795565b506000908152600460205260409020546001600160a01b031690565b600061154d82611a69565b9050806001600160a01b0316836001600160a01b031614156115bb5760405162461bcd60e51b815260206004820152602160248201527f4552433732313a20617070726f76616c20746f2063757272656e74206f776e656044820152603960f91b6064820152608401610795565b336001600160a01b03821614806115d757506115d78133612bd3565b6116445760405162461bcd60e51b815260206004820152603860248201527f4552433732313a20617070726f76652063616c6c6572206973206e6f74206f776044820152771b995c881b9bdc88185c1c1c9bdd995908199bdc88185b1b60421b6064820152608401610795565b61164e838361305f565b505050565b61165d33826130cd565b6116795760405162461bcd60e51b81526004016107959061533c565b61164e838383613197565b60009081526008602052604090206001015490565b6000908152600a602052604090205490565b6116b482611684565b6116be8133613330565b61164e8383613394565b6001600160a01b03811633146117385760405162461bcd60e51b815260206004820152602f60248201527f416363657373436f6e74726f6c3a2063616e206f6e6c792072656e6f756e636560448201526e103937b632b9903337b91039b2b63360891b6064820152608401610795565b611742828261341a565b5050565b61174f82611a69565b6001600160a01b0316336001600160a01b03161461177f5760405162461bcd60e51b815260040161079590615261565b61164e838383613481565b61164e838383604051806020016040528060008152506127a2565b6117ae81611a69565b6001600160a01b0316336001600160a01b0316146117de5760405162461bcd60e51b815260040161079590615261565b6117e781613546565b50565b6117f38261190c565b6118255760405162461bcd60e51b815260206004820152600360248201526227189960e91b6044820152606401610795565b6000806000611834868561355e565b5092509250925060006118468661368b565b9050611882868284846060015161185d919061547e565b87856040015161186d919061547e565b87866080015161187d919061547e565b61377a565b601554606082015160808301516040516357a5c96760e01b81529394506001600160a01b03909216926357a5c967926118c2928b9290919060040161541e565b600060405180830381600087803b1580156118dc57600080fd5b505af11580156118f0573d6000803e3d6000fd5b5050505061190189898989896137ac565b505050505050505050565b60006113dd82613042565b60008181526014602052604090206005810154421161195d5760405162461bcd60e51b815260206004820152600260248201526113cd60f21b6044820152606401610795565b6001815460ff16600381111561198357634e487b7160e01b600052602160045260246000fd5b146119b55760405162461bcd60e51b81526020600482015260026024820152614f3560f01b6044820152606401610795565b805460ff19166003178155601554604051636198e33960e01b8152600481018490526001600160a01b0390911690636198e33990602401600060405180830381600087803b158015611a0657600080fd5b505af1158015611a1a573d6000803e3d6000fd5b50505050611a2782613546565b817f5f36a4a575e512eb69d6d28c3b0ff98cca7ba50ad5bf04e14094ad1d425e0d318260040154604051611a5d91815260200190565b60405180910390a25050565b6000818152600260205260408120546001600160a01b0316806113dd5760405162461bcd60e51b815260206004820152602960248201527f4552433732313a206f776e657220717565727920666f72206e6f6e657869737460448201526832b73a103a37b5b2b760b91b6064820152608401610795565b606081611b145760405162461bcd60e51b81526020600482015260026024820152614e3160f01b6044820152606401610795565b816001600160401b03811115611b3a57634e487b7160e01b600052604160045260246000fd5b604051908082528060200260200182016040528015611b63578160200160208202803683370190505b5090506000611b718561368b565b90506000611b7e866129ea565b905060008080805b87811015611d91576000611b98612d75565b905080888381518110611bbb57634e487b7160e01b600052603260045260246000fd5b602002602001018181525050611bf88b828c8c86818110611bec57634e487b7160e01b600052603260045260246000fd5b905060200201356139f2565b6000868b8b85818110611c1b57634e487b7160e01b600052603260045260246000fd5b905060200201358960400151611c319190615598565b611c3b9190615496565b9050611c47818761547e565b95506000878c8c86818110611c6c57634e487b7160e01b600052603260045260246000fd5b905060200201358a60600151611c829190615598565b611c8c9190615496565b9050611c98818761547e565b95506000888d8d87818110611cbd57634e487b7160e01b600052603260045260246000fd5b905060200201358b60800151611cd39190615598565b611cdd9190615496565b9050611ce9818761547e565b955060006040518060e001604052808c600001516003811115611d1c57634e487b7160e01b600052602160045260246000fd5b81526020018c6020015181526020018581526020018481526020018381526020018c60a0015181526020018c60c001516002811115611d6b57634e487b7160e01b600052602160045260246000fd5b90529050611d798582612d8f565b50505050508080611d8990615646565b915050611b86565b50611dc78986848860600151611da791906155b7565b868960400151611db791906155b7565b858a6080015161187d91906155b7565b601554606082015160808301516040516357a5c96760e01b81529398506001600160a01b03909216926357a5c96792611e07928e9290919060040161541e565b600060405180830381600087803b158015611e2157600080fd5b505af1158015611e35573d6000803e3d6000fd5b5050505060005b87811015611ec5576000611e76888381518110611e6957634e487b7160e01b600052603260045260246000fd5b602002602001015161368b565b9050611eb2888381518110611e9b57634e487b7160e01b600052603260045260246000fd5b602002602001015182606001518360800151612fb2565b5080611ebd81615646565b915050611e3c565b5050505050509392505050565b60006001600160a01b038216611f3d5760405162461bcd60e51b815260206004820152602a60248201527f4552433732313a2062616c616e636520717565727920666f7220746865207a65604482015269726f206164647265737360b01b6064820152608401610795565b506001600160a01b031660009081526003602052604090205490565b33611f62611f94565b6001600160a01b031614611f885760405162461bcd60e51b815260040161079590615307565b611f926000613b1c565b565b6006546001600160a01b031690565b60009182526008602090815260408084206001600160a01b0393909316845291905290205460ff1690565b6060600180546113f290615611565b6001600160a01b0382163314156120325760405162461bcd60e51b815260206004820152601960248201527822a9219b99189d1030b8383937bb32903a379031b0b63632b960391b6044820152606401610795565b3360008181526005602090815260408083206001600160a01b03871680855290835292819020805460ff191686151590811790915590519081529192917f17307eab39ab6107e8899845ad3d59bd9653f200f220920489ca2b5937696c31910160405180910390a35050565b6000818152600c602052604081206113dd90613b6e565b6000806120c183611a69565b9050336001600160a01b038216146121015760405162461bcd60e51b815260206004820152600360248201526227989960e91b6044820152606401610795565b600083815260146020526040902060058101544211156121495760405162461bcd60e51b81526020600482015260036024820152624f313360e81b6044820152606401610795565b6001815460ff16600381111561216f57634e487b7160e01b600052602160045260246000fd5b146121a25760405162461bcd60e51b815260206004820152600360248201526213cc4d60ea1b6044820152606401610795565b60125460408051630d67aac160e11b815290516000926001600160a01b031691631acf5582916004808301926020929190829003018186803b1580156121e757600080fd5b505afa1580156121fb573d6000803e3d6000fd5b505050506040513d601f19601f8201168201806040525081019061221f9190614ede565b90506002600683015460ff16600281111561224a57634e487b7160e01b600052602160045260246000fd5b141561228e5780826001015411156122895760405162461bcd60e51b8152602060048201526002602482015261279b60f11b6044820152606401610795565b6122c7565b80826001015410156122c75760405162461bcd60e51b81526020600482015260026024820152614f3760f01b6044820152606401610795565b601554604080516316dc165b60e01b815290516000926001600160a01b0316916316dc165b916004808301926020929190829003018186803b15801561230c57600080fd5b505afa158015612320573d6000803e3d6000fd5b505050506040513d601f19601f820116820180604052508101906123449190614b95565b6001600160a01b031663313ce5676040518163ffffffff1660e01b815260040160206040518083038186803b15801561237c57600080fd5b505afa158015612390573d6000803e3d6000fd5b505050506040513d601f19601f820116820180604052508101906123b49190615027565b6123bf90600a6154ed565b905060006123d1826305f5e100615598565b601060009054906101000a90046001600160a01b03166001600160a01b031663313ce5676040518163ffffffff1660e01b815260040160206040518083038186803b15801561241f57600080fd5b505afa158015612433573d6000803e3d6000fd5b505050506040513d601f19601f820116820180604052508101906124579190615027565b61246290600a6154ed565b856002015486600101546124769190615598565b6124809190615598565b61248a9190615496565b9050601560009054906101000a90046001600160a01b03166001600160a01b031663a4475ce46040518163ffffffff1660e01b815260040160206040518083038186803b1580156124da57600080fd5b505afa1580156124ee573d6000803e3d6000fd5b505050506040513d601f19601f820116820180604052508101906125129190614b95565b6001600160a01b0316336001600160a01b0316146126ca576010546040516323b872dd60e01b81526000916001600160a01b0316906323b872dd9061255f90339030908790600401615126565b602060405180830381600087803b15801561257957600080fd5b505af115801561258d573d6000803e3d6000fd5b505050506040513d601f19601f820116820180604052508101906125b19190614e4e565b9050806125d05760405162461bcd60e51b8152600401610795906152cf565b60105460155460408051632911d73960e21b815290516001600160a01b039384169363a9059cbb93169163a4475ce4916004808301926020929190829003018186803b15801561261f57600080fd5b505afa158015612633573d6000803e3d6000fd5b505050506040513d601f19601f820116820180604052508101906126579190614b95565b846040518363ffffffff1660e01b8152600401612675929190615187565b602060405180830381600087803b15801561268f57600080fd5b505af11580156126a3573d6000803e3d6000fd5b505050506040513d601f19601f820116820180604052508101906126c79190614e4e565b50505b6015546001600160a01b03166381b34f15886126e581611a69565b60038801546040516001600160e01b031960e086901b16815260048101939093526001600160a01b0390911660248301526044820152606401600060405180830381600087803b15801561273857600080fd5b505af115801561274c573d6000803e3d6000fd5b5050505061275987613546565b835460ff1916600217845560405186815287907e84fe51c7cb34b132b7b6eb5d5a87a489f8d6d284758d00a0402c1bad9a0def9060200160405180910390a25050505050919050565b6127ad335b836130cd565b6127c95760405162461bcd60e51b81526004016107959061533c565b6127d584848484613b78565b50505050565b8161280d5760405162461bcd60e51b8152602060048201526002602482015261138d60f21b6044820152606401610795565b60006128188261368b565b606081015160408201516080830151929350909160005b8681101561296c57600061286889898481811061285c57634e487b7160e01b600052603260045260246000fd5b9050602002013561368b565b905080606001518561287a919061547e565b945080604001518461288c919061547e565b935080608001518361289e919061547e565b6015549093506001600160a01b0316630dbf21b08a8a858181106128d257634e487b7160e01b600052603260045260246000fd5b905060200201356040518263ffffffff1660e01b81526004016128f791815260200190565b600060405180830381600087803b15801561291157600080fd5b505af1158015612925573d6000803e3d6000fd5b5050505061295989898481811061294c57634e487b7160e01b600052603260045260246000fd5b9050602002013588613bab565b508061296481615646565b91505061282f565b5061297a858585858561377a565b506015546040516357a5c96760e01b81526001600160a01b03909116906357a5c967906129af9088908790869060040161541e565b600060405180830381600087803b1580156129c957600080fd5b505af11580156129dd573d6000803e3d6000fd5b5050505050505050505050565b6000908152600f602052604090205490565b600080600080601260009054906101000a90046001600160a01b03166001600160a01b0316631acf55826040518163ffffffff1660e01b815260040160206040518083038186803b158015612a5057600080fd5b505afa158015612a64573d6000803e3d6000fd5b505050506040513d601f19601f82011682018060405250810190612a889190614ede565b601654601554604051634767b4b360e01b815292935073__FeeCalculator_________________________92634767b4b392612ade928d928d928d928d928a926001600160a01b03908116921690600401615434565b60606040518083038186803b158015612af657600080fd5b505af4158015612b0a573d6000803e3d6000fd5b505050506040513d601f19601f82011682018060405250810190612b2e9190614fb7565b919a90995090975095505050505050565b60606113dd82613d27565b6000828152600c60205260408120612b629083613e89565b9392505050565b612b7282611684565b612b7c8133613330565b61164e838361341a565b8060005b818110156127d557612bc1848483818110612bb557634e487b7160e01b600052603260045260246000fd5b90506020020135611917565b80612bcb81615646565b915050612b8a565b6001600160a01b03918216600090815260056020908152604080832093909416825291909152205460ff1690565b33612c0a611f94565b6001600160a01b031614612c305760405162461bcd60e51b815260040161079590615307565b6001600160a01b038116612c955760405162461bcd60e51b815260206004820152602660248201527f4f776e61626c653a206e6577206f776e657220697320746865207a65726f206160448201526564647265737360d01b6064820152608401610795565b6117e781613b1c565b6000612ca8612d75565b9050600080600080612cba878761355e565b935093509350935060006040518060e0016040528083600001516003811115612cf357634e487b7160e01b600052602160045260246000fd5b8152602001836020015181526020018681526020018481526020018581526020018360a0015181526020018360c001516002811115612d4257634e487b7160e01b600052602160045260246000fd5b90529050612d508682612d8f565b612d5b868486612fb2565b612d688a8a8a898b6137ac565b5050505050949350505050565b6013805460009182612d8683615646565b91905055905090565b60008281526014602052604090208151815483929190829060ff19166001836003811115612dcd57634e487b7160e01b600052602160045260246000fd5b02179055506020820151816001015560408201518160020155606082015181600301556080820151816004015560a0820151816005015560c08201518160060160006101000a81548160ff02191690836002811115612e3c57634e487b7160e01b600052602160045260246000fd5b021790555050505050565b600083838387604051602001612e6094939291906153d5565b60408051808303601f19018152918152815160209283012060008181526017909352912060020154909150610100900460ff1615612ec65760405162461bcd60e51b8152602060048201526003602482015262138c4d60ea1b6044820152606401610795565b6040518060800160405280858152602001848152602001836002811115612efd57634e487b7160e01b600052602160045260246000fd5b815260016020918201819052600084815260178352604090819020845181559284015183830155830151600280840180549293909260ff1916918490811115612f5657634e487b7160e01b600052602160045260246000fd5b021790555060609190910151600290910180549115156101000261ff0019909216919091179055949350505050565b6000838152600a60205260409020819055600d5461164e90839085908490613e95565b6117428282613f1f565b60155460405163edd0d42160e01b81526001600160a01b039091169063edd0d42190612fe69086908690869060040161541e565b600060405180830381600087803b15801561300057600080fd5b505af1158015613014573d6000803e3d6000fd5b50505050505050565b60006001600160e01b03198216637965db0b60e01b14806113dd57506113dd82613faa565b6000908152600260205260409020546001600160a01b0316151590565b600081815260046020526040902080546001600160a01b0319166001600160a01b038416908117909155819061309482611a69565b6001600160a01b03167f8c5be1e5ebec7d5bd14f71427d1e84f3dd0314c0f7b2291e5b200ac8c7c3b92560405160405180910390a45050565b60006130d882613042565b6131395760405162461bcd60e51b815260206004820152602c60248201527f4552433732313a206f70657261746f7220717565727920666f72206e6f6e657860448201526b34b9ba32b73a103a37b5b2b760a11b6064820152608401610795565b600061314483611a69565b9050806001600160a01b0316846001600160a01b0316148061317f5750836001600160a01b0316613174846114ba565b6001600160a01b0316145b8061318f575061318f8185612bd3565b949350505050565b826001600160a01b03166131aa82611a69565b6001600160a01b0316146132125760405162461bcd60e51b815260206004820152602960248201527f4552433732313a207472616e73666572206f6620746f6b656e2074686174206960448201526839903737ba1037bbb760b91b6064820152608401610795565b6001600160a01b0382166132745760405162461bcd60e51b8152602060048201526024808201527f4552433732313a207472616e7366657220746f20746865207a65726f206164646044820152637265737360e01b6064820152608401610795565b61327f838383613ffa565b61328a60008261305f565b6001600160a01b03831660009081526003602052604081208054600192906132b39084906155b7565b90915550506001600160a01b03821660009081526003602052604081208054600192906132e190849061547e565b909155505060008181526002602052604080822080546001600160a01b0319166001600160a01b03868116918217909255915184939187169160008051602061572983398151915291a4505050565b61333a8282611fa3565b61174257613352816001600160a01b03166014614012565b61335d836020614012565b60405160200161336e9291906150b7565b60408051601f198184030181529082905262461bcd60e51b82526107959160040161524e565b61339e8282611fa3565b6117425760008281526008602090815260408083206001600160a01b03851684529091529020805460ff191660011790556133d63390565b6001600160a01b0316816001600160a01b0316837f2f8788117e7eff1d82e926ec794901d17c78024a50270940304540a733656f0d60405160405180910390a45050565b6134248282611fa3565b156117425760008281526008602090815260408083206001600160a01b0385168085529252808320805460ff1916905551339285917ff6391f5c32d9c69d2a47ea670b442974b53935d1edc7fd64eb21e047a839171b9190a45050565b6000828152600b602090815260408083206001600160a01b03871684526001019091529020546134e3576000828152600b602090815260408220805460018101825590835291200180546001600160a01b0319166001600160a01b0385161790555b6000828152600b602090815260408083206001600160a01b0387168085526001909101835292819020849055518381528492917f8a156bd946dc74ec284c5f4b365ce75ef2a5b9d9462b4cdb1d2400cabf136541910160405180910390a3505050565b6000818152600a60205260408120556117e7816141f3565b600080600061356b6149c6565b6135748661368b565b90506000613581876129ea565b9050808683604001516135949190615598565b61359e9190615496565b9450808683608001516135b19190615598565b6135bb9190615496565b9350808683606001516135ce9190615598565b6135d89190615496565b925061360f87838585606001516135ef91906155b7565b8886604001516135ff91906155b7565b88876080015161187d91906155b7565b601554606082015160808301516040516357a5c96760e01b81529395506001600160a01b03909216926357a5c9679261364f928c9290919060040161541e565b600060405180830381600087803b15801561366957600080fd5b505af115801561367d573d6000803e3d6000fd5b505050505092959194509250565b6136936149c6565b60008281526014602052604090819020815160e081019092528054829060ff1660038111156136d257634e487b7160e01b600052602160045260246000fd5b60038111156136f157634e487b7160e01b600052602160045260246000fd5b81526001820154602082015260028083015460408301526003830154606083015260048301546080830152600583015460a0830152600683015460c09092019160ff169081111561375257634e487b7160e01b600052602160045260246000fd5b600281111561377157634e487b7160e01b600052602160045260246000fd5b90525092915050565b6137826149c6565b50606084018390526040840182905260808401819052836137a38682612d8f565b95945050505050565b6137b583611a69565b6001600160a01b0316856001600160a01b0316146137fa5760405162461bcd60e51b81526020600482015260026024820152614e3960f01b6044820152606401610795565b6001600160a01b0384166138365760405162461bcd60e51b815260206004820152600360248201526204e31360ec1b6044820152606401610795565b336001600160a01b0386161480159061385657506138548533612bd3565b155b156138a1576000838152600b602090815260408083203384526001019091529020546138839082906155b7565b6000848152600b602090815260408083203384526001019091529020555b6000838152600f60205260409020546138bb9082906155b7565b6000848152600f60205260409020556138d382613042565b6138f0576138eb84836138e586611699565b84613e95565b613998565b836001600160a01b031661390383611a69565b6001600160a01b03161461393f5760405162461bcd60e51b81526020600482015260036024820152624e313160e81b6044820152606401610795565b61394882611699565b61395184611699565b1461396e5760405162461bcd60e51b8152600401610795906152eb565b6000828152600f602052604090205461398890829061547e565b6000838152600f60205260409020555b6000838152600a60205260408082205484835291819020919091555183906001600160a01b038087169190881690600080516020615749833981519152906139e39087908790615240565b60405180910390a45050505050565b6139fc33846130cd565b613a2d5760405162461bcd60e51b8152602060048201526002602482015261271960f11b6044820152606401610795565b613a3682613042565b15613a685760405162461bcd60e51b81526020600482015260026024820152614e3360f01b6044820152606401610795565b613a8782613a7585611699565b6000918252600a602052604090912055565b6000838152600f6020526040902054613aa19082906155b7565b6000848152600f6020526040812091909155613abc84611a69565b9050613ad28184613acc87611699565b85613e95565b83816001600160a01b03167ff66885c33d648fcd0d97e0f2a18e30102169c22763473af0fb716f11b4a17dd68585604051613b0e929190615240565b60405180910390a350505050565b600680546001600160a01b038381166001600160a01b0319831681179093556040519116919082907f8be0079c531659141344cd1fd0a4f28419497f9722a3daafe3b4186f6b6457e090600090a35050565b60006113dd825490565b613b83848484613197565b613b8f84848484614285565b6127d55760405162461bcd60e51b81526004016107959061527d565b613bb4336127a7565b613be55760405162461bcd60e51b81526020600482015260026024820152614e3560f01b6044820152606401610795565b80821415613c1a5760405162461bcd60e51b8152602060048201526002602482015261271b60f11b6044820152606401610795565b613c2381611699565b613c2c83611699565b14613c495760405162461bcd60e51b8152600401610795906152eb565b6000613c5483611a69565b9050613c5f82611a69565b6001600160a01b0316816001600160a01b031614613ca45760405162461bcd60e51b815260206004820152600260248201526109c760f31b6044820152606401610795565b6000838152600f602052604080822054848352912054613cc4908261547e565b6000848152600f6020526040902055613cdc84613546565b8284836001600160a01b03167fb3ce851d16b3bbec3774d5631a3893dfa2a80e067cfad265dd594402ac3d609684604051613d1991815260200190565b60405180910390a450505050565b6060613d3282613042565b613d985760405162461bcd60e51b815260206004820152603160248201527f45524337323155524953746f726167653a2055524920717565727920666f72206044820152703737b732bc34b9ba32b73a103a37b5b2b760791b6064820152608401610795565b60008281526009602052604081208054613db190615611565b80601f0160208091040260200160405190810160405280929190818152602001828054613ddd90615611565b8015613e2a5780601f10613dff57610100808354040283529160200191613e2a565b820191906000526020600020905b815481529060010190602001808311613e0d57829003601f168201915b505050505090506000613e3b614392565b9050805160001415613e4e575092915050565b815115613e80578082604051602001613e68929190615088565b60405160208183030381529060405292505050919050565b61318f846143b2565b6000612b62838361447c565b613e9e83613042565b613ec657613eac84846144b4565b6000828152600c60205260409020613ec490846145e0565b505b6000838152600f6020526040902054613ee090829061547e565b6000848152600f60205260408082209290925590516001600160a01b03861690829060008051602061574983398151915290613d199088908790615240565b613f2882613042565b613f8b5760405162461bcd60e51b815260206004820152602e60248201527f45524337323155524953746f726167653a2055524920736574206f66206e6f6e60448201526d32bc34b9ba32b73a103a37b5b2b760911b6064820152608401610795565b6000828152600960209081526040909120825161164e92840190614a22565b60006001600160e01b031982166380ac58cd60e01b1480613fdb57506001600160e01b03198216635b5e139f60e01b145b806113dd57506301ffc9a760e01b6001600160e01b03198316146113dd565b6001600160a01b0383161561164e5761164e816145ec565b60606000614021836002615598565b61402c90600261547e565b6001600160401b0381111561405157634e487b7160e01b600052604160045260246000fd5b6040519080825280601f01601f19166020018201604052801561407b576020820181803683370190505b509050600360fc1b816000815181106140a457634e487b7160e01b600052603260045260246000fd5b60200101906001600160f81b031916908160001a905350600f60fb1b816001815181106140e157634e487b7160e01b600052603260045260246000fd5b60200101906001600160f81b031916908160001a9053506000614105846002615598565b61411090600161547e565b90505b60018111156141a4576f181899199a1a9b1b9c1cb0b131b232b360811b85600f166010811061415257634e487b7160e01b600052603260045260246000fd5b1a60f81b82828151811061417657634e487b7160e01b600052603260045260246000fd5b60200101906001600160f81b031916908160001a90535060049490941c9361419d816155fa565b9050614113565b508315612b625760405162461bcd60e51b815260206004820181905260248201527f537472696e67733a20686578206c656e67746820696e73756666696369656e746044820152606401610795565b60006141fe82611a69565b9050600061420b83611699565b6000848152600f6020908152604080832054848452600c9092529091209192509061423690856146a0565b506000848152600f602052604081205561424f846146ac565b8360006001600160a01b0316846001600160a01b0316600080516020615749833981519152600085604051613d19929190615240565b60006001600160a01b0384163b1561438757604051630a85bd0160e11b81526001600160a01b0385169063150b7a02906142c990339089908890889060040161514a565b602060405180830381600087803b1580156142e357600080fd5b505af1925050508015614313575060408051601f3d908101601f1916820190925261431091810190614ec2565b60015b61436d573d808015614341576040519150601f19603f3d011682016040523d82523d6000602084013e614346565b606091505b5080516143655760405162461bcd60e51b81526004016107959061527d565b805181602001fd5b6001600160e01b031916630a85bd0160e11b14905061318f565b506001949350505050565b606060405180606001604052806022815260200161570760229139905090565b60606143bd82613042565b6144215760405162461bcd60e51b815260206004820152602f60248201527f4552433732314d657461646174613a2055524920717565727920666f72206e6f60448201526e3732bc34b9ba32b73a103a37b5b2b760891b6064820152608401610795565b600061442b614392565b9050600081511161444b5760405180602001604052806000815250612b62565b8061445584614741565b604051602001614466929190615088565b6040516020818303038152906040529392505050565b60008260000182815481106144a157634e487b7160e01b600052603260045260246000fd5b9060005260206000200154905092915050565b6001600160a01b03821661450a5760405162461bcd60e51b815260206004820181905260248201527f4552433732313a206d696e7420746f20746865207a65726f20616464726573736044820152606401610795565b61451381613042565b1561455f5760405162461bcd60e51b815260206004820152601c60248201527b115490cdcc8c4e881d1bdad95b88185b1c9958591e481b5a5b9d195960221b6044820152606401610795565b61456b60008383613ffa565b6001600160a01b038216600090815260036020526040812080546001929061459490849061547e565b909155505060008181526002602052604080822080546001600160a01b0319166001600160a01b0386169081179091559051839290600080516020615729833981519152908290a45050565b6000612b62838361485a565b6000818152600b60205260408120905b815481101561164e5781600101600083600001838154811061462e57634e487b7160e01b600052603260045260246000fd5b60009182526020808320909101546001600160a01b03168352820192909252604001812055815482908290811061467557634e487b7160e01b600052603260045260246000fd5b600091825260209091200180546001600160a01b03191690558061469881615646565b9150506145fc565b6000612b6283836148a9565b60006146b782611a69565b90506146c581600084613ffa565b6146d060008361305f565b6001600160a01b03811660009081526003602052604081208054600192906146f99084906155b7565b909155505060008281526002602052604080822080546001600160a01b0319169055518391906001600160a01b03841690600080516020615729833981519152908390a45050565b6060816147655750506040805180820190915260018152600360fc1b602082015290565b8160005b811561478f578061477981615646565b91506147889050600a83615496565b9150614769565b6000816001600160401b038111156147b757634e487b7160e01b600052604160045260246000fd5b6040519080825280601f01601f1916602001820160405280156147e1576020820181803683370190505b5090505b841561318f576147f66001836155b7565b9150614803600a86615661565b61480e90603061547e565b60f81b81838151811061483157634e487b7160e01b600052603260045260246000fd5b60200101906001600160f81b031916908160001a905350614853600a86615496565b94506147e5565b60008181526001830160205260408120546148a1575081546001818101845560008481526020808220909301849055845484825282860190935260409020919091556113dd565b5060006113dd565b600081815260018301602052604081205480156149bc5760006148cd6001836155b7565b85549091506000906148e1906001906155b7565b905081811461496257600086600001828154811061490f57634e487b7160e01b600052603260045260246000fd5b906000526020600020015490508087600001848154811061494057634e487b7160e01b600052603260045260246000fd5b6000918252602080832090910192909255918252600188019052604090208390555b855486908061498157634e487b7160e01b600052603160045260246000fd5b6001900381819060005260206000200160009055905585600101600086815260200190815260200160002060009055600193505050506113dd565b60009150506113dd565b6040805160e081019091528060008152602001600081526020016000815260200160008152602001600081526020016000815260200160006002811115614a1d57634e487b7160e01b600052602160045260246000fd5b905290565b828054614a2e90615611565b90600052602060002090601f016020900481019282614a505760008555614a96565b82601f10614a6957805160ff1916838001178555614a96565b82800160010185558215614a96579182015b82811115614a96578251825591602001919060010190614a7b565b50614aa2929150614aa6565b5090565b5b80821115614aa25760008155600101614aa7565b60006001600160401b0380841115614ad557614ad56156b7565b604051601f8501601f19908116603f01168101908282118183101715614afd57614afd6156b7565b81604052809350858152868686011115614b1657600080fd5b858560208301376000602087830101525050509392505050565b60008083601f840112614b41578182fd5b5081356001600160401b03811115614b57578182fd5b6020830191508360208260051b8501011115614b7257600080fd5b9250929050565b600060208284031215614b8a578081fd5b8135612b62816156cd565b600060208284031215614ba6578081fd5b8151612b62816156cd565b60008060408385031215614bc3578081fd5b8235614bce816156cd565b91506020830135614bde816156cd565b809150509250929050565b600080600060608486031215614bfd578081fd5b8335614c08816156cd565b92506020840135614c18816156cd565b929592945050506040919091013590565b60008060008060808587031215614c3e578081fd5b8435614c49816156cd565b93506020850135614c59816156cd565b92506040850135915060608501356001600160401b03811115614c7a578182fd5b8501601f81018713614c8a578182fd5b614c9987823560208401614abb565b91505092959194509250565b60008060008060808587031215614cba578384fd5b8435614cc5816156cd565b93506020850135614cd5816156cd565b93969395505050506040820135916060013590565b600080600080600060a08688031215614d01578081fd5b8535614d0c816156cd565b94506020860135614d1c816156cd565b94979496505050506040830135926060810135926080909101359150565b60008060408385031215614d4c578182fd5b8235614d57816156cd565b91506020830135614bde816156e2565b60008060408385031215614d79578182fd5b8235614d84816156cd565b946020939093013593505050565b600080600060608486031215614da6578081fd5b8335614db1816156cd565b95602085013595506040909401359392505050565b60008060208385031215614dd8578182fd5b82356001600160401b03811115614ded578283fd5b614df985828601614b30565b90969095509350505050565b600080600060408486031215614e19578081fd5b83356001600160401b03811115614e2e578182fd5b614e3a86828701614b30565b909790965060209590950135949350505050565b600060208284031215614e5f578081fd5b8151612b62816156e2565b600060208284031215614e7b578081fd5b5035919050565b60008060408385031215614e94578182fd5b823591506020830135614bde816156cd565b600060208284031215614eb7578081fd5b8135612b62816156f0565b600060208284031215614ed3578081fd5b8151612b62816156f0565b600060208284031215614eef578081fd5b5051919050565b600080600060408486031215614f0a578081fd5b8335925060208401356001600160401b03811115614f26578182fd5b614f3286828701614b30565b9497909650939450505050565b60008060408385031215614f51578182fd5b8235915060208301356001600160401b03811115614f6d578182fd5b8301601f81018513614f7d578182fd5b614f8c85823560208401614abb565b9150509250929050565b60008060408385031215614fa8578182fd5b50508035926020909101359150565b600080600060608486031215614fcb578081fd5b8351925060208401519150604084015190509250925092565b60008060008060808587031215614ff9578182fd5b84359350602085013592506040850135915060608501356003811061501c578182fd5b939692955090935050565b600060208284031215615038578081fd5b815160ff81168114612b62578182fd5b600081518084526150608160208601602086016155ce565b601f01601f19169290920160200192915050565b60038110615084576150846156a1565b9052565b6000835161509a8184602088016155ce565b8351908301906150ae8183602088016155ce565b01949350505050565b76020b1b1b2b9b9a1b7b73a3937b61d1030b1b1b7bab73a1604d1b8152600083516150e98160178501602088016155ce565b7001034b99036b4b9b9b4b733903937b6329607d1b601791840191820152835161511a8160288401602088016155ce565b01602801949350505050565b6001600160a01b039384168152919092166020820152604081019190915260600190565b6001600160a01b038581168252841660208201526040810183905260806060820181905260009061517d90830184615048565b9695505050505050565b6001600160a01b03929092168252602082015260400190565b6020808252825182820181905260009190848201906040850190845b818110156151d8578351835292840192918401916001016151bc565b50909695505050505050565b602081016113dd8284615074565b60e0810160048910615206576152066156a1565b8882528760208301528660408301528560608301528460808301528360a083015261523460c0830184615074565b98975050505050505050565b918252602082015260400190565b602081526000612b626020830184615048565b6020808252600290820152614f3960f01b604082015260600190565b60208082526032908201527f4552433732313a207472616e7366657220746f206e6f6e20455243373231526560408201527131b2b4bb32b91034b6b83632b6b2b73a32b960711b606082015260800190565b6020808252600290820152614f3360f01b604082015260600190565b6020808252600290820152614e3760f01b604082015260600190565b6020808252818101527f4f776e61626c653a2063616c6c6572206973206e6f7420746865206f776e6572604082015260600190565b60208082526031908201527f4552433732313a207472616e736665722063616c6c6572206973206e6f74206f6040820152701ddb995c881b9bdc88185c1c1c9bdd9959607a1b606082015260800190565b6020808252600290820152614f3160f01b604082015260600190565b84815260208101849052608081016153c46040830185615074565b821515606083015295945050505050565b84815260208101849052608081016153f06040830185615074565b82606083015295945050505050565b8381528260208201526060604082015260006137a36060830184615048565b9283526020830191909152604082015260600190565b878152602081018790526040810186905260e081016154566060830187615074565b60808201949094526001600160a01b0392831660a0820152911660c090910152949350505050565b6000821982111561549157615491615675565b500190565b6000826154a5576154a561568b565b500490565b600181815b808511156154e55781600019048211156154cb576154cb615675565b808516156154d857918102915b93841c93908002906154af565b509250929050565b6000612b6260ff841683600082615506575060016113dd565b81615513575060006113dd565b816001811461552957600281146155335761554f565b60019150506113dd565b60ff84111561554457615544615675565b50506001821b6113dd565b5060208310610133831016604e8410600b8410161715615572575081810a6113dd565b61557c83836154aa565b806000190482111561559057615590615675565b029392505050565b60008160001904831182151516156155b2576155b2615675565b500290565b6000828210156155c9576155c9615675565b500390565b60005b838110156155e95781810151838201526020016155d1565b838111156127d55750506000910152565b60008161560957615609615675565b506000190190565b600181811c9082168061562557607f821691505b602082108114156114b457634e487b7160e01b600052602260045260246000fd5b600060001982141561565a5761565a615675565b5060010190565b6000826156705761567061568b565b500690565b634e487b7160e01b600052601160045260246000fd5b634e487b7160e01b600052601260045260246000fd5b634e487b7160e01b600052602160045260246000fd5b634e487b7160e01b600052604160045260246000fd5b6001600160a01b03811681146117e757600080fd5b80151581146117e757600080fd5b6001600160e01b0319811681146117e757600080fdfe68747470733a2f2f676174657761792e70696e6174612e636c6f75642f697066732fddf252ad1be2c89b69c2b068fc378daa952ba7f163c4a11628f55a4df523b3ef823a343d1c899e61a4db12247636a6882bf1fefae78bef39170f8d0f5b53e456a2646970667358221220117bd7feab40f21f9688d965bff61d1edf168c45073cc47e8537ebe00c17b39364736f6c63430008040033","bytecodeSha1":"c931d0fa36c6f4f632aea307e076ae2f90801138","type":"contract","abi":[{"inputs":[{"internalType":"contract ERC20","name":"_stableCoin","type":"address"},{"internalType":"contract IPriceProvider","name":"pp","type":"address"},{"internalType":"contract BufferEpocPoolV2Unintialized","name":"_pool","type":"address"},{"internalType":"contract OptionConfigUnintialized","name":"_config","type":"address"}],"stateMutability":"nonpayable","type":"constructor","name":"constructor"},{"anonymous":false,"inputs":[{"indexed":true,"internalType":"address","name":"owner","type":"address"},{"indexed":true,"internalType":"address","name":"approved","type":"address"},{"indexed":true,"internalType":"uint256","name":"tokenId","type":"uint256"}],"name":"Approval","type":"event"},{"anonymous":false,"inputs":[{"indexed":true,"internalType":"address","name":"owner","type":"address"},{"indexed":true,"internalType":"address","name":"operator","type":"address"},{"indexed":false,"internalType":"bool","name":"approved","type":"bool"}],"name":"ApprovalForAll","type":"event"},{"anonymous":false,"inputs":[{"indexed":true,"internalType":"address","name":"approval","type":"address"},{"indexed":true,"internalType":"uint256","name":"tokenId","type":"uint256"},{"indexed":false,"internalType":"uint256","name":"allowance","type":"uint256"}],"name":"ApprovalUnits","type":"event"},{"anonymous":false,"inputs":[{"indexed":true,"internalType":"address","name":"account","type":"address"},{"indexed":false,"internalType":"bool","name":"status","type":"bool"}],"name":"AutoExerciseStatusChange","type":"event"},{"anonymous":false,"inputs":[{"indexed":true,"internalType":"uint256","name":"id","type":"uint256"},{"indexed":true,"internalType":"address","name":"account","type":"address"},{"indexed":false,"internalType":"uint256","name":"settlementFee","type":"uint256"},{"indexed":false,"internalType":"uint256","name":"totalFee","type":"uint256"},{"indexed":false,"internalType":"string","name":"metadata","type":"string"}],"name":"Create","type":"event"},{"anonymous":false,"inputs":[{"indexed":true,"internalType":"uint256","name":"id","type":"uint256"},{"indexed":false,"internalType":"uint256","name":"profit","type":"uint256"}],"name":"Exercise","type":"event"},{"anonymous":false,"inputs":[{"indexed":true,"internalType":"uint256","name":"id","type":"uint256"},{"indexed":false,"internalType":"uint256","name":"premium","type":"uint256"}],"name":"Expire","type":"event"},{"anonymous":false,"inputs":[{"indexed":true,"internalType":"address","name":"owner","type":"address"},{"indexed":true,"internalType":"uint256","name":"tokenId","type":"uint256"},{"indexed":true,"internalType":"uint256","name":"targetTokenId","type":"uint256"},{"indexed":false,"internalType":"uint256","name":"mergeUnits","type":"uint256"}],"name":"Merge","type":"event"},{"anonymous":false,"inputs":[{"indexed":true,"internalType":"address","name":"previousOwner","type":"address"},{"indexed":true,"internalType":"address","name":"newOwner","type":"address"}],"name":"OwnershipTransferred","type":"event"},{"anonymous":false,"inputs":[{"indexed":true,"internalType":"address","name":"owner","type":"address"},{"indexed":false,"internalType":"uint256","name":"amount","type":"uint256"}],"name":"PayAdminFee","type":"event"},{"anonymous":false,"inputs":[{"indexed":true,"internalType":"address","name":"referrer","type":"address"},{"indexed":false,"internalType":"uint256","name":"amount","type":"uint256"}],"name":"PayReferralFee","type":"event"},{"anonymous":false,"inputs":[{"indexed":true,"internalType":"bytes32","name":"role","type":"bytes32"},{"indexed":true,"internalType":"bytes32","name":"previousAdminRole","type":"bytes32"},{"indexed":true,"internalType":"bytes32","name":"newAdminRole","type":"bytes32"}],"name":"RoleAdminChanged","type":"event"},{"anonymous":false,"inputs":[{"indexed":true,"internalType":"bytes32","name":"role","type":"bytes32"},{"indexed":true,"internalType":"address","name":"account","type":"address"},{"indexed":true,"internalType":"address","name":"sender","type":"address"}],"name":"RoleGranted","type":"event"},{"anonymous":false,"inputs":[{"indexed":true,"internalType":"bytes32","name":"role","type":"bytes32"},{"indexed":true,"internalType":"address","name":"account","type":"address"},{"indexed":true,"internalType":"address","name":"sender","type":"address"}],"name":"RoleRevoked","type":"event"},{"anonymous":false,"inputs":[{"indexed":true,"internalType":"address","name":"owner","type":"address"},{"indexed":true,"internalType":"uint256","name":"tokenId","type":"uint256"},{"indexed":false,"internalType":"uint256","name":"newTokenId","type":"uint256"},{"indexed":false,"internalType":"uint256","name":"splitUnits","type":"uint256"}],"name":"Split","type":"event"},{"anonymous":false,"inputs":[{"indexed":true,"internalType":"address","name":"from","type":"address"},{"indexed":true,"internalType":"address","name":"to","type":"address"},{"indexed":true,"internalType":"uint256","name":"tokenId","type":"uint256"}],"name":"Transfer","type":"event"},{"anonymous":false,"inputs":[{"indexed":true,"internalType":"address","name":"from","type":"address"},{"indexed":true,"internalType":"address","name":"to","type":"address"},{"indexed":true,"internalType":"uint256","name":"tokenId","type":"uint256"},{"indexed":false,"internalType":"uint256","name":"targetTokenId","type":"uint256"},{"indexed":false,"internalType":"uint256","name":"transferUnits","type":"uint256"}],"name":"TransferUnits","type":"event"},{"anonymous":false,"inputs":[{"indexed":false,"internalType":"uint256","name":"startHour","type":"uint256"},{"indexed":false,"internalType":"uint256","name":"startMinute","type":"uint256"},{"indexed":false,"internalType":"uint256","name":"endHour","type":"uint256"},{"indexed":false,"internalType":"uint256","name":"endMinute","type":"uint256"}],"name":"UpdateOptionCreationWindow","type":"event"},{"inputs":[],"name":"DEFAULT_ADMIN_ROLE","outputs":[{"internalType":"bytes32","name":"","type":"bytes32"}],"stateMutability":"view","type":"function"},{"inputs":[{"internalType":"uint256","name":"","type":"uint256"}],"name":"_units","outputs":[{"internalType":"uint256","name":"","type":"uint256"}],"stateMutability":"view","type":"function"},{"inputs":[{"internalType":"uint256","name":"optionId_","type":"uint256"},{"internalType":"address","name":"spender_","type":"address"}],"name":"allowance","outputs":[{"internalType":"uint256","name":"","type":"uint256"}],"stateMutability":"view","type":"function"},{"inputs":[{"internalType":"address","name":"to","type":"address"},{"internalType":"uint256","name":"tokenId","type":"uint256"}],"name":"approve","outputs":[],"stateMutability":"nonpayable","type":"function"},{"inputs":[{"internalType":"address","name":"to_","type":"address"},{"internalType":"uint256","name":"optionId_","type":"uint256"},{"internalType":"uint256","name":"allowance_","type":"uint256"}],"name":"approve","outputs":[],"stateMutability":"nonpayable","type":"function"},{"inputs":[{"internalType":"address","name":"owner","type":"address"}],"name":"balanceOf","outputs":[{"internalType":"uint256","name":"","type":"uint256"}],"stateMutability":"view","type":"function"},{"inputs":[{"internalType":"uint256","name":"tokenId_","type":"uint256"}],"name":"burn","outputs":[],"stateMutability":"nonpayable","type":"function"},{"inputs":[],"name":"config","outputs":[{"internalType":"contract OptionConfigUnintialized","name":"","type":"address"}],"stateMutability":"view","type":"function"},{"inputs":[{"internalType":"uint256","name":"amount","type":"uint256"},{"internalType":"string","name":"metadata","type":"string"}],"name":"create","outputs":[{"internalType":"uint256","name":"optionID","type":"uint256"}],"stateMutability":"nonpayable","type":"function"},{"inputs":[{"internalType":"uint256","name":"optionID","type":"uint256"}],"name":"exercise","outputs":[{"internalType":"uint256","name":"profit","type":"uint256"}],"stateMutability":"nonpayable","type":"function"},{"inputs":[{"internalType":"uint256","name":"optionID","type":"uint256"}],"name":"exists","outputs":[{"internalType":"bool","name":"","type":"bool"}],"stateMutability":"view","type":"function"},{"inputs":[{"internalType":"uint256","name":"period","type":"uint256"},{"internalType":"uint256","name":"amount","type":"uint256"},{"internalType":"uint256","name":"strike","type":"uint256"},{"internalType":"enum IOptions.OptionType","name":"optionType","type":"uint8"}],"name":"fees","outputs":[{"internalType":"uint256","name":"total","type":"uint256"},{"internalType":"uint256","name":"settlementFee","type":"uint256"},{"internalType":"uint256","name":"premium","type":"uint256"}],"stateMutability":"view","type":"function"},{"inputs":[],"name":"fixedOptionType","outputs":[{"internalType":"enum IOptions.OptionType","name":"","type":"uint8"}],"stateMutability":"view","type":"function"},{"inputs":[{"internalType":"uint256","name":"tokenId","type":"uint256"}],"name":"getApproved","outputs":[{"internalType":"address","name":"","type":"address"}],"stateMutability":"view","type":"function"},{"inputs":[{"internalType":"bytes32","name":"role","type":"bytes32"}],"name":"getRoleAdmin","outputs":[{"internalType":"bytes32","name":"","type":"bytes32"}],"stateMutability":"view","type":"function"},{"inputs":[{"internalType":"bytes32","name":"role","type":"bytes32"},{"internalType":"address","name":"account","type":"address"}],"name":"grantRole","outputs":[],"stateMutability":"nonpayable","type":"function"},{"inputs":[{"internalType":"bytes32","name":"role","type":"bytes32"},{"internalType":"address","name":"account","type":"address"}],"name":"hasRole","outputs":[{"internalType":"bool","name":"","type":"bool"}],"stateMutability":"view","type":"function"},{"inputs":[{"internalType":"address","name":"owner","type":"address"},{"internalType":"address","name":"operator","type":"address"}],"name":"isApprovedForAll","outputs":[{"internalType":"bool","name":"","type":"bool"}],"stateMutability":"view","type":"function"},{"inputs":[],"name":"maxUnits","outputs":[{"internalType":"uint256","name":"","type":"uint256"}],"stateMutability":"view","type":"function"},{"inputs":[{"internalType":"uint256[]","name":"optionIDs","type":"uint256[]"},{"internalType":"uint256","name":"targetOptionID","type":"uint256"}],"name":"merge","outputs":[],"stateMutability":"nonpayable","type":"function"},{"inputs":[],"name":"minimumYield","outputs":[{"internalType":"uint256","name":"","type":"uint256"}],"stateMutability":"view","type":"function"},{"inputs":[],"name":"name","outputs":[{"internalType":"string","name":"","type":"string"}],"stateMutability":"view","type":"function"},{"inputs":[],"name":"nextTokenId","outputs":[{"internalType":"uint256","name":"","type":"uint256"}],"stateMutability":"view","type":"function"},{"inputs":[{"internalType":"uint256","name":"","type":"uint256"}],"name":"optionSlotMapping","outputs":[{"internalType":"uint256","name":"","type":"uint256"}],"stateMutability":"view","type":"function"},{"inputs":[{"internalType":"uint256","name":"","type":"uint256"}],"name":"options","outputs":[{"internalType":"enum IOptions.State","name":"state","type":"uint8"},{"internalType":"uint256","name":"strike","type":"uint256"},{"internalType":"uint256","name":"amount","type":"uint256"},{"internalType":"uint256","name":"lockedAmount","type":"uint256"},{"internalType":"uint256","name":"premium","type":"uint256"},{"internalType":"uint256","name":"expiration","type":"uint256"},{"internalType":"enum IOptions.OptionType","name":"optionType","type":"uint8"}],"stateMutability":"view","type":"function"},{"inputs":[],"name":"owner","outputs":[{"internalType":"address","name":"","type":"address"}],"stateMutability":"view","type":"function"},{"inputs":[{"internalType":"uint256","name":"tokenId","type":"uint256"}],"name":"ownerOf","outputs":[{"internalType":"address","name":"","type":"address"}],"stateMutability":"view","type":"function"},{"inputs":[],"name":"pool","outputs":[{"internalType":"contract BufferEpocPoolV2Unintialized","name":"","type":"address"}],"stateMutability":"view","type":"function"},{"inputs":[],"name":"priceProvider","outputs":[{"internalType":"contract IPriceProvider","name":"","type":"address"}],"stateMutability":"view","type":"function"},{"inputs":[],"name":"renounceOwnership","outputs":[],"stateMutability":"nonpayable","type":"function"},{"inputs":[{"internalType":"bytes32","name":"role","type":"bytes32"},{"internalType":"address","name":"account","type":"address"}],"name":"renounceRole","outputs":[],"stateMutability":"nonpayable","type":"function"},{"inputs":[{"internalType":"bytes32","name":"role","type":"bytes32"},{"internalType":"address","name":"account","type":"address"}],"name":"revokeRole","outputs":[],"stateMutability":"nonpayable","type":"function"},{"inputs":[{"internalType":"address","name":"from","type":"address"},{"internalType":"address","name":"to","type":"address"},{"internalType":"uint256","name":"tokenId","type":"uint256"}],"name":"safeTransferFrom","outputs":[],"stateMutability":"nonpayable","type":"function"},{"inputs":[{"internalType":"address","name":"from","type":"address"},{"internalType":"address","name":"to","type":"address"},{"internalType":"uint256","name":"tokenId","type":"uint256"},{"internalType":"bytes","name":"_data","type":"bytes"}],"name":"safeTransferFrom","outputs":[],"stateMutability":"nonpayable","type":"function"},{"inputs":[{"internalType":"address","name":"operator","type":"address"},{"internalType":"bool","name":"approved","type":"bool"}],"name":"setApprovalForAll","outputs":[],"stateMutability":"nonpayable","type":"function"},{"inputs":[{"internalType":"uint256","name":"","type":"uint256"}],"name":"slotDetails","outputs":[{"internalType":"uint256","name":"strike","type":"uint256"},{"internalType":"uint256","name":"expiration","type":"uint256"},{"internalType":"enum IOptions.OptionType","name":"optionType","type":"uint8"},{"internalType":"bool","name":"isValid","type":"bool"}],"stateMutability":"view","type":"function"},{"inputs":[{"internalType":"uint256","name":"optionId_","type":"uint256"}],"name":"slotOf","outputs":[{"internalType":"uint256","name":"","type":"uint256"}],"stateMutability":"view","type":"function"},{"inputs":[{"internalType":"uint256","name":"optionID","type":"uint256"},{"internalType":"uint256[]","name":"splitUnits_","type":"uint256[]"}],"name":"split","outputs":[{"internalType":"uint256[]","name":"newOptionIDs","type":"uint256[]"}],"stateMutability":"nonpayable","type":"function"},{"inputs":[],"name":"stableCoin","outputs":[{"internalType":"contract ERC20","name":"","type":"address"}],"stateMutability":"view","type":"function"},{"inputs":[{"internalType":"bytes4","name":"interfaceId","type":"bytes4"}],"name":"supportsInterface","outputs":[{"internalType":"bool","name":"","type":"bool"}],"stateMutability":"view","type":"function"},{"inputs":[],"name":"symbol","outputs":[{"internalType":"string","name":"","type":"string"}],"stateMutability":"view","type":"function"},{"inputs":[{"internalType":"uint256","name":"slot_","type":"uint256"},{"internalType":"uint256","name":"index_","type":"uint256"}],"name":"tokenOfSlotByIndex","outputs":[{"internalType":"uint256","name":"","type":"uint256"}],"stateMutability":"view","type":"function"},{"inputs":[{"internalType":"uint256","name":"tokenId","type":"uint256"}],"name":"tokenURI","outputs":[{"internalType":"string","name":"","type":"string"}],"stateMutability":"view","type":"function"},{"inputs":[{"internalType":"uint256","name":"slot_","type":"uint256"}],"name":"tokensInSlot","outputs":[{"internalType":"uint256","name":"","type":"uint256"}],"stateMutability":"view","type":"function"},{"inputs":[{"internalType":"address","name":"from","type":"address"},{"internalType":"address","name":"to","type":"address"},{"internalType":"uint256","name":"tokenId","type":"uint256"}],"name":"transferFrom","outputs":[],"stateMutability":"nonpayable","type":"function"},{"inputs":[{"internalType":"address","name":"from_","type":"address"},{"internalType":"address","name":"to_","type":"address"},{"internalType":"uint256","name":"optionID","type":"uint256"},{"internalType":"uint256","name":"targetOptionID","type":"uint256"},{"internalType":"uint256","name":"transferUnits_","type":"uint256"}],"name":"transferFrom","outputs":[],"stateMutability":"nonpayable","type":"function"},{"inputs":[{"internalType":"address","name":"from_","type":"address"},{"internalType":"address","name":"to_","type":"address"},{"internalType":"uint256","name":"optionID","type":"uint256"},{"internalType":"uint256","name":"transferUnits_","type":"uint256"}],"name":"transferFrom","outputs":[{"internalType":"uint256","name":"newOptionID","type":"uint256"}],"stateMutability":"nonpayable","type":"function"},{"inputs":[{"internalType":"address","name":"newOwner","type":"address"}],"name":"transferOwnership","outputs":[],"stateMutability":"nonpayable","type":"function"},{"inputs":[],"name":"unitDecimals","outputs":[{"internalType":"uint8","name":"","type":"uint8"}],"stateMutability":"view","type":"function"},{"inputs":[{"internalType":"uint256","name":"slot_","type":"uint256"}],"name":"unitsInSlot","outputs":[{"internalType":"uint256","name":"units_","type":"uint256"}],"stateMutability":"view","type":"function"},{"inputs":[{"internalType":"uint256","name":"optionId_","type":"uint256"}],"name":"unitsInToken","outputs":[{"internalType":"uint256","name":"","type":"uint256"}],"stateMutability":"view","type":"function"},{"inputs":[{"internalType":"uint256","name":"optionID","type":"uint256"}],"name":"unlock","outputs":[],"stateMutability":"nonpayable","type":"function"},{"inputs":[{"internalType":"uint256[]","name":"optionIDs","type":"uint256[]"}],"name":"unlockAll","outputs":[],"stateMutability":"nonpayable","type":"function"}],"compiler":{"version":"0.8.4+commit.c7e474f2","evm_version":"istanbul","optimizer":{"enabled":true,"runs":1}},"contractName":"BufferPhysicallySettledAmericanOptions","deployedBytecode":"608060405234801561001057600080fd5b50600436106102675760003560e01c80630118fa491461026c57806301ffc9a71461029257806305271a2a146102b557806306517a29146102ca57806306fdde03146102d3578063076d948c146102e8578063081812fc146102fb578063095ea7b31461032657806316f0115b1461033b5780631cecaa311461034e57806323b872dd1461036f578063248a9ca314610382578063263f3e7e146103955780632f2ff15d146103a857806336568abe146103bb578063409e2205146103ce578063426a84931461043157806342842e0e1461044457806342966c68146104575780634aed53c21461046a5780634f558e791461047d5780636198e339146104905780636352211e146104a357806369c67247146104b657806370a08231146104d6578063715018a6146104e957806375794a3c146104f157806378c533ce146104fa57806379502c551461051a5780638a5841181461052d5780638da5cb5b1461057857806391d148541461058057806395d89b4114610593578063992642e51461059b578063a217fddf146105ae578063a22cb465146105b6578063a6d14c02146105c9578063a8800425146105d1578063b07f0a41146105e4578063b888879e146105f7578063b88d4fde1461060a578063bbe33ea51461061d578063becef60714610630578063c7c3b53f14610643578063c87b56dd14610665578063d149cc3014610678578063d547741f1461068b578063d5a0e6731461069e578063e342b598146106be578063e345e0bc146106d1578063e985e9c51461070b578063f2fde38b1461071e578063fe99049a14610731575b600080fd5b61027f61027a366004614f3f565b610744565b6040519081526020015b60405180910390f35b6102a56102a0366004614ea6565b6113d2565b6040519015158152602001610289565b600e5460405160ff9091168152602001610289565b61027f600d5481565b6102db6113e3565b604051610289919061524e565b61027f6102f6366004614e6a565b611475565b61030e610309366004614e6a565b6114ba565b6040516001600160a01b039091168152602001610289565b610339610334366004614d67565b611542565b005b60155461030e906001600160a01b031681565b60125461036290600160a01b900460ff1681565b60405161028991906151e4565b61033961037d366004614be9565b611653565b61027f610390366004614e6a565b611684565b61027f6103a3366004614e6a565b611699565b6103396103b6366004614e82565b6116ab565b6103396103c9366004614e82565b6116c8565b61041e6103dc366004614e6a565b601460205260009081526040902080546001820154600283015460038401546004850154600586015460069096015460ff958616969495939492939192911687565b60405161028997969594939291906151f2565b61033961043f366004614d92565b611746565b610339610452366004614be9565b61178a565b610339610465366004614e6a565b6117a5565b610339610478366004614cea565b6117ea565b6102a561048b366004614e6a565b61190c565b61033961049e366004614e6a565b611917565b61030e6104b1366004614e6a565b611a69565b6104c96104c4366004614ef6565b611ae0565b60405161028991906151a0565b61027f6104e4366004614b79565b611ed2565b610339611f59565b61027f60135481565b61027f610508366004614e6a565b600f6020526000908152604090205481565b60165461030e906001600160a01b031681565b61056861053b366004614e6a565b60176020526000908152604090208054600182015460029092015490919060ff8082169161010090041684565b60405161028994939291906153a9565b61030e611f94565b6102a561058e366004614e82565b611fa3565b6102db611fce565b60105461030e906001600160a01b031681565b61027f600081565b6103396105c4366004614d3a565b611fdd565b61027f600581565b61027f6105df366004614e6a565b61209e565b61027f6105f2366004614e6a565b6120b5565b60125461030e906001600160a01b031681565b610339610618366004614c29565b6127a2565b61033961062b366004614e05565b6127db565b61027f61063e366004614e6a565b6129ea565b610656610651366004614fe4565b6129fc565b6040516102899392919061541e565b6102db610673366004614e6a565b612b3f565b61027f610686366004614f96565b612b4a565b610339610699366004614e82565b612b69565b61027f6106ac366004614e6a565b600a6020526000908152604090205481565b6103396106cc366004614dc6565b612b86565b61027f6106df366004614e82565b6000828152600b602090815260408083206001600160a01b038516845260010190915290205492915050565b6102a5610719366004614bb1565b612bd3565b61033961072c366004614b79565b612c01565b61027f61073f366004614ca5565b612c9e565b60006002600754141561079e5760405162461bcd60e51b815260206004820152601f60248201527f5265656e7472616e637947756172643a207265656e7472616e742063616c6c0060448201526064015b60405180910390fd5b60026007556015546040805163392e53cd60e01b815290516001600160a01b039092169163392e53cd91600480820192602092909190829003018186803b1580156107e857600080fd5b505afa1580156107fc573d6000803e3d6000fd5b505050506040513d601f19601f820116820180604052508101906108209190614e4e565b80156108ad5750601660009054906101000a90046001600160a01b03166001600160a01b031663392e53cd6040518163ffffffff1660e01b815260040160206040518083038186803b15801561087557600080fd5b505afa158015610889573d6000803e3d6000fd5b505050506040513d601f19601f820116820180604052508101906108ad9190614e4e565b6108f25760405162461bcd60e51b8152602060048201526016602482015275496e697469616c697a6174696f6e2070656e64696e6760501b6044820152606401610795565b6015546040805163a834069b60e01b815290516000926001600160a01b03169163a834069b916004808301926020929190829003018186803b15801561093757600080fd5b505afa15801561094b573d6000803e3d6000fd5b505050506040513d601f19601f8201168201806040525081019061096f9190614ede565b90504281116109905760405162461bcd60e51b81526004016107959061538d565b600061099c42836155b7565b905061a8c08110156109c05760405162461bcd60e51b81526004016107959061538d565b6000806000610a628489601660009054906101000a90046001600160a01b03166001600160a01b0316635ee971016040518163ffffffff1660e01b815260040160206040518083038186803b158015610a1857600080fd5b505afa158015610a2c573d6000803e3d6000fd5b505050506040513d601f19601f82011682018060405250810190610a509190614ede565b601254600160a01b900460ff166129fc565b919450925090506005610a75858a615598565b610a7f9190615598565b610a8d846301e13380615598565b610a98906064615598565b11610aca5760405162461bcd60e51b8152602060048201526002602482015261279960f11b6044820152606401610795565b60125460408051630d67aac160e11b815290516000926001600160a01b031691631acf5582916004808301926020929190829003018186803b158015610b0f57600080fd5b505afa158015610b23573d6000803e3d6000fd5b505050506040513d601f19601f82011682018060405250810190610b479190614ede565b90506000601560009054906101000a90046001600160a01b03166001600160a01b03166316dc165b6040518163ffffffff1660e01b815260040160206040518083038186803b158015610b9957600080fd5b505afa158015610bad573d6000803e3d6000fd5b505050506040513d601f19601f82011682018060405250810190610bd19190614b95565b6001600160a01b031663313ce5676040518163ffffffff1660e01b815260040160206040518083038186803b158015610c0957600080fd5b505afa158015610c1d573d6000803e3d6000fd5b505050506040513d601f19601f82011682018060405250810190610c419190615027565b610c4c90600a6154ed565b9050601560009054906101000a90046001600160a01b03166001600160a01b031663a4475ce46040518163ffffffff1660e01b815260040160206040518083038186803b158015610c9c57600080fd5b505afa158015610cb0573d6000803e3d6000fd5b505050506040513d601f19601f82011682018060405250810190610cd49190614b95565b6001600160a01b0316336001600160a01b031614610e50576010546000906001600160a01b03166323b872dd3330610d10866305f5e100615598565b601060009054906101000a90046001600160a01b03166001600160a01b031663313ce5676040518163ffffffff1660e01b815260040160206040518083038186803b158015610d5e57600080fd5b505afa158015610d72573d6000803e3d6000fd5b505050506040513d601f19601f82011682018060405250810190610d969190615027565b610da190600a6154ed565b610dab898d615598565b610db59190615598565b610dbf9190615496565b6040518463ffffffff1660e01b8152600401610ddd93929190615126565b602060405180830381600087803b158015610df757600080fd5b505af1158015610e0b573d6000803e3d6000fd5b505050506040513d601f19601f82011682018060405250810190610e2f9190614e4e565b905080610e4e5760405162461bcd60e51b8152600401610795906152cf565b505b6040805160e081018252600181526016548251635ee9710160e01b815292516000936020808501936001600160a01b031692635ee97101926004808201939291829003018186803b158015610ea457600080fd5b505afa158015610eb8573d6000803e3d6000fd5b505050506040513d601f19601f82011682018060405250810190610edc9190614ede565b81526020018c81526020018c81526020018581526020018842610eff919061547e565b8152602001601260149054906101000a900460ff166002811115610f3357634e487b7160e01b600052602160045260246000fd5b90529050610f3f612d75565b9850610f4b8982612d8f565b610f788933610f738c85602001518660a00151601260149054906101000a900460ff16612e47565b612f85565b610f82898b612fa8565b610f958982606001518360800151612fb2565b601560009054906101000a90046001600160a01b03166001600160a01b031663a4475ce46040518163ffffffff1660e01b815260040160206040518083038186803b158015610fe357600080fd5b505afa158015610ff7573d6000803e3d6000fd5b505050506040513d601f19601f8201168201806040525081019061101b9190614b95565b6001600160a01b0316336001600160a01b0316146113785760105460155460408051632911d73960e21b815290516001600160a01b039384169363a9059cbb93169163a4475ce4916004808301926020929190829003018186803b15801561108257600080fd5b505afa158015611096573d6000803e3d6000fd5b505050506040513d601f19601f820116820180604052508101906110ba9190614b95565b6110c8856305f5e100615598565b601060009054906101000a90046001600160a01b03166001600160a01b031663313ce5676040518163ffffffff1660e01b815260040160206040518083038186803b15801561111657600080fd5b505afa15801561112a573d6000803e3d6000fd5b505050506040513d601f19601f8201168201806040525081019061114e9190615027565b61115990600a6154ed565b611163888a615598565b61116d9190615598565b6111779190615496565b6040518363ffffffff1660e01b8152600401611194929190615187565b602060405180830381600087803b1580156111ae57600080fd5b505af11580156111c2573d6000803e3d6000fd5b505050506040513d601f19601f820116820180604052508101906111e69190614e4e565b506010546001600160a01b031663a9059cbb611200611f94565b61120e856305f5e100615598565b601060009054906101000a90046001600160a01b03166001600160a01b031663313ce5676040518163ffffffff1660e01b815260040160206040518083038186803b15801561125c57600080fd5b505afa158015611270573d6000803e3d6000fd5b505050506040513d601f19601f820116820180604052508101906112949190615027565b61129f90600a6154ed565b6112a9888b615598565b6112b39190615598565b6112bd9190615496565b6040518363ffffffff1660e01b81526004016112da929190615187565b602060405180830381600087803b1580156112f457600080fd5b505af1158015611308573d6000803e3d6000fd5b505050506040513d601f19601f8201168201806040525081019061132c9190614e4e565b50611335611f94565b6001600160a01b03167ff0f0487d8990103573e0e5cf4e87e101e2a1ba84c733c556b7a5807e570e5d4c8660405161136f91815260200190565b60405180910390a25b336001600160a01b0316897f89f823a0225c73a75066e963ce2eea7708b57680ec86102773dbd244f541289287898e6040516113b6939291906153ff565b60405180910390a3505060016007555094979650505050505050565b60006113dd8261301d565b92915050565b6060600080546113f290615611565b80601f016020809104026020016040519081016040528092919081815260200182805461141e90615611565b801561146b5780601f106114405761010080835404028352916020019161146b565b820191906000526020600020905b81548152906001019060200180831161144e57829003601f168201915b5050505050905090565b6000805b6114828361209e565b8110156114b45761149661063e8483612b4a565b6114a0908361547e565b9150806114ac81615646565b915050611479565b50919050565b60006114c582613042565b6115265760405162461bcd60e51b815260206004820152602c60248201527f4552433732313a20617070726f76656420717565727920666f72206e6f6e657860448201526b34b9ba32b73a103a37b5b2b760a11b6064820152608401610795565b506000908152600460205260409020546001600160a01b031690565b600061154d82611a69565b9050806001600160a01b0316836001600160a01b031614156115bb5760405162461bcd60e51b815260206004820152602160248201527f4552433732313a20617070726f76616c20746f2063757272656e74206f776e656044820152603960f91b6064820152608401610795565b336001600160a01b03821614806115d757506115d78133612bd3565b6116445760405162461bcd60e51b815260206004820152603860248201527f4552433732313a20617070726f76652063616c6c6572206973206e6f74206f776044820152771b995c881b9bdc88185c1c1c9bdd995908199bdc88185b1b60421b6064820152608401610795565b61164e838361305f565b505050565b61165d33826130cd565b6116795760405162461bcd60e51b81526004016107959061533c565b61164e838383613197565b60009081526008602052604090206001015490565b6000908152600a602052604090205490565b6116b482611684565b6116be8133613330565b61164e8383613394565b6001600160a01b03811633146117385760405162461bcd60e51b815260206004820152602f60248201527f416363657373436f6e74726f6c3a2063616e206f6e6c792072656e6f756e636560448201526e103937b632b9903337b91039b2b63360891b6064820152608401610795565b611742828261341a565b5050565b61174f82611a69565b6001600160a01b0316336001600160a01b03161461177f5760405162461bcd60e51b815260040161079590615261565b61164e838383613481565b61164e838383604051806020016040528060008152506127a2565b6117ae81611a69565b6001600160a01b0316336001600160a01b0316146117de5760405162461bcd60e51b815260040161079590615261565b6117e781613546565b50565b6117f38261190c565b6118255760405162461bcd60e51b815260206004820152600360248201526227189960e91b6044820152606401610795565b6000806000611834868561355e565b5092509250925060006118468661368b565b9050611882868284846060015161185d919061547e565b87856040015161186d919061547e565b87866080015161187d919061547e565b61377a565b601554606082015160808301516040516357a5c96760e01b81529394506001600160a01b03909216926357a5c967926118c2928b9290919060040161541e565b600060405180830381600087803b1580156118dc57600080fd5b505af11580156118f0573d6000803e3d6000fd5b5050505061190189898989896137ac565b505050505050505050565b60006113dd82613042565b60008181526014602052604090206005810154421161195d5760405162461bcd60e51b815260206004820152600260248201526113cd60f21b6044820152606401610795565b6001815460ff16600381111561198357634e487b7160e01b600052602160045260246000fd5b146119b55760405162461bcd60e51b81526020600482015260026024820152614f3560f01b6044820152606401610795565b805460ff19166003178155601554604051636198e33960e01b8152600481018490526001600160a01b0390911690636198e33990602401600060405180830381600087803b158015611a0657600080fd5b505af1158015611a1a573d6000803e3d6000fd5b50505050611a2782613546565b817f5f36a4a575e512eb69d6d28c3b0ff98cca7ba50ad5bf04e14094ad1d425e0d318260040154604051611a5d91815260200190565b60405180910390a25050565b6000818152600260205260408120546001600160a01b0316806113dd5760405162461bcd60e51b815260206004820152602960248201527f4552433732313a206f776e657220717565727920666f72206e6f6e657869737460448201526832b73a103a37b5b2b760b91b6064820152608401610795565b606081611b145760405162461bcd60e51b81526020600482015260026024820152614e3160f01b6044820152606401610795565b816001600160401b03811115611b3a57634e487b7160e01b600052604160045260246000fd5b604051908082528060200260200182016040528015611b63578160200160208202803683370190505b5090506000611b718561368b565b90506000611b7e866129ea565b905060008080805b87811015611d91576000611b98612d75565b905080888381518110611bbb57634e487b7160e01b600052603260045260246000fd5b602002602001018181525050611bf88b828c8c86818110611bec57634e487b7160e01b600052603260045260246000fd5b905060200201356139f2565b6000868b8b85818110611c1b57634e487b7160e01b600052603260045260246000fd5b905060200201358960400151611c319190615598565b611c3b9190615496565b9050611c47818761547e565b95506000878c8c86818110611c6c57634e487b7160e01b600052603260045260246000fd5b905060200201358a60600151611c829190615598565b611c8c9190615496565b9050611c98818761547e565b95506000888d8d87818110611cbd57634e487b7160e01b600052603260045260246000fd5b905060200201358b60800151611cd39190615598565b611cdd9190615496565b9050611ce9818761547e565b955060006040518060e001604052808c600001516003811115611d1c57634e487b7160e01b600052602160045260246000fd5b81526020018c6020015181526020018581526020018481526020018381526020018c60a0015181526020018c60c001516002811115611d6b57634e487b7160e01b600052602160045260246000fd5b90529050611d798582612d8f565b50505050508080611d8990615646565b915050611b86565b50611dc78986848860600151611da791906155b7565b868960400151611db791906155b7565b858a6080015161187d91906155b7565b601554606082015160808301516040516357a5c96760e01b81529398506001600160a01b03909216926357a5c96792611e07928e9290919060040161541e565b600060405180830381600087803b158015611e2157600080fd5b505af1158015611e35573d6000803e3d6000fd5b5050505060005b87811015611ec5576000611e76888381518110611e6957634e487b7160e01b600052603260045260246000fd5b602002602001015161368b565b9050611eb2888381518110611e9b57634e487b7160e01b600052603260045260246000fd5b602002602001015182606001518360800151612fb2565b5080611ebd81615646565b915050611e3c565b5050505050509392505050565b60006001600160a01b038216611f3d5760405162461bcd60e51b815260206004820152602a60248201527f4552433732313a2062616c616e636520717565727920666f7220746865207a65604482015269726f206164647265737360b01b6064820152608401610795565b506001600160a01b031660009081526003602052604090205490565b33611f62611f94565b6001600160a01b031614611f885760405162461bcd60e51b815260040161079590615307565b611f926000613b1c565b565b6006546001600160a01b031690565b60009182526008602090815260408084206001600160a01b0393909316845291905290205460ff1690565b6060600180546113f290615611565b6001600160a01b0382163314156120325760405162461bcd60e51b815260206004820152601960248201527822a9219b99189d1030b8383937bb32903a379031b0b63632b960391b6044820152606401610795565b3360008181526005602090815260408083206001600160a01b03871680855290835292819020805460ff191686151590811790915590519081529192917f17307eab39ab6107e8899845ad3d59bd9653f200f220920489ca2b5937696c31910160405180910390a35050565b6000818152600c602052604081206113dd90613b6e565b6000806120c183611a69565b9050336001600160a01b038216146121015760405162461bcd60e51b815260206004820152600360248201526227989960e91b6044820152606401610795565b600083815260146020526040902060058101544211156121495760405162461bcd60e51b81526020600482015260036024820152624f313360e81b6044820152606401610795565b6001815460ff16600381111561216f57634e487b7160e01b600052602160045260246000fd5b146121a25760405162461bcd60e51b815260206004820152600360248201526213cc4d60ea1b6044820152606401610795565b60125460408051630d67aac160e11b815290516000926001600160a01b031691631acf5582916004808301926020929190829003018186803b1580156121e757600080fd5b505afa1580156121fb573d6000803e3d6000fd5b505050506040513d601f19601f8201168201806040525081019061221f9190614ede565b90506002600683015460ff16600281111561224a57634e487b7160e01b600052602160045260246000fd5b141561228e5780826001015411156122895760405162461bcd60e51b8152602060048201526002602482015261279b60f11b6044820152606401610795565b6122c7565b80826001015410156122c75760405162461bcd60e51b81526020600482015260026024820152614f3760f01b6044820152606401610795565b601554604080516316dc165b60e01b815290516000926001600160a01b0316916316dc165b916004808301926020929190829003018186803b15801561230c57600080fd5b505afa158015612320573d6000803e3d6000fd5b505050506040513d601f19601f820116820180604052508101906123449190614b95565b6001600160a01b031663313ce5676040518163ffffffff1660e01b815260040160206040518083038186803b15801561237c57600080fd5b505afa158015612390573d6000803e3d6000fd5b505050506040513d601f19601f820116820180604052508101906123b49190615027565b6123bf90600a6154ed565b905060006123d1826305f5e100615598565b601060009054906101000a90046001600160a01b03166001600160a01b031663313ce5676040518163ffffffff1660e01b815260040160206040518083038186803b15801561241f57600080fd5b505afa158015612433573d6000803e3d6000fd5b505050506040513d601f19601f820116820180604052508101906124579190615027565b61246290600a6154ed565b856002015486600101546124769190615598565b6124809190615598565b61248a9190615496565b9050601560009054906101000a90046001600160a01b03166001600160a01b031663a4475ce46040518163ffffffff1660e01b815260040160206040518083038186803b1580156124da57600080fd5b505afa1580156124ee573d6000803e3d6000fd5b505050506040513d601f19601f820116820180604052508101906125129190614b95565b6001600160a01b0316336001600160a01b0316146126ca576010546040516323b872dd60e01b81526000916001600160a01b0316906323b872dd9061255f90339030908790600401615126565b602060405180830381600087803b15801561257957600080fd5b505af115801561258d573d6000803e3d6000fd5b505050506040513d601f19601f820116820180604052508101906125b19190614e4e565b9050806125d05760405162461bcd60e51b8152600401610795906152cf565b60105460155460408051632911d73960e21b815290516001600160a01b039384169363a9059cbb93169163a4475ce4916004808301926020929190829003018186803b15801561261f57600080fd5b505afa158015612633573d6000803e3d6000fd5b505050506040513d601f19601f820116820180604052508101906126579190614b95565b846040518363ffffffff1660e01b8152600401612675929190615187565b602060405180830381600087803b15801561268f57600080fd5b505af11580156126a3573d6000803e3d6000fd5b505050506040513d601f19601f820116820180604052508101906126c79190614e4e565b50505b6015546001600160a01b03166381b34f15886126e581611a69565b60038801546040516001600160e01b031960e086901b16815260048101939093526001600160a01b0390911660248301526044820152606401600060405180830381600087803b15801561273857600080fd5b505af115801561274c573d6000803e3d6000fd5b5050505061275987613546565b835460ff1916600217845560405186815287907e84fe51c7cb34b132b7b6eb5d5a87a489f8d6d284758d00a0402c1bad9a0def9060200160405180910390a25050505050919050565b6127ad335b836130cd565b6127c95760405162461bcd60e51b81526004016107959061533c565b6127d584848484613b78565b50505050565b8161280d5760405162461bcd60e51b8152602060048201526002602482015261138d60f21b6044820152606401610795565b60006128188261368b565b606081015160408201516080830151929350909160005b8681101561296c57600061286889898481811061285c57634e487b7160e01b600052603260045260246000fd5b9050602002013561368b565b905080606001518561287a919061547e565b945080604001518461288c919061547e565b935080608001518361289e919061547e565b6015549093506001600160a01b0316630dbf21b08a8a858181106128d257634e487b7160e01b600052603260045260246000fd5b905060200201356040518263ffffffff1660e01b81526004016128f791815260200190565b600060405180830381600087803b15801561291157600080fd5b505af1158015612925573d6000803e3d6000fd5b5050505061295989898481811061294c57634e487b7160e01b600052603260045260246000fd5b9050602002013588613bab565b508061296481615646565b91505061282f565b5061297a858585858561377a565b506015546040516357a5c96760e01b81526001600160a01b03909116906357a5c967906129af9088908790869060040161541e565b600060405180830381600087803b1580156129c957600080fd5b505af11580156129dd573d6000803e3d6000fd5b5050505050505050505050565b6000908152600f602052604090205490565b600080600080601260009054906101000a90046001600160a01b03166001600160a01b0316631acf55826040518163ffffffff1660e01b815260040160206040518083038186803b158015612a5057600080fd5b505afa158015612a64573d6000803e3d6000fd5b505050506040513d601f19601f82011682018060405250810190612a889190614ede565b601654601554604051634767b4b360e01b815292935073__$b949255e90277c788dcf25edf1f9288c61$__92634767b4b392612ade928d928d928d928d928a926001600160a01b03908116921690600401615434565b60606040518083038186803b158015612af657600080fd5b505af4158015612b0a573d6000803e3d6000fd5b505050506040513d601f19601f82011682018060405250810190612b2e9190614fb7565b919a90995090975095505050505050565b60606113dd82613d27565b6000828152600c60205260408120612b629083613e89565b9392505050565b612b7282611684565b612b7c8133613330565b61164e838361341a565b8060005b818110156127d557612bc1848483818110612bb557634e487b7160e01b600052603260045260246000fd5b90506020020135611917565b80612bcb81615646565b915050612b8a565b6001600160a01b03918216600090815260056020908152604080832093909416825291909152205460ff1690565b33612c0a611f94565b6001600160a01b031614612c305760405162461bcd60e51b815260040161079590615307565b6001600160a01b038116612c955760405162461bcd60e51b815260206004820152602660248201527f4f776e61626c653a206e6577206f776e657220697320746865207a65726f206160448201526564647265737360d01b6064820152608401610795565b6117e781613b1c565b6000612ca8612d75565b9050600080600080612cba878761355e565b935093509350935060006040518060e0016040528083600001516003811115612cf357634e487b7160e01b600052602160045260246000fd5b8152602001836020015181526020018681526020018481526020018581526020018360a0015181526020018360c001516002811115612d4257634e487b7160e01b600052602160045260246000fd5b90529050612d508682612d8f565b612d5b868486612fb2565b612d688a8a8a898b6137ac565b5050505050949350505050565b6013805460009182612d8683615646565b91905055905090565b60008281526014602052604090208151815483929190829060ff19166001836003811115612dcd57634e487b7160e01b600052602160045260246000fd5b02179055506020820151816001015560408201518160020155606082015181600301556080820151816004015560a0820151816005015560c08201518160060160006101000a81548160ff02191690836002811115612e3c57634e487b7160e01b600052602160045260246000fd5b021790555050505050565b600083838387604051602001612e6094939291906153d5565b60408051808303601f19018152918152815160209283012060008181526017909352912060020154909150610100900460ff1615612ec65760405162461bcd60e51b8152602060048201526003602482015262138c4d60ea1b6044820152606401610795565b6040518060800160405280858152602001848152602001836002811115612efd57634e487b7160e01b600052602160045260246000fd5b815260016020918201819052600084815260178352604090819020845181559284015183830155830151600280840180549293909260ff1916918490811115612f5657634e487b7160e01b600052602160045260246000fd5b021790555060609190910151600290910180549115156101000261ff0019909216919091179055949350505050565b6000838152600a60205260409020819055600d5461164e90839085908490613e95565b6117428282613f1f565b60155460405163edd0d42160e01b81526001600160a01b039091169063edd0d42190612fe69086908690869060040161541e565b600060405180830381600087803b15801561300057600080fd5b505af1158015613014573d6000803e3d6000fd5b50505050505050565b60006001600160e01b03198216637965db0b60e01b14806113dd57506113dd82613faa565b6000908152600260205260409020546001600160a01b0316151590565b600081815260046020526040902080546001600160a01b0319166001600160a01b038416908117909155819061309482611a69565b6001600160a01b03167f8c5be1e5ebec7d5bd14f71427d1e84f3dd0314c0f7b2291e5b200ac8c7c3b92560405160405180910390a45050565b60006130d882613042565b6131395760405162461bcd60e51b815260206004820152602c60248201527f4552433732313a206f70657261746f7220717565727920666f72206e6f6e657860448201526b34b9ba32b73a103a37b5b2b760a11b6064820152608401610795565b600061314483611a69565b9050806001600160a01b0316846001600160a01b0316148061317f5750836001600160a01b0316613174846114ba565b6001600160a01b0316145b8061318f575061318f8185612bd3565b949350505050565b826001600160a01b03166131aa82611a69565b6001600160a01b0316146132125760405162461bcd60e51b815260206004820152602960248201527f4552433732313a207472616e73666572206f6620746f6b656e2074686174206960448201526839903737ba1037bbb760b91b6064820152608401610795565b6001600160a01b0382166132745760405162461bcd60e51b8152602060048201526024808201527f4552433732313a207472616e7366657220746f20746865207a65726f206164646044820152637265737360e01b6064820152608401610795565b61327f838383613ffa565b61328a60008261305f565b6001600160a01b03831660009081526003602052604081208054600192906132b39084906155b7565b90915550506001600160a01b03821660009081526003602052604081208054600192906132e190849061547e565b909155505060008181526002602052604080822080546001600160a01b0319166001600160a01b03868116918217909255915184939187169160008051602061572983398151915291a4505050565b61333a8282611fa3565b61174257613352816001600160a01b03166014614012565b61335d836020614012565b60405160200161336e9291906150b7565b60408051601f198184030181529082905262461bcd60e51b82526107959160040161524e565b61339e8282611fa3565b6117425760008281526008602090815260408083206001600160a01b03851684529091529020805460ff191660011790556133d63390565b6001600160a01b0316816001600160a01b0316837f2f8788117e7eff1d82e926ec794901d17c78024a50270940304540a733656f0d60405160405180910390a45050565b6134248282611fa3565b156117425760008281526008602090815260408083206001600160a01b0385168085529252808320805460ff1916905551339285917ff6391f5c32d9c69d2a47ea670b442974b53935d1edc7fd64eb21e047a839171b9190a45050565b6000828152600b602090815260408083206001600160a01b03871684526001019091529020546134e3576000828152600b602090815260408220805460018101825590835291200180546001600160a01b0319166001600160a01b0385161790555b6000828152600b602090815260408083206001600160a01b0387168085526001909101835292819020849055518381528492917f8a156bd946dc74ec284c5f4b365ce75ef2a5b9d9462b4cdb1d2400cabf136541910160405180910390a3505050565b6000818152600a60205260408120556117e7816141f3565b600080600061356b6149c6565b6135748661368b565b90506000613581876129ea565b9050808683604001516135949190615598565b61359e9190615496565b9450808683608001516135b19190615598565b6135bb9190615496565b9350808683606001516135ce9190615598565b6135d89190615496565b925061360f87838585606001516135ef91906155b7565b8886604001516135ff91906155b7565b88876080015161187d91906155b7565b601554606082015160808301516040516357a5c96760e01b81529395506001600160a01b03909216926357a5c9679261364f928c9290919060040161541e565b600060405180830381600087803b15801561366957600080fd5b505af115801561367d573d6000803e3d6000fd5b505050505092959194509250565b6136936149c6565b60008281526014602052604090819020815160e081019092528054829060ff1660038111156136d257634e487b7160e01b600052602160045260246000fd5b60038111156136f157634e487b7160e01b600052602160045260246000fd5b81526001820154602082015260028083015460408301526003830154606083015260048301546080830152600583015460a0830152600683015460c09092019160ff169081111561375257634e487b7160e01b600052602160045260246000fd5b600281111561377157634e487b7160e01b600052602160045260246000fd5b90525092915050565b6137826149c6565b50606084018390526040840182905260808401819052836137a38682612d8f565b95945050505050565b6137b583611a69565b6001600160a01b0316856001600160a01b0316146137fa5760405162461bcd60e51b81526020600482015260026024820152614e3960f01b6044820152606401610795565b6001600160a01b0384166138365760405162461bcd60e51b815260206004820152600360248201526204e31360ec1b6044820152606401610795565b336001600160a01b0386161480159061385657506138548533612bd3565b155b156138a1576000838152600b602090815260408083203384526001019091529020546138839082906155b7565b6000848152600b602090815260408083203384526001019091529020555b6000838152600f60205260409020546138bb9082906155b7565b6000848152600f60205260409020556138d382613042565b6138f0576138eb84836138e586611699565b84613e95565b613998565b836001600160a01b031661390383611a69565b6001600160a01b03161461393f5760405162461bcd60e51b81526020600482015260036024820152624e313160e81b6044820152606401610795565b61394882611699565b61395184611699565b1461396e5760405162461bcd60e51b8152600401610795906152eb565b6000828152600f602052604090205461398890829061547e565b6000838152600f60205260409020555b6000838152600a60205260408082205484835291819020919091555183906001600160a01b038087169190881690600080516020615749833981519152906139e39087908790615240565b60405180910390a45050505050565b6139fc33846130cd565b613a2d5760405162461bcd60e51b8152602060048201526002602482015261271960f11b6044820152606401610795565b613a3682613042565b15613a685760405162461bcd60e51b81526020600482015260026024820152614e3360f01b6044820152606401610795565b613a8782613a7585611699565b6000918252600a602052604090912055565b6000838152600f6020526040902054613aa19082906155b7565b6000848152600f6020526040812091909155613abc84611a69565b9050613ad28184613acc87611699565b85613e95565b83816001600160a01b03167ff66885c33d648fcd0d97e0f2a18e30102169c22763473af0fb716f11b4a17dd68585604051613b0e929190615240565b60405180910390a350505050565b600680546001600160a01b038381166001600160a01b0319831681179093556040519116919082907f8be0079c531659141344cd1fd0a4f28419497f9722a3daafe3b4186f6b6457e090600090a35050565b60006113dd825490565b613b83848484613197565b613b8f84848484614285565b6127d55760405162461bcd60e51b81526004016107959061527d565b613bb4336127a7565b613be55760405162461bcd60e51b81526020600482015260026024820152614e3560f01b6044820152606401610795565b80821415613c1a5760405162461bcd60e51b8152602060048201526002602482015261271b60f11b6044820152606401610795565b613c2381611699565b613c2c83611699565b14613c495760405162461bcd60e51b8152600401610795906152eb565b6000613c5483611a69565b9050613c5f82611a69565b6001600160a01b0316816001600160a01b031614613ca45760405162461bcd60e51b815260206004820152600260248201526109c760f31b6044820152606401610795565b6000838152600f602052604080822054848352912054613cc4908261547e565b6000848152600f6020526040902055613cdc84613546565b8284836001600160a01b03167fb3ce851d16b3bbec3774d5631a3893dfa2a80e067cfad265dd594402ac3d609684604051613d1991815260200190565b60405180910390a450505050565b6060613d3282613042565b613d985760405162461bcd60e51b815260206004820152603160248201527f45524337323155524953746f726167653a2055524920717565727920666f72206044820152703737b732bc34b9ba32b73a103a37b5b2b760791b6064820152608401610795565b60008281526009602052604081208054613db190615611565b80601f0160208091040260200160405190810160405280929190818152602001828054613ddd90615611565b8015613e2a5780601f10613dff57610100808354040283529160200191613e2a565b820191906000526020600020905b815481529060010190602001808311613e0d57829003601f168201915b505050505090506000613e3b614392565b9050805160001415613e4e575092915050565b815115613e80578082604051602001613e68929190615088565b60405160208183030381529060405292505050919050565b61318f846143b2565b6000612b62838361447c565b613e9e83613042565b613ec657613eac84846144b4565b6000828152600c60205260409020613ec490846145e0565b505b6000838152600f6020526040902054613ee090829061547e565b6000848152600f60205260408082209290925590516001600160a01b03861690829060008051602061574983398151915290613d199088908790615240565b613f2882613042565b613f8b5760405162461bcd60e51b815260206004820152602e60248201527f45524337323155524953746f726167653a2055524920736574206f66206e6f6e60448201526d32bc34b9ba32b73a103a37b5b2b760911b6064820152608401610795565b6000828152600960209081526040909120825161164e92840190614a22565b60006001600160e01b031982166380ac58cd60e01b1480613fdb57506001600160e01b03198216635b5e139f60e01b145b806113dd57506301ffc9a760e01b6001600160e01b03198316146113dd565b6001600160a01b0383161561164e5761164e816145ec565b60606000614021836002615598565b61402c90600261547e565b6001600160401b0381111561405157634e487b7160e01b600052604160045260246000fd5b6040519080825280601f01601f19166020018201604052801561407b576020820181803683370190505b509050600360fc1b816000815181106140a457634e487b7160e01b600052603260045260246000fd5b60200101906001600160f81b031916908160001a905350600f60fb1b816001815181106140e157634e487b7160e01b600052603260045260246000fd5b60200101906001600160f81b031916908160001a9053506000614105846002615598565b61411090600161547e565b90505b60018111156141a4576f181899199a1a9b1b9c1cb0b131b232b360811b85600f166010811061415257634e487b7160e01b600052603260045260246000fd5b1a60f81b82828151811061417657634e487b7160e01b600052603260045260246000fd5b60200101906001600160f81b031916908160001a90535060049490941c9361419d816155fa565b9050614113565b508315612b625760405162461bcd60e51b815260206004820181905260248201527f537472696e67733a20686578206c656e67746820696e73756666696369656e746044820152606401610795565b60006141fe82611a69565b9050600061420b83611699565b6000848152600f6020908152604080832054848452600c9092529091209192509061423690856146a0565b506000848152600f602052604081205561424f846146ac565b8360006001600160a01b0316846001600160a01b0316600080516020615749833981519152600085604051613d19929190615240565b60006001600160a01b0384163b1561438757604051630a85bd0160e11b81526001600160a01b0385169063150b7a02906142c990339089908890889060040161514a565b602060405180830381600087803b1580156142e357600080fd5b505af1925050508015614313575060408051601f3d908101601f1916820190925261431091810190614ec2565b60015b61436d573d808015614341576040519150601f19603f3d011682016040523d82523d6000602084013e614346565b606091505b5080516143655760405162461bcd60e51b81526004016107959061527d565b805181602001fd5b6001600160e01b031916630a85bd0160e11b14905061318f565b506001949350505050565b606060405180606001604052806022815260200161570760229139905090565b60606143bd82613042565b6144215760405162461bcd60e51b815260206004820152602f60248201527f4552433732314d657461646174613a2055524920717565727920666f72206e6f60448201526e3732bc34b9ba32b73a103a37b5b2b760891b6064820152608401610795565b600061442b614392565b9050600081511161444b5760405180602001604052806000815250612b62565b8061445584614741565b604051602001614466929190615088565b6040516020818303038152906040529392505050565b60008260000182815481106144a157634e487b7160e01b600052603260045260246000fd5b9060005260206000200154905092915050565b6001600160a01b03821661450a5760405162461bcd60e51b815260206004820181905260248201527f4552433732313a206d696e7420746f20746865207a65726f20616464726573736044820152606401610795565b61451381613042565b1561455f5760405162461bcd60e51b815260206004820152601c60248201527b115490cdcc8c4e881d1bdad95b88185b1c9958591e481b5a5b9d195960221b6044820152606401610795565b61456b60008383613ffa565b6001600160a01b038216600090815260036020526040812080546001929061459490849061547e565b909155505060008181526002602052604080822080546001600160a01b0319166001600160a01b0386169081179091559051839290600080516020615729833981519152908290a45050565b6000612b62838361485a565b6000818152600b60205260408120905b815481101561164e5781600101600083600001838154811061462e57634e487b7160e01b600052603260045260246000fd5b60009182526020808320909101546001600160a01b03168352820192909252604001812055815482908290811061467557634e487b7160e01b600052603260045260246000fd5b600091825260209091200180546001600160a01b03191690558061469881615646565b9150506145fc565b6000612b6283836148a9565b60006146b782611a69565b90506146c581600084613ffa565b6146d060008361305f565b6001600160a01b03811660009081526003602052604081208054600192906146f99084906155b7565b909155505060008281526002602052604080822080546001600160a01b0319169055518391906001600160a01b03841690600080516020615729833981519152908390a45050565b6060816147655750506040805180820190915260018152600360fc1b602082015290565b8160005b811561478f578061477981615646565b91506147889050600a83615496565b9150614769565b6000816001600160401b038111156147b757634e487b7160e01b600052604160045260246000fd5b6040519080825280601f01601f1916602001820160405280156147e1576020820181803683370190505b5090505b841561318f576147f66001836155b7565b9150614803600a86615661565b61480e90603061547e565b60f81b81838151811061483157634e487b7160e01b600052603260045260246000fd5b60200101906001600160f81b031916908160001a905350614853600a86615496565b94506147e5565b60008181526001830160205260408120546148a1575081546001818101845560008481526020808220909301849055845484825282860190935260409020919091556113dd565b5060006113dd565b600081815260018301602052604081205480156149bc5760006148cd6001836155b7565b85549091506000906148e1906001906155b7565b905081811461496257600086600001828154811061490f57634e487b7160e01b600052603260045260246000fd5b906000526020600020015490508087600001848154811061494057634e487b7160e01b600052603260045260246000fd5b6000918252602080832090910192909255918252600188019052604090208390555b855486908061498157634e487b7160e01b600052603160045260246000fd5b6001900381819060005260206000200160009055905585600101600086815260200190815260200160002060009055600193505050506113dd565b60009150506113dd565b6040805160e081019091528060008152602001600081526020016000815260200160008152602001600081526020016000815260200160006002811115614a1d57634e487b7160e01b600052602160045260246000fd5b905290565b828054614a2e90615611565b90600052602060002090601f016020900481019282614a505760008555614a96565b82601f10614a6957805160ff1916838001178555614a96565b82800160010185558215614a96579182015b82811115614a96578251825591602001919060010190614a7b565b50614aa2929150614aa6565b5090565b5b80821115614aa25760008155600101614aa7565b60006001600160401b0380841115614ad557614ad56156b7565b604051601f8501601f19908116603f01168101908282118183101715614afd57614afd6156b7565b81604052809350858152868686011115614b1657600080fd5b858560208301376000602087830101525050509392505050565b60008083601f840112614b41578182fd5b5081356001600160401b03811115614b57578182fd5b6020830191508360208260051b8501011115614b7257600080fd5b9250929050565b600060208284031215614b8a578081fd5b8135612b62816156cd565b600060208284031215614ba6578081fd5b8151612b62816156cd565b60008060408385031215614bc3578081fd5b8235614bce816156cd565b91506020830135614bde816156cd565b809150509250929050565b600080600060608486031215614bfd578081fd5b8335614c08816156cd565b92506020840135614c18816156cd565b929592945050506040919091013590565b60008060008060808587031215614c3e578081fd5b8435614c49816156cd565b93506020850135614c59816156cd565b92506040850135915060608501356001600160401b03811115614c7a578182fd5b8501601f81018713614c8a578182fd5b614c9987823560208401614abb565b91505092959194509250565b60008060008060808587031215614cba578384fd5b8435614cc5816156cd565b93506020850135614cd5816156cd565b93969395505050506040820135916060013590565b600080600080600060a08688031215614d01578081fd5b8535614d0c816156cd565b94506020860135614d1c816156cd565b94979496505050506040830135926060810135926080909101359150565b60008060408385031215614d4c578182fd5b8235614d57816156cd565b91506020830135614bde816156e2565b60008060408385031215614d79578182fd5b8235614d84816156cd565b946020939093013593505050565b600080600060608486031215614da6578081fd5b8335614db1816156cd565b95602085013595506040909401359392505050565b60008060208385031215614dd8578182fd5b82356001600160401b03811115614ded578283fd5b614df985828601614b30565b90969095509350505050565b600080600060408486031215614e19578081fd5b83356001600160401b03811115614e2e578182fd5b614e3a86828701614b30565b909790965060209590950135949350505050565b600060208284031215614e5f578081fd5b8151612b62816156e2565b600060208284031215614e7b578081fd5b5035919050565b60008060408385031215614e94578182fd5b823591506020830135614bde816156cd565b600060208284031215614eb7578081fd5b8135612b62816156f0565b600060208284031215614ed3578081fd5b8151612b62816156f0565b600060208284031215614eef578081fd5b5051919050565b600080600060408486031215614f0a578081fd5b8335925060208401356001600160401b03811115614f26578182fd5b614f3286828701614b30565b9497909650939450505050565b60008060408385031215614f51578182fd5b8235915060208301356001600160401b03811115614f6d578182fd5b8301601f81018513614f7d578182fd5b614f8c85823560208401614abb565b9150509250929050565b60008060408385031215614fa8578182fd5b50508035926020909101359150565b600080600060608486031215614fcb578081fd5b8351925060208401519150604084015190509250925092565b60008060008060808587031215614ff9578182fd5b84359350602085013592506040850135915060608501356003811061501c578182fd5b939692955090935050565b600060208284031215615038578081fd5b815160ff81168114612b62578182fd5b600081518084526150608160208601602086016155ce565b601f01601f19169290920160200192915050565b60038110615084576150846156a1565b9052565b6000835161509a8184602088016155ce565b8351908301906150ae8183602088016155ce565b01949350505050565b76020b1b1b2b9b9a1b7b73a3937b61d1030b1b1b7bab73a1604d1b8152600083516150e98160178501602088016155ce565b7001034b99036b4b9b9b4b733903937b6329607d1b601791840191820152835161511a8160288401602088016155ce565b01602801949350505050565b6001600160a01b039384168152919092166020820152604081019190915260600190565b6001600160a01b038581168252841660208201526040810183905260806060820181905260009061517d90830184615048565b9695505050505050565b6001600160a01b03929092168252602082015260400190565b6020808252825182820181905260009190848201906040850190845b818110156151d8578351835292840192918401916001016151bc565b50909695505050505050565b602081016113dd8284615074565b60e0810160048910615206576152066156a1565b8882528760208301528660408301528560608301528460808301528360a083015261523460c0830184615074565b98975050505050505050565b918252602082015260400190565b602081526000612b626020830184615048565b6020808252600290820152614f3960f01b604082015260600190565b60208082526032908201527f4552433732313a207472616e7366657220746f206e6f6e20455243373231526560408201527131b2b4bb32b91034b6b83632b6b2b73a32b960711b606082015260800190565b6020808252600290820152614f3360f01b604082015260600190565b6020808252600290820152614e3760f01b604082015260600190565b6020808252818101527f4f776e61626c653a2063616c6c6572206973206e6f7420746865206f776e6572604082015260600190565b60208082526031908201527f4552433732313a207472616e736665722063616c6c6572206973206e6f74206f6040820152701ddb995c881b9bdc88185c1c1c9bdd9959607a1b606082015260800190565b6020808252600290820152614f3160f01b604082015260600190565b84815260208101849052608081016153c46040830185615074565b821515606083015295945050505050565b84815260208101849052608081016153f06040830185615074565b82606083015295945050505050565b8381528260208201526060604082015260006137a36060830184615048565b9283526020830191909152604082015260600190565b878152602081018790526040810186905260e081016154566060830187615074565b60808201949094526001600160a01b0392831660a0820152911660c090910152949350505050565b6000821982111561549157615491615675565b500190565b6000826154a5576154a561568b565b500490565b600181815b808511156154e55781600019048211156154cb576154cb615675565b808516156154d857918102915b93841c93908002906154af565b509250929050565b6000612b6260ff841683600082615506575060016113dd565b81615513575060006113dd565b816001811461552957600281146155335761554f565b60019150506113dd565b60ff84111561554457615544615675565b50506001821b6113dd565b5060208310610133831016604e8410600b8410161715615572575081810a6113dd565b61557c83836154aa565b806000190482111561559057615590615675565b029392505050565b60008160001904831182151516156155b2576155b2615675565b500290565b6000828210156155c9576155c9615675565b500390565b60005b838110156155e95781810151838201526020016155d1565b838111156127d55750506000910152565b60008161560957615609615675565b506000190190565b600181811c9082168061562557607f821691505b602082108114156114b457634e487b7160e01b600052602260045260246000fd5b600060001982141561565a5761565a615675565b5060010190565b6000826156705761567061568b565b500690565b634e487b7160e01b600052601160045260246000fd5b634e487b7160e01b600052601260045260246000fd5b634e487b7160e01b600052602160045260246000fd5b634e487b7160e01b600052604160045260246000fd5b6001600160a01b03811681146117e757600080fd5b80151581146117e757600080fd5b6001600160e01b0319811681146117e757600080fdfe68747470733a2f2f676174657761792e70696e6174612e636c6f75642f697066732fddf252ad1be2c89b69c2b068fc378daa952ba7f163c4a11628f55a4df523b3ef823a343d1c899e61a4db12247636a6882bf1fefae78bef39170f8d0f5b53e456a2646970667358221220117bd7feab40f21f9688d965bff61d1edf168c45073cc47e8537ebe00c17b39364736f6c63430008040033","language":"Solidity","natspec":{"methods":{"approve(address,uint256)":{"details":"See {IERC721-approve}."},"balanceOf(address)":{"details":"See {IERC721-balanceOf}."},"create(uint256,string)":{"notice":"Creates a new option","params":{"amount":"Option amount in tokenX"},"returns":{"optionID":"Created option's ID"}},"exercise(uint256)":{"notice":"Exercises an active option","params":{"optionID":"ID of your option"}},"fees(uint256,uint256,uint256,uint8)":{"notice":"Used for getting the actual options prices in pool's tokenX","params":{"amount":"Option amount","optionType":"call/put","period":"Option period in seconds (1 days <= period <= 4 weeks)","strike":"Strike price of the option"},"returns":{"premium":"Amount that covers the price difference in the ITM options","settlementFee":"Amount to be distributed to the Buffer token holders","total":"Total price to be paid"}},"getApproved(uint256)":{"details":"See {IERC721-getApproved}."},"getRoleAdmin(bytes32)":{"details":"Returns the admin role that controls `role`. See {grantRole} and {revokeRole}. To change a role's admin, use {_setRoleAdmin}."},"grantRole(bytes32,address)":{"details":"Grants `role` to `account`. If `account` had not been already granted `role`, emits a {RoleGranted} event. Requirements: - the caller must have ``role``'s admin role."},"hasRole(bytes32,address)":{"details":"Returns `true` if `account` has been granted `role`."},"isApprovedForAll(address,address)":{"details":"See {IERC721-isApprovedForAll}."},"merge(uint256[],uint256)":{"notice":"Merges the options","params":{"optionIDs":"An array of the optionsIds to be merged","targetOptionID":"OptionId to be merged into"}},"name()":{"details":"See {IERC721Metadata-name}."},"owner()":{"details":"Returns the address of the current owner."},"ownerOf(uint256)":{"details":"See {IERC721-ownerOf}."},"renounceOwnership()":{"details":"Leaves the contract without owner. It will not be possible to call `onlyOwner` functions anymore. Can only be called by the current owner. NOTE: Renouncing ownership will leave the contract without an owner, thereby removing any functionality that is only available to the owner."},"renounceRole(bytes32,address)":{"details":"Revokes `role` from the calling account. Roles are often managed via {grantRole} and {revokeRole}: this function's purpose is to provide a mechanism for accounts to lose their privileges if they are compromised (such as when a trusted device is misplaced). If the calling account had been granted `role`, emits a {RoleRevoked} event. Requirements: - the caller must be `account`."},"revokeRole(bytes32,address)":{"details":"Revokes `role` from `account`. If `account` had been granted `role`, emits a {RoleRevoked} event. Requirements: - the caller must have ``role``'s admin role."},"safeTransferFrom(address,address,uint256)":{"details":"See {IERC721-safeTransferFrom}."},"safeTransferFrom(address,address,uint256,bytes)":{"details":"See {IERC721-safeTransferFrom}."},"setApprovalForAll(address,bool)":{"details":"See {IERC721-setApprovalForAll}."},"split(uint256,uint256[])":{"notice":"Splits the option","params":{"optionID":"OptionId to be splitted","splitUnits_":"Units to be splitted into"},"returns":{"newOptionIDs":"An array of the splitted options"}},"symbol()":{"details":"See {IERC721Metadata-symbol}."},"tokenURI(uint256)":{"details":"Template code provided by OpenZepplin Code Wizard"},"transferFrom(address,address,uint256)":{"details":"See {IERC721-transferFrom}."},"transferFrom(address,address,uint256,uint256)":{"notice":"Transfer part of units of a option to target address.","params":{"from_":"Address of the option sender","optionID":"Id of the option to transfer","to_":"Address of the option recipient","transferUnits_":"Amount of units to transfer"}},"transferFrom(address,address,uint256,uint256,uint256)":{"notice":"Transfer part of units of a option to another option.","params":{"from_":"Address of the option sender","optionID":"Id of the option to transfer","targetOptionID":"Id of the option to receive","to_":"Address of the option recipient","transferUnits_":"Amount of units to transfer"}},"transferOwnership(address)":{"details":"Transfers ownership of the contract to a new account (`newOwner`). Can only be called by the current owner."},"unlock(uint256)":{"notice":"Unlock funds locked in the expired options","params":{"optionID":"ID of the option"}},"unlockAll(uint256[])":{"notice":"Unlocks an array of options","params":{"optionIDs":"array of options"}}},"kind":"dev","notice":"Buffer TokenX Options Contract","version":1,"author":"Heisenberg","title":"Buffer TokenX Bidirectional (Call and Put) Options"},"opcodes":"PUSH1 0x80 PUSH1 0x40 MSTORE CALLVALUE DUP1 ISZERO PUSH2 0x10 JUMPI PUSH1 0x0 DUP1 REVERT JUMPDEST POP PUSH1 0x4 CALLDATASIZE LT PUSH2 0x267 JUMPI PUSH1 0x0 CALLDATALOAD PUSH1 0xE0 SHR DUP1 PUSH4 0x118FA49 EQ PUSH2 0x26C JUMPI DUP1 PUSH4 0x1FFC9A7 EQ PUSH2 0x292 JUMPI DUP1 PUSH4 0x5271A2A EQ PUSH2 0x2B5 JUMPI DUP1 PUSH4 0x6517A29 EQ PUSH2 0x2CA JUMPI DUP1 PUSH4 0x6FDDE03 EQ PUSH2 0x2D3 JUMPI DUP1 PUSH4 0x76D948C EQ PUSH2 0x2E8 JUMPI DUP1 PUSH4 0x81812FC EQ PUSH2 0x2FB JUMPI DUP1 PUSH4 0x95EA7B3 EQ PUSH2 0x326 JUMPI DUP1 PUSH4 0x16F0115B EQ PUSH2 0x33B JUMPI DUP1 PUSH4 0x1CECAA31 EQ PUSH2 0x34E JUMPI DUP1 PUSH4 0x23B872DD EQ PUSH2 0x36F JUMPI DUP1 PUSH4 0x248A9CA3 EQ PUSH2 0x382 JUMPI DUP1 PUSH4 0x263F3E7E EQ PUSH2 0x395 JUMPI DUP1 PUSH4 0x2F2FF15D EQ PUSH2 0x3A8 JUMPI DUP1 PUSH4 0x36568ABE EQ PUSH2 0x3BB JUMPI DUP1 PUSH4 0x409E2205 EQ PUSH2 0x3CE JUMPI DUP1 PUSH4 0x426A8493 EQ PUSH2 0x431 JUMPI DUP1 PUSH4 0x42842E0E EQ PUSH2 0x444 JUMPI DUP1 PUSH4 0x42966C68 EQ PUSH2 0x457 JUMPI DUP1 PUSH4 0x4AED53C2 EQ PUSH2 0x46A JUMPI DUP1 PUSH4 0x4F558E79 EQ PUSH2 0x47D JUMPI DUP1 PUSH4 0x6198E339 EQ PUSH2 0x490 JUMPI DUP1 PUSH4 0x6352211E EQ PUSH2 0x4A3 JUMPI DUP1 PUSH4 0x69C67247 EQ PUSH2 0x4B6 JUMPI DUP1 PUSH4 0x70A08231 EQ PUSH2 0x4D6 JUMPI DUP1 PUSH4 0x715018A6 EQ PUSH2 0x4E9 JUMPI DUP1 PUSH4 0x75794A3C EQ PUSH2 0x4F1 JUMPI DUP1 PUSH4 0x78C533CE EQ PUSH2 0x4FA JUMPI DUP1 PUSH4 0x79502C55 EQ PUSH2 0x51A JUMPI DUP1 PUSH4 0x8A584118 EQ PUSH2 0x52D JUMPI DUP1 PUSH4 0x8DA5CB5B EQ PUSH2 0x578 JUMPI DUP1 PUSH4 0x91D14854 EQ PUSH2 0x580 JUMPI DUP1 PUSH4 0x95D89B41 EQ PUSH2 0x593 JUMPI DUP1 PUSH4 0x992642E5 EQ PUSH2 0x59B JUMPI DUP1 PUSH4 0xA217FDDF EQ PUSH2 0x5AE JUMPI DUP1 PUSH4 0xA22CB465 EQ PUSH2 0x5B6 JUMPI DUP1 PUSH4 0xA6D14C02 EQ PUSH2 0x5C9 JUMPI DUP1 PUSH4 0xA8800425 EQ PUSH2 0x5D1 JUMPI DUP1 PUSH4 0xB07F0A41 EQ PUSH2 0x5E4 JUMPI DUP1 PUSH4 0xB888879E EQ PUSH2 0x5F7 JUMPI DUP1 PUSH4 0xB88D4FDE EQ PUSH2 0x60A JUMPI DUP1 PUSH4 0xBBE33EA5 EQ PUSH2 0x61D JUMPI DUP1 PUSH4 0xBECEF607 EQ PUSH2 0x630 JUMPI DUP1 PUSH4 0xC7C3B53F EQ PUSH2 0x643 JUMPI DUP1 PUSH4 0xC87B56DD EQ PUSH2 0x665 JUMPI DUP1 PUSH4 0xD149CC30 EQ PUSH2 0x678 JUMPI DUP1 PUSH4 0xD547741F EQ PUSH2 0x68B JUMPI DUP1 PUSH4 0xD5A0E673 EQ PUSH2 0x69E JUMPI DUP1 PUSH4 0xE342B598 EQ PUSH2 0x6BE JUMPI DUP1 PUSH4 0xE345E0BC EQ PUSH2 0x6D1 JUMPI DUP1 PUSH4 0xE985E9C5 EQ PUSH2 0x70B JUMPI DUP1 PUSH4 0xF2FDE38B EQ PUSH2 0x71E JUMPI DUP1 PUSH4 0xFE99049A EQ PUSH2 0x731 JUMPI JUMPDEST PUSH1 0x0 DUP1 REVERT JUMPDEST PUSH2 0x27F PUSH2 0x27A CALLDATASIZE PUSH1 0x4 PUSH2 0x4F3F JUMP JUMPDEST PUSH2 0x744 JUMP JUMPDEST PUSH1 0x40 MLOAD SWAP1 DUP2 MSTORE PUSH1 0x20 ADD JUMPDEST PUSH1 0x40 MLOAD DUP1 SWAP2 SUB SWAP1 RETURN JUMPDEST PUSH2 0x2A5 PUSH2 0x2A0 CALLDATASIZE PUSH1 0x4 PUSH2 0x4EA6 JUMP JUMPDEST PUSH2 0x13D2 JUMP JUMPDEST PUSH1 0x40 MLOAD SWAP1 ISZERO ISZERO DUP2 MSTORE PUSH1 0x20 ADD PUSH2 0x289 JUMP JUMPDEST PUSH1 0xE SLOAD PUSH1 0x40 MLOAD PUSH1 0xFF SWAP1 SWAP2 AND DUP2 MSTORE PUSH1 0x20 ADD PUSH2 0x289 JUMP JUMPDEST PUSH2 0x27F PUSH1 0xD SLOAD DUP2 JUMP JUMPDEST PUSH2 0x2DB PUSH2 0x13E3 JUMP JUMPDEST PUSH1 0x40 MLOAD PUSH2 0x289 SWAP2 SWAP1 PUSH2 0x524E JUMP JUMPDEST PUSH2 0x27F PUSH2 0x2F6 CALLDATASIZE PUSH1 0x4 PUSH2 0x4E6A JUMP JUMPDEST PUSH2 0x1475 JUMP JUMPDEST PUSH2 0x30E PUSH2 0x309 CALLDATASIZE PUSH1 0x4 PUSH2 0x4E6A JUMP JUMPDEST PUSH2 0x14BA JUMP JUMPDEST PUSH1 0x40 MLOAD PUSH1 0x1 PUSH1 0x1 PUSH1 0xA0 SHL SUB SWAP1 SWAP2 AND DUP2 MSTORE PUSH1 0x20 ADD PUSH2 0x289 JUMP JUMPDEST PUSH2 0x339 PUSH2 0x334 CALLDATASIZE PUSH1 0x4 PUSH2 0x4D67 JUMP JUMPDEST PUSH2 0x1542 JUMP JUMPDEST STOP JUMPDEST PUSH1 0x15 SLOAD PUSH2 0x30E SWAP1 PUSH1 0x1 PUSH1 0x1 PUSH1 0xA0 SHL SUB AND DUP2 JUMP JUMPDEST PUSH1 0x12 SLOAD PUSH2 0x362 SWAP1 PUSH1 0x1 PUSH1 0xA0 SHL SWAP1 DIV PUSH1 0xFF AND DUP2 JUMP JUMPDEST PUSH1 0x40 MLOAD PUSH2 0x289 SWAP2 SWAP1 PUSH2 0x51E4 JUMP JUMPDEST PUSH2 0x339 PUSH2 0x37D CALLDATASIZE PUSH1 0x4 PUSH2 0x4BE9 JUMP JUMPDEST PUSH2 0x1653 JUMP JUMPDEST PUSH2 0x27F PUSH2 0x390 CALLDATASIZE PUSH1 0x4 PUSH2 0x4E6A JUMP JUMPDEST PUSH2 0x1684 JUMP JUMPDEST PUSH2 0x27F PUSH2 0x3A3 CALLDATASIZE PUSH1 0x4 PUSH2 0x4E6A JUMP JUMPDEST PUSH2 0x1699 JUMP JUMPDEST PUSH2 0x339 PUSH2 0x3B6 CALLDATASIZE PUSH1 0x4 PUSH2 0x4E82 JUMP JUMPDEST PUSH2 0x16AB JUMP JUMPDEST PUSH2 0x339 PUSH2 0x3C9 CALLDATASIZE PUSH1 0x4 PUSH2 0x4E82 JUMP JUMPDEST PUSH2 0x16C8 JUMP JUMPDEST PUSH2 0x41E PUSH2 0x3DC CALLDATASIZE PUSH1 0x4 PUSH2 0x4E6A JUMP JUMPDEST PUSH1 0x14 PUSH1 0x20 MSTORE PUSH1 0x0 SWAP1 DUP2 MSTORE PUSH1 0x40 SWAP1 KECCAK256 DUP1 SLOAD PUSH1 0x1 DUP3 ADD SLOAD PUSH1 0x2 DUP4 ADD SLOAD PUSH1 0x3 DUP5 ADD SLOAD PUSH1 0x4 DUP6 ADD SLOAD PUSH1 0x5 DUP7 ADD SLOAD PUSH1 0x6 SWAP1 SWAP7 ADD SLOAD PUSH1 0xFF SWAP6 DUP7 AND SWAP7 SWAP5 SWAP6 SWAP4 SWAP5 SWAP3 SWAP4 SWAP2 SWAP3 SWAP2 AND DUP8 JUMP JUMPDEST PUSH1 0x40 MLOAD PUSH2 0x289 SWAP8 SWAP7 SWAP6 SWAP5 SWAP4 SWAP3 SWAP2 SWAP1 PUSH2 0x51F2 JUMP JUMPDEST PUSH2 0x339 PUSH2 0x43F CALLDATASIZE PUSH1 0x4 PUSH2 0x4D92 JUMP JUMPDEST PUSH2 0x1746 JUMP JUMPDEST PUSH2 0x339 PUSH2 0x452 CALLDATASIZE PUSH1 0x4 PUSH2 0x4BE9 JUMP JUMPDEST PUSH2 0x178A JUMP JUMPDEST PUSH2 0x339 PUSH2 0x465 CALLDATASIZE PUSH1 0x4 PUSH2 0x4E6A JUMP JUMPDEST PUSH2 0x17A5 JUMP JUMPDEST PUSH2 0x339 PUSH2 0x478 CALLDATASIZE PUSH1 0x4 PUSH2 0x4CEA JUMP JUMPDEST PUSH2 0x17EA JUMP JUMPDEST PUSH2 0x2A5 PUSH2 0x48B CALLDATASIZE PUSH1 0x4 PUSH2 0x4E6A JUMP JUMPDEST PUSH2 0x190C JUMP JUMPDEST PUSH2 0x339 PUSH2 0x49E CALLDATASIZE PUSH1 0x4 PUSH2 0x4E6A JUMP JUMPDEST PUSH2 0x1917 JUMP JUMPDEST PUSH2 0x30E PUSH2 0x4B1 CALLDATASIZE PUSH1 0x4 PUSH2 0x4E6A JUMP JUMPDEST PUSH2 0x1A69 JUMP JUMPDEST PUSH2 0x4C9 PUSH2 0x4C4 CALLDATASIZE PUSH1 0x4 PUSH2 0x4EF6 JUMP JUMPDEST PUSH2 0x1AE0 JUMP JUMPDEST PUSH1 0x40 MLOAD PUSH2 0x289 SWAP2 SWAP1 PUSH2 0x51A0 JUMP JUMPDEST PUSH2 0x27F PUSH2 0x4E4 CALLDATASIZE PUSH1 0x4 PUSH2 0x4B79 JUMP JUMPDEST PUSH2 0x1ED2 JUMP JUMPDEST PUSH2 0x339 PUSH2 0x1F59 JUMP JUMPDEST PUSH2 0x27F PUSH1 0x13 SLOAD DUP2 JUMP JUMPDEST PUSH2 0x27F PUSH2 0x508 CALLDATASIZE PUSH1 0x4 PUSH2 0x4E6A JUMP JUMPDEST PUSH1 0xF PUSH1 0x20 MSTORE PUSH1 0x0 SWAP1 DUP2 MSTORE PUSH1 0x40 SWAP1 KECCAK256 SLOAD DUP2 JUMP JUMPDEST PUSH1 0x16 SLOAD PUSH2 0x30E SWAP1 PUSH1 0x1 PUSH1 0x1 PUSH1 0xA0 SHL SUB AND DUP2 JUMP JUMPDEST PUSH2 0x568 PUSH2 0x53B CALLDATASIZE PUSH1 0x4 PUSH2 0x4E6A JUMP JUMPDEST PUSH1 0x17 PUSH1 0x20 MSTORE PUSH1 0x0 SWAP1 DUP2 MSTORE PUSH1 0x40 SWAP1 KECCAK256 DUP1 SLOAD PUSH1 0x1 DUP3 ADD SLOAD PUSH1 0x2 SWAP1 SWAP3 ADD SLOAD SWAP1 SWAP2 SWAP1 PUSH1 0xFF DUP1 DUP3 AND SWAP2 PUSH2 0x100 SWAP1 DIV AND DUP5 JUMP JUMPDEST PUSH1 0x40 MLOAD PUSH2 0x289 SWAP5 SWAP4 SWAP3 SWAP2 SWAP1 PUSH2 0x53A9 JUMP JUMPDEST PUSH2 0x30E PUSH2 0x1F94 JUMP JUMPDEST PUSH2 0x2A5 PUSH2 0x58E CALLDATASIZE PUSH1 0x4 PUSH2 0x4E82 JUMP JUMPDEST PUSH2 0x1FA3 JUMP JUMPDEST PUSH2 0x2DB PUSH2 0x1FCE JUMP JUMPDEST PUSH1 0x10 SLOAD PUSH2 0x30E SWAP1 PUSH1 0x1 PUSH1 0x1 PUSH1 0xA0 SHL SUB AND DUP2 JUMP JUMPDEST PUSH2 0x27F PUSH1 0x0 DUP2 JUMP JUMPDEST PUSH2 0x339 PUSH2 0x5C4 CALLDATASIZE PUSH1 0x4 PUSH2 0x4D3A JUMP JUMPDEST PUSH2 0x1FDD JUMP JUMPDEST PUSH2 0x27F PUSH1 0x5 DUP2 JUMP JUMPDEST PUSH2 0x27F PUSH2 0x5DF CALLDATASIZE PUSH1 0x4 PUSH2 0x4E6A JUMP JUMPDEST PUSH2 0x209E JUMP JUMPDEST PUSH2 0x27F PUSH2 0x5F2 CALLDATASIZE PUSH1 0x4 PUSH2 0x4E6A JUMP JUMPDEST PUSH2 0x20B5 JUMP JUMPDEST PUSH1 0x12 SLOAD PUSH2 0x30E SWAP1 PUSH1 0x1 PUSH1 0x1 PUSH1 0xA0 SHL SUB AND DUP2 JUMP JUMPDEST PUSH2 0x339 PUSH2 0x618 CALLDATASIZE PUSH1 0x4 PUSH2 0x4C29 JUMP JUMPDEST PUSH2 0x27A2 JUMP JUMPDEST PUSH2 0x339 PUSH2 0x62B CALLDATASIZE PUSH1 0x4 PUSH2 0x4E05 JUMP JUMPDEST PUSH2 0x27DB JUMP JUMPDEST PUSH2 0x27F PUSH2 0x63E CALLDATASIZE PUSH1 0x4 PUSH2 0x4E6A JUMP JUMPDEST PUSH2 0x29EA JUMP JUMPDEST PUSH2 0x656 PUSH2 0x651 CALLDATASIZE PUSH1 0x4 PUSH2 0x4FE4 JUMP JUMPDEST PUSH2 0x29FC JUMP JUMPDEST PUSH1 0x40 MLOAD PUSH2 0x289 SWAP4 SWAP3 SWAP2 SWAP1 PUSH2 0x541E JUMP JUMPDEST PUSH2 0x2DB PUSH2 0x673 CALLDATASIZE PUSH1 0x4 PUSH2 0x4E6A JUMP JUMPDEST PUSH2 0x2B3F JUMP JUMPDEST PUSH2 0x27F PUSH2 0x686 CALLDATASIZE PUSH1 0x4 PUSH2 0x4F96 JUMP JUMPDEST PUSH2 0x2B4A JUMP JUMPDEST PUSH2 0x339 PUSH2 0x699 CALLDATASIZE PUSH1 0x4 PUSH2 0x4E82 JUMP JUMPDEST PUSH2 0x2B69 JUMP JUMPDEST PUSH2 0x27F PUSH2 0x6AC CALLDATASIZE PUSH1 0x4 PUSH2 0x4E6A JUMP JUMPDEST PUSH1 0xA PUSH1 0x20 MSTORE PUSH1 0x0 SWAP1 DUP2 MSTORE PUSH1 0x40 SWAP1 KECCAK256 SLOAD DUP2 JUMP JUMPDEST PUSH2 0x339 PUSH2 0x6CC CALLDATASIZE PUSH1 0x4 PUSH2 0x4DC6 JUMP JUMPDEST PUSH2 0x2B86 JUMP JUMPDEST PUSH2 0x27F PUSH2 0x6DF CALLDATASIZE PUSH1 0x4 PUSH2 0x4E82 JUMP JUMPDEST PUSH1 0x0 DUP3 DUP2 MSTORE PUSH1 0xB PUSH1 0x20 SWAP1 DUP2 MSTORE PUSH1 0x40 DUP1 DUP4 KECCAK256 PUSH1 0x1 PUSH1 0x1 PUSH1 0xA0 SHL SUB DUP6 AND DUP5 MSTORE PUSH1 0x1 ADD SWAP1 SWAP2 MSTORE SWAP1 KECCAK256 SLOAD SWAP3 SWAP2 POP POP JUMP JUMPDEST PUSH2 0x2A5 PUSH2 0x719 CALLDATASIZE PUSH1 0x4 PUSH2 0x4BB1 JUMP JUMPDEST PUSH2 0x2BD3 JUMP JUMPDEST PUSH2 0x339 PUSH2 0x72C CALLDATASIZE PUSH1 0x4 PUSH2 0x4B79 JUMP JUMPDEST PUSH2 0x2C01 JUMP JUMPDEST PUSH2 0x27F PUSH2 0x73F CALLDATASIZE PUSH1 0x4 PUSH2 0x4CA5 JUMP JUMPDEST PUSH2 0x2C9E JUMP JUMPDEST PUSH1 0x0 PUSH1 0x2 PUSH1 0x7 SLOAD EQ ISZERO PUSH2 0x79E JUMPI PUSH1 0x40 MLOAD PUSH3 0x461BCD PUSH1 0xE5 SHL DUP2 MSTORE PUSH1 0x20 PUSH1 0x4 DUP3 ADD MSTORE PUSH1 0x1F PUSH1 0x24 DUP3 ADD MSTORE PUSH32 0x5265656E7472616E637947756172643A207265656E7472616E742063616C6C00 PUSH1 0x44 DUP3 ADD MSTORE PUSH1 0x64 ADD JUMPDEST PUSH1 0x40 MLOAD DUP1 SWAP2 SUB SWAP1 REVERT JUMPDEST PUSH1 0x2 PUSH1 0x7 SSTORE PUSH1 0x15 SLOAD PUSH1 0x40 DUP1 MLOAD PUSH4 0x392E53CD PUSH1 0xE0 SHL DUP2 MSTORE SWAP1 MLOAD PUSH1 0x1 PUSH1 0x1 PUSH1 0xA0 SHL SUB SWAP1 SWAP3 AND SWAP2 PUSH4 0x392E53CD SWAP2 PUSH1 0x4 DUP1 DUP3 ADD SWAP3 PUSH1 0x20 SWAP3 SWAP1 SWAP2 SWAP1 DUP3 SWAP1 SUB ADD DUP2 DUP7 DUP1 EXTCODESIZE ISZERO DUP1 ISZERO PUSH2 0x7E8 JUMPI PUSH1 0x0 DUP1 REVERT JUMPDEST POP GAS STATICCALL ISZERO DUP1 ISZERO PUSH2 0x7FC JUMPI RETURNDATASIZE PUSH1 0x0 DUP1 RETURNDATACOPY RETURNDATASIZE PUSH1 0x0 REVERT JUMPDEST POP POP POP POP PUSH1 0x40 MLOAD RETURNDATASIZE PUSH1 0x1F NOT PUSH1 0x1F DUP3 ADD AND DUP3 ADD DUP1 PUSH1 0x40 MSTORE POP DUP2 ADD SWAP1 PUSH2 0x820 SWAP2 SWAP1 PUSH2 0x4E4E JUMP JUMPDEST DUP1 ISZERO PUSH2 0x8AD JUMPI POP PUSH1 0x16 PUSH1 0x0 SWAP1 SLOAD SWAP1 PUSH2 0x100 EXP SWAP1 DIV PUSH1 0x1 PUSH1 0x1 PUSH1 0xA0 SHL SUB AND PUSH1 0x1 PUSH1 0x1 PUSH1 0xA0 SHL SUB AND PUSH4 0x392E53CD PUSH1 0x40 MLOAD DUP2 PUSH4 0xFFFFFFFF AND PUSH1 0xE0 SHL DUP2 MSTORE PUSH1 0x4 ADD PUSH1 0x20 PUSH1 0x40 MLOAD DUP1 DUP4 SUB DUP2 DUP7 DUP1 EXTCODESIZE ISZERO DUP1 ISZERO PUSH2 0x875 JUMPI PUSH1 0x0 DUP1 REVERT JUMPDEST POP GAS STATICCALL ISZERO DUP1 ISZERO PUSH2 0x889 JUMPI RETURNDATASIZE PUSH1 0x0 DUP1 RETURNDATACOPY RETURNDATASIZE PUSH1 0x0 REVERT JUMPDEST POP POP POP POP PUSH1 0x40 MLOAD RETURNDATASIZE PUSH1 0x1F NOT PUSH1 0x1F DUP3 ADD AND DUP3 ADD DUP1 PUSH1 0x40 MSTORE POP DUP2 ADD SWAP1 PUSH2 0x8AD SWAP2 SWAP1 PUSH2 0x4E4E JUMP JUMPDEST PUSH2 0x8F2 JUMPI PUSH1 0x40 MLOAD PUSH3 0x461BCD PUSH1 0xE5 SHL DUP2 MSTORE PUSH1 0x20 PUSH1 0x4 DUP3 ADD MSTORE PUSH1 0x16 PUSH1 0x24 DUP3 ADD MSTORE PUSH22 0x496E697469616C697A6174696F6E2070656E64696E67 PUSH1 0x50 SHL PUSH1 0x44 DUP3 ADD MSTORE PUSH1 0x64 ADD PUSH2 0x795 JUMP JUMPDEST PUSH1 0x15 SLOAD PUSH1 0x40 DUP1 MLOAD PUSH4 0xA834069B PUSH1 0xE0 SHL DUP2 MSTORE SWAP1 MLOAD PUSH1 0x0 SWAP3 PUSH1 0x1 PUSH1 0x1 PUSH1 0xA0 SHL SUB AND SWAP2 PUSH4 0xA834069B SWAP2 PUSH1 0x4 DUP1 DUP4 ADD SWAP3 PUSH1 0x20 SWAP3 SWAP2 SWAP1 DUP3 SWAP1 SUB ADD DUP2 DUP7 DUP1 EXTCODESIZE ISZERO DUP1 ISZERO PUSH2 0x937 JUMPI PUSH1 0x0 DUP1 REVERT JUMPDEST POP GAS STATICCALL ISZERO DUP1 ISZERO PUSH2 0x94B JUMPI RETURNDATASIZE PUSH1 0x0 DUP1 RETURNDATACOPY RETURNDATASIZE PUSH1 0x0 REVERT JUMPDEST POP POP POP POP PUSH1 0x40 MLOAD RETURNDATASIZE PUSH1 0x1F NOT PUSH1 0x1F DUP3 ADD AND DUP3 ADD DUP1 PUSH1 0x40 MSTORE POP DUP2 ADD SWAP1 PUSH2 0x96F SWAP2 SWAP1 PUSH2 0x4EDE JUMP JUMPDEST SWAP1 POP TIMESTAMP DUP2 GT PUSH2 0x990 JUMPI PUSH1 0x40 MLOAD PUSH3 0x461BCD PUSH1 0xE5 SHL DUP2 MSTORE PUSH1 0x4 ADD PUSH2 0x795 SWAP1 PUSH2 0x538D JUMP JUMPDEST PUSH1 0x0 PUSH2 0x99C TIMESTAMP DUP4 PUSH2 0x55B7 JUMP JUMPDEST SWAP1 POP PUSH2 0xA8C0 DUP2 LT ISZERO PUSH2 0x9C0 JUMPI PUSH1 0x40 MLOAD PUSH3 0x461BCD PUSH1 0xE5 SHL DUP2 MSTORE PUSH1 0x4 ADD PUSH2 0x795 SWAP1 PUSH2 0x538D JUMP JUMPDEST PUSH1 0x0 DUP1 PUSH1 0x0 PUSH2 0xA62 DUP5 DUP10 PUSH1 0x16 PUSH1 0x0 SWAP1 SLOAD SWAP1 PUSH2 0x100 EXP SWAP1 DIV PUSH1 0x1 PUSH1 0x1 PUSH1 0xA0 SHL SUB AND PUSH1 0x1 PUSH1 0x1 PUSH1 0xA0 SHL SUB AND PUSH4 0x5EE97101 PUSH1 0x40 MLOAD DUP2 PUSH4 0xFFFFFFFF AND PUSH1 0xE0 SHL DUP2 MSTORE PUSH1 0x4 ADD PUSH1 0x20 PUSH1 0x40 MLOAD DUP1 DUP4 SUB DUP2 DUP7 DUP1 EXTCODESIZE ISZERO DUP1 ISZERO PUSH2 0xA18 JUMPI PUSH1 0x0 DUP1 REVERT JUMPDEST POP GAS STATICCALL ISZERO DUP1 ISZERO PUSH2 0xA2C JUMPI RETURNDATASIZE PUSH1 0x0 DUP1 RETURNDATACOPY RETURNDATASIZE PUSH1 0x0 REVERT JUMPDEST POP POP POP POP PUSH1 0x40 MLOAD RETURNDATASIZE PUSH1 0x1F NOT PUSH1 0x1F DUP3 ADD AND DUP3 ADD DUP1 PUSH1 0x40 MSTORE POP DUP2 ADD SWAP1 PUSH2 0xA50 SWAP2 SWAP1 PUSH2 0x4EDE JUMP JUMPDEST PUSH1 0x12 SLOAD PUSH1 0x1 PUSH1 0xA0 SHL SWAP1 DIV PUSH1 0xFF AND PUSH2 0x29FC JUMP JUMPDEST SWAP2 SWAP5 POP SWAP3 POP SWAP1 POP PUSH1 0x5 PUSH2 0xA75 DUP6 DUP11 PUSH2 0x5598 JUMP JUMPDEST PUSH2 0xA7F SWAP2 SWAP1 PUSH2 0x5598 JUMP JUMPDEST PUSH2 0xA8D DUP5 PUSH4 0x1E13380 PUSH2 0x5598 JUMP JUMPDEST PUSH2 0xA98 SWAP1 PUSH1 0x64 PUSH2 0x5598 JUMP JUMPDEST GT PUSH2 0xACA JUMPI PUSH1 0x40 MLOAD PUSH3 0x461BCD PUSH1 0xE5 SHL DUP2 MSTORE PUSH1 0x20 PUSH1 0x4 DUP3 ADD MSTORE PUSH1 0x2 PUSH1 0x24 DUP3 ADD MSTORE PUSH2 0x2799 PUSH1 0xF1 SHL PUSH1 0x44 DUP3 ADD MSTORE PUSH1 0x64 ADD PUSH2 0x795 JUMP JUMPDEST PUSH1 0x12 SLOAD PUSH1 0x40 DUP1 MLOAD PUSH4 0xD67AAC1 PUSH1 0xE1 SHL DUP2 MSTORE SWAP1 MLOAD PUSH1 0x0 SWAP3 PUSH1 0x1 PUSH1 0x1 PUSH1 0xA0 SHL SUB AND SWAP2 PUSH4 0x1ACF5582 SWAP2 PUSH1 0x4 DUP1 DUP4 ADD SWAP3 PUSH1 0x20 SWAP3 SWAP2 SWAP1 DUP3 SWAP1 SUB ADD DUP2 DUP7 DUP1 EXTCODESIZE ISZERO DUP1 ISZERO PUSH2 0xB0F JUMPI PUSH1 0x0 DUP1 REVERT JUMPDEST POP GAS STATICCALL ISZERO DUP1 ISZERO PUSH2 0xB23 JUMPI RETURNDATASIZE PUSH1 0x0 DUP1 RETURNDATACOPY RETURNDATASIZE PUSH1 0x0 REVERT JUMPDEST POP POP POP POP PUSH1 0x40 MLOAD RETURNDATASIZE PUSH1 0x1F NOT PUSH1 0x1F DUP3 ADD AND DUP3 ADD DUP1 PUSH1 0x40 MSTORE POP DUP2 ADD SWAP1 PUSH2 0xB47 SWAP2 SWAP1 PUSH2 0x4EDE JUMP JUMPDEST SWAP1 POP PUSH1 0x0 PUSH1 0x15 PUSH1 0x0 SWAP1 SLOAD SWAP1 PUSH2 0x100 EXP SWAP1 DIV PUSH1 0x1 PUSH1 0x1 PUSH1 0xA0 SHL SUB AND PUSH1 0x1 PUSH1 0x1 PUSH1 0xA0 SHL SUB AND PUSH4 0x16DC165B PUSH1 0x40 MLOAD DUP2 PUSH4 0xFFFFFFFF AND PUSH1 0xE0 SHL DUP2 MSTORE PUSH1 0x4 ADD PUSH1 0x20 PUSH1 0x40 MLOAD DUP1 DUP4 SUB DUP2 DUP7 DUP1 EXTCODESIZE ISZERO DUP1 ISZERO PUSH2 0xB99 JUMPI PUSH1 0x0 DUP1 REVERT JUMPDEST POP GAS STATICCALL ISZERO DUP1 ISZERO PUSH2 0xBAD JUMPI RETURNDATASIZE PUSH1 0x0 DUP1 RETURNDATACOPY RETURNDATASIZE PUSH1 0x0 REVERT JUMPDEST POP POP POP POP PUSH1 0x40 MLOAD RETURNDATASIZE PUSH1 0x1F NOT PUSH1 0x1F DUP3 ADD AND DUP3 ADD DUP1 PUSH1 0x40 MSTORE POP DUP2 ADD SWAP1 PUSH2 0xBD1 SWAP2 SWAP1 PUSH2 0x4B95 JUMP JUMPDEST PUSH1 0x1 PUSH1 0x1 PUSH1 0xA0 SHL SUB AND PUSH4 0x313CE567 PUSH1 0x40 MLOAD DUP2 PUSH4 0xFFFFFFFF AND PUSH1 0xE0 SHL DUP2 MSTORE PUSH1 0x4 ADD PUSH1 0x20 PUSH1 0x40 MLOAD DUP1 DUP4 SUB DUP2 DUP7 DUP1 EXTCODESIZE ISZERO DUP1 ISZERO PUSH2 0xC09 JUMPI PUSH1 0x0 DUP1 REVERT JUMPDEST POP GAS STATICCALL ISZERO DUP1 ISZERO PUSH2 0xC1D JUMPI RETURNDATASIZE PUSH1 0x0 DUP1 RETURNDATACOPY RETURNDATASIZE PUSH1 0x0 REVERT JUMPDEST POP POP POP POP PUSH1 0x40 MLOAD RETURNDATASIZE PUSH1 0x1F NOT PUSH1 0x1F DUP3 ADD AND DUP3 ADD DUP1 PUSH1 0x40 MSTORE POP DUP2 ADD SWAP1 PUSH2 0xC41 SWAP2 SWAP1 PUSH2 0x5027 JUMP JUMPDEST PUSH2 0xC4C SWAP1 PUSH1 0xA PUSH2 0x54ED JUMP JUMPDEST SWAP1 POP PUSH1 0x15 PUSH1 0x0 SWAP1 SLOAD SWAP1 PUSH2 0x100 EXP SWAP1 DIV PUSH1 0x1 PUSH1 0x1 PUSH1 0xA0 SHL SUB AND PUSH1 0x1 PUSH1 0x1 PUSH1 0xA0 SHL SUB AND PUSH4 0xA4475CE4 PUSH1 0x40 MLOAD DUP2 PUSH4 0xFFFFFFFF AND PUSH1 0xE0 SHL DUP2 MSTORE PUSH1 0x4 ADD PUSH1 0x20 PUSH1 0x40 MLOAD DUP1 DUP4 SUB DUP2 DUP7 DUP1 EXTCODESIZE ISZERO DUP1 ISZERO PUSH2 0xC9C JUMPI PUSH1 0x0 DUP1 REVERT JUMPDEST POP GAS STATICCALL ISZERO DUP1 ISZERO PUSH2 0xCB0 JUMPI RETURNDATASIZE PUSH1 0x0 DUP1 RETURNDATACOPY RETURNDATASIZE PUSH1 0x0 REVERT JUMPDEST POP POP POP POP PUSH1 0x40 MLOAD RETURNDATASIZE PUSH1 0x1F NOT PUSH1 0x1F DUP3 ADD AND DUP3 ADD DUP1 PUSH1 0x40 MSTORE POP DUP2 ADD SWAP1 PUSH2 0xCD4 SWAP2 SWAP1 PUSH2 0x4B95 JUMP JUMPDEST PUSH1 0x1 PUSH1 0x1 PUSH1 0xA0 SHL SUB AND CALLER PUSH1 0x1 PUSH1 0x1 PUSH1 0xA0 SHL SUB AND EQ PUSH2 0xE50 JUMPI PUSH1 0x10 SLOAD PUSH1 0x0 SWAP1 PUSH1 0x1 PUSH1 0x1 PUSH1 0xA0 SHL SUB AND PUSH4 0x23B872DD CALLER ADDRESS PUSH2 0xD10 DUP7 PUSH4 0x5F5E100 PUSH2 0x5598 JUMP JUMPDEST PUSH1 0x10 PUSH1 0x0 SWAP1 SLOAD SWAP1 PUSH2 0x100 EXP SWAP1 DIV PUSH1 0x1 PUSH1 0x1 PUSH1 0xA0 SHL SUB AND PUSH1 0x1 PUSH1 0x1 PUSH1 0xA0 SHL SUB AND PUSH4 0x313CE567 PUSH1 0x40 MLOAD DUP2 PUSH4 0xFFFFFFFF AND PUSH1 0xE0 SHL DUP2 MSTORE PUSH1 0x4 ADD PUSH1 0x20 PUSH1 0x40 MLOAD DUP1 DUP4 SUB DUP2 DUP7 DUP1 EXTCODESIZE ISZERO DUP1 ISZERO PUSH2 0xD5E JUMPI PUSH1 0x0 DUP1 REVERT JUMPDEST POP GAS STATICCALL ISZERO DUP1 ISZERO PUSH2 0xD72 JUMPI RETURNDATASIZE PUSH1 0x0 DUP1 RETURNDATACOPY RETURNDATASIZE PUSH1 0x0 REVERT JUMPDEST POP POP POP POP PUSH1 0x40 MLOAD RETURNDATASIZE PUSH1 0x1F NOT PUSH1 0x1F DUP3 ADD AND DUP3 ADD DUP1 PUSH1 0x40 MSTORE POP DUP2 ADD SWAP1 PUSH2 0xD96 SWAP2 SWAP1 PUSH2 0x5027 JUMP JUMPDEST PUSH2 0xDA1 SWAP1 PUSH1 0xA PUSH2 0x54ED JUMP JUMPDEST PUSH2 0xDAB DUP10 DUP14 PUSH2 0x5598 JUMP JUMPDEST PUSH2 0xDB5 SWAP2 SWAP1 PUSH2 0x5598 JUMP JUMPDEST PUSH2 0xDBF SWAP2 SWAP1 PUSH2 0x5496 JUMP JUMPDEST PUSH1 0x40 MLOAD DUP5 PUSH4 0xFFFFFFFF AND PUSH1 0xE0 SHL DUP2 MSTORE PUSH1 0x4 ADD PUSH2 0xDDD SWAP4 SWAP3 SWAP2 SWAP1 PUSH2 0x5126 JUMP JUMPDEST PUSH1 0x20 PUSH1 0x40 MLOAD DUP1 DUP4 SUB DUP2 PUSH1 0x0 DUP8 DUP1 EXTCODESIZE ISZERO DUP1 ISZERO PUSH2 0xDF7 JUMPI PUSH1 0x0 DUP1 REVERT JUMPDEST POP GAS CALL ISZERO DUP1 ISZERO PUSH2 0xE0B JUMPI RETURNDATASIZE PUSH1 0x0 DUP1 RETURNDATACOPY RETURNDATASIZE PUSH1 0x0 REVERT JUMPDEST POP POP POP POP PUSH1 0x40 MLOAD RETURNDATASIZE PUSH1 0x1F NOT PUSH1 0x1F DUP3 ADD AND DUP3 ADD DUP1 PUSH1 0x40 MSTORE POP DUP2 ADD SWAP1 PUSH2 0xE2F SWAP2 SWAP1 PUSH2 0x4E4E JUMP JUMPDEST SWAP1 POP DUP1 PUSH2 0xE4E JUMPI PUSH1 0x40 MLOAD PUSH3 0x461BCD PUSH1 0xE5 SHL DUP2 MSTORE PUSH1 0x4 ADD PUSH2 0x795 SWAP1 PUSH2 0x52CF JUMP JUMPDEST POP JUMPDEST PUSH1 0x40 DUP1 MLOAD PUSH1 0xE0 DUP2 ADD DUP3 MSTORE PUSH1 0x1 DUP2 MSTORE PUSH1 0x16 SLOAD DUP3 MLOAD PUSH4 0x5EE97101 PUSH1 0xE0 SHL DUP2 MSTORE SWAP3 MLOAD PUSH1 0x0 SWAP4 PUSH1 0x20 DUP1 DUP6 ADD SWAP4 PUSH1 0x1 PUSH1 0x1 PUSH1 0xA0 SHL SUB AND SWAP3 PUSH4 0x5EE97101 SWAP3 PUSH1 0x4 DUP1 DUP3 ADD SWAP4 SWAP3 SWAP2 DUP3 SWAP1 SUB ADD DUP2 DUP7 DUP1 EXTCODESIZE ISZERO DUP1 ISZERO PUSH2 0xEA4 JUMPI PUSH1 0x0 DUP1 REVERT JUMPDEST POP GAS STATICCALL ISZERO DUP1 ISZERO PUSH2 0xEB8 JUMPI RETURNDATASIZE PUSH1 0x0 DUP1 RETURNDATACOPY RETURNDATASIZE PUSH1 0x0 REVERT JUMPDEST POP POP POP POP PUSH1 0x40 MLOAD RETURNDATASIZE PUSH1 0x1F NOT PUSH1 0x1F DUP3 ADD AND DUP3 ADD DUP1 PUSH1 0x40 MSTORE POP DUP2 ADD SWAP1 PUSH2 0xEDC SWAP2 SWAP1 PUSH2 0x4EDE JUMP JUMPDEST DUP2 MSTORE PUSH1 0x20 ADD DUP13 DUP2 MSTORE PUSH1 0x20 ADD DUP13 DUP2 MSTORE PUSH1 0x20 ADD DUP6 DUP2 MSTORE PUSH1 0x20 ADD DUP9 TIMESTAMP PUSH2 0xEFF SWAP2 SWAP1 PUSH2 0x547E JUMP JUMPDEST DUP2 MSTORE PUSH1 0x20 ADD PUSH1 0x12 PUSH1 0x14 SWAP1 SLOAD SWAP1 PUSH2 0x100 EXP SWAP1 DIV PUSH1 0xFF AND PUSH1 0x2 DUP2 GT ISZERO PUSH2 0xF33 JUMPI PUSH4 0x4E487B71 PUSH1 0xE0 SHL PUSH1 0x0 MSTORE PUSH1 0x21 PUSH1 0x4 MSTORE PUSH1 0x24 PUSH1 0x0 REVERT JUMPDEST SWAP1 MSTORE SWAP1 POP PUSH2 0xF3F PUSH2 0x2D75 JUMP JUMPDEST SWAP9 POP PUSH2 0xF4B DUP10 DUP3 PUSH2 0x2D8F JUMP JUMPDEST PUSH2 0xF78 DUP10 CALLER PUSH2 0xF73 DUP13 DUP6 PUSH1 0x20 ADD MLOAD DUP7 PUSH1 0xA0 ADD MLOAD PUSH1 0x12 PUSH1 0x14 SWAP1 SLOAD SWAP1 PUSH2 0x100 EXP SWAP1 DIV PUSH1 0xFF AND PUSH2 0x2E47 JUMP JUMPDEST PUSH2 0x2F85 JUMP JUMPDEST PUSH2 0xF82 DUP10 DUP12 PUSH2 0x2FA8 JUMP JUMPDEST PUSH2 0xF95 DUP10 DUP3 PUSH1 0x60 ADD MLOAD DUP4 PUSH1 0x80 ADD MLOAD PUSH2 0x2FB2 JUMP JUMPDEST PUSH1 0x15 PUSH1 0x0 SWAP1 SLOAD SWAP1 PUSH2 0x100 EXP SWAP1 DIV PUSH1 0x1 PUSH1 0x1 PUSH1 0xA0 SHL SUB AND PUSH1 0x1 PUSH1 0x1 PUSH1 0xA0 SHL SUB AND PUSH4 0xA4475CE4 PUSH1 0x40 MLOAD DUP2 PUSH4 0xFFFFFFFF AND PUSH1 0xE0 SHL DUP2 MSTORE PUSH1 0x4 ADD PUSH1 0x20 PUSH1 0x40 MLOAD DUP1 DUP4 SUB DUP2 DUP7 DUP1 EXTCODESIZE ISZERO DUP1 ISZERO PUSH2 0xFE3 JUMPI PUSH1 0x0 DUP1 REVERT JUMPDEST POP GAS STATICCALL ISZERO DUP1 ISZERO PUSH2 0xFF7 JUMPI RETURNDATASIZE PUSH1 0x0 DUP1 RETURNDATACOPY RETURNDATASIZE PUSH1 0x0 REVERT JUMPDEST POP POP POP POP PUSH1 0x40 MLOAD RETURNDATASIZE PUSH1 0x1F NOT PUSH1 0x1F DUP3 ADD AND DUP3 ADD DUP1 PUSH1 0x40 MSTORE POP DUP2 ADD SWAP1 PUSH2 0x101B SWAP2 SWAP1 PUSH2 0x4B95 JUMP JUMPDEST PUSH1 0x1 PUSH1 0x1 PUSH1 0xA0 SHL SUB AND CALLER PUSH1 0x1 PUSH1 0x1 PUSH1 0xA0 SHL SUB AND EQ PUSH2 0x1378 JUMPI PUSH1 0x10 SLOAD PUSH1 0x15 SLOAD PUSH1 0x40 DUP1 MLOAD PUSH4 0x2911D739 PUSH1 0xE2 SHL DUP2 MSTORE SWAP1 MLOAD PUSH1 0x1 PUSH1 0x1 PUSH1 0xA0 SHL SUB SWAP4 DUP5 AND SWAP4 PUSH4 0xA9059CBB SWAP4 AND SWAP2 PUSH4 0xA4475CE4 SWAP2 PUSH1 0x4 DUP1 DUP4 ADD SWAP3 PUSH1 0x20 SWAP3 SWAP2 SWAP1 DUP3 SWAP1 SUB ADD DUP2 DUP7 DUP1 EXTCODESIZE ISZERO DUP1 ISZERO PUSH2 0x1082 JUMPI PUSH1 0x0 DUP1 REVERT JUMPDEST POP GAS STATICCALL ISZERO DUP1 ISZERO PUSH2 0x1096 JUMPI RETURNDATASIZE PUSH1 0x0 DUP1 RETURNDATACOPY RETURNDATASIZE PUSH1 0x0 REVERT JUMPDEST POP POP POP POP PUSH1 0x40 MLOAD RETURNDATASIZE PUSH1 0x1F NOT PUSH1 0x1F DUP3 ADD AND DUP3 ADD DUP1 PUSH1 0x40 MSTORE POP DUP2 ADD SWAP1 PUSH2 0x10BA SWAP2 SWAP1 PUSH2 0x4B95 JUMP JUMPDEST PUSH2 0x10C8 DUP6 PUSH4 0x5F5E100 PUSH2 0x5598 JUMP JUMPDEST PUSH1 0x10 PUSH1 0x0 SWAP1 SLOAD SWAP1 PUSH2 0x100 EXP SWAP1 DIV PUSH1 0x1 PUSH1 0x1 PUSH1 0xA0 SHL SUB AND PUSH1 0x1 PUSH1 0x1 PUSH1 0xA0 SHL SUB AND PUSH4 0x313CE567 PUSH1 0x40 MLOAD DUP2 PUSH4 0xFFFFFFFF AND PUSH1 0xE0 SHL DUP2 MSTORE PUSH1 0x4 ADD PUSH1 0x20 PUSH1 0x40 MLOAD DUP1 DUP4 SUB DUP2 DUP7 DUP1 EXTCODESIZE ISZERO DUP1 ISZERO PUSH2 0x1116 JUMPI PUSH1 0x0 DUP1 REVERT JUMPDEST POP GAS STATICCALL ISZERO DUP1 ISZERO PUSH2 0x112A JUMPI RETURNDATASIZE PUSH1 0x0 DUP1 RETURNDATACOPY RETURNDATASIZE PUSH1 0x0 REVERT JUMPDEST POP POP POP POP PUSH1 0x40 MLOAD RETURNDATASIZE PUSH1 0x1F NOT PUSH1 0x1F DUP3 ADD AND DUP3 ADD DUP1 PUSH1 0x40 MSTORE POP DUP2 ADD SWAP1 PUSH2 0x114E SWAP2 SWAP1 PUSH2 0x5027 JUMP JUMPDEST PUSH2 0x1159 SWAP1 PUSH1 0xA PUSH2 0x54ED JUMP JUMPDEST PUSH2 0x1163 DUP9 DUP11 PUSH2 0x5598 JUMP JUMPDEST PUSH2 0x116D SWAP2 SWAP1 PUSH2 0x5598 JUMP JUMPDEST PUSH2 0x1177 SWAP2 SWAP1 PUSH2 0x5496 JUMP JUMPDEST PUSH1 0x40 MLOAD DUP4 PUSH4 0xFFFFFFFF AND PUSH1 0xE0 SHL DUP2 MSTORE PUSH1 0x4 ADD PUSH2 0x1194 SWAP3 SWAP2 SWAP1 PUSH2 0x5187 JUMP JUMPDEST PUSH1 0x20 PUSH1 0x40 MLOAD DUP1 DUP4 SUB DUP2 PUSH1 0x0 DUP8 DUP1 EXTCODESIZE ISZERO DUP1 ISZERO PUSH2 0x11AE JUMPI PUSH1 0x0 DUP1 REVERT JUMPDEST POP GAS CALL ISZERO DUP1 ISZERO PUSH2 0x11C2 JUMPI RETURNDATASIZE PUSH1 0x0 DUP1 RETURNDATACOPY RETURNDATASIZE PUSH1 0x0 REVERT JUMPDEST POP POP POP POP PUSH1 0x40 MLOAD RETURNDATASIZE PUSH1 0x1F NOT PUSH1 0x1F DUP3 ADD AND DUP3 ADD DUP1 PUSH1 0x40 MSTORE POP DUP2 ADD SWAP1 PUSH2 0x11E6 SWAP2 SWAP1 PUSH2 0x4E4E JUMP JUMPDEST POP PUSH1 0x10 SLOAD PUSH1 0x1 PUSH1 0x1 PUSH1 0xA0 SHL SUB AND PUSH4 0xA9059CBB PUSH2 0x1200 PUSH2 0x1F94 JUMP JUMPDEST PUSH2 0x120E DUP6 PUSH4 0x5F5E100 PUSH2 0x5598 JUMP JUMPDEST PUSH1 0x10 PUSH1 0x0 SWAP1 SLOAD SWAP1 PUSH2 0x100 EXP SWAP1 DIV PUSH1 0x1 PUSH1 0x1 PUSH1 0xA0 SHL SUB AND PUSH1 0x1 PUSH1 0x1 PUSH1 0xA0 SHL SUB AND PUSH4 0x313CE567 PUSH1 0x40 MLOAD DUP2 PUSH4 0xFFFFFFFF AND PUSH1 0xE0 SHL DUP2 MSTORE PUSH1 0x4 ADD PUSH1 0x20 PUSH1 0x40 MLOAD DUP1 DUP4 SUB DUP2 DUP7 DUP1 EXTCODESIZE ISZERO DUP1 ISZERO PUSH2 0x125C JUMPI PUSH1 0x0 DUP1 REVERT JUMPDEST POP GAS STATICCALL ISZERO DUP1 ISZERO PUSH2 0x1270 JUMPI RETURNDATASIZE PUSH1 0x0 DUP1 RETURNDATACOPY RETURNDATASIZE PUSH1 0x0 REVERT JUMPDEST POP POP POP POP PUSH1 0x40 MLOAD RETURNDATASIZE PUSH1 0x1F NOT PUSH1 0x1F DUP3 ADD AND DUP3 ADD DUP1 PUSH1 0x40 MSTORE POP DUP2 ADD SWAP1 PUSH2 0x1294 SWAP2 SWAP1 PUSH2 0x5027 JUMP JUMPDEST PUSH2 0x129F SWAP1 PUSH1 0xA PUSH2 0x54ED JUMP JUMPDEST PUSH2 0x12A9 DUP9 DUP12 PUSH2 0x5598 JUMP JUMPDEST PUSH2 0x12B3 SWAP2 SWAP1 PUSH2 0x5598 JUMP JUMPDEST PUSH2 0x12BD SWAP2 SWAP1 PUSH2 0x5496 JUMP JUMPDEST PUSH1 0x40 MLOAD DUP4 PUSH4 0xFFFFFFFF AND PUSH1 0xE0 SHL DUP2 MSTORE PUSH1 0x4 ADD PUSH2 0x12DA SWAP3 SWAP2 SWAP1 PUSH2 0x5187 JUMP JUMPDEST PUSH1 0x20 PUSH1 0x40 MLOAD DUP1 DUP4 SUB DUP2 PUSH1 0x0 DUP8 DUP1 EXTCODESIZE ISZERO DUP1 ISZERO PUSH2 0x12F4 JUMPI PUSH1 0x0 DUP1 REVERT JUMPDEST POP GAS CALL ISZERO DUP1 ISZERO PUSH2 0x1308 JUMPI RETURNDATASIZE PUSH1 0x0 DUP1 RETURNDATACOPY RETURNDATASIZE PUSH1 0x0 REVERT JUMPDEST POP POP POP POP PUSH1 0x40 MLOAD RETURNDATASIZE PUSH1 0x1F NOT PUSH1 0x1F DUP3 ADD AND DUP3 ADD DUP1 PUSH1 0x40 MSTORE POP DUP2 ADD SWAP1 PUSH2 0x132C SWAP2 SWAP1 PUSH2 0x4E4E JUMP JUMPDEST POP PUSH2 0x1335 PUSH2 0x1F94 JUMP JUMPDEST PUSH1 0x1 PUSH1 0x1 PUSH1 0xA0 SHL SUB AND PUSH32 0xF0F0487D8990103573E0E5CF4E87E101E2A1BA84C733C556B7A5807E570E5D4C DUP7 PUSH1 0x40 MLOAD PUSH2 0x136F SWAP2 DUP2 MSTORE PUSH1 0x20 ADD SWAP1 JUMP JUMPDEST PUSH1 0x40 MLOAD DUP1 SWAP2 SUB SWAP1 LOG2 JUMPDEST CALLER PUSH1 0x1 PUSH1 0x1 PUSH1 0xA0 SHL SUB AND DUP10 PUSH32 0x89F823A0225C73A75066E963CE2EEA7708B57680EC86102773DBD244F5412892 DUP8 DUP10 DUP15 PUSH1 0x40 MLOAD PUSH2 0x13B6 SWAP4 SWAP3 SWAP2 SWAP1 PUSH2 0x53FF JUMP JUMPDEST PUSH1 0x40 MLOAD DUP1 SWAP2 SUB SWAP1 LOG3 POP POP PUSH1 0x1 PUSH1 0x7 SSTORE POP SWAP5 SWAP8 SWAP7 POP POP POP POP POP POP POP JUMP JUMPDEST PUSH1 0x0 PUSH2 0x13DD DUP3 PUSH2 0x301D JUMP JUMPDEST SWAP3 SWAP2 POP POP JUMP JUMPDEST PUSH1 0x60 PUSH1 0x0 DUP1 SLOAD PUSH2 0x13F2 SWAP1 PUSH2 0x5611 JUMP JUMPDEST DUP1 PUSH1 0x1F ADD PUSH1 0x20 DUP1 SWAP2 DIV MUL PUSH1 0x20 ADD PUSH1 0x40 MLOAD SWAP1 DUP2 ADD PUSH1 0x40 MSTORE DUP1 SWAP3 SWAP2 SWAP1 DUP2 DUP2 MSTORE PUSH1 0x20 ADD DUP3 DUP1 SLOAD PUSH2 0x141E SWAP1 PUSH2 0x5611 JUMP JUMPDEST DUP1 ISZERO PUSH2 0x146B JUMPI DUP1 PUSH1 0x1F LT PUSH2 0x1440 JUMPI PUSH2 0x100 DUP1 DUP4 SLOAD DIV MUL DUP4 MSTORE SWAP2 PUSH1 0x20 ADD SWAP2 PUSH2 0x146B JUMP JUMPDEST DUP3 ADD SWAP2 SWAP1 PUSH1 0x0 MSTORE PUSH1 0x20 PUSH1 0x0 KECCAK256 SWAP1 JUMPDEST DUP2 SLOAD DUP2 MSTORE SWAP1 PUSH1 0x1 ADD SWAP1 PUSH1 0x20 ADD DUP1 DUP4 GT PUSH2 0x144E JUMPI DUP3 SWAP1 SUB PUSH1 0x1F AND DUP3 ADD SWAP2 JUMPDEST POP POP POP POP POP SWAP1 POP SWAP1 JUMP JUMPDEST PUSH1 0x0 DUP1 JUMPDEST PUSH2 0x1482 DUP4 PUSH2 0x209E JUMP JUMPDEST DUP2 LT ISZERO PUSH2 0x14B4 JUMPI PUSH2 0x1496 PUSH2 0x63E DUP5 DUP4 PUSH2 0x2B4A JUMP JUMPDEST PUSH2 0x14A0 SWAP1 DUP4 PUSH2 0x547E JUMP JUMPDEST SWAP2 POP DUP1 PUSH2 0x14AC DUP2 PUSH2 0x5646 JUMP JUMPDEST SWAP2 POP POP PUSH2 0x1479 JUMP JUMPDEST POP SWAP2 SWAP1 POP JUMP JUMPDEST PUSH1 0x0 PUSH2 0x14C5 DUP3 PUSH2 0x3042 JUMP JUMPDEST PUSH2 0x1526 JUMPI PUSH1 0x40 MLOAD PUSH3 0x461BCD PUSH1 0xE5 SHL DUP2 MSTORE PUSH1 0x20 PUSH1 0x4 DUP3 ADD MSTORE PUSH1 0x2C PUSH1 0x24 DUP3 ADD MSTORE PUSH32 0x4552433732313A20617070726F76656420717565727920666F72206E6F6E6578 PUSH1 0x44 DUP3 ADD MSTORE PUSH12 0x34B9BA32B73A103A37B5B2B7 PUSH1 0xA1 SHL PUSH1 0x64 DUP3 ADD MSTORE PUSH1 0x84 ADD PUSH2 0x795 JUMP JUMPDEST POP PUSH1 0x0 SWAP1 DUP2 MSTORE PUSH1 0x4 PUSH1 0x20 MSTORE PUSH1 0x40 SWAP1 KECCAK256 SLOAD PUSH1 0x1 PUSH1 0x1 PUSH1 0xA0 SHL SUB AND SWAP1 JUMP JUMPDEST PUSH1 0x0 PUSH2 0x154D DUP3 PUSH2 0x1A69 JUMP JUMPDEST SWAP1 POP DUP1 PUSH1 0x1 PUSH1 0x1 PUSH1 0xA0 SHL SUB AND DUP4 PUSH1 0x1 PUSH1 0x1 PUSH1 0xA0 SHL SUB AND EQ ISZERO PUSH2 0x15BB JUMPI PUSH1 0x40 MLOAD PUSH3 0x461BCD PUSH1 0xE5 SHL DUP2 MSTORE PUSH1 0x20 PUSH1 0x4 DUP3 ADD MSTORE PUSH1 0x21 PUSH1 0x24 DUP3 ADD MSTORE PUSH32 0x4552433732313A20617070726F76616C20746F2063757272656E74206F776E65 PUSH1 0x44 DUP3 ADD MSTORE PUSH1 0x39 PUSH1 0xF9 SHL PUSH1 0x64 DUP3 ADD MSTORE PUSH1 0x84 ADD PUSH2 0x795 JUMP JUMPDEST CALLER PUSH1 0x1 PUSH1 0x1 PUSH1 0xA0 SHL SUB DUP3 AND EQ DUP1 PUSH2 0x15D7 JUMPI POP PUSH2 0x15D7 DUP2 CALLER PUSH2 0x2BD3 JUMP JUMPDEST PUSH2 0x1644 JUMPI PUSH1 0x40 MLOAD PUSH3 0x461BCD PUSH1 0xE5 SHL DUP2 MSTORE PUSH1 0x20 PUSH1 0x4 DUP3 ADD MSTORE PUSH1 0x38 PUSH1 0x24 DUP3 ADD MSTORE PUSH32 0x4552433732313A20617070726F76652063616C6C6572206973206E6F74206F77 PUSH1 0x44 DUP3 ADD MSTORE PUSH24 0x1B995C881B9BDC88185C1C1C9BDD995908199BDC88185B1B PUSH1 0x42 SHL PUSH1 0x64 DUP3 ADD MSTORE PUSH1 0x84 ADD PUSH2 0x795 JUMP JUMPDEST PUSH2 0x164E DUP4 DUP4 PUSH2 0x305F JUMP JUMPDEST POP POP POP JUMP JUMPDEST PUSH2 0x165D CALLER DUP3 PUSH2 0x30CD JUMP JUMPDEST PUSH2 0x1679 JUMPI PUSH1 0x40 MLOAD PUSH3 0x461BCD PUSH1 0xE5 SHL DUP2 MSTORE PUSH1 0x4 ADD PUSH2 0x795 SWAP1 PUSH2 0x533C JUMP JUMPDEST PUSH2 0x164E DUP4 DUP4 DUP4 PUSH2 0x3197 JUMP JUMPDEST PUSH1 0x0 SWAP1 DUP2 MSTORE PUSH1 0x8 PUSH1 0x20 MSTORE PUSH1 0x40 SWAP1 KECCAK256 PUSH1 0x1 ADD SLOAD SWAP1 JUMP JUMPDEST PUSH1 0x0 SWAP1 DUP2 MSTORE PUSH1 0xA PUSH1 0x20 MSTORE PUSH1 0x40 SWAP1 KECCAK256 SLOAD SWAP1 JUMP JUMPDEST PUSH2 0x16B4 DUP3 PUSH2 0x1684 JUMP JUMPDEST PUSH2 0x16BE DUP2 CALLER PUSH2 0x3330 JUMP JUMPDEST PUSH2 0x164E DUP4 DUP4 PUSH2 0x3394 JUMP JUMPDEST PUSH1 0x1 PUSH1 0x1 PUSH1 0xA0 SHL SUB DUP2 AND CALLER EQ PUSH2 0x1738 JUMPI PUSH1 0x40 MLOAD PUSH3 0x461BCD PUSH1 0xE5 SHL DUP2 MSTORE PUSH1 0x20 PUSH1 0x4 DUP3 ADD MSTORE PUSH1 0x2F PUSH1 0x24 DUP3 ADD MSTORE PUSH32 0x416363657373436F6E74726F6C3A2063616E206F6E6C792072656E6F756E6365 PUSH1 0x44 DUP3 ADD MSTORE PUSH15 0x103937B632B9903337B91039B2B633 PUSH1 0x89 SHL PUSH1 0x64 DUP3 ADD MSTORE PUSH1 0x84 ADD PUSH2 0x795 JUMP JUMPDEST PUSH2 0x1742 DUP3 DUP3 PUSH2 0x341A JUMP JUMPDEST POP POP JUMP JUMPDEST PUSH2 0x174F DUP3 PUSH2 0x1A69 JUMP JUMPDEST PUSH1 0x1 PUSH1 0x1 PUSH1 0xA0 SHL SUB AND CALLER PUSH1 0x1 PUSH1 0x1 PUSH1 0xA0 SHL SUB AND EQ PUSH2 0x177F JUMPI PUSH1 0x40 MLOAD PUSH3 0x461BCD PUSH1 0xE5 SHL DUP2 MSTORE PUSH1 0x4 ADD PUSH2 0x795 SWAP1 PUSH2 0x5261 JUMP JUMPDEST PUSH2 0x164E DUP4 DUP4 DUP4 PUSH2 0x3481 JUMP JUMPDEST PUSH2 0x164E DUP4 DUP4 DUP4 PUSH1 0x40 MLOAD DUP1 PUSH1 0x20 ADD PUSH1 0x40 MSTORE DUP1 PUSH1 0x0 DUP2 MSTORE POP PUSH2 0x27A2 JUMP JUMPDEST PUSH2 0x17AE DUP2 PUSH2 0x1A69 JUMP JUMPDEST PUSH1 0x1 PUSH1 0x1 PUSH1 0xA0 SHL SUB AND CALLER PUSH1 0x1 PUSH1 0x1 PUSH1 0xA0 SHL SUB AND EQ PUSH2 0x17DE JUMPI PUSH1 0x40 MLOAD PUSH3 0x461BCD PUSH1 0xE5 SHL DUP2 MSTORE PUSH1 0x4 ADD PUSH2 0x795 SWAP1 PUSH2 0x5261 JUMP JUMPDEST PUSH2 0x17E7 DUP2 PUSH2 0x3546 JUMP JUMPDEST POP JUMP JUMPDEST PUSH2 0x17F3 DUP3 PUSH2 0x190C JUMP JUMPDEST PUSH2 0x1825 JUMPI PUSH1 0x40 MLOAD PUSH3 0x461BCD PUSH1 0xE5 SHL DUP2 MSTORE PUSH1 0x20 PUSH1 0x4 DUP3 ADD MSTORE PUSH1 0x3 PUSH1 0x24 DUP3 ADD MSTORE PUSH3 0x271899 PUSH1 0xE9 SHL PUSH1 0x44 DUP3 ADD MSTORE PUSH1 0x64 ADD PUSH2 0x795 JUMP JUMPDEST PUSH1 0x0 DUP1 PUSH1 0x0 PUSH2 0x1834 DUP7 DUP6 PUSH2 0x355E JUMP JUMPDEST POP SWAP3 POP SWAP3 POP SWAP3 POP PUSH1 0x0 PUSH2 0x1846 DUP7 PUSH2 0x368B JUMP JUMPDEST SWAP1 POP PUSH2 0x1882 DUP7 DUP3 DUP5 DUP5 PUSH1 0x60 ADD MLOAD PUSH2 0x185D SWAP2 SWAP1 PUSH2 0x547E JUMP JUMPDEST DUP8 DUP6 PUSH1 0x40 ADD MLOAD PUSH2 0x186D SWAP2 SWAP1 PUSH2 0x547E JUMP JUMPDEST DUP8 DUP7 PUSH1 0x80 ADD MLOAD PUSH2 0x187D SWAP2 SWAP1 PUSH2 0x547E JUMP JUMPDEST PUSH2 0x377A JUMP JUMPDEST PUSH1 0x15 SLOAD PUSH1 0x60 DUP3 ADD MLOAD PUSH1 0x80 DUP4 ADD MLOAD PUSH1 0x40 MLOAD PUSH4 0x57A5C967 PUSH1 0xE0 SHL DUP2 MSTORE SWAP4 SWAP5 POP PUSH1 0x1 PUSH1 0x1 PUSH1 0xA0 SHL SUB SWAP1 SWAP3 AND SWAP3 PUSH4 0x57A5C967 SWAP3 PUSH2 0x18C2 SWAP3 DUP12 SWAP3 SWAP1 SWAP2 SWAP1 PUSH1 0x4 ADD PUSH2 0x541E JUMP JUMPDEST PUSH1 0x0 PUSH1 0x40 MLOAD DUP1 DUP4 SUB DUP2 PUSH1 0x0 DUP8 DUP1 EXTCODESIZE ISZERO DUP1 ISZERO PUSH2 0x18DC JUMPI PUSH1 0x0 DUP1 REVERT JUMPDEST POP GAS CALL ISZERO DUP1 ISZERO PUSH2 0x18F0 JUMPI RETURNDATASIZE PUSH1 0x0 DUP1 RETURNDATACOPY RETURNDATASIZE PUSH1 0x0 REVERT JUMPDEST POP POP POP POP PUSH2 0x1901 DUP10 DUP10 DUP10 DUP10 DUP10 PUSH2 0x37AC JUMP JUMPDEST POP POP POP POP POP POP POP POP POP JUMP JUMPDEST PUSH1 0x0 PUSH2 0x13DD DUP3 PUSH2 0x3042 JUMP JUMPDEST PUSH1 0x0 DUP2 DUP2 MSTORE PUSH1 0x14 PUSH1 0x20 MSTORE PUSH1 0x40 SWAP1 KECCAK256 PUSH1 0x5 DUP2 ADD SLOAD TIMESTAMP GT PUSH2 0x195D JUMPI PUSH1 0x40 MLOAD PUSH3 0x461BCD PUSH1 0xE5 SHL DUP2 MSTORE PUSH1 0x20 PUSH1 0x4 DUP3 ADD MSTORE PUSH1 0x2 PUSH1 0x24 DUP3 ADD MSTORE PUSH2 0x13CD PUSH1 0xF2 SHL PUSH1 0x44 DUP3 ADD MSTORE PUSH1 0x64 ADD PUSH2 0x795 JUMP JUMPDEST PUSH1 0x1 DUP2 SLOAD PUSH1 0xFF AND PUSH1 0x3 DUP2 GT ISZERO PUSH2 0x1983 JUMPI PUSH4 0x4E487B71 PUSH1 0xE0 SHL PUSH1 0x0 MSTORE PUSH1 0x21 PUSH1 0x4 MSTORE PUSH1 0x24 PUSH1 0x0 REVERT JUMPDEST EQ PUSH2 0x19B5 JUMPI PUSH1 0x40 MLOAD PUSH3 0x461BCD PUSH1 0xE5 SHL DUP2 MSTORE PUSH1 0x20 PUSH1 0x4 DUP3 ADD MSTORE PUSH1 0x2 PUSH1 0x24 DUP3 ADD MSTORE PUSH2 0x4F35 PUSH1 0xF0 SHL PUSH1 0x44 DUP3 ADD MSTORE PUSH1 0x64 ADD PUSH2 0x795 JUMP JUMPDEST DUP1 SLOAD PUSH1 0xFF NOT AND PUSH1 0x3 OR DUP2 SSTORE PUSH1 0x15 SLOAD PUSH1 0x40 MLOAD PUSH4 0x6198E339 PUSH1 0xE0 SHL DUP2 MSTORE PUSH1 0x4 DUP2 ADD DUP5 SWAP1 MSTORE PUSH1 0x1 PUSH1 0x1 PUSH1 0xA0 SHL SUB SWAP1 SWAP2 AND SWAP1 PUSH4 0x6198E339 SWAP1 PUSH1 0x24 ADD PUSH1 0x0 PUSH1 0x40 MLOAD DUP1 DUP4 SUB DUP2 PUSH1 0x0 DUP8 DUP1 EXTCODESIZE ISZERO DUP1 ISZERO PUSH2 0x1A06 JUMPI PUSH1 0x0 DUP1 REVERT JUMPDEST POP GAS CALL ISZERO DUP1 ISZERO PUSH2 0x1A1A JUMPI RETURNDATASIZE PUSH1 0x0 DUP1 RETURNDATACOPY RETURNDATASIZE PUSH1 0x0 REVERT JUMPDEST POP POP POP POP PUSH2 0x1A27 DUP3 PUSH2 0x3546 JUMP JUMPDEST DUP2 PUSH32 0x5F36A4A575E512EB69D6D28C3B0FF98CCA7BA50AD5BF04E14094AD1D425E0D31 DUP3 PUSH1 0x4 ADD SLOAD PUSH1 0x40 MLOAD PUSH2 0x1A5D SWAP2 DUP2 MSTORE PUSH1 0x20 ADD SWAP1 JUMP JUMPDEST PUSH1 0x40 MLOAD DUP1 SWAP2 SUB SWAP1 LOG2 POP POP JUMP JUMPDEST PUSH1 0x0 DUP2 DUP2 MSTORE PUSH1 0x2 PUSH1 0x20 MSTORE PUSH1 0x40 DUP2 KECCAK256 SLOAD PUSH1 0x1 PUSH1 0x1 PUSH1 0xA0 SHL SUB AND DUP1 PUSH2 0x13DD JUMPI PUSH1 0x40 MLOAD PUSH3 0x461BCD PUSH1 0xE5 SHL DUP2 MSTORE PUSH1 0x20 PUSH1 0x4 DUP3 ADD MSTORE PUSH1 0x29 PUSH1 0x24 DUP3 ADD MSTORE PUSH32 0x4552433732313A206F776E657220717565727920666F72206E6F6E6578697374 PUSH1 0x44 DUP3 ADD MSTORE PUSH9 0x32B73A103A37B5B2B7 PUSH1 0xB9 SHL PUSH1 0x64 DUP3 ADD MSTORE PUSH1 0x84 ADD PUSH2 0x795 JUMP JUMPDEST PUSH1 0x60 DUP2 PUSH2 0x1B14 JUMPI PUSH1 0x40 MLOAD PUSH3 0x461BCD PUSH1 0xE5 SHL DUP2 MSTORE PUSH1 0x20 PUSH1 0x4 DUP3 ADD MSTORE PUSH1 0x2 PUSH1 0x24 DUP3 ADD MSTORE PUSH2 0x4E31 PUSH1 0xF0 SHL PUSH1 0x44 DUP3 ADD MSTORE PUSH1 0x64 ADD PUSH2 0x795 JUMP JUMPDEST DUP2 PUSH1 0x1 PUSH1 0x1 PUSH1 0x40 SHL SUB DUP2 GT ISZERO PUSH2 0x1B3A JUMPI PUSH4 0x4E487B71 PUSH1 0xE0 SHL PUSH1 0x0 MSTORE PUSH1 0x41 PUSH1 0x4 MSTORE PUSH1 0x24 PUSH1 0x0 REVERT JUMPDEST PUSH1 0x40 MLOAD SWAP1 DUP1 DUP3 MSTORE DUP1 PUSH1 0x20 MUL PUSH1 0x20 ADD DUP3 ADD PUSH1 0x40 MSTORE DUP1 ISZERO PUSH2 0x1B63 JUMPI DUP2 PUSH1 0x20 ADD PUSH1 0x20 DUP3 MUL DUP1 CALLDATASIZE DUP4 CALLDATACOPY ADD SWAP1 POP JUMPDEST POP SWAP1 POP PUSH1 0x0 PUSH2 0x1B71 DUP6 PUSH2 0x368B JUMP JUMPDEST SWAP1 POP PUSH1 0x0 PUSH2 0x1B7E DUP7 PUSH2 0x29EA JUMP JUMPDEST SWAP1 POP PUSH1 0x0 DUP1 DUP1 DUP1 JUMPDEST DUP8 DUP2 LT ISZERO PUSH2 0x1D91 JUMPI PUSH1 0x0 PUSH2 0x1B98 PUSH2 0x2D75 JUMP JUMPDEST SWAP1 POP DUP1 DUP9 DUP4 DUP2 MLOAD DUP2 LT PUSH2 0x1BBB JUMPI PUSH4 0x4E487B71 PUSH1 0xE0 SHL PUSH1 0x0 MSTORE PUSH1 0x32 PUSH1 0x4 MSTORE PUSH1 0x24 PUSH1 0x0 REVERT JUMPDEST PUSH1 0x20 MUL PUSH1 0x20 ADD ADD DUP2 DUP2 MSTORE POP POP PUSH2 0x1BF8 DUP12 DUP3 DUP13 DUP13 DUP7 DUP2 DUP2 LT PUSH2 0x1BEC JUMPI PUSH4 0x4E487B71 PUSH1 0xE0 SHL PUSH1 0x0 MSTORE PUSH1 0x32 PUSH1 0x4 MSTORE PUSH1 0x24 PUSH1 0x0 REVERT JUMPDEST SWAP1 POP PUSH1 0x20 MUL ADD CALLDATALOAD PUSH2 0x39F2 JUMP JUMPDEST PUSH1 0x0 DUP7 DUP12 DUP12 DUP6 DUP2 DUP2 LT PUSH2 0x1C1B JUMPI PUSH4 0x4E487B71 PUSH1 0xE0 SHL PUSH1 0x0 MSTORE PUSH1 0x32 PUSH1 0x4 MSTORE PUSH1 0x24 PUSH1 0x0 REVERT JUMPDEST SWAP1 POP PUSH1 0x20 MUL ADD CALLDATALOAD DUP10 PUSH1 0x40 ADD MLOAD PUSH2 0x1C31 SWAP2 SWAP1 PUSH2 0x5598 JUMP JUMPDEST PUSH2 0x1C3B SWAP2 SWAP1 PUSH2 0x5496 JUMP JUMPDEST SWAP1 POP PUSH2 0x1C47 DUP2 DUP8 PUSH2 0x547E JUMP JUMPDEST SWAP6 POP PUSH1 0x0 DUP8 DUP13 DUP13 DUP7 DUP2 DUP2 LT PUSH2 0x1C6C JUMPI PUSH4 0x4E487B71 PUSH1 0xE0 SHL PUSH1 0x0 MSTORE PUSH1 0x32 PUSH1 0x4 MSTORE PUSH1 0x24 PUSH1 0x0 REVERT JUMPDEST SWAP1 POP PUSH1 0x20 MUL ADD CALLDATALOAD DUP11 PUSH1 0x60 ADD MLOAD PUSH2 0x1C82 SWAP2 SWAP1 PUSH2 0x5598 JUMP JUMPDEST PUSH2 0x1C8C SWAP2 SWAP1 PUSH2 0x5496 JUMP JUMPDEST SWAP1 POP PUSH2 0x1C98 DUP2 DUP8 PUSH2 0x547E JUMP JUMPDEST SWAP6 POP PUSH1 0x0 DUP9 DUP14 DUP14 DUP8 DUP2 DUP2 LT PUSH2 0x1CBD JUMPI PUSH4 0x4E487B71 PUSH1 0xE0 SHL PUSH1 0x0 MSTORE PUSH1 0x32 PUSH1 0x4 MSTORE PUSH1 0x24 PUSH1 0x0 REVERT JUMPDEST SWAP1 POP PUSH1 0x20 MUL ADD CALLDATALOAD DUP12 PUSH1 0x80 ADD MLOAD PUSH2 0x1CD3 SWAP2 SWAP1 PUSH2 0x5598 JUMP JUMPDEST PUSH2 0x1CDD SWAP2 SWAP1 PUSH2 0x5496 JUMP JUMPDEST SWAP1 POP PUSH2 0x1CE9 DUP2 DUP8 PUSH2 0x547E JUMP JUMPDEST SWAP6 POP PUSH1 0x0 PUSH1 0x40 MLOAD DUP1 PUSH1 0xE0 ADD PUSH1 0x40 MSTORE DUP1 DUP13 PUSH1 0x0 ADD MLOAD PUSH1 0x3 DUP2 GT ISZERO PUSH2 0x1D1C JUMPI PUSH4 0x4E487B71 PUSH1 0xE0 SHL PUSH1 0x0 MSTORE PUSH1 0x21 PUSH1 0x4 MSTORE PUSH1 0x24 PUSH1 0x0 REVERT JUMPDEST DUP2 MSTORE PUSH1 0x20 ADD DUP13 PUSH1 0x20 ADD MLOAD DUP2 MSTORE PUSH1 0x20 ADD DUP6 DUP2 MSTORE PUSH1 0x20 ADD DUP5 DUP2 MSTORE PUSH1 0x20 ADD DUP4 DUP2 MSTORE PUSH1 0x20 ADD DUP13 PUSH1 0xA0 ADD MLOAD DUP2 MSTORE PUSH1 0x20 ADD DUP13 PUSH1 0xC0 ADD MLOAD PUSH1 0x2 DUP2 GT ISZERO PUSH2 0x1D6B JUMPI PUSH4 0x4E487B71 PUSH1 0xE0 SHL PUSH1 0x0 MSTORE PUSH1 0x21 PUSH1 0x4 MSTORE PUSH1 0x24 PUSH1 0x0 REVERT JUMPDEST SWAP1 MSTORE SWAP1 POP PUSH2 0x1D79 DUP6 DUP3 PUSH2 0x2D8F JUMP JUMPDEST POP POP POP POP POP DUP1 DUP1 PUSH2 0x1D89 SWAP1 PUSH2 0x5646 JUMP JUMPDEST SWAP2 POP POP PUSH2 0x1B86 JUMP JUMPDEST POP PUSH2 0x1DC7 DUP10 DUP7 DUP5 DUP9 PUSH1 0x60 ADD MLOAD PUSH2 0x1DA7 SWAP2 SWAP1 PUSH2 0x55B7 JUMP JUMPDEST DUP7 DUP10 PUSH1 0x40 ADD MLOAD PUSH2 0x1DB7 SWAP2 SWAP1 PUSH2 0x55B7 JUMP JUMPDEST DUP6 DUP11 PUSH1 0x80 ADD MLOAD PUSH2 0x187D SWAP2 SWAP1 PUSH2 0x55B7 JUMP JUMPDEST PUSH1 0x15 SLOAD PUSH1 0x60 DUP3 ADD MLOAD PUSH1 0x80 DUP4 ADD MLOAD PUSH1 0x40 MLOAD PUSH4 0x57A5C967 PUSH1 0xE0 SHL DUP2 MSTORE SWAP4 SWAP9 POP PUSH1 0x1 PUSH1 0x1 PUSH1 0xA0 SHL SUB SWAP1 SWAP3 AND SWAP3 PUSH4 0x57A5C967 SWAP3 PUSH2 0x1E07 SWAP3 DUP15 SWAP3 SWAP1 SWAP2 SWAP1 PUSH1 0x4 ADD PUSH2 0x541E JUMP JUMPDEST PUSH1 0x0 PUSH1 0x40 MLOAD DUP1 DUP4 SUB DUP2 PUSH1 0x0 DUP8 DUP1 EXTCODESIZE ISZERO DUP1 ISZERO PUSH2 0x1E21 JUMPI PUSH1 0x0 DUP1 REVERT JUMPDEST POP GAS CALL ISZERO DUP1 ISZERO PUSH2 0x1E35 JUMPI RETURNDATASIZE PUSH1 0x0 DUP1 RETURNDATACOPY RETURNDATASIZE PUSH1 0x0 REVERT JUMPDEST POP POP POP POP PUSH1 0x0 JUMPDEST DUP8 DUP2 LT ISZERO PUSH2 0x1EC5 JUMPI PUSH1 0x0 PUSH2 0x1E76 DUP9 DUP4 DUP2 MLOAD DUP2 LT PUSH2 0x1E69 JUMPI PUSH4 0x4E487B71 PUSH1 0xE0 SHL PUSH1 0x0 MSTORE PUSH1 0x32 PUSH1 0x4 MSTORE PUSH1 0x24 PUSH1 0x0 REVERT JUMPDEST PUSH1 0x20 MUL PUSH1 0x20 ADD ADD MLOAD PUSH2 0x368B JUMP JUMPDEST SWAP1 POP PUSH2 0x1EB2 DUP9 DUP4 DUP2 MLOAD DUP2 LT PUSH2 0x1E9B JUMPI PUSH4 0x4E487B71 PUSH1 0xE0 SHL PUSH1 0x0 MSTORE PUSH1 0x32 PUSH1 0x4 MSTORE PUSH1 0x24 PUSH1 0x0 REVERT JUMPDEST PUSH1 0x20 MUL PUSH1 0x20 ADD ADD MLOAD DUP3 PUSH1 0x60 ADD MLOAD DUP4 PUSH1 0x80 ADD MLOAD PUSH2 0x2FB2 JUMP JUMPDEST POP DUP1 PUSH2 0x1EBD DUP2 PUSH2 0x5646 JUMP JUMPDEST SWAP2 POP POP PUSH2 0x1E3C JUMP JUMPDEST POP POP POP POP POP POP SWAP4 SWAP3 POP POP POP JUMP JUMPDEST PUSH1 0x0 PUSH1 0x1 PUSH1 0x1 PUSH1 0xA0 SHL SUB DUP3 AND PUSH2 0x1F3D JUMPI PUSH1 0x40 MLOAD PUSH3 0x461BCD PUSH1 0xE5 SHL DUP2 MSTORE PUSH1 0x20 PUSH1 0x4 DUP3 ADD MSTORE PUSH1 0x2A PUSH1 0x24 DUP3 ADD MSTORE PUSH32 0x4552433732313A2062616C616E636520717565727920666F7220746865207A65 PUSH1 0x44 DUP3 ADD MSTORE PUSH10 0x726F2061646472657373 PUSH1 0xB0 SHL PUSH1 0x64 DUP3 ADD MSTORE PUSH1 0x84 ADD PUSH2 0x795 JUMP JUMPDEST POP PUSH1 0x1 PUSH1 0x1 PUSH1 0xA0 SHL SUB AND PUSH1 0x0 SWAP1 DUP2 MSTORE PUSH1 0x3 PUSH1 0x20 MSTORE PUSH1 0x40 SWAP1 KECCAK256 SLOAD SWAP1 JUMP JUMPDEST CALLER PUSH2 0x1F62 PUSH2 0x1F94 JUMP JUMPDEST PUSH1 0x1 PUSH1 0x1 PUSH1 0xA0 SHL SUB AND EQ PUSH2 0x1F88 JUMPI PUSH1 0x40 MLOAD PUSH3 0x461BCD PUSH1 0xE5 SHL DUP2 MSTORE PUSH1 0x4 ADD PUSH2 0x795 SWAP1 PUSH2 0x5307 JUMP JUMPDEST PUSH2 0x1F92 PUSH1 0x0 PUSH2 0x3B1C JUMP JUMPDEST JUMP JUMPDEST PUSH1 0x6 SLOAD PUSH1 0x1 PUSH1 0x1 PUSH1 0xA0 SHL SUB AND SWAP1 JUMP JUMPDEST PUSH1 0x0 SWAP2 DUP3 MSTORE PUSH1 0x8 PUSH1 0x20 SWAP1 DUP2 MSTORE PUSH1 0x40 DUP1 DUP5 KECCAK256 PUSH1 0x1 PUSH1 0x1 PUSH1 0xA0 SHL SUB SWAP4 SWAP1 SWAP4 AND DUP5 MSTORE SWAP2 SWAP1 MSTORE SWAP1 KECCAK256 SLOAD PUSH1 0xFF AND SWAP1 JUMP JUMPDEST PUSH1 0x60 PUSH1 0x1 DUP1 SLOAD PUSH2 0x13F2 SWAP1 PUSH2 0x5611 JUMP JUMPDEST PUSH1 0x1 PUSH1 0x1 PUSH1 0xA0 SHL SUB DUP3 AND CALLER EQ ISZERO PUSH2 0x2032 JUMPI PUSH1 0x40 MLOAD PUSH3 0x461BCD PUSH1 0xE5 SHL DUP2 MSTORE PUSH1 0x20 PUSH1 0x4 DUP3 ADD MSTORE PUSH1 0x19 PUSH1 0x24 DUP3 ADD MSTORE PUSH25 0x22A9219B99189D1030B8383937BB32903A379031B0B63632B9 PUSH1 0x39 SHL PUSH1 0x44 DUP3 ADD MSTORE PUSH1 0x64 ADD PUSH2 0x795 JUMP JUMPDEST CALLER PUSH1 0x0 DUP2 DUP2 MSTORE PUSH1 0x5 PUSH1 0x20 SWAP1 DUP2 MSTORE PUSH1 0x40 DUP1 DUP4 KECCAK256 PUSH1 0x1 PUSH1 0x1 PUSH1 0xA0 SHL SUB DUP8 AND DUP1 DUP6 MSTORE SWAP1 DUP4 MSTORE SWAP3 DUP2 SWAP1 KECCAK256 DUP1 SLOAD PUSH1 0xFF NOT AND DUP7 ISZERO ISZERO SWAP1 DUP2 OR SWAP1 SWAP2 SSTORE SWAP1 MLOAD SWAP1 DUP2 MSTORE SWAP2 SWAP3 SWAP2 PUSH32 0x17307EAB39AB6107E8899845AD3D59BD9653F200F220920489CA2B5937696C31 SWAP2 ADD PUSH1 0x40 MLOAD DUP1 SWAP2 SUB SWAP1 LOG3 POP POP JUMP JUMPDEST PUSH1 0x0 DUP2 DUP2 MSTORE PUSH1 0xC PUSH1 0x20 MSTORE PUSH1 0x40 DUP2 KECCAK256 PUSH2 0x13DD SWAP1 PUSH2 0x3B6E JUMP JUMPDEST PUSH1 0x0 DUP1 PUSH2 0x20C1 DUP4 PUSH2 0x1A69 JUMP JUMPDEST SWAP1 POP CALLER PUSH1 0x1 PUSH1 0x1 PUSH1 0xA0 SHL SUB DUP3 AND EQ PUSH2 0x2101 JUMPI PUSH1 0x40 MLOAD PUSH3 0x461BCD PUSH1 0xE5 SHL DUP2 MSTORE PUSH1 0x20 PUSH1 0x4 DUP3 ADD MSTORE PUSH1 0x3 PUSH1 0x24 DUP3 ADD MSTORE PUSH3 0x279899 PUSH1 0xE9 SHL PUSH1 0x44 DUP3 ADD MSTORE PUSH1 0x64 ADD PUSH2 0x795 JUMP JUMPDEST PUSH1 0x0 DUP4 DUP2 MSTORE PUSH1 0x14 PUSH1 0x20 MSTORE PUSH1 0x40 SWAP1 KECCAK256 PUSH1 0x5 DUP2 ADD SLOAD TIMESTAMP GT ISZERO PUSH2 0x2149 JUMPI PUSH1 0x40 MLOAD PUSH3 0x461BCD PUSH1 0xE5 SHL DUP2 MSTORE PUSH1 0x20 PUSH1 0x4 DUP3 ADD MSTORE PUSH1 0x3 PUSH1 0x24 DUP3 ADD MSTORE PUSH3 0x4F3133 PUSH1 0xE8 SHL PUSH1 0x44 DUP3 ADD MSTORE PUSH1 0x64 ADD PUSH2 0x795 JUMP JUMPDEST PUSH1 0x1 DUP2 SLOAD PUSH1 0xFF AND PUSH1 0x3 DUP2 GT ISZERO PUSH2 0x216F JUMPI PUSH4 0x4E487B71 PUSH1 0xE0 SHL PUSH1 0x0 MSTORE PUSH1 0x21 PUSH1 0x4 MSTORE PUSH1 0x24 PUSH1 0x0 REVERT JUMPDEST EQ PUSH2 0x21A2 JUMPI PUSH1 0x40 MLOAD PUSH3 0x461BCD PUSH1 0xE5 SHL DUP2 MSTORE PUSH1 0x20 PUSH1 0x4 DUP3 ADD MSTORE PUSH1 0x3 PUSH1 0x24 DUP3 ADD MSTORE PUSH3 0x13CC4D PUSH1 0xEA SHL PUSH1 0x44 DUP3 ADD MSTORE PUSH1 0x64 ADD PUSH2 0x795 JUMP JUMPDEST PUSH1 0x12 SLOAD PUSH1 0x40 DUP1 MLOAD PUSH4 0xD67AAC1 PUSH1 0xE1 SHL DUP2 MSTORE SWAP1 MLOAD PUSH1 0x0 SWAP3 PUSH1 0x1 PUSH1 0x1 PUSH1 0xA0 SHL SUB AND SWAP2 PUSH4 0x1ACF5582 SWAP2 PUSH1 0x4 DUP1 DUP4 ADD SWAP3 PUSH1 0x20 SWAP3 SWAP2 SWAP1 DUP3 SWAP1 SUB ADD DUP2 DUP7 DUP1 EXTCODESIZE ISZERO DUP1 ISZERO PUSH2 0x21E7 JUMPI PUSH1 0x0 DUP1 REVERT JUMPDEST POP GAS STATICCALL ISZERO DUP1 ISZERO PUSH2 0x21FB JUMPI RETURNDATASIZE PUSH1 0x0 DUP1 RETURNDATACOPY RETURNDATASIZE PUSH1 0x0 REVERT JUMPDEST POP POP POP POP PUSH1 0x40 MLOAD RETURNDATASIZE PUSH1 0x1F NOT PUSH1 0x1F DUP3 ADD AND DUP3 ADD DUP1 PUSH1 0x40 MSTORE POP DUP2 ADD SWAP1 PUSH2 0x221F SWAP2 SWAP1 PUSH2 0x4EDE JUMP JUMPDEST SWAP1 POP PUSH1 0x2 PUSH1 0x6 DUP4 ADD SLOAD PUSH1 0xFF AND PUSH1 0x2 DUP2 GT ISZERO PUSH2 0x224A JUMPI PUSH4 0x4E487B71 PUSH1 0xE0 SHL PUSH1 0x0 MSTORE PUSH1 0x21 PUSH1 0x4 MSTORE PUSH1 0x24 PUSH1 0x0 REVERT JUMPDEST EQ ISZERO PUSH2 0x228E JUMPI DUP1 DUP3 PUSH1 0x1 ADD SLOAD GT ISZERO PUSH2 0x2289 JUMPI PUSH1 0x40 MLOAD PUSH3 0x461BCD PUSH1 0xE5 SHL DUP2 MSTORE PUSH1 0x20 PUSH1 0x4 DUP3 ADD MSTORE PUSH1 0x2 PUSH1 0x24 DUP3 ADD MSTORE PUSH2 0x279B PUSH1 0xF1 SHL PUSH1 0x44 DUP3 ADD MSTORE PUSH1 0x64 ADD PUSH2 0x795 JUMP JUMPDEST PUSH2 0x22C7 JUMP JUMPDEST DUP1 DUP3 PUSH1 0x1 ADD SLOAD LT ISZERO PUSH2 0x22C7 JUMPI PUSH1 0x40 MLOAD PUSH3 0x461BCD PUSH1 0xE5 SHL DUP2 MSTORE PUSH1 0x20 PUSH1 0x4 DUP3 ADD MSTORE PUSH1 0x2 PUSH1 0x24 DUP3 ADD MSTORE PUSH2 0x4F37 PUSH1 0xF0 SHL PUSH1 0x44 DUP3 ADD MSTORE PUSH1 0x64 ADD PUSH2 0x795 JUMP JUMPDEST PUSH1 0x15 SLOAD PUSH1 0x40 DUP1 MLOAD PUSH4 0x16DC165B PUSH1 0xE0 SHL DUP2 MSTORE SWAP1 MLOAD PUSH1 0x0 SWAP3 PUSH1 0x1 PUSH1 0x1 PUSH1 0xA0 SHL SUB AND SWAP2 PUSH4 0x16DC165B SWAP2 PUSH1 0x4 DUP1 DUP4 ADD SWAP3 PUSH1 0x20 SWAP3 SWAP2 SWAP1 DUP3 SWAP1 SUB ADD DUP2 DUP7 DUP1 EXTCODESIZE ISZERO DUP1 ISZERO PUSH2 0x230C JUMPI PUSH1 0x0 DUP1 REVERT JUMPDEST POP GAS STATICCALL ISZERO DUP1 ISZERO PUSH2 0x2320 JUMPI RETURNDATASIZE PUSH1 0x0 DUP1 RETURNDATACOPY RETURNDATASIZE PUSH1 0x0 REVERT JUMPDEST POP POP POP POP PUSH1 0x40 MLOAD RETURNDATASIZE PUSH1 0x1F NOT PUSH1 0x1F DUP3 ADD AND DUP3 ADD DUP1 PUSH1 0x40 MSTORE POP DUP2 ADD SWAP1 PUSH2 0x2344 SWAP2 SWAP1 PUSH2 0x4B95 JUMP JUMPDEST PUSH1 0x1 PUSH1 0x1 PUSH1 0xA0 SHL SUB AND PUSH4 0x313CE567 PUSH1 0x40 MLOAD DUP2 PUSH4 0xFFFFFFFF AND PUSH1 0xE0 SHL DUP2 MSTORE PUSH1 0x4 ADD PUSH1 0x20 PUSH1 0x40 MLOAD DUP1 DUP4 SUB DUP2 DUP7 DUP1 EXTCODESIZE ISZERO DUP1 ISZERO PUSH2 0x237C JUMPI PUSH1 0x0 DUP1 REVERT JUMPDEST POP GAS STATICCALL ISZERO DUP1 ISZERO PUSH2 0x2390 JUMPI RETURNDATASIZE PUSH1 0x0 DUP1 RETURNDATACOPY RETURNDATASIZE PUSH1 0x0 REVERT JUMPDEST POP POP POP POP PUSH1 0x40 MLOAD RETURNDATASIZE PUSH1 0x1F NOT PUSH1 0x1F DUP3 ADD AND DUP3 ADD DUP1 PUSH1 0x40 MSTORE POP DUP2 ADD SWAP1 PUSH2 0x23B4 SWAP2 SWAP1 PUSH2 0x5027 JUMP JUMPDEST PUSH2 0x23BF SWAP1 PUSH1 0xA PUSH2 0x54ED JUMP JUMPDEST SWAP1 POP PUSH1 0x0 PUSH2 0x23D1 DUP3 PUSH4 0x5F5E100 PUSH2 0x5598 JUMP JUMPDEST PUSH1 0x10 PUSH1 0x0 SWAP1 SLOAD SWAP1 PUSH2 0x100 EXP SWAP1 DIV PUSH1 0x1 PUSH1 0x1 PUSH1 0xA0 SHL SUB AND PUSH1 0x1 PUSH1 0x1 PUSH1 0xA0 SHL SUB AND PUSH4 0x313CE567 PUSH1 0x40 MLOAD DUP2 PUSH4 0xFFFFFFFF AND PUSH1 0xE0 SHL DUP2 MSTORE PUSH1 0x4 ADD PUSH1 0x20 PUSH1 0x40 MLOAD DUP1 DUP4 SUB DUP2 DUP7 DUP1 EXTCODESIZE ISZERO DUP1 ISZERO PUSH2 0x241F JUMPI PUSH1 0x0 DUP1 REVERT JUMPDEST POP GAS STATICCALL ISZERO DUP1 ISZERO PUSH2 0x2433 JUMPI RETURNDATASIZE PUSH1 0x0 DUP1 RETURNDATACOPY RETURNDATASIZE PUSH1 0x0 REVERT JUMPDEST POP POP POP POP PUSH1 0x40 MLOAD RETURNDATASIZE PUSH1 0x1F NOT PUSH1 0x1F DUP3 ADD AND DUP3 ADD DUP1 PUSH1 0x40 MSTORE POP DUP2 ADD SWAP1 PUSH2 0x2457 SWAP2 SWAP1 PUSH2 0x5027 JUMP JUMPDEST PUSH2 0x2462 SWAP1 PUSH1 0xA PUSH2 0x54ED JUMP JUMPDEST DUP6 PUSH1 0x2 ADD SLOAD DUP7 PUSH1 0x1 ADD SLOAD PUSH2 0x2476 SWAP2 SWAP1 PUSH2 0x5598 JUMP JUMPDEST PUSH2 0x2480 SWAP2 SWAP1 PUSH2 0x5598 JUMP JUMPDEST PUSH2 0x248A SWAP2 SWAP1 PUSH2 0x5496 JUMP JUMPDEST SWAP1 POP PUSH1 0x15 PUSH1 0x0 SWAP1 SLOAD SWAP1 PUSH2 0x100 EXP SWAP1 DIV PUSH1 0x1 PUSH1 0x1 PUSH1 0xA0 SHL SUB AND PUSH1 0x1 PUSH1 0x1 PUSH1 0xA0 SHL SUB AND PUSH4 0xA4475CE4 PUSH1 0x40 MLOAD DUP2 PUSH4 0xFFFFFFFF AND PUSH1 0xE0 SHL DUP2 MSTORE PUSH1 0x4 ADD PUSH1 0x20 PUSH1 0x40 MLOAD DUP1 DUP4 SUB DUP2 DUP7 DUP1 EXTCODESIZE ISZERO DUP1 ISZERO PUSH2 0x24DA JUMPI PUSH1 0x0 DUP1 REVERT JUMPDEST POP GAS STATICCALL ISZERO DUP1 ISZERO PUSH2 0x24EE JUMPI RETURNDATASIZE PUSH1 0x0 DUP1 RETURNDATACOPY RETURNDATASIZE PUSH1 0x0 REVERT JUMPDEST POP POP POP POP PUSH1 0x40 MLOAD RETURNDATASIZE PUSH1 0x1F NOT PUSH1 0x1F DUP3 ADD AND DUP3 ADD DUP1 PUSH1 0x40 MSTORE POP DUP2 ADD SWAP1 PUSH2 0x2512 SWAP2 SWAP1 PUSH2 0x4B95 JUMP JUMPDEST PUSH1 0x1 PUSH1 0x1 PUSH1 0xA0 SHL SUB AND CALLER PUSH1 0x1 PUSH1 0x1 PUSH1 0xA0 SHL SUB AND EQ PUSH2 0x26CA JUMPI PUSH1 0x10 SLOAD PUSH1 0x40 MLOAD PUSH4 0x23B872DD PUSH1 0xE0 SHL DUP2 MSTORE PUSH1 0x0 SWAP2 PUSH1 0x1 PUSH1 0x1 PUSH1 0xA0 SHL SUB AND SWAP1 PUSH4 0x23B872DD SWAP1 PUSH2 0x255F SWAP1 CALLER SWAP1 ADDRESS SWAP1 DUP8 SWAP1 PUSH1 0x4 ADD PUSH2 0x5126 JUMP JUMPDEST PUSH1 0x20 PUSH1 0x40 MLOAD DUP1 DUP4 SUB DUP2 PUSH1 0x0 DUP8 DUP1 EXTCODESIZE ISZERO DUP1 ISZERO PUSH2 0x2579 JUMPI PUSH1 0x0 DUP1 REVERT JUMPDEST POP GAS CALL ISZERO DUP1 ISZERO PUSH2 0x258D JUMPI RETURNDATASIZE PUSH1 0x0 DUP1 RETURNDATACOPY RETURNDATASIZE PUSH1 0x0 REVERT JUMPDEST POP POP POP POP PUSH1 0x40 MLOAD RETURNDATASIZE PUSH1 0x1F NOT PUSH1 0x1F DUP3 ADD AND DUP3 ADD DUP1 PUSH1 0x40 MSTORE POP DUP2 ADD SWAP1 PUSH2 0x25B1 SWAP2 SWAP1 PUSH2 0x4E4E JUMP JUMPDEST SWAP1 POP DUP1 PUSH2 0x25D0 JUMPI PUSH1 0x40 MLOAD PUSH3 0x461BCD PUSH1 0xE5 SHL DUP2 MSTORE PUSH1 0x4 ADD PUSH2 0x795 SWAP1 PUSH2 0x52CF JUMP JUMPDEST PUSH1 0x10 SLOAD PUSH1 0x15 SLOAD PUSH1 0x40 DUP1 MLOAD PUSH4 0x2911D739 PUSH1 0xE2 SHL DUP2 MSTORE SWAP1 MLOAD PUSH1 0x1 PUSH1 0x1 PUSH1 0xA0 SHL SUB SWAP4 DUP5 AND SWAP4 PUSH4 0xA9059CBB SWAP4 AND SWAP2 PUSH4 0xA4475CE4 SWAP2 PUSH1 0x4 DUP1 DUP4 ADD SWAP3 PUSH1 0x20 SWAP3 SWAP2 SWAP1 DUP3 SWAP1 SUB ADD DUP2 DUP7 DUP1 EXTCODESIZE ISZERO DUP1 ISZERO PUSH2 0x261F JUMPI PUSH1 0x0 DUP1 REVERT JUMPDEST POP GAS STATICCALL ISZERO DUP1 ISZERO PUSH2 0x2633 JUMPI RETURNDATASIZE PUSH1 0x0 DUP1 RETURNDATACOPY RETURNDATASIZE PUSH1 0x0 REVERT JUMPDEST POP POP POP POP PUSH1 0x40 MLOAD RETURNDATASIZE PUSH1 0x1F NOT PUSH1 0x1F DUP3 ADD AND DUP3 ADD DUP1 PUSH1 0x40 MSTORE POP DUP2 ADD SWAP1 PUSH2 0x2657 SWAP2 SWAP1 PUSH2 0x4B95 JUMP JUMPDEST DUP5 PUSH1 0x40 MLOAD DUP4 PUSH4 0xFFFFFFFF AND PUSH1 0xE0 SHL DUP2 MSTORE PUSH1 0x4 ADD PUSH2 0x2675 SWAP3 SWAP2 SWAP1 PUSH2 0x5187 JUMP JUMPDEST PUSH1 0x20 PUSH1 0x40 MLOAD DUP1 DUP4 SUB DUP2 PUSH1 0x0 DUP8 DUP1 EXTCODESIZE ISZERO DUP1 ISZERO PUSH2 0x268F JUMPI PUSH1 0x0 DUP1 REVERT JUMPDEST POP GAS CALL ISZERO DUP1 ISZERO PUSH2 0x26A3 JUMPI RETURNDATASIZE PUSH1 0x0 DUP1 RETURNDATACOPY RETURNDATASIZE PUSH1 0x0 REVERT JUMPDEST POP POP POP POP PUSH1 0x40 MLOAD RETURNDATASIZE PUSH1 0x1F NOT PUSH1 0x1F DUP3 ADD AND DUP3 ADD DUP1 PUSH1 0x40 MSTORE POP DUP2 ADD SWAP1 PUSH2 0x26C7 SWAP2 SWAP1 PUSH2 0x4E4E JUMP JUMPDEST POP POP JUMPDEST PUSH1 0x15 SLOAD PUSH1 0x1 PUSH1 0x1 PUSH1 0xA0 SHL SUB AND PUSH4 0x81B34F15 DUP9 PUSH2 0x26E5 DUP2 PUSH2 0x1A69 JUMP JUMPDEST PUSH1 0x3 DUP9 ADD SLOAD PUSH1 0x40 MLOAD PUSH1 0x1 PUSH1 0x1 PUSH1 0xE0 SHL SUB NOT PUSH1 0xE0 DUP7 SWAP1 SHL AND DUP2 MSTORE PUSH1 0x4 DUP2 ADD SWAP4 SWAP1 SWAP4 MSTORE PUSH1 0x1 PUSH1 0x1 PUSH1 0xA0 SHL SUB SWAP1 SWAP2 AND PUSH1 0x24 DUP4 ADD MSTORE PUSH1 0x44 DUP3 ADD MSTORE PUSH1 0x64 ADD PUSH1 0x0 PUSH1 0x40 MLOAD DUP1 DUP4 SUB DUP2 PUSH1 0x0 DUP8 DUP1 EXTCODESIZE ISZERO DUP1 ISZERO PUSH2 0x2738 JUMPI PUSH1 0x0 DUP1 REVERT JUMPDEST POP GAS CALL ISZERO DUP1 ISZERO PUSH2 0x274C JUMPI RETURNDATASIZE PUSH1 0x0 DUP1 RETURNDATACOPY RETURNDATASIZE PUSH1 0x0 REVERT JUMPDEST POP POP POP POP PUSH2 0x2759 DUP8 PUSH2 0x3546 JUMP JUMPDEST DUP4 SLOAD PUSH1 0xFF NOT AND PUSH1 0x2 OR DUP5 SSTORE PUSH1 0x40 MLOAD DUP7 DUP2 MSTORE DUP8 SWAP1 PUSH31 0x84FE51C7CB34B132B7B6EB5D5A87A489F8D6D284758D00A0402C1BAD9A0DEF SWAP1 PUSH1 0x20 ADD PUSH1 0x40 MLOAD DUP1 SWAP2 SUB SWAP1 LOG2 POP POP POP POP POP SWAP2 SWAP1 POP JUMP JUMPDEST PUSH2 0x27AD CALLER JUMPDEST DUP4 PUSH2 0x30CD JUMP JUMPDEST PUSH2 0x27C9 JUMPI PUSH1 0x40 MLOAD PUSH3 0x461BCD PUSH1 0xE5 SHL DUP2 MSTORE PUSH1 0x4 ADD PUSH2 0x795 SWAP1 PUSH2 0x533C JUMP JUMPDEST PUSH2 0x27D5 DUP5 DUP5 DUP5 DUP5 PUSH2 0x3B78 JUMP JUMPDEST POP POP POP POP JUMP JUMPDEST DUP2 PUSH2 0x280D JUMPI PUSH1 0x40 MLOAD PUSH3 0x461BCD PUSH1 0xE5 SHL DUP2 MSTORE PUSH1 0x20 PUSH1 0x4 DUP3 ADD MSTORE PUSH1 0x2 PUSH1 0x24 DUP3 ADD MSTORE PUSH2 0x138D PUSH1 0xF2 SHL PUSH1 0x44 DUP3 ADD MSTORE PUSH1 0x64 ADD PUSH2 0x795 JUMP JUMPDEST PUSH1 0x0 PUSH2 0x2818 DUP3 PUSH2 0x368B JUMP JUMPDEST PUSH1 0x60 DUP2 ADD MLOAD PUSH1 0x40 DUP3 ADD MLOAD PUSH1 0x80 DUP4 ADD MLOAD SWAP3 SWAP4 POP SWAP1 SWAP2 PUSH1 0x0 JUMPDEST DUP7 DUP2 LT ISZERO PUSH2 0x296C JUMPI PUSH1 0x0 PUSH2 0x2868 DUP10 DUP10 DUP5 DUP2 DUP2 LT PUSH2 0x285C JUMPI PUSH4 0x4E487B71 PUSH1 0xE0 SHL PUSH1 0x0 MSTORE PUSH1 0x32 PUSH1 0x4 MSTORE PUSH1 0x24 PUSH1 0x0 REVERT JUMPDEST SWAP1 POP PUSH1 0x20 MUL ADD CALLDATALOAD PUSH2 0x368B JUMP JUMPDEST SWAP1 POP DUP1 PUSH1 0x60 ADD MLOAD DUP6 PUSH2 0x287A SWAP2 SWAP1 PUSH2 0x547E JUMP JUMPDEST SWAP5 POP DUP1 PUSH1 0x40 ADD MLOAD DUP5 PUSH2 0x288C SWAP2 SWAP1 PUSH2 0x547E JUMP JUMPDEST SWAP4 POP DUP1 PUSH1 0x80 ADD MLOAD DUP4 PUSH2 0x289E SWAP2 SWAP1 PUSH2 0x547E JUMP JUMPDEST PUSH1 0x15 SLOAD SWAP1 SWAP4 POP PUSH1 0x1 PUSH1 0x1 PUSH1 0xA0 SHL SUB AND PUSH4 0xDBF21B0 DUP11 DUP11 DUP6 DUP2 DUP2 LT PUSH2 0x28D2 JUMPI PUSH4 0x4E487B71 PUSH1 0xE0 SHL PUSH1 0x0 MSTORE PUSH1 0x32 PUSH1 0x4 MSTORE PUSH1 0x24 PUSH1 0x0 REVERT JUMPDEST SWAP1 POP PUSH1 0x20 MUL ADD CALLDATALOAD PUSH1 0x40 MLOAD DUP3 PUSH4 0xFFFFFFFF AND PUSH1 0xE0 SHL DUP2 MSTORE PUSH1 0x4 ADD PUSH2 0x28F7 SWAP2 DUP2 MSTORE PUSH1 0x20 ADD SWAP1 JUMP JUMPDEST PUSH1 0x0 PUSH1 0x40 MLOAD DUP1 DUP4 SUB DUP2 PUSH1 0x0 DUP8 DUP1 EXTCODESIZE ISZERO DUP1 ISZERO PUSH2 0x2911 JUMPI PUSH1 0x0 DUP1 REVERT JUMPDEST POP GAS CALL ISZERO DUP1 ISZERO PUSH2 0x2925 JUMPI RETURNDATASIZE PUSH1 0x0 DUP1 RETURNDATACOPY RETURNDATASIZE PUSH1 0x0 REVERT JUMPDEST POP POP POP POP PUSH2 0x2959 DUP10 DUP10 DUP5 DUP2 DUP2 LT PUSH2 0x294C JUMPI PUSH4 0x4E487B71 PUSH1 0xE0 SHL PUSH1 0x0 MSTORE PUSH1 0x32 PUSH1 0x4 MSTORE PUSH1 0x24 PUSH1 0x0 REVERT JUMPDEST SWAP1 POP PUSH1 0x20 MUL ADD CALLDATALOAD DUP9 PUSH2 0x3BAB JUMP JUMPDEST POP DUP1 PUSH2 0x2964 DUP2 PUSH2 0x5646 JUMP JUMPDEST SWAP2 POP POP PUSH2 0x282F JUMP JUMPDEST POP PUSH2 0x297A DUP6 DUP6 DUP6 DUP6 DUP6 PUSH2 0x377A JUMP JUMPDEST POP PUSH1 0x15 SLOAD PUSH1 0x40 MLOAD PUSH4 0x57A5C967 PUSH1 0xE0 SHL DUP2 MSTORE PUSH1 0x1 PUSH1 0x1 PUSH1 0xA0 SHL SUB SWAP1 SWAP2 AND SWAP1 PUSH4 0x57A5C967 SWAP1 PUSH2 0x29AF SWAP1 DUP9 SWAP1 DUP8 SWAP1 DUP7 SWAP1 PUSH1 0x4 ADD PUSH2 0x541E JUMP JUMPDEST PUSH1 0x0 PUSH1 0x40 MLOAD DUP1 DUP4 SUB DUP2 PUSH1 0x0 DUP8 DUP1 EXTCODESIZE ISZERO DUP1 ISZERO PUSH2 0x29C9 JUMPI PUSH1 0x0 DUP1 REVERT JUMPDEST POP GAS CALL ISZERO DUP1 ISZERO PUSH2 0x29DD JUMPI RETURNDATASIZE PUSH1 0x0 DUP1 RETURNDATACOPY RETURNDATASIZE PUSH1 0x0 REVERT JUMPDEST POP POP POP POP POP POP POP POP POP POP POP JUMP JUMPDEST PUSH1 0x0 SWAP1 DUP2 MSTORE PUSH1 0xF PUSH1 0x20 MSTORE PUSH1 0x40 SWAP1 KECCAK256 SLOAD SWAP1 JUMP JUMPDEST PUSH1 0x0 DUP1 PUSH1 0x0 DUP1 PUSH1 0x12 PUSH1 0x0 SWAP1 SLOAD SWAP1 PUSH2 0x100 EXP SWAP1 DIV PUSH1 0x1 PUSH1 0x1 PUSH1 0xA0 SHL SUB AND PUSH1 0x1 PUSH1 0x1 PUSH1 0xA0 SHL SUB AND PUSH4 0x1ACF5582 PUSH1 0x40 MLOAD DUP2 PUSH4 0xFFFFFFFF AND PUSH1 0xE0 SHL DUP2 MSTORE PUSH1 0x4 ADD PUSH1 0x20 PUSH1 0x40 MLOAD DUP1 DUP4 SUB DUP2 DUP7 DUP1 EXTCODESIZE ISZERO DUP1 ISZERO PUSH2 0x2A50 JUMPI PUSH1 0x0 DUP1 REVERT JUMPDEST POP GAS STATICCALL ISZERO DUP1 ISZERO PUSH2 0x2A64 JUMPI RETURNDATASIZE PUSH1 0x0 DUP1 RETURNDATACOPY RETURNDATASIZE PUSH1 0x0 REVERT JUMPDEST POP POP POP POP PUSH1 0x40 MLOAD RETURNDATASIZE PUSH1 0x1F NOT PUSH1 0x1F DUP3 ADD AND DUP3 ADD DUP1 PUSH1 0x40 MSTORE POP DUP2 ADD SWAP1 PUSH2 0x2A88 SWAP2 SWAP1 PUSH2 0x4EDE JUMP JUMPDEST PUSH1 0x16 SLOAD PUSH1 0x15 SLOAD PUSH1 0x40 MLOAD PUSH4 0x4767B4B3 PUSH1 0xE0 SHL DUP2 MSTORE SWAP3 SWAP4 POP PUSH20 0x0 SWAP3 PUSH4 0x4767B4B3 SWAP3 PUSH2 0x2ADE SWAP3 DUP14 SWAP3 DUP14 SWAP3 DUP14 SWAP3 DUP14 SWAP3 DUP11 SWAP3 PUSH1 0x1 PUSH1 0x1 PUSH1 0xA0 SHL SUB SWAP1 DUP2 AND SWAP3 AND SWAP1 PUSH1 0x4 ADD PUSH2 0x5434 JUMP JUMPDEST PUSH1 0x60 PUSH1 0x40 MLOAD DUP1 DUP4 SUB DUP2 DUP7 DUP1 EXTCODESIZE ISZERO DUP1 ISZERO PUSH2 0x2AF6 JUMPI PUSH1 0x0 DUP1 REVERT JUMPDEST POP GAS DELEGATECALL ISZERO DUP1 ISZERO PUSH2 0x2B0A JUMPI RETURNDATASIZE PUSH1 0x0 DUP1 RETURNDATACOPY RETURNDATASIZE PUSH1 0x0 REVERT JUMPDEST POP POP POP POP PUSH1 0x40 MLOAD RETURNDATASIZE PUSH1 0x1F NOT PUSH1 0x1F DUP3 ADD AND DUP3 ADD DUP1 PUSH1 0x40 MSTORE POP DUP2 ADD SWAP1 PUSH2 0x2B2E SWAP2 SWAP1 PUSH2 0x4FB7 JUMP JUMPDEST SWAP2 SWAP11 SWAP1 SWAP10 POP SWAP1 SWAP8 POP SWAP6 POP POP POP POP POP POP JUMP JUMPDEST PUSH1 0x60 PUSH2 0x13DD DUP3 PUSH2 0x3D27 JUMP JUMPDEST PUSH1 0x0 DUP3 DUP2 MSTORE PUSH1 0xC PUSH1 0x20 MSTORE PUSH1 0x40 DUP2 KECCAK256 PUSH2 0x2B62 SWAP1 DUP4 PUSH2 0x3E89 JUMP JUMPDEST SWAP4 SWAP3 POP POP POP JUMP JUMPDEST PUSH2 0x2B72 DUP3 PUSH2 0x1684 JUMP JUMPDEST PUSH2 0x2B7C DUP2 CALLER PUSH2 0x3330 JUMP JUMPDEST PUSH2 0x164E DUP4 DUP4 PUSH2 0x341A JUMP JUMPDEST DUP1 PUSH1 0x0 JUMPDEST DUP2 DUP2 LT ISZERO PUSH2 0x27D5 JUMPI PUSH2 0x2BC1 DUP5 DUP5 DUP4 DUP2 DUP2 LT PUSH2 0x2BB5 JUMPI PUSH4 0x4E487B71 PUSH1 0xE0 SHL PUSH1 0x0 MSTORE PUSH1 0x32 PUSH1 0x4 MSTORE PUSH1 0x24 PUSH1 0x0 REVERT JUMPDEST SWAP1 POP PUSH1 0x20 MUL ADD CALLDATALOAD PUSH2 0x1917 JUMP JUMPDEST DUP1 PUSH2 0x2BCB DUP2 PUSH2 0x5646 JUMP JUMPDEST SWAP2 POP POP PUSH2 0x2B8A JUMP JUMPDEST PUSH1 0x1 PUSH1 0x1 PUSH1 0xA0 SHL SUB SWAP2 DUP3 AND PUSH1 0x0 SWAP1 DUP2 MSTORE PUSH1 0x5 PUSH1 0x20 SWAP1 DUP2 MSTORE PUSH1 0x40 DUP1 DUP4 KECCAK256 SWAP4 SWAP1 SWAP5 AND DUP3 MSTORE SWAP2 SWAP1 SWAP2 MSTORE KECCAK256 SLOAD PUSH1 0xFF AND SWAP1 JUMP JUMPDEST CALLER PUSH2 0x2C0A PUSH2 0x1F94 JUMP JUMPDEST PUSH1 0x1 PUSH1 0x1 PUSH1 0xA0 SHL SUB AND EQ PUSH2 0x2C30 JUMPI PUSH1 0x40 MLOAD PUSH3 0x461BCD PUSH1 0xE5 SHL DUP2 MSTORE PUSH1 0x4 ADD PUSH2 0x795 SWAP1 PUSH2 0x5307 JUMP JUMPDEST PUSH1 0x1 PUSH1 0x1 PUSH1 0xA0 SHL SUB DUP2 AND PUSH2 0x2C95 JUMPI PUSH1 0x40 MLOAD PUSH3 0x461BCD PUSH1 0xE5 SHL DUP2 MSTORE PUSH1 0x20 PUSH1 0x4 DUP3 ADD MSTORE PUSH1 0x26 PUSH1 0x24 DUP3 ADD MSTORE PUSH32 0x4F776E61626C653A206E6577206F776E657220697320746865207A65726F2061 PUSH1 0x44 DUP3 ADD MSTORE PUSH6 0x646472657373 PUSH1 0xD0 SHL PUSH1 0x64 DUP3 ADD MSTORE PUSH1 0x84 ADD PUSH2 0x795 JUMP JUMPDEST PUSH2 0x17E7 DUP2 PUSH2 0x3B1C JUMP JUMPDEST PUSH1 0x0 PUSH2 0x2CA8 PUSH2 0x2D75 JUMP JUMPDEST SWAP1 POP PUSH1 0x0 DUP1 PUSH1 0x0 DUP1 PUSH2 0x2CBA DUP8 DUP8 PUSH2 0x355E JUMP JUMPDEST SWAP4 POP SWAP4 POP SWAP4 POP SWAP4 POP PUSH1 0x0 PUSH1 0x40 MLOAD DUP1 PUSH1 0xE0 ADD PUSH1 0x40 MSTORE DUP1 DUP4 PUSH1 0x0 ADD MLOAD PUSH1 0x3 DUP2 GT ISZERO PUSH2 0x2CF3 JUMPI PUSH4 0x4E487B71 PUSH1 0xE0 SHL PUSH1 0x0 MSTORE PUSH1 0x21 PUSH1 0x4 MSTORE PUSH1 0x24 PUSH1 0x0 REVERT JUMPDEST DUP2 MSTORE PUSH1 0x20 ADD DUP4 PUSH1 0x20 ADD MLOAD DUP2 MSTORE PUSH1 0x20 ADD DUP7 DUP2 MSTORE PUSH1 0x20 ADD DUP5 DUP2 MSTORE PUSH1 0x20 ADD DUP6 DUP2 MSTORE PUSH1 0x20 ADD DUP4 PUSH1 0xA0 ADD MLOAD DUP2 MSTORE PUSH1 0x20 ADD DUP4 PUSH1 0xC0 ADD MLOAD PUSH1 0x2 DUP2 GT ISZERO PUSH2 0x2D42 JUMPI PUSH4 0x4E487B71 PUSH1 0xE0 SHL PUSH1 0x0 MSTORE PUSH1 0x21 PUSH1 0x4 MSTORE PUSH1 0x24 PUSH1 0x0 REVERT JUMPDEST SWAP1 MSTORE SWAP1 POP PUSH2 0x2D50 DUP7 DUP3 PUSH2 0x2D8F JUMP JUMPDEST PUSH2 0x2D5B DUP7 DUP5 DUP7 PUSH2 0x2FB2 JUMP JUMPDEST PUSH2 0x2D68 DUP11 DUP11 DUP11 DUP10 DUP12 PUSH2 0x37AC JUMP JUMPDEST POP POP POP POP POP SWAP5 SWAP4 POP POP POP POP JUMP JUMPDEST PUSH1 0x13 DUP1 SLOAD PUSH1 0x0 SWAP2 DUP3 PUSH2 0x2D86 DUP4 PUSH2 0x5646 JUMP JUMPDEST SWAP2 SWAP1 POP SSTORE SWAP1 POP SWAP1 JUMP JUMPDEST PUSH1 0x0 DUP3 DUP2 MSTORE PUSH1 0x14 PUSH1 0x20 MSTORE PUSH1 0x40 SWAP1 KECCAK256 DUP2 MLOAD DUP2 SLOAD DUP4 SWAP3 SWAP2 SWAP1 DUP3 SWAP1 PUSH1 0xFF NOT AND PUSH1 0x1 DUP4 PUSH1 0x3 DUP2 GT ISZERO PUSH2 0x2DCD JUMPI PUSH4 0x4E487B71 PUSH1 0xE0 SHL PUSH1 0x0 MSTORE PUSH1 0x21 PUSH1 0x4 MSTORE PUSH1 0x24 PUSH1 0x0 REVERT JUMPDEST MUL OR SWAP1 SSTORE POP PUSH1 0x20 DUP3 ADD MLOAD DUP2 PUSH1 0x1 ADD SSTORE PUSH1 0x40 DUP3 ADD MLOAD DUP2 PUSH1 0x2 ADD SSTORE PUSH1 0x60 DUP3 ADD MLOAD DUP2 PUSH1 0x3 ADD SSTORE PUSH1 0x80 DUP3 ADD MLOAD DUP2 PUSH1 0x4 ADD SSTORE PUSH1 0xA0 DUP3 ADD MLOAD DUP2 PUSH1 0x5 ADD SSTORE PUSH1 0xC0 DUP3 ADD MLOAD DUP2 PUSH1 0x6 ADD PUSH1 0x0 PUSH2 0x100 EXP DUP2 SLOAD DUP2 PUSH1 0xFF MUL NOT AND SWAP1 DUP4 PUSH1 0x2 DUP2 GT ISZERO PUSH2 0x2E3C JUMPI PUSH4 0x4E487B71 PUSH1 0xE0 SHL PUSH1 0x0 MSTORE PUSH1 0x21 PUSH1 0x4 MSTORE PUSH1 0x24 PUSH1 0x0 REVERT JUMPDEST MUL OR SWAP1 SSTORE POP POP POP POP POP JUMP JUMPDEST PUSH1 0x0 DUP4 DUP4 DUP4 DUP8 PUSH1 0x40 MLOAD PUSH1 0x20 ADD PUSH2 0x2E60 SWAP5 SWAP4 SWAP3 SWAP2 SWAP1 PUSH2 0x53D5 JUMP JUMPDEST PUSH1 0x40 DUP1 MLOAD DUP1 DUP4 SUB PUSH1 0x1F NOT ADD DUP2 MSTORE SWAP2 DUP2 MSTORE DUP2 MLOAD PUSH1 0x20 SWAP3 DUP4 ADD KECCAK256 PUSH1 0x0 DUP2 DUP2 MSTORE PUSH1 0x17 SWAP1 SWAP4 MSTORE SWAP2 KECCAK256 PUSH1 0x2 ADD SLOAD SWAP1 SWAP2 POP PUSH2 0x100 SWAP1 DIV PUSH1 0xFF AND ISZERO PUSH2 0x2EC6 JUMPI PUSH1 0x40 MLOAD PUSH3 0x461BCD PUSH1 0xE5 SHL DUP2 MSTORE PUSH1 0x20 PUSH1 0x4 DUP3 ADD MSTORE PUSH1 0x3 PUSH1 0x24 DUP3 ADD MSTORE PUSH3 0x138C4D PUSH1 0xEA SHL PUSH1 0x44 DUP3 ADD MSTORE PUSH1 0x64 ADD PUSH2 0x795 JUMP JUMPDEST PUSH1 0x40 MLOAD DUP1 PUSH1 0x80 ADD PUSH1 0x40 MSTORE DUP1 DUP6 DUP2 MSTORE PUSH1 0x20 ADD DUP5 DUP2 MSTORE PUSH1 0x20 ADD DUP4 PUSH1 0x2 DUP2 GT ISZERO PUSH2 0x2EFD JUMPI PUSH4 0x4E487B71 PUSH1 0xE0 SHL PUSH1 0x0 MSTORE PUSH1 0x21 PUSH1 0x4 MSTORE PUSH1 0x24 PUSH1 0x0 REVERT JUMPDEST DUP2 MSTORE PUSH1 0x1 PUSH1 0x20 SWAP2 DUP3 ADD DUP2 SWAP1 MSTORE PUSH1 0x0 DUP5 DUP2 MSTORE PUSH1 0x17 DUP4 MSTORE PUSH1 0x40 SWAP1 DUP2 SWAP1 KECCAK256 DUP5 MLOAD DUP2 SSTORE SWAP3 DUP5 ADD MLOAD DUP4 DUP4 ADD SSTORE DUP4 ADD MLOAD PUSH1 0x2 DUP1 DUP5 ADD DUP1 SLOAD SWAP3 SWAP4 SWAP1 SWAP3 PUSH1 0xFF NOT AND SWAP2 DUP5 SWAP1 DUP2 GT ISZERO PUSH2 0x2F56 JUMPI PUSH4 0x4E487B71 PUSH1 0xE0 SHL PUSH1 0x0 MSTORE PUSH1 0x21 PUSH1 0x4 MSTORE PUSH1 0x24 PUSH1 0x0 REVERT JUMPDEST MUL OR SWAP1 SSTORE POP PUSH1 0x60 SWAP2 SWAP1 SWAP2 ADD MLOAD PUSH1 0x2 SWAP1 SWAP2 ADD DUP1 SLOAD SWAP2 ISZERO ISZERO PUSH2 0x100 MUL PUSH2 0xFF00 NOT SWAP1 SWAP3 AND SWAP2 SWAP1 SWAP2 OR SWAP1 SSTORE SWAP5 SWAP4 POP POP POP POP JUMP JUMPDEST PUSH1 0x0 DUP4 DUP2 MSTORE PUSH1 0xA PUSH1 0x20 MSTORE PUSH1 0x40 SWAP1 KECCAK256 DUP2 SWAP1 SSTORE PUSH1 0xD SLOAD PUSH2 0x164E SWAP1 DUP4 SWAP1 DUP6 SWAP1 DUP5 SWAP1 PUSH2 0x3E95 JUMP JUMPDEST PUSH2 0x1742 DUP3 DUP3 PUSH2 0x3F1F JUMP JUMPDEST PUSH1 0x15 SLOAD PUSH1 0x40 MLOAD PUSH4 0xEDD0D421 PUSH1 0xE0 SHL DUP2 MSTORE PUSH1 0x1 PUSH1 0x1 PUSH1 0xA0 SHL SUB SWAP1 SWAP2 AND SWAP1 PUSH4 0xEDD0D421 SWAP1 PUSH2 0x2FE6 SWAP1 DUP7 SWAP1 DUP7 SWAP1 DUP7 SWAP1 PUSH1 0x4 ADD PUSH2 0x541E JUMP JUMPDEST PUSH1 0x0 PUSH1 0x40 MLOAD DUP1 DUP4 SUB DUP2 PUSH1 0x0 DUP8 DUP1 EXTCODESIZE ISZERO DUP1 ISZERO PUSH2 0x3000 JUMPI PUSH1 0x0 DUP1 REVERT JUMPDEST POP GAS CALL ISZERO DUP1 ISZERO PUSH2 0x3014 JUMPI RETURNDATASIZE PUSH1 0x0 DUP1 RETURNDATACOPY RETURNDATASIZE PUSH1 0x0 REVERT JUMPDEST POP POP POP POP POP POP POP JUMP JUMPDEST PUSH1 0x0 PUSH1 0x1 PUSH1 0x1 PUSH1 0xE0 SHL SUB NOT DUP3 AND PUSH4 0x7965DB0B PUSH1 0xE0 SHL EQ DUP1 PUSH2 0x13DD JUMPI POP PUSH2 0x13DD DUP3 PUSH2 0x3FAA JUMP JUMPDEST PUSH1 0x0 SWAP1 DUP2 MSTORE PUSH1 0x2 PUSH1 0x20 MSTORE PUSH1 0x40 SWAP1 KECCAK256 SLOAD PUSH1 0x1 PUSH1 0x1 PUSH1 0xA0 SHL SUB AND ISZERO ISZERO SWAP1 JUMP JUMPDEST PUSH1 0x0 DUP2 DUP2 MSTORE PUSH1 0x4 PUSH1 0x20 MSTORE PUSH1 0x40 SWAP1 KECCAK256 DUP1 SLOAD PUSH1 0x1 PUSH1 0x1 PUSH1 0xA0 SHL SUB NOT AND PUSH1 0x1 PUSH1 0x1 PUSH1 0xA0 SHL SUB DUP5 AND SWAP1 DUP2 OR SWAP1 SWAP2 SSTORE DUP2 SWAP1 PUSH2 0x3094 DUP3 PUSH2 0x1A69 JUMP JUMPDEST PUSH1 0x1 PUSH1 0x1 PUSH1 0xA0 SHL SUB AND PUSH32 0x8C5BE1E5EBEC7D5BD14F71427D1E84F3DD0314C0F7B2291E5B200AC8C7C3B925 PUSH1 0x40 MLOAD PUSH1 0x40 MLOAD DUP1 SWAP2 SUB SWAP1 LOG4 POP POP JUMP JUMPDEST PUSH1 0x0 PUSH2 0x30D8 DUP3 PUSH2 0x3042 JUMP JUMPDEST PUSH2 0x3139 JUMPI PUSH1 0x40 MLOAD PUSH3 0x461BCD PUSH1 0xE5 SHL DUP2 MSTORE PUSH1 0x20 PUSH1 0x4 DUP3 ADD MSTORE PUSH1 0x2C PUSH1 0x24 DUP3 ADD MSTORE PUSH32 0x4552433732313A206F70657261746F7220717565727920666F72206E6F6E6578 PUSH1 0x44 DUP3 ADD MSTORE PUSH12 0x34B9BA32B73A103A37B5B2B7 PUSH1 0xA1 SHL PUSH1 0x64 DUP3 ADD MSTORE PUSH1 0x84 ADD PUSH2 0x795 JUMP JUMPDEST PUSH1 0x0 PUSH2 0x3144 DUP4 PUSH2 0x1A69 JUMP JUMPDEST SWAP1 POP DUP1 PUSH1 0x1 PUSH1 0x1 PUSH1 0xA0 SHL SUB AND DUP5 PUSH1 0x1 PUSH1 0x1 PUSH1 0xA0 SHL SUB AND EQ DUP1 PUSH2 0x317F JUMPI POP DUP4 PUSH1 0x1 PUSH1 0x1 PUSH1 0xA0 SHL SUB AND PUSH2 0x3174 DUP5 PUSH2 0x14BA JUMP JUMPDEST PUSH1 0x1 PUSH1 0x1 PUSH1 0xA0 SHL SUB AND EQ JUMPDEST DUP1 PUSH2 0x318F JUMPI POP PUSH2 0x318F DUP2 DUP6 PUSH2 0x2BD3 JUMP JUMPDEST SWAP5 SWAP4 POP POP POP POP JUMP JUMPDEST DUP3 PUSH1 0x1 PUSH1 0x1 PUSH1 0xA0 SHL SUB AND PUSH2 0x31AA DUP3 PUSH2 0x1A69 JUMP JUMPDEST PUSH1 0x1 PUSH1 0x1 PUSH1 0xA0 SHL SUB AND EQ PUSH2 0x3212 JUMPI PUSH1 0x40 MLOAD PUSH3 0x461BCD PUSH1 0xE5 SHL DUP2 MSTORE PUSH1 0x20 PUSH1 0x4 DUP3 ADD MSTORE PUSH1 0x29 PUSH1 0x24 DUP3 ADD MSTORE PUSH32 0x4552433732313A207472616E73666572206F6620746F6B656E20746861742069 PUSH1 0x44 DUP3 ADD MSTORE PUSH9 0x39903737BA1037BBB7 PUSH1 0xB9 SHL PUSH1 0x64 DUP3 ADD MSTORE PUSH1 0x84 ADD PUSH2 0x795 JUMP JUMPDEST PUSH1 0x1 PUSH1 0x1 PUSH1 0xA0 SHL SUB DUP3 AND PUSH2 0x3274 JUMPI PUSH1 0x40 MLOAD PUSH3 0x461BCD PUSH1 0xE5 SHL DUP2 MSTORE PUSH1 0x20 PUSH1 0x4 DUP3 ADD MSTORE PUSH1 0x24 DUP1 DUP3 ADD MSTORE PUSH32 0x4552433732313A207472616E7366657220746F20746865207A65726F20616464 PUSH1 0x44 DUP3 ADD MSTORE PUSH4 0x72657373 PUSH1 0xE0 SHL PUSH1 0x64 DUP3 ADD MSTORE PUSH1 0x84 ADD PUSH2 0x795 JUMP JUMPDEST PUSH2 0x327F DUP4 DUP4 DUP4 PUSH2 0x3FFA JUMP JUMPDEST PUSH2 0x328A PUSH1 0x0 DUP3 PUSH2 0x305F JUMP JUMPDEST PUSH1 0x1 PUSH1 0x1 PUSH1 0xA0 SHL SUB DUP4 AND PUSH1 0x0 SWAP1 DUP2 MSTORE PUSH1 0x3 PUSH1 0x20 MSTORE PUSH1 0x40 DUP2 KECCAK256 DUP1 SLOAD PUSH1 0x1 SWAP3 SWAP1 PUSH2 0x32B3 SWAP1 DUP5 SWAP1 PUSH2 0x55B7 JUMP JUMPDEST SWAP1 SWAP2 SSTORE POP POP PUSH1 0x1 PUSH1 0x1 PUSH1 0xA0 SHL SUB DUP3 AND PUSH1 0x0 SWAP1 DUP2 MSTORE PUSH1 0x3 PUSH1 0x20 MSTORE PUSH1 0x40 DUP2 KECCAK256 DUP1 SLOAD PUSH1 0x1 SWAP3 SWAP1 PUSH2 0x32E1 SWAP1 DUP5 SWAP1 PUSH2 0x547E JUMP JUMPDEST SWAP1 SWAP2 SSTORE POP POP PUSH1 0x0 DUP2 DUP2 MSTORE PUSH1 0x2 PUSH1 0x20 MSTORE PUSH1 0x40 DUP1 DUP3 KECCAK256 DUP1 SLOAD PUSH1 0x1 PUSH1 0x1 PUSH1 0xA0 SHL SUB NOT AND PUSH1 0x1 PUSH1 0x1 PUSH1 0xA0 SHL SUB DUP7 DUP2 AND SWAP2 DUP3 OR SWAP1 SWAP3 SSTORE SWAP2 MLOAD DUP5 SWAP4 SWAP2 DUP8 AND SWAP2 PUSH1 0x0 DUP1 MLOAD PUSH1 0x20 PUSH2 0x5729 DUP4 CODECOPY DUP2 MLOAD SWAP2 MSTORE SWAP2 LOG4 POP POP POP JUMP JUMPDEST PUSH2 0x333A DUP3 DUP3 PUSH2 0x1FA3 JUMP JUMPDEST PUSH2 0x1742 JUMPI PUSH2 0x3352 DUP2 PUSH1 0x1 PUSH1 0x1 PUSH1 0xA0 SHL SUB AND PUSH1 0x14 PUSH2 0x4012 JUMP JUMPDEST PUSH2 0x335D DUP4 PUSH1 0x20 PUSH2 0x4012 JUMP JUMPDEST PUSH1 0x40 MLOAD PUSH1 0x20 ADD PUSH2 0x336E SWAP3 SWAP2 SWAP1 PUSH2 0x50B7 JUMP JUMPDEST PUSH1 0x40 DUP1 MLOAD PUSH1 0x1F NOT DUP2 DUP5 SUB ADD DUP2 MSTORE SWAP1 DUP3 SWAP1 MSTORE PUSH3 0x461BCD PUSH1 0xE5 SHL DUP3 MSTORE PUSH2 0x795 SWAP2 PUSH1 0x4 ADD PUSH2 0x524E JUMP JUMPDEST PUSH2 0x339E DUP3 DUP3 PUSH2 0x1FA3 JUMP JUMPDEST PUSH2 0x1742 JUMPI PUSH1 0x0 DUP3 DUP2 MSTORE PUSH1 0x8 PUSH1 0x20 SWAP1 DUP2 MSTORE PUSH1 0x40 DUP1 DUP4 KECCAK256 PUSH1 0x1 PUSH1 0x1 PUSH1 0xA0 SHL SUB DUP6 AND DUP5 MSTORE SWAP1 SWAP2 MSTORE SWAP1 KECCAK256 DUP1 SLOAD PUSH1 0xFF NOT AND PUSH1 0x1 OR SWAP1 SSTORE PUSH2 0x33D6 CALLER SWAP1 JUMP JUMPDEST PUSH1 0x1 PUSH1 0x1 PUSH1 0xA0 SHL SUB AND DUP2 PUSH1 0x1 PUSH1 0x1 PUSH1 0xA0 SHL SUB AND DUP4 PUSH32 0x2F8788117E7EFF1D82E926EC794901D17C78024A50270940304540A733656F0D PUSH1 0x40 MLOAD PUSH1 0x40 MLOAD DUP1 SWAP2 SUB SWAP1 LOG4 POP POP JUMP JUMPDEST PUSH2 0x3424 DUP3 DUP3 PUSH2 0x1FA3 JUMP JUMPDEST ISZERO PUSH2 0x1742 JUMPI PUSH1 0x0 DUP3 DUP2 MSTORE PUSH1 0x8 PUSH1 0x20 SWAP1 DUP2 MSTORE PUSH1 0x40 DUP1 DUP4 KECCAK256 PUSH1 0x1 PUSH1 0x1 PUSH1 0xA0 SHL SUB DUP6 AND DUP1 DUP6 MSTORE SWAP3 MSTORE DUP1 DUP4 KECCAK256 DUP1 SLOAD PUSH1 0xFF NOT AND SWAP1 SSTORE MLOAD CALLER SWAP3 DUP6 SWAP2 PUSH32 0xF6391F5C32D9C69D2A47EA670B442974B53935D1EDC7FD64EB21E047A839171B SWAP2 SWAP1 LOG4 POP POP JUMP JUMPDEST PUSH1 0x0 DUP3 DUP2 MSTORE PUSH1 0xB PUSH1 0x20 SWAP1 DUP2 MSTORE PUSH1 0x40 DUP1 DUP4 KECCAK256 PUSH1 0x1 PUSH1 0x1 PUSH1 0xA0 SHL SUB DUP8 AND DUP5 MSTORE PUSH1 0x1 ADD SWAP1 SWAP2 MSTORE SWAP1 KECCAK256 SLOAD PUSH2 0x34E3 JUMPI PUSH1 0x0 DUP3 DUP2 MSTORE PUSH1 0xB PUSH1 0x20 SWAP1 DUP2 MSTORE PUSH1 0x40 DUP3 KECCAK256 DUP1 SLOAD PUSH1 0x1 DUP2 ADD DUP3 SSTORE SWAP1 DUP4 MSTORE SWAP2 KECCAK256 ADD DUP1 SLOAD PUSH1 0x1 PUSH1 0x1 PUSH1 0xA0 SHL SUB NOT AND PUSH1 0x1 PUSH1 0x1 PUSH1 0xA0 SHL SUB DUP6 AND OR SWAP1 SSTORE JUMPDEST PUSH1 0x0 DUP3 DUP2 MSTORE PUSH1 0xB PUSH1 0x20 SWAP1 DUP2 MSTORE PUSH1 0x40 DUP1 DUP4 KECCAK256 PUSH1 0x1 PUSH1 0x1 PUSH1 0xA0 SHL SUB DUP8 AND DUP1 DUP6 MSTORE PUSH1 0x1 SWAP1 SWAP2 ADD DUP4 MSTORE SWAP3 DUP2 SWAP1 KECCAK256 DUP5 SWAP1 SSTORE MLOAD DUP4 DUP2 MSTORE DUP5 SWAP3 SWAP2 PUSH32 0x8A156BD946DC74EC284C5F4B365CE75EF2A5B9D9462B4CDB1D2400CABF136541 SWAP2 ADD PUSH1 0x40 MLOAD DUP1 SWAP2 SUB SWAP1 LOG3 POP POP POP JUMP JUMPDEST PUSH1 0x0 DUP2 DUP2 MSTORE PUSH1 0xA PUSH1 0x20 MSTORE PUSH1 0x40 DUP2 KECCAK256 SSTORE PUSH2 0x17E7 DUP2 PUSH2 0x41F3 JUMP JUMPDEST PUSH1 0x0 DUP1 PUSH1 0x0 PUSH2 0x356B PUSH2 0x49C6 JUMP JUMPDEST PUSH2 0x3574 DUP7 PUSH2 0x368B JUMP JUMPDEST SWAP1 POP PUSH1 0x0 PUSH2 0x3581 DUP8 PUSH2 0x29EA JUMP JUMPDEST SWAP1 POP DUP1 DUP7 DUP4 PUSH1 0x40 ADD MLOAD PUSH2 0x3594 SWAP2 SWAP1 PUSH2 0x5598 JUMP JUMPDEST PUSH2 0x359E SWAP2 SWAP1 PUSH2 0x5496 JUMP JUMPDEST SWAP5 POP DUP1 DUP7 DUP4 PUSH1 0x80 ADD MLOAD PUSH2 0x35B1 SWAP2 SWAP1 PUSH2 0x5598 JUMP JUMPDEST PUSH2 0x35BB SWAP2 SWAP1 PUSH2 0x5496 JUMP JUMPDEST SWAP4 POP DUP1 DUP7 DUP4 PUSH1 0x60 ADD MLOAD PUSH2 0x35CE SWAP2 SWAP1 PUSH2 0x5598 JUMP JUMPDEST PUSH2 0x35D8 SWAP2 SWAP1 PUSH2 0x5496 JUMP JUMPDEST SWAP3 POP PUSH2 0x360F DUP8 DUP4 DUP6 DUP6 PUSH1 0x60 ADD MLOAD PUSH2 0x35EF SWAP2 SWAP1 PUSH2 0x55B7 JUMP JUMPDEST DUP9 DUP7 PUSH1 0x40 ADD MLOAD PUSH2 0x35FF SWAP2 SWAP1 PUSH2 0x55B7 JUMP JUMPDEST DUP9 DUP8 PUSH1 0x80 ADD MLOAD PUSH2 0x187D SWAP2 SWAP1 PUSH2 0x55B7 JUMP JUMPDEST PUSH1 0x15 SLOAD PUSH1 0x60 DUP3 ADD MLOAD PUSH1 0x80 DUP4 ADD MLOAD PUSH1 0x40 MLOAD PUSH4 0x57A5C967 PUSH1 0xE0 SHL DUP2 MSTORE SWAP4 SWAP6 POP PUSH1 0x1 PUSH1 0x1 PUSH1 0xA0 SHL SUB SWAP1 SWAP3 AND SWAP3 PUSH4 0x57A5C967 SWAP3 PUSH2 0x364F SWAP3 DUP13 SWAP3 SWAP1 SWAP2 SWAP1 PUSH1 0x4 ADD PUSH2 0x541E JUMP JUMPDEST PUSH1 0x0 PUSH1 0x40 MLOAD DUP1 DUP4 SUB DUP2 PUSH1 0x0 DUP8 DUP1 EXTCODESIZE ISZERO DUP1 ISZERO PUSH2 0x3669 JUMPI PUSH1 0x0 DUP1 REVERT JUMPDEST POP GAS CALL ISZERO DUP1 ISZERO PUSH2 0x367D JUMPI RETURNDATASIZE PUSH1 0x0 DUP1 RETURNDATACOPY RETURNDATASIZE PUSH1 0x0 REVERT JUMPDEST POP POP POP POP POP SWAP3 SWAP6 SWAP2 SWAP5 POP SWAP3 POP JUMP JUMPDEST PUSH2 0x3693 PUSH2 0x49C6 JUMP JUMPDEST PUSH1 0x0 DUP3 DUP2 MSTORE PUSH1 0x14 PUSH1 0x20 MSTORE PUSH1 0x40 SWAP1 DUP2 SWAP1 KECCAK256 DUP2 MLOAD PUSH1 0xE0 DUP2 ADD SWAP1 SWAP3 MSTORE DUP1 SLOAD DUP3 SWAP1 PUSH1 0xFF AND PUSH1 0x3 DUP2 GT ISZERO PUSH2 0x36D2 JUMPI PUSH4 0x4E487B71 PUSH1 0xE0 SHL PUSH1 0x0 MSTORE PUSH1 0x21 PUSH1 0x4 MSTORE PUSH1 0x24 PUSH1 0x0 REVERT JUMPDEST PUSH1 0x3 DUP2 GT ISZERO PUSH2 0x36F1 JUMPI PUSH4 0x4E487B71 PUSH1 0xE0 SHL PUSH1 0x0 MSTORE PUSH1 0x21 PUSH1 0x4 MSTORE PUSH1 0x24 PUSH1 0x0 REVERT JUMPDEST DUP2 MSTORE PUSH1 0x1 DUP3 ADD SLOAD PUSH1 0x20 DUP3 ADD MSTORE PUSH1 0x2 DUP1 DUP4 ADD SLOAD PUSH1 0x40 DUP4 ADD MSTORE PUSH1 0x3 DUP4 ADD SLOAD PUSH1 0x60 DUP4 ADD MSTORE PUSH1 0x4 DUP4 ADD SLOAD PUSH1 0x80 DUP4 ADD MSTORE PUSH1 0x5 DUP4 ADD SLOAD PUSH1 0xA0 DUP4 ADD MSTORE PUSH1 0x6 DUP4 ADD SLOAD PUSH1 0xC0 SWAP1 SWAP3 ADD SWAP2 PUSH1 0xFF AND SWAP1 DUP2 GT ISZERO PUSH2 0x3752 JUMPI PUSH4 0x4E487B71 PUSH1 0xE0 SHL PUSH1 0x0 MSTORE PUSH1 0x21 PUSH1 0x4 MSTORE PUSH1 0x24 PUSH1 0x0 REVERT JUMPDEST PUSH1 0x2 DUP2 GT ISZERO PUSH2 0x3771 JUMPI PUSH4 0x4E487B71 PUSH1 0xE0 SHL PUSH1 0x0 MSTORE PUSH1 0x21 PUSH1 0x4 MSTORE PUSH1 0x24 PUSH1 0x0 REVERT JUMPDEST SWAP1 MSTORE POP SWAP3 SWAP2 POP POP JUMP JUMPDEST PUSH2 0x3782 PUSH2 0x49C6 JUMP JUMPDEST POP PUSH1 0x60 DUP5 ADD DUP4 SWAP1 MSTORE PUSH1 0x40 DUP5 ADD DUP3 SWAP1 MSTORE PUSH1 0x80 DUP5 ADD DUP2 SWAP1 MSTORE DUP4 PUSH2 0x37A3 DUP7 DUP3 PUSH2 0x2D8F JUMP JUMPDEST SWAP6 SWAP5 POP POP POP POP POP JUMP JUMPDEST PUSH2 0x37B5 DUP4 PUSH2 0x1A69 JUMP JUMPDEST PUSH1 0x1 PUSH1 0x1 PUSH1 0xA0 SHL SUB AND DUP6 PUSH1 0x1 PUSH1 0x1 PUSH1 0xA0 SHL SUB AND EQ PUSH2 0x37FA JUMPI PUSH1 0x40 MLOAD PUSH3 0x461BCD PUSH1 0xE5 SHL DUP2 MSTORE PUSH1 0x20 PUSH1 0x4 DUP3 ADD MSTORE PUSH1 0x2 PUSH1 0x24 DUP3 ADD MSTORE PUSH2 0x4E39 PUSH1 0xF0 SHL PUSH1 0x44 DUP3 ADD MSTORE PUSH1 0x64 ADD PUSH2 0x795 JUMP JUMPDEST PUSH1 0x1 PUSH1 0x1 PUSH1 0xA0 SHL SUB DUP5 AND PUSH2 0x3836 JUMPI PUSH1 0x40 MLOAD PUSH3 0x461BCD PUSH1 0xE5 SHL DUP2 MSTORE PUSH1 0x20 PUSH1 0x4 DUP3 ADD MSTORE PUSH1 0x3 PUSH1 0x24 DUP3 ADD MSTORE PUSH3 0x4E313 PUSH1 0xEC SHL PUSH1 0x44 DUP3 ADD MSTORE PUSH1 0x64 ADD PUSH2 0x795 JUMP JUMPDEST CALLER PUSH1 0x1 PUSH1 0x1 PUSH1 0xA0 SHL SUB DUP7 AND EQ DUP1 ISZERO SWAP1 PUSH2 0x3856 JUMPI POP PUSH2 0x3854 DUP6 CALLER PUSH2 0x2BD3 JUMP JUMPDEST ISZERO JUMPDEST ISZERO PUSH2 0x38A1 JUMPI PUSH1 0x0 DUP4 DUP2 MSTORE PUSH1 0xB PUSH1 0x20 SWAP1 DUP2 MSTORE PUSH1 0x40 DUP1 DUP4 KECCAK256 CALLER DUP5 MSTORE PUSH1 0x1 ADD SWAP1 SWAP2 MSTORE SWAP1 KECCAK256 SLOAD PUSH2 0x3883 SWAP1 DUP3 SWAP1 PUSH2 0x55B7 JUMP JUMPDEST PUSH1 0x0 DUP5 DUP2 MSTORE PUSH1 0xB PUSH1 0x20 SWAP1 DUP2 MSTORE PUSH1 0x40 DUP1 DUP4 KECCAK256 CALLER DUP5 MSTORE PUSH1 0x1 ADD SWAP1 SWAP2 MSTORE SWAP1 KECCAK256 SSTORE JUMPDEST PUSH1 0x0 DUP4 DUP2 MSTORE PUSH1 0xF PUSH1 0x20 MSTORE PUSH1 0x40 SWAP1 KECCAK256 SLOAD PUSH2 0x38BB SWAP1 DUP3 SWAP1 PUSH2 0x55B7 JUMP JUMPDEST PUSH1 0x0 DUP5 DUP2 MSTORE PUSH1 0xF PUSH1 0x20 MSTORE PUSH1 0x40 SWAP1 KECCAK256 SSTORE PUSH2 0x38D3 DUP3 PUSH2 0x3042 JUMP JUMPDEST PUSH2 0x38F0 JUMPI PUSH2 0x38EB DUP5 DUP4 PUSH2 0x38E5 DUP7 PUSH2 0x1699 JUMP JUMPDEST DUP5 PUSH2 0x3E95 JUMP JUMPDEST PUSH2 0x3998 JUMP JUMPDEST DUP4 PUSH1 0x1 PUSH1 0x1 PUSH1 0xA0 SHL SUB AND PUSH2 0x3903 DUP4 PUSH2 0x1A69 JUMP JUMPDEST PUSH1 0x1 PUSH1 0x1 PUSH1 0xA0 SHL SUB AND EQ PUSH2 0x393F JUMPI PUSH1 0x40 MLOAD PUSH3 0x461BCD PUSH1 0xE5 SHL DUP2 MSTORE PUSH1 0x20 PUSH1 0x4 DUP3 ADD MSTORE PUSH1 0x3 PUSH1 0x24 DUP3 ADD MSTORE PUSH3 0x4E3131 PUSH1 0xE8 SHL PUSH1 0x44 DUP3 ADD MSTORE PUSH1 0x64 ADD PUSH2 0x795 JUMP JUMPDEST PUSH2 0x3948 DUP3 PUSH2 0x1699 JUMP JUMPDEST PUSH2 0x3951 DUP5 PUSH2 0x1699 JUMP JUMPDEST EQ PUSH2 0x396E JUMPI PUSH1 0x40 MLOAD PUSH3 0x461BCD PUSH1 0xE5 SHL DUP2 MSTORE PUSH1 0x4 ADD PUSH2 0x795 SWAP1 PUSH2 0x52EB JUMP JUMPDEST PUSH1 0x0 DUP3 DUP2 MSTORE PUSH1 0xF PUSH1 0x20 MSTORE PUSH1 0x40 SWAP1 KECCAK256 SLOAD PUSH2 0x3988 SWAP1 DUP3 SWAP1 PUSH2 0x547E JUMP JUMPDEST PUSH1 0x0 DUP4 DUP2 MSTORE PUSH1 0xF PUSH1 0x20 MSTORE PUSH1 0x40 SWAP1 KECCAK256 SSTORE JUMPDEST PUSH1 0x0 DUP4 DUP2 MSTORE PUSH1 0xA PUSH1 0x20 MSTORE PUSH1 0x40 DUP1 DUP3 KECCAK256 SLOAD DUP5 DUP4 MSTORE SWAP2 DUP2 SWAP1 KECCAK256 SWAP2 SWAP1 SWAP2 SSTORE MLOAD DUP4 SWAP1 PUSH1 0x1 PUSH1 0x1 PUSH1 0xA0 SHL SUB DUP1 DUP8 AND SWAP2 SWAP1 DUP9 AND SWAP1 PUSH1 0x0 DUP1 MLOAD PUSH1 0x20 PUSH2 0x5749 DUP4 CODECOPY DUP2 MLOAD SWAP2 MSTORE SWAP1 PUSH2 0x39E3 SWAP1 DUP8 SWAP1 DUP8 SWAP1 PUSH2 0x5240 JUMP JUMPDEST PUSH1 0x40 MLOAD DUP1 SWAP2 SUB SWAP1 LOG4 POP POP POP POP POP JUMP JUMPDEST PUSH2 0x39FC CALLER DUP5 PUSH2 0x30CD JUMP JUMPDEST PUSH2 0x3A2D JUMPI PUSH1 0x40 MLOAD PUSH3 0x461BCD PUSH1 0xE5 SHL DUP2 MSTORE PUSH1 0x20 PUSH1 0x4 DUP3 ADD MSTORE PUSH1 0x2 PUSH1 0x24 DUP3 ADD MSTORE PUSH2 0x2719 PUSH1 0xF1 SHL PUSH1 0x44 DUP3 ADD MSTORE PUSH1 0x64 ADD PUSH2 0x795 JUMP JUMPDEST PUSH2 0x3A36 DUP3 PUSH2 0x3042 JUMP JUMPDEST ISZERO PUSH2 0x3A68 JUMPI PUSH1 0x40 MLOAD PUSH3 0x461BCD PUSH1 0xE5 SHL DUP2 MSTORE PUSH1 0x20 PUSH1 0x4 DUP3 ADD MSTORE PUSH1 0x2 PUSH1 0x24 DUP3 ADD MSTORE PUSH2 0x4E33 PUSH1 0xF0 SHL PUSH1 0x44 DUP3 ADD MSTORE PUSH1 0x64 ADD PUSH2 0x795 JUMP JUMPDEST PUSH2 0x3A87 DUP3 PUSH2 0x3A75 DUP6 PUSH2 0x1699 JUMP JUMPDEST PUSH1 0x0 SWAP2 DUP3 MSTORE PUSH1 0xA PUSH1 0x20 MSTORE PUSH1 0x40 SWAP1 SWAP2 KECCAK256 SSTORE JUMP JUMPDEST PUSH1 0x0 DUP4 DUP2 MSTORE PUSH1 0xF PUSH1 0x20 MSTORE PUSH1 0x40 SWAP1 KECCAK256 SLOAD PUSH2 0x3AA1 SWAP1 DUP3 SWAP1 PUSH2 0x55B7 JUMP JUMPDEST PUSH1 0x0 DUP5 DUP2 MSTORE PUSH1 0xF PUSH1 0x20 MSTORE PUSH1 0x40 DUP2 KECCAK256 SWAP2 SWAP1 SWAP2 SSTORE PUSH2 0x3ABC DUP5 PUSH2 0x1A69 JUMP JUMPDEST SWAP1 POP PUSH2 0x3AD2 DUP2 DUP5 PUSH2 0x3ACC DUP8 PUSH2 0x1699 JUMP JUMPDEST DUP6 PUSH2 0x3E95 JUMP JUMPDEST DUP4 DUP2 PUSH1 0x1 PUSH1 0x1 PUSH1 0xA0 SHL SUB AND PUSH32 0xF66885C33D648FCD0D97E0F2A18E30102169C22763473AF0FB716F11B4A17DD6 DUP6 DUP6 PUSH1 0x40 MLOAD PUSH2 0x3B0E SWAP3 SWAP2 SWAP1 PUSH2 0x5240 JUMP JUMPDEST PUSH1 0x40 MLOAD DUP1 SWAP2 SUB SWAP1 LOG3 POP POP POP POP JUMP JUMPDEST PUSH1 0x6 DUP1 SLOAD PUSH1 0x1 PUSH1 0x1 PUSH1 0xA0 SHL SUB DUP4 DUP2 AND PUSH1 0x1 PUSH1 0x1 PUSH1 0xA0 SHL SUB NOT DUP4 AND DUP2 OR SWAP1 SWAP4 SSTORE PUSH1 0x40 MLOAD SWAP2 AND SWAP2 SWAP1 DUP3 SWAP1 PUSH32 0x8BE0079C531659141344CD1FD0A4F28419497F9722A3DAAFE3B4186F6B6457E0 SWAP1 PUSH1 0x0 SWAP1 LOG3 POP POP JUMP JUMPDEST PUSH1 0x0 PUSH2 0x13DD DUP3 SLOAD SWAP1 JUMP JUMPDEST PUSH2 0x3B83 DUP5 DUP5 DUP5 PUSH2 0x3197 JUMP JUMPDEST PUSH2 0x3B8F DUP5 DUP5 DUP5 DUP5 PUSH2 0x4285 JUMP JUMPDEST PUSH2 0x27D5 JUMPI PUSH1 0x40 MLOAD PUSH3 0x461BCD PUSH1 0xE5 SHL DUP2 MSTORE PUSH1 0x4 ADD PUSH2 0x795 SWAP1 PUSH2 0x527D JUMP JUMPDEST PUSH2 0x3BB4 CALLER PUSH2 0x27A7 JUMP JUMPDEST PUSH2 0x3BE5 JUMPI PUSH1 0x40 MLOAD PUSH3 0x461BCD PUSH1 0xE5 SHL DUP2 MSTORE PUSH1 0x20 PUSH1 0x4 DUP3 ADD MSTORE PUSH1 0x2 PUSH1 0x24 DUP3 ADD MSTORE PUSH2 0x4E35 PUSH1 0xF0 SHL PUSH1 0x44 DUP3 ADD MSTORE PUSH1 0x64 ADD PUSH2 0x795 JUMP JUMPDEST DUP1 DUP3 EQ ISZERO PUSH2 0x3C1A JUMPI PUSH1 0x40 MLOAD PUSH3 0x461BCD PUSH1 0xE5 SHL DUP2 MSTORE PUSH1 0x20 PUSH1 0x4 DUP3 ADD MSTORE PUSH1 0x2 PUSH1 0x24 DUP3 ADD MSTORE PUSH2 0x271B PUSH1 0xF1 SHL PUSH1 0x44 DUP3 ADD MSTORE PUSH1 0x64 ADD PUSH2 0x795 JUMP JUMPDEST PUSH2 0x3C23 DUP2 PUSH2 0x1699 JUMP JUMPDEST PUSH2 0x3C2C DUP4 PUSH2 0x1699 JUMP JUMPDEST EQ PUSH2 0x3C49 JUMPI PUSH1 0x40 MLOAD PUSH3 0x461BCD PUSH1 0xE5 SHL DUP2 MSTORE PUSH1 0x4 ADD PUSH2 0x795 SWAP1 PUSH2 0x52EB JUMP JUMPDEST PUSH1 0x0 PUSH2 0x3C54 DUP4 PUSH2 0x1A69 JUMP JUMPDEST SWAP1 POP PUSH2 0x3C5F DUP3 PUSH2 0x1A69 JUMP JUMPDEST PUSH1 0x1 PUSH1 0x1 PUSH1 0xA0 SHL SUB AND DUP2 PUSH1 0x1 PUSH1 0x1 PUSH1 0xA0 SHL SUB AND EQ PUSH2 0x3CA4 JUMPI PUSH1 0x40 MLOAD PUSH3 0x461BCD PUSH1 0xE5 SHL DUP2 MSTORE PUSH1 0x20 PUSH1 0x4 DUP3 ADD MSTORE PUSH1 0x2 PUSH1 0x24 DUP3 ADD MSTORE PUSH2 0x9C7 PUSH1 0xF3 SHL PUSH1 0x44 DUP3 ADD MSTORE PUSH1 0x64 ADD PUSH2 0x795 JUMP JUMPDEST PUSH1 0x0 DUP4 DUP2 MSTORE PUSH1 0xF PUSH1 0x20 MSTORE PUSH1 0x40 DUP1 DUP3 KECCAK256 SLOAD DUP5 DUP4 MSTORE SWAP2 KECCAK256 SLOAD PUSH2 0x3CC4 SWAP1 DUP3 PUSH2 0x547E JUMP JUMPDEST PUSH1 0x0 DUP5 DUP2 MSTORE PUSH1 0xF PUSH1 0x20 MSTORE PUSH1 0x40 SWAP1 KECCAK256 SSTORE PUSH2 0x3CDC DUP5 PUSH2 0x3546 JUMP JUMPDEST DUP3 DUP5 DUP4 PUSH1 0x1 PUSH1 0x1 PUSH1 0xA0 SHL SUB AND PUSH32 0xB3CE851D16B3BBEC3774D5631A3893DFA2A80E067CFAD265DD594402AC3D6096 DUP5 PUSH1 0x40 MLOAD PUSH2 0x3D19 SWAP2 DUP2 MSTORE PUSH1 0x20 ADD SWAP1 JUMP JUMPDEST PUSH1 0x40 MLOAD DUP1 SWAP2 SUB SWAP1 LOG4 POP POP POP POP JUMP JUMPDEST PUSH1 0x60 PUSH2 0x3D32 DUP3 PUSH2 0x3042 JUMP JUMPDEST PUSH2 0x3D98 JUMPI PUSH1 0x40 MLOAD PUSH3 0x461BCD PUSH1 0xE5 SHL DUP2 MSTORE PUSH1 0x20 PUSH1 0x4 DUP3 ADD MSTORE PUSH1 0x31 PUSH1 0x24 DUP3 ADD MSTORE PUSH32 0x45524337323155524953746F726167653A2055524920717565727920666F7220 PUSH1 0x44 DUP3 ADD MSTORE PUSH17 0x3737B732BC34B9BA32B73A103A37B5B2B7 PUSH1 0x79 SHL PUSH1 0x64 DUP3 ADD MSTORE PUSH1 0x84 ADD PUSH2 0x795 JUMP JUMPDEST PUSH1 0x0 DUP3 DUP2 MSTORE PUSH1 0x9 PUSH1 0x20 MSTORE PUSH1 0x40 DUP2 KECCAK256 DUP1 SLOAD PUSH2 0x3DB1 SWAP1 PUSH2 0x5611 JUMP JUMPDEST DUP1 PUSH1 0x1F ADD PUSH1 0x20 DUP1 SWAP2 DIV MUL PUSH1 0x20 ADD PUSH1 0x40 MLOAD SWAP1 DUP2 ADD PUSH1 0x40 MSTORE DUP1 SWAP3 SWAP2 SWAP1 DUP2 DUP2 MSTORE PUSH1 0x20 ADD DUP3 DUP1 SLOAD PUSH2 0x3DDD SWAP1 PUSH2 0x5611 JUMP JUMPDEST DUP1 ISZERO PUSH2 0x3E2A JUMPI DUP1 PUSH1 0x1F LT PUSH2 0x3DFF JUMPI PUSH2 0x100 DUP1 DUP4 SLOAD DIV MUL DUP4 MSTORE SWAP2 PUSH1 0x20 ADD SWAP2 PUSH2 0x3E2A JUMP JUMPDEST DUP3 ADD SWAP2 SWAP1 PUSH1 0x0 MSTORE PUSH1 0x20 PUSH1 0x0 KECCAK256 SWAP1 JUMPDEST DUP2 SLOAD DUP2 MSTORE SWAP1 PUSH1 0x1 ADD SWAP1 PUSH1 0x20 ADD DUP1 DUP4 GT PUSH2 0x3E0D JUMPI DUP3 SWAP1 SUB PUSH1 0x1F AND DUP3 ADD SWAP2 JUMPDEST POP POP POP POP POP SWAP1 POP PUSH1 0x0 PUSH2 0x3E3B PUSH2 0x4392 JUMP JUMPDEST SWAP1 POP DUP1 MLOAD PUSH1 0x0 EQ ISZERO PUSH2 0x3E4E JUMPI POP SWAP3 SWAP2 POP POP JUMP JUMPDEST DUP2 MLOAD ISZERO PUSH2 0x3E80 JUMPI DUP1 DUP3 PUSH1 0x40 MLOAD PUSH1 0x20 ADD PUSH2 0x3E68 SWAP3 SWAP2 SWAP1 PUSH2 0x5088 JUMP JUMPDEST PUSH1 0x40 MLOAD PUSH1 0x20 DUP2 DUP4 SUB SUB DUP2 MSTORE SWAP1 PUSH1 0x40 MSTORE SWAP3 POP POP POP SWAP2 SWAP1 POP JUMP JUMPDEST PUSH2 0x318F DUP5 PUSH2 0x43B2 JUMP JUMPDEST PUSH1 0x0 PUSH2 0x2B62 DUP4 DUP4 PUSH2 0x447C JUMP JUMPDEST PUSH2 0x3E9E DUP4 PUSH2 0x3042 JUMP JUMPDEST PUSH2 0x3EC6 JUMPI PUSH2 0x3EAC DUP5 DUP5 PUSH2 0x44B4 JUMP JUMPDEST PUSH1 0x0 DUP3 DUP2 MSTORE PUSH1 0xC PUSH1 0x20 MSTORE PUSH1 0x40 SWAP1 KECCAK256 PUSH2 0x3EC4 SWAP1 DUP5 PUSH2 0x45E0 JUMP JUMPDEST POP JUMPDEST PUSH1 0x0 DUP4 DUP2 MSTORE PUSH1 0xF PUSH1 0x20 MSTORE PUSH1 0x40 SWAP1 KECCAK256 SLOAD PUSH2 0x3EE0 SWAP1 DUP3 SWAP1 PUSH2 0x547E JUMP JUMPDEST PUSH1 0x0 DUP5 DUP2 MSTORE PUSH1 0xF PUSH1 0x20 MSTORE PUSH1 0x40 DUP1 DUP3 KECCAK256 SWAP3 SWAP1 SWAP3 SSTORE SWAP1 MLOAD PUSH1 0x1 PUSH1 0x1 PUSH1 0xA0 SHL SUB DUP7 AND SWAP1 DUP3 SWAP1 PUSH1 0x0 DUP1 MLOAD PUSH1 0x20 PUSH2 0x5749 DUP4 CODECOPY DUP2 MLOAD SWAP2 MSTORE SWAP1 PUSH2 0x3D19 SWAP1 DUP9 SWAP1 DUP8 SWAP1 PUSH2 0x5240 JUMP JUMPDEST PUSH2 0x3F28 DUP3 PUSH2 0x3042 JUMP JUMPDEST PUSH2 0x3F8B JUMPI PUSH1 0x40 MLOAD PUSH3 0x461BCD PUSH1 0xE5 SHL DUP2 MSTORE PUSH1 0x20 PUSH1 0x4 DUP3 ADD MSTORE PUSH1 0x2E PUSH1 0x24 DUP3 ADD MSTORE PUSH32 0x45524337323155524953746F726167653A2055524920736574206F66206E6F6E PUSH1 0x44 DUP3 ADD MSTORE PUSH14 0x32BC34B9BA32B73A103A37B5B2B7 PUSH1 0x91 SHL PUSH1 0x64 DUP3 ADD MSTORE PUSH1 0x84 ADD PUSH2 0x795 JUMP JUMPDEST PUSH1 0x0 DUP3 DUP2 MSTORE PUSH1 0x9 PUSH1 0x20 SWAP1 DUP2 MSTORE PUSH1 0x40 SWAP1 SWAP2 KECCAK256 DUP3 MLOAD PUSH2 0x164E SWAP3 DUP5 ADD SWAP1 PUSH2 0x4A22 JUMP JUMPDEST PUSH1 0x0 PUSH1 0x1 PUSH1 0x1 PUSH1 0xE0 SHL SUB NOT DUP3 AND PUSH4 0x80AC58CD PUSH1 0xE0 SHL EQ DUP1 PUSH2 0x3FDB JUMPI POP PUSH1 0x1 PUSH1 0x1 PUSH1 0xE0 SHL SUB NOT DUP3 AND PUSH4 0x5B5E139F PUSH1 0xE0 SHL EQ JUMPDEST DUP1 PUSH2 0x13DD JUMPI POP PUSH4 0x1FFC9A7 PUSH1 0xE0 SHL PUSH1 0x1 PUSH1 0x1 PUSH1 0xE0 SHL SUB NOT DUP4 AND EQ PUSH2 0x13DD JUMP JUMPDEST PUSH1 0x1 PUSH1 0x1 PUSH1 0xA0 SHL SUB DUP4 AND ISZERO PUSH2 0x164E JUMPI PUSH2 0x164E DUP2 PUSH2 0x45EC JUMP JUMPDEST PUSH1 0x60 PUSH1 0x0 PUSH2 0x4021 DUP4 PUSH1 0x2 PUSH2 0x5598 JUMP JUMPDEST PUSH2 0x402C SWAP1 PUSH1 0x2 PUSH2 0x547E JUMP JUMPDEST PUSH1 0x1 PUSH1 0x1 PUSH1 0x40 SHL SUB DUP2 GT ISZERO PUSH2 0x4051 JUMPI PUSH4 0x4E487B71 PUSH1 0xE0 SHL PUSH1 0x0 MSTORE PUSH1 0x41 PUSH1 0x4 MSTORE PUSH1 0x24 PUSH1 0x0 REVERT JUMPDEST PUSH1 0x40 MLOAD SWAP1 DUP1 DUP3 MSTORE DUP1 PUSH1 0x1F ADD PUSH1 0x1F NOT AND PUSH1 0x20 ADD DUP3 ADD PUSH1 0x40 MSTORE DUP1 ISZERO PUSH2 0x407B JUMPI PUSH1 0x20 DUP3 ADD DUP2 DUP1 CALLDATASIZE DUP4 CALLDATACOPY ADD SWAP1 POP JUMPDEST POP SWAP1 POP PUSH1 0x3 PUSH1 0xFC SHL DUP2 PUSH1 0x0 DUP2 MLOAD DUP2 LT PUSH2 0x40A4 JUMPI PUSH4 0x4E487B71 PUSH1 0xE0 SHL PUSH1 0x0 MSTORE PUSH1 0x32 PUSH1 0x4 MSTORE PUSH1 0x24 PUSH1 0x0 REVERT JUMPDEST PUSH1 0x20 ADD ADD SWAP1 PUSH1 0x1 PUSH1 0x1 PUSH1 0xF8 SHL SUB NOT AND SWAP1 DUP2 PUSH1 0x0 BYTE SWAP1 MSTORE8 POP PUSH1 0xF PUSH1 0xFB SHL DUP2 PUSH1 0x1 DUP2 MLOAD DUP2 LT PUSH2 0x40E1 JUMPI PUSH4 0x4E487B71 PUSH1 0xE0 SHL PUSH1 0x0 MSTORE PUSH1 0x32 PUSH1 0x4 MSTORE PUSH1 0x24 PUSH1 0x0 REVERT JUMPDEST PUSH1 0x20 ADD ADD SWAP1 PUSH1 0x1 PUSH1 0x1 PUSH1 0xF8 SHL SUB NOT AND SWAP1 DUP2 PUSH1 0x0 BYTE SWAP1 MSTORE8 POP PUSH1 0x0 PUSH2 0x4105 DUP5 PUSH1 0x2 PUSH2 0x5598 JUMP JUMPDEST PUSH2 0x4110 SWAP1 PUSH1 0x1 PUSH2 0x547E JUMP JUMPDEST SWAP1 POP JUMPDEST PUSH1 0x1 DUP2 GT ISZERO PUSH2 0x41A4 JUMPI PUSH16 0x181899199A1A9B1B9C1CB0B131B232B3 PUSH1 0x81 SHL DUP6 PUSH1 0xF AND PUSH1 0x10 DUP2 LT PUSH2 0x4152 JUMPI PUSH4 0x4E487B71 PUSH1 0xE0 SHL PUSH1 0x0 MSTORE PUSH1 0x32 PUSH1 0x4 MSTORE PUSH1 0x24 PUSH1 0x0 REVERT JUMPDEST BYTE PUSH1 0xF8 SHL DUP3 DUP3 DUP2 MLOAD DUP2 LT PUSH2 0x4176 JUMPI PUSH4 0x4E487B71 PUSH1 0xE0 SHL PUSH1 0x0 MSTORE PUSH1 0x32 PUSH1 0x4 MSTORE PUSH1 0x24 PUSH1 0x0 REVERT JUMPDEST PUSH1 0x20 ADD ADD SWAP1 PUSH1 0x1 PUSH1 0x1 PUSH1 0xF8 SHL SUB NOT AND SWAP1 DUP2 PUSH1 0x0 BYTE SWAP1 MSTORE8 POP PUSH1 0x4 SWAP5 SWAP1 SWAP5 SHR SWAP4 PUSH2 0x419D DUP2 PUSH2 0x55FA JUMP JUMPDEST SWAP1 POP PUSH2 0x4113 JUMP JUMPDEST POP DUP4 ISZERO PUSH2 0x2B62 JUMPI PUSH1 0x40 MLOAD PUSH3 0x461BCD PUSH1 0xE5 SHL DUP2 MSTORE PUSH1 0x20 PUSH1 0x4 DUP3 ADD DUP2 SWAP1 MSTORE PUSH1 0x24 DUP3 ADD MSTORE PUSH32 0x537472696E67733A20686578206C656E67746820696E73756666696369656E74 PUSH1 0x44 DUP3 ADD MSTORE PUSH1 0x64 ADD PUSH2 0x795 JUMP JUMPDEST PUSH1 0x0 PUSH2 0x41FE DUP3 PUSH2 0x1A69 JUMP JUMPDEST SWAP1 POP PUSH1 0x0 PUSH2 0x420B DUP4 PUSH2 0x1699 JUMP JUMPDEST PUSH1 0x0 DUP5 DUP2 MSTORE PUSH1 0xF PUSH1 0x20 SWAP1 DUP2 MSTORE PUSH1 0x40 DUP1 DUP4 KECCAK256 SLOAD DUP5 DUP5 MSTORE PUSH1 0xC SWAP1 SWAP3 MSTORE SWAP1 SWAP2 KECCAK256 SWAP2 SWAP3 POP SWAP1 PUSH2 0x4236 SWAP1 DUP6 PUSH2 0x46A0 JUMP JUMPDEST POP PUSH1 0x0 DUP5 DUP2 MSTORE PUSH1 0xF PUSH1 0x20 MSTORE PUSH1 0x40 DUP2 KECCAK256 SSTORE PUSH2 0x424F DUP5 PUSH2 0x46AC JUMP JUMPDEST DUP4 PUSH1 0x0 PUSH1 0x1 PUSH1 0x1 PUSH1 0xA0 SHL SUB AND DUP5 PUSH1 0x1 PUSH1 0x1 PUSH1 0xA0 SHL SUB AND PUSH1 0x0 DUP1 MLOAD PUSH1 0x20 PUSH2 0x5749 DUP4 CODECOPY DUP2 MLOAD SWAP2 MSTORE PUSH1 0x0 DUP6 PUSH1 0x40 MLOAD PUSH2 0x3D19 SWAP3 SWAP2 SWAP1 PUSH2 0x5240 JUMP JUMPDEST PUSH1 0x0 PUSH1 0x1 PUSH1 0x1 PUSH1 0xA0 SHL SUB DUP5 AND EXTCODESIZE ISZERO PUSH2 0x4387 JUMPI PUSH1 0x40 MLOAD PUSH4 0xA85BD01 PUSH1 0xE1 SHL DUP2 MSTORE PUSH1 0x1 PUSH1 0x1 PUSH1 0xA0 SHL SUB DUP6 AND SWAP1 PUSH4 0x150B7A02 SWAP1 PUSH2 0x42C9 SWAP1 CALLER SWAP1 DUP10 SWAP1 DUP9 SWAP1 DUP9 SWAP1 PUSH1 0x4 ADD PUSH2 0x514A JUMP JUMPDEST PUSH1 0x20 PUSH1 0x40 MLOAD DUP1 DUP4 SUB DUP2 PUSH1 0x0 DUP8 DUP1 EXTCODESIZE ISZERO DUP1 ISZERO PUSH2 0x42E3 JUMPI PUSH1 0x0 DUP1 REVERT JUMPDEST POP GAS CALL SWAP3 POP POP POP DUP1 ISZERO PUSH2 0x4313 JUMPI POP PUSH1 0x40 DUP1 MLOAD PUSH1 0x1F RETURNDATASIZE SWAP1 DUP2 ADD PUSH1 0x1F NOT AND DUP3 ADD SWAP1 SWAP3 MSTORE PUSH2 0x4310 SWAP2 DUP2 ADD SWAP1 PUSH2 0x4EC2 JUMP JUMPDEST PUSH1 0x1 JUMPDEST PUSH2 0x436D JUMPI RETURNDATASIZE DUP1 DUP1 ISZERO PUSH2 0x4341 JUMPI PUSH1 0x40 MLOAD SWAP2 POP PUSH1 0x1F NOT PUSH1 0x3F RETURNDATASIZE ADD AND DUP3 ADD PUSH1 0x40 MSTORE RETURNDATASIZE DUP3 MSTORE RETURNDATASIZE PUSH1 0x0 PUSH1 0x20 DUP5 ADD RETURNDATACOPY PUSH2 0x4346 JUMP JUMPDEST PUSH1 0x60 SWAP2 POP JUMPDEST POP DUP1 MLOAD PUSH2 0x4365 JUMPI PUSH1 0x40 MLOAD PUSH3 0x461BCD PUSH1 0xE5 SHL DUP2 MSTORE PUSH1 0x4 ADD PUSH2 0x795 SWAP1 PUSH2 0x527D JUMP JUMPDEST DUP1 MLOAD DUP2 PUSH1 0x20 ADD REVERT JUMPDEST PUSH1 0x1 PUSH1 0x1 PUSH1 0xE0 SHL SUB NOT AND PUSH4 0xA85BD01 PUSH1 0xE1 SHL EQ SWAP1 POP PUSH2 0x318F JUMP JUMPDEST POP PUSH1 0x1 SWAP5 SWAP4 POP POP POP POP JUMP JUMPDEST PUSH1 0x60 PUSH1 0x40 MLOAD DUP1 PUSH1 0x60 ADD PUSH1 0x40 MSTORE DUP1 PUSH1 0x22 DUP2 MSTORE PUSH1 0x20 ADD PUSH2 0x5707 PUSH1 0x22 SWAP2 CODECOPY SWAP1 POP SWAP1 JUMP JUMPDEST PUSH1 0x60 PUSH2 0x43BD DUP3 PUSH2 0x3042 JUMP JUMPDEST PUSH2 0x4421 JUMPI PUSH1 0x40 MLOAD PUSH3 0x461BCD PUSH1 0xE5 SHL DUP2 MSTORE PUSH1 0x20 PUSH1 0x4 DUP3 ADD MSTORE PUSH1 0x2F PUSH1 0x24 DUP3 ADD MSTORE PUSH32 0x4552433732314D657461646174613A2055524920717565727920666F72206E6F PUSH1 0x44 DUP3 ADD MSTORE PUSH15 0x3732BC34B9BA32B73A103A37B5B2B7 PUSH1 0x89 SHL PUSH1 0x64 DUP3 ADD MSTORE PUSH1 0x84 ADD PUSH2 0x795 JUMP JUMPDEST PUSH1 0x0 PUSH2 0x442B PUSH2 0x4392 JUMP JUMPDEST SWAP1 POP PUSH1 0x0 DUP2 MLOAD GT PUSH2 0x444B JUMPI PUSH1 0x40 MLOAD DUP1 PUSH1 0x20 ADD PUSH1 0x40 MSTORE DUP1 PUSH1 0x0 DUP2 MSTORE POP PUSH2 0x2B62 JUMP JUMPDEST DUP1 PUSH2 0x4455 DUP5 PUSH2 0x4741 JUMP JUMPDEST PUSH1 0x40 MLOAD PUSH1 0x20 ADD PUSH2 0x4466 SWAP3 SWAP2 SWAP1 PUSH2 0x5088 JUMP JUMPDEST PUSH1 0x40 MLOAD PUSH1 0x20 DUP2 DUP4 SUB SUB DUP2 MSTORE SWAP1 PUSH1 0x40 MSTORE SWAP4 SWAP3 POP POP POP JUMP JUMPDEST PUSH1 0x0 DUP3 PUSH1 0x0 ADD DUP3 DUP2 SLOAD DUP2 LT PUSH2 0x44A1 JUMPI PUSH4 0x4E487B71 PUSH1 0xE0 SHL PUSH1 0x0 MSTORE PUSH1 0x32 PUSH1 0x4 MSTORE PUSH1 0x24 PUSH1 0x0 REVERT JUMPDEST SWAP1 PUSH1 0x0 MSTORE PUSH1 0x20 PUSH1 0x0 KECCAK256 ADD SLOAD SWAP1 POP SWAP3 SWAP2 POP POP JUMP JUMPDEST PUSH1 0x1 PUSH1 0x1 PUSH1 0xA0 SHL SUB DUP3 AND PUSH2 0x450A JUMPI PUSH1 0x40 MLOAD PUSH3 0x461BCD PUSH1 0xE5 SHL DUP2 MSTORE PUSH1 0x20 PUSH1 0x4 DUP3 ADD DUP2 SWAP1 MSTORE PUSH1 0x24 DUP3 ADD MSTORE PUSH32 0x4552433732313A206D696E7420746F20746865207A65726F2061646472657373 PUSH1 0x44 DUP3 ADD MSTORE PUSH1 0x64 ADD PUSH2 0x795 JUMP JUMPDEST PUSH2 0x4513 DUP2 PUSH2 0x3042 JUMP JUMPDEST ISZERO PUSH2 0x455F JUMPI PUSH1 0x40 MLOAD PUSH3 0x461BCD PUSH1 0xE5 SHL DUP2 MSTORE PUSH1 0x20 PUSH1 0x4 DUP3 ADD MSTORE PUSH1 0x1C PUSH1 0x24 DUP3 ADD MSTORE PUSH28 0x115490CDCC8C4E881D1BDAD95B88185B1C9958591E481B5A5B9D1959 PUSH1 0x22 SHL PUSH1 0x44 DUP3 ADD MSTORE PUSH1 0x64 ADD PUSH2 0x795 JUMP JUMPDEST PUSH2 0x456B PUSH1 0x0 DUP4 DUP4 PUSH2 0x3FFA JUMP JUMPDEST PUSH1 0x1 PUSH1 0x1 PUSH1 0xA0 SHL SUB DUP3 AND PUSH1 0x0 SWAP1 DUP2 MSTORE PUSH1 0x3 PUSH1 0x20 MSTORE PUSH1 0x40 DUP2 KECCAK256 DUP1 SLOAD PUSH1 0x1 SWAP3 SWAP1 PUSH2 0x4594 SWAP1 DUP5 SWAP1 PUSH2 0x547E JUMP JUMPDEST SWAP1 SWAP2 SSTORE POP POP PUSH1 0x0 DUP2 DUP2 MSTORE PUSH1 0x2 PUSH1 0x20 MSTORE PUSH1 0x40 DUP1 DUP3 KECCAK256 DUP1 SLOAD PUSH1 0x1 PUSH1 0x1 PUSH1 0xA0 SHL SUB NOT AND PUSH1 0x1 PUSH1 0x1 PUSH1 0xA0 SHL SUB DUP7 AND SWAP1 DUP2 OR SWAP1 SWAP2 SSTORE SWAP1 MLOAD DUP4 SWAP3 SWAP1 PUSH1 0x0 DUP1 MLOAD PUSH1 0x20 PUSH2 0x5729 DUP4 CODECOPY DUP2 MLOAD SWAP2 MSTORE SWAP1 DUP3 SWAP1 LOG4 POP POP JUMP JUMPDEST PUSH1 0x0 PUSH2 0x2B62 DUP4 DUP4 PUSH2 0x485A JUMP JUMPDEST PUSH1 0x0 DUP2 DUP2 MSTORE PUSH1 0xB PUSH1 0x20 MSTORE PUSH1 0x40 DUP2 KECCAK256 SWAP1 JUMPDEST DUP2 SLOAD DUP2 LT ISZERO PUSH2 0x164E JUMPI DUP2 PUSH1 0x1 ADD PUSH1 0x0 DUP4 PUSH1 0x0 ADD DUP4 DUP2 SLOAD DUP2 LT PUSH2 0x462E JUMPI PUSH4 0x4E487B71 PUSH1 0xE0 SHL PUSH1 0x0 MSTORE PUSH1 0x32 PUSH1 0x4 MSTORE PUSH1 0x24 PUSH1 0x0 REVERT JUMPDEST PUSH1 0x0 SWAP2 DUP3 MSTORE PUSH1 0x20 DUP1 DUP4 KECCAK256 SWAP1 SWAP2 ADD SLOAD PUSH1 0x1 PUSH1 0x1 PUSH1 0xA0 SHL SUB AND DUP4 MSTORE DUP3 ADD SWAP3 SWAP1 SWAP3 MSTORE PUSH1 0x40 ADD DUP2 KECCAK256 SSTORE DUP2 SLOAD DUP3 SWAP1 DUP3 SWAP1 DUP2 LT PUSH2 0x4675 JUMPI PUSH4 0x4E487B71 PUSH1 0xE0 SHL PUSH1 0x0 MSTORE PUSH1 0x32 PUSH1 0x4 MSTORE PUSH1 0x24 PUSH1 0x0 REVERT JUMPDEST PUSH1 0x0 SWAP2 DUP3 MSTORE PUSH1 0x20 SWAP1 SWAP2 KECCAK256 ADD DUP1 SLOAD PUSH1 0x1 PUSH1 0x1 PUSH1 0xA0 SHL SUB NOT AND SWAP1 SSTORE DUP1 PUSH2 0x4698 DUP2 PUSH2 0x5646 JUMP JUMPDEST SWAP2 POP POP PUSH2 0x45FC JUMP JUMPDEST PUSH1 0x0 PUSH2 0x2B62 DUP4 DUP4 PUSH2 0x48A9 JUMP JUMPDEST PUSH1 0x0 PUSH2 0x46B7 DUP3 PUSH2 0x1A69 JUMP JUMPDEST SWAP1 POP PUSH2 0x46C5 DUP2 PUSH1 0x0 DUP5 PUSH2 0x3FFA JUMP JUMPDEST PUSH2 0x46D0 PUSH1 0x0 DUP4 PUSH2 0x305F JUMP JUMPDEST PUSH1 0x1 PUSH1 0x1 PUSH1 0xA0 SHL SUB DUP2 AND PUSH1 0x0 SWAP1 DUP2 MSTORE PUSH1 0x3 PUSH1 0x20 MSTORE PUSH1 0x40 DUP2 KECCAK256 DUP1 SLOAD PUSH1 0x1 SWAP3 SWAP1 PUSH2 0x46F9 SWAP1 DUP5 SWAP1 PUSH2 0x55B7 JUMP JUMPDEST SWAP1 SWAP2 SSTORE POP POP PUSH1 0x0 DUP3 DUP2 MSTORE PUSH1 0x2 PUSH1 0x20 MSTORE PUSH1 0x40 DUP1 DUP3 KECCAK256 DUP1 SLOAD PUSH1 0x1 PUSH1 0x1 PUSH1 0xA0 SHL SUB NOT AND SWAP1 SSTORE MLOAD DUP4 SWAP2 SWAP1 PUSH1 0x1 PUSH1 0x1 PUSH1 0xA0 SHL SUB DUP5 AND SWAP1 PUSH1 0x0 DUP1 MLOAD PUSH1 0x20 PUSH2 0x5729 DUP4 CODECOPY DUP2 MLOAD SWAP2 MSTORE SWAP1 DUP4 SWAP1 LOG4 POP POP JUMP JUMPDEST PUSH1 0x60 DUP2 PUSH2 0x4765 JUMPI POP POP PUSH1 0x40 DUP1 MLOAD DUP1 DUP3 ADD SWAP1 SWAP2 MSTORE PUSH1 0x1 DUP2 MSTORE PUSH1 0x3 PUSH1 0xFC SHL PUSH1 0x20 DUP3 ADD MSTORE SWAP1 JUMP JUMPDEST DUP2 PUSH1 0x0 JUMPDEST DUP2 ISZERO PUSH2 0x478F JUMPI DUP1 PUSH2 0x4779 DUP2 PUSH2 0x5646 JUMP JUMPDEST SWAP2 POP PUSH2 0x4788 SWAP1 POP PUSH1 0xA DUP4 PUSH2 0x5496 JUMP JUMPDEST SWAP2 POP PUSH2 0x4769 JUMP JUMPDEST PUSH1 0x0 DUP2 PUSH1 0x1 PUSH1 0x1 PUSH1 0x40 SHL SUB DUP2 GT ISZERO PUSH2 0x47B7 JUMPI PUSH4 0x4E487B71 PUSH1 0xE0 SHL PUSH1 0x0 MSTORE PUSH1 0x41 PUSH1 0x4 MSTORE PUSH1 0x24 PUSH1 0x0 REVERT JUMPDEST PUSH1 0x40 MLOAD SWAP1 DUP1 DUP3 MSTORE DUP1 PUSH1 0x1F ADD PUSH1 0x1F NOT AND PUSH1 0x20 ADD DUP3 ADD PUSH1 0x40 MSTORE DUP1 ISZERO PUSH2 0x47E1 JUMPI PUSH1 0x20 DUP3 ADD DUP2 DUP1 CALLDATASIZE DUP4 CALLDATACOPY ADD SWAP1 POP JUMPDEST POP SWAP1 POP JUMPDEST DUP5 ISZERO PUSH2 0x318F JUMPI PUSH2 0x47F6 PUSH1 0x1 DUP4 PUSH2 0x55B7 JUMP JUMPDEST SWAP2 POP PUSH2 0x4803 PUSH1 0xA DUP7 PUSH2 0x5661 JUMP JUMPDEST PUSH2 0x480E SWAP1 PUSH1 0x30 PUSH2 0x547E JUMP JUMPDEST PUSH1 0xF8 SHL DUP2 DUP4 DUP2 MLOAD DUP2 LT PUSH2 0x4831 JUMPI PUSH4 0x4E487B71 PUSH1 0xE0 SHL PUSH1 0x0 MSTORE PUSH1 0x32 PUSH1 0x4 MSTORE PUSH1 0x24 PUSH1 0x0 REVERT JUMPDEST PUSH1 0x20 ADD ADD SWAP1 PUSH1 0x1 PUSH1 0x1 PUSH1 0xF8 SHL SUB NOT AND SWAP1 DUP2 PUSH1 0x0 BYTE SWAP1 MSTORE8 POP PUSH2 0x4853 PUSH1 0xA DUP7 PUSH2 0x5496 JUMP JUMPDEST SWAP5 POP PUSH2 0x47E5 JUMP JUMPDEST PUSH1 0x0 DUP2 DUP2 MSTORE PUSH1 0x1 DUP4 ADD PUSH1 0x20 MSTORE PUSH1 0x40 DUP2 KECCAK256 SLOAD PUSH2 0x48A1 JUMPI POP DUP2 SLOAD PUSH1 0x1 DUP2 DUP2 ADD DUP5 SSTORE PUSH1 0x0 DUP5 DUP2 MSTORE PUSH1 0x20 DUP1 DUP3 KECCAK256 SWAP1 SWAP4 ADD DUP5 SWAP1 SSTORE DUP5 SLOAD DUP5 DUP3 MSTORE DUP3 DUP7 ADD SWAP1 SWAP4 MSTORE PUSH1 0x40 SWAP1 KECCAK256 SWAP2 SWAP1 SWAP2 SSTORE PUSH2 0x13DD JUMP JUMPDEST POP PUSH1 0x0 PUSH2 0x13DD JUMP JUMPDEST PUSH1 0x0 DUP2 DUP2 MSTORE PUSH1 0x1 DUP4 ADD PUSH1 0x20 MSTORE PUSH1 0x40 DUP2 KECCAK256 SLOAD DUP1 ISZERO PUSH2 0x49BC JUMPI PUSH1 0x0 PUSH2 0x48CD PUSH1 0x1 DUP4 PUSH2 0x55B7 JUMP JUMPDEST DUP6 SLOAD SWAP1 SWAP2 POP PUSH1 0x0 SWAP1 PUSH2 0x48E1 SWAP1 PUSH1 0x1 SWAP1 PUSH2 0x55B7 JUMP JUMPDEST SWAP1 POP DUP2 DUP2 EQ PUSH2 0x4962 JUMPI PUSH1 0x0 DUP7 PUSH1 0x0 ADD DUP3 DUP2 SLOAD DUP2 LT PUSH2 0x490F JUMPI PUSH4 0x4E487B71 PUSH1 0xE0 SHL PUSH1 0x0 MSTORE PUSH1 0x32 PUSH1 0x4 MSTORE PUSH1 0x24 PUSH1 0x0 REVERT JUMPDEST SWAP1 PUSH1 0x0 MSTORE PUSH1 0x20 PUSH1 0x0 KECCAK256 ADD SLOAD SWAP1 POP DUP1 DUP8 PUSH1 0x0 ADD DUP5 DUP2 SLOAD DUP2 LT PUSH2 0x4940 JUMPI PUSH4 0x4E487B71 PUSH1 0xE0 SHL PUSH1 0x0 MSTORE PUSH1 0x32 PUSH1 0x4 MSTORE PUSH1 0x24 PUSH1 0x0 REVERT JUMPDEST PUSH1 0x0 SWAP2 DUP3 MSTORE PUSH1 0x20 DUP1 DUP4 KECCAK256 SWAP1 SWAP2 ADD SWAP3 SWAP1 SWAP3 SSTORE SWAP2 DUP3 MSTORE PUSH1 0x1 DUP9 ADD SWAP1 MSTORE PUSH1 0x40 SWAP1 KECCAK256 DUP4 SWAP1 SSTORE JUMPDEST DUP6 SLOAD DUP7 SWAP1 DUP1 PUSH2 0x4981 JUMPI PUSH4 0x4E487B71 PUSH1 0xE0 SHL PUSH1 0x0 MSTORE PUSH1 0x31 PUSH1 0x4 MSTORE PUSH1 0x24 PUSH1 0x0 REVERT JUMPDEST PUSH1 0x1 SWAP1 SUB DUP2 DUP2 SWAP1 PUSH1 0x0 MSTORE PUSH1 0x20 PUSH1 0x0 KECCAK256 ADD PUSH1 0x0 SWAP1 SSTORE SWAP1 SSTORE DUP6 PUSH1 0x1 ADD PUSH1 0x0 DUP7 DUP2 MSTORE PUSH1 0x20 ADD SWAP1 DUP2 MSTORE PUSH1 0x20 ADD PUSH1 0x0 KECCAK256 PUSH1 0x0 SWAP1 SSTORE PUSH1 0x1 SWAP4 POP POP POP POP PUSH2 0x13DD JUMP JUMPDEST PUSH1 0x0 SWAP2 POP POP PUSH2 0x13DD JUMP JUMPDEST PUSH1 0x40 DUP1 MLOAD PUSH1 0xE0 DUP2 ADD SWAP1 SWAP2 MSTORE DUP1 PUSH1 0x0 DUP2 MSTORE PUSH1 0x20 ADD PUSH1 0x0 DUP2 MSTORE PUSH1 0x20 ADD PUSH1 0x0 DUP2 MSTORE PUSH1 0x20 ADD PUSH1 0x0 DUP2 MSTORE PUSH1 0x20 ADD PUSH1 0x0 DUP2 MSTORE PUSH1 0x20 ADD PUSH1 0x0 DUP2 MSTORE PUSH1 0x20 ADD PUSH1 0x0 PUSH1 0x2 DUP2 GT ISZERO PUSH2 0x4A1D JUMPI PUSH4 0x4E487B71 PUSH1 0xE0 SHL PUSH1 0x0 MSTORE PUSH1 0x21 PUSH1 0x4 MSTORE PUSH1 0x24 PUSH1 0x0 REVERT JUMPDEST SWAP1 MSTORE SWAP1 JUMP JUMPDEST DUP3 DUP1 SLOAD PUSH2 0x4A2E SWAP1 PUSH2 0x5611 JUMP JUMPDEST SWAP1 PUSH1 0x0 MSTORE PUSH1 0x20 PUSH1 0x0 KECCAK256 SWAP1 PUSH1 0x1F ADD PUSH1 0x20 SWAP1 DIV DUP2 ADD SWAP3 DUP3 PUSH2 0x4A50 JUMPI PUSH1 0x0 DUP6 SSTORE PUSH2 0x4A96 JUMP JUMPDEST DUP3 PUSH1 0x1F LT PUSH2 0x4A69 JUMPI DUP1 MLOAD PUSH1 0xFF NOT AND DUP4 DUP1 ADD OR DUP6 SSTORE PUSH2 0x4A96 JUMP JUMPDEST DUP3 DUP1 ADD PUSH1 0x1 ADD DUP6 SSTORE DUP3 ISZERO PUSH2 0x4A96 JUMPI SWAP2 DUP3 ADD JUMPDEST DUP3 DUP2 GT ISZERO PUSH2 0x4A96 JUMPI DUP3 MLOAD DUP3 SSTORE SWAP2 PUSH1 0x20 ADD SWAP2 SWAP1 PUSH1 0x1 ADD SWAP1 PUSH2 0x4A7B JUMP JUMPDEST POP PUSH2 0x4AA2 SWAP3 SWAP2 POP PUSH2 0x4AA6 JUMP JUMPDEST POP SWAP1 JUMP JUMPDEST JUMPDEST DUP1 DUP3 GT ISZERO PUSH2 0x4AA2 JUMPI PUSH1 0x0 DUP2 SSTORE PUSH1 0x1 ADD PUSH2 0x4AA7 JUMP JUMPDEST PUSH1 0x0 PUSH1 0x1 PUSH1 0x1 PUSH1 0x40 SHL SUB DUP1 DUP5 GT ISZERO PUSH2 0x4AD5 JUMPI PUSH2 0x4AD5 PUSH2 0x56B7 JUMP JUMPDEST PUSH1 0x40 MLOAD PUSH1 0x1F DUP6 ADD PUSH1 0x1F NOT SWAP1 DUP2 AND PUSH1 0x3F ADD AND DUP2 ADD SWAP1 DUP3 DUP3 GT DUP2 DUP4 LT OR ISZERO PUSH2 0x4AFD JUMPI PUSH2 0x4AFD PUSH2 0x56B7 JUMP JUMPDEST DUP2 PUSH1 0x40 MSTORE DUP1 SWAP4 POP DUP6 DUP2 MSTORE DUP7 DUP7 DUP7 ADD GT ISZERO PUSH2 0x4B16 JUMPI PUSH1 0x0 DUP1 REVERT JUMPDEST DUP6 DUP6 PUSH1 0x20 DUP4 ADD CALLDATACOPY PUSH1 0x0 PUSH1 0x20 DUP8 DUP4 ADD ADD MSTORE POP POP POP SWAP4 SWAP3 POP POP POP JUMP JUMPDEST PUSH1 0x0 DUP1 DUP4 PUSH1 0x1F DUP5 ADD SLT PUSH2 0x4B41 JUMPI DUP2 DUP3 REVERT JUMPDEST POP DUP2 CALLDATALOAD PUSH1 0x1 PUSH1 0x1 PUSH1 0x40 SHL SUB DUP2 GT ISZERO PUSH2 0x4B57 JUMPI DUP2 DUP3 REVERT JUMPDEST PUSH1 0x20 DUP4 ADD SWAP2 POP DUP4 PUSH1 0x20 DUP3 PUSH1 0x5 SHL DUP6 ADD ADD GT ISZERO PUSH2 0x4B72 JUMPI PUSH1 0x0 DUP1 REVERT JUMPDEST SWAP3 POP SWAP3 SWAP1 POP JUMP JUMPDEST PUSH1 0x0 PUSH1 0x20 DUP3 DUP5 SUB SLT ISZERO PUSH2 0x4B8A JUMPI DUP1 DUP2 REVERT JUMPDEST DUP2 CALLDATALOAD PUSH2 0x2B62 DUP2 PUSH2 0x56CD JUMP JUMPDEST PUSH1 0x0 PUSH1 0x20 DUP3 DUP5 SUB SLT ISZERO PUSH2 0x4BA6 JUMPI DUP1 DUP2 REVERT JUMPDEST DUP2 MLOAD PUSH2 0x2B62 DUP2 PUSH2 0x56CD JUMP JUMPDEST PUSH1 0x0 DUP1 PUSH1 0x40 DUP4 DUP6 SUB SLT ISZERO PUSH2 0x4BC3 JUMPI DUP1 DUP2 REVERT JUMPDEST DUP3 CALLDATALOAD PUSH2 0x4BCE DUP2 PUSH2 0x56CD JUMP JUMPDEST SWAP2 POP PUSH1 0x20 DUP4 ADD CALLDATALOAD PUSH2 0x4BDE DUP2 PUSH2 0x56CD JUMP JUMPDEST DUP1 SWAP2 POP POP SWAP3 POP SWAP3 SWAP1 POP JUMP JUMPDEST PUSH1 0x0 DUP1 PUSH1 0x0 PUSH1 0x60 DUP5 DUP7 SUB SLT ISZERO PUSH2 0x4BFD JUMPI DUP1 DUP2 REVERT JUMPDEST DUP4 CALLDATALOAD PUSH2 0x4C08 DUP2 PUSH2 0x56CD JUMP JUMPDEST SWAP3 POP PUSH1 0x20 DUP5 ADD CALLDATALOAD PUSH2 0x4C18 DUP2 PUSH2 0x56CD JUMP JUMPDEST SWAP3 SWAP6 SWAP3 SWAP5 POP POP POP PUSH1 0x40 SWAP2 SWAP1 SWAP2 ADD CALLDATALOAD SWAP1 JUMP JUMPDEST PUSH1 0x0 DUP1 PUSH1 0x0 DUP1 PUSH1 0x80 DUP6 DUP8 SUB SLT ISZERO PUSH2 0x4C3E JUMPI DUP1 DUP2 REVERT JUMPDEST DUP5 CALLDATALOAD PUSH2 0x4C49 DUP2 PUSH2 0x56CD JUMP JUMPDEST SWAP4 POP PUSH1 0x20 DUP6 ADD CALLDATALOAD PUSH2 0x4C59 DUP2 PUSH2 0x56CD JUMP JUMPDEST SWAP3 POP PUSH1 0x40 DUP6 ADD CALLDATALOAD SWAP2 POP PUSH1 0x60 DUP6 ADD CALLDATALOAD PUSH1 0x1 PUSH1 0x1 PUSH1 0x40 SHL SUB DUP2 GT ISZERO PUSH2 0x4C7A JUMPI DUP2 DUP3 REVERT JUMPDEST DUP6 ADD PUSH1 0x1F DUP2 ADD DUP8 SGT PUSH2 0x4C8A JUMPI DUP2 DUP3 REVERT JUMPDEST PUSH2 0x4C99 DUP8 DUP3 CALLDATALOAD PUSH1 0x20 DUP5 ADD PUSH2 0x4ABB JUMP JUMPDEST SWAP2 POP POP SWAP3 SWAP6 SWAP2 SWAP5 POP SWAP3 POP JUMP JUMPDEST PUSH1 0x0 DUP1 PUSH1 0x0 DUP1 PUSH1 0x80 DUP6 DUP8 SUB SLT ISZERO PUSH2 0x4CBA JUMPI DUP4 DUP5 REVERT JUMPDEST DUP5 CALLDATALOAD PUSH2 0x4CC5 DUP2 PUSH2 0x56CD JUMP JUMPDEST SWAP4 POP PUSH1 0x20 DUP6 ADD CALLDATALOAD PUSH2 0x4CD5 DUP2 PUSH2 0x56CD JUMP JUMPDEST SWAP4 SWAP7 SWAP4 SWAP6 POP POP POP POP PUSH1 0x40 DUP3 ADD CALLDATALOAD SWAP2 PUSH1 0x60 ADD CALLDATALOAD SWAP1 JUMP JUMPDEST PUSH1 0x0 DUP1 PUSH1 0x0 DUP1 PUSH1 0x0 PUSH1 0xA0 DUP7 DUP9 SUB SLT ISZERO PUSH2 0x4D01 JUMPI DUP1 DUP2 REVERT JUMPDEST DUP6 CALLDATALOAD PUSH2 0x4D0C DUP2 PUSH2 0x56CD JUMP JUMPDEST SWAP5 POP PUSH1 0x20 DUP7 ADD CALLDATALOAD PUSH2 0x4D1C DUP2 PUSH2 0x56CD JUMP JUMPDEST SWAP5 SWAP8 SWAP5 SWAP7 POP POP POP POP PUSH1 0x40 DUP4 ADD CALLDATALOAD SWAP3 PUSH1 0x60 DUP2 ADD CALLDATALOAD SWAP3 PUSH1 0x80 SWAP1 SWAP2 ADD CALLDATALOAD SWAP2 POP JUMP JUMPDEST PUSH1 0x0 DUP1 PUSH1 0x40 DUP4 DUP6 SUB SLT ISZERO PUSH2 0x4D4C JUMPI DUP2 DUP3 REVERT JUMPDEST DUP3 CALLDATALOAD PUSH2 0x4D57 DUP2 PUSH2 0x56CD JUMP JUMPDEST SWAP2 POP PUSH1 0x20 DUP4 ADD CALLDATALOAD PUSH2 0x4BDE DUP2 PUSH2 0x56E2 JUMP JUMPDEST PUSH1 0x0 DUP1 PUSH1 0x40 DUP4 DUP6 SUB SLT ISZERO PUSH2 0x4D79 JUMPI DUP2 DUP3 REVERT JUMPDEST DUP3 CALLDATALOAD PUSH2 0x4D84 DUP2 PUSH2 0x56CD JUMP JUMPDEST SWAP5 PUSH1 0x20 SWAP4 SWAP1 SWAP4 ADD CALLDATALOAD SWAP4 POP POP POP JUMP JUMPDEST PUSH1 0x0 DUP1 PUSH1 0x0 PUSH1 0x60 DUP5 DUP7 SUB SLT ISZERO PUSH2 0x4DA6 JUMPI DUP1 DUP2 REVERT JUMPDEST DUP4 CALLDATALOAD PUSH2 0x4DB1 DUP2 PUSH2 0x56CD JUMP JUMPDEST SWAP6 PUSH1 0x20 DUP6 ADD CALLDATALOAD SWAP6 POP PUSH1 0x40 SWAP1 SWAP5 ADD CALLDATALOAD SWAP4 SWAP3 POP POP POP JUMP JUMPDEST PUSH1 0x0 DUP1 PUSH1 0x20 DUP4 DUP6 SUB SLT ISZERO PUSH2 0x4DD8 JUMPI DUP2 DUP3 REVERT JUMPDEST DUP3 CALLDATALOAD PUSH1 0x1 PUSH1 0x1 PUSH1 0x40 SHL SUB DUP2 GT ISZERO PUSH2 0x4DED JUMPI DUP3 DUP4 REVERT JUMPDEST PUSH2 0x4DF9 DUP6 DUP3 DUP7 ADD PUSH2 0x4B30 JUMP JUMPDEST SWAP1 SWAP7 SWAP1 SWAP6 POP SWAP4 POP POP POP POP JUMP JUMPDEST PUSH1 0x0 DUP1 PUSH1 0x0 PUSH1 0x40 DUP5 DUP7 SUB SLT ISZERO PUSH2 0x4E19 JUMPI DUP1 DUP2 REVERT JUMPDEST DUP4 CALLDATALOAD PUSH1 0x1 PUSH1 0x1 PUSH1 0x40 SHL SUB DUP2 GT ISZERO PUSH2 0x4E2E JUMPI DUP2 DUP3 REVERT JUMPDEST PUSH2 0x4E3A DUP7 DUP3 DUP8 ADD PUSH2 0x4B30 JUMP JUMPDEST SWAP1 SWAP8 SWAP1 SWAP7 POP PUSH1 0x20 SWAP6 SWAP1 SWAP6 ADD CALLDATALOAD SWAP5 SWAP4 POP POP POP POP JUMP JUMPDEST PUSH1 0x0 PUSH1 0x20 DUP3 DUP5 SUB SLT ISZERO PUSH2 0x4E5F JUMPI DUP1 DUP2 REVERT JUMPDEST DUP2 MLOAD PUSH2 0x2B62 DUP2 PUSH2 0x56E2 JUMP JUMPDEST PUSH1 0x0 PUSH1 0x20 DUP3 DUP5 SUB SLT ISZERO PUSH2 0x4E7B JUMPI DUP1 DUP2 REVERT JUMPDEST POP CALLDATALOAD SWAP2 SWAP1 POP JUMP JUMPDEST PUSH1 0x0 DUP1 PUSH1 0x40 DUP4 DUP6 SUB SLT ISZERO PUSH2 0x4E94 JUMPI DUP2 DUP3 REVERT JUMPDEST DUP3 CALLDATALOAD SWAP2 POP PUSH1 0x20 DUP4 ADD CALLDATALOAD PUSH2 0x4BDE DUP2 PUSH2 0x56CD JUMP JUMPDEST PUSH1 0x0 PUSH1 0x20 DUP3 DUP5 SUB SLT ISZERO PUSH2 0x4EB7 JUMPI DUP1 DUP2 REVERT JUMPDEST DUP2 CALLDATALOAD PUSH2 0x2B62 DUP2 PUSH2 0x56F0 JUMP JUMPDEST PUSH1 0x0 PUSH1 0x20 DUP3 DUP5 SUB SLT ISZERO PUSH2 0x4ED3 JUMPI DUP1 DUP2 REVERT JUMPDEST DUP2 MLOAD PUSH2 0x2B62 DUP2 PUSH2 0x56F0 JUMP JUMPDEST PUSH1 0x0 PUSH1 0x20 DUP3 DUP5 SUB SLT ISZERO PUSH2 0x4EEF JUMPI DUP1 DUP2 REVERT JUMPDEST POP MLOAD SWAP2 SWAP1 POP JUMP JUMPDEST PUSH1 0x0 DUP1 PUSH1 0x0 PUSH1 0x40 DUP5 DUP7 SUB SLT ISZERO PUSH2 0x4F0A JUMPI DUP1 DUP2 REVERT JUMPDEST DUP4 CALLDATALOAD SWAP3 POP PUSH1 0x20 DUP5 ADD CALLDATALOAD PUSH1 0x1 PUSH1 0x1 PUSH1 0x40 SHL SUB DUP2 GT ISZERO PUSH2 0x4F26 JUMPI DUP2 DUP3 REVERT JUMPDEST PUSH2 0x4F32 DUP7 DUP3 DUP8 ADD PUSH2 0x4B30 JUMP JUMPDEST SWAP5 SWAP8 SWAP1 SWAP7 POP SWAP4 SWAP5 POP POP POP POP JUMP JUMPDEST PUSH1 0x0 DUP1 PUSH1 0x40 DUP4 DUP6 SUB SLT ISZERO PUSH2 0x4F51 JUMPI DUP2 DUP3 REVERT JUMPDEST DUP3 CALLDATALOAD SWAP2 POP PUSH1 0x20 DUP4 ADD CALLDATALOAD PUSH1 0x1 PUSH1 0x1 PUSH1 0x40 SHL SUB DUP2 GT ISZERO PUSH2 0x4F6D JUMPI DUP2 DUP3 REVERT JUMPDEST DUP4 ADD PUSH1 0x1F DUP2 ADD DUP6 SGT PUSH2 0x4F7D JUMPI DUP2 DUP3 REVERT JUMPDEST PUSH2 0x4F8C DUP6 DUP3 CALLDATALOAD PUSH1 0x20 DUP5 ADD PUSH2 0x4ABB JUMP JUMPDEST SWAP2 POP POP SWAP3 POP SWAP3 SWAP1 POP JUMP JUMPDEST PUSH1 0x0 DUP1 PUSH1 0x40 DUP4 DUP6 SUB SLT ISZERO PUSH2 0x4FA8 JUMPI DUP2 DUP3 REVERT JUMPDEST POP POP DUP1 CALLDATALOAD SWAP3 PUSH1 0x20 SWAP1 SWAP2 ADD CALLDATALOAD SWAP2 POP JUMP JUMPDEST PUSH1 0x0 DUP1 PUSH1 0x0 PUSH1 0x60 DUP5 DUP7 SUB SLT ISZERO PUSH2 0x4FCB JUMPI DUP1 DUP2 REVERT JUMPDEST DUP4 MLOAD SWAP3 POP PUSH1 0x20 DUP5 ADD MLOAD SWAP2 POP PUSH1 0x40 DUP5 ADD MLOAD SWAP1 POP SWAP3 POP SWAP3 POP SWAP3 JUMP JUMPDEST PUSH1 0x0 DUP1 PUSH1 0x0 DUP1 PUSH1 0x80 DUP6 DUP8 SUB SLT ISZERO PUSH2 0x4FF9 JUMPI DUP2 DUP3 REVERT JUMPDEST DUP5 CALLDATALOAD SWAP4 POP PUSH1 0x20 DUP6 ADD CALLDATALOAD SWAP3 POP PUSH1 0x40 DUP6 ADD CALLDATALOAD SWAP2 POP PUSH1 0x60 DUP6 ADD CALLDATALOAD PUSH1 0x3 DUP2 LT PUSH2 0x501C JUMPI DUP2 DUP3 REVERT JUMPDEST SWAP4 SWAP7 SWAP3 SWAP6 POP SWAP1 SWAP4 POP POP JUMP JUMPDEST PUSH1 0x0 PUSH1 0x20 DUP3 DUP5 SUB SLT ISZERO PUSH2 0x5038 JUMPI DUP1 DUP2 REVERT JUMPDEST DUP2 MLOAD PUSH1 0xFF DUP2 AND DUP2 EQ PUSH2 0x2B62 JUMPI DUP2 DUP3 REVERT JUMPDEST PUSH1 0x0 DUP2 MLOAD DUP1 DUP5 MSTORE PUSH2 0x5060 DUP2 PUSH1 0x20 DUP7 ADD PUSH1 0x20 DUP7 ADD PUSH2 0x55CE JUMP JUMPDEST PUSH1 0x1F ADD PUSH1 0x1F NOT AND SWAP3 SWAP1 SWAP3 ADD PUSH1 0x20 ADD SWAP3 SWAP2 POP POP JUMP JUMPDEST PUSH1 0x3 DUP2 LT PUSH2 0x5084 JUMPI PUSH2 0x5084 PUSH2 0x56A1 JUMP JUMPDEST SWAP1 MSTORE JUMP JUMPDEST PUSH1 0x0 DUP4 MLOAD PUSH2 0x509A DUP2 DUP5 PUSH1 0x20 DUP9 ADD PUSH2 0x55CE JUMP JUMPDEST DUP4 MLOAD SWAP1 DUP4 ADD SWAP1 PUSH2 0x50AE DUP2 DUP4 PUSH1 0x20 DUP9 ADD PUSH2 0x55CE JUMP JUMPDEST ADD SWAP5 SWAP4 POP POP POP POP JUMP JUMPDEST PUSH23 0x20B1B1B2B9B9A1B7B73A3937B61D1030B1B1B7BAB73A1 PUSH1 0x4D SHL DUP2 MSTORE PUSH1 0x0 DUP4 MLOAD PUSH2 0x50E9 DUP2 PUSH1 0x17 DUP6 ADD PUSH1 0x20 DUP9 ADD PUSH2 0x55CE JUMP JUMPDEST PUSH17 0x1034B99036B4B9B9B4B733903937B6329 PUSH1 0x7D SHL PUSH1 0x17 SWAP2 DUP5 ADD SWAP2 DUP3 ADD MSTORE DUP4 MLOAD PUSH2 0x511A DUP2 PUSH1 0x28 DUP5 ADD PUSH1 0x20 DUP9 ADD PUSH2 0x55CE JUMP JUMPDEST ADD PUSH1 0x28 ADD SWAP5 SWAP4 POP POP POP POP JUMP JUMPDEST PUSH1 0x1 PUSH1 0x1 PUSH1 0xA0 SHL SUB SWAP4 DUP5 AND DUP2 MSTORE SWAP2 SWAP1 SWAP3 AND PUSH1 0x20 DUP3 ADD MSTORE PUSH1 0x40 DUP2 ADD SWAP2 SWAP1 SWAP2 MSTORE PUSH1 0x60 ADD SWAP1 JUMP JUMPDEST PUSH1 0x1 PUSH1 0x1 PUSH1 0xA0 SHL SUB DUP6 DUP2 AND DUP3 MSTORE DUP5 AND PUSH1 0x20 DUP3 ADD MSTORE PUSH1 0x40 DUP2 ADD DUP4 SWAP1 MSTORE PUSH1 0x80 PUSH1 0x60 DUP3 ADD DUP2 SWAP1 MSTORE PUSH1 0x0 SWAP1 PUSH2 0x517D SWAP1 DUP4 ADD DUP5 PUSH2 0x5048 JUMP JUMPDEST SWAP7 SWAP6 POP POP POP POP POP POP JUMP JUMPDEST PUSH1 0x1 PUSH1 0x1 PUSH1 0xA0 SHL SUB SWAP3 SWAP1 SWAP3 AND DUP3 MSTORE PUSH1 0x20 DUP3 ADD MSTORE PUSH1 0x40 ADD SWAP1 JUMP JUMPDEST PUSH1 0x20 DUP1 DUP3 MSTORE DUP3 MLOAD DUP3 DUP3 ADD DUP2 SWAP1 MSTORE PUSH1 0x0 SWAP2 SWAP1 DUP5 DUP3 ADD SWAP1 PUSH1 0x40 DUP6 ADD SWAP1 DUP5 JUMPDEST DUP2 DUP2 LT ISZERO PUSH2 0x51D8 JUMPI DUP4 MLOAD DUP4 MSTORE SWAP3 DUP5 ADD SWAP3 SWAP2 DUP5 ADD SWAP2 PUSH1 0x1 ADD PUSH2 0x51BC JUMP JUMPDEST POP SWAP1 SWAP7 SWAP6 POP POP POP POP POP POP JUMP JUMPDEST PUSH1 0x20 DUP2 ADD PUSH2 0x13DD DUP3 DUP5 PUSH2 0x5074 JUMP JUMPDEST PUSH1 0xE0 DUP2 ADD PUSH1 0x4 DUP10 LT PUSH2 0x5206 JUMPI PUSH2 0x5206 PUSH2 0x56A1 JUMP JUMPDEST DUP9 DUP3 MSTORE DUP8 PUSH1 0x20 DUP4 ADD MSTORE DUP7 PUSH1 0x40 DUP4 ADD MSTORE DUP6 PUSH1 0x60 DUP4 ADD MSTORE DUP5 PUSH1 0x80 DUP4 ADD MSTORE DUP4 PUSH1 0xA0 DUP4 ADD MSTORE PUSH2 0x5234 PUSH1 0xC0 DUP4 ADD DUP5 PUSH2 0x5074 JUMP JUMPDEST SWAP9 SWAP8 POP POP POP POP POP POP POP POP JUMP JUMPDEST SWAP2 DUP3 MSTORE PUSH1 0x20 DUP3 ADD MSTORE PUSH1 0x40 ADD SWAP1 JUMP JUMPDEST PUSH1 0x20 DUP2 MSTORE PUSH1 0x0 PUSH2 0x2B62 PUSH1 0x20 DUP4 ADD DUP5 PUSH2 0x5048 JUMP JUMPDEST PUSH1 0x20 DUP1 DUP3 MSTORE PUSH1 0x2 SWAP1 DUP3 ADD MSTORE PUSH2 0x4F39 PUSH1 0xF0 SHL PUSH1 0x40 DUP3 ADD MSTORE PUSH1 0x60 ADD SWAP1 JUMP JUMPDEST PUSH1 0x20 DUP1 DUP3 MSTORE PUSH1 0x32 SWAP1 DUP3 ADD MSTORE PUSH32 0x4552433732313A207472616E7366657220746F206E6F6E204552433732315265 PUSH1 0x40 DUP3 ADD MSTORE PUSH18 0x31B2B4BB32B91034B6B83632B6B2B73A32B9 PUSH1 0x71 SHL PUSH1 0x60 DUP3 ADD MSTORE PUSH1 0x80 ADD SWAP1 JUMP JUMPDEST PUSH1 0x20 DUP1 DUP3 MSTORE PUSH1 0x2 SWAP1 DUP3 ADD MSTORE PUSH2 0x4F33 PUSH1 0xF0 SHL PUSH1 0x40 DUP3 ADD MSTORE PUSH1 0x60 ADD SWAP1 JUMP JUMPDEST PUSH1 0x20 DUP1 DUP3 MSTORE PUSH1 0x2 SWAP1 DUP3 ADD MSTORE PUSH2 0x4E37 PUSH1 0xF0 SHL PUSH1 0x40 DUP3 ADD MSTORE PUSH1 0x60 ADD SWAP1 JUMP JUMPDEST PUSH1 0x20 DUP1 DUP3 MSTORE DUP2 DUP2 ADD MSTORE PUSH32 0x4F776E61626C653A2063616C6C6572206973206E6F7420746865206F776E6572 PUSH1 0x40 DUP3 ADD MSTORE PUSH1 0x60 ADD SWAP1 JUMP JUMPDEST PUSH1 0x20 DUP1 DUP3 MSTORE PUSH1 0x31 SWAP1 DUP3 ADD MSTORE PUSH32 0x4552433732313A207472616E736665722063616C6C6572206973206E6F74206F PUSH1 0x40 DUP3 ADD MSTORE PUSH17 0x1DDB995C881B9BDC88185C1C1C9BDD9959 PUSH1 0x7A SHL PUSH1 0x60 DUP3 ADD MSTORE PUSH1 0x80 ADD SWAP1 JUMP JUMPDEST PUSH1 0x20 DUP1 DUP3 MSTORE PUSH1 0x2 SWAP1 DUP3 ADD MSTORE PUSH2 0x4F31 PUSH1 0xF0 SHL PUSH1 0x40 DUP3 ADD MSTORE PUSH1 0x60 ADD SWAP1 JUMP JUMPDEST DUP5 DUP2 MSTORE PUSH1 0x20 DUP2 ADD DUP5 SWAP1 MSTORE PUSH1 0x80 DUP2 ADD PUSH2 0x53C4 PUSH1 0x40 DUP4 ADD DUP6 PUSH2 0x5074 JUMP JUMPDEST DUP3 ISZERO ISZERO PUSH1 0x60 DUP4 ADD MSTORE SWAP6 SWAP5 POP POP POP POP POP JUMP JUMPDEST DUP5 DUP2 MSTORE PUSH1 0x20 DUP2 ADD DUP5 SWAP1 MSTORE PUSH1 0x80 DUP2 ADD PUSH2 0x53F0 PUSH1 0x40 DUP4 ADD DUP6 PUSH2 0x5074 JUMP JUMPDEST DUP3 PUSH1 0x60 DUP4 ADD MSTORE SWAP6 SWAP5 POP POP POP POP POP JUMP JUMPDEST DUP4 DUP2 MSTORE DUP3 PUSH1 0x20 DUP3 ADD MSTORE PUSH1 0x60 PUSH1 0x40 DUP3 ADD MSTORE PUSH1 0x0 PUSH2 0x37A3 PUSH1 0x60 DUP4 ADD DUP5 PUSH2 0x5048 JUMP JUMPDEST SWAP3 DUP4 MSTORE PUSH1 0x20 DUP4 ADD SWAP2 SWAP1 SWAP2 MSTORE PUSH1 0x40 DUP3 ADD MSTORE PUSH1 0x60 ADD SWAP1 JUMP JUMPDEST DUP8 DUP2 MSTORE PUSH1 0x20 DUP2 ADD DUP8 SWAP1 MSTORE PUSH1 0x40 DUP2 ADD DUP7 SWAP1 MSTORE PUSH1 0xE0 DUP2 ADD PUSH2 0x5456 PUSH1 0x60 DUP4 ADD DUP8 PUSH2 0x5074 JUMP JUMPDEST PUSH1 0x80 DUP3 ADD SWAP5 SWAP1 SWAP5 MSTORE PUSH1 0x1 PUSH1 0x1 PUSH1 0xA0 SHL SUB SWAP3 DUP4 AND PUSH1 0xA0 DUP3 ADD MSTORE SWAP2 AND PUSH1 0xC0 SWAP1 SWAP2 ADD MSTORE SWAP5 SWAP4 POP POP POP POP JUMP JUMPDEST PUSH1 0x0 DUP3 NOT DUP3 GT ISZERO PUSH2 0x5491 JUMPI PUSH2 0x5491 PUSH2 0x5675 JUMP JUMPDEST POP ADD SWAP1 JUMP JUMPDEST PUSH1 0x0 DUP3 PUSH2 0x54A5 JUMPI PUSH2 0x54A5 PUSH2 0x568B JUMP JUMPDEST POP DIV SWAP1 JUMP JUMPDEST PUSH1 0x1 DUP2 DUP2 JUMPDEST DUP1 DUP6 GT ISZERO PUSH2 0x54E5 JUMPI DUP2 PUSH1 0x0 NOT DIV DUP3 GT ISZERO PUSH2 0x54CB JUMPI PUSH2 0x54CB PUSH2 0x5675 JUMP JUMPDEST DUP1 DUP6 AND ISZERO PUSH2 0x54D8 JUMPI SWAP2 DUP2 MUL SWAP2 JUMPDEST SWAP4 DUP5 SHR SWAP4 SWAP1 DUP1 MUL SWAP1 PUSH2 0x54AF JUMP JUMPDEST POP SWAP3 POP SWAP3 SWAP1 POP JUMP JUMPDEST PUSH1 0x0 PUSH2 0x2B62 PUSH1 0xFF DUP5 AND DUP4 PUSH1 0x0 DUP3 PUSH2 0x5506 JUMPI POP PUSH1 0x1 PUSH2 0x13DD JUMP JUMPDEST DUP2 PUSH2 0x5513 JUMPI POP PUSH1 0x0 PUSH2 0x13DD JUMP JUMPDEST DUP2 PUSH1 0x1 DUP2 EQ PUSH2 0x5529 JUMPI PUSH1 0x2 DUP2 EQ PUSH2 0x5533 JUMPI PUSH2 0x554F JUMP JUMPDEST PUSH1 0x1 SWAP2 POP POP PUSH2 0x13DD JUMP JUMPDEST PUSH1 0xFF DUP5 GT ISZERO PUSH2 0x5544 JUMPI PUSH2 0x5544 PUSH2 0x5675 JUMP JUMPDEST POP POP PUSH1 0x1 DUP3 SHL PUSH2 0x13DD JUMP JUMPDEST POP PUSH1 0x20 DUP4 LT PUSH2 0x133 DUP4 LT AND PUSH1 0x4E DUP5 LT PUSH1 0xB DUP5 LT AND OR ISZERO PUSH2 0x5572 JUMPI POP DUP2 DUP2 EXP PUSH2 0x13DD JUMP JUMPDEST PUSH2 0x557C DUP4 DUP4 PUSH2 0x54AA JUMP JUMPDEST DUP1 PUSH1 0x0 NOT DIV DUP3 GT ISZERO PUSH2 0x5590 JUMPI PUSH2 0x5590 PUSH2 0x5675 JUMP JUMPDEST MUL SWAP4 SWAP3 POP POP POP JUMP JUMPDEST PUSH1 0x0 DUP2 PUSH1 0x0 NOT DIV DUP4 GT DUP3 ISZERO ISZERO AND ISZERO PUSH2 0x55B2 JUMPI PUSH2 0x55B2 PUSH2 0x5675 JUMP JUMPDEST POP MUL SWAP1 JUMP JUMPDEST PUSH1 0x0 DUP3 DUP3 LT ISZERO PUSH2 0x55C9 JUMPI PUSH2 0x55C9 PUSH2 0x5675 JUMP JUMPDEST POP SUB SWAP1 JUMP JUMPDEST PUSH1 0x0 JUMPDEST DUP4 DUP2 LT ISZERO PUSH2 0x55E9 JUMPI DUP2 DUP2 ADD MLOAD DUP4 DUP3 ADD MSTORE PUSH1 0x20 ADD PUSH2 0x55D1 JUMP JUMPDEST DUP4 DUP2 GT ISZERO PUSH2 0x27D5 JUMPI POP POP PUSH1 0x0 SWAP2 ADD MSTORE JUMP JUMPDEST PUSH1 0x0 DUP2 PUSH2 0x5609 JUMPI PUSH2 0x5609 PUSH2 0x5675 JUMP JUMPDEST POP PUSH1 0x0 NOT ADD SWAP1 JUMP JUMPDEST PUSH1 0x1 DUP2 DUP2 SHR SWAP1 DUP3 AND DUP1 PUSH2 0x5625 JUMPI PUSH1 0x7F DUP3 AND SWAP2 POP JUMPDEST PUSH1 0x20 DUP3 LT DUP2 EQ ISZERO PUSH2 0x14B4 JUMPI PUSH4 0x4E487B71 PUSH1 0xE0 SHL PUSH1 0x0 MSTORE PUSH1 0x22 PUSH1 0x4 MSTORE PUSH1 0x24 PUSH1 0x0 REVERT JUMPDEST PUSH1 0x0 PUSH1 0x0 NOT DUP3 EQ ISZERO PUSH2 0x565A JUMPI PUSH2 0x565A PUSH2 0x5675 JUMP JUMPDEST POP PUSH1 0x1 ADD SWAP1 JUMP JUMPDEST PUSH1 0x0 DUP3 PUSH2 0x5670 JUMPI PUSH2 0x5670 PUSH2 0x568B JUMP JUMPDEST POP MOD SWAP1 JUMP JUMPDEST PUSH4 0x4E487B71 PUSH1 0xE0 SHL PUSH1 0x0 MSTORE PUSH1 0x11 PUSH1 0x4 MSTORE PUSH1 0x24 PUSH1 0x0 REVERT JUMPDEST PUSH4 0x4E487B71 PUSH1 0xE0 SHL PUSH1 0x0 MSTORE PUSH1 0x12 PUSH1 0x4 MSTORE PUSH1 0x24 PUSH1 0x0 REVERT JUMPDEST PUSH4 0x4E487B71 PUSH1 0xE0 SHL PUSH1 0x0 MSTORE PUSH1 0x21 PUSH1 0x4 MSTORE PUSH1 0x24 PUSH1 0x0 REVERT JUMPDEST PUSH4 0x4E487B71 PUSH1 0xE0 SHL PUSH1 0x0 MSTORE PUSH1 0x41 PUSH1 0x4 MSTORE PUSH1 0x24 PUSH1 0x0 REVERT JUMPDEST PUSH1 0x1 PUSH1 0x1 PUSH1 0xA0 SHL SUB DUP2 AND DUP2 EQ PUSH2 0x17E7 JUMPI PUSH1 0x0 DUP1 REVERT JUMPDEST DUP1 ISZERO ISZERO DUP2 EQ PUSH2 0x17E7 JUMPI PUSH1 0x0 DUP1 REVERT JUMPDEST PUSH1 0x1 PUSH1 0x1 PUSH1 0xE0 SHL SUB NOT DUP2 AND DUP2 EQ PUSH2 0x17E7 JUMPI PUSH1 0x0 DUP1 REVERT INVALID PUSH9 0x747470733A2F2F6761 PUSH21 0x657761792E70696E6174612E636C6F75642F697066 PUSH20 0x2FDDF252AD1BE2C89B69C2B068FC378DAA952BA7 CALL PUSH4 0xC4A11628 CREATE2 GAS 0x4D CREATE2 0x23 0xB3 0xEF DUP3 GASPRICE CALLVALUE RETURNDATASIZE SHR DUP10 SWAP15 PUSH2 0xA4DB SLT 0x24 PUSH23 0x36A6882BF1FEFAE78BEF39170F8D0F5B53E456A2646970 PUSH7 0x7358221220117B 0xD7 INVALID 0xAB BLOCKHASH CALLCODE 0x1F SWAP7 DUP9 0xD9 PUSH6 0xBFF61D1EDF16 DUP13 GASLIMIT SMOD EXTCODECOPY 0xC4 PUSH31 0x8537EBE00C17B39364736F6C63430008040033000000000000000000000000 ","sha1":"bdcc55972eb0b197008eeafc00f282ee3a4d6c9b","source":"pragma solidity ^0.8.0;\n\n// SPDX-License-Identifier: BUSL-1.1\n\nimport \"@openzeppelin/contracts/access/Ownable.sol\";\nimport \"@openzeppelin/contracts/security/ReentrancyGuard.sol\";\nimport \"@openzeppelin/contracts/token/ERC20/ERC20.sol\";\nimport \"../OptionsUtils/OptionConfigUnintialized.sol\";\nimport \"..//OptionsUtils/BufferNFTCore.sol\";\nimport \"../Pool/BufferEpocPoolV2Unintialized.sol\";\nimport \"../Libraries/OptionFeeCalculator.sol\";\n\n/**\n * @author Heisenberg\n * @title Buffer TokenX Bidirectional (Call and Put) Options\n * @notice Buffer TokenX Options Contract\n */\ncontract BufferPhysicallySettledAmericanOptions is\n    IBufferOptions,\n    Ownable,\n    ReentrancyGuard,\n    BufferNFTCore\n{\n    ERC20 public stableCoin;\n    mapping(uint256 => string) private _tokenURIs;\n    IPriceProvider public priceProvider; // Gives pool's tokenX price in stable coin\n    OptionType public fixedOptionType = OptionType.Call;\n    uint256 public nextTokenId = 0;\n    mapping(uint256 => Option) public options;\n    BufferEpocPoolV2Unintialized public pool;\n    OptionConfigUnintialized public config;\n    mapping(uint256 => SlotDetail) public slotDetails;\n\n    uint256 internal contractCreationTimestamp;\n\n    uint256 public constant minimumYield = 5;\n\n    constructor(\n        ERC20 _stableCoin,\n        IPriceProvider pp,\n        BufferEpocPoolV2Unintialized _pool,\n        OptionConfigUnintialized _config\n    ) {\n        stableCoin = _stableCoin;\n        pool = _pool;\n        contractCreationTimestamp = block.timestamp;\n        config = _config;\n        priceProvider = pp;\n        _setupRole(DEFAULT_ADMIN_ROLE, msg.sender);\n    }\n\n    /************************************************\n     *  OPTIONS CORE\n     ***********************************************/\n    /**\n     * @notice Creates a new option\n     * @param amount Option amount in tokenX\n     * @param metadata Option metadata\n     * @return optionID Created option's ID\n     */\n    function create(uint256 amount, string memory metadata)\n        external\n        nonReentrant\n        returns (uint256 optionID)\n    {\n        require(\n            pool.isInitialized() && config.isInitialized(),\n            \"Initialization pending\"\n        );\n        uint256 poolExpiration = pool.fixedExpiry();\n        require(poolExpiration > block.timestamp, \"O1\");\n        uint256 period = poolExpiration - block.timestamp;\n\n        require(period >= 12 hours, \"O1\");\n\n        (uint256 totalFee, uint256 settlementFee, uint256 premium) = fees(\n            period,\n            amount,\n            config.fixedStrike(),\n            fixedOptionType\n        );\n\n        require(\n            totalFee * 365 days * 100 > amount * period * minimumYield,\n            \"O2\"\n        );\n\n        uint256 currentPrice = priceProvider.getUsdPrice();\n        uint256 tokenXDecimals = 10**(ERC20(pool.tokenX()).decimals());\n\n        if (msg.sender != pool.projectOwner()) {\n            // User has to approve first inorder to execute this function\n            bool success = stableCoin.transferFrom(\n                msg.sender,\n                address(this),\n                (totalFee * currentPrice * (10**stableCoin.decimals())) /\n                    (tokenXDecimals * 1e8)\n            );\n            require(success, \"O3\");\n        }\n\n        Option memory option = Option(\n            State.Active,\n            config.fixedStrike(),\n            amount,\n            amount,\n            premium,\n            block.timestamp + period,\n            fixedOptionType\n        );\n        optionID = _generateTokenId();\n\n        _setOption(optionID, option);\n        _mint(\n            optionID,\n            msg.sender,\n            createSlot(\n                optionID,\n                option.strike,\n                option.expiration,\n                fixedOptionType\n            )\n        );\n        _setTokenURI(optionID, metadata);\n        _lock(optionID, option.lockedAmount, option.premium);\n\n        if (msg.sender != pool.projectOwner()) {\n            stableCoin.transfer(\n                pool.projectOwner(),\n                (premium * currentPrice * (10**stableCoin.decimals())) /\n                    (tokenXDecimals * 1e8)\n            );\n            stableCoin.transfer(\n                owner(),\n                (settlementFee * currentPrice * (10**stableCoin.decimals())) /\n                    (tokenXDecimals * 1e8)\n            );\n            emit PayAdminFee(owner(), settlementFee);\n        }\n\n        emit Create(optionID, msg.sender, settlementFee, totalFee, metadata);\n    }\n\n    function _modifyOption(\n        uint256 optionID,\n        Option memory option,\n        uint256 lockedAmount,\n        uint256 amount,\n        uint256 premium\n    ) internal returns (Option memory modifiedOption) {\n        option.lockedAmount = lockedAmount;\n        option.amount = amount;\n        option.premium = premium;\n        modifiedOption = option;\n        _setOption(optionID, option);\n    }\n\n    function _lock(\n        uint256 id,\n        uint256 lockedAmount,\n        uint256 premium\n    ) internal {\n        pool.lock(id, lockedAmount, premium);\n    }\n\n    /**\n     * @notice Unlock funds locked in the expired options\n     * @param optionID ID of the option\n     */\n    function unlock(uint256 optionID) public {\n        Option storage option = options[optionID];\n        require(option.expiration < block.timestamp, \"O4\");\n        require(option.state == State.Active, \"O5\");\n        option.state = State.Expired;\n        pool.unlock(optionID);\n        // Burn the option\n        burnToken(optionID);\n        emit Expire(optionID, option.premium);\n    }\n\n    /**\n     * @notice Unlocks an array of options\n     * @param optionIDs array of options\n     */\n    function unlockAll(uint256[] calldata optionIDs) external {\n        uint256 arrayLength = optionIDs.length;\n        for (uint256 i = 0; i < arrayLength; i++) {\n            unlock(optionIDs[i]);\n        }\n    }\n\n    /**\n     * @notice Exercises an active option\n     * @param optionID ID of your option\n     */\n    function exercise(uint256 optionID) external returns (uint256 profit) {\n        address tokenOwner = ownerOf(optionID);\n        require(msg.sender == tokenOwner, \"O12\");\n\n        Option storage option = options[optionID];\n\n        require(option.expiration >= block.timestamp, \"O13\");\n        require(option.state == State.Active, \"O14\");\n\n        uint256 currentPrice = priceProvider.getUsdPrice();\n        if (option.optionType == OptionType.Call) {\n            require(option.strike <= currentPrice, \"O6\");\n        } else {\n            require(option.strike >= currentPrice, \"O7\");\n        }\n        uint256 tokenXDecimals = 10**(ERC20(pool.tokenX()).decimals());\n        uint256 amountToPay = (option.strike *\n            option.amount *\n            (10**stableCoin.decimals())) / (tokenXDecimals * 1e8);\n        if (msg.sender != pool.projectOwner()) {\n            // User has to approve first inorder to execute this function\n            bool success = stableCoin.transferFrom(\n                msg.sender,\n                address(this),\n                amountToPay\n            );\n            require(success, \"O3\");\n            stableCoin.transfer(pool.projectOwner(), amountToPay);\n        }\n        pool.send(optionID, ownerOf(optionID), option.lockedAmount);\n\n        // Burn the option\n        burnToken(optionID);\n        option.state = State.Exercised;\n        emit Exercise(optionID, profit);\n    }\n\n    /**\n     * @notice Used for getting the actual options prices in pool's tokenX\n     * @param period Option period in seconds (1 days <= period <= 4 weeks)\n     * @param amount Option amount\n     * @param strike Strike price of the option\n     * @param optionType call/put\n     * @return total Total price to be paid\n     * @return settlementFee Amount to be distributed to the Buffer token holders\n     * @return premium Amount that covers the price difference in the ITM options\n     */\n    function fees(\n        uint256 period,\n        uint256 amount,\n        uint256 strike,\n        OptionType optionType\n    )\n        public\n        view\n        returns (\n            uint256 total,\n            uint256 settlementFee,\n            uint256 premium\n        )\n    {\n        uint256 currentPrice = priceProvider.getUsdPrice();\n\n        (total, settlementFee, premium) = FeeCalculator.fees(\n            period,\n            amount,\n            strike,\n            optionType,\n            currentPrice,\n            config,\n            pool\n        );\n    }\n\n    function _generateTokenId() internal returns (uint256) {\n        return nextTokenId++;\n    }\n\n    function _getOption(uint256 optionID)\n        internal\n        view\n        returns (Option memory)\n    {\n        return options[optionID];\n    }\n\n    function _setOption(uint256 optionID, Option memory option) internal {\n        options[optionID] = option;\n    }\n\n    function burn(uint256 tokenId_) external {\n        require(msg.sender == ownerOf(tokenId_), \"O9\");\n        burnToken(tokenId_);\n    }\n\n    /************************************************\n     *  ERC3525 Functions\n     ***********************************************/\n\n    /**\n     * @notice Splits the option\n     * @param optionID OptionId to be splitted\n     * @param splitUnits_ Units to be splitted into\n     * @return newOptionIDs An array of the splitted options\n     */\n    function split(uint256 optionID, uint256[] calldata splitUnits_)\n        external\n        returns (uint256[] memory newOptionIDs)\n    {\n        require(splitUnits_.length > 0, \"N1\");\n        newOptionIDs = new uint256[](splitUnits_.length);\n        Option memory option = _getOption(optionID);\n        uint256 totalUnits = unitsInToken(optionID);\n        uint256 totalChildAmount;\n        uint256 totalChildLockedAmount;\n        uint256 totalChildPremium;\n        // Create child options\n        for (uint256 i = 0; i < splitUnits_.length; i++) {\n            uint256 newOptionID = _generateTokenId();\n            newOptionIDs[i] = newOptionID;\n\n            _split(optionID, newOptionID, splitUnits_[i]);\n\n            uint256 childAmount = (option.amount * splitUnits_[i]) / totalUnits;\n            totalChildAmount += childAmount;\n\n            uint256 childLockedAmount = (option.lockedAmount * splitUnits_[i]) /\n                totalUnits;\n            totalChildLockedAmount += childLockedAmount;\n\n            uint256 childPremium = (option.premium * splitUnits_[i]) /\n                totalUnits;\n            totalChildPremium += childPremium;\n\n            Option memory newOption = Option(\n                option.state,\n                option.strike,\n                childAmount,\n                childLockedAmount,\n                childPremium,\n                option.expiration,\n                option.optionType\n            );\n            _setOption(newOptionID, newOption);\n        }\n        // Modify the parent option once all child options are created\n        option = _modifyOption(\n            optionID,\n            option,\n            option.lockedAmount - totalChildLockedAmount,\n            option.amount - totalChildAmount,\n            option.premium - totalChildPremium\n        );\n        pool.changeLock(optionID, option.lockedAmount, option.premium);\n\n        // Lock the amount in the pool for the child options\n        for (uint256 i = 0; i < splitUnits_.length; i++) {\n            Option memory newOption = _getOption(newOptionIDs[i]);\n            _lock(newOptionIDs[i], newOption.lockedAmount, newOption.premium);\n        }\n    }\n\n    /**\n     * @notice Merges the options\n     * @param optionIDs An array of the optionsIds to be merged\n     * @param targetOptionID OptionId to be merged into\n     */\n    function merge(uint256[] calldata optionIDs, uint256 targetOptionID)\n        external\n    {\n        require(optionIDs.length > 0, \"N4\");\n        Option memory targetOption = _getOption(targetOptionID);\n\n        uint256 totalLockedAmount = targetOption.lockedAmount;\n        uint256 totalAmount = targetOption.amount;\n        uint256 totalPremium = targetOption.premium;\n\n        for (uint256 i = 0; i < optionIDs.length; i++) {\n            Option memory option = _getOption(optionIDs[i]);\n            totalLockedAmount = totalLockedAmount + option.lockedAmount;\n            totalAmount = totalAmount + option.amount;\n            totalPremium = totalPremium + option.premium;\n            pool.unlockWithoutProfit(optionIDs[i]);\n            _merge(optionIDs[i], targetOptionID);\n        }\n        _modifyOption(\n            targetOptionID,\n            targetOption,\n            totalLockedAmount,\n            totalAmount,\n            totalPremium\n        );\n        pool.changeLock(targetOptionID, totalLockedAmount, totalPremium);\n    }\n\n    /**\n     * @notice Transfer part of units of a option to another option.\n     * @param optionID Id of the option to transfer\n     * @param transferUnits_ Amount of units to transfer\n     */\n    function _beforeTransferFrom(uint256 optionID, uint256 transferUnits_)\n        internal\n        returns (\n            uint256 newAmount,\n            uint256 newPremium,\n            uint256 newLockedAmount,\n            Option memory option\n        )\n    {\n        option = _getOption(optionID);\n        uint256 totalUnits = unitsInToken(optionID);\n        newAmount = (option.amount * transferUnits_) / totalUnits;\n        newPremium = (option.premium * transferUnits_) / totalUnits;\n        newLockedAmount = (option.lockedAmount * transferUnits_) / totalUnits;\n\n        option = _modifyOption(\n            optionID,\n            option,\n            option.lockedAmount - newLockedAmount,\n            option.amount - newAmount,\n            option.premium - newPremium\n        );\n        pool.changeLock(optionID, option.lockedAmount, option.premium);\n    }\n\n    /**\n     * @notice Transfer part of units of a option to target address.\n     * @param from_ Address of the option sender\n     * @param to_ Address of the option recipient\n     * @param optionID Id of the option to transfer\n     * @param transferUnits_ Amount of units to transfer\n     */\n    function transferFrom(\n        address from_,\n        address to_,\n        uint256 optionID,\n        uint256 transferUnits_\n    ) external returns (uint256 newOptionID) {\n        newOptionID = _generateTokenId();\n        (\n            uint256 newAmount,\n            uint256 newPremium,\n            uint256 newLockedAmount,\n            Option memory option\n        ) = _beforeTransferFrom(optionID, transferUnits_);\n        Option memory newOption = Option(\n            option.state,\n            option.strike,\n            newAmount,\n            newLockedAmount,\n            newPremium,\n            option.expiration,\n            option.optionType\n        );\n        _setOption(newOptionID, newOption);\n\n        _lock(newOptionID, newLockedAmount, newPremium);\n        _transferUnitsFrom(from_, to_, optionID, newOptionID, transferUnits_);\n    }\n\n    /**\n     * @notice Transfer part of units of a option to another option.\n     * @param from_ Address of the option sender\n     * @param to_ Address of the option recipient\n     * @param optionID Id of the option to transfer\n     * @param targetOptionID Id of the option to receive\n     * @param transferUnits_ Amount of units to transfer\n     */\n    function transferFrom(\n        address from_,\n        address to_,\n        uint256 optionID,\n        uint256 targetOptionID,\n        uint256 transferUnits_\n    ) external virtual {\n        require(exists(targetOptionID), \"N12\");\n        (\n            uint256 newAmount,\n            uint256 newPremium,\n            uint256 newLockedAmount,\n\n        ) = _beforeTransferFrom(optionID, transferUnits_);\n        Option memory targetOption = _getOption(targetOptionID);\n        targetOption = _modifyOption(\n            targetOptionID,\n            targetOption,\n            targetOption.lockedAmount + newLockedAmount,\n            targetOption.amount + newAmount,\n            targetOption.premium + newPremium\n        );\n\n        pool.changeLock(\n            targetOptionID,\n            targetOption.lockedAmount,\n            targetOption.premium\n        );\n        _transferUnitsFrom(\n            from_,\n            to_,\n            optionID,\n            targetOptionID,\n            transferUnits_\n        );\n    }\n\n    function createSlot(\n        uint256 optionID,\n        uint256 strike,\n        uint256 expiration,\n        OptionType optionType\n    ) internal returns (uint256 slot) {\n        slot = uint256(\n            keccak256(abi.encode(strike, expiration, optionType, optionID))\n        );\n        require(!slotDetails[slot].isValid, \"N14\");\n        slotDetails[slot] = SlotDetail(strike, expiration, optionType, true);\n    }\n}\n","sourcePath":"contracts/Call Options/BufferPhysicallySettledAmericanOptions.sol","deployment":{"address":"0xAc8b9546Ba18e08bFF4Db8084b48A169c57A1052","chainid":"97","blockHeight":20556511}}