{"bytecode":"60806040526001600d55600e805462ffffff191662010000179055600060148190556015553480156200003157600080fd5b5060405162003332380380620033328339810160408190526200005491620003bc565b604080518082018252600f81526e213ab33332b9102628102a37b5b2b760891b6020808301918252835180850190945260048452633921232960e11b908401528151919291620000a79160039162000316565b508051620000bd90600490602084019062000316565b505050806001600160a01b03166395d89b416040518163ffffffff1660e01b815260040160006040518083038186803b158015620000fa57600080fd5b505afa1580156200010f573d6000803e3d6000fd5b505050506040513d6000823e601f3d908101601f19168201604052620001399190810190620003ec565b6040516020016200014b9190620004cb565b604051602081830303815290604052600690805190602001906200017192919062000316565b50806001600160a01b03166395d89b416040518163ffffffff1660e01b815260040160006040518083038186803b158015620001ac57600080fd5b505afa158015620001c1573d6000803e3d6000fd5b505050506040513d6000823e601f3d908101601f19168201604052620001eb9190810190620003ec565b604051602001620001fd9190620004a0565b604051602081830303815290604052600790805190602001906200022392919062000316565b50601180546001600160a01b03199081166001600160a01b03841617909155600f8054339216821790556200025b9060009062000262565b506200059d565b6200026e828262000272565b5050565b60008281526005602090815260408083206001600160a01b038516845290915290205460ff166200026e5760008281526005602090815260408083206001600160a01b03851684529091529020805460ff19166001179055620002d23390565b6001600160a01b0316816001600160a01b0316837f2f8788117e7eff1d82e926ec794901d17c78024a50270940304540a733656f0d60405160405180910390a45050565b82805462000324906200054a565b90600052602060002090601f01602090048101928262000348576000855562000393565b82601f106200036357805160ff191683800117855562000393565b8280016001018555821562000393579182015b828111156200039357825182559160200191906001019062000376565b50620003a1929150620003a5565b5090565b5b80821115620003a15760008155600101620003a6565b600060208284031215620003ce578081fd5b81516001600160a01b0381168114620003e5578182fd5b9392505050565b600060208284031215620003fe578081fd5b81516001600160401b038082111562000415578283fd5b818401915084601f83011262000429578283fd5b8151818111156200043e576200043e62000587565b604051601f8201601f19908116603f0116810190838211818310171562000469576200046962000587565b8160405282815287602084870101111562000482578586fd5b6200049583602083016020880162000517565b979650505050505050565b603960f91b815260008251620004be81600185016020870162000517565b9190910160010192915050565b6e0213ab33332b91023b2b732b934b19608d1b815260008251620004f781600f85016020870162000517565b68102628102a37b5b2b760b91b600f939091019283015250601801919050565b60005b83811015620005345781810151838201526020016200051a565b8381111562000544576000848401525b50505050565b600181811c908216806200055f57607f821691505b602082108114156200058157634e487b7160e01b600052602260045260246000fd5b50919050565b634e487b7160e01b600052604160045260246000fd5b612d8580620005ad6000396000f3fe608060405234801561001057600080fd5b50600436106102725760003560e01c806301ffc9a71461027757806304c104c41461029f57806306fdde03146102de578063095ea7b3146102f35780630b97bc86146103065780630dbf21b01461031d57806316dc165b1461033257806318160ddd1461035257806321e5e2c41461035a57806323b872dd1461036d578063248a9ca3146103805780632e1a7d4d146103935780632f2ff15d146103a6578063313ce567146103b9578063350392b1146103d357806336482e6a1461042f57806336568abe14610442578063392e53cd1461045557806339509351146104675780634dbac7331461047a5780635572e0d91461048357806357a5c967146104965780636198e339146104a95780636ab28bc8146104bc57806370a08231146104c557806370c0345c146104d8578063797be55e146104e157806380d85911146104ea57806381b34f15146104fd5780638a19c8bc146105105780638da5cb5b1461051957806391d148541461052c57806395d89b411461053f578063a217fddf14610547578063a2416f741461054f578063a3d887fd14610562578063a4475ce41461056b578063a457c2d714610585578063a834069b14610598578063a9059cbb146105a1578063ab2f0e51146105b4578063b9cfe348146105bc578063be62da0e146105ec578063d547741f14610601578063d7fb29d614610614578063d9ac10d914610627578063dacdc8da1461062f578063dd62ed3e1461063c578063e8c3c54f14610675578063ec277a6614610688578063edd0d4211461069d578063f4ab7966146106b0578063f6d16102146106c3578063fbcd9b051461047a575b600080fd5b61028a61028536600461291f565b6106cc565b60405190151581526020015b60405180910390f35b6102c96102ad3660046127fd565b6013602052600090815260409020805460019091015460ff1682565b60408051928352901515602083015201610296565b6102e6610703565b6040516102969190612a8c565b61028a610301366004612884565b610795565b61030f600c5481565b604051908152602001610296565b61033061032b3660046128e5565b6107ab565b005b601154610345906001600160a01b031681565b6040516102969190612a5f565b60025461030f565b61030f6103683660046127fd565b6107b8565b61028a61037b366004612849565b6107fb565b61030f61038e3660046128e5565b6108aa565b6103306103a13660046128e5565b6108bf565b6103306103b43660046128fd565b610995565b6103c16109b7565b60405160ff9091168152602001610296565b61040b6103e13660046128e5565b6012602052600090815260409020805460018201546002909201549091906001600160a01b031683565b6040805193845260208401929092526001600160a01b031690820152606001610296565b61033061043d3660046128ad565b610a39565b6103306104503660046128fd565b610aa1565b600e5461028a90610100900460ff1681565b61028a610475366004612884565b610b1b565b61030f6103e881565b6103306104913660046128e5565b610b57565b6103306104a43660046129a4565b610d29565b6103306104b73660046128e5565b610df2565b61030f60085481565b61030f6104d33660046127fd565b610e2b565b61030f600a5481565b61030f60095481565b6103306104f83660046129a4565b610e46565b61033061050b36600461295f565b610f19565b61030f600d5481565b600f54610345906001600160a01b031681565b61028a61053a3660046128fd565b61116d565b6102e6611198565b61030f600081565b61033061055d3660046127fd565b6111a7565b61030f60145481565b600e5461034590630100000090046001600160a01b031681565b61028a610593366004612884565b61121f565b61030f600b5481565b61028a6105af366004612884565b6112b8565b61030f6112c5565b6105cf6105ca366004612884565b6112dc565b604080519384526020840192909252151590820152606001610296565b61030f600080516020612cf083398151915281565b61033061060f3660046128fd565b611321565b610330610622366004612983565b61133e565b61030f61149c565b600e5461028a9060ff1681565b61030f61064a366004612817565b6001600160a01b03918216600090815260016020908152604080832093909416825291909152205490565b61030f610683366004612983565b611521565b61030f600080516020612d1083398151915281565b6103306106ab3660046129a4565b6118d8565b600e5461028a9062010000900460ff1681565b61030f60155481565b60006001600160e01b03198216637965db0b60e01b14806106fd57506301ffc9a760e01b6001600160e01b03198316145b92915050565b60606006805461071290612c2b565b80601f016020809104026020016040519081016040528092919081815260200182805461073e90612c2b565b801561078b5780601f106107605761010080835404028352916020019161078b565b820191906000526020600020905b81548152906001019060200180831161076e57829003601f168201915b5050505050905090565b60006107a2338484611a28565b50600192915050565b6107b481611b4c565b5050565b6000806107c460025490565b11156107f2576002546107d683610e2b565b6107de61149c565b6107e89190612bb2565b6106fd9190612b9e565b5060005b919050565b6000610808848484611c0b565b6001600160a01b0384166000908152600160209081526040808320338452909152902054828110156108925760405162461bcd60e51b815260206004820152602860248201527f45524332303a207472616e7366657220616d6f756e74206578636565647320616044820152676c6c6f77616e636560c01b60648201526084015b60405180910390fd5b61089f8533858403611a28565b506001949350505050565b60009081526005602052604090206001015490565b600e54630100000090046001600160a01b031633146108f05760405162461bcd60e51b815260040161088990612b05565b600e5460ff1615610905576107b48133611dc9565b600e5462010000900460ff1680156109245750600e54610100900460ff165b6109885760405162461bcd60e51b815260206004820152602f60248201527f506f6f6c3a204e6f7420616363657074696e672077697468647261772072657160448201526e75657374732063757272656e746c7960881b6064820152608401610889565b6109928133612049565b50565b61099e826108aa565b6109a881336121fd565b6109b28383612261565b505050565b6011546040805163313ce56760e01b815290516000926001600160a01b03169163313ce567916004808301926020929190829003018186803b1580156109fc57600080fd5b505afa158015610a10573d6000803e3d6000fd5b505050506040513d601f19601f82011682018060405250810190610a3491906129cf565b905090565b600080516020612cf0833981519152610a5281336121fd565b600e805460ff191683151590811790915560405160ff909116151581527f66dcc649b45c6952c1670ec25ef87365aa2dd37383ba36a7696b30b304932d9f906020015b60405180910390a15050565b6001600160a01b0381163314610b115760405162461bcd60e51b815260206004820152602f60248201527f416363657373436f6e74726f6c3a2063616e206f6e6c792072656e6f756e636560448201526e103937b632b9903337b91039b2b63360891b6064820152608401610889565b6107b482826122e7565b3360008181526001602090815260408083206001600160a01b038716845290915281205490916107a2918590610b52908690612b86565b611a28565b600060155482601454610b6a9190612b86565b11610b825781601454610b7d9190612b86565b610b86565b6015545b6014549091505b81811015610cfd57600081815260126020908152604080832060028101546001600160a01b031684526013909252909120600d5460018301541415610c365760405162461bcd60e51b815260206004820152603960248201527f506f6f6c3a2043616e27742070726f6365737320746865207265717565737473604482015278207768656e2074686520726f756e642069732061637469766560381b6064820152608401610889565b81546002830154610c5091906001600160a01b0316611dc9565b50815460028301546040517f54ac4a5d811f70f5cce2fff90e3af1383f24319f7366866408898370416057b492610c949290916001600160a01b0390911690612b6f565b60405180910390a160008381526012602052604081208181556001808201839055600290910180546001600160a01b03191690558183558201805460ff191690556014805491610ce383612c66565b919050555050508080610cf590612c66565b915050610b8d565b5060155460145414156107b45760006014819055601555600e805462ff00001916620100001790555050565b600080516020612d10833981519152610d4281336121fd565b336000908152601060205260408120805486908110610d7157634e487b7160e01b600052603260045260246000fd5b60009182526020909120600390910201600281015490915060ff16610da85760405162461bcd60e51b815260040161088990612abf565b828160010154600954610dbb9190612bd1565b610dc59190612b86565b60095580546008548591610dd891612bd1565b610de29190612b86565b6008556001810192909255505550565b6000610dfd82611b4c565b905081600080516020612cd083398151915282604051610e1f91815260200190565b60405180910390a25050565b6001600160a01b031660009081526020819052604090205490565b600080516020612cf0833981519152610e5f81336121fd565b600e54610100900460ff1615610eb35760405162461bcd60e51b8152602060048201526019602482015278141bdbdb0e88105b1c9958591e481a5b9a5d1a585b1a5e9959603a1b6044820152606401610889565b610ebc8461234e565b610ec583612381565b600e805461ff001916610100179055600c8290556040517fc43e48cf47e9fa186d0f4096c61d1fcb54159799f935a2aa32e5589688ee36e190610f0b9085815260200190565b60405180910390a150505050565b600080516020612d10833981519152610f3281336121fd565b336000908152601060205260408120805486908110610f6157634e487b7160e01b600052603260045260246000fd5b60009182526020909120600390910201600281015490915060ff16610f985760405162461bcd60e51b815260040161088990612abf565b6001600160a01b038416610fab57600080fd5b60028101805460ff191690556001810154600954610fc99190612bd1565b6009558054600854610fdb9190612bd1565b60085580546000908411610fef5783610ff2565b81545b60115460405163a9059cbb60e01b81529192506000916001600160a01b039091169063a9059cbb9061102a9089908690600401612a73565b602060405180830381600087803b15801561104457600080fd5b505af1158015611058573d6000803e3d6000fd5b505050506040513d601f19601f8201168201806040525081019061107c91906128c9565b9050806110df5760405162461bcd60e51b815260206004820152602b60248201527f506f6f6c3a20546865205061796f7574207472616e73666572206469646e277460448201526a040cede40e8d0e4deeaced60ab1b6064820152608401610889565b826001015482116111205786600080516020612cd083398151915283856001015461110a9190612bd1565b60405190815260200160405180910390a2611164565b867f86f83f021a5ecb92d6dcaec11be9da0e65b5401ce748ac3c1f0ddbae029f55ce8460010154846111529190612bd1565b60405190815260200160405180910390a25b50505050505050565b60009182526005602090815260408084206001600160a01b0393909316845291905290205460ff1690565b60606007805461071290612c2b565b60006111b381336121fd565b6111cb600080516020612cf083398151915283610995565b600e80546301000000600160b81b03191663010000006001600160a01b038516021790556040517fb36db503700bf425dc3b747b57da91cb2e39a0d909ada3206bd18b034d7053ca90610a95908490612a5f565b3360009081526001602090815260408083206001600160a01b0386168452909152812054828110156112a15760405162461bcd60e51b815260206004820152602560248201527f45524332303a2064656372656173656420616c6c6f77616e63652062656c6f77604482015264207a65726f60d81b6064820152608401610889565b6112ae3385858403611a28565b5060019392505050565b60006107a2338484611c0b565b60006008546112d261149c565b610a349190612bd1565b601060205281600052604060002081815481106112f857600080fd5b600091825260209091206003909102018054600182015460029092015490935090915060ff1683565b61132a826108aa565b61133481336121fd565b6109b283836122e7565b600080516020612cf083398151915261135781336121fd565b600b5442116113bd5760405162461bcd60e51b815260206004820152602c60248201527f506f6f6c3a2043616e277420726f6c6c206f766572206265666f72652074686560448201526b2065787069727920656e647360a01b6064820152608401610889565b6008541580156113cd5750600954155b61142d5760405162461bcd60e51b815260206004820152602b60248201527f506f6f6c3a2043757272656e7420726f756e64206861736e277420656e64656460448201526a20636f6d706c6574656c7960a81b6064820152608401610889565b61143683612381565b61143f8261234e565b600d805490600061144f83612c66565b9091555050600e805462ff000019169055600d546040519081527fb7d59f17fd712066f944b068e5f63958fb182dab57679a35484f59e033361e5b906020015b60405180910390a1505050565b6009546011546040516370a0823160e01b8152600092916001600160a01b0316906370a08231906114d1903090600401612a5f565b60206040518083038186803b1580156114e957600080fd5b505afa1580156114fd573d6000803e3d6000fd5b505050506040513d601f19601f820116820180604052508101906112d29190612947565b6000600c54421161156c5760405162461bcd60e51b8152602060048201526015602482015274141bdbdb0e88139bdd081cdd185c9d1959081e595d605a1b6044820152606401610889565b600e5460ff16156115b55760405162461bcd60e51b8152602060048201526013602482015272141bdbdb0e88105b1c9958591e48195b991959606a1b6044820152606401610889565b600e54630100000090046001600160a01b031633146115e65760405162461bcd60e51b815260040161088990612b05565b60006115f160025490565b6011546040516370a0823160e01b81529192506000916001600160a01b03909116906370a0823190611627903090600401612a5f565b60206040518083038186803b15801561163f57600080fd5b505afa158015611653573d6000803e3d6000fd5b505050506040513d601f19601f820116820180604052508101906116779190612947565b600a549091506116878683612b86565b11156116eb5760405162461bcd60e51b815260206004820152602d60248201527f506f6f6c3a20506f6f6c2068617320616c72656164792072656163686564206960448201526c1d09dcc81b585e081b1a5b5a5d609a1b6064820152608401610889565b6000821180156116fb5750600081115b1561171c578061170b8387612bb2565b6117159190612b9e565b925061172b565b6117286103e886612bb2565b92505b8383101561177b5760405162461bcd60e51b815260206004820152601d60248201527f506f6f6c3a204d696e74206c696d697420697320746f6f206c617267650000006044820152606401610889565b6000831161179b5760405162461bcd60e51b815260040161088990612b3c565b6011546040516323b872dd60e01b8152336004820152306024820152604481018790526000916001600160a01b0316906323b872dd90606401602060405180830381600087803b1580156117ee57600080fd5b505af1158015611802573d6000803e3d6000fd5b505050506040513d601f19601f8201168201806040525081019061182691906128c9565b90508061188a5760405162461bcd60e51b815260206004820152602c60248201527f506f6f6c3a205468652050726f76696465207472616e73666572206469646e2760448201526b0e840cede40e8d0e4deeaced60a31b6064820152608401610889565b61189433856123bc565b604080518781526020810186905233917f4089141ea5e4c16575f5ebf65f1786497ea07c175846fc7745ef8d8986a4ff65910160405180910390a250505092915050565b600080516020612d108339815191526118f181336121fd565b3360009081526010602052604090205484146119405760405162461bcd60e51b815260206004820152600e60248201526d141bdbdb0e8815dc9bdb99c81a5960921b6044820152606401610889565b61194861149c565b836008546119569190612b86565b11156119a15760405162461bcd60e51b815260206004820152601a6024820152792837b7b61d1020b6b7bab73a1034b9903a37b7903630b933b29760311b6044820152606401610889565b3360009081526010602090815260408083208151606081018352878152808401878152600193820184815283548086018555938752949095209051600390920201908155925190830155516002909101805460ff1916911515919091179055600954611a0e908390612b86565b600955600854611a1f908490612b86565b60085550505050565b6001600160a01b038316611a8a5760405162461bcd60e51b8152602060048201526024808201527f45524332303a20617070726f76652066726f6d20746865207a65726f206164646044820152637265737360e01b6064820152608401610889565b6001600160a01b038216611aeb5760405162461bcd60e51b815260206004820152602260248201527f45524332303a20617070726f766520746f20746865207a65726f206164647265604482015261737360f01b6064820152608401610889565b6001600160a01b0383811660008181526001602090815260408083209487168084529482529182902085905590518481527f8c5be1e5ebec7d5bd14f71427d1e84f3dd0314c0f7b2291e5b200ac8c7c3b925910160405180910390a3505050565b6000600080516020612d10833981519152611b6781336121fd565b336000908152601060205260408120805485908110611b9657634e487b7160e01b600052603260045260246000fd5b60009182526020909120600390910201600281015490915060ff16611bcd5760405162461bcd60e51b815260040161088990612abf565b60028101805460ff191690556001810154600954611beb9190612bd1565b6009558054600854611bfd9190612bd1565b600855600101549392505050565b6001600160a01b038316611c6f5760405162461bcd60e51b815260206004820152602560248201527f45524332303a207472616e736665722066726f6d20746865207a65726f206164604482015264647265737360d81b6064820152608401610889565b6001600160a01b038216611cd15760405162461bcd60e51b815260206004820152602360248201527f45524332303a207472616e7366657220746f20746865207a65726f206164647260448201526265737360e81b6064820152608401610889565b6001600160a01b03831660009081526020819052604090205481811015611d495760405162461bcd60e51b815260206004820152602660248201527f45524332303a207472616e7366657220616d6f756e7420657863656564732062604482015265616c616e636560d01b6064820152608401610889565b6001600160a01b03808516600090815260208190526040808220858503905591851681529081208054849290611d80908490612b86565b92505081905550826001600160a01b0316846001600160a01b0316600080516020612d3083398151915284604051611dba91815260200190565b60405180910390a35b50505050565b600080611dd46112c5565b11611e355760405162461bcd60e51b815260206004820152602b60248201527f506f6f6c3a204e6f7420656e6f7567682066756e6473206f6e2074686520706f60448201526a1bdb0818dbdb9d1c9858dd60aa1b6064820152608401610889565b6000611e4060025490565b90506000611e4c61149c565b905060008282611e5b87610e2b565b611e659190612bb2565b611e6f9190612b9e565b90506000868210611e805786611e82565b815b9050611e97611e918583612bb2565b84612489565b9450611ea286610e2b565b851115611eed5760405162461bcd60e51b8152602060048201526019602482015278506f6f6c3a20416d6f756e7420697320746f6f206c6172676560381b6044820152606401610889565b60008511611f0d5760405162461bcd60e51b815260040161088990612b3c565b611f1786866124c9565b60115460405163a9059cbb60e01b81526000916001600160a01b03169063a9059cbb90611f4a908a908690600401612a73565b602060405180830381600087803b158015611f6457600080fd5b505af1158015611f78573d6000803e3d6000fd5b505050506040513d601f19601f82011682018060405250810190611f9c91906128c9565b905080611ffa5760405162461bcd60e51b815260206004820152602660248201527f506f6f6c3a20546865205769746864726177616c206469646e277420676f20746044820152650d0e4deeaced60d31b6064820152608401610889565b60408051838152602081018890526001600160a01b038916917ff279e6a1f5e320cca91135676d9cb6e44ca8a08c0b88342bcdb1144f6511b568910160405180910390a2505050505092915050565b600061205482610e2b565b1161209d5760405162461bcd60e51b8152602060048201526019602482015278506f6f6c3a204e6f7468696e6720746f20776974686472617760381b6044820152606401610889565b6001600160a01b0381166000908152601360205260409020600181015460ff16156121405780546000908152601260205260409020600d54600182015414806120e857506001810154155b61212c5760405162461bcd60e51b81526020600482015260156024820152740506f6f6c3a205374617465206c6f636b656420757605c1b6044820152606401610889565b8054612139908590612b86565b90556121cc565b60408051606081018252848152600d5460208083019182526001600160a01b0386811684860190815260158054600090815260129094529583209451855592516001808601919091559251600290940180546001600160a01b031916949091169390931790925582548455838101805460ff19169091179055815491906121c683612c66565b91905055505b7f08e544170e8e5e6c868a252670b8aa06077b96dee38dcbb4b645909db2fb3481838360405161148f929190612b6f565b612207828261116d565b6107b45761221f816001600160a01b03166014612605565b61222a836020612605565b60405160200161223b9291906129f0565b60408051601f198184030181529082905262461bcd60e51b825261088991600401612a8c565b61226b828261116d565b6107b45760008281526005602090815260408083206001600160a01b03851684529091529020805460ff191660011790556122a33390565b6001600160a01b0316816001600160a01b0316837f2f8788117e7eff1d82e926ec794901d17c78024a50270940304540a733656f0d60405160405180910390a45050565b6122f1828261116d565b156107b45760008281526005602090815260408083206001600160a01b0385168085529252808320805460ff1916905551339285917ff6391f5c32d9c69d2a47ea670b442974b53935d1edc7fd64eb21e047a839171b9190a45050565b600a81905560405181907f2138d5b63f1e1fc5996475c0d8565b0f4ce68622680c894db2bfd3ece685d25790600090a250565b600b8190556040518181527f9c73644bcd0a85b158fe496d03c38c93fc8a1f28ed476b2779df681d212534859060200160405180910390a150565b6001600160a01b0382166124125760405162461bcd60e51b815260206004820152601f60248201527f45524332303a206d696e7420746f20746865207a65726f2061646472657373006044820152606401610889565b80600260008282546124249190612b86565b90915550506001600160a01b03821660009081526020819052604081208054839290612451908490612b86565b90915550506040518181526001600160a01b03831690600090600080516020612d308339815191529060200160405180910390a35050565b600080821161249757600080fd5b60006124a38385612b9e565b90506124af8385612c81565b156124c2576124bf816001612b86565b90505b9392505050565b6001600160a01b0382166125295760405162461bcd60e51b815260206004820152602160248201527f45524332303a206275726e2066726f6d20746865207a65726f206164647265736044820152607360f81b6064820152608401610889565b6001600160a01b0382166000908152602081905260409020548181101561259d5760405162461bcd60e51b815260206004820152602260248201527f45524332303a206275726e20616d6f756e7420657863656564732062616c616e604482015261636560f01b6064820152608401610889565b6001600160a01b03831660009081526020819052604081208383039055600280548492906125cc908490612bd1565b90915550506040518281526000906001600160a01b03851690600080516020612d308339815191529060200160405180910390a3505050565b60606000612614836002612bb2565b61261f906002612b86565b6001600160401b0381111561264457634e487b7160e01b600052604160045260246000fd5b6040519080825280601f01601f19166020018201604052801561266e576020820181803683370190505b509050600360fc1b8160008151811061269757634e487b7160e01b600052603260045260246000fd5b60200101906001600160f81b031916908160001a905350600f60fb1b816001815181106126d457634e487b7160e01b600052603260045260246000fd5b60200101906001600160f81b031916908160001a90535060006126f8846002612bb2565b612703906001612b86565b90505b6001811115612797576f181899199a1a9b1b9c1cb0b131b232b360811b85600f166010811061274557634e487b7160e01b600052603260045260246000fd5b1a60f81b82828151811061276957634e487b7160e01b600052603260045260246000fd5b60200101906001600160f81b031916908160001a90535060049490941c9361279081612c14565b9050612706565b5083156124c25760405162461bcd60e51b815260206004820181905260248201527f537472696e67733a20686578206c656e67746820696e73756666696369656e746044820152606401610889565b80356001600160a01b03811681146107f657600080fd5b60006020828403121561280e578081fd5b6124c2826127e6565b60008060408385031215612829578081fd5b612832836127e6565b9150612840602084016127e6565b90509250929050565b60008060006060848603121561285d578081fd5b612866846127e6565b9250612874602085016127e6565b9150604084013590509250925092565b60008060408385031215612896578182fd5b61289f836127e6565b946020939093013593505050565b6000602082840312156128be578081fd5b81356124c281612cc1565b6000602082840312156128da578081fd5b81516124c281612cc1565b6000602082840312156128f6578081fd5b5035919050565b6000806040838503121561290f578182fd5b82359150612840602084016127e6565b600060208284031215612930578081fd5b81356001600160e01b0319811681146124c2578182fd5b600060208284031215612958578081fd5b5051919050565b600080600060608486031215612973578283fd5b83359250612874602085016127e6565b60008060408385031215612995578182fd5b50508035926020909101359150565b6000806000606084860312156129b8578283fd5b505081359360208301359350604090920135919050565b6000602082840312156129e0578081fd5b815160ff811681146124c2578182fd5b76020b1b1b2b9b9a1b7b73a3937b61d1030b1b1b7bab73a1604d1b815260008351612a22816017850160208801612be8565b7001034b99036b4b9b9b4b733903937b6329607d1b6017918401918201528351612a53816028840160208801612be8565b01602801949350505050565b6001600160a01b0391909116815260200190565b6001600160a01b03929092168252602082015260400190565b6020815260008251806020840152612aab816040850160208701612be8565b601f01601f19169190910160400192915050565b60208082526026908201527f506f6f6c3a206c6f636b6564416d6f756e7420697320616c726561647920756e6040820152651b1bd8dad95960d21b606082015260800190565b6020808252601f908201527f506f6f6c3a20596f7520646f6e27742068617665207468652061636365737300604082015260600190565b602080825260199082015278141bdbdb0e88105b5bdd5b9d081a5cc81d1bdbc81cdb585b1b603a1b604082015260600190565b9182526001600160a01b0316602082015260400190565b60008219821115612b9957612b99612c95565b500190565b600082612bad57612bad612cab565b500490565b6000816000190483118215151615612bcc57612bcc612c95565b500290565b600082821015612be357612be3612c95565b500390565b60005b83811015612c03578181015183820152602001612beb565b83811115611dc35750506000910152565b600081612c2357612c23612c95565b506000190190565b600181811c90821680612c3f57607f821691505b60208210811415612c6057634e487b7160e01b600052602260045260246000fd5b50919050565b6000600019821415612c7a57612c7a612c95565b5060010190565b600082612c9057612c90612cab565b500690565b634e487b7160e01b600052601160045260246000fd5b634e487b7160e01b600052601260045260246000fd5b801515811461099257600080fdfe9f78baa7a8e3640efadcbedc2d00f5930ade7a7bb66038dbf88684d49972957a770fadb28e0e3026382976ee8b810cb0eb8666922148dd9e10b20cfb9b477ba802b0c433c31e2b44fbbb341ca2a1a7c86f98b5158b42b073f63efe02d35ea89fddf252ad1be2c89b69c2b068fc378daa952ba7f163c4a11628f55a4df523b3efa2646970667358221220a91edd53bf21c13a87b4186be067d405e468ab93d2712923f4485eab54c6f45364736f6c63430008040033","bytecodeSha1":"c87d0df17bf054a55e941c8bc59e5ae734d44e2e","type":"contract","abi":[{"inputs":[{"internalType":"contract ERC20","name":"_tokenX","type":"address"}],"stateMutability":"nonpayable","type":"constructor","name":"constructor"},{"anonymous":false,"inputs":[{"indexed":true,"internalType":"address","name":"owner","type":"address"},{"indexed":true,"internalType":"address","name":"spender","type":"address"},{"indexed":false,"internalType":"uint256","name":"value","type":"uint256"}],"name":"Approval","type":"event"},{"anonymous":false,"inputs":[{"indexed":false,"internalType":"uint256","name":"_initialExpiry","type":"uint256"}],"name":"Initialize","type":"event"},{"anonymous":false,"inputs":[{"indexed":false,"internalType":"uint256","name":"tokenXAmount","type":"uint256"},{"indexed":false,"internalType":"address","name":"account","type":"address"}],"name":"InitiateWithdraw","type":"event"},{"anonymous":false,"inputs":[{"indexed":true,"internalType":"uint256","name":"id","type":"uint256"},{"indexed":false,"internalType":"uint256","name":"amount","type":"uint256"}],"name":"Loss","type":"event"},{"anonymous":false,"inputs":[{"indexed":false,"internalType":"uint256","name":"round","type":"uint256"}],"name":"PoolRollOver","type":"event"},{"anonymous":false,"inputs":[{"indexed":false,"internalType":"uint256","name":"tokenXAmount","type":"uint256"},{"indexed":false,"internalType":"address","name":"account","type":"address"}],"name":"ProcessWithdrawRequest","type":"event"},{"anonymous":false,"inputs":[{"indexed":true,"internalType":"uint256","name":"id","type":"uint256"},{"indexed":false,"internalType":"uint256","name":"amount","type":"uint256"}],"name":"Profit","type":"event"},{"anonymous":false,"inputs":[{"indexed":true,"internalType":"address","name":"account","type":"address"},{"indexed":false,"internalType":"uint256","name":"amount","type":"uint256"},{"indexed":false,"internalType":"uint256","name":"writeAmount","type":"uint256"}],"name":"Provide","type":"event"},{"anonymous":false,"inputs":[{"indexed":true,"internalType":"bytes32","name":"role","type":"bytes32"},{"indexed":true,"internalType":"bytes32","name":"previousAdminRole","type":"bytes32"},{"indexed":true,"internalType":"bytes32","name":"newAdminRole","type":"bytes32"}],"name":"RoleAdminChanged","type":"event"},{"anonymous":false,"inputs":[{"indexed":true,"internalType":"bytes32","name":"role","type":"bytes32"},{"indexed":true,"internalType":"address","name":"account","type":"address"},{"indexed":true,"internalType":"address","name":"sender","type":"address"}],"name":"RoleGranted","type":"event"},{"anonymous":false,"inputs":[{"indexed":true,"internalType":"bytes32","name":"role","type":"bytes32"},{"indexed":true,"internalType":"address","name":"account","type":"address"},{"indexed":true,"internalType":"address","name":"sender","type":"address"}],"name":"RoleRevoked","type":"event"},{"anonymous":false,"inputs":[{"indexed":true,"internalType":"address","name":"from","type":"address"},{"indexed":true,"internalType":"address","name":"to","type":"address"},{"indexed":false,"internalType":"uint256","name":"value","type":"uint256"}],"name":"Transfer","type":"event"},{"anonymous":false,"inputs":[{"indexed":false,"internalType":"uint256","name":"expiry","type":"uint256"}],"name":"UpdateExpiry","type":"event"},{"anonymous":false,"inputs":[{"indexed":true,"internalType":"uint256","name":"maxLiquidity","type":"uint256"}],"name":"UpdateMaxLiquidity","type":"event"},{"anonymous":false,"inputs":[{"indexed":false,"internalType":"bool","name":"hasPoolEnded","type":"bool"}],"name":"UpdatePoolState","type":"event"},{"anonymous":false,"inputs":[{"indexed":false,"internalType":"address","name":"account","type":"address"}],"name":"UpdateProjectOwner","type":"event"},{"anonymous":false,"inputs":[{"indexed":true,"internalType":"address","name":"account","type":"address"},{"indexed":false,"internalType":"bool","name":"value","type":"bool"}],"name":"UpdateRevertTransfersInLockUpPeriod","type":"event"},{"anonymous":false,"inputs":[{"indexed":true,"internalType":"address","name":"account","type":"address"},{"indexed":false,"internalType":"uint256","name":"amount","type":"uint256"},{"indexed":false,"internalType":"uint256","name":"writeAmount","type":"uint256"}],"name":"Withdraw","type":"event"},{"inputs":[],"name":"ACCURACY","outputs":[{"internalType":"uint256","name":"","type":"uint256"}],"stateMutability":"view","type":"function"},{"inputs":[{"internalType":"address","name":"","type":"address"}],"name":"AddressToWithdrawRequest","outputs":[{"internalType":"uint256","name":"requestIndex","type":"uint256"},{"internalType":"bool","name":"exists","type":"bool"}],"stateMutability":"view","type":"function"},{"inputs":[],"name":"DEFAULT_ADMIN_ROLE","outputs":[{"internalType":"bytes32","name":"","type":"bytes32"}],"stateMutability":"view","type":"function"},{"inputs":[],"name":"INITIAL_RATE","outputs":[{"internalType":"uint256","name":"","type":"uint256"}],"stateMutability":"view","type":"function"},{"inputs":[],"name":"OPTION_ISSUER_ROLE","outputs":[{"internalType":"bytes32","name":"","type":"bytes32"}],"stateMutability":"view","type":"function"},{"inputs":[],"name":"PROJECT_OWNER_ROLE","outputs":[{"internalType":"bytes32","name":"","type":"bytes32"}],"stateMutability":"view","type":"function"},{"inputs":[{"internalType":"uint256","name":"","type":"uint256"}],"name":"WithdrawRequestQueue","outputs":[{"internalType":"uint256","name":"withdrawAmount","type":"uint256"},{"internalType":"uint256","name":"round","type":"uint256"},{"internalType":"address","name":"account","type":"address"}],"stateMutability":"view","type":"function"},{"inputs":[{"internalType":"address","name":"owner","type":"address"},{"internalType":"address","name":"spender","type":"address"}],"name":"allowance","outputs":[{"internalType":"uint256","name":"","type":"uint256"}],"stateMutability":"view","type":"function"},{"inputs":[{"internalType":"address","name":"spender","type":"address"},{"internalType":"uint256","name":"amount","type":"uint256"}],"name":"approve","outputs":[{"internalType":"bool","name":"","type":"bool"}],"stateMutability":"nonpayable","type":"function"},{"inputs":[],"name":"availableBalance","outputs":[{"internalType":"uint256","name":"balance","type":"uint256"}],"stateMutability":"view","type":"function"},{"inputs":[{"internalType":"address","name":"account","type":"address"}],"name":"balanceOf","outputs":[{"internalType":"uint256","name":"","type":"uint256"}],"stateMutability":"view","type":"function"},{"inputs":[{"internalType":"uint256","name":"id","type":"uint256"},{"internalType":"uint256","name":"tokenXAmount","type":"uint256"},{"internalType":"uint256","name":"premium","type":"uint256"}],"name":"changeLock","outputs":[],"stateMutability":"nonpayable","type":"function"},{"inputs":[],"name":"currentRound","outputs":[{"internalType":"uint256","name":"","type":"uint256"}],"stateMutability":"view","type":"function"},{"inputs":[],"name":"decimals","outputs":[{"internalType":"uint8","name":"","type":"uint8"}],"stateMutability":"view","type":"function"},{"inputs":[{"internalType":"address","name":"spender","type":"address"},{"internalType":"uint256","name":"subtractedValue","type":"uint256"}],"name":"decreaseAllowance","outputs":[{"internalType":"bool","name":"","type":"bool"}],"stateMutability":"nonpayable","type":"function"},{"inputs":[],"name":"fixedExpiry","outputs":[{"internalType":"uint256","name":"","type":"uint256"}],"stateMutability":"view","type":"function"},{"inputs":[{"internalType":"bytes32","name":"role","type":"bytes32"}],"name":"getRoleAdmin","outputs":[{"internalType":"bytes32","name":"","type":"bytes32"}],"stateMutability":"view","type":"function"},{"inputs":[{"internalType":"bytes32","name":"role","type":"bytes32"},{"internalType":"address","name":"account","type":"address"}],"name":"grantRole","outputs":[],"stateMutability":"nonpayable","type":"function"},{"inputs":[],"name":"hasPoolEnded","outputs":[{"internalType":"bool","name":"","type":"bool"}],"stateMutability":"view","type":"function"},{"inputs":[{"internalType":"bytes32","name":"role","type":"bytes32"},{"internalType":"address","name":"account","type":"address"}],"name":"hasRole","outputs":[{"internalType":"bool","name":"","type":"bool"}],"stateMutability":"view","type":"function"},{"inputs":[{"internalType":"address","name":"spender","type":"address"},{"internalType":"uint256","name":"addedValue","type":"uint256"}],"name":"increaseAllowance","outputs":[{"internalType":"bool","name":"","type":"bool"}],"stateMutability":"nonpayable","type":"function"},{"inputs":[{"internalType":"uint256","name":"_maxLiquidity","type":"uint256"},{"internalType":"uint256","name":"_initialExpiry","type":"uint256"},{"internalType":"uint256","name":"_startDate","type":"uint256"}],"name":"initialize","outputs":[],"stateMutability":"nonpayable","type":"function"},{"inputs":[],"name":"isAcceptingWithdrawRequests","outputs":[{"internalType":"bool","name":"","type":"bool"}],"stateMutability":"view","type":"function"},{"inputs":[],"name":"isInitialized","outputs":[{"internalType":"bool","name":"","type":"bool"}],"stateMutability":"view","type":"function"},{"inputs":[{"internalType":"uint256","name":"id","type":"uint256"},{"internalType":"uint256","name":"tokenXAmount","type":"uint256"},{"internalType":"uint256","name":"premium","type":"uint256"}],"name":"lock","outputs":[],"stateMutability":"nonpayable","type":"function"},{"inputs":[],"name":"lockedAmount","outputs":[{"internalType":"uint256","name":"","type":"uint256"}],"stateMutability":"view","type":"function"},{"inputs":[{"internalType":"address","name":"","type":"address"},{"internalType":"uint256","name":"","type":"uint256"}],"name":"lockedLiquidity","outputs":[{"internalType":"uint256","name":"amount","type":"uint256"},{"internalType":"uint256","name":"premium","type":"uint256"},{"internalType":"bool","name":"locked","type":"bool"}],"stateMutability":"view","type":"function"},{"inputs":[],"name":"lockedPremium","outputs":[{"internalType":"uint256","name":"","type":"uint256"}],"stateMutability":"view","type":"function"},{"inputs":[],"name":"maxLiquidity","outputs":[{"internalType":"uint256","name":"","type":"uint256"}],"stateMutability":"view","type":"function"},{"inputs":[],"name":"name","outputs":[{"internalType":"string","name":"","type":"string"}],"stateMutability":"view","type":"function"},{"inputs":[],"name":"owner","outputs":[{"internalType":"address","name":"","type":"address"}],"stateMutability":"view","type":"function"},{"inputs":[{"internalType":"uint256","name":"requestsToProcess","type":"uint256"}],"name":"processWithdrawRequests","outputs":[],"stateMutability":"nonpayable","type":"function"},{"inputs":[],"name":"projectOwner","outputs":[{"internalType":"address","name":"","type":"address"}],"stateMutability":"view","type":"function"},{"inputs":[{"internalType":"uint256","name":"tokenXAmount","type":"uint256"},{"internalType":"uint256","name":"minMint","type":"uint256"}],"name":"provide","outputs":[{"internalType":"uint256","name":"mint","type":"uint256"}],"stateMutability":"nonpayable","type":"function"},{"inputs":[],"name":"queueEnd","outputs":[{"internalType":"uint256","name":"","type":"uint256"}],"stateMutability":"view","type":"function"},{"inputs":[],"name":"queueStart","outputs":[{"internalType":"uint256","name":"","type":"uint256"}],"stateMutability":"view","type":"function"},{"inputs":[{"internalType":"bytes32","name":"role","type":"bytes32"},{"internalType":"address","name":"account","type":"address"}],"name":"renounceRole","outputs":[],"stateMutability":"nonpayable","type":"function"},{"inputs":[{"internalType":"bytes32","name":"role","type":"bytes32"},{"internalType":"address","name":"account","type":"address"}],"name":"revokeRole","outputs":[],"stateMutability":"nonpayable","type":"function"},{"inputs":[{"internalType":"uint256","name":"expiry","type":"uint256"},{"internalType":"uint256","name":"_maxLiquidity","type":"uint256"}],"name":"rollOver","outputs":[],"stateMutability":"nonpayable","type":"function"},{"inputs":[{"internalType":"uint256","name":"id","type":"uint256"},{"internalType":"address","name":"to","type":"address"},{"internalType":"uint256","name":"tokenXAmount","type":"uint256"}],"name":"send","outputs":[],"stateMutability":"nonpayable","type":"function"},{"inputs":[{"internalType":"bool","name":"_hasPoolEnded","type":"bool"}],"name":"setPoolState","outputs":[],"stateMutability":"nonpayable","type":"function"},{"inputs":[{"internalType":"address","name":"account","type":"address"}],"name":"setProjectOwner","outputs":[],"stateMutability":"nonpayable","type":"function"},{"inputs":[{"internalType":"address","name":"account","type":"address"}],"name":"shareOf","outputs":[{"internalType":"uint256","name":"share","type":"uint256"}],"stateMutability":"view","type":"function"},{"inputs":[],"name":"startDate","outputs":[{"internalType":"uint256","name":"","type":"uint256"}],"stateMutability":"view","type":"function"},{"inputs":[{"internalType":"bytes4","name":"interfaceId","type":"bytes4"}],"name":"supportsInterface","outputs":[{"internalType":"bool","name":"","type":"bool"}],"stateMutability":"view","type":"function"},{"inputs":[],"name":"symbol","outputs":[{"internalType":"string","name":"","type":"string"}],"stateMutability":"view","type":"function"},{"inputs":[],"name":"tokenX","outputs":[{"internalType":"contract ERC20","name":"","type":"address"}],"stateMutability":"view","type":"function"},{"inputs":[],"name":"totalSupply","outputs":[{"internalType":"uint256","name":"","type":"uint256"}],"stateMutability":"view","type":"function"},{"inputs":[],"name":"totalTokenXBalance","outputs":[{"internalType":"uint256","name":"balance","type":"uint256"}],"stateMutability":"view","type":"function"},{"inputs":[{"internalType":"address","name":"recipient","type":"address"},{"internalType":"uint256","name":"amount","type":"uint256"}],"name":"transfer","outputs":[{"internalType":"bool","name":"","type":"bool"}],"stateMutability":"nonpayable","type":"function"},{"inputs":[{"internalType":"address","name":"sender","type":"address"},{"internalType":"address","name":"recipient","type":"address"},{"internalType":"uint256","name":"amount","type":"uint256"}],"name":"transferFrom","outputs":[{"internalType":"bool","name":"","type":"bool"}],"stateMutability":"nonpayable","type":"function"},{"inputs":[{"internalType":"uint256","name":"id","type":"uint256"}],"name":"unlock","outputs":[],"stateMutability":"nonpayable","type":"function"},{"inputs":[{"internalType":"uint256","name":"id","type":"uint256"}],"name":"unlockWithoutProfit","outputs":[],"stateMutability":"nonpayable","type":"function"},{"inputs":[{"internalType":"uint256","name":"tokenXAmount","type":"uint256"}],"name":"withdraw","outputs":[],"stateMutability":"nonpayable","type":"function"}],"compiler":{"version":"0.8.4+commit.c7e474f2","evm_version":"istanbul","optimizer":{"enabled":true,"runs":1}},"contractName":"BufferEpocPoolV2Unintialized","language":"Solidity","natspec":{"methods":{"allowance(address,address)":{"details":"See {IERC20-allowance}."},"approve(address,uint256)":{"details":"See {IERC20-approve}. Requirements: - `spender` cannot be the zero address."},"availableBalance()":{"notice":"Returns the amount of X available for withdrawals","returns":{"balance":"Unlocked amount"}},"balanceOf(address)":{"details":"See {IERC20-balanceOf}."},"changeLock(uint256,uint256,uint256)":{"notice":"Called by BufferCallOptions to change the locked funds","params":{"tokenXAmount":"Amount of funds that should be locked in an option"}},"decimals()":{"details":"Returns the decimals of the token."},"decreaseAllowance(address,uint256)":{"details":"Atomically decreases the allowance granted to `spender` by the caller. This is an alternative to {approve} that can be used as a mitigation for problems described in {IERC20-approve}. Emits an {Approval} event indicating the updated allowance. Requirements: - `spender` cannot be the zero address. - `spender` must have allowance for the caller of at least `subtractedValue`."},"getRoleAdmin(bytes32)":{"details":"Returns the admin role that controls `role`. See {grantRole} and {revokeRole}. To change a role's admin, use {_setRoleAdmin}."},"grantRole(bytes32,address)":{"details":"Grants `role` to `account`. If `account` had not been already granted `role`, emits a {RoleGranted} event. Requirements: - the caller must have ``role``'s admin role."},"hasRole(bytes32,address)":{"details":"Returns `true` if `account` has been granted `role`."},"increaseAllowance(address,uint256)":{"details":"Atomically increases the allowance granted to `spender` by the caller. This is an alternative to {approve} that can be used as a mitigation for problems described in {IERC20-approve}. Emits an {Approval} event indicating the updated allowance. Requirements: - `spender` cannot be the zero address."},"initialize(uint256,uint256,uint256)":{"notice":"Initializes the pool","params":{"_initialExpiry":"Initial expiry","_maxLiquidity":"Pool token cap"}},"lock(uint256,uint256,uint256)":{"notice":"Called by BufferCallOptions to lock the funds","params":{"tokenXAmount":"Amount of funds that should be locked in an option"}},"name()":{"details":"Returns the name of the token."},"processWithdrawRequests(uint256)":{"notice":"Processes all the withdraw requests once the round ends","params":{"requestsToProcess":"Number of requests to process"}},"provide(uint256,uint256)":{"notice":"A provider supplies tokenX to the pool and receives rBFR-X tokens","params":{"minMint":"Minimum amount of tokens that should be received by a provider. Calling the provide function will require the minimum amount of tokens to be minted. The actual amount that will be minted could vary but can only be higher (not lower) than the minimum value."},"returns":{"mint":"Amount of tokens to be received"}},"renounceRole(bytes32,address)":{"details":"Revokes `role` from the calling account. Roles are often managed via {grantRole} and {revokeRole}: this function's purpose is to provide a mechanism for accounts to lose their privileges if they are compromised (such as when a trusted device is misplaced). If the calling account had been granted `role`, emits a {RoleRevoked} event. Requirements: - the caller must be `account`."},"revokeRole(bytes32,address)":{"details":"Revokes `role` from `account`. If `account` had been granted `role`, emits a {RoleRevoked} event. Requirements: - the caller must have ``role``'s admin role."},"rollOver(uint256,uint256)":{"notice":"Used to start a new round","params":{"expiry":"New expiry"}},"send(uint256,address,uint256)":{"notice":"Called by BufferCallOptions to send funds to liquidity providers after an option's expiration","params":{"to":"Provider","tokenXAmount":"Funds that should be sent"}},"setPoolState(bool)":{"notice":"Used for setting the liquidity pool's state","params":{"_hasPoolEnded":"New state"}},"setProjectOwner(address)":{"notice":"Used for setting owner","params":{"account":"owner account"}},"shareOf(address)":{"notice":"Returns provider's share in X","params":{"account":"Provider's address"},"returns":{"share":"Provider's share in X"}},"supportsInterface(bytes4)":{"details":"See {IERC165-supportsInterface}."},"symbol()":{"details":"Returns the symbol of the token, usually a shorter version of the name."},"totalSupply()":{"details":"See {IERC20-totalSupply}."},"totalTokenXBalance()":{"notice":"Returns the total balance of X provided to the pool","returns":{"balance":"Pool balance"}},"transfer(address,uint256)":{"details":"See {IERC20-transfer}. Requirements: - `recipient` cannot be the zero address. - the caller must have a balance of at least `amount`."},"transferFrom(address,address,uint256)":{"details":"See {IERC20-transferFrom}. Emits an {Approval} event indicating the updated allowance. This is not required by the EIP. See the note at the beginning of {ERC20}. Requirements: - `sender` and `recipient` cannot be the zero address. - `sender` must have a balance of at least `amount`. - the caller must have allowance for ``sender``'s tokens of at least `amount`."},"unlock(uint256)":{"notice":"Called by BufferOptions to unlock the funds","params":{"id":"Id of LockedLiquidity that should be unlocked"}},"unlockWithoutProfit(uint256)":{"notice":"Called by BufferOptions to unlock the funds","params":{"id":"Id of LockedLiquidity that should be unlocked"}},"withdraw(uint256)":{"notice":"withdraw burns rBFR-X and receives X from the pool","params":{"tokenXAmount":"Amount Amount of X to receive"}}},"kind":"dev","notice":"Accumulates liquidity in TokenX from LPs and distributes P&L in TokenX","version":1,"author":"Heisenberg","title":"Buffer TokenX Liquidity Pool"},"opcodes":"PUSH1 0x80 PUSH1 0x40 MSTORE CALLVALUE DUP1 ISZERO PUSH2 0x10 JUMPI PUSH1 0x0 DUP1 REVERT JUMPDEST POP PUSH1 0x4 CALLDATASIZE LT PUSH2 0x272 JUMPI PUSH1 0x0 CALLDATALOAD PUSH1 0xE0 SHR DUP1 PUSH4 0x1FFC9A7 EQ PUSH2 0x277 JUMPI DUP1 PUSH4 0x4C104C4 EQ PUSH2 0x29F JUMPI DUP1 PUSH4 0x6FDDE03 EQ PUSH2 0x2DE JUMPI DUP1 PUSH4 0x95EA7B3 EQ PUSH2 0x2F3 JUMPI DUP1 PUSH4 0xB97BC86 EQ PUSH2 0x306 JUMPI DUP1 PUSH4 0xDBF21B0 EQ PUSH2 0x31D JUMPI DUP1 PUSH4 0x16DC165B EQ PUSH2 0x332 JUMPI DUP1 PUSH4 0x18160DDD EQ PUSH2 0x352 JUMPI DUP1 PUSH4 0x21E5E2C4 EQ PUSH2 0x35A JUMPI DUP1 PUSH4 0x23B872DD EQ PUSH2 0x36D JUMPI DUP1 PUSH4 0x248A9CA3 EQ PUSH2 0x380 JUMPI DUP1 PUSH4 0x2E1A7D4D EQ PUSH2 0x393 JUMPI DUP1 PUSH4 0x2F2FF15D EQ PUSH2 0x3A6 JUMPI DUP1 PUSH4 0x313CE567 EQ PUSH2 0x3B9 JUMPI DUP1 PUSH4 0x350392B1 EQ PUSH2 0x3D3 JUMPI DUP1 PUSH4 0x36482E6A EQ PUSH2 0x42F JUMPI DUP1 PUSH4 0x36568ABE EQ PUSH2 0x442 JUMPI DUP1 PUSH4 0x392E53CD EQ PUSH2 0x455 JUMPI DUP1 PUSH4 0x39509351 EQ PUSH2 0x467 JUMPI DUP1 PUSH4 0x4DBAC733 EQ PUSH2 0x47A JUMPI DUP1 PUSH4 0x5572E0D9 EQ PUSH2 0x483 JUMPI DUP1 PUSH4 0x57A5C967 EQ PUSH2 0x496 JUMPI DUP1 PUSH4 0x6198E339 EQ PUSH2 0x4A9 JUMPI DUP1 PUSH4 0x6AB28BC8 EQ PUSH2 0x4BC JUMPI DUP1 PUSH4 0x70A08231 EQ PUSH2 0x4C5 JUMPI DUP1 PUSH4 0x70C0345C EQ PUSH2 0x4D8 JUMPI DUP1 PUSH4 0x797BE55E EQ PUSH2 0x4E1 JUMPI DUP1 PUSH4 0x80D85911 EQ PUSH2 0x4EA JUMPI DUP1 PUSH4 0x81B34F15 EQ PUSH2 0x4FD JUMPI DUP1 PUSH4 0x8A19C8BC EQ PUSH2 0x510 JUMPI DUP1 PUSH4 0x8DA5CB5B EQ PUSH2 0x519 JUMPI DUP1 PUSH4 0x91D14854 EQ PUSH2 0x52C JUMPI DUP1 PUSH4 0x95D89B41 EQ PUSH2 0x53F JUMPI DUP1 PUSH4 0xA217FDDF EQ PUSH2 0x547 JUMPI DUP1 PUSH4 0xA2416F74 EQ PUSH2 0x54F JUMPI DUP1 PUSH4 0xA3D887FD EQ PUSH2 0x562 JUMPI DUP1 PUSH4 0xA4475CE4 EQ PUSH2 0x56B JUMPI DUP1 PUSH4 0xA457C2D7 EQ PUSH2 0x585 JUMPI DUP1 PUSH4 0xA834069B EQ PUSH2 0x598 JUMPI DUP1 PUSH4 0xA9059CBB EQ PUSH2 0x5A1 JUMPI DUP1 PUSH4 0xAB2F0E51 EQ PUSH2 0x5B4 JUMPI DUP1 PUSH4 0xB9CFE348 EQ PUSH2 0x5BC JUMPI DUP1 PUSH4 0xBE62DA0E EQ PUSH2 0x5EC JUMPI DUP1 PUSH4 0xD547741F EQ PUSH2 0x601 JUMPI DUP1 PUSH4 0xD7FB29D6 EQ PUSH2 0x614 JUMPI DUP1 PUSH4 0xD9AC10D9 EQ PUSH2 0x627 JUMPI DUP1 PUSH4 0xDACDC8DA EQ PUSH2 0x62F JUMPI DUP1 PUSH4 0xDD62ED3E EQ PUSH2 0x63C JUMPI DUP1 PUSH4 0xE8C3C54F EQ PUSH2 0x675 JUMPI DUP1 PUSH4 0xEC277A66 EQ PUSH2 0x688 JUMPI DUP1 PUSH4 0xEDD0D421 EQ PUSH2 0x69D JUMPI DUP1 PUSH4 0xF4AB7966 EQ PUSH2 0x6B0 JUMPI DUP1 PUSH4 0xF6D16102 EQ PUSH2 0x6C3 JUMPI DUP1 PUSH4 0xFBCD9B05 EQ PUSH2 0x47A JUMPI JUMPDEST PUSH1 0x0 DUP1 REVERT JUMPDEST PUSH2 0x28A PUSH2 0x285 CALLDATASIZE PUSH1 0x4 PUSH2 0x291F JUMP JUMPDEST PUSH2 0x6CC JUMP JUMPDEST PUSH1 0x40 MLOAD SWAP1 ISZERO ISZERO DUP2 MSTORE PUSH1 0x20 ADD JUMPDEST PUSH1 0x40 MLOAD DUP1 SWAP2 SUB SWAP1 RETURN JUMPDEST PUSH2 0x2C9 PUSH2 0x2AD CALLDATASIZE PUSH1 0x4 PUSH2 0x27FD JUMP JUMPDEST PUSH1 0x13 PUSH1 0x20 MSTORE PUSH1 0x0 SWAP1 DUP2 MSTORE PUSH1 0x40 SWAP1 KECCAK256 DUP1 SLOAD PUSH1 0x1 SWAP1 SWAP2 ADD SLOAD PUSH1 0xFF AND DUP3 JUMP JUMPDEST PUSH1 0x40 DUP1 MLOAD SWAP3 DUP4 MSTORE SWAP1 ISZERO ISZERO PUSH1 0x20 DUP4 ADD MSTORE ADD PUSH2 0x296 JUMP JUMPDEST PUSH2 0x2E6 PUSH2 0x703 JUMP JUMPDEST PUSH1 0x40 MLOAD PUSH2 0x296 SWAP2 SWAP1 PUSH2 0x2A8C JUMP JUMPDEST PUSH2 0x28A PUSH2 0x301 CALLDATASIZE PUSH1 0x4 PUSH2 0x2884 JUMP JUMPDEST PUSH2 0x795 JUMP JUMPDEST PUSH2 0x30F PUSH1 0xC SLOAD DUP2 JUMP JUMPDEST PUSH1 0x40 MLOAD SWAP1 DUP2 MSTORE PUSH1 0x20 ADD PUSH2 0x296 JUMP JUMPDEST PUSH2 0x330 PUSH2 0x32B CALLDATASIZE PUSH1 0x4 PUSH2 0x28E5 JUMP JUMPDEST PUSH2 0x7AB JUMP JUMPDEST STOP JUMPDEST PUSH1 0x11 SLOAD PUSH2 0x345 SWAP1 PUSH1 0x1 PUSH1 0x1 PUSH1 0xA0 SHL SUB AND DUP2 JUMP JUMPDEST PUSH1 0x40 MLOAD PUSH2 0x296 SWAP2 SWAP1 PUSH2 0x2A5F JUMP JUMPDEST PUSH1 0x2 SLOAD PUSH2 0x30F JUMP JUMPDEST PUSH2 0x30F PUSH2 0x368 CALLDATASIZE PUSH1 0x4 PUSH2 0x27FD JUMP JUMPDEST PUSH2 0x7B8 JUMP JUMPDEST PUSH2 0x28A PUSH2 0x37B CALLDATASIZE PUSH1 0x4 PUSH2 0x2849 JUMP JUMPDEST PUSH2 0x7FB JUMP JUMPDEST PUSH2 0x30F PUSH2 0x38E CALLDATASIZE PUSH1 0x4 PUSH2 0x28E5 JUMP JUMPDEST PUSH2 0x8AA JUMP JUMPDEST PUSH2 0x330 PUSH2 0x3A1 CALLDATASIZE PUSH1 0x4 PUSH2 0x28E5 JUMP JUMPDEST PUSH2 0x8BF JUMP JUMPDEST PUSH2 0x330 PUSH2 0x3B4 CALLDATASIZE PUSH1 0x4 PUSH2 0x28FD JUMP JUMPDEST PUSH2 0x995 JUMP JUMPDEST PUSH2 0x3C1 PUSH2 0x9B7 JUMP JUMPDEST PUSH1 0x40 MLOAD PUSH1 0xFF SWAP1 SWAP2 AND DUP2 MSTORE PUSH1 0x20 ADD PUSH2 0x296 JUMP JUMPDEST PUSH2 0x40B PUSH2 0x3E1 CALLDATASIZE PUSH1 0x4 PUSH2 0x28E5 JUMP JUMPDEST PUSH1 0x12 PUSH1 0x20 MSTORE PUSH1 0x0 SWAP1 DUP2 MSTORE PUSH1 0x40 SWAP1 KECCAK256 DUP1 SLOAD PUSH1 0x1 DUP3 ADD SLOAD PUSH1 0x2 SWAP1 SWAP3 ADD SLOAD SWAP1 SWAP2 SWAP1 PUSH1 0x1 PUSH1 0x1 PUSH1 0xA0 SHL SUB AND DUP4 JUMP JUMPDEST PUSH1 0x40 DUP1 MLOAD SWAP4 DUP5 MSTORE PUSH1 0x20 DUP5 ADD SWAP3 SWAP1 SWAP3 MSTORE PUSH1 0x1 PUSH1 0x1 PUSH1 0xA0 SHL SUB AND SWAP1 DUP3 ADD MSTORE PUSH1 0x60 ADD PUSH2 0x296 JUMP JUMPDEST PUSH2 0x330 PUSH2 0x43D CALLDATASIZE PUSH1 0x4 PUSH2 0x28AD JUMP JUMPDEST PUSH2 0xA39 JUMP JUMPDEST PUSH2 0x330 PUSH2 0x450 CALLDATASIZE PUSH1 0x4 PUSH2 0x28FD JUMP JUMPDEST PUSH2 0xAA1 JUMP JUMPDEST PUSH1 0xE SLOAD PUSH2 0x28A SWAP1 PUSH2 0x100 SWAP1 DIV PUSH1 0xFF AND DUP2 JUMP JUMPDEST PUSH2 0x28A PUSH2 0x475 CALLDATASIZE PUSH1 0x4 PUSH2 0x2884 JUMP JUMPDEST PUSH2 0xB1B JUMP JUMPDEST PUSH2 0x30F PUSH2 0x3E8 DUP2 JUMP JUMPDEST PUSH2 0x330 PUSH2 0x491 CALLDATASIZE PUSH1 0x4 PUSH2 0x28E5 JUMP JUMPDEST PUSH2 0xB57 JUMP JUMPDEST PUSH2 0x330 PUSH2 0x4A4 CALLDATASIZE PUSH1 0x4 PUSH2 0x29A4 JUMP JUMPDEST PUSH2 0xD29 JUMP JUMPDEST PUSH2 0x330 PUSH2 0x4B7 CALLDATASIZE PUSH1 0x4 PUSH2 0x28E5 JUMP JUMPDEST PUSH2 0xDF2 JUMP JUMPDEST PUSH2 0x30F PUSH1 0x8 SLOAD DUP2 JUMP JUMPDEST PUSH2 0x30F PUSH2 0x4D3 CALLDATASIZE PUSH1 0x4 PUSH2 0x27FD JUMP JUMPDEST PUSH2 0xE2B JUMP JUMPDEST PUSH2 0x30F PUSH1 0xA SLOAD DUP2 JUMP JUMPDEST PUSH2 0x30F PUSH1 0x9 SLOAD DUP2 JUMP JUMPDEST PUSH2 0x330 PUSH2 0x4F8 CALLDATASIZE PUSH1 0x4 PUSH2 0x29A4 JUMP JUMPDEST PUSH2 0xE46 JUMP JUMPDEST PUSH2 0x330 PUSH2 0x50B CALLDATASIZE PUSH1 0x4 PUSH2 0x295F JUMP JUMPDEST PUSH2 0xF19 JUMP JUMPDEST PUSH2 0x30F PUSH1 0xD SLOAD DUP2 JUMP JUMPDEST PUSH1 0xF SLOAD PUSH2 0x345 SWAP1 PUSH1 0x1 PUSH1 0x1 PUSH1 0xA0 SHL SUB AND DUP2 JUMP JUMPDEST PUSH2 0x28A PUSH2 0x53A CALLDATASIZE PUSH1 0x4 PUSH2 0x28FD JUMP JUMPDEST PUSH2 0x116D JUMP JUMPDEST PUSH2 0x2E6 PUSH2 0x1198 JUMP JUMPDEST PUSH2 0x30F PUSH1 0x0 DUP2 JUMP JUMPDEST PUSH2 0x330 PUSH2 0x55D CALLDATASIZE PUSH1 0x4 PUSH2 0x27FD JUMP JUMPDEST PUSH2 0x11A7 JUMP JUMPDEST PUSH2 0x30F PUSH1 0x14 SLOAD DUP2 JUMP JUMPDEST PUSH1 0xE SLOAD PUSH2 0x345 SWAP1 PUSH4 0x1000000 SWAP1 DIV PUSH1 0x1 PUSH1 0x1 PUSH1 0xA0 SHL SUB AND DUP2 JUMP JUMPDEST PUSH2 0x28A PUSH2 0x593 CALLDATASIZE PUSH1 0x4 PUSH2 0x2884 JUMP JUMPDEST PUSH2 0x121F JUMP JUMPDEST PUSH2 0x30F PUSH1 0xB SLOAD DUP2 JUMP JUMPDEST PUSH2 0x28A PUSH2 0x5AF CALLDATASIZE PUSH1 0x4 PUSH2 0x2884 JUMP JUMPDEST PUSH2 0x12B8 JUMP JUMPDEST PUSH2 0x30F PUSH2 0x12C5 JUMP JUMPDEST PUSH2 0x5CF PUSH2 0x5CA CALLDATASIZE PUSH1 0x4 PUSH2 0x2884 JUMP JUMPDEST PUSH2 0x12DC JUMP JUMPDEST PUSH1 0x40 DUP1 MLOAD SWAP4 DUP5 MSTORE PUSH1 0x20 DUP5 ADD SWAP3 SWAP1 SWAP3 MSTORE ISZERO ISZERO SWAP1 DUP3 ADD MSTORE PUSH1 0x60 ADD PUSH2 0x296 JUMP JUMPDEST PUSH2 0x30F PUSH1 0x0 DUP1 MLOAD PUSH1 0x20 PUSH2 0x2CF0 DUP4 CODECOPY DUP2 MLOAD SWAP2 MSTORE DUP2 JUMP JUMPDEST PUSH2 0x330 PUSH2 0x60F CALLDATASIZE PUSH1 0x4 PUSH2 0x28FD JUMP JUMPDEST PUSH2 0x1321 JUMP JUMPDEST PUSH2 0x330 PUSH2 0x622 CALLDATASIZE PUSH1 0x4 PUSH2 0x2983 JUMP JUMPDEST PUSH2 0x133E JUMP JUMPDEST PUSH2 0x30F PUSH2 0x149C JUMP JUMPDEST PUSH1 0xE SLOAD PUSH2 0x28A SWAP1 PUSH1 0xFF AND DUP2 JUMP JUMPDEST PUSH2 0x30F PUSH2 0x64A CALLDATASIZE PUSH1 0x4 PUSH2 0x2817 JUMP JUMPDEST PUSH1 0x1 PUSH1 0x1 PUSH1 0xA0 SHL SUB SWAP2 DUP3 AND PUSH1 0x0 SWAP1 DUP2 MSTORE PUSH1 0x1 PUSH1 0x20 SWAP1 DUP2 MSTORE PUSH1 0x40 DUP1 DUP4 KECCAK256 SWAP4 SWAP1 SWAP5 AND DUP3 MSTORE SWAP2 SWAP1 SWAP2 MSTORE KECCAK256 SLOAD SWAP1 JUMP JUMPDEST PUSH2 0x30F PUSH2 0x683 CALLDATASIZE PUSH1 0x4 PUSH2 0x2983 JUMP JUMPDEST PUSH2 0x1521 JUMP JUMPDEST PUSH2 0x30F PUSH1 0x0 DUP1 MLOAD PUSH1 0x20 PUSH2 0x2D10 DUP4 CODECOPY DUP2 MLOAD SWAP2 MSTORE DUP2 JUMP JUMPDEST PUSH2 0x330 PUSH2 0x6AB CALLDATASIZE PUSH1 0x4 PUSH2 0x29A4 JUMP JUMPDEST PUSH2 0x18D8 JUMP JUMPDEST PUSH1 0xE SLOAD PUSH2 0x28A SWAP1 PUSH3 0x10000 SWAP1 DIV PUSH1 0xFF AND DUP2 JUMP JUMPDEST PUSH2 0x30F PUSH1 0x15 SLOAD DUP2 JUMP JUMPDEST PUSH1 0x0 PUSH1 0x1 PUSH1 0x1 PUSH1 0xE0 SHL SUB NOT DUP3 AND PUSH4 0x7965DB0B PUSH1 0xE0 SHL EQ DUP1 PUSH2 0x6FD JUMPI POP PUSH4 0x1FFC9A7 PUSH1 0xE0 SHL PUSH1 0x1 PUSH1 0x1 PUSH1 0xE0 SHL SUB NOT DUP4 AND EQ JUMPDEST SWAP3 SWAP2 POP POP JUMP JUMPDEST PUSH1 0x60 PUSH1 0x6 DUP1 SLOAD PUSH2 0x712 SWAP1 PUSH2 0x2C2B JUMP JUMPDEST DUP1 PUSH1 0x1F ADD PUSH1 0x20 DUP1 SWAP2 DIV MUL PUSH1 0x20 ADD PUSH1 0x40 MLOAD SWAP1 DUP2 ADD PUSH1 0x40 MSTORE DUP1 SWAP3 SWAP2 SWAP1 DUP2 DUP2 MSTORE PUSH1 0x20 ADD DUP3 DUP1 SLOAD PUSH2 0x73E SWAP1 PUSH2 0x2C2B JUMP JUMPDEST DUP1 ISZERO PUSH2 0x78B JUMPI DUP1 PUSH1 0x1F LT PUSH2 0x760 JUMPI PUSH2 0x100 DUP1 DUP4 SLOAD DIV MUL DUP4 MSTORE SWAP2 PUSH1 0x20 ADD SWAP2 PUSH2 0x78B JUMP JUMPDEST DUP3 ADD SWAP2 SWAP1 PUSH1 0x0 MSTORE PUSH1 0x20 PUSH1 0x0 KECCAK256 SWAP1 JUMPDEST DUP2 SLOAD DUP2 MSTORE SWAP1 PUSH1 0x1 ADD SWAP1 PUSH1 0x20 ADD DUP1 DUP4 GT PUSH2 0x76E JUMPI DUP3 SWAP1 SUB PUSH1 0x1F AND DUP3 ADD SWAP2 JUMPDEST POP POP POP POP POP SWAP1 POP SWAP1 JUMP JUMPDEST PUSH1 0x0 PUSH2 0x7A2 CALLER DUP5 DUP5 PUSH2 0x1A28 JUMP JUMPDEST POP PUSH1 0x1 SWAP3 SWAP2 POP POP JUMP JUMPDEST PUSH2 0x7B4 DUP2 PUSH2 0x1B4C JUMP JUMPDEST POP POP JUMP JUMPDEST PUSH1 0x0 DUP1 PUSH2 0x7C4 PUSH1 0x2 SLOAD SWAP1 JUMP JUMPDEST GT ISZERO PUSH2 0x7F2 JUMPI PUSH1 0x2 SLOAD PUSH2 0x7D6 DUP4 PUSH2 0xE2B JUMP JUMPDEST PUSH2 0x7DE PUSH2 0x149C JUMP JUMPDEST PUSH2 0x7E8 SWAP2 SWAP1 PUSH2 0x2BB2 JUMP JUMPDEST PUSH2 0x6FD SWAP2 SWAP1 PUSH2 0x2B9E JUMP JUMPDEST POP PUSH1 0x0 JUMPDEST SWAP2 SWAP1 POP JUMP JUMPDEST PUSH1 0x0 PUSH2 0x808 DUP5 DUP5 DUP5 PUSH2 0x1C0B JUMP JUMPDEST PUSH1 0x1 PUSH1 0x1 PUSH1 0xA0 SHL SUB DUP5 AND PUSH1 0x0 SWAP1 DUP2 MSTORE PUSH1 0x1 PUSH1 0x20 SWAP1 DUP2 MSTORE PUSH1 0x40 DUP1 DUP4 KECCAK256 CALLER DUP5 MSTORE SWAP1 SWAP2 MSTORE SWAP1 KECCAK256 SLOAD DUP3 DUP2 LT ISZERO PUSH2 0x892 JUMPI PUSH1 0x40 MLOAD PUSH3 0x461BCD PUSH1 0xE5 SHL DUP2 MSTORE PUSH1 0x20 PUSH1 0x4 DUP3 ADD MSTORE PUSH1 0x28 PUSH1 0x24 DUP3 ADD MSTORE PUSH32 0x45524332303A207472616E7366657220616D6F756E7420657863656564732061 PUSH1 0x44 DUP3 ADD MSTORE PUSH8 0x6C6C6F77616E6365 PUSH1 0xC0 SHL PUSH1 0x64 DUP3 ADD MSTORE PUSH1 0x84 ADD JUMPDEST PUSH1 0x40 MLOAD DUP1 SWAP2 SUB SWAP1 REVERT JUMPDEST PUSH2 0x89F DUP6 CALLER DUP6 DUP5 SUB PUSH2 0x1A28 JUMP JUMPDEST POP PUSH1 0x1 SWAP5 SWAP4 POP POP POP POP JUMP JUMPDEST PUSH1 0x0 SWAP1 DUP2 MSTORE PUSH1 0x5 PUSH1 0x20 MSTORE PUSH1 0x40 SWAP1 KECCAK256 PUSH1 0x1 ADD SLOAD SWAP1 JUMP JUMPDEST PUSH1 0xE SLOAD PUSH4 0x1000000 SWAP1 DIV PUSH1 0x1 PUSH1 0x1 PUSH1 0xA0 SHL SUB AND CALLER EQ PUSH2 0x8F0 JUMPI PUSH1 0x40 MLOAD PUSH3 0x461BCD PUSH1 0xE5 SHL DUP2 MSTORE PUSH1 0x4 ADD PUSH2 0x889 SWAP1 PUSH2 0x2B05 JUMP JUMPDEST PUSH1 0xE SLOAD PUSH1 0xFF AND ISZERO PUSH2 0x905 JUMPI PUSH2 0x7B4 DUP2 CALLER PUSH2 0x1DC9 JUMP JUMPDEST PUSH1 0xE SLOAD PUSH3 0x10000 SWAP1 DIV PUSH1 0xFF AND DUP1 ISZERO PUSH2 0x924 JUMPI POP PUSH1 0xE SLOAD PUSH2 0x100 SWAP1 DIV PUSH1 0xFF AND JUMPDEST PUSH2 0x988 JUMPI PUSH1 0x40 MLOAD PUSH3 0x461BCD PUSH1 0xE5 SHL DUP2 MSTORE PUSH1 0x20 PUSH1 0x4 DUP3 ADD MSTORE PUSH1 0x2F PUSH1 0x24 DUP3 ADD MSTORE PUSH32 0x506F6F6C3A204E6F7420616363657074696E6720776974686472617720726571 PUSH1 0x44 DUP3 ADD MSTORE PUSH15 0x75657374732063757272656E746C79 PUSH1 0x88 SHL PUSH1 0x64 DUP3 ADD MSTORE PUSH1 0x84 ADD PUSH2 0x889 JUMP JUMPDEST PUSH2 0x992 DUP2 CALLER PUSH2 0x2049 JUMP JUMPDEST POP JUMP JUMPDEST PUSH2 0x99E DUP3 PUSH2 0x8AA JUMP JUMPDEST PUSH2 0x9A8 DUP2 CALLER PUSH2 0x21FD JUMP JUMPDEST PUSH2 0x9B2 DUP4 DUP4 PUSH2 0x2261 JUMP JUMPDEST POP POP POP JUMP JUMPDEST PUSH1 0x11 SLOAD PUSH1 0x40 DUP1 MLOAD PUSH4 0x313CE567 PUSH1 0xE0 SHL DUP2 MSTORE SWAP1 MLOAD PUSH1 0x0 SWAP3 PUSH1 0x1 PUSH1 0x1 PUSH1 0xA0 SHL SUB AND SWAP2 PUSH4 0x313CE567 SWAP2 PUSH1 0x4 DUP1 DUP4 ADD SWAP3 PUSH1 0x20 SWAP3 SWAP2 SWAP1 DUP3 SWAP1 SUB ADD DUP2 DUP7 DUP1 EXTCODESIZE ISZERO DUP1 ISZERO PUSH2 0x9FC JUMPI PUSH1 0x0 DUP1 REVERT JUMPDEST POP GAS STATICCALL ISZERO DUP1 ISZERO PUSH2 0xA10 JUMPI RETURNDATASIZE PUSH1 0x0 DUP1 RETURNDATACOPY RETURNDATASIZE PUSH1 0x0 REVERT JUMPDEST POP POP POP POP PUSH1 0x40 MLOAD RETURNDATASIZE PUSH1 0x1F NOT PUSH1 0x1F DUP3 ADD AND DUP3 ADD DUP1 PUSH1 0x40 MSTORE POP DUP2 ADD SWAP1 PUSH2 0xA34 SWAP2 SWAP1 PUSH2 0x29CF JUMP JUMPDEST SWAP1 POP SWAP1 JUMP JUMPDEST PUSH1 0x0 DUP1 MLOAD PUSH1 0x20 PUSH2 0x2CF0 DUP4 CODECOPY DUP2 MLOAD SWAP2 MSTORE PUSH2 0xA52 DUP2 CALLER PUSH2 0x21FD JUMP JUMPDEST PUSH1 0xE DUP1 SLOAD PUSH1 0xFF NOT AND DUP4 ISZERO ISZERO SWAP1 DUP2 OR SWAP1 SWAP2 SSTORE PUSH1 0x40 MLOAD PUSH1 0xFF SWAP1 SWAP2 AND ISZERO ISZERO DUP2 MSTORE PUSH32 0x66DCC649B45C6952C1670EC25EF87365AA2DD37383BA36A7696B30B304932D9F SWAP1 PUSH1 0x20 ADD JUMPDEST PUSH1 0x40 MLOAD DUP1 SWAP2 SUB SWAP1 LOG1 POP POP JUMP JUMPDEST PUSH1 0x1 PUSH1 0x1 PUSH1 0xA0 SHL SUB DUP2 AND CALLER EQ PUSH2 0xB11 JUMPI PUSH1 0x40 MLOAD PUSH3 0x461BCD PUSH1 0xE5 SHL DUP2 MSTORE PUSH1 0x20 PUSH1 0x4 DUP3 ADD MSTORE PUSH1 0x2F PUSH1 0x24 DUP3 ADD MSTORE PUSH32 0x416363657373436F6E74726F6C3A2063616E206F6E6C792072656E6F756E6365 PUSH1 0x44 DUP3 ADD MSTORE PUSH15 0x103937B632B9903337B91039B2B633 PUSH1 0x89 SHL PUSH1 0x64 DUP3 ADD MSTORE PUSH1 0x84 ADD PUSH2 0x889 JUMP JUMPDEST PUSH2 0x7B4 DUP3 DUP3 PUSH2 0x22E7 JUMP JUMPDEST CALLER PUSH1 0x0 DUP2 DUP2 MSTORE PUSH1 0x1 PUSH1 0x20 SWAP1 DUP2 MSTORE PUSH1 0x40 DUP1 DUP4 KECCAK256 PUSH1 0x1 PUSH1 0x1 PUSH1 0xA0 SHL SUB DUP8 AND DUP5 MSTORE SWAP1 SWAP2 MSTORE DUP2 KECCAK256 SLOAD SWAP1 SWAP2 PUSH2 0x7A2 SWAP2 DUP6 SWAP1 PUSH2 0xB52 SWAP1 DUP7 SWAP1 PUSH2 0x2B86 JUMP JUMPDEST PUSH2 0x1A28 JUMP JUMPDEST PUSH1 0x0 PUSH1 0x15 SLOAD DUP3 PUSH1 0x14 SLOAD PUSH2 0xB6A SWAP2 SWAP1 PUSH2 0x2B86 JUMP JUMPDEST GT PUSH2 0xB82 JUMPI DUP2 PUSH1 0x14 SLOAD PUSH2 0xB7D SWAP2 SWAP1 PUSH2 0x2B86 JUMP JUMPDEST PUSH2 0xB86 JUMP JUMPDEST PUSH1 0x15 SLOAD JUMPDEST PUSH1 0x14 SLOAD SWAP1 SWAP2 POP JUMPDEST DUP2 DUP2 LT ISZERO PUSH2 0xCFD JUMPI PUSH1 0x0 DUP2 DUP2 MSTORE PUSH1 0x12 PUSH1 0x20 SWAP1 DUP2 MSTORE PUSH1 0x40 DUP1 DUP4 KECCAK256 PUSH1 0x2 DUP2 ADD SLOAD PUSH1 0x1 PUSH1 0x1 PUSH1 0xA0 SHL SUB AND DUP5 MSTORE PUSH1 0x13 SWAP1 SWAP3 MSTORE SWAP1 SWAP2 KECCAK256 PUSH1 0xD SLOAD PUSH1 0x1 DUP4 ADD SLOAD EQ ISZERO PUSH2 0xC36 JUMPI PUSH1 0x40 MLOAD PUSH3 0x461BCD PUSH1 0xE5 SHL DUP2 MSTORE PUSH1 0x20 PUSH1 0x4 DUP3 ADD MSTORE PUSH1 0x39 PUSH1 0x24 DUP3 ADD MSTORE PUSH32 0x506F6F6C3A2043616E27742070726F6365737320746865207265717565737473 PUSH1 0x44 DUP3 ADD MSTORE PUSH25 0x207768656E2074686520726F756E6420697320616374697665 PUSH1 0x38 SHL PUSH1 0x64 DUP3 ADD MSTORE PUSH1 0x84 ADD PUSH2 0x889 JUMP JUMPDEST DUP2 SLOAD PUSH1 0x2 DUP4 ADD SLOAD PUSH2 0xC50 SWAP2 SWAP1 PUSH1 0x1 PUSH1 0x1 PUSH1 0xA0 SHL SUB AND PUSH2 0x1DC9 JUMP JUMPDEST POP DUP2 SLOAD PUSH1 0x2 DUP4 ADD SLOAD PUSH1 0x40 MLOAD PUSH32 0x54AC4A5D811F70F5CCE2FFF90E3AF1383F24319F7366866408898370416057B4 SWAP3 PUSH2 0xC94 SWAP3 SWAP1 SWAP2 PUSH1 0x1 PUSH1 0x1 PUSH1 0xA0 SHL SUB SWAP1 SWAP2 AND SWAP1 PUSH2 0x2B6F JUMP JUMPDEST PUSH1 0x40 MLOAD DUP1 SWAP2 SUB SWAP1 LOG1 PUSH1 0x0 DUP4 DUP2 MSTORE PUSH1 0x12 PUSH1 0x20 MSTORE PUSH1 0x40 DUP2 KECCAK256 DUP2 DUP2 SSTORE PUSH1 0x1 DUP1 DUP3 ADD DUP4 SWAP1 SSTORE PUSH1 0x2 SWAP1 SWAP2 ADD DUP1 SLOAD PUSH1 0x1 PUSH1 0x1 PUSH1 0xA0 SHL SUB NOT AND SWAP1 SSTORE DUP2 DUP4 SSTORE DUP3 ADD DUP1 SLOAD PUSH1 0xFF NOT AND SWAP1 SSTORE PUSH1 0x14 DUP1 SLOAD SWAP2 PUSH2 0xCE3 DUP4 PUSH2 0x2C66 JUMP JUMPDEST SWAP2 SWAP1 POP SSTORE POP POP POP DUP1 DUP1 PUSH2 0xCF5 SWAP1 PUSH2 0x2C66 JUMP JUMPDEST SWAP2 POP POP PUSH2 0xB8D JUMP JUMPDEST POP PUSH1 0x15 SLOAD PUSH1 0x14 SLOAD EQ ISZERO PUSH2 0x7B4 JUMPI PUSH1 0x0 PUSH1 0x14 DUP2 SWAP1 SSTORE PUSH1 0x15 SSTORE PUSH1 0xE DUP1 SLOAD PUSH3 0xFF0000 NOT AND PUSH3 0x10000 OR SWAP1 SSTORE POP POP JUMP JUMPDEST PUSH1 0x0 DUP1 MLOAD PUSH1 0x20 PUSH2 0x2D10 DUP4 CODECOPY DUP2 MLOAD SWAP2 MSTORE PUSH2 0xD42 DUP2 CALLER PUSH2 0x21FD JUMP JUMPDEST CALLER PUSH1 0x0 SWAP1 DUP2 MSTORE PUSH1 0x10 PUSH1 0x20 MSTORE PUSH1 0x40 DUP2 KECCAK256 DUP1 SLOAD DUP7 SWAP1 DUP2 LT PUSH2 0xD71 JUMPI PUSH4 0x4E487B71 PUSH1 0xE0 SHL PUSH1 0x0 MSTORE PUSH1 0x32 PUSH1 0x4 MSTORE PUSH1 0x24 PUSH1 0x0 REVERT JUMPDEST PUSH1 0x0 SWAP2 DUP3 MSTORE PUSH1 0x20 SWAP1 SWAP2 KECCAK256 PUSH1 0x3 SWAP1 SWAP2 MUL ADD PUSH1 0x2 DUP2 ADD SLOAD SWAP1 SWAP2 POP PUSH1 0xFF AND PUSH2 0xDA8 JUMPI PUSH1 0x40 MLOAD PUSH3 0x461BCD PUSH1 0xE5 SHL DUP2 MSTORE PUSH1 0x4 ADD PUSH2 0x889 SWAP1 PUSH2 0x2ABF JUMP JUMPDEST DUP3 DUP2 PUSH1 0x1 ADD SLOAD PUSH1 0x9 SLOAD PUSH2 0xDBB SWAP2 SWAP1 PUSH2 0x2BD1 JUMP JUMPDEST PUSH2 0xDC5 SWAP2 SWAP1 PUSH2 0x2B86 JUMP JUMPDEST PUSH1 0x9 SSTORE DUP1 SLOAD PUSH1 0x8 SLOAD DUP6 SWAP2 PUSH2 0xDD8 SWAP2 PUSH2 0x2BD1 JUMP JUMPDEST PUSH2 0xDE2 SWAP2 SWAP1 PUSH2 0x2B86 JUMP JUMPDEST PUSH1 0x8 SSTORE PUSH1 0x1 DUP2 ADD SWAP3 SWAP1 SWAP3 SSTORE POP SSTORE POP JUMP JUMPDEST PUSH1 0x0 PUSH2 0xDFD DUP3 PUSH2 0x1B4C JUMP JUMPDEST SWAP1 POP DUP2 PUSH1 0x0 DUP1 MLOAD PUSH1 0x20 PUSH2 0x2CD0 DUP4 CODECOPY DUP2 MLOAD SWAP2 MSTORE DUP3 PUSH1 0x40 MLOAD PUSH2 0xE1F SWAP2 DUP2 MSTORE PUSH1 0x20 ADD SWAP1 JUMP JUMPDEST PUSH1 0x40 MLOAD DUP1 SWAP2 SUB SWAP1 LOG2 POP POP JUMP JUMPDEST PUSH1 0x1 PUSH1 0x1 PUSH1 0xA0 SHL SUB AND PUSH1 0x0 SWAP1 DUP2 MSTORE PUSH1 0x20 DUP2 SWAP1 MSTORE PUSH1 0x40 SWAP1 KECCAK256 SLOAD SWAP1 JUMP JUMPDEST PUSH1 0x0 DUP1 MLOAD PUSH1 0x20 PUSH2 0x2CF0 DUP4 CODECOPY DUP2 MLOAD SWAP2 MSTORE PUSH2 0xE5F DUP2 CALLER PUSH2 0x21FD JUMP JUMPDEST PUSH1 0xE SLOAD PUSH2 0x100 SWAP1 DIV PUSH1 0xFF AND ISZERO PUSH2 0xEB3 JUMPI PUSH1 0x40 MLOAD PUSH3 0x461BCD PUSH1 0xE5 SHL DUP2 MSTORE PUSH1 0x20 PUSH1 0x4 DUP3 ADD MSTORE PUSH1 0x19 PUSH1 0x24 DUP3 ADD MSTORE PUSH25 0x141BDBDB0E88105B1C9958591E481A5B9A5D1A585B1A5E9959 PUSH1 0x3A SHL PUSH1 0x44 DUP3 ADD MSTORE PUSH1 0x64 ADD PUSH2 0x889 JUMP JUMPDEST PUSH2 0xEBC DUP5 PUSH2 0x234E JUMP JUMPDEST PUSH2 0xEC5 DUP4 PUSH2 0x2381 JUMP JUMPDEST PUSH1 0xE DUP1 SLOAD PUSH2 0xFF00 NOT AND PUSH2 0x100 OR SWAP1 SSTORE PUSH1 0xC DUP3 SWAP1 SSTORE PUSH1 0x40 MLOAD PUSH32 0xC43E48CF47E9FA186D0F4096C61D1FCB54159799F935A2AA32E5589688EE36E1 SWAP1 PUSH2 0xF0B SWAP1 DUP6 DUP2 MSTORE PUSH1 0x20 ADD SWAP1 JUMP JUMPDEST PUSH1 0x40 MLOAD DUP1 SWAP2 SUB SWAP1 LOG1 POP POP POP POP JUMP JUMPDEST PUSH1 0x0 DUP1 MLOAD PUSH1 0x20 PUSH2 0x2D10 DUP4 CODECOPY DUP2 MLOAD SWAP2 MSTORE PUSH2 0xF32 DUP2 CALLER PUSH2 0x21FD JUMP JUMPDEST CALLER PUSH1 0x0 SWAP1 DUP2 MSTORE PUSH1 0x10 PUSH1 0x20 MSTORE PUSH1 0x40 DUP2 KECCAK256 DUP1 SLOAD DUP7 SWAP1 DUP2 LT PUSH2 0xF61 JUMPI PUSH4 0x4E487B71 PUSH1 0xE0 SHL PUSH1 0x0 MSTORE PUSH1 0x32 PUSH1 0x4 MSTORE PUSH1 0x24 PUSH1 0x0 REVERT JUMPDEST PUSH1 0x0 SWAP2 DUP3 MSTORE PUSH1 0x20 SWAP1 SWAP2 KECCAK256 PUSH1 0x3 SWAP1 SWAP2 MUL ADD PUSH1 0x2 DUP2 ADD SLOAD SWAP1 SWAP2 POP PUSH1 0xFF AND PUSH2 0xF98 JUMPI PUSH1 0x40 MLOAD PUSH3 0x461BCD PUSH1 0xE5 SHL DUP2 MSTORE PUSH1 0x4 ADD PUSH2 0x889 SWAP1 PUSH2 0x2ABF JUMP JUMPDEST PUSH1 0x1 PUSH1 0x1 PUSH1 0xA0 SHL SUB DUP5 AND PUSH2 0xFAB JUMPI PUSH1 0x0 DUP1 REVERT JUMPDEST PUSH1 0x2 DUP2 ADD DUP1 SLOAD PUSH1 0xFF NOT AND SWAP1 SSTORE PUSH1 0x1 DUP2 ADD SLOAD PUSH1 0x9 SLOAD PUSH2 0xFC9 SWAP2 SWAP1 PUSH2 0x2BD1 JUMP JUMPDEST PUSH1 0x9 SSTORE DUP1 SLOAD PUSH1 0x8 SLOAD PUSH2 0xFDB SWAP2 SWAP1 PUSH2 0x2BD1 JUMP JUMPDEST PUSH1 0x8 SSTORE DUP1 SLOAD PUSH1 0x0 SWAP1 DUP5 GT PUSH2 0xFEF JUMPI DUP4 PUSH2 0xFF2 JUMP JUMPDEST DUP2 SLOAD JUMPDEST PUSH1 0x11 SLOAD PUSH1 0x40 MLOAD PUSH4 0xA9059CBB PUSH1 0xE0 SHL DUP2 MSTORE SWAP2 SWAP3 POP PUSH1 0x0 SWAP2 PUSH1 0x1 PUSH1 0x1 PUSH1 0xA0 SHL SUB SWAP1 SWAP2 AND SWAP1 PUSH4 0xA9059CBB SWAP1 PUSH2 0x102A SWAP1 DUP10 SWAP1 DUP7 SWAP1 PUSH1 0x4 ADD PUSH2 0x2A73 JUMP JUMPDEST PUSH1 0x20 PUSH1 0x40 MLOAD DUP1 DUP4 SUB DUP2 PUSH1 0x0 DUP8 DUP1 EXTCODESIZE ISZERO DUP1 ISZERO PUSH2 0x1044 JUMPI PUSH1 0x0 DUP1 REVERT JUMPDEST POP GAS CALL ISZERO DUP1 ISZERO PUSH2 0x1058 JUMPI RETURNDATASIZE PUSH1 0x0 DUP1 RETURNDATACOPY RETURNDATASIZE PUSH1 0x0 REVERT JUMPDEST POP POP POP POP PUSH1 0x40 MLOAD RETURNDATASIZE PUSH1 0x1F NOT PUSH1 0x1F DUP3 ADD AND DUP3 ADD DUP1 PUSH1 0x40 MSTORE POP DUP2 ADD SWAP1 PUSH2 0x107C SWAP2 SWAP1 PUSH2 0x28C9 JUMP JUMPDEST SWAP1 POP DUP1 PUSH2 0x10DF JUMPI PUSH1 0x40 MLOAD PUSH3 0x461BCD PUSH1 0xE5 SHL DUP2 MSTORE PUSH1 0x20 PUSH1 0x4 DUP3 ADD MSTORE PUSH1 0x2B PUSH1 0x24 DUP3 ADD MSTORE PUSH32 0x506F6F6C3A20546865205061796F7574207472616E73666572206469646E2774 PUSH1 0x44 DUP3 ADD MSTORE PUSH11 0x40CEDE40E8D0E4DEEACED PUSH1 0xAB SHL PUSH1 0x64 DUP3 ADD MSTORE PUSH1 0x84 ADD PUSH2 0x889 JUMP JUMPDEST DUP3 PUSH1 0x1 ADD SLOAD DUP3 GT PUSH2 0x1120 JUMPI DUP7 PUSH1 0x0 DUP1 MLOAD PUSH1 0x20 PUSH2 0x2CD0 DUP4 CODECOPY DUP2 MLOAD SWAP2 MSTORE DUP4 DUP6 PUSH1 0x1 ADD SLOAD PUSH2 0x110A SWAP2 SWAP1 PUSH2 0x2BD1 JUMP JUMPDEST PUSH1 0x40 MLOAD SWAP1 DUP2 MSTORE PUSH1 0x20 ADD PUSH1 0x40 MLOAD DUP1 SWAP2 SUB SWAP1 LOG2 PUSH2 0x1164 JUMP JUMPDEST DUP7 PUSH32 0x86F83F021A5ECB92D6DCAEC11BE9DA0E65B5401CE748AC3C1F0DDBAE029F55CE DUP5 PUSH1 0x1 ADD SLOAD DUP5 PUSH2 0x1152 SWAP2 SWAP1 PUSH2 0x2BD1 JUMP JUMPDEST PUSH1 0x40 MLOAD SWAP1 DUP2 MSTORE PUSH1 0x20 ADD PUSH1 0x40 MLOAD DUP1 SWAP2 SUB SWAP1 LOG2 JUMPDEST POP POP POP POP POP POP POP JUMP JUMPDEST PUSH1 0x0 SWAP2 DUP3 MSTORE PUSH1 0x5 PUSH1 0x20 SWAP1 DUP2 MSTORE PUSH1 0x40 DUP1 DUP5 KECCAK256 PUSH1 0x1 PUSH1 0x1 PUSH1 0xA0 SHL SUB SWAP4 SWAP1 SWAP4 AND DUP5 MSTORE SWAP2 SWAP1 MSTORE SWAP1 KECCAK256 SLOAD PUSH1 0xFF AND SWAP1 JUMP JUMPDEST PUSH1 0x60 PUSH1 0x7 DUP1 SLOAD PUSH2 0x712 SWAP1 PUSH2 0x2C2B JUMP JUMPDEST PUSH1 0x0 PUSH2 0x11B3 DUP2 CALLER PUSH2 0x21FD JUMP JUMPDEST PUSH2 0x11CB PUSH1 0x0 DUP1 MLOAD PUSH1 0x20 PUSH2 0x2CF0 DUP4 CODECOPY DUP2 MLOAD SWAP2 MSTORE DUP4 PUSH2 0x995 JUMP JUMPDEST PUSH1 0xE DUP1 SLOAD PUSH4 0x1000000 PUSH1 0x1 PUSH1 0xB8 SHL SUB NOT AND PUSH4 0x1000000 PUSH1 0x1 PUSH1 0x1 PUSH1 0xA0 SHL SUB DUP6 AND MUL OR SWAP1 SSTORE PUSH1 0x40 MLOAD PUSH32 0xB36DB503700BF425DC3B747B57DA91CB2E39A0D909ADA3206BD18B034D7053CA SWAP1 PUSH2 0xA95 SWAP1 DUP5 SWAP1 PUSH2 0x2A5F JUMP JUMPDEST CALLER PUSH1 0x0 SWAP1 DUP2 MSTORE PUSH1 0x1 PUSH1 0x20 SWAP1 DUP2 MSTORE PUSH1 0x40 DUP1 DUP4 KECCAK256 PUSH1 0x1 PUSH1 0x1 PUSH1 0xA0 SHL SUB DUP7 AND DUP5 MSTORE SWAP1 SWAP2 MSTORE DUP2 KECCAK256 SLOAD DUP3 DUP2 LT ISZERO PUSH2 0x12A1 JUMPI PUSH1 0x40 MLOAD PUSH3 0x461BCD PUSH1 0xE5 SHL DUP2 MSTORE PUSH1 0x20 PUSH1 0x4 DUP3 ADD MSTORE PUSH1 0x25 PUSH1 0x24 DUP3 ADD MSTORE PUSH32 0x45524332303A2064656372656173656420616C6C6F77616E63652062656C6F77 PUSH1 0x44 DUP3 ADD MSTORE PUSH5 0x207A65726F PUSH1 0xD8 SHL PUSH1 0x64 DUP3 ADD MSTORE PUSH1 0x84 ADD PUSH2 0x889 JUMP JUMPDEST PUSH2 0x12AE CALLER DUP6 DUP6 DUP5 SUB PUSH2 0x1A28 JUMP JUMPDEST POP PUSH1 0x1 SWAP4 SWAP3 POP POP POP JUMP JUMPDEST PUSH1 0x0 PUSH2 0x7A2 CALLER DUP5 DUP5 PUSH2 0x1C0B JUMP JUMPDEST PUSH1 0x0 PUSH1 0x8 SLOAD PUSH2 0x12D2 PUSH2 0x149C JUMP JUMPDEST PUSH2 0xA34 SWAP2 SWAP1 PUSH2 0x2BD1 JUMP JUMPDEST PUSH1 0x10 PUSH1 0x20 MSTORE DUP2 PUSH1 0x0 MSTORE PUSH1 0x40 PUSH1 0x0 KECCAK256 DUP2 DUP2 SLOAD DUP2 LT PUSH2 0x12F8 JUMPI PUSH1 0x0 DUP1 REVERT JUMPDEST PUSH1 0x0 SWAP2 DUP3 MSTORE PUSH1 0x20 SWAP1 SWAP2 KECCAK256 PUSH1 0x3 SWAP1 SWAP2 MUL ADD DUP1 SLOAD PUSH1 0x1 DUP3 ADD SLOAD PUSH1 0x2 SWAP1 SWAP3 ADD SLOAD SWAP1 SWAP4 POP SWAP1 SWAP2 POP PUSH1 0xFF AND DUP4 JUMP JUMPDEST PUSH2 0x132A DUP3 PUSH2 0x8AA JUMP JUMPDEST PUSH2 0x1334 DUP2 CALLER PUSH2 0x21FD JUMP JUMPDEST PUSH2 0x9B2 DUP4 DUP4 PUSH2 0x22E7 JUMP JUMPDEST PUSH1 0x0 DUP1 MLOAD PUSH1 0x20 PUSH2 0x2CF0 DUP4 CODECOPY DUP2 MLOAD SWAP2 MSTORE PUSH2 0x1357 DUP2 CALLER PUSH2 0x21FD JUMP JUMPDEST PUSH1 0xB SLOAD TIMESTAMP GT PUSH2 0x13BD JUMPI PUSH1 0x40 MLOAD PUSH3 0x461BCD PUSH1 0xE5 SHL DUP2 MSTORE PUSH1 0x20 PUSH1 0x4 DUP3 ADD MSTORE PUSH1 0x2C PUSH1 0x24 DUP3 ADD MSTORE PUSH32 0x506F6F6C3A2043616E277420726F6C6C206F766572206265666F726520746865 PUSH1 0x44 DUP3 ADD MSTORE PUSH12 0x2065787069727920656E6473 PUSH1 0xA0 SHL PUSH1 0x64 DUP3 ADD MSTORE PUSH1 0x84 ADD PUSH2 0x889 JUMP JUMPDEST PUSH1 0x8 SLOAD ISZERO DUP1 ISZERO PUSH2 0x13CD JUMPI POP PUSH1 0x9 SLOAD ISZERO JUMPDEST PUSH2 0x142D JUMPI PUSH1 0x40 MLOAD PUSH3 0x461BCD PUSH1 0xE5 SHL DUP2 MSTORE PUSH1 0x20 PUSH1 0x4 DUP3 ADD MSTORE PUSH1 0x2B PUSH1 0x24 DUP3 ADD MSTORE PUSH32 0x506F6F6C3A2043757272656E7420726F756E64206861736E277420656E646564 PUSH1 0x44 DUP3 ADD MSTORE PUSH11 0x20636F6D706C6574656C79 PUSH1 0xA8 SHL PUSH1 0x64 DUP3 ADD MSTORE PUSH1 0x84 ADD PUSH2 0x889 JUMP JUMPDEST PUSH2 0x1436 DUP4 PUSH2 0x2381 JUMP JUMPDEST PUSH2 0x143F DUP3 PUSH2 0x234E JUMP JUMPDEST PUSH1 0xD DUP1 SLOAD SWAP1 PUSH1 0x0 PUSH2 0x144F DUP4 PUSH2 0x2C66 JUMP JUMPDEST SWAP1 SWAP2 SSTORE POP POP PUSH1 0xE DUP1 SLOAD PUSH3 0xFF0000 NOT AND SWAP1 SSTORE PUSH1 0xD SLOAD PUSH1 0x40 MLOAD SWAP1 DUP2 MSTORE PUSH32 0xB7D59F17FD712066F944B068E5F63958FB182DAB57679A35484F59E033361E5B SWAP1 PUSH1 0x20 ADD JUMPDEST PUSH1 0x40 MLOAD DUP1 SWAP2 SUB SWAP1 LOG1 POP POP POP JUMP JUMPDEST PUSH1 0x9 SLOAD PUSH1 0x11 SLOAD PUSH1 0x40 MLOAD PUSH4 0x70A08231 PUSH1 0xE0 SHL DUP2 MSTORE PUSH1 0x0 SWAP3 SWAP2 PUSH1 0x1 PUSH1 0x1 PUSH1 0xA0 SHL SUB AND SWAP1 PUSH4 0x70A08231 SWAP1 PUSH2 0x14D1 SWAP1 ADDRESS SWAP1 PUSH1 0x4 ADD PUSH2 0x2A5F JUMP JUMPDEST PUSH1 0x20 PUSH1 0x40 MLOAD DUP1 DUP4 SUB DUP2 DUP7 DUP1 EXTCODESIZE ISZERO DUP1 ISZERO PUSH2 0x14E9 JUMPI PUSH1 0x0 DUP1 REVERT JUMPDEST POP GAS STATICCALL ISZERO DUP1 ISZERO PUSH2 0x14FD JUMPI RETURNDATASIZE PUSH1 0x0 DUP1 RETURNDATACOPY RETURNDATASIZE PUSH1 0x0 REVERT JUMPDEST POP POP POP POP PUSH1 0x40 MLOAD RETURNDATASIZE PUSH1 0x1F NOT PUSH1 0x1F DUP3 ADD AND DUP3 ADD DUP1 PUSH1 0x40 MSTORE POP DUP2 ADD SWAP1 PUSH2 0x12D2 SWAP2 SWAP1 PUSH2 0x2947 JUMP JUMPDEST PUSH1 0x0 PUSH1 0xC SLOAD TIMESTAMP GT PUSH2 0x156C JUMPI PUSH1 0x40 MLOAD PUSH3 0x461BCD PUSH1 0xE5 SHL DUP2 MSTORE PUSH1 0x20 PUSH1 0x4 DUP3 ADD MSTORE PUSH1 0x15 PUSH1 0x24 DUP3 ADD MSTORE PUSH21 0x141BDBDB0E88139BDD081CDD185C9D1959081E595D PUSH1 0x5A SHL PUSH1 0x44 DUP3 ADD MSTORE PUSH1 0x64 ADD PUSH2 0x889 JUMP JUMPDEST PUSH1 0xE SLOAD PUSH1 0xFF AND ISZERO PUSH2 0x15B5 JUMPI PUSH1 0x40 MLOAD PUSH3 0x461BCD PUSH1 0xE5 SHL DUP2 MSTORE PUSH1 0x20 PUSH1 0x4 DUP3 ADD MSTORE PUSH1 0x13 PUSH1 0x24 DUP3 ADD MSTORE PUSH19 0x141BDBDB0E88105B1C9958591E48195B991959 PUSH1 0x6A SHL PUSH1 0x44 DUP3 ADD MSTORE PUSH1 0x64 ADD PUSH2 0x889 JUMP JUMPDEST PUSH1 0xE SLOAD PUSH4 0x1000000 SWAP1 DIV PUSH1 0x1 PUSH1 0x1 PUSH1 0xA0 SHL SUB AND CALLER EQ PUSH2 0x15E6 JUMPI PUSH1 0x40 MLOAD PUSH3 0x461BCD PUSH1 0xE5 SHL DUP2 MSTORE PUSH1 0x4 ADD PUSH2 0x889 SWAP1 PUSH2 0x2B05 JUMP JUMPDEST PUSH1 0x0 PUSH2 0x15F1 PUSH1 0x2 SLOAD SWAP1 JUMP JUMPDEST PUSH1 0x11 SLOAD PUSH1 0x40 MLOAD PUSH4 0x70A08231 PUSH1 0xE0 SHL DUP2 MSTORE SWAP2 SWAP3 POP PUSH1 0x0 SWAP2 PUSH1 0x1 PUSH1 0x1 PUSH1 0xA0 SHL SUB SWAP1 SWAP2 AND SWAP1 PUSH4 0x70A08231 SWAP1 PUSH2 0x1627 SWAP1 ADDRESS SWAP1 PUSH1 0x4 ADD PUSH2 0x2A5F JUMP JUMPDEST PUSH1 0x20 PUSH1 0x40 MLOAD DUP1 DUP4 SUB DUP2 DUP7 DUP1 EXTCODESIZE ISZERO DUP1 ISZERO PUSH2 0x163F JUMPI PUSH1 0x0 DUP1 REVERT JUMPDEST POP GAS STATICCALL ISZERO DUP1 ISZERO PUSH2 0x1653 JUMPI RETURNDATASIZE PUSH1 0x0 DUP1 RETURNDATACOPY RETURNDATASIZE PUSH1 0x0 REVERT JUMPDEST POP POP POP POP PUSH1 0x40 MLOAD RETURNDATASIZE PUSH1 0x1F NOT PUSH1 0x1F DUP3 ADD AND DUP3 ADD DUP1 PUSH1 0x40 MSTORE POP DUP2 ADD SWAP1 PUSH2 0x1677 SWAP2 SWAP1 PUSH2 0x2947 JUMP JUMPDEST PUSH1 0xA SLOAD SWAP1 SWAP2 POP PUSH2 0x1687 DUP7 DUP4 PUSH2 0x2B86 JUMP JUMPDEST GT ISZERO PUSH2 0x16EB JUMPI PUSH1 0x40 MLOAD PUSH3 0x461BCD PUSH1 0xE5 SHL DUP2 MSTORE PUSH1 0x20 PUSH1 0x4 DUP3 ADD MSTORE PUSH1 0x2D PUSH1 0x24 DUP3 ADD MSTORE PUSH32 0x506F6F6C3A20506F6F6C2068617320616C726561647920726561636865642069 PUSH1 0x44 DUP3 ADD MSTORE PUSH13 0x1D09DCC81B585E081B1A5B5A5D PUSH1 0x9A SHL PUSH1 0x64 DUP3 ADD MSTORE PUSH1 0x84 ADD PUSH2 0x889 JUMP JUMPDEST PUSH1 0x0 DUP3 GT DUP1 ISZERO PUSH2 0x16FB JUMPI POP PUSH1 0x0 DUP2 GT JUMPDEST ISZERO PUSH2 0x171C JUMPI DUP1 PUSH2 0x170B DUP4 DUP8 PUSH2 0x2BB2 JUMP JUMPDEST PUSH2 0x1715 SWAP2 SWAP1 PUSH2 0x2B9E JUMP JUMPDEST SWAP3 POP PUSH2 0x172B JUMP JUMPDEST PUSH2 0x1728 PUSH2 0x3E8 DUP7 PUSH2 0x2BB2 JUMP JUMPDEST SWAP3 POP JUMPDEST DUP4 DUP4 LT ISZERO PUSH2 0x177B JUMPI PUSH1 0x40 MLOAD PUSH3 0x461BCD PUSH1 0xE5 SHL DUP2 MSTORE PUSH1 0x20 PUSH1 0x4 DUP3 ADD MSTORE PUSH1 0x1D PUSH1 0x24 DUP3 ADD MSTORE PUSH32 0x506F6F6C3A204D696E74206C696D697420697320746F6F206C61726765000000 PUSH1 0x44 DUP3 ADD MSTORE PUSH1 0x64 ADD PUSH2 0x889 JUMP JUMPDEST PUSH1 0x0 DUP4 GT PUSH2 0x179B JUMPI PUSH1 0x40 MLOAD PUSH3 0x461BCD PUSH1 0xE5 SHL DUP2 MSTORE PUSH1 0x4 ADD PUSH2 0x889 SWAP1 PUSH2 0x2B3C JUMP JUMPDEST PUSH1 0x11 SLOAD PUSH1 0x40 MLOAD PUSH4 0x23B872DD PUSH1 0xE0 SHL DUP2 MSTORE CALLER PUSH1 0x4 DUP3 ADD MSTORE ADDRESS PUSH1 0x24 DUP3 ADD MSTORE PUSH1 0x44 DUP2 ADD DUP8 SWAP1 MSTORE PUSH1 0x0 SWAP2 PUSH1 0x1 PUSH1 0x1 PUSH1 0xA0 SHL SUB AND SWAP1 PUSH4 0x23B872DD SWAP1 PUSH1 0x64 ADD PUSH1 0x20 PUSH1 0x40 MLOAD DUP1 DUP4 SUB DUP2 PUSH1 0x0 DUP8 DUP1 EXTCODESIZE ISZERO DUP1 ISZERO PUSH2 0x17EE JUMPI PUSH1 0x0 DUP1 REVERT JUMPDEST POP GAS CALL ISZERO DUP1 ISZERO PUSH2 0x1802 JUMPI RETURNDATASIZE PUSH1 0x0 DUP1 RETURNDATACOPY RETURNDATASIZE PUSH1 0x0 REVERT JUMPDEST POP POP POP POP PUSH1 0x40 MLOAD RETURNDATASIZE PUSH1 0x1F NOT PUSH1 0x1F DUP3 ADD AND DUP3 ADD DUP1 PUSH1 0x40 MSTORE POP DUP2 ADD SWAP1 PUSH2 0x1826 SWAP2 SWAP1 PUSH2 0x28C9 JUMP JUMPDEST SWAP1 POP DUP1 PUSH2 0x188A JUMPI PUSH1 0x40 MLOAD PUSH3 0x461BCD PUSH1 0xE5 SHL DUP2 MSTORE PUSH1 0x20 PUSH1 0x4 DUP3 ADD MSTORE PUSH1 0x2C PUSH1 0x24 DUP3 ADD MSTORE PUSH32 0x506F6F6C3A205468652050726F76696465207472616E73666572206469646E27 PUSH1 0x44 DUP3 ADD MSTORE PUSH12 0xE840CEDE40E8D0E4DEEACED PUSH1 0xA3 SHL PUSH1 0x64 DUP3 ADD MSTORE PUSH1 0x84 ADD PUSH2 0x889 JUMP JUMPDEST PUSH2 0x1894 CALLER DUP6 PUSH2 0x23BC JUMP JUMPDEST PUSH1 0x40 DUP1 MLOAD DUP8 DUP2 MSTORE PUSH1 0x20 DUP2 ADD DUP7 SWAP1 MSTORE CALLER SWAP2 PUSH32 0x4089141EA5E4C16575F5EBF65F1786497EA07C175846FC7745EF8D8986A4FF65 SWAP2 ADD PUSH1 0x40 MLOAD DUP1 SWAP2 SUB SWAP1 LOG2 POP POP POP SWAP3 SWAP2 POP POP JUMP JUMPDEST PUSH1 0x0 DUP1 MLOAD PUSH1 0x20 PUSH2 0x2D10 DUP4 CODECOPY DUP2 MLOAD SWAP2 MSTORE PUSH2 0x18F1 DUP2 CALLER PUSH2 0x21FD JUMP JUMPDEST CALLER PUSH1 0x0 SWAP1 DUP2 MSTORE PUSH1 0x10 PUSH1 0x20 MSTORE PUSH1 0x40 SWAP1 KECCAK256 SLOAD DUP5 EQ PUSH2 0x1940 JUMPI PUSH1 0x40 MLOAD PUSH3 0x461BCD PUSH1 0xE5 SHL DUP2 MSTORE PUSH1 0x20 PUSH1 0x4 DUP3 ADD MSTORE PUSH1 0xE PUSH1 0x24 DUP3 ADD MSTORE PUSH14 0x141BDBDB0E8815DC9BDB99C81A59 PUSH1 0x92 SHL PUSH1 0x44 DUP3 ADD MSTORE PUSH1 0x64 ADD PUSH2 0x889 JUMP JUMPDEST PUSH2 0x1948 PUSH2 0x149C JUMP JUMPDEST DUP4 PUSH1 0x8 SLOAD PUSH2 0x1956 SWAP2 SWAP1 PUSH2 0x2B86 JUMP JUMPDEST GT ISZERO PUSH2 0x19A1 JUMPI PUSH1 0x40 MLOAD PUSH3 0x461BCD PUSH1 0xE5 SHL DUP2 MSTORE PUSH1 0x20 PUSH1 0x4 DUP3 ADD MSTORE PUSH1 0x1A PUSH1 0x24 DUP3 ADD MSTORE PUSH26 0x2837B7B61D1020B6B7BAB73A1034B9903A37B7903630B933B297 PUSH1 0x31 SHL PUSH1 0x44 DUP3 ADD MSTORE PUSH1 0x64 ADD PUSH2 0x889 JUMP JUMPDEST CALLER PUSH1 0x0 SWAP1 DUP2 MSTORE PUSH1 0x10 PUSH1 0x20 SWAP1 DUP2 MSTORE PUSH1 0x40 DUP1 DUP4 KECCAK256 DUP2 MLOAD PUSH1 0x60 DUP2 ADD DUP4 MSTORE DUP8 DUP2 MSTORE DUP1 DUP5 ADD DUP8 DUP2 MSTORE PUSH1 0x1 SWAP4 DUP3 ADD DUP5 DUP2 MSTORE DUP4 SLOAD DUP1 DUP7 ADD DUP6 SSTORE SWAP4 DUP8 MSTORE SWAP5 SWAP1 SWAP6 KECCAK256 SWAP1 MLOAD PUSH1 0x3 SWAP1 SWAP3 MUL ADD SWAP1 DUP2 SSTORE SWAP3 MLOAD SWAP1 DUP4 ADD SSTORE MLOAD PUSH1 0x2 SWAP1 SWAP2 ADD DUP1 SLOAD PUSH1 0xFF NOT AND SWAP2 ISZERO ISZERO SWAP2 SWAP1 SWAP2 OR SWAP1 SSTORE PUSH1 0x9 SLOAD PUSH2 0x1A0E SWAP1 DUP4 SWAP1 PUSH2 0x2B86 JUMP JUMPDEST PUSH1 0x9 SSTORE PUSH1 0x8 SLOAD PUSH2 0x1A1F SWAP1 DUP5 SWAP1 PUSH2 0x2B86 JUMP JUMPDEST PUSH1 0x8 SSTORE POP POP POP POP JUMP JUMPDEST PUSH1 0x1 PUSH1 0x1 PUSH1 0xA0 SHL SUB DUP4 AND PUSH2 0x1A8A JUMPI PUSH1 0x40 MLOAD PUSH3 0x461BCD PUSH1 0xE5 SHL DUP2 MSTORE PUSH1 0x20 PUSH1 0x4 DUP3 ADD MSTORE PUSH1 0x24 DUP1 DUP3 ADD MSTORE PUSH32 0x45524332303A20617070726F76652066726F6D20746865207A65726F20616464 PUSH1 0x44 DUP3 ADD MSTORE PUSH4 0x72657373 PUSH1 0xE0 SHL PUSH1 0x64 DUP3 ADD MSTORE PUSH1 0x84 ADD PUSH2 0x889 JUMP JUMPDEST PUSH1 0x1 PUSH1 0x1 PUSH1 0xA0 SHL SUB DUP3 AND PUSH2 0x1AEB JUMPI PUSH1 0x40 MLOAD PUSH3 0x461BCD PUSH1 0xE5 SHL DUP2 MSTORE PUSH1 0x20 PUSH1 0x4 DUP3 ADD MSTORE PUSH1 0x22 PUSH1 0x24 DUP3 ADD MSTORE PUSH32 0x45524332303A20617070726F766520746F20746865207A65726F206164647265 PUSH1 0x44 DUP3 ADD MSTORE PUSH2 0x7373 PUSH1 0xF0 SHL PUSH1 0x64 DUP3 ADD MSTORE PUSH1 0x84 ADD PUSH2 0x889 JUMP JUMPDEST PUSH1 0x1 PUSH1 0x1 PUSH1 0xA0 SHL SUB DUP4 DUP2 AND PUSH1 0x0 DUP2 DUP2 MSTORE PUSH1 0x1 PUSH1 0x20 SWAP1 DUP2 MSTORE PUSH1 0x40 DUP1 DUP4 KECCAK256 SWAP5 DUP8 AND DUP1 DUP5 MSTORE SWAP5 DUP3 MSTORE SWAP2 DUP3 SWAP1 KECCAK256 DUP6 SWAP1 SSTORE SWAP1 MLOAD DUP5 DUP2 MSTORE PUSH32 0x8C5BE1E5EBEC7D5BD14F71427D1E84F3DD0314C0F7B2291E5B200AC8C7C3B925 SWAP2 ADD PUSH1 0x40 MLOAD DUP1 SWAP2 SUB SWAP1 LOG3 POP POP POP JUMP JUMPDEST PUSH1 0x0 PUSH1 0x0 DUP1 MLOAD PUSH1 0x20 PUSH2 0x2D10 DUP4 CODECOPY DUP2 MLOAD SWAP2 MSTORE PUSH2 0x1B67 DUP2 CALLER PUSH2 0x21FD JUMP JUMPDEST CALLER PUSH1 0x0 SWAP1 DUP2 MSTORE PUSH1 0x10 PUSH1 0x20 MSTORE PUSH1 0x40 DUP2 KECCAK256 DUP1 SLOAD DUP6 SWAP1 DUP2 LT PUSH2 0x1B96 JUMPI PUSH4 0x4E487B71 PUSH1 0xE0 SHL PUSH1 0x0 MSTORE PUSH1 0x32 PUSH1 0x4 MSTORE PUSH1 0x24 PUSH1 0x0 REVERT JUMPDEST PUSH1 0x0 SWAP2 DUP3 MSTORE PUSH1 0x20 SWAP1 SWAP2 KECCAK256 PUSH1 0x3 SWAP1 SWAP2 MUL ADD PUSH1 0x2 DUP2 ADD SLOAD SWAP1 SWAP2 POP PUSH1 0xFF AND PUSH2 0x1BCD JUMPI PUSH1 0x40 MLOAD PUSH3 0x461BCD PUSH1 0xE5 SHL DUP2 MSTORE PUSH1 0x4 ADD PUSH2 0x889 SWAP1 PUSH2 0x2ABF JUMP JUMPDEST PUSH1 0x2 DUP2 ADD DUP1 SLOAD PUSH1 0xFF NOT AND SWAP1 SSTORE PUSH1 0x1 DUP2 ADD SLOAD PUSH1 0x9 SLOAD PUSH2 0x1BEB SWAP2 SWAP1 PUSH2 0x2BD1 JUMP JUMPDEST PUSH1 0x9 SSTORE DUP1 SLOAD PUSH1 0x8 SLOAD PUSH2 0x1BFD SWAP2 SWAP1 PUSH2 0x2BD1 JUMP JUMPDEST PUSH1 0x8 SSTORE PUSH1 0x1 ADD SLOAD SWAP4 SWAP3 POP POP POP JUMP JUMPDEST PUSH1 0x1 PUSH1 0x1 PUSH1 0xA0 SHL SUB DUP4 AND PUSH2 0x1C6F JUMPI PUSH1 0x40 MLOAD PUSH3 0x461BCD PUSH1 0xE5 SHL DUP2 MSTORE PUSH1 0x20 PUSH1 0x4 DUP3 ADD MSTORE PUSH1 0x25 PUSH1 0x24 DUP3 ADD MSTORE PUSH32 0x45524332303A207472616E736665722066726F6D20746865207A65726F206164 PUSH1 0x44 DUP3 ADD MSTORE PUSH5 0x6472657373 PUSH1 0xD8 SHL PUSH1 0x64 DUP3 ADD MSTORE PUSH1 0x84 ADD PUSH2 0x889 JUMP JUMPDEST PUSH1 0x1 PUSH1 0x1 PUSH1 0xA0 SHL SUB DUP3 AND PUSH2 0x1CD1 JUMPI PUSH1 0x40 MLOAD PUSH3 0x461BCD PUSH1 0xE5 SHL DUP2 MSTORE PUSH1 0x20 PUSH1 0x4 DUP3 ADD MSTORE PUSH1 0x23 PUSH1 0x24 DUP3 ADD MSTORE PUSH32 0x45524332303A207472616E7366657220746F20746865207A65726F2061646472 PUSH1 0x44 DUP3 ADD MSTORE PUSH3 0x657373 PUSH1 0xE8 SHL PUSH1 0x64 DUP3 ADD MSTORE PUSH1 0x84 ADD PUSH2 0x889 JUMP JUMPDEST PUSH1 0x1 PUSH1 0x1 PUSH1 0xA0 SHL SUB DUP4 AND PUSH1 0x0 SWAP1 DUP2 MSTORE PUSH1 0x20 DUP2 SWAP1 MSTORE PUSH1 0x40 SWAP1 KECCAK256 SLOAD DUP2 DUP2 LT ISZERO PUSH2 0x1D49 JUMPI PUSH1 0x40 MLOAD PUSH3 0x461BCD PUSH1 0xE5 SHL DUP2 MSTORE PUSH1 0x20 PUSH1 0x4 DUP3 ADD MSTORE PUSH1 0x26 PUSH1 0x24 DUP3 ADD MSTORE PUSH32 0x45524332303A207472616E7366657220616D6F756E7420657863656564732062 PUSH1 0x44 DUP3 ADD MSTORE PUSH6 0x616C616E6365 PUSH1 0xD0 SHL PUSH1 0x64 DUP3 ADD MSTORE PUSH1 0x84 ADD PUSH2 0x889 JUMP JUMPDEST PUSH1 0x1 PUSH1 0x1 PUSH1 0xA0 SHL SUB DUP1 DUP6 AND PUSH1 0x0 SWAP1 DUP2 MSTORE PUSH1 0x20 DUP2 SWAP1 MSTORE PUSH1 0x40 DUP1 DUP3 KECCAK256 DUP6 DUP6 SUB SWAP1 SSTORE SWAP2 DUP6 AND DUP2 MSTORE SWAP1 DUP2 KECCAK256 DUP1 SLOAD DUP5 SWAP3 SWAP1 PUSH2 0x1D80 SWAP1 DUP5 SWAP1 PUSH2 0x2B86 JUMP JUMPDEST SWAP3 POP POP DUP2 SWAP1 SSTORE POP DUP3 PUSH1 0x1 PUSH1 0x1 PUSH1 0xA0 SHL SUB AND DUP5 PUSH1 0x1 PUSH1 0x1 PUSH1 0xA0 SHL SUB AND PUSH1 0x0 DUP1 MLOAD PUSH1 0x20 PUSH2 0x2D30 DUP4 CODECOPY DUP2 MLOAD SWAP2 MSTORE DUP5 PUSH1 0x40 MLOAD PUSH2 0x1DBA SWAP2 DUP2 MSTORE PUSH1 0x20 ADD SWAP1 JUMP JUMPDEST PUSH1 0x40 MLOAD DUP1 SWAP2 SUB SWAP1 LOG3 JUMPDEST POP POP POP POP JUMP JUMPDEST PUSH1 0x0 DUP1 PUSH2 0x1DD4 PUSH2 0x12C5 JUMP JUMPDEST GT PUSH2 0x1E35 JUMPI PUSH1 0x40 MLOAD PUSH3 0x461BCD PUSH1 0xE5 SHL DUP2 MSTORE PUSH1 0x20 PUSH1 0x4 DUP3 ADD MSTORE PUSH1 0x2B PUSH1 0x24 DUP3 ADD MSTORE PUSH32 0x506F6F6C3A204E6F7420656E6F7567682066756E6473206F6E2074686520706F PUSH1 0x44 DUP3 ADD MSTORE PUSH11 0x1BDB0818DBDB9D1C9858DD PUSH1 0xAA SHL PUSH1 0x64 DUP3 ADD MSTORE PUSH1 0x84 ADD PUSH2 0x889 JUMP JUMPDEST PUSH1 0x0 PUSH2 0x1E40 PUSH1 0x2 SLOAD SWAP1 JUMP JUMPDEST SWAP1 POP PUSH1 0x0 PUSH2 0x1E4C PUSH2 0x149C JUMP JUMPDEST SWAP1 POP PUSH1 0x0 DUP3 DUP3 PUSH2 0x1E5B DUP8 PUSH2 0xE2B JUMP JUMPDEST PUSH2 0x1E65 SWAP2 SWAP1 PUSH2 0x2BB2 JUMP JUMPDEST PUSH2 0x1E6F SWAP2 SWAP1 PUSH2 0x2B9E JUMP JUMPDEST SWAP1 POP PUSH1 0x0 DUP7 DUP3 LT PUSH2 0x1E80 JUMPI DUP7 PUSH2 0x1E82 JUMP JUMPDEST DUP2 JUMPDEST SWAP1 POP PUSH2 0x1E97 PUSH2 0x1E91 DUP6 DUP4 PUSH2 0x2BB2 JUMP JUMPDEST DUP5 PUSH2 0x2489 JUMP JUMPDEST SWAP5 POP PUSH2 0x1EA2 DUP7 PUSH2 0xE2B JUMP JUMPDEST DUP6 GT ISZERO PUSH2 0x1EED JUMPI PUSH1 0x40 MLOAD PUSH3 0x461BCD PUSH1 0xE5 SHL DUP2 MSTORE PUSH1 0x20 PUSH1 0x4 DUP3 ADD MSTORE PUSH1 0x19 PUSH1 0x24 DUP3 ADD MSTORE PUSH25 0x506F6F6C3A20416D6F756E7420697320746F6F206C61726765 PUSH1 0x38 SHL PUSH1 0x44 DUP3 ADD MSTORE PUSH1 0x64 ADD PUSH2 0x889 JUMP JUMPDEST PUSH1 0x0 DUP6 GT PUSH2 0x1F0D JUMPI PUSH1 0x40 MLOAD PUSH3 0x461BCD PUSH1 0xE5 SHL DUP2 MSTORE PUSH1 0x4 ADD PUSH2 0x889 SWAP1 PUSH2 0x2B3C JUMP JUMPDEST PUSH2 0x1F17 DUP7 DUP7 PUSH2 0x24C9 JUMP JUMPDEST PUSH1 0x11 SLOAD PUSH1 0x40 MLOAD PUSH4 0xA9059CBB PUSH1 0xE0 SHL DUP2 MSTORE PUSH1 0x0 SWAP2 PUSH1 0x1 PUSH1 0x1 PUSH1 0xA0 SHL SUB AND SWAP1 PUSH4 0xA9059CBB SWAP1 PUSH2 0x1F4A SWAP1 DUP11 SWAP1 DUP7 SWAP1 PUSH1 0x4 ADD PUSH2 0x2A73 JUMP JUMPDEST PUSH1 0x20 PUSH1 0x40 MLOAD DUP1 DUP4 SUB DUP2 PUSH1 0x0 DUP8 DUP1 EXTCODESIZE ISZERO DUP1 ISZERO PUSH2 0x1F64 JUMPI PUSH1 0x0 DUP1 REVERT JUMPDEST POP GAS CALL ISZERO DUP1 ISZERO PUSH2 0x1F78 JUMPI RETURNDATASIZE PUSH1 0x0 DUP1 RETURNDATACOPY RETURNDATASIZE PUSH1 0x0 REVERT JUMPDEST POP POP POP POP PUSH1 0x40 MLOAD RETURNDATASIZE PUSH1 0x1F NOT PUSH1 0x1F DUP3 ADD AND DUP3 ADD DUP1 PUSH1 0x40 MSTORE POP DUP2 ADD SWAP1 PUSH2 0x1F9C SWAP2 SWAP1 PUSH2 0x28C9 JUMP JUMPDEST SWAP1 POP DUP1 PUSH2 0x1FFA JUMPI PUSH1 0x40 MLOAD PUSH3 0x461BCD PUSH1 0xE5 SHL DUP2 MSTORE PUSH1 0x20 PUSH1 0x4 DUP3 ADD MSTORE PUSH1 0x26 PUSH1 0x24 DUP3 ADD MSTORE PUSH32 0x506F6F6C3A20546865205769746864726177616C206469646E277420676F2074 PUSH1 0x44 DUP3 ADD MSTORE PUSH6 0xD0E4DEEACED PUSH1 0xD3 SHL PUSH1 0x64 DUP3 ADD MSTORE PUSH1 0x84 ADD PUSH2 0x889 JUMP JUMPDEST PUSH1 0x40 DUP1 MLOAD DUP4 DUP2 MSTORE PUSH1 0x20 DUP2 ADD DUP9 SWAP1 MSTORE PUSH1 0x1 PUSH1 0x1 PUSH1 0xA0 SHL SUB DUP10 AND SWAP2 PUSH32 0xF279E6A1F5E320CCA91135676D9CB6E44CA8A08C0B88342BCDB1144F6511B568 SWAP2 ADD PUSH1 0x40 MLOAD DUP1 SWAP2 SUB SWAP1 LOG2 POP POP POP POP POP SWAP3 SWAP2 POP POP JUMP JUMPDEST PUSH1 0x0 PUSH2 0x2054 DUP3 PUSH2 0xE2B JUMP JUMPDEST GT PUSH2 0x209D JUMPI PUSH1 0x40 MLOAD PUSH3 0x461BCD PUSH1 0xE5 SHL DUP2 MSTORE PUSH1 0x20 PUSH1 0x4 DUP3 ADD MSTORE PUSH1 0x19 PUSH1 0x24 DUP3 ADD MSTORE PUSH25 0x506F6F6C3A204E6F7468696E6720746F207769746864726177 PUSH1 0x38 SHL PUSH1 0x44 DUP3 ADD MSTORE PUSH1 0x64 ADD PUSH2 0x889 JUMP JUMPDEST PUSH1 0x1 PUSH1 0x1 PUSH1 0xA0 SHL SUB DUP2 AND PUSH1 0x0 SWAP1 DUP2 MSTORE PUSH1 0x13 PUSH1 0x20 MSTORE PUSH1 0x40 SWAP1 KECCAK256 PUSH1 0x1 DUP2 ADD SLOAD PUSH1 0xFF AND ISZERO PUSH2 0x2140 JUMPI DUP1 SLOAD PUSH1 0x0 SWAP1 DUP2 MSTORE PUSH1 0x12 PUSH1 0x20 MSTORE PUSH1 0x40 SWAP1 KECCAK256 PUSH1 0xD SLOAD PUSH1 0x1 DUP3 ADD SLOAD EQ DUP1 PUSH2 0x20E8 JUMPI POP PUSH1 0x1 DUP2 ADD SLOAD ISZERO JUMPDEST PUSH2 0x212C JUMPI PUSH1 0x40 MLOAD PUSH3 0x461BCD PUSH1 0xE5 SHL DUP2 MSTORE PUSH1 0x20 PUSH1 0x4 DUP3 ADD MSTORE PUSH1 0x15 PUSH1 0x24 DUP3 ADD MSTORE PUSH21 0x506F6F6C3A205374617465206C6F636B656420757 PUSH1 0x5C SHL PUSH1 0x44 DUP3 ADD MSTORE PUSH1 0x64 ADD PUSH2 0x889 JUMP JUMPDEST DUP1 SLOAD PUSH2 0x2139 SWAP1 DUP6 SWAP1 PUSH2 0x2B86 JUMP JUMPDEST SWAP1 SSTORE PUSH2 0x21CC JUMP JUMPDEST PUSH1 0x40 DUP1 MLOAD PUSH1 0x60 DUP2 ADD DUP3 MSTORE DUP5 DUP2 MSTORE PUSH1 0xD SLOAD PUSH1 0x20 DUP1 DUP4 ADD SWAP2 DUP3 MSTORE PUSH1 0x1 PUSH1 0x1 PUSH1 0xA0 SHL SUB DUP7 DUP2 AND DUP5 DUP7 ADD SWAP1 DUP2 MSTORE PUSH1 0x15 DUP1 SLOAD PUSH1 0x0 SWAP1 DUP2 MSTORE PUSH1 0x12 SWAP1 SWAP5 MSTORE SWAP6 DUP4 KECCAK256 SWAP5 MLOAD DUP6 SSTORE SWAP3 MLOAD PUSH1 0x1 DUP1 DUP7 ADD SWAP2 SWAP1 SWAP2 SSTORE SWAP3 MLOAD PUSH1 0x2 SWAP1 SWAP5 ADD DUP1 SLOAD PUSH1 0x1 PUSH1 0x1 PUSH1 0xA0 SHL SUB NOT AND SWAP5 SWAP1 SWAP2 AND SWAP4 SWAP1 SWAP4 OR SWAP1 SWAP3 SSTORE DUP3 SLOAD DUP5 SSTORE DUP4 DUP2 ADD DUP1 SLOAD PUSH1 0xFF NOT AND SWAP1 SWAP2 OR SWAP1 SSTORE DUP2 SLOAD SWAP2 SWAP1 PUSH2 0x21C6 DUP4 PUSH2 0x2C66 JUMP JUMPDEST SWAP2 SWAP1 POP SSTORE POP JUMPDEST PUSH32 0x8E544170E8E5E6C868A252670B8AA06077B96DEE38DCBB4B645909DB2FB3481 DUP4 DUP4 PUSH1 0x40 MLOAD PUSH2 0x148F SWAP3 SWAP2 SWAP1 PUSH2 0x2B6F JUMP JUMPDEST PUSH2 0x2207 DUP3 DUP3 PUSH2 0x116D JUMP JUMPDEST PUSH2 0x7B4 JUMPI PUSH2 0x221F DUP2 PUSH1 0x1 PUSH1 0x1 PUSH1 0xA0 SHL SUB AND PUSH1 0x14 PUSH2 0x2605 JUMP JUMPDEST PUSH2 0x222A DUP4 PUSH1 0x20 PUSH2 0x2605 JUMP JUMPDEST PUSH1 0x40 MLOAD PUSH1 0x20 ADD PUSH2 0x223B SWAP3 SWAP2 SWAP1 PUSH2 0x29F0 JUMP JUMPDEST PUSH1 0x40 DUP1 MLOAD PUSH1 0x1F NOT DUP2 DUP5 SUB ADD DUP2 MSTORE SWAP1 DUP3 SWAP1 MSTORE PUSH3 0x461BCD PUSH1 0xE5 SHL DUP3 MSTORE PUSH2 0x889 SWAP2 PUSH1 0x4 ADD PUSH2 0x2A8C JUMP JUMPDEST PUSH2 0x226B DUP3 DUP3 PUSH2 0x116D JUMP JUMPDEST PUSH2 0x7B4 JUMPI PUSH1 0x0 DUP3 DUP2 MSTORE PUSH1 0x5 PUSH1 0x20 SWAP1 DUP2 MSTORE PUSH1 0x40 DUP1 DUP4 KECCAK256 PUSH1 0x1 PUSH1 0x1 PUSH1 0xA0 SHL SUB DUP6 AND DUP5 MSTORE SWAP1 SWAP2 MSTORE SWAP1 KECCAK256 DUP1 SLOAD PUSH1 0xFF NOT AND PUSH1 0x1 OR SWAP1 SSTORE PUSH2 0x22A3 CALLER SWAP1 JUMP JUMPDEST PUSH1 0x1 PUSH1 0x1 PUSH1 0xA0 SHL SUB AND DUP2 PUSH1 0x1 PUSH1 0x1 PUSH1 0xA0 SHL SUB AND DUP4 PUSH32 0x2F8788117E7EFF1D82E926EC794901D17C78024A50270940304540A733656F0D PUSH1 0x40 MLOAD PUSH1 0x40 MLOAD DUP1 SWAP2 SUB SWAP1 LOG4 POP POP JUMP JUMPDEST PUSH2 0x22F1 DUP3 DUP3 PUSH2 0x116D JUMP JUMPDEST ISZERO PUSH2 0x7B4 JUMPI PUSH1 0x0 DUP3 DUP2 MSTORE PUSH1 0x5 PUSH1 0x20 SWAP1 DUP2 MSTORE PUSH1 0x40 DUP1 DUP4 KECCAK256 PUSH1 0x1 PUSH1 0x1 PUSH1 0xA0 SHL SUB DUP6 AND DUP1 DUP6 MSTORE SWAP3 MSTORE DUP1 DUP4 KECCAK256 DUP1 SLOAD PUSH1 0xFF NOT AND SWAP1 SSTORE MLOAD CALLER SWAP3 DUP6 SWAP2 PUSH32 0xF6391F5C32D9C69D2A47EA670B442974B53935D1EDC7FD64EB21E047A839171B SWAP2 SWAP1 LOG4 POP POP JUMP JUMPDEST PUSH1 0xA DUP2 SWAP1 SSTORE PUSH1 0x40 MLOAD DUP2 SWAP1 PUSH32 0x2138D5B63F1E1FC5996475C0D8565B0F4CE68622680C894DB2BFD3ECE685D257 SWAP1 PUSH1 0x0 SWAP1 LOG2 POP JUMP JUMPDEST PUSH1 0xB DUP2 SWAP1 SSTORE PUSH1 0x40 MLOAD DUP2 DUP2 MSTORE PUSH32 0x9C73644BCD0A85B158FE496D03C38C93FC8A1F28ED476B2779DF681D21253485 SWAP1 PUSH1 0x20 ADD PUSH1 0x40 MLOAD DUP1 SWAP2 SUB SWAP1 LOG1 POP JUMP JUMPDEST PUSH1 0x1 PUSH1 0x1 PUSH1 0xA0 SHL SUB DUP3 AND PUSH2 0x2412 JUMPI PUSH1 0x40 MLOAD PUSH3 0x461BCD PUSH1 0xE5 SHL DUP2 MSTORE PUSH1 0x20 PUSH1 0x4 DUP3 ADD MSTORE PUSH1 0x1F PUSH1 0x24 DUP3 ADD MSTORE PUSH32 0x45524332303A206D696E7420746F20746865207A65726F206164647265737300 PUSH1 0x44 DUP3 ADD MSTORE PUSH1 0x64 ADD PUSH2 0x889 JUMP JUMPDEST DUP1 PUSH1 0x2 PUSH1 0x0 DUP3 DUP3 SLOAD PUSH2 0x2424 SWAP2 SWAP1 PUSH2 0x2B86 JUMP JUMPDEST SWAP1 SWAP2 SSTORE POP POP PUSH1 0x1 PUSH1 0x1 PUSH1 0xA0 SHL SUB DUP3 AND PUSH1 0x0 SWAP1 DUP2 MSTORE PUSH1 0x20 DUP2 SWAP1 MSTORE PUSH1 0x40 DUP2 KECCAK256 DUP1 SLOAD DUP4 SWAP3 SWAP1 PUSH2 0x2451 SWAP1 DUP5 SWAP1 PUSH2 0x2B86 JUMP JUMPDEST SWAP1 SWAP2 SSTORE POP POP PUSH1 0x40 MLOAD DUP2 DUP2 MSTORE PUSH1 0x1 PUSH1 0x1 PUSH1 0xA0 SHL SUB DUP4 AND SWAP1 PUSH1 0x0 SWAP1 PUSH1 0x0 DUP1 MLOAD PUSH1 0x20 PUSH2 0x2D30 DUP4 CODECOPY DUP2 MLOAD SWAP2 MSTORE SWAP1 PUSH1 0x20 ADD PUSH1 0x40 MLOAD DUP1 SWAP2 SUB SWAP1 LOG3 POP POP JUMP JUMPDEST PUSH1 0x0 DUP1 DUP3 GT PUSH2 0x2497 JUMPI PUSH1 0x0 DUP1 REVERT JUMPDEST PUSH1 0x0 PUSH2 0x24A3 DUP4 DUP6 PUSH2 0x2B9E JUMP JUMPDEST SWAP1 POP PUSH2 0x24AF DUP4 DUP6 PUSH2 0x2C81 JUMP JUMPDEST ISZERO PUSH2 0x24C2 JUMPI PUSH2 0x24BF DUP2 PUSH1 0x1 PUSH2 0x2B86 JUMP JUMPDEST SWAP1 POP JUMPDEST SWAP4 SWAP3 POP POP POP JUMP JUMPDEST PUSH1 0x1 PUSH1 0x1 PUSH1 0xA0 SHL SUB DUP3 AND PUSH2 0x2529 JUMPI PUSH1 0x40 MLOAD PUSH3 0x461BCD PUSH1 0xE5 SHL DUP2 MSTORE PUSH1 0x20 PUSH1 0x4 DUP3 ADD MSTORE PUSH1 0x21 PUSH1 0x24 DUP3 ADD MSTORE PUSH32 0x45524332303A206275726E2066726F6D20746865207A65726F20616464726573 PUSH1 0x44 DUP3 ADD MSTORE PUSH1 0x73 PUSH1 0xF8 SHL PUSH1 0x64 DUP3 ADD MSTORE PUSH1 0x84 ADD PUSH2 0x889 JUMP JUMPDEST PUSH1 0x1 PUSH1 0x1 PUSH1 0xA0 SHL SUB DUP3 AND PUSH1 0x0 SWAP1 DUP2 MSTORE PUSH1 0x20 DUP2 SWAP1 MSTORE PUSH1 0x40 SWAP1 KECCAK256 SLOAD DUP2 DUP2 LT ISZERO PUSH2 0x259D JUMPI PUSH1 0x40 MLOAD PUSH3 0x461BCD PUSH1 0xE5 SHL DUP2 MSTORE PUSH1 0x20 PUSH1 0x4 DUP3 ADD MSTORE PUSH1 0x22 PUSH1 0x24 DUP3 ADD MSTORE PUSH32 0x45524332303A206275726E20616D6F756E7420657863656564732062616C616E PUSH1 0x44 DUP3 ADD MSTORE PUSH2 0x6365 PUSH1 0xF0 SHL PUSH1 0x64 DUP3 ADD MSTORE PUSH1 0x84 ADD PUSH2 0x889 JUMP JUMPDEST PUSH1 0x1 PUSH1 0x1 PUSH1 0xA0 SHL SUB DUP4 AND PUSH1 0x0 SWAP1 DUP2 MSTORE PUSH1 0x20 DUP2 SWAP1 MSTORE PUSH1 0x40 DUP2 KECCAK256 DUP4 DUP4 SUB SWAP1 SSTORE PUSH1 0x2 DUP1 SLOAD DUP5 SWAP3 SWAP1 PUSH2 0x25CC SWAP1 DUP5 SWAP1 PUSH2 0x2BD1 JUMP JUMPDEST SWAP1 SWAP2 SSTORE POP POP PUSH1 0x40 MLOAD DUP3 DUP2 MSTORE PUSH1 0x0 SWAP1 PUSH1 0x1 PUSH1 0x1 PUSH1 0xA0 SHL SUB DUP6 AND SWAP1 PUSH1 0x0 DUP1 MLOAD PUSH1 0x20 PUSH2 0x2D30 DUP4 CODECOPY DUP2 MLOAD SWAP2 MSTORE SWAP1 PUSH1 0x20 ADD PUSH1 0x40 MLOAD DUP1 SWAP2 SUB SWAP1 LOG3 POP POP POP JUMP JUMPDEST PUSH1 0x60 PUSH1 0x0 PUSH2 0x2614 DUP4 PUSH1 0x2 PUSH2 0x2BB2 JUMP JUMPDEST PUSH2 0x261F SWAP1 PUSH1 0x2 PUSH2 0x2B86 JUMP JUMPDEST PUSH1 0x1 PUSH1 0x1 PUSH1 0x40 SHL SUB DUP2 GT ISZERO PUSH2 0x2644 JUMPI PUSH4 0x4E487B71 PUSH1 0xE0 SHL PUSH1 0x0 MSTORE PUSH1 0x41 PUSH1 0x4 MSTORE PUSH1 0x24 PUSH1 0x0 REVERT JUMPDEST PUSH1 0x40 MLOAD SWAP1 DUP1 DUP3 MSTORE DUP1 PUSH1 0x1F ADD PUSH1 0x1F NOT AND PUSH1 0x20 ADD DUP3 ADD PUSH1 0x40 MSTORE DUP1 ISZERO PUSH2 0x266E JUMPI PUSH1 0x20 DUP3 ADD DUP2 DUP1 CALLDATASIZE DUP4 CALLDATACOPY ADD SWAP1 POP JUMPDEST POP SWAP1 POP PUSH1 0x3 PUSH1 0xFC SHL DUP2 PUSH1 0x0 DUP2 MLOAD DUP2 LT PUSH2 0x2697 JUMPI PUSH4 0x4E487B71 PUSH1 0xE0 SHL PUSH1 0x0 MSTORE PUSH1 0x32 PUSH1 0x4 MSTORE PUSH1 0x24 PUSH1 0x0 REVERT JUMPDEST PUSH1 0x20 ADD ADD SWAP1 PUSH1 0x1 PUSH1 0x1 PUSH1 0xF8 SHL SUB NOT AND SWAP1 DUP2 PUSH1 0x0 BYTE SWAP1 MSTORE8 POP PUSH1 0xF PUSH1 0xFB SHL DUP2 PUSH1 0x1 DUP2 MLOAD DUP2 LT PUSH2 0x26D4 JUMPI PUSH4 0x4E487B71 PUSH1 0xE0 SHL PUSH1 0x0 MSTORE PUSH1 0x32 PUSH1 0x4 MSTORE PUSH1 0x24 PUSH1 0x0 REVERT JUMPDEST PUSH1 0x20 ADD ADD SWAP1 PUSH1 0x1 PUSH1 0x1 PUSH1 0xF8 SHL SUB NOT AND SWAP1 DUP2 PUSH1 0x0 BYTE SWAP1 MSTORE8 POP PUSH1 0x0 PUSH2 0x26F8 DUP5 PUSH1 0x2 PUSH2 0x2BB2 JUMP JUMPDEST PUSH2 0x2703 SWAP1 PUSH1 0x1 PUSH2 0x2B86 JUMP JUMPDEST SWAP1 POP JUMPDEST PUSH1 0x1 DUP2 GT ISZERO PUSH2 0x2797 JUMPI PUSH16 0x181899199A1A9B1B9C1CB0B131B232B3 PUSH1 0x81 SHL DUP6 PUSH1 0xF AND PUSH1 0x10 DUP2 LT PUSH2 0x2745 JUMPI PUSH4 0x4E487B71 PUSH1 0xE0 SHL PUSH1 0x0 MSTORE PUSH1 0x32 PUSH1 0x4 MSTORE PUSH1 0x24 PUSH1 0x0 REVERT JUMPDEST BYTE PUSH1 0xF8 SHL DUP3 DUP3 DUP2 MLOAD DUP2 LT PUSH2 0x2769 JUMPI PUSH4 0x4E487B71 PUSH1 0xE0 SHL PUSH1 0x0 MSTORE PUSH1 0x32 PUSH1 0x4 MSTORE PUSH1 0x24 PUSH1 0x0 REVERT JUMPDEST PUSH1 0x20 ADD ADD SWAP1 PUSH1 0x1 PUSH1 0x1 PUSH1 0xF8 SHL SUB NOT AND SWAP1 DUP2 PUSH1 0x0 BYTE SWAP1 MSTORE8 POP PUSH1 0x4 SWAP5 SWAP1 SWAP5 SHR SWAP4 PUSH2 0x2790 DUP2 PUSH2 0x2C14 JUMP JUMPDEST SWAP1 POP PUSH2 0x2706 JUMP JUMPDEST POP DUP4 ISZERO PUSH2 0x24C2 JUMPI PUSH1 0x40 MLOAD PUSH3 0x461BCD PUSH1 0xE5 SHL DUP2 MSTORE PUSH1 0x20 PUSH1 0x4 DUP3 ADD DUP2 SWAP1 MSTORE PUSH1 0x24 DUP3 ADD MSTORE PUSH32 0x537472696E67733A20686578206C656E67746820696E73756666696369656E74 PUSH1 0x44 DUP3 ADD MSTORE PUSH1 0x64 ADD PUSH2 0x889 JUMP JUMPDEST DUP1 CALLDATALOAD PUSH1 0x1 PUSH1 0x1 PUSH1 0xA0 SHL SUB DUP2 AND DUP2 EQ PUSH2 0x7F6 JUMPI PUSH1 0x0 DUP1 REVERT JUMPDEST PUSH1 0x0 PUSH1 0x20 DUP3 DUP5 SUB SLT ISZERO PUSH2 0x280E JUMPI DUP1 DUP2 REVERT JUMPDEST PUSH2 0x24C2 DUP3 PUSH2 0x27E6 JUMP JUMPDEST PUSH1 0x0 DUP1 PUSH1 0x40 DUP4 DUP6 SUB SLT ISZERO PUSH2 0x2829 JUMPI DUP1 DUP2 REVERT JUMPDEST PUSH2 0x2832 DUP4 PUSH2 0x27E6 JUMP JUMPDEST SWAP2 POP PUSH2 0x2840 PUSH1 0x20 DUP5 ADD PUSH2 0x27E6 JUMP JUMPDEST SWAP1 POP SWAP3 POP SWAP3 SWAP1 POP JUMP JUMPDEST PUSH1 0x0 DUP1 PUSH1 0x0 PUSH1 0x60 DUP5 DUP7 SUB SLT ISZERO PUSH2 0x285D JUMPI DUP1 DUP2 REVERT JUMPDEST PUSH2 0x2866 DUP5 PUSH2 0x27E6 JUMP JUMPDEST SWAP3 POP PUSH2 0x2874 PUSH1 0x20 DUP6 ADD PUSH2 0x27E6 JUMP JUMPDEST SWAP2 POP PUSH1 0x40 DUP5 ADD CALLDATALOAD SWAP1 POP SWAP3 POP SWAP3 POP SWAP3 JUMP JUMPDEST PUSH1 0x0 DUP1 PUSH1 0x40 DUP4 DUP6 SUB SLT ISZERO PUSH2 0x2896 JUMPI DUP2 DUP3 REVERT JUMPDEST PUSH2 0x289F DUP4 PUSH2 0x27E6 JUMP JUMPDEST SWAP5 PUSH1 0x20 SWAP4 SWAP1 SWAP4 ADD CALLDATALOAD SWAP4 POP POP POP JUMP JUMPDEST PUSH1 0x0 PUSH1 0x20 DUP3 DUP5 SUB SLT ISZERO PUSH2 0x28BE JUMPI DUP1 DUP2 REVERT JUMPDEST DUP2 CALLDATALOAD PUSH2 0x24C2 DUP2 PUSH2 0x2CC1 JUMP JUMPDEST PUSH1 0x0 PUSH1 0x20 DUP3 DUP5 SUB SLT ISZERO PUSH2 0x28DA JUMPI DUP1 DUP2 REVERT JUMPDEST DUP2 MLOAD PUSH2 0x24C2 DUP2 PUSH2 0x2CC1 JUMP JUMPDEST PUSH1 0x0 PUSH1 0x20 DUP3 DUP5 SUB SLT ISZERO PUSH2 0x28F6 JUMPI DUP1 DUP2 REVERT JUMPDEST POP CALLDATALOAD SWAP2 SWAP1 POP JUMP JUMPDEST PUSH1 0x0 DUP1 PUSH1 0x40 DUP4 DUP6 SUB SLT ISZERO PUSH2 0x290F JUMPI DUP2 DUP3 REVERT JUMPDEST DUP3 CALLDATALOAD SWAP2 POP PUSH2 0x2840 PUSH1 0x20 DUP5 ADD PUSH2 0x27E6 JUMP JUMPDEST PUSH1 0x0 PUSH1 0x20 DUP3 DUP5 SUB SLT ISZERO PUSH2 0x2930 JUMPI DUP1 DUP2 REVERT JUMPDEST DUP2 CALLDATALOAD PUSH1 0x1 PUSH1 0x1 PUSH1 0xE0 SHL SUB NOT DUP2 AND DUP2 EQ PUSH2 0x24C2 JUMPI DUP2 DUP3 REVERT JUMPDEST PUSH1 0x0 PUSH1 0x20 DUP3 DUP5 SUB SLT ISZERO PUSH2 0x2958 JUMPI DUP1 DUP2 REVERT JUMPDEST POP MLOAD SWAP2 SWAP1 POP JUMP JUMPDEST PUSH1 0x0 DUP1 PUSH1 0x0 PUSH1 0x60 DUP5 DUP7 SUB SLT ISZERO PUSH2 0x2973 JUMPI DUP3 DUP4 REVERT JUMPDEST DUP4 CALLDATALOAD SWAP3 POP PUSH2 0x2874 PUSH1 0x20 DUP6 ADD PUSH2 0x27E6 JUMP JUMPDEST PUSH1 0x0 DUP1 PUSH1 0x40 DUP4 DUP6 SUB SLT ISZERO PUSH2 0x2995 JUMPI DUP2 DUP3 REVERT JUMPDEST POP POP DUP1 CALLDATALOAD SWAP3 PUSH1 0x20 SWAP1 SWAP2 ADD CALLDATALOAD SWAP2 POP JUMP JUMPDEST PUSH1 0x0 DUP1 PUSH1 0x0 PUSH1 0x60 DUP5 DUP7 SUB SLT ISZERO PUSH2 0x29B8 JUMPI DUP3 DUP4 REVERT JUMPDEST POP POP DUP2 CALLDATALOAD SWAP4 PUSH1 0x20 DUP4 ADD CALLDATALOAD SWAP4 POP PUSH1 0x40 SWAP1 SWAP3 ADD CALLDATALOAD SWAP2 SWAP1 POP JUMP JUMPDEST PUSH1 0x0 PUSH1 0x20 DUP3 DUP5 SUB SLT ISZERO PUSH2 0x29E0 JUMPI DUP1 DUP2 REVERT JUMPDEST DUP2 MLOAD PUSH1 0xFF DUP2 AND DUP2 EQ PUSH2 0x24C2 JUMPI DUP2 DUP3 REVERT JUMPDEST PUSH23 0x20B1B1B2B9B9A1B7B73A3937B61D1030B1B1B7BAB73A1 PUSH1 0x4D SHL DUP2 MSTORE PUSH1 0x0 DUP4 MLOAD PUSH2 0x2A22 DUP2 PUSH1 0x17 DUP6 ADD PUSH1 0x20 DUP9 ADD PUSH2 0x2BE8 JUMP JUMPDEST PUSH17 0x1034B99036B4B9B9B4B733903937B6329 PUSH1 0x7D SHL PUSH1 0x17 SWAP2 DUP5 ADD SWAP2 DUP3 ADD MSTORE DUP4 MLOAD PUSH2 0x2A53 DUP2 PUSH1 0x28 DUP5 ADD PUSH1 0x20 DUP9 ADD PUSH2 0x2BE8 JUMP JUMPDEST ADD PUSH1 0x28 ADD SWAP5 SWAP4 POP POP POP POP JUMP JUMPDEST PUSH1 0x1 PUSH1 0x1 PUSH1 0xA0 SHL SUB SWAP2 SWAP1 SWAP2 AND DUP2 MSTORE PUSH1 0x20 ADD SWAP1 JUMP JUMPDEST PUSH1 0x1 PUSH1 0x1 PUSH1 0xA0 SHL SUB SWAP3 SWAP1 SWAP3 AND DUP3 MSTORE PUSH1 0x20 DUP3 ADD MSTORE PUSH1 0x40 ADD SWAP1 JUMP JUMPDEST PUSH1 0x20 DUP2 MSTORE PUSH1 0x0 DUP3 MLOAD DUP1 PUSH1 0x20 DUP5 ADD MSTORE PUSH2 0x2AAB DUP2 PUSH1 0x40 DUP6 ADD PUSH1 0x20 DUP8 ADD PUSH2 0x2BE8 JUMP JUMPDEST PUSH1 0x1F ADD PUSH1 0x1F NOT AND SWAP2 SWAP1 SWAP2 ADD PUSH1 0x40 ADD SWAP3 SWAP2 POP POP JUMP JUMPDEST PUSH1 0x20 DUP1 DUP3 MSTORE PUSH1 0x26 SWAP1 DUP3 ADD MSTORE PUSH32 0x506F6F6C3A206C6F636B6564416D6F756E7420697320616C726561647920756E PUSH1 0x40 DUP3 ADD MSTORE PUSH6 0x1B1BD8DAD959 PUSH1 0xD2 SHL PUSH1 0x60 DUP3 ADD MSTORE PUSH1 0x80 ADD SWAP1 JUMP JUMPDEST PUSH1 0x20 DUP1 DUP3 MSTORE PUSH1 0x1F SWAP1 DUP3 ADD MSTORE PUSH32 0x506F6F6C3A20596F7520646F6E27742068617665207468652061636365737300 PUSH1 0x40 DUP3 ADD MSTORE PUSH1 0x60 ADD SWAP1 JUMP JUMPDEST PUSH1 0x20 DUP1 DUP3 MSTORE PUSH1 0x19 SWAP1 DUP3 ADD MSTORE PUSH25 0x141BDBDB0E88105B5BDD5B9D081A5CC81D1BDBC81CDB585B1B PUSH1 0x3A SHL PUSH1 0x40 DUP3 ADD MSTORE PUSH1 0x60 ADD SWAP1 JUMP JUMPDEST SWAP2 DUP3 MSTORE PUSH1 0x1 PUSH1 0x1 PUSH1 0xA0 SHL SUB AND PUSH1 0x20 DUP3 ADD MSTORE PUSH1 0x40 ADD SWAP1 JUMP JUMPDEST PUSH1 0x0 DUP3 NOT DUP3 GT ISZERO PUSH2 0x2B99 JUMPI PUSH2 0x2B99 PUSH2 0x2C95 JUMP JUMPDEST POP ADD SWAP1 JUMP JUMPDEST PUSH1 0x0 DUP3 PUSH2 0x2BAD JUMPI PUSH2 0x2BAD PUSH2 0x2CAB JUMP JUMPDEST POP DIV SWAP1 JUMP JUMPDEST PUSH1 0x0 DUP2 PUSH1 0x0 NOT DIV DUP4 GT DUP3 ISZERO ISZERO AND ISZERO PUSH2 0x2BCC JUMPI PUSH2 0x2BCC PUSH2 0x2C95 JUMP JUMPDEST POP MUL SWAP1 JUMP JUMPDEST PUSH1 0x0 DUP3 DUP3 LT ISZERO PUSH2 0x2BE3 JUMPI PUSH2 0x2BE3 PUSH2 0x2C95 JUMP JUMPDEST POP SUB SWAP1 JUMP JUMPDEST PUSH1 0x0 JUMPDEST DUP4 DUP2 LT ISZERO PUSH2 0x2C03 JUMPI DUP2 DUP2 ADD MLOAD DUP4 DUP3 ADD MSTORE PUSH1 0x20 ADD PUSH2 0x2BEB JUMP JUMPDEST DUP4 DUP2 GT ISZERO PUSH2 0x1DC3 JUMPI POP POP PUSH1 0x0 SWAP2 ADD MSTORE JUMP JUMPDEST PUSH1 0x0 DUP2 PUSH2 0x2C23 JUMPI PUSH2 0x2C23 PUSH2 0x2C95 JUMP JUMPDEST POP PUSH1 0x0 NOT ADD SWAP1 JUMP JUMPDEST PUSH1 0x1 DUP2 DUP2 SHR SWAP1 DUP3 AND DUP1 PUSH2 0x2C3F JUMPI PUSH1 0x7F DUP3 AND SWAP2 POP JUMPDEST PUSH1 0x20 DUP3 LT DUP2 EQ ISZERO PUSH2 0x2C60 JUMPI PUSH4 0x4E487B71 PUSH1 0xE0 SHL PUSH1 0x0 MSTORE PUSH1 0x22 PUSH1 0x4 MSTORE PUSH1 0x24 PUSH1 0x0 REVERT JUMPDEST POP SWAP2 SWAP1 POP JUMP JUMPDEST PUSH1 0x0 PUSH1 0x0 NOT DUP3 EQ ISZERO PUSH2 0x2C7A JUMPI PUSH2 0x2C7A PUSH2 0x2C95 JUMP JUMPDEST POP PUSH1 0x1 ADD SWAP1 JUMP JUMPDEST PUSH1 0x0 DUP3 PUSH2 0x2C90 JUMPI PUSH2 0x2C90 PUSH2 0x2CAB JUMP JUMPDEST POP MOD SWAP1 JUMP JUMPDEST PUSH4 0x4E487B71 PUSH1 0xE0 SHL PUSH1 0x0 MSTORE PUSH1 0x11 PUSH1 0x4 MSTORE PUSH1 0x24 PUSH1 0x0 REVERT JUMPDEST PUSH4 0x4E487B71 PUSH1 0xE0 SHL PUSH1 0x0 MSTORE PUSH1 0x12 PUSH1 0x4 MSTORE PUSH1 0x24 PUSH1 0x0 REVERT JUMPDEST DUP1 ISZERO ISZERO DUP2 EQ PUSH2 0x992 JUMPI PUSH1 0x0 DUP1 REVERT INVALID SWAP16 PUSH25 0xBAA7A8E3640EFADCBEDC2D00F5930ADE7A7BB66038DBF88684 0xD4 SWAP10 PUSH19 0x957A770FADB28E0E3026382976EE8B810CB0EB DUP7 PUSH7 0x922148DD9E10B2 0xC 0xFB SWAP12 SELFBALANCE PUSH28 0xA802B0C433C31E2B44FBBB341CA2A1A7C86F98B5158B42B073F63EFE MUL 0xD3 0x5E 0xA8 SWAP16 0xDD CALLCODE MSTORE 0xAD SHL 0xE2 0xC8 SWAP12 PUSH10 0xC2B068FC378DAA952BA7 CALL PUSH4 0xC4A11628 CREATE2 GAS 0x4D CREATE2 0x23 0xB3 0xEF LOG2 PUSH5 0x6970667358 0x22 SLT KECCAK256 0xA9 0x1E 0xDD MSTORE8 0xBF 0x21 0xC1 GASPRICE DUP8 0xB4 XOR PUSH12 0xE067D405E468AB93D2712923 DELEGATECALL 0x48 0x5E 0xAB SLOAD 0xC6 DELEGATECALL MSTORE8 PUSH5 0x736F6C6343 STOP ADDMOD DIV STOP CALLER ","sha1":"48f392d92e3ef1a3a5203ded14f6ea6d8b252c8e","source":"pragma solidity ^0.8.0;\n\n// SPDX-License-Identifier: BUSL-1.1\n\nimport \"../Interfaces/Interfaces.sol\";\nimport \"@openzeppelin/contracts/access/AccessControl.sol\";\nimport \"@openzeppelin/contracts/token/ERC20/ERC20.sol\";\n\n/**\n * @author Heisenberg\n * @title Buffer TokenX Liquidity Pool\n * @notice Accumulates liquidity in TokenX from LPs and distributes P&L in TokenX\n */\ncontract BufferEpocPoolV2Unintialized is\n    ERC20(\"Buffer LP Token\", \"rBFR\"),\n    AccessControl,\n    ILiquidityPool\n{\n    string private _name;\n    string private _symbol;\n    uint256 public constant ACCURACY = 1e3;\n    uint256 public constant INITIAL_RATE = 1e3;\n    uint256 public lockedAmount;\n    uint256 public lockedPremium;\n    uint256 public maxLiquidity;\n    uint256 public fixedExpiry;\n    uint256 public startDate;\n    uint256 public currentRound = 1;\n    bool public hasPoolEnded = false;\n    bool public isInitialized = false;\n    bool public isAcceptingWithdrawRequests = true;\n    address public projectOwner;\n    address public owner;\n    mapping(address => LockedLiquidity[]) public lockedLiquidity;\n\n    bytes32 public constant OPTION_ISSUER_ROLE =\n        keccak256(\"OPTION_ISSUER_ROLE\");\n\n    bytes32 public constant PROJECT_OWNER_ROLE =\n        keccak256(\"PROJECT_OWNER_ROLE\");\n\n    ERC20 public tokenX;\n\n    struct WithdrawRequest {\n        uint256 withdrawAmount;\n        uint256 round;\n        address account;\n    }\n    struct User {\n        uint256 requestIndex; // Pointer to the withdraw request\n        bool exists;\n    }\n\n    mapping(uint256 => WithdrawRequest) public WithdrawRequestQueue;\n    mapping(address => User) public AddressToWithdrawRequest;\n    uint256 public queueStart = 0;\n    uint256 public queueEnd = 0;\n\n    constructor(ERC20 _tokenX) {\n        _name = string(\n            bytes.concat(\n                \"Buffer Generic \",\n                bytes(_tokenX.symbol()),\n                \" LP Token\"\n            )\n        );\n        _symbol = string(bytes.concat(\"r\", bytes(_tokenX.symbol())));\n        tokenX = _tokenX;\n        owner = msg.sender;\n        _setupRole(DEFAULT_ADMIN_ROLE, msg.sender);\n    }\n\n    /**\n     * @notice Initializes the pool\n     * @param _maxLiquidity Pool token cap\n     * @param _initialExpiry Initial expiry\n     */\n    function initialize(\n        uint256 _maxLiquidity,\n        uint256 _initialExpiry,\n        uint256 _startDate\n    ) external onlyRole(PROJECT_OWNER_ROLE) {\n        require(!isInitialized, \"Pool: Already initialized\");\n        setMaxLiquidity(_maxLiquidity);\n        setExpiry(_initialExpiry);\n        isInitialized = true;\n        startDate = _startDate;\n        emit Initialize(_initialExpiry);\n    }\n\n    /**\n     * @dev Returns the name of the token.\n     */\n    function name() public view virtual override returns (string memory) {\n        return _name;\n    }\n\n    /**\n     * @dev Returns the symbol of the token, usually a shorter version of the\n     * name.\n     */\n    function symbol() public view virtual override returns (string memory) {\n        return _symbol;\n    }\n\n    /**\n     * @dev Returns the decimals of the token.\n     */\n    function decimals() public view virtual override returns (uint8) {\n        return tokenX.decimals();\n    }\n\n    /**\n     * @notice Used for changing expiry\n     * @param value New fixedExpiry value\n     */\n    function setExpiry(uint256 value) internal {\n        fixedExpiry = value;\n        emit UpdateExpiry(value);\n    }\n\n    /**\n     * @notice Used for setting owner\n     * @param account owner account\n     */\n    function setProjectOwner(address account)\n        external\n        onlyRole(DEFAULT_ADMIN_ROLE)\n    {\n        grantRole(PROJECT_OWNER_ROLE, account);\n        projectOwner = account;\n        emit UpdateProjectOwner(account);\n    }\n\n    /**\n     * @notice Used for adjusting the max limit of the pool\n     * @param _maxLiquidity New limit\n     */\n    function setMaxLiquidity(uint256 _maxLiquidity) internal {\n        maxLiquidity = _maxLiquidity;\n        emit UpdateMaxLiquidity(_maxLiquidity);\n    }\n\n    /**\n     * @notice Used for setting the liquidity pool's state\n     * @param _hasPoolEnded New state\n     */\n    function setPoolState(bool _hasPoolEnded)\n        external\n        onlyRole(PROJECT_OWNER_ROLE)\n    {\n        hasPoolEnded = _hasPoolEnded;\n        emit UpdatePoolState(hasPoolEnded);\n    }\n\n    /**\n     * @notice Used to start a new round\n     * @param expiry New expiry\n     */\n    function rollOver(uint256 expiry, uint256 _maxLiquidity)\n        external\n        onlyRole(PROJECT_OWNER_ROLE)\n    {\n        require(\n            block.timestamp > fixedExpiry,\n            \"Pool: Can't roll over before the expiry ends\"\n        );\n        require(\n            lockedAmount == 0 && lockedPremium == 0,\n            \"Pool: Current round hasn't ended completely\"\n        );\n        setExpiry(expiry);\n        setMaxLiquidity(_maxLiquidity);\n        currentRound++;\n        isAcceptingWithdrawRequests = false;\n        emit PoolRollOver(currentRound);\n    }\n\n    /**\n     * @notice A provider supplies tokenX to the pool and receives rBFR-X tokens\n     * @param minMint Minimum amount of tokens that should be received by a provider.\n                      Calling the provide function will require the minimum amount of tokens to be minted.\n                      The actual amount that will be minted could vary but can only be higher (not lower) than the minimum value.\n     * @return mint Amount of tokens to be received\n     */\n    function provide(uint256 tokenXAmount, uint256 minMint)\n        external\n        returns (uint256 mint)\n    {\n        require(block.timestamp > startDate, \"Pool: Not started yet\");\n        require(!hasPoolEnded, \"Pool: Already ended\");\n        require(msg.sender == projectOwner, \"Pool: You don't have the access\");\n\n        uint256 supply = totalSupply();\n        uint256 balance = tokenX.balanceOf(address(this));\n\n        require(\n            balance + tokenXAmount <= maxLiquidity,\n            \"Pool: Pool has already reached it's max limit\"\n        );\n\n        if (supply > 0 && balance > 0)\n            mint = (tokenXAmount * supply) / (balance);\n        else mint = tokenXAmount * INITIAL_RATE;\n\n        require(mint >= minMint, \"Pool: Mint limit is too large\");\n        require(mint > 0, \"Pool: Amount is too small\");\n\n        bool success = tokenX.transferFrom(\n            msg.sender,\n            address(this),\n            tokenXAmount\n        );\n        require(success, \"Pool: The Provide transfer didn't go through\");\n\n        _mint(msg.sender, mint);\n\n        emit Provide(msg.sender, tokenXAmount, mint);\n    }\n\n    /**\n     * @notice Provider burns rBFR-X and receives X from the pool\n     * @param tokenXAmount Amount of X to receive\n     * @param account User address for which the withdrawal has to be initiated\n     * @return burn Amount of tokens to be burnt\n     */\n    function _withdraw(uint256 tokenXAmount, address account)\n        internal\n        returns (uint256 burn)\n    {\n        require(\n            availableBalance() > 0,\n            \"Pool: Not enough funds on the pool contract\"\n        );\n        uint256 totalSupply = totalSupply();\n        uint256 balance = totalTokenXBalance();\n\n        uint256 maxUserTokenXWithdrawal = (balanceOf(account) * balance) /\n            totalSupply;\n\n        uint256 tokenXAmountToWithdraw = maxUserTokenXWithdrawal < tokenXAmount\n            ? maxUserTokenXWithdrawal\n            : tokenXAmount;\n\n        burn = divCeil((tokenXAmountToWithdraw * totalSupply), balance);\n\n        require(burn <= balanceOf(account), \"Pool: Amount is too large\");\n        require(burn > 0, \"Pool: Amount is too small\");\n\n        _burn(account, burn);\n\n        bool success = tokenX.transfer(account, tokenXAmountToWithdraw);\n        require(success, \"Pool: The Withdrawal didn't go through\");\n        emit Withdraw(account, tokenXAmountToWithdraw, burn);\n    }\n\n    /**\n     * @notice Initiates withdraw requests for users\n     * @param tokenXAmount Amount of X to receive\n     * @param account User address for which the withdrawal has to be initiated\n     */\n    function _initiateWithdraw(uint256 tokenXAmount, address account) internal {\n        require(balanceOf(account) > 0, \"Pool: Nothing to withdraw\");\n\n        User storage addressToWithdrawRequest = AddressToWithdrawRequest[\n            account\n        ];\n        if (addressToWithdrawRequest.exists) {\n            WithdrawRequest storage withdrawRequest = WithdrawRequestQueue[\n                addressToWithdrawRequest.requestIndex\n            ];\n            require(\n                (withdrawRequest.round == currentRound ||\n                    withdrawRequest.round == 0),\n                \"Pool: State locked up\"\n            );\n            withdrawRequest.withdrawAmount =\n                withdrawRequest.withdrawAmount +\n                tokenXAmount;\n        } else {\n            WithdrawRequestQueue[queueEnd] = WithdrawRequest(\n                tokenXAmount,\n                currentRound,\n                account\n            );\n            addressToWithdrawRequest.requestIndex = queueEnd;\n            addressToWithdrawRequest.exists = true;\n            queueEnd++;\n        }\n\n        emit InitiateWithdraw(tokenXAmount, account);\n    }\n\n    /**\n     * @notice withdraw burns rBFR-X and receives X from the pool\n     * @param tokenXAmount Amount Amount of X to receive\n     */\n    function withdraw(uint256 tokenXAmount) external {\n        require(msg.sender == projectOwner, \"Pool: You don't have the access\");\n        if (hasPoolEnded) {\n            _withdraw(tokenXAmount, msg.sender);\n        } else {\n            require(\n                isAcceptingWithdrawRequests && isInitialized,\n                \"Pool: Not accepting withdraw requests currently\"\n            );\n            _initiateWithdraw(tokenXAmount, msg.sender);\n        }\n    }\n\n    /**\n     * @notice Processes all the withdraw requests once the round ends\n     * @param requestsToProcess Number of requests to process\n     */\n    function processWithdrawRequests(uint256 requestsToProcess) external {\n        uint256 endIndex = queueStart + requestsToProcess > queueEnd\n            ? queueEnd\n            : queueStart + requestsToProcess;\n        for (uint256 i = queueStart; i < endIndex; i++) {\n            WithdrawRequest storage withdrawRequest = WithdrawRequestQueue[i];\n            User storage addressToWithdrawRequest = AddressToWithdrawRequest[\n                withdrawRequest.account\n            ];\n\n            require(\n                withdrawRequest.round != currentRound,\n                \"Pool: Can't process the requests when the round is active\"\n            );\n\n            _withdraw(withdrawRequest.withdrawAmount, withdrawRequest.account);\n            emit ProcessWithdrawRequest(\n                withdrawRequest.withdrawAmount,\n                withdrawRequest.account\n            );\n\n            delete WithdrawRequestQueue[i];\n            addressToWithdrawRequest.requestIndex = 0;\n            addressToWithdrawRequest.exists = false;\n            queueStart++;\n        }\n\n        // When all requests have been processed reset the queue\n        if (queueStart == queueEnd) {\n            queueEnd = queueStart = 0;\n            isAcceptingWithdrawRequests = true;\n        }\n    }\n\n    /**\n     * @notice Called by BufferCallOptions to lock the funds\n     * @param tokenXAmount Amount of funds that should be locked in an option\n     */\n    function lock(\n        uint256 id,\n        uint256 tokenXAmount,\n        uint256 premium\n    ) external override onlyRole(OPTION_ISSUER_ROLE) {\n        require(id == lockedLiquidity[msg.sender].length, \"Pool: Wrong id\");\n\n        require(\n            (lockedAmount + tokenXAmount) <= totalTokenXBalance(),\n            \"Pool: Amount is too large.\"\n        );\n\n        lockedLiquidity[msg.sender].push(\n            LockedLiquidity(tokenXAmount, premium, true)\n        );\n        lockedPremium = lockedPremium + premium;\n        lockedAmount = lockedAmount + tokenXAmount;\n    }\n\n    /**\n     * @notice Called by BufferCallOptions to change the locked funds\n     * @param tokenXAmount Amount of funds that should be locked in an option\n     */\n    function changeLock(\n        uint256 id,\n        uint256 tokenXAmount,\n        uint256 premium\n    ) public override onlyRole(OPTION_ISSUER_ROLE) {\n        LockedLiquidity storage ll = lockedLiquidity[msg.sender][id];\n        require(ll.locked, \"Pool: lockedAmount is already unlocked\");\n\n        lockedPremium = lockedPremium - ll.premium + premium;\n        lockedAmount = lockedAmount - ll.amount + tokenXAmount;\n        ll.premium = premium;\n        ll.amount = tokenXAmount;\n    }\n\n    /**\n     * @notice Called by BufferOptions to unlock the funds\n     * @param id Id of LockedLiquidity that should be unlocked\n     */\n    function _unlock(uint256 id)\n        internal\n        onlyRole(OPTION_ISSUER_ROLE)\n        returns (uint256 premium)\n    {\n        LockedLiquidity storage ll = lockedLiquidity[msg.sender][id];\n        require(ll.locked, \"Pool: lockedAmount is already unlocked\");\n        ll.locked = false;\n\n        lockedPremium = lockedPremium - ll.premium;\n        lockedAmount = lockedAmount - ll.amount;\n        premium = ll.premium;\n    }\n\n    /**\n     * @notice Called by BufferOptions to unlock the funds\n     * @param id Id of LockedLiquidity that should be unlocked\n     */\n    function unlock(uint256 id) external override {\n        uint256 premium = _unlock(id);\n\n        emit Profit(id, premium);\n    }\n\n    /**\n     * @notice Called by BufferOptions to unlock the funds\n     * @param id Id of LockedLiquidity that should be unlocked\n     */\n    function unlockWithoutProfit(uint256 id) external override {\n        _unlock(id);\n    }\n\n    /**\n     * @notice Called by BufferCallOptions to send funds to liquidity providers after an option's expiration\n     * @param to Provider\n     * @param tokenXAmount Funds that should be sent\n     */\n    function send(\n        uint256 id,\n        address to,\n        uint256 tokenXAmount\n    ) external override onlyRole(OPTION_ISSUER_ROLE) {\n        LockedLiquidity storage ll = lockedLiquidity[msg.sender][id];\n        require(ll.locked, \"Pool: lockedAmount is already unlocked\");\n        require(to != address(0));\n\n        ll.locked = false;\n        lockedPremium = lockedPremium - ll.premium;\n        lockedAmount = lockedAmount - ll.amount;\n\n        uint256 transferTokenXAmount = tokenXAmount > ll.amount\n            ? ll.amount\n            : tokenXAmount;\n\n        bool success = tokenX.transfer(to, transferTokenXAmount);\n        require(success, \"Pool: The Payout transfer didn't go through\");\n\n        if (transferTokenXAmount <= ll.premium)\n            emit Profit(id, ll.premium - transferTokenXAmount);\n        else emit Loss(id, transferTokenXAmount - ll.premium);\n    }\n\n    /**\n     * @notice Returns provider's share in X\n     * @param account Provider's address\n     * @return share Provider's share in X\n     */\n    function shareOf(address account) external view returns (uint256 share) {\n        if (totalSupply() > 0)\n            share = (totalTokenXBalance() * balanceOf(account)) / totalSupply();\n        else share = 0;\n    }\n\n    /**\n     * @notice Returns the amount of X available for withdrawals\n     * @return balance Unlocked amount\n     */\n    function availableBalance() public view returns (uint256 balance) {\n        return totalTokenXBalance() - lockedAmount;\n    }\n\n    /**\n     * @notice Returns the total balance of X provided to the pool\n     * @return balance Pool balance\n     */\n    function totalTokenXBalance()\n        public\n        view\n        override\n        returns (uint256 balance)\n    {\n        return tokenX.balanceOf(address(this)) - lockedPremium;\n    }\n\n    function divCeil(uint256 a, uint256 b) internal pure returns (uint256) {\n        require(b > 0);\n        uint256 c = a / b;\n        if (a % b != 0) c = c + 1;\n        return c;\n    }\n}\n","sourcePath":"contracts/Pool/BufferEpocPoolV2Unintialized.sol","deployment":{"address":"0xC21C6551d2BCCdc63be2a92Abd8Fc5ba707172ff","chainid":"97","blockHeight":20152701}}