{"bytecode":"60806040526064600255600160035560056004819055640165a0bc0090556007805460ff60a81b1916905534801561003657600080fd5b506040516110c63803806110c6833981016040819052610055916100d3565b61005e33610083565b600780546001600160a01b0319166001600160a01b0392909216919091179055610101565b600080546001600160a01b038381166001600160a01b0319831681178455604051919092169283917f8be0079c531659141344cd1fd0a4f28419497f9722a3daafe3b4186f6b6457e09190a35050565b6000602082840312156100e4578081fd5b81516001600160a01b03811681146100fa578182fd5b9392505050565b610fb6806101106000396000f3fe608060405234801561001057600080fd5b50600436106101075760003560e01c806316f0115b1461010c57806318f88e5b1461013c5780631ec3ad1d14610153578063302ce65114610168578063392e53cd1461017157806340774ff6146101955780635cb6bc81146101a85780635ee97101146101bb57806364ac2655146101c45780636c321c8a146101d7578063715018a6146101e05780638da5cb5b146101e8578063a08d874c146101f0578063ceaeeba914610203578063e2bef75414610216578063e4a3011614610229578063ed0974c71461023c578063f12a046614610245578063f2fde38b14610266578063f3fa349514610279578063ff0b025d14610282575b600080fd5b60075461011f906001600160a01b031681565b6040516001600160a01b0390911681526020015b60405180910390f35b61014560015481565b604051908152602001610133565b610166610161366004610e65565b610295565b005b61014560025481565b60075461018590600160a81b900460ff1681565b6040519015158152602001610133565b6101666101a3366004610e65565b610365565b6101666101b6366004610e65565b610420565b61014560065481565b6101666101d2366004610df8565b6104a5565b61014560055481565b610166610658565b61011f610693565b6101666101fe366004610e65565b6106a2565b610166610211366004610e65565b610874565b610166610224366004610e65565b6109ba565b610166610237366004610e95565b610ad3565b61014560045481565b60075461025990600160a01b900460ff1681565b6040516101339190610eb6565b610166610274366004610db9565b610c33565b61014560035481565b610166610290366004610e46565b610cd3565b3361029e610693565b6001600160a01b0316146102cd5760405162461bcd60e51b81526004016102c490610f03565b60405180910390fd5b601481106103295760405162461bcd60e51b815260206004820152602360248201527f536574746c656d656e7446656550657263656e7461676520697320746f6f20686044820152620d2ced60eb1b60648201526084016102c4565b60038190556040518181527f803e7bbaebadbda418ec6dd788e57c29c1cf3faeb7e139d21247e624c9e6d119906020015b60405180910390a150565b600760009054906101000a90046001600160a01b03166001600160a01b031663a4475ce46040518163ffffffff1660e01b815260040160206040518083038186803b1580156103b357600080fd5b505afa1580156103c7573d6000803e3d6000fd5b505050506040513d601f19601f820116820180604052508101906103eb9190610ddc565b6001600160a01b0316336001600160a01b03161461041b5760405162461bcd60e51b81526004016102c490610f38565b600555565b33610429610693565b6001600160a01b03161461044f5760405162461bcd60e51b81526004016102c490610f03565b600a8111156104705760405162461bcd60e51b81526004016102c490610ede565b60048190556040518181527f8fb679aa627958fc7143b0829745d581e0f5e98599847e7097749ce89d8c88e09060200161035a565b60028660028111156104c757634e487b7160e01b600052602160045260246000fd5b14806104f2575060018660028111156104f057634e487b7160e01b600052602160045260246000fd5b145b6105325760405162461bcd60e51b815260206004820152601160248201527057726f6e67206f7074696f6e207479706560781b60448201526064016102c4565b6201518085101561057b5760405162461bcd60e51b815260206004820152601360248201527214195c9a5bd9081a5cc81d1bdbc81cda1bdc9d606a1b60448201526064016102c4565b6276a7008511156105c35760405162461bcd60e51b8152602060048201526012602482015271506572696f6420697320746f6f206c6f6e6760701b60448201526064016102c4565b8284116106125760405162461bcd60e51b815260206004820152601d60248201527f507269636520646966666572656e636520697320746f6f206c6172676500000060448201526064016102c4565b818110156106505760405162461bcd60e51b815260206004820152600b60248201526a57726f6e672076616c756560a81b60448201526064016102c4565b505050505050565b33610661610693565b6001600160a01b0316146106875760405162461bcd60e51b81526004016102c490610f03565b6106916000610d69565b565b6000546001600160a01b031690565b600760009054906101000a90046001600160a01b03166001600160a01b031663a4475ce46040518163ffffffff1660e01b815260040160206040518083038186803b1580156106f057600080fd5b505afa158015610704573d6000803e3d6000fd5b505050506040513d601f19601f820116820180604052508101906107289190610ddc565b6001600160a01b0316336001600160a01b0316146107585760405162461bcd60e51b81526004016102c490610f38565b600760009054906101000a90046001600160a01b03166001600160a01b031663a834069b6040518163ffffffff1660e01b815260040160206040518083038186803b1580156107a657600080fd5b505afa1580156107ba573d6000803e3d6000fd5b505050506040513d601f19601f820116820180604052508101906107de9190610e7d565b421161083f5760405162461bcd60e51b815260206004820152602a60248201527f43616e2774206368616e676520737472696b65206265666f7265207468652065604482015269787069727920656e647360b01b60648201526084016102c4565b60068190556040518181527fd7120ae25ffb24b73b21c585f172272cce904bdd03d819732ecc914f4ce49cf09060200161035a565b600760009054906101000a90046001600160a01b03166001600160a01b031663a4475ce46040518163ffffffff1660e01b815260040160206040518083038186803b1580156108c257600080fd5b505afa1580156108d6573d6000803e3d6000fd5b505050506040513d601f19601f820116820180604052508101906108fa9190610ddc565b6001600160a01b0316336001600160a01b03161461092a5760405162461bcd60e51b81526004016102c490610f38565b60648110156109855760405162461bcd60e51b815260206004820152602160248201527f496d706c696564566f6c52617465206c696d697420697320746f6f20736d616c6044820152601b60fa1b60648201526084016102c4565b60018190556040518181527f3e0c59249d1a9c5f08383bdbdfbc45517a71b76e72223ae649c576e4d12586969060200161035a565b600760009054906101000a90046001600160a01b03166001600160a01b031663a4475ce46040518163ffffffff1660e01b815260040160206040518083038186803b158015610a0857600080fd5b505afa158015610a1c573d6000803e3d6000fd5b505050506040513d601f19601f82011682018060405250810190610a409190610ddc565b6001600160a01b0316336001600160a01b031614610a705760405162461bcd60e51b81526004016102c490610f38565b80603211158015610a82575060648111155b610a9e5760405162461bcd60e51b81526004016102c490610ede565b60028190556040518181527f66b26a0dfaa5fc9f5c7432381208aa4bd7f13f4489299b52f09f1af7669bb93b9060200161035a565b600760009054906101000a90046001600160a01b03166001600160a01b031663a4475ce46040518163ffffffff1660e01b815260040160206040518083038186803b158015610b2157600080fd5b505afa158015610b35573d6000803e3d6000fd5b505050506040513d601f19601f82011682018060405250810190610b599190610ddc565b6001600160a01b0316336001600160a01b031614610b895760405162461bcd60e51b81526004016102c490610f38565b600754600160a81b900460ff1615610bd95760405162461bcd60e51b8152602060048201526013602482015272105b1c9958591e481a5b9a5d1a585b1a5e9959606a1b60448201526064016102c4565b600681905560018290556007805460ff60a81b1916600160a81b17905560408051828152602081018490527fd6e7f90fe4eb2761d9fc5c0ad1a51a1599621b06481d749d3a3058b3a843d78d910160405180910390a15050565b33610c3c610693565b6001600160a01b031614610c625760405162461bcd60e51b81526004016102c490610f03565b6001600160a01b038116610cc75760405162461bcd60e51b815260206004820152602660248201527f4f776e61626c653a206e6577206f776e657220697320746865207a65726f206160448201526564647265737360d01b60648201526084016102c4565b610cd081610d69565b50565b33610cdc610693565b6001600160a01b031614610d025760405162461bcd60e51b81526004016102c490610f03565b6007805482919060ff60a01b1916600160a01b836003811115610d3557634e487b7160e01b600052602160045260246000fd5b02179055507f75e98309d621801fc34e8ce7fa6eaa10b82599a58639171fe865e39bb4728d488160405161035a9190610eb6565b600080546001600160a01b038381166001600160a01b0319831681178455604051919092169283917f8be0079c531659141344cd1fd0a4f28419497f9722a3daafe3b4186f6b6457e09190a35050565b600060208284031215610dca578081fd5b8135610dd581610f6b565b9392505050565b600060208284031215610ded578081fd5b8151610dd581610f6b565b60008060008060008060c08789031215610e10578182fd5b863560038110610e1e578283fd5b9860208801359850604088013597606081013597506080810135965060a00135945092505050565b600060208284031215610e57578081fd5b813560048110610dd5578182fd5b600060208284031215610e76578081fd5b5035919050565b600060208284031215610e8e578081fd5b5051919050565b60008060408385031215610ea7578182fd5b50508035926020909101359150565b6020810160048310610ed857634e487b7160e01b600052602160045260246000fd5b91905290565b6020808252600b908201526a77726f6e672076616c756560a81b604082015260600190565b6020808252818101527f4f776e61626c653a2063616c6c6572206973206e6f7420746865206f776e6572604082015260600190565b602080825260199082015278596f7520646f6e27742068617665207468652061636365737360381b604082015260600190565b6001600160a01b0381168114610cd057600080fdfea2646970667358221220d7393ba7888c164d3c7e7e7182dc0845e21f465fcf61bc9ebacd0b922a537aa064736f6c63430008040033","bytecodeSha1":"77a299707b32ec4ea1e347a10faeaa39fb2f25c9","type":"contract","abi":[{"inputs":[{"internalType":"contract BufferEpocPoolV2Unintialized","name":"_pool","type":"address"}],"stateMutability":"nonpayable","type":"constructor","name":"constructor"},{"anonymous":false,"inputs":[{"indexed":true,"internalType":"address","name":"approval","type":"address"},{"indexed":true,"internalType":"uint256","name":"tokenId","type":"uint256"},{"indexed":false,"internalType":"uint256","name":"allowance","type":"uint256"}],"name":"ApprovalUnits","type":"event"},{"anonymous":false,"inputs":[{"indexed":true,"internalType":"address","name":"account","type":"address"},{"indexed":false,"internalType":"bool","name":"status","type":"bool"}],"name":"AutoExerciseStatusChange","type":"event"},{"anonymous":false,"inputs":[{"indexed":true,"internalType":"uint256","name":"id","type":"uint256"},{"indexed":true,"internalType":"address","name":"account","type":"address"},{"indexed":false,"internalType":"uint256","name":"settlementFee","type":"uint256"},{"indexed":false,"internalType":"uint256","name":"totalFee","type":"uint256"},{"indexed":false,"internalType":"string","name":"metadata","type":"string"}],"name":"Create","type":"event"},{"anonymous":false,"inputs":[{"indexed":true,"internalType":"uint256","name":"id","type":"uint256"},{"indexed":false,"internalType":"uint256","name":"profit","type":"uint256"}],"name":"Exercise","type":"event"},{"anonymous":false,"inputs":[{"indexed":true,"internalType":"uint256","name":"id","type":"uint256"},{"indexed":false,"internalType":"uint256","name":"premium","type":"uint256"}],"name":"Expire","type":"event"},{"anonymous":false,"inputs":[{"indexed":false,"internalType":"uint256","name":"initialStrike","type":"uint256"},{"indexed":false,"internalType":"uint256","name":"iv","type":"uint256"}],"name":"Initialize","type":"event"},{"anonymous":false,"inputs":[{"indexed":true,"internalType":"address","name":"owner","type":"address"},{"indexed":true,"internalType":"uint256","name":"tokenId","type":"uint256"},{"indexed":true,"internalType":"uint256","name":"targetTokenId","type":"uint256"},{"indexed":false,"internalType":"uint256","name":"mergeUnits","type":"uint256"}],"name":"Merge","type":"event"},{"anonymous":false,"inputs":[{"indexed":true,"internalType":"address","name":"previousOwner","type":"address"},{"indexed":true,"internalType":"address","name":"newOwner","type":"address"}],"name":"OwnershipTransferred","type":"event"},{"anonymous":false,"inputs":[{"indexed":true,"internalType":"address","name":"owner","type":"address"},{"indexed":false,"internalType":"uint256","name":"amount","type":"uint256"}],"name":"PayAdminFee","type":"event"},{"anonymous":false,"inputs":[{"indexed":true,"internalType":"address","name":"referrer","type":"address"},{"indexed":false,"internalType":"uint256","name":"amount","type":"uint256"}],"name":"PayReferralFee","type":"event"},{"anonymous":false,"inputs":[{"indexed":true,"internalType":"address","name":"owner","type":"address"},{"indexed":true,"internalType":"uint256","name":"tokenId","type":"uint256"},{"indexed":false,"internalType":"uint256","name":"newTokenId","type":"uint256"},{"indexed":false,"internalType":"uint256","name":"splitUnits","type":"uint256"}],"name":"Split","type":"event"},{"anonymous":false,"inputs":[{"indexed":true,"internalType":"address","name":"from","type":"address"},{"indexed":true,"internalType":"address","name":"to","type":"address"},{"indexed":true,"internalType":"uint256","name":"tokenId","type":"uint256"},{"indexed":false,"internalType":"uint256","name":"targetTokenId","type":"uint256"},{"indexed":false,"internalType":"uint256","name":"transferUnits","type":"uint256"}],"name":"TransferUnits","type":"event"},{"anonymous":false,"inputs":[{"indexed":false,"internalType":"uint256","name":"value","type":"uint256"}],"name":"UpdateImpliedVolatility","type":"event"},{"anonymous":false,"inputs":[{"indexed":false,"internalType":"uint256","name":"value","type":"uint256"}],"name":"UpdateNFTSaleRoyaltyPercentage","type":"event"},{"anonymous":false,"inputs":[{"indexed":false,"internalType":"uint256","name":"value","type":"uint256"}],"name":"UpdateOptionCollaterizationRatio","type":"event"},{"anonymous":false,"inputs":[{"indexed":false,"internalType":"uint256","name":"startHour","type":"uint256"},{"indexed":false,"internalType":"uint256","name":"startMinute","type":"uint256"},{"indexed":false,"internalType":"uint256","name":"endHour","type":"uint256"},{"indexed":false,"internalType":"uint256","name":"endMinute","type":"uint256"}],"name":"UpdateOptionCreationWindow","type":"event"},{"anonymous":false,"inputs":[{"indexed":false,"internalType":"uint256","name":"value","type":"uint256"}],"name":"UpdateReferralRewardPercentage","type":"event"},{"anonymous":false,"inputs":[{"indexed":false,"internalType":"uint256","name":"value","type":"uint256"}],"name":"UpdateSettlementFeePercentage","type":"event"},{"anonymous":false,"inputs":[{"indexed":false,"internalType":"address","name":"account","type":"address"}],"name":"UpdateSettlementFeeRecipient","type":"event"},{"anonymous":false,"inputs":[{"indexed":false,"internalType":"uint256","name":"value","type":"uint256"}],"name":"UpdateStakingFeePercentage","type":"event"},{"anonymous":false,"inputs":[{"indexed":false,"internalType":"uint256","name":"value","type":"uint256"}],"name":"UpdateStrike","type":"event"},{"anonymous":false,"inputs":[{"indexed":false,"internalType":"enum IOptionsConfig.PermittedTradingType","name":"permissionType","type":"uint8"}],"name":"UpdateTradingPermission","type":"event"},{"anonymous":false,"inputs":[{"indexed":false,"internalType":"uint256","name":"value","type":"uint256"}],"name":"UpdateUnits","type":"event"},{"inputs":[{"internalType":"enum IBufferOptions.OptionType","name":"optionType","type":"uint8"},{"internalType":"uint256","name":"period","type":"uint256"},{"internalType":"uint256","name":"amount","type":"uint256"},{"internalType":"uint256","name":"strikeFee","type":"uint256"},{"internalType":"uint256","name":"totalFee","type":"uint256"},{"internalType":"uint256","name":"msgValue","type":"uint256"}],"name":"checkParams","outputs":[],"stateMutability":"pure","type":"function"},{"inputs":[],"name":"fixedStrike","outputs":[{"internalType":"uint256","name":"","type":"uint256"}],"stateMutability":"view","type":"function"},{"inputs":[],"name":"impliedVolRate","outputs":[{"internalType":"uint256","name":"","type":"uint256"}],"stateMutability":"view","type":"function"},{"inputs":[{"internalType":"uint256","name":"initialImpliedVolRate","type":"uint256"},{"internalType":"uint256","name":"initialStrike","type":"uint256"}],"name":"initialize","outputs":[],"stateMutability":"nonpayable","type":"function"},{"inputs":[],"name":"isInitialized","outputs":[{"internalType":"bool","name":"","type":"bool"}],"stateMutability":"view","type":"function"},{"inputs":[],"name":"nftSaleRoyaltyPercentage","outputs":[{"internalType":"uint256","name":"","type":"uint256"}],"stateMutability":"view","type":"function"},{"inputs":[],"name":"optionCollateralizationRatio","outputs":[{"internalType":"uint256","name":"","type":"uint256"}],"stateMutability":"view","type":"function"},{"inputs":[],"name":"owner","outputs":[{"internalType":"address","name":"","type":"address"}],"stateMutability":"view","type":"function"},{"inputs":[],"name":"permittedTradingType","outputs":[{"internalType":"enum IOptionsConfig.PermittedTradingType","name":"","type":"uint8"}],"stateMutability":"view","type":"function"},{"inputs":[],"name":"pool","outputs":[{"internalType":"contract BufferEpocPoolV2Unintialized","name":"","type":"address"}],"stateMutability":"view","type":"function"},{"inputs":[],"name":"renounceOwnership","outputs":[],"stateMutability":"nonpayable","type":"function"},{"inputs":[{"internalType":"uint256","name":"value","type":"uint256"}],"name":"setImpliedVolRate","outputs":[],"stateMutability":"nonpayable","type":"function"},{"inputs":[{"internalType":"uint256","name":"value","type":"uint256"}],"name":"setNFTSaleRoyaltyPercentage","outputs":[],"stateMutability":"nonpayable","type":"function"},{"inputs":[{"internalType":"uint256","name":"value","type":"uint256"}],"name":"setOptionCollaterizationRatio","outputs":[],"stateMutability":"nonpayable","type":"function"},{"inputs":[{"internalType":"uint256","name":"value","type":"uint256"}],"name":"setSettlementFeePercentage","outputs":[],"stateMutability":"nonpayable","type":"function"},{"inputs":[{"internalType":"uint256","name":"value","type":"uint256"}],"name":"setStrike","outputs":[],"stateMutability":"nonpayable","type":"function"},{"inputs":[{"internalType":"enum IOptionsConfig.PermittedTradingType","name":"permissionType","type":"uint8"}],"name":"setTradingPermission","outputs":[],"stateMutability":"nonpayable","type":"function"},{"inputs":[{"internalType":"uint256","name":"value","type":"uint256"}],"name":"setUtilizationRate","outputs":[],"stateMutability":"nonpayable","type":"function"},{"inputs":[],"name":"settlementFeePercentage","outputs":[{"internalType":"uint256","name":"","type":"uint256"}],"stateMutability":"view","type":"function"},{"inputs":[{"internalType":"address","name":"newOwner","type":"address"}],"name":"transferOwnership","outputs":[],"stateMutability":"nonpayable","type":"function"},{"inputs":[],"name":"utilizationRate","outputs":[{"internalType":"uint256","name":"","type":"uint256"}],"stateMutability":"view","type":"function"}],"compiler":{"version":"0.8.4+commit.c7e474f2","evm_version":"istanbul","optimizer":{"enabled":true,"runs":1}},"contractName":"OptionConfigUnintialized","language":"Solidity","natspec":{"methods":{"checkParams(uint8,uint256,uint256,uint256,uint256,uint256)":{"notice":"Check the validity of the input params","params":{"amount":"Option amount","msgValue":"the msg.value given to the Create function","optionType":"Call or Put option type","period":"Option period in seconds (1 days <= period <= 90 days)","strikeFee":"strike fee for the option","totalFee":"total fee for the option"}},"owner()":{"details":"Returns the address of the current owner."},"renounceOwnership()":{"details":"Leaves the contract without owner. It will not be possible to call `onlyOwner` functions anymore. Can only be called by the current owner. NOTE: Renouncing ownership will leave the contract without an owner, thereby removing any functionality that is only available to the owner."},"setImpliedVolRate(uint256)":{"notice":"Used for adjusting the options prices while balancing asset's implied volatility rate","params":{"value":"New IVRate value"}},"setNFTSaleRoyaltyPercentage(uint256)":{"notice":"Used for changing nftSaleRoyaltyPercentage","params":{"value":"New nftSaleRoyaltyPercentage value"}},"setOptionCollaterizationRatio(uint256)":{"notice":"Used for changing option collateralization ratio","params":{"value":"New optionCollateralizationRatio value"}},"setSettlementFeePercentage(uint256)":{"notice":"Used for adjusting the settlement fee percentage","params":{"value":"New Settlement Fee Percentage"}},"setStrike(uint256)":{"notice":"Used for changing strike","params":{"value":"New fixedStrike value"}},"setUtilizationRate(uint256)":{"notice":"Used for updating utilizationRate value","params":{"value":"New utilizationRate value*"}},"transferOwnership(address)":{"details":"Transfers ownership of the contract to a new account (`newOwner`). Can only be called by the current owner."}},"kind":"dev","notice":"Buffer BNB Options Contract","version":1,"author":"Heisenberg","title":"Buffer BNB Bidirectional (Call and Put) Options"},"opcodes":"PUSH1 0x80 PUSH1 0x40 MSTORE CALLVALUE DUP1 ISZERO PUSH2 0x10 JUMPI PUSH1 0x0 DUP1 REVERT JUMPDEST POP PUSH1 0x4 CALLDATASIZE LT PUSH2 0x107 JUMPI PUSH1 0x0 CALLDATALOAD PUSH1 0xE0 SHR DUP1 PUSH4 0x16F0115B EQ PUSH2 0x10C JUMPI DUP1 PUSH4 0x18F88E5B EQ PUSH2 0x13C JUMPI DUP1 PUSH4 0x1EC3AD1D EQ PUSH2 0x153 JUMPI DUP1 PUSH4 0x302CE651 EQ PUSH2 0x168 JUMPI DUP1 PUSH4 0x392E53CD EQ PUSH2 0x171 JUMPI DUP1 PUSH4 0x40774FF6 EQ PUSH2 0x195 JUMPI DUP1 PUSH4 0x5CB6BC81 EQ PUSH2 0x1A8 JUMPI DUP1 PUSH4 0x5EE97101 EQ PUSH2 0x1BB JUMPI DUP1 PUSH4 0x64AC2655 EQ PUSH2 0x1C4 JUMPI DUP1 PUSH4 0x6C321C8A EQ PUSH2 0x1D7 JUMPI DUP1 PUSH4 0x715018A6 EQ PUSH2 0x1E0 JUMPI DUP1 PUSH4 0x8DA5CB5B EQ PUSH2 0x1E8 JUMPI DUP1 PUSH4 0xA08D874C EQ PUSH2 0x1F0 JUMPI DUP1 PUSH4 0xCEAEEBA9 EQ PUSH2 0x203 JUMPI DUP1 PUSH4 0xE2BEF754 EQ PUSH2 0x216 JUMPI DUP1 PUSH4 0xE4A30116 EQ PUSH2 0x229 JUMPI DUP1 PUSH4 0xED0974C7 EQ PUSH2 0x23C JUMPI DUP1 PUSH4 0xF12A0466 EQ PUSH2 0x245 JUMPI DUP1 PUSH4 0xF2FDE38B EQ PUSH2 0x266 JUMPI DUP1 PUSH4 0xF3FA3495 EQ PUSH2 0x279 JUMPI DUP1 PUSH4 0xFF0B025D EQ PUSH2 0x282 JUMPI JUMPDEST PUSH1 0x0 DUP1 REVERT JUMPDEST PUSH1 0x7 SLOAD PUSH2 0x11F SWAP1 PUSH1 0x1 PUSH1 0x1 PUSH1 0xA0 SHL SUB AND DUP2 JUMP JUMPDEST PUSH1 0x40 MLOAD PUSH1 0x1 PUSH1 0x1 PUSH1 0xA0 SHL SUB SWAP1 SWAP2 AND DUP2 MSTORE PUSH1 0x20 ADD JUMPDEST PUSH1 0x40 MLOAD DUP1 SWAP2 SUB SWAP1 RETURN JUMPDEST PUSH2 0x145 PUSH1 0x1 SLOAD DUP2 JUMP JUMPDEST PUSH1 0x40 MLOAD SWAP1 DUP2 MSTORE PUSH1 0x20 ADD PUSH2 0x133 JUMP JUMPDEST PUSH2 0x166 PUSH2 0x161 CALLDATASIZE PUSH1 0x4 PUSH2 0xE65 JUMP JUMPDEST PUSH2 0x295 JUMP JUMPDEST STOP JUMPDEST PUSH2 0x145 PUSH1 0x2 SLOAD DUP2 JUMP JUMPDEST PUSH1 0x7 SLOAD PUSH2 0x185 SWAP1 PUSH1 0x1 PUSH1 0xA8 SHL SWAP1 DIV PUSH1 0xFF AND DUP2 JUMP JUMPDEST PUSH1 0x40 MLOAD SWAP1 ISZERO ISZERO DUP2 MSTORE PUSH1 0x20 ADD PUSH2 0x133 JUMP JUMPDEST PUSH2 0x166 PUSH2 0x1A3 CALLDATASIZE PUSH1 0x4 PUSH2 0xE65 JUMP JUMPDEST PUSH2 0x365 JUMP JUMPDEST PUSH2 0x166 PUSH2 0x1B6 CALLDATASIZE PUSH1 0x4 PUSH2 0xE65 JUMP JUMPDEST PUSH2 0x420 JUMP JUMPDEST PUSH2 0x145 PUSH1 0x6 SLOAD DUP2 JUMP JUMPDEST PUSH2 0x166 PUSH2 0x1D2 CALLDATASIZE PUSH1 0x4 PUSH2 0xDF8 JUMP JUMPDEST PUSH2 0x4A5 JUMP JUMPDEST PUSH2 0x145 PUSH1 0x5 SLOAD DUP2 JUMP JUMPDEST PUSH2 0x166 PUSH2 0x658 JUMP JUMPDEST PUSH2 0x11F PUSH2 0x693 JUMP JUMPDEST PUSH2 0x166 PUSH2 0x1FE CALLDATASIZE PUSH1 0x4 PUSH2 0xE65 JUMP JUMPDEST PUSH2 0x6A2 JUMP JUMPDEST PUSH2 0x166 PUSH2 0x211 CALLDATASIZE PUSH1 0x4 PUSH2 0xE65 JUMP JUMPDEST PUSH2 0x874 JUMP JUMPDEST PUSH2 0x166 PUSH2 0x224 CALLDATASIZE PUSH1 0x4 PUSH2 0xE65 JUMP JUMPDEST PUSH2 0x9BA JUMP JUMPDEST PUSH2 0x166 PUSH2 0x237 CALLDATASIZE PUSH1 0x4 PUSH2 0xE95 JUMP JUMPDEST PUSH2 0xAD3 JUMP JUMPDEST PUSH2 0x145 PUSH1 0x4 SLOAD DUP2 JUMP JUMPDEST PUSH1 0x7 SLOAD PUSH2 0x259 SWAP1 PUSH1 0x1 PUSH1 0xA0 SHL SWAP1 DIV PUSH1 0xFF AND DUP2 JUMP JUMPDEST PUSH1 0x40 MLOAD PUSH2 0x133 SWAP2 SWAP1 PUSH2 0xEB6 JUMP JUMPDEST PUSH2 0x166 PUSH2 0x274 CALLDATASIZE PUSH1 0x4 PUSH2 0xDB9 JUMP JUMPDEST PUSH2 0xC33 JUMP JUMPDEST PUSH2 0x145 PUSH1 0x3 SLOAD DUP2 JUMP JUMPDEST PUSH2 0x166 PUSH2 0x290 CALLDATASIZE PUSH1 0x4 PUSH2 0xE46 JUMP JUMPDEST PUSH2 0xCD3 JUMP JUMPDEST CALLER PUSH2 0x29E PUSH2 0x693 JUMP JUMPDEST PUSH1 0x1 PUSH1 0x1 PUSH1 0xA0 SHL SUB AND EQ PUSH2 0x2CD JUMPI PUSH1 0x40 MLOAD PUSH3 0x461BCD PUSH1 0xE5 SHL DUP2 MSTORE PUSH1 0x4 ADD PUSH2 0x2C4 SWAP1 PUSH2 0xF03 JUMP JUMPDEST PUSH1 0x40 MLOAD DUP1 SWAP2 SUB SWAP1 REVERT JUMPDEST PUSH1 0x14 DUP2 LT PUSH2 0x329 JUMPI PUSH1 0x40 MLOAD PUSH3 0x461BCD PUSH1 0xE5 SHL DUP2 MSTORE PUSH1 0x20 PUSH1 0x4 DUP3 ADD MSTORE PUSH1 0x23 PUSH1 0x24 DUP3 ADD MSTORE PUSH32 0x536574746C656D656E7446656550657263656E7461676520697320746F6F2068 PUSH1 0x44 DUP3 ADD MSTORE PUSH3 0xD2CED PUSH1 0xEB SHL PUSH1 0x64 DUP3 ADD MSTORE PUSH1 0x84 ADD PUSH2 0x2C4 JUMP JUMPDEST PUSH1 0x3 DUP2 SWAP1 SSTORE PUSH1 0x40 MLOAD DUP2 DUP2 MSTORE PUSH32 0x803E7BBAEBADBDA418EC6DD788E57C29C1CF3FAEB7E139D21247E624C9E6D119 SWAP1 PUSH1 0x20 ADD JUMPDEST PUSH1 0x40 MLOAD DUP1 SWAP2 SUB SWAP1 LOG1 POP JUMP JUMPDEST PUSH1 0x7 PUSH1 0x0 SWAP1 SLOAD SWAP1 PUSH2 0x100 EXP SWAP1 DIV PUSH1 0x1 PUSH1 0x1 PUSH1 0xA0 SHL SUB AND PUSH1 0x1 PUSH1 0x1 PUSH1 0xA0 SHL SUB AND PUSH4 0xA4475CE4 PUSH1 0x40 MLOAD DUP2 PUSH4 0xFFFFFFFF AND PUSH1 0xE0 SHL DUP2 MSTORE PUSH1 0x4 ADD PUSH1 0x20 PUSH1 0x40 MLOAD DUP1 DUP4 SUB DUP2 DUP7 DUP1 EXTCODESIZE ISZERO DUP1 ISZERO PUSH2 0x3B3 JUMPI PUSH1 0x0 DUP1 REVERT JUMPDEST POP GAS STATICCALL ISZERO DUP1 ISZERO PUSH2 0x3C7 JUMPI RETURNDATASIZE PUSH1 0x0 DUP1 RETURNDATACOPY RETURNDATASIZE PUSH1 0x0 REVERT JUMPDEST POP POP POP POP PUSH1 0x40 MLOAD RETURNDATASIZE PUSH1 0x1F NOT PUSH1 0x1F DUP3 ADD AND DUP3 ADD DUP1 PUSH1 0x40 MSTORE POP DUP2 ADD SWAP1 PUSH2 0x3EB SWAP2 SWAP1 PUSH2 0xDDC JUMP JUMPDEST PUSH1 0x1 PUSH1 0x1 PUSH1 0xA0 SHL SUB AND CALLER PUSH1 0x1 PUSH1 0x1 PUSH1 0xA0 SHL SUB AND EQ PUSH2 0x41B JUMPI PUSH1 0x40 MLOAD PUSH3 0x461BCD PUSH1 0xE5 SHL DUP2 MSTORE PUSH1 0x4 ADD PUSH2 0x2C4 SWAP1 PUSH2 0xF38 JUMP JUMPDEST PUSH1 0x5 SSTORE JUMP JUMPDEST CALLER PUSH2 0x429 PUSH2 0x693 JUMP JUMPDEST PUSH1 0x1 PUSH1 0x1 PUSH1 0xA0 SHL SUB AND EQ PUSH2 0x44F JUMPI PUSH1 0x40 MLOAD PUSH3 0x461BCD PUSH1 0xE5 SHL DUP2 MSTORE PUSH1 0x4 ADD PUSH2 0x2C4 SWAP1 PUSH2 0xF03 JUMP JUMPDEST PUSH1 0xA DUP2 GT ISZERO PUSH2 0x470 JUMPI PUSH1 0x40 MLOAD PUSH3 0x461BCD PUSH1 0xE5 SHL DUP2 MSTORE PUSH1 0x4 ADD PUSH2 0x2C4 SWAP1 PUSH2 0xEDE JUMP JUMPDEST PUSH1 0x4 DUP2 SWAP1 SSTORE PUSH1 0x40 MLOAD DUP2 DUP2 MSTORE PUSH32 0x8FB679AA627958FC7143B0829745D581E0F5E98599847E7097749CE89D8C88E0 SWAP1 PUSH1 0x20 ADD PUSH2 0x35A JUMP JUMPDEST PUSH1 0x2 DUP7 PUSH1 0x2 DUP2 GT ISZERO PUSH2 0x4C7 JUMPI PUSH4 0x4E487B71 PUSH1 0xE0 SHL PUSH1 0x0 MSTORE PUSH1 0x21 PUSH1 0x4 MSTORE PUSH1 0x24 PUSH1 0x0 REVERT JUMPDEST EQ DUP1 PUSH2 0x4F2 JUMPI POP PUSH1 0x1 DUP7 PUSH1 0x2 DUP2 GT ISZERO PUSH2 0x4F0 JUMPI PUSH4 0x4E487B71 PUSH1 0xE0 SHL PUSH1 0x0 MSTORE PUSH1 0x21 PUSH1 0x4 MSTORE PUSH1 0x24 PUSH1 0x0 REVERT JUMPDEST EQ JUMPDEST PUSH2 0x532 JUMPI PUSH1 0x40 MLOAD PUSH3 0x461BCD PUSH1 0xE5 SHL DUP2 MSTORE PUSH1 0x20 PUSH1 0x4 DUP3 ADD MSTORE PUSH1 0x11 PUSH1 0x24 DUP3 ADD MSTORE PUSH17 0x57726F6E67206F7074696F6E2074797065 PUSH1 0x78 SHL PUSH1 0x44 DUP3 ADD MSTORE PUSH1 0x64 ADD PUSH2 0x2C4 JUMP JUMPDEST PUSH3 0x15180 DUP6 LT ISZERO PUSH2 0x57B JUMPI PUSH1 0x40 MLOAD PUSH3 0x461BCD PUSH1 0xE5 SHL DUP2 MSTORE PUSH1 0x20 PUSH1 0x4 DUP3 ADD MSTORE PUSH1 0x13 PUSH1 0x24 DUP3 ADD MSTORE PUSH19 0x14195C9A5BD9081A5CC81D1BDBC81CDA1BDC9D PUSH1 0x6A SHL PUSH1 0x44 DUP3 ADD MSTORE PUSH1 0x64 ADD PUSH2 0x2C4 JUMP JUMPDEST PUSH3 0x76A700 DUP6 GT ISZERO PUSH2 0x5C3 JUMPI PUSH1 0x40 MLOAD PUSH3 0x461BCD PUSH1 0xE5 SHL DUP2 MSTORE PUSH1 0x20 PUSH1 0x4 DUP3 ADD MSTORE PUSH1 0x12 PUSH1 0x24 DUP3 ADD MSTORE PUSH18 0x506572696F6420697320746F6F206C6F6E67 PUSH1 0x70 SHL PUSH1 0x44 DUP3 ADD MSTORE PUSH1 0x64 ADD PUSH2 0x2C4 JUMP JUMPDEST DUP3 DUP5 GT PUSH2 0x612 JUMPI PUSH1 0x40 MLOAD PUSH3 0x461BCD PUSH1 0xE5 SHL DUP2 MSTORE PUSH1 0x20 PUSH1 0x4 DUP3 ADD MSTORE PUSH1 0x1D PUSH1 0x24 DUP3 ADD MSTORE PUSH32 0x507269636520646966666572656E636520697320746F6F206C61726765000000 PUSH1 0x44 DUP3 ADD MSTORE PUSH1 0x64 ADD PUSH2 0x2C4 JUMP JUMPDEST DUP2 DUP2 LT ISZERO PUSH2 0x650 JUMPI PUSH1 0x40 MLOAD PUSH3 0x461BCD PUSH1 0xE5 SHL DUP2 MSTORE PUSH1 0x20 PUSH1 0x4 DUP3 ADD MSTORE PUSH1 0xB PUSH1 0x24 DUP3 ADD MSTORE PUSH11 0x57726F6E672076616C7565 PUSH1 0xA8 SHL PUSH1 0x44 DUP3 ADD MSTORE PUSH1 0x64 ADD PUSH2 0x2C4 JUMP JUMPDEST POP POP POP POP POP POP JUMP JUMPDEST CALLER PUSH2 0x661 PUSH2 0x693 JUMP JUMPDEST PUSH1 0x1 PUSH1 0x1 PUSH1 0xA0 SHL SUB AND EQ PUSH2 0x687 JUMPI PUSH1 0x40 MLOAD PUSH3 0x461BCD PUSH1 0xE5 SHL DUP2 MSTORE PUSH1 0x4 ADD PUSH2 0x2C4 SWAP1 PUSH2 0xF03 JUMP JUMPDEST PUSH2 0x691 PUSH1 0x0 PUSH2 0xD69 JUMP JUMPDEST JUMP JUMPDEST PUSH1 0x0 SLOAD PUSH1 0x1 PUSH1 0x1 PUSH1 0xA0 SHL SUB AND SWAP1 JUMP JUMPDEST PUSH1 0x7 PUSH1 0x0 SWAP1 SLOAD SWAP1 PUSH2 0x100 EXP SWAP1 DIV PUSH1 0x1 PUSH1 0x1 PUSH1 0xA0 SHL SUB AND PUSH1 0x1 PUSH1 0x1 PUSH1 0xA0 SHL SUB AND PUSH4 0xA4475CE4 PUSH1 0x40 MLOAD DUP2 PUSH4 0xFFFFFFFF AND PUSH1 0xE0 SHL DUP2 MSTORE PUSH1 0x4 ADD PUSH1 0x20 PUSH1 0x40 MLOAD DUP1 DUP4 SUB DUP2 DUP7 DUP1 EXTCODESIZE ISZERO DUP1 ISZERO PUSH2 0x6F0 JUMPI PUSH1 0x0 DUP1 REVERT JUMPDEST POP GAS STATICCALL ISZERO DUP1 ISZERO PUSH2 0x704 JUMPI RETURNDATASIZE PUSH1 0x0 DUP1 RETURNDATACOPY RETURNDATASIZE PUSH1 0x0 REVERT JUMPDEST POP POP POP POP PUSH1 0x40 MLOAD RETURNDATASIZE PUSH1 0x1F NOT PUSH1 0x1F DUP3 ADD AND DUP3 ADD DUP1 PUSH1 0x40 MSTORE POP DUP2 ADD SWAP1 PUSH2 0x728 SWAP2 SWAP1 PUSH2 0xDDC JUMP JUMPDEST PUSH1 0x1 PUSH1 0x1 PUSH1 0xA0 SHL SUB AND CALLER PUSH1 0x1 PUSH1 0x1 PUSH1 0xA0 SHL SUB AND EQ PUSH2 0x758 JUMPI PUSH1 0x40 MLOAD PUSH3 0x461BCD PUSH1 0xE5 SHL DUP2 MSTORE PUSH1 0x4 ADD PUSH2 0x2C4 SWAP1 PUSH2 0xF38 JUMP JUMPDEST PUSH1 0x7 PUSH1 0x0 SWAP1 SLOAD SWAP1 PUSH2 0x100 EXP SWAP1 DIV PUSH1 0x1 PUSH1 0x1 PUSH1 0xA0 SHL SUB AND PUSH1 0x1 PUSH1 0x1 PUSH1 0xA0 SHL SUB AND PUSH4 0xA834069B PUSH1 0x40 MLOAD DUP2 PUSH4 0xFFFFFFFF AND PUSH1 0xE0 SHL DUP2 MSTORE PUSH1 0x4 ADD PUSH1 0x20 PUSH1 0x40 MLOAD DUP1 DUP4 SUB DUP2 DUP7 DUP1 EXTCODESIZE ISZERO DUP1 ISZERO PUSH2 0x7A6 JUMPI PUSH1 0x0 DUP1 REVERT JUMPDEST POP GAS STATICCALL ISZERO DUP1 ISZERO PUSH2 0x7BA JUMPI RETURNDATASIZE PUSH1 0x0 DUP1 RETURNDATACOPY RETURNDATASIZE PUSH1 0x0 REVERT JUMPDEST POP POP POP POP PUSH1 0x40 MLOAD RETURNDATASIZE PUSH1 0x1F NOT PUSH1 0x1F DUP3 ADD AND DUP3 ADD DUP1 PUSH1 0x40 MSTORE POP DUP2 ADD SWAP1 PUSH2 0x7DE SWAP2 SWAP1 PUSH2 0xE7D JUMP JUMPDEST TIMESTAMP GT PUSH2 0x83F JUMPI PUSH1 0x40 MLOAD PUSH3 0x461BCD PUSH1 0xE5 SHL DUP2 MSTORE PUSH1 0x20 PUSH1 0x4 DUP3 ADD MSTORE PUSH1 0x2A PUSH1 0x24 DUP3 ADD MSTORE PUSH32 0x43616E2774206368616E676520737472696B65206265666F7265207468652065 PUSH1 0x44 DUP3 ADD MSTORE PUSH10 0x787069727920656E6473 PUSH1 0xB0 SHL PUSH1 0x64 DUP3 ADD MSTORE PUSH1 0x84 ADD PUSH2 0x2C4 JUMP JUMPDEST PUSH1 0x6 DUP2 SWAP1 SSTORE PUSH1 0x40 MLOAD DUP2 DUP2 MSTORE PUSH32 0xD7120AE25FFB24B73B21C585F172272CCE904BDD03D819732ECC914F4CE49CF0 SWAP1 PUSH1 0x20 ADD PUSH2 0x35A JUMP JUMPDEST PUSH1 0x7 PUSH1 0x0 SWAP1 SLOAD SWAP1 PUSH2 0x100 EXP SWAP1 DIV PUSH1 0x1 PUSH1 0x1 PUSH1 0xA0 SHL SUB AND PUSH1 0x1 PUSH1 0x1 PUSH1 0xA0 SHL SUB AND PUSH4 0xA4475CE4 PUSH1 0x40 MLOAD DUP2 PUSH4 0xFFFFFFFF AND PUSH1 0xE0 SHL DUP2 MSTORE PUSH1 0x4 ADD PUSH1 0x20 PUSH1 0x40 MLOAD DUP1 DUP4 SUB DUP2 DUP7 DUP1 EXTCODESIZE ISZERO DUP1 ISZERO PUSH2 0x8C2 JUMPI PUSH1 0x0 DUP1 REVERT JUMPDEST POP GAS STATICCALL ISZERO DUP1 ISZERO PUSH2 0x8D6 JUMPI RETURNDATASIZE PUSH1 0x0 DUP1 RETURNDATACOPY RETURNDATASIZE PUSH1 0x0 REVERT JUMPDEST POP POP POP POP PUSH1 0x40 MLOAD RETURNDATASIZE PUSH1 0x1F NOT PUSH1 0x1F DUP3 ADD AND DUP3 ADD DUP1 PUSH1 0x40 MSTORE POP DUP2 ADD SWAP1 PUSH2 0x8FA SWAP2 SWAP1 PUSH2 0xDDC JUMP JUMPDEST PUSH1 0x1 PUSH1 0x1 PUSH1 0xA0 SHL SUB AND CALLER PUSH1 0x1 PUSH1 0x1 PUSH1 0xA0 SHL SUB AND EQ PUSH2 0x92A JUMPI PUSH1 0x40 MLOAD PUSH3 0x461BCD PUSH1 0xE5 SHL DUP2 MSTORE PUSH1 0x4 ADD PUSH2 0x2C4 SWAP1 PUSH2 0xF38 JUMP JUMPDEST PUSH1 0x64 DUP2 LT ISZERO PUSH2 0x985 JUMPI PUSH1 0x40 MLOAD PUSH3 0x461BCD PUSH1 0xE5 SHL DUP2 MSTORE PUSH1 0x20 PUSH1 0x4 DUP3 ADD MSTORE PUSH1 0x21 PUSH1 0x24 DUP3 ADD MSTORE PUSH32 0x496D706C696564566F6C52617465206C696D697420697320746F6F20736D616C PUSH1 0x44 DUP3 ADD MSTORE PUSH1 0x1B PUSH1 0xFA SHL PUSH1 0x64 DUP3 ADD MSTORE PUSH1 0x84 ADD PUSH2 0x2C4 JUMP JUMPDEST PUSH1 0x1 DUP2 SWAP1 SSTORE PUSH1 0x40 MLOAD DUP2 DUP2 MSTORE PUSH32 0x3E0C59249D1A9C5F08383BDBDFBC45517A71B76E72223AE649C576E4D1258696 SWAP1 PUSH1 0x20 ADD PUSH2 0x35A JUMP JUMPDEST PUSH1 0x7 PUSH1 0x0 SWAP1 SLOAD SWAP1 PUSH2 0x100 EXP SWAP1 DIV PUSH1 0x1 PUSH1 0x1 PUSH1 0xA0 SHL SUB AND PUSH1 0x1 PUSH1 0x1 PUSH1 0xA0 SHL SUB AND PUSH4 0xA4475CE4 PUSH1 0x40 MLOAD DUP2 PUSH4 0xFFFFFFFF AND PUSH1 0xE0 SHL DUP2 MSTORE PUSH1 0x4 ADD PUSH1 0x20 PUSH1 0x40 MLOAD DUP1 DUP4 SUB DUP2 DUP7 DUP1 EXTCODESIZE ISZERO DUP1 ISZERO PUSH2 0xA08 JUMPI PUSH1 0x0 DUP1 REVERT JUMPDEST POP GAS STATICCALL ISZERO DUP1 ISZERO PUSH2 0xA1C JUMPI RETURNDATASIZE PUSH1 0x0 DUP1 RETURNDATACOPY RETURNDATASIZE PUSH1 0x0 REVERT JUMPDEST POP POP POP POP PUSH1 0x40 MLOAD RETURNDATASIZE PUSH1 0x1F NOT PUSH1 0x1F DUP3 ADD AND DUP3 ADD DUP1 PUSH1 0x40 MSTORE POP DUP2 ADD SWAP1 PUSH2 0xA40 SWAP2 SWAP1 PUSH2 0xDDC JUMP JUMPDEST PUSH1 0x1 PUSH1 0x1 PUSH1 0xA0 SHL SUB AND CALLER PUSH1 0x1 PUSH1 0x1 PUSH1 0xA0 SHL SUB AND EQ PUSH2 0xA70 JUMPI PUSH1 0x40 MLOAD PUSH3 0x461BCD PUSH1 0xE5 SHL DUP2 MSTORE PUSH1 0x4 ADD PUSH2 0x2C4 SWAP1 PUSH2 0xF38 JUMP JUMPDEST DUP1 PUSH1 0x32 GT ISZERO DUP1 ISZERO PUSH2 0xA82 JUMPI POP PUSH1 0x64 DUP2 GT ISZERO JUMPDEST PUSH2 0xA9E JUMPI PUSH1 0x40 MLOAD PUSH3 0x461BCD PUSH1 0xE5 SHL DUP2 MSTORE PUSH1 0x4 ADD PUSH2 0x2C4 SWAP1 PUSH2 0xEDE JUMP JUMPDEST PUSH1 0x2 DUP2 SWAP1 SSTORE PUSH1 0x40 MLOAD DUP2 DUP2 MSTORE PUSH32 0x66B26A0DFAA5FC9F5C7432381208AA4BD7F13F4489299B52F09F1AF7669BB93B SWAP1 PUSH1 0x20 ADD PUSH2 0x35A JUMP JUMPDEST PUSH1 0x7 PUSH1 0x0 SWAP1 SLOAD SWAP1 PUSH2 0x100 EXP SWAP1 DIV PUSH1 0x1 PUSH1 0x1 PUSH1 0xA0 SHL SUB AND PUSH1 0x1 PUSH1 0x1 PUSH1 0xA0 SHL SUB AND PUSH4 0xA4475CE4 PUSH1 0x40 MLOAD DUP2 PUSH4 0xFFFFFFFF AND PUSH1 0xE0 SHL DUP2 MSTORE PUSH1 0x4 ADD PUSH1 0x20 PUSH1 0x40 MLOAD DUP1 DUP4 SUB DUP2 DUP7 DUP1 EXTCODESIZE ISZERO DUP1 ISZERO PUSH2 0xB21 JUMPI PUSH1 0x0 DUP1 REVERT JUMPDEST POP GAS STATICCALL ISZERO DUP1 ISZERO PUSH2 0xB35 JUMPI RETURNDATASIZE PUSH1 0x0 DUP1 RETURNDATACOPY RETURNDATASIZE PUSH1 0x0 REVERT JUMPDEST POP POP POP POP PUSH1 0x40 MLOAD RETURNDATASIZE PUSH1 0x1F NOT PUSH1 0x1F DUP3 ADD AND DUP3 ADD DUP1 PUSH1 0x40 MSTORE POP DUP2 ADD SWAP1 PUSH2 0xB59 SWAP2 SWAP1 PUSH2 0xDDC JUMP JUMPDEST PUSH1 0x1 PUSH1 0x1 PUSH1 0xA0 SHL SUB AND CALLER PUSH1 0x1 PUSH1 0x1 PUSH1 0xA0 SHL SUB AND EQ PUSH2 0xB89 JUMPI PUSH1 0x40 MLOAD PUSH3 0x461BCD PUSH1 0xE5 SHL DUP2 MSTORE PUSH1 0x4 ADD PUSH2 0x2C4 SWAP1 PUSH2 0xF38 JUMP JUMPDEST PUSH1 0x7 SLOAD PUSH1 0x1 PUSH1 0xA8 SHL SWAP1 DIV PUSH1 0xFF AND ISZERO PUSH2 0xBD9 JUMPI PUSH1 0x40 MLOAD PUSH3 0x461BCD PUSH1 0xE5 SHL DUP2 MSTORE PUSH1 0x20 PUSH1 0x4 DUP3 ADD MSTORE PUSH1 0x13 PUSH1 0x24 DUP3 ADD MSTORE PUSH19 0x105B1C9958591E481A5B9A5D1A585B1A5E9959 PUSH1 0x6A SHL PUSH1 0x44 DUP3 ADD MSTORE PUSH1 0x64 ADD PUSH2 0x2C4 JUMP JUMPDEST PUSH1 0x6 DUP2 SWAP1 SSTORE PUSH1 0x1 DUP3 SWAP1 SSTORE PUSH1 0x7 DUP1 SLOAD PUSH1 0xFF PUSH1 0xA8 SHL NOT AND PUSH1 0x1 PUSH1 0xA8 SHL OR SWAP1 SSTORE PUSH1 0x40 DUP1 MLOAD DUP3 DUP2 MSTORE PUSH1 0x20 DUP2 ADD DUP5 SWAP1 MSTORE PUSH32 0xD6E7F90FE4EB2761D9FC5C0AD1A51A1599621B06481D749D3A3058B3A843D78D SWAP2 ADD PUSH1 0x40 MLOAD DUP1 SWAP2 SUB SWAP1 LOG1 POP POP JUMP JUMPDEST CALLER PUSH2 0xC3C PUSH2 0x693 JUMP JUMPDEST PUSH1 0x1 PUSH1 0x1 PUSH1 0xA0 SHL SUB AND EQ PUSH2 0xC62 JUMPI PUSH1 0x40 MLOAD PUSH3 0x461BCD PUSH1 0xE5 SHL DUP2 MSTORE PUSH1 0x4 ADD PUSH2 0x2C4 SWAP1 PUSH2 0xF03 JUMP JUMPDEST PUSH1 0x1 PUSH1 0x1 PUSH1 0xA0 SHL SUB DUP2 AND PUSH2 0xCC7 JUMPI PUSH1 0x40 MLOAD PUSH3 0x461BCD PUSH1 0xE5 SHL DUP2 MSTORE PUSH1 0x20 PUSH1 0x4 DUP3 ADD MSTORE PUSH1 0x26 PUSH1 0x24 DUP3 ADD MSTORE PUSH32 0x4F776E61626C653A206E6577206F776E657220697320746865207A65726F2061 PUSH1 0x44 DUP3 ADD MSTORE PUSH6 0x646472657373 PUSH1 0xD0 SHL PUSH1 0x64 DUP3 ADD MSTORE PUSH1 0x84 ADD PUSH2 0x2C4 JUMP JUMPDEST PUSH2 0xCD0 DUP2 PUSH2 0xD69 JUMP JUMPDEST POP JUMP JUMPDEST CALLER PUSH2 0xCDC PUSH2 0x693 JUMP JUMPDEST PUSH1 0x1 PUSH1 0x1 PUSH1 0xA0 SHL SUB AND EQ PUSH2 0xD02 JUMPI PUSH1 0x40 MLOAD PUSH3 0x461BCD PUSH1 0xE5 SHL DUP2 MSTORE PUSH1 0x4 ADD PUSH2 0x2C4 SWAP1 PUSH2 0xF03 JUMP JUMPDEST PUSH1 0x7 DUP1 SLOAD DUP3 SWAP2 SWAP1 PUSH1 0xFF PUSH1 0xA0 SHL NOT AND PUSH1 0x1 PUSH1 0xA0 SHL DUP4 PUSH1 0x3 DUP2 GT ISZERO PUSH2 0xD35 JUMPI PUSH4 0x4E487B71 PUSH1 0xE0 SHL PUSH1 0x0 MSTORE PUSH1 0x21 PUSH1 0x4 MSTORE PUSH1 0x24 PUSH1 0x0 REVERT JUMPDEST MUL OR SWAP1 SSTORE POP PUSH32 0x75E98309D621801FC34E8CE7FA6EAA10B82599A58639171FE865E39BB4728D48 DUP2 PUSH1 0x40 MLOAD PUSH2 0x35A SWAP2 SWAP1 PUSH2 0xEB6 JUMP JUMPDEST PUSH1 0x0 DUP1 SLOAD PUSH1 0x1 PUSH1 0x1 PUSH1 0xA0 SHL SUB DUP4 DUP2 AND PUSH1 0x1 PUSH1 0x1 PUSH1 0xA0 SHL SUB NOT DUP4 AND DUP2 OR DUP5 SSTORE PUSH1 0x40 MLOAD SWAP2 SWAP1 SWAP3 AND SWAP3 DUP4 SWAP2 PUSH32 0x8BE0079C531659141344CD1FD0A4F28419497F9722A3DAAFE3B4186F6B6457E0 SWAP2 SWAP1 LOG3 POP POP JUMP JUMPDEST PUSH1 0x0 PUSH1 0x20 DUP3 DUP5 SUB SLT ISZERO PUSH2 0xDCA JUMPI DUP1 DUP2 REVERT JUMPDEST DUP2 CALLDATALOAD PUSH2 0xDD5 DUP2 PUSH2 0xF6B JUMP JUMPDEST SWAP4 SWAP3 POP POP POP JUMP JUMPDEST PUSH1 0x0 PUSH1 0x20 DUP3 DUP5 SUB SLT ISZERO PUSH2 0xDED JUMPI DUP1 DUP2 REVERT JUMPDEST DUP2 MLOAD PUSH2 0xDD5 DUP2 PUSH2 0xF6B JUMP JUMPDEST PUSH1 0x0 DUP1 PUSH1 0x0 DUP1 PUSH1 0x0 DUP1 PUSH1 0xC0 DUP8 DUP10 SUB SLT ISZERO PUSH2 0xE10 JUMPI DUP2 DUP3 REVERT JUMPDEST DUP7 CALLDATALOAD PUSH1 0x3 DUP2 LT PUSH2 0xE1E JUMPI DUP3 DUP4 REVERT JUMPDEST SWAP9 PUSH1 0x20 DUP9 ADD CALLDATALOAD SWAP9 POP PUSH1 0x40 DUP9 ADD CALLDATALOAD SWAP8 PUSH1 0x60 DUP2 ADD CALLDATALOAD SWAP8 POP PUSH1 0x80 DUP2 ADD CALLDATALOAD SWAP7 POP PUSH1 0xA0 ADD CALLDATALOAD SWAP5 POP SWAP3 POP POP POP JUMP JUMPDEST PUSH1 0x0 PUSH1 0x20 DUP3 DUP5 SUB SLT ISZERO PUSH2 0xE57 JUMPI DUP1 DUP2 REVERT JUMPDEST DUP2 CALLDATALOAD PUSH1 0x4 DUP2 LT PUSH2 0xDD5 JUMPI DUP2 DUP3 REVERT JUMPDEST PUSH1 0x0 PUSH1 0x20 DUP3 DUP5 SUB SLT ISZERO PUSH2 0xE76 JUMPI DUP1 DUP2 REVERT JUMPDEST POP CALLDATALOAD SWAP2 SWAP1 POP JUMP JUMPDEST PUSH1 0x0 PUSH1 0x20 DUP3 DUP5 SUB SLT ISZERO PUSH2 0xE8E JUMPI DUP1 DUP2 REVERT JUMPDEST POP MLOAD SWAP2 SWAP1 POP JUMP JUMPDEST PUSH1 0x0 DUP1 PUSH1 0x40 DUP4 DUP6 SUB SLT ISZERO PUSH2 0xEA7 JUMPI DUP2 DUP3 REVERT JUMPDEST POP POP DUP1 CALLDATALOAD SWAP3 PUSH1 0x20 SWAP1 SWAP2 ADD CALLDATALOAD SWAP2 POP JUMP JUMPDEST PUSH1 0x20 DUP2 ADD PUSH1 0x4 DUP4 LT PUSH2 0xED8 JUMPI PUSH4 0x4E487B71 PUSH1 0xE0 SHL PUSH1 0x0 MSTORE PUSH1 0x21 PUSH1 0x4 MSTORE PUSH1 0x24 PUSH1 0x0 REVERT JUMPDEST SWAP2 SWAP1 MSTORE SWAP1 JUMP JUMPDEST PUSH1 0x20 DUP1 DUP3 MSTORE PUSH1 0xB SWAP1 DUP3 ADD MSTORE PUSH11 0x77726F6E672076616C7565 PUSH1 0xA8 SHL PUSH1 0x40 DUP3 ADD MSTORE PUSH1 0x60 ADD SWAP1 JUMP JUMPDEST PUSH1 0x20 DUP1 DUP3 MSTORE DUP2 DUP2 ADD MSTORE PUSH32 0x4F776E61626C653A2063616C6C6572206973206E6F7420746865206F776E6572 PUSH1 0x40 DUP3 ADD MSTORE PUSH1 0x60 ADD SWAP1 JUMP JUMPDEST PUSH1 0x20 DUP1 DUP3 MSTORE PUSH1 0x19 SWAP1 DUP3 ADD MSTORE PUSH25 0x596F7520646F6E277420686176652074686520616363657373 PUSH1 0x38 SHL PUSH1 0x40 DUP3 ADD MSTORE PUSH1 0x60 ADD SWAP1 JUMP JUMPDEST PUSH1 0x1 PUSH1 0x1 PUSH1 0xA0 SHL SUB DUP2 AND DUP2 EQ PUSH2 0xCD0 JUMPI PUSH1 0x0 DUP1 REVERT INVALID LOG2 PUSH5 0x6970667358 0x22 SLT KECCAK256 0xD7 CODECOPY EXTCODESIZE 0xA7 DUP9 DUP13 AND 0x4D EXTCODECOPY PUSH31 0x7E7182DC0845E21F465FCF61BC9EBACD0B922A537AA064736F6C6343000804 STOP CALLER ","sha1":"9a646e5325ac03cf90b5006cf04f6b0cc0d0a205","source":"pragma solidity ^0.8.0;\n\n// SPDX-License-Identifier: BUSL-1.1\n\nimport \"@openzeppelin/contracts/access/Ownable.sol\";\nimport \"../Pool/BufferEpocPoolV2Unintialized.sol\";\n\n/**\n * @author Heisenberg\n * @title Buffer BNB Bidirectional (Call and Put) Options\n * @notice Buffer BNB Options Contract\n */\ncontract OptionConfigUnintialized is Ownable, IBufferOptions, IOptionsConfig {\n    uint256 public impliedVolRate;\n    uint256 public optionCollateralizationRatio = 100;\n    uint256 public settlementFeePercentage = 1;\n    uint256 public nftSaleRoyaltyPercentage = 5;\n    uint256 internal constant PRICE_DECIMALS = 1e8;\n    uint256 public utilizationRate = 60e8;\n    uint256 public fixedStrike;\n    BufferEpocPoolV2Unintialized public pool;\n    PermittedTradingType public permittedTradingType;\n    bool public isInitialized = false;\n\n    constructor(BufferEpocPoolV2Unintialized _pool) {\n        pool = _pool;\n    }\n\n    function initialize(uint256 initialImpliedVolRate, uint256 initialStrike)\n        external\n        onlyProjectOwner\n    {\n        require(!isInitialized, \"Already initialized\");\n        fixedStrike = initialStrike;\n        impliedVolRate = initialImpliedVolRate;\n        isInitialized = true;\n        emit Initialize(initialStrike, initialImpliedVolRate);\n    }\n\n    /**\n     * @notice Check the validity of the input params\n     * @param optionType Call or Put option type\n     * @param period Option period in seconds (1 days <= period <= 90 days)\n     * @param amount Option amount\n     * @param strikeFee strike fee for the option\n     * @param totalFee total fee for the option\n     * @param msgValue the msg.value given to the Create function\n     */\n    function checkParams(\n        IBufferOptions.OptionType optionType,\n        uint256 period,\n        uint256 amount,\n        uint256 strikeFee,\n        uint256 totalFee,\n        uint256 msgValue\n    ) external pure {\n        require(\n            optionType == IBufferOptions.OptionType.Call ||\n                optionType == IBufferOptions.OptionType.Put,\n            \"Wrong option type\"\n        );\n        require(period >= 1 days, \"Period is too short\");\n        require(period <= 90 days, \"Period is too long\");\n        require(amount > strikeFee, \"Price difference is too large\");\n        require(msgValue >= totalFee, \"Wrong value\");\n    }\n\n    /**\n     * @notice Used for adjusting the options prices while balancing asset's implied volatility rate\n     * @param value New IVRate value\n     */\n    function setImpliedVolRate(uint256 value) external onlyProjectOwner {\n        require(value >= 100, \"ImpliedVolRate limit is too small\");\n        impliedVolRate = value;\n        emit UpdateImpliedVolatility(value);\n    }\n\n    function setTradingPermission(PermittedTradingType permissionType)\n        external\n        onlyOwner\n    {\n        permittedTradingType = permissionType;\n        emit UpdateTradingPermission(permissionType);\n    }\n\n    /**\n     * @notice Used for changing strike\n     * @param value New fixedStrike value\n     */\n    function setStrike(uint256 value) external onlyProjectOwner {\n        require(\n            block.timestamp > pool.fixedExpiry(),\n            \"Can't change strike before the expiry ends\"\n        );\n        fixedStrike = value;\n        emit UpdateStrike(value);\n    }\n\n    /**\n     * @notice Used for adjusting the settlement fee percentage\n     * @param value New Settlement Fee Percentage\n     */\n    function setSettlementFeePercentage(uint256 value) external onlyOwner {\n        require(value < 20, \"SettlementFeePercentage is too high\");\n        settlementFeePercentage = value;\n        emit UpdateSettlementFeePercentage(value);\n    }\n\n    /**\n     * @notice Used for changing option collateralization ratio\n     * @param value New optionCollateralizationRatio value\n     */\n    function setOptionCollaterizationRatio(uint256 value)\n        external\n        onlyProjectOwner\n    {\n        require(50 <= value && value <= 100, \"wrong value\");\n        optionCollateralizationRatio = value;\n        emit UpdateOptionCollaterizationRatio(value);\n    }\n\n    /**\n     * @notice Used for changing nftSaleRoyaltyPercentage\n     * @param value New nftSaleRoyaltyPercentage value\n     */\n    function setNFTSaleRoyaltyPercentage(uint256 value) external onlyOwner {\n        require(value <= 10, \"wrong value\");\n        nftSaleRoyaltyPercentage = value;\n        emit UpdateNFTSaleRoyaltyPercentage(value);\n    }\n\n    /**\n     * @notice Used for updating utilizationRate value\n     * @param value New utilizationRate value\n     **/\n    function setUtilizationRate(uint256 value) external onlyProjectOwner {\n        utilizationRate = value;\n    }\n\n    modifier onlyProjectOwner() {\n        require(msg.sender == pool.projectOwner(), \"You don't have the access\");\n        _;\n    }\n}\n","sourcePath":"contracts/OptionsUtils/OptionConfigUnintialized.sol","deployment":{"address":"0xc9F925e288Af0ECFC223D024a0C214b523C89297","chainid":"97","blockHeight":20153951}}