{"abi":[{"inputs":[{"internalType":"contract ERC20","name":"_stableCoin","type":"address"},{"internalType":"contract ITwapPriceProvider","name":"pp","type":"address"},{"internalType":"contract BufferEpocPoolV2Unintialized","name":"_pool","type":"address"},{"internalType":"contract OptionConfigUnintialized","name":"_config","type":"address"}],"stateMutability":"nonpayable","type":"constructor","name":"constructor"},{"anonymous":false,"inputs":[{"indexed":true,"internalType":"address","name":"owner","type":"address"},{"indexed":true,"internalType":"address","name":"approved","type":"address"},{"indexed":true,"internalType":"uint256","name":"tokenId","type":"uint256"}],"name":"Approval","type":"event"},{"anonymous":false,"inputs":[{"indexed":true,"internalType":"address","name":"owner","type":"address"},{"indexed":true,"internalType":"address","name":"operator","type":"address"},{"indexed":false,"internalType":"bool","name":"approved","type":"bool"}],"name":"ApprovalForAll","type":"event"},{"anonymous":false,"inputs":[{"indexed":true,"internalType":"address","name":"approval","type":"address"},{"indexed":true,"internalType":"uint256","name":"tokenId","type":"uint256"},{"indexed":false,"internalType":"uint256","name":"allowance","type":"uint256"}],"name":"ApprovalUnits","type":"event"},{"anonymous":false,"inputs":[{"indexed":true,"internalType":"address","name":"account","type":"address"},{"indexed":false,"internalType":"bool","name":"status","type":"bool"}],"name":"AutoExerciseStatusChange","type":"event"},{"anonymous":false,"inputs":[{"indexed":true,"internalType":"uint256","name":"id","type":"uint256"},{"indexed":true,"internalType":"address","name":"account","type":"address"},{"indexed":false,"internalType":"uint256","name":"settlementFee","type":"uint256"},{"indexed":false,"internalType":"uint256","name":"totalFee","type":"uint256"},{"indexed":false,"internalType":"string","name":"metadata","type":"string"}],"name":"Create","type":"event"},{"anonymous":false,"inputs":[{"indexed":true,"internalType":"uint256","name":"id","type":"uint256"},{"indexed":false,"internalType":"uint256","name":"profit","type":"uint256"}],"name":"Exercise","type":"event"},{"anonymous":false,"inputs":[{"indexed":true,"internalType":"uint256","name":"id","type":"uint256"},{"indexed":false,"internalType":"uint256","name":"premium","type":"uint256"}],"name":"Expire","type":"event"},{"anonymous":false,"inputs":[{"indexed":true,"internalType":"address","name":"owner","type":"address"},{"indexed":true,"internalType":"uint256","name":"tokenId","type":"uint256"},{"indexed":true,"internalType":"uint256","name":"targetTokenId","type":"uint256"},{"indexed":false,"internalType":"uint256","name":"mergeUnits","type":"uint256"}],"name":"Merge","type":"event"},{"anonymous":false,"inputs":[{"indexed":true,"internalType":"address","name":"previousOwner","type":"address"},{"indexed":true,"internalType":"address","name":"newOwner","type":"address"}],"name":"OwnershipTransferred","type":"event"},{"anonymous":false,"inputs":[{"indexed":true,"internalType":"address","name":"owner","type":"address"},{"indexed":false,"internalType":"uint256","name":"amount","type":"uint256"}],"name":"PayAdminFee","type":"event"},{"anonymous":false,"inputs":[{"indexed":true,"internalType":"address","name":"referrer","type":"address"},{"indexed":false,"internalType":"uint256","name":"amount","type":"uint256"}],"name":"PayReferralFee","type":"event"},{"anonymous":false,"inputs":[{"indexed":true,"internalType":"bytes32","name":"role","type":"bytes32"},{"indexed":true,"internalType":"bytes32","name":"previousAdminRole","type":"bytes32"},{"indexed":true,"internalType":"bytes32","name":"newAdminRole","type":"bytes32"}],"name":"RoleAdminChanged","type":"event"},{"anonymous":false,"inputs":[{"indexed":true,"internalType":"bytes32","name":"role","type":"bytes32"},{"indexed":true,"internalType":"address","name":"account","type":"address"},{"indexed":true,"internalType":"address","name":"sender","type":"address"}],"name":"RoleGranted","type":"event"},{"anonymous":false,"inputs":[{"indexed":true,"internalType":"bytes32","name":"role","type":"bytes32"},{"indexed":true,"internalType":"address","name":"account","type":"address"},{"indexed":true,"internalType":"address","name":"sender","type":"address"}],"name":"RoleRevoked","type":"event"},{"anonymous":false,"inputs":[{"indexed":true,"internalType":"address","name":"owner","type":"address"},{"indexed":true,"internalType":"uint256","name":"tokenId","type":"uint256"},{"indexed":false,"internalType":"uint256","name":"newTokenId","type":"uint256"},{"indexed":false,"internalType":"uint256","name":"splitUnits","type":"uint256"}],"name":"Split","type":"event"},{"anonymous":false,"inputs":[{"indexed":true,"internalType":"address","name":"from","type":"address"},{"indexed":true,"internalType":"address","name":"to","type":"address"},{"indexed":true,"internalType":"uint256","name":"tokenId","type":"uint256"}],"name":"Transfer","type":"event"},{"anonymous":false,"inputs":[{"indexed":true,"internalType":"address","name":"from","type":"address"},{"indexed":true,"internalType":"address","name":"to","type":"address"},{"indexed":true,"internalType":"uint256","name":"tokenId","type":"uint256"},{"indexed":false,"internalType":"uint256","name":"targetTokenId","type":"uint256"},{"indexed":false,"internalType":"uint256","name":"transferUnits","type":"uint256"}],"name":"TransferUnits","type":"event"},{"anonymous":false,"inputs":[{"indexed":false,"internalType":"uint256","name":"startHour","type":"uint256"},{"indexed":false,"internalType":"uint256","name":"startMinute","type":"uint256"},{"indexed":false,"internalType":"uint256","name":"endHour","type":"uint256"},{"indexed":false,"internalType":"uint256","name":"endMinute","type":"uint256"}],"name":"UpdateOptionCreationWindow","type":"event"},{"inputs":[],"name":"DEFAULT_ADMIN_ROLE","outputs":[{"internalType":"bytes32","name":"","type":"bytes32"}],"stateMutability":"view","type":"function"},{"inputs":[{"internalType":"uint256","name":"","type":"uint256"}],"name":"_units","outputs":[{"internalType":"uint256","name":"","type":"uint256"}],"stateMutability":"view","type":"function"},{"inputs":[{"internalType":"uint256","name":"optionId_","type":"uint256"},{"internalType":"address","name":"spender_","type":"address"}],"name":"allowance","outputs":[{"internalType":"uint256","name":"","type":"uint256"}],"stateMutability":"view","type":"function"},{"inputs":[{"internalType":"address","name":"to","type":"address"},{"internalType":"uint256","name":"tokenId","type":"uint256"}],"name":"approve","outputs":[],"stateMutability":"nonpayable","type":"function"},{"inputs":[{"internalType":"address","name":"to_","type":"address"},{"internalType":"uint256","name":"optionId_","type":"uint256"},{"internalType":"uint256","name":"allowance_","type":"uint256"}],"name":"approve","outputs":[],"stateMutability":"nonpayable","type":"function"},{"inputs":[{"internalType":"address","name":"owner","type":"address"}],"name":"balanceOf","outputs":[{"internalType":"uint256","name":"","type":"uint256"}],"stateMutability":"view","type":"function"},{"inputs":[{"internalType":"uint256","name":"tokenId_","type":"uint256"}],"name":"burn","outputs":[],"stateMutability":"nonpayable","type":"function"},{"inputs":[],"name":"config","outputs":[{"internalType":"contract OptionConfigUnintialized","name":"","type":"address"}],"stateMutability":"view","type":"function"},{"inputs":[{"internalType":"uint256","name":"amount","type":"uint256"},{"internalType":"string","name":"metadata","type":"string"}],"name":"create","outputs":[{"internalType":"uint256","name":"optionID","type":"uint256"}],"stateMutability":"nonpayable","type":"function"},{"inputs":[{"internalType":"uint256","name":"optionID","type":"uint256"}],"name":"exercise","outputs":[{"internalType":"uint256","name":"payout","type":"uint256"}],"stateMutability":"nonpayable","type":"function"},{"inputs":[{"internalType":"uint256","name":"optionID","type":"uint256"}],"name":"exists","outputs":[{"internalType":"bool","name":"","type":"bool"}],"stateMutability":"view","type":"function"},{"inputs":[{"internalType":"uint256","name":"","type":"uint256"}],"name":"expiryToRoundID","outputs":[{"internalType":"uint256","name":"","type":"uint256"}],"stateMutability":"view","type":"function"},{"inputs":[{"internalType":"uint256","name":"period","type":"uint256"},{"internalType":"uint256","name":"amount","type":"uint256"},{"internalType":"uint256","name":"strike","type":"uint256"},{"internalType":"enum IOptions.OptionType","name":"optionType","type":"uint8"}],"name":"fees","outputs":[{"internalType":"uint256","name":"total","type":"uint256"},{"internalType":"uint256","name":"settlementFee","type":"uint256"},{"internalType":"uint256","name":"premium","type":"uint256"}],"stateMutability":"view","type":"function"},{"inputs":[],"name":"fixedOptionType","outputs":[{"internalType":"enum IOptions.OptionType","name":"","type":"uint8"}],"stateMutability":"view","type":"function"},{"inputs":[{"internalType":"uint256","name":"tokenId","type":"uint256"}],"name":"getApproved","outputs":[{"internalType":"address","name":"","type":"address"}],"stateMutability":"view","type":"function"},{"inputs":[{"internalType":"uint256","name":"optionID","type":"uint256"}],"name":"getPayout","outputs":[{"internalType":"uint256","name":"payout","type":"uint256"}],"stateMutability":"nonpayable","type":"function"},{"inputs":[{"internalType":"bytes32","name":"role","type":"bytes32"}],"name":"getRoleAdmin","outputs":[{"internalType":"bytes32","name":"","type":"bytes32"}],"stateMutability":"view","type":"function"},{"inputs":[{"internalType":"bytes32","name":"role","type":"bytes32"},{"internalType":"address","name":"account","type":"address"}],"name":"grantRole","outputs":[],"stateMutability":"nonpayable","type":"function"},{"inputs":[{"internalType":"bytes32","name":"role","type":"bytes32"},{"internalType":"address","name":"account","type":"address"}],"name":"hasRole","outputs":[{"internalType":"bool","name":"","type":"bool"}],"stateMutability":"view","type":"function"},{"inputs":[{"internalType":"address","name":"owner","type":"address"},{"internalType":"address","name":"operator","type":"address"}],"name":"isApprovedForAll","outputs":[{"internalType":"bool","name":"","type":"bool"}],"stateMutability":"view","type":"function"},{"inputs":[],"name":"maxUnits","outputs":[{"internalType":"uint256","name":"","type":"uint256"}],"stateMutability":"view","type":"function"},{"inputs":[{"internalType":"uint256[]","name":"optionIDs","type":"uint256[]"},{"internalType":"uint256","name":"targetOptionID","type":"uint256"}],"name":"merge","outputs":[],"stateMutability":"nonpayable","type":"function"},{"inputs":[],"name":"minimumYield","outputs":[{"internalType":"uint256","name":"","type":"uint256"}],"stateMutability":"view","type":"function"},{"inputs":[],"name":"name","outputs":[{"internalType":"string","name":"","type":"string"}],"stateMutability":"view","type":"function"},{"inputs":[],"name":"nextTokenId","outputs":[{"internalType":"uint256","name":"","type":"uint256"}],"stateMutability":"view","type":"function"},{"inputs":[{"internalType":"uint256","name":"","type":"uint256"}],"name":"optionSlotMapping","outputs":[{"internalType":"uint256","name":"","type":"uint256"}],"stateMutability":"view","type":"function"},{"inputs":[{"internalType":"uint256","name":"","type":"uint256"}],"name":"options","outputs":[{"internalType":"enum IOptions.State","name":"state","type":"uint8"},{"internalType":"uint256","name":"strike","type":"uint256"},{"internalType":"uint256","name":"amount","type":"uint256"},{"internalType":"uint256","name":"lockedAmount","type":"uint256"},{"internalType":"uint256","name":"premium","type":"uint256"},{"internalType":"uint256","name":"expiration","type":"uint256"},{"internalType":"enum IOptions.OptionType","name":"optionType","type":"uint8"}],"stateMutability":"view","type":"function"},{"inputs":[],"name":"owner","outputs":[{"internalType":"address","name":"","type":"address"}],"stateMutability":"view","type":"function"},{"inputs":[{"internalType":"uint256","name":"tokenId","type":"uint256"}],"name":"ownerOf","outputs":[{"internalType":"address","name":"","type":"address"}],"stateMutability":"view","type":"function"},{"inputs":[],"name":"pool","outputs":[{"internalType":"contract BufferEpocPoolV2Unintialized","name":"","type":"address"}],"stateMutability":"view","type":"function"},{"inputs":[],"name":"priceProvider","outputs":[{"internalType":"contract ITwapPriceProvider","name":"","type":"address"}],"stateMutability":"view","type":"function"},{"inputs":[],"name":"renounceOwnership","outputs":[],"stateMutability":"nonpayable","type":"function"},{"inputs":[{"internalType":"bytes32","name":"role","type":"bytes32"},{"internalType":"address","name":"account","type":"address"}],"name":"renounceRole","outputs":[],"stateMutability":"nonpayable","type":"function"},{"inputs":[{"internalType":"bytes32","name":"role","type":"bytes32"},{"internalType":"address","name":"account","type":"address"}],"name":"revokeRole","outputs":[],"stateMutability":"nonpayable","type":"function"},{"inputs":[{"internalType":"address","name":"from","type":"address"},{"internalType":"address","name":"to","type":"address"},{"internalType":"uint256","name":"tokenId","type":"uint256"}],"name":"safeTransferFrom","outputs":[],"stateMutability":"nonpayable","type":"function"},{"inputs":[{"internalType":"address","name":"from","type":"address"},{"internalType":"address","name":"to","type":"address"},{"internalType":"uint256","name":"tokenId","type":"uint256"},{"internalType":"bytes","name":"_data","type":"bytes"}],"name":"safeTransferFrom","outputs":[],"stateMutability":"nonpayable","type":"function"},{"inputs":[{"internalType":"address","name":"operator","type":"address"},{"internalType":"bool","name":"approved","type":"bool"}],"name":"setApprovalForAll","outputs":[],"stateMutability":"nonpayable","type":"function"},{"inputs":[{"internalType":"uint256","name":"expiryRoundId","type":"uint256"}],"name":"setRoundIDForExpiry","outputs":[{"internalType":"bool","name":"isCorrectRoundId","type":"bool"}],"stateMutability":"nonpayable","type":"function"},{"inputs":[{"internalType":"uint256","name":"","type":"uint256"}],"name":"slotDetails","outputs":[{"internalType":"uint256","name":"strike","type":"uint256"},{"internalType":"uint256","name":"expiration","type":"uint256"},{"internalType":"enum IOptions.OptionType","name":"optionType","type":"uint8"},{"internalType":"bool","name":"isValid","type":"bool"}],"stateMutability":"view","type":"function"},{"inputs":[{"internalType":"uint256","name":"optionId_","type":"uint256"}],"name":"slotOf","outputs":[{"internalType":"uint256","name":"","type":"uint256"}],"stateMutability":"view","type":"function"},{"inputs":[{"internalType":"uint256","name":"optionID","type":"uint256"},{"internalType":"uint256[]","name":"splitUnits_","type":"uint256[]"}],"name":"split","outputs":[{"internalType":"uint256[]","name":"newOptionIDs","type":"uint256[]"}],"stateMutability":"nonpayable","type":"function"},{"inputs":[],"name":"stableCoin","outputs":[{"internalType":"contract ERC20","name":"","type":"address"}],"stateMutability":"view","type":"function"},{"inputs":[{"internalType":"bytes4","name":"interfaceId","type":"bytes4"}],"name":"supportsInterface","outputs":[{"internalType":"bool","name":"","type":"bool"}],"stateMutability":"view","type":"function"},{"inputs":[],"name":"symbol","outputs":[{"internalType":"string","name":"","type":"string"}],"stateMutability":"view","type":"function"},{"inputs":[{"internalType":"uint256","name":"slot_","type":"uint256"},{"internalType":"uint256","name":"index_","type":"uint256"}],"name":"tokenOfSlotByIndex","outputs":[{"internalType":"uint256","name":"","type":"uint256"}],"stateMutability":"view","type":"function"},{"inputs":[{"internalType":"uint256","name":"tokenId","type":"uint256"}],"name":"tokenURI","outputs":[{"internalType":"string","name":"","type":"string"}],"stateMutability":"view","type":"function"},{"inputs":[{"internalType":"uint256","name":"slot_","type":"uint256"}],"name":"tokensInSlot","outputs":[{"internalType":"uint256","name":"","type":"uint256"}],"stateMutability":"view","type":"function"},{"inputs":[{"internalType":"address","name":"from","type":"address"},{"internalType":"address","name":"to","type":"address"},{"internalType":"uint256","name":"tokenId","type":"uint256"}],"name":"transferFrom","outputs":[],"stateMutability":"nonpayable","type":"function"},{"inputs":[{"internalType":"address","name":"from_","type":"address"},{"internalType":"address","name":"to_","type":"address"},{"internalType":"uint256","name":"optionID","type":"uint256"},{"internalType":"uint256","name":"targetOptionID","type":"uint256"},{"internalType":"uint256","name":"transferUnits_","type":"uint256"}],"name":"transferFrom","outputs":[],"stateMutability":"nonpayable","type":"function"},{"inputs":[{"internalType":"address","name":"from_","type":"address"},{"internalType":"address","name":"to_","type":"address"},{"internalType":"uint256","name":"optionID","type":"uint256"},{"internalType":"uint256","name":"transferUnits_","type":"uint256"}],"name":"transferFrom","outputs":[{"internalType":"uint256","name":"newOptionID","type":"uint256"}],"stateMutability":"nonpayable","type":"function"},{"inputs":[{"internalType":"address","name":"newOwner","type":"address"}],"name":"transferOwnership","outputs":[],"stateMutability":"nonpayable","type":"function"},{"inputs":[],"name":"unitDecimals","outputs":[{"internalType":"uint8","name":"","type":"uint8"}],"stateMutability":"view","type":"function"},{"inputs":[{"internalType":"uint256","name":"slot_","type":"uint256"}],"name":"unitsInSlot","outputs":[{"internalType":"uint256","name":"units_","type":"uint256"}],"stateMutability":"view","type":"function"},{"inputs":[{"internalType":"uint256","name":"optionId_","type":"uint256"}],"name":"unitsInToken","outputs":[{"internalType":"uint256","name":"","type":"uint256"}],"stateMutability":"view","type":"function"},{"inputs":[{"internalType":"uint256","name":"optionID","type":"uint256"}],"name":"unlock","outputs":[],"stateMutability":"nonpayable","type":"function"},{"inputs":[{"internalType":"uint256[]","name":"optionIDs","type":"uint256[]"}],"name":"unlockAll","outputs":[],"stateMutability":"nonpayable","type":"function"}],"bytecode":"6080604052620f4240600d55600e805460ff19166012908117909155805460ff60a01b1916600160a11b17905560006013553480156200003e57600080fd5b5060405162005d4738038062005d47833981016040819052620000619162000308565b604080518082018252600a8152694275666665722050726f60b01b60208083019182528351808501909452600384526221232960e91b908401528151919291620000ae9160009162000262565b508051620000c490600190602084019062000262565b505050620000e1620000db6200015860201b60201c565b6200015c565b6001600755620000f3600033620001ae565b601080546001600160a01b038087166001600160a01b03199283161790925560158054858416908316179055426019556016805484841690831617905560128054928616929091169190911790556200014e600033620001ae565b50505050620003c5565b3390565b600680546001600160a01b038381166001600160a01b0319831681179093556040519116919082907f8be0079c531659141344cd1fd0a4f28419497f9722a3daafe3b4186f6b6457e090600090a35050565b620001ba8282620001be565b5050565b60008281526008602090815260408083206001600160a01b038516845290915290205460ff16620001ba5760008281526008602090815260408083206001600160a01b03851684529091529020805460ff191660011790556200021e3390565b6001600160a01b0316816001600160a01b0316837f2f8788117e7eff1d82e926ec794901d17c78024a50270940304540a733656f0d60405160405180910390a45050565b82805462000270906200036f565b90600052602060002090601f016020900481019282620002945760008555620002df565b82601f10620002af57805160ff1916838001178555620002df565b82800160010185558215620002df579182015b82811115620002df578251825591602001919060010190620002c2565b50620002ed929150620002f1565b5090565b5b80821115620002ed5760008155600101620002f2565b600080600080608085870312156200031e578384fd5b84516200032b81620003ac565b60208601519094506200033e81620003ac565b60408601519093506200035181620003ac565b60608601519092506200036481620003ac565b939692955090935050565b600181811c908216806200038457607f821691505b60208210811415620003a657634e487b7160e01b600052602260045260246000fd5b50919050565b6001600160a01b0381168114620003c257600080fd5b50565b61597280620003d56000396000f3fe608060405234801561001057600080fd5b50600436106102885760003560e01c80630118fa491461028d57806301ffc9a7146102b357806305271a2a146102d657806306517a29146102eb57806306fdde03146102f4578063076d948c14610309578063081812fc1461031c578063095ea7b31461034757806316f0115b1461035c5780631cecaa311461036f57806323b872dd14610390578063248a9ca3146103a3578063263f3e7e146103b65780632f2ff15d146103c957806336568abe146103dc5780633e56f9f9146103ef578063409e220514610402578063426a84931461046557806342842e0e1461047857806342966c681461048b5780634aed53c21461049e5780634f558e79146104b15780636198e339146104c45780636352211e146104d757806369c67247146104ea57806370a082311461050a578063715018a61461051d57806375794a3c1461052557806378c533ce1461052e57806379502c551461054e578063841edc0e146105615780638a584118146105815780638da5cb5b146105cc5780638dd7d2c1146105d457806391d14854146105e757806395d89b41146105fa578063992642e514610602578063a217fddf14610615578063a22cb4651461061d578063a6d14c0214610630578063a880042514610638578063b07f0a411461064b578063b888879e1461065e578063b88d4fde14610671578063bbe33ea514610684578063becef60714610697578063c7c3b53f146106aa578063c87b56dd146106cc578063d149cc30146106df578063d547741f146106f2578063d5a0e67314610705578063e342b59814610725578063e345e0bc14610738578063e985e9c514610772578063f2fde38b14610785578063fe99049a14610798575b600080fd5b6102a061029b3660046150ea565b6107ab565b6040519081526020015b60405180910390f35b6102c66102c1366004615051565b611601565b60405190151581526020016102aa565b600e5460405160ff90911681526020016102aa565b6102a0600d5481565b6102fc611612565b6040516102aa91906153f8565b6102a0610317366004615015565b6116a4565b61032f61032a366004615015565b6116e9565b6040516001600160a01b0390911681526020016102aa565b61035a610355366004614f12565b611771565b005b60155461032f906001600160a01b031681565b60125461038390600160a01b900460ff1681565b6040516102aa919061538e565b61035a61039e366004614d94565b611882565b6102a06103b1366004615015565b6118b3565b6102a06103c4366004615015565b6118c8565b61035a6103d736600461502d565b6118da565b61035a6103ea36600461502d565b6118f7565b6102a06103fd366004615015565b611975565b610452610410366004615015565b601460205260009081526040902080546001820154600283015460038401546004850154600586015460069096015460ff958616969495939492939192911687565b6040516102aa979695949392919061539c565b61035a610473366004614f3d565b611bce565b61035a610486366004614d94565b611c12565b61035a610499366004615015565b611c2d565b61035a6104ac366004614e95565b611c72565b6102c66104bf366004615015565b611d94565b61035a6104d2366004615015565b611d9f565b61032f6104e5366004615015565b61201d565b6104fd6104f83660046150a1565b612094565b6040516102aa919061534a565b6102a0610518366004614d24565b612486565b61035a61250d565b6102a060135481565b6102a061053c366004615015565b600f6020526000908152604090205481565b60165461032f906001600160a01b031681565b6102a061056f366004615015565b60176020526000908152604090205481565b6105bc61058f366004615015565b60186020526000908152604090208054600182015460029092015490919060ff8082169161010090041684565b6040516102aa9493929190615570565b61032f612548565b6102c66105e2366004615015565b612557565b6102c66105f536600461502d565b612680565b6102fc6126ab565b60105461032f906001600160a01b031681565b6102a0600081565b61035a61062b366004614ee5565b6126ba565b6102a0600581565b6102a0610646366004615015565b61277b565b6102a0610659366004615015565b612792565b60125461032f906001600160a01b031681565b61035a61067f366004614dd4565b612953565b61035a610692366004614fb0565b612986565b6102a06106a5366004615015565b612b95565b6106bd6106b83660046151b2565b612ba7565b6040516102aa939291906155e5565b6102fc6106da366004615015565b612cea565b6102a06106ed366004615141565b612cf5565b61035a61070036600461502d565b612d14565b6102a0610713366004615015565b600a6020526000908152604090205481565b61035a610733366004614f71565b612d31565b6102a061074636600461502d565b6000828152600b602090815260408083206001600160a01b038516845260010190915290205492915050565b6102c6610780366004614d5c565b612d7e565b61035a610793366004614d24565b612dac565b6102a06107a6366004614e50565b612e49565b6000600260075414156108055760405162461bcd60e51b815260206004820152601f60248201527f5265656e7472616e637947756172643a207265656e7472616e742063616c6c0060448201526064015b60405180910390fd5b60026007556015546040805163392e53cd60e01b815290516001600160a01b039092169163392e53cd91600480820192602092909190829003018186803b15801561084f57600080fd5b505afa158015610863573d6000803e3d6000fd5b505050506040513d601f19601f820116820180604052508101906108879190614ff9565b80156109145750601660009054906101000a90046001600160a01b03166001600160a01b031663392e53cd6040518163ffffffff1660e01b815260040160206040518083038186803b1580156108dc57600080fd5b505afa1580156108f0573d6000803e3d6000fd5b505050506040513d601f19601f820116820180604052508101906109149190614ff9565b6109595760405162461bcd60e51b8152602060048201526016602482015275496e697469616c697a6174696f6e2070656e64696e6760501b60448201526064016107fc565b6015546040805163a834069b60e01b815290516000926001600160a01b03169163a834069b916004808301926020929190829003018186803b15801561099e57600080fd5b505afa1580156109b2573d6000803e3d6000fd5b505050506040513d601f19601f820116820180604052508101906109d69190615089565b90504281116109f75760405162461bcd60e51b81526004016107fc90615538565b6000610a03428361578b565b905061a8c0811015610a275760405162461bcd60e51b81526004016107fc90615538565b6000806000610ac98489601660009054906101000a90046001600160a01b03166001600160a01b0316635ee971016040518163ffffffff1660e01b815260040160206040518083038186803b158015610a7f57600080fd5b505afa158015610a93573d6000803e3d6000fd5b505050506040513d601f19601f82011682018060405250810190610ab79190615089565b601254600160a01b900460ff16612ba7565b919450925090506005610adc858a61576c565b610ae6919061576c565b610af4846301e1338061576c565b610aff90606461576c565b11610b315760405162461bcd60e51b8152602060048201526002602482015261279960f11b60448201526064016107fc565b60125460408051630d67aac160e11b815290516000926001600160a01b031691631acf5582916004808301926020929190829003018186803b158015610b7657600080fd5b505afa158015610b8a573d6000803e3d6000fd5b505050506040513d601f19601f82011682018060405250810190610bae9190615089565b90506000601560009054906101000a90046001600160a01b03166001600160a01b03166316dc165b6040518163ffffffff1660e01b815260040160206040518083038186803b158015610c0057600080fd5b505afa158015610c14573d6000803e3d6000fd5b505050506040513d601f19601f82011682018060405250810190610c389190614d40565b6001600160a01b031663313ce5676040518163ffffffff1660e01b815260040160206040518083038186803b158015610c7057600080fd5b505afa158015610c84573d6000803e3d6000fd5b505050506040513d601f19601f82011682018060405250810190610ca891906151f5565b610cb390600a6156c0565b9050601560009054906101000a90046001600160a01b03166001600160a01b031663a4475ce46040518163ffffffff1660e01b815260040160206040518083038186803b158015610d0357600080fd5b505afa158015610d17573d6000803e3d6000fd5b505050506040513d601f19601f82011682018060405250810190610d3b9190614d40565b6001600160a01b0316336001600160a01b031614610f65576010546012546040805163313ce56760e01b815290516000936001600160a01b03908116936323b872dd93339330939092169163313ce56791600480820192602092909190829003018186803b158015610dac57600080fd5b505afa158015610dc0573d6000803e3d6000fd5b505050506040513d601f19601f82011682018060405250810190610de49190615089565b610def90600a6156b4565b610df9908761576c565b601060009054906101000a90046001600160a01b03166001600160a01b031663313ce5676040518163ffffffff1660e01b815260040160206040518083038186803b158015610e4757600080fd5b505afa158015610e5b573d6000803e3d6000fd5b505050506040513d601f19601f82011682018060405250810190610e7f91906151f5565b610e8a90600a6156c0565b610e94898d61576c565b610e9e919061576c565b610ea8919061565d565b6040516001600160e01b031960e086901b1681526001600160a01b0393841660048201529290911660248301526044820152606401602060405180830381600087803b158015610ef757600080fd5b505af1158015610f0b573d6000803e3d6000fd5b505050506040513d601f19601f82011682018060405250810190610f2f9190614ff9565b905080610f635760405162461bcd60e51b81526020600482015260026024820152614f3360f01b60448201526064016107fc565b505b6040805160e081018252600181526016548251635ee9710160e01b815292516000936020808501936001600160a01b031692635ee97101926004808201939291829003018186803b158015610fb957600080fd5b505afa158015610fcd573d6000803e3d6000fd5b505050506040513d601f19601f82011682018060405250810190610ff19190615089565b8152602081018d90526040016110088d600261576c565b8152602001858152602001898152602001601260149054906101000a900460ff16600281111561104857634e487b7160e01b600052602160045260246000fd5b90529050611054612f20565b98506110608982612f3a565b61108d89336110888c85602001518660a00151601260149054906101000a900460ff16612ff2565b613130565b611097898b613153565b6110aa898260600151836080015161315d565b601560009054906101000a90046001600160a01b03166001600160a01b031663a4475ce46040518163ffffffff1660e01b815260040160206040518083038186803b1580156110f857600080fd5b505afa15801561110c573d6000803e3d6000fd5b505050506040513d601f19601f820116820180604052508101906111309190614d40565b6001600160a01b0316336001600160a01b0316146115a75760105460155460408051632911d73960e21b815290516001600160a01b039384169363a9059cbb93169163a4475ce4916004808301926020929190829003018186803b15801561119757600080fd5b505afa1580156111ab573d6000803e3d6000fd5b505050506040513d601f19601f820116820180604052508101906111cf9190614d40565b601260009054906101000a90046001600160a01b03166001600160a01b031663313ce5676040518163ffffffff1660e01b815260040160206040518083038186803b15801561121d57600080fd5b505afa158015611231573d6000803e3d6000fd5b505050506040513d601f19601f820116820180604052508101906112559190615089565b61126090600a6156b4565b61126a908661576c565b601060009054906101000a90046001600160a01b03166001600160a01b031663313ce5676040518163ffffffff1660e01b815260040160206040518083038186803b1580156112b857600080fd5b505afa1580156112cc573d6000803e3d6000fd5b505050506040513d601f19601f820116820180604052508101906112f091906151f5565b6112fb90600a6156c0565b611305888a61576c565b61130f919061576c565b611319919061565d565b6040518363ffffffff1660e01b8152600401611336929190615331565b602060405180830381600087803b15801561135057600080fd5b505af1158015611364573d6000803e3d6000fd5b505050506040513d601f19601f820116820180604052508101906113889190614ff9565b506010546001600160a01b031663a9059cbb6113a2612548565b601260009054906101000a90046001600160a01b03166001600160a01b031663313ce5676040518163ffffffff1660e01b815260040160206040518083038186803b1580156113f057600080fd5b505afa158015611404573d6000803e3d6000fd5b505050506040513d601f19601f820116820180604052508101906114289190615089565b61143390600a6156b4565b61143d908661576c565b601060009054906101000a90046001600160a01b03166001600160a01b031663313ce5676040518163ffffffff1660e01b815260040160206040518083038186803b15801561148b57600080fd5b505afa15801561149f573d6000803e3d6000fd5b505050506040513d601f19601f820116820180604052508101906114c391906151f5565b6114ce90600a6156c0565b6114d8888b61576c565b6114e2919061576c565b6114ec919061565d565b6040518363ffffffff1660e01b8152600401611509929190615331565b602060405180830381600087803b15801561152357600080fd5b505af1158015611537573d6000803e3d6000fd5b505050506040513d601f19601f8201168201806040525081019061155b9190614ff9565b50611564612548565b6001600160a01b03167ff0f0487d8990103573e0e5cf4e87e101e2a1ba84c733c556b7a5807e570e5d4c8660405161159e91815260200190565b60405180910390a25b336001600160a01b0316897f89f823a0225c73a75066e963ce2eea7708b57680ec86102773dbd244f541289287898e6040516115e5939291906155c6565b60405180910390a3505060016007555094979650505050505050565b600061160c826131c8565b92915050565b606060008054611621906157e5565b80601f016020809104026020016040519081016040528092919081815260200182805461164d906157e5565b801561169a5780601f1061166f5761010080835404028352916020019161169a565b820191906000526020600020905b81548152906001019060200180831161167d57829003601f168201915b5050505050905090565b6000805b6116b18361277b565b8110156116e3576116c56106a58483612cf5565b6116cf9083615645565b9150806116db8161581a565b9150506116a8565b50919050565b60006116f4826131ed565b6117555760405162461bcd60e51b815260206004820152602c60248201527f4552433732313a20617070726f76656420717565727920666f72206e6f6e657860448201526b34b9ba32b73a103a37b5b2b760a11b60648201526084016107fc565b506000908152600460205260409020546001600160a01b031690565b600061177c8261201d565b9050806001600160a01b0316836001600160a01b031614156117ea5760405162461bcd60e51b815260206004820152602160248201527f4552433732313a20617070726f76616c20746f2063757272656e74206f776e656044820152603960f91b60648201526084016107fc565b336001600160a01b038216148061180657506118068133612d7e565b6118735760405162461bcd60e51b815260206004820152603860248201527f4552433732313a20617070726f76652063616c6c6572206973206e6f74206f776044820152771b995c881b9bdc88185c1c1c9bdd995908199bdc88185b1b60421b60648201526084016107fc565b61187d838361320a565b505050565b61188c3382613278565b6118a85760405162461bcd60e51b81526004016107fc906154e7565b61187d838383613342565b60009081526008602052604090206001015490565b6000908152600a602052604090205490565b6118e3826118b3565b6118ed81336134db565b61187d838361353f565b6001600160a01b03811633146119675760405162461bcd60e51b815260206004820152602f60248201527f416363657373436f6e74726f6c3a2063616e206f6e6c792072656e6f756e636560448201526e103937b632b9903337b91039b2b63360891b60648201526084016107fc565b61197182826135c5565b5050565b60008181526014602052604081206001815460ff1660038111156119a957634e487b7160e01b600052602160045260246000fd5b146119dc5760405162461bcd60e51b815260206004820152600360248201526213cc4d60ea1b60448201526064016107fc565b600581015460009081526017602052604090205480611a0d5760405162461bcd60e51b81526004016107fc90615479565b6012546040516303906d2960e11b8152600481018390526000916001600160a01b031690630720da5290602401604080518083038186803b158015611a5157600080fd5b505afa158015611a65573d6000803e3d6000fd5b505050506040513d601f19601f82011682018060405250810190611a899190615162565b91505060028360030154611a9d919061565d565b93506002600684015460ff166002811115611ac857634e487b7160e01b600052602160045260246000fd5b1415611b425780836001015410611b075760405162461bcd60e51b81526020600482015260036024820152624f313760e81b60448201526064016107fc565b808360020154846001015483611b1d919061578b565b611b27919061576c565b611b31919061565d565b611b3b9085615645565b9350611bb2565b80836001015411611b7b5760405162461bcd60e51b815260206004820152600360248201526209e62760eb1b60448201526064016107fc565b808360020154828560010154611b91919061578b565b611b9b919061576c565b611ba5919061565d565b611baf9085615645565b93505b8260030154841115611bc657826003015493505b505050919050565b611bd78261201d565b6001600160a01b0316336001600160a01b031614611c075760405162461bcd60e51b81526004016107fc9061540b565b61187d83838361362c565b61187d83838360405180602001604052806000815250612953565b611c368161201d565b6001600160a01b0316336001600160a01b031614611c665760405162461bcd60e51b81526004016107fc9061540b565b611c6f816136f1565b50565b611c7b82611d94565b611cad5760405162461bcd60e51b815260206004820152600360248201526227189960e91b60448201526064016107fc565b6000806000611cbc8685613709565b509250925092506000611cce86613836565b9050611d0a8682848460600151611ce59190615645565b878560400151611cf59190615645565b878660800151611d059190615645565b613925565b601554606082015160808301516040516357a5c96760e01b81529394506001600160a01b03909216926357a5c96792611d4a928b929091906004016155e5565b600060405180830381600087803b158015611d6457600080fd5b505af1158015611d78573d6000803e3d6000fd5b50505050611d898989898989613957565b505050505050505050565b600061160c826131ed565b60008181526014602052604090206005810154421015611dd15760405162461bcd60e51b81526004016107fc90615554565b6001815460ff166003811115611df757634e487b7160e01b600052602160045260246000fd5b14611e295760405162461bcd60e51b81526020600482015260026024820152614f3560f01b60448201526064016107fc565b600581015460009081526017602052604090205480611e5a5760405162461bcd60e51b81526004016107fc90615479565b6012546040516303906d2960e11b8152600481018390526000916001600160a01b031690630720da5290602401604080518083038186803b158015611e9e57600080fd5b505afa158015611eb2573d6000803e3d6000fd5b505050506040513d601f19601f82011682018060405250810190611ed69190615162565b915060029050600684015460ff166002811115611f0357634e487b7160e01b600052602160045260246000fd5b148015611f135750826001015481115b80611f5257506001600684015460ff166002811115611f4257634e487b7160e01b600052602160045260246000fd5b148015611f525750826001015481105b15611f6657611f6084612792565b50612017565b825460ff19166003178355601554604051636198e33960e01b8152600481018690526001600160a01b0390911690636198e33990602401600060405180830381600087803b158015611fb757600080fd5b505af1158015611fcb573d6000803e3d6000fd5b50505050611fd8846136f1565b837f5f36a4a575e512eb69d6d28c3b0ff98cca7ba50ad5bf04e14094ad1d425e0d31846004015460405161200e91815260200190565b60405180910390a25b50505050565b6000818152600260205260408120546001600160a01b03168061160c5760405162461bcd60e51b815260206004820152602960248201527f4552433732313a206f776e657220717565727920666f72206e6f6e657869737460448201526832b73a103a37b5b2b760b91b60648201526084016107fc565b6060816120c85760405162461bcd60e51b81526020600482015260026024820152614e3160f01b60448201526064016107fc565b816001600160401b038111156120ee57634e487b7160e01b600052604160045260246000fd5b604051908082528060200260200182016040528015612117578160200160208202803683370190505b509050600061212585613836565b9050600061213286612b95565b905060008080805b8781101561234557600061214c612f20565b90508088838151811061216f57634e487b7160e01b600052603260045260246000fd5b6020026020010181815250506121ac8b828c8c868181106121a057634e487b7160e01b600052603260045260246000fd5b90506020020135613b9d565b6000868b8b858181106121cf57634e487b7160e01b600052603260045260246000fd5b9050602002013589604001516121e5919061576c565b6121ef919061565d565b90506121fb8187615645565b95506000878c8c8681811061222057634e487b7160e01b600052603260045260246000fd5b905060200201358a60600151612236919061576c565b612240919061565d565b905061224c8187615645565b95506000888d8d8781811061227157634e487b7160e01b600052603260045260246000fd5b905060200201358b60800151612287919061576c565b612291919061565d565b905061229d8187615645565b955060006040518060e001604052808c6000015160038111156122d057634e487b7160e01b600052602160045260246000fd5b81526020018c6020015181526020018581526020018481526020018381526020018c60a0015181526020018c60c00151600281111561231f57634e487b7160e01b600052602160045260246000fd5b9052905061232d8582612f3a565b5050505050808061233d9061581a565b91505061213a565b5061237b898684886060015161235b919061578b565b86896040015161236b919061578b565b858a60800151611d05919061578b565b601554606082015160808301516040516357a5c96760e01b81529398506001600160a01b03909216926357a5c967926123bb928e929091906004016155e5565b600060405180830381600087803b1580156123d557600080fd5b505af11580156123e9573d6000803e3d6000fd5b5050505060005b8781101561247957600061242a88838151811061241d57634e487b7160e01b600052603260045260246000fd5b6020026020010151613836565b905061246688838151811061244f57634e487b7160e01b600052603260045260246000fd5b60200260200101518260600151836080015161315d565b50806124718161581a565b9150506123f0565b5050505050509392505050565b60006001600160a01b0382166124f15760405162461bcd60e51b815260206004820152602a60248201527f4552433732313a2062616c616e636520717565727920666f7220746865207a65604482015269726f206164647265737360b01b60648201526084016107fc565b506001600160a01b031660009081526003602052604090205490565b33612516612548565b6001600160a01b03161461253c5760405162461bcd60e51b81526004016107fc906154b2565b6125466000613cc7565b565b6006546001600160a01b031690565b600080601560009054906101000a90046001600160a01b03166001600160a01b031663a834069b6040518163ffffffff1660e01b815260040160206040518083038186803b1580156125a857600080fd5b505afa1580156125bc573d6000803e3d6000fd5b505050506040513d601f19601f820116820180604052508101906125e09190615089565b60125460405163284506fd60e11b81529192506001600160a01b03169063508a0dfa9061261390869085906004016153ea565b60206040518083038186803b15801561262b57600080fd5b505afa15801561263f573d6000803e3d6000fd5b505050506040513d601f19601f820116820180604052508101906126639190614ff9565b915081156116e35760009081526017602052604090209190915590565b60009182526008602090815260408084206001600160a01b0393909316845291905290205460ff1690565b606060018054611621906157e5565b6001600160a01b03821633141561270f5760405162461bcd60e51b815260206004820152601960248201527822a9219b99189d1030b8383937bb32903a379031b0b63632b960391b60448201526064016107fc565b3360008181526005602090815260408083206001600160a01b03871680855290835292819020805460ff191686151590811790915590519081529192917f17307eab39ab6107e8899845ad3d59bd9653f200f220920489ca2b5937696c31910160405180910390a35050565b6000818152600c6020526040812061160c90613d19565b600061279d82611d94565b6127cf5760405162461bcd60e51b815260206004820152600360248201526204f31360ec1b60448201526064016107fc565b6015546040805163a834069b60e01b8152905142926001600160a01b03169163a834069b916004808301926020929190829003018186803b15801561281357600080fd5b505afa158015612827573d6000803e3d6000fd5b505050506040513d601f19601f8201168201806040525081019061284b9190615089565b11156128695760405162461bcd60e51b81526004016107fc90615554565b61287282611975565b6015549091506001600160a01b03166381b34f15836128908161201d565b6040516001600160e01b031960e085901b16815260048101929092526001600160a01b0316602482015260448101849052606401600060405180830381600087803b1580156128de57600080fd5b505af11580156128f2573d6000803e3d6000fd5b505050506128ff826136f1565b600082815260146020908152604091829020805460ff19166002178155915183815284917e84fe51c7cb34b132b7b6eb5d5a87a489f8d6d284758d00a0402c1bad9a0def910160405180910390a250919050565b61295e335b83613278565b61297a5760405162461bcd60e51b81526004016107fc906154e7565b61201784848484613d23565b816129b85760405162461bcd60e51b8152602060048201526002602482015261138d60f21b60448201526064016107fc565b60006129c382613836565b606081015160408201516080830151929350909160005b86811015612b17576000612a13898984818110612a0757634e487b7160e01b600052603260045260246000fd5b90506020020135613836565b9050806060015185612a259190615645565b9450806040015184612a379190615645565b9350806080015183612a499190615645565b6015549093506001600160a01b0316630dbf21b08a8a85818110612a7d57634e487b7160e01b600052603260045260246000fd5b905060200201356040518263ffffffff1660e01b8152600401612aa291815260200190565b600060405180830381600087803b158015612abc57600080fd5b505af1158015612ad0573d6000803e3d6000fd5b50505050612b04898984818110612af757634e487b7160e01b600052603260045260246000fd5b9050602002013588613d56565b5080612b0f8161581a565b9150506129da565b50612b258585858585613925565b506015546040516357a5c96760e01b81526001600160a01b03909116906357a5c96790612b5a908890879086906004016155e5565b600060405180830381600087803b158015612b7457600080fd5b505af1158015612b88573d6000803e3d6000fd5b5050505050505050505050565b6000908152600f602052604090205490565b600080600080601260009054906101000a90046001600160a01b03166001600160a01b0316631acf55826040518163ffffffff1660e01b815260040160206040518083038186803b158015612bfb57600080fd5b505afa158015612c0f573d6000803e3d6000fd5b505050506040513d601f19601f82011682018060405250810190612c339190615089565b60165460155460405163a5c8287560e01b815292935073__FeeCalculator_________________________9263a5c8287592612c89928d928d928d928d928a926001600160a01b039081169216906004016155fb565b60606040518083038186803b158015612ca157600080fd5b505af4158015612cb5573d6000803e3d6000fd5b505050506040513d601f19601f82011682018060405250810190612cd99190615185565b919a90995090975095505050505050565b606061160c82613ed2565b6000828152600c60205260408120612d0d9083614034565b9392505050565b612d1d826118b3565b612d2781336134db565b61187d83836135c5565b8060005b8181101561201757612d6c848483818110612d6057634e487b7160e01b600052603260045260246000fd5b90506020020135611d9f565b80612d768161581a565b915050612d35565b6001600160a01b03918216600090815260056020908152604080832093909416825291909152205460ff1690565b33612db5612548565b6001600160a01b031614612ddb5760405162461bcd60e51b81526004016107fc906154b2565b6001600160a01b038116612e405760405162461bcd60e51b815260206004820152602660248201527f4f776e61626c653a206e6577206f776e657220697320746865207a65726f206160448201526564647265737360d01b60648201526084016107fc565b611c6f81613cc7565b6000612e53612f20565b9050600080600080612e658787613709565b935093509350935060006040518060e0016040528083600001516003811115612e9e57634e487b7160e01b600052602160045260246000fd5b8152602001836020015181526020018681526020018481526020018581526020018360a0015181526020018360c001516002811115612eed57634e487b7160e01b600052602160045260246000fd5b90529050612efb8682612f3a565b612f0686848661315d565b612f138a8a8a898b613957565b5050505050949350505050565b6013805460009182612f318361581a565b91905055905090565b60008281526014602052604090208151815483929190829060ff19166001836003811115612f7857634e487b7160e01b600052602160045260246000fd5b02179055506020820151816001015560408201518160020155606082015181600301556080820151816004015560a0820151816005015560c08201518160060160006101000a81548160ff02191690836002811115612fe757634e487b7160e01b600052602160045260246000fd5b021790555050505050565b60008383838760405160200161300b949392919061559c565b60408051808303601f19018152918152815160209283012060008181526018909352912060020154909150610100900460ff16156130715760405162461bcd60e51b8152602060048201526003602482015262138c4d60ea1b60448201526064016107fc565b60405180608001604052808581526020018481526020018360028111156130a857634e487b7160e01b600052602160045260246000fd5b815260016020918201819052600084815260188352604090819020845181559284015183830155830151600280840180549293909260ff191691849081111561310157634e487b7160e01b600052602160045260246000fd5b021790555060609190910151600290910180549115156101000261ff0019909216919091179055949350505050565b6000838152600a60205260409020819055600d5461187d90839085908490614040565b61197182826140ca565b60155460405163edd0d42160e01b81526001600160a01b039091169063edd0d42190613191908690869086906004016155e5565b600060405180830381600087803b1580156131ab57600080fd5b505af11580156131bf573d6000803e3d6000fd5b50505050505050565b60006001600160e01b03198216637965db0b60e01b148061160c575061160c82614155565b6000908152600260205260409020546001600160a01b0316151590565b600081815260046020526040902080546001600160a01b0319166001600160a01b038416908117909155819061323f8261201d565b6001600160a01b03167f8c5be1e5ebec7d5bd14f71427d1e84f3dd0314c0f7b2291e5b200ac8c7c3b92560405160405180910390a45050565b6000613283826131ed565b6132e45760405162461bcd60e51b815260206004820152602c60248201527f4552433732313a206f70657261746f7220717565727920666f72206e6f6e657860448201526b34b9ba32b73a103a37b5b2b760a11b60648201526084016107fc565b60006132ef8361201d565b9050806001600160a01b0316846001600160a01b0316148061332a5750836001600160a01b031661331f846116e9565b6001600160a01b0316145b8061333a575061333a8185612d7e565b949350505050565b826001600160a01b03166133558261201d565b6001600160a01b0316146133bd5760405162461bcd60e51b815260206004820152602960248201527f4552433732313a207472616e73666572206f6620746f6b656e2074686174206960448201526839903737ba1037bbb760b91b60648201526084016107fc565b6001600160a01b03821661341f5760405162461bcd60e51b8152602060048201526024808201527f4552433732313a207472616e7366657220746f20746865207a65726f206164646044820152637265737360e01b60648201526084016107fc565b61342a8383836141a5565b61343560008261320a565b6001600160a01b038316600090815260036020526040812080546001929061345e90849061578b565b90915550506001600160a01b038216600090815260036020526040812080546001929061348c908490615645565b909155505060008181526002602052604080822080546001600160a01b0319166001600160a01b0386811691821790925591518493918716916000805160206158fd83398151915291a4505050565b6134e58282612680565b611971576134fd816001600160a01b031660146141bd565b6135088360206141bd565b604051602001613519929190615285565b60408051601f198184030181529082905262461bcd60e51b82526107fc916004016153f8565b6135498282612680565b6119715760008281526008602090815260408083206001600160a01b03851684529091529020805460ff191660011790556135813390565b6001600160a01b0316816001600160a01b0316837f2f8788117e7eff1d82e926ec794901d17c78024a50270940304540a733656f0d60405160405180910390a45050565b6135cf8282612680565b156119715760008281526008602090815260408083206001600160a01b0385168085529252808320805460ff1916905551339285917ff6391f5c32d9c69d2a47ea670b442974b53935d1edc7fd64eb21e047a839171b9190a45050565b6000828152600b602090815260408083206001600160a01b038716845260010190915290205461368e576000828152600b602090815260408220805460018101825590835291200180546001600160a01b0319166001600160a01b0385161790555b6000828152600b602090815260408083206001600160a01b0387168085526001909101835292819020849055518381528492917f8a156bd946dc74ec284c5f4b365ce75ef2a5b9d9462b4cdb1d2400cabf136541910160405180910390a3505050565b6000818152600a6020526040812055611c6f8161439e565b6000806000613716614b71565b61371f86613836565b9050600061372c87612b95565b90508086836040015161373f919061576c565b613749919061565d565b94508086836080015161375c919061576c565b613766919061565d565b935080868360600151613779919061576c565b613783919061565d565b92506137ba878385856060015161379a919061578b565b8886604001516137aa919061578b565b888760800151611d05919061578b565b601554606082015160808301516040516357a5c96760e01b81529395506001600160a01b03909216926357a5c967926137fa928c929091906004016155e5565b600060405180830381600087803b15801561381457600080fd5b505af1158015613828573d6000803e3d6000fd5b505050505092959194509250565b61383e614b71565b60008281526014602052604090819020815160e081019092528054829060ff16600381111561387d57634e487b7160e01b600052602160045260246000fd5b600381111561389c57634e487b7160e01b600052602160045260246000fd5b81526001820154602082015260028083015460408301526003830154606083015260048301546080830152600583015460a0830152600683015460c09092019160ff16908111156138fd57634e487b7160e01b600052602160045260246000fd5b600281111561391c57634e487b7160e01b600052602160045260246000fd5b90525092915050565b61392d614b71565b506060840183905260408401829052608084018190528361394e8682612f3a565b95945050505050565b6139608361201d565b6001600160a01b0316856001600160a01b0316146139a55760405162461bcd60e51b81526020600482015260026024820152614e3960f01b60448201526064016107fc565b6001600160a01b0384166139e15760405162461bcd60e51b815260206004820152600360248201526204e31360ec1b60448201526064016107fc565b336001600160a01b03861614801590613a0157506139ff8533612d7e565b155b15613a4c576000838152600b60209081526040808320338452600101909152902054613a2e90829061578b565b6000848152600b602090815260408083203384526001019091529020555b6000838152600f6020526040902054613a6690829061578b565b6000848152600f6020526040902055613a7e826131ed565b613a9b57613a968483613a90866118c8565b84614040565b613b43565b836001600160a01b0316613aae8361201d565b6001600160a01b031614613aea5760405162461bcd60e51b81526020600482015260036024820152624e313160e81b60448201526064016107fc565b613af3826118c8565b613afc846118c8565b14613b195760405162461bcd60e51b81526004016107fc90615496565b6000828152600f6020526040902054613b33908290615645565b6000838152600f60205260409020555b6000838152600a60205260408082205484835291819020919091555183906001600160a01b03808716919088169060008051602061591d83398151915290613b8e90879087906153ea565b60405180910390a45050505050565b613ba73384613278565b613bd85760405162461bcd60e51b8152602060048201526002602482015261271960f11b60448201526064016107fc565b613be1826131ed565b15613c135760405162461bcd60e51b81526020600482015260026024820152614e3360f01b60448201526064016107fc565b613c3282613c20856118c8565b6000918252600a602052604090912055565b6000838152600f6020526040902054613c4c90829061578b565b6000848152600f6020526040812091909155613c678461201d565b9050613c7d8184613c77876118c8565b85614040565b83816001600160a01b03167ff66885c33d648fcd0d97e0f2a18e30102169c22763473af0fb716f11b4a17dd68585604051613cb99291906153ea565b60405180910390a350505050565b600680546001600160a01b038381166001600160a01b0319831681179093556040519116919082907f8be0079c531659141344cd1fd0a4f28419497f9722a3daafe3b4186f6b6457e090600090a35050565b600061160c825490565b613d2e848484613342565b613d3a84848484614430565b6120175760405162461bcd60e51b81526004016107fc90615427565b613d5f33612958565b613d905760405162461bcd60e51b81526020600482015260026024820152614e3560f01b60448201526064016107fc565b80821415613dc55760405162461bcd60e51b8152602060048201526002602482015261271b60f11b60448201526064016107fc565b613dce816118c8565b613dd7836118c8565b14613df45760405162461bcd60e51b81526004016107fc90615496565b6000613dff8361201d565b9050613e0a8261201d565b6001600160a01b0316816001600160a01b031614613e4f5760405162461bcd60e51b815260206004820152600260248201526109c760f31b60448201526064016107fc565b6000838152600f602052604080822054848352912054613e6f9082615645565b6000848152600f6020526040902055613e87846136f1565b8284836001600160a01b03167fb3ce851d16b3bbec3774d5631a3893dfa2a80e067cfad265dd594402ac3d609684604051613ec491815260200190565b60405180910390a450505050565b6060613edd826131ed565b613f435760405162461bcd60e51b815260206004820152603160248201527f45524337323155524953746f726167653a2055524920717565727920666f72206044820152703737b732bc34b9ba32b73a103a37b5b2b760791b60648201526084016107fc565b60008281526009602052604081208054613f5c906157e5565b80601f0160208091040260200160405190810160405280929190818152602001828054613f88906157e5565b8015613fd55780601f10613faa57610100808354040283529160200191613fd5565b820191906000526020600020905b815481529060010190602001808311613fb857829003601f168201915b505050505090506000613fe661453d565b9050805160001415613ff9575092915050565b81511561402b578082604051602001614013929190615256565b60405160208183030381529060405292505050919050565b61333a8461455d565b6000612d0d8383614627565b614049836131ed565b61407157614057848461465f565b6000828152600c6020526040902061406f908461478b565b505b6000838152600f602052604090205461408b908290615645565b6000848152600f60205260408082209290925590516001600160a01b03861690829060008051602061591d83398151915290613ec490889087906153ea565b6140d3826131ed565b6141365760405162461bcd60e51b815260206004820152602e60248201527f45524337323155524953746f726167653a2055524920736574206f66206e6f6e60448201526d32bc34b9ba32b73a103a37b5b2b760911b60648201526084016107fc565b6000828152600960209081526040909120825161187d92840190614bcd565b60006001600160e01b031982166380ac58cd60e01b148061418657506001600160e01b03198216635b5e139f60e01b145b8061160c57506301ffc9a760e01b6001600160e01b031983161461160c565b6001600160a01b0383161561187d5761187d81614797565b606060006141cc83600261576c565b6141d7906002615645565b6001600160401b038111156141fc57634e487b7160e01b600052604160045260246000fd5b6040519080825280601f01601f191660200182016040528015614226576020820181803683370190505b509050600360fc1b8160008151811061424f57634e487b7160e01b600052603260045260246000fd5b60200101906001600160f81b031916908160001a905350600f60fb1b8160018151811061428c57634e487b7160e01b600052603260045260246000fd5b60200101906001600160f81b031916908160001a90535060006142b084600261576c565b6142bb906001615645565b90505b600181111561434f576f181899199a1a9b1b9c1cb0b131b232b360811b85600f16601081106142fd57634e487b7160e01b600052603260045260246000fd5b1a60f81b82828151811061432157634e487b7160e01b600052603260045260246000fd5b60200101906001600160f81b031916908160001a90535060049490941c93614348816157ce565b90506142be565b508315612d0d5760405162461bcd60e51b815260206004820181905260248201527f537472696e67733a20686578206c656e67746820696e73756666696369656e7460448201526064016107fc565b60006143a98261201d565b905060006143b6836118c8565b6000848152600f6020908152604080832054848452600c909252909120919250906143e1908561484b565b506000848152600f60205260408120556143fa84614857565b8360006001600160a01b0316846001600160a01b031660008051602061591d833981519152600085604051613ec49291906153ea565b60006001600160a01b0384163b1561453257604051630a85bd0160e11b81526001600160a01b0385169063150b7a02906144749033908990889088906004016152f4565b602060405180830381600087803b15801561448e57600080fd5b505af19250505080156144be575060408051601f3d908101601f191682019092526144bb9181019061506d565b60015b614518573d8080156144ec576040519150601f19603f3d011682016040523d82523d6000602084013e6144f1565b606091505b5080516145105760405162461bcd60e51b81526004016107fc90615427565b805181602001fd5b6001600160e01b031916630a85bd0160e11b14905061333a565b506001949350505050565b60606040518060600160405280602281526020016158db60229139905090565b6060614568826131ed565b6145cc5760405162461bcd60e51b815260206004820152602f60248201527f4552433732314d657461646174613a2055524920717565727920666f72206e6f60448201526e3732bc34b9ba32b73a103a37b5b2b760891b60648201526084016107fc565b60006145d661453d565b905060008151116145f65760405180602001604052806000815250612d0d565b80614600846148ec565b604051602001614611929190615256565b6040516020818303038152906040529392505050565b600082600001828154811061464c57634e487b7160e01b600052603260045260246000fd5b9060005260206000200154905092915050565b6001600160a01b0382166146b55760405162461bcd60e51b815260206004820181905260248201527f4552433732313a206d696e7420746f20746865207a65726f206164647265737360448201526064016107fc565b6146be816131ed565b1561470a5760405162461bcd60e51b815260206004820152601c60248201527b115490cdcc8c4e881d1bdad95b88185b1c9958591e481b5a5b9d195960221b60448201526064016107fc565b614716600083836141a5565b6001600160a01b038216600090815260036020526040812080546001929061473f908490615645565b909155505060008181526002602052604080822080546001600160a01b0319166001600160a01b03861690811790915590518392906000805160206158fd833981519152908290a45050565b6000612d0d8383614a05565b6000818152600b60205260408120905b815481101561187d578160010160008360000183815481106147d957634e487b7160e01b600052603260045260246000fd5b60009182526020808320909101546001600160a01b03168352820192909252604001812055815482908290811061482057634e487b7160e01b600052603260045260246000fd5b600091825260209091200180546001600160a01b0319169055806148438161581a565b9150506147a7565b6000612d0d8383614a54565b60006148628261201d565b9050614870816000846141a5565b61487b60008361320a565b6001600160a01b03811660009081526003602052604081208054600192906148a490849061578b565b909155505060008281526002602052604080822080546001600160a01b0319169055518391906001600160a01b038416906000805160206158fd833981519152908390a45050565b6060816149105750506040805180820190915260018152600360fc1b602082015290565b8160005b811561493a57806149248161581a565b91506149339050600a8361565d565b9150614914565b6000816001600160401b0381111561496257634e487b7160e01b600052604160045260246000fd5b6040519080825280601f01601f19166020018201604052801561498c576020820181803683370190505b5090505b841561333a576149a160018361578b565b91506149ae600a86615835565b6149b9906030615645565b60f81b8183815181106149dc57634e487b7160e01b600052603260045260246000fd5b60200101906001600160f81b031916908160001a9053506149fe600a8661565d565b9450614990565b6000818152600183016020526040812054614a4c5750815460018181018455600084815260208082209093018490558454848252828601909352604090209190915561160c565b50600061160c565b60008181526001830160205260408120548015614b67576000614a7860018361578b565b8554909150600090614a8c9060019061578b565b9050818114614b0d576000866000018281548110614aba57634e487b7160e01b600052603260045260246000fd5b9060005260206000200154905080876000018481548110614aeb57634e487b7160e01b600052603260045260246000fd5b6000918252602080832090910192909255918252600188019052604090208390555b8554869080614b2c57634e487b7160e01b600052603160045260246000fd5b60019003818190600052602060002001600090559055856001016000868152602001908152602001600020600090556001935050505061160c565b600091505061160c565b6040805160e081019091528060008152602001600081526020016000815260200160008152602001600081526020016000815260200160006002811115614bc857634e487b7160e01b600052602160045260246000fd5b905290565b828054614bd9906157e5565b90600052602060002090601f016020900481019282614bfb5760008555614c41565b82601f10614c1457805160ff1916838001178555614c41565b82800160010185558215614c41579182015b82811115614c41578251825591602001919060010190614c26565b50614c4d929150614c51565b5090565b5b80821115614c4d5760008155600101614c52565b60006001600160401b0380841115614c8057614c8061588b565b604051601f8501601f19908116603f01168101908282118183101715614ca857614ca861588b565b81604052809350858152868686011115614cc157600080fd5b858560208301376000602087830101525050509392505050565b60008083601f840112614cec578182fd5b5081356001600160401b03811115614d02578182fd5b6020830191508360208260051b8501011115614d1d57600080fd5b9250929050565b600060208284031215614d35578081fd5b8135612d0d816158a1565b600060208284031215614d51578081fd5b8151612d0d816158a1565b60008060408385031215614d6e578081fd5b8235614d79816158a1565b91506020830135614d89816158a1565b809150509250929050565b600080600060608486031215614da8578081fd5b8335614db3816158a1565b92506020840135614dc3816158a1565b929592945050506040919091013590565b60008060008060808587031215614de9578081fd5b8435614df4816158a1565b93506020850135614e04816158a1565b92506040850135915060608501356001600160401b03811115614e25578182fd5b8501601f81018713614e35578182fd5b614e4487823560208401614c66565b91505092959194509250565b60008060008060808587031215614e65578384fd5b8435614e70816158a1565b93506020850135614e80816158a1565b93969395505050506040820135916060013590565b600080600080600060a08688031215614eac578081fd5b8535614eb7816158a1565b94506020860135614ec7816158a1565b94979496505050506040830135926060810135926080909101359150565b60008060408385031215614ef7578182fd5b8235614f02816158a1565b91506020830135614d89816158b6565b60008060408385031215614f24578182fd5b8235614f2f816158a1565b946020939093013593505050565b600080600060608486031215614f51578081fd5b8335614f5c816158a1565b95602085013595506040909401359392505050565b60008060208385031215614f83578182fd5b82356001600160401b03811115614f98578283fd5b614fa485828601614cdb565b90969095509350505050565b600080600060408486031215614fc4578081fd5b83356001600160401b03811115614fd9578182fd5b614fe586828701614cdb565b909790965060209590950135949350505050565b60006020828403121561500a578081fd5b8151612d0d816158b6565b600060208284031215615026578081fd5b5035919050565b6000806040838503121561503f578182fd5b823591506020830135614d89816158a1565b600060208284031215615062578081fd5b8135612d0d816158c4565b60006020828403121561507e578081fd5b8151612d0d816158c4565b60006020828403121561509a578081fd5b5051919050565b6000806000604084860312156150b5578081fd5b8335925060208401356001600160401b038111156150d1578182fd5b6150dd86828701614cdb565b9497909650939450505050565b600080604083850312156150fc578182fd5b8235915060208301356001600160401b03811115615118578182fd5b8301601f81018513615128578182fd5b61513785823560208401614c66565b9150509250929050565b60008060408385031215615153578182fd5b50508035926020909101359150565b60008060408385031215615174578182fd5b505080516020909101519092909150565b600080600060608486031215615199578081fd5b8351925060208401519150604084015190509250925092565b600080600080608085870312156151c7578182fd5b8435935060208501359250604085013591506060850135600381106151ea578182fd5b939692955090935050565b600060208284031215615206578081fd5b815160ff81168114612d0d578182fd5b6000815180845261522e8160208601602086016157a2565b601f01601f19169290920160200192915050565b6003811061525257615252615875565b9052565b600083516152688184602088016157a2565b83519083019061527c8183602088016157a2565b01949350505050565b76020b1b1b2b9b9a1b7b73a3937b61d1030b1b1b7bab73a1604d1b8152600083516152b78160178501602088016157a2565b7001034b99036b4b9b9b4b733903937b6329607d1b60179184019182015283516152e88160288401602088016157a2565b01602801949350505050565b6001600160a01b038581168252841660208201526040810183905260806060820181905260009061532790830184615216565b9695505050505050565b6001600160a01b03929092168252602082015260400190565b6020808252825182820181905260009190848201906040850190845b8181101561538257835183529284019291840191600101615366565b50909695505050505050565b6020810161160c8284615242565b60e08101600489106153b0576153b0615875565b8882528760208301528660408301528560608301528460808301528360a08301526153de60c0830184615242565b98975050505050505050565b918252602082015260400190565b602081526000612d0d6020830184615216565b6020808252600290820152614f3960f01b604082015260600190565b60208082526032908201527f4552433732313a207472616e7366657220746f206e6f6e20455243373231526560408201527131b2b4bb32b91034b6b83632b6b2b73a32b960711b606082015260800190565b60208082526003908201526204f32360ec1b604082015260600190565b6020808252600290820152614e3760f01b604082015260600190565b6020808252818101527f4f776e61626c653a2063616c6c6572206973206e6f7420746865206f776e6572604082015260600190565b60208082526031908201527f4552433732313a207472616e736665722063616c6c6572206973206e6f74206f6040820152701ddb995c881b9bdc88185c1c1c9bdd9959607a1b606082015260800190565b6020808252600290820152614f3160f01b604082015260600190565b60208082526002908201526113cd60f21b604082015260600190565b848152602081018490526080810161558b6040830185615242565b821515606083015295945050505050565b84815260208101849052608081016155b76040830185615242565b82606083015295945050505050565b83815282602082015260606040820152600061394e6060830184615216565b9283526020830191909152604082015260600190565b878152602081018790526040810186905260e0810161561d6060830187615242565b60808201949094526001600160a01b0392831660a0820152911660c090910152949350505050565b6000821982111561565857615658615849565b500190565b60008261566c5761566c61585f565b500490565b600181815b808511156156ac57816000190482111561569257615692615849565b8085161561569f57918102915b93841c9390800290615676565b509250929050565b6000612d0d83836156cb565b6000612d0d60ff8416835b6000826156da5750600161160c565b816156e75750600061160c565b81600181146156fd576002811461570757615723565b600191505061160c565b60ff84111561571857615718615849565b50506001821b61160c565b5060208310610133831016604e8410600b8410161715615746575081810a61160c565b6157508383615671565b806000190482111561576457615764615849565b029392505050565b600081600019048311821515161561578657615786615849565b500290565b60008282101561579d5761579d615849565b500390565b60005b838110156157bd5781810151838201526020016157a5565b838111156120175750506000910152565b6000816157dd576157dd615849565b506000190190565b600181811c908216806157f957607f821691505b602082108114156116e357634e487b7160e01b600052602260045260246000fd5b600060001982141561582e5761582e615849565b5060010190565b6000826158445761584461585f565b500690565b634e487b7160e01b600052601160045260246000fd5b634e487b7160e01b600052601260045260246000fd5b634e487b7160e01b600052602160045260246000fd5b634e487b7160e01b600052604160045260246000fd5b6001600160a01b0381168114611c6f57600080fd5b8015158114611c6f57600080fd5b6001600160e01b031981168114611c6f57600080fdfe68747470733a2f2f676174657761792e70696e6174612e636c6f75642f697066732fddf252ad1be2c89b69c2b068fc378daa952ba7f163c4a11628f55a4df523b3ef823a343d1c899e61a4db12247636a6882bf1fefae78bef39170f8d0f5b53e456a2646970667358221220b083522205d547a771815d2059ae1fce99e8dcfd54bf2b15f1a054b94cc47f7764736f6c63430008040033","bytecodeSha1":"27febd9bed37460ef92344fd31fe00b40c14d498","compiler":{"evm_version":"istanbul","optimizer":{"enabled":true,"runs":1},"version":"0.8.4+commit.c7e474f2"},"contractName":"BufferCashSettledEuropeanOptions","deployedBytecode":"608060405234801561001057600080fd5b50600436106102885760003560e01c80630118fa491461028d57806301ffc9a7146102b357806305271a2a146102d657806306517a29146102eb57806306fdde03146102f4578063076d948c14610309578063081812fc1461031c578063095ea7b31461034757806316f0115b1461035c5780631cecaa311461036f57806323b872dd14610390578063248a9ca3146103a3578063263f3e7e146103b65780632f2ff15d146103c957806336568abe146103dc5780633e56f9f9146103ef578063409e220514610402578063426a84931461046557806342842e0e1461047857806342966c681461048b5780634aed53c21461049e5780634f558e79146104b15780636198e339146104c45780636352211e146104d757806369c67247146104ea57806370a082311461050a578063715018a61461051d57806375794a3c1461052557806378c533ce1461052e57806379502c551461054e578063841edc0e146105615780638a584118146105815780638da5cb5b146105cc5780638dd7d2c1146105d457806391d14854146105e757806395d89b41146105fa578063992642e514610602578063a217fddf14610615578063a22cb4651461061d578063a6d14c0214610630578063a880042514610638578063b07f0a411461064b578063b888879e1461065e578063b88d4fde14610671578063bbe33ea514610684578063becef60714610697578063c7c3b53f146106aa578063c87b56dd146106cc578063d149cc30146106df578063d547741f146106f2578063d5a0e67314610705578063e342b59814610725578063e345e0bc14610738578063e985e9c514610772578063f2fde38b14610785578063fe99049a14610798575b600080fd5b6102a061029b3660046150ea565b6107ab565b6040519081526020015b60405180910390f35b6102c66102c1366004615051565b611601565b60405190151581526020016102aa565b600e5460405160ff90911681526020016102aa565b6102a0600d5481565b6102fc611612565b6040516102aa91906153f8565b6102a0610317366004615015565b6116a4565b61032f61032a366004615015565b6116e9565b6040516001600160a01b0390911681526020016102aa565b61035a610355366004614f12565b611771565b005b60155461032f906001600160a01b031681565b60125461038390600160a01b900460ff1681565b6040516102aa919061538e565b61035a61039e366004614d94565b611882565b6102a06103b1366004615015565b6118b3565b6102a06103c4366004615015565b6118c8565b61035a6103d736600461502d565b6118da565b61035a6103ea36600461502d565b6118f7565b6102a06103fd366004615015565b611975565b610452610410366004615015565b601460205260009081526040902080546001820154600283015460038401546004850154600586015460069096015460ff958616969495939492939192911687565b6040516102aa979695949392919061539c565b61035a610473366004614f3d565b611bce565b61035a610486366004614d94565b611c12565b61035a610499366004615015565b611c2d565b61035a6104ac366004614e95565b611c72565b6102c66104bf366004615015565b611d94565b61035a6104d2366004615015565b611d9f565b61032f6104e5366004615015565b61201d565b6104fd6104f83660046150a1565b612094565b6040516102aa919061534a565b6102a0610518366004614d24565b612486565b61035a61250d565b6102a060135481565b6102a061053c366004615015565b600f6020526000908152604090205481565b60165461032f906001600160a01b031681565b6102a061056f366004615015565b60176020526000908152604090205481565b6105bc61058f366004615015565b60186020526000908152604090208054600182015460029092015490919060ff8082169161010090041684565b6040516102aa9493929190615570565b61032f612548565b6102c66105e2366004615015565b612557565b6102c66105f536600461502d565b612680565b6102fc6126ab565b60105461032f906001600160a01b031681565b6102a0600081565b61035a61062b366004614ee5565b6126ba565b6102a0600581565b6102a0610646366004615015565b61277b565b6102a0610659366004615015565b612792565b60125461032f906001600160a01b031681565b61035a61067f366004614dd4565b612953565b61035a610692366004614fb0565b612986565b6102a06106a5366004615015565b612b95565b6106bd6106b83660046151b2565b612ba7565b6040516102aa939291906155e5565b6102fc6106da366004615015565b612cea565b6102a06106ed366004615141565b612cf5565b61035a61070036600461502d565b612d14565b6102a0610713366004615015565b600a6020526000908152604090205481565b61035a610733366004614f71565b612d31565b6102a061074636600461502d565b6000828152600b602090815260408083206001600160a01b038516845260010190915290205492915050565b6102c6610780366004614d5c565b612d7e565b61035a610793366004614d24565b612dac565b6102a06107a6366004614e50565b612e49565b6000600260075414156108055760405162461bcd60e51b815260206004820152601f60248201527f5265656e7472616e637947756172643a207265656e7472616e742063616c6c0060448201526064015b60405180910390fd5b60026007556015546040805163392e53cd60e01b815290516001600160a01b039092169163392e53cd91600480820192602092909190829003018186803b15801561084f57600080fd5b505afa158015610863573d6000803e3d6000fd5b505050506040513d601f19601f820116820180604052508101906108879190614ff9565b80156109145750601660009054906101000a90046001600160a01b03166001600160a01b031663392e53cd6040518163ffffffff1660e01b815260040160206040518083038186803b1580156108dc57600080fd5b505afa1580156108f0573d6000803e3d6000fd5b505050506040513d601f19601f820116820180604052508101906109149190614ff9565b6109595760405162461bcd60e51b8152602060048201526016602482015275496e697469616c697a6174696f6e2070656e64696e6760501b60448201526064016107fc565b6015546040805163a834069b60e01b815290516000926001600160a01b03169163a834069b916004808301926020929190829003018186803b15801561099e57600080fd5b505afa1580156109b2573d6000803e3d6000fd5b505050506040513d601f19601f820116820180604052508101906109d69190615089565b90504281116109f75760405162461bcd60e51b81526004016107fc90615538565b6000610a03428361578b565b905061a8c0811015610a275760405162461bcd60e51b81526004016107fc90615538565b6000806000610ac98489601660009054906101000a90046001600160a01b03166001600160a01b0316635ee971016040518163ffffffff1660e01b815260040160206040518083038186803b158015610a7f57600080fd5b505afa158015610a93573d6000803e3d6000fd5b505050506040513d601f19601f82011682018060405250810190610ab79190615089565b601254600160a01b900460ff16612ba7565b919450925090506005610adc858a61576c565b610ae6919061576c565b610af4846301e1338061576c565b610aff90606461576c565b11610b315760405162461bcd60e51b8152602060048201526002602482015261279960f11b60448201526064016107fc565b60125460408051630d67aac160e11b815290516000926001600160a01b031691631acf5582916004808301926020929190829003018186803b158015610b7657600080fd5b505afa158015610b8a573d6000803e3d6000fd5b505050506040513d601f19601f82011682018060405250810190610bae9190615089565b90506000601560009054906101000a90046001600160a01b03166001600160a01b03166316dc165b6040518163ffffffff1660e01b815260040160206040518083038186803b158015610c0057600080fd5b505afa158015610c14573d6000803e3d6000fd5b505050506040513d601f19601f82011682018060405250810190610c389190614d40565b6001600160a01b031663313ce5676040518163ffffffff1660e01b815260040160206040518083038186803b158015610c7057600080fd5b505afa158015610c84573d6000803e3d6000fd5b505050506040513d601f19601f82011682018060405250810190610ca891906151f5565b610cb390600a6156c0565b9050601560009054906101000a90046001600160a01b03166001600160a01b031663a4475ce46040518163ffffffff1660e01b815260040160206040518083038186803b158015610d0357600080fd5b505afa158015610d17573d6000803e3d6000fd5b505050506040513d601f19601f82011682018060405250810190610d3b9190614d40565b6001600160a01b0316336001600160a01b031614610f65576010546012546040805163313ce56760e01b815290516000936001600160a01b03908116936323b872dd93339330939092169163313ce56791600480820192602092909190829003018186803b158015610dac57600080fd5b505afa158015610dc0573d6000803e3d6000fd5b505050506040513d601f19601f82011682018060405250810190610de49190615089565b610def90600a6156b4565b610df9908761576c565b601060009054906101000a90046001600160a01b03166001600160a01b031663313ce5676040518163ffffffff1660e01b815260040160206040518083038186803b158015610e4757600080fd5b505afa158015610e5b573d6000803e3d6000fd5b505050506040513d601f19601f82011682018060405250810190610e7f91906151f5565b610e8a90600a6156c0565b610e94898d61576c565b610e9e919061576c565b610ea8919061565d565b6040516001600160e01b031960e086901b1681526001600160a01b0393841660048201529290911660248301526044820152606401602060405180830381600087803b158015610ef757600080fd5b505af1158015610f0b573d6000803e3d6000fd5b505050506040513d601f19601f82011682018060405250810190610f2f9190614ff9565b905080610f635760405162461bcd60e51b81526020600482015260026024820152614f3360f01b60448201526064016107fc565b505b6040805160e081018252600181526016548251635ee9710160e01b815292516000936020808501936001600160a01b031692635ee97101926004808201939291829003018186803b158015610fb957600080fd5b505afa158015610fcd573d6000803e3d6000fd5b505050506040513d601f19601f82011682018060405250810190610ff19190615089565b8152602081018d90526040016110088d600261576c565b8152602001858152602001898152602001601260149054906101000a900460ff16600281111561104857634e487b7160e01b600052602160045260246000fd5b90529050611054612f20565b98506110608982612f3a565b61108d89336110888c85602001518660a00151601260149054906101000a900460ff16612ff2565b613130565b611097898b613153565b6110aa898260600151836080015161315d565b601560009054906101000a90046001600160a01b03166001600160a01b031663a4475ce46040518163ffffffff1660e01b815260040160206040518083038186803b1580156110f857600080fd5b505afa15801561110c573d6000803e3d6000fd5b505050506040513d601f19601f820116820180604052508101906111309190614d40565b6001600160a01b0316336001600160a01b0316146115a75760105460155460408051632911d73960e21b815290516001600160a01b039384169363a9059cbb93169163a4475ce4916004808301926020929190829003018186803b15801561119757600080fd5b505afa1580156111ab573d6000803e3d6000fd5b505050506040513d601f19601f820116820180604052508101906111cf9190614d40565b601260009054906101000a90046001600160a01b03166001600160a01b031663313ce5676040518163ffffffff1660e01b815260040160206040518083038186803b15801561121d57600080fd5b505afa158015611231573d6000803e3d6000fd5b505050506040513d601f19601f820116820180604052508101906112559190615089565b61126090600a6156b4565b61126a908661576c565b601060009054906101000a90046001600160a01b03166001600160a01b031663313ce5676040518163ffffffff1660e01b815260040160206040518083038186803b1580156112b857600080fd5b505afa1580156112cc573d6000803e3d6000fd5b505050506040513d601f19601f820116820180604052508101906112f091906151f5565b6112fb90600a6156c0565b611305888a61576c565b61130f919061576c565b611319919061565d565b6040518363ffffffff1660e01b8152600401611336929190615331565b602060405180830381600087803b15801561135057600080fd5b505af1158015611364573d6000803e3d6000fd5b505050506040513d601f19601f820116820180604052508101906113889190614ff9565b506010546001600160a01b031663a9059cbb6113a2612548565b601260009054906101000a90046001600160a01b03166001600160a01b031663313ce5676040518163ffffffff1660e01b815260040160206040518083038186803b1580156113f057600080fd5b505afa158015611404573d6000803e3d6000fd5b505050506040513d601f19601f820116820180604052508101906114289190615089565b61143390600a6156b4565b61143d908661576c565b601060009054906101000a90046001600160a01b03166001600160a01b031663313ce5676040518163ffffffff1660e01b815260040160206040518083038186803b15801561148b57600080fd5b505afa15801561149f573d6000803e3d6000fd5b505050506040513d601f19601f820116820180604052508101906114c391906151f5565b6114ce90600a6156c0565b6114d8888b61576c565b6114e2919061576c565b6114ec919061565d565b6040518363ffffffff1660e01b8152600401611509929190615331565b602060405180830381600087803b15801561152357600080fd5b505af1158015611537573d6000803e3d6000fd5b505050506040513d601f19601f8201168201806040525081019061155b9190614ff9565b50611564612548565b6001600160a01b03167ff0f0487d8990103573e0e5cf4e87e101e2a1ba84c733c556b7a5807e570e5d4c8660405161159e91815260200190565b60405180910390a25b336001600160a01b0316897f89f823a0225c73a75066e963ce2eea7708b57680ec86102773dbd244f541289287898e6040516115e5939291906155c6565b60405180910390a3505060016007555094979650505050505050565b600061160c826131c8565b92915050565b606060008054611621906157e5565b80601f016020809104026020016040519081016040528092919081815260200182805461164d906157e5565b801561169a5780601f1061166f5761010080835404028352916020019161169a565b820191906000526020600020905b81548152906001019060200180831161167d57829003601f168201915b5050505050905090565b6000805b6116b18361277b565b8110156116e3576116c56106a58483612cf5565b6116cf9083615645565b9150806116db8161581a565b9150506116a8565b50919050565b60006116f4826131ed565b6117555760405162461bcd60e51b815260206004820152602c60248201527f4552433732313a20617070726f76656420717565727920666f72206e6f6e657860448201526b34b9ba32b73a103a37b5b2b760a11b60648201526084016107fc565b506000908152600460205260409020546001600160a01b031690565b600061177c8261201d565b9050806001600160a01b0316836001600160a01b031614156117ea5760405162461bcd60e51b815260206004820152602160248201527f4552433732313a20617070726f76616c20746f2063757272656e74206f776e656044820152603960f91b60648201526084016107fc565b336001600160a01b038216148061180657506118068133612d7e565b6118735760405162461bcd60e51b815260206004820152603860248201527f4552433732313a20617070726f76652063616c6c6572206973206e6f74206f776044820152771b995c881b9bdc88185c1c1c9bdd995908199bdc88185b1b60421b60648201526084016107fc565b61187d838361320a565b505050565b61188c3382613278565b6118a85760405162461bcd60e51b81526004016107fc906154e7565b61187d838383613342565b60009081526008602052604090206001015490565b6000908152600a602052604090205490565b6118e3826118b3565b6118ed81336134db565b61187d838361353f565b6001600160a01b03811633146119675760405162461bcd60e51b815260206004820152602f60248201527f416363657373436f6e74726f6c3a2063616e206f6e6c792072656e6f756e636560448201526e103937b632b9903337b91039b2b63360891b60648201526084016107fc565b61197182826135c5565b5050565b60008181526014602052604081206001815460ff1660038111156119a957634e487b7160e01b600052602160045260246000fd5b146119dc5760405162461bcd60e51b815260206004820152600360248201526213cc4d60ea1b60448201526064016107fc565b600581015460009081526017602052604090205480611a0d5760405162461bcd60e51b81526004016107fc90615479565b6012546040516303906d2960e11b8152600481018390526000916001600160a01b031690630720da5290602401604080518083038186803b158015611a5157600080fd5b505afa158015611a65573d6000803e3d6000fd5b505050506040513d601f19601f82011682018060405250810190611a899190615162565b91505060028360030154611a9d919061565d565b93506002600684015460ff166002811115611ac857634e487b7160e01b600052602160045260246000fd5b1415611b425780836001015410611b075760405162461bcd60e51b81526020600482015260036024820152624f313760e81b60448201526064016107fc565b808360020154846001015483611b1d919061578b565b611b27919061576c565b611b31919061565d565b611b3b9085615645565b9350611bb2565b80836001015411611b7b5760405162461bcd60e51b815260206004820152600360248201526209e62760eb1b60448201526064016107fc565b808360020154828560010154611b91919061578b565b611b9b919061576c565b611ba5919061565d565b611baf9085615645565b93505b8260030154841115611bc657826003015493505b505050919050565b611bd78261201d565b6001600160a01b0316336001600160a01b031614611c075760405162461bcd60e51b81526004016107fc9061540b565b61187d83838361362c565b61187d83838360405180602001604052806000815250612953565b611c368161201d565b6001600160a01b0316336001600160a01b031614611c665760405162461bcd60e51b81526004016107fc9061540b565b611c6f816136f1565b50565b611c7b82611d94565b611cad5760405162461bcd60e51b815260206004820152600360248201526227189960e91b60448201526064016107fc565b6000806000611cbc8685613709565b509250925092506000611cce86613836565b9050611d0a8682848460600151611ce59190615645565b878560400151611cf59190615645565b878660800151611d059190615645565b613925565b601554606082015160808301516040516357a5c96760e01b81529394506001600160a01b03909216926357a5c96792611d4a928b929091906004016155e5565b600060405180830381600087803b158015611d6457600080fd5b505af1158015611d78573d6000803e3d6000fd5b50505050611d898989898989613957565b505050505050505050565b600061160c826131ed565b60008181526014602052604090206005810154421015611dd15760405162461bcd60e51b81526004016107fc90615554565b6001815460ff166003811115611df757634e487b7160e01b600052602160045260246000fd5b14611e295760405162461bcd60e51b81526020600482015260026024820152614f3560f01b60448201526064016107fc565b600581015460009081526017602052604090205480611e5a5760405162461bcd60e51b81526004016107fc90615479565b6012546040516303906d2960e11b8152600481018390526000916001600160a01b031690630720da5290602401604080518083038186803b158015611e9e57600080fd5b505afa158015611eb2573d6000803e3d6000fd5b505050506040513d601f19601f82011682018060405250810190611ed69190615162565b915060029050600684015460ff166002811115611f0357634e487b7160e01b600052602160045260246000fd5b148015611f135750826001015481115b80611f5257506001600684015460ff166002811115611f4257634e487b7160e01b600052602160045260246000fd5b148015611f525750826001015481105b15611f6657611f6084612792565b50612017565b825460ff19166003178355601554604051636198e33960e01b8152600481018690526001600160a01b0390911690636198e33990602401600060405180830381600087803b158015611fb757600080fd5b505af1158015611fcb573d6000803e3d6000fd5b50505050611fd8846136f1565b837f5f36a4a575e512eb69d6d28c3b0ff98cca7ba50ad5bf04e14094ad1d425e0d31846004015460405161200e91815260200190565b60405180910390a25b50505050565b6000818152600260205260408120546001600160a01b03168061160c5760405162461bcd60e51b815260206004820152602960248201527f4552433732313a206f776e657220717565727920666f72206e6f6e657869737460448201526832b73a103a37b5b2b760b91b60648201526084016107fc565b6060816120c85760405162461bcd60e51b81526020600482015260026024820152614e3160f01b60448201526064016107fc565b816001600160401b038111156120ee57634e487b7160e01b600052604160045260246000fd5b604051908082528060200260200182016040528015612117578160200160208202803683370190505b509050600061212585613836565b9050600061213286612b95565b905060008080805b8781101561234557600061214c612f20565b90508088838151811061216f57634e487b7160e01b600052603260045260246000fd5b6020026020010181815250506121ac8b828c8c868181106121a057634e487b7160e01b600052603260045260246000fd5b90506020020135613b9d565b6000868b8b858181106121cf57634e487b7160e01b600052603260045260246000fd5b9050602002013589604001516121e5919061576c565b6121ef919061565d565b90506121fb8187615645565b95506000878c8c8681811061222057634e487b7160e01b600052603260045260246000fd5b905060200201358a60600151612236919061576c565b612240919061565d565b905061224c8187615645565b95506000888d8d8781811061227157634e487b7160e01b600052603260045260246000fd5b905060200201358b60800151612287919061576c565b612291919061565d565b905061229d8187615645565b955060006040518060e001604052808c6000015160038111156122d057634e487b7160e01b600052602160045260246000fd5b81526020018c6020015181526020018581526020018481526020018381526020018c60a0015181526020018c60c00151600281111561231f57634e487b7160e01b600052602160045260246000fd5b9052905061232d8582612f3a565b5050505050808061233d9061581a565b91505061213a565b5061237b898684886060015161235b919061578b565b86896040015161236b919061578b565b858a60800151611d05919061578b565b601554606082015160808301516040516357a5c96760e01b81529398506001600160a01b03909216926357a5c967926123bb928e929091906004016155e5565b600060405180830381600087803b1580156123d557600080fd5b505af11580156123e9573d6000803e3d6000fd5b5050505060005b8781101561247957600061242a88838151811061241d57634e487b7160e01b600052603260045260246000fd5b6020026020010151613836565b905061246688838151811061244f57634e487b7160e01b600052603260045260246000fd5b60200260200101518260600151836080015161315d565b50806124718161581a565b9150506123f0565b5050505050509392505050565b60006001600160a01b0382166124f15760405162461bcd60e51b815260206004820152602a60248201527f4552433732313a2062616c616e636520717565727920666f7220746865207a65604482015269726f206164647265737360b01b60648201526084016107fc565b506001600160a01b031660009081526003602052604090205490565b33612516612548565b6001600160a01b03161461253c5760405162461bcd60e51b81526004016107fc906154b2565b6125466000613cc7565b565b6006546001600160a01b031690565b600080601560009054906101000a90046001600160a01b03166001600160a01b031663a834069b6040518163ffffffff1660e01b815260040160206040518083038186803b1580156125a857600080fd5b505afa1580156125bc573d6000803e3d6000fd5b505050506040513d601f19601f820116820180604052508101906125e09190615089565b60125460405163284506fd60e11b81529192506001600160a01b03169063508a0dfa9061261390869085906004016153ea565b60206040518083038186803b15801561262b57600080fd5b505afa15801561263f573d6000803e3d6000fd5b505050506040513d601f19601f820116820180604052508101906126639190614ff9565b915081156116e35760009081526017602052604090209190915590565b60009182526008602090815260408084206001600160a01b0393909316845291905290205460ff1690565b606060018054611621906157e5565b6001600160a01b03821633141561270f5760405162461bcd60e51b815260206004820152601960248201527822a9219b99189d1030b8383937bb32903a379031b0b63632b960391b60448201526064016107fc565b3360008181526005602090815260408083206001600160a01b03871680855290835292819020805460ff191686151590811790915590519081529192917f17307eab39ab6107e8899845ad3d59bd9653f200f220920489ca2b5937696c31910160405180910390a35050565b6000818152600c6020526040812061160c90613d19565b600061279d82611d94565b6127cf5760405162461bcd60e51b815260206004820152600360248201526204f31360ec1b60448201526064016107fc565b6015546040805163a834069b60e01b8152905142926001600160a01b03169163a834069b916004808301926020929190829003018186803b15801561281357600080fd5b505afa158015612827573d6000803e3d6000fd5b505050506040513d601f19601f8201168201806040525081019061284b9190615089565b11156128695760405162461bcd60e51b81526004016107fc90615554565b61287282611975565b6015549091506001600160a01b03166381b34f15836128908161201d565b6040516001600160e01b031960e085901b16815260048101929092526001600160a01b0316602482015260448101849052606401600060405180830381600087803b1580156128de57600080fd5b505af11580156128f2573d6000803e3d6000fd5b505050506128ff826136f1565b600082815260146020908152604091829020805460ff19166002178155915183815284917e84fe51c7cb34b132b7b6eb5d5a87a489f8d6d284758d00a0402c1bad9a0def910160405180910390a250919050565b61295e335b83613278565b61297a5760405162461bcd60e51b81526004016107fc906154e7565b61201784848484613d23565b816129b85760405162461bcd60e51b8152602060048201526002602482015261138d60f21b60448201526064016107fc565b60006129c382613836565b606081015160408201516080830151929350909160005b86811015612b17576000612a13898984818110612a0757634e487b7160e01b600052603260045260246000fd5b90506020020135613836565b9050806060015185612a259190615645565b9450806040015184612a379190615645565b9350806080015183612a499190615645565b6015549093506001600160a01b0316630dbf21b08a8a85818110612a7d57634e487b7160e01b600052603260045260246000fd5b905060200201356040518263ffffffff1660e01b8152600401612aa291815260200190565b600060405180830381600087803b158015612abc57600080fd5b505af1158015612ad0573d6000803e3d6000fd5b50505050612b04898984818110612af757634e487b7160e01b600052603260045260246000fd5b9050602002013588613d56565b5080612b0f8161581a565b9150506129da565b50612b258585858585613925565b506015546040516357a5c96760e01b81526001600160a01b03909116906357a5c96790612b5a908890879086906004016155e5565b600060405180830381600087803b158015612b7457600080fd5b505af1158015612b88573d6000803e3d6000fd5b5050505050505050505050565b6000908152600f602052604090205490565b600080600080601260009054906101000a90046001600160a01b03166001600160a01b0316631acf55826040518163ffffffff1660e01b815260040160206040518083038186803b158015612bfb57600080fd5b505afa158015612c0f573d6000803e3d6000fd5b505050506040513d601f19601f82011682018060405250810190612c339190615089565b60165460155460405163a5c8287560e01b815292935073__$b949255e90277c788dcf25edf1f9288c61$__9263a5c8287592612c89928d928d928d928d928a926001600160a01b039081169216906004016155fb565b60606040518083038186803b158015612ca157600080fd5b505af4158015612cb5573d6000803e3d6000fd5b505050506040513d601f19601f82011682018060405250810190612cd99190615185565b919a90995090975095505050505050565b606061160c82613ed2565b6000828152600c60205260408120612d0d9083614034565b9392505050565b612d1d826118b3565b612d2781336134db565b61187d83836135c5565b8060005b8181101561201757612d6c848483818110612d6057634e487b7160e01b600052603260045260246000fd5b90506020020135611d9f565b80612d768161581a565b915050612d35565b6001600160a01b03918216600090815260056020908152604080832093909416825291909152205460ff1690565b33612db5612548565b6001600160a01b031614612ddb5760405162461bcd60e51b81526004016107fc906154b2565b6001600160a01b038116612e405760405162461bcd60e51b815260206004820152602660248201527f4f776e61626c653a206e6577206f776e657220697320746865207a65726f206160448201526564647265737360d01b60648201526084016107fc565b611c6f81613cc7565b6000612e53612f20565b9050600080600080612e658787613709565b935093509350935060006040518060e0016040528083600001516003811115612e9e57634e487b7160e01b600052602160045260246000fd5b8152602001836020015181526020018681526020018481526020018581526020018360a0015181526020018360c001516002811115612eed57634e487b7160e01b600052602160045260246000fd5b90529050612efb8682612f3a565b612f0686848661315d565b612f138a8a8a898b613957565b5050505050949350505050565b6013805460009182612f318361581a565b91905055905090565b60008281526014602052604090208151815483929190829060ff19166001836003811115612f7857634e487b7160e01b600052602160045260246000fd5b02179055506020820151816001015560408201518160020155606082015181600301556080820151816004015560a0820151816005015560c08201518160060160006101000a81548160ff02191690836002811115612fe757634e487b7160e01b600052602160045260246000fd5b021790555050505050565b60008383838760405160200161300b949392919061559c565b60408051808303601f19018152918152815160209283012060008181526018909352912060020154909150610100900460ff16156130715760405162461bcd60e51b8152602060048201526003602482015262138c4d60ea1b60448201526064016107fc565b60405180608001604052808581526020018481526020018360028111156130a857634e487b7160e01b600052602160045260246000fd5b815260016020918201819052600084815260188352604090819020845181559284015183830155830151600280840180549293909260ff191691849081111561310157634e487b7160e01b600052602160045260246000fd5b021790555060609190910151600290910180549115156101000261ff0019909216919091179055949350505050565b6000838152600a60205260409020819055600d5461187d90839085908490614040565b61197182826140ca565b60155460405163edd0d42160e01b81526001600160a01b039091169063edd0d42190613191908690869086906004016155e5565b600060405180830381600087803b1580156131ab57600080fd5b505af11580156131bf573d6000803e3d6000fd5b50505050505050565b60006001600160e01b03198216637965db0b60e01b148061160c575061160c82614155565b6000908152600260205260409020546001600160a01b0316151590565b600081815260046020526040902080546001600160a01b0319166001600160a01b038416908117909155819061323f8261201d565b6001600160a01b03167f8c5be1e5ebec7d5bd14f71427d1e84f3dd0314c0f7b2291e5b200ac8c7c3b92560405160405180910390a45050565b6000613283826131ed565b6132e45760405162461bcd60e51b815260206004820152602c60248201527f4552433732313a206f70657261746f7220717565727920666f72206e6f6e657860448201526b34b9ba32b73a103a37b5b2b760a11b60648201526084016107fc565b60006132ef8361201d565b9050806001600160a01b0316846001600160a01b0316148061332a5750836001600160a01b031661331f846116e9565b6001600160a01b0316145b8061333a575061333a8185612d7e565b949350505050565b826001600160a01b03166133558261201d565b6001600160a01b0316146133bd5760405162461bcd60e51b815260206004820152602960248201527f4552433732313a207472616e73666572206f6620746f6b656e2074686174206960448201526839903737ba1037bbb760b91b60648201526084016107fc565b6001600160a01b03821661341f5760405162461bcd60e51b8152602060048201526024808201527f4552433732313a207472616e7366657220746f20746865207a65726f206164646044820152637265737360e01b60648201526084016107fc565b61342a8383836141a5565b61343560008261320a565b6001600160a01b038316600090815260036020526040812080546001929061345e90849061578b565b90915550506001600160a01b038216600090815260036020526040812080546001929061348c908490615645565b909155505060008181526002602052604080822080546001600160a01b0319166001600160a01b0386811691821790925591518493918716916000805160206158fd83398151915291a4505050565b6134e58282612680565b611971576134fd816001600160a01b031660146141bd565b6135088360206141bd565b604051602001613519929190615285565b60408051601f198184030181529082905262461bcd60e51b82526107fc916004016153f8565b6135498282612680565b6119715760008281526008602090815260408083206001600160a01b03851684529091529020805460ff191660011790556135813390565b6001600160a01b0316816001600160a01b0316837f2f8788117e7eff1d82e926ec794901d17c78024a50270940304540a733656f0d60405160405180910390a45050565b6135cf8282612680565b156119715760008281526008602090815260408083206001600160a01b0385168085529252808320805460ff1916905551339285917ff6391f5c32d9c69d2a47ea670b442974b53935d1edc7fd64eb21e047a839171b9190a45050565b6000828152600b602090815260408083206001600160a01b038716845260010190915290205461368e576000828152600b602090815260408220805460018101825590835291200180546001600160a01b0319166001600160a01b0385161790555b6000828152600b602090815260408083206001600160a01b0387168085526001909101835292819020849055518381528492917f8a156bd946dc74ec284c5f4b365ce75ef2a5b9d9462b4cdb1d2400cabf136541910160405180910390a3505050565b6000818152600a6020526040812055611c6f8161439e565b6000806000613716614b71565b61371f86613836565b9050600061372c87612b95565b90508086836040015161373f919061576c565b613749919061565d565b94508086836080015161375c919061576c565b613766919061565d565b935080868360600151613779919061576c565b613783919061565d565b92506137ba878385856060015161379a919061578b565b8886604001516137aa919061578b565b888760800151611d05919061578b565b601554606082015160808301516040516357a5c96760e01b81529395506001600160a01b03909216926357a5c967926137fa928c929091906004016155e5565b600060405180830381600087803b15801561381457600080fd5b505af1158015613828573d6000803e3d6000fd5b505050505092959194509250565b61383e614b71565b60008281526014602052604090819020815160e081019092528054829060ff16600381111561387d57634e487b7160e01b600052602160045260246000fd5b600381111561389c57634e487b7160e01b600052602160045260246000fd5b81526001820154602082015260028083015460408301526003830154606083015260048301546080830152600583015460a0830152600683015460c09092019160ff16908111156138fd57634e487b7160e01b600052602160045260246000fd5b600281111561391c57634e487b7160e01b600052602160045260246000fd5b90525092915050565b61392d614b71565b506060840183905260408401829052608084018190528361394e8682612f3a565b95945050505050565b6139608361201d565b6001600160a01b0316856001600160a01b0316146139a55760405162461bcd60e51b81526020600482015260026024820152614e3960f01b60448201526064016107fc565b6001600160a01b0384166139e15760405162461bcd60e51b815260206004820152600360248201526204e31360ec1b60448201526064016107fc565b336001600160a01b03861614801590613a0157506139ff8533612d7e565b155b15613a4c576000838152600b60209081526040808320338452600101909152902054613a2e90829061578b565b6000848152600b602090815260408083203384526001019091529020555b6000838152600f6020526040902054613a6690829061578b565b6000848152600f6020526040902055613a7e826131ed565b613a9b57613a968483613a90866118c8565b84614040565b613b43565b836001600160a01b0316613aae8361201d565b6001600160a01b031614613aea5760405162461bcd60e51b81526020600482015260036024820152624e313160e81b60448201526064016107fc565b613af3826118c8565b613afc846118c8565b14613b195760405162461bcd60e51b81526004016107fc90615496565b6000828152600f6020526040902054613b33908290615645565b6000838152600f60205260409020555b6000838152600a60205260408082205484835291819020919091555183906001600160a01b03808716919088169060008051602061591d83398151915290613b8e90879087906153ea565b60405180910390a45050505050565b613ba73384613278565b613bd85760405162461bcd60e51b8152602060048201526002602482015261271960f11b60448201526064016107fc565b613be1826131ed565b15613c135760405162461bcd60e51b81526020600482015260026024820152614e3360f01b60448201526064016107fc565b613c3282613c20856118c8565b6000918252600a602052604090912055565b6000838152600f6020526040902054613c4c90829061578b565b6000848152600f6020526040812091909155613c678461201d565b9050613c7d8184613c77876118c8565b85614040565b83816001600160a01b03167ff66885c33d648fcd0d97e0f2a18e30102169c22763473af0fb716f11b4a17dd68585604051613cb99291906153ea565b60405180910390a350505050565b600680546001600160a01b038381166001600160a01b0319831681179093556040519116919082907f8be0079c531659141344cd1fd0a4f28419497f9722a3daafe3b4186f6b6457e090600090a35050565b600061160c825490565b613d2e848484613342565b613d3a84848484614430565b6120175760405162461bcd60e51b81526004016107fc90615427565b613d5f33612958565b613d905760405162461bcd60e51b81526020600482015260026024820152614e3560f01b60448201526064016107fc565b80821415613dc55760405162461bcd60e51b8152602060048201526002602482015261271b60f11b60448201526064016107fc565b613dce816118c8565b613dd7836118c8565b14613df45760405162461bcd60e51b81526004016107fc90615496565b6000613dff8361201d565b9050613e0a8261201d565b6001600160a01b0316816001600160a01b031614613e4f5760405162461bcd60e51b815260206004820152600260248201526109c760f31b60448201526064016107fc565b6000838152600f602052604080822054848352912054613e6f9082615645565b6000848152600f6020526040902055613e87846136f1565b8284836001600160a01b03167fb3ce851d16b3bbec3774d5631a3893dfa2a80e067cfad265dd594402ac3d609684604051613ec491815260200190565b60405180910390a450505050565b6060613edd826131ed565b613f435760405162461bcd60e51b815260206004820152603160248201527f45524337323155524953746f726167653a2055524920717565727920666f72206044820152703737b732bc34b9ba32b73a103a37b5b2b760791b60648201526084016107fc565b60008281526009602052604081208054613f5c906157e5565b80601f0160208091040260200160405190810160405280929190818152602001828054613f88906157e5565b8015613fd55780601f10613faa57610100808354040283529160200191613fd5565b820191906000526020600020905b815481529060010190602001808311613fb857829003601f168201915b505050505090506000613fe661453d565b9050805160001415613ff9575092915050565b81511561402b578082604051602001614013929190615256565b60405160208183030381529060405292505050919050565b61333a8461455d565b6000612d0d8383614627565b614049836131ed565b61407157614057848461465f565b6000828152600c6020526040902061406f908461478b565b505b6000838152600f602052604090205461408b908290615645565b6000848152600f60205260408082209290925590516001600160a01b03861690829060008051602061591d83398151915290613ec490889087906153ea565b6140d3826131ed565b6141365760405162461bcd60e51b815260206004820152602e60248201527f45524337323155524953746f726167653a2055524920736574206f66206e6f6e60448201526d32bc34b9ba32b73a103a37b5b2b760911b60648201526084016107fc565b6000828152600960209081526040909120825161187d92840190614bcd565b60006001600160e01b031982166380ac58cd60e01b148061418657506001600160e01b03198216635b5e139f60e01b145b8061160c57506301ffc9a760e01b6001600160e01b031983161461160c565b6001600160a01b0383161561187d5761187d81614797565b606060006141cc83600261576c565b6141d7906002615645565b6001600160401b038111156141fc57634e487b7160e01b600052604160045260246000fd5b6040519080825280601f01601f191660200182016040528015614226576020820181803683370190505b509050600360fc1b8160008151811061424f57634e487b7160e01b600052603260045260246000fd5b60200101906001600160f81b031916908160001a905350600f60fb1b8160018151811061428c57634e487b7160e01b600052603260045260246000fd5b60200101906001600160f81b031916908160001a90535060006142b084600261576c565b6142bb906001615645565b90505b600181111561434f576f181899199a1a9b1b9c1cb0b131b232b360811b85600f16601081106142fd57634e487b7160e01b600052603260045260246000fd5b1a60f81b82828151811061432157634e487b7160e01b600052603260045260246000fd5b60200101906001600160f81b031916908160001a90535060049490941c93614348816157ce565b90506142be565b508315612d0d5760405162461bcd60e51b815260206004820181905260248201527f537472696e67733a20686578206c656e67746820696e73756666696369656e7460448201526064016107fc565b60006143a98261201d565b905060006143b6836118c8565b6000848152600f6020908152604080832054848452600c909252909120919250906143e1908561484b565b506000848152600f60205260408120556143fa84614857565b8360006001600160a01b0316846001600160a01b031660008051602061591d833981519152600085604051613ec49291906153ea565b60006001600160a01b0384163b1561453257604051630a85bd0160e11b81526001600160a01b0385169063150b7a02906144749033908990889088906004016152f4565b602060405180830381600087803b15801561448e57600080fd5b505af19250505080156144be575060408051601f3d908101601f191682019092526144bb9181019061506d565b60015b614518573d8080156144ec576040519150601f19603f3d011682016040523d82523d6000602084013e6144f1565b606091505b5080516145105760405162461bcd60e51b81526004016107fc90615427565b805181602001fd5b6001600160e01b031916630a85bd0160e11b14905061333a565b506001949350505050565b60606040518060600160405280602281526020016158db60229139905090565b6060614568826131ed565b6145cc5760405162461bcd60e51b815260206004820152602f60248201527f4552433732314d657461646174613a2055524920717565727920666f72206e6f60448201526e3732bc34b9ba32b73a103a37b5b2b760891b60648201526084016107fc565b60006145d661453d565b905060008151116145f65760405180602001604052806000815250612d0d565b80614600846148ec565b604051602001614611929190615256565b6040516020818303038152906040529392505050565b600082600001828154811061464c57634e487b7160e01b600052603260045260246000fd5b9060005260206000200154905092915050565b6001600160a01b0382166146b55760405162461bcd60e51b815260206004820181905260248201527f4552433732313a206d696e7420746f20746865207a65726f206164647265737360448201526064016107fc565b6146be816131ed565b1561470a5760405162461bcd60e51b815260206004820152601c60248201527b115490cdcc8c4e881d1bdad95b88185b1c9958591e481b5a5b9d195960221b60448201526064016107fc565b614716600083836141a5565b6001600160a01b038216600090815260036020526040812080546001929061473f908490615645565b909155505060008181526002602052604080822080546001600160a01b0319166001600160a01b03861690811790915590518392906000805160206158fd833981519152908290a45050565b6000612d0d8383614a05565b6000818152600b60205260408120905b815481101561187d578160010160008360000183815481106147d957634e487b7160e01b600052603260045260246000fd5b60009182526020808320909101546001600160a01b03168352820192909252604001812055815482908290811061482057634e487b7160e01b600052603260045260246000fd5b600091825260209091200180546001600160a01b0319169055806148438161581a565b9150506147a7565b6000612d0d8383614a54565b60006148628261201d565b9050614870816000846141a5565b61487b60008361320a565b6001600160a01b03811660009081526003602052604081208054600192906148a490849061578b565b909155505060008281526002602052604080822080546001600160a01b0319169055518391906001600160a01b038416906000805160206158fd833981519152908390a45050565b6060816149105750506040805180820190915260018152600360fc1b602082015290565b8160005b811561493a57806149248161581a565b91506149339050600a8361565d565b9150614914565b6000816001600160401b0381111561496257634e487b7160e01b600052604160045260246000fd5b6040519080825280601f01601f19166020018201604052801561498c576020820181803683370190505b5090505b841561333a576149a160018361578b565b91506149ae600a86615835565b6149b9906030615645565b60f81b8183815181106149dc57634e487b7160e01b600052603260045260246000fd5b60200101906001600160f81b031916908160001a9053506149fe600a8661565d565b9450614990565b6000818152600183016020526040812054614a4c5750815460018181018455600084815260208082209093018490558454848252828601909352604090209190915561160c565b50600061160c565b60008181526001830160205260408120548015614b67576000614a7860018361578b565b8554909150600090614a8c9060019061578b565b9050818114614b0d576000866000018281548110614aba57634e487b7160e01b600052603260045260246000fd5b9060005260206000200154905080876000018481548110614aeb57634e487b7160e01b600052603260045260246000fd5b6000918252602080832090910192909255918252600188019052604090208390555b8554869080614b2c57634e487b7160e01b600052603160045260246000fd5b60019003818190600052602060002001600090559055856001016000868152602001908152602001600020600090556001935050505061160c565b600091505061160c565b6040805160e081019091528060008152602001600081526020016000815260200160008152602001600081526020016000815260200160006002811115614bc857634e487b7160e01b600052602160045260246000fd5b905290565b828054614bd9906157e5565b90600052602060002090601f016020900481019282614bfb5760008555614c41565b82601f10614c1457805160ff1916838001178555614c41565b82800160010185558215614c41579182015b82811115614c41578251825591602001919060010190614c26565b50614c4d929150614c51565b5090565b5b80821115614c4d5760008155600101614c52565b60006001600160401b0380841115614c8057614c8061588b565b604051601f8501601f19908116603f01168101908282118183101715614ca857614ca861588b565b81604052809350858152868686011115614cc157600080fd5b858560208301376000602087830101525050509392505050565b60008083601f840112614cec578182fd5b5081356001600160401b03811115614d02578182fd5b6020830191508360208260051b8501011115614d1d57600080fd5b9250929050565b600060208284031215614d35578081fd5b8135612d0d816158a1565b600060208284031215614d51578081fd5b8151612d0d816158a1565b60008060408385031215614d6e578081fd5b8235614d79816158a1565b91506020830135614d89816158a1565b809150509250929050565b600080600060608486031215614da8578081fd5b8335614db3816158a1565b92506020840135614dc3816158a1565b929592945050506040919091013590565b60008060008060808587031215614de9578081fd5b8435614df4816158a1565b93506020850135614e04816158a1565b92506040850135915060608501356001600160401b03811115614e25578182fd5b8501601f81018713614e35578182fd5b614e4487823560208401614c66565b91505092959194509250565b60008060008060808587031215614e65578384fd5b8435614e70816158a1565b93506020850135614e80816158a1565b93969395505050506040820135916060013590565b600080600080600060a08688031215614eac578081fd5b8535614eb7816158a1565b94506020860135614ec7816158a1565b94979496505050506040830135926060810135926080909101359150565b60008060408385031215614ef7578182fd5b8235614f02816158a1565b91506020830135614d89816158b6565b60008060408385031215614f24578182fd5b8235614f2f816158a1565b946020939093013593505050565b600080600060608486031215614f51578081fd5b8335614f5c816158a1565b95602085013595506040909401359392505050565b60008060208385031215614f83578182fd5b82356001600160401b03811115614f98578283fd5b614fa485828601614cdb565b90969095509350505050565b600080600060408486031215614fc4578081fd5b83356001600160401b03811115614fd9578182fd5b614fe586828701614cdb565b909790965060209590950135949350505050565b60006020828403121561500a578081fd5b8151612d0d816158b6565b600060208284031215615026578081fd5b5035919050565b6000806040838503121561503f578182fd5b823591506020830135614d89816158a1565b600060208284031215615062578081fd5b8135612d0d816158c4565b60006020828403121561507e578081fd5b8151612d0d816158c4565b60006020828403121561509a578081fd5b5051919050565b6000806000604084860312156150b5578081fd5b8335925060208401356001600160401b038111156150d1578182fd5b6150dd86828701614cdb565b9497909650939450505050565b600080604083850312156150fc578182fd5b8235915060208301356001600160401b03811115615118578182fd5b8301601f81018513615128578182fd5b61513785823560208401614c66565b9150509250929050565b60008060408385031215615153578182fd5b50508035926020909101359150565b60008060408385031215615174578182fd5b505080516020909101519092909150565b600080600060608486031215615199578081fd5b8351925060208401519150604084015190509250925092565b600080600080608085870312156151c7578182fd5b8435935060208501359250604085013591506060850135600381106151ea578182fd5b939692955090935050565b600060208284031215615206578081fd5b815160ff81168114612d0d578182fd5b6000815180845261522e8160208601602086016157a2565b601f01601f19169290920160200192915050565b6003811061525257615252615875565b9052565b600083516152688184602088016157a2565b83519083019061527c8183602088016157a2565b01949350505050565b76020b1b1b2b9b9a1b7b73a3937b61d1030b1b1b7bab73a1604d1b8152600083516152b78160178501602088016157a2565b7001034b99036b4b9b9b4b733903937b6329607d1b60179184019182015283516152e88160288401602088016157a2565b01602801949350505050565b6001600160a01b038581168252841660208201526040810183905260806060820181905260009061532790830184615216565b9695505050505050565b6001600160a01b03929092168252602082015260400190565b6020808252825182820181905260009190848201906040850190845b8181101561538257835183529284019291840191600101615366565b50909695505050505050565b6020810161160c8284615242565b60e08101600489106153b0576153b0615875565b8882528760208301528660408301528560608301528460808301528360a08301526153de60c0830184615242565b98975050505050505050565b918252602082015260400190565b602081526000612d0d6020830184615216565b6020808252600290820152614f3960f01b604082015260600190565b60208082526032908201527f4552433732313a207472616e7366657220746f206e6f6e20455243373231526560408201527131b2b4bb32b91034b6b83632b6b2b73a32b960711b606082015260800190565b60208082526003908201526204f32360ec1b604082015260600190565b6020808252600290820152614e3760f01b604082015260600190565b6020808252818101527f4f776e61626c653a2063616c6c6572206973206e6f7420746865206f776e6572604082015260600190565b60208082526031908201527f4552433732313a207472616e736665722063616c6c6572206973206e6f74206f6040820152701ddb995c881b9bdc88185c1c1c9bdd9959607a1b606082015260800190565b6020808252600290820152614f3160f01b604082015260600190565b60208082526002908201526113cd60f21b604082015260600190565b848152602081018490526080810161558b6040830185615242565b821515606083015295945050505050565b84815260208101849052608081016155b76040830185615242565b82606083015295945050505050565b83815282602082015260606040820152600061394e6060830184615216565b9283526020830191909152604082015260600190565b878152602081018790526040810186905260e0810161561d6060830187615242565b60808201949094526001600160a01b0392831660a0820152911660c090910152949350505050565b6000821982111561565857615658615849565b500190565b60008261566c5761566c61585f565b500490565b600181815b808511156156ac57816000190482111561569257615692615849565b8085161561569f57918102915b93841c9390800290615676565b509250929050565b6000612d0d83836156cb565b6000612d0d60ff8416835b6000826156da5750600161160c565b816156e75750600061160c565b81600181146156fd576002811461570757615723565b600191505061160c565b60ff84111561571857615718615849565b50506001821b61160c565b5060208310610133831016604e8410600b8410161715615746575081810a61160c565b6157508383615671565b806000190482111561576457615764615849565b029392505050565b600081600019048311821515161561578657615786615849565b500290565b60008282101561579d5761579d615849565b500390565b60005b838110156157bd5781810151838201526020016157a5565b838111156120175750506000910152565b6000816157dd576157dd615849565b506000190190565b600181811c908216806157f957607f821691505b602082108114156116e357634e487b7160e01b600052602260045260246000fd5b600060001982141561582e5761582e615849565b5060010190565b6000826158445761584461585f565b500690565b634e487b7160e01b600052601160045260246000fd5b634e487b7160e01b600052601260045260246000fd5b634e487b7160e01b600052602160045260246000fd5b634e487b7160e01b600052604160045260246000fd5b6001600160a01b0381168114611c6f57600080fd5b8015158114611c6f57600080fd5b6001600160e01b031981168114611c6f57600080fdfe68747470733a2f2f676174657761792e70696e6174612e636c6f75642f697066732fddf252ad1be2c89b69c2b068fc378daa952ba7f163c4a11628f55a4df523b3ef823a343d1c899e61a4db12247636a6882bf1fefae78bef39170f8d0f5b53e456a2646970667358221220b083522205d547a771815d2059ae1fce99e8dcfd54bf2b15f1a054b94cc47f7764736f6c63430008040033","language":"Solidity","natspec":{"author":"Heisenberg","kind":"dev","methods":{"approve(address,uint256)":{"details":"See {IERC721-approve}."},"balanceOf(address)":{"details":"See {IERC721-balanceOf}."},"create(uint256,string)":{"notice":"Creates a new option","params":{"amount":"Option amount in tokenX"},"returns":{"optionID":"Created option's ID"}},"exercise(uint256)":{"notice":"Exercises an option if it was ITM at the time of expiry","params":{"optionID":"ID of your option"}},"fees(uint256,uint256,uint256,uint8)":{"notice":"Used for getting the actual options prices in pool's tokenX","params":{"amount":"Option amount","optionType":"call/put","period":"Option period in seconds (1 days <= period <= 4 weeks)","strike":"Strike price of the option"},"returns":{"premium":"Amount that covers the price difference in the ITM options","settlementFee":"Amount to be distributed to the Buffer token holders","total":"Total price to be paid"}},"getApproved(uint256)":{"details":"See {IERC721-getApproved}."},"getRoleAdmin(bytes32)":{"details":"Returns the admin role that controls `role`. See {grantRole} and {revokeRole}. To change a role's admin, use {_setRoleAdmin}."},"grantRole(bytes32,address)":{"details":"Grants `role` to `account`. If `account` had not been already granted `role`, emits a {RoleGranted} event. Requirements: - the caller must have ``role``'s admin role."},"hasRole(bytes32,address)":{"details":"Returns `true` if `account` has been granted `role`."},"isApprovedForAll(address,address)":{"details":"See {IERC721-isApprovedForAll}."},"merge(uint256[],uint256)":{"notice":"Merges the options","params":{"optionIDs":"An array of the optionsIds to be merged","targetOptionID":"OptionId to be merged into"}},"name()":{"details":"See {IERC721Metadata-name}."},"owner()":{"details":"Returns the address of the current owner."},"ownerOf(uint256)":{"details":"See {IERC721-ownerOf}."},"renounceOwnership()":{"details":"Leaves the contract without owner. It will not be possible to call `onlyOwner` functions anymore. Can only be called by the current owner. NOTE: Renouncing ownership will leave the contract without an owner, thereby removing any functionality that is only available to the owner."},"renounceRole(bytes32,address)":{"details":"Revokes `role` from the calling account. Roles are often managed via {grantRole} and {revokeRole}: this function's purpose is to provide a mechanism for accounts to lose their privileges if they are compromised (such as when a trusted device is misplaced). If the calling account had been granted `role`, emits a {RoleRevoked} event. Requirements: - the caller must be `account`."},"revokeRole(bytes32,address)":{"details":"Revokes `role` from `account`. If `account` had been granted `role`, emits a {RoleRevoked} event. Requirements: - the caller must have ``role``'s admin role."},"safeTransferFrom(address,address,uint256)":{"details":"See {IERC721-safeTransferFrom}."},"safeTransferFrom(address,address,uint256,bytes)":{"details":"See {IERC721-safeTransferFrom}."},"setApprovalForAll(address,bool)":{"details":"See {IERC721-setApprovalForAll}."},"setRoundIDForExpiry(uint256)":{"notice":"Sets the expiry price in the oracle","params":{"expiryRoundId":"the expected roundId for expiryTimestamp"}},"split(uint256,uint256[])":{"notice":"Splits the option","params":{"optionID":"OptionId to be splitted","splitUnits_":"Units to be splitted into"},"returns":{"newOptionIDs":"An array of the splitted options"}},"symbol()":{"details":"See {IERC721Metadata-symbol}."},"tokenURI(uint256)":{"details":"Template code provided by OpenZepplin Code Wizard"},"transferFrom(address,address,uint256)":{"details":"See {IERC721-transferFrom}."},"transferFrom(address,address,uint256,uint256)":{"notice":"Transfer part of units of a option to target address.","params":{"from_":"Address of the option sender","optionID":"Id of the option to transfer","to_":"Address of the option recipient","transferUnits_":"Amount of units to transfer"}},"transferFrom(address,address,uint256,uint256,uint256)":{"notice":"Transfer part of units of a option to another option.","params":{"from_":"Address of the option sender","optionID":"Id of the option to transfer","targetOptionID":"Id of the option to receive","to_":"Address of the option recipient","transferUnits_":"Amount of units to transfer"}},"transferOwnership(address)":{"details":"Transfers ownership of the contract to a new account (`newOwner`). Can only be called by the current owner."},"unlock(uint256)":{"notice":"Unlocks the locked funds if the option was OTM at the time of expiry otherwise exercises it","params":{"optionID":"ID of the option"}},"unlockAll(uint256[])":{"notice":"Unlocks an array of options","params":{"optionIDs":"array of options"}}},"notice":"Buffer TokenX Options Contract","title":"Buffer TokenX Bidirectional (Call and Put) Options","version":1},"opcodes":"PUSH1 0x80 PUSH1 0x40 MSTORE CALLVALUE DUP1 ISZERO PUSH2 0x10 JUMPI PUSH1 0x0 DUP1 REVERT JUMPDEST POP PUSH1 0x4 CALLDATASIZE LT PUSH2 0x288 JUMPI PUSH1 0x0 CALLDATALOAD PUSH1 0xE0 SHR DUP1 PUSH4 0x118FA49 EQ PUSH2 0x28D JUMPI DUP1 PUSH4 0x1FFC9A7 EQ PUSH2 0x2B3 JUMPI DUP1 PUSH4 0x5271A2A EQ PUSH2 0x2D6 JUMPI DUP1 PUSH4 0x6517A29 EQ PUSH2 0x2EB JUMPI DUP1 PUSH4 0x6FDDE03 EQ PUSH2 0x2F4 JUMPI DUP1 PUSH4 0x76D948C EQ PUSH2 0x309 JUMPI DUP1 PUSH4 0x81812FC EQ PUSH2 0x31C JUMPI DUP1 PUSH4 0x95EA7B3 EQ PUSH2 0x347 JUMPI DUP1 PUSH4 0x16F0115B EQ PUSH2 0x35C JUMPI DUP1 PUSH4 0x1CECAA31 EQ PUSH2 0x36F JUMPI DUP1 PUSH4 0x23B872DD EQ PUSH2 0x390 JUMPI DUP1 PUSH4 0x248A9CA3 EQ PUSH2 0x3A3 JUMPI DUP1 PUSH4 0x263F3E7E EQ PUSH2 0x3B6 JUMPI DUP1 PUSH4 0x2F2FF15D EQ PUSH2 0x3C9 JUMPI DUP1 PUSH4 0x36568ABE EQ PUSH2 0x3DC JUMPI DUP1 PUSH4 0x3E56F9F9 EQ PUSH2 0x3EF JUMPI DUP1 PUSH4 0x409E2205 EQ PUSH2 0x402 JUMPI DUP1 PUSH4 0x426A8493 EQ PUSH2 0x465 JUMPI DUP1 PUSH4 0x42842E0E EQ PUSH2 0x478 JUMPI DUP1 PUSH4 0x42966C68 EQ PUSH2 0x48B JUMPI DUP1 PUSH4 0x4AED53C2 EQ PUSH2 0x49E JUMPI DUP1 PUSH4 0x4F558E79 EQ PUSH2 0x4B1 JUMPI DUP1 PUSH4 0x6198E339 EQ PUSH2 0x4C4 JUMPI DUP1 PUSH4 0x6352211E EQ PUSH2 0x4D7 JUMPI DUP1 PUSH4 0x69C67247 EQ PUSH2 0x4EA JUMPI DUP1 PUSH4 0x70A08231 EQ PUSH2 0x50A JUMPI DUP1 PUSH4 0x715018A6 EQ PUSH2 0x51D JUMPI DUP1 PUSH4 0x75794A3C EQ PUSH2 0x525 JUMPI DUP1 PUSH4 0x78C533CE EQ PUSH2 0x52E JUMPI DUP1 PUSH4 0x79502C55 EQ PUSH2 0x54E JUMPI DUP1 PUSH4 0x841EDC0E EQ PUSH2 0x561 JUMPI DUP1 PUSH4 0x8A584118 EQ PUSH2 0x581 JUMPI DUP1 PUSH4 0x8DA5CB5B EQ PUSH2 0x5CC JUMPI DUP1 PUSH4 0x8DD7D2C1 EQ PUSH2 0x5D4 JUMPI DUP1 PUSH4 0x91D14854 EQ PUSH2 0x5E7 JUMPI DUP1 PUSH4 0x95D89B41 EQ PUSH2 0x5FA JUMPI DUP1 PUSH4 0x992642E5 EQ PUSH2 0x602 JUMPI DUP1 PUSH4 0xA217FDDF EQ PUSH2 0x615 JUMPI DUP1 PUSH4 0xA22CB465 EQ PUSH2 0x61D JUMPI DUP1 PUSH4 0xA6D14C02 EQ PUSH2 0x630 JUMPI DUP1 PUSH4 0xA8800425 EQ PUSH2 0x638 JUMPI DUP1 PUSH4 0xB07F0A41 EQ PUSH2 0x64B JUMPI DUP1 PUSH4 0xB888879E EQ PUSH2 0x65E JUMPI DUP1 PUSH4 0xB88D4FDE EQ PUSH2 0x671 JUMPI DUP1 PUSH4 0xBBE33EA5 EQ PUSH2 0x684 JUMPI DUP1 PUSH4 0xBECEF607 EQ PUSH2 0x697 JUMPI DUP1 PUSH4 0xC7C3B53F EQ PUSH2 0x6AA JUMPI DUP1 PUSH4 0xC87B56DD EQ PUSH2 0x6CC JUMPI DUP1 PUSH4 0xD149CC30 EQ PUSH2 0x6DF JUMPI DUP1 PUSH4 0xD547741F EQ PUSH2 0x6F2 JUMPI DUP1 PUSH4 0xD5A0E673 EQ PUSH2 0x705 JUMPI DUP1 PUSH4 0xE342B598 EQ PUSH2 0x725 JUMPI DUP1 PUSH4 0xE345E0BC EQ PUSH2 0x738 JUMPI DUP1 PUSH4 0xE985E9C5 EQ PUSH2 0x772 JUMPI DUP1 PUSH4 0xF2FDE38B EQ PUSH2 0x785 JUMPI DUP1 PUSH4 0xFE99049A EQ PUSH2 0x798 JUMPI JUMPDEST PUSH1 0x0 DUP1 REVERT JUMPDEST PUSH2 0x2A0 PUSH2 0x29B CALLDATASIZE PUSH1 0x4 PUSH2 0x50EA JUMP JUMPDEST PUSH2 0x7AB JUMP JUMPDEST PUSH1 0x40 MLOAD SWAP1 DUP2 MSTORE PUSH1 0x20 ADD JUMPDEST PUSH1 0x40 MLOAD DUP1 SWAP2 SUB SWAP1 RETURN JUMPDEST PUSH2 0x2C6 PUSH2 0x2C1 CALLDATASIZE PUSH1 0x4 PUSH2 0x5051 JUMP JUMPDEST PUSH2 0x1601 JUMP JUMPDEST PUSH1 0x40 MLOAD SWAP1 ISZERO ISZERO DUP2 MSTORE PUSH1 0x20 ADD PUSH2 0x2AA JUMP JUMPDEST PUSH1 0xE SLOAD PUSH1 0x40 MLOAD PUSH1 0xFF SWAP1 SWAP2 AND DUP2 MSTORE PUSH1 0x20 ADD PUSH2 0x2AA JUMP JUMPDEST PUSH2 0x2A0 PUSH1 0xD SLOAD DUP2 JUMP JUMPDEST PUSH2 0x2FC PUSH2 0x1612 JUMP JUMPDEST PUSH1 0x40 MLOAD PUSH2 0x2AA SWAP2 SWAP1 PUSH2 0x53F8 JUMP JUMPDEST PUSH2 0x2A0 PUSH2 0x317 CALLDATASIZE PUSH1 0x4 PUSH2 0x5015 JUMP JUMPDEST PUSH2 0x16A4 JUMP JUMPDEST PUSH2 0x32F PUSH2 0x32A CALLDATASIZE PUSH1 0x4 PUSH2 0x5015 JUMP JUMPDEST PUSH2 0x16E9 JUMP JUMPDEST PUSH1 0x40 MLOAD PUSH1 0x1 PUSH1 0x1 PUSH1 0xA0 SHL SUB SWAP1 SWAP2 AND DUP2 MSTORE PUSH1 0x20 ADD PUSH2 0x2AA JUMP JUMPDEST PUSH2 0x35A PUSH2 0x355 CALLDATASIZE PUSH1 0x4 PUSH2 0x4F12 JUMP JUMPDEST PUSH2 0x1771 JUMP JUMPDEST STOP JUMPDEST PUSH1 0x15 SLOAD PUSH2 0x32F SWAP1 PUSH1 0x1 PUSH1 0x1 PUSH1 0xA0 SHL SUB AND DUP2 JUMP JUMPDEST PUSH1 0x12 SLOAD PUSH2 0x383 SWAP1 PUSH1 0x1 PUSH1 0xA0 SHL SWAP1 DIV PUSH1 0xFF AND DUP2 JUMP JUMPDEST PUSH1 0x40 MLOAD PUSH2 0x2AA SWAP2 SWAP1 PUSH2 0x538E JUMP JUMPDEST PUSH2 0x35A PUSH2 0x39E CALLDATASIZE PUSH1 0x4 PUSH2 0x4D94 JUMP JUMPDEST PUSH2 0x1882 JUMP JUMPDEST PUSH2 0x2A0 PUSH2 0x3B1 CALLDATASIZE PUSH1 0x4 PUSH2 0x5015 JUMP JUMPDEST PUSH2 0x18B3 JUMP JUMPDEST PUSH2 0x2A0 PUSH2 0x3C4 CALLDATASIZE PUSH1 0x4 PUSH2 0x5015 JUMP JUMPDEST PUSH2 0x18C8 JUMP JUMPDEST PUSH2 0x35A PUSH2 0x3D7 CALLDATASIZE PUSH1 0x4 PUSH2 0x502D JUMP JUMPDEST PUSH2 0x18DA JUMP JUMPDEST PUSH2 0x35A PUSH2 0x3EA CALLDATASIZE PUSH1 0x4 PUSH2 0x502D JUMP JUMPDEST PUSH2 0x18F7 JUMP JUMPDEST PUSH2 0x2A0 PUSH2 0x3FD CALLDATASIZE PUSH1 0x4 PUSH2 0x5015 JUMP JUMPDEST PUSH2 0x1975 JUMP JUMPDEST PUSH2 0x452 PUSH2 0x410 CALLDATASIZE PUSH1 0x4 PUSH2 0x5015 JUMP JUMPDEST PUSH1 0x14 PUSH1 0x20 MSTORE PUSH1 0x0 SWAP1 DUP2 MSTORE PUSH1 0x40 SWAP1 KECCAK256 DUP1 SLOAD PUSH1 0x1 DUP3 ADD SLOAD PUSH1 0x2 DUP4 ADD SLOAD PUSH1 0x3 DUP5 ADD SLOAD PUSH1 0x4 DUP6 ADD SLOAD PUSH1 0x5 DUP7 ADD SLOAD PUSH1 0x6 SWAP1 SWAP7 ADD SLOAD PUSH1 0xFF SWAP6 DUP7 AND SWAP7 SWAP5 SWAP6 SWAP4 SWAP5 SWAP3 SWAP4 SWAP2 SWAP3 SWAP2 AND DUP8 JUMP JUMPDEST PUSH1 0x40 MLOAD PUSH2 0x2AA SWAP8 SWAP7 SWAP6 SWAP5 SWAP4 SWAP3 SWAP2 SWAP1 PUSH2 0x539C JUMP JUMPDEST PUSH2 0x35A PUSH2 0x473 CALLDATASIZE PUSH1 0x4 PUSH2 0x4F3D JUMP JUMPDEST PUSH2 0x1BCE JUMP JUMPDEST PUSH2 0x35A PUSH2 0x486 CALLDATASIZE PUSH1 0x4 PUSH2 0x4D94 JUMP JUMPDEST PUSH2 0x1C12 JUMP JUMPDEST PUSH2 0x35A PUSH2 0x499 CALLDATASIZE PUSH1 0x4 PUSH2 0x5015 JUMP JUMPDEST PUSH2 0x1C2D JUMP JUMPDEST PUSH2 0x35A PUSH2 0x4AC CALLDATASIZE PUSH1 0x4 PUSH2 0x4E95 JUMP JUMPDEST PUSH2 0x1C72 JUMP JUMPDEST PUSH2 0x2C6 PUSH2 0x4BF CALLDATASIZE PUSH1 0x4 PUSH2 0x5015 JUMP JUMPDEST PUSH2 0x1D94 JUMP JUMPDEST PUSH2 0x35A PUSH2 0x4D2 CALLDATASIZE PUSH1 0x4 PUSH2 0x5015 JUMP JUMPDEST PUSH2 0x1D9F JUMP JUMPDEST PUSH2 0x32F PUSH2 0x4E5 CALLDATASIZE PUSH1 0x4 PUSH2 0x5015 JUMP JUMPDEST PUSH2 0x201D JUMP JUMPDEST PUSH2 0x4FD PUSH2 0x4F8 CALLDATASIZE PUSH1 0x4 PUSH2 0x50A1 JUMP JUMPDEST PUSH2 0x2094 JUMP JUMPDEST PUSH1 0x40 MLOAD PUSH2 0x2AA SWAP2 SWAP1 PUSH2 0x534A JUMP JUMPDEST PUSH2 0x2A0 PUSH2 0x518 CALLDATASIZE PUSH1 0x4 PUSH2 0x4D24 JUMP JUMPDEST PUSH2 0x2486 JUMP JUMPDEST PUSH2 0x35A PUSH2 0x250D JUMP JUMPDEST PUSH2 0x2A0 PUSH1 0x13 SLOAD DUP2 JUMP JUMPDEST PUSH2 0x2A0 PUSH2 0x53C CALLDATASIZE PUSH1 0x4 PUSH2 0x5015 JUMP JUMPDEST PUSH1 0xF PUSH1 0x20 MSTORE PUSH1 0x0 SWAP1 DUP2 MSTORE PUSH1 0x40 SWAP1 KECCAK256 SLOAD DUP2 JUMP JUMPDEST PUSH1 0x16 SLOAD PUSH2 0x32F SWAP1 PUSH1 0x1 PUSH1 0x1 PUSH1 0xA0 SHL SUB AND DUP2 JUMP JUMPDEST PUSH2 0x2A0 PUSH2 0x56F CALLDATASIZE PUSH1 0x4 PUSH2 0x5015 JUMP JUMPDEST PUSH1 0x17 PUSH1 0x20 MSTORE PUSH1 0x0 SWAP1 DUP2 MSTORE PUSH1 0x40 SWAP1 KECCAK256 SLOAD DUP2 JUMP JUMPDEST PUSH2 0x5BC PUSH2 0x58F CALLDATASIZE PUSH1 0x4 PUSH2 0x5015 JUMP JUMPDEST PUSH1 0x18 PUSH1 0x20 MSTORE PUSH1 0x0 SWAP1 DUP2 MSTORE PUSH1 0x40 SWAP1 KECCAK256 DUP1 SLOAD PUSH1 0x1 DUP3 ADD SLOAD PUSH1 0x2 SWAP1 SWAP3 ADD SLOAD SWAP1 SWAP2 SWAP1 PUSH1 0xFF DUP1 DUP3 AND SWAP2 PUSH2 0x100 SWAP1 DIV AND DUP5 JUMP JUMPDEST PUSH1 0x40 MLOAD PUSH2 0x2AA SWAP5 SWAP4 SWAP3 SWAP2 SWAP1 PUSH2 0x5570 JUMP JUMPDEST PUSH2 0x32F PUSH2 0x2548 JUMP JUMPDEST PUSH2 0x2C6 PUSH2 0x5E2 CALLDATASIZE PUSH1 0x4 PUSH2 0x5015 JUMP JUMPDEST PUSH2 0x2557 JUMP JUMPDEST PUSH2 0x2C6 PUSH2 0x5F5 CALLDATASIZE PUSH1 0x4 PUSH2 0x502D JUMP JUMPDEST PUSH2 0x2680 JUMP JUMPDEST PUSH2 0x2FC PUSH2 0x26AB JUMP JUMPDEST PUSH1 0x10 SLOAD PUSH2 0x32F SWAP1 PUSH1 0x1 PUSH1 0x1 PUSH1 0xA0 SHL SUB AND DUP2 JUMP JUMPDEST PUSH2 0x2A0 PUSH1 0x0 DUP2 JUMP JUMPDEST PUSH2 0x35A PUSH2 0x62B CALLDATASIZE PUSH1 0x4 PUSH2 0x4EE5 JUMP JUMPDEST PUSH2 0x26BA JUMP JUMPDEST PUSH2 0x2A0 PUSH1 0x5 DUP2 JUMP JUMPDEST PUSH2 0x2A0 PUSH2 0x646 CALLDATASIZE PUSH1 0x4 PUSH2 0x5015 JUMP JUMPDEST PUSH2 0x277B JUMP JUMPDEST PUSH2 0x2A0 PUSH2 0x659 CALLDATASIZE PUSH1 0x4 PUSH2 0x5015 JUMP JUMPDEST PUSH2 0x2792 JUMP JUMPDEST PUSH1 0x12 SLOAD PUSH2 0x32F SWAP1 PUSH1 0x1 PUSH1 0x1 PUSH1 0xA0 SHL SUB AND DUP2 JUMP JUMPDEST PUSH2 0x35A PUSH2 0x67F CALLDATASIZE PUSH1 0x4 PUSH2 0x4DD4 JUMP JUMPDEST PUSH2 0x2953 JUMP JUMPDEST PUSH2 0x35A PUSH2 0x692 CALLDATASIZE PUSH1 0x4 PUSH2 0x4FB0 JUMP JUMPDEST PUSH2 0x2986 JUMP JUMPDEST PUSH2 0x2A0 PUSH2 0x6A5 CALLDATASIZE PUSH1 0x4 PUSH2 0x5015 JUMP JUMPDEST PUSH2 0x2B95 JUMP JUMPDEST PUSH2 0x6BD PUSH2 0x6B8 CALLDATASIZE PUSH1 0x4 PUSH2 0x51B2 JUMP JUMPDEST PUSH2 0x2BA7 JUMP JUMPDEST PUSH1 0x40 MLOAD PUSH2 0x2AA SWAP4 SWAP3 SWAP2 SWAP1 PUSH2 0x55E5 JUMP JUMPDEST PUSH2 0x2FC PUSH2 0x6DA CALLDATASIZE PUSH1 0x4 PUSH2 0x5015 JUMP JUMPDEST PUSH2 0x2CEA JUMP JUMPDEST PUSH2 0x2A0 PUSH2 0x6ED CALLDATASIZE PUSH1 0x4 PUSH2 0x5141 JUMP JUMPDEST PUSH2 0x2CF5 JUMP JUMPDEST PUSH2 0x35A PUSH2 0x700 CALLDATASIZE PUSH1 0x4 PUSH2 0x502D JUMP JUMPDEST PUSH2 0x2D14 JUMP JUMPDEST PUSH2 0x2A0 PUSH2 0x713 CALLDATASIZE PUSH1 0x4 PUSH2 0x5015 JUMP JUMPDEST PUSH1 0xA PUSH1 0x20 MSTORE PUSH1 0x0 SWAP1 DUP2 MSTORE PUSH1 0x40 SWAP1 KECCAK256 SLOAD DUP2 JUMP JUMPDEST PUSH2 0x35A PUSH2 0x733 CALLDATASIZE PUSH1 0x4 PUSH2 0x4F71 JUMP JUMPDEST PUSH2 0x2D31 JUMP JUMPDEST PUSH2 0x2A0 PUSH2 0x746 CALLDATASIZE PUSH1 0x4 PUSH2 0x502D JUMP JUMPDEST PUSH1 0x0 DUP3 DUP2 MSTORE PUSH1 0xB PUSH1 0x20 SWAP1 DUP2 MSTORE PUSH1 0x40 DUP1 DUP4 KECCAK256 PUSH1 0x1 PUSH1 0x1 PUSH1 0xA0 SHL SUB DUP6 AND DUP5 MSTORE PUSH1 0x1 ADD SWAP1 SWAP2 MSTORE SWAP1 KECCAK256 SLOAD SWAP3 SWAP2 POP POP JUMP JUMPDEST PUSH2 0x2C6 PUSH2 0x780 CALLDATASIZE PUSH1 0x4 PUSH2 0x4D5C JUMP JUMPDEST PUSH2 0x2D7E JUMP JUMPDEST PUSH2 0x35A PUSH2 0x793 CALLDATASIZE PUSH1 0x4 PUSH2 0x4D24 JUMP JUMPDEST PUSH2 0x2DAC JUMP JUMPDEST PUSH2 0x2A0 PUSH2 0x7A6 CALLDATASIZE PUSH1 0x4 PUSH2 0x4E50 JUMP JUMPDEST PUSH2 0x2E49 JUMP JUMPDEST PUSH1 0x0 PUSH1 0x2 PUSH1 0x7 SLOAD EQ ISZERO PUSH2 0x805 JUMPI PUSH1 0x40 MLOAD PUSH3 0x461BCD PUSH1 0xE5 SHL DUP2 MSTORE PUSH1 0x20 PUSH1 0x4 DUP3 ADD MSTORE PUSH1 0x1F PUSH1 0x24 DUP3 ADD MSTORE PUSH32 0x5265656E7472616E637947756172643A207265656E7472616E742063616C6C00 PUSH1 0x44 DUP3 ADD MSTORE PUSH1 0x64 ADD JUMPDEST PUSH1 0x40 MLOAD DUP1 SWAP2 SUB SWAP1 REVERT JUMPDEST PUSH1 0x2 PUSH1 0x7 SSTORE PUSH1 0x15 SLOAD PUSH1 0x40 DUP1 MLOAD PUSH4 0x392E53CD PUSH1 0xE0 SHL DUP2 MSTORE SWAP1 MLOAD PUSH1 0x1 PUSH1 0x1 PUSH1 0xA0 SHL SUB SWAP1 SWAP3 AND SWAP2 PUSH4 0x392E53CD SWAP2 PUSH1 0x4 DUP1 DUP3 ADD SWAP3 PUSH1 0x20 SWAP3 SWAP1 SWAP2 SWAP1 DUP3 SWAP1 SUB ADD DUP2 DUP7 DUP1 EXTCODESIZE ISZERO DUP1 ISZERO PUSH2 0x84F JUMPI PUSH1 0x0 DUP1 REVERT JUMPDEST POP GAS STATICCALL ISZERO DUP1 ISZERO PUSH2 0x863 JUMPI RETURNDATASIZE PUSH1 0x0 DUP1 RETURNDATACOPY RETURNDATASIZE PUSH1 0x0 REVERT JUMPDEST POP POP POP POP PUSH1 0x40 MLOAD RETURNDATASIZE PUSH1 0x1F NOT PUSH1 0x1F DUP3 ADD AND DUP3 ADD DUP1 PUSH1 0x40 MSTORE POP DUP2 ADD SWAP1 PUSH2 0x887 SWAP2 SWAP1 PUSH2 0x4FF9 JUMP JUMPDEST DUP1 ISZERO PUSH2 0x914 JUMPI POP PUSH1 0x16 PUSH1 0x0 SWAP1 SLOAD SWAP1 PUSH2 0x100 EXP SWAP1 DIV PUSH1 0x1 PUSH1 0x1 PUSH1 0xA0 SHL SUB AND PUSH1 0x1 PUSH1 0x1 PUSH1 0xA0 SHL SUB AND PUSH4 0x392E53CD PUSH1 0x40 MLOAD DUP2 PUSH4 0xFFFFFFFF AND PUSH1 0xE0 SHL DUP2 MSTORE PUSH1 0x4 ADD PUSH1 0x20 PUSH1 0x40 MLOAD DUP1 DUP4 SUB DUP2 DUP7 DUP1 EXTCODESIZE ISZERO DUP1 ISZERO PUSH2 0x8DC JUMPI PUSH1 0x0 DUP1 REVERT JUMPDEST POP GAS STATICCALL ISZERO DUP1 ISZERO PUSH2 0x8F0 JUMPI RETURNDATASIZE PUSH1 0x0 DUP1 RETURNDATACOPY RETURNDATASIZE PUSH1 0x0 REVERT JUMPDEST POP POP POP POP PUSH1 0x40 MLOAD RETURNDATASIZE PUSH1 0x1F NOT PUSH1 0x1F DUP3 ADD AND DUP3 ADD DUP1 PUSH1 0x40 MSTORE POP DUP2 ADD SWAP1 PUSH2 0x914 SWAP2 SWAP1 PUSH2 0x4FF9 JUMP JUMPDEST PUSH2 0x959 JUMPI PUSH1 0x40 MLOAD PUSH3 0x461BCD PUSH1 0xE5 SHL DUP2 MSTORE PUSH1 0x20 PUSH1 0x4 DUP3 ADD MSTORE PUSH1 0x16 PUSH1 0x24 DUP3 ADD MSTORE PUSH22 0x496E697469616C697A6174696F6E2070656E64696E67 PUSH1 0x50 SHL PUSH1 0x44 DUP3 ADD MSTORE PUSH1 0x64 ADD PUSH2 0x7FC JUMP JUMPDEST PUSH1 0x15 SLOAD PUSH1 0x40 DUP1 MLOAD PUSH4 0xA834069B PUSH1 0xE0 SHL DUP2 MSTORE SWAP1 MLOAD PUSH1 0x0 SWAP3 PUSH1 0x1 PUSH1 0x1 PUSH1 0xA0 SHL SUB AND SWAP2 PUSH4 0xA834069B SWAP2 PUSH1 0x4 DUP1 DUP4 ADD SWAP3 PUSH1 0x20 SWAP3 SWAP2 SWAP1 DUP3 SWAP1 SUB ADD DUP2 DUP7 DUP1 EXTCODESIZE ISZERO DUP1 ISZERO PUSH2 0x99E JUMPI PUSH1 0x0 DUP1 REVERT JUMPDEST POP GAS STATICCALL ISZERO DUP1 ISZERO PUSH2 0x9B2 JUMPI RETURNDATASIZE PUSH1 0x0 DUP1 RETURNDATACOPY RETURNDATASIZE PUSH1 0x0 REVERT JUMPDEST POP POP POP POP PUSH1 0x40 MLOAD RETURNDATASIZE PUSH1 0x1F NOT PUSH1 0x1F DUP3 ADD AND DUP3 ADD DUP1 PUSH1 0x40 MSTORE POP DUP2 ADD SWAP1 PUSH2 0x9D6 SWAP2 SWAP1 PUSH2 0x5089 JUMP JUMPDEST SWAP1 POP TIMESTAMP DUP2 GT PUSH2 0x9F7 JUMPI PUSH1 0x40 MLOAD PUSH3 0x461BCD PUSH1 0xE5 SHL DUP2 MSTORE PUSH1 0x4 ADD PUSH2 0x7FC SWAP1 PUSH2 0x5538 JUMP JUMPDEST PUSH1 0x0 PUSH2 0xA03 TIMESTAMP DUP4 PUSH2 0x578B JUMP JUMPDEST SWAP1 POP PUSH2 0xA8C0 DUP2 LT ISZERO PUSH2 0xA27 JUMPI PUSH1 0x40 MLOAD PUSH3 0x461BCD PUSH1 0xE5 SHL DUP2 MSTORE PUSH1 0x4 ADD PUSH2 0x7FC SWAP1 PUSH2 0x5538 JUMP JUMPDEST PUSH1 0x0 DUP1 PUSH1 0x0 PUSH2 0xAC9 DUP5 DUP10 PUSH1 0x16 PUSH1 0x0 SWAP1 SLOAD SWAP1 PUSH2 0x100 EXP SWAP1 DIV PUSH1 0x1 PUSH1 0x1 PUSH1 0xA0 SHL SUB AND PUSH1 0x1 PUSH1 0x1 PUSH1 0xA0 SHL SUB AND PUSH4 0x5EE97101 PUSH1 0x40 MLOAD DUP2 PUSH4 0xFFFFFFFF AND PUSH1 0xE0 SHL DUP2 MSTORE PUSH1 0x4 ADD PUSH1 0x20 PUSH1 0x40 MLOAD DUP1 DUP4 SUB DUP2 DUP7 DUP1 EXTCODESIZE ISZERO DUP1 ISZERO PUSH2 0xA7F JUMPI PUSH1 0x0 DUP1 REVERT JUMPDEST POP GAS STATICCALL ISZERO DUP1 ISZERO PUSH2 0xA93 JUMPI RETURNDATASIZE PUSH1 0x0 DUP1 RETURNDATACOPY RETURNDATASIZE PUSH1 0x0 REVERT JUMPDEST POP POP POP POP PUSH1 0x40 MLOAD RETURNDATASIZE PUSH1 0x1F NOT PUSH1 0x1F DUP3 ADD AND DUP3 ADD DUP1 PUSH1 0x40 MSTORE POP DUP2 ADD SWAP1 PUSH2 0xAB7 SWAP2 SWAP1 PUSH2 0x5089 JUMP JUMPDEST PUSH1 0x12 SLOAD PUSH1 0x1 PUSH1 0xA0 SHL SWAP1 DIV PUSH1 0xFF AND PUSH2 0x2BA7 JUMP JUMPDEST SWAP2 SWAP5 POP SWAP3 POP SWAP1 POP PUSH1 0x5 PUSH2 0xADC DUP6 DUP11 PUSH2 0x576C JUMP JUMPDEST PUSH2 0xAE6 SWAP2 SWAP1 PUSH2 0x576C JUMP JUMPDEST PUSH2 0xAF4 DUP5 PUSH4 0x1E13380 PUSH2 0x576C JUMP JUMPDEST PUSH2 0xAFF SWAP1 PUSH1 0x64 PUSH2 0x576C JUMP JUMPDEST GT PUSH2 0xB31 JUMPI PUSH1 0x40 MLOAD PUSH3 0x461BCD PUSH1 0xE5 SHL DUP2 MSTORE PUSH1 0x20 PUSH1 0x4 DUP3 ADD MSTORE PUSH1 0x2 PUSH1 0x24 DUP3 ADD MSTORE PUSH2 0x2799 PUSH1 0xF1 SHL PUSH1 0x44 DUP3 ADD MSTORE PUSH1 0x64 ADD PUSH2 0x7FC JUMP JUMPDEST PUSH1 0x12 SLOAD PUSH1 0x40 DUP1 MLOAD PUSH4 0xD67AAC1 PUSH1 0xE1 SHL DUP2 MSTORE SWAP1 MLOAD PUSH1 0x0 SWAP3 PUSH1 0x1 PUSH1 0x1 PUSH1 0xA0 SHL SUB AND SWAP2 PUSH4 0x1ACF5582 SWAP2 PUSH1 0x4 DUP1 DUP4 ADD SWAP3 PUSH1 0x20 SWAP3 SWAP2 SWAP1 DUP3 SWAP1 SUB ADD DUP2 DUP7 DUP1 EXTCODESIZE ISZERO DUP1 ISZERO PUSH2 0xB76 JUMPI PUSH1 0x0 DUP1 REVERT JUMPDEST POP GAS STATICCALL ISZERO DUP1 ISZERO PUSH2 0xB8A JUMPI RETURNDATASIZE PUSH1 0x0 DUP1 RETURNDATACOPY RETURNDATASIZE PUSH1 0x0 REVERT JUMPDEST POP POP POP POP PUSH1 0x40 MLOAD RETURNDATASIZE PUSH1 0x1F NOT PUSH1 0x1F DUP3 ADD AND DUP3 ADD DUP1 PUSH1 0x40 MSTORE POP DUP2 ADD SWAP1 PUSH2 0xBAE SWAP2 SWAP1 PUSH2 0x5089 JUMP JUMPDEST SWAP1 POP PUSH1 0x0 PUSH1 0x15 PUSH1 0x0 SWAP1 SLOAD SWAP1 PUSH2 0x100 EXP SWAP1 DIV PUSH1 0x1 PUSH1 0x1 PUSH1 0xA0 SHL SUB AND PUSH1 0x1 PUSH1 0x1 PUSH1 0xA0 SHL SUB AND PUSH4 0x16DC165B PUSH1 0x40 MLOAD DUP2 PUSH4 0xFFFFFFFF AND PUSH1 0xE0 SHL DUP2 MSTORE PUSH1 0x4 ADD PUSH1 0x20 PUSH1 0x40 MLOAD DUP1 DUP4 SUB DUP2 DUP7 DUP1 EXTCODESIZE ISZERO DUP1 ISZERO PUSH2 0xC00 JUMPI PUSH1 0x0 DUP1 REVERT JUMPDEST POP GAS STATICCALL ISZERO DUP1 ISZERO PUSH2 0xC14 JUMPI RETURNDATASIZE PUSH1 0x0 DUP1 RETURNDATACOPY RETURNDATASIZE PUSH1 0x0 REVERT JUMPDEST POP POP POP POP PUSH1 0x40 MLOAD RETURNDATASIZE PUSH1 0x1F NOT PUSH1 0x1F DUP3 ADD AND DUP3 ADD DUP1 PUSH1 0x40 MSTORE POP DUP2 ADD SWAP1 PUSH2 0xC38 SWAP2 SWAP1 PUSH2 0x4D40 JUMP JUMPDEST PUSH1 0x1 PUSH1 0x1 PUSH1 0xA0 SHL SUB AND PUSH4 0x313CE567 PUSH1 0x40 MLOAD DUP2 PUSH4 0xFFFFFFFF AND PUSH1 0xE0 SHL DUP2 MSTORE PUSH1 0x4 ADD PUSH1 0x20 PUSH1 0x40 MLOAD DUP1 DUP4 SUB DUP2 DUP7 DUP1 EXTCODESIZE ISZERO DUP1 ISZERO PUSH2 0xC70 JUMPI PUSH1 0x0 DUP1 REVERT JUMPDEST POP GAS STATICCALL ISZERO DUP1 ISZERO PUSH2 0xC84 JUMPI RETURNDATASIZE PUSH1 0x0 DUP1 RETURNDATACOPY RETURNDATASIZE PUSH1 0x0 REVERT JUMPDEST POP POP POP POP PUSH1 0x40 MLOAD RETURNDATASIZE PUSH1 0x1F NOT PUSH1 0x1F DUP3 ADD AND DUP3 ADD DUP1 PUSH1 0x40 MSTORE POP DUP2 ADD SWAP1 PUSH2 0xCA8 SWAP2 SWAP1 PUSH2 0x51F5 JUMP JUMPDEST PUSH2 0xCB3 SWAP1 PUSH1 0xA PUSH2 0x56C0 JUMP JUMPDEST SWAP1 POP PUSH1 0x15 PUSH1 0x0 SWAP1 SLOAD SWAP1 PUSH2 0x100 EXP SWAP1 DIV PUSH1 0x1 PUSH1 0x1 PUSH1 0xA0 SHL SUB AND PUSH1 0x1 PUSH1 0x1 PUSH1 0xA0 SHL SUB AND PUSH4 0xA4475CE4 PUSH1 0x40 MLOAD DUP2 PUSH4 0xFFFFFFFF AND PUSH1 0xE0 SHL DUP2 MSTORE PUSH1 0x4 ADD PUSH1 0x20 PUSH1 0x40 MLOAD DUP1 DUP4 SUB DUP2 DUP7 DUP1 EXTCODESIZE ISZERO DUP1 ISZERO PUSH2 0xD03 JUMPI PUSH1 0x0 DUP1 REVERT JUMPDEST POP GAS STATICCALL ISZERO DUP1 ISZERO PUSH2 0xD17 JUMPI RETURNDATASIZE PUSH1 0x0 DUP1 RETURNDATACOPY RETURNDATASIZE PUSH1 0x0 REVERT JUMPDEST POP POP POP POP PUSH1 0x40 MLOAD RETURNDATASIZE PUSH1 0x1F NOT PUSH1 0x1F DUP3 ADD AND DUP3 ADD DUP1 PUSH1 0x40 MSTORE POP DUP2 ADD SWAP1 PUSH2 0xD3B SWAP2 SWAP1 PUSH2 0x4D40 JUMP JUMPDEST PUSH1 0x1 PUSH1 0x1 PUSH1 0xA0 SHL SUB AND CALLER PUSH1 0x1 PUSH1 0x1 PUSH1 0xA0 SHL SUB AND EQ PUSH2 0xF65 JUMPI PUSH1 0x10 SLOAD PUSH1 0x12 SLOAD PUSH1 0x40 DUP1 MLOAD PUSH4 0x313CE567 PUSH1 0xE0 SHL DUP2 MSTORE SWAP1 MLOAD PUSH1 0x0 SWAP4 PUSH1 0x1 PUSH1 0x1 PUSH1 0xA0 SHL SUB SWAP1 DUP2 AND SWAP4 PUSH4 0x23B872DD SWAP4 CALLER SWAP4 ADDRESS SWAP4 SWAP1 SWAP3 AND SWAP2 PUSH4 0x313CE567 SWAP2 PUSH1 0x4 DUP1 DUP3 ADD SWAP3 PUSH1 0x20 SWAP3 SWAP1 SWAP2 SWAP1 DUP3 SWAP1 SUB ADD DUP2 DUP7 DUP1 EXTCODESIZE ISZERO DUP1 ISZERO PUSH2 0xDAC JUMPI PUSH1 0x0 DUP1 REVERT JUMPDEST POP GAS STATICCALL ISZERO DUP1 ISZERO PUSH2 0xDC0 JUMPI RETURNDATASIZE PUSH1 0x0 DUP1 RETURNDATACOPY RETURNDATASIZE PUSH1 0x0 REVERT JUMPDEST POP POP POP POP PUSH1 0x40 MLOAD RETURNDATASIZE PUSH1 0x1F NOT PUSH1 0x1F DUP3 ADD AND DUP3 ADD DUP1 PUSH1 0x40 MSTORE POP DUP2 ADD SWAP1 PUSH2 0xDE4 SWAP2 SWAP1 PUSH2 0x5089 JUMP JUMPDEST PUSH2 0xDEF SWAP1 PUSH1 0xA PUSH2 0x56B4 JUMP JUMPDEST PUSH2 0xDF9 SWAP1 DUP8 PUSH2 0x576C JUMP JUMPDEST PUSH1 0x10 PUSH1 0x0 SWAP1 SLOAD SWAP1 PUSH2 0x100 EXP SWAP1 DIV PUSH1 0x1 PUSH1 0x1 PUSH1 0xA0 SHL SUB AND PUSH1 0x1 PUSH1 0x1 PUSH1 0xA0 SHL SUB AND PUSH4 0x313CE567 PUSH1 0x40 MLOAD DUP2 PUSH4 0xFFFFFFFF AND PUSH1 0xE0 SHL DUP2 MSTORE PUSH1 0x4 ADD PUSH1 0x20 PUSH1 0x40 MLOAD DUP1 DUP4 SUB DUP2 DUP7 DUP1 EXTCODESIZE ISZERO DUP1 ISZERO PUSH2 0xE47 JUMPI PUSH1 0x0 DUP1 REVERT JUMPDEST POP GAS STATICCALL ISZERO DUP1 ISZERO PUSH2 0xE5B JUMPI RETURNDATASIZE PUSH1 0x0 DUP1 RETURNDATACOPY RETURNDATASIZE PUSH1 0x0 REVERT JUMPDEST POP POP POP POP PUSH1 0x40 MLOAD RETURNDATASIZE PUSH1 0x1F NOT PUSH1 0x1F DUP3 ADD AND DUP3 ADD DUP1 PUSH1 0x40 MSTORE POP DUP2 ADD SWAP1 PUSH2 0xE7F SWAP2 SWAP1 PUSH2 0x51F5 JUMP JUMPDEST PUSH2 0xE8A SWAP1 PUSH1 0xA PUSH2 0x56C0 JUMP JUMPDEST PUSH2 0xE94 DUP10 DUP14 PUSH2 0x576C JUMP JUMPDEST PUSH2 0xE9E SWAP2 SWAP1 PUSH2 0x576C JUMP JUMPDEST PUSH2 0xEA8 SWAP2 SWAP1 PUSH2 0x565D JUMP JUMPDEST PUSH1 0x40 MLOAD PUSH1 0x1 PUSH1 0x1 PUSH1 0xE0 SHL SUB NOT PUSH1 0xE0 DUP7 SWAP1 SHL AND DUP2 MSTORE PUSH1 0x1 PUSH1 0x1 PUSH1 0xA0 SHL SUB SWAP4 DUP5 AND PUSH1 0x4 DUP3 ADD MSTORE SWAP3 SWAP1 SWAP2 AND PUSH1 0x24 DUP4 ADD MSTORE PUSH1 0x44 DUP3 ADD MSTORE PUSH1 0x64 ADD PUSH1 0x20 PUSH1 0x40 MLOAD DUP1 DUP4 SUB DUP2 PUSH1 0x0 DUP8 DUP1 EXTCODESIZE ISZERO DUP1 ISZERO PUSH2 0xEF7 JUMPI PUSH1 0x0 DUP1 REVERT JUMPDEST POP GAS CALL ISZERO DUP1 ISZERO PUSH2 0xF0B JUMPI RETURNDATASIZE PUSH1 0x0 DUP1 RETURNDATACOPY RETURNDATASIZE PUSH1 0x0 REVERT JUMPDEST POP POP POP POP PUSH1 0x40 MLOAD RETURNDATASIZE PUSH1 0x1F NOT PUSH1 0x1F DUP3 ADD AND DUP3 ADD DUP1 PUSH1 0x40 MSTORE POP DUP2 ADD SWAP1 PUSH2 0xF2F SWAP2 SWAP1 PUSH2 0x4FF9 JUMP JUMPDEST SWAP1 POP DUP1 PUSH2 0xF63 JUMPI PUSH1 0x40 MLOAD PUSH3 0x461BCD PUSH1 0xE5 SHL DUP2 MSTORE PUSH1 0x20 PUSH1 0x4 DUP3 ADD MSTORE PUSH1 0x2 PUSH1 0x24 DUP3 ADD MSTORE PUSH2 0x4F33 PUSH1 0xF0 SHL PUSH1 0x44 DUP3 ADD MSTORE PUSH1 0x64 ADD PUSH2 0x7FC JUMP JUMPDEST POP JUMPDEST PUSH1 0x40 DUP1 MLOAD PUSH1 0xE0 DUP2 ADD DUP3 MSTORE PUSH1 0x1 DUP2 MSTORE PUSH1 0x16 SLOAD DUP3 MLOAD PUSH4 0x5EE97101 PUSH1 0xE0 SHL DUP2 MSTORE SWAP3 MLOAD PUSH1 0x0 SWAP4 PUSH1 0x20 DUP1 DUP6 ADD SWAP4 PUSH1 0x1 PUSH1 0x1 PUSH1 0xA0 SHL SUB AND SWAP3 PUSH4 0x5EE97101 SWAP3 PUSH1 0x4 DUP1 DUP3 ADD SWAP4 SWAP3 SWAP2 DUP3 SWAP1 SUB ADD DUP2 DUP7 DUP1 EXTCODESIZE ISZERO DUP1 ISZERO PUSH2 0xFB9 JUMPI PUSH1 0x0 DUP1 REVERT JUMPDEST POP GAS STATICCALL ISZERO DUP1 ISZERO PUSH2 0xFCD JUMPI RETURNDATASIZE PUSH1 0x0 DUP1 RETURNDATACOPY RETURNDATASIZE PUSH1 0x0 REVERT JUMPDEST POP POP POP POP PUSH1 0x40 MLOAD RETURNDATASIZE PUSH1 0x1F NOT PUSH1 0x1F DUP3 ADD AND DUP3 ADD DUP1 PUSH1 0x40 MSTORE POP DUP2 ADD SWAP1 PUSH2 0xFF1 SWAP2 SWAP1 PUSH2 0x5089 JUMP JUMPDEST DUP2 MSTORE PUSH1 0x20 DUP2 ADD DUP14 SWAP1 MSTORE PUSH1 0x40 ADD PUSH2 0x1008 DUP14 PUSH1 0x2 PUSH2 0x576C JUMP JUMPDEST DUP2 MSTORE PUSH1 0x20 ADD DUP6 DUP2 MSTORE PUSH1 0x20 ADD DUP10 DUP2 MSTORE PUSH1 0x20 ADD PUSH1 0x12 PUSH1 0x14 SWAP1 SLOAD SWAP1 PUSH2 0x100 EXP SWAP1 DIV PUSH1 0xFF AND PUSH1 0x2 DUP2 GT ISZERO PUSH2 0x1048 JUMPI PUSH4 0x4E487B71 PUSH1 0xE0 SHL PUSH1 0x0 MSTORE PUSH1 0x21 PUSH1 0x4 MSTORE PUSH1 0x24 PUSH1 0x0 REVERT JUMPDEST SWAP1 MSTORE SWAP1 POP PUSH2 0x1054 PUSH2 0x2F20 JUMP JUMPDEST SWAP9 POP PUSH2 0x1060 DUP10 DUP3 PUSH2 0x2F3A JUMP JUMPDEST PUSH2 0x108D DUP10 CALLER PUSH2 0x1088 DUP13 DUP6 PUSH1 0x20 ADD MLOAD DUP7 PUSH1 0xA0 ADD MLOAD PUSH1 0x12 PUSH1 0x14 SWAP1 SLOAD SWAP1 PUSH2 0x100 EXP SWAP1 DIV PUSH1 0xFF AND PUSH2 0x2FF2 JUMP JUMPDEST PUSH2 0x3130 JUMP JUMPDEST PUSH2 0x1097 DUP10 DUP12 PUSH2 0x3153 JUMP JUMPDEST PUSH2 0x10AA DUP10 DUP3 PUSH1 0x60 ADD MLOAD DUP4 PUSH1 0x80 ADD MLOAD PUSH2 0x315D JUMP JUMPDEST PUSH1 0x15 PUSH1 0x0 SWAP1 SLOAD SWAP1 PUSH2 0x100 EXP SWAP1 DIV PUSH1 0x1 PUSH1 0x1 PUSH1 0xA0 SHL SUB AND PUSH1 0x1 PUSH1 0x1 PUSH1 0xA0 SHL SUB AND PUSH4 0xA4475CE4 PUSH1 0x40 MLOAD DUP2 PUSH4 0xFFFFFFFF AND PUSH1 0xE0 SHL DUP2 MSTORE PUSH1 0x4 ADD PUSH1 0x20 PUSH1 0x40 MLOAD DUP1 DUP4 SUB DUP2 DUP7 DUP1 EXTCODESIZE ISZERO DUP1 ISZERO PUSH2 0x10F8 JUMPI PUSH1 0x0 DUP1 REVERT JUMPDEST POP GAS STATICCALL ISZERO DUP1 ISZERO PUSH2 0x110C JUMPI RETURNDATASIZE PUSH1 0x0 DUP1 RETURNDATACOPY RETURNDATASIZE PUSH1 0x0 REVERT JUMPDEST POP POP POP POP PUSH1 0x40 MLOAD RETURNDATASIZE PUSH1 0x1F NOT PUSH1 0x1F DUP3 ADD AND DUP3 ADD DUP1 PUSH1 0x40 MSTORE POP DUP2 ADD SWAP1 PUSH2 0x1130 SWAP2 SWAP1 PUSH2 0x4D40 JUMP JUMPDEST PUSH1 0x1 PUSH1 0x1 PUSH1 0xA0 SHL SUB AND CALLER PUSH1 0x1 PUSH1 0x1 PUSH1 0xA0 SHL SUB AND EQ PUSH2 0x15A7 JUMPI PUSH1 0x10 SLOAD PUSH1 0x15 SLOAD PUSH1 0x40 DUP1 MLOAD PUSH4 0x2911D739 PUSH1 0xE2 SHL DUP2 MSTORE SWAP1 MLOAD PUSH1 0x1 PUSH1 0x1 PUSH1 0xA0 SHL SUB SWAP4 DUP5 AND SWAP4 PUSH4 0xA9059CBB SWAP4 AND SWAP2 PUSH4 0xA4475CE4 SWAP2 PUSH1 0x4 DUP1 DUP4 ADD SWAP3 PUSH1 0x20 SWAP3 SWAP2 SWAP1 DUP3 SWAP1 SUB ADD DUP2 DUP7 DUP1 EXTCODESIZE ISZERO DUP1 ISZERO PUSH2 0x1197 JUMPI PUSH1 0x0 DUP1 REVERT JUMPDEST POP GAS STATICCALL ISZERO DUP1 ISZERO PUSH2 0x11AB JUMPI RETURNDATASIZE PUSH1 0x0 DUP1 RETURNDATACOPY RETURNDATASIZE PUSH1 0x0 REVERT JUMPDEST POP POP POP POP PUSH1 0x40 MLOAD RETURNDATASIZE PUSH1 0x1F NOT PUSH1 0x1F DUP3 ADD AND DUP3 ADD DUP1 PUSH1 0x40 MSTORE POP DUP2 ADD SWAP1 PUSH2 0x11CF SWAP2 SWAP1 PUSH2 0x4D40 JUMP JUMPDEST PUSH1 0x12 PUSH1 0x0 SWAP1 SLOAD SWAP1 PUSH2 0x100 EXP SWAP1 DIV PUSH1 0x1 PUSH1 0x1 PUSH1 0xA0 SHL SUB AND PUSH1 0x1 PUSH1 0x1 PUSH1 0xA0 SHL SUB AND PUSH4 0x313CE567 PUSH1 0x40 MLOAD DUP2 PUSH4 0xFFFFFFFF AND PUSH1 0xE0 SHL DUP2 MSTORE PUSH1 0x4 ADD PUSH1 0x20 PUSH1 0x40 MLOAD DUP1 DUP4 SUB DUP2 DUP7 DUP1 EXTCODESIZE ISZERO DUP1 ISZERO PUSH2 0x121D JUMPI PUSH1 0x0 DUP1 REVERT JUMPDEST POP GAS STATICCALL ISZERO DUP1 ISZERO PUSH2 0x1231 JUMPI RETURNDATASIZE PUSH1 0x0 DUP1 RETURNDATACOPY RETURNDATASIZE PUSH1 0x0 REVERT JUMPDEST POP POP POP POP PUSH1 0x40 MLOAD RETURNDATASIZE PUSH1 0x1F NOT PUSH1 0x1F DUP3 ADD AND DUP3 ADD DUP1 PUSH1 0x40 MSTORE POP DUP2 ADD SWAP1 PUSH2 0x1255 SWAP2 SWAP1 PUSH2 0x5089 JUMP JUMPDEST PUSH2 0x1260 SWAP1 PUSH1 0xA PUSH2 0x56B4 JUMP JUMPDEST PUSH2 0x126A SWAP1 DUP7 PUSH2 0x576C JUMP JUMPDEST PUSH1 0x10 PUSH1 0x0 SWAP1 SLOAD SWAP1 PUSH2 0x100 EXP SWAP1 DIV PUSH1 0x1 PUSH1 0x1 PUSH1 0xA0 SHL SUB AND PUSH1 0x1 PUSH1 0x1 PUSH1 0xA0 SHL SUB AND PUSH4 0x313CE567 PUSH1 0x40 MLOAD DUP2 PUSH4 0xFFFFFFFF AND PUSH1 0xE0 SHL DUP2 MSTORE PUSH1 0x4 ADD PUSH1 0x20 PUSH1 0x40 MLOAD DUP1 DUP4 SUB DUP2 DUP7 DUP1 EXTCODESIZE ISZERO DUP1 ISZERO PUSH2 0x12B8 JUMPI PUSH1 0x0 DUP1 REVERT JUMPDEST POP GAS STATICCALL ISZERO DUP1 ISZERO PUSH2 0x12CC JUMPI RETURNDATASIZE PUSH1 0x0 DUP1 RETURNDATACOPY RETURNDATASIZE PUSH1 0x0 REVERT JUMPDEST POP POP POP POP PUSH1 0x40 MLOAD RETURNDATASIZE PUSH1 0x1F NOT PUSH1 0x1F DUP3 ADD AND DUP3 ADD DUP1 PUSH1 0x40 MSTORE POP DUP2 ADD SWAP1 PUSH2 0x12F0 SWAP2 SWAP1 PUSH2 0x51F5 JUMP JUMPDEST PUSH2 0x12FB SWAP1 PUSH1 0xA PUSH2 0x56C0 JUMP JUMPDEST PUSH2 0x1305 DUP9 DUP11 PUSH2 0x576C JUMP JUMPDEST PUSH2 0x130F SWAP2 SWAP1 PUSH2 0x576C JUMP JUMPDEST PUSH2 0x1319 SWAP2 SWAP1 PUSH2 0x565D JUMP JUMPDEST PUSH1 0x40 MLOAD DUP4 PUSH4 0xFFFFFFFF AND PUSH1 0xE0 SHL DUP2 MSTORE PUSH1 0x4 ADD PUSH2 0x1336 SWAP3 SWAP2 SWAP1 PUSH2 0x5331 JUMP JUMPDEST PUSH1 0x20 PUSH1 0x40 MLOAD DUP1 DUP4 SUB DUP2 PUSH1 0x0 DUP8 DUP1 EXTCODESIZE ISZERO DUP1 ISZERO PUSH2 0x1350 JUMPI PUSH1 0x0 DUP1 REVERT JUMPDEST POP GAS CALL ISZERO DUP1 ISZERO PUSH2 0x1364 JUMPI RETURNDATASIZE PUSH1 0x0 DUP1 RETURNDATACOPY RETURNDATASIZE PUSH1 0x0 REVERT JUMPDEST POP POP POP POP PUSH1 0x40 MLOAD RETURNDATASIZE PUSH1 0x1F NOT PUSH1 0x1F DUP3 ADD AND DUP3 ADD DUP1 PUSH1 0x40 MSTORE POP DUP2 ADD SWAP1 PUSH2 0x1388 SWAP2 SWAP1 PUSH2 0x4FF9 JUMP JUMPDEST POP PUSH1 0x10 SLOAD PUSH1 0x1 PUSH1 0x1 PUSH1 0xA0 SHL SUB AND PUSH4 0xA9059CBB PUSH2 0x13A2 PUSH2 0x2548 JUMP JUMPDEST PUSH1 0x12 PUSH1 0x0 SWAP1 SLOAD SWAP1 PUSH2 0x100 EXP SWAP1 DIV PUSH1 0x1 PUSH1 0x1 PUSH1 0xA0 SHL SUB AND PUSH1 0x1 PUSH1 0x1 PUSH1 0xA0 SHL SUB AND PUSH4 0x313CE567 PUSH1 0x40 MLOAD DUP2 PUSH4 0xFFFFFFFF AND PUSH1 0xE0 SHL DUP2 MSTORE PUSH1 0x4 ADD PUSH1 0x20 PUSH1 0x40 MLOAD DUP1 DUP4 SUB DUP2 DUP7 DUP1 EXTCODESIZE ISZERO DUP1 ISZERO PUSH2 0x13F0 JUMPI PUSH1 0x0 DUP1 REVERT JUMPDEST POP GAS STATICCALL ISZERO DUP1 ISZERO PUSH2 0x1404 JUMPI RETURNDATASIZE PUSH1 0x0 DUP1 RETURNDATACOPY RETURNDATASIZE PUSH1 0x0 REVERT JUMPDEST POP POP POP POP PUSH1 0x40 MLOAD RETURNDATASIZE PUSH1 0x1F NOT PUSH1 0x1F DUP3 ADD AND DUP3 ADD DUP1 PUSH1 0x40 MSTORE POP DUP2 ADD SWAP1 PUSH2 0x1428 SWAP2 SWAP1 PUSH2 0x5089 JUMP JUMPDEST PUSH2 0x1433 SWAP1 PUSH1 0xA PUSH2 0x56B4 JUMP JUMPDEST PUSH2 0x143D SWAP1 DUP7 PUSH2 0x576C JUMP JUMPDEST PUSH1 0x10 PUSH1 0x0 SWAP1 SLOAD SWAP1 PUSH2 0x100 EXP SWAP1 DIV PUSH1 0x1 PUSH1 0x1 PUSH1 0xA0 SHL SUB AND PUSH1 0x1 PUSH1 0x1 PUSH1 0xA0 SHL SUB AND PUSH4 0x313CE567 PUSH1 0x40 MLOAD DUP2 PUSH4 0xFFFFFFFF AND PUSH1 0xE0 SHL DUP2 MSTORE PUSH1 0x4 ADD PUSH1 0x20 PUSH1 0x40 MLOAD DUP1 DUP4 SUB DUP2 DUP7 DUP1 EXTCODESIZE ISZERO DUP1 ISZERO PUSH2 0x148B JUMPI PUSH1 0x0 DUP1 REVERT JUMPDEST POP GAS STATICCALL ISZERO DUP1 ISZERO PUSH2 0x149F JUMPI RETURNDATASIZE PUSH1 0x0 DUP1 RETURNDATACOPY RETURNDATASIZE PUSH1 0x0 REVERT JUMPDEST POP POP POP POP PUSH1 0x40 MLOAD RETURNDATASIZE PUSH1 0x1F NOT PUSH1 0x1F DUP3 ADD AND DUP3 ADD DUP1 PUSH1 0x40 MSTORE POP DUP2 ADD SWAP1 PUSH2 0x14C3 SWAP2 SWAP1 PUSH2 0x51F5 JUMP JUMPDEST PUSH2 0x14CE SWAP1 PUSH1 0xA PUSH2 0x56C0 JUMP JUMPDEST PUSH2 0x14D8 DUP9 DUP12 PUSH2 0x576C JUMP JUMPDEST PUSH2 0x14E2 SWAP2 SWAP1 PUSH2 0x576C JUMP JUMPDEST PUSH2 0x14EC SWAP2 SWAP1 PUSH2 0x565D JUMP JUMPDEST PUSH1 0x40 MLOAD DUP4 PUSH4 0xFFFFFFFF AND PUSH1 0xE0 SHL DUP2 MSTORE PUSH1 0x4 ADD PUSH2 0x1509 SWAP3 SWAP2 SWAP1 PUSH2 0x5331 JUMP JUMPDEST PUSH1 0x20 PUSH1 0x40 MLOAD DUP1 DUP4 SUB DUP2 PUSH1 0x0 DUP8 DUP1 EXTCODESIZE ISZERO DUP1 ISZERO PUSH2 0x1523 JUMPI PUSH1 0x0 DUP1 REVERT JUMPDEST POP GAS CALL ISZERO DUP1 ISZERO PUSH2 0x1537 JUMPI RETURNDATASIZE PUSH1 0x0 DUP1 RETURNDATACOPY RETURNDATASIZE PUSH1 0x0 REVERT JUMPDEST POP POP POP POP PUSH1 0x40 MLOAD RETURNDATASIZE PUSH1 0x1F NOT PUSH1 0x1F DUP3 ADD AND DUP3 ADD DUP1 PUSH1 0x40 MSTORE POP DUP2 ADD SWAP1 PUSH2 0x155B SWAP2 SWAP1 PUSH2 0x4FF9 JUMP JUMPDEST POP PUSH2 0x1564 PUSH2 0x2548 JUMP JUMPDEST PUSH1 0x1 PUSH1 0x1 PUSH1 0xA0 SHL SUB AND PUSH32 0xF0F0487D8990103573E0E5CF4E87E101E2A1BA84C733C556B7A5807E570E5D4C DUP7 PUSH1 0x40 MLOAD PUSH2 0x159E SWAP2 DUP2 MSTORE PUSH1 0x20 ADD SWAP1 JUMP JUMPDEST PUSH1 0x40 MLOAD DUP1 SWAP2 SUB SWAP1 LOG2 JUMPDEST CALLER PUSH1 0x1 PUSH1 0x1 PUSH1 0xA0 SHL SUB AND DUP10 PUSH32 0x89F823A0225C73A75066E963CE2EEA7708B57680EC86102773DBD244F5412892 DUP8 DUP10 DUP15 PUSH1 0x40 MLOAD PUSH2 0x15E5 SWAP4 SWAP3 SWAP2 SWAP1 PUSH2 0x55C6 JUMP JUMPDEST PUSH1 0x40 MLOAD DUP1 SWAP2 SUB SWAP1 LOG3 POP POP PUSH1 0x1 PUSH1 0x7 SSTORE POP SWAP5 SWAP8 SWAP7 POP POP POP POP POP POP POP JUMP JUMPDEST PUSH1 0x0 PUSH2 0x160C DUP3 PUSH2 0x31C8 JUMP JUMPDEST SWAP3 SWAP2 POP POP JUMP JUMPDEST PUSH1 0x60 PUSH1 0x0 DUP1 SLOAD PUSH2 0x1621 SWAP1 PUSH2 0x57E5 JUMP JUMPDEST DUP1 PUSH1 0x1F ADD PUSH1 0x20 DUP1 SWAP2 DIV MUL PUSH1 0x20 ADD PUSH1 0x40 MLOAD SWAP1 DUP2 ADD PUSH1 0x40 MSTORE DUP1 SWAP3 SWAP2 SWAP1 DUP2 DUP2 MSTORE PUSH1 0x20 ADD DUP3 DUP1 SLOAD PUSH2 0x164D SWAP1 PUSH2 0x57E5 JUMP JUMPDEST DUP1 ISZERO PUSH2 0x169A JUMPI DUP1 PUSH1 0x1F LT PUSH2 0x166F JUMPI PUSH2 0x100 DUP1 DUP4 SLOAD DIV MUL DUP4 MSTORE SWAP2 PUSH1 0x20 ADD SWAP2 PUSH2 0x169A JUMP JUMPDEST DUP3 ADD SWAP2 SWAP1 PUSH1 0x0 MSTORE PUSH1 0x20 PUSH1 0x0 KECCAK256 SWAP1 JUMPDEST DUP2 SLOAD DUP2 MSTORE SWAP1 PUSH1 0x1 ADD SWAP1 PUSH1 0x20 ADD DUP1 DUP4 GT PUSH2 0x167D JUMPI DUP3 SWAP1 SUB PUSH1 0x1F AND DUP3 ADD SWAP2 JUMPDEST POP POP POP POP POP SWAP1 POP SWAP1 JUMP JUMPDEST PUSH1 0x0 DUP1 JUMPDEST PUSH2 0x16B1 DUP4 PUSH2 0x277B JUMP JUMPDEST DUP2 LT ISZERO PUSH2 0x16E3 JUMPI PUSH2 0x16C5 PUSH2 0x6A5 DUP5 DUP4 PUSH2 0x2CF5 JUMP JUMPDEST PUSH2 0x16CF SWAP1 DUP4 PUSH2 0x5645 JUMP JUMPDEST SWAP2 POP DUP1 PUSH2 0x16DB DUP2 PUSH2 0x581A JUMP JUMPDEST SWAP2 POP POP PUSH2 0x16A8 JUMP JUMPDEST POP SWAP2 SWAP1 POP JUMP JUMPDEST PUSH1 0x0 PUSH2 0x16F4 DUP3 PUSH2 0x31ED JUMP JUMPDEST PUSH2 0x1755 JUMPI PUSH1 0x40 MLOAD PUSH3 0x461BCD PUSH1 0xE5 SHL DUP2 MSTORE PUSH1 0x20 PUSH1 0x4 DUP3 ADD MSTORE PUSH1 0x2C PUSH1 0x24 DUP3 ADD MSTORE PUSH32 0x4552433732313A20617070726F76656420717565727920666F72206E6F6E6578 PUSH1 0x44 DUP3 ADD MSTORE PUSH12 0x34B9BA32B73A103A37B5B2B7 PUSH1 0xA1 SHL PUSH1 0x64 DUP3 ADD MSTORE PUSH1 0x84 ADD PUSH2 0x7FC JUMP JUMPDEST POP PUSH1 0x0 SWAP1 DUP2 MSTORE PUSH1 0x4 PUSH1 0x20 MSTORE PUSH1 0x40 SWAP1 KECCAK256 SLOAD PUSH1 0x1 PUSH1 0x1 PUSH1 0xA0 SHL SUB AND SWAP1 JUMP JUMPDEST PUSH1 0x0 PUSH2 0x177C DUP3 PUSH2 0x201D JUMP JUMPDEST SWAP1 POP DUP1 PUSH1 0x1 PUSH1 0x1 PUSH1 0xA0 SHL SUB AND DUP4 PUSH1 0x1 PUSH1 0x1 PUSH1 0xA0 SHL SUB AND EQ ISZERO PUSH2 0x17EA JUMPI PUSH1 0x40 MLOAD PUSH3 0x461BCD PUSH1 0xE5 SHL DUP2 MSTORE PUSH1 0x20 PUSH1 0x4 DUP3 ADD MSTORE PUSH1 0x21 PUSH1 0x24 DUP3 ADD MSTORE PUSH32 0x4552433732313A20617070726F76616C20746F2063757272656E74206F776E65 PUSH1 0x44 DUP3 ADD MSTORE PUSH1 0x39 PUSH1 0xF9 SHL PUSH1 0x64 DUP3 ADD MSTORE PUSH1 0x84 ADD PUSH2 0x7FC JUMP JUMPDEST CALLER PUSH1 0x1 PUSH1 0x1 PUSH1 0xA0 SHL SUB DUP3 AND EQ DUP1 PUSH2 0x1806 JUMPI POP PUSH2 0x1806 DUP2 CALLER PUSH2 0x2D7E JUMP JUMPDEST PUSH2 0x1873 JUMPI PUSH1 0x40 MLOAD PUSH3 0x461BCD PUSH1 0xE5 SHL DUP2 MSTORE PUSH1 0x20 PUSH1 0x4 DUP3 ADD MSTORE PUSH1 0x38 PUSH1 0x24 DUP3 ADD MSTORE PUSH32 0x4552433732313A20617070726F76652063616C6C6572206973206E6F74206F77 PUSH1 0x44 DUP3 ADD MSTORE PUSH24 0x1B995C881B9BDC88185C1C1C9BDD995908199BDC88185B1B PUSH1 0x42 SHL PUSH1 0x64 DUP3 ADD MSTORE PUSH1 0x84 ADD PUSH2 0x7FC JUMP JUMPDEST PUSH2 0x187D DUP4 DUP4 PUSH2 0x320A JUMP JUMPDEST POP POP POP JUMP JUMPDEST PUSH2 0x188C CALLER DUP3 PUSH2 0x3278 JUMP JUMPDEST PUSH2 0x18A8 JUMPI PUSH1 0x40 MLOAD PUSH3 0x461BCD PUSH1 0xE5 SHL DUP2 MSTORE PUSH1 0x4 ADD PUSH2 0x7FC SWAP1 PUSH2 0x54E7 JUMP JUMPDEST PUSH2 0x187D DUP4 DUP4 DUP4 PUSH2 0x3342 JUMP JUMPDEST PUSH1 0x0 SWAP1 DUP2 MSTORE PUSH1 0x8 PUSH1 0x20 MSTORE PUSH1 0x40 SWAP1 KECCAK256 PUSH1 0x1 ADD SLOAD SWAP1 JUMP JUMPDEST PUSH1 0x0 SWAP1 DUP2 MSTORE PUSH1 0xA PUSH1 0x20 MSTORE PUSH1 0x40 SWAP1 KECCAK256 SLOAD SWAP1 JUMP JUMPDEST PUSH2 0x18E3 DUP3 PUSH2 0x18B3 JUMP JUMPDEST PUSH2 0x18ED DUP2 CALLER PUSH2 0x34DB JUMP JUMPDEST PUSH2 0x187D DUP4 DUP4 PUSH2 0x353F JUMP JUMPDEST PUSH1 0x1 PUSH1 0x1 PUSH1 0xA0 SHL SUB DUP2 AND CALLER EQ PUSH2 0x1967 JUMPI PUSH1 0x40 MLOAD PUSH3 0x461BCD PUSH1 0xE5 SHL DUP2 MSTORE PUSH1 0x20 PUSH1 0x4 DUP3 ADD MSTORE PUSH1 0x2F PUSH1 0x24 DUP3 ADD MSTORE PUSH32 0x416363657373436F6E74726F6C3A2063616E206F6E6C792072656E6F756E6365 PUSH1 0x44 DUP3 ADD MSTORE PUSH15 0x103937B632B9903337B91039B2B633 PUSH1 0x89 SHL PUSH1 0x64 DUP3 ADD MSTORE PUSH1 0x84 ADD PUSH2 0x7FC JUMP JUMPDEST PUSH2 0x1971 DUP3 DUP3 PUSH2 0x35C5 JUMP JUMPDEST POP POP JUMP JUMPDEST PUSH1 0x0 DUP2 DUP2 MSTORE PUSH1 0x14 PUSH1 0x20 MSTORE PUSH1 0x40 DUP2 KECCAK256 PUSH1 0x1 DUP2 SLOAD PUSH1 0xFF AND PUSH1 0x3 DUP2 GT ISZERO PUSH2 0x19A9 JUMPI PUSH4 0x4E487B71 PUSH1 0xE0 SHL PUSH1 0x0 MSTORE PUSH1 0x21 PUSH1 0x4 MSTORE PUSH1 0x24 PUSH1 0x0 REVERT JUMPDEST EQ PUSH2 0x19DC JUMPI PUSH1 0x40 MLOAD PUSH3 0x461BCD PUSH1 0xE5 SHL DUP2 MSTORE PUSH1 0x20 PUSH1 0x4 DUP3 ADD MSTORE PUSH1 0x3 PUSH1 0x24 DUP3 ADD MSTORE PUSH3 0x13CC4D PUSH1 0xEA SHL PUSH1 0x44 DUP3 ADD MSTORE PUSH1 0x64 ADD PUSH2 0x7FC JUMP JUMPDEST PUSH1 0x5 DUP2 ADD SLOAD PUSH1 0x0 SWAP1 DUP2 MSTORE PUSH1 0x17 PUSH1 0x20 MSTORE PUSH1 0x40 SWAP1 KECCAK256 SLOAD DUP1 PUSH2 0x1A0D JUMPI PUSH1 0x40 MLOAD PUSH3 0x461BCD PUSH1 0xE5 SHL DUP2 MSTORE PUSH1 0x4 ADD PUSH2 0x7FC SWAP1 PUSH2 0x5479 JUMP JUMPDEST PUSH1 0x12 SLOAD PUSH1 0x40 MLOAD PUSH4 0x3906D29 PUSH1 0xE1 SHL DUP2 MSTORE PUSH1 0x4 DUP2 ADD DUP4 SWAP1 MSTORE PUSH1 0x0 SWAP2 PUSH1 0x1 PUSH1 0x1 PUSH1 0xA0 SHL SUB AND SWAP1 PUSH4 0x720DA52 SWAP1 PUSH1 0x24 ADD PUSH1 0x40 DUP1 MLOAD DUP1 DUP4 SUB DUP2 DUP7 DUP1 EXTCODESIZE ISZERO DUP1 ISZERO PUSH2 0x1A51 JUMPI PUSH1 0x0 DUP1 REVERT JUMPDEST POP GAS STATICCALL ISZERO DUP1 ISZERO PUSH2 0x1A65 JUMPI RETURNDATASIZE PUSH1 0x0 DUP1 RETURNDATACOPY RETURNDATASIZE PUSH1 0x0 REVERT JUMPDEST POP POP POP POP PUSH1 0x40 MLOAD RETURNDATASIZE PUSH1 0x1F NOT PUSH1 0x1F DUP3 ADD AND DUP3 ADD DUP1 PUSH1 0x40 MSTORE POP DUP2 ADD SWAP1 PUSH2 0x1A89 SWAP2 SWAP1 PUSH2 0x5162 JUMP JUMPDEST SWAP2 POP POP PUSH1 0x2 DUP4 PUSH1 0x3 ADD SLOAD PUSH2 0x1A9D SWAP2 SWAP1 PUSH2 0x565D JUMP JUMPDEST SWAP4 POP PUSH1 0x2 PUSH1 0x6 DUP5 ADD SLOAD PUSH1 0xFF AND PUSH1 0x2 DUP2 GT ISZERO PUSH2 0x1AC8 JUMPI PUSH4 0x4E487B71 PUSH1 0xE0 SHL PUSH1 0x0 MSTORE PUSH1 0x21 PUSH1 0x4 MSTORE PUSH1 0x24 PUSH1 0x0 REVERT JUMPDEST EQ ISZERO PUSH2 0x1B42 JUMPI DUP1 DUP4 PUSH1 0x1 ADD SLOAD LT PUSH2 0x1B07 JUMPI PUSH1 0x40 MLOAD PUSH3 0x461BCD PUSH1 0xE5 SHL DUP2 MSTORE PUSH1 0x20 PUSH1 0x4 DUP3 ADD MSTORE PUSH1 0x3 PUSH1 0x24 DUP3 ADD MSTORE PUSH3 0x4F3137 PUSH1 0xE8 SHL PUSH1 0x44 DUP3 ADD MSTORE PUSH1 0x64 ADD PUSH2 0x7FC JUMP JUMPDEST DUP1 DUP4 PUSH1 0x2 ADD SLOAD DUP5 PUSH1 0x1 ADD SLOAD DUP4 PUSH2 0x1B1D SWAP2 SWAP1 PUSH2 0x578B JUMP JUMPDEST PUSH2 0x1B27 SWAP2 SWAP1 PUSH2 0x576C JUMP JUMPDEST PUSH2 0x1B31 SWAP2 SWAP1 PUSH2 0x565D JUMP JUMPDEST PUSH2 0x1B3B SWAP1 DUP6 PUSH2 0x5645 JUMP JUMPDEST SWAP4 POP PUSH2 0x1BB2 JUMP JUMPDEST DUP1 DUP4 PUSH1 0x1 ADD SLOAD GT PUSH2 0x1B7B JUMPI PUSH1 0x40 MLOAD PUSH3 0x461BCD PUSH1 0xE5 SHL DUP2 MSTORE PUSH1 0x20 PUSH1 0x4 DUP3 ADD MSTORE PUSH1 0x3 PUSH1 0x24 DUP3 ADD MSTORE PUSH3 0x9E627 PUSH1 0xEB SHL PUSH1 0x44 DUP3 ADD MSTORE PUSH1 0x64 ADD PUSH2 0x7FC JUMP JUMPDEST DUP1 DUP4 PUSH1 0x2 ADD SLOAD DUP3 DUP6 PUSH1 0x1 ADD SLOAD PUSH2 0x1B91 SWAP2 SWAP1 PUSH2 0x578B JUMP JUMPDEST PUSH2 0x1B9B SWAP2 SWAP1 PUSH2 0x576C JUMP JUMPDEST PUSH2 0x1BA5 SWAP2 SWAP1 PUSH2 0x565D JUMP JUMPDEST PUSH2 0x1BAF SWAP1 DUP6 PUSH2 0x5645 JUMP JUMPDEST SWAP4 POP JUMPDEST DUP3 PUSH1 0x3 ADD SLOAD DUP5 GT ISZERO PUSH2 0x1BC6 JUMPI DUP3 PUSH1 0x3 ADD SLOAD SWAP4 POP JUMPDEST POP POP POP SWAP2 SWAP1 POP JUMP JUMPDEST PUSH2 0x1BD7 DUP3 PUSH2 0x201D JUMP JUMPDEST PUSH1 0x1 PUSH1 0x1 PUSH1 0xA0 SHL SUB AND CALLER PUSH1 0x1 PUSH1 0x1 PUSH1 0xA0 SHL SUB AND EQ PUSH2 0x1C07 JUMPI PUSH1 0x40 MLOAD PUSH3 0x461BCD PUSH1 0xE5 SHL DUP2 MSTORE PUSH1 0x4 ADD PUSH2 0x7FC SWAP1 PUSH2 0x540B JUMP JUMPDEST PUSH2 0x187D DUP4 DUP4 DUP4 PUSH2 0x362C JUMP JUMPDEST PUSH2 0x187D DUP4 DUP4 DUP4 PUSH1 0x40 MLOAD DUP1 PUSH1 0x20 ADD PUSH1 0x40 MSTORE DUP1 PUSH1 0x0 DUP2 MSTORE POP PUSH2 0x2953 JUMP JUMPDEST PUSH2 0x1C36 DUP2 PUSH2 0x201D JUMP JUMPDEST PUSH1 0x1 PUSH1 0x1 PUSH1 0xA0 SHL SUB AND CALLER PUSH1 0x1 PUSH1 0x1 PUSH1 0xA0 SHL SUB AND EQ PUSH2 0x1C66 JUMPI PUSH1 0x40 MLOAD PUSH3 0x461BCD PUSH1 0xE5 SHL DUP2 MSTORE PUSH1 0x4 ADD PUSH2 0x7FC SWAP1 PUSH2 0x540B JUMP JUMPDEST PUSH2 0x1C6F DUP2 PUSH2 0x36F1 JUMP JUMPDEST POP JUMP JUMPDEST PUSH2 0x1C7B DUP3 PUSH2 0x1D94 JUMP JUMPDEST PUSH2 0x1CAD JUMPI PUSH1 0x40 MLOAD PUSH3 0x461BCD PUSH1 0xE5 SHL DUP2 MSTORE PUSH1 0x20 PUSH1 0x4 DUP3 ADD MSTORE PUSH1 0x3 PUSH1 0x24 DUP3 ADD MSTORE PUSH3 0x271899 PUSH1 0xE9 SHL PUSH1 0x44 DUP3 ADD MSTORE PUSH1 0x64 ADD PUSH2 0x7FC JUMP JUMPDEST PUSH1 0x0 DUP1 PUSH1 0x0 PUSH2 0x1CBC DUP7 DUP6 PUSH2 0x3709 JUMP JUMPDEST POP SWAP3 POP SWAP3 POP SWAP3 POP PUSH1 0x0 PUSH2 0x1CCE DUP7 PUSH2 0x3836 JUMP JUMPDEST SWAP1 POP PUSH2 0x1D0A DUP7 DUP3 DUP5 DUP5 PUSH1 0x60 ADD MLOAD PUSH2 0x1CE5 SWAP2 SWAP1 PUSH2 0x5645 JUMP JUMPDEST DUP8 DUP6 PUSH1 0x40 ADD MLOAD PUSH2 0x1CF5 SWAP2 SWAP1 PUSH2 0x5645 JUMP JUMPDEST DUP8 DUP7 PUSH1 0x80 ADD MLOAD PUSH2 0x1D05 SWAP2 SWAP1 PUSH2 0x5645 JUMP JUMPDEST PUSH2 0x3925 JUMP JUMPDEST PUSH1 0x15 SLOAD PUSH1 0x60 DUP3 ADD MLOAD PUSH1 0x80 DUP4 ADD MLOAD PUSH1 0x40 MLOAD PUSH4 0x57A5C967 PUSH1 0xE0 SHL DUP2 MSTORE SWAP4 SWAP5 POP PUSH1 0x1 PUSH1 0x1 PUSH1 0xA0 SHL SUB SWAP1 SWAP3 AND SWAP3 PUSH4 0x57A5C967 SWAP3 PUSH2 0x1D4A SWAP3 DUP12 SWAP3 SWAP1 SWAP2 SWAP1 PUSH1 0x4 ADD PUSH2 0x55E5 JUMP JUMPDEST PUSH1 0x0 PUSH1 0x40 MLOAD DUP1 DUP4 SUB DUP2 PUSH1 0x0 DUP8 DUP1 EXTCODESIZE ISZERO DUP1 ISZERO PUSH2 0x1D64 JUMPI PUSH1 0x0 DUP1 REVERT JUMPDEST POP GAS CALL ISZERO DUP1 ISZERO PUSH2 0x1D78 JUMPI RETURNDATASIZE PUSH1 0x0 DUP1 RETURNDATACOPY RETURNDATASIZE PUSH1 0x0 REVERT JUMPDEST POP POP POP POP PUSH2 0x1D89 DUP10 DUP10 DUP10 DUP10 DUP10 PUSH2 0x3957 JUMP JUMPDEST POP POP POP POP POP POP POP POP POP JUMP JUMPDEST PUSH1 0x0 PUSH2 0x160C DUP3 PUSH2 0x31ED JUMP JUMPDEST PUSH1 0x0 DUP2 DUP2 MSTORE PUSH1 0x14 PUSH1 0x20 MSTORE PUSH1 0x40 SWAP1 KECCAK256 PUSH1 0x5 DUP2 ADD SLOAD TIMESTAMP LT ISZERO PUSH2 0x1DD1 JUMPI PUSH1 0x40 MLOAD PUSH3 0x461BCD PUSH1 0xE5 SHL DUP2 MSTORE PUSH1 0x4 ADD PUSH2 0x7FC SWAP1 PUSH2 0x5554 JUMP JUMPDEST PUSH1 0x1 DUP2 SLOAD PUSH1 0xFF AND PUSH1 0x3 DUP2 GT ISZERO PUSH2 0x1DF7 JUMPI PUSH4 0x4E487B71 PUSH1 0xE0 SHL PUSH1 0x0 MSTORE PUSH1 0x21 PUSH1 0x4 MSTORE PUSH1 0x24 PUSH1 0x0 REVERT JUMPDEST EQ PUSH2 0x1E29 JUMPI PUSH1 0x40 MLOAD PUSH3 0x461BCD PUSH1 0xE5 SHL DUP2 MSTORE PUSH1 0x20 PUSH1 0x4 DUP3 ADD MSTORE PUSH1 0x2 PUSH1 0x24 DUP3 ADD MSTORE PUSH2 0x4F35 PUSH1 0xF0 SHL PUSH1 0x44 DUP3 ADD MSTORE PUSH1 0x64 ADD PUSH2 0x7FC JUMP JUMPDEST PUSH1 0x5 DUP2 ADD SLOAD PUSH1 0x0 SWAP1 DUP2 MSTORE PUSH1 0x17 PUSH1 0x20 MSTORE PUSH1 0x40 SWAP1 KECCAK256 SLOAD DUP1 PUSH2 0x1E5A JUMPI PUSH1 0x40 MLOAD PUSH3 0x461BCD PUSH1 0xE5 SHL DUP2 MSTORE PUSH1 0x4 ADD PUSH2 0x7FC SWAP1 PUSH2 0x5479 JUMP JUMPDEST PUSH1 0x12 SLOAD PUSH1 0x40 MLOAD PUSH4 0x3906D29 PUSH1 0xE1 SHL DUP2 MSTORE PUSH1 0x4 DUP2 ADD DUP4 SWAP1 MSTORE PUSH1 0x0 SWAP2 PUSH1 0x1 PUSH1 0x1 PUSH1 0xA0 SHL SUB AND SWAP1 PUSH4 0x720DA52 SWAP1 PUSH1 0x24 ADD PUSH1 0x40 DUP1 MLOAD DUP1 DUP4 SUB DUP2 DUP7 DUP1 EXTCODESIZE ISZERO DUP1 ISZERO PUSH2 0x1E9E JUMPI PUSH1 0x0 DUP1 REVERT JUMPDEST POP GAS STATICCALL ISZERO DUP1 ISZERO PUSH2 0x1EB2 JUMPI RETURNDATASIZE PUSH1 0x0 DUP1 RETURNDATACOPY RETURNDATASIZE PUSH1 0x0 REVERT JUMPDEST POP POP POP POP PUSH1 0x40 MLOAD RETURNDATASIZE PUSH1 0x1F NOT PUSH1 0x1F DUP3 ADD AND DUP3 ADD DUP1 PUSH1 0x40 MSTORE POP DUP2 ADD SWAP1 PUSH2 0x1ED6 SWAP2 SWAP1 PUSH2 0x5162 JUMP JUMPDEST SWAP2 POP PUSH1 0x2 SWAP1 POP PUSH1 0x6 DUP5 ADD SLOAD PUSH1 0xFF AND PUSH1 0x2 DUP2 GT ISZERO PUSH2 0x1F03 JUMPI PUSH4 0x4E487B71 PUSH1 0xE0 SHL PUSH1 0x0 MSTORE PUSH1 0x21 PUSH1 0x4 MSTORE PUSH1 0x24 PUSH1 0x0 REVERT JUMPDEST EQ DUP1 ISZERO PUSH2 0x1F13 JUMPI POP DUP3 PUSH1 0x1 ADD SLOAD DUP2 GT JUMPDEST DUP1 PUSH2 0x1F52 JUMPI POP PUSH1 0x1 PUSH1 0x6 DUP5 ADD SLOAD PUSH1 0xFF AND PUSH1 0x2 DUP2 GT ISZERO PUSH2 0x1F42 JUMPI PUSH4 0x4E487B71 PUSH1 0xE0 SHL PUSH1 0x0 MSTORE PUSH1 0x21 PUSH1 0x4 MSTORE PUSH1 0x24 PUSH1 0x0 REVERT JUMPDEST EQ DUP1 ISZERO PUSH2 0x1F52 JUMPI POP DUP3 PUSH1 0x1 ADD SLOAD DUP2 LT JUMPDEST ISZERO PUSH2 0x1F66 JUMPI PUSH2 0x1F60 DUP5 PUSH2 0x2792 JUMP JUMPDEST POP PUSH2 0x2017 JUMP JUMPDEST DUP3 SLOAD PUSH1 0xFF NOT AND PUSH1 0x3 OR DUP4 SSTORE PUSH1 0x15 SLOAD PUSH1 0x40 MLOAD PUSH4 0x6198E339 PUSH1 0xE0 SHL DUP2 MSTORE PUSH1 0x4 DUP2 ADD DUP7 SWAP1 MSTORE PUSH1 0x1 PUSH1 0x1 PUSH1 0xA0 SHL SUB SWAP1 SWAP2 AND SWAP1 PUSH4 0x6198E339 SWAP1 PUSH1 0x24 ADD PUSH1 0x0 PUSH1 0x40 MLOAD DUP1 DUP4 SUB DUP2 PUSH1 0x0 DUP8 DUP1 EXTCODESIZE ISZERO DUP1 ISZERO PUSH2 0x1FB7 JUMPI PUSH1 0x0 DUP1 REVERT JUMPDEST POP GAS CALL ISZERO DUP1 ISZERO PUSH2 0x1FCB JUMPI RETURNDATASIZE PUSH1 0x0 DUP1 RETURNDATACOPY RETURNDATASIZE PUSH1 0x0 REVERT JUMPDEST POP POP POP POP PUSH2 0x1FD8 DUP5 PUSH2 0x36F1 JUMP JUMPDEST DUP4 PUSH32 0x5F36A4A575E512EB69D6D28C3B0FF98CCA7BA50AD5BF04E14094AD1D425E0D31 DUP5 PUSH1 0x4 ADD SLOAD PUSH1 0x40 MLOAD PUSH2 0x200E SWAP2 DUP2 MSTORE PUSH1 0x20 ADD SWAP1 JUMP JUMPDEST PUSH1 0x40 MLOAD DUP1 SWAP2 SUB SWAP1 LOG2 JUMPDEST POP POP POP POP JUMP JUMPDEST PUSH1 0x0 DUP2 DUP2 MSTORE PUSH1 0x2 PUSH1 0x20 MSTORE PUSH1 0x40 DUP2 KECCAK256 SLOAD PUSH1 0x1 PUSH1 0x1 PUSH1 0xA0 SHL SUB AND DUP1 PUSH2 0x160C JUMPI PUSH1 0x40 MLOAD PUSH3 0x461BCD PUSH1 0xE5 SHL DUP2 MSTORE PUSH1 0x20 PUSH1 0x4 DUP3 ADD MSTORE PUSH1 0x29 PUSH1 0x24 DUP3 ADD MSTORE PUSH32 0x4552433732313A206F776E657220717565727920666F72206E6F6E6578697374 PUSH1 0x44 DUP3 ADD MSTORE PUSH9 0x32B73A103A37B5B2B7 PUSH1 0xB9 SHL PUSH1 0x64 DUP3 ADD MSTORE PUSH1 0x84 ADD PUSH2 0x7FC JUMP JUMPDEST PUSH1 0x60 DUP2 PUSH2 0x20C8 JUMPI PUSH1 0x40 MLOAD PUSH3 0x461BCD PUSH1 0xE5 SHL DUP2 MSTORE PUSH1 0x20 PUSH1 0x4 DUP3 ADD MSTORE PUSH1 0x2 PUSH1 0x24 DUP3 ADD MSTORE PUSH2 0x4E31 PUSH1 0xF0 SHL PUSH1 0x44 DUP3 ADD MSTORE PUSH1 0x64 ADD PUSH2 0x7FC JUMP JUMPDEST DUP2 PUSH1 0x1 PUSH1 0x1 PUSH1 0x40 SHL SUB DUP2 GT ISZERO PUSH2 0x20EE JUMPI PUSH4 0x4E487B71 PUSH1 0xE0 SHL PUSH1 0x0 MSTORE PUSH1 0x41 PUSH1 0x4 MSTORE PUSH1 0x24 PUSH1 0x0 REVERT JUMPDEST PUSH1 0x40 MLOAD SWAP1 DUP1 DUP3 MSTORE DUP1 PUSH1 0x20 MUL PUSH1 0x20 ADD DUP3 ADD PUSH1 0x40 MSTORE DUP1 ISZERO PUSH2 0x2117 JUMPI DUP2 PUSH1 0x20 ADD PUSH1 0x20 DUP3 MUL DUP1 CALLDATASIZE DUP4 CALLDATACOPY ADD SWAP1 POP JUMPDEST POP SWAP1 POP PUSH1 0x0 PUSH2 0x2125 DUP6 PUSH2 0x3836 JUMP JUMPDEST SWAP1 POP PUSH1 0x0 PUSH2 0x2132 DUP7 PUSH2 0x2B95 JUMP JUMPDEST SWAP1 POP PUSH1 0x0 DUP1 DUP1 DUP1 JUMPDEST DUP8 DUP2 LT ISZERO PUSH2 0x2345 JUMPI PUSH1 0x0 PUSH2 0x214C PUSH2 0x2F20 JUMP JUMPDEST SWAP1 POP DUP1 DUP9 DUP4 DUP2 MLOAD DUP2 LT PUSH2 0x216F JUMPI PUSH4 0x4E487B71 PUSH1 0xE0 SHL PUSH1 0x0 MSTORE PUSH1 0x32 PUSH1 0x4 MSTORE PUSH1 0x24 PUSH1 0x0 REVERT JUMPDEST PUSH1 0x20 MUL PUSH1 0x20 ADD ADD DUP2 DUP2 MSTORE POP POP PUSH2 0x21AC DUP12 DUP3 DUP13 DUP13 DUP7 DUP2 DUP2 LT PUSH2 0x21A0 JUMPI PUSH4 0x4E487B71 PUSH1 0xE0 SHL PUSH1 0x0 MSTORE PUSH1 0x32 PUSH1 0x4 MSTORE PUSH1 0x24 PUSH1 0x0 REVERT JUMPDEST SWAP1 POP PUSH1 0x20 MUL ADD CALLDATALOAD PUSH2 0x3B9D JUMP JUMPDEST PUSH1 0x0 DUP7 DUP12 DUP12 DUP6 DUP2 DUP2 LT PUSH2 0x21CF JUMPI PUSH4 0x4E487B71 PUSH1 0xE0 SHL PUSH1 0x0 MSTORE PUSH1 0x32 PUSH1 0x4 MSTORE PUSH1 0x24 PUSH1 0x0 REVERT JUMPDEST SWAP1 POP PUSH1 0x20 MUL ADD CALLDATALOAD DUP10 PUSH1 0x40 ADD MLOAD PUSH2 0x21E5 SWAP2 SWAP1 PUSH2 0x576C JUMP JUMPDEST PUSH2 0x21EF SWAP2 SWAP1 PUSH2 0x565D JUMP JUMPDEST SWAP1 POP PUSH2 0x21FB DUP2 DUP8 PUSH2 0x5645 JUMP JUMPDEST SWAP6 POP PUSH1 0x0 DUP8 DUP13 DUP13 DUP7 DUP2 DUP2 LT PUSH2 0x2220 JUMPI PUSH4 0x4E487B71 PUSH1 0xE0 SHL PUSH1 0x0 MSTORE PUSH1 0x32 PUSH1 0x4 MSTORE PUSH1 0x24 PUSH1 0x0 REVERT JUMPDEST SWAP1 POP PUSH1 0x20 MUL ADD CALLDATALOAD DUP11 PUSH1 0x60 ADD MLOAD PUSH2 0x2236 SWAP2 SWAP1 PUSH2 0x576C JUMP JUMPDEST PUSH2 0x2240 SWAP2 SWAP1 PUSH2 0x565D JUMP JUMPDEST SWAP1 POP PUSH2 0x224C DUP2 DUP8 PUSH2 0x5645 JUMP JUMPDEST SWAP6 POP PUSH1 0x0 DUP9 DUP14 DUP14 DUP8 DUP2 DUP2 LT PUSH2 0x2271 JUMPI PUSH4 0x4E487B71 PUSH1 0xE0 SHL PUSH1 0x0 MSTORE PUSH1 0x32 PUSH1 0x4 MSTORE PUSH1 0x24 PUSH1 0x0 REVERT JUMPDEST SWAP1 POP PUSH1 0x20 MUL ADD CALLDATALOAD DUP12 PUSH1 0x80 ADD MLOAD PUSH2 0x2287 SWAP2 SWAP1 PUSH2 0x576C JUMP JUMPDEST PUSH2 0x2291 SWAP2 SWAP1 PUSH2 0x565D JUMP JUMPDEST SWAP1 POP PUSH2 0x229D DUP2 DUP8 PUSH2 0x5645 JUMP JUMPDEST SWAP6 POP PUSH1 0x0 PUSH1 0x40 MLOAD DUP1 PUSH1 0xE0 ADD PUSH1 0x40 MSTORE DUP1 DUP13 PUSH1 0x0 ADD MLOAD PUSH1 0x3 DUP2 GT ISZERO PUSH2 0x22D0 JUMPI PUSH4 0x4E487B71 PUSH1 0xE0 SHL PUSH1 0x0 MSTORE PUSH1 0x21 PUSH1 0x4 MSTORE PUSH1 0x24 PUSH1 0x0 REVERT JUMPDEST DUP2 MSTORE PUSH1 0x20 ADD DUP13 PUSH1 0x20 ADD MLOAD DUP2 MSTORE PUSH1 0x20 ADD DUP6 DUP2 MSTORE PUSH1 0x20 ADD DUP5 DUP2 MSTORE PUSH1 0x20 ADD DUP4 DUP2 MSTORE PUSH1 0x20 ADD DUP13 PUSH1 0xA0 ADD MLOAD DUP2 MSTORE PUSH1 0x20 ADD DUP13 PUSH1 0xC0 ADD MLOAD PUSH1 0x2 DUP2 GT ISZERO PUSH2 0x231F JUMPI PUSH4 0x4E487B71 PUSH1 0xE0 SHL PUSH1 0x0 MSTORE PUSH1 0x21 PUSH1 0x4 MSTORE PUSH1 0x24 PUSH1 0x0 REVERT JUMPDEST SWAP1 MSTORE SWAP1 POP PUSH2 0x232D DUP6 DUP3 PUSH2 0x2F3A JUMP JUMPDEST POP POP POP POP POP DUP1 DUP1 PUSH2 0x233D SWAP1 PUSH2 0x581A JUMP JUMPDEST SWAP2 POP POP PUSH2 0x213A JUMP JUMPDEST POP PUSH2 0x237B DUP10 DUP7 DUP5 DUP9 PUSH1 0x60 ADD MLOAD PUSH2 0x235B SWAP2 SWAP1 PUSH2 0x578B JUMP JUMPDEST DUP7 DUP10 PUSH1 0x40 ADD MLOAD PUSH2 0x236B SWAP2 SWAP1 PUSH2 0x578B JUMP JUMPDEST DUP6 DUP11 PUSH1 0x80 ADD MLOAD PUSH2 0x1D05 SWAP2 SWAP1 PUSH2 0x578B JUMP JUMPDEST PUSH1 0x15 SLOAD PUSH1 0x60 DUP3 ADD MLOAD PUSH1 0x80 DUP4 ADD MLOAD PUSH1 0x40 MLOAD PUSH4 0x57A5C967 PUSH1 0xE0 SHL DUP2 MSTORE SWAP4 SWAP9 POP PUSH1 0x1 PUSH1 0x1 PUSH1 0xA0 SHL SUB SWAP1 SWAP3 AND SWAP3 PUSH4 0x57A5C967 SWAP3 PUSH2 0x23BB SWAP3 DUP15 SWAP3 SWAP1 SWAP2 SWAP1 PUSH1 0x4 ADD PUSH2 0x55E5 JUMP JUMPDEST PUSH1 0x0 PUSH1 0x40 MLOAD DUP1 DUP4 SUB DUP2 PUSH1 0x0 DUP8 DUP1 EXTCODESIZE ISZERO DUP1 ISZERO PUSH2 0x23D5 JUMPI PUSH1 0x0 DUP1 REVERT JUMPDEST POP GAS CALL ISZERO DUP1 ISZERO PUSH2 0x23E9 JUMPI RETURNDATASIZE PUSH1 0x0 DUP1 RETURNDATACOPY RETURNDATASIZE PUSH1 0x0 REVERT JUMPDEST POP POP POP POP PUSH1 0x0 JUMPDEST DUP8 DUP2 LT ISZERO PUSH2 0x2479 JUMPI PUSH1 0x0 PUSH2 0x242A DUP9 DUP4 DUP2 MLOAD DUP2 LT PUSH2 0x241D JUMPI PUSH4 0x4E487B71 PUSH1 0xE0 SHL PUSH1 0x0 MSTORE PUSH1 0x32 PUSH1 0x4 MSTORE PUSH1 0x24 PUSH1 0x0 REVERT JUMPDEST PUSH1 0x20 MUL PUSH1 0x20 ADD ADD MLOAD PUSH2 0x3836 JUMP JUMPDEST SWAP1 POP PUSH2 0x2466 DUP9 DUP4 DUP2 MLOAD DUP2 LT PUSH2 0x244F JUMPI PUSH4 0x4E487B71 PUSH1 0xE0 SHL PUSH1 0x0 MSTORE PUSH1 0x32 PUSH1 0x4 MSTORE PUSH1 0x24 PUSH1 0x0 REVERT JUMPDEST PUSH1 0x20 MUL PUSH1 0x20 ADD ADD MLOAD DUP3 PUSH1 0x60 ADD MLOAD DUP4 PUSH1 0x80 ADD MLOAD PUSH2 0x315D JUMP JUMPDEST POP DUP1 PUSH2 0x2471 DUP2 PUSH2 0x581A JUMP JUMPDEST SWAP2 POP POP PUSH2 0x23F0 JUMP JUMPDEST POP POP POP POP POP POP SWAP4 SWAP3 POP POP POP JUMP JUMPDEST PUSH1 0x0 PUSH1 0x1 PUSH1 0x1 PUSH1 0xA0 SHL SUB DUP3 AND PUSH2 0x24F1 JUMPI PUSH1 0x40 MLOAD PUSH3 0x461BCD PUSH1 0xE5 SHL DUP2 MSTORE PUSH1 0x20 PUSH1 0x4 DUP3 ADD MSTORE PUSH1 0x2A PUSH1 0x24 DUP3 ADD MSTORE PUSH32 0x4552433732313A2062616C616E636520717565727920666F7220746865207A65 PUSH1 0x44 DUP3 ADD MSTORE PUSH10 0x726F2061646472657373 PUSH1 0xB0 SHL PUSH1 0x64 DUP3 ADD MSTORE PUSH1 0x84 ADD PUSH2 0x7FC JUMP JUMPDEST POP PUSH1 0x1 PUSH1 0x1 PUSH1 0xA0 SHL SUB AND PUSH1 0x0 SWAP1 DUP2 MSTORE PUSH1 0x3 PUSH1 0x20 MSTORE PUSH1 0x40 SWAP1 KECCAK256 SLOAD SWAP1 JUMP JUMPDEST CALLER PUSH2 0x2516 PUSH2 0x2548 JUMP JUMPDEST PUSH1 0x1 PUSH1 0x1 PUSH1 0xA0 SHL SUB AND EQ PUSH2 0x253C JUMPI PUSH1 0x40 MLOAD PUSH3 0x461BCD PUSH1 0xE5 SHL DUP2 MSTORE PUSH1 0x4 ADD PUSH2 0x7FC SWAP1 PUSH2 0x54B2 JUMP JUMPDEST PUSH2 0x2546 PUSH1 0x0 PUSH2 0x3CC7 JUMP JUMPDEST JUMP JUMPDEST PUSH1 0x6 SLOAD PUSH1 0x1 PUSH1 0x1 PUSH1 0xA0 SHL SUB AND SWAP1 JUMP JUMPDEST PUSH1 0x0 DUP1 PUSH1 0x15 PUSH1 0x0 SWAP1 SLOAD SWAP1 PUSH2 0x100 EXP SWAP1 DIV PUSH1 0x1 PUSH1 0x1 PUSH1 0xA0 SHL SUB AND PUSH1 0x1 PUSH1 0x1 PUSH1 0xA0 SHL SUB AND PUSH4 0xA834069B PUSH1 0x40 MLOAD DUP2 PUSH4 0xFFFFFFFF AND PUSH1 0xE0 SHL DUP2 MSTORE PUSH1 0x4 ADD PUSH1 0x20 PUSH1 0x40 MLOAD DUP1 DUP4 SUB DUP2 DUP7 DUP1 EXTCODESIZE ISZERO DUP1 ISZERO PUSH2 0x25A8 JUMPI PUSH1 0x0 DUP1 REVERT JUMPDEST POP GAS STATICCALL ISZERO DUP1 ISZERO PUSH2 0x25BC JUMPI RETURNDATASIZE PUSH1 0x0 DUP1 RETURNDATACOPY RETURNDATASIZE PUSH1 0x0 REVERT JUMPDEST POP POP POP POP PUSH1 0x40 MLOAD RETURNDATASIZE PUSH1 0x1F NOT PUSH1 0x1F DUP3 ADD AND DUP3 ADD DUP1 PUSH1 0x40 MSTORE POP DUP2 ADD SWAP1 PUSH2 0x25E0 SWAP2 SWAP1 PUSH2 0x5089 JUMP JUMPDEST PUSH1 0x12 SLOAD PUSH1 0x40 MLOAD PUSH4 0x284506FD PUSH1 0xE1 SHL DUP2 MSTORE SWAP2 SWAP3 POP PUSH1 0x1 PUSH1 0x1 PUSH1 0xA0 SHL SUB AND SWAP1 PUSH4 0x508A0DFA SWAP1 PUSH2 0x2613 SWAP1 DUP7 SWAP1 DUP6 SWAP1 PUSH1 0x4 ADD PUSH2 0x53EA JUMP JUMPDEST PUSH1 0x20 PUSH1 0x40 MLOAD DUP1 DUP4 SUB DUP2 DUP7 DUP1 EXTCODESIZE ISZERO DUP1 ISZERO PUSH2 0x262B JUMPI PUSH1 0x0 DUP1 REVERT JUMPDEST POP GAS STATICCALL ISZERO DUP1 ISZERO PUSH2 0x263F JUMPI RETURNDATASIZE PUSH1 0x0 DUP1 RETURNDATACOPY RETURNDATASIZE PUSH1 0x0 REVERT JUMPDEST POP POP POP POP PUSH1 0x40 MLOAD RETURNDATASIZE PUSH1 0x1F NOT PUSH1 0x1F DUP3 ADD AND DUP3 ADD DUP1 PUSH1 0x40 MSTORE POP DUP2 ADD SWAP1 PUSH2 0x2663 SWAP2 SWAP1 PUSH2 0x4FF9 JUMP JUMPDEST SWAP2 POP DUP2 ISZERO PUSH2 0x16E3 JUMPI PUSH1 0x0 SWAP1 DUP2 MSTORE PUSH1 0x17 PUSH1 0x20 MSTORE PUSH1 0x40 SWAP1 KECCAK256 SWAP2 SWAP1 SWAP2 SSTORE SWAP1 JUMP JUMPDEST PUSH1 0x0 SWAP2 DUP3 MSTORE PUSH1 0x8 PUSH1 0x20 SWAP1 DUP2 MSTORE PUSH1 0x40 DUP1 DUP5 KECCAK256 PUSH1 0x1 PUSH1 0x1 PUSH1 0xA0 SHL SUB SWAP4 SWAP1 SWAP4 AND DUP5 MSTORE SWAP2 SWAP1 MSTORE SWAP1 KECCAK256 SLOAD PUSH1 0xFF AND SWAP1 JUMP JUMPDEST PUSH1 0x60 PUSH1 0x1 DUP1 SLOAD PUSH2 0x1621 SWAP1 PUSH2 0x57E5 JUMP JUMPDEST PUSH1 0x1 PUSH1 0x1 PUSH1 0xA0 SHL SUB DUP3 AND CALLER EQ ISZERO PUSH2 0x270F JUMPI PUSH1 0x40 MLOAD PUSH3 0x461BCD PUSH1 0xE5 SHL DUP2 MSTORE PUSH1 0x20 PUSH1 0x4 DUP3 ADD MSTORE PUSH1 0x19 PUSH1 0x24 DUP3 ADD MSTORE PUSH25 0x22A9219B99189D1030B8383937BB32903A379031B0B63632B9 PUSH1 0x39 SHL PUSH1 0x44 DUP3 ADD MSTORE PUSH1 0x64 ADD PUSH2 0x7FC JUMP JUMPDEST CALLER PUSH1 0x0 DUP2 DUP2 MSTORE PUSH1 0x5 PUSH1 0x20 SWAP1 DUP2 MSTORE PUSH1 0x40 DUP1 DUP4 KECCAK256 PUSH1 0x1 PUSH1 0x1 PUSH1 0xA0 SHL SUB DUP8 AND DUP1 DUP6 MSTORE SWAP1 DUP4 MSTORE SWAP3 DUP2 SWAP1 KECCAK256 DUP1 SLOAD PUSH1 0xFF NOT AND DUP7 ISZERO ISZERO SWAP1 DUP2 OR SWAP1 SWAP2 SSTORE SWAP1 MLOAD SWAP1 DUP2 MSTORE SWAP2 SWAP3 SWAP2 PUSH32 0x17307EAB39AB6107E8899845AD3D59BD9653F200F220920489CA2B5937696C31 SWAP2 ADD PUSH1 0x40 MLOAD DUP1 SWAP2 SUB SWAP1 LOG3 POP POP JUMP JUMPDEST PUSH1 0x0 DUP2 DUP2 MSTORE PUSH1 0xC PUSH1 0x20 MSTORE PUSH1 0x40 DUP2 KECCAK256 PUSH2 0x160C SWAP1 PUSH2 0x3D19 JUMP JUMPDEST PUSH1 0x0 PUSH2 0x279D DUP3 PUSH2 0x1D94 JUMP JUMPDEST PUSH2 0x27CF JUMPI PUSH1 0x40 MLOAD PUSH3 0x461BCD PUSH1 0xE5 SHL DUP2 MSTORE PUSH1 0x20 PUSH1 0x4 DUP3 ADD MSTORE PUSH1 0x3 PUSH1 0x24 DUP3 ADD MSTORE PUSH3 0x4F313 PUSH1 0xEC SHL PUSH1 0x44 DUP3 ADD MSTORE PUSH1 0x64 ADD PUSH2 0x7FC JUMP JUMPDEST PUSH1 0x15 SLOAD PUSH1 0x40 DUP1 MLOAD PUSH4 0xA834069B PUSH1 0xE0 SHL DUP2 MSTORE SWAP1 MLOAD TIMESTAMP SWAP3 PUSH1 0x1 PUSH1 0x1 PUSH1 0xA0 SHL SUB AND SWAP2 PUSH4 0xA834069B SWAP2 PUSH1 0x4 DUP1 DUP4 ADD SWAP3 PUSH1 0x20 SWAP3 SWAP2 SWAP1 DUP3 SWAP1 SUB ADD DUP2 DUP7 DUP1 EXTCODESIZE ISZERO DUP1 ISZERO PUSH2 0x2813 JUMPI PUSH1 0x0 DUP1 REVERT JUMPDEST POP GAS STATICCALL ISZERO DUP1 ISZERO PUSH2 0x2827 JUMPI RETURNDATASIZE PUSH1 0x0 DUP1 RETURNDATACOPY RETURNDATASIZE PUSH1 0x0 REVERT JUMPDEST POP POP POP POP PUSH1 0x40 MLOAD RETURNDATASIZE PUSH1 0x1F NOT PUSH1 0x1F DUP3 ADD AND DUP3 ADD DUP1 PUSH1 0x40 MSTORE POP DUP2 ADD SWAP1 PUSH2 0x284B SWAP2 SWAP1 PUSH2 0x5089 JUMP JUMPDEST GT ISZERO PUSH2 0x2869 JUMPI PUSH1 0x40 MLOAD PUSH3 0x461BCD PUSH1 0xE5 SHL DUP2 MSTORE PUSH1 0x4 ADD PUSH2 0x7FC SWAP1 PUSH2 0x5554 JUMP JUMPDEST PUSH2 0x2872 DUP3 PUSH2 0x1975 JUMP JUMPDEST PUSH1 0x15 SLOAD SWAP1 SWAP2 POP PUSH1 0x1 PUSH1 0x1 PUSH1 0xA0 SHL SUB AND PUSH4 0x81B34F15 DUP4 PUSH2 0x2890 DUP2 PUSH2 0x201D JUMP JUMPDEST PUSH1 0x40 MLOAD PUSH1 0x1 PUSH1 0x1 PUSH1 0xE0 SHL SUB NOT PUSH1 0xE0 DUP6 SWAP1 SHL AND DUP2 MSTORE PUSH1 0x4 DUP2 ADD SWAP3 SWAP1 SWAP3 MSTORE PUSH1 0x1 PUSH1 0x1 PUSH1 0xA0 SHL SUB AND PUSH1 0x24 DUP3 ADD MSTORE PUSH1 0x44 DUP2 ADD DUP5 SWAP1 MSTORE PUSH1 0x64 ADD PUSH1 0x0 PUSH1 0x40 MLOAD DUP1 DUP4 SUB DUP2 PUSH1 0x0 DUP8 DUP1 EXTCODESIZE ISZERO DUP1 ISZERO PUSH2 0x28DE JUMPI PUSH1 0x0 DUP1 REVERT JUMPDEST POP GAS CALL ISZERO DUP1 ISZERO PUSH2 0x28F2 JUMPI RETURNDATASIZE PUSH1 0x0 DUP1 RETURNDATACOPY RETURNDATASIZE PUSH1 0x0 REVERT JUMPDEST POP POP POP POP PUSH2 0x28FF DUP3 PUSH2 0x36F1 JUMP JUMPDEST PUSH1 0x0 DUP3 DUP2 MSTORE PUSH1 0x14 PUSH1 0x20 SWAP1 DUP2 MSTORE PUSH1 0x40 SWAP2 DUP3 SWAP1 KECCAK256 DUP1 SLOAD PUSH1 0xFF NOT AND PUSH1 0x2 OR DUP2 SSTORE SWAP2 MLOAD DUP4 DUP2 MSTORE DUP5 SWAP2 PUSH31 0x84FE51C7CB34B132B7B6EB5D5A87A489F8D6D284758D00A0402C1BAD9A0DEF SWAP2 ADD PUSH1 0x40 MLOAD DUP1 SWAP2 SUB SWAP1 LOG2 POP SWAP2 SWAP1 POP JUMP JUMPDEST PUSH2 0x295E CALLER JUMPDEST DUP4 PUSH2 0x3278 JUMP JUMPDEST PUSH2 0x297A JUMPI PUSH1 0x40 MLOAD PUSH3 0x461BCD PUSH1 0xE5 SHL DUP2 MSTORE PUSH1 0x4 ADD PUSH2 0x7FC SWAP1 PUSH2 0x54E7 JUMP JUMPDEST PUSH2 0x2017 DUP5 DUP5 DUP5 DUP5 PUSH2 0x3D23 JUMP JUMPDEST DUP2 PUSH2 0x29B8 JUMPI PUSH1 0x40 MLOAD PUSH3 0x461BCD PUSH1 0xE5 SHL DUP2 MSTORE PUSH1 0x20 PUSH1 0x4 DUP3 ADD MSTORE PUSH1 0x2 PUSH1 0x24 DUP3 ADD MSTORE PUSH2 0x138D PUSH1 0xF2 SHL PUSH1 0x44 DUP3 ADD MSTORE PUSH1 0x64 ADD PUSH2 0x7FC JUMP JUMPDEST PUSH1 0x0 PUSH2 0x29C3 DUP3 PUSH2 0x3836 JUMP JUMPDEST PUSH1 0x60 DUP2 ADD MLOAD PUSH1 0x40 DUP3 ADD MLOAD PUSH1 0x80 DUP4 ADD MLOAD SWAP3 SWAP4 POP SWAP1 SWAP2 PUSH1 0x0 JUMPDEST DUP7 DUP2 LT ISZERO PUSH2 0x2B17 JUMPI PUSH1 0x0 PUSH2 0x2A13 DUP10 DUP10 DUP5 DUP2 DUP2 LT PUSH2 0x2A07 JUMPI PUSH4 0x4E487B71 PUSH1 0xE0 SHL PUSH1 0x0 MSTORE PUSH1 0x32 PUSH1 0x4 MSTORE PUSH1 0x24 PUSH1 0x0 REVERT JUMPDEST SWAP1 POP PUSH1 0x20 MUL ADD CALLDATALOAD PUSH2 0x3836 JUMP JUMPDEST SWAP1 POP DUP1 PUSH1 0x60 ADD MLOAD DUP6 PUSH2 0x2A25 SWAP2 SWAP1 PUSH2 0x5645 JUMP JUMPDEST SWAP5 POP DUP1 PUSH1 0x40 ADD MLOAD DUP5 PUSH2 0x2A37 SWAP2 SWAP1 PUSH2 0x5645 JUMP JUMPDEST SWAP4 POP DUP1 PUSH1 0x80 ADD MLOAD DUP4 PUSH2 0x2A49 SWAP2 SWAP1 PUSH2 0x5645 JUMP JUMPDEST PUSH1 0x15 SLOAD SWAP1 SWAP4 POP PUSH1 0x1 PUSH1 0x1 PUSH1 0xA0 SHL SUB AND PUSH4 0xDBF21B0 DUP11 DUP11 DUP6 DUP2 DUP2 LT PUSH2 0x2A7D JUMPI PUSH4 0x4E487B71 PUSH1 0xE0 SHL PUSH1 0x0 MSTORE PUSH1 0x32 PUSH1 0x4 MSTORE PUSH1 0x24 PUSH1 0x0 REVERT JUMPDEST SWAP1 POP PUSH1 0x20 MUL ADD CALLDATALOAD PUSH1 0x40 MLOAD DUP3 PUSH4 0xFFFFFFFF AND PUSH1 0xE0 SHL DUP2 MSTORE PUSH1 0x4 ADD PUSH2 0x2AA2 SWAP2 DUP2 MSTORE PUSH1 0x20 ADD SWAP1 JUMP JUMPDEST PUSH1 0x0 PUSH1 0x40 MLOAD DUP1 DUP4 SUB DUP2 PUSH1 0x0 DUP8 DUP1 EXTCODESIZE ISZERO DUP1 ISZERO PUSH2 0x2ABC JUMPI PUSH1 0x0 DUP1 REVERT JUMPDEST POP GAS CALL ISZERO DUP1 ISZERO PUSH2 0x2AD0 JUMPI RETURNDATASIZE PUSH1 0x0 DUP1 RETURNDATACOPY RETURNDATASIZE PUSH1 0x0 REVERT JUMPDEST POP POP POP POP PUSH2 0x2B04 DUP10 DUP10 DUP5 DUP2 DUP2 LT PUSH2 0x2AF7 JUMPI PUSH4 0x4E487B71 PUSH1 0xE0 SHL PUSH1 0x0 MSTORE PUSH1 0x32 PUSH1 0x4 MSTORE PUSH1 0x24 PUSH1 0x0 REVERT JUMPDEST SWAP1 POP PUSH1 0x20 MUL ADD CALLDATALOAD DUP9 PUSH2 0x3D56 JUMP JUMPDEST POP DUP1 PUSH2 0x2B0F DUP2 PUSH2 0x581A JUMP JUMPDEST SWAP2 POP POP PUSH2 0x29DA JUMP JUMPDEST POP PUSH2 0x2B25 DUP6 DUP6 DUP6 DUP6 DUP6 PUSH2 0x3925 JUMP JUMPDEST POP PUSH1 0x15 SLOAD PUSH1 0x40 MLOAD PUSH4 0x57A5C967 PUSH1 0xE0 SHL DUP2 MSTORE PUSH1 0x1 PUSH1 0x1 PUSH1 0xA0 SHL SUB SWAP1 SWAP2 AND SWAP1 PUSH4 0x57A5C967 SWAP1 PUSH2 0x2B5A SWAP1 DUP9 SWAP1 DUP8 SWAP1 DUP7 SWAP1 PUSH1 0x4 ADD PUSH2 0x55E5 JUMP JUMPDEST PUSH1 0x0 PUSH1 0x40 MLOAD DUP1 DUP4 SUB DUP2 PUSH1 0x0 DUP8 DUP1 EXTCODESIZE ISZERO DUP1 ISZERO PUSH2 0x2B74 JUMPI PUSH1 0x0 DUP1 REVERT JUMPDEST POP GAS CALL ISZERO DUP1 ISZERO PUSH2 0x2B88 JUMPI RETURNDATASIZE PUSH1 0x0 DUP1 RETURNDATACOPY RETURNDATASIZE PUSH1 0x0 REVERT JUMPDEST POP POP POP POP POP POP POP POP POP POP POP JUMP JUMPDEST PUSH1 0x0 SWAP1 DUP2 MSTORE PUSH1 0xF PUSH1 0x20 MSTORE PUSH1 0x40 SWAP1 KECCAK256 SLOAD SWAP1 JUMP JUMPDEST PUSH1 0x0 DUP1 PUSH1 0x0 DUP1 PUSH1 0x12 PUSH1 0x0 SWAP1 SLOAD SWAP1 PUSH2 0x100 EXP SWAP1 DIV PUSH1 0x1 PUSH1 0x1 PUSH1 0xA0 SHL SUB AND PUSH1 0x1 PUSH1 0x1 PUSH1 0xA0 SHL SUB AND PUSH4 0x1ACF5582 PUSH1 0x40 MLOAD DUP2 PUSH4 0xFFFFFFFF AND PUSH1 0xE0 SHL DUP2 MSTORE PUSH1 0x4 ADD PUSH1 0x20 PUSH1 0x40 MLOAD DUP1 DUP4 SUB DUP2 DUP7 DUP1 EXTCODESIZE ISZERO DUP1 ISZERO PUSH2 0x2BFB JUMPI PUSH1 0x0 DUP1 REVERT JUMPDEST POP GAS STATICCALL ISZERO DUP1 ISZERO PUSH2 0x2C0F JUMPI RETURNDATASIZE PUSH1 0x0 DUP1 RETURNDATACOPY RETURNDATASIZE PUSH1 0x0 REVERT JUMPDEST POP POP POP POP PUSH1 0x40 MLOAD RETURNDATASIZE PUSH1 0x1F NOT PUSH1 0x1F DUP3 ADD AND DUP3 ADD DUP1 PUSH1 0x40 MSTORE POP DUP2 ADD SWAP1 PUSH2 0x2C33 SWAP2 SWAP1 PUSH2 0x5089 JUMP JUMPDEST PUSH1 0x16 SLOAD PUSH1 0x15 SLOAD PUSH1 0x40 MLOAD PUSH4 0xA5C82875 PUSH1 0xE0 SHL DUP2 MSTORE SWAP3 SWAP4 POP PUSH20 0x0 SWAP3 PUSH4 0xA5C82875 SWAP3 PUSH2 0x2C89 SWAP3 DUP14 SWAP3 DUP14 SWAP3 DUP14 SWAP3 DUP14 SWAP3 DUP11 SWAP3 PUSH1 0x1 PUSH1 0x1 PUSH1 0xA0 SHL SUB SWAP1 DUP2 AND SWAP3 AND SWAP1 PUSH1 0x4 ADD PUSH2 0x55FB JUMP JUMPDEST PUSH1 0x60 PUSH1 0x40 MLOAD DUP1 DUP4 SUB DUP2 DUP7 DUP1 EXTCODESIZE ISZERO DUP1 ISZERO PUSH2 0x2CA1 JUMPI PUSH1 0x0 DUP1 REVERT JUMPDEST POP GAS DELEGATECALL ISZERO DUP1 ISZERO PUSH2 0x2CB5 JUMPI RETURNDATASIZE PUSH1 0x0 DUP1 RETURNDATACOPY RETURNDATASIZE PUSH1 0x0 REVERT JUMPDEST POP POP POP POP PUSH1 0x40 MLOAD RETURNDATASIZE PUSH1 0x1F NOT PUSH1 0x1F DUP3 ADD AND DUP3 ADD DUP1 PUSH1 0x40 MSTORE POP DUP2 ADD SWAP1 PUSH2 0x2CD9 SWAP2 SWAP1 PUSH2 0x5185 JUMP JUMPDEST SWAP2 SWAP11 SWAP1 SWAP10 POP SWAP1 SWAP8 POP SWAP6 POP POP POP POP POP POP JUMP JUMPDEST PUSH1 0x60 PUSH2 0x160C DUP3 PUSH2 0x3ED2 JUMP JUMPDEST PUSH1 0x0 DUP3 DUP2 MSTORE PUSH1 0xC PUSH1 0x20 MSTORE PUSH1 0x40 DUP2 KECCAK256 PUSH2 0x2D0D SWAP1 DUP4 PUSH2 0x4034 JUMP JUMPDEST SWAP4 SWAP3 POP POP POP JUMP JUMPDEST PUSH2 0x2D1D DUP3 PUSH2 0x18B3 JUMP JUMPDEST PUSH2 0x2D27 DUP2 CALLER PUSH2 0x34DB JUMP JUMPDEST PUSH2 0x187D DUP4 DUP4 PUSH2 0x35C5 JUMP JUMPDEST DUP1 PUSH1 0x0 JUMPDEST DUP2 DUP2 LT ISZERO PUSH2 0x2017 JUMPI PUSH2 0x2D6C DUP5 DUP5 DUP4 DUP2 DUP2 LT PUSH2 0x2D60 JUMPI PUSH4 0x4E487B71 PUSH1 0xE0 SHL PUSH1 0x0 MSTORE PUSH1 0x32 PUSH1 0x4 MSTORE PUSH1 0x24 PUSH1 0x0 REVERT JUMPDEST SWAP1 POP PUSH1 0x20 MUL ADD CALLDATALOAD PUSH2 0x1D9F JUMP JUMPDEST DUP1 PUSH2 0x2D76 DUP2 PUSH2 0x581A JUMP JUMPDEST SWAP2 POP POP PUSH2 0x2D35 JUMP JUMPDEST PUSH1 0x1 PUSH1 0x1 PUSH1 0xA0 SHL SUB SWAP2 DUP3 AND PUSH1 0x0 SWAP1 DUP2 MSTORE PUSH1 0x5 PUSH1 0x20 SWAP1 DUP2 MSTORE PUSH1 0x40 DUP1 DUP4 KECCAK256 SWAP4 SWAP1 SWAP5 AND DUP3 MSTORE SWAP2 SWAP1 SWAP2 MSTORE KECCAK256 SLOAD PUSH1 0xFF AND SWAP1 JUMP JUMPDEST CALLER PUSH2 0x2DB5 PUSH2 0x2548 JUMP JUMPDEST PUSH1 0x1 PUSH1 0x1 PUSH1 0xA0 SHL SUB AND EQ PUSH2 0x2DDB JUMPI PUSH1 0x40 MLOAD PUSH3 0x461BCD PUSH1 0xE5 SHL DUP2 MSTORE PUSH1 0x4 ADD PUSH2 0x7FC SWAP1 PUSH2 0x54B2 JUMP JUMPDEST PUSH1 0x1 PUSH1 0x1 PUSH1 0xA0 SHL SUB DUP2 AND PUSH2 0x2E40 JUMPI PUSH1 0x40 MLOAD PUSH3 0x461BCD PUSH1 0xE5 SHL DUP2 MSTORE PUSH1 0x20 PUSH1 0x4 DUP3 ADD MSTORE PUSH1 0x26 PUSH1 0x24 DUP3 ADD MSTORE PUSH32 0x4F776E61626C653A206E6577206F776E657220697320746865207A65726F2061 PUSH1 0x44 DUP3 ADD MSTORE PUSH6 0x646472657373 PUSH1 0xD0 SHL PUSH1 0x64 DUP3 ADD MSTORE PUSH1 0x84 ADD PUSH2 0x7FC JUMP JUMPDEST PUSH2 0x1C6F DUP2 PUSH2 0x3CC7 JUMP JUMPDEST PUSH1 0x0 PUSH2 0x2E53 PUSH2 0x2F20 JUMP JUMPDEST SWAP1 POP PUSH1 0x0 DUP1 PUSH1 0x0 DUP1 PUSH2 0x2E65 DUP8 DUP8 PUSH2 0x3709 JUMP JUMPDEST SWAP4 POP SWAP4 POP SWAP4 POP SWAP4 POP PUSH1 0x0 PUSH1 0x40 MLOAD DUP1 PUSH1 0xE0 ADD PUSH1 0x40 MSTORE DUP1 DUP4 PUSH1 0x0 ADD MLOAD PUSH1 0x3 DUP2 GT ISZERO PUSH2 0x2E9E JUMPI PUSH4 0x4E487B71 PUSH1 0xE0 SHL PUSH1 0x0 MSTORE PUSH1 0x21 PUSH1 0x4 MSTORE PUSH1 0x24 PUSH1 0x0 REVERT JUMPDEST DUP2 MSTORE PUSH1 0x20 ADD DUP4 PUSH1 0x20 ADD MLOAD DUP2 MSTORE PUSH1 0x20 ADD DUP7 DUP2 MSTORE PUSH1 0x20 ADD DUP5 DUP2 MSTORE PUSH1 0x20 ADD DUP6 DUP2 MSTORE PUSH1 0x20 ADD DUP4 PUSH1 0xA0 ADD MLOAD DUP2 MSTORE PUSH1 0x20 ADD DUP4 PUSH1 0xC0 ADD MLOAD PUSH1 0x2 DUP2 GT ISZERO PUSH2 0x2EED JUMPI PUSH4 0x4E487B71 PUSH1 0xE0 SHL PUSH1 0x0 MSTORE PUSH1 0x21 PUSH1 0x4 MSTORE PUSH1 0x24 PUSH1 0x0 REVERT JUMPDEST SWAP1 MSTORE SWAP1 POP PUSH2 0x2EFB DUP7 DUP3 PUSH2 0x2F3A JUMP JUMPDEST PUSH2 0x2F06 DUP7 DUP5 DUP7 PUSH2 0x315D JUMP JUMPDEST PUSH2 0x2F13 DUP11 DUP11 DUP11 DUP10 DUP12 PUSH2 0x3957 JUMP JUMPDEST POP POP POP POP POP SWAP5 SWAP4 POP POP POP POP JUMP JUMPDEST PUSH1 0x13 DUP1 SLOAD PUSH1 0x0 SWAP2 DUP3 PUSH2 0x2F31 DUP4 PUSH2 0x581A JUMP JUMPDEST SWAP2 SWAP1 POP SSTORE SWAP1 POP SWAP1 JUMP JUMPDEST PUSH1 0x0 DUP3 DUP2 MSTORE PUSH1 0x14 PUSH1 0x20 MSTORE PUSH1 0x40 SWAP1 KECCAK256 DUP2 MLOAD DUP2 SLOAD DUP4 SWAP3 SWAP2 SWAP1 DUP3 SWAP1 PUSH1 0xFF NOT AND PUSH1 0x1 DUP4 PUSH1 0x3 DUP2 GT ISZERO PUSH2 0x2F78 JUMPI PUSH4 0x4E487B71 PUSH1 0xE0 SHL PUSH1 0x0 MSTORE PUSH1 0x21 PUSH1 0x4 MSTORE PUSH1 0x24 PUSH1 0x0 REVERT JUMPDEST MUL OR SWAP1 SSTORE POP PUSH1 0x20 DUP3 ADD MLOAD DUP2 PUSH1 0x1 ADD SSTORE PUSH1 0x40 DUP3 ADD MLOAD DUP2 PUSH1 0x2 ADD SSTORE PUSH1 0x60 DUP3 ADD MLOAD DUP2 PUSH1 0x3 ADD SSTORE PUSH1 0x80 DUP3 ADD MLOAD DUP2 PUSH1 0x4 ADD SSTORE PUSH1 0xA0 DUP3 ADD MLOAD DUP2 PUSH1 0x5 ADD SSTORE PUSH1 0xC0 DUP3 ADD MLOAD DUP2 PUSH1 0x6 ADD PUSH1 0x0 PUSH2 0x100 EXP DUP2 SLOAD DUP2 PUSH1 0xFF MUL NOT AND SWAP1 DUP4 PUSH1 0x2 DUP2 GT ISZERO PUSH2 0x2FE7 JUMPI PUSH4 0x4E487B71 PUSH1 0xE0 SHL PUSH1 0x0 MSTORE PUSH1 0x21 PUSH1 0x4 MSTORE PUSH1 0x24 PUSH1 0x0 REVERT JUMPDEST MUL OR SWAP1 SSTORE POP POP POP POP POP JUMP JUMPDEST PUSH1 0x0 DUP4 DUP4 DUP4 DUP8 PUSH1 0x40 MLOAD PUSH1 0x20 ADD PUSH2 0x300B SWAP5 SWAP4 SWAP3 SWAP2 SWAP1 PUSH2 0x559C JUMP JUMPDEST PUSH1 0x40 DUP1 MLOAD DUP1 DUP4 SUB PUSH1 0x1F NOT ADD DUP2 MSTORE SWAP2 DUP2 MSTORE DUP2 MLOAD PUSH1 0x20 SWAP3 DUP4 ADD KECCAK256 PUSH1 0x0 DUP2 DUP2 MSTORE PUSH1 0x18 SWAP1 SWAP4 MSTORE SWAP2 KECCAK256 PUSH1 0x2 ADD SLOAD SWAP1 SWAP2 POP PUSH2 0x100 SWAP1 DIV PUSH1 0xFF AND ISZERO PUSH2 0x3071 JUMPI PUSH1 0x40 MLOAD PUSH3 0x461BCD PUSH1 0xE5 SHL DUP2 MSTORE PUSH1 0x20 PUSH1 0x4 DUP3 ADD MSTORE PUSH1 0x3 PUSH1 0x24 DUP3 ADD MSTORE PUSH3 0x138C4D PUSH1 0xEA SHL PUSH1 0x44 DUP3 ADD MSTORE PUSH1 0x64 ADD PUSH2 0x7FC JUMP JUMPDEST PUSH1 0x40 MLOAD DUP1 PUSH1 0x80 ADD PUSH1 0x40 MSTORE DUP1 DUP6 DUP2 MSTORE PUSH1 0x20 ADD DUP5 DUP2 MSTORE PUSH1 0x20 ADD DUP4 PUSH1 0x2 DUP2 GT ISZERO PUSH2 0x30A8 JUMPI PUSH4 0x4E487B71 PUSH1 0xE0 SHL PUSH1 0x0 MSTORE PUSH1 0x21 PUSH1 0x4 MSTORE PUSH1 0x24 PUSH1 0x0 REVERT JUMPDEST DUP2 MSTORE PUSH1 0x1 PUSH1 0x20 SWAP2 DUP3 ADD DUP2 SWAP1 MSTORE PUSH1 0x0 DUP5 DUP2 MSTORE PUSH1 0x18 DUP4 MSTORE PUSH1 0x40 SWAP1 DUP2 SWAP1 KECCAK256 DUP5 MLOAD DUP2 SSTORE SWAP3 DUP5 ADD MLOAD DUP4 DUP4 ADD SSTORE DUP4 ADD MLOAD PUSH1 0x2 DUP1 DUP5 ADD DUP1 SLOAD SWAP3 SWAP4 SWAP1 SWAP3 PUSH1 0xFF NOT AND SWAP2 DUP5 SWAP1 DUP2 GT ISZERO PUSH2 0x3101 JUMPI PUSH4 0x4E487B71 PUSH1 0xE0 SHL PUSH1 0x0 MSTORE PUSH1 0x21 PUSH1 0x4 MSTORE PUSH1 0x24 PUSH1 0x0 REVERT JUMPDEST MUL OR SWAP1 SSTORE POP PUSH1 0x60 SWAP2 SWAP1 SWAP2 ADD MLOAD PUSH1 0x2 SWAP1 SWAP2 ADD DUP1 SLOAD SWAP2 ISZERO ISZERO PUSH2 0x100 MUL PUSH2 0xFF00 NOT SWAP1 SWAP3 AND SWAP2 SWAP1 SWAP2 OR SWAP1 SSTORE SWAP5 SWAP4 POP POP POP POP JUMP JUMPDEST PUSH1 0x0 DUP4 DUP2 MSTORE PUSH1 0xA PUSH1 0x20 MSTORE PUSH1 0x40 SWAP1 KECCAK256 DUP2 SWAP1 SSTORE PUSH1 0xD SLOAD PUSH2 0x187D SWAP1 DUP4 SWAP1 DUP6 SWAP1 DUP5 SWAP1 PUSH2 0x4040 JUMP JUMPDEST PUSH2 0x1971 DUP3 DUP3 PUSH2 0x40CA JUMP JUMPDEST PUSH1 0x15 SLOAD PUSH1 0x40 MLOAD PUSH4 0xEDD0D421 PUSH1 0xE0 SHL DUP2 MSTORE PUSH1 0x1 PUSH1 0x1 PUSH1 0xA0 SHL SUB SWAP1 SWAP2 AND SWAP1 PUSH4 0xEDD0D421 SWAP1 PUSH2 0x3191 SWAP1 DUP7 SWAP1 DUP7 SWAP1 DUP7 SWAP1 PUSH1 0x4 ADD PUSH2 0x55E5 JUMP JUMPDEST PUSH1 0x0 PUSH1 0x40 MLOAD DUP1 DUP4 SUB DUP2 PUSH1 0x0 DUP8 DUP1 EXTCODESIZE ISZERO DUP1 ISZERO PUSH2 0x31AB JUMPI PUSH1 0x0 DUP1 REVERT JUMPDEST POP GAS CALL ISZERO DUP1 ISZERO PUSH2 0x31BF JUMPI RETURNDATASIZE PUSH1 0x0 DUP1 RETURNDATACOPY RETURNDATASIZE PUSH1 0x0 REVERT JUMPDEST POP POP POP POP POP POP POP JUMP JUMPDEST PUSH1 0x0 PUSH1 0x1 PUSH1 0x1 PUSH1 0xE0 SHL SUB NOT DUP3 AND PUSH4 0x7965DB0B PUSH1 0xE0 SHL EQ DUP1 PUSH2 0x160C JUMPI POP PUSH2 0x160C DUP3 PUSH2 0x4155 JUMP JUMPDEST PUSH1 0x0 SWAP1 DUP2 MSTORE PUSH1 0x2 PUSH1 0x20 MSTORE PUSH1 0x40 SWAP1 KECCAK256 SLOAD PUSH1 0x1 PUSH1 0x1 PUSH1 0xA0 SHL SUB AND ISZERO ISZERO SWAP1 JUMP JUMPDEST PUSH1 0x0 DUP2 DUP2 MSTORE PUSH1 0x4 PUSH1 0x20 MSTORE PUSH1 0x40 SWAP1 KECCAK256 DUP1 SLOAD PUSH1 0x1 PUSH1 0x1 PUSH1 0xA0 SHL SUB NOT AND PUSH1 0x1 PUSH1 0x1 PUSH1 0xA0 SHL SUB DUP5 AND SWAP1 DUP2 OR SWAP1 SWAP2 SSTORE DUP2 SWAP1 PUSH2 0x323F DUP3 PUSH2 0x201D JUMP JUMPDEST PUSH1 0x1 PUSH1 0x1 PUSH1 0xA0 SHL SUB AND PUSH32 0x8C5BE1E5EBEC7D5BD14F71427D1E84F3DD0314C0F7B2291E5B200AC8C7C3B925 PUSH1 0x40 MLOAD PUSH1 0x40 MLOAD DUP1 SWAP2 SUB SWAP1 LOG4 POP POP JUMP JUMPDEST PUSH1 0x0 PUSH2 0x3283 DUP3 PUSH2 0x31ED JUMP JUMPDEST PUSH2 0x32E4 JUMPI PUSH1 0x40 MLOAD PUSH3 0x461BCD PUSH1 0xE5 SHL DUP2 MSTORE PUSH1 0x20 PUSH1 0x4 DUP3 ADD MSTORE PUSH1 0x2C PUSH1 0x24 DUP3 ADD MSTORE PUSH32 0x4552433732313A206F70657261746F7220717565727920666F72206E6F6E6578 PUSH1 0x44 DUP3 ADD MSTORE PUSH12 0x34B9BA32B73A103A37B5B2B7 PUSH1 0xA1 SHL PUSH1 0x64 DUP3 ADD MSTORE PUSH1 0x84 ADD PUSH2 0x7FC JUMP JUMPDEST PUSH1 0x0 PUSH2 0x32EF DUP4 PUSH2 0x201D JUMP JUMPDEST SWAP1 POP DUP1 PUSH1 0x1 PUSH1 0x1 PUSH1 0xA0 SHL SUB AND DUP5 PUSH1 0x1 PUSH1 0x1 PUSH1 0xA0 SHL SUB AND EQ DUP1 PUSH2 0x332A JUMPI POP DUP4 PUSH1 0x1 PUSH1 0x1 PUSH1 0xA0 SHL SUB AND PUSH2 0x331F DUP5 PUSH2 0x16E9 JUMP JUMPDEST PUSH1 0x1 PUSH1 0x1 PUSH1 0xA0 SHL SUB AND EQ JUMPDEST DUP1 PUSH2 0x333A JUMPI POP PUSH2 0x333A DUP2 DUP6 PUSH2 0x2D7E JUMP JUMPDEST SWAP5 SWAP4 POP POP POP POP JUMP JUMPDEST DUP3 PUSH1 0x1 PUSH1 0x1 PUSH1 0xA0 SHL SUB AND PUSH2 0x3355 DUP3 PUSH2 0x201D JUMP JUMPDEST PUSH1 0x1 PUSH1 0x1 PUSH1 0xA0 SHL SUB AND EQ PUSH2 0x33BD JUMPI PUSH1 0x40 MLOAD PUSH3 0x461BCD PUSH1 0xE5 SHL DUP2 MSTORE PUSH1 0x20 PUSH1 0x4 DUP3 ADD MSTORE PUSH1 0x29 PUSH1 0x24 DUP3 ADD MSTORE PUSH32 0x4552433732313A207472616E73666572206F6620746F6B656E20746861742069 PUSH1 0x44 DUP3 ADD MSTORE PUSH9 0x39903737BA1037BBB7 PUSH1 0xB9 SHL PUSH1 0x64 DUP3 ADD MSTORE PUSH1 0x84 ADD PUSH2 0x7FC JUMP JUMPDEST PUSH1 0x1 PUSH1 0x1 PUSH1 0xA0 SHL SUB DUP3 AND PUSH2 0x341F JUMPI PUSH1 0x40 MLOAD PUSH3 0x461BCD PUSH1 0xE5 SHL DUP2 MSTORE PUSH1 0x20 PUSH1 0x4 DUP3 ADD MSTORE PUSH1 0x24 DUP1 DUP3 ADD MSTORE PUSH32 0x4552433732313A207472616E7366657220746F20746865207A65726F20616464 PUSH1 0x44 DUP3 ADD MSTORE PUSH4 0x72657373 PUSH1 0xE0 SHL PUSH1 0x64 DUP3 ADD MSTORE PUSH1 0x84 ADD PUSH2 0x7FC JUMP JUMPDEST PUSH2 0x342A DUP4 DUP4 DUP4 PUSH2 0x41A5 JUMP JUMPDEST PUSH2 0x3435 PUSH1 0x0 DUP3 PUSH2 0x320A JUMP JUMPDEST PUSH1 0x1 PUSH1 0x1 PUSH1 0xA0 SHL SUB DUP4 AND PUSH1 0x0 SWAP1 DUP2 MSTORE PUSH1 0x3 PUSH1 0x20 MSTORE PUSH1 0x40 DUP2 KECCAK256 DUP1 SLOAD PUSH1 0x1 SWAP3 SWAP1 PUSH2 0x345E SWAP1 DUP5 SWAP1 PUSH2 0x578B JUMP JUMPDEST SWAP1 SWAP2 SSTORE POP POP PUSH1 0x1 PUSH1 0x1 PUSH1 0xA0 SHL SUB DUP3 AND PUSH1 0x0 SWAP1 DUP2 MSTORE PUSH1 0x3 PUSH1 0x20 MSTORE PUSH1 0x40 DUP2 KECCAK256 DUP1 SLOAD PUSH1 0x1 SWAP3 SWAP1 PUSH2 0x348C SWAP1 DUP5 SWAP1 PUSH2 0x5645 JUMP JUMPDEST SWAP1 SWAP2 SSTORE POP POP PUSH1 0x0 DUP2 DUP2 MSTORE PUSH1 0x2 PUSH1 0x20 MSTORE PUSH1 0x40 DUP1 DUP3 KECCAK256 DUP1 SLOAD PUSH1 0x1 PUSH1 0x1 PUSH1 0xA0 SHL SUB NOT AND PUSH1 0x1 PUSH1 0x1 PUSH1 0xA0 SHL SUB DUP7 DUP2 AND SWAP2 DUP3 OR SWAP1 SWAP3 SSTORE SWAP2 MLOAD DUP5 SWAP4 SWAP2 DUP8 AND SWAP2 PUSH1 0x0 DUP1 MLOAD PUSH1 0x20 PUSH2 0x58FD DUP4 CODECOPY DUP2 MLOAD SWAP2 MSTORE SWAP2 LOG4 POP POP POP JUMP JUMPDEST PUSH2 0x34E5 DUP3 DUP3 PUSH2 0x2680 JUMP JUMPDEST PUSH2 0x1971 JUMPI PUSH2 0x34FD DUP2 PUSH1 0x1 PUSH1 0x1 PUSH1 0xA0 SHL SUB AND PUSH1 0x14 PUSH2 0x41BD JUMP JUMPDEST PUSH2 0x3508 DUP4 PUSH1 0x20 PUSH2 0x41BD JUMP JUMPDEST PUSH1 0x40 MLOAD PUSH1 0x20 ADD PUSH2 0x3519 SWAP3 SWAP2 SWAP1 PUSH2 0x5285 JUMP JUMPDEST PUSH1 0x40 DUP1 MLOAD PUSH1 0x1F NOT DUP2 DUP5 SUB ADD DUP2 MSTORE SWAP1 DUP3 SWAP1 MSTORE PUSH3 0x461BCD PUSH1 0xE5 SHL DUP3 MSTORE PUSH2 0x7FC SWAP2 PUSH1 0x4 ADD PUSH2 0x53F8 JUMP JUMPDEST PUSH2 0x3549 DUP3 DUP3 PUSH2 0x2680 JUMP JUMPDEST PUSH2 0x1971 JUMPI PUSH1 0x0 DUP3 DUP2 MSTORE PUSH1 0x8 PUSH1 0x20 SWAP1 DUP2 MSTORE PUSH1 0x40 DUP1 DUP4 KECCAK256 PUSH1 0x1 PUSH1 0x1 PUSH1 0xA0 SHL SUB DUP6 AND DUP5 MSTORE SWAP1 SWAP2 MSTORE SWAP1 KECCAK256 DUP1 SLOAD PUSH1 0xFF NOT AND PUSH1 0x1 OR SWAP1 SSTORE PUSH2 0x3581 CALLER SWAP1 JUMP JUMPDEST PUSH1 0x1 PUSH1 0x1 PUSH1 0xA0 SHL SUB AND DUP2 PUSH1 0x1 PUSH1 0x1 PUSH1 0xA0 SHL SUB AND DUP4 PUSH32 0x2F8788117E7EFF1D82E926EC794901D17C78024A50270940304540A733656F0D PUSH1 0x40 MLOAD PUSH1 0x40 MLOAD DUP1 SWAP2 SUB SWAP1 LOG4 POP POP JUMP JUMPDEST PUSH2 0x35CF DUP3 DUP3 PUSH2 0x2680 JUMP JUMPDEST ISZERO PUSH2 0x1971 JUMPI PUSH1 0x0 DUP3 DUP2 MSTORE PUSH1 0x8 PUSH1 0x20 SWAP1 DUP2 MSTORE PUSH1 0x40 DUP1 DUP4 KECCAK256 PUSH1 0x1 PUSH1 0x1 PUSH1 0xA0 SHL SUB DUP6 AND DUP1 DUP6 MSTORE SWAP3 MSTORE DUP1 DUP4 KECCAK256 DUP1 SLOAD PUSH1 0xFF NOT AND SWAP1 SSTORE MLOAD CALLER SWAP3 DUP6 SWAP2 PUSH32 0xF6391F5C32D9C69D2A47EA670B442974B53935D1EDC7FD64EB21E047A839171B SWAP2 SWAP1 LOG4 POP POP JUMP JUMPDEST PUSH1 0x0 DUP3 DUP2 MSTORE PUSH1 0xB PUSH1 0x20 SWAP1 DUP2 MSTORE PUSH1 0x40 DUP1 DUP4 KECCAK256 PUSH1 0x1 PUSH1 0x1 PUSH1 0xA0 SHL SUB DUP8 AND DUP5 MSTORE PUSH1 0x1 ADD SWAP1 SWAP2 MSTORE SWAP1 KECCAK256 SLOAD PUSH2 0x368E JUMPI PUSH1 0x0 DUP3 DUP2 MSTORE PUSH1 0xB PUSH1 0x20 SWAP1 DUP2 MSTORE PUSH1 0x40 DUP3 KECCAK256 DUP1 SLOAD PUSH1 0x1 DUP2 ADD DUP3 SSTORE SWAP1 DUP4 MSTORE SWAP2 KECCAK256 ADD DUP1 SLOAD PUSH1 0x1 PUSH1 0x1 PUSH1 0xA0 SHL SUB NOT AND PUSH1 0x1 PUSH1 0x1 PUSH1 0xA0 SHL SUB DUP6 AND OR SWAP1 SSTORE JUMPDEST PUSH1 0x0 DUP3 DUP2 MSTORE PUSH1 0xB PUSH1 0x20 SWAP1 DUP2 MSTORE PUSH1 0x40 DUP1 DUP4 KECCAK256 PUSH1 0x1 PUSH1 0x1 PUSH1 0xA0 SHL SUB DUP8 AND DUP1 DUP6 MSTORE PUSH1 0x1 SWAP1 SWAP2 ADD DUP4 MSTORE SWAP3 DUP2 SWAP1 KECCAK256 DUP5 SWAP1 SSTORE MLOAD DUP4 DUP2 MSTORE DUP5 SWAP3 SWAP2 PUSH32 0x8A156BD946DC74EC284C5F4B365CE75EF2A5B9D9462B4CDB1D2400CABF136541 SWAP2 ADD PUSH1 0x40 MLOAD DUP1 SWAP2 SUB SWAP1 LOG3 POP POP POP JUMP JUMPDEST PUSH1 0x0 DUP2 DUP2 MSTORE PUSH1 0xA PUSH1 0x20 MSTORE PUSH1 0x40 DUP2 KECCAK256 SSTORE PUSH2 0x1C6F DUP2 PUSH2 0x439E JUMP JUMPDEST PUSH1 0x0 DUP1 PUSH1 0x0 PUSH2 0x3716 PUSH2 0x4B71 JUMP JUMPDEST PUSH2 0x371F DUP7 PUSH2 0x3836 JUMP JUMPDEST SWAP1 POP PUSH1 0x0 PUSH2 0x372C DUP8 PUSH2 0x2B95 JUMP JUMPDEST SWAP1 POP DUP1 DUP7 DUP4 PUSH1 0x40 ADD MLOAD PUSH2 0x373F SWAP2 SWAP1 PUSH2 0x576C JUMP JUMPDEST PUSH2 0x3749 SWAP2 SWAP1 PUSH2 0x565D JUMP JUMPDEST SWAP5 POP DUP1 DUP7 DUP4 PUSH1 0x80 ADD MLOAD PUSH2 0x375C SWAP2 SWAP1 PUSH2 0x576C JUMP JUMPDEST PUSH2 0x3766 SWAP2 SWAP1 PUSH2 0x565D JUMP JUMPDEST SWAP4 POP DUP1 DUP7 DUP4 PUSH1 0x60 ADD MLOAD PUSH2 0x3779 SWAP2 SWAP1 PUSH2 0x576C JUMP JUMPDEST PUSH2 0x3783 SWAP2 SWAP1 PUSH2 0x565D JUMP JUMPDEST SWAP3 POP PUSH2 0x37BA DUP8 DUP4 DUP6 DUP6 PUSH1 0x60 ADD MLOAD PUSH2 0x379A SWAP2 SWAP1 PUSH2 0x578B JUMP JUMPDEST DUP9 DUP7 PUSH1 0x40 ADD MLOAD PUSH2 0x37AA SWAP2 SWAP1 PUSH2 0x578B JUMP JUMPDEST DUP9 DUP8 PUSH1 0x80 ADD MLOAD PUSH2 0x1D05 SWAP2 SWAP1 PUSH2 0x578B JUMP JUMPDEST PUSH1 0x15 SLOAD PUSH1 0x60 DUP3 ADD MLOAD PUSH1 0x80 DUP4 ADD MLOAD PUSH1 0x40 MLOAD PUSH4 0x57A5C967 PUSH1 0xE0 SHL DUP2 MSTORE SWAP4 SWAP6 POP PUSH1 0x1 PUSH1 0x1 PUSH1 0xA0 SHL SUB SWAP1 SWAP3 AND SWAP3 PUSH4 0x57A5C967 SWAP3 PUSH2 0x37FA SWAP3 DUP13 SWAP3 SWAP1 SWAP2 SWAP1 PUSH1 0x4 ADD PUSH2 0x55E5 JUMP JUMPDEST PUSH1 0x0 PUSH1 0x40 MLOAD DUP1 DUP4 SUB DUP2 PUSH1 0x0 DUP8 DUP1 EXTCODESIZE ISZERO DUP1 ISZERO PUSH2 0x3814 JUMPI PUSH1 0x0 DUP1 REVERT JUMPDEST POP GAS CALL ISZERO DUP1 ISZERO PUSH2 0x3828 JUMPI RETURNDATASIZE PUSH1 0x0 DUP1 RETURNDATACOPY RETURNDATASIZE PUSH1 0x0 REVERT JUMPDEST POP POP POP POP POP SWAP3 SWAP6 SWAP2 SWAP5 POP SWAP3 POP JUMP JUMPDEST PUSH2 0x383E PUSH2 0x4B71 JUMP JUMPDEST PUSH1 0x0 DUP3 DUP2 MSTORE PUSH1 0x14 PUSH1 0x20 MSTORE PUSH1 0x40 SWAP1 DUP2 SWAP1 KECCAK256 DUP2 MLOAD PUSH1 0xE0 DUP2 ADD SWAP1 SWAP3 MSTORE DUP1 SLOAD DUP3 SWAP1 PUSH1 0xFF AND PUSH1 0x3 DUP2 GT ISZERO PUSH2 0x387D JUMPI PUSH4 0x4E487B71 PUSH1 0xE0 SHL PUSH1 0x0 MSTORE PUSH1 0x21 PUSH1 0x4 MSTORE PUSH1 0x24 PUSH1 0x0 REVERT JUMPDEST PUSH1 0x3 DUP2 GT ISZERO PUSH2 0x389C JUMPI PUSH4 0x4E487B71 PUSH1 0xE0 SHL PUSH1 0x0 MSTORE PUSH1 0x21 PUSH1 0x4 MSTORE PUSH1 0x24 PUSH1 0x0 REVERT JUMPDEST DUP2 MSTORE PUSH1 0x1 DUP3 ADD SLOAD PUSH1 0x20 DUP3 ADD MSTORE PUSH1 0x2 DUP1 DUP4 ADD SLOAD PUSH1 0x40 DUP4 ADD MSTORE PUSH1 0x3 DUP4 ADD SLOAD PUSH1 0x60 DUP4 ADD MSTORE PUSH1 0x4 DUP4 ADD SLOAD PUSH1 0x80 DUP4 ADD MSTORE PUSH1 0x5 DUP4 ADD SLOAD PUSH1 0xA0 DUP4 ADD MSTORE PUSH1 0x6 DUP4 ADD SLOAD PUSH1 0xC0 SWAP1 SWAP3 ADD SWAP2 PUSH1 0xFF AND SWAP1 DUP2 GT ISZERO PUSH2 0x38FD JUMPI PUSH4 0x4E487B71 PUSH1 0xE0 SHL PUSH1 0x0 MSTORE PUSH1 0x21 PUSH1 0x4 MSTORE PUSH1 0x24 PUSH1 0x0 REVERT JUMPDEST PUSH1 0x2 DUP2 GT ISZERO PUSH2 0x391C JUMPI PUSH4 0x4E487B71 PUSH1 0xE0 SHL PUSH1 0x0 MSTORE PUSH1 0x21 PUSH1 0x4 MSTORE PUSH1 0x24 PUSH1 0x0 REVERT JUMPDEST SWAP1 MSTORE POP SWAP3 SWAP2 POP POP JUMP JUMPDEST PUSH2 0x392D PUSH2 0x4B71 JUMP JUMPDEST POP PUSH1 0x60 DUP5 ADD DUP4 SWAP1 MSTORE PUSH1 0x40 DUP5 ADD DUP3 SWAP1 MSTORE PUSH1 0x80 DUP5 ADD DUP2 SWAP1 MSTORE DUP4 PUSH2 0x394E DUP7 DUP3 PUSH2 0x2F3A JUMP JUMPDEST SWAP6 SWAP5 POP POP POP POP POP JUMP JUMPDEST PUSH2 0x3960 DUP4 PUSH2 0x201D JUMP JUMPDEST PUSH1 0x1 PUSH1 0x1 PUSH1 0xA0 SHL SUB AND DUP6 PUSH1 0x1 PUSH1 0x1 PUSH1 0xA0 SHL SUB AND EQ PUSH2 0x39A5 JUMPI PUSH1 0x40 MLOAD PUSH3 0x461BCD PUSH1 0xE5 SHL DUP2 MSTORE PUSH1 0x20 PUSH1 0x4 DUP3 ADD MSTORE PUSH1 0x2 PUSH1 0x24 DUP3 ADD MSTORE PUSH2 0x4E39 PUSH1 0xF0 SHL PUSH1 0x44 DUP3 ADD MSTORE PUSH1 0x64 ADD PUSH2 0x7FC JUMP JUMPDEST PUSH1 0x1 PUSH1 0x1 PUSH1 0xA0 SHL SUB DUP5 AND PUSH2 0x39E1 JUMPI PUSH1 0x40 MLOAD PUSH3 0x461BCD PUSH1 0xE5 SHL DUP2 MSTORE PUSH1 0x20 PUSH1 0x4 DUP3 ADD MSTORE PUSH1 0x3 PUSH1 0x24 DUP3 ADD MSTORE PUSH3 0x4E313 PUSH1 0xEC SHL PUSH1 0x44 DUP3 ADD MSTORE PUSH1 0x64 ADD PUSH2 0x7FC JUMP JUMPDEST CALLER PUSH1 0x1 PUSH1 0x1 PUSH1 0xA0 SHL SUB DUP7 AND EQ DUP1 ISZERO SWAP1 PUSH2 0x3A01 JUMPI POP PUSH2 0x39FF DUP6 CALLER PUSH2 0x2D7E JUMP JUMPDEST ISZERO JUMPDEST ISZERO PUSH2 0x3A4C JUMPI PUSH1 0x0 DUP4 DUP2 MSTORE PUSH1 0xB PUSH1 0x20 SWAP1 DUP2 MSTORE PUSH1 0x40 DUP1 DUP4 KECCAK256 CALLER DUP5 MSTORE PUSH1 0x1 ADD SWAP1 SWAP2 MSTORE SWAP1 KECCAK256 SLOAD PUSH2 0x3A2E SWAP1 DUP3 SWAP1 PUSH2 0x578B JUMP JUMPDEST PUSH1 0x0 DUP5 DUP2 MSTORE PUSH1 0xB PUSH1 0x20 SWAP1 DUP2 MSTORE PUSH1 0x40 DUP1 DUP4 KECCAK256 CALLER DUP5 MSTORE PUSH1 0x1 ADD SWAP1 SWAP2 MSTORE SWAP1 KECCAK256 SSTORE JUMPDEST PUSH1 0x0 DUP4 DUP2 MSTORE PUSH1 0xF PUSH1 0x20 MSTORE PUSH1 0x40 SWAP1 KECCAK256 SLOAD PUSH2 0x3A66 SWAP1 DUP3 SWAP1 PUSH2 0x578B JUMP JUMPDEST PUSH1 0x0 DUP5 DUP2 MSTORE PUSH1 0xF PUSH1 0x20 MSTORE PUSH1 0x40 SWAP1 KECCAK256 SSTORE PUSH2 0x3A7E DUP3 PUSH2 0x31ED JUMP JUMPDEST PUSH2 0x3A9B JUMPI PUSH2 0x3A96 DUP5 DUP4 PUSH2 0x3A90 DUP7 PUSH2 0x18C8 JUMP JUMPDEST DUP5 PUSH2 0x4040 JUMP JUMPDEST PUSH2 0x3B43 JUMP JUMPDEST DUP4 PUSH1 0x1 PUSH1 0x1 PUSH1 0xA0 SHL SUB AND PUSH2 0x3AAE DUP4 PUSH2 0x201D JUMP JUMPDEST PUSH1 0x1 PUSH1 0x1 PUSH1 0xA0 SHL SUB AND EQ PUSH2 0x3AEA JUMPI PUSH1 0x40 MLOAD PUSH3 0x461BCD PUSH1 0xE5 SHL DUP2 MSTORE PUSH1 0x20 PUSH1 0x4 DUP3 ADD MSTORE PUSH1 0x3 PUSH1 0x24 DUP3 ADD MSTORE PUSH3 0x4E3131 PUSH1 0xE8 SHL PUSH1 0x44 DUP3 ADD MSTORE PUSH1 0x64 ADD PUSH2 0x7FC JUMP JUMPDEST PUSH2 0x3AF3 DUP3 PUSH2 0x18C8 JUMP JUMPDEST PUSH2 0x3AFC DUP5 PUSH2 0x18C8 JUMP JUMPDEST EQ PUSH2 0x3B19 JUMPI PUSH1 0x40 MLOAD PUSH3 0x461BCD PUSH1 0xE5 SHL DUP2 MSTORE PUSH1 0x4 ADD PUSH2 0x7FC SWAP1 PUSH2 0x5496 JUMP JUMPDEST PUSH1 0x0 DUP3 DUP2 MSTORE PUSH1 0xF PUSH1 0x20 MSTORE PUSH1 0x40 SWAP1 KECCAK256 SLOAD PUSH2 0x3B33 SWAP1 DUP3 SWAP1 PUSH2 0x5645 JUMP JUMPDEST PUSH1 0x0 DUP4 DUP2 MSTORE PUSH1 0xF PUSH1 0x20 MSTORE PUSH1 0x40 SWAP1 KECCAK256 SSTORE JUMPDEST PUSH1 0x0 DUP4 DUP2 MSTORE PUSH1 0xA PUSH1 0x20 MSTORE PUSH1 0x40 DUP1 DUP3 KECCAK256 SLOAD DUP5 DUP4 MSTORE SWAP2 DUP2 SWAP1 KECCAK256 SWAP2 SWAP1 SWAP2 SSTORE MLOAD DUP4 SWAP1 PUSH1 0x1 PUSH1 0x1 PUSH1 0xA0 SHL SUB DUP1 DUP8 AND SWAP2 SWAP1 DUP9 AND SWAP1 PUSH1 0x0 DUP1 MLOAD PUSH1 0x20 PUSH2 0x591D DUP4 CODECOPY DUP2 MLOAD SWAP2 MSTORE SWAP1 PUSH2 0x3B8E SWAP1 DUP8 SWAP1 DUP8 SWAP1 PUSH2 0x53EA JUMP JUMPDEST PUSH1 0x40 MLOAD DUP1 SWAP2 SUB SWAP1 LOG4 POP POP POP POP POP JUMP JUMPDEST PUSH2 0x3BA7 CALLER DUP5 PUSH2 0x3278 JUMP JUMPDEST PUSH2 0x3BD8 JUMPI PUSH1 0x40 MLOAD PUSH3 0x461BCD PUSH1 0xE5 SHL DUP2 MSTORE PUSH1 0x20 PUSH1 0x4 DUP3 ADD MSTORE PUSH1 0x2 PUSH1 0x24 DUP3 ADD MSTORE PUSH2 0x2719 PUSH1 0xF1 SHL PUSH1 0x44 DUP3 ADD MSTORE PUSH1 0x64 ADD PUSH2 0x7FC JUMP JUMPDEST PUSH2 0x3BE1 DUP3 PUSH2 0x31ED JUMP JUMPDEST ISZERO PUSH2 0x3C13 JUMPI PUSH1 0x40 MLOAD PUSH3 0x461BCD PUSH1 0xE5 SHL DUP2 MSTORE PUSH1 0x20 PUSH1 0x4 DUP3 ADD MSTORE PUSH1 0x2 PUSH1 0x24 DUP3 ADD MSTORE PUSH2 0x4E33 PUSH1 0xF0 SHL PUSH1 0x44 DUP3 ADD MSTORE PUSH1 0x64 ADD PUSH2 0x7FC JUMP JUMPDEST PUSH2 0x3C32 DUP3 PUSH2 0x3C20 DUP6 PUSH2 0x18C8 JUMP JUMPDEST PUSH1 0x0 SWAP2 DUP3 MSTORE PUSH1 0xA PUSH1 0x20 MSTORE PUSH1 0x40 SWAP1 SWAP2 KECCAK256 SSTORE JUMP JUMPDEST PUSH1 0x0 DUP4 DUP2 MSTORE PUSH1 0xF PUSH1 0x20 MSTORE PUSH1 0x40 SWAP1 KECCAK256 SLOAD PUSH2 0x3C4C SWAP1 DUP3 SWAP1 PUSH2 0x578B JUMP JUMPDEST PUSH1 0x0 DUP5 DUP2 MSTORE PUSH1 0xF PUSH1 0x20 MSTORE PUSH1 0x40 DUP2 KECCAK256 SWAP2 SWAP1 SWAP2 SSTORE PUSH2 0x3C67 DUP5 PUSH2 0x201D JUMP JUMPDEST SWAP1 POP PUSH2 0x3C7D DUP2 DUP5 PUSH2 0x3C77 DUP8 PUSH2 0x18C8 JUMP JUMPDEST DUP6 PUSH2 0x4040 JUMP JUMPDEST DUP4 DUP2 PUSH1 0x1 PUSH1 0x1 PUSH1 0xA0 SHL SUB AND PUSH32 0xF66885C33D648FCD0D97E0F2A18E30102169C22763473AF0FB716F11B4A17DD6 DUP6 DUP6 PUSH1 0x40 MLOAD PUSH2 0x3CB9 SWAP3 SWAP2 SWAP1 PUSH2 0x53EA JUMP JUMPDEST PUSH1 0x40 MLOAD DUP1 SWAP2 SUB SWAP1 LOG3 POP POP POP POP JUMP JUMPDEST PUSH1 0x6 DUP1 SLOAD PUSH1 0x1 PUSH1 0x1 PUSH1 0xA0 SHL SUB DUP4 DUP2 AND PUSH1 0x1 PUSH1 0x1 PUSH1 0xA0 SHL SUB NOT DUP4 AND DUP2 OR SWAP1 SWAP4 SSTORE PUSH1 0x40 MLOAD SWAP2 AND SWAP2 SWAP1 DUP3 SWAP1 PUSH32 0x8BE0079C531659141344CD1FD0A4F28419497F9722A3DAAFE3B4186F6B6457E0 SWAP1 PUSH1 0x0 SWAP1 LOG3 POP POP JUMP JUMPDEST PUSH1 0x0 PUSH2 0x160C DUP3 SLOAD SWAP1 JUMP JUMPDEST PUSH2 0x3D2E DUP5 DUP5 DUP5 PUSH2 0x3342 JUMP JUMPDEST PUSH2 0x3D3A DUP5 DUP5 DUP5 DUP5 PUSH2 0x4430 JUMP JUMPDEST PUSH2 0x2017 JUMPI PUSH1 0x40 MLOAD PUSH3 0x461BCD PUSH1 0xE5 SHL DUP2 MSTORE PUSH1 0x4 ADD PUSH2 0x7FC SWAP1 PUSH2 0x5427 JUMP JUMPDEST PUSH2 0x3D5F CALLER PUSH2 0x2958 JUMP JUMPDEST PUSH2 0x3D90 JUMPI PUSH1 0x40 MLOAD PUSH3 0x461BCD PUSH1 0xE5 SHL DUP2 MSTORE PUSH1 0x20 PUSH1 0x4 DUP3 ADD MSTORE PUSH1 0x2 PUSH1 0x24 DUP3 ADD MSTORE PUSH2 0x4E35 PUSH1 0xF0 SHL PUSH1 0x44 DUP3 ADD MSTORE PUSH1 0x64 ADD PUSH2 0x7FC JUMP JUMPDEST DUP1 DUP3 EQ ISZERO PUSH2 0x3DC5 JUMPI PUSH1 0x40 MLOAD PUSH3 0x461BCD PUSH1 0xE5 SHL DUP2 MSTORE PUSH1 0x20 PUSH1 0x4 DUP3 ADD MSTORE PUSH1 0x2 PUSH1 0x24 DUP3 ADD MSTORE PUSH2 0x271B PUSH1 0xF1 SHL PUSH1 0x44 DUP3 ADD MSTORE PUSH1 0x64 ADD PUSH2 0x7FC JUMP JUMPDEST PUSH2 0x3DCE DUP2 PUSH2 0x18C8 JUMP JUMPDEST PUSH2 0x3DD7 DUP4 PUSH2 0x18C8 JUMP JUMPDEST EQ PUSH2 0x3DF4 JUMPI PUSH1 0x40 MLOAD PUSH3 0x461BCD PUSH1 0xE5 SHL DUP2 MSTORE PUSH1 0x4 ADD PUSH2 0x7FC SWAP1 PUSH2 0x5496 JUMP JUMPDEST PUSH1 0x0 PUSH2 0x3DFF DUP4 PUSH2 0x201D JUMP JUMPDEST SWAP1 POP PUSH2 0x3E0A DUP3 PUSH2 0x201D JUMP JUMPDEST PUSH1 0x1 PUSH1 0x1 PUSH1 0xA0 SHL SUB AND DUP2 PUSH1 0x1 PUSH1 0x1 PUSH1 0xA0 SHL SUB AND EQ PUSH2 0x3E4F JUMPI PUSH1 0x40 MLOAD PUSH3 0x461BCD PUSH1 0xE5 SHL DUP2 MSTORE PUSH1 0x20 PUSH1 0x4 DUP3 ADD MSTORE PUSH1 0x2 PUSH1 0x24 DUP3 ADD MSTORE PUSH2 0x9C7 PUSH1 0xF3 SHL PUSH1 0x44 DUP3 ADD MSTORE PUSH1 0x64 ADD PUSH2 0x7FC JUMP JUMPDEST PUSH1 0x0 DUP4 DUP2 MSTORE PUSH1 0xF PUSH1 0x20 MSTORE PUSH1 0x40 DUP1 DUP3 KECCAK256 SLOAD DUP5 DUP4 MSTORE SWAP2 KECCAK256 SLOAD PUSH2 0x3E6F SWAP1 DUP3 PUSH2 0x5645 JUMP JUMPDEST PUSH1 0x0 DUP5 DUP2 MSTORE PUSH1 0xF PUSH1 0x20 MSTORE PUSH1 0x40 SWAP1 KECCAK256 SSTORE PUSH2 0x3E87 DUP5 PUSH2 0x36F1 JUMP JUMPDEST DUP3 DUP5 DUP4 PUSH1 0x1 PUSH1 0x1 PUSH1 0xA0 SHL SUB AND PUSH32 0xB3CE851D16B3BBEC3774D5631A3893DFA2A80E067CFAD265DD594402AC3D6096 DUP5 PUSH1 0x40 MLOAD PUSH2 0x3EC4 SWAP2 DUP2 MSTORE PUSH1 0x20 ADD SWAP1 JUMP JUMPDEST PUSH1 0x40 MLOAD DUP1 SWAP2 SUB SWAP1 LOG4 POP POP POP POP JUMP JUMPDEST PUSH1 0x60 PUSH2 0x3EDD DUP3 PUSH2 0x31ED JUMP JUMPDEST PUSH2 0x3F43 JUMPI PUSH1 0x40 MLOAD PUSH3 0x461BCD PUSH1 0xE5 SHL DUP2 MSTORE PUSH1 0x20 PUSH1 0x4 DUP3 ADD MSTORE PUSH1 0x31 PUSH1 0x24 DUP3 ADD MSTORE PUSH32 0x45524337323155524953746F726167653A2055524920717565727920666F7220 PUSH1 0x44 DUP3 ADD MSTORE PUSH17 0x3737B732BC34B9BA32B73A103A37B5B2B7 PUSH1 0x79 SHL PUSH1 0x64 DUP3 ADD MSTORE PUSH1 0x84 ADD PUSH2 0x7FC JUMP JUMPDEST PUSH1 0x0 DUP3 DUP2 MSTORE PUSH1 0x9 PUSH1 0x20 MSTORE PUSH1 0x40 DUP2 KECCAK256 DUP1 SLOAD PUSH2 0x3F5C SWAP1 PUSH2 0x57E5 JUMP JUMPDEST DUP1 PUSH1 0x1F ADD PUSH1 0x20 DUP1 SWAP2 DIV MUL PUSH1 0x20 ADD PUSH1 0x40 MLOAD SWAP1 DUP2 ADD PUSH1 0x40 MSTORE DUP1 SWAP3 SWAP2 SWAP1 DUP2 DUP2 MSTORE PUSH1 0x20 ADD DUP3 DUP1 SLOAD PUSH2 0x3F88 SWAP1 PUSH2 0x57E5 JUMP JUMPDEST DUP1 ISZERO PUSH2 0x3FD5 JUMPI DUP1 PUSH1 0x1F LT PUSH2 0x3FAA JUMPI PUSH2 0x100 DUP1 DUP4 SLOAD DIV MUL DUP4 MSTORE SWAP2 PUSH1 0x20 ADD SWAP2 PUSH2 0x3FD5 JUMP JUMPDEST DUP3 ADD SWAP2 SWAP1 PUSH1 0x0 MSTORE PUSH1 0x20 PUSH1 0x0 KECCAK256 SWAP1 JUMPDEST DUP2 SLOAD DUP2 MSTORE SWAP1 PUSH1 0x1 ADD SWAP1 PUSH1 0x20 ADD DUP1 DUP4 GT PUSH2 0x3FB8 JUMPI DUP3 SWAP1 SUB PUSH1 0x1F AND DUP3 ADD SWAP2 JUMPDEST POP POP POP POP POP SWAP1 POP PUSH1 0x0 PUSH2 0x3FE6 PUSH2 0x453D JUMP JUMPDEST SWAP1 POP DUP1 MLOAD PUSH1 0x0 EQ ISZERO PUSH2 0x3FF9 JUMPI POP SWAP3 SWAP2 POP POP JUMP JUMPDEST DUP2 MLOAD ISZERO PUSH2 0x402B JUMPI DUP1 DUP3 PUSH1 0x40 MLOAD PUSH1 0x20 ADD PUSH2 0x4013 SWAP3 SWAP2 SWAP1 PUSH2 0x5256 JUMP JUMPDEST PUSH1 0x40 MLOAD PUSH1 0x20 DUP2 DUP4 SUB SUB DUP2 MSTORE SWAP1 PUSH1 0x40 MSTORE SWAP3 POP POP POP SWAP2 SWAP1 POP JUMP JUMPDEST PUSH2 0x333A DUP5 PUSH2 0x455D JUMP JUMPDEST PUSH1 0x0 PUSH2 0x2D0D DUP4 DUP4 PUSH2 0x4627 JUMP JUMPDEST PUSH2 0x4049 DUP4 PUSH2 0x31ED JUMP JUMPDEST PUSH2 0x4071 JUMPI PUSH2 0x4057 DUP5 DUP5 PUSH2 0x465F JUMP JUMPDEST PUSH1 0x0 DUP3 DUP2 MSTORE PUSH1 0xC PUSH1 0x20 MSTORE PUSH1 0x40 SWAP1 KECCAK256 PUSH2 0x406F SWAP1 DUP5 PUSH2 0x478B JUMP JUMPDEST POP JUMPDEST PUSH1 0x0 DUP4 DUP2 MSTORE PUSH1 0xF PUSH1 0x20 MSTORE PUSH1 0x40 SWAP1 KECCAK256 SLOAD PUSH2 0x408B SWAP1 DUP3 SWAP1 PUSH2 0x5645 JUMP JUMPDEST PUSH1 0x0 DUP5 DUP2 MSTORE PUSH1 0xF PUSH1 0x20 MSTORE PUSH1 0x40 DUP1 DUP3 KECCAK256 SWAP3 SWAP1 SWAP3 SSTORE SWAP1 MLOAD PUSH1 0x1 PUSH1 0x1 PUSH1 0xA0 SHL SUB DUP7 AND SWAP1 DUP3 SWAP1 PUSH1 0x0 DUP1 MLOAD PUSH1 0x20 PUSH2 0x591D DUP4 CODECOPY DUP2 MLOAD SWAP2 MSTORE SWAP1 PUSH2 0x3EC4 SWAP1 DUP9 SWAP1 DUP8 SWAP1 PUSH2 0x53EA JUMP JUMPDEST PUSH2 0x40D3 DUP3 PUSH2 0x31ED JUMP JUMPDEST PUSH2 0x4136 JUMPI PUSH1 0x40 MLOAD PUSH3 0x461BCD PUSH1 0xE5 SHL DUP2 MSTORE PUSH1 0x20 PUSH1 0x4 DUP3 ADD MSTORE PUSH1 0x2E PUSH1 0x24 DUP3 ADD MSTORE PUSH32 0x45524337323155524953746F726167653A2055524920736574206F66206E6F6E PUSH1 0x44 DUP3 ADD MSTORE PUSH14 0x32BC34B9BA32B73A103A37B5B2B7 PUSH1 0x91 SHL PUSH1 0x64 DUP3 ADD MSTORE PUSH1 0x84 ADD PUSH2 0x7FC JUMP JUMPDEST PUSH1 0x0 DUP3 DUP2 MSTORE PUSH1 0x9 PUSH1 0x20 SWAP1 DUP2 MSTORE PUSH1 0x40 SWAP1 SWAP2 KECCAK256 DUP3 MLOAD PUSH2 0x187D SWAP3 DUP5 ADD SWAP1 PUSH2 0x4BCD JUMP JUMPDEST PUSH1 0x0 PUSH1 0x1 PUSH1 0x1 PUSH1 0xE0 SHL SUB NOT DUP3 AND PUSH4 0x80AC58CD PUSH1 0xE0 SHL EQ DUP1 PUSH2 0x4186 JUMPI POP PUSH1 0x1 PUSH1 0x1 PUSH1 0xE0 SHL SUB NOT DUP3 AND PUSH4 0x5B5E139F PUSH1 0xE0 SHL EQ JUMPDEST DUP1 PUSH2 0x160C JUMPI POP PUSH4 0x1FFC9A7 PUSH1 0xE0 SHL PUSH1 0x1 PUSH1 0x1 PUSH1 0xE0 SHL SUB NOT DUP4 AND EQ PUSH2 0x160C JUMP JUMPDEST PUSH1 0x1 PUSH1 0x1 PUSH1 0xA0 SHL SUB DUP4 AND ISZERO PUSH2 0x187D JUMPI PUSH2 0x187D DUP2 PUSH2 0x4797 JUMP JUMPDEST PUSH1 0x60 PUSH1 0x0 PUSH2 0x41CC DUP4 PUSH1 0x2 PUSH2 0x576C JUMP JUMPDEST PUSH2 0x41D7 SWAP1 PUSH1 0x2 PUSH2 0x5645 JUMP JUMPDEST PUSH1 0x1 PUSH1 0x1 PUSH1 0x40 SHL SUB DUP2 GT ISZERO PUSH2 0x41FC JUMPI PUSH4 0x4E487B71 PUSH1 0xE0 SHL PUSH1 0x0 MSTORE PUSH1 0x41 PUSH1 0x4 MSTORE PUSH1 0x24 PUSH1 0x0 REVERT JUMPDEST PUSH1 0x40 MLOAD SWAP1 DUP1 DUP3 MSTORE DUP1 PUSH1 0x1F ADD PUSH1 0x1F NOT AND PUSH1 0x20 ADD DUP3 ADD PUSH1 0x40 MSTORE DUP1 ISZERO PUSH2 0x4226 JUMPI PUSH1 0x20 DUP3 ADD DUP2 DUP1 CALLDATASIZE DUP4 CALLDATACOPY ADD SWAP1 POP JUMPDEST POP SWAP1 POP PUSH1 0x3 PUSH1 0xFC SHL DUP2 PUSH1 0x0 DUP2 MLOAD DUP2 LT PUSH2 0x424F JUMPI PUSH4 0x4E487B71 PUSH1 0xE0 SHL PUSH1 0x0 MSTORE PUSH1 0x32 PUSH1 0x4 MSTORE PUSH1 0x24 PUSH1 0x0 REVERT JUMPDEST PUSH1 0x20 ADD ADD SWAP1 PUSH1 0x1 PUSH1 0x1 PUSH1 0xF8 SHL SUB NOT AND SWAP1 DUP2 PUSH1 0x0 BYTE SWAP1 MSTORE8 POP PUSH1 0xF PUSH1 0xFB SHL DUP2 PUSH1 0x1 DUP2 MLOAD DUP2 LT PUSH2 0x428C JUMPI PUSH4 0x4E487B71 PUSH1 0xE0 SHL PUSH1 0x0 MSTORE PUSH1 0x32 PUSH1 0x4 MSTORE PUSH1 0x24 PUSH1 0x0 REVERT JUMPDEST PUSH1 0x20 ADD ADD SWAP1 PUSH1 0x1 PUSH1 0x1 PUSH1 0xF8 SHL SUB NOT AND SWAP1 DUP2 PUSH1 0x0 BYTE SWAP1 MSTORE8 POP PUSH1 0x0 PUSH2 0x42B0 DUP5 PUSH1 0x2 PUSH2 0x576C JUMP JUMPDEST PUSH2 0x42BB SWAP1 PUSH1 0x1 PUSH2 0x5645 JUMP JUMPDEST SWAP1 POP JUMPDEST PUSH1 0x1 DUP2 GT ISZERO PUSH2 0x434F JUMPI PUSH16 0x181899199A1A9B1B9C1CB0B131B232B3 PUSH1 0x81 SHL DUP6 PUSH1 0xF AND PUSH1 0x10 DUP2 LT PUSH2 0x42FD JUMPI PUSH4 0x4E487B71 PUSH1 0xE0 SHL PUSH1 0x0 MSTORE PUSH1 0x32 PUSH1 0x4 MSTORE PUSH1 0x24 PUSH1 0x0 REVERT JUMPDEST BYTE PUSH1 0xF8 SHL DUP3 DUP3 DUP2 MLOAD DUP2 LT PUSH2 0x4321 JUMPI PUSH4 0x4E487B71 PUSH1 0xE0 SHL PUSH1 0x0 MSTORE PUSH1 0x32 PUSH1 0x4 MSTORE PUSH1 0x24 PUSH1 0x0 REVERT JUMPDEST PUSH1 0x20 ADD ADD SWAP1 PUSH1 0x1 PUSH1 0x1 PUSH1 0xF8 SHL SUB NOT AND SWAP1 DUP2 PUSH1 0x0 BYTE SWAP1 MSTORE8 POP PUSH1 0x4 SWAP5 SWAP1 SWAP5 SHR SWAP4 PUSH2 0x4348 DUP2 PUSH2 0x57CE JUMP JUMPDEST SWAP1 POP PUSH2 0x42BE JUMP JUMPDEST POP DUP4 ISZERO PUSH2 0x2D0D JUMPI PUSH1 0x40 MLOAD PUSH3 0x461BCD PUSH1 0xE5 SHL DUP2 MSTORE PUSH1 0x20 PUSH1 0x4 DUP3 ADD DUP2 SWAP1 MSTORE PUSH1 0x24 DUP3 ADD MSTORE PUSH32 0x537472696E67733A20686578206C656E67746820696E73756666696369656E74 PUSH1 0x44 DUP3 ADD MSTORE PUSH1 0x64 ADD PUSH2 0x7FC JUMP JUMPDEST PUSH1 0x0 PUSH2 0x43A9 DUP3 PUSH2 0x201D JUMP JUMPDEST SWAP1 POP PUSH1 0x0 PUSH2 0x43B6 DUP4 PUSH2 0x18C8 JUMP JUMPDEST PUSH1 0x0 DUP5 DUP2 MSTORE PUSH1 0xF PUSH1 0x20 SWAP1 DUP2 MSTORE PUSH1 0x40 DUP1 DUP4 KECCAK256 SLOAD DUP5 DUP5 MSTORE PUSH1 0xC SWAP1 SWAP3 MSTORE SWAP1 SWAP2 KECCAK256 SWAP2 SWAP3 POP SWAP1 PUSH2 0x43E1 SWAP1 DUP6 PUSH2 0x484B JUMP JUMPDEST POP PUSH1 0x0 DUP5 DUP2 MSTORE PUSH1 0xF PUSH1 0x20 MSTORE PUSH1 0x40 DUP2 KECCAK256 SSTORE PUSH2 0x43FA DUP5 PUSH2 0x4857 JUMP JUMPDEST DUP4 PUSH1 0x0 PUSH1 0x1 PUSH1 0x1 PUSH1 0xA0 SHL SUB AND DUP5 PUSH1 0x1 PUSH1 0x1 PUSH1 0xA0 SHL SUB AND PUSH1 0x0 DUP1 MLOAD PUSH1 0x20 PUSH2 0x591D DUP4 CODECOPY DUP2 MLOAD SWAP2 MSTORE PUSH1 0x0 DUP6 PUSH1 0x40 MLOAD PUSH2 0x3EC4 SWAP3 SWAP2 SWAP1 PUSH2 0x53EA JUMP JUMPDEST PUSH1 0x0 PUSH1 0x1 PUSH1 0x1 PUSH1 0xA0 SHL SUB DUP5 AND EXTCODESIZE ISZERO PUSH2 0x4532 JUMPI PUSH1 0x40 MLOAD PUSH4 0xA85BD01 PUSH1 0xE1 SHL DUP2 MSTORE PUSH1 0x1 PUSH1 0x1 PUSH1 0xA0 SHL SUB DUP6 AND SWAP1 PUSH4 0x150B7A02 SWAP1 PUSH2 0x4474 SWAP1 CALLER SWAP1 DUP10 SWAP1 DUP9 SWAP1 DUP9 SWAP1 PUSH1 0x4 ADD PUSH2 0x52F4 JUMP JUMPDEST PUSH1 0x20 PUSH1 0x40 MLOAD DUP1 DUP4 SUB DUP2 PUSH1 0x0 DUP8 DUP1 EXTCODESIZE ISZERO DUP1 ISZERO PUSH2 0x448E JUMPI PUSH1 0x0 DUP1 REVERT JUMPDEST POP GAS CALL SWAP3 POP POP POP DUP1 ISZERO PUSH2 0x44BE JUMPI POP PUSH1 0x40 DUP1 MLOAD PUSH1 0x1F RETURNDATASIZE SWAP1 DUP2 ADD PUSH1 0x1F NOT AND DUP3 ADD SWAP1 SWAP3 MSTORE PUSH2 0x44BB SWAP2 DUP2 ADD SWAP1 PUSH2 0x506D JUMP JUMPDEST PUSH1 0x1 JUMPDEST PUSH2 0x4518 JUMPI RETURNDATASIZE DUP1 DUP1 ISZERO PUSH2 0x44EC JUMPI PUSH1 0x40 MLOAD SWAP2 POP PUSH1 0x1F NOT PUSH1 0x3F RETURNDATASIZE ADD AND DUP3 ADD PUSH1 0x40 MSTORE RETURNDATASIZE DUP3 MSTORE RETURNDATASIZE PUSH1 0x0 PUSH1 0x20 DUP5 ADD RETURNDATACOPY PUSH2 0x44F1 JUMP JUMPDEST PUSH1 0x60 SWAP2 POP JUMPDEST POP DUP1 MLOAD PUSH2 0x4510 JUMPI PUSH1 0x40 MLOAD PUSH3 0x461BCD PUSH1 0xE5 SHL DUP2 MSTORE PUSH1 0x4 ADD PUSH2 0x7FC SWAP1 PUSH2 0x5427 JUMP JUMPDEST DUP1 MLOAD DUP2 PUSH1 0x20 ADD REVERT JUMPDEST PUSH1 0x1 PUSH1 0x1 PUSH1 0xE0 SHL SUB NOT AND PUSH4 0xA85BD01 PUSH1 0xE1 SHL EQ SWAP1 POP PUSH2 0x333A JUMP JUMPDEST POP PUSH1 0x1 SWAP5 SWAP4 POP POP POP POP JUMP JUMPDEST PUSH1 0x60 PUSH1 0x40 MLOAD DUP1 PUSH1 0x60 ADD PUSH1 0x40 MSTORE DUP1 PUSH1 0x22 DUP2 MSTORE PUSH1 0x20 ADD PUSH2 0x58DB PUSH1 0x22 SWAP2 CODECOPY SWAP1 POP SWAP1 JUMP JUMPDEST PUSH1 0x60 PUSH2 0x4568 DUP3 PUSH2 0x31ED JUMP JUMPDEST PUSH2 0x45CC JUMPI PUSH1 0x40 MLOAD PUSH3 0x461BCD PUSH1 0xE5 SHL DUP2 MSTORE PUSH1 0x20 PUSH1 0x4 DUP3 ADD MSTORE PUSH1 0x2F PUSH1 0x24 DUP3 ADD MSTORE PUSH32 0x4552433732314D657461646174613A2055524920717565727920666F72206E6F PUSH1 0x44 DUP3 ADD MSTORE PUSH15 0x3732BC34B9BA32B73A103A37B5B2B7 PUSH1 0x89 SHL PUSH1 0x64 DUP3 ADD MSTORE PUSH1 0x84 ADD PUSH2 0x7FC JUMP JUMPDEST PUSH1 0x0 PUSH2 0x45D6 PUSH2 0x453D JUMP JUMPDEST SWAP1 POP PUSH1 0x0 DUP2 MLOAD GT PUSH2 0x45F6 JUMPI PUSH1 0x40 MLOAD DUP1 PUSH1 0x20 ADD PUSH1 0x40 MSTORE DUP1 PUSH1 0x0 DUP2 MSTORE POP PUSH2 0x2D0D JUMP JUMPDEST DUP1 PUSH2 0x4600 DUP5 PUSH2 0x48EC JUMP JUMPDEST PUSH1 0x40 MLOAD PUSH1 0x20 ADD PUSH2 0x4611 SWAP3 SWAP2 SWAP1 PUSH2 0x5256 JUMP JUMPDEST PUSH1 0x40 MLOAD PUSH1 0x20 DUP2 DUP4 SUB SUB DUP2 MSTORE SWAP1 PUSH1 0x40 MSTORE SWAP4 SWAP3 POP POP POP JUMP JUMPDEST PUSH1 0x0 DUP3 PUSH1 0x0 ADD DUP3 DUP2 SLOAD DUP2 LT PUSH2 0x464C JUMPI PUSH4 0x4E487B71 PUSH1 0xE0 SHL PUSH1 0x0 MSTORE PUSH1 0x32 PUSH1 0x4 MSTORE PUSH1 0x24 PUSH1 0x0 REVERT JUMPDEST SWAP1 PUSH1 0x0 MSTORE PUSH1 0x20 PUSH1 0x0 KECCAK256 ADD SLOAD SWAP1 POP SWAP3 SWAP2 POP POP JUMP JUMPDEST PUSH1 0x1 PUSH1 0x1 PUSH1 0xA0 SHL SUB DUP3 AND PUSH2 0x46B5 JUMPI PUSH1 0x40 MLOAD PUSH3 0x461BCD PUSH1 0xE5 SHL DUP2 MSTORE PUSH1 0x20 PUSH1 0x4 DUP3 ADD DUP2 SWAP1 MSTORE PUSH1 0x24 DUP3 ADD MSTORE PUSH32 0x4552433732313A206D696E7420746F20746865207A65726F2061646472657373 PUSH1 0x44 DUP3 ADD MSTORE PUSH1 0x64 ADD PUSH2 0x7FC JUMP JUMPDEST PUSH2 0x46BE DUP2 PUSH2 0x31ED JUMP JUMPDEST ISZERO PUSH2 0x470A JUMPI PUSH1 0x40 MLOAD PUSH3 0x461BCD PUSH1 0xE5 SHL DUP2 MSTORE PUSH1 0x20 PUSH1 0x4 DUP3 ADD MSTORE PUSH1 0x1C PUSH1 0x24 DUP3 ADD MSTORE PUSH28 0x115490CDCC8C4E881D1BDAD95B88185B1C9958591E481B5A5B9D1959 PUSH1 0x22 SHL PUSH1 0x44 DUP3 ADD MSTORE PUSH1 0x64 ADD PUSH2 0x7FC JUMP JUMPDEST PUSH2 0x4716 PUSH1 0x0 DUP4 DUP4 PUSH2 0x41A5 JUMP JUMPDEST PUSH1 0x1 PUSH1 0x1 PUSH1 0xA0 SHL SUB DUP3 AND PUSH1 0x0 SWAP1 DUP2 MSTORE PUSH1 0x3 PUSH1 0x20 MSTORE PUSH1 0x40 DUP2 KECCAK256 DUP1 SLOAD PUSH1 0x1 SWAP3 SWAP1 PUSH2 0x473F SWAP1 DUP5 SWAP1 PUSH2 0x5645 JUMP JUMPDEST SWAP1 SWAP2 SSTORE POP POP PUSH1 0x0 DUP2 DUP2 MSTORE PUSH1 0x2 PUSH1 0x20 MSTORE PUSH1 0x40 DUP1 DUP3 KECCAK256 DUP1 SLOAD PUSH1 0x1 PUSH1 0x1 PUSH1 0xA0 SHL SUB NOT AND PUSH1 0x1 PUSH1 0x1 PUSH1 0xA0 SHL SUB DUP7 AND SWAP1 DUP2 OR SWAP1 SWAP2 SSTORE SWAP1 MLOAD DUP4 SWAP3 SWAP1 PUSH1 0x0 DUP1 MLOAD PUSH1 0x20 PUSH2 0x58FD DUP4 CODECOPY DUP2 MLOAD SWAP2 MSTORE SWAP1 DUP3 SWAP1 LOG4 POP POP JUMP JUMPDEST PUSH1 0x0 PUSH2 0x2D0D DUP4 DUP4 PUSH2 0x4A05 JUMP JUMPDEST PUSH1 0x0 DUP2 DUP2 MSTORE PUSH1 0xB PUSH1 0x20 MSTORE PUSH1 0x40 DUP2 KECCAK256 SWAP1 JUMPDEST DUP2 SLOAD DUP2 LT ISZERO PUSH2 0x187D JUMPI DUP2 PUSH1 0x1 ADD PUSH1 0x0 DUP4 PUSH1 0x0 ADD DUP4 DUP2 SLOAD DUP2 LT PUSH2 0x47D9 JUMPI PUSH4 0x4E487B71 PUSH1 0xE0 SHL PUSH1 0x0 MSTORE PUSH1 0x32 PUSH1 0x4 MSTORE PUSH1 0x24 PUSH1 0x0 REVERT JUMPDEST PUSH1 0x0 SWAP2 DUP3 MSTORE PUSH1 0x20 DUP1 DUP4 KECCAK256 SWAP1 SWAP2 ADD SLOAD PUSH1 0x1 PUSH1 0x1 PUSH1 0xA0 SHL SUB AND DUP4 MSTORE DUP3 ADD SWAP3 SWAP1 SWAP3 MSTORE PUSH1 0x40 ADD DUP2 KECCAK256 SSTORE DUP2 SLOAD DUP3 SWAP1 DUP3 SWAP1 DUP2 LT PUSH2 0x4820 JUMPI PUSH4 0x4E487B71 PUSH1 0xE0 SHL PUSH1 0x0 MSTORE PUSH1 0x32 PUSH1 0x4 MSTORE PUSH1 0x24 PUSH1 0x0 REVERT JUMPDEST PUSH1 0x0 SWAP2 DUP3 MSTORE PUSH1 0x20 SWAP1 SWAP2 KECCAK256 ADD DUP1 SLOAD PUSH1 0x1 PUSH1 0x1 PUSH1 0xA0 SHL SUB NOT AND SWAP1 SSTORE DUP1 PUSH2 0x4843 DUP2 PUSH2 0x581A JUMP JUMPDEST SWAP2 POP POP PUSH2 0x47A7 JUMP JUMPDEST PUSH1 0x0 PUSH2 0x2D0D DUP4 DUP4 PUSH2 0x4A54 JUMP JUMPDEST PUSH1 0x0 PUSH2 0x4862 DUP3 PUSH2 0x201D JUMP JUMPDEST SWAP1 POP PUSH2 0x4870 DUP2 PUSH1 0x0 DUP5 PUSH2 0x41A5 JUMP JUMPDEST PUSH2 0x487B PUSH1 0x0 DUP4 PUSH2 0x320A JUMP JUMPDEST PUSH1 0x1 PUSH1 0x1 PUSH1 0xA0 SHL SUB DUP2 AND PUSH1 0x0 SWAP1 DUP2 MSTORE PUSH1 0x3 PUSH1 0x20 MSTORE PUSH1 0x40 DUP2 KECCAK256 DUP1 SLOAD PUSH1 0x1 SWAP3 SWAP1 PUSH2 0x48A4 SWAP1 DUP5 SWAP1 PUSH2 0x578B JUMP JUMPDEST SWAP1 SWAP2 SSTORE POP POP PUSH1 0x0 DUP3 DUP2 MSTORE PUSH1 0x2 PUSH1 0x20 MSTORE PUSH1 0x40 DUP1 DUP3 KECCAK256 DUP1 SLOAD PUSH1 0x1 PUSH1 0x1 PUSH1 0xA0 SHL SUB NOT AND SWAP1 SSTORE MLOAD DUP4 SWAP2 SWAP1 PUSH1 0x1 PUSH1 0x1 PUSH1 0xA0 SHL SUB DUP5 AND SWAP1 PUSH1 0x0 DUP1 MLOAD PUSH1 0x20 PUSH2 0x58FD DUP4 CODECOPY DUP2 MLOAD SWAP2 MSTORE SWAP1 DUP4 SWAP1 LOG4 POP POP JUMP JUMPDEST PUSH1 0x60 DUP2 PUSH2 0x4910 JUMPI POP POP PUSH1 0x40 DUP1 MLOAD DUP1 DUP3 ADD SWAP1 SWAP2 MSTORE PUSH1 0x1 DUP2 MSTORE PUSH1 0x3 PUSH1 0xFC SHL PUSH1 0x20 DUP3 ADD MSTORE SWAP1 JUMP JUMPDEST DUP2 PUSH1 0x0 JUMPDEST DUP2 ISZERO PUSH2 0x493A JUMPI DUP1 PUSH2 0x4924 DUP2 PUSH2 0x581A JUMP JUMPDEST SWAP2 POP PUSH2 0x4933 SWAP1 POP PUSH1 0xA DUP4 PUSH2 0x565D JUMP JUMPDEST SWAP2 POP PUSH2 0x4914 JUMP JUMPDEST PUSH1 0x0 DUP2 PUSH1 0x1 PUSH1 0x1 PUSH1 0x40 SHL SUB DUP2 GT ISZERO PUSH2 0x4962 JUMPI PUSH4 0x4E487B71 PUSH1 0xE0 SHL PUSH1 0x0 MSTORE PUSH1 0x41 PUSH1 0x4 MSTORE PUSH1 0x24 PUSH1 0x0 REVERT JUMPDEST PUSH1 0x40 MLOAD SWAP1 DUP1 DUP3 MSTORE DUP1 PUSH1 0x1F ADD PUSH1 0x1F NOT AND PUSH1 0x20 ADD DUP3 ADD PUSH1 0x40 MSTORE DUP1 ISZERO PUSH2 0x498C JUMPI PUSH1 0x20 DUP3 ADD DUP2 DUP1 CALLDATASIZE DUP4 CALLDATACOPY ADD SWAP1 POP JUMPDEST POP SWAP1 POP JUMPDEST DUP5 ISZERO PUSH2 0x333A JUMPI PUSH2 0x49A1 PUSH1 0x1 DUP4 PUSH2 0x578B JUMP JUMPDEST SWAP2 POP PUSH2 0x49AE PUSH1 0xA DUP7 PUSH2 0x5835 JUMP JUMPDEST PUSH2 0x49B9 SWAP1 PUSH1 0x30 PUSH2 0x5645 JUMP JUMPDEST PUSH1 0xF8 SHL DUP2 DUP4 DUP2 MLOAD DUP2 LT PUSH2 0x49DC JUMPI PUSH4 0x4E487B71 PUSH1 0xE0 SHL PUSH1 0x0 MSTORE PUSH1 0x32 PUSH1 0x4 MSTORE PUSH1 0x24 PUSH1 0x0 REVERT JUMPDEST PUSH1 0x20 ADD ADD SWAP1 PUSH1 0x1 PUSH1 0x1 PUSH1 0xF8 SHL SUB NOT AND SWAP1 DUP2 PUSH1 0x0 BYTE SWAP1 MSTORE8 POP PUSH2 0x49FE PUSH1 0xA DUP7 PUSH2 0x565D JUMP JUMPDEST SWAP5 POP PUSH2 0x4990 JUMP JUMPDEST PUSH1 0x0 DUP2 DUP2 MSTORE PUSH1 0x1 DUP4 ADD PUSH1 0x20 MSTORE PUSH1 0x40 DUP2 KECCAK256 SLOAD PUSH2 0x4A4C JUMPI POP DUP2 SLOAD PUSH1 0x1 DUP2 DUP2 ADD DUP5 SSTORE PUSH1 0x0 DUP5 DUP2 MSTORE PUSH1 0x20 DUP1 DUP3 KECCAK256 SWAP1 SWAP4 ADD DUP5 SWAP1 SSTORE DUP5 SLOAD DUP5 DUP3 MSTORE DUP3 DUP7 ADD SWAP1 SWAP4 MSTORE PUSH1 0x40 SWAP1 KECCAK256 SWAP2 SWAP1 SWAP2 SSTORE PUSH2 0x160C JUMP JUMPDEST POP PUSH1 0x0 PUSH2 0x160C JUMP JUMPDEST PUSH1 0x0 DUP2 DUP2 MSTORE PUSH1 0x1 DUP4 ADD PUSH1 0x20 MSTORE PUSH1 0x40 DUP2 KECCAK256 SLOAD DUP1 ISZERO PUSH2 0x4B67 JUMPI PUSH1 0x0 PUSH2 0x4A78 PUSH1 0x1 DUP4 PUSH2 0x578B JUMP JUMPDEST DUP6 SLOAD SWAP1 SWAP2 POP PUSH1 0x0 SWAP1 PUSH2 0x4A8C SWAP1 PUSH1 0x1 SWAP1 PUSH2 0x578B JUMP JUMPDEST SWAP1 POP DUP2 DUP2 EQ PUSH2 0x4B0D JUMPI PUSH1 0x0 DUP7 PUSH1 0x0 ADD DUP3 DUP2 SLOAD DUP2 LT PUSH2 0x4ABA JUMPI PUSH4 0x4E487B71 PUSH1 0xE0 SHL PUSH1 0x0 MSTORE PUSH1 0x32 PUSH1 0x4 MSTORE PUSH1 0x24 PUSH1 0x0 REVERT JUMPDEST SWAP1 PUSH1 0x0 MSTORE PUSH1 0x20 PUSH1 0x0 KECCAK256 ADD SLOAD SWAP1 POP DUP1 DUP8 PUSH1 0x0 ADD DUP5 DUP2 SLOAD DUP2 LT PUSH2 0x4AEB JUMPI PUSH4 0x4E487B71 PUSH1 0xE0 SHL PUSH1 0x0 MSTORE PUSH1 0x32 PUSH1 0x4 MSTORE PUSH1 0x24 PUSH1 0x0 REVERT JUMPDEST PUSH1 0x0 SWAP2 DUP3 MSTORE PUSH1 0x20 DUP1 DUP4 KECCAK256 SWAP1 SWAP2 ADD SWAP3 SWAP1 SWAP3 SSTORE SWAP2 DUP3 MSTORE PUSH1 0x1 DUP9 ADD SWAP1 MSTORE PUSH1 0x40 SWAP1 KECCAK256 DUP4 SWAP1 SSTORE JUMPDEST DUP6 SLOAD DUP7 SWAP1 DUP1 PUSH2 0x4B2C JUMPI PUSH4 0x4E487B71 PUSH1 0xE0 SHL PUSH1 0x0 MSTORE PUSH1 0x31 PUSH1 0x4 MSTORE PUSH1 0x24 PUSH1 0x0 REVERT JUMPDEST PUSH1 0x1 SWAP1 SUB DUP2 DUP2 SWAP1 PUSH1 0x0 MSTORE PUSH1 0x20 PUSH1 0x0 KECCAK256 ADD PUSH1 0x0 SWAP1 SSTORE SWAP1 SSTORE DUP6 PUSH1 0x1 ADD PUSH1 0x0 DUP7 DUP2 MSTORE PUSH1 0x20 ADD SWAP1 DUP2 MSTORE PUSH1 0x20 ADD PUSH1 0x0 KECCAK256 PUSH1 0x0 SWAP1 SSTORE PUSH1 0x1 SWAP4 POP POP POP POP PUSH2 0x160C JUMP JUMPDEST PUSH1 0x0 SWAP2 POP POP PUSH2 0x160C JUMP JUMPDEST PUSH1 0x40 DUP1 MLOAD PUSH1 0xE0 DUP2 ADD SWAP1 SWAP2 MSTORE DUP1 PUSH1 0x0 DUP2 MSTORE PUSH1 0x20 ADD PUSH1 0x0 DUP2 MSTORE PUSH1 0x20 ADD PUSH1 0x0 DUP2 MSTORE PUSH1 0x20 ADD PUSH1 0x0 DUP2 MSTORE PUSH1 0x20 ADD PUSH1 0x0 DUP2 MSTORE PUSH1 0x20 ADD PUSH1 0x0 DUP2 MSTORE PUSH1 0x20 ADD PUSH1 0x0 PUSH1 0x2 DUP2 GT ISZERO PUSH2 0x4BC8 JUMPI PUSH4 0x4E487B71 PUSH1 0xE0 SHL PUSH1 0x0 MSTORE PUSH1 0x21 PUSH1 0x4 MSTORE PUSH1 0x24 PUSH1 0x0 REVERT JUMPDEST SWAP1 MSTORE SWAP1 JUMP JUMPDEST DUP3 DUP1 SLOAD PUSH2 0x4BD9 SWAP1 PUSH2 0x57E5 JUMP JUMPDEST SWAP1 PUSH1 0x0 MSTORE PUSH1 0x20 PUSH1 0x0 KECCAK256 SWAP1 PUSH1 0x1F ADD PUSH1 0x20 SWAP1 DIV DUP2 ADD SWAP3 DUP3 PUSH2 0x4BFB JUMPI PUSH1 0x0 DUP6 SSTORE PUSH2 0x4C41 JUMP JUMPDEST DUP3 PUSH1 0x1F LT PUSH2 0x4C14 JUMPI DUP1 MLOAD PUSH1 0xFF NOT AND DUP4 DUP1 ADD OR DUP6 SSTORE PUSH2 0x4C41 JUMP JUMPDEST DUP3 DUP1 ADD PUSH1 0x1 ADD DUP6 SSTORE DUP3 ISZERO PUSH2 0x4C41 JUMPI SWAP2 DUP3 ADD JUMPDEST DUP3 DUP2 GT ISZERO PUSH2 0x4C41 JUMPI DUP3 MLOAD DUP3 SSTORE SWAP2 PUSH1 0x20 ADD SWAP2 SWAP1 PUSH1 0x1 ADD SWAP1 PUSH2 0x4C26 JUMP JUMPDEST POP PUSH2 0x4C4D SWAP3 SWAP2 POP PUSH2 0x4C51 JUMP JUMPDEST POP SWAP1 JUMP JUMPDEST JUMPDEST DUP1 DUP3 GT ISZERO PUSH2 0x4C4D JUMPI PUSH1 0x0 DUP2 SSTORE PUSH1 0x1 ADD PUSH2 0x4C52 JUMP JUMPDEST PUSH1 0x0 PUSH1 0x1 PUSH1 0x1 PUSH1 0x40 SHL SUB DUP1 DUP5 GT ISZERO PUSH2 0x4C80 JUMPI PUSH2 0x4C80 PUSH2 0x588B JUMP JUMPDEST PUSH1 0x40 MLOAD PUSH1 0x1F DUP6 ADD PUSH1 0x1F NOT SWAP1 DUP2 AND PUSH1 0x3F ADD AND DUP2 ADD SWAP1 DUP3 DUP3 GT DUP2 DUP4 LT OR ISZERO PUSH2 0x4CA8 JUMPI PUSH2 0x4CA8 PUSH2 0x588B JUMP JUMPDEST DUP2 PUSH1 0x40 MSTORE DUP1 SWAP4 POP DUP6 DUP2 MSTORE DUP7 DUP7 DUP7 ADD GT ISZERO PUSH2 0x4CC1 JUMPI PUSH1 0x0 DUP1 REVERT JUMPDEST DUP6 DUP6 PUSH1 0x20 DUP4 ADD CALLDATACOPY PUSH1 0x0 PUSH1 0x20 DUP8 DUP4 ADD ADD MSTORE POP POP POP SWAP4 SWAP3 POP POP POP JUMP JUMPDEST PUSH1 0x0 DUP1 DUP4 PUSH1 0x1F DUP5 ADD SLT PUSH2 0x4CEC JUMPI DUP2 DUP3 REVERT JUMPDEST POP DUP2 CALLDATALOAD PUSH1 0x1 PUSH1 0x1 PUSH1 0x40 SHL SUB DUP2 GT ISZERO PUSH2 0x4D02 JUMPI DUP2 DUP3 REVERT JUMPDEST PUSH1 0x20 DUP4 ADD SWAP2 POP DUP4 PUSH1 0x20 DUP3 PUSH1 0x5 SHL DUP6 ADD ADD GT ISZERO PUSH2 0x4D1D JUMPI PUSH1 0x0 DUP1 REVERT JUMPDEST SWAP3 POP SWAP3 SWAP1 POP JUMP JUMPDEST PUSH1 0x0 PUSH1 0x20 DUP3 DUP5 SUB SLT ISZERO PUSH2 0x4D35 JUMPI DUP1 DUP2 REVERT JUMPDEST DUP2 CALLDATALOAD PUSH2 0x2D0D DUP2 PUSH2 0x58A1 JUMP JUMPDEST PUSH1 0x0 PUSH1 0x20 DUP3 DUP5 SUB SLT ISZERO PUSH2 0x4D51 JUMPI DUP1 DUP2 REVERT JUMPDEST DUP2 MLOAD PUSH2 0x2D0D DUP2 PUSH2 0x58A1 JUMP JUMPDEST PUSH1 0x0 DUP1 PUSH1 0x40 DUP4 DUP6 SUB SLT ISZERO PUSH2 0x4D6E JUMPI DUP1 DUP2 REVERT JUMPDEST DUP3 CALLDATALOAD PUSH2 0x4D79 DUP2 PUSH2 0x58A1 JUMP JUMPDEST SWAP2 POP PUSH1 0x20 DUP4 ADD CALLDATALOAD PUSH2 0x4D89 DUP2 PUSH2 0x58A1 JUMP JUMPDEST DUP1 SWAP2 POP POP SWAP3 POP SWAP3 SWAP1 POP JUMP JUMPDEST PUSH1 0x0 DUP1 PUSH1 0x0 PUSH1 0x60 DUP5 DUP7 SUB SLT ISZERO PUSH2 0x4DA8 JUMPI DUP1 DUP2 REVERT JUMPDEST DUP4 CALLDATALOAD PUSH2 0x4DB3 DUP2 PUSH2 0x58A1 JUMP JUMPDEST SWAP3 POP PUSH1 0x20 DUP5 ADD CALLDATALOAD PUSH2 0x4DC3 DUP2 PUSH2 0x58A1 JUMP JUMPDEST SWAP3 SWAP6 SWAP3 SWAP5 POP POP POP PUSH1 0x40 SWAP2 SWAP1 SWAP2 ADD CALLDATALOAD SWAP1 JUMP JUMPDEST PUSH1 0x0 DUP1 PUSH1 0x0 DUP1 PUSH1 0x80 DUP6 DUP8 SUB SLT ISZERO PUSH2 0x4DE9 JUMPI DUP1 DUP2 REVERT JUMPDEST DUP5 CALLDATALOAD PUSH2 0x4DF4 DUP2 PUSH2 0x58A1 JUMP JUMPDEST SWAP4 POP PUSH1 0x20 DUP6 ADD CALLDATALOAD PUSH2 0x4E04 DUP2 PUSH2 0x58A1 JUMP JUMPDEST SWAP3 POP PUSH1 0x40 DUP6 ADD CALLDATALOAD SWAP2 POP PUSH1 0x60 DUP6 ADD CALLDATALOAD PUSH1 0x1 PUSH1 0x1 PUSH1 0x40 SHL SUB DUP2 GT ISZERO PUSH2 0x4E25 JUMPI DUP2 DUP3 REVERT JUMPDEST DUP6 ADD PUSH1 0x1F DUP2 ADD DUP8 SGT PUSH2 0x4E35 JUMPI DUP2 DUP3 REVERT JUMPDEST PUSH2 0x4E44 DUP8 DUP3 CALLDATALOAD PUSH1 0x20 DUP5 ADD PUSH2 0x4C66 JUMP JUMPDEST SWAP2 POP POP SWAP3 SWAP6 SWAP2 SWAP5 POP SWAP3 POP JUMP JUMPDEST PUSH1 0x0 DUP1 PUSH1 0x0 DUP1 PUSH1 0x80 DUP6 DUP8 SUB SLT ISZERO PUSH2 0x4E65 JUMPI DUP4 DUP5 REVERT JUMPDEST DUP5 CALLDATALOAD PUSH2 0x4E70 DUP2 PUSH2 0x58A1 JUMP JUMPDEST SWAP4 POP PUSH1 0x20 DUP6 ADD CALLDATALOAD PUSH2 0x4E80 DUP2 PUSH2 0x58A1 JUMP JUMPDEST SWAP4 SWAP7 SWAP4 SWAP6 POP POP POP POP PUSH1 0x40 DUP3 ADD CALLDATALOAD SWAP2 PUSH1 0x60 ADD CALLDATALOAD SWAP1 JUMP JUMPDEST PUSH1 0x0 DUP1 PUSH1 0x0 DUP1 PUSH1 0x0 PUSH1 0xA0 DUP7 DUP9 SUB SLT ISZERO PUSH2 0x4EAC JUMPI DUP1 DUP2 REVERT JUMPDEST DUP6 CALLDATALOAD PUSH2 0x4EB7 DUP2 PUSH2 0x58A1 JUMP JUMPDEST SWAP5 POP PUSH1 0x20 DUP7 ADD CALLDATALOAD PUSH2 0x4EC7 DUP2 PUSH2 0x58A1 JUMP JUMPDEST SWAP5 SWAP8 SWAP5 SWAP7 POP POP POP POP PUSH1 0x40 DUP4 ADD CALLDATALOAD SWAP3 PUSH1 0x60 DUP2 ADD CALLDATALOAD SWAP3 PUSH1 0x80 SWAP1 SWAP2 ADD CALLDATALOAD SWAP2 POP JUMP JUMPDEST PUSH1 0x0 DUP1 PUSH1 0x40 DUP4 DUP6 SUB SLT ISZERO PUSH2 0x4EF7 JUMPI DUP2 DUP3 REVERT JUMPDEST DUP3 CALLDATALOAD PUSH2 0x4F02 DUP2 PUSH2 0x58A1 JUMP JUMPDEST SWAP2 POP PUSH1 0x20 DUP4 ADD CALLDATALOAD PUSH2 0x4D89 DUP2 PUSH2 0x58B6 JUMP JUMPDEST PUSH1 0x0 DUP1 PUSH1 0x40 DUP4 DUP6 SUB SLT ISZERO PUSH2 0x4F24 JUMPI DUP2 DUP3 REVERT JUMPDEST DUP3 CALLDATALOAD PUSH2 0x4F2F DUP2 PUSH2 0x58A1 JUMP JUMPDEST SWAP5 PUSH1 0x20 SWAP4 SWAP1 SWAP4 ADD CALLDATALOAD SWAP4 POP POP POP JUMP JUMPDEST PUSH1 0x0 DUP1 PUSH1 0x0 PUSH1 0x60 DUP5 DUP7 SUB SLT ISZERO PUSH2 0x4F51 JUMPI DUP1 DUP2 REVERT JUMPDEST DUP4 CALLDATALOAD PUSH2 0x4F5C DUP2 PUSH2 0x58A1 JUMP JUMPDEST SWAP6 PUSH1 0x20 DUP6 ADD CALLDATALOAD SWAP6 POP PUSH1 0x40 SWAP1 SWAP5 ADD CALLDATALOAD SWAP4 SWAP3 POP POP POP JUMP JUMPDEST PUSH1 0x0 DUP1 PUSH1 0x20 DUP4 DUP6 SUB SLT ISZERO PUSH2 0x4F83 JUMPI DUP2 DUP3 REVERT JUMPDEST DUP3 CALLDATALOAD PUSH1 0x1 PUSH1 0x1 PUSH1 0x40 SHL SUB DUP2 GT ISZERO PUSH2 0x4F98 JUMPI DUP3 DUP4 REVERT JUMPDEST PUSH2 0x4FA4 DUP6 DUP3 DUP7 ADD PUSH2 0x4CDB JUMP JUMPDEST SWAP1 SWAP7 SWAP1 SWAP6 POP SWAP4 POP POP POP POP JUMP JUMPDEST PUSH1 0x0 DUP1 PUSH1 0x0 PUSH1 0x40 DUP5 DUP7 SUB SLT ISZERO PUSH2 0x4FC4 JUMPI DUP1 DUP2 REVERT JUMPDEST DUP4 CALLDATALOAD PUSH1 0x1 PUSH1 0x1 PUSH1 0x40 SHL SUB DUP2 GT ISZERO PUSH2 0x4FD9 JUMPI DUP2 DUP3 REVERT JUMPDEST PUSH2 0x4FE5 DUP7 DUP3 DUP8 ADD PUSH2 0x4CDB JUMP JUMPDEST SWAP1 SWAP8 SWAP1 SWAP7 POP PUSH1 0x20 SWAP6 SWAP1 SWAP6 ADD CALLDATALOAD SWAP5 SWAP4 POP POP POP POP JUMP JUMPDEST PUSH1 0x0 PUSH1 0x20 DUP3 DUP5 SUB SLT ISZERO PUSH2 0x500A JUMPI DUP1 DUP2 REVERT JUMPDEST DUP2 MLOAD PUSH2 0x2D0D DUP2 PUSH2 0x58B6 JUMP JUMPDEST PUSH1 0x0 PUSH1 0x20 DUP3 DUP5 SUB SLT ISZERO PUSH2 0x5026 JUMPI DUP1 DUP2 REVERT JUMPDEST POP CALLDATALOAD SWAP2 SWAP1 POP JUMP JUMPDEST PUSH1 0x0 DUP1 PUSH1 0x40 DUP4 DUP6 SUB SLT ISZERO PUSH2 0x503F JUMPI DUP2 DUP3 REVERT JUMPDEST DUP3 CALLDATALOAD SWAP2 POP PUSH1 0x20 DUP4 ADD CALLDATALOAD PUSH2 0x4D89 DUP2 PUSH2 0x58A1 JUMP JUMPDEST PUSH1 0x0 PUSH1 0x20 DUP3 DUP5 SUB SLT ISZERO PUSH2 0x5062 JUMPI DUP1 DUP2 REVERT JUMPDEST DUP2 CALLDATALOAD PUSH2 0x2D0D DUP2 PUSH2 0x58C4 JUMP JUMPDEST PUSH1 0x0 PUSH1 0x20 DUP3 DUP5 SUB SLT ISZERO PUSH2 0x507E JUMPI DUP1 DUP2 REVERT JUMPDEST DUP2 MLOAD PUSH2 0x2D0D DUP2 PUSH2 0x58C4 JUMP JUMPDEST PUSH1 0x0 PUSH1 0x20 DUP3 DUP5 SUB SLT ISZERO PUSH2 0x509A JUMPI DUP1 DUP2 REVERT JUMPDEST POP MLOAD SWAP2 SWAP1 POP JUMP JUMPDEST PUSH1 0x0 DUP1 PUSH1 0x0 PUSH1 0x40 DUP5 DUP7 SUB SLT ISZERO PUSH2 0x50B5 JUMPI DUP1 DUP2 REVERT JUMPDEST DUP4 CALLDATALOAD SWAP3 POP PUSH1 0x20 DUP5 ADD CALLDATALOAD PUSH1 0x1 PUSH1 0x1 PUSH1 0x40 SHL SUB DUP2 GT ISZERO PUSH2 0x50D1 JUMPI DUP2 DUP3 REVERT JUMPDEST PUSH2 0x50DD DUP7 DUP3 DUP8 ADD PUSH2 0x4CDB JUMP JUMPDEST SWAP5 SWAP8 SWAP1 SWAP7 POP SWAP4 SWAP5 POP POP POP POP JUMP JUMPDEST PUSH1 0x0 DUP1 PUSH1 0x40 DUP4 DUP6 SUB SLT ISZERO PUSH2 0x50FC JUMPI DUP2 DUP3 REVERT JUMPDEST DUP3 CALLDATALOAD SWAP2 POP PUSH1 0x20 DUP4 ADD CALLDATALOAD PUSH1 0x1 PUSH1 0x1 PUSH1 0x40 SHL SUB DUP2 GT ISZERO PUSH2 0x5118 JUMPI DUP2 DUP3 REVERT JUMPDEST DUP4 ADD PUSH1 0x1F DUP2 ADD DUP6 SGT PUSH2 0x5128 JUMPI DUP2 DUP3 REVERT JUMPDEST PUSH2 0x5137 DUP6 DUP3 CALLDATALOAD PUSH1 0x20 DUP5 ADD PUSH2 0x4C66 JUMP JUMPDEST SWAP2 POP POP SWAP3 POP SWAP3 SWAP1 POP JUMP JUMPDEST PUSH1 0x0 DUP1 PUSH1 0x40 DUP4 DUP6 SUB SLT ISZERO PUSH2 0x5153 JUMPI DUP2 DUP3 REVERT JUMPDEST POP POP DUP1 CALLDATALOAD SWAP3 PUSH1 0x20 SWAP1 SWAP2 ADD CALLDATALOAD SWAP2 POP JUMP JUMPDEST PUSH1 0x0 DUP1 PUSH1 0x40 DUP4 DUP6 SUB SLT ISZERO PUSH2 0x5174 JUMPI DUP2 DUP3 REVERT JUMPDEST POP POP DUP1 MLOAD PUSH1 0x20 SWAP1 SWAP2 ADD MLOAD SWAP1 SWAP3 SWAP1 SWAP2 POP JUMP JUMPDEST PUSH1 0x0 DUP1 PUSH1 0x0 PUSH1 0x60 DUP5 DUP7 SUB SLT ISZERO PUSH2 0x5199 JUMPI DUP1 DUP2 REVERT JUMPDEST DUP4 MLOAD SWAP3 POP PUSH1 0x20 DUP5 ADD MLOAD SWAP2 POP PUSH1 0x40 DUP5 ADD MLOAD SWAP1 POP SWAP3 POP SWAP3 POP SWAP3 JUMP JUMPDEST PUSH1 0x0 DUP1 PUSH1 0x0 DUP1 PUSH1 0x80 DUP6 DUP8 SUB SLT ISZERO PUSH2 0x51C7 JUMPI DUP2 DUP3 REVERT JUMPDEST DUP5 CALLDATALOAD SWAP4 POP PUSH1 0x20 DUP6 ADD CALLDATALOAD SWAP3 POP PUSH1 0x40 DUP6 ADD CALLDATALOAD SWAP2 POP PUSH1 0x60 DUP6 ADD CALLDATALOAD PUSH1 0x3 DUP2 LT PUSH2 0x51EA JUMPI DUP2 DUP3 REVERT JUMPDEST SWAP4 SWAP7 SWAP3 SWAP6 POP SWAP1 SWAP4 POP POP JUMP JUMPDEST PUSH1 0x0 PUSH1 0x20 DUP3 DUP5 SUB SLT ISZERO PUSH2 0x5206 JUMPI DUP1 DUP2 REVERT JUMPDEST DUP2 MLOAD PUSH1 0xFF DUP2 AND DUP2 EQ PUSH2 0x2D0D JUMPI DUP2 DUP3 REVERT JUMPDEST PUSH1 0x0 DUP2 MLOAD DUP1 DUP5 MSTORE PUSH2 0x522E DUP2 PUSH1 0x20 DUP7 ADD PUSH1 0x20 DUP7 ADD PUSH2 0x57A2 JUMP JUMPDEST PUSH1 0x1F ADD PUSH1 0x1F NOT AND SWAP3 SWAP1 SWAP3 ADD PUSH1 0x20 ADD SWAP3 SWAP2 POP POP JUMP JUMPDEST PUSH1 0x3 DUP2 LT PUSH2 0x5252 JUMPI PUSH2 0x5252 PUSH2 0x5875 JUMP JUMPDEST SWAP1 MSTORE JUMP JUMPDEST PUSH1 0x0 DUP4 MLOAD PUSH2 0x5268 DUP2 DUP5 PUSH1 0x20 DUP9 ADD PUSH2 0x57A2 JUMP JUMPDEST DUP4 MLOAD SWAP1 DUP4 ADD SWAP1 PUSH2 0x527C DUP2 DUP4 PUSH1 0x20 DUP9 ADD PUSH2 0x57A2 JUMP JUMPDEST ADD SWAP5 SWAP4 POP POP POP POP JUMP JUMPDEST PUSH23 0x20B1B1B2B9B9A1B7B73A3937B61D1030B1B1B7BAB73A1 PUSH1 0x4D SHL DUP2 MSTORE PUSH1 0x0 DUP4 MLOAD PUSH2 0x52B7 DUP2 PUSH1 0x17 DUP6 ADD PUSH1 0x20 DUP9 ADD PUSH2 0x57A2 JUMP JUMPDEST PUSH17 0x1034B99036B4B9B9B4B733903937B6329 PUSH1 0x7D SHL PUSH1 0x17 SWAP2 DUP5 ADD SWAP2 DUP3 ADD MSTORE DUP4 MLOAD PUSH2 0x52E8 DUP2 PUSH1 0x28 DUP5 ADD PUSH1 0x20 DUP9 ADD PUSH2 0x57A2 JUMP JUMPDEST ADD PUSH1 0x28 ADD SWAP5 SWAP4 POP POP POP POP JUMP JUMPDEST PUSH1 0x1 PUSH1 0x1 PUSH1 0xA0 SHL SUB DUP6 DUP2 AND DUP3 MSTORE DUP5 AND PUSH1 0x20 DUP3 ADD MSTORE PUSH1 0x40 DUP2 ADD DUP4 SWAP1 MSTORE PUSH1 0x80 PUSH1 0x60 DUP3 ADD DUP2 SWAP1 MSTORE PUSH1 0x0 SWAP1 PUSH2 0x5327 SWAP1 DUP4 ADD DUP5 PUSH2 0x5216 JUMP JUMPDEST SWAP7 SWAP6 POP POP POP POP POP POP JUMP JUMPDEST PUSH1 0x1 PUSH1 0x1 PUSH1 0xA0 SHL SUB SWAP3 SWAP1 SWAP3 AND DUP3 MSTORE PUSH1 0x20 DUP3 ADD MSTORE PUSH1 0x40 ADD SWAP1 JUMP JUMPDEST PUSH1 0x20 DUP1 DUP3 MSTORE DUP3 MLOAD DUP3 DUP3 ADD DUP2 SWAP1 MSTORE PUSH1 0x0 SWAP2 SWAP1 DUP5 DUP3 ADD SWAP1 PUSH1 0x40 DUP6 ADD SWAP1 DUP5 JUMPDEST DUP2 DUP2 LT ISZERO PUSH2 0x5382 JUMPI DUP4 MLOAD DUP4 MSTORE SWAP3 DUP5 ADD SWAP3 SWAP2 DUP5 ADD SWAP2 PUSH1 0x1 ADD PUSH2 0x5366 JUMP JUMPDEST POP SWAP1 SWAP7 SWAP6 POP POP POP POP POP POP JUMP JUMPDEST PUSH1 0x20 DUP2 ADD PUSH2 0x160C DUP3 DUP5 PUSH2 0x5242 JUMP JUMPDEST PUSH1 0xE0 DUP2 ADD PUSH1 0x4 DUP10 LT PUSH2 0x53B0 JUMPI PUSH2 0x53B0 PUSH2 0x5875 JUMP JUMPDEST DUP9 DUP3 MSTORE DUP8 PUSH1 0x20 DUP4 ADD MSTORE DUP7 PUSH1 0x40 DUP4 ADD MSTORE DUP6 PUSH1 0x60 DUP4 ADD MSTORE DUP5 PUSH1 0x80 DUP4 ADD MSTORE DUP4 PUSH1 0xA0 DUP4 ADD MSTORE PUSH2 0x53DE PUSH1 0xC0 DUP4 ADD DUP5 PUSH2 0x5242 JUMP JUMPDEST SWAP9 SWAP8 POP POP POP POP POP POP POP POP JUMP JUMPDEST SWAP2 DUP3 MSTORE PUSH1 0x20 DUP3 ADD MSTORE PUSH1 0x40 ADD SWAP1 JUMP JUMPDEST PUSH1 0x20 DUP2 MSTORE PUSH1 0x0 PUSH2 0x2D0D PUSH1 0x20 DUP4 ADD DUP5 PUSH2 0x5216 JUMP JUMPDEST PUSH1 0x20 DUP1 DUP3 MSTORE PUSH1 0x2 SWAP1 DUP3 ADD MSTORE PUSH2 0x4F39 PUSH1 0xF0 SHL PUSH1 0x40 DUP3 ADD MSTORE PUSH1 0x60 ADD SWAP1 JUMP JUMPDEST PUSH1 0x20 DUP1 DUP3 MSTORE PUSH1 0x32 SWAP1 DUP3 ADD MSTORE PUSH32 0x4552433732313A207472616E7366657220746F206E6F6E204552433732315265 PUSH1 0x40 DUP3 ADD MSTORE PUSH18 0x31B2B4BB32B91034B6B83632B6B2B73A32B9 PUSH1 0x71 SHL PUSH1 0x60 DUP3 ADD MSTORE PUSH1 0x80 ADD SWAP1 JUMP JUMPDEST PUSH1 0x20 DUP1 DUP3 MSTORE PUSH1 0x3 SWAP1 DUP3 ADD MSTORE PUSH3 0x4F323 PUSH1 0xEC SHL PUSH1 0x40 DUP3 ADD MSTORE PUSH1 0x60 ADD SWAP1 JUMP JUMPDEST PUSH1 0x20 DUP1 DUP3 MSTORE PUSH1 0x2 SWAP1 DUP3 ADD MSTORE PUSH2 0x4E37 PUSH1 0xF0 SHL PUSH1 0x40 DUP3 ADD MSTORE PUSH1 0x60 ADD SWAP1 JUMP JUMPDEST PUSH1 0x20 DUP1 DUP3 MSTORE DUP2 DUP2 ADD MSTORE PUSH32 0x4F776E61626C653A2063616C6C6572206973206E6F7420746865206F776E6572 PUSH1 0x40 DUP3 ADD MSTORE PUSH1 0x60 ADD SWAP1 JUMP JUMPDEST PUSH1 0x20 DUP1 DUP3 MSTORE PUSH1 0x31 SWAP1 DUP3 ADD MSTORE PUSH32 0x4552433732313A207472616E736665722063616C6C6572206973206E6F74206F PUSH1 0x40 DUP3 ADD MSTORE PUSH17 0x1DDB995C881B9BDC88185C1C1C9BDD9959 PUSH1 0x7A SHL PUSH1 0x60 DUP3 ADD MSTORE PUSH1 0x80 ADD SWAP1 JUMP JUMPDEST PUSH1 0x20 DUP1 DUP3 MSTORE PUSH1 0x2 SWAP1 DUP3 ADD MSTORE PUSH2 0x4F31 PUSH1 0xF0 SHL PUSH1 0x40 DUP3 ADD MSTORE PUSH1 0x60 ADD SWAP1 JUMP JUMPDEST PUSH1 0x20 DUP1 DUP3 MSTORE PUSH1 0x2 SWAP1 DUP3 ADD MSTORE PUSH2 0x13CD PUSH1 0xF2 SHL PUSH1 0x40 DUP3 ADD MSTORE PUSH1 0x60 ADD SWAP1 JUMP JUMPDEST DUP5 DUP2 MSTORE PUSH1 0x20 DUP2 ADD DUP5 SWAP1 MSTORE PUSH1 0x80 DUP2 ADD PUSH2 0x558B PUSH1 0x40 DUP4 ADD DUP6 PUSH2 0x5242 JUMP JUMPDEST DUP3 ISZERO ISZERO PUSH1 0x60 DUP4 ADD MSTORE SWAP6 SWAP5 POP POP POP POP POP JUMP JUMPDEST DUP5 DUP2 MSTORE PUSH1 0x20 DUP2 ADD DUP5 SWAP1 MSTORE PUSH1 0x80 DUP2 ADD PUSH2 0x55B7 PUSH1 0x40 DUP4 ADD DUP6 PUSH2 0x5242 JUMP JUMPDEST DUP3 PUSH1 0x60 DUP4 ADD MSTORE SWAP6 SWAP5 POP POP POP POP POP JUMP JUMPDEST DUP4 DUP2 MSTORE DUP3 PUSH1 0x20 DUP3 ADD MSTORE PUSH1 0x60 PUSH1 0x40 DUP3 ADD MSTORE PUSH1 0x0 PUSH2 0x394E PUSH1 0x60 DUP4 ADD DUP5 PUSH2 0x5216 JUMP JUMPDEST SWAP3 DUP4 MSTORE PUSH1 0x20 DUP4 ADD SWAP2 SWAP1 SWAP2 MSTORE PUSH1 0x40 DUP3 ADD MSTORE PUSH1 0x60 ADD SWAP1 JUMP JUMPDEST DUP8 DUP2 MSTORE PUSH1 0x20 DUP2 ADD DUP8 SWAP1 MSTORE PUSH1 0x40 DUP2 ADD DUP7 SWAP1 MSTORE PUSH1 0xE0 DUP2 ADD PUSH2 0x561D PUSH1 0x60 DUP4 ADD DUP8 PUSH2 0x5242 JUMP JUMPDEST PUSH1 0x80 DUP3 ADD SWAP5 SWAP1 SWAP5 MSTORE PUSH1 0x1 PUSH1 0x1 PUSH1 0xA0 SHL SUB SWAP3 DUP4 AND PUSH1 0xA0 DUP3 ADD MSTORE SWAP2 AND PUSH1 0xC0 SWAP1 SWAP2 ADD MSTORE SWAP5 SWAP4 POP POP POP POP JUMP JUMPDEST PUSH1 0x0 DUP3 NOT DUP3 GT ISZERO PUSH2 0x5658 JUMPI PUSH2 0x5658 PUSH2 0x5849 JUMP JUMPDEST POP ADD SWAP1 JUMP JUMPDEST PUSH1 0x0 DUP3 PUSH2 0x566C JUMPI PUSH2 0x566C PUSH2 0x585F JUMP JUMPDEST POP DIV SWAP1 JUMP JUMPDEST PUSH1 0x1 DUP2 DUP2 JUMPDEST DUP1 DUP6 GT ISZERO PUSH2 0x56AC JUMPI DUP2 PUSH1 0x0 NOT DIV DUP3 GT ISZERO PUSH2 0x5692 JUMPI PUSH2 0x5692 PUSH2 0x5849 JUMP JUMPDEST DUP1 DUP6 AND ISZERO PUSH2 0x569F JUMPI SWAP2 DUP2 MUL SWAP2 JUMPDEST SWAP4 DUP5 SHR SWAP4 SWAP1 DUP1 MUL SWAP1 PUSH2 0x5676 JUMP JUMPDEST POP SWAP3 POP SWAP3 SWAP1 POP JUMP JUMPDEST PUSH1 0x0 PUSH2 0x2D0D DUP4 DUP4 PUSH2 0x56CB JUMP JUMPDEST PUSH1 0x0 PUSH2 0x2D0D PUSH1 0xFF DUP5 AND DUP4 JUMPDEST PUSH1 0x0 DUP3 PUSH2 0x56DA JUMPI POP PUSH1 0x1 PUSH2 0x160C JUMP JUMPDEST DUP2 PUSH2 0x56E7 JUMPI POP PUSH1 0x0 PUSH2 0x160C JUMP JUMPDEST DUP2 PUSH1 0x1 DUP2 EQ PUSH2 0x56FD JUMPI PUSH1 0x2 DUP2 EQ PUSH2 0x5707 JUMPI PUSH2 0x5723 JUMP JUMPDEST PUSH1 0x1 SWAP2 POP POP PUSH2 0x160C JUMP JUMPDEST PUSH1 0xFF DUP5 GT ISZERO PUSH2 0x5718 JUMPI PUSH2 0x5718 PUSH2 0x5849 JUMP JUMPDEST POP POP PUSH1 0x1 DUP3 SHL PUSH2 0x160C JUMP JUMPDEST POP PUSH1 0x20 DUP4 LT PUSH2 0x133 DUP4 LT AND PUSH1 0x4E DUP5 LT PUSH1 0xB DUP5 LT AND OR ISZERO PUSH2 0x5746 JUMPI POP DUP2 DUP2 EXP PUSH2 0x160C JUMP JUMPDEST PUSH2 0x5750 DUP4 DUP4 PUSH2 0x5671 JUMP JUMPDEST DUP1 PUSH1 0x0 NOT DIV DUP3 GT ISZERO PUSH2 0x5764 JUMPI PUSH2 0x5764 PUSH2 0x5849 JUMP JUMPDEST MUL SWAP4 SWAP3 POP POP POP JUMP JUMPDEST PUSH1 0x0 DUP2 PUSH1 0x0 NOT DIV DUP4 GT DUP3 ISZERO ISZERO AND ISZERO PUSH2 0x5786 JUMPI PUSH2 0x5786 PUSH2 0x5849 JUMP JUMPDEST POP MUL SWAP1 JUMP JUMPDEST PUSH1 0x0 DUP3 DUP3 LT ISZERO PUSH2 0x579D JUMPI PUSH2 0x579D PUSH2 0x5849 JUMP JUMPDEST POP SUB SWAP1 JUMP JUMPDEST PUSH1 0x0 JUMPDEST DUP4 DUP2 LT ISZERO PUSH2 0x57BD JUMPI DUP2 DUP2 ADD MLOAD DUP4 DUP3 ADD MSTORE PUSH1 0x20 ADD PUSH2 0x57A5 JUMP JUMPDEST DUP4 DUP2 GT ISZERO PUSH2 0x2017 JUMPI POP POP PUSH1 0x0 SWAP2 ADD MSTORE JUMP JUMPDEST PUSH1 0x0 DUP2 PUSH2 0x57DD JUMPI PUSH2 0x57DD PUSH2 0x5849 JUMP JUMPDEST POP PUSH1 0x0 NOT ADD SWAP1 JUMP JUMPDEST PUSH1 0x1 DUP2 DUP2 SHR SWAP1 DUP3 AND DUP1 PUSH2 0x57F9 JUMPI PUSH1 0x7F DUP3 AND SWAP2 POP JUMPDEST PUSH1 0x20 DUP3 LT DUP2 EQ ISZERO PUSH2 0x16E3 JUMPI PUSH4 0x4E487B71 PUSH1 0xE0 SHL PUSH1 0x0 MSTORE PUSH1 0x22 PUSH1 0x4 MSTORE PUSH1 0x24 PUSH1 0x0 REVERT JUMPDEST PUSH1 0x0 PUSH1 0x0 NOT DUP3 EQ ISZERO PUSH2 0x582E JUMPI PUSH2 0x582E PUSH2 0x5849 JUMP JUMPDEST POP PUSH1 0x1 ADD SWAP1 JUMP JUMPDEST PUSH1 0x0 DUP3 PUSH2 0x5844 JUMPI PUSH2 0x5844 PUSH2 0x585F JUMP JUMPDEST POP MOD SWAP1 JUMP JUMPDEST PUSH4 0x4E487B71 PUSH1 0xE0 SHL PUSH1 0x0 MSTORE PUSH1 0x11 PUSH1 0x4 MSTORE PUSH1 0x24 PUSH1 0x0 REVERT JUMPDEST PUSH4 0x4E487B71 PUSH1 0xE0 SHL PUSH1 0x0 MSTORE PUSH1 0x12 PUSH1 0x4 MSTORE PUSH1 0x24 PUSH1 0x0 REVERT JUMPDEST PUSH4 0x4E487B71 PUSH1 0xE0 SHL PUSH1 0x0 MSTORE PUSH1 0x21 PUSH1 0x4 MSTORE PUSH1 0x24 PUSH1 0x0 REVERT JUMPDEST PUSH4 0x4E487B71 PUSH1 0xE0 SHL PUSH1 0x0 MSTORE PUSH1 0x41 PUSH1 0x4 MSTORE PUSH1 0x24 PUSH1 0x0 REVERT JUMPDEST PUSH1 0x1 PUSH1 0x1 PUSH1 0xA0 SHL SUB DUP2 AND DUP2 EQ PUSH2 0x1C6F JUMPI PUSH1 0x0 DUP1 REVERT JUMPDEST DUP1 ISZERO ISZERO DUP2 EQ PUSH2 0x1C6F JUMPI PUSH1 0x0 DUP1 REVERT JUMPDEST PUSH1 0x1 PUSH1 0x1 PUSH1 0xE0 SHL SUB NOT DUP2 AND DUP2 EQ PUSH2 0x1C6F JUMPI PUSH1 0x0 DUP1 REVERT INVALID PUSH9 0x747470733A2F2F6761 PUSH21 0x657761792E70696E6174612E636C6F75642F697066 PUSH20 0x2FDDF252AD1BE2C89B69C2B068FC378DAA952BA7 CALL PUSH4 0xC4A11628 CREATE2 GAS 0x4D CREATE2 0x23 0xB3 0xEF DUP3 GASPRICE CALLVALUE RETURNDATASIZE SHR DUP10 SWAP15 PUSH2 0xA4DB SLT 0x24 PUSH23 0x36A6882BF1FEFAE78BEF39170F8D0F5B53E456A2646970 PUSH7 0x7358221220B083 MSTORE 0x22 SDIV 0xD5 SELFBALANCE 0xA7 PUSH18 0x815D2059AE1FCE99E8DCFD54BF2B15F1A054 0xB9 0x4C 0xC4 PUSH32 0x7764736F6C634300080400330000000000000000000000000000000000000000 ","sha1":"56554ca1f90feb91b86b36434b87df021d740ff7","source":"pragma solidity ^0.8.0;\n\n// SPDX-License-Identifier: BUSL-1.1\n\nimport \"@openzeppelin/contracts/access/Ownable.sol\";\nimport \"@openzeppelin/contracts/security/ReentrancyGuard.sol\";\nimport \"@openzeppelin/contracts/token/ERC20/ERC20.sol\";\nimport \"../OptionsUtils/OptionConfigUnintialized.sol\";\nimport \"..//OptionsUtils/BufferNFTCore.sol\";\nimport \"../Pool/BufferEpocPoolV2Unintialized.sol\";\nimport \"../Libraries/OptionFeeCalculator.sol\";\n\n/**\n * @author Heisenberg\n * @title Buffer TokenX Bidirectional (Call and Put) Options\n * @notice Buffer TokenX Options Contract\n */\ncontract BufferCashSettledEuropeanOptions is\n    IBufferOptions,\n    Ownable,\n    ReentrancyGuard,\n    BufferNFTCore\n{\n    ERC20 public stableCoin;\n    mapping(uint256 => string) private _tokenURIs;\n    ITwapPriceProvider public priceProvider; // Gives pool's tokenX price in stable coin\n    OptionType public fixedOptionType = OptionType.Call;\n    uint256 public nextTokenId = 0;\n    mapping(uint256 => Option) public options;\n    BufferEpocPoolV2Unintialized public pool;\n    OptionConfigUnintialized public config;\n    mapping(uint256 => uint256) public expiryToRoundID;\n    mapping(uint256 => SlotDetail) public slotDetails;\n\n    uint256 internal contractCreationTimestamp;\n\n    uint256 public constant minimumYield = 5;\n\n    constructor(\n        ERC20 _stableCoin,\n        ITwapPriceProvider pp,\n        BufferEpocPoolV2Unintialized _pool,\n        OptionConfigUnintialized _config\n    ) {\n        stableCoin = _stableCoin;\n        pool = _pool;\n        contractCreationTimestamp = block.timestamp;\n        config = _config;\n        priceProvider = pp;\n        _setupRole(DEFAULT_ADMIN_ROLE, msg.sender);\n    }\n\n    /************************************************\n     *  OPTIONS CORE\n     ***********************************************/\n    /**\n     * @notice Creates a new option\n     * @param amount Option amount in tokenX\n     * @param metadata Option metadata\n     * @return optionID Created option's ID\n     */\n    function create(uint256 amount, string memory metadata)\n        external\n        nonReentrant\n        returns (uint256 optionID)\n    {\n        require(\n            pool.isInitialized() && config.isInitialized(),\n            \"Initialization pending\"\n        );\n        uint256 poolExpiration = pool.fixedExpiry();\n        require(poolExpiration > block.timestamp, \"O1\");\n        uint256 period = poolExpiration - block.timestamp;\n\n        require(period >= 12 hours, \"O1\");\n\n        (uint256 totalFee, uint256 settlementFee, uint256 premium) = fees(\n            period,\n            amount,\n            config.fixedStrike(),\n            fixedOptionType\n        );\n\n        require(\n            totalFee * 365 days * 100 > amount * period * minimumYield,\n            \"O2\"\n        );\n\n        uint256 currentPrice = priceProvider.getUsdPrice();\n        uint256 tokenXDecimals = 10**(ERC20(pool.tokenX()).decimals());\n\n        if (msg.sender != pool.projectOwner()) {\n            // User has to approve first inorder to execute this function\n            bool success = stableCoin.transferFrom(\n                msg.sender,\n                address(this),\n                (totalFee * currentPrice * (10**stableCoin.decimals())) /\n                    (tokenXDecimals * (10**(priceProvider.decimals())))\n            );\n            require(success, \"O3\");\n        }\n\n        Option memory option = Option(\n            State.Active,\n            config.fixedStrike(),\n            amount,\n            2 * amount,\n            premium,\n            poolExpiration,\n            fixedOptionType\n        );\n        optionID = _generateTokenId();\n\n        _setOption(optionID, option);\n        _mint(\n            optionID,\n            msg.sender,\n            createSlot(\n                optionID,\n                option.strike,\n                option.expiration,\n                fixedOptionType\n            )\n        );\n        _setTokenURI(optionID, metadata);\n        _lock(optionID, option.lockedAmount, option.premium);\n\n        if (msg.sender != pool.projectOwner()) {\n            stableCoin.transfer(\n                pool.projectOwner(),\n                (premium * currentPrice * (10**stableCoin.decimals())) /\n                    (tokenXDecimals * (10**(priceProvider.decimals())))\n            );\n            stableCoin.transfer(\n                owner(),\n                (settlementFee * currentPrice * (10**stableCoin.decimals())) /\n                    (tokenXDecimals * (10**(priceProvider.decimals())))\n            );\n            emit PayAdminFee(owner(), settlementFee);\n        }\n\n        emit Create(optionID, msg.sender, settlementFee, totalFee, metadata);\n    }\n\n    function _modifyOption(\n        uint256 optionID,\n        Option memory option,\n        uint256 lockedAmount,\n        uint256 amount,\n        uint256 premium\n    ) internal returns (Option memory modifiedOption) {\n        option.lockedAmount = lockedAmount;\n        option.amount = amount;\n        option.premium = premium;\n        modifiedOption = option;\n        _setOption(optionID, option);\n    }\n\n    function _lock(\n        uint256 id,\n        uint256 lockedAmount,\n        uint256 premium\n    ) internal {\n        pool.lock(id, lockedAmount, premium);\n    }\n\n    /**\n     * @notice Sets the expiry price in the oracle\n     * @param expiryRoundId the expected roundId for expiryTimestamp\n     */\n    function setRoundIDForExpiry(uint256 expiryRoundId)\n        external\n        returns (bool isCorrectRoundId)\n    {\n        uint256 expiryTimestamp = pool.fixedExpiry();\n        isCorrectRoundId = priceProvider.isRoundIdValid(\n            expiryRoundId,\n            expiryTimestamp\n        );\n        if (isCorrectRoundId) {\n            expiryToRoundID[expiryTimestamp] = expiryRoundId;\n        }\n    }\n\n    /**\n     * @notice Unlocks the locked funds if the option was\n     * OTM at the time of expiry otherwise exercises it\n     * @param optionID ID of the option\n     */\n    function unlock(uint256 optionID) public {\n        Option storage option = options[optionID];\n        require(option.expiration <= block.timestamp, \"O4\");\n        require(option.state == State.Active, \"O5\");\n        uint256 roundID = expiryToRoundID[option.expiration];\n        require(roundID > 0, \"O20\");\n        (, uint256 priceAtExpiration) = priceProvider.getRoundData(roundID);\n        if (\n            (option.optionType == OptionType.Call &&\n                priceAtExpiration > option.strike) ||\n            (option.optionType == OptionType.Put &&\n                priceAtExpiration < option.strike)\n        ) {\n            exercise(optionID);\n        } else {\n            option.state = State.Expired;\n            pool.unlock(optionID);\n            burnToken(optionID);\n            emit Expire(optionID, option.premium);\n        }\n    }\n\n    /**\n     * @notice Unlocks an array of options\n     * @param optionIDs array of options\n     */\n    function unlockAll(uint256[] calldata optionIDs) external {\n        uint256 arrayLength = optionIDs.length;\n        for (uint256 i = 0; i < arrayLength; i++) {\n            unlock(optionIDs[i]);\n        }\n    }\n\n    function getPayout(uint256 optionID) public returns (uint256 payout) {\n        Option storage option = options[optionID];\n        require(option.state == State.Active, \"O14\");\n\n        uint256 roundID = expiryToRoundID[option.expiration];\n        require(roundID > 0, \"O20\");\n\n        (, uint256 priceAtExpiration) = priceProvider.getRoundData(roundID);\n\n        payout = option.lockedAmount / 2;\n\n        if (option.optionType == OptionType.Call) {\n            require(option.strike < priceAtExpiration, \"O17\");\n            payout +=\n                ((priceAtExpiration - option.strike) * option.amount) /\n                priceAtExpiration;\n        } else {\n            require(option.strike > priceAtExpiration, \"O18\");\n            payout +=\n                ((option.strike - priceAtExpiration) * option.amount) /\n                priceAtExpiration;\n        }\n\n        if (payout > option.lockedAmount) payout = option.lockedAmount;\n    }\n\n    /**\n     * @notice Exercises an option if it was\n     * ITM at the time of expiry\n     * @param optionID ID of your option\n     */\n    function exercise(uint256 optionID) public returns (uint256 payout) {\n        require(exists(optionID), \"O10\");\n        require(pool.fixedExpiry() <= block.timestamp, \"O4\");\n\n        payout = getPayout(optionID);\n        pool.send(optionID, ownerOf(optionID), payout);\n\n        // Burn the option\n        burnToken(optionID);\n        Option storage option = options[optionID];\n        option.state = State.Exercised;\n\n        emit Exercise(optionID, payout);\n    }\n\n    /**\n     * @notice Used for getting the actual options prices in pool's tokenX\n     * @param period Option period in seconds (1 days <= period <= 4 weeks)\n     * @param amount Option amount\n     * @param strike Strike price of the option\n     * @param optionType call/put\n     * @return total Total price to be paid\n     * @return settlementFee Amount to be distributed to the Buffer token holders\n     * @return premium Amount that covers the price difference in the ITM options\n     */\n    function fees(\n        uint256 period,\n        uint256 amount,\n        uint256 strike,\n        OptionType optionType\n    )\n        public\n        view\n        returns (\n            uint256 total,\n            uint256 settlementFee,\n            uint256 premium\n        )\n    {\n        uint256 currentPrice = priceProvider.getUsdPrice();\n\n        (total, settlementFee, premium) = FeeCalculator.feesSuccessOptions(\n            period,\n            amount,\n            strike,\n            optionType,\n            currentPrice,\n            config,\n            pool\n        );\n    }\n\n    function _generateTokenId() internal returns (uint256) {\n        return nextTokenId++;\n    }\n\n    function _getOption(uint256 optionID)\n        internal\n        view\n        returns (Option memory)\n    {\n        return options[optionID];\n    }\n\n    function _setOption(uint256 optionID, Option memory option) internal {\n        options[optionID] = option;\n    }\n\n    function burn(uint256 tokenId_) external {\n        require(msg.sender == ownerOf(tokenId_), \"O9\");\n        burnToken(tokenId_);\n    }\n\n    /************************************************\n     *  ERC3525 Functions\n     ***********************************************/\n\n    /**\n     * @notice Splits the option\n     * @param optionID OptionId to be splitted\n     * @param splitUnits_ Units to be splitted into\n     * @return newOptionIDs An array of the splitted options\n     */\n    function split(uint256 optionID, uint256[] calldata splitUnits_)\n        external\n        returns (uint256[] memory newOptionIDs)\n    {\n        require(splitUnits_.length > 0, \"N1\");\n        newOptionIDs = new uint256[](splitUnits_.length);\n        Option memory option = _getOption(optionID);\n        uint256 totalUnits = unitsInToken(optionID);\n        uint256 totalChildAmount;\n        uint256 totalChildLockedAmount;\n        uint256 totalChildPremium;\n        // Create child options\n        for (uint256 i = 0; i < splitUnits_.length; i++) {\n            uint256 newOptionID = _generateTokenId();\n            newOptionIDs[i] = newOptionID;\n\n            _split(optionID, newOptionID, splitUnits_[i]);\n\n            uint256 childAmount = (option.amount * splitUnits_[i]) / totalUnits;\n            totalChildAmount += childAmount;\n\n            uint256 childLockedAmount = (option.lockedAmount * splitUnits_[i]) /\n                totalUnits;\n            totalChildLockedAmount += childLockedAmount;\n\n            uint256 childPremium = (option.premium * splitUnits_[i]) /\n                totalUnits;\n            totalChildPremium += childPremium;\n\n            Option memory newOption = Option(\n                option.state,\n                option.strike,\n                childAmount,\n                childLockedAmount,\n                childPremium,\n                option.expiration,\n                option.optionType\n            );\n            _setOption(newOptionID, newOption);\n        }\n        // Modify the parent option once all child options are created\n        option = _modifyOption(\n            optionID,\n            option,\n            option.lockedAmount - totalChildLockedAmount,\n            option.amount - totalChildAmount,\n            option.premium - totalChildPremium\n        );\n        pool.changeLock(optionID, option.lockedAmount, option.premium);\n\n        // Lock the amount in the pool for the child options\n        for (uint256 i = 0; i < splitUnits_.length; i++) {\n            Option memory newOption = _getOption(newOptionIDs[i]);\n            _lock(newOptionIDs[i], newOption.lockedAmount, newOption.premium);\n        }\n    }\n\n    /**\n     * @notice Merges the options\n     * @param optionIDs An array of the optionsIds to be merged\n     * @param targetOptionID OptionId to be merged into\n     */\n    function merge(uint256[] calldata optionIDs, uint256 targetOptionID)\n        external\n    {\n        require(optionIDs.length > 0, \"N4\");\n        Option memory targetOption = _getOption(targetOptionID);\n\n        uint256 totalLockedAmount = targetOption.lockedAmount;\n        uint256 totalAmount = targetOption.amount;\n        uint256 totalPremium = targetOption.premium;\n\n        for (uint256 i = 0; i < optionIDs.length; i++) {\n            Option memory option = _getOption(optionIDs[i]);\n            totalLockedAmount = totalLockedAmount + option.lockedAmount;\n            totalAmount = totalAmount + option.amount;\n            totalPremium = totalPremium + option.premium;\n            pool.unlockWithoutProfit(optionIDs[i]);\n            _merge(optionIDs[i], targetOptionID);\n        }\n        _modifyOption(\n            targetOptionID,\n            targetOption,\n            totalLockedAmount,\n            totalAmount,\n            totalPremium\n        );\n        pool.changeLock(targetOptionID, totalLockedAmount, totalPremium);\n    }\n\n    /**\n     * @notice Transfer part of units of a option to another option.\n     * @param optionID Id of the option to transfer\n     * @param transferUnits_ Amount of units to transfer\n     */\n    function _beforeTransferFrom(uint256 optionID, uint256 transferUnits_)\n        internal\n        returns (\n            uint256 newAmount,\n            uint256 newPremium,\n            uint256 newLockedAmount,\n            Option memory option\n        )\n    {\n        option = _getOption(optionID);\n        uint256 totalUnits = unitsInToken(optionID);\n        newAmount = (option.amount * transferUnits_) / totalUnits;\n        newPremium = (option.premium * transferUnits_) / totalUnits;\n        newLockedAmount = (option.lockedAmount * transferUnits_) / totalUnits;\n\n        option = _modifyOption(\n            optionID,\n            option,\n            option.lockedAmount - newLockedAmount,\n            option.amount - newAmount,\n            option.premium - newPremium\n        );\n        pool.changeLock(optionID, option.lockedAmount, option.premium);\n    }\n\n    /**\n     * @notice Transfer part of units of a option to target address.\n     * @param from_ Address of the option sender\n     * @param to_ Address of the option recipient\n     * @param optionID Id of the option to transfer\n     * @param transferUnits_ Amount of units to transfer\n     */\n    function transferFrom(\n        address from_,\n        address to_,\n        uint256 optionID,\n        uint256 transferUnits_\n    ) external returns (uint256 newOptionID) {\n        newOptionID = _generateTokenId();\n        (\n            uint256 newAmount,\n            uint256 newPremium,\n            uint256 newLockedAmount,\n            Option memory option\n        ) = _beforeTransferFrom(optionID, transferUnits_);\n        Option memory newOption = Option(\n            option.state,\n            option.strike,\n            newAmount,\n            newLockedAmount,\n            newPremium,\n            option.expiration,\n            option.optionType\n        );\n        _setOption(newOptionID, newOption);\n\n        _lock(newOptionID, newLockedAmount, newPremium);\n        _transferUnitsFrom(from_, to_, optionID, newOptionID, transferUnits_);\n    }\n\n    /**\n     * @notice Transfer part of units of a option to another option.\n     * @param from_ Address of the option sender\n     * @param to_ Address of the option recipient\n     * @param optionID Id of the option to transfer\n     * @param targetOptionID Id of the option to receive\n     * @param transferUnits_ Amount of units to transfer\n     */\n    function transferFrom(\n        address from_,\n        address to_,\n        uint256 optionID,\n        uint256 targetOptionID,\n        uint256 transferUnits_\n    ) external virtual {\n        require(exists(targetOptionID), \"N12\");\n        (\n            uint256 newAmount,\n            uint256 newPremium,\n            uint256 newLockedAmount,\n\n        ) = _beforeTransferFrom(optionID, transferUnits_);\n        Option memory targetOption = _getOption(targetOptionID);\n        targetOption = _modifyOption(\n            targetOptionID,\n            targetOption,\n            targetOption.lockedAmount + newLockedAmount,\n            targetOption.amount + newAmount,\n            targetOption.premium + newPremium\n        );\n\n        pool.changeLock(\n            targetOptionID,\n            targetOption.lockedAmount,\n            targetOption.premium\n        );\n        _transferUnitsFrom(\n            from_,\n            to_,\n            optionID,\n            targetOptionID,\n            transferUnits_\n        );\n    }\n\n    function createSlot(\n        uint256 optionID,\n        uint256 strike,\n        uint256 expiration,\n        OptionType optionType\n    ) internal returns (uint256 slot) {\n        slot = uint256(\n            keccak256(abi.encode(strike, expiration, optionType, optionID))\n        );\n        require(!slotDetails[slot].isValid, \"N14\");\n        slotDetails[slot] = SlotDetail(strike, expiration, optionType, true);\n    }\n}\n","sourcePath":"contracts/Call Options/BufferCashSettledEuropeanOptions.sol","type":"contract","deployment":{"address":"0xD598416852F187454f25BAa37365824B9B947fDA","chainid":"97","blockHeight":20652070}}