{"abi":[{"inputs":[{"internalType":"address","name":"_token0","type":"address"},{"internalType":"address","name":"_token1","type":"address"},{"internalType":"contract ISlidingWindowOracleV1","name":"_twap","type":"address"},{"internalType":"contract AggregatorV3Interface","name":"pp","type":"address"}],"stateMutability":"nonpayable","type":"constructor","name":"constructor"},{"inputs":[],"name":"decimals","outputs":[{"internalType":"uint256","name":"","type":"uint256"}],"stateMutability":"view","type":"function"},{"inputs":[{"internalType":"uint256","name":"roundId","type":"uint256"}],"name":"getRoundData","outputs":[{"internalType":"uint256","name":"roundTimestamp","type":"uint256"},{"internalType":"uint256","name":"price","type":"uint256"}],"stateMutability":"view","type":"function"},{"inputs":[],"name":"getUsdPrice","outputs":[{"internalType":"uint256","name":"price","type":"uint256"}],"stateMutability":"view","type":"function"},{"inputs":[{"internalType":"uint256","name":"roundId","type":"uint256"},{"internalType":"uint256","name":"timestamp","type":"uint256"}],"name":"isRoundIdValid","outputs":[{"internalType":"bool","name":"","type":"bool"}],"stateMutability":"view","type":"function"},{"inputs":[],"name":"priceProvider","outputs":[{"internalType":"contract AggregatorV3Interface","name":"","type":"address"}],"stateMutability":"view","type":"function"},{"inputs":[{"internalType":"uint256","name":"token_price","type":"uint256"}],"name":"toUsd","outputs":[{"internalType":"uint256","name":"price","type":"uint256"}],"stateMutability":"view","type":"function"},{"inputs":[],"name":"token0","outputs":[{"internalType":"address","name":"","type":"address"}],"stateMutability":"view","type":"function"},{"inputs":[],"name":"token1","outputs":[{"internalType":"address","name":"","type":"address"}],"stateMutability":"view","type":"function"},{"inputs":[],"name":"twap","outputs":[{"internalType":"contract ISlidingWindowOracleV1","name":"","type":"address"}],"stateMutability":"view","type":"function"}],"bytecode":"608060405234801561001057600080fd5b506040516107e23803806107e283398101604081905261002f91610081565b600080546001600160a01b039586166001600160a01b031991821617909155600180549486169482169490941790935560038054918516918416919091179055600280549190931691161790556100f7565b60008060008060808587031215610096578384fd5b84516100a1816100df565b60208601519094506100b2816100df565b60408601519093506100c3816100df565b60608601519092506100d4816100df565b939692955090935050565b6001600160a01b03811681146100f457600080fd5b50565b6106dc806101066000396000f3fe608060405234801561001057600080fd5b50600436106100835760003560e01c80630720da52146100885780630dfe1681146100b55780631208aa18146100e05780631acf5582146100f3578063313ce56714610109578063508a0dfa14610111578063879b47ef14610134578063b888879e14610147578063d21220a71461015a575b600080fd5b61009b61009636600461054f565b61016d565b604080519283526020830191909152015b60405180910390f35b6000546100c8906001600160a01b031681565b6040516001600160a01b0390911681526020016100ac565b6002546100c8906001600160a01b031681565b6100fb610217565b6040519081526020016100ac565b6100fb6102b7565b61012461011f36600461057f565b61033c565b60405190151581526020016100ac565b6100fb61014236600461054f565b610409565b6003546100c8906001600160a01b031681565b6001546100c8906001600160a01b031681565b60025460008054600154604051631b3a41e960e31b81526001600160a01b0392831660048201529082166024820152604481018590529192839291169063d9d20f4890606401604080518083038186803b1580156101ca57600080fd5b505afa1580156101de573d6000803e3d6000fd5b505050506040513d601f19601f8201168201806040525081019061020291906105a0565b909250905061021081610409565b9050915091565b6002546000805460015460405163e34161c360e01b81526001600160a01b03928316600482015290821660248201529192839291169063e34161c39060440160206040518083038186803b15801561026e57600080fd5b505afa158015610282573d6000803e3d6000fd5b505050506040513d601f19601f820116820180604052508101906102a69190610567565b90506102b181610409565b91505090565b6003546040805163313ce56760e01b815290516000926001600160a01b03169163313ce567916004808301926020929190829003018186803b1580156102fc57600080fd5b505afa158015610310573d6000803e3d6000fd5b505050506040513d601f19601f820116820180604052508101906103349190610612565b60ff16905090565b6000806103488461016d565b5090508083101561035d576000915050610403565b600260009054906101000a90046001600160a01b03166001600160a01b031663e4463eb26040518163ffffffff1660e01b815260040160206040518083038186803b1580156103ab57600080fd5b505afa1580156103bf573d6000803e3d6000fd5b505050506040513d601f19601f820116820180604052508101906103e39190610567565b6103ed8285610679565b11156103fd576000915050610403565b60019150505b92915050565b600080600360009054906101000a90046001600160a01b03166001600160a01b031663feaf968c6040518163ffffffff1660e01b815260040160a06040518083038186803b15801561045a57600080fd5b505afa15801561046e573d6000803e3d6000fd5b505050506040513d601f19601f8201168201806040525081019061049291906105c3565b505060025460408051630a9ee07f60e31b815290519395508594506001600160a01b03909116926354f703f892506004808301926020929190829003018186803b1580156104df57600080fd5b505afa1580156104f3573d6000803e3d6000fd5b505050506040513d601f19601f820116820180604052508101906105179190610567565b610521828661065a565b61052b919061063a565b949350505050565b80516001600160501b038116811461054a57600080fd5b919050565b600060208284031215610560578081fd5b5035919050565b600060208284031215610578578081fd5b5051919050565b60008060408385031215610591578081fd5b50508035926020909101359150565b600080604083850312156105b2578182fd5b505080516020909101519092909150565b600080600080600060a086880312156105da578081fd5b6105e386610533565b945060208601519350604086015192506060860151915061060660808701610533565b90509295509295909350565b600060208284031215610623578081fd5b815160ff81168114610633578182fd5b9392505050565b60008261065557634e487b7160e01b81526012600452602481fd5b500490565b600081600019048311821515161561067457610674610690565b500290565b60008282101561068b5761068b610690565b500390565b634e487b7160e01b600052601160045260246000fdfea26469706673582212208d9f74037c900466c3912fab90df45d1772e20f0cb25576eef9e30e67fe392e764736f6c63430008040033","bytecodeSha1":"a0c2e7760fc7970cfdf4706d071f5e8eaff5a77b","compiler":{"evm_version":"istanbul","optimizer":{"enabled":true,"runs":1},"version":"0.8.4+commit.c7e474f2"},"contractName":"TwapPriceProvider","language":"Solidity","natspec":{"kind":"dev","methods":{},"version":1},"opcodes":"PUSH1 0x80 PUSH1 0x40 MSTORE CALLVALUE DUP1 ISZERO PUSH2 0x10 JUMPI PUSH1 0x0 DUP1 REVERT JUMPDEST POP PUSH1 0x4 CALLDATASIZE LT PUSH2 0x83 JUMPI PUSH1 0x0 CALLDATALOAD PUSH1 0xE0 SHR DUP1 PUSH4 0x720DA52 EQ PUSH2 0x88 JUMPI DUP1 PUSH4 0xDFE1681 EQ PUSH2 0xB5 JUMPI DUP1 PUSH4 0x1208AA18 EQ PUSH2 0xE0 JUMPI DUP1 PUSH4 0x1ACF5582 EQ PUSH2 0xF3 JUMPI DUP1 PUSH4 0x313CE567 EQ PUSH2 0x109 JUMPI DUP1 PUSH4 0x508A0DFA EQ PUSH2 0x111 JUMPI DUP1 PUSH4 0x879B47EF EQ PUSH2 0x134 JUMPI DUP1 PUSH4 0xB888879E EQ PUSH2 0x147 JUMPI DUP1 PUSH4 0xD21220A7 EQ PUSH2 0x15A JUMPI JUMPDEST PUSH1 0x0 DUP1 REVERT JUMPDEST PUSH2 0x9B PUSH2 0x96 CALLDATASIZE PUSH1 0x4 PUSH2 0x54F JUMP JUMPDEST PUSH2 0x16D JUMP JUMPDEST PUSH1 0x40 DUP1 MLOAD SWAP3 DUP4 MSTORE PUSH1 0x20 DUP4 ADD SWAP2 SWAP1 SWAP2 MSTORE ADD JUMPDEST PUSH1 0x40 MLOAD DUP1 SWAP2 SUB SWAP1 RETURN JUMPDEST PUSH1 0x0 SLOAD PUSH2 0xC8 SWAP1 PUSH1 0x1 PUSH1 0x1 PUSH1 0xA0 SHL SUB AND DUP2 JUMP JUMPDEST PUSH1 0x40 MLOAD PUSH1 0x1 PUSH1 0x1 PUSH1 0xA0 SHL SUB SWAP1 SWAP2 AND DUP2 MSTORE PUSH1 0x20 ADD PUSH2 0xAC JUMP JUMPDEST PUSH1 0x2 SLOAD PUSH2 0xC8 SWAP1 PUSH1 0x1 PUSH1 0x1 PUSH1 0xA0 SHL SUB AND DUP2 JUMP JUMPDEST PUSH2 0xFB PUSH2 0x217 JUMP JUMPDEST PUSH1 0x40 MLOAD SWAP1 DUP2 MSTORE PUSH1 0x20 ADD PUSH2 0xAC JUMP JUMPDEST PUSH2 0xFB PUSH2 0x2B7 JUMP JUMPDEST PUSH2 0x124 PUSH2 0x11F CALLDATASIZE PUSH1 0x4 PUSH2 0x57F JUMP JUMPDEST PUSH2 0x33C JUMP JUMPDEST PUSH1 0x40 MLOAD SWAP1 ISZERO ISZERO DUP2 MSTORE PUSH1 0x20 ADD PUSH2 0xAC JUMP JUMPDEST PUSH2 0xFB PUSH2 0x142 CALLDATASIZE PUSH1 0x4 PUSH2 0x54F JUMP JUMPDEST PUSH2 0x409 JUMP JUMPDEST PUSH1 0x3 SLOAD PUSH2 0xC8 SWAP1 PUSH1 0x1 PUSH1 0x1 PUSH1 0xA0 SHL SUB AND DUP2 JUMP JUMPDEST PUSH1 0x1 SLOAD PUSH2 0xC8 SWAP1 PUSH1 0x1 PUSH1 0x1 PUSH1 0xA0 SHL SUB AND DUP2 JUMP JUMPDEST PUSH1 0x2 SLOAD PUSH1 0x0 DUP1 SLOAD PUSH1 0x1 SLOAD PUSH1 0x40 MLOAD PUSH4 0x1B3A41E9 PUSH1 0xE3 SHL DUP2 MSTORE PUSH1 0x1 PUSH1 0x1 PUSH1 0xA0 SHL SUB SWAP3 DUP4 AND PUSH1 0x4 DUP3 ADD MSTORE SWAP1 DUP3 AND PUSH1 0x24 DUP3 ADD MSTORE PUSH1 0x44 DUP2 ADD DUP6 SWAP1 MSTORE SWAP2 SWAP3 DUP4 SWAP3 SWAP2 AND SWAP1 PUSH4 0xD9D20F48 SWAP1 PUSH1 0x64 ADD PUSH1 0x40 DUP1 MLOAD DUP1 DUP4 SUB DUP2 DUP7 DUP1 EXTCODESIZE ISZERO DUP1 ISZERO PUSH2 0x1CA JUMPI PUSH1 0x0 DUP1 REVERT JUMPDEST POP GAS STATICCALL ISZERO DUP1 ISZERO PUSH2 0x1DE JUMPI RETURNDATASIZE PUSH1 0x0 DUP1 RETURNDATACOPY RETURNDATASIZE PUSH1 0x0 REVERT JUMPDEST POP POP POP POP PUSH1 0x40 MLOAD RETURNDATASIZE PUSH1 0x1F NOT PUSH1 0x1F DUP3 ADD AND DUP3 ADD DUP1 PUSH1 0x40 MSTORE POP DUP2 ADD SWAP1 PUSH2 0x202 SWAP2 SWAP1 PUSH2 0x5A0 JUMP JUMPDEST SWAP1 SWAP3 POP SWAP1 POP PUSH2 0x210 DUP2 PUSH2 0x409 JUMP JUMPDEST SWAP1 POP SWAP2 POP SWAP2 JUMP JUMPDEST PUSH1 0x2 SLOAD PUSH1 0x0 DUP1 SLOAD PUSH1 0x1 SLOAD PUSH1 0x40 MLOAD PUSH4 0xE34161C3 PUSH1 0xE0 SHL DUP2 MSTORE PUSH1 0x1 PUSH1 0x1 PUSH1 0xA0 SHL SUB SWAP3 DUP4 AND PUSH1 0x4 DUP3 ADD MSTORE SWAP1 DUP3 AND PUSH1 0x24 DUP3 ADD MSTORE SWAP2 SWAP3 DUP4 SWAP3 SWAP2 AND SWAP1 PUSH4 0xE34161C3 SWAP1 PUSH1 0x44 ADD PUSH1 0x20 PUSH1 0x40 MLOAD DUP1 DUP4 SUB DUP2 DUP7 DUP1 EXTCODESIZE ISZERO DUP1 ISZERO PUSH2 0x26E JUMPI PUSH1 0x0 DUP1 REVERT JUMPDEST POP GAS STATICCALL ISZERO DUP1 ISZERO PUSH2 0x282 JUMPI RETURNDATASIZE PUSH1 0x0 DUP1 RETURNDATACOPY RETURNDATASIZE PUSH1 0x0 REVERT JUMPDEST POP POP POP POP PUSH1 0x40 MLOAD RETURNDATASIZE PUSH1 0x1F NOT PUSH1 0x1F DUP3 ADD AND DUP3 ADD DUP1 PUSH1 0x40 MSTORE POP DUP2 ADD SWAP1 PUSH2 0x2A6 SWAP2 SWAP1 PUSH2 0x567 JUMP JUMPDEST SWAP1 POP PUSH2 0x2B1 DUP2 PUSH2 0x409 JUMP JUMPDEST SWAP2 POP POP SWAP1 JUMP JUMPDEST PUSH1 0x3 SLOAD PUSH1 0x40 DUP1 MLOAD PUSH4 0x313CE567 PUSH1 0xE0 SHL DUP2 MSTORE SWAP1 MLOAD PUSH1 0x0 SWAP3 PUSH1 0x1 PUSH1 0x1 PUSH1 0xA0 SHL SUB AND SWAP2 PUSH4 0x313CE567 SWAP2 PUSH1 0x4 DUP1 DUP4 ADD SWAP3 PUSH1 0x20 SWAP3 SWAP2 SWAP1 DUP3 SWAP1 SUB ADD DUP2 DUP7 DUP1 EXTCODESIZE ISZERO DUP1 ISZERO PUSH2 0x2FC JUMPI PUSH1 0x0 DUP1 REVERT JUMPDEST POP GAS STATICCALL ISZERO DUP1 ISZERO PUSH2 0x310 JUMPI RETURNDATASIZE PUSH1 0x0 DUP1 RETURNDATACOPY RETURNDATASIZE PUSH1 0x0 REVERT JUMPDEST POP POP POP POP PUSH1 0x40 MLOAD RETURNDATASIZE PUSH1 0x1F NOT PUSH1 0x1F DUP3 ADD AND DUP3 ADD DUP1 PUSH1 0x40 MSTORE POP DUP2 ADD SWAP1 PUSH2 0x334 SWAP2 SWAP1 PUSH2 0x612 JUMP JUMPDEST PUSH1 0xFF AND SWAP1 POP SWAP1 JUMP JUMPDEST PUSH1 0x0 DUP1 PUSH2 0x348 DUP5 PUSH2 0x16D JUMP JUMPDEST POP SWAP1 POP DUP1 DUP4 LT ISZERO PUSH2 0x35D JUMPI PUSH1 0x0 SWAP2 POP POP PUSH2 0x403 JUMP JUMPDEST PUSH1 0x2 PUSH1 0x0 SWAP1 SLOAD SWAP1 PUSH2 0x100 EXP SWAP1 DIV PUSH1 0x1 PUSH1 0x1 PUSH1 0xA0 SHL SUB AND PUSH1 0x1 PUSH1 0x1 PUSH1 0xA0 SHL SUB AND PUSH4 0xE4463EB2 PUSH1 0x40 MLOAD DUP2 PUSH4 0xFFFFFFFF AND PUSH1 0xE0 SHL DUP2 MSTORE PUSH1 0x4 ADD PUSH1 0x20 PUSH1 0x40 MLOAD DUP1 DUP4 SUB DUP2 DUP7 DUP1 EXTCODESIZE ISZERO DUP1 ISZERO PUSH2 0x3AB JUMPI PUSH1 0x0 DUP1 REVERT JUMPDEST POP GAS STATICCALL ISZERO DUP1 ISZERO PUSH2 0x3BF JUMPI RETURNDATASIZE PUSH1 0x0 DUP1 RETURNDATACOPY RETURNDATASIZE PUSH1 0x0 REVERT JUMPDEST POP POP POP POP PUSH1 0x40 MLOAD RETURNDATASIZE PUSH1 0x1F NOT PUSH1 0x1F DUP3 ADD AND DUP3 ADD DUP1 PUSH1 0x40 MSTORE POP DUP2 ADD SWAP1 PUSH2 0x3E3 SWAP2 SWAP1 PUSH2 0x567 JUMP JUMPDEST PUSH2 0x3ED DUP3 DUP6 PUSH2 0x679 JUMP JUMPDEST GT ISZERO PUSH2 0x3FD JUMPI PUSH1 0x0 SWAP2 POP POP PUSH2 0x403 JUMP JUMPDEST PUSH1 0x1 SWAP2 POP POP JUMPDEST SWAP3 SWAP2 POP POP JUMP JUMPDEST PUSH1 0x0 DUP1 PUSH1 0x3 PUSH1 0x0 SWAP1 SLOAD SWAP1 PUSH2 0x100 EXP SWAP1 DIV PUSH1 0x1 PUSH1 0x1 PUSH1 0xA0 SHL SUB AND PUSH1 0x1 PUSH1 0x1 PUSH1 0xA0 SHL SUB AND PUSH4 0xFEAF968C PUSH1 0x40 MLOAD DUP2 PUSH4 0xFFFFFFFF AND PUSH1 0xE0 SHL DUP2 MSTORE PUSH1 0x4 ADD PUSH1 0xA0 PUSH1 0x40 MLOAD DUP1 DUP4 SUB DUP2 DUP7 DUP1 EXTCODESIZE ISZERO DUP1 ISZERO PUSH2 0x45A JUMPI PUSH1 0x0 DUP1 REVERT JUMPDEST POP GAS STATICCALL ISZERO DUP1 ISZERO PUSH2 0x46E JUMPI RETURNDATASIZE PUSH1 0x0 DUP1 RETURNDATACOPY RETURNDATASIZE PUSH1 0x0 REVERT JUMPDEST POP POP POP POP PUSH1 0x40 MLOAD RETURNDATASIZE PUSH1 0x1F NOT PUSH1 0x1F DUP3 ADD AND DUP3 ADD DUP1 PUSH1 0x40 MSTORE POP DUP2 ADD SWAP1 PUSH2 0x492 SWAP2 SWAP1 PUSH2 0x5C3 JUMP JUMPDEST POP POP PUSH1 0x2 SLOAD PUSH1 0x40 DUP1 MLOAD PUSH4 0xA9EE07F PUSH1 0xE3 SHL DUP2 MSTORE SWAP1 MLOAD SWAP4 SWAP6 POP DUP6 SWAP5 POP PUSH1 0x1 PUSH1 0x1 PUSH1 0xA0 SHL SUB SWAP1 SWAP2 AND SWAP3 PUSH4 0x54F703F8 SWAP3 POP PUSH1 0x4 DUP1 DUP4 ADD SWAP3 PUSH1 0x20 SWAP3 SWAP2 SWAP1 DUP3 SWAP1 SUB ADD DUP2 DUP7 DUP1 EXTCODESIZE ISZERO DUP1 ISZERO PUSH2 0x4DF JUMPI PUSH1 0x0 DUP1 REVERT JUMPDEST POP GAS STATICCALL ISZERO DUP1 ISZERO PUSH2 0x4F3 JUMPI RETURNDATASIZE PUSH1 0x0 DUP1 RETURNDATACOPY RETURNDATASIZE PUSH1 0x0 REVERT JUMPDEST POP POP POP POP PUSH1 0x40 MLOAD RETURNDATASIZE PUSH1 0x1F NOT PUSH1 0x1F DUP3 ADD AND DUP3 ADD DUP1 PUSH1 0x40 MSTORE POP DUP2 ADD SWAP1 PUSH2 0x517 SWAP2 SWAP1 PUSH2 0x567 JUMP JUMPDEST PUSH2 0x521 DUP3 DUP7 PUSH2 0x65A JUMP JUMPDEST PUSH2 0x52B SWAP2 SWAP1 PUSH2 0x63A JUMP JUMPDEST SWAP5 SWAP4 POP POP POP POP JUMP JUMPDEST DUP1 MLOAD PUSH1 0x1 PUSH1 0x1 PUSH1 0x50 SHL SUB DUP2 AND DUP2 EQ PUSH2 0x54A JUMPI PUSH1 0x0 DUP1 REVERT JUMPDEST SWAP2 SWAP1 POP JUMP JUMPDEST PUSH1 0x0 PUSH1 0x20 DUP3 DUP5 SUB SLT ISZERO PUSH2 0x560 JUMPI DUP1 DUP2 REVERT JUMPDEST POP CALLDATALOAD SWAP2 SWAP1 POP JUMP JUMPDEST PUSH1 0x0 PUSH1 0x20 DUP3 DUP5 SUB SLT ISZERO PUSH2 0x578 JUMPI DUP1 DUP2 REVERT JUMPDEST POP MLOAD SWAP2 SWAP1 POP JUMP JUMPDEST PUSH1 0x0 DUP1 PUSH1 0x40 DUP4 DUP6 SUB SLT ISZERO PUSH2 0x591 JUMPI DUP1 DUP2 REVERT JUMPDEST POP POP DUP1 CALLDATALOAD SWAP3 PUSH1 0x20 SWAP1 SWAP2 ADD CALLDATALOAD SWAP2 POP JUMP JUMPDEST PUSH1 0x0 DUP1 PUSH1 0x40 DUP4 DUP6 SUB SLT ISZERO PUSH2 0x5B2 JUMPI DUP2 DUP3 REVERT JUMPDEST POP POP DUP1 MLOAD PUSH1 0x20 SWAP1 SWAP2 ADD MLOAD SWAP1 SWAP3 SWAP1 SWAP2 POP JUMP JUMPDEST PUSH1 0x0 DUP1 PUSH1 0x0 DUP1 PUSH1 0x0 PUSH1 0xA0 DUP7 DUP9 SUB SLT ISZERO PUSH2 0x5DA JUMPI DUP1 DUP2 REVERT JUMPDEST PUSH2 0x5E3 DUP7 PUSH2 0x533 JUMP JUMPDEST SWAP5 POP PUSH1 0x20 DUP7 ADD MLOAD SWAP4 POP PUSH1 0x40 DUP7 ADD MLOAD SWAP3 POP PUSH1 0x60 DUP7 ADD MLOAD SWAP2 POP PUSH2 0x606 PUSH1 0x80 DUP8 ADD PUSH2 0x533 JUMP JUMPDEST SWAP1 POP SWAP3 SWAP6 POP SWAP3 SWAP6 SWAP1 SWAP4 POP JUMP JUMPDEST PUSH1 0x0 PUSH1 0x20 DUP3 DUP5 SUB SLT ISZERO PUSH2 0x623 JUMPI DUP1 DUP2 REVERT JUMPDEST DUP2 MLOAD PUSH1 0xFF DUP2 AND DUP2 EQ PUSH2 0x633 JUMPI DUP2 DUP3 REVERT JUMPDEST SWAP4 SWAP3 POP POP POP JUMP JUMPDEST PUSH1 0x0 DUP3 PUSH2 0x655 JUMPI PUSH4 0x4E487B71 PUSH1 0xE0 SHL DUP2 MSTORE PUSH1 0x12 PUSH1 0x4 MSTORE PUSH1 0x24 DUP2 REVERT JUMPDEST POP DIV SWAP1 JUMP JUMPDEST PUSH1 0x0 DUP2 PUSH1 0x0 NOT DIV DUP4 GT DUP3 ISZERO ISZERO AND ISZERO PUSH2 0x674 JUMPI PUSH2 0x674 PUSH2 0x690 JUMP JUMPDEST POP MUL SWAP1 JUMP JUMPDEST PUSH1 0x0 DUP3 DUP3 LT ISZERO PUSH2 0x68B JUMPI PUSH2 0x68B PUSH2 0x690 JUMP JUMPDEST POP SUB SWAP1 JUMP JUMPDEST PUSH4 0x4E487B71 PUSH1 0xE0 SHL PUSH1 0x0 MSTORE PUSH1 0x11 PUSH1 0x4 MSTORE PUSH1 0x24 PUSH1 0x0 REVERT INVALID LOG2 PUSH5 0x6970667358 0x22 SLT KECCAK256 DUP14 SWAP16 PUSH21 0x37C900466C3912FAB90DF45D1772E20F0CB25576E 0xEF SWAP15 ADDRESS 0xE6 PUSH32 0xE392E764736F6C63430008040033000000000000000000000000000000000000 ","sha1":"1572ef2c70e6014bac6b8fc00b1a1d35b834faa9","source":"pragma solidity ^0.8.0;\n\n// SPDX-License-Identifier: BUSL-1.1\n\nimport \"./Interfaces/Interfaces.sol\";\nimport \"./PriceProvider.sol\";\n\ncontract TwapPriceProvider {\n    address public token0;\n    address public token1;\n    ISlidingWindowOracleV1 public twap;\n    AggregatorV3Interface public priceProvider;\n\n    constructor(\n        address _token0,\n        address _token1,\n        ISlidingWindowOracleV1 _twap,\n        AggregatorV3Interface pp\n    ) {\n        token0 = _token0;\n        token1 = _token1;\n        priceProvider = pp;\n        twap = _twap;\n    }\n\n    function isRoundIdValid(uint256 roundId, uint256 timestamp)\n        external\n        view\n        returns (bool)\n    {\n        (uint256 roundTimestamp, ) = getRoundData(roundId);\n        if ((timestamp < roundTimestamp)) {\n            return false;\n        } else if (timestamp - roundTimestamp > twap.periodSize()) {\n            return false;\n        }\n        return true;\n    }\n\n    function getRoundData(uint256 roundId)\n        public\n        view\n        returns (uint256 roundTimestamp, uint256 price)\n    {\n        (roundTimestamp, price) = twap.getTimeWeightedAverage(\n            token0,\n            token1,\n            roundId\n        );\n        price = toUsd(price);\n    }\n\n    function decimals() external view returns (uint256) {\n        return priceProvider.decimals();\n    }\n\n    function toUsd(uint256 token_price) public view returns (uint256 price) {\n        (, int256 latestPrice, , , ) = priceProvider.latestRoundData();\n        uint256 bnb_price = uint256(latestPrice);\n        price = (token_price * bnb_price) / twap.factor();\n    }\n\n    // Should return USD price\n    function getUsdPrice() external view returns (uint256 price) {\n        uint256 token_price = twap.consult(token0, token1);\n        price = toUsd(token_price);\n    }\n}\n\ncontract FakeTwapPriceProvider {\n    address public token0;\n    address public token1;\n    FakePriceProvider public priceProvider;\n    uint256 public price;\n    mapping(uint256 => uint256) public roundIDToExpiry;\n    mapping(uint256 => uint256) public roundIDToPrice;\n\n    constructor(\n        address _token0,\n        address _token1,\n        FakePriceProvider pp\n    ) {\n        token0 = _token0;\n        token1 = _token1;\n        priceProvider = pp;\n    }\n\n    function setPrice(uint256 _price) external {\n        price = _price;\n    }\n\n    function getRoundData(uint256 roundID)\n        external\n        view\n        returns (\n            uint80 roundId,\n            uint256 _price,\n            uint256 startedAt,\n            uint256 updatedAt,\n            uint80 answeredInRound\n        )\n    {\n        (roundId, _price, startedAt, updatedAt, answeredInRound) = (\n            uint80(roundID),\n            roundIDToPrice[roundID],\n            0,\n            roundIDToExpiry[roundID],\n            0\n        );\n    }\n\n    function setRoundData(\n        uint256 roundID,\n        uint256 expiry,\n        uint256 _price\n    ) external {\n        roundIDToExpiry[roundID] = expiry;\n        roundIDToPrice[roundID] = _price;\n    }\n\n    // Should return USD price\n    function getUsdPrice() external view returns (uint256 _price) {\n        uint256 bnb_price = priceProvider.getUsdPrice();\n        uint256 token_price = price;\n        _price = (token_price * bnb_price) / 1e8;\n    }\n}\n","sourcePath":"contracts/TwapPriceProvider.sol","type":"contract","deployment":{"address":"0xdC9facefBED5e3C7760e78cC9533B9DF8375e44e","chainid":"97","blockHeight":20651849}}