{
  "abi": [
    {
      "inputs": [
        {
          "internalType": "address",
          "name": "staking",
          "type": "address"
        },
        {
          "internalType": "uint256",
          "name": "initialImpliedVolRate",
          "type": "uint256"
        },
        {
          "internalType": "contract BufferBinaryIBFRPoolBinary",
          "name": "_pool",
          "type": "address"
        }
      ],
      "stateMutability": "nonpayable",
      "type": "constructor"
    },
    {
      "anonymous": false,
      "inputs": [
        {
          "indexed": true,
          "internalType": "address",
          "name": "previousOwner",
          "type": "address"
        },
        {
          "indexed": true,
          "internalType": "address",
          "name": "newOwner",
          "type": "address"
        }
      ],
      "name": "OwnershipTransferred",
      "type": "event"
    },
    {
      "anonymous": false,
      "inputs": [
        {
          "indexed": false,
          "internalType": "uint256",
          "name": "value",
          "type": "uint256"
        }
      ],
      "name": "UpdateImpliedVolatility",
      "type": "event"
    },
    {
      "anonymous": false,
      "inputs": [
        {
          "indexed": false,
          "internalType": "uint256",
          "name": "value",
          "type": "uint256"
        }
      ],
      "name": "UpdateMaxPeriod",
      "type": "event"
    },
    {
      "anonymous": false,
      "inputs": [
        {
          "indexed": false,
          "internalType": "uint256",
          "name": "value",
          "type": "uint256"
        }
      ],
      "name": "UpdateNFTSaleRoyaltyPercentage",
      "type": "event"
    },
    {
      "anonymous": false,
      "inputs": [
        {
          "indexed": false,
          "internalType": "uint256",
          "name": "value",
          "type": "uint256"
        }
      ],
      "name": "UpdateOptionCollaterizationRatio",
      "type": "event"
    },
    {
      "anonymous": false,
      "inputs": [
        {
          "indexed": false,
          "internalType": "uint256",
          "name": "value",
          "type": "uint256"
        }
      ],
      "name": "UpdateOptionSizePerBlockLimitPercent",
      "type": "event"
    },
    {
      "anonymous": false,
      "inputs": [
        {
          "indexed": false,
          "internalType": "uint256",
          "name": "value",
          "type": "uint256"
        }
      ],
      "name": "UpdateReferralRewardPercentage",
      "type": "event"
    },
    {
      "anonymous": false,
      "inputs": [
        {
          "indexed": false,
          "internalType": "uint256",
          "name": "value",
          "type": "uint256"
        }
      ],
      "name": "UpdateSettlementFeePercentage",
      "type": "event"
    },
    {
      "anonymous": false,
      "inputs": [
        {
          "indexed": false,
          "internalType": "address",
          "name": "account",
          "type": "address"
        }
      ],
      "name": "UpdateSettlementFeeRecipient",
      "type": "event"
    },
    {
      "anonymous": false,
      "inputs": [
        {
          "indexed": false,
          "internalType": "uint256",
          "name": "value",
          "type": "uint256"
        }
      ],
      "name": "UpdateStakingFeePercentage",
      "type": "event"
    },
    {
      "anonymous": false,
      "inputs": [
        {
          "indexed": false,
          "internalType": "uint256",
          "name": "value",
          "type": "uint256"
        }
      ],
      "name": "UpdateStrike",
      "type": "event"
    },
    {
      "anonymous": false,
      "inputs": [
        {
          "indexed": false,
          "internalType": "enum IOptionsConfig.PermittedTradingType",
          "name": "permissionType",
          "type": "uint8"
        }
      ],
      "name": "UpdateTradingPermission",
      "type": "event"
    },
    {
      "anonymous": false,
      "inputs": [
        {
          "indexed": false,
          "internalType": "uint256",
          "name": "value",
          "type": "uint256"
        }
      ],
      "name": "UpdateUnits",
      "type": "event"
    },
    {
      "inputs": [],
      "name": "impliedVolRate",
      "outputs": [
        {
          "internalType": "uint256",
          "name": "",
          "type": "uint256"
        }
      ],
      "stateMutability": "view",
      "type": "function"
    },
    {
      "inputs": [],
      "name": "maxPeriod",
      "outputs": [
        {
          "internalType": "uint256",
          "name": "",
          "type": "uint256"
        }
      ],
      "stateMutability": "view",
      "type": "function"
    },
    {
      "inputs": [],
      "name": "nftSaleRoyaltyPercentage",
      "outputs": [
        {
          "internalType": "uint256",
          "name": "",
          "type": "uint256"
        }
      ],
      "stateMutability": "view",
      "type": "function"
    },
    {
      "inputs": [],
      "name": "optionCollateralizationRatio",
      "outputs": [
        {
          "internalType": "uint256",
          "name": "",
          "type": "uint256"
        }
      ],
      "stateMutability": "view",
      "type": "function"
    },
    {
      "inputs": [],
      "name": "optionSizePerBlockLimitPercent",
      "outputs": [
        {
          "internalType": "uint256",
          "name": "",
          "type": "uint256"
        }
      ],
      "stateMutability": "view",
      "type": "function"
    },
    {
      "inputs": [],
      "name": "owner",
      "outputs": [
        {
          "internalType": "address",
          "name": "",
          "type": "address"
        }
      ],
      "stateMutability": "view",
      "type": "function"
    },
    {
      "inputs": [],
      "name": "permittedTradingType",
      "outputs": [
        {
          "internalType": "enum IOptionsConfig.PermittedTradingType",
          "name": "",
          "type": "uint8"
        }
      ],
      "stateMutability": "view",
      "type": "function"
    },
    {
      "inputs": [],
      "name": "pool",
      "outputs": [
        {
          "internalType": "contract BufferBinaryIBFRPoolBinary",
          "name": "",
          "type": "address"
        }
      ],
      "stateMutability": "view",
      "type": "function"
    },
    {
      "inputs": [],
      "name": "referralRewardPercentage",
      "outputs": [
        {
          "internalType": "uint256",
          "name": "",
          "type": "uint256"
        }
      ],
      "stateMutability": "view",
      "type": "function"
    },
    {
      "inputs": [],
      "name": "renounceOwnership",
      "outputs": [],
      "stateMutability": "nonpayable",
      "type": "function"
    },
    {
      "inputs": [
        {
          "internalType": "uint256",
          "name": "value",
          "type": "uint256"
        }
      ],
      "name": "setImpliedVolRate",
      "outputs": [],
      "stateMutability": "nonpayable",
      "type": "function"
    },
    {
      "inputs": [
        {
          "internalType": "uint256",
          "name": "value",
          "type": "uint256"
        }
      ],
      "name": "setMaxPeriod",
      "outputs": [],
      "stateMutability": "nonpayable",
      "type": "function"
    },
    {
      "inputs": [
        {
          "internalType": "uint256",
          "name": "value",
          "type": "uint256"
        }
      ],
      "name": "setNFTSaleRoyaltyPercentage",
      "outputs": [],
      "stateMutability": "nonpayable",
      "type": "function"
    },
    {
      "inputs": [
        {
          "internalType": "uint256",
          "name": "value",
          "type": "uint256"
        }
      ],
      "name": "setOptionCollaterizationRatio",
      "outputs": [],
      "stateMutability": "nonpayable",
      "type": "function"
    },
    {
      "inputs": [
        {
          "internalType": "uint256",
          "name": "value",
          "type": "uint256"
        }
      ],
      "name": "setReferralRewardPercentage",
      "outputs": [],
      "stateMutability": "nonpayable",
      "type": "function"
    },
    {
      "inputs": [
        {
          "internalType": "uint256",
          "name": "value",
          "type": "uint256"
        }
      ],
      "name": "setSettlementFeePercentage",
      "outputs": [],
      "stateMutability": "nonpayable",
      "type": "function"
    },
    {
      "inputs": [
        {
          "internalType": "address",
          "name": "recipient",
          "type": "address"
        }
      ],
      "name": "setSettlementFeeRecipient",
      "outputs": [],
      "stateMutability": "nonpayable",
      "type": "function"
    },
    {
      "inputs": [
        {
          "internalType": "uint256",
          "name": "value",
          "type": "uint256"
        }
      ],
      "name": "setStakingFeePercentage",
      "outputs": [],
      "stateMutability": "nonpayable",
      "type": "function"
    },
    {
      "inputs": [
        {
          "internalType": "enum IOptionsConfig.PermittedTradingType",
          "name": "permissionType",
          "type": "uint8"
        }
      ],
      "name": "setTradingPermission",
      "outputs": [],
      "stateMutability": "nonpayable",
      "type": "function"
    },
    {
      "inputs": [
        {
          "internalType": "uint256",
          "name": "value",
          "type": "uint256"
        }
      ],
      "name": "setUtilizationRate",
      "outputs": [],
      "stateMutability": "nonpayable",
      "type": "function"
    },
    {
      "inputs": [],
      "name": "settlementFeePercentage",
      "outputs": [
        {
          "internalType": "uint256",
          "name": "",
          "type": "uint256"
        }
      ],
      "stateMutability": "view",
      "type": "function"
    },
    {
      "inputs": [],
      "name": "settlementFeeRecipient",
      "outputs": [
        {
          "internalType": "address",
          "name": "",
          "type": "address"
        }
      ],
      "stateMutability": "view",
      "type": "function"
    },
    {
      "inputs": [],
      "name": "stakingFeePercentage",
      "outputs": [
        {
          "internalType": "uint256",
          "name": "",
          "type": "uint256"
        }
      ],
      "stateMutability": "view",
      "type": "function"
    },
    {
      "inputs": [
        {
          "internalType": "address",
          "name": "newOwner",
          "type": "address"
        }
      ],
      "name": "transferOwnership",
      "outputs": [],
      "stateMutability": "nonpayable",
      "type": "function"
    },
    {
      "inputs": [],
      "name": "utilizationRate",
      "outputs": [
        {
          "internalType": "uint256",
          "name": "",
          "type": "uint256"
        }
      ],
      "stateMutability": "view",
      "type": "function"
    }
  ],
  "bytecode": "608060405260646002556101f4600355603260045560006005556005600655640165a0bc00600855600560095562015180600a5534801561003f57600080fd5b50604051610cd8380380610cd883398101604081905261005e916100ee565b6100673361009e565b600780546001600160a01b039485166001600160a01b031991821617909155600192909255600b8054919093169116179055610148565b600080546001600160a01b038381166001600160a01b0319831681178455604051919092169283917f8be0079c531659141344cd1fd0a4f28419497f9722a3daafe3b4186f6b6457e09190a35050565b600080600060608486031215610102578283fd5b835161010d81610130565b60208501516040860151919450925061012581610130565b809150509250925092565b6001600160a01b038116811461014557600080fd5b50565b610b81806101576000396000f3fe608060405234801561001057600080fd5b50600436106101335760003560e01c806316f0115b14610138578063180acf6e14610161578063181731dc1461017657806318f88e5b146101895780631ec3ad1d146101a0578063302ce651146101b357806340774ff6146101bc57806349b9a67f146101cf5780635cb6bc81146101d85780636c321c8a146101eb578063715018a6146101f457806371bf7e25146101fc5780638da5cb5b14610205578063920a253e1461020d57806396350a8514610216578063ae1c9fc114610229578063ca535c3b1461023c578063ceaeeba914610245578063cedcc6da14610258578063e2bef7541461026b578063ed0974c71461027e578063f12a046614610287578063f2fde38b146102a8578063f3fa3495146102bb578063ff0b025d146102c4575b600080fd5b600b5461014b906001600160a01b031681565b6040516101589190610ab5565b60405180910390f35b61017461016f366004610a9d565b6102d7565b005b60075461014b906001600160a01b031681565b61019260015481565b604051908152602001610158565b6101746101ae366004610a9d565b61039c565b61019260025481565b6101746101ca366004610a9d565b61045d565b610192600a5481565b6101746101e6366004610a9d565b610491565b61019260085481565b610174610516565b61019260095481565b61014b610551565b61019260055481565b610174610224366004610a50565b610560565b610174610237366004610a9d565b6105ed565b61019260045481565b610174610253366004610a9d565b6106b8565b610174610266366004610a9d565b610777565b610174610279366004610a9d565b610838565b61019260065481565b600b5461029b90600160a01b900460ff1681565b6040516101589190610ac9565b6101746102b6366004610a50565b6108ca565b61019260035481565b6101746102d2366004610a7e565b61096a565b336102e0610551565b6001600160a01b03161461030f5760405162461bcd60e51b815260040161030690610b16565b60405180910390fd5b60648111156103605760405162461bcd60e51b815260206004820181905260248201527f5374616b696e6746656550657263656e7461676520697320746f6f20686967686044820152606401610306565b60048190556040518181527f7ab3467fb06d3d8716698bece5f22a665374115bd3d0a43d6e11b76fcec1dfbb906020015b60405180910390a150565b336103a5610551565b6001600160a01b0316146103cb5760405162461bcd60e51b815260040161030690610b16565b6107d081106104285760405162461bcd60e51b815260206004820152602360248201527f536574746c656d656e7446656550657263656e7461676520697320746f6f20686044820152620d2ced60eb1b6064820152608401610306565b60038190556040518181527f803e7bbaebadbda418ec6dd788e57c29c1cf3faeb7e139d21247e624c9e6d11990602001610391565b33610466610551565b6001600160a01b03161461048c5760405162461bcd60e51b815260040161030690610b16565b600855565b3361049a610551565b6001600160a01b0316146104c05760405162461bcd60e51b815260040161030690610b16565b600a8111156104e15760405162461bcd60e51b815260040161030690610af1565b60068190556040518181527f8fb679aa627958fc7143b0829745d581e0f5e98599847e7097749ce89d8c88e090602001610391565b3361051f610551565b6001600160a01b0316146105455760405162461bcd60e51b815260040161030690610b16565b61054f6000610a00565b565b6000546001600160a01b031690565b33610569610551565b6001600160a01b03161461058f5760405162461bcd60e51b815260040161030690610b16565b6001600160a01b0381166105a257600080fd5b600780546001600160a01b0319166001600160a01b0383161790556040517f92f6c1e8df34c666f737a2407b4e63d3a77f133b69fdf70f01b5e3b8072551f690610391908390610ab5565b336105f6610551565b6001600160a01b03161461061c5760405162461bcd60e51b815260040161030690610b16565b61012c8110156106835760405162461bcd60e51b815260206004820152602c60248201527f4d6178506572696f64206e6565647320746f206265206772656174657220746860448201526b616e2035206d696e7574657360a01b6064820152608401610306565b600a8190556040518181527f0967eeac7ccaa5705556859408ddb017bac37afa817dd8ff3d27cf4ea1171a6690602001610391565b336106c1610551565b6001600160a01b0316146106e75760405162461bcd60e51b815260040161030690610b16565b60648110156107425760405162461bcd60e51b815260206004820152602160248201527f496d706c696564566f6c52617465206c696d697420697320746f6f20736d616c6044820152601b60fa1b6064820152608401610306565b60018190556040518181527f3e0c59249d1a9c5f08383bdbdfbc45517a71b76e72223ae649c576e4d125869690602001610391565b33610780610551565b6001600160a01b0316146107a65760405162461bcd60e51b815260040161030690610b16565b60648111156108035760405162461bcd60e51b8152602060048201526024808201527f526566657272616c52657761726450657263656e7461676520697320746f6f206044820152630d0d2ced60e31b6064820152608401610306565b60058190556040518181527f0c089466003b94ffb5787d1d1affe1c743f8ca63f949d2296cfa4d7986601ade90602001610391565b33610841610551565b6001600160a01b0316146108675760405162461bcd60e51b815260040161030690610b16565b80603211158015610879575060648111155b6108955760405162461bcd60e51b815260040161030690610af1565b60028190556040518181527f66b26a0dfaa5fc9f5c7432381208aa4bd7f13f4489299b52f09f1af7669bb93b90602001610391565b336108d3610551565b6001600160a01b0316146108f95760405162461bcd60e51b815260040161030690610b16565b6001600160a01b03811661095e5760405162461bcd60e51b815260206004820152602660248201527f4f776e61626c653a206e6577206f776e657220697320746865207a65726f206160448201526564647265737360d01b6064820152608401610306565b61096781610a00565b50565b33610973610551565b6001600160a01b0316146109995760405162461bcd60e51b815260040161030690610b16565b600b805482919060ff60a01b1916600160a01b8360038111156109cc57634e487b7160e01b600052602160045260246000fd5b02179055507f75e98309d621801fc34e8ce7fa6eaa10b82599a58639171fe865e39bb4728d48816040516103919190610ac9565b600080546001600160a01b038381166001600160a01b0319831681178455604051919092169283917f8be0079c531659141344cd1fd0a4f28419497f9722a3daafe3b4186f6b6457e09190a35050565b600060208284031215610a61578081fd5b81356001600160a01b0381168114610a77578182fd5b9392505050565b600060208284031215610a8f578081fd5b813560048110610a77578182fd5b600060208284031215610aae578081fd5b5035919050565b6001600160a01b0391909116815260200190565b6020810160048310610aeb57634e487b7160e01b600052602160045260246000fd5b91905290565b6020808252600b908201526a77726f6e672076616c756560a81b604082015260600190565b6020808252818101527f4f776e61626c653a2063616c6c6572206973206e6f7420746865206f776e657260408201526060019056fea26469706673582212206b13f03740514f6993d3278d099f4f1e674245b5991724cc3e6a7bc9ceb7bfa564736f6c63430008040033",
  "bytecodeSha1": "720a43fa800843688adba091135852cfec31df2d",
  "compiler": {
    "evm_version": "istanbul",
    "optimizer": {
      "enabled": true,
      "runs": 1
    },
    "version": "0.8.4+commit.c7e474f2"
  },
  "contractName": "OptionConfigBinaryV2",
  "language": "Solidity",
  "natspec": {
    "author": "Heisenberg",
    "kind": "dev",
    "methods": {
      "owner()": {
        "details": "Returns the address of the current owner."
      },
      "renounceOwnership()": {
        "details": "Leaves the contract without owner. It will not be possible to call `onlyOwner` functions anymore. Can only be called by the current owner. NOTE: Renouncing ownership will leave the contract without an owner, thereby removing any functionality that is only available to the owner."
      },
      "setImpliedVolRate(uint256)": {
        "notice": "Used for adjusting the options prices while balancing asset's implied volatility rate",
        "params": {
          "value": "New IVRate value"
        }
      },
      "setMaxPeriod(uint256)": {
        "notice": "Used for adjusting the maxPeriod",
        "params": {
          "value": "New maxPeriod"
        }
      },
      "setNFTSaleRoyaltyPercentage(uint256)": {
        "notice": "Used for changing nftSaleRoyaltyPercentage",
        "params": {
          "value": "New nftSaleRoyaltyPercentage value"
        }
      },
      "setOptionCollaterizationRatio(uint256)": {
        "notice": "Used for changing option collateralization ratio",
        "params": {
          "value": "New optionCollateralizationRatio value"
        }
      },
      "setReferralRewardPercentage(uint256)": {
        "notice": "Used for adjusting the referral reward percentage",
        "params": {
          "value": "New Referral Reward Percentage"
        }
      },
      "setSettlementFeePercentage(uint256)": {
        "notice": "Used for adjusting the settlement fee percentage with a factor of 100",
        "params": {
          "value": "New Settlement Fee Percentage"
        }
      },
      "setSettlementFeeRecipient(address)": {
        "notice": "Used for changing settlementFeeRecipient",
        "params": {
          "recipient": "New settlementFee recipient address"
        }
      },
      "setStakingFeePercentage(uint256)": {
        "notice": "Used for adjusting the staking fee percentage",
        "params": {
          "value": "New Staking Fee Percentage"
        }
      },
      "setUtilizationRate(uint256)": {
        "notice": "Used for updating utilizationRate value",
        "params": {
          "value": "New utilizationRate value*"
        }
      },
      "transferOwnership(address)": {
        "details": "Transfers ownership of the contract to a new account (`newOwner`). Can only be called by the current owner."
      }
    },
    "notice": "Buffer BNB Options Contract",
    "title": "Buffer BNB Bidirectional (Call and Put) Options",
    "version": 1
  },
  "opcodes": "PUSH1 0x80 PUSH1 0x40 MSTORE CALLVALUE DUP1 ISZERO PUSH2 0x10 JUMPI PUSH1 0x0 DUP1 REVERT JUMPDEST POP PUSH1 0x4 CALLDATASIZE LT PUSH2 0x133 JUMPI PUSH1 0x0 CALLDATALOAD PUSH1 0xE0 SHR DUP1 PUSH4 0x16F0115B EQ PUSH2 0x138 JUMPI DUP1 PUSH4 0x180ACF6E EQ PUSH2 0x161 JUMPI DUP1 PUSH4 0x181731DC EQ PUSH2 0x176 JUMPI DUP1 PUSH4 0x18F88E5B EQ PUSH2 0x189 JUMPI DUP1 PUSH4 0x1EC3AD1D EQ PUSH2 0x1A0 JUMPI DUP1 PUSH4 0x302CE651 EQ PUSH2 0x1B3 JUMPI DUP1 PUSH4 0x40774FF6 EQ PUSH2 0x1BC JUMPI DUP1 PUSH4 0x49B9A67F EQ PUSH2 0x1CF JUMPI DUP1 PUSH4 0x5CB6BC81 EQ PUSH2 0x1D8 JUMPI DUP1 PUSH4 0x6C321C8A EQ PUSH2 0x1EB JUMPI DUP1 PUSH4 0x715018A6 EQ PUSH2 0x1F4 JUMPI DUP1 PUSH4 0x71BF7E25 EQ PUSH2 0x1FC JUMPI DUP1 PUSH4 0x8DA5CB5B EQ PUSH2 0x205 JUMPI DUP1 PUSH4 0x920A253E EQ PUSH2 0x20D JUMPI DUP1 PUSH4 0x96350A85 EQ PUSH2 0x216 JUMPI DUP1 PUSH4 0xAE1C9FC1 EQ PUSH2 0x229 JUMPI DUP1 PUSH4 0xCA535C3B EQ PUSH2 0x23C JUMPI DUP1 PUSH4 0xCEAEEBA9 EQ PUSH2 0x245 JUMPI DUP1 PUSH4 0xCEDCC6DA EQ PUSH2 0x258 JUMPI DUP1 PUSH4 0xE2BEF754 EQ PUSH2 0x26B JUMPI DUP1 PUSH4 0xED0974C7 EQ PUSH2 0x27E JUMPI DUP1 PUSH4 0xF12A0466 EQ PUSH2 0x287 JUMPI DUP1 PUSH4 0xF2FDE38B EQ PUSH2 0x2A8 JUMPI DUP1 PUSH4 0xF3FA3495 EQ PUSH2 0x2BB JUMPI DUP1 PUSH4 0xFF0B025D EQ PUSH2 0x2C4 JUMPI JUMPDEST PUSH1 0x0 DUP1 REVERT JUMPDEST PUSH1 0xB SLOAD PUSH2 0x14B SWAP1 PUSH1 0x1 PUSH1 0x1 PUSH1 0xA0 SHL SUB AND DUP2 JUMP JUMPDEST PUSH1 0x40 MLOAD PUSH2 0x158 SWAP2 SWAP1 PUSH2 0xAB5 JUMP JUMPDEST PUSH1 0x40 MLOAD DUP1 SWAP2 SUB SWAP1 RETURN JUMPDEST PUSH2 0x174 PUSH2 0x16F CALLDATASIZE PUSH1 0x4 PUSH2 0xA9D JUMP JUMPDEST PUSH2 0x2D7 JUMP JUMPDEST STOP JUMPDEST PUSH1 0x7 SLOAD PUSH2 0x14B SWAP1 PUSH1 0x1 PUSH1 0x1 PUSH1 0xA0 SHL SUB AND DUP2 JUMP JUMPDEST PUSH2 0x192 PUSH1 0x1 SLOAD DUP2 JUMP JUMPDEST PUSH1 0x40 MLOAD SWAP1 DUP2 MSTORE PUSH1 0x20 ADD PUSH2 0x158 JUMP JUMPDEST PUSH2 0x174 PUSH2 0x1AE CALLDATASIZE PUSH1 0x4 PUSH2 0xA9D JUMP JUMPDEST PUSH2 0x39C JUMP JUMPDEST PUSH2 0x192 PUSH1 0x2 SLOAD DUP2 JUMP JUMPDEST PUSH2 0x174 PUSH2 0x1CA CALLDATASIZE PUSH1 0x4 PUSH2 0xA9D JUMP JUMPDEST PUSH2 0x45D JUMP JUMPDEST PUSH2 0x192 PUSH1 0xA SLOAD DUP2 JUMP JUMPDEST PUSH2 0x174 PUSH2 0x1E6 CALLDATASIZE PUSH1 0x4 PUSH2 0xA9D JUMP JUMPDEST PUSH2 0x491 JUMP JUMPDEST PUSH2 0x192 PUSH1 0x8 SLOAD DUP2 JUMP JUMPDEST PUSH2 0x174 PUSH2 0x516 JUMP JUMPDEST PUSH2 0x192 PUSH1 0x9 SLOAD DUP2 JUMP JUMPDEST PUSH2 0x14B PUSH2 0x551 JUMP JUMPDEST PUSH2 0x192 PUSH1 0x5 SLOAD DUP2 JUMP JUMPDEST PUSH2 0x174 PUSH2 0x224 CALLDATASIZE PUSH1 0x4 PUSH2 0xA50 JUMP JUMPDEST PUSH2 0x560 JUMP JUMPDEST PUSH2 0x174 PUSH2 0x237 CALLDATASIZE PUSH1 0x4 PUSH2 0xA9D JUMP JUMPDEST PUSH2 0x5ED JUMP JUMPDEST PUSH2 0x192 PUSH1 0x4 SLOAD DUP2 JUMP JUMPDEST PUSH2 0x174 PUSH2 0x253 CALLDATASIZE PUSH1 0x4 PUSH2 0xA9D JUMP JUMPDEST PUSH2 0x6B8 JUMP JUMPDEST PUSH2 0x174 PUSH2 0x266 CALLDATASIZE PUSH1 0x4 PUSH2 0xA9D JUMP JUMPDEST PUSH2 0x777 JUMP JUMPDEST PUSH2 0x174 PUSH2 0x279 CALLDATASIZE PUSH1 0x4 PUSH2 0xA9D JUMP JUMPDEST PUSH2 0x838 JUMP JUMPDEST PUSH2 0x192 PUSH1 0x6 SLOAD DUP2 JUMP JUMPDEST PUSH1 0xB SLOAD PUSH2 0x29B SWAP1 PUSH1 0x1 PUSH1 0xA0 SHL SWAP1 DIV PUSH1 0xFF AND DUP2 JUMP JUMPDEST PUSH1 0x40 MLOAD PUSH2 0x158 SWAP2 SWAP1 PUSH2 0xAC9 JUMP JUMPDEST PUSH2 0x174 PUSH2 0x2B6 CALLDATASIZE PUSH1 0x4 PUSH2 0xA50 JUMP JUMPDEST PUSH2 0x8CA JUMP JUMPDEST PUSH2 0x192 PUSH1 0x3 SLOAD DUP2 JUMP JUMPDEST PUSH2 0x174 PUSH2 0x2D2 CALLDATASIZE PUSH1 0x4 PUSH2 0xA7E JUMP JUMPDEST PUSH2 0x96A JUMP JUMPDEST CALLER PUSH2 0x2E0 PUSH2 0x551 JUMP JUMPDEST PUSH1 0x1 PUSH1 0x1 PUSH1 0xA0 SHL SUB AND EQ PUSH2 0x30F JUMPI PUSH1 0x40 MLOAD PUSH3 0x461BCD PUSH1 0xE5 SHL DUP2 MSTORE PUSH1 0x4 ADD PUSH2 0x306 SWAP1 PUSH2 0xB16 JUMP JUMPDEST PUSH1 0x40 MLOAD DUP1 SWAP2 SUB SWAP1 REVERT JUMPDEST PUSH1 0x64 DUP2 GT ISZERO PUSH2 0x360 JUMPI PUSH1 0x40 MLOAD PUSH3 0x461BCD PUSH1 0xE5 SHL DUP2 MSTORE PUSH1 0x20 PUSH1 0x4 DUP3 ADD DUP2 SWAP1 MSTORE PUSH1 0x24 DUP3 ADD MSTORE PUSH32 0x5374616B696E6746656550657263656E7461676520697320746F6F2068696768 PUSH1 0x44 DUP3 ADD MSTORE PUSH1 0x64 ADD PUSH2 0x306 JUMP JUMPDEST PUSH1 0x4 DUP2 SWAP1 SSTORE PUSH1 0x40 MLOAD DUP2 DUP2 MSTORE PUSH32 0x7AB3467FB06D3D8716698BECE5F22A665374115BD3D0A43D6E11B76FCEC1DFBB SWAP1 PUSH1 0x20 ADD JUMPDEST PUSH1 0x40 MLOAD DUP1 SWAP2 SUB SWAP1 LOG1 POP JUMP JUMPDEST CALLER PUSH2 0x3A5 PUSH2 0x551 JUMP JUMPDEST PUSH1 0x1 PUSH1 0x1 PUSH1 0xA0 SHL SUB AND EQ PUSH2 0x3CB JUMPI PUSH1 0x40 MLOAD PUSH3 0x461BCD PUSH1 0xE5 SHL DUP2 MSTORE PUSH1 0x4 ADD PUSH2 0x306 SWAP1 PUSH2 0xB16 JUMP JUMPDEST PUSH2 0x7D0 DUP2 LT PUSH2 0x428 JUMPI PUSH1 0x40 MLOAD PUSH3 0x461BCD PUSH1 0xE5 SHL DUP2 MSTORE PUSH1 0x20 PUSH1 0x4 DUP3 ADD MSTORE PUSH1 0x23 PUSH1 0x24 DUP3 ADD MSTORE PUSH32 0x536574746C656D656E7446656550657263656E7461676520697320746F6F2068 PUSH1 0x44 DUP3 ADD MSTORE PUSH3 0xD2CED PUSH1 0xEB SHL PUSH1 0x64 DUP3 ADD MSTORE PUSH1 0x84 ADD PUSH2 0x306 JUMP JUMPDEST PUSH1 0x3 DUP2 SWAP1 SSTORE PUSH1 0x40 MLOAD DUP2 DUP2 MSTORE PUSH32 0x803E7BBAEBADBDA418EC6DD788E57C29C1CF3FAEB7E139D21247E624C9E6D119 SWAP1 PUSH1 0x20 ADD PUSH2 0x391 JUMP JUMPDEST CALLER PUSH2 0x466 PUSH2 0x551 JUMP JUMPDEST PUSH1 0x1 PUSH1 0x1 PUSH1 0xA0 SHL SUB AND EQ PUSH2 0x48C JUMPI PUSH1 0x40 MLOAD PUSH3 0x461BCD PUSH1 0xE5 SHL DUP2 MSTORE PUSH1 0x4 ADD PUSH2 0x306 SWAP1 PUSH2 0xB16 JUMP JUMPDEST PUSH1 0x8 SSTORE JUMP JUMPDEST CALLER PUSH2 0x49A PUSH2 0x551 JUMP JUMPDEST PUSH1 0x1 PUSH1 0x1 PUSH1 0xA0 SHL SUB AND EQ PUSH2 0x4C0 JUMPI PUSH1 0x40 MLOAD PUSH3 0x461BCD PUSH1 0xE5 SHL DUP2 MSTORE PUSH1 0x4 ADD PUSH2 0x306 SWAP1 PUSH2 0xB16 JUMP JUMPDEST PUSH1 0xA DUP2 GT ISZERO PUSH2 0x4E1 JUMPI PUSH1 0x40 MLOAD PUSH3 0x461BCD PUSH1 0xE5 SHL DUP2 MSTORE PUSH1 0x4 ADD PUSH2 0x306 SWAP1 PUSH2 0xAF1 JUMP JUMPDEST PUSH1 0x6 DUP2 SWAP1 SSTORE PUSH1 0x40 MLOAD DUP2 DUP2 MSTORE PUSH32 0x8FB679AA627958FC7143B0829745D581E0F5E98599847E7097749CE89D8C88E0 SWAP1 PUSH1 0x20 ADD PUSH2 0x391 JUMP JUMPDEST CALLER PUSH2 0x51F PUSH2 0x551 JUMP JUMPDEST PUSH1 0x1 PUSH1 0x1 PUSH1 0xA0 SHL SUB AND EQ PUSH2 0x545 JUMPI PUSH1 0x40 MLOAD PUSH3 0x461BCD PUSH1 0xE5 SHL DUP2 MSTORE PUSH1 0x4 ADD PUSH2 0x306 SWAP1 PUSH2 0xB16 JUMP JUMPDEST PUSH2 0x54F PUSH1 0x0 PUSH2 0xA00 JUMP JUMPDEST JUMP JUMPDEST PUSH1 0x0 SLOAD PUSH1 0x1 PUSH1 0x1 PUSH1 0xA0 SHL SUB AND SWAP1 JUMP JUMPDEST CALLER PUSH2 0x569 PUSH2 0x551 JUMP JUMPDEST PUSH1 0x1 PUSH1 0x1 PUSH1 0xA0 SHL SUB AND EQ PUSH2 0x58F JUMPI PUSH1 0x40 MLOAD PUSH3 0x461BCD PUSH1 0xE5 SHL DUP2 MSTORE PUSH1 0x4 ADD PUSH2 0x306 SWAP1 PUSH2 0xB16 JUMP JUMPDEST PUSH1 0x1 PUSH1 0x1 PUSH1 0xA0 SHL SUB DUP2 AND PUSH2 0x5A2 JUMPI PUSH1 0x0 DUP1 REVERT JUMPDEST PUSH1 0x7 DUP1 SLOAD PUSH1 0x1 PUSH1 0x1 PUSH1 0xA0 SHL SUB NOT AND PUSH1 0x1 PUSH1 0x1 PUSH1 0xA0 SHL SUB DUP4 AND OR SWAP1 SSTORE PUSH1 0x40 MLOAD PUSH32 0x92F6C1E8DF34C666F737A2407B4E63D3A77F133B69FDF70F01B5E3B8072551F6 SWAP1 PUSH2 0x391 SWAP1 DUP4 SWAP1 PUSH2 0xAB5 JUMP JUMPDEST CALLER PUSH2 0x5F6 PUSH2 0x551 JUMP JUMPDEST PUSH1 0x1 PUSH1 0x1 PUSH1 0xA0 SHL SUB AND EQ PUSH2 0x61C JUMPI PUSH1 0x40 MLOAD PUSH3 0x461BCD PUSH1 0xE5 SHL DUP2 MSTORE PUSH1 0x4 ADD PUSH2 0x306 SWAP1 PUSH2 0xB16 JUMP JUMPDEST PUSH2 0x12C DUP2 LT ISZERO PUSH2 0x683 JUMPI PUSH1 0x40 MLOAD PUSH3 0x461BCD PUSH1 0xE5 SHL DUP2 MSTORE PUSH1 0x20 PUSH1 0x4 DUP3 ADD MSTORE PUSH1 0x2C PUSH1 0x24 DUP3 ADD MSTORE PUSH32 0x4D6178506572696F64206E6565647320746F2062652067726561746572207468 PUSH1 0x44 DUP3 ADD MSTORE PUSH12 0x616E2035206D696E75746573 PUSH1 0xA0 SHL PUSH1 0x64 DUP3 ADD MSTORE PUSH1 0x84 ADD PUSH2 0x306 JUMP JUMPDEST PUSH1 0xA DUP2 SWAP1 SSTORE PUSH1 0x40 MLOAD DUP2 DUP2 MSTORE PUSH32 0x967EEAC7CCAA5705556859408DDB017BAC37AFA817DD8FF3D27CF4EA1171A66 SWAP1 PUSH1 0x20 ADD PUSH2 0x391 JUMP JUMPDEST CALLER PUSH2 0x6C1 PUSH2 0x551 JUMP JUMPDEST PUSH1 0x1 PUSH1 0x1 PUSH1 0xA0 SHL SUB AND EQ PUSH2 0x6E7 JUMPI PUSH1 0x40 MLOAD PUSH3 0x461BCD PUSH1 0xE5 SHL DUP2 MSTORE PUSH1 0x4 ADD PUSH2 0x306 SWAP1 PUSH2 0xB16 JUMP JUMPDEST PUSH1 0x64 DUP2 LT ISZERO PUSH2 0x742 JUMPI PUSH1 0x40 MLOAD PUSH3 0x461BCD PUSH1 0xE5 SHL DUP2 MSTORE PUSH1 0x20 PUSH1 0x4 DUP3 ADD MSTORE PUSH1 0x21 PUSH1 0x24 DUP3 ADD MSTORE PUSH32 0x496D706C696564566F6C52617465206C696D697420697320746F6F20736D616C PUSH1 0x44 DUP3 ADD MSTORE PUSH1 0x1B PUSH1 0xFA SHL PUSH1 0x64 DUP3 ADD MSTORE PUSH1 0x84 ADD PUSH2 0x306 JUMP JUMPDEST PUSH1 0x1 DUP2 SWAP1 SSTORE PUSH1 0x40 MLOAD DUP2 DUP2 MSTORE PUSH32 0x3E0C59249D1A9C5F08383BDBDFBC45517A71B76E72223AE649C576E4D1258696 SWAP1 PUSH1 0x20 ADD PUSH2 0x391 JUMP JUMPDEST CALLER PUSH2 0x780 PUSH2 0x551 JUMP JUMPDEST PUSH1 0x1 PUSH1 0x1 PUSH1 0xA0 SHL SUB AND EQ PUSH2 0x7A6 JUMPI PUSH1 0x40 MLOAD PUSH3 0x461BCD PUSH1 0xE5 SHL DUP2 MSTORE PUSH1 0x4 ADD PUSH2 0x306 SWAP1 PUSH2 0xB16 JUMP JUMPDEST PUSH1 0x64 DUP2 GT ISZERO PUSH2 0x803 JUMPI PUSH1 0x40 MLOAD PUSH3 0x461BCD PUSH1 0xE5 SHL DUP2 MSTORE PUSH1 0x20 PUSH1 0x4 DUP3 ADD MSTORE PUSH1 0x24 DUP1 DUP3 ADD MSTORE PUSH32 0x526566657272616C52657761726450657263656E7461676520697320746F6F20 PUSH1 0x44 DUP3 ADD MSTORE PUSH4 0xD0D2CED PUSH1 0xE3 SHL PUSH1 0x64 DUP3 ADD MSTORE PUSH1 0x84 ADD PUSH2 0x306 JUMP JUMPDEST PUSH1 0x5 DUP2 SWAP1 SSTORE PUSH1 0x40 MLOAD DUP2 DUP2 MSTORE PUSH32 0xC089466003B94FFB5787D1D1AFFE1C743F8CA63F949D2296CFA4D7986601ADE SWAP1 PUSH1 0x20 ADD PUSH2 0x391 JUMP JUMPDEST CALLER PUSH2 0x841 PUSH2 0x551 JUMP JUMPDEST PUSH1 0x1 PUSH1 0x1 PUSH1 0xA0 SHL SUB AND EQ PUSH2 0x867 JUMPI PUSH1 0x40 MLOAD PUSH3 0x461BCD PUSH1 0xE5 SHL DUP2 MSTORE PUSH1 0x4 ADD PUSH2 0x306 SWAP1 PUSH2 0xB16 JUMP JUMPDEST DUP1 PUSH1 0x32 GT ISZERO DUP1 ISZERO PUSH2 0x879 JUMPI POP PUSH1 0x64 DUP2 GT ISZERO JUMPDEST PUSH2 0x895 JUMPI PUSH1 0x40 MLOAD PUSH3 0x461BCD PUSH1 0xE5 SHL DUP2 MSTORE PUSH1 0x4 ADD PUSH2 0x306 SWAP1 PUSH2 0xAF1 JUMP JUMPDEST PUSH1 0x2 DUP2 SWAP1 SSTORE PUSH1 0x40 MLOAD DUP2 DUP2 MSTORE PUSH32 0x66B26A0DFAA5FC9F5C7432381208AA4BD7F13F4489299B52F09F1AF7669BB93B SWAP1 PUSH1 0x20 ADD PUSH2 0x391 JUMP JUMPDEST CALLER PUSH2 0x8D3 PUSH2 0x551 JUMP JUMPDEST PUSH1 0x1 PUSH1 0x1 PUSH1 0xA0 SHL SUB AND EQ PUSH2 0x8F9 JUMPI PUSH1 0x40 MLOAD PUSH3 0x461BCD PUSH1 0xE5 SHL DUP2 MSTORE PUSH1 0x4 ADD PUSH2 0x306 SWAP1 PUSH2 0xB16 JUMP JUMPDEST PUSH1 0x1 PUSH1 0x1 PUSH1 0xA0 SHL SUB DUP2 AND PUSH2 0x95E JUMPI PUSH1 0x40 MLOAD PUSH3 0x461BCD PUSH1 0xE5 SHL DUP2 MSTORE PUSH1 0x20 PUSH1 0x4 DUP3 ADD MSTORE PUSH1 0x26 PUSH1 0x24 DUP3 ADD MSTORE PUSH32 0x4F776E61626C653A206E6577206F776E657220697320746865207A65726F2061 PUSH1 0x44 DUP3 ADD MSTORE PUSH6 0x646472657373 PUSH1 0xD0 SHL PUSH1 0x64 DUP3 ADD MSTORE PUSH1 0x84 ADD PUSH2 0x306 JUMP JUMPDEST PUSH2 0x967 DUP2 PUSH2 0xA00 JUMP JUMPDEST POP JUMP JUMPDEST CALLER PUSH2 0x973 PUSH2 0x551 JUMP JUMPDEST PUSH1 0x1 PUSH1 0x1 PUSH1 0xA0 SHL SUB AND EQ PUSH2 0x999 JUMPI PUSH1 0x40 MLOAD PUSH3 0x461BCD PUSH1 0xE5 SHL DUP2 MSTORE PUSH1 0x4 ADD PUSH2 0x306 SWAP1 PUSH2 0xB16 JUMP JUMPDEST PUSH1 0xB DUP1 SLOAD DUP3 SWAP2 SWAP1 PUSH1 0xFF PUSH1 0xA0 SHL NOT AND PUSH1 0x1 PUSH1 0xA0 SHL DUP4 PUSH1 0x3 DUP2 GT ISZERO PUSH2 0x9CC JUMPI PUSH4 0x4E487B71 PUSH1 0xE0 SHL PUSH1 0x0 MSTORE PUSH1 0x21 PUSH1 0x4 MSTORE PUSH1 0x24 PUSH1 0x0 REVERT JUMPDEST MUL OR SWAP1 SSTORE POP PUSH32 0x75E98309D621801FC34E8CE7FA6EAA10B82599A58639171FE865E39BB4728D48 DUP2 PUSH1 0x40 MLOAD PUSH2 0x391 SWAP2 SWAP1 PUSH2 0xAC9 JUMP JUMPDEST PUSH1 0x0 DUP1 SLOAD PUSH1 0x1 PUSH1 0x1 PUSH1 0xA0 SHL SUB DUP4 DUP2 AND PUSH1 0x1 PUSH1 0x1 PUSH1 0xA0 SHL SUB NOT DUP4 AND DUP2 OR DUP5 SSTORE PUSH1 0x40 MLOAD SWAP2 SWAP1 SWAP3 AND SWAP3 DUP4 SWAP2 PUSH32 0x8BE0079C531659141344CD1FD0A4F28419497F9722A3DAAFE3B4186F6B6457E0 SWAP2 SWAP1 LOG3 POP POP JUMP JUMPDEST PUSH1 0x0 PUSH1 0x20 DUP3 DUP5 SUB SLT ISZERO PUSH2 0xA61 JUMPI DUP1 DUP2 REVERT JUMPDEST DUP2 CALLDATALOAD PUSH1 0x1 PUSH1 0x1 PUSH1 0xA0 SHL SUB DUP2 AND DUP2 EQ PUSH2 0xA77 JUMPI DUP2 DUP3 REVERT JUMPDEST SWAP4 SWAP3 POP POP POP JUMP JUMPDEST PUSH1 0x0 PUSH1 0x20 DUP3 DUP5 SUB SLT ISZERO PUSH2 0xA8F JUMPI DUP1 DUP2 REVERT JUMPDEST DUP2 CALLDATALOAD PUSH1 0x4 DUP2 LT PUSH2 0xA77 JUMPI DUP2 DUP3 REVERT JUMPDEST PUSH1 0x0 PUSH1 0x20 DUP3 DUP5 SUB SLT ISZERO PUSH2 0xAAE JUMPI DUP1 DUP2 REVERT JUMPDEST POP CALLDATALOAD SWAP2 SWAP1 POP JUMP JUMPDEST PUSH1 0x1 PUSH1 0x1 PUSH1 0xA0 SHL SUB SWAP2 SWAP1 SWAP2 AND DUP2 MSTORE PUSH1 0x20 ADD SWAP1 JUMP JUMPDEST PUSH1 0x20 DUP2 ADD PUSH1 0x4 DUP4 LT PUSH2 0xAEB JUMPI PUSH4 0x4E487B71 PUSH1 0xE0 SHL PUSH1 0x0 MSTORE PUSH1 0x21 PUSH1 0x4 MSTORE PUSH1 0x24 PUSH1 0x0 REVERT JUMPDEST SWAP2 SWAP1 MSTORE SWAP1 JUMP JUMPDEST PUSH1 0x20 DUP1 DUP3 MSTORE PUSH1 0xB SWAP1 DUP3 ADD MSTORE PUSH11 0x77726F6E672076616C7565 PUSH1 0xA8 SHL PUSH1 0x40 DUP3 ADD MSTORE PUSH1 0x60 ADD SWAP1 JUMP JUMPDEST PUSH1 0x20 DUP1 DUP3 MSTORE DUP2 DUP2 ADD MSTORE PUSH32 0x4F776E61626C653A2063616C6C6572206973206E6F7420746865206F776E6572 PUSH1 0x40 DUP3 ADD MSTORE PUSH1 0x60 ADD SWAP1 JUMP INVALID LOG2 PUSH5 0x6970667358 0x22 SLT KECCAK256 PUSH12 0x13F03740514F6993D3278D09 SWAP16 0x4F 0x1E PUSH8 0x4245B5991724CC3E PUSH11 0x7BC9CEB7BFA564736F6C63 NUMBER STOP ADDMOD DIV STOP CALLER ",
  "sha1": "cd621981ce3c738807e3d74a48ad3dd1f0941967",
  "source": "pragma solidity ^0.8.0;\n\n// SPDX-License-Identifier: BUSL-1.1\n\nimport \"@openzeppelin/contracts/access/Ownable.sol\";\nimport \"./BufferBinaryIBFRPoolBinary.sol\";\n\n/**\n * @author Heisenberg\n * @title Buffer BNB Bidirectional (Call and Put) Options\n * @notice Buffer BNB Options Contract\n */\ncontract OptionConfigBinaryV2 is Ownable, IOptionsConfig {\n    uint256 public impliedVolRate;\n    uint256 public optionCollateralizationRatio = 100;\n    uint256 public settlementFeePercentage = 5e2;\n    uint256 public stakingFeePercentage = 50;\n    uint256 public referralRewardPercentage = 0;\n    uint256 public nftSaleRoyaltyPercentage = 5;\n    uint256 internal constant PRICE_DECIMALS = 1e8;\n    address public settlementFeeRecipient;\n    uint256 public utilizationRate = 60e8;\n    uint256 public optionSizePerBlockLimitPercent = 5;\n    uint256 public maxPeriod = 24 hours;\n    BufferBinaryIBFRPoolBinary public pool;\n    PermittedTradingType public permittedTradingType;\n\n    constructor(\n        address staking,\n        uint256 initialImpliedVolRate,\n        BufferBinaryIBFRPoolBinary _pool\n    ) {\n        settlementFeeRecipient = staking;\n        impliedVolRate = initialImpliedVolRate;\n        pool = _pool;\n    }\n\n    /**\n     * @notice Used for adjusting the maxPeriod\n     * @param value New maxPeriod\n     */\n    function setMaxPeriod(uint256 value) external onlyOwner {\n        require(\n            value >= 5 minutes,\n            \"MaxPeriod needs to be greater than 5 minutes\"\n        );\n        maxPeriod = value;\n        emit UpdateMaxPeriod(value);\n    }\n\n    /**\n     * @notice Used for adjusting the options prices while balancing asset's implied volatility rate\n     * @param value New IVRate value\n     */\n    function setImpliedVolRate(uint256 value) external onlyOwner {\n        require(value >= 100, \"ImpliedVolRate limit is too small\");\n        impliedVolRate = value;\n        emit UpdateImpliedVolatility(value);\n    }\n\n    function setTradingPermission(PermittedTradingType permissionType)\n        external\n        onlyOwner\n    {\n        permittedTradingType = permissionType;\n        emit UpdateTradingPermission(permissionType);\n    }\n\n    /**\n     * @notice Used for adjusting the settlement fee percentage with a factor of 100\n     * @param value New Settlement Fee Percentage\n     */\n    function setSettlementFeePercentage(uint256 value) external onlyOwner {\n        require(value < 20e2, \"SettlementFeePercentage is too high\");\n        settlementFeePercentage = value;\n        emit UpdateSettlementFeePercentage(value);\n    }\n\n    /**\n     * @notice Used for changing settlementFeeRecipient\n     * @param recipient New settlementFee recipient address\n     */\n    function setSettlementFeeRecipient(address recipient) external onlyOwner {\n        require(address(recipient) != address(0));\n        settlementFeeRecipient = recipient;\n        emit UpdateSettlementFeeRecipient(address(recipient));\n    }\n\n    /**\n     * @notice Used for adjusting the staking fee percentage\n     * @param value New Staking Fee Percentage\n     */\n    function setStakingFeePercentage(uint256 value) external onlyOwner {\n        require(value <= 100, \"StakingFeePercentage is too high\");\n        stakingFeePercentage = value;\n        emit UpdateStakingFeePercentage(value);\n    }\n\n    /**\n     * @notice Used for adjusting the referral reward percentage\n     * @param value New Referral Reward Percentage\n     */\n    function setReferralRewardPercentage(uint256 value) external onlyOwner {\n        require(value <= 100, \"ReferralRewardPercentage is too high\");\n        referralRewardPercentage = value;\n        emit UpdateReferralRewardPercentage(value);\n    }\n\n    /**\n     * @notice Used for changing option collateralization ratio\n     * @param value New optionCollateralizationRatio value\n     */\n    function setOptionCollaterizationRatio(uint256 value) external onlyOwner {\n        require(50 <= value && value <= 100, \"wrong value\");\n        optionCollateralizationRatio = value;\n        emit UpdateOptionCollaterizationRatio(value);\n    }\n\n    /**\n     * @notice Used for changing nftSaleRoyaltyPercentage\n     * @param value New nftSaleRoyaltyPercentage value\n     */\n    function setNFTSaleRoyaltyPercentage(uint256 value) external onlyOwner {\n        require(value <= 10, \"wrong value\");\n        nftSaleRoyaltyPercentage = value;\n        emit UpdateNFTSaleRoyaltyPercentage(value);\n    }\n\n    /**\n     * @notice Used for updating utilizationRate value\n     * @param value New utilizationRate value\n     **/\n    function setUtilizationRate(uint256 value) external onlyOwner {\n        utilizationRate = value;\n    }\n}\n",
  "sourcePath": "contracts/Binary ATM Options/OptionConfigBinaryV2.sol",
  "type": "contract"
}