{
  "abi": [
    {
      "inputs": [
        {
          "internalType": "address",
          "name": "_ticketFeeReceipient",
          "type": "address"
        }
      ],
      "stateMutability": "nonpayable",
      "type": "constructor"
    },
    {
      "anonymous": false,
      "inputs": [
        {
          "indexed": false,
          "internalType": "string",
          "name": "name",
          "type": "string"
        }
      ],
      "name": "AddTradableAsset",
      "type": "event"
    },
    {
      "anonymous": false,
      "inputs": [
        {
          "indexed": false,
          "internalType": "string",
          "name": "name",
          "type": "string"
        }
      ],
      "name": "AddUnderlyingAsset",
      "type": "event"
    },
    {
      "anonymous": false,
      "inputs": [
        {
          "indexed": true,
          "internalType": "address",
          "name": "account",
          "type": "address"
        },
        {
          "indexed": true,
          "internalType": "address",
          "name": "operator",
          "type": "address"
        },
        {
          "indexed": false,
          "internalType": "bool",
          "name": "approved",
          "type": "bool"
        }
      ],
      "name": "ApprovalForAll",
      "type": "event"
    },
    {
      "anonymous": false,
      "inputs": [
        {
          "indexed": false,
          "internalType": "address",
          "name": "user",
          "type": "address"
        },
        {
          "indexed": false,
          "internalType": "uint256",
          "name": "tournamentId",
          "type": "uint256"
        }
      ],
      "name": "BuyTicket",
      "type": "event"
    },
    {
      "anonymous": false,
      "inputs": [
        {
          "indexed": false,
          "internalType": "address",
          "name": "user",
          "type": "address"
        },
        {
          "indexed": false,
          "internalType": "uint256",
          "name": "tournamentId",
          "type": "uint256"
        },
        {
          "indexed": false,
          "internalType": "uint256",
          "name": "reward",
          "type": "uint256"
        }
      ],
      "name": "ClaimReward",
      "type": "event"
    },
    {
      "anonymous": false,
      "inputs": [
        {
          "indexed": false,
          "internalType": "uint256",
          "name": "tournamentId",
          "type": "uint256"
        },
        {
          "indexed": false,
          "internalType": "string",
          "name": "name",
          "type": "string"
        }
      ],
      "name": "CreateTournament",
      "type": "event"
    },
    {
      "anonymous": false,
      "inputs": [
        {
          "indexed": true,
          "internalType": "address",
          "name": "previousOwner",
          "type": "address"
        },
        {
          "indexed": true,
          "internalType": "address",
          "name": "newOwner",
          "type": "address"
        }
      ],
      "name": "OwnershipTransferred",
      "type": "event"
    },
    {
      "anonymous": false,
      "inputs": [
        {
          "indexed": true,
          "internalType": "bytes32",
          "name": "role",
          "type": "bytes32"
        },
        {
          "indexed": true,
          "internalType": "bytes32",
          "name": "previousAdminRole",
          "type": "bytes32"
        },
        {
          "indexed": true,
          "internalType": "bytes32",
          "name": "newAdminRole",
          "type": "bytes32"
        }
      ],
      "name": "RoleAdminChanged",
      "type": "event"
    },
    {
      "anonymous": false,
      "inputs": [
        {
          "indexed": true,
          "internalType": "bytes32",
          "name": "role",
          "type": "bytes32"
        },
        {
          "indexed": true,
          "internalType": "address",
          "name": "account",
          "type": "address"
        },
        {
          "indexed": true,
          "internalType": "address",
          "name": "sender",
          "type": "address"
        }
      ],
      "name": "RoleGranted",
      "type": "event"
    },
    {
      "anonymous": false,
      "inputs": [
        {
          "indexed": true,
          "internalType": "bytes32",
          "name": "role",
          "type": "bytes32"
        },
        {
          "indexed": true,
          "internalType": "address",
          "name": "account",
          "type": "address"
        },
        {
          "indexed": true,
          "internalType": "address",
          "name": "sender",
          "type": "address"
        }
      ],
      "name": "RoleRevoked",
      "type": "event"
    },
    {
      "anonymous": false,
      "inputs": [
        {
          "indexed": true,
          "internalType": "address",
          "name": "operator",
          "type": "address"
        },
        {
          "indexed": true,
          "internalType": "address",
          "name": "from",
          "type": "address"
        },
        {
          "indexed": true,
          "internalType": "address",
          "name": "to",
          "type": "address"
        },
        {
          "indexed": false,
          "internalType": "uint256[]",
          "name": "ids",
          "type": "uint256[]"
        },
        {
          "indexed": false,
          "internalType": "uint256[]",
          "name": "values",
          "type": "uint256[]"
        }
      ],
      "name": "TransferBatch",
      "type": "event"
    },
    {
      "anonymous": false,
      "inputs": [
        {
          "indexed": true,
          "internalType": "address",
          "name": "operator",
          "type": "address"
        },
        {
          "indexed": true,
          "internalType": "address",
          "name": "from",
          "type": "address"
        },
        {
          "indexed": true,
          "internalType": "address",
          "name": "to",
          "type": "address"
        },
        {
          "indexed": false,
          "internalType": "uint256",
          "name": "id",
          "type": "uint256"
        },
        {
          "indexed": false,
          "internalType": "uint256",
          "name": "value",
          "type": "uint256"
        }
      ],
      "name": "TransferSingle",
      "type": "event"
    },
    {
      "anonymous": false,
      "inputs": [
        {
          "indexed": false,
          "internalType": "string",
          "name": "value",
          "type": "string"
        },
        {
          "indexed": true,
          "internalType": "uint256",
          "name": "id",
          "type": "uint256"
        }
      ],
      "name": "URI",
      "type": "event"
    },
    {
      "anonymous": false,
      "inputs": [
        {
          "indexed": false,
          "internalType": "address",
          "name": "user",
          "type": "address"
        },
        {
          "indexed": false,
          "internalType": "uint256",
          "name": "tournamentId",
          "type": "uint256"
        },
        {
          "indexed": false,
          "internalType": "bytes32",
          "name": "id",
          "type": "bytes32"
        }
      ],
      "name": "UpdateUserRank",
      "type": "event"
    },
    {
      "inputs": [],
      "name": "DEFAULT_ADMIN_ROLE",
      "outputs": [
        {
          "internalType": "bytes32",
          "name": "",
          "type": "bytes32"
        }
      ],
      "stateMutability": "view",
      "type": "function"
    },
    {
      "inputs": [],
      "name": "LIQUIDITY_POOL_ROLE",
      "outputs": [
        {
          "internalType": "bytes32",
          "name": "",
          "type": "bytes32"
        }
      ],
      "stateMutability": "view",
      "type": "function"
    },
    {
      "inputs": [
        {
          "components": [
            {
              "internalType": "string",
              "name": "name",
              "type": "string"
            },
            {
              "internalType": "string",
              "name": "symbol",
              "type": "string"
            },
            {
              "internalType": "uint8",
              "name": "decimals",
              "type": "uint8"
            },
            {
              "internalType": "contract IERC20",
              "name": "token",
              "type": "address"
            }
          ],
          "internalType": "struct ITournamentManager.ERC20Asset",
          "name": "newAsset",
          "type": "tuple"
        }
      ],
      "name": "addNewTradableAsset",
      "outputs": [],
      "stateMutability": "nonpayable",
      "type": "function"
    },
    {
      "inputs": [
        {
          "components": [
            {
              "internalType": "string",
              "name": "name",
              "type": "string"
            },
            {
              "internalType": "string",
              "name": "symbol",
              "type": "string"
            },
            {
              "internalType": "uint8",
              "name": "decimals",
              "type": "uint8"
            }
          ],
          "internalType": "struct ITournamentManager.Asset",
          "name": "newAsset",
          "type": "tuple"
        }
      ],
      "name": "addNewUnderlyingAsset",
      "outputs": [],
      "stateMutability": "nonpayable",
      "type": "function"
    },
    {
      "inputs": [
        {
          "internalType": "address",
          "name": "account",
          "type": "address"
        },
        {
          "internalType": "uint256",
          "name": "id",
          "type": "uint256"
        }
      ],
      "name": "balanceOf",
      "outputs": [
        {
          "internalType": "uint256",
          "name": "",
          "type": "uint256"
        }
      ],
      "stateMutability": "view",
      "type": "function"
    },
    {
      "inputs": [
        {
          "internalType": "address[]",
          "name": "accounts",
          "type": "address[]"
        },
        {
          "internalType": "uint256[]",
          "name": "ids",
          "type": "uint256[]"
        }
      ],
      "name": "balanceOfBatch",
      "outputs": [
        {
          "internalType": "uint256[]",
          "name": "",
          "type": "uint256[]"
        }
      ],
      "stateMutability": "view",
      "type": "function"
    },
    {
      "inputs": [
        {
          "internalType": "uint256[]",
          "name": "tournamentIds",
          "type": "uint256[]"
        }
      ],
      "name": "bulkFetchTournaments",
      "outputs": [
        {
          "components": [
            {
              "internalType": "string",
              "name": "name",
              "type": "string"
            },
            {
              "internalType": "uint256",
              "name": "start",
              "type": "uint256"
            },
            {
              "internalType": "uint256",
              "name": "close",
              "type": "uint256"
            },
            {
              "internalType": "uint256",
              "name": "ticketCost",
              "type": "uint256"
            },
            {
              "components": [
                {
                  "internalType": "string",
                  "name": "name",
                  "type": "string"
                },
                {
                  "internalType": "string",
                  "name": "symbol",
                  "type": "string"
                },
                {
                  "internalType": "uint8",
                  "name": "decimals",
                  "type": "uint8"
                },
                {
                  "internalType": "contract IERC20",
                  "name": "token",
                  "type": "address"
                }
              ],
              "internalType": "struct ITournamentManager.ERC20Asset",
              "name": "ticketToken",
              "type": "tuple"
            },
            {
              "internalType": "uint256",
              "name": "playTokenMintAmount",
              "type": "uint256"
            },
            {
              "components": [
                {
                  "internalType": "string",
                  "name": "name",
                  "type": "string"
                },
                {
                  "internalType": "string",
                  "name": "symbol",
                  "type": "string"
                },
                {
                  "internalType": "uint8",
                  "name": "decimals",
                  "type": "uint8"
                },
                {
                  "internalType": "contract IERC20",
                  "name": "token",
                  "type": "address"
                }
              ],
              "internalType": "struct ITournamentManager.ERC20Asset",
              "name": "rewardToken",
              "type": "tuple"
            },
            {
              "internalType": "bool",
              "name": "isClosed",
              "type": "bool"
            },
            {
              "internalType": "bytes32",
              "name": "rankFirst",
              "type": "bytes32"
            },
            {
              "internalType": "bytes32",
              "name": "rankLast",
              "type": "bytes32"
            },
            {
              "internalType": "uint256",
              "name": "userCount",
              "type": "uint256"
            }
          ],
          "internalType": "struct ITournamentManager.Tournament[]",
          "name": "bulkTournaments",
          "type": "tuple[]"
        }
      ],
      "stateMutability": "view",
      "type": "function"
    },
    {
      "inputs": [
        {
          "internalType": "address",
          "name": "user",
          "type": "address"
        },
        {
          "internalType": "uint256",
          "name": "tournamentId",
          "type": "uint256"
        },
        {
          "internalType": "uint256",
          "name": "tokensToBurn",
          "type": "uint256"
        }
      ],
      "name": "burn",
      "outputs": [],
      "stateMutability": "nonpayable",
      "type": "function"
    },
    {
      "inputs": [
        {
          "internalType": "uint256",
          "name": "tournamentId",
          "type": "uint256"
        }
      ],
      "name": "buyTicket",
      "outputs": [],
      "stateMutability": "nonpayable",
      "type": "function"
    },
    {
      "inputs": [
        {
          "internalType": "uint256",
          "name": "tournamentId",
          "type": "uint256"
        }
      ],
      "name": "claimReward",
      "outputs": [
        {
          "internalType": "uint256",
          "name": "reward",
          "type": "uint256"
        }
      ],
      "stateMutability": "nonpayable",
      "type": "function"
    },
    {
      "inputs": [
        {
          "internalType": "string",
          "name": "name",
          "type": "string"
        },
        {
          "internalType": "uint256",
          "name": "start",
          "type": "uint256"
        },
        {
          "internalType": "uint256",
          "name": "close",
          "type": "uint256"
        },
        {
          "internalType": "uint256[]",
          "name": "underlyingAssetIndex",
          "type": "uint256[]"
        },
        {
          "internalType": "uint256",
          "name": "ticketCost",
          "type": "uint256"
        },
        {
          "internalType": "uint256",
          "name": "ticketTokenIndex",
          "type": "uint256"
        },
        {
          "internalType": "uint256",
          "name": "playTokenMintAmount",
          "type": "uint256"
        },
        {
          "internalType": "uint256[]",
          "name": "rewardAmount",
          "type": "uint256[]"
        },
        {
          "internalType": "uint256",
          "name": "rewardTokenIndex",
          "type": "uint256"
        }
      ],
      "name": "createTournament",
      "outputs": [
        {
          "internalType": "uint256",
          "name": "",
          "type": "uint256"
        }
      ],
      "stateMutability": "nonpayable",
      "type": "function"
    },
    {
      "inputs": [],
      "name": "decimals",
      "outputs": [
        {
          "internalType": "uint8",
          "name": "",
          "type": "uint8"
        }
      ],
      "stateMutability": "view",
      "type": "function"
    },
    {
      "inputs": [
        {
          "internalType": "bytes32",
          "name": "start",
          "type": "bytes32"
        },
        {
          "internalType": "bytes32",
          "name": "end",
          "type": "bytes32"
        },
        {
          "internalType": "uint256",
          "name": "tournamentId",
          "type": "uint256"
        }
      ],
      "name": "getMid",
      "outputs": [
        {
          "internalType": "bytes32",
          "name": "",
          "type": "bytes32"
        }
      ],
      "stateMutability": "view",
      "type": "function"
    },
    {
      "inputs": [
        {
          "internalType": "bytes32",
          "name": "role",
          "type": "bytes32"
        }
      ],
      "name": "getRoleAdmin",
      "outputs": [
        {
          "internalType": "bytes32",
          "name": "",
          "type": "bytes32"
        }
      ],
      "stateMutability": "view",
      "type": "function"
    },
    {
      "inputs": [
        {
          "internalType": "address",
          "name": "user",
          "type": "address"
        },
        {
          "internalType": "uint256",
          "name": "tournamentId",
          "type": "uint256"
        }
      ],
      "name": "getScore",
      "outputs": [
        {
          "internalType": "uint256",
          "name": "score",
          "type": "uint256"
        }
      ],
      "stateMutability": "view",
      "type": "function"
    },
    {
      "inputs": [
        {
          "internalType": "address",
          "name": "user",
          "type": "address"
        },
        {
          "internalType": "uint256",
          "name": "tournamentId",
          "type": "uint256"
        },
        {
          "internalType": "uint256",
          "name": "newUserScore",
          "type": "uint256"
        }
      ],
      "name": "getSortedPreviousRankIndex",
      "outputs": [
        {
          "internalType": "bytes32",
          "name": "previousIndex",
          "type": "bytes32"
        }
      ],
      "stateMutability": "view",
      "type": "function"
    },
    {
      "inputs": [
        {
          "internalType": "address",
          "name": "user",
          "type": "address"
        },
        {
          "internalType": "uint256",
          "name": "tournamentId",
          "type": "uint256"
        }
      ],
      "name": "getUserReward",
      "outputs": [
        {
          "internalType": "uint256",
          "name": "reward",
          "type": "uint256"
        }
      ],
      "stateMutability": "view",
      "type": "function"
    },
    {
      "inputs": [
        {
          "internalType": "uint256",
          "name": "tournamentId",
          "type": "uint256"
        },
        {
          "internalType": "uint256",
          "name": "totalWinners",
          "type": "uint256"
        }
      ],
      "name": "getWinners",
      "outputs": [
        {
          "internalType": "address[]",
          "name": "winners",
          "type": "address[]"
        }
      ],
      "stateMutability": "view",
      "type": "function"
    },
    {
      "inputs": [
        {
          "internalType": "bytes32",
          "name": "role",
          "type": "bytes32"
        },
        {
          "internalType": "address",
          "name": "account",
          "type": "address"
        }
      ],
      "name": "grantRole",
      "outputs": [],
      "stateMutability": "nonpayable",
      "type": "function"
    },
    {
      "inputs": [
        {
          "internalType": "bytes32",
          "name": "role",
          "type": "bytes32"
        },
        {
          "internalType": "address",
          "name": "account",
          "type": "address"
        }
      ],
      "name": "hasRole",
      "outputs": [
        {
          "internalType": "bool",
          "name": "",
          "type": "bool"
        }
      ],
      "stateMutability": "view",
      "type": "function"
    },
    {
      "inputs": [
        {
          "internalType": "address",
          "name": "account",
          "type": "address"
        },
        {
          "internalType": "address",
          "name": "operator",
          "type": "address"
        }
      ],
      "name": "isApprovedForAll",
      "outputs": [
        {
          "internalType": "bool",
          "name": "",
          "type": "bool"
        }
      ],
      "stateMutability": "view",
      "type": "function"
    },
    {
      "inputs": [
        {
          "internalType": "uint256",
          "name": "tournamentId",
          "type": "uint256"
        },
        {
          "internalType": "string",
          "name": "symbol",
          "type": "string"
        }
      ],
      "name": "isTradable",
      "outputs": [
        {
          "internalType": "bool",
          "name": "",
          "type": "bool"
        }
      ],
      "stateMutability": "view",
      "type": "function"
    },
    {
      "inputs": [
        {
          "internalType": "uint256",
          "name": "",
          "type": "uint256"
        }
      ],
      "name": "liveTournaments",
      "outputs": [
        {
          "internalType": "uint256",
          "name": "",
          "type": "uint256"
        }
      ],
      "stateMutability": "view",
      "type": "function"
    },
    {
      "inputs": [
        {
          "internalType": "address",
          "name": "user",
          "type": "address"
        },
        {
          "internalType": "uint256",
          "name": "tournamentId",
          "type": "uint256"
        },
        {
          "internalType": "uint256",
          "name": "tokensToMint",
          "type": "uint256"
        }
      ],
      "name": "mint",
      "outputs": [],
      "stateMutability": "nonpayable",
      "type": "function"
    },
    {
      "inputs": [],
      "name": "nextTournamentId",
      "outputs": [
        {
          "internalType": "uint256",
          "name": "",
          "type": "uint256"
        }
      ],
      "stateMutability": "view",
      "type": "function"
    },
    {
      "inputs": [],
      "name": "owner",
      "outputs": [
        {
          "internalType": "address",
          "name": "",
          "type": "address"
        }
      ],
      "stateMutability": "view",
      "type": "function"
    },
    {
      "inputs": [],
      "name": "renounceOwnership",
      "outputs": [],
      "stateMutability": "nonpayable",
      "type": "function"
    },
    {
      "inputs": [
        {
          "internalType": "bytes32",
          "name": "role",
          "type": "bytes32"
        },
        {
          "internalType": "address",
          "name": "account",
          "type": "address"
        }
      ],
      "name": "renounceRole",
      "outputs": [],
      "stateMutability": "nonpayable",
      "type": "function"
    },
    {
      "inputs": [
        {
          "internalType": "bytes32",
          "name": "role",
          "type": "bytes32"
        },
        {
          "internalType": "address",
          "name": "account",
          "type": "address"
        }
      ],
      "name": "revokeRole",
      "outputs": [],
      "stateMutability": "nonpayable",
      "type": "function"
    },
    {
      "inputs": [
        {
          "internalType": "address",
          "name": "from",
          "type": "address"
        },
        {
          "internalType": "address",
          "name": "to",
          "type": "address"
        },
        {
          "internalType": "uint256[]",
          "name": "ids",
          "type": "uint256[]"
        },
        {
          "internalType": "uint256[]",
          "name": "amounts",
          "type": "uint256[]"
        },
        {
          "internalType": "bytes",
          "name": "data",
          "type": "bytes"
        }
      ],
      "name": "safeBatchTransferFrom",
      "outputs": [],
      "stateMutability": "nonpayable",
      "type": "function"
    },
    {
      "inputs": [
        {
          "internalType": "address",
          "name": "from",
          "type": "address"
        },
        {
          "internalType": "address",
          "name": "to",
          "type": "address"
        },
        {
          "internalType": "uint256",
          "name": "id",
          "type": "uint256"
        },
        {
          "internalType": "uint256",
          "name": "amount",
          "type": "uint256"
        },
        {
          "internalType": "bytes",
          "name": "data",
          "type": "bytes"
        }
      ],
      "name": "safeTransferFrom",
      "outputs": [],
      "stateMutability": "nonpayable",
      "type": "function"
    },
    {
      "inputs": [
        {
          "internalType": "address",
          "name": "operator",
          "type": "address"
        },
        {
          "internalType": "bool",
          "name": "approved",
          "type": "bool"
        }
      ],
      "name": "setApprovalForAll",
      "outputs": [],
      "stateMutability": "nonpayable",
      "type": "function"
    },
    {
      "inputs": [
        {
          "internalType": "bytes4",
          "name": "interfaceId",
          "type": "bytes4"
        }
      ],
      "name": "supportsInterface",
      "outputs": [
        {
          "internalType": "bool",
          "name": "",
          "type": "bool"
        }
      ],
      "stateMutability": "view",
      "type": "function"
    },
    {
      "inputs": [],
      "name": "ticketFeeReceipient",
      "outputs": [
        {
          "internalType": "address",
          "name": "",
          "type": "address"
        }
      ],
      "stateMutability": "view",
      "type": "function"
    },
    {
      "inputs": [
        {
          "internalType": "uint256",
          "name": "",
          "type": "uint256"
        },
        {
          "internalType": "uint256",
          "name": "",
          "type": "uint256"
        }
      ],
      "name": "tournamentRewardAmounts",
      "outputs": [
        {
          "internalType": "uint256",
          "name": "",
          "type": "uint256"
        }
      ],
      "stateMutability": "view",
      "type": "function"
    },
    {
      "inputs": [
        {
          "internalType": "uint256",
          "name": "",
          "type": "uint256"
        },
        {
          "internalType": "string",
          "name": "",
          "type": "string"
        }
      ],
      "name": "tournamentUnderlyingAssets",
      "outputs": [
        {
          "internalType": "bool",
          "name": "",
          "type": "bool"
        }
      ],
      "stateMutability": "view",
      "type": "function"
    },
    {
      "inputs": [
        {
          "internalType": "uint256",
          "name": "",
          "type": "uint256"
        },
        {
          "internalType": "uint256",
          "name": "",
          "type": "uint256"
        }
      ],
      "name": "tournamentUserPlayTokenBalance",
      "outputs": [
        {
          "internalType": "uint256",
          "name": "",
          "type": "uint256"
        }
      ],
      "stateMutability": "view",
      "type": "function"
    },
    {
      "inputs": [
        {
          "internalType": "bytes32",
          "name": "",
          "type": "bytes32"
        }
      ],
      "name": "tournamentUserRank",
      "outputs": [
        {
          "internalType": "bytes32",
          "name": "next",
          "type": "bytes32"
        },
        {
          "internalType": "bytes32",
          "name": "previous",
          "type": "bytes32"
        },
        {
          "internalType": "address",
          "name": "user",
          "type": "address"
        },
        {
          "internalType": "uint256",
          "name": "score",
          "type": "uint256"
        },
        {
          "internalType": "bool",
          "name": "hasClaimed",
          "type": "bool"
        },
        {
          "internalType": "bool",
          "name": "exists",
          "type": "bool"
        }
      ],
      "stateMutability": "view",
      "type": "function"
    },
    {
      "inputs": [
        {
          "internalType": "uint256",
          "name": "",
          "type": "uint256"
        },
        {
          "internalType": "address",
          "name": "",
          "type": "address"
        }
      ],
      "name": "tournamentUserTicketCount",
      "outputs": [
        {
          "internalType": "uint256",
          "name": "",
          "type": "uint256"
        }
      ],
      "stateMutability": "view",
      "type": "function"
    },
    {
      "inputs": [
        {
          "internalType": "uint256",
          "name": "",
          "type": "uint256"
        },
        {
          "internalType": "address",
          "name": "",
          "type": "address"
        }
      ],
      "name": "tournamentUsers",
      "outputs": [
        {
          "internalType": "bool",
          "name": "",
          "type": "bool"
        }
      ],
      "stateMutability": "view",
      "type": "function"
    },
    {
      "inputs": [
        {
          "internalType": "uint256",
          "name": "",
          "type": "uint256"
        }
      ],
      "name": "tournaments",
      "outputs": [
        {
          "internalType": "string",
          "name": "name",
          "type": "string"
        },
        {
          "internalType": "uint256",
          "name": "start",
          "type": "uint256"
        },
        {
          "internalType": "uint256",
          "name": "close",
          "type": "uint256"
        },
        {
          "internalType": "uint256",
          "name": "ticketCost",
          "type": "uint256"
        },
        {
          "components": [
            {
              "internalType": "string",
              "name": "name",
              "type": "string"
            },
            {
              "internalType": "string",
              "name": "symbol",
              "type": "string"
            },
            {
              "internalType": "uint8",
              "name": "decimals",
              "type": "uint8"
            },
            {
              "internalType": "contract IERC20",
              "name": "token",
              "type": "address"
            }
          ],
          "internalType": "struct ITournamentManager.ERC20Asset",
          "name": "ticketToken",
          "type": "tuple"
        },
        {
          "internalType": "uint256",
          "name": "playTokenMintAmount",
          "type": "uint256"
        },
        {
          "components": [
            {
              "internalType": "string",
              "name": "name",
              "type": "string"
            },
            {
              "internalType": "string",
              "name": "symbol",
              "type": "string"
            },
            {
              "internalType": "uint8",
              "name": "decimals",
              "type": "uint8"
            },
            {
              "internalType": "contract IERC20",
              "name": "token",
              "type": "address"
            }
          ],
          "internalType": "struct ITournamentManager.ERC20Asset",
          "name": "rewardToken",
          "type": "tuple"
        },
        {
          "internalType": "bool",
          "name": "isClosed",
          "type": "bool"
        },
        {
          "internalType": "bytes32",
          "name": "rankFirst",
          "type": "bytes32"
        },
        {
          "internalType": "bytes32",
          "name": "rankLast",
          "type": "bytes32"
        },
        {
          "internalType": "uint256",
          "name": "userCount",
          "type": "uint256"
        }
      ],
      "stateMutability": "view",
      "type": "function"
    },
    {
      "inputs": [
        {
          "internalType": "uint256",
          "name": "",
          "type": "uint256"
        }
      ],
      "name": "tradableAssets",
      "outputs": [
        {
          "internalType": "string",
          "name": "name",
          "type": "string"
        },
        {
          "internalType": "string",
          "name": "symbol",
          "type": "string"
        },
        {
          "internalType": "uint8",
          "name": "decimals",
          "type": "uint8"
        },
        {
          "internalType": "contract IERC20",
          "name": "token",
          "type": "address"
        }
      ],
      "stateMutability": "view",
      "type": "function"
    },
    {
      "inputs": [
        {
          "internalType": "address",
          "name": "newOwner",
          "type": "address"
        }
      ],
      "name": "transferOwnership",
      "outputs": [],
      "stateMutability": "nonpayable",
      "type": "function"
    },
    {
      "inputs": [
        {
          "internalType": "uint256",
          "name": "",
          "type": "uint256"
        }
      ],
      "name": "underlyingAssets",
      "outputs": [
        {
          "internalType": "string",
          "name": "name",
          "type": "string"
        },
        {
          "internalType": "string",
          "name": "symbol",
          "type": "string"
        },
        {
          "internalType": "uint8",
          "name": "decimals",
          "type": "uint8"
        }
      ],
      "stateMutability": "view",
      "type": "function"
    },
    {
      "inputs": [
        {
          "internalType": "address",
          "name": "user",
          "type": "address"
        },
        {
          "internalType": "uint256",
          "name": "tournamentId",
          "type": "uint256"
        }
      ],
      "name": "updateUserRank",
      "outputs": [],
      "stateMutability": "nonpayable",
      "type": "function"
    },
    {
      "inputs": [
        {
          "internalType": "uint256",
          "name": "",
          "type": "uint256"
        }
      ],
      "name": "uri",
      "outputs": [
        {
          "internalType": "string",
          "name": "",
          "type": "string"
        }
      ],
      "stateMutability": "view",
      "type": "function"
    }
  ],
  "bytecode": "608060405260006009553480156200001657600080fd5b5060405162004c4738038062004c4783398101604081905262000039916200025e565b60408051808201909152600a81526973616d706c655f75726960b01b60208201526200006581620000a0565b506200007133620000b9565b600580546001600160a01b0319166001600160a01b038316179055620000996000336200010b565b50620002cb565b8051620000b5906002906020840190620001b8565b5050565b600380546001600160a01b038381166001600160a01b0319831681179093556040519116919082907f8be0079c531659141344cd1fd0a4f28419497f9722a3daafe3b4186f6b6457e090600090a35050565b60008281526004602090815260408083206001600160a01b0385168452909152902054620000b5908390839060ff16620000b55760008281526004602090815260408083206001600160a01b03851684529091529020805460ff19166001179055620001743390565b6001600160a01b0316816001600160a01b0316837f2f8788117e7eff1d82e926ec794901d17c78024a50270940304540a733656f0d60405160405180910390a45050565b828054620001c6906200028e565b90600052602060002090601f016020900481019282620001ea576000855562000235565b82601f106200020557805160ff191683800117855562000235565b8280016001018555821562000235579182015b828111156200023557825182559160200191906001019062000218565b506200024392915062000247565b5090565b5b8082111562000243576000815560010162000248565b60006020828403121562000270578081fd5b81516001600160a01b038116811462000287578182fd5b9392505050565b600181811c90821680620002a357607f821691505b60208210811415620002c557634e487b7160e01b600052602260045260246000fd5b50919050565b61496c80620002db6000396000f3fe608060405234801561001057600080fd5b50600436106102185760003560e01c8062f97f1e1461021d578062fdd58e146102b257806301ffc9a7146102d35780630701ac31146102f65780630e89341c146103095780630f2aef2b14610329578063156e29f61461033c57806316ff5722146103515780631a95aa771461037c578063248a9ca31461039c57806328fd8fc4146103af5780632b8dde1e146103cf5780632eb2c2d6146103e45780632f2ff15d146103f7578063313ce5671461040a57806336568abe146104195780633b50c4d11461042c578063435743a71461044e5780634e1273f4146104615780635206141a1461048157806363d28108146104af57806367dd74ca146104c2578063715018a6146104d55780637503e1b7146104dd5780637bab62df14610507578063852efc3d1461051a5780638da5cb5b1461052357806391a0846d1461052b57806391d148541461053e5780639a9f16ea146105515780639d54080a14610590578063a217fddf146105a3578063a22cb465146105ab578063ae169a50146105be578063b46b7919146105d1578063bcec1952146105e4578063c889ee82146105f7578063d547741f14610617578063d77c6bd21461062a578063d9fbb42e1461063d578063e7fdafd414610650578063e985e9c514610673578063eea54380146106af578063f242432a146106da578063f2fde38b146106ed578063f5298aca14610700575b600080fd5b61027061022b366004613ca8565b600a6020526000908152604090208054600182015460028301546003840154600490940154929391926001600160a01b03909116919060ff8082169161010090041686565b6040805196875260208701959095526001600160a01b039093169385019390935260608401529015156080830152151560a082015260c0015b60405180910390f35b6102c56102c0366004613b27565b610713565b6040519081526020016102a9565b6102e66102e1366004613d0f565b6107aa565b60405190151581526020016102a9565b6102e6610304366004613f86565b6107bb565b61031c610317366004613ca8565b6107f2565b6040516102a9919061443e565b6102c5610337366004613d47565b610886565b61034f61034a366004613b52565b610c0f565b005b6102c561035f366004613cc0565b600d60209081526000928352604080842090915290825290205481565b60055461038f906001600160a01b031681565b6040516102a991906141c7565b6102c56103aa366004613ca8565b610c49565b6103c26103bd366004613fc0565b610c5e565b6040516102a991906142b8565b6102c560008051602061491783398151915281565b61034f6103f23660046139eb565b610d54565b61034f610405366004613cc0565b610deb565b604051601281526020016102a9565b61034f610427366004613cc0565b610e0d565b61043f61043a366004613ca8565b610e8b565b6040516102a993929190614451565b6102c561045c366004613b52565b610fd8565b61047461046f366004613b86565b6110b1565b6040516102a99190614406565b6102e661048f366004613cc0565b600c60209081526000928352604080842090915290825290205460ff1681565b6102c56104bd366004613ca8565b611212565b61034f6104d0366004613ca8565b611233565b61034f61152e565b6104f06104eb366004613ca8565b611569565b6040516102a99b9a999897969594939291906144d4565b61034f610515366004613e05565b6118ee565b6102c560095481565b61038f6119d9565b6102c5610539366004613b27565b6119e8565b6102e661054c366004613cc0565b611a8e565b6102e661055f366004613f86565b6010602090815260009283526040909220815180830184018051928152908401929093019190912091525460ff1681565b6102c561059e366004613b27565b611ab9565b6102c5600081565b61034f6105b9366004613afa565b611b46565b6102c56105cc366004613ca8565b611c1d565b61034f6105df366004613b27565b611e55565b6102c56105f2366004613fc0565b61215f565b61060a610605366004613c52565b612190565b6040516102a99190614305565b61034f610625366004613cc0565b61263b565b61034f610638366004613eb7565b612658565b6102c561064b366004613ce4565b612756565b61066361065e366004613ca8565b61279e565b6040516102a9949392919061448a565b6102e66106813660046139b3565b6001600160a01b03918216600090815260016020908152604080832093909416825291909152205460ff1690565b6102c56106bd366004613fc0565b600b60209081526000928352604080842090915290825290205481565b61034f6106e8366004613a94565b6128fc565b61034f6106fb366004613997565b612983565b61034f61070e366004613b52565b612a23565b60006001600160a01b0383166107845760405162461bcd60e51b815260206004820152602b60248201527f455243313135353a2062616c616e636520717565727920666f7220746865207a60448201526a65726f206164647265737360a81b60648201526084015b60405180910390fd5b506000908152602081815260408083206001600160a01b03949094168352929052205490565b60006107b582612a47565b92915050565b60008281526010602052604080822090516107d79084906140a1565b9081526040519081900360200190205460ff16905092915050565b6060600280546108019061474f565b80601f016020809104026020016040519081016040528092919081815260200182805461082d9061474f565b801561087a5780601f1061084f5761010080835404028352916020019161087a565b820191906000526020600020905b81548152906001019060200180831161085d57829003601f168201915b50505050509050919050565b6000336108916119d9565b6001600160a01b0316146108b75760405162461bcd60e51b815260040161077b9061462d565b6009546000908152600e602090815260409091208b5190916108dd9183918e01906136f1565b50600181018a90556002810189905560038101879055600880548790811061091557634e487b7160e01b600052603260045260246000fd5b906000526020600020906003020181600401600082018160000190805461093b9061474f565b610946929190613775565b50600182018160010190805461095b9061474f565b610966929190613775565b506002918201805491909201805460ff90921660ff1983168117825592546001600160a81b0319909216909217610100918290046001600160a01b031690910217905560088054849081106109cb57634e487b7160e01b600052603260045260246000fd5b90600052602060002090600302018160080160008201816000019080546109f19061474f565b6109fc929190613775565b506001820181600101908054610a119061474f565b610a1c929190613775565b506002918201805491909201805460ff90921660ff1983168117825592546001600160a81b0319909216909217610100918290046001600160a01b03169091021790556007810185905560005b8451811015610ad6576009546000908152600f602052604090208551869083908110610aa557634e487b7160e01b600052603260045260246000fd5b6020908102919091018101518254600181018455600093845291909220015580610ace816147d5565b915050610a69565b5060005b8851811015610b6b57600160106000600954815260200190815260200160002060078381548110610b1b57634e487b7160e01b600052603260045260246000fd5b9060005260206000209060030201600101604051610b3991906140bd565b908152604051908190036020019020805491151560ff1990921691909117905580610b63816147d5565b915050610ada565b50600954600680546001810182556000919091527ff652222313e28459528d920b65115c16c04f3efc82aaedc97be59f3f377c0d3f018190556040517f81719d68c2166bbd7acc9dbf736b0e18879fe854894136678063bcbd90fa766c91610bd4918e90614662565b60405180910390a160098054906000610bec836147d5565b91905055506001600954610c0091906146f5565b9b9a5050505050505050505050565b600080516020614917833981519152610c288133612a6c565b610c4384848460405180602001604052806000815250612ad0565b50505050565b60009081526004602052604090206001015490565b6000828152600e60205260409020600c81015460609190836001600160401b03811115610c9b57634e487b7160e01b600052604160045260246000fd5b604051908082528060200260200182016040528015610cc4578160200160208202803683370190505b50925060005b84811015610d4b576000828152600a602052604090206002015484516001600160a01b0390911690859083908110610d1257634e487b7160e01b600052603260045260246000fd5b6001600160a01b039092166020928302919091018201526000928352600a90526040909120549080610d43816147d5565b915050610cca565b50505092915050565b6001600160a01b038516331480610d705750610d708533610681565b610dd75760405162461bcd60e51b815260206004820152603260248201527f455243313135353a207472616e736665722063616c6c6572206973206e6f74206044820152711bdddb995c881b9bdc88185c1c1c9bdd995960721b606482015260840161077b565b610de48585858585612bce565b5050505050565b610df482610c49565b610dfe8133612a6c565b610e088383612dd5565b505050565b6001600160a01b0381163314610e7d5760405162461bcd60e51b815260206004820152602f60248201527f416363657373436f6e74726f6c3a2063616e206f6e6c792072656e6f756e636560448201526e103937b632b9903337b91039b2b63360891b606482015260840161077b565b610e878282612e5b565b5050565b60078181548110610e9b57600080fd5b9060005260206000209060030201600091509050806000018054610ebe9061474f565b80601f0160208091040260200160405190810160405280929190818152602001828054610eea9061474f565b8015610f375780601f10610f0c57610100808354040283529160200191610f37565b820191906000526020600020905b815481529060010190602001808311610f1a57829003601f168201915b505050505090806001018054610f4c9061474f565b80601f0160208091040260200160405190810160405280929190818152602001828054610f789061474f565b8015610fc55780601f10610f9a57610100808354040283529160200191610fc5565b820191906000526020600020905b815481529060010190602001808311610fa857829003601f168201915b5050506002909301549192505060ff1683565b6000828152600e60205260408120600c810154158061100d5750600c8101546000908152600a60205260409020600301548310155b1561101c5750600090506110aa565b600d8101546000908152600a602052604090206003015483101561104557600d015490506110aa565b600c810154600d8201545b6000828152600a602052604090205481146110a0576000611072838389612756565b6000818152600a60205260409020600301549091508611156110965780915061109a565b8092505b50611050565b5091506110aa9050565b9392505050565b606081518351146111165760405162461bcd60e51b815260206004820152602960248201527f455243313135353a206163636f756e747320616e6420696473206c656e677468604482015268040dad2e6dac2e8c6d60bb1b606482015260840161077b565b600083516001600160401b0381111561113f57634e487b7160e01b600052604160045260246000fd5b604051908082528060200260200182016040528015611168578160200160208202803683370190505b50905060005b845181101561120a576111cf85828151811061119a57634e487b7160e01b600052603260045260246000fd5b60200260200101518583815181106111c257634e487b7160e01b600052603260045260246000fd5b6020026020010151610713565b8282815181106111ef57634e487b7160e01b600052603260045260246000fd5b6020908102919091010152611203816147d5565b905061116e565b509392505050565b6006818154811061122257600080fd5b600091825260209091200154905081565b6000818152600e602052604090206006810154600282015433929161010090046001600160a01b0316904210801561126e5750816001015442115b6112ce5760405162461bcd60e51b815260206004820152602b60248201527f427579696e67207469636b657473206973206e6f7420616c6c6f77656420617460448201526a081d1a19481b5bdb595b9d60aa1b606482015260840161077b565b60038201546040516370a0823160e01b81526001600160a01b038316906370a08231906112ff9087906004016141c7565b60206040518083038186803b15801561131757600080fd5b505afa15801561132b573d6000803e3d6000fd5b505050506040513d601f19601f8201168201806040525081019061134f9190613f6e565b101561139b5760405162461bcd60e51b815260206004820152601b60248201527a496e73756666696369656e742062616c616e636520746f2062757960281b604482015260640161077b565b60055460038301546040516323b872dd60e01b81526001600160a01b03868116600483015292831660248201526044810191909152908216906323b872dd90606401602060405180830381600087803b1580156113f757600080fd5b505af115801561140b573d6000803e3d6000fd5b505050506040513d601f19601f8201168201806040525081019061142f9190613c8c565b506000848152600c602090815260408083206001600160a01b038716845290915290205460ff1661149d576000848152600c602090815260408083206001600160a01b03871684529091528120805460ff19166001179055600e8301805491611497836147d5565b91905055505b6000848152600d602090815260408083206001600160a01b038716845290915281208054916114cb836147d5565b91905055506114ef8385846007015460405180602001604052806000815250612ad0565b7f2a3164428cba5dad15f5ffe47e10cbefdcbbe9e269fd482753982ee8b2648c3e838560405161152092919061427e565b60405180910390a150505050565b336115376119d9565b6001600160a01b03161461155d5760405162461bcd60e51b815260040161077b9061462d565b6115676000612ec2565b565b600e602052600090815260409020805481906115849061474f565b80601f01602080910402602001604051908101604052809291908181526020018280546115b09061474f565b80156115fd5780601f106115d2576101008083540402835291602001916115fd565b820191906000526020600020905b8154815290600101906020018083116115e057829003601f168201915b505050505090806001015490806002015490806003015490806004016040518060800160405290816000820180546116349061474f565b80601f01602080910402602001604051908101604052809291908181526020018280546116609061474f565b80156116ad5780601f10611682576101008083540402835291602001916116ad565b820191906000526020600020905b81548152906001019060200180831161169057829003601f168201915b505050505081526020016001820180546116c69061474f565b80601f01602080910402602001604051908101604052809291908181526020018280546116f29061474f565b801561173f5780601f106117145761010080835404028352916020019161173f565b820191906000526020600020905b81548152906001019060200180831161172257829003601f168201915b50505091835250506002919091015460ff8116602083015261010090046001600160a01b0316604091820152600783015481516080810190925260088401805493949193919291829082906117939061474f565b80601f01602080910402602001604051908101604052809291908181526020018280546117bf9061474f565b801561180c5780601f106117e15761010080835404028352916020019161180c565b820191906000526020600020905b8154815290600101906020018083116117ef57829003601f168201915b505050505081526020016001820180546118259061474f565b80601f01602080910402602001604051908101604052809291908181526020018280546118519061474f565b801561189e5780601f106118735761010080835404028352916020019161189e565b820191906000526020600020905b81548152906001019060200180831161188157829003601f168201915b50505091835250506002919091015460ff80821660208401526101009091046001600160a01b0316604090920191909152600b830154600c840154600d850154600e90950154939491909216928b565b336118f76119d9565b6001600160a01b03161461191d5760405162461bcd60e51b815260040161077b9061462d565b600780546001810182556000919091528151805183926003027fa66cc928b5edb82af9bd49922954155ab7b0942694bea4ce44661d9a8736c6880191611968918391602001906136f1565b50602082810151805161198192600185019201906136f1565b50604091820151600291909101805460ff191660ff909216919091179055815190517f9f856bdc9b643919569baee5b9f5540ac9ed4bb5b9efbb6278c2ddc85961e5d5916119ce9161443e565b60405180910390a150565b6003546001600160a01b031690565b6000818152600e60205260408120600c810154825b6003811015610d4b576000828152600a60205260409020600201546001600160a01b0387811691161415611a6b576000858152600f60205260409020805482908110611a5957634e487b7160e01b600052603260045260246000fd5b90600052602060002001549350610d4b565b6000918252600a6020526040909120549080611a86816147d5565b9150506119fd565b60009182526004602090815260408084206001600160a01b0393909316845291905290205460ff1690565b6000818152600e602090815260408083206007810154600d84528285206001600160a01b03881686529093529083205490918391611af791906146d6565b90508081611b058787610713565b11611b11576000611b26565b81611b1c8787610713565b611b2691906146f5565b611b3390620186a06146d6565b611b3d91906146b6565b95945050505050565b336001600160a01b0383161415611bb15760405162461bcd60e51b815260206004820152602960248201527f455243313135353a2073657474696e6720617070726f76616c20737461747573604482015268103337b91039b2b63360b91b606482015260840161077b565b3360008181526001602090815260408083206001600160a01b03871680855290835292819020805460ff191686151590811790915590519081529192917f17307eab39ab6107e8899845ad3d59bd9653f200f220920489ca2b5937696c31910160405180910390a35050565b6000818152600e602052604081206002810154421015611c925760405162461bcd60e51b815260206004820152602a60248201527f43616e277420636c61696d2072657761726473206265666f726520746f75726e604482015269616d656e7420656e647360b01b606482015260840161077b565b33611c9d81856119e8565b92508215611e4e57600a8201546040516370a0823160e01b81526101009091046001600160a01b031690849082906370a0823190611cdf9030906004016141c7565b60206040518083038186803b158015611cf757600080fd5b505afa158015611d0b573d6000803e3d6000fd5b505050506040513d601f19601f82011682018060405250810190611d2f9190613f6e565b1015611d905760405162461bcd60e51b815260206004820152602a60248201527f496e73756666696369656e742062616c616e636520746f2064697374726962756044820152697465207265776172647360b01b606482015260840161077b565b60405163a9059cbb60e01b81526001600160a01b0382169063a9059cbb90611dbe908590889060040161427e565b602060405180830381600087803b158015611dd857600080fd5b505af1158015611dec573d6000803e3d6000fd5b505050506040513d601f19601f82011682018060405250810190611e109190613c8c565b507fe74e5c9d4ac1fc33412485f18c159a0a391efe287ab3fd271123f30e6bacf4e3828686604051611e4493929190614297565b60405180910390a1505b5050919050565b600080516020614917833981519152611e6e8133612a6c565b6000828152600e6020526040812090611e878585611ab9565b905060008585604051602001611e9e92919061427e565b60408051808303601f1901815291815281516020928301206000818152600a909352912060040154909150610100900460ff1615611f58578083600c01541415611efb576000818152600a6020526040902054600c840155611f58565b8083600d01541415611f2b576000818152600a602052604080822060010154600d86018190558252812055611f58565b6000818152600a602052604080822080546001918201805485528385208290555490845291909220909101555b6000611f65878785610fd8565b6040805160c081018252600080825260208201819052918101829052606081018290526080810182905260a08101919091529091508161202957600c8501546000908152600a6020526040902060040154610100900460ff1615611fdd57600c8501546000908152600a602052604090206001018390555b506040805160c081018252600c8601805482526000602083018190526001600160a01b038b1693830193909352606082018690526080820192909252600160a082015290839055612087565b506000818152600a60208181526040808420815160c08101835281548082528185018890526001600160a01b038e1682850152606082018a905260808201879052600160a08301819052908752949093529320909101849055908390555b84600d015482141561209b57600d85018390555b6000838152600a602090815260409182902083518155908301516001820155818301516002820180546001600160a01b039092166001600160a01b03199092169190911790556060830151600382015560808301516004909101805460a085015115156101000261ff00199315159390931661ffff1990911617919091179055517fc4d4c8cfefd58c54fce8b36d22c9e2836645bcb6e04c41b52eaf34565c07aed99061214d908a908a908790614297565b60405180910390a15050505050505050565b600f602052816000526040600020818154811061217b57600080fd5b90600052602060002001600091509150505481565b606081516001600160401b038111156121b957634e487b7160e01b600052604160045260246000fd5b6040519080825280602002602001820160405280156121f257816020015b6121df6137f0565b8152602001906001900390816121d75790505b50905060005b825181101561263557600e600084838151811061222557634e487b7160e01b600052603260045260246000fd5b60200260200101518152602001908152602001600020604051806101600160405290816000820180546122579061474f565b80601f01602080910402602001604051908101604052809291908181526020018280546122839061474f565b80156122d05780601f106122a5576101008083540402835291602001916122d0565b820191906000526020600020905b8154815290600101906020018083116122b357829003601f168201915b50505050508152602001600182015481526020016002820154815260200160038201548152602001600482016040518060800160405290816000820180546123179061474f565b80601f01602080910402602001604051908101604052809291908181526020018280546123439061474f565b80156123905780601f1061236557610100808354040283529160200191612390565b820191906000526020600020905b81548152906001019060200180831161237357829003601f168201915b505050505081526020016001820180546123a99061474f565b80601f01602080910402602001604051908101604052809291908181526020018280546123d59061474f565b80156124225780601f106123f757610100808354040283529160200191612422565b820191906000526020600020905b81548152906001019060200180831161240557829003601f168201915b50505091835250506002919091015460ff81166020808401919091526101009091046001600160a01b031660409283015291835260078401549183019190915280516080810182526008840180549390920192909190829082906124859061474f565b80601f01602080910402602001604051908101604052809291908181526020018280546124b19061474f565b80156124fe5780601f106124d3576101008083540402835291602001916124fe565b820191906000526020600020905b8154815290600101906020018083116124e157829003601f168201915b505050505081526020016001820180546125179061474f565b80601f01602080910402602001604051908101604052809291908181526020018280546125439061474f565b80156125905780601f1061256557610100808354040283529160200191612590565b820191906000526020600020905b81548152906001019060200180831161257357829003601f168201915b50505091835250506002919091015460ff8082166020808501919091526101009092046001600160a01b0316604093840152928452600b850154909216151591830191909152600c83015490820152600d8201546060820152600e90910154608090910152825183908390811061261757634e487b7160e01b600052603260045260246000fd5b6020026020010181905250808061262d906147d5565b9150506121f8565b50919050565b61264482610c49565b61264e8133612a6c565b610e088383612e5b565b336126616119d9565b6001600160a01b0316146126875760405162461bcd60e51b815260040161077b9061462d565b600880546001810182556000919091528151805183926003027ff3f7a9fe364faab93b216da50a3214154f22a0a2b415b23a84c8169e8b636ee301916126d2918391602001906136f1565b5060208281015180516126eb92600185019201906136f1565b50604082810151600290920180546060909401516001600160a01b0316610100026001600160a81b031990941660ff90931692909217929092179055815190517f7dfb2e5d8f92d3291ca6d812f04cc68903cfec6c9cfdf3ea24554e939f72aea6916119ce9161443e565b600083805b848114612795576000908152600a6020526040902054848114612790576000918252600a602052604080832054918352909120545b61275b565b50949350505050565b600881815481106127ae57600080fd5b90600052602060002090600302016000915090508060000180546127d19061474f565b80601f01602080910402602001604051908101604052809291908181526020018280546127fd9061474f565b801561284a5780601f1061281f5761010080835404028352916020019161284a565b820191906000526020600020905b81548152906001019060200180831161282d57829003601f168201915b50505050509080600101805461285f9061474f565b80601f016020809104026020016040519081016040528092919081815260200182805461288b9061474f565b80156128d85780601f106128ad576101008083540402835291602001916128d8565b820191906000526020600020905b8154815290600101906020018083116128bb57829003601f168201915b5050506002909301549192505060ff8116906001600160a01b036101009091041684565b6001600160a01b03851633148061291857506129188533610681565b6129765760405162461bcd60e51b815260206004820152602960248201527f455243313135353a2063616c6c6572206973206e6f74206f776e6572206e6f7260448201526808185c1c1c9bdd995960ba1b606482015260840161077b565b610de48585858585612f14565b3361298c6119d9565b6001600160a01b0316146129b25760405162461bcd60e51b815260040161077b9061462d565b6001600160a01b038116612a175760405162461bcd60e51b815260206004820152602660248201527f4f776e61626c653a206e6577206f776e657220697320746865207a65726f206160448201526564647265737360d01b606482015260840161077b565b612a2081612ec2565b50565b600080516020614917833981519152612a3c8133612a6c565b610c4384848461301f565b60006001600160e01b03198216637965db0b60e01b14806107b557506107b582613186565b612a768282611a8e565b610e8757612a8e816001600160a01b031660146131d6565b612a998360206131d6565b604051602001612aaa929190614158565b60408051601f198184030181529082905262461bcd60e51b825261077b9160040161443e565b6001600160a01b038416612b305760405162461bcd60e51b815260206004820152602160248201527f455243313135353a206d696e7420746f20746865207a65726f206164647265736044820152607360f81b606482015260840161077b565b33612b5081600087612b41886133b7565b612b4a886133b7565b87613410565b6000848152602081815260408083206001600160a01b038916845290915281208054859290612b8090849061469e565b909155505060408051858152602081018590526001600160a01b0380881692600092918516916000805160206148f7833981519152910160405180910390a4610de4816000878787876134bc565b8151835114612c305760405162461bcd60e51b815260206004820152602860248201527f455243313135353a2069647320616e6420616d6f756e7473206c656e677468206044820152670dad2e6dac2e8c6d60c31b606482015260840161077b565b6001600160a01b038416612c565760405162461bcd60e51b815260040161077b9061459e565b33612c65818787878787613410565b60005b8451811015612d67576000858281518110612c9357634e487b7160e01b600052603260045260246000fd5b602002602001015190506000858381518110612cbf57634e487b7160e01b600052603260045260246000fd5b602090810291909101810151600084815280835260408082206001600160a01b038e168352909352919091205490915081811015612d0f5760405162461bcd60e51b815260040161077b906145e3565b6000838152602081815260408083206001600160a01b038e8116855292528083208585039055908b16825281208054849290612d4c90849061469e565b9250508190555050505080612d60906147d5565b9050612c68565b50846001600160a01b0316866001600160a01b0316826001600160a01b03167f4a39dc06d4c0dbc64b70af90fd698a233a518aa5d07e595d983b8c0526c8f7fb8787604051612db7929190614419565b60405180910390a4612dcd818787878787613627565b505050505050565b612ddf8282611a8e565b610e875760008281526004602090815260408083206001600160a01b03851684529091529020805460ff19166001179055612e173390565b6001600160a01b0316816001600160a01b0316837f2f8788117e7eff1d82e926ec794901d17c78024a50270940304540a733656f0d60405160405180910390a45050565b612e658282611a8e565b15610e875760008281526004602090815260408083206001600160a01b0385168085529252808320805460ff1916905551339285917ff6391f5c32d9c69d2a47ea670b442974b53935d1edc7fd64eb21e047a839171b9190a45050565b600380546001600160a01b038381166001600160a01b0319831681179093556040519116919082907f8be0079c531659141344cd1fd0a4f28419497f9722a3daafe3b4186f6b6457e090600090a35050565b6001600160a01b038416612f3a5760405162461bcd60e51b815260040161077b9061459e565b33612f4a818787612b41886133b7565b6000848152602081815260408083206001600160a01b038a16845290915290205483811015612f8b5760405162461bcd60e51b815260040161077b906145e3565b6000858152602081815260408083206001600160a01b038b8116855292528083208785039055908816825281208054869290612fc890849061469e565b909155505060408051868152602081018690526001600160a01b03808916928a821692918616916000805160206148f7833981519152910160405180910390a46130168288888888886134bc565b50505050505050565b6001600160a01b0383166130815760405162461bcd60e51b815260206004820152602360248201527f455243313135353a206275726e2066726f6d20746865207a65726f206164647260448201526265737360e81b606482015260840161077b565b336130b081856000613092876133b7565b61309b876133b7565b60405180602001604052806000815250613410565b6000838152602081815260408083206001600160a01b03881684529091529020548281101561312d5760405162461bcd60e51b8152602060048201526024808201527f455243313135353a206275726e20616d6f756e7420657863656564732062616c604482015263616e636560e01b606482015260840161077b565b6000848152602081815260408083206001600160a01b03898116808652918452828520888703905582518981529384018890529092908616916000805160206148f7833981519152910160405180910390a45050505050565b60006001600160e01b03198216636cdb3d1360e11b14806131b757506001600160e01b031982166303a24d0760e21b145b806107b557506301ffc9a760e01b6001600160e01b03198316146107b5565b606060006131e58360026146d6565b6131f090600261469e565b6001600160401b0381111561321557634e487b7160e01b600052604160045260246000fd5b6040519080825280601f01601f19166020018201604052801561323f576020820181803683370190505b509050600360fc1b8160008151811061326857634e487b7160e01b600052603260045260246000fd5b60200101906001600160f81b031916908160001a905350600f60fb1b816001815181106132a557634e487b7160e01b600052603260045260246000fd5b60200101906001600160f81b031916908160001a90535060006132c98460026146d6565b6132d490600161469e565b90505b6001811115613368576f181899199a1a9b1b9c1cb0b131b232b360811b85600f166010811061331657634e487b7160e01b600052603260045260246000fd5b1a60f81b82828151811061333a57634e487b7160e01b600052603260045260246000fd5b60200101906001600160f81b031916908160001a90535060049490941c9361336181614738565b90506132d7565b5083156110aa5760405162461bcd60e51b815260206004820181905260248201527f537472696e67733a20686578206c656e67746820696e73756666696369656e74604482015260640161077b565b604080516001808252818301909252606091600091906020808301908036833701905050905082816000815181106133ff57634e487b7160e01b600052603260045260246000fd5b602090810291909101015292915050565b6001600160a01b0385161580159061343057506001600160a01b03841615155b8015613451575061344f60008051602061491783398151915286611a8e565b155b8015613472575061347060008051602061491783398151915285611a8e565b155b15612dcd5760405162461bcd60e51b815260206004820152601a602482015279151bdad95b881d1c985b9cd9995c881b9bdd08185b1b1bddd95960321b604482015260640161077b565b6001600160a01b0384163b15612dcd5760405163f23a6e6160e01b81526001600160a01b0385169063f23a6e61906135009089908990889088908890600401614239565b602060405180830381600087803b15801561351a57600080fd5b505af192505050801561354a575060408051601f3d908101601f1916820190925261354791810190613d2b565b60015b6135f75761355661481c565b806308c379a01415613590575061356b614834565b806135765750613592565b8060405162461bcd60e51b815260040161077b919061443e565b505b60405162461bcd60e51b815260206004820152603460248201527f455243313135353a207472616e7366657220746f206e6f6e20455243313135356044820152732932b1b2b4bb32b91034b6b83632b6b2b73a32b960611b606482015260840161077b565b6001600160e01b0319811663f23a6e6160e01b146130165760405162461bcd60e51b815260040161077b90614556565b6001600160a01b0384163b15612dcd5760405163bc197c8160e01b81526001600160a01b0385169063bc197c819061366b90899089908890889088906004016141db565b602060405180830381600087803b15801561368557600080fd5b505af19250505080156136b5575060408051601f3d908101601f191682019092526136b291810190613d2b565b60015b6136c15761355661481c565b6001600160e01b0319811663bc197c8160e01b146130165760405162461bcd60e51b815260040161077b90614556565b8280546136fd9061474f565b90600052602060002090601f01602090048101928261371f5760008555613765565b82601f1061373857805160ff1916838001178555613765565b82800160010185558215613765579182015b8281111561376557825182559160200191906001019061374a565b50613771929150613856565b5090565b8280546137819061474f565b90600052602060002090601f0160209004810192826137a35760008555613765565b82601f106137b45780548555613765565b8280016001018555821561376557600052602060002091601f016020900482015b828111156137655782548255916001019190600101906137d5565b6040518061016001604052806060815260200160008152602001600081526020016000815260200161382061386b565b81526020016000815260200161383461386b565b8152600060208201819052604082018190526060820181905260809091015290565b5b808211156137715760008155600101613857565b60405180608001604052806060815260200160608152602001600060ff16815260200160006001600160a01b031681525090565b600082601f8301126138af578081fd5b813560206138bc8261467b565b6040516138c982826147a9565b8381528281019150858301600585901b870184018810156138e8578586fd5b855b85811015613906578135845292840192908401906001016138ea565b5090979650505050505050565b600082601f830112613923578081fd5b81356001600160401b0381111561393c5761393c614806565b604051613953601f8301601f1916602001826147a9565b818152846020838601011115613967578283fd5b816020850160208301379081016020019190915292915050565b803560ff8116811461399257600080fd5b919050565b6000602082840312156139a8578081fd5b81356110aa816148bd565b600080604083850312156139c5578081fd5b82356139d0816148bd565b915060208301356139e0816148bd565b809150509250929050565b600080600080600060a08688031215613a02578081fd5b8535613a0d816148bd565b94506020860135613a1d816148bd565b935060408601356001600160401b0380821115613a38578283fd5b613a4489838a0161389f565b94506060880135915080821115613a59578283fd5b613a6589838a0161389f565b93506080880135915080821115613a7a578283fd5b50613a8788828901613913565b9150509295509295909350565b600080600080600060a08688031215613aab578081fd5b8535613ab6816148bd565b94506020860135613ac6816148bd565b9350604086013592506060860135915060808601356001600160401b03811115613aee578182fd5b613a8788828901613913565b60008060408385031215613b0c578182fd5b8235613b17816148bd565b915060208301356139e0816148d2565b60008060408385031215613b39578182fd5b8235613b44816148bd565b946020939093013593505050565b600080600060608486031215613b66578081fd5b8335613b71816148bd565b95602085013595506040909401359392505050565b60008060408385031215613b98578182fd5b82356001600160401b0380821115613bae578384fd5b818501915085601f830112613bc1578384fd5b81356020613bce8261467b565b604051613bdb82826147a9565b8381528281019150858301600585901b870184018b1015613bfa578889fd5b8896505b84871015613c25578035613c11816148bd565b835260019690960195918301918301613bfe565b5096505086013592505080821115613c3b578283fd5b50613c488582860161389f565b9150509250929050565b600060208284031215613c63578081fd5b81356001600160401b03811115613c78578182fd5b613c848482850161389f565b949350505050565b600060208284031215613c9d578081fd5b81516110aa816148d2565b600060208284031215613cb9578081fd5b5035919050565b60008060408385031215613cd2578182fd5b8235915060208301356139e0816148bd565b600080600060608486031215613cf8578081fd5b505081359360208301359350604090920135919050565b600060208284031215613d20578081fd5b81356110aa816148e0565b600060208284031215613d3c578081fd5b81516110aa816148e0565b60008060008060008060008060006101208a8c031215613d65578687fd5b89356001600160401b0380821115613d7b578889fd5b613d878d838e01613913565b9a5060208c0135995060408c0135985060608c0135915080821115613daa578586fd5b613db68d838e0161389f565b975060808c0135965060a08c0135955060c08c0135945060e08c0135915080821115613de0578384fd5b50613ded8c828d0161389f565b9250506101008a013590509295985092959850929598565b600060208284031215613e16578081fd5b81356001600160401b0380821115613e2c578283fd5b9083019060608286031215613e3f578283fd5b604051606081018181108382111715613e5a57613e5a614806565b604052823582811115613e6b578485fd5b613e7787828601613913565b825250602083013582811115613e8b578485fd5b613e9787828601613913565b602083015250613ea960408401613981565b604082015295945050505050565b600060208284031215613ec8578081fd5b81356001600160401b0380821115613ede578283fd5b9083019060808286031215613ef1578283fd5b604051613efd81614784565b823582811115613f0b578485fd5b613f1787828601613913565b825250602083013582811115613f2b578485fd5b613f3787828601613913565b602083015250613f4960408401613981565b604082015260608301359250613f5e836148bd565b6060810192909252509392505050565b600060208284031215613f7f578081fd5b5051919050565b60008060408385031215613f98578182fd5b8235915060208301356001600160401b03811115613fb4578182fd5b613c4885828601613913565b60008060408385031215613fd2578182fd5b50508035926020909101359150565b6000815180845260208085019450808401835b8381101561401057815187529582019590820190600101613ff4565b509495945050505050565b6000815180845261403381602086016020860161470c565b601f01601f19169290920160200192915050565b600081516080845261405c608085018261401b565b905060208301518482036020860152614075828261401b565b60408581015160ff16908701526060948501516001600160a01b03169490950193909352509192915050565b600082516140b381846020870161470c565b9190910192915050565b600080835482600182811c9150808316806140d957607f831692505b60208084108214156140f957634e487b7160e01b87526022600452602487fd5b81801561410d576001811461411e5761414a565b60ff1986168952848901965061414a565b60008a815260209020885b868110156141425781548b820152908501908301614129565b505084890196505b509498975050505050505050565b76020b1b1b2b9b9a1b7b73a3937b61d1030b1b1b7bab73a1604d1b81526000835161418a81601785016020880161470c565b7001034b99036b4b9b9b4b733903937b6329607d1b60179184019182015283516141bb81602884016020880161470c565b01602801949350505050565b6001600160a01b0391909116815260200190565b6001600160a01b0386811682528516602082015260a06040820181905260009061420790830186613fe1565b82810360608401526142198186613fe1565b9050828103608084015261422d818561401b565b98975050505050505050565b6001600160a01b03868116825285166020820152604081018490526060810183905260a0608082018190526000906142739083018461401b565b979650505050505050565b6001600160a01b03929092168252602082015260400190565b6001600160a01b039390931683526020830191909152604082015260600190565b6020808252825182820181905260009190848201906040850190845b818110156142f95783516001600160a01b0316835292840192918401916001016142d4565b50909695505050505050565b60006020808301818452808551808352604092508286019150828160051b870101848801865b838110156143f857603f19898403018552815161016081518186526143528287018261401b565b915050888201518986015287820151888601526060808301518187015250608080830151868303828801526143878382614047565b9250505060a080830151818701525060c080830151868303828801526143ad8382614047565b9250505060e0808301516143c48288018215159052565b505061010082810151908601526101208083015190860152610140918201519190940152938601939086019060010161432b565b509098975050505050505050565b6020815260006110aa6020830184613fe1565b60408152600061442c6040830185613fe1565b8281036020840152611b3d8185613fe1565b6020815260006110aa602083018461401b565b606081526000614464606083018661401b565b8281036020840152614476818661401b565b91505060ff83166040830152949350505050565b60808152600061449d608083018761401b565b82810360208401526144af818761401b565b60ff95909516604084015250506001600160a01b039190911660609091015292915050565b60006101608083526144e88184018f61401b565b90508c60208401528b60408401528a6060840152828103608084015261450e818b614047565b90508860a084015282810360c08401526145288189614047565b96151560e0840152505061010081019390935261012083019190915261014090910152979650505050505050565b60208082526028908201527f455243313135353a204552433131353552656365697665722072656a656374656040820152676420746f6b656e7360c01b606082015260800190565b60208082526025908201527f455243313135353a207472616e7366657220746f20746865207a65726f206164604082015264647265737360d81b606082015260800190565b6020808252602a908201527f455243313135353a20696e73756666696369656e742062616c616e636520666f60408201526939103a3930b739b332b960b11b606082015260800190565b6020808252818101527f4f776e61626c653a2063616c6c6572206973206e6f7420746865206f776e6572604082015260600190565b828152604060208201526000613c84604083018461401b565b60006001600160401b0382111561469457614694614806565b5060051b60200190565b600082198211156146b1576146b16147f0565b500190565b6000826146d157634e487b7160e01b81526012600452602481fd5b500490565b60008160001904831182151516156146f0576146f06147f0565b500290565b600082821015614707576147076147f0565b500390565b60005b8381101561472757818101518382015260200161470f565b83811115610c435750506000910152565b600081614747576147476147f0565b506000190190565b600181811c9082168061476357607f821691505b6020821081141561263557634e487b7160e01b600052602260045260246000fd5b608081016001600160401b03811182821017156147a3576147a3614806565b60405250565b601f8201601f191681016001600160401b03811182821017156147ce576147ce614806565b6040525050565b60006000198214156147e9576147e96147f0565b5060010190565b634e487b7160e01b600052601160045260246000fd5b634e487b7160e01b600052604160045260246000fd5b600060033d111561483157600481823e5160e01c5b90565b600060443d10156148425790565b6040516003193d81016004833e81513d6001600160401b03808311602484018310171561487157505050505090565b82850191508151818111156148895750505050505090565b843d87010160208285010111156148a35750505050505090565b6148b2602082860101876147a9565b509095945050505050565b6001600160a01b0381168114612a2057600080fd5b8015158114612a2057600080fd5b6001600160e01b031981168114612a2057600080fdfec3d58168c5ae7397731d063d5bbf3d657854427343f4c083240f7aacaa2d0f62a832e51231992a61bbbb7d0ebc1d5c53e1c9319ce30de2c8a3875511c6a98345a264697066735822122013232f497a35767c06884c8acf12f1c65efc5fb9261305cc13da31169ab242db64736f6c63430008040033",
  "bytecodeSha1": "6a9588373d22d65e42eeb3732acc07442d88edaf",
  "compiler": {
    "evm_version": "istanbul",
    "optimizer": {
      "enabled": true,
      "runs": 1
    },
    "version": "0.8.4+commit.c7e474f2"
  },
  "contractName": "TournamentManager",
  "language": "Solidity",
  "natspec": {
    "author": "Heisenberg",
    "kind": "dev",
    "methods": {
      "balanceOf(address,uint256)": {
        "details": "See {IERC1155-balanceOf}. Requirements: - `account` cannot be the zero address."
      },
      "balanceOfBatch(address[],uint256[])": {
        "details": "See {IERC1155-balanceOfBatch}. Requirements: - `accounts` and `ids` must have the same length."
      },
      "getRoleAdmin(bytes32)": {
        "details": "Returns the admin role that controls `role`. See {grantRole} and {revokeRole}. To change a role's admin, use {_setRoleAdmin}."
      },
      "grantRole(bytes32,address)": {
        "details": "Grants `role` to `account`. If `account` had not been already granted `role`, emits a {RoleGranted} event. Requirements: - the caller must have ``role``'s admin role."
      },
      "hasRole(bytes32,address)": {
        "details": "Returns `true` if `account` has been granted `role`."
      },
      "isApprovedForAll(address,address)": {
        "details": "See {IERC1155-isApprovedForAll}."
      },
      "owner()": {
        "details": "Returns the address of the current owner."
      },
      "renounceOwnership()": {
        "details": "Leaves the contract without owner. It will not be possible to call `onlyOwner` functions anymore. Can only be called by the current owner. NOTE: Renouncing ownership will leave the contract without an owner, thereby removing any functionality that is only available to the owner."
      },
      "renounceRole(bytes32,address)": {
        "details": "Revokes `role` from the calling account. Roles are often managed via {grantRole} and {revokeRole}: this function's purpose is to provide a mechanism for accounts to lose their privileges if they are compromised (such as when a trusted device is misplaced). If the calling account had been granted `role`, emits a {RoleRevoked} event. Requirements: - the caller must be `account`."
      },
      "revokeRole(bytes32,address)": {
        "details": "Revokes `role` from `account`. If `account` had been granted `role`, emits a {RoleRevoked} event. Requirements: - the caller must have ``role``'s admin role."
      },
      "safeBatchTransferFrom(address,address,uint256[],uint256[],bytes)": {
        "details": "See {IERC1155-safeBatchTransferFrom}."
      },
      "safeTransferFrom(address,address,uint256,uint256,bytes)": {
        "details": "See {IERC1155-safeTransferFrom}."
      },
      "setApprovalForAll(address,bool)": {
        "details": "See {IERC1155-setApprovalForAll}."
      },
      "transferOwnership(address)": {
        "details": "Transfers ownership of the contract to a new account (`newOwner`). Can only be called by the current owner."
      },
      "uri(uint256)": {
        "details": "See {IERC1155MetadataURI-uri}. This implementation returns the same URI for *all* token types. It relies on the token type ID substitution mechanism https://eips.ethereum.org/EIPS/eip-1155#metadata[defined in the EIP]. Clients calling this function must replace the `\\{id\\}` substring with the actual token type ID."
      }
    },
    "notice": "The contract which manages the Tournaments",
    "title": "Tournament Manager",
    "version": 1
  },
  "opcodes": "PUSH1 0x80 PUSH1 0x40 MSTORE CALLVALUE DUP1 ISZERO PUSH2 0x10 JUMPI PUSH1 0x0 DUP1 REVERT JUMPDEST POP PUSH1 0x4 CALLDATASIZE LT PUSH2 0x218 JUMPI PUSH1 0x0 CALLDATALOAD PUSH1 0xE0 SHR DUP1 PUSH3 0xF97F1E EQ PUSH2 0x21D JUMPI DUP1 PUSH3 0xFDD58E EQ PUSH2 0x2B2 JUMPI DUP1 PUSH4 0x1FFC9A7 EQ PUSH2 0x2D3 JUMPI DUP1 PUSH4 0x701AC31 EQ PUSH2 0x2F6 JUMPI DUP1 PUSH4 0xE89341C EQ PUSH2 0x309 JUMPI DUP1 PUSH4 0xF2AEF2B EQ PUSH2 0x329 JUMPI DUP1 PUSH4 0x156E29F6 EQ PUSH2 0x33C JUMPI DUP1 PUSH4 0x16FF5722 EQ PUSH2 0x351 JUMPI DUP1 PUSH4 0x1A95AA77 EQ PUSH2 0x37C JUMPI DUP1 PUSH4 0x248A9CA3 EQ PUSH2 0x39C JUMPI DUP1 PUSH4 0x28FD8FC4 EQ PUSH2 0x3AF JUMPI DUP1 PUSH4 0x2B8DDE1E EQ PUSH2 0x3CF JUMPI DUP1 PUSH4 0x2EB2C2D6 EQ PUSH2 0x3E4 JUMPI DUP1 PUSH4 0x2F2FF15D EQ PUSH2 0x3F7 JUMPI DUP1 PUSH4 0x313CE567 EQ PUSH2 0x40A JUMPI DUP1 PUSH4 0x36568ABE EQ PUSH2 0x419 JUMPI DUP1 PUSH4 0x3B50C4D1 EQ PUSH2 0x42C JUMPI DUP1 PUSH4 0x435743A7 EQ PUSH2 0x44E JUMPI DUP1 PUSH4 0x4E1273F4 EQ PUSH2 0x461 JUMPI DUP1 PUSH4 0x5206141A EQ PUSH2 0x481 JUMPI DUP1 PUSH4 0x63D28108 EQ PUSH2 0x4AF JUMPI DUP1 PUSH4 0x67DD74CA EQ PUSH2 0x4C2 JUMPI DUP1 PUSH4 0x715018A6 EQ PUSH2 0x4D5 JUMPI DUP1 PUSH4 0x7503E1B7 EQ PUSH2 0x4DD JUMPI DUP1 PUSH4 0x7BAB62DF EQ PUSH2 0x507 JUMPI DUP1 PUSH4 0x852EFC3D EQ PUSH2 0x51A JUMPI DUP1 PUSH4 0x8DA5CB5B EQ PUSH2 0x523 JUMPI DUP1 PUSH4 0x91A0846D EQ PUSH2 0x52B JUMPI DUP1 PUSH4 0x91D14854 EQ PUSH2 0x53E JUMPI DUP1 PUSH4 0x9A9F16EA EQ PUSH2 0x551 JUMPI DUP1 PUSH4 0x9D54080A EQ PUSH2 0x590 JUMPI DUP1 PUSH4 0xA217FDDF EQ PUSH2 0x5A3 JUMPI DUP1 PUSH4 0xA22CB465 EQ PUSH2 0x5AB JUMPI DUP1 PUSH4 0xAE169A50 EQ PUSH2 0x5BE JUMPI DUP1 PUSH4 0xB46B7919 EQ PUSH2 0x5D1 JUMPI DUP1 PUSH4 0xBCEC1952 EQ PUSH2 0x5E4 JUMPI DUP1 PUSH4 0xC889EE82 EQ PUSH2 0x5F7 JUMPI DUP1 PUSH4 0xD547741F EQ PUSH2 0x617 JUMPI DUP1 PUSH4 0xD77C6BD2 EQ PUSH2 0x62A JUMPI DUP1 PUSH4 0xD9FBB42E EQ PUSH2 0x63D JUMPI DUP1 PUSH4 0xE7FDAFD4 EQ PUSH2 0x650 JUMPI DUP1 PUSH4 0xE985E9C5 EQ PUSH2 0x673 JUMPI DUP1 PUSH4 0xEEA54380 EQ PUSH2 0x6AF JUMPI DUP1 PUSH4 0xF242432A EQ PUSH2 0x6DA JUMPI DUP1 PUSH4 0xF2FDE38B EQ PUSH2 0x6ED JUMPI DUP1 PUSH4 0xF5298ACA EQ PUSH2 0x700 JUMPI JUMPDEST PUSH1 0x0 DUP1 REVERT JUMPDEST PUSH2 0x270 PUSH2 0x22B CALLDATASIZE PUSH1 0x4 PUSH2 0x3CA8 JUMP JUMPDEST PUSH1 0xA PUSH1 0x20 MSTORE PUSH1 0x0 SWAP1 DUP2 MSTORE PUSH1 0x40 SWAP1 KECCAK256 DUP1 SLOAD PUSH1 0x1 DUP3 ADD SLOAD PUSH1 0x2 DUP4 ADD SLOAD PUSH1 0x3 DUP5 ADD SLOAD PUSH1 0x4 SWAP1 SWAP5 ADD SLOAD SWAP3 SWAP4 SWAP2 SWAP3 PUSH1 0x1 PUSH1 0x1 PUSH1 0xA0 SHL SUB SWAP1 SWAP2 AND SWAP2 SWAP1 PUSH1 0xFF DUP1 DUP3 AND SWAP2 PUSH2 0x100 SWAP1 DIV AND DUP7 JUMP JUMPDEST PUSH1 0x40 DUP1 MLOAD SWAP7 DUP8 MSTORE PUSH1 0x20 DUP8 ADD SWAP6 SWAP1 SWAP6 MSTORE PUSH1 0x1 PUSH1 0x1 PUSH1 0xA0 SHL SUB SWAP1 SWAP4 AND SWAP4 DUP6 ADD SWAP4 SWAP1 SWAP4 MSTORE PUSH1 0x60 DUP5 ADD MSTORE SWAP1 ISZERO ISZERO PUSH1 0x80 DUP4 ADD MSTORE ISZERO ISZERO PUSH1 0xA0 DUP3 ADD MSTORE PUSH1 0xC0 ADD JUMPDEST PUSH1 0x40 MLOAD DUP1 SWAP2 SUB SWAP1 RETURN JUMPDEST PUSH2 0x2C5 PUSH2 0x2C0 CALLDATASIZE PUSH1 0x4 PUSH2 0x3B27 JUMP JUMPDEST PUSH2 0x713 JUMP JUMPDEST PUSH1 0x40 MLOAD SWAP1 DUP2 MSTORE PUSH1 0x20 ADD PUSH2 0x2A9 JUMP JUMPDEST PUSH2 0x2E6 PUSH2 0x2E1 CALLDATASIZE PUSH1 0x4 PUSH2 0x3D0F JUMP JUMPDEST PUSH2 0x7AA JUMP JUMPDEST PUSH1 0x40 MLOAD SWAP1 ISZERO ISZERO DUP2 MSTORE PUSH1 0x20 ADD PUSH2 0x2A9 JUMP JUMPDEST PUSH2 0x2E6 PUSH2 0x304 CALLDATASIZE PUSH1 0x4 PUSH2 0x3F86 JUMP JUMPDEST PUSH2 0x7BB JUMP JUMPDEST PUSH2 0x31C PUSH2 0x317 CALLDATASIZE PUSH1 0x4 PUSH2 0x3CA8 JUMP JUMPDEST PUSH2 0x7F2 JUMP JUMPDEST PUSH1 0x40 MLOAD PUSH2 0x2A9 SWAP2 SWAP1 PUSH2 0x443E JUMP JUMPDEST PUSH2 0x2C5 PUSH2 0x337 CALLDATASIZE PUSH1 0x4 PUSH2 0x3D47 JUMP JUMPDEST PUSH2 0x886 JUMP JUMPDEST PUSH2 0x34F PUSH2 0x34A CALLDATASIZE PUSH1 0x4 PUSH2 0x3B52 JUMP JUMPDEST PUSH2 0xC0F JUMP JUMPDEST STOP JUMPDEST PUSH2 0x2C5 PUSH2 0x35F CALLDATASIZE PUSH1 0x4 PUSH2 0x3CC0 JUMP JUMPDEST PUSH1 0xD PUSH1 0x20 SWAP1 DUP2 MSTORE PUSH1 0x0 SWAP3 DUP4 MSTORE PUSH1 0x40 DUP1 DUP5 KECCAK256 SWAP1 SWAP2 MSTORE SWAP1 DUP3 MSTORE SWAP1 KECCAK256 SLOAD DUP2 JUMP JUMPDEST PUSH1 0x5 SLOAD PUSH2 0x38F SWAP1 PUSH1 0x1 PUSH1 0x1 PUSH1 0xA0 SHL SUB AND DUP2 JUMP JUMPDEST PUSH1 0x40 MLOAD PUSH2 0x2A9 SWAP2 SWAP1 PUSH2 0x41C7 JUMP JUMPDEST PUSH2 0x2C5 PUSH2 0x3AA CALLDATASIZE PUSH1 0x4 PUSH2 0x3CA8 JUMP JUMPDEST PUSH2 0xC49 JUMP JUMPDEST PUSH2 0x3C2 PUSH2 0x3BD CALLDATASIZE PUSH1 0x4 PUSH2 0x3FC0 JUMP JUMPDEST PUSH2 0xC5E JUMP JUMPDEST PUSH1 0x40 MLOAD PUSH2 0x2A9 SWAP2 SWAP1 PUSH2 0x42B8 JUMP JUMPDEST PUSH2 0x2C5 PUSH1 0x0 DUP1 MLOAD PUSH1 0x20 PUSH2 0x4917 DUP4 CODECOPY DUP2 MLOAD SWAP2 MSTORE DUP2 JUMP JUMPDEST PUSH2 0x34F PUSH2 0x3F2 CALLDATASIZE PUSH1 0x4 PUSH2 0x39EB JUMP JUMPDEST PUSH2 0xD54 JUMP JUMPDEST PUSH2 0x34F PUSH2 0x405 CALLDATASIZE PUSH1 0x4 PUSH2 0x3CC0 JUMP JUMPDEST PUSH2 0xDEB JUMP JUMPDEST PUSH1 0x40 MLOAD PUSH1 0x12 DUP2 MSTORE PUSH1 0x20 ADD PUSH2 0x2A9 JUMP JUMPDEST PUSH2 0x34F PUSH2 0x427 CALLDATASIZE PUSH1 0x4 PUSH2 0x3CC0 JUMP JUMPDEST PUSH2 0xE0D JUMP JUMPDEST PUSH2 0x43F PUSH2 0x43A CALLDATASIZE PUSH1 0x4 PUSH2 0x3CA8 JUMP JUMPDEST PUSH2 0xE8B JUMP JUMPDEST PUSH1 0x40 MLOAD PUSH2 0x2A9 SWAP4 SWAP3 SWAP2 SWAP1 PUSH2 0x4451 JUMP JUMPDEST PUSH2 0x2C5 PUSH2 0x45C CALLDATASIZE PUSH1 0x4 PUSH2 0x3B52 JUMP JUMPDEST PUSH2 0xFD8 JUMP JUMPDEST PUSH2 0x474 PUSH2 0x46F CALLDATASIZE PUSH1 0x4 PUSH2 0x3B86 JUMP JUMPDEST PUSH2 0x10B1 JUMP JUMPDEST PUSH1 0x40 MLOAD PUSH2 0x2A9 SWAP2 SWAP1 PUSH2 0x4406 JUMP JUMPDEST PUSH2 0x2E6 PUSH2 0x48F CALLDATASIZE PUSH1 0x4 PUSH2 0x3CC0 JUMP JUMPDEST PUSH1 0xC PUSH1 0x20 SWAP1 DUP2 MSTORE PUSH1 0x0 SWAP3 DUP4 MSTORE PUSH1 0x40 DUP1 DUP5 KECCAK256 SWAP1 SWAP2 MSTORE SWAP1 DUP3 MSTORE SWAP1 KECCAK256 SLOAD PUSH1 0xFF AND DUP2 JUMP JUMPDEST PUSH2 0x2C5 PUSH2 0x4BD CALLDATASIZE PUSH1 0x4 PUSH2 0x3CA8 JUMP JUMPDEST PUSH2 0x1212 JUMP JUMPDEST PUSH2 0x34F PUSH2 0x4D0 CALLDATASIZE PUSH1 0x4 PUSH2 0x3CA8 JUMP JUMPDEST PUSH2 0x1233 JUMP JUMPDEST PUSH2 0x34F PUSH2 0x152E JUMP JUMPDEST PUSH2 0x4F0 PUSH2 0x4EB CALLDATASIZE PUSH1 0x4 PUSH2 0x3CA8 JUMP JUMPDEST PUSH2 0x1569 JUMP JUMPDEST PUSH1 0x40 MLOAD PUSH2 0x2A9 SWAP12 SWAP11 SWAP10 SWAP9 SWAP8 SWAP7 SWAP6 SWAP5 SWAP4 SWAP3 SWAP2 SWAP1 PUSH2 0x44D4 JUMP JUMPDEST PUSH2 0x34F PUSH2 0x515 CALLDATASIZE PUSH1 0x4 PUSH2 0x3E05 JUMP JUMPDEST PUSH2 0x18EE JUMP JUMPDEST PUSH2 0x2C5 PUSH1 0x9 SLOAD DUP2 JUMP JUMPDEST PUSH2 0x38F PUSH2 0x19D9 JUMP JUMPDEST PUSH2 0x2C5 PUSH2 0x539 CALLDATASIZE PUSH1 0x4 PUSH2 0x3B27 JUMP JUMPDEST PUSH2 0x19E8 JUMP JUMPDEST PUSH2 0x2E6 PUSH2 0x54C CALLDATASIZE PUSH1 0x4 PUSH2 0x3CC0 JUMP JUMPDEST PUSH2 0x1A8E JUMP JUMPDEST PUSH2 0x2E6 PUSH2 0x55F CALLDATASIZE PUSH1 0x4 PUSH2 0x3F86 JUMP JUMPDEST PUSH1 0x10 PUSH1 0x20 SWAP1 DUP2 MSTORE PUSH1 0x0 SWAP3 DUP4 MSTORE PUSH1 0x40 SWAP1 SWAP3 KECCAK256 DUP2 MLOAD DUP1 DUP4 ADD DUP5 ADD DUP1 MLOAD SWAP3 DUP2 MSTORE SWAP1 DUP5 ADD SWAP3 SWAP1 SWAP4 ADD SWAP2 SWAP1 SWAP2 KECCAK256 SWAP2 MSTORE SLOAD PUSH1 0xFF AND DUP2 JUMP JUMPDEST PUSH2 0x2C5 PUSH2 0x59E CALLDATASIZE PUSH1 0x4 PUSH2 0x3B27 JUMP JUMPDEST PUSH2 0x1AB9 JUMP JUMPDEST PUSH2 0x2C5 PUSH1 0x0 DUP2 JUMP JUMPDEST PUSH2 0x34F PUSH2 0x5B9 CALLDATASIZE PUSH1 0x4 PUSH2 0x3AFA JUMP JUMPDEST PUSH2 0x1B46 JUMP JUMPDEST PUSH2 0x2C5 PUSH2 0x5CC CALLDATASIZE PUSH1 0x4 PUSH2 0x3CA8 JUMP JUMPDEST PUSH2 0x1C1D JUMP JUMPDEST PUSH2 0x34F PUSH2 0x5DF CALLDATASIZE PUSH1 0x4 PUSH2 0x3B27 JUMP JUMPDEST PUSH2 0x1E55 JUMP JUMPDEST PUSH2 0x2C5 PUSH2 0x5F2 CALLDATASIZE PUSH1 0x4 PUSH2 0x3FC0 JUMP JUMPDEST PUSH2 0x215F JUMP JUMPDEST PUSH2 0x60A PUSH2 0x605 CALLDATASIZE PUSH1 0x4 PUSH2 0x3C52 JUMP JUMPDEST PUSH2 0x2190 JUMP JUMPDEST PUSH1 0x40 MLOAD PUSH2 0x2A9 SWAP2 SWAP1 PUSH2 0x4305 JUMP JUMPDEST PUSH2 0x34F PUSH2 0x625 CALLDATASIZE PUSH1 0x4 PUSH2 0x3CC0 JUMP JUMPDEST PUSH2 0x263B JUMP JUMPDEST PUSH2 0x34F PUSH2 0x638 CALLDATASIZE PUSH1 0x4 PUSH2 0x3EB7 JUMP JUMPDEST PUSH2 0x2658 JUMP JUMPDEST PUSH2 0x2C5 PUSH2 0x64B CALLDATASIZE PUSH1 0x4 PUSH2 0x3CE4 JUMP JUMPDEST PUSH2 0x2756 JUMP JUMPDEST PUSH2 0x663 PUSH2 0x65E CALLDATASIZE PUSH1 0x4 PUSH2 0x3CA8 JUMP JUMPDEST PUSH2 0x279E JUMP JUMPDEST PUSH1 0x40 MLOAD PUSH2 0x2A9 SWAP5 SWAP4 SWAP3 SWAP2 SWAP1 PUSH2 0x448A JUMP JUMPDEST PUSH2 0x2E6 PUSH2 0x681 CALLDATASIZE PUSH1 0x4 PUSH2 0x39B3 JUMP JUMPDEST PUSH1 0x1 PUSH1 0x1 PUSH1 0xA0 SHL SUB SWAP2 DUP3 AND PUSH1 0x0 SWAP1 DUP2 MSTORE PUSH1 0x1 PUSH1 0x20 SWAP1 DUP2 MSTORE PUSH1 0x40 DUP1 DUP4 KECCAK256 SWAP4 SWAP1 SWAP5 AND DUP3 MSTORE SWAP2 SWAP1 SWAP2 MSTORE KECCAK256 SLOAD PUSH1 0xFF AND SWAP1 JUMP JUMPDEST PUSH2 0x2C5 PUSH2 0x6BD CALLDATASIZE PUSH1 0x4 PUSH2 0x3FC0 JUMP JUMPDEST PUSH1 0xB PUSH1 0x20 SWAP1 DUP2 MSTORE PUSH1 0x0 SWAP3 DUP4 MSTORE PUSH1 0x40 DUP1 DUP5 KECCAK256 SWAP1 SWAP2 MSTORE SWAP1 DUP3 MSTORE SWAP1 KECCAK256 SLOAD DUP2 JUMP JUMPDEST PUSH2 0x34F PUSH2 0x6E8 CALLDATASIZE PUSH1 0x4 PUSH2 0x3A94 JUMP JUMPDEST PUSH2 0x28FC JUMP JUMPDEST PUSH2 0x34F PUSH2 0x6FB CALLDATASIZE PUSH1 0x4 PUSH2 0x3997 JUMP JUMPDEST PUSH2 0x2983 JUMP JUMPDEST PUSH2 0x34F PUSH2 0x70E CALLDATASIZE PUSH1 0x4 PUSH2 0x3B52 JUMP JUMPDEST PUSH2 0x2A23 JUMP JUMPDEST PUSH1 0x0 PUSH1 0x1 PUSH1 0x1 PUSH1 0xA0 SHL SUB DUP4 AND PUSH2 0x784 JUMPI PUSH1 0x40 MLOAD PUSH3 0x461BCD PUSH1 0xE5 SHL DUP2 MSTORE PUSH1 0x20 PUSH1 0x4 DUP3 ADD MSTORE PUSH1 0x2B PUSH1 0x24 DUP3 ADD MSTORE PUSH32 0x455243313135353A2062616C616E636520717565727920666F7220746865207A PUSH1 0x44 DUP3 ADD MSTORE PUSH11 0x65726F2061646472657373 PUSH1 0xA8 SHL PUSH1 0x64 DUP3 ADD MSTORE PUSH1 0x84 ADD JUMPDEST PUSH1 0x40 MLOAD DUP1 SWAP2 SUB SWAP1 REVERT JUMPDEST POP PUSH1 0x0 SWAP1 DUP2 MSTORE PUSH1 0x20 DUP2 DUP2 MSTORE PUSH1 0x40 DUP1 DUP4 KECCAK256 PUSH1 0x1 PUSH1 0x1 PUSH1 0xA0 SHL SUB SWAP5 SWAP1 SWAP5 AND DUP4 MSTORE SWAP3 SWAP1 MSTORE KECCAK256 SLOAD SWAP1 JUMP JUMPDEST PUSH1 0x0 PUSH2 0x7B5 DUP3 PUSH2 0x2A47 JUMP JUMPDEST SWAP3 SWAP2 POP POP JUMP JUMPDEST PUSH1 0x0 DUP3 DUP2 MSTORE PUSH1 0x10 PUSH1 0x20 MSTORE PUSH1 0x40 DUP1 DUP3 KECCAK256 SWAP1 MLOAD PUSH2 0x7D7 SWAP1 DUP5 SWAP1 PUSH2 0x40A1 JUMP JUMPDEST SWAP1 DUP2 MSTORE PUSH1 0x40 MLOAD SWAP1 DUP2 SWAP1 SUB PUSH1 0x20 ADD SWAP1 KECCAK256 SLOAD PUSH1 0xFF AND SWAP1 POP SWAP3 SWAP2 POP POP JUMP JUMPDEST PUSH1 0x60 PUSH1 0x2 DUP1 SLOAD PUSH2 0x801 SWAP1 PUSH2 0x474F JUMP JUMPDEST DUP1 PUSH1 0x1F ADD PUSH1 0x20 DUP1 SWAP2 DIV MUL PUSH1 0x20 ADD PUSH1 0x40 MLOAD SWAP1 DUP2 ADD PUSH1 0x40 MSTORE DUP1 SWAP3 SWAP2 SWAP1 DUP2 DUP2 MSTORE PUSH1 0x20 ADD DUP3 DUP1 SLOAD PUSH2 0x82D SWAP1 PUSH2 0x474F JUMP JUMPDEST DUP1 ISZERO PUSH2 0x87A JUMPI DUP1 PUSH1 0x1F LT PUSH2 0x84F JUMPI PUSH2 0x100 DUP1 DUP4 SLOAD DIV MUL DUP4 MSTORE SWAP2 PUSH1 0x20 ADD SWAP2 PUSH2 0x87A JUMP JUMPDEST DUP3 ADD SWAP2 SWAP1 PUSH1 0x0 MSTORE PUSH1 0x20 PUSH1 0x0 KECCAK256 SWAP1 JUMPDEST DUP2 SLOAD DUP2 MSTORE SWAP1 PUSH1 0x1 ADD SWAP1 PUSH1 0x20 ADD DUP1 DUP4 GT PUSH2 0x85D JUMPI DUP3 SWAP1 SUB PUSH1 0x1F AND DUP3 ADD SWAP2 JUMPDEST POP POP POP POP POP SWAP1 POP SWAP2 SWAP1 POP JUMP JUMPDEST PUSH1 0x0 CALLER PUSH2 0x891 PUSH2 0x19D9 JUMP JUMPDEST PUSH1 0x1 PUSH1 0x1 PUSH1 0xA0 SHL SUB AND EQ PUSH2 0x8B7 JUMPI PUSH1 0x40 MLOAD PUSH3 0x461BCD PUSH1 0xE5 SHL DUP2 MSTORE PUSH1 0x4 ADD PUSH2 0x77B SWAP1 PUSH2 0x462D JUMP JUMPDEST PUSH1 0x9 SLOAD PUSH1 0x0 SWAP1 DUP2 MSTORE PUSH1 0xE PUSH1 0x20 SWAP1 DUP2 MSTORE PUSH1 0x40 SWAP1 SWAP2 KECCAK256 DUP12 MLOAD SWAP1 SWAP2 PUSH2 0x8DD SWAP2 DUP4 SWAP2 DUP15 ADD SWAP1 PUSH2 0x36F1 JUMP JUMPDEST POP PUSH1 0x1 DUP2 ADD DUP11 SWAP1 SSTORE PUSH1 0x2 DUP2 ADD DUP10 SWAP1 SSTORE PUSH1 0x3 DUP2 ADD DUP8 SWAP1 SSTORE PUSH1 0x8 DUP1 SLOAD DUP8 SWAP1 DUP2 LT PUSH2 0x915 JUMPI PUSH4 0x4E487B71 PUSH1 0xE0 SHL PUSH1 0x0 MSTORE PUSH1 0x32 PUSH1 0x4 MSTORE PUSH1 0x24 PUSH1 0x0 REVERT JUMPDEST SWAP1 PUSH1 0x0 MSTORE PUSH1 0x20 PUSH1 0x0 KECCAK256 SWAP1 PUSH1 0x3 MUL ADD DUP2 PUSH1 0x4 ADD PUSH1 0x0 DUP3 ADD DUP2 PUSH1 0x0 ADD SWAP1 DUP1 SLOAD PUSH2 0x93B SWAP1 PUSH2 0x474F JUMP JUMPDEST PUSH2 0x946 SWAP3 SWAP2 SWAP1 PUSH2 0x3775 JUMP JUMPDEST POP PUSH1 0x1 DUP3 ADD DUP2 PUSH1 0x1 ADD SWAP1 DUP1 SLOAD PUSH2 0x95B SWAP1 PUSH2 0x474F JUMP JUMPDEST PUSH2 0x966 SWAP3 SWAP2 SWAP1 PUSH2 0x3775 JUMP JUMPDEST POP PUSH1 0x2 SWAP2 DUP3 ADD DUP1 SLOAD SWAP2 SWAP1 SWAP3 ADD DUP1 SLOAD PUSH1 0xFF SWAP1 SWAP3 AND PUSH1 0xFF NOT DUP4 AND DUP2 OR DUP3 SSTORE SWAP3 SLOAD PUSH1 0x1 PUSH1 0x1 PUSH1 0xA8 SHL SUB NOT SWAP1 SWAP3 AND SWAP1 SWAP3 OR PUSH2 0x100 SWAP2 DUP3 SWAP1 DIV PUSH1 0x1 PUSH1 0x1 PUSH1 0xA0 SHL SUB AND SWAP1 SWAP2 MUL OR SWAP1 SSTORE PUSH1 0x8 DUP1 SLOAD DUP5 SWAP1 DUP2 LT PUSH2 0x9CB JUMPI PUSH4 0x4E487B71 PUSH1 0xE0 SHL PUSH1 0x0 MSTORE PUSH1 0x32 PUSH1 0x4 MSTORE PUSH1 0x24 PUSH1 0x0 REVERT JUMPDEST SWAP1 PUSH1 0x0 MSTORE PUSH1 0x20 PUSH1 0x0 KECCAK256 SWAP1 PUSH1 0x3 MUL ADD DUP2 PUSH1 0x8 ADD PUSH1 0x0 DUP3 ADD DUP2 PUSH1 0x0 ADD SWAP1 DUP1 SLOAD PUSH2 0x9F1 SWAP1 PUSH2 0x474F JUMP JUMPDEST PUSH2 0x9FC SWAP3 SWAP2 SWAP1 PUSH2 0x3775 JUMP JUMPDEST POP PUSH1 0x1 DUP3 ADD DUP2 PUSH1 0x1 ADD SWAP1 DUP1 SLOAD PUSH2 0xA11 SWAP1 PUSH2 0x474F JUMP JUMPDEST PUSH2 0xA1C SWAP3 SWAP2 SWAP1 PUSH2 0x3775 JUMP JUMPDEST POP PUSH1 0x2 SWAP2 DUP3 ADD DUP1 SLOAD SWAP2 SWAP1 SWAP3 ADD DUP1 SLOAD PUSH1 0xFF SWAP1 SWAP3 AND PUSH1 0xFF NOT DUP4 AND DUP2 OR DUP3 SSTORE SWAP3 SLOAD PUSH1 0x1 PUSH1 0x1 PUSH1 0xA8 SHL SUB NOT SWAP1 SWAP3 AND SWAP1 SWAP3 OR PUSH2 0x100 SWAP2 DUP3 SWAP1 DIV PUSH1 0x1 PUSH1 0x1 PUSH1 0xA0 SHL SUB AND SWAP1 SWAP2 MUL OR SWAP1 SSTORE PUSH1 0x7 DUP2 ADD DUP6 SWAP1 SSTORE PUSH1 0x0 JUMPDEST DUP5 MLOAD DUP2 LT ISZERO PUSH2 0xAD6 JUMPI PUSH1 0x9 SLOAD PUSH1 0x0 SWAP1 DUP2 MSTORE PUSH1 0xF PUSH1 0x20 MSTORE PUSH1 0x40 SWAP1 KECCAK256 DUP6 MLOAD DUP7 SWAP1 DUP4 SWAP1 DUP2 LT PUSH2 0xAA5 JUMPI PUSH4 0x4E487B71 PUSH1 0xE0 SHL PUSH1 0x0 MSTORE PUSH1 0x32 PUSH1 0x4 MSTORE PUSH1 0x24 PUSH1 0x0 REVERT JUMPDEST PUSH1 0x20 SWAP1 DUP2 MUL SWAP2 SWAP1 SWAP2 ADD DUP2 ADD MLOAD DUP3 SLOAD PUSH1 0x1 DUP2 ADD DUP5 SSTORE PUSH1 0x0 SWAP4 DUP5 MSTORE SWAP2 SWAP1 SWAP3 KECCAK256 ADD SSTORE DUP1 PUSH2 0xACE DUP2 PUSH2 0x47D5 JUMP JUMPDEST SWAP2 POP POP PUSH2 0xA69 JUMP JUMPDEST POP PUSH1 0x0 JUMPDEST DUP9 MLOAD DUP2 LT ISZERO PUSH2 0xB6B JUMPI PUSH1 0x1 PUSH1 0x10 PUSH1 0x0 PUSH1 0x9 SLOAD DUP2 MSTORE PUSH1 0x20 ADD SWAP1 DUP2 MSTORE PUSH1 0x20 ADD PUSH1 0x0 KECCAK256 PUSH1 0x7 DUP4 DUP2 SLOAD DUP2 LT PUSH2 0xB1B JUMPI PUSH4 0x4E487B71 PUSH1 0xE0 SHL PUSH1 0x0 MSTORE PUSH1 0x32 PUSH1 0x4 MSTORE PUSH1 0x24 PUSH1 0x0 REVERT JUMPDEST SWAP1 PUSH1 0x0 MSTORE PUSH1 0x20 PUSH1 0x0 KECCAK256 SWAP1 PUSH1 0x3 MUL ADD PUSH1 0x1 ADD PUSH1 0x40 MLOAD PUSH2 0xB39 SWAP2 SWAP1 PUSH2 0x40BD JUMP JUMPDEST SWAP1 DUP2 MSTORE PUSH1 0x40 MLOAD SWAP1 DUP2 SWAP1 SUB PUSH1 0x20 ADD SWAP1 KECCAK256 DUP1 SLOAD SWAP2 ISZERO ISZERO PUSH1 0xFF NOT SWAP1 SWAP3 AND SWAP2 SWAP1 SWAP2 OR SWAP1 SSTORE DUP1 PUSH2 0xB63 DUP2 PUSH2 0x47D5 JUMP JUMPDEST SWAP2 POP POP PUSH2 0xADA JUMP JUMPDEST POP PUSH1 0x9 SLOAD PUSH1 0x6 DUP1 SLOAD PUSH1 0x1 DUP2 ADD DUP3 SSTORE PUSH1 0x0 SWAP2 SWAP1 SWAP2 MSTORE PUSH32 0xF652222313E28459528D920B65115C16C04F3EFC82AAEDC97BE59F3F377C0D3F ADD DUP2 SWAP1 SSTORE PUSH1 0x40 MLOAD PUSH32 0x81719D68C2166BBD7ACC9DBF736B0E18879FE854894136678063BCBD90FA766C SWAP2 PUSH2 0xBD4 SWAP2 DUP15 SWAP1 PUSH2 0x4662 JUMP JUMPDEST PUSH1 0x40 MLOAD DUP1 SWAP2 SUB SWAP1 LOG1 PUSH1 0x9 DUP1 SLOAD SWAP1 PUSH1 0x0 PUSH2 0xBEC DUP4 PUSH2 0x47D5 JUMP JUMPDEST SWAP2 SWAP1 POP SSTORE POP PUSH1 0x1 PUSH1 0x9 SLOAD PUSH2 0xC00 SWAP2 SWAP1 PUSH2 0x46F5 JUMP JUMPDEST SWAP12 SWAP11 POP POP POP POP POP POP POP POP POP POP POP JUMP JUMPDEST PUSH1 0x0 DUP1 MLOAD PUSH1 0x20 PUSH2 0x4917 DUP4 CODECOPY DUP2 MLOAD SWAP2 MSTORE PUSH2 0xC28 DUP2 CALLER PUSH2 0x2A6C JUMP JUMPDEST PUSH2 0xC43 DUP5 DUP5 DUP5 PUSH1 0x40 MLOAD DUP1 PUSH1 0x20 ADD PUSH1 0x40 MSTORE DUP1 PUSH1 0x0 DUP2 MSTORE POP PUSH2 0x2AD0 JUMP JUMPDEST POP POP POP POP JUMP JUMPDEST PUSH1 0x0 SWAP1 DUP2 MSTORE PUSH1 0x4 PUSH1 0x20 MSTORE PUSH1 0x40 SWAP1 KECCAK256 PUSH1 0x1 ADD SLOAD SWAP1 JUMP JUMPDEST PUSH1 0x0 DUP3 DUP2 MSTORE PUSH1 0xE PUSH1 0x20 MSTORE PUSH1 0x40 SWAP1 KECCAK256 PUSH1 0xC DUP2 ADD SLOAD PUSH1 0x60 SWAP2 SWAP1 DUP4 PUSH1 0x1 PUSH1 0x1 PUSH1 0x40 SHL SUB DUP2 GT ISZERO PUSH2 0xC9B JUMPI PUSH4 0x4E487B71 PUSH1 0xE0 SHL PUSH1 0x0 MSTORE PUSH1 0x41 PUSH1 0x4 MSTORE PUSH1 0x24 PUSH1 0x0 REVERT JUMPDEST PUSH1 0x40 MLOAD SWAP1 DUP1 DUP3 MSTORE DUP1 PUSH1 0x20 MUL PUSH1 0x20 ADD DUP3 ADD PUSH1 0x40 MSTORE DUP1 ISZERO PUSH2 0xCC4 JUMPI DUP2 PUSH1 0x20 ADD PUSH1 0x20 DUP3 MUL DUP1 CALLDATASIZE DUP4 CALLDATACOPY ADD SWAP1 POP JUMPDEST POP SWAP3 POP PUSH1 0x0 JUMPDEST DUP5 DUP2 LT ISZERO PUSH2 0xD4B JUMPI PUSH1 0x0 DUP3 DUP2 MSTORE PUSH1 0xA PUSH1 0x20 MSTORE PUSH1 0x40 SWAP1 KECCAK256 PUSH1 0x2 ADD SLOAD DUP5 MLOAD PUSH1 0x1 PUSH1 0x1 PUSH1 0xA0 SHL SUB SWAP1 SWAP2 AND SWAP1 DUP6 SWAP1 DUP4 SWAP1 DUP2 LT PUSH2 0xD12 JUMPI PUSH4 0x4E487B71 PUSH1 0xE0 SHL PUSH1 0x0 MSTORE PUSH1 0x32 PUSH1 0x4 MSTORE PUSH1 0x24 PUSH1 0x0 REVERT JUMPDEST PUSH1 0x1 PUSH1 0x1 PUSH1 0xA0 SHL SUB SWAP1 SWAP3 AND PUSH1 0x20 SWAP3 DUP4 MUL SWAP2 SWAP1 SWAP2 ADD DUP3 ADD MSTORE PUSH1 0x0 SWAP3 DUP4 MSTORE PUSH1 0xA SWAP1 MSTORE PUSH1 0x40 SWAP1 SWAP2 KECCAK256 SLOAD SWAP1 DUP1 PUSH2 0xD43 DUP2 PUSH2 0x47D5 JUMP JUMPDEST SWAP2 POP POP PUSH2 0xCCA JUMP JUMPDEST POP POP POP SWAP3 SWAP2 POP POP JUMP JUMPDEST PUSH1 0x1 PUSH1 0x1 PUSH1 0xA0 SHL SUB DUP6 AND CALLER EQ DUP1 PUSH2 0xD70 JUMPI POP PUSH2 0xD70 DUP6 CALLER PUSH2 0x681 JUMP JUMPDEST PUSH2 0xDD7 JUMPI PUSH1 0x40 MLOAD PUSH3 0x461BCD PUSH1 0xE5 SHL DUP2 MSTORE PUSH1 0x20 PUSH1 0x4 DUP3 ADD MSTORE PUSH1 0x32 PUSH1 0x24 DUP3 ADD MSTORE PUSH32 0x455243313135353A207472616E736665722063616C6C6572206973206E6F7420 PUSH1 0x44 DUP3 ADD MSTORE PUSH18 0x1BDDDB995C881B9BDC88185C1C1C9BDD9959 PUSH1 0x72 SHL PUSH1 0x64 DUP3 ADD MSTORE PUSH1 0x84 ADD PUSH2 0x77B JUMP JUMPDEST PUSH2 0xDE4 DUP6 DUP6 DUP6 DUP6 DUP6 PUSH2 0x2BCE JUMP JUMPDEST POP POP POP POP POP JUMP JUMPDEST PUSH2 0xDF4 DUP3 PUSH2 0xC49 JUMP JUMPDEST PUSH2 0xDFE DUP2 CALLER PUSH2 0x2A6C JUMP JUMPDEST PUSH2 0xE08 DUP4 DUP4 PUSH2 0x2DD5 JUMP JUMPDEST POP POP POP JUMP JUMPDEST PUSH1 0x1 PUSH1 0x1 PUSH1 0xA0 SHL SUB DUP2 AND CALLER EQ PUSH2 0xE7D JUMPI PUSH1 0x40 MLOAD PUSH3 0x461BCD PUSH1 0xE5 SHL DUP2 MSTORE PUSH1 0x20 PUSH1 0x4 DUP3 ADD MSTORE PUSH1 0x2F PUSH1 0x24 DUP3 ADD MSTORE PUSH32 0x416363657373436F6E74726F6C3A2063616E206F6E6C792072656E6F756E6365 PUSH1 0x44 DUP3 ADD MSTORE PUSH15 0x103937B632B9903337B91039B2B633 PUSH1 0x89 SHL PUSH1 0x64 DUP3 ADD MSTORE PUSH1 0x84 ADD PUSH2 0x77B JUMP JUMPDEST PUSH2 0xE87 DUP3 DUP3 PUSH2 0x2E5B JUMP JUMPDEST POP POP JUMP JUMPDEST PUSH1 0x7 DUP2 DUP2 SLOAD DUP2 LT PUSH2 0xE9B JUMPI PUSH1 0x0 DUP1 REVERT JUMPDEST SWAP1 PUSH1 0x0 MSTORE PUSH1 0x20 PUSH1 0x0 KECCAK256 SWAP1 PUSH1 0x3 MUL ADD PUSH1 0x0 SWAP2 POP SWAP1 POP DUP1 PUSH1 0x0 ADD DUP1 SLOAD PUSH2 0xEBE SWAP1 PUSH2 0x474F JUMP JUMPDEST DUP1 PUSH1 0x1F ADD PUSH1 0x20 DUP1 SWAP2 DIV MUL PUSH1 0x20 ADD PUSH1 0x40 MLOAD SWAP1 DUP2 ADD PUSH1 0x40 MSTORE DUP1 SWAP3 SWAP2 SWAP1 DUP2 DUP2 MSTORE PUSH1 0x20 ADD DUP3 DUP1 SLOAD PUSH2 0xEEA SWAP1 PUSH2 0x474F JUMP JUMPDEST DUP1 ISZERO PUSH2 0xF37 JUMPI DUP1 PUSH1 0x1F LT PUSH2 0xF0C JUMPI PUSH2 0x100 DUP1 DUP4 SLOAD DIV MUL DUP4 MSTORE SWAP2 PUSH1 0x20 ADD SWAP2 PUSH2 0xF37 JUMP JUMPDEST DUP3 ADD SWAP2 SWAP1 PUSH1 0x0 MSTORE PUSH1 0x20 PUSH1 0x0 KECCAK256 SWAP1 JUMPDEST DUP2 SLOAD DUP2 MSTORE SWAP1 PUSH1 0x1 ADD SWAP1 PUSH1 0x20 ADD DUP1 DUP4 GT PUSH2 0xF1A JUMPI DUP3 SWAP1 SUB PUSH1 0x1F AND DUP3 ADD SWAP2 JUMPDEST POP POP POP POP POP SWAP1 DUP1 PUSH1 0x1 ADD DUP1 SLOAD PUSH2 0xF4C SWAP1 PUSH2 0x474F JUMP JUMPDEST DUP1 PUSH1 0x1F ADD PUSH1 0x20 DUP1 SWAP2 DIV MUL PUSH1 0x20 ADD PUSH1 0x40 MLOAD SWAP1 DUP2 ADD PUSH1 0x40 MSTORE DUP1 SWAP3 SWAP2 SWAP1 DUP2 DUP2 MSTORE PUSH1 0x20 ADD DUP3 DUP1 SLOAD PUSH2 0xF78 SWAP1 PUSH2 0x474F JUMP JUMPDEST DUP1 ISZERO PUSH2 0xFC5 JUMPI DUP1 PUSH1 0x1F LT PUSH2 0xF9A JUMPI PUSH2 0x100 DUP1 DUP4 SLOAD DIV MUL DUP4 MSTORE SWAP2 PUSH1 0x20 ADD SWAP2 PUSH2 0xFC5 JUMP JUMPDEST DUP3 ADD SWAP2 SWAP1 PUSH1 0x0 MSTORE PUSH1 0x20 PUSH1 0x0 KECCAK256 SWAP1 JUMPDEST DUP2 SLOAD DUP2 MSTORE SWAP1 PUSH1 0x1 ADD SWAP1 PUSH1 0x20 ADD DUP1 DUP4 GT PUSH2 0xFA8 JUMPI DUP3 SWAP1 SUB PUSH1 0x1F AND DUP3 ADD SWAP2 JUMPDEST POP POP POP PUSH1 0x2 SWAP1 SWAP4 ADD SLOAD SWAP2 SWAP3 POP POP PUSH1 0xFF AND DUP4 JUMP JUMPDEST PUSH1 0x0 DUP3 DUP2 MSTORE PUSH1 0xE PUSH1 0x20 MSTORE PUSH1 0x40 DUP2 KECCAK256 PUSH1 0xC DUP2 ADD SLOAD ISZERO DUP1 PUSH2 0x100D JUMPI POP PUSH1 0xC DUP2 ADD SLOAD PUSH1 0x0 SWAP1 DUP2 MSTORE PUSH1 0xA PUSH1 0x20 MSTORE PUSH1 0x40 SWAP1 KECCAK256 PUSH1 0x3 ADD SLOAD DUP4 LT ISZERO JUMPDEST ISZERO PUSH2 0x101C JUMPI POP PUSH1 0x0 SWAP1 POP PUSH2 0x10AA JUMP JUMPDEST PUSH1 0xD DUP2 ADD SLOAD PUSH1 0x0 SWAP1 DUP2 MSTORE PUSH1 0xA PUSH1 0x20 MSTORE PUSH1 0x40 SWAP1 KECCAK256 PUSH1 0x3 ADD SLOAD DUP4 LT ISZERO PUSH2 0x1045 JUMPI PUSH1 0xD ADD SLOAD SWAP1 POP PUSH2 0x10AA JUMP JUMPDEST PUSH1 0xC DUP2 ADD SLOAD PUSH1 0xD DUP3 ADD SLOAD JUMPDEST PUSH1 0x0 DUP3 DUP2 MSTORE PUSH1 0xA PUSH1 0x20 MSTORE PUSH1 0x40 SWAP1 KECCAK256 SLOAD DUP2 EQ PUSH2 0x10A0 JUMPI PUSH1 0x0 PUSH2 0x1072 DUP4 DUP4 DUP10 PUSH2 0x2756 JUMP JUMPDEST PUSH1 0x0 DUP2 DUP2 MSTORE PUSH1 0xA PUSH1 0x20 MSTORE PUSH1 0x40 SWAP1 KECCAK256 PUSH1 0x3 ADD SLOAD SWAP1 SWAP2 POP DUP7 GT ISZERO PUSH2 0x1096 JUMPI DUP1 SWAP2 POP PUSH2 0x109A JUMP JUMPDEST DUP1 SWAP3 POP JUMPDEST POP PUSH2 0x1050 JUMP JUMPDEST POP SWAP2 POP PUSH2 0x10AA SWAP1 POP JUMP JUMPDEST SWAP4 SWAP3 POP POP POP JUMP JUMPDEST PUSH1 0x60 DUP2 MLOAD DUP4 MLOAD EQ PUSH2 0x1116 JUMPI PUSH1 0x40 MLOAD PUSH3 0x461BCD PUSH1 0xE5 SHL DUP2 MSTORE PUSH1 0x20 PUSH1 0x4 DUP3 ADD MSTORE PUSH1 0x29 PUSH1 0x24 DUP3 ADD MSTORE PUSH32 0x455243313135353A206163636F756E747320616E6420696473206C656E677468 PUSH1 0x44 DUP3 ADD MSTORE PUSH9 0x40DAD2E6DAC2E8C6D PUSH1 0xBB SHL PUSH1 0x64 DUP3 ADD MSTORE PUSH1 0x84 ADD PUSH2 0x77B JUMP JUMPDEST PUSH1 0x0 DUP4 MLOAD PUSH1 0x1 PUSH1 0x1 PUSH1 0x40 SHL SUB DUP2 GT ISZERO PUSH2 0x113F JUMPI PUSH4 0x4E487B71 PUSH1 0xE0 SHL PUSH1 0x0 MSTORE PUSH1 0x41 PUSH1 0x4 MSTORE PUSH1 0x24 PUSH1 0x0 REVERT JUMPDEST PUSH1 0x40 MLOAD SWAP1 DUP1 DUP3 MSTORE DUP1 PUSH1 0x20 MUL PUSH1 0x20 ADD DUP3 ADD PUSH1 0x40 MSTORE DUP1 ISZERO PUSH2 0x1168 JUMPI DUP2 PUSH1 0x20 ADD PUSH1 0x20 DUP3 MUL DUP1 CALLDATASIZE DUP4 CALLDATACOPY ADD SWAP1 POP JUMPDEST POP SWAP1 POP PUSH1 0x0 JUMPDEST DUP5 MLOAD DUP2 LT ISZERO PUSH2 0x120A JUMPI PUSH2 0x11CF DUP6 DUP3 DUP2 MLOAD DUP2 LT PUSH2 0x119A JUMPI PUSH4 0x4E487B71 PUSH1 0xE0 SHL PUSH1 0x0 MSTORE PUSH1 0x32 PUSH1 0x4 MSTORE PUSH1 0x24 PUSH1 0x0 REVERT JUMPDEST PUSH1 0x20 MUL PUSH1 0x20 ADD ADD MLOAD DUP6 DUP4 DUP2 MLOAD DUP2 LT PUSH2 0x11C2 JUMPI PUSH4 0x4E487B71 PUSH1 0xE0 SHL PUSH1 0x0 MSTORE PUSH1 0x32 PUSH1 0x4 MSTORE PUSH1 0x24 PUSH1 0x0 REVERT JUMPDEST PUSH1 0x20 MUL PUSH1 0x20 ADD ADD MLOAD PUSH2 0x713 JUMP JUMPDEST DUP3 DUP3 DUP2 MLOAD DUP2 LT PUSH2 0x11EF JUMPI PUSH4 0x4E487B71 PUSH1 0xE0 SHL PUSH1 0x0 MSTORE PUSH1 0x32 PUSH1 0x4 MSTORE PUSH1 0x24 PUSH1 0x0 REVERT JUMPDEST PUSH1 0x20 SWAP1 DUP2 MUL SWAP2 SWAP1 SWAP2 ADD ADD MSTORE PUSH2 0x1203 DUP2 PUSH2 0x47D5 JUMP JUMPDEST SWAP1 POP PUSH2 0x116E JUMP JUMPDEST POP SWAP4 SWAP3 POP POP POP JUMP JUMPDEST PUSH1 0x6 DUP2 DUP2 SLOAD DUP2 LT PUSH2 0x1222 JUMPI PUSH1 0x0 DUP1 REVERT JUMPDEST PUSH1 0x0 SWAP2 DUP3 MSTORE PUSH1 0x20 SWAP1 SWAP2 KECCAK256 ADD SLOAD SWAP1 POP DUP2 JUMP JUMPDEST PUSH1 0x0 DUP2 DUP2 MSTORE PUSH1 0xE PUSH1 0x20 MSTORE PUSH1 0x40 SWAP1 KECCAK256 PUSH1 0x6 DUP2 ADD SLOAD PUSH1 0x2 DUP3 ADD SLOAD CALLER SWAP3 SWAP2 PUSH2 0x100 SWAP1 DIV PUSH1 0x1 PUSH1 0x1 PUSH1 0xA0 SHL SUB AND SWAP1 TIMESTAMP LT DUP1 ISZERO PUSH2 0x126E JUMPI POP DUP2 PUSH1 0x1 ADD SLOAD TIMESTAMP GT JUMPDEST PUSH2 0x12CE JUMPI PUSH1 0x40 MLOAD PUSH3 0x461BCD PUSH1 0xE5 SHL DUP2 MSTORE PUSH1 0x20 PUSH1 0x4 DUP3 ADD MSTORE PUSH1 0x2B PUSH1 0x24 DUP3 ADD MSTORE PUSH32 0x427579696E67207469636B657473206973206E6F7420616C6C6F776564206174 PUSH1 0x44 DUP3 ADD MSTORE PUSH11 0x81D1A19481B5BDB595B9D PUSH1 0xAA SHL PUSH1 0x64 DUP3 ADD MSTORE PUSH1 0x84 ADD PUSH2 0x77B JUMP JUMPDEST PUSH1 0x3 DUP3 ADD SLOAD PUSH1 0x40 MLOAD PUSH4 0x70A08231 PUSH1 0xE0 SHL DUP2 MSTORE PUSH1 0x1 PUSH1 0x1 PUSH1 0xA0 SHL SUB DUP4 AND SWAP1 PUSH4 0x70A08231 SWAP1 PUSH2 0x12FF SWAP1 DUP8 SWAP1 PUSH1 0x4 ADD PUSH2 0x41C7 JUMP JUMPDEST PUSH1 0x20 PUSH1 0x40 MLOAD DUP1 DUP4 SUB DUP2 DUP7 DUP1 EXTCODESIZE ISZERO DUP1 ISZERO PUSH2 0x1317 JUMPI PUSH1 0x0 DUP1 REVERT JUMPDEST POP GAS STATICCALL ISZERO DUP1 ISZERO PUSH2 0x132B JUMPI RETURNDATASIZE PUSH1 0x0 DUP1 RETURNDATACOPY RETURNDATASIZE PUSH1 0x0 REVERT JUMPDEST POP POP POP POP PUSH1 0x40 MLOAD RETURNDATASIZE PUSH1 0x1F NOT PUSH1 0x1F DUP3 ADD AND DUP3 ADD DUP1 PUSH1 0x40 MSTORE POP DUP2 ADD SWAP1 PUSH2 0x134F SWAP2 SWAP1 PUSH2 0x3F6E JUMP JUMPDEST LT ISZERO PUSH2 0x139B JUMPI PUSH1 0x40 MLOAD PUSH3 0x461BCD PUSH1 0xE5 SHL DUP2 MSTORE PUSH1 0x20 PUSH1 0x4 DUP3 ADD MSTORE PUSH1 0x1B PUSH1 0x24 DUP3 ADD MSTORE PUSH27 0x496E73756666696369656E742062616C616E636520746F20627579 PUSH1 0x28 SHL PUSH1 0x44 DUP3 ADD MSTORE PUSH1 0x64 ADD PUSH2 0x77B JUMP JUMPDEST PUSH1 0x5 SLOAD PUSH1 0x3 DUP4 ADD SLOAD PUSH1 0x40 MLOAD PUSH4 0x23B872DD PUSH1 0xE0 SHL DUP2 MSTORE PUSH1 0x1 PUSH1 0x1 PUSH1 0xA0 SHL SUB DUP7 DUP2 AND PUSH1 0x4 DUP4 ADD MSTORE SWAP3 DUP4 AND PUSH1 0x24 DUP3 ADD MSTORE PUSH1 0x44 DUP2 ADD SWAP2 SWAP1 SWAP2 MSTORE SWAP1 DUP3 AND SWAP1 PUSH4 0x23B872DD SWAP1 PUSH1 0x64 ADD PUSH1 0x20 PUSH1 0x40 MLOAD DUP1 DUP4 SUB DUP2 PUSH1 0x0 DUP8 DUP1 EXTCODESIZE ISZERO DUP1 ISZERO PUSH2 0x13F7 JUMPI PUSH1 0x0 DUP1 REVERT JUMPDEST POP GAS CALL ISZERO DUP1 ISZERO PUSH2 0x140B JUMPI RETURNDATASIZE PUSH1 0x0 DUP1 RETURNDATACOPY RETURNDATASIZE PUSH1 0x0 REVERT JUMPDEST POP POP POP POP PUSH1 0x40 MLOAD RETURNDATASIZE PUSH1 0x1F NOT PUSH1 0x1F DUP3 ADD AND DUP3 ADD DUP1 PUSH1 0x40 MSTORE POP DUP2 ADD SWAP1 PUSH2 0x142F SWAP2 SWAP1 PUSH2 0x3C8C JUMP JUMPDEST POP PUSH1 0x0 DUP5 DUP2 MSTORE PUSH1 0xC PUSH1 0x20 SWAP1 DUP2 MSTORE PUSH1 0x40 DUP1 DUP4 KECCAK256 PUSH1 0x1 PUSH1 0x1 PUSH1 0xA0 SHL SUB DUP8 AND DUP5 MSTORE SWAP1 SWAP2 MSTORE SWAP1 KECCAK256 SLOAD PUSH1 0xFF AND PUSH2 0x149D JUMPI PUSH1 0x0 DUP5 DUP2 MSTORE PUSH1 0xC PUSH1 0x20 SWAP1 DUP2 MSTORE PUSH1 0x40 DUP1 DUP4 KECCAK256 PUSH1 0x1 PUSH1 0x1 PUSH1 0xA0 SHL SUB DUP8 AND DUP5 MSTORE SWAP1 SWAP2 MSTORE DUP2 KECCAK256 DUP1 SLOAD PUSH1 0xFF NOT AND PUSH1 0x1 OR SWAP1 SSTORE PUSH1 0xE DUP4 ADD DUP1 SLOAD SWAP2 PUSH2 0x1497 DUP4 PUSH2 0x47D5 JUMP JUMPDEST SWAP2 SWAP1 POP SSTORE POP JUMPDEST PUSH1 0x0 DUP5 DUP2 MSTORE PUSH1 0xD PUSH1 0x20 SWAP1 DUP2 MSTORE PUSH1 0x40 DUP1 DUP4 KECCAK256 PUSH1 0x1 PUSH1 0x1 PUSH1 0xA0 SHL SUB DUP8 AND DUP5 MSTORE SWAP1 SWAP2 MSTORE DUP2 KECCAK256 DUP1 SLOAD SWAP2 PUSH2 0x14CB DUP4 PUSH2 0x47D5 JUMP JUMPDEST SWAP2 SWAP1 POP SSTORE POP PUSH2 0x14EF DUP4 DUP6 DUP5 PUSH1 0x7 ADD SLOAD PUSH1 0x40 MLOAD DUP1 PUSH1 0x20 ADD PUSH1 0x40 MSTORE DUP1 PUSH1 0x0 DUP2 MSTORE POP PUSH2 0x2AD0 JUMP JUMPDEST PUSH32 0x2A3164428CBA5DAD15F5FFE47E10CBEFDCBBE9E269FD482753982EE8B2648C3E DUP4 DUP6 PUSH1 0x40 MLOAD PUSH2 0x1520 SWAP3 SWAP2 SWAP1 PUSH2 0x427E JUMP JUMPDEST PUSH1 0x40 MLOAD DUP1 SWAP2 SUB SWAP1 LOG1 POP POP POP POP JUMP JUMPDEST CALLER PUSH2 0x1537 PUSH2 0x19D9 JUMP JUMPDEST PUSH1 0x1 PUSH1 0x1 PUSH1 0xA0 SHL SUB AND EQ PUSH2 0x155D JUMPI PUSH1 0x40 MLOAD PUSH3 0x461BCD PUSH1 0xE5 SHL DUP2 MSTORE PUSH1 0x4 ADD PUSH2 0x77B SWAP1 PUSH2 0x462D JUMP JUMPDEST PUSH2 0x1567 PUSH1 0x0 PUSH2 0x2EC2 JUMP JUMPDEST JUMP JUMPDEST PUSH1 0xE PUSH1 0x20 MSTORE PUSH1 0x0 SWAP1 DUP2 MSTORE PUSH1 0x40 SWAP1 KECCAK256 DUP1 SLOAD DUP2 SWAP1 PUSH2 0x1584 SWAP1 PUSH2 0x474F JUMP JUMPDEST DUP1 PUSH1 0x1F ADD PUSH1 0x20 DUP1 SWAP2 DIV MUL PUSH1 0x20 ADD PUSH1 0x40 MLOAD SWAP1 DUP2 ADD PUSH1 0x40 MSTORE DUP1 SWAP3 SWAP2 SWAP1 DUP2 DUP2 MSTORE PUSH1 0x20 ADD DUP3 DUP1 SLOAD PUSH2 0x15B0 SWAP1 PUSH2 0x474F JUMP JUMPDEST DUP1 ISZERO PUSH2 0x15FD JUMPI DUP1 PUSH1 0x1F LT PUSH2 0x15D2 JUMPI PUSH2 0x100 DUP1 DUP4 SLOAD DIV MUL DUP4 MSTORE SWAP2 PUSH1 0x20 ADD SWAP2 PUSH2 0x15FD JUMP JUMPDEST DUP3 ADD SWAP2 SWAP1 PUSH1 0x0 MSTORE PUSH1 0x20 PUSH1 0x0 KECCAK256 SWAP1 JUMPDEST DUP2 SLOAD DUP2 MSTORE SWAP1 PUSH1 0x1 ADD SWAP1 PUSH1 0x20 ADD DUP1 DUP4 GT PUSH2 0x15E0 JUMPI DUP3 SWAP1 SUB PUSH1 0x1F AND DUP3 ADD SWAP2 JUMPDEST POP POP POP POP POP SWAP1 DUP1 PUSH1 0x1 ADD SLOAD SWAP1 DUP1 PUSH1 0x2 ADD SLOAD SWAP1 DUP1 PUSH1 0x3 ADD SLOAD SWAP1 DUP1 PUSH1 0x4 ADD PUSH1 0x40 MLOAD DUP1 PUSH1 0x80 ADD PUSH1 0x40 MSTORE SWAP1 DUP2 PUSH1 0x0 DUP3 ADD DUP1 SLOAD PUSH2 0x1634 SWAP1 PUSH2 0x474F JUMP JUMPDEST DUP1 PUSH1 0x1F ADD PUSH1 0x20 DUP1 SWAP2 DIV MUL PUSH1 0x20 ADD PUSH1 0x40 MLOAD SWAP1 DUP2 ADD PUSH1 0x40 MSTORE DUP1 SWAP3 SWAP2 SWAP1 DUP2 DUP2 MSTORE PUSH1 0x20 ADD DUP3 DUP1 SLOAD PUSH2 0x1660 SWAP1 PUSH2 0x474F JUMP JUMPDEST DUP1 ISZERO PUSH2 0x16AD JUMPI DUP1 PUSH1 0x1F LT PUSH2 0x1682 JUMPI PUSH2 0x100 DUP1 DUP4 SLOAD DIV MUL DUP4 MSTORE SWAP2 PUSH1 0x20 ADD SWAP2 PUSH2 0x16AD JUMP JUMPDEST DUP3 ADD SWAP2 SWAP1 PUSH1 0x0 MSTORE PUSH1 0x20 PUSH1 0x0 KECCAK256 SWAP1 JUMPDEST DUP2 SLOAD DUP2 MSTORE SWAP1 PUSH1 0x1 ADD SWAP1 PUSH1 0x20 ADD DUP1 DUP4 GT PUSH2 0x1690 JUMPI DUP3 SWAP1 SUB PUSH1 0x1F AND DUP3 ADD SWAP2 JUMPDEST POP POP POP POP POP DUP2 MSTORE PUSH1 0x20 ADD PUSH1 0x1 DUP3 ADD DUP1 SLOAD PUSH2 0x16C6 SWAP1 PUSH2 0x474F JUMP JUMPDEST DUP1 PUSH1 0x1F ADD PUSH1 0x20 DUP1 SWAP2 DIV MUL PUSH1 0x20 ADD PUSH1 0x40 MLOAD SWAP1 DUP2 ADD PUSH1 0x40 MSTORE DUP1 SWAP3 SWAP2 SWAP1 DUP2 DUP2 MSTORE PUSH1 0x20 ADD DUP3 DUP1 SLOAD PUSH2 0x16F2 SWAP1 PUSH2 0x474F JUMP JUMPDEST DUP1 ISZERO PUSH2 0x173F JUMPI DUP1 PUSH1 0x1F LT PUSH2 0x1714 JUMPI PUSH2 0x100 DUP1 DUP4 SLOAD DIV MUL DUP4 MSTORE SWAP2 PUSH1 0x20 ADD SWAP2 PUSH2 0x173F JUMP JUMPDEST DUP3 ADD SWAP2 SWAP1 PUSH1 0x0 MSTORE PUSH1 0x20 PUSH1 0x0 KECCAK256 SWAP1 JUMPDEST DUP2 SLOAD DUP2 MSTORE SWAP1 PUSH1 0x1 ADD SWAP1 PUSH1 0x20 ADD DUP1 DUP4 GT PUSH2 0x1722 JUMPI DUP3 SWAP1 SUB PUSH1 0x1F AND DUP3 ADD SWAP2 JUMPDEST POP POP POP SWAP2 DUP4 MSTORE POP POP PUSH1 0x2 SWAP2 SWAP1 SWAP2 ADD SLOAD PUSH1 0xFF DUP2 AND PUSH1 0x20 DUP4 ADD MSTORE PUSH2 0x100 SWAP1 DIV PUSH1 0x1 PUSH1 0x1 PUSH1 0xA0 SHL SUB AND PUSH1 0x40 SWAP2 DUP3 ADD MSTORE PUSH1 0x7 DUP4 ADD SLOAD DUP2 MLOAD PUSH1 0x80 DUP2 ADD SWAP1 SWAP3 MSTORE PUSH1 0x8 DUP5 ADD DUP1 SLOAD SWAP4 SWAP5 SWAP2 SWAP4 SWAP2 SWAP3 SWAP2 DUP3 SWAP1 DUP3 SWAP1 PUSH2 0x1793 SWAP1 PUSH2 0x474F JUMP JUMPDEST DUP1 PUSH1 0x1F ADD PUSH1 0x20 DUP1 SWAP2 DIV MUL PUSH1 0x20 ADD PUSH1 0x40 MLOAD SWAP1 DUP2 ADD PUSH1 0x40 MSTORE DUP1 SWAP3 SWAP2 SWAP1 DUP2 DUP2 MSTORE PUSH1 0x20 ADD DUP3 DUP1 SLOAD PUSH2 0x17BF SWAP1 PUSH2 0x474F JUMP JUMPDEST DUP1 ISZERO PUSH2 0x180C JUMPI DUP1 PUSH1 0x1F LT PUSH2 0x17E1 JUMPI PUSH2 0x100 DUP1 DUP4 SLOAD DIV MUL DUP4 MSTORE SWAP2 PUSH1 0x20 ADD SWAP2 PUSH2 0x180C JUMP JUMPDEST DUP3 ADD SWAP2 SWAP1 PUSH1 0x0 MSTORE PUSH1 0x20 PUSH1 0x0 KECCAK256 SWAP1 JUMPDEST DUP2 SLOAD DUP2 MSTORE SWAP1 PUSH1 0x1 ADD SWAP1 PUSH1 0x20 ADD DUP1 DUP4 GT PUSH2 0x17EF JUMPI DUP3 SWAP1 SUB PUSH1 0x1F AND DUP3 ADD SWAP2 JUMPDEST POP POP POP POP POP DUP2 MSTORE PUSH1 0x20 ADD PUSH1 0x1 DUP3 ADD DUP1 SLOAD PUSH2 0x1825 SWAP1 PUSH2 0x474F JUMP JUMPDEST DUP1 PUSH1 0x1F ADD PUSH1 0x20 DUP1 SWAP2 DIV MUL PUSH1 0x20 ADD PUSH1 0x40 MLOAD SWAP1 DUP2 ADD PUSH1 0x40 MSTORE DUP1 SWAP3 SWAP2 SWAP1 DUP2 DUP2 MSTORE PUSH1 0x20 ADD DUP3 DUP1 SLOAD PUSH2 0x1851 SWAP1 PUSH2 0x474F JUMP JUMPDEST DUP1 ISZERO PUSH2 0x189E JUMPI DUP1 PUSH1 0x1F LT PUSH2 0x1873 JUMPI PUSH2 0x100 DUP1 DUP4 SLOAD DIV MUL DUP4 MSTORE SWAP2 PUSH1 0x20 ADD SWAP2 PUSH2 0x189E JUMP JUMPDEST DUP3 ADD SWAP2 SWAP1 PUSH1 0x0 MSTORE PUSH1 0x20 PUSH1 0x0 KECCAK256 SWAP1 JUMPDEST DUP2 SLOAD DUP2 MSTORE SWAP1 PUSH1 0x1 ADD SWAP1 PUSH1 0x20 ADD DUP1 DUP4 GT PUSH2 0x1881 JUMPI DUP3 SWAP1 SUB PUSH1 0x1F AND DUP3 ADD SWAP2 JUMPDEST POP POP POP SWAP2 DUP4 MSTORE POP POP PUSH1 0x2 SWAP2 SWAP1 SWAP2 ADD SLOAD PUSH1 0xFF DUP1 DUP3 AND PUSH1 0x20 DUP5 ADD MSTORE PUSH2 0x100 SWAP1 SWAP2 DIV PUSH1 0x1 PUSH1 0x1 PUSH1 0xA0 SHL SUB AND PUSH1 0x40 SWAP1 SWAP3 ADD SWAP2 SWAP1 SWAP2 MSTORE PUSH1 0xB DUP4 ADD SLOAD PUSH1 0xC DUP5 ADD SLOAD PUSH1 0xD DUP6 ADD SLOAD PUSH1 0xE SWAP1 SWAP6 ADD SLOAD SWAP4 SWAP5 SWAP2 SWAP1 SWAP3 AND SWAP3 DUP12 JUMP JUMPDEST CALLER PUSH2 0x18F7 PUSH2 0x19D9 JUMP JUMPDEST PUSH1 0x1 PUSH1 0x1 PUSH1 0xA0 SHL SUB AND EQ PUSH2 0x191D JUMPI PUSH1 0x40 MLOAD PUSH3 0x461BCD PUSH1 0xE5 SHL DUP2 MSTORE PUSH1 0x4 ADD PUSH2 0x77B SWAP1 PUSH2 0x462D JUMP JUMPDEST PUSH1 0x7 DUP1 SLOAD PUSH1 0x1 DUP2 ADD DUP3 SSTORE PUSH1 0x0 SWAP2 SWAP1 SWAP2 MSTORE DUP2 MLOAD DUP1 MLOAD DUP4 SWAP3 PUSH1 0x3 MUL PUSH32 0xA66CC928B5EDB82AF9BD49922954155AB7B0942694BEA4CE44661D9A8736C688 ADD SWAP2 PUSH2 0x1968 SWAP2 DUP4 SWAP2 PUSH1 0x20 ADD SWAP1 PUSH2 0x36F1 JUMP JUMPDEST POP PUSH1 0x20 DUP3 DUP2 ADD MLOAD DUP1 MLOAD PUSH2 0x1981 SWAP3 PUSH1 0x1 DUP6 ADD SWAP3 ADD SWAP1 PUSH2 0x36F1 JUMP JUMPDEST POP PUSH1 0x40 SWAP2 DUP3 ADD MLOAD PUSH1 0x2 SWAP2 SWAP1 SWAP2 ADD DUP1 SLOAD PUSH1 0xFF NOT AND PUSH1 0xFF SWAP1 SWAP3 AND SWAP2 SWAP1 SWAP2 OR SWAP1 SSTORE DUP2 MLOAD SWAP1 MLOAD PUSH32 0x9F856BDC9B643919569BAEE5B9F5540AC9ED4BB5B9EFBB6278C2DDC85961E5D5 SWAP2 PUSH2 0x19CE SWAP2 PUSH2 0x443E JUMP JUMPDEST PUSH1 0x40 MLOAD DUP1 SWAP2 SUB SWAP1 LOG1 POP JUMP JUMPDEST PUSH1 0x3 SLOAD PUSH1 0x1 PUSH1 0x1 PUSH1 0xA0 SHL SUB AND SWAP1 JUMP JUMPDEST PUSH1 0x0 DUP2 DUP2 MSTORE PUSH1 0xE PUSH1 0x20 MSTORE PUSH1 0x40 DUP2 KECCAK256 PUSH1 0xC DUP2 ADD SLOAD DUP3 JUMPDEST PUSH1 0x3 DUP2 LT ISZERO PUSH2 0xD4B JUMPI PUSH1 0x0 DUP3 DUP2 MSTORE PUSH1 0xA PUSH1 0x20 MSTORE PUSH1 0x40 SWAP1 KECCAK256 PUSH1 0x2 ADD SLOAD PUSH1 0x1 PUSH1 0x1 PUSH1 0xA0 SHL SUB DUP8 DUP2 AND SWAP2 AND EQ ISZERO PUSH2 0x1A6B JUMPI PUSH1 0x0 DUP6 DUP2 MSTORE PUSH1 0xF PUSH1 0x20 MSTORE PUSH1 0x40 SWAP1 KECCAK256 DUP1 SLOAD DUP3 SWAP1 DUP2 LT PUSH2 0x1A59 JUMPI PUSH4 0x4E487B71 PUSH1 0xE0 SHL PUSH1 0x0 MSTORE PUSH1 0x32 PUSH1 0x4 MSTORE PUSH1 0x24 PUSH1 0x0 REVERT JUMPDEST SWAP1 PUSH1 0x0 MSTORE PUSH1 0x20 PUSH1 0x0 KECCAK256 ADD SLOAD SWAP4 POP PUSH2 0xD4B JUMP JUMPDEST PUSH1 0x0 SWAP2 DUP3 MSTORE PUSH1 0xA PUSH1 0x20 MSTORE PUSH1 0x40 SWAP1 SWAP2 KECCAK256 SLOAD SWAP1 DUP1 PUSH2 0x1A86 DUP2 PUSH2 0x47D5 JUMP JUMPDEST SWAP2 POP POP PUSH2 0x19FD JUMP JUMPDEST PUSH1 0x0 SWAP2 DUP3 MSTORE PUSH1 0x4 PUSH1 0x20 SWAP1 DUP2 MSTORE PUSH1 0x40 DUP1 DUP5 KECCAK256 PUSH1 0x1 PUSH1 0x1 PUSH1 0xA0 SHL SUB SWAP4 SWAP1 SWAP4 AND DUP5 MSTORE SWAP2 SWAP1 MSTORE SWAP1 KECCAK256 SLOAD PUSH1 0xFF AND SWAP1 JUMP JUMPDEST PUSH1 0x0 DUP2 DUP2 MSTORE PUSH1 0xE PUSH1 0x20 SWAP1 DUP2 MSTORE PUSH1 0x40 DUP1 DUP4 KECCAK256 PUSH1 0x7 DUP2 ADD SLOAD PUSH1 0xD DUP5 MSTORE DUP3 DUP6 KECCAK256 PUSH1 0x1 PUSH1 0x1 PUSH1 0xA0 SHL SUB DUP9 AND DUP7 MSTORE SWAP1 SWAP4 MSTORE SWAP1 DUP4 KECCAK256 SLOAD SWAP1 SWAP2 DUP4 SWAP2 PUSH2 0x1AF7 SWAP2 SWAP1 PUSH2 0x46D6 JUMP JUMPDEST SWAP1 POP DUP1 DUP2 PUSH2 0x1B05 DUP8 DUP8 PUSH2 0x713 JUMP JUMPDEST GT PUSH2 0x1B11 JUMPI PUSH1 0x0 PUSH2 0x1B26 JUMP JUMPDEST DUP2 PUSH2 0x1B1C DUP8 DUP8 PUSH2 0x713 JUMP JUMPDEST PUSH2 0x1B26 SWAP2 SWAP1 PUSH2 0x46F5 JUMP JUMPDEST PUSH2 0x1B33 SWAP1 PUSH3 0x186A0 PUSH2 0x46D6 JUMP JUMPDEST PUSH2 0x1B3D SWAP2 SWAP1 PUSH2 0x46B6 JUMP JUMPDEST SWAP6 SWAP5 POP POP POP POP POP JUMP JUMPDEST CALLER PUSH1 0x1 PUSH1 0x1 PUSH1 0xA0 SHL SUB DUP4 AND EQ ISZERO PUSH2 0x1BB1 JUMPI PUSH1 0x40 MLOAD PUSH3 0x461BCD PUSH1 0xE5 SHL DUP2 MSTORE PUSH1 0x20 PUSH1 0x4 DUP3 ADD MSTORE PUSH1 0x29 PUSH1 0x24 DUP3 ADD MSTORE PUSH32 0x455243313135353A2073657474696E6720617070726F76616C20737461747573 PUSH1 0x44 DUP3 ADD MSTORE PUSH9 0x103337B91039B2B633 PUSH1 0xB9 SHL PUSH1 0x64 DUP3 ADD MSTORE PUSH1 0x84 ADD PUSH2 0x77B JUMP JUMPDEST CALLER PUSH1 0x0 DUP2 DUP2 MSTORE PUSH1 0x1 PUSH1 0x20 SWAP1 DUP2 MSTORE PUSH1 0x40 DUP1 DUP4 KECCAK256 PUSH1 0x1 PUSH1 0x1 PUSH1 0xA0 SHL SUB DUP8 AND DUP1 DUP6 MSTORE SWAP1 DUP4 MSTORE SWAP3 DUP2 SWAP1 KECCAK256 DUP1 SLOAD PUSH1 0xFF NOT AND DUP7 ISZERO ISZERO SWAP1 DUP2 OR SWAP1 SWAP2 SSTORE SWAP1 MLOAD SWAP1 DUP2 MSTORE SWAP2 SWAP3 SWAP2 PUSH32 0x17307EAB39AB6107E8899845AD3D59BD9653F200F220920489CA2B5937696C31 SWAP2 ADD PUSH1 0x40 MLOAD DUP1 SWAP2 SUB SWAP1 LOG3 POP POP JUMP JUMPDEST PUSH1 0x0 DUP2 DUP2 MSTORE PUSH1 0xE PUSH1 0x20 MSTORE PUSH1 0x40 DUP2 KECCAK256 PUSH1 0x2 DUP2 ADD SLOAD TIMESTAMP LT ISZERO PUSH2 0x1C92 JUMPI PUSH1 0x40 MLOAD PUSH3 0x461BCD PUSH1 0xE5 SHL DUP2 MSTORE PUSH1 0x20 PUSH1 0x4 DUP3 ADD MSTORE PUSH1 0x2A PUSH1 0x24 DUP3 ADD MSTORE PUSH32 0x43616E277420636C61696D2072657761726473206265666F726520746F75726E PUSH1 0x44 DUP3 ADD MSTORE PUSH10 0x616D656E7420656E6473 PUSH1 0xB0 SHL PUSH1 0x64 DUP3 ADD MSTORE PUSH1 0x84 ADD PUSH2 0x77B JUMP JUMPDEST CALLER PUSH2 0x1C9D DUP2 DUP6 PUSH2 0x19E8 JUMP JUMPDEST SWAP3 POP DUP3 ISZERO PUSH2 0x1E4E JUMPI PUSH1 0xA DUP3 ADD SLOAD PUSH1 0x40 MLOAD PUSH4 0x70A08231 PUSH1 0xE0 SHL DUP2 MSTORE PUSH2 0x100 SWAP1 SWAP2 DIV PUSH1 0x1 PUSH1 0x1 PUSH1 0xA0 SHL SUB AND SWAP1 DUP5 SWAP1 DUP3 SWAP1 PUSH4 0x70A08231 SWAP1 PUSH2 0x1CDF SWAP1 ADDRESS SWAP1 PUSH1 0x4 ADD PUSH2 0x41C7 JUMP JUMPDEST PUSH1 0x20 PUSH1 0x40 MLOAD DUP1 DUP4 SUB DUP2 DUP7 DUP1 EXTCODESIZE ISZERO DUP1 ISZERO PUSH2 0x1CF7 JUMPI PUSH1 0x0 DUP1 REVERT JUMPDEST POP GAS STATICCALL ISZERO DUP1 ISZERO PUSH2 0x1D0B JUMPI RETURNDATASIZE PUSH1 0x0 DUP1 RETURNDATACOPY RETURNDATASIZE PUSH1 0x0 REVERT JUMPDEST POP POP POP POP PUSH1 0x40 MLOAD RETURNDATASIZE PUSH1 0x1F NOT PUSH1 0x1F DUP3 ADD AND DUP3 ADD DUP1 PUSH1 0x40 MSTORE POP DUP2 ADD SWAP1 PUSH2 0x1D2F SWAP2 SWAP1 PUSH2 0x3F6E JUMP JUMPDEST LT ISZERO PUSH2 0x1D90 JUMPI PUSH1 0x40 MLOAD PUSH3 0x461BCD PUSH1 0xE5 SHL DUP2 MSTORE PUSH1 0x20 PUSH1 0x4 DUP3 ADD MSTORE PUSH1 0x2A PUSH1 0x24 DUP3 ADD MSTORE PUSH32 0x496E73756666696369656E742062616C616E636520746F206469737472696275 PUSH1 0x44 DUP3 ADD MSTORE PUSH10 0x74652072657761726473 PUSH1 0xB0 SHL PUSH1 0x64 DUP3 ADD MSTORE PUSH1 0x84 ADD PUSH2 0x77B JUMP JUMPDEST PUSH1 0x40 MLOAD PUSH4 0xA9059CBB PUSH1 0xE0 SHL DUP2 MSTORE PUSH1 0x1 PUSH1 0x1 PUSH1 0xA0 SHL SUB DUP3 AND SWAP1 PUSH4 0xA9059CBB SWAP1 PUSH2 0x1DBE SWAP1 DUP6 SWAP1 DUP9 SWAP1 PUSH1 0x4 ADD PUSH2 0x427E JUMP JUMPDEST PUSH1 0x20 PUSH1 0x40 MLOAD DUP1 DUP4 SUB DUP2 PUSH1 0x0 DUP8 DUP1 EXTCODESIZE ISZERO DUP1 ISZERO PUSH2 0x1DD8 JUMPI PUSH1 0x0 DUP1 REVERT JUMPDEST POP GAS CALL ISZERO DUP1 ISZERO PUSH2 0x1DEC JUMPI RETURNDATASIZE PUSH1 0x0 DUP1 RETURNDATACOPY RETURNDATASIZE PUSH1 0x0 REVERT JUMPDEST POP POP POP POP PUSH1 0x40 MLOAD RETURNDATASIZE PUSH1 0x1F NOT PUSH1 0x1F DUP3 ADD AND DUP3 ADD DUP1 PUSH1 0x40 MSTORE POP DUP2 ADD SWAP1 PUSH2 0x1E10 SWAP2 SWAP1 PUSH2 0x3C8C JUMP JUMPDEST POP PUSH32 0xE74E5C9D4AC1FC33412485F18C159A0A391EFE287AB3FD271123F30E6BACF4E3 DUP3 DUP7 DUP7 PUSH1 0x40 MLOAD PUSH2 0x1E44 SWAP4 SWAP3 SWAP2 SWAP1 PUSH2 0x4297 JUMP JUMPDEST PUSH1 0x40 MLOAD DUP1 SWAP2 SUB SWAP1 LOG1 POP JUMPDEST POP POP SWAP2 SWAP1 POP JUMP JUMPDEST PUSH1 0x0 DUP1 MLOAD PUSH1 0x20 PUSH2 0x4917 DUP4 CODECOPY DUP2 MLOAD SWAP2 MSTORE PUSH2 0x1E6E DUP2 CALLER PUSH2 0x2A6C JUMP JUMPDEST PUSH1 0x0 DUP3 DUP2 MSTORE PUSH1 0xE PUSH1 0x20 MSTORE PUSH1 0x40 DUP2 KECCAK256 SWAP1 PUSH2 0x1E87 DUP6 DUP6 PUSH2 0x1AB9 JUMP JUMPDEST SWAP1 POP PUSH1 0x0 DUP6 DUP6 PUSH1 0x40 MLOAD PUSH1 0x20 ADD PUSH2 0x1E9E SWAP3 SWAP2 SWAP1 PUSH2 0x427E JUMP JUMPDEST PUSH1 0x40 DUP1 MLOAD DUP1 DUP4 SUB PUSH1 0x1F NOT ADD DUP2 MSTORE SWAP2 DUP2 MSTORE DUP2 MLOAD PUSH1 0x20 SWAP3 DUP4 ADD KECCAK256 PUSH1 0x0 DUP2 DUP2 MSTORE PUSH1 0xA SWAP1 SWAP4 MSTORE SWAP2 KECCAK256 PUSH1 0x4 ADD SLOAD SWAP1 SWAP2 POP PUSH2 0x100 SWAP1 DIV PUSH1 0xFF AND ISZERO PUSH2 0x1F58 JUMPI DUP1 DUP4 PUSH1 0xC ADD SLOAD EQ ISZERO PUSH2 0x1EFB JUMPI PUSH1 0x0 DUP2 DUP2 MSTORE PUSH1 0xA PUSH1 0x20 MSTORE PUSH1 0x40 SWAP1 KECCAK256 SLOAD PUSH1 0xC DUP5 ADD SSTORE PUSH2 0x1F58 JUMP JUMPDEST DUP1 DUP4 PUSH1 0xD ADD SLOAD EQ ISZERO PUSH2 0x1F2B JUMPI PUSH1 0x0 DUP2 DUP2 MSTORE PUSH1 0xA PUSH1 0x20 MSTORE PUSH1 0x40 DUP1 DUP3 KECCAK256 PUSH1 0x1 ADD SLOAD PUSH1 0xD DUP7 ADD DUP2 SWAP1 SSTORE DUP3 MSTORE DUP2 KECCAK256 SSTORE PUSH2 0x1F58 JUMP JUMPDEST PUSH1 0x0 DUP2 DUP2 MSTORE PUSH1 0xA PUSH1 0x20 MSTORE PUSH1 0x40 DUP1 DUP3 KECCAK256 DUP1 SLOAD PUSH1 0x1 SWAP2 DUP3 ADD DUP1 SLOAD DUP6 MSTORE DUP4 DUP6 KECCAK256 DUP3 SWAP1 SSTORE SLOAD SWAP1 DUP5 MSTORE SWAP2 SWAP1 SWAP3 KECCAK256 SWAP1 SWAP2 ADD SSTORE JUMPDEST PUSH1 0x0 PUSH2 0x1F65 DUP8 DUP8 DUP6 PUSH2 0xFD8 JUMP JUMPDEST PUSH1 0x40 DUP1 MLOAD PUSH1 0xC0 DUP2 ADD DUP3 MSTORE PUSH1 0x0 DUP1 DUP3 MSTORE PUSH1 0x20 DUP3 ADD DUP2 SWAP1 MSTORE SWAP2 DUP2 ADD DUP3 SWAP1 MSTORE PUSH1 0x60 DUP2 ADD DUP3 SWAP1 MSTORE PUSH1 0x80 DUP2 ADD DUP3 SWAP1 MSTORE PUSH1 0xA0 DUP2 ADD SWAP2 SWAP1 SWAP2 MSTORE SWAP1 SWAP2 POP DUP2 PUSH2 0x2029 JUMPI PUSH1 0xC DUP6 ADD SLOAD PUSH1 0x0 SWAP1 DUP2 MSTORE PUSH1 0xA PUSH1 0x20 MSTORE PUSH1 0x40 SWAP1 KECCAK256 PUSH1 0x4 ADD SLOAD PUSH2 0x100 SWAP1 DIV PUSH1 0xFF AND ISZERO PUSH2 0x1FDD JUMPI PUSH1 0xC DUP6 ADD SLOAD PUSH1 0x0 SWAP1 DUP2 MSTORE PUSH1 0xA PUSH1 0x20 MSTORE PUSH1 0x40 SWAP1 KECCAK256 PUSH1 0x1 ADD DUP4 SWAP1 SSTORE JUMPDEST POP PUSH1 0x40 DUP1 MLOAD PUSH1 0xC0 DUP2 ADD DUP3 MSTORE PUSH1 0xC DUP7 ADD DUP1 SLOAD DUP3 MSTORE PUSH1 0x0 PUSH1 0x20 DUP4 ADD DUP2 SWAP1 MSTORE PUSH1 0x1 PUSH1 0x1 PUSH1 0xA0 SHL SUB DUP12 AND SWAP4 DUP4 ADD SWAP4 SWAP1 SWAP4 MSTORE PUSH1 0x60 DUP3 ADD DUP7 SWAP1 MSTORE PUSH1 0x80 DUP3 ADD SWAP3 SWAP1 SWAP3 MSTORE PUSH1 0x1 PUSH1 0xA0 DUP3 ADD MSTORE SWAP1 DUP4 SWAP1 SSTORE PUSH2 0x2087 JUMP JUMPDEST POP PUSH1 0x0 DUP2 DUP2 MSTORE PUSH1 0xA PUSH1 0x20 DUP2 DUP2 MSTORE PUSH1 0x40 DUP1 DUP5 KECCAK256 DUP2 MLOAD PUSH1 0xC0 DUP2 ADD DUP4 MSTORE DUP2 SLOAD DUP1 DUP3 MSTORE DUP2 DUP6 ADD DUP9 SWAP1 MSTORE PUSH1 0x1 PUSH1 0x1 PUSH1 0xA0 SHL SUB DUP15 AND DUP3 DUP6 ADD MSTORE PUSH1 0x60 DUP3 ADD DUP11 SWAP1 MSTORE PUSH1 0x80 DUP3 ADD DUP8 SWAP1 MSTORE PUSH1 0x1 PUSH1 0xA0 DUP4 ADD DUP2 SWAP1 MSTORE SWAP1 DUP8 MSTORE SWAP5 SWAP1 SWAP4 MSTORE SWAP4 KECCAK256 SWAP1 SWAP2 ADD DUP5 SWAP1 SSTORE SWAP1 DUP4 SWAP1 SSTORE JUMPDEST DUP5 PUSH1 0xD ADD SLOAD DUP3 EQ ISZERO PUSH2 0x209B JUMPI PUSH1 0xD DUP6 ADD DUP4 SWAP1 SSTORE JUMPDEST PUSH1 0x0 DUP4 DUP2 MSTORE PUSH1 0xA PUSH1 0x20 SWAP1 DUP2 MSTORE PUSH1 0x40 SWAP2 DUP3 SWAP1 KECCAK256 DUP4 MLOAD DUP2 SSTORE SWAP1 DUP4 ADD MLOAD PUSH1 0x1 DUP3 ADD SSTORE DUP2 DUP4 ADD MLOAD PUSH1 0x2 DUP3 ADD DUP1 SLOAD PUSH1 0x1 PUSH1 0x1 PUSH1 0xA0 SHL SUB SWAP1 SWAP3 AND PUSH1 0x1 PUSH1 0x1 PUSH1 0xA0 SHL SUB NOT SWAP1 SWAP3 AND SWAP2 SWAP1 SWAP2 OR SWAP1 SSTORE PUSH1 0x60 DUP4 ADD MLOAD PUSH1 0x3 DUP3 ADD SSTORE PUSH1 0x80 DUP4 ADD MLOAD PUSH1 0x4 SWAP1 SWAP2 ADD DUP1 SLOAD PUSH1 0xA0 DUP6 ADD MLOAD ISZERO ISZERO PUSH2 0x100 MUL PUSH2 0xFF00 NOT SWAP4 ISZERO ISZERO SWAP4 SWAP1 SWAP4 AND PUSH2 0xFFFF NOT SWAP1 SWAP2 AND OR SWAP2 SWAP1 SWAP2 OR SWAP1 SSTORE MLOAD PUSH32 0xC4D4C8CFEFD58C54FCE8B36D22C9E2836645BCB6E04C41B52EAF34565C07AED9 SWAP1 PUSH2 0x214D SWAP1 DUP11 SWAP1 DUP11 SWAP1 DUP8 SWAP1 PUSH2 0x4297 JUMP JUMPDEST PUSH1 0x40 MLOAD DUP1 SWAP2 SUB SWAP1 LOG1 POP POP POP POP POP POP POP POP JUMP JUMPDEST PUSH1 0xF PUSH1 0x20 MSTORE DUP2 PUSH1 0x0 MSTORE PUSH1 0x40 PUSH1 0x0 KECCAK256 DUP2 DUP2 SLOAD DUP2 LT PUSH2 0x217B JUMPI PUSH1 0x0 DUP1 REVERT JUMPDEST SWAP1 PUSH1 0x0 MSTORE PUSH1 0x20 PUSH1 0x0 KECCAK256 ADD PUSH1 0x0 SWAP2 POP SWAP2 POP POP SLOAD DUP2 JUMP JUMPDEST PUSH1 0x60 DUP2 MLOAD PUSH1 0x1 PUSH1 0x1 PUSH1 0x40 SHL SUB DUP2 GT ISZERO PUSH2 0x21B9 JUMPI PUSH4 0x4E487B71 PUSH1 0xE0 SHL PUSH1 0x0 MSTORE PUSH1 0x41 PUSH1 0x4 MSTORE PUSH1 0x24 PUSH1 0x0 REVERT JUMPDEST PUSH1 0x40 MLOAD SWAP1 DUP1 DUP3 MSTORE DUP1 PUSH1 0x20 MUL PUSH1 0x20 ADD DUP3 ADD PUSH1 0x40 MSTORE DUP1 ISZERO PUSH2 0x21F2 JUMPI DUP2 PUSH1 0x20 ADD JUMPDEST PUSH2 0x21DF PUSH2 0x37F0 JUMP JUMPDEST DUP2 MSTORE PUSH1 0x20 ADD SWAP1 PUSH1 0x1 SWAP1 SUB SWAP1 DUP2 PUSH2 0x21D7 JUMPI SWAP1 POP JUMPDEST POP SWAP1 POP PUSH1 0x0 JUMPDEST DUP3 MLOAD DUP2 LT ISZERO PUSH2 0x2635 JUMPI PUSH1 0xE PUSH1 0x0 DUP5 DUP4 DUP2 MLOAD DUP2 LT PUSH2 0x2225 JUMPI PUSH4 0x4E487B71 PUSH1 0xE0 SHL PUSH1 0x0 MSTORE PUSH1 0x32 PUSH1 0x4 MSTORE PUSH1 0x24 PUSH1 0x0 REVERT JUMPDEST PUSH1 0x20 MUL PUSH1 0x20 ADD ADD MLOAD DUP2 MSTORE PUSH1 0x20 ADD SWAP1 DUP2 MSTORE PUSH1 0x20 ADD PUSH1 0x0 KECCAK256 PUSH1 0x40 MLOAD DUP1 PUSH2 0x160 ADD PUSH1 0x40 MSTORE SWAP1 DUP2 PUSH1 0x0 DUP3 ADD DUP1 SLOAD PUSH2 0x2257 SWAP1 PUSH2 0x474F JUMP JUMPDEST DUP1 PUSH1 0x1F ADD PUSH1 0x20 DUP1 SWAP2 DIV MUL PUSH1 0x20 ADD PUSH1 0x40 MLOAD SWAP1 DUP2 ADD PUSH1 0x40 MSTORE DUP1 SWAP3 SWAP2 SWAP1 DUP2 DUP2 MSTORE PUSH1 0x20 ADD DUP3 DUP1 SLOAD PUSH2 0x2283 SWAP1 PUSH2 0x474F JUMP JUMPDEST DUP1 ISZERO PUSH2 0x22D0 JUMPI DUP1 PUSH1 0x1F LT PUSH2 0x22A5 JUMPI PUSH2 0x100 DUP1 DUP4 SLOAD DIV MUL DUP4 MSTORE SWAP2 PUSH1 0x20 ADD SWAP2 PUSH2 0x22D0 JUMP JUMPDEST DUP3 ADD SWAP2 SWAP1 PUSH1 0x0 MSTORE PUSH1 0x20 PUSH1 0x0 KECCAK256 SWAP1 JUMPDEST DUP2 SLOAD DUP2 MSTORE SWAP1 PUSH1 0x1 ADD SWAP1 PUSH1 0x20 ADD DUP1 DUP4 GT PUSH2 0x22B3 JUMPI DUP3 SWAP1 SUB PUSH1 0x1F AND DUP3 ADD SWAP2 JUMPDEST POP POP POP POP POP DUP2 MSTORE PUSH1 0x20 ADD PUSH1 0x1 DUP3 ADD SLOAD DUP2 MSTORE PUSH1 0x20 ADD PUSH1 0x2 DUP3 ADD SLOAD DUP2 MSTORE PUSH1 0x20 ADD PUSH1 0x3 DUP3 ADD SLOAD DUP2 MSTORE PUSH1 0x20 ADD PUSH1 0x4 DUP3 ADD PUSH1 0x40 MLOAD DUP1 PUSH1 0x80 ADD PUSH1 0x40 MSTORE SWAP1 DUP2 PUSH1 0x0 DUP3 ADD DUP1 SLOAD PUSH2 0x2317 SWAP1 PUSH2 0x474F JUMP JUMPDEST DUP1 PUSH1 0x1F ADD PUSH1 0x20 DUP1 SWAP2 DIV MUL PUSH1 0x20 ADD PUSH1 0x40 MLOAD SWAP1 DUP2 ADD PUSH1 0x40 MSTORE DUP1 SWAP3 SWAP2 SWAP1 DUP2 DUP2 MSTORE PUSH1 0x20 ADD DUP3 DUP1 SLOAD PUSH2 0x2343 SWAP1 PUSH2 0x474F JUMP JUMPDEST DUP1 ISZERO PUSH2 0x2390 JUMPI DUP1 PUSH1 0x1F LT PUSH2 0x2365 JUMPI PUSH2 0x100 DUP1 DUP4 SLOAD DIV MUL DUP4 MSTORE SWAP2 PUSH1 0x20 ADD SWAP2 PUSH2 0x2390 JUMP JUMPDEST DUP3 ADD SWAP2 SWAP1 PUSH1 0x0 MSTORE PUSH1 0x20 PUSH1 0x0 KECCAK256 SWAP1 JUMPDEST DUP2 SLOAD DUP2 MSTORE SWAP1 PUSH1 0x1 ADD SWAP1 PUSH1 0x20 ADD DUP1 DUP4 GT PUSH2 0x2373 JUMPI DUP3 SWAP1 SUB PUSH1 0x1F AND DUP3 ADD SWAP2 JUMPDEST POP POP POP POP POP DUP2 MSTORE PUSH1 0x20 ADD PUSH1 0x1 DUP3 ADD DUP1 SLOAD PUSH2 0x23A9 SWAP1 PUSH2 0x474F JUMP JUMPDEST DUP1 PUSH1 0x1F ADD PUSH1 0x20 DUP1 SWAP2 DIV MUL PUSH1 0x20 ADD PUSH1 0x40 MLOAD SWAP1 DUP2 ADD PUSH1 0x40 MSTORE DUP1 SWAP3 SWAP2 SWAP1 DUP2 DUP2 MSTORE PUSH1 0x20 ADD DUP3 DUP1 SLOAD PUSH2 0x23D5 SWAP1 PUSH2 0x474F JUMP JUMPDEST DUP1 ISZERO PUSH2 0x2422 JUMPI DUP1 PUSH1 0x1F LT PUSH2 0x23F7 JUMPI PUSH2 0x100 DUP1 DUP4 SLOAD DIV MUL DUP4 MSTORE SWAP2 PUSH1 0x20 ADD SWAP2 PUSH2 0x2422 JUMP JUMPDEST DUP3 ADD SWAP2 SWAP1 PUSH1 0x0 MSTORE PUSH1 0x20 PUSH1 0x0 KECCAK256 SWAP1 JUMPDEST DUP2 SLOAD DUP2 MSTORE SWAP1 PUSH1 0x1 ADD SWAP1 PUSH1 0x20 ADD DUP1 DUP4 GT PUSH2 0x2405 JUMPI DUP3 SWAP1 SUB PUSH1 0x1F AND DUP3 ADD SWAP2 JUMPDEST POP POP POP SWAP2 DUP4 MSTORE POP POP PUSH1 0x2 SWAP2 SWAP1 SWAP2 ADD SLOAD PUSH1 0xFF DUP2 AND PUSH1 0x20 DUP1 DUP5 ADD SWAP2 SWAP1 SWAP2 MSTORE PUSH2 0x100 SWAP1 SWAP2 DIV PUSH1 0x1 PUSH1 0x1 PUSH1 0xA0 SHL SUB AND PUSH1 0x40 SWAP3 DUP4 ADD MSTORE SWAP2 DUP4 MSTORE PUSH1 0x7 DUP5 ADD SLOAD SWAP2 DUP4 ADD SWAP2 SWAP1 SWAP2 MSTORE DUP1 MLOAD PUSH1 0x80 DUP2 ADD DUP3 MSTORE PUSH1 0x8 DUP5 ADD DUP1 SLOAD SWAP4 SWAP1 SWAP3 ADD SWAP3 SWAP1 SWAP2 SWAP1 DUP3 SWAP1 DUP3 SWAP1 PUSH2 0x2485 SWAP1 PUSH2 0x474F JUMP JUMPDEST DUP1 PUSH1 0x1F ADD PUSH1 0x20 DUP1 SWAP2 DIV MUL PUSH1 0x20 ADD PUSH1 0x40 MLOAD SWAP1 DUP2 ADD PUSH1 0x40 MSTORE DUP1 SWAP3 SWAP2 SWAP1 DUP2 DUP2 MSTORE PUSH1 0x20 ADD DUP3 DUP1 SLOAD PUSH2 0x24B1 SWAP1 PUSH2 0x474F JUMP JUMPDEST DUP1 ISZERO PUSH2 0x24FE JUMPI DUP1 PUSH1 0x1F LT PUSH2 0x24D3 JUMPI PUSH2 0x100 DUP1 DUP4 SLOAD DIV MUL DUP4 MSTORE SWAP2 PUSH1 0x20 ADD SWAP2 PUSH2 0x24FE JUMP JUMPDEST DUP3 ADD SWAP2 SWAP1 PUSH1 0x0 MSTORE PUSH1 0x20 PUSH1 0x0 KECCAK256 SWAP1 JUMPDEST DUP2 SLOAD DUP2 MSTORE SWAP1 PUSH1 0x1 ADD SWAP1 PUSH1 0x20 ADD DUP1 DUP4 GT PUSH2 0x24E1 JUMPI DUP3 SWAP1 SUB PUSH1 0x1F AND DUP3 ADD SWAP2 JUMPDEST POP POP POP POP POP DUP2 MSTORE PUSH1 0x20 ADD PUSH1 0x1 DUP3 ADD DUP1 SLOAD PUSH2 0x2517 SWAP1 PUSH2 0x474F JUMP JUMPDEST DUP1 PUSH1 0x1F ADD PUSH1 0x20 DUP1 SWAP2 DIV MUL PUSH1 0x20 ADD PUSH1 0x40 MLOAD SWAP1 DUP2 ADD PUSH1 0x40 MSTORE DUP1 SWAP3 SWAP2 SWAP1 DUP2 DUP2 MSTORE PUSH1 0x20 ADD DUP3 DUP1 SLOAD PUSH2 0x2543 SWAP1 PUSH2 0x474F JUMP JUMPDEST DUP1 ISZERO PUSH2 0x2590 JUMPI DUP1 PUSH1 0x1F LT PUSH2 0x2565 JUMPI PUSH2 0x100 DUP1 DUP4 SLOAD DIV MUL DUP4 MSTORE SWAP2 PUSH1 0x20 ADD SWAP2 PUSH2 0x2590 JUMP JUMPDEST DUP3 ADD SWAP2 SWAP1 PUSH1 0x0 MSTORE PUSH1 0x20 PUSH1 0x0 KECCAK256 SWAP1 JUMPDEST DUP2 SLOAD DUP2 MSTORE SWAP1 PUSH1 0x1 ADD SWAP1 PUSH1 0x20 ADD DUP1 DUP4 GT PUSH2 0x2573 JUMPI DUP3 SWAP1 SUB PUSH1 0x1F AND DUP3 ADD SWAP2 JUMPDEST POP POP POP SWAP2 DUP4 MSTORE POP POP PUSH1 0x2 SWAP2 SWAP1 SWAP2 ADD SLOAD PUSH1 0xFF DUP1 DUP3 AND PUSH1 0x20 DUP1 DUP6 ADD SWAP2 SWAP1 SWAP2 MSTORE PUSH2 0x100 SWAP1 SWAP3 DIV PUSH1 0x1 PUSH1 0x1 PUSH1 0xA0 SHL SUB AND PUSH1 0x40 SWAP4 DUP5 ADD MSTORE SWAP3 DUP5 MSTORE PUSH1 0xB DUP6 ADD SLOAD SWAP1 SWAP3 AND ISZERO ISZERO SWAP2 DUP4 ADD SWAP2 SWAP1 SWAP2 MSTORE PUSH1 0xC DUP4 ADD SLOAD SWAP1 DUP3 ADD MSTORE PUSH1 0xD DUP3 ADD SLOAD PUSH1 0x60 DUP3 ADD MSTORE PUSH1 0xE SWAP1 SWAP2 ADD SLOAD PUSH1 0x80 SWAP1 SWAP2 ADD MSTORE DUP3 MLOAD DUP4 SWAP1 DUP4 SWAP1 DUP2 LT PUSH2 0x2617 JUMPI PUSH4 0x4E487B71 PUSH1 0xE0 SHL PUSH1 0x0 MSTORE PUSH1 0x32 PUSH1 0x4 MSTORE PUSH1 0x24 PUSH1 0x0 REVERT JUMPDEST PUSH1 0x20 MUL PUSH1 0x20 ADD ADD DUP2 SWAP1 MSTORE POP DUP1 DUP1 PUSH2 0x262D SWAP1 PUSH2 0x47D5 JUMP JUMPDEST SWAP2 POP POP PUSH2 0x21F8 JUMP JUMPDEST POP SWAP2 SWAP1 POP JUMP JUMPDEST PUSH2 0x2644 DUP3 PUSH2 0xC49 JUMP JUMPDEST PUSH2 0x264E DUP2 CALLER PUSH2 0x2A6C JUMP JUMPDEST PUSH2 0xE08 DUP4 DUP4 PUSH2 0x2E5B JUMP JUMPDEST CALLER PUSH2 0x2661 PUSH2 0x19D9 JUMP JUMPDEST PUSH1 0x1 PUSH1 0x1 PUSH1 0xA0 SHL SUB AND EQ PUSH2 0x2687 JUMPI PUSH1 0x40 MLOAD PUSH3 0x461BCD PUSH1 0xE5 SHL DUP2 MSTORE PUSH1 0x4 ADD PUSH2 0x77B SWAP1 PUSH2 0x462D JUMP JUMPDEST PUSH1 0x8 DUP1 SLOAD PUSH1 0x1 DUP2 ADD DUP3 SSTORE PUSH1 0x0 SWAP2 SWAP1 SWAP2 MSTORE DUP2 MLOAD DUP1 MLOAD DUP4 SWAP3 PUSH1 0x3 MUL PUSH32 0xF3F7A9FE364FAAB93B216DA50A3214154F22A0A2B415B23A84C8169E8B636EE3 ADD SWAP2 PUSH2 0x26D2 SWAP2 DUP4 SWAP2 PUSH1 0x20 ADD SWAP1 PUSH2 0x36F1 JUMP JUMPDEST POP PUSH1 0x20 DUP3 DUP2 ADD MLOAD DUP1 MLOAD PUSH2 0x26EB SWAP3 PUSH1 0x1 DUP6 ADD SWAP3 ADD SWAP1 PUSH2 0x36F1 JUMP JUMPDEST POP PUSH1 0x40 DUP3 DUP2 ADD MLOAD PUSH1 0x2 SWAP1 SWAP3 ADD DUP1 SLOAD PUSH1 0x60 SWAP1 SWAP5 ADD MLOAD PUSH1 0x1 PUSH1 0x1 PUSH1 0xA0 SHL SUB AND PUSH2 0x100 MUL PUSH1 0x1 PUSH1 0x1 PUSH1 0xA8 SHL SUB NOT SWAP1 SWAP5 AND PUSH1 0xFF SWAP1 SWAP4 AND SWAP3 SWAP1 SWAP3 OR SWAP3 SWAP1 SWAP3 OR SWAP1 SSTORE DUP2 MLOAD SWAP1 MLOAD PUSH32 0x7DFB2E5D8F92D3291CA6D812F04CC68903CFEC6C9CFDF3EA24554E939F72AEA6 SWAP2 PUSH2 0x19CE SWAP2 PUSH2 0x443E JUMP JUMPDEST PUSH1 0x0 DUP4 DUP1 JUMPDEST DUP5 DUP2 EQ PUSH2 0x2795 JUMPI PUSH1 0x0 SWAP1 DUP2 MSTORE PUSH1 0xA PUSH1 0x20 MSTORE PUSH1 0x40 SWAP1 KECCAK256 SLOAD DUP5 DUP2 EQ PUSH2 0x2790 JUMPI PUSH1 0x0 SWAP2 DUP3 MSTORE PUSH1 0xA PUSH1 0x20 MSTORE PUSH1 0x40 DUP1 DUP4 KECCAK256 SLOAD SWAP2 DUP4 MSTORE SWAP1 SWAP2 KECCAK256 SLOAD JUMPDEST PUSH2 0x275B JUMP JUMPDEST POP SWAP5 SWAP4 POP POP POP POP JUMP JUMPDEST PUSH1 0x8 DUP2 DUP2 SLOAD DUP2 LT PUSH2 0x27AE JUMPI PUSH1 0x0 DUP1 REVERT JUMPDEST SWAP1 PUSH1 0x0 MSTORE PUSH1 0x20 PUSH1 0x0 KECCAK256 SWAP1 PUSH1 0x3 MUL ADD PUSH1 0x0 SWAP2 POP SWAP1 POP DUP1 PUSH1 0x0 ADD DUP1 SLOAD PUSH2 0x27D1 SWAP1 PUSH2 0x474F JUMP JUMPDEST DUP1 PUSH1 0x1F ADD PUSH1 0x20 DUP1 SWAP2 DIV MUL PUSH1 0x20 ADD PUSH1 0x40 MLOAD SWAP1 DUP2 ADD PUSH1 0x40 MSTORE DUP1 SWAP3 SWAP2 SWAP1 DUP2 DUP2 MSTORE PUSH1 0x20 ADD DUP3 DUP1 SLOAD PUSH2 0x27FD SWAP1 PUSH2 0x474F JUMP JUMPDEST DUP1 ISZERO PUSH2 0x284A JUMPI DUP1 PUSH1 0x1F LT PUSH2 0x281F JUMPI PUSH2 0x100 DUP1 DUP4 SLOAD DIV MUL DUP4 MSTORE SWAP2 PUSH1 0x20 ADD SWAP2 PUSH2 0x284A JUMP JUMPDEST DUP3 ADD SWAP2 SWAP1 PUSH1 0x0 MSTORE PUSH1 0x20 PUSH1 0x0 KECCAK256 SWAP1 JUMPDEST DUP2 SLOAD DUP2 MSTORE SWAP1 PUSH1 0x1 ADD SWAP1 PUSH1 0x20 ADD DUP1 DUP4 GT PUSH2 0x282D JUMPI DUP3 SWAP1 SUB PUSH1 0x1F AND DUP3 ADD SWAP2 JUMPDEST POP POP POP POP POP SWAP1 DUP1 PUSH1 0x1 ADD DUP1 SLOAD PUSH2 0x285F SWAP1 PUSH2 0x474F JUMP JUMPDEST DUP1 PUSH1 0x1F ADD PUSH1 0x20 DUP1 SWAP2 DIV MUL PUSH1 0x20 ADD PUSH1 0x40 MLOAD SWAP1 DUP2 ADD PUSH1 0x40 MSTORE DUP1 SWAP3 SWAP2 SWAP1 DUP2 DUP2 MSTORE PUSH1 0x20 ADD DUP3 DUP1 SLOAD PUSH2 0x288B SWAP1 PUSH2 0x474F JUMP JUMPDEST DUP1 ISZERO PUSH2 0x28D8 JUMPI DUP1 PUSH1 0x1F LT PUSH2 0x28AD JUMPI PUSH2 0x100 DUP1 DUP4 SLOAD DIV MUL DUP4 MSTORE SWAP2 PUSH1 0x20 ADD SWAP2 PUSH2 0x28D8 JUMP JUMPDEST DUP3 ADD SWAP2 SWAP1 PUSH1 0x0 MSTORE PUSH1 0x20 PUSH1 0x0 KECCAK256 SWAP1 JUMPDEST DUP2 SLOAD DUP2 MSTORE SWAP1 PUSH1 0x1 ADD SWAP1 PUSH1 0x20 ADD DUP1 DUP4 GT PUSH2 0x28BB JUMPI DUP3 SWAP1 SUB PUSH1 0x1F AND DUP3 ADD SWAP2 JUMPDEST POP POP POP PUSH1 0x2 SWAP1 SWAP4 ADD SLOAD SWAP2 SWAP3 POP POP PUSH1 0xFF DUP2 AND SWAP1 PUSH1 0x1 PUSH1 0x1 PUSH1 0xA0 SHL SUB PUSH2 0x100 SWAP1 SWAP2 DIV AND DUP5 JUMP JUMPDEST PUSH1 0x1 PUSH1 0x1 PUSH1 0xA0 SHL SUB DUP6 AND CALLER EQ DUP1 PUSH2 0x2918 JUMPI POP PUSH2 0x2918 DUP6 CALLER PUSH2 0x681 JUMP JUMPDEST PUSH2 0x2976 JUMPI PUSH1 0x40 MLOAD PUSH3 0x461BCD PUSH1 0xE5 SHL DUP2 MSTORE PUSH1 0x20 PUSH1 0x4 DUP3 ADD MSTORE PUSH1 0x29 PUSH1 0x24 DUP3 ADD MSTORE PUSH32 0x455243313135353A2063616C6C6572206973206E6F74206F776E6572206E6F72 PUSH1 0x44 DUP3 ADD MSTORE PUSH9 0x8185C1C1C9BDD9959 PUSH1 0xBA SHL PUSH1 0x64 DUP3 ADD MSTORE PUSH1 0x84 ADD PUSH2 0x77B JUMP JUMPDEST PUSH2 0xDE4 DUP6 DUP6 DUP6 DUP6 DUP6 PUSH2 0x2F14 JUMP JUMPDEST CALLER PUSH2 0x298C PUSH2 0x19D9 JUMP JUMPDEST PUSH1 0x1 PUSH1 0x1 PUSH1 0xA0 SHL SUB AND EQ PUSH2 0x29B2 JUMPI PUSH1 0x40 MLOAD PUSH3 0x461BCD PUSH1 0xE5 SHL DUP2 MSTORE PUSH1 0x4 ADD PUSH2 0x77B SWAP1 PUSH2 0x462D JUMP JUMPDEST PUSH1 0x1 PUSH1 0x1 PUSH1 0xA0 SHL SUB DUP2 AND PUSH2 0x2A17 JUMPI PUSH1 0x40 MLOAD PUSH3 0x461BCD PUSH1 0xE5 SHL DUP2 MSTORE PUSH1 0x20 PUSH1 0x4 DUP3 ADD MSTORE PUSH1 0x26 PUSH1 0x24 DUP3 ADD MSTORE PUSH32 0x4F776E61626C653A206E6577206F776E657220697320746865207A65726F2061 PUSH1 0x44 DUP3 ADD MSTORE PUSH6 0x646472657373 PUSH1 0xD0 SHL PUSH1 0x64 DUP3 ADD MSTORE PUSH1 0x84 ADD PUSH2 0x77B JUMP JUMPDEST PUSH2 0x2A20 DUP2 PUSH2 0x2EC2 JUMP JUMPDEST POP JUMP JUMPDEST PUSH1 0x0 DUP1 MLOAD PUSH1 0x20 PUSH2 0x4917 DUP4 CODECOPY DUP2 MLOAD SWAP2 MSTORE PUSH2 0x2A3C DUP2 CALLER PUSH2 0x2A6C JUMP JUMPDEST PUSH2 0xC43 DUP5 DUP5 DUP5 PUSH2 0x301F JUMP JUMPDEST PUSH1 0x0 PUSH1 0x1 PUSH1 0x1 PUSH1 0xE0 SHL SUB NOT DUP3 AND PUSH4 0x7965DB0B PUSH1 0xE0 SHL EQ DUP1 PUSH2 0x7B5 JUMPI POP PUSH2 0x7B5 DUP3 PUSH2 0x3186 JUMP JUMPDEST PUSH2 0x2A76 DUP3 DUP3 PUSH2 0x1A8E JUMP JUMPDEST PUSH2 0xE87 JUMPI PUSH2 0x2A8E DUP2 PUSH1 0x1 PUSH1 0x1 PUSH1 0xA0 SHL SUB AND PUSH1 0x14 PUSH2 0x31D6 JUMP JUMPDEST PUSH2 0x2A99 DUP4 PUSH1 0x20 PUSH2 0x31D6 JUMP JUMPDEST PUSH1 0x40 MLOAD PUSH1 0x20 ADD PUSH2 0x2AAA SWAP3 SWAP2 SWAP1 PUSH2 0x4158 JUMP JUMPDEST PUSH1 0x40 DUP1 MLOAD PUSH1 0x1F NOT DUP2 DUP5 SUB ADD DUP2 MSTORE SWAP1 DUP3 SWAP1 MSTORE PUSH3 0x461BCD PUSH1 0xE5 SHL DUP3 MSTORE PUSH2 0x77B SWAP2 PUSH1 0x4 ADD PUSH2 0x443E JUMP JUMPDEST PUSH1 0x1 PUSH1 0x1 PUSH1 0xA0 SHL SUB DUP5 AND PUSH2 0x2B30 JUMPI PUSH1 0x40 MLOAD PUSH3 0x461BCD PUSH1 0xE5 SHL DUP2 MSTORE PUSH1 0x20 PUSH1 0x4 DUP3 ADD MSTORE PUSH1 0x21 PUSH1 0x24 DUP3 ADD MSTORE PUSH32 0x455243313135353A206D696E7420746F20746865207A65726F20616464726573 PUSH1 0x44 DUP3 ADD MSTORE PUSH1 0x73 PUSH1 0xF8 SHL PUSH1 0x64 DUP3 ADD MSTORE PUSH1 0x84 ADD PUSH2 0x77B JUMP JUMPDEST CALLER PUSH2 0x2B50 DUP2 PUSH1 0x0 DUP8 PUSH2 0x2B41 DUP9 PUSH2 0x33B7 JUMP JUMPDEST PUSH2 0x2B4A DUP9 PUSH2 0x33B7 JUMP JUMPDEST DUP8 PUSH2 0x3410 JUMP JUMPDEST PUSH1 0x0 DUP5 DUP2 MSTORE PUSH1 0x20 DUP2 DUP2 MSTORE PUSH1 0x40 DUP1 DUP4 KECCAK256 PUSH1 0x1 PUSH1 0x1 PUSH1 0xA0 SHL SUB DUP10 AND DUP5 MSTORE SWAP1 SWAP2 MSTORE DUP2 KECCAK256 DUP1 SLOAD DUP6 SWAP3 SWAP1 PUSH2 0x2B80 SWAP1 DUP5 SWAP1 PUSH2 0x469E JUMP JUMPDEST SWAP1 SWAP2 SSTORE POP POP PUSH1 0x40 DUP1 MLOAD DUP6 DUP2 MSTORE PUSH1 0x20 DUP2 ADD DUP6 SWAP1 MSTORE PUSH1 0x1 PUSH1 0x1 PUSH1 0xA0 SHL SUB DUP1 DUP9 AND SWAP3 PUSH1 0x0 SWAP3 SWAP2 DUP6 AND SWAP2 PUSH1 0x0 DUP1 MLOAD PUSH1 0x20 PUSH2 0x48F7 DUP4 CODECOPY DUP2 MLOAD SWAP2 MSTORE SWAP2 ADD PUSH1 0x40 MLOAD DUP1 SWAP2 SUB SWAP1 LOG4 PUSH2 0xDE4 DUP2 PUSH1 0x0 DUP8 DUP8 DUP8 DUP8 PUSH2 0x34BC JUMP JUMPDEST DUP2 MLOAD DUP4 MLOAD EQ PUSH2 0x2C30 JUMPI PUSH1 0x40 MLOAD PUSH3 0x461BCD PUSH1 0xE5 SHL DUP2 MSTORE PUSH1 0x20 PUSH1 0x4 DUP3 ADD MSTORE PUSH1 0x28 PUSH1 0x24 DUP3 ADD MSTORE PUSH32 0x455243313135353A2069647320616E6420616D6F756E7473206C656E67746820 PUSH1 0x44 DUP3 ADD MSTORE PUSH8 0xDAD2E6DAC2E8C6D PUSH1 0xC3 SHL PUSH1 0x64 DUP3 ADD MSTORE PUSH1 0x84 ADD PUSH2 0x77B JUMP JUMPDEST PUSH1 0x1 PUSH1 0x1 PUSH1 0xA0 SHL SUB DUP5 AND PUSH2 0x2C56 JUMPI PUSH1 0x40 MLOAD PUSH3 0x461BCD PUSH1 0xE5 SHL DUP2 MSTORE PUSH1 0x4 ADD PUSH2 0x77B SWAP1 PUSH2 0x459E JUMP JUMPDEST CALLER PUSH2 0x2C65 DUP2 DUP8 DUP8 DUP8 DUP8 DUP8 PUSH2 0x3410 JUMP JUMPDEST PUSH1 0x0 JUMPDEST DUP5 MLOAD DUP2 LT ISZERO PUSH2 0x2D67 JUMPI PUSH1 0x0 DUP6 DUP3 DUP2 MLOAD DUP2 LT PUSH2 0x2C93 JUMPI PUSH4 0x4E487B71 PUSH1 0xE0 SHL PUSH1 0x0 MSTORE PUSH1 0x32 PUSH1 0x4 MSTORE PUSH1 0x24 PUSH1 0x0 REVERT JUMPDEST PUSH1 0x20 MUL PUSH1 0x20 ADD ADD MLOAD SWAP1 POP PUSH1 0x0 DUP6 DUP4 DUP2 MLOAD DUP2 LT PUSH2 0x2CBF JUMPI PUSH4 0x4E487B71 PUSH1 0xE0 SHL PUSH1 0x0 MSTORE PUSH1 0x32 PUSH1 0x4 MSTORE PUSH1 0x24 PUSH1 0x0 REVERT JUMPDEST PUSH1 0x20 SWAP1 DUP2 MUL SWAP2 SWAP1 SWAP2 ADD DUP2 ADD MLOAD PUSH1 0x0 DUP5 DUP2 MSTORE DUP1 DUP4 MSTORE PUSH1 0x40 DUP1 DUP3 KECCAK256 PUSH1 0x1 PUSH1 0x1 PUSH1 0xA0 SHL SUB DUP15 AND DUP4 MSTORE SWAP1 SWAP4 MSTORE SWAP2 SWAP1 SWAP2 KECCAK256 SLOAD SWAP1 SWAP2 POP DUP2 DUP2 LT ISZERO PUSH2 0x2D0F JUMPI PUSH1 0x40 MLOAD PUSH3 0x461BCD PUSH1 0xE5 SHL DUP2 MSTORE PUSH1 0x4 ADD PUSH2 0x77B SWAP1 PUSH2 0x45E3 JUMP JUMPDEST PUSH1 0x0 DUP4 DUP2 MSTORE PUSH1 0x20 DUP2 DUP2 MSTORE PUSH1 0x40 DUP1 DUP4 KECCAK256 PUSH1 0x1 PUSH1 0x1 PUSH1 0xA0 SHL SUB DUP15 DUP2 AND DUP6 MSTORE SWAP3 MSTORE DUP1 DUP4 KECCAK256 DUP6 DUP6 SUB SWAP1 SSTORE SWAP1 DUP12 AND DUP3 MSTORE DUP2 KECCAK256 DUP1 SLOAD DUP5 SWAP3 SWAP1 PUSH2 0x2D4C SWAP1 DUP5 SWAP1 PUSH2 0x469E JUMP JUMPDEST SWAP3 POP POP DUP2 SWAP1 SSTORE POP POP POP POP DUP1 PUSH2 0x2D60 SWAP1 PUSH2 0x47D5 JUMP JUMPDEST SWAP1 POP PUSH2 0x2C68 JUMP JUMPDEST POP DUP5 PUSH1 0x1 PUSH1 0x1 PUSH1 0xA0 SHL SUB AND DUP7 PUSH1 0x1 PUSH1 0x1 PUSH1 0xA0 SHL SUB AND DUP3 PUSH1 0x1 PUSH1 0x1 PUSH1 0xA0 SHL SUB AND PUSH32 0x4A39DC06D4C0DBC64B70AF90FD698A233A518AA5D07E595D983B8C0526C8F7FB DUP8 DUP8 PUSH1 0x40 MLOAD PUSH2 0x2DB7 SWAP3 SWAP2 SWAP1 PUSH2 0x4419 JUMP JUMPDEST PUSH1 0x40 MLOAD DUP1 SWAP2 SUB SWAP1 LOG4 PUSH2 0x2DCD DUP2 DUP8 DUP8 DUP8 DUP8 DUP8 PUSH2 0x3627 JUMP JUMPDEST POP POP POP POP POP POP JUMP JUMPDEST PUSH2 0x2DDF DUP3 DUP3 PUSH2 0x1A8E JUMP JUMPDEST PUSH2 0xE87 JUMPI PUSH1 0x0 DUP3 DUP2 MSTORE PUSH1 0x4 PUSH1 0x20 SWAP1 DUP2 MSTORE PUSH1 0x40 DUP1 DUP4 KECCAK256 PUSH1 0x1 PUSH1 0x1 PUSH1 0xA0 SHL SUB DUP6 AND DUP5 MSTORE SWAP1 SWAP2 MSTORE SWAP1 KECCAK256 DUP1 SLOAD PUSH1 0xFF NOT AND PUSH1 0x1 OR SWAP1 SSTORE PUSH2 0x2E17 CALLER SWAP1 JUMP JUMPDEST PUSH1 0x1 PUSH1 0x1 PUSH1 0xA0 SHL SUB AND DUP2 PUSH1 0x1 PUSH1 0x1 PUSH1 0xA0 SHL SUB AND DUP4 PUSH32 0x2F8788117E7EFF1D82E926EC794901D17C78024A50270940304540A733656F0D PUSH1 0x40 MLOAD PUSH1 0x40 MLOAD DUP1 SWAP2 SUB SWAP1 LOG4 POP POP JUMP JUMPDEST PUSH2 0x2E65 DUP3 DUP3 PUSH2 0x1A8E JUMP JUMPDEST ISZERO PUSH2 0xE87 JUMPI PUSH1 0x0 DUP3 DUP2 MSTORE PUSH1 0x4 PUSH1 0x20 SWAP1 DUP2 MSTORE PUSH1 0x40 DUP1 DUP4 KECCAK256 PUSH1 0x1 PUSH1 0x1 PUSH1 0xA0 SHL SUB DUP6 AND DUP1 DUP6 MSTORE SWAP3 MSTORE DUP1 DUP4 KECCAK256 DUP1 SLOAD PUSH1 0xFF NOT AND SWAP1 SSTORE MLOAD CALLER SWAP3 DUP6 SWAP2 PUSH32 0xF6391F5C32D9C69D2A47EA670B442974B53935D1EDC7FD64EB21E047A839171B SWAP2 SWAP1 LOG4 POP POP JUMP JUMPDEST PUSH1 0x3 DUP1 SLOAD PUSH1 0x1 PUSH1 0x1 PUSH1 0xA0 SHL SUB DUP4 DUP2 AND PUSH1 0x1 PUSH1 0x1 PUSH1 0xA0 SHL SUB NOT DUP4 AND DUP2 OR SWAP1 SWAP4 SSTORE PUSH1 0x40 MLOAD SWAP2 AND SWAP2 SWAP1 DUP3 SWAP1 PUSH32 0x8BE0079C531659141344CD1FD0A4F28419497F9722A3DAAFE3B4186F6B6457E0 SWAP1 PUSH1 0x0 SWAP1 LOG3 POP POP JUMP JUMPDEST PUSH1 0x1 PUSH1 0x1 PUSH1 0xA0 SHL SUB DUP5 AND PUSH2 0x2F3A JUMPI PUSH1 0x40 MLOAD PUSH3 0x461BCD PUSH1 0xE5 SHL DUP2 MSTORE PUSH1 0x4 ADD PUSH2 0x77B SWAP1 PUSH2 0x459E JUMP JUMPDEST CALLER PUSH2 0x2F4A DUP2 DUP8 DUP8 PUSH2 0x2B41 DUP9 PUSH2 0x33B7 JUMP JUMPDEST PUSH1 0x0 DUP5 DUP2 MSTORE PUSH1 0x20 DUP2 DUP2 MSTORE PUSH1 0x40 DUP1 DUP4 KECCAK256 PUSH1 0x1 PUSH1 0x1 PUSH1 0xA0 SHL SUB DUP11 AND DUP5 MSTORE SWAP1 SWAP2 MSTORE SWAP1 KECCAK256 SLOAD DUP4 DUP2 LT ISZERO PUSH2 0x2F8B JUMPI PUSH1 0x40 MLOAD PUSH3 0x461BCD PUSH1 0xE5 SHL DUP2 MSTORE PUSH1 0x4 ADD PUSH2 0x77B SWAP1 PUSH2 0x45E3 JUMP JUMPDEST PUSH1 0x0 DUP6 DUP2 MSTORE PUSH1 0x20 DUP2 DUP2 MSTORE PUSH1 0x40 DUP1 DUP4 KECCAK256 PUSH1 0x1 PUSH1 0x1 PUSH1 0xA0 SHL SUB DUP12 DUP2 AND DUP6 MSTORE SWAP3 MSTORE DUP1 DUP4 KECCAK256 DUP8 DUP6 SUB SWAP1 SSTORE SWAP1 DUP9 AND DUP3 MSTORE DUP2 KECCAK256 DUP1 SLOAD DUP7 SWAP3 SWAP1 PUSH2 0x2FC8 SWAP1 DUP5 SWAP1 PUSH2 0x469E JUMP JUMPDEST SWAP1 SWAP2 SSTORE POP POP PUSH1 0x40 DUP1 MLOAD DUP7 DUP2 MSTORE PUSH1 0x20 DUP2 ADD DUP7 SWAP1 MSTORE PUSH1 0x1 PUSH1 0x1 PUSH1 0xA0 SHL SUB DUP1 DUP10 AND SWAP3 DUP11 DUP3 AND SWAP3 SWAP2 DUP7 AND SWAP2 PUSH1 0x0 DUP1 MLOAD PUSH1 0x20 PUSH2 0x48F7 DUP4 CODECOPY DUP2 MLOAD SWAP2 MSTORE SWAP2 ADD PUSH1 0x40 MLOAD DUP1 SWAP2 SUB SWAP1 LOG4 PUSH2 0x3016 DUP3 DUP9 DUP9 DUP9 DUP9 DUP9 PUSH2 0x34BC JUMP JUMPDEST POP POP POP POP POP POP POP JUMP JUMPDEST PUSH1 0x1 PUSH1 0x1 PUSH1 0xA0 SHL SUB DUP4 AND PUSH2 0x3081 JUMPI PUSH1 0x40 MLOAD PUSH3 0x461BCD PUSH1 0xE5 SHL DUP2 MSTORE PUSH1 0x20 PUSH1 0x4 DUP3 ADD MSTORE PUSH1 0x23 PUSH1 0x24 DUP3 ADD MSTORE PUSH32 0x455243313135353A206275726E2066726F6D20746865207A65726F2061646472 PUSH1 0x44 DUP3 ADD MSTORE PUSH3 0x657373 PUSH1 0xE8 SHL PUSH1 0x64 DUP3 ADD MSTORE PUSH1 0x84 ADD PUSH2 0x77B JUMP JUMPDEST CALLER PUSH2 0x30B0 DUP2 DUP6 PUSH1 0x0 PUSH2 0x3092 DUP8 PUSH2 0x33B7 JUMP JUMPDEST PUSH2 0x309B DUP8 PUSH2 0x33B7 JUMP JUMPDEST PUSH1 0x40 MLOAD DUP1 PUSH1 0x20 ADD PUSH1 0x40 MSTORE DUP1 PUSH1 0x0 DUP2 MSTORE POP PUSH2 0x3410 JUMP JUMPDEST PUSH1 0x0 DUP4 DUP2 MSTORE PUSH1 0x20 DUP2 DUP2 MSTORE PUSH1 0x40 DUP1 DUP4 KECCAK256 PUSH1 0x1 PUSH1 0x1 PUSH1 0xA0 SHL SUB DUP9 AND DUP5 MSTORE SWAP1 SWAP2 MSTORE SWAP1 KECCAK256 SLOAD DUP3 DUP2 LT ISZERO PUSH2 0x312D JUMPI PUSH1 0x40 MLOAD PUSH3 0x461BCD PUSH1 0xE5 SHL DUP2 MSTORE PUSH1 0x20 PUSH1 0x4 DUP3 ADD MSTORE PUSH1 0x24 DUP1 DUP3 ADD MSTORE PUSH32 0x455243313135353A206275726E20616D6F756E7420657863656564732062616C PUSH1 0x44 DUP3 ADD MSTORE PUSH4 0x616E6365 PUSH1 0xE0 SHL PUSH1 0x64 DUP3 ADD MSTORE PUSH1 0x84 ADD PUSH2 0x77B JUMP JUMPDEST PUSH1 0x0 DUP5 DUP2 MSTORE PUSH1 0x20 DUP2 DUP2 MSTORE PUSH1 0x40 DUP1 DUP4 KECCAK256 PUSH1 0x1 PUSH1 0x1 PUSH1 0xA0 SHL SUB DUP10 DUP2 AND DUP1 DUP7 MSTORE SWAP2 DUP5 MSTORE DUP3 DUP6 KECCAK256 DUP9 DUP8 SUB SWAP1 SSTORE DUP3 MLOAD DUP10 DUP2 MSTORE SWAP4 DUP5 ADD DUP9 SWAP1 MSTORE SWAP1 SWAP3 SWAP1 DUP7 AND SWAP2 PUSH1 0x0 DUP1 MLOAD PUSH1 0x20 PUSH2 0x48F7 DUP4 CODECOPY DUP2 MLOAD SWAP2 MSTORE SWAP2 ADD PUSH1 0x40 MLOAD DUP1 SWAP2 SUB SWAP1 LOG4 POP POP POP POP POP JUMP JUMPDEST PUSH1 0x0 PUSH1 0x1 PUSH1 0x1 PUSH1 0xE0 SHL SUB NOT DUP3 AND PUSH4 0x6CDB3D13 PUSH1 0xE1 SHL EQ DUP1 PUSH2 0x31B7 JUMPI POP PUSH1 0x1 PUSH1 0x1 PUSH1 0xE0 SHL SUB NOT DUP3 AND PUSH4 0x3A24D07 PUSH1 0xE2 SHL EQ JUMPDEST DUP1 PUSH2 0x7B5 JUMPI POP PUSH4 0x1FFC9A7 PUSH1 0xE0 SHL PUSH1 0x1 PUSH1 0x1 PUSH1 0xE0 SHL SUB NOT DUP4 AND EQ PUSH2 0x7B5 JUMP JUMPDEST PUSH1 0x60 PUSH1 0x0 PUSH2 0x31E5 DUP4 PUSH1 0x2 PUSH2 0x46D6 JUMP JUMPDEST PUSH2 0x31F0 SWAP1 PUSH1 0x2 PUSH2 0x469E JUMP JUMPDEST PUSH1 0x1 PUSH1 0x1 PUSH1 0x40 SHL SUB DUP2 GT ISZERO PUSH2 0x3215 JUMPI PUSH4 0x4E487B71 PUSH1 0xE0 SHL PUSH1 0x0 MSTORE PUSH1 0x41 PUSH1 0x4 MSTORE PUSH1 0x24 PUSH1 0x0 REVERT JUMPDEST PUSH1 0x40 MLOAD SWAP1 DUP1 DUP3 MSTORE DUP1 PUSH1 0x1F ADD PUSH1 0x1F NOT AND PUSH1 0x20 ADD DUP3 ADD PUSH1 0x40 MSTORE DUP1 ISZERO PUSH2 0x323F JUMPI PUSH1 0x20 DUP3 ADD DUP2 DUP1 CALLDATASIZE DUP4 CALLDATACOPY ADD SWAP1 POP JUMPDEST POP SWAP1 POP PUSH1 0x3 PUSH1 0xFC SHL DUP2 PUSH1 0x0 DUP2 MLOAD DUP2 LT PUSH2 0x3268 JUMPI PUSH4 0x4E487B71 PUSH1 0xE0 SHL PUSH1 0x0 MSTORE PUSH1 0x32 PUSH1 0x4 MSTORE PUSH1 0x24 PUSH1 0x0 REVERT JUMPDEST PUSH1 0x20 ADD ADD SWAP1 PUSH1 0x1 PUSH1 0x1 PUSH1 0xF8 SHL SUB NOT AND SWAP1 DUP2 PUSH1 0x0 BYTE SWAP1 MSTORE8 POP PUSH1 0xF PUSH1 0xFB SHL DUP2 PUSH1 0x1 DUP2 MLOAD DUP2 LT PUSH2 0x32A5 JUMPI PUSH4 0x4E487B71 PUSH1 0xE0 SHL PUSH1 0x0 MSTORE PUSH1 0x32 PUSH1 0x4 MSTORE PUSH1 0x24 PUSH1 0x0 REVERT JUMPDEST PUSH1 0x20 ADD ADD SWAP1 PUSH1 0x1 PUSH1 0x1 PUSH1 0xF8 SHL SUB NOT AND SWAP1 DUP2 PUSH1 0x0 BYTE SWAP1 MSTORE8 POP PUSH1 0x0 PUSH2 0x32C9 DUP5 PUSH1 0x2 PUSH2 0x46D6 JUMP JUMPDEST PUSH2 0x32D4 SWAP1 PUSH1 0x1 PUSH2 0x469E JUMP JUMPDEST SWAP1 POP JUMPDEST PUSH1 0x1 DUP2 GT ISZERO PUSH2 0x3368 JUMPI PUSH16 0x181899199A1A9B1B9C1CB0B131B232B3 PUSH1 0x81 SHL DUP6 PUSH1 0xF AND PUSH1 0x10 DUP2 LT PUSH2 0x3316 JUMPI PUSH4 0x4E487B71 PUSH1 0xE0 SHL PUSH1 0x0 MSTORE PUSH1 0x32 PUSH1 0x4 MSTORE PUSH1 0x24 PUSH1 0x0 REVERT JUMPDEST BYTE PUSH1 0xF8 SHL DUP3 DUP3 DUP2 MLOAD DUP2 LT PUSH2 0x333A JUMPI PUSH4 0x4E487B71 PUSH1 0xE0 SHL PUSH1 0x0 MSTORE PUSH1 0x32 PUSH1 0x4 MSTORE PUSH1 0x24 PUSH1 0x0 REVERT JUMPDEST PUSH1 0x20 ADD ADD SWAP1 PUSH1 0x1 PUSH1 0x1 PUSH1 0xF8 SHL SUB NOT AND SWAP1 DUP2 PUSH1 0x0 BYTE SWAP1 MSTORE8 POP PUSH1 0x4 SWAP5 SWAP1 SWAP5 SHR SWAP4 PUSH2 0x3361 DUP2 PUSH2 0x4738 JUMP JUMPDEST SWAP1 POP PUSH2 0x32D7 JUMP JUMPDEST POP DUP4 ISZERO PUSH2 0x10AA JUMPI PUSH1 0x40 MLOAD PUSH3 0x461BCD PUSH1 0xE5 SHL DUP2 MSTORE PUSH1 0x20 PUSH1 0x4 DUP3 ADD DUP2 SWAP1 MSTORE PUSH1 0x24 DUP3 ADD MSTORE PUSH32 0x537472696E67733A20686578206C656E67746820696E73756666696369656E74 PUSH1 0x44 DUP3 ADD MSTORE PUSH1 0x64 ADD PUSH2 0x77B JUMP JUMPDEST PUSH1 0x40 DUP1 MLOAD PUSH1 0x1 DUP1 DUP3 MSTORE DUP2 DUP4 ADD SWAP1 SWAP3 MSTORE PUSH1 0x60 SWAP2 PUSH1 0x0 SWAP2 SWAP1 PUSH1 0x20 DUP1 DUP4 ADD SWAP1 DUP1 CALLDATASIZE DUP4 CALLDATACOPY ADD SWAP1 POP POP SWAP1 POP DUP3 DUP2 PUSH1 0x0 DUP2 MLOAD DUP2 LT PUSH2 0x33FF JUMPI PUSH4 0x4E487B71 PUSH1 0xE0 SHL PUSH1 0x0 MSTORE PUSH1 0x32 PUSH1 0x4 MSTORE PUSH1 0x24 PUSH1 0x0 REVERT JUMPDEST PUSH1 0x20 SWAP1 DUP2 MUL SWAP2 SWAP1 SWAP2 ADD ADD MSTORE SWAP3 SWAP2 POP POP JUMP JUMPDEST PUSH1 0x1 PUSH1 0x1 PUSH1 0xA0 SHL SUB DUP6 AND ISZERO DUP1 ISZERO SWAP1 PUSH2 0x3430 JUMPI POP PUSH1 0x1 PUSH1 0x1 PUSH1 0xA0 SHL SUB DUP5 AND ISZERO ISZERO JUMPDEST DUP1 ISZERO PUSH2 0x3451 JUMPI POP PUSH2 0x344F PUSH1 0x0 DUP1 MLOAD PUSH1 0x20 PUSH2 0x4917 DUP4 CODECOPY DUP2 MLOAD SWAP2 MSTORE DUP7 PUSH2 0x1A8E JUMP JUMPDEST ISZERO JUMPDEST DUP1 ISZERO PUSH2 0x3472 JUMPI POP PUSH2 0x3470 PUSH1 0x0 DUP1 MLOAD PUSH1 0x20 PUSH2 0x4917 DUP4 CODECOPY DUP2 MLOAD SWAP2 MSTORE DUP6 PUSH2 0x1A8E JUMP JUMPDEST ISZERO JUMPDEST ISZERO PUSH2 0x2DCD JUMPI PUSH1 0x40 MLOAD PUSH3 0x461BCD PUSH1 0xE5 SHL DUP2 MSTORE PUSH1 0x20 PUSH1 0x4 DUP3 ADD MSTORE PUSH1 0x1A PUSH1 0x24 DUP3 ADD MSTORE PUSH26 0x151BDAD95B881D1C985B9CD9995C881B9BDD08185B1B1BDDD959 PUSH1 0x32 SHL PUSH1 0x44 DUP3 ADD MSTORE PUSH1 0x64 ADD PUSH2 0x77B JUMP JUMPDEST PUSH1 0x1 PUSH1 0x1 PUSH1 0xA0 SHL SUB DUP5 AND EXTCODESIZE ISZERO PUSH2 0x2DCD JUMPI PUSH1 0x40 MLOAD PUSH4 0xF23A6E61 PUSH1 0xE0 SHL DUP2 MSTORE PUSH1 0x1 PUSH1 0x1 PUSH1 0xA0 SHL SUB DUP6 AND SWAP1 PUSH4 0xF23A6E61 SWAP1 PUSH2 0x3500 SWAP1 DUP10 SWAP1 DUP10 SWAP1 DUP9 SWAP1 DUP9 SWAP1 DUP9 SWAP1 PUSH1 0x4 ADD PUSH2 0x4239 JUMP JUMPDEST PUSH1 0x20 PUSH1 0x40 MLOAD DUP1 DUP4 SUB DUP2 PUSH1 0x0 DUP8 DUP1 EXTCODESIZE ISZERO DUP1 ISZERO PUSH2 0x351A JUMPI PUSH1 0x0 DUP1 REVERT JUMPDEST POP GAS CALL SWAP3 POP POP POP DUP1 ISZERO PUSH2 0x354A JUMPI POP PUSH1 0x40 DUP1 MLOAD PUSH1 0x1F RETURNDATASIZE SWAP1 DUP2 ADD PUSH1 0x1F NOT AND DUP3 ADD SWAP1 SWAP3 MSTORE PUSH2 0x3547 SWAP2 DUP2 ADD SWAP1 PUSH2 0x3D2B JUMP JUMPDEST PUSH1 0x1 JUMPDEST PUSH2 0x35F7 JUMPI PUSH2 0x3556 PUSH2 0x481C JUMP JUMPDEST DUP1 PUSH4 0x8C379A0 EQ ISZERO PUSH2 0x3590 JUMPI POP PUSH2 0x356B PUSH2 0x4834 JUMP JUMPDEST DUP1 PUSH2 0x3576 JUMPI POP PUSH2 0x3592 JUMP JUMPDEST DUP1 PUSH1 0x40 MLOAD PUSH3 0x461BCD PUSH1 0xE5 SHL DUP2 MSTORE PUSH1 0x4 ADD PUSH2 0x77B SWAP2 SWAP1 PUSH2 0x443E JUMP JUMPDEST POP JUMPDEST PUSH1 0x40 MLOAD PUSH3 0x461BCD PUSH1 0xE5 SHL DUP2 MSTORE PUSH1 0x20 PUSH1 0x4 DUP3 ADD MSTORE PUSH1 0x34 PUSH1 0x24 DUP3 ADD MSTORE PUSH32 0x455243313135353A207472616E7366657220746F206E6F6E2045524331313535 PUSH1 0x44 DUP3 ADD MSTORE PUSH20 0x2932B1B2B4BB32B91034B6B83632B6B2B73A32B9 PUSH1 0x61 SHL PUSH1 0x64 DUP3 ADD MSTORE PUSH1 0x84 ADD PUSH2 0x77B JUMP JUMPDEST PUSH1 0x1 PUSH1 0x1 PUSH1 0xE0 SHL SUB NOT DUP2 AND PUSH4 0xF23A6E61 PUSH1 0xE0 SHL EQ PUSH2 0x3016 JUMPI PUSH1 0x40 MLOAD PUSH3 0x461BCD PUSH1 0xE5 SHL DUP2 MSTORE PUSH1 0x4 ADD PUSH2 0x77B SWAP1 PUSH2 0x4556 JUMP JUMPDEST PUSH1 0x1 PUSH1 0x1 PUSH1 0xA0 SHL SUB DUP5 AND EXTCODESIZE ISZERO PUSH2 0x2DCD JUMPI PUSH1 0x40 MLOAD PUSH4 0xBC197C81 PUSH1 0xE0 SHL DUP2 MSTORE PUSH1 0x1 PUSH1 0x1 PUSH1 0xA0 SHL SUB DUP6 AND SWAP1 PUSH4 0xBC197C81 SWAP1 PUSH2 0x366B SWAP1 DUP10 SWAP1 DUP10 SWAP1 DUP9 SWAP1 DUP9 SWAP1 DUP9 SWAP1 PUSH1 0x4 ADD PUSH2 0x41DB JUMP JUMPDEST PUSH1 0x20 PUSH1 0x40 MLOAD DUP1 DUP4 SUB DUP2 PUSH1 0x0 DUP8 DUP1 EXTCODESIZE ISZERO DUP1 ISZERO PUSH2 0x3685 JUMPI PUSH1 0x0 DUP1 REVERT JUMPDEST POP GAS CALL SWAP3 POP POP POP DUP1 ISZERO PUSH2 0x36B5 JUMPI POP PUSH1 0x40 DUP1 MLOAD PUSH1 0x1F RETURNDATASIZE SWAP1 DUP2 ADD PUSH1 0x1F NOT AND DUP3 ADD SWAP1 SWAP3 MSTORE PUSH2 0x36B2 SWAP2 DUP2 ADD SWAP1 PUSH2 0x3D2B JUMP JUMPDEST PUSH1 0x1 JUMPDEST PUSH2 0x36C1 JUMPI PUSH2 0x3556 PUSH2 0x481C JUMP JUMPDEST PUSH1 0x1 PUSH1 0x1 PUSH1 0xE0 SHL SUB NOT DUP2 AND PUSH4 0xBC197C81 PUSH1 0xE0 SHL EQ PUSH2 0x3016 JUMPI PUSH1 0x40 MLOAD PUSH3 0x461BCD PUSH1 0xE5 SHL DUP2 MSTORE PUSH1 0x4 ADD PUSH2 0x77B SWAP1 PUSH2 0x4556 JUMP JUMPDEST DUP3 DUP1 SLOAD PUSH2 0x36FD SWAP1 PUSH2 0x474F JUMP JUMPDEST SWAP1 PUSH1 0x0 MSTORE PUSH1 0x20 PUSH1 0x0 KECCAK256 SWAP1 PUSH1 0x1F ADD PUSH1 0x20 SWAP1 DIV DUP2 ADD SWAP3 DUP3 PUSH2 0x371F JUMPI PUSH1 0x0 DUP6 SSTORE PUSH2 0x3765 JUMP JUMPDEST DUP3 PUSH1 0x1F LT PUSH2 0x3738 JUMPI DUP1 MLOAD PUSH1 0xFF NOT AND DUP4 DUP1 ADD OR DUP6 SSTORE PUSH2 0x3765 JUMP JUMPDEST DUP3 DUP1 ADD PUSH1 0x1 ADD DUP6 SSTORE DUP3 ISZERO PUSH2 0x3765 JUMPI SWAP2 DUP3 ADD JUMPDEST DUP3 DUP2 GT ISZERO PUSH2 0x3765 JUMPI DUP3 MLOAD DUP3 SSTORE SWAP2 PUSH1 0x20 ADD SWAP2 SWAP1 PUSH1 0x1 ADD SWAP1 PUSH2 0x374A JUMP JUMPDEST POP PUSH2 0x3771 SWAP3 SWAP2 POP PUSH2 0x3856 JUMP JUMPDEST POP SWAP1 JUMP JUMPDEST DUP3 DUP1 SLOAD PUSH2 0x3781 SWAP1 PUSH2 0x474F JUMP JUMPDEST SWAP1 PUSH1 0x0 MSTORE PUSH1 0x20 PUSH1 0x0 KECCAK256 SWAP1 PUSH1 0x1F ADD PUSH1 0x20 SWAP1 DIV DUP2 ADD SWAP3 DUP3 PUSH2 0x37A3 JUMPI PUSH1 0x0 DUP6 SSTORE PUSH2 0x3765 JUMP JUMPDEST DUP3 PUSH1 0x1F LT PUSH2 0x37B4 JUMPI DUP1 SLOAD DUP6 SSTORE PUSH2 0x3765 JUMP JUMPDEST DUP3 DUP1 ADD PUSH1 0x1 ADD DUP6 SSTORE DUP3 ISZERO PUSH2 0x3765 JUMPI PUSH1 0x0 MSTORE PUSH1 0x20 PUSH1 0x0 KECCAK256 SWAP2 PUSH1 0x1F ADD PUSH1 0x20 SWAP1 DIV DUP3 ADD JUMPDEST DUP3 DUP2 GT ISZERO PUSH2 0x3765 JUMPI DUP3 SLOAD DUP3 SSTORE SWAP2 PUSH1 0x1 ADD SWAP2 SWAP1 PUSH1 0x1 ADD SWAP1 PUSH2 0x37D5 JUMP JUMPDEST PUSH1 0x40 MLOAD DUP1 PUSH2 0x160 ADD PUSH1 0x40 MSTORE DUP1 PUSH1 0x60 DUP2 MSTORE PUSH1 0x20 ADD PUSH1 0x0 DUP2 MSTORE PUSH1 0x20 ADD PUSH1 0x0 DUP2 MSTORE PUSH1 0x20 ADD PUSH1 0x0 DUP2 MSTORE PUSH1 0x20 ADD PUSH2 0x3820 PUSH2 0x386B JUMP JUMPDEST DUP2 MSTORE PUSH1 0x20 ADD PUSH1 0x0 DUP2 MSTORE PUSH1 0x20 ADD PUSH2 0x3834 PUSH2 0x386B JUMP JUMPDEST DUP2 MSTORE PUSH1 0x0 PUSH1 0x20 DUP3 ADD DUP2 SWAP1 MSTORE PUSH1 0x40 DUP3 ADD DUP2 SWAP1 MSTORE PUSH1 0x60 DUP3 ADD DUP2 SWAP1 MSTORE PUSH1 0x80 SWAP1 SWAP2 ADD MSTORE SWAP1 JUMP JUMPDEST JUMPDEST DUP1 DUP3 GT ISZERO PUSH2 0x3771 JUMPI PUSH1 0x0 DUP2 SSTORE PUSH1 0x1 ADD PUSH2 0x3857 JUMP JUMPDEST PUSH1 0x40 MLOAD DUP1 PUSH1 0x80 ADD PUSH1 0x40 MSTORE DUP1 PUSH1 0x60 DUP2 MSTORE PUSH1 0x20 ADD PUSH1 0x60 DUP2 MSTORE PUSH1 0x20 ADD PUSH1 0x0 PUSH1 0xFF AND DUP2 MSTORE PUSH1 0x20 ADD PUSH1 0x0 PUSH1 0x1 PUSH1 0x1 PUSH1 0xA0 SHL SUB AND DUP2 MSTORE POP SWAP1 JUMP JUMPDEST PUSH1 0x0 DUP3 PUSH1 0x1F DUP4 ADD SLT PUSH2 0x38AF JUMPI DUP1 DUP2 REVERT JUMPDEST DUP2 CALLDATALOAD PUSH1 0x20 PUSH2 0x38BC DUP3 PUSH2 0x467B JUMP JUMPDEST PUSH1 0x40 MLOAD PUSH2 0x38C9 DUP3 DUP3 PUSH2 0x47A9 JUMP JUMPDEST DUP4 DUP2 MSTORE DUP3 DUP2 ADD SWAP2 POP DUP6 DUP4 ADD PUSH1 0x5 DUP6 SWAP1 SHL DUP8 ADD DUP5 ADD DUP9 LT ISZERO PUSH2 0x38E8 JUMPI DUP6 DUP7 REVERT JUMPDEST DUP6 JUMPDEST DUP6 DUP2 LT ISZERO PUSH2 0x3906 JUMPI DUP2 CALLDATALOAD DUP5 MSTORE SWAP3 DUP5 ADD SWAP3 SWAP1 DUP5 ADD SWAP1 PUSH1 0x1 ADD PUSH2 0x38EA JUMP JUMPDEST POP SWAP1 SWAP8 SWAP7 POP POP POP POP POP POP POP JUMP JUMPDEST PUSH1 0x0 DUP3 PUSH1 0x1F DUP4 ADD SLT PUSH2 0x3923 JUMPI DUP1 DUP2 REVERT JUMPDEST DUP2 CALLDATALOAD PUSH1 0x1 PUSH1 0x1 PUSH1 0x40 SHL SUB DUP2 GT ISZERO PUSH2 0x393C JUMPI PUSH2 0x393C PUSH2 0x4806 JUMP JUMPDEST PUSH1 0x40 MLOAD PUSH2 0x3953 PUSH1 0x1F DUP4 ADD PUSH1 0x1F NOT AND PUSH1 0x20 ADD DUP3 PUSH2 0x47A9 JUMP JUMPDEST DUP2 DUP2 MSTORE DUP5 PUSH1 0x20 DUP4 DUP7 ADD ADD GT ISZERO PUSH2 0x3967 JUMPI DUP3 DUP4 REVERT JUMPDEST DUP2 PUSH1 0x20 DUP6 ADD PUSH1 0x20 DUP4 ADD CALLDATACOPY SWAP1 DUP2 ADD PUSH1 0x20 ADD SWAP2 SWAP1 SWAP2 MSTORE SWAP3 SWAP2 POP POP JUMP JUMPDEST DUP1 CALLDATALOAD PUSH1 0xFF DUP2 AND DUP2 EQ PUSH2 0x3992 JUMPI PUSH1 0x0 DUP1 REVERT JUMPDEST SWAP2 SWAP1 POP JUMP JUMPDEST PUSH1 0x0 PUSH1 0x20 DUP3 DUP5 SUB SLT ISZERO PUSH2 0x39A8 JUMPI DUP1 DUP2 REVERT JUMPDEST DUP2 CALLDATALOAD PUSH2 0x10AA DUP2 PUSH2 0x48BD JUMP JUMPDEST PUSH1 0x0 DUP1 PUSH1 0x40 DUP4 DUP6 SUB SLT ISZERO PUSH2 0x39C5 JUMPI DUP1 DUP2 REVERT JUMPDEST DUP3 CALLDATALOAD PUSH2 0x39D0 DUP2 PUSH2 0x48BD JUMP JUMPDEST SWAP2 POP PUSH1 0x20 DUP4 ADD CALLDATALOAD PUSH2 0x39E0 DUP2 PUSH2 0x48BD JUMP JUMPDEST DUP1 SWAP2 POP POP SWAP3 POP SWAP3 SWAP1 POP JUMP JUMPDEST PUSH1 0x0 DUP1 PUSH1 0x0 DUP1 PUSH1 0x0 PUSH1 0xA0 DUP7 DUP9 SUB SLT ISZERO PUSH2 0x3A02 JUMPI DUP1 DUP2 REVERT JUMPDEST DUP6 CALLDATALOAD PUSH2 0x3A0D DUP2 PUSH2 0x48BD JUMP JUMPDEST SWAP5 POP PUSH1 0x20 DUP7 ADD CALLDATALOAD PUSH2 0x3A1D DUP2 PUSH2 0x48BD JUMP JUMPDEST SWAP4 POP PUSH1 0x40 DUP7 ADD CALLDATALOAD PUSH1 0x1 PUSH1 0x1 PUSH1 0x40 SHL SUB DUP1 DUP3 GT ISZERO PUSH2 0x3A38 JUMPI DUP3 DUP4 REVERT JUMPDEST PUSH2 0x3A44 DUP10 DUP4 DUP11 ADD PUSH2 0x389F JUMP JUMPDEST SWAP5 POP PUSH1 0x60 DUP9 ADD CALLDATALOAD SWAP2 POP DUP1 DUP3 GT ISZERO PUSH2 0x3A59 JUMPI DUP3 DUP4 REVERT JUMPDEST PUSH2 0x3A65 DUP10 DUP4 DUP11 ADD PUSH2 0x389F JUMP JUMPDEST SWAP4 POP PUSH1 0x80 DUP9 ADD CALLDATALOAD SWAP2 POP DUP1 DUP3 GT ISZERO PUSH2 0x3A7A JUMPI DUP3 DUP4 REVERT JUMPDEST POP PUSH2 0x3A87 DUP9 DUP3 DUP10 ADD PUSH2 0x3913 JUMP JUMPDEST SWAP2 POP POP SWAP3 SWAP6 POP SWAP3 SWAP6 SWAP1 SWAP4 POP JUMP JUMPDEST PUSH1 0x0 DUP1 PUSH1 0x0 DUP1 PUSH1 0x0 PUSH1 0xA0 DUP7 DUP9 SUB SLT ISZERO PUSH2 0x3AAB JUMPI DUP1 DUP2 REVERT JUMPDEST DUP6 CALLDATALOAD PUSH2 0x3AB6 DUP2 PUSH2 0x48BD JUMP JUMPDEST SWAP5 POP PUSH1 0x20 DUP7 ADD CALLDATALOAD PUSH2 0x3AC6 DUP2 PUSH2 0x48BD JUMP JUMPDEST SWAP4 POP PUSH1 0x40 DUP7 ADD CALLDATALOAD SWAP3 POP PUSH1 0x60 DUP7 ADD CALLDATALOAD SWAP2 POP PUSH1 0x80 DUP7 ADD CALLDATALOAD PUSH1 0x1 PUSH1 0x1 PUSH1 0x40 SHL SUB DUP2 GT ISZERO PUSH2 0x3AEE JUMPI DUP2 DUP3 REVERT JUMPDEST PUSH2 0x3A87 DUP9 DUP3 DUP10 ADD PUSH2 0x3913 JUMP JUMPDEST PUSH1 0x0 DUP1 PUSH1 0x40 DUP4 DUP6 SUB SLT ISZERO PUSH2 0x3B0C JUMPI DUP2 DUP3 REVERT JUMPDEST DUP3 CALLDATALOAD PUSH2 0x3B17 DUP2 PUSH2 0x48BD JUMP JUMPDEST SWAP2 POP PUSH1 0x20 DUP4 ADD CALLDATALOAD PUSH2 0x39E0 DUP2 PUSH2 0x48D2 JUMP JUMPDEST PUSH1 0x0 DUP1 PUSH1 0x40 DUP4 DUP6 SUB SLT ISZERO PUSH2 0x3B39 JUMPI DUP2 DUP3 REVERT JUMPDEST DUP3 CALLDATALOAD PUSH2 0x3B44 DUP2 PUSH2 0x48BD JUMP JUMPDEST SWAP5 PUSH1 0x20 SWAP4 SWAP1 SWAP4 ADD CALLDATALOAD SWAP4 POP POP POP JUMP JUMPDEST PUSH1 0x0 DUP1 PUSH1 0x0 PUSH1 0x60 DUP5 DUP7 SUB SLT ISZERO PUSH2 0x3B66 JUMPI DUP1 DUP2 REVERT JUMPDEST DUP4 CALLDATALOAD PUSH2 0x3B71 DUP2 PUSH2 0x48BD JUMP JUMPDEST SWAP6 PUSH1 0x20 DUP6 ADD CALLDATALOAD SWAP6 POP PUSH1 0x40 SWAP1 SWAP5 ADD CALLDATALOAD SWAP4 SWAP3 POP POP POP JUMP JUMPDEST PUSH1 0x0 DUP1 PUSH1 0x40 DUP4 DUP6 SUB SLT ISZERO PUSH2 0x3B98 JUMPI DUP2 DUP3 REVERT JUMPDEST DUP3 CALLDATALOAD PUSH1 0x1 PUSH1 0x1 PUSH1 0x40 SHL SUB DUP1 DUP3 GT ISZERO PUSH2 0x3BAE JUMPI DUP4 DUP5 REVERT JUMPDEST DUP2 DUP6 ADD SWAP2 POP DUP6 PUSH1 0x1F DUP4 ADD SLT PUSH2 0x3BC1 JUMPI DUP4 DUP5 REVERT JUMPDEST DUP2 CALLDATALOAD PUSH1 0x20 PUSH2 0x3BCE DUP3 PUSH2 0x467B JUMP JUMPDEST PUSH1 0x40 MLOAD PUSH2 0x3BDB DUP3 DUP3 PUSH2 0x47A9 JUMP JUMPDEST DUP4 DUP2 MSTORE DUP3 DUP2 ADD SWAP2 POP DUP6 DUP4 ADD PUSH1 0x5 DUP6 SWAP1 SHL DUP8 ADD DUP5 ADD DUP12 LT ISZERO PUSH2 0x3BFA JUMPI DUP9 DUP10 REVERT JUMPDEST DUP9 SWAP7 POP JUMPDEST DUP5 DUP8 LT ISZERO PUSH2 0x3C25 JUMPI DUP1 CALLDATALOAD PUSH2 0x3C11 DUP2 PUSH2 0x48BD JUMP JUMPDEST DUP4 MSTORE PUSH1 0x1 SWAP7 SWAP1 SWAP7 ADD SWAP6 SWAP2 DUP4 ADD SWAP2 DUP4 ADD PUSH2 0x3BFE JUMP JUMPDEST POP SWAP7 POP POP DUP7 ADD CALLDATALOAD SWAP3 POP POP DUP1 DUP3 GT ISZERO PUSH2 0x3C3B JUMPI DUP3 DUP4 REVERT JUMPDEST POP PUSH2 0x3C48 DUP6 DUP3 DUP7 ADD PUSH2 0x389F JUMP JUMPDEST SWAP2 POP POP SWAP3 POP SWAP3 SWAP1 POP JUMP JUMPDEST PUSH1 0x0 PUSH1 0x20 DUP3 DUP5 SUB SLT ISZERO PUSH2 0x3C63 JUMPI DUP1 DUP2 REVERT JUMPDEST DUP2 CALLDATALOAD PUSH1 0x1 PUSH1 0x1 PUSH1 0x40 SHL SUB DUP2 GT ISZERO PUSH2 0x3C78 JUMPI DUP2 DUP3 REVERT JUMPDEST PUSH2 0x3C84 DUP5 DUP3 DUP6 ADD PUSH2 0x389F JUMP JUMPDEST SWAP5 SWAP4 POP POP POP POP JUMP JUMPDEST PUSH1 0x0 PUSH1 0x20 DUP3 DUP5 SUB SLT ISZERO PUSH2 0x3C9D JUMPI DUP1 DUP2 REVERT JUMPDEST DUP2 MLOAD PUSH2 0x10AA DUP2 PUSH2 0x48D2 JUMP JUMPDEST PUSH1 0x0 PUSH1 0x20 DUP3 DUP5 SUB SLT ISZERO PUSH2 0x3CB9 JUMPI DUP1 DUP2 REVERT JUMPDEST POP CALLDATALOAD SWAP2 SWAP1 POP JUMP JUMPDEST PUSH1 0x0 DUP1 PUSH1 0x40 DUP4 DUP6 SUB SLT ISZERO PUSH2 0x3CD2 JUMPI DUP2 DUP3 REVERT JUMPDEST DUP3 CALLDATALOAD SWAP2 POP PUSH1 0x20 DUP4 ADD CALLDATALOAD PUSH2 0x39E0 DUP2 PUSH2 0x48BD JUMP JUMPDEST PUSH1 0x0 DUP1 PUSH1 0x0 PUSH1 0x60 DUP5 DUP7 SUB SLT ISZERO PUSH2 0x3CF8 JUMPI DUP1 DUP2 REVERT JUMPDEST POP POP DUP2 CALLDATALOAD SWAP4 PUSH1 0x20 DUP4 ADD CALLDATALOAD SWAP4 POP PUSH1 0x40 SWAP1 SWAP3 ADD CALLDATALOAD SWAP2 SWAP1 POP JUMP JUMPDEST PUSH1 0x0 PUSH1 0x20 DUP3 DUP5 SUB SLT ISZERO PUSH2 0x3D20 JUMPI DUP1 DUP2 REVERT JUMPDEST DUP2 CALLDATALOAD PUSH2 0x10AA DUP2 PUSH2 0x48E0 JUMP JUMPDEST PUSH1 0x0 PUSH1 0x20 DUP3 DUP5 SUB SLT ISZERO PUSH2 0x3D3C JUMPI DUP1 DUP2 REVERT JUMPDEST DUP2 MLOAD PUSH2 0x10AA DUP2 PUSH2 0x48E0 JUMP JUMPDEST PUSH1 0x0 DUP1 PUSH1 0x0 DUP1 PUSH1 0x0 DUP1 PUSH1 0x0 DUP1 PUSH1 0x0 PUSH2 0x120 DUP11 DUP13 SUB SLT ISZERO PUSH2 0x3D65 JUMPI DUP7 DUP8 REVERT JUMPDEST DUP10 CALLDATALOAD PUSH1 0x1 PUSH1 0x1 PUSH1 0x40 SHL SUB DUP1 DUP3 GT ISZERO PUSH2 0x3D7B JUMPI DUP9 DUP10 REVERT JUMPDEST PUSH2 0x3D87 DUP14 DUP4 DUP15 ADD PUSH2 0x3913 JUMP JUMPDEST SWAP11 POP PUSH1 0x20 DUP13 ADD CALLDATALOAD SWAP10 POP PUSH1 0x40 DUP13 ADD CALLDATALOAD SWAP9 POP PUSH1 0x60 DUP13 ADD CALLDATALOAD SWAP2 POP DUP1 DUP3 GT ISZERO PUSH2 0x3DAA JUMPI DUP6 DUP7 REVERT JUMPDEST PUSH2 0x3DB6 DUP14 DUP4 DUP15 ADD PUSH2 0x389F JUMP JUMPDEST SWAP8 POP PUSH1 0x80 DUP13 ADD CALLDATALOAD SWAP7 POP PUSH1 0xA0 DUP13 ADD CALLDATALOAD SWAP6 POP PUSH1 0xC0 DUP13 ADD CALLDATALOAD SWAP5 POP PUSH1 0xE0 DUP13 ADD CALLDATALOAD SWAP2 POP DUP1 DUP3 GT ISZERO PUSH2 0x3DE0 JUMPI DUP4 DUP5 REVERT JUMPDEST POP PUSH2 0x3DED DUP13 DUP3 DUP14 ADD PUSH2 0x389F JUMP JUMPDEST SWAP3 POP POP PUSH2 0x100 DUP11 ADD CALLDATALOAD SWAP1 POP SWAP3 SWAP6 SWAP9 POP SWAP3 SWAP6 SWAP9 POP SWAP3 SWAP6 SWAP9 JUMP JUMPDEST PUSH1 0x0 PUSH1 0x20 DUP3 DUP5 SUB SLT ISZERO PUSH2 0x3E16 JUMPI DUP1 DUP2 REVERT JUMPDEST DUP2 CALLDATALOAD PUSH1 0x1 PUSH1 0x1 PUSH1 0x40 SHL SUB DUP1 DUP3 GT ISZERO PUSH2 0x3E2C JUMPI DUP3 DUP4 REVERT JUMPDEST SWAP1 DUP4 ADD SWAP1 PUSH1 0x60 DUP3 DUP7 SUB SLT ISZERO PUSH2 0x3E3F JUMPI DUP3 DUP4 REVERT JUMPDEST PUSH1 0x40 MLOAD PUSH1 0x60 DUP2 ADD DUP2 DUP2 LT DUP4 DUP3 GT OR ISZERO PUSH2 0x3E5A JUMPI PUSH2 0x3E5A PUSH2 0x4806 JUMP JUMPDEST PUSH1 0x40 MSTORE DUP3 CALLDATALOAD DUP3 DUP2 GT ISZERO PUSH2 0x3E6B JUMPI DUP5 DUP6 REVERT JUMPDEST PUSH2 0x3E77 DUP8 DUP3 DUP7 ADD PUSH2 0x3913 JUMP JUMPDEST DUP3 MSTORE POP PUSH1 0x20 DUP4 ADD CALLDATALOAD DUP3 DUP2 GT ISZERO PUSH2 0x3E8B JUMPI DUP5 DUP6 REVERT JUMPDEST PUSH2 0x3E97 DUP8 DUP3 DUP7 ADD PUSH2 0x3913 JUMP JUMPDEST PUSH1 0x20 DUP4 ADD MSTORE POP PUSH2 0x3EA9 PUSH1 0x40 DUP5 ADD PUSH2 0x3981 JUMP JUMPDEST PUSH1 0x40 DUP3 ADD MSTORE SWAP6 SWAP5 POP POP POP POP POP JUMP JUMPDEST PUSH1 0x0 PUSH1 0x20 DUP3 DUP5 SUB SLT ISZERO PUSH2 0x3EC8 JUMPI DUP1 DUP2 REVERT JUMPDEST DUP2 CALLDATALOAD PUSH1 0x1 PUSH1 0x1 PUSH1 0x40 SHL SUB DUP1 DUP3 GT ISZERO PUSH2 0x3EDE JUMPI DUP3 DUP4 REVERT JUMPDEST SWAP1 DUP4 ADD SWAP1 PUSH1 0x80 DUP3 DUP7 SUB SLT ISZERO PUSH2 0x3EF1 JUMPI DUP3 DUP4 REVERT JUMPDEST PUSH1 0x40 MLOAD PUSH2 0x3EFD DUP2 PUSH2 0x4784 JUMP JUMPDEST DUP3 CALLDATALOAD DUP3 DUP2 GT ISZERO PUSH2 0x3F0B JUMPI DUP5 DUP6 REVERT JUMPDEST PUSH2 0x3F17 DUP8 DUP3 DUP7 ADD PUSH2 0x3913 JUMP JUMPDEST DUP3 MSTORE POP PUSH1 0x20 DUP4 ADD CALLDATALOAD DUP3 DUP2 GT ISZERO PUSH2 0x3F2B JUMPI DUP5 DUP6 REVERT JUMPDEST PUSH2 0x3F37 DUP8 DUP3 DUP7 ADD PUSH2 0x3913 JUMP JUMPDEST PUSH1 0x20 DUP4 ADD MSTORE POP PUSH2 0x3F49 PUSH1 0x40 DUP5 ADD PUSH2 0x3981 JUMP JUMPDEST PUSH1 0x40 DUP3 ADD MSTORE PUSH1 0x60 DUP4 ADD CALLDATALOAD SWAP3 POP PUSH2 0x3F5E DUP4 PUSH2 0x48BD JUMP JUMPDEST PUSH1 0x60 DUP2 ADD SWAP3 SWAP1 SWAP3 MSTORE POP SWAP4 SWAP3 POP POP POP JUMP JUMPDEST PUSH1 0x0 PUSH1 0x20 DUP3 DUP5 SUB SLT ISZERO PUSH2 0x3F7F JUMPI DUP1 DUP2 REVERT JUMPDEST POP MLOAD SWAP2 SWAP1 POP JUMP JUMPDEST PUSH1 0x0 DUP1 PUSH1 0x40 DUP4 DUP6 SUB SLT ISZERO PUSH2 0x3F98 JUMPI DUP2 DUP3 REVERT JUMPDEST DUP3 CALLDATALOAD SWAP2 POP PUSH1 0x20 DUP4 ADD CALLDATALOAD PUSH1 0x1 PUSH1 0x1 PUSH1 0x40 SHL SUB DUP2 GT ISZERO PUSH2 0x3FB4 JUMPI DUP2 DUP3 REVERT JUMPDEST PUSH2 0x3C48 DUP6 DUP3 DUP7 ADD PUSH2 0x3913 JUMP JUMPDEST PUSH1 0x0 DUP1 PUSH1 0x40 DUP4 DUP6 SUB SLT ISZERO PUSH2 0x3FD2 JUMPI DUP2 DUP3 REVERT JUMPDEST POP POP DUP1 CALLDATALOAD SWAP3 PUSH1 0x20 SWAP1 SWAP2 ADD CALLDATALOAD SWAP2 POP JUMP JUMPDEST PUSH1 0x0 DUP2 MLOAD DUP1 DUP5 MSTORE PUSH1 0x20 DUP1 DUP6 ADD SWAP5 POP DUP1 DUP5 ADD DUP4 JUMPDEST DUP4 DUP2 LT ISZERO PUSH2 0x4010 JUMPI DUP2 MLOAD DUP8 MSTORE SWAP6 DUP3 ADD SWAP6 SWAP1 DUP3 ADD SWAP1 PUSH1 0x1 ADD PUSH2 0x3FF4 JUMP JUMPDEST POP SWAP5 SWAP6 SWAP5 POP POP POP POP POP JUMP JUMPDEST PUSH1 0x0 DUP2 MLOAD DUP1 DUP5 MSTORE PUSH2 0x4033 DUP2 PUSH1 0x20 DUP7 ADD PUSH1 0x20 DUP7 ADD PUSH2 0x470C JUMP JUMPDEST PUSH1 0x1F ADD PUSH1 0x1F NOT AND SWAP3 SWAP1 SWAP3 ADD PUSH1 0x20 ADD SWAP3 SWAP2 POP POP JUMP JUMPDEST PUSH1 0x0 DUP2 MLOAD PUSH1 0x80 DUP5 MSTORE PUSH2 0x405C PUSH1 0x80 DUP6 ADD DUP3 PUSH2 0x401B JUMP JUMPDEST SWAP1 POP PUSH1 0x20 DUP4 ADD MLOAD DUP5 DUP3 SUB PUSH1 0x20 DUP7 ADD MSTORE PUSH2 0x4075 DUP3 DUP3 PUSH2 0x401B JUMP JUMPDEST PUSH1 0x40 DUP6 DUP2 ADD MLOAD PUSH1 0xFF AND SWAP1 DUP8 ADD MSTORE PUSH1 0x60 SWAP5 DUP6 ADD MLOAD PUSH1 0x1 PUSH1 0x1 PUSH1 0xA0 SHL SUB AND SWAP5 SWAP1 SWAP6 ADD SWAP4 SWAP1 SWAP4 MSTORE POP SWAP2 SWAP3 SWAP2 POP POP JUMP JUMPDEST PUSH1 0x0 DUP3 MLOAD PUSH2 0x40B3 DUP2 DUP5 PUSH1 0x20 DUP8 ADD PUSH2 0x470C JUMP JUMPDEST SWAP2 SWAP1 SWAP2 ADD SWAP3 SWAP2 POP POP JUMP JUMPDEST PUSH1 0x0 DUP1 DUP4 SLOAD DUP3 PUSH1 0x1 DUP3 DUP2 SHR SWAP2 POP DUP1 DUP4 AND DUP1 PUSH2 0x40D9 JUMPI PUSH1 0x7F DUP4 AND SWAP3 POP JUMPDEST PUSH1 0x20 DUP1 DUP5 LT DUP3 EQ ISZERO PUSH2 0x40F9 JUMPI PUSH4 0x4E487B71 PUSH1 0xE0 SHL DUP8 MSTORE PUSH1 0x22 PUSH1 0x4 MSTORE PUSH1 0x24 DUP8 REVERT JUMPDEST DUP2 DUP1 ISZERO PUSH2 0x410D JUMPI PUSH1 0x1 DUP2 EQ PUSH2 0x411E JUMPI PUSH2 0x414A JUMP JUMPDEST PUSH1 0xFF NOT DUP7 AND DUP10 MSTORE DUP5 DUP10 ADD SWAP7 POP PUSH2 0x414A JUMP JUMPDEST PUSH1 0x0 DUP11 DUP2 MSTORE PUSH1 0x20 SWAP1 KECCAK256 DUP9 JUMPDEST DUP7 DUP2 LT ISZERO PUSH2 0x4142 JUMPI DUP2 SLOAD DUP12 DUP3 ADD MSTORE SWAP1 DUP6 ADD SWAP1 DUP4 ADD PUSH2 0x4129 JUMP JUMPDEST POP POP DUP5 DUP10 ADD SWAP7 POP JUMPDEST POP SWAP5 SWAP9 SWAP8 POP POP POP POP POP POP POP POP JUMP JUMPDEST PUSH23 0x20B1B1B2B9B9A1B7B73A3937B61D1030B1B1B7BAB73A1 PUSH1 0x4D SHL DUP2 MSTORE PUSH1 0x0 DUP4 MLOAD PUSH2 0x418A DUP2 PUSH1 0x17 DUP6 ADD PUSH1 0x20 DUP9 ADD PUSH2 0x470C JUMP JUMPDEST PUSH17 0x1034B99036B4B9B9B4B733903937B6329 PUSH1 0x7D SHL PUSH1 0x17 SWAP2 DUP5 ADD SWAP2 DUP3 ADD MSTORE DUP4 MLOAD PUSH2 0x41BB DUP2 PUSH1 0x28 DUP5 ADD PUSH1 0x20 DUP9 ADD PUSH2 0x470C JUMP JUMPDEST ADD PUSH1 0x28 ADD SWAP5 SWAP4 POP POP POP POP JUMP JUMPDEST PUSH1 0x1 PUSH1 0x1 PUSH1 0xA0 SHL SUB SWAP2 SWAP1 SWAP2 AND DUP2 MSTORE PUSH1 0x20 ADD SWAP1 JUMP JUMPDEST PUSH1 0x1 PUSH1 0x1 PUSH1 0xA0 SHL SUB DUP7 DUP2 AND DUP3 MSTORE DUP6 AND PUSH1 0x20 DUP3 ADD MSTORE PUSH1 0xA0 PUSH1 0x40 DUP3 ADD DUP2 SWAP1 MSTORE PUSH1 0x0 SWAP1 PUSH2 0x4207 SWAP1 DUP4 ADD DUP7 PUSH2 0x3FE1 JUMP JUMPDEST DUP3 DUP2 SUB PUSH1 0x60 DUP5 ADD MSTORE PUSH2 0x4219 DUP2 DUP7 PUSH2 0x3FE1 JUMP JUMPDEST SWAP1 POP DUP3 DUP2 SUB PUSH1 0x80 DUP5 ADD MSTORE PUSH2 0x422D DUP2 DUP6 PUSH2 0x401B JUMP JUMPDEST SWAP9 SWAP8 POP POP POP POP POP POP POP POP JUMP JUMPDEST PUSH1 0x1 PUSH1 0x1 PUSH1 0xA0 SHL SUB DUP7 DUP2 AND DUP3 MSTORE DUP6 AND PUSH1 0x20 DUP3 ADD MSTORE PUSH1 0x40 DUP2 ADD DUP5 SWAP1 MSTORE PUSH1 0x60 DUP2 ADD DUP4 SWAP1 MSTORE PUSH1 0xA0 PUSH1 0x80 DUP3 ADD DUP2 SWAP1 MSTORE PUSH1 0x0 SWAP1 PUSH2 0x4273 SWAP1 DUP4 ADD DUP5 PUSH2 0x401B JUMP JUMPDEST SWAP8 SWAP7 POP POP POP POP POP POP POP JUMP JUMPDEST PUSH1 0x1 PUSH1 0x1 PUSH1 0xA0 SHL SUB SWAP3 SWAP1 SWAP3 AND DUP3 MSTORE PUSH1 0x20 DUP3 ADD MSTORE PUSH1 0x40 ADD SWAP1 JUMP JUMPDEST PUSH1 0x1 PUSH1 0x1 PUSH1 0xA0 SHL SUB SWAP4 SWAP1 SWAP4 AND DUP4 MSTORE PUSH1 0x20 DUP4 ADD SWAP2 SWAP1 SWAP2 MSTORE PUSH1 0x40 DUP3 ADD MSTORE PUSH1 0x60 ADD SWAP1 JUMP JUMPDEST PUSH1 0x20 DUP1 DUP3 MSTORE DUP3 MLOAD DUP3 DUP3 ADD DUP2 SWAP1 MSTORE PUSH1 0x0 SWAP2 SWAP1 DUP5 DUP3 ADD SWAP1 PUSH1 0x40 DUP6 ADD SWAP1 DUP5 JUMPDEST DUP2 DUP2 LT ISZERO PUSH2 0x42F9 JUMPI DUP4 MLOAD PUSH1 0x1 PUSH1 0x1 PUSH1 0xA0 SHL SUB AND DUP4 MSTORE SWAP3 DUP5 ADD SWAP3 SWAP2 DUP5 ADD SWAP2 PUSH1 0x1 ADD PUSH2 0x42D4 JUMP JUMPDEST POP SWAP1 SWAP7 SWAP6 POP POP POP POP POP POP JUMP JUMPDEST PUSH1 0x0 PUSH1 0x20 DUP1 DUP4 ADD DUP2 DUP5 MSTORE DUP1 DUP6 MLOAD DUP1 DUP4 MSTORE PUSH1 0x40 SWAP3 POP DUP3 DUP7 ADD SWAP2 POP DUP3 DUP2 PUSH1 0x5 SHL DUP8 ADD ADD DUP5 DUP9 ADD DUP7 JUMPDEST DUP4 DUP2 LT ISZERO PUSH2 0x43F8 JUMPI PUSH1 0x3F NOT DUP10 DUP5 SUB ADD DUP6 MSTORE DUP2 MLOAD PUSH2 0x160 DUP2 MLOAD DUP2 DUP7 MSTORE PUSH2 0x4352 DUP3 DUP8 ADD DUP3 PUSH2 0x401B JUMP JUMPDEST SWAP2 POP POP DUP9 DUP3 ADD MLOAD DUP10 DUP7 ADD MSTORE DUP8 DUP3 ADD MLOAD DUP9 DUP7 ADD MSTORE PUSH1 0x60 DUP1 DUP4 ADD MLOAD DUP2 DUP8 ADD MSTORE POP PUSH1 0x80 DUP1 DUP4 ADD MLOAD DUP7 DUP4 SUB DUP3 DUP9 ADD MSTORE PUSH2 0x4387 DUP4 DUP3 PUSH2 0x4047 JUMP JUMPDEST SWAP3 POP POP POP PUSH1 0xA0 DUP1 DUP4 ADD MLOAD DUP2 DUP8 ADD MSTORE POP PUSH1 0xC0 DUP1 DUP4 ADD MLOAD DUP7 DUP4 SUB DUP3 DUP9 ADD MSTORE PUSH2 0x43AD DUP4 DUP3 PUSH2 0x4047 JUMP JUMPDEST SWAP3 POP POP POP PUSH1 0xE0 DUP1 DUP4 ADD MLOAD PUSH2 0x43C4 DUP3 DUP9 ADD DUP3 ISZERO ISZERO SWAP1 MSTORE JUMP JUMPDEST POP POP PUSH2 0x100 DUP3 DUP2 ADD MLOAD SWAP1 DUP7 ADD MSTORE PUSH2 0x120 DUP1 DUP4 ADD MLOAD SWAP1 DUP7 ADD MSTORE PUSH2 0x140 SWAP2 DUP3 ADD MLOAD SWAP2 SWAP1 SWAP5 ADD MSTORE SWAP4 DUP7 ADD SWAP4 SWAP1 DUP7 ADD SWAP1 PUSH1 0x1 ADD PUSH2 0x432B JUMP JUMPDEST POP SWAP1 SWAP9 SWAP8 POP POP POP POP POP POP POP POP JUMP JUMPDEST PUSH1 0x20 DUP2 MSTORE PUSH1 0x0 PUSH2 0x10AA PUSH1 0x20 DUP4 ADD DUP5 PUSH2 0x3FE1 JUMP JUMPDEST PUSH1 0x40 DUP2 MSTORE PUSH1 0x0 PUSH2 0x442C PUSH1 0x40 DUP4 ADD DUP6 PUSH2 0x3FE1 JUMP JUMPDEST DUP3 DUP2 SUB PUSH1 0x20 DUP5 ADD MSTORE PUSH2 0x1B3D DUP2 DUP6 PUSH2 0x3FE1 JUMP JUMPDEST PUSH1 0x20 DUP2 MSTORE PUSH1 0x0 PUSH2 0x10AA PUSH1 0x20 DUP4 ADD DUP5 PUSH2 0x401B JUMP JUMPDEST PUSH1 0x60 DUP2 MSTORE PUSH1 0x0 PUSH2 0x4464 PUSH1 0x60 DUP4 ADD DUP7 PUSH2 0x401B JUMP JUMPDEST DUP3 DUP2 SUB PUSH1 0x20 DUP5 ADD MSTORE PUSH2 0x4476 DUP2 DUP7 PUSH2 0x401B JUMP JUMPDEST SWAP2 POP POP PUSH1 0xFF DUP4 AND PUSH1 0x40 DUP4 ADD MSTORE SWAP5 SWAP4 POP POP POP POP JUMP JUMPDEST PUSH1 0x80 DUP2 MSTORE PUSH1 0x0 PUSH2 0x449D PUSH1 0x80 DUP4 ADD DUP8 PUSH2 0x401B JUMP JUMPDEST DUP3 DUP2 SUB PUSH1 0x20 DUP5 ADD MSTORE PUSH2 0x44AF DUP2 DUP8 PUSH2 0x401B JUMP JUMPDEST PUSH1 0xFF SWAP6 SWAP1 SWAP6 AND PUSH1 0x40 DUP5 ADD MSTORE POP POP PUSH1 0x1 PUSH1 0x1 PUSH1 0xA0 SHL SUB SWAP2 SWAP1 SWAP2 AND PUSH1 0x60 SWAP1 SWAP2 ADD MSTORE SWAP3 SWAP2 POP POP JUMP JUMPDEST PUSH1 0x0 PUSH2 0x160 DUP1 DUP4 MSTORE PUSH2 0x44E8 DUP2 DUP5 ADD DUP16 PUSH2 0x401B JUMP JUMPDEST SWAP1 POP DUP13 PUSH1 0x20 DUP5 ADD MSTORE DUP12 PUSH1 0x40 DUP5 ADD MSTORE DUP11 PUSH1 0x60 DUP5 ADD MSTORE DUP3 DUP2 SUB PUSH1 0x80 DUP5 ADD MSTORE PUSH2 0x450E DUP2 DUP12 PUSH2 0x4047 JUMP JUMPDEST SWAP1 POP DUP9 PUSH1 0xA0 DUP5 ADD MSTORE DUP3 DUP2 SUB PUSH1 0xC0 DUP5 ADD MSTORE PUSH2 0x4528 DUP2 DUP10 PUSH2 0x4047 JUMP JUMPDEST SWAP7 ISZERO ISZERO PUSH1 0xE0 DUP5 ADD MSTORE POP POP PUSH2 0x100 DUP2 ADD SWAP4 SWAP1 SWAP4 MSTORE PUSH2 0x120 DUP4 ADD SWAP2 SWAP1 SWAP2 MSTORE PUSH2 0x140 SWAP1 SWAP2 ADD MSTORE SWAP8 SWAP7 POP POP POP POP POP POP POP JUMP JUMPDEST PUSH1 0x20 DUP1 DUP3 MSTORE PUSH1 0x28 SWAP1 DUP3 ADD MSTORE PUSH32 0x455243313135353A204552433131353552656365697665722072656A65637465 PUSH1 0x40 DUP3 ADD MSTORE PUSH8 0x6420746F6B656E73 PUSH1 0xC0 SHL PUSH1 0x60 DUP3 ADD MSTORE PUSH1 0x80 ADD SWAP1 JUMP JUMPDEST PUSH1 0x20 DUP1 DUP3 MSTORE PUSH1 0x25 SWAP1 DUP3 ADD MSTORE PUSH32 0x455243313135353A207472616E7366657220746F20746865207A65726F206164 PUSH1 0x40 DUP3 ADD MSTORE PUSH5 0x6472657373 PUSH1 0xD8 SHL PUSH1 0x60 DUP3 ADD MSTORE PUSH1 0x80 ADD SWAP1 JUMP JUMPDEST PUSH1 0x20 DUP1 DUP3 MSTORE PUSH1 0x2A SWAP1 DUP3 ADD MSTORE PUSH32 0x455243313135353A20696E73756666696369656E742062616C616E636520666F PUSH1 0x40 DUP3 ADD MSTORE PUSH10 0x39103A3930B739B332B9 PUSH1 0xB1 SHL PUSH1 0x60 DUP3 ADD MSTORE PUSH1 0x80 ADD SWAP1 JUMP JUMPDEST PUSH1 0x20 DUP1 DUP3 MSTORE DUP2 DUP2 ADD MSTORE PUSH32 0x4F776E61626C653A2063616C6C6572206973206E6F7420746865206F776E6572 PUSH1 0x40 DUP3 ADD MSTORE PUSH1 0x60 ADD SWAP1 JUMP JUMPDEST DUP3 DUP2 MSTORE PUSH1 0x40 PUSH1 0x20 DUP3 ADD MSTORE PUSH1 0x0 PUSH2 0x3C84 PUSH1 0x40 DUP4 ADD DUP5 PUSH2 0x401B JUMP JUMPDEST PUSH1 0x0 PUSH1 0x1 PUSH1 0x1 PUSH1 0x40 SHL SUB DUP3 GT ISZERO PUSH2 0x4694 JUMPI PUSH2 0x4694 PUSH2 0x4806 JUMP JUMPDEST POP PUSH1 0x5 SHL PUSH1 0x20 ADD SWAP1 JUMP JUMPDEST PUSH1 0x0 DUP3 NOT DUP3 GT ISZERO PUSH2 0x46B1 JUMPI PUSH2 0x46B1 PUSH2 0x47F0 JUMP JUMPDEST POP ADD SWAP1 JUMP JUMPDEST PUSH1 0x0 DUP3 PUSH2 0x46D1 JUMPI PUSH4 0x4E487B71 PUSH1 0xE0 SHL DUP2 MSTORE PUSH1 0x12 PUSH1 0x4 MSTORE PUSH1 0x24 DUP2 REVERT JUMPDEST POP DIV SWAP1 JUMP JUMPDEST PUSH1 0x0 DUP2 PUSH1 0x0 NOT DIV DUP4 GT DUP3 ISZERO ISZERO AND ISZERO PUSH2 0x46F0 JUMPI PUSH2 0x46F0 PUSH2 0x47F0 JUMP JUMPDEST POP MUL SWAP1 JUMP JUMPDEST PUSH1 0x0 DUP3 DUP3 LT ISZERO PUSH2 0x4707 JUMPI PUSH2 0x4707 PUSH2 0x47F0 JUMP JUMPDEST POP SUB SWAP1 JUMP JUMPDEST PUSH1 0x0 JUMPDEST DUP4 DUP2 LT ISZERO PUSH2 0x4727 JUMPI DUP2 DUP2 ADD MLOAD DUP4 DUP3 ADD MSTORE PUSH1 0x20 ADD PUSH2 0x470F JUMP JUMPDEST DUP4 DUP2 GT ISZERO PUSH2 0xC43 JUMPI POP POP PUSH1 0x0 SWAP2 ADD MSTORE JUMP JUMPDEST PUSH1 0x0 DUP2 PUSH2 0x4747 JUMPI PUSH2 0x4747 PUSH2 0x47F0 JUMP JUMPDEST POP PUSH1 0x0 NOT ADD SWAP1 JUMP JUMPDEST PUSH1 0x1 DUP2 DUP2 SHR SWAP1 DUP3 AND DUP1 PUSH2 0x4763 JUMPI PUSH1 0x7F DUP3 AND SWAP2 POP JUMPDEST PUSH1 0x20 DUP3 LT DUP2 EQ ISZERO PUSH2 0x2635 JUMPI PUSH4 0x4E487B71 PUSH1 0xE0 SHL PUSH1 0x0 MSTORE PUSH1 0x22 PUSH1 0x4 MSTORE PUSH1 0x24 PUSH1 0x0 REVERT JUMPDEST PUSH1 0x80 DUP2 ADD PUSH1 0x1 PUSH1 0x1 PUSH1 0x40 SHL SUB DUP2 GT DUP3 DUP3 LT OR ISZERO PUSH2 0x47A3 JUMPI PUSH2 0x47A3 PUSH2 0x4806 JUMP JUMPDEST PUSH1 0x40 MSTORE POP JUMP JUMPDEST PUSH1 0x1F DUP3 ADD PUSH1 0x1F NOT AND DUP2 ADD PUSH1 0x1 PUSH1 0x1 PUSH1 0x40 SHL SUB DUP2 GT DUP3 DUP3 LT OR ISZERO PUSH2 0x47CE JUMPI PUSH2 0x47CE PUSH2 0x4806 JUMP JUMPDEST PUSH1 0x40 MSTORE POP POP JUMP JUMPDEST PUSH1 0x0 PUSH1 0x0 NOT DUP3 EQ ISZERO PUSH2 0x47E9 JUMPI PUSH2 0x47E9 PUSH2 0x47F0 JUMP JUMPDEST POP PUSH1 0x1 ADD SWAP1 JUMP JUMPDEST PUSH4 0x4E487B71 PUSH1 0xE0 SHL PUSH1 0x0 MSTORE PUSH1 0x11 PUSH1 0x4 MSTORE PUSH1 0x24 PUSH1 0x0 REVERT JUMPDEST PUSH4 0x4E487B71 PUSH1 0xE0 SHL PUSH1 0x0 MSTORE PUSH1 0x41 PUSH1 0x4 MSTORE PUSH1 0x24 PUSH1 0x0 REVERT JUMPDEST PUSH1 0x0 PUSH1 0x3 RETURNDATASIZE GT ISZERO PUSH2 0x4831 JUMPI PUSH1 0x4 DUP2 DUP3 RETURNDATACOPY MLOAD PUSH1 0xE0 SHR JUMPDEST SWAP1 JUMP JUMPDEST PUSH1 0x0 PUSH1 0x44 RETURNDATASIZE LT ISZERO PUSH2 0x4842 JUMPI SWAP1 JUMP JUMPDEST PUSH1 0x40 MLOAD PUSH1 0x3 NOT RETURNDATASIZE DUP2 ADD PUSH1 0x4 DUP4 RETURNDATACOPY DUP2 MLOAD RETURNDATASIZE PUSH1 0x1 PUSH1 0x1 PUSH1 0x40 SHL SUB DUP1 DUP4 GT PUSH1 0x24 DUP5 ADD DUP4 LT OR ISZERO PUSH2 0x4871 JUMPI POP POP POP POP POP SWAP1 JUMP JUMPDEST DUP3 DUP6 ADD SWAP2 POP DUP2 MLOAD DUP2 DUP2 GT ISZERO PUSH2 0x4889 JUMPI POP POP POP POP POP POP SWAP1 JUMP JUMPDEST DUP5 RETURNDATASIZE DUP8 ADD ADD PUSH1 0x20 DUP3 DUP6 ADD ADD GT ISZERO PUSH2 0x48A3 JUMPI POP POP POP POP POP POP SWAP1 JUMP JUMPDEST PUSH2 0x48B2 PUSH1 0x20 DUP3 DUP7 ADD ADD DUP8 PUSH2 0x47A9 JUMP JUMPDEST POP SWAP1 SWAP6 SWAP5 POP POP POP POP POP JUMP JUMPDEST PUSH1 0x1 PUSH1 0x1 PUSH1 0xA0 SHL SUB DUP2 AND DUP2 EQ PUSH2 0x2A20 JUMPI PUSH1 0x0 DUP1 REVERT JUMPDEST DUP1 ISZERO ISZERO DUP2 EQ PUSH2 0x2A20 JUMPI PUSH1 0x0 DUP1 REVERT JUMPDEST PUSH1 0x1 PUSH1 0x1 PUSH1 0xE0 SHL SUB NOT DUP2 AND DUP2 EQ PUSH2 0x2A20 JUMPI PUSH1 0x0 DUP1 REVERT INVALID 0xC3 0xD5 DUP2 PUSH9 0xC5AE7397731D063D5B 0xBF RETURNDATASIZE PUSH6 0x7854427343F4 0xC0 DUP4 0x24 0xF PUSH27 0xACAA2D0F62A832E51231992A61BBBB7D0EBC1D5C53E1C9319CE30D 0xE2 0xC8 LOG3 DUP8 SSTORE GT 0xC6 0xA9 DUP4 GASLIMIT LOG2 PUSH5 0x6970667358 0x22 SLT KECCAK256 SGT 0x23 0x2F 0x49 PUSH27 0x35767C06884C8ACF12F1C65EFC5FB9261305CC13DA31169AB242DB PUSH5 0x736F6C6343 STOP ADDMOD DIV STOP CALLER ",
  "sha1": "14cae56f58866bb980c0f19eff4efe3cae2b01cf",
  "source": "// SPDX-License-Identifier: BUSL-1.1\n\npragma solidity ^0.8.0;\n\nimport \"@openzeppelin/contracts/utils/Address.sol\";\nimport \"@openzeppelin/contracts/token/ERC1155/ERC1155.sol\";\nimport \"@openzeppelin/contracts/access/Ownable.sol\";\nimport \"@openzeppelin/contracts/access/AccessControl.sol\";\nimport \"../Interfaces/Interfaces.sol\";\n\n/**\n * @author Heisenberg\n * @title Tournament Manager\n * @notice The contract which manages the Tournaments\n */\ncontract TournamentManager is ERC1155(\"sample_uri\"), Ownable, AccessControl {\n    address public ticketFeeReceipient;\n    uint256[] public liveTournaments;\n    ITournamentManager.Asset[] public underlyingAssets;\n    ITournamentManager.ERC20Asset[] public tradableAssets;\n    uint256 public nextTournamentId = 0;\n    bytes32 public constant LIQUIDITY_POOL_ROLE =\n        keccak256(\"LIQUIDITY_POOL_ROLE\");\n\n    mapping(bytes32 => ITournamentManager.Rank) public tournamentUserRank;\n    mapping(uint256 => mapping(uint256 => uint256))\n        public tournamentUserPlayTokenBalance;\n    mapping(uint256 => mapping(address => bool)) public tournamentUsers;\n    mapping(uint256 => mapping(address => uint256))\n        public tournamentUserTicketCount;\n    mapping(uint256 => ITournamentManager.Tournament) public tournaments;\n    mapping(uint256 => uint256[]) public tournamentRewardAmounts;\n    mapping(uint256 => mapping(string => bool))\n        public tournamentUnderlyingAssets;\n\n    event UpdateUserRank(address user, uint256 tournamentId, bytes32 id);\n    event BuyTicket(address user, uint256 tournamentId);\n    event ClaimReward(address user, uint256 tournamentId, uint256 reward);\n    event CreateTournament(uint256 tournamentId, string name);\n    event AddUnderlyingAsset(string name);\n    event AddTradableAsset(string name);\n\n    constructor(address _ticketFeeReceipient) public {\n        ticketFeeReceipient = _ticketFeeReceipient;\n        _setupRole(DEFAULT_ADMIN_ROLE, msg.sender);\n    }\n\n    /************************************************\n     *  READ FUNCTIONS\n     ***********************************************/\n\n    function bulkFetchTournaments(uint256[] memory tournamentIds)\n        public\n        view\n        returns (ITournamentManager.Tournament[] memory bulkTournaments)\n    {\n        bulkTournaments = new ITournamentManager.Tournament[](\n            tournamentIds.length\n        );\n        for (uint256 i = 0; i < tournamentIds.length; i++) {\n            bulkTournaments[i] = tournaments[tournamentIds[i]];\n        }\n    }\n\n    function getMid(\n        bytes32 start,\n        bytes32 end,\n        uint256 tournamentId\n    ) public view returns (bytes32) {\n        bytes32 slow = start;\n        bytes32 fast = start;\n\n        while (fast != end) {\n            fast = tournamentUserRank[fast].next;\n            if (fast != end) {\n                slow = tournamentUserRank[slow].next;\n                fast = tournamentUserRank[fast].next;\n            }\n        }\n        return slow;\n    }\n\n    function getSortedPreviousRankIndex(\n        address user,\n        uint256 tournamentId,\n        uint256 newUserScore\n    ) public view returns (bytes32 previousIndex) {\n        ITournamentManager.Tournament storage tournament = tournaments[\n            tournamentId\n        ];\n\n        if (\n            (tournament.rankFirst == 0) ||\n            tournamentUserRank[tournament.rankFirst].score <= newUserScore\n        ) {\n            return 0;\n        } else if (\n            tournamentUserRank[tournament.rankLast].score > newUserScore\n        ) {\n            return tournament.rankLast;\n        } else {\n            // Get index from binary search\n            bytes32 low = tournament.rankFirst;\n            bytes32 high = tournament.rankLast;\n\n            while (tournamentUserRank[low].next != high) {\n                bytes32 mid = getMid(low, high, tournamentId);\n\n                // Note that mid will always be strictly less than high (i.e. it will be a valid array index)\n                // because Math.average rounds down (it does integer division with truncation).\n                if (tournamentUserRank[mid].score < newUserScore) {\n                    high = mid;\n                } else {\n                    low = mid;\n                }\n            }\n\n            return low;\n        }\n    }\n\n    function getScore(address user, uint256 tournamentId)\n        public\n        view\n        returns (uint256 score)\n    {\n        ITournamentManager.Tournament storage tournament = tournaments[\n            tournamentId\n        ];\n        uint256 playTokensBought = tournamentUserTicketCount[tournamentId][\n            user\n        ] * tournament.playTokenMintAmount;\n        score =\n            ((\n                balanceOf(user, tournamentId) > playTokensBought\n                    ? (balanceOf(user, tournamentId) - playTokensBought)\n                    : 0\n            ) * 1e5) /\n            playTokensBought;\n    }\n\n    function getUserReward(address user, uint256 tournamentId)\n        public\n        view\n        returns (uint256 reward)\n    {\n        ITournamentManager.Tournament storage tournament = tournaments[\n            tournamentId\n        ];\n        bytes32 rankIndex = tournament.rankFirst;\n        for (uint256 i = 0; i < 3; i++) {\n            if (tournamentUserRank[rankIndex].user == user) {\n                reward = tournamentRewardAmounts[tournamentId][i];\n                break;\n            } else {\n                rankIndex = tournamentUserRank[rankIndex].next;\n            }\n        }\n    }\n\n    function getWinners(uint256 tournamentId, uint256 totalWinners)\n        public\n        view\n        returns (address[] memory winners)\n    {\n        ITournamentManager.Tournament storage tournament = tournaments[\n            tournamentId\n        ];\n        bytes32 rankIndex = tournament.rankFirst;\n        winners = new address[](totalWinners);\n        for (uint256 i = 0; i < totalWinners; i++) {\n            winners[i] = tournamentUserRank[rankIndex].user;\n            rankIndex = tournamentUserRank[rankIndex].next;\n        }\n    }\n\n    function isTradable(uint256 tournamentId, string memory symbol)\n        public\n        view\n        returns (bool)\n    {\n        return tournamentUnderlyingAssets[tournamentId][symbol];\n    }\n\n    /************************************************\n     *  ADMIN FUNCTIONS\n     ***********************************************/\n\n    function createTournament(\n        string memory name,\n        uint256 start,\n        uint256 close,\n        uint256[] memory underlyingAssetIndex,\n        uint256 ticketCost,\n        uint256 ticketTokenIndex,\n        uint256 playTokenMintAmount,\n        uint256[] memory rewardAmount,\n        uint256 rewardTokenIndex\n    ) external onlyOwner returns (uint256) {\n        ITournamentManager.Tournament storage newTournament = tournaments[\n            nextTournamentId\n        ];\n\n        newTournament.name = name;\n        newTournament.start = start;\n        newTournament.close = close;\n        newTournament.ticketCost = ticketCost;\n        newTournament.ticketToken = tradableAssets[ticketTokenIndex];\n        newTournament.rewardToken = tradableAssets[rewardTokenIndex];\n        newTournament.playTokenMintAmount = playTokenMintAmount;\n\n        for (uint256 i = 0; i < rewardAmount.length; i++) {\n            tournamentRewardAmounts[nextTournamentId].push(rewardAmount[i]);\n        }\n        for (uint256 i = 0; i < underlyingAssetIndex.length; i++) {\n            tournamentUnderlyingAssets[nextTournamentId][\n                underlyingAssets[i].symbol\n            ] = true;\n        }\n\n        liveTournaments.push(nextTournamentId);\n        emit CreateTournament(nextTournamentId, name);\n        nextTournamentId++;\n        return nextTournamentId - 1;\n    }\n\n    function addNewUnderlyingAsset(ITournamentManager.Asset memory newAsset)\n        external\n        onlyOwner\n    {\n        underlyingAssets.push(newAsset);\n        emit AddUnderlyingAsset(newAsset.name);\n    }\n\n    function addNewTradableAsset(ITournamentManager.ERC20Asset memory newAsset)\n        external\n        onlyOwner\n    {\n        tradableAssets.push(newAsset);\n        emit AddTradableAsset(newAsset.name);\n    }\n\n    /************************************************\n     *  POOL FUNCTIONS\n     ***********************************************/\n\n    function mint(\n        address user,\n        uint256 tournamentId,\n        uint256 tokensToMint\n    ) external onlyRole(LIQUIDITY_POOL_ROLE) {\n        _mint(user, tournamentId, tokensToMint, \"\");\n    }\n\n    function burn(\n        address user,\n        uint256 tournamentId,\n        uint256 tokensToBurn\n    ) external onlyRole(LIQUIDITY_POOL_ROLE) {\n        _burn(user, tournamentId, tokensToBurn);\n    }\n\n    function updateUserRank(address user, uint256 tournamentId)\n        external\n        onlyRole(LIQUIDITY_POOL_ROLE)\n    {\n        ITournamentManager.Tournament storage tournament = tournaments[\n            tournamentId\n        ];\n        uint256 score = getScore(user, tournamentId);\n        bytes32 id = keccak256(abi.encode(user, tournamentId));\n\n        // Reset the Node\n        if (tournamentUserRank[id].exists) {\n            if (tournament.rankFirst == id) {\n                tournament.rankFirst = tournamentUserRank[id].next;\n            } else if (tournament.rankLast == id) {\n                tournament.rankLast = tournamentUserRank[id].previous;\n                tournamentUserRank[tournamentUserRank[id].previous].next = 0;\n            } else {\n                tournamentUserRank[tournamentUserRank[id].previous]\n                    .next = tournamentUserRank[id].next;\n                tournamentUserRank[tournamentUserRank[id].next]\n                    .previous = tournamentUserRank[id].previous;\n            }\n        }\n\n        // Get previous index through binary search\n        bytes32 previousIndex = getSortedPreviousRankIndex(\n            user,\n            tournamentId,\n            score\n        );\n        ITournamentManager.Rank memory newRank;\n        if (previousIndex == 0) {\n            if (tournamentUserRank[tournament.rankFirst].exists) {\n                tournamentUserRank[tournament.rankFirst].previous = id;\n            }\n            newRank = ITournamentManager.Rank(\n                tournament.rankFirst,\n                0,\n                user,\n                score,\n                false,\n                true\n            );\n            tournament.rankFirst = id;\n        } else {\n            ITournamentManager.Rank storage previousRank = tournamentUserRank[\n                previousIndex\n            ];\n            newRank = ITournamentManager.Rank(\n                previousRank.next,\n                previousIndex,\n                user,\n                score,\n                false,\n                true\n            );\n\n            tournamentUserRank[previousRank.next].previous = id;\n            previousRank.next = id;\n        }\n        if (previousIndex == tournament.rankLast) {\n            tournament.rankLast = id;\n        }\n        tournamentUserRank[id] = newRank;\n        emit UpdateUserRank(user, tournamentId, id);\n    }\n\n    /************************************************\n     *  USER FUNCTIONS\n     ***********************************************/\n\n    function decimals() public view returns (uint8) {\n        return 18;\n    }\n\n    function buyTicket(uint256 tournamentId) external {\n        address user = msg.sender;\n        ITournamentManager.Tournament storage tournament = tournaments[\n            tournamentId\n        ];\n        IERC20 ticketToken = tournament.ticketToken.token;\n        require(\n            ((block.timestamp < tournament.close) &&\n                (block.timestamp > tournament.start)),\n            \"Buying tickets is not allowed at the moment\"\n        );\n        require(\n            ticketToken.balanceOf(user) >= tournament.ticketCost,\n            \"Insufficient balance to buy\"\n        );\n\n        // Approve before this\n        ticketToken.transferFrom(\n            user,\n            ticketFeeReceipient,\n            tournament.ticketCost\n        );\n\n        if (!tournamentUsers[tournamentId][user]) {\n            tournamentUsers[tournamentId][user] = true;\n            tournament.userCount++;\n        }\n        tournamentUserTicketCount[tournamentId][user]++;\n\n        _mint(user, tournamentId, tournament.playTokenMintAmount, \"\");\n\n        emit BuyTicket(user, tournamentId);\n    }\n\n    function claimReward(uint256 tournamentId)\n        external\n        returns (uint256 reward)\n    {\n        ITournamentManager.Tournament storage tournament = tournaments[\n            tournamentId\n        ];\n\n        require(\n            block.timestamp >= tournament.close,\n            \"Can't claim rewards before tournament ends\"\n        );\n        address user = msg.sender;\n        reward = getUserReward(user, tournamentId);\n        if (reward > 0) {\n            IERC20 rewardToken = tournament.rewardToken.token;\n\n            require(\n                rewardToken.balanceOf(address(this)) >= reward,\n                \"Insufficient balance to distribute rewards\"\n            );\n\n            rewardToken.transfer(user, reward);\n            emit ClaimReward(user, tournamentId, reward);\n        }\n    }\n\n    /************************************************\n     *  OVERRIDE FUNCTIONS\n     ***********************************************/\n\n    function supportsInterface(bytes4 interfaceId)\n        public\n        view\n        override(ERC1155, AccessControl)\n        returns (bool)\n    {\n        return super.supportsInterface(interfaceId);\n    }\n\n    function _beforeTokenTransfer(\n        address operator,\n        address from,\n        address to,\n        uint256[] memory ids,\n        uint256[] memory amounts,\n        bytes memory data\n    ) internal virtual override {\n        if (\n            from != address(0) &&\n            to != address(0) &&\n            !hasRole(LIQUIDITY_POOL_ROLE, from) &&\n            !hasRole(LIQUIDITY_POOL_ROLE, to)\n        ) {\n            revert(\"Token transfer not allowed\");\n        }\n    }\n}\n",
  "sourcePath": "contracts/Tournament/TournamentManager.sol",
  "type": "contract"
}