{"abi":[{"inputs":[{"internalType":"contract ERC20","name":"_token","type":"address"},{"internalType":"address","name":"_fee_collector","type":"address"}],"stateMutability":"nonpayable","type":"constructor","name":"constructor"},{"anonymous":false,"inputs":[{"indexed":true,"internalType":"address","name":"previousOwner","type":"address"},{"indexed":true,"internalType":"address","name":"newOwner","type":"address"}],"name":"OwnershipTransferred","type":"event"},{"inputs":[],"name":"amount","outputs":[{"internalType":"uint256","name":"","type":"uint256"}],"stateMutability":"view","type":"function"},{"inputs":[],"name":"claim","outputs":[],"stateMutability":"payable","type":"function"},{"inputs":[],"name":"fee","outputs":[{"internalType":"uint256","name":"","type":"uint256"}],"stateMutability":"view","type":"function"},{"inputs":[],"name":"fee_collector","outputs":[{"internalType":"address","name":"","type":"address"}],"stateMutability":"view","type":"function"},{"inputs":[{"internalType":"address","name":"","type":"address"}],"name":"lastSavedTimestamp","outputs":[{"internalType":"uint256","name":"","type":"uint256"}],"stateMutability":"view","type":"function"},{"inputs":[],"name":"owner","outputs":[{"internalType":"address","name":"","type":"address"}],"stateMutability":"view","type":"function"},{"inputs":[],"name":"renounceOwnership","outputs":[],"stateMutability":"nonpayable","type":"function"},{"inputs":[{"internalType":"uint256","name":"value","type":"uint256"}],"name":"setAmount","outputs":[],"stateMutability":"nonpayable","type":"function"},{"inputs":[{"internalType":"uint256","name":"value","type":"uint256"}],"name":"setFee","outputs":[],"stateMutability":"nonpayable","type":"function"},{"inputs":[],"name":"token","outputs":[{"internalType":"contract ERC20","name":"","type":"address"}],"stateMutability":"view","type":"function"},{"inputs":[{"internalType":"address","name":"newOwner","type":"address"}],"name":"transferOwnership","outputs":[],"stateMutability":"nonpayable","type":"function"},{"inputs":[],"name":"withdraw","outputs":[],"stateMutability":"nonpayable","type":"function"}],"bytecode":"608060405267016345785d8a00006003553480156200001d57600080fd5b5060405162000b0838038062000b08833981016040819052620000409162000160565b6200004b3362000110565b600480546001600160a01b038084166001600160a01b0319928316178355600180549186169190921681179091556040805163313ce56760e01b81529051919263313ce567928282019260209290829003018186803b158015620000ae57600080fd5b505afa158015620000c3573d6000803e3d6000fd5b505050506040513d601f19601f82011682018060405250810190620000e991906200019e565b620000f690600a62000211565b62000104906101f4620002d2565b60025550620003239050565b600080546001600160a01b038381166001600160a01b0319831681178455604051919092169283917f8be0079c531659141344cd1fd0a4f28419497f9722a3daafe3b4186f6b6457e09190a35050565b6000806040838503121562000173578182fd5b825162000180816200030a565b602084015190925062000193816200030a565b809150509250929050565b600060208284031215620001b0578081fd5b815160ff81168114620001c1578182fd5b9392505050565b600181815b8085111562000209578160001904821115620001ed57620001ed620002f4565b80851615620001fb57918102915b93841c9390800290620001cd565b509250929050565b6000620001c160ff8416836000826200022d57506001620002cc565b816200023c57506000620002cc565b8160018114620002555760028114620002605762000280565b6001915050620002cc565b60ff841115620002745762000274620002f4565b50506001821b620002cc565b5060208310610133831016604e8410600b8410161715620002a5575081810a620002cc565b620002b18383620001c8565b8060001904821115620002c857620002c8620002f4565b0290505b92915050565b6000816000190483118215151615620002ef57620002ef620002f4565b500290565b634e487b7160e01b600052601160045260246000fd5b6001600160a01b03811681146200032057600080fd5b50565b6107d580620003336000396000f3fe6080604052600436106100975760003560e01c8063140f7e2c1461009c578063271f88b4146100dc5780633ccfd60b146100fe5780634e71d92d1461011357806369fe0e2d1461011b578063715018a61461013b5780638da5cb5b14610150578063aa8c217c14610172578063ddca3f4314610188578063f2fde38b1461019e578063f5e8fa23146101be578063fc0c546a146101de575b600080fd5b3480156100a857600080fd5b506100c96100b736600461069c565b60056020526000908152604090205481565b6040519081526020015b60405180910390f35b3480156100e857600080fd5b506100fc6100f73660046106ea565b6101fe565b005b34801561010a57600080fd5b506100fc61023b565b6100fc61037b565b34801561012757600080fd5b506100fc6101363660046106ea565b610537565b34801561014757600080fd5b506100fc61056b565b34801561015c57600080fd5b506101656105a4565b6040516100d3919061071a565b34801561017e57600080fd5b506100c960025481565b34801561019457600080fd5b506100c960035481565b3480156101aa57600080fd5b506100fc6101b936600461069c565b6105b3565b3480156101ca57600080fd5b50600454610165906001600160a01b031681565b3480156101ea57600080fd5b50600154610165906001600160a01b031681565b336102076105a4565b6001600160a01b0316146102365760405162461bcd60e51b815260040161022d90610747565b60405180910390fd5b600255565b336102446105a4565b6001600160a01b03161461026a5760405162461bcd60e51b815260040161022d90610747565b6001546040516370a0823160e01b81526000916001600160a01b0316906370a082319061029b90309060040161071a565b60206040518083038186803b1580156102b357600080fd5b505afa1580156102c7573d6000803e3d6000fd5b505050506040513d601f19601f820116820180604052508101906102eb9190610702565b6001549091506001600160a01b031663a9059cbb6103076105a4565b836040518363ffffffff1660e01b815260040161032592919061072e565b602060405180830381600087803b15801561033f57600080fd5b505af1158015610353573d6000803e3d6000fd5b505050506040513d601f19601f8201168201806040525081019061037791906106ca565b5050565b33600090815260056020526040902054620151809061039a904261077c565b116103da5760405162461bcd60e51b815260206004820152601060248201526f416c726561647920636c61696d65642160801b604482015260640161022d565b6003543410156104185760405162461bcd60e51b815260206004820152600960248201526857726f6e672066656560b81b604482015260640161022d565b6004546003546040516001600160a01b039092169181156108fc0291906000818181858888f19350505050158015610454573d6000803e3d6000fd5b5060015460025460405163a9059cbb60e01b81526001600160a01b039092169163a9059cbb916104899133919060040161072e565b602060405180830381600087803b1580156104a357600080fd5b505af11580156104b7573d6000803e3d6000fd5b505050506040513d601f19601f820116820180604052508101906104db91906106ca565b503360009081526005602052604090204290556003543411156105355760035433906108fc9061050b903461077c565b6040518115909202916000818181858888f19350505050158015610533573d6000803e3d6000fd5b505b565b336105406105a4565b6001600160a01b0316146105665760405162461bcd60e51b815260040161022d90610747565b600355565b336105746105a4565b6001600160a01b03161461059a5760405162461bcd60e51b815260040161022d90610747565b610535600061064c565b6000546001600160a01b031690565b336105bc6105a4565b6001600160a01b0316146105e25760405162461bcd60e51b815260040161022d90610747565b6001600160a01b0381166106475760405162461bcd60e51b815260206004820152602660248201527f4f776e61626c653a206e6577206f776e657220697320746865207a65726f206160448201526564647265737360d01b606482015260840161022d565b610533815b600080546001600160a01b038381166001600160a01b0319831681178455604051919092169283917f8be0079c531659141344cd1fd0a4f28419497f9722a3daafe3b4186f6b6457e09190a35050565b6000602082840312156106ad578081fd5b81356001600160a01b03811681146106c3578182fd5b9392505050565b6000602082840312156106db578081fd5b815180151581146106c3578182fd5b6000602082840312156106fb578081fd5b5035919050565b600060208284031215610713578081fd5b5051919050565b6001600160a01b0391909116815260200190565b6001600160a01b03929092168252602082015260400190565b6020808252818101527f4f776e61626c653a2063616c6c6572206973206e6f7420746865206f776e6572604082015260600190565b60008282101561079a57634e487b7160e01b81526011600452602481fd5b50039056fea2646970667358221220ca3683c212e40394abbb51090d8bc3b3fbeec3022f6e52561e22484d377eb78464736f6c63430008040033","bytecodeSha1":"ab87272786bd07cd41fac6f3eb63f1c76f3442f8","compiler":{"evm_version":"istanbul","optimizer":{"enabled":true,"runs":1},"version":"0.8.4+commit.c7e474f2"},"contractName":"Faucet","language":"Solidity","natspec":{"kind":"dev","methods":{"owner()":{"details":"Returns the address of the current owner."},"renounceOwnership()":{"details":"Leaves the contract without owner. It will not be possible to call `onlyOwner` functions anymore. Can only be called by the current owner. NOTE: Renouncing ownership will leave the contract without an owner, thereby removing any functionality that is only available to the owner."},"setAmount(uint256)":{"notice":"Used for adjusting the amount of claimable tokens","params":{"value":"New amount of claimable tokens"}},"setFee(uint256)":{"notice":"Used for adjusting the fee to claim tokens","params":{"value":"New fee to claim tokens"}},"transferOwnership(address)":{"details":"Transfers ownership of the contract to a new account (`newOwner`). Can only be called by the current owner."}},"version":1},"opcodes":"PUSH1 0x80 PUSH1 0x40 MSTORE PUSH1 0x4 CALLDATASIZE LT PUSH2 0x97 JUMPI PUSH1 0x0 CALLDATALOAD PUSH1 0xE0 SHR DUP1 PUSH4 0x140F7E2C EQ PUSH2 0x9C JUMPI DUP1 PUSH4 0x271F88B4 EQ PUSH2 0xDC JUMPI DUP1 PUSH4 0x3CCFD60B EQ PUSH2 0xFE JUMPI DUP1 PUSH4 0x4E71D92D EQ PUSH2 0x113 JUMPI DUP1 PUSH4 0x69FE0E2D EQ PUSH2 0x11B JUMPI DUP1 PUSH4 0x715018A6 EQ PUSH2 0x13B JUMPI DUP1 PUSH4 0x8DA5CB5B EQ PUSH2 0x150 JUMPI DUP1 PUSH4 0xAA8C217C EQ PUSH2 0x172 JUMPI DUP1 PUSH4 0xDDCA3F43 EQ PUSH2 0x188 JUMPI DUP1 PUSH4 0xF2FDE38B EQ PUSH2 0x19E JUMPI DUP1 PUSH4 0xF5E8FA23 EQ PUSH2 0x1BE JUMPI DUP1 PUSH4 0xFC0C546A EQ PUSH2 0x1DE JUMPI JUMPDEST PUSH1 0x0 DUP1 REVERT JUMPDEST CALLVALUE DUP1 ISZERO PUSH2 0xA8 JUMPI PUSH1 0x0 DUP1 REVERT JUMPDEST POP PUSH2 0xC9 PUSH2 0xB7 CALLDATASIZE PUSH1 0x4 PUSH2 0x69C JUMP JUMPDEST PUSH1 0x5 PUSH1 0x20 MSTORE PUSH1 0x0 SWAP1 DUP2 MSTORE PUSH1 0x40 SWAP1 KECCAK256 SLOAD DUP2 JUMP JUMPDEST PUSH1 0x40 MLOAD SWAP1 DUP2 MSTORE PUSH1 0x20 ADD JUMPDEST PUSH1 0x40 MLOAD DUP1 SWAP2 SUB SWAP1 RETURN JUMPDEST CALLVALUE DUP1 ISZERO PUSH2 0xE8 JUMPI PUSH1 0x0 DUP1 REVERT JUMPDEST POP PUSH2 0xFC PUSH2 0xF7 CALLDATASIZE PUSH1 0x4 PUSH2 0x6EA JUMP JUMPDEST PUSH2 0x1FE JUMP JUMPDEST STOP JUMPDEST CALLVALUE DUP1 ISZERO PUSH2 0x10A JUMPI PUSH1 0x0 DUP1 REVERT JUMPDEST POP PUSH2 0xFC PUSH2 0x23B JUMP JUMPDEST PUSH2 0xFC PUSH2 0x37B JUMP JUMPDEST CALLVALUE DUP1 ISZERO PUSH2 0x127 JUMPI PUSH1 0x0 DUP1 REVERT JUMPDEST POP PUSH2 0xFC PUSH2 0x136 CALLDATASIZE PUSH1 0x4 PUSH2 0x6EA JUMP JUMPDEST PUSH2 0x537 JUMP JUMPDEST CALLVALUE DUP1 ISZERO PUSH2 0x147 JUMPI PUSH1 0x0 DUP1 REVERT JUMPDEST POP PUSH2 0xFC PUSH2 0x56B JUMP JUMPDEST CALLVALUE DUP1 ISZERO PUSH2 0x15C JUMPI PUSH1 0x0 DUP1 REVERT JUMPDEST POP PUSH2 0x165 PUSH2 0x5A4 JUMP JUMPDEST PUSH1 0x40 MLOAD PUSH2 0xD3 SWAP2 SWAP1 PUSH2 0x71A JUMP JUMPDEST CALLVALUE DUP1 ISZERO PUSH2 0x17E JUMPI PUSH1 0x0 DUP1 REVERT JUMPDEST POP PUSH2 0xC9 PUSH1 0x2 SLOAD DUP2 JUMP JUMPDEST CALLVALUE DUP1 ISZERO PUSH2 0x194 JUMPI PUSH1 0x0 DUP1 REVERT JUMPDEST POP PUSH2 0xC9 PUSH1 0x3 SLOAD DUP2 JUMP JUMPDEST CALLVALUE DUP1 ISZERO PUSH2 0x1AA JUMPI PUSH1 0x0 DUP1 REVERT JUMPDEST POP PUSH2 0xFC PUSH2 0x1B9 CALLDATASIZE PUSH1 0x4 PUSH2 0x69C JUMP JUMPDEST PUSH2 0x5B3 JUMP JUMPDEST CALLVALUE DUP1 ISZERO PUSH2 0x1CA JUMPI PUSH1 0x0 DUP1 REVERT JUMPDEST POP PUSH1 0x4 SLOAD PUSH2 0x165 SWAP1 PUSH1 0x1 PUSH1 0x1 PUSH1 0xA0 SHL SUB AND DUP2 JUMP JUMPDEST CALLVALUE DUP1 ISZERO PUSH2 0x1EA JUMPI PUSH1 0x0 DUP1 REVERT JUMPDEST POP PUSH1 0x1 SLOAD PUSH2 0x165 SWAP1 PUSH1 0x1 PUSH1 0x1 PUSH1 0xA0 SHL SUB AND DUP2 JUMP JUMPDEST CALLER PUSH2 0x207 PUSH2 0x5A4 JUMP JUMPDEST PUSH1 0x1 PUSH1 0x1 PUSH1 0xA0 SHL SUB AND EQ PUSH2 0x236 JUMPI PUSH1 0x40 MLOAD PUSH3 0x461BCD PUSH1 0xE5 SHL DUP2 MSTORE PUSH1 0x4 ADD PUSH2 0x22D SWAP1 PUSH2 0x747 JUMP JUMPDEST PUSH1 0x40 MLOAD DUP1 SWAP2 SUB SWAP1 REVERT JUMPDEST PUSH1 0x2 SSTORE JUMP JUMPDEST CALLER PUSH2 0x244 PUSH2 0x5A4 JUMP JUMPDEST PUSH1 0x1 PUSH1 0x1 PUSH1 0xA0 SHL SUB AND EQ PUSH2 0x26A JUMPI PUSH1 0x40 MLOAD PUSH3 0x461BCD PUSH1 0xE5 SHL DUP2 MSTORE PUSH1 0x4 ADD PUSH2 0x22D SWAP1 PUSH2 0x747 JUMP JUMPDEST PUSH1 0x1 SLOAD PUSH1 0x40 MLOAD PUSH4 0x70A08231 PUSH1 0xE0 SHL DUP2 MSTORE PUSH1 0x0 SWAP2 PUSH1 0x1 PUSH1 0x1 PUSH1 0xA0 SHL SUB AND SWAP1 PUSH4 0x70A08231 SWAP1 PUSH2 0x29B SWAP1 ADDRESS SWAP1 PUSH1 0x4 ADD PUSH2 0x71A JUMP JUMPDEST PUSH1 0x20 PUSH1 0x40 MLOAD DUP1 DUP4 SUB DUP2 DUP7 DUP1 EXTCODESIZE ISZERO DUP1 ISZERO PUSH2 0x2B3 JUMPI PUSH1 0x0 DUP1 REVERT JUMPDEST POP GAS STATICCALL ISZERO DUP1 ISZERO PUSH2 0x2C7 JUMPI RETURNDATASIZE PUSH1 0x0 DUP1 RETURNDATACOPY RETURNDATASIZE PUSH1 0x0 REVERT JUMPDEST POP POP POP POP PUSH1 0x40 MLOAD RETURNDATASIZE PUSH1 0x1F NOT PUSH1 0x1F DUP3 ADD AND DUP3 ADD DUP1 PUSH1 0x40 MSTORE POP DUP2 ADD SWAP1 PUSH2 0x2EB SWAP2 SWAP1 PUSH2 0x702 JUMP JUMPDEST PUSH1 0x1 SLOAD SWAP1 SWAP2 POP PUSH1 0x1 PUSH1 0x1 PUSH1 0xA0 SHL SUB AND PUSH4 0xA9059CBB PUSH2 0x307 PUSH2 0x5A4 JUMP JUMPDEST DUP4 PUSH1 0x40 MLOAD DUP4 PUSH4 0xFFFFFFFF AND PUSH1 0xE0 SHL DUP2 MSTORE PUSH1 0x4 ADD PUSH2 0x325 SWAP3 SWAP2 SWAP1 PUSH2 0x72E JUMP JUMPDEST PUSH1 0x20 PUSH1 0x40 MLOAD DUP1 DUP4 SUB DUP2 PUSH1 0x0 DUP8 DUP1 EXTCODESIZE ISZERO DUP1 ISZERO PUSH2 0x33F JUMPI PUSH1 0x0 DUP1 REVERT JUMPDEST POP GAS CALL ISZERO DUP1 ISZERO PUSH2 0x353 JUMPI RETURNDATASIZE PUSH1 0x0 DUP1 RETURNDATACOPY RETURNDATASIZE PUSH1 0x0 REVERT JUMPDEST POP POP POP POP PUSH1 0x40 MLOAD RETURNDATASIZE PUSH1 0x1F NOT PUSH1 0x1F DUP3 ADD AND DUP3 ADD DUP1 PUSH1 0x40 MSTORE POP DUP2 ADD SWAP1 PUSH2 0x377 SWAP2 SWAP1 PUSH2 0x6CA JUMP JUMPDEST POP POP JUMP JUMPDEST CALLER PUSH1 0x0 SWAP1 DUP2 MSTORE PUSH1 0x5 PUSH1 0x20 MSTORE PUSH1 0x40 SWAP1 KECCAK256 SLOAD PUSH3 0x15180 SWAP1 PUSH2 0x39A SWAP1 TIMESTAMP PUSH2 0x77C JUMP JUMPDEST GT PUSH2 0x3DA JUMPI PUSH1 0x40 MLOAD PUSH3 0x461BCD PUSH1 0xE5 SHL DUP2 MSTORE PUSH1 0x20 PUSH1 0x4 DUP3 ADD MSTORE PUSH1 0x10 PUSH1 0x24 DUP3 ADD MSTORE PUSH16 0x416C726561647920636C61696D656421 PUSH1 0x80 SHL PUSH1 0x44 DUP3 ADD MSTORE PUSH1 0x64 ADD PUSH2 0x22D JUMP JUMPDEST PUSH1 0x3 SLOAD CALLVALUE LT ISZERO PUSH2 0x418 JUMPI PUSH1 0x40 MLOAD PUSH3 0x461BCD PUSH1 0xE5 SHL DUP2 MSTORE PUSH1 0x20 PUSH1 0x4 DUP3 ADD MSTORE PUSH1 0x9 PUSH1 0x24 DUP3 ADD MSTORE PUSH9 0x57726F6E6720666565 PUSH1 0xB8 SHL PUSH1 0x44 DUP3 ADD MSTORE PUSH1 0x64 ADD PUSH2 0x22D JUMP JUMPDEST PUSH1 0x4 SLOAD PUSH1 0x3 SLOAD PUSH1 0x40 MLOAD PUSH1 0x1 PUSH1 0x1 PUSH1 0xA0 SHL SUB SWAP1 SWAP3 AND SWAP2 DUP2 ISZERO PUSH2 0x8FC MUL SWAP2 SWAP1 PUSH1 0x0 DUP2 DUP2 DUP2 DUP6 DUP9 DUP9 CALL SWAP4 POP POP POP POP ISZERO DUP1 ISZERO PUSH2 0x454 JUMPI RETURNDATASIZE PUSH1 0x0 DUP1 RETURNDATACOPY RETURNDATASIZE PUSH1 0x0 REVERT JUMPDEST POP PUSH1 0x1 SLOAD PUSH1 0x2 SLOAD PUSH1 0x40 MLOAD PUSH4 0xA9059CBB PUSH1 0xE0 SHL DUP2 MSTORE PUSH1 0x1 PUSH1 0x1 PUSH1 0xA0 SHL SUB SWAP1 SWAP3 AND SWAP2 PUSH4 0xA9059CBB SWAP2 PUSH2 0x489 SWAP2 CALLER SWAP2 SWAP1 PUSH1 0x4 ADD PUSH2 0x72E JUMP JUMPDEST PUSH1 0x20 PUSH1 0x40 MLOAD DUP1 DUP4 SUB DUP2 PUSH1 0x0 DUP8 DUP1 EXTCODESIZE ISZERO DUP1 ISZERO PUSH2 0x4A3 JUMPI PUSH1 0x0 DUP1 REVERT JUMPDEST POP GAS CALL ISZERO DUP1 ISZERO PUSH2 0x4B7 JUMPI RETURNDATASIZE PUSH1 0x0 DUP1 RETURNDATACOPY RETURNDATASIZE PUSH1 0x0 REVERT JUMPDEST POP POP POP POP PUSH1 0x40 MLOAD RETURNDATASIZE PUSH1 0x1F NOT PUSH1 0x1F DUP3 ADD AND DUP3 ADD DUP1 PUSH1 0x40 MSTORE POP DUP2 ADD SWAP1 PUSH2 0x4DB SWAP2 SWAP1 PUSH2 0x6CA JUMP JUMPDEST POP CALLER PUSH1 0x0 SWAP1 DUP2 MSTORE PUSH1 0x5 PUSH1 0x20 MSTORE PUSH1 0x40 SWAP1 KECCAK256 TIMESTAMP SWAP1 SSTORE PUSH1 0x3 SLOAD CALLVALUE GT ISZERO PUSH2 0x535 JUMPI PUSH1 0x3 SLOAD CALLER SWAP1 PUSH2 0x8FC SWAP1 PUSH2 0x50B SWAP1 CALLVALUE PUSH2 0x77C JUMP JUMPDEST PUSH1 0x40 MLOAD DUP2 ISZERO SWAP1 SWAP3 MUL SWAP2 PUSH1 0x0 DUP2 DUP2 DUP2 DUP6 DUP9 DUP9 CALL SWAP4 POP POP POP POP ISZERO DUP1 ISZERO PUSH2 0x533 JUMPI RETURNDATASIZE PUSH1 0x0 DUP1 RETURNDATACOPY RETURNDATASIZE PUSH1 0x0 REVERT JUMPDEST POP JUMPDEST JUMP JUMPDEST CALLER PUSH2 0x540 PUSH2 0x5A4 JUMP JUMPDEST PUSH1 0x1 PUSH1 0x1 PUSH1 0xA0 SHL SUB AND EQ PUSH2 0x566 JUMPI PUSH1 0x40 MLOAD PUSH3 0x461BCD PUSH1 0xE5 SHL DUP2 MSTORE PUSH1 0x4 ADD PUSH2 0x22D SWAP1 PUSH2 0x747 JUMP JUMPDEST PUSH1 0x3 SSTORE JUMP JUMPDEST CALLER PUSH2 0x574 PUSH2 0x5A4 JUMP JUMPDEST PUSH1 0x1 PUSH1 0x1 PUSH1 0xA0 SHL SUB AND EQ PUSH2 0x59A JUMPI PUSH1 0x40 MLOAD PUSH3 0x461BCD PUSH1 0xE5 SHL DUP2 MSTORE PUSH1 0x4 ADD PUSH2 0x22D SWAP1 PUSH2 0x747 JUMP JUMPDEST PUSH2 0x535 PUSH1 0x0 PUSH2 0x64C JUMP JUMPDEST PUSH1 0x0 SLOAD PUSH1 0x1 PUSH1 0x1 PUSH1 0xA0 SHL SUB AND SWAP1 JUMP JUMPDEST CALLER PUSH2 0x5BC PUSH2 0x5A4 JUMP JUMPDEST PUSH1 0x1 PUSH1 0x1 PUSH1 0xA0 SHL SUB AND EQ PUSH2 0x5E2 JUMPI PUSH1 0x40 MLOAD PUSH3 0x461BCD PUSH1 0xE5 SHL DUP2 MSTORE PUSH1 0x4 ADD PUSH2 0x22D SWAP1 PUSH2 0x747 JUMP JUMPDEST PUSH1 0x1 PUSH1 0x1 PUSH1 0xA0 SHL SUB DUP2 AND PUSH2 0x647 JUMPI PUSH1 0x40 MLOAD PUSH3 0x461BCD PUSH1 0xE5 SHL DUP2 MSTORE PUSH1 0x20 PUSH1 0x4 DUP3 ADD MSTORE PUSH1 0x26 PUSH1 0x24 DUP3 ADD MSTORE PUSH32 0x4F776E61626C653A206E6577206F776E657220697320746865207A65726F2061 PUSH1 0x44 DUP3 ADD MSTORE PUSH6 0x646472657373 PUSH1 0xD0 SHL PUSH1 0x64 DUP3 ADD MSTORE PUSH1 0x84 ADD PUSH2 0x22D JUMP JUMPDEST PUSH2 0x533 DUP2 JUMPDEST PUSH1 0x0 DUP1 SLOAD PUSH1 0x1 PUSH1 0x1 PUSH1 0xA0 SHL SUB DUP4 DUP2 AND PUSH1 0x1 PUSH1 0x1 PUSH1 0xA0 SHL SUB NOT DUP4 AND DUP2 OR DUP5 SSTORE PUSH1 0x40 MLOAD SWAP2 SWAP1 SWAP3 AND SWAP3 DUP4 SWAP2 PUSH32 0x8BE0079C531659141344CD1FD0A4F28419497F9722A3DAAFE3B4186F6B6457E0 SWAP2 SWAP1 LOG3 POP POP JUMP JUMPDEST PUSH1 0x0 PUSH1 0x20 DUP3 DUP5 SUB SLT ISZERO PUSH2 0x6AD JUMPI DUP1 DUP2 REVERT JUMPDEST DUP2 CALLDATALOAD PUSH1 0x1 PUSH1 0x1 PUSH1 0xA0 SHL SUB DUP2 AND DUP2 EQ PUSH2 0x6C3 JUMPI DUP2 DUP3 REVERT JUMPDEST SWAP4 SWAP3 POP POP POP JUMP JUMPDEST PUSH1 0x0 PUSH1 0x20 DUP3 DUP5 SUB SLT ISZERO PUSH2 0x6DB JUMPI DUP1 DUP2 REVERT JUMPDEST DUP2 MLOAD DUP1 ISZERO ISZERO DUP2 EQ PUSH2 0x6C3 JUMPI DUP2 DUP3 REVERT JUMPDEST PUSH1 0x0 PUSH1 0x20 DUP3 DUP5 SUB SLT ISZERO PUSH2 0x6FB JUMPI DUP1 DUP2 REVERT JUMPDEST POP CALLDATALOAD SWAP2 SWAP1 POP JUMP JUMPDEST PUSH1 0x0 PUSH1 0x20 DUP3 DUP5 SUB SLT ISZERO PUSH2 0x713 JUMPI DUP1 DUP2 REVERT JUMPDEST POP MLOAD SWAP2 SWAP1 POP JUMP JUMPDEST PUSH1 0x1 PUSH1 0x1 PUSH1 0xA0 SHL SUB SWAP2 SWAP1 SWAP2 AND DUP2 MSTORE PUSH1 0x20 ADD SWAP1 JUMP JUMPDEST PUSH1 0x1 PUSH1 0x1 PUSH1 0xA0 SHL SUB SWAP3 SWAP1 SWAP3 AND DUP3 MSTORE PUSH1 0x20 DUP3 ADD MSTORE PUSH1 0x40 ADD SWAP1 JUMP JUMPDEST PUSH1 0x20 DUP1 DUP3 MSTORE DUP2 DUP2 ADD MSTORE PUSH32 0x4F776E61626C653A2063616C6C6572206973206E6F7420746865206F776E6572 PUSH1 0x40 DUP3 ADD MSTORE PUSH1 0x60 ADD SWAP1 JUMP JUMPDEST PUSH1 0x0 DUP3 DUP3 LT ISZERO PUSH2 0x79A JUMPI PUSH4 0x4E487B71 PUSH1 0xE0 SHL DUP2 MSTORE PUSH1 0x11 PUSH1 0x4 MSTORE PUSH1 0x24 DUP2 REVERT JUMPDEST POP SUB SWAP1 JUMP INVALID LOG2 PUSH5 0x6970667358 0x22 SLT KECCAK256 0xCA CALLDATASIZE DUP4 0xC2 SLT 0xE4 SUB SWAP5 0xAB 0xBB MLOAD MULMOD 0xD DUP12 0xC3 0xB3 0xFB 0xEE 0xC3 MUL 0x2F PUSH15 0x52561E22484D377EB78464736F6C63 NUMBER STOP ADDMOD DIV STOP CALLER ","sha1":"90d84befe6312418e6bd85578e7a0f5ea51bfd36","source":"pragma solidity ^0.8.0;\n\n// SPDX-License-Identifier: BUSL-1.1\n\nimport \"./Interfaces/Interfaces.sol\";\nimport \"@openzeppelin/contracts/token/ERC20/ERC20.sol\";\nimport \"@openzeppelin/contracts/access/Ownable.sol\";\n\ncontract Faucet is Ownable {\n    ERC20 public token;\n    uint256 public amount;\n    uint256 public fee = 1e17; // 0.1 ETH\n    address public fee_collector;\n    mapping(address => uint256) public lastSavedTimestamp;\n\n    constructor(ERC20 _token, address _fee_collector) {\n        fee_collector = _fee_collector;\n        token = _token;\n        amount = 500 * (10**token.decimals());\n    }\n\n    function claim() external payable {\n        require(\n            block.timestamp - lastSavedTimestamp[msg.sender] > 1 days,\n            \"Already claimed!\"\n        );\n        require(msg.value >= fee, \"Wrong fee\");\n\n        payable(fee_collector).transfer(fee);\n        token.transfer(msg.sender, amount);\n        lastSavedTimestamp[msg.sender] = block.timestamp;\n\n        if (msg.value > fee) {\n            payable(msg.sender).transfer(msg.value - fee);\n        }\n    }\n\n    function withdraw() external onlyOwner {\n        uint256 balance = token.balanceOf(address(this));\n        token.transfer(owner(), balance);\n    }\n\n    /**\n     * @notice Used for adjusting the amount of claimable tokens\n     * @param value New amount of claimable tokens\n     */\n    function setAmount(uint256 value) external onlyOwner {\n        amount = value;\n    }\n\n    /**\n     * @notice Used for adjusting the fee to claim tokens\n     * @param value New fee to claim tokens\n     */\n    function setFee(uint256 value) external onlyOwner {\n        fee = value;\n    }\n}\n","sourcePath":"contracts/Faucet.sol","type":"contract","deployment":{"address":"0x01E8d7B824ff4c920fbB6d79D1917229b19E8D22","chainid":"80001","blockHeight":27325078}}