{"abi":[{"inputs":[{"internalType":"address","name":"staking","type":"address"},{"internalType":"uint256","name":"initialImpliedVolRate","type":"uint256"},{"internalType":"contract BufferIBFRPoolV2","name":"_pool","type":"address"}],"stateMutability":"nonpayable","type":"constructor","name":"constructor"},{"anonymous":false,"inputs":[{"indexed":true,"internalType":"address","name":"approval","type":"address"},{"indexed":true,"internalType":"uint256","name":"tokenId","type":"uint256"},{"indexed":false,"internalType":"uint256","name":"allowance","type":"uint256"}],"name":"ApprovalUnits","type":"event"},{"anonymous":false,"inputs":[{"indexed":true,"internalType":"address","name":"account","type":"address"},{"indexed":false,"internalType":"bool","name":"status","type":"bool"}],"name":"AutoExerciseStatusChange","type":"event"},{"anonymous":false,"inputs":[{"indexed":true,"internalType":"uint256","name":"id","type":"uint256"},{"indexed":true,"internalType":"address","name":"account","type":"address"},{"indexed":false,"internalType":"uint256","name":"settlementFee","type":"uint256"},{"indexed":false,"internalType":"uint256","name":"totalFee","type":"uint256"},{"indexed":false,"internalType":"string","name":"metadata","type":"string"}],"name":"Create","type":"event"},{"anonymous":false,"inputs":[{"indexed":true,"internalType":"uint256","name":"id","type":"uint256"},{"indexed":false,"internalType":"uint256","name":"profit","type":"uint256"}],"name":"Exercise","type":"event"},{"anonymous":false,"inputs":[{"indexed":true,"internalType":"uint256","name":"id","type":"uint256"},{"indexed":false,"internalType":"uint256","name":"premium","type":"uint256"}],"name":"Expire","type":"event"},{"anonymous":false,"inputs":[{"indexed":true,"internalType":"address","name":"owner","type":"address"},{"indexed":true,"internalType":"uint256","name":"tokenId","type":"uint256"},{"indexed":true,"internalType":"uint256","name":"targetTokenId","type":"uint256"},{"indexed":false,"internalType":"uint256","name":"mergeUnits","type":"uint256"}],"name":"Merge","type":"event"},{"anonymous":false,"inputs":[{"indexed":true,"internalType":"address","name":"previousOwner","type":"address"},{"indexed":true,"internalType":"address","name":"newOwner","type":"address"}],"name":"OwnershipTransferred","type":"event"},{"anonymous":false,"inputs":[{"indexed":true,"internalType":"address","name":"owner","type":"address"},{"indexed":false,"internalType":"uint256","name":"amount","type":"uint256"}],"name":"PayAdminFee","type":"event"},{"anonymous":false,"inputs":[{"indexed":true,"internalType":"address","name":"referrer","type":"address"},{"indexed":false,"internalType":"uint256","name":"amount","type":"uint256"}],"name":"PayReferralFee","type":"event"},{"anonymous":false,"inputs":[{"indexed":true,"internalType":"address","name":"owner","type":"address"},{"indexed":true,"internalType":"uint256","name":"tokenId","type":"uint256"},{"indexed":false,"internalType":"uint256","name":"newTokenId","type":"uint256"},{"indexed":false,"internalType":"uint256","name":"splitUnits","type":"uint256"}],"name":"Split","type":"event"},{"anonymous":false,"inputs":[{"indexed":true,"internalType":"address","name":"from","type":"address"},{"indexed":true,"internalType":"address","name":"to","type":"address"},{"indexed":true,"internalType":"uint256","name":"tokenId","type":"uint256"},{"indexed":false,"internalType":"uint256","name":"targetTokenId","type":"uint256"},{"indexed":false,"internalType":"uint256","name":"transferUnits","type":"uint256"}],"name":"TransferUnits","type":"event"},{"anonymous":false,"inputs":[{"indexed":false,"internalType":"uint256","name":"value","type":"uint256"}],"name":"UpdateImpliedVolatility","type":"event"},{"anonymous":false,"inputs":[{"indexed":false,"internalType":"uint256","name":"value","type":"uint256"}],"name":"UpdateNFTSaleRoyaltyPercentage","type":"event"},{"anonymous":false,"inputs":[{"indexed":false,"internalType":"uint256","name":"value","type":"uint256"}],"name":"UpdateOptionCollaterizationRatio","type":"event"},{"anonymous":false,"inputs":[{"indexed":false,"internalType":"uint256","name":"startHour","type":"uint256"},{"indexed":false,"internalType":"uint256","name":"startMinute","type":"uint256"},{"indexed":false,"internalType":"uint256","name":"endHour","type":"uint256"},{"indexed":false,"internalType":"uint256","name":"endMinute","type":"uint256"}],"name":"UpdateOptionCreationWindow","type":"event"},{"anonymous":false,"inputs":[{"indexed":false,"internalType":"uint256","name":"value","type":"uint256"}],"name":"UpdateOptionSizePerBlockLimitPercent","type":"event"},{"anonymous":false,"inputs":[{"indexed":false,"internalType":"uint256","name":"value","type":"uint256"}],"name":"UpdateReferralRewardPercentage","type":"event"},{"anonymous":false,"inputs":[{"indexed":false,"internalType":"uint256","name":"value","type":"uint256"}],"name":"UpdateSettlementFeePercentage","type":"event"},{"anonymous":false,"inputs":[{"indexed":false,"internalType":"address","name":"account","type":"address"}],"name":"UpdateSettlementFeeRecipient","type":"event"},{"anonymous":false,"inputs":[{"indexed":false,"internalType":"uint256","name":"value","type":"uint256"}],"name":"UpdateStakingFeePercentage","type":"event"},{"anonymous":false,"inputs":[{"indexed":false,"internalType":"uint256","name":"value","type":"uint256"}],"name":"UpdateStrike","type":"event"},{"anonymous":false,"inputs":[{"indexed":false,"internalType":"enum IOptionsConfig.PermittedTradingType","name":"permissionType","type":"uint8"}],"name":"UpdateTradingPermission","type":"event"},{"anonymous":false,"inputs":[{"indexed":false,"internalType":"uint256","name":"value","type":"uint256"}],"name":"UpdateUnits","type":"event"},{"inputs":[{"internalType":"enum IBufferOptions.OptionType","name":"optionType","type":"uint8"},{"internalType":"uint256","name":"period","type":"uint256"},{"internalType":"uint256","name":"amount","type":"uint256"},{"internalType":"uint256","name":"strikeFee","type":"uint256"},{"internalType":"uint256","name":"totalFee","type":"uint256"},{"internalType":"uint256","name":"msgValue","type":"uint256"}],"name":"checkParams","outputs":[],"stateMutability":"pure","type":"function"},{"inputs":[],"name":"impliedVolRate","outputs":[{"internalType":"uint256","name":"","type":"uint256"}],"stateMutability":"view","type":"function"},{"inputs":[],"name":"nftSaleRoyaltyPercentage","outputs":[{"internalType":"uint256","name":"","type":"uint256"}],"stateMutability":"view","type":"function"},{"inputs":[],"name":"optionCollateralizationRatio","outputs":[{"internalType":"uint256","name":"","type":"uint256"}],"stateMutability":"view","type":"function"},{"inputs":[],"name":"optionSizePerBlockLimitPercent","outputs":[{"internalType":"uint256","name":"","type":"uint256"}],"stateMutability":"view","type":"function"},{"inputs":[],"name":"owner","outputs":[{"internalType":"address","name":"","type":"address"}],"stateMutability":"view","type":"function"},{"inputs":[],"name":"permittedTradingType","outputs":[{"internalType":"enum IOptionsConfig.PermittedTradingType","name":"","type":"uint8"}],"stateMutability":"view","type":"function"},{"inputs":[],"name":"pool","outputs":[{"internalType":"contract BufferIBFRPoolV2","name":"","type":"address"}],"stateMutability":"view","type":"function"},{"inputs":[],"name":"referralRewardPercentage","outputs":[{"internalType":"uint256","name":"","type":"uint256"}],"stateMutability":"view","type":"function"},{"inputs":[],"name":"renounceOwnership","outputs":[],"stateMutability":"nonpayable","type":"function"},{"inputs":[{"internalType":"uint256","name":"value","type":"uint256"}],"name":"setImpliedVolRate","outputs":[],"stateMutability":"nonpayable","type":"function"},{"inputs":[{"internalType":"uint256","name":"value","type":"uint256"}],"name":"setNFTSaleRoyaltyPercentage","outputs":[],"stateMutability":"nonpayable","type":"function"},{"inputs":[{"internalType":"uint256","name":"value","type":"uint256"}],"name":"setOptionCollaterizationRatio","outputs":[],"stateMutability":"nonpayable","type":"function"},{"inputs":[{"internalType":"uint256","name":"value","type":"uint256"}],"name":"setOptionSizePerBlockLimitPercent","outputs":[],"stateMutability":"nonpayable","type":"function"},{"inputs":[{"internalType":"uint256","name":"value","type":"uint256"}],"name":"setReferralRewardPercentage","outputs":[],"stateMutability":"nonpayable","type":"function"},{"inputs":[{"internalType":"uint256","name":"value","type":"uint256"}],"name":"setSettlementFeePercentage","outputs":[],"stateMutability":"nonpayable","type":"function"},{"inputs":[{"internalType":"address","name":"recipient","type":"address"}],"name":"setSettlementFeeRecipient","outputs":[],"stateMutability":"nonpayable","type":"function"},{"inputs":[{"internalType":"uint256","name":"value","type":"uint256"}],"name":"setStakingFeePercentage","outputs":[],"stateMutability":"nonpayable","type":"function"},{"inputs":[{"internalType":"enum IOptionsConfig.PermittedTradingType","name":"permissionType","type":"uint8"}],"name":"setTradingPermission","outputs":[],"stateMutability":"nonpayable","type":"function"},{"inputs":[{"internalType":"uint256","name":"value","type":"uint256"}],"name":"setUtilizationRate","outputs":[],"stateMutability":"nonpayable","type":"function"},{"inputs":[],"name":"settlementFeePercentage","outputs":[{"internalType":"uint256","name":"","type":"uint256"}],"stateMutability":"view","type":"function"},{"inputs":[],"name":"settlementFeeRecipient","outputs":[{"internalType":"address","name":"","type":"address"}],"stateMutability":"view","type":"function"},{"inputs":[],"name":"stakingFeePercentage","outputs":[{"internalType":"uint256","name":"","type":"uint256"}],"stateMutability":"view","type":"function"},{"inputs":[{"internalType":"address","name":"newOwner","type":"address"}],"name":"transferOwnership","outputs":[],"stateMutability":"nonpayable","type":"function"},{"inputs":[],"name":"utilizationRate","outputs":[{"internalType":"uint256","name":"","type":"uint256"}],"stateMutability":"view","type":"function"}],"bytecode":"608060405260646002556001600355603260045560006005556005600655640165a0bc00600855600560095534801561003757600080fd5b50604051610ee4380380610ee4833981016040819052610056916100e6565b61005f33610096565b600780546001600160a01b039485166001600160a01b031991821617909155600192909255600a8054919093169116179055610140565b600080546001600160a01b038381166001600160a01b0319831681178455604051919092169283917f8be0079c531659141344cd1fd0a4f28419497f9722a3daafe3b4186f6b6457e09190a35050565b6000806000606084860312156100fa578283fd5b835161010581610128565b60208501516040860151919450925061011d81610128565b809150509250925092565b6001600160a01b038116811461013d57600080fd5b50565b610d958061014f6000396000f3fe608060405234801561001057600080fd5b50600436106101335760003560e01c806316f0115b14610138578063180acf6e14610161578063181731dc1461017657806318f88e5b146101895780631ec3ad1d146101a0578063302ce651146101b357806340774ff6146101bc5780635cb6bc81146101cf57806364ac2655146101e25780636c321c8a146101f5578063715018a6146101fe57806371bf7e25146102065780638da5cb5b1461020f578063920a253e1461021757806396350a8514610220578063ca535c3b14610233578063ceaeeba91461023c578063cedcc6da1461024f578063e2bef75414610262578063e97b86e714610275578063ed0974c714610288578063f12a046614610291578063f2fde38b146102b2578063f3fa3495146102c5578063ff0b025d146102ce575b600080fd5b600a5461014b906001600160a01b031681565b6040516101589190610cc9565b60405180910390f35b61017461016f366004610cb1565b6102e1565b005b60075461014b906001600160a01b031681565b61019260015481565b604051908152602001610158565b6101746101ae366004610cb1565b6103a6565b61019260025481565b6101746101ca366004610cb1565b610466565b6101746101dd366004610cb1565b61049a565b6101746101f0366004610c44565b61051f565b61019260085481565b6101746106d2565b61019260095481565b61014b61070d565b61019260055481565b61017461022e366004610c16565b61071c565b61019260045481565b61017461024a366004610cb1565b6107a9565b61017461025d366004610cb1565b610868565b610174610270366004610cb1565b610929565b610174610283366004610cb1565b6109bb565b61019260065481565b600a546102a590600160a01b900460ff1681565b6040516101589190610cdd565b6101746102c0366004610c16565b610a90565b61019260035481565b6101746102dc366004610c92565b610b30565b336102ea61070d565b6001600160a01b0316146103195760405162461bcd60e51b815260040161031090610d2a565b60405180910390fd5b606481111561036a5760405162461bcd60e51b815260206004820181905260248201527f5374616b696e6746656550657263656e7461676520697320746f6f20686967686044820152606401610310565b60048190556040518181527f7ab3467fb06d3d8716698bece5f22a665374115bd3d0a43d6e11b76fcec1dfbb906020015b60405180910390a150565b336103af61070d565b6001600160a01b0316146103d55760405162461bcd60e51b815260040161031090610d2a565b601481106104315760405162461bcd60e51b815260206004820152602360248201527f536574746c656d656e7446656550657263656e7461676520697320746f6f20686044820152620d2ced60eb1b6064820152608401610310565b60038190556040518181527f803e7bbaebadbda418ec6dd788e57c29c1cf3faeb7e139d21247e624c9e6d1199060200161039b565b3361046f61070d565b6001600160a01b0316146104955760405162461bcd60e51b815260040161031090610d2a565b600855565b336104a361070d565b6001600160a01b0316146104c95760405162461bcd60e51b815260040161031090610d2a565b600a8111156104ea5760405162461bcd60e51b815260040161031090610d05565b60068190556040518181527f8fb679aa627958fc7143b0829745d581e0f5e98599847e7097749ce89d8c88e09060200161039b565b600286600281111561054157634e487b7160e01b600052602160045260246000fd5b148061056c5750600186600281111561056a57634e487b7160e01b600052602160045260246000fd5b145b6105ac5760405162461bcd60e51b815260206004820152601160248201527057726f6e67206f7074696f6e207479706560781b6044820152606401610310565b620151808510156105f55760405162461bcd60e51b815260206004820152601360248201527214195c9a5bd9081a5cc81d1bdbc81cda1bdc9d606a1b6044820152606401610310565b6276a70085111561063d5760405162461bcd60e51b8152602060048201526012602482015271506572696f6420697320746f6f206c6f6e6760701b6044820152606401610310565b82841161068c5760405162461bcd60e51b815260206004820152601d60248201527f507269636520646966666572656e636520697320746f6f206c617267650000006044820152606401610310565b818110156106ca5760405162461bcd60e51b815260206004820152600b60248201526a57726f6e672076616c756560a81b6044820152606401610310565b505050505050565b336106db61070d565b6001600160a01b0316146107015760405162461bcd60e51b815260040161031090610d2a565b61070b6000610bc6565b565b6000546001600160a01b031690565b3361072561070d565b6001600160a01b03161461074b5760405162461bcd60e51b815260040161031090610d2a565b6001600160a01b03811661075e57600080fd5b600780546001600160a01b0319166001600160a01b0383161790556040517f92f6c1e8df34c666f737a2407b4e63d3a77f133b69fdf70f01b5e3b8072551f69061039b908390610cc9565b336107b261070d565b6001600160a01b0316146107d85760405162461bcd60e51b815260040161031090610d2a565b60648110156108335760405162461bcd60e51b815260206004820152602160248201527f496d706c696564566f6c52617465206c696d697420697320746f6f20736d616c6044820152601b60fa1b6064820152608401610310565b60018190556040518181527f3e0c59249d1a9c5f08383bdbdfbc45517a71b76e72223ae649c576e4d12586969060200161039b565b3361087161070d565b6001600160a01b0316146108975760405162461bcd60e51b815260040161031090610d2a565b60648111156108f45760405162461bcd60e51b8152602060048201526024808201527f526566657272616c52657761726450657263656e7461676520697320746f6f206044820152630d0d2ced60e31b6064820152608401610310565b60058190556040518181527f0c089466003b94ffb5787d1d1affe1c743f8ca63f949d2296cfa4d7986601ade9060200161039b565b3361093261070d565b6001600160a01b0316146109585760405162461bcd60e51b815260040161031090610d2a565b8060321115801561096a575060648111155b6109865760405162461bcd60e51b815260040161031090610d05565b60028190556040518181527f66b26a0dfaa5fc9f5c7432381208aa4bd7f13f4489299b52f09f1af7669bb93b9060200161039b565b336109c461070d565b6001600160a01b0316146109ea5760405162461bcd60e51b815260040161031090610d2a565b60648110610a5b5760405162461bcd60e51b815260206004820152603860248201527f4f7074696f6e53697a65506572426c6f636b4c696d697450657263656e74206e60448201527706565647320746f206265206c657373207468616e203130360441b6064820152608401610310565b60098190556040518181527f5ca84f51f1b091675330abc6e5665566a97744b04121dabc6bda4b3d3503945f9060200161039b565b33610a9961070d565b6001600160a01b031614610abf5760405162461bcd60e51b815260040161031090610d2a565b6001600160a01b038116610b245760405162461bcd60e51b815260206004820152602660248201527f4f776e61626c653a206e6577206f776e657220697320746865207a65726f206160448201526564647265737360d01b6064820152608401610310565b610b2d81610bc6565b50565b33610b3961070d565b6001600160a01b031614610b5f5760405162461bcd60e51b815260040161031090610d2a565b600a805482919060ff60a01b1916600160a01b836003811115610b9257634e487b7160e01b600052602160045260246000fd5b02179055507f75e98309d621801fc34e8ce7fa6eaa10b82599a58639171fe865e39bb4728d488160405161039b9190610cdd565b600080546001600160a01b038381166001600160a01b0319831681178455604051919092169283917f8be0079c531659141344cd1fd0a4f28419497f9722a3daafe3b4186f6b6457e09190a35050565b600060208284031215610c27578081fd5b81356001600160a01b0381168114610c3d578182fd5b9392505050565b60008060008060008060c08789031215610c5c578182fd5b863560038110610c6a578283fd5b9860208801359850604088013597606081013597506080810135965060a00135945092505050565b600060208284031215610ca3578081fd5b813560048110610c3d578182fd5b600060208284031215610cc2578081fd5b5035919050565b6001600160a01b0391909116815260200190565b6020810160048310610cff57634e487b7160e01b600052602160045260246000fd5b91905290565b6020808252600b908201526a77726f6e672076616c756560a81b604082015260600190565b6020808252818101527f4f776e61626c653a2063616c6c6572206973206e6f7420746865206f776e657260408201526060019056fea2646970667358221220ef9b2fc2e6bbe55327aee2905e051e427fc85ab4bb8af7d14bbc8cf7a03f57ae64736f6c63430008040033","bytecodeSha1":"2f8901427a91e80289ca2a2be1a3db1e0dfc609c","compiler":{"evm_version":"istanbul","optimizer":{"enabled":true,"runs":1},"version":"0.8.4+commit.c7e474f2"},"contractName":"OptionConfigBinary","language":"Solidity","natspec":{"author":"Heisenberg","kind":"dev","methods":{"checkParams(uint8,uint256,uint256,uint256,uint256,uint256)":{"notice":"Check the validity of the input params","params":{"amount":"Option amount","msgValue":"the msg.value given to the Create function","optionType":"Call or Put option type","period":"Option period in seconds (1 days <= period <= 90 days)","strikeFee":"strike fee for the option","totalFee":"total fee for the option"}},"owner()":{"details":"Returns the address of the current owner."},"renounceOwnership()":{"details":"Leaves the contract without owner. It will not be possible to call `onlyOwner` functions anymore. Can only be called by the current owner. NOTE: Renouncing ownership will leave the contract without an owner, thereby removing any functionality that is only available to the owner."},"setImpliedVolRate(uint256)":{"notice":"Used for adjusting the options prices while balancing asset's implied volatility rate","params":{"value":"New IVRate value"}},"setNFTSaleRoyaltyPercentage(uint256)":{"notice":"Used for changing nftSaleRoyaltyPercentage","params":{"value":"New nftSaleRoyaltyPercentage value"}},"setOptionCollaterizationRatio(uint256)":{"notice":"Used for changing option collateralization ratio","params":{"value":"New optionCollateralizationRatio value"}},"setOptionSizePerBlockLimitPercent(uint256)":{"notice":"Used for adjusting the option size per block limit percent","params":{"value":"New option size per block limit percent value"}},"setReferralRewardPercentage(uint256)":{"notice":"Used for adjusting the referral reward percentage","params":{"value":"New Referral Reward Percentage"}},"setSettlementFeePercentage(uint256)":{"notice":"Used for adjusting the settlement fee percentage","params":{"value":"New Settlement Fee Percentage"}},"setSettlementFeeRecipient(address)":{"notice":"Used for changing settlementFeeRecipient","params":{"recipient":"New settlementFee recipient address"}},"setStakingFeePercentage(uint256)":{"notice":"Used for adjusting the staking fee percentage","params":{"value":"New Staking Fee Percentage"}},"setUtilizationRate(uint256)":{"notice":"Used for updating utilizationRate value","params":{"value":"New utilizationRate value*"}},"transferOwnership(address)":{"details":"Transfers ownership of the contract to a new account (`newOwner`). Can only be called by the current owner."}},"notice":"Buffer BNB Options Contract","title":"Buffer BNB Bidirectional (Call and Put) Options","version":1},"opcodes":"PUSH1 0x80 PUSH1 0x40 MSTORE CALLVALUE DUP1 ISZERO PUSH2 0x10 JUMPI PUSH1 0x0 DUP1 REVERT JUMPDEST POP PUSH1 0x4 CALLDATASIZE LT PUSH2 0x133 JUMPI PUSH1 0x0 CALLDATALOAD PUSH1 0xE0 SHR DUP1 PUSH4 0x16F0115B EQ PUSH2 0x138 JUMPI DUP1 PUSH4 0x180ACF6E EQ PUSH2 0x161 JUMPI DUP1 PUSH4 0x181731DC EQ PUSH2 0x176 JUMPI DUP1 PUSH4 0x18F88E5B EQ PUSH2 0x189 JUMPI DUP1 PUSH4 0x1EC3AD1D EQ PUSH2 0x1A0 JUMPI DUP1 PUSH4 0x302CE651 EQ PUSH2 0x1B3 JUMPI DUP1 PUSH4 0x40774FF6 EQ PUSH2 0x1BC JUMPI DUP1 PUSH4 0x5CB6BC81 EQ PUSH2 0x1CF JUMPI DUP1 PUSH4 0x64AC2655 EQ PUSH2 0x1E2 JUMPI DUP1 PUSH4 0x6C321C8A EQ PUSH2 0x1F5 JUMPI DUP1 PUSH4 0x715018A6 EQ PUSH2 0x1FE JUMPI DUP1 PUSH4 0x71BF7E25 EQ PUSH2 0x206 JUMPI DUP1 PUSH4 0x8DA5CB5B EQ PUSH2 0x20F JUMPI DUP1 PUSH4 0x920A253E EQ PUSH2 0x217 JUMPI DUP1 PUSH4 0x96350A85 EQ PUSH2 0x220 JUMPI DUP1 PUSH4 0xCA535C3B EQ PUSH2 0x233 JUMPI DUP1 PUSH4 0xCEAEEBA9 EQ PUSH2 0x23C JUMPI DUP1 PUSH4 0xCEDCC6DA EQ PUSH2 0x24F JUMPI DUP1 PUSH4 0xE2BEF754 EQ PUSH2 0x262 JUMPI DUP1 PUSH4 0xE97B86E7 EQ PUSH2 0x275 JUMPI DUP1 PUSH4 0xED0974C7 EQ PUSH2 0x288 JUMPI DUP1 PUSH4 0xF12A0466 EQ PUSH2 0x291 JUMPI DUP1 PUSH4 0xF2FDE38B EQ PUSH2 0x2B2 JUMPI DUP1 PUSH4 0xF3FA3495 EQ PUSH2 0x2C5 JUMPI DUP1 PUSH4 0xFF0B025D EQ PUSH2 0x2CE JUMPI JUMPDEST PUSH1 0x0 DUP1 REVERT JUMPDEST PUSH1 0xA SLOAD PUSH2 0x14B SWAP1 PUSH1 0x1 PUSH1 0x1 PUSH1 0xA0 SHL SUB AND DUP2 JUMP JUMPDEST PUSH1 0x40 MLOAD PUSH2 0x158 SWAP2 SWAP1 PUSH2 0xCC9 JUMP JUMPDEST PUSH1 0x40 MLOAD DUP1 SWAP2 SUB SWAP1 RETURN JUMPDEST PUSH2 0x174 PUSH2 0x16F CALLDATASIZE PUSH1 0x4 PUSH2 0xCB1 JUMP JUMPDEST PUSH2 0x2E1 JUMP JUMPDEST STOP JUMPDEST PUSH1 0x7 SLOAD PUSH2 0x14B SWAP1 PUSH1 0x1 PUSH1 0x1 PUSH1 0xA0 SHL SUB AND DUP2 JUMP JUMPDEST PUSH2 0x192 PUSH1 0x1 SLOAD DUP2 JUMP JUMPDEST PUSH1 0x40 MLOAD SWAP1 DUP2 MSTORE PUSH1 0x20 ADD PUSH2 0x158 JUMP JUMPDEST PUSH2 0x174 PUSH2 0x1AE CALLDATASIZE PUSH1 0x4 PUSH2 0xCB1 JUMP JUMPDEST PUSH2 0x3A6 JUMP JUMPDEST PUSH2 0x192 PUSH1 0x2 SLOAD DUP2 JUMP JUMPDEST PUSH2 0x174 PUSH2 0x1CA CALLDATASIZE PUSH1 0x4 PUSH2 0xCB1 JUMP JUMPDEST PUSH2 0x466 JUMP JUMPDEST PUSH2 0x174 PUSH2 0x1DD CALLDATASIZE PUSH1 0x4 PUSH2 0xCB1 JUMP JUMPDEST PUSH2 0x49A JUMP JUMPDEST PUSH2 0x174 PUSH2 0x1F0 CALLDATASIZE PUSH1 0x4 PUSH2 0xC44 JUMP JUMPDEST PUSH2 0x51F JUMP JUMPDEST PUSH2 0x192 PUSH1 0x8 SLOAD DUP2 JUMP JUMPDEST PUSH2 0x174 PUSH2 0x6D2 JUMP JUMPDEST PUSH2 0x192 PUSH1 0x9 SLOAD DUP2 JUMP JUMPDEST PUSH2 0x14B PUSH2 0x70D JUMP JUMPDEST PUSH2 0x192 PUSH1 0x5 SLOAD DUP2 JUMP JUMPDEST PUSH2 0x174 PUSH2 0x22E CALLDATASIZE PUSH1 0x4 PUSH2 0xC16 JUMP JUMPDEST PUSH2 0x71C JUMP JUMPDEST PUSH2 0x192 PUSH1 0x4 SLOAD DUP2 JUMP JUMPDEST PUSH2 0x174 PUSH2 0x24A CALLDATASIZE PUSH1 0x4 PUSH2 0xCB1 JUMP JUMPDEST PUSH2 0x7A9 JUMP JUMPDEST PUSH2 0x174 PUSH2 0x25D CALLDATASIZE PUSH1 0x4 PUSH2 0xCB1 JUMP JUMPDEST PUSH2 0x868 JUMP JUMPDEST PUSH2 0x174 PUSH2 0x270 CALLDATASIZE PUSH1 0x4 PUSH2 0xCB1 JUMP JUMPDEST PUSH2 0x929 JUMP JUMPDEST PUSH2 0x174 PUSH2 0x283 CALLDATASIZE PUSH1 0x4 PUSH2 0xCB1 JUMP JUMPDEST PUSH2 0x9BB JUMP JUMPDEST PUSH2 0x192 PUSH1 0x6 SLOAD DUP2 JUMP JUMPDEST PUSH1 0xA SLOAD PUSH2 0x2A5 SWAP1 PUSH1 0x1 PUSH1 0xA0 SHL SWAP1 DIV PUSH1 0xFF AND DUP2 JUMP JUMPDEST PUSH1 0x40 MLOAD PUSH2 0x158 SWAP2 SWAP1 PUSH2 0xCDD JUMP JUMPDEST PUSH2 0x174 PUSH2 0x2C0 CALLDATASIZE PUSH1 0x4 PUSH2 0xC16 JUMP JUMPDEST PUSH2 0xA90 JUMP JUMPDEST PUSH2 0x192 PUSH1 0x3 SLOAD DUP2 JUMP JUMPDEST PUSH2 0x174 PUSH2 0x2DC CALLDATASIZE PUSH1 0x4 PUSH2 0xC92 JUMP JUMPDEST PUSH2 0xB30 JUMP JUMPDEST CALLER PUSH2 0x2EA PUSH2 0x70D JUMP JUMPDEST PUSH1 0x1 PUSH1 0x1 PUSH1 0xA0 SHL SUB AND EQ PUSH2 0x319 JUMPI PUSH1 0x40 MLOAD PUSH3 0x461BCD PUSH1 0xE5 SHL DUP2 MSTORE PUSH1 0x4 ADD PUSH2 0x310 SWAP1 PUSH2 0xD2A JUMP JUMPDEST PUSH1 0x40 MLOAD DUP1 SWAP2 SUB SWAP1 REVERT JUMPDEST PUSH1 0x64 DUP2 GT ISZERO PUSH2 0x36A JUMPI PUSH1 0x40 MLOAD PUSH3 0x461BCD PUSH1 0xE5 SHL DUP2 MSTORE PUSH1 0x20 PUSH1 0x4 DUP3 ADD DUP2 SWAP1 MSTORE PUSH1 0x24 DUP3 ADD MSTORE PUSH32 0x5374616B696E6746656550657263656E7461676520697320746F6F2068696768 PUSH1 0x44 DUP3 ADD MSTORE PUSH1 0x64 ADD PUSH2 0x310 JUMP JUMPDEST PUSH1 0x4 DUP2 SWAP1 SSTORE PUSH1 0x40 MLOAD DUP2 DUP2 MSTORE PUSH32 0x7AB3467FB06D3D8716698BECE5F22A665374115BD3D0A43D6E11B76FCEC1DFBB SWAP1 PUSH1 0x20 ADD JUMPDEST PUSH1 0x40 MLOAD DUP1 SWAP2 SUB SWAP1 LOG1 POP JUMP JUMPDEST CALLER PUSH2 0x3AF PUSH2 0x70D JUMP JUMPDEST PUSH1 0x1 PUSH1 0x1 PUSH1 0xA0 SHL SUB AND EQ PUSH2 0x3D5 JUMPI PUSH1 0x40 MLOAD PUSH3 0x461BCD PUSH1 0xE5 SHL DUP2 MSTORE PUSH1 0x4 ADD PUSH2 0x310 SWAP1 PUSH2 0xD2A JUMP JUMPDEST PUSH1 0x14 DUP2 LT PUSH2 0x431 JUMPI PUSH1 0x40 MLOAD PUSH3 0x461BCD PUSH1 0xE5 SHL DUP2 MSTORE PUSH1 0x20 PUSH1 0x4 DUP3 ADD MSTORE PUSH1 0x23 PUSH1 0x24 DUP3 ADD MSTORE PUSH32 0x536574746C656D656E7446656550657263656E7461676520697320746F6F2068 PUSH1 0x44 DUP3 ADD MSTORE PUSH3 0xD2CED PUSH1 0xEB SHL PUSH1 0x64 DUP3 ADD MSTORE PUSH1 0x84 ADD PUSH2 0x310 JUMP JUMPDEST PUSH1 0x3 DUP2 SWAP1 SSTORE PUSH1 0x40 MLOAD DUP2 DUP2 MSTORE PUSH32 0x803E7BBAEBADBDA418EC6DD788E57C29C1CF3FAEB7E139D21247E624C9E6D119 SWAP1 PUSH1 0x20 ADD PUSH2 0x39B JUMP JUMPDEST CALLER PUSH2 0x46F PUSH2 0x70D JUMP JUMPDEST PUSH1 0x1 PUSH1 0x1 PUSH1 0xA0 SHL SUB AND EQ PUSH2 0x495 JUMPI PUSH1 0x40 MLOAD PUSH3 0x461BCD PUSH1 0xE5 SHL DUP2 MSTORE PUSH1 0x4 ADD PUSH2 0x310 SWAP1 PUSH2 0xD2A JUMP JUMPDEST PUSH1 0x8 SSTORE JUMP JUMPDEST CALLER PUSH2 0x4A3 PUSH2 0x70D JUMP JUMPDEST PUSH1 0x1 PUSH1 0x1 PUSH1 0xA0 SHL SUB AND EQ PUSH2 0x4C9 JUMPI PUSH1 0x40 MLOAD PUSH3 0x461BCD PUSH1 0xE5 SHL DUP2 MSTORE PUSH1 0x4 ADD PUSH2 0x310 SWAP1 PUSH2 0xD2A JUMP JUMPDEST PUSH1 0xA DUP2 GT ISZERO PUSH2 0x4EA JUMPI PUSH1 0x40 MLOAD PUSH3 0x461BCD PUSH1 0xE5 SHL DUP2 MSTORE PUSH1 0x4 ADD PUSH2 0x310 SWAP1 PUSH2 0xD05 JUMP JUMPDEST PUSH1 0x6 DUP2 SWAP1 SSTORE PUSH1 0x40 MLOAD DUP2 DUP2 MSTORE PUSH32 0x8FB679AA627958FC7143B0829745D581E0F5E98599847E7097749CE89D8C88E0 SWAP1 PUSH1 0x20 ADD PUSH2 0x39B JUMP JUMPDEST PUSH1 0x2 DUP7 PUSH1 0x2 DUP2 GT ISZERO PUSH2 0x541 JUMPI PUSH4 0x4E487B71 PUSH1 0xE0 SHL PUSH1 0x0 MSTORE PUSH1 0x21 PUSH1 0x4 MSTORE PUSH1 0x24 PUSH1 0x0 REVERT JUMPDEST EQ DUP1 PUSH2 0x56C JUMPI POP PUSH1 0x1 DUP7 PUSH1 0x2 DUP2 GT ISZERO PUSH2 0x56A JUMPI PUSH4 0x4E487B71 PUSH1 0xE0 SHL PUSH1 0x0 MSTORE PUSH1 0x21 PUSH1 0x4 MSTORE PUSH1 0x24 PUSH1 0x0 REVERT JUMPDEST EQ JUMPDEST PUSH2 0x5AC JUMPI PUSH1 0x40 MLOAD PUSH3 0x461BCD PUSH1 0xE5 SHL DUP2 MSTORE PUSH1 0x20 PUSH1 0x4 DUP3 ADD MSTORE PUSH1 0x11 PUSH1 0x24 DUP3 ADD MSTORE PUSH17 0x57726F6E67206F7074696F6E2074797065 PUSH1 0x78 SHL PUSH1 0x44 DUP3 ADD MSTORE PUSH1 0x64 ADD PUSH2 0x310 JUMP JUMPDEST PUSH3 0x15180 DUP6 LT ISZERO PUSH2 0x5F5 JUMPI PUSH1 0x40 MLOAD PUSH3 0x461BCD PUSH1 0xE5 SHL DUP2 MSTORE PUSH1 0x20 PUSH1 0x4 DUP3 ADD MSTORE PUSH1 0x13 PUSH1 0x24 DUP3 ADD MSTORE PUSH19 0x14195C9A5BD9081A5CC81D1BDBC81CDA1BDC9D PUSH1 0x6A SHL PUSH1 0x44 DUP3 ADD MSTORE PUSH1 0x64 ADD PUSH2 0x310 JUMP JUMPDEST PUSH3 0x76A700 DUP6 GT ISZERO PUSH2 0x63D JUMPI PUSH1 0x40 MLOAD PUSH3 0x461BCD PUSH1 0xE5 SHL DUP2 MSTORE PUSH1 0x20 PUSH1 0x4 DUP3 ADD MSTORE PUSH1 0x12 PUSH1 0x24 DUP3 ADD MSTORE PUSH18 0x506572696F6420697320746F6F206C6F6E67 PUSH1 0x70 SHL PUSH1 0x44 DUP3 ADD MSTORE PUSH1 0x64 ADD PUSH2 0x310 JUMP JUMPDEST DUP3 DUP5 GT PUSH2 0x68C JUMPI PUSH1 0x40 MLOAD PUSH3 0x461BCD PUSH1 0xE5 SHL DUP2 MSTORE PUSH1 0x20 PUSH1 0x4 DUP3 ADD MSTORE PUSH1 0x1D PUSH1 0x24 DUP3 ADD MSTORE PUSH32 0x507269636520646966666572656E636520697320746F6F206C61726765000000 PUSH1 0x44 DUP3 ADD MSTORE PUSH1 0x64 ADD PUSH2 0x310 JUMP JUMPDEST DUP2 DUP2 LT ISZERO PUSH2 0x6CA JUMPI PUSH1 0x40 MLOAD PUSH3 0x461BCD PUSH1 0xE5 SHL DUP2 MSTORE PUSH1 0x20 PUSH1 0x4 DUP3 ADD MSTORE PUSH1 0xB PUSH1 0x24 DUP3 ADD MSTORE PUSH11 0x57726F6E672076616C7565 PUSH1 0xA8 SHL PUSH1 0x44 DUP3 ADD MSTORE PUSH1 0x64 ADD PUSH2 0x310 JUMP JUMPDEST POP POP POP POP POP POP JUMP JUMPDEST CALLER PUSH2 0x6DB PUSH2 0x70D JUMP JUMPDEST PUSH1 0x1 PUSH1 0x1 PUSH1 0xA0 SHL SUB AND EQ PUSH2 0x701 JUMPI PUSH1 0x40 MLOAD PUSH3 0x461BCD PUSH1 0xE5 SHL DUP2 MSTORE PUSH1 0x4 ADD PUSH2 0x310 SWAP1 PUSH2 0xD2A JUMP JUMPDEST PUSH2 0x70B PUSH1 0x0 PUSH2 0xBC6 JUMP JUMPDEST JUMP JUMPDEST PUSH1 0x0 SLOAD PUSH1 0x1 PUSH1 0x1 PUSH1 0xA0 SHL SUB AND SWAP1 JUMP JUMPDEST CALLER PUSH2 0x725 PUSH2 0x70D JUMP JUMPDEST PUSH1 0x1 PUSH1 0x1 PUSH1 0xA0 SHL SUB AND EQ PUSH2 0x74B JUMPI PUSH1 0x40 MLOAD PUSH3 0x461BCD PUSH1 0xE5 SHL DUP2 MSTORE PUSH1 0x4 ADD PUSH2 0x310 SWAP1 PUSH2 0xD2A JUMP JUMPDEST PUSH1 0x1 PUSH1 0x1 PUSH1 0xA0 SHL SUB DUP2 AND PUSH2 0x75E JUMPI PUSH1 0x0 DUP1 REVERT JUMPDEST PUSH1 0x7 DUP1 SLOAD PUSH1 0x1 PUSH1 0x1 PUSH1 0xA0 SHL SUB NOT AND PUSH1 0x1 PUSH1 0x1 PUSH1 0xA0 SHL SUB DUP4 AND OR SWAP1 SSTORE PUSH1 0x40 MLOAD PUSH32 0x92F6C1E8DF34C666F737A2407B4E63D3A77F133B69FDF70F01B5E3B8072551F6 SWAP1 PUSH2 0x39B SWAP1 DUP4 SWAP1 PUSH2 0xCC9 JUMP JUMPDEST CALLER PUSH2 0x7B2 PUSH2 0x70D JUMP JUMPDEST PUSH1 0x1 PUSH1 0x1 PUSH1 0xA0 SHL SUB AND EQ PUSH2 0x7D8 JUMPI PUSH1 0x40 MLOAD PUSH3 0x461BCD PUSH1 0xE5 SHL DUP2 MSTORE PUSH1 0x4 ADD PUSH2 0x310 SWAP1 PUSH2 0xD2A JUMP JUMPDEST PUSH1 0x64 DUP2 LT ISZERO PUSH2 0x833 JUMPI PUSH1 0x40 MLOAD PUSH3 0x461BCD PUSH1 0xE5 SHL DUP2 MSTORE PUSH1 0x20 PUSH1 0x4 DUP3 ADD MSTORE PUSH1 0x21 PUSH1 0x24 DUP3 ADD MSTORE PUSH32 0x496D706C696564566F6C52617465206C696D697420697320746F6F20736D616C PUSH1 0x44 DUP3 ADD MSTORE PUSH1 0x1B PUSH1 0xFA SHL PUSH1 0x64 DUP3 ADD MSTORE PUSH1 0x84 ADD PUSH2 0x310 JUMP JUMPDEST PUSH1 0x1 DUP2 SWAP1 SSTORE PUSH1 0x40 MLOAD DUP2 DUP2 MSTORE PUSH32 0x3E0C59249D1A9C5F08383BDBDFBC45517A71B76E72223AE649C576E4D1258696 SWAP1 PUSH1 0x20 ADD PUSH2 0x39B JUMP JUMPDEST CALLER PUSH2 0x871 PUSH2 0x70D JUMP JUMPDEST PUSH1 0x1 PUSH1 0x1 PUSH1 0xA0 SHL SUB AND EQ PUSH2 0x897 JUMPI PUSH1 0x40 MLOAD PUSH3 0x461BCD PUSH1 0xE5 SHL DUP2 MSTORE PUSH1 0x4 ADD PUSH2 0x310 SWAP1 PUSH2 0xD2A JUMP JUMPDEST PUSH1 0x64 DUP2 GT ISZERO PUSH2 0x8F4 JUMPI PUSH1 0x40 MLOAD PUSH3 0x461BCD PUSH1 0xE5 SHL DUP2 MSTORE PUSH1 0x20 PUSH1 0x4 DUP3 ADD MSTORE PUSH1 0x24 DUP1 DUP3 ADD MSTORE PUSH32 0x526566657272616C52657761726450657263656E7461676520697320746F6F20 PUSH1 0x44 DUP3 ADD MSTORE PUSH4 0xD0D2CED PUSH1 0xE3 SHL PUSH1 0x64 DUP3 ADD MSTORE PUSH1 0x84 ADD PUSH2 0x310 JUMP JUMPDEST PUSH1 0x5 DUP2 SWAP1 SSTORE PUSH1 0x40 MLOAD DUP2 DUP2 MSTORE PUSH32 0xC089466003B94FFB5787D1D1AFFE1C743F8CA63F949D2296CFA4D7986601ADE SWAP1 PUSH1 0x20 ADD PUSH2 0x39B JUMP JUMPDEST CALLER PUSH2 0x932 PUSH2 0x70D JUMP JUMPDEST PUSH1 0x1 PUSH1 0x1 PUSH1 0xA0 SHL SUB AND EQ PUSH2 0x958 JUMPI PUSH1 0x40 MLOAD PUSH3 0x461BCD PUSH1 0xE5 SHL DUP2 MSTORE PUSH1 0x4 ADD PUSH2 0x310 SWAP1 PUSH2 0xD2A JUMP JUMPDEST DUP1 PUSH1 0x32 GT ISZERO DUP1 ISZERO PUSH2 0x96A JUMPI POP PUSH1 0x64 DUP2 GT ISZERO JUMPDEST PUSH2 0x986 JUMPI PUSH1 0x40 MLOAD PUSH3 0x461BCD PUSH1 0xE5 SHL DUP2 MSTORE PUSH1 0x4 ADD PUSH2 0x310 SWAP1 PUSH2 0xD05 JUMP JUMPDEST PUSH1 0x2 DUP2 SWAP1 SSTORE PUSH1 0x40 MLOAD DUP2 DUP2 MSTORE PUSH32 0x66B26A0DFAA5FC9F5C7432381208AA4BD7F13F4489299B52F09F1AF7669BB93B SWAP1 PUSH1 0x20 ADD PUSH2 0x39B JUMP JUMPDEST CALLER PUSH2 0x9C4 PUSH2 0x70D JUMP JUMPDEST PUSH1 0x1 PUSH1 0x1 PUSH1 0xA0 SHL SUB AND EQ PUSH2 0x9EA JUMPI PUSH1 0x40 MLOAD PUSH3 0x461BCD PUSH1 0xE5 SHL DUP2 MSTORE PUSH1 0x4 ADD PUSH2 0x310 SWAP1 PUSH2 0xD2A JUMP JUMPDEST PUSH1 0x64 DUP2 LT PUSH2 0xA5B JUMPI PUSH1 0x40 MLOAD PUSH3 0x461BCD PUSH1 0xE5 SHL DUP2 MSTORE PUSH1 0x20 PUSH1 0x4 DUP3 ADD MSTORE PUSH1 0x38 PUSH1 0x24 DUP3 ADD MSTORE PUSH32 0x4F7074696F6E53697A65506572426C6F636B4C696D697450657263656E74206E PUSH1 0x44 DUP3 ADD MSTORE PUSH24 0x6565647320746F206265206C657373207468616E2031303 PUSH1 0x44 SHL PUSH1 0x64 DUP3 ADD MSTORE PUSH1 0x84 ADD PUSH2 0x310 JUMP JUMPDEST PUSH1 0x9 DUP2 SWAP1 SSTORE PUSH1 0x40 MLOAD DUP2 DUP2 MSTORE PUSH32 0x5CA84F51F1B091675330ABC6E5665566A97744B04121DABC6BDA4B3D3503945F SWAP1 PUSH1 0x20 ADD PUSH2 0x39B JUMP JUMPDEST CALLER PUSH2 0xA99 PUSH2 0x70D JUMP JUMPDEST PUSH1 0x1 PUSH1 0x1 PUSH1 0xA0 SHL SUB AND EQ PUSH2 0xABF JUMPI PUSH1 0x40 MLOAD PUSH3 0x461BCD PUSH1 0xE5 SHL DUP2 MSTORE PUSH1 0x4 ADD PUSH2 0x310 SWAP1 PUSH2 0xD2A JUMP JUMPDEST PUSH1 0x1 PUSH1 0x1 PUSH1 0xA0 SHL SUB DUP2 AND PUSH2 0xB24 JUMPI PUSH1 0x40 MLOAD PUSH3 0x461BCD PUSH1 0xE5 SHL DUP2 MSTORE PUSH1 0x20 PUSH1 0x4 DUP3 ADD MSTORE PUSH1 0x26 PUSH1 0x24 DUP3 ADD MSTORE PUSH32 0x4F776E61626C653A206E6577206F776E657220697320746865207A65726F2061 PUSH1 0x44 DUP3 ADD MSTORE PUSH6 0x646472657373 PUSH1 0xD0 SHL PUSH1 0x64 DUP3 ADD MSTORE PUSH1 0x84 ADD PUSH2 0x310 JUMP JUMPDEST PUSH2 0xB2D DUP2 PUSH2 0xBC6 JUMP JUMPDEST POP JUMP JUMPDEST CALLER PUSH2 0xB39 PUSH2 0x70D JUMP JUMPDEST PUSH1 0x1 PUSH1 0x1 PUSH1 0xA0 SHL SUB AND EQ PUSH2 0xB5F JUMPI PUSH1 0x40 MLOAD PUSH3 0x461BCD PUSH1 0xE5 SHL DUP2 MSTORE PUSH1 0x4 ADD PUSH2 0x310 SWAP1 PUSH2 0xD2A JUMP JUMPDEST PUSH1 0xA DUP1 SLOAD DUP3 SWAP2 SWAP1 PUSH1 0xFF PUSH1 0xA0 SHL NOT AND PUSH1 0x1 PUSH1 0xA0 SHL DUP4 PUSH1 0x3 DUP2 GT ISZERO PUSH2 0xB92 JUMPI PUSH4 0x4E487B71 PUSH1 0xE0 SHL PUSH1 0x0 MSTORE PUSH1 0x21 PUSH1 0x4 MSTORE PUSH1 0x24 PUSH1 0x0 REVERT JUMPDEST MUL OR SWAP1 SSTORE POP PUSH32 0x75E98309D621801FC34E8CE7FA6EAA10B82599A58639171FE865E39BB4728D48 DUP2 PUSH1 0x40 MLOAD PUSH2 0x39B SWAP2 SWAP1 PUSH2 0xCDD JUMP JUMPDEST PUSH1 0x0 DUP1 SLOAD PUSH1 0x1 PUSH1 0x1 PUSH1 0xA0 SHL SUB DUP4 DUP2 AND PUSH1 0x1 PUSH1 0x1 PUSH1 0xA0 SHL SUB NOT DUP4 AND DUP2 OR DUP5 SSTORE PUSH1 0x40 MLOAD SWAP2 SWAP1 SWAP3 AND SWAP3 DUP4 SWAP2 PUSH32 0x8BE0079C531659141344CD1FD0A4F28419497F9722A3DAAFE3B4186F6B6457E0 SWAP2 SWAP1 LOG3 POP POP JUMP JUMPDEST PUSH1 0x0 PUSH1 0x20 DUP3 DUP5 SUB SLT ISZERO PUSH2 0xC27 JUMPI DUP1 DUP2 REVERT JUMPDEST DUP2 CALLDATALOAD PUSH1 0x1 PUSH1 0x1 PUSH1 0xA0 SHL SUB DUP2 AND DUP2 EQ PUSH2 0xC3D JUMPI DUP2 DUP3 REVERT JUMPDEST SWAP4 SWAP3 POP POP POP JUMP JUMPDEST PUSH1 0x0 DUP1 PUSH1 0x0 DUP1 PUSH1 0x0 DUP1 PUSH1 0xC0 DUP8 DUP10 SUB SLT ISZERO PUSH2 0xC5C JUMPI DUP2 DUP3 REVERT JUMPDEST DUP7 CALLDATALOAD PUSH1 0x3 DUP2 LT PUSH2 0xC6A JUMPI DUP3 DUP4 REVERT JUMPDEST SWAP9 PUSH1 0x20 DUP9 ADD CALLDATALOAD SWAP9 POP PUSH1 0x40 DUP9 ADD CALLDATALOAD SWAP8 PUSH1 0x60 DUP2 ADD CALLDATALOAD SWAP8 POP PUSH1 0x80 DUP2 ADD CALLDATALOAD SWAP7 POP PUSH1 0xA0 ADD CALLDATALOAD SWAP5 POP SWAP3 POP POP POP JUMP JUMPDEST PUSH1 0x0 PUSH1 0x20 DUP3 DUP5 SUB SLT ISZERO PUSH2 0xCA3 JUMPI DUP1 DUP2 REVERT JUMPDEST DUP2 CALLDATALOAD PUSH1 0x4 DUP2 LT PUSH2 0xC3D JUMPI DUP2 DUP3 REVERT JUMPDEST PUSH1 0x0 PUSH1 0x20 DUP3 DUP5 SUB SLT ISZERO PUSH2 0xCC2 JUMPI DUP1 DUP2 REVERT JUMPDEST POP CALLDATALOAD SWAP2 SWAP1 POP JUMP JUMPDEST PUSH1 0x1 PUSH1 0x1 PUSH1 0xA0 SHL SUB SWAP2 SWAP1 SWAP2 AND DUP2 MSTORE PUSH1 0x20 ADD SWAP1 JUMP JUMPDEST PUSH1 0x20 DUP2 ADD PUSH1 0x4 DUP4 LT PUSH2 0xCFF JUMPI PUSH4 0x4E487B71 PUSH1 0xE0 SHL PUSH1 0x0 MSTORE PUSH1 0x21 PUSH1 0x4 MSTORE PUSH1 0x24 PUSH1 0x0 REVERT JUMPDEST SWAP2 SWAP1 MSTORE SWAP1 JUMP JUMPDEST PUSH1 0x20 DUP1 DUP3 MSTORE PUSH1 0xB SWAP1 DUP3 ADD MSTORE PUSH11 0x77726F6E672076616C7565 PUSH1 0xA8 SHL PUSH1 0x40 DUP3 ADD MSTORE PUSH1 0x60 ADD SWAP1 JUMP JUMPDEST PUSH1 0x20 DUP1 DUP3 MSTORE DUP2 DUP2 ADD MSTORE PUSH32 0x4F776E61626C653A2063616C6C6572206973206E6F7420746865206F776E6572 PUSH1 0x40 DUP3 ADD MSTORE PUSH1 0x60 ADD SWAP1 JUMP INVALID LOG2 PUSH5 0x6970667358 0x22 SLT KECCAK256 0xEF SWAP12 0x2F 0xC2 0xE6 0xBB 0xE5 MSTORE8 0x27 0xAE 0xE2 SWAP1 0x5E SDIV 0x1E TIMESTAMP PUSH32 0xC85AB4BB8AF7D14BBC8CF7A03F57AE64736F6C63430008040033000000000000 ","sha1":"cbed5ae9897d5c284dec89a514e56aa2b9595e5d","source":"pragma solidity ^0.8.0;\n\n// SPDX-License-Identifier: BUSL-1.1\n\nimport \"@openzeppelin/contracts/access/Ownable.sol\";\nimport \"../Pool/BufferIBFRPoolV2.sol\";\n\n/**\n * @author Heisenberg\n * @title Buffer BNB Bidirectional (Call and Put) Options\n * @notice Buffer BNB Options Contract\n */\ncontract OptionConfigBinary is Ownable, IBufferOptions, IOptionsConfig {\n    uint256 public impliedVolRate;\n    uint256 public optionCollateralizationRatio = 100;\n    uint256 public settlementFeePercentage = 1;\n    uint256 public stakingFeePercentage = 50;\n    uint256 public referralRewardPercentage = 0;\n    uint256 public nftSaleRoyaltyPercentage = 5;\n    uint256 internal constant PRICE_DECIMALS = 1e8;\n    address public settlementFeeRecipient;\n    uint256 public utilizationRate = 60e8;\n    uint256 public optionSizePerBlockLimitPercent = 5;\n    BufferIBFRPoolV2 public pool;\n    PermittedTradingType public permittedTradingType;\n\n    constructor(\n        address staking,\n        uint256 initialImpliedVolRate,\n        BufferIBFRPoolV2 _pool\n    ) {\n        settlementFeeRecipient = staking;\n        impliedVolRate = initialImpliedVolRate;\n        pool = _pool;\n    }\n\n    /**\n     * @notice Check the validity of the input params\n     * @param optionType Call or Put option type\n     * @param period Option period in seconds (1 days <= period <= 90 days)\n     * @param amount Option amount\n     * @param strikeFee strike fee for the option\n     * @param totalFee total fee for the option\n     * @param msgValue the msg.value given to the Create function\n     */\n    function checkParams(\n        IBufferOptions.OptionType optionType,\n        uint256 period,\n        uint256 amount,\n        uint256 strikeFee,\n        uint256 totalFee,\n        uint256 msgValue\n    ) external pure {\n        require(\n            optionType == IBufferOptions.OptionType.Call ||\n                optionType == IBufferOptions.OptionType.Put,\n            \"Wrong option type\"\n        );\n        require(period >= 1 days, \"Period is too short\");\n        require(period <= 90 days, \"Period is too long\");\n        require(amount > strikeFee, \"Price difference is too large\");\n        require(msgValue >= totalFee, \"Wrong value\");\n    }\n\n    /**\n     * @notice Used for adjusting the option size per block limit percent\n     * @param value New option size per block limit percent value\n     */\n    function setOptionSizePerBlockLimitPercent(uint256 value)\n        external\n        onlyOwner\n    {\n        require(\n            value < 100,\n            \"OptionSizePerBlockLimitPercent needs to be less than 100\"\n        );\n        optionSizePerBlockLimitPercent = value;\n        emit UpdateOptionSizePerBlockLimitPercent(value);\n    }\n\n    /**\n     * @notice Used for adjusting the options prices while balancing asset's implied volatility rate\n     * @param value New IVRate value\n     */\n    function setImpliedVolRate(uint256 value) external onlyOwner {\n        require(value >= 100, \"ImpliedVolRate limit is too small\");\n        impliedVolRate = value;\n        emit UpdateImpliedVolatility(value);\n    }\n\n    function setTradingPermission(PermittedTradingType permissionType)\n        external\n        onlyOwner\n    {\n        permittedTradingType = permissionType;\n        emit UpdateTradingPermission(permissionType);\n    }\n\n    /**\n     * @notice Used for adjusting the settlement fee percentage\n     * @param value New Settlement Fee Percentage\n     */\n    function setSettlementFeePercentage(uint256 value) external onlyOwner {\n        require(value < 20, \"SettlementFeePercentage is too high\");\n        settlementFeePercentage = value;\n        emit UpdateSettlementFeePercentage(value);\n    }\n\n    /**\n     * @notice Used for changing settlementFeeRecipient\n     * @param recipient New settlementFee recipient address\n     */\n    function setSettlementFeeRecipient(address recipient) external onlyOwner {\n        require(address(recipient) != address(0));\n        settlementFeeRecipient = recipient;\n        emit UpdateSettlementFeeRecipient(address(recipient));\n    }\n\n    /**\n     * @notice Used for adjusting the staking fee percentage\n     * @param value New Staking Fee Percentage\n     */\n    function setStakingFeePercentage(uint256 value) external onlyOwner {\n        require(value <= 100, \"StakingFeePercentage is too high\");\n        stakingFeePercentage = value;\n        emit UpdateStakingFeePercentage(value);\n    }\n\n    /**\n     * @notice Used for adjusting the referral reward percentage\n     * @param value New Referral Reward Percentage\n     */\n    function setReferralRewardPercentage(uint256 value) external onlyOwner {\n        require(value <= 100, \"ReferralRewardPercentage is too high\");\n        referralRewardPercentage = value;\n        emit UpdateReferralRewardPercentage(value);\n    }\n\n    /**\n     * @notice Used for changing option collateralization ratio\n     * @param value New optionCollateralizationRatio value\n     */\n    function setOptionCollaterizationRatio(uint256 value) external onlyOwner {\n        require(50 <= value && value <= 100, \"wrong value\");\n        optionCollateralizationRatio = value;\n        emit UpdateOptionCollaterizationRatio(value);\n    }\n\n    /**\n     * @notice Used for changing nftSaleRoyaltyPercentage\n     * @param value New nftSaleRoyaltyPercentage value\n     */\n    function setNFTSaleRoyaltyPercentage(uint256 value) external onlyOwner {\n        require(value <= 10, \"wrong value\");\n        nftSaleRoyaltyPercentage = value;\n        emit UpdateNFTSaleRoyaltyPercentage(value);\n    }\n\n    /**\n     * @notice Used for updating utilizationRate value\n     * @param value New utilizationRate value\n     **/\n    function setUtilizationRate(uint256 value) external onlyOwner {\n        utilizationRate = value;\n    }\n}\n","sourcePath":"contracts/Options/OptionConfigBinary.sol","type":"contract","deployment":{"address":"0x1886D673b98241f1660b69091529812723f1B9fA","chainid":"80001","blockHeight":27240187}}