{"abi":[{"inputs":[{"components":[{"internalType":"uint256","name":"optionId","type":"uint256"},{"internalType":"address","name":"contractAddress","type":"address"}],"internalType":"struct OptionMeta.Input[]","name":"options","type":"tuple[]"}],"name":"get_option_data","outputs":[{"components":[{"internalType":"enum IBufferOptions.State","name":"state","type":"uint8"},{"internalType":"uint256","name":"strike","type":"uint256"},{"internalType":"uint256","name":"amount","type":"uint256"},{"internalType":"uint256","name":"lockedAmount","type":"uint256"},{"internalType":"uint256","name":"premium","type":"uint256"},{"internalType":"uint256","name":"expiration","type":"uint256"},{"internalType":"enum IBufferOptions.OptionType","name":"optionType","type":"uint8"},{"internalType":"bool","name":"isYes","type":"bool"},{"internalType":"bool","name":"isAbove","type":"bool"},{"internalType":"uint256","name":"iv","type":"uint256"},{"internalType":"uint256","name":"assetPrice","type":"uint256"},{"internalType":"uint256","name":"priceAtExpiration","type":"uint256"},{"internalType":"address","name":"owner","type":"address"}],"internalType":"struct OptionMeta.OptionMetaData[]","name":"allOptions","type":"tuple[]"}],"stateMutability":"view","type":"function"},{"inputs":[{"internalType":"address","name":"priceProvider","type":"address"},{"internalType":"uint256","name":"timestamp","type":"uint256"}],"name":"get_price_at_timestamp","outputs":[{"internalType":"uint256","name":"","type":"uint256"}],"stateMutability":"view","type":"function"}],"bytecode":"608060405234801561001057600080fd5b50610ae7806100206000396000f3fe608060405234801561001057600080fd5b50600436106100365760003560e01c8063d2c85c561461003b578063fda6ed2f14610061575b600080fd5b61004e610049366004610781565b610081565b6040519081526020015b60405180910390f35b61007461006f3660046107ac565b6101df565b6040516100589190610948565b6000808390506000806000836001600160a01b031663feaf968c6040518163ffffffff1660e01b815260040160a06040518083038186803b1580156100c557600080fd5b505afa1580156100d9573d6000803e3d6000fd5b505050506040513d601f19601f820116820180604052508101906100fd91906108d5565b5093505092509250858111156101d55760005b806101d357610120600185610a2a565b604051639a6fc8f560e01b81526001600160501b038216600482015290945060009081906001600160a01b03881690639a6fc8f59060240160a06040518083038186803b15801561017057600080fd5b505afa158015610184573d6000803e3d6000fd5b505050506040513d601f19601f820116820180604052508101906101a891906108d5565b509350509250506000811180156101bf5750888111155b156101cc57600192508194505b5050610110565b505b5095945050505050565b6060816001600160401b0381111561020757634e487b7160e01b600052604160045260246000fd5b60405190808252806020026020018201604052801561024057816020015b61022d61068e565b8152602001906001900390816102255790505b50905060005b8281101561068757600084848381811061027057634e487b7160e01b600052603260045260246000fd5b905060400201600001359050600085858481811061029e57634e487b7160e01b600052603260045260246000fd5b90506040020160200160208101906102b69190610742565b90506000806000806000806000876001600160a01b031663409e22058a6040518263ffffffff1660e01b81526004016102f191815260200190565b60e06040518083038186803b15801561030957600080fd5b505afa15801561031d573d6000803e3d6000fd5b505050506040513d601f19601f82011682018060405250810190610341919061084d565b9650965096509650965096509650600080896001600160a01b031663689ab5ac8c6040518263ffffffff1660e01b815260040161038091815260200190565b604080518083038186803b15801561039757600080fd5b505afa1580156103ab573d6000803e3d6000fd5b505050506040513d601f19601f820116820180604052508101906103cf919061081b565b91509150604051806101a001604052808a60038111156103ff57634e487b7160e01b600052602160045260246000fd5b815260200189815260200188815260200187815260200186815260200185815260200184600281111561044257634e487b7160e01b600052602160045260246000fd5b815260200183151581526020018215158152602001600081526020018b6001600160a01b0316631acf55826040518163ffffffff1660e01b815260040160206040518083038186803b15801561049757600080fd5b505afa1580156104ab573d6000803e3d6000fd5b505050506040513d601f19601f820116820180604052508101906104cf91906108bd565b815260200160018b60038111156104f657634e487b7160e01b600052602160045260246000fd5b14801561050257508542115b61050d576000610587565b6105878c6001600160a01b031663b888879e6040518163ffffffff1660e01b815260040160206040518083038186803b15801561054957600080fd5b505afa15801561055d573d6000803e3d6000fd5b505050506040513d601f19601f820116820180604052508101906105819190610765565b87610081565b815260200160018b60038111156105ae57634e487b7160e01b600052602160045260246000fd5b146105ba576000610632565b6040516331a9108f60e11b8152600481018e90526001600160a01b038d1690636352211e9060240160206040518083038186803b1580156105fa57600080fd5b505afa15801561060e573d6000803e3d6000fd5b505050506040513d601f19601f820116820180604052508101906106329190610765565b6001600160a01b03168152508d8d8151811061065e57634e487b7160e01b600052603260045260246000fd5b60200260200101819052505050505050505050505050808061067f90610a52565b915050610246565b5092915050565b604080516101a0810190915280600081526020016000815260200160008152602001600081526020016000815260200160008152602001600060028111156106e657634e487b7160e01b600052602160045260246000fd5b815260006020820181905260408201819052606082018190526080820181905260a0820181905260c09091015290565b8051801515811461072657600080fd5b919050565b80516001600160501b038116811461072657600080fd5b600060208284031215610753578081fd5b813561075e81610a99565b9392505050565b600060208284031215610776578081fd5b815161075e81610a99565b60008060408385031215610793578081fd5b823561079e81610a99565b946020939093013593505050565b600080602083850312156107be578182fd5b82356001600160401b03808211156107d4578384fd5b818501915085601f8301126107e7578384fd5b8135818111156107f5578485fd5b8660208260061b8501011115610809578485fd5b60209290920196919550909350505050565b6000806040838503121561082d578182fd5b61083683610716565b915061084460208401610716565b90509250929050565b600080600080600080600060e0888a031215610867578283fd5b875160048110610875578384fd5b809750506020880151955060408801519450606088015193506080880151925060a0880151915060c0880151600381106108ad578182fd5b8091505092959891949750929550565b6000602082840312156108ce578081fd5b5051919050565b600080600080600060a086880312156108ec578081fd5b6108f58661072b565b94506020860151935060408601519250606086015191506109186080870161072b565b90509295509295909350565b6003811061093457610934610a83565b9052565b6004811061093457610934610a83565b602080825282518282018190526000919060409081850190868401855b82811015610a1d57815161097a858251610938565b80870151858801528581015186860152606080820151908601526080808201519086015260a0808201519086015260c0808201516109ba82880182610924565b505060e08181015115159086015261010080820151151590860152610120808201519086015261014080820151908601526101608082015190860152610180908101516001600160a01b0316908501526101a09093019290850190600101610965565b5091979650505050505050565b60006001600160501b0383811690831681811015610a4a57610a4a610a6d565b039392505050565b6000600019821415610a6657610a66610a6d565b5060010190565b634e487b7160e01b600052601160045260246000fd5b634e487b7160e01b600052602160045260246000fd5b6001600160a01b0381168114610aae57600080fd5b5056fea2646970667358221220f601d70416ec2ce3469677fa90d6b1402f7b250be2d1c3cfe472ef7fd2e7564b64736f6c63430008040033","bytecodeSha1":"7da89affbd17626b3fef6e085d9986e505eb1aa1","compiler":{"evm_version":"istanbul","optimizer":{"enabled":true,"runs":1},"version":"0.8.4+commit.c7e474f2"},"contractName":"OptionMeta","language":"Solidity","natspec":{"kind":"dev","methods":{},"version":1},"opcodes":"PUSH1 0x80 PUSH1 0x40 MSTORE CALLVALUE DUP1 ISZERO PUSH2 0x10 JUMPI PUSH1 0x0 DUP1 REVERT JUMPDEST POP PUSH1 0x4 CALLDATASIZE LT PUSH2 0x36 JUMPI PUSH1 0x0 CALLDATALOAD PUSH1 0xE0 SHR DUP1 PUSH4 0xD2C85C56 EQ PUSH2 0x3B JUMPI DUP1 PUSH4 0xFDA6ED2F EQ PUSH2 0x61 JUMPI JUMPDEST PUSH1 0x0 DUP1 REVERT JUMPDEST PUSH2 0x4E PUSH2 0x49 CALLDATASIZE PUSH1 0x4 PUSH2 0x781 JUMP JUMPDEST PUSH2 0x81 JUMP JUMPDEST PUSH1 0x40 MLOAD SWAP1 DUP2 MSTORE PUSH1 0x20 ADD JUMPDEST PUSH1 0x40 MLOAD DUP1 SWAP2 SUB SWAP1 RETURN JUMPDEST PUSH2 0x74 PUSH2 0x6F CALLDATASIZE PUSH1 0x4 PUSH2 0x7AC JUMP JUMPDEST PUSH2 0x1DF JUMP JUMPDEST PUSH1 0x40 MLOAD PUSH2 0x58 SWAP2 SWAP1 PUSH2 0x948 JUMP JUMPDEST PUSH1 0x0 DUP1 DUP4 SWAP1 POP PUSH1 0x0 DUP1 PUSH1 0x0 DUP4 PUSH1 0x1 PUSH1 0x1 PUSH1 0xA0 SHL SUB AND PUSH4 0xFEAF968C PUSH1 0x40 MLOAD DUP2 PUSH4 0xFFFFFFFF AND PUSH1 0xE0 SHL DUP2 MSTORE PUSH1 0x4 ADD PUSH1 0xA0 PUSH1 0x40 MLOAD DUP1 DUP4 SUB DUP2 DUP7 DUP1 EXTCODESIZE ISZERO DUP1 ISZERO PUSH2 0xC5 JUMPI PUSH1 0x0 DUP1 REVERT JUMPDEST POP GAS STATICCALL ISZERO DUP1 ISZERO PUSH2 0xD9 JUMPI RETURNDATASIZE PUSH1 0x0 DUP1 RETURNDATACOPY RETURNDATASIZE PUSH1 0x0 REVERT JUMPDEST POP POP POP POP PUSH1 0x40 MLOAD RETURNDATASIZE PUSH1 0x1F NOT PUSH1 0x1F DUP3 ADD AND DUP3 ADD DUP1 PUSH1 0x40 MSTORE POP DUP2 ADD SWAP1 PUSH2 0xFD SWAP2 SWAP1 PUSH2 0x8D5 JUMP JUMPDEST POP SWAP4 POP POP SWAP3 POP SWAP3 POP DUP6 DUP2 GT ISZERO PUSH2 0x1D5 JUMPI PUSH1 0x0 JUMPDEST DUP1 PUSH2 0x1D3 JUMPI PUSH2 0x120 PUSH1 0x1 DUP6 PUSH2 0xA2A JUMP JUMPDEST PUSH1 0x40 MLOAD PUSH4 0x9A6FC8F5 PUSH1 0xE0 SHL DUP2 MSTORE PUSH1 0x1 PUSH1 0x1 PUSH1 0x50 SHL SUB DUP3 AND PUSH1 0x4 DUP3 ADD MSTORE SWAP1 SWAP5 POP PUSH1 0x0 SWAP1 DUP2 SWAP1 PUSH1 0x1 PUSH1 0x1 PUSH1 0xA0 SHL SUB DUP9 AND SWAP1 PUSH4 0x9A6FC8F5 SWAP1 PUSH1 0x24 ADD PUSH1 0xA0 PUSH1 0x40 MLOAD DUP1 DUP4 SUB DUP2 DUP7 DUP1 EXTCODESIZE ISZERO DUP1 ISZERO PUSH2 0x170 JUMPI PUSH1 0x0 DUP1 REVERT JUMPDEST POP GAS STATICCALL ISZERO DUP1 ISZERO PUSH2 0x184 JUMPI RETURNDATASIZE PUSH1 0x0 DUP1 RETURNDATACOPY RETURNDATASIZE PUSH1 0x0 REVERT JUMPDEST POP POP POP POP PUSH1 0x40 MLOAD RETURNDATASIZE PUSH1 0x1F NOT PUSH1 0x1F DUP3 ADD AND DUP3 ADD DUP1 PUSH1 0x40 MSTORE POP DUP2 ADD SWAP1 PUSH2 0x1A8 SWAP2 SWAP1 PUSH2 0x8D5 JUMP JUMPDEST POP SWAP4 POP POP SWAP3 POP POP PUSH1 0x0 DUP2 GT DUP1 ISZERO PUSH2 0x1BF JUMPI POP DUP9 DUP2 GT ISZERO JUMPDEST ISZERO PUSH2 0x1CC JUMPI PUSH1 0x1 SWAP3 POP DUP2 SWAP5 POP JUMPDEST POP POP PUSH2 0x110 JUMP JUMPDEST POP JUMPDEST POP SWAP6 SWAP5 POP POP POP POP POP JUMP JUMPDEST PUSH1 0x60 DUP2 PUSH1 0x1 PUSH1 0x1 PUSH1 0x40 SHL SUB DUP2 GT ISZERO PUSH2 0x207 JUMPI PUSH4 0x4E487B71 PUSH1 0xE0 SHL PUSH1 0x0 MSTORE PUSH1 0x41 PUSH1 0x4 MSTORE PUSH1 0x24 PUSH1 0x0 REVERT JUMPDEST PUSH1 0x40 MLOAD SWAP1 DUP1 DUP3 MSTORE DUP1 PUSH1 0x20 MUL PUSH1 0x20 ADD DUP3 ADD PUSH1 0x40 MSTORE DUP1 ISZERO PUSH2 0x240 JUMPI DUP2 PUSH1 0x20 ADD JUMPDEST PUSH2 0x22D PUSH2 0x68E JUMP JUMPDEST DUP2 MSTORE PUSH1 0x20 ADD SWAP1 PUSH1 0x1 SWAP1 SUB SWAP1 DUP2 PUSH2 0x225 JUMPI SWAP1 POP JUMPDEST POP SWAP1 POP PUSH1 0x0 JUMPDEST DUP3 DUP2 LT ISZERO PUSH2 0x687 JUMPI PUSH1 0x0 DUP5 DUP5 DUP4 DUP2 DUP2 LT PUSH2 0x270 JUMPI PUSH4 0x4E487B71 PUSH1 0xE0 SHL PUSH1 0x0 MSTORE PUSH1 0x32 PUSH1 0x4 MSTORE PUSH1 0x24 PUSH1 0x0 REVERT JUMPDEST SWAP1 POP PUSH1 0x40 MUL ADD PUSH1 0x0 ADD CALLDATALOAD SWAP1 POP PUSH1 0x0 DUP6 DUP6 DUP5 DUP2 DUP2 LT PUSH2 0x29E JUMPI PUSH4 0x4E487B71 PUSH1 0xE0 SHL PUSH1 0x0 MSTORE PUSH1 0x32 PUSH1 0x4 MSTORE PUSH1 0x24 PUSH1 0x0 REVERT JUMPDEST SWAP1 POP PUSH1 0x40 MUL ADD PUSH1 0x20 ADD PUSH1 0x20 DUP2 ADD SWAP1 PUSH2 0x2B6 SWAP2 SWAP1 PUSH2 0x742 JUMP JUMPDEST SWAP1 POP PUSH1 0x0 DUP1 PUSH1 0x0 DUP1 PUSH1 0x0 DUP1 PUSH1 0x0 DUP8 PUSH1 0x1 PUSH1 0x1 PUSH1 0xA0 SHL SUB AND PUSH4 0x409E2205 DUP11 PUSH1 0x40 MLOAD DUP3 PUSH4 0xFFFFFFFF AND PUSH1 0xE0 SHL DUP2 MSTORE PUSH1 0x4 ADD PUSH2 0x2F1 SWAP2 DUP2 MSTORE PUSH1 0x20 ADD SWAP1 JUMP JUMPDEST PUSH1 0xE0 PUSH1 0x40 MLOAD DUP1 DUP4 SUB DUP2 DUP7 DUP1 EXTCODESIZE ISZERO DUP1 ISZERO PUSH2 0x309 JUMPI PUSH1 0x0 DUP1 REVERT JUMPDEST POP GAS STATICCALL ISZERO DUP1 ISZERO PUSH2 0x31D JUMPI RETURNDATASIZE PUSH1 0x0 DUP1 RETURNDATACOPY RETURNDATASIZE PUSH1 0x0 REVERT JUMPDEST POP POP POP POP PUSH1 0x40 MLOAD RETURNDATASIZE PUSH1 0x1F NOT PUSH1 0x1F DUP3 ADD AND DUP3 ADD DUP1 PUSH1 0x40 MSTORE POP DUP2 ADD SWAP1 PUSH2 0x341 SWAP2 SWAP1 PUSH2 0x84D JUMP JUMPDEST SWAP7 POP SWAP7 POP SWAP7 POP SWAP7 POP SWAP7 POP SWAP7 POP SWAP7 POP PUSH1 0x0 DUP1 DUP10 PUSH1 0x1 PUSH1 0x1 PUSH1 0xA0 SHL SUB AND PUSH4 0x689AB5AC DUP13 PUSH1 0x40 MLOAD DUP3 PUSH4 0xFFFFFFFF AND PUSH1 0xE0 SHL DUP2 MSTORE PUSH1 0x4 ADD PUSH2 0x380 SWAP2 DUP2 MSTORE PUSH1 0x20 ADD SWAP1 JUMP JUMPDEST PUSH1 0x40 DUP1 MLOAD DUP1 DUP4 SUB DUP2 DUP7 DUP1 EXTCODESIZE ISZERO DUP1 ISZERO PUSH2 0x397 JUMPI PUSH1 0x0 DUP1 REVERT JUMPDEST POP GAS STATICCALL ISZERO DUP1 ISZERO PUSH2 0x3AB JUMPI RETURNDATASIZE PUSH1 0x0 DUP1 RETURNDATACOPY RETURNDATASIZE PUSH1 0x0 REVERT JUMPDEST POP POP POP POP PUSH1 0x40 MLOAD RETURNDATASIZE PUSH1 0x1F NOT PUSH1 0x1F DUP3 ADD AND DUP3 ADD DUP1 PUSH1 0x40 MSTORE POP DUP2 ADD SWAP1 PUSH2 0x3CF SWAP2 SWAP1 PUSH2 0x81B JUMP JUMPDEST SWAP2 POP SWAP2 POP PUSH1 0x40 MLOAD DUP1 PUSH2 0x1A0 ADD PUSH1 0x40 MSTORE DUP1 DUP11 PUSH1 0x3 DUP2 GT ISZERO PUSH2 0x3FF JUMPI PUSH4 0x4E487B71 PUSH1 0xE0 SHL PUSH1 0x0 MSTORE PUSH1 0x21 PUSH1 0x4 MSTORE PUSH1 0x24 PUSH1 0x0 REVERT JUMPDEST DUP2 MSTORE PUSH1 0x20 ADD DUP10 DUP2 MSTORE PUSH1 0x20 ADD DUP9 DUP2 MSTORE PUSH1 0x20 ADD DUP8 DUP2 MSTORE PUSH1 0x20 ADD DUP7 DUP2 MSTORE PUSH1 0x20 ADD DUP6 DUP2 MSTORE PUSH1 0x20 ADD DUP5 PUSH1 0x2 DUP2 GT ISZERO PUSH2 0x442 JUMPI PUSH4 0x4E487B71 PUSH1 0xE0 SHL PUSH1 0x0 MSTORE PUSH1 0x21 PUSH1 0x4 MSTORE PUSH1 0x24 PUSH1 0x0 REVERT JUMPDEST DUP2 MSTORE PUSH1 0x20 ADD DUP4 ISZERO ISZERO DUP2 MSTORE PUSH1 0x20 ADD DUP3 ISZERO ISZERO DUP2 MSTORE PUSH1 0x20 ADD PUSH1 0x0 DUP2 MSTORE PUSH1 0x20 ADD DUP12 PUSH1 0x1 PUSH1 0x1 PUSH1 0xA0 SHL SUB AND PUSH4 0x1ACF5582 PUSH1 0x40 MLOAD DUP2 PUSH4 0xFFFFFFFF AND PUSH1 0xE0 SHL DUP2 MSTORE PUSH1 0x4 ADD PUSH1 0x20 PUSH1 0x40 MLOAD DUP1 DUP4 SUB DUP2 DUP7 DUP1 EXTCODESIZE ISZERO DUP1 ISZERO PUSH2 0x497 JUMPI PUSH1 0x0 DUP1 REVERT JUMPDEST POP GAS STATICCALL ISZERO DUP1 ISZERO PUSH2 0x4AB JUMPI RETURNDATASIZE PUSH1 0x0 DUP1 RETURNDATACOPY RETURNDATASIZE PUSH1 0x0 REVERT JUMPDEST POP POP POP POP PUSH1 0x40 MLOAD RETURNDATASIZE PUSH1 0x1F NOT PUSH1 0x1F DUP3 ADD AND DUP3 ADD DUP1 PUSH1 0x40 MSTORE POP DUP2 ADD SWAP1 PUSH2 0x4CF SWAP2 SWAP1 PUSH2 0x8BD JUMP JUMPDEST DUP2 MSTORE PUSH1 0x20 ADD PUSH1 0x1 DUP12 PUSH1 0x3 DUP2 GT ISZERO PUSH2 0x4F6 JUMPI PUSH4 0x4E487B71 PUSH1 0xE0 SHL PUSH1 0x0 MSTORE PUSH1 0x21 PUSH1 0x4 MSTORE PUSH1 0x24 PUSH1 0x0 REVERT JUMPDEST EQ DUP1 ISZERO PUSH2 0x502 JUMPI POP DUP6 TIMESTAMP GT JUMPDEST PUSH2 0x50D JUMPI PUSH1 0x0 PUSH2 0x587 JUMP JUMPDEST PUSH2 0x587 DUP13 PUSH1 0x1 PUSH1 0x1 PUSH1 0xA0 SHL SUB AND PUSH4 0xB888879E PUSH1 0x40 MLOAD DUP2 PUSH4 0xFFFFFFFF AND PUSH1 0xE0 SHL DUP2 MSTORE PUSH1 0x4 ADD PUSH1 0x20 PUSH1 0x40 MLOAD DUP1 DUP4 SUB DUP2 DUP7 DUP1 EXTCODESIZE ISZERO DUP1 ISZERO PUSH2 0x549 JUMPI PUSH1 0x0 DUP1 REVERT JUMPDEST POP GAS STATICCALL ISZERO DUP1 ISZERO PUSH2 0x55D JUMPI RETURNDATASIZE PUSH1 0x0 DUP1 RETURNDATACOPY RETURNDATASIZE PUSH1 0x0 REVERT JUMPDEST POP POP POP POP PUSH1 0x40 MLOAD RETURNDATASIZE PUSH1 0x1F NOT PUSH1 0x1F DUP3 ADD AND DUP3 ADD DUP1 PUSH1 0x40 MSTORE POP DUP2 ADD SWAP1 PUSH2 0x581 SWAP2 SWAP1 PUSH2 0x765 JUMP JUMPDEST DUP8 PUSH2 0x81 JUMP JUMPDEST DUP2 MSTORE PUSH1 0x20 ADD PUSH1 0x1 DUP12 PUSH1 0x3 DUP2 GT ISZERO PUSH2 0x5AE JUMPI PUSH4 0x4E487B71 PUSH1 0xE0 SHL PUSH1 0x0 MSTORE PUSH1 0x21 PUSH1 0x4 MSTORE PUSH1 0x24 PUSH1 0x0 REVERT JUMPDEST EQ PUSH2 0x5BA JUMPI PUSH1 0x0 PUSH2 0x632 JUMP JUMPDEST PUSH1 0x40 MLOAD PUSH4 0x31A9108F PUSH1 0xE1 SHL DUP2 MSTORE PUSH1 0x4 DUP2 ADD DUP15 SWAP1 MSTORE PUSH1 0x1 PUSH1 0x1 PUSH1 0xA0 SHL SUB DUP14 AND SWAP1 PUSH4 0x6352211E SWAP1 PUSH1 0x24 ADD PUSH1 0x20 PUSH1 0x40 MLOAD DUP1 DUP4 SUB DUP2 DUP7 DUP1 EXTCODESIZE ISZERO DUP1 ISZERO PUSH2 0x5FA JUMPI PUSH1 0x0 DUP1 REVERT JUMPDEST POP GAS STATICCALL ISZERO DUP1 ISZERO PUSH2 0x60E JUMPI RETURNDATASIZE PUSH1 0x0 DUP1 RETURNDATACOPY RETURNDATASIZE PUSH1 0x0 REVERT JUMPDEST POP POP POP POP PUSH1 0x40 MLOAD RETURNDATASIZE PUSH1 0x1F NOT PUSH1 0x1F DUP3 ADD AND DUP3 ADD DUP1 PUSH1 0x40 MSTORE POP DUP2 ADD SWAP1 PUSH2 0x632 SWAP2 SWAP1 PUSH2 0x765 JUMP JUMPDEST PUSH1 0x1 PUSH1 0x1 PUSH1 0xA0 SHL SUB AND DUP2 MSTORE POP DUP14 DUP14 DUP2 MLOAD DUP2 LT PUSH2 0x65E JUMPI PUSH4 0x4E487B71 PUSH1 0xE0 SHL PUSH1 0x0 MSTORE PUSH1 0x32 PUSH1 0x4 MSTORE PUSH1 0x24 PUSH1 0x0 REVERT JUMPDEST PUSH1 0x20 MUL PUSH1 0x20 ADD ADD DUP2 SWAP1 MSTORE POP POP POP POP POP POP POP POP POP POP POP POP DUP1 DUP1 PUSH2 0x67F SWAP1 PUSH2 0xA52 JUMP JUMPDEST SWAP2 POP POP PUSH2 0x246 JUMP JUMPDEST POP SWAP3 SWAP2 POP POP JUMP JUMPDEST PUSH1 0x40 DUP1 MLOAD PUSH2 0x1A0 DUP2 ADD SWAP1 SWAP2 MSTORE DUP1 PUSH1 0x0 DUP2 MSTORE PUSH1 0x20 ADD PUSH1 0x0 DUP2 MSTORE PUSH1 0x20 ADD PUSH1 0x0 DUP2 MSTORE PUSH1 0x20 ADD PUSH1 0x0 DUP2 MSTORE PUSH1 0x20 ADD PUSH1 0x0 DUP2 MSTORE PUSH1 0x20 ADD PUSH1 0x0 DUP2 MSTORE PUSH1 0x20 ADD PUSH1 0x0 PUSH1 0x2 DUP2 GT ISZERO PUSH2 0x6E6 JUMPI PUSH4 0x4E487B71 PUSH1 0xE0 SHL PUSH1 0x0 MSTORE PUSH1 0x21 PUSH1 0x4 MSTORE PUSH1 0x24 PUSH1 0x0 REVERT JUMPDEST DUP2 MSTORE PUSH1 0x0 PUSH1 0x20 DUP3 ADD DUP2 SWAP1 MSTORE PUSH1 0x40 DUP3 ADD DUP2 SWAP1 MSTORE PUSH1 0x60 DUP3 ADD DUP2 SWAP1 MSTORE PUSH1 0x80 DUP3 ADD DUP2 SWAP1 MSTORE PUSH1 0xA0 DUP3 ADD DUP2 SWAP1 MSTORE PUSH1 0xC0 SWAP1 SWAP2 ADD MSTORE SWAP1 JUMP JUMPDEST DUP1 MLOAD DUP1 ISZERO ISZERO DUP2 EQ PUSH2 0x726 JUMPI PUSH1 0x0 DUP1 REVERT JUMPDEST SWAP2 SWAP1 POP JUMP JUMPDEST DUP1 MLOAD PUSH1 0x1 PUSH1 0x1 PUSH1 0x50 SHL SUB DUP2 AND DUP2 EQ PUSH2 0x726 JUMPI PUSH1 0x0 DUP1 REVERT JUMPDEST PUSH1 0x0 PUSH1 0x20 DUP3 DUP5 SUB SLT ISZERO PUSH2 0x753 JUMPI DUP1 DUP2 REVERT JUMPDEST DUP2 CALLDATALOAD PUSH2 0x75E DUP2 PUSH2 0xA99 JUMP JUMPDEST SWAP4 SWAP3 POP POP POP JUMP JUMPDEST PUSH1 0x0 PUSH1 0x20 DUP3 DUP5 SUB SLT ISZERO PUSH2 0x776 JUMPI DUP1 DUP2 REVERT JUMPDEST DUP2 MLOAD PUSH2 0x75E DUP2 PUSH2 0xA99 JUMP JUMPDEST PUSH1 0x0 DUP1 PUSH1 0x40 DUP4 DUP6 SUB SLT ISZERO PUSH2 0x793 JUMPI DUP1 DUP2 REVERT JUMPDEST DUP3 CALLDATALOAD PUSH2 0x79E DUP2 PUSH2 0xA99 JUMP JUMPDEST SWAP5 PUSH1 0x20 SWAP4 SWAP1 SWAP4 ADD CALLDATALOAD SWAP4 POP POP POP JUMP JUMPDEST PUSH1 0x0 DUP1 PUSH1 0x20 DUP4 DUP6 SUB SLT ISZERO PUSH2 0x7BE JUMPI DUP2 DUP3 REVERT JUMPDEST DUP3 CALLDATALOAD PUSH1 0x1 PUSH1 0x1 PUSH1 0x40 SHL SUB DUP1 DUP3 GT ISZERO PUSH2 0x7D4 JUMPI DUP4 DUP5 REVERT JUMPDEST DUP2 DUP6 ADD SWAP2 POP DUP6 PUSH1 0x1F DUP4 ADD SLT PUSH2 0x7E7 JUMPI DUP4 DUP5 REVERT JUMPDEST DUP2 CALLDATALOAD DUP2 DUP2 GT ISZERO PUSH2 0x7F5 JUMPI DUP5 DUP6 REVERT JUMPDEST DUP7 PUSH1 0x20 DUP3 PUSH1 0x6 SHL DUP6 ADD ADD GT ISZERO PUSH2 0x809 JUMPI DUP5 DUP6 REVERT JUMPDEST PUSH1 0x20 SWAP3 SWAP1 SWAP3 ADD SWAP7 SWAP2 SWAP6 POP SWAP1 SWAP4 POP POP POP POP JUMP JUMPDEST PUSH1 0x0 DUP1 PUSH1 0x40 DUP4 DUP6 SUB SLT ISZERO PUSH2 0x82D JUMPI DUP2 DUP3 REVERT JUMPDEST PUSH2 0x836 DUP4 PUSH2 0x716 JUMP JUMPDEST SWAP2 POP PUSH2 0x844 PUSH1 0x20 DUP5 ADD PUSH2 0x716 JUMP JUMPDEST SWAP1 POP SWAP3 POP SWAP3 SWAP1 POP JUMP JUMPDEST PUSH1 0x0 DUP1 PUSH1 0x0 DUP1 PUSH1 0x0 DUP1 PUSH1 0x0 PUSH1 0xE0 DUP9 DUP11 SUB SLT ISZERO PUSH2 0x867 JUMPI DUP3 DUP4 REVERT JUMPDEST DUP8 MLOAD PUSH1 0x4 DUP2 LT PUSH2 0x875 JUMPI DUP4 DUP5 REVERT JUMPDEST DUP1 SWAP8 POP POP PUSH1 0x20 DUP9 ADD MLOAD SWAP6 POP PUSH1 0x40 DUP9 ADD MLOAD SWAP5 POP PUSH1 0x60 DUP9 ADD MLOAD SWAP4 POP PUSH1 0x80 DUP9 ADD MLOAD SWAP3 POP PUSH1 0xA0 DUP9 ADD MLOAD SWAP2 POP PUSH1 0xC0 DUP9 ADD MLOAD PUSH1 0x3 DUP2 LT PUSH2 0x8AD JUMPI DUP2 DUP3 REVERT JUMPDEST DUP1 SWAP2 POP POP SWAP3 SWAP6 SWAP9 SWAP2 SWAP5 SWAP8 POP SWAP3 SWAP6 POP JUMP JUMPDEST PUSH1 0x0 PUSH1 0x20 DUP3 DUP5 SUB SLT ISZERO PUSH2 0x8CE JUMPI DUP1 DUP2 REVERT JUMPDEST POP MLOAD SWAP2 SWAP1 POP JUMP JUMPDEST PUSH1 0x0 DUP1 PUSH1 0x0 DUP1 PUSH1 0x0 PUSH1 0xA0 DUP7 DUP9 SUB SLT ISZERO PUSH2 0x8EC JUMPI DUP1 DUP2 REVERT JUMPDEST PUSH2 0x8F5 DUP7 PUSH2 0x72B JUMP JUMPDEST SWAP5 POP PUSH1 0x20 DUP7 ADD MLOAD SWAP4 POP PUSH1 0x40 DUP7 ADD MLOAD SWAP3 POP PUSH1 0x60 DUP7 ADD MLOAD SWAP2 POP PUSH2 0x918 PUSH1 0x80 DUP8 ADD PUSH2 0x72B JUMP JUMPDEST SWAP1 POP SWAP3 SWAP6 POP SWAP3 SWAP6 SWAP1 SWAP4 POP JUMP JUMPDEST PUSH1 0x3 DUP2 LT PUSH2 0x934 JUMPI PUSH2 0x934 PUSH2 0xA83 JUMP JUMPDEST SWAP1 MSTORE JUMP JUMPDEST PUSH1 0x4 DUP2 LT PUSH2 0x934 JUMPI PUSH2 0x934 PUSH2 0xA83 JUMP JUMPDEST PUSH1 0x20 DUP1 DUP3 MSTORE DUP3 MLOAD DUP3 DUP3 ADD DUP2 SWAP1 MSTORE PUSH1 0x0 SWAP2 SWAP1 PUSH1 0x40 SWAP1 DUP2 DUP6 ADD SWAP1 DUP7 DUP5 ADD DUP6 JUMPDEST DUP3 DUP2 LT ISZERO PUSH2 0xA1D JUMPI DUP2 MLOAD PUSH2 0x97A DUP6 DUP3 MLOAD PUSH2 0x938 JUMP JUMPDEST DUP1 DUP8 ADD MLOAD DUP6 DUP9 ADD MSTORE DUP6 DUP2 ADD MLOAD DUP7 DUP7 ADD MSTORE PUSH1 0x60 DUP1 DUP3 ADD MLOAD SWAP1 DUP7 ADD MSTORE PUSH1 0x80 DUP1 DUP3 ADD MLOAD SWAP1 DUP7 ADD MSTORE PUSH1 0xA0 DUP1 DUP3 ADD MLOAD SWAP1 DUP7 ADD MSTORE PUSH1 0xC0 DUP1 DUP3 ADD MLOAD PUSH2 0x9BA DUP3 DUP9 ADD DUP3 PUSH2 0x924 JUMP JUMPDEST POP POP PUSH1 0xE0 DUP2 DUP2 ADD MLOAD ISZERO ISZERO SWAP1 DUP7 ADD MSTORE PUSH2 0x100 DUP1 DUP3 ADD MLOAD ISZERO ISZERO SWAP1 DUP7 ADD MSTORE PUSH2 0x120 DUP1 DUP3 ADD MLOAD SWAP1 DUP7 ADD MSTORE PUSH2 0x140 DUP1 DUP3 ADD MLOAD SWAP1 DUP7 ADD MSTORE PUSH2 0x160 DUP1 DUP3 ADD MLOAD SWAP1 DUP7 ADD MSTORE PUSH2 0x180 SWAP1 DUP2 ADD MLOAD PUSH1 0x1 PUSH1 0x1 PUSH1 0xA0 SHL SUB AND SWAP1 DUP6 ADD MSTORE PUSH2 0x1A0 SWAP1 SWAP4 ADD SWAP3 SWAP1 DUP6 ADD SWAP1 PUSH1 0x1 ADD PUSH2 0x965 JUMP JUMPDEST POP SWAP2 SWAP8 SWAP7 POP POP POP POP POP POP POP JUMP JUMPDEST PUSH1 0x0 PUSH1 0x1 PUSH1 0x1 PUSH1 0x50 SHL SUB DUP4 DUP2 AND SWAP1 DUP4 AND DUP2 DUP2 LT ISZERO PUSH2 0xA4A JUMPI PUSH2 0xA4A PUSH2 0xA6D JUMP JUMPDEST SUB SWAP4 SWAP3 POP POP POP JUMP JUMPDEST PUSH1 0x0 PUSH1 0x0 NOT DUP3 EQ ISZERO PUSH2 0xA66 JUMPI PUSH2 0xA66 PUSH2 0xA6D JUMP JUMPDEST POP PUSH1 0x1 ADD SWAP1 JUMP JUMPDEST PUSH4 0x4E487B71 PUSH1 0xE0 SHL PUSH1 0x0 MSTORE PUSH1 0x11 PUSH1 0x4 MSTORE PUSH1 0x24 PUSH1 0x0 REVERT JUMPDEST PUSH4 0x4E487B71 PUSH1 0xE0 SHL PUSH1 0x0 MSTORE PUSH1 0x21 PUSH1 0x4 MSTORE PUSH1 0x24 PUSH1 0x0 REVERT JUMPDEST PUSH1 0x1 PUSH1 0x1 PUSH1 0xA0 SHL SUB DUP2 AND DUP2 EQ PUSH2 0xAAE JUMPI PUSH1 0x0 DUP1 REVERT JUMPDEST POP JUMP INVALID LOG2 PUSH5 0x6970667358 0x22 SLT KECCAK256 0xF6 ADD 0xD7 DIV AND 0xEC 0x2C 0xE3 CHAINID SWAP7 PUSH24 0xFA90D6B1402F7B250BE2D1C3CFE472EF7FD2E7564B64736F PUSH13 0x63430008040033000000000000 ","sha1":"a78e210f4ef9e6a39c7d5b236b775c5b703d5db3","source":"pragma solidity ^0.8.0;\n\n// SPDX-License-Identifier: BUSL-1.1\n\nimport \"./Interfaces/InterfacesV2.sol\";\n\ncontract OptionMeta {\n    struct Input {\n        uint256 optionId;\n        address contractAddress;\n    }\n    struct OptionMetaData {\n        IBufferOptions.State state;\n        uint256 strike;\n        uint256 amount;\n        uint256 lockedAmount;\n        uint256 premium;\n        uint256 expiration;\n        IBufferOptions.OptionType optionType;\n        bool isYes;\n        bool isAbove;\n        uint256 iv;\n        uint256 assetPrice;\n        uint256 priceAtExpiration;\n        address owner;\n    }\n\n    function get_price_at_timestamp(address priceProvider, uint256 timestamp)\n        public\n        view\n        returns (uint256)\n    {\n        AggregatorV3Interface priceProviderContract = AggregatorV3Interface(\n            priceProvider\n        );\n        (\n            uint80 roundId,\n            uint256 answer,\n            ,\n            uint256 latestTimestamp,\n\n        ) = priceProviderContract.latestRoundData();\n\n        if (latestTimestamp > timestamp) {\n            bool isCorrectRoundId;\n            while (!isCorrectRoundId) {\n                roundId = roundId - 1;\n                (\n                    ,\n                    uint256 roundAnswer,\n                    ,\n                    uint256 roundTimestamp,\n\n                ) = priceProviderContract.getRoundData(roundId);\n                if ((roundTimestamp > 0) && (roundTimestamp <= timestamp)) {\n                    isCorrectRoundId = true;\n                    answer = roundAnswer;\n                }\n            }\n        }\n        return answer;\n    }\n\n    function get_option_data(Input[] calldata options)\n        public\n        view\n        returns (OptionMetaData[] memory allOptions)\n    {\n        allOptions = new OptionMetaData[](options.length);\n\n        for (uint256 i = 0; i < options.length; i++) {\n            uint256 optionId = options[i].optionId;\n            IBufferOptions binaryOptionsContract = IBufferOptions(\n                options[i].contractAddress\n            );\n            (\n                IBufferOptions.State state,\n                uint256 strike,\n                uint256 amount,\n                uint256 lockedAmount,\n                uint256 premium,\n                uint256 expiration,\n                IBufferOptions.OptionType optionType\n            ) = binaryOptionsContract.options(optionId);\n            (bool isYes, bool isAbove) = binaryOptionsContract.binaryOptionType(\n                optionId\n            );\n\n            allOptions[i] = OptionMetaData(\n                state,\n                strike,\n                amount,\n                lockedAmount,\n                premium,\n                expiration,\n                optionType,\n                isYes,\n                isAbove,\n                // IOptionsConfig(binaryOptionsContract.config()).impliedVolRate(),\n                0,\n                // 0,\n                binaryOptionsContract.getUsdPrice(),\n                (state == IBufferOptions.State.Active &&\n                    block.timestamp > expiration)\n                    ? get_price_at_timestamp(\n                        binaryOptionsContract.priceProvider(),\n                        expiration\n                    )\n                    : 0,\n                state == IBufferOptions.State.Active\n                    ? binaryOptionsContract.ownerOf(optionId)\n                    : address(0)\n            );\n        }\n        return allOptions;\n    }\n}\n","sourcePath":"contracts/OptionMeta.sol","type":"contract","deployment":{"address":"0x888184DeCF2976Ff04E3CF937de58C0168476f16","chainid":"80001","blockHeight":27441073}}