{"bytecode":"6080604052620f4240600d55600e805460ff1916601217905560006013553480156200002a57600080fd5b5060405162005b7738038062005b778339810160408190526200004d91620002f6565b60405180604001604052806006815260200165213ab33332b960d11b8152506040518060400160405280600381526020016221232960e91b815250620000a26200009c6200014860201b60201c565b6200014c565b600180558151620000bb90600290602085019062000250565b508051620000d190600390602084019062000250565b50620000e3915060009050336200019c565b601080546001600160a01b038087166001600160a01b031992831617909255601a805485841690831617905542601d55601b805484841690831617905560128054928616929091169190911790556200013e6000336200019c565b50505050620003b3565b3390565b600080546001600160a01b038381166001600160a01b0319831681178455604051919092169283917f8be0079c531659141344cd1fd0a4f28419497f9722a3daafe3b4186f6b6457e09190a35050565b620001a88282620001ac565b5050565b60008281526008602090815260408083206001600160a01b038516845290915290205460ff16620001a85760008281526008602090815260408083206001600160a01b03851684529091529020805460ff191660011790556200020c3390565b6001600160a01b0316816001600160a01b0316837f2f8788117e7eff1d82e926ec794901d17c78024a50270940304540a733656f0d60405160405180910390a45050565b8280546200025e906200035d565b90600052602060002090601f016020900481019282620002825760008555620002cd565b82601f106200029d57805160ff1916838001178555620002cd565b82800160010185558215620002cd579182015b82811115620002cd578251825591602001919060010190620002b0565b50620002db929150620002df565b5090565b5b80821115620002db5760008155600101620002e0565b600080600080608085870312156200030c578384fd5b845162000319816200039a565b60208601519094506200032c816200039a565b60408601519093506200033f816200039a565b606086015190925062000352816200039a565b939692955090935050565b600181811c908216806200037257607f821691505b602082108114156200039457634e487b7160e01b600052602260045260246000fd5b50919050565b6001600160a01b0381168114620003b057600080fd5b50565b6157b480620003c36000396000f3fe608060405234801561001057600080fd5b50600436106102bf5760003560e01c806301ffc9a7146102c457806305271a2a146102ec57806306517a291461030557806306fdde031461031c578063076d948c14610331578063081812fc14610344578063095ea7b31461036f57806316dc165b1461038457806316f0115b1461039757806323b872dd146103aa578063248a9ca3146103bd578063263f3e7e146103d05780632f2ff15d146103e3578063313ce567146103f657806334c01793146103fd57806336568abe14610428578063409e22051461043b578063426a8493146104af57806342842e0e146104c257806342966c68146104d55780634aed53c2146104e85780634f558e79146104fb578063502379cb1461050e5780636198e339146105215780636352211e14610534578063645734e61461054757806367807f7d1461054f578063689ab5ac1461057157806369c67247146105b457806370a08231146105d4578063715018a6146105e757806375794a3c146105ef57806375a74d84146105f857806378c533ce1461061857806379502c5514610638578063841edc0e1461064b5780638a5841181461066b5780638da5cb5b146106b657806391d14854146106be57806395d89b41146106d1578063a217fddf146106d9578063a22cb465146106e1578063a6d14c02146106f4578063a8800425146106fc578063b07f0a411461070f578063b888879e14610722578063b88d4fde14610735578063bbe33ea514610748578063becef6071461075b578063c87b56dd1461076e578063c962ca1214610781578063d149cc3014610794578063d547741f146107a7578063d5a0e673146107ba578063d67a6b70146107da578063dba34e97146107ed578063e342b59814610814578063e345e0bc14610827578063e985e9c514610861578063f2fde38b14610874578063fe99049a14610887575b600080fd5b6102d76102d2366004614f3d565b61089a565b60405190151581526020015b60405180910390f35b600e5460ff165b60405160ff90911681526020016102e3565b61030e600d5481565b6040519081526020016102e3565b6103246108ab565b6040516102e391906152cc565b61030e61033f366004614f01565b61093d565b610357610352366004614f01565b610982565b6040516001600160a01b0390911681526020016102e3565b61038261037d366004614dfe565b610a0f565b005b601054610357906001600160a01b031681565b601a54610357906001600160a01b031681565b6103826103b8366004614c24565b610b20565b61030e6103cb366004614f01565b610b51565b61030e6103de366004614f01565b610b66565b6103826103f1366004614f19565b610b78565b60126102f3565b61030e61040b366004614f19565b601960209081526000928352604080842090915290825290205481565b610382610436366004614f19565b610b95565b61049a610449366004614f01565b60146020526000908152604090208054600182015460028301546003840154600485015460058601546006870154600788015460089098015460ff9788169896979596949593949293909116919089565b6040516102e399989796959493929190615263565b6103826104bd366004614e29565b610c13565b6103826104d0366004614c24565b610c57565b6103826104e3366004614f01565b610c72565b6103826104f6366004614d81565b610cb7565b6102d7610509366004614f01565b610dd9565b61030e61051c366004614ff7565b610de4565b61038261052f366004614f01565b611568565b610357610542366004614f01565b6117f1565b610382611868565b61056261055d366004615055565b6118f2565b6040516102e39392919061547e565b61059d61057f366004614f01565b60176020526000908152604090205460ff8082169161010090041682565b6040805192151583529015156020830152016102e3565b6105c76105c2366004614f8d565b611a5c565b6040516102e3919061521f565b61030e6105e2366004614bb4565b611e60565b610382611ee7565b61030e60135481565b61030e610606366004614bb4565b60166020526000908152604090205481565b61030e610626366004614f01565b600f6020526000908152604090205481565b601b54610357906001600160a01b031681565b61030e610659366004614f01565b60186020526000908152604090205481565b6106a6610679366004614f01565b601c6020526000908152604090208054600182015460029092015490919060ff8082169161010090041684565b6040516102e39493929190615428565b610357611f22565b6102d76106cc366004614f19565b611f31565b610324611f5c565b61030e600081565b6103826106ef366004614dd1565b611f6b565b61030e600581565b61030e61070a366004614f01565b61202c565b61030e61071d366004614f01565b612043565b601254610357906001600160a01b031681565b610382610743366004614c64565b612348565b610382610756366004614e9c565b61237b565b61030e610769366004614f01565b61258a565b61032461077c366004614f01565b61259c565b61030e61078f366004614dfe565b6125a7565b61030e6107a2366004614fd6565b6125d8565b6103826107b5366004614f19565b6125f7565b61030e6107c8366004614f01565b600a6020526000908152604090205481565b6102d76107e8366004614fd6565b612614565b61030e7fdeb3b49547f710c56a925b6e16e3557a50fab4dd8f243bc314f3afba2054ec5b81565b610382610822366004614e5d565b61283c565b61030e610835366004614f19565b6000828152600b602090815260408083206001600160a01b038516845260010190915290205492915050565b6102d761086f366004614bec565b612889565b610382610882366004614bb4565b6128b7565b61030e610895366004614d3c565b612954565b60006108a582612a3d565b92915050565b6060600280546108ba90615627565b80601f01602080910402602001604051908101604052809291908181526020018280546108e690615627565b80156109335780601f1061090857610100808354040283529160200191610933565b820191906000526020600020905b81548152906001019060200180831161091657829003601f168201915b5050505050905090565b6000805b61094a8361202c565b81101561097c5761095e61076984836125d8565b6109689083615494565b9150806109748161565c565b915050610941565b50919050565b600061098d82612a62565b6109f35760405162461bcd60e51b815260206004820152602c60248201527f4552433732313a20617070726f76656420717565727920666f72206e6f6e657860448201526b34b9ba32b73a103a37b5b2b760a11b60648201526084015b60405180910390fd5b506000908152600660205260409020546001600160a01b031690565b6000610a1a826117f1565b9050806001600160a01b0316836001600160a01b03161415610a885760405162461bcd60e51b815260206004820152602160248201527f4552433732313a20617070726f76616c20746f2063757272656e74206f776e656044820152603960f91b60648201526084016109ea565b336001600160a01b0382161480610aa45750610aa48133612889565b610b115760405162461bcd60e51b815260206004820152603860248201527f4552433732313a20617070726f76652063616c6c6572206973206e6f74206f776044820152771b995c881b9bdc88185c1c1c9bdd995908199bdc88185b1b60421b60648201526084016109ea565b610b1b8383612a7f565b505050565b610b2a3382612aed565b610b465760405162461bcd60e51b81526004016109ea906153bb565b610b1b838383612bb7565b60009081526008602052604090206001015490565b6000908152600a602052604090205490565b610b8182610b51565b610b8b8133612d50565b610b1b8383612db4565b6001600160a01b0381163314610c055760405162461bcd60e51b815260206004820152602f60248201527f416363657373436f6e74726f6c3a2063616e206f6e6c792072656e6f756e636560448201526e103937b632b9903337b91039b2b63360891b60648201526084016109ea565b610c0f8282612e3a565b5050565b610c1c826117f1565b6001600160a01b0316336001600160a01b031614610c4c5760405162461bcd60e51b81526004016109ea906152df565b610b1b838383612ea1565b610b1b83838360405180602001604052806000815250612348565b610c7b816117f1565b6001600160a01b0316336001600160a01b031614610cab5760405162461bcd60e51b81526004016109ea906152df565b610cb481612f66565b50565b610cc082610dd9565b610cf25760405162461bcd60e51b815260206004820152600360248201526227189960e91b60448201526064016109ea565b6000806000610d018685612f7e565b509250925092506000610d13866130ab565b9050610d4f8682848460600151610d2a9190615494565b878560400151610d3a9190615494565b878660800151610d4a9190615494565b6131b0565b601a54606082015160808301516040516357a5c96760e01b81529394506001600160a01b03909216926357a5c96792610d8f928b9290919060040161547e565b600060405180830381600087803b158015610da957600080fd5b505af1158015610dbd573d6000803e3d6000fd5b50505050610dce89898989896131e2565b505050505050505050565b60006108a582612a62565b600060026001541415610e395760405162461bcd60e51b815260206004820152601f60248201527f5265656e7472616e637947756172643a207265656e7472616e742063616c6c0060448201526064016109ea565b600260015561012c851015610e765760405162461bcd60e51b81526020600482015260036024820152624f323160e81b60448201526064016109ea565b601b60009054906101000a90046001600160a01b03166001600160a01b03166349b9a67f6040518163ffffffff1660e01b815260040160206040518083038186803b158015610ec457600080fd5b505afa158015610ed8573d6000803e3d6000fd5b505050506040513d601f19601f82011682018060405250810190610efc9190614f75565b8510610f305760405162461bcd60e51b815260206004820152600360248201526213cc8d60ea1b60448201526064016109ea565b6002610f3e6012600a615503565b610f4891906154ac565b8611610f7c5760405162461bcd60e51b81526020600482015260036024820152624f323560e81b60448201526064016109ea565b60125460408051630d67aac160e11b815290516000926001600160a01b031691631acf5582916004808301926020929190829003018186803b158015610fc157600080fd5b505afa158015610fd5573d6000803e3d6000fd5b505050506040513d601f19601f82011682018060405250810190610ff99190614f75565b905060006110158761100d6012600a615503565b8489896118f2565b505090506000818961102791906154ac565b436000908152601960209081526040808320338452909152812080549293508392909190611056908490615494565b9091555050601a546040805163ab2f0e5160e01b815290516064926001600160a01b03169163ab2f0e51916004808301926020929190829003018186803b1580156110a057600080fd5b505afa1580156110b4573d6000803e3d6000fd5b505050506040513d601f19601f820116820180604052508101906110d89190614f75565b601b60009054906101000a90046001600160a01b03166001600160a01b03166371bf7e256040518163ffffffff1660e01b815260040160206040518083038186803b15801561112657600080fd5b505afa15801561113a573d6000803e3d6000fd5b505050506040513d601f19601f8201168201806040525081019061115e9190614f75565b61116891906155ae565b61117291906154ac565b436000908152601960209081526040808320338452909152902054611198908390615494565b106111cb5760405162461bcd60e51b81526020600482015260036024820152624f323360e81b60448201526064016109ea565b60056111d789836155ae565b6111e191906155ae565b6111ef8a6301e133806155ae565b6111fa9060646155ae565b1161122c5760405162461bcd60e51b8152602060048201526002602482015261279960f11b60448201526064016109ea565b6010546040516323b872dd60e01b8152336004820152306024820152604481018b90526001600160a01b03909116906323b872dd90606401602060405180830381600087803b15801561127e57600080fd5b505af1158015611292573d6000803e3d6000fd5b505050506040513d601f19601f820116820180604052508101906112b69190614ee5565b506001871515811480156112cc57506001871515145b806112de5750871580156112de575086155b156112e7575060025b6040805161012081019091526000908060018152602001868152602001848152602001848152602001600261131a601290565b61132590600a615503565b61132f91906154ac565b815260200161133e8c42615494565b815260200183600281111561136357634e487b7160e01b600052602160045260246000fd5b81526020018c815260200142815250905061137c613428565b6040805180820182528b151581528a1515602080830191825260008581526017825284812093518454935161ffff1990941690151561ff001916176101009315159390930292909217909255338082526015835283822080546001818101835582855285852090910187905591835254601684528483205584825260149092529190912083518154939950849391929091839160ff199091169083600381111561143657634e487b7160e01b600052602160045260246000fd5b02179055506020820151816001015560408201518160020155606082015181600301556080820151816004015560a0820151816005015560c08201518160060160006101000a81548160ff021916908360028111156114a557634e487b7160e01b600052602160045260246000fd5b021790555060e0820151816007015561010082015181600801559050506114e086336114db8985602001518660a0015188613442565b613580565b60006114fb82608001518d6114f591906155cd565b896135a3565b90506115108783606001518460800151613a64565b336001600160a01b0316877f9acccf962da4ed9c3db3a1beedb70b0d4c3f6a69c170baca7198a74548b5ef4e838f60405161154c9291906152be565b60405180910390a3505060018055509298975050505050505050565b6000818152601460205260409020600581015442101561159a5760405162461bcd60e51b81526004016109ea9061540c565b6001815460ff1660038111156115c057634e487b7160e01b600052602160045260246000fd5b146115f25760405162461bcd60e51b81526020600482015260026024820152614f3560f01b60448201526064016109ea565b6005810154600090815260186020526040902054806116235760405162461bcd60e51b81526004016109ea9061534d565b6012546040516303906d2960e11b8152600481018390526000916001600160a01b031690630720da529060240160a06040518083038186803b15801561166857600080fd5b505afa15801561167c573d6000803e3d6000fd5b505050506040513d601f19601f820116820180604052508101906116a0919061509c565b50919350600292506116b0915050565b600684015460ff1660028111156116d757634e487b7160e01b600052602160045260246000fd5b1480156116e75750826001015481115b8061172657506001600684015460ff16600281111561171657634e487b7160e01b600052602160045260246000fd5b1480156117265750826001015481105b1561173a5761173484612043565b506117eb565b825460ff19166003178355601a54604051636198e33960e01b8152600481018690526001600160a01b0390911690636198e33990602401600060405180830381600087803b15801561178b57600080fd5b505af115801561179f573d6000803e3d6000fd5b505050506117ac84612f66565b837f5f36a4a575e512eb69d6d28c3b0ff98cca7ba50ad5bf04e14094ad1d425e0d3184600401546040516117e291815260200190565b60405180910390a25b50505050565b6000818152600460205260408120546001600160a01b0316806108a55760405162461bcd60e51b815260206004820152602960248201527f4552433732313a206f776e657220717565727920666f72206e6f6e657869737460448201526832b73a103a37b5b2b760b91b60648201526084016109ea565b601054601a5460405163095ea7b360e01b81526001600160a01b039283169263095ea7b3926118a09291169060001990600401615206565b602060405180830381600087803b1580156118ba57600080fd5b505af11580156118ce573d6000803e3d6000fd5b505050506040513d601f19601f82011682018060405250810190610cb49190614ee5565b600080600080601260009054906101000a90046001600160a01b03166001600160a01b0316631acf55826040518163ffffffff1660e01b815260040160206040518083038186803b15801561194657600080fd5b505afa15801561195a573d6000803e3d6000fd5b505050506040513d601f19601f8201168201806040525081019061197e9190614f75565b9050600261198e6012600a615503565b61199891906154ac565b9150601b60009054906101000a90046001600160a01b03166001600160a01b031663f3fa34956040518163ffffffff1660e01b815260040160206040518083038186803b1580156119e857600080fd5b505afa1580156119fc573d6000803e3d6000fd5b505050506040513d601f19601f82011682018060405250810190611a209190614f75565b611a2c906127106155cd565b611a38836127106155ae565b611a4291906154ac565b9350611a4e82856155cd565b925050955095509592505050565b606081611a905760405162461bcd60e51b81526020600482015260026024820152614e3160f01b60448201526064016109ea565b816001600160401b03811115611ab657634e487b7160e01b600052604160045260246000fd5b604051908082528060200260200182016040528015611adf578160200160208202803683370190505b5090506000611aed856130ab565b90506000611afa8661258a565b905060008080805b87811015611d1f576000611b14613428565b905080888381518110611b3757634e487b7160e01b600052603260045260246000fd5b602002602001018181525050611b748b828c8c86818110611b6857634e487b7160e01b600052603260045260246000fd5b90506020020135613acf565b6000868b8b85818110611b9757634e487b7160e01b600052603260045260246000fd5b905060200201358960400151611bad91906155ae565b611bb791906154ac565b9050611bc38187615494565b95506000878c8c86818110611be857634e487b7160e01b600052603260045260246000fd5b905060200201358a60600151611bfe91906155ae565b611c0891906154ac565b9050611c148187615494565b95506000888d8d87818110611c3957634e487b7160e01b600052603260045260246000fd5b905060200201358b60800151611c4f91906155ae565b611c5991906154ac565b9050611c658187615494565b955060006040518061012001604052808c600001516003811115611c9957634e487b7160e01b600052602160045260246000fd5b81526020018c6020015181526020018581526020018481526020018381526020018c60a0015181526020018c60c001516002811115611ce857634e487b7160e01b600052602160045260246000fd5b81526020018c60e001518152602001428152509050611d078582613bf9565b50505050508080611d179061565c565b915050611b02565b50611d558986848860600151611d3591906155cd565b868960400151611d4591906155cd565b858a60800151610d4a91906155cd565b601a54606082015160808301516040516357a5c96760e01b81529398506001600160a01b03909216926357a5c96792611d95928e9290919060040161547e565b600060405180830381600087803b158015611daf57600080fd5b505af1158015611dc3573d6000803e3d6000fd5b5050505060005b87811015611e53576000611e04888381518110611df757634e487b7160e01b600052603260045260246000fd5b60200260200101516130ab565b9050611e40888381518110611e2957634e487b7160e01b600052603260045260246000fd5b602002602001015182606001518360800151613a64565b5080611e4b8161565c565b915050611dca565b5050505050509392505050565b60006001600160a01b038216611ecb5760405162461bcd60e51b815260206004820152602a60248201527f4552433732313a2062616c616e636520717565727920666f7220746865207a65604482015269726f206164647265737360b01b60648201526084016109ea565b506001600160a01b031660009081526005602052604090205490565b33611ef0611f22565b6001600160a01b031614611f165760405162461bcd60e51b81526004016109ea90615386565b611f206000613cc6565b565b6000546001600160a01b031690565b60009182526008602090815260408084206001600160a01b0393909316845291905290205460ff1690565b6060600380546108ba90615627565b6001600160a01b038216331415611fc05760405162461bcd60e51b815260206004820152601960248201527822a9219b99189d1030b8383937bb32903a379031b0b63632b960391b60448201526064016109ea565b3360008181526007602090815260408083206001600160a01b03871680855290835292819020805460ff191686151590811790915590519081529192917f17307eab39ab6107e8899845ad3d59bd9653f200f220920489ca2b5937696c31910160405180910390a35050565b6000818152600c602052604081206108a590613d16565b600061204e82610dd9565b6120805760405162461bcd60e51b815260206004820152600360248201526204f31360ec1b60448201526064016109ea565b600082815260146020526040902060058101544210156120b25760405162461bcd60e51b81526004016109ea9061540c565b6001815460ff1660038111156120d857634e487b7160e01b600052602160045260246000fd5b1461210b5760405162461bcd60e51b815260206004820152600360248201526213cc4d60ea1b60448201526064016109ea565b60058101546000908152601860205260409020548061213c5760405162461bcd60e51b81526004016109ea9061534d565b6012546040516303906d2960e11b8152600481018390526000916001600160a01b031690630720da529060240160a06040518083038186803b15801561218157600080fd5b505afa158015612195573d6000803e3d6000fd5b505050506040513d601f19601f820116820180604052508101906121b9919061509c565b50919350600292506121c9915050565b600684015460ff1660028111156121f057634e487b7160e01b600052602160045260246000fd5b14156122355780836001015411156122305760405162461bcd60e51b81526020600482015260036024820152624f313760e81b60448201526064016109ea565b61226f565b808360010154101561226f5760405162461bcd60e51b815260206004820152600360248201526209e62760eb1b60448201526064016109ea565b6003830154601a549094506001600160a01b03166381b34f1586612292816117f1565b6040516001600160e01b031960e085901b16815260048101929092526001600160a01b0316602482015260448101879052606401600060405180830381600087803b1580156122e057600080fd5b505af11580156122f4573d6000803e3d6000fd5b5050505061230185612f66565b825460ff1916600217835560405184815285907e84fe51c7cb34b132b7b6eb5d5a87a489f8d6d284758d00a0402c1bad9a0def9060200160405180910390a2505050919050565b612353335b83612aed565b61236f5760405162461bcd60e51b81526004016109ea906153bb565b6117eb84848484613d20565b816123ad5760405162461bcd60e51b8152602060048201526002602482015261138d60f21b60448201526064016109ea565b60006123b8826130ab565b606081015160408201516080830151929350909160005b8681101561250c5760006124088989848181106123fc57634e487b7160e01b600052603260045260246000fd5b905060200201356130ab565b905080606001518561241a9190615494565b945080604001518461242c9190615494565b935080608001518361243e9190615494565b601a549093506001600160a01b0316630dbf21b08a8a8581811061247257634e487b7160e01b600052603260045260246000fd5b905060200201356040518263ffffffff1660e01b815260040161249791815260200190565b600060405180830381600087803b1580156124b157600080fd5b505af11580156124c5573d6000803e3d6000fd5b505050506124f98989848181106124ec57634e487b7160e01b600052603260045260246000fd5b9050602002013588613d53565b50806125048161565c565b9150506123cf565b5061251a85858585856131b0565b50601a546040516357a5c96760e01b81526001600160a01b03909116906357a5c9679061254f9088908790869060040161547e565b600060405180830381600087803b15801561256957600080fd5b505af115801561257d573d6000803e3d6000fd5b5050505050505050505050565b6000908152600f602052604090205490565b60606108a582613ecf565b601560205281600052604060002081815481106125c357600080fd5b90600052602060002001600091509150505481565b6000828152600c602052604081206125f09083614031565b9392505050565b61260082610b51565b61260a8133612d50565b610b1b8383612e3a565b6012546040516303906d2960e11b815260048101849052600091829182916001600160a01b031690630720da529060240160a06040518083038186803b15801561265d57600080fd5b505afa158015612671573d6000803e3d6000fd5b505050506040513d601f19601f82011682018060405250810190612695919061509c565b50600088815260146020526040902060058101549396509094509250508281106126e65760405162461bcd60e51b8152602060048201526002602482015261433160f01b60448201526064016109ea565b60008181526018602052604090205480612831576127056001896155cd565b90505b85612831576012546040516303906d2960e11b8152600481018390526000916001600160a01b031690630720da529060240160a06040518083038186803b15801561275257600080fd5b505afa158015612766573d6000803e3d6000fd5b505050506040513d601f19601f8201168201806040525081019061278a919061509c565b50935050505080600014156127e057600082116127ce5760405162461bcd60e51b8152602060048201526002602482015261433360f01b60448201526064016109ea565b6127d96001836155cd565b915061282b565b828111156128155760405162461bcd60e51b815260206004820152600260248201526110cd60f21b60448201526064016109ea565b6000838152601860205260409020829055600196505b50612708565b505050505092915050565b8060005b818110156117eb5761287784848381811061286b57634e487b7160e01b600052603260045260246000fd5b90506020020135611568565b806128818161565c565b915050612840565b6001600160a01b03918216600090815260076020908152604080832093909416825291909152205460ff1690565b336128c0611f22565b6001600160a01b0316146128e65760405162461bcd60e51b81526004016109ea90615386565b6001600160a01b03811661294b5760405162461bcd60e51b815260206004820152602660248201527f4f776e61626c653a206e6577206f776e657220697320746865207a65726f206160448201526564647265737360d01b60648201526084016109ea565b610cb481613cc6565b600061295e613428565b90506000806000806129708787612f7e565b93509350935093506000604051806101200160405280836000015160038111156129aa57634e487b7160e01b600052602160045260246000fd5b8152602001836020015181526020018681526020018481526020018581526020018360a0015181526020018360c0015160028111156129f957634e487b7160e01b600052602160045260246000fd5b81526020018360e001518152602001428152509050612a188682613bf9565b612a23868486613a64565b612a308a8a8a898b6131e2565b5050505050949350505050565b60006001600160e01b03198216637965db0b60e01b14806108a557506108a58261403d565b6000908152600460205260409020546001600160a01b0316151590565b600081815260066020526040902080546001600160a01b0319166001600160a01b0384169081179091558190612ab4826117f1565b6001600160a01b03167f8c5be1e5ebec7d5bd14f71427d1e84f3dd0314c0f7b2291e5b200ac8c7c3b92560405160405180910390a45050565b6000612af882612a62565b612b595760405162461bcd60e51b815260206004820152602c60248201527f4552433732313a206f70657261746f7220717565727920666f72206e6f6e657860448201526b34b9ba32b73a103a37b5b2b760a11b60648201526084016109ea565b6000612b64836117f1565b9050806001600160a01b0316846001600160a01b03161480612b9f5750836001600160a01b0316612b9484610982565b6001600160a01b0316145b80612baf5750612baf8185612889565b949350505050565b826001600160a01b0316612bca826117f1565b6001600160a01b031614612c325760405162461bcd60e51b815260206004820152602960248201527f4552433732313a207472616e73666572206f6620746f6b656e2074686174206960448201526839903737ba1037bbb760b91b60648201526084016109ea565b6001600160a01b038216612c945760405162461bcd60e51b8152602060048201526024808201527f4552433732313a207472616e7366657220746f20746865207a65726f206164646044820152637265737360e01b60648201526084016109ea565b612c9f83838361408d565b612caa600082612a7f565b6001600160a01b0383166000908152600560205260408120805460019290612cd39084906155cd565b90915550506001600160a01b0382166000908152600560205260408120805460019290612d01908490615494565b909155505060008181526004602052604080822080546001600160a01b0319166001600160a01b03868116918217909255915184939187169160008051602061573f83398151915291a4505050565b612d5a8282611f31565b610c0f57612d72816001600160a01b031660146140a5565b612d7d8360206140a5565b604051602001612d8e92919061515a565b60408051601f198184030181529082905262461bcd60e51b82526109ea916004016152cc565b612dbe8282611f31565b610c0f5760008281526008602090815260408083206001600160a01b03851684529091529020805460ff19166001179055612df63390565b6001600160a01b0316816001600160a01b0316837f2f8788117e7eff1d82e926ec794901d17c78024a50270940304540a733656f0d60405160405180910390a45050565b612e448282611f31565b15610c0f5760008281526008602090815260408083206001600160a01b0385168085529252808320805460ff1916905551339285917ff6391f5c32d9c69d2a47ea670b442974b53935d1edc7fd64eb21e047a839171b9190a45050565b6000828152600b602090815260408083206001600160a01b0387168452600101909152902054612f03576000828152600b602090815260408220805460018101825590835291200180546001600160a01b0319166001600160a01b0385161790555b6000828152600b602090815260408083206001600160a01b0387168085526001909101835292819020849055518381528492917f8a156bd946dc74ec284c5f4b365ce75ef2a5b9d9462b4cdb1d2400cabf136541910160405180910390a3505050565b6000818152600a6020526040812055610cb481614286565b6000806000612f8b614ae3565b612f94866130ab565b90506000612fa18761258a565b905080868360400151612fb491906155ae565b612fbe91906154ac565b945080868360800151612fd191906155ae565b612fdb91906154ac565b935080868360600151612fee91906155ae565b612ff891906154ac565b925061302f878385856060015161300f91906155cd565b88866040015161301f91906155cd565b888760800151610d4a91906155cd565b601a54606082015160808301516040516357a5c96760e01b81529395506001600160a01b03909216926357a5c9679261306f928c9290919060040161547e565b600060405180830381600087803b15801561308957600080fd5b505af115801561309d573d6000803e3d6000fd5b505050505092959194509250565b6130b3614ae3565b60008281526014602052604090819020815161012081019092528054829060ff1660038111156130f357634e487b7160e01b600052602160045260246000fd5b600381111561311257634e487b7160e01b600052602160045260246000fd5b81526001820154602082015260028083015460408301526003830154606083015260048301546080830152600583015460a0830152600683015460c09092019160ff169081111561317357634e487b7160e01b600052602160045260246000fd5b600281111561319257634e487b7160e01b600052602160045260246000fd5b81526007820154602082015260089091015460409091015292915050565b6131b8614ae3565b50606084018390526040840182905260808401819052836131d98682613bf9565b95945050505050565b6131eb836117f1565b6001600160a01b0316856001600160a01b0316146132305760405162461bcd60e51b81526020600482015260026024820152614e3960f01b60448201526064016109ea565b6001600160a01b03841661326c5760405162461bcd60e51b815260206004820152600360248201526204e31360ec1b60448201526064016109ea565b336001600160a01b0386161480159061328c575061328a8533612889565b155b156132d7576000838152600b602090815260408083203384526001019091529020546132b99082906155cd565b6000848152600b602090815260408083203384526001019091529020555b6000838152600f60205260409020546132f19082906155cd565b6000848152600f602052604090205561330982612a62565b61332657613321848361331b86610b66565b84614318565b6133ce565b836001600160a01b0316613339836117f1565b6001600160a01b0316146133755760405162461bcd60e51b81526020600482015260036024820152624e313160e81b60448201526064016109ea565b61337e82610b66565b61338784610b66565b146133a45760405162461bcd60e51b81526004016109ea9061536a565b6000828152600f60205260409020546133be908290615494565b6000838152600f60205260409020555b6000838152600a60205260408082205484835291819020919091555183906001600160a01b03808716919088169060008051602061575f8339815191529061341990879087906152be565b60405180910390a45050505050565b60138054600091826134398361565c565b91905055905090565b60008383838760405160200161345b9493929190615454565b60408051808303601f1901815291815281516020928301206000818152601c909352912060020154909150610100900460ff16156134c15760405162461bcd60e51b8152602060048201526003602482015262138c4d60ea1b60448201526064016109ea565b60405180608001604052808581526020018481526020018360028111156134f857634e487b7160e01b600052602160045260246000fd5b8152600160209182018190526000848152601c8352604090819020845181559284015183830155830151600280840180549293909260ff191691849081111561355157634e487b7160e01b600052602160045260246000fd5b021790555060609190910151600290910180549115156101000261ff0019909216919091179055949350505050565b6000838152600a60205260409020819055600d54610b1b90839085908490614318565b60006064601b60009054906101000a90046001600160a01b03166001600160a01b031663ca535c3b6040518163ffffffff1660e01b815260040160206040518083038186803b1580156135f557600080fd5b505afa158015613609573d6000803e3d6000fd5b505050506040513d601f19601f8201168201806040525081019061362d9190614f75565b61363790856155ae565b61364191906154ac565b9050801561374257601054601b5460408051630605cc7760e21b815290516001600160a01b039384169363a9059cbb93169163181731dc916004808301926020929190829003018186803b15801561369857600080fd5b505afa1580156136ac573d6000803e3d6000fd5b505050506040513d601f19601f820116820180604052508101906136d09190614bd0565b836040518363ffffffff1660e01b81526004016136ee929190615206565b602060405180830381600087803b15801561370857600080fd5b505af115801561371c573d6000803e3d6000fd5b505050506040513d601f19601f820116820180604052508101906137409190614ee5565b505b600061374e82856155cd565b90508015613a5d57601b5460408051634905129f60e11b815290516000926001600160a01b03169163920a253e916004808301926020929190829003018186803b15801561379b57600080fd5b505afa1580156137af573d6000803e3d6000fd5b505050506040513d601f19601f820116820180604052508101906137d39190614f75565b1180156137f957506137e3611f22565b6001600160a01b0316836001600160a01b031614155b801561380e57506001600160a01b0383163314155b156139885760006064601b60009054906101000a90046001600160a01b03166001600160a01b031663920a253e6040518163ffffffff1660e01b815260040160206040518083038186803b15801561386557600080fd5b505afa158015613879573d6000803e3d6000fd5b505050506040513d601f19601f8201168201806040525081019061389d9190614f75565b6138a790846155ae565b6138b191906154ac565b90506138bd81836155cd565b60105460405163a9059cbb60e01b81529193506001600160a01b03169063a9059cbb906138f09087908590600401615206565b602060405180830381600087803b15801561390a57600080fd5b505af115801561391e573d6000803e3d6000fd5b505050506040513d601f19601f820116820180604052508101906139429190614ee5565b50836001600160a01b03167f2fc41b7d7df3272c17d9b581fcf235307bc027599c6ed68442c4100bd3a841988260405161397e91815260200190565b60405180910390a2505b6010546001600160a01b031663a9059cbb6139a1611f22565b836040518363ffffffff1660e01b81526004016139bf929190615206565b602060405180830381600087803b1580156139d957600080fd5b505af11580156139ed573d6000803e3d6000fd5b505050506040513d601f19601f82011682018060405250810190613a119190614ee5565b50613a1a611f22565b6001600160a01b03167ff0f0487d8990103573e0e5cf4e87e101e2a1ba84c733c556b7a5807e570e5d4c82604051613a5491815260200190565b60405180910390a25b5092915050565b601a5460405163edd0d42160e01b81526001600160a01b039091169063edd0d42190613a989086908690869060040161547e565b600060405180830381600087803b158015613ab257600080fd5b505af1158015613ac6573d6000803e3d6000fd5b50505050505050565b613ad93384612aed565b613b0a5760405162461bcd60e51b8152602060048201526002602482015261271960f11b60448201526064016109ea565b613b1382612a62565b15613b455760405162461bcd60e51b81526020600482015260026024820152614e3360f01b60448201526064016109ea565b613b6482613b5285610b66565b6000918252600a602052604090912055565b6000838152600f6020526040902054613b7e9082906155cd565b6000848152600f6020526040812091909155613b99846117f1565b9050613baf8184613ba987610b66565b85614318565b83816001600160a01b03167ff66885c33d648fcd0d97e0f2a18e30102169c22763473af0fb716f11b4a17dd68585604051613beb9291906152be565b60405180910390a350505050565b60008281526014602052604090208151815483929190829060ff19166001836003811115613c3757634e487b7160e01b600052602160045260246000fd5b02179055506020820151816001015560408201518160020155606082015181600301556080820151816004015560a0820151816005015560c08201518160060160006101000a81548160ff02191690836002811115613ca657634e487b7160e01b600052602160045260246000fd5b021790555060e08201516007820155610100909101516008909101555050565b600080546001600160a01b038381166001600160a01b0319831681178455604051919092169283917f8be0079c531659141344cd1fd0a4f28419497f9722a3daafe3b4186f6b6457e09190a35050565b60006108a5825490565b613d2b848484612bb7565b613d37848484846143a2565b6117eb5760405162461bcd60e51b81526004016109ea906152fb565b613d5c3361234d565b613d8d5760405162461bcd60e51b81526020600482015260026024820152614e3560f01b60448201526064016109ea565b80821415613dc25760405162461bcd60e51b8152602060048201526002602482015261271b60f11b60448201526064016109ea565b613dcb81610b66565b613dd483610b66565b14613df15760405162461bcd60e51b81526004016109ea9061536a565b6000613dfc836117f1565b9050613e07826117f1565b6001600160a01b0316816001600160a01b031614613e4c5760405162461bcd60e51b815260206004820152600260248201526109c760f31b60448201526064016109ea565b6000838152600f602052604080822054848352912054613e6c9082615494565b6000848152600f6020526040902055613e8484612f66565b8284836001600160a01b03167fb3ce851d16b3bbec3774d5631a3893dfa2a80e067cfad265dd594402ac3d609684604051613ec191815260200190565b60405180910390a450505050565b6060613eda82612a62565b613f405760405162461bcd60e51b815260206004820152603160248201527f45524337323155524953746f726167653a2055524920717565727920666f72206044820152703737b732bc34b9ba32b73a103a37b5b2b760791b60648201526084016109ea565b60008281526009602052604081208054613f5990615627565b80601f0160208091040260200160405190810160405280929190818152602001828054613f8590615627565b8015613fd25780601f10613fa757610100808354040283529160200191613fd2565b820191906000526020600020905b815481529060010190602001808311613fb557829003601f168201915b505050505090506000613fe36144af565b9050805160001415613ff6575092915050565b81511561402857808260405160200161401092919061512b565b60405160208183030381529060405292505050919050565b612baf846144cf565b60006125f08383614599565b60006001600160e01b031982166380ac58cd60e01b148061406e57506001600160e01b03198216635b5e139f60e01b145b806108a557506301ffc9a760e01b6001600160e01b03198316146108a5565b6001600160a01b03831615610b1b57610b1b816145d1565b606060006140b48360026155ae565b6140bf906002615494565b6001600160401b038111156140e457634e487b7160e01b600052604160045260246000fd5b6040519080825280601f01601f19166020018201604052801561410e576020820181803683370190505b509050600360fc1b8160008151811061413757634e487b7160e01b600052603260045260246000fd5b60200101906001600160f81b031916908160001a905350600f60fb1b8160018151811061417457634e487b7160e01b600052603260045260246000fd5b60200101906001600160f81b031916908160001a90535060006141988460026155ae565b6141a3906001615494565b90505b6001811115614237576f181899199a1a9b1b9c1cb0b131b232b360811b85600f16601081106141e557634e487b7160e01b600052603260045260246000fd5b1a60f81b82828151811061420957634e487b7160e01b600052603260045260246000fd5b60200101906001600160f81b031916908160001a90535060049490941c9361423081615610565b90506141a6565b5083156125f05760405162461bcd60e51b815260206004820181905260248201527f537472696e67733a20686578206c656e67746820696e73756666696369656e7460448201526064016109ea565b6000614291826117f1565b9050600061429e83610b66565b6000848152600f6020908152604080832054848452600c909252909120919250906142c99085614685565b506000848152600f60205260408120556142e284614691565b8360006001600160a01b0316846001600160a01b031660008051602061575f833981519152600085604051613ec19291906152be565b61432183612a62565b6143495761432f8484614726565b6000828152600c602052604090206143479084614852565b505b6000838152600f6020526040902054614363908290615494565b6000848152600f60205260408082209290925590516001600160a01b03861690829060008051602061575f83398151915290613ec190889087906152be565b60006001600160a01b0384163b156144a457604051630a85bd0160e11b81526001600160a01b0385169063150b7a02906143e69033908990889088906004016151c9565b602060405180830381600087803b15801561440057600080fd5b505af1925050508015614430575060408051601f3d908101601f1916820190925261442d91810190614f59565b60015b61448a573d80801561445e576040519150601f19603f3d011682016040523d82523d6000602084013e614463565b606091505b5080516144825760405162461bcd60e51b81526004016109ea906152fb565b805181602001fd5b6001600160e01b031916630a85bd0160e11b149050612baf565b506001949350505050565b606060405180606001604052806022815260200161571d60229139905090565b60606144da82612a62565b61453e5760405162461bcd60e51b815260206004820152602f60248201527f4552433732314d657461646174613a2055524920717565727920666f72206e6f60448201526e3732bc34b9ba32b73a103a37b5b2b760891b60648201526084016109ea565b60006145486144af565b9050600081511161456857604051806020016040528060008152506125f0565b806145728461485e565b60405160200161458392919061512b565b6040516020818303038152906040529392505050565b60008260000182815481106145be57634e487b7160e01b600052603260045260246000fd5b9060005260206000200154905092915050565b6000818152600b60205260408120905b8154811015610b1b5781600101600083600001838154811061461357634e487b7160e01b600052603260045260246000fd5b60009182526020808320909101546001600160a01b03168352820192909252604001812055815482908290811061465a57634e487b7160e01b600052603260045260246000fd5b600091825260209091200180546001600160a01b03191690558061467d8161565c565b9150506145e1565b60006125f08383614977565b600061469c826117f1565b90506146aa8160008461408d565b6146b5600083612a7f565b6001600160a01b03811660009081526005602052604081208054600192906146de9084906155cd565b909155505060008281526004602052604080822080546001600160a01b0319169055518391906001600160a01b0384169060008051602061573f833981519152908390a45050565b6001600160a01b03821661477c5760405162461bcd60e51b815260206004820181905260248201527f4552433732313a206d696e7420746f20746865207a65726f206164647265737360448201526064016109ea565b61478581612a62565b156147d15760405162461bcd60e51b815260206004820152601c60248201527b115490cdcc8c4e881d1bdad95b88185b1c9958591e481b5a5b9d195960221b60448201526064016109ea565b6147dd6000838361408d565b6001600160a01b0382166000908152600560205260408120805460019290614806908490615494565b909155505060008181526004602052604080822080546001600160a01b0319166001600160a01b038616908117909155905183929060008051602061573f833981519152908290a45050565b60006125f08383614a94565b6060816148825750506040805180820190915260018152600360fc1b602082015290565b8160005b81156148ac57806148968161565c565b91506148a59050600a836154ac565b9150614886565b6000816001600160401b038111156148d457634e487b7160e01b600052604160045260246000fd5b6040519080825280601f01601f1916602001820160405280156148fe576020820181803683370190505b5090505b8415612baf576149136001836155cd565b9150614920600a86615677565b61492b906030615494565b60f81b81838151811061494e57634e487b7160e01b600052603260045260246000fd5b60200101906001600160f81b031916908160001a905350614970600a866154ac565b9450614902565b60008181526001830160205260408120548015614a8a57600061499b6001836155cd565b85549091506000906149af906001906155cd565b9050818114614a305760008660000182815481106149dd57634e487b7160e01b600052603260045260246000fd5b9060005260206000200154905080876000018481548110614a0e57634e487b7160e01b600052603260045260246000fd5b6000918252602080832090910192909255918252600188019052604090208390555b8554869080614a4f57634e487b7160e01b600052603160045260246000fd5b6001900381819060005260206000200160009055905585600101600086815260200190815260200160002060009055600193505050506108a5565b60009150506108a5565b6000818152600183016020526040812054614adb575081546001818101845560008481526020808220909301849055845484825282860190935260409020919091556108a5565b5060006108a5565b6040805161012081019091528060008152602001600081526020016000815260200160008152602001600081526020016000815260200160006002811115614b3b57634e487b7160e01b600052602160045260246000fd5b815260200160008152602001600081525090565b60008083601f840112614b60578081fd5b5081356001600160401b03811115614b76578182fd5b6020830191508360208260051b8501011115614b9157600080fd5b9250929050565b80516001600160501b0381168114614baf57600080fd5b919050565b600060208284031215614bc5578081fd5b81356125f0816156e3565b600060208284031215614be1578081fd5b81516125f0816156e3565b60008060408385031215614bfe578081fd5b8235614c09816156e3565b91506020830135614c19816156e3565b809150509250929050565b600080600060608486031215614c38578081fd5b8335614c43816156e3565b92506020840135614c53816156e3565b929592945050506040919091013590565b60008060008060808587031215614c79578081fd5b8435614c84816156e3565b93506020850135614c94816156e3565b92506040850135915060608501356001600160401b0380821115614cb6578283fd5b818701915087601f830112614cc9578283fd5b813581811115614cdb57614cdb6156cd565b604051601f8201601f19908116603f01168101908382118183101715614d0357614d036156cd565b816040528281528a6020848701011115614d1b578586fd5b82602086016020830137918201602001949094529598949750929550505050565b60008060008060808587031215614d51578384fd5b8435614d5c816156e3565b93506020850135614d6c816156e3565b93969395505050506040820135916060013590565b600080600080600060a08688031215614d98578081fd5b8535614da3816156e3565b94506020860135614db3816156e3565b94979496505050506040830135926060810135926080909101359150565b60008060408385031215614de3578182fd5b8235614dee816156e3565b91506020830135614c19816156f8565b60008060408385031215614e10578182fd5b8235614e1b816156e3565b946020939093013593505050565b600080600060608486031215614e3d578283fd5b8335614e48816156e3565b95602085013595506040909401359392505050565b60008060208385031215614e6f578182fd5b82356001600160401b03811115614e84578283fd5b614e9085828601614b4f565b90969095509350505050565b600080600060408486031215614eb0578081fd5b83356001600160401b03811115614ec5578182fd5b614ed186828701614b4f565b909790965060209590950135949350505050565b600060208284031215614ef6578081fd5b81516125f0816156f8565b600060208284031215614f12578081fd5b5035919050565b60008060408385031215614f2b578182fd5b823591506020830135614c19816156e3565b600060208284031215614f4e578081fd5b81356125f081615706565b600060208284031215614f6a578081fd5b81516125f081615706565b600060208284031215614f86578081fd5b5051919050565b600080600060408486031215614fa1578081fd5b8335925060208401356001600160401b03811115614fbd578182fd5b614fc986828701614b4f565b9497909650939450505050565b60008060408385031215614fe8578182fd5b50508035926020909101359150565b600080600080600060a0868803121561500e578283fd5b85359450602086013593506040860135615027816156f8565b92506060860135615037816156f8565b91506080860135615047816156e3565b809150509295509295909350565b600080600080600060a0868803121561506c578283fd5b853594506020860135935060408601359250606086013561508c816156f8565b91506080860135615047816156f8565b600080600080600060a086880312156150b3578283fd5b6150bc86614b98565b94506020860151935060408601519250606086015191506150df60808701614b98565b90509295509295909350565b600081518084526151038160208601602086016155e4565b601f01601f19169290920160200192915050565b60038110615127576151276156b7565b9052565b6000835161513d8184602088016155e4565b8351908301906151518183602088016155e4565b01949350505050565b76020b1b1b2b9b9a1b7b73a3937b61d1030b1b1b7bab73a1604d1b81526000835161518c8160178501602088016155e4565b7001034b99036b4b9b9b4b733903937b6329607d1b60179184019182015283516151bd8160288401602088016155e4565b01602801949350505050565b6001600160a01b03858116825284166020820152604081018390526080606082018190526000906151fc908301846150eb565b9695505050505050565b6001600160a01b03929092168252602082015260400190565b6020808252825182820181905260009190848201906040850190845b818110156152575783518352928401929184019160010161523b565b50909695505050505050565b610120810160048b10615278576152786156b7565b8a82528960208301528860408301528760608301528660808301528560a08301526152a660c0830186615117565b60e08201939093526101000152979650505050505050565b918252602082015260400190565b6020815260006125f060208301846150eb565b6020808252600290820152614f3960f01b604082015260600190565b60208082526032908201527f4552433732313a207472616e7366657220746f206e6f6e20455243373231526560408201527131b2b4bb32b91034b6b83632b6b2b73a32b960711b606082015260800190565b60208082526003908201526204f32360ec1b604082015260600190565b6020808252600290820152614e3760f01b604082015260600190565b6020808252818101527f4f776e61626c653a2063616c6c6572206973206e6f7420746865206f776e6572604082015260600190565b60208082526031908201527f4552433732313a207472616e736665722063616c6c6572206973206e6f74206f6040820152701ddb995c881b9bdc88185c1c1c9bdd9959607a1b606082015260800190565b60208082526002908201526113cd60f21b604082015260600190565b84815260208101849052608081016154436040830185615117565b821515606083015295945050505050565b848152602081018490526080810161546f6040830185615117565b82606083015295945050505050565b9283526020830191909152604082015260600190565b600082198211156154a7576154a761568b565b500190565b6000826154bb576154bb6156a1565b500490565b600181815b808511156154fb5781600019048211156154e1576154e161568b565b808516156154ee57918102915b93841c93908002906154c5565b509250929050565b60006125f060ff84168360008261551c575060016108a5565b81615529575060006108a5565b816001811461553f576002811461554957615565565b60019150506108a5565b60ff84111561555a5761555a61568b565b50506001821b6108a5565b5060208310610133831016604e8410600b8410161715615588575081810a6108a5565b61559283836154c0565b80600019048211156155a6576155a661568b565b029392505050565b60008160001904831182151516156155c8576155c861568b565b500290565b6000828210156155df576155df61568b565b500390565b60005b838110156155ff5781810151838201526020016155e7565b838111156117eb5750506000910152565b60008161561f5761561f61568b565b506000190190565b600181811c9082168061563b57607f821691505b6020821081141561097c57634e487b7160e01b600052602260045260246000fd5b60006000198214156156705761567061568b565b5060010190565b600082615686576156866156a1565b500690565b634e487b7160e01b600052601160045260246000fd5b634e487b7160e01b600052601260045260246000fd5b634e487b7160e01b600052602160045260246000fd5b634e487b7160e01b600052604160045260246000fd5b6001600160a01b0381168114610cb457600080fd5b8015158114610cb457600080fd5b6001600160e01b031981168114610cb457600080fdfe68747470733a2f2f676174657761792e70696e6174612e636c6f75642f697066732fddf252ad1be2c89b69c2b068fc378daa952ba7f163c4a11628f55a4df523b3ef823a343d1c899e61a4db12247636a6882bf1fefae78bef39170f8d0f5b53e456a26469706673582212207127116fb29fe3cb16e3fc9c7dc05e2790968fb65dc4088e66cebec234ae394f64736f6c63430008040033","bytecodeSha1":"c295a21c9057688aa4fb019faa2902579e0aedb8","type":"contract","abi":[{"inputs":[{"internalType":"contract ERC20","name":"_tokenX","type":"address"},{"internalType":"contract IPriceProvider","name":"pp","type":"address"},{"internalType":"contract BufferBinaryIBFRPoolBinary","name":"_pool","type":"address"},{"internalType":"contract OptionConfigBinaryV2","name":"_config","type":"address"}],"stateMutability":"nonpayable","type":"constructor","name":"constructor"},{"anonymous":false,"inputs":[{"indexed":true,"internalType":"address","name":"owner","type":"address"},{"indexed":true,"internalType":"address","name":"approved","type":"address"},{"indexed":true,"internalType":"uint256","name":"tokenId","type":"uint256"}],"name":"Approval","type":"event"},{"anonymous":false,"inputs":[{"indexed":true,"internalType":"address","name":"owner","type":"address"},{"indexed":true,"internalType":"address","name":"operator","type":"address"},{"indexed":false,"internalType":"bool","name":"approved","type":"bool"}],"name":"ApprovalForAll","type":"event"},{"anonymous":false,"inputs":[{"indexed":true,"internalType":"address","name":"approval","type":"address"},{"indexed":true,"internalType":"uint256","name":"tokenId","type":"uint256"},{"indexed":false,"internalType":"uint256","name":"allowance","type":"uint256"}],"name":"ApprovalUnits","type":"event"},{"anonymous":false,"inputs":[{"indexed":true,"internalType":"uint256","name":"id","type":"uint256"},{"indexed":true,"internalType":"address","name":"account","type":"address"},{"indexed":false,"internalType":"uint256","name":"settlementFee","type":"uint256"},{"indexed":false,"internalType":"uint256","name":"totalFee","type":"uint256"}],"name":"Create","type":"event"},{"anonymous":false,"inputs":[{"indexed":true,"internalType":"uint256","name":"id","type":"uint256"},{"indexed":false,"internalType":"uint256","name":"profit","type":"uint256"}],"name":"Exercise","type":"event"},{"anonymous":false,"inputs":[{"indexed":true,"internalType":"uint256","name":"id","type":"uint256"},{"indexed":false,"internalType":"uint256","name":"premium","type":"uint256"}],"name":"Expire","type":"event"},{"anonymous":false,"inputs":[{"indexed":true,"internalType":"address","name":"owner","type":"address"},{"indexed":true,"internalType":"uint256","name":"tokenId","type":"uint256"},{"indexed":true,"internalType":"uint256","name":"targetTokenId","type":"uint256"},{"indexed":false,"internalType":"uint256","name":"mergeUnits","type":"uint256"}],"name":"Merge","type":"event"},{"anonymous":false,"inputs":[{"indexed":true,"internalType":"address","name":"previousOwner","type":"address"},{"indexed":true,"internalType":"address","name":"newOwner","type":"address"}],"name":"OwnershipTransferred","type":"event"},{"anonymous":false,"inputs":[{"indexed":true,"internalType":"address","name":"owner","type":"address"},{"indexed":false,"internalType":"uint256","name":"amount","type":"uint256"}],"name":"PayAdminFee","type":"event"},{"anonymous":false,"inputs":[{"indexed":true,"internalType":"address","name":"referrer","type":"address"},{"indexed":false,"internalType":"uint256","name":"amount","type":"uint256"}],"name":"PayReferralFee","type":"event"},{"anonymous":false,"inputs":[{"indexed":true,"internalType":"bytes32","name":"role","type":"bytes32"},{"indexed":true,"internalType":"bytes32","name":"previousAdminRole","type":"bytes32"},{"indexed":true,"internalType":"bytes32","name":"newAdminRole","type":"bytes32"}],"name":"RoleAdminChanged","type":"event"},{"anonymous":false,"inputs":[{"indexed":true,"internalType":"bytes32","name":"role","type":"bytes32"},{"indexed":true,"internalType":"address","name":"account","type":"address"},{"indexed":true,"internalType":"address","name":"sender","type":"address"}],"name":"RoleGranted","type":"event"},{"anonymous":false,"inputs":[{"indexed":true,"internalType":"bytes32","name":"role","type":"bytes32"},{"indexed":true,"internalType":"address","name":"account","type":"address"},{"indexed":true,"internalType":"address","name":"sender","type":"address"}],"name":"RoleRevoked","type":"event"},{"anonymous":false,"inputs":[{"indexed":true,"internalType":"address","name":"owner","type":"address"},{"indexed":true,"internalType":"uint256","name":"tokenId","type":"uint256"},{"indexed":false,"internalType":"uint256","name":"newTokenId","type":"uint256"},{"indexed":false,"internalType":"uint256","name":"splitUnits","type":"uint256"}],"name":"Split","type":"event"},{"anonymous":false,"inputs":[{"indexed":true,"internalType":"address","name":"from","type":"address"},{"indexed":true,"internalType":"address","name":"to","type":"address"},{"indexed":true,"internalType":"uint256","name":"tokenId","type":"uint256"}],"name":"Transfer","type":"event"},{"anonymous":false,"inputs":[{"indexed":true,"internalType":"address","name":"from","type":"address"},{"indexed":true,"internalType":"address","name":"to","type":"address"},{"indexed":true,"internalType":"uint256","name":"tokenId","type":"uint256"},{"indexed":false,"internalType":"uint256","name":"targetTokenId","type":"uint256"},{"indexed":false,"internalType":"uint256","name":"transferUnits","type":"uint256"}],"name":"TransferUnits","type":"event"},{"anonymous":false,"inputs":[{"indexed":false,"internalType":"uint256","name":"startHour","type":"uint256"},{"indexed":false,"internalType":"uint256","name":"startMinute","type":"uint256"},{"indexed":false,"internalType":"uint256","name":"endHour","type":"uint256"},{"indexed":false,"internalType":"uint256","name":"endMinute","type":"uint256"}],"name":"UpdateOptionCreationWindow","type":"event"},{"inputs":[],"name":"AUTO_CLOSER_ROLE","outputs":[{"internalType":"bytes32","name":"","type":"bytes32"}],"stateMutability":"view","type":"function"},{"inputs":[],"name":"DEFAULT_ADMIN_ROLE","outputs":[{"internalType":"bytes32","name":"","type":"bytes32"}],"stateMutability":"view","type":"function"},{"inputs":[{"internalType":"uint256","name":"","type":"uint256"}],"name":"_units","outputs":[{"internalType":"uint256","name":"","type":"uint256"}],"stateMutability":"view","type":"function"},{"inputs":[{"internalType":"uint256","name":"optionId_","type":"uint256"},{"internalType":"address","name":"spender_","type":"address"}],"name":"allowance","outputs":[{"internalType":"uint256","name":"","type":"uint256"}],"stateMutability":"view","type":"function"},{"inputs":[{"internalType":"address","name":"to","type":"address"},{"internalType":"uint256","name":"tokenId","type":"uint256"}],"name":"approve","outputs":[],"stateMutability":"nonpayable","type":"function"},{"inputs":[{"internalType":"address","name":"to_","type":"address"},{"internalType":"uint256","name":"optionId_","type":"uint256"},{"internalType":"uint256","name":"allowance_","type":"uint256"}],"name":"approve","outputs":[],"stateMutability":"nonpayable","type":"function"},{"inputs":[],"name":"approvePoolToTransferTokenX","outputs":[],"stateMutability":"nonpayable","type":"function"},{"inputs":[{"internalType":"address","name":"owner","type":"address"}],"name":"balanceOf","outputs":[{"internalType":"uint256","name":"","type":"uint256"}],"stateMutability":"view","type":"function"},{"inputs":[{"internalType":"uint256","name":"","type":"uint256"}],"name":"binaryOptionType","outputs":[{"internalType":"bool","name":"isYes","type":"bool"},{"internalType":"bool","name":"isAbove","type":"bool"}],"stateMutability":"view","type":"function"},{"inputs":[{"internalType":"uint256","name":"tokenId_","type":"uint256"}],"name":"burn","outputs":[],"stateMutability":"nonpayable","type":"function"},{"inputs":[],"name":"config","outputs":[{"internalType":"contract OptionConfigBinaryV2","name":"","type":"address"}],"stateMutability":"view","type":"function"},{"inputs":[{"internalType":"uint256","name":"totalFee","type":"uint256"},{"internalType":"uint256","name":"period","type":"uint256"},{"internalType":"bool","name":"isYes","type":"bool"},{"internalType":"bool","name":"isAbove","type":"bool"},{"internalType":"address","name":"referrer","type":"address"}],"name":"create","outputs":[{"internalType":"uint256","name":"optionID","type":"uint256"}],"stateMutability":"nonpayable","type":"function"},{"inputs":[],"name":"decimals","outputs":[{"internalType":"uint8","name":"","type":"uint8"}],"stateMutability":"view","type":"function"},{"inputs":[{"internalType":"uint256","name":"optionID","type":"uint256"}],"name":"exercise","outputs":[{"internalType":"uint256","name":"profit","type":"uint256"}],"stateMutability":"nonpayable","type":"function"},{"inputs":[{"internalType":"uint256","name":"optionID","type":"uint256"}],"name":"exists","outputs":[{"internalType":"bool","name":"","type":"bool"}],"stateMutability":"view","type":"function"},{"inputs":[{"internalType":"uint256","name":"","type":"uint256"}],"name":"expiryToRoundID","outputs":[{"internalType":"uint256","name":"","type":"uint256"}],"stateMutability":"view","type":"function"},{"inputs":[{"internalType":"uint256","name":"period","type":"uint256"},{"internalType":"uint256","name":"amount","type":"uint256"},{"internalType":"uint256","name":"strike","type":"uint256"},{"internalType":"bool","name":"isYes","type":"bool"},{"internalType":"bool","name":"isAbove","type":"bool"}],"name":"fees","outputs":[{"internalType":"uint256","name":"total","type":"uint256"},{"internalType":"uint256","name":"settlementFee","type":"uint256"},{"internalType":"uint256","name":"premium","type":"uint256"}],"stateMutability":"view","type":"function"},{"inputs":[{"internalType":"uint256","name":"tokenId","type":"uint256"}],"name":"getApproved","outputs":[{"internalType":"address","name":"","type":"address"}],"stateMutability":"view","type":"function"},{"inputs":[{"internalType":"bytes32","name":"role","type":"bytes32"}],"name":"getRoleAdmin","outputs":[{"internalType":"bytes32","name":"","type":"bytes32"}],"stateMutability":"view","type":"function"},{"inputs":[{"internalType":"bytes32","name":"role","type":"bytes32"},{"internalType":"address","name":"account","type":"address"}],"name":"grantRole","outputs":[],"stateMutability":"nonpayable","type":"function"},{"inputs":[{"internalType":"bytes32","name":"role","type":"bytes32"},{"internalType":"address","name":"account","type":"address"}],"name":"hasRole","outputs":[{"internalType":"bool","name":"","type":"bool"}],"stateMutability":"view","type":"function"},{"inputs":[{"internalType":"address","name":"owner","type":"address"},{"internalType":"address","name":"operator","type":"address"}],"name":"isApprovedForAll","outputs":[{"internalType":"bool","name":"","type":"bool"}],"stateMutability":"view","type":"function"},{"inputs":[],"name":"maxUnits","outputs":[{"internalType":"uint256","name":"","type":"uint256"}],"stateMutability":"view","type":"function"},{"inputs":[{"internalType":"uint256[]","name":"optionIDs","type":"uint256[]"},{"internalType":"uint256","name":"targetOptionID","type":"uint256"}],"name":"merge","outputs":[],"stateMutability":"nonpayable","type":"function"},{"inputs":[],"name":"minimumYield","outputs":[{"internalType":"uint256","name":"","type":"uint256"}],"stateMutability":"view","type":"function"},{"inputs":[],"name":"name","outputs":[{"internalType":"string","name":"","type":"string"}],"stateMutability":"view","type":"function"},{"inputs":[],"name":"nextTokenId","outputs":[{"internalType":"uint256","name":"","type":"uint256"}],"stateMutability":"view","type":"function"},{"inputs":[{"internalType":"uint256","name":"","type":"uint256"},{"internalType":"address","name":"","type":"address"}],"name":"optionSizeBought","outputs":[{"internalType":"uint256","name":"","type":"uint256"}],"stateMutability":"view","type":"function"},{"inputs":[{"internalType":"uint256","name":"","type":"uint256"}],"name":"optionSlotMapping","outputs":[{"internalType":"uint256","name":"","type":"uint256"}],"stateMutability":"view","type":"function"},{"inputs":[{"internalType":"uint256","name":"","type":"uint256"}],"name":"options","outputs":[{"internalType":"enum IBufferBinaryOptions.State","name":"state","type":"uint8"},{"internalType":"uint256","name":"strike","type":"uint256"},{"internalType":"uint256","name":"amount","type":"uint256"},{"internalType":"uint256","name":"lockedAmount","type":"uint256"},{"internalType":"uint256","name":"premium","type":"uint256"},{"internalType":"uint256","name":"expiration","type":"uint256"},{"internalType":"enum IBufferBinaryOptions.OptionType","name":"optionType","type":"uint8"},{"internalType":"uint256","name":"totalFee","type":"uint256"},{"internalType":"uint256","name":"createdAt","type":"uint256"}],"stateMutability":"view","type":"function"},{"inputs":[],"name":"owner","outputs":[{"internalType":"address","name":"","type":"address"}],"stateMutability":"view","type":"function"},{"inputs":[{"internalType":"uint256","name":"tokenId","type":"uint256"}],"name":"ownerOf","outputs":[{"internalType":"address","name":"","type":"address"}],"stateMutability":"view","type":"function"},{"inputs":[],"name":"pool","outputs":[{"internalType":"contract BufferBinaryIBFRPoolBinary","name":"","type":"address"}],"stateMutability":"view","type":"function"},{"inputs":[],"name":"priceProvider","outputs":[{"internalType":"contract IPriceProvider","name":"","type":"address"}],"stateMutability":"view","type":"function"},{"inputs":[],"name":"renounceOwnership","outputs":[],"stateMutability":"nonpayable","type":"function"},{"inputs":[{"internalType":"bytes32","name":"role","type":"bytes32"},{"internalType":"address","name":"account","type":"address"}],"name":"renounceRole","outputs":[],"stateMutability":"nonpayable","type":"function"},{"inputs":[{"internalType":"bytes32","name":"role","type":"bytes32"},{"internalType":"address","name":"account","type":"address"}],"name":"revokeRole","outputs":[],"stateMutability":"nonpayable","type":"function"},{"inputs":[{"internalType":"address","name":"from","type":"address"},{"internalType":"address","name":"to","type":"address"},{"internalType":"uint256","name":"tokenId","type":"uint256"}],"name":"safeTransferFrom","outputs":[],"stateMutability":"nonpayable","type":"function"},{"inputs":[{"internalType":"address","name":"from","type":"address"},{"internalType":"address","name":"to","type":"address"},{"internalType":"uint256","name":"tokenId","type":"uint256"},{"internalType":"bytes","name":"_data","type":"bytes"}],"name":"safeTransferFrom","outputs":[],"stateMutability":"nonpayable","type":"function"},{"inputs":[{"internalType":"address","name":"operator","type":"address"},{"internalType":"bool","name":"approved","type":"bool"}],"name":"setApprovalForAll","outputs":[],"stateMutability":"nonpayable","type":"function"},{"inputs":[{"internalType":"uint256","name":"roundId","type":"uint256"},{"internalType":"uint256","name":"optionID","type":"uint256"}],"name":"setRoundIDForExpiry","outputs":[{"internalType":"bool","name":"isCorrectRoundId","type":"bool"}],"stateMutability":"nonpayable","type":"function"},{"inputs":[{"internalType":"uint256","name":"","type":"uint256"}],"name":"slotDetails","outputs":[{"internalType":"uint256","name":"strike","type":"uint256"},{"internalType":"uint256","name":"expiration","type":"uint256"},{"internalType":"enum IBufferBinaryOptions.OptionType","name":"optionType","type":"uint8"},{"internalType":"bool","name":"isValid","type":"bool"}],"stateMutability":"view","type":"function"},{"inputs":[{"internalType":"uint256","name":"optionId_","type":"uint256"}],"name":"slotOf","outputs":[{"internalType":"uint256","name":"","type":"uint256"}],"stateMutability":"view","type":"function"},{"inputs":[{"internalType":"uint256","name":"optionID","type":"uint256"},{"internalType":"uint256[]","name":"splitUnits_","type":"uint256[]"}],"name":"split","outputs":[{"internalType":"uint256[]","name":"newOptionIDs","type":"uint256[]"}],"stateMutability":"nonpayable","type":"function"},{"inputs":[{"internalType":"bytes4","name":"interfaceId","type":"bytes4"}],"name":"supportsInterface","outputs":[{"internalType":"bool","name":"","type":"bool"}],"stateMutability":"view","type":"function"},{"inputs":[],"name":"symbol","outputs":[{"internalType":"string","name":"","type":"string"}],"stateMutability":"view","type":"function"},{"inputs":[{"internalType":"uint256","name":"slot_","type":"uint256"},{"internalType":"uint256","name":"index_","type":"uint256"}],"name":"tokenOfSlotByIndex","outputs":[{"internalType":"uint256","name":"","type":"uint256"}],"stateMutability":"view","type":"function"},{"inputs":[{"internalType":"uint256","name":"tokenId","type":"uint256"}],"name":"tokenURI","outputs":[{"internalType":"string","name":"","type":"string"}],"stateMutability":"view","type":"function"},{"inputs":[],"name":"tokenX","outputs":[{"internalType":"contract ERC20","name":"","type":"address"}],"stateMutability":"view","type":"function"},{"inputs":[{"internalType":"uint256","name":"slot_","type":"uint256"}],"name":"tokensInSlot","outputs":[{"internalType":"uint256","name":"","type":"uint256"}],"stateMutability":"view","type":"function"},{"inputs":[{"internalType":"address","name":"from","type":"address"},{"internalType":"address","name":"to","type":"address"},{"internalType":"uint256","name":"tokenId","type":"uint256"}],"name":"transferFrom","outputs":[],"stateMutability":"nonpayable","type":"function"},{"inputs":[{"internalType":"address","name":"from_","type":"address"},{"internalType":"address","name":"to_","type":"address"},{"internalType":"uint256","name":"optionID","type":"uint256"},{"internalType":"uint256","name":"targetOptionID","type":"uint256"},{"internalType":"uint256","name":"transferUnits_","type":"uint256"}],"name":"transferFrom","outputs":[],"stateMutability":"nonpayable","type":"function"},{"inputs":[{"internalType":"address","name":"from_","type":"address"},{"internalType":"address","name":"to_","type":"address"},{"internalType":"uint256","name":"optionID","type":"uint256"},{"internalType":"uint256","name":"transferUnits_","type":"uint256"}],"name":"transferFrom","outputs":[{"internalType":"uint256","name":"newOptionID","type":"uint256"}],"stateMutability":"nonpayable","type":"function"},{"inputs":[{"internalType":"address","name":"newOwner","type":"address"}],"name":"transferOwnership","outputs":[],"stateMutability":"nonpayable","type":"function"},{"inputs":[],"name":"unitDecimals","outputs":[{"internalType":"uint8","name":"","type":"uint8"}],"stateMutability":"view","type":"function"},{"inputs":[{"internalType":"uint256","name":"slot_","type":"uint256"}],"name":"unitsInSlot","outputs":[{"internalType":"uint256","name":"units_","type":"uint256"}],"stateMutability":"view","type":"function"},{"inputs":[{"internalType":"uint256","name":"optionId_","type":"uint256"}],"name":"unitsInToken","outputs":[{"internalType":"uint256","name":"","type":"uint256"}],"stateMutability":"view","type":"function"},{"inputs":[{"internalType":"uint256","name":"optionID","type":"uint256"}],"name":"unlock","outputs":[],"stateMutability":"nonpayable","type":"function"},{"inputs":[{"internalType":"uint256[]","name":"optionIDs","type":"uint256[]"}],"name":"unlockAll","outputs":[],"stateMutability":"nonpayable","type":"function"},{"inputs":[{"internalType":"address","name":"","type":"address"}],"name":"userOptionCount","outputs":[{"internalType":"uint256","name":"","type":"uint256"}],"stateMutability":"view","type":"function"},{"inputs":[{"internalType":"address","name":"","type":"address"},{"internalType":"uint256","name":"","type":"uint256"}],"name":"userOptionIds","outputs":[{"internalType":"uint256","name":"","type":"uint256"}],"stateMutability":"view","type":"function"}],"compiler":{"version":"0.8.4+commit.c7e474f2","evm_version":"istanbul","optimizer":{"enabled":true,"runs":1}},"contractName":"BufferBinaryEuropeanATMOptions","language":"Solidity","natspec":{"methods":{"approve(address,uint256)":{"details":"See {IERC721-approve}."},"balanceOf(address)":{"details":"See {IERC721-balanceOf}."},"create(uint256,uint256,bool,bool,address)":{"notice":"Creates a new option","returns":{"optionID":"Created option's ID"}},"exercise(uint256)":{"notice":"Exercises an option if it was ITM at the time of expiry","params":{"optionID":"ID of your option"},"returns":{"profit":"Profit sent to the user"}},"fees(uint256,uint256,uint256,bool,bool)":{"notice":"Used for getting the option's price using blackscholes","params":{"amount":"Option amount","isAbove":"whether the price will stay above this strike or not","isYes":"whether the option isAbove or not","period":"Option period in seconds","strike":"Strike price of the option"},"returns":{"premium":"Amount that covers the price difference in the ITM options","settlementFee":"Amount to be distributed to the Buffer token holders","total":"Total price to be paid"}},"getApproved(uint256)":{"details":"See {IERC721-getApproved}."},"getRoleAdmin(bytes32)":{"details":"Returns the admin role that controls `role`. See {grantRole} and {revokeRole}. To change a role's admin, use {_setRoleAdmin}."},"grantRole(bytes32,address)":{"details":"Grants `role` to `account`. If `account` had not been already granted `role`, emits a {RoleGranted} event. Requirements: - the caller must have ``role``'s admin role."},"hasRole(bytes32,address)":{"details":"Returns `true` if `account` has been granted `role`."},"isApprovedForAll(address,address)":{"details":"See {IERC721-isApprovedForAll}."},"merge(uint256[],uint256)":{"notice":"Merges the options","params":{"optionIDs":"An array of the optionsIds to be merged","targetOptionID":"OptionId to be merged into"}},"name()":{"details":"See {IERC721Metadata-name}."},"owner()":{"details":"Returns the address of the current owner."},"ownerOf(uint256)":{"details":"See {IERC721-ownerOf}."},"renounceOwnership()":{"details":"Leaves the contract without owner. It will not be possible to call `onlyOwner` functions anymore. Can only be called by the current owner. NOTE: Renouncing ownership will leave the contract without an owner, thereby removing any functionality that is only available to the owner."},"renounceRole(bytes32,address)":{"details":"Revokes `role` from the calling account. Roles are often managed via {grantRole} and {revokeRole}: this function's purpose is to provide a mechanism for accounts to lose their privileges if they are compromised (such as when a trusted device is misplaced). If the calling account had been granted `role`, emits a {RoleRevoked} event. Requirements: - the caller must be `account`."},"revokeRole(bytes32,address)":{"details":"Revokes `role` from `account`. If `account` had been granted `role`, emits a {RoleRevoked} event. Requirements: - the caller must have ``role``'s admin role."},"safeTransferFrom(address,address,uint256)":{"details":"See {IERC721-safeTransferFrom}."},"safeTransferFrom(address,address,uint256,bytes)":{"details":"See {IERC721-safeTransferFrom}."},"setApprovalForAll(address,bool)":{"details":"See {IERC721-setApprovalForAll}."},"setRoundIDForExpiry(uint256,uint256)":{"notice":"Sets the expiry price in the oracle","details":"a roundId must be provided to confirm price validity, which is the first Chainlink price provided after the expiryTimestamp","params":{"roundId":"the first roundId after expiryTimestamp"}},"split(uint256,uint256[])":{"notice":"Splits the option","params":{"optionID":"OptionId to be splitted","splitUnits_":"Units to be splitted into"},"returns":{"newOptionIDs":"An array of the splitted options"}},"symbol()":{"details":"See {IERC721Metadata-symbol}."},"tokenURI(uint256)":{"details":"Template code provided by OpenZepplin Code Wizard"},"transferFrom(address,address,uint256)":{"details":"See {IERC721-transferFrom}."},"transferFrom(address,address,uint256,uint256)":{"notice":"Transfer part of units of a option to target address.","params":{"from_":"Address of the option sender","optionID":"Id of the option to transfer","to_":"Address of the option recipient","transferUnits_":"Amount of units to transfer"}},"transferFrom(address,address,uint256,uint256,uint256)":{"notice":"Transfer part of units of a option to another option.","params":{"from_":"Address of the option sender","optionID":"Id of the option to transfer","targetOptionID":"Id of the option to receive","to_":"Address of the option recipient","transferUnits_":"Amount of units to transfer"}},"transferOwnership(address)":{"details":"Transfers ownership of the contract to a new account (`newOwner`). Can only be called by the current owner."},"unlock(uint256)":{"notice":"Unlocks the locked funds if the option was OTM at the time of expiry otherwise exercises it","params":{"optionID":"ID of the option"}},"unlockAll(uint256[])":{"notice":"Unlocks an array of options","params":{"optionIDs":"array of options"}},"approvePoolToTransferTokenX()":{"notice":"Call this to set the max approval for tokenX transfers from the options to pool"}},"kind":"dev","notice":"Buffer TokenX Options Contract","version":1,"author":"Heisenberg","title":"Buffer TokenX Bidirectional (Call and Put) Options"},"opcodes":"PUSH1 0x80 PUSH1 0x40 MSTORE CALLVALUE DUP1 ISZERO PUSH2 0x10 JUMPI PUSH1 0x0 DUP1 REVERT JUMPDEST POP PUSH1 0x4 CALLDATASIZE LT PUSH2 0x2BF JUMPI PUSH1 0x0 CALLDATALOAD PUSH1 0xE0 SHR DUP1 PUSH4 0x1FFC9A7 EQ PUSH2 0x2C4 JUMPI DUP1 PUSH4 0x5271A2A EQ PUSH2 0x2EC JUMPI DUP1 PUSH4 0x6517A29 EQ PUSH2 0x305 JUMPI DUP1 PUSH4 0x6FDDE03 EQ PUSH2 0x31C JUMPI DUP1 PUSH4 0x76D948C EQ PUSH2 0x331 JUMPI DUP1 PUSH4 0x81812FC EQ PUSH2 0x344 JUMPI DUP1 PUSH4 0x95EA7B3 EQ PUSH2 0x36F JUMPI DUP1 PUSH4 0x16DC165B EQ PUSH2 0x384 JUMPI DUP1 PUSH4 0x16F0115B EQ PUSH2 0x397 JUMPI DUP1 PUSH4 0x23B872DD EQ PUSH2 0x3AA JUMPI DUP1 PUSH4 0x248A9CA3 EQ PUSH2 0x3BD JUMPI DUP1 PUSH4 0x263F3E7E EQ PUSH2 0x3D0 JUMPI DUP1 PUSH4 0x2F2FF15D EQ PUSH2 0x3E3 JUMPI DUP1 PUSH4 0x313CE567 EQ PUSH2 0x3F6 JUMPI DUP1 PUSH4 0x34C01793 EQ PUSH2 0x3FD JUMPI DUP1 PUSH4 0x36568ABE EQ PUSH2 0x428 JUMPI DUP1 PUSH4 0x409E2205 EQ PUSH2 0x43B JUMPI DUP1 PUSH4 0x426A8493 EQ PUSH2 0x4AF JUMPI DUP1 PUSH4 0x42842E0E EQ PUSH2 0x4C2 JUMPI DUP1 PUSH4 0x42966C68 EQ PUSH2 0x4D5 JUMPI DUP1 PUSH4 0x4AED53C2 EQ PUSH2 0x4E8 JUMPI DUP1 PUSH4 0x4F558E79 EQ PUSH2 0x4FB JUMPI DUP1 PUSH4 0x502379CB EQ PUSH2 0x50E JUMPI DUP1 PUSH4 0x6198E339 EQ PUSH2 0x521 JUMPI DUP1 PUSH4 0x6352211E EQ PUSH2 0x534 JUMPI DUP1 PUSH4 0x645734E6 EQ PUSH2 0x547 JUMPI DUP1 PUSH4 0x67807F7D EQ PUSH2 0x54F JUMPI DUP1 PUSH4 0x689AB5AC EQ PUSH2 0x571 JUMPI DUP1 PUSH4 0x69C67247 EQ PUSH2 0x5B4 JUMPI DUP1 PUSH4 0x70A08231 EQ PUSH2 0x5D4 JUMPI DUP1 PUSH4 0x715018A6 EQ PUSH2 0x5E7 JUMPI DUP1 PUSH4 0x75794A3C EQ PUSH2 0x5EF JUMPI DUP1 PUSH4 0x75A74D84 EQ PUSH2 0x5F8 JUMPI DUP1 PUSH4 0x78C533CE EQ PUSH2 0x618 JUMPI DUP1 PUSH4 0x79502C55 EQ PUSH2 0x638 JUMPI DUP1 PUSH4 0x841EDC0E EQ PUSH2 0x64B JUMPI DUP1 PUSH4 0x8A584118 EQ PUSH2 0x66B JUMPI DUP1 PUSH4 0x8DA5CB5B EQ PUSH2 0x6B6 JUMPI DUP1 PUSH4 0x91D14854 EQ PUSH2 0x6BE JUMPI DUP1 PUSH4 0x95D89B41 EQ PUSH2 0x6D1 JUMPI DUP1 PUSH4 0xA217FDDF EQ PUSH2 0x6D9 JUMPI DUP1 PUSH4 0xA22CB465 EQ PUSH2 0x6E1 JUMPI DUP1 PUSH4 0xA6D14C02 EQ PUSH2 0x6F4 JUMPI DUP1 PUSH4 0xA8800425 EQ PUSH2 0x6FC JUMPI DUP1 PUSH4 0xB07F0A41 EQ PUSH2 0x70F JUMPI DUP1 PUSH4 0xB888879E EQ PUSH2 0x722 JUMPI DUP1 PUSH4 0xB88D4FDE EQ PUSH2 0x735 JUMPI DUP1 PUSH4 0xBBE33EA5 EQ PUSH2 0x748 JUMPI DUP1 PUSH4 0xBECEF607 EQ PUSH2 0x75B JUMPI DUP1 PUSH4 0xC87B56DD EQ PUSH2 0x76E JUMPI DUP1 PUSH4 0xC962CA12 EQ PUSH2 0x781 JUMPI DUP1 PUSH4 0xD149CC30 EQ PUSH2 0x794 JUMPI DUP1 PUSH4 0xD547741F EQ PUSH2 0x7A7 JUMPI DUP1 PUSH4 0xD5A0E673 EQ PUSH2 0x7BA JUMPI DUP1 PUSH4 0xD67A6B70 EQ PUSH2 0x7DA JUMPI DUP1 PUSH4 0xDBA34E97 EQ PUSH2 0x7ED JUMPI DUP1 PUSH4 0xE342B598 EQ PUSH2 0x814 JUMPI DUP1 PUSH4 0xE345E0BC EQ PUSH2 0x827 JUMPI DUP1 PUSH4 0xE985E9C5 EQ PUSH2 0x861 JUMPI DUP1 PUSH4 0xF2FDE38B EQ PUSH2 0x874 JUMPI DUP1 PUSH4 0xFE99049A EQ PUSH2 0x887 JUMPI JUMPDEST PUSH1 0x0 DUP1 REVERT JUMPDEST PUSH2 0x2D7 PUSH2 0x2D2 CALLDATASIZE PUSH1 0x4 PUSH2 0x4F3D JUMP JUMPDEST PUSH2 0x89A JUMP JUMPDEST PUSH1 0x40 MLOAD SWAP1 ISZERO ISZERO DUP2 MSTORE PUSH1 0x20 ADD JUMPDEST PUSH1 0x40 MLOAD DUP1 SWAP2 SUB SWAP1 RETURN JUMPDEST PUSH1 0xE SLOAD PUSH1 0xFF AND JUMPDEST PUSH1 0x40 MLOAD PUSH1 0xFF SWAP1 SWAP2 AND DUP2 MSTORE PUSH1 0x20 ADD PUSH2 0x2E3 JUMP JUMPDEST PUSH2 0x30E PUSH1 0xD SLOAD DUP2 JUMP JUMPDEST PUSH1 0x40 MLOAD SWAP1 DUP2 MSTORE PUSH1 0x20 ADD PUSH2 0x2E3 JUMP JUMPDEST PUSH2 0x324 PUSH2 0x8AB JUMP JUMPDEST PUSH1 0x40 MLOAD PUSH2 0x2E3 SWAP2 SWAP1 PUSH2 0x52CC JUMP JUMPDEST PUSH2 0x30E PUSH2 0x33F CALLDATASIZE PUSH1 0x4 PUSH2 0x4F01 JUMP JUMPDEST PUSH2 0x93D JUMP JUMPDEST PUSH2 0x357 PUSH2 0x352 CALLDATASIZE PUSH1 0x4 PUSH2 0x4F01 JUMP JUMPDEST PUSH2 0x982 JUMP JUMPDEST PUSH1 0x40 MLOAD PUSH1 0x1 PUSH1 0x1 PUSH1 0xA0 SHL SUB SWAP1 SWAP2 AND DUP2 MSTORE PUSH1 0x20 ADD PUSH2 0x2E3 JUMP JUMPDEST PUSH2 0x382 PUSH2 0x37D CALLDATASIZE PUSH1 0x4 PUSH2 0x4DFE JUMP JUMPDEST PUSH2 0xA0F JUMP JUMPDEST STOP JUMPDEST PUSH1 0x10 SLOAD PUSH2 0x357 SWAP1 PUSH1 0x1 PUSH1 0x1 PUSH1 0xA0 SHL SUB AND DUP2 JUMP JUMPDEST PUSH1 0x1A SLOAD PUSH2 0x357 SWAP1 PUSH1 0x1 PUSH1 0x1 PUSH1 0xA0 SHL SUB AND DUP2 JUMP JUMPDEST PUSH2 0x382 PUSH2 0x3B8 CALLDATASIZE PUSH1 0x4 PUSH2 0x4C24 JUMP JUMPDEST PUSH2 0xB20 JUMP JUMPDEST PUSH2 0x30E PUSH2 0x3CB CALLDATASIZE PUSH1 0x4 PUSH2 0x4F01 JUMP JUMPDEST PUSH2 0xB51 JUMP JUMPDEST PUSH2 0x30E PUSH2 0x3DE CALLDATASIZE PUSH1 0x4 PUSH2 0x4F01 JUMP JUMPDEST PUSH2 0xB66 JUMP JUMPDEST PUSH2 0x382 PUSH2 0x3F1 CALLDATASIZE PUSH1 0x4 PUSH2 0x4F19 JUMP JUMPDEST PUSH2 0xB78 JUMP JUMPDEST PUSH1 0x12 PUSH2 0x2F3 JUMP JUMPDEST PUSH2 0x30E PUSH2 0x40B CALLDATASIZE PUSH1 0x4 PUSH2 0x4F19 JUMP JUMPDEST PUSH1 0x19 PUSH1 0x20 SWAP1 DUP2 MSTORE PUSH1 0x0 SWAP3 DUP4 MSTORE PUSH1 0x40 DUP1 DUP5 KECCAK256 SWAP1 SWAP2 MSTORE SWAP1 DUP3 MSTORE SWAP1 KECCAK256 SLOAD DUP2 JUMP JUMPDEST PUSH2 0x382 PUSH2 0x436 CALLDATASIZE PUSH1 0x4 PUSH2 0x4F19 JUMP JUMPDEST PUSH2 0xB95 JUMP JUMPDEST PUSH2 0x49A PUSH2 0x449 CALLDATASIZE PUSH1 0x4 PUSH2 0x4F01 JUMP JUMPDEST PUSH1 0x14 PUSH1 0x20 MSTORE PUSH1 0x0 SWAP1 DUP2 MSTORE PUSH1 0x40 SWAP1 KECCAK256 DUP1 SLOAD PUSH1 0x1 DUP3 ADD SLOAD PUSH1 0x2 DUP4 ADD SLOAD PUSH1 0x3 DUP5 ADD SLOAD PUSH1 0x4 DUP6 ADD SLOAD PUSH1 0x5 DUP7 ADD SLOAD PUSH1 0x6 DUP8 ADD SLOAD PUSH1 0x7 DUP9 ADD SLOAD PUSH1 0x8 SWAP1 SWAP9 ADD SLOAD PUSH1 0xFF SWAP8 DUP9 AND SWAP9 SWAP7 SWAP8 SWAP6 SWAP7 SWAP5 SWAP6 SWAP4 SWAP5 SWAP3 SWAP4 SWAP1 SWAP2 AND SWAP2 SWAP1 DUP10 JUMP JUMPDEST PUSH1 0x40 MLOAD PUSH2 0x2E3 SWAP10 SWAP9 SWAP8 SWAP7 SWAP6 SWAP5 SWAP4 SWAP3 SWAP2 SWAP1 PUSH2 0x5263 JUMP JUMPDEST PUSH2 0x382 PUSH2 0x4BD CALLDATASIZE PUSH1 0x4 PUSH2 0x4E29 JUMP JUMPDEST PUSH2 0xC13 JUMP JUMPDEST PUSH2 0x382 PUSH2 0x4D0 CALLDATASIZE PUSH1 0x4 PUSH2 0x4C24 JUMP JUMPDEST PUSH2 0xC57 JUMP JUMPDEST PUSH2 0x382 PUSH2 0x4E3 CALLDATASIZE PUSH1 0x4 PUSH2 0x4F01 JUMP JUMPDEST PUSH2 0xC72 JUMP JUMPDEST PUSH2 0x382 PUSH2 0x4F6 CALLDATASIZE PUSH1 0x4 PUSH2 0x4D81 JUMP JUMPDEST PUSH2 0xCB7 JUMP JUMPDEST PUSH2 0x2D7 PUSH2 0x509 CALLDATASIZE PUSH1 0x4 PUSH2 0x4F01 JUMP JUMPDEST PUSH2 0xDD9 JUMP JUMPDEST PUSH2 0x30E PUSH2 0x51C CALLDATASIZE PUSH1 0x4 PUSH2 0x4FF7 JUMP JUMPDEST PUSH2 0xDE4 JUMP JUMPDEST PUSH2 0x382 PUSH2 0x52F CALLDATASIZE PUSH1 0x4 PUSH2 0x4F01 JUMP JUMPDEST PUSH2 0x1568 JUMP JUMPDEST PUSH2 0x357 PUSH2 0x542 CALLDATASIZE PUSH1 0x4 PUSH2 0x4F01 JUMP JUMPDEST PUSH2 0x17F1 JUMP JUMPDEST PUSH2 0x382 PUSH2 0x1868 JUMP JUMPDEST PUSH2 0x562 PUSH2 0x55D CALLDATASIZE PUSH1 0x4 PUSH2 0x5055 JUMP JUMPDEST PUSH2 0x18F2 JUMP JUMPDEST PUSH1 0x40 MLOAD PUSH2 0x2E3 SWAP4 SWAP3 SWAP2 SWAP1 PUSH2 0x547E JUMP JUMPDEST PUSH2 0x59D PUSH2 0x57F CALLDATASIZE PUSH1 0x4 PUSH2 0x4F01 JUMP JUMPDEST PUSH1 0x17 PUSH1 0x20 MSTORE PUSH1 0x0 SWAP1 DUP2 MSTORE PUSH1 0x40 SWAP1 KECCAK256 SLOAD PUSH1 0xFF DUP1 DUP3 AND SWAP2 PUSH2 0x100 SWAP1 DIV AND DUP3 JUMP JUMPDEST PUSH1 0x40 DUP1 MLOAD SWAP3 ISZERO ISZERO DUP4 MSTORE SWAP1 ISZERO ISZERO PUSH1 0x20 DUP4 ADD MSTORE ADD PUSH2 0x2E3 JUMP JUMPDEST PUSH2 0x5C7 PUSH2 0x5C2 CALLDATASIZE PUSH1 0x4 PUSH2 0x4F8D JUMP JUMPDEST PUSH2 0x1A5C JUMP JUMPDEST PUSH1 0x40 MLOAD PUSH2 0x2E3 SWAP2 SWAP1 PUSH2 0x521F JUMP JUMPDEST PUSH2 0x30E PUSH2 0x5E2 CALLDATASIZE PUSH1 0x4 PUSH2 0x4BB4 JUMP JUMPDEST PUSH2 0x1E60 JUMP JUMPDEST PUSH2 0x382 PUSH2 0x1EE7 JUMP JUMPDEST PUSH2 0x30E PUSH1 0x13 SLOAD DUP2 JUMP JUMPDEST PUSH2 0x30E PUSH2 0x606 CALLDATASIZE PUSH1 0x4 PUSH2 0x4BB4 JUMP JUMPDEST PUSH1 0x16 PUSH1 0x20 MSTORE PUSH1 0x0 SWAP1 DUP2 MSTORE PUSH1 0x40 SWAP1 KECCAK256 SLOAD DUP2 JUMP JUMPDEST PUSH2 0x30E PUSH2 0x626 CALLDATASIZE PUSH1 0x4 PUSH2 0x4F01 JUMP JUMPDEST PUSH1 0xF PUSH1 0x20 MSTORE PUSH1 0x0 SWAP1 DUP2 MSTORE PUSH1 0x40 SWAP1 KECCAK256 SLOAD DUP2 JUMP JUMPDEST PUSH1 0x1B SLOAD PUSH2 0x357 SWAP1 PUSH1 0x1 PUSH1 0x1 PUSH1 0xA0 SHL SUB AND DUP2 JUMP JUMPDEST PUSH2 0x30E PUSH2 0x659 CALLDATASIZE PUSH1 0x4 PUSH2 0x4F01 JUMP JUMPDEST PUSH1 0x18 PUSH1 0x20 MSTORE PUSH1 0x0 SWAP1 DUP2 MSTORE PUSH1 0x40 SWAP1 KECCAK256 SLOAD DUP2 JUMP JUMPDEST PUSH2 0x6A6 PUSH2 0x679 CALLDATASIZE PUSH1 0x4 PUSH2 0x4F01 JUMP JUMPDEST PUSH1 0x1C PUSH1 0x20 MSTORE PUSH1 0x0 SWAP1 DUP2 MSTORE PUSH1 0x40 SWAP1 KECCAK256 DUP1 SLOAD PUSH1 0x1 DUP3 ADD SLOAD PUSH1 0x2 SWAP1 SWAP3 ADD SLOAD SWAP1 SWAP2 SWAP1 PUSH1 0xFF DUP1 DUP3 AND SWAP2 PUSH2 0x100 SWAP1 DIV AND DUP5 JUMP JUMPDEST PUSH1 0x40 MLOAD PUSH2 0x2E3 SWAP5 SWAP4 SWAP3 SWAP2 SWAP1 PUSH2 0x5428 JUMP JUMPDEST PUSH2 0x357 PUSH2 0x1F22 JUMP JUMPDEST PUSH2 0x2D7 PUSH2 0x6CC CALLDATASIZE PUSH1 0x4 PUSH2 0x4F19 JUMP JUMPDEST PUSH2 0x1F31 JUMP JUMPDEST PUSH2 0x324 PUSH2 0x1F5C JUMP JUMPDEST PUSH2 0x30E PUSH1 0x0 DUP2 JUMP JUMPDEST PUSH2 0x382 PUSH2 0x6EF CALLDATASIZE PUSH1 0x4 PUSH2 0x4DD1 JUMP JUMPDEST PUSH2 0x1F6B JUMP JUMPDEST PUSH2 0x30E PUSH1 0x5 DUP2 JUMP JUMPDEST PUSH2 0x30E PUSH2 0x70A CALLDATASIZE PUSH1 0x4 PUSH2 0x4F01 JUMP JUMPDEST PUSH2 0x202C JUMP JUMPDEST PUSH2 0x30E PUSH2 0x71D CALLDATASIZE PUSH1 0x4 PUSH2 0x4F01 JUMP JUMPDEST PUSH2 0x2043 JUMP JUMPDEST PUSH1 0x12 SLOAD PUSH2 0x357 SWAP1 PUSH1 0x1 PUSH1 0x1 PUSH1 0xA0 SHL SUB AND DUP2 JUMP JUMPDEST PUSH2 0x382 PUSH2 0x743 CALLDATASIZE PUSH1 0x4 PUSH2 0x4C64 JUMP JUMPDEST PUSH2 0x2348 JUMP JUMPDEST PUSH2 0x382 PUSH2 0x756 CALLDATASIZE PUSH1 0x4 PUSH2 0x4E9C JUMP JUMPDEST PUSH2 0x237B JUMP JUMPDEST PUSH2 0x30E PUSH2 0x769 CALLDATASIZE PUSH1 0x4 PUSH2 0x4F01 JUMP JUMPDEST PUSH2 0x258A JUMP JUMPDEST PUSH2 0x324 PUSH2 0x77C CALLDATASIZE PUSH1 0x4 PUSH2 0x4F01 JUMP JUMPDEST PUSH2 0x259C JUMP JUMPDEST PUSH2 0x30E PUSH2 0x78F CALLDATASIZE PUSH1 0x4 PUSH2 0x4DFE JUMP JUMPDEST PUSH2 0x25A7 JUMP JUMPDEST PUSH2 0x30E PUSH2 0x7A2 CALLDATASIZE PUSH1 0x4 PUSH2 0x4FD6 JUMP JUMPDEST PUSH2 0x25D8 JUMP JUMPDEST PUSH2 0x382 PUSH2 0x7B5 CALLDATASIZE PUSH1 0x4 PUSH2 0x4F19 JUMP JUMPDEST PUSH2 0x25F7 JUMP JUMPDEST PUSH2 0x30E PUSH2 0x7C8 CALLDATASIZE PUSH1 0x4 PUSH2 0x4F01 JUMP JUMPDEST PUSH1 0xA PUSH1 0x20 MSTORE PUSH1 0x0 SWAP1 DUP2 MSTORE PUSH1 0x40 SWAP1 KECCAK256 SLOAD DUP2 JUMP JUMPDEST PUSH2 0x2D7 PUSH2 0x7E8 CALLDATASIZE PUSH1 0x4 PUSH2 0x4FD6 JUMP JUMPDEST PUSH2 0x2614 JUMP JUMPDEST PUSH2 0x30E PUSH32 0xDEB3B49547F710C56A925B6E16E3557A50FAB4DD8F243BC314F3AFBA2054EC5B DUP2 JUMP JUMPDEST PUSH2 0x382 PUSH2 0x822 CALLDATASIZE PUSH1 0x4 PUSH2 0x4E5D JUMP JUMPDEST PUSH2 0x283C JUMP JUMPDEST PUSH2 0x30E PUSH2 0x835 CALLDATASIZE PUSH1 0x4 PUSH2 0x4F19 JUMP JUMPDEST PUSH1 0x0 DUP3 DUP2 MSTORE PUSH1 0xB PUSH1 0x20 SWAP1 DUP2 MSTORE PUSH1 0x40 DUP1 DUP4 KECCAK256 PUSH1 0x1 PUSH1 0x1 PUSH1 0xA0 SHL SUB DUP6 AND DUP5 MSTORE PUSH1 0x1 ADD SWAP1 SWAP2 MSTORE SWAP1 KECCAK256 SLOAD SWAP3 SWAP2 POP POP JUMP JUMPDEST PUSH2 0x2D7 PUSH2 0x86F CALLDATASIZE PUSH1 0x4 PUSH2 0x4BEC JUMP JUMPDEST PUSH2 0x2889 JUMP JUMPDEST PUSH2 0x382 PUSH2 0x882 CALLDATASIZE PUSH1 0x4 PUSH2 0x4BB4 JUMP JUMPDEST PUSH2 0x28B7 JUMP JUMPDEST PUSH2 0x30E PUSH2 0x895 CALLDATASIZE PUSH1 0x4 PUSH2 0x4D3C JUMP JUMPDEST PUSH2 0x2954 JUMP JUMPDEST PUSH1 0x0 PUSH2 0x8A5 DUP3 PUSH2 0x2A3D JUMP JUMPDEST SWAP3 SWAP2 POP POP JUMP JUMPDEST PUSH1 0x60 PUSH1 0x2 DUP1 SLOAD PUSH2 0x8BA SWAP1 PUSH2 0x5627 JUMP JUMPDEST DUP1 PUSH1 0x1F ADD PUSH1 0x20 DUP1 SWAP2 DIV MUL PUSH1 0x20 ADD PUSH1 0x40 MLOAD SWAP1 DUP2 ADD PUSH1 0x40 MSTORE DUP1 SWAP3 SWAP2 SWAP1 DUP2 DUP2 MSTORE PUSH1 0x20 ADD DUP3 DUP1 SLOAD PUSH2 0x8E6 SWAP1 PUSH2 0x5627 JUMP JUMPDEST DUP1 ISZERO PUSH2 0x933 JUMPI DUP1 PUSH1 0x1F LT PUSH2 0x908 JUMPI PUSH2 0x100 DUP1 DUP4 SLOAD DIV MUL DUP4 MSTORE SWAP2 PUSH1 0x20 ADD SWAP2 PUSH2 0x933 JUMP JUMPDEST DUP3 ADD SWAP2 SWAP1 PUSH1 0x0 MSTORE PUSH1 0x20 PUSH1 0x0 KECCAK256 SWAP1 JUMPDEST DUP2 SLOAD DUP2 MSTORE SWAP1 PUSH1 0x1 ADD SWAP1 PUSH1 0x20 ADD DUP1 DUP4 GT PUSH2 0x916 JUMPI DUP3 SWAP1 SUB PUSH1 0x1F AND DUP3 ADD SWAP2 JUMPDEST POP POP POP POP POP SWAP1 POP SWAP1 JUMP JUMPDEST PUSH1 0x0 DUP1 JUMPDEST PUSH2 0x94A DUP4 PUSH2 0x202C JUMP JUMPDEST DUP2 LT ISZERO PUSH2 0x97C JUMPI PUSH2 0x95E PUSH2 0x769 DUP5 DUP4 PUSH2 0x25D8 JUMP JUMPDEST PUSH2 0x968 SWAP1 DUP4 PUSH2 0x5494 JUMP JUMPDEST SWAP2 POP DUP1 PUSH2 0x974 DUP2 PUSH2 0x565C JUMP JUMPDEST SWAP2 POP POP PUSH2 0x941 JUMP JUMPDEST POP SWAP2 SWAP1 POP JUMP JUMPDEST PUSH1 0x0 PUSH2 0x98D DUP3 PUSH2 0x2A62 JUMP JUMPDEST PUSH2 0x9F3 JUMPI PUSH1 0x40 MLOAD PUSH3 0x461BCD PUSH1 0xE5 SHL DUP2 MSTORE PUSH1 0x20 PUSH1 0x4 DUP3 ADD MSTORE PUSH1 0x2C PUSH1 0x24 DUP3 ADD MSTORE PUSH32 0x4552433732313A20617070726F76656420717565727920666F72206E6F6E6578 PUSH1 0x44 DUP3 ADD MSTORE PUSH12 0x34B9BA32B73A103A37B5B2B7 PUSH1 0xA1 SHL PUSH1 0x64 DUP3 ADD MSTORE PUSH1 0x84 ADD JUMPDEST PUSH1 0x40 MLOAD DUP1 SWAP2 SUB SWAP1 REVERT JUMPDEST POP PUSH1 0x0 SWAP1 DUP2 MSTORE PUSH1 0x6 PUSH1 0x20 MSTORE PUSH1 0x40 SWAP1 KECCAK256 SLOAD PUSH1 0x1 PUSH1 0x1 PUSH1 0xA0 SHL SUB AND SWAP1 JUMP JUMPDEST PUSH1 0x0 PUSH2 0xA1A DUP3 PUSH2 0x17F1 JUMP JUMPDEST SWAP1 POP DUP1 PUSH1 0x1 PUSH1 0x1 PUSH1 0xA0 SHL SUB AND DUP4 PUSH1 0x1 PUSH1 0x1 PUSH1 0xA0 SHL SUB AND EQ ISZERO PUSH2 0xA88 JUMPI PUSH1 0x40 MLOAD PUSH3 0x461BCD PUSH1 0xE5 SHL DUP2 MSTORE PUSH1 0x20 PUSH1 0x4 DUP3 ADD MSTORE PUSH1 0x21 PUSH1 0x24 DUP3 ADD MSTORE PUSH32 0x4552433732313A20617070726F76616C20746F2063757272656E74206F776E65 PUSH1 0x44 DUP3 ADD MSTORE PUSH1 0x39 PUSH1 0xF9 SHL PUSH1 0x64 DUP3 ADD MSTORE PUSH1 0x84 ADD PUSH2 0x9EA JUMP JUMPDEST CALLER PUSH1 0x1 PUSH1 0x1 PUSH1 0xA0 SHL SUB DUP3 AND EQ DUP1 PUSH2 0xAA4 JUMPI POP PUSH2 0xAA4 DUP2 CALLER PUSH2 0x2889 JUMP JUMPDEST PUSH2 0xB11 JUMPI PUSH1 0x40 MLOAD PUSH3 0x461BCD PUSH1 0xE5 SHL DUP2 MSTORE PUSH1 0x20 PUSH1 0x4 DUP3 ADD MSTORE PUSH1 0x38 PUSH1 0x24 DUP3 ADD MSTORE PUSH32 0x4552433732313A20617070726F76652063616C6C6572206973206E6F74206F77 PUSH1 0x44 DUP3 ADD MSTORE PUSH24 0x1B995C881B9BDC88185C1C1C9BDD995908199BDC88185B1B PUSH1 0x42 SHL PUSH1 0x64 DUP3 ADD MSTORE PUSH1 0x84 ADD PUSH2 0x9EA JUMP JUMPDEST PUSH2 0xB1B DUP4 DUP4 PUSH2 0x2A7F JUMP JUMPDEST POP POP POP JUMP JUMPDEST PUSH2 0xB2A CALLER DUP3 PUSH2 0x2AED JUMP JUMPDEST PUSH2 0xB46 JUMPI PUSH1 0x40 MLOAD PUSH3 0x461BCD PUSH1 0xE5 SHL DUP2 MSTORE PUSH1 0x4 ADD PUSH2 0x9EA SWAP1 PUSH2 0x53BB JUMP JUMPDEST PUSH2 0xB1B DUP4 DUP4 DUP4 PUSH2 0x2BB7 JUMP JUMPDEST PUSH1 0x0 SWAP1 DUP2 MSTORE PUSH1 0x8 PUSH1 0x20 MSTORE PUSH1 0x40 SWAP1 KECCAK256 PUSH1 0x1 ADD SLOAD SWAP1 JUMP JUMPDEST PUSH1 0x0 SWAP1 DUP2 MSTORE PUSH1 0xA PUSH1 0x20 MSTORE PUSH1 0x40 SWAP1 KECCAK256 SLOAD SWAP1 JUMP JUMPDEST PUSH2 0xB81 DUP3 PUSH2 0xB51 JUMP JUMPDEST PUSH2 0xB8B DUP2 CALLER PUSH2 0x2D50 JUMP JUMPDEST PUSH2 0xB1B DUP4 DUP4 PUSH2 0x2DB4 JUMP JUMPDEST PUSH1 0x1 PUSH1 0x1 PUSH1 0xA0 SHL SUB DUP2 AND CALLER EQ PUSH2 0xC05 JUMPI PUSH1 0x40 MLOAD PUSH3 0x461BCD PUSH1 0xE5 SHL DUP2 MSTORE PUSH1 0x20 PUSH1 0x4 DUP3 ADD MSTORE PUSH1 0x2F PUSH1 0x24 DUP3 ADD MSTORE PUSH32 0x416363657373436F6E74726F6C3A2063616E206F6E6C792072656E6F756E6365 PUSH1 0x44 DUP3 ADD MSTORE PUSH15 0x103937B632B9903337B91039B2B633 PUSH1 0x89 SHL PUSH1 0x64 DUP3 ADD MSTORE PUSH1 0x84 ADD PUSH2 0x9EA JUMP JUMPDEST PUSH2 0xC0F DUP3 DUP3 PUSH2 0x2E3A JUMP JUMPDEST POP POP JUMP JUMPDEST PUSH2 0xC1C DUP3 PUSH2 0x17F1 JUMP JUMPDEST PUSH1 0x1 PUSH1 0x1 PUSH1 0xA0 SHL SUB AND CALLER PUSH1 0x1 PUSH1 0x1 PUSH1 0xA0 SHL SUB AND EQ PUSH2 0xC4C JUMPI PUSH1 0x40 MLOAD PUSH3 0x461BCD PUSH1 0xE5 SHL DUP2 MSTORE PUSH1 0x4 ADD PUSH2 0x9EA SWAP1 PUSH2 0x52DF JUMP JUMPDEST PUSH2 0xB1B DUP4 DUP4 DUP4 PUSH2 0x2EA1 JUMP JUMPDEST PUSH2 0xB1B DUP4 DUP4 DUP4 PUSH1 0x40 MLOAD DUP1 PUSH1 0x20 ADD PUSH1 0x40 MSTORE DUP1 PUSH1 0x0 DUP2 MSTORE POP PUSH2 0x2348 JUMP JUMPDEST PUSH2 0xC7B DUP2 PUSH2 0x17F1 JUMP JUMPDEST PUSH1 0x1 PUSH1 0x1 PUSH1 0xA0 SHL SUB AND CALLER PUSH1 0x1 PUSH1 0x1 PUSH1 0xA0 SHL SUB AND EQ PUSH2 0xCAB JUMPI PUSH1 0x40 MLOAD PUSH3 0x461BCD PUSH1 0xE5 SHL DUP2 MSTORE PUSH1 0x4 ADD PUSH2 0x9EA SWAP1 PUSH2 0x52DF JUMP JUMPDEST PUSH2 0xCB4 DUP2 PUSH2 0x2F66 JUMP JUMPDEST POP JUMP JUMPDEST PUSH2 0xCC0 DUP3 PUSH2 0xDD9 JUMP JUMPDEST PUSH2 0xCF2 JUMPI PUSH1 0x40 MLOAD PUSH3 0x461BCD PUSH1 0xE5 SHL DUP2 MSTORE PUSH1 0x20 PUSH1 0x4 DUP3 ADD MSTORE PUSH1 0x3 PUSH1 0x24 DUP3 ADD MSTORE PUSH3 0x271899 PUSH1 0xE9 SHL PUSH1 0x44 DUP3 ADD MSTORE PUSH1 0x64 ADD PUSH2 0x9EA JUMP JUMPDEST PUSH1 0x0 DUP1 PUSH1 0x0 PUSH2 0xD01 DUP7 DUP6 PUSH2 0x2F7E JUMP JUMPDEST POP SWAP3 POP SWAP3 POP SWAP3 POP PUSH1 0x0 PUSH2 0xD13 DUP7 PUSH2 0x30AB JUMP JUMPDEST SWAP1 POP PUSH2 0xD4F DUP7 DUP3 DUP5 DUP5 PUSH1 0x60 ADD MLOAD PUSH2 0xD2A SWAP2 SWAP1 PUSH2 0x5494 JUMP JUMPDEST DUP8 DUP6 PUSH1 0x40 ADD MLOAD PUSH2 0xD3A SWAP2 SWAP1 PUSH2 0x5494 JUMP JUMPDEST DUP8 DUP7 PUSH1 0x80 ADD MLOAD PUSH2 0xD4A SWAP2 SWAP1 PUSH2 0x5494 JUMP JUMPDEST PUSH2 0x31B0 JUMP JUMPDEST PUSH1 0x1A SLOAD PUSH1 0x60 DUP3 ADD MLOAD PUSH1 0x80 DUP4 ADD MLOAD PUSH1 0x40 MLOAD PUSH4 0x57A5C967 PUSH1 0xE0 SHL DUP2 MSTORE SWAP4 SWAP5 POP PUSH1 0x1 PUSH1 0x1 PUSH1 0xA0 SHL SUB SWAP1 SWAP3 AND SWAP3 PUSH4 0x57A5C967 SWAP3 PUSH2 0xD8F SWAP3 DUP12 SWAP3 SWAP1 SWAP2 SWAP1 PUSH1 0x4 ADD PUSH2 0x547E JUMP JUMPDEST PUSH1 0x0 PUSH1 0x40 MLOAD DUP1 DUP4 SUB DUP2 PUSH1 0x0 DUP8 DUP1 EXTCODESIZE ISZERO DUP1 ISZERO PUSH2 0xDA9 JUMPI PUSH1 0x0 DUP1 REVERT JUMPDEST POP GAS CALL ISZERO DUP1 ISZERO PUSH2 0xDBD JUMPI RETURNDATASIZE PUSH1 0x0 DUP1 RETURNDATACOPY RETURNDATASIZE PUSH1 0x0 REVERT JUMPDEST POP POP POP POP PUSH2 0xDCE DUP10 DUP10 DUP10 DUP10 DUP10 PUSH2 0x31E2 JUMP JUMPDEST POP POP POP POP POP POP POP POP POP JUMP JUMPDEST PUSH1 0x0 PUSH2 0x8A5 DUP3 PUSH2 0x2A62 JUMP JUMPDEST PUSH1 0x0 PUSH1 0x2 PUSH1 0x1 SLOAD EQ ISZERO PUSH2 0xE39 JUMPI PUSH1 0x40 MLOAD PUSH3 0x461BCD PUSH1 0xE5 SHL DUP2 MSTORE PUSH1 0x20 PUSH1 0x4 DUP3 ADD MSTORE PUSH1 0x1F PUSH1 0x24 DUP3 ADD MSTORE PUSH32 0x5265656E7472616E637947756172643A207265656E7472616E742063616C6C00 PUSH1 0x44 DUP3 ADD MSTORE PUSH1 0x64 ADD PUSH2 0x9EA JUMP JUMPDEST PUSH1 0x2 PUSH1 0x1 SSTORE PUSH2 0x12C DUP6 LT ISZERO PUSH2 0xE76 JUMPI PUSH1 0x40 MLOAD PUSH3 0x461BCD PUSH1 0xE5 SHL DUP2 MSTORE PUSH1 0x20 PUSH1 0x4 DUP3 ADD MSTORE PUSH1 0x3 PUSH1 0x24 DUP3 ADD MSTORE PUSH3 0x4F3231 PUSH1 0xE8 SHL PUSH1 0x44 DUP3 ADD MSTORE PUSH1 0x64 ADD PUSH2 0x9EA JUMP JUMPDEST PUSH1 0x1B PUSH1 0x0 SWAP1 SLOAD SWAP1 PUSH2 0x100 EXP SWAP1 DIV PUSH1 0x1 PUSH1 0x1 PUSH1 0xA0 SHL SUB AND PUSH1 0x1 PUSH1 0x1 PUSH1 0xA0 SHL SUB AND PUSH4 0x49B9A67F PUSH1 0x40 MLOAD DUP2 PUSH4 0xFFFFFFFF AND PUSH1 0xE0 SHL DUP2 MSTORE PUSH1 0x4 ADD PUSH1 0x20 PUSH1 0x40 MLOAD DUP1 DUP4 SUB DUP2 DUP7 DUP1 EXTCODESIZE ISZERO DUP1 ISZERO PUSH2 0xEC4 JUMPI PUSH1 0x0 DUP1 REVERT JUMPDEST POP GAS STATICCALL ISZERO DUP1 ISZERO PUSH2 0xED8 JUMPI RETURNDATASIZE PUSH1 0x0 DUP1 RETURNDATACOPY RETURNDATASIZE PUSH1 0x0 REVERT JUMPDEST POP POP POP POP PUSH1 0x40 MLOAD RETURNDATASIZE PUSH1 0x1F NOT PUSH1 0x1F DUP3 ADD AND DUP3 ADD DUP1 PUSH1 0x40 MSTORE POP DUP2 ADD SWAP1 PUSH2 0xEFC SWAP2 SWAP1 PUSH2 0x4F75 JUMP JUMPDEST DUP6 LT PUSH2 0xF30 JUMPI PUSH1 0x40 MLOAD PUSH3 0x461BCD PUSH1 0xE5 SHL DUP2 MSTORE PUSH1 0x20 PUSH1 0x4 DUP3 ADD MSTORE PUSH1 0x3 PUSH1 0x24 DUP3 ADD MSTORE PUSH3 0x13CC8D PUSH1 0xEA SHL PUSH1 0x44 DUP3 ADD MSTORE PUSH1 0x64 ADD PUSH2 0x9EA JUMP JUMPDEST PUSH1 0x2 PUSH2 0xF3E PUSH1 0x12 PUSH1 0xA PUSH2 0x5503 JUMP JUMPDEST PUSH2 0xF48 SWAP2 SWAP1 PUSH2 0x54AC JUMP JUMPDEST DUP7 GT PUSH2 0xF7C JUMPI PUSH1 0x40 MLOAD PUSH3 0x461BCD PUSH1 0xE5 SHL DUP2 MSTORE PUSH1 0x20 PUSH1 0x4 DUP3 ADD MSTORE PUSH1 0x3 PUSH1 0x24 DUP3 ADD MSTORE PUSH3 0x4F3235 PUSH1 0xE8 SHL PUSH1 0x44 DUP3 ADD MSTORE PUSH1 0x64 ADD PUSH2 0x9EA JUMP JUMPDEST PUSH1 0x12 SLOAD PUSH1 0x40 DUP1 MLOAD PUSH4 0xD67AAC1 PUSH1 0xE1 SHL DUP2 MSTORE SWAP1 MLOAD PUSH1 0x0 SWAP3 PUSH1 0x1 PUSH1 0x1 PUSH1 0xA0 SHL SUB AND SWAP2 PUSH4 0x1ACF5582 SWAP2 PUSH1 0x4 DUP1 DUP4 ADD SWAP3 PUSH1 0x20 SWAP3 SWAP2 SWAP1 DUP3 SWAP1 SUB ADD DUP2 DUP7 DUP1 EXTCODESIZE ISZERO DUP1 ISZERO PUSH2 0xFC1 JUMPI PUSH1 0x0 DUP1 REVERT JUMPDEST POP GAS STATICCALL ISZERO DUP1 ISZERO PUSH2 0xFD5 JUMPI RETURNDATASIZE PUSH1 0x0 DUP1 RETURNDATACOPY RETURNDATASIZE PUSH1 0x0 REVERT JUMPDEST POP POP POP POP PUSH1 0x40 MLOAD RETURNDATASIZE PUSH1 0x1F NOT PUSH1 0x1F DUP3 ADD AND DUP3 ADD DUP1 PUSH1 0x40 MSTORE POP DUP2 ADD SWAP1 PUSH2 0xFF9 SWAP2 SWAP1 PUSH2 0x4F75 JUMP JUMPDEST SWAP1 POP PUSH1 0x0 PUSH2 0x1015 DUP8 PUSH2 0x100D PUSH1 0x12 PUSH1 0xA PUSH2 0x5503 JUMP JUMPDEST DUP5 DUP10 DUP10 PUSH2 0x18F2 JUMP JUMPDEST POP POP SWAP1 POP PUSH1 0x0 DUP2 DUP10 PUSH2 0x1027 SWAP2 SWAP1 PUSH2 0x54AC JUMP JUMPDEST NUMBER PUSH1 0x0 SWAP1 DUP2 MSTORE PUSH1 0x19 PUSH1 0x20 SWAP1 DUP2 MSTORE PUSH1 0x40 DUP1 DUP4 KECCAK256 CALLER DUP5 MSTORE SWAP1 SWAP2 MSTORE DUP2 KECCAK256 DUP1 SLOAD SWAP3 SWAP4 POP DUP4 SWAP3 SWAP1 SWAP2 SWAP1 PUSH2 0x1056 SWAP1 DUP5 SWAP1 PUSH2 0x5494 JUMP JUMPDEST SWAP1 SWAP2 SSTORE POP POP PUSH1 0x1A SLOAD PUSH1 0x40 DUP1 MLOAD PUSH4 0xAB2F0E51 PUSH1 0xE0 SHL DUP2 MSTORE SWAP1 MLOAD PUSH1 0x64 SWAP3 PUSH1 0x1 PUSH1 0x1 PUSH1 0xA0 SHL SUB AND SWAP2 PUSH4 0xAB2F0E51 SWAP2 PUSH1 0x4 DUP1 DUP4 ADD SWAP3 PUSH1 0x20 SWAP3 SWAP2 SWAP1 DUP3 SWAP1 SUB ADD DUP2 DUP7 DUP1 EXTCODESIZE ISZERO DUP1 ISZERO PUSH2 0x10A0 JUMPI PUSH1 0x0 DUP1 REVERT JUMPDEST POP GAS STATICCALL ISZERO DUP1 ISZERO PUSH2 0x10B4 JUMPI RETURNDATASIZE PUSH1 0x0 DUP1 RETURNDATACOPY RETURNDATASIZE PUSH1 0x0 REVERT JUMPDEST POP POP POP POP PUSH1 0x40 MLOAD RETURNDATASIZE PUSH1 0x1F NOT PUSH1 0x1F DUP3 ADD AND DUP3 ADD DUP1 PUSH1 0x40 MSTORE POP DUP2 ADD SWAP1 PUSH2 0x10D8 SWAP2 SWAP1 PUSH2 0x4F75 JUMP JUMPDEST PUSH1 0x1B PUSH1 0x0 SWAP1 SLOAD SWAP1 PUSH2 0x100 EXP SWAP1 DIV PUSH1 0x1 PUSH1 0x1 PUSH1 0xA0 SHL SUB AND PUSH1 0x1 PUSH1 0x1 PUSH1 0xA0 SHL SUB AND PUSH4 0x71BF7E25 PUSH1 0x40 MLOAD DUP2 PUSH4 0xFFFFFFFF AND PUSH1 0xE0 SHL DUP2 MSTORE PUSH1 0x4 ADD PUSH1 0x20 PUSH1 0x40 MLOAD DUP1 DUP4 SUB DUP2 DUP7 DUP1 EXTCODESIZE ISZERO DUP1 ISZERO PUSH2 0x1126 JUMPI PUSH1 0x0 DUP1 REVERT JUMPDEST POP GAS STATICCALL ISZERO DUP1 ISZERO PUSH2 0x113A JUMPI RETURNDATASIZE PUSH1 0x0 DUP1 RETURNDATACOPY RETURNDATASIZE PUSH1 0x0 REVERT JUMPDEST POP POP POP POP PUSH1 0x40 MLOAD RETURNDATASIZE PUSH1 0x1F NOT PUSH1 0x1F DUP3 ADD AND DUP3 ADD DUP1 PUSH1 0x40 MSTORE POP DUP2 ADD SWAP1 PUSH2 0x115E SWAP2 SWAP1 PUSH2 0x4F75 JUMP JUMPDEST PUSH2 0x1168 SWAP2 SWAP1 PUSH2 0x55AE JUMP JUMPDEST PUSH2 0x1172 SWAP2 SWAP1 PUSH2 0x54AC JUMP JUMPDEST NUMBER PUSH1 0x0 SWAP1 DUP2 MSTORE PUSH1 0x19 PUSH1 0x20 SWAP1 DUP2 MSTORE PUSH1 0x40 DUP1 DUP4 KECCAK256 CALLER DUP5 MSTORE SWAP1 SWAP2 MSTORE SWAP1 KECCAK256 SLOAD PUSH2 0x1198 SWAP1 DUP4 SWAP1 PUSH2 0x5494 JUMP JUMPDEST LT PUSH2 0x11CB JUMPI PUSH1 0x40 MLOAD PUSH3 0x461BCD PUSH1 0xE5 SHL DUP2 MSTORE PUSH1 0x20 PUSH1 0x4 DUP3 ADD MSTORE PUSH1 0x3 PUSH1 0x24 DUP3 ADD MSTORE PUSH3 0x4F3233 PUSH1 0xE8 SHL PUSH1 0x44 DUP3 ADD MSTORE PUSH1 0x64 ADD PUSH2 0x9EA JUMP JUMPDEST PUSH1 0x5 PUSH2 0x11D7 DUP10 DUP4 PUSH2 0x55AE JUMP JUMPDEST PUSH2 0x11E1 SWAP2 SWAP1 PUSH2 0x55AE JUMP JUMPDEST PUSH2 0x11EF DUP11 PUSH4 0x1E13380 PUSH2 0x55AE JUMP JUMPDEST PUSH2 0x11FA SWAP1 PUSH1 0x64 PUSH2 0x55AE JUMP JUMPDEST GT PUSH2 0x122C JUMPI PUSH1 0x40 MLOAD PUSH3 0x461BCD PUSH1 0xE5 SHL DUP2 MSTORE PUSH1 0x20 PUSH1 0x4 DUP3 ADD MSTORE PUSH1 0x2 PUSH1 0x24 DUP3 ADD MSTORE PUSH2 0x2799 PUSH1 0xF1 SHL PUSH1 0x44 DUP3 ADD MSTORE PUSH1 0x64 ADD PUSH2 0x9EA JUMP JUMPDEST PUSH1 0x10 SLOAD PUSH1 0x40 MLOAD PUSH4 0x23B872DD PUSH1 0xE0 SHL DUP2 MSTORE CALLER PUSH1 0x4 DUP3 ADD MSTORE ADDRESS PUSH1 0x24 DUP3 ADD MSTORE PUSH1 0x44 DUP2 ADD DUP12 SWAP1 MSTORE PUSH1 0x1 PUSH1 0x1 PUSH1 0xA0 SHL SUB SWAP1 SWAP2 AND SWAP1 PUSH4 0x23B872DD SWAP1 PUSH1 0x64 ADD PUSH1 0x20 PUSH1 0x40 MLOAD DUP1 DUP4 SUB DUP2 PUSH1 0x0 DUP8 DUP1 EXTCODESIZE ISZERO DUP1 ISZERO PUSH2 0x127E JUMPI PUSH1 0x0 DUP1 REVERT JUMPDEST POP GAS CALL ISZERO DUP1 ISZERO PUSH2 0x1292 JUMPI RETURNDATASIZE PUSH1 0x0 DUP1 RETURNDATACOPY RETURNDATASIZE PUSH1 0x0 REVERT JUMPDEST POP POP POP POP PUSH1 0x40 MLOAD RETURNDATASIZE PUSH1 0x1F NOT PUSH1 0x1F DUP3 ADD AND DUP3 ADD DUP1 PUSH1 0x40 MSTORE POP DUP2 ADD SWAP1 PUSH2 0x12B6 SWAP2 SWAP1 PUSH2 0x4EE5 JUMP JUMPDEST POP PUSH1 0x1 DUP8 ISZERO ISZERO DUP2 EQ DUP1 ISZERO PUSH2 0x12CC JUMPI POP PUSH1 0x1 DUP8 ISZERO ISZERO EQ JUMPDEST DUP1 PUSH2 0x12DE JUMPI POP DUP8 ISZERO DUP1 ISZERO PUSH2 0x12DE JUMPI POP DUP7 ISZERO JUMPDEST ISZERO PUSH2 0x12E7 JUMPI POP PUSH1 0x2 JUMPDEST PUSH1 0x40 DUP1 MLOAD PUSH2 0x120 DUP2 ADD SWAP1 SWAP2 MSTORE PUSH1 0x0 SWAP1 DUP1 PUSH1 0x1 DUP2 MSTORE PUSH1 0x20 ADD DUP7 DUP2 MSTORE PUSH1 0x20 ADD DUP5 DUP2 MSTORE PUSH1 0x20 ADD DUP5 DUP2 MSTORE PUSH1 0x20 ADD PUSH1 0x2 PUSH2 0x131A PUSH1 0x12 SWAP1 JUMP JUMPDEST PUSH2 0x1325 SWAP1 PUSH1 0xA PUSH2 0x5503 JUMP JUMPDEST PUSH2 0x132F SWAP2 SWAP1 PUSH2 0x54AC JUMP JUMPDEST DUP2 MSTORE PUSH1 0x20 ADD PUSH2 0x133E DUP13 TIMESTAMP PUSH2 0x5494 JUMP JUMPDEST DUP2 MSTORE PUSH1 0x20 ADD DUP4 PUSH1 0x2 DUP2 GT ISZERO PUSH2 0x1363 JUMPI PUSH4 0x4E487B71 PUSH1 0xE0 SHL PUSH1 0x0 MSTORE PUSH1 0x21 PUSH1 0x4 MSTORE PUSH1 0x24 PUSH1 0x0 REVERT JUMPDEST DUP2 MSTORE PUSH1 0x20 ADD DUP13 DUP2 MSTORE PUSH1 0x20 ADD TIMESTAMP DUP2 MSTORE POP SWAP1 POP PUSH2 0x137C PUSH2 0x3428 JUMP JUMPDEST PUSH1 0x40 DUP1 MLOAD DUP1 DUP3 ADD DUP3 MSTORE DUP12 ISZERO ISZERO DUP2 MSTORE DUP11 ISZERO ISZERO PUSH1 0x20 DUP1 DUP4 ADD SWAP2 DUP3 MSTORE PUSH1 0x0 DUP6 DUP2 MSTORE PUSH1 0x17 DUP3 MSTORE DUP5 DUP2 KECCAK256 SWAP4 MLOAD DUP5 SLOAD SWAP4 MLOAD PUSH2 0xFFFF NOT SWAP1 SWAP5 AND SWAP1 ISZERO ISZERO PUSH2 0xFF00 NOT AND OR PUSH2 0x100 SWAP4 ISZERO ISZERO SWAP4 SWAP1 SWAP4 MUL SWAP3 SWAP1 SWAP3 OR SWAP1 SWAP3 SSTORE CALLER DUP1 DUP3 MSTORE PUSH1 0x15 DUP4 MSTORE DUP4 DUP3 KECCAK256 DUP1 SLOAD PUSH1 0x1 DUP2 DUP2 ADD DUP4 SSTORE DUP3 DUP6 MSTORE DUP6 DUP6 KECCAK256 SWAP1 SWAP2 ADD DUP8 SWAP1 SSTORE SWAP2 DUP4 MSTORE SLOAD PUSH1 0x16 DUP5 MSTORE DUP5 DUP4 KECCAK256 SSTORE DUP5 DUP3 MSTORE PUSH1 0x14 SWAP1 SWAP3 MSTORE SWAP2 SWAP1 SWAP2 KECCAK256 DUP4 MLOAD DUP2 SLOAD SWAP4 SWAP10 POP DUP5 SWAP4 SWAP2 SWAP3 SWAP1 SWAP2 DUP4 SWAP2 PUSH1 0xFF NOT SWAP1 SWAP2 AND SWAP1 DUP4 PUSH1 0x3 DUP2 GT ISZERO PUSH2 0x1436 JUMPI PUSH4 0x4E487B71 PUSH1 0xE0 SHL PUSH1 0x0 MSTORE PUSH1 0x21 PUSH1 0x4 MSTORE PUSH1 0x24 PUSH1 0x0 REVERT JUMPDEST MUL OR SWAP1 SSTORE POP PUSH1 0x20 DUP3 ADD MLOAD DUP2 PUSH1 0x1 ADD SSTORE PUSH1 0x40 DUP3 ADD MLOAD DUP2 PUSH1 0x2 ADD SSTORE PUSH1 0x60 DUP3 ADD MLOAD DUP2 PUSH1 0x3 ADD SSTORE PUSH1 0x80 DUP3 ADD MLOAD DUP2 PUSH1 0x4 ADD SSTORE PUSH1 0xA0 DUP3 ADD MLOAD DUP2 PUSH1 0x5 ADD SSTORE PUSH1 0xC0 DUP3 ADD MLOAD DUP2 PUSH1 0x6 ADD PUSH1 0x0 PUSH2 0x100 EXP DUP2 SLOAD DUP2 PUSH1 0xFF MUL NOT AND SWAP1 DUP4 PUSH1 0x2 DUP2 GT ISZERO PUSH2 0x14A5 JUMPI PUSH4 0x4E487B71 PUSH1 0xE0 SHL PUSH1 0x0 MSTORE PUSH1 0x21 PUSH1 0x4 MSTORE PUSH1 0x24 PUSH1 0x0 REVERT JUMPDEST MUL OR SWAP1 SSTORE POP PUSH1 0xE0 DUP3 ADD MLOAD DUP2 PUSH1 0x7 ADD SSTORE PUSH2 0x100 DUP3 ADD MLOAD DUP2 PUSH1 0x8 ADD SSTORE SWAP1 POP POP PUSH2 0x14E0 DUP7 CALLER PUSH2 0x14DB DUP10 DUP6 PUSH1 0x20 ADD MLOAD DUP7 PUSH1 0xA0 ADD MLOAD DUP9 PUSH2 0x3442 JUMP JUMPDEST PUSH2 0x3580 JUMP JUMPDEST PUSH1 0x0 PUSH2 0x14FB DUP3 PUSH1 0x80 ADD MLOAD DUP14 PUSH2 0x14F5 SWAP2 SWAP1 PUSH2 0x55CD JUMP JUMPDEST DUP10 PUSH2 0x35A3 JUMP JUMPDEST SWAP1 POP PUSH2 0x1510 DUP8 DUP4 PUSH1 0x60 ADD MLOAD DUP5 PUSH1 0x80 ADD MLOAD PUSH2 0x3A64 JUMP JUMPDEST CALLER PUSH1 0x1 PUSH1 0x1 PUSH1 0xA0 SHL SUB AND DUP8 PUSH32 0x9ACCCF962DA4ED9C3DB3A1BEEDB70B0D4C3F6A69C170BACA7198A74548B5EF4E DUP4 DUP16 PUSH1 0x40 MLOAD PUSH2 0x154C SWAP3 SWAP2 SWAP1 PUSH2 0x52BE JUMP JUMPDEST PUSH1 0x40 MLOAD DUP1 SWAP2 SUB SWAP1 LOG3 POP POP PUSH1 0x1 DUP1 SSTORE POP SWAP3 SWAP9 SWAP8 POP POP POP POP POP POP POP POP JUMP JUMPDEST PUSH1 0x0 DUP2 DUP2 MSTORE PUSH1 0x14 PUSH1 0x20 MSTORE PUSH1 0x40 SWAP1 KECCAK256 PUSH1 0x5 DUP2 ADD SLOAD TIMESTAMP LT ISZERO PUSH2 0x159A JUMPI PUSH1 0x40 MLOAD PUSH3 0x461BCD PUSH1 0xE5 SHL DUP2 MSTORE PUSH1 0x4 ADD PUSH2 0x9EA SWAP1 PUSH2 0x540C JUMP JUMPDEST PUSH1 0x1 DUP2 SLOAD PUSH1 0xFF AND PUSH1 0x3 DUP2 GT ISZERO PUSH2 0x15C0 JUMPI PUSH4 0x4E487B71 PUSH1 0xE0 SHL PUSH1 0x0 MSTORE PUSH1 0x21 PUSH1 0x4 MSTORE PUSH1 0x24 PUSH1 0x0 REVERT JUMPDEST EQ PUSH2 0x15F2 JUMPI PUSH1 0x40 MLOAD PUSH3 0x461BCD PUSH1 0xE5 SHL DUP2 MSTORE PUSH1 0x20 PUSH1 0x4 DUP3 ADD MSTORE PUSH1 0x2 PUSH1 0x24 DUP3 ADD MSTORE PUSH2 0x4F35 PUSH1 0xF0 SHL PUSH1 0x44 DUP3 ADD MSTORE PUSH1 0x64 ADD PUSH2 0x9EA JUMP JUMPDEST PUSH1 0x5 DUP2 ADD SLOAD PUSH1 0x0 SWAP1 DUP2 MSTORE PUSH1 0x18 PUSH1 0x20 MSTORE PUSH1 0x40 SWAP1 KECCAK256 SLOAD DUP1 PUSH2 0x1623 JUMPI PUSH1 0x40 MLOAD PUSH3 0x461BCD PUSH1 0xE5 SHL DUP2 MSTORE PUSH1 0x4 ADD PUSH2 0x9EA SWAP1 PUSH2 0x534D JUMP JUMPDEST PUSH1 0x12 SLOAD PUSH1 0x40 MLOAD PUSH4 0x3906D29 PUSH1 0xE1 SHL DUP2 MSTORE PUSH1 0x4 DUP2 ADD DUP4 SWAP1 MSTORE PUSH1 0x0 SWAP2 PUSH1 0x1 PUSH1 0x1 PUSH1 0xA0 SHL SUB AND SWAP1 PUSH4 0x720DA52 SWAP1 PUSH1 0x24 ADD PUSH1 0xA0 PUSH1 0x40 MLOAD DUP1 DUP4 SUB DUP2 DUP7 DUP1 EXTCODESIZE ISZERO DUP1 ISZERO PUSH2 0x1668 JUMPI PUSH1 0x0 DUP1 REVERT JUMPDEST POP GAS STATICCALL ISZERO DUP1 ISZERO PUSH2 0x167C JUMPI RETURNDATASIZE PUSH1 0x0 DUP1 RETURNDATACOPY RETURNDATASIZE PUSH1 0x0 REVERT JUMPDEST POP POP POP POP PUSH1 0x40 MLOAD RETURNDATASIZE PUSH1 0x1F NOT PUSH1 0x1F DUP3 ADD AND DUP3 ADD DUP1 PUSH1 0x40 MSTORE POP DUP2 ADD SWAP1 PUSH2 0x16A0 SWAP2 SWAP1 PUSH2 0x509C JUMP JUMPDEST POP SWAP2 SWAP4 POP PUSH1 0x2 SWAP3 POP PUSH2 0x16B0 SWAP2 POP POP JUMP JUMPDEST PUSH1 0x6 DUP5 ADD SLOAD PUSH1 0xFF AND PUSH1 0x2 DUP2 GT ISZERO PUSH2 0x16D7 JUMPI PUSH4 0x4E487B71 PUSH1 0xE0 SHL PUSH1 0x0 MSTORE PUSH1 0x21 PUSH1 0x4 MSTORE PUSH1 0x24 PUSH1 0x0 REVERT JUMPDEST EQ DUP1 ISZERO PUSH2 0x16E7 JUMPI POP DUP3 PUSH1 0x1 ADD SLOAD DUP2 GT JUMPDEST DUP1 PUSH2 0x1726 JUMPI POP PUSH1 0x1 PUSH1 0x6 DUP5 ADD SLOAD PUSH1 0xFF AND PUSH1 0x2 DUP2 GT ISZERO PUSH2 0x1716 JUMPI PUSH4 0x4E487B71 PUSH1 0xE0 SHL PUSH1 0x0 MSTORE PUSH1 0x21 PUSH1 0x4 MSTORE PUSH1 0x24 PUSH1 0x0 REVERT JUMPDEST EQ DUP1 ISZERO PUSH2 0x1726 JUMPI POP DUP3 PUSH1 0x1 ADD SLOAD DUP2 LT JUMPDEST ISZERO PUSH2 0x173A JUMPI PUSH2 0x1734 DUP5 PUSH2 0x2043 JUMP JUMPDEST POP PUSH2 0x17EB JUMP JUMPDEST DUP3 SLOAD PUSH1 0xFF NOT AND PUSH1 0x3 OR DUP4 SSTORE PUSH1 0x1A SLOAD PUSH1 0x40 MLOAD PUSH4 0x6198E339 PUSH1 0xE0 SHL DUP2 MSTORE PUSH1 0x4 DUP2 ADD DUP7 SWAP1 MSTORE PUSH1 0x1 PUSH1 0x1 PUSH1 0xA0 SHL SUB SWAP1 SWAP2 AND SWAP1 PUSH4 0x6198E339 SWAP1 PUSH1 0x24 ADD PUSH1 0x0 PUSH1 0x40 MLOAD DUP1 DUP4 SUB DUP2 PUSH1 0x0 DUP8 DUP1 EXTCODESIZE ISZERO DUP1 ISZERO PUSH2 0x178B JUMPI PUSH1 0x0 DUP1 REVERT JUMPDEST POP GAS CALL ISZERO DUP1 ISZERO PUSH2 0x179F JUMPI RETURNDATASIZE PUSH1 0x0 DUP1 RETURNDATACOPY RETURNDATASIZE PUSH1 0x0 REVERT JUMPDEST POP POP POP POP PUSH2 0x17AC DUP5 PUSH2 0x2F66 JUMP JUMPDEST DUP4 PUSH32 0x5F36A4A575E512EB69D6D28C3B0FF98CCA7BA50AD5BF04E14094AD1D425E0D31 DUP5 PUSH1 0x4 ADD SLOAD PUSH1 0x40 MLOAD PUSH2 0x17E2 SWAP2 DUP2 MSTORE PUSH1 0x20 ADD SWAP1 JUMP JUMPDEST PUSH1 0x40 MLOAD DUP1 SWAP2 SUB SWAP1 LOG2 JUMPDEST POP POP POP POP JUMP JUMPDEST PUSH1 0x0 DUP2 DUP2 MSTORE PUSH1 0x4 PUSH1 0x20 MSTORE PUSH1 0x40 DUP2 KECCAK256 SLOAD PUSH1 0x1 PUSH1 0x1 PUSH1 0xA0 SHL SUB AND DUP1 PUSH2 0x8A5 JUMPI PUSH1 0x40 MLOAD PUSH3 0x461BCD PUSH1 0xE5 SHL DUP2 MSTORE PUSH1 0x20 PUSH1 0x4 DUP3 ADD MSTORE PUSH1 0x29 PUSH1 0x24 DUP3 ADD MSTORE PUSH32 0x4552433732313A206F776E657220717565727920666F72206E6F6E6578697374 PUSH1 0x44 DUP3 ADD MSTORE PUSH9 0x32B73A103A37B5B2B7 PUSH1 0xB9 SHL PUSH1 0x64 DUP3 ADD MSTORE PUSH1 0x84 ADD PUSH2 0x9EA JUMP JUMPDEST PUSH1 0x10 SLOAD PUSH1 0x1A SLOAD PUSH1 0x40 MLOAD PUSH4 0x95EA7B3 PUSH1 0xE0 SHL DUP2 MSTORE PUSH1 0x1 PUSH1 0x1 PUSH1 0xA0 SHL SUB SWAP3 DUP4 AND SWAP3 PUSH4 0x95EA7B3 SWAP3 PUSH2 0x18A0 SWAP3 SWAP2 AND SWAP1 PUSH1 0x0 NOT SWAP1 PUSH1 0x4 ADD PUSH2 0x5206 JUMP JUMPDEST PUSH1 0x20 PUSH1 0x40 MLOAD DUP1 DUP4 SUB DUP2 PUSH1 0x0 DUP8 DUP1 EXTCODESIZE ISZERO DUP1 ISZERO PUSH2 0x18BA JUMPI PUSH1 0x0 DUP1 REVERT JUMPDEST POP GAS CALL ISZERO DUP1 ISZERO PUSH2 0x18CE JUMPI RETURNDATASIZE PUSH1 0x0 DUP1 RETURNDATACOPY RETURNDATASIZE PUSH1 0x0 REVERT JUMPDEST POP POP POP POP PUSH1 0x40 MLOAD RETURNDATASIZE PUSH1 0x1F NOT PUSH1 0x1F DUP3 ADD AND DUP3 ADD DUP1 PUSH1 0x40 MSTORE POP DUP2 ADD SWAP1 PUSH2 0xCB4 SWAP2 SWAP1 PUSH2 0x4EE5 JUMP JUMPDEST PUSH1 0x0 DUP1 PUSH1 0x0 DUP1 PUSH1 0x12 PUSH1 0x0 SWAP1 SLOAD SWAP1 PUSH2 0x100 EXP SWAP1 DIV PUSH1 0x1 PUSH1 0x1 PUSH1 0xA0 SHL SUB AND PUSH1 0x1 PUSH1 0x1 PUSH1 0xA0 SHL SUB AND PUSH4 0x1ACF5582 PUSH1 0x40 MLOAD DUP2 PUSH4 0xFFFFFFFF AND PUSH1 0xE0 SHL DUP2 MSTORE PUSH1 0x4 ADD PUSH1 0x20 PUSH1 0x40 MLOAD DUP1 DUP4 SUB DUP2 DUP7 DUP1 EXTCODESIZE ISZERO DUP1 ISZERO PUSH2 0x1946 JUMPI PUSH1 0x0 DUP1 REVERT JUMPDEST POP GAS STATICCALL ISZERO DUP1 ISZERO PUSH2 0x195A JUMPI RETURNDATASIZE PUSH1 0x0 DUP1 RETURNDATACOPY RETURNDATASIZE PUSH1 0x0 REVERT JUMPDEST POP POP POP POP PUSH1 0x40 MLOAD RETURNDATASIZE PUSH1 0x1F NOT PUSH1 0x1F DUP3 ADD AND DUP3 ADD DUP1 PUSH1 0x40 MSTORE POP DUP2 ADD SWAP1 PUSH2 0x197E SWAP2 SWAP1 PUSH2 0x4F75 JUMP JUMPDEST SWAP1 POP PUSH1 0x2 PUSH2 0x198E PUSH1 0x12 PUSH1 0xA PUSH2 0x5503 JUMP JUMPDEST PUSH2 0x1998 SWAP2 SWAP1 PUSH2 0x54AC JUMP JUMPDEST SWAP2 POP PUSH1 0x1B PUSH1 0x0 SWAP1 SLOAD SWAP1 PUSH2 0x100 EXP SWAP1 DIV PUSH1 0x1 PUSH1 0x1 PUSH1 0xA0 SHL SUB AND PUSH1 0x1 PUSH1 0x1 PUSH1 0xA0 SHL SUB AND PUSH4 0xF3FA3495 PUSH1 0x40 MLOAD DUP2 PUSH4 0xFFFFFFFF AND PUSH1 0xE0 SHL DUP2 MSTORE PUSH1 0x4 ADD PUSH1 0x20 PUSH1 0x40 MLOAD DUP1 DUP4 SUB DUP2 DUP7 DUP1 EXTCODESIZE ISZERO DUP1 ISZERO PUSH2 0x19E8 JUMPI PUSH1 0x0 DUP1 REVERT JUMPDEST POP GAS STATICCALL ISZERO DUP1 ISZERO PUSH2 0x19FC JUMPI RETURNDATASIZE PUSH1 0x0 DUP1 RETURNDATACOPY RETURNDATASIZE PUSH1 0x0 REVERT JUMPDEST POP POP POP POP PUSH1 0x40 MLOAD RETURNDATASIZE PUSH1 0x1F NOT PUSH1 0x1F DUP3 ADD AND DUP3 ADD DUP1 PUSH1 0x40 MSTORE POP DUP2 ADD SWAP1 PUSH2 0x1A20 SWAP2 SWAP1 PUSH2 0x4F75 JUMP JUMPDEST PUSH2 0x1A2C SWAP1 PUSH2 0x2710 PUSH2 0x55CD JUMP JUMPDEST PUSH2 0x1A38 DUP4 PUSH2 0x2710 PUSH2 0x55AE JUMP JUMPDEST PUSH2 0x1A42 SWAP2 SWAP1 PUSH2 0x54AC JUMP JUMPDEST SWAP4 POP PUSH2 0x1A4E DUP3 DUP6 PUSH2 0x55CD JUMP JUMPDEST SWAP3 POP POP SWAP6 POP SWAP6 POP SWAP6 SWAP3 POP POP POP JUMP JUMPDEST PUSH1 0x60 DUP2 PUSH2 0x1A90 JUMPI PUSH1 0x40 MLOAD PUSH3 0x461BCD PUSH1 0xE5 SHL DUP2 MSTORE PUSH1 0x20 PUSH1 0x4 DUP3 ADD MSTORE PUSH1 0x2 PUSH1 0x24 DUP3 ADD MSTORE PUSH2 0x4E31 PUSH1 0xF0 SHL PUSH1 0x44 DUP3 ADD MSTORE PUSH1 0x64 ADD PUSH2 0x9EA JUMP JUMPDEST DUP2 PUSH1 0x1 PUSH1 0x1 PUSH1 0x40 SHL SUB DUP2 GT ISZERO PUSH2 0x1AB6 JUMPI PUSH4 0x4E487B71 PUSH1 0xE0 SHL PUSH1 0x0 MSTORE PUSH1 0x41 PUSH1 0x4 MSTORE PUSH1 0x24 PUSH1 0x0 REVERT JUMPDEST PUSH1 0x40 MLOAD SWAP1 DUP1 DUP3 MSTORE DUP1 PUSH1 0x20 MUL PUSH1 0x20 ADD DUP3 ADD PUSH1 0x40 MSTORE DUP1 ISZERO PUSH2 0x1ADF JUMPI DUP2 PUSH1 0x20 ADD PUSH1 0x20 DUP3 MUL DUP1 CALLDATASIZE DUP4 CALLDATACOPY ADD SWAP1 POP JUMPDEST POP SWAP1 POP PUSH1 0x0 PUSH2 0x1AED DUP6 PUSH2 0x30AB JUMP JUMPDEST SWAP1 POP PUSH1 0x0 PUSH2 0x1AFA DUP7 PUSH2 0x258A JUMP JUMPDEST SWAP1 POP PUSH1 0x0 DUP1 DUP1 DUP1 JUMPDEST DUP8 DUP2 LT ISZERO PUSH2 0x1D1F JUMPI PUSH1 0x0 PUSH2 0x1B14 PUSH2 0x3428 JUMP JUMPDEST SWAP1 POP DUP1 DUP9 DUP4 DUP2 MLOAD DUP2 LT PUSH2 0x1B37 JUMPI PUSH4 0x4E487B71 PUSH1 0xE0 SHL PUSH1 0x0 MSTORE PUSH1 0x32 PUSH1 0x4 MSTORE PUSH1 0x24 PUSH1 0x0 REVERT JUMPDEST PUSH1 0x20 MUL PUSH1 0x20 ADD ADD DUP2 DUP2 MSTORE POP POP PUSH2 0x1B74 DUP12 DUP3 DUP13 DUP13 DUP7 DUP2 DUP2 LT PUSH2 0x1B68 JUMPI PUSH4 0x4E487B71 PUSH1 0xE0 SHL PUSH1 0x0 MSTORE PUSH1 0x32 PUSH1 0x4 MSTORE PUSH1 0x24 PUSH1 0x0 REVERT JUMPDEST SWAP1 POP PUSH1 0x20 MUL ADD CALLDATALOAD PUSH2 0x3ACF JUMP JUMPDEST PUSH1 0x0 DUP7 DUP12 DUP12 DUP6 DUP2 DUP2 LT PUSH2 0x1B97 JUMPI PUSH4 0x4E487B71 PUSH1 0xE0 SHL PUSH1 0x0 MSTORE PUSH1 0x32 PUSH1 0x4 MSTORE PUSH1 0x24 PUSH1 0x0 REVERT JUMPDEST SWAP1 POP PUSH1 0x20 MUL ADD CALLDATALOAD DUP10 PUSH1 0x40 ADD MLOAD PUSH2 0x1BAD SWAP2 SWAP1 PUSH2 0x55AE JUMP JUMPDEST PUSH2 0x1BB7 SWAP2 SWAP1 PUSH2 0x54AC JUMP JUMPDEST SWAP1 POP PUSH2 0x1BC3 DUP2 DUP8 PUSH2 0x5494 JUMP JUMPDEST SWAP6 POP PUSH1 0x0 DUP8 DUP13 DUP13 DUP7 DUP2 DUP2 LT PUSH2 0x1BE8 JUMPI PUSH4 0x4E487B71 PUSH1 0xE0 SHL PUSH1 0x0 MSTORE PUSH1 0x32 PUSH1 0x4 MSTORE PUSH1 0x24 PUSH1 0x0 REVERT JUMPDEST SWAP1 POP PUSH1 0x20 MUL ADD CALLDATALOAD DUP11 PUSH1 0x60 ADD MLOAD PUSH2 0x1BFE SWAP2 SWAP1 PUSH2 0x55AE JUMP JUMPDEST PUSH2 0x1C08 SWAP2 SWAP1 PUSH2 0x54AC JUMP JUMPDEST SWAP1 POP PUSH2 0x1C14 DUP2 DUP8 PUSH2 0x5494 JUMP JUMPDEST SWAP6 POP PUSH1 0x0 DUP9 DUP14 DUP14 DUP8 DUP2 DUP2 LT PUSH2 0x1C39 JUMPI PUSH4 0x4E487B71 PUSH1 0xE0 SHL PUSH1 0x0 MSTORE PUSH1 0x32 PUSH1 0x4 MSTORE PUSH1 0x24 PUSH1 0x0 REVERT JUMPDEST SWAP1 POP PUSH1 0x20 MUL ADD CALLDATALOAD DUP12 PUSH1 0x80 ADD MLOAD PUSH2 0x1C4F SWAP2 SWAP1 PUSH2 0x55AE JUMP JUMPDEST PUSH2 0x1C59 SWAP2 SWAP1 PUSH2 0x54AC JUMP JUMPDEST SWAP1 POP PUSH2 0x1C65 DUP2 DUP8 PUSH2 0x5494 JUMP JUMPDEST SWAP6 POP PUSH1 0x0 PUSH1 0x40 MLOAD DUP1 PUSH2 0x120 ADD PUSH1 0x40 MSTORE DUP1 DUP13 PUSH1 0x0 ADD MLOAD PUSH1 0x3 DUP2 GT ISZERO PUSH2 0x1C99 JUMPI PUSH4 0x4E487B71 PUSH1 0xE0 SHL PUSH1 0x0 MSTORE PUSH1 0x21 PUSH1 0x4 MSTORE PUSH1 0x24 PUSH1 0x0 REVERT JUMPDEST DUP2 MSTORE PUSH1 0x20 ADD DUP13 PUSH1 0x20 ADD MLOAD DUP2 MSTORE PUSH1 0x20 ADD DUP6 DUP2 MSTORE PUSH1 0x20 ADD DUP5 DUP2 MSTORE PUSH1 0x20 ADD DUP4 DUP2 MSTORE PUSH1 0x20 ADD DUP13 PUSH1 0xA0 ADD MLOAD DUP2 MSTORE PUSH1 0x20 ADD DUP13 PUSH1 0xC0 ADD MLOAD PUSH1 0x2 DUP2 GT ISZERO PUSH2 0x1CE8 JUMPI PUSH4 0x4E487B71 PUSH1 0xE0 SHL PUSH1 0x0 MSTORE PUSH1 0x21 PUSH1 0x4 MSTORE PUSH1 0x24 PUSH1 0x0 REVERT JUMPDEST DUP2 MSTORE PUSH1 0x20 ADD DUP13 PUSH1 0xE0 ADD MLOAD DUP2 MSTORE PUSH1 0x20 ADD TIMESTAMP DUP2 MSTORE POP SWAP1 POP PUSH2 0x1D07 DUP6 DUP3 PUSH2 0x3BF9 JUMP JUMPDEST POP POP POP POP POP DUP1 DUP1 PUSH2 0x1D17 SWAP1 PUSH2 0x565C JUMP JUMPDEST SWAP2 POP POP PUSH2 0x1B02 JUMP JUMPDEST POP PUSH2 0x1D55 DUP10 DUP7 DUP5 DUP9 PUSH1 0x60 ADD MLOAD PUSH2 0x1D35 SWAP2 SWAP1 PUSH2 0x55CD JUMP JUMPDEST DUP7 DUP10 PUSH1 0x40 ADD MLOAD PUSH2 0x1D45 SWAP2 SWAP1 PUSH2 0x55CD JUMP JUMPDEST DUP6 DUP11 PUSH1 0x80 ADD MLOAD PUSH2 0xD4A SWAP2 SWAP1 PUSH2 0x55CD JUMP JUMPDEST PUSH1 0x1A SLOAD PUSH1 0x60 DUP3 ADD MLOAD PUSH1 0x80 DUP4 ADD MLOAD PUSH1 0x40 MLOAD PUSH4 0x57A5C967 PUSH1 0xE0 SHL DUP2 MSTORE SWAP4 SWAP9 POP PUSH1 0x1 PUSH1 0x1 PUSH1 0xA0 SHL SUB SWAP1 SWAP3 AND SWAP3 PUSH4 0x57A5C967 SWAP3 PUSH2 0x1D95 SWAP3 DUP15 SWAP3 SWAP1 SWAP2 SWAP1 PUSH1 0x4 ADD PUSH2 0x547E JUMP JUMPDEST PUSH1 0x0 PUSH1 0x40 MLOAD DUP1 DUP4 SUB DUP2 PUSH1 0x0 DUP8 DUP1 EXTCODESIZE ISZERO DUP1 ISZERO PUSH2 0x1DAF JUMPI PUSH1 0x0 DUP1 REVERT JUMPDEST POP GAS CALL ISZERO DUP1 ISZERO PUSH2 0x1DC3 JUMPI RETURNDATASIZE PUSH1 0x0 DUP1 RETURNDATACOPY RETURNDATASIZE PUSH1 0x0 REVERT JUMPDEST POP POP POP POP PUSH1 0x0 JUMPDEST DUP8 DUP2 LT ISZERO PUSH2 0x1E53 JUMPI PUSH1 0x0 PUSH2 0x1E04 DUP9 DUP4 DUP2 MLOAD DUP2 LT PUSH2 0x1DF7 JUMPI PUSH4 0x4E487B71 PUSH1 0xE0 SHL PUSH1 0x0 MSTORE PUSH1 0x32 PUSH1 0x4 MSTORE PUSH1 0x24 PUSH1 0x0 REVERT JUMPDEST PUSH1 0x20 MUL PUSH1 0x20 ADD ADD MLOAD PUSH2 0x30AB JUMP JUMPDEST SWAP1 POP PUSH2 0x1E40 DUP9 DUP4 DUP2 MLOAD DUP2 LT PUSH2 0x1E29 JUMPI PUSH4 0x4E487B71 PUSH1 0xE0 SHL PUSH1 0x0 MSTORE PUSH1 0x32 PUSH1 0x4 MSTORE PUSH1 0x24 PUSH1 0x0 REVERT JUMPDEST PUSH1 0x20 MUL PUSH1 0x20 ADD ADD MLOAD DUP3 PUSH1 0x60 ADD MLOAD DUP4 PUSH1 0x80 ADD MLOAD PUSH2 0x3A64 JUMP JUMPDEST POP DUP1 PUSH2 0x1E4B DUP2 PUSH2 0x565C JUMP JUMPDEST SWAP2 POP POP PUSH2 0x1DCA JUMP JUMPDEST POP POP POP POP POP POP SWAP4 SWAP3 POP POP POP JUMP JUMPDEST PUSH1 0x0 PUSH1 0x1 PUSH1 0x1 PUSH1 0xA0 SHL SUB DUP3 AND PUSH2 0x1ECB JUMPI PUSH1 0x40 MLOAD PUSH3 0x461BCD PUSH1 0xE5 SHL DUP2 MSTORE PUSH1 0x20 PUSH1 0x4 DUP3 ADD MSTORE PUSH1 0x2A PUSH1 0x24 DUP3 ADD MSTORE PUSH32 0x4552433732313A2062616C616E636520717565727920666F7220746865207A65 PUSH1 0x44 DUP3 ADD MSTORE PUSH10 0x726F2061646472657373 PUSH1 0xB0 SHL PUSH1 0x64 DUP3 ADD MSTORE PUSH1 0x84 ADD PUSH2 0x9EA JUMP JUMPDEST POP PUSH1 0x1 PUSH1 0x1 PUSH1 0xA0 SHL SUB AND PUSH1 0x0 SWAP1 DUP2 MSTORE PUSH1 0x5 PUSH1 0x20 MSTORE PUSH1 0x40 SWAP1 KECCAK256 SLOAD SWAP1 JUMP JUMPDEST CALLER PUSH2 0x1EF0 PUSH2 0x1F22 JUMP JUMPDEST PUSH1 0x1 PUSH1 0x1 PUSH1 0xA0 SHL SUB AND EQ PUSH2 0x1F16 JUMPI PUSH1 0x40 MLOAD PUSH3 0x461BCD PUSH1 0xE5 SHL DUP2 MSTORE PUSH1 0x4 ADD PUSH2 0x9EA SWAP1 PUSH2 0x5386 JUMP JUMPDEST PUSH2 0x1F20 PUSH1 0x0 PUSH2 0x3CC6 JUMP JUMPDEST JUMP JUMPDEST PUSH1 0x0 SLOAD PUSH1 0x1 PUSH1 0x1 PUSH1 0xA0 SHL SUB AND SWAP1 JUMP JUMPDEST PUSH1 0x0 SWAP2 DUP3 MSTORE PUSH1 0x8 PUSH1 0x20 SWAP1 DUP2 MSTORE PUSH1 0x40 DUP1 DUP5 KECCAK256 PUSH1 0x1 PUSH1 0x1 PUSH1 0xA0 SHL SUB SWAP4 SWAP1 SWAP4 AND DUP5 MSTORE SWAP2 SWAP1 MSTORE SWAP1 KECCAK256 SLOAD PUSH1 0xFF AND SWAP1 JUMP JUMPDEST PUSH1 0x60 PUSH1 0x3 DUP1 SLOAD PUSH2 0x8BA SWAP1 PUSH2 0x5627 JUMP JUMPDEST PUSH1 0x1 PUSH1 0x1 PUSH1 0xA0 SHL SUB DUP3 AND CALLER EQ ISZERO PUSH2 0x1FC0 JUMPI PUSH1 0x40 MLOAD PUSH3 0x461BCD PUSH1 0xE5 SHL DUP2 MSTORE PUSH1 0x20 PUSH1 0x4 DUP3 ADD MSTORE PUSH1 0x19 PUSH1 0x24 DUP3 ADD MSTORE PUSH25 0x22A9219B99189D1030B8383937BB32903A379031B0B63632B9 PUSH1 0x39 SHL PUSH1 0x44 DUP3 ADD MSTORE PUSH1 0x64 ADD PUSH2 0x9EA JUMP JUMPDEST CALLER PUSH1 0x0 DUP2 DUP2 MSTORE PUSH1 0x7 PUSH1 0x20 SWAP1 DUP2 MSTORE PUSH1 0x40 DUP1 DUP4 KECCAK256 PUSH1 0x1 PUSH1 0x1 PUSH1 0xA0 SHL SUB DUP8 AND DUP1 DUP6 MSTORE SWAP1 DUP4 MSTORE SWAP3 DUP2 SWAP1 KECCAK256 DUP1 SLOAD PUSH1 0xFF NOT AND DUP7 ISZERO ISZERO SWAP1 DUP2 OR SWAP1 SWAP2 SSTORE SWAP1 MLOAD SWAP1 DUP2 MSTORE SWAP2 SWAP3 SWAP2 PUSH32 0x17307EAB39AB6107E8899845AD3D59BD9653F200F220920489CA2B5937696C31 SWAP2 ADD PUSH1 0x40 MLOAD DUP1 SWAP2 SUB SWAP1 LOG3 POP POP JUMP JUMPDEST PUSH1 0x0 DUP2 DUP2 MSTORE PUSH1 0xC PUSH1 0x20 MSTORE PUSH1 0x40 DUP2 KECCAK256 PUSH2 0x8A5 SWAP1 PUSH2 0x3D16 JUMP JUMPDEST PUSH1 0x0 PUSH2 0x204E DUP3 PUSH2 0xDD9 JUMP JUMPDEST PUSH2 0x2080 JUMPI PUSH1 0x40 MLOAD PUSH3 0x461BCD PUSH1 0xE5 SHL DUP2 MSTORE PUSH1 0x20 PUSH1 0x4 DUP3 ADD MSTORE PUSH1 0x3 PUSH1 0x24 DUP3 ADD MSTORE PUSH3 0x4F313 PUSH1 0xEC SHL PUSH1 0x44 DUP3 ADD MSTORE PUSH1 0x64 ADD PUSH2 0x9EA JUMP JUMPDEST PUSH1 0x0 DUP3 DUP2 MSTORE PUSH1 0x14 PUSH1 0x20 MSTORE PUSH1 0x40 SWAP1 KECCAK256 PUSH1 0x5 DUP2 ADD SLOAD TIMESTAMP LT ISZERO PUSH2 0x20B2 JUMPI PUSH1 0x40 MLOAD PUSH3 0x461BCD PUSH1 0xE5 SHL DUP2 MSTORE PUSH1 0x4 ADD PUSH2 0x9EA SWAP1 PUSH2 0x540C JUMP JUMPDEST PUSH1 0x1 DUP2 SLOAD PUSH1 0xFF AND PUSH1 0x3 DUP2 GT ISZERO PUSH2 0x20D8 JUMPI PUSH4 0x4E487B71 PUSH1 0xE0 SHL PUSH1 0x0 MSTORE PUSH1 0x21 PUSH1 0x4 MSTORE PUSH1 0x24 PUSH1 0x0 REVERT JUMPDEST EQ PUSH2 0x210B JUMPI PUSH1 0x40 MLOAD PUSH3 0x461BCD PUSH1 0xE5 SHL DUP2 MSTORE PUSH1 0x20 PUSH1 0x4 DUP3 ADD MSTORE PUSH1 0x3 PUSH1 0x24 DUP3 ADD MSTORE PUSH3 0x13CC4D PUSH1 0xEA SHL PUSH1 0x44 DUP3 ADD MSTORE PUSH1 0x64 ADD PUSH2 0x9EA JUMP JUMPDEST PUSH1 0x5 DUP2 ADD SLOAD PUSH1 0x0 SWAP1 DUP2 MSTORE PUSH1 0x18 PUSH1 0x20 MSTORE PUSH1 0x40 SWAP1 KECCAK256 SLOAD DUP1 PUSH2 0x213C JUMPI PUSH1 0x40 MLOAD PUSH3 0x461BCD PUSH1 0xE5 SHL DUP2 MSTORE PUSH1 0x4 ADD PUSH2 0x9EA SWAP1 PUSH2 0x534D JUMP JUMPDEST PUSH1 0x12 SLOAD PUSH1 0x40 MLOAD PUSH4 0x3906D29 PUSH1 0xE1 SHL DUP2 MSTORE PUSH1 0x4 DUP2 ADD DUP4 SWAP1 MSTORE PUSH1 0x0 SWAP2 PUSH1 0x1 PUSH1 0x1 PUSH1 0xA0 SHL SUB AND SWAP1 PUSH4 0x720DA52 SWAP1 PUSH1 0x24 ADD PUSH1 0xA0 PUSH1 0x40 MLOAD DUP1 DUP4 SUB DUP2 DUP7 DUP1 EXTCODESIZE ISZERO DUP1 ISZERO PUSH2 0x2181 JUMPI PUSH1 0x0 DUP1 REVERT JUMPDEST POP GAS STATICCALL ISZERO DUP1 ISZERO PUSH2 0x2195 JUMPI RETURNDATASIZE PUSH1 0x0 DUP1 RETURNDATACOPY RETURNDATASIZE PUSH1 0x0 REVERT JUMPDEST POP POP POP POP PUSH1 0x40 MLOAD RETURNDATASIZE PUSH1 0x1F NOT PUSH1 0x1F DUP3 ADD AND DUP3 ADD DUP1 PUSH1 0x40 MSTORE POP DUP2 ADD SWAP1 PUSH2 0x21B9 SWAP2 SWAP1 PUSH2 0x509C JUMP JUMPDEST POP SWAP2 SWAP4 POP PUSH1 0x2 SWAP3 POP PUSH2 0x21C9 SWAP2 POP POP JUMP JUMPDEST PUSH1 0x6 DUP5 ADD SLOAD PUSH1 0xFF AND PUSH1 0x2 DUP2 GT ISZERO PUSH2 0x21F0 JUMPI PUSH4 0x4E487B71 PUSH1 0xE0 SHL PUSH1 0x0 MSTORE PUSH1 0x21 PUSH1 0x4 MSTORE PUSH1 0x24 PUSH1 0x0 REVERT JUMPDEST EQ ISZERO PUSH2 0x2235 JUMPI DUP1 DUP4 PUSH1 0x1 ADD SLOAD GT ISZERO PUSH2 0x2230 JUMPI PUSH1 0x40 MLOAD PUSH3 0x461BCD PUSH1 0xE5 SHL DUP2 MSTORE PUSH1 0x20 PUSH1 0x4 DUP3 ADD MSTORE PUSH1 0x3 PUSH1 0x24 DUP3 ADD MSTORE PUSH3 0x4F3137 PUSH1 0xE8 SHL PUSH1 0x44 DUP3 ADD MSTORE PUSH1 0x64 ADD PUSH2 0x9EA JUMP JUMPDEST PUSH2 0x226F JUMP JUMPDEST DUP1 DUP4 PUSH1 0x1 ADD SLOAD LT ISZERO PUSH2 0x226F JUMPI PUSH1 0x40 MLOAD PUSH3 0x461BCD PUSH1 0xE5 SHL DUP2 MSTORE PUSH1 0x20 PUSH1 0x4 DUP3 ADD MSTORE PUSH1 0x3 PUSH1 0x24 DUP3 ADD MSTORE PUSH3 0x9E627 PUSH1 0xEB SHL PUSH1 0x44 DUP3 ADD MSTORE PUSH1 0x64 ADD PUSH2 0x9EA JUMP JUMPDEST PUSH1 0x3 DUP4 ADD SLOAD PUSH1 0x1A SLOAD SWAP1 SWAP5 POP PUSH1 0x1 PUSH1 0x1 PUSH1 0xA0 SHL SUB AND PUSH4 0x81B34F15 DUP7 PUSH2 0x2292 DUP2 PUSH2 0x17F1 JUMP JUMPDEST PUSH1 0x40 MLOAD PUSH1 0x1 PUSH1 0x1 PUSH1 0xE0 SHL SUB NOT PUSH1 0xE0 DUP6 SWAP1 SHL AND DUP2 MSTORE PUSH1 0x4 DUP2 ADD SWAP3 SWAP1 SWAP3 MSTORE PUSH1 0x1 PUSH1 0x1 PUSH1 0xA0 SHL SUB AND PUSH1 0x24 DUP3 ADD MSTORE PUSH1 0x44 DUP2 ADD DUP8 SWAP1 MSTORE PUSH1 0x64 ADD PUSH1 0x0 PUSH1 0x40 MLOAD DUP1 DUP4 SUB DUP2 PUSH1 0x0 DUP8 DUP1 EXTCODESIZE ISZERO DUP1 ISZERO PUSH2 0x22E0 JUMPI PUSH1 0x0 DUP1 REVERT JUMPDEST POP GAS CALL ISZERO DUP1 ISZERO PUSH2 0x22F4 JUMPI RETURNDATASIZE PUSH1 0x0 DUP1 RETURNDATACOPY RETURNDATASIZE PUSH1 0x0 REVERT JUMPDEST POP POP POP POP PUSH2 0x2301 DUP6 PUSH2 0x2F66 JUMP JUMPDEST DUP3 SLOAD PUSH1 0xFF NOT AND PUSH1 0x2 OR DUP4 SSTORE PUSH1 0x40 MLOAD DUP5 DUP2 MSTORE DUP6 SWAP1 PUSH31 0x84FE51C7CB34B132B7B6EB5D5A87A489F8D6D284758D00A0402C1BAD9A0DEF SWAP1 PUSH1 0x20 ADD PUSH1 0x40 MLOAD DUP1 SWAP2 SUB SWAP1 LOG2 POP POP POP SWAP2 SWAP1 POP JUMP JUMPDEST PUSH2 0x2353 CALLER JUMPDEST DUP4 PUSH2 0x2AED JUMP JUMPDEST PUSH2 0x236F JUMPI PUSH1 0x40 MLOAD PUSH3 0x461BCD PUSH1 0xE5 SHL DUP2 MSTORE PUSH1 0x4 ADD PUSH2 0x9EA SWAP1 PUSH2 0x53BB JUMP JUMPDEST PUSH2 0x17EB DUP5 DUP5 DUP5 DUP5 PUSH2 0x3D20 JUMP JUMPDEST DUP2 PUSH2 0x23AD JUMPI PUSH1 0x40 MLOAD PUSH3 0x461BCD PUSH1 0xE5 SHL DUP2 MSTORE PUSH1 0x20 PUSH1 0x4 DUP3 ADD MSTORE PUSH1 0x2 PUSH1 0x24 DUP3 ADD MSTORE PUSH2 0x138D PUSH1 0xF2 SHL PUSH1 0x44 DUP3 ADD MSTORE PUSH1 0x64 ADD PUSH2 0x9EA JUMP JUMPDEST PUSH1 0x0 PUSH2 0x23B8 DUP3 PUSH2 0x30AB JUMP JUMPDEST PUSH1 0x60 DUP2 ADD MLOAD PUSH1 0x40 DUP3 ADD MLOAD PUSH1 0x80 DUP4 ADD MLOAD SWAP3 SWAP4 POP SWAP1 SWAP2 PUSH1 0x0 JUMPDEST DUP7 DUP2 LT ISZERO PUSH2 0x250C JUMPI PUSH1 0x0 PUSH2 0x2408 DUP10 DUP10 DUP5 DUP2 DUP2 LT PUSH2 0x23FC JUMPI PUSH4 0x4E487B71 PUSH1 0xE0 SHL PUSH1 0x0 MSTORE PUSH1 0x32 PUSH1 0x4 MSTORE PUSH1 0x24 PUSH1 0x0 REVERT JUMPDEST SWAP1 POP PUSH1 0x20 MUL ADD CALLDATALOAD PUSH2 0x30AB JUMP JUMPDEST SWAP1 POP DUP1 PUSH1 0x60 ADD MLOAD DUP6 PUSH2 0x241A SWAP2 SWAP1 PUSH2 0x5494 JUMP JUMPDEST SWAP5 POP DUP1 PUSH1 0x40 ADD MLOAD DUP5 PUSH2 0x242C SWAP2 SWAP1 PUSH2 0x5494 JUMP JUMPDEST SWAP4 POP DUP1 PUSH1 0x80 ADD MLOAD DUP4 PUSH2 0x243E SWAP2 SWAP1 PUSH2 0x5494 JUMP JUMPDEST PUSH1 0x1A SLOAD SWAP1 SWAP4 POP PUSH1 0x1 PUSH1 0x1 PUSH1 0xA0 SHL SUB AND PUSH4 0xDBF21B0 DUP11 DUP11 DUP6 DUP2 DUP2 LT PUSH2 0x2472 JUMPI PUSH4 0x4E487B71 PUSH1 0xE0 SHL PUSH1 0x0 MSTORE PUSH1 0x32 PUSH1 0x4 MSTORE PUSH1 0x24 PUSH1 0x0 REVERT JUMPDEST SWAP1 POP PUSH1 0x20 MUL ADD CALLDATALOAD PUSH1 0x40 MLOAD DUP3 PUSH4 0xFFFFFFFF AND PUSH1 0xE0 SHL DUP2 MSTORE PUSH1 0x4 ADD PUSH2 0x2497 SWAP2 DUP2 MSTORE PUSH1 0x20 ADD SWAP1 JUMP JUMPDEST PUSH1 0x0 PUSH1 0x40 MLOAD DUP1 DUP4 SUB DUP2 PUSH1 0x0 DUP8 DUP1 EXTCODESIZE ISZERO DUP1 ISZERO PUSH2 0x24B1 JUMPI PUSH1 0x0 DUP1 REVERT JUMPDEST POP GAS CALL ISZERO DUP1 ISZERO PUSH2 0x24C5 JUMPI RETURNDATASIZE PUSH1 0x0 DUP1 RETURNDATACOPY RETURNDATASIZE PUSH1 0x0 REVERT JUMPDEST POP POP POP POP PUSH2 0x24F9 DUP10 DUP10 DUP5 DUP2 DUP2 LT PUSH2 0x24EC JUMPI PUSH4 0x4E487B71 PUSH1 0xE0 SHL PUSH1 0x0 MSTORE PUSH1 0x32 PUSH1 0x4 MSTORE PUSH1 0x24 PUSH1 0x0 REVERT JUMPDEST SWAP1 POP PUSH1 0x20 MUL ADD CALLDATALOAD DUP9 PUSH2 0x3D53 JUMP JUMPDEST POP DUP1 PUSH2 0x2504 DUP2 PUSH2 0x565C JUMP JUMPDEST SWAP2 POP POP PUSH2 0x23CF JUMP JUMPDEST POP PUSH2 0x251A DUP6 DUP6 DUP6 DUP6 DUP6 PUSH2 0x31B0 JUMP JUMPDEST POP PUSH1 0x1A SLOAD PUSH1 0x40 MLOAD PUSH4 0x57A5C967 PUSH1 0xE0 SHL DUP2 MSTORE PUSH1 0x1 PUSH1 0x1 PUSH1 0xA0 SHL SUB SWAP1 SWAP2 AND SWAP1 PUSH4 0x57A5C967 SWAP1 PUSH2 0x254F SWAP1 DUP9 SWAP1 DUP8 SWAP1 DUP7 SWAP1 PUSH1 0x4 ADD PUSH2 0x547E JUMP JUMPDEST PUSH1 0x0 PUSH1 0x40 MLOAD DUP1 DUP4 SUB DUP2 PUSH1 0x0 DUP8 DUP1 EXTCODESIZE ISZERO DUP1 ISZERO PUSH2 0x2569 JUMPI PUSH1 0x0 DUP1 REVERT JUMPDEST POP GAS CALL ISZERO DUP1 ISZERO PUSH2 0x257D JUMPI RETURNDATASIZE PUSH1 0x0 DUP1 RETURNDATACOPY RETURNDATASIZE PUSH1 0x0 REVERT JUMPDEST POP POP POP POP POP POP POP POP POP POP POP JUMP JUMPDEST PUSH1 0x0 SWAP1 DUP2 MSTORE PUSH1 0xF PUSH1 0x20 MSTORE PUSH1 0x40 SWAP1 KECCAK256 SLOAD SWAP1 JUMP JUMPDEST PUSH1 0x60 PUSH2 0x8A5 DUP3 PUSH2 0x3ECF JUMP JUMPDEST PUSH1 0x15 PUSH1 0x20 MSTORE DUP2 PUSH1 0x0 MSTORE PUSH1 0x40 PUSH1 0x0 KECCAK256 DUP2 DUP2 SLOAD DUP2 LT PUSH2 0x25C3 JUMPI PUSH1 0x0 DUP1 REVERT JUMPDEST SWAP1 PUSH1 0x0 MSTORE PUSH1 0x20 PUSH1 0x0 KECCAK256 ADD PUSH1 0x0 SWAP2 POP SWAP2 POP POP SLOAD DUP2 JUMP JUMPDEST PUSH1 0x0 DUP3 DUP2 MSTORE PUSH1 0xC PUSH1 0x20 MSTORE PUSH1 0x40 DUP2 KECCAK256 PUSH2 0x25F0 SWAP1 DUP4 PUSH2 0x4031 JUMP JUMPDEST SWAP4 SWAP3 POP POP POP JUMP JUMPDEST PUSH2 0x2600 DUP3 PUSH2 0xB51 JUMP JUMPDEST PUSH2 0x260A DUP2 CALLER PUSH2 0x2D50 JUMP JUMPDEST PUSH2 0xB1B DUP4 DUP4 PUSH2 0x2E3A JUMP JUMPDEST PUSH1 0x12 SLOAD PUSH1 0x40 MLOAD PUSH4 0x3906D29 PUSH1 0xE1 SHL DUP2 MSTORE PUSH1 0x4 DUP2 ADD DUP5 SWAP1 MSTORE PUSH1 0x0 SWAP2 DUP3 SWAP2 DUP3 SWAP2 PUSH1 0x1 PUSH1 0x1 PUSH1 0xA0 SHL SUB AND SWAP1 PUSH4 0x720DA52 SWAP1 PUSH1 0x24 ADD PUSH1 0xA0 PUSH1 0x40 MLOAD DUP1 DUP4 SUB DUP2 DUP7 DUP1 EXTCODESIZE ISZERO DUP1 ISZERO PUSH2 0x265D JUMPI PUSH1 0x0 DUP1 REVERT JUMPDEST POP GAS STATICCALL ISZERO DUP1 ISZERO PUSH2 0x2671 JUMPI RETURNDATASIZE PUSH1 0x0 DUP1 RETURNDATACOPY RETURNDATASIZE PUSH1 0x0 REVERT JUMPDEST POP POP POP POP PUSH1 0x40 MLOAD RETURNDATASIZE PUSH1 0x1F NOT PUSH1 0x1F DUP3 ADD AND DUP3 ADD DUP1 PUSH1 0x40 MSTORE POP DUP2 ADD SWAP1 PUSH2 0x2695 SWAP2 SWAP1 PUSH2 0x509C JUMP JUMPDEST POP PUSH1 0x0 DUP9 DUP2 MSTORE PUSH1 0x14 PUSH1 0x20 MSTORE PUSH1 0x40 SWAP1 KECCAK256 PUSH1 0x5 DUP2 ADD SLOAD SWAP4 SWAP7 POP SWAP1 SWAP5 POP SWAP3 POP POP DUP3 DUP2 LT PUSH2 0x26E6 JUMPI PUSH1 0x40 MLOAD PUSH3 0x461BCD PUSH1 0xE5 SHL DUP2 MSTORE PUSH1 0x20 PUSH1 0x4 DUP3 ADD MSTORE PUSH1 0x2 PUSH1 0x24 DUP3 ADD MSTORE PUSH2 0x4331 PUSH1 0xF0 SHL PUSH1 0x44 DUP3 ADD MSTORE PUSH1 0x64 ADD PUSH2 0x9EA JUMP JUMPDEST PUSH1 0x0 DUP2 DUP2 MSTORE PUSH1 0x18 PUSH1 0x20 MSTORE PUSH1 0x40 SWAP1 KECCAK256 SLOAD DUP1 PUSH2 0x2831 JUMPI PUSH2 0x2705 PUSH1 0x1 DUP10 PUSH2 0x55CD JUMP JUMPDEST SWAP1 POP JUMPDEST DUP6 PUSH2 0x2831 JUMPI PUSH1 0x12 SLOAD PUSH1 0x40 MLOAD PUSH4 0x3906D29 PUSH1 0xE1 SHL DUP2 MSTORE PUSH1 0x4 DUP2 ADD DUP4 SWAP1 MSTORE PUSH1 0x0 SWAP2 PUSH1 0x1 PUSH1 0x1 PUSH1 0xA0 SHL SUB AND SWAP1 PUSH4 0x720DA52 SWAP1 PUSH1 0x24 ADD PUSH1 0xA0 PUSH1 0x40 MLOAD DUP1 DUP4 SUB DUP2 DUP7 DUP1 EXTCODESIZE ISZERO DUP1 ISZERO PUSH2 0x2752 JUMPI PUSH1 0x0 DUP1 REVERT JUMPDEST POP GAS STATICCALL ISZERO DUP1 ISZERO PUSH2 0x2766 JUMPI RETURNDATASIZE PUSH1 0x0 DUP1 RETURNDATACOPY RETURNDATASIZE PUSH1 0x0 REVERT JUMPDEST POP POP POP POP PUSH1 0x40 MLOAD RETURNDATASIZE PUSH1 0x1F NOT PUSH1 0x1F DUP3 ADD AND DUP3 ADD DUP1 PUSH1 0x40 MSTORE POP DUP2 ADD SWAP1 PUSH2 0x278A SWAP2 SWAP1 PUSH2 0x509C JUMP JUMPDEST POP SWAP4 POP POP POP POP DUP1 PUSH1 0x0 EQ ISZERO PUSH2 0x27E0 JUMPI PUSH1 0x0 DUP3 GT PUSH2 0x27CE JUMPI PUSH1 0x40 MLOAD PUSH3 0x461BCD PUSH1 0xE5 SHL DUP2 MSTORE PUSH1 0x20 PUSH1 0x4 DUP3 ADD MSTORE PUSH1 0x2 PUSH1 0x24 DUP3 ADD MSTORE PUSH2 0x4333 PUSH1 0xF0 SHL PUSH1 0x44 DUP3 ADD MSTORE PUSH1 0x64 ADD PUSH2 0x9EA JUMP JUMPDEST PUSH2 0x27D9 PUSH1 0x1 DUP4 PUSH2 0x55CD JUMP JUMPDEST SWAP2 POP PUSH2 0x282B JUMP JUMPDEST DUP3 DUP2 GT ISZERO PUSH2 0x2815 JUMPI PUSH1 0x40 MLOAD PUSH3 0x461BCD PUSH1 0xE5 SHL DUP2 MSTORE PUSH1 0x20 PUSH1 0x4 DUP3 ADD MSTORE PUSH1 0x2 PUSH1 0x24 DUP3 ADD MSTORE PUSH2 0x10CD PUSH1 0xF2 SHL PUSH1 0x44 DUP3 ADD MSTORE PUSH1 0x64 ADD PUSH2 0x9EA JUMP JUMPDEST PUSH1 0x0 DUP4 DUP2 MSTORE PUSH1 0x18 PUSH1 0x20 MSTORE PUSH1 0x40 SWAP1 KECCAK256 DUP3 SWAP1 SSTORE PUSH1 0x1 SWAP7 POP JUMPDEST POP PUSH2 0x2708 JUMP JUMPDEST POP POP POP POP POP SWAP3 SWAP2 POP POP JUMP JUMPDEST DUP1 PUSH1 0x0 JUMPDEST DUP2 DUP2 LT ISZERO PUSH2 0x17EB JUMPI PUSH2 0x2877 DUP5 DUP5 DUP4 DUP2 DUP2 LT PUSH2 0x286B JUMPI PUSH4 0x4E487B71 PUSH1 0xE0 SHL PUSH1 0x0 MSTORE PUSH1 0x32 PUSH1 0x4 MSTORE PUSH1 0x24 PUSH1 0x0 REVERT JUMPDEST SWAP1 POP PUSH1 0x20 MUL ADD CALLDATALOAD PUSH2 0x1568 JUMP JUMPDEST DUP1 PUSH2 0x2881 DUP2 PUSH2 0x565C JUMP JUMPDEST SWAP2 POP POP PUSH2 0x2840 JUMP JUMPDEST PUSH1 0x1 PUSH1 0x1 PUSH1 0xA0 SHL SUB SWAP2 DUP3 AND PUSH1 0x0 SWAP1 DUP2 MSTORE PUSH1 0x7 PUSH1 0x20 SWAP1 DUP2 MSTORE PUSH1 0x40 DUP1 DUP4 KECCAK256 SWAP4 SWAP1 SWAP5 AND DUP3 MSTORE SWAP2 SWAP1 SWAP2 MSTORE KECCAK256 SLOAD PUSH1 0xFF AND SWAP1 JUMP JUMPDEST CALLER PUSH2 0x28C0 PUSH2 0x1F22 JUMP JUMPDEST PUSH1 0x1 PUSH1 0x1 PUSH1 0xA0 SHL SUB AND EQ PUSH2 0x28E6 JUMPI PUSH1 0x40 MLOAD PUSH3 0x461BCD PUSH1 0xE5 SHL DUP2 MSTORE PUSH1 0x4 ADD PUSH2 0x9EA SWAP1 PUSH2 0x5386 JUMP JUMPDEST PUSH1 0x1 PUSH1 0x1 PUSH1 0xA0 SHL SUB DUP2 AND PUSH2 0x294B JUMPI PUSH1 0x40 MLOAD PUSH3 0x461BCD PUSH1 0xE5 SHL DUP2 MSTORE PUSH1 0x20 PUSH1 0x4 DUP3 ADD MSTORE PUSH1 0x26 PUSH1 0x24 DUP3 ADD MSTORE PUSH32 0x4F776E61626C653A206E6577206F776E657220697320746865207A65726F2061 PUSH1 0x44 DUP3 ADD MSTORE PUSH6 0x646472657373 PUSH1 0xD0 SHL PUSH1 0x64 DUP3 ADD MSTORE PUSH1 0x84 ADD PUSH2 0x9EA JUMP JUMPDEST PUSH2 0xCB4 DUP2 PUSH2 0x3CC6 JUMP JUMPDEST PUSH1 0x0 PUSH2 0x295E PUSH2 0x3428 JUMP JUMPDEST SWAP1 POP PUSH1 0x0 DUP1 PUSH1 0x0 DUP1 PUSH2 0x2970 DUP8 DUP8 PUSH2 0x2F7E JUMP JUMPDEST SWAP4 POP SWAP4 POP SWAP4 POP SWAP4 POP PUSH1 0x0 PUSH1 0x40 MLOAD DUP1 PUSH2 0x120 ADD PUSH1 0x40 MSTORE DUP1 DUP4 PUSH1 0x0 ADD MLOAD PUSH1 0x3 DUP2 GT ISZERO PUSH2 0x29AA JUMPI PUSH4 0x4E487B71 PUSH1 0xE0 SHL PUSH1 0x0 MSTORE PUSH1 0x21 PUSH1 0x4 MSTORE PUSH1 0x24 PUSH1 0x0 REVERT JUMPDEST DUP2 MSTORE PUSH1 0x20 ADD DUP4 PUSH1 0x20 ADD MLOAD DUP2 MSTORE PUSH1 0x20 ADD DUP7 DUP2 MSTORE PUSH1 0x20 ADD DUP5 DUP2 MSTORE PUSH1 0x20 ADD DUP6 DUP2 MSTORE PUSH1 0x20 ADD DUP4 PUSH1 0xA0 ADD MLOAD DUP2 MSTORE PUSH1 0x20 ADD DUP4 PUSH1 0xC0 ADD MLOAD PUSH1 0x2 DUP2 GT ISZERO PUSH2 0x29F9 JUMPI PUSH4 0x4E487B71 PUSH1 0xE0 SHL PUSH1 0x0 MSTORE PUSH1 0x21 PUSH1 0x4 MSTORE PUSH1 0x24 PUSH1 0x0 REVERT JUMPDEST DUP2 MSTORE PUSH1 0x20 ADD DUP4 PUSH1 0xE0 ADD MLOAD DUP2 MSTORE PUSH1 0x20 ADD TIMESTAMP DUP2 MSTORE POP SWAP1 POP PUSH2 0x2A18 DUP7 DUP3 PUSH2 0x3BF9 JUMP JUMPDEST PUSH2 0x2A23 DUP7 DUP5 DUP7 PUSH2 0x3A64 JUMP JUMPDEST PUSH2 0x2A30 DUP11 DUP11 DUP11 DUP10 DUP12 PUSH2 0x31E2 JUMP JUMPDEST POP POP POP POP POP SWAP5 SWAP4 POP POP POP POP JUMP JUMPDEST PUSH1 0x0 PUSH1 0x1 PUSH1 0x1 PUSH1 0xE0 SHL SUB NOT DUP3 AND PUSH4 0x7965DB0B PUSH1 0xE0 SHL EQ DUP1 PUSH2 0x8A5 JUMPI POP PUSH2 0x8A5 DUP3 PUSH2 0x403D JUMP JUMPDEST PUSH1 0x0 SWAP1 DUP2 MSTORE PUSH1 0x4 PUSH1 0x20 MSTORE PUSH1 0x40 SWAP1 KECCAK256 SLOAD PUSH1 0x1 PUSH1 0x1 PUSH1 0xA0 SHL SUB AND ISZERO ISZERO SWAP1 JUMP JUMPDEST PUSH1 0x0 DUP2 DUP2 MSTORE PUSH1 0x6 PUSH1 0x20 MSTORE PUSH1 0x40 SWAP1 KECCAK256 DUP1 SLOAD PUSH1 0x1 PUSH1 0x1 PUSH1 0xA0 SHL SUB NOT AND PUSH1 0x1 PUSH1 0x1 PUSH1 0xA0 SHL SUB DUP5 AND SWAP1 DUP2 OR SWAP1 SWAP2 SSTORE DUP2 SWAP1 PUSH2 0x2AB4 DUP3 PUSH2 0x17F1 JUMP JUMPDEST PUSH1 0x1 PUSH1 0x1 PUSH1 0xA0 SHL SUB AND PUSH32 0x8C5BE1E5EBEC7D5BD14F71427D1E84F3DD0314C0F7B2291E5B200AC8C7C3B925 PUSH1 0x40 MLOAD PUSH1 0x40 MLOAD DUP1 SWAP2 SUB SWAP1 LOG4 POP POP JUMP JUMPDEST PUSH1 0x0 PUSH2 0x2AF8 DUP3 PUSH2 0x2A62 JUMP JUMPDEST PUSH2 0x2B59 JUMPI PUSH1 0x40 MLOAD PUSH3 0x461BCD PUSH1 0xE5 SHL DUP2 MSTORE PUSH1 0x20 PUSH1 0x4 DUP3 ADD MSTORE PUSH1 0x2C PUSH1 0x24 DUP3 ADD MSTORE PUSH32 0x4552433732313A206F70657261746F7220717565727920666F72206E6F6E6578 PUSH1 0x44 DUP3 ADD MSTORE PUSH12 0x34B9BA32B73A103A37B5B2B7 PUSH1 0xA1 SHL PUSH1 0x64 DUP3 ADD MSTORE PUSH1 0x84 ADD PUSH2 0x9EA JUMP JUMPDEST PUSH1 0x0 PUSH2 0x2B64 DUP4 PUSH2 0x17F1 JUMP JUMPDEST SWAP1 POP DUP1 PUSH1 0x1 PUSH1 0x1 PUSH1 0xA0 SHL SUB AND DUP5 PUSH1 0x1 PUSH1 0x1 PUSH1 0xA0 SHL SUB AND EQ DUP1 PUSH2 0x2B9F JUMPI POP DUP4 PUSH1 0x1 PUSH1 0x1 PUSH1 0xA0 SHL SUB AND PUSH2 0x2B94 DUP5 PUSH2 0x982 JUMP JUMPDEST PUSH1 0x1 PUSH1 0x1 PUSH1 0xA0 SHL SUB AND EQ JUMPDEST DUP1 PUSH2 0x2BAF JUMPI POP PUSH2 0x2BAF DUP2 DUP6 PUSH2 0x2889 JUMP JUMPDEST SWAP5 SWAP4 POP POP POP POP JUMP JUMPDEST DUP3 PUSH1 0x1 PUSH1 0x1 PUSH1 0xA0 SHL SUB AND PUSH2 0x2BCA DUP3 PUSH2 0x17F1 JUMP JUMPDEST PUSH1 0x1 PUSH1 0x1 PUSH1 0xA0 SHL SUB AND EQ PUSH2 0x2C32 JUMPI PUSH1 0x40 MLOAD PUSH3 0x461BCD PUSH1 0xE5 SHL DUP2 MSTORE PUSH1 0x20 PUSH1 0x4 DUP3 ADD MSTORE PUSH1 0x29 PUSH1 0x24 DUP3 ADD MSTORE PUSH32 0x4552433732313A207472616E73666572206F6620746F6B656E20746861742069 PUSH1 0x44 DUP3 ADD MSTORE PUSH9 0x39903737BA1037BBB7 PUSH1 0xB9 SHL PUSH1 0x64 DUP3 ADD MSTORE PUSH1 0x84 ADD PUSH2 0x9EA JUMP JUMPDEST PUSH1 0x1 PUSH1 0x1 PUSH1 0xA0 SHL SUB DUP3 AND PUSH2 0x2C94 JUMPI PUSH1 0x40 MLOAD PUSH3 0x461BCD PUSH1 0xE5 SHL DUP2 MSTORE PUSH1 0x20 PUSH1 0x4 DUP3 ADD MSTORE PUSH1 0x24 DUP1 DUP3 ADD MSTORE PUSH32 0x4552433732313A207472616E7366657220746F20746865207A65726F20616464 PUSH1 0x44 DUP3 ADD MSTORE PUSH4 0x72657373 PUSH1 0xE0 SHL PUSH1 0x64 DUP3 ADD MSTORE PUSH1 0x84 ADD PUSH2 0x9EA JUMP JUMPDEST PUSH2 0x2C9F DUP4 DUP4 DUP4 PUSH2 0x408D JUMP JUMPDEST PUSH2 0x2CAA PUSH1 0x0 DUP3 PUSH2 0x2A7F JUMP JUMPDEST PUSH1 0x1 PUSH1 0x1 PUSH1 0xA0 SHL SUB DUP4 AND PUSH1 0x0 SWAP1 DUP2 MSTORE PUSH1 0x5 PUSH1 0x20 MSTORE PUSH1 0x40 DUP2 KECCAK256 DUP1 SLOAD PUSH1 0x1 SWAP3 SWAP1 PUSH2 0x2CD3 SWAP1 DUP5 SWAP1 PUSH2 0x55CD JUMP JUMPDEST SWAP1 SWAP2 SSTORE POP POP PUSH1 0x1 PUSH1 0x1 PUSH1 0xA0 SHL SUB DUP3 AND PUSH1 0x0 SWAP1 DUP2 MSTORE PUSH1 0x5 PUSH1 0x20 MSTORE PUSH1 0x40 DUP2 KECCAK256 DUP1 SLOAD PUSH1 0x1 SWAP3 SWAP1 PUSH2 0x2D01 SWAP1 DUP5 SWAP1 PUSH2 0x5494 JUMP JUMPDEST SWAP1 SWAP2 SSTORE POP POP PUSH1 0x0 DUP2 DUP2 MSTORE PUSH1 0x4 PUSH1 0x20 MSTORE PUSH1 0x40 DUP1 DUP3 KECCAK256 DUP1 SLOAD PUSH1 0x1 PUSH1 0x1 PUSH1 0xA0 SHL SUB NOT AND PUSH1 0x1 PUSH1 0x1 PUSH1 0xA0 SHL SUB DUP7 DUP2 AND SWAP2 DUP3 OR SWAP1 SWAP3 SSTORE SWAP2 MLOAD DUP5 SWAP4 SWAP2 DUP8 AND SWAP2 PUSH1 0x0 DUP1 MLOAD PUSH1 0x20 PUSH2 0x573F DUP4 CODECOPY DUP2 MLOAD SWAP2 MSTORE SWAP2 LOG4 POP POP POP JUMP JUMPDEST PUSH2 0x2D5A DUP3 DUP3 PUSH2 0x1F31 JUMP JUMPDEST PUSH2 0xC0F JUMPI PUSH2 0x2D72 DUP2 PUSH1 0x1 PUSH1 0x1 PUSH1 0xA0 SHL SUB AND PUSH1 0x14 PUSH2 0x40A5 JUMP JUMPDEST PUSH2 0x2D7D DUP4 PUSH1 0x20 PUSH2 0x40A5 JUMP JUMPDEST PUSH1 0x40 MLOAD PUSH1 0x20 ADD PUSH2 0x2D8E SWAP3 SWAP2 SWAP1 PUSH2 0x515A JUMP JUMPDEST PUSH1 0x40 DUP1 MLOAD PUSH1 0x1F NOT DUP2 DUP5 SUB ADD DUP2 MSTORE SWAP1 DUP3 SWAP1 MSTORE PUSH3 0x461BCD PUSH1 0xE5 SHL DUP3 MSTORE PUSH2 0x9EA SWAP2 PUSH1 0x4 ADD PUSH2 0x52CC JUMP JUMPDEST PUSH2 0x2DBE DUP3 DUP3 PUSH2 0x1F31 JUMP JUMPDEST PUSH2 0xC0F JUMPI PUSH1 0x0 DUP3 DUP2 MSTORE PUSH1 0x8 PUSH1 0x20 SWAP1 DUP2 MSTORE PUSH1 0x40 DUP1 DUP4 KECCAK256 PUSH1 0x1 PUSH1 0x1 PUSH1 0xA0 SHL SUB DUP6 AND DUP5 MSTORE SWAP1 SWAP2 MSTORE SWAP1 KECCAK256 DUP1 SLOAD PUSH1 0xFF NOT AND PUSH1 0x1 OR SWAP1 SSTORE PUSH2 0x2DF6 CALLER SWAP1 JUMP JUMPDEST PUSH1 0x1 PUSH1 0x1 PUSH1 0xA0 SHL SUB AND DUP2 PUSH1 0x1 PUSH1 0x1 PUSH1 0xA0 SHL SUB AND DUP4 PUSH32 0x2F8788117E7EFF1D82E926EC794901D17C78024A50270940304540A733656F0D PUSH1 0x40 MLOAD PUSH1 0x40 MLOAD DUP1 SWAP2 SUB SWAP1 LOG4 POP POP JUMP JUMPDEST PUSH2 0x2E44 DUP3 DUP3 PUSH2 0x1F31 JUMP JUMPDEST ISZERO PUSH2 0xC0F JUMPI PUSH1 0x0 DUP3 DUP2 MSTORE PUSH1 0x8 PUSH1 0x20 SWAP1 DUP2 MSTORE PUSH1 0x40 DUP1 DUP4 KECCAK256 PUSH1 0x1 PUSH1 0x1 PUSH1 0xA0 SHL SUB DUP6 AND DUP1 DUP6 MSTORE SWAP3 MSTORE DUP1 DUP4 KECCAK256 DUP1 SLOAD PUSH1 0xFF NOT AND SWAP1 SSTORE MLOAD CALLER SWAP3 DUP6 SWAP2 PUSH32 0xF6391F5C32D9C69D2A47EA670B442974B53935D1EDC7FD64EB21E047A839171B SWAP2 SWAP1 LOG4 POP POP JUMP JUMPDEST PUSH1 0x0 DUP3 DUP2 MSTORE PUSH1 0xB PUSH1 0x20 SWAP1 DUP2 MSTORE PUSH1 0x40 DUP1 DUP4 KECCAK256 PUSH1 0x1 PUSH1 0x1 PUSH1 0xA0 SHL SUB DUP8 AND DUP5 MSTORE PUSH1 0x1 ADD SWAP1 SWAP2 MSTORE SWAP1 KECCAK256 SLOAD PUSH2 0x2F03 JUMPI PUSH1 0x0 DUP3 DUP2 MSTORE PUSH1 0xB PUSH1 0x20 SWAP1 DUP2 MSTORE PUSH1 0x40 DUP3 KECCAK256 DUP1 SLOAD PUSH1 0x1 DUP2 ADD DUP3 SSTORE SWAP1 DUP4 MSTORE SWAP2 KECCAK256 ADD DUP1 SLOAD PUSH1 0x1 PUSH1 0x1 PUSH1 0xA0 SHL SUB NOT AND PUSH1 0x1 PUSH1 0x1 PUSH1 0xA0 SHL SUB DUP6 AND OR SWAP1 SSTORE JUMPDEST PUSH1 0x0 DUP3 DUP2 MSTORE PUSH1 0xB PUSH1 0x20 SWAP1 DUP2 MSTORE PUSH1 0x40 DUP1 DUP4 KECCAK256 PUSH1 0x1 PUSH1 0x1 PUSH1 0xA0 SHL SUB DUP8 AND DUP1 DUP6 MSTORE PUSH1 0x1 SWAP1 SWAP2 ADD DUP4 MSTORE SWAP3 DUP2 SWAP1 KECCAK256 DUP5 SWAP1 SSTORE MLOAD DUP4 DUP2 MSTORE DUP5 SWAP3 SWAP2 PUSH32 0x8A156BD946DC74EC284C5F4B365CE75EF2A5B9D9462B4CDB1D2400CABF136541 SWAP2 ADD PUSH1 0x40 MLOAD DUP1 SWAP2 SUB SWAP1 LOG3 POP POP POP JUMP JUMPDEST PUSH1 0x0 DUP2 DUP2 MSTORE PUSH1 0xA PUSH1 0x20 MSTORE PUSH1 0x40 DUP2 KECCAK256 SSTORE PUSH2 0xCB4 DUP2 PUSH2 0x4286 JUMP JUMPDEST PUSH1 0x0 DUP1 PUSH1 0x0 PUSH2 0x2F8B PUSH2 0x4AE3 JUMP JUMPDEST PUSH2 0x2F94 DUP7 PUSH2 0x30AB JUMP JUMPDEST SWAP1 POP PUSH1 0x0 PUSH2 0x2FA1 DUP8 PUSH2 0x258A JUMP JUMPDEST SWAP1 POP DUP1 DUP7 DUP4 PUSH1 0x40 ADD MLOAD PUSH2 0x2FB4 SWAP2 SWAP1 PUSH2 0x55AE JUMP JUMPDEST PUSH2 0x2FBE SWAP2 SWAP1 PUSH2 0x54AC JUMP JUMPDEST SWAP5 POP DUP1 DUP7 DUP4 PUSH1 0x80 ADD MLOAD PUSH2 0x2FD1 SWAP2 SWAP1 PUSH2 0x55AE JUMP JUMPDEST PUSH2 0x2FDB SWAP2 SWAP1 PUSH2 0x54AC JUMP JUMPDEST SWAP4 POP DUP1 DUP7 DUP4 PUSH1 0x60 ADD MLOAD PUSH2 0x2FEE SWAP2 SWAP1 PUSH2 0x55AE JUMP JUMPDEST PUSH2 0x2FF8 SWAP2 SWAP1 PUSH2 0x54AC JUMP JUMPDEST SWAP3 POP PUSH2 0x302F DUP8 DUP4 DUP6 DUP6 PUSH1 0x60 ADD MLOAD PUSH2 0x300F SWAP2 SWAP1 PUSH2 0x55CD JUMP JUMPDEST DUP9 DUP7 PUSH1 0x40 ADD MLOAD PUSH2 0x301F SWAP2 SWAP1 PUSH2 0x55CD JUMP JUMPDEST DUP9 DUP8 PUSH1 0x80 ADD MLOAD PUSH2 0xD4A SWAP2 SWAP1 PUSH2 0x55CD JUMP JUMPDEST PUSH1 0x1A SLOAD PUSH1 0x60 DUP3 ADD MLOAD PUSH1 0x80 DUP4 ADD MLOAD PUSH1 0x40 MLOAD PUSH4 0x57A5C967 PUSH1 0xE0 SHL DUP2 MSTORE SWAP4 SWAP6 POP PUSH1 0x1 PUSH1 0x1 PUSH1 0xA0 SHL SUB SWAP1 SWAP3 AND SWAP3 PUSH4 0x57A5C967 SWAP3 PUSH2 0x306F SWAP3 DUP13 SWAP3 SWAP1 SWAP2 SWAP1 PUSH1 0x4 ADD PUSH2 0x547E JUMP JUMPDEST PUSH1 0x0 PUSH1 0x40 MLOAD DUP1 DUP4 SUB DUP2 PUSH1 0x0 DUP8 DUP1 EXTCODESIZE ISZERO DUP1 ISZERO PUSH2 0x3089 JUMPI PUSH1 0x0 DUP1 REVERT JUMPDEST POP GAS CALL ISZERO DUP1 ISZERO PUSH2 0x309D JUMPI RETURNDATASIZE PUSH1 0x0 DUP1 RETURNDATACOPY RETURNDATASIZE PUSH1 0x0 REVERT JUMPDEST POP POP POP POP POP SWAP3 SWAP6 SWAP2 SWAP5 POP SWAP3 POP JUMP JUMPDEST PUSH2 0x30B3 PUSH2 0x4AE3 JUMP JUMPDEST PUSH1 0x0 DUP3 DUP2 MSTORE PUSH1 0x14 PUSH1 0x20 MSTORE PUSH1 0x40 SWAP1 DUP2 SWAP1 KECCAK256 DUP2 MLOAD PUSH2 0x120 DUP2 ADD SWAP1 SWAP3 MSTORE DUP1 SLOAD DUP3 SWAP1 PUSH1 0xFF AND PUSH1 0x3 DUP2 GT ISZERO PUSH2 0x30F3 JUMPI PUSH4 0x4E487B71 PUSH1 0xE0 SHL PUSH1 0x0 MSTORE PUSH1 0x21 PUSH1 0x4 MSTORE PUSH1 0x24 PUSH1 0x0 REVERT JUMPDEST PUSH1 0x3 DUP2 GT ISZERO PUSH2 0x3112 JUMPI PUSH4 0x4E487B71 PUSH1 0xE0 SHL PUSH1 0x0 MSTORE PUSH1 0x21 PUSH1 0x4 MSTORE PUSH1 0x24 PUSH1 0x0 REVERT JUMPDEST DUP2 MSTORE PUSH1 0x1 DUP3 ADD SLOAD PUSH1 0x20 DUP3 ADD MSTORE PUSH1 0x2 DUP1 DUP4 ADD SLOAD PUSH1 0x40 DUP4 ADD MSTORE PUSH1 0x3 DUP4 ADD SLOAD PUSH1 0x60 DUP4 ADD MSTORE PUSH1 0x4 DUP4 ADD SLOAD PUSH1 0x80 DUP4 ADD MSTORE PUSH1 0x5 DUP4 ADD SLOAD PUSH1 0xA0 DUP4 ADD MSTORE PUSH1 0x6 DUP4 ADD SLOAD PUSH1 0xC0 SWAP1 SWAP3 ADD SWAP2 PUSH1 0xFF AND SWAP1 DUP2 GT ISZERO PUSH2 0x3173 JUMPI PUSH4 0x4E487B71 PUSH1 0xE0 SHL PUSH1 0x0 MSTORE PUSH1 0x21 PUSH1 0x4 MSTORE PUSH1 0x24 PUSH1 0x0 REVERT JUMPDEST PUSH1 0x2 DUP2 GT ISZERO PUSH2 0x3192 JUMPI PUSH4 0x4E487B71 PUSH1 0xE0 SHL PUSH1 0x0 MSTORE PUSH1 0x21 PUSH1 0x4 MSTORE PUSH1 0x24 PUSH1 0x0 REVERT JUMPDEST DUP2 MSTORE PUSH1 0x7 DUP3 ADD SLOAD PUSH1 0x20 DUP3 ADD MSTORE PUSH1 0x8 SWAP1 SWAP2 ADD SLOAD PUSH1 0x40 SWAP1 SWAP2 ADD MSTORE SWAP3 SWAP2 POP POP JUMP JUMPDEST PUSH2 0x31B8 PUSH2 0x4AE3 JUMP JUMPDEST POP PUSH1 0x60 DUP5 ADD DUP4 SWAP1 MSTORE PUSH1 0x40 DUP5 ADD DUP3 SWAP1 MSTORE PUSH1 0x80 DUP5 ADD DUP2 SWAP1 MSTORE DUP4 PUSH2 0x31D9 DUP7 DUP3 PUSH2 0x3BF9 JUMP JUMPDEST SWAP6 SWAP5 POP POP POP POP POP JUMP JUMPDEST PUSH2 0x31EB DUP4 PUSH2 0x17F1 JUMP JUMPDEST PUSH1 0x1 PUSH1 0x1 PUSH1 0xA0 SHL SUB AND DUP6 PUSH1 0x1 PUSH1 0x1 PUSH1 0xA0 SHL SUB AND EQ PUSH2 0x3230 JUMPI PUSH1 0x40 MLOAD PUSH3 0x461BCD PUSH1 0xE5 SHL DUP2 MSTORE PUSH1 0x20 PUSH1 0x4 DUP3 ADD MSTORE PUSH1 0x2 PUSH1 0x24 DUP3 ADD MSTORE PUSH2 0x4E39 PUSH1 0xF0 SHL PUSH1 0x44 DUP3 ADD MSTORE PUSH1 0x64 ADD PUSH2 0x9EA JUMP JUMPDEST PUSH1 0x1 PUSH1 0x1 PUSH1 0xA0 SHL SUB DUP5 AND PUSH2 0x326C JUMPI PUSH1 0x40 MLOAD PUSH3 0x461BCD PUSH1 0xE5 SHL DUP2 MSTORE PUSH1 0x20 PUSH1 0x4 DUP3 ADD MSTORE PUSH1 0x3 PUSH1 0x24 DUP3 ADD MSTORE PUSH3 0x4E313 PUSH1 0xEC SHL PUSH1 0x44 DUP3 ADD MSTORE PUSH1 0x64 ADD PUSH2 0x9EA JUMP JUMPDEST CALLER PUSH1 0x1 PUSH1 0x1 PUSH1 0xA0 SHL SUB DUP7 AND EQ DUP1 ISZERO SWAP1 PUSH2 0x328C JUMPI POP PUSH2 0x328A DUP6 CALLER PUSH2 0x2889 JUMP JUMPDEST ISZERO JUMPDEST ISZERO PUSH2 0x32D7 JUMPI PUSH1 0x0 DUP4 DUP2 MSTORE PUSH1 0xB PUSH1 0x20 SWAP1 DUP2 MSTORE PUSH1 0x40 DUP1 DUP4 KECCAK256 CALLER DUP5 MSTORE PUSH1 0x1 ADD SWAP1 SWAP2 MSTORE SWAP1 KECCAK256 SLOAD PUSH2 0x32B9 SWAP1 DUP3 SWAP1 PUSH2 0x55CD JUMP JUMPDEST PUSH1 0x0 DUP5 DUP2 MSTORE PUSH1 0xB PUSH1 0x20 SWAP1 DUP2 MSTORE PUSH1 0x40 DUP1 DUP4 KECCAK256 CALLER DUP5 MSTORE PUSH1 0x1 ADD SWAP1 SWAP2 MSTORE SWAP1 KECCAK256 SSTORE JUMPDEST PUSH1 0x0 DUP4 DUP2 MSTORE PUSH1 0xF PUSH1 0x20 MSTORE PUSH1 0x40 SWAP1 KECCAK256 SLOAD PUSH2 0x32F1 SWAP1 DUP3 SWAP1 PUSH2 0x55CD JUMP JUMPDEST PUSH1 0x0 DUP5 DUP2 MSTORE PUSH1 0xF PUSH1 0x20 MSTORE PUSH1 0x40 SWAP1 KECCAK256 SSTORE PUSH2 0x3309 DUP3 PUSH2 0x2A62 JUMP JUMPDEST PUSH2 0x3326 JUMPI PUSH2 0x3321 DUP5 DUP4 PUSH2 0x331B DUP7 PUSH2 0xB66 JUMP JUMPDEST DUP5 PUSH2 0x4318 JUMP JUMPDEST PUSH2 0x33CE JUMP JUMPDEST DUP4 PUSH1 0x1 PUSH1 0x1 PUSH1 0xA0 SHL SUB AND PUSH2 0x3339 DUP4 PUSH2 0x17F1 JUMP JUMPDEST PUSH1 0x1 PUSH1 0x1 PUSH1 0xA0 SHL SUB AND EQ PUSH2 0x3375 JUMPI PUSH1 0x40 MLOAD PUSH3 0x461BCD PUSH1 0xE5 SHL DUP2 MSTORE PUSH1 0x20 PUSH1 0x4 DUP3 ADD MSTORE PUSH1 0x3 PUSH1 0x24 DUP3 ADD MSTORE PUSH3 0x4E3131 PUSH1 0xE8 SHL PUSH1 0x44 DUP3 ADD MSTORE PUSH1 0x64 ADD PUSH2 0x9EA JUMP JUMPDEST PUSH2 0x337E DUP3 PUSH2 0xB66 JUMP JUMPDEST PUSH2 0x3387 DUP5 PUSH2 0xB66 JUMP JUMPDEST EQ PUSH2 0x33A4 JUMPI PUSH1 0x40 MLOAD PUSH3 0x461BCD PUSH1 0xE5 SHL DUP2 MSTORE PUSH1 0x4 ADD PUSH2 0x9EA SWAP1 PUSH2 0x536A JUMP JUMPDEST PUSH1 0x0 DUP3 DUP2 MSTORE PUSH1 0xF PUSH1 0x20 MSTORE PUSH1 0x40 SWAP1 KECCAK256 SLOAD PUSH2 0x33BE SWAP1 DUP3 SWAP1 PUSH2 0x5494 JUMP JUMPDEST PUSH1 0x0 DUP4 DUP2 MSTORE PUSH1 0xF PUSH1 0x20 MSTORE PUSH1 0x40 SWAP1 KECCAK256 SSTORE JUMPDEST PUSH1 0x0 DUP4 DUP2 MSTORE PUSH1 0xA PUSH1 0x20 MSTORE PUSH1 0x40 DUP1 DUP3 KECCAK256 SLOAD DUP5 DUP4 MSTORE SWAP2 DUP2 SWAP1 KECCAK256 SWAP2 SWAP1 SWAP2 SSTORE MLOAD DUP4 SWAP1 PUSH1 0x1 PUSH1 0x1 PUSH1 0xA0 SHL SUB DUP1 DUP8 AND SWAP2 SWAP1 DUP9 AND SWAP1 PUSH1 0x0 DUP1 MLOAD PUSH1 0x20 PUSH2 0x575F DUP4 CODECOPY DUP2 MLOAD SWAP2 MSTORE SWAP1 PUSH2 0x3419 SWAP1 DUP8 SWAP1 DUP8 SWAP1 PUSH2 0x52BE JUMP JUMPDEST PUSH1 0x40 MLOAD DUP1 SWAP2 SUB SWAP1 LOG4 POP POP POP POP POP JUMP JUMPDEST PUSH1 0x13 DUP1 SLOAD PUSH1 0x0 SWAP2 DUP3 PUSH2 0x3439 DUP4 PUSH2 0x565C JUMP JUMPDEST SWAP2 SWAP1 POP SSTORE SWAP1 POP SWAP1 JUMP JUMPDEST PUSH1 0x0 DUP4 DUP4 DUP4 DUP8 PUSH1 0x40 MLOAD PUSH1 0x20 ADD PUSH2 0x345B SWAP5 SWAP4 SWAP3 SWAP2 SWAP1 PUSH2 0x5454 JUMP JUMPDEST PUSH1 0x40 DUP1 MLOAD DUP1 DUP4 SUB PUSH1 0x1F NOT ADD DUP2 MSTORE SWAP2 DUP2 MSTORE DUP2 MLOAD PUSH1 0x20 SWAP3 DUP4 ADD KECCAK256 PUSH1 0x0 DUP2 DUP2 MSTORE PUSH1 0x1C SWAP1 SWAP4 MSTORE SWAP2 KECCAK256 PUSH1 0x2 ADD SLOAD SWAP1 SWAP2 POP PUSH2 0x100 SWAP1 DIV PUSH1 0xFF AND ISZERO PUSH2 0x34C1 JUMPI PUSH1 0x40 MLOAD PUSH3 0x461BCD PUSH1 0xE5 SHL DUP2 MSTORE PUSH1 0x20 PUSH1 0x4 DUP3 ADD MSTORE PUSH1 0x3 PUSH1 0x24 DUP3 ADD MSTORE PUSH3 0x138C4D PUSH1 0xEA SHL PUSH1 0x44 DUP3 ADD MSTORE PUSH1 0x64 ADD PUSH2 0x9EA JUMP JUMPDEST PUSH1 0x40 MLOAD DUP1 PUSH1 0x80 ADD PUSH1 0x40 MSTORE DUP1 DUP6 DUP2 MSTORE PUSH1 0x20 ADD DUP5 DUP2 MSTORE PUSH1 0x20 ADD DUP4 PUSH1 0x2 DUP2 GT ISZERO PUSH2 0x34F8 JUMPI PUSH4 0x4E487B71 PUSH1 0xE0 SHL PUSH1 0x0 MSTORE PUSH1 0x21 PUSH1 0x4 MSTORE PUSH1 0x24 PUSH1 0x0 REVERT JUMPDEST DUP2 MSTORE PUSH1 0x1 PUSH1 0x20 SWAP2 DUP3 ADD DUP2 SWAP1 MSTORE PUSH1 0x0 DUP5 DUP2 MSTORE PUSH1 0x1C DUP4 MSTORE PUSH1 0x40 SWAP1 DUP2 SWAP1 KECCAK256 DUP5 MLOAD DUP2 SSTORE SWAP3 DUP5 ADD MLOAD DUP4 DUP4 ADD SSTORE DUP4 ADD MLOAD PUSH1 0x2 DUP1 DUP5 ADD DUP1 SLOAD SWAP3 SWAP4 SWAP1 SWAP3 PUSH1 0xFF NOT AND SWAP2 DUP5 SWAP1 DUP2 GT ISZERO PUSH2 0x3551 JUMPI PUSH4 0x4E487B71 PUSH1 0xE0 SHL PUSH1 0x0 MSTORE PUSH1 0x21 PUSH1 0x4 MSTORE PUSH1 0x24 PUSH1 0x0 REVERT JUMPDEST MUL OR SWAP1 SSTORE POP PUSH1 0x60 SWAP2 SWAP1 SWAP2 ADD MLOAD PUSH1 0x2 SWAP1 SWAP2 ADD DUP1 SLOAD SWAP2 ISZERO ISZERO PUSH2 0x100 MUL PUSH2 0xFF00 NOT SWAP1 SWAP3 AND SWAP2 SWAP1 SWAP2 OR SWAP1 SSTORE SWAP5 SWAP4 POP POP POP POP JUMP JUMPDEST PUSH1 0x0 DUP4 DUP2 MSTORE PUSH1 0xA PUSH1 0x20 MSTORE PUSH1 0x40 SWAP1 KECCAK256 DUP2 SWAP1 SSTORE PUSH1 0xD SLOAD PUSH2 0xB1B SWAP1 DUP4 SWAP1 DUP6 SWAP1 DUP5 SWAP1 PUSH2 0x4318 JUMP JUMPDEST PUSH1 0x0 PUSH1 0x64 PUSH1 0x1B PUSH1 0x0 SWAP1 SLOAD SWAP1 PUSH2 0x100 EXP SWAP1 DIV PUSH1 0x1 PUSH1 0x1 PUSH1 0xA0 SHL SUB AND PUSH1 0x1 PUSH1 0x1 PUSH1 0xA0 SHL SUB AND PUSH4 0xCA535C3B PUSH1 0x40 MLOAD DUP2 PUSH4 0xFFFFFFFF AND PUSH1 0xE0 SHL DUP2 MSTORE PUSH1 0x4 ADD PUSH1 0x20 PUSH1 0x40 MLOAD DUP1 DUP4 SUB DUP2 DUP7 DUP1 EXTCODESIZE ISZERO DUP1 ISZERO PUSH2 0x35F5 JUMPI PUSH1 0x0 DUP1 REVERT JUMPDEST POP GAS STATICCALL ISZERO DUP1 ISZERO PUSH2 0x3609 JUMPI RETURNDATASIZE PUSH1 0x0 DUP1 RETURNDATACOPY RETURNDATASIZE PUSH1 0x0 REVERT JUMPDEST POP POP POP POP PUSH1 0x40 MLOAD RETURNDATASIZE PUSH1 0x1F NOT PUSH1 0x1F DUP3 ADD AND DUP3 ADD DUP1 PUSH1 0x40 MSTORE POP DUP2 ADD SWAP1 PUSH2 0x362D SWAP2 SWAP1 PUSH2 0x4F75 JUMP JUMPDEST PUSH2 0x3637 SWAP1 DUP6 PUSH2 0x55AE JUMP JUMPDEST PUSH2 0x3641 SWAP2 SWAP1 PUSH2 0x54AC JUMP JUMPDEST SWAP1 POP DUP1 ISZERO PUSH2 0x3742 JUMPI PUSH1 0x10 SLOAD PUSH1 0x1B SLOAD PUSH1 0x40 DUP1 MLOAD PUSH4 0x605CC77 PUSH1 0xE2 SHL DUP2 MSTORE SWAP1 MLOAD PUSH1 0x1 PUSH1 0x1 PUSH1 0xA0 SHL SUB SWAP4 DUP5 AND SWAP4 PUSH4 0xA9059CBB SWAP4 AND SWAP2 PUSH4 0x181731DC SWAP2 PUSH1 0x4 DUP1 DUP4 ADD SWAP3 PUSH1 0x20 SWAP3 SWAP2 SWAP1 DUP3 SWAP1 SUB ADD DUP2 DUP7 DUP1 EXTCODESIZE ISZERO DUP1 ISZERO PUSH2 0x3698 JUMPI PUSH1 0x0 DUP1 REVERT JUMPDEST POP GAS STATICCALL ISZERO DUP1 ISZERO PUSH2 0x36AC JUMPI RETURNDATASIZE PUSH1 0x0 DUP1 RETURNDATACOPY RETURNDATASIZE PUSH1 0x0 REVERT JUMPDEST POP POP POP POP PUSH1 0x40 MLOAD RETURNDATASIZE PUSH1 0x1F NOT PUSH1 0x1F DUP3 ADD AND DUP3 ADD DUP1 PUSH1 0x40 MSTORE POP DUP2 ADD SWAP1 PUSH2 0x36D0 SWAP2 SWAP1 PUSH2 0x4BD0 JUMP JUMPDEST DUP4 PUSH1 0x40 MLOAD DUP4 PUSH4 0xFFFFFFFF AND PUSH1 0xE0 SHL DUP2 MSTORE PUSH1 0x4 ADD PUSH2 0x36EE SWAP3 SWAP2 SWAP1 PUSH2 0x5206 JUMP JUMPDEST PUSH1 0x20 PUSH1 0x40 MLOAD DUP1 DUP4 SUB DUP2 PUSH1 0x0 DUP8 DUP1 EXTCODESIZE ISZERO DUP1 ISZERO PUSH2 0x3708 JUMPI PUSH1 0x0 DUP1 REVERT JUMPDEST POP GAS CALL ISZERO DUP1 ISZERO PUSH2 0x371C JUMPI RETURNDATASIZE PUSH1 0x0 DUP1 RETURNDATACOPY RETURNDATASIZE PUSH1 0x0 REVERT JUMPDEST POP POP POP POP PUSH1 0x40 MLOAD RETURNDATASIZE PUSH1 0x1F NOT PUSH1 0x1F DUP3 ADD AND DUP3 ADD DUP1 PUSH1 0x40 MSTORE POP DUP2 ADD SWAP1 PUSH2 0x3740 SWAP2 SWAP1 PUSH2 0x4EE5 JUMP JUMPDEST POP JUMPDEST PUSH1 0x0 PUSH2 0x374E DUP3 DUP6 PUSH2 0x55CD JUMP JUMPDEST SWAP1 POP DUP1 ISZERO PUSH2 0x3A5D JUMPI PUSH1 0x1B SLOAD PUSH1 0x40 DUP1 MLOAD PUSH4 0x4905129F PUSH1 0xE1 SHL DUP2 MSTORE SWAP1 MLOAD PUSH1 0x0 SWAP3 PUSH1 0x1 PUSH1 0x1 PUSH1 0xA0 SHL SUB AND SWAP2 PUSH4 0x920A253E SWAP2 PUSH1 0x4 DUP1 DUP4 ADD SWAP3 PUSH1 0x20 SWAP3 SWAP2 SWAP1 DUP3 SWAP1 SUB ADD DUP2 DUP7 DUP1 EXTCODESIZE ISZERO DUP1 ISZERO PUSH2 0x379B JUMPI PUSH1 0x0 DUP1 REVERT JUMPDEST POP GAS STATICCALL ISZERO DUP1 ISZERO PUSH2 0x37AF JUMPI RETURNDATASIZE PUSH1 0x0 DUP1 RETURNDATACOPY RETURNDATASIZE PUSH1 0x0 REVERT JUMPDEST POP POP POP POP PUSH1 0x40 MLOAD RETURNDATASIZE PUSH1 0x1F NOT PUSH1 0x1F DUP3 ADD AND DUP3 ADD DUP1 PUSH1 0x40 MSTORE POP DUP2 ADD SWAP1 PUSH2 0x37D3 SWAP2 SWAP1 PUSH2 0x4F75 JUMP JUMPDEST GT DUP1 ISZERO PUSH2 0x37F9 JUMPI POP PUSH2 0x37E3 PUSH2 0x1F22 JUMP JUMPDEST PUSH1 0x1 PUSH1 0x1 PUSH1 0xA0 SHL SUB AND DUP4 PUSH1 0x1 PUSH1 0x1 PUSH1 0xA0 SHL SUB AND EQ ISZERO JUMPDEST DUP1 ISZERO PUSH2 0x380E JUMPI POP PUSH1 0x1 PUSH1 0x1 PUSH1 0xA0 SHL SUB DUP4 AND CALLER EQ ISZERO JUMPDEST ISZERO PUSH2 0x3988 JUMPI PUSH1 0x0 PUSH1 0x64 PUSH1 0x1B PUSH1 0x0 SWAP1 SLOAD SWAP1 PUSH2 0x100 EXP SWAP1 DIV PUSH1 0x1 PUSH1 0x1 PUSH1 0xA0 SHL SUB AND PUSH1 0x1 PUSH1 0x1 PUSH1 0xA0 SHL SUB AND PUSH4 0x920A253E PUSH1 0x40 MLOAD DUP2 PUSH4 0xFFFFFFFF AND PUSH1 0xE0 SHL DUP2 MSTORE PUSH1 0x4 ADD PUSH1 0x20 PUSH1 0x40 MLOAD DUP1 DUP4 SUB DUP2 DUP7 DUP1 EXTCODESIZE ISZERO DUP1 ISZERO PUSH2 0x3865 JUMPI PUSH1 0x0 DUP1 REVERT JUMPDEST POP GAS STATICCALL ISZERO DUP1 ISZERO PUSH2 0x3879 JUMPI RETURNDATASIZE PUSH1 0x0 DUP1 RETURNDATACOPY RETURNDATASIZE PUSH1 0x0 REVERT JUMPDEST POP POP POP POP PUSH1 0x40 MLOAD RETURNDATASIZE PUSH1 0x1F NOT PUSH1 0x1F DUP3 ADD AND DUP3 ADD DUP1 PUSH1 0x40 MSTORE POP DUP2 ADD SWAP1 PUSH2 0x389D SWAP2 SWAP1 PUSH2 0x4F75 JUMP JUMPDEST PUSH2 0x38A7 SWAP1 DUP5 PUSH2 0x55AE JUMP JUMPDEST PUSH2 0x38B1 SWAP2 SWAP1 PUSH2 0x54AC JUMP JUMPDEST SWAP1 POP PUSH2 0x38BD DUP2 DUP4 PUSH2 0x55CD JUMP JUMPDEST PUSH1 0x10 SLOAD PUSH1 0x40 MLOAD PUSH4 0xA9059CBB PUSH1 0xE0 SHL DUP2 MSTORE SWAP2 SWAP4 POP PUSH1 0x1 PUSH1 0x1 PUSH1 0xA0 SHL SUB AND SWAP1 PUSH4 0xA9059CBB SWAP1 PUSH2 0x38F0 SWAP1 DUP8 SWAP1 DUP6 SWAP1 PUSH1 0x4 ADD PUSH2 0x5206 JUMP JUMPDEST PUSH1 0x20 PUSH1 0x40 MLOAD DUP1 DUP4 SUB DUP2 PUSH1 0x0 DUP8 DUP1 EXTCODESIZE ISZERO DUP1 ISZERO PUSH2 0x390A JUMPI PUSH1 0x0 DUP1 REVERT JUMPDEST POP GAS CALL ISZERO DUP1 ISZERO PUSH2 0x391E JUMPI RETURNDATASIZE PUSH1 0x0 DUP1 RETURNDATACOPY RETURNDATASIZE PUSH1 0x0 REVERT JUMPDEST POP POP POP POP PUSH1 0x40 MLOAD RETURNDATASIZE PUSH1 0x1F NOT PUSH1 0x1F DUP3 ADD AND DUP3 ADD DUP1 PUSH1 0x40 MSTORE POP DUP2 ADD SWAP1 PUSH2 0x3942 SWAP2 SWAP1 PUSH2 0x4EE5 JUMP JUMPDEST POP DUP4 PUSH1 0x1 PUSH1 0x1 PUSH1 0xA0 SHL SUB AND PUSH32 0x2FC41B7D7DF3272C17D9B581FCF235307BC027599C6ED68442C4100BD3A84198 DUP3 PUSH1 0x40 MLOAD PUSH2 0x397E SWAP2 DUP2 MSTORE PUSH1 0x20 ADD SWAP1 JUMP JUMPDEST PUSH1 0x40 MLOAD DUP1 SWAP2 SUB SWAP1 LOG2 POP JUMPDEST PUSH1 0x10 SLOAD PUSH1 0x1 PUSH1 0x1 PUSH1 0xA0 SHL SUB AND PUSH4 0xA9059CBB PUSH2 0x39A1 PUSH2 0x1F22 JUMP JUMPDEST DUP4 PUSH1 0x40 MLOAD DUP4 PUSH4 0xFFFFFFFF AND PUSH1 0xE0 SHL DUP2 MSTORE PUSH1 0x4 ADD PUSH2 0x39BF SWAP3 SWAP2 SWAP1 PUSH2 0x5206 JUMP JUMPDEST PUSH1 0x20 PUSH1 0x40 MLOAD DUP1 DUP4 SUB DUP2 PUSH1 0x0 DUP8 DUP1 EXTCODESIZE ISZERO DUP1 ISZERO PUSH2 0x39D9 JUMPI PUSH1 0x0 DUP1 REVERT JUMPDEST POP GAS CALL ISZERO DUP1 ISZERO PUSH2 0x39ED JUMPI RETURNDATASIZE PUSH1 0x0 DUP1 RETURNDATACOPY RETURNDATASIZE PUSH1 0x0 REVERT JUMPDEST POP POP POP POP PUSH1 0x40 MLOAD RETURNDATASIZE PUSH1 0x1F NOT PUSH1 0x1F DUP3 ADD AND DUP3 ADD DUP1 PUSH1 0x40 MSTORE POP DUP2 ADD SWAP1 PUSH2 0x3A11 SWAP2 SWAP1 PUSH2 0x4EE5 JUMP JUMPDEST POP PUSH2 0x3A1A PUSH2 0x1F22 JUMP JUMPDEST PUSH1 0x1 PUSH1 0x1 PUSH1 0xA0 SHL SUB AND PUSH32 0xF0F0487D8990103573E0E5CF4E87E101E2A1BA84C733C556B7A5807E570E5D4C DUP3 PUSH1 0x40 MLOAD PUSH2 0x3A54 SWAP2 DUP2 MSTORE PUSH1 0x20 ADD SWAP1 JUMP JUMPDEST PUSH1 0x40 MLOAD DUP1 SWAP2 SUB SWAP1 LOG2 JUMPDEST POP SWAP3 SWAP2 POP POP JUMP JUMPDEST PUSH1 0x1A SLOAD PUSH1 0x40 MLOAD PUSH4 0xEDD0D421 PUSH1 0xE0 SHL DUP2 MSTORE PUSH1 0x1 PUSH1 0x1 PUSH1 0xA0 SHL SUB SWAP1 SWAP2 AND SWAP1 PUSH4 0xEDD0D421 SWAP1 PUSH2 0x3A98 SWAP1 DUP7 SWAP1 DUP7 SWAP1 DUP7 SWAP1 PUSH1 0x4 ADD PUSH2 0x547E JUMP JUMPDEST PUSH1 0x0 PUSH1 0x40 MLOAD DUP1 DUP4 SUB DUP2 PUSH1 0x0 DUP8 DUP1 EXTCODESIZE ISZERO DUP1 ISZERO PUSH2 0x3AB2 JUMPI PUSH1 0x0 DUP1 REVERT JUMPDEST POP GAS CALL ISZERO DUP1 ISZERO PUSH2 0x3AC6 JUMPI RETURNDATASIZE PUSH1 0x0 DUP1 RETURNDATACOPY RETURNDATASIZE PUSH1 0x0 REVERT JUMPDEST POP POP POP POP POP POP POP JUMP JUMPDEST PUSH2 0x3AD9 CALLER DUP5 PUSH2 0x2AED JUMP JUMPDEST PUSH2 0x3B0A JUMPI PUSH1 0x40 MLOAD PUSH3 0x461BCD PUSH1 0xE5 SHL DUP2 MSTORE PUSH1 0x20 PUSH1 0x4 DUP3 ADD MSTORE PUSH1 0x2 PUSH1 0x24 DUP3 ADD MSTORE PUSH2 0x2719 PUSH1 0xF1 SHL PUSH1 0x44 DUP3 ADD MSTORE PUSH1 0x64 ADD PUSH2 0x9EA JUMP JUMPDEST PUSH2 0x3B13 DUP3 PUSH2 0x2A62 JUMP JUMPDEST ISZERO PUSH2 0x3B45 JUMPI PUSH1 0x40 MLOAD PUSH3 0x461BCD PUSH1 0xE5 SHL DUP2 MSTORE PUSH1 0x20 PUSH1 0x4 DUP3 ADD MSTORE PUSH1 0x2 PUSH1 0x24 DUP3 ADD MSTORE PUSH2 0x4E33 PUSH1 0xF0 SHL PUSH1 0x44 DUP3 ADD MSTORE PUSH1 0x64 ADD PUSH2 0x9EA JUMP JUMPDEST PUSH2 0x3B64 DUP3 PUSH2 0x3B52 DUP6 PUSH2 0xB66 JUMP JUMPDEST PUSH1 0x0 SWAP2 DUP3 MSTORE PUSH1 0xA PUSH1 0x20 MSTORE PUSH1 0x40 SWAP1 SWAP2 KECCAK256 SSTORE JUMP JUMPDEST PUSH1 0x0 DUP4 DUP2 MSTORE PUSH1 0xF PUSH1 0x20 MSTORE PUSH1 0x40 SWAP1 KECCAK256 SLOAD PUSH2 0x3B7E SWAP1 DUP3 SWAP1 PUSH2 0x55CD JUMP JUMPDEST PUSH1 0x0 DUP5 DUP2 MSTORE PUSH1 0xF PUSH1 0x20 MSTORE PUSH1 0x40 DUP2 KECCAK256 SWAP2 SWAP1 SWAP2 SSTORE PUSH2 0x3B99 DUP5 PUSH2 0x17F1 JUMP JUMPDEST SWAP1 POP PUSH2 0x3BAF DUP2 DUP5 PUSH2 0x3BA9 DUP8 PUSH2 0xB66 JUMP JUMPDEST DUP6 PUSH2 0x4318 JUMP JUMPDEST DUP4 DUP2 PUSH1 0x1 PUSH1 0x1 PUSH1 0xA0 SHL SUB AND PUSH32 0xF66885C33D648FCD0D97E0F2A18E30102169C22763473AF0FB716F11B4A17DD6 DUP6 DUP6 PUSH1 0x40 MLOAD PUSH2 0x3BEB SWAP3 SWAP2 SWAP1 PUSH2 0x52BE JUMP JUMPDEST PUSH1 0x40 MLOAD DUP1 SWAP2 SUB SWAP1 LOG3 POP POP POP POP JUMP JUMPDEST PUSH1 0x0 DUP3 DUP2 MSTORE PUSH1 0x14 PUSH1 0x20 MSTORE PUSH1 0x40 SWAP1 KECCAK256 DUP2 MLOAD DUP2 SLOAD DUP4 SWAP3 SWAP2 SWAP1 DUP3 SWAP1 PUSH1 0xFF NOT AND PUSH1 0x1 DUP4 PUSH1 0x3 DUP2 GT ISZERO PUSH2 0x3C37 JUMPI PUSH4 0x4E487B71 PUSH1 0xE0 SHL PUSH1 0x0 MSTORE PUSH1 0x21 PUSH1 0x4 MSTORE PUSH1 0x24 PUSH1 0x0 REVERT JUMPDEST MUL OR SWAP1 SSTORE POP PUSH1 0x20 DUP3 ADD MLOAD DUP2 PUSH1 0x1 ADD SSTORE PUSH1 0x40 DUP3 ADD MLOAD DUP2 PUSH1 0x2 ADD SSTORE PUSH1 0x60 DUP3 ADD MLOAD DUP2 PUSH1 0x3 ADD SSTORE PUSH1 0x80 DUP3 ADD MLOAD DUP2 PUSH1 0x4 ADD SSTORE PUSH1 0xA0 DUP3 ADD MLOAD DUP2 PUSH1 0x5 ADD SSTORE PUSH1 0xC0 DUP3 ADD MLOAD DUP2 PUSH1 0x6 ADD PUSH1 0x0 PUSH2 0x100 EXP DUP2 SLOAD DUP2 PUSH1 0xFF MUL NOT AND SWAP1 DUP4 PUSH1 0x2 DUP2 GT ISZERO PUSH2 0x3CA6 JUMPI PUSH4 0x4E487B71 PUSH1 0xE0 SHL PUSH1 0x0 MSTORE PUSH1 0x21 PUSH1 0x4 MSTORE PUSH1 0x24 PUSH1 0x0 REVERT JUMPDEST MUL OR SWAP1 SSTORE POP PUSH1 0xE0 DUP3 ADD MLOAD PUSH1 0x7 DUP3 ADD SSTORE PUSH2 0x100 SWAP1 SWAP2 ADD MLOAD PUSH1 0x8 SWAP1 SWAP2 ADD SSTORE POP POP JUMP JUMPDEST PUSH1 0x0 DUP1 SLOAD PUSH1 0x1 PUSH1 0x1 PUSH1 0xA0 SHL SUB DUP4 DUP2 AND PUSH1 0x1 PUSH1 0x1 PUSH1 0xA0 SHL SUB NOT DUP4 AND DUP2 OR DUP5 SSTORE PUSH1 0x40 MLOAD SWAP2 SWAP1 SWAP3 AND SWAP3 DUP4 SWAP2 PUSH32 0x8BE0079C531659141344CD1FD0A4F28419497F9722A3DAAFE3B4186F6B6457E0 SWAP2 SWAP1 LOG3 POP POP JUMP JUMPDEST PUSH1 0x0 PUSH2 0x8A5 DUP3 SLOAD SWAP1 JUMP JUMPDEST PUSH2 0x3D2B DUP5 DUP5 DUP5 PUSH2 0x2BB7 JUMP JUMPDEST PUSH2 0x3D37 DUP5 DUP5 DUP5 DUP5 PUSH2 0x43A2 JUMP JUMPDEST PUSH2 0x17EB JUMPI PUSH1 0x40 MLOAD PUSH3 0x461BCD PUSH1 0xE5 SHL DUP2 MSTORE PUSH1 0x4 ADD PUSH2 0x9EA SWAP1 PUSH2 0x52FB JUMP JUMPDEST PUSH2 0x3D5C CALLER PUSH2 0x234D JUMP JUMPDEST PUSH2 0x3D8D JUMPI PUSH1 0x40 MLOAD PUSH3 0x461BCD PUSH1 0xE5 SHL DUP2 MSTORE PUSH1 0x20 PUSH1 0x4 DUP3 ADD MSTORE PUSH1 0x2 PUSH1 0x24 DUP3 ADD MSTORE PUSH2 0x4E35 PUSH1 0xF0 SHL PUSH1 0x44 DUP3 ADD MSTORE PUSH1 0x64 ADD PUSH2 0x9EA JUMP JUMPDEST DUP1 DUP3 EQ ISZERO PUSH2 0x3DC2 JUMPI PUSH1 0x40 MLOAD PUSH3 0x461BCD PUSH1 0xE5 SHL DUP2 MSTORE PUSH1 0x20 PUSH1 0x4 DUP3 ADD MSTORE PUSH1 0x2 PUSH1 0x24 DUP3 ADD MSTORE PUSH2 0x271B PUSH1 0xF1 SHL PUSH1 0x44 DUP3 ADD MSTORE PUSH1 0x64 ADD PUSH2 0x9EA JUMP JUMPDEST PUSH2 0x3DCB DUP2 PUSH2 0xB66 JUMP JUMPDEST PUSH2 0x3DD4 DUP4 PUSH2 0xB66 JUMP JUMPDEST EQ PUSH2 0x3DF1 JUMPI PUSH1 0x40 MLOAD PUSH3 0x461BCD PUSH1 0xE5 SHL DUP2 MSTORE PUSH1 0x4 ADD PUSH2 0x9EA SWAP1 PUSH2 0x536A JUMP JUMPDEST PUSH1 0x0 PUSH2 0x3DFC DUP4 PUSH2 0x17F1 JUMP JUMPDEST SWAP1 POP PUSH2 0x3E07 DUP3 PUSH2 0x17F1 JUMP JUMPDEST PUSH1 0x1 PUSH1 0x1 PUSH1 0xA0 SHL SUB AND DUP2 PUSH1 0x1 PUSH1 0x1 PUSH1 0xA0 SHL SUB AND EQ PUSH2 0x3E4C JUMPI PUSH1 0x40 MLOAD PUSH3 0x461BCD PUSH1 0xE5 SHL DUP2 MSTORE PUSH1 0x20 PUSH1 0x4 DUP3 ADD MSTORE PUSH1 0x2 PUSH1 0x24 DUP3 ADD MSTORE PUSH2 0x9C7 PUSH1 0xF3 SHL PUSH1 0x44 DUP3 ADD MSTORE PUSH1 0x64 ADD PUSH2 0x9EA JUMP JUMPDEST PUSH1 0x0 DUP4 DUP2 MSTORE PUSH1 0xF PUSH1 0x20 MSTORE PUSH1 0x40 DUP1 DUP3 KECCAK256 SLOAD DUP5 DUP4 MSTORE SWAP2 KECCAK256 SLOAD PUSH2 0x3E6C SWAP1 DUP3 PUSH2 0x5494 JUMP JUMPDEST PUSH1 0x0 DUP5 DUP2 MSTORE PUSH1 0xF PUSH1 0x20 MSTORE PUSH1 0x40 SWAP1 KECCAK256 SSTORE PUSH2 0x3E84 DUP5 PUSH2 0x2F66 JUMP JUMPDEST DUP3 DUP5 DUP4 PUSH1 0x1 PUSH1 0x1 PUSH1 0xA0 SHL SUB AND PUSH32 0xB3CE851D16B3BBEC3774D5631A3893DFA2A80E067CFAD265DD594402AC3D6096 DUP5 PUSH1 0x40 MLOAD PUSH2 0x3EC1 SWAP2 DUP2 MSTORE PUSH1 0x20 ADD SWAP1 JUMP JUMPDEST PUSH1 0x40 MLOAD DUP1 SWAP2 SUB SWAP1 LOG4 POP POP POP POP JUMP JUMPDEST PUSH1 0x60 PUSH2 0x3EDA DUP3 PUSH2 0x2A62 JUMP JUMPDEST PUSH2 0x3F40 JUMPI PUSH1 0x40 MLOAD PUSH3 0x461BCD PUSH1 0xE5 SHL DUP2 MSTORE PUSH1 0x20 PUSH1 0x4 DUP3 ADD MSTORE PUSH1 0x31 PUSH1 0x24 DUP3 ADD MSTORE PUSH32 0x45524337323155524953746F726167653A2055524920717565727920666F7220 PUSH1 0x44 DUP3 ADD MSTORE PUSH17 0x3737B732BC34B9BA32B73A103A37B5B2B7 PUSH1 0x79 SHL PUSH1 0x64 DUP3 ADD MSTORE PUSH1 0x84 ADD PUSH2 0x9EA JUMP JUMPDEST PUSH1 0x0 DUP3 DUP2 MSTORE PUSH1 0x9 PUSH1 0x20 MSTORE PUSH1 0x40 DUP2 KECCAK256 DUP1 SLOAD PUSH2 0x3F59 SWAP1 PUSH2 0x5627 JUMP JUMPDEST DUP1 PUSH1 0x1F ADD PUSH1 0x20 DUP1 SWAP2 DIV MUL PUSH1 0x20 ADD PUSH1 0x40 MLOAD SWAP1 DUP2 ADD PUSH1 0x40 MSTORE DUP1 SWAP3 SWAP2 SWAP1 DUP2 DUP2 MSTORE PUSH1 0x20 ADD DUP3 DUP1 SLOAD PUSH2 0x3F85 SWAP1 PUSH2 0x5627 JUMP JUMPDEST DUP1 ISZERO PUSH2 0x3FD2 JUMPI DUP1 PUSH1 0x1F LT PUSH2 0x3FA7 JUMPI PUSH2 0x100 DUP1 DUP4 SLOAD DIV MUL DUP4 MSTORE SWAP2 PUSH1 0x20 ADD SWAP2 PUSH2 0x3FD2 JUMP JUMPDEST DUP3 ADD SWAP2 SWAP1 PUSH1 0x0 MSTORE PUSH1 0x20 PUSH1 0x0 KECCAK256 SWAP1 JUMPDEST DUP2 SLOAD DUP2 MSTORE SWAP1 PUSH1 0x1 ADD SWAP1 PUSH1 0x20 ADD DUP1 DUP4 GT PUSH2 0x3FB5 JUMPI DUP3 SWAP1 SUB PUSH1 0x1F AND DUP3 ADD SWAP2 JUMPDEST POP POP POP POP POP SWAP1 POP PUSH1 0x0 PUSH2 0x3FE3 PUSH2 0x44AF JUMP JUMPDEST SWAP1 POP DUP1 MLOAD PUSH1 0x0 EQ ISZERO PUSH2 0x3FF6 JUMPI POP SWAP3 SWAP2 POP POP JUMP JUMPDEST DUP2 MLOAD ISZERO PUSH2 0x4028 JUMPI DUP1 DUP3 PUSH1 0x40 MLOAD PUSH1 0x20 ADD PUSH2 0x4010 SWAP3 SWAP2 SWAP1 PUSH2 0x512B JUMP JUMPDEST PUSH1 0x40 MLOAD PUSH1 0x20 DUP2 DUP4 SUB SUB DUP2 MSTORE SWAP1 PUSH1 0x40 MSTORE SWAP3 POP POP POP SWAP2 SWAP1 POP JUMP JUMPDEST PUSH2 0x2BAF DUP5 PUSH2 0x44CF JUMP JUMPDEST PUSH1 0x0 PUSH2 0x25F0 DUP4 DUP4 PUSH2 0x4599 JUMP JUMPDEST PUSH1 0x0 PUSH1 0x1 PUSH1 0x1 PUSH1 0xE0 SHL SUB NOT DUP3 AND PUSH4 0x80AC58CD PUSH1 0xE0 SHL EQ DUP1 PUSH2 0x406E JUMPI POP PUSH1 0x1 PUSH1 0x1 PUSH1 0xE0 SHL SUB NOT DUP3 AND PUSH4 0x5B5E139F PUSH1 0xE0 SHL EQ JUMPDEST DUP1 PUSH2 0x8A5 JUMPI POP PUSH4 0x1FFC9A7 PUSH1 0xE0 SHL PUSH1 0x1 PUSH1 0x1 PUSH1 0xE0 SHL SUB NOT DUP4 AND EQ PUSH2 0x8A5 JUMP JUMPDEST PUSH1 0x1 PUSH1 0x1 PUSH1 0xA0 SHL SUB DUP4 AND ISZERO PUSH2 0xB1B JUMPI PUSH2 0xB1B DUP2 PUSH2 0x45D1 JUMP JUMPDEST PUSH1 0x60 PUSH1 0x0 PUSH2 0x40B4 DUP4 PUSH1 0x2 PUSH2 0x55AE JUMP JUMPDEST PUSH2 0x40BF SWAP1 PUSH1 0x2 PUSH2 0x5494 JUMP JUMPDEST PUSH1 0x1 PUSH1 0x1 PUSH1 0x40 SHL SUB DUP2 GT ISZERO PUSH2 0x40E4 JUMPI PUSH4 0x4E487B71 PUSH1 0xE0 SHL PUSH1 0x0 MSTORE PUSH1 0x41 PUSH1 0x4 MSTORE PUSH1 0x24 PUSH1 0x0 REVERT JUMPDEST PUSH1 0x40 MLOAD SWAP1 DUP1 DUP3 MSTORE DUP1 PUSH1 0x1F ADD PUSH1 0x1F NOT AND PUSH1 0x20 ADD DUP3 ADD PUSH1 0x40 MSTORE DUP1 ISZERO PUSH2 0x410E JUMPI PUSH1 0x20 DUP3 ADD DUP2 DUP1 CALLDATASIZE DUP4 CALLDATACOPY ADD SWAP1 POP JUMPDEST POP SWAP1 POP PUSH1 0x3 PUSH1 0xFC SHL DUP2 PUSH1 0x0 DUP2 MLOAD DUP2 LT PUSH2 0x4137 JUMPI PUSH4 0x4E487B71 PUSH1 0xE0 SHL PUSH1 0x0 MSTORE PUSH1 0x32 PUSH1 0x4 MSTORE PUSH1 0x24 PUSH1 0x0 REVERT JUMPDEST PUSH1 0x20 ADD ADD SWAP1 PUSH1 0x1 PUSH1 0x1 PUSH1 0xF8 SHL SUB NOT AND SWAP1 DUP2 PUSH1 0x0 BYTE SWAP1 MSTORE8 POP PUSH1 0xF PUSH1 0xFB SHL DUP2 PUSH1 0x1 DUP2 MLOAD DUP2 LT PUSH2 0x4174 JUMPI PUSH4 0x4E487B71 PUSH1 0xE0 SHL PUSH1 0x0 MSTORE PUSH1 0x32 PUSH1 0x4 MSTORE PUSH1 0x24 PUSH1 0x0 REVERT JUMPDEST PUSH1 0x20 ADD ADD SWAP1 PUSH1 0x1 PUSH1 0x1 PUSH1 0xF8 SHL SUB NOT AND SWAP1 DUP2 PUSH1 0x0 BYTE SWAP1 MSTORE8 POP PUSH1 0x0 PUSH2 0x4198 DUP5 PUSH1 0x2 PUSH2 0x55AE JUMP JUMPDEST PUSH2 0x41A3 SWAP1 PUSH1 0x1 PUSH2 0x5494 JUMP JUMPDEST SWAP1 POP JUMPDEST PUSH1 0x1 DUP2 GT ISZERO PUSH2 0x4237 JUMPI PUSH16 0x181899199A1A9B1B9C1CB0B131B232B3 PUSH1 0x81 SHL DUP6 PUSH1 0xF AND PUSH1 0x10 DUP2 LT PUSH2 0x41E5 JUMPI PUSH4 0x4E487B71 PUSH1 0xE0 SHL PUSH1 0x0 MSTORE PUSH1 0x32 PUSH1 0x4 MSTORE PUSH1 0x24 PUSH1 0x0 REVERT JUMPDEST BYTE PUSH1 0xF8 SHL DUP3 DUP3 DUP2 MLOAD DUP2 LT PUSH2 0x4209 JUMPI PUSH4 0x4E487B71 PUSH1 0xE0 SHL PUSH1 0x0 MSTORE PUSH1 0x32 PUSH1 0x4 MSTORE PUSH1 0x24 PUSH1 0x0 REVERT JUMPDEST PUSH1 0x20 ADD ADD SWAP1 PUSH1 0x1 PUSH1 0x1 PUSH1 0xF8 SHL SUB NOT AND SWAP1 DUP2 PUSH1 0x0 BYTE SWAP1 MSTORE8 POP PUSH1 0x4 SWAP5 SWAP1 SWAP5 SHR SWAP4 PUSH2 0x4230 DUP2 PUSH2 0x5610 JUMP JUMPDEST SWAP1 POP PUSH2 0x41A6 JUMP JUMPDEST POP DUP4 ISZERO PUSH2 0x25F0 JUMPI PUSH1 0x40 MLOAD PUSH3 0x461BCD PUSH1 0xE5 SHL DUP2 MSTORE PUSH1 0x20 PUSH1 0x4 DUP3 ADD DUP2 SWAP1 MSTORE PUSH1 0x24 DUP3 ADD MSTORE PUSH32 0x537472696E67733A20686578206C656E67746820696E73756666696369656E74 PUSH1 0x44 DUP3 ADD MSTORE PUSH1 0x64 ADD PUSH2 0x9EA JUMP JUMPDEST PUSH1 0x0 PUSH2 0x4291 DUP3 PUSH2 0x17F1 JUMP JUMPDEST SWAP1 POP PUSH1 0x0 PUSH2 0x429E DUP4 PUSH2 0xB66 JUMP JUMPDEST PUSH1 0x0 DUP5 DUP2 MSTORE PUSH1 0xF PUSH1 0x20 SWAP1 DUP2 MSTORE PUSH1 0x40 DUP1 DUP4 KECCAK256 SLOAD DUP5 DUP5 MSTORE PUSH1 0xC SWAP1 SWAP3 MSTORE SWAP1 SWAP2 KECCAK256 SWAP2 SWAP3 POP SWAP1 PUSH2 0x42C9 SWAP1 DUP6 PUSH2 0x4685 JUMP JUMPDEST POP PUSH1 0x0 DUP5 DUP2 MSTORE PUSH1 0xF PUSH1 0x20 MSTORE PUSH1 0x40 DUP2 KECCAK256 SSTORE PUSH2 0x42E2 DUP5 PUSH2 0x4691 JUMP JUMPDEST DUP4 PUSH1 0x0 PUSH1 0x1 PUSH1 0x1 PUSH1 0xA0 SHL SUB AND DUP5 PUSH1 0x1 PUSH1 0x1 PUSH1 0xA0 SHL SUB AND PUSH1 0x0 DUP1 MLOAD PUSH1 0x20 PUSH2 0x575F DUP4 CODECOPY DUP2 MLOAD SWAP2 MSTORE PUSH1 0x0 DUP6 PUSH1 0x40 MLOAD PUSH2 0x3EC1 SWAP3 SWAP2 SWAP1 PUSH2 0x52BE JUMP JUMPDEST PUSH2 0x4321 DUP4 PUSH2 0x2A62 JUMP JUMPDEST PUSH2 0x4349 JUMPI PUSH2 0x432F DUP5 DUP5 PUSH2 0x4726 JUMP JUMPDEST PUSH1 0x0 DUP3 DUP2 MSTORE PUSH1 0xC PUSH1 0x20 MSTORE PUSH1 0x40 SWAP1 KECCAK256 PUSH2 0x4347 SWAP1 DUP5 PUSH2 0x4852 JUMP JUMPDEST POP JUMPDEST PUSH1 0x0 DUP4 DUP2 MSTORE PUSH1 0xF PUSH1 0x20 MSTORE PUSH1 0x40 SWAP1 KECCAK256 SLOAD PUSH2 0x4363 SWAP1 DUP3 SWAP1 PUSH2 0x5494 JUMP JUMPDEST PUSH1 0x0 DUP5 DUP2 MSTORE PUSH1 0xF PUSH1 0x20 MSTORE PUSH1 0x40 DUP1 DUP3 KECCAK256 SWAP3 SWAP1 SWAP3 SSTORE SWAP1 MLOAD PUSH1 0x1 PUSH1 0x1 PUSH1 0xA0 SHL SUB DUP7 AND SWAP1 DUP3 SWAP1 PUSH1 0x0 DUP1 MLOAD PUSH1 0x20 PUSH2 0x575F DUP4 CODECOPY DUP2 MLOAD SWAP2 MSTORE SWAP1 PUSH2 0x3EC1 SWAP1 DUP9 SWAP1 DUP8 SWAP1 PUSH2 0x52BE JUMP JUMPDEST PUSH1 0x0 PUSH1 0x1 PUSH1 0x1 PUSH1 0xA0 SHL SUB DUP5 AND EXTCODESIZE ISZERO PUSH2 0x44A4 JUMPI PUSH1 0x40 MLOAD PUSH4 0xA85BD01 PUSH1 0xE1 SHL DUP2 MSTORE PUSH1 0x1 PUSH1 0x1 PUSH1 0xA0 SHL SUB DUP6 AND SWAP1 PUSH4 0x150B7A02 SWAP1 PUSH2 0x43E6 SWAP1 CALLER SWAP1 DUP10 SWAP1 DUP9 SWAP1 DUP9 SWAP1 PUSH1 0x4 ADD PUSH2 0x51C9 JUMP JUMPDEST PUSH1 0x20 PUSH1 0x40 MLOAD DUP1 DUP4 SUB DUP2 PUSH1 0x0 DUP8 DUP1 EXTCODESIZE ISZERO DUP1 ISZERO PUSH2 0x4400 JUMPI PUSH1 0x0 DUP1 REVERT JUMPDEST POP GAS CALL SWAP3 POP POP POP DUP1 ISZERO PUSH2 0x4430 JUMPI POP PUSH1 0x40 DUP1 MLOAD PUSH1 0x1F RETURNDATASIZE SWAP1 DUP2 ADD PUSH1 0x1F NOT AND DUP3 ADD SWAP1 SWAP3 MSTORE PUSH2 0x442D SWAP2 DUP2 ADD SWAP1 PUSH2 0x4F59 JUMP JUMPDEST PUSH1 0x1 JUMPDEST PUSH2 0x448A JUMPI RETURNDATASIZE DUP1 DUP1 ISZERO PUSH2 0x445E JUMPI PUSH1 0x40 MLOAD SWAP2 POP PUSH1 0x1F NOT PUSH1 0x3F RETURNDATASIZE ADD AND DUP3 ADD PUSH1 0x40 MSTORE RETURNDATASIZE DUP3 MSTORE RETURNDATASIZE PUSH1 0x0 PUSH1 0x20 DUP5 ADD RETURNDATACOPY PUSH2 0x4463 JUMP JUMPDEST PUSH1 0x60 SWAP2 POP JUMPDEST POP DUP1 MLOAD PUSH2 0x4482 JUMPI PUSH1 0x40 MLOAD PUSH3 0x461BCD PUSH1 0xE5 SHL DUP2 MSTORE PUSH1 0x4 ADD PUSH2 0x9EA SWAP1 PUSH2 0x52FB JUMP JUMPDEST DUP1 MLOAD DUP2 PUSH1 0x20 ADD REVERT JUMPDEST PUSH1 0x1 PUSH1 0x1 PUSH1 0xE0 SHL SUB NOT AND PUSH4 0xA85BD01 PUSH1 0xE1 SHL EQ SWAP1 POP PUSH2 0x2BAF JUMP JUMPDEST POP PUSH1 0x1 SWAP5 SWAP4 POP POP POP POP JUMP JUMPDEST PUSH1 0x60 PUSH1 0x40 MLOAD DUP1 PUSH1 0x60 ADD PUSH1 0x40 MSTORE DUP1 PUSH1 0x22 DUP2 MSTORE PUSH1 0x20 ADD PUSH2 0x571D PUSH1 0x22 SWAP2 CODECOPY SWAP1 POP SWAP1 JUMP JUMPDEST PUSH1 0x60 PUSH2 0x44DA DUP3 PUSH2 0x2A62 JUMP JUMPDEST PUSH2 0x453E JUMPI PUSH1 0x40 MLOAD PUSH3 0x461BCD PUSH1 0xE5 SHL DUP2 MSTORE PUSH1 0x20 PUSH1 0x4 DUP3 ADD MSTORE PUSH1 0x2F PUSH1 0x24 DUP3 ADD MSTORE PUSH32 0x4552433732314D657461646174613A2055524920717565727920666F72206E6F PUSH1 0x44 DUP3 ADD MSTORE PUSH15 0x3732BC34B9BA32B73A103A37B5B2B7 PUSH1 0x89 SHL PUSH1 0x64 DUP3 ADD MSTORE PUSH1 0x84 ADD PUSH2 0x9EA JUMP JUMPDEST PUSH1 0x0 PUSH2 0x4548 PUSH2 0x44AF JUMP JUMPDEST SWAP1 POP PUSH1 0x0 DUP2 MLOAD GT PUSH2 0x4568 JUMPI PUSH1 0x40 MLOAD DUP1 PUSH1 0x20 ADD PUSH1 0x40 MSTORE DUP1 PUSH1 0x0 DUP2 MSTORE POP PUSH2 0x25F0 JUMP JUMPDEST DUP1 PUSH2 0x4572 DUP5 PUSH2 0x485E JUMP JUMPDEST PUSH1 0x40 MLOAD PUSH1 0x20 ADD PUSH2 0x4583 SWAP3 SWAP2 SWAP1 PUSH2 0x512B JUMP JUMPDEST PUSH1 0x40 MLOAD PUSH1 0x20 DUP2 DUP4 SUB SUB DUP2 MSTORE SWAP1 PUSH1 0x40 MSTORE SWAP4 SWAP3 POP POP POP JUMP JUMPDEST PUSH1 0x0 DUP3 PUSH1 0x0 ADD DUP3 DUP2 SLOAD DUP2 LT PUSH2 0x45BE JUMPI PUSH4 0x4E487B71 PUSH1 0xE0 SHL PUSH1 0x0 MSTORE PUSH1 0x32 PUSH1 0x4 MSTORE PUSH1 0x24 PUSH1 0x0 REVERT JUMPDEST SWAP1 PUSH1 0x0 MSTORE PUSH1 0x20 PUSH1 0x0 KECCAK256 ADD SLOAD SWAP1 POP SWAP3 SWAP2 POP POP JUMP JUMPDEST PUSH1 0x0 DUP2 DUP2 MSTORE PUSH1 0xB PUSH1 0x20 MSTORE PUSH1 0x40 DUP2 KECCAK256 SWAP1 JUMPDEST DUP2 SLOAD DUP2 LT ISZERO PUSH2 0xB1B JUMPI DUP2 PUSH1 0x1 ADD PUSH1 0x0 DUP4 PUSH1 0x0 ADD DUP4 DUP2 SLOAD DUP2 LT PUSH2 0x4613 JUMPI PUSH4 0x4E487B71 PUSH1 0xE0 SHL PUSH1 0x0 MSTORE PUSH1 0x32 PUSH1 0x4 MSTORE PUSH1 0x24 PUSH1 0x0 REVERT JUMPDEST PUSH1 0x0 SWAP2 DUP3 MSTORE PUSH1 0x20 DUP1 DUP4 KECCAK256 SWAP1 SWAP2 ADD SLOAD PUSH1 0x1 PUSH1 0x1 PUSH1 0xA0 SHL SUB AND DUP4 MSTORE DUP3 ADD SWAP3 SWAP1 SWAP3 MSTORE PUSH1 0x40 ADD DUP2 KECCAK256 SSTORE DUP2 SLOAD DUP3 SWAP1 DUP3 SWAP1 DUP2 LT PUSH2 0x465A JUMPI PUSH4 0x4E487B71 PUSH1 0xE0 SHL PUSH1 0x0 MSTORE PUSH1 0x32 PUSH1 0x4 MSTORE PUSH1 0x24 PUSH1 0x0 REVERT JUMPDEST PUSH1 0x0 SWAP2 DUP3 MSTORE PUSH1 0x20 SWAP1 SWAP2 KECCAK256 ADD DUP1 SLOAD PUSH1 0x1 PUSH1 0x1 PUSH1 0xA0 SHL SUB NOT AND SWAP1 SSTORE DUP1 PUSH2 0x467D DUP2 PUSH2 0x565C JUMP JUMPDEST SWAP2 POP POP PUSH2 0x45E1 JUMP JUMPDEST PUSH1 0x0 PUSH2 0x25F0 DUP4 DUP4 PUSH2 0x4977 JUMP JUMPDEST PUSH1 0x0 PUSH2 0x469C DUP3 PUSH2 0x17F1 JUMP JUMPDEST SWAP1 POP PUSH2 0x46AA DUP2 PUSH1 0x0 DUP5 PUSH2 0x408D JUMP JUMPDEST PUSH2 0x46B5 PUSH1 0x0 DUP4 PUSH2 0x2A7F JUMP JUMPDEST PUSH1 0x1 PUSH1 0x1 PUSH1 0xA0 SHL SUB DUP2 AND PUSH1 0x0 SWAP1 DUP2 MSTORE PUSH1 0x5 PUSH1 0x20 MSTORE PUSH1 0x40 DUP2 KECCAK256 DUP1 SLOAD PUSH1 0x1 SWAP3 SWAP1 PUSH2 0x46DE SWAP1 DUP5 SWAP1 PUSH2 0x55CD JUMP JUMPDEST SWAP1 SWAP2 SSTORE POP POP PUSH1 0x0 DUP3 DUP2 MSTORE PUSH1 0x4 PUSH1 0x20 MSTORE PUSH1 0x40 DUP1 DUP3 KECCAK256 DUP1 SLOAD PUSH1 0x1 PUSH1 0x1 PUSH1 0xA0 SHL SUB NOT AND SWAP1 SSTORE MLOAD DUP4 SWAP2 SWAP1 PUSH1 0x1 PUSH1 0x1 PUSH1 0xA0 SHL SUB DUP5 AND SWAP1 PUSH1 0x0 DUP1 MLOAD PUSH1 0x20 PUSH2 0x573F DUP4 CODECOPY DUP2 MLOAD SWAP2 MSTORE SWAP1 DUP4 SWAP1 LOG4 POP POP JUMP JUMPDEST PUSH1 0x1 PUSH1 0x1 PUSH1 0xA0 SHL SUB DUP3 AND PUSH2 0x477C JUMPI PUSH1 0x40 MLOAD PUSH3 0x461BCD PUSH1 0xE5 SHL DUP2 MSTORE PUSH1 0x20 PUSH1 0x4 DUP3 ADD DUP2 SWAP1 MSTORE PUSH1 0x24 DUP3 ADD MSTORE PUSH32 0x4552433732313A206D696E7420746F20746865207A65726F2061646472657373 PUSH1 0x44 DUP3 ADD MSTORE PUSH1 0x64 ADD PUSH2 0x9EA JUMP JUMPDEST PUSH2 0x4785 DUP2 PUSH2 0x2A62 JUMP JUMPDEST ISZERO PUSH2 0x47D1 JUMPI PUSH1 0x40 MLOAD PUSH3 0x461BCD PUSH1 0xE5 SHL DUP2 MSTORE PUSH1 0x20 PUSH1 0x4 DUP3 ADD MSTORE PUSH1 0x1C PUSH1 0x24 DUP3 ADD MSTORE PUSH28 0x115490CDCC8C4E881D1BDAD95B88185B1C9958591E481B5A5B9D1959 PUSH1 0x22 SHL PUSH1 0x44 DUP3 ADD MSTORE PUSH1 0x64 ADD PUSH2 0x9EA JUMP JUMPDEST PUSH2 0x47DD PUSH1 0x0 DUP4 DUP4 PUSH2 0x408D JUMP JUMPDEST PUSH1 0x1 PUSH1 0x1 PUSH1 0xA0 SHL SUB DUP3 AND PUSH1 0x0 SWAP1 DUP2 MSTORE PUSH1 0x5 PUSH1 0x20 MSTORE PUSH1 0x40 DUP2 KECCAK256 DUP1 SLOAD PUSH1 0x1 SWAP3 SWAP1 PUSH2 0x4806 SWAP1 DUP5 SWAP1 PUSH2 0x5494 JUMP JUMPDEST SWAP1 SWAP2 SSTORE POP POP PUSH1 0x0 DUP2 DUP2 MSTORE PUSH1 0x4 PUSH1 0x20 MSTORE PUSH1 0x40 DUP1 DUP3 KECCAK256 DUP1 SLOAD PUSH1 0x1 PUSH1 0x1 PUSH1 0xA0 SHL SUB NOT AND PUSH1 0x1 PUSH1 0x1 PUSH1 0xA0 SHL SUB DUP7 AND SWAP1 DUP2 OR SWAP1 SWAP2 SSTORE SWAP1 MLOAD DUP4 SWAP3 SWAP1 PUSH1 0x0 DUP1 MLOAD PUSH1 0x20 PUSH2 0x573F DUP4 CODECOPY DUP2 MLOAD SWAP2 MSTORE SWAP1 DUP3 SWAP1 LOG4 POP POP JUMP JUMPDEST PUSH1 0x0 PUSH2 0x25F0 DUP4 DUP4 PUSH2 0x4A94 JUMP JUMPDEST PUSH1 0x60 DUP2 PUSH2 0x4882 JUMPI POP POP PUSH1 0x40 DUP1 MLOAD DUP1 DUP3 ADD SWAP1 SWAP2 MSTORE PUSH1 0x1 DUP2 MSTORE PUSH1 0x3 PUSH1 0xFC SHL PUSH1 0x20 DUP3 ADD MSTORE SWAP1 JUMP JUMPDEST DUP2 PUSH1 0x0 JUMPDEST DUP2 ISZERO PUSH2 0x48AC JUMPI DUP1 PUSH2 0x4896 DUP2 PUSH2 0x565C JUMP JUMPDEST SWAP2 POP PUSH2 0x48A5 SWAP1 POP PUSH1 0xA DUP4 PUSH2 0x54AC JUMP JUMPDEST SWAP2 POP PUSH2 0x4886 JUMP JUMPDEST PUSH1 0x0 DUP2 PUSH1 0x1 PUSH1 0x1 PUSH1 0x40 SHL SUB DUP2 GT ISZERO PUSH2 0x48D4 JUMPI PUSH4 0x4E487B71 PUSH1 0xE0 SHL PUSH1 0x0 MSTORE PUSH1 0x41 PUSH1 0x4 MSTORE PUSH1 0x24 PUSH1 0x0 REVERT JUMPDEST PUSH1 0x40 MLOAD SWAP1 DUP1 DUP3 MSTORE DUP1 PUSH1 0x1F ADD PUSH1 0x1F NOT AND PUSH1 0x20 ADD DUP3 ADD PUSH1 0x40 MSTORE DUP1 ISZERO PUSH2 0x48FE JUMPI PUSH1 0x20 DUP3 ADD DUP2 DUP1 CALLDATASIZE DUP4 CALLDATACOPY ADD SWAP1 POP JUMPDEST POP SWAP1 POP JUMPDEST DUP5 ISZERO PUSH2 0x2BAF JUMPI PUSH2 0x4913 PUSH1 0x1 DUP4 PUSH2 0x55CD JUMP JUMPDEST SWAP2 POP PUSH2 0x4920 PUSH1 0xA DUP7 PUSH2 0x5677 JUMP JUMPDEST PUSH2 0x492B SWAP1 PUSH1 0x30 PUSH2 0x5494 JUMP JUMPDEST PUSH1 0xF8 SHL DUP2 DUP4 DUP2 MLOAD DUP2 LT PUSH2 0x494E JUMPI PUSH4 0x4E487B71 PUSH1 0xE0 SHL PUSH1 0x0 MSTORE PUSH1 0x32 PUSH1 0x4 MSTORE PUSH1 0x24 PUSH1 0x0 REVERT JUMPDEST PUSH1 0x20 ADD ADD SWAP1 PUSH1 0x1 PUSH1 0x1 PUSH1 0xF8 SHL SUB NOT AND SWAP1 DUP2 PUSH1 0x0 BYTE SWAP1 MSTORE8 POP PUSH2 0x4970 PUSH1 0xA DUP7 PUSH2 0x54AC JUMP JUMPDEST SWAP5 POP PUSH2 0x4902 JUMP JUMPDEST PUSH1 0x0 DUP2 DUP2 MSTORE PUSH1 0x1 DUP4 ADD PUSH1 0x20 MSTORE PUSH1 0x40 DUP2 KECCAK256 SLOAD DUP1 ISZERO PUSH2 0x4A8A JUMPI PUSH1 0x0 PUSH2 0x499B PUSH1 0x1 DUP4 PUSH2 0x55CD JUMP JUMPDEST DUP6 SLOAD SWAP1 SWAP2 POP PUSH1 0x0 SWAP1 PUSH2 0x49AF SWAP1 PUSH1 0x1 SWAP1 PUSH2 0x55CD JUMP JUMPDEST SWAP1 POP DUP2 DUP2 EQ PUSH2 0x4A30 JUMPI PUSH1 0x0 DUP7 PUSH1 0x0 ADD DUP3 DUP2 SLOAD DUP2 LT PUSH2 0x49DD JUMPI PUSH4 0x4E487B71 PUSH1 0xE0 SHL PUSH1 0x0 MSTORE PUSH1 0x32 PUSH1 0x4 MSTORE PUSH1 0x24 PUSH1 0x0 REVERT JUMPDEST SWAP1 PUSH1 0x0 MSTORE PUSH1 0x20 PUSH1 0x0 KECCAK256 ADD SLOAD SWAP1 POP DUP1 DUP8 PUSH1 0x0 ADD DUP5 DUP2 SLOAD DUP2 LT PUSH2 0x4A0E JUMPI PUSH4 0x4E487B71 PUSH1 0xE0 SHL PUSH1 0x0 MSTORE PUSH1 0x32 PUSH1 0x4 MSTORE PUSH1 0x24 PUSH1 0x0 REVERT JUMPDEST PUSH1 0x0 SWAP2 DUP3 MSTORE PUSH1 0x20 DUP1 DUP4 KECCAK256 SWAP1 SWAP2 ADD SWAP3 SWAP1 SWAP3 SSTORE SWAP2 DUP3 MSTORE PUSH1 0x1 DUP9 ADD SWAP1 MSTORE PUSH1 0x40 SWAP1 KECCAK256 DUP4 SWAP1 SSTORE JUMPDEST DUP6 SLOAD DUP7 SWAP1 DUP1 PUSH2 0x4A4F JUMPI PUSH4 0x4E487B71 PUSH1 0xE0 SHL PUSH1 0x0 MSTORE PUSH1 0x31 PUSH1 0x4 MSTORE PUSH1 0x24 PUSH1 0x0 REVERT JUMPDEST PUSH1 0x1 SWAP1 SUB DUP2 DUP2 SWAP1 PUSH1 0x0 MSTORE PUSH1 0x20 PUSH1 0x0 KECCAK256 ADD PUSH1 0x0 SWAP1 SSTORE SWAP1 SSTORE DUP6 PUSH1 0x1 ADD PUSH1 0x0 DUP7 DUP2 MSTORE PUSH1 0x20 ADD SWAP1 DUP2 MSTORE PUSH1 0x20 ADD PUSH1 0x0 KECCAK256 PUSH1 0x0 SWAP1 SSTORE PUSH1 0x1 SWAP4 POP POP POP POP PUSH2 0x8A5 JUMP JUMPDEST PUSH1 0x0 SWAP2 POP POP PUSH2 0x8A5 JUMP JUMPDEST PUSH1 0x0 DUP2 DUP2 MSTORE PUSH1 0x1 DUP4 ADD PUSH1 0x20 MSTORE PUSH1 0x40 DUP2 KECCAK256 SLOAD PUSH2 0x4ADB JUMPI POP DUP2 SLOAD PUSH1 0x1 DUP2 DUP2 ADD DUP5 SSTORE PUSH1 0x0 DUP5 DUP2 MSTORE PUSH1 0x20 DUP1 DUP3 KECCAK256 SWAP1 SWAP4 ADD DUP5 SWAP1 SSTORE DUP5 SLOAD DUP5 DUP3 MSTORE DUP3 DUP7 ADD SWAP1 SWAP4 MSTORE PUSH1 0x40 SWAP1 KECCAK256 SWAP2 SWAP1 SWAP2 SSTORE PUSH2 0x8A5 JUMP JUMPDEST POP PUSH1 0x0 PUSH2 0x8A5 JUMP JUMPDEST PUSH1 0x40 DUP1 MLOAD PUSH2 0x120 DUP2 ADD SWAP1 SWAP2 MSTORE DUP1 PUSH1 0x0 DUP2 MSTORE PUSH1 0x20 ADD PUSH1 0x0 DUP2 MSTORE PUSH1 0x20 ADD PUSH1 0x0 DUP2 MSTORE PUSH1 0x20 ADD PUSH1 0x0 DUP2 MSTORE PUSH1 0x20 ADD PUSH1 0x0 DUP2 MSTORE PUSH1 0x20 ADD PUSH1 0x0 DUP2 MSTORE PUSH1 0x20 ADD PUSH1 0x0 PUSH1 0x2 DUP2 GT ISZERO PUSH2 0x4B3B JUMPI PUSH4 0x4E487B71 PUSH1 0xE0 SHL PUSH1 0x0 MSTORE PUSH1 0x21 PUSH1 0x4 MSTORE PUSH1 0x24 PUSH1 0x0 REVERT JUMPDEST DUP2 MSTORE PUSH1 0x20 ADD PUSH1 0x0 DUP2 MSTORE PUSH1 0x20 ADD PUSH1 0x0 DUP2 MSTORE POP SWAP1 JUMP JUMPDEST PUSH1 0x0 DUP1 DUP4 PUSH1 0x1F DUP5 ADD SLT PUSH2 0x4B60 JUMPI DUP1 DUP2 REVERT JUMPDEST POP DUP2 CALLDATALOAD PUSH1 0x1 PUSH1 0x1 PUSH1 0x40 SHL SUB DUP2 GT ISZERO PUSH2 0x4B76 JUMPI DUP2 DUP3 REVERT JUMPDEST PUSH1 0x20 DUP4 ADD SWAP2 POP DUP4 PUSH1 0x20 DUP3 PUSH1 0x5 SHL DUP6 ADD ADD GT ISZERO PUSH2 0x4B91 JUMPI PUSH1 0x0 DUP1 REVERT JUMPDEST SWAP3 POP SWAP3 SWAP1 POP JUMP JUMPDEST DUP1 MLOAD PUSH1 0x1 PUSH1 0x1 PUSH1 0x50 SHL SUB DUP2 AND DUP2 EQ PUSH2 0x4BAF JUMPI PUSH1 0x0 DUP1 REVERT JUMPDEST SWAP2 SWAP1 POP JUMP JUMPDEST PUSH1 0x0 PUSH1 0x20 DUP3 DUP5 SUB SLT ISZERO PUSH2 0x4BC5 JUMPI DUP1 DUP2 REVERT JUMPDEST DUP2 CALLDATALOAD PUSH2 0x25F0 DUP2 PUSH2 0x56E3 JUMP JUMPDEST PUSH1 0x0 PUSH1 0x20 DUP3 DUP5 SUB SLT ISZERO PUSH2 0x4BE1 JUMPI DUP1 DUP2 REVERT JUMPDEST DUP2 MLOAD PUSH2 0x25F0 DUP2 PUSH2 0x56E3 JUMP JUMPDEST PUSH1 0x0 DUP1 PUSH1 0x40 DUP4 DUP6 SUB SLT ISZERO PUSH2 0x4BFE JUMPI DUP1 DUP2 REVERT JUMPDEST DUP3 CALLDATALOAD PUSH2 0x4C09 DUP2 PUSH2 0x56E3 JUMP JUMPDEST SWAP2 POP PUSH1 0x20 DUP4 ADD CALLDATALOAD PUSH2 0x4C19 DUP2 PUSH2 0x56E3 JUMP JUMPDEST DUP1 SWAP2 POP POP SWAP3 POP SWAP3 SWAP1 POP JUMP JUMPDEST PUSH1 0x0 DUP1 PUSH1 0x0 PUSH1 0x60 DUP5 DUP7 SUB SLT ISZERO PUSH2 0x4C38 JUMPI DUP1 DUP2 REVERT JUMPDEST DUP4 CALLDATALOAD PUSH2 0x4C43 DUP2 PUSH2 0x56E3 JUMP JUMPDEST SWAP3 POP PUSH1 0x20 DUP5 ADD CALLDATALOAD PUSH2 0x4C53 DUP2 PUSH2 0x56E3 JUMP JUMPDEST SWAP3 SWAP6 SWAP3 SWAP5 POP POP POP PUSH1 0x40 SWAP2 SWAP1 SWAP2 ADD CALLDATALOAD SWAP1 JUMP JUMPDEST PUSH1 0x0 DUP1 PUSH1 0x0 DUP1 PUSH1 0x80 DUP6 DUP8 SUB SLT ISZERO PUSH2 0x4C79 JUMPI DUP1 DUP2 REVERT JUMPDEST DUP5 CALLDATALOAD PUSH2 0x4C84 DUP2 PUSH2 0x56E3 JUMP JUMPDEST SWAP4 POP PUSH1 0x20 DUP6 ADD CALLDATALOAD PUSH2 0x4C94 DUP2 PUSH2 0x56E3 JUMP JUMPDEST SWAP3 POP PUSH1 0x40 DUP6 ADD CALLDATALOAD SWAP2 POP PUSH1 0x60 DUP6 ADD CALLDATALOAD PUSH1 0x1 PUSH1 0x1 PUSH1 0x40 SHL SUB DUP1 DUP3 GT ISZERO PUSH2 0x4CB6 JUMPI DUP3 DUP4 REVERT JUMPDEST DUP2 DUP8 ADD SWAP2 POP DUP8 PUSH1 0x1F DUP4 ADD SLT PUSH2 0x4CC9 JUMPI DUP3 DUP4 REVERT JUMPDEST DUP2 CALLDATALOAD DUP2 DUP2 GT ISZERO PUSH2 0x4CDB JUMPI PUSH2 0x4CDB PUSH2 0x56CD JUMP JUMPDEST PUSH1 0x40 MLOAD PUSH1 0x1F DUP3 ADD PUSH1 0x1F NOT SWAP1 DUP2 AND PUSH1 0x3F ADD AND DUP2 ADD SWAP1 DUP4 DUP3 GT DUP2 DUP4 LT OR ISZERO PUSH2 0x4D03 JUMPI PUSH2 0x4D03 PUSH2 0x56CD JUMP JUMPDEST DUP2 PUSH1 0x40 MSTORE DUP3 DUP2 MSTORE DUP11 PUSH1 0x20 DUP5 DUP8 ADD ADD GT ISZERO PUSH2 0x4D1B JUMPI DUP6 DUP7 REVERT JUMPDEST DUP3 PUSH1 0x20 DUP7 ADD PUSH1 0x20 DUP4 ADD CALLDATACOPY SWAP2 DUP3 ADD PUSH1 0x20 ADD SWAP5 SWAP1 SWAP5 MSTORE SWAP6 SWAP9 SWAP5 SWAP8 POP SWAP3 SWAP6 POP POP POP POP JUMP JUMPDEST PUSH1 0x0 DUP1 PUSH1 0x0 DUP1 PUSH1 0x80 DUP6 DUP8 SUB SLT ISZERO PUSH2 0x4D51 JUMPI DUP4 DUP5 REVERT JUMPDEST DUP5 CALLDATALOAD PUSH2 0x4D5C DUP2 PUSH2 0x56E3 JUMP JUMPDEST SWAP4 POP PUSH1 0x20 DUP6 ADD CALLDATALOAD PUSH2 0x4D6C DUP2 PUSH2 0x56E3 JUMP JUMPDEST SWAP4 SWAP7 SWAP4 SWAP6 POP POP POP POP PUSH1 0x40 DUP3 ADD CALLDATALOAD SWAP2 PUSH1 0x60 ADD CALLDATALOAD SWAP1 JUMP JUMPDEST PUSH1 0x0 DUP1 PUSH1 0x0 DUP1 PUSH1 0x0 PUSH1 0xA0 DUP7 DUP9 SUB SLT ISZERO PUSH2 0x4D98 JUMPI DUP1 DUP2 REVERT JUMPDEST DUP6 CALLDATALOAD PUSH2 0x4DA3 DUP2 PUSH2 0x56E3 JUMP JUMPDEST SWAP5 POP PUSH1 0x20 DUP7 ADD CALLDATALOAD PUSH2 0x4DB3 DUP2 PUSH2 0x56E3 JUMP JUMPDEST SWAP5 SWAP8 SWAP5 SWAP7 POP POP POP POP PUSH1 0x40 DUP4 ADD CALLDATALOAD SWAP3 PUSH1 0x60 DUP2 ADD CALLDATALOAD SWAP3 PUSH1 0x80 SWAP1 SWAP2 ADD CALLDATALOAD SWAP2 POP JUMP JUMPDEST PUSH1 0x0 DUP1 PUSH1 0x40 DUP4 DUP6 SUB SLT ISZERO PUSH2 0x4DE3 JUMPI DUP2 DUP3 REVERT JUMPDEST DUP3 CALLDATALOAD PUSH2 0x4DEE DUP2 PUSH2 0x56E3 JUMP JUMPDEST SWAP2 POP PUSH1 0x20 DUP4 ADD CALLDATALOAD PUSH2 0x4C19 DUP2 PUSH2 0x56F8 JUMP JUMPDEST PUSH1 0x0 DUP1 PUSH1 0x40 DUP4 DUP6 SUB SLT ISZERO PUSH2 0x4E10 JUMPI DUP2 DUP3 REVERT JUMPDEST DUP3 CALLDATALOAD PUSH2 0x4E1B DUP2 PUSH2 0x56E3 JUMP JUMPDEST SWAP5 PUSH1 0x20 SWAP4 SWAP1 SWAP4 ADD CALLDATALOAD SWAP4 POP POP POP JUMP JUMPDEST PUSH1 0x0 DUP1 PUSH1 0x0 PUSH1 0x60 DUP5 DUP7 SUB SLT ISZERO PUSH2 0x4E3D JUMPI DUP3 DUP4 REVERT JUMPDEST DUP4 CALLDATALOAD PUSH2 0x4E48 DUP2 PUSH2 0x56E3 JUMP JUMPDEST SWAP6 PUSH1 0x20 DUP6 ADD CALLDATALOAD SWAP6 POP PUSH1 0x40 SWAP1 SWAP5 ADD CALLDATALOAD SWAP4 SWAP3 POP POP POP JUMP JUMPDEST PUSH1 0x0 DUP1 PUSH1 0x20 DUP4 DUP6 SUB SLT ISZERO PUSH2 0x4E6F JUMPI DUP2 DUP3 REVERT JUMPDEST DUP3 CALLDATALOAD PUSH1 0x1 PUSH1 0x1 PUSH1 0x40 SHL SUB DUP2 GT ISZERO PUSH2 0x4E84 JUMPI DUP3 DUP4 REVERT JUMPDEST PUSH2 0x4E90 DUP6 DUP3 DUP7 ADD PUSH2 0x4B4F JUMP JUMPDEST SWAP1 SWAP7 SWAP1 SWAP6 POP SWAP4 POP POP POP POP JUMP JUMPDEST PUSH1 0x0 DUP1 PUSH1 0x0 PUSH1 0x40 DUP5 DUP7 SUB SLT ISZERO PUSH2 0x4EB0 JUMPI DUP1 DUP2 REVERT JUMPDEST DUP4 CALLDATALOAD PUSH1 0x1 PUSH1 0x1 PUSH1 0x40 SHL SUB DUP2 GT ISZERO PUSH2 0x4EC5 JUMPI DUP2 DUP3 REVERT JUMPDEST PUSH2 0x4ED1 DUP7 DUP3 DUP8 ADD PUSH2 0x4B4F JUMP JUMPDEST SWAP1 SWAP8 SWAP1 SWAP7 POP PUSH1 0x20 SWAP6 SWAP1 SWAP6 ADD CALLDATALOAD SWAP5 SWAP4 POP POP POP POP JUMP JUMPDEST PUSH1 0x0 PUSH1 0x20 DUP3 DUP5 SUB SLT ISZERO PUSH2 0x4EF6 JUMPI DUP1 DUP2 REVERT JUMPDEST DUP2 MLOAD PUSH2 0x25F0 DUP2 PUSH2 0x56F8 JUMP JUMPDEST PUSH1 0x0 PUSH1 0x20 DUP3 DUP5 SUB SLT ISZERO PUSH2 0x4F12 JUMPI DUP1 DUP2 REVERT JUMPDEST POP CALLDATALOAD SWAP2 SWAP1 POP JUMP JUMPDEST PUSH1 0x0 DUP1 PUSH1 0x40 DUP4 DUP6 SUB SLT ISZERO PUSH2 0x4F2B JUMPI DUP2 DUP3 REVERT JUMPDEST DUP3 CALLDATALOAD SWAP2 POP PUSH1 0x20 DUP4 ADD CALLDATALOAD PUSH2 0x4C19 DUP2 PUSH2 0x56E3 JUMP JUMPDEST PUSH1 0x0 PUSH1 0x20 DUP3 DUP5 SUB SLT ISZERO PUSH2 0x4F4E JUMPI DUP1 DUP2 REVERT JUMPDEST DUP2 CALLDATALOAD PUSH2 0x25F0 DUP2 PUSH2 0x5706 JUMP JUMPDEST PUSH1 0x0 PUSH1 0x20 DUP3 DUP5 SUB SLT ISZERO PUSH2 0x4F6A JUMPI DUP1 DUP2 REVERT JUMPDEST DUP2 MLOAD PUSH2 0x25F0 DUP2 PUSH2 0x5706 JUMP JUMPDEST PUSH1 0x0 PUSH1 0x20 DUP3 DUP5 SUB SLT ISZERO PUSH2 0x4F86 JUMPI DUP1 DUP2 REVERT JUMPDEST POP MLOAD SWAP2 SWAP1 POP JUMP JUMPDEST PUSH1 0x0 DUP1 PUSH1 0x0 PUSH1 0x40 DUP5 DUP7 SUB SLT ISZERO PUSH2 0x4FA1 JUMPI DUP1 DUP2 REVERT JUMPDEST DUP4 CALLDATALOAD SWAP3 POP PUSH1 0x20 DUP5 ADD CALLDATALOAD PUSH1 0x1 PUSH1 0x1 PUSH1 0x40 SHL SUB DUP2 GT ISZERO PUSH2 0x4FBD JUMPI DUP2 DUP3 REVERT JUMPDEST PUSH2 0x4FC9 DUP7 DUP3 DUP8 ADD PUSH2 0x4B4F JUMP JUMPDEST SWAP5 SWAP8 SWAP1 SWAP7 POP SWAP4 SWAP5 POP POP POP POP JUMP JUMPDEST PUSH1 0x0 DUP1 PUSH1 0x40 DUP4 DUP6 SUB SLT ISZERO PUSH2 0x4FE8 JUMPI DUP2 DUP3 REVERT JUMPDEST POP POP DUP1 CALLDATALOAD SWAP3 PUSH1 0x20 SWAP1 SWAP2 ADD CALLDATALOAD SWAP2 POP JUMP JUMPDEST PUSH1 0x0 DUP1 PUSH1 0x0 DUP1 PUSH1 0x0 PUSH1 0xA0 DUP7 DUP9 SUB SLT ISZERO PUSH2 0x500E JUMPI DUP3 DUP4 REVERT JUMPDEST DUP6 CALLDATALOAD SWAP5 POP PUSH1 0x20 DUP7 ADD CALLDATALOAD SWAP4 POP PUSH1 0x40 DUP7 ADD CALLDATALOAD PUSH2 0x5027 DUP2 PUSH2 0x56F8 JUMP JUMPDEST SWAP3 POP PUSH1 0x60 DUP7 ADD CALLDATALOAD PUSH2 0x5037 DUP2 PUSH2 0x56F8 JUMP JUMPDEST SWAP2 POP PUSH1 0x80 DUP7 ADD CALLDATALOAD PUSH2 0x5047 DUP2 PUSH2 0x56E3 JUMP JUMPDEST DUP1 SWAP2 POP POP SWAP3 SWAP6 POP SWAP3 SWAP6 SWAP1 SWAP4 POP JUMP JUMPDEST PUSH1 0x0 DUP1 PUSH1 0x0 DUP1 PUSH1 0x0 PUSH1 0xA0 DUP7 DUP9 SUB SLT ISZERO PUSH2 0x506C JUMPI DUP3 DUP4 REVERT JUMPDEST DUP6 CALLDATALOAD SWAP5 POP PUSH1 0x20 DUP7 ADD CALLDATALOAD SWAP4 POP PUSH1 0x40 DUP7 ADD CALLDATALOAD SWAP3 POP PUSH1 0x60 DUP7 ADD CALLDATALOAD PUSH2 0x508C DUP2 PUSH2 0x56F8 JUMP JUMPDEST SWAP2 POP PUSH1 0x80 DUP7 ADD CALLDATALOAD PUSH2 0x5047 DUP2 PUSH2 0x56F8 JUMP JUMPDEST PUSH1 0x0 DUP1 PUSH1 0x0 DUP1 PUSH1 0x0 PUSH1 0xA0 DUP7 DUP9 SUB SLT ISZERO PUSH2 0x50B3 JUMPI DUP3 DUP4 REVERT JUMPDEST PUSH2 0x50BC DUP7 PUSH2 0x4B98 JUMP JUMPDEST SWAP5 POP PUSH1 0x20 DUP7 ADD MLOAD SWAP4 POP PUSH1 0x40 DUP7 ADD MLOAD SWAP3 POP PUSH1 0x60 DUP7 ADD MLOAD SWAP2 POP PUSH2 0x50DF PUSH1 0x80 DUP8 ADD PUSH2 0x4B98 JUMP JUMPDEST SWAP1 POP SWAP3 SWAP6 POP SWAP3 SWAP6 SWAP1 SWAP4 POP JUMP JUMPDEST PUSH1 0x0 DUP2 MLOAD DUP1 DUP5 MSTORE PUSH2 0x5103 DUP2 PUSH1 0x20 DUP7 ADD PUSH1 0x20 DUP7 ADD PUSH2 0x55E4 JUMP JUMPDEST PUSH1 0x1F ADD PUSH1 0x1F NOT AND SWAP3 SWAP1 SWAP3 ADD PUSH1 0x20 ADD SWAP3 SWAP2 POP POP JUMP JUMPDEST PUSH1 0x3 DUP2 LT PUSH2 0x5127 JUMPI PUSH2 0x5127 PUSH2 0x56B7 JUMP JUMPDEST SWAP1 MSTORE JUMP JUMPDEST PUSH1 0x0 DUP4 MLOAD PUSH2 0x513D DUP2 DUP5 PUSH1 0x20 DUP9 ADD PUSH2 0x55E4 JUMP JUMPDEST DUP4 MLOAD SWAP1 DUP4 ADD SWAP1 PUSH2 0x5151 DUP2 DUP4 PUSH1 0x20 DUP9 ADD PUSH2 0x55E4 JUMP JUMPDEST ADD SWAP5 SWAP4 POP POP POP POP JUMP JUMPDEST PUSH23 0x20B1B1B2B9B9A1B7B73A3937B61D1030B1B1B7BAB73A1 PUSH1 0x4D SHL DUP2 MSTORE PUSH1 0x0 DUP4 MLOAD PUSH2 0x518C DUP2 PUSH1 0x17 DUP6 ADD PUSH1 0x20 DUP9 ADD PUSH2 0x55E4 JUMP JUMPDEST PUSH17 0x1034B99036B4B9B9B4B733903937B6329 PUSH1 0x7D SHL PUSH1 0x17 SWAP2 DUP5 ADD SWAP2 DUP3 ADD MSTORE DUP4 MLOAD PUSH2 0x51BD DUP2 PUSH1 0x28 DUP5 ADD PUSH1 0x20 DUP9 ADD PUSH2 0x55E4 JUMP JUMPDEST ADD PUSH1 0x28 ADD SWAP5 SWAP4 POP POP POP POP JUMP JUMPDEST PUSH1 0x1 PUSH1 0x1 PUSH1 0xA0 SHL SUB DUP6 DUP2 AND DUP3 MSTORE DUP5 AND PUSH1 0x20 DUP3 ADD MSTORE PUSH1 0x40 DUP2 ADD DUP4 SWAP1 MSTORE PUSH1 0x80 PUSH1 0x60 DUP3 ADD DUP2 SWAP1 MSTORE PUSH1 0x0 SWAP1 PUSH2 0x51FC SWAP1 DUP4 ADD DUP5 PUSH2 0x50EB JUMP JUMPDEST SWAP7 SWAP6 POP POP POP POP POP POP JUMP JUMPDEST PUSH1 0x1 PUSH1 0x1 PUSH1 0xA0 SHL SUB SWAP3 SWAP1 SWAP3 AND DUP3 MSTORE PUSH1 0x20 DUP3 ADD MSTORE PUSH1 0x40 ADD SWAP1 JUMP JUMPDEST PUSH1 0x20 DUP1 DUP3 MSTORE DUP3 MLOAD DUP3 DUP3 ADD DUP2 SWAP1 MSTORE PUSH1 0x0 SWAP2 SWAP1 DUP5 DUP3 ADD SWAP1 PUSH1 0x40 DUP6 ADD SWAP1 DUP5 JUMPDEST DUP2 DUP2 LT ISZERO PUSH2 0x5257 JUMPI DUP4 MLOAD DUP4 MSTORE SWAP3 DUP5 ADD SWAP3 SWAP2 DUP5 ADD SWAP2 PUSH1 0x1 ADD PUSH2 0x523B JUMP JUMPDEST POP SWAP1 SWAP7 SWAP6 POP POP POP POP POP POP JUMP JUMPDEST PUSH2 0x120 DUP2 ADD PUSH1 0x4 DUP12 LT PUSH2 0x5278 JUMPI PUSH2 0x5278 PUSH2 0x56B7 JUMP JUMPDEST DUP11 DUP3 MSTORE DUP10 PUSH1 0x20 DUP4 ADD MSTORE DUP9 PUSH1 0x40 DUP4 ADD MSTORE DUP8 PUSH1 0x60 DUP4 ADD MSTORE DUP7 PUSH1 0x80 DUP4 ADD MSTORE DUP6 PUSH1 0xA0 DUP4 ADD MSTORE PUSH2 0x52A6 PUSH1 0xC0 DUP4 ADD DUP7 PUSH2 0x5117 JUMP JUMPDEST PUSH1 0xE0 DUP3 ADD SWAP4 SWAP1 SWAP4 MSTORE PUSH2 0x100 ADD MSTORE SWAP8 SWAP7 POP POP POP POP POP POP POP JUMP JUMPDEST SWAP2 DUP3 MSTORE PUSH1 0x20 DUP3 ADD MSTORE PUSH1 0x40 ADD SWAP1 JUMP JUMPDEST PUSH1 0x20 DUP2 MSTORE PUSH1 0x0 PUSH2 0x25F0 PUSH1 0x20 DUP4 ADD DUP5 PUSH2 0x50EB JUMP JUMPDEST PUSH1 0x20 DUP1 DUP3 MSTORE PUSH1 0x2 SWAP1 DUP3 ADD MSTORE PUSH2 0x4F39 PUSH1 0xF0 SHL PUSH1 0x40 DUP3 ADD MSTORE PUSH1 0x60 ADD SWAP1 JUMP JUMPDEST PUSH1 0x20 DUP1 DUP3 MSTORE PUSH1 0x32 SWAP1 DUP3 ADD MSTORE PUSH32 0x4552433732313A207472616E7366657220746F206E6F6E204552433732315265 PUSH1 0x40 DUP3 ADD MSTORE PUSH18 0x31B2B4BB32B91034B6B83632B6B2B73A32B9 PUSH1 0x71 SHL PUSH1 0x60 DUP3 ADD MSTORE PUSH1 0x80 ADD SWAP1 JUMP JUMPDEST PUSH1 0x20 DUP1 DUP3 MSTORE PUSH1 0x3 SWAP1 DUP3 ADD MSTORE PUSH3 0x4F323 PUSH1 0xEC SHL PUSH1 0x40 DUP3 ADD MSTORE PUSH1 0x60 ADD SWAP1 JUMP JUMPDEST PUSH1 0x20 DUP1 DUP3 MSTORE PUSH1 0x2 SWAP1 DUP3 ADD MSTORE PUSH2 0x4E37 PUSH1 0xF0 SHL PUSH1 0x40 DUP3 ADD MSTORE PUSH1 0x60 ADD SWAP1 JUMP JUMPDEST PUSH1 0x20 DUP1 DUP3 MSTORE DUP2 DUP2 ADD MSTORE PUSH32 0x4F776E61626C653A2063616C6C6572206973206E6F7420746865206F776E6572 PUSH1 0x40 DUP3 ADD MSTORE PUSH1 0x60 ADD SWAP1 JUMP JUMPDEST PUSH1 0x20 DUP1 DUP3 MSTORE PUSH1 0x31 SWAP1 DUP3 ADD MSTORE PUSH32 0x4552433732313A207472616E736665722063616C6C6572206973206E6F74206F PUSH1 0x40 DUP3 ADD MSTORE PUSH17 0x1DDB995C881B9BDC88185C1C1C9BDD9959 PUSH1 0x7A SHL PUSH1 0x60 DUP3 ADD MSTORE PUSH1 0x80 ADD SWAP1 JUMP JUMPDEST PUSH1 0x20 DUP1 DUP3 MSTORE PUSH1 0x2 SWAP1 DUP3 ADD MSTORE PUSH2 0x13CD PUSH1 0xF2 SHL PUSH1 0x40 DUP3 ADD MSTORE PUSH1 0x60 ADD SWAP1 JUMP JUMPDEST DUP5 DUP2 MSTORE PUSH1 0x20 DUP2 ADD DUP5 SWAP1 MSTORE PUSH1 0x80 DUP2 ADD PUSH2 0x5443 PUSH1 0x40 DUP4 ADD DUP6 PUSH2 0x5117 JUMP JUMPDEST DUP3 ISZERO ISZERO PUSH1 0x60 DUP4 ADD MSTORE SWAP6 SWAP5 POP POP POP POP POP JUMP JUMPDEST DUP5 DUP2 MSTORE PUSH1 0x20 DUP2 ADD DUP5 SWAP1 MSTORE PUSH1 0x80 DUP2 ADD PUSH2 0x546F PUSH1 0x40 DUP4 ADD DUP6 PUSH2 0x5117 JUMP JUMPDEST DUP3 PUSH1 0x60 DUP4 ADD MSTORE SWAP6 SWAP5 POP POP POP POP POP JUMP JUMPDEST SWAP3 DUP4 MSTORE PUSH1 0x20 DUP4 ADD SWAP2 SWAP1 SWAP2 MSTORE PUSH1 0x40 DUP3 ADD MSTORE PUSH1 0x60 ADD SWAP1 JUMP JUMPDEST PUSH1 0x0 DUP3 NOT DUP3 GT ISZERO PUSH2 0x54A7 JUMPI PUSH2 0x54A7 PUSH2 0x568B JUMP JUMPDEST POP ADD SWAP1 JUMP JUMPDEST PUSH1 0x0 DUP3 PUSH2 0x54BB JUMPI PUSH2 0x54BB PUSH2 0x56A1 JUMP JUMPDEST POP DIV SWAP1 JUMP JUMPDEST PUSH1 0x1 DUP2 DUP2 JUMPDEST DUP1 DUP6 GT ISZERO PUSH2 0x54FB JUMPI DUP2 PUSH1 0x0 NOT DIV DUP3 GT ISZERO PUSH2 0x54E1 JUMPI PUSH2 0x54E1 PUSH2 0x568B JUMP JUMPDEST DUP1 DUP6 AND ISZERO PUSH2 0x54EE JUMPI SWAP2 DUP2 MUL SWAP2 JUMPDEST SWAP4 DUP5 SHR SWAP4 SWAP1 DUP1 MUL SWAP1 PUSH2 0x54C5 JUMP JUMPDEST POP SWAP3 POP SWAP3 SWAP1 POP JUMP JUMPDEST PUSH1 0x0 PUSH2 0x25F0 PUSH1 0xFF DUP5 AND DUP4 PUSH1 0x0 DUP3 PUSH2 0x551C JUMPI POP PUSH1 0x1 PUSH2 0x8A5 JUMP JUMPDEST DUP2 PUSH2 0x5529 JUMPI POP PUSH1 0x0 PUSH2 0x8A5 JUMP JUMPDEST DUP2 PUSH1 0x1 DUP2 EQ PUSH2 0x553F JUMPI PUSH1 0x2 DUP2 EQ PUSH2 0x5549 JUMPI PUSH2 0x5565 JUMP JUMPDEST PUSH1 0x1 SWAP2 POP POP PUSH2 0x8A5 JUMP JUMPDEST PUSH1 0xFF DUP5 GT ISZERO PUSH2 0x555A JUMPI PUSH2 0x555A PUSH2 0x568B JUMP JUMPDEST POP POP PUSH1 0x1 DUP3 SHL PUSH2 0x8A5 JUMP JUMPDEST POP PUSH1 0x20 DUP4 LT PUSH2 0x133 DUP4 LT AND PUSH1 0x4E DUP5 LT PUSH1 0xB DUP5 LT AND OR ISZERO PUSH2 0x5588 JUMPI POP DUP2 DUP2 EXP PUSH2 0x8A5 JUMP JUMPDEST PUSH2 0x5592 DUP4 DUP4 PUSH2 0x54C0 JUMP JUMPDEST DUP1 PUSH1 0x0 NOT DIV DUP3 GT ISZERO PUSH2 0x55A6 JUMPI PUSH2 0x55A6 PUSH2 0x568B JUMP JUMPDEST MUL SWAP4 SWAP3 POP POP POP JUMP JUMPDEST PUSH1 0x0 DUP2 PUSH1 0x0 NOT DIV DUP4 GT DUP3 ISZERO ISZERO AND ISZERO PUSH2 0x55C8 JUMPI PUSH2 0x55C8 PUSH2 0x568B JUMP JUMPDEST POP MUL SWAP1 JUMP JUMPDEST PUSH1 0x0 DUP3 DUP3 LT ISZERO PUSH2 0x55DF JUMPI PUSH2 0x55DF PUSH2 0x568B JUMP JUMPDEST POP SUB SWAP1 JUMP JUMPDEST PUSH1 0x0 JUMPDEST DUP4 DUP2 LT ISZERO PUSH2 0x55FF JUMPI DUP2 DUP2 ADD MLOAD DUP4 DUP3 ADD MSTORE PUSH1 0x20 ADD PUSH2 0x55E7 JUMP JUMPDEST DUP4 DUP2 GT ISZERO PUSH2 0x17EB JUMPI POP POP PUSH1 0x0 SWAP2 ADD MSTORE JUMP JUMPDEST PUSH1 0x0 DUP2 PUSH2 0x561F JUMPI PUSH2 0x561F PUSH2 0x568B JUMP JUMPDEST POP PUSH1 0x0 NOT ADD SWAP1 JUMP JUMPDEST PUSH1 0x1 DUP2 DUP2 SHR SWAP1 DUP3 AND DUP1 PUSH2 0x563B JUMPI PUSH1 0x7F DUP3 AND SWAP2 POP JUMPDEST PUSH1 0x20 DUP3 LT DUP2 EQ ISZERO PUSH2 0x97C JUMPI PUSH4 0x4E487B71 PUSH1 0xE0 SHL PUSH1 0x0 MSTORE PUSH1 0x22 PUSH1 0x4 MSTORE PUSH1 0x24 PUSH1 0x0 REVERT JUMPDEST PUSH1 0x0 PUSH1 0x0 NOT DUP3 EQ ISZERO PUSH2 0x5670 JUMPI PUSH2 0x5670 PUSH2 0x568B JUMP JUMPDEST POP PUSH1 0x1 ADD SWAP1 JUMP JUMPDEST PUSH1 0x0 DUP3 PUSH2 0x5686 JUMPI PUSH2 0x5686 PUSH2 0x56A1 JUMP JUMPDEST POP MOD SWAP1 JUMP JUMPDEST PUSH4 0x4E487B71 PUSH1 0xE0 SHL PUSH1 0x0 MSTORE PUSH1 0x11 PUSH1 0x4 MSTORE PUSH1 0x24 PUSH1 0x0 REVERT JUMPDEST PUSH4 0x4E487B71 PUSH1 0xE0 SHL PUSH1 0x0 MSTORE PUSH1 0x12 PUSH1 0x4 MSTORE PUSH1 0x24 PUSH1 0x0 REVERT JUMPDEST PUSH4 0x4E487B71 PUSH1 0xE0 SHL PUSH1 0x0 MSTORE PUSH1 0x21 PUSH1 0x4 MSTORE PUSH1 0x24 PUSH1 0x0 REVERT JUMPDEST PUSH4 0x4E487B71 PUSH1 0xE0 SHL PUSH1 0x0 MSTORE PUSH1 0x41 PUSH1 0x4 MSTORE PUSH1 0x24 PUSH1 0x0 REVERT JUMPDEST PUSH1 0x1 PUSH1 0x1 PUSH1 0xA0 SHL SUB DUP2 AND DUP2 EQ PUSH2 0xCB4 JUMPI PUSH1 0x0 DUP1 REVERT JUMPDEST DUP1 ISZERO ISZERO DUP2 EQ PUSH2 0xCB4 JUMPI PUSH1 0x0 DUP1 REVERT JUMPDEST PUSH1 0x1 PUSH1 0x1 PUSH1 0xE0 SHL SUB NOT DUP2 AND DUP2 EQ PUSH2 0xCB4 JUMPI PUSH1 0x0 DUP1 REVERT INVALID PUSH9 0x747470733A2F2F6761 PUSH21 0x657761792E70696E6174612E636C6F75642F697066 PUSH20 0x2FDDF252AD1BE2C89B69C2B068FC378DAA952BA7 CALL PUSH4 0xC4A11628 CREATE2 GAS 0x4D CREATE2 0x23 0xB3 0xEF DUP3 GASPRICE CALLVALUE RETURNDATASIZE SHR DUP10 SWAP15 PUSH2 0xA4DB SLT 0x24 PUSH23 0x36A6882BF1FEFAE78BEF39170F8D0F5B53E456A2646970 PUSH7 0x73582212207127 GT PUSH16 0xB29FE3CB16E3FC9C7DC05E2790968FB6 0x5D 0xC4 ADDMOD DUP15 PUSH7 0xCEBEC234AE394F PUSH5 0x736F6C6343 STOP ADDMOD DIV STOP CALLER ","sha1":"c40d252c6248bb63ecfa50b78e847cf09d511134","source":"pragma solidity ^0.8.0;\n\n// SPDX-License-Identifier: BUSL-1.1\n\nimport \"@openzeppelin/contracts/access/Ownable.sol\";\nimport \"@openzeppelin/contracts/security/ReentrancyGuard.sol\";\nimport \"@openzeppelin/contracts/token/ERC20/ERC20.sol\";\nimport \"./OptionConfigBinaryV2.sol\";\nimport \"./BufferNFTCoreBinary.sol\";\nimport \"./BufferBinaryIBFRPoolBinary.sol\";\nimport \"./InterfacesBinary.sol\";\n\n/**\n * @author Heisenberg\n * @title Buffer TokenX Bidirectional (Call and Put) Options\n * @notice Buffer TokenX Options Contract\n */\ncontract BufferBinaryEuropeanATMOptions is\n    IBufferBinaryOptions,\n    Ownable,\n    ReentrancyGuard,\n    BufferNFTCoreBinary\n{\n    ERC20 public tokenX;\n    mapping(uint256 => string) private _tokenURIs;\n    IPriceProvider public priceProvider;\n    uint256 public nextTokenId = 0;\n    mapping(uint256 => Option) public options;\n    mapping(address => uint256[]) public userOptionIds;\n    mapping(address => uint256) public userOptionCount;\n    mapping(uint256 => BinaryOptionType) public binaryOptionType;\n    mapping(uint256 => uint256) public expiryToRoundID;\n    mapping(uint256 => mapping(address => uint256)) public optionSizeBought;\n    BufferBinaryIBFRPoolBinary public pool;\n    OptionConfigBinaryV2 public config;\n    mapping(uint256 => SlotDetail) public slotDetails;\n    uint256 internal contractCreationTimestamp;\n\n    bytes32 public constant AUTO_CLOSER_ROLE = keccak256(\"AUTO_CLOSER_ROLE\");\n\n    uint256 public constant minimumYield = 5;\n\n    constructor(\n        ERC20 _tokenX,\n        IPriceProvider pp,\n        BufferBinaryIBFRPoolBinary _pool,\n        OptionConfigBinaryV2 _config\n    ) {\n        tokenX = _tokenX;\n        pool = _pool;\n        contractCreationTimestamp = block.timestamp;\n        config = _config;\n        priceProvider = pp;\n        _setupRole(DEFAULT_ADMIN_ROLE, msg.sender);\n    }\n\n    /**\n     * @notice Call this to set the max approval for tokenX transfers from the options to pool\n     */\n    function approvePoolToTransferTokenX() public {\n        tokenX.approve(address(pool), ~uint256(0));\n    }\n\n    /************************************************\n     *  OPTIONS CORE\n     ***********************************************/\n\n    /**\n     * @notice Creates a new option\n     * @return optionID Created option's ID\n     */\n    function create(\n        uint256 totalFee,\n        uint256 period,\n        bool isYes,\n        bool isAbove,\n        address referrer\n    ) external nonReentrant returns (uint256 optionID) {\n        // Check if the option period is higher the 5 mins\n        require((period) >= 5 minutes, \"O21\");\n        require((period) < config.maxPeriod(), \"O24\");\n        require(totalFee > 10**decimals() / 2, \"O25\");\n\n        uint256 strike = priceProvider.getUsdPrice();\n        (uint256 unitFee, , ) = fees(\n            period,\n            10**decimals(),\n            strike,\n            isYes,\n            isAbove\n        );\n\n        uint256 amount = totalFee / unitFee;\n\n        // A user is only allowed to buy a n amount size per block\n        // so we'll have to keep track of the amount bought per block\n        optionSizeBought[block.number][msg.sender] += amount;\n        require(\n            optionSizeBought[block.number][msg.sender] + amount <\n                (config.optionSizePerBlockLimitPercent() *\n                    pool.availableBalance()) /\n                    100,\n            \"O23\"\n        );\n\n        require(\n            totalFee * 365 days * 100 > amount * (period) * minimumYield,\n            \"O2\"\n        );\n\n        // User has to approve first inorder to execute this function\n        tokenX.transferFrom(msg.sender, address(this), totalFee);\n        OptionType optionType = OptionType.Put;\n\n        if (\n            (isYes == true && isAbove == true) ||\n            (isYes == false && isAbove == false)\n        ) {\n            optionType = OptionType.Call;\n        }\n        Option memory option = Option(\n            State.Active,\n            strike,\n            amount,\n            amount,\n            10**decimals() / 2,\n            block.timestamp + period,\n            optionType,\n            totalFee,\n            block.timestamp\n        );\n        optionID = _generateTokenId();\n        binaryOptionType[optionID] = BinaryOptionType(isYes, isAbove);\n        userOptionIds[msg.sender].push(optionID);\n        userOptionCount[msg.sender] = userOptionIds[msg.sender].length;\n        options[optionID] = option;\n        _mint(\n            optionID,\n            msg.sender,\n            createSlot(optionID, option.strike, option.expiration, optionType)\n        );\n        uint256 stakingAmount = distributeSettlementFee(\n            totalFee - option.premium,\n            referrer\n        );\n\n        _lock(optionID, option.lockedAmount, option.premium);\n        emit Create(optionID, msg.sender, stakingAmount, totalFee);\n    }\n\n    function distributeSettlementFee(uint256 settlementFee, address referrer)\n        internal\n        returns (uint256 stakingAmount)\n    {\n        stakingAmount = ((settlementFee * config.stakingFeePercentage()) / 100);\n\n        // Incase the stakingAmount is 0\n        if (stakingAmount > 0) {\n            tokenX.transfer(config.settlementFeeRecipient(), stakingAmount);\n        }\n\n        uint256 adminFee = settlementFee - stakingAmount;\n        if (adminFee > 0) {\n            if (\n                config.referralRewardPercentage() > 0 &&\n                referrer != owner() &&\n                referrer != msg.sender\n            ) {\n                uint256 referralReward = (adminFee *\n                    config.referralRewardPercentage()) / 100;\n                adminFee = adminFee - referralReward;\n                tokenX.transfer(referrer, referralReward);\n                emit PayReferralFee(referrer, referralReward);\n            }\n            tokenX.transfer(owner(), adminFee);\n            emit PayAdminFee(owner(), adminFee);\n        }\n    }\n\n    function _modifyOption(\n        uint256 optionID,\n        Option memory option,\n        uint256 lockedAmount,\n        uint256 amount,\n        uint256 premium\n    ) internal returns (Option memory modifiedOption) {\n        option.lockedAmount = lockedAmount;\n        option.amount = amount;\n        option.premium = premium;\n        modifiedOption = option;\n        _setOption(optionID, option);\n    }\n\n    function _lock(\n        uint256 id,\n        uint256 lockedAmount,\n        uint256 premium\n    ) internal {\n        pool.lock(id, lockedAmount, premium);\n    }\n\n    /**\n     * @notice Sets the expiry price in the oracle\n     * @dev a roundId must be provided to confirm price validity,\n     * which is the first Chainlink price provided after the expiryTimestamp\n     * @param roundId the first roundId after expiryTimestamp\n     */\n    function setRoundIDForExpiry(uint256 roundId, uint256 optionID)\n        external\n        returns (bool isCorrectRoundId)\n    {\n        (, uint256 price, , uint256 roundTimestamp, ) = priceProvider\n            .getRoundData(roundId);\n        Option storage option = options[optionID];\n        uint256 expiryTimestamp = option.expiration;\n        require(expiryTimestamp < roundTimestamp, \"C1\");\n        require(price >= 0, \"C2\");\n        uint256 previousRoundId = expiryToRoundID[expiryTimestamp];\n        if (previousRoundId <= 0) {\n            previousRoundId = roundId - 1;\n            while (!isCorrectRoundId) {\n                (, , , uint256 previousRoundTimestamp, ) = priceProvider\n                    .getRoundData(previousRoundId);\n                if (previousRoundTimestamp == 0) {\n                    require(previousRoundId > 0, \"C3\");\n                    previousRoundId = previousRoundId - 1;\n                } else if (previousRoundTimestamp > expiryTimestamp) {\n                    revert(\"C4\");\n                } else {\n                    isCorrectRoundId = true;\n                    expiryToRoundID[expiryTimestamp] = previousRoundId;\n                }\n            }\n        }\n    }\n\n    /**\n     * @notice Unlocks the locked funds if the option was\n     * OTM at the time of expiry otherwise exercises it\n     * @param optionID ID of the option\n     */\n    function unlock(uint256 optionID) public {\n        Option storage option = options[optionID];\n        require(option.expiration <= block.timestamp, \"O4\");\n        require(option.state == State.Active, \"O5\");\n        uint256 roundID = expiryToRoundID[option.expiration];\n        require(roundID > 0, \"O20\");\n        (, uint256 priceAtExpiration, , , ) = priceProvider.getRoundData(\n            roundID\n        );\n        if (\n            (option.optionType == OptionType.Call &&\n                priceAtExpiration > option.strike) ||\n            (option.optionType == OptionType.Put &&\n                priceAtExpiration < option.strike)\n        ) {\n            exercise(optionID);\n        } else {\n            option.state = State.Expired;\n            pool.unlock(optionID);\n            burnToken(optionID);\n            emit Expire(optionID, option.premium);\n        }\n    }\n\n    /**\n     * @notice Unlocks an array of options\n     * @param optionIDs array of options\n     */\n    function unlockAll(uint256[] calldata optionIDs) external {\n        uint256 arrayLength = optionIDs.length;\n        for (uint256 i = 0; i < arrayLength; i++) {\n            unlock(optionIDs[i]);\n        }\n    }\n\n    /**\n     * @notice Exercises an option if it was\n     * ITM at the time of expiry\n     * @param optionID ID of your option\n     * @return profit Profit sent to the user\n     */\n    function exercise(uint256 optionID) public returns (uint256 profit) {\n        require(exists(optionID), \"O10\");\n\n        Option storage option = options[optionID];\n\n        require(option.expiration <= block.timestamp, \"O4\");\n        require(option.state == State.Active, \"O14\");\n        uint256 roundID = expiryToRoundID[option.expiration];\n        require(roundID > 0, \"O20\");\n        (, uint256 priceAtExpiration, , , ) = priceProvider.getRoundData(\n            roundID\n        );\n\n        if (option.optionType == OptionType.Call) {\n            require(option.strike <= priceAtExpiration, \"O17\");\n        } else {\n            require(option.strike >= priceAtExpiration, \"O18\");\n        }\n        profit = option.lockedAmount;\n        pool.send(optionID, ownerOf(optionID), profit);\n        // Burn the option\n        burnToken(optionID);\n        option.state = State.Exercised;\n        emit Exercise(optionID, profit);\n    }\n\n    /**\n     * @notice Used for getting the option's price using blackscholes\n     * @param period Option period in seconds\n     * @param amount Option amount\n     * @param strike Strike price of the option\n     * @param isYes whether the option isAbove or not\n     * @param isAbove whether the price will stay above this strike or not\n     * @return total Total price to be paid\n     * @return settlementFee Amount to be distributed to the Buffer token holders\n     * @return premium Amount that covers the price difference in the ITM options\n     */\n    function fees(\n        uint256 period,\n        uint256 amount,\n        uint256 strike,\n        bool isYes,\n        bool isAbove\n    )\n        public\n        view\n        returns (\n            uint256 total,\n            uint256 settlementFee,\n            uint256 premium\n        )\n    {\n        uint256 currentPrice = priceProvider.getUsdPrice();\n\n        // Probability for ATM options will always be 0.5 due to which we can skip using black scholes to calculate the same\n        premium = 10**decimals() / 2;\n        total = (premium * 1e4) / (1e4 - config.settlementFeePercentage());\n        settlementFee = total - premium;\n    }\n\n    function _generateTokenId() internal returns (uint256) {\n        return nextTokenId++;\n    }\n\n    function _getOption(uint256 optionID)\n        internal\n        view\n        returns (Option memory)\n    {\n        return options[optionID];\n    }\n\n    function _setOption(uint256 optionID, Option memory option) internal {\n        options[optionID] = option;\n    }\n\n    function burn(uint256 tokenId_) external {\n        require(msg.sender == ownerOf(tokenId_), \"O9\");\n        burnToken(tokenId_);\n    }\n\n    function decimals() public view virtual returns (uint8) {\n        return 18;\n    }\n\n    /************************************************\n     *  ERC3525 Functions\n     ***********************************************/\n\n    /**\n     * @notice Splits the option\n     * @param optionID OptionId to be splitted\n     * @param splitUnits_ Units to be splitted into\n     * @return newOptionIDs An array of the splitted options\n     */\n    function split(uint256 optionID, uint256[] calldata splitUnits_)\n        external\n        returns (uint256[] memory newOptionIDs)\n    {\n        require(splitUnits_.length > 0, \"N1\");\n        newOptionIDs = new uint256[](splitUnits_.length);\n        Option memory option = _getOption(optionID);\n        uint256 totalUnits = unitsInToken(optionID);\n        uint256 totalChildAmount;\n        uint256 totalChildLockedAmount;\n        uint256 totalChildPremium;\n        // Create child options\n        for (uint256 i = 0; i < splitUnits_.length; i++) {\n            uint256 newOptionID = _generateTokenId();\n            newOptionIDs[i] = newOptionID;\n\n            _split(optionID, newOptionID, splitUnits_[i]);\n\n            uint256 childAmount = (option.amount * splitUnits_[i]) / totalUnits;\n            totalChildAmount += childAmount;\n\n            uint256 childLockedAmount = (option.lockedAmount * splitUnits_[i]) /\n                totalUnits;\n            totalChildLockedAmount += childLockedAmount;\n\n            uint256 childPremium = (option.premium * splitUnits_[i]) /\n                totalUnits;\n            totalChildPremium += childPremium;\n\n            Option memory newOption = Option(\n                option.state,\n                option.strike,\n                childAmount,\n                childLockedAmount,\n                childPremium,\n                option.expiration,\n                option.optionType,\n                option.totalFee,\n                block.timestamp\n            );\n            _setOption(newOptionID, newOption);\n        }\n        // Modify the parent option once all child options are created\n        option = _modifyOption(\n            optionID,\n            option,\n            option.lockedAmount - totalChildLockedAmount,\n            option.amount - totalChildAmount,\n            option.premium - totalChildPremium\n        );\n        pool.changeLock(optionID, option.lockedAmount, option.premium);\n\n        // Lock the amount in the pool for the child options\n        for (uint256 i = 0; i < splitUnits_.length; i++) {\n            Option memory newOption = _getOption(newOptionIDs[i]);\n            _lock(newOptionIDs[i], newOption.lockedAmount, newOption.premium);\n        }\n    }\n\n    /**\n     * @notice Merges the options\n     * @param optionIDs An array of the optionsIds to be merged\n     * @param targetOptionID OptionId to be merged into\n     */\n    function merge(uint256[] calldata optionIDs, uint256 targetOptionID)\n        external\n    {\n        require(optionIDs.length > 0, \"N4\");\n        Option memory targetOption = _getOption(targetOptionID);\n\n        uint256 totalLockedAmount = targetOption.lockedAmount;\n        uint256 totalAmount = targetOption.amount;\n        uint256 totalPremium = targetOption.premium;\n\n        for (uint256 i = 0; i < optionIDs.length; i++) {\n            Option memory option = _getOption(optionIDs[i]);\n            totalLockedAmount = totalLockedAmount + option.lockedAmount;\n            totalAmount = totalAmount + option.amount;\n            totalPremium = totalPremium + option.premium;\n            pool.unlockWithoutProfit(optionIDs[i]);\n            _merge(optionIDs[i], targetOptionID);\n        }\n        _modifyOption(\n            targetOptionID,\n            targetOption,\n            totalLockedAmount,\n            totalAmount,\n            totalPremium\n        );\n        pool.changeLock(targetOptionID, totalLockedAmount, totalPremium);\n    }\n\n    /**\n     * @notice Transfer part of units of a option to another option.\n     * @param optionID Id of the option to transfer\n     * @param transferUnits_ Amount of units to transfer\n     */\n    function _beforeTransferFrom(uint256 optionID, uint256 transferUnits_)\n        internal\n        returns (\n            uint256 newAmount,\n            uint256 newPremium,\n            uint256 newLockedAmount,\n            Option memory option\n        )\n    {\n        option = _getOption(optionID);\n        uint256 totalUnits = unitsInToken(optionID);\n        newAmount = (option.amount * transferUnits_) / totalUnits;\n        newPremium = (option.premium * transferUnits_) / totalUnits;\n        newLockedAmount = (option.lockedAmount * transferUnits_) / totalUnits;\n\n        option = _modifyOption(\n            optionID,\n            option,\n            option.lockedAmount - newLockedAmount,\n            option.amount - newAmount,\n            option.premium - newPremium\n        );\n        pool.changeLock(optionID, option.lockedAmount, option.premium);\n    }\n\n    /**\n     * @notice Transfer part of units of a option to target address.\n     * @param from_ Address of the option sender\n     * @param to_ Address of the option recipient\n     * @param optionID Id of the option to transfer\n     * @param transferUnits_ Amount of units to transfer\n     */\n    function transferFrom(\n        address from_,\n        address to_,\n        uint256 optionID,\n        uint256 transferUnits_\n    ) external returns (uint256 newOptionID) {\n        newOptionID = _generateTokenId();\n        (\n            uint256 newAmount,\n            uint256 newPremium,\n            uint256 newLockedAmount,\n            Option memory option\n        ) = _beforeTransferFrom(optionID, transferUnits_);\n        Option memory newOption = Option(\n            option.state,\n            option.strike,\n            newAmount,\n            newLockedAmount,\n            newPremium,\n            option.expiration,\n            option.optionType,\n            option.totalFee,\n            block.timestamp\n        );\n        _setOption(newOptionID, newOption);\n\n        _lock(newOptionID, newLockedAmount, newPremium);\n        _transferUnitsFrom(from_, to_, optionID, newOptionID, transferUnits_);\n    }\n\n    /**\n     * @notice Transfer part of units of a option to another option.\n     * @param from_ Address of the option sender\n     * @param to_ Address of the option recipient\n     * @param optionID Id of the option to transfer\n     * @param targetOptionID Id of the option to receive\n     * @param transferUnits_ Amount of units to transfer\n     */\n    function transferFrom(\n        address from_,\n        address to_,\n        uint256 optionID,\n        uint256 targetOptionID,\n        uint256 transferUnits_\n    ) external virtual {\n        require(exists(targetOptionID), \"N12\");\n        (\n            uint256 newAmount,\n            uint256 newPremium,\n            uint256 newLockedAmount,\n\n        ) = _beforeTransferFrom(optionID, transferUnits_);\n        Option memory targetOption = _getOption(targetOptionID);\n        targetOption = _modifyOption(\n            targetOptionID,\n            targetOption,\n            targetOption.lockedAmount + newLockedAmount,\n            targetOption.amount + newAmount,\n            targetOption.premium + newPremium\n        );\n\n        pool.changeLock(\n            targetOptionID,\n            targetOption.lockedAmount,\n            targetOption.premium\n        );\n        _transferUnitsFrom(\n            from_,\n            to_,\n            optionID,\n            targetOptionID,\n            transferUnits_\n        );\n    }\n\n    function createSlot(\n        uint256 optionID,\n        uint256 strike,\n        uint256 expiration,\n        OptionType optionType\n    ) internal returns (uint256 slot) {\n        slot = uint256(\n            keccak256(abi.encode(strike, expiration, optionType, optionID))\n        );\n        require(!slotDetails[slot].isValid, \"N14\");\n        slotDetails[slot] = SlotDetail(strike, expiration, optionType, true);\n    }\n}\n","sourcePath":"contracts/Binary ATM Options/BufferBinaryEuropeanATMOptions.sol","deployment":{"address":"0x9459af769414AD26cC0ba7077835f0f3B75B17A1","chainid":"80001","blockHeight":27468923}}