{"bytecode":"6080604052620f4240600d55600e805460ff1916601217905560006013553480156200002a57600080fd5b5060405162005a4038038062005a408339810160408190526200004d91620002f0565b6040805180820182526006815265213ab33332b960d11b60208083019182528351808501909452600384526221232960e91b90840152815191929162000096916000916200024a565b508051620000ac9060019060208401906200024a565b505050620000c9620000c36200014060201b60201c565b62000144565b6001600755620000db60003362000196565b601080546001600160a01b038087166001600160a01b0319928316179092556018805485841690831617905542601b556019805484841690831617905560128054928616929091169190911790556200013660003362000196565b50505050620003ad565b3390565b600680546001600160a01b038381166001600160a01b0319831681179093556040519116919082907f8be0079c531659141344cd1fd0a4f28419497f9722a3daafe3b4186f6b6457e090600090a35050565b620001a28282620001a6565b5050565b60008281526008602090815260408083206001600160a01b038516845290915290205460ff16620001a25760008281526008602090815260408083206001600160a01b03851684529091529020805460ff19166001179055620002063390565b6001600160a01b0316816001600160a01b0316837f2f8788117e7eff1d82e926ec794901d17c78024a50270940304540a733656f0d60405160405180910390a45050565b828054620002589062000357565b90600052602060002090601f0160209004810192826200027c5760008555620002c7565b82601f106200029757805160ff1916838001178555620002c7565b82800160010185558215620002c7579182015b82811115620002c7578251825591602001919060010190620002aa565b50620002d5929150620002d9565b5090565b5b80821115620002d55760008155600101620002da565b6000806000806080858703121562000306578384fd5b8451620003138162000394565b6020860151909450620003268162000394565b6040860151909350620003398162000394565b60608601519092506200034c8162000394565b939692955090935050565b600181811c908216806200036c57607f821691505b602082108114156200038e57634e487b7160e01b600052602260045260246000fd5b50919050565b6001600160a01b0381168114620003aa57600080fd5b50565b61568380620003bd6000396000f3fe608060405234801561001057600080fd5b506004361061029e5760003560e01c806301ffc9a7146102a357806305271a2a146102cb57806306517a29146102e057806306fdde03146102f7578063076d948c1461030c578063081812fc1461031f578063095ea7b31461034a57806316dc165b1461035f57806316f0115b1461037257806323b872dd14610385578063248a9ca314610398578063263f3e7e146103ab5780632f2ff15d146103be57806334c01793146103d157806336568abe146103fc578063409e22051461040f578063426a84931461047257806342842e0e1461048557806342966c68146104985780634aed53c2146104ab5780634f558e79146104be5780636198e339146104d15780636352211e146104e4578063645734e6146104f757806367807f7d146104ff578063689ab5ac1461052157806369c672471461056457806370a0823114610584578063715018a61461059757806375794a3c1461059f57806378c533ce146105a857806379502c55146105c8578063841edc0e146105db5780638a584118146105fb5780638da5cb5b1461064657806391d148541461064e57806395d89b4114610661578063a217fddf14610669578063a22cb46514610671578063a6d14c0214610684578063a88004251461068c578063b07f0a411461069f578063b888879e146106b2578063b88d4fde146106c5578063bbe33ea5146106d8578063becef607146106eb578063c0d720bb146106fe578063c87b56dd14610711578063d149cc3014610724578063d547741f14610737578063d5a0e6731461074a578063d67a6b701461076a578063dba34e971461077d578063e342b598146107a4578063e345e0bc146107b7578063e985e9c5146107f1578063f2fde38b14610804578063fe99049a14610817575b600080fd5b6102b66102b1366004614e96565b61082a565b60405190151581526020015b60405180910390f35b600e5460405160ff90911681526020016102c2565b6102e9600d5481565b6040519081526020016102c2565b6102ff61083b565b6040516102c2919061526a565b6102e961031a366004614e5a565b6108cd565b61033261032d366004614e5a565b610912565b6040516001600160a01b0390911681526020016102c2565b61035d610358366004614d57565b61099f565b005b601054610332906001600160a01b031681565b601854610332906001600160a01b031681565b61035d610393366004614bd9565b610ab0565b6102e96103a6366004614e5a565b610ae1565b6102e96103b9366004614e5a565b610af6565b61035d6103cc366004614e72565b610b08565b6102e96103df366004614e72565b601760209081526000928352604080842090915290825290205481565b61035d61040a366004614e72565b610b25565b61045f61041d366004614e5a565b601460205260009081526040902080546001820154600283015460038401546004850154600586015460069096015460ff958616969495939492939192911687565b6040516102c2979695949392919061520e565b61035d610480366004614d82565b610ba3565b61035d610493366004614bd9565b610be7565b61035d6104a6366004614e5a565b610c02565b61035d6104b9366004614cda565b610c47565b6102b66104cc366004614e5a565b610d69565b61035d6104df366004614e5a565b610d74565b6103326104f2366004614e5a565b610ffd565b61035d611074565b61051261050d366004614f50565b6110fe565b6040516102c29392919061543b565b61054d61052f366004614e5a565b60156020526000908152604090205460ff8082169161010090041682565b6040805192151583529015156020830152016102c2565b610577610572366004614ee6565b611278565b6040516102c291906151ca565b6102e9610592366004614b69565b61166a565b61035d6116f1565b6102e960135481565b6102e96105b6366004614e5a565b600f6020526000908152604090205481565b601954610332906001600160a01b031681565b6102e96105e9366004614e5a565b60166020526000908152604090205481565b610636610609366004614e5a565b601a6020526000908152604090208054600182015460029092015490919060ff8082169161010090041684565b6040516102c294939291906153c6565b61033261172c565b6102b661065c366004614e72565b61173b565b6102ff611766565b6102e9600081565b61035d61067f366004614d2a565b611775565b6102e9600581565b6102e961069a366004614e5a565b611836565b6102e96106ad366004614e5a565b61184d565b601254610332906001600160a01b031681565b61035d6106d3366004614c19565b611b52565b61035d6106e6366004614df5565b611b85565b6102e96106f9366004614e5a565b611d94565b6102e961070c366004614fa5565b611da6565b6102ff61071f366004614e5a565b61238c565b6102e9610732366004614f2f565b612397565b61035d610745366004614e72565b6123b6565b6102e9610758366004614e5a565b600a6020526000908152604090205481565b6102b6610778366004614f2f565b6123d3565b6102e97fdeb3b49547f710c56a925b6e16e3557a50fab4dd8f243bc314f3afba2054ec5b81565b61035d6107b2366004614db6565b6125fb565b6102e96107c5366004614e72565b6000828152600b602090815260408083206001600160a01b038516845260010190915290205492915050565b6102b66107ff366004614ba1565b612648565b61035d610812366004614b69565b612676565b6102e9610825366004614c95565b612713565b6000610835826127ea565b92915050565b60606000805461084a906154f6565b80601f0160208091040260200160405190810160405280929190818152602001828054610876906154f6565b80156108c35780601f10610898576101008083540402835291602001916108c3565b820191906000526020600020905b8154815290600101906020018083116108a657829003601f168201915b5050505050905090565b6000805b6108da83611836565b81101561090c576108ee6106f98483612397565b6108f89083615451565b9150806109048161552b565b9150506108d1565b50919050565b600061091d8261280f565b6109835760405162461bcd60e51b815260206004820152602c60248201527f4552433732313a20617070726f76656420717565727920666f72206e6f6e657860448201526b34b9ba32b73a103a37b5b2b760a11b60648201526084015b60405180910390fd5b506000908152600460205260409020546001600160a01b031690565b60006109aa82610ffd565b9050806001600160a01b0316836001600160a01b03161415610a185760405162461bcd60e51b815260206004820152602160248201527f4552433732313a20617070726f76616c20746f2063757272656e74206f776e656044820152603960f91b606482015260840161097a565b336001600160a01b0382161480610a345750610a348133612648565b610aa15760405162461bcd60e51b815260206004820152603860248201527f4552433732313a20617070726f76652063616c6c6572206973206e6f74206f776044820152771b995c881b9bdc88185c1c1c9bdd995908199bdc88185b1b60421b606482015260840161097a565b610aab838361282c565b505050565b610aba338261289a565b610ad65760405162461bcd60e51b815260040161097a90615359565b610aab838383612964565b60009081526008602052604090206001015490565b6000908152600a602052604090205490565b610b1182610ae1565b610b1b8133612afd565b610aab8383612b61565b6001600160a01b0381163314610b955760405162461bcd60e51b815260206004820152602f60248201527f416363657373436f6e74726f6c3a2063616e206f6e6c792072656e6f756e636560448201526e103937b632b9903337b91039b2b63360891b606482015260840161097a565b610b9f8282612be7565b5050565b610bac82610ffd565b6001600160a01b0316336001600160a01b031614610bdc5760405162461bcd60e51b815260040161097a9061527d565b610aab838383612c4e565b610aab83838360405180602001604052806000815250611b52565b610c0b81610ffd565b6001600160a01b0316336001600160a01b031614610c3b5760405162461bcd60e51b815260040161097a9061527d565b610c4481612d13565b50565b610c5082610d69565b610c825760405162461bcd60e51b815260206004820152600360248201526227189960e91b604482015260640161097a565b6000806000610c918685612d2b565b509250925092506000610ca386612e58565b9050610cdf8682848460600151610cba9190615451565b878560400151610cca9190615451565b878660800151610cda9190615451565b612f47565b601854606082015160808301516040516357a5c96760e01b81529394506001600160a01b03909216926357a5c96792610d1f928b9290919060040161543b565b600060405180830381600087803b158015610d3957600080fd5b505af1158015610d4d573d6000803e3d6000fd5b50505050610d5e8989898989612f79565b505050505050505050565b60006108358261280f565b60008181526014602052604090206005810154421015610da65760405162461bcd60e51b815260040161097a906153aa565b6001815460ff166003811115610dcc57634e487b7160e01b600052602160045260246000fd5b14610dfe5760405162461bcd60e51b81526020600482015260026024820152614f3560f01b604482015260640161097a565b600581015460009081526016602052604090205480610e2f5760405162461bcd60e51b815260040161097a906152eb565b6012546040516303906d2960e11b8152600481018390526000916001600160a01b031690630720da529060240160a06040518083038186803b158015610e7457600080fd5b505afa158015610e88573d6000803e3d6000fd5b505050506040513d601f19601f82011682018060405250810190610eac9190615047565b5091935060029250610ebc915050565b600684015460ff166002811115610ee357634e487b7160e01b600052602160045260246000fd5b148015610ef35750826001015481115b80610f3257506001600684015460ff166002811115610f2257634e487b7160e01b600052602160045260246000fd5b148015610f325750826001015481105b15610f4657610f408461184d565b50610ff7565b825460ff19166003178355601854604051636198e33960e01b8152600481018690526001600160a01b0390911690636198e33990602401600060405180830381600087803b158015610f9757600080fd5b505af1158015610fab573d6000803e3d6000fd5b50505050610fb884612d13565b837f5f36a4a575e512eb69d6d28c3b0ff98cca7ba50ad5bf04e14094ad1d425e0d318460040154604051610fee91815260200190565b60405180910390a25b50505050565b6000818152600260205260408120546001600160a01b0316806108355760405162461bcd60e51b815260206004820152602960248201527f4552433732313a206f776e657220717565727920666f72206e6f6e657869737460448201526832b73a103a37b5b2b760b91b606482015260840161097a565b60105460185460405163095ea7b360e01b81526001600160a01b039283169263095ea7b3926110ac92911690600019906004016151b1565b602060405180830381600087803b1580156110c657600080fd5b505af11580156110da573d6000803e3d6000fd5b505050506040513d601f19601f82011682018060405250810190610c449190614e3e565b600080600080601260009054906101000a90046001600160a01b03166001600160a01b0316631acf55826040518163ffffffff1660e01b815260040160206040518083038186803b15801561115257600080fd5b505afa158015611166573d6000803e3d6000fd5b505050506040513d601f19601f8201168201806040525081019061118a9190614ece565b60195460185460405163e39d06e960e01b8152600481018d9052602481018c9052604481018b90528915156064820152881515608482015260a481018490526001600160a01b0392831660c4820152911660e482015290915073__FeeCalculator_________________________9063e39d06e9906101040160206040518083038186803b15801561121b57600080fd5b505af415801561122f573d6000803e3d6000fd5b505050506040513d601f19601f820116820180604052508101906112539190614ece565b915061125e886131bf565b925061126a8284615451565b935050955095509592505050565b6060816112ac5760405162461bcd60e51b81526020600482015260026024820152614e3160f01b604482015260640161097a565b816001600160401b038111156112d257634e487b7160e01b600052604160045260246000fd5b6040519080825280602002602001820160405280156112fb578160200160208202803683370190505b509050600061130985612e58565b9050600061131686611d94565b905060008080805b8781101561152957600061133061325d565b90508088838151811061135357634e487b7160e01b600052603260045260246000fd5b6020026020010181815250506113908b828c8c8681811061138457634e487b7160e01b600052603260045260246000fd5b90506020020135613277565b6000868b8b858181106113b357634e487b7160e01b600052603260045260246000fd5b9050602002013589604001516113c9919061547d565b6113d39190615469565b90506113df8187615451565b95506000878c8c8681811061140457634e487b7160e01b600052603260045260246000fd5b905060200201358a6060015161141a919061547d565b6114249190615469565b90506114308187615451565b95506000888d8d8781811061145557634e487b7160e01b600052603260045260246000fd5b905060200201358b6080015161146b919061547d565b6114759190615469565b90506114818187615451565b955060006040518060e001604052808c6000015160038111156114b457634e487b7160e01b600052602160045260246000fd5b81526020018c6020015181526020018581526020018481526020018381526020018c60a0015181526020018c60c00151600281111561150357634e487b7160e01b600052602160045260246000fd5b9052905061151185826133a1565b505050505080806115219061552b565b91505061131e565b5061155f898684886060015161153f919061549c565b86896040015161154f919061549c565b858a60800151610cda919061549c565b601854606082015160808301516040516357a5c96760e01b81529398506001600160a01b03909216926357a5c9679261159f928e9290919060040161543b565b600060405180830381600087803b1580156115b957600080fd5b505af11580156115cd573d6000803e3d6000fd5b5050505060005b8781101561165d57600061160e88838151811061160157634e487b7160e01b600052603260045260246000fd5b6020026020010151612e58565b905061164a88838151811061163357634e487b7160e01b600052603260045260246000fd5b602002602001015182606001518360800151613459565b50806116558161552b565b9150506115d4565b5050505050509392505050565b60006001600160a01b0382166116d55760405162461bcd60e51b815260206004820152602a60248201527f4552433732313a2062616c616e636520717565727920666f7220746865207a65604482015269726f206164647265737360b01b606482015260840161097a565b506001600160a01b031660009081526003602052604090205490565b336116fa61172c565b6001600160a01b0316146117205760405162461bcd60e51b815260040161097a90615324565b61172a60006134c4565b565b6006546001600160a01b031690565b60009182526008602090815260408084206001600160a01b0393909316845291905290205460ff1690565b60606001805461084a906154f6565b6001600160a01b0382163314156117ca5760405162461bcd60e51b815260206004820152601960248201527822a9219b99189d1030b8383937bb32903a379031b0b63632b960391b604482015260640161097a565b3360008181526005602090815260408083206001600160a01b03871680855290835292819020805460ff191686151590811790915590519081529192917f17307eab39ab6107e8899845ad3d59bd9653f200f220920489ca2b5937696c31910160405180910390a35050565b6000818152600c6020526040812061083590613516565b600061185882610d69565b61188a5760405162461bcd60e51b815260206004820152600360248201526204f31360ec1b604482015260640161097a565b600082815260146020526040902060058101544210156118bc5760405162461bcd60e51b815260040161097a906153aa565b6001815460ff1660038111156118e257634e487b7160e01b600052602160045260246000fd5b146119155760405162461bcd60e51b815260206004820152600360248201526213cc4d60ea1b604482015260640161097a565b6005810154600090815260166020526040902054806119465760405162461bcd60e51b815260040161097a906152eb565b6012546040516303906d2960e11b8152600481018390526000916001600160a01b031690630720da529060240160a06040518083038186803b15801561198b57600080fd5b505afa15801561199f573d6000803e3d6000fd5b505050506040513d601f19601f820116820180604052508101906119c39190615047565b50919350600292506119d3915050565b600684015460ff1660028111156119fa57634e487b7160e01b600052602160045260246000fd5b1415611a3f578083600101541115611a3a5760405162461bcd60e51b81526020600482015260036024820152624f313760e81b604482015260640161097a565b611a79565b8083600101541015611a795760405162461bcd60e51b815260206004820152600360248201526209e62760eb1b604482015260640161097a565b60038301546018549094506001600160a01b03166381b34f1586611a9c81610ffd565b6040516001600160e01b031960e085901b16815260048101929092526001600160a01b0316602482015260448101879052606401600060405180830381600087803b158015611aea57600080fd5b505af1158015611afe573d6000803e3d6000fd5b50505050611b0b85612d13565b825460ff1916600217835560405184815285907e84fe51c7cb34b132b7b6eb5d5a87a489f8d6d284758d00a0402c1bad9a0def9060200160405180910390a2505050919050565b611b5d335b8361289a565b611b795760405162461bcd60e51b815260040161097a90615359565b610ff784848484613520565b81611bb75760405162461bcd60e51b8152602060048201526002602482015261138d60f21b604482015260640161097a565b6000611bc282612e58565b606081015160408201516080830151929350909160005b86811015611d16576000611c12898984818110611c0657634e487b7160e01b600052603260045260246000fd5b90506020020135612e58565b9050806060015185611c249190615451565b9450806040015184611c369190615451565b9350806080015183611c489190615451565b6018549093506001600160a01b0316630dbf21b08a8a85818110611c7c57634e487b7160e01b600052603260045260246000fd5b905060200201356040518263ffffffff1660e01b8152600401611ca191815260200190565b600060405180830381600087803b158015611cbb57600080fd5b505af1158015611ccf573d6000803e3d6000fd5b50505050611d03898984818110611cf657634e487b7160e01b600052603260045260246000fd5b9050602002013588613553565b5080611d0e8161552b565b915050611bd9565b50611d248585858585612f47565b506018546040516357a5c96760e01b81526001600160a01b03909116906357a5c96790611d599088908790869060040161543b565b600060405180830381600087803b158015611d7357600080fd5b505af1158015611d87573d6000803e3d6000fd5b5050505050505050505050565b6000908152600f602052604090205490565b600060026007541415611dfb5760405162461bcd60e51b815260206004820152601f60248201527f5265656e7472616e637947756172643a207265656e7472616e742063616c6c00604482015260640161097a565b600260075561012c611e0d428861549c565b11611e405760405162461bcd60e51b81526020600482015260036024820152624f323160e81b604482015260640161097a565b6018546040805163ab2f0e5160e01b815290516064926001600160a01b03169163ab2f0e51916004808301926020929190829003018186803b158015611e8557600080fd5b505afa158015611e99573d6000803e3d6000fd5b505050506040513d601f19601f82011682018060405250810190611ebd9190614ece565b601960009054906101000a90046001600160a01b03166001600160a01b03166371bf7e256040518163ffffffff1660e01b815260040160206040518083038186803b158015611f0b57600080fd5b505afa158015611f1f573d6000803e3d6000fd5b505050506040513d601f19601f82011682018060405250810190611f439190614ece565b611f4d919061547d565b611f579190615469565b436000908152601760209081526040808320338452909152902054611f7d908a90615451565b10611fb05760405162461bcd60e51b81526020600482015260036024820152624f323360e81b604482015260640161097a565b436000908152601760209081526040808320338452909152812080548a9290611fda908490615451565b90915550620151809050611fee428861549c565b10156120b15786156120285760405162461bcd60e51b815260206004820152600360248201526227991960e91b604482015260640161097a565b601260009054906101000a90046001600160a01b03166001600160a01b0316631acf55826040518163ffffffff1660e01b815260040160206040518083038186803b15801561207657600080fd5b505afa15801561208a573d6000803e3d6000fd5b505050506040513d601f19601f820116820180604052508101906120ae9190614ece565b96505b600080806120cb6120c2428b61549c565b8c8c8b8b6110fe565b9194509250905060056120de428b61549c565b6120e8908d61547d565b6120f2919061547d565b612100846301e1338061547d565b61210b90606461547d565b1161213d5760405162461bcd60e51b8152602060048201526002602482015261279960f11b604482015260640161097a565b6010546040516323b872dd60e01b8152336004820152306024820152604481018590526000916001600160a01b0316906323b872dd90606401602060405180830381600087803b15801561219057600080fd5b505af11580156121a4573d6000803e3d6000fd5b505050506040513d601f19601f820116820180604052508101906121c89190614e3e565b9050806121fc5760405162461bcd60e51b81526020600482015260026024820152614f3360f01b604482015260640161097a565b60018915158114801561221157506001891515145b80612223575089158015612223575088155b1561222c575060025b6040805160e0810190915260009080600181526020018e81526020018f81526020018f81526020018581526020018d815260200183600281111561228057634e487b7160e01b600052602160045260246000fd5b9052905061228c61325d565b6040805180820182528d151581528c15156020808301918252600085815260159091529290922090518154925161ffff1990931690151561ff001916176101009215159290920291909117905596506122e587826133a1565b61230387336122fe8a85602001518660a00151886136cf565b61380d565b61230d8789613830565b6000612319868b61383a565b905061232e8883606001518460800151613459565b336001600160a01b0316887f89f823a0225c73a75066e963ce2eea7708b57680ec86102773dbd244f5412892838a8d60405161236c9392919061541c565b60405180910390a35050600160075550939b9a5050505050505050505050565b606061083582613cfb565b6000828152600c602052604081206123af9083613e5d565b9392505050565b6123bf82610ae1565b6123c98133612afd565b610aab8383612be7565b6012546040516303906d2960e11b815260048101849052600091829182916001600160a01b031690630720da529060240160a06040518083038186803b15801561241c57600080fd5b505afa158015612430573d6000803e3d6000fd5b505050506040513d601f19601f820116820180604052508101906124549190615047565b50600088815260146020526040902060058101549396509094509250508281106124a55760405162461bcd60e51b8152602060048201526002602482015261433160f01b604482015260640161097a565b600081815260166020526040902054806125f0576124c460018961549c565b90505b856125f0576012546040516303906d2960e11b8152600481018390526000916001600160a01b031690630720da529060240160a06040518083038186803b15801561251157600080fd5b505afa158015612525573d6000803e3d6000fd5b505050506040513d601f19601f820116820180604052508101906125499190615047565b509350505050806000141561259f576000821161258d5760405162461bcd60e51b8152602060048201526002602482015261433360f01b604482015260640161097a565b61259860018361549c565b91506125ea565b828111156125d45760405162461bcd60e51b815260206004820152600260248201526110cd60f21b604482015260640161097a565b6000838152601660205260409020829055600196505b506124c7565b505050505092915050565b8060005b81811015610ff75761263684848381811061262a57634e487b7160e01b600052603260045260246000fd5b90506020020135610d74565b806126408161552b565b9150506125ff565b6001600160a01b03918216600090815260056020908152604080832093909416825291909152205460ff1690565b3361267f61172c565b6001600160a01b0316146126a55760405162461bcd60e51b815260040161097a90615324565b6001600160a01b03811661270a5760405162461bcd60e51b815260206004820152602660248201527f4f776e61626c653a206e6577206f776e657220697320746865207a65726f206160448201526564647265737360d01b606482015260840161097a565b610c44816134c4565b600061271d61325d565b905060008060008061272f8787612d2b565b935093509350935060006040518060e001604052808360000151600381111561276857634e487b7160e01b600052602160045260246000fd5b8152602001836020015181526020018681526020018481526020018581526020018360a0015181526020018360c0015160028111156127b757634e487b7160e01b600052602160045260246000fd5b905290506127c586826133a1565b6127d0868486613459565b6127dd8a8a8a898b612f79565b5050505050949350505050565b60006001600160e01b03198216637965db0b60e01b1480610835575061083582613e69565b6000908152600260205260409020546001600160a01b0316151590565b600081815260046020526040902080546001600160a01b0319166001600160a01b038416908117909155819061286182610ffd565b6001600160a01b03167f8c5be1e5ebec7d5bd14f71427d1e84f3dd0314c0f7b2291e5b200ac8c7c3b92560405160405180910390a45050565b60006128a58261280f565b6129065760405162461bcd60e51b815260206004820152602c60248201527f4552433732313a206f70657261746f7220717565727920666f72206e6f6e657860448201526b34b9ba32b73a103a37b5b2b760a11b606482015260840161097a565b600061291183610ffd565b9050806001600160a01b0316846001600160a01b0316148061294c5750836001600160a01b031661294184610912565b6001600160a01b0316145b8061295c575061295c8185612648565b949350505050565b826001600160a01b031661297782610ffd565b6001600160a01b0316146129df5760405162461bcd60e51b815260206004820152602960248201527f4552433732313a207472616e73666572206f6620746f6b656e2074686174206960448201526839903737ba1037bbb760b91b606482015260840161097a565b6001600160a01b038216612a415760405162461bcd60e51b8152602060048201526024808201527f4552433732313a207472616e7366657220746f20746865207a65726f206164646044820152637265737360e01b606482015260840161097a565b612a4c838383613eb9565b612a5760008261282c565b6001600160a01b0383166000908152600360205260408120805460019290612a8090849061549c565b90915550506001600160a01b0382166000908152600360205260408120805460019290612aae908490615451565b909155505060008181526002602052604080822080546001600160a01b0319166001600160a01b03868116918217909255915184939187169160008051602061560e83398151915291a4505050565b612b07828261173b565b610b9f57612b1f816001600160a01b03166014613ed1565b612b2a836020613ed1565b604051602001612b3b929190615105565b60408051601f198184030181529082905262461bcd60e51b825261097a9160040161526a565b612b6b828261173b565b610b9f5760008281526008602090815260408083206001600160a01b03851684529091529020805460ff19166001179055612ba33390565b6001600160a01b0316816001600160a01b0316837f2f8788117e7eff1d82e926ec794901d17c78024a50270940304540a733656f0d60405160405180910390a45050565b612bf1828261173b565b15610b9f5760008281526008602090815260408083206001600160a01b0385168085529252808320805460ff1916905551339285917ff6391f5c32d9c69d2a47ea670b442974b53935d1edc7fd64eb21e047a839171b9190a45050565b6000828152600b602090815260408083206001600160a01b0387168452600101909152902054612cb0576000828152600b602090815260408220805460018101825590835291200180546001600160a01b0319166001600160a01b0385161790555b6000828152600b602090815260408083206001600160a01b0387168085526001909101835292819020849055518381528492917f8a156bd946dc74ec284c5f4b365ce75ef2a5b9d9462b4cdb1d2400cabf136541910160405180910390a3505050565b6000818152600a6020526040812055610c44816140b2565b6000806000612d3861499a565b612d4186612e58565b90506000612d4e87611d94565b905080868360400151612d61919061547d565b612d6b9190615469565b945080868360800151612d7e919061547d565b612d889190615469565b935080868360600151612d9b919061547d565b612da59190615469565b9250612ddc8783858560600151612dbc919061549c565b888660400151612dcc919061549c565b888760800151610cda919061549c565b601854606082015160808301516040516357a5c96760e01b81529395506001600160a01b03909216926357a5c96792612e1c928c9290919060040161543b565b600060405180830381600087803b158015612e3657600080fd5b505af1158015612e4a573d6000803e3d6000fd5b505050505092959194509250565b612e6061499a565b60008281526014602052604090819020815160e081019092528054829060ff166003811115612e9f57634e487b7160e01b600052602160045260246000fd5b6003811115612ebe57634e487b7160e01b600052602160045260246000fd5b81526001820154602082015260028083015460408301526003830154606083015260048301546080830152600583015460a0830152600683015460c09092019160ff1690811115612f1f57634e487b7160e01b600052602160045260246000fd5b6002811115612f3e57634e487b7160e01b600052602160045260246000fd5b90525092915050565b612f4f61499a565b5060608401839052604084018290526080840181905283612f7086826133a1565b95945050505050565b612f8283610ffd565b6001600160a01b0316856001600160a01b031614612fc75760405162461bcd60e51b81526020600482015260026024820152614e3960f01b604482015260640161097a565b6001600160a01b0384166130035760405162461bcd60e51b815260206004820152600360248201526204e31360ec1b604482015260640161097a565b336001600160a01b0386161480159061302357506130218533612648565b155b1561306e576000838152600b6020908152604080832033845260010190915290205461305090829061549c565b6000848152600b602090815260408083203384526001019091529020555b6000838152600f602052604090205461308890829061549c565b6000848152600f60205260409020556130a08261280f565b6130bd576130b884836130b286610af6565b84614144565b613165565b836001600160a01b03166130d083610ffd565b6001600160a01b03161461310c5760405162461bcd60e51b81526020600482015260036024820152624e313160e81b604482015260640161097a565b61311582610af6565b61311e84610af6565b1461313b5760405162461bcd60e51b815260040161097a90615308565b6000828152600f6020526040902054613155908290615451565b6000838152600f60205260409020555b6000838152600a60205260408082205484835291819020919091555183906001600160a01b03808716919088169060008051602061562e833981519152906131b0908790879061525c565b60405180910390a45050505050565b60006064601960009054906101000a90046001600160a01b03166001600160a01b031663f3fa34956040518163ffffffff1660e01b815260040160206040518083038186803b15801561321157600080fd5b505afa158015613225573d6000803e3d6000fd5b505050506040513d601f19601f820116820180604052508101906132499190614ece565b613253908461547d565b6108359190615469565b601380546000918261326e8361552b565b91905055905090565b613281338461289a565b6132b25760405162461bcd60e51b8152602060048201526002602482015261271960f11b604482015260640161097a565b6132bb8261280f565b156132ed5760405162461bcd60e51b81526020600482015260026024820152614e3360f01b604482015260640161097a565b61330c826132fa85610af6565b6000918252600a602052604090912055565b6000838152600f602052604090205461332690829061549c565b6000848152600f602052604081209190915561334184610ffd565b9050613357818461335187610af6565b85614144565b83816001600160a01b03167ff66885c33d648fcd0d97e0f2a18e30102169c22763473af0fb716f11b4a17dd6858560405161339392919061525c565b60405180910390a350505050565b60008281526014602052604090208151815483929190829060ff191660018360038111156133df57634e487b7160e01b600052602160045260246000fd5b02179055506020820151816001015560408201518160020155606082015181600301556080820151816004015560a0820151816005015560c08201518160060160006101000a81548160ff0219169083600281111561344e57634e487b7160e01b600052602160045260246000fd5b021790555050505050565b60185460405163edd0d42160e01b81526001600160a01b039091169063edd0d4219061348d9086908690869060040161543b565b600060405180830381600087803b1580156134a757600080fd5b505af11580156134bb573d6000803e3d6000fd5b50505050505050565b600680546001600160a01b038381166001600160a01b0319831681179093556040519116919082907f8be0079c531659141344cd1fd0a4f28419497f9722a3daafe3b4186f6b6457e090600090a35050565b6000610835825490565b61352b848484612964565b613537848484846141ce565b610ff75760405162461bcd60e51b815260040161097a90615299565b61355c33611b57565b61358d5760405162461bcd60e51b81526020600482015260026024820152614e3560f01b604482015260640161097a565b808214156135c25760405162461bcd60e51b8152602060048201526002602482015261271b60f11b604482015260640161097a565b6135cb81610af6565b6135d483610af6565b146135f15760405162461bcd60e51b815260040161097a90615308565b60006135fc83610ffd565b905061360782610ffd565b6001600160a01b0316816001600160a01b03161461364c5760405162461bcd60e51b815260206004820152600260248201526109c760f31b604482015260640161097a565b6000838152600f60205260408082205484835291205461366c9082615451565b6000848152600f602052604090205561368484612d13565b8284836001600160a01b03167fb3ce851d16b3bbec3774d5631a3893dfa2a80e067cfad265dd594402ac3d6096846040516136c191815260200190565b60405180910390a450505050565b6000838383876040516020016136e894939291906153f2565b60408051808303601f1901815291815281516020928301206000818152601a909352912060020154909150610100900460ff161561374e5760405162461bcd60e51b8152602060048201526003602482015262138c4d60ea1b604482015260640161097a565b604051806080016040528085815260200184815260200183600281111561378557634e487b7160e01b600052602160045260246000fd5b8152600160209182018190526000848152601a8352604090819020845181559284015183830155830151600280840180549293909260ff19169184908111156137de57634e487b7160e01b600052602160045260246000fd5b021790555060609190910151600290910180549115156101000261ff0019909216919091179055949350505050565b6000838152600a60205260409020819055600d54610aab90839085908490614144565b610b9f82826142db565b60006064601960009054906101000a90046001600160a01b03166001600160a01b031663ca535c3b6040518163ffffffff1660e01b815260040160206040518083038186803b15801561388c57600080fd5b505afa1580156138a0573d6000803e3d6000fd5b505050506040513d601f19601f820116820180604052508101906138c49190614ece565b6138ce908561547d565b6138d89190615469565b905080156139d95760105460195460408051630605cc7760e21b815290516001600160a01b039384169363a9059cbb93169163181731dc916004808301926020929190829003018186803b15801561392f57600080fd5b505afa158015613943573d6000803e3d6000fd5b505050506040513d601f19601f820116820180604052508101906139679190614b85565b836040518363ffffffff1660e01b81526004016139859291906151b1565b602060405180830381600087803b15801561399f57600080fd5b505af11580156139b3573d6000803e3d6000fd5b505050506040513d601f19601f820116820180604052508101906139d79190614e3e565b505b60006139e5828561549c565b90508015613cf45760195460408051634905129f60e11b815290516000926001600160a01b03169163920a253e916004808301926020929190829003018186803b158015613a3257600080fd5b505afa158015613a46573d6000803e3d6000fd5b505050506040513d601f19601f82011682018060405250810190613a6a9190614ece565b118015613a905750613a7a61172c565b6001600160a01b0316836001600160a01b031614155b8015613aa557506001600160a01b0383163314155b15613c1f5760006064601960009054906101000a90046001600160a01b03166001600160a01b031663920a253e6040518163ffffffff1660e01b815260040160206040518083038186803b158015613afc57600080fd5b505afa158015613b10573d6000803e3d6000fd5b505050506040513d601f19601f82011682018060405250810190613b349190614ece565b613b3e908461547d565b613b489190615469565b9050613b54818361549c565b60105460405163a9059cbb60e01b81529193506001600160a01b03169063a9059cbb90613b8790879085906004016151b1565b602060405180830381600087803b158015613ba157600080fd5b505af1158015613bb5573d6000803e3d6000fd5b505050506040513d601f19601f82011682018060405250810190613bd99190614e3e565b50836001600160a01b03167f2fc41b7d7df3272c17d9b581fcf235307bc027599c6ed68442c4100bd3a8419882604051613c1591815260200190565b60405180910390a2505b6010546001600160a01b031663a9059cbb613c3861172c565b836040518363ffffffff1660e01b8152600401613c569291906151b1565b602060405180830381600087803b158015613c7057600080fd5b505af1158015613c84573d6000803e3d6000fd5b505050506040513d601f19601f82011682018060405250810190613ca89190614e3e565b50613cb161172c565b6001600160a01b03167ff0f0487d8990103573e0e5cf4e87e101e2a1ba84c733c556b7a5807e570e5d4c82604051613ceb91815260200190565b60405180910390a25b5092915050565b6060613d068261280f565b613d6c5760405162461bcd60e51b815260206004820152603160248201527f45524337323155524953746f726167653a2055524920717565727920666f72206044820152703737b732bc34b9ba32b73a103a37b5b2b760791b606482015260840161097a565b60008281526009602052604081208054613d85906154f6565b80601f0160208091040260200160405190810160405280929190818152602001828054613db1906154f6565b8015613dfe5780601f10613dd357610100808354040283529160200191613dfe565b820191906000526020600020905b815481529060010190602001808311613de157829003601f168201915b505050505090506000613e0f614366565b9050805160001415613e22575092915050565b815115613e54578082604051602001613e3c9291906150d6565b60405160208183030381529060405292505050919050565b61295c84614386565b60006123af8383614450565b60006001600160e01b031982166380ac58cd60e01b1480613e9a57506001600160e01b03198216635b5e139f60e01b145b8061083557506301ffc9a760e01b6001600160e01b0319831614610835565b6001600160a01b03831615610aab57610aab81614488565b60606000613ee083600261547d565b613eeb906002615451565b6001600160401b03811115613f1057634e487b7160e01b600052604160045260246000fd5b6040519080825280601f01601f191660200182016040528015613f3a576020820181803683370190505b509050600360fc1b81600081518110613f6357634e487b7160e01b600052603260045260246000fd5b60200101906001600160f81b031916908160001a905350600f60fb1b81600181518110613fa057634e487b7160e01b600052603260045260246000fd5b60200101906001600160f81b031916908160001a9053506000613fc484600261547d565b613fcf906001615451565b90505b6001811115614063576f181899199a1a9b1b9c1cb0b131b232b360811b85600f166010811061401157634e487b7160e01b600052603260045260246000fd5b1a60f81b82828151811061403557634e487b7160e01b600052603260045260246000fd5b60200101906001600160f81b031916908160001a90535060049490941c9361405c816154df565b9050613fd2565b5083156123af5760405162461bcd60e51b815260206004820181905260248201527f537472696e67733a20686578206c656e67746820696e73756666696369656e74604482015260640161097a565b60006140bd82610ffd565b905060006140ca83610af6565b6000848152600f6020908152604080832054848452600c909252909120919250906140f5908561453c565b506000848152600f602052604081205561410e84614548565b8360006001600160a01b0316846001600160a01b031660008051602061562e8339815191526000856040516136c192919061525c565b61414d8361280f565b6141755761415b84846145dd565b6000828152600c602052604090206141739084614709565b505b6000838152600f602052604090205461418f908290615451565b6000848152600f60205260408082209290925590516001600160a01b03861690829060008051602061562e833981519152906136c1908890879061525c565b60006001600160a01b0384163b156142d057604051630a85bd0160e11b81526001600160a01b0385169063150b7a0290614212903390899088908890600401615174565b602060405180830381600087803b15801561422c57600080fd5b505af192505050801561425c575060408051601f3d908101601f1916820190925261425991810190614eb2565b60015b6142b6573d80801561428a576040519150601f19603f3d011682016040523d82523d6000602084013e61428f565b606091505b5080516142ae5760405162461bcd60e51b815260040161097a90615299565b805181602001fd5b6001600160e01b031916630a85bd0160e11b14905061295c565b506001949350505050565b6142e48261280f565b6143475760405162461bcd60e51b815260206004820152602e60248201527f45524337323155524953746f726167653a2055524920736574206f66206e6f6e60448201526d32bc34b9ba32b73a103a37b5b2b760911b606482015260840161097a565b60008281526009602090815260409091208251610aab928401906149f6565b60606040518060600160405280602281526020016155ec60229139905090565b60606143918261280f565b6143f55760405162461bcd60e51b815260206004820152602f60248201527f4552433732314d657461646174613a2055524920717565727920666f72206e6f60448201526e3732bc34b9ba32b73a103a37b5b2b760891b606482015260840161097a565b60006143ff614366565b9050600081511161441f57604051806020016040528060008152506123af565b8061442984614715565b60405160200161443a9291906150d6565b6040516020818303038152906040529392505050565b600082600001828154811061447557634e487b7160e01b600052603260045260246000fd5b9060005260206000200154905092915050565b6000818152600b60205260408120905b8154811015610aab578160010160008360000183815481106144ca57634e487b7160e01b600052603260045260246000fd5b60009182526020808320909101546001600160a01b03168352820192909252604001812055815482908290811061451157634e487b7160e01b600052603260045260246000fd5b600091825260209091200180546001600160a01b0319169055806145348161552b565b915050614498565b60006123af838361482e565b600061455382610ffd565b905061456181600084613eb9565b61456c60008361282c565b6001600160a01b038116600090815260036020526040812080546001929061459590849061549c565b909155505060008281526002602052604080822080546001600160a01b0319169055518391906001600160a01b0384169060008051602061560e833981519152908390a45050565b6001600160a01b0382166146335760405162461bcd60e51b815260206004820181905260248201527f4552433732313a206d696e7420746f20746865207a65726f2061646472657373604482015260640161097a565b61463c8161280f565b156146885760405162461bcd60e51b815260206004820152601c60248201527b115490cdcc8c4e881d1bdad95b88185b1c9958591e481b5a5b9d195960221b604482015260640161097a565b61469460008383613eb9565b6001600160a01b03821660009081526003602052604081208054600192906146bd908490615451565b909155505060008181526002602052604080822080546001600160a01b0319166001600160a01b038616908117909155905183929060008051602061560e833981519152908290a45050565b60006123af838361494b565b6060816147395750506040805180820190915260018152600360fc1b602082015290565b8160005b8115614763578061474d8161552b565b915061475c9050600a83615469565b915061473d565b6000816001600160401b0381111561478b57634e487b7160e01b600052604160045260246000fd5b6040519080825280601f01601f1916602001820160405280156147b5576020820181803683370190505b5090505b841561295c576147ca60018361549c565b91506147d7600a86615546565b6147e2906030615451565b60f81b81838151811061480557634e487b7160e01b600052603260045260246000fd5b60200101906001600160f81b031916908160001a905350614827600a86615469565b94506147b9565b6000818152600183016020526040812054801561494157600061485260018361549c565b85549091506000906148669060019061549c565b90508181146148e757600086600001828154811061489457634e487b7160e01b600052603260045260246000fd5b90600052602060002001549050808760000184815481106148c557634e487b7160e01b600052603260045260246000fd5b6000918252602080832090910192909255918252600188019052604090208390555b855486908061490657634e487b7160e01b600052603160045260246000fd5b600190038181906000526020600020016000905590558560010160008681526020019081526020016000206000905560019350505050610835565b6000915050610835565b600081815260018301602052604081205461499257508154600181810184556000848152602080822090930184905584548482528286019093526040902091909155610835565b506000610835565b6040805160e0810190915280600081526020016000815260200160008152602001600081526020016000815260200160008152602001600060028111156149f157634e487b7160e01b600052602160045260246000fd5b905290565b828054614a02906154f6565b90600052602060002090601f016020900481019282614a245760008555614a6a565b82601f10614a3d57805160ff1916838001178555614a6a565b82800160010185558215614a6a579182015b82811115614a6a578251825591602001919060010190614a4f565b50614a76929150614a7a565b5090565b5b80821115614a765760008155600101614a7b565b60006001600160401b0380841115614aa957614aa961559c565b604051601f8501601f19908116603f01168101908282118183101715614ad157614ad161559c565b81604052809350858152868686011115614aea57600080fd5b858560208301376000602087830101525050509392505050565b60008083601f840112614b15578182fd5b5081356001600160401b03811115614b2b578182fd5b6020830191508360208260051b8501011115614b4657600080fd5b9250929050565b80516001600160501b0381168114614b6457600080fd5b919050565b600060208284031215614b7a578081fd5b81356123af816155b2565b600060208284031215614b96578081fd5b81516123af816155b2565b60008060408385031215614bb3578081fd5b8235614bbe816155b2565b91506020830135614bce816155b2565b809150509250929050565b600080600060608486031215614bed578081fd5b8335614bf8816155b2565b92506020840135614c08816155b2565b929592945050506040919091013590565b60008060008060808587031215614c2e578081fd5b8435614c39816155b2565b93506020850135614c49816155b2565b92506040850135915060608501356001600160401b03811115614c6a578182fd5b8501601f81018713614c7a578182fd5b614c8987823560208401614a8f565b91505092959194509250565b60008060008060808587031215614caa578384fd5b8435614cb5816155b2565b93506020850135614cc5816155b2565b93969395505050506040820135916060013590565b600080600080600060a08688031215614cf1578081fd5b8535614cfc816155b2565b94506020860135614d0c816155b2565b94979496505050506040830135926060810135926080909101359150565b60008060408385031215614d3c578182fd5b8235614d47816155b2565b91506020830135614bce816155c7565b60008060408385031215614d69578182fd5b8235614d74816155b2565b946020939093013593505050565b600080600060608486031215614d96578081fd5b8335614da1816155b2565b95602085013595506040909401359392505050565b60008060208385031215614dc8578182fd5b82356001600160401b03811115614ddd578283fd5b614de985828601614b04565b90969095509350505050565b600080600060408486031215614e09578081fd5b83356001600160401b03811115614e1e578182fd5b614e2a86828701614b04565b909790965060209590950135949350505050565b600060208284031215614e4f578081fd5b81516123af816155c7565b600060208284031215614e6b578081fd5b5035919050565b60008060408385031215614e84578182fd5b823591506020830135614bce816155b2565b600060208284031215614ea7578081fd5b81356123af816155d5565b600060208284031215614ec3578081fd5b81516123af816155d5565b600060208284031215614edf578081fd5b5051919050565b600080600060408486031215614efa578081fd5b8335925060208401356001600160401b03811115614f16578182fd5b614f2286828701614b04565b9497909650939450505050565b60008060408385031215614f41578182fd5b50508035926020909101359150565b600080600080600060a08688031215614f67578283fd5b8535945060208601359350604086013592506060860135614f87816155c7565b91506080860135614f97816155c7565b809150509295509295909350565b600080600080600080600060e0888a031215614fbf578485fd5b8735965060208801359550604088013594506060880135614fdf816155c7565b93506080880135614fef816155c7565b925060a0880135614fff816155b2565b915060c08801356001600160401b03811115615019578182fd5b8801601f81018a13615029578182fd5b6150388a823560208401614a8f565b91505092959891949750929550565b600080600080600060a0868803121561505e578283fd5b61506786614b4d565b945060208601519350604086015192506060860151915061508a60808701614b4d565b90509295509295909350565b600081518084526150ae8160208601602086016154b3565b601f01601f19169290920160200192915050565b600381106150d2576150d2615586565b9052565b600083516150e88184602088016154b3565b8351908301906150fc8183602088016154b3565b01949350505050565b76020b1b1b2b9b9a1b7b73a3937b61d1030b1b1b7bab73a1604d1b8152600083516151378160178501602088016154b3565b7001034b99036b4b9b9b4b733903937b6329607d1b60179184019182015283516151688160288401602088016154b3565b01602801949350505050565b6001600160a01b03858116825284166020820152604081018390526080606082018190526000906151a790830184615096565b9695505050505050565b6001600160a01b03929092168252602082015260400190565b6020808252825182820181905260009190848201906040850190845b81811015615202578351835292840192918401916001016151e6565b50909695505050505050565b60e081016004891061522257615222615586565b8882528760208301528660408301528560608301528460808301528360a083015261525060c08301846150c2565b98975050505050505050565b918252602082015260400190565b6020815260006123af6020830184615096565b6020808252600290820152614f3960f01b604082015260600190565b60208082526032908201527f4552433732313a207472616e7366657220746f206e6f6e20455243373231526560408201527131b2b4bb32b91034b6b83632b6b2b73a32b960711b606082015260800190565b60208082526003908201526204f32360ec1b604082015260600190565b6020808252600290820152614e3760f01b604082015260600190565b6020808252818101527f4f776e61626c653a2063616c6c6572206973206e6f7420746865206f776e6572604082015260600190565b60208082526031908201527f4552433732313a207472616e736665722063616c6c6572206973206e6f74206f6040820152701ddb995c881b9bdc88185c1c1c9bdd9959607a1b606082015260800190565b60208082526002908201526113cd60f21b604082015260600190565b84815260208101849052608081016153e160408301856150c2565b821515606083015295945050505050565b848152602081018490526080810161540d60408301856150c2565b82606083015295945050505050565b838152826020820152606060408201526000612f706060830184615096565b9283526020830191909152604082015260600190565b600082198211156154645761546461555a565b500190565b60008261547857615478615570565b500490565b60008160001904831182151516156154975761549761555a565b500290565b6000828210156154ae576154ae61555a565b500390565b60005b838110156154ce5781810151838201526020016154b6565b83811115610ff75750506000910152565b6000816154ee576154ee61555a565b506000190190565b600181811c9082168061550a57607f821691505b6020821081141561090c57634e487b7160e01b600052602260045260246000fd5b600060001982141561553f5761553f61555a565b5060010190565b60008261555557615555615570565b500690565b634e487b7160e01b600052601160045260246000fd5b634e487b7160e01b600052601260045260246000fd5b634e487b7160e01b600052602160045260246000fd5b634e487b7160e01b600052604160045260246000fd5b6001600160a01b0381168114610c4457600080fd5b8015158114610c4457600080fd5b6001600160e01b031981168114610c4457600080fdfe68747470733a2f2f676174657761792e70696e6174612e636c6f75642f697066732fddf252ad1be2c89b69c2b068fc378daa952ba7f163c4a11628f55a4df523b3ef823a343d1c899e61a4db12247636a6882bf1fefae78bef39170f8d0f5b53e456a264697066735822122034c6507a5f3cd8957d61bd613f5c365e81a3e089993fb65be6b6f75e7e50f27a64736f6c63430008040033","bytecodeSha1":"377abe65daf5d218a8fe86f6ff720b7b8bb3b820","type":"contract","abi":[{"inputs":[{"internalType":"contract ERC20","name":"_tokenX","type":"address"},{"internalType":"contract IPriceProvider","name":"pp","type":"address"},{"internalType":"contract BufferIBFRPoolV2","name":"_pool","type":"address"},{"internalType":"contract OptionConfig","name":"_config","type":"address"}],"stateMutability":"nonpayable","type":"constructor","name":"constructor"},{"anonymous":false,"inputs":[{"indexed":true,"internalType":"address","name":"owner","type":"address"},{"indexed":true,"internalType":"address","name":"approved","type":"address"},{"indexed":true,"internalType":"uint256","name":"tokenId","type":"uint256"}],"name":"Approval","type":"event"},{"anonymous":false,"inputs":[{"indexed":true,"internalType":"address","name":"owner","type":"address"},{"indexed":true,"internalType":"address","name":"operator","type":"address"},{"indexed":false,"internalType":"bool","name":"approved","type":"bool"}],"name":"ApprovalForAll","type":"event"},{"anonymous":false,"inputs":[{"indexed":true,"internalType":"address","name":"approval","type":"address"},{"indexed":true,"internalType":"uint256","name":"tokenId","type":"uint256"},{"indexed":false,"internalType":"uint256","name":"allowance","type":"uint256"}],"name":"ApprovalUnits","type":"event"},{"anonymous":false,"inputs":[{"indexed":true,"internalType":"address","name":"account","type":"address"},{"indexed":false,"internalType":"bool","name":"status","type":"bool"}],"name":"AutoExerciseStatusChange","type":"event"},{"anonymous":false,"inputs":[{"indexed":true,"internalType":"uint256","name":"id","type":"uint256"},{"indexed":true,"internalType":"address","name":"account","type":"address"},{"indexed":false,"internalType":"uint256","name":"settlementFee","type":"uint256"},{"indexed":false,"internalType":"uint256","name":"totalFee","type":"uint256"},{"indexed":false,"internalType":"string","name":"metadata","type":"string"}],"name":"Create","type":"event"},{"anonymous":false,"inputs":[{"indexed":true,"internalType":"uint256","name":"id","type":"uint256"},{"indexed":false,"internalType":"uint256","name":"profit","type":"uint256"}],"name":"Exercise","type":"event"},{"anonymous":false,"inputs":[{"indexed":true,"internalType":"uint256","name":"id","type":"uint256"},{"indexed":false,"internalType":"uint256","name":"premium","type":"uint256"}],"name":"Expire","type":"event"},{"anonymous":false,"inputs":[{"indexed":true,"internalType":"address","name":"owner","type":"address"},{"indexed":true,"internalType":"uint256","name":"tokenId","type":"uint256"},{"indexed":true,"internalType":"uint256","name":"targetTokenId","type":"uint256"},{"indexed":false,"internalType":"uint256","name":"mergeUnits","type":"uint256"}],"name":"Merge","type":"event"},{"anonymous":false,"inputs":[{"indexed":true,"internalType":"address","name":"previousOwner","type":"address"},{"indexed":true,"internalType":"address","name":"newOwner","type":"address"}],"name":"OwnershipTransferred","type":"event"},{"anonymous":false,"inputs":[{"indexed":true,"internalType":"address","name":"owner","type":"address"},{"indexed":false,"internalType":"uint256","name":"amount","type":"uint256"}],"name":"PayAdminFee","type":"event"},{"anonymous":false,"inputs":[{"indexed":true,"internalType":"address","name":"referrer","type":"address"},{"indexed":false,"internalType":"uint256","name":"amount","type":"uint256"}],"name":"PayReferralFee","type":"event"},{"anonymous":false,"inputs":[{"indexed":true,"internalType":"bytes32","name":"role","type":"bytes32"},{"indexed":true,"internalType":"bytes32","name":"previousAdminRole","type":"bytes32"},{"indexed":true,"internalType":"bytes32","name":"newAdminRole","type":"bytes32"}],"name":"RoleAdminChanged","type":"event"},{"anonymous":false,"inputs":[{"indexed":true,"internalType":"bytes32","name":"role","type":"bytes32"},{"indexed":true,"internalType":"address","name":"account","type":"address"},{"indexed":true,"internalType":"address","name":"sender","type":"address"}],"name":"RoleGranted","type":"event"},{"anonymous":false,"inputs":[{"indexed":true,"internalType":"bytes32","name":"role","type":"bytes32"},{"indexed":true,"internalType":"address","name":"account","type":"address"},{"indexed":true,"internalType":"address","name":"sender","type":"address"}],"name":"RoleRevoked","type":"event"},{"anonymous":false,"inputs":[{"indexed":true,"internalType":"address","name":"owner","type":"address"},{"indexed":true,"internalType":"uint256","name":"tokenId","type":"uint256"},{"indexed":false,"internalType":"uint256","name":"newTokenId","type":"uint256"},{"indexed":false,"internalType":"uint256","name":"splitUnits","type":"uint256"}],"name":"Split","type":"event"},{"anonymous":false,"inputs":[{"indexed":true,"internalType":"address","name":"from","type":"address"},{"indexed":true,"internalType":"address","name":"to","type":"address"},{"indexed":true,"internalType":"uint256","name":"tokenId","type":"uint256"}],"name":"Transfer","type":"event"},{"anonymous":false,"inputs":[{"indexed":true,"internalType":"address","name":"from","type":"address"},{"indexed":true,"internalType":"address","name":"to","type":"address"},{"indexed":true,"internalType":"uint256","name":"tokenId","type":"uint256"},{"indexed":false,"internalType":"uint256","name":"targetTokenId","type":"uint256"},{"indexed":false,"internalType":"uint256","name":"transferUnits","type":"uint256"}],"name":"TransferUnits","type":"event"},{"anonymous":false,"inputs":[{"indexed":false,"internalType":"uint256","name":"startHour","type":"uint256"},{"indexed":false,"internalType":"uint256","name":"startMinute","type":"uint256"},{"indexed":false,"internalType":"uint256","name":"endHour","type":"uint256"},{"indexed":false,"internalType":"uint256","name":"endMinute","type":"uint256"}],"name":"UpdateOptionCreationWindow","type":"event"},{"inputs":[],"name":"AUTO_CLOSER_ROLE","outputs":[{"internalType":"bytes32","name":"","type":"bytes32"}],"stateMutability":"view","type":"function"},{"inputs":[],"name":"DEFAULT_ADMIN_ROLE","outputs":[{"internalType":"bytes32","name":"","type":"bytes32"}],"stateMutability":"view","type":"function"},{"inputs":[{"internalType":"uint256","name":"","type":"uint256"}],"name":"_units","outputs":[{"internalType":"uint256","name":"","type":"uint256"}],"stateMutability":"view","type":"function"},{"inputs":[{"internalType":"uint256","name":"optionId_","type":"uint256"},{"internalType":"address","name":"spender_","type":"address"}],"name":"allowance","outputs":[{"internalType":"uint256","name":"","type":"uint256"}],"stateMutability":"view","type":"function"},{"inputs":[{"internalType":"address","name":"to","type":"address"},{"internalType":"uint256","name":"tokenId","type":"uint256"}],"name":"approve","outputs":[],"stateMutability":"nonpayable","type":"function"},{"inputs":[{"internalType":"address","name":"to_","type":"address"},{"internalType":"uint256","name":"optionId_","type":"uint256"},{"internalType":"uint256","name":"allowance_","type":"uint256"}],"name":"approve","outputs":[],"stateMutability":"nonpayable","type":"function"},{"inputs":[],"name":"approvePoolToTransferTokenX","outputs":[],"stateMutability":"nonpayable","type":"function"},{"inputs":[{"internalType":"address","name":"owner","type":"address"}],"name":"balanceOf","outputs":[{"internalType":"uint256","name":"","type":"uint256"}],"stateMutability":"view","type":"function"},{"inputs":[{"internalType":"uint256","name":"","type":"uint256"}],"name":"binaryOptionType","outputs":[{"internalType":"bool","name":"isYes","type":"bool"},{"internalType":"bool","name":"isAbove","type":"bool"}],"stateMutability":"view","type":"function"},{"inputs":[{"internalType":"uint256","name":"tokenId_","type":"uint256"}],"name":"burn","outputs":[],"stateMutability":"nonpayable","type":"function"},{"inputs":[],"name":"config","outputs":[{"internalType":"contract OptionConfig","name":"","type":"address"}],"stateMutability":"view","type":"function"},{"inputs":[{"internalType":"uint256","name":"amount","type":"uint256"},{"internalType":"uint256","name":"strike","type":"uint256"},{"internalType":"uint256","name":"expiration","type":"uint256"},{"internalType":"bool","name":"isYes","type":"bool"},{"internalType":"bool","name":"isAbove","type":"bool"},{"internalType":"address","name":"referrer","type":"address"},{"internalType":"string","name":"metadata","type":"string"}],"name":"create","outputs":[{"internalType":"uint256","name":"optionID","type":"uint256"}],"stateMutability":"nonpayable","type":"function"},{"inputs":[{"internalType":"uint256","name":"optionID","type":"uint256"}],"name":"exercise","outputs":[{"internalType":"uint256","name":"profit","type":"uint256"}],"stateMutability":"nonpayable","type":"function"},{"inputs":[{"internalType":"uint256","name":"optionID","type":"uint256"}],"name":"exists","outputs":[{"internalType":"bool","name":"","type":"bool"}],"stateMutability":"view","type":"function"},{"inputs":[{"internalType":"uint256","name":"","type":"uint256"}],"name":"expiryToRoundID","outputs":[{"internalType":"uint256","name":"","type":"uint256"}],"stateMutability":"view","type":"function"},{"inputs":[{"internalType":"uint256","name":"period","type":"uint256"},{"internalType":"uint256","name":"amount","type":"uint256"},{"internalType":"uint256","name":"strike","type":"uint256"},{"internalType":"bool","name":"isYes","type":"bool"},{"internalType":"bool","name":"isAbove","type":"bool"}],"name":"fees","outputs":[{"internalType":"uint256","name":"total","type":"uint256"},{"internalType":"uint256","name":"settlementFee","type":"uint256"},{"internalType":"uint256","name":"premium","type":"uint256"}],"stateMutability":"view","type":"function"},{"inputs":[{"internalType":"uint256","name":"tokenId","type":"uint256"}],"name":"getApproved","outputs":[{"internalType":"address","name":"","type":"address"}],"stateMutability":"view","type":"function"},{"inputs":[{"internalType":"bytes32","name":"role","type":"bytes32"}],"name":"getRoleAdmin","outputs":[{"internalType":"bytes32","name":"","type":"bytes32"}],"stateMutability":"view","type":"function"},{"inputs":[{"internalType":"bytes32","name":"role","type":"bytes32"},{"internalType":"address","name":"account","type":"address"}],"name":"grantRole","outputs":[],"stateMutability":"nonpayable","type":"function"},{"inputs":[{"internalType":"bytes32","name":"role","type":"bytes32"},{"internalType":"address","name":"account","type":"address"}],"name":"hasRole","outputs":[{"internalType":"bool","name":"","type":"bool"}],"stateMutability":"view","type":"function"},{"inputs":[{"internalType":"address","name":"owner","type":"address"},{"internalType":"address","name":"operator","type":"address"}],"name":"isApprovedForAll","outputs":[{"internalType":"bool","name":"","type":"bool"}],"stateMutability":"view","type":"function"},{"inputs":[],"name":"maxUnits","outputs":[{"internalType":"uint256","name":"","type":"uint256"}],"stateMutability":"view","type":"function"},{"inputs":[{"internalType":"uint256[]","name":"optionIDs","type":"uint256[]"},{"internalType":"uint256","name":"targetOptionID","type":"uint256"}],"name":"merge","outputs":[],"stateMutability":"nonpayable","type":"function"},{"inputs":[],"name":"minimumYield","outputs":[{"internalType":"uint256","name":"","type":"uint256"}],"stateMutability":"view","type":"function"},{"inputs":[],"name":"name","outputs":[{"internalType":"string","name":"","type":"string"}],"stateMutability":"view","type":"function"},{"inputs":[],"name":"nextTokenId","outputs":[{"internalType":"uint256","name":"","type":"uint256"}],"stateMutability":"view","type":"function"},{"inputs":[{"internalType":"uint256","name":"","type":"uint256"},{"internalType":"address","name":"","type":"address"}],"name":"optionSizeBought","outputs":[{"internalType":"uint256","name":"","type":"uint256"}],"stateMutability":"view","type":"function"},{"inputs":[{"internalType":"uint256","name":"","type":"uint256"}],"name":"optionSlotMapping","outputs":[{"internalType":"uint256","name":"","type":"uint256"}],"stateMutability":"view","type":"function"},{"inputs":[{"internalType":"uint256","name":"","type":"uint256"}],"name":"options","outputs":[{"internalType":"enum IBufferOptions.State","name":"state","type":"uint8"},{"internalType":"uint256","name":"strike","type":"uint256"},{"internalType":"uint256","name":"amount","type":"uint256"},{"internalType":"uint256","name":"lockedAmount","type":"uint256"},{"internalType":"uint256","name":"premium","type":"uint256"},{"internalType":"uint256","name":"expiration","type":"uint256"},{"internalType":"enum IBufferOptions.OptionType","name":"optionType","type":"uint8"}],"stateMutability":"view","type":"function"},{"inputs":[],"name":"owner","outputs":[{"internalType":"address","name":"","type":"address"}],"stateMutability":"view","type":"function"},{"inputs":[{"internalType":"uint256","name":"tokenId","type":"uint256"}],"name":"ownerOf","outputs":[{"internalType":"address","name":"","type":"address"}],"stateMutability":"view","type":"function"},{"inputs":[],"name":"pool","outputs":[{"internalType":"contract BufferIBFRPoolV2","name":"","type":"address"}],"stateMutability":"view","type":"function"},{"inputs":[],"name":"priceProvider","outputs":[{"internalType":"contract IPriceProvider","name":"","type":"address"}],"stateMutability":"view","type":"function"},{"inputs":[],"name":"renounceOwnership","outputs":[],"stateMutability":"nonpayable","type":"function"},{"inputs":[{"internalType":"bytes32","name":"role","type":"bytes32"},{"internalType":"address","name":"account","type":"address"}],"name":"renounceRole","outputs":[],"stateMutability":"nonpayable","type":"function"},{"inputs":[{"internalType":"bytes32","name":"role","type":"bytes32"},{"internalType":"address","name":"account","type":"address"}],"name":"revokeRole","outputs":[],"stateMutability":"nonpayable","type":"function"},{"inputs":[{"internalType":"address","name":"from","type":"address"},{"internalType":"address","name":"to","type":"address"},{"internalType":"uint256","name":"tokenId","type":"uint256"}],"name":"safeTransferFrom","outputs":[],"stateMutability":"nonpayable","type":"function"},{"inputs":[{"internalType":"address","name":"from","type":"address"},{"internalType":"address","name":"to","type":"address"},{"internalType":"uint256","name":"tokenId","type":"uint256"},{"internalType":"bytes","name":"_data","type":"bytes"}],"name":"safeTransferFrom","outputs":[],"stateMutability":"nonpayable","type":"function"},{"inputs":[{"internalType":"address","name":"operator","type":"address"},{"internalType":"bool","name":"approved","type":"bool"}],"name":"setApprovalForAll","outputs":[],"stateMutability":"nonpayable","type":"function"},{"inputs":[{"internalType":"uint256","name":"roundId","type":"uint256"},{"internalType":"uint256","name":"optionID","type":"uint256"}],"name":"setRoundIDForExpiry","outputs":[{"internalType":"bool","name":"isCorrectRoundId","type":"bool"}],"stateMutability":"nonpayable","type":"function"},{"inputs":[{"internalType":"uint256","name":"","type":"uint256"}],"name":"slotDetails","outputs":[{"internalType":"uint256","name":"strike","type":"uint256"},{"internalType":"uint256","name":"expiration","type":"uint256"},{"internalType":"enum IBufferOptions.OptionType","name":"optionType","type":"uint8"},{"internalType":"bool","name":"isValid","type":"bool"}],"stateMutability":"view","type":"function"},{"inputs":[{"internalType":"uint256","name":"optionId_","type":"uint256"}],"name":"slotOf","outputs":[{"internalType":"uint256","name":"","type":"uint256"}],"stateMutability":"view","type":"function"},{"inputs":[{"internalType":"uint256","name":"optionID","type":"uint256"},{"internalType":"uint256[]","name":"splitUnits_","type":"uint256[]"}],"name":"split","outputs":[{"internalType":"uint256[]","name":"newOptionIDs","type":"uint256[]"}],"stateMutability":"nonpayable","type":"function"},{"inputs":[{"internalType":"bytes4","name":"interfaceId","type":"bytes4"}],"name":"supportsInterface","outputs":[{"internalType":"bool","name":"","type":"bool"}],"stateMutability":"view","type":"function"},{"inputs":[],"name":"symbol","outputs":[{"internalType":"string","name":"","type":"string"}],"stateMutability":"view","type":"function"},{"inputs":[{"internalType":"uint256","name":"slot_","type":"uint256"},{"internalType":"uint256","name":"index_","type":"uint256"}],"name":"tokenOfSlotByIndex","outputs":[{"internalType":"uint256","name":"","type":"uint256"}],"stateMutability":"view","type":"function"},{"inputs":[{"internalType":"uint256","name":"tokenId","type":"uint256"}],"name":"tokenURI","outputs":[{"internalType":"string","name":"","type":"string"}],"stateMutability":"view","type":"function"},{"inputs":[],"name":"tokenX","outputs":[{"internalType":"contract ERC20","name":"","type":"address"}],"stateMutability":"view","type":"function"},{"inputs":[{"internalType":"uint256","name":"slot_","type":"uint256"}],"name":"tokensInSlot","outputs":[{"internalType":"uint256","name":"","type":"uint256"}],"stateMutability":"view","type":"function"},{"inputs":[{"internalType":"address","name":"from","type":"address"},{"internalType":"address","name":"to","type":"address"},{"internalType":"uint256","name":"tokenId","type":"uint256"}],"name":"transferFrom","outputs":[],"stateMutability":"nonpayable","type":"function"},{"inputs":[{"internalType":"address","name":"from_","type":"address"},{"internalType":"address","name":"to_","type":"address"},{"internalType":"uint256","name":"optionID","type":"uint256"},{"internalType":"uint256","name":"targetOptionID","type":"uint256"},{"internalType":"uint256","name":"transferUnits_","type":"uint256"}],"name":"transferFrom","outputs":[],"stateMutability":"nonpayable","type":"function"},{"inputs":[{"internalType":"address","name":"from_","type":"address"},{"internalType":"address","name":"to_","type":"address"},{"internalType":"uint256","name":"optionID","type":"uint256"},{"internalType":"uint256","name":"transferUnits_","type":"uint256"}],"name":"transferFrom","outputs":[{"internalType":"uint256","name":"newOptionID","type":"uint256"}],"stateMutability":"nonpayable","type":"function"},{"inputs":[{"internalType":"address","name":"newOwner","type":"address"}],"name":"transferOwnership","outputs":[],"stateMutability":"nonpayable","type":"function"},{"inputs":[],"name":"unitDecimals","outputs":[{"internalType":"uint8","name":"","type":"uint8"}],"stateMutability":"view","type":"function"},{"inputs":[{"internalType":"uint256","name":"slot_","type":"uint256"}],"name":"unitsInSlot","outputs":[{"internalType":"uint256","name":"units_","type":"uint256"}],"stateMutability":"view","type":"function"},{"inputs":[{"internalType":"uint256","name":"optionId_","type":"uint256"}],"name":"unitsInToken","outputs":[{"internalType":"uint256","name":"","type":"uint256"}],"stateMutability":"view","type":"function"},{"inputs":[{"internalType":"uint256","name":"optionID","type":"uint256"}],"name":"unlock","outputs":[],"stateMutability":"nonpayable","type":"function"},{"inputs":[{"internalType":"uint256[]","name":"optionIDs","type":"uint256[]"}],"name":"unlockAll","outputs":[],"stateMutability":"nonpayable","type":"function"}],"compiler":{"version":"0.8.4+commit.c7e474f2","evm_version":"istanbul","optimizer":{"enabled":true,"runs":1}},"contractName":"BufferBinaryEuropeanTokenXOptions","deployedBytecode":"608060405234801561001057600080fd5b506004361061029e5760003560e01c806301ffc9a7146102a357806305271a2a146102cb57806306517a29146102e057806306fdde03146102f7578063076d948c1461030c578063081812fc1461031f578063095ea7b31461034a57806316dc165b1461035f57806316f0115b1461037257806323b872dd14610385578063248a9ca314610398578063263f3e7e146103ab5780632f2ff15d146103be57806334c01793146103d157806336568abe146103fc578063409e22051461040f578063426a84931461047257806342842e0e1461048557806342966c68146104985780634aed53c2146104ab5780634f558e79146104be5780636198e339146104d15780636352211e146104e4578063645734e6146104f757806367807f7d146104ff578063689ab5ac1461052157806369c672471461056457806370a0823114610584578063715018a61461059757806375794a3c1461059f57806378c533ce146105a857806379502c55146105c8578063841edc0e146105db5780638a584118146105fb5780638da5cb5b1461064657806391d148541461064e57806395d89b4114610661578063a217fddf14610669578063a22cb46514610671578063a6d14c0214610684578063a88004251461068c578063b07f0a411461069f578063b888879e146106b2578063b88d4fde146106c5578063bbe33ea5146106d8578063becef607146106eb578063c0d720bb146106fe578063c87b56dd14610711578063d149cc3014610724578063d547741f14610737578063d5a0e6731461074a578063d67a6b701461076a578063dba34e971461077d578063e342b598146107a4578063e345e0bc146107b7578063e985e9c5146107f1578063f2fde38b14610804578063fe99049a14610817575b600080fd5b6102b66102b1366004614e96565b61082a565b60405190151581526020015b60405180910390f35b600e5460405160ff90911681526020016102c2565b6102e9600d5481565b6040519081526020016102c2565b6102ff61083b565b6040516102c2919061526a565b6102e961031a366004614e5a565b6108cd565b61033261032d366004614e5a565b610912565b6040516001600160a01b0390911681526020016102c2565b61035d610358366004614d57565b61099f565b005b601054610332906001600160a01b031681565b601854610332906001600160a01b031681565b61035d610393366004614bd9565b610ab0565b6102e96103a6366004614e5a565b610ae1565b6102e96103b9366004614e5a565b610af6565b61035d6103cc366004614e72565b610b08565b6102e96103df366004614e72565b601760209081526000928352604080842090915290825290205481565b61035d61040a366004614e72565b610b25565b61045f61041d366004614e5a565b601460205260009081526040902080546001820154600283015460038401546004850154600586015460069096015460ff958616969495939492939192911687565b6040516102c2979695949392919061520e565b61035d610480366004614d82565b610ba3565b61035d610493366004614bd9565b610be7565b61035d6104a6366004614e5a565b610c02565b61035d6104b9366004614cda565b610c47565b6102b66104cc366004614e5a565b610d69565b61035d6104df366004614e5a565b610d74565b6103326104f2366004614e5a565b610ffd565b61035d611074565b61051261050d366004614f50565b6110fe565b6040516102c29392919061543b565b61054d61052f366004614e5a565b60156020526000908152604090205460ff8082169161010090041682565b6040805192151583529015156020830152016102c2565b610577610572366004614ee6565b611278565b6040516102c291906151ca565b6102e9610592366004614b69565b61166a565b61035d6116f1565b6102e960135481565b6102e96105b6366004614e5a565b600f6020526000908152604090205481565b601954610332906001600160a01b031681565b6102e96105e9366004614e5a565b60166020526000908152604090205481565b610636610609366004614e5a565b601a6020526000908152604090208054600182015460029092015490919060ff8082169161010090041684565b6040516102c294939291906153c6565b61033261172c565b6102b661065c366004614e72565b61173b565b6102ff611766565b6102e9600081565b61035d61067f366004614d2a565b611775565b6102e9600581565b6102e961069a366004614e5a565b611836565b6102e96106ad366004614e5a565b61184d565b601254610332906001600160a01b031681565b61035d6106d3366004614c19565b611b52565b61035d6106e6366004614df5565b611b85565b6102e96106f9366004614e5a565b611d94565b6102e961070c366004614fa5565b611da6565b6102ff61071f366004614e5a565b61238c565b6102e9610732366004614f2f565b612397565b61035d610745366004614e72565b6123b6565b6102e9610758366004614e5a565b600a6020526000908152604090205481565b6102b6610778366004614f2f565b6123d3565b6102e97fdeb3b49547f710c56a925b6e16e3557a50fab4dd8f243bc314f3afba2054ec5b81565b61035d6107b2366004614db6565b6125fb565b6102e96107c5366004614e72565b6000828152600b602090815260408083206001600160a01b038516845260010190915290205492915050565b6102b66107ff366004614ba1565b612648565b61035d610812366004614b69565b612676565b6102e9610825366004614c95565b612713565b6000610835826127ea565b92915050565b60606000805461084a906154f6565b80601f0160208091040260200160405190810160405280929190818152602001828054610876906154f6565b80156108c35780601f10610898576101008083540402835291602001916108c3565b820191906000526020600020905b8154815290600101906020018083116108a657829003601f168201915b5050505050905090565b6000805b6108da83611836565b81101561090c576108ee6106f98483612397565b6108f89083615451565b9150806109048161552b565b9150506108d1565b50919050565b600061091d8261280f565b6109835760405162461bcd60e51b815260206004820152602c60248201527f4552433732313a20617070726f76656420717565727920666f72206e6f6e657860448201526b34b9ba32b73a103a37b5b2b760a11b60648201526084015b60405180910390fd5b506000908152600460205260409020546001600160a01b031690565b60006109aa82610ffd565b9050806001600160a01b0316836001600160a01b03161415610a185760405162461bcd60e51b815260206004820152602160248201527f4552433732313a20617070726f76616c20746f2063757272656e74206f776e656044820152603960f91b606482015260840161097a565b336001600160a01b0382161480610a345750610a348133612648565b610aa15760405162461bcd60e51b815260206004820152603860248201527f4552433732313a20617070726f76652063616c6c6572206973206e6f74206f776044820152771b995c881b9bdc88185c1c1c9bdd995908199bdc88185b1b60421b606482015260840161097a565b610aab838361282c565b505050565b610aba338261289a565b610ad65760405162461bcd60e51b815260040161097a90615359565b610aab838383612964565b60009081526008602052604090206001015490565b6000908152600a602052604090205490565b610b1182610ae1565b610b1b8133612afd565b610aab8383612b61565b6001600160a01b0381163314610b955760405162461bcd60e51b815260206004820152602f60248201527f416363657373436f6e74726f6c3a2063616e206f6e6c792072656e6f756e636560448201526e103937b632b9903337b91039b2b63360891b606482015260840161097a565b610b9f8282612be7565b5050565b610bac82610ffd565b6001600160a01b0316336001600160a01b031614610bdc5760405162461bcd60e51b815260040161097a9061527d565b610aab838383612c4e565b610aab83838360405180602001604052806000815250611b52565b610c0b81610ffd565b6001600160a01b0316336001600160a01b031614610c3b5760405162461bcd60e51b815260040161097a9061527d565b610c4481612d13565b50565b610c5082610d69565b610c825760405162461bcd60e51b815260206004820152600360248201526227189960e91b604482015260640161097a565b6000806000610c918685612d2b565b509250925092506000610ca386612e58565b9050610cdf8682848460600151610cba9190615451565b878560400151610cca9190615451565b878660800151610cda9190615451565b612f47565b601854606082015160808301516040516357a5c96760e01b81529394506001600160a01b03909216926357a5c96792610d1f928b9290919060040161543b565b600060405180830381600087803b158015610d3957600080fd5b505af1158015610d4d573d6000803e3d6000fd5b50505050610d5e8989898989612f79565b505050505050505050565b60006108358261280f565b60008181526014602052604090206005810154421015610da65760405162461bcd60e51b815260040161097a906153aa565b6001815460ff166003811115610dcc57634e487b7160e01b600052602160045260246000fd5b14610dfe5760405162461bcd60e51b81526020600482015260026024820152614f3560f01b604482015260640161097a565b600581015460009081526016602052604090205480610e2f5760405162461bcd60e51b815260040161097a906152eb565b6012546040516303906d2960e11b8152600481018390526000916001600160a01b031690630720da529060240160a06040518083038186803b158015610e7457600080fd5b505afa158015610e88573d6000803e3d6000fd5b505050506040513d601f19601f82011682018060405250810190610eac9190615047565b5091935060029250610ebc915050565b600684015460ff166002811115610ee357634e487b7160e01b600052602160045260246000fd5b148015610ef35750826001015481115b80610f3257506001600684015460ff166002811115610f2257634e487b7160e01b600052602160045260246000fd5b148015610f325750826001015481105b15610f4657610f408461184d565b50610ff7565b825460ff19166003178355601854604051636198e33960e01b8152600481018690526001600160a01b0390911690636198e33990602401600060405180830381600087803b158015610f9757600080fd5b505af1158015610fab573d6000803e3d6000fd5b50505050610fb884612d13565b837f5f36a4a575e512eb69d6d28c3b0ff98cca7ba50ad5bf04e14094ad1d425e0d318460040154604051610fee91815260200190565b60405180910390a25b50505050565b6000818152600260205260408120546001600160a01b0316806108355760405162461bcd60e51b815260206004820152602960248201527f4552433732313a206f776e657220717565727920666f72206e6f6e657869737460448201526832b73a103a37b5b2b760b91b606482015260840161097a565b60105460185460405163095ea7b360e01b81526001600160a01b039283169263095ea7b3926110ac92911690600019906004016151b1565b602060405180830381600087803b1580156110c657600080fd5b505af11580156110da573d6000803e3d6000fd5b505050506040513d601f19601f82011682018060405250810190610c449190614e3e565b600080600080601260009054906101000a90046001600160a01b03166001600160a01b0316631acf55826040518163ffffffff1660e01b815260040160206040518083038186803b15801561115257600080fd5b505afa158015611166573d6000803e3d6000fd5b505050506040513d601f19601f8201168201806040525081019061118a9190614ece565b60195460185460405163e39d06e960e01b8152600481018d9052602481018c9052604481018b90528915156064820152881515608482015260a481018490526001600160a01b0392831660c4820152911660e482015290915073__$b949255e90277c788dcf25edf1f9288c61$__9063e39d06e9906101040160206040518083038186803b15801561121b57600080fd5b505af415801561122f573d6000803e3d6000fd5b505050506040513d601f19601f820116820180604052508101906112539190614ece565b915061125e886131bf565b925061126a8284615451565b935050955095509592505050565b6060816112ac5760405162461bcd60e51b81526020600482015260026024820152614e3160f01b604482015260640161097a565b816001600160401b038111156112d257634e487b7160e01b600052604160045260246000fd5b6040519080825280602002602001820160405280156112fb578160200160208202803683370190505b509050600061130985612e58565b9050600061131686611d94565b905060008080805b8781101561152957600061133061325d565b90508088838151811061135357634e487b7160e01b600052603260045260246000fd5b6020026020010181815250506113908b828c8c8681811061138457634e487b7160e01b600052603260045260246000fd5b90506020020135613277565b6000868b8b858181106113b357634e487b7160e01b600052603260045260246000fd5b9050602002013589604001516113c9919061547d565b6113d39190615469565b90506113df8187615451565b95506000878c8c8681811061140457634e487b7160e01b600052603260045260246000fd5b905060200201358a6060015161141a919061547d565b6114249190615469565b90506114308187615451565b95506000888d8d8781811061145557634e487b7160e01b600052603260045260246000fd5b905060200201358b6080015161146b919061547d565b6114759190615469565b90506114818187615451565b955060006040518060e001604052808c6000015160038111156114b457634e487b7160e01b600052602160045260246000fd5b81526020018c6020015181526020018581526020018481526020018381526020018c60a0015181526020018c60c00151600281111561150357634e487b7160e01b600052602160045260246000fd5b9052905061151185826133a1565b505050505080806115219061552b565b91505061131e565b5061155f898684886060015161153f919061549c565b86896040015161154f919061549c565b858a60800151610cda919061549c565b601854606082015160808301516040516357a5c96760e01b81529398506001600160a01b03909216926357a5c9679261159f928e9290919060040161543b565b600060405180830381600087803b1580156115b957600080fd5b505af11580156115cd573d6000803e3d6000fd5b5050505060005b8781101561165d57600061160e88838151811061160157634e487b7160e01b600052603260045260246000fd5b6020026020010151612e58565b905061164a88838151811061163357634e487b7160e01b600052603260045260246000fd5b602002602001015182606001518360800151613459565b50806116558161552b565b9150506115d4565b5050505050509392505050565b60006001600160a01b0382166116d55760405162461bcd60e51b815260206004820152602a60248201527f4552433732313a2062616c616e636520717565727920666f7220746865207a65604482015269726f206164647265737360b01b606482015260840161097a565b506001600160a01b031660009081526003602052604090205490565b336116fa61172c565b6001600160a01b0316146117205760405162461bcd60e51b815260040161097a90615324565b61172a60006134c4565b565b6006546001600160a01b031690565b60009182526008602090815260408084206001600160a01b0393909316845291905290205460ff1690565b60606001805461084a906154f6565b6001600160a01b0382163314156117ca5760405162461bcd60e51b815260206004820152601960248201527822a9219b99189d1030b8383937bb32903a379031b0b63632b960391b604482015260640161097a565b3360008181526005602090815260408083206001600160a01b03871680855290835292819020805460ff191686151590811790915590519081529192917f17307eab39ab6107e8899845ad3d59bd9653f200f220920489ca2b5937696c31910160405180910390a35050565b6000818152600c6020526040812061083590613516565b600061185882610d69565b61188a5760405162461bcd60e51b815260206004820152600360248201526204f31360ec1b604482015260640161097a565b600082815260146020526040902060058101544210156118bc5760405162461bcd60e51b815260040161097a906153aa565b6001815460ff1660038111156118e257634e487b7160e01b600052602160045260246000fd5b146119155760405162461bcd60e51b815260206004820152600360248201526213cc4d60ea1b604482015260640161097a565b6005810154600090815260166020526040902054806119465760405162461bcd60e51b815260040161097a906152eb565b6012546040516303906d2960e11b8152600481018390526000916001600160a01b031690630720da529060240160a06040518083038186803b15801561198b57600080fd5b505afa15801561199f573d6000803e3d6000fd5b505050506040513d601f19601f820116820180604052508101906119c39190615047565b50919350600292506119d3915050565b600684015460ff1660028111156119fa57634e487b7160e01b600052602160045260246000fd5b1415611a3f578083600101541115611a3a5760405162461bcd60e51b81526020600482015260036024820152624f313760e81b604482015260640161097a565b611a79565b8083600101541015611a795760405162461bcd60e51b815260206004820152600360248201526209e62760eb1b604482015260640161097a565b60038301546018549094506001600160a01b03166381b34f1586611a9c81610ffd565b6040516001600160e01b031960e085901b16815260048101929092526001600160a01b0316602482015260448101879052606401600060405180830381600087803b158015611aea57600080fd5b505af1158015611afe573d6000803e3d6000fd5b50505050611b0b85612d13565b825460ff1916600217835560405184815285907e84fe51c7cb34b132b7b6eb5d5a87a489f8d6d284758d00a0402c1bad9a0def9060200160405180910390a2505050919050565b611b5d335b8361289a565b611b795760405162461bcd60e51b815260040161097a90615359565b610ff784848484613520565b81611bb75760405162461bcd60e51b8152602060048201526002602482015261138d60f21b604482015260640161097a565b6000611bc282612e58565b606081015160408201516080830151929350909160005b86811015611d16576000611c12898984818110611c0657634e487b7160e01b600052603260045260246000fd5b90506020020135612e58565b9050806060015185611c249190615451565b9450806040015184611c369190615451565b9350806080015183611c489190615451565b6018549093506001600160a01b0316630dbf21b08a8a85818110611c7c57634e487b7160e01b600052603260045260246000fd5b905060200201356040518263ffffffff1660e01b8152600401611ca191815260200190565b600060405180830381600087803b158015611cbb57600080fd5b505af1158015611ccf573d6000803e3d6000fd5b50505050611d03898984818110611cf657634e487b7160e01b600052603260045260246000fd5b9050602002013588613553565b5080611d0e8161552b565b915050611bd9565b50611d248585858585612f47565b506018546040516357a5c96760e01b81526001600160a01b03909116906357a5c96790611d599088908790869060040161543b565b600060405180830381600087803b158015611d7357600080fd5b505af1158015611d87573d6000803e3d6000fd5b5050505050505050505050565b6000908152600f602052604090205490565b600060026007541415611dfb5760405162461bcd60e51b815260206004820152601f60248201527f5265656e7472616e637947756172643a207265656e7472616e742063616c6c00604482015260640161097a565b600260075561012c611e0d428861549c565b11611e405760405162461bcd60e51b81526020600482015260036024820152624f323160e81b604482015260640161097a565b6018546040805163ab2f0e5160e01b815290516064926001600160a01b03169163ab2f0e51916004808301926020929190829003018186803b158015611e8557600080fd5b505afa158015611e99573d6000803e3d6000fd5b505050506040513d601f19601f82011682018060405250810190611ebd9190614ece565b601960009054906101000a90046001600160a01b03166001600160a01b03166371bf7e256040518163ffffffff1660e01b815260040160206040518083038186803b158015611f0b57600080fd5b505afa158015611f1f573d6000803e3d6000fd5b505050506040513d601f19601f82011682018060405250810190611f439190614ece565b611f4d919061547d565b611f579190615469565b436000908152601760209081526040808320338452909152902054611f7d908a90615451565b10611fb05760405162461bcd60e51b81526020600482015260036024820152624f323360e81b604482015260640161097a565b436000908152601760209081526040808320338452909152812080548a9290611fda908490615451565b90915550620151809050611fee428861549c565b10156120b15786156120285760405162461bcd60e51b815260206004820152600360248201526227991960e91b604482015260640161097a565b601260009054906101000a90046001600160a01b03166001600160a01b0316631acf55826040518163ffffffff1660e01b815260040160206040518083038186803b15801561207657600080fd5b505afa15801561208a573d6000803e3d6000fd5b505050506040513d601f19601f820116820180604052508101906120ae9190614ece565b96505b600080806120cb6120c2428b61549c565b8c8c8b8b6110fe565b9194509250905060056120de428b61549c565b6120e8908d61547d565b6120f2919061547d565b612100846301e1338061547d565b61210b90606461547d565b1161213d5760405162461bcd60e51b8152602060048201526002602482015261279960f11b604482015260640161097a565b6010546040516323b872dd60e01b8152336004820152306024820152604481018590526000916001600160a01b0316906323b872dd90606401602060405180830381600087803b15801561219057600080fd5b505af11580156121a4573d6000803e3d6000fd5b505050506040513d601f19601f820116820180604052508101906121c89190614e3e565b9050806121fc5760405162461bcd60e51b81526020600482015260026024820152614f3360f01b604482015260640161097a565b60018915158114801561221157506001891515145b80612223575089158015612223575088155b1561222c575060025b6040805160e0810190915260009080600181526020018e81526020018f81526020018f81526020018581526020018d815260200183600281111561228057634e487b7160e01b600052602160045260246000fd5b9052905061228c61325d565b6040805180820182528d151581528c15156020808301918252600085815260159091529290922090518154925161ffff1990931690151561ff001916176101009215159290920291909117905596506122e587826133a1565b61230387336122fe8a85602001518660a00151886136cf565b61380d565b61230d8789613830565b6000612319868b61383a565b905061232e8883606001518460800151613459565b336001600160a01b0316887f89f823a0225c73a75066e963ce2eea7708b57680ec86102773dbd244f5412892838a8d60405161236c9392919061541c565b60405180910390a35050600160075550939b9a5050505050505050505050565b606061083582613cfb565b6000828152600c602052604081206123af9083613e5d565b9392505050565b6123bf82610ae1565b6123c98133612afd565b610aab8383612be7565b6012546040516303906d2960e11b815260048101849052600091829182916001600160a01b031690630720da529060240160a06040518083038186803b15801561241c57600080fd5b505afa158015612430573d6000803e3d6000fd5b505050506040513d601f19601f820116820180604052508101906124549190615047565b50600088815260146020526040902060058101549396509094509250508281106124a55760405162461bcd60e51b8152602060048201526002602482015261433160f01b604482015260640161097a565b600081815260166020526040902054806125f0576124c460018961549c565b90505b856125f0576012546040516303906d2960e11b8152600481018390526000916001600160a01b031690630720da529060240160a06040518083038186803b15801561251157600080fd5b505afa158015612525573d6000803e3d6000fd5b505050506040513d601f19601f820116820180604052508101906125499190615047565b509350505050806000141561259f576000821161258d5760405162461bcd60e51b8152602060048201526002602482015261433360f01b604482015260640161097a565b61259860018361549c565b91506125ea565b828111156125d45760405162461bcd60e51b815260206004820152600260248201526110cd60f21b604482015260640161097a565b6000838152601660205260409020829055600196505b506124c7565b505050505092915050565b8060005b81811015610ff75761263684848381811061262a57634e487b7160e01b600052603260045260246000fd5b90506020020135610d74565b806126408161552b565b9150506125ff565b6001600160a01b03918216600090815260056020908152604080832093909416825291909152205460ff1690565b3361267f61172c565b6001600160a01b0316146126a55760405162461bcd60e51b815260040161097a90615324565b6001600160a01b03811661270a5760405162461bcd60e51b815260206004820152602660248201527f4f776e61626c653a206e6577206f776e657220697320746865207a65726f206160448201526564647265737360d01b606482015260840161097a565b610c44816134c4565b600061271d61325d565b905060008060008061272f8787612d2b565b935093509350935060006040518060e001604052808360000151600381111561276857634e487b7160e01b600052602160045260246000fd5b8152602001836020015181526020018681526020018481526020018581526020018360a0015181526020018360c0015160028111156127b757634e487b7160e01b600052602160045260246000fd5b905290506127c586826133a1565b6127d0868486613459565b6127dd8a8a8a898b612f79565b5050505050949350505050565b60006001600160e01b03198216637965db0b60e01b1480610835575061083582613e69565b6000908152600260205260409020546001600160a01b0316151590565b600081815260046020526040902080546001600160a01b0319166001600160a01b038416908117909155819061286182610ffd565b6001600160a01b03167f8c5be1e5ebec7d5bd14f71427d1e84f3dd0314c0f7b2291e5b200ac8c7c3b92560405160405180910390a45050565b60006128a58261280f565b6129065760405162461bcd60e51b815260206004820152602c60248201527f4552433732313a206f70657261746f7220717565727920666f72206e6f6e657860448201526b34b9ba32b73a103a37b5b2b760a11b606482015260840161097a565b600061291183610ffd565b9050806001600160a01b0316846001600160a01b0316148061294c5750836001600160a01b031661294184610912565b6001600160a01b0316145b8061295c575061295c8185612648565b949350505050565b826001600160a01b031661297782610ffd565b6001600160a01b0316146129df5760405162461bcd60e51b815260206004820152602960248201527f4552433732313a207472616e73666572206f6620746f6b656e2074686174206960448201526839903737ba1037bbb760b91b606482015260840161097a565b6001600160a01b038216612a415760405162461bcd60e51b8152602060048201526024808201527f4552433732313a207472616e7366657220746f20746865207a65726f206164646044820152637265737360e01b606482015260840161097a565b612a4c838383613eb9565b612a5760008261282c565b6001600160a01b0383166000908152600360205260408120805460019290612a8090849061549c565b90915550506001600160a01b0382166000908152600360205260408120805460019290612aae908490615451565b909155505060008181526002602052604080822080546001600160a01b0319166001600160a01b03868116918217909255915184939187169160008051602061560e83398151915291a4505050565b612b07828261173b565b610b9f57612b1f816001600160a01b03166014613ed1565b612b2a836020613ed1565b604051602001612b3b929190615105565b60408051601f198184030181529082905262461bcd60e51b825261097a9160040161526a565b612b6b828261173b565b610b9f5760008281526008602090815260408083206001600160a01b03851684529091529020805460ff19166001179055612ba33390565b6001600160a01b0316816001600160a01b0316837f2f8788117e7eff1d82e926ec794901d17c78024a50270940304540a733656f0d60405160405180910390a45050565b612bf1828261173b565b15610b9f5760008281526008602090815260408083206001600160a01b0385168085529252808320805460ff1916905551339285917ff6391f5c32d9c69d2a47ea670b442974b53935d1edc7fd64eb21e047a839171b9190a45050565b6000828152600b602090815260408083206001600160a01b0387168452600101909152902054612cb0576000828152600b602090815260408220805460018101825590835291200180546001600160a01b0319166001600160a01b0385161790555b6000828152600b602090815260408083206001600160a01b0387168085526001909101835292819020849055518381528492917f8a156bd946dc74ec284c5f4b365ce75ef2a5b9d9462b4cdb1d2400cabf136541910160405180910390a3505050565b6000818152600a6020526040812055610c44816140b2565b6000806000612d3861499a565b612d4186612e58565b90506000612d4e87611d94565b905080868360400151612d61919061547d565b612d6b9190615469565b945080868360800151612d7e919061547d565b612d889190615469565b935080868360600151612d9b919061547d565b612da59190615469565b9250612ddc8783858560600151612dbc919061549c565b888660400151612dcc919061549c565b888760800151610cda919061549c565b601854606082015160808301516040516357a5c96760e01b81529395506001600160a01b03909216926357a5c96792612e1c928c9290919060040161543b565b600060405180830381600087803b158015612e3657600080fd5b505af1158015612e4a573d6000803e3d6000fd5b505050505092959194509250565b612e6061499a565b60008281526014602052604090819020815160e081019092528054829060ff166003811115612e9f57634e487b7160e01b600052602160045260246000fd5b6003811115612ebe57634e487b7160e01b600052602160045260246000fd5b81526001820154602082015260028083015460408301526003830154606083015260048301546080830152600583015460a0830152600683015460c09092019160ff1690811115612f1f57634e487b7160e01b600052602160045260246000fd5b6002811115612f3e57634e487b7160e01b600052602160045260246000fd5b90525092915050565b612f4f61499a565b5060608401839052604084018290526080840181905283612f7086826133a1565b95945050505050565b612f8283610ffd565b6001600160a01b0316856001600160a01b031614612fc75760405162461bcd60e51b81526020600482015260026024820152614e3960f01b604482015260640161097a565b6001600160a01b0384166130035760405162461bcd60e51b815260206004820152600360248201526204e31360ec1b604482015260640161097a565b336001600160a01b0386161480159061302357506130218533612648565b155b1561306e576000838152600b6020908152604080832033845260010190915290205461305090829061549c565b6000848152600b602090815260408083203384526001019091529020555b6000838152600f602052604090205461308890829061549c565b6000848152600f60205260409020556130a08261280f565b6130bd576130b884836130b286610af6565b84614144565b613165565b836001600160a01b03166130d083610ffd565b6001600160a01b03161461310c5760405162461bcd60e51b81526020600482015260036024820152624e313160e81b604482015260640161097a565b61311582610af6565b61311e84610af6565b1461313b5760405162461bcd60e51b815260040161097a90615308565b6000828152600f6020526040902054613155908290615451565b6000838152600f60205260409020555b6000838152600a60205260408082205484835291819020919091555183906001600160a01b03808716919088169060008051602061562e833981519152906131b0908790879061525c565b60405180910390a45050505050565b60006064601960009054906101000a90046001600160a01b03166001600160a01b031663f3fa34956040518163ffffffff1660e01b815260040160206040518083038186803b15801561321157600080fd5b505afa158015613225573d6000803e3d6000fd5b505050506040513d601f19601f820116820180604052508101906132499190614ece565b613253908461547d565b6108359190615469565b601380546000918261326e8361552b565b91905055905090565b613281338461289a565b6132b25760405162461bcd60e51b8152602060048201526002602482015261271960f11b604482015260640161097a565b6132bb8261280f565b156132ed5760405162461bcd60e51b81526020600482015260026024820152614e3360f01b604482015260640161097a565b61330c826132fa85610af6565b6000918252600a602052604090912055565b6000838152600f602052604090205461332690829061549c565b6000848152600f602052604081209190915561334184610ffd565b9050613357818461335187610af6565b85614144565b83816001600160a01b03167ff66885c33d648fcd0d97e0f2a18e30102169c22763473af0fb716f11b4a17dd6858560405161339392919061525c565b60405180910390a350505050565b60008281526014602052604090208151815483929190829060ff191660018360038111156133df57634e487b7160e01b600052602160045260246000fd5b02179055506020820151816001015560408201518160020155606082015181600301556080820151816004015560a0820151816005015560c08201518160060160006101000a81548160ff0219169083600281111561344e57634e487b7160e01b600052602160045260246000fd5b021790555050505050565b60185460405163edd0d42160e01b81526001600160a01b039091169063edd0d4219061348d9086908690869060040161543b565b600060405180830381600087803b1580156134a757600080fd5b505af11580156134bb573d6000803e3d6000fd5b50505050505050565b600680546001600160a01b038381166001600160a01b0319831681179093556040519116919082907f8be0079c531659141344cd1fd0a4f28419497f9722a3daafe3b4186f6b6457e090600090a35050565b6000610835825490565b61352b848484612964565b613537848484846141ce565b610ff75760405162461bcd60e51b815260040161097a90615299565b61355c33611b57565b61358d5760405162461bcd60e51b81526020600482015260026024820152614e3560f01b604482015260640161097a565b808214156135c25760405162461bcd60e51b8152602060048201526002602482015261271b60f11b604482015260640161097a565b6135cb81610af6565b6135d483610af6565b146135f15760405162461bcd60e51b815260040161097a90615308565b60006135fc83610ffd565b905061360782610ffd565b6001600160a01b0316816001600160a01b03161461364c5760405162461bcd60e51b815260206004820152600260248201526109c760f31b604482015260640161097a565b6000838152600f60205260408082205484835291205461366c9082615451565b6000848152600f602052604090205561368484612d13565b8284836001600160a01b03167fb3ce851d16b3bbec3774d5631a3893dfa2a80e067cfad265dd594402ac3d6096846040516136c191815260200190565b60405180910390a450505050565b6000838383876040516020016136e894939291906153f2565b60408051808303601f1901815291815281516020928301206000818152601a909352912060020154909150610100900460ff161561374e5760405162461bcd60e51b8152602060048201526003602482015262138c4d60ea1b604482015260640161097a565b604051806080016040528085815260200184815260200183600281111561378557634e487b7160e01b600052602160045260246000fd5b8152600160209182018190526000848152601a8352604090819020845181559284015183830155830151600280840180549293909260ff19169184908111156137de57634e487b7160e01b600052602160045260246000fd5b021790555060609190910151600290910180549115156101000261ff0019909216919091179055949350505050565b6000838152600a60205260409020819055600d54610aab90839085908490614144565b610b9f82826142db565b60006064601960009054906101000a90046001600160a01b03166001600160a01b031663ca535c3b6040518163ffffffff1660e01b815260040160206040518083038186803b15801561388c57600080fd5b505afa1580156138a0573d6000803e3d6000fd5b505050506040513d601f19601f820116820180604052508101906138c49190614ece565b6138ce908561547d565b6138d89190615469565b905080156139d95760105460195460408051630605cc7760e21b815290516001600160a01b039384169363a9059cbb93169163181731dc916004808301926020929190829003018186803b15801561392f57600080fd5b505afa158015613943573d6000803e3d6000fd5b505050506040513d601f19601f820116820180604052508101906139679190614b85565b836040518363ffffffff1660e01b81526004016139859291906151b1565b602060405180830381600087803b15801561399f57600080fd5b505af11580156139b3573d6000803e3d6000fd5b505050506040513d601f19601f820116820180604052508101906139d79190614e3e565b505b60006139e5828561549c565b90508015613cf45760195460408051634905129f60e11b815290516000926001600160a01b03169163920a253e916004808301926020929190829003018186803b158015613a3257600080fd5b505afa158015613a46573d6000803e3d6000fd5b505050506040513d601f19601f82011682018060405250810190613a6a9190614ece565b118015613a905750613a7a61172c565b6001600160a01b0316836001600160a01b031614155b8015613aa557506001600160a01b0383163314155b15613c1f5760006064601960009054906101000a90046001600160a01b03166001600160a01b031663920a253e6040518163ffffffff1660e01b815260040160206040518083038186803b158015613afc57600080fd5b505afa158015613b10573d6000803e3d6000fd5b505050506040513d601f19601f82011682018060405250810190613b349190614ece565b613b3e908461547d565b613b489190615469565b9050613b54818361549c565b60105460405163a9059cbb60e01b81529193506001600160a01b03169063a9059cbb90613b8790879085906004016151b1565b602060405180830381600087803b158015613ba157600080fd5b505af1158015613bb5573d6000803e3d6000fd5b505050506040513d601f19601f82011682018060405250810190613bd99190614e3e565b50836001600160a01b03167f2fc41b7d7df3272c17d9b581fcf235307bc027599c6ed68442c4100bd3a8419882604051613c1591815260200190565b60405180910390a2505b6010546001600160a01b031663a9059cbb613c3861172c565b836040518363ffffffff1660e01b8152600401613c569291906151b1565b602060405180830381600087803b158015613c7057600080fd5b505af1158015613c84573d6000803e3d6000fd5b505050506040513d601f19601f82011682018060405250810190613ca89190614e3e565b50613cb161172c565b6001600160a01b03167ff0f0487d8990103573e0e5cf4e87e101e2a1ba84c733c556b7a5807e570e5d4c82604051613ceb91815260200190565b60405180910390a25b5092915050565b6060613d068261280f565b613d6c5760405162461bcd60e51b815260206004820152603160248201527f45524337323155524953746f726167653a2055524920717565727920666f72206044820152703737b732bc34b9ba32b73a103a37b5b2b760791b606482015260840161097a565b60008281526009602052604081208054613d85906154f6565b80601f0160208091040260200160405190810160405280929190818152602001828054613db1906154f6565b8015613dfe5780601f10613dd357610100808354040283529160200191613dfe565b820191906000526020600020905b815481529060010190602001808311613de157829003601f168201915b505050505090506000613e0f614366565b9050805160001415613e22575092915050565b815115613e54578082604051602001613e3c9291906150d6565b60405160208183030381529060405292505050919050565b61295c84614386565b60006123af8383614450565b60006001600160e01b031982166380ac58cd60e01b1480613e9a57506001600160e01b03198216635b5e139f60e01b145b8061083557506301ffc9a760e01b6001600160e01b0319831614610835565b6001600160a01b03831615610aab57610aab81614488565b60606000613ee083600261547d565b613eeb906002615451565b6001600160401b03811115613f1057634e487b7160e01b600052604160045260246000fd5b6040519080825280601f01601f191660200182016040528015613f3a576020820181803683370190505b509050600360fc1b81600081518110613f6357634e487b7160e01b600052603260045260246000fd5b60200101906001600160f81b031916908160001a905350600f60fb1b81600181518110613fa057634e487b7160e01b600052603260045260246000fd5b60200101906001600160f81b031916908160001a9053506000613fc484600261547d565b613fcf906001615451565b90505b6001811115614063576f181899199a1a9b1b9c1cb0b131b232b360811b85600f166010811061401157634e487b7160e01b600052603260045260246000fd5b1a60f81b82828151811061403557634e487b7160e01b600052603260045260246000fd5b60200101906001600160f81b031916908160001a90535060049490941c9361405c816154df565b9050613fd2565b5083156123af5760405162461bcd60e51b815260206004820181905260248201527f537472696e67733a20686578206c656e67746820696e73756666696369656e74604482015260640161097a565b60006140bd82610ffd565b905060006140ca83610af6565b6000848152600f6020908152604080832054848452600c909252909120919250906140f5908561453c565b506000848152600f602052604081205561410e84614548565b8360006001600160a01b0316846001600160a01b031660008051602061562e8339815191526000856040516136c192919061525c565b61414d8361280f565b6141755761415b84846145dd565b6000828152600c602052604090206141739084614709565b505b6000838152600f602052604090205461418f908290615451565b6000848152600f60205260408082209290925590516001600160a01b03861690829060008051602061562e833981519152906136c1908890879061525c565b60006001600160a01b0384163b156142d057604051630a85bd0160e11b81526001600160a01b0385169063150b7a0290614212903390899088908890600401615174565b602060405180830381600087803b15801561422c57600080fd5b505af192505050801561425c575060408051601f3d908101601f1916820190925261425991810190614eb2565b60015b6142b6573d80801561428a576040519150601f19603f3d011682016040523d82523d6000602084013e61428f565b606091505b5080516142ae5760405162461bcd60e51b815260040161097a90615299565b805181602001fd5b6001600160e01b031916630a85bd0160e11b14905061295c565b506001949350505050565b6142e48261280f565b6143475760405162461bcd60e51b815260206004820152602e60248201527f45524337323155524953746f726167653a2055524920736574206f66206e6f6e60448201526d32bc34b9ba32b73a103a37b5b2b760911b606482015260840161097a565b60008281526009602090815260409091208251610aab928401906149f6565b60606040518060600160405280602281526020016155ec60229139905090565b60606143918261280f565b6143f55760405162461bcd60e51b815260206004820152602f60248201527f4552433732314d657461646174613a2055524920717565727920666f72206e6f60448201526e3732bc34b9ba32b73a103a37b5b2b760891b606482015260840161097a565b60006143ff614366565b9050600081511161441f57604051806020016040528060008152506123af565b8061442984614715565b60405160200161443a9291906150d6565b6040516020818303038152906040529392505050565b600082600001828154811061447557634e487b7160e01b600052603260045260246000fd5b9060005260206000200154905092915050565b6000818152600b60205260408120905b8154811015610aab578160010160008360000183815481106144ca57634e487b7160e01b600052603260045260246000fd5b60009182526020808320909101546001600160a01b03168352820192909252604001812055815482908290811061451157634e487b7160e01b600052603260045260246000fd5b600091825260209091200180546001600160a01b0319169055806145348161552b565b915050614498565b60006123af838361482e565b600061455382610ffd565b905061456181600084613eb9565b61456c60008361282c565b6001600160a01b038116600090815260036020526040812080546001929061459590849061549c565b909155505060008281526002602052604080822080546001600160a01b0319169055518391906001600160a01b0384169060008051602061560e833981519152908390a45050565b6001600160a01b0382166146335760405162461bcd60e51b815260206004820181905260248201527f4552433732313a206d696e7420746f20746865207a65726f2061646472657373604482015260640161097a565b61463c8161280f565b156146885760405162461bcd60e51b815260206004820152601c60248201527b115490cdcc8c4e881d1bdad95b88185b1c9958591e481b5a5b9d195960221b604482015260640161097a565b61469460008383613eb9565b6001600160a01b03821660009081526003602052604081208054600192906146bd908490615451565b909155505060008181526002602052604080822080546001600160a01b0319166001600160a01b038616908117909155905183929060008051602061560e833981519152908290a45050565b60006123af838361494b565b6060816147395750506040805180820190915260018152600360fc1b602082015290565b8160005b8115614763578061474d8161552b565b915061475c9050600a83615469565b915061473d565b6000816001600160401b0381111561478b57634e487b7160e01b600052604160045260246000fd5b6040519080825280601f01601f1916602001820160405280156147b5576020820181803683370190505b5090505b841561295c576147ca60018361549c565b91506147d7600a86615546565b6147e2906030615451565b60f81b81838151811061480557634e487b7160e01b600052603260045260246000fd5b60200101906001600160f81b031916908160001a905350614827600a86615469565b94506147b9565b6000818152600183016020526040812054801561494157600061485260018361549c565b85549091506000906148669060019061549c565b90508181146148e757600086600001828154811061489457634e487b7160e01b600052603260045260246000fd5b90600052602060002001549050808760000184815481106148c557634e487b7160e01b600052603260045260246000fd5b6000918252602080832090910192909255918252600188019052604090208390555b855486908061490657634e487b7160e01b600052603160045260246000fd5b600190038181906000526020600020016000905590558560010160008681526020019081526020016000206000905560019350505050610835565b6000915050610835565b600081815260018301602052604081205461499257508154600181810184556000848152602080822090930184905584548482528286019093526040902091909155610835565b506000610835565b6040805160e0810190915280600081526020016000815260200160008152602001600081526020016000815260200160008152602001600060028111156149f157634e487b7160e01b600052602160045260246000fd5b905290565b828054614a02906154f6565b90600052602060002090601f016020900481019282614a245760008555614a6a565b82601f10614a3d57805160ff1916838001178555614a6a565b82800160010185558215614a6a579182015b82811115614a6a578251825591602001919060010190614a4f565b50614a76929150614a7a565b5090565b5b80821115614a765760008155600101614a7b565b60006001600160401b0380841115614aa957614aa961559c565b604051601f8501601f19908116603f01168101908282118183101715614ad157614ad161559c565b81604052809350858152868686011115614aea57600080fd5b858560208301376000602087830101525050509392505050565b60008083601f840112614b15578182fd5b5081356001600160401b03811115614b2b578182fd5b6020830191508360208260051b8501011115614b4657600080fd5b9250929050565b80516001600160501b0381168114614b6457600080fd5b919050565b600060208284031215614b7a578081fd5b81356123af816155b2565b600060208284031215614b96578081fd5b81516123af816155b2565b60008060408385031215614bb3578081fd5b8235614bbe816155b2565b91506020830135614bce816155b2565b809150509250929050565b600080600060608486031215614bed578081fd5b8335614bf8816155b2565b92506020840135614c08816155b2565b929592945050506040919091013590565b60008060008060808587031215614c2e578081fd5b8435614c39816155b2565b93506020850135614c49816155b2565b92506040850135915060608501356001600160401b03811115614c6a578182fd5b8501601f81018713614c7a578182fd5b614c8987823560208401614a8f565b91505092959194509250565b60008060008060808587031215614caa578384fd5b8435614cb5816155b2565b93506020850135614cc5816155b2565b93969395505050506040820135916060013590565b600080600080600060a08688031215614cf1578081fd5b8535614cfc816155b2565b94506020860135614d0c816155b2565b94979496505050506040830135926060810135926080909101359150565b60008060408385031215614d3c578182fd5b8235614d47816155b2565b91506020830135614bce816155c7565b60008060408385031215614d69578182fd5b8235614d74816155b2565b946020939093013593505050565b600080600060608486031215614d96578081fd5b8335614da1816155b2565b95602085013595506040909401359392505050565b60008060208385031215614dc8578182fd5b82356001600160401b03811115614ddd578283fd5b614de985828601614b04565b90969095509350505050565b600080600060408486031215614e09578081fd5b83356001600160401b03811115614e1e578182fd5b614e2a86828701614b04565b909790965060209590950135949350505050565b600060208284031215614e4f578081fd5b81516123af816155c7565b600060208284031215614e6b578081fd5b5035919050565b60008060408385031215614e84578182fd5b823591506020830135614bce816155b2565b600060208284031215614ea7578081fd5b81356123af816155d5565b600060208284031215614ec3578081fd5b81516123af816155d5565b600060208284031215614edf578081fd5b5051919050565b600080600060408486031215614efa578081fd5b8335925060208401356001600160401b03811115614f16578182fd5b614f2286828701614b04565b9497909650939450505050565b60008060408385031215614f41578182fd5b50508035926020909101359150565b600080600080600060a08688031215614f67578283fd5b8535945060208601359350604086013592506060860135614f87816155c7565b91506080860135614f97816155c7565b809150509295509295909350565b600080600080600080600060e0888a031215614fbf578485fd5b8735965060208801359550604088013594506060880135614fdf816155c7565b93506080880135614fef816155c7565b925060a0880135614fff816155b2565b915060c08801356001600160401b03811115615019578182fd5b8801601f81018a13615029578182fd5b6150388a823560208401614a8f565b91505092959891949750929550565b600080600080600060a0868803121561505e578283fd5b61506786614b4d565b945060208601519350604086015192506060860151915061508a60808701614b4d565b90509295509295909350565b600081518084526150ae8160208601602086016154b3565b601f01601f19169290920160200192915050565b600381106150d2576150d2615586565b9052565b600083516150e88184602088016154b3565b8351908301906150fc8183602088016154b3565b01949350505050565b76020b1b1b2b9b9a1b7b73a3937b61d1030b1b1b7bab73a1604d1b8152600083516151378160178501602088016154b3565b7001034b99036b4b9b9b4b733903937b6329607d1b60179184019182015283516151688160288401602088016154b3565b01602801949350505050565b6001600160a01b03858116825284166020820152604081018390526080606082018190526000906151a790830184615096565b9695505050505050565b6001600160a01b03929092168252602082015260400190565b6020808252825182820181905260009190848201906040850190845b81811015615202578351835292840192918401916001016151e6565b50909695505050505050565b60e081016004891061522257615222615586565b8882528760208301528660408301528560608301528460808301528360a083015261525060c08301846150c2565b98975050505050505050565b918252602082015260400190565b6020815260006123af6020830184615096565b6020808252600290820152614f3960f01b604082015260600190565b60208082526032908201527f4552433732313a207472616e7366657220746f206e6f6e20455243373231526560408201527131b2b4bb32b91034b6b83632b6b2b73a32b960711b606082015260800190565b60208082526003908201526204f32360ec1b604082015260600190565b6020808252600290820152614e3760f01b604082015260600190565b6020808252818101527f4f776e61626c653a2063616c6c6572206973206e6f7420746865206f776e6572604082015260600190565b60208082526031908201527f4552433732313a207472616e736665722063616c6c6572206973206e6f74206f6040820152701ddb995c881b9bdc88185c1c1c9bdd9959607a1b606082015260800190565b60208082526002908201526113cd60f21b604082015260600190565b84815260208101849052608081016153e160408301856150c2565b821515606083015295945050505050565b848152602081018490526080810161540d60408301856150c2565b82606083015295945050505050565b838152826020820152606060408201526000612f706060830184615096565b9283526020830191909152604082015260600190565b600082198211156154645761546461555a565b500190565b60008261547857615478615570565b500490565b60008160001904831182151516156154975761549761555a565b500290565b6000828210156154ae576154ae61555a565b500390565b60005b838110156154ce5781810151838201526020016154b6565b83811115610ff75750506000910152565b6000816154ee576154ee61555a565b506000190190565b600181811c9082168061550a57607f821691505b6020821081141561090c57634e487b7160e01b600052602260045260246000fd5b600060001982141561553f5761553f61555a565b5060010190565b60008261555557615555615570565b500690565b634e487b7160e01b600052601160045260246000fd5b634e487b7160e01b600052601260045260246000fd5b634e487b7160e01b600052602160045260246000fd5b634e487b7160e01b600052604160045260246000fd5b6001600160a01b0381168114610c4457600080fd5b8015158114610c4457600080fd5b6001600160e01b031981168114610c4457600080fdfe68747470733a2f2f676174657761792e70696e6174612e636c6f75642f697066732fddf252ad1be2c89b69c2b068fc378daa952ba7f163c4a11628f55a4df523b3ef823a343d1c899e61a4db12247636a6882bf1fefae78bef39170f8d0f5b53e456a264697066735822122034c6507a5f3cd8957d61bd613f5c365e81a3e089993fb65be6b6f75e7e50f27a64736f6c63430008040033","language":"Solidity","natspec":{"methods":{"approve(address,uint256)":{"details":"See {IERC721-approve}."},"balanceOf(address)":{"details":"See {IERC721-balanceOf}."},"create(uint256,uint256,uint256,bool,bool,address,string)":{"notice":"Creates a new option","params":{"amount":"Option amount in tokenX","referrer":"Referrer address"},"returns":{"optionID":"Created option's ID"}},"exercise(uint256)":{"notice":"Exercises an option if it was ITM at the time of expiry","params":{"optionID":"ID of your option"},"returns":{"profit":"Profit sent to the user"}},"fees(uint256,uint256,uint256,bool,bool)":{"notice":"Used for getting the option's price using blackscholes","params":{"amount":"Option amount","isAbove":"whether the price will stay above this strike or not","isYes":"whether the option isAbove or not","period":"Option period in seconds","strike":"Strike price of the option"},"returns":{"premium":"Amount that covers the price difference in the ITM options","settlementFee":"Amount to be distributed to the Buffer token holders","total":"Total price to be paid"}},"getApproved(uint256)":{"details":"See {IERC721-getApproved}."},"getRoleAdmin(bytes32)":{"details":"Returns the admin role that controls `role`. See {grantRole} and {revokeRole}. To change a role's admin, use {_setRoleAdmin}."},"grantRole(bytes32,address)":{"details":"Grants `role` to `account`. If `account` had not been already granted `role`, emits a {RoleGranted} event. Requirements: - the caller must have ``role``'s admin role."},"hasRole(bytes32,address)":{"details":"Returns `true` if `account` has been granted `role`."},"isApprovedForAll(address,address)":{"details":"See {IERC721-isApprovedForAll}."},"merge(uint256[],uint256)":{"notice":"Merges the options","params":{"optionIDs":"An array of the optionsIds to be merged","targetOptionID":"OptionId to be merged into"}},"name()":{"details":"See {IERC721Metadata-name}."},"owner()":{"details":"Returns the address of the current owner."},"ownerOf(uint256)":{"details":"See {IERC721-ownerOf}."},"renounceOwnership()":{"details":"Leaves the contract without owner. It will not be possible to call `onlyOwner` functions anymore. Can only be called by the current owner. NOTE: Renouncing ownership will leave the contract without an owner, thereby removing any functionality that is only available to the owner."},"renounceRole(bytes32,address)":{"details":"Revokes `role` from the calling account. Roles are often managed via {grantRole} and {revokeRole}: this function's purpose is to provide a mechanism for accounts to lose their privileges if they are compromised (such as when a trusted device is misplaced). If the calling account had been granted `role`, emits a {RoleRevoked} event. Requirements: - the caller must be `account`."},"revokeRole(bytes32,address)":{"details":"Revokes `role` from `account`. If `account` had been granted `role`, emits a {RoleRevoked} event. Requirements: - the caller must have ``role``'s admin role."},"safeTransferFrom(address,address,uint256)":{"details":"See {IERC721-safeTransferFrom}."},"safeTransferFrom(address,address,uint256,bytes)":{"details":"See {IERC721-safeTransferFrom}."},"setApprovalForAll(address,bool)":{"details":"See {IERC721-setApprovalForAll}."},"setRoundIDForExpiry(uint256,uint256)":{"notice":"Sets the expiry price in the oracle","details":"a roundId must be provided to confirm price validity, which is the first Chainlink price provided after the expiryTimestamp","params":{"roundId":"the first roundId after expiryTimestamp"}},"split(uint256,uint256[])":{"notice":"Splits the option","params":{"optionID":"OptionId to be splitted","splitUnits_":"Units to be splitted into"},"returns":{"newOptionIDs":"An array of the splitted options"}},"symbol()":{"details":"See {IERC721Metadata-symbol}."},"tokenURI(uint256)":{"details":"Template code provided by OpenZepplin Code Wizard"},"transferFrom(address,address,uint256)":{"details":"See {IERC721-transferFrom}."},"transferFrom(address,address,uint256,uint256)":{"notice":"Transfer part of units of a option to target address.","params":{"from_":"Address of the option sender","optionID":"Id of the option to transfer","to_":"Address of the option recipient","transferUnits_":"Amount of units to transfer"}},"transferFrom(address,address,uint256,uint256,uint256)":{"notice":"Transfer part of units of a option to another option.","params":{"from_":"Address of the option sender","optionID":"Id of the option to transfer","targetOptionID":"Id of the option to receive","to_":"Address of the option recipient","transferUnits_":"Amount of units to transfer"}},"transferOwnership(address)":{"details":"Transfers ownership of the contract to a new account (`newOwner`). Can only be called by the current owner."},"unlock(uint256)":{"notice":"Unlocks the locked funds if the option was OTM at the time of expiry otherwise exercises it","params":{"optionID":"ID of the option"}},"unlockAll(uint256[])":{"notice":"Unlocks an array of options","params":{"optionIDs":"array of options"}},"approvePoolToTransferTokenX()":{"notice":"Call this to set the max approval for tokenX transfers from the options to pool"}},"kind":"dev","notice":"Buffer TokenX Options Contract","version":1,"author":"Heisenberg","title":"Buffer TokenX Bidirectional (Call and Put) Options"},"opcodes":"PUSH1 0x80 PUSH1 0x40 MSTORE CALLVALUE DUP1 ISZERO PUSH2 0x10 JUMPI PUSH1 0x0 DUP1 REVERT JUMPDEST POP PUSH1 0x4 CALLDATASIZE LT PUSH2 0x29E JUMPI PUSH1 0x0 CALLDATALOAD PUSH1 0xE0 SHR DUP1 PUSH4 0x1FFC9A7 EQ PUSH2 0x2A3 JUMPI DUP1 PUSH4 0x5271A2A EQ PUSH2 0x2CB JUMPI DUP1 PUSH4 0x6517A29 EQ PUSH2 0x2E0 JUMPI DUP1 PUSH4 0x6FDDE03 EQ PUSH2 0x2F7 JUMPI DUP1 PUSH4 0x76D948C EQ PUSH2 0x30C JUMPI DUP1 PUSH4 0x81812FC EQ PUSH2 0x31F JUMPI DUP1 PUSH4 0x95EA7B3 EQ PUSH2 0x34A JUMPI DUP1 PUSH4 0x16DC165B EQ PUSH2 0x35F JUMPI DUP1 PUSH4 0x16F0115B EQ PUSH2 0x372 JUMPI DUP1 PUSH4 0x23B872DD EQ PUSH2 0x385 JUMPI DUP1 PUSH4 0x248A9CA3 EQ PUSH2 0x398 JUMPI DUP1 PUSH4 0x263F3E7E EQ PUSH2 0x3AB JUMPI DUP1 PUSH4 0x2F2FF15D EQ PUSH2 0x3BE JUMPI DUP1 PUSH4 0x34C01793 EQ PUSH2 0x3D1 JUMPI DUP1 PUSH4 0x36568ABE EQ PUSH2 0x3FC JUMPI DUP1 PUSH4 0x409E2205 EQ PUSH2 0x40F JUMPI DUP1 PUSH4 0x426A8493 EQ PUSH2 0x472 JUMPI DUP1 PUSH4 0x42842E0E EQ PUSH2 0x485 JUMPI DUP1 PUSH4 0x42966C68 EQ PUSH2 0x498 JUMPI DUP1 PUSH4 0x4AED53C2 EQ PUSH2 0x4AB JUMPI DUP1 PUSH4 0x4F558E79 EQ PUSH2 0x4BE JUMPI DUP1 PUSH4 0x6198E339 EQ PUSH2 0x4D1 JUMPI DUP1 PUSH4 0x6352211E EQ PUSH2 0x4E4 JUMPI DUP1 PUSH4 0x645734E6 EQ PUSH2 0x4F7 JUMPI DUP1 PUSH4 0x67807F7D EQ PUSH2 0x4FF JUMPI DUP1 PUSH4 0x689AB5AC EQ PUSH2 0x521 JUMPI DUP1 PUSH4 0x69C67247 EQ PUSH2 0x564 JUMPI DUP1 PUSH4 0x70A08231 EQ PUSH2 0x584 JUMPI DUP1 PUSH4 0x715018A6 EQ PUSH2 0x597 JUMPI DUP1 PUSH4 0x75794A3C EQ PUSH2 0x59F JUMPI DUP1 PUSH4 0x78C533CE EQ PUSH2 0x5A8 JUMPI DUP1 PUSH4 0x79502C55 EQ PUSH2 0x5C8 JUMPI DUP1 PUSH4 0x841EDC0E EQ PUSH2 0x5DB JUMPI DUP1 PUSH4 0x8A584118 EQ PUSH2 0x5FB JUMPI DUP1 PUSH4 0x8DA5CB5B EQ PUSH2 0x646 JUMPI DUP1 PUSH4 0x91D14854 EQ PUSH2 0x64E JUMPI DUP1 PUSH4 0x95D89B41 EQ PUSH2 0x661 JUMPI DUP1 PUSH4 0xA217FDDF EQ PUSH2 0x669 JUMPI DUP1 PUSH4 0xA22CB465 EQ PUSH2 0x671 JUMPI DUP1 PUSH4 0xA6D14C02 EQ PUSH2 0x684 JUMPI DUP1 PUSH4 0xA8800425 EQ PUSH2 0x68C JUMPI DUP1 PUSH4 0xB07F0A41 EQ PUSH2 0x69F JUMPI DUP1 PUSH4 0xB888879E EQ PUSH2 0x6B2 JUMPI DUP1 PUSH4 0xB88D4FDE EQ PUSH2 0x6C5 JUMPI DUP1 PUSH4 0xBBE33EA5 EQ PUSH2 0x6D8 JUMPI DUP1 PUSH4 0xBECEF607 EQ PUSH2 0x6EB JUMPI DUP1 PUSH4 0xC0D720BB EQ PUSH2 0x6FE JUMPI DUP1 PUSH4 0xC87B56DD EQ PUSH2 0x711 JUMPI DUP1 PUSH4 0xD149CC30 EQ PUSH2 0x724 JUMPI DUP1 PUSH4 0xD547741F EQ PUSH2 0x737 JUMPI DUP1 PUSH4 0xD5A0E673 EQ PUSH2 0x74A JUMPI DUP1 PUSH4 0xD67A6B70 EQ PUSH2 0x76A JUMPI DUP1 PUSH4 0xDBA34E97 EQ PUSH2 0x77D JUMPI DUP1 PUSH4 0xE342B598 EQ PUSH2 0x7A4 JUMPI DUP1 PUSH4 0xE345E0BC EQ PUSH2 0x7B7 JUMPI DUP1 PUSH4 0xE985E9C5 EQ PUSH2 0x7F1 JUMPI DUP1 PUSH4 0xF2FDE38B EQ PUSH2 0x804 JUMPI DUP1 PUSH4 0xFE99049A EQ PUSH2 0x817 JUMPI JUMPDEST PUSH1 0x0 DUP1 REVERT JUMPDEST PUSH2 0x2B6 PUSH2 0x2B1 CALLDATASIZE PUSH1 0x4 PUSH2 0x4E96 JUMP JUMPDEST PUSH2 0x82A JUMP JUMPDEST PUSH1 0x40 MLOAD SWAP1 ISZERO ISZERO DUP2 MSTORE PUSH1 0x20 ADD JUMPDEST PUSH1 0x40 MLOAD DUP1 SWAP2 SUB SWAP1 RETURN JUMPDEST PUSH1 0xE SLOAD PUSH1 0x40 MLOAD PUSH1 0xFF SWAP1 SWAP2 AND DUP2 MSTORE PUSH1 0x20 ADD PUSH2 0x2C2 JUMP JUMPDEST PUSH2 0x2E9 PUSH1 0xD SLOAD DUP2 JUMP JUMPDEST PUSH1 0x40 MLOAD SWAP1 DUP2 MSTORE PUSH1 0x20 ADD PUSH2 0x2C2 JUMP JUMPDEST PUSH2 0x2FF PUSH2 0x83B JUMP JUMPDEST PUSH1 0x40 MLOAD PUSH2 0x2C2 SWAP2 SWAP1 PUSH2 0x526A JUMP JUMPDEST PUSH2 0x2E9 PUSH2 0x31A CALLDATASIZE PUSH1 0x4 PUSH2 0x4E5A JUMP JUMPDEST PUSH2 0x8CD JUMP JUMPDEST PUSH2 0x332 PUSH2 0x32D CALLDATASIZE PUSH1 0x4 PUSH2 0x4E5A JUMP JUMPDEST PUSH2 0x912 JUMP JUMPDEST PUSH1 0x40 MLOAD PUSH1 0x1 PUSH1 0x1 PUSH1 0xA0 SHL SUB SWAP1 SWAP2 AND DUP2 MSTORE PUSH1 0x20 ADD PUSH2 0x2C2 JUMP JUMPDEST PUSH2 0x35D PUSH2 0x358 CALLDATASIZE PUSH1 0x4 PUSH2 0x4D57 JUMP JUMPDEST PUSH2 0x99F JUMP JUMPDEST STOP JUMPDEST PUSH1 0x10 SLOAD PUSH2 0x332 SWAP1 PUSH1 0x1 PUSH1 0x1 PUSH1 0xA0 SHL SUB AND DUP2 JUMP JUMPDEST PUSH1 0x18 SLOAD PUSH2 0x332 SWAP1 PUSH1 0x1 PUSH1 0x1 PUSH1 0xA0 SHL SUB AND DUP2 JUMP JUMPDEST PUSH2 0x35D PUSH2 0x393 CALLDATASIZE PUSH1 0x4 PUSH2 0x4BD9 JUMP JUMPDEST PUSH2 0xAB0 JUMP JUMPDEST PUSH2 0x2E9 PUSH2 0x3A6 CALLDATASIZE PUSH1 0x4 PUSH2 0x4E5A JUMP JUMPDEST PUSH2 0xAE1 JUMP JUMPDEST PUSH2 0x2E9 PUSH2 0x3B9 CALLDATASIZE PUSH1 0x4 PUSH2 0x4E5A JUMP JUMPDEST PUSH2 0xAF6 JUMP JUMPDEST PUSH2 0x35D PUSH2 0x3CC CALLDATASIZE PUSH1 0x4 PUSH2 0x4E72 JUMP JUMPDEST PUSH2 0xB08 JUMP JUMPDEST PUSH2 0x2E9 PUSH2 0x3DF CALLDATASIZE PUSH1 0x4 PUSH2 0x4E72 JUMP JUMPDEST PUSH1 0x17 PUSH1 0x20 SWAP1 DUP2 MSTORE PUSH1 0x0 SWAP3 DUP4 MSTORE PUSH1 0x40 DUP1 DUP5 KECCAK256 SWAP1 SWAP2 MSTORE SWAP1 DUP3 MSTORE SWAP1 KECCAK256 SLOAD DUP2 JUMP JUMPDEST PUSH2 0x35D PUSH2 0x40A CALLDATASIZE PUSH1 0x4 PUSH2 0x4E72 JUMP JUMPDEST PUSH2 0xB25 JUMP JUMPDEST PUSH2 0x45F PUSH2 0x41D CALLDATASIZE PUSH1 0x4 PUSH2 0x4E5A JUMP JUMPDEST PUSH1 0x14 PUSH1 0x20 MSTORE PUSH1 0x0 SWAP1 DUP2 MSTORE PUSH1 0x40 SWAP1 KECCAK256 DUP1 SLOAD PUSH1 0x1 DUP3 ADD SLOAD PUSH1 0x2 DUP4 ADD SLOAD PUSH1 0x3 DUP5 ADD SLOAD PUSH1 0x4 DUP6 ADD SLOAD PUSH1 0x5 DUP7 ADD SLOAD PUSH1 0x6 SWAP1 SWAP7 ADD SLOAD PUSH1 0xFF SWAP6 DUP7 AND SWAP7 SWAP5 SWAP6 SWAP4 SWAP5 SWAP3 SWAP4 SWAP2 SWAP3 SWAP2 AND DUP8 JUMP JUMPDEST PUSH1 0x40 MLOAD PUSH2 0x2C2 SWAP8 SWAP7 SWAP6 SWAP5 SWAP4 SWAP3 SWAP2 SWAP1 PUSH2 0x520E JUMP JUMPDEST PUSH2 0x35D PUSH2 0x480 CALLDATASIZE PUSH1 0x4 PUSH2 0x4D82 JUMP JUMPDEST PUSH2 0xBA3 JUMP JUMPDEST PUSH2 0x35D PUSH2 0x493 CALLDATASIZE PUSH1 0x4 PUSH2 0x4BD9 JUMP JUMPDEST PUSH2 0xBE7 JUMP JUMPDEST PUSH2 0x35D PUSH2 0x4A6 CALLDATASIZE PUSH1 0x4 PUSH2 0x4E5A JUMP JUMPDEST PUSH2 0xC02 JUMP JUMPDEST PUSH2 0x35D PUSH2 0x4B9 CALLDATASIZE PUSH1 0x4 PUSH2 0x4CDA JUMP JUMPDEST PUSH2 0xC47 JUMP JUMPDEST PUSH2 0x2B6 PUSH2 0x4CC CALLDATASIZE PUSH1 0x4 PUSH2 0x4E5A JUMP JUMPDEST PUSH2 0xD69 JUMP JUMPDEST PUSH2 0x35D PUSH2 0x4DF CALLDATASIZE PUSH1 0x4 PUSH2 0x4E5A JUMP JUMPDEST PUSH2 0xD74 JUMP JUMPDEST PUSH2 0x332 PUSH2 0x4F2 CALLDATASIZE PUSH1 0x4 PUSH2 0x4E5A JUMP JUMPDEST PUSH2 0xFFD JUMP JUMPDEST PUSH2 0x35D PUSH2 0x1074 JUMP JUMPDEST PUSH2 0x512 PUSH2 0x50D CALLDATASIZE PUSH1 0x4 PUSH2 0x4F50 JUMP JUMPDEST PUSH2 0x10FE JUMP JUMPDEST PUSH1 0x40 MLOAD PUSH2 0x2C2 SWAP4 SWAP3 SWAP2 SWAP1 PUSH2 0x543B JUMP JUMPDEST PUSH2 0x54D PUSH2 0x52F CALLDATASIZE PUSH1 0x4 PUSH2 0x4E5A JUMP JUMPDEST PUSH1 0x15 PUSH1 0x20 MSTORE PUSH1 0x0 SWAP1 DUP2 MSTORE PUSH1 0x40 SWAP1 KECCAK256 SLOAD PUSH1 0xFF DUP1 DUP3 AND SWAP2 PUSH2 0x100 SWAP1 DIV AND DUP3 JUMP JUMPDEST PUSH1 0x40 DUP1 MLOAD SWAP3 ISZERO ISZERO DUP4 MSTORE SWAP1 ISZERO ISZERO PUSH1 0x20 DUP4 ADD MSTORE ADD PUSH2 0x2C2 JUMP JUMPDEST PUSH2 0x577 PUSH2 0x572 CALLDATASIZE PUSH1 0x4 PUSH2 0x4EE6 JUMP JUMPDEST PUSH2 0x1278 JUMP JUMPDEST PUSH1 0x40 MLOAD PUSH2 0x2C2 SWAP2 SWAP1 PUSH2 0x51CA JUMP JUMPDEST PUSH2 0x2E9 PUSH2 0x592 CALLDATASIZE PUSH1 0x4 PUSH2 0x4B69 JUMP JUMPDEST PUSH2 0x166A JUMP JUMPDEST PUSH2 0x35D PUSH2 0x16F1 JUMP JUMPDEST PUSH2 0x2E9 PUSH1 0x13 SLOAD DUP2 JUMP JUMPDEST PUSH2 0x2E9 PUSH2 0x5B6 CALLDATASIZE PUSH1 0x4 PUSH2 0x4E5A JUMP JUMPDEST PUSH1 0xF PUSH1 0x20 MSTORE PUSH1 0x0 SWAP1 DUP2 MSTORE PUSH1 0x40 SWAP1 KECCAK256 SLOAD DUP2 JUMP JUMPDEST PUSH1 0x19 SLOAD PUSH2 0x332 SWAP1 PUSH1 0x1 PUSH1 0x1 PUSH1 0xA0 SHL SUB AND DUP2 JUMP JUMPDEST PUSH2 0x2E9 PUSH2 0x5E9 CALLDATASIZE PUSH1 0x4 PUSH2 0x4E5A JUMP JUMPDEST PUSH1 0x16 PUSH1 0x20 MSTORE PUSH1 0x0 SWAP1 DUP2 MSTORE PUSH1 0x40 SWAP1 KECCAK256 SLOAD DUP2 JUMP JUMPDEST PUSH2 0x636 PUSH2 0x609 CALLDATASIZE PUSH1 0x4 PUSH2 0x4E5A JUMP JUMPDEST PUSH1 0x1A PUSH1 0x20 MSTORE PUSH1 0x0 SWAP1 DUP2 MSTORE PUSH1 0x40 SWAP1 KECCAK256 DUP1 SLOAD PUSH1 0x1 DUP3 ADD SLOAD PUSH1 0x2 SWAP1 SWAP3 ADD SLOAD SWAP1 SWAP2 SWAP1 PUSH1 0xFF DUP1 DUP3 AND SWAP2 PUSH2 0x100 SWAP1 DIV AND DUP5 JUMP JUMPDEST PUSH1 0x40 MLOAD PUSH2 0x2C2 SWAP5 SWAP4 SWAP3 SWAP2 SWAP1 PUSH2 0x53C6 JUMP JUMPDEST PUSH2 0x332 PUSH2 0x172C JUMP JUMPDEST PUSH2 0x2B6 PUSH2 0x65C CALLDATASIZE PUSH1 0x4 PUSH2 0x4E72 JUMP JUMPDEST PUSH2 0x173B JUMP JUMPDEST PUSH2 0x2FF PUSH2 0x1766 JUMP JUMPDEST PUSH2 0x2E9 PUSH1 0x0 DUP2 JUMP JUMPDEST PUSH2 0x35D PUSH2 0x67F CALLDATASIZE PUSH1 0x4 PUSH2 0x4D2A JUMP JUMPDEST PUSH2 0x1775 JUMP JUMPDEST PUSH2 0x2E9 PUSH1 0x5 DUP2 JUMP JUMPDEST PUSH2 0x2E9 PUSH2 0x69A CALLDATASIZE PUSH1 0x4 PUSH2 0x4E5A JUMP JUMPDEST PUSH2 0x1836 JUMP JUMPDEST PUSH2 0x2E9 PUSH2 0x6AD CALLDATASIZE PUSH1 0x4 PUSH2 0x4E5A JUMP JUMPDEST PUSH2 0x184D JUMP JUMPDEST PUSH1 0x12 SLOAD PUSH2 0x332 SWAP1 PUSH1 0x1 PUSH1 0x1 PUSH1 0xA0 SHL SUB AND DUP2 JUMP JUMPDEST PUSH2 0x35D PUSH2 0x6D3 CALLDATASIZE PUSH1 0x4 PUSH2 0x4C19 JUMP JUMPDEST PUSH2 0x1B52 JUMP JUMPDEST PUSH2 0x35D PUSH2 0x6E6 CALLDATASIZE PUSH1 0x4 PUSH2 0x4DF5 JUMP JUMPDEST PUSH2 0x1B85 JUMP JUMPDEST PUSH2 0x2E9 PUSH2 0x6F9 CALLDATASIZE PUSH1 0x4 PUSH2 0x4E5A JUMP JUMPDEST PUSH2 0x1D94 JUMP JUMPDEST PUSH2 0x2E9 PUSH2 0x70C CALLDATASIZE PUSH1 0x4 PUSH2 0x4FA5 JUMP JUMPDEST PUSH2 0x1DA6 JUMP JUMPDEST PUSH2 0x2FF PUSH2 0x71F CALLDATASIZE PUSH1 0x4 PUSH2 0x4E5A JUMP JUMPDEST PUSH2 0x238C JUMP JUMPDEST PUSH2 0x2E9 PUSH2 0x732 CALLDATASIZE PUSH1 0x4 PUSH2 0x4F2F JUMP JUMPDEST PUSH2 0x2397 JUMP JUMPDEST PUSH2 0x35D PUSH2 0x745 CALLDATASIZE PUSH1 0x4 PUSH2 0x4E72 JUMP JUMPDEST PUSH2 0x23B6 JUMP JUMPDEST PUSH2 0x2E9 PUSH2 0x758 CALLDATASIZE PUSH1 0x4 PUSH2 0x4E5A JUMP JUMPDEST PUSH1 0xA PUSH1 0x20 MSTORE PUSH1 0x0 SWAP1 DUP2 MSTORE PUSH1 0x40 SWAP1 KECCAK256 SLOAD DUP2 JUMP JUMPDEST PUSH2 0x2B6 PUSH2 0x778 CALLDATASIZE PUSH1 0x4 PUSH2 0x4F2F JUMP JUMPDEST PUSH2 0x23D3 JUMP JUMPDEST PUSH2 0x2E9 PUSH32 0xDEB3B49547F710C56A925B6E16E3557A50FAB4DD8F243BC314F3AFBA2054EC5B DUP2 JUMP JUMPDEST PUSH2 0x35D PUSH2 0x7B2 CALLDATASIZE PUSH1 0x4 PUSH2 0x4DB6 JUMP JUMPDEST PUSH2 0x25FB JUMP JUMPDEST PUSH2 0x2E9 PUSH2 0x7C5 CALLDATASIZE PUSH1 0x4 PUSH2 0x4E72 JUMP JUMPDEST PUSH1 0x0 DUP3 DUP2 MSTORE PUSH1 0xB PUSH1 0x20 SWAP1 DUP2 MSTORE PUSH1 0x40 DUP1 DUP4 KECCAK256 PUSH1 0x1 PUSH1 0x1 PUSH1 0xA0 SHL SUB DUP6 AND DUP5 MSTORE PUSH1 0x1 ADD SWAP1 SWAP2 MSTORE SWAP1 KECCAK256 SLOAD SWAP3 SWAP2 POP POP JUMP JUMPDEST PUSH2 0x2B6 PUSH2 0x7FF CALLDATASIZE PUSH1 0x4 PUSH2 0x4BA1 JUMP JUMPDEST PUSH2 0x2648 JUMP JUMPDEST PUSH2 0x35D PUSH2 0x812 CALLDATASIZE PUSH1 0x4 PUSH2 0x4B69 JUMP JUMPDEST PUSH2 0x2676 JUMP JUMPDEST PUSH2 0x2E9 PUSH2 0x825 CALLDATASIZE PUSH1 0x4 PUSH2 0x4C95 JUMP JUMPDEST PUSH2 0x2713 JUMP JUMPDEST PUSH1 0x0 PUSH2 0x835 DUP3 PUSH2 0x27EA JUMP JUMPDEST SWAP3 SWAP2 POP POP JUMP JUMPDEST PUSH1 0x60 PUSH1 0x0 DUP1 SLOAD PUSH2 0x84A SWAP1 PUSH2 0x54F6 JUMP JUMPDEST DUP1 PUSH1 0x1F ADD PUSH1 0x20 DUP1 SWAP2 DIV MUL PUSH1 0x20 ADD PUSH1 0x40 MLOAD SWAP1 DUP2 ADD PUSH1 0x40 MSTORE DUP1 SWAP3 SWAP2 SWAP1 DUP2 DUP2 MSTORE PUSH1 0x20 ADD DUP3 DUP1 SLOAD PUSH2 0x876 SWAP1 PUSH2 0x54F6 JUMP JUMPDEST DUP1 ISZERO PUSH2 0x8C3 JUMPI DUP1 PUSH1 0x1F LT PUSH2 0x898 JUMPI PUSH2 0x100 DUP1 DUP4 SLOAD DIV MUL DUP4 MSTORE SWAP2 PUSH1 0x20 ADD SWAP2 PUSH2 0x8C3 JUMP JUMPDEST DUP3 ADD SWAP2 SWAP1 PUSH1 0x0 MSTORE PUSH1 0x20 PUSH1 0x0 KECCAK256 SWAP1 JUMPDEST DUP2 SLOAD DUP2 MSTORE SWAP1 PUSH1 0x1 ADD SWAP1 PUSH1 0x20 ADD DUP1 DUP4 GT PUSH2 0x8A6 JUMPI DUP3 SWAP1 SUB PUSH1 0x1F AND DUP3 ADD SWAP2 JUMPDEST POP POP POP POP POP SWAP1 POP SWAP1 JUMP JUMPDEST PUSH1 0x0 DUP1 JUMPDEST PUSH2 0x8DA DUP4 PUSH2 0x1836 JUMP JUMPDEST DUP2 LT ISZERO PUSH2 0x90C JUMPI PUSH2 0x8EE PUSH2 0x6F9 DUP5 DUP4 PUSH2 0x2397 JUMP JUMPDEST PUSH2 0x8F8 SWAP1 DUP4 PUSH2 0x5451 JUMP JUMPDEST SWAP2 POP DUP1 PUSH2 0x904 DUP2 PUSH2 0x552B JUMP JUMPDEST SWAP2 POP POP PUSH2 0x8D1 JUMP JUMPDEST POP SWAP2 SWAP1 POP JUMP JUMPDEST PUSH1 0x0 PUSH2 0x91D DUP3 PUSH2 0x280F JUMP JUMPDEST PUSH2 0x983 JUMPI PUSH1 0x40 MLOAD PUSH3 0x461BCD PUSH1 0xE5 SHL DUP2 MSTORE PUSH1 0x20 PUSH1 0x4 DUP3 ADD MSTORE PUSH1 0x2C PUSH1 0x24 DUP3 ADD MSTORE PUSH32 0x4552433732313A20617070726F76656420717565727920666F72206E6F6E6578 PUSH1 0x44 DUP3 ADD MSTORE PUSH12 0x34B9BA32B73A103A37B5B2B7 PUSH1 0xA1 SHL PUSH1 0x64 DUP3 ADD MSTORE PUSH1 0x84 ADD JUMPDEST PUSH1 0x40 MLOAD DUP1 SWAP2 SUB SWAP1 REVERT JUMPDEST POP PUSH1 0x0 SWAP1 DUP2 MSTORE PUSH1 0x4 PUSH1 0x20 MSTORE PUSH1 0x40 SWAP1 KECCAK256 SLOAD PUSH1 0x1 PUSH1 0x1 PUSH1 0xA0 SHL SUB AND SWAP1 JUMP JUMPDEST PUSH1 0x0 PUSH2 0x9AA DUP3 PUSH2 0xFFD JUMP JUMPDEST SWAP1 POP DUP1 PUSH1 0x1 PUSH1 0x1 PUSH1 0xA0 SHL SUB AND DUP4 PUSH1 0x1 PUSH1 0x1 PUSH1 0xA0 SHL SUB AND EQ ISZERO PUSH2 0xA18 JUMPI PUSH1 0x40 MLOAD PUSH3 0x461BCD PUSH1 0xE5 SHL DUP2 MSTORE PUSH1 0x20 PUSH1 0x4 DUP3 ADD MSTORE PUSH1 0x21 PUSH1 0x24 DUP3 ADD MSTORE PUSH32 0x4552433732313A20617070726F76616C20746F2063757272656E74206F776E65 PUSH1 0x44 DUP3 ADD MSTORE PUSH1 0x39 PUSH1 0xF9 SHL PUSH1 0x64 DUP3 ADD MSTORE PUSH1 0x84 ADD PUSH2 0x97A JUMP JUMPDEST CALLER PUSH1 0x1 PUSH1 0x1 PUSH1 0xA0 SHL SUB DUP3 AND EQ DUP1 PUSH2 0xA34 JUMPI POP PUSH2 0xA34 DUP2 CALLER PUSH2 0x2648 JUMP JUMPDEST PUSH2 0xAA1 JUMPI PUSH1 0x40 MLOAD PUSH3 0x461BCD PUSH1 0xE5 SHL DUP2 MSTORE PUSH1 0x20 PUSH1 0x4 DUP3 ADD MSTORE PUSH1 0x38 PUSH1 0x24 DUP3 ADD MSTORE PUSH32 0x4552433732313A20617070726F76652063616C6C6572206973206E6F74206F77 PUSH1 0x44 DUP3 ADD MSTORE PUSH24 0x1B995C881B9BDC88185C1C1C9BDD995908199BDC88185B1B PUSH1 0x42 SHL PUSH1 0x64 DUP3 ADD MSTORE PUSH1 0x84 ADD PUSH2 0x97A JUMP JUMPDEST PUSH2 0xAAB DUP4 DUP4 PUSH2 0x282C JUMP JUMPDEST POP POP POP JUMP JUMPDEST PUSH2 0xABA CALLER DUP3 PUSH2 0x289A JUMP JUMPDEST PUSH2 0xAD6 JUMPI PUSH1 0x40 MLOAD PUSH3 0x461BCD PUSH1 0xE5 SHL DUP2 MSTORE PUSH1 0x4 ADD PUSH2 0x97A SWAP1 PUSH2 0x5359 JUMP JUMPDEST PUSH2 0xAAB DUP4 DUP4 DUP4 PUSH2 0x2964 JUMP JUMPDEST PUSH1 0x0 SWAP1 DUP2 MSTORE PUSH1 0x8 PUSH1 0x20 MSTORE PUSH1 0x40 SWAP1 KECCAK256 PUSH1 0x1 ADD SLOAD SWAP1 JUMP JUMPDEST PUSH1 0x0 SWAP1 DUP2 MSTORE PUSH1 0xA PUSH1 0x20 MSTORE PUSH1 0x40 SWAP1 KECCAK256 SLOAD SWAP1 JUMP JUMPDEST PUSH2 0xB11 DUP3 PUSH2 0xAE1 JUMP JUMPDEST PUSH2 0xB1B DUP2 CALLER PUSH2 0x2AFD JUMP JUMPDEST PUSH2 0xAAB DUP4 DUP4 PUSH2 0x2B61 JUMP JUMPDEST PUSH1 0x1 PUSH1 0x1 PUSH1 0xA0 SHL SUB DUP2 AND CALLER EQ PUSH2 0xB95 JUMPI PUSH1 0x40 MLOAD PUSH3 0x461BCD PUSH1 0xE5 SHL DUP2 MSTORE PUSH1 0x20 PUSH1 0x4 DUP3 ADD MSTORE PUSH1 0x2F PUSH1 0x24 DUP3 ADD MSTORE PUSH32 0x416363657373436F6E74726F6C3A2063616E206F6E6C792072656E6F756E6365 PUSH1 0x44 DUP3 ADD MSTORE PUSH15 0x103937B632B9903337B91039B2B633 PUSH1 0x89 SHL PUSH1 0x64 DUP3 ADD MSTORE PUSH1 0x84 ADD PUSH2 0x97A JUMP JUMPDEST PUSH2 0xB9F DUP3 DUP3 PUSH2 0x2BE7 JUMP JUMPDEST POP POP JUMP JUMPDEST PUSH2 0xBAC DUP3 PUSH2 0xFFD JUMP JUMPDEST PUSH1 0x1 PUSH1 0x1 PUSH1 0xA0 SHL SUB AND CALLER PUSH1 0x1 PUSH1 0x1 PUSH1 0xA0 SHL SUB AND EQ PUSH2 0xBDC JUMPI PUSH1 0x40 MLOAD PUSH3 0x461BCD PUSH1 0xE5 SHL DUP2 MSTORE PUSH1 0x4 ADD PUSH2 0x97A SWAP1 PUSH2 0x527D JUMP JUMPDEST PUSH2 0xAAB DUP4 DUP4 DUP4 PUSH2 0x2C4E JUMP JUMPDEST PUSH2 0xAAB DUP4 DUP4 DUP4 PUSH1 0x40 MLOAD DUP1 PUSH1 0x20 ADD PUSH1 0x40 MSTORE DUP1 PUSH1 0x0 DUP2 MSTORE POP PUSH2 0x1B52 JUMP JUMPDEST PUSH2 0xC0B DUP2 PUSH2 0xFFD JUMP JUMPDEST PUSH1 0x1 PUSH1 0x1 PUSH1 0xA0 SHL SUB AND CALLER PUSH1 0x1 PUSH1 0x1 PUSH1 0xA0 SHL SUB AND EQ PUSH2 0xC3B JUMPI PUSH1 0x40 MLOAD PUSH3 0x461BCD PUSH1 0xE5 SHL DUP2 MSTORE PUSH1 0x4 ADD PUSH2 0x97A SWAP1 PUSH2 0x527D JUMP JUMPDEST PUSH2 0xC44 DUP2 PUSH2 0x2D13 JUMP JUMPDEST POP JUMP JUMPDEST PUSH2 0xC50 DUP3 PUSH2 0xD69 JUMP JUMPDEST PUSH2 0xC82 JUMPI PUSH1 0x40 MLOAD PUSH3 0x461BCD PUSH1 0xE5 SHL DUP2 MSTORE PUSH1 0x20 PUSH1 0x4 DUP3 ADD MSTORE PUSH1 0x3 PUSH1 0x24 DUP3 ADD MSTORE PUSH3 0x271899 PUSH1 0xE9 SHL PUSH1 0x44 DUP3 ADD MSTORE PUSH1 0x64 ADD PUSH2 0x97A JUMP JUMPDEST PUSH1 0x0 DUP1 PUSH1 0x0 PUSH2 0xC91 DUP7 DUP6 PUSH2 0x2D2B JUMP JUMPDEST POP SWAP3 POP SWAP3 POP SWAP3 POP PUSH1 0x0 PUSH2 0xCA3 DUP7 PUSH2 0x2E58 JUMP JUMPDEST SWAP1 POP PUSH2 0xCDF DUP7 DUP3 DUP5 DUP5 PUSH1 0x60 ADD MLOAD PUSH2 0xCBA SWAP2 SWAP1 PUSH2 0x5451 JUMP JUMPDEST DUP8 DUP6 PUSH1 0x40 ADD MLOAD PUSH2 0xCCA SWAP2 SWAP1 PUSH2 0x5451 JUMP JUMPDEST DUP8 DUP7 PUSH1 0x80 ADD MLOAD PUSH2 0xCDA SWAP2 SWAP1 PUSH2 0x5451 JUMP JUMPDEST PUSH2 0x2F47 JUMP JUMPDEST PUSH1 0x18 SLOAD PUSH1 0x60 DUP3 ADD MLOAD PUSH1 0x80 DUP4 ADD MLOAD PUSH1 0x40 MLOAD PUSH4 0x57A5C967 PUSH1 0xE0 SHL DUP2 MSTORE SWAP4 SWAP5 POP PUSH1 0x1 PUSH1 0x1 PUSH1 0xA0 SHL SUB SWAP1 SWAP3 AND SWAP3 PUSH4 0x57A5C967 SWAP3 PUSH2 0xD1F SWAP3 DUP12 SWAP3 SWAP1 SWAP2 SWAP1 PUSH1 0x4 ADD PUSH2 0x543B JUMP JUMPDEST PUSH1 0x0 PUSH1 0x40 MLOAD DUP1 DUP4 SUB DUP2 PUSH1 0x0 DUP8 DUP1 EXTCODESIZE ISZERO DUP1 ISZERO PUSH2 0xD39 JUMPI PUSH1 0x0 DUP1 REVERT JUMPDEST POP GAS CALL ISZERO DUP1 ISZERO PUSH2 0xD4D JUMPI RETURNDATASIZE PUSH1 0x0 DUP1 RETURNDATACOPY RETURNDATASIZE PUSH1 0x0 REVERT JUMPDEST POP POP POP POP PUSH2 0xD5E DUP10 DUP10 DUP10 DUP10 DUP10 PUSH2 0x2F79 JUMP JUMPDEST POP POP POP POP POP POP POP POP POP JUMP JUMPDEST PUSH1 0x0 PUSH2 0x835 DUP3 PUSH2 0x280F JUMP JUMPDEST PUSH1 0x0 DUP2 DUP2 MSTORE PUSH1 0x14 PUSH1 0x20 MSTORE PUSH1 0x40 SWAP1 KECCAK256 PUSH1 0x5 DUP2 ADD SLOAD TIMESTAMP LT ISZERO PUSH2 0xDA6 JUMPI PUSH1 0x40 MLOAD PUSH3 0x461BCD PUSH1 0xE5 SHL DUP2 MSTORE PUSH1 0x4 ADD PUSH2 0x97A SWAP1 PUSH2 0x53AA JUMP JUMPDEST PUSH1 0x1 DUP2 SLOAD PUSH1 0xFF AND PUSH1 0x3 DUP2 GT ISZERO PUSH2 0xDCC JUMPI PUSH4 0x4E487B71 PUSH1 0xE0 SHL PUSH1 0x0 MSTORE PUSH1 0x21 PUSH1 0x4 MSTORE PUSH1 0x24 PUSH1 0x0 REVERT JUMPDEST EQ PUSH2 0xDFE JUMPI PUSH1 0x40 MLOAD PUSH3 0x461BCD PUSH1 0xE5 SHL DUP2 MSTORE PUSH1 0x20 PUSH1 0x4 DUP3 ADD MSTORE PUSH1 0x2 PUSH1 0x24 DUP3 ADD MSTORE PUSH2 0x4F35 PUSH1 0xF0 SHL PUSH1 0x44 DUP3 ADD MSTORE PUSH1 0x64 ADD PUSH2 0x97A JUMP JUMPDEST PUSH1 0x5 DUP2 ADD SLOAD PUSH1 0x0 SWAP1 DUP2 MSTORE PUSH1 0x16 PUSH1 0x20 MSTORE PUSH1 0x40 SWAP1 KECCAK256 SLOAD DUP1 PUSH2 0xE2F JUMPI PUSH1 0x40 MLOAD PUSH3 0x461BCD PUSH1 0xE5 SHL DUP2 MSTORE PUSH1 0x4 ADD PUSH2 0x97A SWAP1 PUSH2 0x52EB JUMP JUMPDEST PUSH1 0x12 SLOAD PUSH1 0x40 MLOAD PUSH4 0x3906D29 PUSH1 0xE1 SHL DUP2 MSTORE PUSH1 0x4 DUP2 ADD DUP4 SWAP1 MSTORE PUSH1 0x0 SWAP2 PUSH1 0x1 PUSH1 0x1 PUSH1 0xA0 SHL SUB AND SWAP1 PUSH4 0x720DA52 SWAP1 PUSH1 0x24 ADD PUSH1 0xA0 PUSH1 0x40 MLOAD DUP1 DUP4 SUB DUP2 DUP7 DUP1 EXTCODESIZE ISZERO DUP1 ISZERO PUSH2 0xE74 JUMPI PUSH1 0x0 DUP1 REVERT JUMPDEST POP GAS STATICCALL ISZERO DUP1 ISZERO PUSH2 0xE88 JUMPI RETURNDATASIZE PUSH1 0x0 DUP1 RETURNDATACOPY RETURNDATASIZE PUSH1 0x0 REVERT JUMPDEST POP POP POP POP PUSH1 0x40 MLOAD RETURNDATASIZE PUSH1 0x1F NOT PUSH1 0x1F DUP3 ADD AND DUP3 ADD DUP1 PUSH1 0x40 MSTORE POP DUP2 ADD SWAP1 PUSH2 0xEAC SWAP2 SWAP1 PUSH2 0x5047 JUMP JUMPDEST POP SWAP2 SWAP4 POP PUSH1 0x2 SWAP3 POP PUSH2 0xEBC SWAP2 POP POP JUMP JUMPDEST PUSH1 0x6 DUP5 ADD SLOAD PUSH1 0xFF AND PUSH1 0x2 DUP2 GT ISZERO PUSH2 0xEE3 JUMPI PUSH4 0x4E487B71 PUSH1 0xE0 SHL PUSH1 0x0 MSTORE PUSH1 0x21 PUSH1 0x4 MSTORE PUSH1 0x24 PUSH1 0x0 REVERT JUMPDEST EQ DUP1 ISZERO PUSH2 0xEF3 JUMPI POP DUP3 PUSH1 0x1 ADD SLOAD DUP2 GT JUMPDEST DUP1 PUSH2 0xF32 JUMPI POP PUSH1 0x1 PUSH1 0x6 DUP5 ADD SLOAD PUSH1 0xFF AND PUSH1 0x2 DUP2 GT ISZERO PUSH2 0xF22 JUMPI PUSH4 0x4E487B71 PUSH1 0xE0 SHL PUSH1 0x0 MSTORE PUSH1 0x21 PUSH1 0x4 MSTORE PUSH1 0x24 PUSH1 0x0 REVERT JUMPDEST EQ DUP1 ISZERO PUSH2 0xF32 JUMPI POP DUP3 PUSH1 0x1 ADD SLOAD DUP2 LT JUMPDEST ISZERO PUSH2 0xF46 JUMPI PUSH2 0xF40 DUP5 PUSH2 0x184D JUMP JUMPDEST POP PUSH2 0xFF7 JUMP JUMPDEST DUP3 SLOAD PUSH1 0xFF NOT AND PUSH1 0x3 OR DUP4 SSTORE PUSH1 0x18 SLOAD PUSH1 0x40 MLOAD PUSH4 0x6198E339 PUSH1 0xE0 SHL DUP2 MSTORE PUSH1 0x4 DUP2 ADD DUP7 SWAP1 MSTORE PUSH1 0x1 PUSH1 0x1 PUSH1 0xA0 SHL SUB SWAP1 SWAP2 AND SWAP1 PUSH4 0x6198E339 SWAP1 PUSH1 0x24 ADD PUSH1 0x0 PUSH1 0x40 MLOAD DUP1 DUP4 SUB DUP2 PUSH1 0x0 DUP8 DUP1 EXTCODESIZE ISZERO DUP1 ISZERO PUSH2 0xF97 JUMPI PUSH1 0x0 DUP1 REVERT JUMPDEST POP GAS CALL ISZERO DUP1 ISZERO PUSH2 0xFAB JUMPI RETURNDATASIZE PUSH1 0x0 DUP1 RETURNDATACOPY RETURNDATASIZE PUSH1 0x0 REVERT JUMPDEST POP POP POP POP PUSH2 0xFB8 DUP5 PUSH2 0x2D13 JUMP JUMPDEST DUP4 PUSH32 0x5F36A4A575E512EB69D6D28C3B0FF98CCA7BA50AD5BF04E14094AD1D425E0D31 DUP5 PUSH1 0x4 ADD SLOAD PUSH1 0x40 MLOAD PUSH2 0xFEE SWAP2 DUP2 MSTORE PUSH1 0x20 ADD SWAP1 JUMP JUMPDEST PUSH1 0x40 MLOAD DUP1 SWAP2 SUB SWAP1 LOG2 JUMPDEST POP POP POP POP JUMP JUMPDEST PUSH1 0x0 DUP2 DUP2 MSTORE PUSH1 0x2 PUSH1 0x20 MSTORE PUSH1 0x40 DUP2 KECCAK256 SLOAD PUSH1 0x1 PUSH1 0x1 PUSH1 0xA0 SHL SUB AND DUP1 PUSH2 0x835 JUMPI PUSH1 0x40 MLOAD PUSH3 0x461BCD PUSH1 0xE5 SHL DUP2 MSTORE PUSH1 0x20 PUSH1 0x4 DUP3 ADD MSTORE PUSH1 0x29 PUSH1 0x24 DUP3 ADD MSTORE PUSH32 0x4552433732313A206F776E657220717565727920666F72206E6F6E6578697374 PUSH1 0x44 DUP3 ADD MSTORE PUSH9 0x32B73A103A37B5B2B7 PUSH1 0xB9 SHL PUSH1 0x64 DUP3 ADD MSTORE PUSH1 0x84 ADD PUSH2 0x97A JUMP JUMPDEST PUSH1 0x10 SLOAD PUSH1 0x18 SLOAD PUSH1 0x40 MLOAD PUSH4 0x95EA7B3 PUSH1 0xE0 SHL DUP2 MSTORE PUSH1 0x1 PUSH1 0x1 PUSH1 0xA0 SHL SUB SWAP3 DUP4 AND SWAP3 PUSH4 0x95EA7B3 SWAP3 PUSH2 0x10AC SWAP3 SWAP2 AND SWAP1 PUSH1 0x0 NOT SWAP1 PUSH1 0x4 ADD PUSH2 0x51B1 JUMP JUMPDEST PUSH1 0x20 PUSH1 0x40 MLOAD DUP1 DUP4 SUB DUP2 PUSH1 0x0 DUP8 DUP1 EXTCODESIZE ISZERO DUP1 ISZERO PUSH2 0x10C6 JUMPI PUSH1 0x0 DUP1 REVERT JUMPDEST POP GAS CALL ISZERO DUP1 ISZERO PUSH2 0x10DA JUMPI RETURNDATASIZE PUSH1 0x0 DUP1 RETURNDATACOPY RETURNDATASIZE PUSH1 0x0 REVERT JUMPDEST POP POP POP POP PUSH1 0x40 MLOAD RETURNDATASIZE PUSH1 0x1F NOT PUSH1 0x1F DUP3 ADD AND DUP3 ADD DUP1 PUSH1 0x40 MSTORE POP DUP2 ADD SWAP1 PUSH2 0xC44 SWAP2 SWAP1 PUSH2 0x4E3E JUMP JUMPDEST PUSH1 0x0 DUP1 PUSH1 0x0 DUP1 PUSH1 0x12 PUSH1 0x0 SWAP1 SLOAD SWAP1 PUSH2 0x100 EXP SWAP1 DIV PUSH1 0x1 PUSH1 0x1 PUSH1 0xA0 SHL SUB AND PUSH1 0x1 PUSH1 0x1 PUSH1 0xA0 SHL SUB AND PUSH4 0x1ACF5582 PUSH1 0x40 MLOAD DUP2 PUSH4 0xFFFFFFFF AND PUSH1 0xE0 SHL DUP2 MSTORE PUSH1 0x4 ADD PUSH1 0x20 PUSH1 0x40 MLOAD DUP1 DUP4 SUB DUP2 DUP7 DUP1 EXTCODESIZE ISZERO DUP1 ISZERO PUSH2 0x1152 JUMPI PUSH1 0x0 DUP1 REVERT JUMPDEST POP GAS STATICCALL ISZERO DUP1 ISZERO PUSH2 0x1166 JUMPI RETURNDATASIZE PUSH1 0x0 DUP1 RETURNDATACOPY RETURNDATASIZE PUSH1 0x0 REVERT JUMPDEST POP POP POP POP PUSH1 0x40 MLOAD RETURNDATASIZE PUSH1 0x1F NOT PUSH1 0x1F DUP3 ADD AND DUP3 ADD DUP1 PUSH1 0x40 MSTORE POP DUP2 ADD SWAP1 PUSH2 0x118A SWAP2 SWAP1 PUSH2 0x4ECE JUMP JUMPDEST PUSH1 0x19 SLOAD PUSH1 0x18 SLOAD PUSH1 0x40 MLOAD PUSH4 0xE39D06E9 PUSH1 0xE0 SHL DUP2 MSTORE PUSH1 0x4 DUP2 ADD DUP14 SWAP1 MSTORE PUSH1 0x24 DUP2 ADD DUP13 SWAP1 MSTORE PUSH1 0x44 DUP2 ADD DUP12 SWAP1 MSTORE DUP10 ISZERO ISZERO PUSH1 0x64 DUP3 ADD MSTORE DUP9 ISZERO ISZERO PUSH1 0x84 DUP3 ADD MSTORE PUSH1 0xA4 DUP2 ADD DUP5 SWAP1 MSTORE PUSH1 0x1 PUSH1 0x1 PUSH1 0xA0 SHL SUB SWAP3 DUP4 AND PUSH1 0xC4 DUP3 ADD MSTORE SWAP2 AND PUSH1 0xE4 DUP3 ADD MSTORE SWAP1 SWAP2 POP PUSH20 0x0 SWAP1 PUSH4 0xE39D06E9 SWAP1 PUSH2 0x104 ADD PUSH1 0x20 PUSH1 0x40 MLOAD DUP1 DUP4 SUB DUP2 DUP7 DUP1 EXTCODESIZE ISZERO DUP1 ISZERO PUSH2 0x121B JUMPI PUSH1 0x0 DUP1 REVERT JUMPDEST POP GAS DELEGATECALL ISZERO DUP1 ISZERO PUSH2 0x122F JUMPI RETURNDATASIZE PUSH1 0x0 DUP1 RETURNDATACOPY RETURNDATASIZE PUSH1 0x0 REVERT JUMPDEST POP POP POP POP PUSH1 0x40 MLOAD RETURNDATASIZE PUSH1 0x1F NOT PUSH1 0x1F DUP3 ADD AND DUP3 ADD DUP1 PUSH1 0x40 MSTORE POP DUP2 ADD SWAP1 PUSH2 0x1253 SWAP2 SWAP1 PUSH2 0x4ECE JUMP JUMPDEST SWAP2 POP PUSH2 0x125E DUP9 PUSH2 0x31BF JUMP JUMPDEST SWAP3 POP PUSH2 0x126A DUP3 DUP5 PUSH2 0x5451 JUMP JUMPDEST SWAP4 POP POP SWAP6 POP SWAP6 POP SWAP6 SWAP3 POP POP POP JUMP JUMPDEST PUSH1 0x60 DUP2 PUSH2 0x12AC JUMPI PUSH1 0x40 MLOAD PUSH3 0x461BCD PUSH1 0xE5 SHL DUP2 MSTORE PUSH1 0x20 PUSH1 0x4 DUP3 ADD MSTORE PUSH1 0x2 PUSH1 0x24 DUP3 ADD MSTORE PUSH2 0x4E31 PUSH1 0xF0 SHL PUSH1 0x44 DUP3 ADD MSTORE PUSH1 0x64 ADD PUSH2 0x97A JUMP JUMPDEST DUP2 PUSH1 0x1 PUSH1 0x1 PUSH1 0x40 SHL SUB DUP2 GT ISZERO PUSH2 0x12D2 JUMPI PUSH4 0x4E487B71 PUSH1 0xE0 SHL PUSH1 0x0 MSTORE PUSH1 0x41 PUSH1 0x4 MSTORE PUSH1 0x24 PUSH1 0x0 REVERT JUMPDEST PUSH1 0x40 MLOAD SWAP1 DUP1 DUP3 MSTORE DUP1 PUSH1 0x20 MUL PUSH1 0x20 ADD DUP3 ADD PUSH1 0x40 MSTORE DUP1 ISZERO PUSH2 0x12FB JUMPI DUP2 PUSH1 0x20 ADD PUSH1 0x20 DUP3 MUL DUP1 CALLDATASIZE DUP4 CALLDATACOPY ADD SWAP1 POP JUMPDEST POP SWAP1 POP PUSH1 0x0 PUSH2 0x1309 DUP6 PUSH2 0x2E58 JUMP JUMPDEST SWAP1 POP PUSH1 0x0 PUSH2 0x1316 DUP7 PUSH2 0x1D94 JUMP JUMPDEST SWAP1 POP PUSH1 0x0 DUP1 DUP1 DUP1 JUMPDEST DUP8 DUP2 LT ISZERO PUSH2 0x1529 JUMPI PUSH1 0x0 PUSH2 0x1330 PUSH2 0x325D JUMP JUMPDEST SWAP1 POP DUP1 DUP9 DUP4 DUP2 MLOAD DUP2 LT PUSH2 0x1353 JUMPI PUSH4 0x4E487B71 PUSH1 0xE0 SHL PUSH1 0x0 MSTORE PUSH1 0x32 PUSH1 0x4 MSTORE PUSH1 0x24 PUSH1 0x0 REVERT JUMPDEST PUSH1 0x20 MUL PUSH1 0x20 ADD ADD DUP2 DUP2 MSTORE POP POP PUSH2 0x1390 DUP12 DUP3 DUP13 DUP13 DUP7 DUP2 DUP2 LT PUSH2 0x1384 JUMPI PUSH4 0x4E487B71 PUSH1 0xE0 SHL PUSH1 0x0 MSTORE PUSH1 0x32 PUSH1 0x4 MSTORE PUSH1 0x24 PUSH1 0x0 REVERT JUMPDEST SWAP1 POP PUSH1 0x20 MUL ADD CALLDATALOAD PUSH2 0x3277 JUMP JUMPDEST PUSH1 0x0 DUP7 DUP12 DUP12 DUP6 DUP2 DUP2 LT PUSH2 0x13B3 JUMPI PUSH4 0x4E487B71 PUSH1 0xE0 SHL PUSH1 0x0 MSTORE PUSH1 0x32 PUSH1 0x4 MSTORE PUSH1 0x24 PUSH1 0x0 REVERT JUMPDEST SWAP1 POP PUSH1 0x20 MUL ADD CALLDATALOAD DUP10 PUSH1 0x40 ADD MLOAD PUSH2 0x13C9 SWAP2 SWAP1 PUSH2 0x547D JUMP JUMPDEST PUSH2 0x13D3 SWAP2 SWAP1 PUSH2 0x5469 JUMP JUMPDEST SWAP1 POP PUSH2 0x13DF DUP2 DUP8 PUSH2 0x5451 JUMP JUMPDEST SWAP6 POP PUSH1 0x0 DUP8 DUP13 DUP13 DUP7 DUP2 DUP2 LT PUSH2 0x1404 JUMPI PUSH4 0x4E487B71 PUSH1 0xE0 SHL PUSH1 0x0 MSTORE PUSH1 0x32 PUSH1 0x4 MSTORE PUSH1 0x24 PUSH1 0x0 REVERT JUMPDEST SWAP1 POP PUSH1 0x20 MUL ADD CALLDATALOAD DUP11 PUSH1 0x60 ADD MLOAD PUSH2 0x141A SWAP2 SWAP1 PUSH2 0x547D JUMP JUMPDEST PUSH2 0x1424 SWAP2 SWAP1 PUSH2 0x5469 JUMP JUMPDEST SWAP1 POP PUSH2 0x1430 DUP2 DUP8 PUSH2 0x5451 JUMP JUMPDEST SWAP6 POP PUSH1 0x0 DUP9 DUP14 DUP14 DUP8 DUP2 DUP2 LT PUSH2 0x1455 JUMPI PUSH4 0x4E487B71 PUSH1 0xE0 SHL PUSH1 0x0 MSTORE PUSH1 0x32 PUSH1 0x4 MSTORE PUSH1 0x24 PUSH1 0x0 REVERT JUMPDEST SWAP1 POP PUSH1 0x20 MUL ADD CALLDATALOAD DUP12 PUSH1 0x80 ADD MLOAD PUSH2 0x146B SWAP2 SWAP1 PUSH2 0x547D JUMP JUMPDEST PUSH2 0x1475 SWAP2 SWAP1 PUSH2 0x5469 JUMP JUMPDEST SWAP1 POP PUSH2 0x1481 DUP2 DUP8 PUSH2 0x5451 JUMP JUMPDEST SWAP6 POP PUSH1 0x0 PUSH1 0x40 MLOAD DUP1 PUSH1 0xE0 ADD PUSH1 0x40 MSTORE DUP1 DUP13 PUSH1 0x0 ADD MLOAD PUSH1 0x3 DUP2 GT ISZERO PUSH2 0x14B4 JUMPI PUSH4 0x4E487B71 PUSH1 0xE0 SHL PUSH1 0x0 MSTORE PUSH1 0x21 PUSH1 0x4 MSTORE PUSH1 0x24 PUSH1 0x0 REVERT JUMPDEST DUP2 MSTORE PUSH1 0x20 ADD DUP13 PUSH1 0x20 ADD MLOAD DUP2 MSTORE PUSH1 0x20 ADD DUP6 DUP2 MSTORE PUSH1 0x20 ADD DUP5 DUP2 MSTORE PUSH1 0x20 ADD DUP4 DUP2 MSTORE PUSH1 0x20 ADD DUP13 PUSH1 0xA0 ADD MLOAD DUP2 MSTORE PUSH1 0x20 ADD DUP13 PUSH1 0xC0 ADD MLOAD PUSH1 0x2 DUP2 GT ISZERO PUSH2 0x1503 JUMPI PUSH4 0x4E487B71 PUSH1 0xE0 SHL PUSH1 0x0 MSTORE PUSH1 0x21 PUSH1 0x4 MSTORE PUSH1 0x24 PUSH1 0x0 REVERT JUMPDEST SWAP1 MSTORE SWAP1 POP PUSH2 0x1511 DUP6 DUP3 PUSH2 0x33A1 JUMP JUMPDEST POP POP POP POP POP DUP1 DUP1 PUSH2 0x1521 SWAP1 PUSH2 0x552B JUMP JUMPDEST SWAP2 POP POP PUSH2 0x131E JUMP JUMPDEST POP PUSH2 0x155F DUP10 DUP7 DUP5 DUP9 PUSH1 0x60 ADD MLOAD PUSH2 0x153F SWAP2 SWAP1 PUSH2 0x549C JUMP JUMPDEST DUP7 DUP10 PUSH1 0x40 ADD MLOAD PUSH2 0x154F SWAP2 SWAP1 PUSH2 0x549C JUMP JUMPDEST DUP6 DUP11 PUSH1 0x80 ADD MLOAD PUSH2 0xCDA SWAP2 SWAP1 PUSH2 0x549C JUMP JUMPDEST PUSH1 0x18 SLOAD PUSH1 0x60 DUP3 ADD MLOAD PUSH1 0x80 DUP4 ADD MLOAD PUSH1 0x40 MLOAD PUSH4 0x57A5C967 PUSH1 0xE0 SHL DUP2 MSTORE SWAP4 SWAP9 POP PUSH1 0x1 PUSH1 0x1 PUSH1 0xA0 SHL SUB SWAP1 SWAP3 AND SWAP3 PUSH4 0x57A5C967 SWAP3 PUSH2 0x159F SWAP3 DUP15 SWAP3 SWAP1 SWAP2 SWAP1 PUSH1 0x4 ADD PUSH2 0x543B JUMP JUMPDEST PUSH1 0x0 PUSH1 0x40 MLOAD DUP1 DUP4 SUB DUP2 PUSH1 0x0 DUP8 DUP1 EXTCODESIZE ISZERO DUP1 ISZERO PUSH2 0x15B9 JUMPI PUSH1 0x0 DUP1 REVERT JUMPDEST POP GAS CALL ISZERO DUP1 ISZERO PUSH2 0x15CD JUMPI RETURNDATASIZE PUSH1 0x0 DUP1 RETURNDATACOPY RETURNDATASIZE PUSH1 0x0 REVERT JUMPDEST POP POP POP POP PUSH1 0x0 JUMPDEST DUP8 DUP2 LT ISZERO PUSH2 0x165D JUMPI PUSH1 0x0 PUSH2 0x160E DUP9 DUP4 DUP2 MLOAD DUP2 LT PUSH2 0x1601 JUMPI PUSH4 0x4E487B71 PUSH1 0xE0 SHL PUSH1 0x0 MSTORE PUSH1 0x32 PUSH1 0x4 MSTORE PUSH1 0x24 PUSH1 0x0 REVERT JUMPDEST PUSH1 0x20 MUL PUSH1 0x20 ADD ADD MLOAD PUSH2 0x2E58 JUMP JUMPDEST SWAP1 POP PUSH2 0x164A DUP9 DUP4 DUP2 MLOAD DUP2 LT PUSH2 0x1633 JUMPI PUSH4 0x4E487B71 PUSH1 0xE0 SHL PUSH1 0x0 MSTORE PUSH1 0x32 PUSH1 0x4 MSTORE PUSH1 0x24 PUSH1 0x0 REVERT JUMPDEST PUSH1 0x20 MUL PUSH1 0x20 ADD ADD MLOAD DUP3 PUSH1 0x60 ADD MLOAD DUP4 PUSH1 0x80 ADD MLOAD PUSH2 0x3459 JUMP JUMPDEST POP DUP1 PUSH2 0x1655 DUP2 PUSH2 0x552B JUMP JUMPDEST SWAP2 POP POP PUSH2 0x15D4 JUMP JUMPDEST POP POP POP POP POP POP SWAP4 SWAP3 POP POP POP JUMP JUMPDEST PUSH1 0x0 PUSH1 0x1 PUSH1 0x1 PUSH1 0xA0 SHL SUB DUP3 AND PUSH2 0x16D5 JUMPI PUSH1 0x40 MLOAD PUSH3 0x461BCD PUSH1 0xE5 SHL DUP2 MSTORE PUSH1 0x20 PUSH1 0x4 DUP3 ADD MSTORE PUSH1 0x2A PUSH1 0x24 DUP3 ADD MSTORE PUSH32 0x4552433732313A2062616C616E636520717565727920666F7220746865207A65 PUSH1 0x44 DUP3 ADD MSTORE PUSH10 0x726F2061646472657373 PUSH1 0xB0 SHL PUSH1 0x64 DUP3 ADD MSTORE PUSH1 0x84 ADD PUSH2 0x97A JUMP JUMPDEST POP PUSH1 0x1 PUSH1 0x1 PUSH1 0xA0 SHL SUB AND PUSH1 0x0 SWAP1 DUP2 MSTORE PUSH1 0x3 PUSH1 0x20 MSTORE PUSH1 0x40 SWAP1 KECCAK256 SLOAD SWAP1 JUMP JUMPDEST CALLER PUSH2 0x16FA PUSH2 0x172C JUMP JUMPDEST PUSH1 0x1 PUSH1 0x1 PUSH1 0xA0 SHL SUB AND EQ PUSH2 0x1720 JUMPI PUSH1 0x40 MLOAD PUSH3 0x461BCD PUSH1 0xE5 SHL DUP2 MSTORE PUSH1 0x4 ADD PUSH2 0x97A SWAP1 PUSH2 0x5324 JUMP JUMPDEST PUSH2 0x172A PUSH1 0x0 PUSH2 0x34C4 JUMP JUMPDEST JUMP JUMPDEST PUSH1 0x6 SLOAD PUSH1 0x1 PUSH1 0x1 PUSH1 0xA0 SHL SUB AND SWAP1 JUMP JUMPDEST PUSH1 0x0 SWAP2 DUP3 MSTORE PUSH1 0x8 PUSH1 0x20 SWAP1 DUP2 MSTORE PUSH1 0x40 DUP1 DUP5 KECCAK256 PUSH1 0x1 PUSH1 0x1 PUSH1 0xA0 SHL SUB SWAP4 SWAP1 SWAP4 AND DUP5 MSTORE SWAP2 SWAP1 MSTORE SWAP1 KECCAK256 SLOAD PUSH1 0xFF AND SWAP1 JUMP JUMPDEST PUSH1 0x60 PUSH1 0x1 DUP1 SLOAD PUSH2 0x84A SWAP1 PUSH2 0x54F6 JUMP JUMPDEST PUSH1 0x1 PUSH1 0x1 PUSH1 0xA0 SHL SUB DUP3 AND CALLER EQ ISZERO PUSH2 0x17CA JUMPI PUSH1 0x40 MLOAD PUSH3 0x461BCD PUSH1 0xE5 SHL DUP2 MSTORE PUSH1 0x20 PUSH1 0x4 DUP3 ADD MSTORE PUSH1 0x19 PUSH1 0x24 DUP3 ADD MSTORE PUSH25 0x22A9219B99189D1030B8383937BB32903A379031B0B63632B9 PUSH1 0x39 SHL PUSH1 0x44 DUP3 ADD MSTORE PUSH1 0x64 ADD PUSH2 0x97A JUMP JUMPDEST CALLER PUSH1 0x0 DUP2 DUP2 MSTORE PUSH1 0x5 PUSH1 0x20 SWAP1 DUP2 MSTORE PUSH1 0x40 DUP1 DUP4 KECCAK256 PUSH1 0x1 PUSH1 0x1 PUSH1 0xA0 SHL SUB DUP8 AND DUP1 DUP6 MSTORE SWAP1 DUP4 MSTORE SWAP3 DUP2 SWAP1 KECCAK256 DUP1 SLOAD PUSH1 0xFF NOT AND DUP7 ISZERO ISZERO SWAP1 DUP2 OR SWAP1 SWAP2 SSTORE SWAP1 MLOAD SWAP1 DUP2 MSTORE SWAP2 SWAP3 SWAP2 PUSH32 0x17307EAB39AB6107E8899845AD3D59BD9653F200F220920489CA2B5937696C31 SWAP2 ADD PUSH1 0x40 MLOAD DUP1 SWAP2 SUB SWAP1 LOG3 POP POP JUMP JUMPDEST PUSH1 0x0 DUP2 DUP2 MSTORE PUSH1 0xC PUSH1 0x20 MSTORE PUSH1 0x40 DUP2 KECCAK256 PUSH2 0x835 SWAP1 PUSH2 0x3516 JUMP JUMPDEST PUSH1 0x0 PUSH2 0x1858 DUP3 PUSH2 0xD69 JUMP JUMPDEST PUSH2 0x188A JUMPI PUSH1 0x40 MLOAD PUSH3 0x461BCD PUSH1 0xE5 SHL DUP2 MSTORE PUSH1 0x20 PUSH1 0x4 DUP3 ADD MSTORE PUSH1 0x3 PUSH1 0x24 DUP3 ADD MSTORE PUSH3 0x4F313 PUSH1 0xEC SHL PUSH1 0x44 DUP3 ADD MSTORE PUSH1 0x64 ADD PUSH2 0x97A JUMP JUMPDEST PUSH1 0x0 DUP3 DUP2 MSTORE PUSH1 0x14 PUSH1 0x20 MSTORE PUSH1 0x40 SWAP1 KECCAK256 PUSH1 0x5 DUP2 ADD SLOAD TIMESTAMP LT ISZERO PUSH2 0x18BC JUMPI PUSH1 0x40 MLOAD PUSH3 0x461BCD PUSH1 0xE5 SHL DUP2 MSTORE PUSH1 0x4 ADD PUSH2 0x97A SWAP1 PUSH2 0x53AA JUMP JUMPDEST PUSH1 0x1 DUP2 SLOAD PUSH1 0xFF AND PUSH1 0x3 DUP2 GT ISZERO PUSH2 0x18E2 JUMPI PUSH4 0x4E487B71 PUSH1 0xE0 SHL PUSH1 0x0 MSTORE PUSH1 0x21 PUSH1 0x4 MSTORE PUSH1 0x24 PUSH1 0x0 REVERT JUMPDEST EQ PUSH2 0x1915 JUMPI PUSH1 0x40 MLOAD PUSH3 0x461BCD PUSH1 0xE5 SHL DUP2 MSTORE PUSH1 0x20 PUSH1 0x4 DUP3 ADD MSTORE PUSH1 0x3 PUSH1 0x24 DUP3 ADD MSTORE PUSH3 0x13CC4D PUSH1 0xEA SHL PUSH1 0x44 DUP3 ADD MSTORE PUSH1 0x64 ADD PUSH2 0x97A JUMP JUMPDEST PUSH1 0x5 DUP2 ADD SLOAD PUSH1 0x0 SWAP1 DUP2 MSTORE PUSH1 0x16 PUSH1 0x20 MSTORE PUSH1 0x40 SWAP1 KECCAK256 SLOAD DUP1 PUSH2 0x1946 JUMPI PUSH1 0x40 MLOAD PUSH3 0x461BCD PUSH1 0xE5 SHL DUP2 MSTORE PUSH1 0x4 ADD PUSH2 0x97A SWAP1 PUSH2 0x52EB JUMP JUMPDEST PUSH1 0x12 SLOAD PUSH1 0x40 MLOAD PUSH4 0x3906D29 PUSH1 0xE1 SHL DUP2 MSTORE PUSH1 0x4 DUP2 ADD DUP4 SWAP1 MSTORE PUSH1 0x0 SWAP2 PUSH1 0x1 PUSH1 0x1 PUSH1 0xA0 SHL SUB AND SWAP1 PUSH4 0x720DA52 SWAP1 PUSH1 0x24 ADD PUSH1 0xA0 PUSH1 0x40 MLOAD DUP1 DUP4 SUB DUP2 DUP7 DUP1 EXTCODESIZE ISZERO DUP1 ISZERO PUSH2 0x198B JUMPI PUSH1 0x0 DUP1 REVERT JUMPDEST POP GAS STATICCALL ISZERO DUP1 ISZERO PUSH2 0x199F JUMPI RETURNDATASIZE PUSH1 0x0 DUP1 RETURNDATACOPY RETURNDATASIZE PUSH1 0x0 REVERT JUMPDEST POP POP POP POP PUSH1 0x40 MLOAD RETURNDATASIZE PUSH1 0x1F NOT PUSH1 0x1F DUP3 ADD AND DUP3 ADD DUP1 PUSH1 0x40 MSTORE POP DUP2 ADD SWAP1 PUSH2 0x19C3 SWAP2 SWAP1 PUSH2 0x5047 JUMP JUMPDEST POP SWAP2 SWAP4 POP PUSH1 0x2 SWAP3 POP PUSH2 0x19D3 SWAP2 POP POP JUMP JUMPDEST PUSH1 0x6 DUP5 ADD SLOAD PUSH1 0xFF AND PUSH1 0x2 DUP2 GT ISZERO PUSH2 0x19FA JUMPI PUSH4 0x4E487B71 PUSH1 0xE0 SHL PUSH1 0x0 MSTORE PUSH1 0x21 PUSH1 0x4 MSTORE PUSH1 0x24 PUSH1 0x0 REVERT JUMPDEST EQ ISZERO PUSH2 0x1A3F JUMPI DUP1 DUP4 PUSH1 0x1 ADD SLOAD GT ISZERO PUSH2 0x1A3A JUMPI PUSH1 0x40 MLOAD PUSH3 0x461BCD PUSH1 0xE5 SHL DUP2 MSTORE PUSH1 0x20 PUSH1 0x4 DUP3 ADD MSTORE PUSH1 0x3 PUSH1 0x24 DUP3 ADD MSTORE PUSH3 0x4F3137 PUSH1 0xE8 SHL PUSH1 0x44 DUP3 ADD MSTORE PUSH1 0x64 ADD PUSH2 0x97A JUMP JUMPDEST PUSH2 0x1A79 JUMP JUMPDEST DUP1 DUP4 PUSH1 0x1 ADD SLOAD LT ISZERO PUSH2 0x1A79 JUMPI PUSH1 0x40 MLOAD PUSH3 0x461BCD PUSH1 0xE5 SHL DUP2 MSTORE PUSH1 0x20 PUSH1 0x4 DUP3 ADD MSTORE PUSH1 0x3 PUSH1 0x24 DUP3 ADD MSTORE PUSH3 0x9E627 PUSH1 0xEB SHL PUSH1 0x44 DUP3 ADD MSTORE PUSH1 0x64 ADD PUSH2 0x97A JUMP JUMPDEST PUSH1 0x3 DUP4 ADD SLOAD PUSH1 0x18 SLOAD SWAP1 SWAP5 POP PUSH1 0x1 PUSH1 0x1 PUSH1 0xA0 SHL SUB AND PUSH4 0x81B34F15 DUP7 PUSH2 0x1A9C DUP2 PUSH2 0xFFD JUMP JUMPDEST PUSH1 0x40 MLOAD PUSH1 0x1 PUSH1 0x1 PUSH1 0xE0 SHL SUB NOT PUSH1 0xE0 DUP6 SWAP1 SHL AND DUP2 MSTORE PUSH1 0x4 DUP2 ADD SWAP3 SWAP1 SWAP3 MSTORE PUSH1 0x1 PUSH1 0x1 PUSH1 0xA0 SHL SUB AND PUSH1 0x24 DUP3 ADD MSTORE PUSH1 0x44 DUP2 ADD DUP8 SWAP1 MSTORE PUSH1 0x64 ADD PUSH1 0x0 PUSH1 0x40 MLOAD DUP1 DUP4 SUB DUP2 PUSH1 0x0 DUP8 DUP1 EXTCODESIZE ISZERO DUP1 ISZERO PUSH2 0x1AEA JUMPI PUSH1 0x0 DUP1 REVERT JUMPDEST POP GAS CALL ISZERO DUP1 ISZERO PUSH2 0x1AFE JUMPI RETURNDATASIZE PUSH1 0x0 DUP1 RETURNDATACOPY RETURNDATASIZE PUSH1 0x0 REVERT JUMPDEST POP POP POP POP PUSH2 0x1B0B DUP6 PUSH2 0x2D13 JUMP JUMPDEST DUP3 SLOAD PUSH1 0xFF NOT AND PUSH1 0x2 OR DUP4 SSTORE PUSH1 0x40 MLOAD DUP5 DUP2 MSTORE DUP6 SWAP1 PUSH31 0x84FE51C7CB34B132B7B6EB5D5A87A489F8D6D284758D00A0402C1BAD9A0DEF SWAP1 PUSH1 0x20 ADD PUSH1 0x40 MLOAD DUP1 SWAP2 SUB SWAP1 LOG2 POP POP POP SWAP2 SWAP1 POP JUMP JUMPDEST PUSH2 0x1B5D CALLER JUMPDEST DUP4 PUSH2 0x289A JUMP JUMPDEST PUSH2 0x1B79 JUMPI PUSH1 0x40 MLOAD PUSH3 0x461BCD PUSH1 0xE5 SHL DUP2 MSTORE PUSH1 0x4 ADD PUSH2 0x97A SWAP1 PUSH2 0x5359 JUMP JUMPDEST PUSH2 0xFF7 DUP5 DUP5 DUP5 DUP5 PUSH2 0x3520 JUMP JUMPDEST DUP2 PUSH2 0x1BB7 JUMPI PUSH1 0x40 MLOAD PUSH3 0x461BCD PUSH1 0xE5 SHL DUP2 MSTORE PUSH1 0x20 PUSH1 0x4 DUP3 ADD MSTORE PUSH1 0x2 PUSH1 0x24 DUP3 ADD MSTORE PUSH2 0x138D PUSH1 0xF2 SHL PUSH1 0x44 DUP3 ADD MSTORE PUSH1 0x64 ADD PUSH2 0x97A JUMP JUMPDEST PUSH1 0x0 PUSH2 0x1BC2 DUP3 PUSH2 0x2E58 JUMP JUMPDEST PUSH1 0x60 DUP2 ADD MLOAD PUSH1 0x40 DUP3 ADD MLOAD PUSH1 0x80 DUP4 ADD MLOAD SWAP3 SWAP4 POP SWAP1 SWAP2 PUSH1 0x0 JUMPDEST DUP7 DUP2 LT ISZERO PUSH2 0x1D16 JUMPI PUSH1 0x0 PUSH2 0x1C12 DUP10 DUP10 DUP5 DUP2 DUP2 LT PUSH2 0x1C06 JUMPI PUSH4 0x4E487B71 PUSH1 0xE0 SHL PUSH1 0x0 MSTORE PUSH1 0x32 PUSH1 0x4 MSTORE PUSH1 0x24 PUSH1 0x0 REVERT JUMPDEST SWAP1 POP PUSH1 0x20 MUL ADD CALLDATALOAD PUSH2 0x2E58 JUMP JUMPDEST SWAP1 POP DUP1 PUSH1 0x60 ADD MLOAD DUP6 PUSH2 0x1C24 SWAP2 SWAP1 PUSH2 0x5451 JUMP JUMPDEST SWAP5 POP DUP1 PUSH1 0x40 ADD MLOAD DUP5 PUSH2 0x1C36 SWAP2 SWAP1 PUSH2 0x5451 JUMP JUMPDEST SWAP4 POP DUP1 PUSH1 0x80 ADD MLOAD DUP4 PUSH2 0x1C48 SWAP2 SWAP1 PUSH2 0x5451 JUMP JUMPDEST PUSH1 0x18 SLOAD SWAP1 SWAP4 POP PUSH1 0x1 PUSH1 0x1 PUSH1 0xA0 SHL SUB AND PUSH4 0xDBF21B0 DUP11 DUP11 DUP6 DUP2 DUP2 LT PUSH2 0x1C7C JUMPI PUSH4 0x4E487B71 PUSH1 0xE0 SHL PUSH1 0x0 MSTORE PUSH1 0x32 PUSH1 0x4 MSTORE PUSH1 0x24 PUSH1 0x0 REVERT JUMPDEST SWAP1 POP PUSH1 0x20 MUL ADD CALLDATALOAD PUSH1 0x40 MLOAD DUP3 PUSH4 0xFFFFFFFF AND PUSH1 0xE0 SHL DUP2 MSTORE PUSH1 0x4 ADD PUSH2 0x1CA1 SWAP2 DUP2 MSTORE PUSH1 0x20 ADD SWAP1 JUMP JUMPDEST PUSH1 0x0 PUSH1 0x40 MLOAD DUP1 DUP4 SUB DUP2 PUSH1 0x0 DUP8 DUP1 EXTCODESIZE ISZERO DUP1 ISZERO PUSH2 0x1CBB JUMPI PUSH1 0x0 DUP1 REVERT JUMPDEST POP GAS CALL ISZERO DUP1 ISZERO PUSH2 0x1CCF JUMPI RETURNDATASIZE PUSH1 0x0 DUP1 RETURNDATACOPY RETURNDATASIZE PUSH1 0x0 REVERT JUMPDEST POP POP POP POP PUSH2 0x1D03 DUP10 DUP10 DUP5 DUP2 DUP2 LT PUSH2 0x1CF6 JUMPI PUSH4 0x4E487B71 PUSH1 0xE0 SHL PUSH1 0x0 MSTORE PUSH1 0x32 PUSH1 0x4 MSTORE PUSH1 0x24 PUSH1 0x0 REVERT JUMPDEST SWAP1 POP PUSH1 0x20 MUL ADD CALLDATALOAD DUP9 PUSH2 0x3553 JUMP JUMPDEST POP DUP1 PUSH2 0x1D0E DUP2 PUSH2 0x552B JUMP JUMPDEST SWAP2 POP POP PUSH2 0x1BD9 JUMP JUMPDEST POP PUSH2 0x1D24 DUP6 DUP6 DUP6 DUP6 DUP6 PUSH2 0x2F47 JUMP JUMPDEST POP PUSH1 0x18 SLOAD PUSH1 0x40 MLOAD PUSH4 0x57A5C967 PUSH1 0xE0 SHL DUP2 MSTORE PUSH1 0x1 PUSH1 0x1 PUSH1 0xA0 SHL SUB SWAP1 SWAP2 AND SWAP1 PUSH4 0x57A5C967 SWAP1 PUSH2 0x1D59 SWAP1 DUP9 SWAP1 DUP8 SWAP1 DUP7 SWAP1 PUSH1 0x4 ADD PUSH2 0x543B JUMP JUMPDEST PUSH1 0x0 PUSH1 0x40 MLOAD DUP1 DUP4 SUB DUP2 PUSH1 0x0 DUP8 DUP1 EXTCODESIZE ISZERO DUP1 ISZERO PUSH2 0x1D73 JUMPI PUSH1 0x0 DUP1 REVERT JUMPDEST POP GAS CALL ISZERO DUP1 ISZERO PUSH2 0x1D87 JUMPI RETURNDATASIZE PUSH1 0x0 DUP1 RETURNDATACOPY RETURNDATASIZE PUSH1 0x0 REVERT JUMPDEST POP POP POP POP POP POP POP POP POP POP POP JUMP JUMPDEST PUSH1 0x0 SWAP1 DUP2 MSTORE PUSH1 0xF PUSH1 0x20 MSTORE PUSH1 0x40 SWAP1 KECCAK256 SLOAD SWAP1 JUMP JUMPDEST PUSH1 0x0 PUSH1 0x2 PUSH1 0x7 SLOAD EQ ISZERO PUSH2 0x1DFB JUMPI PUSH1 0x40 MLOAD PUSH3 0x461BCD PUSH1 0xE5 SHL DUP2 MSTORE PUSH1 0x20 PUSH1 0x4 DUP3 ADD MSTORE PUSH1 0x1F PUSH1 0x24 DUP3 ADD MSTORE PUSH32 0x5265656E7472616E637947756172643A207265656E7472616E742063616C6C00 PUSH1 0x44 DUP3 ADD MSTORE PUSH1 0x64 ADD PUSH2 0x97A JUMP JUMPDEST PUSH1 0x2 PUSH1 0x7 SSTORE PUSH2 0x12C PUSH2 0x1E0D TIMESTAMP DUP9 PUSH2 0x549C JUMP JUMPDEST GT PUSH2 0x1E40 JUMPI PUSH1 0x40 MLOAD PUSH3 0x461BCD PUSH1 0xE5 SHL DUP2 MSTORE PUSH1 0x20 PUSH1 0x4 DUP3 ADD MSTORE PUSH1 0x3 PUSH1 0x24 DUP3 ADD MSTORE PUSH3 0x4F3231 PUSH1 0xE8 SHL PUSH1 0x44 DUP3 ADD MSTORE PUSH1 0x64 ADD PUSH2 0x97A JUMP JUMPDEST PUSH1 0x18 SLOAD PUSH1 0x40 DUP1 MLOAD PUSH4 0xAB2F0E51 PUSH1 0xE0 SHL DUP2 MSTORE SWAP1 MLOAD PUSH1 0x64 SWAP3 PUSH1 0x1 PUSH1 0x1 PUSH1 0xA0 SHL SUB AND SWAP2 PUSH4 0xAB2F0E51 SWAP2 PUSH1 0x4 DUP1 DUP4 ADD SWAP3 PUSH1 0x20 SWAP3 SWAP2 SWAP1 DUP3 SWAP1 SUB ADD DUP2 DUP7 DUP1 EXTCODESIZE ISZERO DUP1 ISZERO PUSH2 0x1E85 JUMPI PUSH1 0x0 DUP1 REVERT JUMPDEST POP GAS STATICCALL ISZERO DUP1 ISZERO PUSH2 0x1E99 JUMPI RETURNDATASIZE PUSH1 0x0 DUP1 RETURNDATACOPY RETURNDATASIZE PUSH1 0x0 REVERT JUMPDEST POP POP POP POP PUSH1 0x40 MLOAD RETURNDATASIZE PUSH1 0x1F NOT PUSH1 0x1F DUP3 ADD AND DUP3 ADD DUP1 PUSH1 0x40 MSTORE POP DUP2 ADD SWAP1 PUSH2 0x1EBD SWAP2 SWAP1 PUSH2 0x4ECE JUMP JUMPDEST PUSH1 0x19 PUSH1 0x0 SWAP1 SLOAD SWAP1 PUSH2 0x100 EXP SWAP1 DIV PUSH1 0x1 PUSH1 0x1 PUSH1 0xA0 SHL SUB AND PUSH1 0x1 PUSH1 0x1 PUSH1 0xA0 SHL SUB AND PUSH4 0x71BF7E25 PUSH1 0x40 MLOAD DUP2 PUSH4 0xFFFFFFFF AND PUSH1 0xE0 SHL DUP2 MSTORE PUSH1 0x4 ADD PUSH1 0x20 PUSH1 0x40 MLOAD DUP1 DUP4 SUB DUP2 DUP7 DUP1 EXTCODESIZE ISZERO DUP1 ISZERO PUSH2 0x1F0B JUMPI PUSH1 0x0 DUP1 REVERT JUMPDEST POP GAS STATICCALL ISZERO DUP1 ISZERO PUSH2 0x1F1F JUMPI RETURNDATASIZE PUSH1 0x0 DUP1 RETURNDATACOPY RETURNDATASIZE PUSH1 0x0 REVERT JUMPDEST POP POP POP POP PUSH1 0x40 MLOAD RETURNDATASIZE PUSH1 0x1F NOT PUSH1 0x1F DUP3 ADD AND DUP3 ADD DUP1 PUSH1 0x40 MSTORE POP DUP2 ADD SWAP1 PUSH2 0x1F43 SWAP2 SWAP1 PUSH2 0x4ECE JUMP JUMPDEST PUSH2 0x1F4D SWAP2 SWAP1 PUSH2 0x547D JUMP JUMPDEST PUSH2 0x1F57 SWAP2 SWAP1 PUSH2 0x5469 JUMP JUMPDEST NUMBER PUSH1 0x0 SWAP1 DUP2 MSTORE PUSH1 0x17 PUSH1 0x20 SWAP1 DUP2 MSTORE PUSH1 0x40 DUP1 DUP4 KECCAK256 CALLER DUP5 MSTORE SWAP1 SWAP2 MSTORE SWAP1 KECCAK256 SLOAD PUSH2 0x1F7D SWAP1 DUP11 SWAP1 PUSH2 0x5451 JUMP JUMPDEST LT PUSH2 0x1FB0 JUMPI PUSH1 0x40 MLOAD PUSH3 0x461BCD PUSH1 0xE5 SHL DUP2 MSTORE PUSH1 0x20 PUSH1 0x4 DUP3 ADD MSTORE PUSH1 0x3 PUSH1 0x24 DUP3 ADD MSTORE PUSH3 0x4F3233 PUSH1 0xE8 SHL PUSH1 0x44 DUP3 ADD MSTORE PUSH1 0x64 ADD PUSH2 0x97A JUMP JUMPDEST NUMBER PUSH1 0x0 SWAP1 DUP2 MSTORE PUSH1 0x17 PUSH1 0x20 SWAP1 DUP2 MSTORE PUSH1 0x40 DUP1 DUP4 KECCAK256 CALLER DUP5 MSTORE SWAP1 SWAP2 MSTORE DUP2 KECCAK256 DUP1 SLOAD DUP11 SWAP3 SWAP1 PUSH2 0x1FDA SWAP1 DUP5 SWAP1 PUSH2 0x5451 JUMP JUMPDEST SWAP1 SWAP2 SSTORE POP PUSH3 0x15180 SWAP1 POP PUSH2 0x1FEE TIMESTAMP DUP9 PUSH2 0x549C JUMP JUMPDEST LT ISZERO PUSH2 0x20B1 JUMPI DUP7 ISZERO PUSH2 0x2028 JUMPI PUSH1 0x40 MLOAD PUSH3 0x461BCD PUSH1 0xE5 SHL DUP2 MSTORE PUSH1 0x20 PUSH1 0x4 DUP3 ADD MSTORE PUSH1 0x3 PUSH1 0x24 DUP3 ADD MSTORE PUSH3 0x279919 PUSH1 0xE9 SHL PUSH1 0x44 DUP3 ADD MSTORE PUSH1 0x64 ADD PUSH2 0x97A JUMP JUMPDEST PUSH1 0x12 PUSH1 0x0 SWAP1 SLOAD SWAP1 PUSH2 0x100 EXP SWAP1 DIV PUSH1 0x1 PUSH1 0x1 PUSH1 0xA0 SHL SUB AND PUSH1 0x1 PUSH1 0x1 PUSH1 0xA0 SHL SUB AND PUSH4 0x1ACF5582 PUSH1 0x40 MLOAD DUP2 PUSH4 0xFFFFFFFF AND PUSH1 0xE0 SHL DUP2 MSTORE PUSH1 0x4 ADD PUSH1 0x20 PUSH1 0x40 MLOAD DUP1 DUP4 SUB DUP2 DUP7 DUP1 EXTCODESIZE ISZERO DUP1 ISZERO PUSH2 0x2076 JUMPI PUSH1 0x0 DUP1 REVERT JUMPDEST POP GAS STATICCALL ISZERO DUP1 ISZERO PUSH2 0x208A JUMPI RETURNDATASIZE PUSH1 0x0 DUP1 RETURNDATACOPY RETURNDATASIZE PUSH1 0x0 REVERT JUMPDEST POP POP POP POP PUSH1 0x40 MLOAD RETURNDATASIZE PUSH1 0x1F NOT PUSH1 0x1F DUP3 ADD AND DUP3 ADD DUP1 PUSH1 0x40 MSTORE POP DUP2 ADD SWAP1 PUSH2 0x20AE SWAP2 SWAP1 PUSH2 0x4ECE JUMP JUMPDEST SWAP7 POP JUMPDEST PUSH1 0x0 DUP1 DUP1 PUSH2 0x20CB PUSH2 0x20C2 TIMESTAMP DUP12 PUSH2 0x549C JUMP JUMPDEST DUP13 DUP13 DUP12 DUP12 PUSH2 0x10FE JUMP JUMPDEST SWAP2 SWAP5 POP SWAP3 POP SWAP1 POP PUSH1 0x5 PUSH2 0x20DE TIMESTAMP DUP12 PUSH2 0x549C JUMP JUMPDEST PUSH2 0x20E8 SWAP1 DUP14 PUSH2 0x547D JUMP JUMPDEST PUSH2 0x20F2 SWAP2 SWAP1 PUSH2 0x547D JUMP JUMPDEST PUSH2 0x2100 DUP5 PUSH4 0x1E13380 PUSH2 0x547D JUMP JUMPDEST PUSH2 0x210B SWAP1 PUSH1 0x64 PUSH2 0x547D JUMP JUMPDEST GT PUSH2 0x213D JUMPI PUSH1 0x40 MLOAD PUSH3 0x461BCD PUSH1 0xE5 SHL DUP2 MSTORE PUSH1 0x20 PUSH1 0x4 DUP3 ADD MSTORE PUSH1 0x2 PUSH1 0x24 DUP3 ADD MSTORE PUSH2 0x2799 PUSH1 0xF1 SHL PUSH1 0x44 DUP3 ADD MSTORE PUSH1 0x64 ADD PUSH2 0x97A JUMP JUMPDEST PUSH1 0x10 SLOAD PUSH1 0x40 MLOAD PUSH4 0x23B872DD PUSH1 0xE0 SHL DUP2 MSTORE CALLER PUSH1 0x4 DUP3 ADD MSTORE ADDRESS PUSH1 0x24 DUP3 ADD MSTORE PUSH1 0x44 DUP2 ADD DUP6 SWAP1 MSTORE PUSH1 0x0 SWAP2 PUSH1 0x1 PUSH1 0x1 PUSH1 0xA0 SHL SUB AND SWAP1 PUSH4 0x23B872DD SWAP1 PUSH1 0x64 ADD PUSH1 0x20 PUSH1 0x40 MLOAD DUP1 DUP4 SUB DUP2 PUSH1 0x0 DUP8 DUP1 EXTCODESIZE ISZERO DUP1 ISZERO PUSH2 0x2190 JUMPI PUSH1 0x0 DUP1 REVERT JUMPDEST POP GAS CALL ISZERO DUP1 ISZERO PUSH2 0x21A4 JUMPI RETURNDATASIZE PUSH1 0x0 DUP1 RETURNDATACOPY RETURNDATASIZE PUSH1 0x0 REVERT JUMPDEST POP POP POP POP PUSH1 0x40 MLOAD RETURNDATASIZE PUSH1 0x1F NOT PUSH1 0x1F DUP3 ADD AND DUP3 ADD DUP1 PUSH1 0x40 MSTORE POP DUP2 ADD SWAP1 PUSH2 0x21C8 SWAP2 SWAP1 PUSH2 0x4E3E JUMP JUMPDEST SWAP1 POP DUP1 PUSH2 0x21FC JUMPI PUSH1 0x40 MLOAD PUSH3 0x461BCD PUSH1 0xE5 SHL DUP2 MSTORE PUSH1 0x20 PUSH1 0x4 DUP3 ADD MSTORE PUSH1 0x2 PUSH1 0x24 DUP3 ADD MSTORE PUSH2 0x4F33 PUSH1 0xF0 SHL PUSH1 0x44 DUP3 ADD MSTORE PUSH1 0x64 ADD PUSH2 0x97A JUMP JUMPDEST PUSH1 0x1 DUP10 ISZERO ISZERO DUP2 EQ DUP1 ISZERO PUSH2 0x2211 JUMPI POP PUSH1 0x1 DUP10 ISZERO ISZERO EQ JUMPDEST DUP1 PUSH2 0x2223 JUMPI POP DUP10 ISZERO DUP1 ISZERO PUSH2 0x2223 JUMPI POP DUP9 ISZERO JUMPDEST ISZERO PUSH2 0x222C JUMPI POP PUSH1 0x2 JUMPDEST PUSH1 0x40 DUP1 MLOAD PUSH1 0xE0 DUP2 ADD SWAP1 SWAP2 MSTORE PUSH1 0x0 SWAP1 DUP1 PUSH1 0x1 DUP2 MSTORE PUSH1 0x20 ADD DUP15 DUP2 MSTORE PUSH1 0x20 ADD DUP16 DUP2 MSTORE PUSH1 0x20 ADD DUP16 DUP2 MSTORE PUSH1 0x20 ADD DUP6 DUP2 MSTORE PUSH1 0x20 ADD DUP14 DUP2 MSTORE PUSH1 0x20 ADD DUP4 PUSH1 0x2 DUP2 GT ISZERO PUSH2 0x2280 JUMPI PUSH4 0x4E487B71 PUSH1 0xE0 SHL PUSH1 0x0 MSTORE PUSH1 0x21 PUSH1 0x4 MSTORE PUSH1 0x24 PUSH1 0x0 REVERT JUMPDEST SWAP1 MSTORE SWAP1 POP PUSH2 0x228C PUSH2 0x325D JUMP JUMPDEST PUSH1 0x40 DUP1 MLOAD DUP1 DUP3 ADD DUP3 MSTORE DUP14 ISZERO ISZERO DUP2 MSTORE DUP13 ISZERO ISZERO PUSH1 0x20 DUP1 DUP4 ADD SWAP2 DUP3 MSTORE PUSH1 0x0 DUP6 DUP2 MSTORE PUSH1 0x15 SWAP1 SWAP2 MSTORE SWAP3 SWAP1 SWAP3 KECCAK256 SWAP1 MLOAD DUP2 SLOAD SWAP3 MLOAD PUSH2 0xFFFF NOT SWAP1 SWAP4 AND SWAP1 ISZERO ISZERO PUSH2 0xFF00 NOT AND OR PUSH2 0x100 SWAP3 ISZERO ISZERO SWAP3 SWAP1 SWAP3 MUL SWAP2 SWAP1 SWAP2 OR SWAP1 SSTORE SWAP7 POP PUSH2 0x22E5 DUP8 DUP3 PUSH2 0x33A1 JUMP JUMPDEST PUSH2 0x2303 DUP8 CALLER PUSH2 0x22FE DUP11 DUP6 PUSH1 0x20 ADD MLOAD DUP7 PUSH1 0xA0 ADD MLOAD DUP9 PUSH2 0x36CF JUMP JUMPDEST PUSH2 0x380D JUMP JUMPDEST PUSH2 0x230D DUP8 DUP10 PUSH2 0x3830 JUMP JUMPDEST PUSH1 0x0 PUSH2 0x2319 DUP7 DUP12 PUSH2 0x383A JUMP JUMPDEST SWAP1 POP PUSH2 0x232E DUP9 DUP4 PUSH1 0x60 ADD MLOAD DUP5 PUSH1 0x80 ADD MLOAD PUSH2 0x3459 JUMP JUMPDEST CALLER PUSH1 0x1 PUSH1 0x1 PUSH1 0xA0 SHL SUB AND DUP9 PUSH32 0x89F823A0225C73A75066E963CE2EEA7708B57680EC86102773DBD244F5412892 DUP4 DUP11 DUP14 PUSH1 0x40 MLOAD PUSH2 0x236C SWAP4 SWAP3 SWAP2 SWAP1 PUSH2 0x541C JUMP JUMPDEST PUSH1 0x40 MLOAD DUP1 SWAP2 SUB SWAP1 LOG3 POP POP PUSH1 0x1 PUSH1 0x7 SSTORE POP SWAP4 SWAP12 SWAP11 POP POP POP POP POP POP POP POP POP POP POP JUMP JUMPDEST PUSH1 0x60 PUSH2 0x835 DUP3 PUSH2 0x3CFB JUMP JUMPDEST PUSH1 0x0 DUP3 DUP2 MSTORE PUSH1 0xC PUSH1 0x20 MSTORE PUSH1 0x40 DUP2 KECCAK256 PUSH2 0x23AF SWAP1 DUP4 PUSH2 0x3E5D JUMP JUMPDEST SWAP4 SWAP3 POP POP POP JUMP JUMPDEST PUSH2 0x23BF DUP3 PUSH2 0xAE1 JUMP JUMPDEST PUSH2 0x23C9 DUP2 CALLER PUSH2 0x2AFD JUMP JUMPDEST PUSH2 0xAAB DUP4 DUP4 PUSH2 0x2BE7 JUMP JUMPDEST PUSH1 0x12 SLOAD PUSH1 0x40 MLOAD PUSH4 0x3906D29 PUSH1 0xE1 SHL DUP2 MSTORE PUSH1 0x4 DUP2 ADD DUP5 SWAP1 MSTORE PUSH1 0x0 SWAP2 DUP3 SWAP2 DUP3 SWAP2 PUSH1 0x1 PUSH1 0x1 PUSH1 0xA0 SHL SUB AND SWAP1 PUSH4 0x720DA52 SWAP1 PUSH1 0x24 ADD PUSH1 0xA0 PUSH1 0x40 MLOAD DUP1 DUP4 SUB DUP2 DUP7 DUP1 EXTCODESIZE ISZERO DUP1 ISZERO PUSH2 0x241C JUMPI PUSH1 0x0 DUP1 REVERT JUMPDEST POP GAS STATICCALL ISZERO DUP1 ISZERO PUSH2 0x2430 JUMPI RETURNDATASIZE PUSH1 0x0 DUP1 RETURNDATACOPY RETURNDATASIZE PUSH1 0x0 REVERT JUMPDEST POP POP POP POP PUSH1 0x40 MLOAD RETURNDATASIZE PUSH1 0x1F NOT PUSH1 0x1F DUP3 ADD AND DUP3 ADD DUP1 PUSH1 0x40 MSTORE POP DUP2 ADD SWAP1 PUSH2 0x2454 SWAP2 SWAP1 PUSH2 0x5047 JUMP JUMPDEST POP PUSH1 0x0 DUP9 DUP2 MSTORE PUSH1 0x14 PUSH1 0x20 MSTORE PUSH1 0x40 SWAP1 KECCAK256 PUSH1 0x5 DUP2 ADD SLOAD SWAP4 SWAP7 POP SWAP1 SWAP5 POP SWAP3 POP POP DUP3 DUP2 LT PUSH2 0x24A5 JUMPI PUSH1 0x40 MLOAD PUSH3 0x461BCD PUSH1 0xE5 SHL DUP2 MSTORE PUSH1 0x20 PUSH1 0x4 DUP3 ADD MSTORE PUSH1 0x2 PUSH1 0x24 DUP3 ADD MSTORE PUSH2 0x4331 PUSH1 0xF0 SHL PUSH1 0x44 DUP3 ADD MSTORE PUSH1 0x64 ADD PUSH2 0x97A JUMP JUMPDEST PUSH1 0x0 DUP2 DUP2 MSTORE PUSH1 0x16 PUSH1 0x20 MSTORE PUSH1 0x40 SWAP1 KECCAK256 SLOAD DUP1 PUSH2 0x25F0 JUMPI PUSH2 0x24C4 PUSH1 0x1 DUP10 PUSH2 0x549C JUMP JUMPDEST SWAP1 POP JUMPDEST DUP6 PUSH2 0x25F0 JUMPI PUSH1 0x12 SLOAD PUSH1 0x40 MLOAD PUSH4 0x3906D29 PUSH1 0xE1 SHL DUP2 MSTORE PUSH1 0x4 DUP2 ADD DUP4 SWAP1 MSTORE PUSH1 0x0 SWAP2 PUSH1 0x1 PUSH1 0x1 PUSH1 0xA0 SHL SUB AND SWAP1 PUSH4 0x720DA52 SWAP1 PUSH1 0x24 ADD PUSH1 0xA0 PUSH1 0x40 MLOAD DUP1 DUP4 SUB DUP2 DUP7 DUP1 EXTCODESIZE ISZERO DUP1 ISZERO PUSH2 0x2511 JUMPI PUSH1 0x0 DUP1 REVERT JUMPDEST POP GAS STATICCALL ISZERO DUP1 ISZERO PUSH2 0x2525 JUMPI RETURNDATASIZE PUSH1 0x0 DUP1 RETURNDATACOPY RETURNDATASIZE PUSH1 0x0 REVERT JUMPDEST POP POP POP POP PUSH1 0x40 MLOAD RETURNDATASIZE PUSH1 0x1F NOT PUSH1 0x1F DUP3 ADD AND DUP3 ADD DUP1 PUSH1 0x40 MSTORE POP DUP2 ADD SWAP1 PUSH2 0x2549 SWAP2 SWAP1 PUSH2 0x5047 JUMP JUMPDEST POP SWAP4 POP POP POP POP DUP1 PUSH1 0x0 EQ ISZERO PUSH2 0x259F JUMPI PUSH1 0x0 DUP3 GT PUSH2 0x258D JUMPI PUSH1 0x40 MLOAD PUSH3 0x461BCD PUSH1 0xE5 SHL DUP2 MSTORE PUSH1 0x20 PUSH1 0x4 DUP3 ADD MSTORE PUSH1 0x2 PUSH1 0x24 DUP3 ADD MSTORE PUSH2 0x4333 PUSH1 0xF0 SHL PUSH1 0x44 DUP3 ADD MSTORE PUSH1 0x64 ADD PUSH2 0x97A JUMP JUMPDEST PUSH2 0x2598 PUSH1 0x1 DUP4 PUSH2 0x549C JUMP JUMPDEST SWAP2 POP PUSH2 0x25EA JUMP JUMPDEST DUP3 DUP2 GT ISZERO PUSH2 0x25D4 JUMPI PUSH1 0x40 MLOAD PUSH3 0x461BCD PUSH1 0xE5 SHL DUP2 MSTORE PUSH1 0x20 PUSH1 0x4 DUP3 ADD MSTORE PUSH1 0x2 PUSH1 0x24 DUP3 ADD MSTORE PUSH2 0x10CD PUSH1 0xF2 SHL PUSH1 0x44 DUP3 ADD MSTORE PUSH1 0x64 ADD PUSH2 0x97A JUMP JUMPDEST PUSH1 0x0 DUP4 DUP2 MSTORE PUSH1 0x16 PUSH1 0x20 MSTORE PUSH1 0x40 SWAP1 KECCAK256 DUP3 SWAP1 SSTORE PUSH1 0x1 SWAP7 POP JUMPDEST POP PUSH2 0x24C7 JUMP JUMPDEST POP POP POP POP POP SWAP3 SWAP2 POP POP JUMP JUMPDEST DUP1 PUSH1 0x0 JUMPDEST DUP2 DUP2 LT ISZERO PUSH2 0xFF7 JUMPI PUSH2 0x2636 DUP5 DUP5 DUP4 DUP2 DUP2 LT PUSH2 0x262A JUMPI PUSH4 0x4E487B71 PUSH1 0xE0 SHL PUSH1 0x0 MSTORE PUSH1 0x32 PUSH1 0x4 MSTORE PUSH1 0x24 PUSH1 0x0 REVERT JUMPDEST SWAP1 POP PUSH1 0x20 MUL ADD CALLDATALOAD PUSH2 0xD74 JUMP JUMPDEST DUP1 PUSH2 0x2640 DUP2 PUSH2 0x552B JUMP JUMPDEST SWAP2 POP POP PUSH2 0x25FF JUMP JUMPDEST PUSH1 0x1 PUSH1 0x1 PUSH1 0xA0 SHL SUB SWAP2 DUP3 AND PUSH1 0x0 SWAP1 DUP2 MSTORE PUSH1 0x5 PUSH1 0x20 SWAP1 DUP2 MSTORE PUSH1 0x40 DUP1 DUP4 KECCAK256 SWAP4 SWAP1 SWAP5 AND DUP3 MSTORE SWAP2 SWAP1 SWAP2 MSTORE KECCAK256 SLOAD PUSH1 0xFF AND SWAP1 JUMP JUMPDEST CALLER PUSH2 0x267F PUSH2 0x172C JUMP JUMPDEST PUSH1 0x1 PUSH1 0x1 PUSH1 0xA0 SHL SUB AND EQ PUSH2 0x26A5 JUMPI PUSH1 0x40 MLOAD PUSH3 0x461BCD PUSH1 0xE5 SHL DUP2 MSTORE PUSH1 0x4 ADD PUSH2 0x97A SWAP1 PUSH2 0x5324 JUMP JUMPDEST PUSH1 0x1 PUSH1 0x1 PUSH1 0xA0 SHL SUB DUP2 AND PUSH2 0x270A JUMPI PUSH1 0x40 MLOAD PUSH3 0x461BCD PUSH1 0xE5 SHL DUP2 MSTORE PUSH1 0x20 PUSH1 0x4 DUP3 ADD MSTORE PUSH1 0x26 PUSH1 0x24 DUP3 ADD MSTORE PUSH32 0x4F776E61626C653A206E6577206F776E657220697320746865207A65726F2061 PUSH1 0x44 DUP3 ADD MSTORE PUSH6 0x646472657373 PUSH1 0xD0 SHL PUSH1 0x64 DUP3 ADD MSTORE PUSH1 0x84 ADD PUSH2 0x97A JUMP JUMPDEST PUSH2 0xC44 DUP2 PUSH2 0x34C4 JUMP JUMPDEST PUSH1 0x0 PUSH2 0x271D PUSH2 0x325D JUMP JUMPDEST SWAP1 POP PUSH1 0x0 DUP1 PUSH1 0x0 DUP1 PUSH2 0x272F DUP8 DUP8 PUSH2 0x2D2B JUMP JUMPDEST SWAP4 POP SWAP4 POP SWAP4 POP SWAP4 POP PUSH1 0x0 PUSH1 0x40 MLOAD DUP1 PUSH1 0xE0 ADD PUSH1 0x40 MSTORE DUP1 DUP4 PUSH1 0x0 ADD MLOAD PUSH1 0x3 DUP2 GT ISZERO PUSH2 0x2768 JUMPI PUSH4 0x4E487B71 PUSH1 0xE0 SHL PUSH1 0x0 MSTORE PUSH1 0x21 PUSH1 0x4 MSTORE PUSH1 0x24 PUSH1 0x0 REVERT JUMPDEST DUP2 MSTORE PUSH1 0x20 ADD DUP4 PUSH1 0x20 ADD MLOAD DUP2 MSTORE PUSH1 0x20 ADD DUP7 DUP2 MSTORE PUSH1 0x20 ADD DUP5 DUP2 MSTORE PUSH1 0x20 ADD DUP6 DUP2 MSTORE PUSH1 0x20 ADD DUP4 PUSH1 0xA0 ADD MLOAD DUP2 MSTORE PUSH1 0x20 ADD DUP4 PUSH1 0xC0 ADD MLOAD PUSH1 0x2 DUP2 GT ISZERO PUSH2 0x27B7 JUMPI PUSH4 0x4E487B71 PUSH1 0xE0 SHL PUSH1 0x0 MSTORE PUSH1 0x21 PUSH1 0x4 MSTORE PUSH1 0x24 PUSH1 0x0 REVERT JUMPDEST SWAP1 MSTORE SWAP1 POP PUSH2 0x27C5 DUP7 DUP3 PUSH2 0x33A1 JUMP JUMPDEST PUSH2 0x27D0 DUP7 DUP5 DUP7 PUSH2 0x3459 JUMP JUMPDEST PUSH2 0x27DD DUP11 DUP11 DUP11 DUP10 DUP12 PUSH2 0x2F79 JUMP JUMPDEST POP POP POP POP POP SWAP5 SWAP4 POP POP POP POP JUMP JUMPDEST PUSH1 0x0 PUSH1 0x1 PUSH1 0x1 PUSH1 0xE0 SHL SUB NOT DUP3 AND PUSH4 0x7965DB0B PUSH1 0xE0 SHL EQ DUP1 PUSH2 0x835 JUMPI POP PUSH2 0x835 DUP3 PUSH2 0x3E69 JUMP JUMPDEST PUSH1 0x0 SWAP1 DUP2 MSTORE PUSH1 0x2 PUSH1 0x20 MSTORE PUSH1 0x40 SWAP1 KECCAK256 SLOAD PUSH1 0x1 PUSH1 0x1 PUSH1 0xA0 SHL SUB AND ISZERO ISZERO SWAP1 JUMP JUMPDEST PUSH1 0x0 DUP2 DUP2 MSTORE PUSH1 0x4 PUSH1 0x20 MSTORE PUSH1 0x40 SWAP1 KECCAK256 DUP1 SLOAD PUSH1 0x1 PUSH1 0x1 PUSH1 0xA0 SHL SUB NOT AND PUSH1 0x1 PUSH1 0x1 PUSH1 0xA0 SHL SUB DUP5 AND SWAP1 DUP2 OR SWAP1 SWAP2 SSTORE DUP2 SWAP1 PUSH2 0x2861 DUP3 PUSH2 0xFFD JUMP JUMPDEST PUSH1 0x1 PUSH1 0x1 PUSH1 0xA0 SHL SUB AND PUSH32 0x8C5BE1E5EBEC7D5BD14F71427D1E84F3DD0314C0F7B2291E5B200AC8C7C3B925 PUSH1 0x40 MLOAD PUSH1 0x40 MLOAD DUP1 SWAP2 SUB SWAP1 LOG4 POP POP JUMP JUMPDEST PUSH1 0x0 PUSH2 0x28A5 DUP3 PUSH2 0x280F JUMP JUMPDEST PUSH2 0x2906 JUMPI PUSH1 0x40 MLOAD PUSH3 0x461BCD PUSH1 0xE5 SHL DUP2 MSTORE PUSH1 0x20 PUSH1 0x4 DUP3 ADD MSTORE PUSH1 0x2C PUSH1 0x24 DUP3 ADD MSTORE PUSH32 0x4552433732313A206F70657261746F7220717565727920666F72206E6F6E6578 PUSH1 0x44 DUP3 ADD MSTORE PUSH12 0x34B9BA32B73A103A37B5B2B7 PUSH1 0xA1 SHL PUSH1 0x64 DUP3 ADD MSTORE PUSH1 0x84 ADD PUSH2 0x97A JUMP JUMPDEST PUSH1 0x0 PUSH2 0x2911 DUP4 PUSH2 0xFFD JUMP JUMPDEST SWAP1 POP DUP1 PUSH1 0x1 PUSH1 0x1 PUSH1 0xA0 SHL SUB AND DUP5 PUSH1 0x1 PUSH1 0x1 PUSH1 0xA0 SHL SUB AND EQ DUP1 PUSH2 0x294C JUMPI POP DUP4 PUSH1 0x1 PUSH1 0x1 PUSH1 0xA0 SHL SUB AND PUSH2 0x2941 DUP5 PUSH2 0x912 JUMP JUMPDEST PUSH1 0x1 PUSH1 0x1 PUSH1 0xA0 SHL SUB AND EQ JUMPDEST DUP1 PUSH2 0x295C JUMPI POP PUSH2 0x295C DUP2 DUP6 PUSH2 0x2648 JUMP JUMPDEST SWAP5 SWAP4 POP POP POP POP JUMP JUMPDEST DUP3 PUSH1 0x1 PUSH1 0x1 PUSH1 0xA0 SHL SUB AND PUSH2 0x2977 DUP3 PUSH2 0xFFD JUMP JUMPDEST PUSH1 0x1 PUSH1 0x1 PUSH1 0xA0 SHL SUB AND EQ PUSH2 0x29DF JUMPI PUSH1 0x40 MLOAD PUSH3 0x461BCD PUSH1 0xE5 SHL DUP2 MSTORE PUSH1 0x20 PUSH1 0x4 DUP3 ADD MSTORE PUSH1 0x29 PUSH1 0x24 DUP3 ADD MSTORE PUSH32 0x4552433732313A207472616E73666572206F6620746F6B656E20746861742069 PUSH1 0x44 DUP3 ADD MSTORE PUSH9 0x39903737BA1037BBB7 PUSH1 0xB9 SHL PUSH1 0x64 DUP3 ADD MSTORE PUSH1 0x84 ADD PUSH2 0x97A JUMP JUMPDEST PUSH1 0x1 PUSH1 0x1 PUSH1 0xA0 SHL SUB DUP3 AND PUSH2 0x2A41 JUMPI PUSH1 0x40 MLOAD PUSH3 0x461BCD PUSH1 0xE5 SHL DUP2 MSTORE PUSH1 0x20 PUSH1 0x4 DUP3 ADD MSTORE PUSH1 0x24 DUP1 DUP3 ADD MSTORE PUSH32 0x4552433732313A207472616E7366657220746F20746865207A65726F20616464 PUSH1 0x44 DUP3 ADD MSTORE PUSH4 0x72657373 PUSH1 0xE0 SHL PUSH1 0x64 DUP3 ADD MSTORE PUSH1 0x84 ADD PUSH2 0x97A JUMP JUMPDEST PUSH2 0x2A4C DUP4 DUP4 DUP4 PUSH2 0x3EB9 JUMP JUMPDEST PUSH2 0x2A57 PUSH1 0x0 DUP3 PUSH2 0x282C JUMP JUMPDEST PUSH1 0x1 PUSH1 0x1 PUSH1 0xA0 SHL SUB DUP4 AND PUSH1 0x0 SWAP1 DUP2 MSTORE PUSH1 0x3 PUSH1 0x20 MSTORE PUSH1 0x40 DUP2 KECCAK256 DUP1 SLOAD PUSH1 0x1 SWAP3 SWAP1 PUSH2 0x2A80 SWAP1 DUP5 SWAP1 PUSH2 0x549C JUMP JUMPDEST SWAP1 SWAP2 SSTORE POP POP PUSH1 0x1 PUSH1 0x1 PUSH1 0xA0 SHL SUB DUP3 AND PUSH1 0x0 SWAP1 DUP2 MSTORE PUSH1 0x3 PUSH1 0x20 MSTORE PUSH1 0x40 DUP2 KECCAK256 DUP1 SLOAD PUSH1 0x1 SWAP3 SWAP1 PUSH2 0x2AAE SWAP1 DUP5 SWAP1 PUSH2 0x5451 JUMP JUMPDEST SWAP1 SWAP2 SSTORE POP POP PUSH1 0x0 DUP2 DUP2 MSTORE PUSH1 0x2 PUSH1 0x20 MSTORE PUSH1 0x40 DUP1 DUP3 KECCAK256 DUP1 SLOAD PUSH1 0x1 PUSH1 0x1 PUSH1 0xA0 SHL SUB NOT AND PUSH1 0x1 PUSH1 0x1 PUSH1 0xA0 SHL SUB DUP7 DUP2 AND SWAP2 DUP3 OR SWAP1 SWAP3 SSTORE SWAP2 MLOAD DUP5 SWAP4 SWAP2 DUP8 AND SWAP2 PUSH1 0x0 DUP1 MLOAD PUSH1 0x20 PUSH2 0x560E DUP4 CODECOPY DUP2 MLOAD SWAP2 MSTORE SWAP2 LOG4 POP POP POP JUMP JUMPDEST PUSH2 0x2B07 DUP3 DUP3 PUSH2 0x173B JUMP JUMPDEST PUSH2 0xB9F JUMPI PUSH2 0x2B1F DUP2 PUSH1 0x1 PUSH1 0x1 PUSH1 0xA0 SHL SUB AND PUSH1 0x14 PUSH2 0x3ED1 JUMP JUMPDEST PUSH2 0x2B2A DUP4 PUSH1 0x20 PUSH2 0x3ED1 JUMP JUMPDEST PUSH1 0x40 MLOAD PUSH1 0x20 ADD PUSH2 0x2B3B SWAP3 SWAP2 SWAP1 PUSH2 0x5105 JUMP JUMPDEST PUSH1 0x40 DUP1 MLOAD PUSH1 0x1F NOT DUP2 DUP5 SUB ADD DUP2 MSTORE SWAP1 DUP3 SWAP1 MSTORE PUSH3 0x461BCD PUSH1 0xE5 SHL DUP3 MSTORE PUSH2 0x97A SWAP2 PUSH1 0x4 ADD PUSH2 0x526A JUMP JUMPDEST PUSH2 0x2B6B DUP3 DUP3 PUSH2 0x173B JUMP JUMPDEST PUSH2 0xB9F JUMPI PUSH1 0x0 DUP3 DUP2 MSTORE PUSH1 0x8 PUSH1 0x20 SWAP1 DUP2 MSTORE PUSH1 0x40 DUP1 DUP4 KECCAK256 PUSH1 0x1 PUSH1 0x1 PUSH1 0xA0 SHL SUB DUP6 AND DUP5 MSTORE SWAP1 SWAP2 MSTORE SWAP1 KECCAK256 DUP1 SLOAD PUSH1 0xFF NOT AND PUSH1 0x1 OR SWAP1 SSTORE PUSH2 0x2BA3 CALLER SWAP1 JUMP JUMPDEST PUSH1 0x1 PUSH1 0x1 PUSH1 0xA0 SHL SUB AND DUP2 PUSH1 0x1 PUSH1 0x1 PUSH1 0xA0 SHL SUB AND DUP4 PUSH32 0x2F8788117E7EFF1D82E926EC794901D17C78024A50270940304540A733656F0D PUSH1 0x40 MLOAD PUSH1 0x40 MLOAD DUP1 SWAP2 SUB SWAP1 LOG4 POP POP JUMP JUMPDEST PUSH2 0x2BF1 DUP3 DUP3 PUSH2 0x173B JUMP JUMPDEST ISZERO PUSH2 0xB9F JUMPI PUSH1 0x0 DUP3 DUP2 MSTORE PUSH1 0x8 PUSH1 0x20 SWAP1 DUP2 MSTORE PUSH1 0x40 DUP1 DUP4 KECCAK256 PUSH1 0x1 PUSH1 0x1 PUSH1 0xA0 SHL SUB DUP6 AND DUP1 DUP6 MSTORE SWAP3 MSTORE DUP1 DUP4 KECCAK256 DUP1 SLOAD PUSH1 0xFF NOT AND SWAP1 SSTORE MLOAD CALLER SWAP3 DUP6 SWAP2 PUSH32 0xF6391F5C32D9C69D2A47EA670B442974B53935D1EDC7FD64EB21E047A839171B SWAP2 SWAP1 LOG4 POP POP JUMP JUMPDEST PUSH1 0x0 DUP3 DUP2 MSTORE PUSH1 0xB PUSH1 0x20 SWAP1 DUP2 MSTORE PUSH1 0x40 DUP1 DUP4 KECCAK256 PUSH1 0x1 PUSH1 0x1 PUSH1 0xA0 SHL SUB DUP8 AND DUP5 MSTORE PUSH1 0x1 ADD SWAP1 SWAP2 MSTORE SWAP1 KECCAK256 SLOAD PUSH2 0x2CB0 JUMPI PUSH1 0x0 DUP3 DUP2 MSTORE PUSH1 0xB PUSH1 0x20 SWAP1 DUP2 MSTORE PUSH1 0x40 DUP3 KECCAK256 DUP1 SLOAD PUSH1 0x1 DUP2 ADD DUP3 SSTORE SWAP1 DUP4 MSTORE SWAP2 KECCAK256 ADD DUP1 SLOAD PUSH1 0x1 PUSH1 0x1 PUSH1 0xA0 SHL SUB NOT AND PUSH1 0x1 PUSH1 0x1 PUSH1 0xA0 SHL SUB DUP6 AND OR SWAP1 SSTORE JUMPDEST PUSH1 0x0 DUP3 DUP2 MSTORE PUSH1 0xB PUSH1 0x20 SWAP1 DUP2 MSTORE PUSH1 0x40 DUP1 DUP4 KECCAK256 PUSH1 0x1 PUSH1 0x1 PUSH1 0xA0 SHL SUB DUP8 AND DUP1 DUP6 MSTORE PUSH1 0x1 SWAP1 SWAP2 ADD DUP4 MSTORE SWAP3 DUP2 SWAP1 KECCAK256 DUP5 SWAP1 SSTORE MLOAD DUP4 DUP2 MSTORE DUP5 SWAP3 SWAP2 PUSH32 0x8A156BD946DC74EC284C5F4B365CE75EF2A5B9D9462B4CDB1D2400CABF136541 SWAP2 ADD PUSH1 0x40 MLOAD DUP1 SWAP2 SUB SWAP1 LOG3 POP POP POP JUMP JUMPDEST PUSH1 0x0 DUP2 DUP2 MSTORE PUSH1 0xA PUSH1 0x20 MSTORE PUSH1 0x40 DUP2 KECCAK256 SSTORE PUSH2 0xC44 DUP2 PUSH2 0x40B2 JUMP JUMPDEST PUSH1 0x0 DUP1 PUSH1 0x0 PUSH2 0x2D38 PUSH2 0x499A JUMP JUMPDEST PUSH2 0x2D41 DUP7 PUSH2 0x2E58 JUMP JUMPDEST SWAP1 POP PUSH1 0x0 PUSH2 0x2D4E DUP8 PUSH2 0x1D94 JUMP JUMPDEST SWAP1 POP DUP1 DUP7 DUP4 PUSH1 0x40 ADD MLOAD PUSH2 0x2D61 SWAP2 SWAP1 PUSH2 0x547D JUMP JUMPDEST PUSH2 0x2D6B SWAP2 SWAP1 PUSH2 0x5469 JUMP JUMPDEST SWAP5 POP DUP1 DUP7 DUP4 PUSH1 0x80 ADD MLOAD PUSH2 0x2D7E SWAP2 SWAP1 PUSH2 0x547D JUMP JUMPDEST PUSH2 0x2D88 SWAP2 SWAP1 PUSH2 0x5469 JUMP JUMPDEST SWAP4 POP DUP1 DUP7 DUP4 PUSH1 0x60 ADD MLOAD PUSH2 0x2D9B SWAP2 SWAP1 PUSH2 0x547D JUMP JUMPDEST PUSH2 0x2DA5 SWAP2 SWAP1 PUSH2 0x5469 JUMP JUMPDEST SWAP3 POP PUSH2 0x2DDC DUP8 DUP4 DUP6 DUP6 PUSH1 0x60 ADD MLOAD PUSH2 0x2DBC SWAP2 SWAP1 PUSH2 0x549C JUMP JUMPDEST DUP9 DUP7 PUSH1 0x40 ADD MLOAD PUSH2 0x2DCC SWAP2 SWAP1 PUSH2 0x549C JUMP JUMPDEST DUP9 DUP8 PUSH1 0x80 ADD MLOAD PUSH2 0xCDA SWAP2 SWAP1 PUSH2 0x549C JUMP JUMPDEST PUSH1 0x18 SLOAD PUSH1 0x60 DUP3 ADD MLOAD PUSH1 0x80 DUP4 ADD MLOAD PUSH1 0x40 MLOAD PUSH4 0x57A5C967 PUSH1 0xE0 SHL DUP2 MSTORE SWAP4 SWAP6 POP PUSH1 0x1 PUSH1 0x1 PUSH1 0xA0 SHL SUB SWAP1 SWAP3 AND SWAP3 PUSH4 0x57A5C967 SWAP3 PUSH2 0x2E1C SWAP3 DUP13 SWAP3 SWAP1 SWAP2 SWAP1 PUSH1 0x4 ADD PUSH2 0x543B JUMP JUMPDEST PUSH1 0x0 PUSH1 0x40 MLOAD DUP1 DUP4 SUB DUP2 PUSH1 0x0 DUP8 DUP1 EXTCODESIZE ISZERO DUP1 ISZERO PUSH2 0x2E36 JUMPI PUSH1 0x0 DUP1 REVERT JUMPDEST POP GAS CALL ISZERO DUP1 ISZERO PUSH2 0x2E4A JUMPI RETURNDATASIZE PUSH1 0x0 DUP1 RETURNDATACOPY RETURNDATASIZE PUSH1 0x0 REVERT JUMPDEST POP POP POP POP POP SWAP3 SWAP6 SWAP2 SWAP5 POP SWAP3 POP JUMP JUMPDEST PUSH2 0x2E60 PUSH2 0x499A JUMP JUMPDEST PUSH1 0x0 DUP3 DUP2 MSTORE PUSH1 0x14 PUSH1 0x20 MSTORE PUSH1 0x40 SWAP1 DUP2 SWAP1 KECCAK256 DUP2 MLOAD PUSH1 0xE0 DUP2 ADD SWAP1 SWAP3 MSTORE DUP1 SLOAD DUP3 SWAP1 PUSH1 0xFF AND PUSH1 0x3 DUP2 GT ISZERO PUSH2 0x2E9F JUMPI PUSH4 0x4E487B71 PUSH1 0xE0 SHL PUSH1 0x0 MSTORE PUSH1 0x21 PUSH1 0x4 MSTORE PUSH1 0x24 PUSH1 0x0 REVERT JUMPDEST PUSH1 0x3 DUP2 GT ISZERO PUSH2 0x2EBE JUMPI PUSH4 0x4E487B71 PUSH1 0xE0 SHL PUSH1 0x0 MSTORE PUSH1 0x21 PUSH1 0x4 MSTORE PUSH1 0x24 PUSH1 0x0 REVERT JUMPDEST DUP2 MSTORE PUSH1 0x1 DUP3 ADD SLOAD PUSH1 0x20 DUP3 ADD MSTORE PUSH1 0x2 DUP1 DUP4 ADD SLOAD PUSH1 0x40 DUP4 ADD MSTORE PUSH1 0x3 DUP4 ADD SLOAD PUSH1 0x60 DUP4 ADD MSTORE PUSH1 0x4 DUP4 ADD SLOAD PUSH1 0x80 DUP4 ADD MSTORE PUSH1 0x5 DUP4 ADD SLOAD PUSH1 0xA0 DUP4 ADD MSTORE PUSH1 0x6 DUP4 ADD SLOAD PUSH1 0xC0 SWAP1 SWAP3 ADD SWAP2 PUSH1 0xFF AND SWAP1 DUP2 GT ISZERO PUSH2 0x2F1F JUMPI PUSH4 0x4E487B71 PUSH1 0xE0 SHL PUSH1 0x0 MSTORE PUSH1 0x21 PUSH1 0x4 MSTORE PUSH1 0x24 PUSH1 0x0 REVERT JUMPDEST PUSH1 0x2 DUP2 GT ISZERO PUSH2 0x2F3E JUMPI PUSH4 0x4E487B71 PUSH1 0xE0 SHL PUSH1 0x0 MSTORE PUSH1 0x21 PUSH1 0x4 MSTORE PUSH1 0x24 PUSH1 0x0 REVERT JUMPDEST SWAP1 MSTORE POP SWAP3 SWAP2 POP POP JUMP JUMPDEST PUSH2 0x2F4F PUSH2 0x499A JUMP JUMPDEST POP PUSH1 0x60 DUP5 ADD DUP4 SWAP1 MSTORE PUSH1 0x40 DUP5 ADD DUP3 SWAP1 MSTORE PUSH1 0x80 DUP5 ADD DUP2 SWAP1 MSTORE DUP4 PUSH2 0x2F70 DUP7 DUP3 PUSH2 0x33A1 JUMP JUMPDEST SWAP6 SWAP5 POP POP POP POP POP JUMP JUMPDEST PUSH2 0x2F82 DUP4 PUSH2 0xFFD JUMP JUMPDEST PUSH1 0x1 PUSH1 0x1 PUSH1 0xA0 SHL SUB AND DUP6 PUSH1 0x1 PUSH1 0x1 PUSH1 0xA0 SHL SUB AND EQ PUSH2 0x2FC7 JUMPI PUSH1 0x40 MLOAD PUSH3 0x461BCD PUSH1 0xE5 SHL DUP2 MSTORE PUSH1 0x20 PUSH1 0x4 DUP3 ADD MSTORE PUSH1 0x2 PUSH1 0x24 DUP3 ADD MSTORE PUSH2 0x4E39 PUSH1 0xF0 SHL PUSH1 0x44 DUP3 ADD MSTORE PUSH1 0x64 ADD PUSH2 0x97A JUMP JUMPDEST PUSH1 0x1 PUSH1 0x1 PUSH1 0xA0 SHL SUB DUP5 AND PUSH2 0x3003 JUMPI PUSH1 0x40 MLOAD PUSH3 0x461BCD PUSH1 0xE5 SHL DUP2 MSTORE PUSH1 0x20 PUSH1 0x4 DUP3 ADD MSTORE PUSH1 0x3 PUSH1 0x24 DUP3 ADD MSTORE PUSH3 0x4E313 PUSH1 0xEC SHL PUSH1 0x44 DUP3 ADD MSTORE PUSH1 0x64 ADD PUSH2 0x97A JUMP JUMPDEST CALLER PUSH1 0x1 PUSH1 0x1 PUSH1 0xA0 SHL SUB DUP7 AND EQ DUP1 ISZERO SWAP1 PUSH2 0x3023 JUMPI POP PUSH2 0x3021 DUP6 CALLER PUSH2 0x2648 JUMP JUMPDEST ISZERO JUMPDEST ISZERO PUSH2 0x306E JUMPI PUSH1 0x0 DUP4 DUP2 MSTORE PUSH1 0xB PUSH1 0x20 SWAP1 DUP2 MSTORE PUSH1 0x40 DUP1 DUP4 KECCAK256 CALLER DUP5 MSTORE PUSH1 0x1 ADD SWAP1 SWAP2 MSTORE SWAP1 KECCAK256 SLOAD PUSH2 0x3050 SWAP1 DUP3 SWAP1 PUSH2 0x549C JUMP JUMPDEST PUSH1 0x0 DUP5 DUP2 MSTORE PUSH1 0xB PUSH1 0x20 SWAP1 DUP2 MSTORE PUSH1 0x40 DUP1 DUP4 KECCAK256 CALLER DUP5 MSTORE PUSH1 0x1 ADD SWAP1 SWAP2 MSTORE SWAP1 KECCAK256 SSTORE JUMPDEST PUSH1 0x0 DUP4 DUP2 MSTORE PUSH1 0xF PUSH1 0x20 MSTORE PUSH1 0x40 SWAP1 KECCAK256 SLOAD PUSH2 0x3088 SWAP1 DUP3 SWAP1 PUSH2 0x549C JUMP JUMPDEST PUSH1 0x0 DUP5 DUP2 MSTORE PUSH1 0xF PUSH1 0x20 MSTORE PUSH1 0x40 SWAP1 KECCAK256 SSTORE PUSH2 0x30A0 DUP3 PUSH2 0x280F JUMP JUMPDEST PUSH2 0x30BD JUMPI PUSH2 0x30B8 DUP5 DUP4 PUSH2 0x30B2 DUP7 PUSH2 0xAF6 JUMP JUMPDEST DUP5 PUSH2 0x4144 JUMP JUMPDEST PUSH2 0x3165 JUMP JUMPDEST DUP4 PUSH1 0x1 PUSH1 0x1 PUSH1 0xA0 SHL SUB AND PUSH2 0x30D0 DUP4 PUSH2 0xFFD JUMP JUMPDEST PUSH1 0x1 PUSH1 0x1 PUSH1 0xA0 SHL SUB AND EQ PUSH2 0x310C JUMPI PUSH1 0x40 MLOAD PUSH3 0x461BCD PUSH1 0xE5 SHL DUP2 MSTORE PUSH1 0x20 PUSH1 0x4 DUP3 ADD MSTORE PUSH1 0x3 PUSH1 0x24 DUP3 ADD MSTORE PUSH3 0x4E3131 PUSH1 0xE8 SHL PUSH1 0x44 DUP3 ADD MSTORE PUSH1 0x64 ADD PUSH2 0x97A JUMP JUMPDEST PUSH2 0x3115 DUP3 PUSH2 0xAF6 JUMP JUMPDEST PUSH2 0x311E DUP5 PUSH2 0xAF6 JUMP JUMPDEST EQ PUSH2 0x313B JUMPI PUSH1 0x40 MLOAD PUSH3 0x461BCD PUSH1 0xE5 SHL DUP2 MSTORE PUSH1 0x4 ADD PUSH2 0x97A SWAP1 PUSH2 0x5308 JUMP JUMPDEST PUSH1 0x0 DUP3 DUP2 MSTORE PUSH1 0xF PUSH1 0x20 MSTORE PUSH1 0x40 SWAP1 KECCAK256 SLOAD PUSH2 0x3155 SWAP1 DUP3 SWAP1 PUSH2 0x5451 JUMP JUMPDEST PUSH1 0x0 DUP4 DUP2 MSTORE PUSH1 0xF PUSH1 0x20 MSTORE PUSH1 0x40 SWAP1 KECCAK256 SSTORE JUMPDEST PUSH1 0x0 DUP4 DUP2 MSTORE PUSH1 0xA PUSH1 0x20 MSTORE PUSH1 0x40 DUP1 DUP3 KECCAK256 SLOAD DUP5 DUP4 MSTORE SWAP2 DUP2 SWAP1 KECCAK256 SWAP2 SWAP1 SWAP2 SSTORE MLOAD DUP4 SWAP1 PUSH1 0x1 PUSH1 0x1 PUSH1 0xA0 SHL SUB DUP1 DUP8 AND SWAP2 SWAP1 DUP9 AND SWAP1 PUSH1 0x0 DUP1 MLOAD PUSH1 0x20 PUSH2 0x562E DUP4 CODECOPY DUP2 MLOAD SWAP2 MSTORE SWAP1 PUSH2 0x31B0 SWAP1 DUP8 SWAP1 DUP8 SWAP1 PUSH2 0x525C JUMP JUMPDEST PUSH1 0x40 MLOAD DUP1 SWAP2 SUB SWAP1 LOG4 POP POP POP POP POP JUMP JUMPDEST PUSH1 0x0 PUSH1 0x64 PUSH1 0x19 PUSH1 0x0 SWAP1 SLOAD SWAP1 PUSH2 0x100 EXP SWAP1 DIV PUSH1 0x1 PUSH1 0x1 PUSH1 0xA0 SHL SUB AND PUSH1 0x1 PUSH1 0x1 PUSH1 0xA0 SHL SUB AND PUSH4 0xF3FA3495 PUSH1 0x40 MLOAD DUP2 PUSH4 0xFFFFFFFF AND PUSH1 0xE0 SHL DUP2 MSTORE PUSH1 0x4 ADD PUSH1 0x20 PUSH1 0x40 MLOAD DUP1 DUP4 SUB DUP2 DUP7 DUP1 EXTCODESIZE ISZERO DUP1 ISZERO PUSH2 0x3211 JUMPI PUSH1 0x0 DUP1 REVERT JUMPDEST POP GAS STATICCALL ISZERO DUP1 ISZERO PUSH2 0x3225 JUMPI RETURNDATASIZE PUSH1 0x0 DUP1 RETURNDATACOPY RETURNDATASIZE PUSH1 0x0 REVERT JUMPDEST POP POP POP POP PUSH1 0x40 MLOAD RETURNDATASIZE PUSH1 0x1F NOT PUSH1 0x1F DUP3 ADD AND DUP3 ADD DUP1 PUSH1 0x40 MSTORE POP DUP2 ADD SWAP1 PUSH2 0x3249 SWAP2 SWAP1 PUSH2 0x4ECE JUMP JUMPDEST PUSH2 0x3253 SWAP1 DUP5 PUSH2 0x547D JUMP JUMPDEST PUSH2 0x835 SWAP2 SWAP1 PUSH2 0x5469 JUMP JUMPDEST PUSH1 0x13 DUP1 SLOAD PUSH1 0x0 SWAP2 DUP3 PUSH2 0x326E DUP4 PUSH2 0x552B JUMP JUMPDEST SWAP2 SWAP1 POP SSTORE SWAP1 POP SWAP1 JUMP JUMPDEST PUSH2 0x3281 CALLER DUP5 PUSH2 0x289A JUMP JUMPDEST PUSH2 0x32B2 JUMPI PUSH1 0x40 MLOAD PUSH3 0x461BCD PUSH1 0xE5 SHL DUP2 MSTORE PUSH1 0x20 PUSH1 0x4 DUP3 ADD MSTORE PUSH1 0x2 PUSH1 0x24 DUP3 ADD MSTORE PUSH2 0x2719 PUSH1 0xF1 SHL PUSH1 0x44 DUP3 ADD MSTORE PUSH1 0x64 ADD PUSH2 0x97A JUMP JUMPDEST PUSH2 0x32BB DUP3 PUSH2 0x280F JUMP JUMPDEST ISZERO PUSH2 0x32ED JUMPI PUSH1 0x40 MLOAD PUSH3 0x461BCD PUSH1 0xE5 SHL DUP2 MSTORE PUSH1 0x20 PUSH1 0x4 DUP3 ADD MSTORE PUSH1 0x2 PUSH1 0x24 DUP3 ADD MSTORE PUSH2 0x4E33 PUSH1 0xF0 SHL PUSH1 0x44 DUP3 ADD MSTORE PUSH1 0x64 ADD PUSH2 0x97A JUMP JUMPDEST PUSH2 0x330C DUP3 PUSH2 0x32FA DUP6 PUSH2 0xAF6 JUMP JUMPDEST PUSH1 0x0 SWAP2 DUP3 MSTORE PUSH1 0xA PUSH1 0x20 MSTORE PUSH1 0x40 SWAP1 SWAP2 KECCAK256 SSTORE JUMP JUMPDEST PUSH1 0x0 DUP4 DUP2 MSTORE PUSH1 0xF PUSH1 0x20 MSTORE PUSH1 0x40 SWAP1 KECCAK256 SLOAD PUSH2 0x3326 SWAP1 DUP3 SWAP1 PUSH2 0x549C JUMP JUMPDEST PUSH1 0x0 DUP5 DUP2 MSTORE PUSH1 0xF PUSH1 0x20 MSTORE PUSH1 0x40 DUP2 KECCAK256 SWAP2 SWAP1 SWAP2 SSTORE PUSH2 0x3341 DUP5 PUSH2 0xFFD JUMP JUMPDEST SWAP1 POP PUSH2 0x3357 DUP2 DUP5 PUSH2 0x3351 DUP8 PUSH2 0xAF6 JUMP JUMPDEST DUP6 PUSH2 0x4144 JUMP JUMPDEST DUP4 DUP2 PUSH1 0x1 PUSH1 0x1 PUSH1 0xA0 SHL SUB AND PUSH32 0xF66885C33D648FCD0D97E0F2A18E30102169C22763473AF0FB716F11B4A17DD6 DUP6 DUP6 PUSH1 0x40 MLOAD PUSH2 0x3393 SWAP3 SWAP2 SWAP1 PUSH2 0x525C JUMP JUMPDEST PUSH1 0x40 MLOAD DUP1 SWAP2 SUB SWAP1 LOG3 POP POP POP POP JUMP JUMPDEST PUSH1 0x0 DUP3 DUP2 MSTORE PUSH1 0x14 PUSH1 0x20 MSTORE PUSH1 0x40 SWAP1 KECCAK256 DUP2 MLOAD DUP2 SLOAD DUP4 SWAP3 SWAP2 SWAP1 DUP3 SWAP1 PUSH1 0xFF NOT AND PUSH1 0x1 DUP4 PUSH1 0x3 DUP2 GT ISZERO PUSH2 0x33DF JUMPI PUSH4 0x4E487B71 PUSH1 0xE0 SHL PUSH1 0x0 MSTORE PUSH1 0x21 PUSH1 0x4 MSTORE PUSH1 0x24 PUSH1 0x0 REVERT JUMPDEST MUL OR SWAP1 SSTORE POP PUSH1 0x20 DUP3 ADD MLOAD DUP2 PUSH1 0x1 ADD SSTORE PUSH1 0x40 DUP3 ADD MLOAD DUP2 PUSH1 0x2 ADD SSTORE PUSH1 0x60 DUP3 ADD MLOAD DUP2 PUSH1 0x3 ADD SSTORE PUSH1 0x80 DUP3 ADD MLOAD DUP2 PUSH1 0x4 ADD SSTORE PUSH1 0xA0 DUP3 ADD MLOAD DUP2 PUSH1 0x5 ADD SSTORE PUSH1 0xC0 DUP3 ADD MLOAD DUP2 PUSH1 0x6 ADD PUSH1 0x0 PUSH2 0x100 EXP DUP2 SLOAD DUP2 PUSH1 0xFF MUL NOT AND SWAP1 DUP4 PUSH1 0x2 DUP2 GT ISZERO PUSH2 0x344E JUMPI PUSH4 0x4E487B71 PUSH1 0xE0 SHL PUSH1 0x0 MSTORE PUSH1 0x21 PUSH1 0x4 MSTORE PUSH1 0x24 PUSH1 0x0 REVERT JUMPDEST MUL OR SWAP1 SSTORE POP POP POP POP POP JUMP JUMPDEST PUSH1 0x18 SLOAD PUSH1 0x40 MLOAD PUSH4 0xEDD0D421 PUSH1 0xE0 SHL DUP2 MSTORE PUSH1 0x1 PUSH1 0x1 PUSH1 0xA0 SHL SUB SWAP1 SWAP2 AND SWAP1 PUSH4 0xEDD0D421 SWAP1 PUSH2 0x348D SWAP1 DUP7 SWAP1 DUP7 SWAP1 DUP7 SWAP1 PUSH1 0x4 ADD PUSH2 0x543B JUMP JUMPDEST PUSH1 0x0 PUSH1 0x40 MLOAD DUP1 DUP4 SUB DUP2 PUSH1 0x0 DUP8 DUP1 EXTCODESIZE ISZERO DUP1 ISZERO PUSH2 0x34A7 JUMPI PUSH1 0x0 DUP1 REVERT JUMPDEST POP GAS CALL ISZERO DUP1 ISZERO PUSH2 0x34BB JUMPI RETURNDATASIZE PUSH1 0x0 DUP1 RETURNDATACOPY RETURNDATASIZE PUSH1 0x0 REVERT JUMPDEST POP POP POP POP POP POP POP JUMP JUMPDEST PUSH1 0x6 DUP1 SLOAD PUSH1 0x1 PUSH1 0x1 PUSH1 0xA0 SHL SUB DUP4 DUP2 AND PUSH1 0x1 PUSH1 0x1 PUSH1 0xA0 SHL SUB NOT DUP4 AND DUP2 OR SWAP1 SWAP4 SSTORE PUSH1 0x40 MLOAD SWAP2 AND SWAP2 SWAP1 DUP3 SWAP1 PUSH32 0x8BE0079C531659141344CD1FD0A4F28419497F9722A3DAAFE3B4186F6B6457E0 SWAP1 PUSH1 0x0 SWAP1 LOG3 POP POP JUMP JUMPDEST PUSH1 0x0 PUSH2 0x835 DUP3 SLOAD SWAP1 JUMP JUMPDEST PUSH2 0x352B DUP5 DUP5 DUP5 PUSH2 0x2964 JUMP JUMPDEST PUSH2 0x3537 DUP5 DUP5 DUP5 DUP5 PUSH2 0x41CE JUMP JUMPDEST PUSH2 0xFF7 JUMPI PUSH1 0x40 MLOAD PUSH3 0x461BCD PUSH1 0xE5 SHL DUP2 MSTORE PUSH1 0x4 ADD PUSH2 0x97A SWAP1 PUSH2 0x5299 JUMP JUMPDEST PUSH2 0x355C CALLER PUSH2 0x1B57 JUMP JUMPDEST PUSH2 0x358D JUMPI PUSH1 0x40 MLOAD PUSH3 0x461BCD PUSH1 0xE5 SHL DUP2 MSTORE PUSH1 0x20 PUSH1 0x4 DUP3 ADD MSTORE PUSH1 0x2 PUSH1 0x24 DUP3 ADD MSTORE PUSH2 0x4E35 PUSH1 0xF0 SHL PUSH1 0x44 DUP3 ADD MSTORE PUSH1 0x64 ADD PUSH2 0x97A JUMP JUMPDEST DUP1 DUP3 EQ ISZERO PUSH2 0x35C2 JUMPI PUSH1 0x40 MLOAD PUSH3 0x461BCD PUSH1 0xE5 SHL DUP2 MSTORE PUSH1 0x20 PUSH1 0x4 DUP3 ADD MSTORE PUSH1 0x2 PUSH1 0x24 DUP3 ADD MSTORE PUSH2 0x271B PUSH1 0xF1 SHL PUSH1 0x44 DUP3 ADD MSTORE PUSH1 0x64 ADD PUSH2 0x97A JUMP JUMPDEST PUSH2 0x35CB DUP2 PUSH2 0xAF6 JUMP JUMPDEST PUSH2 0x35D4 DUP4 PUSH2 0xAF6 JUMP JUMPDEST EQ PUSH2 0x35F1 JUMPI PUSH1 0x40 MLOAD PUSH3 0x461BCD PUSH1 0xE5 SHL DUP2 MSTORE PUSH1 0x4 ADD PUSH2 0x97A SWAP1 PUSH2 0x5308 JUMP JUMPDEST PUSH1 0x0 PUSH2 0x35FC DUP4 PUSH2 0xFFD JUMP JUMPDEST SWAP1 POP PUSH2 0x3607 DUP3 PUSH2 0xFFD JUMP JUMPDEST PUSH1 0x1 PUSH1 0x1 PUSH1 0xA0 SHL SUB AND DUP2 PUSH1 0x1 PUSH1 0x1 PUSH1 0xA0 SHL SUB AND EQ PUSH2 0x364C JUMPI PUSH1 0x40 MLOAD PUSH3 0x461BCD PUSH1 0xE5 SHL DUP2 MSTORE PUSH1 0x20 PUSH1 0x4 DUP3 ADD MSTORE PUSH1 0x2 PUSH1 0x24 DUP3 ADD MSTORE PUSH2 0x9C7 PUSH1 0xF3 SHL PUSH1 0x44 DUP3 ADD MSTORE PUSH1 0x64 ADD PUSH2 0x97A JUMP JUMPDEST PUSH1 0x0 DUP4 DUP2 MSTORE PUSH1 0xF PUSH1 0x20 MSTORE PUSH1 0x40 DUP1 DUP3 KECCAK256 SLOAD DUP5 DUP4 MSTORE SWAP2 KECCAK256 SLOAD PUSH2 0x366C SWAP1 DUP3 PUSH2 0x5451 JUMP JUMPDEST PUSH1 0x0 DUP5 DUP2 MSTORE PUSH1 0xF PUSH1 0x20 MSTORE PUSH1 0x40 SWAP1 KECCAK256 SSTORE PUSH2 0x3684 DUP5 PUSH2 0x2D13 JUMP JUMPDEST DUP3 DUP5 DUP4 PUSH1 0x1 PUSH1 0x1 PUSH1 0xA0 SHL SUB AND PUSH32 0xB3CE851D16B3BBEC3774D5631A3893DFA2A80E067CFAD265DD594402AC3D6096 DUP5 PUSH1 0x40 MLOAD PUSH2 0x36C1 SWAP2 DUP2 MSTORE PUSH1 0x20 ADD SWAP1 JUMP JUMPDEST PUSH1 0x40 MLOAD DUP1 SWAP2 SUB SWAP1 LOG4 POP POP POP POP JUMP JUMPDEST PUSH1 0x0 DUP4 DUP4 DUP4 DUP8 PUSH1 0x40 MLOAD PUSH1 0x20 ADD PUSH2 0x36E8 SWAP5 SWAP4 SWAP3 SWAP2 SWAP1 PUSH2 0x53F2 JUMP JUMPDEST PUSH1 0x40 DUP1 MLOAD DUP1 DUP4 SUB PUSH1 0x1F NOT ADD DUP2 MSTORE SWAP2 DUP2 MSTORE DUP2 MLOAD PUSH1 0x20 SWAP3 DUP4 ADD KECCAK256 PUSH1 0x0 DUP2 DUP2 MSTORE PUSH1 0x1A SWAP1 SWAP4 MSTORE SWAP2 KECCAK256 PUSH1 0x2 ADD SLOAD SWAP1 SWAP2 POP PUSH2 0x100 SWAP1 DIV PUSH1 0xFF AND ISZERO PUSH2 0x374E JUMPI PUSH1 0x40 MLOAD PUSH3 0x461BCD PUSH1 0xE5 SHL DUP2 MSTORE PUSH1 0x20 PUSH1 0x4 DUP3 ADD MSTORE PUSH1 0x3 PUSH1 0x24 DUP3 ADD MSTORE PUSH3 0x138C4D PUSH1 0xEA SHL PUSH1 0x44 DUP3 ADD MSTORE PUSH1 0x64 ADD PUSH2 0x97A JUMP JUMPDEST PUSH1 0x40 MLOAD DUP1 PUSH1 0x80 ADD PUSH1 0x40 MSTORE DUP1 DUP6 DUP2 MSTORE PUSH1 0x20 ADD DUP5 DUP2 MSTORE PUSH1 0x20 ADD DUP4 PUSH1 0x2 DUP2 GT ISZERO PUSH2 0x3785 JUMPI PUSH4 0x4E487B71 PUSH1 0xE0 SHL PUSH1 0x0 MSTORE PUSH1 0x21 PUSH1 0x4 MSTORE PUSH1 0x24 PUSH1 0x0 REVERT JUMPDEST DUP2 MSTORE PUSH1 0x1 PUSH1 0x20 SWAP2 DUP3 ADD DUP2 SWAP1 MSTORE PUSH1 0x0 DUP5 DUP2 MSTORE PUSH1 0x1A DUP4 MSTORE PUSH1 0x40 SWAP1 DUP2 SWAP1 KECCAK256 DUP5 MLOAD DUP2 SSTORE SWAP3 DUP5 ADD MLOAD DUP4 DUP4 ADD SSTORE DUP4 ADD MLOAD PUSH1 0x2 DUP1 DUP5 ADD DUP1 SLOAD SWAP3 SWAP4 SWAP1 SWAP3 PUSH1 0xFF NOT AND SWAP2 DUP5 SWAP1 DUP2 GT ISZERO PUSH2 0x37DE JUMPI PUSH4 0x4E487B71 PUSH1 0xE0 SHL PUSH1 0x0 MSTORE PUSH1 0x21 PUSH1 0x4 MSTORE PUSH1 0x24 PUSH1 0x0 REVERT JUMPDEST MUL OR SWAP1 SSTORE POP PUSH1 0x60 SWAP2 SWAP1 SWAP2 ADD MLOAD PUSH1 0x2 SWAP1 SWAP2 ADD DUP1 SLOAD SWAP2 ISZERO ISZERO PUSH2 0x100 MUL PUSH2 0xFF00 NOT SWAP1 SWAP3 AND SWAP2 SWAP1 SWAP2 OR SWAP1 SSTORE SWAP5 SWAP4 POP POP POP POP JUMP JUMPDEST PUSH1 0x0 DUP4 DUP2 MSTORE PUSH1 0xA PUSH1 0x20 MSTORE PUSH1 0x40 SWAP1 KECCAK256 DUP2 SWAP1 SSTORE PUSH1 0xD SLOAD PUSH2 0xAAB SWAP1 DUP4 SWAP1 DUP6 SWAP1 DUP5 SWAP1 PUSH2 0x4144 JUMP JUMPDEST PUSH2 0xB9F DUP3 DUP3 PUSH2 0x42DB JUMP JUMPDEST PUSH1 0x0 PUSH1 0x64 PUSH1 0x19 PUSH1 0x0 SWAP1 SLOAD SWAP1 PUSH2 0x100 EXP SWAP1 DIV PUSH1 0x1 PUSH1 0x1 PUSH1 0xA0 SHL SUB AND PUSH1 0x1 PUSH1 0x1 PUSH1 0xA0 SHL SUB AND PUSH4 0xCA535C3B PUSH1 0x40 MLOAD DUP2 PUSH4 0xFFFFFFFF AND PUSH1 0xE0 SHL DUP2 MSTORE PUSH1 0x4 ADD PUSH1 0x20 PUSH1 0x40 MLOAD DUP1 DUP4 SUB DUP2 DUP7 DUP1 EXTCODESIZE ISZERO DUP1 ISZERO PUSH2 0x388C JUMPI PUSH1 0x0 DUP1 REVERT JUMPDEST POP GAS STATICCALL ISZERO DUP1 ISZERO PUSH2 0x38A0 JUMPI RETURNDATASIZE PUSH1 0x0 DUP1 RETURNDATACOPY RETURNDATASIZE PUSH1 0x0 REVERT JUMPDEST POP POP POP POP PUSH1 0x40 MLOAD RETURNDATASIZE PUSH1 0x1F NOT PUSH1 0x1F DUP3 ADD AND DUP3 ADD DUP1 PUSH1 0x40 MSTORE POP DUP2 ADD SWAP1 PUSH2 0x38C4 SWAP2 SWAP1 PUSH2 0x4ECE JUMP JUMPDEST PUSH2 0x38CE SWAP1 DUP6 PUSH2 0x547D JUMP JUMPDEST PUSH2 0x38D8 SWAP2 SWAP1 PUSH2 0x5469 JUMP JUMPDEST SWAP1 POP DUP1 ISZERO PUSH2 0x39D9 JUMPI PUSH1 0x10 SLOAD PUSH1 0x19 SLOAD PUSH1 0x40 DUP1 MLOAD PUSH4 0x605CC77 PUSH1 0xE2 SHL DUP2 MSTORE SWAP1 MLOAD PUSH1 0x1 PUSH1 0x1 PUSH1 0xA0 SHL SUB SWAP4 DUP5 AND SWAP4 PUSH4 0xA9059CBB SWAP4 AND SWAP2 PUSH4 0x181731DC SWAP2 PUSH1 0x4 DUP1 DUP4 ADD SWAP3 PUSH1 0x20 SWAP3 SWAP2 SWAP1 DUP3 SWAP1 SUB ADD DUP2 DUP7 DUP1 EXTCODESIZE ISZERO DUP1 ISZERO PUSH2 0x392F JUMPI PUSH1 0x0 DUP1 REVERT JUMPDEST POP GAS STATICCALL ISZERO DUP1 ISZERO PUSH2 0x3943 JUMPI RETURNDATASIZE PUSH1 0x0 DUP1 RETURNDATACOPY RETURNDATASIZE PUSH1 0x0 REVERT JUMPDEST POP POP POP POP PUSH1 0x40 MLOAD RETURNDATASIZE PUSH1 0x1F NOT PUSH1 0x1F DUP3 ADD AND DUP3 ADD DUP1 PUSH1 0x40 MSTORE POP DUP2 ADD SWAP1 PUSH2 0x3967 SWAP2 SWAP1 PUSH2 0x4B85 JUMP JUMPDEST DUP4 PUSH1 0x40 MLOAD DUP4 PUSH4 0xFFFFFFFF AND PUSH1 0xE0 SHL DUP2 MSTORE PUSH1 0x4 ADD PUSH2 0x3985 SWAP3 SWAP2 SWAP1 PUSH2 0x51B1 JUMP JUMPDEST PUSH1 0x20 PUSH1 0x40 MLOAD DUP1 DUP4 SUB DUP2 PUSH1 0x0 DUP8 DUP1 EXTCODESIZE ISZERO DUP1 ISZERO PUSH2 0x399F JUMPI PUSH1 0x0 DUP1 REVERT JUMPDEST POP GAS CALL ISZERO DUP1 ISZERO PUSH2 0x39B3 JUMPI RETURNDATASIZE PUSH1 0x0 DUP1 RETURNDATACOPY RETURNDATASIZE PUSH1 0x0 REVERT JUMPDEST POP POP POP POP PUSH1 0x40 MLOAD RETURNDATASIZE PUSH1 0x1F NOT PUSH1 0x1F DUP3 ADD AND DUP3 ADD DUP1 PUSH1 0x40 MSTORE POP DUP2 ADD SWAP1 PUSH2 0x39D7 SWAP2 SWAP1 PUSH2 0x4E3E JUMP JUMPDEST POP JUMPDEST PUSH1 0x0 PUSH2 0x39E5 DUP3 DUP6 PUSH2 0x549C JUMP JUMPDEST SWAP1 POP DUP1 ISZERO PUSH2 0x3CF4 JUMPI PUSH1 0x19 SLOAD PUSH1 0x40 DUP1 MLOAD PUSH4 0x4905129F PUSH1 0xE1 SHL DUP2 MSTORE SWAP1 MLOAD PUSH1 0x0 SWAP3 PUSH1 0x1 PUSH1 0x1 PUSH1 0xA0 SHL SUB AND SWAP2 PUSH4 0x920A253E SWAP2 PUSH1 0x4 DUP1 DUP4 ADD SWAP3 PUSH1 0x20 SWAP3 SWAP2 SWAP1 DUP3 SWAP1 SUB ADD DUP2 DUP7 DUP1 EXTCODESIZE ISZERO DUP1 ISZERO PUSH2 0x3A32 JUMPI PUSH1 0x0 DUP1 REVERT JUMPDEST POP GAS STATICCALL ISZERO DUP1 ISZERO PUSH2 0x3A46 JUMPI RETURNDATASIZE PUSH1 0x0 DUP1 RETURNDATACOPY RETURNDATASIZE PUSH1 0x0 REVERT JUMPDEST POP POP POP POP PUSH1 0x40 MLOAD RETURNDATASIZE PUSH1 0x1F NOT PUSH1 0x1F DUP3 ADD AND DUP3 ADD DUP1 PUSH1 0x40 MSTORE POP DUP2 ADD SWAP1 PUSH2 0x3A6A SWAP2 SWAP1 PUSH2 0x4ECE JUMP JUMPDEST GT DUP1 ISZERO PUSH2 0x3A90 JUMPI POP PUSH2 0x3A7A PUSH2 0x172C JUMP JUMPDEST PUSH1 0x1 PUSH1 0x1 PUSH1 0xA0 SHL SUB AND DUP4 PUSH1 0x1 PUSH1 0x1 PUSH1 0xA0 SHL SUB AND EQ ISZERO JUMPDEST DUP1 ISZERO PUSH2 0x3AA5 JUMPI POP PUSH1 0x1 PUSH1 0x1 PUSH1 0xA0 SHL SUB DUP4 AND CALLER EQ ISZERO JUMPDEST ISZERO PUSH2 0x3C1F JUMPI PUSH1 0x0 PUSH1 0x64 PUSH1 0x19 PUSH1 0x0 SWAP1 SLOAD SWAP1 PUSH2 0x100 EXP SWAP1 DIV PUSH1 0x1 PUSH1 0x1 PUSH1 0xA0 SHL SUB AND PUSH1 0x1 PUSH1 0x1 PUSH1 0xA0 SHL SUB AND PUSH4 0x920A253E PUSH1 0x40 MLOAD DUP2 PUSH4 0xFFFFFFFF AND PUSH1 0xE0 SHL DUP2 MSTORE PUSH1 0x4 ADD PUSH1 0x20 PUSH1 0x40 MLOAD DUP1 DUP4 SUB DUP2 DUP7 DUP1 EXTCODESIZE ISZERO DUP1 ISZERO PUSH2 0x3AFC JUMPI PUSH1 0x0 DUP1 REVERT JUMPDEST POP GAS STATICCALL ISZERO DUP1 ISZERO PUSH2 0x3B10 JUMPI RETURNDATASIZE PUSH1 0x0 DUP1 RETURNDATACOPY RETURNDATASIZE PUSH1 0x0 REVERT JUMPDEST POP POP POP POP PUSH1 0x40 MLOAD RETURNDATASIZE PUSH1 0x1F NOT PUSH1 0x1F DUP3 ADD AND DUP3 ADD DUP1 PUSH1 0x40 MSTORE POP DUP2 ADD SWAP1 PUSH2 0x3B34 SWAP2 SWAP1 PUSH2 0x4ECE JUMP JUMPDEST PUSH2 0x3B3E SWAP1 DUP5 PUSH2 0x547D JUMP JUMPDEST PUSH2 0x3B48 SWAP2 SWAP1 PUSH2 0x5469 JUMP JUMPDEST SWAP1 POP PUSH2 0x3B54 DUP2 DUP4 PUSH2 0x549C JUMP JUMPDEST PUSH1 0x10 SLOAD PUSH1 0x40 MLOAD PUSH4 0xA9059CBB PUSH1 0xE0 SHL DUP2 MSTORE SWAP2 SWAP4 POP PUSH1 0x1 PUSH1 0x1 PUSH1 0xA0 SHL SUB AND SWAP1 PUSH4 0xA9059CBB SWAP1 PUSH2 0x3B87 SWAP1 DUP8 SWAP1 DUP6 SWAP1 PUSH1 0x4 ADD PUSH2 0x51B1 JUMP JUMPDEST PUSH1 0x20 PUSH1 0x40 MLOAD DUP1 DUP4 SUB DUP2 PUSH1 0x0 DUP8 DUP1 EXTCODESIZE ISZERO DUP1 ISZERO PUSH2 0x3BA1 JUMPI PUSH1 0x0 DUP1 REVERT JUMPDEST POP GAS CALL ISZERO DUP1 ISZERO PUSH2 0x3BB5 JUMPI RETURNDATASIZE PUSH1 0x0 DUP1 RETURNDATACOPY RETURNDATASIZE PUSH1 0x0 REVERT JUMPDEST POP POP POP POP PUSH1 0x40 MLOAD RETURNDATASIZE PUSH1 0x1F NOT PUSH1 0x1F DUP3 ADD AND DUP3 ADD DUP1 PUSH1 0x40 MSTORE POP DUP2 ADD SWAP1 PUSH2 0x3BD9 SWAP2 SWAP1 PUSH2 0x4E3E JUMP JUMPDEST POP DUP4 PUSH1 0x1 PUSH1 0x1 PUSH1 0xA0 SHL SUB AND PUSH32 0x2FC41B7D7DF3272C17D9B581FCF235307BC027599C6ED68442C4100BD3A84198 DUP3 PUSH1 0x40 MLOAD PUSH2 0x3C15 SWAP2 DUP2 MSTORE PUSH1 0x20 ADD SWAP1 JUMP JUMPDEST PUSH1 0x40 MLOAD DUP1 SWAP2 SUB SWAP1 LOG2 POP JUMPDEST PUSH1 0x10 SLOAD PUSH1 0x1 PUSH1 0x1 PUSH1 0xA0 SHL SUB AND PUSH4 0xA9059CBB PUSH2 0x3C38 PUSH2 0x172C JUMP JUMPDEST DUP4 PUSH1 0x40 MLOAD DUP4 PUSH4 0xFFFFFFFF AND PUSH1 0xE0 SHL DUP2 MSTORE PUSH1 0x4 ADD PUSH2 0x3C56 SWAP3 SWAP2 SWAP1 PUSH2 0x51B1 JUMP JUMPDEST PUSH1 0x20 PUSH1 0x40 MLOAD DUP1 DUP4 SUB DUP2 PUSH1 0x0 DUP8 DUP1 EXTCODESIZE ISZERO DUP1 ISZERO PUSH2 0x3C70 JUMPI PUSH1 0x0 DUP1 REVERT JUMPDEST POP GAS CALL ISZERO DUP1 ISZERO PUSH2 0x3C84 JUMPI RETURNDATASIZE PUSH1 0x0 DUP1 RETURNDATACOPY RETURNDATASIZE PUSH1 0x0 REVERT JUMPDEST POP POP POP POP PUSH1 0x40 MLOAD RETURNDATASIZE PUSH1 0x1F NOT PUSH1 0x1F DUP3 ADD AND DUP3 ADD DUP1 PUSH1 0x40 MSTORE POP DUP2 ADD SWAP1 PUSH2 0x3CA8 SWAP2 SWAP1 PUSH2 0x4E3E JUMP JUMPDEST POP PUSH2 0x3CB1 PUSH2 0x172C JUMP JUMPDEST PUSH1 0x1 PUSH1 0x1 PUSH1 0xA0 SHL SUB AND PUSH32 0xF0F0487D8990103573E0E5CF4E87E101E2A1BA84C733C556B7A5807E570E5D4C DUP3 PUSH1 0x40 MLOAD PUSH2 0x3CEB SWAP2 DUP2 MSTORE PUSH1 0x20 ADD SWAP1 JUMP JUMPDEST PUSH1 0x40 MLOAD DUP1 SWAP2 SUB SWAP1 LOG2 JUMPDEST POP SWAP3 SWAP2 POP POP JUMP JUMPDEST PUSH1 0x60 PUSH2 0x3D06 DUP3 PUSH2 0x280F JUMP JUMPDEST PUSH2 0x3D6C JUMPI PUSH1 0x40 MLOAD PUSH3 0x461BCD PUSH1 0xE5 SHL DUP2 MSTORE PUSH1 0x20 PUSH1 0x4 DUP3 ADD MSTORE PUSH1 0x31 PUSH1 0x24 DUP3 ADD MSTORE PUSH32 0x45524337323155524953746F726167653A2055524920717565727920666F7220 PUSH1 0x44 DUP3 ADD MSTORE PUSH17 0x3737B732BC34B9BA32B73A103A37B5B2B7 PUSH1 0x79 SHL PUSH1 0x64 DUP3 ADD MSTORE PUSH1 0x84 ADD PUSH2 0x97A JUMP JUMPDEST PUSH1 0x0 DUP3 DUP2 MSTORE PUSH1 0x9 PUSH1 0x20 MSTORE PUSH1 0x40 DUP2 KECCAK256 DUP1 SLOAD PUSH2 0x3D85 SWAP1 PUSH2 0x54F6 JUMP JUMPDEST DUP1 PUSH1 0x1F ADD PUSH1 0x20 DUP1 SWAP2 DIV MUL PUSH1 0x20 ADD PUSH1 0x40 MLOAD SWAP1 DUP2 ADD PUSH1 0x40 MSTORE DUP1 SWAP3 SWAP2 SWAP1 DUP2 DUP2 MSTORE PUSH1 0x20 ADD DUP3 DUP1 SLOAD PUSH2 0x3DB1 SWAP1 PUSH2 0x54F6 JUMP JUMPDEST DUP1 ISZERO PUSH2 0x3DFE JUMPI DUP1 PUSH1 0x1F LT PUSH2 0x3DD3 JUMPI PUSH2 0x100 DUP1 DUP4 SLOAD DIV MUL DUP4 MSTORE SWAP2 PUSH1 0x20 ADD SWAP2 PUSH2 0x3DFE JUMP JUMPDEST DUP3 ADD SWAP2 SWAP1 PUSH1 0x0 MSTORE PUSH1 0x20 PUSH1 0x0 KECCAK256 SWAP1 JUMPDEST DUP2 SLOAD DUP2 MSTORE SWAP1 PUSH1 0x1 ADD SWAP1 PUSH1 0x20 ADD DUP1 DUP4 GT PUSH2 0x3DE1 JUMPI DUP3 SWAP1 SUB PUSH1 0x1F AND DUP3 ADD SWAP2 JUMPDEST POP POP POP POP POP SWAP1 POP PUSH1 0x0 PUSH2 0x3E0F PUSH2 0x4366 JUMP JUMPDEST SWAP1 POP DUP1 MLOAD PUSH1 0x0 EQ ISZERO PUSH2 0x3E22 JUMPI POP SWAP3 SWAP2 POP POP JUMP JUMPDEST DUP2 MLOAD ISZERO PUSH2 0x3E54 JUMPI DUP1 DUP3 PUSH1 0x40 MLOAD PUSH1 0x20 ADD PUSH2 0x3E3C SWAP3 SWAP2 SWAP1 PUSH2 0x50D6 JUMP JUMPDEST PUSH1 0x40 MLOAD PUSH1 0x20 DUP2 DUP4 SUB SUB DUP2 MSTORE SWAP1 PUSH1 0x40 MSTORE SWAP3 POP POP POP SWAP2 SWAP1 POP JUMP JUMPDEST PUSH2 0x295C DUP5 PUSH2 0x4386 JUMP JUMPDEST PUSH1 0x0 PUSH2 0x23AF DUP4 DUP4 PUSH2 0x4450 JUMP JUMPDEST PUSH1 0x0 PUSH1 0x1 PUSH1 0x1 PUSH1 0xE0 SHL SUB NOT DUP3 AND PUSH4 0x80AC58CD PUSH1 0xE0 SHL EQ DUP1 PUSH2 0x3E9A JUMPI POP PUSH1 0x1 PUSH1 0x1 PUSH1 0xE0 SHL SUB NOT DUP3 AND PUSH4 0x5B5E139F PUSH1 0xE0 SHL EQ JUMPDEST DUP1 PUSH2 0x835 JUMPI POP PUSH4 0x1FFC9A7 PUSH1 0xE0 SHL PUSH1 0x1 PUSH1 0x1 PUSH1 0xE0 SHL SUB NOT DUP4 AND EQ PUSH2 0x835 JUMP JUMPDEST PUSH1 0x1 PUSH1 0x1 PUSH1 0xA0 SHL SUB DUP4 AND ISZERO PUSH2 0xAAB JUMPI PUSH2 0xAAB DUP2 PUSH2 0x4488 JUMP JUMPDEST PUSH1 0x60 PUSH1 0x0 PUSH2 0x3EE0 DUP4 PUSH1 0x2 PUSH2 0x547D JUMP JUMPDEST PUSH2 0x3EEB SWAP1 PUSH1 0x2 PUSH2 0x5451 JUMP JUMPDEST PUSH1 0x1 PUSH1 0x1 PUSH1 0x40 SHL SUB DUP2 GT ISZERO PUSH2 0x3F10 JUMPI PUSH4 0x4E487B71 PUSH1 0xE0 SHL PUSH1 0x0 MSTORE PUSH1 0x41 PUSH1 0x4 MSTORE PUSH1 0x24 PUSH1 0x0 REVERT JUMPDEST PUSH1 0x40 MLOAD SWAP1 DUP1 DUP3 MSTORE DUP1 PUSH1 0x1F ADD PUSH1 0x1F NOT AND PUSH1 0x20 ADD DUP3 ADD PUSH1 0x40 MSTORE DUP1 ISZERO PUSH2 0x3F3A JUMPI PUSH1 0x20 DUP3 ADD DUP2 DUP1 CALLDATASIZE DUP4 CALLDATACOPY ADD SWAP1 POP JUMPDEST POP SWAP1 POP PUSH1 0x3 PUSH1 0xFC SHL DUP2 PUSH1 0x0 DUP2 MLOAD DUP2 LT PUSH2 0x3F63 JUMPI PUSH4 0x4E487B71 PUSH1 0xE0 SHL PUSH1 0x0 MSTORE PUSH1 0x32 PUSH1 0x4 MSTORE PUSH1 0x24 PUSH1 0x0 REVERT JUMPDEST PUSH1 0x20 ADD ADD SWAP1 PUSH1 0x1 PUSH1 0x1 PUSH1 0xF8 SHL SUB NOT AND SWAP1 DUP2 PUSH1 0x0 BYTE SWAP1 MSTORE8 POP PUSH1 0xF PUSH1 0xFB SHL DUP2 PUSH1 0x1 DUP2 MLOAD DUP2 LT PUSH2 0x3FA0 JUMPI PUSH4 0x4E487B71 PUSH1 0xE0 SHL PUSH1 0x0 MSTORE PUSH1 0x32 PUSH1 0x4 MSTORE PUSH1 0x24 PUSH1 0x0 REVERT JUMPDEST PUSH1 0x20 ADD ADD SWAP1 PUSH1 0x1 PUSH1 0x1 PUSH1 0xF8 SHL SUB NOT AND SWAP1 DUP2 PUSH1 0x0 BYTE SWAP1 MSTORE8 POP PUSH1 0x0 PUSH2 0x3FC4 DUP5 PUSH1 0x2 PUSH2 0x547D JUMP JUMPDEST PUSH2 0x3FCF SWAP1 PUSH1 0x1 PUSH2 0x5451 JUMP JUMPDEST SWAP1 POP JUMPDEST PUSH1 0x1 DUP2 GT ISZERO PUSH2 0x4063 JUMPI PUSH16 0x181899199A1A9B1B9C1CB0B131B232B3 PUSH1 0x81 SHL DUP6 PUSH1 0xF AND PUSH1 0x10 DUP2 LT PUSH2 0x4011 JUMPI PUSH4 0x4E487B71 PUSH1 0xE0 SHL PUSH1 0x0 MSTORE PUSH1 0x32 PUSH1 0x4 MSTORE PUSH1 0x24 PUSH1 0x0 REVERT JUMPDEST BYTE PUSH1 0xF8 SHL DUP3 DUP3 DUP2 MLOAD DUP2 LT PUSH2 0x4035 JUMPI PUSH4 0x4E487B71 PUSH1 0xE0 SHL PUSH1 0x0 MSTORE PUSH1 0x32 PUSH1 0x4 MSTORE PUSH1 0x24 PUSH1 0x0 REVERT JUMPDEST PUSH1 0x20 ADD ADD SWAP1 PUSH1 0x1 PUSH1 0x1 PUSH1 0xF8 SHL SUB NOT AND SWAP1 DUP2 PUSH1 0x0 BYTE SWAP1 MSTORE8 POP PUSH1 0x4 SWAP5 SWAP1 SWAP5 SHR SWAP4 PUSH2 0x405C DUP2 PUSH2 0x54DF JUMP JUMPDEST SWAP1 POP PUSH2 0x3FD2 JUMP JUMPDEST POP DUP4 ISZERO PUSH2 0x23AF JUMPI PUSH1 0x40 MLOAD PUSH3 0x461BCD PUSH1 0xE5 SHL DUP2 MSTORE PUSH1 0x20 PUSH1 0x4 DUP3 ADD DUP2 SWAP1 MSTORE PUSH1 0x24 DUP3 ADD MSTORE PUSH32 0x537472696E67733A20686578206C656E67746820696E73756666696369656E74 PUSH1 0x44 DUP3 ADD MSTORE PUSH1 0x64 ADD PUSH2 0x97A JUMP JUMPDEST PUSH1 0x0 PUSH2 0x40BD DUP3 PUSH2 0xFFD JUMP JUMPDEST SWAP1 POP PUSH1 0x0 PUSH2 0x40CA DUP4 PUSH2 0xAF6 JUMP JUMPDEST PUSH1 0x0 DUP5 DUP2 MSTORE PUSH1 0xF PUSH1 0x20 SWAP1 DUP2 MSTORE PUSH1 0x40 DUP1 DUP4 KECCAK256 SLOAD DUP5 DUP5 MSTORE PUSH1 0xC SWAP1 SWAP3 MSTORE SWAP1 SWAP2 KECCAK256 SWAP2 SWAP3 POP SWAP1 PUSH2 0x40F5 SWAP1 DUP6 PUSH2 0x453C JUMP JUMPDEST POP PUSH1 0x0 DUP5 DUP2 MSTORE PUSH1 0xF PUSH1 0x20 MSTORE PUSH1 0x40 DUP2 KECCAK256 SSTORE PUSH2 0x410E DUP5 PUSH2 0x4548 JUMP JUMPDEST DUP4 PUSH1 0x0 PUSH1 0x1 PUSH1 0x1 PUSH1 0xA0 SHL SUB AND DUP5 PUSH1 0x1 PUSH1 0x1 PUSH1 0xA0 SHL SUB AND PUSH1 0x0 DUP1 MLOAD PUSH1 0x20 PUSH2 0x562E DUP4 CODECOPY DUP2 MLOAD SWAP2 MSTORE PUSH1 0x0 DUP6 PUSH1 0x40 MLOAD PUSH2 0x36C1 SWAP3 SWAP2 SWAP1 PUSH2 0x525C JUMP JUMPDEST PUSH2 0x414D DUP4 PUSH2 0x280F JUMP JUMPDEST PUSH2 0x4175 JUMPI PUSH2 0x415B DUP5 DUP5 PUSH2 0x45DD JUMP JUMPDEST PUSH1 0x0 DUP3 DUP2 MSTORE PUSH1 0xC PUSH1 0x20 MSTORE PUSH1 0x40 SWAP1 KECCAK256 PUSH2 0x4173 SWAP1 DUP5 PUSH2 0x4709 JUMP JUMPDEST POP JUMPDEST PUSH1 0x0 DUP4 DUP2 MSTORE PUSH1 0xF PUSH1 0x20 MSTORE PUSH1 0x40 SWAP1 KECCAK256 SLOAD PUSH2 0x418F SWAP1 DUP3 SWAP1 PUSH2 0x5451 JUMP JUMPDEST PUSH1 0x0 DUP5 DUP2 MSTORE PUSH1 0xF PUSH1 0x20 MSTORE PUSH1 0x40 DUP1 DUP3 KECCAK256 SWAP3 SWAP1 SWAP3 SSTORE SWAP1 MLOAD PUSH1 0x1 PUSH1 0x1 PUSH1 0xA0 SHL SUB DUP7 AND SWAP1 DUP3 SWAP1 PUSH1 0x0 DUP1 MLOAD PUSH1 0x20 PUSH2 0x562E DUP4 CODECOPY DUP2 MLOAD SWAP2 MSTORE SWAP1 PUSH2 0x36C1 SWAP1 DUP9 SWAP1 DUP8 SWAP1 PUSH2 0x525C JUMP JUMPDEST PUSH1 0x0 PUSH1 0x1 PUSH1 0x1 PUSH1 0xA0 SHL SUB DUP5 AND EXTCODESIZE ISZERO PUSH2 0x42D0 JUMPI PUSH1 0x40 MLOAD PUSH4 0xA85BD01 PUSH1 0xE1 SHL DUP2 MSTORE PUSH1 0x1 PUSH1 0x1 PUSH1 0xA0 SHL SUB DUP6 AND SWAP1 PUSH4 0x150B7A02 SWAP1 PUSH2 0x4212 SWAP1 CALLER SWAP1 DUP10 SWAP1 DUP9 SWAP1 DUP9 SWAP1 PUSH1 0x4 ADD PUSH2 0x5174 JUMP JUMPDEST PUSH1 0x20 PUSH1 0x40 MLOAD DUP1 DUP4 SUB DUP2 PUSH1 0x0 DUP8 DUP1 EXTCODESIZE ISZERO DUP1 ISZERO PUSH2 0x422C JUMPI PUSH1 0x0 DUP1 REVERT JUMPDEST POP GAS CALL SWAP3 POP POP POP DUP1 ISZERO PUSH2 0x425C JUMPI POP PUSH1 0x40 DUP1 MLOAD PUSH1 0x1F RETURNDATASIZE SWAP1 DUP2 ADD PUSH1 0x1F NOT AND DUP3 ADD SWAP1 SWAP3 MSTORE PUSH2 0x4259 SWAP2 DUP2 ADD SWAP1 PUSH2 0x4EB2 JUMP JUMPDEST PUSH1 0x1 JUMPDEST PUSH2 0x42B6 JUMPI RETURNDATASIZE DUP1 DUP1 ISZERO PUSH2 0x428A JUMPI PUSH1 0x40 MLOAD SWAP2 POP PUSH1 0x1F NOT PUSH1 0x3F RETURNDATASIZE ADD AND DUP3 ADD PUSH1 0x40 MSTORE RETURNDATASIZE DUP3 MSTORE RETURNDATASIZE PUSH1 0x0 PUSH1 0x20 DUP5 ADD RETURNDATACOPY PUSH2 0x428F JUMP JUMPDEST PUSH1 0x60 SWAP2 POP JUMPDEST POP DUP1 MLOAD PUSH2 0x42AE JUMPI PUSH1 0x40 MLOAD PUSH3 0x461BCD PUSH1 0xE5 SHL DUP2 MSTORE PUSH1 0x4 ADD PUSH2 0x97A SWAP1 PUSH2 0x5299 JUMP JUMPDEST DUP1 MLOAD DUP2 PUSH1 0x20 ADD REVERT JUMPDEST PUSH1 0x1 PUSH1 0x1 PUSH1 0xE0 SHL SUB NOT AND PUSH4 0xA85BD01 PUSH1 0xE1 SHL EQ SWAP1 POP PUSH2 0x295C JUMP JUMPDEST POP PUSH1 0x1 SWAP5 SWAP4 POP POP POP POP JUMP JUMPDEST PUSH2 0x42E4 DUP3 PUSH2 0x280F JUMP JUMPDEST PUSH2 0x4347 JUMPI PUSH1 0x40 MLOAD PUSH3 0x461BCD PUSH1 0xE5 SHL DUP2 MSTORE PUSH1 0x20 PUSH1 0x4 DUP3 ADD MSTORE PUSH1 0x2E PUSH1 0x24 DUP3 ADD MSTORE PUSH32 0x45524337323155524953746F726167653A2055524920736574206F66206E6F6E PUSH1 0x44 DUP3 ADD MSTORE PUSH14 0x32BC34B9BA32B73A103A37B5B2B7 PUSH1 0x91 SHL PUSH1 0x64 DUP3 ADD MSTORE PUSH1 0x84 ADD PUSH2 0x97A JUMP JUMPDEST PUSH1 0x0 DUP3 DUP2 MSTORE PUSH1 0x9 PUSH1 0x20 SWAP1 DUP2 MSTORE PUSH1 0x40 SWAP1 SWAP2 KECCAK256 DUP3 MLOAD PUSH2 0xAAB SWAP3 DUP5 ADD SWAP1 PUSH2 0x49F6 JUMP JUMPDEST PUSH1 0x60 PUSH1 0x40 MLOAD DUP1 PUSH1 0x60 ADD PUSH1 0x40 MSTORE DUP1 PUSH1 0x22 DUP2 MSTORE PUSH1 0x20 ADD PUSH2 0x55EC PUSH1 0x22 SWAP2 CODECOPY SWAP1 POP SWAP1 JUMP JUMPDEST PUSH1 0x60 PUSH2 0x4391 DUP3 PUSH2 0x280F JUMP JUMPDEST PUSH2 0x43F5 JUMPI PUSH1 0x40 MLOAD PUSH3 0x461BCD PUSH1 0xE5 SHL DUP2 MSTORE PUSH1 0x20 PUSH1 0x4 DUP3 ADD MSTORE PUSH1 0x2F PUSH1 0x24 DUP3 ADD MSTORE PUSH32 0x4552433732314D657461646174613A2055524920717565727920666F72206E6F PUSH1 0x44 DUP3 ADD MSTORE PUSH15 0x3732BC34B9BA32B73A103A37B5B2B7 PUSH1 0x89 SHL PUSH1 0x64 DUP3 ADD MSTORE PUSH1 0x84 ADD PUSH2 0x97A JUMP JUMPDEST PUSH1 0x0 PUSH2 0x43FF PUSH2 0x4366 JUMP JUMPDEST SWAP1 POP PUSH1 0x0 DUP2 MLOAD GT PUSH2 0x441F JUMPI PUSH1 0x40 MLOAD DUP1 PUSH1 0x20 ADD PUSH1 0x40 MSTORE DUP1 PUSH1 0x0 DUP2 MSTORE POP PUSH2 0x23AF JUMP JUMPDEST DUP1 PUSH2 0x4429 DUP5 PUSH2 0x4715 JUMP JUMPDEST PUSH1 0x40 MLOAD PUSH1 0x20 ADD PUSH2 0x443A SWAP3 SWAP2 SWAP1 PUSH2 0x50D6 JUMP JUMPDEST PUSH1 0x40 MLOAD PUSH1 0x20 DUP2 DUP4 SUB SUB DUP2 MSTORE SWAP1 PUSH1 0x40 MSTORE SWAP4 SWAP3 POP POP POP JUMP JUMPDEST PUSH1 0x0 DUP3 PUSH1 0x0 ADD DUP3 DUP2 SLOAD DUP2 LT PUSH2 0x4475 JUMPI PUSH4 0x4E487B71 PUSH1 0xE0 SHL PUSH1 0x0 MSTORE PUSH1 0x32 PUSH1 0x4 MSTORE PUSH1 0x24 PUSH1 0x0 REVERT JUMPDEST SWAP1 PUSH1 0x0 MSTORE PUSH1 0x20 PUSH1 0x0 KECCAK256 ADD SLOAD SWAP1 POP SWAP3 SWAP2 POP POP JUMP JUMPDEST PUSH1 0x0 DUP2 DUP2 MSTORE PUSH1 0xB PUSH1 0x20 MSTORE PUSH1 0x40 DUP2 KECCAK256 SWAP1 JUMPDEST DUP2 SLOAD DUP2 LT ISZERO PUSH2 0xAAB JUMPI DUP2 PUSH1 0x1 ADD PUSH1 0x0 DUP4 PUSH1 0x0 ADD DUP4 DUP2 SLOAD DUP2 LT PUSH2 0x44CA JUMPI PUSH4 0x4E487B71 PUSH1 0xE0 SHL PUSH1 0x0 MSTORE PUSH1 0x32 PUSH1 0x4 MSTORE PUSH1 0x24 PUSH1 0x0 REVERT JUMPDEST PUSH1 0x0 SWAP2 DUP3 MSTORE PUSH1 0x20 DUP1 DUP4 KECCAK256 SWAP1 SWAP2 ADD SLOAD PUSH1 0x1 PUSH1 0x1 PUSH1 0xA0 SHL SUB AND DUP4 MSTORE DUP3 ADD SWAP3 SWAP1 SWAP3 MSTORE PUSH1 0x40 ADD DUP2 KECCAK256 SSTORE DUP2 SLOAD DUP3 SWAP1 DUP3 SWAP1 DUP2 LT PUSH2 0x4511 JUMPI PUSH4 0x4E487B71 PUSH1 0xE0 SHL PUSH1 0x0 MSTORE PUSH1 0x32 PUSH1 0x4 MSTORE PUSH1 0x24 PUSH1 0x0 REVERT JUMPDEST PUSH1 0x0 SWAP2 DUP3 MSTORE PUSH1 0x20 SWAP1 SWAP2 KECCAK256 ADD DUP1 SLOAD PUSH1 0x1 PUSH1 0x1 PUSH1 0xA0 SHL SUB NOT AND SWAP1 SSTORE DUP1 PUSH2 0x4534 DUP2 PUSH2 0x552B JUMP JUMPDEST SWAP2 POP POP PUSH2 0x4498 JUMP JUMPDEST PUSH1 0x0 PUSH2 0x23AF DUP4 DUP4 PUSH2 0x482E JUMP JUMPDEST PUSH1 0x0 PUSH2 0x4553 DUP3 PUSH2 0xFFD JUMP JUMPDEST SWAP1 POP PUSH2 0x4561 DUP2 PUSH1 0x0 DUP5 PUSH2 0x3EB9 JUMP JUMPDEST PUSH2 0x456C PUSH1 0x0 DUP4 PUSH2 0x282C JUMP JUMPDEST PUSH1 0x1 PUSH1 0x1 PUSH1 0xA0 SHL SUB DUP2 AND PUSH1 0x0 SWAP1 DUP2 MSTORE PUSH1 0x3 PUSH1 0x20 MSTORE PUSH1 0x40 DUP2 KECCAK256 DUP1 SLOAD PUSH1 0x1 SWAP3 SWAP1 PUSH2 0x4595 SWAP1 DUP5 SWAP1 PUSH2 0x549C JUMP JUMPDEST SWAP1 SWAP2 SSTORE POP POP PUSH1 0x0 DUP3 DUP2 MSTORE PUSH1 0x2 PUSH1 0x20 MSTORE PUSH1 0x40 DUP1 DUP3 KECCAK256 DUP1 SLOAD PUSH1 0x1 PUSH1 0x1 PUSH1 0xA0 SHL SUB NOT AND SWAP1 SSTORE MLOAD DUP4 SWAP2 SWAP1 PUSH1 0x1 PUSH1 0x1 PUSH1 0xA0 SHL SUB DUP5 AND SWAP1 PUSH1 0x0 DUP1 MLOAD PUSH1 0x20 PUSH2 0x560E DUP4 CODECOPY DUP2 MLOAD SWAP2 MSTORE SWAP1 DUP4 SWAP1 LOG4 POP POP JUMP JUMPDEST PUSH1 0x1 PUSH1 0x1 PUSH1 0xA0 SHL SUB DUP3 AND PUSH2 0x4633 JUMPI PUSH1 0x40 MLOAD PUSH3 0x461BCD PUSH1 0xE5 SHL DUP2 MSTORE PUSH1 0x20 PUSH1 0x4 DUP3 ADD DUP2 SWAP1 MSTORE PUSH1 0x24 DUP3 ADD MSTORE PUSH32 0x4552433732313A206D696E7420746F20746865207A65726F2061646472657373 PUSH1 0x44 DUP3 ADD MSTORE PUSH1 0x64 ADD PUSH2 0x97A JUMP JUMPDEST PUSH2 0x463C DUP2 PUSH2 0x280F JUMP JUMPDEST ISZERO PUSH2 0x4688 JUMPI PUSH1 0x40 MLOAD PUSH3 0x461BCD PUSH1 0xE5 SHL DUP2 MSTORE PUSH1 0x20 PUSH1 0x4 DUP3 ADD MSTORE PUSH1 0x1C PUSH1 0x24 DUP3 ADD MSTORE PUSH28 0x115490CDCC8C4E881D1BDAD95B88185B1C9958591E481B5A5B9D1959 PUSH1 0x22 SHL PUSH1 0x44 DUP3 ADD MSTORE PUSH1 0x64 ADD PUSH2 0x97A JUMP JUMPDEST PUSH2 0x4694 PUSH1 0x0 DUP4 DUP4 PUSH2 0x3EB9 JUMP JUMPDEST PUSH1 0x1 PUSH1 0x1 PUSH1 0xA0 SHL SUB DUP3 AND PUSH1 0x0 SWAP1 DUP2 MSTORE PUSH1 0x3 PUSH1 0x20 MSTORE PUSH1 0x40 DUP2 KECCAK256 DUP1 SLOAD PUSH1 0x1 SWAP3 SWAP1 PUSH2 0x46BD SWAP1 DUP5 SWAP1 PUSH2 0x5451 JUMP JUMPDEST SWAP1 SWAP2 SSTORE POP POP PUSH1 0x0 DUP2 DUP2 MSTORE PUSH1 0x2 PUSH1 0x20 MSTORE PUSH1 0x40 DUP1 DUP3 KECCAK256 DUP1 SLOAD PUSH1 0x1 PUSH1 0x1 PUSH1 0xA0 SHL SUB NOT AND PUSH1 0x1 PUSH1 0x1 PUSH1 0xA0 SHL SUB DUP7 AND SWAP1 DUP2 OR SWAP1 SWAP2 SSTORE SWAP1 MLOAD DUP4 SWAP3 SWAP1 PUSH1 0x0 DUP1 MLOAD PUSH1 0x20 PUSH2 0x560E DUP4 CODECOPY DUP2 MLOAD SWAP2 MSTORE SWAP1 DUP3 SWAP1 LOG4 POP POP JUMP JUMPDEST PUSH1 0x0 PUSH2 0x23AF DUP4 DUP4 PUSH2 0x494B JUMP JUMPDEST PUSH1 0x60 DUP2 PUSH2 0x4739 JUMPI POP POP PUSH1 0x40 DUP1 MLOAD DUP1 DUP3 ADD SWAP1 SWAP2 MSTORE PUSH1 0x1 DUP2 MSTORE PUSH1 0x3 PUSH1 0xFC SHL PUSH1 0x20 DUP3 ADD MSTORE SWAP1 JUMP JUMPDEST DUP2 PUSH1 0x0 JUMPDEST DUP2 ISZERO PUSH2 0x4763 JUMPI DUP1 PUSH2 0x474D DUP2 PUSH2 0x552B JUMP JUMPDEST SWAP2 POP PUSH2 0x475C SWAP1 POP PUSH1 0xA DUP4 PUSH2 0x5469 JUMP JUMPDEST SWAP2 POP PUSH2 0x473D JUMP JUMPDEST PUSH1 0x0 DUP2 PUSH1 0x1 PUSH1 0x1 PUSH1 0x40 SHL SUB DUP2 GT ISZERO PUSH2 0x478B JUMPI PUSH4 0x4E487B71 PUSH1 0xE0 SHL PUSH1 0x0 MSTORE PUSH1 0x41 PUSH1 0x4 MSTORE PUSH1 0x24 PUSH1 0x0 REVERT JUMPDEST PUSH1 0x40 MLOAD SWAP1 DUP1 DUP3 MSTORE DUP1 PUSH1 0x1F ADD PUSH1 0x1F NOT AND PUSH1 0x20 ADD DUP3 ADD PUSH1 0x40 MSTORE DUP1 ISZERO PUSH2 0x47B5 JUMPI PUSH1 0x20 DUP3 ADD DUP2 DUP1 CALLDATASIZE DUP4 CALLDATACOPY ADD SWAP1 POP JUMPDEST POP SWAP1 POP JUMPDEST DUP5 ISZERO PUSH2 0x295C JUMPI PUSH2 0x47CA PUSH1 0x1 DUP4 PUSH2 0x549C JUMP JUMPDEST SWAP2 POP PUSH2 0x47D7 PUSH1 0xA DUP7 PUSH2 0x5546 JUMP JUMPDEST PUSH2 0x47E2 SWAP1 PUSH1 0x30 PUSH2 0x5451 JUMP JUMPDEST PUSH1 0xF8 SHL DUP2 DUP4 DUP2 MLOAD DUP2 LT PUSH2 0x4805 JUMPI PUSH4 0x4E487B71 PUSH1 0xE0 SHL PUSH1 0x0 MSTORE PUSH1 0x32 PUSH1 0x4 MSTORE PUSH1 0x24 PUSH1 0x0 REVERT JUMPDEST PUSH1 0x20 ADD ADD SWAP1 PUSH1 0x1 PUSH1 0x1 PUSH1 0xF8 SHL SUB NOT AND SWAP1 DUP2 PUSH1 0x0 BYTE SWAP1 MSTORE8 POP PUSH2 0x4827 PUSH1 0xA DUP7 PUSH2 0x5469 JUMP JUMPDEST SWAP5 POP PUSH2 0x47B9 JUMP JUMPDEST PUSH1 0x0 DUP2 DUP2 MSTORE PUSH1 0x1 DUP4 ADD PUSH1 0x20 MSTORE PUSH1 0x40 DUP2 KECCAK256 SLOAD DUP1 ISZERO PUSH2 0x4941 JUMPI PUSH1 0x0 PUSH2 0x4852 PUSH1 0x1 DUP4 PUSH2 0x549C JUMP JUMPDEST DUP6 SLOAD SWAP1 SWAP2 POP PUSH1 0x0 SWAP1 PUSH2 0x4866 SWAP1 PUSH1 0x1 SWAP1 PUSH2 0x549C JUMP JUMPDEST SWAP1 POP DUP2 DUP2 EQ PUSH2 0x48E7 JUMPI PUSH1 0x0 DUP7 PUSH1 0x0 ADD DUP3 DUP2 SLOAD DUP2 LT PUSH2 0x4894 JUMPI PUSH4 0x4E487B71 PUSH1 0xE0 SHL PUSH1 0x0 MSTORE PUSH1 0x32 PUSH1 0x4 MSTORE PUSH1 0x24 PUSH1 0x0 REVERT JUMPDEST SWAP1 PUSH1 0x0 MSTORE PUSH1 0x20 PUSH1 0x0 KECCAK256 ADD SLOAD SWAP1 POP DUP1 DUP8 PUSH1 0x0 ADD DUP5 DUP2 SLOAD DUP2 LT PUSH2 0x48C5 JUMPI PUSH4 0x4E487B71 PUSH1 0xE0 SHL PUSH1 0x0 MSTORE PUSH1 0x32 PUSH1 0x4 MSTORE PUSH1 0x24 PUSH1 0x0 REVERT JUMPDEST PUSH1 0x0 SWAP2 DUP3 MSTORE PUSH1 0x20 DUP1 DUP4 KECCAK256 SWAP1 SWAP2 ADD SWAP3 SWAP1 SWAP3 SSTORE SWAP2 DUP3 MSTORE PUSH1 0x1 DUP9 ADD SWAP1 MSTORE PUSH1 0x40 SWAP1 KECCAK256 DUP4 SWAP1 SSTORE JUMPDEST DUP6 SLOAD DUP7 SWAP1 DUP1 PUSH2 0x4906 JUMPI PUSH4 0x4E487B71 PUSH1 0xE0 SHL PUSH1 0x0 MSTORE PUSH1 0x31 PUSH1 0x4 MSTORE PUSH1 0x24 PUSH1 0x0 REVERT JUMPDEST PUSH1 0x1 SWAP1 SUB DUP2 DUP2 SWAP1 PUSH1 0x0 MSTORE PUSH1 0x20 PUSH1 0x0 KECCAK256 ADD PUSH1 0x0 SWAP1 SSTORE SWAP1 SSTORE DUP6 PUSH1 0x1 ADD PUSH1 0x0 DUP7 DUP2 MSTORE PUSH1 0x20 ADD SWAP1 DUP2 MSTORE PUSH1 0x20 ADD PUSH1 0x0 KECCAK256 PUSH1 0x0 SWAP1 SSTORE PUSH1 0x1 SWAP4 POP POP POP POP PUSH2 0x835 JUMP JUMPDEST PUSH1 0x0 SWAP2 POP POP PUSH2 0x835 JUMP JUMPDEST PUSH1 0x0 DUP2 DUP2 MSTORE PUSH1 0x1 DUP4 ADD PUSH1 0x20 MSTORE PUSH1 0x40 DUP2 KECCAK256 SLOAD PUSH2 0x4992 JUMPI POP DUP2 SLOAD PUSH1 0x1 DUP2 DUP2 ADD DUP5 SSTORE PUSH1 0x0 DUP5 DUP2 MSTORE PUSH1 0x20 DUP1 DUP3 KECCAK256 SWAP1 SWAP4 ADD DUP5 SWAP1 SSTORE DUP5 SLOAD DUP5 DUP3 MSTORE DUP3 DUP7 ADD SWAP1 SWAP4 MSTORE PUSH1 0x40 SWAP1 KECCAK256 SWAP2 SWAP1 SWAP2 SSTORE PUSH2 0x835 JUMP JUMPDEST POP PUSH1 0x0 PUSH2 0x835 JUMP JUMPDEST PUSH1 0x40 DUP1 MLOAD PUSH1 0xE0 DUP2 ADD SWAP1 SWAP2 MSTORE DUP1 PUSH1 0x0 DUP2 MSTORE PUSH1 0x20 ADD PUSH1 0x0 DUP2 MSTORE PUSH1 0x20 ADD PUSH1 0x0 DUP2 MSTORE PUSH1 0x20 ADD PUSH1 0x0 DUP2 MSTORE PUSH1 0x20 ADD PUSH1 0x0 DUP2 MSTORE PUSH1 0x20 ADD PUSH1 0x0 DUP2 MSTORE PUSH1 0x20 ADD PUSH1 0x0 PUSH1 0x2 DUP2 GT ISZERO PUSH2 0x49F1 JUMPI PUSH4 0x4E487B71 PUSH1 0xE0 SHL PUSH1 0x0 MSTORE PUSH1 0x21 PUSH1 0x4 MSTORE PUSH1 0x24 PUSH1 0x0 REVERT JUMPDEST SWAP1 MSTORE SWAP1 JUMP JUMPDEST DUP3 DUP1 SLOAD PUSH2 0x4A02 SWAP1 PUSH2 0x54F6 JUMP JUMPDEST SWAP1 PUSH1 0x0 MSTORE PUSH1 0x20 PUSH1 0x0 KECCAK256 SWAP1 PUSH1 0x1F ADD PUSH1 0x20 SWAP1 DIV DUP2 ADD SWAP3 DUP3 PUSH2 0x4A24 JUMPI PUSH1 0x0 DUP6 SSTORE PUSH2 0x4A6A JUMP JUMPDEST DUP3 PUSH1 0x1F LT PUSH2 0x4A3D JUMPI DUP1 MLOAD PUSH1 0xFF NOT AND DUP4 DUP1 ADD OR DUP6 SSTORE PUSH2 0x4A6A JUMP JUMPDEST DUP3 DUP1 ADD PUSH1 0x1 ADD DUP6 SSTORE DUP3 ISZERO PUSH2 0x4A6A JUMPI SWAP2 DUP3 ADD JUMPDEST DUP3 DUP2 GT ISZERO PUSH2 0x4A6A JUMPI DUP3 MLOAD DUP3 SSTORE SWAP2 PUSH1 0x20 ADD SWAP2 SWAP1 PUSH1 0x1 ADD SWAP1 PUSH2 0x4A4F JUMP JUMPDEST POP PUSH2 0x4A76 SWAP3 SWAP2 POP PUSH2 0x4A7A JUMP JUMPDEST POP SWAP1 JUMP JUMPDEST JUMPDEST DUP1 DUP3 GT ISZERO PUSH2 0x4A76 JUMPI PUSH1 0x0 DUP2 SSTORE PUSH1 0x1 ADD PUSH2 0x4A7B JUMP JUMPDEST PUSH1 0x0 PUSH1 0x1 PUSH1 0x1 PUSH1 0x40 SHL SUB DUP1 DUP5 GT ISZERO PUSH2 0x4AA9 JUMPI PUSH2 0x4AA9 PUSH2 0x559C JUMP JUMPDEST PUSH1 0x40 MLOAD PUSH1 0x1F DUP6 ADD PUSH1 0x1F NOT SWAP1 DUP2 AND PUSH1 0x3F ADD AND DUP2 ADD SWAP1 DUP3 DUP3 GT DUP2 DUP4 LT OR ISZERO PUSH2 0x4AD1 JUMPI PUSH2 0x4AD1 PUSH2 0x559C JUMP JUMPDEST DUP2 PUSH1 0x40 MSTORE DUP1 SWAP4 POP DUP6 DUP2 MSTORE DUP7 DUP7 DUP7 ADD GT ISZERO PUSH2 0x4AEA JUMPI PUSH1 0x0 DUP1 REVERT JUMPDEST DUP6 DUP6 PUSH1 0x20 DUP4 ADD CALLDATACOPY PUSH1 0x0 PUSH1 0x20 DUP8 DUP4 ADD ADD MSTORE POP POP POP SWAP4 SWAP3 POP POP POP JUMP JUMPDEST PUSH1 0x0 DUP1 DUP4 PUSH1 0x1F DUP5 ADD SLT PUSH2 0x4B15 JUMPI DUP2 DUP3 REVERT JUMPDEST POP DUP2 CALLDATALOAD PUSH1 0x1 PUSH1 0x1 PUSH1 0x40 SHL SUB DUP2 GT ISZERO PUSH2 0x4B2B JUMPI DUP2 DUP3 REVERT JUMPDEST PUSH1 0x20 DUP4 ADD SWAP2 POP DUP4 PUSH1 0x20 DUP3 PUSH1 0x5 SHL DUP6 ADD ADD GT ISZERO PUSH2 0x4B46 JUMPI PUSH1 0x0 DUP1 REVERT JUMPDEST SWAP3 POP SWAP3 SWAP1 POP JUMP JUMPDEST DUP1 MLOAD PUSH1 0x1 PUSH1 0x1 PUSH1 0x50 SHL SUB DUP2 AND DUP2 EQ PUSH2 0x4B64 JUMPI PUSH1 0x0 DUP1 REVERT JUMPDEST SWAP2 SWAP1 POP JUMP JUMPDEST PUSH1 0x0 PUSH1 0x20 DUP3 DUP5 SUB SLT ISZERO PUSH2 0x4B7A JUMPI DUP1 DUP2 REVERT JUMPDEST DUP2 CALLDATALOAD PUSH2 0x23AF DUP2 PUSH2 0x55B2 JUMP JUMPDEST PUSH1 0x0 PUSH1 0x20 DUP3 DUP5 SUB SLT ISZERO PUSH2 0x4B96 JUMPI DUP1 DUP2 REVERT JUMPDEST DUP2 MLOAD PUSH2 0x23AF DUP2 PUSH2 0x55B2 JUMP JUMPDEST PUSH1 0x0 DUP1 PUSH1 0x40 DUP4 DUP6 SUB SLT ISZERO PUSH2 0x4BB3 JUMPI DUP1 DUP2 REVERT JUMPDEST DUP3 CALLDATALOAD PUSH2 0x4BBE DUP2 PUSH2 0x55B2 JUMP JUMPDEST SWAP2 POP PUSH1 0x20 DUP4 ADD CALLDATALOAD PUSH2 0x4BCE DUP2 PUSH2 0x55B2 JUMP JUMPDEST DUP1 SWAP2 POP POP SWAP3 POP SWAP3 SWAP1 POP JUMP JUMPDEST PUSH1 0x0 DUP1 PUSH1 0x0 PUSH1 0x60 DUP5 DUP7 SUB SLT ISZERO PUSH2 0x4BED JUMPI DUP1 DUP2 REVERT JUMPDEST DUP4 CALLDATALOAD PUSH2 0x4BF8 DUP2 PUSH2 0x55B2 JUMP JUMPDEST SWAP3 POP PUSH1 0x20 DUP5 ADD CALLDATALOAD PUSH2 0x4C08 DUP2 PUSH2 0x55B2 JUMP JUMPDEST SWAP3 SWAP6 SWAP3 SWAP5 POP POP POP PUSH1 0x40 SWAP2 SWAP1 SWAP2 ADD CALLDATALOAD SWAP1 JUMP JUMPDEST PUSH1 0x0 DUP1 PUSH1 0x0 DUP1 PUSH1 0x80 DUP6 DUP8 SUB SLT ISZERO PUSH2 0x4C2E JUMPI DUP1 DUP2 REVERT JUMPDEST DUP5 CALLDATALOAD PUSH2 0x4C39 DUP2 PUSH2 0x55B2 JUMP JUMPDEST SWAP4 POP PUSH1 0x20 DUP6 ADD CALLDATALOAD PUSH2 0x4C49 DUP2 PUSH2 0x55B2 JUMP JUMPDEST SWAP3 POP PUSH1 0x40 DUP6 ADD CALLDATALOAD SWAP2 POP PUSH1 0x60 DUP6 ADD CALLDATALOAD PUSH1 0x1 PUSH1 0x1 PUSH1 0x40 SHL SUB DUP2 GT ISZERO PUSH2 0x4C6A JUMPI DUP2 DUP3 REVERT JUMPDEST DUP6 ADD PUSH1 0x1F DUP2 ADD DUP8 SGT PUSH2 0x4C7A JUMPI DUP2 DUP3 REVERT JUMPDEST PUSH2 0x4C89 DUP8 DUP3 CALLDATALOAD PUSH1 0x20 DUP5 ADD PUSH2 0x4A8F JUMP JUMPDEST SWAP2 POP POP SWAP3 SWAP6 SWAP2 SWAP5 POP SWAP3 POP JUMP JUMPDEST PUSH1 0x0 DUP1 PUSH1 0x0 DUP1 PUSH1 0x80 DUP6 DUP8 SUB SLT ISZERO PUSH2 0x4CAA JUMPI DUP4 DUP5 REVERT JUMPDEST DUP5 CALLDATALOAD PUSH2 0x4CB5 DUP2 PUSH2 0x55B2 JUMP JUMPDEST SWAP4 POP PUSH1 0x20 DUP6 ADD CALLDATALOAD PUSH2 0x4CC5 DUP2 PUSH2 0x55B2 JUMP JUMPDEST SWAP4 SWAP7 SWAP4 SWAP6 POP POP POP POP PUSH1 0x40 DUP3 ADD CALLDATALOAD SWAP2 PUSH1 0x60 ADD CALLDATALOAD SWAP1 JUMP JUMPDEST PUSH1 0x0 DUP1 PUSH1 0x0 DUP1 PUSH1 0x0 PUSH1 0xA0 DUP7 DUP9 SUB SLT ISZERO PUSH2 0x4CF1 JUMPI DUP1 DUP2 REVERT JUMPDEST DUP6 CALLDATALOAD PUSH2 0x4CFC DUP2 PUSH2 0x55B2 JUMP JUMPDEST SWAP5 POP PUSH1 0x20 DUP7 ADD CALLDATALOAD PUSH2 0x4D0C DUP2 PUSH2 0x55B2 JUMP JUMPDEST SWAP5 SWAP8 SWAP5 SWAP7 POP POP POP POP PUSH1 0x40 DUP4 ADD CALLDATALOAD SWAP3 PUSH1 0x60 DUP2 ADD CALLDATALOAD SWAP3 PUSH1 0x80 SWAP1 SWAP2 ADD CALLDATALOAD SWAP2 POP JUMP JUMPDEST PUSH1 0x0 DUP1 PUSH1 0x40 DUP4 DUP6 SUB SLT ISZERO PUSH2 0x4D3C JUMPI DUP2 DUP3 REVERT JUMPDEST DUP3 CALLDATALOAD PUSH2 0x4D47 DUP2 PUSH2 0x55B2 JUMP JUMPDEST SWAP2 POP PUSH1 0x20 DUP4 ADD CALLDATALOAD PUSH2 0x4BCE DUP2 PUSH2 0x55C7 JUMP JUMPDEST PUSH1 0x0 DUP1 PUSH1 0x40 DUP4 DUP6 SUB SLT ISZERO PUSH2 0x4D69 JUMPI DUP2 DUP3 REVERT JUMPDEST DUP3 CALLDATALOAD PUSH2 0x4D74 DUP2 PUSH2 0x55B2 JUMP JUMPDEST SWAP5 PUSH1 0x20 SWAP4 SWAP1 SWAP4 ADD CALLDATALOAD SWAP4 POP POP POP JUMP JUMPDEST PUSH1 0x0 DUP1 PUSH1 0x0 PUSH1 0x60 DUP5 DUP7 SUB SLT ISZERO PUSH2 0x4D96 JUMPI DUP1 DUP2 REVERT JUMPDEST DUP4 CALLDATALOAD PUSH2 0x4DA1 DUP2 PUSH2 0x55B2 JUMP JUMPDEST SWAP6 PUSH1 0x20 DUP6 ADD CALLDATALOAD SWAP6 POP PUSH1 0x40 SWAP1 SWAP5 ADD CALLDATALOAD SWAP4 SWAP3 POP POP POP JUMP JUMPDEST PUSH1 0x0 DUP1 PUSH1 0x20 DUP4 DUP6 SUB SLT ISZERO PUSH2 0x4DC8 JUMPI DUP2 DUP3 REVERT JUMPDEST DUP3 CALLDATALOAD PUSH1 0x1 PUSH1 0x1 PUSH1 0x40 SHL SUB DUP2 GT ISZERO PUSH2 0x4DDD JUMPI DUP3 DUP4 REVERT JUMPDEST PUSH2 0x4DE9 DUP6 DUP3 DUP7 ADD PUSH2 0x4B04 JUMP JUMPDEST SWAP1 SWAP7 SWAP1 SWAP6 POP SWAP4 POP POP POP POP JUMP JUMPDEST PUSH1 0x0 DUP1 PUSH1 0x0 PUSH1 0x40 DUP5 DUP7 SUB SLT ISZERO PUSH2 0x4E09 JUMPI DUP1 DUP2 REVERT JUMPDEST DUP4 CALLDATALOAD PUSH1 0x1 PUSH1 0x1 PUSH1 0x40 SHL SUB DUP2 GT ISZERO PUSH2 0x4E1E JUMPI DUP2 DUP3 REVERT JUMPDEST PUSH2 0x4E2A DUP7 DUP3 DUP8 ADD PUSH2 0x4B04 JUMP JUMPDEST SWAP1 SWAP8 SWAP1 SWAP7 POP PUSH1 0x20 SWAP6 SWAP1 SWAP6 ADD CALLDATALOAD SWAP5 SWAP4 POP POP POP POP JUMP JUMPDEST PUSH1 0x0 PUSH1 0x20 DUP3 DUP5 SUB SLT ISZERO PUSH2 0x4E4F JUMPI DUP1 DUP2 REVERT JUMPDEST DUP2 MLOAD PUSH2 0x23AF DUP2 PUSH2 0x55C7 JUMP JUMPDEST PUSH1 0x0 PUSH1 0x20 DUP3 DUP5 SUB SLT ISZERO PUSH2 0x4E6B JUMPI DUP1 DUP2 REVERT JUMPDEST POP CALLDATALOAD SWAP2 SWAP1 POP JUMP JUMPDEST PUSH1 0x0 DUP1 PUSH1 0x40 DUP4 DUP6 SUB SLT ISZERO PUSH2 0x4E84 JUMPI DUP2 DUP3 REVERT JUMPDEST DUP3 CALLDATALOAD SWAP2 POP PUSH1 0x20 DUP4 ADD CALLDATALOAD PUSH2 0x4BCE DUP2 PUSH2 0x55B2 JUMP JUMPDEST PUSH1 0x0 PUSH1 0x20 DUP3 DUP5 SUB SLT ISZERO PUSH2 0x4EA7 JUMPI DUP1 DUP2 REVERT JUMPDEST DUP2 CALLDATALOAD PUSH2 0x23AF DUP2 PUSH2 0x55D5 JUMP JUMPDEST PUSH1 0x0 PUSH1 0x20 DUP3 DUP5 SUB SLT ISZERO PUSH2 0x4EC3 JUMPI DUP1 DUP2 REVERT JUMPDEST DUP2 MLOAD PUSH2 0x23AF DUP2 PUSH2 0x55D5 JUMP JUMPDEST PUSH1 0x0 PUSH1 0x20 DUP3 DUP5 SUB SLT ISZERO PUSH2 0x4EDF JUMPI DUP1 DUP2 REVERT JUMPDEST POP MLOAD SWAP2 SWAP1 POP JUMP JUMPDEST PUSH1 0x0 DUP1 PUSH1 0x0 PUSH1 0x40 DUP5 DUP7 SUB SLT ISZERO PUSH2 0x4EFA JUMPI DUP1 DUP2 REVERT JUMPDEST DUP4 CALLDATALOAD SWAP3 POP PUSH1 0x20 DUP5 ADD CALLDATALOAD PUSH1 0x1 PUSH1 0x1 PUSH1 0x40 SHL SUB DUP2 GT ISZERO PUSH2 0x4F16 JUMPI DUP2 DUP3 REVERT JUMPDEST PUSH2 0x4F22 DUP7 DUP3 DUP8 ADD PUSH2 0x4B04 JUMP JUMPDEST SWAP5 SWAP8 SWAP1 SWAP7 POP SWAP4 SWAP5 POP POP POP POP JUMP JUMPDEST PUSH1 0x0 DUP1 PUSH1 0x40 DUP4 DUP6 SUB SLT ISZERO PUSH2 0x4F41 JUMPI DUP2 DUP3 REVERT JUMPDEST POP POP DUP1 CALLDATALOAD SWAP3 PUSH1 0x20 SWAP1 SWAP2 ADD CALLDATALOAD SWAP2 POP JUMP JUMPDEST PUSH1 0x0 DUP1 PUSH1 0x0 DUP1 PUSH1 0x0 PUSH1 0xA0 DUP7 DUP9 SUB SLT ISZERO PUSH2 0x4F67 JUMPI DUP3 DUP4 REVERT JUMPDEST DUP6 CALLDATALOAD SWAP5 POP PUSH1 0x20 DUP7 ADD CALLDATALOAD SWAP4 POP PUSH1 0x40 DUP7 ADD CALLDATALOAD SWAP3 POP PUSH1 0x60 DUP7 ADD CALLDATALOAD PUSH2 0x4F87 DUP2 PUSH2 0x55C7 JUMP JUMPDEST SWAP2 POP PUSH1 0x80 DUP7 ADD CALLDATALOAD PUSH2 0x4F97 DUP2 PUSH2 0x55C7 JUMP JUMPDEST DUP1 SWAP2 POP POP SWAP3 SWAP6 POP SWAP3 SWAP6 SWAP1 SWAP4 POP JUMP JUMPDEST PUSH1 0x0 DUP1 PUSH1 0x0 DUP1 PUSH1 0x0 DUP1 PUSH1 0x0 PUSH1 0xE0 DUP9 DUP11 SUB SLT ISZERO PUSH2 0x4FBF JUMPI DUP5 DUP6 REVERT JUMPDEST DUP8 CALLDATALOAD SWAP7 POP PUSH1 0x20 DUP9 ADD CALLDATALOAD SWAP6 POP PUSH1 0x40 DUP9 ADD CALLDATALOAD SWAP5 POP PUSH1 0x60 DUP9 ADD CALLDATALOAD PUSH2 0x4FDF DUP2 PUSH2 0x55C7 JUMP JUMPDEST SWAP4 POP PUSH1 0x80 DUP9 ADD CALLDATALOAD PUSH2 0x4FEF DUP2 PUSH2 0x55C7 JUMP JUMPDEST SWAP3 POP PUSH1 0xA0 DUP9 ADD CALLDATALOAD PUSH2 0x4FFF DUP2 PUSH2 0x55B2 JUMP JUMPDEST SWAP2 POP PUSH1 0xC0 DUP9 ADD CALLDATALOAD PUSH1 0x1 PUSH1 0x1 PUSH1 0x40 SHL SUB DUP2 GT ISZERO PUSH2 0x5019 JUMPI DUP2 DUP3 REVERT JUMPDEST DUP9 ADD PUSH1 0x1F DUP2 ADD DUP11 SGT PUSH2 0x5029 JUMPI DUP2 DUP3 REVERT JUMPDEST PUSH2 0x5038 DUP11 DUP3 CALLDATALOAD PUSH1 0x20 DUP5 ADD PUSH2 0x4A8F JUMP JUMPDEST SWAP2 POP POP SWAP3 SWAP6 SWAP9 SWAP2 SWAP5 SWAP8 POP SWAP3 SWAP6 POP JUMP JUMPDEST PUSH1 0x0 DUP1 PUSH1 0x0 DUP1 PUSH1 0x0 PUSH1 0xA0 DUP7 DUP9 SUB SLT ISZERO PUSH2 0x505E JUMPI DUP3 DUP4 REVERT JUMPDEST PUSH2 0x5067 DUP7 PUSH2 0x4B4D JUMP JUMPDEST SWAP5 POP PUSH1 0x20 DUP7 ADD MLOAD SWAP4 POP PUSH1 0x40 DUP7 ADD MLOAD SWAP3 POP PUSH1 0x60 DUP7 ADD MLOAD SWAP2 POP PUSH2 0x508A PUSH1 0x80 DUP8 ADD PUSH2 0x4B4D JUMP JUMPDEST SWAP1 POP SWAP3 SWAP6 POP SWAP3 SWAP6 SWAP1 SWAP4 POP JUMP JUMPDEST PUSH1 0x0 DUP2 MLOAD DUP1 DUP5 MSTORE PUSH2 0x50AE DUP2 PUSH1 0x20 DUP7 ADD PUSH1 0x20 DUP7 ADD PUSH2 0x54B3 JUMP JUMPDEST PUSH1 0x1F ADD PUSH1 0x1F NOT AND SWAP3 SWAP1 SWAP3 ADD PUSH1 0x20 ADD SWAP3 SWAP2 POP POP JUMP JUMPDEST PUSH1 0x3 DUP2 LT PUSH2 0x50D2 JUMPI PUSH2 0x50D2 PUSH2 0x5586 JUMP JUMPDEST SWAP1 MSTORE JUMP JUMPDEST PUSH1 0x0 DUP4 MLOAD PUSH2 0x50E8 DUP2 DUP5 PUSH1 0x20 DUP9 ADD PUSH2 0x54B3 JUMP JUMPDEST DUP4 MLOAD SWAP1 DUP4 ADD SWAP1 PUSH2 0x50FC DUP2 DUP4 PUSH1 0x20 DUP9 ADD PUSH2 0x54B3 JUMP JUMPDEST ADD SWAP5 SWAP4 POP POP POP POP JUMP JUMPDEST PUSH23 0x20B1B1B2B9B9A1B7B73A3937B61D1030B1B1B7BAB73A1 PUSH1 0x4D SHL DUP2 MSTORE PUSH1 0x0 DUP4 MLOAD PUSH2 0x5137 DUP2 PUSH1 0x17 DUP6 ADD PUSH1 0x20 DUP9 ADD PUSH2 0x54B3 JUMP JUMPDEST PUSH17 0x1034B99036B4B9B9B4B733903937B6329 PUSH1 0x7D SHL PUSH1 0x17 SWAP2 DUP5 ADD SWAP2 DUP3 ADD MSTORE DUP4 MLOAD PUSH2 0x5168 DUP2 PUSH1 0x28 DUP5 ADD PUSH1 0x20 DUP9 ADD PUSH2 0x54B3 JUMP JUMPDEST ADD PUSH1 0x28 ADD SWAP5 SWAP4 POP POP POP POP JUMP JUMPDEST PUSH1 0x1 PUSH1 0x1 PUSH1 0xA0 SHL SUB DUP6 DUP2 AND DUP3 MSTORE DUP5 AND PUSH1 0x20 DUP3 ADD MSTORE PUSH1 0x40 DUP2 ADD DUP4 SWAP1 MSTORE PUSH1 0x80 PUSH1 0x60 DUP3 ADD DUP2 SWAP1 MSTORE PUSH1 0x0 SWAP1 PUSH2 0x51A7 SWAP1 DUP4 ADD DUP5 PUSH2 0x5096 JUMP JUMPDEST SWAP7 SWAP6 POP POP POP POP POP POP JUMP JUMPDEST PUSH1 0x1 PUSH1 0x1 PUSH1 0xA0 SHL SUB SWAP3 SWAP1 SWAP3 AND DUP3 MSTORE PUSH1 0x20 DUP3 ADD MSTORE PUSH1 0x40 ADD SWAP1 JUMP JUMPDEST PUSH1 0x20 DUP1 DUP3 MSTORE DUP3 MLOAD DUP3 DUP3 ADD DUP2 SWAP1 MSTORE PUSH1 0x0 SWAP2 SWAP1 DUP5 DUP3 ADD SWAP1 PUSH1 0x40 DUP6 ADD SWAP1 DUP5 JUMPDEST DUP2 DUP2 LT ISZERO PUSH2 0x5202 JUMPI DUP4 MLOAD DUP4 MSTORE SWAP3 DUP5 ADD SWAP3 SWAP2 DUP5 ADD SWAP2 PUSH1 0x1 ADD PUSH2 0x51E6 JUMP JUMPDEST POP SWAP1 SWAP7 SWAP6 POP POP POP POP POP POP JUMP JUMPDEST PUSH1 0xE0 DUP2 ADD PUSH1 0x4 DUP10 LT PUSH2 0x5222 JUMPI PUSH2 0x5222 PUSH2 0x5586 JUMP JUMPDEST DUP9 DUP3 MSTORE DUP8 PUSH1 0x20 DUP4 ADD MSTORE DUP7 PUSH1 0x40 DUP4 ADD MSTORE DUP6 PUSH1 0x60 DUP4 ADD MSTORE DUP5 PUSH1 0x80 DUP4 ADD MSTORE DUP4 PUSH1 0xA0 DUP4 ADD MSTORE PUSH2 0x5250 PUSH1 0xC0 DUP4 ADD DUP5 PUSH2 0x50C2 JUMP JUMPDEST SWAP9 SWAP8 POP POP POP POP POP POP POP POP JUMP JUMPDEST SWAP2 DUP3 MSTORE PUSH1 0x20 DUP3 ADD MSTORE PUSH1 0x40 ADD SWAP1 JUMP JUMPDEST PUSH1 0x20 DUP2 MSTORE PUSH1 0x0 PUSH2 0x23AF PUSH1 0x20 DUP4 ADD DUP5 PUSH2 0x5096 JUMP JUMPDEST PUSH1 0x20 DUP1 DUP3 MSTORE PUSH1 0x2 SWAP1 DUP3 ADD MSTORE PUSH2 0x4F39 PUSH1 0xF0 SHL PUSH1 0x40 DUP3 ADD MSTORE PUSH1 0x60 ADD SWAP1 JUMP JUMPDEST PUSH1 0x20 DUP1 DUP3 MSTORE PUSH1 0x32 SWAP1 DUP3 ADD MSTORE PUSH32 0x4552433732313A207472616E7366657220746F206E6F6E204552433732315265 PUSH1 0x40 DUP3 ADD MSTORE PUSH18 0x31B2B4BB32B91034B6B83632B6B2B73A32B9 PUSH1 0x71 SHL PUSH1 0x60 DUP3 ADD MSTORE PUSH1 0x80 ADD SWAP1 JUMP JUMPDEST PUSH1 0x20 DUP1 DUP3 MSTORE PUSH1 0x3 SWAP1 DUP3 ADD MSTORE PUSH3 0x4F323 PUSH1 0xEC SHL PUSH1 0x40 DUP3 ADD MSTORE PUSH1 0x60 ADD SWAP1 JUMP JUMPDEST PUSH1 0x20 DUP1 DUP3 MSTORE PUSH1 0x2 SWAP1 DUP3 ADD MSTORE PUSH2 0x4E37 PUSH1 0xF0 SHL PUSH1 0x40 DUP3 ADD MSTORE PUSH1 0x60 ADD SWAP1 JUMP JUMPDEST PUSH1 0x20 DUP1 DUP3 MSTORE DUP2 DUP2 ADD MSTORE PUSH32 0x4F776E61626C653A2063616C6C6572206973206E6F7420746865206F776E6572 PUSH1 0x40 DUP3 ADD MSTORE PUSH1 0x60 ADD SWAP1 JUMP JUMPDEST PUSH1 0x20 DUP1 DUP3 MSTORE PUSH1 0x31 SWAP1 DUP3 ADD MSTORE PUSH32 0x4552433732313A207472616E736665722063616C6C6572206973206E6F74206F PUSH1 0x40 DUP3 ADD MSTORE PUSH17 0x1DDB995C881B9BDC88185C1C1C9BDD9959 PUSH1 0x7A SHL PUSH1 0x60 DUP3 ADD MSTORE PUSH1 0x80 ADD SWAP1 JUMP JUMPDEST PUSH1 0x20 DUP1 DUP3 MSTORE PUSH1 0x2 SWAP1 DUP3 ADD MSTORE PUSH2 0x13CD PUSH1 0xF2 SHL PUSH1 0x40 DUP3 ADD MSTORE PUSH1 0x60 ADD SWAP1 JUMP JUMPDEST DUP5 DUP2 MSTORE PUSH1 0x20 DUP2 ADD DUP5 SWAP1 MSTORE PUSH1 0x80 DUP2 ADD PUSH2 0x53E1 PUSH1 0x40 DUP4 ADD DUP6 PUSH2 0x50C2 JUMP JUMPDEST DUP3 ISZERO ISZERO PUSH1 0x60 DUP4 ADD MSTORE SWAP6 SWAP5 POP POP POP POP POP JUMP JUMPDEST DUP5 DUP2 MSTORE PUSH1 0x20 DUP2 ADD DUP5 SWAP1 MSTORE PUSH1 0x80 DUP2 ADD PUSH2 0x540D PUSH1 0x40 DUP4 ADD DUP6 PUSH2 0x50C2 JUMP JUMPDEST DUP3 PUSH1 0x60 DUP4 ADD MSTORE SWAP6 SWAP5 POP POP POP POP POP JUMP JUMPDEST DUP4 DUP2 MSTORE DUP3 PUSH1 0x20 DUP3 ADD MSTORE PUSH1 0x60 PUSH1 0x40 DUP3 ADD MSTORE PUSH1 0x0 PUSH2 0x2F70 PUSH1 0x60 DUP4 ADD DUP5 PUSH2 0x5096 JUMP JUMPDEST SWAP3 DUP4 MSTORE PUSH1 0x20 DUP4 ADD SWAP2 SWAP1 SWAP2 MSTORE PUSH1 0x40 DUP3 ADD MSTORE PUSH1 0x60 ADD SWAP1 JUMP JUMPDEST PUSH1 0x0 DUP3 NOT DUP3 GT ISZERO PUSH2 0x5464 JUMPI PUSH2 0x5464 PUSH2 0x555A JUMP JUMPDEST POP ADD SWAP1 JUMP JUMPDEST PUSH1 0x0 DUP3 PUSH2 0x5478 JUMPI PUSH2 0x5478 PUSH2 0x5570 JUMP JUMPDEST POP DIV SWAP1 JUMP JUMPDEST PUSH1 0x0 DUP2 PUSH1 0x0 NOT DIV DUP4 GT DUP3 ISZERO ISZERO AND ISZERO PUSH2 0x5497 JUMPI PUSH2 0x5497 PUSH2 0x555A JUMP JUMPDEST POP MUL SWAP1 JUMP JUMPDEST PUSH1 0x0 DUP3 DUP3 LT ISZERO PUSH2 0x54AE JUMPI PUSH2 0x54AE PUSH2 0x555A JUMP JUMPDEST POP SUB SWAP1 JUMP JUMPDEST PUSH1 0x0 JUMPDEST DUP4 DUP2 LT ISZERO PUSH2 0x54CE JUMPI DUP2 DUP2 ADD MLOAD DUP4 DUP3 ADD MSTORE PUSH1 0x20 ADD PUSH2 0x54B6 JUMP JUMPDEST DUP4 DUP2 GT ISZERO PUSH2 0xFF7 JUMPI POP POP PUSH1 0x0 SWAP2 ADD MSTORE JUMP JUMPDEST PUSH1 0x0 DUP2 PUSH2 0x54EE JUMPI PUSH2 0x54EE PUSH2 0x555A JUMP JUMPDEST POP PUSH1 0x0 NOT ADD SWAP1 JUMP JUMPDEST PUSH1 0x1 DUP2 DUP2 SHR SWAP1 DUP3 AND DUP1 PUSH2 0x550A JUMPI PUSH1 0x7F DUP3 AND SWAP2 POP JUMPDEST PUSH1 0x20 DUP3 LT DUP2 EQ ISZERO PUSH2 0x90C JUMPI PUSH4 0x4E487B71 PUSH1 0xE0 SHL PUSH1 0x0 MSTORE PUSH1 0x22 PUSH1 0x4 MSTORE PUSH1 0x24 PUSH1 0x0 REVERT JUMPDEST PUSH1 0x0 PUSH1 0x0 NOT DUP3 EQ ISZERO PUSH2 0x553F JUMPI PUSH2 0x553F PUSH2 0x555A JUMP JUMPDEST POP PUSH1 0x1 ADD SWAP1 JUMP JUMPDEST PUSH1 0x0 DUP3 PUSH2 0x5555 JUMPI PUSH2 0x5555 PUSH2 0x5570 JUMP JUMPDEST POP MOD SWAP1 JUMP JUMPDEST PUSH4 0x4E487B71 PUSH1 0xE0 SHL PUSH1 0x0 MSTORE PUSH1 0x11 PUSH1 0x4 MSTORE PUSH1 0x24 PUSH1 0x0 REVERT JUMPDEST PUSH4 0x4E487B71 PUSH1 0xE0 SHL PUSH1 0x0 MSTORE PUSH1 0x12 PUSH1 0x4 MSTORE PUSH1 0x24 PUSH1 0x0 REVERT JUMPDEST PUSH4 0x4E487B71 PUSH1 0xE0 SHL PUSH1 0x0 MSTORE PUSH1 0x21 PUSH1 0x4 MSTORE PUSH1 0x24 PUSH1 0x0 REVERT JUMPDEST PUSH4 0x4E487B71 PUSH1 0xE0 SHL PUSH1 0x0 MSTORE PUSH1 0x41 PUSH1 0x4 MSTORE PUSH1 0x24 PUSH1 0x0 REVERT JUMPDEST PUSH1 0x1 PUSH1 0x1 PUSH1 0xA0 SHL SUB DUP2 AND DUP2 EQ PUSH2 0xC44 JUMPI PUSH1 0x0 DUP1 REVERT JUMPDEST DUP1 ISZERO ISZERO DUP2 EQ PUSH2 0xC44 JUMPI PUSH1 0x0 DUP1 REVERT JUMPDEST PUSH1 0x1 PUSH1 0x1 PUSH1 0xE0 SHL SUB NOT DUP2 AND DUP2 EQ PUSH2 0xC44 JUMPI PUSH1 0x0 DUP1 REVERT INVALID PUSH9 0x747470733A2F2F6761 PUSH21 0x657761792E70696E6174612E636C6F75642F697066 PUSH20 0x2FDDF252AD1BE2C89B69C2B068FC378DAA952BA7 CALL PUSH4 0xC4A11628 CREATE2 GAS 0x4D CREATE2 0x23 0xB3 0xEF DUP3 GASPRICE CALLVALUE RETURNDATASIZE SHR DUP10 SWAP15 PUSH2 0xA4DB SLT 0x24 PUSH23 0x36A6882BF1FEFAE78BEF39170F8D0F5B53E456A2646970 PUSH7 0x735822122034C6 POP PUSH27 0x5F3CD8957D61BD613F5C365E81A3E089993FB65BE6B6F75E7E50F2 PUSH27 0x64736F6C6343000804003300000000000000000000000000000000 ","sha1":"9d6d1f41904d2726f443025bd7b88de07628726f","source":"pragma solidity ^0.8.0;\n\n// SPDX-License-Identifier: BUSL-1.1\n\nimport \"@openzeppelin/contracts/access/Ownable.sol\";\nimport \"@openzeppelin/contracts/security/ReentrancyGuard.sol\";\nimport \"@openzeppelin/contracts/token/ERC20/ERC20.sol\";\nimport \"./OptionConfig.sol\";\nimport \"./BufferNFTCore.sol\";\nimport \"./TraderNFT.sol\";\nimport \"../Pool/BufferIBFRPoolV2.sol\";\nimport \"../Libraries/OptionFeeCalculator.sol\";\n\n/**\n * @author Heisenberg\n * @title Buffer TokenX Bidirectional (Call and Put) Options\n * @notice Buffer TokenX Options Contract\n */\ncontract BufferBinaryEuropeanTokenXOptions is\n    IBufferOptions,\n    Ownable,\n    ReentrancyGuard,\n    BufferNFTCore\n{\n    ERC20 public tokenX;\n    mapping(uint256 => string) private _tokenURIs;\n    IPriceProvider public priceProvider;\n    uint256 public nextTokenId = 0;\n    mapping(uint256 => Option) public options;\n    mapping(uint256 => BinaryOptionType) public binaryOptionType;\n    mapping(uint256 => uint256) public expiryToRoundID;\n    mapping(uint256 => mapping(address => uint256)) public optionSizeBought;\n    BufferIBFRPoolV2 public pool;\n    OptionConfig public config;\n    mapping(uint256 => SlotDetail) public slotDetails;\n    uint256 internal contractCreationTimestamp;\n\n    bytes32 public constant AUTO_CLOSER_ROLE = keccak256(\"AUTO_CLOSER_ROLE\");\n\n    uint256 public constant minimumYield = 5;\n\n    constructor(\n        ERC20 _tokenX,\n        IPriceProvider pp,\n        BufferIBFRPoolV2 _pool,\n        OptionConfig _config\n    ) {\n        tokenX = _tokenX;\n        pool = _pool;\n        contractCreationTimestamp = block.timestamp;\n        config = _config;\n        priceProvider = pp;\n        _setupRole(DEFAULT_ADMIN_ROLE, msg.sender);\n    }\n\n    /**\n     * @notice Call this to set the max approval for tokenX transfers from the options to pool\n     */\n    function approvePoolToTransferTokenX() public {\n        tokenX.approve(address(pool), ~uint256(0));\n    }\n\n    /************************************************\n     *  OPTIONS CORE\n     ***********************************************/\n    /**\n     * @notice Creates a new option\n     * @param amount Option amount in tokenX\n     * @param referrer Referrer address\n     * @param metadata Option metadata\n     * @return optionID Created option's ID\n     */\n    function create(\n        uint256 amount,\n        uint256 strike,\n        uint256 expiration,\n        bool isYes,\n        bool isAbove,\n        address referrer,\n        string memory metadata\n    ) external nonReentrant returns (uint256 optionID) {\n        // Check if the option period is higher the 5 mins\n        require((expiration - block.timestamp) > 5 minutes, \"O21\");\n\n        // A user is only allowed to buy a n amount size per block\n        // so we'll have to keep track of the amount bought per block\n        require(\n            optionSizeBought[block.number][msg.sender] + amount <\n                (config.optionSizePerBlockLimitPercent() *\n                    pool.availableBalance()) /\n                    100,\n            \"O23\"\n        );\n        optionSizeBought[block.number][msg.sender] += amount;\n\n        // if the period is lower than 12 hours then assert that the option be an ATM one and deduct a small fee\n        if ((expiration - block.timestamp) < 24 hours) {\n            require(strike == 0, \"O22\");\n            strike = priceProvider.getUsdPrice();\n        }\n\n        (uint256 totalFee, uint256 settlementFee, uint256 premium) = fees(\n            expiration - block.timestamp,\n            amount,\n            strike,\n            isYes,\n            isAbove\n        );\n\n        require(\n            totalFee * 365 days * 100 >\n                amount * (expiration - block.timestamp) * minimumYield,\n            \"O2\"\n        );\n\n        // User has to approve first inorder to execute this function\n        bool success = tokenX.transferFrom(msg.sender, address(this), totalFee);\n        require(success, \"O3\");\n        OptionType optionType = OptionType.Put;\n\n        if (\n            (isYes == true && isAbove == true) ||\n            (isYes == false && isAbove == false)\n        ) {\n            optionType = OptionType.Call;\n        }\n        Option memory option = Option(\n            State.Active,\n            strike,\n            amount,\n            amount,\n            premium,\n            expiration,\n            optionType\n        );\n        optionID = _generateTokenId();\n        binaryOptionType[optionID] = BinaryOptionType(isYes, isAbove);\n        _setOption(optionID, option);\n        _mint(\n            optionID,\n            msg.sender,\n            createSlot(optionID, option.strike, option.expiration, optionType)\n        );\n        _setTokenURI(optionID, metadata);\n        uint256 stakingAmount = distributeSettlementFee(\n            settlementFee,\n            referrer\n        );\n\n        _lock(optionID, option.lockedAmount, option.premium);\n        emit Create(optionID, msg.sender, stakingAmount, totalFee, metadata);\n    }\n\n    function distributeSettlementFee(uint256 settlementFee, address referrer)\n        internal\n        returns (uint256 stakingAmount)\n    {\n        stakingAmount = ((settlementFee * config.stakingFeePercentage()) / 100);\n\n        // Incase the stakingAmount is 0\n        if (stakingAmount > 0) {\n            tokenX.transfer(config.settlementFeeRecipient(), stakingAmount);\n        }\n\n        uint256 adminFee = settlementFee - stakingAmount;\n        if (adminFee > 0) {\n            if (\n                config.referralRewardPercentage() > 0 &&\n                referrer != owner() &&\n                referrer != msg.sender\n            ) {\n                uint256 referralReward = (adminFee *\n                    config.referralRewardPercentage()) / 100;\n                adminFee = adminFee - referralReward;\n                tokenX.transfer(referrer, referralReward);\n                emit PayReferralFee(referrer, referralReward);\n            }\n            tokenX.transfer(owner(), adminFee);\n            emit PayAdminFee(owner(), adminFee);\n        }\n    }\n\n    function _modifyOption(\n        uint256 optionID,\n        Option memory option,\n        uint256 lockedAmount,\n        uint256 amount,\n        uint256 premium\n    ) internal returns (Option memory modifiedOption) {\n        option.lockedAmount = lockedAmount;\n        option.amount = amount;\n        option.premium = premium;\n        modifiedOption = option;\n        _setOption(optionID, option);\n    }\n\n    function _lock(\n        uint256 id,\n        uint256 lockedAmount,\n        uint256 premium\n    ) internal {\n        pool.lock(id, lockedAmount, premium);\n    }\n\n    /**\n     * @notice Sets the expiry price in the oracle\n     * @dev a roundId must be provided to confirm price validity,\n     * which is the first Chainlink price provided after the expiryTimestamp\n     * @param roundId the first roundId after expiryTimestamp\n     */\n    function setRoundIDForExpiry(uint256 roundId, uint256 optionID)\n        external\n        returns (bool isCorrectRoundId)\n    {\n        (, uint256 price, , uint256 roundTimestamp, ) = priceProvider\n            .getRoundData(roundId);\n        Option storage option = options[optionID];\n        uint256 expiryTimestamp = option.expiration;\n        require(expiryTimestamp < roundTimestamp, \"C1\");\n        require(price >= 0, \"C2\");\n        uint256 previousRoundId = expiryToRoundID[expiryTimestamp];\n        if (previousRoundId <= 0) {\n            previousRoundId = roundId - 1;\n            while (!isCorrectRoundId) {\n                (, , , uint256 previousRoundTimestamp, ) = priceProvider\n                    .getRoundData(previousRoundId);\n                if (previousRoundTimestamp == 0) {\n                    require(previousRoundId > 0, \"C3\");\n                    previousRoundId = previousRoundId - 1;\n                } else if (previousRoundTimestamp > expiryTimestamp) {\n                    revert(\"C4\");\n                } else {\n                    isCorrectRoundId = true;\n                    expiryToRoundID[expiryTimestamp] = previousRoundId;\n                }\n            }\n        }\n    }\n\n    /**\n     * @notice Unlocks the locked funds if the option was\n     * OTM at the time of expiry otherwise exercises it\n     * @param optionID ID of the option\n     */\n    function unlock(uint256 optionID) public {\n        Option storage option = options[optionID];\n        require(option.expiration <= block.timestamp, \"O4\");\n        require(option.state == State.Active, \"O5\");\n        uint256 roundID = expiryToRoundID[option.expiration];\n        require(roundID > 0, \"O20\");\n        (, uint256 priceAtExpiration, , , ) = priceProvider.getRoundData(\n            roundID\n        );\n        if (\n            (option.optionType == OptionType.Call &&\n                priceAtExpiration > option.strike) ||\n            (option.optionType == OptionType.Put &&\n                priceAtExpiration < option.strike)\n        ) {\n            exercise(optionID);\n        } else {\n            option.state = State.Expired;\n            pool.unlock(optionID);\n            burnToken(optionID);\n            emit Expire(optionID, option.premium);\n        }\n    }\n\n    /**\n     * @notice Unlocks an array of options\n     * @param optionIDs array of options\n     */\n    function unlockAll(uint256[] calldata optionIDs) external {\n        uint256 arrayLength = optionIDs.length;\n        for (uint256 i = 0; i < arrayLength; i++) {\n            unlock(optionIDs[i]);\n        }\n    }\n\n    /**\n     * @notice Exercises an option if it was\n     * ITM at the time of expiry\n     * @param optionID ID of your option\n     * @return profit Profit sent to the user\n     */\n    function exercise(uint256 optionID) public returns (uint256 profit) {\n        require(exists(optionID), \"O10\");\n\n        Option storage option = options[optionID];\n\n        require(option.expiration <= block.timestamp, \"O4\");\n        require(option.state == State.Active, \"O14\");\n        uint256 roundID = expiryToRoundID[option.expiration];\n        require(roundID > 0, \"O20\");\n        (, uint256 priceAtExpiration, , , ) = priceProvider.getRoundData(\n            roundID\n        );\n\n        if (option.optionType == OptionType.Call) {\n            require(option.strike <= priceAtExpiration, \"O17\");\n        } else {\n            require(option.strike >= priceAtExpiration, \"O18\");\n        }\n        profit = option.lockedAmount;\n        pool.send(optionID, ownerOf(optionID), profit);\n        // Burn the option\n        burnToken(optionID);\n        option.state = State.Exercised;\n        emit Exercise(optionID, profit);\n    }\n\n    /**\n     * @notice Used for getting the option's price using blackscholes\n     * @param period Option period in seconds\n     * @param amount Option amount\n     * @param strike Strike price of the option\n     * @param isYes whether the option isAbove or not\n     * @param isAbove whether the price will stay above this strike or not\n     * @return total Total price to be paid\n     * @return settlementFee Amount to be distributed to the Buffer token holders\n     * @return premium Amount that covers the price difference in the ITM options\n     */\n    function fees(\n        uint256 period,\n        uint256 amount,\n        uint256 strike,\n        bool isYes,\n        bool isAbove\n    )\n        public\n        view\n        returns (\n            uint256 total,\n            uint256 settlementFee,\n            uint256 premium\n        )\n    {\n        uint256 currentPrice = priceProvider.getUsdPrice();\n\n        premium = FeeCalculator.feesTokenXBinary(\n            period,\n            amount,\n            strike,\n            isYes,\n            isAbove,\n            currentPrice,\n            config,\n            pool\n        );\n        settlementFee = getSettlementFee(amount);\n        total = settlementFee + premium;\n    }\n\n    /**\n     * @notice Calculates settlementFee\n     * @param amount Option amount\n     * @return fee Settlement fee amount\n     */\n    function getSettlementFee(uint256 amount)\n        internal\n        view\n        returns (uint256 fee)\n    {\n        return (amount * config.settlementFeePercentage()) / 100;\n    }\n\n    function _generateTokenId() internal returns (uint256) {\n        return nextTokenId++;\n    }\n\n    function _getOption(uint256 optionID)\n        internal\n        view\n        returns (Option memory)\n    {\n        return options[optionID];\n    }\n\n    function _setOption(uint256 optionID, Option memory option) internal {\n        options[optionID] = option;\n    }\n\n    function burn(uint256 tokenId_) external {\n        require(msg.sender == ownerOf(tokenId_), \"O9\");\n        burnToken(tokenId_);\n    }\n\n    /************************************************\n     *  ERC3525 Functions\n     ***********************************************/\n\n    /**\n     * @notice Splits the option\n     * @param optionID OptionId to be splitted\n     * @param splitUnits_ Units to be splitted into\n     * @return newOptionIDs An array of the splitted options\n     */\n    function split(uint256 optionID, uint256[] calldata splitUnits_)\n        external\n        returns (uint256[] memory newOptionIDs)\n    {\n        require(splitUnits_.length > 0, \"N1\");\n        newOptionIDs = new uint256[](splitUnits_.length);\n        Option memory option = _getOption(optionID);\n        uint256 totalUnits = unitsInToken(optionID);\n        uint256 totalChildAmount;\n        uint256 totalChildLockedAmount;\n        uint256 totalChildPremium;\n        // Create child options\n        for (uint256 i = 0; i < splitUnits_.length; i++) {\n            uint256 newOptionID = _generateTokenId();\n            newOptionIDs[i] = newOptionID;\n\n            _split(optionID, newOptionID, splitUnits_[i]);\n\n            uint256 childAmount = (option.amount * splitUnits_[i]) / totalUnits;\n            totalChildAmount += childAmount;\n\n            uint256 childLockedAmount = (option.lockedAmount * splitUnits_[i]) /\n                totalUnits;\n            totalChildLockedAmount += childLockedAmount;\n\n            uint256 childPremium = (option.premium * splitUnits_[i]) /\n                totalUnits;\n            totalChildPremium += childPremium;\n\n            Option memory newOption = Option(\n                option.state,\n                option.strike,\n                childAmount,\n                childLockedAmount,\n                childPremium,\n                option.expiration,\n                option.optionType\n            );\n            _setOption(newOptionID, newOption);\n        }\n        // Modify the parent option once all child options are created\n        option = _modifyOption(\n            optionID,\n            option,\n            option.lockedAmount - totalChildLockedAmount,\n            option.amount - totalChildAmount,\n            option.premium - totalChildPremium\n        );\n        pool.changeLock(optionID, option.lockedAmount, option.premium);\n\n        // Lock the amount in the pool for the child options\n        for (uint256 i = 0; i < splitUnits_.length; i++) {\n            Option memory newOption = _getOption(newOptionIDs[i]);\n            _lock(newOptionIDs[i], newOption.lockedAmount, newOption.premium);\n        }\n    }\n\n    /**\n     * @notice Merges the options\n     * @param optionIDs An array of the optionsIds to be merged\n     * @param targetOptionID OptionId to be merged into\n     */\n    function merge(uint256[] calldata optionIDs, uint256 targetOptionID)\n        external\n    {\n        require(optionIDs.length > 0, \"N4\");\n        Option memory targetOption = _getOption(targetOptionID);\n\n        uint256 totalLockedAmount = targetOption.lockedAmount;\n        uint256 totalAmount = targetOption.amount;\n        uint256 totalPremium = targetOption.premium;\n\n        for (uint256 i = 0; i < optionIDs.length; i++) {\n            Option memory option = _getOption(optionIDs[i]);\n            totalLockedAmount = totalLockedAmount + option.lockedAmount;\n            totalAmount = totalAmount + option.amount;\n            totalPremium = totalPremium + option.premium;\n            pool.unlockWithoutProfit(optionIDs[i]);\n            _merge(optionIDs[i], targetOptionID);\n        }\n        _modifyOption(\n            targetOptionID,\n            targetOption,\n            totalLockedAmount,\n            totalAmount,\n            totalPremium\n        );\n        pool.changeLock(targetOptionID, totalLockedAmount, totalPremium);\n    }\n\n    /**\n     * @notice Transfer part of units of a option to another option.\n     * @param optionID Id of the option to transfer\n     * @param transferUnits_ Amount of units to transfer\n     */\n    function _beforeTransferFrom(uint256 optionID, uint256 transferUnits_)\n        internal\n        returns (\n            uint256 newAmount,\n            uint256 newPremium,\n            uint256 newLockedAmount,\n            Option memory option\n        )\n    {\n        option = _getOption(optionID);\n        uint256 totalUnits = unitsInToken(optionID);\n        newAmount = (option.amount * transferUnits_) / totalUnits;\n        newPremium = (option.premium * transferUnits_) / totalUnits;\n        newLockedAmount = (option.lockedAmount * transferUnits_) / totalUnits;\n\n        option = _modifyOption(\n            optionID,\n            option,\n            option.lockedAmount - newLockedAmount,\n            option.amount - newAmount,\n            option.premium - newPremium\n        );\n        pool.changeLock(optionID, option.lockedAmount, option.premium);\n    }\n\n    /**\n     * @notice Transfer part of units of a option to target address.\n     * @param from_ Address of the option sender\n     * @param to_ Address of the option recipient\n     * @param optionID Id of the option to transfer\n     * @param transferUnits_ Amount of units to transfer\n     */\n    function transferFrom(\n        address from_,\n        address to_,\n        uint256 optionID,\n        uint256 transferUnits_\n    ) external returns (uint256 newOptionID) {\n        newOptionID = _generateTokenId();\n        (\n            uint256 newAmount,\n            uint256 newPremium,\n            uint256 newLockedAmount,\n            Option memory option\n        ) = _beforeTransferFrom(optionID, transferUnits_);\n        Option memory newOption = Option(\n            option.state,\n            option.strike,\n            newAmount,\n            newLockedAmount,\n            newPremium,\n            option.expiration,\n            option.optionType\n        );\n        _setOption(newOptionID, newOption);\n\n        _lock(newOptionID, newLockedAmount, newPremium);\n        _transferUnitsFrom(from_, to_, optionID, newOptionID, transferUnits_);\n    }\n\n    /**\n     * @notice Transfer part of units of a option to another option.\n     * @param from_ Address of the option sender\n     * @param to_ Address of the option recipient\n     * @param optionID Id of the option to transfer\n     * @param targetOptionID Id of the option to receive\n     * @param transferUnits_ Amount of units to transfer\n     */\n    function transferFrom(\n        address from_,\n        address to_,\n        uint256 optionID,\n        uint256 targetOptionID,\n        uint256 transferUnits_\n    ) external virtual {\n        require(exists(targetOptionID), \"N12\");\n        (\n            uint256 newAmount,\n            uint256 newPremium,\n            uint256 newLockedAmount,\n\n        ) = _beforeTransferFrom(optionID, transferUnits_);\n        Option memory targetOption = _getOption(targetOptionID);\n        targetOption = _modifyOption(\n            targetOptionID,\n            targetOption,\n            targetOption.lockedAmount + newLockedAmount,\n            targetOption.amount + newAmount,\n            targetOption.premium + newPremium\n        );\n\n        pool.changeLock(\n            targetOptionID,\n            targetOption.lockedAmount,\n            targetOption.premium\n        );\n        _transferUnitsFrom(\n            from_,\n            to_,\n            optionID,\n            targetOptionID,\n            transferUnits_\n        );\n    }\n\n    function createSlot(\n        uint256 optionID,\n        uint256 strike,\n        uint256 expiration,\n        OptionType optionType\n    ) internal returns (uint256 slot) {\n        slot = uint256(\n            keccak256(abi.encode(strike, expiration, optionType, optionID))\n        );\n        require(!slotDetails[slot].isValid, \"N14\");\n        slotDetails[slot] = SlotDetail(strike, expiration, optionType, true);\n    }\n}\n","sourcePath":"contracts/Options/BufferBinaryEuropeanTokenXOptions.sol","deployment":{"address":"0xaA208A3F783FB46ab260C995a277283378EB6F1f","chainid":"80001","blockHeight":27240227}}