{"bytecode":"608060405234801561001057600080fd5b506111c6806100206000396000f3fe608060405234801561001057600080fd5b50600436106100575760003560e01c80636c967c0f1461005c578063931e9f9014610085578063d2c85c56146100a5578063dedf92a4146100c6578063f8ecf3a3146100e6575b600080fd5b61006f61006a366004610e7d565b6100f9565b60405161007c9190611077565b60405180910390f35b610098610093366004610c98565b610467565b60405161007c919061103f565b6100b86100b3366004610c6d565b6105b5565b60405190815260200161007c565b6100d96100d4366004610d07565b6107d3565b60405161007c9190610ff0565b6100d96100f4366004610e98565b6108b8565b610101610b32565b8151602083015160405163409e220560e01b81526004810183905281906000908190819081908190819081906001600160a01b0389169063409e22059060240160e06040518083038186803b15801561015957600080fd5b505afa15801561016d573d6000803e3d6000fd5b505050506040513d601f19601f820116820180604052508101906101919190610e0d565b9650965096509650965096509650600080896001600160a01b031663689ab5ac8d6040518263ffffffff1660e01b81526004016101d091815260200190565b604080518083038186803b1580156101e757600080fd5b505afa1580156101fb573d6000803e3d6000fd5b505050506040513d601f19601f8201168201806040525081019061021f9190610dd4565b91509150604051806101a001604052808d81526020018a600381111561025557634e487b7160e01b600052602160045260246000fd5b815260200189815260200188815260200187815260200186815260200185815260200184600281111561029857634e487b7160e01b600052602160045260246000fd5b8152602001831515815260200182151581526020018b6001600160a01b03166379502c556040518163ffffffff1660e01b815260040160206040518083038186803b1580156102e657600080fd5b505afa1580156102fa573d6000803e3d6000fd5b505050506040513d601f19601f8201168201806040525081019061031e9190610c51565b6001600160a01b03166318f88e5b6040518163ffffffff1660e01b815260040160206040518083038186803b15801561035657600080fd5b505afa15801561036a573d6000803e3d6000fd5b505050506040513d601f19601f8201168201806040525081019061038e9190610ea9565b815260200160018b60038111156103b557634e487b7160e01b600052602160045260246000fd5b146103c1576000610439565b6040516331a9108f60e11b8152600481018f90526001600160a01b038d1690636352211e9060240160206040518083038186803b15801561040157600080fd5b505afa158015610415573d6000803e3d6000fd5b505050506040513d601f19601f820116820180604052508101906104399190610c51565b6001600160a01b031681526020018c6001600160a01b03168152509c50505050505050505050505050919050565b6060816001600160401b0381111561048f57634e487b7160e01b600052604160045260246000fd5b6040519080825280602002602001820160405280156104b8578160200160208202803683370190505b50905060005b828110156105ae5760008484838181106104e857634e487b7160e01b600052603260045260246000fd5b90506020020160208101906104fd9190610c2e565b9050806001600160a01b0316631acf55826040518163ffffffff1660e01b815260040160206040518083038186803b15801561053857600080fd5b505afa15801561054c573d6000803e3d6000fd5b505050506040513d601f19601f820116820180604052508101906105709190610ea9565b83838151811061059057634e487b7160e01b600052603260045260246000fd5b602090810291909101015250806105a68161110d565b9150506104be565b5092915050565b6000808390506000806000836001600160a01b031663feaf968c6040518163ffffffff1660e01b815260040160a06040518083038186803b1580156105f957600080fd5b505afa15801561060d573d6000803e3d6000fd5b505050506040513d601f19601f820116820180604052508101906106319190610ec1565b5093505092509250858111156107c75760005b806107c5576106546001856110e5565b93506000846001600160501b0316116106a45760405162461bcd60e51b815260206004820152600e60248201526d15dc9bdb99c81c9bdd5b99081a5960921b604482015260640160405180910390fd5b600080866001600160a01b031663b888879e6040518163ffffffff1660e01b815260040160206040518083038186803b1580156106e057600080fd5b505afa1580156106f4573d6000803e3d6000fd5b505050506040513d601f19601f820116820180604052508101906107189190610c51565b604051639a6fc8f560e01b81526001600160501b03881660048201526001600160a01b039190911690639a6fc8f59060240160a06040518083038186803b15801561076257600080fd5b505afa158015610776573d6000803e3d6000fd5b505050506040513d601f19601f8201168201806040525081019061079a9190610ec1565b509350509250506000811180156107b15750888111155b156107be57600192508194505b5050610644565b505b50925050505b92915050565b606081516001600160401b038111156107fc57634e487b7160e01b600052604160045260246000fd5b60405190808252806020026020018201604052801561083557816020015b610822610b32565b81526020019060019003908161081a5790505b50905060005b82518110156108b25761087483828151811061086757634e487b7160e01b600052603260045260246000fd5b60200260200101516100f9565b82828151811061089457634e487b7160e01b600052603260045260246000fd5b602002602001018190525080806108aa9061110d565b91505061083b565b50919050565b606060008235816108cf6040860160208701610c2e565b90508060006001600160a01b0382166375a74d846108f360608a0160408b01610c2e565b6040516001600160e01b031960e084901b1681526001600160a01b03909116600482015260240160206040518083038186803b15801561093257600080fd5b505afa158015610946573d6000803e3d6000fd5b505050506040513d601f19601f8201168201806040525081019061096a9190610ea9565b9050600061097e6080890160608a01610db8565b6109925761098d8560016110b6565b610995565b60005b905081811015610b27576109a981836110ce565b6001600160401b038111156109ce57634e487b7160e01b600052604160045260246000fd5b604051908082528060200260200182016040528015610a0757816020015b6109f4610b32565b8152602001906001900390816109ec5790505b509650805b82811015610b2557610ad96040518060400160405280866001600160a01b031663c962ca128d6040016020810190610a449190610c2e565b6040516001600160e01b031960e084901b1681526001600160a01b0390911660048201526024810187905260440160206040518083038186803b158015610a8a57600080fd5b505afa158015610a9e573d6000803e3d6000fd5b505050506040513d601f19601f82011682018060405250810190610ac29190610ea9565b8152602001876001600160a01b03168152506100f9565b888881518110610af957634e487b7160e01b600052603260045260246000fd5b60200260200101819052508680610b0f9061110d565b9750508080610b1d9061110d565b915050610a0c565b505b505050505050919050565b604080516101a08101909152600080825260208201908152602001600081526020016000815260200160008152602001600081526020016000815260200160006002811115610b9157634e487b7160e01b600052602160045260246000fd5b815260006020820181905260408201819052606082018190526080820181905260a09091015290565b600060408284031215610bcb578081fd5b604080519081016001600160401b0381118282101715610bed57610bed611154565b604052823581529050806020830135610c058161116a565b6020919091015292915050565b80516001600160501b0381168114610c2957600080fd5b919050565b600060208284031215610c3f578081fd5b8135610c4a8161116a565b9392505050565b600060208284031215610c62578081fd5b8151610c4a8161116a565b60008060408385031215610c7f578081fd5b8235610c8a8161116a565b946020939093013593505050565b60008060208385031215610caa578182fd5b82356001600160401b0380821115610cc0578384fd5b818501915085601f830112610cd3578384fd5b813581811115610ce1578485fd5b8660208260051b8501011115610cf5578485fd5b60209290920196919550909350505050565b60006020808385031215610d19578182fd5b82356001600160401b0380821115610d2f578384fd5b818501915085601f830112610d42578384fd5b813581811115610d5457610d54611154565b610d62848260051b01611086565b8181528481019250838501600683901b85018601891015610d81578687fd5b8694505b82851015610dac57610d978982610bba565b84526001949094019392850192604001610d85565b50979650505050505050565b600060208284031215610dc9578081fd5b8135610c4a81611182565b60008060408385031215610de6578182fd5b8251610df181611182565b6020840151909250610e0281611182565b809150509250929050565b600080600080600080600060e0888a031215610e27578283fd5b875160048110610e35578384fd5b809750506020880151955060408801519450606088015193506080880151925060a0880151915060c088015160038110610e6d578182fd5b8091505092959891949750929550565b600060408284031215610e8e578081fd5b610c4a8383610bba565b6000608082840312156108b2578081fd5b600060208284031215610eba578081fd5b5051919050565b600080600080600060a08688031215610ed8578081fd5b610ee186610c12565b9450602086015193506040860151925060608601519150610f0460808701610c12565b90509295509295909350565b6001600160a01b03169052565b60038110610f2d57610f2d61113e565b9052565b60048110610f2d57610f2d61113e565b805182526020810151610f576020840182610f31565b5060408101516040830152606081015160608301526080810151608083015260a081015160a083015260c081015160c083015260e0810151610f9c60e0840182610f1d565b506101008181015115159083015261012080820151151590830152610140808201519083015261016080820151610fd582850182610f10565b505061018080820151610fea82850182610f10565b50505050565b6020808252825182820181905260009190848201906040850190845b818110156110335761101f838551610f41565b928401926101a0929092019160010161100c565b50909695505050505050565b6020808252825182820181905260009190848201906040850190845b818110156110335783518352928401929184019160010161105b565b6101a081016107cd8284610f41565b604051601f8201601f191681016001600160401b03811182821017156110ae576110ae611154565b604052919050565b600082198211156110c9576110c9611128565b500190565b6000828210156110e0576110e0611128565b500390565b60006001600160501b038381169083168181101561110557611105611128565b039392505050565b600060001982141561112157611121611128565b5060010190565b634e487b7160e01b600052601160045260246000fd5b634e487b7160e01b600052602160045260246000fd5b634e487b7160e01b600052604160045260246000fd5b6001600160a01b038116811461117f57600080fd5b50565b801515811461117f57600080fdfea2646970667358221220cd6e87d3bb5342010bd1171a59694fc56a0b98b3edebf3313e87746bbac41de864736f6c63430008040033","bytecodeSha1":"b77582c3c4ecc1f6337939a535cb5341e09dd612","type":"contract","abi":[{"inputs":[{"components":[{"internalType":"uint256","name":"optionId","type":"uint256"},{"internalType":"address","name":"contractAddress","type":"address"}],"internalType":"struct OptionMeta.GenricOptionInput[]","name":"options","type":"tuple[]"}],"name":"get_bulk_option_data","outputs":[{"components":[{"internalType":"uint256","name":"optionId","type":"uint256"},{"internalType":"enum IBufferOptions.State","name":"state","type":"uint8"},{"internalType":"uint256","name":"strike","type":"uint256"},{"internalType":"uint256","name":"amount","type":"uint256"},{"internalType":"uint256","name":"lockedAmount","type":"uint256"},{"internalType":"uint256","name":"premium","type":"uint256"},{"internalType":"uint256","name":"expiration","type":"uint256"},{"internalType":"enum IBufferOptions.OptionType","name":"optionType","type":"uint8"},{"internalType":"bool","name":"isYes","type":"bool"},{"internalType":"bool","name":"isAbove","type":"bool"},{"internalType":"uint256","name":"iv","type":"uint256"},{"internalType":"address","name":"owner","type":"address"},{"internalType":"address","name":"contractAddress","type":"address"}],"internalType":"struct OptionMeta.OptionMetaData[]","name":"allOptions","type":"tuple[]"}],"stateMutability":"view","type":"function"},{"inputs":[{"internalType":"address[]","name":"assets","type":"address[]"}],"name":"get_current_prices","outputs":[{"internalType":"uint256[]","name":"prices","type":"uint256[]"}],"stateMutability":"view","type":"function"},{"inputs":[{"components":[{"internalType":"uint256","name":"lastStoredOptionIndex","type":"uint256"},{"internalType":"address","name":"contractAddress","type":"address"},{"internalType":"address","name":"userAddress","type":"address"},{"internalType":"bool","name":"isNull","type":"bool"}],"internalType":"struct OptionMeta.UserOptionInput","name":"userOptionInput","type":"tuple"}],"name":"get_latest_options_for_user","outputs":[{"components":[{"internalType":"uint256","name":"optionId","type":"uint256"},{"internalType":"enum IBufferOptions.State","name":"state","type":"uint8"},{"internalType":"uint256","name":"strike","type":"uint256"},{"internalType":"uint256","name":"amount","type":"uint256"},{"internalType":"uint256","name":"lockedAmount","type":"uint256"},{"internalType":"uint256","name":"premium","type":"uint256"},{"internalType":"uint256","name":"expiration","type":"uint256"},{"internalType":"enum IBufferOptions.OptionType","name":"optionType","type":"uint8"},{"internalType":"bool","name":"isYes","type":"bool"},{"internalType":"bool","name":"isAbove","type":"bool"},{"internalType":"uint256","name":"iv","type":"uint256"},{"internalType":"address","name":"owner","type":"address"},{"internalType":"address","name":"contractAddress","type":"address"}],"internalType":"struct OptionMeta.OptionMetaData[]","name":"allOptions","type":"tuple[]"}],"stateMutability":"view","type":"function"},{"inputs":[{"components":[{"internalType":"uint256","name":"optionId","type":"uint256"},{"internalType":"address","name":"contractAddress","type":"address"}],"internalType":"struct OptionMeta.GenricOptionInput","name":"option","type":"tuple"}],"name":"get_option_data","outputs":[{"components":[{"internalType":"uint256","name":"optionId","type":"uint256"},{"internalType":"enum IBufferOptions.State","name":"state","type":"uint8"},{"internalType":"uint256","name":"strike","type":"uint256"},{"internalType":"uint256","name":"amount","type":"uint256"},{"internalType":"uint256","name":"lockedAmount","type":"uint256"},{"internalType":"uint256","name":"premium","type":"uint256"},{"internalType":"uint256","name":"expiration","type":"uint256"},{"internalType":"enum IBufferOptions.OptionType","name":"optionType","type":"uint8"},{"internalType":"bool","name":"isYes","type":"bool"},{"internalType":"bool","name":"isAbove","type":"bool"},{"internalType":"uint256","name":"iv","type":"uint256"},{"internalType":"address","name":"owner","type":"address"},{"internalType":"address","name":"contractAddress","type":"address"}],"internalType":"struct OptionMeta.OptionMetaData","name":"optionDetails","type":"tuple"}],"stateMutability":"view","type":"function"},{"inputs":[{"internalType":"address","name":"priceProvider","type":"address"},{"internalType":"uint256","name":"timestamp","type":"uint256"}],"name":"get_price_at_timestamp","outputs":[{"internalType":"uint256","name":"","type":"uint256"}],"stateMutability":"view","type":"function"}],"compiler":{"version":"0.8.4+commit.c7e474f2","evm_version":"istanbul","optimizer":{"enabled":true,"runs":1}},"contractName":"OptionMeta","language":"Solidity","natspec":{"methods":{},"kind":"dev","version":1},"opcodes":"PUSH1 0x80 PUSH1 0x40 MSTORE CALLVALUE DUP1 ISZERO PUSH2 0x10 JUMPI PUSH1 0x0 DUP1 REVERT JUMPDEST POP PUSH1 0x4 CALLDATASIZE LT PUSH2 0x57 JUMPI PUSH1 0x0 CALLDATALOAD PUSH1 0xE0 SHR DUP1 PUSH4 0x6C967C0F EQ PUSH2 0x5C JUMPI DUP1 PUSH4 0x931E9F90 EQ PUSH2 0x85 JUMPI DUP1 PUSH4 0xD2C85C56 EQ PUSH2 0xA5 JUMPI DUP1 PUSH4 0xDEDF92A4 EQ PUSH2 0xC6 JUMPI DUP1 PUSH4 0xF8ECF3A3 EQ PUSH2 0xE6 JUMPI JUMPDEST PUSH1 0x0 DUP1 REVERT JUMPDEST PUSH2 0x6F PUSH2 0x6A CALLDATASIZE PUSH1 0x4 PUSH2 0xE7D JUMP JUMPDEST PUSH2 0xF9 JUMP JUMPDEST PUSH1 0x40 MLOAD PUSH2 0x7C SWAP2 SWAP1 PUSH2 0x1077 JUMP JUMPDEST PUSH1 0x40 MLOAD DUP1 SWAP2 SUB SWAP1 RETURN JUMPDEST PUSH2 0x98 PUSH2 0x93 CALLDATASIZE PUSH1 0x4 PUSH2 0xC98 JUMP JUMPDEST PUSH2 0x467 JUMP JUMPDEST PUSH1 0x40 MLOAD PUSH2 0x7C SWAP2 SWAP1 PUSH2 0x103F JUMP JUMPDEST PUSH2 0xB8 PUSH2 0xB3 CALLDATASIZE PUSH1 0x4 PUSH2 0xC6D JUMP JUMPDEST PUSH2 0x5B5 JUMP JUMPDEST PUSH1 0x40 MLOAD SWAP1 DUP2 MSTORE PUSH1 0x20 ADD PUSH2 0x7C JUMP JUMPDEST PUSH2 0xD9 PUSH2 0xD4 CALLDATASIZE PUSH1 0x4 PUSH2 0xD07 JUMP JUMPDEST PUSH2 0x7D3 JUMP JUMPDEST PUSH1 0x40 MLOAD PUSH2 0x7C SWAP2 SWAP1 PUSH2 0xFF0 JUMP JUMPDEST PUSH2 0xD9 PUSH2 0xF4 CALLDATASIZE PUSH1 0x4 PUSH2 0xE98 JUMP JUMPDEST PUSH2 0x8B8 JUMP JUMPDEST PUSH2 0x101 PUSH2 0xB32 JUMP JUMPDEST DUP2 MLOAD PUSH1 0x20 DUP4 ADD MLOAD PUSH1 0x40 MLOAD PUSH4 0x409E2205 PUSH1 0xE0 SHL DUP2 MSTORE PUSH1 0x4 DUP2 ADD DUP4 SWAP1 MSTORE DUP2 SWAP1 PUSH1 0x0 SWAP1 DUP2 SWAP1 DUP2 SWAP1 DUP2 SWAP1 DUP2 SWAP1 DUP2 SWAP1 DUP2 SWAP1 PUSH1 0x1 PUSH1 0x1 PUSH1 0xA0 SHL SUB DUP10 AND SWAP1 PUSH4 0x409E2205 SWAP1 PUSH1 0x24 ADD PUSH1 0xE0 PUSH1 0x40 MLOAD DUP1 DUP4 SUB DUP2 DUP7 DUP1 EXTCODESIZE ISZERO DUP1 ISZERO PUSH2 0x159 JUMPI PUSH1 0x0 DUP1 REVERT JUMPDEST POP GAS STATICCALL ISZERO DUP1 ISZERO PUSH2 0x16D JUMPI RETURNDATASIZE PUSH1 0x0 DUP1 RETURNDATACOPY RETURNDATASIZE PUSH1 0x0 REVERT JUMPDEST POP POP POP POP PUSH1 0x40 MLOAD RETURNDATASIZE PUSH1 0x1F NOT PUSH1 0x1F DUP3 ADD AND DUP3 ADD DUP1 PUSH1 0x40 MSTORE POP DUP2 ADD SWAP1 PUSH2 0x191 SWAP2 SWAP1 PUSH2 0xE0D JUMP JUMPDEST SWAP7 POP SWAP7 POP SWAP7 POP SWAP7 POP SWAP7 POP SWAP7 POP SWAP7 POP PUSH1 0x0 DUP1 DUP10 PUSH1 0x1 PUSH1 0x1 PUSH1 0xA0 SHL SUB AND PUSH4 0x689AB5AC DUP14 PUSH1 0x40 MLOAD DUP3 PUSH4 0xFFFFFFFF AND PUSH1 0xE0 SHL DUP2 MSTORE PUSH1 0x4 ADD PUSH2 0x1D0 SWAP2 DUP2 MSTORE PUSH1 0x20 ADD SWAP1 JUMP JUMPDEST PUSH1 0x40 DUP1 MLOAD DUP1 DUP4 SUB DUP2 DUP7 DUP1 EXTCODESIZE ISZERO DUP1 ISZERO PUSH2 0x1E7 JUMPI PUSH1 0x0 DUP1 REVERT JUMPDEST POP GAS STATICCALL ISZERO DUP1 ISZERO PUSH2 0x1FB JUMPI RETURNDATASIZE PUSH1 0x0 DUP1 RETURNDATACOPY RETURNDATASIZE PUSH1 0x0 REVERT JUMPDEST POP POP POP POP PUSH1 0x40 MLOAD RETURNDATASIZE PUSH1 0x1F NOT PUSH1 0x1F DUP3 ADD AND DUP3 ADD DUP1 PUSH1 0x40 MSTORE POP DUP2 ADD SWAP1 PUSH2 0x21F SWAP2 SWAP1 PUSH2 0xDD4 JUMP JUMPDEST SWAP2 POP SWAP2 POP PUSH1 0x40 MLOAD DUP1 PUSH2 0x1A0 ADD PUSH1 0x40 MSTORE DUP1 DUP14 DUP2 MSTORE PUSH1 0x20 ADD DUP11 PUSH1 0x3 DUP2 GT ISZERO PUSH2 0x255 JUMPI PUSH4 0x4E487B71 PUSH1 0xE0 SHL PUSH1 0x0 MSTORE PUSH1 0x21 PUSH1 0x4 MSTORE PUSH1 0x24 PUSH1 0x0 REVERT JUMPDEST DUP2 MSTORE PUSH1 0x20 ADD DUP10 DUP2 MSTORE PUSH1 0x20 ADD DUP9 DUP2 MSTORE PUSH1 0x20 ADD DUP8 DUP2 MSTORE PUSH1 0x20 ADD DUP7 DUP2 MSTORE PUSH1 0x20 ADD DUP6 DUP2 MSTORE PUSH1 0x20 ADD DUP5 PUSH1 0x2 DUP2 GT ISZERO PUSH2 0x298 JUMPI PUSH4 0x4E487B71 PUSH1 0xE0 SHL PUSH1 0x0 MSTORE PUSH1 0x21 PUSH1 0x4 MSTORE PUSH1 0x24 PUSH1 0x0 REVERT JUMPDEST DUP2 MSTORE PUSH1 0x20 ADD DUP4 ISZERO ISZERO DUP2 MSTORE PUSH1 0x20 ADD DUP3 ISZERO ISZERO DUP2 MSTORE PUSH1 0x20 ADD DUP12 PUSH1 0x1 PUSH1 0x1 PUSH1 0xA0 SHL SUB AND PUSH4 0x79502C55 PUSH1 0x40 MLOAD DUP2 PUSH4 0xFFFFFFFF AND PUSH1 0xE0 SHL DUP2 MSTORE PUSH1 0x4 ADD PUSH1 0x20 PUSH1 0x40 MLOAD DUP1 DUP4 SUB DUP2 DUP7 DUP1 EXTCODESIZE ISZERO DUP1 ISZERO PUSH2 0x2E6 JUMPI PUSH1 0x0 DUP1 REVERT JUMPDEST POP GAS STATICCALL ISZERO DUP1 ISZERO PUSH2 0x2FA JUMPI RETURNDATASIZE PUSH1 0x0 DUP1 RETURNDATACOPY RETURNDATASIZE PUSH1 0x0 REVERT JUMPDEST POP POP POP POP PUSH1 0x40 MLOAD RETURNDATASIZE PUSH1 0x1F NOT PUSH1 0x1F DUP3 ADD AND DUP3 ADD DUP1 PUSH1 0x40 MSTORE POP DUP2 ADD SWAP1 PUSH2 0x31E SWAP2 SWAP1 PUSH2 0xC51 JUMP JUMPDEST PUSH1 0x1 PUSH1 0x1 PUSH1 0xA0 SHL SUB AND PUSH4 0x18F88E5B PUSH1 0x40 MLOAD DUP2 PUSH4 0xFFFFFFFF AND PUSH1 0xE0 SHL DUP2 MSTORE PUSH1 0x4 ADD PUSH1 0x20 PUSH1 0x40 MLOAD DUP1 DUP4 SUB DUP2 DUP7 DUP1 EXTCODESIZE ISZERO DUP1 ISZERO PUSH2 0x356 JUMPI PUSH1 0x0 DUP1 REVERT JUMPDEST POP GAS STATICCALL ISZERO DUP1 ISZERO PUSH2 0x36A JUMPI RETURNDATASIZE PUSH1 0x0 DUP1 RETURNDATACOPY RETURNDATASIZE PUSH1 0x0 REVERT JUMPDEST POP POP POP POP PUSH1 0x40 MLOAD RETURNDATASIZE PUSH1 0x1F NOT PUSH1 0x1F DUP3 ADD AND DUP3 ADD DUP1 PUSH1 0x40 MSTORE POP DUP2 ADD SWAP1 PUSH2 0x38E SWAP2 SWAP1 PUSH2 0xEA9 JUMP JUMPDEST DUP2 MSTORE PUSH1 0x20 ADD PUSH1 0x1 DUP12 PUSH1 0x3 DUP2 GT ISZERO PUSH2 0x3B5 JUMPI PUSH4 0x4E487B71 PUSH1 0xE0 SHL PUSH1 0x0 MSTORE PUSH1 0x21 PUSH1 0x4 MSTORE PUSH1 0x24 PUSH1 0x0 REVERT JUMPDEST EQ PUSH2 0x3C1 JUMPI PUSH1 0x0 PUSH2 0x439 JUMP JUMPDEST PUSH1 0x40 MLOAD PUSH4 0x31A9108F PUSH1 0xE1 SHL DUP2 MSTORE PUSH1 0x4 DUP2 ADD DUP16 SWAP1 MSTORE PUSH1 0x1 PUSH1 0x1 PUSH1 0xA0 SHL SUB DUP14 AND SWAP1 PUSH4 0x6352211E SWAP1 PUSH1 0x24 ADD PUSH1 0x20 PUSH1 0x40 MLOAD DUP1 DUP4 SUB DUP2 DUP7 DUP1 EXTCODESIZE ISZERO DUP1 ISZERO PUSH2 0x401 JUMPI PUSH1 0x0 DUP1 REVERT JUMPDEST POP GAS STATICCALL ISZERO DUP1 ISZERO PUSH2 0x415 JUMPI RETURNDATASIZE PUSH1 0x0 DUP1 RETURNDATACOPY RETURNDATASIZE PUSH1 0x0 REVERT JUMPDEST POP POP POP POP PUSH1 0x40 MLOAD RETURNDATASIZE PUSH1 0x1F NOT PUSH1 0x1F DUP3 ADD AND DUP3 ADD DUP1 PUSH1 0x40 MSTORE POP DUP2 ADD SWAP1 PUSH2 0x439 SWAP2 SWAP1 PUSH2 0xC51 JUMP JUMPDEST PUSH1 0x1 PUSH1 0x1 PUSH1 0xA0 SHL SUB AND DUP2 MSTORE PUSH1 0x20 ADD DUP13 PUSH1 0x1 PUSH1 0x1 PUSH1 0xA0 SHL SUB AND DUP2 MSTORE POP SWAP13 POP POP POP POP POP POP POP POP POP POP POP POP POP SWAP2 SWAP1 POP JUMP JUMPDEST PUSH1 0x60 DUP2 PUSH1 0x1 PUSH1 0x1 PUSH1 0x40 SHL SUB DUP2 GT ISZERO PUSH2 0x48F JUMPI PUSH4 0x4E487B71 PUSH1 0xE0 SHL PUSH1 0x0 MSTORE PUSH1 0x41 PUSH1 0x4 MSTORE PUSH1 0x24 PUSH1 0x0 REVERT JUMPDEST PUSH1 0x40 MLOAD SWAP1 DUP1 DUP3 MSTORE DUP1 PUSH1 0x20 MUL PUSH1 0x20 ADD DUP3 ADD PUSH1 0x40 MSTORE DUP1 ISZERO PUSH2 0x4B8 JUMPI DUP2 PUSH1 0x20 ADD PUSH1 0x20 DUP3 MUL DUP1 CALLDATASIZE DUP4 CALLDATACOPY ADD SWAP1 POP JUMPDEST POP SWAP1 POP PUSH1 0x0 JUMPDEST DUP3 DUP2 LT ISZERO PUSH2 0x5AE JUMPI PUSH1 0x0 DUP5 DUP5 DUP4 DUP2 DUP2 LT PUSH2 0x4E8 JUMPI PUSH4 0x4E487B71 PUSH1 0xE0 SHL PUSH1 0x0 MSTORE PUSH1 0x32 PUSH1 0x4 MSTORE PUSH1 0x24 PUSH1 0x0 REVERT JUMPDEST SWAP1 POP PUSH1 0x20 MUL ADD PUSH1 0x20 DUP2 ADD SWAP1 PUSH2 0x4FD SWAP2 SWAP1 PUSH2 0xC2E JUMP JUMPDEST SWAP1 POP DUP1 PUSH1 0x1 PUSH1 0x1 PUSH1 0xA0 SHL SUB AND PUSH4 0x1ACF5582 PUSH1 0x40 MLOAD DUP2 PUSH4 0xFFFFFFFF AND PUSH1 0xE0 SHL DUP2 MSTORE PUSH1 0x4 ADD PUSH1 0x20 PUSH1 0x40 MLOAD DUP1 DUP4 SUB DUP2 DUP7 DUP1 EXTCODESIZE ISZERO DUP1 ISZERO PUSH2 0x538 JUMPI PUSH1 0x0 DUP1 REVERT JUMPDEST POP GAS STATICCALL ISZERO DUP1 ISZERO PUSH2 0x54C JUMPI RETURNDATASIZE PUSH1 0x0 DUP1 RETURNDATACOPY RETURNDATASIZE PUSH1 0x0 REVERT JUMPDEST POP POP POP POP PUSH1 0x40 MLOAD RETURNDATASIZE PUSH1 0x1F NOT PUSH1 0x1F DUP3 ADD AND DUP3 ADD DUP1 PUSH1 0x40 MSTORE POP DUP2 ADD SWAP1 PUSH2 0x570 SWAP2 SWAP1 PUSH2 0xEA9 JUMP JUMPDEST DUP4 DUP4 DUP2 MLOAD DUP2 LT PUSH2 0x590 JUMPI PUSH4 0x4E487B71 PUSH1 0xE0 SHL PUSH1 0x0 MSTORE PUSH1 0x32 PUSH1 0x4 MSTORE PUSH1 0x24 PUSH1 0x0 REVERT JUMPDEST PUSH1 0x20 SWAP1 DUP2 MUL SWAP2 SWAP1 SWAP2 ADD ADD MSTORE POP DUP1 PUSH2 0x5A6 DUP2 PUSH2 0x110D JUMP JUMPDEST SWAP2 POP POP PUSH2 0x4BE JUMP JUMPDEST POP SWAP3 SWAP2 POP POP JUMP JUMPDEST PUSH1 0x0 DUP1 DUP4 SWAP1 POP PUSH1 0x0 DUP1 PUSH1 0x0 DUP4 PUSH1 0x1 PUSH1 0x1 PUSH1 0xA0 SHL SUB AND PUSH4 0xFEAF968C PUSH1 0x40 MLOAD DUP2 PUSH4 0xFFFFFFFF AND PUSH1 0xE0 SHL DUP2 MSTORE PUSH1 0x4 ADD PUSH1 0xA0 PUSH1 0x40 MLOAD DUP1 DUP4 SUB DUP2 DUP7 DUP1 EXTCODESIZE ISZERO DUP1 ISZERO PUSH2 0x5F9 JUMPI PUSH1 0x0 DUP1 REVERT JUMPDEST POP GAS STATICCALL ISZERO DUP1 ISZERO PUSH2 0x60D JUMPI RETURNDATASIZE PUSH1 0x0 DUP1 RETURNDATACOPY RETURNDATASIZE PUSH1 0x0 REVERT JUMPDEST POP POP POP POP PUSH1 0x40 MLOAD RETURNDATASIZE PUSH1 0x1F NOT PUSH1 0x1F DUP3 ADD AND DUP3 ADD DUP1 PUSH1 0x40 MSTORE POP DUP2 ADD SWAP1 PUSH2 0x631 SWAP2 SWAP1 PUSH2 0xEC1 JUMP JUMPDEST POP SWAP4 POP POP SWAP3 POP SWAP3 POP DUP6 DUP2 GT ISZERO PUSH2 0x7C7 JUMPI PUSH1 0x0 JUMPDEST DUP1 PUSH2 0x7C5 JUMPI PUSH2 0x654 PUSH1 0x1 DUP6 PUSH2 0x10E5 JUMP JUMPDEST SWAP4 POP PUSH1 0x0 DUP5 PUSH1 0x1 PUSH1 0x1 PUSH1 0x50 SHL SUB AND GT PUSH2 0x6A4 JUMPI PUSH1 0x40 MLOAD PUSH3 0x461BCD PUSH1 0xE5 SHL DUP2 MSTORE PUSH1 0x20 PUSH1 0x4 DUP3 ADD MSTORE PUSH1 0xE PUSH1 0x24 DUP3 ADD MSTORE PUSH14 0x15DC9BDB99C81C9BDD5B99081A59 PUSH1 0x92 SHL PUSH1 0x44 DUP3 ADD MSTORE PUSH1 0x64 ADD PUSH1 0x40 MLOAD DUP1 SWAP2 SUB SWAP1 REVERT JUMPDEST PUSH1 0x0 DUP1 DUP7 PUSH1 0x1 PUSH1 0x1 PUSH1 0xA0 SHL SUB AND PUSH4 0xB888879E PUSH1 0x40 MLOAD DUP2 PUSH4 0xFFFFFFFF AND PUSH1 0xE0 SHL DUP2 MSTORE PUSH1 0x4 ADD PUSH1 0x20 PUSH1 0x40 MLOAD DUP1 DUP4 SUB DUP2 DUP7 DUP1 EXTCODESIZE ISZERO DUP1 ISZERO PUSH2 0x6E0 JUMPI PUSH1 0x0 DUP1 REVERT JUMPDEST POP GAS STATICCALL ISZERO DUP1 ISZERO PUSH2 0x6F4 JUMPI RETURNDATASIZE PUSH1 0x0 DUP1 RETURNDATACOPY RETURNDATASIZE PUSH1 0x0 REVERT JUMPDEST POP POP POP POP PUSH1 0x40 MLOAD RETURNDATASIZE PUSH1 0x1F NOT PUSH1 0x1F DUP3 ADD AND DUP3 ADD DUP1 PUSH1 0x40 MSTORE POP DUP2 ADD SWAP1 PUSH2 0x718 SWAP2 SWAP1 PUSH2 0xC51 JUMP JUMPDEST PUSH1 0x40 MLOAD PUSH4 0x9A6FC8F5 PUSH1 0xE0 SHL DUP2 MSTORE PUSH1 0x1 PUSH1 0x1 PUSH1 0x50 SHL SUB DUP9 AND PUSH1 0x4 DUP3 ADD MSTORE PUSH1 0x1 PUSH1 0x1 PUSH1 0xA0 SHL SUB SWAP2 SWAP1 SWAP2 AND SWAP1 PUSH4 0x9A6FC8F5 SWAP1 PUSH1 0x24 ADD PUSH1 0xA0 PUSH1 0x40 MLOAD DUP1 DUP4 SUB DUP2 DUP7 DUP1 EXTCODESIZE ISZERO DUP1 ISZERO PUSH2 0x762 JUMPI PUSH1 0x0 DUP1 REVERT JUMPDEST POP GAS STATICCALL ISZERO DUP1 ISZERO PUSH2 0x776 JUMPI RETURNDATASIZE PUSH1 0x0 DUP1 RETURNDATACOPY RETURNDATASIZE PUSH1 0x0 REVERT JUMPDEST POP POP POP POP PUSH1 0x40 MLOAD RETURNDATASIZE PUSH1 0x1F NOT PUSH1 0x1F DUP3 ADD AND DUP3 ADD DUP1 PUSH1 0x40 MSTORE POP DUP2 ADD SWAP1 PUSH2 0x79A SWAP2 SWAP1 PUSH2 0xEC1 JUMP JUMPDEST POP SWAP4 POP POP SWAP3 POP POP PUSH1 0x0 DUP2 GT DUP1 ISZERO PUSH2 0x7B1 JUMPI POP DUP9 DUP2 GT ISZERO JUMPDEST ISZERO PUSH2 0x7BE JUMPI PUSH1 0x1 SWAP3 POP DUP2 SWAP5 POP JUMPDEST POP POP PUSH2 0x644 JUMP JUMPDEST POP JUMPDEST POP SWAP3 POP POP POP JUMPDEST SWAP3 SWAP2 POP POP JUMP JUMPDEST PUSH1 0x60 DUP2 MLOAD PUSH1 0x1 PUSH1 0x1 PUSH1 0x40 SHL SUB DUP2 GT ISZERO PUSH2 0x7FC JUMPI PUSH4 0x4E487B71 PUSH1 0xE0 SHL PUSH1 0x0 MSTORE PUSH1 0x41 PUSH1 0x4 MSTORE PUSH1 0x24 PUSH1 0x0 REVERT JUMPDEST PUSH1 0x40 MLOAD SWAP1 DUP1 DUP3 MSTORE DUP1 PUSH1 0x20 MUL PUSH1 0x20 ADD DUP3 ADD PUSH1 0x40 MSTORE DUP1 ISZERO PUSH2 0x835 JUMPI DUP2 PUSH1 0x20 ADD JUMPDEST PUSH2 0x822 PUSH2 0xB32 JUMP JUMPDEST DUP2 MSTORE PUSH1 0x20 ADD SWAP1 PUSH1 0x1 SWAP1 SUB SWAP1 DUP2 PUSH2 0x81A JUMPI SWAP1 POP JUMPDEST POP SWAP1 POP PUSH1 0x0 JUMPDEST DUP3 MLOAD DUP2 LT ISZERO PUSH2 0x8B2 JUMPI PUSH2 0x874 DUP4 DUP3 DUP2 MLOAD DUP2 LT PUSH2 0x867 JUMPI PUSH4 0x4E487B71 PUSH1 0xE0 SHL PUSH1 0x0 MSTORE PUSH1 0x32 PUSH1 0x4 MSTORE PUSH1 0x24 PUSH1 0x0 REVERT JUMPDEST PUSH1 0x20 MUL PUSH1 0x20 ADD ADD MLOAD PUSH2 0xF9 JUMP JUMPDEST DUP3 DUP3 DUP2 MLOAD DUP2 LT PUSH2 0x894 JUMPI PUSH4 0x4E487B71 PUSH1 0xE0 SHL PUSH1 0x0 MSTORE PUSH1 0x32 PUSH1 0x4 MSTORE PUSH1 0x24 PUSH1 0x0 REVERT JUMPDEST PUSH1 0x20 MUL PUSH1 0x20 ADD ADD DUP2 SWAP1 MSTORE POP DUP1 DUP1 PUSH2 0x8AA SWAP1 PUSH2 0x110D JUMP JUMPDEST SWAP2 POP POP PUSH2 0x83B JUMP JUMPDEST POP SWAP2 SWAP1 POP JUMP JUMPDEST PUSH1 0x60 PUSH1 0x0 DUP3 CALLDATALOAD DUP2 PUSH2 0x8CF PUSH1 0x40 DUP7 ADD PUSH1 0x20 DUP8 ADD PUSH2 0xC2E JUMP JUMPDEST SWAP1 POP DUP1 PUSH1 0x0 PUSH1 0x1 PUSH1 0x1 PUSH1 0xA0 SHL SUB DUP3 AND PUSH4 0x75A74D84 PUSH2 0x8F3 PUSH1 0x60 DUP11 ADD PUSH1 0x40 DUP12 ADD PUSH2 0xC2E JUMP JUMPDEST PUSH1 0x40 MLOAD PUSH1 0x1 PUSH1 0x1 PUSH1 0xE0 SHL SUB NOT PUSH1 0xE0 DUP5 SWAP1 SHL AND DUP2 MSTORE PUSH1 0x1 PUSH1 0x1 PUSH1 0xA0 SHL SUB SWAP1 SWAP2 AND PUSH1 0x4 DUP3 ADD MSTORE PUSH1 0x24 ADD PUSH1 0x20 PUSH1 0x40 MLOAD DUP1 DUP4 SUB DUP2 DUP7 DUP1 EXTCODESIZE ISZERO DUP1 ISZERO PUSH2 0x932 JUMPI PUSH1 0x0 DUP1 REVERT JUMPDEST POP GAS STATICCALL ISZERO DUP1 ISZERO PUSH2 0x946 JUMPI RETURNDATASIZE PUSH1 0x0 DUP1 RETURNDATACOPY RETURNDATASIZE PUSH1 0x0 REVERT JUMPDEST POP POP POP POP PUSH1 0x40 MLOAD RETURNDATASIZE PUSH1 0x1F NOT PUSH1 0x1F DUP3 ADD AND DUP3 ADD DUP1 PUSH1 0x40 MSTORE POP DUP2 ADD SWAP1 PUSH2 0x96A SWAP2 SWAP1 PUSH2 0xEA9 JUMP JUMPDEST SWAP1 POP PUSH1 0x0 PUSH2 0x97E PUSH1 0x80 DUP10 ADD PUSH1 0x60 DUP11 ADD PUSH2 0xDB8 JUMP JUMPDEST PUSH2 0x992 JUMPI PUSH2 0x98D DUP6 PUSH1 0x1 PUSH2 0x10B6 JUMP JUMPDEST PUSH2 0x995 JUMP JUMPDEST PUSH1 0x0 JUMPDEST SWAP1 POP DUP2 DUP2 LT ISZERO PUSH2 0xB27 JUMPI PUSH2 0x9A9 DUP2 DUP4 PUSH2 0x10CE JUMP JUMPDEST PUSH1 0x1 PUSH1 0x1 PUSH1 0x40 SHL SUB DUP2 GT ISZERO PUSH2 0x9CE JUMPI PUSH4 0x4E487B71 PUSH1 0xE0 SHL PUSH1 0x0 MSTORE PUSH1 0x41 PUSH1 0x4 MSTORE PUSH1 0x24 PUSH1 0x0 REVERT JUMPDEST PUSH1 0x40 MLOAD SWAP1 DUP1 DUP3 MSTORE DUP1 PUSH1 0x20 MUL PUSH1 0x20 ADD DUP3 ADD PUSH1 0x40 MSTORE DUP1 ISZERO PUSH2 0xA07 JUMPI DUP2 PUSH1 0x20 ADD JUMPDEST PUSH2 0x9F4 PUSH2 0xB32 JUMP JUMPDEST DUP2 MSTORE PUSH1 0x20 ADD SWAP1 PUSH1 0x1 SWAP1 SUB SWAP1 DUP2 PUSH2 0x9EC JUMPI SWAP1 POP JUMPDEST POP SWAP7 POP DUP1 JUMPDEST DUP3 DUP2 LT ISZERO PUSH2 0xB25 JUMPI PUSH2 0xAD9 PUSH1 0x40 MLOAD DUP1 PUSH1 0x40 ADD PUSH1 0x40 MSTORE DUP1 DUP7 PUSH1 0x1 PUSH1 0x1 PUSH1 0xA0 SHL SUB AND PUSH4 0xC962CA12 DUP14 PUSH1 0x40 ADD PUSH1 0x20 DUP2 ADD SWAP1 PUSH2 0xA44 SWAP2 SWAP1 PUSH2 0xC2E JUMP JUMPDEST PUSH1 0x40 MLOAD PUSH1 0x1 PUSH1 0x1 PUSH1 0xE0 SHL SUB NOT PUSH1 0xE0 DUP5 SWAP1 SHL AND DUP2 MSTORE PUSH1 0x1 PUSH1 0x1 PUSH1 0xA0 SHL SUB SWAP1 SWAP2 AND PUSH1 0x4 DUP3 ADD MSTORE PUSH1 0x24 DUP2 ADD DUP8 SWAP1 MSTORE PUSH1 0x44 ADD PUSH1 0x20 PUSH1 0x40 MLOAD DUP1 DUP4 SUB DUP2 DUP7 DUP1 EXTCODESIZE ISZERO DUP1 ISZERO PUSH2 0xA8A JUMPI PUSH1 0x0 DUP1 REVERT JUMPDEST POP GAS STATICCALL ISZERO DUP1 ISZERO PUSH2 0xA9E JUMPI RETURNDATASIZE PUSH1 0x0 DUP1 RETURNDATACOPY RETURNDATASIZE PUSH1 0x0 REVERT JUMPDEST POP POP POP POP PUSH1 0x40 MLOAD RETURNDATASIZE PUSH1 0x1F NOT PUSH1 0x1F DUP3 ADD AND DUP3 ADD DUP1 PUSH1 0x40 MSTORE POP DUP2 ADD SWAP1 PUSH2 0xAC2 SWAP2 SWAP1 PUSH2 0xEA9 JUMP JUMPDEST DUP2 MSTORE PUSH1 0x20 ADD DUP8 PUSH1 0x1 PUSH1 0x1 PUSH1 0xA0 SHL SUB AND DUP2 MSTORE POP PUSH2 0xF9 JUMP JUMPDEST DUP9 DUP9 DUP2 MLOAD DUP2 LT PUSH2 0xAF9 JUMPI PUSH4 0x4E487B71 PUSH1 0xE0 SHL PUSH1 0x0 MSTORE PUSH1 0x32 PUSH1 0x4 MSTORE PUSH1 0x24 PUSH1 0x0 REVERT JUMPDEST PUSH1 0x20 MUL PUSH1 0x20 ADD ADD DUP2 SWAP1 MSTORE POP DUP7 DUP1 PUSH2 0xB0F SWAP1 PUSH2 0x110D JUMP JUMPDEST SWAP8 POP POP DUP1 DUP1 PUSH2 0xB1D SWAP1 PUSH2 0x110D JUMP JUMPDEST SWAP2 POP POP PUSH2 0xA0C JUMP JUMPDEST POP JUMPDEST POP POP POP POP POP POP SWAP2 SWAP1 POP JUMP JUMPDEST PUSH1 0x40 DUP1 MLOAD PUSH2 0x1A0 DUP2 ADD SWAP1 SWAP2 MSTORE PUSH1 0x0 DUP1 DUP3 MSTORE PUSH1 0x20 DUP3 ADD SWAP1 DUP2 MSTORE PUSH1 0x20 ADD PUSH1 0x0 DUP2 MSTORE PUSH1 0x20 ADD PUSH1 0x0 DUP2 MSTORE PUSH1 0x20 ADD PUSH1 0x0 DUP2 MSTORE PUSH1 0x20 ADD PUSH1 0x0 DUP2 MSTORE PUSH1 0x20 ADD PUSH1 0x0 DUP2 MSTORE PUSH1 0x20 ADD PUSH1 0x0 PUSH1 0x2 DUP2 GT ISZERO PUSH2 0xB91 JUMPI PUSH4 0x4E487B71 PUSH1 0xE0 SHL PUSH1 0x0 MSTORE PUSH1 0x21 PUSH1 0x4 MSTORE PUSH1 0x24 PUSH1 0x0 REVERT JUMPDEST DUP2 MSTORE PUSH1 0x0 PUSH1 0x20 DUP3 ADD DUP2 SWAP1 MSTORE PUSH1 0x40 DUP3 ADD DUP2 SWAP1 MSTORE PUSH1 0x60 DUP3 ADD DUP2 SWAP1 MSTORE PUSH1 0x80 DUP3 ADD DUP2 SWAP1 MSTORE PUSH1 0xA0 SWAP1 SWAP2 ADD MSTORE SWAP1 JUMP JUMPDEST PUSH1 0x0 PUSH1 0x40 DUP3 DUP5 SUB SLT ISZERO PUSH2 0xBCB JUMPI DUP1 DUP2 REVERT JUMPDEST PUSH1 0x40 DUP1 MLOAD SWAP1 DUP2 ADD PUSH1 0x1 PUSH1 0x1 PUSH1 0x40 SHL SUB DUP2 GT DUP3 DUP3 LT OR ISZERO PUSH2 0xBED JUMPI PUSH2 0xBED PUSH2 0x1154 JUMP JUMPDEST PUSH1 0x40 MSTORE DUP3 CALLDATALOAD DUP2 MSTORE SWAP1 POP DUP1 PUSH1 0x20 DUP4 ADD CALLDATALOAD PUSH2 0xC05 DUP2 PUSH2 0x116A JUMP JUMPDEST PUSH1 0x20 SWAP2 SWAP1 SWAP2 ADD MSTORE SWAP3 SWAP2 POP POP JUMP JUMPDEST DUP1 MLOAD PUSH1 0x1 PUSH1 0x1 PUSH1 0x50 SHL SUB DUP2 AND DUP2 EQ PUSH2 0xC29 JUMPI PUSH1 0x0 DUP1 REVERT JUMPDEST SWAP2 SWAP1 POP JUMP JUMPDEST PUSH1 0x0 PUSH1 0x20 DUP3 DUP5 SUB SLT ISZERO PUSH2 0xC3F JUMPI DUP1 DUP2 REVERT JUMPDEST DUP2 CALLDATALOAD PUSH2 0xC4A DUP2 PUSH2 0x116A JUMP JUMPDEST SWAP4 SWAP3 POP POP POP JUMP JUMPDEST PUSH1 0x0 PUSH1 0x20 DUP3 DUP5 SUB SLT ISZERO PUSH2 0xC62 JUMPI DUP1 DUP2 REVERT JUMPDEST DUP2 MLOAD PUSH2 0xC4A DUP2 PUSH2 0x116A JUMP JUMPDEST PUSH1 0x0 DUP1 PUSH1 0x40 DUP4 DUP6 SUB SLT ISZERO PUSH2 0xC7F JUMPI DUP1 DUP2 REVERT JUMPDEST DUP3 CALLDATALOAD PUSH2 0xC8A DUP2 PUSH2 0x116A JUMP JUMPDEST SWAP5 PUSH1 0x20 SWAP4 SWAP1 SWAP4 ADD CALLDATALOAD SWAP4 POP POP POP JUMP JUMPDEST PUSH1 0x0 DUP1 PUSH1 0x20 DUP4 DUP6 SUB SLT ISZERO PUSH2 0xCAA JUMPI DUP2 DUP3 REVERT JUMPDEST DUP3 CALLDATALOAD PUSH1 0x1 PUSH1 0x1 PUSH1 0x40 SHL SUB DUP1 DUP3 GT ISZERO PUSH2 0xCC0 JUMPI DUP4 DUP5 REVERT JUMPDEST DUP2 DUP6 ADD SWAP2 POP DUP6 PUSH1 0x1F DUP4 ADD SLT PUSH2 0xCD3 JUMPI DUP4 DUP5 REVERT JUMPDEST DUP2 CALLDATALOAD DUP2 DUP2 GT ISZERO PUSH2 0xCE1 JUMPI DUP5 DUP6 REVERT JUMPDEST DUP7 PUSH1 0x20 DUP3 PUSH1 0x5 SHL DUP6 ADD ADD GT ISZERO PUSH2 0xCF5 JUMPI DUP5 DUP6 REVERT JUMPDEST PUSH1 0x20 SWAP3 SWAP1 SWAP3 ADD SWAP7 SWAP2 SWAP6 POP SWAP1 SWAP4 POP POP POP POP JUMP JUMPDEST PUSH1 0x0 PUSH1 0x20 DUP1 DUP4 DUP6 SUB SLT ISZERO PUSH2 0xD19 JUMPI DUP2 DUP3 REVERT JUMPDEST DUP3 CALLDATALOAD PUSH1 0x1 PUSH1 0x1 PUSH1 0x40 SHL SUB DUP1 DUP3 GT ISZERO PUSH2 0xD2F JUMPI DUP4 DUP5 REVERT JUMPDEST DUP2 DUP6 ADD SWAP2 POP DUP6 PUSH1 0x1F DUP4 ADD SLT PUSH2 0xD42 JUMPI DUP4 DUP5 REVERT JUMPDEST DUP2 CALLDATALOAD DUP2 DUP2 GT ISZERO PUSH2 0xD54 JUMPI PUSH2 0xD54 PUSH2 0x1154 JUMP JUMPDEST PUSH2 0xD62 DUP5 DUP3 PUSH1 0x5 SHL ADD PUSH2 0x1086 JUMP JUMPDEST DUP2 DUP2 MSTORE DUP5 DUP2 ADD SWAP3 POP DUP4 DUP6 ADD PUSH1 0x6 DUP4 SWAP1 SHL DUP6 ADD DUP7 ADD DUP10 LT ISZERO PUSH2 0xD81 JUMPI DUP7 DUP8 REVERT JUMPDEST DUP7 SWAP5 POP JUMPDEST DUP3 DUP6 LT ISZERO PUSH2 0xDAC JUMPI PUSH2 0xD97 DUP10 DUP3 PUSH2 0xBBA JUMP JUMPDEST DUP5 MSTORE PUSH1 0x1 SWAP5 SWAP1 SWAP5 ADD SWAP4 SWAP3 DUP6 ADD SWAP3 PUSH1 0x40 ADD PUSH2 0xD85 JUMP JUMPDEST POP SWAP8 SWAP7 POP POP POP POP POP POP POP JUMP JUMPDEST PUSH1 0x0 PUSH1 0x20 DUP3 DUP5 SUB SLT ISZERO PUSH2 0xDC9 JUMPI DUP1 DUP2 REVERT JUMPDEST DUP2 CALLDATALOAD PUSH2 0xC4A DUP2 PUSH2 0x1182 JUMP JUMPDEST PUSH1 0x0 DUP1 PUSH1 0x40 DUP4 DUP6 SUB SLT ISZERO PUSH2 0xDE6 JUMPI DUP2 DUP3 REVERT JUMPDEST DUP3 MLOAD PUSH2 0xDF1 DUP2 PUSH2 0x1182 JUMP JUMPDEST PUSH1 0x20 DUP5 ADD MLOAD SWAP1 SWAP3 POP PUSH2 0xE02 DUP2 PUSH2 0x1182 JUMP JUMPDEST DUP1 SWAP2 POP POP SWAP3 POP SWAP3 SWAP1 POP JUMP JUMPDEST PUSH1 0x0 DUP1 PUSH1 0x0 DUP1 PUSH1 0x0 DUP1 PUSH1 0x0 PUSH1 0xE0 DUP9 DUP11 SUB SLT ISZERO PUSH2 0xE27 JUMPI DUP3 DUP4 REVERT JUMPDEST DUP8 MLOAD PUSH1 0x4 DUP2 LT PUSH2 0xE35 JUMPI DUP4 DUP5 REVERT JUMPDEST DUP1 SWAP8 POP POP PUSH1 0x20 DUP9 ADD MLOAD SWAP6 POP PUSH1 0x40 DUP9 ADD MLOAD SWAP5 POP PUSH1 0x60 DUP9 ADD MLOAD SWAP4 POP PUSH1 0x80 DUP9 ADD MLOAD SWAP3 POP PUSH1 0xA0 DUP9 ADD MLOAD SWAP2 POP PUSH1 0xC0 DUP9 ADD MLOAD PUSH1 0x3 DUP2 LT PUSH2 0xE6D JUMPI DUP2 DUP3 REVERT JUMPDEST DUP1 SWAP2 POP POP SWAP3 SWAP6 SWAP9 SWAP2 SWAP5 SWAP8 POP SWAP3 SWAP6 POP JUMP JUMPDEST PUSH1 0x0 PUSH1 0x40 DUP3 DUP5 SUB SLT ISZERO PUSH2 0xE8E JUMPI DUP1 DUP2 REVERT JUMPDEST PUSH2 0xC4A DUP4 DUP4 PUSH2 0xBBA JUMP JUMPDEST PUSH1 0x0 PUSH1 0x80 DUP3 DUP5 SUB SLT ISZERO PUSH2 0x8B2 JUMPI DUP1 DUP2 REVERT JUMPDEST PUSH1 0x0 PUSH1 0x20 DUP3 DUP5 SUB SLT ISZERO PUSH2 0xEBA JUMPI DUP1 DUP2 REVERT JUMPDEST POP MLOAD SWAP2 SWAP1 POP JUMP JUMPDEST PUSH1 0x0 DUP1 PUSH1 0x0 DUP1 PUSH1 0x0 PUSH1 0xA0 DUP7 DUP9 SUB SLT ISZERO PUSH2 0xED8 JUMPI DUP1 DUP2 REVERT JUMPDEST PUSH2 0xEE1 DUP7 PUSH2 0xC12 JUMP JUMPDEST SWAP5 POP PUSH1 0x20 DUP7 ADD MLOAD SWAP4 POP PUSH1 0x40 DUP7 ADD MLOAD SWAP3 POP PUSH1 0x60 DUP7 ADD MLOAD SWAP2 POP PUSH2 0xF04 PUSH1 0x80 DUP8 ADD PUSH2 0xC12 JUMP JUMPDEST SWAP1 POP SWAP3 SWAP6 POP SWAP3 SWAP6 SWAP1 SWAP4 POP JUMP JUMPDEST PUSH1 0x1 PUSH1 0x1 PUSH1 0xA0 SHL SUB AND SWAP1 MSTORE JUMP JUMPDEST PUSH1 0x3 DUP2 LT PUSH2 0xF2D JUMPI PUSH2 0xF2D PUSH2 0x113E JUMP JUMPDEST SWAP1 MSTORE JUMP JUMPDEST PUSH1 0x4 DUP2 LT PUSH2 0xF2D JUMPI PUSH2 0xF2D PUSH2 0x113E JUMP JUMPDEST DUP1 MLOAD DUP3 MSTORE PUSH1 0x20 DUP2 ADD MLOAD PUSH2 0xF57 PUSH1 0x20 DUP5 ADD DUP3 PUSH2 0xF31 JUMP JUMPDEST POP PUSH1 0x40 DUP2 ADD MLOAD PUSH1 0x40 DUP4 ADD MSTORE PUSH1 0x60 DUP2 ADD MLOAD PUSH1 0x60 DUP4 ADD MSTORE PUSH1 0x80 DUP2 ADD MLOAD PUSH1 0x80 DUP4 ADD MSTORE PUSH1 0xA0 DUP2 ADD MLOAD PUSH1 0xA0 DUP4 ADD MSTORE PUSH1 0xC0 DUP2 ADD MLOAD PUSH1 0xC0 DUP4 ADD MSTORE PUSH1 0xE0 DUP2 ADD MLOAD PUSH2 0xF9C PUSH1 0xE0 DUP5 ADD DUP3 PUSH2 0xF1D JUMP JUMPDEST POP PUSH2 0x100 DUP2 DUP2 ADD MLOAD ISZERO ISZERO SWAP1 DUP4 ADD MSTORE PUSH2 0x120 DUP1 DUP3 ADD MLOAD ISZERO ISZERO SWAP1 DUP4 ADD MSTORE PUSH2 0x140 DUP1 DUP3 ADD MLOAD SWAP1 DUP4 ADD MSTORE PUSH2 0x160 DUP1 DUP3 ADD MLOAD PUSH2 0xFD5 DUP3 DUP6 ADD DUP3 PUSH2 0xF10 JUMP JUMPDEST POP POP PUSH2 0x180 DUP1 DUP3 ADD MLOAD PUSH2 0xFEA DUP3 DUP6 ADD DUP3 PUSH2 0xF10 JUMP JUMPDEST POP POP POP POP JUMP JUMPDEST PUSH1 0x20 DUP1 DUP3 MSTORE DUP3 MLOAD DUP3 DUP3 ADD DUP2 SWAP1 MSTORE PUSH1 0x0 SWAP2 SWAP1 DUP5 DUP3 ADD SWAP1 PUSH1 0x40 DUP6 ADD SWAP1 DUP5 JUMPDEST DUP2 DUP2 LT ISZERO PUSH2 0x1033 JUMPI PUSH2 0x101F DUP4 DUP6 MLOAD PUSH2 0xF41 JUMP JUMPDEST SWAP3 DUP5 ADD SWAP3 PUSH2 0x1A0 SWAP3 SWAP1 SWAP3 ADD SWAP2 PUSH1 0x1 ADD PUSH2 0x100C JUMP JUMPDEST POP SWAP1 SWAP7 SWAP6 POP POP POP POP POP POP JUMP JUMPDEST PUSH1 0x20 DUP1 DUP3 MSTORE DUP3 MLOAD DUP3 DUP3 ADD DUP2 SWAP1 MSTORE PUSH1 0x0 SWAP2 SWAP1 DUP5 DUP3 ADD SWAP1 PUSH1 0x40 DUP6 ADD SWAP1 DUP5 JUMPDEST DUP2 DUP2 LT ISZERO PUSH2 0x1033 JUMPI DUP4 MLOAD DUP4 MSTORE SWAP3 DUP5 ADD SWAP3 SWAP2 DUP5 ADD SWAP2 PUSH1 0x1 ADD PUSH2 0x105B JUMP JUMPDEST PUSH2 0x1A0 DUP2 ADD PUSH2 0x7CD DUP3 DUP5 PUSH2 0xF41 JUMP JUMPDEST PUSH1 0x40 MLOAD PUSH1 0x1F DUP3 ADD PUSH1 0x1F NOT AND DUP2 ADD PUSH1 0x1 PUSH1 0x1 PUSH1 0x40 SHL SUB DUP2 GT DUP3 DUP3 LT OR ISZERO PUSH2 0x10AE JUMPI PUSH2 0x10AE PUSH2 0x1154 JUMP JUMPDEST PUSH1 0x40 MSTORE SWAP2 SWAP1 POP JUMP JUMPDEST PUSH1 0x0 DUP3 NOT DUP3 GT ISZERO PUSH2 0x10C9 JUMPI PUSH2 0x10C9 PUSH2 0x1128 JUMP JUMPDEST POP ADD SWAP1 JUMP JUMPDEST PUSH1 0x0 DUP3 DUP3 LT ISZERO PUSH2 0x10E0 JUMPI PUSH2 0x10E0 PUSH2 0x1128 JUMP JUMPDEST POP SUB SWAP1 JUMP JUMPDEST PUSH1 0x0 PUSH1 0x1 PUSH1 0x1 PUSH1 0x50 SHL SUB DUP4 DUP2 AND SWAP1 DUP4 AND DUP2 DUP2 LT ISZERO PUSH2 0x1105 JUMPI PUSH2 0x1105 PUSH2 0x1128 JUMP JUMPDEST SUB SWAP4 SWAP3 POP POP POP JUMP JUMPDEST PUSH1 0x0 PUSH1 0x0 NOT DUP3 EQ ISZERO PUSH2 0x1121 JUMPI PUSH2 0x1121 PUSH2 0x1128 JUMP JUMPDEST POP PUSH1 0x1 ADD SWAP1 JUMP JUMPDEST PUSH4 0x4E487B71 PUSH1 0xE0 SHL PUSH1 0x0 MSTORE PUSH1 0x11 PUSH1 0x4 MSTORE PUSH1 0x24 PUSH1 0x0 REVERT JUMPDEST PUSH4 0x4E487B71 PUSH1 0xE0 SHL PUSH1 0x0 MSTORE PUSH1 0x21 PUSH1 0x4 MSTORE PUSH1 0x24 PUSH1 0x0 REVERT JUMPDEST PUSH4 0x4E487B71 PUSH1 0xE0 SHL PUSH1 0x0 MSTORE PUSH1 0x41 PUSH1 0x4 MSTORE PUSH1 0x24 PUSH1 0x0 REVERT JUMPDEST PUSH1 0x1 PUSH1 0x1 PUSH1 0xA0 SHL SUB DUP2 AND DUP2 EQ PUSH2 0x117F JUMPI PUSH1 0x0 DUP1 REVERT JUMPDEST POP JUMP JUMPDEST DUP1 ISZERO ISZERO DUP2 EQ PUSH2 0x117F JUMPI PUSH1 0x0 DUP1 REVERT INVALID LOG2 PUSH5 0x6970667358 0x22 SLT KECCAK256 0xCD PUSH15 0x87D3BB5342010BD1171A59694FC56A SIGNEXTEND SWAP9 0xB3 0xED 0xEB RETURN BALANCE RETURNDATACOPY DUP8 PUSH21 0x6BBAC41DE864736F6C634300080400330000000000 ","sha1":"df4b2539b01c3525ff5c917b172af13c337e3e48","source":"pragma solidity ^0.8.0;\n\n// SPDX-License-Identifier: BUSL-1.1\n\nimport \"./Interfaces/InterfacesV2.sol\";\n\ncontract OptionMeta {\n    struct UserOptionInput {\n        uint256 lastStoredOptionIndex;\n        address contractAddress;\n        address userAddress;\n        bool isNull;\n    }\n    struct GenricOptionInput {\n        uint256 optionId;\n        address contractAddress;\n    }\n    struct OptionMetaData {\n        uint256 optionId;\n        IBufferOptions.State state;\n        uint256 strike;\n        uint256 amount;\n        uint256 lockedAmount;\n        uint256 premium;\n        uint256 expiration;\n        IBufferOptions.OptionType optionType;\n        bool isYes;\n        bool isAbove;\n        uint256 iv;\n        address owner;\n        address contractAddress;\n    }\n\n    function get_price_at_timestamp(address priceProvider, uint256 timestamp)\n        public\n        view\n        returns (uint256)\n    {\n        AggregatorV3Interface priceProviderContract = AggregatorV3Interface(\n            priceProvider\n        );\n        (\n            uint80 roundId,\n            uint256 answer,\n            ,\n            uint256 latestTimestamp,\n\n        ) = priceProviderContract.latestRoundData();\n        if (latestTimestamp > timestamp) {\n            bool isCorrectRoundId;\n            while (!isCorrectRoundId) {\n                roundId = roundId - 1;\n                require(roundId > 0, \"Wrong round id\");\n                (\n                    ,\n                    uint256 roundAnswer,\n                    ,\n                    uint256 roundTimestamp,\n\n                ) = AggregatorV3Interface(priceProviderContract.priceProvider())\n                        .getRoundData(roundId);\n                if ((roundTimestamp > 0) && (roundTimestamp <= timestamp)) {\n                    isCorrectRoundId = true;\n                    answer = roundAnswer;\n                }\n            }\n        }\n        return answer;\n    }\n\n    function get_current_prices(address[] calldata assets)\n        public\n        view\n        returns (uint256[] memory prices)\n    {\n        prices = new uint256[](assets.length);\n\n        for (uint256 i = 0; i < assets.length; i++) {\n            AggregatorV3Interface priceProviderContract = AggregatorV3Interface(\n                assets[i]\n            );\n            prices[i] = priceProviderContract.getUsdPrice();\n        }\n    }\n\n    function get_option_data(GenricOptionInput memory option)\n        public\n        view\n        returns (OptionMetaData memory optionDetails)\n    {\n        uint256 optionId = option.optionId;\n        address optionsContractAddress = option.contractAddress;\n        IBufferOptions binaryOptionsContract = IBufferOptions(\n            optionsContractAddress\n        );\n        (\n            IBufferOptions.State state,\n            uint256 strike,\n            uint256 amount,\n            uint256 lockedAmount,\n            uint256 premium,\n            uint256 expiration,\n            IBufferOptions.OptionType optionType\n        ) = binaryOptionsContract.options(optionId);\n        (bool isYes, bool isAbove) = binaryOptionsContract.binaryOptionType(\n            optionId\n        );\n\n        optionDetails = OptionMetaData(\n            optionId,\n            state,\n            strike,\n            amount,\n            lockedAmount,\n            premium,\n            expiration,\n            optionType,\n            isYes,\n            isAbove,\n            IOptionsConfig(binaryOptionsContract.config()).impliedVolRate(),\n            state == IBufferOptions.State.Active\n                ? binaryOptionsContract.ownerOf(optionId)\n                : address(0),\n            optionsContractAddress\n        );\n    }\n\n    function get_bulk_option_data(GenricOptionInput[] memory options)\n        public\n        view\n        returns (OptionMetaData[] memory allOptions)\n    {\n        allOptions = new OptionMetaData[](options.length);\n\n        for (uint256 i = 0; i < options.length; i++) {\n            allOptions[i] = get_option_data(options[i]);\n        }\n        return allOptions;\n    }\n\n    function get_latest_options_for_user(\n        UserOptionInput calldata userOptionInput\n    ) external view returns (OptionMetaData[] memory allOptions) {\n        uint256 counter;\n        uint256 lastStoredOptionIndex = userOptionInput.lastStoredOptionIndex;\n        address optionsContractAddress = userOptionInput.contractAddress;\n        IBufferOptions binaryOptionsContract = IBufferOptions(\n            optionsContractAddress\n        );\n        uint256 onChainUserOptions = binaryOptionsContract.userOptionCount(\n            userOptionInput.userAddress\n        );\n        uint256 firstOptionIndexToProcess = (\n            userOptionInput.isNull ? 0 : lastStoredOptionIndex + 1\n        );\n\n        if (firstOptionIndexToProcess < onChainUserOptions) {\n            allOptions = new OptionMetaData[](\n                onChainUserOptions - firstOptionIndexToProcess\n            );\n\n            for (\n                uint256 index = firstOptionIndexToProcess;\n                index < onChainUserOptions;\n                index++\n            ) {\n                allOptions[counter] = get_option_data(\n                    GenricOptionInput(\n                        binaryOptionsContract.userOptionIds(\n                            userOptionInput.userAddress,\n                            index\n                        ),\n                        optionsContractAddress\n                    )\n                );\n                counter++;\n            }\n        }\n    }\n}\n","sourcePath":"contracts/OptionMeta.sol","deployment":{"address":"0xb16a421e6a34abE05366c2726211f016E8AA6a4c","chainid":"80001","blockHeight":27467660}}