{"bytecode":"6080604052620f4240600d55600e805460ff1916601217905560006013553480156200002a57600080fd5b5060405162005ac238038062005ac28339810160408190526200004d91620002f0565b6040805180820182526006815265213ab33332b960d11b60208083019182528351808501909452600384526221232960e91b90840152815191929162000096916000916200024a565b508051620000ac9060019060208401906200024a565b505050620000c9620000c36200014060201b60201c565b62000144565b6001600755620000db60003362000196565b601080546001600160a01b038087166001600160a01b0319928316179092556018805485841690831617905542601b556019805484841690831617905560128054928616929091169190911790556200013660003362000196565b50505050620003ad565b3390565b600680546001600160a01b038381166001600160a01b0319831681179093556040519116919082907f8be0079c531659141344cd1fd0a4f28419497f9722a3daafe3b4186f6b6457e090600090a35050565b620001a28282620001a6565b5050565b60008281526008602090815260408083206001600160a01b038516845290915290205460ff16620001a25760008281526008602090815260408083206001600160a01b03851684529091529020805460ff19166001179055620002063390565b6001600160a01b0316816001600160a01b0316837f2f8788117e7eff1d82e926ec794901d17c78024a50270940304540a733656f0d60405160405180910390a45050565b828054620002589062000357565b90600052602060002090601f0160209004810192826200027c5760008555620002c7565b82601f106200029757805160ff1916838001178555620002c7565b82800160010185558215620002c7579182015b82811115620002c7578251825591602001919060010190620002aa565b50620002d5929150620002d9565b5090565b5b80821115620002d55760008155600101620002da565b6000806000806080858703121562000306578384fd5b8451620003138162000394565b6020860151909450620003268162000394565b6040860151909350620003398162000394565b60608601519092506200034c8162000394565b939692955090935050565b600181811c908216806200036c57607f821691505b602082108114156200038e57634e487b7160e01b600052602260045260246000fd5b50919050565b6001600160a01b0381168114620003aa57600080fd5b50565b61570580620003bd6000396000f3fe608060405234801561001057600080fd5b50600436106102a95760003560e01c806301ffc9a7146102ae57806305271a2a146102d657806306517a29146102eb57806306fdde0314610302578063076d948c14610317578063081812fc1461032a578063095ea7b31461035557806316dc165b1461036a57806316f0115b1461037d57806323b872dd14610390578063248a9ca3146103a3578063263f3e7e146103b65780632f2ff15d146103c957806334c01793146103dc57806336568abe14610407578063409e22051461041a578063426a84931461047d57806342842e0e1461049057806342966c68146104a35780634aed53c2146104b65780634f558e79146104c95780636198e339146104dc5780636352211e146104ef578063645734e61461050257806367807f7d1461050a578063689ab5ac1461052c57806369c672471461056f57806370a082311461058f578063715018a6146105a257806375794a3c146105aa57806378c533ce146105b357806379502c55146105d3578063841edc0e146105e65780638a584118146106065780638da5cb5b146106515780638ddaa2671461065957806391d148541461066c57806395d89b411461067f578063a217fddf14610687578063a22cb4651461068f578063a6d14c02146106a2578063a8800425146106aa578063b07f0a41146106bd578063b888879e146106d0578063b88d4fde146106e3578063bbe33ea5146106f6578063becef60714610709578063c0d720bb1461071c578063c87b56dd1461072f578063d149cc3014610742578063d547741f14610755578063d5a0e67314610768578063d67a6b7014610788578063dba34e971461079b578063e342b598146107c2578063e345e0bc146107d5578063e985e9c51461080f578063f2fde38b14610822578063fe99049a14610835575b600080fd5b6102c16102bc366004614ee1565b610848565b60405190151581526020015b60405180910390f35b600e5460405160ff90911681526020016102cd565b6102f4600d5481565b6040519081526020016102cd565b61030a610859565b6040516102cd91906152b5565b6102f4610325366004614ea5565b6108eb565b61033d610338366004614ea5565b610930565b6040516001600160a01b0390911681526020016102cd565b610368610363366004614da2565b6109bd565b005b60105461033d906001600160a01b031681565b60185461033d906001600160a01b031681565b61036861039e366004614c24565b610ace565b6102f46103b1366004614ea5565b610aff565b6102f46103c4366004614ea5565b610b14565b6103686103d7366004614ebd565b610b26565b6102f46103ea366004614ebd565b601760209081526000928352604080842090915290825290205481565b610368610415366004614ebd565b610b43565b61046a610428366004614ea5565b601460205260009081526040902080546001820154600283015460038401546004850154600586015460069096015460ff958616969495939492939192911687565b6040516102cd9796959493929190615259565b61036861048b366004614dcd565b610bc1565b61036861049e366004614c24565b610c05565b6103686104b1366004614ea5565b610c20565b6103686104c4366004614d25565b610c65565b6102c16104d7366004614ea5565b610d87565b6103686104ea366004614ea5565b610d92565b61033d6104fd366004614ea5565b61101b565b610368611092565b61051d610518366004614f9b565b61111c565b6040516102cd939291906154bd565b61055861053a366004614ea5565b60156020526000908152604090205460ff8082169161010090041682565b6040805192151583529015156020830152016102cd565b61058261057d366004614f31565b611335565b6040516102cd9190615215565b6102f461059d366004614bb4565b611727565b6103686117ae565b6102f460135481565b6102f46105c1366004614ea5565b600f6020526000908152604090205481565b60195461033d906001600160a01b031681565b6102f46105f4366004614ea5565b60166020526000908152604090205481565b610641610614366004614ea5565b601a6020526000908152604090208054600182015460029092015490919060ff8082169161010090041684565b6040516102cd9493929190615448565b61033d6117e9565b6102f4610667366004614ff0565b6117f8565b6102c161067a366004614ebd565b611842565b61030a61186d565b6102f4600081565b61036861069d366004614d75565b61187c565b6102f4600581565b6102f46106b8366004614ea5565b61193d565b6102f46106cb366004614ea5565b611954565b60125461033d906001600160a01b031681565b6103686106f1366004614c64565b611c59565b610368610704366004614e40565b611c8c565b6102f4610717366004614ea5565b611e9b565b6102f461072a366004614ff0565b611ead565b61030a61073d366004614ea5565b611f06565b6102f4610750366004614f7a565b611f11565b610368610763366004614ebd565b611f30565b6102f4610776366004614ea5565b600a6020526000908152604090205481565b6102c1610796366004614f7a565b611f4d565b6102f47fdeb3b49547f710c56a925b6e16e3557a50fab4dd8f243bc314f3afba2054ec5b81565b6103686107d0366004614e01565b612175565b6102f46107e3366004614ebd565b6000828152600b602090815260408083206001600160a01b038516845260010190915290205492915050565b6102c161081d366004614bec565b6121c2565b610368610830366004614bb4565b6121f0565b6102f4610843366004614ce0565b61228d565b600061085382612364565b92915050565b60606000805461086890615578565b80601f016020809104026020016040519081016040528092919081815260200182805461089490615578565b80156108e15780601f106108b6576101008083540402835291602001916108e1565b820191906000526020600020905b8154815290600101906020018083116108c457829003601f168201915b5050505050905090565b6000805b6108f88361193d565b81101561092a5761090c6107178483611f11565b61091690836154d3565b915080610922816155ad565b9150506108ef565b50919050565b600061093b82612389565b6109a15760405162461bcd60e51b815260206004820152602c60248201527f4552433732313a20617070726f76656420717565727920666f72206e6f6e657860448201526b34b9ba32b73a103a37b5b2b760a11b60648201526084015b60405180910390fd5b506000908152600460205260409020546001600160a01b031690565b60006109c88261101b565b9050806001600160a01b0316836001600160a01b03161415610a365760405162461bcd60e51b815260206004820152602160248201527f4552433732313a20617070726f76616c20746f2063757272656e74206f776e656044820152603960f91b6064820152608401610998565b336001600160a01b0382161480610a525750610a5281336121c2565b610abf5760405162461bcd60e51b815260206004820152603860248201527f4552433732313a20617070726f76652063616c6c6572206973206e6f74206f776044820152771b995c881b9bdc88185c1c1c9bdd995908199bdc88185b1b60421b6064820152608401610998565b610ac983836123a6565b505050565b610ad83382612414565b610af45760405162461bcd60e51b8152600401610998906153a4565b610ac98383836124de565b60009081526008602052604090206001015490565b6000908152600a602052604090205490565b610b2f82610aff565b610b398133612677565b610ac983836126db565b6001600160a01b0381163314610bb35760405162461bcd60e51b815260206004820152602f60248201527f416363657373436f6e74726f6c3a2063616e206f6e6c792072656e6f756e636560448201526e103937b632b9903337b91039b2b63360891b6064820152608401610998565b610bbd8282612761565b5050565b610bca8261101b565b6001600160a01b0316336001600160a01b031614610bfa5760405162461bcd60e51b8152600401610998906152c8565b610ac98383836127c8565b610ac983838360405180602001604052806000815250611c59565b610c298161101b565b6001600160a01b0316336001600160a01b031614610c595760405162461bcd60e51b8152600401610998906152c8565b610c628161288d565b50565b610c6e82610d87565b610ca05760405162461bcd60e51b815260206004820152600360248201526227189960e91b6044820152606401610998565b6000806000610caf86856128a5565b509250925092506000610cc1866129d2565b9050610cfd8682848460600151610cd891906154d3565b878560400151610ce891906154d3565b878660800151610cf891906154d3565b612ac1565b601854606082015160808301516040516357a5c96760e01b81529394506001600160a01b03909216926357a5c96792610d3d928b929091906004016154bd565b600060405180830381600087803b158015610d5757600080fd5b505af1158015610d6b573d6000803e3d6000fd5b50505050610d7c8989898989612af3565b505050505050505050565b600061085382612389565b60008181526014602052604090206005810154421015610dc45760405162461bcd60e51b81526004016109989061542c565b6001815460ff166003811115610dea57634e487b7160e01b600052602160045260246000fd5b14610e1c5760405162461bcd60e51b81526020600482015260026024820152614f3560f01b6044820152606401610998565b600581015460009081526016602052604090205480610e4d5760405162461bcd60e51b815260040161099890615336565b6012546040516303906d2960e11b8152600481018390526000916001600160a01b031690630720da529060240160a06040518083038186803b158015610e9257600080fd5b505afa158015610ea6573d6000803e3d6000fd5b505050506040513d601f19601f82011682018060405250810190610eca9190615092565b5091935060029250610eda915050565b600684015460ff166002811115610f0157634e487b7160e01b600052602160045260246000fd5b148015610f115750826001015481115b80610f5057506001600684015460ff166002811115610f4057634e487b7160e01b600052602160045260246000fd5b148015610f505750826001015481105b15610f6457610f5e84611954565b50611015565b825460ff19166003178355601854604051636198e33960e01b8152600481018690526001600160a01b0390911690636198e33990602401600060405180830381600087803b158015610fb557600080fd5b505af1158015610fc9573d6000803e3d6000fd5b50505050610fd68461288d565b837f5f36a4a575e512eb69d6d28c3b0ff98cca7ba50ad5bf04e14094ad1d425e0d31846004015460405161100c91815260200190565b60405180910390a25b50505050565b6000818152600260205260408120546001600160a01b0316806108535760405162461bcd60e51b815260206004820152602960248201527f4552433732313a206f776e657220717565727920666f72206e6f6e657869737460448201526832b73a103a37b5b2b760b91b6064820152608401610998565b60105460185460405163095ea7b360e01b81526001600160a01b039283169263095ea7b3926110ca92911690600019906004016151fc565b602060405180830381600087803b1580156110e457600080fd5b505af11580156110f8573d6000803e3d6000fd5b505050506040513d601f19601f82011682018060405250810190610c629190614e89565b600080600080601260009054906101000a90046001600160a01b03166001600160a01b0316631acf55826040518163ffffffff1660e01b815260040160206040518083038186803b15801561117057600080fd5b505afa158015611184573d6000803e3d6000fd5b505050506040513d601f19601f820116820180604052508101906111a89190614f19565b60195460185460405163e39d06e960e01b8152600481018d9052602481018c9052604481018b90528915156064820152881515608482015260a481018490526001600160a01b0392831660c4820152911660e482015290915073__FeeCalculator_________________________9063e39d06e9906101040160206040518083038186803b15801561123957600080fd5b505af415801561124d573d6000803e3d6000fd5b505050506040513d601f19601f820116820180604052508101906112719190614f19565b9150601960009054906101000a90046001600160a01b03166001600160a01b031663f3fa34956040518163ffffffff1660e01b815260040160206040518083038186803b1580156112c157600080fd5b505afa1580156112d5573d6000803e3d6000fd5b505050506040513d601f19601f820116820180604052508101906112f99190614f19565b6113059061271061551e565b611311836127106154ff565b61131b91906154eb565b9350611327828561551e565b925050955095509592505050565b6060816113695760405162461bcd60e51b81526020600482015260026024820152614e3160f01b6044820152606401610998565b816001600160401b0381111561138f57634e487b7160e01b600052604160045260246000fd5b6040519080825280602002602001820160405280156113b8578160200160208202803683370190505b50905060006113c6856129d2565b905060006113d386611e9b565b905060008080805b878110156115e65760006113ed612d39565b90508088838151811061141057634e487b7160e01b600052603260045260246000fd5b60200260200101818152505061144d8b828c8c8681811061144157634e487b7160e01b600052603260045260246000fd5b90506020020135612d53565b6000868b8b8581811061147057634e487b7160e01b600052603260045260246000fd5b90506020020135896040015161148691906154ff565b61149091906154eb565b905061149c81876154d3565b95506000878c8c868181106114c157634e487b7160e01b600052603260045260246000fd5b905060200201358a606001516114d791906154ff565b6114e191906154eb565b90506114ed81876154d3565b95506000888d8d8781811061151257634e487b7160e01b600052603260045260246000fd5b905060200201358b6080015161152891906154ff565b61153291906154eb565b905061153e81876154d3565b955060006040518060e001604052808c60000151600381111561157157634e487b7160e01b600052602160045260246000fd5b81526020018c6020015181526020018581526020018481526020018381526020018c60a0015181526020018c60c0015160028111156115c057634e487b7160e01b600052602160045260246000fd5b905290506115ce8582612e7d565b505050505080806115de906155ad565b9150506113db565b5061161c89868488606001516115fc919061551e565b86896040015161160c919061551e565b858a60800151610cf8919061551e565b601854606082015160808301516040516357a5c96760e01b81529398506001600160a01b03909216926357a5c9679261165c928e929091906004016154bd565b600060405180830381600087803b15801561167657600080fd5b505af115801561168a573d6000803e3d6000fd5b5050505060005b8781101561171a5760006116cb8883815181106116be57634e487b7160e01b600052603260045260246000fd5b60200260200101516129d2565b90506117078883815181106116f057634e487b7160e01b600052603260045260246000fd5b602002602001015182606001518360800151612f35565b5080611712816155ad565b915050611691565b5050505050509392505050565b60006001600160a01b0382166117925760405162461bcd60e51b815260206004820152602a60248201527f4552433732313a2062616c616e636520717565727920666f7220746865207a65604482015269726f206164647265737360b01b6064820152608401610998565b506001600160a01b031660009081526003602052604090205490565b336117b76117e9565b6001600160a01b0316146117dd5760405162461bcd60e51b81526004016109989061536f565b6117e76000612fa0565b565b6006546001600160a01b031690565b60006002600754141561181d5760405162461bcd60e51b8152600401610998906153f5565b600260075561183188888888888888612ff2565b600160075598975050505050505050565b60009182526008602090815260408084206001600160a01b0393909316845291905290205460ff1690565b60606001805461086890615578565b6001600160a01b0382163314156118d15760405162461bcd60e51b815260206004820152601960248201527822a9219b99189d1030b8383937bb32903a379031b0b63632b960391b6044820152606401610998565b3360008181526005602090815260408083206001600160a01b03871680855290835292819020805460ff191686151590811790915590519081529192917f17307eab39ab6107e8899845ad3d59bd9653f200f220920489ca2b5937696c31910160405180910390a35050565b6000818152600c6020526040812061085390613561565b600061195f82610d87565b6119915760405162461bcd60e51b815260206004820152600360248201526204f31360ec1b6044820152606401610998565b600082815260146020526040902060058101544210156119c35760405162461bcd60e51b81526004016109989061542c565b6001815460ff1660038111156119e957634e487b7160e01b600052602160045260246000fd5b14611a1c5760405162461bcd60e51b815260206004820152600360248201526213cc4d60ea1b6044820152606401610998565b600581015460009081526016602052604090205480611a4d5760405162461bcd60e51b815260040161099890615336565b6012546040516303906d2960e11b8152600481018390526000916001600160a01b031690630720da529060240160a06040518083038186803b158015611a9257600080fd5b505afa158015611aa6573d6000803e3d6000fd5b505050506040513d601f19601f82011682018060405250810190611aca9190615092565b5091935060029250611ada915050565b600684015460ff166002811115611b0157634e487b7160e01b600052602160045260246000fd5b1415611b46578083600101541115611b415760405162461bcd60e51b81526020600482015260036024820152624f313760e81b6044820152606401610998565b611b80565b8083600101541015611b805760405162461bcd60e51b815260206004820152600360248201526209e62760eb1b6044820152606401610998565b60038301546018549094506001600160a01b03166381b34f1586611ba38161101b565b6040516001600160e01b031960e085901b16815260048101929092526001600160a01b0316602482015260448101879052606401600060405180830381600087803b158015611bf157600080fd5b505af1158015611c05573d6000803e3d6000fd5b50505050611c128561288d565b825460ff1916600217835560405184815285907e84fe51c7cb34b132b7b6eb5d5a87a489f8d6d284758d00a0402c1bad9a0def9060200160405180910390a2505050919050565b611c64335b83612414565b611c805760405162461bcd60e51b8152600401610998906153a4565b6110158484848461356b565b81611cbe5760405162461bcd60e51b8152602060048201526002602482015261138d60f21b6044820152606401610998565b6000611cc9826129d2565b606081015160408201516080830151929350909160005b86811015611e1d576000611d19898984818110611d0d57634e487b7160e01b600052603260045260246000fd5b905060200201356129d2565b9050806060015185611d2b91906154d3565b9450806040015184611d3d91906154d3565b9350806080015183611d4f91906154d3565b6018549093506001600160a01b0316630dbf21b08a8a85818110611d8357634e487b7160e01b600052603260045260246000fd5b905060200201356040518263ffffffff1660e01b8152600401611da891815260200190565b600060405180830381600087803b158015611dc257600080fd5b505af1158015611dd6573d6000803e3d6000fd5b50505050611e0a898984818110611dfd57634e487b7160e01b600052603260045260246000fd5b905060200201358861359e565b5080611e15816155ad565b915050611ce0565b50611e2b8585858585612ac1565b506018546040516357a5c96760e01b81526001600160a01b03909116906357a5c96790611e60908890879086906004016154bd565b600060405180830381600087803b158015611e7a57600080fd5b505af1158015611e8e573d6000803e3d6000fd5b5050505050505050505050565b6000908152600f602052604090205490565b600060026007541415611ed25760405162461bcd60e51b8152600401610998906153f5565b60026007556000611ee3428861551e565b9050611ef489898389898989612ff2565b60016007559998505050505050505050565b60606108538261371a565b6000828152600c60205260408120611f29908361387c565b9392505050565b611f3982610aff565b611f438133612677565b610ac98383612761565b6012546040516303906d2960e11b815260048101849052600091829182916001600160a01b031690630720da529060240160a06040518083038186803b158015611f9657600080fd5b505afa158015611faa573d6000803e3d6000fd5b505050506040513d601f19601f82011682018060405250810190611fce9190615092565b506000888152601460205260409020600581015493965090945092505082811061201f5760405162461bcd60e51b8152602060048201526002602482015261433160f01b6044820152606401610998565b6000818152601660205260409020548061216a5761203e60018961551e565b90505b8561216a576012546040516303906d2960e11b8152600481018390526000916001600160a01b031690630720da529060240160a06040518083038186803b15801561208b57600080fd5b505afa15801561209f573d6000803e3d6000fd5b505050506040513d601f19601f820116820180604052508101906120c39190615092565b509350505050806000141561211957600082116121075760405162461bcd60e51b8152602060048201526002602482015261433360f01b6044820152606401610998565b61211260018361551e565b9150612164565b8281111561214e5760405162461bcd60e51b815260206004820152600260248201526110cd60f21b6044820152606401610998565b6000838152601660205260409020829055600196505b50612041565b505050505092915050565b8060005b81811015611015576121b08484838181106121a457634e487b7160e01b600052603260045260246000fd5b90506020020135610d92565b806121ba816155ad565b915050612179565b6001600160a01b03918216600090815260056020908152604080832093909416825291909152205460ff1690565b336121f96117e9565b6001600160a01b03161461221f5760405162461bcd60e51b81526004016109989061536f565b6001600160a01b0381166122845760405162461bcd60e51b815260206004820152602660248201527f4f776e61626c653a206e6577206f776e657220697320746865207a65726f206160448201526564647265737360d01b6064820152608401610998565b610c6281612fa0565b6000612297612d39565b90506000806000806122a987876128a5565b935093509350935060006040518060e00160405280836000015160038111156122e257634e487b7160e01b600052602160045260246000fd5b8152602001836020015181526020018681526020018481526020018581526020018360a0015181526020018360c00151600281111561233157634e487b7160e01b600052602160045260246000fd5b9052905061233f8682612e7d565b61234a868486612f35565b6123578a8a8a898b612af3565b5050505050949350505050565b60006001600160e01b03198216637965db0b60e01b1480610853575061085382613888565b6000908152600260205260409020546001600160a01b0316151590565b600081815260046020526040902080546001600160a01b0319166001600160a01b03841690811790915581906123db8261101b565b6001600160a01b03167f8c5be1e5ebec7d5bd14f71427d1e84f3dd0314c0f7b2291e5b200ac8c7c3b92560405160405180910390a45050565b600061241f82612389565b6124805760405162461bcd60e51b815260206004820152602c60248201527f4552433732313a206f70657261746f7220717565727920666f72206e6f6e657860448201526b34b9ba32b73a103a37b5b2b760a11b6064820152608401610998565b600061248b8361101b565b9050806001600160a01b0316846001600160a01b031614806124c65750836001600160a01b03166124bb84610930565b6001600160a01b0316145b806124d657506124d681856121c2565b949350505050565b826001600160a01b03166124f18261101b565b6001600160a01b0316146125595760405162461bcd60e51b815260206004820152602960248201527f4552433732313a207472616e73666572206f6620746f6b656e2074686174206960448201526839903737ba1037bbb760b91b6064820152608401610998565b6001600160a01b0382166125bb5760405162461bcd60e51b8152602060048201526024808201527f4552433732313a207472616e7366657220746f20746865207a65726f206164646044820152637265737360e01b6064820152608401610998565b6125c68383836138d8565b6125d16000826123a6565b6001600160a01b03831660009081526003602052604081208054600192906125fa90849061551e565b90915550506001600160a01b03821660009081526003602052604081208054600192906126289084906154d3565b909155505060008181526002602052604080822080546001600160a01b0319166001600160a01b03868116918217909255915184939187169160008051602061569083398151915291a4505050565b6126818282611842565b610bbd57612699816001600160a01b031660146138f0565b6126a48360206138f0565b6040516020016126b5929190615150565b60408051601f198184030181529082905262461bcd60e51b8252610998916004016152b5565b6126e58282611842565b610bbd5760008281526008602090815260408083206001600160a01b03851684529091529020805460ff1916600117905561271d3390565b6001600160a01b0316816001600160a01b0316837f2f8788117e7eff1d82e926ec794901d17c78024a50270940304540a733656f0d60405160405180910390a45050565b61276b8282611842565b15610bbd5760008281526008602090815260408083206001600160a01b0385168085529252808320805460ff1916905551339285917ff6391f5c32d9c69d2a47ea670b442974b53935d1edc7fd64eb21e047a839171b9190a45050565b6000828152600b602090815260408083206001600160a01b038716845260010190915290205461282a576000828152600b602090815260408220805460018101825590835291200180546001600160a01b0319166001600160a01b0385161790555b6000828152600b602090815260408083206001600160a01b0387168085526001909101835292819020849055518381528492917f8a156bd946dc74ec284c5f4b365ce75ef2a5b9d9462b4cdb1d2400cabf136541910160405180910390a3505050565b6000818152600a6020526040812055610c6281613ad1565b60008060006128b26149e5565b6128bb866129d2565b905060006128c887611e9b565b9050808683604001516128db91906154ff565b6128e591906154eb565b9450808683608001516128f891906154ff565b61290291906154eb565b93508086836060015161291591906154ff565b61291f91906154eb565b92506129568783858560600151612936919061551e565b888660400151612946919061551e565b888760800151610cf8919061551e565b601854606082015160808301516040516357a5c96760e01b81529395506001600160a01b03909216926357a5c96792612996928c929091906004016154bd565b600060405180830381600087803b1580156129b057600080fd5b505af11580156129c4573d6000803e3d6000fd5b505050505092959194509250565b6129da6149e5565b60008281526014602052604090819020815160e081019092528054829060ff166003811115612a1957634e487b7160e01b600052602160045260246000fd5b6003811115612a3857634e487b7160e01b600052602160045260246000fd5b81526001820154602082015260028083015460408301526003830154606083015260048301546080830152600583015460a0830152600683015460c09092019160ff1690811115612a9957634e487b7160e01b600052602160045260246000fd5b6002811115612ab857634e487b7160e01b600052602160045260246000fd5b90525092915050565b612ac96149e5565b5060608401839052604084018290526080840181905283612aea8682612e7d565b95945050505050565b612afc8361101b565b6001600160a01b0316856001600160a01b031614612b415760405162461bcd60e51b81526020600482015260026024820152614e3960f01b6044820152606401610998565b6001600160a01b038416612b7d5760405162461bcd60e51b815260206004820152600360248201526204e31360ec1b6044820152606401610998565b336001600160a01b03861614801590612b9d5750612b9b85336121c2565b155b15612be8576000838152600b60209081526040808320338452600101909152902054612bca90829061551e565b6000848152600b602090815260408083203384526001019091529020555b6000838152600f6020526040902054612c0290829061551e565b6000848152600f6020526040902055612c1a82612389565b612c3757612c328483612c2c86610b14565b84613b63565b612cdf565b836001600160a01b0316612c4a8361101b565b6001600160a01b031614612c865760405162461bcd60e51b81526020600482015260036024820152624e313160e81b6044820152606401610998565b612c8f82610b14565b612c9884610b14565b14612cb55760405162461bcd60e51b815260040161099890615353565b6000828152600f6020526040902054612ccf9082906154d3565b6000838152600f60205260409020555b6000838152600a60205260408082205484835291819020919091555183906001600160a01b0380871691908816906000805160206156b083398151915290612d2a90879087906152a7565b60405180910390a45050505050565b6013805460009182612d4a836155ad565b91905055905090565b612d5d3384612414565b612d8e5760405162461bcd60e51b8152602060048201526002602482015261271960f11b6044820152606401610998565b612d9782612389565b15612dc95760405162461bcd60e51b81526020600482015260026024820152614e3360f01b6044820152606401610998565b612de882612dd685610b14565b6000918252600a602052604090912055565b6000838152600f6020526040902054612e0290829061551e565b6000848152600f6020526040812091909155612e1d8461101b565b9050612e338184612e2d87610b14565b85613b63565b83816001600160a01b03167ff66885c33d648fcd0d97e0f2a18e30102169c22763473af0fb716f11b4a17dd68585604051612e6f9291906152a7565b60405180910390a350505050565b60008281526014602052604090208151815483929190829060ff19166001836003811115612ebb57634e487b7160e01b600052602160045260246000fd5b02179055506020820151816001015560408201518160020155606082015181600301556080820151816004015560a0820151816005015560c08201518160060160006101000a81548160ff02191690836002811115612f2a57634e487b7160e01b600052602160045260246000fd5b021790555050505050565b60185460405163edd0d42160e01b81526001600160a01b039091169063edd0d42190612f69908690869086906004016154bd565b600060405180830381600087803b158015612f8357600080fd5b505af1158015612f97573d6000803e3d6000fd5b50505050505050565b600680546001600160a01b038381166001600160a01b0319831681179093556040519116919082907f8be0079c531659141344cd1fd0a4f28419497f9722a3daafe3b4186f6b6457e090600090a35050565b600061012c86101561302c5760405162461bcd60e51b81526020600482015260036024820152624f323160e81b6044820152606401610998565b620151808610156130f457861561306b5760405162461bcd60e51b815260206004820152600360248201526227991960e91b6044820152606401610998565b601260009054906101000a90046001600160a01b03166001600160a01b0316631acf55826040518163ffffffff1660e01b815260040160206040518083038186803b1580156130b957600080fd5b505afa1580156130cd573d6000803e3d6000fd5b505050506040513d601f19601f820116820180604052508101906130f19190614f19565b96505b6018546040805163ab2f0e5160e01b815290516064926001600160a01b03169163ab2f0e51916004808301926020929190829003018186803b15801561313957600080fd5b505afa15801561314d573d6000803e3d6000fd5b505050506040513d601f19601f820116820180604052508101906131719190614f19565b601960009054906101000a90046001600160a01b03166001600160a01b03166371bf7e256040518163ffffffff1660e01b815260040160206040518083038186803b1580156131bf57600080fd5b505afa1580156131d3573d6000803e3d6000fd5b505050506040513d601f19601f820116820180604052508101906131f79190614f19565b61320191906154ff565b61320b91906154eb565b436000908152601760209081526040808320338452909152902054613231908a906154d3565b106132645760405162461bcd60e51b81526020600482015260036024820152624f323360e81b6044820152606401610998565b436000908152601760209081526040808320338452909152812080548a929061328e9084906154d3565b909155506000905080806132a5898c8c8b8b61111c565b9194509250905060056132b88a8d6154ff565b6132c291906154ff565b6132d0846301e133806154ff565b6132db9060646154ff565b1161330d5760405162461bcd60e51b8152602060048201526002602482015261279960f11b6044820152606401610998565b6010546040516323b872dd60e01b8152336004820152306024820152604481018590526000916001600160a01b0316906323b872dd90606401602060405180830381600087803b15801561336057600080fd5b505af1158015613374573d6000803e3d6000fd5b505050506040513d601f19601f820116820180604052508101906133989190614e89565b9050806133cc5760405162461bcd60e51b81526020600482015260026024820152614f3360f01b6044820152606401610998565b6001891515811480156133e157506001891515145b806133f35750891580156133f3575088155b156133fc575060025b6040805160e0810190915260009080600181526020018e81526020018f81526020018f81526020018581526020018d4261343691906154d3565b815260200183600281111561345b57634e487b7160e01b600052602160045260246000fd5b90529050613467612d39565b6040805180820182528d151581528c15156020808301918252600085815260159091529290922090518154925161ffff1990931690151561ff001916176101009215159290920291909117905596506134c08782612e7d565b6134de87336134d98a85602001518660a0015188613bed565b613d2b565b6134e88789613d4e565b60006134f4868b613d58565b90506135098883606001518460800151612f35565b336001600160a01b0316887f89f823a0225c73a75066e963ce2eea7708b57680ec86102773dbd244f5412892838a8d6040516135479392919061549e565b60405180910390a350505050505050979650505050505050565b6000610853825490565b6135768484846124de565b61358284848484614219565b6110155760405162461bcd60e51b8152600401610998906152e4565b6135a733611c5e565b6135d85760405162461bcd60e51b81526020600482015260026024820152614e3560f01b6044820152606401610998565b8082141561360d5760405162461bcd60e51b8152602060048201526002602482015261271b60f11b6044820152606401610998565b61361681610b14565b61361f83610b14565b1461363c5760405162461bcd60e51b815260040161099890615353565b60006136478361101b565b90506136528261101b565b6001600160a01b0316816001600160a01b0316146136975760405162461bcd60e51b815260206004820152600260248201526109c760f31b6044820152606401610998565b6000838152600f6020526040808220548483529120546136b790826154d3565b6000848152600f60205260409020556136cf8461288d565b8284836001600160a01b03167fb3ce851d16b3bbec3774d5631a3893dfa2a80e067cfad265dd594402ac3d60968460405161370c91815260200190565b60405180910390a450505050565b606061372582612389565b61378b5760405162461bcd60e51b815260206004820152603160248201527f45524337323155524953746f726167653a2055524920717565727920666f72206044820152703737b732bc34b9ba32b73a103a37b5b2b760791b6064820152608401610998565b600082815260096020526040812080546137a490615578565b80601f01602080910402602001604051908101604052809291908181526020018280546137d090615578565b801561381d5780601f106137f25761010080835404028352916020019161381d565b820191906000526020600020905b81548152906001019060200180831161380057829003601f168201915b50505050509050600061382e614326565b9050805160001415613841575092915050565b81511561387357808260405160200161385b929190615121565b60405160208183030381529060405292505050919050565b6124d684614346565b6000611f298383614410565b60006001600160e01b031982166380ac58cd60e01b14806138b957506001600160e01b03198216635b5e139f60e01b145b8061085357506301ffc9a760e01b6001600160e01b0319831614610853565b6001600160a01b03831615610ac957610ac981614448565b606060006138ff8360026154ff565b61390a9060026154d3565b6001600160401b0381111561392f57634e487b7160e01b600052604160045260246000fd5b6040519080825280601f01601f191660200182016040528015613959576020820181803683370190505b509050600360fc1b8160008151811061398257634e487b7160e01b600052603260045260246000fd5b60200101906001600160f81b031916908160001a905350600f60fb1b816001815181106139bf57634e487b7160e01b600052603260045260246000fd5b60200101906001600160f81b031916908160001a90535060006139e38460026154ff565b6139ee9060016154d3565b90505b6001811115613a82576f181899199a1a9b1b9c1cb0b131b232b360811b85600f1660108110613a3057634e487b7160e01b600052603260045260246000fd5b1a60f81b828281518110613a5457634e487b7160e01b600052603260045260246000fd5b60200101906001600160f81b031916908160001a90535060049490941c93613a7b81615561565b90506139f1565b508315611f295760405162461bcd60e51b815260206004820181905260248201527f537472696e67733a20686578206c656e67746820696e73756666696369656e746044820152606401610998565b6000613adc8261101b565b90506000613ae983610b14565b6000848152600f6020908152604080832054848452600c90925290912091925090613b1490856144fc565b506000848152600f6020526040812055613b2d84614508565b8360006001600160a01b0316846001600160a01b03166000805160206156b083398151915260008560405161370c9291906152a7565b613b6c83612389565b613b9457613b7a848461459d565b6000828152600c60205260409020613b9290846146c9565b505b6000838152600f6020526040902054613bae9082906154d3565b6000848152600f60205260408082209290925590516001600160a01b0386169082906000805160206156b08339815191529061370c90889087906152a7565b600083838387604051602001613c069493929190615474565b60408051808303601f1901815291815281516020928301206000818152601a909352912060020154909150610100900460ff1615613c6c5760405162461bcd60e51b8152602060048201526003602482015262138c4d60ea1b6044820152606401610998565b6040518060800160405280858152602001848152602001836002811115613ca357634e487b7160e01b600052602160045260246000fd5b8152600160209182018190526000848152601a8352604090819020845181559284015183830155830151600280840180549293909260ff1916918490811115613cfc57634e487b7160e01b600052602160045260246000fd5b021790555060609190910151600290910180549115156101000261ff0019909216919091179055949350505050565b6000838152600a60205260409020819055600d54610ac990839085908490613b63565b610bbd82826146d5565b60006064601960009054906101000a90046001600160a01b03166001600160a01b031663ca535c3b6040518163ffffffff1660e01b815260040160206040518083038186803b158015613daa57600080fd5b505afa158015613dbe573d6000803e3d6000fd5b505050506040513d601f19601f82011682018060405250810190613de29190614f19565b613dec90856154ff565b613df691906154eb565b90508015613ef75760105460195460408051630605cc7760e21b815290516001600160a01b039384169363a9059cbb93169163181731dc916004808301926020929190829003018186803b158015613e4d57600080fd5b505afa158015613e61573d6000803e3d6000fd5b505050506040513d601f19601f82011682018060405250810190613e859190614bd0565b836040518363ffffffff1660e01b8152600401613ea39291906151fc565b602060405180830381600087803b158015613ebd57600080fd5b505af1158015613ed1573d6000803e3d6000fd5b505050506040513d601f19601f82011682018060405250810190613ef59190614e89565b505b6000613f03828561551e565b905080156142125760195460408051634905129f60e11b815290516000926001600160a01b03169163920a253e916004808301926020929190829003018186803b158015613f5057600080fd5b505afa158015613f64573d6000803e3d6000fd5b505050506040513d601f19601f82011682018060405250810190613f889190614f19565b118015613fae5750613f986117e9565b6001600160a01b0316836001600160a01b031614155b8015613fc357506001600160a01b0383163314155b1561413d5760006064601960009054906101000a90046001600160a01b03166001600160a01b031663920a253e6040518163ffffffff1660e01b815260040160206040518083038186803b15801561401a57600080fd5b505afa15801561402e573d6000803e3d6000fd5b505050506040513d601f19601f820116820180604052508101906140529190614f19565b61405c90846154ff565b61406691906154eb565b9050614072818361551e565b60105460405163a9059cbb60e01b81529193506001600160a01b03169063a9059cbb906140a590879085906004016151fc565b602060405180830381600087803b1580156140bf57600080fd5b505af11580156140d3573d6000803e3d6000fd5b505050506040513d601f19601f820116820180604052508101906140f79190614e89565b50836001600160a01b03167f2fc41b7d7df3272c17d9b581fcf235307bc027599c6ed68442c4100bd3a841988260405161413391815260200190565b60405180910390a2505b6010546001600160a01b031663a9059cbb6141566117e9565b836040518363ffffffff1660e01b81526004016141749291906151fc565b602060405180830381600087803b15801561418e57600080fd5b505af11580156141a2573d6000803e3d6000fd5b505050506040513d601f19601f820116820180604052508101906141c69190614e89565b506141cf6117e9565b6001600160a01b03167ff0f0487d8990103573e0e5cf4e87e101e2a1ba84c733c556b7a5807e570e5d4c8260405161420991815260200190565b60405180910390a25b5092915050565b60006001600160a01b0384163b1561431b57604051630a85bd0160e11b81526001600160a01b0385169063150b7a029061425d9033908990889088906004016151bf565b602060405180830381600087803b15801561427757600080fd5b505af19250505080156142a7575060408051601f3d908101601f191682019092526142a491810190614efd565b60015b614301573d8080156142d5576040519150601f19603f3d011682016040523d82523d6000602084013e6142da565b606091505b5080516142f95760405162461bcd60e51b8152600401610998906152e4565b805181602001fd5b6001600160e01b031916630a85bd0160e11b1490506124d6565b506001949350505050565b606060405180606001604052806022815260200161566e60229139905090565b606061435182612389565b6143b55760405162461bcd60e51b815260206004820152602f60248201527f4552433732314d657461646174613a2055524920717565727920666f72206e6f60448201526e3732bc34b9ba32b73a103a37b5b2b760891b6064820152608401610998565b60006143bf614326565b905060008151116143df5760405180602001604052806000815250611f29565b806143e984614760565b6040516020016143fa929190615121565b6040516020818303038152906040529392505050565b600082600001828154811061443557634e487b7160e01b600052603260045260246000fd5b9060005260206000200154905092915050565b6000818152600b60205260408120905b8154811015610ac95781600101600083600001838154811061448a57634e487b7160e01b600052603260045260246000fd5b60009182526020808320909101546001600160a01b0316835282019290925260400181205581548290829081106144d157634e487b7160e01b600052603260045260246000fd5b600091825260209091200180546001600160a01b0319169055806144f4816155ad565b915050614458565b6000611f298383614879565b60006145138261101b565b9050614521816000846138d8565b61452c6000836123a6565b6001600160a01b038116600090815260036020526040812080546001929061455590849061551e565b909155505060008281526002602052604080822080546001600160a01b0319169055518391906001600160a01b03841690600080516020615690833981519152908390a45050565b6001600160a01b0382166145f35760405162461bcd60e51b815260206004820181905260248201527f4552433732313a206d696e7420746f20746865207a65726f20616464726573736044820152606401610998565b6145fc81612389565b156146485760405162461bcd60e51b815260206004820152601c60248201527b115490cdcc8c4e881d1bdad95b88185b1c9958591e481b5a5b9d195960221b6044820152606401610998565b614654600083836138d8565b6001600160a01b038216600090815260036020526040812080546001929061467d9084906154d3565b909155505060008181526002602052604080822080546001600160a01b0319166001600160a01b0386169081179091559051839290600080516020615690833981519152908290a45050565b6000611f298383614996565b6146de82612389565b6147415760405162461bcd60e51b815260206004820152602e60248201527f45524337323155524953746f726167653a2055524920736574206f66206e6f6e60448201526d32bc34b9ba32b73a103a37b5b2b760911b6064820152608401610998565b60008281526009602090815260409091208251610ac992840190614a41565b6060816147845750506040805180820190915260018152600360fc1b602082015290565b8160005b81156147ae5780614798816155ad565b91506147a79050600a836154eb565b9150614788565b6000816001600160401b038111156147d657634e487b7160e01b600052604160045260246000fd5b6040519080825280601f01601f191660200182016040528015614800576020820181803683370190505b5090505b84156124d65761481560018361551e565b9150614822600a866155c8565b61482d9060306154d3565b60f81b81838151811061485057634e487b7160e01b600052603260045260246000fd5b60200101906001600160f81b031916908160001a905350614872600a866154eb565b9450614804565b6000818152600183016020526040812054801561498c57600061489d60018361551e565b85549091506000906148b19060019061551e565b90508181146149325760008660000182815481106148df57634e487b7160e01b600052603260045260246000fd5b906000526020600020015490508087600001848154811061491057634e487b7160e01b600052603260045260246000fd5b6000918252602080832090910192909255918252600188019052604090208390555b855486908061495157634e487b7160e01b600052603160045260246000fd5b600190038181906000526020600020016000905590558560010160008681526020019081526020016000206000905560019350505050610853565b6000915050610853565b60008181526001830160205260408120546149dd57508154600181810184556000848152602080822090930184905584548482528286019093526040902091909155610853565b506000610853565b6040805160e081019091528060008152602001600081526020016000815260200160008152602001600081526020016000815260200160006002811115614a3c57634e487b7160e01b600052602160045260246000fd5b905290565b828054614a4d90615578565b90600052602060002090601f016020900481019282614a6f5760008555614ab5565b82601f10614a8857805160ff1916838001178555614ab5565b82800160010185558215614ab5579182015b82811115614ab5578251825591602001919060010190614a9a565b50614ac1929150614ac5565b5090565b5b80821115614ac15760008155600101614ac6565b60006001600160401b0380841115614af457614af461561e565b604051601f8501601f19908116603f01168101908282118183101715614b1c57614b1c61561e565b81604052809350858152868686011115614b3557600080fd5b858560208301376000602087830101525050509392505050565b60008083601f840112614b60578182fd5b5081356001600160401b03811115614b76578182fd5b6020830191508360208260051b8501011115614b9157600080fd5b9250929050565b80516001600160501b0381168114614baf57600080fd5b919050565b600060208284031215614bc5578081fd5b8135611f2981615634565b600060208284031215614be1578081fd5b8151611f2981615634565b60008060408385031215614bfe578081fd5b8235614c0981615634565b91506020830135614c1981615634565b809150509250929050565b600080600060608486031215614c38578081fd5b8335614c4381615634565b92506020840135614c5381615634565b929592945050506040919091013590565b60008060008060808587031215614c79578081fd5b8435614c8481615634565b93506020850135614c9481615634565b92506040850135915060608501356001600160401b03811115614cb5578182fd5b8501601f81018713614cc5578182fd5b614cd487823560208401614ada565b91505092959194509250565b60008060008060808587031215614cf5578384fd5b8435614d0081615634565b93506020850135614d1081615634565b93969395505050506040820135916060013590565b600080600080600060a08688031215614d3c578081fd5b8535614d4781615634565b94506020860135614d5781615634565b94979496505050506040830135926060810135926080909101359150565b60008060408385031215614d87578182fd5b8235614d9281615634565b91506020830135614c1981615649565b60008060408385031215614db4578182fd5b8235614dbf81615634565b946020939093013593505050565b600080600060608486031215614de1578081fd5b8335614dec81615634565b95602085013595506040909401359392505050565b60008060208385031215614e13578182fd5b82356001600160401b03811115614e28578283fd5b614e3485828601614b4f565b90969095509350505050565b600080600060408486031215614e54578081fd5b83356001600160401b03811115614e69578182fd5b614e7586828701614b4f565b909790965060209590950135949350505050565b600060208284031215614e9a578081fd5b8151611f2981615649565b600060208284031215614eb6578081fd5b5035919050565b60008060408385031215614ecf578182fd5b823591506020830135614c1981615634565b600060208284031215614ef2578081fd5b8135611f2981615657565b600060208284031215614f0e578081fd5b8151611f2981615657565b600060208284031215614f2a578081fd5b5051919050565b600080600060408486031215614f45578081fd5b8335925060208401356001600160401b03811115614f61578182fd5b614f6d86828701614b4f565b9497909650939450505050565b60008060408385031215614f8c578182fd5b50508035926020909101359150565b600080600080600060a08688031215614fb2578283fd5b8535945060208601359350604086013592506060860135614fd281615649565b91506080860135614fe281615649565b809150509295509295909350565b600080600080600080600060e0888a03121561500a578485fd5b873596506020880135955060408801359450606088013561502a81615649565b9350608088013561503a81615649565b925060a088013561504a81615634565b915060c08801356001600160401b03811115615064578182fd5b8801601f81018a13615074578182fd5b6150838a823560208401614ada565b91505092959891949750929550565b600080600080600060a086880312156150a9578283fd5b6150b286614b98565b94506020860151935060408601519250606086015191506150d560808701614b98565b90509295509295909350565b600081518084526150f9816020860160208601615535565b601f01601f19169290920160200192915050565b6003811061511d5761511d615608565b9052565b60008351615133818460208801615535565b835190830190615147818360208801615535565b01949350505050565b76020b1b1b2b9b9a1b7b73a3937b61d1030b1b1b7bab73a1604d1b815260008351615182816017850160208801615535565b7001034b99036b4b9b9b4b733903937b6329607d1b60179184019182015283516151b3816028840160208801615535565b01602801949350505050565b6001600160a01b03858116825284166020820152604081018390526080606082018190526000906151f2908301846150e1565b9695505050505050565b6001600160a01b03929092168252602082015260400190565b6020808252825182820181905260009190848201906040850190845b8181101561524d57835183529284019291840191600101615231565b50909695505050505050565b60e081016004891061526d5761526d615608565b8882528760208301528660408301528560608301528460808301528360a083015261529b60c083018461510d565b98975050505050505050565b918252602082015260400190565b602081526000611f2960208301846150e1565b6020808252600290820152614f3960f01b604082015260600190565b60208082526032908201527f4552433732313a207472616e7366657220746f206e6f6e20455243373231526560408201527131b2b4bb32b91034b6b83632b6b2b73a32b960711b606082015260800190565b60208082526003908201526204f32360ec1b604082015260600190565b6020808252600290820152614e3760f01b604082015260600190565b6020808252818101527f4f776e61626c653a2063616c6c6572206973206e6f7420746865206f776e6572604082015260600190565b60208082526031908201527f4552433732313a207472616e736665722063616c6c6572206973206e6f74206f6040820152701ddb995c881b9bdc88185c1c1c9bdd9959607a1b606082015260800190565b6020808252601f908201527f5265656e7472616e637947756172643a207265656e7472616e742063616c6c00604082015260600190565b60208082526002908201526113cd60f21b604082015260600190565b8481526020810184905260808101615463604083018561510d565b821515606083015295945050505050565b848152602081018490526080810161548f604083018561510d565b82606083015295945050505050565b838152826020820152606060408201526000612aea60608301846150e1565b9283526020830191909152604082015260600190565b600082198211156154e6576154e66155dc565b500190565b6000826154fa576154fa6155f2565b500490565b6000816000190483118215151615615519576155196155dc565b500290565b600082821015615530576155306155dc565b500390565b60005b83811015615550578181015183820152602001615538565b838111156110155750506000910152565b600081615570576155706155dc565b506000190190565b600181811c9082168061558c57607f821691505b6020821081141561092a57634e487b7160e01b600052602260045260246000fd5b60006000198214156155c1576155c16155dc565b5060010190565b6000826155d7576155d76155f2565b500690565b634e487b7160e01b600052601160045260246000fd5b634e487b7160e01b600052601260045260246000fd5b634e487b7160e01b600052602160045260246000fd5b634e487b7160e01b600052604160045260246000fd5b6001600160a01b0381168114610c6257600080fd5b8015158114610c6257600080fd5b6001600160e01b031981168114610c6257600080fdfe68747470733a2f2f676174657761792e70696e6174612e636c6f75642f697066732fddf252ad1be2c89b69c2b068fc378daa952ba7f163c4a11628f55a4df523b3ef823a343d1c899e61a4db12247636a6882bf1fefae78bef39170f8d0f5b53e456a264697066735822122049b87154db8ae754f40b84eef84575660566ffff5f0fc5dc97b2406dcb2e02f864736f6c63430008040033","bytecodeSha1":"3144ff39c87a03cd7d939fc53738c23d24b00df8","type":"contract","abi":[{"inputs":[{"internalType":"contract ERC20","name":"_tokenX","type":"address"},{"internalType":"contract IPriceProvider","name":"pp","type":"address"},{"internalType":"contract BufferIBFRPoolV2","name":"_pool","type":"address"},{"internalType":"contract OptionConfig","name":"_config","type":"address"}],"stateMutability":"nonpayable","type":"constructor","name":"constructor"},{"anonymous":false,"inputs":[{"indexed":true,"internalType":"address","name":"owner","type":"address"},{"indexed":true,"internalType":"address","name":"approved","type":"address"},{"indexed":true,"internalType":"uint256","name":"tokenId","type":"uint256"}],"name":"Approval","type":"event"},{"anonymous":false,"inputs":[{"indexed":true,"internalType":"address","name":"owner","type":"address"},{"indexed":true,"internalType":"address","name":"operator","type":"address"},{"indexed":false,"internalType":"bool","name":"approved","type":"bool"}],"name":"ApprovalForAll","type":"event"},{"anonymous":false,"inputs":[{"indexed":true,"internalType":"address","name":"approval","type":"address"},{"indexed":true,"internalType":"uint256","name":"tokenId","type":"uint256"},{"indexed":false,"internalType":"uint256","name":"allowance","type":"uint256"}],"name":"ApprovalUnits","type":"event"},{"anonymous":false,"inputs":[{"indexed":true,"internalType":"address","name":"account","type":"address"},{"indexed":false,"internalType":"bool","name":"status","type":"bool"}],"name":"AutoExerciseStatusChange","type":"event"},{"anonymous":false,"inputs":[{"indexed":true,"internalType":"uint256","name":"id","type":"uint256"},{"indexed":true,"internalType":"address","name":"account","type":"address"},{"indexed":false,"internalType":"uint256","name":"settlementFee","type":"uint256"},{"indexed":false,"internalType":"uint256","name":"totalFee","type":"uint256"},{"indexed":false,"internalType":"string","name":"metadata","type":"string"}],"name":"Create","type":"event"},{"anonymous":false,"inputs":[{"indexed":true,"internalType":"uint256","name":"id","type":"uint256"},{"indexed":false,"internalType":"uint256","name":"profit","type":"uint256"}],"name":"Exercise","type":"event"},{"anonymous":false,"inputs":[{"indexed":true,"internalType":"uint256","name":"id","type":"uint256"},{"indexed":false,"internalType":"uint256","name":"premium","type":"uint256"}],"name":"Expire","type":"event"},{"anonymous":false,"inputs":[{"indexed":true,"internalType":"address","name":"owner","type":"address"},{"indexed":true,"internalType":"uint256","name":"tokenId","type":"uint256"},{"indexed":true,"internalType":"uint256","name":"targetTokenId","type":"uint256"},{"indexed":false,"internalType":"uint256","name":"mergeUnits","type":"uint256"}],"name":"Merge","type":"event"},{"anonymous":false,"inputs":[{"indexed":true,"internalType":"address","name":"previousOwner","type":"address"},{"indexed":true,"internalType":"address","name":"newOwner","type":"address"}],"name":"OwnershipTransferred","type":"event"},{"anonymous":false,"inputs":[{"indexed":true,"internalType":"address","name":"owner","type":"address"},{"indexed":false,"internalType":"uint256","name":"amount","type":"uint256"}],"name":"PayAdminFee","type":"event"},{"anonymous":false,"inputs":[{"indexed":true,"internalType":"address","name":"referrer","type":"address"},{"indexed":false,"internalType":"uint256","name":"amount","type":"uint256"}],"name":"PayReferralFee","type":"event"},{"anonymous":false,"inputs":[{"indexed":true,"internalType":"bytes32","name":"role","type":"bytes32"},{"indexed":true,"internalType":"bytes32","name":"previousAdminRole","type":"bytes32"},{"indexed":true,"internalType":"bytes32","name":"newAdminRole","type":"bytes32"}],"name":"RoleAdminChanged","type":"event"},{"anonymous":false,"inputs":[{"indexed":true,"internalType":"bytes32","name":"role","type":"bytes32"},{"indexed":true,"internalType":"address","name":"account","type":"address"},{"indexed":true,"internalType":"address","name":"sender","type":"address"}],"name":"RoleGranted","type":"event"},{"anonymous":false,"inputs":[{"indexed":true,"internalType":"bytes32","name":"role","type":"bytes32"},{"indexed":true,"internalType":"address","name":"account","type":"address"},{"indexed":true,"internalType":"address","name":"sender","type":"address"}],"name":"RoleRevoked","type":"event"},{"anonymous":false,"inputs":[{"indexed":true,"internalType":"address","name":"owner","type":"address"},{"indexed":true,"internalType":"uint256","name":"tokenId","type":"uint256"},{"indexed":false,"internalType":"uint256","name":"newTokenId","type":"uint256"},{"indexed":false,"internalType":"uint256","name":"splitUnits","type":"uint256"}],"name":"Split","type":"event"},{"anonymous":false,"inputs":[{"indexed":true,"internalType":"address","name":"from","type":"address"},{"indexed":true,"internalType":"address","name":"to","type":"address"},{"indexed":true,"internalType":"uint256","name":"tokenId","type":"uint256"}],"name":"Transfer","type":"event"},{"anonymous":false,"inputs":[{"indexed":true,"internalType":"address","name":"from","type":"address"},{"indexed":true,"internalType":"address","name":"to","type":"address"},{"indexed":true,"internalType":"uint256","name":"tokenId","type":"uint256"},{"indexed":false,"internalType":"uint256","name":"targetTokenId","type":"uint256"},{"indexed":false,"internalType":"uint256","name":"transferUnits","type":"uint256"}],"name":"TransferUnits","type":"event"},{"anonymous":false,"inputs":[{"indexed":false,"internalType":"uint256","name":"startHour","type":"uint256"},{"indexed":false,"internalType":"uint256","name":"startMinute","type":"uint256"},{"indexed":false,"internalType":"uint256","name":"endHour","type":"uint256"},{"indexed":false,"internalType":"uint256","name":"endMinute","type":"uint256"}],"name":"UpdateOptionCreationWindow","type":"event"},{"inputs":[],"name":"AUTO_CLOSER_ROLE","outputs":[{"internalType":"bytes32","name":"","type":"bytes32"}],"stateMutability":"view","type":"function"},{"inputs":[],"name":"DEFAULT_ADMIN_ROLE","outputs":[{"internalType":"bytes32","name":"","type":"bytes32"}],"stateMutability":"view","type":"function"},{"inputs":[{"internalType":"uint256","name":"","type":"uint256"}],"name":"_units","outputs":[{"internalType":"uint256","name":"","type":"uint256"}],"stateMutability":"view","type":"function"},{"inputs":[{"internalType":"uint256","name":"optionId_","type":"uint256"},{"internalType":"address","name":"spender_","type":"address"}],"name":"allowance","outputs":[{"internalType":"uint256","name":"","type":"uint256"}],"stateMutability":"view","type":"function"},{"inputs":[{"internalType":"address","name":"to","type":"address"},{"internalType":"uint256","name":"tokenId","type":"uint256"}],"name":"approve","outputs":[],"stateMutability":"nonpayable","type":"function"},{"inputs":[{"internalType":"address","name":"to_","type":"address"},{"internalType":"uint256","name":"optionId_","type":"uint256"},{"internalType":"uint256","name":"allowance_","type":"uint256"}],"name":"approve","outputs":[],"stateMutability":"nonpayable","type":"function"},{"inputs":[],"name":"approvePoolToTransferTokenX","outputs":[],"stateMutability":"nonpayable","type":"function"},{"inputs":[{"internalType":"address","name":"owner","type":"address"}],"name":"balanceOf","outputs":[{"internalType":"uint256","name":"","type":"uint256"}],"stateMutability":"view","type":"function"},{"inputs":[{"internalType":"uint256","name":"","type":"uint256"}],"name":"binaryOptionType","outputs":[{"internalType":"bool","name":"isYes","type":"bool"},{"internalType":"bool","name":"isAbove","type":"bool"}],"stateMutability":"view","type":"function"},{"inputs":[{"internalType":"uint256","name":"tokenId_","type":"uint256"}],"name":"burn","outputs":[],"stateMutability":"nonpayable","type":"function"},{"inputs":[],"name":"config","outputs":[{"internalType":"contract OptionConfig","name":"","type":"address"}],"stateMutability":"view","type":"function"},{"inputs":[{"internalType":"uint256","name":"amount","type":"uint256"},{"internalType":"uint256","name":"strike","type":"uint256"},{"internalType":"uint256","name":"expiration","type":"uint256"},{"internalType":"bool","name":"isYes","type":"bool"},{"internalType":"bool","name":"isAbove","type":"bool"},{"internalType":"address","name":"referrer","type":"address"},{"internalType":"string","name":"metadata","type":"string"}],"name":"create","outputs":[{"internalType":"uint256","name":"optionID","type":"uint256"}],"stateMutability":"nonpayable","type":"function"},{"inputs":[{"internalType":"uint256","name":"optionID","type":"uint256"}],"name":"exercise","outputs":[{"internalType":"uint256","name":"profit","type":"uint256"}],"stateMutability":"nonpayable","type":"function"},{"inputs":[{"internalType":"uint256","name":"optionID","type":"uint256"}],"name":"exists","outputs":[{"internalType":"bool","name":"","type":"bool"}],"stateMutability":"view","type":"function"},{"inputs":[{"internalType":"uint256","name":"","type":"uint256"}],"name":"expiryToRoundID","outputs":[{"internalType":"uint256","name":"","type":"uint256"}],"stateMutability":"view","type":"function"},{"inputs":[{"internalType":"uint256","name":"period","type":"uint256"},{"internalType":"uint256","name":"amount","type":"uint256"},{"internalType":"uint256","name":"strike","type":"uint256"},{"internalType":"bool","name":"isYes","type":"bool"},{"internalType":"bool","name":"isAbove","type":"bool"}],"name":"fees","outputs":[{"internalType":"uint256","name":"total","type":"uint256"},{"internalType":"uint256","name":"settlementFee","type":"uint256"},{"internalType":"uint256","name":"premium","type":"uint256"}],"stateMutability":"view","type":"function"},{"inputs":[{"internalType":"uint256","name":"tokenId","type":"uint256"}],"name":"getApproved","outputs":[{"internalType":"address","name":"","type":"address"}],"stateMutability":"view","type":"function"},{"inputs":[{"internalType":"bytes32","name":"role","type":"bytes32"}],"name":"getRoleAdmin","outputs":[{"internalType":"bytes32","name":"","type":"bytes32"}],"stateMutability":"view","type":"function"},{"inputs":[{"internalType":"bytes32","name":"role","type":"bytes32"},{"internalType":"address","name":"account","type":"address"}],"name":"grantRole","outputs":[],"stateMutability":"nonpayable","type":"function"},{"inputs":[{"internalType":"bytes32","name":"role","type":"bytes32"},{"internalType":"address","name":"account","type":"address"}],"name":"hasRole","outputs":[{"internalType":"bool","name":"","type":"bool"}],"stateMutability":"view","type":"function"},{"inputs":[{"internalType":"address","name":"owner","type":"address"},{"internalType":"address","name":"operator","type":"address"}],"name":"isApprovedForAll","outputs":[{"internalType":"bool","name":"","type":"bool"}],"stateMutability":"view","type":"function"},{"inputs":[],"name":"maxUnits","outputs":[{"internalType":"uint256","name":"","type":"uint256"}],"stateMutability":"view","type":"function"},{"inputs":[{"internalType":"uint256[]","name":"optionIDs","type":"uint256[]"},{"internalType":"uint256","name":"targetOptionID","type":"uint256"}],"name":"merge","outputs":[],"stateMutability":"nonpayable","type":"function"},{"inputs":[],"name":"minimumYield","outputs":[{"internalType":"uint256","name":"","type":"uint256"}],"stateMutability":"view","type":"function"},{"inputs":[],"name":"name","outputs":[{"internalType":"string","name":"","type":"string"}],"stateMutability":"view","type":"function"},{"inputs":[],"name":"nextTokenId","outputs":[{"internalType":"uint256","name":"","type":"uint256"}],"stateMutability":"view","type":"function"},{"inputs":[{"internalType":"uint256","name":"","type":"uint256"},{"internalType":"address","name":"","type":"address"}],"name":"optionSizeBought","outputs":[{"internalType":"uint256","name":"","type":"uint256"}],"stateMutability":"view","type":"function"},{"inputs":[{"internalType":"uint256","name":"","type":"uint256"}],"name":"optionSlotMapping","outputs":[{"internalType":"uint256","name":"","type":"uint256"}],"stateMutability":"view","type":"function"},{"inputs":[{"internalType":"uint256","name":"","type":"uint256"}],"name":"options","outputs":[{"internalType":"enum IBufferOptions.State","name":"state","type":"uint8"},{"internalType":"uint256","name":"strike","type":"uint256"},{"internalType":"uint256","name":"amount","type":"uint256"},{"internalType":"uint256","name":"lockedAmount","type":"uint256"},{"internalType":"uint256","name":"premium","type":"uint256"},{"internalType":"uint256","name":"expiration","type":"uint256"},{"internalType":"enum IBufferOptions.OptionType","name":"optionType","type":"uint8"}],"stateMutability":"view","type":"function"},{"inputs":[],"name":"owner","outputs":[{"internalType":"address","name":"","type":"address"}],"stateMutability":"view","type":"function"},{"inputs":[{"internalType":"uint256","name":"tokenId","type":"uint256"}],"name":"ownerOf","outputs":[{"internalType":"address","name":"","type":"address"}],"stateMutability":"view","type":"function"},{"inputs":[],"name":"pool","outputs":[{"internalType":"contract BufferIBFRPoolV2","name":"","type":"address"}],"stateMutability":"view","type":"function"},{"inputs":[],"name":"priceProvider","outputs":[{"internalType":"contract IPriceProvider","name":"","type":"address"}],"stateMutability":"view","type":"function"},{"inputs":[{"internalType":"uint256","name":"amount","type":"uint256"},{"internalType":"uint256","name":"strike","type":"uint256"},{"internalType":"uint256","name":"period","type":"uint256"},{"internalType":"bool","name":"isYes","type":"bool"},{"internalType":"bool","name":"isAbove","type":"bool"},{"internalType":"address","name":"referrer","type":"address"},{"internalType":"string","name":"metadata","type":"string"}],"name":"quickCreate","outputs":[{"internalType":"uint256","name":"optionID","type":"uint256"}],"stateMutability":"nonpayable","type":"function"},{"inputs":[],"name":"renounceOwnership","outputs":[],"stateMutability":"nonpayable","type":"function"},{"inputs":[{"internalType":"bytes32","name":"role","type":"bytes32"},{"internalType":"address","name":"account","type":"address"}],"name":"renounceRole","outputs":[],"stateMutability":"nonpayable","type":"function"},{"inputs":[{"internalType":"bytes32","name":"role","type":"bytes32"},{"internalType":"address","name":"account","type":"address"}],"name":"revokeRole","outputs":[],"stateMutability":"nonpayable","type":"function"},{"inputs":[{"internalType":"address","name":"from","type":"address"},{"internalType":"address","name":"to","type":"address"},{"internalType":"uint256","name":"tokenId","type":"uint256"}],"name":"safeTransferFrom","outputs":[],"stateMutability":"nonpayable","type":"function"},{"inputs":[{"internalType":"address","name":"from","type":"address"},{"internalType":"address","name":"to","type":"address"},{"internalType":"uint256","name":"tokenId","type":"uint256"},{"internalType":"bytes","name":"_data","type":"bytes"}],"name":"safeTransferFrom","outputs":[],"stateMutability":"nonpayable","type":"function"},{"inputs":[{"internalType":"address","name":"operator","type":"address"},{"internalType":"bool","name":"approved","type":"bool"}],"name":"setApprovalForAll","outputs":[],"stateMutability":"nonpayable","type":"function"},{"inputs":[{"internalType":"uint256","name":"roundId","type":"uint256"},{"internalType":"uint256","name":"optionID","type":"uint256"}],"name":"setRoundIDForExpiry","outputs":[{"internalType":"bool","name":"isCorrectRoundId","type":"bool"}],"stateMutability":"nonpayable","type":"function"},{"inputs":[{"internalType":"uint256","name":"","type":"uint256"}],"name":"slotDetails","outputs":[{"internalType":"uint256","name":"strike","type":"uint256"},{"internalType":"uint256","name":"expiration","type":"uint256"},{"internalType":"enum IBufferOptions.OptionType","name":"optionType","type":"uint8"},{"internalType":"bool","name":"isValid","type":"bool"}],"stateMutability":"view","type":"function"},{"inputs":[{"internalType":"uint256","name":"optionId_","type":"uint256"}],"name":"slotOf","outputs":[{"internalType":"uint256","name":"","type":"uint256"}],"stateMutability":"view","type":"function"},{"inputs":[{"internalType":"uint256","name":"optionID","type":"uint256"},{"internalType":"uint256[]","name":"splitUnits_","type":"uint256[]"}],"name":"split","outputs":[{"internalType":"uint256[]","name":"newOptionIDs","type":"uint256[]"}],"stateMutability":"nonpayable","type":"function"},{"inputs":[{"internalType":"bytes4","name":"interfaceId","type":"bytes4"}],"name":"supportsInterface","outputs":[{"internalType":"bool","name":"","type":"bool"}],"stateMutability":"view","type":"function"},{"inputs":[],"name":"symbol","outputs":[{"internalType":"string","name":"","type":"string"}],"stateMutability":"view","type":"function"},{"inputs":[{"internalType":"uint256","name":"slot_","type":"uint256"},{"internalType":"uint256","name":"index_","type":"uint256"}],"name":"tokenOfSlotByIndex","outputs":[{"internalType":"uint256","name":"","type":"uint256"}],"stateMutability":"view","type":"function"},{"inputs":[{"internalType":"uint256","name":"tokenId","type":"uint256"}],"name":"tokenURI","outputs":[{"internalType":"string","name":"","type":"string"}],"stateMutability":"view","type":"function"},{"inputs":[],"name":"tokenX","outputs":[{"internalType":"contract ERC20","name":"","type":"address"}],"stateMutability":"view","type":"function"},{"inputs":[{"internalType":"uint256","name":"slot_","type":"uint256"}],"name":"tokensInSlot","outputs":[{"internalType":"uint256","name":"","type":"uint256"}],"stateMutability":"view","type":"function"},{"inputs":[{"internalType":"address","name":"from","type":"address"},{"internalType":"address","name":"to","type":"address"},{"internalType":"uint256","name":"tokenId","type":"uint256"}],"name":"transferFrom","outputs":[],"stateMutability":"nonpayable","type":"function"},{"inputs":[{"internalType":"address","name":"from_","type":"address"},{"internalType":"address","name":"to_","type":"address"},{"internalType":"uint256","name":"optionID","type":"uint256"},{"internalType":"uint256","name":"targetOptionID","type":"uint256"},{"internalType":"uint256","name":"transferUnits_","type":"uint256"}],"name":"transferFrom","outputs":[],"stateMutability":"nonpayable","type":"function"},{"inputs":[{"internalType":"address","name":"from_","type":"address"},{"internalType":"address","name":"to_","type":"address"},{"internalType":"uint256","name":"optionID","type":"uint256"},{"internalType":"uint256","name":"transferUnits_","type":"uint256"}],"name":"transferFrom","outputs":[{"internalType":"uint256","name":"newOptionID","type":"uint256"}],"stateMutability":"nonpayable","type":"function"},{"inputs":[{"internalType":"address","name":"newOwner","type":"address"}],"name":"transferOwnership","outputs":[],"stateMutability":"nonpayable","type":"function"},{"inputs":[],"name":"unitDecimals","outputs":[{"internalType":"uint8","name":"","type":"uint8"}],"stateMutability":"view","type":"function"},{"inputs":[{"internalType":"uint256","name":"slot_","type":"uint256"}],"name":"unitsInSlot","outputs":[{"internalType":"uint256","name":"units_","type":"uint256"}],"stateMutability":"view","type":"function"},{"inputs":[{"internalType":"uint256","name":"optionId_","type":"uint256"}],"name":"unitsInToken","outputs":[{"internalType":"uint256","name":"","type":"uint256"}],"stateMutability":"view","type":"function"},{"inputs":[{"internalType":"uint256","name":"optionID","type":"uint256"}],"name":"unlock","outputs":[],"stateMutability":"nonpayable","type":"function"},{"inputs":[{"internalType":"uint256[]","name":"optionIDs","type":"uint256[]"}],"name":"unlockAll","outputs":[],"stateMutability":"nonpayable","type":"function"}],"compiler":{"version":"0.8.4+commit.c7e474f2","evm_version":"istanbul","optimizer":{"enabled":true,"runs":1}},"contractName":"BufferBinaryEuropeanTokenXOptions","deployedBytecode":"608060405234801561001057600080fd5b50600436106102a95760003560e01c806301ffc9a7146102ae57806305271a2a146102d657806306517a29146102eb57806306fdde0314610302578063076d948c14610317578063081812fc1461032a578063095ea7b31461035557806316dc165b1461036a57806316f0115b1461037d57806323b872dd14610390578063248a9ca3146103a3578063263f3e7e146103b65780632f2ff15d146103c957806334c01793146103dc57806336568abe14610407578063409e22051461041a578063426a84931461047d57806342842e0e1461049057806342966c68146104a35780634aed53c2146104b65780634f558e79146104c95780636198e339146104dc5780636352211e146104ef578063645734e61461050257806367807f7d1461050a578063689ab5ac1461052c57806369c672471461056f57806370a082311461058f578063715018a6146105a257806375794a3c146105aa57806378c533ce146105b357806379502c55146105d3578063841edc0e146105e65780638a584118146106065780638da5cb5b146106515780638ddaa2671461065957806391d148541461066c57806395d89b411461067f578063a217fddf14610687578063a22cb4651461068f578063a6d14c02146106a2578063a8800425146106aa578063b07f0a41146106bd578063b888879e146106d0578063b88d4fde146106e3578063bbe33ea5146106f6578063becef60714610709578063c0d720bb1461071c578063c87b56dd1461072f578063d149cc3014610742578063d547741f14610755578063d5a0e67314610768578063d67a6b7014610788578063dba34e971461079b578063e342b598146107c2578063e345e0bc146107d5578063e985e9c51461080f578063f2fde38b14610822578063fe99049a14610835575b600080fd5b6102c16102bc366004614ee1565b610848565b60405190151581526020015b60405180910390f35b600e5460405160ff90911681526020016102cd565b6102f4600d5481565b6040519081526020016102cd565b61030a610859565b6040516102cd91906152b5565b6102f4610325366004614ea5565b6108eb565b61033d610338366004614ea5565b610930565b6040516001600160a01b0390911681526020016102cd565b610368610363366004614da2565b6109bd565b005b60105461033d906001600160a01b031681565b60185461033d906001600160a01b031681565b61036861039e366004614c24565b610ace565b6102f46103b1366004614ea5565b610aff565b6102f46103c4366004614ea5565b610b14565b6103686103d7366004614ebd565b610b26565b6102f46103ea366004614ebd565b601760209081526000928352604080842090915290825290205481565b610368610415366004614ebd565b610b43565b61046a610428366004614ea5565b601460205260009081526040902080546001820154600283015460038401546004850154600586015460069096015460ff958616969495939492939192911687565b6040516102cd9796959493929190615259565b61036861048b366004614dcd565b610bc1565b61036861049e366004614c24565b610c05565b6103686104b1366004614ea5565b610c20565b6103686104c4366004614d25565b610c65565b6102c16104d7366004614ea5565b610d87565b6103686104ea366004614ea5565b610d92565b61033d6104fd366004614ea5565b61101b565b610368611092565b61051d610518366004614f9b565b61111c565b6040516102cd939291906154bd565b61055861053a366004614ea5565b60156020526000908152604090205460ff8082169161010090041682565b6040805192151583529015156020830152016102cd565b61058261057d366004614f31565b611335565b6040516102cd9190615215565b6102f461059d366004614bb4565b611727565b6103686117ae565b6102f460135481565b6102f46105c1366004614ea5565b600f6020526000908152604090205481565b60195461033d906001600160a01b031681565b6102f46105f4366004614ea5565b60166020526000908152604090205481565b610641610614366004614ea5565b601a6020526000908152604090208054600182015460029092015490919060ff8082169161010090041684565b6040516102cd9493929190615448565b61033d6117e9565b6102f4610667366004614ff0565b6117f8565b6102c161067a366004614ebd565b611842565b61030a61186d565b6102f4600081565b61036861069d366004614d75565b61187c565b6102f4600581565b6102f46106b8366004614ea5565b61193d565b6102f46106cb366004614ea5565b611954565b60125461033d906001600160a01b031681565b6103686106f1366004614c64565b611c59565b610368610704366004614e40565b611c8c565b6102f4610717366004614ea5565b611e9b565b6102f461072a366004614ff0565b611ead565b61030a61073d366004614ea5565b611f06565b6102f4610750366004614f7a565b611f11565b610368610763366004614ebd565b611f30565b6102f4610776366004614ea5565b600a6020526000908152604090205481565b6102c1610796366004614f7a565b611f4d565b6102f47fdeb3b49547f710c56a925b6e16e3557a50fab4dd8f243bc314f3afba2054ec5b81565b6103686107d0366004614e01565b612175565b6102f46107e3366004614ebd565b6000828152600b602090815260408083206001600160a01b038516845260010190915290205492915050565b6102c161081d366004614bec565b6121c2565b610368610830366004614bb4565b6121f0565b6102f4610843366004614ce0565b61228d565b600061085382612364565b92915050565b60606000805461086890615578565b80601f016020809104026020016040519081016040528092919081815260200182805461089490615578565b80156108e15780601f106108b6576101008083540402835291602001916108e1565b820191906000526020600020905b8154815290600101906020018083116108c457829003601f168201915b5050505050905090565b6000805b6108f88361193d565b81101561092a5761090c6107178483611f11565b61091690836154d3565b915080610922816155ad565b9150506108ef565b50919050565b600061093b82612389565b6109a15760405162461bcd60e51b815260206004820152602c60248201527f4552433732313a20617070726f76656420717565727920666f72206e6f6e657860448201526b34b9ba32b73a103a37b5b2b760a11b60648201526084015b60405180910390fd5b506000908152600460205260409020546001600160a01b031690565b60006109c88261101b565b9050806001600160a01b0316836001600160a01b03161415610a365760405162461bcd60e51b815260206004820152602160248201527f4552433732313a20617070726f76616c20746f2063757272656e74206f776e656044820152603960f91b6064820152608401610998565b336001600160a01b0382161480610a525750610a5281336121c2565b610abf5760405162461bcd60e51b815260206004820152603860248201527f4552433732313a20617070726f76652063616c6c6572206973206e6f74206f776044820152771b995c881b9bdc88185c1c1c9bdd995908199bdc88185b1b60421b6064820152608401610998565b610ac983836123a6565b505050565b610ad83382612414565b610af45760405162461bcd60e51b8152600401610998906153a4565b610ac98383836124de565b60009081526008602052604090206001015490565b6000908152600a602052604090205490565b610b2f82610aff565b610b398133612677565b610ac983836126db565b6001600160a01b0381163314610bb35760405162461bcd60e51b815260206004820152602f60248201527f416363657373436f6e74726f6c3a2063616e206f6e6c792072656e6f756e636560448201526e103937b632b9903337b91039b2b63360891b6064820152608401610998565b610bbd8282612761565b5050565b610bca8261101b565b6001600160a01b0316336001600160a01b031614610bfa5760405162461bcd60e51b8152600401610998906152c8565b610ac98383836127c8565b610ac983838360405180602001604052806000815250611c59565b610c298161101b565b6001600160a01b0316336001600160a01b031614610c595760405162461bcd60e51b8152600401610998906152c8565b610c628161288d565b50565b610c6e82610d87565b610ca05760405162461bcd60e51b815260206004820152600360248201526227189960e91b6044820152606401610998565b6000806000610caf86856128a5565b509250925092506000610cc1866129d2565b9050610cfd8682848460600151610cd891906154d3565b878560400151610ce891906154d3565b878660800151610cf891906154d3565b612ac1565b601854606082015160808301516040516357a5c96760e01b81529394506001600160a01b03909216926357a5c96792610d3d928b929091906004016154bd565b600060405180830381600087803b158015610d5757600080fd5b505af1158015610d6b573d6000803e3d6000fd5b50505050610d7c8989898989612af3565b505050505050505050565b600061085382612389565b60008181526014602052604090206005810154421015610dc45760405162461bcd60e51b81526004016109989061542c565b6001815460ff166003811115610dea57634e487b7160e01b600052602160045260246000fd5b14610e1c5760405162461bcd60e51b81526020600482015260026024820152614f3560f01b6044820152606401610998565b600581015460009081526016602052604090205480610e4d5760405162461bcd60e51b815260040161099890615336565b6012546040516303906d2960e11b8152600481018390526000916001600160a01b031690630720da529060240160a06040518083038186803b158015610e9257600080fd5b505afa158015610ea6573d6000803e3d6000fd5b505050506040513d601f19601f82011682018060405250810190610eca9190615092565b5091935060029250610eda915050565b600684015460ff166002811115610f0157634e487b7160e01b600052602160045260246000fd5b148015610f115750826001015481115b80610f5057506001600684015460ff166002811115610f4057634e487b7160e01b600052602160045260246000fd5b148015610f505750826001015481105b15610f6457610f5e84611954565b50611015565b825460ff19166003178355601854604051636198e33960e01b8152600481018690526001600160a01b0390911690636198e33990602401600060405180830381600087803b158015610fb557600080fd5b505af1158015610fc9573d6000803e3d6000fd5b50505050610fd68461288d565b837f5f36a4a575e512eb69d6d28c3b0ff98cca7ba50ad5bf04e14094ad1d425e0d31846004015460405161100c91815260200190565b60405180910390a25b50505050565b6000818152600260205260408120546001600160a01b0316806108535760405162461bcd60e51b815260206004820152602960248201527f4552433732313a206f776e657220717565727920666f72206e6f6e657869737460448201526832b73a103a37b5b2b760b91b6064820152608401610998565b60105460185460405163095ea7b360e01b81526001600160a01b039283169263095ea7b3926110ca92911690600019906004016151fc565b602060405180830381600087803b1580156110e457600080fd5b505af11580156110f8573d6000803e3d6000fd5b505050506040513d601f19601f82011682018060405250810190610c629190614e89565b600080600080601260009054906101000a90046001600160a01b03166001600160a01b0316631acf55826040518163ffffffff1660e01b815260040160206040518083038186803b15801561117057600080fd5b505afa158015611184573d6000803e3d6000fd5b505050506040513d601f19601f820116820180604052508101906111a89190614f19565b60195460185460405163e39d06e960e01b8152600481018d9052602481018c9052604481018b90528915156064820152881515608482015260a481018490526001600160a01b0392831660c4820152911660e482015290915073__$b949255e90277c788dcf25edf1f9288c61$__9063e39d06e9906101040160206040518083038186803b15801561123957600080fd5b505af415801561124d573d6000803e3d6000fd5b505050506040513d601f19601f820116820180604052508101906112719190614f19565b9150601960009054906101000a90046001600160a01b03166001600160a01b031663f3fa34956040518163ffffffff1660e01b815260040160206040518083038186803b1580156112c157600080fd5b505afa1580156112d5573d6000803e3d6000fd5b505050506040513d601f19601f820116820180604052508101906112f99190614f19565b6113059061271061551e565b611311836127106154ff565b61131b91906154eb565b9350611327828561551e565b925050955095509592505050565b6060816113695760405162461bcd60e51b81526020600482015260026024820152614e3160f01b6044820152606401610998565b816001600160401b0381111561138f57634e487b7160e01b600052604160045260246000fd5b6040519080825280602002602001820160405280156113b8578160200160208202803683370190505b50905060006113c6856129d2565b905060006113d386611e9b565b905060008080805b878110156115e65760006113ed612d39565b90508088838151811061141057634e487b7160e01b600052603260045260246000fd5b60200260200101818152505061144d8b828c8c8681811061144157634e487b7160e01b600052603260045260246000fd5b90506020020135612d53565b6000868b8b8581811061147057634e487b7160e01b600052603260045260246000fd5b90506020020135896040015161148691906154ff565b61149091906154eb565b905061149c81876154d3565b95506000878c8c868181106114c157634e487b7160e01b600052603260045260246000fd5b905060200201358a606001516114d791906154ff565b6114e191906154eb565b90506114ed81876154d3565b95506000888d8d8781811061151257634e487b7160e01b600052603260045260246000fd5b905060200201358b6080015161152891906154ff565b61153291906154eb565b905061153e81876154d3565b955060006040518060e001604052808c60000151600381111561157157634e487b7160e01b600052602160045260246000fd5b81526020018c6020015181526020018581526020018481526020018381526020018c60a0015181526020018c60c0015160028111156115c057634e487b7160e01b600052602160045260246000fd5b905290506115ce8582612e7d565b505050505080806115de906155ad565b9150506113db565b5061161c89868488606001516115fc919061551e565b86896040015161160c919061551e565b858a60800151610cf8919061551e565b601854606082015160808301516040516357a5c96760e01b81529398506001600160a01b03909216926357a5c9679261165c928e929091906004016154bd565b600060405180830381600087803b15801561167657600080fd5b505af115801561168a573d6000803e3d6000fd5b5050505060005b8781101561171a5760006116cb8883815181106116be57634e487b7160e01b600052603260045260246000fd5b60200260200101516129d2565b90506117078883815181106116f057634e487b7160e01b600052603260045260246000fd5b602002602001015182606001518360800151612f35565b5080611712816155ad565b915050611691565b5050505050509392505050565b60006001600160a01b0382166117925760405162461bcd60e51b815260206004820152602a60248201527f4552433732313a2062616c616e636520717565727920666f7220746865207a65604482015269726f206164647265737360b01b6064820152608401610998565b506001600160a01b031660009081526003602052604090205490565b336117b76117e9565b6001600160a01b0316146117dd5760405162461bcd60e51b81526004016109989061536f565b6117e76000612fa0565b565b6006546001600160a01b031690565b60006002600754141561181d5760405162461bcd60e51b8152600401610998906153f5565b600260075561183188888888888888612ff2565b600160075598975050505050505050565b60009182526008602090815260408084206001600160a01b0393909316845291905290205460ff1690565b60606001805461086890615578565b6001600160a01b0382163314156118d15760405162461bcd60e51b815260206004820152601960248201527822a9219b99189d1030b8383937bb32903a379031b0b63632b960391b6044820152606401610998565b3360008181526005602090815260408083206001600160a01b03871680855290835292819020805460ff191686151590811790915590519081529192917f17307eab39ab6107e8899845ad3d59bd9653f200f220920489ca2b5937696c31910160405180910390a35050565b6000818152600c6020526040812061085390613561565b600061195f82610d87565b6119915760405162461bcd60e51b815260206004820152600360248201526204f31360ec1b6044820152606401610998565b600082815260146020526040902060058101544210156119c35760405162461bcd60e51b81526004016109989061542c565b6001815460ff1660038111156119e957634e487b7160e01b600052602160045260246000fd5b14611a1c5760405162461bcd60e51b815260206004820152600360248201526213cc4d60ea1b6044820152606401610998565b600581015460009081526016602052604090205480611a4d5760405162461bcd60e51b815260040161099890615336565b6012546040516303906d2960e11b8152600481018390526000916001600160a01b031690630720da529060240160a06040518083038186803b158015611a9257600080fd5b505afa158015611aa6573d6000803e3d6000fd5b505050506040513d601f19601f82011682018060405250810190611aca9190615092565b5091935060029250611ada915050565b600684015460ff166002811115611b0157634e487b7160e01b600052602160045260246000fd5b1415611b46578083600101541115611b415760405162461bcd60e51b81526020600482015260036024820152624f313760e81b6044820152606401610998565b611b80565b8083600101541015611b805760405162461bcd60e51b815260206004820152600360248201526209e62760eb1b6044820152606401610998565b60038301546018549094506001600160a01b03166381b34f1586611ba38161101b565b6040516001600160e01b031960e085901b16815260048101929092526001600160a01b0316602482015260448101879052606401600060405180830381600087803b158015611bf157600080fd5b505af1158015611c05573d6000803e3d6000fd5b50505050611c128561288d565b825460ff1916600217835560405184815285907e84fe51c7cb34b132b7b6eb5d5a87a489f8d6d284758d00a0402c1bad9a0def9060200160405180910390a2505050919050565b611c64335b83612414565b611c805760405162461bcd60e51b8152600401610998906153a4565b6110158484848461356b565b81611cbe5760405162461bcd60e51b8152602060048201526002602482015261138d60f21b6044820152606401610998565b6000611cc9826129d2565b606081015160408201516080830151929350909160005b86811015611e1d576000611d19898984818110611d0d57634e487b7160e01b600052603260045260246000fd5b905060200201356129d2565b9050806060015185611d2b91906154d3565b9450806040015184611d3d91906154d3565b9350806080015183611d4f91906154d3565b6018549093506001600160a01b0316630dbf21b08a8a85818110611d8357634e487b7160e01b600052603260045260246000fd5b905060200201356040518263ffffffff1660e01b8152600401611da891815260200190565b600060405180830381600087803b158015611dc257600080fd5b505af1158015611dd6573d6000803e3d6000fd5b50505050611e0a898984818110611dfd57634e487b7160e01b600052603260045260246000fd5b905060200201358861359e565b5080611e15816155ad565b915050611ce0565b50611e2b8585858585612ac1565b506018546040516357a5c96760e01b81526001600160a01b03909116906357a5c96790611e60908890879086906004016154bd565b600060405180830381600087803b158015611e7a57600080fd5b505af1158015611e8e573d6000803e3d6000fd5b5050505050505050505050565b6000908152600f602052604090205490565b600060026007541415611ed25760405162461bcd60e51b8152600401610998906153f5565b60026007556000611ee3428861551e565b9050611ef489898389898989612ff2565b60016007559998505050505050505050565b60606108538261371a565b6000828152600c60205260408120611f29908361387c565b9392505050565b611f3982610aff565b611f438133612677565b610ac98383612761565b6012546040516303906d2960e11b815260048101849052600091829182916001600160a01b031690630720da529060240160a06040518083038186803b158015611f9657600080fd5b505afa158015611faa573d6000803e3d6000fd5b505050506040513d601f19601f82011682018060405250810190611fce9190615092565b506000888152601460205260409020600581015493965090945092505082811061201f5760405162461bcd60e51b8152602060048201526002602482015261433160f01b6044820152606401610998565b6000818152601660205260409020548061216a5761203e60018961551e565b90505b8561216a576012546040516303906d2960e11b8152600481018390526000916001600160a01b031690630720da529060240160a06040518083038186803b15801561208b57600080fd5b505afa15801561209f573d6000803e3d6000fd5b505050506040513d601f19601f820116820180604052508101906120c39190615092565b509350505050806000141561211957600082116121075760405162461bcd60e51b8152602060048201526002602482015261433360f01b6044820152606401610998565b61211260018361551e565b9150612164565b8281111561214e5760405162461bcd60e51b815260206004820152600260248201526110cd60f21b6044820152606401610998565b6000838152601660205260409020829055600196505b50612041565b505050505092915050565b8060005b81811015611015576121b08484838181106121a457634e487b7160e01b600052603260045260246000fd5b90506020020135610d92565b806121ba816155ad565b915050612179565b6001600160a01b03918216600090815260056020908152604080832093909416825291909152205460ff1690565b336121f96117e9565b6001600160a01b03161461221f5760405162461bcd60e51b81526004016109989061536f565b6001600160a01b0381166122845760405162461bcd60e51b815260206004820152602660248201527f4f776e61626c653a206e6577206f776e657220697320746865207a65726f206160448201526564647265737360d01b6064820152608401610998565b610c6281612fa0565b6000612297612d39565b90506000806000806122a987876128a5565b935093509350935060006040518060e00160405280836000015160038111156122e257634e487b7160e01b600052602160045260246000fd5b8152602001836020015181526020018681526020018481526020018581526020018360a0015181526020018360c00151600281111561233157634e487b7160e01b600052602160045260246000fd5b9052905061233f8682612e7d565b61234a868486612f35565b6123578a8a8a898b612af3565b5050505050949350505050565b60006001600160e01b03198216637965db0b60e01b1480610853575061085382613888565b6000908152600260205260409020546001600160a01b0316151590565b600081815260046020526040902080546001600160a01b0319166001600160a01b03841690811790915581906123db8261101b565b6001600160a01b03167f8c5be1e5ebec7d5bd14f71427d1e84f3dd0314c0f7b2291e5b200ac8c7c3b92560405160405180910390a45050565b600061241f82612389565b6124805760405162461bcd60e51b815260206004820152602c60248201527f4552433732313a206f70657261746f7220717565727920666f72206e6f6e657860448201526b34b9ba32b73a103a37b5b2b760a11b6064820152608401610998565b600061248b8361101b565b9050806001600160a01b0316846001600160a01b031614806124c65750836001600160a01b03166124bb84610930565b6001600160a01b0316145b806124d657506124d681856121c2565b949350505050565b826001600160a01b03166124f18261101b565b6001600160a01b0316146125595760405162461bcd60e51b815260206004820152602960248201527f4552433732313a207472616e73666572206f6620746f6b656e2074686174206960448201526839903737ba1037bbb760b91b6064820152608401610998565b6001600160a01b0382166125bb5760405162461bcd60e51b8152602060048201526024808201527f4552433732313a207472616e7366657220746f20746865207a65726f206164646044820152637265737360e01b6064820152608401610998565b6125c68383836138d8565b6125d16000826123a6565b6001600160a01b03831660009081526003602052604081208054600192906125fa90849061551e565b90915550506001600160a01b03821660009081526003602052604081208054600192906126289084906154d3565b909155505060008181526002602052604080822080546001600160a01b0319166001600160a01b03868116918217909255915184939187169160008051602061569083398151915291a4505050565b6126818282611842565b610bbd57612699816001600160a01b031660146138f0565b6126a48360206138f0565b6040516020016126b5929190615150565b60408051601f198184030181529082905262461bcd60e51b8252610998916004016152b5565b6126e58282611842565b610bbd5760008281526008602090815260408083206001600160a01b03851684529091529020805460ff1916600117905561271d3390565b6001600160a01b0316816001600160a01b0316837f2f8788117e7eff1d82e926ec794901d17c78024a50270940304540a733656f0d60405160405180910390a45050565b61276b8282611842565b15610bbd5760008281526008602090815260408083206001600160a01b0385168085529252808320805460ff1916905551339285917ff6391f5c32d9c69d2a47ea670b442974b53935d1edc7fd64eb21e047a839171b9190a45050565b6000828152600b602090815260408083206001600160a01b038716845260010190915290205461282a576000828152600b602090815260408220805460018101825590835291200180546001600160a01b0319166001600160a01b0385161790555b6000828152600b602090815260408083206001600160a01b0387168085526001909101835292819020849055518381528492917f8a156bd946dc74ec284c5f4b365ce75ef2a5b9d9462b4cdb1d2400cabf136541910160405180910390a3505050565b6000818152600a6020526040812055610c6281613ad1565b60008060006128b26149e5565b6128bb866129d2565b905060006128c887611e9b565b9050808683604001516128db91906154ff565b6128e591906154eb565b9450808683608001516128f891906154ff565b61290291906154eb565b93508086836060015161291591906154ff565b61291f91906154eb565b92506129568783858560600151612936919061551e565b888660400151612946919061551e565b888760800151610cf8919061551e565b601854606082015160808301516040516357a5c96760e01b81529395506001600160a01b03909216926357a5c96792612996928c929091906004016154bd565b600060405180830381600087803b1580156129b057600080fd5b505af11580156129c4573d6000803e3d6000fd5b505050505092959194509250565b6129da6149e5565b60008281526014602052604090819020815160e081019092528054829060ff166003811115612a1957634e487b7160e01b600052602160045260246000fd5b6003811115612a3857634e487b7160e01b600052602160045260246000fd5b81526001820154602082015260028083015460408301526003830154606083015260048301546080830152600583015460a0830152600683015460c09092019160ff1690811115612a9957634e487b7160e01b600052602160045260246000fd5b6002811115612ab857634e487b7160e01b600052602160045260246000fd5b90525092915050565b612ac96149e5565b5060608401839052604084018290526080840181905283612aea8682612e7d565b95945050505050565b612afc8361101b565b6001600160a01b0316856001600160a01b031614612b415760405162461bcd60e51b81526020600482015260026024820152614e3960f01b6044820152606401610998565b6001600160a01b038416612b7d5760405162461bcd60e51b815260206004820152600360248201526204e31360ec1b6044820152606401610998565b336001600160a01b03861614801590612b9d5750612b9b85336121c2565b155b15612be8576000838152600b60209081526040808320338452600101909152902054612bca90829061551e565b6000848152600b602090815260408083203384526001019091529020555b6000838152600f6020526040902054612c0290829061551e565b6000848152600f6020526040902055612c1a82612389565b612c3757612c328483612c2c86610b14565b84613b63565b612cdf565b836001600160a01b0316612c4a8361101b565b6001600160a01b031614612c865760405162461bcd60e51b81526020600482015260036024820152624e313160e81b6044820152606401610998565b612c8f82610b14565b612c9884610b14565b14612cb55760405162461bcd60e51b815260040161099890615353565b6000828152600f6020526040902054612ccf9082906154d3565b6000838152600f60205260409020555b6000838152600a60205260408082205484835291819020919091555183906001600160a01b0380871691908816906000805160206156b083398151915290612d2a90879087906152a7565b60405180910390a45050505050565b6013805460009182612d4a836155ad565b91905055905090565b612d5d3384612414565b612d8e5760405162461bcd60e51b8152602060048201526002602482015261271960f11b6044820152606401610998565b612d9782612389565b15612dc95760405162461bcd60e51b81526020600482015260026024820152614e3360f01b6044820152606401610998565b612de882612dd685610b14565b6000918252600a602052604090912055565b6000838152600f6020526040902054612e0290829061551e565b6000848152600f6020526040812091909155612e1d8461101b565b9050612e338184612e2d87610b14565b85613b63565b83816001600160a01b03167ff66885c33d648fcd0d97e0f2a18e30102169c22763473af0fb716f11b4a17dd68585604051612e6f9291906152a7565b60405180910390a350505050565b60008281526014602052604090208151815483929190829060ff19166001836003811115612ebb57634e487b7160e01b600052602160045260246000fd5b02179055506020820151816001015560408201518160020155606082015181600301556080820151816004015560a0820151816005015560c08201518160060160006101000a81548160ff02191690836002811115612f2a57634e487b7160e01b600052602160045260246000fd5b021790555050505050565b60185460405163edd0d42160e01b81526001600160a01b039091169063edd0d42190612f69908690869086906004016154bd565b600060405180830381600087803b158015612f8357600080fd5b505af1158015612f97573d6000803e3d6000fd5b50505050505050565b600680546001600160a01b038381166001600160a01b0319831681179093556040519116919082907f8be0079c531659141344cd1fd0a4f28419497f9722a3daafe3b4186f6b6457e090600090a35050565b600061012c86101561302c5760405162461bcd60e51b81526020600482015260036024820152624f323160e81b6044820152606401610998565b620151808610156130f457861561306b5760405162461bcd60e51b815260206004820152600360248201526227991960e91b6044820152606401610998565b601260009054906101000a90046001600160a01b03166001600160a01b0316631acf55826040518163ffffffff1660e01b815260040160206040518083038186803b1580156130b957600080fd5b505afa1580156130cd573d6000803e3d6000fd5b505050506040513d601f19601f820116820180604052508101906130f19190614f19565b96505b6018546040805163ab2f0e5160e01b815290516064926001600160a01b03169163ab2f0e51916004808301926020929190829003018186803b15801561313957600080fd5b505afa15801561314d573d6000803e3d6000fd5b505050506040513d601f19601f820116820180604052508101906131719190614f19565b601960009054906101000a90046001600160a01b03166001600160a01b03166371bf7e256040518163ffffffff1660e01b815260040160206040518083038186803b1580156131bf57600080fd5b505afa1580156131d3573d6000803e3d6000fd5b505050506040513d601f19601f820116820180604052508101906131f79190614f19565b61320191906154ff565b61320b91906154eb565b436000908152601760209081526040808320338452909152902054613231908a906154d3565b106132645760405162461bcd60e51b81526020600482015260036024820152624f323360e81b6044820152606401610998565b436000908152601760209081526040808320338452909152812080548a929061328e9084906154d3565b909155506000905080806132a5898c8c8b8b61111c565b9194509250905060056132b88a8d6154ff565b6132c291906154ff565b6132d0846301e133806154ff565b6132db9060646154ff565b1161330d5760405162461bcd60e51b8152602060048201526002602482015261279960f11b6044820152606401610998565b6010546040516323b872dd60e01b8152336004820152306024820152604481018590526000916001600160a01b0316906323b872dd90606401602060405180830381600087803b15801561336057600080fd5b505af1158015613374573d6000803e3d6000fd5b505050506040513d601f19601f820116820180604052508101906133989190614e89565b9050806133cc5760405162461bcd60e51b81526020600482015260026024820152614f3360f01b6044820152606401610998565b6001891515811480156133e157506001891515145b806133f35750891580156133f3575088155b156133fc575060025b6040805160e0810190915260009080600181526020018e81526020018f81526020018f81526020018581526020018d4261343691906154d3565b815260200183600281111561345b57634e487b7160e01b600052602160045260246000fd5b90529050613467612d39565b6040805180820182528d151581528c15156020808301918252600085815260159091529290922090518154925161ffff1990931690151561ff001916176101009215159290920291909117905596506134c08782612e7d565b6134de87336134d98a85602001518660a0015188613bed565b613d2b565b6134e88789613d4e565b60006134f4868b613d58565b90506135098883606001518460800151612f35565b336001600160a01b0316887f89f823a0225c73a75066e963ce2eea7708b57680ec86102773dbd244f5412892838a8d6040516135479392919061549e565b60405180910390a350505050505050979650505050505050565b6000610853825490565b6135768484846124de565b61358284848484614219565b6110155760405162461bcd60e51b8152600401610998906152e4565b6135a733611c5e565b6135d85760405162461bcd60e51b81526020600482015260026024820152614e3560f01b6044820152606401610998565b8082141561360d5760405162461bcd60e51b8152602060048201526002602482015261271b60f11b6044820152606401610998565b61361681610b14565b61361f83610b14565b1461363c5760405162461bcd60e51b815260040161099890615353565b60006136478361101b565b90506136528261101b565b6001600160a01b0316816001600160a01b0316146136975760405162461bcd60e51b815260206004820152600260248201526109c760f31b6044820152606401610998565b6000838152600f6020526040808220548483529120546136b790826154d3565b6000848152600f60205260409020556136cf8461288d565b8284836001600160a01b03167fb3ce851d16b3bbec3774d5631a3893dfa2a80e067cfad265dd594402ac3d60968460405161370c91815260200190565b60405180910390a450505050565b606061372582612389565b61378b5760405162461bcd60e51b815260206004820152603160248201527f45524337323155524953746f726167653a2055524920717565727920666f72206044820152703737b732bc34b9ba32b73a103a37b5b2b760791b6064820152608401610998565b600082815260096020526040812080546137a490615578565b80601f01602080910402602001604051908101604052809291908181526020018280546137d090615578565b801561381d5780601f106137f25761010080835404028352916020019161381d565b820191906000526020600020905b81548152906001019060200180831161380057829003601f168201915b50505050509050600061382e614326565b9050805160001415613841575092915050565b81511561387357808260405160200161385b929190615121565b60405160208183030381529060405292505050919050565b6124d684614346565b6000611f298383614410565b60006001600160e01b031982166380ac58cd60e01b14806138b957506001600160e01b03198216635b5e139f60e01b145b8061085357506301ffc9a760e01b6001600160e01b0319831614610853565b6001600160a01b03831615610ac957610ac981614448565b606060006138ff8360026154ff565b61390a9060026154d3565b6001600160401b0381111561392f57634e487b7160e01b600052604160045260246000fd5b6040519080825280601f01601f191660200182016040528015613959576020820181803683370190505b509050600360fc1b8160008151811061398257634e487b7160e01b600052603260045260246000fd5b60200101906001600160f81b031916908160001a905350600f60fb1b816001815181106139bf57634e487b7160e01b600052603260045260246000fd5b60200101906001600160f81b031916908160001a90535060006139e38460026154ff565b6139ee9060016154d3565b90505b6001811115613a82576f181899199a1a9b1b9c1cb0b131b232b360811b85600f1660108110613a3057634e487b7160e01b600052603260045260246000fd5b1a60f81b828281518110613a5457634e487b7160e01b600052603260045260246000fd5b60200101906001600160f81b031916908160001a90535060049490941c93613a7b81615561565b90506139f1565b508315611f295760405162461bcd60e51b815260206004820181905260248201527f537472696e67733a20686578206c656e67746820696e73756666696369656e746044820152606401610998565b6000613adc8261101b565b90506000613ae983610b14565b6000848152600f6020908152604080832054848452600c90925290912091925090613b1490856144fc565b506000848152600f6020526040812055613b2d84614508565b8360006001600160a01b0316846001600160a01b03166000805160206156b083398151915260008560405161370c9291906152a7565b613b6c83612389565b613b9457613b7a848461459d565b6000828152600c60205260409020613b9290846146c9565b505b6000838152600f6020526040902054613bae9082906154d3565b6000848152600f60205260408082209290925590516001600160a01b0386169082906000805160206156b08339815191529061370c90889087906152a7565b600083838387604051602001613c069493929190615474565b60408051808303601f1901815291815281516020928301206000818152601a909352912060020154909150610100900460ff1615613c6c5760405162461bcd60e51b8152602060048201526003602482015262138c4d60ea1b6044820152606401610998565b6040518060800160405280858152602001848152602001836002811115613ca357634e487b7160e01b600052602160045260246000fd5b8152600160209182018190526000848152601a8352604090819020845181559284015183830155830151600280840180549293909260ff1916918490811115613cfc57634e487b7160e01b600052602160045260246000fd5b021790555060609190910151600290910180549115156101000261ff0019909216919091179055949350505050565b6000838152600a60205260409020819055600d54610ac990839085908490613b63565b610bbd82826146d5565b60006064601960009054906101000a90046001600160a01b03166001600160a01b031663ca535c3b6040518163ffffffff1660e01b815260040160206040518083038186803b158015613daa57600080fd5b505afa158015613dbe573d6000803e3d6000fd5b505050506040513d601f19601f82011682018060405250810190613de29190614f19565b613dec90856154ff565b613df691906154eb565b90508015613ef75760105460195460408051630605cc7760e21b815290516001600160a01b039384169363a9059cbb93169163181731dc916004808301926020929190829003018186803b158015613e4d57600080fd5b505afa158015613e61573d6000803e3d6000fd5b505050506040513d601f19601f82011682018060405250810190613e859190614bd0565b836040518363ffffffff1660e01b8152600401613ea39291906151fc565b602060405180830381600087803b158015613ebd57600080fd5b505af1158015613ed1573d6000803e3d6000fd5b505050506040513d601f19601f82011682018060405250810190613ef59190614e89565b505b6000613f03828561551e565b905080156142125760195460408051634905129f60e11b815290516000926001600160a01b03169163920a253e916004808301926020929190829003018186803b158015613f5057600080fd5b505afa158015613f64573d6000803e3d6000fd5b505050506040513d601f19601f82011682018060405250810190613f889190614f19565b118015613fae5750613f986117e9565b6001600160a01b0316836001600160a01b031614155b8015613fc357506001600160a01b0383163314155b1561413d5760006064601960009054906101000a90046001600160a01b03166001600160a01b031663920a253e6040518163ffffffff1660e01b815260040160206040518083038186803b15801561401a57600080fd5b505afa15801561402e573d6000803e3d6000fd5b505050506040513d601f19601f820116820180604052508101906140529190614f19565b61405c90846154ff565b61406691906154eb565b9050614072818361551e565b60105460405163a9059cbb60e01b81529193506001600160a01b03169063a9059cbb906140a590879085906004016151fc565b602060405180830381600087803b1580156140bf57600080fd5b505af11580156140d3573d6000803e3d6000fd5b505050506040513d601f19601f820116820180604052508101906140f79190614e89565b50836001600160a01b03167f2fc41b7d7df3272c17d9b581fcf235307bc027599c6ed68442c4100bd3a841988260405161413391815260200190565b60405180910390a2505b6010546001600160a01b031663a9059cbb6141566117e9565b836040518363ffffffff1660e01b81526004016141749291906151fc565b602060405180830381600087803b15801561418e57600080fd5b505af11580156141a2573d6000803e3d6000fd5b505050506040513d601f19601f820116820180604052508101906141c69190614e89565b506141cf6117e9565b6001600160a01b03167ff0f0487d8990103573e0e5cf4e87e101e2a1ba84c733c556b7a5807e570e5d4c8260405161420991815260200190565b60405180910390a25b5092915050565b60006001600160a01b0384163b1561431b57604051630a85bd0160e11b81526001600160a01b0385169063150b7a029061425d9033908990889088906004016151bf565b602060405180830381600087803b15801561427757600080fd5b505af19250505080156142a7575060408051601f3d908101601f191682019092526142a491810190614efd565b60015b614301573d8080156142d5576040519150601f19603f3d011682016040523d82523d6000602084013e6142da565b606091505b5080516142f95760405162461bcd60e51b8152600401610998906152e4565b805181602001fd5b6001600160e01b031916630a85bd0160e11b1490506124d6565b506001949350505050565b606060405180606001604052806022815260200161566e60229139905090565b606061435182612389565b6143b55760405162461bcd60e51b815260206004820152602f60248201527f4552433732314d657461646174613a2055524920717565727920666f72206e6f60448201526e3732bc34b9ba32b73a103a37b5b2b760891b6064820152608401610998565b60006143bf614326565b905060008151116143df5760405180602001604052806000815250611f29565b806143e984614760565b6040516020016143fa929190615121565b6040516020818303038152906040529392505050565b600082600001828154811061443557634e487b7160e01b600052603260045260246000fd5b9060005260206000200154905092915050565b6000818152600b60205260408120905b8154811015610ac95781600101600083600001838154811061448a57634e487b7160e01b600052603260045260246000fd5b60009182526020808320909101546001600160a01b0316835282019290925260400181205581548290829081106144d157634e487b7160e01b600052603260045260246000fd5b600091825260209091200180546001600160a01b0319169055806144f4816155ad565b915050614458565b6000611f298383614879565b60006145138261101b565b9050614521816000846138d8565b61452c6000836123a6565b6001600160a01b038116600090815260036020526040812080546001929061455590849061551e565b909155505060008281526002602052604080822080546001600160a01b0319169055518391906001600160a01b03841690600080516020615690833981519152908390a45050565b6001600160a01b0382166145f35760405162461bcd60e51b815260206004820181905260248201527f4552433732313a206d696e7420746f20746865207a65726f20616464726573736044820152606401610998565b6145fc81612389565b156146485760405162461bcd60e51b815260206004820152601c60248201527b115490cdcc8c4e881d1bdad95b88185b1c9958591e481b5a5b9d195960221b6044820152606401610998565b614654600083836138d8565b6001600160a01b038216600090815260036020526040812080546001929061467d9084906154d3565b909155505060008181526002602052604080822080546001600160a01b0319166001600160a01b0386169081179091559051839290600080516020615690833981519152908290a45050565b6000611f298383614996565b6146de82612389565b6147415760405162461bcd60e51b815260206004820152602e60248201527f45524337323155524953746f726167653a2055524920736574206f66206e6f6e60448201526d32bc34b9ba32b73a103a37b5b2b760911b6064820152608401610998565b60008281526009602090815260409091208251610ac992840190614a41565b6060816147845750506040805180820190915260018152600360fc1b602082015290565b8160005b81156147ae5780614798816155ad565b91506147a79050600a836154eb565b9150614788565b6000816001600160401b038111156147d657634e487b7160e01b600052604160045260246000fd5b6040519080825280601f01601f191660200182016040528015614800576020820181803683370190505b5090505b84156124d65761481560018361551e565b9150614822600a866155c8565b61482d9060306154d3565b60f81b81838151811061485057634e487b7160e01b600052603260045260246000fd5b60200101906001600160f81b031916908160001a905350614872600a866154eb565b9450614804565b6000818152600183016020526040812054801561498c57600061489d60018361551e565b85549091506000906148b19060019061551e565b90508181146149325760008660000182815481106148df57634e487b7160e01b600052603260045260246000fd5b906000526020600020015490508087600001848154811061491057634e487b7160e01b600052603260045260246000fd5b6000918252602080832090910192909255918252600188019052604090208390555b855486908061495157634e487b7160e01b600052603160045260246000fd5b600190038181906000526020600020016000905590558560010160008681526020019081526020016000206000905560019350505050610853565b6000915050610853565b60008181526001830160205260408120546149dd57508154600181810184556000848152602080822090930184905584548482528286019093526040902091909155610853565b506000610853565b6040805160e081019091528060008152602001600081526020016000815260200160008152602001600081526020016000815260200160006002811115614a3c57634e487b7160e01b600052602160045260246000fd5b905290565b828054614a4d90615578565b90600052602060002090601f016020900481019282614a6f5760008555614ab5565b82601f10614a8857805160ff1916838001178555614ab5565b82800160010185558215614ab5579182015b82811115614ab5578251825591602001919060010190614a9a565b50614ac1929150614ac5565b5090565b5b80821115614ac15760008155600101614ac6565b60006001600160401b0380841115614af457614af461561e565b604051601f8501601f19908116603f01168101908282118183101715614b1c57614b1c61561e565b81604052809350858152868686011115614b3557600080fd5b858560208301376000602087830101525050509392505050565b60008083601f840112614b60578182fd5b5081356001600160401b03811115614b76578182fd5b6020830191508360208260051b8501011115614b9157600080fd5b9250929050565b80516001600160501b0381168114614baf57600080fd5b919050565b600060208284031215614bc5578081fd5b8135611f2981615634565b600060208284031215614be1578081fd5b8151611f2981615634565b60008060408385031215614bfe578081fd5b8235614c0981615634565b91506020830135614c1981615634565b809150509250929050565b600080600060608486031215614c38578081fd5b8335614c4381615634565b92506020840135614c5381615634565b929592945050506040919091013590565b60008060008060808587031215614c79578081fd5b8435614c8481615634565b93506020850135614c9481615634565b92506040850135915060608501356001600160401b03811115614cb5578182fd5b8501601f81018713614cc5578182fd5b614cd487823560208401614ada565b91505092959194509250565b60008060008060808587031215614cf5578384fd5b8435614d0081615634565b93506020850135614d1081615634565b93969395505050506040820135916060013590565b600080600080600060a08688031215614d3c578081fd5b8535614d4781615634565b94506020860135614d5781615634565b94979496505050506040830135926060810135926080909101359150565b60008060408385031215614d87578182fd5b8235614d9281615634565b91506020830135614c1981615649565b60008060408385031215614db4578182fd5b8235614dbf81615634565b946020939093013593505050565b600080600060608486031215614de1578081fd5b8335614dec81615634565b95602085013595506040909401359392505050565b60008060208385031215614e13578182fd5b82356001600160401b03811115614e28578283fd5b614e3485828601614b4f565b90969095509350505050565b600080600060408486031215614e54578081fd5b83356001600160401b03811115614e69578182fd5b614e7586828701614b4f565b909790965060209590950135949350505050565b600060208284031215614e9a578081fd5b8151611f2981615649565b600060208284031215614eb6578081fd5b5035919050565b60008060408385031215614ecf578182fd5b823591506020830135614c1981615634565b600060208284031215614ef2578081fd5b8135611f2981615657565b600060208284031215614f0e578081fd5b8151611f2981615657565b600060208284031215614f2a578081fd5b5051919050565b600080600060408486031215614f45578081fd5b8335925060208401356001600160401b03811115614f61578182fd5b614f6d86828701614b4f565b9497909650939450505050565b60008060408385031215614f8c578182fd5b50508035926020909101359150565b600080600080600060a08688031215614fb2578283fd5b8535945060208601359350604086013592506060860135614fd281615649565b91506080860135614fe281615649565b809150509295509295909350565b600080600080600080600060e0888a03121561500a578485fd5b873596506020880135955060408801359450606088013561502a81615649565b9350608088013561503a81615649565b925060a088013561504a81615634565b915060c08801356001600160401b03811115615064578182fd5b8801601f81018a13615074578182fd5b6150838a823560208401614ada565b91505092959891949750929550565b600080600080600060a086880312156150a9578283fd5b6150b286614b98565b94506020860151935060408601519250606086015191506150d560808701614b98565b90509295509295909350565b600081518084526150f9816020860160208601615535565b601f01601f19169290920160200192915050565b6003811061511d5761511d615608565b9052565b60008351615133818460208801615535565b835190830190615147818360208801615535565b01949350505050565b76020b1b1b2b9b9a1b7b73a3937b61d1030b1b1b7bab73a1604d1b815260008351615182816017850160208801615535565b7001034b99036b4b9b9b4b733903937b6329607d1b60179184019182015283516151b3816028840160208801615535565b01602801949350505050565b6001600160a01b03858116825284166020820152604081018390526080606082018190526000906151f2908301846150e1565b9695505050505050565b6001600160a01b03929092168252602082015260400190565b6020808252825182820181905260009190848201906040850190845b8181101561524d57835183529284019291840191600101615231565b50909695505050505050565b60e081016004891061526d5761526d615608565b8882528760208301528660408301528560608301528460808301528360a083015261529b60c083018461510d565b98975050505050505050565b918252602082015260400190565b602081526000611f2960208301846150e1565b6020808252600290820152614f3960f01b604082015260600190565b60208082526032908201527f4552433732313a207472616e7366657220746f206e6f6e20455243373231526560408201527131b2b4bb32b91034b6b83632b6b2b73a32b960711b606082015260800190565b60208082526003908201526204f32360ec1b604082015260600190565b6020808252600290820152614e3760f01b604082015260600190565b6020808252818101527f4f776e61626c653a2063616c6c6572206973206e6f7420746865206f776e6572604082015260600190565b60208082526031908201527f4552433732313a207472616e736665722063616c6c6572206973206e6f74206f6040820152701ddb995c881b9bdc88185c1c1c9bdd9959607a1b606082015260800190565b6020808252601f908201527f5265656e7472616e637947756172643a207265656e7472616e742063616c6c00604082015260600190565b60208082526002908201526113cd60f21b604082015260600190565b8481526020810184905260808101615463604083018561510d565b821515606083015295945050505050565b848152602081018490526080810161548f604083018561510d565b82606083015295945050505050565b838152826020820152606060408201526000612aea60608301846150e1565b9283526020830191909152604082015260600190565b600082198211156154e6576154e66155dc565b500190565b6000826154fa576154fa6155f2565b500490565b6000816000190483118215151615615519576155196155dc565b500290565b600082821015615530576155306155dc565b500390565b60005b83811015615550578181015183820152602001615538565b838111156110155750506000910152565b600081615570576155706155dc565b506000190190565b600181811c9082168061558c57607f821691505b6020821081141561092a57634e487b7160e01b600052602260045260246000fd5b60006000198214156155c1576155c16155dc565b5060010190565b6000826155d7576155d76155f2565b500690565b634e487b7160e01b600052601160045260246000fd5b634e487b7160e01b600052601260045260246000fd5b634e487b7160e01b600052602160045260246000fd5b634e487b7160e01b600052604160045260246000fd5b6001600160a01b0381168114610c6257600080fd5b8015158114610c6257600080fd5b6001600160e01b031981168114610c6257600080fdfe68747470733a2f2f676174657761792e70696e6174612e636c6f75642f697066732fddf252ad1be2c89b69c2b068fc378daa952ba7f163c4a11628f55a4df523b3ef823a343d1c899e61a4db12247636a6882bf1fefae78bef39170f8d0f5b53e456a264697066735822122049b87154db8ae754f40b84eef84575660566ffff5f0fc5dc97b2406dcb2e02f864736f6c63430008040033","language":"Solidity","natspec":{"methods":{"approve(address,uint256)":{"details":"See {IERC721-approve}."},"balanceOf(address)":{"details":"See {IERC721-balanceOf}."},"create(uint256,uint256,uint256,bool,bool,address,string)":{"notice":"Creates a new option","params":{"amount":"Option amount in tokenX","referrer":"Referrer address"},"returns":{"optionID":"Created option's ID"}},"exercise(uint256)":{"notice":"Exercises an option if it was ITM at the time of expiry","params":{"optionID":"ID of your option"},"returns":{"profit":"Profit sent to the user"}},"fees(uint256,uint256,uint256,bool,bool)":{"notice":"Used for getting the option's price using blackscholes","params":{"amount":"Option amount","isAbove":"whether the price will stay above this strike or not","isYes":"whether the option isAbove or not","period":"Option period in seconds","strike":"Strike price of the option"},"returns":{"premium":"Amount that covers the price difference in the ITM options","settlementFee":"Amount to be distributed to the Buffer token holders","total":"Total price to be paid"}},"getApproved(uint256)":{"details":"See {IERC721-getApproved}."},"getRoleAdmin(bytes32)":{"details":"Returns the admin role that controls `role`. See {grantRole} and {revokeRole}. To change a role's admin, use {_setRoleAdmin}."},"grantRole(bytes32,address)":{"details":"Grants `role` to `account`. If `account` had not been already granted `role`, emits a {RoleGranted} event. Requirements: - the caller must have ``role``'s admin role."},"hasRole(bytes32,address)":{"details":"Returns `true` if `account` has been granted `role`."},"isApprovedForAll(address,address)":{"details":"See {IERC721-isApprovedForAll}."},"merge(uint256[],uint256)":{"notice":"Merges the options","params":{"optionIDs":"An array of the optionsIds to be merged","targetOptionID":"OptionId to be merged into"}},"name()":{"details":"See {IERC721Metadata-name}."},"owner()":{"details":"Returns the address of the current owner."},"ownerOf(uint256)":{"details":"See {IERC721-ownerOf}."},"quickCreate(uint256,uint256,uint256,bool,bool,address,string)":{"notice":"Creates a new option","params":{"amount":"Option amount in tokenX","referrer":"Referrer address"},"returns":{"optionID":"Created option's ID"}},"renounceOwnership()":{"details":"Leaves the contract without owner. It will not be possible to call `onlyOwner` functions anymore. Can only be called by the current owner. NOTE: Renouncing ownership will leave the contract without an owner, thereby removing any functionality that is only available to the owner."},"renounceRole(bytes32,address)":{"details":"Revokes `role` from the calling account. Roles are often managed via {grantRole} and {revokeRole}: this function's purpose is to provide a mechanism for accounts to lose their privileges if they are compromised (such as when a trusted device is misplaced). If the calling account had been granted `role`, emits a {RoleRevoked} event. Requirements: - the caller must be `account`."},"revokeRole(bytes32,address)":{"details":"Revokes `role` from `account`. If `account` had been granted `role`, emits a {RoleRevoked} event. Requirements: - the caller must have ``role``'s admin role."},"safeTransferFrom(address,address,uint256)":{"details":"See {IERC721-safeTransferFrom}."},"safeTransferFrom(address,address,uint256,bytes)":{"details":"See {IERC721-safeTransferFrom}."},"setApprovalForAll(address,bool)":{"details":"See {IERC721-setApprovalForAll}."},"setRoundIDForExpiry(uint256,uint256)":{"notice":"Sets the expiry price in the oracle","details":"a roundId must be provided to confirm price validity, which is the first Chainlink price provided after the expiryTimestamp","params":{"roundId":"the first roundId after expiryTimestamp"}},"split(uint256,uint256[])":{"notice":"Splits the option","params":{"optionID":"OptionId to be splitted","splitUnits_":"Units to be splitted into"},"returns":{"newOptionIDs":"An array of the splitted options"}},"symbol()":{"details":"See {IERC721Metadata-symbol}."},"tokenURI(uint256)":{"details":"Template code provided by OpenZepplin Code Wizard"},"transferFrom(address,address,uint256)":{"details":"See {IERC721-transferFrom}."},"transferFrom(address,address,uint256,uint256)":{"notice":"Transfer part of units of a option to target address.","params":{"from_":"Address of the option sender","optionID":"Id of the option to transfer","to_":"Address of the option recipient","transferUnits_":"Amount of units to transfer"}},"transferFrom(address,address,uint256,uint256,uint256)":{"notice":"Transfer part of units of a option to another option.","params":{"from_":"Address of the option sender","optionID":"Id of the option to transfer","targetOptionID":"Id of the option to receive","to_":"Address of the option recipient","transferUnits_":"Amount of units to transfer"}},"transferOwnership(address)":{"details":"Transfers ownership of the contract to a new account (`newOwner`). Can only be called by the current owner."},"unlock(uint256)":{"notice":"Unlocks the locked funds if the option was OTM at the time of expiry otherwise exercises it","params":{"optionID":"ID of the option"}},"unlockAll(uint256[])":{"notice":"Unlocks an array of options","params":{"optionIDs":"array of options"}},"approvePoolToTransferTokenX()":{"notice":"Call this to set the max approval for tokenX transfers from the options to pool"}},"kind":"dev","notice":"Buffer TokenX Options Contract","version":1,"author":"Heisenberg","title":"Buffer TokenX Bidirectional (Call and Put) Options"},"opcodes":"PUSH1 0x80 PUSH1 0x40 MSTORE CALLVALUE DUP1 ISZERO PUSH2 0x10 JUMPI PUSH1 0x0 DUP1 REVERT JUMPDEST POP PUSH1 0x4 CALLDATASIZE LT PUSH2 0x2A9 JUMPI PUSH1 0x0 CALLDATALOAD PUSH1 0xE0 SHR DUP1 PUSH4 0x1FFC9A7 EQ PUSH2 0x2AE JUMPI DUP1 PUSH4 0x5271A2A EQ PUSH2 0x2D6 JUMPI DUP1 PUSH4 0x6517A29 EQ PUSH2 0x2EB JUMPI DUP1 PUSH4 0x6FDDE03 EQ PUSH2 0x302 JUMPI DUP1 PUSH4 0x76D948C EQ PUSH2 0x317 JUMPI DUP1 PUSH4 0x81812FC EQ PUSH2 0x32A JUMPI DUP1 PUSH4 0x95EA7B3 EQ PUSH2 0x355 JUMPI DUP1 PUSH4 0x16DC165B EQ PUSH2 0x36A JUMPI DUP1 PUSH4 0x16F0115B EQ PUSH2 0x37D JUMPI DUP1 PUSH4 0x23B872DD EQ PUSH2 0x390 JUMPI DUP1 PUSH4 0x248A9CA3 EQ PUSH2 0x3A3 JUMPI DUP1 PUSH4 0x263F3E7E EQ PUSH2 0x3B6 JUMPI DUP1 PUSH4 0x2F2FF15D EQ PUSH2 0x3C9 JUMPI DUP1 PUSH4 0x34C01793 EQ PUSH2 0x3DC JUMPI DUP1 PUSH4 0x36568ABE EQ PUSH2 0x407 JUMPI DUP1 PUSH4 0x409E2205 EQ PUSH2 0x41A JUMPI DUP1 PUSH4 0x426A8493 EQ PUSH2 0x47D JUMPI DUP1 PUSH4 0x42842E0E EQ PUSH2 0x490 JUMPI DUP1 PUSH4 0x42966C68 EQ PUSH2 0x4A3 JUMPI DUP1 PUSH4 0x4AED53C2 EQ PUSH2 0x4B6 JUMPI DUP1 PUSH4 0x4F558E79 EQ PUSH2 0x4C9 JUMPI DUP1 PUSH4 0x6198E339 EQ PUSH2 0x4DC JUMPI DUP1 PUSH4 0x6352211E EQ PUSH2 0x4EF JUMPI DUP1 PUSH4 0x645734E6 EQ PUSH2 0x502 JUMPI DUP1 PUSH4 0x67807F7D EQ PUSH2 0x50A JUMPI DUP1 PUSH4 0x689AB5AC EQ PUSH2 0x52C JUMPI DUP1 PUSH4 0x69C67247 EQ PUSH2 0x56F JUMPI DUP1 PUSH4 0x70A08231 EQ PUSH2 0x58F JUMPI DUP1 PUSH4 0x715018A6 EQ PUSH2 0x5A2 JUMPI DUP1 PUSH4 0x75794A3C EQ PUSH2 0x5AA JUMPI DUP1 PUSH4 0x78C533CE EQ PUSH2 0x5B3 JUMPI DUP1 PUSH4 0x79502C55 EQ PUSH2 0x5D3 JUMPI DUP1 PUSH4 0x841EDC0E EQ PUSH2 0x5E6 JUMPI DUP1 PUSH4 0x8A584118 EQ PUSH2 0x606 JUMPI DUP1 PUSH4 0x8DA5CB5B EQ PUSH2 0x651 JUMPI DUP1 PUSH4 0x8DDAA267 EQ PUSH2 0x659 JUMPI DUP1 PUSH4 0x91D14854 EQ PUSH2 0x66C JUMPI DUP1 PUSH4 0x95D89B41 EQ PUSH2 0x67F JUMPI DUP1 PUSH4 0xA217FDDF EQ PUSH2 0x687 JUMPI DUP1 PUSH4 0xA22CB465 EQ PUSH2 0x68F JUMPI DUP1 PUSH4 0xA6D14C02 EQ PUSH2 0x6A2 JUMPI DUP1 PUSH4 0xA8800425 EQ PUSH2 0x6AA JUMPI DUP1 PUSH4 0xB07F0A41 EQ PUSH2 0x6BD JUMPI DUP1 PUSH4 0xB888879E EQ PUSH2 0x6D0 JUMPI DUP1 PUSH4 0xB88D4FDE EQ PUSH2 0x6E3 JUMPI DUP1 PUSH4 0xBBE33EA5 EQ PUSH2 0x6F6 JUMPI DUP1 PUSH4 0xBECEF607 EQ PUSH2 0x709 JUMPI DUP1 PUSH4 0xC0D720BB EQ PUSH2 0x71C JUMPI DUP1 PUSH4 0xC87B56DD EQ PUSH2 0x72F JUMPI DUP1 PUSH4 0xD149CC30 EQ PUSH2 0x742 JUMPI DUP1 PUSH4 0xD547741F EQ PUSH2 0x755 JUMPI DUP1 PUSH4 0xD5A0E673 EQ PUSH2 0x768 JUMPI DUP1 PUSH4 0xD67A6B70 EQ PUSH2 0x788 JUMPI DUP1 PUSH4 0xDBA34E97 EQ PUSH2 0x79B JUMPI DUP1 PUSH4 0xE342B598 EQ PUSH2 0x7C2 JUMPI DUP1 PUSH4 0xE345E0BC EQ PUSH2 0x7D5 JUMPI DUP1 PUSH4 0xE985E9C5 EQ PUSH2 0x80F JUMPI DUP1 PUSH4 0xF2FDE38B EQ PUSH2 0x822 JUMPI DUP1 PUSH4 0xFE99049A EQ PUSH2 0x835 JUMPI JUMPDEST PUSH1 0x0 DUP1 REVERT JUMPDEST PUSH2 0x2C1 PUSH2 0x2BC CALLDATASIZE PUSH1 0x4 PUSH2 0x4EE1 JUMP JUMPDEST PUSH2 0x848 JUMP JUMPDEST PUSH1 0x40 MLOAD SWAP1 ISZERO ISZERO DUP2 MSTORE PUSH1 0x20 ADD JUMPDEST PUSH1 0x40 MLOAD DUP1 SWAP2 SUB SWAP1 RETURN JUMPDEST PUSH1 0xE SLOAD PUSH1 0x40 MLOAD PUSH1 0xFF SWAP1 SWAP2 AND DUP2 MSTORE PUSH1 0x20 ADD PUSH2 0x2CD JUMP JUMPDEST PUSH2 0x2F4 PUSH1 0xD SLOAD DUP2 JUMP JUMPDEST PUSH1 0x40 MLOAD SWAP1 DUP2 MSTORE PUSH1 0x20 ADD PUSH2 0x2CD JUMP JUMPDEST PUSH2 0x30A PUSH2 0x859 JUMP JUMPDEST PUSH1 0x40 MLOAD PUSH2 0x2CD SWAP2 SWAP1 PUSH2 0x52B5 JUMP JUMPDEST PUSH2 0x2F4 PUSH2 0x325 CALLDATASIZE PUSH1 0x4 PUSH2 0x4EA5 JUMP JUMPDEST PUSH2 0x8EB JUMP JUMPDEST PUSH2 0x33D PUSH2 0x338 CALLDATASIZE PUSH1 0x4 PUSH2 0x4EA5 JUMP JUMPDEST PUSH2 0x930 JUMP JUMPDEST PUSH1 0x40 MLOAD PUSH1 0x1 PUSH1 0x1 PUSH1 0xA0 SHL SUB SWAP1 SWAP2 AND DUP2 MSTORE PUSH1 0x20 ADD PUSH2 0x2CD JUMP JUMPDEST PUSH2 0x368 PUSH2 0x363 CALLDATASIZE PUSH1 0x4 PUSH2 0x4DA2 JUMP JUMPDEST PUSH2 0x9BD JUMP JUMPDEST STOP JUMPDEST PUSH1 0x10 SLOAD PUSH2 0x33D SWAP1 PUSH1 0x1 PUSH1 0x1 PUSH1 0xA0 SHL SUB AND DUP2 JUMP JUMPDEST PUSH1 0x18 SLOAD PUSH2 0x33D SWAP1 PUSH1 0x1 PUSH1 0x1 PUSH1 0xA0 SHL SUB AND DUP2 JUMP JUMPDEST PUSH2 0x368 PUSH2 0x39E CALLDATASIZE PUSH1 0x4 PUSH2 0x4C24 JUMP JUMPDEST PUSH2 0xACE JUMP JUMPDEST PUSH2 0x2F4 PUSH2 0x3B1 CALLDATASIZE PUSH1 0x4 PUSH2 0x4EA5 JUMP JUMPDEST PUSH2 0xAFF JUMP JUMPDEST PUSH2 0x2F4 PUSH2 0x3C4 CALLDATASIZE PUSH1 0x4 PUSH2 0x4EA5 JUMP JUMPDEST PUSH2 0xB14 JUMP JUMPDEST PUSH2 0x368 PUSH2 0x3D7 CALLDATASIZE PUSH1 0x4 PUSH2 0x4EBD JUMP JUMPDEST PUSH2 0xB26 JUMP JUMPDEST PUSH2 0x2F4 PUSH2 0x3EA CALLDATASIZE PUSH1 0x4 PUSH2 0x4EBD JUMP JUMPDEST PUSH1 0x17 PUSH1 0x20 SWAP1 DUP2 MSTORE PUSH1 0x0 SWAP3 DUP4 MSTORE PUSH1 0x40 DUP1 DUP5 KECCAK256 SWAP1 SWAP2 MSTORE SWAP1 DUP3 MSTORE SWAP1 KECCAK256 SLOAD DUP2 JUMP JUMPDEST PUSH2 0x368 PUSH2 0x415 CALLDATASIZE PUSH1 0x4 PUSH2 0x4EBD JUMP JUMPDEST PUSH2 0xB43 JUMP JUMPDEST PUSH2 0x46A PUSH2 0x428 CALLDATASIZE PUSH1 0x4 PUSH2 0x4EA5 JUMP JUMPDEST PUSH1 0x14 PUSH1 0x20 MSTORE PUSH1 0x0 SWAP1 DUP2 MSTORE PUSH1 0x40 SWAP1 KECCAK256 DUP1 SLOAD PUSH1 0x1 DUP3 ADD SLOAD PUSH1 0x2 DUP4 ADD SLOAD PUSH1 0x3 DUP5 ADD SLOAD PUSH1 0x4 DUP6 ADD SLOAD PUSH1 0x5 DUP7 ADD SLOAD PUSH1 0x6 SWAP1 SWAP7 ADD SLOAD PUSH1 0xFF SWAP6 DUP7 AND SWAP7 SWAP5 SWAP6 SWAP4 SWAP5 SWAP3 SWAP4 SWAP2 SWAP3 SWAP2 AND DUP8 JUMP JUMPDEST PUSH1 0x40 MLOAD PUSH2 0x2CD SWAP8 SWAP7 SWAP6 SWAP5 SWAP4 SWAP3 SWAP2 SWAP1 PUSH2 0x5259 JUMP JUMPDEST PUSH2 0x368 PUSH2 0x48B CALLDATASIZE PUSH1 0x4 PUSH2 0x4DCD JUMP JUMPDEST PUSH2 0xBC1 JUMP JUMPDEST PUSH2 0x368 PUSH2 0x49E CALLDATASIZE PUSH1 0x4 PUSH2 0x4C24 JUMP JUMPDEST PUSH2 0xC05 JUMP JUMPDEST PUSH2 0x368 PUSH2 0x4B1 CALLDATASIZE PUSH1 0x4 PUSH2 0x4EA5 JUMP JUMPDEST PUSH2 0xC20 JUMP JUMPDEST PUSH2 0x368 PUSH2 0x4C4 CALLDATASIZE PUSH1 0x4 PUSH2 0x4D25 JUMP JUMPDEST PUSH2 0xC65 JUMP JUMPDEST PUSH2 0x2C1 PUSH2 0x4D7 CALLDATASIZE PUSH1 0x4 PUSH2 0x4EA5 JUMP JUMPDEST PUSH2 0xD87 JUMP JUMPDEST PUSH2 0x368 PUSH2 0x4EA CALLDATASIZE PUSH1 0x4 PUSH2 0x4EA5 JUMP JUMPDEST PUSH2 0xD92 JUMP JUMPDEST PUSH2 0x33D PUSH2 0x4FD CALLDATASIZE PUSH1 0x4 PUSH2 0x4EA5 JUMP JUMPDEST PUSH2 0x101B JUMP JUMPDEST PUSH2 0x368 PUSH2 0x1092 JUMP JUMPDEST PUSH2 0x51D PUSH2 0x518 CALLDATASIZE PUSH1 0x4 PUSH2 0x4F9B JUMP JUMPDEST PUSH2 0x111C JUMP JUMPDEST PUSH1 0x40 MLOAD PUSH2 0x2CD SWAP4 SWAP3 SWAP2 SWAP1 PUSH2 0x54BD JUMP JUMPDEST PUSH2 0x558 PUSH2 0x53A CALLDATASIZE PUSH1 0x4 PUSH2 0x4EA5 JUMP JUMPDEST PUSH1 0x15 PUSH1 0x20 MSTORE PUSH1 0x0 SWAP1 DUP2 MSTORE PUSH1 0x40 SWAP1 KECCAK256 SLOAD PUSH1 0xFF DUP1 DUP3 AND SWAP2 PUSH2 0x100 SWAP1 DIV AND DUP3 JUMP JUMPDEST PUSH1 0x40 DUP1 MLOAD SWAP3 ISZERO ISZERO DUP4 MSTORE SWAP1 ISZERO ISZERO PUSH1 0x20 DUP4 ADD MSTORE ADD PUSH2 0x2CD JUMP JUMPDEST PUSH2 0x582 PUSH2 0x57D CALLDATASIZE PUSH1 0x4 PUSH2 0x4F31 JUMP JUMPDEST PUSH2 0x1335 JUMP JUMPDEST PUSH1 0x40 MLOAD PUSH2 0x2CD SWAP2 SWAP1 PUSH2 0x5215 JUMP JUMPDEST PUSH2 0x2F4 PUSH2 0x59D CALLDATASIZE PUSH1 0x4 PUSH2 0x4BB4 JUMP JUMPDEST PUSH2 0x1727 JUMP JUMPDEST PUSH2 0x368 PUSH2 0x17AE JUMP JUMPDEST PUSH2 0x2F4 PUSH1 0x13 SLOAD DUP2 JUMP JUMPDEST PUSH2 0x2F4 PUSH2 0x5C1 CALLDATASIZE PUSH1 0x4 PUSH2 0x4EA5 JUMP JUMPDEST PUSH1 0xF PUSH1 0x20 MSTORE PUSH1 0x0 SWAP1 DUP2 MSTORE PUSH1 0x40 SWAP1 KECCAK256 SLOAD DUP2 JUMP JUMPDEST PUSH1 0x19 SLOAD PUSH2 0x33D SWAP1 PUSH1 0x1 PUSH1 0x1 PUSH1 0xA0 SHL SUB AND DUP2 JUMP JUMPDEST PUSH2 0x2F4 PUSH2 0x5F4 CALLDATASIZE PUSH1 0x4 PUSH2 0x4EA5 JUMP JUMPDEST PUSH1 0x16 PUSH1 0x20 MSTORE PUSH1 0x0 SWAP1 DUP2 MSTORE PUSH1 0x40 SWAP1 KECCAK256 SLOAD DUP2 JUMP JUMPDEST PUSH2 0x641 PUSH2 0x614 CALLDATASIZE PUSH1 0x4 PUSH2 0x4EA5 JUMP JUMPDEST PUSH1 0x1A PUSH1 0x20 MSTORE PUSH1 0x0 SWAP1 DUP2 MSTORE PUSH1 0x40 SWAP1 KECCAK256 DUP1 SLOAD PUSH1 0x1 DUP3 ADD SLOAD PUSH1 0x2 SWAP1 SWAP3 ADD SLOAD SWAP1 SWAP2 SWAP1 PUSH1 0xFF DUP1 DUP3 AND SWAP2 PUSH2 0x100 SWAP1 DIV AND DUP5 JUMP JUMPDEST PUSH1 0x40 MLOAD PUSH2 0x2CD SWAP5 SWAP4 SWAP3 SWAP2 SWAP1 PUSH2 0x5448 JUMP JUMPDEST PUSH2 0x33D PUSH2 0x17E9 JUMP JUMPDEST PUSH2 0x2F4 PUSH2 0x667 CALLDATASIZE PUSH1 0x4 PUSH2 0x4FF0 JUMP JUMPDEST PUSH2 0x17F8 JUMP JUMPDEST PUSH2 0x2C1 PUSH2 0x67A CALLDATASIZE PUSH1 0x4 PUSH2 0x4EBD JUMP JUMPDEST PUSH2 0x1842 JUMP JUMPDEST PUSH2 0x30A PUSH2 0x186D JUMP JUMPDEST PUSH2 0x2F4 PUSH1 0x0 DUP2 JUMP JUMPDEST PUSH2 0x368 PUSH2 0x69D CALLDATASIZE PUSH1 0x4 PUSH2 0x4D75 JUMP JUMPDEST PUSH2 0x187C JUMP JUMPDEST PUSH2 0x2F4 PUSH1 0x5 DUP2 JUMP JUMPDEST PUSH2 0x2F4 PUSH2 0x6B8 CALLDATASIZE PUSH1 0x4 PUSH2 0x4EA5 JUMP JUMPDEST PUSH2 0x193D JUMP JUMPDEST PUSH2 0x2F4 PUSH2 0x6CB CALLDATASIZE PUSH1 0x4 PUSH2 0x4EA5 JUMP JUMPDEST PUSH2 0x1954 JUMP JUMPDEST PUSH1 0x12 SLOAD PUSH2 0x33D SWAP1 PUSH1 0x1 PUSH1 0x1 PUSH1 0xA0 SHL SUB AND DUP2 JUMP JUMPDEST PUSH2 0x368 PUSH2 0x6F1 CALLDATASIZE PUSH1 0x4 PUSH2 0x4C64 JUMP JUMPDEST PUSH2 0x1C59 JUMP JUMPDEST PUSH2 0x368 PUSH2 0x704 CALLDATASIZE PUSH1 0x4 PUSH2 0x4E40 JUMP JUMPDEST PUSH2 0x1C8C JUMP JUMPDEST PUSH2 0x2F4 PUSH2 0x717 CALLDATASIZE PUSH1 0x4 PUSH2 0x4EA5 JUMP JUMPDEST PUSH2 0x1E9B JUMP JUMPDEST PUSH2 0x2F4 PUSH2 0x72A CALLDATASIZE PUSH1 0x4 PUSH2 0x4FF0 JUMP JUMPDEST PUSH2 0x1EAD JUMP JUMPDEST PUSH2 0x30A PUSH2 0x73D CALLDATASIZE PUSH1 0x4 PUSH2 0x4EA5 JUMP JUMPDEST PUSH2 0x1F06 JUMP JUMPDEST PUSH2 0x2F4 PUSH2 0x750 CALLDATASIZE PUSH1 0x4 PUSH2 0x4F7A JUMP JUMPDEST PUSH2 0x1F11 JUMP JUMPDEST PUSH2 0x368 PUSH2 0x763 CALLDATASIZE PUSH1 0x4 PUSH2 0x4EBD JUMP JUMPDEST PUSH2 0x1F30 JUMP JUMPDEST PUSH2 0x2F4 PUSH2 0x776 CALLDATASIZE PUSH1 0x4 PUSH2 0x4EA5 JUMP JUMPDEST PUSH1 0xA PUSH1 0x20 MSTORE PUSH1 0x0 SWAP1 DUP2 MSTORE PUSH1 0x40 SWAP1 KECCAK256 SLOAD DUP2 JUMP JUMPDEST PUSH2 0x2C1 PUSH2 0x796 CALLDATASIZE PUSH1 0x4 PUSH2 0x4F7A JUMP JUMPDEST PUSH2 0x1F4D JUMP JUMPDEST PUSH2 0x2F4 PUSH32 0xDEB3B49547F710C56A925B6E16E3557A50FAB4DD8F243BC314F3AFBA2054EC5B DUP2 JUMP JUMPDEST PUSH2 0x368 PUSH2 0x7D0 CALLDATASIZE PUSH1 0x4 PUSH2 0x4E01 JUMP JUMPDEST PUSH2 0x2175 JUMP JUMPDEST PUSH2 0x2F4 PUSH2 0x7E3 CALLDATASIZE PUSH1 0x4 PUSH2 0x4EBD JUMP JUMPDEST PUSH1 0x0 DUP3 DUP2 MSTORE PUSH1 0xB PUSH1 0x20 SWAP1 DUP2 MSTORE PUSH1 0x40 DUP1 DUP4 KECCAK256 PUSH1 0x1 PUSH1 0x1 PUSH1 0xA0 SHL SUB DUP6 AND DUP5 MSTORE PUSH1 0x1 ADD SWAP1 SWAP2 MSTORE SWAP1 KECCAK256 SLOAD SWAP3 SWAP2 POP POP JUMP JUMPDEST PUSH2 0x2C1 PUSH2 0x81D CALLDATASIZE PUSH1 0x4 PUSH2 0x4BEC JUMP JUMPDEST PUSH2 0x21C2 JUMP JUMPDEST PUSH2 0x368 PUSH2 0x830 CALLDATASIZE PUSH1 0x4 PUSH2 0x4BB4 JUMP JUMPDEST PUSH2 0x21F0 JUMP JUMPDEST PUSH2 0x2F4 PUSH2 0x843 CALLDATASIZE PUSH1 0x4 PUSH2 0x4CE0 JUMP JUMPDEST PUSH2 0x228D JUMP JUMPDEST PUSH1 0x0 PUSH2 0x853 DUP3 PUSH2 0x2364 JUMP JUMPDEST SWAP3 SWAP2 POP POP JUMP JUMPDEST PUSH1 0x60 PUSH1 0x0 DUP1 SLOAD PUSH2 0x868 SWAP1 PUSH2 0x5578 JUMP JUMPDEST DUP1 PUSH1 0x1F ADD PUSH1 0x20 DUP1 SWAP2 DIV MUL PUSH1 0x20 ADD PUSH1 0x40 MLOAD SWAP1 DUP2 ADD PUSH1 0x40 MSTORE DUP1 SWAP3 SWAP2 SWAP1 DUP2 DUP2 MSTORE PUSH1 0x20 ADD DUP3 DUP1 SLOAD PUSH2 0x894 SWAP1 PUSH2 0x5578 JUMP JUMPDEST DUP1 ISZERO PUSH2 0x8E1 JUMPI DUP1 PUSH1 0x1F LT PUSH2 0x8B6 JUMPI PUSH2 0x100 DUP1 DUP4 SLOAD DIV MUL DUP4 MSTORE SWAP2 PUSH1 0x20 ADD SWAP2 PUSH2 0x8E1 JUMP JUMPDEST DUP3 ADD SWAP2 SWAP1 PUSH1 0x0 MSTORE PUSH1 0x20 PUSH1 0x0 KECCAK256 SWAP1 JUMPDEST DUP2 SLOAD DUP2 MSTORE SWAP1 PUSH1 0x1 ADD SWAP1 PUSH1 0x20 ADD DUP1 DUP4 GT PUSH2 0x8C4 JUMPI DUP3 SWAP1 SUB PUSH1 0x1F AND DUP3 ADD SWAP2 JUMPDEST POP POP POP POP POP SWAP1 POP SWAP1 JUMP JUMPDEST PUSH1 0x0 DUP1 JUMPDEST PUSH2 0x8F8 DUP4 PUSH2 0x193D JUMP JUMPDEST DUP2 LT ISZERO PUSH2 0x92A JUMPI PUSH2 0x90C PUSH2 0x717 DUP5 DUP4 PUSH2 0x1F11 JUMP JUMPDEST PUSH2 0x916 SWAP1 DUP4 PUSH2 0x54D3 JUMP JUMPDEST SWAP2 POP DUP1 PUSH2 0x922 DUP2 PUSH2 0x55AD JUMP JUMPDEST SWAP2 POP POP PUSH2 0x8EF JUMP JUMPDEST POP SWAP2 SWAP1 POP JUMP JUMPDEST PUSH1 0x0 PUSH2 0x93B DUP3 PUSH2 0x2389 JUMP JUMPDEST PUSH2 0x9A1 JUMPI PUSH1 0x40 MLOAD PUSH3 0x461BCD PUSH1 0xE5 SHL DUP2 MSTORE PUSH1 0x20 PUSH1 0x4 DUP3 ADD MSTORE PUSH1 0x2C PUSH1 0x24 DUP3 ADD MSTORE PUSH32 0x4552433732313A20617070726F76656420717565727920666F72206E6F6E6578 PUSH1 0x44 DUP3 ADD MSTORE PUSH12 0x34B9BA32B73A103A37B5B2B7 PUSH1 0xA1 SHL PUSH1 0x64 DUP3 ADD MSTORE PUSH1 0x84 ADD JUMPDEST PUSH1 0x40 MLOAD DUP1 SWAP2 SUB SWAP1 REVERT JUMPDEST POP PUSH1 0x0 SWAP1 DUP2 MSTORE PUSH1 0x4 PUSH1 0x20 MSTORE PUSH1 0x40 SWAP1 KECCAK256 SLOAD PUSH1 0x1 PUSH1 0x1 PUSH1 0xA0 SHL SUB AND SWAP1 JUMP JUMPDEST PUSH1 0x0 PUSH2 0x9C8 DUP3 PUSH2 0x101B JUMP JUMPDEST SWAP1 POP DUP1 PUSH1 0x1 PUSH1 0x1 PUSH1 0xA0 SHL SUB AND DUP4 PUSH1 0x1 PUSH1 0x1 PUSH1 0xA0 SHL SUB AND EQ ISZERO PUSH2 0xA36 JUMPI PUSH1 0x40 MLOAD PUSH3 0x461BCD PUSH1 0xE5 SHL DUP2 MSTORE PUSH1 0x20 PUSH1 0x4 DUP3 ADD MSTORE PUSH1 0x21 PUSH1 0x24 DUP3 ADD MSTORE PUSH32 0x4552433732313A20617070726F76616C20746F2063757272656E74206F776E65 PUSH1 0x44 DUP3 ADD MSTORE PUSH1 0x39 PUSH1 0xF9 SHL PUSH1 0x64 DUP3 ADD MSTORE PUSH1 0x84 ADD PUSH2 0x998 JUMP JUMPDEST CALLER PUSH1 0x1 PUSH1 0x1 PUSH1 0xA0 SHL SUB DUP3 AND EQ DUP1 PUSH2 0xA52 JUMPI POP PUSH2 0xA52 DUP2 CALLER PUSH2 0x21C2 JUMP JUMPDEST PUSH2 0xABF JUMPI PUSH1 0x40 MLOAD PUSH3 0x461BCD PUSH1 0xE5 SHL DUP2 MSTORE PUSH1 0x20 PUSH1 0x4 DUP3 ADD MSTORE PUSH1 0x38 PUSH1 0x24 DUP3 ADD MSTORE PUSH32 0x4552433732313A20617070726F76652063616C6C6572206973206E6F74206F77 PUSH1 0x44 DUP3 ADD MSTORE PUSH24 0x1B995C881B9BDC88185C1C1C9BDD995908199BDC88185B1B PUSH1 0x42 SHL PUSH1 0x64 DUP3 ADD MSTORE PUSH1 0x84 ADD PUSH2 0x998 JUMP JUMPDEST PUSH2 0xAC9 DUP4 DUP4 PUSH2 0x23A6 JUMP JUMPDEST POP POP POP JUMP JUMPDEST PUSH2 0xAD8 CALLER DUP3 PUSH2 0x2414 JUMP JUMPDEST PUSH2 0xAF4 JUMPI PUSH1 0x40 MLOAD PUSH3 0x461BCD PUSH1 0xE5 SHL DUP2 MSTORE PUSH1 0x4 ADD PUSH2 0x998 SWAP1 PUSH2 0x53A4 JUMP JUMPDEST PUSH2 0xAC9 DUP4 DUP4 DUP4 PUSH2 0x24DE JUMP JUMPDEST PUSH1 0x0 SWAP1 DUP2 MSTORE PUSH1 0x8 PUSH1 0x20 MSTORE PUSH1 0x40 SWAP1 KECCAK256 PUSH1 0x1 ADD SLOAD SWAP1 JUMP JUMPDEST PUSH1 0x0 SWAP1 DUP2 MSTORE PUSH1 0xA PUSH1 0x20 MSTORE PUSH1 0x40 SWAP1 KECCAK256 SLOAD SWAP1 JUMP JUMPDEST PUSH2 0xB2F DUP3 PUSH2 0xAFF JUMP JUMPDEST PUSH2 0xB39 DUP2 CALLER PUSH2 0x2677 JUMP JUMPDEST PUSH2 0xAC9 DUP4 DUP4 PUSH2 0x26DB JUMP JUMPDEST PUSH1 0x1 PUSH1 0x1 PUSH1 0xA0 SHL SUB DUP2 AND CALLER EQ PUSH2 0xBB3 JUMPI PUSH1 0x40 MLOAD PUSH3 0x461BCD PUSH1 0xE5 SHL DUP2 MSTORE PUSH1 0x20 PUSH1 0x4 DUP3 ADD MSTORE PUSH1 0x2F PUSH1 0x24 DUP3 ADD MSTORE PUSH32 0x416363657373436F6E74726F6C3A2063616E206F6E6C792072656E6F756E6365 PUSH1 0x44 DUP3 ADD MSTORE PUSH15 0x103937B632B9903337B91039B2B633 PUSH1 0x89 SHL PUSH1 0x64 DUP3 ADD MSTORE PUSH1 0x84 ADD PUSH2 0x998 JUMP JUMPDEST PUSH2 0xBBD DUP3 DUP3 PUSH2 0x2761 JUMP JUMPDEST POP POP JUMP JUMPDEST PUSH2 0xBCA DUP3 PUSH2 0x101B JUMP JUMPDEST PUSH1 0x1 PUSH1 0x1 PUSH1 0xA0 SHL SUB AND CALLER PUSH1 0x1 PUSH1 0x1 PUSH1 0xA0 SHL SUB AND EQ PUSH2 0xBFA JUMPI PUSH1 0x40 MLOAD PUSH3 0x461BCD PUSH1 0xE5 SHL DUP2 MSTORE PUSH1 0x4 ADD PUSH2 0x998 SWAP1 PUSH2 0x52C8 JUMP JUMPDEST PUSH2 0xAC9 DUP4 DUP4 DUP4 PUSH2 0x27C8 JUMP JUMPDEST PUSH2 0xAC9 DUP4 DUP4 DUP4 PUSH1 0x40 MLOAD DUP1 PUSH1 0x20 ADD PUSH1 0x40 MSTORE DUP1 PUSH1 0x0 DUP2 MSTORE POP PUSH2 0x1C59 JUMP JUMPDEST PUSH2 0xC29 DUP2 PUSH2 0x101B JUMP JUMPDEST PUSH1 0x1 PUSH1 0x1 PUSH1 0xA0 SHL SUB AND CALLER PUSH1 0x1 PUSH1 0x1 PUSH1 0xA0 SHL SUB AND EQ PUSH2 0xC59 JUMPI PUSH1 0x40 MLOAD PUSH3 0x461BCD PUSH1 0xE5 SHL DUP2 MSTORE PUSH1 0x4 ADD PUSH2 0x998 SWAP1 PUSH2 0x52C8 JUMP JUMPDEST PUSH2 0xC62 DUP2 PUSH2 0x288D JUMP JUMPDEST POP JUMP JUMPDEST PUSH2 0xC6E DUP3 PUSH2 0xD87 JUMP JUMPDEST PUSH2 0xCA0 JUMPI PUSH1 0x40 MLOAD PUSH3 0x461BCD PUSH1 0xE5 SHL DUP2 MSTORE PUSH1 0x20 PUSH1 0x4 DUP3 ADD MSTORE PUSH1 0x3 PUSH1 0x24 DUP3 ADD MSTORE PUSH3 0x271899 PUSH1 0xE9 SHL PUSH1 0x44 DUP3 ADD MSTORE PUSH1 0x64 ADD PUSH2 0x998 JUMP JUMPDEST PUSH1 0x0 DUP1 PUSH1 0x0 PUSH2 0xCAF DUP7 DUP6 PUSH2 0x28A5 JUMP JUMPDEST POP SWAP3 POP SWAP3 POP SWAP3 POP PUSH1 0x0 PUSH2 0xCC1 DUP7 PUSH2 0x29D2 JUMP JUMPDEST SWAP1 POP PUSH2 0xCFD DUP7 DUP3 DUP5 DUP5 PUSH1 0x60 ADD MLOAD PUSH2 0xCD8 SWAP2 SWAP1 PUSH2 0x54D3 JUMP JUMPDEST DUP8 DUP6 PUSH1 0x40 ADD MLOAD PUSH2 0xCE8 SWAP2 SWAP1 PUSH2 0x54D3 JUMP JUMPDEST DUP8 DUP7 PUSH1 0x80 ADD MLOAD PUSH2 0xCF8 SWAP2 SWAP1 PUSH2 0x54D3 JUMP JUMPDEST PUSH2 0x2AC1 JUMP JUMPDEST PUSH1 0x18 SLOAD PUSH1 0x60 DUP3 ADD MLOAD PUSH1 0x80 DUP4 ADD MLOAD PUSH1 0x40 MLOAD PUSH4 0x57A5C967 PUSH1 0xE0 SHL DUP2 MSTORE SWAP4 SWAP5 POP PUSH1 0x1 PUSH1 0x1 PUSH1 0xA0 SHL SUB SWAP1 SWAP3 AND SWAP3 PUSH4 0x57A5C967 SWAP3 PUSH2 0xD3D SWAP3 DUP12 SWAP3 SWAP1 SWAP2 SWAP1 PUSH1 0x4 ADD PUSH2 0x54BD JUMP JUMPDEST PUSH1 0x0 PUSH1 0x40 MLOAD DUP1 DUP4 SUB DUP2 PUSH1 0x0 DUP8 DUP1 EXTCODESIZE ISZERO DUP1 ISZERO PUSH2 0xD57 JUMPI PUSH1 0x0 DUP1 REVERT JUMPDEST POP GAS CALL ISZERO DUP1 ISZERO PUSH2 0xD6B JUMPI RETURNDATASIZE PUSH1 0x0 DUP1 RETURNDATACOPY RETURNDATASIZE PUSH1 0x0 REVERT JUMPDEST POP POP POP POP PUSH2 0xD7C DUP10 DUP10 DUP10 DUP10 DUP10 PUSH2 0x2AF3 JUMP JUMPDEST POP POP POP POP POP POP POP POP POP JUMP JUMPDEST PUSH1 0x0 PUSH2 0x853 DUP3 PUSH2 0x2389 JUMP JUMPDEST PUSH1 0x0 DUP2 DUP2 MSTORE PUSH1 0x14 PUSH1 0x20 MSTORE PUSH1 0x40 SWAP1 KECCAK256 PUSH1 0x5 DUP2 ADD SLOAD TIMESTAMP LT ISZERO PUSH2 0xDC4 JUMPI PUSH1 0x40 MLOAD PUSH3 0x461BCD PUSH1 0xE5 SHL DUP2 MSTORE PUSH1 0x4 ADD PUSH2 0x998 SWAP1 PUSH2 0x542C JUMP JUMPDEST PUSH1 0x1 DUP2 SLOAD PUSH1 0xFF AND PUSH1 0x3 DUP2 GT ISZERO PUSH2 0xDEA JUMPI PUSH4 0x4E487B71 PUSH1 0xE0 SHL PUSH1 0x0 MSTORE PUSH1 0x21 PUSH1 0x4 MSTORE PUSH1 0x24 PUSH1 0x0 REVERT JUMPDEST EQ PUSH2 0xE1C JUMPI PUSH1 0x40 MLOAD PUSH3 0x461BCD PUSH1 0xE5 SHL DUP2 MSTORE PUSH1 0x20 PUSH1 0x4 DUP3 ADD MSTORE PUSH1 0x2 PUSH1 0x24 DUP3 ADD MSTORE PUSH2 0x4F35 PUSH1 0xF0 SHL PUSH1 0x44 DUP3 ADD MSTORE PUSH1 0x64 ADD PUSH2 0x998 JUMP JUMPDEST PUSH1 0x5 DUP2 ADD SLOAD PUSH1 0x0 SWAP1 DUP2 MSTORE PUSH1 0x16 PUSH1 0x20 MSTORE PUSH1 0x40 SWAP1 KECCAK256 SLOAD DUP1 PUSH2 0xE4D JUMPI PUSH1 0x40 MLOAD PUSH3 0x461BCD PUSH1 0xE5 SHL DUP2 MSTORE PUSH1 0x4 ADD PUSH2 0x998 SWAP1 PUSH2 0x5336 JUMP JUMPDEST PUSH1 0x12 SLOAD PUSH1 0x40 MLOAD PUSH4 0x3906D29 PUSH1 0xE1 SHL DUP2 MSTORE PUSH1 0x4 DUP2 ADD DUP4 SWAP1 MSTORE PUSH1 0x0 SWAP2 PUSH1 0x1 PUSH1 0x1 PUSH1 0xA0 SHL SUB AND SWAP1 PUSH4 0x720DA52 SWAP1 PUSH1 0x24 ADD PUSH1 0xA0 PUSH1 0x40 MLOAD DUP1 DUP4 SUB DUP2 DUP7 DUP1 EXTCODESIZE ISZERO DUP1 ISZERO PUSH2 0xE92 JUMPI PUSH1 0x0 DUP1 REVERT JUMPDEST POP GAS STATICCALL ISZERO DUP1 ISZERO PUSH2 0xEA6 JUMPI RETURNDATASIZE PUSH1 0x0 DUP1 RETURNDATACOPY RETURNDATASIZE PUSH1 0x0 REVERT JUMPDEST POP POP POP POP PUSH1 0x40 MLOAD RETURNDATASIZE PUSH1 0x1F NOT PUSH1 0x1F DUP3 ADD AND DUP3 ADD DUP1 PUSH1 0x40 MSTORE POP DUP2 ADD SWAP1 PUSH2 0xECA SWAP2 SWAP1 PUSH2 0x5092 JUMP JUMPDEST POP SWAP2 SWAP4 POP PUSH1 0x2 SWAP3 POP PUSH2 0xEDA SWAP2 POP POP JUMP JUMPDEST PUSH1 0x6 DUP5 ADD SLOAD PUSH1 0xFF AND PUSH1 0x2 DUP2 GT ISZERO PUSH2 0xF01 JUMPI PUSH4 0x4E487B71 PUSH1 0xE0 SHL PUSH1 0x0 MSTORE PUSH1 0x21 PUSH1 0x4 MSTORE PUSH1 0x24 PUSH1 0x0 REVERT JUMPDEST EQ DUP1 ISZERO PUSH2 0xF11 JUMPI POP DUP3 PUSH1 0x1 ADD SLOAD DUP2 GT JUMPDEST DUP1 PUSH2 0xF50 JUMPI POP PUSH1 0x1 PUSH1 0x6 DUP5 ADD SLOAD PUSH1 0xFF AND PUSH1 0x2 DUP2 GT ISZERO PUSH2 0xF40 JUMPI PUSH4 0x4E487B71 PUSH1 0xE0 SHL PUSH1 0x0 MSTORE PUSH1 0x21 PUSH1 0x4 MSTORE PUSH1 0x24 PUSH1 0x0 REVERT JUMPDEST EQ DUP1 ISZERO PUSH2 0xF50 JUMPI POP DUP3 PUSH1 0x1 ADD SLOAD DUP2 LT JUMPDEST ISZERO PUSH2 0xF64 JUMPI PUSH2 0xF5E DUP5 PUSH2 0x1954 JUMP JUMPDEST POP PUSH2 0x1015 JUMP JUMPDEST DUP3 SLOAD PUSH1 0xFF NOT AND PUSH1 0x3 OR DUP4 SSTORE PUSH1 0x18 SLOAD PUSH1 0x40 MLOAD PUSH4 0x6198E339 PUSH1 0xE0 SHL DUP2 MSTORE PUSH1 0x4 DUP2 ADD DUP7 SWAP1 MSTORE PUSH1 0x1 PUSH1 0x1 PUSH1 0xA0 SHL SUB SWAP1 SWAP2 AND SWAP1 PUSH4 0x6198E339 SWAP1 PUSH1 0x24 ADD PUSH1 0x0 PUSH1 0x40 MLOAD DUP1 DUP4 SUB DUP2 PUSH1 0x0 DUP8 DUP1 EXTCODESIZE ISZERO DUP1 ISZERO PUSH2 0xFB5 JUMPI PUSH1 0x0 DUP1 REVERT JUMPDEST POP GAS CALL ISZERO DUP1 ISZERO PUSH2 0xFC9 JUMPI RETURNDATASIZE PUSH1 0x0 DUP1 RETURNDATACOPY RETURNDATASIZE PUSH1 0x0 REVERT JUMPDEST POP POP POP POP PUSH2 0xFD6 DUP5 PUSH2 0x288D JUMP JUMPDEST DUP4 PUSH32 0x5F36A4A575E512EB69D6D28C3B0FF98CCA7BA50AD5BF04E14094AD1D425E0D31 DUP5 PUSH1 0x4 ADD SLOAD PUSH1 0x40 MLOAD PUSH2 0x100C SWAP2 DUP2 MSTORE PUSH1 0x20 ADD SWAP1 JUMP JUMPDEST PUSH1 0x40 MLOAD DUP1 SWAP2 SUB SWAP1 LOG2 JUMPDEST POP POP POP POP JUMP JUMPDEST PUSH1 0x0 DUP2 DUP2 MSTORE PUSH1 0x2 PUSH1 0x20 MSTORE PUSH1 0x40 DUP2 KECCAK256 SLOAD PUSH1 0x1 PUSH1 0x1 PUSH1 0xA0 SHL SUB AND DUP1 PUSH2 0x853 JUMPI PUSH1 0x40 MLOAD PUSH3 0x461BCD PUSH1 0xE5 SHL DUP2 MSTORE PUSH1 0x20 PUSH1 0x4 DUP3 ADD MSTORE PUSH1 0x29 PUSH1 0x24 DUP3 ADD MSTORE PUSH32 0x4552433732313A206F776E657220717565727920666F72206E6F6E6578697374 PUSH1 0x44 DUP3 ADD MSTORE PUSH9 0x32B73A103A37B5B2B7 PUSH1 0xB9 SHL PUSH1 0x64 DUP3 ADD MSTORE PUSH1 0x84 ADD PUSH2 0x998 JUMP JUMPDEST PUSH1 0x10 SLOAD PUSH1 0x18 SLOAD PUSH1 0x40 MLOAD PUSH4 0x95EA7B3 PUSH1 0xE0 SHL DUP2 MSTORE PUSH1 0x1 PUSH1 0x1 PUSH1 0xA0 SHL SUB SWAP3 DUP4 AND SWAP3 PUSH4 0x95EA7B3 SWAP3 PUSH2 0x10CA SWAP3 SWAP2 AND SWAP1 PUSH1 0x0 NOT SWAP1 PUSH1 0x4 ADD PUSH2 0x51FC JUMP JUMPDEST PUSH1 0x20 PUSH1 0x40 MLOAD DUP1 DUP4 SUB DUP2 PUSH1 0x0 DUP8 DUP1 EXTCODESIZE ISZERO DUP1 ISZERO PUSH2 0x10E4 JUMPI PUSH1 0x0 DUP1 REVERT JUMPDEST POP GAS CALL ISZERO DUP1 ISZERO PUSH2 0x10F8 JUMPI RETURNDATASIZE PUSH1 0x0 DUP1 RETURNDATACOPY RETURNDATASIZE PUSH1 0x0 REVERT JUMPDEST POP POP POP POP PUSH1 0x40 MLOAD RETURNDATASIZE PUSH1 0x1F NOT PUSH1 0x1F DUP3 ADD AND DUP3 ADD DUP1 PUSH1 0x40 MSTORE POP DUP2 ADD SWAP1 PUSH2 0xC62 SWAP2 SWAP1 PUSH2 0x4E89 JUMP JUMPDEST PUSH1 0x0 DUP1 PUSH1 0x0 DUP1 PUSH1 0x12 PUSH1 0x0 SWAP1 SLOAD SWAP1 PUSH2 0x100 EXP SWAP1 DIV PUSH1 0x1 PUSH1 0x1 PUSH1 0xA0 SHL SUB AND PUSH1 0x1 PUSH1 0x1 PUSH1 0xA0 SHL SUB AND PUSH4 0x1ACF5582 PUSH1 0x40 MLOAD DUP2 PUSH4 0xFFFFFFFF AND PUSH1 0xE0 SHL DUP2 MSTORE PUSH1 0x4 ADD PUSH1 0x20 PUSH1 0x40 MLOAD DUP1 DUP4 SUB DUP2 DUP7 DUP1 EXTCODESIZE ISZERO DUP1 ISZERO PUSH2 0x1170 JUMPI PUSH1 0x0 DUP1 REVERT JUMPDEST POP GAS STATICCALL ISZERO DUP1 ISZERO PUSH2 0x1184 JUMPI RETURNDATASIZE PUSH1 0x0 DUP1 RETURNDATACOPY RETURNDATASIZE PUSH1 0x0 REVERT JUMPDEST POP POP POP POP PUSH1 0x40 MLOAD RETURNDATASIZE PUSH1 0x1F NOT PUSH1 0x1F DUP3 ADD AND DUP3 ADD DUP1 PUSH1 0x40 MSTORE POP DUP2 ADD SWAP1 PUSH2 0x11A8 SWAP2 SWAP1 PUSH2 0x4F19 JUMP JUMPDEST PUSH1 0x19 SLOAD PUSH1 0x18 SLOAD PUSH1 0x40 MLOAD PUSH4 0xE39D06E9 PUSH1 0xE0 SHL DUP2 MSTORE PUSH1 0x4 DUP2 ADD DUP14 SWAP1 MSTORE PUSH1 0x24 DUP2 ADD DUP13 SWAP1 MSTORE PUSH1 0x44 DUP2 ADD DUP12 SWAP1 MSTORE DUP10 ISZERO ISZERO PUSH1 0x64 DUP3 ADD MSTORE DUP9 ISZERO ISZERO PUSH1 0x84 DUP3 ADD MSTORE PUSH1 0xA4 DUP2 ADD DUP5 SWAP1 MSTORE PUSH1 0x1 PUSH1 0x1 PUSH1 0xA0 SHL SUB SWAP3 DUP4 AND PUSH1 0xC4 DUP3 ADD MSTORE SWAP2 AND PUSH1 0xE4 DUP3 ADD MSTORE SWAP1 SWAP2 POP PUSH20 0x0 SWAP1 PUSH4 0xE39D06E9 SWAP1 PUSH2 0x104 ADD PUSH1 0x20 PUSH1 0x40 MLOAD DUP1 DUP4 SUB DUP2 DUP7 DUP1 EXTCODESIZE ISZERO DUP1 ISZERO PUSH2 0x1239 JUMPI PUSH1 0x0 DUP1 REVERT JUMPDEST POP GAS DELEGATECALL ISZERO DUP1 ISZERO PUSH2 0x124D JUMPI RETURNDATASIZE PUSH1 0x0 DUP1 RETURNDATACOPY RETURNDATASIZE PUSH1 0x0 REVERT JUMPDEST POP POP POP POP PUSH1 0x40 MLOAD RETURNDATASIZE PUSH1 0x1F NOT PUSH1 0x1F DUP3 ADD AND DUP3 ADD DUP1 PUSH1 0x40 MSTORE POP DUP2 ADD SWAP1 PUSH2 0x1271 SWAP2 SWAP1 PUSH2 0x4F19 JUMP JUMPDEST SWAP2 POP PUSH1 0x19 PUSH1 0x0 SWAP1 SLOAD SWAP1 PUSH2 0x100 EXP SWAP1 DIV PUSH1 0x1 PUSH1 0x1 PUSH1 0xA0 SHL SUB AND PUSH1 0x1 PUSH1 0x1 PUSH1 0xA0 SHL SUB AND PUSH4 0xF3FA3495 PUSH1 0x40 MLOAD DUP2 PUSH4 0xFFFFFFFF AND PUSH1 0xE0 SHL DUP2 MSTORE PUSH1 0x4 ADD PUSH1 0x20 PUSH1 0x40 MLOAD DUP1 DUP4 SUB DUP2 DUP7 DUP1 EXTCODESIZE ISZERO DUP1 ISZERO PUSH2 0x12C1 JUMPI PUSH1 0x0 DUP1 REVERT JUMPDEST POP GAS STATICCALL ISZERO DUP1 ISZERO PUSH2 0x12D5 JUMPI RETURNDATASIZE PUSH1 0x0 DUP1 RETURNDATACOPY RETURNDATASIZE PUSH1 0x0 REVERT JUMPDEST POP POP POP POP PUSH1 0x40 MLOAD RETURNDATASIZE PUSH1 0x1F NOT PUSH1 0x1F DUP3 ADD AND DUP3 ADD DUP1 PUSH1 0x40 MSTORE POP DUP2 ADD SWAP1 PUSH2 0x12F9 SWAP2 SWAP1 PUSH2 0x4F19 JUMP JUMPDEST PUSH2 0x1305 SWAP1 PUSH2 0x2710 PUSH2 0x551E JUMP JUMPDEST PUSH2 0x1311 DUP4 PUSH2 0x2710 PUSH2 0x54FF JUMP JUMPDEST PUSH2 0x131B SWAP2 SWAP1 PUSH2 0x54EB JUMP JUMPDEST SWAP4 POP PUSH2 0x1327 DUP3 DUP6 PUSH2 0x551E JUMP JUMPDEST SWAP3 POP POP SWAP6 POP SWAP6 POP SWAP6 SWAP3 POP POP POP JUMP JUMPDEST PUSH1 0x60 DUP2 PUSH2 0x1369 JUMPI PUSH1 0x40 MLOAD PUSH3 0x461BCD PUSH1 0xE5 SHL DUP2 MSTORE PUSH1 0x20 PUSH1 0x4 DUP3 ADD MSTORE PUSH1 0x2 PUSH1 0x24 DUP3 ADD MSTORE PUSH2 0x4E31 PUSH1 0xF0 SHL PUSH1 0x44 DUP3 ADD MSTORE PUSH1 0x64 ADD PUSH2 0x998 JUMP JUMPDEST DUP2 PUSH1 0x1 PUSH1 0x1 PUSH1 0x40 SHL SUB DUP2 GT ISZERO PUSH2 0x138F JUMPI PUSH4 0x4E487B71 PUSH1 0xE0 SHL PUSH1 0x0 MSTORE PUSH1 0x41 PUSH1 0x4 MSTORE PUSH1 0x24 PUSH1 0x0 REVERT JUMPDEST PUSH1 0x40 MLOAD SWAP1 DUP1 DUP3 MSTORE DUP1 PUSH1 0x20 MUL PUSH1 0x20 ADD DUP3 ADD PUSH1 0x40 MSTORE DUP1 ISZERO PUSH2 0x13B8 JUMPI DUP2 PUSH1 0x20 ADD PUSH1 0x20 DUP3 MUL DUP1 CALLDATASIZE DUP4 CALLDATACOPY ADD SWAP1 POP JUMPDEST POP SWAP1 POP PUSH1 0x0 PUSH2 0x13C6 DUP6 PUSH2 0x29D2 JUMP JUMPDEST SWAP1 POP PUSH1 0x0 PUSH2 0x13D3 DUP7 PUSH2 0x1E9B JUMP JUMPDEST SWAP1 POP PUSH1 0x0 DUP1 DUP1 DUP1 JUMPDEST DUP8 DUP2 LT ISZERO PUSH2 0x15E6 JUMPI PUSH1 0x0 PUSH2 0x13ED PUSH2 0x2D39 JUMP JUMPDEST SWAP1 POP DUP1 DUP9 DUP4 DUP2 MLOAD DUP2 LT PUSH2 0x1410 JUMPI PUSH4 0x4E487B71 PUSH1 0xE0 SHL PUSH1 0x0 MSTORE PUSH1 0x32 PUSH1 0x4 MSTORE PUSH1 0x24 PUSH1 0x0 REVERT JUMPDEST PUSH1 0x20 MUL PUSH1 0x20 ADD ADD DUP2 DUP2 MSTORE POP POP PUSH2 0x144D DUP12 DUP3 DUP13 DUP13 DUP7 DUP2 DUP2 LT PUSH2 0x1441 JUMPI PUSH4 0x4E487B71 PUSH1 0xE0 SHL PUSH1 0x0 MSTORE PUSH1 0x32 PUSH1 0x4 MSTORE PUSH1 0x24 PUSH1 0x0 REVERT JUMPDEST SWAP1 POP PUSH1 0x20 MUL ADD CALLDATALOAD PUSH2 0x2D53 JUMP JUMPDEST PUSH1 0x0 DUP7 DUP12 DUP12 DUP6 DUP2 DUP2 LT PUSH2 0x1470 JUMPI PUSH4 0x4E487B71 PUSH1 0xE0 SHL PUSH1 0x0 MSTORE PUSH1 0x32 PUSH1 0x4 MSTORE PUSH1 0x24 PUSH1 0x0 REVERT JUMPDEST SWAP1 POP PUSH1 0x20 MUL ADD CALLDATALOAD DUP10 PUSH1 0x40 ADD MLOAD PUSH2 0x1486 SWAP2 SWAP1 PUSH2 0x54FF JUMP JUMPDEST PUSH2 0x1490 SWAP2 SWAP1 PUSH2 0x54EB JUMP JUMPDEST SWAP1 POP PUSH2 0x149C DUP2 DUP8 PUSH2 0x54D3 JUMP JUMPDEST SWAP6 POP PUSH1 0x0 DUP8 DUP13 DUP13 DUP7 DUP2 DUP2 LT PUSH2 0x14C1 JUMPI PUSH4 0x4E487B71 PUSH1 0xE0 SHL PUSH1 0x0 MSTORE PUSH1 0x32 PUSH1 0x4 MSTORE PUSH1 0x24 PUSH1 0x0 REVERT JUMPDEST SWAP1 POP PUSH1 0x20 MUL ADD CALLDATALOAD DUP11 PUSH1 0x60 ADD MLOAD PUSH2 0x14D7 SWAP2 SWAP1 PUSH2 0x54FF JUMP JUMPDEST PUSH2 0x14E1 SWAP2 SWAP1 PUSH2 0x54EB JUMP JUMPDEST SWAP1 POP PUSH2 0x14ED DUP2 DUP8 PUSH2 0x54D3 JUMP JUMPDEST SWAP6 POP PUSH1 0x0 DUP9 DUP14 DUP14 DUP8 DUP2 DUP2 LT PUSH2 0x1512 JUMPI PUSH4 0x4E487B71 PUSH1 0xE0 SHL PUSH1 0x0 MSTORE PUSH1 0x32 PUSH1 0x4 MSTORE PUSH1 0x24 PUSH1 0x0 REVERT JUMPDEST SWAP1 POP PUSH1 0x20 MUL ADD CALLDATALOAD DUP12 PUSH1 0x80 ADD MLOAD PUSH2 0x1528 SWAP2 SWAP1 PUSH2 0x54FF JUMP JUMPDEST PUSH2 0x1532 SWAP2 SWAP1 PUSH2 0x54EB JUMP JUMPDEST SWAP1 POP PUSH2 0x153E DUP2 DUP8 PUSH2 0x54D3 JUMP JUMPDEST SWAP6 POP PUSH1 0x0 PUSH1 0x40 MLOAD DUP1 PUSH1 0xE0 ADD PUSH1 0x40 MSTORE DUP1 DUP13 PUSH1 0x0 ADD MLOAD PUSH1 0x3 DUP2 GT ISZERO PUSH2 0x1571 JUMPI PUSH4 0x4E487B71 PUSH1 0xE0 SHL PUSH1 0x0 MSTORE PUSH1 0x21 PUSH1 0x4 MSTORE PUSH1 0x24 PUSH1 0x0 REVERT JUMPDEST DUP2 MSTORE PUSH1 0x20 ADD DUP13 PUSH1 0x20 ADD MLOAD DUP2 MSTORE PUSH1 0x20 ADD DUP6 DUP2 MSTORE PUSH1 0x20 ADD DUP5 DUP2 MSTORE PUSH1 0x20 ADD DUP4 DUP2 MSTORE PUSH1 0x20 ADD DUP13 PUSH1 0xA0 ADD MLOAD DUP2 MSTORE PUSH1 0x20 ADD DUP13 PUSH1 0xC0 ADD MLOAD PUSH1 0x2 DUP2 GT ISZERO PUSH2 0x15C0 JUMPI PUSH4 0x4E487B71 PUSH1 0xE0 SHL PUSH1 0x0 MSTORE PUSH1 0x21 PUSH1 0x4 MSTORE PUSH1 0x24 PUSH1 0x0 REVERT JUMPDEST SWAP1 MSTORE SWAP1 POP PUSH2 0x15CE DUP6 DUP3 PUSH2 0x2E7D JUMP JUMPDEST POP POP POP POP POP DUP1 DUP1 PUSH2 0x15DE SWAP1 PUSH2 0x55AD JUMP JUMPDEST SWAP2 POP POP PUSH2 0x13DB JUMP JUMPDEST POP PUSH2 0x161C DUP10 DUP7 DUP5 DUP9 PUSH1 0x60 ADD MLOAD PUSH2 0x15FC SWAP2 SWAP1 PUSH2 0x551E JUMP JUMPDEST DUP7 DUP10 PUSH1 0x40 ADD MLOAD PUSH2 0x160C SWAP2 SWAP1 PUSH2 0x551E JUMP JUMPDEST DUP6 DUP11 PUSH1 0x80 ADD MLOAD PUSH2 0xCF8 SWAP2 SWAP1 PUSH2 0x551E JUMP JUMPDEST PUSH1 0x18 SLOAD PUSH1 0x60 DUP3 ADD MLOAD PUSH1 0x80 DUP4 ADD MLOAD PUSH1 0x40 MLOAD PUSH4 0x57A5C967 PUSH1 0xE0 SHL DUP2 MSTORE SWAP4 SWAP9 POP PUSH1 0x1 PUSH1 0x1 PUSH1 0xA0 SHL SUB SWAP1 SWAP3 AND SWAP3 PUSH4 0x57A5C967 SWAP3 PUSH2 0x165C SWAP3 DUP15 SWAP3 SWAP1 SWAP2 SWAP1 PUSH1 0x4 ADD PUSH2 0x54BD JUMP JUMPDEST PUSH1 0x0 PUSH1 0x40 MLOAD DUP1 DUP4 SUB DUP2 PUSH1 0x0 DUP8 DUP1 EXTCODESIZE ISZERO DUP1 ISZERO PUSH2 0x1676 JUMPI PUSH1 0x0 DUP1 REVERT JUMPDEST POP GAS CALL ISZERO DUP1 ISZERO PUSH2 0x168A JUMPI RETURNDATASIZE PUSH1 0x0 DUP1 RETURNDATACOPY RETURNDATASIZE PUSH1 0x0 REVERT JUMPDEST POP POP POP POP PUSH1 0x0 JUMPDEST DUP8 DUP2 LT ISZERO PUSH2 0x171A JUMPI PUSH1 0x0 PUSH2 0x16CB DUP9 DUP4 DUP2 MLOAD DUP2 LT PUSH2 0x16BE JUMPI PUSH4 0x4E487B71 PUSH1 0xE0 SHL PUSH1 0x0 MSTORE PUSH1 0x32 PUSH1 0x4 MSTORE PUSH1 0x24 PUSH1 0x0 REVERT JUMPDEST PUSH1 0x20 MUL PUSH1 0x20 ADD ADD MLOAD PUSH2 0x29D2 JUMP JUMPDEST SWAP1 POP PUSH2 0x1707 DUP9 DUP4 DUP2 MLOAD DUP2 LT PUSH2 0x16F0 JUMPI PUSH4 0x4E487B71 PUSH1 0xE0 SHL PUSH1 0x0 MSTORE PUSH1 0x32 PUSH1 0x4 MSTORE PUSH1 0x24 PUSH1 0x0 REVERT JUMPDEST PUSH1 0x20 MUL PUSH1 0x20 ADD ADD MLOAD DUP3 PUSH1 0x60 ADD MLOAD DUP4 PUSH1 0x80 ADD MLOAD PUSH2 0x2F35 JUMP JUMPDEST POP DUP1 PUSH2 0x1712 DUP2 PUSH2 0x55AD JUMP JUMPDEST SWAP2 POP POP PUSH2 0x1691 JUMP JUMPDEST POP POP POP POP POP POP SWAP4 SWAP3 POP POP POP JUMP JUMPDEST PUSH1 0x0 PUSH1 0x1 PUSH1 0x1 PUSH1 0xA0 SHL SUB DUP3 AND PUSH2 0x1792 JUMPI PUSH1 0x40 MLOAD PUSH3 0x461BCD PUSH1 0xE5 SHL DUP2 MSTORE PUSH1 0x20 PUSH1 0x4 DUP3 ADD MSTORE PUSH1 0x2A PUSH1 0x24 DUP3 ADD MSTORE PUSH32 0x4552433732313A2062616C616E636520717565727920666F7220746865207A65 PUSH1 0x44 DUP3 ADD MSTORE PUSH10 0x726F2061646472657373 PUSH1 0xB0 SHL PUSH1 0x64 DUP3 ADD MSTORE PUSH1 0x84 ADD PUSH2 0x998 JUMP JUMPDEST POP PUSH1 0x1 PUSH1 0x1 PUSH1 0xA0 SHL SUB AND PUSH1 0x0 SWAP1 DUP2 MSTORE PUSH1 0x3 PUSH1 0x20 MSTORE PUSH1 0x40 SWAP1 KECCAK256 SLOAD SWAP1 JUMP JUMPDEST CALLER PUSH2 0x17B7 PUSH2 0x17E9 JUMP JUMPDEST PUSH1 0x1 PUSH1 0x1 PUSH1 0xA0 SHL SUB AND EQ PUSH2 0x17DD JUMPI PUSH1 0x40 MLOAD PUSH3 0x461BCD PUSH1 0xE5 SHL DUP2 MSTORE PUSH1 0x4 ADD PUSH2 0x998 SWAP1 PUSH2 0x536F JUMP JUMPDEST PUSH2 0x17E7 PUSH1 0x0 PUSH2 0x2FA0 JUMP JUMPDEST JUMP JUMPDEST PUSH1 0x6 SLOAD PUSH1 0x1 PUSH1 0x1 PUSH1 0xA0 SHL SUB AND SWAP1 JUMP JUMPDEST PUSH1 0x0 PUSH1 0x2 PUSH1 0x7 SLOAD EQ ISZERO PUSH2 0x181D JUMPI PUSH1 0x40 MLOAD PUSH3 0x461BCD PUSH1 0xE5 SHL DUP2 MSTORE PUSH1 0x4 ADD PUSH2 0x998 SWAP1 PUSH2 0x53F5 JUMP JUMPDEST PUSH1 0x2 PUSH1 0x7 SSTORE PUSH2 0x1831 DUP9 DUP9 DUP9 DUP9 DUP9 DUP9 DUP9 PUSH2 0x2FF2 JUMP JUMPDEST PUSH1 0x1 PUSH1 0x7 SSTORE SWAP9 SWAP8 POP POP POP POP POP POP POP POP JUMP JUMPDEST PUSH1 0x0 SWAP2 DUP3 MSTORE PUSH1 0x8 PUSH1 0x20 SWAP1 DUP2 MSTORE PUSH1 0x40 DUP1 DUP5 KECCAK256 PUSH1 0x1 PUSH1 0x1 PUSH1 0xA0 SHL SUB SWAP4 SWAP1 SWAP4 AND DUP5 MSTORE SWAP2 SWAP1 MSTORE SWAP1 KECCAK256 SLOAD PUSH1 0xFF AND SWAP1 JUMP JUMPDEST PUSH1 0x60 PUSH1 0x1 DUP1 SLOAD PUSH2 0x868 SWAP1 PUSH2 0x5578 JUMP JUMPDEST PUSH1 0x1 PUSH1 0x1 PUSH1 0xA0 SHL SUB DUP3 AND CALLER EQ ISZERO PUSH2 0x18D1 JUMPI PUSH1 0x40 MLOAD PUSH3 0x461BCD PUSH1 0xE5 SHL DUP2 MSTORE PUSH1 0x20 PUSH1 0x4 DUP3 ADD MSTORE PUSH1 0x19 PUSH1 0x24 DUP3 ADD MSTORE PUSH25 0x22A9219B99189D1030B8383937BB32903A379031B0B63632B9 PUSH1 0x39 SHL PUSH1 0x44 DUP3 ADD MSTORE PUSH1 0x64 ADD PUSH2 0x998 JUMP JUMPDEST CALLER PUSH1 0x0 DUP2 DUP2 MSTORE PUSH1 0x5 PUSH1 0x20 SWAP1 DUP2 MSTORE PUSH1 0x40 DUP1 DUP4 KECCAK256 PUSH1 0x1 PUSH1 0x1 PUSH1 0xA0 SHL SUB DUP8 AND DUP1 DUP6 MSTORE SWAP1 DUP4 MSTORE SWAP3 DUP2 SWAP1 KECCAK256 DUP1 SLOAD PUSH1 0xFF NOT AND DUP7 ISZERO ISZERO SWAP1 DUP2 OR SWAP1 SWAP2 SSTORE SWAP1 MLOAD SWAP1 DUP2 MSTORE SWAP2 SWAP3 SWAP2 PUSH32 0x17307EAB39AB6107E8899845AD3D59BD9653F200F220920489CA2B5937696C31 SWAP2 ADD PUSH1 0x40 MLOAD DUP1 SWAP2 SUB SWAP1 LOG3 POP POP JUMP JUMPDEST PUSH1 0x0 DUP2 DUP2 MSTORE PUSH1 0xC PUSH1 0x20 MSTORE PUSH1 0x40 DUP2 KECCAK256 PUSH2 0x853 SWAP1 PUSH2 0x3561 JUMP JUMPDEST PUSH1 0x0 PUSH2 0x195F DUP3 PUSH2 0xD87 JUMP JUMPDEST PUSH2 0x1991 JUMPI PUSH1 0x40 MLOAD PUSH3 0x461BCD PUSH1 0xE5 SHL DUP2 MSTORE PUSH1 0x20 PUSH1 0x4 DUP3 ADD MSTORE PUSH1 0x3 PUSH1 0x24 DUP3 ADD MSTORE PUSH3 0x4F313 PUSH1 0xEC SHL PUSH1 0x44 DUP3 ADD MSTORE PUSH1 0x64 ADD PUSH2 0x998 JUMP JUMPDEST PUSH1 0x0 DUP3 DUP2 MSTORE PUSH1 0x14 PUSH1 0x20 MSTORE PUSH1 0x40 SWAP1 KECCAK256 PUSH1 0x5 DUP2 ADD SLOAD TIMESTAMP LT ISZERO PUSH2 0x19C3 JUMPI PUSH1 0x40 MLOAD PUSH3 0x461BCD PUSH1 0xE5 SHL DUP2 MSTORE PUSH1 0x4 ADD PUSH2 0x998 SWAP1 PUSH2 0x542C JUMP JUMPDEST PUSH1 0x1 DUP2 SLOAD PUSH1 0xFF AND PUSH1 0x3 DUP2 GT ISZERO PUSH2 0x19E9 JUMPI PUSH4 0x4E487B71 PUSH1 0xE0 SHL PUSH1 0x0 MSTORE PUSH1 0x21 PUSH1 0x4 MSTORE PUSH1 0x24 PUSH1 0x0 REVERT JUMPDEST EQ PUSH2 0x1A1C JUMPI PUSH1 0x40 MLOAD PUSH3 0x461BCD PUSH1 0xE5 SHL DUP2 MSTORE PUSH1 0x20 PUSH1 0x4 DUP3 ADD MSTORE PUSH1 0x3 PUSH1 0x24 DUP3 ADD MSTORE PUSH3 0x13CC4D PUSH1 0xEA SHL PUSH1 0x44 DUP3 ADD MSTORE PUSH1 0x64 ADD PUSH2 0x998 JUMP JUMPDEST PUSH1 0x5 DUP2 ADD SLOAD PUSH1 0x0 SWAP1 DUP2 MSTORE PUSH1 0x16 PUSH1 0x20 MSTORE PUSH1 0x40 SWAP1 KECCAK256 SLOAD DUP1 PUSH2 0x1A4D JUMPI PUSH1 0x40 MLOAD PUSH3 0x461BCD PUSH1 0xE5 SHL DUP2 MSTORE PUSH1 0x4 ADD PUSH2 0x998 SWAP1 PUSH2 0x5336 JUMP JUMPDEST PUSH1 0x12 SLOAD PUSH1 0x40 MLOAD PUSH4 0x3906D29 PUSH1 0xE1 SHL DUP2 MSTORE PUSH1 0x4 DUP2 ADD DUP4 SWAP1 MSTORE PUSH1 0x0 SWAP2 PUSH1 0x1 PUSH1 0x1 PUSH1 0xA0 SHL SUB AND SWAP1 PUSH4 0x720DA52 SWAP1 PUSH1 0x24 ADD PUSH1 0xA0 PUSH1 0x40 MLOAD DUP1 DUP4 SUB DUP2 DUP7 DUP1 EXTCODESIZE ISZERO DUP1 ISZERO PUSH2 0x1A92 JUMPI PUSH1 0x0 DUP1 REVERT JUMPDEST POP GAS STATICCALL ISZERO DUP1 ISZERO PUSH2 0x1AA6 JUMPI RETURNDATASIZE PUSH1 0x0 DUP1 RETURNDATACOPY RETURNDATASIZE PUSH1 0x0 REVERT JUMPDEST POP POP POP POP PUSH1 0x40 MLOAD RETURNDATASIZE PUSH1 0x1F NOT PUSH1 0x1F DUP3 ADD AND DUP3 ADD DUP1 PUSH1 0x40 MSTORE POP DUP2 ADD SWAP1 PUSH2 0x1ACA SWAP2 SWAP1 PUSH2 0x5092 JUMP JUMPDEST POP SWAP2 SWAP4 POP PUSH1 0x2 SWAP3 POP PUSH2 0x1ADA SWAP2 POP POP JUMP JUMPDEST PUSH1 0x6 DUP5 ADD SLOAD PUSH1 0xFF AND PUSH1 0x2 DUP2 GT ISZERO PUSH2 0x1B01 JUMPI PUSH4 0x4E487B71 PUSH1 0xE0 SHL PUSH1 0x0 MSTORE PUSH1 0x21 PUSH1 0x4 MSTORE PUSH1 0x24 PUSH1 0x0 REVERT JUMPDEST EQ ISZERO PUSH2 0x1B46 JUMPI DUP1 DUP4 PUSH1 0x1 ADD SLOAD GT ISZERO PUSH2 0x1B41 JUMPI PUSH1 0x40 MLOAD PUSH3 0x461BCD PUSH1 0xE5 SHL DUP2 MSTORE PUSH1 0x20 PUSH1 0x4 DUP3 ADD MSTORE PUSH1 0x3 PUSH1 0x24 DUP3 ADD MSTORE PUSH3 0x4F3137 PUSH1 0xE8 SHL PUSH1 0x44 DUP3 ADD MSTORE PUSH1 0x64 ADD PUSH2 0x998 JUMP JUMPDEST PUSH2 0x1B80 JUMP JUMPDEST DUP1 DUP4 PUSH1 0x1 ADD SLOAD LT ISZERO PUSH2 0x1B80 JUMPI PUSH1 0x40 MLOAD PUSH3 0x461BCD PUSH1 0xE5 SHL DUP2 MSTORE PUSH1 0x20 PUSH1 0x4 DUP3 ADD MSTORE PUSH1 0x3 PUSH1 0x24 DUP3 ADD MSTORE PUSH3 0x9E627 PUSH1 0xEB SHL PUSH1 0x44 DUP3 ADD MSTORE PUSH1 0x64 ADD PUSH2 0x998 JUMP JUMPDEST PUSH1 0x3 DUP4 ADD SLOAD PUSH1 0x18 SLOAD SWAP1 SWAP5 POP PUSH1 0x1 PUSH1 0x1 PUSH1 0xA0 SHL SUB AND PUSH4 0x81B34F15 DUP7 PUSH2 0x1BA3 DUP2 PUSH2 0x101B JUMP JUMPDEST PUSH1 0x40 MLOAD PUSH1 0x1 PUSH1 0x1 PUSH1 0xE0 SHL SUB NOT PUSH1 0xE0 DUP6 SWAP1 SHL AND DUP2 MSTORE PUSH1 0x4 DUP2 ADD SWAP3 SWAP1 SWAP3 MSTORE PUSH1 0x1 PUSH1 0x1 PUSH1 0xA0 SHL SUB AND PUSH1 0x24 DUP3 ADD MSTORE PUSH1 0x44 DUP2 ADD DUP8 SWAP1 MSTORE PUSH1 0x64 ADD PUSH1 0x0 PUSH1 0x40 MLOAD DUP1 DUP4 SUB DUP2 PUSH1 0x0 DUP8 DUP1 EXTCODESIZE ISZERO DUP1 ISZERO PUSH2 0x1BF1 JUMPI PUSH1 0x0 DUP1 REVERT JUMPDEST POP GAS CALL ISZERO DUP1 ISZERO PUSH2 0x1C05 JUMPI RETURNDATASIZE PUSH1 0x0 DUP1 RETURNDATACOPY RETURNDATASIZE PUSH1 0x0 REVERT JUMPDEST POP POP POP POP PUSH2 0x1C12 DUP6 PUSH2 0x288D JUMP JUMPDEST DUP3 SLOAD PUSH1 0xFF NOT AND PUSH1 0x2 OR DUP4 SSTORE PUSH1 0x40 MLOAD DUP5 DUP2 MSTORE DUP6 SWAP1 PUSH31 0x84FE51C7CB34B132B7B6EB5D5A87A489F8D6D284758D00A0402C1BAD9A0DEF SWAP1 PUSH1 0x20 ADD PUSH1 0x40 MLOAD DUP1 SWAP2 SUB SWAP1 LOG2 POP POP POP SWAP2 SWAP1 POP JUMP JUMPDEST PUSH2 0x1C64 CALLER JUMPDEST DUP4 PUSH2 0x2414 JUMP JUMPDEST PUSH2 0x1C80 JUMPI PUSH1 0x40 MLOAD PUSH3 0x461BCD PUSH1 0xE5 SHL DUP2 MSTORE PUSH1 0x4 ADD PUSH2 0x998 SWAP1 PUSH2 0x53A4 JUMP JUMPDEST PUSH2 0x1015 DUP5 DUP5 DUP5 DUP5 PUSH2 0x356B JUMP JUMPDEST DUP2 PUSH2 0x1CBE JUMPI PUSH1 0x40 MLOAD PUSH3 0x461BCD PUSH1 0xE5 SHL DUP2 MSTORE PUSH1 0x20 PUSH1 0x4 DUP3 ADD MSTORE PUSH1 0x2 PUSH1 0x24 DUP3 ADD MSTORE PUSH2 0x138D PUSH1 0xF2 SHL PUSH1 0x44 DUP3 ADD MSTORE PUSH1 0x64 ADD PUSH2 0x998 JUMP JUMPDEST PUSH1 0x0 PUSH2 0x1CC9 DUP3 PUSH2 0x29D2 JUMP JUMPDEST PUSH1 0x60 DUP2 ADD MLOAD PUSH1 0x40 DUP3 ADD MLOAD PUSH1 0x80 DUP4 ADD MLOAD SWAP3 SWAP4 POP SWAP1 SWAP2 PUSH1 0x0 JUMPDEST DUP7 DUP2 LT ISZERO PUSH2 0x1E1D JUMPI PUSH1 0x0 PUSH2 0x1D19 DUP10 DUP10 DUP5 DUP2 DUP2 LT PUSH2 0x1D0D JUMPI PUSH4 0x4E487B71 PUSH1 0xE0 SHL PUSH1 0x0 MSTORE PUSH1 0x32 PUSH1 0x4 MSTORE PUSH1 0x24 PUSH1 0x0 REVERT JUMPDEST SWAP1 POP PUSH1 0x20 MUL ADD CALLDATALOAD PUSH2 0x29D2 JUMP JUMPDEST SWAP1 POP DUP1 PUSH1 0x60 ADD MLOAD DUP6 PUSH2 0x1D2B SWAP2 SWAP1 PUSH2 0x54D3 JUMP JUMPDEST SWAP5 POP DUP1 PUSH1 0x40 ADD MLOAD DUP5 PUSH2 0x1D3D SWAP2 SWAP1 PUSH2 0x54D3 JUMP JUMPDEST SWAP4 POP DUP1 PUSH1 0x80 ADD MLOAD DUP4 PUSH2 0x1D4F SWAP2 SWAP1 PUSH2 0x54D3 JUMP JUMPDEST PUSH1 0x18 SLOAD SWAP1 SWAP4 POP PUSH1 0x1 PUSH1 0x1 PUSH1 0xA0 SHL SUB AND PUSH4 0xDBF21B0 DUP11 DUP11 DUP6 DUP2 DUP2 LT PUSH2 0x1D83 JUMPI PUSH4 0x4E487B71 PUSH1 0xE0 SHL PUSH1 0x0 MSTORE PUSH1 0x32 PUSH1 0x4 MSTORE PUSH1 0x24 PUSH1 0x0 REVERT JUMPDEST SWAP1 POP PUSH1 0x20 MUL ADD CALLDATALOAD PUSH1 0x40 MLOAD DUP3 PUSH4 0xFFFFFFFF AND PUSH1 0xE0 SHL DUP2 MSTORE PUSH1 0x4 ADD PUSH2 0x1DA8 SWAP2 DUP2 MSTORE PUSH1 0x20 ADD SWAP1 JUMP JUMPDEST PUSH1 0x0 PUSH1 0x40 MLOAD DUP1 DUP4 SUB DUP2 PUSH1 0x0 DUP8 DUP1 EXTCODESIZE ISZERO DUP1 ISZERO PUSH2 0x1DC2 JUMPI PUSH1 0x0 DUP1 REVERT JUMPDEST POP GAS CALL ISZERO DUP1 ISZERO PUSH2 0x1DD6 JUMPI RETURNDATASIZE PUSH1 0x0 DUP1 RETURNDATACOPY RETURNDATASIZE PUSH1 0x0 REVERT JUMPDEST POP POP POP POP PUSH2 0x1E0A DUP10 DUP10 DUP5 DUP2 DUP2 LT PUSH2 0x1DFD JUMPI PUSH4 0x4E487B71 PUSH1 0xE0 SHL PUSH1 0x0 MSTORE PUSH1 0x32 PUSH1 0x4 MSTORE PUSH1 0x24 PUSH1 0x0 REVERT JUMPDEST SWAP1 POP PUSH1 0x20 MUL ADD CALLDATALOAD DUP9 PUSH2 0x359E JUMP JUMPDEST POP DUP1 PUSH2 0x1E15 DUP2 PUSH2 0x55AD JUMP JUMPDEST SWAP2 POP POP PUSH2 0x1CE0 JUMP JUMPDEST POP PUSH2 0x1E2B DUP6 DUP6 DUP6 DUP6 DUP6 PUSH2 0x2AC1 JUMP JUMPDEST POP PUSH1 0x18 SLOAD PUSH1 0x40 MLOAD PUSH4 0x57A5C967 PUSH1 0xE0 SHL DUP2 MSTORE PUSH1 0x1 PUSH1 0x1 PUSH1 0xA0 SHL SUB SWAP1 SWAP2 AND SWAP1 PUSH4 0x57A5C967 SWAP1 PUSH2 0x1E60 SWAP1 DUP9 SWAP1 DUP8 SWAP1 DUP7 SWAP1 PUSH1 0x4 ADD PUSH2 0x54BD JUMP JUMPDEST PUSH1 0x0 PUSH1 0x40 MLOAD DUP1 DUP4 SUB DUP2 PUSH1 0x0 DUP8 DUP1 EXTCODESIZE ISZERO DUP1 ISZERO PUSH2 0x1E7A JUMPI PUSH1 0x0 DUP1 REVERT JUMPDEST POP GAS CALL ISZERO DUP1 ISZERO PUSH2 0x1E8E JUMPI RETURNDATASIZE PUSH1 0x0 DUP1 RETURNDATACOPY RETURNDATASIZE PUSH1 0x0 REVERT JUMPDEST POP POP POP POP POP POP POP POP POP POP POP JUMP JUMPDEST PUSH1 0x0 SWAP1 DUP2 MSTORE PUSH1 0xF PUSH1 0x20 MSTORE PUSH1 0x40 SWAP1 KECCAK256 SLOAD SWAP1 JUMP JUMPDEST PUSH1 0x0 PUSH1 0x2 PUSH1 0x7 SLOAD EQ ISZERO PUSH2 0x1ED2 JUMPI PUSH1 0x40 MLOAD PUSH3 0x461BCD PUSH1 0xE5 SHL DUP2 MSTORE PUSH1 0x4 ADD PUSH2 0x998 SWAP1 PUSH2 0x53F5 JUMP JUMPDEST PUSH1 0x2 PUSH1 0x7 SSTORE PUSH1 0x0 PUSH2 0x1EE3 TIMESTAMP DUP9 PUSH2 0x551E JUMP JUMPDEST SWAP1 POP PUSH2 0x1EF4 DUP10 DUP10 DUP4 DUP10 DUP10 DUP10 DUP10 PUSH2 0x2FF2 JUMP JUMPDEST PUSH1 0x1 PUSH1 0x7 SSTORE SWAP10 SWAP9 POP POP POP POP POP POP POP POP POP JUMP JUMPDEST PUSH1 0x60 PUSH2 0x853 DUP3 PUSH2 0x371A JUMP JUMPDEST PUSH1 0x0 DUP3 DUP2 MSTORE PUSH1 0xC PUSH1 0x20 MSTORE PUSH1 0x40 DUP2 KECCAK256 PUSH2 0x1F29 SWAP1 DUP4 PUSH2 0x387C JUMP JUMPDEST SWAP4 SWAP3 POP POP POP JUMP JUMPDEST PUSH2 0x1F39 DUP3 PUSH2 0xAFF JUMP JUMPDEST PUSH2 0x1F43 DUP2 CALLER PUSH2 0x2677 JUMP JUMPDEST PUSH2 0xAC9 DUP4 DUP4 PUSH2 0x2761 JUMP JUMPDEST PUSH1 0x12 SLOAD PUSH1 0x40 MLOAD PUSH4 0x3906D29 PUSH1 0xE1 SHL DUP2 MSTORE PUSH1 0x4 DUP2 ADD DUP5 SWAP1 MSTORE PUSH1 0x0 SWAP2 DUP3 SWAP2 DUP3 SWAP2 PUSH1 0x1 PUSH1 0x1 PUSH1 0xA0 SHL SUB AND SWAP1 PUSH4 0x720DA52 SWAP1 PUSH1 0x24 ADD PUSH1 0xA0 PUSH1 0x40 MLOAD DUP1 DUP4 SUB DUP2 DUP7 DUP1 EXTCODESIZE ISZERO DUP1 ISZERO PUSH2 0x1F96 JUMPI PUSH1 0x0 DUP1 REVERT JUMPDEST POP GAS STATICCALL ISZERO DUP1 ISZERO PUSH2 0x1FAA JUMPI RETURNDATASIZE PUSH1 0x0 DUP1 RETURNDATACOPY RETURNDATASIZE PUSH1 0x0 REVERT JUMPDEST POP POP POP POP PUSH1 0x40 MLOAD RETURNDATASIZE PUSH1 0x1F NOT PUSH1 0x1F DUP3 ADD AND DUP3 ADD DUP1 PUSH1 0x40 MSTORE POP DUP2 ADD SWAP1 PUSH2 0x1FCE SWAP2 SWAP1 PUSH2 0x5092 JUMP JUMPDEST POP PUSH1 0x0 DUP9 DUP2 MSTORE PUSH1 0x14 PUSH1 0x20 MSTORE PUSH1 0x40 SWAP1 KECCAK256 PUSH1 0x5 DUP2 ADD SLOAD SWAP4 SWAP7 POP SWAP1 SWAP5 POP SWAP3 POP POP DUP3 DUP2 LT PUSH2 0x201F JUMPI PUSH1 0x40 MLOAD PUSH3 0x461BCD PUSH1 0xE5 SHL DUP2 MSTORE PUSH1 0x20 PUSH1 0x4 DUP3 ADD MSTORE PUSH1 0x2 PUSH1 0x24 DUP3 ADD MSTORE PUSH2 0x4331 PUSH1 0xF0 SHL PUSH1 0x44 DUP3 ADD MSTORE PUSH1 0x64 ADD PUSH2 0x998 JUMP JUMPDEST PUSH1 0x0 DUP2 DUP2 MSTORE PUSH1 0x16 PUSH1 0x20 MSTORE PUSH1 0x40 SWAP1 KECCAK256 SLOAD DUP1 PUSH2 0x216A JUMPI PUSH2 0x203E PUSH1 0x1 DUP10 PUSH2 0x551E JUMP JUMPDEST SWAP1 POP JUMPDEST DUP6 PUSH2 0x216A JUMPI PUSH1 0x12 SLOAD PUSH1 0x40 MLOAD PUSH4 0x3906D29 PUSH1 0xE1 SHL DUP2 MSTORE PUSH1 0x4 DUP2 ADD DUP4 SWAP1 MSTORE PUSH1 0x0 SWAP2 PUSH1 0x1 PUSH1 0x1 PUSH1 0xA0 SHL SUB AND SWAP1 PUSH4 0x720DA52 SWAP1 PUSH1 0x24 ADD PUSH1 0xA0 PUSH1 0x40 MLOAD DUP1 DUP4 SUB DUP2 DUP7 DUP1 EXTCODESIZE ISZERO DUP1 ISZERO PUSH2 0x208B JUMPI PUSH1 0x0 DUP1 REVERT JUMPDEST POP GAS STATICCALL ISZERO DUP1 ISZERO PUSH2 0x209F JUMPI RETURNDATASIZE PUSH1 0x0 DUP1 RETURNDATACOPY RETURNDATASIZE PUSH1 0x0 REVERT JUMPDEST POP POP POP POP PUSH1 0x40 MLOAD RETURNDATASIZE PUSH1 0x1F NOT PUSH1 0x1F DUP3 ADD AND DUP3 ADD DUP1 PUSH1 0x40 MSTORE POP DUP2 ADD SWAP1 PUSH2 0x20C3 SWAP2 SWAP1 PUSH2 0x5092 JUMP JUMPDEST POP SWAP4 POP POP POP POP DUP1 PUSH1 0x0 EQ ISZERO PUSH2 0x2119 JUMPI PUSH1 0x0 DUP3 GT PUSH2 0x2107 JUMPI PUSH1 0x40 MLOAD PUSH3 0x461BCD PUSH1 0xE5 SHL DUP2 MSTORE PUSH1 0x20 PUSH1 0x4 DUP3 ADD MSTORE PUSH1 0x2 PUSH1 0x24 DUP3 ADD MSTORE PUSH2 0x4333 PUSH1 0xF0 SHL PUSH1 0x44 DUP3 ADD MSTORE PUSH1 0x64 ADD PUSH2 0x998 JUMP JUMPDEST PUSH2 0x2112 PUSH1 0x1 DUP4 PUSH2 0x551E JUMP JUMPDEST SWAP2 POP PUSH2 0x2164 JUMP JUMPDEST DUP3 DUP2 GT ISZERO PUSH2 0x214E JUMPI PUSH1 0x40 MLOAD PUSH3 0x461BCD PUSH1 0xE5 SHL DUP2 MSTORE PUSH1 0x20 PUSH1 0x4 DUP3 ADD MSTORE PUSH1 0x2 PUSH1 0x24 DUP3 ADD MSTORE PUSH2 0x10CD PUSH1 0xF2 SHL PUSH1 0x44 DUP3 ADD MSTORE PUSH1 0x64 ADD PUSH2 0x998 JUMP JUMPDEST PUSH1 0x0 DUP4 DUP2 MSTORE PUSH1 0x16 PUSH1 0x20 MSTORE PUSH1 0x40 SWAP1 KECCAK256 DUP3 SWAP1 SSTORE PUSH1 0x1 SWAP7 POP JUMPDEST POP PUSH2 0x2041 JUMP JUMPDEST POP POP POP POP POP SWAP3 SWAP2 POP POP JUMP JUMPDEST DUP1 PUSH1 0x0 JUMPDEST DUP2 DUP2 LT ISZERO PUSH2 0x1015 JUMPI PUSH2 0x21B0 DUP5 DUP5 DUP4 DUP2 DUP2 LT PUSH2 0x21A4 JUMPI PUSH4 0x4E487B71 PUSH1 0xE0 SHL PUSH1 0x0 MSTORE PUSH1 0x32 PUSH1 0x4 MSTORE PUSH1 0x24 PUSH1 0x0 REVERT JUMPDEST SWAP1 POP PUSH1 0x20 MUL ADD CALLDATALOAD PUSH2 0xD92 JUMP JUMPDEST DUP1 PUSH2 0x21BA DUP2 PUSH2 0x55AD JUMP JUMPDEST SWAP2 POP POP PUSH2 0x2179 JUMP JUMPDEST PUSH1 0x1 PUSH1 0x1 PUSH1 0xA0 SHL SUB SWAP2 DUP3 AND PUSH1 0x0 SWAP1 DUP2 MSTORE PUSH1 0x5 PUSH1 0x20 SWAP1 DUP2 MSTORE PUSH1 0x40 DUP1 DUP4 KECCAK256 SWAP4 SWAP1 SWAP5 AND DUP3 MSTORE SWAP2 SWAP1 SWAP2 MSTORE KECCAK256 SLOAD PUSH1 0xFF AND SWAP1 JUMP JUMPDEST CALLER PUSH2 0x21F9 PUSH2 0x17E9 JUMP JUMPDEST PUSH1 0x1 PUSH1 0x1 PUSH1 0xA0 SHL SUB AND EQ PUSH2 0x221F JUMPI PUSH1 0x40 MLOAD PUSH3 0x461BCD PUSH1 0xE5 SHL DUP2 MSTORE PUSH1 0x4 ADD PUSH2 0x998 SWAP1 PUSH2 0x536F JUMP JUMPDEST PUSH1 0x1 PUSH1 0x1 PUSH1 0xA0 SHL SUB DUP2 AND PUSH2 0x2284 JUMPI PUSH1 0x40 MLOAD PUSH3 0x461BCD PUSH1 0xE5 SHL DUP2 MSTORE PUSH1 0x20 PUSH1 0x4 DUP3 ADD MSTORE PUSH1 0x26 PUSH1 0x24 DUP3 ADD MSTORE PUSH32 0x4F776E61626C653A206E6577206F776E657220697320746865207A65726F2061 PUSH1 0x44 DUP3 ADD MSTORE PUSH6 0x646472657373 PUSH1 0xD0 SHL PUSH1 0x64 DUP3 ADD MSTORE PUSH1 0x84 ADD PUSH2 0x998 JUMP JUMPDEST PUSH2 0xC62 DUP2 PUSH2 0x2FA0 JUMP JUMPDEST PUSH1 0x0 PUSH2 0x2297 PUSH2 0x2D39 JUMP JUMPDEST SWAP1 POP PUSH1 0x0 DUP1 PUSH1 0x0 DUP1 PUSH2 0x22A9 DUP8 DUP8 PUSH2 0x28A5 JUMP JUMPDEST SWAP4 POP SWAP4 POP SWAP4 POP SWAP4 POP PUSH1 0x0 PUSH1 0x40 MLOAD DUP1 PUSH1 0xE0 ADD PUSH1 0x40 MSTORE DUP1 DUP4 PUSH1 0x0 ADD MLOAD PUSH1 0x3 DUP2 GT ISZERO PUSH2 0x22E2 JUMPI PUSH4 0x4E487B71 PUSH1 0xE0 SHL PUSH1 0x0 MSTORE PUSH1 0x21 PUSH1 0x4 MSTORE PUSH1 0x24 PUSH1 0x0 REVERT JUMPDEST DUP2 MSTORE PUSH1 0x20 ADD DUP4 PUSH1 0x20 ADD MLOAD DUP2 MSTORE PUSH1 0x20 ADD DUP7 DUP2 MSTORE PUSH1 0x20 ADD DUP5 DUP2 MSTORE PUSH1 0x20 ADD DUP6 DUP2 MSTORE PUSH1 0x20 ADD DUP4 PUSH1 0xA0 ADD MLOAD DUP2 MSTORE PUSH1 0x20 ADD DUP4 PUSH1 0xC0 ADD MLOAD PUSH1 0x2 DUP2 GT ISZERO PUSH2 0x2331 JUMPI PUSH4 0x4E487B71 PUSH1 0xE0 SHL PUSH1 0x0 MSTORE PUSH1 0x21 PUSH1 0x4 MSTORE PUSH1 0x24 PUSH1 0x0 REVERT JUMPDEST SWAP1 MSTORE SWAP1 POP PUSH2 0x233F DUP7 DUP3 PUSH2 0x2E7D JUMP JUMPDEST PUSH2 0x234A DUP7 DUP5 DUP7 PUSH2 0x2F35 JUMP JUMPDEST PUSH2 0x2357 DUP11 DUP11 DUP11 DUP10 DUP12 PUSH2 0x2AF3 JUMP JUMPDEST POP POP POP POP POP SWAP5 SWAP4 POP POP POP POP JUMP JUMPDEST PUSH1 0x0 PUSH1 0x1 PUSH1 0x1 PUSH1 0xE0 SHL SUB NOT DUP3 AND PUSH4 0x7965DB0B PUSH1 0xE0 SHL EQ DUP1 PUSH2 0x853 JUMPI POP PUSH2 0x853 DUP3 PUSH2 0x3888 JUMP JUMPDEST PUSH1 0x0 SWAP1 DUP2 MSTORE PUSH1 0x2 PUSH1 0x20 MSTORE PUSH1 0x40 SWAP1 KECCAK256 SLOAD PUSH1 0x1 PUSH1 0x1 PUSH1 0xA0 SHL SUB AND ISZERO ISZERO SWAP1 JUMP JUMPDEST PUSH1 0x0 DUP2 DUP2 MSTORE PUSH1 0x4 PUSH1 0x20 MSTORE PUSH1 0x40 SWAP1 KECCAK256 DUP1 SLOAD PUSH1 0x1 PUSH1 0x1 PUSH1 0xA0 SHL SUB NOT AND PUSH1 0x1 PUSH1 0x1 PUSH1 0xA0 SHL SUB DUP5 AND SWAP1 DUP2 OR SWAP1 SWAP2 SSTORE DUP2 SWAP1 PUSH2 0x23DB DUP3 PUSH2 0x101B JUMP JUMPDEST PUSH1 0x1 PUSH1 0x1 PUSH1 0xA0 SHL SUB AND PUSH32 0x8C5BE1E5EBEC7D5BD14F71427D1E84F3DD0314C0F7B2291E5B200AC8C7C3B925 PUSH1 0x40 MLOAD PUSH1 0x40 MLOAD DUP1 SWAP2 SUB SWAP1 LOG4 POP POP JUMP JUMPDEST PUSH1 0x0 PUSH2 0x241F DUP3 PUSH2 0x2389 JUMP JUMPDEST PUSH2 0x2480 JUMPI PUSH1 0x40 MLOAD PUSH3 0x461BCD PUSH1 0xE5 SHL DUP2 MSTORE PUSH1 0x20 PUSH1 0x4 DUP3 ADD MSTORE PUSH1 0x2C PUSH1 0x24 DUP3 ADD MSTORE PUSH32 0x4552433732313A206F70657261746F7220717565727920666F72206E6F6E6578 PUSH1 0x44 DUP3 ADD MSTORE PUSH12 0x34B9BA32B73A103A37B5B2B7 PUSH1 0xA1 SHL PUSH1 0x64 DUP3 ADD MSTORE PUSH1 0x84 ADD PUSH2 0x998 JUMP JUMPDEST PUSH1 0x0 PUSH2 0x248B DUP4 PUSH2 0x101B JUMP JUMPDEST SWAP1 POP DUP1 PUSH1 0x1 PUSH1 0x1 PUSH1 0xA0 SHL SUB AND DUP5 PUSH1 0x1 PUSH1 0x1 PUSH1 0xA0 SHL SUB AND EQ DUP1 PUSH2 0x24C6 JUMPI POP DUP4 PUSH1 0x1 PUSH1 0x1 PUSH1 0xA0 SHL SUB AND PUSH2 0x24BB DUP5 PUSH2 0x930 JUMP JUMPDEST PUSH1 0x1 PUSH1 0x1 PUSH1 0xA0 SHL SUB AND EQ JUMPDEST DUP1 PUSH2 0x24D6 JUMPI POP PUSH2 0x24D6 DUP2 DUP6 PUSH2 0x21C2 JUMP JUMPDEST SWAP5 SWAP4 POP POP POP POP JUMP JUMPDEST DUP3 PUSH1 0x1 PUSH1 0x1 PUSH1 0xA0 SHL SUB AND PUSH2 0x24F1 DUP3 PUSH2 0x101B JUMP JUMPDEST PUSH1 0x1 PUSH1 0x1 PUSH1 0xA0 SHL SUB AND EQ PUSH2 0x2559 JUMPI PUSH1 0x40 MLOAD PUSH3 0x461BCD PUSH1 0xE5 SHL DUP2 MSTORE PUSH1 0x20 PUSH1 0x4 DUP3 ADD MSTORE PUSH1 0x29 PUSH1 0x24 DUP3 ADD MSTORE PUSH32 0x4552433732313A207472616E73666572206F6620746F6B656E20746861742069 PUSH1 0x44 DUP3 ADD MSTORE PUSH9 0x39903737BA1037BBB7 PUSH1 0xB9 SHL PUSH1 0x64 DUP3 ADD MSTORE PUSH1 0x84 ADD PUSH2 0x998 JUMP JUMPDEST PUSH1 0x1 PUSH1 0x1 PUSH1 0xA0 SHL SUB DUP3 AND PUSH2 0x25BB JUMPI PUSH1 0x40 MLOAD PUSH3 0x461BCD PUSH1 0xE5 SHL DUP2 MSTORE PUSH1 0x20 PUSH1 0x4 DUP3 ADD MSTORE PUSH1 0x24 DUP1 DUP3 ADD MSTORE PUSH32 0x4552433732313A207472616E7366657220746F20746865207A65726F20616464 PUSH1 0x44 DUP3 ADD MSTORE PUSH4 0x72657373 PUSH1 0xE0 SHL PUSH1 0x64 DUP3 ADD MSTORE PUSH1 0x84 ADD PUSH2 0x998 JUMP JUMPDEST PUSH2 0x25C6 DUP4 DUP4 DUP4 PUSH2 0x38D8 JUMP JUMPDEST PUSH2 0x25D1 PUSH1 0x0 DUP3 PUSH2 0x23A6 JUMP JUMPDEST PUSH1 0x1 PUSH1 0x1 PUSH1 0xA0 SHL SUB DUP4 AND PUSH1 0x0 SWAP1 DUP2 MSTORE PUSH1 0x3 PUSH1 0x20 MSTORE PUSH1 0x40 DUP2 KECCAK256 DUP1 SLOAD PUSH1 0x1 SWAP3 SWAP1 PUSH2 0x25FA SWAP1 DUP5 SWAP1 PUSH2 0x551E JUMP JUMPDEST SWAP1 SWAP2 SSTORE POP POP PUSH1 0x1 PUSH1 0x1 PUSH1 0xA0 SHL SUB DUP3 AND PUSH1 0x0 SWAP1 DUP2 MSTORE PUSH1 0x3 PUSH1 0x20 MSTORE PUSH1 0x40 DUP2 KECCAK256 DUP1 SLOAD PUSH1 0x1 SWAP3 SWAP1 PUSH2 0x2628 SWAP1 DUP5 SWAP1 PUSH2 0x54D3 JUMP JUMPDEST SWAP1 SWAP2 SSTORE POP POP PUSH1 0x0 DUP2 DUP2 MSTORE PUSH1 0x2 PUSH1 0x20 MSTORE PUSH1 0x40 DUP1 DUP3 KECCAK256 DUP1 SLOAD PUSH1 0x1 PUSH1 0x1 PUSH1 0xA0 SHL SUB NOT AND PUSH1 0x1 PUSH1 0x1 PUSH1 0xA0 SHL SUB DUP7 DUP2 AND SWAP2 DUP3 OR SWAP1 SWAP3 SSTORE SWAP2 MLOAD DUP5 SWAP4 SWAP2 DUP8 AND SWAP2 PUSH1 0x0 DUP1 MLOAD PUSH1 0x20 PUSH2 0x5690 DUP4 CODECOPY DUP2 MLOAD SWAP2 MSTORE SWAP2 LOG4 POP POP POP JUMP JUMPDEST PUSH2 0x2681 DUP3 DUP3 PUSH2 0x1842 JUMP JUMPDEST PUSH2 0xBBD JUMPI PUSH2 0x2699 DUP2 PUSH1 0x1 PUSH1 0x1 PUSH1 0xA0 SHL SUB AND PUSH1 0x14 PUSH2 0x38F0 JUMP JUMPDEST PUSH2 0x26A4 DUP4 PUSH1 0x20 PUSH2 0x38F0 JUMP JUMPDEST PUSH1 0x40 MLOAD PUSH1 0x20 ADD PUSH2 0x26B5 SWAP3 SWAP2 SWAP1 PUSH2 0x5150 JUMP JUMPDEST PUSH1 0x40 DUP1 MLOAD PUSH1 0x1F NOT DUP2 DUP5 SUB ADD DUP2 MSTORE SWAP1 DUP3 SWAP1 MSTORE PUSH3 0x461BCD PUSH1 0xE5 SHL DUP3 MSTORE PUSH2 0x998 SWAP2 PUSH1 0x4 ADD PUSH2 0x52B5 JUMP JUMPDEST PUSH2 0x26E5 DUP3 DUP3 PUSH2 0x1842 JUMP JUMPDEST PUSH2 0xBBD JUMPI PUSH1 0x0 DUP3 DUP2 MSTORE PUSH1 0x8 PUSH1 0x20 SWAP1 DUP2 MSTORE PUSH1 0x40 DUP1 DUP4 KECCAK256 PUSH1 0x1 PUSH1 0x1 PUSH1 0xA0 SHL SUB DUP6 AND DUP5 MSTORE SWAP1 SWAP2 MSTORE SWAP1 KECCAK256 DUP1 SLOAD PUSH1 0xFF NOT AND PUSH1 0x1 OR SWAP1 SSTORE PUSH2 0x271D CALLER SWAP1 JUMP JUMPDEST PUSH1 0x1 PUSH1 0x1 PUSH1 0xA0 SHL SUB AND DUP2 PUSH1 0x1 PUSH1 0x1 PUSH1 0xA0 SHL SUB AND DUP4 PUSH32 0x2F8788117E7EFF1D82E926EC794901D17C78024A50270940304540A733656F0D PUSH1 0x40 MLOAD PUSH1 0x40 MLOAD DUP1 SWAP2 SUB SWAP1 LOG4 POP POP JUMP JUMPDEST PUSH2 0x276B DUP3 DUP3 PUSH2 0x1842 JUMP JUMPDEST ISZERO PUSH2 0xBBD JUMPI PUSH1 0x0 DUP3 DUP2 MSTORE PUSH1 0x8 PUSH1 0x20 SWAP1 DUP2 MSTORE PUSH1 0x40 DUP1 DUP4 KECCAK256 PUSH1 0x1 PUSH1 0x1 PUSH1 0xA0 SHL SUB DUP6 AND DUP1 DUP6 MSTORE SWAP3 MSTORE DUP1 DUP4 KECCAK256 DUP1 SLOAD PUSH1 0xFF NOT AND SWAP1 SSTORE MLOAD CALLER SWAP3 DUP6 SWAP2 PUSH32 0xF6391F5C32D9C69D2A47EA670B442974B53935D1EDC7FD64EB21E047A839171B SWAP2 SWAP1 LOG4 POP POP JUMP JUMPDEST PUSH1 0x0 DUP3 DUP2 MSTORE PUSH1 0xB PUSH1 0x20 SWAP1 DUP2 MSTORE PUSH1 0x40 DUP1 DUP4 KECCAK256 PUSH1 0x1 PUSH1 0x1 PUSH1 0xA0 SHL SUB DUP8 AND DUP5 MSTORE PUSH1 0x1 ADD SWAP1 SWAP2 MSTORE SWAP1 KECCAK256 SLOAD PUSH2 0x282A JUMPI PUSH1 0x0 DUP3 DUP2 MSTORE PUSH1 0xB PUSH1 0x20 SWAP1 DUP2 MSTORE PUSH1 0x40 DUP3 KECCAK256 DUP1 SLOAD PUSH1 0x1 DUP2 ADD DUP3 SSTORE SWAP1 DUP4 MSTORE SWAP2 KECCAK256 ADD DUP1 SLOAD PUSH1 0x1 PUSH1 0x1 PUSH1 0xA0 SHL SUB NOT AND PUSH1 0x1 PUSH1 0x1 PUSH1 0xA0 SHL SUB DUP6 AND OR SWAP1 SSTORE JUMPDEST PUSH1 0x0 DUP3 DUP2 MSTORE PUSH1 0xB PUSH1 0x20 SWAP1 DUP2 MSTORE PUSH1 0x40 DUP1 DUP4 KECCAK256 PUSH1 0x1 PUSH1 0x1 PUSH1 0xA0 SHL SUB DUP8 AND DUP1 DUP6 MSTORE PUSH1 0x1 SWAP1 SWAP2 ADD DUP4 MSTORE SWAP3 DUP2 SWAP1 KECCAK256 DUP5 SWAP1 SSTORE MLOAD DUP4 DUP2 MSTORE DUP5 SWAP3 SWAP2 PUSH32 0x8A156BD946DC74EC284C5F4B365CE75EF2A5B9D9462B4CDB1D2400CABF136541 SWAP2 ADD PUSH1 0x40 MLOAD DUP1 SWAP2 SUB SWAP1 LOG3 POP POP POP JUMP JUMPDEST PUSH1 0x0 DUP2 DUP2 MSTORE PUSH1 0xA PUSH1 0x20 MSTORE PUSH1 0x40 DUP2 KECCAK256 SSTORE PUSH2 0xC62 DUP2 PUSH2 0x3AD1 JUMP JUMPDEST PUSH1 0x0 DUP1 PUSH1 0x0 PUSH2 0x28B2 PUSH2 0x49E5 JUMP JUMPDEST PUSH2 0x28BB DUP7 PUSH2 0x29D2 JUMP JUMPDEST SWAP1 POP PUSH1 0x0 PUSH2 0x28C8 DUP8 PUSH2 0x1E9B JUMP JUMPDEST SWAP1 POP DUP1 DUP7 DUP4 PUSH1 0x40 ADD MLOAD PUSH2 0x28DB SWAP2 SWAP1 PUSH2 0x54FF JUMP JUMPDEST PUSH2 0x28E5 SWAP2 SWAP1 PUSH2 0x54EB JUMP JUMPDEST SWAP5 POP DUP1 DUP7 DUP4 PUSH1 0x80 ADD MLOAD PUSH2 0x28F8 SWAP2 SWAP1 PUSH2 0x54FF JUMP JUMPDEST PUSH2 0x2902 SWAP2 SWAP1 PUSH2 0x54EB JUMP JUMPDEST SWAP4 POP DUP1 DUP7 DUP4 PUSH1 0x60 ADD MLOAD PUSH2 0x2915 SWAP2 SWAP1 PUSH2 0x54FF JUMP JUMPDEST PUSH2 0x291F SWAP2 SWAP1 PUSH2 0x54EB JUMP JUMPDEST SWAP3 POP PUSH2 0x2956 DUP8 DUP4 DUP6 DUP6 PUSH1 0x60 ADD MLOAD PUSH2 0x2936 SWAP2 SWAP1 PUSH2 0x551E JUMP JUMPDEST DUP9 DUP7 PUSH1 0x40 ADD MLOAD PUSH2 0x2946 SWAP2 SWAP1 PUSH2 0x551E JUMP JUMPDEST DUP9 DUP8 PUSH1 0x80 ADD MLOAD PUSH2 0xCF8 SWAP2 SWAP1 PUSH2 0x551E JUMP JUMPDEST PUSH1 0x18 SLOAD PUSH1 0x60 DUP3 ADD MLOAD PUSH1 0x80 DUP4 ADD MLOAD PUSH1 0x40 MLOAD PUSH4 0x57A5C967 PUSH1 0xE0 SHL DUP2 MSTORE SWAP4 SWAP6 POP PUSH1 0x1 PUSH1 0x1 PUSH1 0xA0 SHL SUB SWAP1 SWAP3 AND SWAP3 PUSH4 0x57A5C967 SWAP3 PUSH2 0x2996 SWAP3 DUP13 SWAP3 SWAP1 SWAP2 SWAP1 PUSH1 0x4 ADD PUSH2 0x54BD JUMP JUMPDEST PUSH1 0x0 PUSH1 0x40 MLOAD DUP1 DUP4 SUB DUP2 PUSH1 0x0 DUP8 DUP1 EXTCODESIZE ISZERO DUP1 ISZERO PUSH2 0x29B0 JUMPI PUSH1 0x0 DUP1 REVERT JUMPDEST POP GAS CALL ISZERO DUP1 ISZERO PUSH2 0x29C4 JUMPI RETURNDATASIZE PUSH1 0x0 DUP1 RETURNDATACOPY RETURNDATASIZE PUSH1 0x0 REVERT JUMPDEST POP POP POP POP POP SWAP3 SWAP6 SWAP2 SWAP5 POP SWAP3 POP JUMP JUMPDEST PUSH2 0x29DA PUSH2 0x49E5 JUMP JUMPDEST PUSH1 0x0 DUP3 DUP2 MSTORE PUSH1 0x14 PUSH1 0x20 MSTORE PUSH1 0x40 SWAP1 DUP2 SWAP1 KECCAK256 DUP2 MLOAD PUSH1 0xE0 DUP2 ADD SWAP1 SWAP3 MSTORE DUP1 SLOAD DUP3 SWAP1 PUSH1 0xFF AND PUSH1 0x3 DUP2 GT ISZERO PUSH2 0x2A19 JUMPI PUSH4 0x4E487B71 PUSH1 0xE0 SHL PUSH1 0x0 MSTORE PUSH1 0x21 PUSH1 0x4 MSTORE PUSH1 0x24 PUSH1 0x0 REVERT JUMPDEST PUSH1 0x3 DUP2 GT ISZERO PUSH2 0x2A38 JUMPI PUSH4 0x4E487B71 PUSH1 0xE0 SHL PUSH1 0x0 MSTORE PUSH1 0x21 PUSH1 0x4 MSTORE PUSH1 0x24 PUSH1 0x0 REVERT JUMPDEST DUP2 MSTORE PUSH1 0x1 DUP3 ADD SLOAD PUSH1 0x20 DUP3 ADD MSTORE PUSH1 0x2 DUP1 DUP4 ADD SLOAD PUSH1 0x40 DUP4 ADD MSTORE PUSH1 0x3 DUP4 ADD SLOAD PUSH1 0x60 DUP4 ADD MSTORE PUSH1 0x4 DUP4 ADD SLOAD PUSH1 0x80 DUP4 ADD MSTORE PUSH1 0x5 DUP4 ADD SLOAD PUSH1 0xA0 DUP4 ADD MSTORE PUSH1 0x6 DUP4 ADD SLOAD PUSH1 0xC0 SWAP1 SWAP3 ADD SWAP2 PUSH1 0xFF AND SWAP1 DUP2 GT ISZERO PUSH2 0x2A99 JUMPI PUSH4 0x4E487B71 PUSH1 0xE0 SHL PUSH1 0x0 MSTORE PUSH1 0x21 PUSH1 0x4 MSTORE PUSH1 0x24 PUSH1 0x0 REVERT JUMPDEST PUSH1 0x2 DUP2 GT ISZERO PUSH2 0x2AB8 JUMPI PUSH4 0x4E487B71 PUSH1 0xE0 SHL PUSH1 0x0 MSTORE PUSH1 0x21 PUSH1 0x4 MSTORE PUSH1 0x24 PUSH1 0x0 REVERT JUMPDEST SWAP1 MSTORE POP SWAP3 SWAP2 POP POP JUMP JUMPDEST PUSH2 0x2AC9 PUSH2 0x49E5 JUMP JUMPDEST POP PUSH1 0x60 DUP5 ADD DUP4 SWAP1 MSTORE PUSH1 0x40 DUP5 ADD DUP3 SWAP1 MSTORE PUSH1 0x80 DUP5 ADD DUP2 SWAP1 MSTORE DUP4 PUSH2 0x2AEA DUP7 DUP3 PUSH2 0x2E7D JUMP JUMPDEST SWAP6 SWAP5 POP POP POP POP POP JUMP JUMPDEST PUSH2 0x2AFC DUP4 PUSH2 0x101B JUMP JUMPDEST PUSH1 0x1 PUSH1 0x1 PUSH1 0xA0 SHL SUB AND DUP6 PUSH1 0x1 PUSH1 0x1 PUSH1 0xA0 SHL SUB AND EQ PUSH2 0x2B41 JUMPI PUSH1 0x40 MLOAD PUSH3 0x461BCD PUSH1 0xE5 SHL DUP2 MSTORE PUSH1 0x20 PUSH1 0x4 DUP3 ADD MSTORE PUSH1 0x2 PUSH1 0x24 DUP3 ADD MSTORE PUSH2 0x4E39 PUSH1 0xF0 SHL PUSH1 0x44 DUP3 ADD MSTORE PUSH1 0x64 ADD PUSH2 0x998 JUMP JUMPDEST PUSH1 0x1 PUSH1 0x1 PUSH1 0xA0 SHL SUB DUP5 AND PUSH2 0x2B7D JUMPI PUSH1 0x40 MLOAD PUSH3 0x461BCD PUSH1 0xE5 SHL DUP2 MSTORE PUSH1 0x20 PUSH1 0x4 DUP3 ADD MSTORE PUSH1 0x3 PUSH1 0x24 DUP3 ADD MSTORE PUSH3 0x4E313 PUSH1 0xEC SHL PUSH1 0x44 DUP3 ADD MSTORE PUSH1 0x64 ADD PUSH2 0x998 JUMP JUMPDEST CALLER PUSH1 0x1 PUSH1 0x1 PUSH1 0xA0 SHL SUB DUP7 AND EQ DUP1 ISZERO SWAP1 PUSH2 0x2B9D JUMPI POP PUSH2 0x2B9B DUP6 CALLER PUSH2 0x21C2 JUMP JUMPDEST ISZERO JUMPDEST ISZERO PUSH2 0x2BE8 JUMPI PUSH1 0x0 DUP4 DUP2 MSTORE PUSH1 0xB PUSH1 0x20 SWAP1 DUP2 MSTORE PUSH1 0x40 DUP1 DUP4 KECCAK256 CALLER DUP5 MSTORE PUSH1 0x1 ADD SWAP1 SWAP2 MSTORE SWAP1 KECCAK256 SLOAD PUSH2 0x2BCA SWAP1 DUP3 SWAP1 PUSH2 0x551E JUMP JUMPDEST PUSH1 0x0 DUP5 DUP2 MSTORE PUSH1 0xB PUSH1 0x20 SWAP1 DUP2 MSTORE PUSH1 0x40 DUP1 DUP4 KECCAK256 CALLER DUP5 MSTORE PUSH1 0x1 ADD SWAP1 SWAP2 MSTORE SWAP1 KECCAK256 SSTORE JUMPDEST PUSH1 0x0 DUP4 DUP2 MSTORE PUSH1 0xF PUSH1 0x20 MSTORE PUSH1 0x40 SWAP1 KECCAK256 SLOAD PUSH2 0x2C02 SWAP1 DUP3 SWAP1 PUSH2 0x551E JUMP JUMPDEST PUSH1 0x0 DUP5 DUP2 MSTORE PUSH1 0xF PUSH1 0x20 MSTORE PUSH1 0x40 SWAP1 KECCAK256 SSTORE PUSH2 0x2C1A DUP3 PUSH2 0x2389 JUMP JUMPDEST PUSH2 0x2C37 JUMPI PUSH2 0x2C32 DUP5 DUP4 PUSH2 0x2C2C DUP7 PUSH2 0xB14 JUMP JUMPDEST DUP5 PUSH2 0x3B63 JUMP JUMPDEST PUSH2 0x2CDF JUMP JUMPDEST DUP4 PUSH1 0x1 PUSH1 0x1 PUSH1 0xA0 SHL SUB AND PUSH2 0x2C4A DUP4 PUSH2 0x101B JUMP JUMPDEST PUSH1 0x1 PUSH1 0x1 PUSH1 0xA0 SHL SUB AND EQ PUSH2 0x2C86 JUMPI PUSH1 0x40 MLOAD PUSH3 0x461BCD PUSH1 0xE5 SHL DUP2 MSTORE PUSH1 0x20 PUSH1 0x4 DUP3 ADD MSTORE PUSH1 0x3 PUSH1 0x24 DUP3 ADD MSTORE PUSH3 0x4E3131 PUSH1 0xE8 SHL PUSH1 0x44 DUP3 ADD MSTORE PUSH1 0x64 ADD PUSH2 0x998 JUMP JUMPDEST PUSH2 0x2C8F DUP3 PUSH2 0xB14 JUMP JUMPDEST PUSH2 0x2C98 DUP5 PUSH2 0xB14 JUMP JUMPDEST EQ PUSH2 0x2CB5 JUMPI PUSH1 0x40 MLOAD PUSH3 0x461BCD PUSH1 0xE5 SHL DUP2 MSTORE PUSH1 0x4 ADD PUSH2 0x998 SWAP1 PUSH2 0x5353 JUMP JUMPDEST PUSH1 0x0 DUP3 DUP2 MSTORE PUSH1 0xF PUSH1 0x20 MSTORE PUSH1 0x40 SWAP1 KECCAK256 SLOAD PUSH2 0x2CCF SWAP1 DUP3 SWAP1 PUSH2 0x54D3 JUMP JUMPDEST PUSH1 0x0 DUP4 DUP2 MSTORE PUSH1 0xF PUSH1 0x20 MSTORE PUSH1 0x40 SWAP1 KECCAK256 SSTORE JUMPDEST PUSH1 0x0 DUP4 DUP2 MSTORE PUSH1 0xA PUSH1 0x20 MSTORE PUSH1 0x40 DUP1 DUP3 KECCAK256 SLOAD DUP5 DUP4 MSTORE SWAP2 DUP2 SWAP1 KECCAK256 SWAP2 SWAP1 SWAP2 SSTORE MLOAD DUP4 SWAP1 PUSH1 0x1 PUSH1 0x1 PUSH1 0xA0 SHL SUB DUP1 DUP8 AND SWAP2 SWAP1 DUP9 AND SWAP1 PUSH1 0x0 DUP1 MLOAD PUSH1 0x20 PUSH2 0x56B0 DUP4 CODECOPY DUP2 MLOAD SWAP2 MSTORE SWAP1 PUSH2 0x2D2A SWAP1 DUP8 SWAP1 DUP8 SWAP1 PUSH2 0x52A7 JUMP JUMPDEST PUSH1 0x40 MLOAD DUP1 SWAP2 SUB SWAP1 LOG4 POP POP POP POP POP JUMP JUMPDEST PUSH1 0x13 DUP1 SLOAD PUSH1 0x0 SWAP2 DUP3 PUSH2 0x2D4A DUP4 PUSH2 0x55AD JUMP JUMPDEST SWAP2 SWAP1 POP SSTORE SWAP1 POP SWAP1 JUMP JUMPDEST PUSH2 0x2D5D CALLER DUP5 PUSH2 0x2414 JUMP JUMPDEST PUSH2 0x2D8E JUMPI PUSH1 0x40 MLOAD PUSH3 0x461BCD PUSH1 0xE5 SHL DUP2 MSTORE PUSH1 0x20 PUSH1 0x4 DUP3 ADD MSTORE PUSH1 0x2 PUSH1 0x24 DUP3 ADD MSTORE PUSH2 0x2719 PUSH1 0xF1 SHL PUSH1 0x44 DUP3 ADD MSTORE PUSH1 0x64 ADD PUSH2 0x998 JUMP JUMPDEST PUSH2 0x2D97 DUP3 PUSH2 0x2389 JUMP JUMPDEST ISZERO PUSH2 0x2DC9 JUMPI PUSH1 0x40 MLOAD PUSH3 0x461BCD PUSH1 0xE5 SHL DUP2 MSTORE PUSH1 0x20 PUSH1 0x4 DUP3 ADD MSTORE PUSH1 0x2 PUSH1 0x24 DUP3 ADD MSTORE PUSH2 0x4E33 PUSH1 0xF0 SHL PUSH1 0x44 DUP3 ADD MSTORE PUSH1 0x64 ADD PUSH2 0x998 JUMP JUMPDEST PUSH2 0x2DE8 DUP3 PUSH2 0x2DD6 DUP6 PUSH2 0xB14 JUMP JUMPDEST PUSH1 0x0 SWAP2 DUP3 MSTORE PUSH1 0xA PUSH1 0x20 MSTORE PUSH1 0x40 SWAP1 SWAP2 KECCAK256 SSTORE JUMP JUMPDEST PUSH1 0x0 DUP4 DUP2 MSTORE PUSH1 0xF PUSH1 0x20 MSTORE PUSH1 0x40 SWAP1 KECCAK256 SLOAD PUSH2 0x2E02 SWAP1 DUP3 SWAP1 PUSH2 0x551E JUMP JUMPDEST PUSH1 0x0 DUP5 DUP2 MSTORE PUSH1 0xF PUSH1 0x20 MSTORE PUSH1 0x40 DUP2 KECCAK256 SWAP2 SWAP1 SWAP2 SSTORE PUSH2 0x2E1D DUP5 PUSH2 0x101B JUMP JUMPDEST SWAP1 POP PUSH2 0x2E33 DUP2 DUP5 PUSH2 0x2E2D DUP8 PUSH2 0xB14 JUMP JUMPDEST DUP6 PUSH2 0x3B63 JUMP JUMPDEST DUP4 DUP2 PUSH1 0x1 PUSH1 0x1 PUSH1 0xA0 SHL SUB AND PUSH32 0xF66885C33D648FCD0D97E0F2A18E30102169C22763473AF0FB716F11B4A17DD6 DUP6 DUP6 PUSH1 0x40 MLOAD PUSH2 0x2E6F SWAP3 SWAP2 SWAP1 PUSH2 0x52A7 JUMP JUMPDEST PUSH1 0x40 MLOAD DUP1 SWAP2 SUB SWAP1 LOG3 POP POP POP POP JUMP JUMPDEST PUSH1 0x0 DUP3 DUP2 MSTORE PUSH1 0x14 PUSH1 0x20 MSTORE PUSH1 0x40 SWAP1 KECCAK256 DUP2 MLOAD DUP2 SLOAD DUP4 SWAP3 SWAP2 SWAP1 DUP3 SWAP1 PUSH1 0xFF NOT AND PUSH1 0x1 DUP4 PUSH1 0x3 DUP2 GT ISZERO PUSH2 0x2EBB JUMPI PUSH4 0x4E487B71 PUSH1 0xE0 SHL PUSH1 0x0 MSTORE PUSH1 0x21 PUSH1 0x4 MSTORE PUSH1 0x24 PUSH1 0x0 REVERT JUMPDEST MUL OR SWAP1 SSTORE POP PUSH1 0x20 DUP3 ADD MLOAD DUP2 PUSH1 0x1 ADD SSTORE PUSH1 0x40 DUP3 ADD MLOAD DUP2 PUSH1 0x2 ADD SSTORE PUSH1 0x60 DUP3 ADD MLOAD DUP2 PUSH1 0x3 ADD SSTORE PUSH1 0x80 DUP3 ADD MLOAD DUP2 PUSH1 0x4 ADD SSTORE PUSH1 0xA0 DUP3 ADD MLOAD DUP2 PUSH1 0x5 ADD SSTORE PUSH1 0xC0 DUP3 ADD MLOAD DUP2 PUSH1 0x6 ADD PUSH1 0x0 PUSH2 0x100 EXP DUP2 SLOAD DUP2 PUSH1 0xFF MUL NOT AND SWAP1 DUP4 PUSH1 0x2 DUP2 GT ISZERO PUSH2 0x2F2A JUMPI PUSH4 0x4E487B71 PUSH1 0xE0 SHL PUSH1 0x0 MSTORE PUSH1 0x21 PUSH1 0x4 MSTORE PUSH1 0x24 PUSH1 0x0 REVERT JUMPDEST MUL OR SWAP1 SSTORE POP POP POP POP POP JUMP JUMPDEST PUSH1 0x18 SLOAD PUSH1 0x40 MLOAD PUSH4 0xEDD0D421 PUSH1 0xE0 SHL DUP2 MSTORE PUSH1 0x1 PUSH1 0x1 PUSH1 0xA0 SHL SUB SWAP1 SWAP2 AND SWAP1 PUSH4 0xEDD0D421 SWAP1 PUSH2 0x2F69 SWAP1 DUP7 SWAP1 DUP7 SWAP1 DUP7 SWAP1 PUSH1 0x4 ADD PUSH2 0x54BD JUMP JUMPDEST PUSH1 0x0 PUSH1 0x40 MLOAD DUP1 DUP4 SUB DUP2 PUSH1 0x0 DUP8 DUP1 EXTCODESIZE ISZERO DUP1 ISZERO PUSH2 0x2F83 JUMPI PUSH1 0x0 DUP1 REVERT JUMPDEST POP GAS CALL ISZERO DUP1 ISZERO PUSH2 0x2F97 JUMPI RETURNDATASIZE PUSH1 0x0 DUP1 RETURNDATACOPY RETURNDATASIZE PUSH1 0x0 REVERT JUMPDEST POP POP POP POP POP POP POP JUMP JUMPDEST PUSH1 0x6 DUP1 SLOAD PUSH1 0x1 PUSH1 0x1 PUSH1 0xA0 SHL SUB DUP4 DUP2 AND PUSH1 0x1 PUSH1 0x1 PUSH1 0xA0 SHL SUB NOT DUP4 AND DUP2 OR SWAP1 SWAP4 SSTORE PUSH1 0x40 MLOAD SWAP2 AND SWAP2 SWAP1 DUP3 SWAP1 PUSH32 0x8BE0079C531659141344CD1FD0A4F28419497F9722A3DAAFE3B4186F6B6457E0 SWAP1 PUSH1 0x0 SWAP1 LOG3 POP POP JUMP JUMPDEST PUSH1 0x0 PUSH2 0x12C DUP7 LT ISZERO PUSH2 0x302C JUMPI PUSH1 0x40 MLOAD PUSH3 0x461BCD PUSH1 0xE5 SHL DUP2 MSTORE PUSH1 0x20 PUSH1 0x4 DUP3 ADD MSTORE PUSH1 0x3 PUSH1 0x24 DUP3 ADD MSTORE PUSH3 0x4F3231 PUSH1 0xE8 SHL PUSH1 0x44 DUP3 ADD MSTORE PUSH1 0x64 ADD PUSH2 0x998 JUMP JUMPDEST PUSH3 0x15180 DUP7 LT ISZERO PUSH2 0x30F4 JUMPI DUP7 ISZERO PUSH2 0x306B JUMPI PUSH1 0x40 MLOAD PUSH3 0x461BCD PUSH1 0xE5 SHL DUP2 MSTORE PUSH1 0x20 PUSH1 0x4 DUP3 ADD MSTORE PUSH1 0x3 PUSH1 0x24 DUP3 ADD MSTORE PUSH3 0x279919 PUSH1 0xE9 SHL PUSH1 0x44 DUP3 ADD MSTORE PUSH1 0x64 ADD PUSH2 0x998 JUMP JUMPDEST PUSH1 0x12 PUSH1 0x0 SWAP1 SLOAD SWAP1 PUSH2 0x100 EXP SWAP1 DIV PUSH1 0x1 PUSH1 0x1 PUSH1 0xA0 SHL SUB AND PUSH1 0x1 PUSH1 0x1 PUSH1 0xA0 SHL SUB AND PUSH4 0x1ACF5582 PUSH1 0x40 MLOAD DUP2 PUSH4 0xFFFFFFFF AND PUSH1 0xE0 SHL DUP2 MSTORE PUSH1 0x4 ADD PUSH1 0x20 PUSH1 0x40 MLOAD DUP1 DUP4 SUB DUP2 DUP7 DUP1 EXTCODESIZE ISZERO DUP1 ISZERO PUSH2 0x30B9 JUMPI PUSH1 0x0 DUP1 REVERT JUMPDEST POP GAS STATICCALL ISZERO DUP1 ISZERO PUSH2 0x30CD JUMPI RETURNDATASIZE PUSH1 0x0 DUP1 RETURNDATACOPY RETURNDATASIZE PUSH1 0x0 REVERT JUMPDEST POP POP POP POP PUSH1 0x40 MLOAD RETURNDATASIZE PUSH1 0x1F NOT PUSH1 0x1F DUP3 ADD AND DUP3 ADD DUP1 PUSH1 0x40 MSTORE POP DUP2 ADD SWAP1 PUSH2 0x30F1 SWAP2 SWAP1 PUSH2 0x4F19 JUMP JUMPDEST SWAP7 POP JUMPDEST PUSH1 0x18 SLOAD PUSH1 0x40 DUP1 MLOAD PUSH4 0xAB2F0E51 PUSH1 0xE0 SHL DUP2 MSTORE SWAP1 MLOAD PUSH1 0x64 SWAP3 PUSH1 0x1 PUSH1 0x1 PUSH1 0xA0 SHL SUB AND SWAP2 PUSH4 0xAB2F0E51 SWAP2 PUSH1 0x4 DUP1 DUP4 ADD SWAP3 PUSH1 0x20 SWAP3 SWAP2 SWAP1 DUP3 SWAP1 SUB ADD DUP2 DUP7 DUP1 EXTCODESIZE ISZERO DUP1 ISZERO PUSH2 0x3139 JUMPI PUSH1 0x0 DUP1 REVERT JUMPDEST POP GAS STATICCALL ISZERO DUP1 ISZERO PUSH2 0x314D JUMPI RETURNDATASIZE PUSH1 0x0 DUP1 RETURNDATACOPY RETURNDATASIZE PUSH1 0x0 REVERT JUMPDEST POP POP POP POP PUSH1 0x40 MLOAD RETURNDATASIZE PUSH1 0x1F NOT PUSH1 0x1F DUP3 ADD AND DUP3 ADD DUP1 PUSH1 0x40 MSTORE POP DUP2 ADD SWAP1 PUSH2 0x3171 SWAP2 SWAP1 PUSH2 0x4F19 JUMP JUMPDEST PUSH1 0x19 PUSH1 0x0 SWAP1 SLOAD SWAP1 PUSH2 0x100 EXP SWAP1 DIV PUSH1 0x1 PUSH1 0x1 PUSH1 0xA0 SHL SUB AND PUSH1 0x1 PUSH1 0x1 PUSH1 0xA0 SHL SUB AND PUSH4 0x71BF7E25 PUSH1 0x40 MLOAD DUP2 PUSH4 0xFFFFFFFF AND PUSH1 0xE0 SHL DUP2 MSTORE PUSH1 0x4 ADD PUSH1 0x20 PUSH1 0x40 MLOAD DUP1 DUP4 SUB DUP2 DUP7 DUP1 EXTCODESIZE ISZERO DUP1 ISZERO PUSH2 0x31BF JUMPI PUSH1 0x0 DUP1 REVERT JUMPDEST POP GAS STATICCALL ISZERO DUP1 ISZERO PUSH2 0x31D3 JUMPI RETURNDATASIZE PUSH1 0x0 DUP1 RETURNDATACOPY RETURNDATASIZE PUSH1 0x0 REVERT JUMPDEST POP POP POP POP PUSH1 0x40 MLOAD RETURNDATASIZE PUSH1 0x1F NOT PUSH1 0x1F DUP3 ADD AND DUP3 ADD DUP1 PUSH1 0x40 MSTORE POP DUP2 ADD SWAP1 PUSH2 0x31F7 SWAP2 SWAP1 PUSH2 0x4F19 JUMP JUMPDEST PUSH2 0x3201 SWAP2 SWAP1 PUSH2 0x54FF JUMP JUMPDEST PUSH2 0x320B SWAP2 SWAP1 PUSH2 0x54EB JUMP JUMPDEST NUMBER PUSH1 0x0 SWAP1 DUP2 MSTORE PUSH1 0x17 PUSH1 0x20 SWAP1 DUP2 MSTORE PUSH1 0x40 DUP1 DUP4 KECCAK256 CALLER DUP5 MSTORE SWAP1 SWAP2 MSTORE SWAP1 KECCAK256 SLOAD PUSH2 0x3231 SWAP1 DUP11 SWAP1 PUSH2 0x54D3 JUMP JUMPDEST LT PUSH2 0x3264 JUMPI PUSH1 0x40 MLOAD PUSH3 0x461BCD PUSH1 0xE5 SHL DUP2 MSTORE PUSH1 0x20 PUSH1 0x4 DUP3 ADD MSTORE PUSH1 0x3 PUSH1 0x24 DUP3 ADD MSTORE PUSH3 0x4F3233 PUSH1 0xE8 SHL PUSH1 0x44 DUP3 ADD MSTORE PUSH1 0x64 ADD PUSH2 0x998 JUMP JUMPDEST NUMBER PUSH1 0x0 SWAP1 DUP2 MSTORE PUSH1 0x17 PUSH1 0x20 SWAP1 DUP2 MSTORE PUSH1 0x40 DUP1 DUP4 KECCAK256 CALLER DUP5 MSTORE SWAP1 SWAP2 MSTORE DUP2 KECCAK256 DUP1 SLOAD DUP11 SWAP3 SWAP1 PUSH2 0x328E SWAP1 DUP5 SWAP1 PUSH2 0x54D3 JUMP JUMPDEST SWAP1 SWAP2 SSTORE POP PUSH1 0x0 SWAP1 POP DUP1 DUP1 PUSH2 0x32A5 DUP10 DUP13 DUP13 DUP12 DUP12 PUSH2 0x111C JUMP JUMPDEST SWAP2 SWAP5 POP SWAP3 POP SWAP1 POP PUSH1 0x5 PUSH2 0x32B8 DUP11 DUP14 PUSH2 0x54FF JUMP JUMPDEST PUSH2 0x32C2 SWAP2 SWAP1 PUSH2 0x54FF JUMP JUMPDEST PUSH2 0x32D0 DUP5 PUSH4 0x1E13380 PUSH2 0x54FF JUMP JUMPDEST PUSH2 0x32DB SWAP1 PUSH1 0x64 PUSH2 0x54FF JUMP JUMPDEST GT PUSH2 0x330D JUMPI PUSH1 0x40 MLOAD PUSH3 0x461BCD PUSH1 0xE5 SHL DUP2 MSTORE PUSH1 0x20 PUSH1 0x4 DUP3 ADD MSTORE PUSH1 0x2 PUSH1 0x24 DUP3 ADD MSTORE PUSH2 0x2799 PUSH1 0xF1 SHL PUSH1 0x44 DUP3 ADD MSTORE PUSH1 0x64 ADD PUSH2 0x998 JUMP JUMPDEST PUSH1 0x10 SLOAD PUSH1 0x40 MLOAD PUSH4 0x23B872DD PUSH1 0xE0 SHL DUP2 MSTORE CALLER PUSH1 0x4 DUP3 ADD MSTORE ADDRESS PUSH1 0x24 DUP3 ADD MSTORE PUSH1 0x44 DUP2 ADD DUP6 SWAP1 MSTORE PUSH1 0x0 SWAP2 PUSH1 0x1 PUSH1 0x1 PUSH1 0xA0 SHL SUB AND SWAP1 PUSH4 0x23B872DD SWAP1 PUSH1 0x64 ADD PUSH1 0x20 PUSH1 0x40 MLOAD DUP1 DUP4 SUB DUP2 PUSH1 0x0 DUP8 DUP1 EXTCODESIZE ISZERO DUP1 ISZERO PUSH2 0x3360 JUMPI PUSH1 0x0 DUP1 REVERT JUMPDEST POP GAS CALL ISZERO DUP1 ISZERO PUSH2 0x3374 JUMPI RETURNDATASIZE PUSH1 0x0 DUP1 RETURNDATACOPY RETURNDATASIZE PUSH1 0x0 REVERT JUMPDEST POP POP POP POP PUSH1 0x40 MLOAD RETURNDATASIZE PUSH1 0x1F NOT PUSH1 0x1F DUP3 ADD AND DUP3 ADD DUP1 PUSH1 0x40 MSTORE POP DUP2 ADD SWAP1 PUSH2 0x3398 SWAP2 SWAP1 PUSH2 0x4E89 JUMP JUMPDEST SWAP1 POP DUP1 PUSH2 0x33CC JUMPI PUSH1 0x40 MLOAD PUSH3 0x461BCD PUSH1 0xE5 SHL DUP2 MSTORE PUSH1 0x20 PUSH1 0x4 DUP3 ADD MSTORE PUSH1 0x2 PUSH1 0x24 DUP3 ADD MSTORE PUSH2 0x4F33 PUSH1 0xF0 SHL PUSH1 0x44 DUP3 ADD MSTORE PUSH1 0x64 ADD PUSH2 0x998 JUMP JUMPDEST PUSH1 0x1 DUP10 ISZERO ISZERO DUP2 EQ DUP1 ISZERO PUSH2 0x33E1 JUMPI POP PUSH1 0x1 DUP10 ISZERO ISZERO EQ JUMPDEST DUP1 PUSH2 0x33F3 JUMPI POP DUP10 ISZERO DUP1 ISZERO PUSH2 0x33F3 JUMPI POP DUP9 ISZERO JUMPDEST ISZERO PUSH2 0x33FC JUMPI POP PUSH1 0x2 JUMPDEST PUSH1 0x40 DUP1 MLOAD PUSH1 0xE0 DUP2 ADD SWAP1 SWAP2 MSTORE PUSH1 0x0 SWAP1 DUP1 PUSH1 0x1 DUP2 MSTORE PUSH1 0x20 ADD DUP15 DUP2 MSTORE PUSH1 0x20 ADD DUP16 DUP2 MSTORE PUSH1 0x20 ADD DUP16 DUP2 MSTORE PUSH1 0x20 ADD DUP6 DUP2 MSTORE PUSH1 0x20 ADD DUP14 TIMESTAMP PUSH2 0x3436 SWAP2 SWAP1 PUSH2 0x54D3 JUMP JUMPDEST DUP2 MSTORE PUSH1 0x20 ADD DUP4 PUSH1 0x2 DUP2 GT ISZERO PUSH2 0x345B JUMPI PUSH4 0x4E487B71 PUSH1 0xE0 SHL PUSH1 0x0 MSTORE PUSH1 0x21 PUSH1 0x4 MSTORE PUSH1 0x24 PUSH1 0x0 REVERT JUMPDEST SWAP1 MSTORE SWAP1 POP PUSH2 0x3467 PUSH2 0x2D39 JUMP JUMPDEST PUSH1 0x40 DUP1 MLOAD DUP1 DUP3 ADD DUP3 MSTORE DUP14 ISZERO ISZERO DUP2 MSTORE DUP13 ISZERO ISZERO PUSH1 0x20 DUP1 DUP4 ADD SWAP2 DUP3 MSTORE PUSH1 0x0 DUP6 DUP2 MSTORE PUSH1 0x15 SWAP1 SWAP2 MSTORE SWAP3 SWAP1 SWAP3 KECCAK256 SWAP1 MLOAD DUP2 SLOAD SWAP3 MLOAD PUSH2 0xFFFF NOT SWAP1 SWAP4 AND SWAP1 ISZERO ISZERO PUSH2 0xFF00 NOT AND OR PUSH2 0x100 SWAP3 ISZERO ISZERO SWAP3 SWAP1 SWAP3 MUL SWAP2 SWAP1 SWAP2 OR SWAP1 SSTORE SWAP7 POP PUSH2 0x34C0 DUP8 DUP3 PUSH2 0x2E7D JUMP JUMPDEST PUSH2 0x34DE DUP8 CALLER PUSH2 0x34D9 DUP11 DUP6 PUSH1 0x20 ADD MLOAD DUP7 PUSH1 0xA0 ADD MLOAD DUP9 PUSH2 0x3BED JUMP JUMPDEST PUSH2 0x3D2B JUMP JUMPDEST PUSH2 0x34E8 DUP8 DUP10 PUSH2 0x3D4E JUMP JUMPDEST PUSH1 0x0 PUSH2 0x34F4 DUP7 DUP12 PUSH2 0x3D58 JUMP JUMPDEST SWAP1 POP PUSH2 0x3509 DUP9 DUP4 PUSH1 0x60 ADD MLOAD DUP5 PUSH1 0x80 ADD MLOAD PUSH2 0x2F35 JUMP JUMPDEST CALLER PUSH1 0x1 PUSH1 0x1 PUSH1 0xA0 SHL SUB AND DUP9 PUSH32 0x89F823A0225C73A75066E963CE2EEA7708B57680EC86102773DBD244F5412892 DUP4 DUP11 DUP14 PUSH1 0x40 MLOAD PUSH2 0x3547 SWAP4 SWAP3 SWAP2 SWAP1 PUSH2 0x549E JUMP JUMPDEST PUSH1 0x40 MLOAD DUP1 SWAP2 SUB SWAP1 LOG3 POP POP POP POP POP POP POP SWAP8 SWAP7 POP POP POP POP POP POP POP JUMP JUMPDEST PUSH1 0x0 PUSH2 0x853 DUP3 SLOAD SWAP1 JUMP JUMPDEST PUSH2 0x3576 DUP5 DUP5 DUP5 PUSH2 0x24DE JUMP JUMPDEST PUSH2 0x3582 DUP5 DUP5 DUP5 DUP5 PUSH2 0x4219 JUMP JUMPDEST PUSH2 0x1015 JUMPI PUSH1 0x40 MLOAD PUSH3 0x461BCD PUSH1 0xE5 SHL DUP2 MSTORE PUSH1 0x4 ADD PUSH2 0x998 SWAP1 PUSH2 0x52E4 JUMP JUMPDEST PUSH2 0x35A7 CALLER PUSH2 0x1C5E JUMP JUMPDEST PUSH2 0x35D8 JUMPI PUSH1 0x40 MLOAD PUSH3 0x461BCD PUSH1 0xE5 SHL DUP2 MSTORE PUSH1 0x20 PUSH1 0x4 DUP3 ADD MSTORE PUSH1 0x2 PUSH1 0x24 DUP3 ADD MSTORE PUSH2 0x4E35 PUSH1 0xF0 SHL PUSH1 0x44 DUP3 ADD MSTORE PUSH1 0x64 ADD PUSH2 0x998 JUMP JUMPDEST DUP1 DUP3 EQ ISZERO PUSH2 0x360D JUMPI PUSH1 0x40 MLOAD PUSH3 0x461BCD PUSH1 0xE5 SHL DUP2 MSTORE PUSH1 0x20 PUSH1 0x4 DUP3 ADD MSTORE PUSH1 0x2 PUSH1 0x24 DUP3 ADD MSTORE PUSH2 0x271B PUSH1 0xF1 SHL PUSH1 0x44 DUP3 ADD MSTORE PUSH1 0x64 ADD PUSH2 0x998 JUMP JUMPDEST PUSH2 0x3616 DUP2 PUSH2 0xB14 JUMP JUMPDEST PUSH2 0x361F DUP4 PUSH2 0xB14 JUMP JUMPDEST EQ PUSH2 0x363C JUMPI PUSH1 0x40 MLOAD PUSH3 0x461BCD PUSH1 0xE5 SHL DUP2 MSTORE PUSH1 0x4 ADD PUSH2 0x998 SWAP1 PUSH2 0x5353 JUMP JUMPDEST PUSH1 0x0 PUSH2 0x3647 DUP4 PUSH2 0x101B JUMP JUMPDEST SWAP1 POP PUSH2 0x3652 DUP3 PUSH2 0x101B JUMP JUMPDEST PUSH1 0x1 PUSH1 0x1 PUSH1 0xA0 SHL SUB AND DUP2 PUSH1 0x1 PUSH1 0x1 PUSH1 0xA0 SHL SUB AND EQ PUSH2 0x3697 JUMPI PUSH1 0x40 MLOAD PUSH3 0x461BCD PUSH1 0xE5 SHL DUP2 MSTORE PUSH1 0x20 PUSH1 0x4 DUP3 ADD MSTORE PUSH1 0x2 PUSH1 0x24 DUP3 ADD MSTORE PUSH2 0x9C7 PUSH1 0xF3 SHL PUSH1 0x44 DUP3 ADD MSTORE PUSH1 0x64 ADD PUSH2 0x998 JUMP JUMPDEST PUSH1 0x0 DUP4 DUP2 MSTORE PUSH1 0xF PUSH1 0x20 MSTORE PUSH1 0x40 DUP1 DUP3 KECCAK256 SLOAD DUP5 DUP4 MSTORE SWAP2 KECCAK256 SLOAD PUSH2 0x36B7 SWAP1 DUP3 PUSH2 0x54D3 JUMP JUMPDEST PUSH1 0x0 DUP5 DUP2 MSTORE PUSH1 0xF PUSH1 0x20 MSTORE PUSH1 0x40 SWAP1 KECCAK256 SSTORE PUSH2 0x36CF DUP5 PUSH2 0x288D JUMP JUMPDEST DUP3 DUP5 DUP4 PUSH1 0x1 PUSH1 0x1 PUSH1 0xA0 SHL SUB AND PUSH32 0xB3CE851D16B3BBEC3774D5631A3893DFA2A80E067CFAD265DD594402AC3D6096 DUP5 PUSH1 0x40 MLOAD PUSH2 0x370C SWAP2 DUP2 MSTORE PUSH1 0x20 ADD SWAP1 JUMP JUMPDEST PUSH1 0x40 MLOAD DUP1 SWAP2 SUB SWAP1 LOG4 POP POP POP POP JUMP JUMPDEST PUSH1 0x60 PUSH2 0x3725 DUP3 PUSH2 0x2389 JUMP JUMPDEST PUSH2 0x378B JUMPI PUSH1 0x40 MLOAD PUSH3 0x461BCD PUSH1 0xE5 SHL DUP2 MSTORE PUSH1 0x20 PUSH1 0x4 DUP3 ADD MSTORE PUSH1 0x31 PUSH1 0x24 DUP3 ADD MSTORE PUSH32 0x45524337323155524953746F726167653A2055524920717565727920666F7220 PUSH1 0x44 DUP3 ADD MSTORE PUSH17 0x3737B732BC34B9BA32B73A103A37B5B2B7 PUSH1 0x79 SHL PUSH1 0x64 DUP3 ADD MSTORE PUSH1 0x84 ADD PUSH2 0x998 JUMP JUMPDEST PUSH1 0x0 DUP3 DUP2 MSTORE PUSH1 0x9 PUSH1 0x20 MSTORE PUSH1 0x40 DUP2 KECCAK256 DUP1 SLOAD PUSH2 0x37A4 SWAP1 PUSH2 0x5578 JUMP JUMPDEST DUP1 PUSH1 0x1F ADD PUSH1 0x20 DUP1 SWAP2 DIV MUL PUSH1 0x20 ADD PUSH1 0x40 MLOAD SWAP1 DUP2 ADD PUSH1 0x40 MSTORE DUP1 SWAP3 SWAP2 SWAP1 DUP2 DUP2 MSTORE PUSH1 0x20 ADD DUP3 DUP1 SLOAD PUSH2 0x37D0 SWAP1 PUSH2 0x5578 JUMP JUMPDEST DUP1 ISZERO PUSH2 0x381D JUMPI DUP1 PUSH1 0x1F LT PUSH2 0x37F2 JUMPI PUSH2 0x100 DUP1 DUP4 SLOAD DIV MUL DUP4 MSTORE SWAP2 PUSH1 0x20 ADD SWAP2 PUSH2 0x381D JUMP JUMPDEST DUP3 ADD SWAP2 SWAP1 PUSH1 0x0 MSTORE PUSH1 0x20 PUSH1 0x0 KECCAK256 SWAP1 JUMPDEST DUP2 SLOAD DUP2 MSTORE SWAP1 PUSH1 0x1 ADD SWAP1 PUSH1 0x20 ADD DUP1 DUP4 GT PUSH2 0x3800 JUMPI DUP3 SWAP1 SUB PUSH1 0x1F AND DUP3 ADD SWAP2 JUMPDEST POP POP POP POP POP SWAP1 POP PUSH1 0x0 PUSH2 0x382E PUSH2 0x4326 JUMP JUMPDEST SWAP1 POP DUP1 MLOAD PUSH1 0x0 EQ ISZERO PUSH2 0x3841 JUMPI POP SWAP3 SWAP2 POP POP JUMP JUMPDEST DUP2 MLOAD ISZERO PUSH2 0x3873 JUMPI DUP1 DUP3 PUSH1 0x40 MLOAD PUSH1 0x20 ADD PUSH2 0x385B SWAP3 SWAP2 SWAP1 PUSH2 0x5121 JUMP JUMPDEST PUSH1 0x40 MLOAD PUSH1 0x20 DUP2 DUP4 SUB SUB DUP2 MSTORE SWAP1 PUSH1 0x40 MSTORE SWAP3 POP POP POP SWAP2 SWAP1 POP JUMP JUMPDEST PUSH2 0x24D6 DUP5 PUSH2 0x4346 JUMP JUMPDEST PUSH1 0x0 PUSH2 0x1F29 DUP4 DUP4 PUSH2 0x4410 JUMP JUMPDEST PUSH1 0x0 PUSH1 0x1 PUSH1 0x1 PUSH1 0xE0 SHL SUB NOT DUP3 AND PUSH4 0x80AC58CD PUSH1 0xE0 SHL EQ DUP1 PUSH2 0x38B9 JUMPI POP PUSH1 0x1 PUSH1 0x1 PUSH1 0xE0 SHL SUB NOT DUP3 AND PUSH4 0x5B5E139F PUSH1 0xE0 SHL EQ JUMPDEST DUP1 PUSH2 0x853 JUMPI POP PUSH4 0x1FFC9A7 PUSH1 0xE0 SHL PUSH1 0x1 PUSH1 0x1 PUSH1 0xE0 SHL SUB NOT DUP4 AND EQ PUSH2 0x853 JUMP JUMPDEST PUSH1 0x1 PUSH1 0x1 PUSH1 0xA0 SHL SUB DUP4 AND ISZERO PUSH2 0xAC9 JUMPI PUSH2 0xAC9 DUP2 PUSH2 0x4448 JUMP JUMPDEST PUSH1 0x60 PUSH1 0x0 PUSH2 0x38FF DUP4 PUSH1 0x2 PUSH2 0x54FF JUMP JUMPDEST PUSH2 0x390A SWAP1 PUSH1 0x2 PUSH2 0x54D3 JUMP JUMPDEST PUSH1 0x1 PUSH1 0x1 PUSH1 0x40 SHL SUB DUP2 GT ISZERO PUSH2 0x392F JUMPI PUSH4 0x4E487B71 PUSH1 0xE0 SHL PUSH1 0x0 MSTORE PUSH1 0x41 PUSH1 0x4 MSTORE PUSH1 0x24 PUSH1 0x0 REVERT JUMPDEST PUSH1 0x40 MLOAD SWAP1 DUP1 DUP3 MSTORE DUP1 PUSH1 0x1F ADD PUSH1 0x1F NOT AND PUSH1 0x20 ADD DUP3 ADD PUSH1 0x40 MSTORE DUP1 ISZERO PUSH2 0x3959 JUMPI PUSH1 0x20 DUP3 ADD DUP2 DUP1 CALLDATASIZE DUP4 CALLDATACOPY ADD SWAP1 POP JUMPDEST POP SWAP1 POP PUSH1 0x3 PUSH1 0xFC SHL DUP2 PUSH1 0x0 DUP2 MLOAD DUP2 LT PUSH2 0x3982 JUMPI PUSH4 0x4E487B71 PUSH1 0xE0 SHL PUSH1 0x0 MSTORE PUSH1 0x32 PUSH1 0x4 MSTORE PUSH1 0x24 PUSH1 0x0 REVERT JUMPDEST PUSH1 0x20 ADD ADD SWAP1 PUSH1 0x1 PUSH1 0x1 PUSH1 0xF8 SHL SUB NOT AND SWAP1 DUP2 PUSH1 0x0 BYTE SWAP1 MSTORE8 POP PUSH1 0xF PUSH1 0xFB SHL DUP2 PUSH1 0x1 DUP2 MLOAD DUP2 LT PUSH2 0x39BF JUMPI PUSH4 0x4E487B71 PUSH1 0xE0 SHL PUSH1 0x0 MSTORE PUSH1 0x32 PUSH1 0x4 MSTORE PUSH1 0x24 PUSH1 0x0 REVERT JUMPDEST PUSH1 0x20 ADD ADD SWAP1 PUSH1 0x1 PUSH1 0x1 PUSH1 0xF8 SHL SUB NOT AND SWAP1 DUP2 PUSH1 0x0 BYTE SWAP1 MSTORE8 POP PUSH1 0x0 PUSH2 0x39E3 DUP5 PUSH1 0x2 PUSH2 0x54FF JUMP JUMPDEST PUSH2 0x39EE SWAP1 PUSH1 0x1 PUSH2 0x54D3 JUMP JUMPDEST SWAP1 POP JUMPDEST PUSH1 0x1 DUP2 GT ISZERO PUSH2 0x3A82 JUMPI PUSH16 0x181899199A1A9B1B9C1CB0B131B232B3 PUSH1 0x81 SHL DUP6 PUSH1 0xF AND PUSH1 0x10 DUP2 LT PUSH2 0x3A30 JUMPI PUSH4 0x4E487B71 PUSH1 0xE0 SHL PUSH1 0x0 MSTORE PUSH1 0x32 PUSH1 0x4 MSTORE PUSH1 0x24 PUSH1 0x0 REVERT JUMPDEST BYTE PUSH1 0xF8 SHL DUP3 DUP3 DUP2 MLOAD DUP2 LT PUSH2 0x3A54 JUMPI PUSH4 0x4E487B71 PUSH1 0xE0 SHL PUSH1 0x0 MSTORE PUSH1 0x32 PUSH1 0x4 MSTORE PUSH1 0x24 PUSH1 0x0 REVERT JUMPDEST PUSH1 0x20 ADD ADD SWAP1 PUSH1 0x1 PUSH1 0x1 PUSH1 0xF8 SHL SUB NOT AND SWAP1 DUP2 PUSH1 0x0 BYTE SWAP1 MSTORE8 POP PUSH1 0x4 SWAP5 SWAP1 SWAP5 SHR SWAP4 PUSH2 0x3A7B DUP2 PUSH2 0x5561 JUMP JUMPDEST SWAP1 POP PUSH2 0x39F1 JUMP JUMPDEST POP DUP4 ISZERO PUSH2 0x1F29 JUMPI PUSH1 0x40 MLOAD PUSH3 0x461BCD PUSH1 0xE5 SHL DUP2 MSTORE PUSH1 0x20 PUSH1 0x4 DUP3 ADD DUP2 SWAP1 MSTORE PUSH1 0x24 DUP3 ADD MSTORE PUSH32 0x537472696E67733A20686578206C656E67746820696E73756666696369656E74 PUSH1 0x44 DUP3 ADD MSTORE PUSH1 0x64 ADD PUSH2 0x998 JUMP JUMPDEST PUSH1 0x0 PUSH2 0x3ADC DUP3 PUSH2 0x101B JUMP JUMPDEST SWAP1 POP PUSH1 0x0 PUSH2 0x3AE9 DUP4 PUSH2 0xB14 JUMP JUMPDEST PUSH1 0x0 DUP5 DUP2 MSTORE PUSH1 0xF PUSH1 0x20 SWAP1 DUP2 MSTORE PUSH1 0x40 DUP1 DUP4 KECCAK256 SLOAD DUP5 DUP5 MSTORE PUSH1 0xC SWAP1 SWAP3 MSTORE SWAP1 SWAP2 KECCAK256 SWAP2 SWAP3 POP SWAP1 PUSH2 0x3B14 SWAP1 DUP6 PUSH2 0x44FC JUMP JUMPDEST POP PUSH1 0x0 DUP5 DUP2 MSTORE PUSH1 0xF PUSH1 0x20 MSTORE PUSH1 0x40 DUP2 KECCAK256 SSTORE PUSH2 0x3B2D DUP5 PUSH2 0x4508 JUMP JUMPDEST DUP4 PUSH1 0x0 PUSH1 0x1 PUSH1 0x1 PUSH1 0xA0 SHL SUB AND DUP5 PUSH1 0x1 PUSH1 0x1 PUSH1 0xA0 SHL SUB AND PUSH1 0x0 DUP1 MLOAD PUSH1 0x20 PUSH2 0x56B0 DUP4 CODECOPY DUP2 MLOAD SWAP2 MSTORE PUSH1 0x0 DUP6 PUSH1 0x40 MLOAD PUSH2 0x370C SWAP3 SWAP2 SWAP1 PUSH2 0x52A7 JUMP JUMPDEST PUSH2 0x3B6C DUP4 PUSH2 0x2389 JUMP JUMPDEST PUSH2 0x3B94 JUMPI PUSH2 0x3B7A DUP5 DUP5 PUSH2 0x459D JUMP JUMPDEST PUSH1 0x0 DUP3 DUP2 MSTORE PUSH1 0xC PUSH1 0x20 MSTORE PUSH1 0x40 SWAP1 KECCAK256 PUSH2 0x3B92 SWAP1 DUP5 PUSH2 0x46C9 JUMP JUMPDEST POP JUMPDEST PUSH1 0x0 DUP4 DUP2 MSTORE PUSH1 0xF PUSH1 0x20 MSTORE PUSH1 0x40 SWAP1 KECCAK256 SLOAD PUSH2 0x3BAE SWAP1 DUP3 SWAP1 PUSH2 0x54D3 JUMP JUMPDEST PUSH1 0x0 DUP5 DUP2 MSTORE PUSH1 0xF PUSH1 0x20 MSTORE PUSH1 0x40 DUP1 DUP3 KECCAK256 SWAP3 SWAP1 SWAP3 SSTORE SWAP1 MLOAD PUSH1 0x1 PUSH1 0x1 PUSH1 0xA0 SHL SUB DUP7 AND SWAP1 DUP3 SWAP1 PUSH1 0x0 DUP1 MLOAD PUSH1 0x20 PUSH2 0x56B0 DUP4 CODECOPY DUP2 MLOAD SWAP2 MSTORE SWAP1 PUSH2 0x370C SWAP1 DUP9 SWAP1 DUP8 SWAP1 PUSH2 0x52A7 JUMP JUMPDEST PUSH1 0x0 DUP4 DUP4 DUP4 DUP8 PUSH1 0x40 MLOAD PUSH1 0x20 ADD PUSH2 0x3C06 SWAP5 SWAP4 SWAP3 SWAP2 SWAP1 PUSH2 0x5474 JUMP JUMPDEST PUSH1 0x40 DUP1 MLOAD DUP1 DUP4 SUB PUSH1 0x1F NOT ADD DUP2 MSTORE SWAP2 DUP2 MSTORE DUP2 MLOAD PUSH1 0x20 SWAP3 DUP4 ADD KECCAK256 PUSH1 0x0 DUP2 DUP2 MSTORE PUSH1 0x1A SWAP1 SWAP4 MSTORE SWAP2 KECCAK256 PUSH1 0x2 ADD SLOAD SWAP1 SWAP2 POP PUSH2 0x100 SWAP1 DIV PUSH1 0xFF AND ISZERO PUSH2 0x3C6C JUMPI PUSH1 0x40 MLOAD PUSH3 0x461BCD PUSH1 0xE5 SHL DUP2 MSTORE PUSH1 0x20 PUSH1 0x4 DUP3 ADD MSTORE PUSH1 0x3 PUSH1 0x24 DUP3 ADD MSTORE PUSH3 0x138C4D PUSH1 0xEA SHL PUSH1 0x44 DUP3 ADD MSTORE PUSH1 0x64 ADD PUSH2 0x998 JUMP JUMPDEST PUSH1 0x40 MLOAD DUP1 PUSH1 0x80 ADD PUSH1 0x40 MSTORE DUP1 DUP6 DUP2 MSTORE PUSH1 0x20 ADD DUP5 DUP2 MSTORE PUSH1 0x20 ADD DUP4 PUSH1 0x2 DUP2 GT ISZERO PUSH2 0x3CA3 JUMPI PUSH4 0x4E487B71 PUSH1 0xE0 SHL PUSH1 0x0 MSTORE PUSH1 0x21 PUSH1 0x4 MSTORE PUSH1 0x24 PUSH1 0x0 REVERT JUMPDEST DUP2 MSTORE PUSH1 0x1 PUSH1 0x20 SWAP2 DUP3 ADD DUP2 SWAP1 MSTORE PUSH1 0x0 DUP5 DUP2 MSTORE PUSH1 0x1A DUP4 MSTORE PUSH1 0x40 SWAP1 DUP2 SWAP1 KECCAK256 DUP5 MLOAD DUP2 SSTORE SWAP3 DUP5 ADD MLOAD DUP4 DUP4 ADD SSTORE DUP4 ADD MLOAD PUSH1 0x2 DUP1 DUP5 ADD DUP1 SLOAD SWAP3 SWAP4 SWAP1 SWAP3 PUSH1 0xFF NOT AND SWAP2 DUP5 SWAP1 DUP2 GT ISZERO PUSH2 0x3CFC JUMPI PUSH4 0x4E487B71 PUSH1 0xE0 SHL PUSH1 0x0 MSTORE PUSH1 0x21 PUSH1 0x4 MSTORE PUSH1 0x24 PUSH1 0x0 REVERT JUMPDEST MUL OR SWAP1 SSTORE POP PUSH1 0x60 SWAP2 SWAP1 SWAP2 ADD MLOAD PUSH1 0x2 SWAP1 SWAP2 ADD DUP1 SLOAD SWAP2 ISZERO ISZERO PUSH2 0x100 MUL PUSH2 0xFF00 NOT SWAP1 SWAP3 AND SWAP2 SWAP1 SWAP2 OR SWAP1 SSTORE SWAP5 SWAP4 POP POP POP POP JUMP JUMPDEST PUSH1 0x0 DUP4 DUP2 MSTORE PUSH1 0xA PUSH1 0x20 MSTORE PUSH1 0x40 SWAP1 KECCAK256 DUP2 SWAP1 SSTORE PUSH1 0xD SLOAD PUSH2 0xAC9 SWAP1 DUP4 SWAP1 DUP6 SWAP1 DUP5 SWAP1 PUSH2 0x3B63 JUMP JUMPDEST PUSH2 0xBBD DUP3 DUP3 PUSH2 0x46D5 JUMP JUMPDEST PUSH1 0x0 PUSH1 0x64 PUSH1 0x19 PUSH1 0x0 SWAP1 SLOAD SWAP1 PUSH2 0x100 EXP SWAP1 DIV PUSH1 0x1 PUSH1 0x1 PUSH1 0xA0 SHL SUB AND PUSH1 0x1 PUSH1 0x1 PUSH1 0xA0 SHL SUB AND PUSH4 0xCA535C3B PUSH1 0x40 MLOAD DUP2 PUSH4 0xFFFFFFFF AND PUSH1 0xE0 SHL DUP2 MSTORE PUSH1 0x4 ADD PUSH1 0x20 PUSH1 0x40 MLOAD DUP1 DUP4 SUB DUP2 DUP7 DUP1 EXTCODESIZE ISZERO DUP1 ISZERO PUSH2 0x3DAA JUMPI PUSH1 0x0 DUP1 REVERT JUMPDEST POP GAS STATICCALL ISZERO DUP1 ISZERO PUSH2 0x3DBE JUMPI RETURNDATASIZE PUSH1 0x0 DUP1 RETURNDATACOPY RETURNDATASIZE PUSH1 0x0 REVERT JUMPDEST POP POP POP POP PUSH1 0x40 MLOAD RETURNDATASIZE PUSH1 0x1F NOT PUSH1 0x1F DUP3 ADD AND DUP3 ADD DUP1 PUSH1 0x40 MSTORE POP DUP2 ADD SWAP1 PUSH2 0x3DE2 SWAP2 SWAP1 PUSH2 0x4F19 JUMP JUMPDEST PUSH2 0x3DEC SWAP1 DUP6 PUSH2 0x54FF JUMP JUMPDEST PUSH2 0x3DF6 SWAP2 SWAP1 PUSH2 0x54EB JUMP JUMPDEST SWAP1 POP DUP1 ISZERO PUSH2 0x3EF7 JUMPI PUSH1 0x10 SLOAD PUSH1 0x19 SLOAD PUSH1 0x40 DUP1 MLOAD PUSH4 0x605CC77 PUSH1 0xE2 SHL DUP2 MSTORE SWAP1 MLOAD PUSH1 0x1 PUSH1 0x1 PUSH1 0xA0 SHL SUB SWAP4 DUP5 AND SWAP4 PUSH4 0xA9059CBB SWAP4 AND SWAP2 PUSH4 0x181731DC SWAP2 PUSH1 0x4 DUP1 DUP4 ADD SWAP3 PUSH1 0x20 SWAP3 SWAP2 SWAP1 DUP3 SWAP1 SUB ADD DUP2 DUP7 DUP1 EXTCODESIZE ISZERO DUP1 ISZERO PUSH2 0x3E4D JUMPI PUSH1 0x0 DUP1 REVERT JUMPDEST POP GAS STATICCALL ISZERO DUP1 ISZERO PUSH2 0x3E61 JUMPI RETURNDATASIZE PUSH1 0x0 DUP1 RETURNDATACOPY RETURNDATASIZE PUSH1 0x0 REVERT JUMPDEST POP POP POP POP PUSH1 0x40 MLOAD RETURNDATASIZE PUSH1 0x1F NOT PUSH1 0x1F DUP3 ADD AND DUP3 ADD DUP1 PUSH1 0x40 MSTORE POP DUP2 ADD SWAP1 PUSH2 0x3E85 SWAP2 SWAP1 PUSH2 0x4BD0 JUMP JUMPDEST DUP4 PUSH1 0x40 MLOAD DUP4 PUSH4 0xFFFFFFFF AND PUSH1 0xE0 SHL DUP2 MSTORE PUSH1 0x4 ADD PUSH2 0x3EA3 SWAP3 SWAP2 SWAP1 PUSH2 0x51FC JUMP JUMPDEST PUSH1 0x20 PUSH1 0x40 MLOAD DUP1 DUP4 SUB DUP2 PUSH1 0x0 DUP8 DUP1 EXTCODESIZE ISZERO DUP1 ISZERO PUSH2 0x3EBD JUMPI PUSH1 0x0 DUP1 REVERT JUMPDEST POP GAS CALL ISZERO DUP1 ISZERO PUSH2 0x3ED1 JUMPI RETURNDATASIZE PUSH1 0x0 DUP1 RETURNDATACOPY RETURNDATASIZE PUSH1 0x0 REVERT JUMPDEST POP POP POP POP PUSH1 0x40 MLOAD RETURNDATASIZE PUSH1 0x1F NOT PUSH1 0x1F DUP3 ADD AND DUP3 ADD DUP1 PUSH1 0x40 MSTORE POP DUP2 ADD SWAP1 PUSH2 0x3EF5 SWAP2 SWAP1 PUSH2 0x4E89 JUMP JUMPDEST POP JUMPDEST PUSH1 0x0 PUSH2 0x3F03 DUP3 DUP6 PUSH2 0x551E JUMP JUMPDEST SWAP1 POP DUP1 ISZERO PUSH2 0x4212 JUMPI PUSH1 0x19 SLOAD PUSH1 0x40 DUP1 MLOAD PUSH4 0x4905129F PUSH1 0xE1 SHL DUP2 MSTORE SWAP1 MLOAD PUSH1 0x0 SWAP3 PUSH1 0x1 PUSH1 0x1 PUSH1 0xA0 SHL SUB AND SWAP2 PUSH4 0x920A253E SWAP2 PUSH1 0x4 DUP1 DUP4 ADD SWAP3 PUSH1 0x20 SWAP3 SWAP2 SWAP1 DUP3 SWAP1 SUB ADD DUP2 DUP7 DUP1 EXTCODESIZE ISZERO DUP1 ISZERO PUSH2 0x3F50 JUMPI PUSH1 0x0 DUP1 REVERT JUMPDEST POP GAS STATICCALL ISZERO DUP1 ISZERO PUSH2 0x3F64 JUMPI RETURNDATASIZE PUSH1 0x0 DUP1 RETURNDATACOPY RETURNDATASIZE PUSH1 0x0 REVERT JUMPDEST POP POP POP POP PUSH1 0x40 MLOAD RETURNDATASIZE PUSH1 0x1F NOT PUSH1 0x1F DUP3 ADD AND DUP3 ADD DUP1 PUSH1 0x40 MSTORE POP DUP2 ADD SWAP1 PUSH2 0x3F88 SWAP2 SWAP1 PUSH2 0x4F19 JUMP JUMPDEST GT DUP1 ISZERO PUSH2 0x3FAE JUMPI POP PUSH2 0x3F98 PUSH2 0x17E9 JUMP JUMPDEST PUSH1 0x1 PUSH1 0x1 PUSH1 0xA0 SHL SUB AND DUP4 PUSH1 0x1 PUSH1 0x1 PUSH1 0xA0 SHL SUB AND EQ ISZERO JUMPDEST DUP1 ISZERO PUSH2 0x3FC3 JUMPI POP PUSH1 0x1 PUSH1 0x1 PUSH1 0xA0 SHL SUB DUP4 AND CALLER EQ ISZERO JUMPDEST ISZERO PUSH2 0x413D JUMPI PUSH1 0x0 PUSH1 0x64 PUSH1 0x19 PUSH1 0x0 SWAP1 SLOAD SWAP1 PUSH2 0x100 EXP SWAP1 DIV PUSH1 0x1 PUSH1 0x1 PUSH1 0xA0 SHL SUB AND PUSH1 0x1 PUSH1 0x1 PUSH1 0xA0 SHL SUB AND PUSH4 0x920A253E PUSH1 0x40 MLOAD DUP2 PUSH4 0xFFFFFFFF AND PUSH1 0xE0 SHL DUP2 MSTORE PUSH1 0x4 ADD PUSH1 0x20 PUSH1 0x40 MLOAD DUP1 DUP4 SUB DUP2 DUP7 DUP1 EXTCODESIZE ISZERO DUP1 ISZERO PUSH2 0x401A JUMPI PUSH1 0x0 DUP1 REVERT JUMPDEST POP GAS STATICCALL ISZERO DUP1 ISZERO PUSH2 0x402E JUMPI RETURNDATASIZE PUSH1 0x0 DUP1 RETURNDATACOPY RETURNDATASIZE PUSH1 0x0 REVERT JUMPDEST POP POP POP POP PUSH1 0x40 MLOAD RETURNDATASIZE PUSH1 0x1F NOT PUSH1 0x1F DUP3 ADD AND DUP3 ADD DUP1 PUSH1 0x40 MSTORE POP DUP2 ADD SWAP1 PUSH2 0x4052 SWAP2 SWAP1 PUSH2 0x4F19 JUMP JUMPDEST PUSH2 0x405C SWAP1 DUP5 PUSH2 0x54FF JUMP JUMPDEST PUSH2 0x4066 SWAP2 SWAP1 PUSH2 0x54EB JUMP JUMPDEST SWAP1 POP PUSH2 0x4072 DUP2 DUP4 PUSH2 0x551E JUMP JUMPDEST PUSH1 0x10 SLOAD PUSH1 0x40 MLOAD PUSH4 0xA9059CBB PUSH1 0xE0 SHL DUP2 MSTORE SWAP2 SWAP4 POP PUSH1 0x1 PUSH1 0x1 PUSH1 0xA0 SHL SUB AND SWAP1 PUSH4 0xA9059CBB SWAP1 PUSH2 0x40A5 SWAP1 DUP8 SWAP1 DUP6 SWAP1 PUSH1 0x4 ADD PUSH2 0x51FC JUMP JUMPDEST PUSH1 0x20 PUSH1 0x40 MLOAD DUP1 DUP4 SUB DUP2 PUSH1 0x0 DUP8 DUP1 EXTCODESIZE ISZERO DUP1 ISZERO PUSH2 0x40BF JUMPI PUSH1 0x0 DUP1 REVERT JUMPDEST POP GAS CALL ISZERO DUP1 ISZERO PUSH2 0x40D3 JUMPI RETURNDATASIZE PUSH1 0x0 DUP1 RETURNDATACOPY RETURNDATASIZE PUSH1 0x0 REVERT JUMPDEST POP POP POP POP PUSH1 0x40 MLOAD RETURNDATASIZE PUSH1 0x1F NOT PUSH1 0x1F DUP3 ADD AND DUP3 ADD DUP1 PUSH1 0x40 MSTORE POP DUP2 ADD SWAP1 PUSH2 0x40F7 SWAP2 SWAP1 PUSH2 0x4E89 JUMP JUMPDEST POP DUP4 PUSH1 0x1 PUSH1 0x1 PUSH1 0xA0 SHL SUB AND PUSH32 0x2FC41B7D7DF3272C17D9B581FCF235307BC027599C6ED68442C4100BD3A84198 DUP3 PUSH1 0x40 MLOAD PUSH2 0x4133 SWAP2 DUP2 MSTORE PUSH1 0x20 ADD SWAP1 JUMP JUMPDEST PUSH1 0x40 MLOAD DUP1 SWAP2 SUB SWAP1 LOG2 POP JUMPDEST PUSH1 0x10 SLOAD PUSH1 0x1 PUSH1 0x1 PUSH1 0xA0 SHL SUB AND PUSH4 0xA9059CBB PUSH2 0x4156 PUSH2 0x17E9 JUMP JUMPDEST DUP4 PUSH1 0x40 MLOAD DUP4 PUSH4 0xFFFFFFFF AND PUSH1 0xE0 SHL DUP2 MSTORE PUSH1 0x4 ADD PUSH2 0x4174 SWAP3 SWAP2 SWAP1 PUSH2 0x51FC JUMP JUMPDEST PUSH1 0x20 PUSH1 0x40 MLOAD DUP1 DUP4 SUB DUP2 PUSH1 0x0 DUP8 DUP1 EXTCODESIZE ISZERO DUP1 ISZERO PUSH2 0x418E JUMPI PUSH1 0x0 DUP1 REVERT JUMPDEST POP GAS CALL ISZERO DUP1 ISZERO PUSH2 0x41A2 JUMPI RETURNDATASIZE PUSH1 0x0 DUP1 RETURNDATACOPY RETURNDATASIZE PUSH1 0x0 REVERT JUMPDEST POP POP POP POP PUSH1 0x40 MLOAD RETURNDATASIZE PUSH1 0x1F NOT PUSH1 0x1F DUP3 ADD AND DUP3 ADD DUP1 PUSH1 0x40 MSTORE POP DUP2 ADD SWAP1 PUSH2 0x41C6 SWAP2 SWAP1 PUSH2 0x4E89 JUMP JUMPDEST POP PUSH2 0x41CF PUSH2 0x17E9 JUMP JUMPDEST PUSH1 0x1 PUSH1 0x1 PUSH1 0xA0 SHL SUB AND PUSH32 0xF0F0487D8990103573E0E5CF4E87E101E2A1BA84C733C556B7A5807E570E5D4C DUP3 PUSH1 0x40 MLOAD PUSH2 0x4209 SWAP2 DUP2 MSTORE PUSH1 0x20 ADD SWAP1 JUMP JUMPDEST PUSH1 0x40 MLOAD DUP1 SWAP2 SUB SWAP1 LOG2 JUMPDEST POP SWAP3 SWAP2 POP POP JUMP JUMPDEST PUSH1 0x0 PUSH1 0x1 PUSH1 0x1 PUSH1 0xA0 SHL SUB DUP5 AND EXTCODESIZE ISZERO PUSH2 0x431B JUMPI PUSH1 0x40 MLOAD PUSH4 0xA85BD01 PUSH1 0xE1 SHL DUP2 MSTORE PUSH1 0x1 PUSH1 0x1 PUSH1 0xA0 SHL SUB DUP6 AND SWAP1 PUSH4 0x150B7A02 SWAP1 PUSH2 0x425D SWAP1 CALLER SWAP1 DUP10 SWAP1 DUP9 SWAP1 DUP9 SWAP1 PUSH1 0x4 ADD PUSH2 0x51BF JUMP JUMPDEST PUSH1 0x20 PUSH1 0x40 MLOAD DUP1 DUP4 SUB DUP2 PUSH1 0x0 DUP8 DUP1 EXTCODESIZE ISZERO DUP1 ISZERO PUSH2 0x4277 JUMPI PUSH1 0x0 DUP1 REVERT JUMPDEST POP GAS CALL SWAP3 POP POP POP DUP1 ISZERO PUSH2 0x42A7 JUMPI POP PUSH1 0x40 DUP1 MLOAD PUSH1 0x1F RETURNDATASIZE SWAP1 DUP2 ADD PUSH1 0x1F NOT AND DUP3 ADD SWAP1 SWAP3 MSTORE PUSH2 0x42A4 SWAP2 DUP2 ADD SWAP1 PUSH2 0x4EFD JUMP JUMPDEST PUSH1 0x1 JUMPDEST PUSH2 0x4301 JUMPI RETURNDATASIZE DUP1 DUP1 ISZERO PUSH2 0x42D5 JUMPI PUSH1 0x40 MLOAD SWAP2 POP PUSH1 0x1F NOT PUSH1 0x3F RETURNDATASIZE ADD AND DUP3 ADD PUSH1 0x40 MSTORE RETURNDATASIZE DUP3 MSTORE RETURNDATASIZE PUSH1 0x0 PUSH1 0x20 DUP5 ADD RETURNDATACOPY PUSH2 0x42DA JUMP JUMPDEST PUSH1 0x60 SWAP2 POP JUMPDEST POP DUP1 MLOAD PUSH2 0x42F9 JUMPI PUSH1 0x40 MLOAD PUSH3 0x461BCD PUSH1 0xE5 SHL DUP2 MSTORE PUSH1 0x4 ADD PUSH2 0x998 SWAP1 PUSH2 0x52E4 JUMP JUMPDEST DUP1 MLOAD DUP2 PUSH1 0x20 ADD REVERT JUMPDEST PUSH1 0x1 PUSH1 0x1 PUSH1 0xE0 SHL SUB NOT AND PUSH4 0xA85BD01 PUSH1 0xE1 SHL EQ SWAP1 POP PUSH2 0x24D6 JUMP JUMPDEST POP PUSH1 0x1 SWAP5 SWAP4 POP POP POP POP JUMP JUMPDEST PUSH1 0x60 PUSH1 0x40 MLOAD DUP1 PUSH1 0x60 ADD PUSH1 0x40 MSTORE DUP1 PUSH1 0x22 DUP2 MSTORE PUSH1 0x20 ADD PUSH2 0x566E PUSH1 0x22 SWAP2 CODECOPY SWAP1 POP SWAP1 JUMP JUMPDEST PUSH1 0x60 PUSH2 0x4351 DUP3 PUSH2 0x2389 JUMP JUMPDEST PUSH2 0x43B5 JUMPI PUSH1 0x40 MLOAD PUSH3 0x461BCD PUSH1 0xE5 SHL DUP2 MSTORE PUSH1 0x20 PUSH1 0x4 DUP3 ADD MSTORE PUSH1 0x2F PUSH1 0x24 DUP3 ADD MSTORE PUSH32 0x4552433732314D657461646174613A2055524920717565727920666F72206E6F PUSH1 0x44 DUP3 ADD MSTORE PUSH15 0x3732BC34B9BA32B73A103A37B5B2B7 PUSH1 0x89 SHL PUSH1 0x64 DUP3 ADD MSTORE PUSH1 0x84 ADD PUSH2 0x998 JUMP JUMPDEST PUSH1 0x0 PUSH2 0x43BF PUSH2 0x4326 JUMP JUMPDEST SWAP1 POP PUSH1 0x0 DUP2 MLOAD GT PUSH2 0x43DF JUMPI PUSH1 0x40 MLOAD DUP1 PUSH1 0x20 ADD PUSH1 0x40 MSTORE DUP1 PUSH1 0x0 DUP2 MSTORE POP PUSH2 0x1F29 JUMP JUMPDEST DUP1 PUSH2 0x43E9 DUP5 PUSH2 0x4760 JUMP JUMPDEST PUSH1 0x40 MLOAD PUSH1 0x20 ADD PUSH2 0x43FA SWAP3 SWAP2 SWAP1 PUSH2 0x5121 JUMP JUMPDEST PUSH1 0x40 MLOAD PUSH1 0x20 DUP2 DUP4 SUB SUB DUP2 MSTORE SWAP1 PUSH1 0x40 MSTORE SWAP4 SWAP3 POP POP POP JUMP JUMPDEST PUSH1 0x0 DUP3 PUSH1 0x0 ADD DUP3 DUP2 SLOAD DUP2 LT PUSH2 0x4435 JUMPI PUSH4 0x4E487B71 PUSH1 0xE0 SHL PUSH1 0x0 MSTORE PUSH1 0x32 PUSH1 0x4 MSTORE PUSH1 0x24 PUSH1 0x0 REVERT JUMPDEST SWAP1 PUSH1 0x0 MSTORE PUSH1 0x20 PUSH1 0x0 KECCAK256 ADD SLOAD SWAP1 POP SWAP3 SWAP2 POP POP JUMP JUMPDEST PUSH1 0x0 DUP2 DUP2 MSTORE PUSH1 0xB PUSH1 0x20 MSTORE PUSH1 0x40 DUP2 KECCAK256 SWAP1 JUMPDEST DUP2 SLOAD DUP2 LT ISZERO PUSH2 0xAC9 JUMPI DUP2 PUSH1 0x1 ADD PUSH1 0x0 DUP4 PUSH1 0x0 ADD DUP4 DUP2 SLOAD DUP2 LT PUSH2 0x448A JUMPI PUSH4 0x4E487B71 PUSH1 0xE0 SHL PUSH1 0x0 MSTORE PUSH1 0x32 PUSH1 0x4 MSTORE PUSH1 0x24 PUSH1 0x0 REVERT JUMPDEST PUSH1 0x0 SWAP2 DUP3 MSTORE PUSH1 0x20 DUP1 DUP4 KECCAK256 SWAP1 SWAP2 ADD SLOAD PUSH1 0x1 PUSH1 0x1 PUSH1 0xA0 SHL SUB AND DUP4 MSTORE DUP3 ADD SWAP3 SWAP1 SWAP3 MSTORE PUSH1 0x40 ADD DUP2 KECCAK256 SSTORE DUP2 SLOAD DUP3 SWAP1 DUP3 SWAP1 DUP2 LT PUSH2 0x44D1 JUMPI PUSH4 0x4E487B71 PUSH1 0xE0 SHL PUSH1 0x0 MSTORE PUSH1 0x32 PUSH1 0x4 MSTORE PUSH1 0x24 PUSH1 0x0 REVERT JUMPDEST PUSH1 0x0 SWAP2 DUP3 MSTORE PUSH1 0x20 SWAP1 SWAP2 KECCAK256 ADD DUP1 SLOAD PUSH1 0x1 PUSH1 0x1 PUSH1 0xA0 SHL SUB NOT AND SWAP1 SSTORE DUP1 PUSH2 0x44F4 DUP2 PUSH2 0x55AD JUMP JUMPDEST SWAP2 POP POP PUSH2 0x4458 JUMP JUMPDEST PUSH1 0x0 PUSH2 0x1F29 DUP4 DUP4 PUSH2 0x4879 JUMP JUMPDEST PUSH1 0x0 PUSH2 0x4513 DUP3 PUSH2 0x101B JUMP JUMPDEST SWAP1 POP PUSH2 0x4521 DUP2 PUSH1 0x0 DUP5 PUSH2 0x38D8 JUMP JUMPDEST PUSH2 0x452C PUSH1 0x0 DUP4 PUSH2 0x23A6 JUMP JUMPDEST PUSH1 0x1 PUSH1 0x1 PUSH1 0xA0 SHL SUB DUP2 AND PUSH1 0x0 SWAP1 DUP2 MSTORE PUSH1 0x3 PUSH1 0x20 MSTORE PUSH1 0x40 DUP2 KECCAK256 DUP1 SLOAD PUSH1 0x1 SWAP3 SWAP1 PUSH2 0x4555 SWAP1 DUP5 SWAP1 PUSH2 0x551E JUMP JUMPDEST SWAP1 SWAP2 SSTORE POP POP PUSH1 0x0 DUP3 DUP2 MSTORE PUSH1 0x2 PUSH1 0x20 MSTORE PUSH1 0x40 DUP1 DUP3 KECCAK256 DUP1 SLOAD PUSH1 0x1 PUSH1 0x1 PUSH1 0xA0 SHL SUB NOT AND SWAP1 SSTORE MLOAD DUP4 SWAP2 SWAP1 PUSH1 0x1 PUSH1 0x1 PUSH1 0xA0 SHL SUB DUP5 AND SWAP1 PUSH1 0x0 DUP1 MLOAD PUSH1 0x20 PUSH2 0x5690 DUP4 CODECOPY DUP2 MLOAD SWAP2 MSTORE SWAP1 DUP4 SWAP1 LOG4 POP POP JUMP JUMPDEST PUSH1 0x1 PUSH1 0x1 PUSH1 0xA0 SHL SUB DUP3 AND PUSH2 0x45F3 JUMPI PUSH1 0x40 MLOAD PUSH3 0x461BCD PUSH1 0xE5 SHL DUP2 MSTORE PUSH1 0x20 PUSH1 0x4 DUP3 ADD DUP2 SWAP1 MSTORE PUSH1 0x24 DUP3 ADD MSTORE PUSH32 0x4552433732313A206D696E7420746F20746865207A65726F2061646472657373 PUSH1 0x44 DUP3 ADD MSTORE PUSH1 0x64 ADD PUSH2 0x998 JUMP JUMPDEST PUSH2 0x45FC DUP2 PUSH2 0x2389 JUMP JUMPDEST ISZERO PUSH2 0x4648 JUMPI PUSH1 0x40 MLOAD PUSH3 0x461BCD PUSH1 0xE5 SHL DUP2 MSTORE PUSH1 0x20 PUSH1 0x4 DUP3 ADD MSTORE PUSH1 0x1C PUSH1 0x24 DUP3 ADD MSTORE PUSH28 0x115490CDCC8C4E881D1BDAD95B88185B1C9958591E481B5A5B9D1959 PUSH1 0x22 SHL PUSH1 0x44 DUP3 ADD MSTORE PUSH1 0x64 ADD PUSH2 0x998 JUMP JUMPDEST PUSH2 0x4654 PUSH1 0x0 DUP4 DUP4 PUSH2 0x38D8 JUMP JUMPDEST PUSH1 0x1 PUSH1 0x1 PUSH1 0xA0 SHL SUB DUP3 AND PUSH1 0x0 SWAP1 DUP2 MSTORE PUSH1 0x3 PUSH1 0x20 MSTORE PUSH1 0x40 DUP2 KECCAK256 DUP1 SLOAD PUSH1 0x1 SWAP3 SWAP1 PUSH2 0x467D SWAP1 DUP5 SWAP1 PUSH2 0x54D3 JUMP JUMPDEST SWAP1 SWAP2 SSTORE POP POP PUSH1 0x0 DUP2 DUP2 MSTORE PUSH1 0x2 PUSH1 0x20 MSTORE PUSH1 0x40 DUP1 DUP3 KECCAK256 DUP1 SLOAD PUSH1 0x1 PUSH1 0x1 PUSH1 0xA0 SHL SUB NOT AND PUSH1 0x1 PUSH1 0x1 PUSH1 0xA0 SHL SUB DUP7 AND SWAP1 DUP2 OR SWAP1 SWAP2 SSTORE SWAP1 MLOAD DUP4 SWAP3 SWAP1 PUSH1 0x0 DUP1 MLOAD PUSH1 0x20 PUSH2 0x5690 DUP4 CODECOPY DUP2 MLOAD SWAP2 MSTORE SWAP1 DUP3 SWAP1 LOG4 POP POP JUMP JUMPDEST PUSH1 0x0 PUSH2 0x1F29 DUP4 DUP4 PUSH2 0x4996 JUMP JUMPDEST PUSH2 0x46DE DUP3 PUSH2 0x2389 JUMP JUMPDEST PUSH2 0x4741 JUMPI PUSH1 0x40 MLOAD PUSH3 0x461BCD PUSH1 0xE5 SHL DUP2 MSTORE PUSH1 0x20 PUSH1 0x4 DUP3 ADD MSTORE PUSH1 0x2E PUSH1 0x24 DUP3 ADD MSTORE PUSH32 0x45524337323155524953746F726167653A2055524920736574206F66206E6F6E PUSH1 0x44 DUP3 ADD MSTORE PUSH14 0x32BC34B9BA32B73A103A37B5B2B7 PUSH1 0x91 SHL PUSH1 0x64 DUP3 ADD MSTORE PUSH1 0x84 ADD PUSH2 0x998 JUMP JUMPDEST PUSH1 0x0 DUP3 DUP2 MSTORE PUSH1 0x9 PUSH1 0x20 SWAP1 DUP2 MSTORE PUSH1 0x40 SWAP1 SWAP2 KECCAK256 DUP3 MLOAD PUSH2 0xAC9 SWAP3 DUP5 ADD SWAP1 PUSH2 0x4A41 JUMP JUMPDEST PUSH1 0x60 DUP2 PUSH2 0x4784 JUMPI POP POP PUSH1 0x40 DUP1 MLOAD DUP1 DUP3 ADD SWAP1 SWAP2 MSTORE PUSH1 0x1 DUP2 MSTORE PUSH1 0x3 PUSH1 0xFC SHL PUSH1 0x20 DUP3 ADD MSTORE SWAP1 JUMP JUMPDEST DUP2 PUSH1 0x0 JUMPDEST DUP2 ISZERO PUSH2 0x47AE JUMPI DUP1 PUSH2 0x4798 DUP2 PUSH2 0x55AD JUMP JUMPDEST SWAP2 POP PUSH2 0x47A7 SWAP1 POP PUSH1 0xA DUP4 PUSH2 0x54EB JUMP JUMPDEST SWAP2 POP PUSH2 0x4788 JUMP JUMPDEST PUSH1 0x0 DUP2 PUSH1 0x1 PUSH1 0x1 PUSH1 0x40 SHL SUB DUP2 GT ISZERO PUSH2 0x47D6 JUMPI PUSH4 0x4E487B71 PUSH1 0xE0 SHL PUSH1 0x0 MSTORE PUSH1 0x41 PUSH1 0x4 MSTORE PUSH1 0x24 PUSH1 0x0 REVERT JUMPDEST PUSH1 0x40 MLOAD SWAP1 DUP1 DUP3 MSTORE DUP1 PUSH1 0x1F ADD PUSH1 0x1F NOT AND PUSH1 0x20 ADD DUP3 ADD PUSH1 0x40 MSTORE DUP1 ISZERO PUSH2 0x4800 JUMPI PUSH1 0x20 DUP3 ADD DUP2 DUP1 CALLDATASIZE DUP4 CALLDATACOPY ADD SWAP1 POP JUMPDEST POP SWAP1 POP JUMPDEST DUP5 ISZERO PUSH2 0x24D6 JUMPI PUSH2 0x4815 PUSH1 0x1 DUP4 PUSH2 0x551E JUMP JUMPDEST SWAP2 POP PUSH2 0x4822 PUSH1 0xA DUP7 PUSH2 0x55C8 JUMP JUMPDEST PUSH2 0x482D SWAP1 PUSH1 0x30 PUSH2 0x54D3 JUMP JUMPDEST PUSH1 0xF8 SHL DUP2 DUP4 DUP2 MLOAD DUP2 LT PUSH2 0x4850 JUMPI PUSH4 0x4E487B71 PUSH1 0xE0 SHL PUSH1 0x0 MSTORE PUSH1 0x32 PUSH1 0x4 MSTORE PUSH1 0x24 PUSH1 0x0 REVERT JUMPDEST PUSH1 0x20 ADD ADD SWAP1 PUSH1 0x1 PUSH1 0x1 PUSH1 0xF8 SHL SUB NOT AND SWAP1 DUP2 PUSH1 0x0 BYTE SWAP1 MSTORE8 POP PUSH2 0x4872 PUSH1 0xA DUP7 PUSH2 0x54EB JUMP JUMPDEST SWAP5 POP PUSH2 0x4804 JUMP JUMPDEST PUSH1 0x0 DUP2 DUP2 MSTORE PUSH1 0x1 DUP4 ADD PUSH1 0x20 MSTORE PUSH1 0x40 DUP2 KECCAK256 SLOAD DUP1 ISZERO PUSH2 0x498C JUMPI PUSH1 0x0 PUSH2 0x489D PUSH1 0x1 DUP4 PUSH2 0x551E JUMP JUMPDEST DUP6 SLOAD SWAP1 SWAP2 POP PUSH1 0x0 SWAP1 PUSH2 0x48B1 SWAP1 PUSH1 0x1 SWAP1 PUSH2 0x551E JUMP JUMPDEST SWAP1 POP DUP2 DUP2 EQ PUSH2 0x4932 JUMPI PUSH1 0x0 DUP7 PUSH1 0x0 ADD DUP3 DUP2 SLOAD DUP2 LT PUSH2 0x48DF JUMPI PUSH4 0x4E487B71 PUSH1 0xE0 SHL PUSH1 0x0 MSTORE PUSH1 0x32 PUSH1 0x4 MSTORE PUSH1 0x24 PUSH1 0x0 REVERT JUMPDEST SWAP1 PUSH1 0x0 MSTORE PUSH1 0x20 PUSH1 0x0 KECCAK256 ADD SLOAD SWAP1 POP DUP1 DUP8 PUSH1 0x0 ADD DUP5 DUP2 SLOAD DUP2 LT PUSH2 0x4910 JUMPI PUSH4 0x4E487B71 PUSH1 0xE0 SHL PUSH1 0x0 MSTORE PUSH1 0x32 PUSH1 0x4 MSTORE PUSH1 0x24 PUSH1 0x0 REVERT JUMPDEST PUSH1 0x0 SWAP2 DUP3 MSTORE PUSH1 0x20 DUP1 DUP4 KECCAK256 SWAP1 SWAP2 ADD SWAP3 SWAP1 SWAP3 SSTORE SWAP2 DUP3 MSTORE PUSH1 0x1 DUP9 ADD SWAP1 MSTORE PUSH1 0x40 SWAP1 KECCAK256 DUP4 SWAP1 SSTORE JUMPDEST DUP6 SLOAD DUP7 SWAP1 DUP1 PUSH2 0x4951 JUMPI PUSH4 0x4E487B71 PUSH1 0xE0 SHL PUSH1 0x0 MSTORE PUSH1 0x31 PUSH1 0x4 MSTORE PUSH1 0x24 PUSH1 0x0 REVERT JUMPDEST PUSH1 0x1 SWAP1 SUB DUP2 DUP2 SWAP1 PUSH1 0x0 MSTORE PUSH1 0x20 PUSH1 0x0 KECCAK256 ADD PUSH1 0x0 SWAP1 SSTORE SWAP1 SSTORE DUP6 PUSH1 0x1 ADD PUSH1 0x0 DUP7 DUP2 MSTORE PUSH1 0x20 ADD SWAP1 DUP2 MSTORE PUSH1 0x20 ADD PUSH1 0x0 KECCAK256 PUSH1 0x0 SWAP1 SSTORE PUSH1 0x1 SWAP4 POP POP POP POP PUSH2 0x853 JUMP JUMPDEST PUSH1 0x0 SWAP2 POP POP PUSH2 0x853 JUMP JUMPDEST PUSH1 0x0 DUP2 DUP2 MSTORE PUSH1 0x1 DUP4 ADD PUSH1 0x20 MSTORE PUSH1 0x40 DUP2 KECCAK256 SLOAD PUSH2 0x49DD JUMPI POP DUP2 SLOAD PUSH1 0x1 DUP2 DUP2 ADD DUP5 SSTORE PUSH1 0x0 DUP5 DUP2 MSTORE PUSH1 0x20 DUP1 DUP3 KECCAK256 SWAP1 SWAP4 ADD DUP5 SWAP1 SSTORE DUP5 SLOAD DUP5 DUP3 MSTORE DUP3 DUP7 ADD SWAP1 SWAP4 MSTORE PUSH1 0x40 SWAP1 KECCAK256 SWAP2 SWAP1 SWAP2 SSTORE PUSH2 0x853 JUMP JUMPDEST POP PUSH1 0x0 PUSH2 0x853 JUMP JUMPDEST PUSH1 0x40 DUP1 MLOAD PUSH1 0xE0 DUP2 ADD SWAP1 SWAP2 MSTORE DUP1 PUSH1 0x0 DUP2 MSTORE PUSH1 0x20 ADD PUSH1 0x0 DUP2 MSTORE PUSH1 0x20 ADD PUSH1 0x0 DUP2 MSTORE PUSH1 0x20 ADD PUSH1 0x0 DUP2 MSTORE PUSH1 0x20 ADD PUSH1 0x0 DUP2 MSTORE PUSH1 0x20 ADD PUSH1 0x0 DUP2 MSTORE PUSH1 0x20 ADD PUSH1 0x0 PUSH1 0x2 DUP2 GT ISZERO PUSH2 0x4A3C JUMPI PUSH4 0x4E487B71 PUSH1 0xE0 SHL PUSH1 0x0 MSTORE PUSH1 0x21 PUSH1 0x4 MSTORE PUSH1 0x24 PUSH1 0x0 REVERT JUMPDEST SWAP1 MSTORE SWAP1 JUMP JUMPDEST DUP3 DUP1 SLOAD PUSH2 0x4A4D SWAP1 PUSH2 0x5578 JUMP JUMPDEST SWAP1 PUSH1 0x0 MSTORE PUSH1 0x20 PUSH1 0x0 KECCAK256 SWAP1 PUSH1 0x1F ADD PUSH1 0x20 SWAP1 DIV DUP2 ADD SWAP3 DUP3 PUSH2 0x4A6F JUMPI PUSH1 0x0 DUP6 SSTORE PUSH2 0x4AB5 JUMP JUMPDEST DUP3 PUSH1 0x1F LT PUSH2 0x4A88 JUMPI DUP1 MLOAD PUSH1 0xFF NOT AND DUP4 DUP1 ADD OR DUP6 SSTORE PUSH2 0x4AB5 JUMP JUMPDEST DUP3 DUP1 ADD PUSH1 0x1 ADD DUP6 SSTORE DUP3 ISZERO PUSH2 0x4AB5 JUMPI SWAP2 DUP3 ADD JUMPDEST DUP3 DUP2 GT ISZERO PUSH2 0x4AB5 JUMPI DUP3 MLOAD DUP3 SSTORE SWAP2 PUSH1 0x20 ADD SWAP2 SWAP1 PUSH1 0x1 ADD SWAP1 PUSH2 0x4A9A JUMP JUMPDEST POP PUSH2 0x4AC1 SWAP3 SWAP2 POP PUSH2 0x4AC5 JUMP JUMPDEST POP SWAP1 JUMP JUMPDEST JUMPDEST DUP1 DUP3 GT ISZERO PUSH2 0x4AC1 JUMPI PUSH1 0x0 DUP2 SSTORE PUSH1 0x1 ADD PUSH2 0x4AC6 JUMP JUMPDEST PUSH1 0x0 PUSH1 0x1 PUSH1 0x1 PUSH1 0x40 SHL SUB DUP1 DUP5 GT ISZERO PUSH2 0x4AF4 JUMPI PUSH2 0x4AF4 PUSH2 0x561E JUMP JUMPDEST PUSH1 0x40 MLOAD PUSH1 0x1F DUP6 ADD PUSH1 0x1F NOT SWAP1 DUP2 AND PUSH1 0x3F ADD AND DUP2 ADD SWAP1 DUP3 DUP3 GT DUP2 DUP4 LT OR ISZERO PUSH2 0x4B1C JUMPI PUSH2 0x4B1C PUSH2 0x561E JUMP JUMPDEST DUP2 PUSH1 0x40 MSTORE DUP1 SWAP4 POP DUP6 DUP2 MSTORE DUP7 DUP7 DUP7 ADD GT ISZERO PUSH2 0x4B35 JUMPI PUSH1 0x0 DUP1 REVERT JUMPDEST DUP6 DUP6 PUSH1 0x20 DUP4 ADD CALLDATACOPY PUSH1 0x0 PUSH1 0x20 DUP8 DUP4 ADD ADD MSTORE POP POP POP SWAP4 SWAP3 POP POP POP JUMP JUMPDEST PUSH1 0x0 DUP1 DUP4 PUSH1 0x1F DUP5 ADD SLT PUSH2 0x4B60 JUMPI DUP2 DUP3 REVERT JUMPDEST POP DUP2 CALLDATALOAD PUSH1 0x1 PUSH1 0x1 PUSH1 0x40 SHL SUB DUP2 GT ISZERO PUSH2 0x4B76 JUMPI DUP2 DUP3 REVERT JUMPDEST PUSH1 0x20 DUP4 ADD SWAP2 POP DUP4 PUSH1 0x20 DUP3 PUSH1 0x5 SHL DUP6 ADD ADD GT ISZERO PUSH2 0x4B91 JUMPI PUSH1 0x0 DUP1 REVERT JUMPDEST SWAP3 POP SWAP3 SWAP1 POP JUMP JUMPDEST DUP1 MLOAD PUSH1 0x1 PUSH1 0x1 PUSH1 0x50 SHL SUB DUP2 AND DUP2 EQ PUSH2 0x4BAF JUMPI PUSH1 0x0 DUP1 REVERT JUMPDEST SWAP2 SWAP1 POP JUMP JUMPDEST PUSH1 0x0 PUSH1 0x20 DUP3 DUP5 SUB SLT ISZERO PUSH2 0x4BC5 JUMPI DUP1 DUP2 REVERT JUMPDEST DUP2 CALLDATALOAD PUSH2 0x1F29 DUP2 PUSH2 0x5634 JUMP JUMPDEST PUSH1 0x0 PUSH1 0x20 DUP3 DUP5 SUB SLT ISZERO PUSH2 0x4BE1 JUMPI DUP1 DUP2 REVERT JUMPDEST DUP2 MLOAD PUSH2 0x1F29 DUP2 PUSH2 0x5634 JUMP JUMPDEST PUSH1 0x0 DUP1 PUSH1 0x40 DUP4 DUP6 SUB SLT ISZERO PUSH2 0x4BFE JUMPI DUP1 DUP2 REVERT JUMPDEST DUP3 CALLDATALOAD PUSH2 0x4C09 DUP2 PUSH2 0x5634 JUMP JUMPDEST SWAP2 POP PUSH1 0x20 DUP4 ADD CALLDATALOAD PUSH2 0x4C19 DUP2 PUSH2 0x5634 JUMP JUMPDEST DUP1 SWAP2 POP POP SWAP3 POP SWAP3 SWAP1 POP JUMP JUMPDEST PUSH1 0x0 DUP1 PUSH1 0x0 PUSH1 0x60 DUP5 DUP7 SUB SLT ISZERO PUSH2 0x4C38 JUMPI DUP1 DUP2 REVERT JUMPDEST DUP4 CALLDATALOAD PUSH2 0x4C43 DUP2 PUSH2 0x5634 JUMP JUMPDEST SWAP3 POP PUSH1 0x20 DUP5 ADD CALLDATALOAD PUSH2 0x4C53 DUP2 PUSH2 0x5634 JUMP JUMPDEST SWAP3 SWAP6 SWAP3 SWAP5 POP POP POP PUSH1 0x40 SWAP2 SWAP1 SWAP2 ADD CALLDATALOAD SWAP1 JUMP JUMPDEST PUSH1 0x0 DUP1 PUSH1 0x0 DUP1 PUSH1 0x80 DUP6 DUP8 SUB SLT ISZERO PUSH2 0x4C79 JUMPI DUP1 DUP2 REVERT JUMPDEST DUP5 CALLDATALOAD PUSH2 0x4C84 DUP2 PUSH2 0x5634 JUMP JUMPDEST SWAP4 POP PUSH1 0x20 DUP6 ADD CALLDATALOAD PUSH2 0x4C94 DUP2 PUSH2 0x5634 JUMP JUMPDEST SWAP3 POP PUSH1 0x40 DUP6 ADD CALLDATALOAD SWAP2 POP PUSH1 0x60 DUP6 ADD CALLDATALOAD PUSH1 0x1 PUSH1 0x1 PUSH1 0x40 SHL SUB DUP2 GT ISZERO PUSH2 0x4CB5 JUMPI DUP2 DUP3 REVERT JUMPDEST DUP6 ADD PUSH1 0x1F DUP2 ADD DUP8 SGT PUSH2 0x4CC5 JUMPI DUP2 DUP3 REVERT JUMPDEST PUSH2 0x4CD4 DUP8 DUP3 CALLDATALOAD PUSH1 0x20 DUP5 ADD PUSH2 0x4ADA JUMP JUMPDEST SWAP2 POP POP SWAP3 SWAP6 SWAP2 SWAP5 POP SWAP3 POP JUMP JUMPDEST PUSH1 0x0 DUP1 PUSH1 0x0 DUP1 PUSH1 0x80 DUP6 DUP8 SUB SLT ISZERO PUSH2 0x4CF5 JUMPI DUP4 DUP5 REVERT JUMPDEST DUP5 CALLDATALOAD PUSH2 0x4D00 DUP2 PUSH2 0x5634 JUMP JUMPDEST SWAP4 POP PUSH1 0x20 DUP6 ADD CALLDATALOAD PUSH2 0x4D10 DUP2 PUSH2 0x5634 JUMP JUMPDEST SWAP4 SWAP7 SWAP4 SWAP6 POP POP POP POP PUSH1 0x40 DUP3 ADD CALLDATALOAD SWAP2 PUSH1 0x60 ADD CALLDATALOAD SWAP1 JUMP JUMPDEST PUSH1 0x0 DUP1 PUSH1 0x0 DUP1 PUSH1 0x0 PUSH1 0xA0 DUP7 DUP9 SUB SLT ISZERO PUSH2 0x4D3C JUMPI DUP1 DUP2 REVERT JUMPDEST DUP6 CALLDATALOAD PUSH2 0x4D47 DUP2 PUSH2 0x5634 JUMP JUMPDEST SWAP5 POP PUSH1 0x20 DUP7 ADD CALLDATALOAD PUSH2 0x4D57 DUP2 PUSH2 0x5634 JUMP JUMPDEST SWAP5 SWAP8 SWAP5 SWAP7 POP POP POP POP PUSH1 0x40 DUP4 ADD CALLDATALOAD SWAP3 PUSH1 0x60 DUP2 ADD CALLDATALOAD SWAP3 PUSH1 0x80 SWAP1 SWAP2 ADD CALLDATALOAD SWAP2 POP JUMP JUMPDEST PUSH1 0x0 DUP1 PUSH1 0x40 DUP4 DUP6 SUB SLT ISZERO PUSH2 0x4D87 JUMPI DUP2 DUP3 REVERT JUMPDEST DUP3 CALLDATALOAD PUSH2 0x4D92 DUP2 PUSH2 0x5634 JUMP JUMPDEST SWAP2 POP PUSH1 0x20 DUP4 ADD CALLDATALOAD PUSH2 0x4C19 DUP2 PUSH2 0x5649 JUMP JUMPDEST PUSH1 0x0 DUP1 PUSH1 0x40 DUP4 DUP6 SUB SLT ISZERO PUSH2 0x4DB4 JUMPI DUP2 DUP3 REVERT JUMPDEST DUP3 CALLDATALOAD PUSH2 0x4DBF DUP2 PUSH2 0x5634 JUMP JUMPDEST SWAP5 PUSH1 0x20 SWAP4 SWAP1 SWAP4 ADD CALLDATALOAD SWAP4 POP POP POP JUMP JUMPDEST PUSH1 0x0 DUP1 PUSH1 0x0 PUSH1 0x60 DUP5 DUP7 SUB SLT ISZERO PUSH2 0x4DE1 JUMPI DUP1 DUP2 REVERT JUMPDEST DUP4 CALLDATALOAD PUSH2 0x4DEC DUP2 PUSH2 0x5634 JUMP JUMPDEST SWAP6 PUSH1 0x20 DUP6 ADD CALLDATALOAD SWAP6 POP PUSH1 0x40 SWAP1 SWAP5 ADD CALLDATALOAD SWAP4 SWAP3 POP POP POP JUMP JUMPDEST PUSH1 0x0 DUP1 PUSH1 0x20 DUP4 DUP6 SUB SLT ISZERO PUSH2 0x4E13 JUMPI DUP2 DUP3 REVERT JUMPDEST DUP3 CALLDATALOAD PUSH1 0x1 PUSH1 0x1 PUSH1 0x40 SHL SUB DUP2 GT ISZERO PUSH2 0x4E28 JUMPI DUP3 DUP4 REVERT JUMPDEST PUSH2 0x4E34 DUP6 DUP3 DUP7 ADD PUSH2 0x4B4F JUMP JUMPDEST SWAP1 SWAP7 SWAP1 SWAP6 POP SWAP4 POP POP POP POP JUMP JUMPDEST PUSH1 0x0 DUP1 PUSH1 0x0 PUSH1 0x40 DUP5 DUP7 SUB SLT ISZERO PUSH2 0x4E54 JUMPI DUP1 DUP2 REVERT JUMPDEST DUP4 CALLDATALOAD PUSH1 0x1 PUSH1 0x1 PUSH1 0x40 SHL SUB DUP2 GT ISZERO PUSH2 0x4E69 JUMPI DUP2 DUP3 REVERT JUMPDEST PUSH2 0x4E75 DUP7 DUP3 DUP8 ADD PUSH2 0x4B4F JUMP JUMPDEST SWAP1 SWAP8 SWAP1 SWAP7 POP PUSH1 0x20 SWAP6 SWAP1 SWAP6 ADD CALLDATALOAD SWAP5 SWAP4 POP POP POP POP JUMP JUMPDEST PUSH1 0x0 PUSH1 0x20 DUP3 DUP5 SUB SLT ISZERO PUSH2 0x4E9A JUMPI DUP1 DUP2 REVERT JUMPDEST DUP2 MLOAD PUSH2 0x1F29 DUP2 PUSH2 0x5649 JUMP JUMPDEST PUSH1 0x0 PUSH1 0x20 DUP3 DUP5 SUB SLT ISZERO PUSH2 0x4EB6 JUMPI DUP1 DUP2 REVERT JUMPDEST POP CALLDATALOAD SWAP2 SWAP1 POP JUMP JUMPDEST PUSH1 0x0 DUP1 PUSH1 0x40 DUP4 DUP6 SUB SLT ISZERO PUSH2 0x4ECF JUMPI DUP2 DUP3 REVERT JUMPDEST DUP3 CALLDATALOAD SWAP2 POP PUSH1 0x20 DUP4 ADD CALLDATALOAD PUSH2 0x4C19 DUP2 PUSH2 0x5634 JUMP JUMPDEST PUSH1 0x0 PUSH1 0x20 DUP3 DUP5 SUB SLT ISZERO PUSH2 0x4EF2 JUMPI DUP1 DUP2 REVERT JUMPDEST DUP2 CALLDATALOAD PUSH2 0x1F29 DUP2 PUSH2 0x5657 JUMP JUMPDEST PUSH1 0x0 PUSH1 0x20 DUP3 DUP5 SUB SLT ISZERO PUSH2 0x4F0E JUMPI DUP1 DUP2 REVERT JUMPDEST DUP2 MLOAD PUSH2 0x1F29 DUP2 PUSH2 0x5657 JUMP JUMPDEST PUSH1 0x0 PUSH1 0x20 DUP3 DUP5 SUB SLT ISZERO PUSH2 0x4F2A JUMPI DUP1 DUP2 REVERT JUMPDEST POP MLOAD SWAP2 SWAP1 POP JUMP JUMPDEST PUSH1 0x0 DUP1 PUSH1 0x0 PUSH1 0x40 DUP5 DUP7 SUB SLT ISZERO PUSH2 0x4F45 JUMPI DUP1 DUP2 REVERT JUMPDEST DUP4 CALLDATALOAD SWAP3 POP PUSH1 0x20 DUP5 ADD CALLDATALOAD PUSH1 0x1 PUSH1 0x1 PUSH1 0x40 SHL SUB DUP2 GT ISZERO PUSH2 0x4F61 JUMPI DUP2 DUP3 REVERT JUMPDEST PUSH2 0x4F6D DUP7 DUP3 DUP8 ADD PUSH2 0x4B4F JUMP JUMPDEST SWAP5 SWAP8 SWAP1 SWAP7 POP SWAP4 SWAP5 POP POP POP POP JUMP JUMPDEST PUSH1 0x0 DUP1 PUSH1 0x40 DUP4 DUP6 SUB SLT ISZERO PUSH2 0x4F8C JUMPI DUP2 DUP3 REVERT JUMPDEST POP POP DUP1 CALLDATALOAD SWAP3 PUSH1 0x20 SWAP1 SWAP2 ADD CALLDATALOAD SWAP2 POP JUMP JUMPDEST PUSH1 0x0 DUP1 PUSH1 0x0 DUP1 PUSH1 0x0 PUSH1 0xA0 DUP7 DUP9 SUB SLT ISZERO PUSH2 0x4FB2 JUMPI DUP3 DUP4 REVERT JUMPDEST DUP6 CALLDATALOAD SWAP5 POP PUSH1 0x20 DUP7 ADD CALLDATALOAD SWAP4 POP PUSH1 0x40 DUP7 ADD CALLDATALOAD SWAP3 POP PUSH1 0x60 DUP7 ADD CALLDATALOAD PUSH2 0x4FD2 DUP2 PUSH2 0x5649 JUMP JUMPDEST SWAP2 POP PUSH1 0x80 DUP7 ADD CALLDATALOAD PUSH2 0x4FE2 DUP2 PUSH2 0x5649 JUMP JUMPDEST DUP1 SWAP2 POP POP SWAP3 SWAP6 POP SWAP3 SWAP6 SWAP1 SWAP4 POP JUMP JUMPDEST PUSH1 0x0 DUP1 PUSH1 0x0 DUP1 PUSH1 0x0 DUP1 PUSH1 0x0 PUSH1 0xE0 DUP9 DUP11 SUB SLT ISZERO PUSH2 0x500A JUMPI DUP5 DUP6 REVERT JUMPDEST DUP8 CALLDATALOAD SWAP7 POP PUSH1 0x20 DUP9 ADD CALLDATALOAD SWAP6 POP PUSH1 0x40 DUP9 ADD CALLDATALOAD SWAP5 POP PUSH1 0x60 DUP9 ADD CALLDATALOAD PUSH2 0x502A DUP2 PUSH2 0x5649 JUMP JUMPDEST SWAP4 POP PUSH1 0x80 DUP9 ADD CALLDATALOAD PUSH2 0x503A DUP2 PUSH2 0x5649 JUMP JUMPDEST SWAP3 POP PUSH1 0xA0 DUP9 ADD CALLDATALOAD PUSH2 0x504A DUP2 PUSH2 0x5634 JUMP JUMPDEST SWAP2 POP PUSH1 0xC0 DUP9 ADD CALLDATALOAD PUSH1 0x1 PUSH1 0x1 PUSH1 0x40 SHL SUB DUP2 GT ISZERO PUSH2 0x5064 JUMPI DUP2 DUP3 REVERT JUMPDEST DUP9 ADD PUSH1 0x1F DUP2 ADD DUP11 SGT PUSH2 0x5074 JUMPI DUP2 DUP3 REVERT JUMPDEST PUSH2 0x5083 DUP11 DUP3 CALLDATALOAD PUSH1 0x20 DUP5 ADD PUSH2 0x4ADA JUMP JUMPDEST SWAP2 POP POP SWAP3 SWAP6 SWAP9 SWAP2 SWAP5 SWAP8 POP SWAP3 SWAP6 POP JUMP JUMPDEST PUSH1 0x0 DUP1 PUSH1 0x0 DUP1 PUSH1 0x0 PUSH1 0xA0 DUP7 DUP9 SUB SLT ISZERO PUSH2 0x50A9 JUMPI DUP3 DUP4 REVERT JUMPDEST PUSH2 0x50B2 DUP7 PUSH2 0x4B98 JUMP JUMPDEST SWAP5 POP PUSH1 0x20 DUP7 ADD MLOAD SWAP4 POP PUSH1 0x40 DUP7 ADD MLOAD SWAP3 POP PUSH1 0x60 DUP7 ADD MLOAD SWAP2 POP PUSH2 0x50D5 PUSH1 0x80 DUP8 ADD PUSH2 0x4B98 JUMP JUMPDEST SWAP1 POP SWAP3 SWAP6 POP SWAP3 SWAP6 SWAP1 SWAP4 POP JUMP JUMPDEST PUSH1 0x0 DUP2 MLOAD DUP1 DUP5 MSTORE PUSH2 0x50F9 DUP2 PUSH1 0x20 DUP7 ADD PUSH1 0x20 DUP7 ADD PUSH2 0x5535 JUMP JUMPDEST PUSH1 0x1F ADD PUSH1 0x1F NOT AND SWAP3 SWAP1 SWAP3 ADD PUSH1 0x20 ADD SWAP3 SWAP2 POP POP JUMP JUMPDEST PUSH1 0x3 DUP2 LT PUSH2 0x511D JUMPI PUSH2 0x511D PUSH2 0x5608 JUMP JUMPDEST SWAP1 MSTORE JUMP JUMPDEST PUSH1 0x0 DUP4 MLOAD PUSH2 0x5133 DUP2 DUP5 PUSH1 0x20 DUP9 ADD PUSH2 0x5535 JUMP JUMPDEST DUP4 MLOAD SWAP1 DUP4 ADD SWAP1 PUSH2 0x5147 DUP2 DUP4 PUSH1 0x20 DUP9 ADD PUSH2 0x5535 JUMP JUMPDEST ADD SWAP5 SWAP4 POP POP POP POP JUMP JUMPDEST PUSH23 0x20B1B1B2B9B9A1B7B73A3937B61D1030B1B1B7BAB73A1 PUSH1 0x4D SHL DUP2 MSTORE PUSH1 0x0 DUP4 MLOAD PUSH2 0x5182 DUP2 PUSH1 0x17 DUP6 ADD PUSH1 0x20 DUP9 ADD PUSH2 0x5535 JUMP JUMPDEST PUSH17 0x1034B99036B4B9B9B4B733903937B6329 PUSH1 0x7D SHL PUSH1 0x17 SWAP2 DUP5 ADD SWAP2 DUP3 ADD MSTORE DUP4 MLOAD PUSH2 0x51B3 DUP2 PUSH1 0x28 DUP5 ADD PUSH1 0x20 DUP9 ADD PUSH2 0x5535 JUMP JUMPDEST ADD PUSH1 0x28 ADD SWAP5 SWAP4 POP POP POP POP JUMP JUMPDEST PUSH1 0x1 PUSH1 0x1 PUSH1 0xA0 SHL SUB DUP6 DUP2 AND DUP3 MSTORE DUP5 AND PUSH1 0x20 DUP3 ADD MSTORE PUSH1 0x40 DUP2 ADD DUP4 SWAP1 MSTORE PUSH1 0x80 PUSH1 0x60 DUP3 ADD DUP2 SWAP1 MSTORE PUSH1 0x0 SWAP1 PUSH2 0x51F2 SWAP1 DUP4 ADD DUP5 PUSH2 0x50E1 JUMP JUMPDEST SWAP7 SWAP6 POP POP POP POP POP POP JUMP JUMPDEST PUSH1 0x1 PUSH1 0x1 PUSH1 0xA0 SHL SUB SWAP3 SWAP1 SWAP3 AND DUP3 MSTORE PUSH1 0x20 DUP3 ADD MSTORE PUSH1 0x40 ADD SWAP1 JUMP JUMPDEST PUSH1 0x20 DUP1 DUP3 MSTORE DUP3 MLOAD DUP3 DUP3 ADD DUP2 SWAP1 MSTORE PUSH1 0x0 SWAP2 SWAP1 DUP5 DUP3 ADD SWAP1 PUSH1 0x40 DUP6 ADD SWAP1 DUP5 JUMPDEST DUP2 DUP2 LT ISZERO PUSH2 0x524D JUMPI DUP4 MLOAD DUP4 MSTORE SWAP3 DUP5 ADD SWAP3 SWAP2 DUP5 ADD SWAP2 PUSH1 0x1 ADD PUSH2 0x5231 JUMP JUMPDEST POP SWAP1 SWAP7 SWAP6 POP POP POP POP POP POP JUMP JUMPDEST PUSH1 0xE0 DUP2 ADD PUSH1 0x4 DUP10 LT PUSH2 0x526D JUMPI PUSH2 0x526D PUSH2 0x5608 JUMP JUMPDEST DUP9 DUP3 MSTORE DUP8 PUSH1 0x20 DUP4 ADD MSTORE DUP7 PUSH1 0x40 DUP4 ADD MSTORE DUP6 PUSH1 0x60 DUP4 ADD MSTORE DUP5 PUSH1 0x80 DUP4 ADD MSTORE DUP4 PUSH1 0xA0 DUP4 ADD MSTORE PUSH2 0x529B PUSH1 0xC0 DUP4 ADD DUP5 PUSH2 0x510D JUMP JUMPDEST SWAP9 SWAP8 POP POP POP POP POP POP POP POP JUMP JUMPDEST SWAP2 DUP3 MSTORE PUSH1 0x20 DUP3 ADD MSTORE PUSH1 0x40 ADD SWAP1 JUMP JUMPDEST PUSH1 0x20 DUP2 MSTORE PUSH1 0x0 PUSH2 0x1F29 PUSH1 0x20 DUP4 ADD DUP5 PUSH2 0x50E1 JUMP JUMPDEST PUSH1 0x20 DUP1 DUP3 MSTORE PUSH1 0x2 SWAP1 DUP3 ADD MSTORE PUSH2 0x4F39 PUSH1 0xF0 SHL PUSH1 0x40 DUP3 ADD MSTORE PUSH1 0x60 ADD SWAP1 JUMP JUMPDEST PUSH1 0x20 DUP1 DUP3 MSTORE PUSH1 0x32 SWAP1 DUP3 ADD MSTORE PUSH32 0x4552433732313A207472616E7366657220746F206E6F6E204552433732315265 PUSH1 0x40 DUP3 ADD MSTORE PUSH18 0x31B2B4BB32B91034B6B83632B6B2B73A32B9 PUSH1 0x71 SHL PUSH1 0x60 DUP3 ADD MSTORE PUSH1 0x80 ADD SWAP1 JUMP JUMPDEST PUSH1 0x20 DUP1 DUP3 MSTORE PUSH1 0x3 SWAP1 DUP3 ADD MSTORE PUSH3 0x4F323 PUSH1 0xEC SHL PUSH1 0x40 DUP3 ADD MSTORE PUSH1 0x60 ADD SWAP1 JUMP JUMPDEST PUSH1 0x20 DUP1 DUP3 MSTORE PUSH1 0x2 SWAP1 DUP3 ADD MSTORE PUSH2 0x4E37 PUSH1 0xF0 SHL PUSH1 0x40 DUP3 ADD MSTORE PUSH1 0x60 ADD SWAP1 JUMP JUMPDEST PUSH1 0x20 DUP1 DUP3 MSTORE DUP2 DUP2 ADD MSTORE PUSH32 0x4F776E61626C653A2063616C6C6572206973206E6F7420746865206F776E6572 PUSH1 0x40 DUP3 ADD MSTORE PUSH1 0x60 ADD SWAP1 JUMP JUMPDEST PUSH1 0x20 DUP1 DUP3 MSTORE PUSH1 0x31 SWAP1 DUP3 ADD MSTORE PUSH32 0x4552433732313A207472616E736665722063616C6C6572206973206E6F74206F PUSH1 0x40 DUP3 ADD MSTORE PUSH17 0x1DDB995C881B9BDC88185C1C1C9BDD9959 PUSH1 0x7A SHL PUSH1 0x60 DUP3 ADD MSTORE PUSH1 0x80 ADD SWAP1 JUMP JUMPDEST PUSH1 0x20 DUP1 DUP3 MSTORE PUSH1 0x1F SWAP1 DUP3 ADD MSTORE PUSH32 0x5265656E7472616E637947756172643A207265656E7472616E742063616C6C00 PUSH1 0x40 DUP3 ADD MSTORE PUSH1 0x60 ADD SWAP1 JUMP JUMPDEST PUSH1 0x20 DUP1 DUP3 MSTORE PUSH1 0x2 SWAP1 DUP3 ADD MSTORE PUSH2 0x13CD PUSH1 0xF2 SHL PUSH1 0x40 DUP3 ADD MSTORE PUSH1 0x60 ADD SWAP1 JUMP JUMPDEST DUP5 DUP2 MSTORE PUSH1 0x20 DUP2 ADD DUP5 SWAP1 MSTORE PUSH1 0x80 DUP2 ADD PUSH2 0x5463 PUSH1 0x40 DUP4 ADD DUP6 PUSH2 0x510D JUMP JUMPDEST DUP3 ISZERO ISZERO PUSH1 0x60 DUP4 ADD MSTORE SWAP6 SWAP5 POP POP POP POP POP JUMP JUMPDEST DUP5 DUP2 MSTORE PUSH1 0x20 DUP2 ADD DUP5 SWAP1 MSTORE PUSH1 0x80 DUP2 ADD PUSH2 0x548F PUSH1 0x40 DUP4 ADD DUP6 PUSH2 0x510D JUMP JUMPDEST DUP3 PUSH1 0x60 DUP4 ADD MSTORE SWAP6 SWAP5 POP POP POP POP POP JUMP JUMPDEST DUP4 DUP2 MSTORE DUP3 PUSH1 0x20 DUP3 ADD MSTORE PUSH1 0x60 PUSH1 0x40 DUP3 ADD MSTORE PUSH1 0x0 PUSH2 0x2AEA PUSH1 0x60 DUP4 ADD DUP5 PUSH2 0x50E1 JUMP JUMPDEST SWAP3 DUP4 MSTORE PUSH1 0x20 DUP4 ADD SWAP2 SWAP1 SWAP2 MSTORE PUSH1 0x40 DUP3 ADD MSTORE PUSH1 0x60 ADD SWAP1 JUMP JUMPDEST PUSH1 0x0 DUP3 NOT DUP3 GT ISZERO PUSH2 0x54E6 JUMPI PUSH2 0x54E6 PUSH2 0x55DC JUMP JUMPDEST POP ADD SWAP1 JUMP JUMPDEST PUSH1 0x0 DUP3 PUSH2 0x54FA JUMPI PUSH2 0x54FA PUSH2 0x55F2 JUMP JUMPDEST POP DIV SWAP1 JUMP JUMPDEST PUSH1 0x0 DUP2 PUSH1 0x0 NOT DIV DUP4 GT DUP3 ISZERO ISZERO AND ISZERO PUSH2 0x5519 JUMPI PUSH2 0x5519 PUSH2 0x55DC JUMP JUMPDEST POP MUL SWAP1 JUMP JUMPDEST PUSH1 0x0 DUP3 DUP3 LT ISZERO PUSH2 0x5530 JUMPI PUSH2 0x5530 PUSH2 0x55DC JUMP JUMPDEST POP SUB SWAP1 JUMP JUMPDEST PUSH1 0x0 JUMPDEST DUP4 DUP2 LT ISZERO PUSH2 0x5550 JUMPI DUP2 DUP2 ADD MLOAD DUP4 DUP3 ADD MSTORE PUSH1 0x20 ADD PUSH2 0x5538 JUMP JUMPDEST DUP4 DUP2 GT ISZERO PUSH2 0x1015 JUMPI POP POP PUSH1 0x0 SWAP2 ADD MSTORE JUMP JUMPDEST PUSH1 0x0 DUP2 PUSH2 0x5570 JUMPI PUSH2 0x5570 PUSH2 0x55DC JUMP JUMPDEST POP PUSH1 0x0 NOT ADD SWAP1 JUMP JUMPDEST PUSH1 0x1 DUP2 DUP2 SHR SWAP1 DUP3 AND DUP1 PUSH2 0x558C JUMPI PUSH1 0x7F DUP3 AND SWAP2 POP JUMPDEST PUSH1 0x20 DUP3 LT DUP2 EQ ISZERO PUSH2 0x92A JUMPI PUSH4 0x4E487B71 PUSH1 0xE0 SHL PUSH1 0x0 MSTORE PUSH1 0x22 PUSH1 0x4 MSTORE PUSH1 0x24 PUSH1 0x0 REVERT JUMPDEST PUSH1 0x0 PUSH1 0x0 NOT DUP3 EQ ISZERO PUSH2 0x55C1 JUMPI PUSH2 0x55C1 PUSH2 0x55DC JUMP JUMPDEST POP PUSH1 0x1 ADD SWAP1 JUMP JUMPDEST PUSH1 0x0 DUP3 PUSH2 0x55D7 JUMPI PUSH2 0x55D7 PUSH2 0x55F2 JUMP JUMPDEST POP MOD SWAP1 JUMP JUMPDEST PUSH4 0x4E487B71 PUSH1 0xE0 SHL PUSH1 0x0 MSTORE PUSH1 0x11 PUSH1 0x4 MSTORE PUSH1 0x24 PUSH1 0x0 REVERT JUMPDEST PUSH4 0x4E487B71 PUSH1 0xE0 SHL PUSH1 0x0 MSTORE PUSH1 0x12 PUSH1 0x4 MSTORE PUSH1 0x24 PUSH1 0x0 REVERT JUMPDEST PUSH4 0x4E487B71 PUSH1 0xE0 SHL PUSH1 0x0 MSTORE PUSH1 0x21 PUSH1 0x4 MSTORE PUSH1 0x24 PUSH1 0x0 REVERT JUMPDEST PUSH4 0x4E487B71 PUSH1 0xE0 SHL PUSH1 0x0 MSTORE PUSH1 0x41 PUSH1 0x4 MSTORE PUSH1 0x24 PUSH1 0x0 REVERT JUMPDEST PUSH1 0x1 PUSH1 0x1 PUSH1 0xA0 SHL SUB DUP2 AND DUP2 EQ PUSH2 0xC62 JUMPI PUSH1 0x0 DUP1 REVERT JUMPDEST DUP1 ISZERO ISZERO DUP2 EQ PUSH2 0xC62 JUMPI PUSH1 0x0 DUP1 REVERT JUMPDEST PUSH1 0x1 PUSH1 0x1 PUSH1 0xE0 SHL SUB NOT DUP2 AND DUP2 EQ PUSH2 0xC62 JUMPI PUSH1 0x0 DUP1 REVERT INVALID PUSH9 0x747470733A2F2F6761 PUSH21 0x657761792E70696E6174612E636C6F75642F697066 PUSH20 0x2FDDF252AD1BE2C89B69C2B068FC378DAA952BA7 CALL PUSH4 0xC4A11628 CREATE2 GAS 0x4D CREATE2 0x23 0xB3 0xEF DUP3 GASPRICE CALLVALUE RETURNDATASIZE SHR DUP10 SWAP15 PUSH2 0xA4DB SLT 0x24 PUSH23 0x36A6882BF1FEFAE78BEF39170F8D0F5B53E456A2646970 PUSH7 0x735822122049B8 PUSH18 0x54DB8AE754F40B84EEF84575660566FFFF5F 0xF 0xC5 0xDC SWAP8 0xB2 BLOCKHASH PUSH14 0xCB2E02F864736F6C634300080400 CALLER ","sha1":"d49a89b3f29484ca9796a32be4ac606fd205a149","source":"pragma solidity ^0.8.0;\n\n// SPDX-License-Identifier: BUSL-1.1\n\nimport \"@openzeppelin/contracts/access/Ownable.sol\";\nimport \"@openzeppelin/contracts/security/ReentrancyGuard.sol\";\nimport \"@openzeppelin/contracts/token/ERC20/ERC20.sol\";\nimport \"./OptionConfig.sol\";\nimport \"./BufferNFTCore.sol\";\nimport \"./TraderNFT.sol\";\nimport \"../Pool/BufferIBFRPoolV2.sol\";\nimport \"../Libraries/OptionFeeCalculator.sol\";\n\n/**\n * @author Heisenberg\n * @title Buffer TokenX Bidirectional (Call and Put) Options\n * @notice Buffer TokenX Options Contract\n */\ncontract BufferBinaryEuropeanTokenXOptions is\n    IBufferOptions,\n    Ownable,\n    ReentrancyGuard,\n    BufferNFTCore\n{\n    ERC20 public tokenX;\n    mapping(uint256 => string) private _tokenURIs;\n    IPriceProvider public priceProvider;\n    uint256 public nextTokenId = 0;\n    mapping(uint256 => Option) public options;\n    mapping(uint256 => BinaryOptionType) public binaryOptionType;\n    mapping(uint256 => uint256) public expiryToRoundID;\n    mapping(uint256 => mapping(address => uint256)) public optionSizeBought;\n    BufferIBFRPoolV2 public pool;\n    OptionConfig public config;\n    mapping(uint256 => SlotDetail) public slotDetails;\n    uint256 internal contractCreationTimestamp;\n\n    bytes32 public constant AUTO_CLOSER_ROLE = keccak256(\"AUTO_CLOSER_ROLE\");\n\n    uint256 public constant minimumYield = 5;\n\n    constructor(\n        ERC20 _tokenX,\n        IPriceProvider pp,\n        BufferIBFRPoolV2 _pool,\n        OptionConfig _config\n    ) {\n        tokenX = _tokenX;\n        pool = _pool;\n        contractCreationTimestamp = block.timestamp;\n        config = _config;\n        priceProvider = pp;\n        _setupRole(DEFAULT_ADMIN_ROLE, msg.sender);\n    }\n\n    /**\n     * @notice Call this to set the max approval for tokenX transfers from the options to pool\n     */\n    function approvePoolToTransferTokenX() public {\n        tokenX.approve(address(pool), ~uint256(0));\n    }\n\n    /************************************************\n     *  OPTIONS CORE\n     ***********************************************/\n\n    /**\n     * @notice Creates a new option\n     * @param amount Option amount in tokenX\n     * @param referrer Referrer address\n     * @param metadata Option metadata\n     * @return optionID Created option's ID\n     */\n    function create(\n        uint256 amount,\n        uint256 strike,\n        uint256 expiration,\n        bool isYes,\n        bool isAbove,\n        address referrer,\n        string memory metadata\n    ) external nonReentrant returns (uint256 optionID) {\n        uint256 period = expiration - block.timestamp;\n        optionID = _quickCreate(\n            amount,\n            strike,\n            period,\n            isYes,\n            isAbove,\n            referrer,\n            metadata\n        );\n    }\n\n    /**\n     * @notice Creates a new option\n     * @param amount Option amount in tokenX\n     * @param referrer Referrer address\n     * @param metadata Option metadata\n     * @return optionID Created option's ID\n     */\n    function quickCreate(\n        uint256 amount,\n        uint256 strike,\n        uint256 period,\n        bool isYes,\n        bool isAbove,\n        address referrer,\n        string memory metadata\n    ) external nonReentrant returns (uint256 optionID) {\n        optionID = _quickCreate(\n            amount,\n            strike,\n            period,\n            isYes,\n            isAbove,\n            referrer,\n            metadata\n        );\n    }\n\n    /**\n     * @notice Creates a new option by specifying the period instead\n     * @param amount Option amount in tokenX\n     * @param referrer Referrer address\n     * @param metadata Option metadata\n     * @return optionID Created option's ID\n     */\n    function _quickCreate(\n        uint256 amount,\n        uint256 strike,\n        uint256 period,\n        bool isYes,\n        bool isAbove,\n        address referrer,\n        string memory metadata\n    ) internal returns (uint256 optionID) {\n        // Check if the option period is higher the 5 mins\n        require((period) >= 5 minutes, \"O21\");\n\n        // if the period is lower than 24 hours then assert that the option be an ATM one and deduct a small fee\n        if ((period) < 24 hours) {\n            require(strike == 0, \"O22\");\n            strike = priceProvider.getUsdPrice();\n        }\n\n        // A user is only allowed to buy a n amount size per block\n        // so we'll have to keep track of the amount bought per block\n        require(\n            optionSizeBought[block.number][msg.sender] + amount <\n                (config.optionSizePerBlockLimitPercent() *\n                    pool.availableBalance()) /\n                    100,\n            \"O23\"\n        );\n        optionSizeBought[block.number][msg.sender] += amount;\n        (uint256 totalFee, uint256 settlementFee, uint256 premium) = fees(\n            period,\n            amount,\n            strike,\n            isYes,\n            isAbove\n        );\n\n        require(\n            totalFee * 365 days * 100 > amount * (period) * minimumYield,\n            \"O2\"\n        );\n\n        // User has to approve first inorder to execute this function\n        bool success = tokenX.transferFrom(msg.sender, address(this), totalFee);\n        require(success, \"O3\");\n        OptionType optionType = OptionType.Put;\n\n        if (\n            (isYes == true && isAbove == true) ||\n            (isYes == false && isAbove == false)\n        ) {\n            optionType = OptionType.Call;\n        }\n        Option memory option = Option(\n            State.Active,\n            strike,\n            amount,\n            amount,\n            premium,\n            block.timestamp + period,\n            optionType\n        );\n        optionID = _generateTokenId();\n        binaryOptionType[optionID] = BinaryOptionType(isYes, isAbove);\n        _setOption(optionID, option);\n        _mint(\n            optionID,\n            msg.sender,\n            createSlot(optionID, option.strike, option.expiration, optionType)\n        );\n        _setTokenURI(optionID, metadata);\n        uint256 stakingAmount = distributeSettlementFee(\n            settlementFee,\n            referrer\n        );\n\n        _lock(optionID, option.lockedAmount, option.premium);\n        emit Create(optionID, msg.sender, stakingAmount, totalFee, metadata);\n    }\n\n    function distributeSettlementFee(uint256 settlementFee, address referrer)\n        internal\n        returns (uint256 stakingAmount)\n    {\n        stakingAmount = ((settlementFee * config.stakingFeePercentage()) / 100);\n\n        // Incase the stakingAmount is 0\n        if (stakingAmount > 0) {\n            tokenX.transfer(config.settlementFeeRecipient(), stakingAmount);\n        }\n\n        uint256 adminFee = settlementFee - stakingAmount;\n        if (adminFee > 0) {\n            if (\n                config.referralRewardPercentage() > 0 &&\n                referrer != owner() &&\n                referrer != msg.sender\n            ) {\n                uint256 referralReward = (adminFee *\n                    config.referralRewardPercentage()) / 100;\n                adminFee = adminFee - referralReward;\n                tokenX.transfer(referrer, referralReward);\n                emit PayReferralFee(referrer, referralReward);\n            }\n            tokenX.transfer(owner(), adminFee);\n            emit PayAdminFee(owner(), adminFee);\n        }\n    }\n\n    function _modifyOption(\n        uint256 optionID,\n        Option memory option,\n        uint256 lockedAmount,\n        uint256 amount,\n        uint256 premium\n    ) internal returns (Option memory modifiedOption) {\n        option.lockedAmount = lockedAmount;\n        option.amount = amount;\n        option.premium = premium;\n        modifiedOption = option;\n        _setOption(optionID, option);\n    }\n\n    function _lock(\n        uint256 id,\n        uint256 lockedAmount,\n        uint256 premium\n    ) internal {\n        pool.lock(id, lockedAmount, premium);\n    }\n\n    /**\n     * @notice Sets the expiry price in the oracle\n     * @dev a roundId must be provided to confirm price validity,\n     * which is the first Chainlink price provided after the expiryTimestamp\n     * @param roundId the first roundId after expiryTimestamp\n     */\n    function setRoundIDForExpiry(uint256 roundId, uint256 optionID)\n        external\n        returns (bool isCorrectRoundId)\n    {\n        (, uint256 price, , uint256 roundTimestamp, ) = priceProvider\n            .getRoundData(roundId);\n        Option storage option = options[optionID];\n        uint256 expiryTimestamp = option.expiration;\n        require(expiryTimestamp < roundTimestamp, \"C1\");\n        require(price >= 0, \"C2\");\n        uint256 previousRoundId = expiryToRoundID[expiryTimestamp];\n        if (previousRoundId <= 0) {\n            previousRoundId = roundId - 1;\n            while (!isCorrectRoundId) {\n                (, , , uint256 previousRoundTimestamp, ) = priceProvider\n                    .getRoundData(previousRoundId);\n                if (previousRoundTimestamp == 0) {\n                    require(previousRoundId > 0, \"C3\");\n                    previousRoundId = previousRoundId - 1;\n                } else if (previousRoundTimestamp > expiryTimestamp) {\n                    revert(\"C4\");\n                } else {\n                    isCorrectRoundId = true;\n                    expiryToRoundID[expiryTimestamp] = previousRoundId;\n                }\n            }\n        }\n    }\n\n    /**\n     * @notice Unlocks the locked funds if the option was\n     * OTM at the time of expiry otherwise exercises it\n     * @param optionID ID of the option\n     */\n    function unlock(uint256 optionID) public {\n        Option storage option = options[optionID];\n        require(option.expiration <= block.timestamp, \"O4\");\n        require(option.state == State.Active, \"O5\");\n        uint256 roundID = expiryToRoundID[option.expiration];\n        require(roundID > 0, \"O20\");\n        (, uint256 priceAtExpiration, , , ) = priceProvider.getRoundData(\n            roundID\n        );\n        if (\n            (option.optionType == OptionType.Call &&\n                priceAtExpiration > option.strike) ||\n            (option.optionType == OptionType.Put &&\n                priceAtExpiration < option.strike)\n        ) {\n            exercise(optionID);\n        } else {\n            option.state = State.Expired;\n            pool.unlock(optionID);\n            burnToken(optionID);\n            emit Expire(optionID, option.premium);\n        }\n    }\n\n    /**\n     * @notice Unlocks an array of options\n     * @param optionIDs array of options\n     */\n    function unlockAll(uint256[] calldata optionIDs) external {\n        uint256 arrayLength = optionIDs.length;\n        for (uint256 i = 0; i < arrayLength; i++) {\n            unlock(optionIDs[i]);\n        }\n    }\n\n    /**\n     * @notice Exercises an option if it was\n     * ITM at the time of expiry\n     * @param optionID ID of your option\n     * @return profit Profit sent to the user\n     */\n    function exercise(uint256 optionID) public returns (uint256 profit) {\n        require(exists(optionID), \"O10\");\n\n        Option storage option = options[optionID];\n\n        require(option.expiration <= block.timestamp, \"O4\");\n        require(option.state == State.Active, \"O14\");\n        uint256 roundID = expiryToRoundID[option.expiration];\n        require(roundID > 0, \"O20\");\n        (, uint256 priceAtExpiration, , , ) = priceProvider.getRoundData(\n            roundID\n        );\n\n        if (option.optionType == OptionType.Call) {\n            require(option.strike <= priceAtExpiration, \"O17\");\n        } else {\n            require(option.strike >= priceAtExpiration, \"O18\");\n        }\n        profit = option.lockedAmount;\n        pool.send(optionID, ownerOf(optionID), profit);\n        // Burn the option\n        burnToken(optionID);\n        option.state = State.Exercised;\n        emit Exercise(optionID, profit);\n    }\n\n    /**\n     * @notice Used for getting the option's price using blackscholes\n     * @param period Option period in seconds\n     * @param amount Option amount\n     * @param strike Strike price of the option\n     * @param isYes whether the option isAbove or not\n     * @param isAbove whether the price will stay above this strike or not\n     * @return total Total price to be paid\n     * @return settlementFee Amount to be distributed to the Buffer token holders\n     * @return premium Amount that covers the price difference in the ITM options\n     */\n    function fees(\n        uint256 period,\n        uint256 amount,\n        uint256 strike,\n        bool isYes,\n        bool isAbove\n    )\n        public\n        view\n        returns (\n            uint256 total,\n            uint256 settlementFee,\n            uint256 premium\n        )\n    {\n        uint256 currentPrice = priceProvider.getUsdPrice();\n\n        premium = FeeCalculator.feesTokenXBinary(\n            period,\n            amount,\n            strike,\n            isYes,\n            isAbove,\n            currentPrice,\n            config,\n            pool\n        );\n        total = (premium * 1e4) / (1e4 - config.settlementFeePercentage());\n        settlementFee = total - premium;\n    }\n\n    function _generateTokenId() internal returns (uint256) {\n        return nextTokenId++;\n    }\n\n    function _getOption(uint256 optionID)\n        internal\n        view\n        returns (Option memory)\n    {\n        return options[optionID];\n    }\n\n    function _setOption(uint256 optionID, Option memory option) internal {\n        options[optionID] = option;\n    }\n\n    function burn(uint256 tokenId_) external {\n        require(msg.sender == ownerOf(tokenId_), \"O9\");\n        burnToken(tokenId_);\n    }\n\n    /************************************************\n     *  ERC3525 Functions\n     ***********************************************/\n\n    /**\n     * @notice Splits the option\n     * @param optionID OptionId to be splitted\n     * @param splitUnits_ Units to be splitted into\n     * @return newOptionIDs An array of the splitted options\n     */\n    function split(uint256 optionID, uint256[] calldata splitUnits_)\n        external\n        returns (uint256[] memory newOptionIDs)\n    {\n        require(splitUnits_.length > 0, \"N1\");\n        newOptionIDs = new uint256[](splitUnits_.length);\n        Option memory option = _getOption(optionID);\n        uint256 totalUnits = unitsInToken(optionID);\n        uint256 totalChildAmount;\n        uint256 totalChildLockedAmount;\n        uint256 totalChildPremium;\n        // Create child options\n        for (uint256 i = 0; i < splitUnits_.length; i++) {\n            uint256 newOptionID = _generateTokenId();\n            newOptionIDs[i] = newOptionID;\n\n            _split(optionID, newOptionID, splitUnits_[i]);\n\n            uint256 childAmount = (option.amount * splitUnits_[i]) / totalUnits;\n            totalChildAmount += childAmount;\n\n            uint256 childLockedAmount = (option.lockedAmount * splitUnits_[i]) /\n                totalUnits;\n            totalChildLockedAmount += childLockedAmount;\n\n            uint256 childPremium = (option.premium * splitUnits_[i]) /\n                totalUnits;\n            totalChildPremium += childPremium;\n\n            Option memory newOption = Option(\n                option.state,\n                option.strike,\n                childAmount,\n                childLockedAmount,\n                childPremium,\n                option.expiration,\n                option.optionType\n            );\n            _setOption(newOptionID, newOption);\n        }\n        // Modify the parent option once all child options are created\n        option = _modifyOption(\n            optionID,\n            option,\n            option.lockedAmount - totalChildLockedAmount,\n            option.amount - totalChildAmount,\n            option.premium - totalChildPremium\n        );\n        pool.changeLock(optionID, option.lockedAmount, option.premium);\n\n        // Lock the amount in the pool for the child options\n        for (uint256 i = 0; i < splitUnits_.length; i++) {\n            Option memory newOption = _getOption(newOptionIDs[i]);\n            _lock(newOptionIDs[i], newOption.lockedAmount, newOption.premium);\n        }\n    }\n\n    /**\n     * @notice Merges the options\n     * @param optionIDs An array of the optionsIds to be merged\n     * @param targetOptionID OptionId to be merged into\n     */\n    function merge(uint256[] calldata optionIDs, uint256 targetOptionID)\n        external\n    {\n        require(optionIDs.length > 0, \"N4\");\n        Option memory targetOption = _getOption(targetOptionID);\n\n        uint256 totalLockedAmount = targetOption.lockedAmount;\n        uint256 totalAmount = targetOption.amount;\n        uint256 totalPremium = targetOption.premium;\n\n        for (uint256 i = 0; i < optionIDs.length; i++) {\n            Option memory option = _getOption(optionIDs[i]);\n            totalLockedAmount = totalLockedAmount + option.lockedAmount;\n            totalAmount = totalAmount + option.amount;\n            totalPremium = totalPremium + option.premium;\n            pool.unlockWithoutProfit(optionIDs[i]);\n            _merge(optionIDs[i], targetOptionID);\n        }\n        _modifyOption(\n            targetOptionID,\n            targetOption,\n            totalLockedAmount,\n            totalAmount,\n            totalPremium\n        );\n        pool.changeLock(targetOptionID, totalLockedAmount, totalPremium);\n    }\n\n    /**\n     * @notice Transfer part of units of a option to another option.\n     * @param optionID Id of the option to transfer\n     * @param transferUnits_ Amount of units to transfer\n     */\n    function _beforeTransferFrom(uint256 optionID, uint256 transferUnits_)\n        internal\n        returns (\n            uint256 newAmount,\n            uint256 newPremium,\n            uint256 newLockedAmount,\n            Option memory option\n        )\n    {\n        option = _getOption(optionID);\n        uint256 totalUnits = unitsInToken(optionID);\n        newAmount = (option.amount * transferUnits_) / totalUnits;\n        newPremium = (option.premium * transferUnits_) / totalUnits;\n        newLockedAmount = (option.lockedAmount * transferUnits_) / totalUnits;\n\n        option = _modifyOption(\n            optionID,\n            option,\n            option.lockedAmount - newLockedAmount,\n            option.amount - newAmount,\n            option.premium - newPremium\n        );\n        pool.changeLock(optionID, option.lockedAmount, option.premium);\n    }\n\n    /**\n     * @notice Transfer part of units of a option to target address.\n     * @param from_ Address of the option sender\n     * @param to_ Address of the option recipient\n     * @param optionID Id of the option to transfer\n     * @param transferUnits_ Amount of units to transfer\n     */\n    function transferFrom(\n        address from_,\n        address to_,\n        uint256 optionID,\n        uint256 transferUnits_\n    ) external returns (uint256 newOptionID) {\n        newOptionID = _generateTokenId();\n        (\n            uint256 newAmount,\n            uint256 newPremium,\n            uint256 newLockedAmount,\n            Option memory option\n        ) = _beforeTransferFrom(optionID, transferUnits_);\n        Option memory newOption = Option(\n            option.state,\n            option.strike,\n            newAmount,\n            newLockedAmount,\n            newPremium,\n            option.expiration,\n            option.optionType\n        );\n        _setOption(newOptionID, newOption);\n\n        _lock(newOptionID, newLockedAmount, newPremium);\n        _transferUnitsFrom(from_, to_, optionID, newOptionID, transferUnits_);\n    }\n\n    /**\n     * @notice Transfer part of units of a option to another option.\n     * @param from_ Address of the option sender\n     * @param to_ Address of the option recipient\n     * @param optionID Id of the option to transfer\n     * @param targetOptionID Id of the option to receive\n     * @param transferUnits_ Amount of units to transfer\n     */\n    function transferFrom(\n        address from_,\n        address to_,\n        uint256 optionID,\n        uint256 targetOptionID,\n        uint256 transferUnits_\n    ) external virtual {\n        require(exists(targetOptionID), \"N12\");\n        (\n            uint256 newAmount,\n            uint256 newPremium,\n            uint256 newLockedAmount,\n\n        ) = _beforeTransferFrom(optionID, transferUnits_);\n        Option memory targetOption = _getOption(targetOptionID);\n        targetOption = _modifyOption(\n            targetOptionID,\n            targetOption,\n            targetOption.lockedAmount + newLockedAmount,\n            targetOption.amount + newAmount,\n            targetOption.premium + newPremium\n        );\n\n        pool.changeLock(\n            targetOptionID,\n            targetOption.lockedAmount,\n            targetOption.premium\n        );\n        _transferUnitsFrom(\n            from_,\n            to_,\n            optionID,\n            targetOptionID,\n            transferUnits_\n        );\n    }\n\n    function createSlot(\n        uint256 optionID,\n        uint256 strike,\n        uint256 expiration,\n        OptionType optionType\n    ) internal returns (uint256 slot) {\n        slot = uint256(\n            keccak256(abi.encode(strike, expiration, optionType, optionID))\n        );\n        require(!slotDetails[slot].isValid, \"N14\");\n        slotDetails[slot] = SlotDetail(strike, expiration, optionType, true);\n    }\n}\n","sourcePath":"contracts/Options/BufferBinaryEuropeanTokenXOptions.sol","deployment":{"address":"0xc6a21481459D4B5bD8A81E7E3b3c4d975FCFf3C4","chainid":"80001","blockHeight":27269548}}