{"bytecode":"608060405234801561001057600080fd5b50611098806100206000396000f3fe608060405234801561001057600080fd5b50600436106100575760003560e01c80636c967c0f1461005c578063931e9f9014610085578063d2c85c56146100a5578063dedf92a4146100c6578063f8ecf3a3146100e6575b600080fd5b61006f61006a366004610d73565b6100f9565b60405161007c9190610f49565b60405180910390f35b610098610093366004610b7a565b6103b6565b60405161007c9190610f11565b6100b86100b3366004610b4f565b610504565b60405190815260200161007c565b6100d96100d4366004610be9565b6106b1565b60405161007c9190610ec2565b6100d96100f4366004610d8e565b610796565b610101610a10565b8151602083015160405163409e220560e01b815260048101839052600090819081908190819081908190819081906001600160a01b038b169063409e2205906024016101206040518083038186803b15801561015c57600080fd5b505afa158015610170573d6000803e3d6000fd5b505050506040513d601f19601f820116820180604052508101906101949190610cef565b9850985098509850985098509850985098506000808b6001600160a01b031663689ab5ac8e6040518263ffffffff1660e01b81526004016101d791815260200190565b604080518083038186803b1580156101ee57600080fd5b505afa158015610202573d6000803e3d6000fd5b505050506040513d601f19601f820116820180604052508101906102269190610cb6565b91509150604051806101a001604052808e81526020018c600381111561025c57634e487b7160e01b600052602160045260246000fd5b81526020018b81526020018a815260200189815260200188815260200187815260200186600281111561029f57634e487b7160e01b600052602160045260246000fd5b8152602001831515815260200182151581526020018581526020018481526020018d6001600160a01b03166379502c556040518163ffffffff1660e01b815260040160206040518083038186803b1580156102f957600080fd5b505afa15801561030d573d6000803e3d6000fd5b505050506040513d601f19601f820116820180604052508101906103319190610b33565b6001600160a01b03166318f88e5b6040518163ffffffff1660e01b815260040160206040518083038186803b15801561036957600080fd5b505afa15801561037d573d6000803e3d6000fd5b505050506040513d601f19601f820116820180604052508101906103a19190610d9f565b90529f9e505050505050505050505050505050565b6060816001600160401b038111156103de57634e487b7160e01b600052604160045260246000fd5b604051908082528060200260200182016040528015610407578160200160208202803683370190505b50905060005b828110156104fd57600084848381811061043757634e487b7160e01b600052603260045260246000fd5b905060200201602081019061044c9190610b10565b9050806001600160a01b0316631acf55826040518163ffffffff1660e01b815260040160206040518083038186803b15801561048757600080fd5b505afa15801561049b573d6000803e3d6000fd5b505050506040513d601f19601f820116820180604052508101906104bf9190610d9f565b8383815181106104df57634e487b7160e01b600052603260045260246000fd5b602090810291909101015250806104f581610fdf565b91505061040d565b5092915050565b6000808390506000806000836001600160a01b031663feaf968c6040518163ffffffff1660e01b815260040160a06040518083038186803b15801561054857600080fd5b505afa15801561055c573d6000803e3d6000fd5b505050506040513d601f19601f820116820180604052508101906105809190610db7565b5093505092509250858111156106a55760005b806106a3576105a3600185610fb7565b93506000846001600160501b0316116105f35760405162461bcd60e51b815260206004820152600e60248201526d15dc9bdb99c81c9bdd5b99081a5960921b604482015260640160405180910390fd5b604051639a6fc8f560e01b81526001600160501b038516600482015260009081906001600160a01b03881690639a6fc8f59060240160a06040518083038186803b15801561064057600080fd5b505afa158015610654573d6000803e3d6000fd5b505050506040513d601f19601f820116820180604052508101906106789190610db7565b5093505092505060008111801561068f5750888111155b1561069c57600192508194505b5050610593565b505b50925050505b92915050565b606081516001600160401b038111156106da57634e487b7160e01b600052604160045260246000fd5b60405190808252806020026020018201604052801561071357816020015b610700610a10565b8152602001906001900390816106f85790505b50905060005b82518110156107905761075283828151811061074557634e487b7160e01b600052603260045260246000fd5b60200260200101516100f9565b82828151811061077257634e487b7160e01b600052603260045260246000fd5b6020026020010181905250808061078890610fdf565b915050610719565b50919050565b606060008235816107ad6040860160208701610b10565b90508060006001600160a01b0382166375a74d846107d160608a0160408b01610b10565b6040516001600160e01b031960e084901b1681526001600160a01b03909116600482015260240160206040518083038186803b15801561081057600080fd5b505afa158015610824573d6000803e3d6000fd5b505050506040513d601f19601f820116820180604052508101906108489190610d9f565b9050600061085c6080890160608a01610c9a565b6108705761086b856001610f88565b610873565b60005b905081811015610a05576108878183610fa0565b6001600160401b038111156108ac57634e487b7160e01b600052604160045260246000fd5b6040519080825280602002602001820160405280156108e557816020015b6108d2610a10565b8152602001906001900390816108ca5790505b509650805b82811015610a03576109b76040518060400160405280866001600160a01b031663c962ca128d60400160208101906109229190610b10565b6040516001600160e01b031960e084901b1681526001600160a01b0390911660048201526024810187905260440160206040518083038186803b15801561096857600080fd5b505afa15801561097c573d6000803e3d6000fd5b505050506040513d601f19601f820116820180604052508101906109a09190610d9f565b8152602001876001600160a01b03168152506100f9565b8888815181106109d757634e487b7160e01b600052603260045260246000fd5b602002602001018190525086806109ed90610fdf565b97505080806109fb90610fdf565b9150506108ea565b505b505050505050919050565b604080516101a08101909152600080825260208201908152602001600081526020016000815260200160008152602001600081526020016000815260200160006002811115610a6f57634e487b7160e01b600052602160045260246000fd5b81526020016000151581526020016000151581526020016000815260200160008152602001600081525090565b600060408284031215610aad578081fd5b604080519081016001600160401b0381118282101715610acf57610acf611026565b604052823581529050806020830135610ae78161103c565b6020919091015292915050565b80516001600160501b0381168114610b0b57600080fd5b919050565b600060208284031215610b21578081fd5b8135610b2c8161103c565b9392505050565b600060208284031215610b44578081fd5b8151610b2c8161103c565b60008060408385031215610b61578081fd5b8235610b6c8161103c565b946020939093013593505050565b60008060208385031215610b8c578182fd5b82356001600160401b0380821115610ba2578384fd5b818501915085601f830112610bb5578384fd5b813581811115610bc3578485fd5b8660208260051b8501011115610bd7578485fd5b60209290920196919550909350505050565b60006020808385031215610bfb578182fd5b82356001600160401b0380821115610c11578384fd5b818501915085601f830112610c24578384fd5b813581811115610c3657610c36611026565b610c44848260051b01610f58565b8181528481019250838501600683901b85018601891015610c63578687fd5b8694505b82851015610c8e57610c798982610a9c565b84526001949094019392850192604001610c67565b50979650505050505050565b600060208284031215610cab578081fd5b8135610b2c81611054565b60008060408385031215610cc8578182fd5b8251610cd381611054565b6020840151909250610ce481611054565b809150509250929050565b60008060008060008060008060006101208a8c031215610d0d578485fd5b895160048110610d1b578586fd5b8099505060208a0151975060408a0151965060608a0151955060808a0151945060a08a0151935060c08a015160038110610d53578384fd5b8093505060e08a015191506101008a015190509295985092959850929598565b600060408284031215610d84578081fd5b610b2c8383610a9c565b600060808284031215610790578081fd5b600060208284031215610db0578081fd5b5051919050565b600080600080600060a08688031215610dce578283fd5b610dd786610af4565b9450602086015193506040860151925060608601519150610dfa60808701610af4565b90509295509295909350565b60038110610e1657610e16611010565b9052565b60048110610e1657610e16611010565b805182526020810151610e406020840182610e1a565b5060408101516040830152606081015160608301526080810151608083015260a081015160a083015260c081015160c083015260e0810151610e8560e0840182610e06565b5061010081810151151590830152610120808201511515908301526101408082015190830152610160808201519083015261018090810151910152565b6020808252825182820181905260009190848201906040850190845b81811015610f0557610ef1838551610e2a565b928401926101a09290920191600101610ede565b50909695505050505050565b6020808252825182820181905260009190848201906040850190845b81811015610f0557835183529284019291840191600101610f2d565b6101a081016106ab8284610e2a565b604051601f8201601f191681016001600160401b0381118282101715610f8057610f80611026565b604052919050565b60008219821115610f9b57610f9b610ffa565b500190565b600082821015610fb257610fb2610ffa565b500390565b60006001600160501b0383811690831681811015610fd757610fd7610ffa565b039392505050565b6000600019821415610ff357610ff3610ffa565b5060010190565b634e487b7160e01b600052601160045260246000fd5b634e487b7160e01b600052602160045260246000fd5b634e487b7160e01b600052604160045260246000fd5b6001600160a01b038116811461105157600080fd5b50565b801515811461105157600080fdfea2646970667358221220c445ec8f712f78be6a421b4d299d61ea17188988678156bf00445e1013238bb264736f6c63430008040033","bytecodeSha1":"d3988e473e534cedde2d64af085d934ca10be483","type":"contract","abi":[{"inputs":[{"components":[{"internalType":"uint256","name":"optionId","type":"uint256"},{"internalType":"address","name":"contractAddress","type":"address"}],"internalType":"struct OptionMeta.GenricOptionInput[]","name":"options","type":"tuple[]"}],"name":"get_bulk_option_data","outputs":[{"components":[{"internalType":"uint256","name":"optionId","type":"uint256"},{"internalType":"enum IBufferOptions.State","name":"state","type":"uint8"},{"internalType":"uint256","name":"strike","type":"uint256"},{"internalType":"uint256","name":"amount","type":"uint256"},{"internalType":"uint256","name":"lockedAmount","type":"uint256"},{"internalType":"uint256","name":"premium","type":"uint256"},{"internalType":"uint256","name":"expiration","type":"uint256"},{"internalType":"enum IBufferOptions.OptionType","name":"optionType","type":"uint8"},{"internalType":"bool","name":"isYes","type":"bool"},{"internalType":"bool","name":"isAbove","type":"bool"},{"internalType":"uint256","name":"totalFee","type":"uint256"},{"internalType":"uint256","name":"createdAt","type":"uint256"},{"internalType":"uint256","name":"iv","type":"uint256"}],"internalType":"struct OptionMeta.OptionMetaData[]","name":"allOptions","type":"tuple[]"}],"stateMutability":"view","type":"function"},{"inputs":[{"internalType":"address[]","name":"assets","type":"address[]"}],"name":"get_current_prices","outputs":[{"internalType":"uint256[]","name":"prices","type":"uint256[]"}],"stateMutability":"view","type":"function"},{"inputs":[{"components":[{"internalType":"uint256","name":"lastStoredOptionIndex","type":"uint256"},{"internalType":"address","name":"contractAddress","type":"address"},{"internalType":"address","name":"userAddress","type":"address"},{"internalType":"bool","name":"isNull","type":"bool"}],"internalType":"struct OptionMeta.UserOptionInput","name":"userOptionInput","type":"tuple"}],"name":"get_latest_options_for_user","outputs":[{"components":[{"internalType":"uint256","name":"optionId","type":"uint256"},{"internalType":"enum IBufferOptions.State","name":"state","type":"uint8"},{"internalType":"uint256","name":"strike","type":"uint256"},{"internalType":"uint256","name":"amount","type":"uint256"},{"internalType":"uint256","name":"lockedAmount","type":"uint256"},{"internalType":"uint256","name":"premium","type":"uint256"},{"internalType":"uint256","name":"expiration","type":"uint256"},{"internalType":"enum IBufferOptions.OptionType","name":"optionType","type":"uint8"},{"internalType":"bool","name":"isYes","type":"bool"},{"internalType":"bool","name":"isAbove","type":"bool"},{"internalType":"uint256","name":"totalFee","type":"uint256"},{"internalType":"uint256","name":"createdAt","type":"uint256"},{"internalType":"uint256","name":"iv","type":"uint256"}],"internalType":"struct OptionMeta.OptionMetaData[]","name":"allOptions","type":"tuple[]"}],"stateMutability":"view","type":"function"},{"inputs":[{"components":[{"internalType":"uint256","name":"optionId","type":"uint256"},{"internalType":"address","name":"contractAddress","type":"address"}],"internalType":"struct OptionMeta.GenricOptionInput","name":"option","type":"tuple"}],"name":"get_option_data","outputs":[{"components":[{"internalType":"uint256","name":"optionId","type":"uint256"},{"internalType":"enum IBufferOptions.State","name":"state","type":"uint8"},{"internalType":"uint256","name":"strike","type":"uint256"},{"internalType":"uint256","name":"amount","type":"uint256"},{"internalType":"uint256","name":"lockedAmount","type":"uint256"},{"internalType":"uint256","name":"premium","type":"uint256"},{"internalType":"uint256","name":"expiration","type":"uint256"},{"internalType":"enum IBufferOptions.OptionType","name":"optionType","type":"uint8"},{"internalType":"bool","name":"isYes","type":"bool"},{"internalType":"bool","name":"isAbove","type":"bool"},{"internalType":"uint256","name":"totalFee","type":"uint256"},{"internalType":"uint256","name":"createdAt","type":"uint256"},{"internalType":"uint256","name":"iv","type":"uint256"}],"internalType":"struct OptionMeta.OptionMetaData","name":"optionDetails","type":"tuple"}],"stateMutability":"view","type":"function"},{"inputs":[{"internalType":"address","name":"priceProvider","type":"address"},{"internalType":"uint256","name":"timestamp","type":"uint256"}],"name":"get_price_at_timestamp","outputs":[{"internalType":"uint256","name":"","type":"uint256"}],"stateMutability":"view","type":"function"}],"compiler":{"version":"0.8.4+commit.c7e474f2","evm_version":"istanbul","optimizer":{"enabled":true,"runs":1}},"contractName":"OptionMeta","language":"Solidity","natspec":{"methods":{},"kind":"dev","version":1},"opcodes":"PUSH1 0x80 PUSH1 0x40 MSTORE CALLVALUE DUP1 ISZERO PUSH2 0x10 JUMPI PUSH1 0x0 DUP1 REVERT JUMPDEST POP PUSH1 0x4 CALLDATASIZE LT PUSH2 0x57 JUMPI PUSH1 0x0 CALLDATALOAD PUSH1 0xE0 SHR DUP1 PUSH4 0x6C967C0F EQ PUSH2 0x5C JUMPI DUP1 PUSH4 0x931E9F90 EQ PUSH2 0x85 JUMPI DUP1 PUSH4 0xD2C85C56 EQ PUSH2 0xA5 JUMPI DUP1 PUSH4 0xDEDF92A4 EQ PUSH2 0xC6 JUMPI DUP1 PUSH4 0xF8ECF3A3 EQ PUSH2 0xE6 JUMPI JUMPDEST PUSH1 0x0 DUP1 REVERT JUMPDEST PUSH2 0x6F PUSH2 0x6A CALLDATASIZE PUSH1 0x4 PUSH2 0xD73 JUMP JUMPDEST PUSH2 0xF9 JUMP JUMPDEST PUSH1 0x40 MLOAD PUSH2 0x7C SWAP2 SWAP1 PUSH2 0xF49 JUMP JUMPDEST PUSH1 0x40 MLOAD DUP1 SWAP2 SUB SWAP1 RETURN JUMPDEST PUSH2 0x98 PUSH2 0x93 CALLDATASIZE PUSH1 0x4 PUSH2 0xB7A JUMP JUMPDEST PUSH2 0x3B6 JUMP JUMPDEST PUSH1 0x40 MLOAD PUSH2 0x7C SWAP2 SWAP1 PUSH2 0xF11 JUMP JUMPDEST PUSH2 0xB8 PUSH2 0xB3 CALLDATASIZE PUSH1 0x4 PUSH2 0xB4F JUMP JUMPDEST PUSH2 0x504 JUMP JUMPDEST PUSH1 0x40 MLOAD SWAP1 DUP2 MSTORE PUSH1 0x20 ADD PUSH2 0x7C JUMP JUMPDEST PUSH2 0xD9 PUSH2 0xD4 CALLDATASIZE PUSH1 0x4 PUSH2 0xBE9 JUMP JUMPDEST PUSH2 0x6B1 JUMP JUMPDEST PUSH1 0x40 MLOAD PUSH2 0x7C SWAP2 SWAP1 PUSH2 0xEC2 JUMP JUMPDEST PUSH2 0xD9 PUSH2 0xF4 CALLDATASIZE PUSH1 0x4 PUSH2 0xD8E JUMP JUMPDEST PUSH2 0x796 JUMP JUMPDEST PUSH2 0x101 PUSH2 0xA10 JUMP JUMPDEST DUP2 MLOAD PUSH1 0x20 DUP4 ADD MLOAD PUSH1 0x40 MLOAD PUSH4 0x409E2205 PUSH1 0xE0 SHL DUP2 MSTORE PUSH1 0x4 DUP2 ADD DUP4 SWAP1 MSTORE PUSH1 0x0 SWAP1 DUP2 SWAP1 DUP2 SWAP1 DUP2 SWAP1 DUP2 SWAP1 DUP2 SWAP1 DUP2 SWAP1 DUP2 SWAP1 DUP2 SWAP1 PUSH1 0x1 PUSH1 0x1 PUSH1 0xA0 SHL SUB DUP12 AND SWAP1 PUSH4 0x409E2205 SWAP1 PUSH1 0x24 ADD PUSH2 0x120 PUSH1 0x40 MLOAD DUP1 DUP4 SUB DUP2 DUP7 DUP1 EXTCODESIZE ISZERO DUP1 ISZERO PUSH2 0x15C JUMPI PUSH1 0x0 DUP1 REVERT JUMPDEST POP GAS STATICCALL ISZERO DUP1 ISZERO PUSH2 0x170 JUMPI RETURNDATASIZE PUSH1 0x0 DUP1 RETURNDATACOPY RETURNDATASIZE PUSH1 0x0 REVERT JUMPDEST POP POP POP POP PUSH1 0x40 MLOAD RETURNDATASIZE PUSH1 0x1F NOT PUSH1 0x1F DUP3 ADD AND DUP3 ADD DUP1 PUSH1 0x40 MSTORE POP DUP2 ADD SWAP1 PUSH2 0x194 SWAP2 SWAP1 PUSH2 0xCEF JUMP JUMPDEST SWAP9 POP SWAP9 POP SWAP9 POP SWAP9 POP SWAP9 POP SWAP9 POP SWAP9 POP SWAP9 POP SWAP9 POP PUSH1 0x0 DUP1 DUP12 PUSH1 0x1 PUSH1 0x1 PUSH1 0xA0 SHL SUB AND PUSH4 0x689AB5AC DUP15 PUSH1 0x40 MLOAD DUP3 PUSH4 0xFFFFFFFF AND PUSH1 0xE0 SHL DUP2 MSTORE PUSH1 0x4 ADD PUSH2 0x1D7 SWAP2 DUP2 MSTORE PUSH1 0x20 ADD SWAP1 JUMP JUMPDEST PUSH1 0x40 DUP1 MLOAD DUP1 DUP4 SUB DUP2 DUP7 DUP1 EXTCODESIZE ISZERO DUP1 ISZERO PUSH2 0x1EE JUMPI PUSH1 0x0 DUP1 REVERT JUMPDEST POP GAS STATICCALL ISZERO DUP1 ISZERO PUSH2 0x202 JUMPI RETURNDATASIZE PUSH1 0x0 DUP1 RETURNDATACOPY RETURNDATASIZE PUSH1 0x0 REVERT JUMPDEST POP POP POP POP PUSH1 0x40 MLOAD RETURNDATASIZE PUSH1 0x1F NOT PUSH1 0x1F DUP3 ADD AND DUP3 ADD DUP1 PUSH1 0x40 MSTORE POP DUP2 ADD SWAP1 PUSH2 0x226 SWAP2 SWAP1 PUSH2 0xCB6 JUMP JUMPDEST SWAP2 POP SWAP2 POP PUSH1 0x40 MLOAD DUP1 PUSH2 0x1A0 ADD PUSH1 0x40 MSTORE DUP1 DUP15 DUP2 MSTORE PUSH1 0x20 ADD DUP13 PUSH1 0x3 DUP2 GT ISZERO PUSH2 0x25C JUMPI PUSH4 0x4E487B71 PUSH1 0xE0 SHL PUSH1 0x0 MSTORE PUSH1 0x21 PUSH1 0x4 MSTORE PUSH1 0x24 PUSH1 0x0 REVERT JUMPDEST DUP2 MSTORE PUSH1 0x20 ADD DUP12 DUP2 MSTORE PUSH1 0x20 ADD DUP11 DUP2 MSTORE PUSH1 0x20 ADD DUP10 DUP2 MSTORE PUSH1 0x20 ADD DUP9 DUP2 MSTORE PUSH1 0x20 ADD DUP8 DUP2 MSTORE PUSH1 0x20 ADD DUP7 PUSH1 0x2 DUP2 GT ISZERO PUSH2 0x29F JUMPI PUSH4 0x4E487B71 PUSH1 0xE0 SHL PUSH1 0x0 MSTORE PUSH1 0x21 PUSH1 0x4 MSTORE PUSH1 0x24 PUSH1 0x0 REVERT JUMPDEST DUP2 MSTORE PUSH1 0x20 ADD DUP4 ISZERO ISZERO DUP2 MSTORE PUSH1 0x20 ADD DUP3 ISZERO ISZERO DUP2 MSTORE PUSH1 0x20 ADD DUP6 DUP2 MSTORE PUSH1 0x20 ADD DUP5 DUP2 MSTORE PUSH1 0x20 ADD DUP14 PUSH1 0x1 PUSH1 0x1 PUSH1 0xA0 SHL SUB AND PUSH4 0x79502C55 PUSH1 0x40 MLOAD DUP2 PUSH4 0xFFFFFFFF AND PUSH1 0xE0 SHL DUP2 MSTORE PUSH1 0x4 ADD PUSH1 0x20 PUSH1 0x40 MLOAD DUP1 DUP4 SUB DUP2 DUP7 DUP1 EXTCODESIZE ISZERO DUP1 ISZERO PUSH2 0x2F9 JUMPI PUSH1 0x0 DUP1 REVERT JUMPDEST POP GAS STATICCALL ISZERO DUP1 ISZERO PUSH2 0x30D JUMPI RETURNDATASIZE PUSH1 0x0 DUP1 RETURNDATACOPY RETURNDATASIZE PUSH1 0x0 REVERT JUMPDEST POP POP POP POP PUSH1 0x40 MLOAD RETURNDATASIZE PUSH1 0x1F NOT PUSH1 0x1F DUP3 ADD AND DUP3 ADD DUP1 PUSH1 0x40 MSTORE POP DUP2 ADD SWAP1 PUSH2 0x331 SWAP2 SWAP1 PUSH2 0xB33 JUMP JUMPDEST PUSH1 0x1 PUSH1 0x1 PUSH1 0xA0 SHL SUB AND PUSH4 0x18F88E5B PUSH1 0x40 MLOAD DUP2 PUSH4 0xFFFFFFFF AND PUSH1 0xE0 SHL DUP2 MSTORE PUSH1 0x4 ADD PUSH1 0x20 PUSH1 0x40 MLOAD DUP1 DUP4 SUB DUP2 DUP7 DUP1 EXTCODESIZE ISZERO DUP1 ISZERO PUSH2 0x369 JUMPI PUSH1 0x0 DUP1 REVERT JUMPDEST POP GAS STATICCALL ISZERO DUP1 ISZERO PUSH2 0x37D JUMPI RETURNDATASIZE PUSH1 0x0 DUP1 RETURNDATACOPY RETURNDATASIZE PUSH1 0x0 REVERT JUMPDEST POP POP POP POP PUSH1 0x40 MLOAD RETURNDATASIZE PUSH1 0x1F NOT PUSH1 0x1F DUP3 ADD AND DUP3 ADD DUP1 PUSH1 0x40 MSTORE POP DUP2 ADD SWAP1 PUSH2 0x3A1 SWAP2 SWAP1 PUSH2 0xD9F JUMP JUMPDEST SWAP1 MSTORE SWAP16 SWAP15 POP POP POP POP POP POP POP POP POP POP POP POP POP POP POP JUMP JUMPDEST PUSH1 0x60 DUP2 PUSH1 0x1 PUSH1 0x1 PUSH1 0x40 SHL SUB DUP2 GT ISZERO PUSH2 0x3DE JUMPI PUSH4 0x4E487B71 PUSH1 0xE0 SHL PUSH1 0x0 MSTORE PUSH1 0x41 PUSH1 0x4 MSTORE PUSH1 0x24 PUSH1 0x0 REVERT JUMPDEST PUSH1 0x40 MLOAD SWAP1 DUP1 DUP3 MSTORE DUP1 PUSH1 0x20 MUL PUSH1 0x20 ADD DUP3 ADD PUSH1 0x40 MSTORE DUP1 ISZERO PUSH2 0x407 JUMPI DUP2 PUSH1 0x20 ADD PUSH1 0x20 DUP3 MUL DUP1 CALLDATASIZE DUP4 CALLDATACOPY ADD SWAP1 POP JUMPDEST POP SWAP1 POP PUSH1 0x0 JUMPDEST DUP3 DUP2 LT ISZERO PUSH2 0x4FD JUMPI PUSH1 0x0 DUP5 DUP5 DUP4 DUP2 DUP2 LT PUSH2 0x437 JUMPI PUSH4 0x4E487B71 PUSH1 0xE0 SHL PUSH1 0x0 MSTORE PUSH1 0x32 PUSH1 0x4 MSTORE PUSH1 0x24 PUSH1 0x0 REVERT JUMPDEST SWAP1 POP PUSH1 0x20 MUL ADD PUSH1 0x20 DUP2 ADD SWAP1 PUSH2 0x44C SWAP2 SWAP1 PUSH2 0xB10 JUMP JUMPDEST SWAP1 POP DUP1 PUSH1 0x1 PUSH1 0x1 PUSH1 0xA0 SHL SUB AND PUSH4 0x1ACF5582 PUSH1 0x40 MLOAD DUP2 PUSH4 0xFFFFFFFF AND PUSH1 0xE0 SHL DUP2 MSTORE PUSH1 0x4 ADD PUSH1 0x20 PUSH1 0x40 MLOAD DUP1 DUP4 SUB DUP2 DUP7 DUP1 EXTCODESIZE ISZERO DUP1 ISZERO PUSH2 0x487 JUMPI PUSH1 0x0 DUP1 REVERT JUMPDEST POP GAS STATICCALL ISZERO DUP1 ISZERO PUSH2 0x49B JUMPI RETURNDATASIZE PUSH1 0x0 DUP1 RETURNDATACOPY RETURNDATASIZE PUSH1 0x0 REVERT JUMPDEST POP POP POP POP PUSH1 0x40 MLOAD RETURNDATASIZE PUSH1 0x1F NOT PUSH1 0x1F DUP3 ADD AND DUP3 ADD DUP1 PUSH1 0x40 MSTORE POP DUP2 ADD SWAP1 PUSH2 0x4BF SWAP2 SWAP1 PUSH2 0xD9F JUMP JUMPDEST DUP4 DUP4 DUP2 MLOAD DUP2 LT PUSH2 0x4DF JUMPI PUSH4 0x4E487B71 PUSH1 0xE0 SHL PUSH1 0x0 MSTORE PUSH1 0x32 PUSH1 0x4 MSTORE PUSH1 0x24 PUSH1 0x0 REVERT JUMPDEST PUSH1 0x20 SWAP1 DUP2 MUL SWAP2 SWAP1 SWAP2 ADD ADD MSTORE POP DUP1 PUSH2 0x4F5 DUP2 PUSH2 0xFDF JUMP JUMPDEST SWAP2 POP POP PUSH2 0x40D JUMP JUMPDEST POP SWAP3 SWAP2 POP POP JUMP JUMPDEST PUSH1 0x0 DUP1 DUP4 SWAP1 POP PUSH1 0x0 DUP1 PUSH1 0x0 DUP4 PUSH1 0x1 PUSH1 0x1 PUSH1 0xA0 SHL SUB AND PUSH4 0xFEAF968C PUSH1 0x40 MLOAD DUP2 PUSH4 0xFFFFFFFF AND PUSH1 0xE0 SHL DUP2 MSTORE PUSH1 0x4 ADD PUSH1 0xA0 PUSH1 0x40 MLOAD DUP1 DUP4 SUB DUP2 DUP7 DUP1 EXTCODESIZE ISZERO DUP1 ISZERO PUSH2 0x548 JUMPI PUSH1 0x0 DUP1 REVERT JUMPDEST POP GAS STATICCALL ISZERO DUP1 ISZERO PUSH2 0x55C JUMPI RETURNDATASIZE PUSH1 0x0 DUP1 RETURNDATACOPY RETURNDATASIZE PUSH1 0x0 REVERT JUMPDEST POP POP POP POP PUSH1 0x40 MLOAD RETURNDATASIZE PUSH1 0x1F NOT PUSH1 0x1F DUP3 ADD AND DUP3 ADD DUP1 PUSH1 0x40 MSTORE POP DUP2 ADD SWAP1 PUSH2 0x580 SWAP2 SWAP1 PUSH2 0xDB7 JUMP JUMPDEST POP SWAP4 POP POP SWAP3 POP SWAP3 POP DUP6 DUP2 GT ISZERO PUSH2 0x6A5 JUMPI PUSH1 0x0 JUMPDEST DUP1 PUSH2 0x6A3 JUMPI PUSH2 0x5A3 PUSH1 0x1 DUP6 PUSH2 0xFB7 JUMP JUMPDEST SWAP4 POP PUSH1 0x0 DUP5 PUSH1 0x1 PUSH1 0x1 PUSH1 0x50 SHL SUB AND GT PUSH2 0x5F3 JUMPI PUSH1 0x40 MLOAD PUSH3 0x461BCD PUSH1 0xE5 SHL DUP2 MSTORE PUSH1 0x20 PUSH1 0x4 DUP3 ADD MSTORE PUSH1 0xE PUSH1 0x24 DUP3 ADD MSTORE PUSH14 0x15DC9BDB99C81C9BDD5B99081A59 PUSH1 0x92 SHL PUSH1 0x44 DUP3 ADD MSTORE PUSH1 0x64 ADD PUSH1 0x40 MLOAD DUP1 SWAP2 SUB SWAP1 REVERT JUMPDEST PUSH1 0x40 MLOAD PUSH4 0x9A6FC8F5 PUSH1 0xE0 SHL DUP2 MSTORE PUSH1 0x1 PUSH1 0x1 PUSH1 0x50 SHL SUB DUP6 AND PUSH1 0x4 DUP3 ADD MSTORE PUSH1 0x0 SWAP1 DUP2 SWAP1 PUSH1 0x1 PUSH1 0x1 PUSH1 0xA0 SHL SUB DUP9 AND SWAP1 PUSH4 0x9A6FC8F5 SWAP1 PUSH1 0x24 ADD PUSH1 0xA0 PUSH1 0x40 MLOAD DUP1 DUP4 SUB DUP2 DUP7 DUP1 EXTCODESIZE ISZERO DUP1 ISZERO PUSH2 0x640 JUMPI PUSH1 0x0 DUP1 REVERT JUMPDEST POP GAS STATICCALL ISZERO DUP1 ISZERO PUSH2 0x654 JUMPI RETURNDATASIZE PUSH1 0x0 DUP1 RETURNDATACOPY RETURNDATASIZE PUSH1 0x0 REVERT JUMPDEST POP POP POP POP PUSH1 0x40 MLOAD RETURNDATASIZE PUSH1 0x1F NOT PUSH1 0x1F DUP3 ADD AND DUP3 ADD DUP1 PUSH1 0x40 MSTORE POP DUP2 ADD SWAP1 PUSH2 0x678 SWAP2 SWAP1 PUSH2 0xDB7 JUMP JUMPDEST POP SWAP4 POP POP SWAP3 POP POP PUSH1 0x0 DUP2 GT DUP1 ISZERO PUSH2 0x68F JUMPI POP DUP9 DUP2 GT ISZERO JUMPDEST ISZERO PUSH2 0x69C JUMPI PUSH1 0x1 SWAP3 POP DUP2 SWAP5 POP JUMPDEST POP POP PUSH2 0x593 JUMP JUMPDEST POP JUMPDEST POP SWAP3 POP POP POP JUMPDEST SWAP3 SWAP2 POP POP JUMP JUMPDEST PUSH1 0x60 DUP2 MLOAD PUSH1 0x1 PUSH1 0x1 PUSH1 0x40 SHL SUB DUP2 GT ISZERO PUSH2 0x6DA JUMPI PUSH4 0x4E487B71 PUSH1 0xE0 SHL PUSH1 0x0 MSTORE PUSH1 0x41 PUSH1 0x4 MSTORE PUSH1 0x24 PUSH1 0x0 REVERT JUMPDEST PUSH1 0x40 MLOAD SWAP1 DUP1 DUP3 MSTORE DUP1 PUSH1 0x20 MUL PUSH1 0x20 ADD DUP3 ADD PUSH1 0x40 MSTORE DUP1 ISZERO PUSH2 0x713 JUMPI DUP2 PUSH1 0x20 ADD JUMPDEST PUSH2 0x700 PUSH2 0xA10 JUMP JUMPDEST DUP2 MSTORE PUSH1 0x20 ADD SWAP1 PUSH1 0x1 SWAP1 SUB SWAP1 DUP2 PUSH2 0x6F8 JUMPI SWAP1 POP JUMPDEST POP SWAP1 POP PUSH1 0x0 JUMPDEST DUP3 MLOAD DUP2 LT ISZERO PUSH2 0x790 JUMPI PUSH2 0x752 DUP4 DUP3 DUP2 MLOAD DUP2 LT PUSH2 0x745 JUMPI PUSH4 0x4E487B71 PUSH1 0xE0 SHL PUSH1 0x0 MSTORE PUSH1 0x32 PUSH1 0x4 MSTORE PUSH1 0x24 PUSH1 0x0 REVERT JUMPDEST PUSH1 0x20 MUL PUSH1 0x20 ADD ADD MLOAD PUSH2 0xF9 JUMP JUMPDEST DUP3 DUP3 DUP2 MLOAD DUP2 LT PUSH2 0x772 JUMPI PUSH4 0x4E487B71 PUSH1 0xE0 SHL PUSH1 0x0 MSTORE PUSH1 0x32 PUSH1 0x4 MSTORE PUSH1 0x24 PUSH1 0x0 REVERT JUMPDEST PUSH1 0x20 MUL PUSH1 0x20 ADD ADD DUP2 SWAP1 MSTORE POP DUP1 DUP1 PUSH2 0x788 SWAP1 PUSH2 0xFDF JUMP JUMPDEST SWAP2 POP POP PUSH2 0x719 JUMP JUMPDEST POP SWAP2 SWAP1 POP JUMP JUMPDEST PUSH1 0x60 PUSH1 0x0 DUP3 CALLDATALOAD DUP2 PUSH2 0x7AD PUSH1 0x40 DUP7 ADD PUSH1 0x20 DUP8 ADD PUSH2 0xB10 JUMP JUMPDEST SWAP1 POP DUP1 PUSH1 0x0 PUSH1 0x1 PUSH1 0x1 PUSH1 0xA0 SHL SUB DUP3 AND PUSH4 0x75A74D84 PUSH2 0x7D1 PUSH1 0x60 DUP11 ADD PUSH1 0x40 DUP12 ADD PUSH2 0xB10 JUMP JUMPDEST PUSH1 0x40 MLOAD PUSH1 0x1 PUSH1 0x1 PUSH1 0xE0 SHL SUB NOT PUSH1 0xE0 DUP5 SWAP1 SHL AND DUP2 MSTORE PUSH1 0x1 PUSH1 0x1 PUSH1 0xA0 SHL SUB SWAP1 SWAP2 AND PUSH1 0x4 DUP3 ADD MSTORE PUSH1 0x24 ADD PUSH1 0x20 PUSH1 0x40 MLOAD DUP1 DUP4 SUB DUP2 DUP7 DUP1 EXTCODESIZE ISZERO DUP1 ISZERO PUSH2 0x810 JUMPI PUSH1 0x0 DUP1 REVERT JUMPDEST POP GAS STATICCALL ISZERO DUP1 ISZERO PUSH2 0x824 JUMPI RETURNDATASIZE PUSH1 0x0 DUP1 RETURNDATACOPY RETURNDATASIZE PUSH1 0x0 REVERT JUMPDEST POP POP POP POP PUSH1 0x40 MLOAD RETURNDATASIZE PUSH1 0x1F NOT PUSH1 0x1F DUP3 ADD AND DUP3 ADD DUP1 PUSH1 0x40 MSTORE POP DUP2 ADD SWAP1 PUSH2 0x848 SWAP2 SWAP1 PUSH2 0xD9F JUMP JUMPDEST SWAP1 POP PUSH1 0x0 PUSH2 0x85C PUSH1 0x80 DUP10 ADD PUSH1 0x60 DUP11 ADD PUSH2 0xC9A JUMP JUMPDEST PUSH2 0x870 JUMPI PUSH2 0x86B DUP6 PUSH1 0x1 PUSH2 0xF88 JUMP JUMPDEST PUSH2 0x873 JUMP JUMPDEST PUSH1 0x0 JUMPDEST SWAP1 POP DUP2 DUP2 LT ISZERO PUSH2 0xA05 JUMPI PUSH2 0x887 DUP2 DUP4 PUSH2 0xFA0 JUMP JUMPDEST PUSH1 0x1 PUSH1 0x1 PUSH1 0x40 SHL SUB DUP2 GT ISZERO PUSH2 0x8AC JUMPI PUSH4 0x4E487B71 PUSH1 0xE0 SHL PUSH1 0x0 MSTORE PUSH1 0x41 PUSH1 0x4 MSTORE PUSH1 0x24 PUSH1 0x0 REVERT JUMPDEST PUSH1 0x40 MLOAD SWAP1 DUP1 DUP3 MSTORE DUP1 PUSH1 0x20 MUL PUSH1 0x20 ADD DUP3 ADD PUSH1 0x40 MSTORE DUP1 ISZERO PUSH2 0x8E5 JUMPI DUP2 PUSH1 0x20 ADD JUMPDEST PUSH2 0x8D2 PUSH2 0xA10 JUMP JUMPDEST DUP2 MSTORE PUSH1 0x20 ADD SWAP1 PUSH1 0x1 SWAP1 SUB SWAP1 DUP2 PUSH2 0x8CA JUMPI SWAP1 POP JUMPDEST POP SWAP7 POP DUP1 JUMPDEST DUP3 DUP2 LT ISZERO PUSH2 0xA03 JUMPI PUSH2 0x9B7 PUSH1 0x40 MLOAD DUP1 PUSH1 0x40 ADD PUSH1 0x40 MSTORE DUP1 DUP7 PUSH1 0x1 PUSH1 0x1 PUSH1 0xA0 SHL SUB AND PUSH4 0xC962CA12 DUP14 PUSH1 0x40 ADD PUSH1 0x20 DUP2 ADD SWAP1 PUSH2 0x922 SWAP2 SWAP1 PUSH2 0xB10 JUMP JUMPDEST PUSH1 0x40 MLOAD PUSH1 0x1 PUSH1 0x1 PUSH1 0xE0 SHL SUB NOT PUSH1 0xE0 DUP5 SWAP1 SHL AND DUP2 MSTORE PUSH1 0x1 PUSH1 0x1 PUSH1 0xA0 SHL SUB SWAP1 SWAP2 AND PUSH1 0x4 DUP3 ADD MSTORE PUSH1 0x24 DUP2 ADD DUP8 SWAP1 MSTORE PUSH1 0x44 ADD PUSH1 0x20 PUSH1 0x40 MLOAD DUP1 DUP4 SUB DUP2 DUP7 DUP1 EXTCODESIZE ISZERO DUP1 ISZERO PUSH2 0x968 JUMPI PUSH1 0x0 DUP1 REVERT JUMPDEST POP GAS STATICCALL ISZERO DUP1 ISZERO PUSH2 0x97C JUMPI RETURNDATASIZE PUSH1 0x0 DUP1 RETURNDATACOPY RETURNDATASIZE PUSH1 0x0 REVERT JUMPDEST POP POP POP POP PUSH1 0x40 MLOAD RETURNDATASIZE PUSH1 0x1F NOT PUSH1 0x1F DUP3 ADD AND DUP3 ADD DUP1 PUSH1 0x40 MSTORE POP DUP2 ADD SWAP1 PUSH2 0x9A0 SWAP2 SWAP1 PUSH2 0xD9F JUMP JUMPDEST DUP2 MSTORE PUSH1 0x20 ADD DUP8 PUSH1 0x1 PUSH1 0x1 PUSH1 0xA0 SHL SUB AND DUP2 MSTORE POP PUSH2 0xF9 JUMP JUMPDEST DUP9 DUP9 DUP2 MLOAD DUP2 LT PUSH2 0x9D7 JUMPI PUSH4 0x4E487B71 PUSH1 0xE0 SHL PUSH1 0x0 MSTORE PUSH1 0x32 PUSH1 0x4 MSTORE PUSH1 0x24 PUSH1 0x0 REVERT JUMPDEST PUSH1 0x20 MUL PUSH1 0x20 ADD ADD DUP2 SWAP1 MSTORE POP DUP7 DUP1 PUSH2 0x9ED SWAP1 PUSH2 0xFDF JUMP JUMPDEST SWAP8 POP POP DUP1 DUP1 PUSH2 0x9FB SWAP1 PUSH2 0xFDF JUMP JUMPDEST SWAP2 POP POP PUSH2 0x8EA JUMP JUMPDEST POP JUMPDEST POP POP POP POP POP POP SWAP2 SWAP1 POP JUMP JUMPDEST PUSH1 0x40 DUP1 MLOAD PUSH2 0x1A0 DUP2 ADD SWAP1 SWAP2 MSTORE PUSH1 0x0 DUP1 DUP3 MSTORE PUSH1 0x20 DUP3 ADD SWAP1 DUP2 MSTORE PUSH1 0x20 ADD PUSH1 0x0 DUP2 MSTORE PUSH1 0x20 ADD PUSH1 0x0 DUP2 MSTORE PUSH1 0x20 ADD PUSH1 0x0 DUP2 MSTORE PUSH1 0x20 ADD PUSH1 0x0 DUP2 MSTORE PUSH1 0x20 ADD PUSH1 0x0 DUP2 MSTORE PUSH1 0x20 ADD PUSH1 0x0 PUSH1 0x2 DUP2 GT ISZERO PUSH2 0xA6F JUMPI PUSH4 0x4E487B71 PUSH1 0xE0 SHL PUSH1 0x0 MSTORE PUSH1 0x21 PUSH1 0x4 MSTORE PUSH1 0x24 PUSH1 0x0 REVERT JUMPDEST DUP2 MSTORE PUSH1 0x20 ADD PUSH1 0x0 ISZERO ISZERO DUP2 MSTORE PUSH1 0x20 ADD PUSH1 0x0 ISZERO ISZERO DUP2 MSTORE PUSH1 0x20 ADD PUSH1 0x0 DUP2 MSTORE PUSH1 0x20 ADD PUSH1 0x0 DUP2 MSTORE PUSH1 0x20 ADD PUSH1 0x0 DUP2 MSTORE POP SWAP1 JUMP JUMPDEST PUSH1 0x0 PUSH1 0x40 DUP3 DUP5 SUB SLT ISZERO PUSH2 0xAAD JUMPI DUP1 DUP2 REVERT JUMPDEST PUSH1 0x40 DUP1 MLOAD SWAP1 DUP2 ADD PUSH1 0x1 PUSH1 0x1 PUSH1 0x40 SHL SUB DUP2 GT DUP3 DUP3 LT OR ISZERO PUSH2 0xACF JUMPI PUSH2 0xACF PUSH2 0x1026 JUMP JUMPDEST PUSH1 0x40 MSTORE DUP3 CALLDATALOAD DUP2 MSTORE SWAP1 POP DUP1 PUSH1 0x20 DUP4 ADD CALLDATALOAD PUSH2 0xAE7 DUP2 PUSH2 0x103C JUMP JUMPDEST PUSH1 0x20 SWAP2 SWAP1 SWAP2 ADD MSTORE SWAP3 SWAP2 POP POP JUMP JUMPDEST DUP1 MLOAD PUSH1 0x1 PUSH1 0x1 PUSH1 0x50 SHL SUB DUP2 AND DUP2 EQ PUSH2 0xB0B JUMPI PUSH1 0x0 DUP1 REVERT JUMPDEST SWAP2 SWAP1 POP JUMP JUMPDEST PUSH1 0x0 PUSH1 0x20 DUP3 DUP5 SUB SLT ISZERO PUSH2 0xB21 JUMPI DUP1 DUP2 REVERT JUMPDEST DUP2 CALLDATALOAD PUSH2 0xB2C DUP2 PUSH2 0x103C JUMP JUMPDEST SWAP4 SWAP3 POP POP POP JUMP JUMPDEST PUSH1 0x0 PUSH1 0x20 DUP3 DUP5 SUB SLT ISZERO PUSH2 0xB44 JUMPI DUP1 DUP2 REVERT JUMPDEST DUP2 MLOAD PUSH2 0xB2C DUP2 PUSH2 0x103C JUMP JUMPDEST PUSH1 0x0 DUP1 PUSH1 0x40 DUP4 DUP6 SUB SLT ISZERO PUSH2 0xB61 JUMPI DUP1 DUP2 REVERT JUMPDEST DUP3 CALLDATALOAD PUSH2 0xB6C DUP2 PUSH2 0x103C JUMP JUMPDEST SWAP5 PUSH1 0x20 SWAP4 SWAP1 SWAP4 ADD CALLDATALOAD SWAP4 POP POP POP JUMP JUMPDEST PUSH1 0x0 DUP1 PUSH1 0x20 DUP4 DUP6 SUB SLT ISZERO PUSH2 0xB8C JUMPI DUP2 DUP3 REVERT JUMPDEST DUP3 CALLDATALOAD PUSH1 0x1 PUSH1 0x1 PUSH1 0x40 SHL SUB DUP1 DUP3 GT ISZERO PUSH2 0xBA2 JUMPI DUP4 DUP5 REVERT JUMPDEST DUP2 DUP6 ADD SWAP2 POP DUP6 PUSH1 0x1F DUP4 ADD SLT PUSH2 0xBB5 JUMPI DUP4 DUP5 REVERT JUMPDEST DUP2 CALLDATALOAD DUP2 DUP2 GT ISZERO PUSH2 0xBC3 JUMPI DUP5 DUP6 REVERT JUMPDEST DUP7 PUSH1 0x20 DUP3 PUSH1 0x5 SHL DUP6 ADD ADD GT ISZERO PUSH2 0xBD7 JUMPI DUP5 DUP6 REVERT JUMPDEST PUSH1 0x20 SWAP3 SWAP1 SWAP3 ADD SWAP7 SWAP2 SWAP6 POP SWAP1 SWAP4 POP POP POP POP JUMP JUMPDEST PUSH1 0x0 PUSH1 0x20 DUP1 DUP4 DUP6 SUB SLT ISZERO PUSH2 0xBFB JUMPI DUP2 DUP3 REVERT JUMPDEST DUP3 CALLDATALOAD PUSH1 0x1 PUSH1 0x1 PUSH1 0x40 SHL SUB DUP1 DUP3 GT ISZERO PUSH2 0xC11 JUMPI DUP4 DUP5 REVERT JUMPDEST DUP2 DUP6 ADD SWAP2 POP DUP6 PUSH1 0x1F DUP4 ADD SLT PUSH2 0xC24 JUMPI DUP4 DUP5 REVERT JUMPDEST DUP2 CALLDATALOAD DUP2 DUP2 GT ISZERO PUSH2 0xC36 JUMPI PUSH2 0xC36 PUSH2 0x1026 JUMP JUMPDEST PUSH2 0xC44 DUP5 DUP3 PUSH1 0x5 SHL ADD PUSH2 0xF58 JUMP JUMPDEST DUP2 DUP2 MSTORE DUP5 DUP2 ADD SWAP3 POP DUP4 DUP6 ADD PUSH1 0x6 DUP4 SWAP1 SHL DUP6 ADD DUP7 ADD DUP10 LT ISZERO PUSH2 0xC63 JUMPI DUP7 DUP8 REVERT JUMPDEST DUP7 SWAP5 POP JUMPDEST DUP3 DUP6 LT ISZERO PUSH2 0xC8E JUMPI PUSH2 0xC79 DUP10 DUP3 PUSH2 0xA9C JUMP JUMPDEST DUP5 MSTORE PUSH1 0x1 SWAP5 SWAP1 SWAP5 ADD SWAP4 SWAP3 DUP6 ADD SWAP3 PUSH1 0x40 ADD PUSH2 0xC67 JUMP JUMPDEST POP SWAP8 SWAP7 POP POP POP POP POP POP POP JUMP JUMPDEST PUSH1 0x0 PUSH1 0x20 DUP3 DUP5 SUB SLT ISZERO PUSH2 0xCAB JUMPI DUP1 DUP2 REVERT JUMPDEST DUP2 CALLDATALOAD PUSH2 0xB2C DUP2 PUSH2 0x1054 JUMP JUMPDEST PUSH1 0x0 DUP1 PUSH1 0x40 DUP4 DUP6 SUB SLT ISZERO PUSH2 0xCC8 JUMPI DUP2 DUP3 REVERT JUMPDEST DUP3 MLOAD PUSH2 0xCD3 DUP2 PUSH2 0x1054 JUMP JUMPDEST PUSH1 0x20 DUP5 ADD MLOAD SWAP1 SWAP3 POP PUSH2 0xCE4 DUP2 PUSH2 0x1054 JUMP JUMPDEST DUP1 SWAP2 POP POP SWAP3 POP SWAP3 SWAP1 POP JUMP JUMPDEST PUSH1 0x0 DUP1 PUSH1 0x0 DUP1 PUSH1 0x0 DUP1 PUSH1 0x0 DUP1 PUSH1 0x0 PUSH2 0x120 DUP11 DUP13 SUB SLT ISZERO PUSH2 0xD0D JUMPI DUP5 DUP6 REVERT JUMPDEST DUP10 MLOAD PUSH1 0x4 DUP2 LT PUSH2 0xD1B JUMPI DUP6 DUP7 REVERT JUMPDEST DUP1 SWAP10 POP POP PUSH1 0x20 DUP11 ADD MLOAD SWAP8 POP PUSH1 0x40 DUP11 ADD MLOAD SWAP7 POP PUSH1 0x60 DUP11 ADD MLOAD SWAP6 POP PUSH1 0x80 DUP11 ADD MLOAD SWAP5 POP PUSH1 0xA0 DUP11 ADD MLOAD SWAP4 POP PUSH1 0xC0 DUP11 ADD MLOAD PUSH1 0x3 DUP2 LT PUSH2 0xD53 JUMPI DUP4 DUP5 REVERT JUMPDEST DUP1 SWAP4 POP POP PUSH1 0xE0 DUP11 ADD MLOAD SWAP2 POP PUSH2 0x100 DUP11 ADD MLOAD SWAP1 POP SWAP3 SWAP6 SWAP9 POP SWAP3 SWAP6 SWAP9 POP SWAP3 SWAP6 SWAP9 JUMP JUMPDEST PUSH1 0x0 PUSH1 0x40 DUP3 DUP5 SUB SLT ISZERO PUSH2 0xD84 JUMPI DUP1 DUP2 REVERT JUMPDEST PUSH2 0xB2C DUP4 DUP4 PUSH2 0xA9C JUMP JUMPDEST PUSH1 0x0 PUSH1 0x80 DUP3 DUP5 SUB SLT ISZERO PUSH2 0x790 JUMPI DUP1 DUP2 REVERT JUMPDEST PUSH1 0x0 PUSH1 0x20 DUP3 DUP5 SUB SLT ISZERO PUSH2 0xDB0 JUMPI DUP1 DUP2 REVERT JUMPDEST POP MLOAD SWAP2 SWAP1 POP JUMP JUMPDEST PUSH1 0x0 DUP1 PUSH1 0x0 DUP1 PUSH1 0x0 PUSH1 0xA0 DUP7 DUP9 SUB SLT ISZERO PUSH2 0xDCE JUMPI DUP3 DUP4 REVERT JUMPDEST PUSH2 0xDD7 DUP7 PUSH2 0xAF4 JUMP JUMPDEST SWAP5 POP PUSH1 0x20 DUP7 ADD MLOAD SWAP4 POP PUSH1 0x40 DUP7 ADD MLOAD SWAP3 POP PUSH1 0x60 DUP7 ADD MLOAD SWAP2 POP PUSH2 0xDFA PUSH1 0x80 DUP8 ADD PUSH2 0xAF4 JUMP JUMPDEST SWAP1 POP SWAP3 SWAP6 POP SWAP3 SWAP6 SWAP1 SWAP4 POP JUMP JUMPDEST PUSH1 0x3 DUP2 LT PUSH2 0xE16 JUMPI PUSH2 0xE16 PUSH2 0x1010 JUMP JUMPDEST SWAP1 MSTORE JUMP JUMPDEST PUSH1 0x4 DUP2 LT PUSH2 0xE16 JUMPI PUSH2 0xE16 PUSH2 0x1010 JUMP JUMPDEST DUP1 MLOAD DUP3 MSTORE PUSH1 0x20 DUP2 ADD MLOAD PUSH2 0xE40 PUSH1 0x20 DUP5 ADD DUP3 PUSH2 0xE1A JUMP JUMPDEST POP PUSH1 0x40 DUP2 ADD MLOAD PUSH1 0x40 DUP4 ADD MSTORE PUSH1 0x60 DUP2 ADD MLOAD PUSH1 0x60 DUP4 ADD MSTORE PUSH1 0x80 DUP2 ADD MLOAD PUSH1 0x80 DUP4 ADD MSTORE PUSH1 0xA0 DUP2 ADD MLOAD PUSH1 0xA0 DUP4 ADD MSTORE PUSH1 0xC0 DUP2 ADD MLOAD PUSH1 0xC0 DUP4 ADD MSTORE PUSH1 0xE0 DUP2 ADD MLOAD PUSH2 0xE85 PUSH1 0xE0 DUP5 ADD DUP3 PUSH2 0xE06 JUMP JUMPDEST POP PUSH2 0x100 DUP2 DUP2 ADD MLOAD ISZERO ISZERO SWAP1 DUP4 ADD MSTORE PUSH2 0x120 DUP1 DUP3 ADD MLOAD ISZERO ISZERO SWAP1 DUP4 ADD MSTORE PUSH2 0x140 DUP1 DUP3 ADD MLOAD SWAP1 DUP4 ADD MSTORE PUSH2 0x160 DUP1 DUP3 ADD MLOAD SWAP1 DUP4 ADD MSTORE PUSH2 0x180 SWAP1 DUP2 ADD MLOAD SWAP2 ADD MSTORE JUMP JUMPDEST PUSH1 0x20 DUP1 DUP3 MSTORE DUP3 MLOAD DUP3 DUP3 ADD DUP2 SWAP1 MSTORE PUSH1 0x0 SWAP2 SWAP1 DUP5 DUP3 ADD SWAP1 PUSH1 0x40 DUP6 ADD SWAP1 DUP5 JUMPDEST DUP2 DUP2 LT ISZERO PUSH2 0xF05 JUMPI PUSH2 0xEF1 DUP4 DUP6 MLOAD PUSH2 0xE2A JUMP JUMPDEST SWAP3 DUP5 ADD SWAP3 PUSH2 0x1A0 SWAP3 SWAP1 SWAP3 ADD SWAP2 PUSH1 0x1 ADD PUSH2 0xEDE JUMP JUMPDEST POP SWAP1 SWAP7 SWAP6 POP POP POP POP POP POP JUMP JUMPDEST PUSH1 0x20 DUP1 DUP3 MSTORE DUP3 MLOAD DUP3 DUP3 ADD DUP2 SWAP1 MSTORE PUSH1 0x0 SWAP2 SWAP1 DUP5 DUP3 ADD SWAP1 PUSH1 0x40 DUP6 ADD SWAP1 DUP5 JUMPDEST DUP2 DUP2 LT ISZERO PUSH2 0xF05 JUMPI DUP4 MLOAD DUP4 MSTORE SWAP3 DUP5 ADD SWAP3 SWAP2 DUP5 ADD SWAP2 PUSH1 0x1 ADD PUSH2 0xF2D JUMP JUMPDEST PUSH2 0x1A0 DUP2 ADD PUSH2 0x6AB DUP3 DUP5 PUSH2 0xE2A JUMP JUMPDEST PUSH1 0x40 MLOAD PUSH1 0x1F DUP3 ADD PUSH1 0x1F NOT AND DUP2 ADD PUSH1 0x1 PUSH1 0x1 PUSH1 0x40 SHL SUB DUP2 GT DUP3 DUP3 LT OR ISZERO PUSH2 0xF80 JUMPI PUSH2 0xF80 PUSH2 0x1026 JUMP JUMPDEST PUSH1 0x40 MSTORE SWAP2 SWAP1 POP JUMP JUMPDEST PUSH1 0x0 DUP3 NOT DUP3 GT ISZERO PUSH2 0xF9B JUMPI PUSH2 0xF9B PUSH2 0xFFA JUMP JUMPDEST POP ADD SWAP1 JUMP JUMPDEST PUSH1 0x0 DUP3 DUP3 LT ISZERO PUSH2 0xFB2 JUMPI PUSH2 0xFB2 PUSH2 0xFFA JUMP JUMPDEST POP SUB SWAP1 JUMP JUMPDEST PUSH1 0x0 PUSH1 0x1 PUSH1 0x1 PUSH1 0x50 SHL SUB DUP4 DUP2 AND SWAP1 DUP4 AND DUP2 DUP2 LT ISZERO PUSH2 0xFD7 JUMPI PUSH2 0xFD7 PUSH2 0xFFA JUMP JUMPDEST SUB SWAP4 SWAP3 POP POP POP JUMP JUMPDEST PUSH1 0x0 PUSH1 0x0 NOT DUP3 EQ ISZERO PUSH2 0xFF3 JUMPI PUSH2 0xFF3 PUSH2 0xFFA JUMP JUMPDEST POP PUSH1 0x1 ADD SWAP1 JUMP JUMPDEST PUSH4 0x4E487B71 PUSH1 0xE0 SHL PUSH1 0x0 MSTORE PUSH1 0x11 PUSH1 0x4 MSTORE PUSH1 0x24 PUSH1 0x0 REVERT JUMPDEST PUSH4 0x4E487B71 PUSH1 0xE0 SHL PUSH1 0x0 MSTORE PUSH1 0x21 PUSH1 0x4 MSTORE PUSH1 0x24 PUSH1 0x0 REVERT JUMPDEST PUSH4 0x4E487B71 PUSH1 0xE0 SHL PUSH1 0x0 MSTORE PUSH1 0x41 PUSH1 0x4 MSTORE PUSH1 0x24 PUSH1 0x0 REVERT JUMPDEST PUSH1 0x1 PUSH1 0x1 PUSH1 0xA0 SHL SUB DUP2 AND DUP2 EQ PUSH2 0x1051 JUMPI PUSH1 0x0 DUP1 REVERT JUMPDEST POP JUMP JUMPDEST DUP1 ISZERO ISZERO DUP2 EQ PUSH2 0x1051 JUMPI PUSH1 0x0 DUP1 REVERT INVALID LOG2 PUSH5 0x6970667358 0x22 SLT KECCAK256 0xC4 GASLIMIT 0xEC DUP16 PUSH18 0x2F78BE6A421B4D299D61EA17188988678156 0xBF STOP DIFFICULTY 0x5E LT SGT 0x23 DUP12 0xB2 PUSH5 0x736F6C6343 STOP ADDMOD DIV STOP CALLER ","sha1":"5b481e13eb2bd0cfaf292793853eb108b990179e","source":"pragma solidity ^0.8.0;\n\n// SPDX-License-Identifier: BUSL-1.1\n\nimport \"./Interfaces/InterfacesV2.sol\";\n\ncontract OptionMeta {\n    struct UserOptionInput {\n        uint256 lastStoredOptionIndex;\n        address contractAddress;\n        address userAddress;\n        bool isNull;\n    }\n    struct GenricOptionInput {\n        uint256 optionId;\n        address contractAddress;\n    }\n    struct OptionMetaData {\n        uint256 optionId;\n        IBufferOptions.State state;\n        uint256 strike;\n        uint256 amount;\n        uint256 lockedAmount;\n        uint256 premium;\n        uint256 expiration;\n        IBufferOptions.OptionType optionType;\n        bool isYes;\n        bool isAbove;\n        uint256 totalFee;\n        uint256 createdAt;\n        uint256 iv;\n    }\n\n    function get_price_at_timestamp(address priceProvider, uint256 timestamp)\n        public\n        view\n        returns (uint256)\n    {\n        AggregatorV3Interface priceProviderContract = AggregatorV3Interface(\n            priceProvider\n        );\n        (\n            uint80 roundId,\n            uint256 answer,\n            ,\n            uint256 latestTimestamp,\n\n        ) = priceProviderContract.latestRoundData();\n        if (latestTimestamp > timestamp) {\n            bool isCorrectRoundId;\n            while (!isCorrectRoundId) {\n                roundId = roundId - 1;\n                require(roundId > 0, \"Wrong round id\");\n                (\n                    ,\n                    uint256 roundAnswer,\n                    ,\n                    uint256 roundTimestamp,\n\n                ) = priceProviderContract.getRoundData(roundId);\n                if ((roundTimestamp > 0) && (roundTimestamp <= timestamp)) {\n                    isCorrectRoundId = true;\n                    answer = roundAnswer;\n                }\n            }\n        }\n        return answer;\n    }\n\n    function get_current_prices(address[] calldata assets)\n        public\n        view\n        returns (uint256[] memory prices)\n    {\n        prices = new uint256[](assets.length);\n\n        for (uint256 i = 0; i < assets.length; i++) {\n            AggregatorV3Interface priceProviderContract = AggregatorV3Interface(\n                assets[i]\n            );\n            prices[i] = priceProviderContract.getUsdPrice();\n        }\n    }\n\n    function get_option_data(GenricOptionInput memory option)\n        public\n        view\n        returns (OptionMetaData memory optionDetails)\n    {\n        uint256 optionId = option.optionId;\n        IBufferOptions binaryOptionsContract = IBufferOptions(\n            option.contractAddress\n        );\n        (\n            IBufferOptions.State state,\n            uint256 strike,\n            uint256 amount,\n            uint256 lockedAmount,\n            uint256 premium,\n            uint256 expiration,\n            IBufferOptions.OptionType optionType,\n            uint256 totalFee,\n            uint256 createdAt\n        ) = binaryOptionsContract.options(optionId);\n        (bool isYes, bool isAbove) = binaryOptionsContract.binaryOptionType(\n            optionId\n        );\n        optionDetails = OptionMetaData(\n            optionId,\n            state,\n            strike,\n            amount,\n            lockedAmount,\n            premium,\n            expiration,\n            optionType,\n            isYes,\n            isAbove,\n            totalFee,\n            createdAt,\n            IOptionsConfig(binaryOptionsContract.config()).impliedVolRate()\n        );\n    }\n\n    function get_bulk_option_data(GenricOptionInput[] memory options)\n        public\n        view\n        returns (OptionMetaData[] memory allOptions)\n    {\n        allOptions = new OptionMetaData[](options.length);\n\n        for (uint256 i = 0; i < options.length; i++) {\n            allOptions[i] = get_option_data(options[i]);\n        }\n        return allOptions;\n    }\n\n    function get_latest_options_for_user(\n        UserOptionInput calldata userOptionInput\n    ) external view returns (OptionMetaData[] memory allOptions) {\n        uint256 counter;\n        uint256 lastStoredOptionIndex = userOptionInput.lastStoredOptionIndex;\n        address optionsContractAddress = userOptionInput.contractAddress;\n        IBufferOptions binaryOptionsContract = IBufferOptions(\n            optionsContractAddress\n        );\n        uint256 onChainUserOptions = binaryOptionsContract.userOptionCount(\n            userOptionInput.userAddress\n        );\n        uint256 firstOptionIndexToProcess = (\n            userOptionInput.isNull ? 0 : lastStoredOptionIndex + 1\n        );\n\n        if (firstOptionIndexToProcess < onChainUserOptions) {\n            allOptions = new OptionMetaData[](\n                onChainUserOptions - firstOptionIndexToProcess\n            );\n\n            for (\n                uint256 index = firstOptionIndexToProcess;\n                index < onChainUserOptions;\n                index++\n            ) {\n                allOptions[counter] = get_option_data(\n                    GenricOptionInput(\n                        binaryOptionsContract.userOptionIds(\n                            userOptionInput.userAddress,\n                            index\n                        ),\n                        optionsContractAddress\n                    )\n                );\n                counter++;\n            }\n        }\n    }\n}\n","sourcePath":"contracts/OptionMeta.sol","deployment":{"address":"0xc83196034C89a6FB582C44740082314065e369bB","chainid":"80001","blockHeight":27588498}}