{"abi":[{"inputs":[{"internalType":"address[]","name":"assets","type":"address[]"}],"name":"get_current_prices","outputs":[{"internalType":"uint256[]","name":"prices","type":"uint256[]"}],"stateMutability":"view","type":"function"},{"inputs":[{"components":[{"internalType":"uint256","name":"optionId","type":"uint256"},{"internalType":"address","name":"contractAddress","type":"address"}],"internalType":"struct OptionMeta.Input","name":"latestOptionIds","type":"tuple"}],"name":"get_latest_options","outputs":[{"components":[{"internalType":"uint256","name":"optionId","type":"uint256"},{"internalType":"enum IBufferOptions.State","name":"state","type":"uint8"},{"internalType":"uint256","name":"strike","type":"uint256"},{"internalType":"uint256","name":"amount","type":"uint256"},{"internalType":"uint256","name":"lockedAmount","type":"uint256"},{"internalType":"uint256","name":"premium","type":"uint256"},{"internalType":"uint256","name":"expiration","type":"uint256"},{"internalType":"enum IBufferOptions.OptionType","name":"optionType","type":"uint8"},{"internalType":"bool","name":"isYes","type":"bool"},{"internalType":"bool","name":"isAbove","type":"bool"},{"internalType":"uint256","name":"iv","type":"uint256"},{"internalType":"address","name":"owner","type":"address"},{"internalType":"address","name":"contractAddress","type":"address"}],"internalType":"struct OptionMeta.OptionMetaData[]","name":"allOptions","type":"tuple[]"}],"stateMutability":"view","type":"function"},{"inputs":[{"components":[{"internalType":"uint256","name":"optionId","type":"uint256"},{"internalType":"address","name":"contractAddress","type":"address"}],"internalType":"struct OptionMeta.Input[]","name":"options","type":"tuple[]"}],"name":"get_option_data","outputs":[{"components":[{"internalType":"uint256","name":"optionId","type":"uint256"},{"internalType":"enum IBufferOptions.State","name":"state","type":"uint8"},{"internalType":"uint256","name":"strike","type":"uint256"},{"internalType":"uint256","name":"amount","type":"uint256"},{"internalType":"uint256","name":"lockedAmount","type":"uint256"},{"internalType":"uint256","name":"premium","type":"uint256"},{"internalType":"uint256","name":"expiration","type":"uint256"},{"internalType":"enum IBufferOptions.OptionType","name":"optionType","type":"uint8"},{"internalType":"bool","name":"isYes","type":"bool"},{"internalType":"bool","name":"isAbove","type":"bool"},{"internalType":"uint256","name":"iv","type":"uint256"},{"internalType":"address","name":"owner","type":"address"},{"internalType":"address","name":"contractAddress","type":"address"}],"internalType":"struct OptionMeta.OptionMetaData[]","name":"allOptions","type":"tuple[]"}],"stateMutability":"view","type":"function"},{"inputs":[{"internalType":"address","name":"priceProvider","type":"address"},{"internalType":"uint256","name":"timestamp","type":"uint256"}],"name":"get_price_at_timestamp","outputs":[{"internalType":"uint256","name":"","type":"uint256"}],"stateMutability":"view","type":"function"}],"bytecode":"608060405234801561001057600080fd5b506110ae806100206000396000f3fe608060405234801561001057600080fd5b506004361061004c5760003560e01c8063931e9f9014610051578063aae0d6a01461007a578063d2c85c561461009a578063fda6ed2f146100bb575b600080fd5b61006461005f366004610b93565b6100ce565b6040516100719190610f10565b60405180910390f35b61008d610088366004610d76565b61021c565b6040516100719190610e1f565b6100ad6100a8366004610b68565b6103dd565b604051908152602001610071565b61008d6100c9366004610c02565b6105f9565b6060816001600160401b038111156100f657634e487b7160e01b600052604160045260246000fd5b60405190808252806020026020018201604052801561011f578160200160208202803683370190505b50905060005b8281101561021557600084848381811061014f57634e487b7160e01b600052603260045260246000fd5b90506020020160208101906101649190610b29565b9050806001600160a01b0316631acf55826040518163ffffffff1660e01b815260040160206040518083038186803b15801561019f57600080fd5b505afa1580156101b3573d6000803e3d6000fd5b505050506040513d601f19601f820116820180604052508101906101d79190610d87565b8383815181106101f757634e487b7160e01b600052603260045260246000fd5b6020908102919091010152508061020d81611003565b915050610125565b5092915050565b606060008235816102336040860160208701610b29565b9050600081905060006001826001600160a01b03166375794a3c6040518163ffffffff1660e01b815260040160206040518083038186803b15801561027757600080fd5b505afa15801561028b573d6000803e3d6000fd5b505050506040513d601f19601f820116820180604052508101906102af9190610d87565b6102b99190610fc4565b90506000816001600160401b038111156102e357634e487b7160e01b600052604160045260246000fd5b60405190808252806020026020018201604052801561032857816020015b60408051808201909152600080825260208201528152602001906001900390816103015790505b5090508185146103c85760005b61033f8684610fc4565b8110156103c6576040518060400160405280828861035d9190610fac565b610368906001610fac565b8152602001866001600160a01b031681525082888151811061039a57634e487b7160e01b600052603260045260246000fd5b602002602001018190525086806103b090611003565b97505080806103be90611003565b915050610335565b505b6103d1816105f9565b98975050505050505050565b6000808390506000806000836001600160a01b031663feaf968c6040518163ffffffff1660e01b815260040160a06040518083038186803b15801561042157600080fd5b505afa158015610435573d6000803e3d6000fd5b505050506040513d601f19601f820116820180604052508101906104599190610d9f565b5093505092509250858111156105ef5760005b806105ed5761047c600185610fdb565b93506000846001600160501b0316116104cc5760405162461bcd60e51b815260206004820152600e60248201526d15dc9bdb99c81c9bdd5b99081a5960921b604482015260640160405180910390fd5b600080866001600160a01b031663b888879e6040518163ffffffff1660e01b815260040160206040518083038186803b15801561050857600080fd5b505afa15801561051c573d6000803e3d6000fd5b505050506040513d601f19601f820116820180604052508101906105409190610b4c565b604051639a6fc8f560e01b81526001600160501b03881660048201526001600160a01b039190911690639a6fc8f59060240160a06040518083038186803b15801561058a57600080fd5b505afa15801561059e573d6000803e3d6000fd5b505050506040513d601f19601f820116820180604052508101906105c29190610d9f565b509350509250506000811180156105d95750888111155b156105e657600192508194505b505061046c565b505b5095945050505050565b606081516001600160401b0381111561062257634e487b7160e01b600052604160045260246000fd5b60405190808252806020026020018201604052801561065b57816020015b610648610a75565b8152602001906001900390816106405790505b50905060005b8251811015610a6f57600083828151811061068c57634e487b7160e01b600052603260045260246000fd5b602002602001015160000151905060008483815181106106bc57634e487b7160e01b600052603260045260246000fd5b60200260200101516020015190506000821115610a5a5760008190506000806000806000806000876001600160a01b031663409e22058b6040518263ffffffff1660e01b815260040161071191815260200190565b60e06040518083038186803b15801561072957600080fd5b505afa15801561073d573d6000803e3d6000fd5b505050506040513d601f19601f820116820180604052508101906107619190610d06565b9650965096509650965096509650600080896001600160a01b031663689ab5ac8d6040518263ffffffff1660e01b81526004016107a091815260200190565b604080518083038186803b1580156107b757600080fd5b505afa1580156107cb573d6000803e3d6000fd5b505050506040513d601f19601f820116820180604052508101906107ef9190610cd4565b91509150604051806101a001604052808d81526020018a600381111561082557634e487b7160e01b600052602160045260246000fd5b815260200189815260200188815260200187815260200186815260200185815260200184600281111561086857634e487b7160e01b600052602160045260246000fd5b8152602001831515815260200182151581526020018b6001600160a01b03166379502c556040518163ffffffff1660e01b815260040160206040518083038186803b1580156108b657600080fd5b505afa1580156108ca573d6000803e3d6000fd5b505050506040513d601f19601f820116820180604052508101906108ee9190610b4c565b6001600160a01b03166318f88e5b6040518163ffffffff1660e01b815260040160206040518083038186803b15801561092657600080fd5b505afa15801561093a573d6000803e3d6000fd5b505050506040513d601f19601f8201168201806040525081019061095e9190610d87565b815260200160018b600381111561098557634e487b7160e01b600052602160045260246000fd5b14610991576000610a09565b6040516331a9108f60e11b8152600481018f90526001600160a01b038d1690636352211e9060240160206040518083038186803b1580156109d157600080fd5b505afa1580156109e5573d6000803e3d6000fd5b505050506040513d601f19601f82011682018060405250810190610a099190610b4c565b6001600160a01b031681526020018c6001600160a01b03168152508e8e81518110610a4457634e487b7160e01b600052603260045260246000fd5b6020026020010181905250505050505050505050505b50508080610a6790611003565b915050610661565b50919050565b604080516101a08101909152600080825260208201908152602001600081526020016000815260200160008152602001600081526020016000815260200160006002811115610ad457634e487b7160e01b600052602160045260246000fd5b815260006020820181905260408201819052606082018190526080820181905260a09091015290565b80518015158114610b0d57600080fd5b919050565b80516001600160501b0381168114610b0d57600080fd5b600060208284031215610b3a578081fd5b8135610b4581611060565b9392505050565b600060208284031215610b5d578081fd5b8151610b4581611060565b60008060408385031215610b7a578081fd5b8235610b8581611060565b946020939093013593505050565b60008060208385031215610ba5578182fd5b82356001600160401b0380821115610bbb578384fd5b818501915085601f830112610bce578384fd5b813581811115610bdc578485fd5b8660208260051b8501011115610bf0578485fd5b60209290920196919550909350505050565b60006020808385031215610c14578182fd5b82356001600160401b0380821115610c2a578384fd5b818501915085601f830112610c3d578384fd5b813581811115610c4f57610c4f61104a565b610c5d848260051b01610f7c565b8181528481019250838501600683901b85018601891015610c7c578687fd5b8694505b82851015610cc857604080828b031215610c98578788fd5b610ca0610f54565b8235815287830135610cb181611060565b818901528552600195909501949386019301610c80565b50979650505050505050565b60008060408385031215610ce6578182fd5b610cef83610afd565b9150610cfd60208401610afd565b90509250929050565b600080600080600080600060e0888a031215610d20578283fd5b875160048110610d2e578384fd5b809750506020880151955060408801519450606088015193506080880151925060a0880151915060c088015160038110610d66578182fd5b8091505092959891949750929550565b600060408284031215610a6f578081fd5b600060208284031215610d98578081fd5b5051919050565b600080600080600060a08688031215610db6578081fd5b610dbf86610b12565b9450602086015193506040860151925060608601519150610de260808701610b12565b90509295509295909350565b6001600160a01b03169052565b60038110610e0b57610e0b611034565b9052565b60048110610e0b57610e0b611034565b602080825282518282018190526000919060409081850190868401855b82811015610f035781518051855286810151610e5a88870182610e0f565b508086015185870152606080820151908601526080808201519086015260a0808201519086015260c0808201519086015260e080820151610e9d82880182610dfb565b50506101008181015115159086015261012080820151151590860152610140808201519086015261016080820151610ed782880182610dee565b50506101809081015190610eed86820183610dee565b50506101a0939093019290850190600101610e3c565b5091979650505050505050565b6020808252825182820181905260009190848201906040850190845b81811015610f4857835183529284019291840191600101610f2c565b50909695505050505050565b604080519081016001600160401b0381118282101715610f7657610f7661104a565b60405290565b604051601f8201601f191681016001600160401b0381118282101715610fa457610fa461104a565b604052919050565b60008219821115610fbf57610fbf61101e565b500190565b600082821015610fd657610fd661101e565b500390565b60006001600160501b0383811690831681811015610ffb57610ffb61101e565b039392505050565b60006000198214156110175761101761101e565b5060010190565b634e487b7160e01b600052601160045260246000fd5b634e487b7160e01b600052602160045260246000fd5b634e487b7160e01b600052604160045260246000fd5b6001600160a01b038116811461107557600080fd5b5056fea26469706673582212206d684b9f89c3c10dcd1e32e5e5e9e33134f4f443e9e54f47b9ab21359d05401964736f6c63430008040033","bytecodeSha1":"a8ad9ee6106dd65194759af8d7a08545fee9ea55","compiler":{"evm_version":"istanbul","optimizer":{"enabled":true,"runs":1},"version":"0.8.4+commit.c7e474f2"},"contractName":"OptionMeta","language":"Solidity","natspec":{"kind":"dev","methods":{},"version":1},"opcodes":"PUSH1 0x80 PUSH1 0x40 MSTORE CALLVALUE DUP1 ISZERO PUSH2 0x10 JUMPI PUSH1 0x0 DUP1 REVERT JUMPDEST POP PUSH1 0x4 CALLDATASIZE LT PUSH2 0x4C JUMPI PUSH1 0x0 CALLDATALOAD PUSH1 0xE0 SHR DUP1 PUSH4 0x931E9F90 EQ PUSH2 0x51 JUMPI DUP1 PUSH4 0xAAE0D6A0 EQ PUSH2 0x7A JUMPI DUP1 PUSH4 0xD2C85C56 EQ PUSH2 0x9A JUMPI DUP1 PUSH4 0xFDA6ED2F EQ PUSH2 0xBB JUMPI JUMPDEST PUSH1 0x0 DUP1 REVERT JUMPDEST PUSH2 0x64 PUSH2 0x5F CALLDATASIZE PUSH1 0x4 PUSH2 0xB93 JUMP JUMPDEST PUSH2 0xCE JUMP JUMPDEST PUSH1 0x40 MLOAD PUSH2 0x71 SWAP2 SWAP1 PUSH2 0xF10 JUMP JUMPDEST PUSH1 0x40 MLOAD DUP1 SWAP2 SUB SWAP1 RETURN JUMPDEST PUSH2 0x8D PUSH2 0x88 CALLDATASIZE PUSH1 0x4 PUSH2 0xD76 JUMP JUMPDEST PUSH2 0x21C JUMP JUMPDEST PUSH1 0x40 MLOAD PUSH2 0x71 SWAP2 SWAP1 PUSH2 0xE1F JUMP JUMPDEST PUSH2 0xAD PUSH2 0xA8 CALLDATASIZE PUSH1 0x4 PUSH2 0xB68 JUMP JUMPDEST PUSH2 0x3DD JUMP JUMPDEST PUSH1 0x40 MLOAD SWAP1 DUP2 MSTORE PUSH1 0x20 ADD PUSH2 0x71 JUMP JUMPDEST PUSH2 0x8D PUSH2 0xC9 CALLDATASIZE PUSH1 0x4 PUSH2 0xC02 JUMP JUMPDEST PUSH2 0x5F9 JUMP JUMPDEST PUSH1 0x60 DUP2 PUSH1 0x1 PUSH1 0x1 PUSH1 0x40 SHL SUB DUP2 GT ISZERO PUSH2 0xF6 JUMPI PUSH4 0x4E487B71 PUSH1 0xE0 SHL PUSH1 0x0 MSTORE PUSH1 0x41 PUSH1 0x4 MSTORE PUSH1 0x24 PUSH1 0x0 REVERT JUMPDEST PUSH1 0x40 MLOAD SWAP1 DUP1 DUP3 MSTORE DUP1 PUSH1 0x20 MUL PUSH1 0x20 ADD DUP3 ADD PUSH1 0x40 MSTORE DUP1 ISZERO PUSH2 0x11F JUMPI DUP2 PUSH1 0x20 ADD PUSH1 0x20 DUP3 MUL DUP1 CALLDATASIZE DUP4 CALLDATACOPY ADD SWAP1 POP JUMPDEST POP SWAP1 POP PUSH1 0x0 JUMPDEST DUP3 DUP2 LT ISZERO PUSH2 0x215 JUMPI PUSH1 0x0 DUP5 DUP5 DUP4 DUP2 DUP2 LT PUSH2 0x14F JUMPI PUSH4 0x4E487B71 PUSH1 0xE0 SHL PUSH1 0x0 MSTORE PUSH1 0x32 PUSH1 0x4 MSTORE PUSH1 0x24 PUSH1 0x0 REVERT JUMPDEST SWAP1 POP PUSH1 0x20 MUL ADD PUSH1 0x20 DUP2 ADD SWAP1 PUSH2 0x164 SWAP2 SWAP1 PUSH2 0xB29 JUMP JUMPDEST SWAP1 POP DUP1 PUSH1 0x1 PUSH1 0x1 PUSH1 0xA0 SHL SUB AND PUSH4 0x1ACF5582 PUSH1 0x40 MLOAD DUP2 PUSH4 0xFFFFFFFF AND PUSH1 0xE0 SHL DUP2 MSTORE PUSH1 0x4 ADD PUSH1 0x20 PUSH1 0x40 MLOAD DUP1 DUP4 SUB DUP2 DUP7 DUP1 EXTCODESIZE ISZERO DUP1 ISZERO PUSH2 0x19F JUMPI PUSH1 0x0 DUP1 REVERT JUMPDEST POP GAS STATICCALL ISZERO DUP1 ISZERO PUSH2 0x1B3 JUMPI RETURNDATASIZE PUSH1 0x0 DUP1 RETURNDATACOPY RETURNDATASIZE PUSH1 0x0 REVERT JUMPDEST POP POP POP POP PUSH1 0x40 MLOAD RETURNDATASIZE PUSH1 0x1F NOT PUSH1 0x1F DUP3 ADD AND DUP3 ADD DUP1 PUSH1 0x40 MSTORE POP DUP2 ADD SWAP1 PUSH2 0x1D7 SWAP2 SWAP1 PUSH2 0xD87 JUMP JUMPDEST DUP4 DUP4 DUP2 MLOAD DUP2 LT PUSH2 0x1F7 JUMPI PUSH4 0x4E487B71 PUSH1 0xE0 SHL PUSH1 0x0 MSTORE PUSH1 0x32 PUSH1 0x4 MSTORE PUSH1 0x24 PUSH1 0x0 REVERT JUMPDEST PUSH1 0x20 SWAP1 DUP2 MUL SWAP2 SWAP1 SWAP2 ADD ADD MSTORE POP DUP1 PUSH2 0x20D DUP2 PUSH2 0x1003 JUMP JUMPDEST SWAP2 POP POP PUSH2 0x125 JUMP JUMPDEST POP SWAP3 SWAP2 POP POP JUMP JUMPDEST PUSH1 0x60 PUSH1 0x0 DUP3 CALLDATALOAD DUP2 PUSH2 0x233 PUSH1 0x40 DUP7 ADD PUSH1 0x20 DUP8 ADD PUSH2 0xB29 JUMP JUMPDEST SWAP1 POP PUSH1 0x0 DUP2 SWAP1 POP PUSH1 0x0 PUSH1 0x1 DUP3 PUSH1 0x1 PUSH1 0x1 PUSH1 0xA0 SHL SUB AND PUSH4 0x75794A3C PUSH1 0x40 MLOAD DUP2 PUSH4 0xFFFFFFFF AND PUSH1 0xE0 SHL DUP2 MSTORE PUSH1 0x4 ADD PUSH1 0x20 PUSH1 0x40 MLOAD DUP1 DUP4 SUB DUP2 DUP7 DUP1 EXTCODESIZE ISZERO DUP1 ISZERO PUSH2 0x277 JUMPI PUSH1 0x0 DUP1 REVERT JUMPDEST POP GAS STATICCALL ISZERO DUP1 ISZERO PUSH2 0x28B JUMPI RETURNDATASIZE PUSH1 0x0 DUP1 RETURNDATACOPY RETURNDATASIZE PUSH1 0x0 REVERT JUMPDEST POP POP POP POP PUSH1 0x40 MLOAD RETURNDATASIZE PUSH1 0x1F NOT PUSH1 0x1F DUP3 ADD AND DUP3 ADD DUP1 PUSH1 0x40 MSTORE POP DUP2 ADD SWAP1 PUSH2 0x2AF SWAP2 SWAP1 PUSH2 0xD87 JUMP JUMPDEST PUSH2 0x2B9 SWAP2 SWAP1 PUSH2 0xFC4 JUMP JUMPDEST SWAP1 POP PUSH1 0x0 DUP2 PUSH1 0x1 PUSH1 0x1 PUSH1 0x40 SHL SUB DUP2 GT ISZERO PUSH2 0x2E3 JUMPI PUSH4 0x4E487B71 PUSH1 0xE0 SHL PUSH1 0x0 MSTORE PUSH1 0x41 PUSH1 0x4 MSTORE PUSH1 0x24 PUSH1 0x0 REVERT JUMPDEST PUSH1 0x40 MLOAD SWAP1 DUP1 DUP3 MSTORE DUP1 PUSH1 0x20 MUL PUSH1 0x20 ADD DUP3 ADD PUSH1 0x40 MSTORE DUP1 ISZERO PUSH2 0x328 JUMPI DUP2 PUSH1 0x20 ADD JUMPDEST PUSH1 0x40 DUP1 MLOAD DUP1 DUP3 ADD SWAP1 SWAP2 MSTORE PUSH1 0x0 DUP1 DUP3 MSTORE PUSH1 0x20 DUP3 ADD MSTORE DUP2 MSTORE PUSH1 0x20 ADD SWAP1 PUSH1 0x1 SWAP1 SUB SWAP1 DUP2 PUSH2 0x301 JUMPI SWAP1 POP JUMPDEST POP SWAP1 POP DUP2 DUP6 EQ PUSH2 0x3C8 JUMPI PUSH1 0x0 JUMPDEST PUSH2 0x33F DUP7 DUP5 PUSH2 0xFC4 JUMP JUMPDEST DUP2 LT ISZERO PUSH2 0x3C6 JUMPI PUSH1 0x40 MLOAD DUP1 PUSH1 0x40 ADD PUSH1 0x40 MSTORE DUP1 DUP3 DUP9 PUSH2 0x35D SWAP2 SWAP1 PUSH2 0xFAC JUMP JUMPDEST PUSH2 0x368 SWAP1 PUSH1 0x1 PUSH2 0xFAC JUMP JUMPDEST DUP2 MSTORE PUSH1 0x20 ADD DUP7 PUSH1 0x1 PUSH1 0x1 PUSH1 0xA0 SHL SUB AND DUP2 MSTORE POP DUP3 DUP9 DUP2 MLOAD DUP2 LT PUSH2 0x39A JUMPI PUSH4 0x4E487B71 PUSH1 0xE0 SHL PUSH1 0x0 MSTORE PUSH1 0x32 PUSH1 0x4 MSTORE PUSH1 0x24 PUSH1 0x0 REVERT JUMPDEST PUSH1 0x20 MUL PUSH1 0x20 ADD ADD DUP2 SWAP1 MSTORE POP DUP7 DUP1 PUSH2 0x3B0 SWAP1 PUSH2 0x1003 JUMP JUMPDEST SWAP8 POP POP DUP1 DUP1 PUSH2 0x3BE SWAP1 PUSH2 0x1003 JUMP JUMPDEST SWAP2 POP POP PUSH2 0x335 JUMP JUMPDEST POP JUMPDEST PUSH2 0x3D1 DUP2 PUSH2 0x5F9 JUMP JUMPDEST SWAP9 SWAP8 POP POP POP POP POP POP POP POP JUMP JUMPDEST PUSH1 0x0 DUP1 DUP4 SWAP1 POP PUSH1 0x0 DUP1 PUSH1 0x0 DUP4 PUSH1 0x1 PUSH1 0x1 PUSH1 0xA0 SHL SUB AND PUSH4 0xFEAF968C PUSH1 0x40 MLOAD DUP2 PUSH4 0xFFFFFFFF AND PUSH1 0xE0 SHL DUP2 MSTORE PUSH1 0x4 ADD PUSH1 0xA0 PUSH1 0x40 MLOAD DUP1 DUP4 SUB DUP2 DUP7 DUP1 EXTCODESIZE ISZERO DUP1 ISZERO PUSH2 0x421 JUMPI PUSH1 0x0 DUP1 REVERT JUMPDEST POP GAS STATICCALL ISZERO DUP1 ISZERO PUSH2 0x435 JUMPI RETURNDATASIZE PUSH1 0x0 DUP1 RETURNDATACOPY RETURNDATASIZE PUSH1 0x0 REVERT JUMPDEST POP POP POP POP PUSH1 0x40 MLOAD RETURNDATASIZE PUSH1 0x1F NOT PUSH1 0x1F DUP3 ADD AND DUP3 ADD DUP1 PUSH1 0x40 MSTORE POP DUP2 ADD SWAP1 PUSH2 0x459 SWAP2 SWAP1 PUSH2 0xD9F JUMP JUMPDEST POP SWAP4 POP POP SWAP3 POP SWAP3 POP DUP6 DUP2 GT ISZERO PUSH2 0x5EF JUMPI PUSH1 0x0 JUMPDEST DUP1 PUSH2 0x5ED JUMPI PUSH2 0x47C PUSH1 0x1 DUP6 PUSH2 0xFDB JUMP JUMPDEST SWAP4 POP PUSH1 0x0 DUP5 PUSH1 0x1 PUSH1 0x1 PUSH1 0x50 SHL SUB AND GT PUSH2 0x4CC JUMPI PUSH1 0x40 MLOAD PUSH3 0x461BCD PUSH1 0xE5 SHL DUP2 MSTORE PUSH1 0x20 PUSH1 0x4 DUP3 ADD MSTORE PUSH1 0xE PUSH1 0x24 DUP3 ADD MSTORE PUSH14 0x15DC9BDB99C81C9BDD5B99081A59 PUSH1 0x92 SHL PUSH1 0x44 DUP3 ADD MSTORE PUSH1 0x64 ADD PUSH1 0x40 MLOAD DUP1 SWAP2 SUB SWAP1 REVERT JUMPDEST PUSH1 0x0 DUP1 DUP7 PUSH1 0x1 PUSH1 0x1 PUSH1 0xA0 SHL SUB AND PUSH4 0xB888879E PUSH1 0x40 MLOAD DUP2 PUSH4 0xFFFFFFFF AND PUSH1 0xE0 SHL DUP2 MSTORE PUSH1 0x4 ADD PUSH1 0x20 PUSH1 0x40 MLOAD DUP1 DUP4 SUB DUP2 DUP7 DUP1 EXTCODESIZE ISZERO DUP1 ISZERO PUSH2 0x508 JUMPI PUSH1 0x0 DUP1 REVERT JUMPDEST POP GAS STATICCALL ISZERO DUP1 ISZERO PUSH2 0x51C JUMPI RETURNDATASIZE PUSH1 0x0 DUP1 RETURNDATACOPY RETURNDATASIZE PUSH1 0x0 REVERT JUMPDEST POP POP POP POP PUSH1 0x40 MLOAD RETURNDATASIZE PUSH1 0x1F NOT PUSH1 0x1F DUP3 ADD AND DUP3 ADD DUP1 PUSH1 0x40 MSTORE POP DUP2 ADD SWAP1 PUSH2 0x540 SWAP2 SWAP1 PUSH2 0xB4C JUMP JUMPDEST PUSH1 0x40 MLOAD PUSH4 0x9A6FC8F5 PUSH1 0xE0 SHL DUP2 MSTORE PUSH1 0x1 PUSH1 0x1 PUSH1 0x50 SHL SUB DUP9 AND PUSH1 0x4 DUP3 ADD MSTORE PUSH1 0x1 PUSH1 0x1 PUSH1 0xA0 SHL SUB SWAP2 SWAP1 SWAP2 AND SWAP1 PUSH4 0x9A6FC8F5 SWAP1 PUSH1 0x24 ADD PUSH1 0xA0 PUSH1 0x40 MLOAD DUP1 DUP4 SUB DUP2 DUP7 DUP1 EXTCODESIZE ISZERO DUP1 ISZERO PUSH2 0x58A JUMPI PUSH1 0x0 DUP1 REVERT JUMPDEST POP GAS STATICCALL ISZERO DUP1 ISZERO PUSH2 0x59E JUMPI RETURNDATASIZE PUSH1 0x0 DUP1 RETURNDATACOPY RETURNDATASIZE PUSH1 0x0 REVERT JUMPDEST POP POP POP POP PUSH1 0x40 MLOAD RETURNDATASIZE PUSH1 0x1F NOT PUSH1 0x1F DUP3 ADD AND DUP3 ADD DUP1 PUSH1 0x40 MSTORE POP DUP2 ADD SWAP1 PUSH2 0x5C2 SWAP2 SWAP1 PUSH2 0xD9F JUMP JUMPDEST POP SWAP4 POP POP SWAP3 POP POP PUSH1 0x0 DUP2 GT DUP1 ISZERO PUSH2 0x5D9 JUMPI POP DUP9 DUP2 GT ISZERO JUMPDEST ISZERO PUSH2 0x5E6 JUMPI PUSH1 0x1 SWAP3 POP DUP2 SWAP5 POP JUMPDEST POP POP PUSH2 0x46C JUMP JUMPDEST POP JUMPDEST POP SWAP6 SWAP5 POP POP POP POP POP JUMP JUMPDEST PUSH1 0x60 DUP2 MLOAD PUSH1 0x1 PUSH1 0x1 PUSH1 0x40 SHL SUB DUP2 GT ISZERO PUSH2 0x622 JUMPI PUSH4 0x4E487B71 PUSH1 0xE0 SHL PUSH1 0x0 MSTORE PUSH1 0x41 PUSH1 0x4 MSTORE PUSH1 0x24 PUSH1 0x0 REVERT JUMPDEST PUSH1 0x40 MLOAD SWAP1 DUP1 DUP3 MSTORE DUP1 PUSH1 0x20 MUL PUSH1 0x20 ADD DUP3 ADD PUSH1 0x40 MSTORE DUP1 ISZERO PUSH2 0x65B JUMPI DUP2 PUSH1 0x20 ADD JUMPDEST PUSH2 0x648 PUSH2 0xA75 JUMP JUMPDEST DUP2 MSTORE PUSH1 0x20 ADD SWAP1 PUSH1 0x1 SWAP1 SUB SWAP1 DUP2 PUSH2 0x640 JUMPI SWAP1 POP JUMPDEST POP SWAP1 POP PUSH1 0x0 JUMPDEST DUP3 MLOAD DUP2 LT ISZERO PUSH2 0xA6F JUMPI PUSH1 0x0 DUP4 DUP3 DUP2 MLOAD DUP2 LT PUSH2 0x68C JUMPI PUSH4 0x4E487B71 PUSH1 0xE0 SHL PUSH1 0x0 MSTORE PUSH1 0x32 PUSH1 0x4 MSTORE PUSH1 0x24 PUSH1 0x0 REVERT JUMPDEST PUSH1 0x20 MUL PUSH1 0x20 ADD ADD MLOAD PUSH1 0x0 ADD MLOAD SWAP1 POP PUSH1 0x0 DUP5 DUP4 DUP2 MLOAD DUP2 LT PUSH2 0x6BC JUMPI PUSH4 0x4E487B71 PUSH1 0xE0 SHL PUSH1 0x0 MSTORE PUSH1 0x32 PUSH1 0x4 MSTORE PUSH1 0x24 PUSH1 0x0 REVERT JUMPDEST PUSH1 0x20 MUL PUSH1 0x20 ADD ADD MLOAD PUSH1 0x20 ADD MLOAD SWAP1 POP PUSH1 0x0 DUP3 GT ISZERO PUSH2 0xA5A JUMPI PUSH1 0x0 DUP2 SWAP1 POP PUSH1 0x0 DUP1 PUSH1 0x0 DUP1 PUSH1 0x0 DUP1 PUSH1 0x0 DUP8 PUSH1 0x1 PUSH1 0x1 PUSH1 0xA0 SHL SUB AND PUSH4 0x409E2205 DUP12 PUSH1 0x40 MLOAD DUP3 PUSH4 0xFFFFFFFF AND PUSH1 0xE0 SHL DUP2 MSTORE PUSH1 0x4 ADD PUSH2 0x711 SWAP2 DUP2 MSTORE PUSH1 0x20 ADD SWAP1 JUMP JUMPDEST PUSH1 0xE0 PUSH1 0x40 MLOAD DUP1 DUP4 SUB DUP2 DUP7 DUP1 EXTCODESIZE ISZERO DUP1 ISZERO PUSH2 0x729 JUMPI PUSH1 0x0 DUP1 REVERT JUMPDEST POP GAS STATICCALL ISZERO DUP1 ISZERO PUSH2 0x73D JUMPI RETURNDATASIZE PUSH1 0x0 DUP1 RETURNDATACOPY RETURNDATASIZE PUSH1 0x0 REVERT JUMPDEST POP POP POP POP PUSH1 0x40 MLOAD RETURNDATASIZE PUSH1 0x1F NOT PUSH1 0x1F DUP3 ADD AND DUP3 ADD DUP1 PUSH1 0x40 MSTORE POP DUP2 ADD SWAP1 PUSH2 0x761 SWAP2 SWAP1 PUSH2 0xD06 JUMP JUMPDEST SWAP7 POP SWAP7 POP SWAP7 POP SWAP7 POP SWAP7 POP SWAP7 POP SWAP7 POP PUSH1 0x0 DUP1 DUP10 PUSH1 0x1 PUSH1 0x1 PUSH1 0xA0 SHL SUB AND PUSH4 0x689AB5AC DUP14 PUSH1 0x40 MLOAD DUP3 PUSH4 0xFFFFFFFF AND PUSH1 0xE0 SHL DUP2 MSTORE PUSH1 0x4 ADD PUSH2 0x7A0 SWAP2 DUP2 MSTORE PUSH1 0x20 ADD SWAP1 JUMP JUMPDEST PUSH1 0x40 DUP1 MLOAD DUP1 DUP4 SUB DUP2 DUP7 DUP1 EXTCODESIZE ISZERO DUP1 ISZERO PUSH2 0x7B7 JUMPI PUSH1 0x0 DUP1 REVERT JUMPDEST POP GAS STATICCALL ISZERO DUP1 ISZERO PUSH2 0x7CB JUMPI RETURNDATASIZE PUSH1 0x0 DUP1 RETURNDATACOPY RETURNDATASIZE PUSH1 0x0 REVERT JUMPDEST POP POP POP POP PUSH1 0x40 MLOAD RETURNDATASIZE PUSH1 0x1F NOT PUSH1 0x1F DUP3 ADD AND DUP3 ADD DUP1 PUSH1 0x40 MSTORE POP DUP2 ADD SWAP1 PUSH2 0x7EF SWAP2 SWAP1 PUSH2 0xCD4 JUMP JUMPDEST SWAP2 POP SWAP2 POP PUSH1 0x40 MLOAD DUP1 PUSH2 0x1A0 ADD PUSH1 0x40 MSTORE DUP1 DUP14 DUP2 MSTORE PUSH1 0x20 ADD DUP11 PUSH1 0x3 DUP2 GT ISZERO PUSH2 0x825 JUMPI PUSH4 0x4E487B71 PUSH1 0xE0 SHL PUSH1 0x0 MSTORE PUSH1 0x21 PUSH1 0x4 MSTORE PUSH1 0x24 PUSH1 0x0 REVERT JUMPDEST DUP2 MSTORE PUSH1 0x20 ADD DUP10 DUP2 MSTORE PUSH1 0x20 ADD DUP9 DUP2 MSTORE PUSH1 0x20 ADD DUP8 DUP2 MSTORE PUSH1 0x20 ADD DUP7 DUP2 MSTORE PUSH1 0x20 ADD DUP6 DUP2 MSTORE PUSH1 0x20 ADD DUP5 PUSH1 0x2 DUP2 GT ISZERO PUSH2 0x868 JUMPI PUSH4 0x4E487B71 PUSH1 0xE0 SHL PUSH1 0x0 MSTORE PUSH1 0x21 PUSH1 0x4 MSTORE PUSH1 0x24 PUSH1 0x0 REVERT JUMPDEST DUP2 MSTORE PUSH1 0x20 ADD DUP4 ISZERO ISZERO DUP2 MSTORE PUSH1 0x20 ADD DUP3 ISZERO ISZERO DUP2 MSTORE PUSH1 0x20 ADD DUP12 PUSH1 0x1 PUSH1 0x1 PUSH1 0xA0 SHL SUB AND PUSH4 0x79502C55 PUSH1 0x40 MLOAD DUP2 PUSH4 0xFFFFFFFF AND PUSH1 0xE0 SHL DUP2 MSTORE PUSH1 0x4 ADD PUSH1 0x20 PUSH1 0x40 MLOAD DUP1 DUP4 SUB DUP2 DUP7 DUP1 EXTCODESIZE ISZERO DUP1 ISZERO PUSH2 0x8B6 JUMPI PUSH1 0x0 DUP1 REVERT JUMPDEST POP GAS STATICCALL ISZERO DUP1 ISZERO PUSH2 0x8CA JUMPI RETURNDATASIZE PUSH1 0x0 DUP1 RETURNDATACOPY RETURNDATASIZE PUSH1 0x0 REVERT JUMPDEST POP POP POP POP PUSH1 0x40 MLOAD RETURNDATASIZE PUSH1 0x1F NOT PUSH1 0x1F DUP3 ADD AND DUP3 ADD DUP1 PUSH1 0x40 MSTORE POP DUP2 ADD SWAP1 PUSH2 0x8EE SWAP2 SWAP1 PUSH2 0xB4C JUMP JUMPDEST PUSH1 0x1 PUSH1 0x1 PUSH1 0xA0 SHL SUB AND PUSH4 0x18F88E5B PUSH1 0x40 MLOAD DUP2 PUSH4 0xFFFFFFFF AND PUSH1 0xE0 SHL DUP2 MSTORE PUSH1 0x4 ADD PUSH1 0x20 PUSH1 0x40 MLOAD DUP1 DUP4 SUB DUP2 DUP7 DUP1 EXTCODESIZE ISZERO DUP1 ISZERO PUSH2 0x926 JUMPI PUSH1 0x0 DUP1 REVERT JUMPDEST POP GAS STATICCALL ISZERO DUP1 ISZERO PUSH2 0x93A JUMPI RETURNDATASIZE PUSH1 0x0 DUP1 RETURNDATACOPY RETURNDATASIZE PUSH1 0x0 REVERT JUMPDEST POP POP POP POP PUSH1 0x40 MLOAD RETURNDATASIZE PUSH1 0x1F NOT PUSH1 0x1F DUP3 ADD AND DUP3 ADD DUP1 PUSH1 0x40 MSTORE POP DUP2 ADD SWAP1 PUSH2 0x95E SWAP2 SWAP1 PUSH2 0xD87 JUMP JUMPDEST DUP2 MSTORE PUSH1 0x20 ADD PUSH1 0x1 DUP12 PUSH1 0x3 DUP2 GT ISZERO PUSH2 0x985 JUMPI PUSH4 0x4E487B71 PUSH1 0xE0 SHL PUSH1 0x0 MSTORE PUSH1 0x21 PUSH1 0x4 MSTORE PUSH1 0x24 PUSH1 0x0 REVERT JUMPDEST EQ PUSH2 0x991 JUMPI PUSH1 0x0 PUSH2 0xA09 JUMP JUMPDEST PUSH1 0x40 MLOAD PUSH4 0x31A9108F PUSH1 0xE1 SHL DUP2 MSTORE PUSH1 0x4 DUP2 ADD DUP16 SWAP1 MSTORE PUSH1 0x1 PUSH1 0x1 PUSH1 0xA0 SHL SUB DUP14 AND SWAP1 PUSH4 0x6352211E SWAP1 PUSH1 0x24 ADD PUSH1 0x20 PUSH1 0x40 MLOAD DUP1 DUP4 SUB DUP2 DUP7 DUP1 EXTCODESIZE ISZERO DUP1 ISZERO PUSH2 0x9D1 JUMPI PUSH1 0x0 DUP1 REVERT JUMPDEST POP GAS STATICCALL ISZERO DUP1 ISZERO PUSH2 0x9E5 JUMPI RETURNDATASIZE PUSH1 0x0 DUP1 RETURNDATACOPY RETURNDATASIZE PUSH1 0x0 REVERT JUMPDEST POP POP POP POP PUSH1 0x40 MLOAD RETURNDATASIZE PUSH1 0x1F NOT PUSH1 0x1F DUP3 ADD AND DUP3 ADD DUP1 PUSH1 0x40 MSTORE POP DUP2 ADD SWAP1 PUSH2 0xA09 SWAP2 SWAP1 PUSH2 0xB4C JUMP JUMPDEST PUSH1 0x1 PUSH1 0x1 PUSH1 0xA0 SHL SUB AND DUP2 MSTORE PUSH1 0x20 ADD DUP13 PUSH1 0x1 PUSH1 0x1 PUSH1 0xA0 SHL SUB AND DUP2 MSTORE POP DUP15 DUP15 DUP2 MLOAD DUP2 LT PUSH2 0xA44 JUMPI PUSH4 0x4E487B71 PUSH1 0xE0 SHL PUSH1 0x0 MSTORE PUSH1 0x32 PUSH1 0x4 MSTORE PUSH1 0x24 PUSH1 0x0 REVERT JUMPDEST PUSH1 0x20 MUL PUSH1 0x20 ADD ADD DUP2 SWAP1 MSTORE POP POP POP POP POP POP POP POP POP POP POP JUMPDEST POP POP DUP1 DUP1 PUSH2 0xA67 SWAP1 PUSH2 0x1003 JUMP JUMPDEST SWAP2 POP POP PUSH2 0x661 JUMP JUMPDEST POP SWAP2 SWAP1 POP JUMP JUMPDEST PUSH1 0x40 DUP1 MLOAD PUSH2 0x1A0 DUP2 ADD SWAP1 SWAP2 MSTORE PUSH1 0x0 DUP1 DUP3 MSTORE PUSH1 0x20 DUP3 ADD SWAP1 DUP2 MSTORE PUSH1 0x20 ADD PUSH1 0x0 DUP2 MSTORE PUSH1 0x20 ADD PUSH1 0x0 DUP2 MSTORE PUSH1 0x20 ADD PUSH1 0x0 DUP2 MSTORE PUSH1 0x20 ADD PUSH1 0x0 DUP2 MSTORE PUSH1 0x20 ADD PUSH1 0x0 DUP2 MSTORE PUSH1 0x20 ADD PUSH1 0x0 PUSH1 0x2 DUP2 GT ISZERO PUSH2 0xAD4 JUMPI PUSH4 0x4E487B71 PUSH1 0xE0 SHL PUSH1 0x0 MSTORE PUSH1 0x21 PUSH1 0x4 MSTORE PUSH1 0x24 PUSH1 0x0 REVERT JUMPDEST DUP2 MSTORE PUSH1 0x0 PUSH1 0x20 DUP3 ADD DUP2 SWAP1 MSTORE PUSH1 0x40 DUP3 ADD DUP2 SWAP1 MSTORE PUSH1 0x60 DUP3 ADD DUP2 SWAP1 MSTORE PUSH1 0x80 DUP3 ADD DUP2 SWAP1 MSTORE PUSH1 0xA0 SWAP1 SWAP2 ADD MSTORE SWAP1 JUMP JUMPDEST DUP1 MLOAD DUP1 ISZERO ISZERO DUP2 EQ PUSH2 0xB0D JUMPI PUSH1 0x0 DUP1 REVERT JUMPDEST SWAP2 SWAP1 POP JUMP JUMPDEST DUP1 MLOAD PUSH1 0x1 PUSH1 0x1 PUSH1 0x50 SHL SUB DUP2 AND DUP2 EQ PUSH2 0xB0D JUMPI PUSH1 0x0 DUP1 REVERT JUMPDEST PUSH1 0x0 PUSH1 0x20 DUP3 DUP5 SUB SLT ISZERO PUSH2 0xB3A JUMPI DUP1 DUP2 REVERT JUMPDEST DUP2 CALLDATALOAD PUSH2 0xB45 DUP2 PUSH2 0x1060 JUMP JUMPDEST SWAP4 SWAP3 POP POP POP JUMP JUMPDEST PUSH1 0x0 PUSH1 0x20 DUP3 DUP5 SUB SLT ISZERO PUSH2 0xB5D JUMPI DUP1 DUP2 REVERT JUMPDEST DUP2 MLOAD PUSH2 0xB45 DUP2 PUSH2 0x1060 JUMP JUMPDEST PUSH1 0x0 DUP1 PUSH1 0x40 DUP4 DUP6 SUB SLT ISZERO PUSH2 0xB7A JUMPI DUP1 DUP2 REVERT JUMPDEST DUP3 CALLDATALOAD PUSH2 0xB85 DUP2 PUSH2 0x1060 JUMP JUMPDEST SWAP5 PUSH1 0x20 SWAP4 SWAP1 SWAP4 ADD CALLDATALOAD SWAP4 POP POP POP JUMP JUMPDEST PUSH1 0x0 DUP1 PUSH1 0x20 DUP4 DUP6 SUB SLT ISZERO PUSH2 0xBA5 JUMPI DUP2 DUP3 REVERT JUMPDEST DUP3 CALLDATALOAD PUSH1 0x1 PUSH1 0x1 PUSH1 0x40 SHL SUB DUP1 DUP3 GT ISZERO PUSH2 0xBBB JUMPI DUP4 DUP5 REVERT JUMPDEST DUP2 DUP6 ADD SWAP2 POP DUP6 PUSH1 0x1F DUP4 ADD SLT PUSH2 0xBCE JUMPI DUP4 DUP5 REVERT JUMPDEST DUP2 CALLDATALOAD DUP2 DUP2 GT ISZERO PUSH2 0xBDC JUMPI DUP5 DUP6 REVERT JUMPDEST DUP7 PUSH1 0x20 DUP3 PUSH1 0x5 SHL DUP6 ADD ADD GT ISZERO PUSH2 0xBF0 JUMPI DUP5 DUP6 REVERT JUMPDEST PUSH1 0x20 SWAP3 SWAP1 SWAP3 ADD SWAP7 SWAP2 SWAP6 POP SWAP1 SWAP4 POP POP POP POP JUMP JUMPDEST PUSH1 0x0 PUSH1 0x20 DUP1 DUP4 DUP6 SUB SLT ISZERO PUSH2 0xC14 JUMPI DUP2 DUP3 REVERT JUMPDEST DUP3 CALLDATALOAD PUSH1 0x1 PUSH1 0x1 PUSH1 0x40 SHL SUB DUP1 DUP3 GT ISZERO PUSH2 0xC2A JUMPI DUP4 DUP5 REVERT JUMPDEST DUP2 DUP6 ADD SWAP2 POP DUP6 PUSH1 0x1F DUP4 ADD SLT PUSH2 0xC3D JUMPI DUP4 DUP5 REVERT JUMPDEST DUP2 CALLDATALOAD DUP2 DUP2 GT ISZERO PUSH2 0xC4F JUMPI PUSH2 0xC4F PUSH2 0x104A JUMP JUMPDEST PUSH2 0xC5D DUP5 DUP3 PUSH1 0x5 SHL ADD PUSH2 0xF7C JUMP JUMPDEST DUP2 DUP2 MSTORE DUP5 DUP2 ADD SWAP3 POP DUP4 DUP6 ADD PUSH1 0x6 DUP4 SWAP1 SHL DUP6 ADD DUP7 ADD DUP10 LT ISZERO PUSH2 0xC7C JUMPI DUP7 DUP8 REVERT JUMPDEST DUP7 SWAP5 POP JUMPDEST DUP3 DUP6 LT ISZERO PUSH2 0xCC8 JUMPI PUSH1 0x40 DUP1 DUP3 DUP12 SUB SLT ISZERO PUSH2 0xC98 JUMPI DUP8 DUP9 REVERT JUMPDEST PUSH2 0xCA0 PUSH2 0xF54 JUMP JUMPDEST DUP3 CALLDATALOAD DUP2 MSTORE DUP8 DUP4 ADD CALLDATALOAD PUSH2 0xCB1 DUP2 PUSH2 0x1060 JUMP JUMPDEST DUP2 DUP10 ADD MSTORE DUP6 MSTORE PUSH1 0x1 SWAP6 SWAP1 SWAP6 ADD SWAP5 SWAP4 DUP7 ADD SWAP4 ADD PUSH2 0xC80 JUMP JUMPDEST POP SWAP8 SWAP7 POP POP POP POP POP POP POP JUMP JUMPDEST PUSH1 0x0 DUP1 PUSH1 0x40 DUP4 DUP6 SUB SLT ISZERO PUSH2 0xCE6 JUMPI DUP2 DUP3 REVERT JUMPDEST PUSH2 0xCEF DUP4 PUSH2 0xAFD JUMP JUMPDEST SWAP2 POP PUSH2 0xCFD PUSH1 0x20 DUP5 ADD PUSH2 0xAFD JUMP JUMPDEST SWAP1 POP SWAP3 POP SWAP3 SWAP1 POP JUMP JUMPDEST PUSH1 0x0 DUP1 PUSH1 0x0 DUP1 PUSH1 0x0 DUP1 PUSH1 0x0 PUSH1 0xE0 DUP9 DUP11 SUB SLT ISZERO PUSH2 0xD20 JUMPI DUP3 DUP4 REVERT JUMPDEST DUP8 MLOAD PUSH1 0x4 DUP2 LT PUSH2 0xD2E JUMPI DUP4 DUP5 REVERT JUMPDEST DUP1 SWAP8 POP POP PUSH1 0x20 DUP9 ADD MLOAD SWAP6 POP PUSH1 0x40 DUP9 ADD MLOAD SWAP5 POP PUSH1 0x60 DUP9 ADD MLOAD SWAP4 POP PUSH1 0x80 DUP9 ADD MLOAD SWAP3 POP PUSH1 0xA0 DUP9 ADD MLOAD SWAP2 POP PUSH1 0xC0 DUP9 ADD MLOAD PUSH1 0x3 DUP2 LT PUSH2 0xD66 JUMPI DUP2 DUP3 REVERT JUMPDEST DUP1 SWAP2 POP POP SWAP3 SWAP6 SWAP9 SWAP2 SWAP5 SWAP8 POP SWAP3 SWAP6 POP JUMP JUMPDEST PUSH1 0x0 PUSH1 0x40 DUP3 DUP5 SUB SLT ISZERO PUSH2 0xA6F JUMPI DUP1 DUP2 REVERT JUMPDEST PUSH1 0x0 PUSH1 0x20 DUP3 DUP5 SUB SLT ISZERO PUSH2 0xD98 JUMPI DUP1 DUP2 REVERT JUMPDEST POP MLOAD SWAP2 SWAP1 POP JUMP JUMPDEST PUSH1 0x0 DUP1 PUSH1 0x0 DUP1 PUSH1 0x0 PUSH1 0xA0 DUP7 DUP9 SUB SLT ISZERO PUSH2 0xDB6 JUMPI DUP1 DUP2 REVERT JUMPDEST PUSH2 0xDBF DUP7 PUSH2 0xB12 JUMP JUMPDEST SWAP5 POP PUSH1 0x20 DUP7 ADD MLOAD SWAP4 POP PUSH1 0x40 DUP7 ADD MLOAD SWAP3 POP PUSH1 0x60 DUP7 ADD MLOAD SWAP2 POP PUSH2 0xDE2 PUSH1 0x80 DUP8 ADD PUSH2 0xB12 JUMP JUMPDEST SWAP1 POP SWAP3 SWAP6 POP SWAP3 SWAP6 SWAP1 SWAP4 POP JUMP JUMPDEST PUSH1 0x1 PUSH1 0x1 PUSH1 0xA0 SHL SUB AND SWAP1 MSTORE JUMP JUMPDEST PUSH1 0x3 DUP2 LT PUSH2 0xE0B JUMPI PUSH2 0xE0B PUSH2 0x1034 JUMP JUMPDEST SWAP1 MSTORE JUMP JUMPDEST PUSH1 0x4 DUP2 LT PUSH2 0xE0B JUMPI PUSH2 0xE0B PUSH2 0x1034 JUMP JUMPDEST PUSH1 0x20 DUP1 DUP3 MSTORE DUP3 MLOAD DUP3 DUP3 ADD DUP2 SWAP1 MSTORE PUSH1 0x0 SWAP2 SWAP1 PUSH1 0x40 SWAP1 DUP2 DUP6 ADD SWAP1 DUP7 DUP5 ADD DUP6 JUMPDEST DUP3 DUP2 LT ISZERO PUSH2 0xF03 JUMPI DUP2 MLOAD DUP1 MLOAD DUP6 MSTORE DUP7 DUP2 ADD MLOAD PUSH2 0xE5A DUP9 DUP8 ADD DUP3 PUSH2 0xE0F JUMP JUMPDEST POP DUP1 DUP7 ADD MLOAD DUP6 DUP8 ADD MSTORE PUSH1 0x60 DUP1 DUP3 ADD MLOAD SWAP1 DUP7 ADD MSTORE PUSH1 0x80 DUP1 DUP3 ADD MLOAD SWAP1 DUP7 ADD MSTORE PUSH1 0xA0 DUP1 DUP3 ADD MLOAD SWAP1 DUP7 ADD MSTORE PUSH1 0xC0 DUP1 DUP3 ADD MLOAD SWAP1 DUP7 ADD MSTORE PUSH1 0xE0 DUP1 DUP3 ADD MLOAD PUSH2 0xE9D DUP3 DUP9 ADD DUP3 PUSH2 0xDFB JUMP JUMPDEST POP POP PUSH2 0x100 DUP2 DUP2 ADD MLOAD ISZERO ISZERO SWAP1 DUP7 ADD MSTORE PUSH2 0x120 DUP1 DUP3 ADD MLOAD ISZERO ISZERO SWAP1 DUP7 ADD MSTORE PUSH2 0x140 DUP1 DUP3 ADD MLOAD SWAP1 DUP7 ADD MSTORE PUSH2 0x160 DUP1 DUP3 ADD MLOAD PUSH2 0xED7 DUP3 DUP9 ADD DUP3 PUSH2 0xDEE JUMP JUMPDEST POP POP PUSH2 0x180 SWAP1 DUP2 ADD MLOAD SWAP1 PUSH2 0xEED DUP7 DUP3 ADD DUP4 PUSH2 0xDEE JUMP JUMPDEST POP POP PUSH2 0x1A0 SWAP4 SWAP1 SWAP4 ADD SWAP3 SWAP1 DUP6 ADD SWAP1 PUSH1 0x1 ADD PUSH2 0xE3C JUMP JUMPDEST POP SWAP2 SWAP8 SWAP7 POP POP POP POP POP POP POP JUMP JUMPDEST PUSH1 0x20 DUP1 DUP3 MSTORE DUP3 MLOAD DUP3 DUP3 ADD DUP2 SWAP1 MSTORE PUSH1 0x0 SWAP2 SWAP1 DUP5 DUP3 ADD SWAP1 PUSH1 0x40 DUP6 ADD SWAP1 DUP5 JUMPDEST DUP2 DUP2 LT ISZERO PUSH2 0xF48 JUMPI DUP4 MLOAD DUP4 MSTORE SWAP3 DUP5 ADD SWAP3 SWAP2 DUP5 ADD SWAP2 PUSH1 0x1 ADD PUSH2 0xF2C JUMP JUMPDEST POP SWAP1 SWAP7 SWAP6 POP POP POP POP POP POP JUMP JUMPDEST PUSH1 0x40 DUP1 MLOAD SWAP1 DUP2 ADD PUSH1 0x1 PUSH1 0x1 PUSH1 0x40 SHL SUB DUP2 GT DUP3 DUP3 LT OR ISZERO PUSH2 0xF76 JUMPI PUSH2 0xF76 PUSH2 0x104A JUMP JUMPDEST PUSH1 0x40 MSTORE SWAP1 JUMP JUMPDEST PUSH1 0x40 MLOAD PUSH1 0x1F DUP3 ADD PUSH1 0x1F NOT AND DUP2 ADD PUSH1 0x1 PUSH1 0x1 PUSH1 0x40 SHL SUB DUP2 GT DUP3 DUP3 LT OR ISZERO PUSH2 0xFA4 JUMPI PUSH2 0xFA4 PUSH2 0x104A JUMP JUMPDEST PUSH1 0x40 MSTORE SWAP2 SWAP1 POP JUMP JUMPDEST PUSH1 0x0 DUP3 NOT DUP3 GT ISZERO PUSH2 0xFBF JUMPI PUSH2 0xFBF PUSH2 0x101E JUMP JUMPDEST POP ADD SWAP1 JUMP JUMPDEST PUSH1 0x0 DUP3 DUP3 LT ISZERO PUSH2 0xFD6 JUMPI PUSH2 0xFD6 PUSH2 0x101E JUMP JUMPDEST POP SUB SWAP1 JUMP JUMPDEST PUSH1 0x0 PUSH1 0x1 PUSH1 0x1 PUSH1 0x50 SHL SUB DUP4 DUP2 AND SWAP1 DUP4 AND DUP2 DUP2 LT ISZERO PUSH2 0xFFB JUMPI PUSH2 0xFFB PUSH2 0x101E JUMP JUMPDEST SUB SWAP4 SWAP3 POP POP POP JUMP JUMPDEST PUSH1 0x0 PUSH1 0x0 NOT DUP3 EQ ISZERO PUSH2 0x1017 JUMPI PUSH2 0x1017 PUSH2 0x101E JUMP JUMPDEST POP PUSH1 0x1 ADD SWAP1 JUMP JUMPDEST PUSH4 0x4E487B71 PUSH1 0xE0 SHL PUSH1 0x0 MSTORE PUSH1 0x11 PUSH1 0x4 MSTORE PUSH1 0x24 PUSH1 0x0 REVERT JUMPDEST PUSH4 0x4E487B71 PUSH1 0xE0 SHL PUSH1 0x0 MSTORE PUSH1 0x21 PUSH1 0x4 MSTORE PUSH1 0x24 PUSH1 0x0 REVERT JUMPDEST PUSH4 0x4E487B71 PUSH1 0xE0 SHL PUSH1 0x0 MSTORE PUSH1 0x41 PUSH1 0x4 MSTORE PUSH1 0x24 PUSH1 0x0 REVERT JUMPDEST PUSH1 0x1 PUSH1 0x1 PUSH1 0xA0 SHL SUB DUP2 AND DUP2 EQ PUSH2 0x1075 JUMPI PUSH1 0x0 DUP1 REVERT JUMPDEST POP JUMP INVALID LOG2 PUSH5 0x6970667358 0x22 SLT KECCAK256 PUSH14 0x684B9F89C3C10DCD1E32E5E5E9E3 BALANCE CALLVALUE DELEGATECALL DELEGATECALL NUMBER 0xE9 0xE5 0x4F SELFBALANCE 0xB9 0xAB 0x21 CALLDATALOAD SWAP14 SDIV BLOCKHASH NOT PUSH5 0x736F6C6343 STOP ADDMOD DIV STOP CALLER ","sha1":"9f6539ff6b4873399ece316b60de06dda0250f29","source":"pragma solidity ^0.8.0;\n\n// SPDX-License-Identifier: BUSL-1.1\n\nimport \"./Interfaces/InterfacesV2.sol\";\n\ncontract OptionMeta {\n    struct Input {\n        uint256 optionId;\n        address contractAddress;\n    }\n    struct OptionMetaData {\n        uint256 optionId;\n        IBufferOptions.State state;\n        uint256 strike;\n        uint256 amount;\n        uint256 lockedAmount;\n        uint256 premium;\n        uint256 expiration;\n        IBufferOptions.OptionType optionType;\n        bool isYes;\n        bool isAbove;\n        uint256 iv;\n        address owner;\n        address contractAddress;\n    }\n\n    function get_price_at_timestamp(address priceProvider, uint256 timestamp)\n        public\n        view\n        returns (uint256)\n    {\n        AggregatorV3Interface priceProviderContract = AggregatorV3Interface(\n            priceProvider\n        );\n        (\n            uint80 roundId,\n            uint256 answer,\n            ,\n            uint256 latestTimestamp,\n\n        ) = priceProviderContract.latestRoundData();\n        // (\n        //     uint80 _roundId,\n        //     uint256 roundAnswer,\n        //     uint256 startedAt,\n        //     uint256 roundTimestamp,\n        //     uint80 answeredInRound\n        // ) = AggregatorV3Interface(priceProviderContract.priceProvider())\n        //         .getRoundData(18446744073709619442);\n        if (latestTimestamp > timestamp) {\n            bool isCorrectRoundId;\n            while (!isCorrectRoundId) {\n                roundId = roundId - 1;\n                require(roundId > 0, \"Wrong round id\");\n                (\n                    ,\n                    uint256 roundAnswer,\n                    ,\n                    uint256 roundTimestamp,\n\n                ) = AggregatorV3Interface(priceProviderContract.priceProvider())\n                        .getRoundData(roundId);\n                if ((roundTimestamp > 0) && (roundTimestamp <= timestamp)) {\n                    isCorrectRoundId = true;\n                    answer = roundAnswer;\n                }\n            }\n        }\n        return answer;\n    }\n\n    function get_current_prices(address[] calldata assets)\n        public\n        view\n        returns (uint256[] memory prices)\n    {\n        prices = new uint256[](assets.length);\n\n        for (uint256 i = 0; i < assets.length; i++) {\n            AggregatorV3Interface priceProviderContract = AggregatorV3Interface(\n                assets[i]\n            );\n            prices[i] = priceProviderContract.getUsdPrice();\n        }\n    }\n\n    function get_option_data(Input[] memory options)\n        public\n        view\n        returns (OptionMetaData[] memory allOptions)\n    {\n        allOptions = new OptionMetaData[](options.length);\n\n        for (uint256 i = 0; i < options.length; i++) {\n            uint256 optionId = options[i].optionId;\n            address optionsContractAddress = options[i].contractAddress;\n            if (optionId > 0) {\n                IBufferOptions binaryOptionsContract = IBufferOptions(\n                    optionsContractAddress\n                );\n                (\n                    IBufferOptions.State state,\n                    uint256 strike,\n                    uint256 amount,\n                    uint256 lockedAmount,\n                    uint256 premium,\n                    uint256 expiration,\n                    IBufferOptions.OptionType optionType\n                ) = binaryOptionsContract.options(optionId);\n                (bool isYes, bool isAbove) = binaryOptionsContract\n                    .binaryOptionType(optionId);\n\n                allOptions[i] = OptionMetaData(\n                    optionId,\n                    state,\n                    strike,\n                    amount,\n                    lockedAmount,\n                    premium,\n                    expiration,\n                    optionType,\n                    isYes,\n                    isAbove,\n                    IOptionsConfig(binaryOptionsContract.config())\n                        .impliedVolRate(),\n                    state == IBufferOptions.State.Active\n                        ? binaryOptionsContract.ownerOf(optionId)\n                        : address(0),\n                    optionsContractAddress\n                );\n            }\n        }\n        return allOptions;\n    }\n\n    function get_latest_options(Input calldata latestOptionIds)\n        external\n        view\n        returns (OptionMetaData[] memory allOptions)\n    {\n        uint256 counter;\n        uint256 optionId = latestOptionIds.optionId;\n        address optionsContractAddress = latestOptionIds.contractAddress;\n        IBufferOptions binaryOptionsContract = IBufferOptions(\n            optionsContractAddress\n        );\n        uint256 latestOptionIdOnChain = binaryOptionsContract.nextTokenId() - 1;\n        Input[] memory optionsToProcess = new Input[](latestOptionIdOnChain);\n\n        if (optionId != latestOptionIdOnChain) {\n            for (uint256 j = 0; j < (latestOptionIdOnChain - optionId); j++) {\n                optionsToProcess[counter] = Input(\n                    optionId + j + 1,\n                    optionsContractAddress\n                );\n                counter++;\n            }\n        }\n        return get_option_data(optionsToProcess);\n    }\n}\n","sourcePath":"contracts/OptionMeta.sol","type":"contract","deployment":{"address":"0xCaF5f53a1C00D0695d49bF50a5819872d482F99b","chainid":"80001","blockHeight":27455941}}