{"abi":[{"anonymous":false,"inputs":[{"indexed":true,"internalType":"address","name":"previousOwner","type":"address"},{"indexed":true,"internalType":"address","name":"newOwner","type":"address"}],"name":"OwnershipTransferred","type":"event"},{"inputs":[],"name":"decimals","outputs":[{"internalType":"uint8","name":"","type":"uint8"}],"stateMutability":"view","type":"function"},{"inputs":[{"internalType":"uint256","name":"_roundID","type":"uint256"}],"name":"getRoundData","outputs":[{"internalType":"uint256","name":"","type":"uint256"},{"internalType":"uint256","name":"","type":"uint256"},{"internalType":"uint256","name":"","type":"uint256"},{"internalType":"uint256","name":"","type":"uint256"},{"internalType":"uint256","name":"","type":"uint256"}],"stateMutability":"view","type":"function"},{"inputs":[],"name":"getUsdPrice","outputs":[{"internalType":"uint256","name":"latestPrice","type":"uint256"}],"stateMutability":"view","type":"function"},{"inputs":[],"name":"latestRoundData","outputs":[{"internalType":"uint256","name":"","type":"uint256"},{"internalType":"uint256","name":"","type":"uint256"},{"internalType":"uint256","name":"","type":"uint256"},{"internalType":"uint256","name":"","type":"uint256"},{"internalType":"uint256","name":"","type":"uint256"}],"stateMutability":"view","type":"function"},{"inputs":[],"name":"latestRoundId","outputs":[{"internalType":"uint256","name":"","type":"uint256"}],"stateMutability":"view","type":"function"},{"inputs":[],"name":"latestTimestamp","outputs":[{"internalType":"uint256","name":"","type":"uint256"}],"stateMutability":"view","type":"function"},{"inputs":[],"name":"owner","outputs":[{"internalType":"address","name":"","type":"address"}],"stateMutability":"view","type":"function"},{"inputs":[],"name":"renounceOwnership","outputs":[],"stateMutability":"nonpayable","type":"function"},{"inputs":[{"internalType":"uint256","name":"","type":"uint256"}],"name":"roundData","outputs":[{"internalType":"uint256","name":"roundId","type":"uint256"},{"internalType":"uint256","name":"price","type":"uint256"},{"internalType":"uint256","name":"startedAt","type":"uint256"},{"internalType":"uint256","name":"updatedAt","type":"uint256"},{"internalType":"uint256","name":"answeredInRound","type":"uint256"}],"stateMutability":"view","type":"function"},{"inputs":[{"internalType":"address","name":"newOwner","type":"address"}],"name":"transferOwnership","outputs":[],"stateMutability":"nonpayable","type":"function"},{"inputs":[{"internalType":"uint256","name":"price","type":"uint256"}],"name":"update","outputs":[{"internalType":"uint256","name":"roundId","type":"uint256"}],"stateMutability":"nonpayable","type":"function"}],"bytecode":"608060405234801561001057600080fd5b5061001a3361001f565b61006f565b600080546001600160a01b038381166001600160a01b0319831681178455604051919092169283917f8be0079c531659141344cd1fd0a4f28419497f9722a3daafe3b4186f6b6457e09190a35050565b6104de8061007e6000396000f3fe608060405234801561001057600080fd5b50600436106100995760003560e01c80630720da521461009e57806311a8f413146101095780631acf558214610120578063313ce56714610128578063715018a6146101375780638205bf6a1461014157806382ab890a1461014a5780638da5cb5b1461015d578063b955e60d1461017d578063f2fde38b146101b9578063feaf968c146101cc575b600080fd5b6100dc6100ac366004610437565b60009081526001602081905260409091208054918101546002820154600383015460049093015493949193909291565b604080519586526020860194909452928401919091526060830152608082015260a0015b60405180910390f35b61011260025481565b604051908152602001610100565b6101126101d4565b60405160088152602001610100565b61013f6101e8565b005b61011260035481565b610112610158366004610437565b61022c565b6101656102d9565b6040516001600160a01b039091168152602001610100565b6100dc61018b366004610437565b6001602081905260009182526040909120805491810154600282015460038301546004909301549192909185565b61013f6101c7366004610409565b6102e8565b6100dc610388565b60006101de610388565b5091949350505050565b336101f16102d9565b6001600160a01b0316146102205760405162461bcd60e51b81526004016102179061044f565b60405180910390fd5b61022a60006103b9565b565b6000336102376102d9565b6001600160a01b03161461025d5760405162461bcd60e51b81526004016102179061044f565b60025461026b906001610484565b4260038181556040805160a0810182528481526020808201978852818301858152606083019586526080830187815260008881526001938490529490942092518355975190820155955160028088019190915592519186019190915551600490940193909355918290555090565b6000546001600160a01b031690565b336102f16102d9565b6001600160a01b0316146103175760405162461bcd60e51b81526004016102179061044f565b6001600160a01b03811661037c5760405162461bcd60e51b815260206004820152602660248201527f4f776e61626c653a206e6577206f776e657220697320746865207a65726f206160448201526564647265737360d01b6064820152608401610217565b610385816103b9565b50565b6002805460009081526001602081905260409091208054918101549281015460038201546004909201549294909290565b600080546001600160a01b038381166001600160a01b0319831681178455604051919092169283917f8be0079c531659141344cd1fd0a4f28419497f9722a3daafe3b4186f6b6457e09190a35050565b60006020828403121561041a578081fd5b81356001600160a01b0381168114610430578182fd5b9392505050565b600060208284031215610448578081fd5b5035919050565b6020808252818101527f4f776e61626c653a2063616c6c6572206973206e6f7420746865206f776e6572604082015260600190565b600082198211156104a357634e487b7160e01b81526011600452602481fd5b50019056fea2646970667358221220998db1c75da32a09287ba59213c7d9b6f7885a0f50bdfa7b4eb19f5f9a5c68eb64736f6c63430008040033","bytecodeSha1":"a2cf4445976ab43150b0d28711671d625cedc66e","compiler":{"evm_version":"istanbul","optimizer":{"enabled":true,"runs":1},"version":"0.8.4+commit.c7e474f2"},"contractName":"CustomPriceProvider","language":"Solidity","natspec":{"kind":"dev","methods":{"owner()":{"details":"Returns the address of the current owner."},"renounceOwnership()":{"details":"Leaves the contract without owner. It will not be possible to call `onlyOwner` functions anymore. Can only be called by the current owner. NOTE: Renouncing ownership will leave the contract without an owner, thereby removing any functionality that is only available to the owner."},"transferOwnership(address)":{"details":"Transfers ownership of the contract to a new account (`newOwner`). Can only be called by the current owner."}},"version":1},"opcodes":"PUSH1 0x80 PUSH1 0x40 MSTORE CALLVALUE DUP1 ISZERO PUSH2 0x10 JUMPI PUSH1 0x0 DUP1 REVERT JUMPDEST POP PUSH1 0x4 CALLDATASIZE LT PUSH2 0x99 JUMPI PUSH1 0x0 CALLDATALOAD PUSH1 0xE0 SHR DUP1 PUSH4 0x720DA52 EQ PUSH2 0x9E JUMPI DUP1 PUSH4 0x11A8F413 EQ PUSH2 0x109 JUMPI DUP1 PUSH4 0x1ACF5582 EQ PUSH2 0x120 JUMPI DUP1 PUSH4 0x313CE567 EQ PUSH2 0x128 JUMPI DUP1 PUSH4 0x715018A6 EQ PUSH2 0x137 JUMPI DUP1 PUSH4 0x8205BF6A EQ PUSH2 0x141 JUMPI DUP1 PUSH4 0x82AB890A EQ PUSH2 0x14A JUMPI DUP1 PUSH4 0x8DA5CB5B EQ PUSH2 0x15D JUMPI DUP1 PUSH4 0xB955E60D EQ PUSH2 0x17D JUMPI DUP1 PUSH4 0xF2FDE38B EQ PUSH2 0x1B9 JUMPI DUP1 PUSH4 0xFEAF968C EQ PUSH2 0x1CC JUMPI JUMPDEST PUSH1 0x0 DUP1 REVERT JUMPDEST PUSH2 0xDC PUSH2 0xAC CALLDATASIZE PUSH1 0x4 PUSH2 0x437 JUMP JUMPDEST PUSH1 0x0 SWAP1 DUP2 MSTORE PUSH1 0x1 PUSH1 0x20 DUP2 SWAP1 MSTORE PUSH1 0x40 SWAP1 SWAP2 KECCAK256 DUP1 SLOAD SWAP2 DUP2 ADD SLOAD PUSH1 0x2 DUP3 ADD SLOAD PUSH1 0x3 DUP4 ADD SLOAD PUSH1 0x4 SWAP1 SWAP4 ADD SLOAD SWAP4 SWAP5 SWAP2 SWAP4 SWAP1 SWAP3 SWAP2 JUMP JUMPDEST PUSH1 0x40 DUP1 MLOAD SWAP6 DUP7 MSTORE PUSH1 0x20 DUP7 ADD SWAP5 SWAP1 SWAP5 MSTORE SWAP3 DUP5 ADD SWAP2 SWAP1 SWAP2 MSTORE PUSH1 0x60 DUP4 ADD MSTORE PUSH1 0x80 DUP3 ADD MSTORE PUSH1 0xA0 ADD JUMPDEST PUSH1 0x40 MLOAD DUP1 SWAP2 SUB SWAP1 RETURN JUMPDEST PUSH2 0x112 PUSH1 0x2 SLOAD DUP2 JUMP JUMPDEST PUSH1 0x40 MLOAD SWAP1 DUP2 MSTORE PUSH1 0x20 ADD PUSH2 0x100 JUMP JUMPDEST PUSH2 0x112 PUSH2 0x1D4 JUMP JUMPDEST PUSH1 0x40 MLOAD PUSH1 0x8 DUP2 MSTORE PUSH1 0x20 ADD PUSH2 0x100 JUMP JUMPDEST PUSH2 0x13F PUSH2 0x1E8 JUMP JUMPDEST STOP JUMPDEST PUSH2 0x112 PUSH1 0x3 SLOAD DUP2 JUMP JUMPDEST PUSH2 0x112 PUSH2 0x158 CALLDATASIZE PUSH1 0x4 PUSH2 0x437 JUMP JUMPDEST PUSH2 0x22C JUMP JUMPDEST PUSH2 0x165 PUSH2 0x2D9 JUMP JUMPDEST PUSH1 0x40 MLOAD PUSH1 0x1 PUSH1 0x1 PUSH1 0xA0 SHL SUB SWAP1 SWAP2 AND DUP2 MSTORE PUSH1 0x20 ADD PUSH2 0x100 JUMP JUMPDEST PUSH2 0xDC PUSH2 0x18B CALLDATASIZE PUSH1 0x4 PUSH2 0x437 JUMP JUMPDEST PUSH1 0x1 PUSH1 0x20 DUP2 SWAP1 MSTORE PUSH1 0x0 SWAP2 DUP3 MSTORE PUSH1 0x40 SWAP1 SWAP2 KECCAK256 DUP1 SLOAD SWAP2 DUP2 ADD SLOAD PUSH1 0x2 DUP3 ADD SLOAD PUSH1 0x3 DUP4 ADD SLOAD PUSH1 0x4 SWAP1 SWAP4 ADD SLOAD SWAP2 SWAP3 SWAP1 SWAP2 DUP6 JUMP JUMPDEST PUSH2 0x13F PUSH2 0x1C7 CALLDATASIZE PUSH1 0x4 PUSH2 0x409 JUMP JUMPDEST PUSH2 0x2E8 JUMP JUMPDEST PUSH2 0xDC PUSH2 0x388 JUMP JUMPDEST PUSH1 0x0 PUSH2 0x1DE PUSH2 0x388 JUMP JUMPDEST POP SWAP2 SWAP5 SWAP4 POP POP POP POP JUMP JUMPDEST CALLER PUSH2 0x1F1 PUSH2 0x2D9 JUMP JUMPDEST PUSH1 0x1 PUSH1 0x1 PUSH1 0xA0 SHL SUB AND EQ PUSH2 0x220 JUMPI PUSH1 0x40 MLOAD PUSH3 0x461BCD PUSH1 0xE5 SHL DUP2 MSTORE PUSH1 0x4 ADD PUSH2 0x217 SWAP1 PUSH2 0x44F JUMP JUMPDEST PUSH1 0x40 MLOAD DUP1 SWAP2 SUB SWAP1 REVERT JUMPDEST PUSH2 0x22A PUSH1 0x0 PUSH2 0x3B9 JUMP JUMPDEST JUMP JUMPDEST PUSH1 0x0 CALLER PUSH2 0x237 PUSH2 0x2D9 JUMP JUMPDEST PUSH1 0x1 PUSH1 0x1 PUSH1 0xA0 SHL SUB AND EQ PUSH2 0x25D JUMPI PUSH1 0x40 MLOAD PUSH3 0x461BCD PUSH1 0xE5 SHL DUP2 MSTORE PUSH1 0x4 ADD PUSH2 0x217 SWAP1 PUSH2 0x44F JUMP JUMPDEST PUSH1 0x2 SLOAD PUSH2 0x26B SWAP1 PUSH1 0x1 PUSH2 0x484 JUMP JUMPDEST TIMESTAMP PUSH1 0x3 DUP2 DUP2 SSTORE PUSH1 0x40 DUP1 MLOAD PUSH1 0xA0 DUP2 ADD DUP3 MSTORE DUP5 DUP2 MSTORE PUSH1 0x20 DUP1 DUP3 ADD SWAP8 DUP9 MSTORE DUP2 DUP4 ADD DUP6 DUP2 MSTORE PUSH1 0x60 DUP4 ADD SWAP6 DUP7 MSTORE PUSH1 0x80 DUP4 ADD DUP8 DUP2 MSTORE PUSH1 0x0 DUP9 DUP2 MSTORE PUSH1 0x1 SWAP4 DUP5 SWAP1 MSTORE SWAP5 SWAP1 SWAP5 KECCAK256 SWAP3 MLOAD DUP4 SSTORE SWAP8 MLOAD SWAP1 DUP3 ADD SSTORE SWAP6 MLOAD PUSH1 0x2 DUP1 DUP9 ADD SWAP2 SWAP1 SWAP2 SSTORE SWAP3 MLOAD SWAP2 DUP7 ADD SWAP2 SWAP1 SWAP2 SSTORE MLOAD PUSH1 0x4 SWAP1 SWAP5 ADD SWAP4 SWAP1 SWAP4 SSTORE SWAP2 DUP3 SWAP1 SSTORE POP SWAP1 JUMP JUMPDEST PUSH1 0x0 SLOAD PUSH1 0x1 PUSH1 0x1 PUSH1 0xA0 SHL SUB AND SWAP1 JUMP JUMPDEST CALLER PUSH2 0x2F1 PUSH2 0x2D9 JUMP JUMPDEST PUSH1 0x1 PUSH1 0x1 PUSH1 0xA0 SHL SUB AND EQ PUSH2 0x317 JUMPI PUSH1 0x40 MLOAD PUSH3 0x461BCD PUSH1 0xE5 SHL DUP2 MSTORE PUSH1 0x4 ADD PUSH2 0x217 SWAP1 PUSH2 0x44F JUMP JUMPDEST PUSH1 0x1 PUSH1 0x1 PUSH1 0xA0 SHL SUB DUP2 AND PUSH2 0x37C JUMPI PUSH1 0x40 MLOAD PUSH3 0x461BCD PUSH1 0xE5 SHL DUP2 MSTORE PUSH1 0x20 PUSH1 0x4 DUP3 ADD MSTORE PUSH1 0x26 PUSH1 0x24 DUP3 ADD MSTORE PUSH32 0x4F776E61626C653A206E6577206F776E657220697320746865207A65726F2061 PUSH1 0x44 DUP3 ADD MSTORE PUSH6 0x646472657373 PUSH1 0xD0 SHL PUSH1 0x64 DUP3 ADD MSTORE PUSH1 0x84 ADD PUSH2 0x217 JUMP JUMPDEST PUSH2 0x385 DUP2 PUSH2 0x3B9 JUMP JUMPDEST POP JUMP JUMPDEST PUSH1 0x2 DUP1 SLOAD PUSH1 0x0 SWAP1 DUP2 MSTORE PUSH1 0x1 PUSH1 0x20 DUP2 SWAP1 MSTORE PUSH1 0x40 SWAP1 SWAP2 KECCAK256 DUP1 SLOAD SWAP2 DUP2 ADD SLOAD SWAP3 DUP2 ADD SLOAD PUSH1 0x3 DUP3 ADD SLOAD PUSH1 0x4 SWAP1 SWAP3 ADD SLOAD SWAP3 SWAP5 SWAP1 SWAP3 SWAP1 JUMP JUMPDEST PUSH1 0x0 DUP1 SLOAD PUSH1 0x1 PUSH1 0x1 PUSH1 0xA0 SHL SUB DUP4 DUP2 AND PUSH1 0x1 PUSH1 0x1 PUSH1 0xA0 SHL SUB NOT DUP4 AND DUP2 OR DUP5 SSTORE PUSH1 0x40 MLOAD SWAP2 SWAP1 SWAP3 AND SWAP3 DUP4 SWAP2 PUSH32 0x8BE0079C531659141344CD1FD0A4F28419497F9722A3DAAFE3B4186F6B6457E0 SWAP2 SWAP1 LOG3 POP POP JUMP JUMPDEST PUSH1 0x0 PUSH1 0x20 DUP3 DUP5 SUB SLT ISZERO PUSH2 0x41A JUMPI DUP1 DUP2 REVERT JUMPDEST DUP2 CALLDATALOAD PUSH1 0x1 PUSH1 0x1 PUSH1 0xA0 SHL SUB DUP2 AND DUP2 EQ PUSH2 0x430 JUMPI DUP2 DUP3 REVERT JUMPDEST SWAP4 SWAP3 POP POP POP JUMP JUMPDEST PUSH1 0x0 PUSH1 0x20 DUP3 DUP5 SUB SLT ISZERO PUSH2 0x448 JUMPI DUP1 DUP2 REVERT JUMPDEST POP CALLDATALOAD SWAP2 SWAP1 POP JUMP JUMPDEST PUSH1 0x20 DUP1 DUP3 MSTORE DUP2 DUP2 ADD MSTORE PUSH32 0x4F776E61626C653A2063616C6C6572206973206E6F7420746865206F776E6572 PUSH1 0x40 DUP3 ADD MSTORE PUSH1 0x60 ADD SWAP1 JUMP JUMPDEST PUSH1 0x0 DUP3 NOT DUP3 GT ISZERO PUSH2 0x4A3 JUMPI PUSH4 0x4E487B71 PUSH1 0xE0 SHL DUP2 MSTORE PUSH1 0x11 PUSH1 0x4 MSTORE PUSH1 0x24 DUP2 REVERT JUMPDEST POP ADD SWAP1 JUMP INVALID LOG2 PUSH5 0x6970667358 0x22 SLT KECCAK256 SWAP10 DUP14 0xB1 0xC7 0x5D LOG3 0x2A MULMOD 0x28 PUSH28 0xA59213C7D9B6F7885A0F50BDFA7B4EB19F5F9A5C68EB64736F6C6343 STOP ADDMOD DIV STOP CALLER ","sha1":"1db1c616a60ee89a521d50c3aad3bd96aeeddeca","source":"pragma solidity ^0.8.0;\n\n// SPDX-License-Identifier: BUSL-1.1\n\nimport \"./Interfaces/PriceProviderInterface.sol\";\nimport \"@openzeppelin/contracts/access/Ownable.sol\";\n\ncontract CustomPriceProvider is Ownable, ICustomPriceProvider {\n    mapping(uint256 => RoundData) public roundData;\n    uint256 public latestRoundId;\n    uint256 public latestTimestamp;\n\n    // Should return USD price\n    function getUsdPrice() external view returns (uint256 latestPrice) {\n        (, latestPrice, , , ) = latestRoundData();\n    }\n\n    // Should return timestamp of corresponding round\n    function getRoundData(uint256 _roundID)\n        external\n        view\n        returns (\n            uint256,\n            uint256,\n            uint256,\n            uint256,\n            uint256\n        )\n    {\n        RoundData storage _roundData = roundData[_roundID];\n\n        return (\n            _roundData.roundId,\n            _roundData.price,\n            _roundData.startedAt,\n            _roundData.updatedAt,\n            _roundData.answeredInRound\n        );\n    }\n\n    function latestRoundData()\n        public\n        view\n        returns (\n            uint256,\n            uint256,\n            uint256,\n            uint256,\n            uint256\n        )\n    {\n        RoundData storage _roundData = roundData[latestRoundId];\n\n        return (\n            _roundData.roundId,\n            _roundData.price,\n            _roundData.startedAt,\n            _roundData.updatedAt,\n            _roundData.answeredInRound\n        );\n    }\n\n    function decimals() external view returns (uint8) {\n        return 8;\n    }\n\n    function update(uint256 price)\n        external\n        onlyOwner\n        returns (uint256 roundId)\n    {\n        roundId = latestRoundId + 1;\n        latestTimestamp = block.timestamp;\n\n        RoundData memory _roundData = RoundData(\n            roundId,\n            price,\n            latestTimestamp,\n            latestTimestamp,\n            roundId\n        );\n        roundData[roundId] = _roundData;\n        latestRoundId = roundId;\n    }\n}\n","sourcePath":"contracts/CustomPriceProvider.sol","type":"contract","deployment":{"address":"0xdd5F08151A965c727594621fd392320E532C9be1","chainid":"80001","blockHeight":27368608}}