{"bytecode":"608060405234801561001057600080fd5b50610530806100206000396000f3fe608060405234801561001057600080fd5b506004361061002b5760003560e01c8063fda6ed2f14610030575b600080fd5b61004361003e3660046102a6565b610059565b60405161005091906103b6565b60405180910390f35b6060816001600160401b0381111561008157634e487b7160e01b600052604160045260246000fd5b6040519080825280602002602001820160405280156100ba57816020015b6100a76101e2565b81526020019060019003908161009f5790505b50905060005b828110156101db5760008484838181106100ea57634e487b7160e01b600052603260045260246000fd5b90506040020160200160208101906101029190610278565b90506000806000806000806000876001600160a01b031663409e22058d8d8c81811061013e57634e487b7160e01b600052603260045260246000fd5b905060400201600001356040518263ffffffff1660e01b815260040161016691815260200190565b60e06040518083038186803b15801561017e57600080fd5b505afa158015610192573d6000803e3d6000fd5b505050506040513d601f19601f820116820180604052508101906101b69190610315565b508e9d506101d39c508d9b506104bd9a5050505050505050505050565b9150506100c0565b5092915050565b604080516101e0810190915260008082526020820190815260200160008152602001600081526020016000815260200160008152602001600081526020016000600281111561024157634e487b7160e01b600052602160045260246000fd5b815260006020820181905260408201819052606082018190526080820181905260a0820181905260c0820181905260e09091015290565b600060208284031215610289578081fd5b81356001600160a01b038116811461029f578182fd5b9392505050565b600080602083850312156102b8578081fd5b82356001600160401b03808211156102ce578283fd5b818501915085601f8301126102e1578283fd5b8135818111156102ef578384fd5b8660208260061b8501011115610303578384fd5b60209290920196919550909350505050565b600080600080600080600060e0888a03121561032f578283fd5b87516004811061033d578384fd5b809750506020880151955060408801519450606088015193506080880151925060a0880151915060c088015160038110610375578182fd5b8091505092959891949750929550565b6001600160a01b03169052565b600381106103a2576103a26104e4565b9052565b600481106103a2576103a26104e4565b602080825282518282018190526000919060409081850190868401855b828110156104b057815180518552868101516103f1888701826103a6565b508086015185870152606080820151908601526080808201519086015260a0808201519086015260c0808201519086015260e08082015161043482880182610392565b505061010081810151151590860152610120808201511515908601526101408082015190860152610160808201519086015261018080820151908601526101a08082015161048482880182610385565b50506101c0908101519061049a86820183610385565b50506101e09390930192908501906001016103d3565b5091979650505050505050565b60006000198214156104dd57634e487b7160e01b81526011600452602481fd5b5060010190565b634e487b7160e01b600052602160045260246000fdfea26469706673582212205ad17dcc204ec43e7ad75685d4f07bcdfa030a1333f31eea81647503b476a7f564736f6c63430008040033","bytecodeSha1":"66f2d4f59fcbcd02ab8a763a7263f2fa2127bffb","type":"contract","abi":[{"inputs":[{"components":[{"internalType":"uint256","name":"optionId","type":"uint256"},{"internalType":"address","name":"contractAddress","type":"address"}],"internalType":"struct OptionMeta.Input[]","name":"options","type":"tuple[]"}],"name":"get_option_data","outputs":[{"components":[{"internalType":"uint256","name":"optionId","type":"uint256"},{"internalType":"enum IBufferOptions.State","name":"state","type":"uint8"},{"internalType":"uint256","name":"strike","type":"uint256"},{"internalType":"uint256","name":"amount","type":"uint256"},{"internalType":"uint256","name":"lockedAmount","type":"uint256"},{"internalType":"uint256","name":"premium","type":"uint256"},{"internalType":"uint256","name":"expiration","type":"uint256"},{"internalType":"enum IBufferOptions.OptionType","name":"optionType","type":"uint8"},{"internalType":"bool","name":"isYes","type":"bool"},{"internalType":"bool","name":"isAbove","type":"bool"},{"internalType":"uint256","name":"iv","type":"uint256"},{"internalType":"uint256","name":"assetPrice","type":"uint256"},{"internalType":"uint256","name":"priceAtExpiration","type":"uint256"},{"internalType":"address","name":"owner","type":"address"},{"internalType":"address","name":"contractAddress","type":"address"}],"internalType":"struct OptionMeta.OptionMetaData[]","name":"allOptions","type":"tuple[]"}],"stateMutability":"view","type":"function"}],"compiler":{"version":"0.8.4+commit.c7e474f2","evm_version":"istanbul","optimizer":{"enabled":true,"runs":1}},"contractName":"OptionMeta","language":"Solidity","natspec":{"methods":{},"kind":"dev","version":1},"opcodes":"PUSH1 0x80 PUSH1 0x40 MSTORE CALLVALUE DUP1 ISZERO PUSH2 0x10 JUMPI PUSH1 0x0 DUP1 REVERT JUMPDEST POP PUSH1 0x4 CALLDATASIZE LT PUSH2 0x2B JUMPI PUSH1 0x0 CALLDATALOAD PUSH1 0xE0 SHR DUP1 PUSH4 0xFDA6ED2F EQ PUSH2 0x30 JUMPI JUMPDEST PUSH1 0x0 DUP1 REVERT JUMPDEST PUSH2 0x43 PUSH2 0x3E CALLDATASIZE PUSH1 0x4 PUSH2 0x2A6 JUMP JUMPDEST PUSH2 0x59 JUMP JUMPDEST PUSH1 0x40 MLOAD PUSH2 0x50 SWAP2 SWAP1 PUSH2 0x3B6 JUMP JUMPDEST PUSH1 0x40 MLOAD DUP1 SWAP2 SUB SWAP1 RETURN JUMPDEST PUSH1 0x60 DUP2 PUSH1 0x1 PUSH1 0x1 PUSH1 0x40 SHL SUB DUP2 GT ISZERO PUSH2 0x81 JUMPI PUSH4 0x4E487B71 PUSH1 0xE0 SHL PUSH1 0x0 MSTORE PUSH1 0x41 PUSH1 0x4 MSTORE PUSH1 0x24 PUSH1 0x0 REVERT JUMPDEST PUSH1 0x40 MLOAD SWAP1 DUP1 DUP3 MSTORE DUP1 PUSH1 0x20 MUL PUSH1 0x20 ADD DUP3 ADD PUSH1 0x40 MSTORE DUP1 ISZERO PUSH2 0xBA JUMPI DUP2 PUSH1 0x20 ADD JUMPDEST PUSH2 0xA7 PUSH2 0x1E2 JUMP JUMPDEST DUP2 MSTORE PUSH1 0x20 ADD SWAP1 PUSH1 0x1 SWAP1 SUB SWAP1 DUP2 PUSH2 0x9F JUMPI SWAP1 POP JUMPDEST POP SWAP1 POP PUSH1 0x0 JUMPDEST DUP3 DUP2 LT ISZERO PUSH2 0x1DB JUMPI PUSH1 0x0 DUP5 DUP5 DUP4 DUP2 DUP2 LT PUSH2 0xEA JUMPI PUSH4 0x4E487B71 PUSH1 0xE0 SHL PUSH1 0x0 MSTORE PUSH1 0x32 PUSH1 0x4 MSTORE PUSH1 0x24 PUSH1 0x0 REVERT JUMPDEST SWAP1 POP PUSH1 0x40 MUL ADD PUSH1 0x20 ADD PUSH1 0x20 DUP2 ADD SWAP1 PUSH2 0x102 SWAP2 SWAP1 PUSH2 0x278 JUMP JUMPDEST SWAP1 POP PUSH1 0x0 DUP1 PUSH1 0x0 DUP1 PUSH1 0x0 DUP1 PUSH1 0x0 DUP8 PUSH1 0x1 PUSH1 0x1 PUSH1 0xA0 SHL SUB AND PUSH4 0x409E2205 DUP14 DUP14 DUP13 DUP2 DUP2 LT PUSH2 0x13E JUMPI PUSH4 0x4E487B71 PUSH1 0xE0 SHL PUSH1 0x0 MSTORE PUSH1 0x32 PUSH1 0x4 MSTORE PUSH1 0x24 PUSH1 0x0 REVERT JUMPDEST SWAP1 POP PUSH1 0x40 MUL ADD PUSH1 0x0 ADD CALLDATALOAD PUSH1 0x40 MLOAD DUP3 PUSH4 0xFFFFFFFF AND PUSH1 0xE0 SHL DUP2 MSTORE PUSH1 0x4 ADD PUSH2 0x166 SWAP2 DUP2 MSTORE PUSH1 0x20 ADD SWAP1 JUMP JUMPDEST PUSH1 0xE0 PUSH1 0x40 MLOAD DUP1 DUP4 SUB DUP2 DUP7 DUP1 EXTCODESIZE ISZERO DUP1 ISZERO PUSH2 0x17E JUMPI PUSH1 0x0 DUP1 REVERT JUMPDEST POP GAS STATICCALL ISZERO DUP1 ISZERO PUSH2 0x192 JUMPI RETURNDATASIZE PUSH1 0x0 DUP1 RETURNDATACOPY RETURNDATASIZE PUSH1 0x0 REVERT JUMPDEST POP POP POP POP PUSH1 0x40 MLOAD RETURNDATASIZE PUSH1 0x1F NOT PUSH1 0x1F DUP3 ADD AND DUP3 ADD DUP1 PUSH1 0x40 MSTORE POP DUP2 ADD SWAP1 PUSH2 0x1B6 SWAP2 SWAP1 PUSH2 0x315 JUMP JUMPDEST POP DUP15 SWAP14 POP PUSH2 0x1D3 SWAP13 POP DUP14 SWAP12 POP PUSH2 0x4BD SWAP11 POP POP POP POP POP POP POP POP POP POP POP JUMP JUMPDEST SWAP2 POP POP PUSH2 0xC0 JUMP JUMPDEST POP SWAP3 SWAP2 POP POP JUMP JUMPDEST PUSH1 0x40 DUP1 MLOAD PUSH2 0x1E0 DUP2 ADD SWAP1 SWAP2 MSTORE PUSH1 0x0 DUP1 DUP3 MSTORE PUSH1 0x20 DUP3 ADD SWAP1 DUP2 MSTORE PUSH1 0x20 ADD PUSH1 0x0 DUP2 MSTORE PUSH1 0x20 ADD PUSH1 0x0 DUP2 MSTORE PUSH1 0x20 ADD PUSH1 0x0 DUP2 MSTORE PUSH1 0x20 ADD PUSH1 0x0 DUP2 MSTORE PUSH1 0x20 ADD PUSH1 0x0 DUP2 MSTORE PUSH1 0x20 ADD PUSH1 0x0 PUSH1 0x2 DUP2 GT ISZERO PUSH2 0x241 JUMPI PUSH4 0x4E487B71 PUSH1 0xE0 SHL PUSH1 0x0 MSTORE PUSH1 0x21 PUSH1 0x4 MSTORE PUSH1 0x24 PUSH1 0x0 REVERT JUMPDEST DUP2 MSTORE PUSH1 0x0 PUSH1 0x20 DUP3 ADD DUP2 SWAP1 MSTORE PUSH1 0x40 DUP3 ADD DUP2 SWAP1 MSTORE PUSH1 0x60 DUP3 ADD DUP2 SWAP1 MSTORE PUSH1 0x80 DUP3 ADD DUP2 SWAP1 MSTORE PUSH1 0xA0 DUP3 ADD DUP2 SWAP1 MSTORE PUSH1 0xC0 DUP3 ADD DUP2 SWAP1 MSTORE PUSH1 0xE0 SWAP1 SWAP2 ADD MSTORE SWAP1 JUMP JUMPDEST PUSH1 0x0 PUSH1 0x20 DUP3 DUP5 SUB SLT ISZERO PUSH2 0x289 JUMPI DUP1 DUP2 REVERT JUMPDEST DUP2 CALLDATALOAD PUSH1 0x1 PUSH1 0x1 PUSH1 0xA0 SHL SUB DUP2 AND DUP2 EQ PUSH2 0x29F JUMPI DUP2 DUP3 REVERT JUMPDEST SWAP4 SWAP3 POP POP POP JUMP JUMPDEST PUSH1 0x0 DUP1 PUSH1 0x20 DUP4 DUP6 SUB SLT ISZERO PUSH2 0x2B8 JUMPI DUP1 DUP2 REVERT JUMPDEST DUP3 CALLDATALOAD PUSH1 0x1 PUSH1 0x1 PUSH1 0x40 SHL SUB DUP1 DUP3 GT ISZERO PUSH2 0x2CE JUMPI DUP3 DUP4 REVERT JUMPDEST DUP2 DUP6 ADD SWAP2 POP DUP6 PUSH1 0x1F DUP4 ADD SLT PUSH2 0x2E1 JUMPI DUP3 DUP4 REVERT JUMPDEST DUP2 CALLDATALOAD DUP2 DUP2 GT ISZERO PUSH2 0x2EF JUMPI DUP4 DUP5 REVERT JUMPDEST DUP7 PUSH1 0x20 DUP3 PUSH1 0x6 SHL DUP6 ADD ADD GT ISZERO PUSH2 0x303 JUMPI DUP4 DUP5 REVERT JUMPDEST PUSH1 0x20 SWAP3 SWAP1 SWAP3 ADD SWAP7 SWAP2 SWAP6 POP SWAP1 SWAP4 POP POP POP POP JUMP JUMPDEST PUSH1 0x0 DUP1 PUSH1 0x0 DUP1 PUSH1 0x0 DUP1 PUSH1 0x0 PUSH1 0xE0 DUP9 DUP11 SUB SLT ISZERO PUSH2 0x32F JUMPI DUP3 DUP4 REVERT JUMPDEST DUP8 MLOAD PUSH1 0x4 DUP2 LT PUSH2 0x33D JUMPI DUP4 DUP5 REVERT JUMPDEST DUP1 SWAP8 POP POP PUSH1 0x20 DUP9 ADD MLOAD SWAP6 POP PUSH1 0x40 DUP9 ADD MLOAD SWAP5 POP PUSH1 0x60 DUP9 ADD MLOAD SWAP4 POP PUSH1 0x80 DUP9 ADD MLOAD SWAP3 POP PUSH1 0xA0 DUP9 ADD MLOAD SWAP2 POP PUSH1 0xC0 DUP9 ADD MLOAD PUSH1 0x3 DUP2 LT PUSH2 0x375 JUMPI DUP2 DUP3 REVERT JUMPDEST DUP1 SWAP2 POP POP SWAP3 SWAP6 SWAP9 SWAP2 SWAP5 SWAP8 POP SWAP3 SWAP6 POP JUMP JUMPDEST PUSH1 0x1 PUSH1 0x1 PUSH1 0xA0 SHL SUB AND SWAP1 MSTORE JUMP JUMPDEST PUSH1 0x3 DUP2 LT PUSH2 0x3A2 JUMPI PUSH2 0x3A2 PUSH2 0x4E4 JUMP JUMPDEST SWAP1 MSTORE JUMP JUMPDEST PUSH1 0x4 DUP2 LT PUSH2 0x3A2 JUMPI PUSH2 0x3A2 PUSH2 0x4E4 JUMP JUMPDEST PUSH1 0x20 DUP1 DUP3 MSTORE DUP3 MLOAD DUP3 DUP3 ADD DUP2 SWAP1 MSTORE PUSH1 0x0 SWAP2 SWAP1 PUSH1 0x40 SWAP1 DUP2 DUP6 ADD SWAP1 DUP7 DUP5 ADD DUP6 JUMPDEST DUP3 DUP2 LT ISZERO PUSH2 0x4B0 JUMPI DUP2 MLOAD DUP1 MLOAD DUP6 MSTORE DUP7 DUP2 ADD MLOAD PUSH2 0x3F1 DUP9 DUP8 ADD DUP3 PUSH2 0x3A6 JUMP JUMPDEST POP DUP1 DUP7 ADD MLOAD DUP6 DUP8 ADD MSTORE PUSH1 0x60 DUP1 DUP3 ADD MLOAD SWAP1 DUP7 ADD MSTORE PUSH1 0x80 DUP1 DUP3 ADD MLOAD SWAP1 DUP7 ADD MSTORE PUSH1 0xA0 DUP1 DUP3 ADD MLOAD SWAP1 DUP7 ADD MSTORE PUSH1 0xC0 DUP1 DUP3 ADD MLOAD SWAP1 DUP7 ADD MSTORE PUSH1 0xE0 DUP1 DUP3 ADD MLOAD PUSH2 0x434 DUP3 DUP9 ADD DUP3 PUSH2 0x392 JUMP JUMPDEST POP POP PUSH2 0x100 DUP2 DUP2 ADD MLOAD ISZERO ISZERO SWAP1 DUP7 ADD MSTORE PUSH2 0x120 DUP1 DUP3 ADD MLOAD ISZERO ISZERO SWAP1 DUP7 ADD MSTORE PUSH2 0x140 DUP1 DUP3 ADD MLOAD SWAP1 DUP7 ADD MSTORE PUSH2 0x160 DUP1 DUP3 ADD MLOAD SWAP1 DUP7 ADD MSTORE PUSH2 0x180 DUP1 DUP3 ADD MLOAD SWAP1 DUP7 ADD MSTORE PUSH2 0x1A0 DUP1 DUP3 ADD MLOAD PUSH2 0x484 DUP3 DUP9 ADD DUP3 PUSH2 0x385 JUMP JUMPDEST POP POP PUSH2 0x1C0 SWAP1 DUP2 ADD MLOAD SWAP1 PUSH2 0x49A DUP7 DUP3 ADD DUP4 PUSH2 0x385 JUMP JUMPDEST POP POP PUSH2 0x1E0 SWAP4 SWAP1 SWAP4 ADD SWAP3 SWAP1 DUP6 ADD SWAP1 PUSH1 0x1 ADD PUSH2 0x3D3 JUMP JUMPDEST POP SWAP2 SWAP8 SWAP7 POP POP POP POP POP POP POP JUMP JUMPDEST PUSH1 0x0 PUSH1 0x0 NOT DUP3 EQ ISZERO PUSH2 0x4DD JUMPI PUSH4 0x4E487B71 PUSH1 0xE0 SHL DUP2 MSTORE PUSH1 0x11 PUSH1 0x4 MSTORE PUSH1 0x24 DUP2 REVERT JUMPDEST POP PUSH1 0x1 ADD SWAP1 JUMP JUMPDEST PUSH4 0x4E487B71 PUSH1 0xE0 SHL PUSH1 0x0 MSTORE PUSH1 0x21 PUSH1 0x4 MSTORE PUSH1 0x24 PUSH1 0x0 REVERT INVALID LOG2 PUSH5 0x6970667358 0x22 SLT KECCAK256 GAS 0xD1 PUSH30 0xCC204EC43E7AD75685D4F07BCDFA030A1333F31EEA81647503B476A7F564 PUSH20 0x6F6C634300080400330000000000000000000000 ","sha1":"bc7a5baa38090570cd636fbdc7a32e28e8a24e57","source":"pragma solidity ^0.8.0;\n\n// SPDX-License-Identifier: BUSL-1.1\n\n// import \"./Interfaces/InterfacesV2.sol\";\nimport \"./Options/BufferBinaryEuropeanTokenXOptions.sol\";\n\ncontract OptionMeta {\n    struct Input {\n        uint256 optionId;\n        address contractAddress;\n    }\n    struct OptionMetaData {\n        uint256 optionId;\n        IBufferOptions.State state;\n        uint256 strike;\n        uint256 amount;\n        uint256 lockedAmount;\n        uint256 premium;\n        uint256 expiration;\n        IBufferOptions.OptionType optionType;\n        bool isYes;\n        bool isAbove;\n        uint256 iv;\n        uint256 assetPrice;\n        uint256 priceAtExpiration;\n        address owner;\n        address contractAddress;\n    }\n\n    // function get_price_at_timestamp(address priceProvider, uint256 timestamp)\n    //     public\n    //     view\n    //     returns (uint256)\n    // {\n    //     AggregatorV3Interface priceProviderContract = AggregatorV3Interface(\n    //         priceProvider\n    //     );\n    //     (\n    //         uint80 roundId,\n    //         uint256 answer,\n    //         ,\n    //         uint256 latestTimestamp,\n\n    //     ) = priceProviderContract.latestRoundData();\n\n    //     if (latestTimestamp > timestamp) {\n    //         bool isCorrectRoundId;\n    //         while (!isCorrectRoundId) {\n    //             roundId = roundId - 1;\n    //             (\n    //                 ,\n    //                 uint256 roundAnswer,\n    //                 ,\n    //                 uint256 roundTimestamp,\n\n    //             ) = priceProviderContract.getRoundData(roundId);\n    //             if ((roundTimestamp > 0) && (roundTimestamp <= timestamp)) {\n    //                 isCorrectRoundId = true;\n    //                 answer = roundAnswer;\n    //             }\n    //         }\n    //     }\n    //     return answer;\n    // }\n\n    function get_option_data(Input[] calldata options)\n        public\n        view\n        returns (OptionMetaData[] memory allOptions)\n    {\n        allOptions = new OptionMetaData[](options.length);\n\n        for (uint256 i = 0; i < options.length; i++) {\n            BufferBinaryEuropeanTokenXOptions binaryOptionsContract = BufferBinaryEuropeanTokenXOptions(\n                    options[i].contractAddress\n                );\n            (\n                IBufferOptions.State state,\n                uint256 strike,\n                uint256 amount,\n                uint256 lockedAmount,\n                uint256 premium,\n                uint256 expiration,\n                IBufferOptions.OptionType optionType\n            ) = binaryOptionsContract.options(options[i].optionId);\n            // (bool isYes, bool isAbove) = binaryOptionsContract.binaryOptionType(\n            //     options[i].optionId\n            // );\n            // address priceProvider = binaryOptionsContract.priceProvider();\n\n            //     uint256 priceAtExpiry = (option.state ==\n            //         IBufferOptions.State.Active &&\n            //         block.timestamp > option.expiration)\n            //         ? get_price_at_timestamp(priceProvider, option.expiration)\n            //         : 0;\n            //     allOptions[i] = OptionMetaData(\n            //         options[i].optionId,\n            //         option.state,\n            //         option.strike,\n            //         option.amount,\n            //         option.lockedAmount,\n            //         option.premium,\n            //         option.expiration,\n            //         option.optionType,\n            //         isYes,\n            //         isAbove,\n            //         IOptionsConfig(binaryOptionsContract.config()).impliedVolRate(),\n            //         binaryOptionsContract.getUsdPrice(),\n            //         priceAtExpiry,\n            //         binaryOptionsContract.ownerOf(options[i].optionId),\n            //         options[i].contractAddress\n            //     );\n        }\n        return allOptions;\n    }\n}\n","sourcePath":"contracts/OptionMeta.sol","deployment":{"address":"0xeEF22DA98ddb054fc7C924fb46dE329af3818bdB","chainid":"80001","blockHeight":27440851}}