{"abi":[{"anonymous":false,"inputs":[{"indexed":true,"internalType":"address","name":"previousOwner","type":"address"},{"indexed":true,"internalType":"address","name":"newOwner","type":"address"}],"name":"OwnershipTransferred","type":"event"},{"inputs":[],"name":"decimals","outputs":[{"internalType":"uint8","name":"","type":"uint8"}],"stateMutability":"view","type":"function"},{"inputs":[{"internalType":"uint256","name":"_roundID","type":"uint256"}],"name":"getRoundData","outputs":[{"internalType":"uint256","name":"","type":"uint256"},{"internalType":"uint256","name":"","type":"uint256"},{"internalType":"uint256","name":"","type":"uint256"},{"internalType":"uint256","name":"","type":"uint256"},{"internalType":"uint256","name":"","type":"uint256"}],"stateMutability":"view","type":"function"},{"inputs":[],"name":"getUsdPrice","outputs":[{"internalType":"uint256","name":"latestPrice","type":"uint256"}],"stateMutability":"view","type":"function"},{"inputs":[],"name":"latestRoundData","outputs":[{"internalType":"uint256","name":"","type":"uint256"},{"internalType":"uint256","name":"","type":"uint256"},{"internalType":"uint256","name":"","type":"uint256"},{"internalType":"uint256","name":"","type":"uint256"},{"internalType":"uint256","name":"","type":"uint256"}],"stateMutability":"view","type":"function"},{"inputs":[],"name":"latestRoundId","outputs":[{"internalType":"uint256","name":"","type":"uint256"}],"stateMutability":"view","type":"function"},{"inputs":[],"name":"latestTimestamp","outputs":[{"internalType":"uint256","name":"","type":"uint256"}],"stateMutability":"view","type":"function"},{"inputs":[],"name":"owner","outputs":[{"internalType":"address","name":"","type":"address"}],"stateMutability":"view","type":"function"},{"inputs":[],"name":"renounceOwnership","outputs":[],"stateMutability":"nonpayable","type":"function"},{"inputs":[{"internalType":"uint256","name":"","type":"uint256"}],"name":"roundData","outputs":[{"internalType":"uint256","name":"roundId","type":"uint256"},{"internalType":"uint256","name":"price","type":"uint256"},{"internalType":"uint256","name":"startedAt","type":"uint256"},{"internalType":"uint256","name":"updatedAt","type":"uint256"},{"internalType":"uint256","name":"answeredInRound","type":"uint256"}],"stateMutability":"view","type":"function"},{"inputs":[{"internalType":"string","name":"_symbol","type":"string"}],"name":"setSymbol","outputs":[],"stateMutability":"nonpayable","type":"function"},{"inputs":[],"name":"symbol","outputs":[{"internalType":"string","name":"","type":"string"}],"stateMutability":"view","type":"function"},{"inputs":[{"internalType":"address","name":"newOwner","type":"address"}],"name":"transferOwnership","outputs":[],"stateMutability":"nonpayable","type":"function"},{"inputs":[{"internalType":"uint256","name":"price","type":"uint256"}],"name":"update","outputs":[{"internalType":"uint256","name":"roundId","type":"uint256"}],"stateMutability":"nonpayable","type":"function"}],"bytecode":"608060405234801561001057600080fd5b5061001a3361001f565b61006f565b600080546001600160a01b038381166001600160a01b0319831681178455604051919092169283917f8be0079c531659141344cd1fd0a4f28419497f9722a3daafe3b4186f6b6457e09190a35050565b6107d68061007e6000396000f3fe608060405234801561001057600080fd5b50600436106100af5760003560e01c80630720da52146100b457806311a8f4131461011f5780631acf558214610136578063313ce5671461013e578063715018a61461014d5780638205bf6a1461015757806382ab890a146101605780638da5cb5b1461017357806395d89b4114610193578063b84c8246146101a8578063b955e60d146101bb578063f2fde38b146101f7578063feaf968c1461020a575b600080fd5b6100f26100c236600461068b565b60009081526001602081905260409091208054918101546002820154600383015460049093015493949193909291565b604080519586526020860194909452928401919091526060830152608082015260a0015b60405180910390f35b61012860025481565b604051908152602001610116565b610128610212565b60405160088152602001610116565b610155610226565b005b61012860035481565b61012861016e36600461068b565b61026a565b61017b610317565b6040516001600160a01b039091168152602001610116565b61019b610326565b60405161011691906106a3565b6101556101b63660046105e2565b6103b4565b6100f26101c936600461068b565b6001602081905260009182526040909120805491810154600282015460038301546004909301549192909185565b6101556102053660046105b4565b6103fa565b6100f261049a565b600061021c61049a565b5091949350505050565b3361022f610317565b6001600160a01b03161461025e5760405162461bcd60e51b8152600401610255906106f6565b60405180910390fd5b61026860006104cb565b565b600033610275610317565b6001600160a01b03161461029b5760405162461bcd60e51b8152600401610255906106f6565b6002546102a990600161072b565b4260038181556040805160a0810182528481526020808201978852818301858152606083019586526080830187815260008881526001938490529490942092518355975190820155955160028088019190915592519186019190915551600490940193909355918290555090565b6000546001600160a01b031690565b600480546103339061074f565b80601f016020809104026020016040519081016040528092919081815260200182805461035f9061074f565b80156103ac5780601f10610381576101008083540402835291602001916103ac565b820191906000526020600020905b81548152906001019060200180831161038f57829003601f168201915b505050505081565b336103bd610317565b6001600160a01b0316146103e35760405162461bcd60e51b8152600401610255906106f6565b80516103f690600490602084019061051b565b5050565b33610403610317565b6001600160a01b0316146104295760405162461bcd60e51b8152600401610255906106f6565b6001600160a01b03811661048e5760405162461bcd60e51b815260206004820152602660248201527f4f776e61626c653a206e6577206f776e657220697320746865207a65726f206160448201526564647265737360d01b6064820152608401610255565b610497816104cb565b50565b6002805460009081526001602081905260409091208054918101549281015460038201546004909201549294909290565b600080546001600160a01b038381166001600160a01b0319831681178455604051919092169283917f8be0079c531659141344cd1fd0a4f28419497f9722a3daafe3b4186f6b6457e09190a35050565b8280546105279061074f565b90600052602060002090601f016020900481019282610549576000855561058f565b82601f1061056257805160ff191683800117855561058f565b8280016001018555821561058f579182015b8281111561058f578251825591602001919060010190610574565b5061059b92915061059f565b5090565b5b8082111561059b57600081556001016105a0565b6000602082840312156105c5578081fd5b81356001600160a01b03811681146105db578182fd5b9392505050565b6000602082840312156105f3578081fd5b81356001600160401b0380821115610609578283fd5b818401915084601f83011261061c578283fd5b81358181111561062e5761062e61078a565b604051601f8201601f19908116603f011681019083821181831017156106565761065661078a565b8160405282815287602084870101111561066e578586fd5b826020860160208301379182016020019490945295945050505050565b60006020828403121561069c578081fd5b5035919050565b6000602080835283518082850152825b818110156106cf578581018301518582016040015282016106b3565b818111156106e05783604083870101525b50601f01601f1916929092016040019392505050565b6020808252818101527f4f776e61626c653a2063616c6c6572206973206e6f7420746865206f776e6572604082015260600190565b6000821982111561074a57634e487b7160e01b81526011600452602481fd5b500190565b600181811c9082168061076357607f821691505b6020821081141561078457634e487b7160e01b600052602260045260246000fd5b50919050565b634e487b7160e01b600052604160045260246000fdfea2646970667358221220e23ec137b9ed0077b76874b45f35922de7f1bd7d2507f9ef4c9f5c8a494484cd64736f6c63430008040033","bytecodeSha1":"cd5d434476e5bf1bd7ef89f779cf0f69d3342d3b","compiler":{"evm_version":"istanbul","optimizer":{"enabled":true,"runs":1},"version":"0.8.4+commit.c7e474f2"},"contractName":"CustomPriceProvider","language":"Solidity","natspec":{"kind":"dev","methods":{"owner()":{"details":"Returns the address of the current owner."},"renounceOwnership()":{"details":"Leaves the contract without owner. It will not be possible to call `onlyOwner` functions anymore. Can only be called by the current owner. NOTE: Renouncing ownership will leave the contract without an owner, thereby removing any functionality that is only available to the owner."},"transferOwnership(address)":{"details":"Transfers ownership of the contract to a new account (`newOwner`). Can only be called by the current owner."}},"version":1},"opcodes":"PUSH1 0x80 PUSH1 0x40 MSTORE CALLVALUE DUP1 ISZERO PUSH2 0x10 JUMPI PUSH1 0x0 DUP1 REVERT JUMPDEST POP PUSH1 0x4 CALLDATASIZE LT PUSH2 0xAF JUMPI PUSH1 0x0 CALLDATALOAD PUSH1 0xE0 SHR DUP1 PUSH4 0x720DA52 EQ PUSH2 0xB4 JUMPI DUP1 PUSH4 0x11A8F413 EQ PUSH2 0x11F JUMPI DUP1 PUSH4 0x1ACF5582 EQ PUSH2 0x136 JUMPI DUP1 PUSH4 0x313CE567 EQ PUSH2 0x13E JUMPI DUP1 PUSH4 0x715018A6 EQ PUSH2 0x14D JUMPI DUP1 PUSH4 0x8205BF6A EQ PUSH2 0x157 JUMPI DUP1 PUSH4 0x82AB890A EQ PUSH2 0x160 JUMPI DUP1 PUSH4 0x8DA5CB5B EQ PUSH2 0x173 JUMPI DUP1 PUSH4 0x95D89B41 EQ PUSH2 0x193 JUMPI DUP1 PUSH4 0xB84C8246 EQ PUSH2 0x1A8 JUMPI DUP1 PUSH4 0xB955E60D EQ PUSH2 0x1BB JUMPI DUP1 PUSH4 0xF2FDE38B EQ PUSH2 0x1F7 JUMPI DUP1 PUSH4 0xFEAF968C EQ PUSH2 0x20A JUMPI JUMPDEST PUSH1 0x0 DUP1 REVERT JUMPDEST PUSH2 0xF2 PUSH2 0xC2 CALLDATASIZE PUSH1 0x4 PUSH2 0x68B JUMP JUMPDEST PUSH1 0x0 SWAP1 DUP2 MSTORE PUSH1 0x1 PUSH1 0x20 DUP2 SWAP1 MSTORE PUSH1 0x40 SWAP1 SWAP2 KECCAK256 DUP1 SLOAD SWAP2 DUP2 ADD SLOAD PUSH1 0x2 DUP3 ADD SLOAD PUSH1 0x3 DUP4 ADD SLOAD PUSH1 0x4 SWAP1 SWAP4 ADD SLOAD SWAP4 SWAP5 SWAP2 SWAP4 SWAP1 SWAP3 SWAP2 JUMP JUMPDEST PUSH1 0x40 DUP1 MLOAD SWAP6 DUP7 MSTORE PUSH1 0x20 DUP7 ADD SWAP5 SWAP1 SWAP5 MSTORE SWAP3 DUP5 ADD SWAP2 SWAP1 SWAP2 MSTORE PUSH1 0x60 DUP4 ADD MSTORE PUSH1 0x80 DUP3 ADD MSTORE PUSH1 0xA0 ADD JUMPDEST PUSH1 0x40 MLOAD DUP1 SWAP2 SUB SWAP1 RETURN JUMPDEST PUSH2 0x128 PUSH1 0x2 SLOAD DUP2 JUMP JUMPDEST PUSH1 0x40 MLOAD SWAP1 DUP2 MSTORE PUSH1 0x20 ADD PUSH2 0x116 JUMP JUMPDEST PUSH2 0x128 PUSH2 0x212 JUMP JUMPDEST PUSH1 0x40 MLOAD PUSH1 0x8 DUP2 MSTORE PUSH1 0x20 ADD PUSH2 0x116 JUMP JUMPDEST PUSH2 0x155 PUSH2 0x226 JUMP JUMPDEST STOP JUMPDEST PUSH2 0x128 PUSH1 0x3 SLOAD DUP2 JUMP JUMPDEST PUSH2 0x128 PUSH2 0x16E CALLDATASIZE PUSH1 0x4 PUSH2 0x68B JUMP JUMPDEST PUSH2 0x26A JUMP JUMPDEST PUSH2 0x17B PUSH2 0x317 JUMP JUMPDEST PUSH1 0x40 MLOAD PUSH1 0x1 PUSH1 0x1 PUSH1 0xA0 SHL SUB SWAP1 SWAP2 AND DUP2 MSTORE PUSH1 0x20 ADD PUSH2 0x116 JUMP JUMPDEST PUSH2 0x19B PUSH2 0x326 JUMP JUMPDEST PUSH1 0x40 MLOAD PUSH2 0x116 SWAP2 SWAP1 PUSH2 0x6A3 JUMP JUMPDEST PUSH2 0x155 PUSH2 0x1B6 CALLDATASIZE PUSH1 0x4 PUSH2 0x5E2 JUMP JUMPDEST PUSH2 0x3B4 JUMP JUMPDEST PUSH2 0xF2 PUSH2 0x1C9 CALLDATASIZE PUSH1 0x4 PUSH2 0x68B JUMP JUMPDEST PUSH1 0x1 PUSH1 0x20 DUP2 SWAP1 MSTORE PUSH1 0x0 SWAP2 DUP3 MSTORE PUSH1 0x40 SWAP1 SWAP2 KECCAK256 DUP1 SLOAD SWAP2 DUP2 ADD SLOAD PUSH1 0x2 DUP3 ADD SLOAD PUSH1 0x3 DUP4 ADD SLOAD PUSH1 0x4 SWAP1 SWAP4 ADD SLOAD SWAP2 SWAP3 SWAP1 SWAP2 DUP6 JUMP JUMPDEST PUSH2 0x155 PUSH2 0x205 CALLDATASIZE PUSH1 0x4 PUSH2 0x5B4 JUMP JUMPDEST PUSH2 0x3FA JUMP JUMPDEST PUSH2 0xF2 PUSH2 0x49A JUMP JUMPDEST PUSH1 0x0 PUSH2 0x21C PUSH2 0x49A JUMP JUMPDEST POP SWAP2 SWAP5 SWAP4 POP POP POP POP JUMP JUMPDEST CALLER PUSH2 0x22F PUSH2 0x317 JUMP JUMPDEST PUSH1 0x1 PUSH1 0x1 PUSH1 0xA0 SHL SUB AND EQ PUSH2 0x25E JUMPI PUSH1 0x40 MLOAD PUSH3 0x461BCD PUSH1 0xE5 SHL DUP2 MSTORE PUSH1 0x4 ADD PUSH2 0x255 SWAP1 PUSH2 0x6F6 JUMP JUMPDEST PUSH1 0x40 MLOAD DUP1 SWAP2 SUB SWAP1 REVERT JUMPDEST PUSH2 0x268 PUSH1 0x0 PUSH2 0x4CB JUMP JUMPDEST JUMP JUMPDEST PUSH1 0x0 CALLER PUSH2 0x275 PUSH2 0x317 JUMP JUMPDEST PUSH1 0x1 PUSH1 0x1 PUSH1 0xA0 SHL SUB AND EQ PUSH2 0x29B JUMPI PUSH1 0x40 MLOAD PUSH3 0x461BCD PUSH1 0xE5 SHL DUP2 MSTORE PUSH1 0x4 ADD PUSH2 0x255 SWAP1 PUSH2 0x6F6 JUMP JUMPDEST PUSH1 0x2 SLOAD PUSH2 0x2A9 SWAP1 PUSH1 0x1 PUSH2 0x72B JUMP JUMPDEST TIMESTAMP PUSH1 0x3 DUP2 DUP2 SSTORE PUSH1 0x40 DUP1 MLOAD PUSH1 0xA0 DUP2 ADD DUP3 MSTORE DUP5 DUP2 MSTORE PUSH1 0x20 DUP1 DUP3 ADD SWAP8 DUP9 MSTORE DUP2 DUP4 ADD DUP6 DUP2 MSTORE PUSH1 0x60 DUP4 ADD SWAP6 DUP7 MSTORE PUSH1 0x80 DUP4 ADD DUP8 DUP2 MSTORE PUSH1 0x0 DUP9 DUP2 MSTORE PUSH1 0x1 SWAP4 DUP5 SWAP1 MSTORE SWAP5 SWAP1 SWAP5 KECCAK256 SWAP3 MLOAD DUP4 SSTORE SWAP8 MLOAD SWAP1 DUP3 ADD SSTORE SWAP6 MLOAD PUSH1 0x2 DUP1 DUP9 ADD SWAP2 SWAP1 SWAP2 SSTORE SWAP3 MLOAD SWAP2 DUP7 ADD SWAP2 SWAP1 SWAP2 SSTORE MLOAD PUSH1 0x4 SWAP1 SWAP5 ADD SWAP4 SWAP1 SWAP4 SSTORE SWAP2 DUP3 SWAP1 SSTORE POP SWAP1 JUMP JUMPDEST PUSH1 0x0 SLOAD PUSH1 0x1 PUSH1 0x1 PUSH1 0xA0 SHL SUB AND SWAP1 JUMP JUMPDEST PUSH1 0x4 DUP1 SLOAD PUSH2 0x333 SWAP1 PUSH2 0x74F JUMP JUMPDEST DUP1 PUSH1 0x1F ADD PUSH1 0x20 DUP1 SWAP2 DIV MUL PUSH1 0x20 ADD PUSH1 0x40 MLOAD SWAP1 DUP2 ADD PUSH1 0x40 MSTORE DUP1 SWAP3 SWAP2 SWAP1 DUP2 DUP2 MSTORE PUSH1 0x20 ADD DUP3 DUP1 SLOAD PUSH2 0x35F SWAP1 PUSH2 0x74F JUMP JUMPDEST DUP1 ISZERO PUSH2 0x3AC JUMPI DUP1 PUSH1 0x1F LT PUSH2 0x381 JUMPI PUSH2 0x100 DUP1 DUP4 SLOAD DIV MUL DUP4 MSTORE SWAP2 PUSH1 0x20 ADD SWAP2 PUSH2 0x3AC JUMP JUMPDEST DUP3 ADD SWAP2 SWAP1 PUSH1 0x0 MSTORE PUSH1 0x20 PUSH1 0x0 KECCAK256 SWAP1 JUMPDEST DUP2 SLOAD DUP2 MSTORE SWAP1 PUSH1 0x1 ADD SWAP1 PUSH1 0x20 ADD DUP1 DUP4 GT PUSH2 0x38F JUMPI DUP3 SWAP1 SUB PUSH1 0x1F AND DUP3 ADD SWAP2 JUMPDEST POP POP POP POP POP DUP2 JUMP JUMPDEST CALLER PUSH2 0x3BD PUSH2 0x317 JUMP JUMPDEST PUSH1 0x1 PUSH1 0x1 PUSH1 0xA0 SHL SUB AND EQ PUSH2 0x3E3 JUMPI PUSH1 0x40 MLOAD PUSH3 0x461BCD PUSH1 0xE5 SHL DUP2 MSTORE PUSH1 0x4 ADD PUSH2 0x255 SWAP1 PUSH2 0x6F6 JUMP JUMPDEST DUP1 MLOAD PUSH2 0x3F6 SWAP1 PUSH1 0x4 SWAP1 PUSH1 0x20 DUP5 ADD SWAP1 PUSH2 0x51B JUMP JUMPDEST POP POP JUMP JUMPDEST CALLER PUSH2 0x403 PUSH2 0x317 JUMP JUMPDEST PUSH1 0x1 PUSH1 0x1 PUSH1 0xA0 SHL SUB AND EQ PUSH2 0x429 JUMPI PUSH1 0x40 MLOAD PUSH3 0x461BCD PUSH1 0xE5 SHL DUP2 MSTORE PUSH1 0x4 ADD PUSH2 0x255 SWAP1 PUSH2 0x6F6 JUMP JUMPDEST PUSH1 0x1 PUSH1 0x1 PUSH1 0xA0 SHL SUB DUP2 AND PUSH2 0x48E JUMPI PUSH1 0x40 MLOAD PUSH3 0x461BCD PUSH1 0xE5 SHL DUP2 MSTORE PUSH1 0x20 PUSH1 0x4 DUP3 ADD MSTORE PUSH1 0x26 PUSH1 0x24 DUP3 ADD MSTORE PUSH32 0x4F776E61626C653A206E6577206F776E657220697320746865207A65726F2061 PUSH1 0x44 DUP3 ADD MSTORE PUSH6 0x646472657373 PUSH1 0xD0 SHL PUSH1 0x64 DUP3 ADD MSTORE PUSH1 0x84 ADD PUSH2 0x255 JUMP JUMPDEST PUSH2 0x497 DUP2 PUSH2 0x4CB JUMP JUMPDEST POP JUMP JUMPDEST PUSH1 0x2 DUP1 SLOAD PUSH1 0x0 SWAP1 DUP2 MSTORE PUSH1 0x1 PUSH1 0x20 DUP2 SWAP1 MSTORE PUSH1 0x40 SWAP1 SWAP2 KECCAK256 DUP1 SLOAD SWAP2 DUP2 ADD SLOAD SWAP3 DUP2 ADD SLOAD PUSH1 0x3 DUP3 ADD SLOAD PUSH1 0x4 SWAP1 SWAP3 ADD SLOAD SWAP3 SWAP5 SWAP1 SWAP3 SWAP1 JUMP JUMPDEST PUSH1 0x0 DUP1 SLOAD PUSH1 0x1 PUSH1 0x1 PUSH1 0xA0 SHL SUB DUP4 DUP2 AND PUSH1 0x1 PUSH1 0x1 PUSH1 0xA0 SHL SUB NOT DUP4 AND DUP2 OR DUP5 SSTORE PUSH1 0x40 MLOAD SWAP2 SWAP1 SWAP3 AND SWAP3 DUP4 SWAP2 PUSH32 0x8BE0079C531659141344CD1FD0A4F28419497F9722A3DAAFE3B4186F6B6457E0 SWAP2 SWAP1 LOG3 POP POP JUMP JUMPDEST DUP3 DUP1 SLOAD PUSH2 0x527 SWAP1 PUSH2 0x74F JUMP JUMPDEST SWAP1 PUSH1 0x0 MSTORE PUSH1 0x20 PUSH1 0x0 KECCAK256 SWAP1 PUSH1 0x1F ADD PUSH1 0x20 SWAP1 DIV DUP2 ADD SWAP3 DUP3 PUSH2 0x549 JUMPI PUSH1 0x0 DUP6 SSTORE PUSH2 0x58F JUMP JUMPDEST DUP3 PUSH1 0x1F LT PUSH2 0x562 JUMPI DUP1 MLOAD PUSH1 0xFF NOT AND DUP4 DUP1 ADD OR DUP6 SSTORE PUSH2 0x58F JUMP JUMPDEST DUP3 DUP1 ADD PUSH1 0x1 ADD DUP6 SSTORE DUP3 ISZERO PUSH2 0x58F JUMPI SWAP2 DUP3 ADD JUMPDEST DUP3 DUP2 GT ISZERO PUSH2 0x58F JUMPI DUP3 MLOAD DUP3 SSTORE SWAP2 PUSH1 0x20 ADD SWAP2 SWAP1 PUSH1 0x1 ADD SWAP1 PUSH2 0x574 JUMP JUMPDEST POP PUSH2 0x59B SWAP3 SWAP2 POP PUSH2 0x59F JUMP JUMPDEST POP SWAP1 JUMP JUMPDEST JUMPDEST DUP1 DUP3 GT ISZERO PUSH2 0x59B JUMPI PUSH1 0x0 DUP2 SSTORE PUSH1 0x1 ADD PUSH2 0x5A0 JUMP JUMPDEST PUSH1 0x0 PUSH1 0x20 DUP3 DUP5 SUB SLT ISZERO PUSH2 0x5C5 JUMPI DUP1 DUP2 REVERT JUMPDEST DUP2 CALLDATALOAD PUSH1 0x1 PUSH1 0x1 PUSH1 0xA0 SHL SUB DUP2 AND DUP2 EQ PUSH2 0x5DB JUMPI DUP2 DUP3 REVERT JUMPDEST SWAP4 SWAP3 POP POP POP JUMP JUMPDEST PUSH1 0x0 PUSH1 0x20 DUP3 DUP5 SUB SLT ISZERO PUSH2 0x5F3 JUMPI DUP1 DUP2 REVERT JUMPDEST DUP2 CALLDATALOAD PUSH1 0x1 PUSH1 0x1 PUSH1 0x40 SHL SUB DUP1 DUP3 GT ISZERO PUSH2 0x609 JUMPI DUP3 DUP4 REVERT JUMPDEST DUP2 DUP5 ADD SWAP2 POP DUP5 PUSH1 0x1F DUP4 ADD SLT PUSH2 0x61C JUMPI DUP3 DUP4 REVERT JUMPDEST DUP2 CALLDATALOAD DUP2 DUP2 GT ISZERO PUSH2 0x62E JUMPI PUSH2 0x62E PUSH2 0x78A JUMP JUMPDEST PUSH1 0x40 MLOAD PUSH1 0x1F DUP3 ADD PUSH1 0x1F NOT SWAP1 DUP2 AND PUSH1 0x3F ADD AND DUP2 ADD SWAP1 DUP4 DUP3 GT DUP2 DUP4 LT OR ISZERO PUSH2 0x656 JUMPI PUSH2 0x656 PUSH2 0x78A JUMP JUMPDEST DUP2 PUSH1 0x40 MSTORE DUP3 DUP2 MSTORE DUP8 PUSH1 0x20 DUP5 DUP8 ADD ADD GT ISZERO PUSH2 0x66E JUMPI DUP6 DUP7 REVERT JUMPDEST DUP3 PUSH1 0x20 DUP7 ADD PUSH1 0x20 DUP4 ADD CALLDATACOPY SWAP2 DUP3 ADD PUSH1 0x20 ADD SWAP5 SWAP1 SWAP5 MSTORE SWAP6 SWAP5 POP POP POP POP POP JUMP JUMPDEST PUSH1 0x0 PUSH1 0x20 DUP3 DUP5 SUB SLT ISZERO PUSH2 0x69C JUMPI DUP1 DUP2 REVERT JUMPDEST POP CALLDATALOAD SWAP2 SWAP1 POP JUMP JUMPDEST PUSH1 0x0 PUSH1 0x20 DUP1 DUP4 MSTORE DUP4 MLOAD DUP1 DUP3 DUP6 ADD MSTORE DUP3 JUMPDEST DUP2 DUP2 LT ISZERO PUSH2 0x6CF JUMPI DUP6 DUP2 ADD DUP4 ADD MLOAD DUP6 DUP3 ADD PUSH1 0x40 ADD MSTORE DUP3 ADD PUSH2 0x6B3 JUMP JUMPDEST DUP2 DUP2 GT ISZERO PUSH2 0x6E0 JUMPI DUP4 PUSH1 0x40 DUP4 DUP8 ADD ADD MSTORE JUMPDEST POP PUSH1 0x1F ADD PUSH1 0x1F NOT AND SWAP3 SWAP1 SWAP3 ADD PUSH1 0x40 ADD SWAP4 SWAP3 POP POP POP JUMP JUMPDEST PUSH1 0x20 DUP1 DUP3 MSTORE DUP2 DUP2 ADD MSTORE PUSH32 0x4F776E61626C653A2063616C6C6572206973206E6F7420746865206F776E6572 PUSH1 0x40 DUP3 ADD MSTORE PUSH1 0x60 ADD SWAP1 JUMP JUMPDEST PUSH1 0x0 DUP3 NOT DUP3 GT ISZERO PUSH2 0x74A JUMPI PUSH4 0x4E487B71 PUSH1 0xE0 SHL DUP2 MSTORE PUSH1 0x11 PUSH1 0x4 MSTORE PUSH1 0x24 DUP2 REVERT JUMPDEST POP ADD SWAP1 JUMP JUMPDEST PUSH1 0x1 DUP2 DUP2 SHR SWAP1 DUP3 AND DUP1 PUSH2 0x763 JUMPI PUSH1 0x7F DUP3 AND SWAP2 POP JUMPDEST PUSH1 0x20 DUP3 LT DUP2 EQ ISZERO PUSH2 0x784 JUMPI PUSH4 0x4E487B71 PUSH1 0xE0 SHL PUSH1 0x0 MSTORE PUSH1 0x22 PUSH1 0x4 MSTORE PUSH1 0x24 PUSH1 0x0 REVERT JUMPDEST POP SWAP2 SWAP1 POP JUMP JUMPDEST PUSH4 0x4E487B71 PUSH1 0xE0 SHL PUSH1 0x0 MSTORE PUSH1 0x41 PUSH1 0x4 MSTORE PUSH1 0x24 PUSH1 0x0 REVERT INVALID LOG2 PUSH5 0x6970667358 0x22 SLT KECCAK256 0xE2 RETURNDATACOPY 0xC1 CALLDATACOPY 0xB9 0xED STOP PUSH24 0xB76874B45F35922DE7F1BD7D2507F9EF4C9F5C8A494484CD PUSH5 0x736F6C6343 STOP ADDMOD DIV STOP CALLER ","sha1":"9e91add1c37fde58c1192982db9794f9b406c4f0","source":"pragma solidity ^0.8.0;\n\n// SPDX-License-Identifier: BUSL-1.1\n\nimport \"./Interfaces/PriceProviderInterface.sol\";\nimport \"@openzeppelin/contracts/access/Ownable.sol\";\n\ncontract CustomPriceProvider is Ownable, ICustomPriceProvider {\n    mapping(uint256 => RoundData) public roundData;\n    uint256 public latestRoundId;\n    uint256 public latestTimestamp;\n\n    string public symbol;\n\n    // Should return USD price\n    function getUsdPrice() external view returns (uint256 latestPrice) {\n        (, latestPrice, , , ) = latestRoundData();\n    }\n\n    // Should return timestamp of corresponding round\n    function getRoundData(uint256 _roundID)\n        external\n        view\n        returns (\n            uint256,\n            uint256,\n            uint256,\n            uint256,\n            uint256\n        )\n    {\n        RoundData storage _roundData = roundData[_roundID];\n\n        return (\n            _roundData.roundId,\n            _roundData.price,\n            _roundData.startedAt,\n            _roundData.updatedAt,\n            _roundData.answeredInRound\n        );\n    }\n\n    function latestRoundData()\n        public\n        view\n        returns (\n            uint256,\n            uint256,\n            uint256,\n            uint256,\n            uint256\n        )\n    {\n        RoundData storage _roundData = roundData[latestRoundId];\n\n        return (\n            _roundData.roundId,\n            _roundData.price,\n            _roundData.startedAt,\n            _roundData.updatedAt,\n            _roundData.answeredInRound\n        );\n    }\n\n    function decimals() external view returns (uint8) {\n        return 8;\n    }\n\n    function setSymbol(string memory _symbol) external onlyOwner {\n        symbol = _symbol;\n    }\n\n    function update(uint256 price)\n        external\n        onlyOwner\n        returns (uint256 roundId)\n    {\n        roundId = latestRoundId + 1;\n        latestTimestamp = block.timestamp;\n\n        RoundData memory _roundData = RoundData(\n            roundId,\n            price,\n            latestTimestamp,\n            latestTimestamp,\n            roundId\n        );\n        roundData[roundId] = _roundData;\n        latestRoundId = roundId;\n    }\n}\n","sourcePath":"contracts/CustomPriceProvider.sol","type":"contract","deployment":{"address":"0xFcC14e7A728845E13a48461558630e89EA5030E3","chainid":"80001","blockHeight":27542318}}