{
  "abi": [
    {
      "inputs": [
        {
          "internalType": "contract ERC20",
          "name": "_tokenX",
          "type": "address"
        },
        {
          "internalType": "address",
          "name": "_tvlOracle",
          "type": "address"
        },
        {
          "internalType": "contract ISlidingWindowOracle",
          "name": "_KPIOracle",
          "type": "address"
        },
        {
          "internalType": "contract IPriceProvider",
          "name": "pp",
          "type": "address"
        },
        {
          "internalType": "contract BufferIBFRPoolV2",
          "name": "_pool",
          "type": "address"
        },
        {
          "internalType": "contract OptionConfig",
          "name": "_config",
          "type": "address"
        }
      ],
      "stateMutability": "nonpayable",
      "type": "constructor"
    },
    {
      "anonymous": false,
      "inputs": [
        {
          "indexed": true,
          "internalType": "address",
          "name": "owner",
          "type": "address"
        },
        {
          "indexed": true,
          "internalType": "address",
          "name": "approved",
          "type": "address"
        },
        {
          "indexed": true,
          "internalType": "uint256",
          "name": "tokenId",
          "type": "uint256"
        }
      ],
      "name": "Approval",
      "type": "event"
    },
    {
      "anonymous": false,
      "inputs": [
        {
          "indexed": true,
          "internalType": "address",
          "name": "owner",
          "type": "address"
        },
        {
          "indexed": true,
          "internalType": "address",
          "name": "operator",
          "type": "address"
        },
        {
          "indexed": false,
          "internalType": "bool",
          "name": "approved",
          "type": "bool"
        }
      ],
      "name": "ApprovalForAll",
      "type": "event"
    },
    {
      "anonymous": false,
      "inputs": [
        {
          "indexed": true,
          "internalType": "address",
          "name": "approval",
          "type": "address"
        },
        {
          "indexed": true,
          "internalType": "uint256",
          "name": "tokenId",
          "type": "uint256"
        },
        {
          "indexed": false,
          "internalType": "uint256",
          "name": "allowance",
          "type": "uint256"
        }
      ],
      "name": "ApprovalUnits",
      "type": "event"
    },
    {
      "anonymous": false,
      "inputs": [
        {
          "indexed": true,
          "internalType": "address",
          "name": "account",
          "type": "address"
        },
        {
          "indexed": false,
          "internalType": "bool",
          "name": "status",
          "type": "bool"
        }
      ],
      "name": "AutoExerciseStatusChange",
      "type": "event"
    },
    {
      "anonymous": false,
      "inputs": [
        {
          "indexed": true,
          "internalType": "uint256",
          "name": "id",
          "type": "uint256"
        },
        {
          "indexed": true,
          "internalType": "address",
          "name": "account",
          "type": "address"
        },
        {
          "indexed": false,
          "internalType": "uint256",
          "name": "settlementFee",
          "type": "uint256"
        },
        {
          "indexed": false,
          "internalType": "uint256",
          "name": "totalFee",
          "type": "uint256"
        },
        {
          "indexed": false,
          "internalType": "string",
          "name": "metadata",
          "type": "string"
        }
      ],
      "name": "Create",
      "type": "event"
    },
    {
      "anonymous": false,
      "inputs": [
        {
          "indexed": true,
          "internalType": "uint256",
          "name": "id",
          "type": "uint256"
        },
        {
          "indexed": false,
          "internalType": "uint256",
          "name": "profit",
          "type": "uint256"
        }
      ],
      "name": "Exercise",
      "type": "event"
    },
    {
      "anonymous": false,
      "inputs": [
        {
          "indexed": true,
          "internalType": "uint256",
          "name": "id",
          "type": "uint256"
        },
        {
          "indexed": false,
          "internalType": "uint256",
          "name": "premium",
          "type": "uint256"
        }
      ],
      "name": "Expire",
      "type": "event"
    },
    {
      "anonymous": false,
      "inputs": [
        {
          "indexed": true,
          "internalType": "address",
          "name": "owner",
          "type": "address"
        },
        {
          "indexed": true,
          "internalType": "uint256",
          "name": "tokenId",
          "type": "uint256"
        },
        {
          "indexed": true,
          "internalType": "uint256",
          "name": "targetTokenId",
          "type": "uint256"
        },
        {
          "indexed": false,
          "internalType": "uint256",
          "name": "mergeUnits",
          "type": "uint256"
        }
      ],
      "name": "Merge",
      "type": "event"
    },
    {
      "anonymous": false,
      "inputs": [
        {
          "indexed": true,
          "internalType": "address",
          "name": "previousOwner",
          "type": "address"
        },
        {
          "indexed": true,
          "internalType": "address",
          "name": "newOwner",
          "type": "address"
        }
      ],
      "name": "OwnershipTransferred",
      "type": "event"
    },
    {
      "anonymous": false,
      "inputs": [
        {
          "indexed": true,
          "internalType": "address",
          "name": "owner",
          "type": "address"
        },
        {
          "indexed": false,
          "internalType": "uint256",
          "name": "amount",
          "type": "uint256"
        }
      ],
      "name": "PayAdminFee",
      "type": "event"
    },
    {
      "anonymous": false,
      "inputs": [
        {
          "indexed": true,
          "internalType": "address",
          "name": "referrer",
          "type": "address"
        },
        {
          "indexed": false,
          "internalType": "uint256",
          "name": "amount",
          "type": "uint256"
        }
      ],
      "name": "PayReferralFee",
      "type": "event"
    },
    {
      "anonymous": false,
      "inputs": [
        {
          "indexed": true,
          "internalType": "bytes32",
          "name": "role",
          "type": "bytes32"
        },
        {
          "indexed": true,
          "internalType": "bytes32",
          "name": "previousAdminRole",
          "type": "bytes32"
        },
        {
          "indexed": true,
          "internalType": "bytes32",
          "name": "newAdminRole",
          "type": "bytes32"
        }
      ],
      "name": "RoleAdminChanged",
      "type": "event"
    },
    {
      "anonymous": false,
      "inputs": [
        {
          "indexed": true,
          "internalType": "bytes32",
          "name": "role",
          "type": "bytes32"
        },
        {
          "indexed": true,
          "internalType": "address",
          "name": "account",
          "type": "address"
        },
        {
          "indexed": true,
          "internalType": "address",
          "name": "sender",
          "type": "address"
        }
      ],
      "name": "RoleGranted",
      "type": "event"
    },
    {
      "anonymous": false,
      "inputs": [
        {
          "indexed": true,
          "internalType": "bytes32",
          "name": "role",
          "type": "bytes32"
        },
        {
          "indexed": true,
          "internalType": "address",
          "name": "account",
          "type": "address"
        },
        {
          "indexed": true,
          "internalType": "address",
          "name": "sender",
          "type": "address"
        }
      ],
      "name": "RoleRevoked",
      "type": "event"
    },
    {
      "anonymous": false,
      "inputs": [
        {
          "indexed": true,
          "internalType": "address",
          "name": "owner",
          "type": "address"
        },
        {
          "indexed": true,
          "internalType": "uint256",
          "name": "tokenId",
          "type": "uint256"
        },
        {
          "indexed": false,
          "internalType": "uint256",
          "name": "newTokenId",
          "type": "uint256"
        },
        {
          "indexed": false,
          "internalType": "uint256",
          "name": "splitUnits",
          "type": "uint256"
        }
      ],
      "name": "Split",
      "type": "event"
    },
    {
      "anonymous": false,
      "inputs": [
        {
          "indexed": true,
          "internalType": "address",
          "name": "from",
          "type": "address"
        },
        {
          "indexed": true,
          "internalType": "address",
          "name": "to",
          "type": "address"
        },
        {
          "indexed": true,
          "internalType": "uint256",
          "name": "tokenId",
          "type": "uint256"
        }
      ],
      "name": "Transfer",
      "type": "event"
    },
    {
      "anonymous": false,
      "inputs": [
        {
          "indexed": true,
          "internalType": "address",
          "name": "from",
          "type": "address"
        },
        {
          "indexed": true,
          "internalType": "address",
          "name": "to",
          "type": "address"
        },
        {
          "indexed": true,
          "internalType": "uint256",
          "name": "tokenId",
          "type": "uint256"
        },
        {
          "indexed": false,
          "internalType": "uint256",
          "name": "targetTokenId",
          "type": "uint256"
        },
        {
          "indexed": false,
          "internalType": "uint256",
          "name": "transferUnits",
          "type": "uint256"
        }
      ],
      "name": "TransferUnits",
      "type": "event"
    },
    {
      "anonymous": false,
      "inputs": [
        {
          "indexed": false,
          "internalType": "uint256",
          "name": "startHour",
          "type": "uint256"
        },
        {
          "indexed": false,
          "internalType": "uint256",
          "name": "startMinute",
          "type": "uint256"
        },
        {
          "indexed": false,
          "internalType": "uint256",
          "name": "endHour",
          "type": "uint256"
        },
        {
          "indexed": false,
          "internalType": "uint256",
          "name": "endMinute",
          "type": "uint256"
        }
      ],
      "name": "UpdateOptionCreationWindow",
      "type": "event"
    },
    {
      "inputs": [],
      "name": "AUTO_CLOSER_ROLE",
      "outputs": [
        {
          "internalType": "bytes32",
          "name": "",
          "type": "bytes32"
        }
      ],
      "stateMutability": "view",
      "type": "function"
    },
    {
      "inputs": [],
      "name": "DEFAULT_ADMIN_ROLE",
      "outputs": [
        {
          "internalType": "bytes32",
          "name": "",
          "type": "bytes32"
        }
      ],
      "stateMutability": "view",
      "type": "function"
    },
    {
      "inputs": [],
      "name": "KPIOracle",
      "outputs": [
        {
          "internalType": "contract ISlidingWindowOracle",
          "name": "",
          "type": "address"
        }
      ],
      "stateMutability": "view",
      "type": "function"
    },
    {
      "inputs": [
        {
          "internalType": "uint256",
          "name": "",
          "type": "uint256"
        }
      ],
      "name": "_units",
      "outputs": [
        {
          "internalType": "uint256",
          "name": "",
          "type": "uint256"
        }
      ],
      "stateMutability": "view",
      "type": "function"
    },
    {
      "inputs": [
        {
          "internalType": "uint256",
          "name": "optionId_",
          "type": "uint256"
        },
        {
          "internalType": "address",
          "name": "spender_",
          "type": "address"
        }
      ],
      "name": "allowance",
      "outputs": [
        {
          "internalType": "uint256",
          "name": "",
          "type": "uint256"
        }
      ],
      "stateMutability": "view",
      "type": "function"
    },
    {
      "inputs": [
        {
          "internalType": "address",
          "name": "to",
          "type": "address"
        },
        {
          "internalType": "uint256",
          "name": "tokenId",
          "type": "uint256"
        }
      ],
      "name": "approve",
      "outputs": [],
      "stateMutability": "nonpayable",
      "type": "function"
    },
    {
      "inputs": [
        {
          "internalType": "address",
          "name": "to_",
          "type": "address"
        },
        {
          "internalType": "uint256",
          "name": "optionId_",
          "type": "uint256"
        },
        {
          "internalType": "uint256",
          "name": "allowance_",
          "type": "uint256"
        }
      ],
      "name": "approve",
      "outputs": [],
      "stateMutability": "nonpayable",
      "type": "function"
    },
    {
      "inputs": [],
      "name": "approvePoolToTransferTokenX",
      "outputs": [],
      "stateMutability": "nonpayable",
      "type": "function"
    },
    {
      "inputs": [
        {
          "internalType": "address",
          "name": "owner",
          "type": "address"
        }
      ],
      "name": "balanceOf",
      "outputs": [
        {
          "internalType": "uint256",
          "name": "",
          "type": "uint256"
        }
      ],
      "stateMutability": "view",
      "type": "function"
    },
    {
      "inputs": [
        {
          "internalType": "uint256",
          "name": "",
          "type": "uint256"
        }
      ],
      "name": "binaryOptionType",
      "outputs": [
        {
          "internalType": "bool",
          "name": "isYes",
          "type": "bool"
        },
        {
          "internalType": "bool",
          "name": "isAbove",
          "type": "bool"
        }
      ],
      "stateMutability": "view",
      "type": "function"
    },
    {
      "inputs": [
        {
          "internalType": "uint256",
          "name": "tokenId_",
          "type": "uint256"
        }
      ],
      "name": "burn",
      "outputs": [],
      "stateMutability": "nonpayable",
      "type": "function"
    },
    {
      "inputs": [],
      "name": "config",
      "outputs": [
        {
          "internalType": "contract OptionConfig",
          "name": "",
          "type": "address"
        }
      ],
      "stateMutability": "view",
      "type": "function"
    },
    {
      "inputs": [
        {
          "internalType": "uint256",
          "name": "amount",
          "type": "uint256"
        },
        {
          "internalType": "bool",
          "name": "isYes",
          "type": "bool"
        },
        {
          "internalType": "bool",
          "name": "isAbove",
          "type": "bool"
        },
        {
          "internalType": "address",
          "name": "referrer",
          "type": "address"
        },
        {
          "internalType": "string",
          "name": "metadata",
          "type": "string"
        }
      ],
      "name": "create",
      "outputs": [
        {
          "internalType": "uint256",
          "name": "optionID",
          "type": "uint256"
        }
      ],
      "stateMutability": "nonpayable",
      "type": "function"
    },
    {
      "inputs": [
        {
          "internalType": "uint256",
          "name": "optionID",
          "type": "uint256"
        }
      ],
      "name": "exercise",
      "outputs": [
        {
          "internalType": "uint256",
          "name": "profit",
          "type": "uint256"
        }
      ],
      "stateMutability": "nonpayable",
      "type": "function"
    },
    {
      "inputs": [
        {
          "internalType": "uint256",
          "name": "optionID",
          "type": "uint256"
        }
      ],
      "name": "exists",
      "outputs": [
        {
          "internalType": "bool",
          "name": "",
          "type": "bool"
        }
      ],
      "stateMutability": "view",
      "type": "function"
    },
    {
      "inputs": [
        {
          "internalType": "uint256",
          "name": "",
          "type": "uint256"
        }
      ],
      "name": "expiryToRoundID",
      "outputs": [
        {
          "internalType": "uint256",
          "name": "",
          "type": "uint256"
        }
      ],
      "stateMutability": "view",
      "type": "function"
    },
    {
      "inputs": [
        {
          "internalType": "uint256",
          "name": "period",
          "type": "uint256"
        },
        {
          "internalType": "uint256",
          "name": "amount",
          "type": "uint256"
        },
        {
          "internalType": "uint256",
          "name": "strike",
          "type": "uint256"
        },
        {
          "internalType": "bool",
          "name": "isYes",
          "type": "bool"
        },
        {
          "internalType": "bool",
          "name": "isAbove",
          "type": "bool"
        }
      ],
      "name": "fees",
      "outputs": [
        {
          "internalType": "uint256",
          "name": "total",
          "type": "uint256"
        },
        {
          "internalType": "uint256",
          "name": "settlementFee",
          "type": "uint256"
        },
        {
          "internalType": "uint256",
          "name": "premium",
          "type": "uint256"
        }
      ],
      "stateMutability": "view",
      "type": "function"
    },
    {
      "inputs": [
        {
          "internalType": "uint256",
          "name": "tokenId",
          "type": "uint256"
        }
      ],
      "name": "getApproved",
      "outputs": [
        {
          "internalType": "address",
          "name": "",
          "type": "address"
        }
      ],
      "stateMutability": "view",
      "type": "function"
    },
    {
      "inputs": [
        {
          "internalType": "bytes32",
          "name": "role",
          "type": "bytes32"
        }
      ],
      "name": "getRoleAdmin",
      "outputs": [
        {
          "internalType": "bytes32",
          "name": "",
          "type": "bytes32"
        }
      ],
      "stateMutability": "view",
      "type": "function"
    },
    {
      "inputs": [
        {
          "internalType": "bytes32",
          "name": "role",
          "type": "bytes32"
        },
        {
          "internalType": "address",
          "name": "account",
          "type": "address"
        }
      ],
      "name": "grantRole",
      "outputs": [],
      "stateMutability": "nonpayable",
      "type": "function"
    },
    {
      "inputs": [
        {
          "internalType": "bytes32",
          "name": "role",
          "type": "bytes32"
        },
        {
          "internalType": "address",
          "name": "account",
          "type": "address"
        }
      ],
      "name": "hasRole",
      "outputs": [
        {
          "internalType": "bool",
          "name": "",
          "type": "bool"
        }
      ],
      "stateMutability": "view",
      "type": "function"
    },
    {
      "inputs": [
        {
          "internalType": "address",
          "name": "owner",
          "type": "address"
        },
        {
          "internalType": "address",
          "name": "operator",
          "type": "address"
        }
      ],
      "name": "isApprovedForAll",
      "outputs": [
        {
          "internalType": "bool",
          "name": "",
          "type": "bool"
        }
      ],
      "stateMutability": "view",
      "type": "function"
    },
    {
      "inputs": [],
      "name": "maxUnits",
      "outputs": [
        {
          "internalType": "uint256",
          "name": "",
          "type": "uint256"
        }
      ],
      "stateMutability": "view",
      "type": "function"
    },
    {
      "inputs": [
        {
          "internalType": "uint256[]",
          "name": "optionIDs",
          "type": "uint256[]"
        },
        {
          "internalType": "uint256",
          "name": "targetOptionID",
          "type": "uint256"
        }
      ],
      "name": "merge",
      "outputs": [],
      "stateMutability": "nonpayable",
      "type": "function"
    },
    {
      "inputs": [],
      "name": "minimumYield",
      "outputs": [
        {
          "internalType": "uint256",
          "name": "",
          "type": "uint256"
        }
      ],
      "stateMutability": "view",
      "type": "function"
    },
    {
      "inputs": [],
      "name": "name",
      "outputs": [
        {
          "internalType": "string",
          "name": "",
          "type": "string"
        }
      ],
      "stateMutability": "view",
      "type": "function"
    },
    {
      "inputs": [],
      "name": "nextTokenId",
      "outputs": [
        {
          "internalType": "uint256",
          "name": "",
          "type": "uint256"
        }
      ],
      "stateMutability": "view",
      "type": "function"
    },
    {
      "inputs": [
        {
          "internalType": "uint256",
          "name": "",
          "type": "uint256"
        }
      ],
      "name": "optionSlotMapping",
      "outputs": [
        {
          "internalType": "uint256",
          "name": "",
          "type": "uint256"
        }
      ],
      "stateMutability": "view",
      "type": "function"
    },
    {
      "inputs": [
        {
          "internalType": "uint256",
          "name": "",
          "type": "uint256"
        }
      ],
      "name": "options",
      "outputs": [
        {
          "internalType": "enum IBufferOptions.State",
          "name": "state",
          "type": "uint8"
        },
        {
          "internalType": "uint256",
          "name": "strike",
          "type": "uint256"
        },
        {
          "internalType": "uint256",
          "name": "amount",
          "type": "uint256"
        },
        {
          "internalType": "uint256",
          "name": "lockedAmount",
          "type": "uint256"
        },
        {
          "internalType": "uint256",
          "name": "premium",
          "type": "uint256"
        },
        {
          "internalType": "uint256",
          "name": "expiration",
          "type": "uint256"
        },
        {
          "internalType": "enum IBufferOptions.OptionType",
          "name": "optionType",
          "type": "uint8"
        }
      ],
      "stateMutability": "view",
      "type": "function"
    },
    {
      "inputs": [],
      "name": "owner",
      "outputs": [
        {
          "internalType": "address",
          "name": "",
          "type": "address"
        }
      ],
      "stateMutability": "view",
      "type": "function"
    },
    {
      "inputs": [
        {
          "internalType": "uint256",
          "name": "tokenId",
          "type": "uint256"
        }
      ],
      "name": "ownerOf",
      "outputs": [
        {
          "internalType": "address",
          "name": "",
          "type": "address"
        }
      ],
      "stateMutability": "view",
      "type": "function"
    },
    {
      "inputs": [],
      "name": "pool",
      "outputs": [
        {
          "internalType": "contract BufferIBFRPoolV2",
          "name": "",
          "type": "address"
        }
      ],
      "stateMutability": "view",
      "type": "function"
    },
    {
      "inputs": [],
      "name": "priceProvider",
      "outputs": [
        {
          "internalType": "contract IPriceProvider",
          "name": "",
          "type": "address"
        }
      ],
      "stateMutability": "view",
      "type": "function"
    },
    {
      "inputs": [],
      "name": "renounceOwnership",
      "outputs": [],
      "stateMutability": "nonpayable",
      "type": "function"
    },
    {
      "inputs": [
        {
          "internalType": "bytes32",
          "name": "role",
          "type": "bytes32"
        },
        {
          "internalType": "address",
          "name": "account",
          "type": "address"
        }
      ],
      "name": "renounceRole",
      "outputs": [],
      "stateMutability": "nonpayable",
      "type": "function"
    },
    {
      "inputs": [
        {
          "internalType": "bytes32",
          "name": "role",
          "type": "bytes32"
        },
        {
          "internalType": "address",
          "name": "account",
          "type": "address"
        }
      ],
      "name": "revokeRole",
      "outputs": [],
      "stateMutability": "nonpayable",
      "type": "function"
    },
    {
      "inputs": [
        {
          "internalType": "address",
          "name": "from",
          "type": "address"
        },
        {
          "internalType": "address",
          "name": "to",
          "type": "address"
        },
        {
          "internalType": "uint256",
          "name": "tokenId",
          "type": "uint256"
        }
      ],
      "name": "safeTransferFrom",
      "outputs": [],
      "stateMutability": "nonpayable",
      "type": "function"
    },
    {
      "inputs": [
        {
          "internalType": "address",
          "name": "from",
          "type": "address"
        },
        {
          "internalType": "address",
          "name": "to",
          "type": "address"
        },
        {
          "internalType": "uint256",
          "name": "tokenId",
          "type": "uint256"
        },
        {
          "internalType": "bytes",
          "name": "_data",
          "type": "bytes"
        }
      ],
      "name": "safeTransferFrom",
      "outputs": [],
      "stateMutability": "nonpayable",
      "type": "function"
    },
    {
      "inputs": [
        {
          "internalType": "address",
          "name": "operator",
          "type": "address"
        },
        {
          "internalType": "bool",
          "name": "approved",
          "type": "bool"
        }
      ],
      "name": "setApprovalForAll",
      "outputs": [],
      "stateMutability": "nonpayable",
      "type": "function"
    },
    {
      "inputs": [
        {
          "internalType": "uint256",
          "name": "roundId",
          "type": "uint256"
        }
      ],
      "name": "setRoundIDForExpiry",
      "outputs": [
        {
          "internalType": "bool",
          "name": "isCorrectRoundId",
          "type": "bool"
        }
      ],
      "stateMutability": "nonpayable",
      "type": "function"
    },
    {
      "inputs": [
        {
          "internalType": "uint256",
          "name": "",
          "type": "uint256"
        }
      ],
      "name": "slotDetails",
      "outputs": [
        {
          "internalType": "uint256",
          "name": "strike",
          "type": "uint256"
        },
        {
          "internalType": "uint256",
          "name": "expiration",
          "type": "uint256"
        },
        {
          "internalType": "enum IBufferOptions.OptionType",
          "name": "optionType",
          "type": "uint8"
        },
        {
          "internalType": "bool",
          "name": "isValid",
          "type": "bool"
        }
      ],
      "stateMutability": "view",
      "type": "function"
    },
    {
      "inputs": [
        {
          "internalType": "uint256",
          "name": "optionId_",
          "type": "uint256"
        }
      ],
      "name": "slotOf",
      "outputs": [
        {
          "internalType": "uint256",
          "name": "",
          "type": "uint256"
        }
      ],
      "stateMutability": "view",
      "type": "function"
    },
    {
      "inputs": [
        {
          "internalType": "uint256",
          "name": "optionID",
          "type": "uint256"
        },
        {
          "internalType": "uint256[]",
          "name": "splitUnits_",
          "type": "uint256[]"
        }
      ],
      "name": "split",
      "outputs": [
        {
          "internalType": "uint256[]",
          "name": "newOptionIDs",
          "type": "uint256[]"
        }
      ],
      "stateMutability": "nonpayable",
      "type": "function"
    },
    {
      "inputs": [
        {
          "internalType": "bytes4",
          "name": "interfaceId",
          "type": "bytes4"
        }
      ],
      "name": "supportsInterface",
      "outputs": [
        {
          "internalType": "bool",
          "name": "",
          "type": "bool"
        }
      ],
      "stateMutability": "view",
      "type": "function"
    },
    {
      "inputs": [],
      "name": "symbol",
      "outputs": [
        {
          "internalType": "string",
          "name": "",
          "type": "string"
        }
      ],
      "stateMutability": "view",
      "type": "function"
    },
    {
      "inputs": [
        {
          "internalType": "uint256",
          "name": "slot_",
          "type": "uint256"
        },
        {
          "internalType": "uint256",
          "name": "index_",
          "type": "uint256"
        }
      ],
      "name": "tokenOfSlotByIndex",
      "outputs": [
        {
          "internalType": "uint256",
          "name": "",
          "type": "uint256"
        }
      ],
      "stateMutability": "view",
      "type": "function"
    },
    {
      "inputs": [
        {
          "internalType": "uint256",
          "name": "tokenId",
          "type": "uint256"
        }
      ],
      "name": "tokenURI",
      "outputs": [
        {
          "internalType": "string",
          "name": "",
          "type": "string"
        }
      ],
      "stateMutability": "view",
      "type": "function"
    },
    {
      "inputs": [],
      "name": "tokenX",
      "outputs": [
        {
          "internalType": "contract ERC20",
          "name": "",
          "type": "address"
        }
      ],
      "stateMutability": "view",
      "type": "function"
    },
    {
      "inputs": [
        {
          "internalType": "uint256",
          "name": "slot_",
          "type": "uint256"
        }
      ],
      "name": "tokensInSlot",
      "outputs": [
        {
          "internalType": "uint256",
          "name": "",
          "type": "uint256"
        }
      ],
      "stateMutability": "view",
      "type": "function"
    },
    {
      "inputs": [
        {
          "internalType": "address",
          "name": "from",
          "type": "address"
        },
        {
          "internalType": "address",
          "name": "to",
          "type": "address"
        },
        {
          "internalType": "uint256",
          "name": "tokenId",
          "type": "uint256"
        }
      ],
      "name": "transferFrom",
      "outputs": [],
      "stateMutability": "nonpayable",
      "type": "function"
    },
    {
      "inputs": [
        {
          "internalType": "address",
          "name": "from_",
          "type": "address"
        },
        {
          "internalType": "address",
          "name": "to_",
          "type": "address"
        },
        {
          "internalType": "uint256",
          "name": "optionID",
          "type": "uint256"
        },
        {
          "internalType": "uint256",
          "name": "targetOptionID",
          "type": "uint256"
        },
        {
          "internalType": "uint256",
          "name": "transferUnits_",
          "type": "uint256"
        }
      ],
      "name": "transferFrom",
      "outputs": [],
      "stateMutability": "nonpayable",
      "type": "function"
    },
    {
      "inputs": [
        {
          "internalType": "address",
          "name": "from_",
          "type": "address"
        },
        {
          "internalType": "address",
          "name": "to_",
          "type": "address"
        },
        {
          "internalType": "uint256",
          "name": "optionID",
          "type": "uint256"
        },
        {
          "internalType": "uint256",
          "name": "transferUnits_",
          "type": "uint256"
        }
      ],
      "name": "transferFrom",
      "outputs": [
        {
          "internalType": "uint256",
          "name": "newOptionID",
          "type": "uint256"
        }
      ],
      "stateMutability": "nonpayable",
      "type": "function"
    },
    {
      "inputs": [
        {
          "internalType": "address",
          "name": "newOwner",
          "type": "address"
        }
      ],
      "name": "transferOwnership",
      "outputs": [],
      "stateMutability": "nonpayable",
      "type": "function"
    },
    {
      "inputs": [],
      "name": "tvlOracle",
      "outputs": [
        {
          "internalType": "address",
          "name": "",
          "type": "address"
        }
      ],
      "stateMutability": "view",
      "type": "function"
    },
    {
      "inputs": [],
      "name": "unitDecimals",
      "outputs": [
        {
          "internalType": "uint8",
          "name": "",
          "type": "uint8"
        }
      ],
      "stateMutability": "view",
      "type": "function"
    },
    {
      "inputs": [
        {
          "internalType": "uint256",
          "name": "slot_",
          "type": "uint256"
        }
      ],
      "name": "unitsInSlot",
      "outputs": [
        {
          "internalType": "uint256",
          "name": "units_",
          "type": "uint256"
        }
      ],
      "stateMutability": "view",
      "type": "function"
    },
    {
      "inputs": [
        {
          "internalType": "uint256",
          "name": "optionId_",
          "type": "uint256"
        }
      ],
      "name": "unitsInToken",
      "outputs": [
        {
          "internalType": "uint256",
          "name": "",
          "type": "uint256"
        }
      ],
      "stateMutability": "view",
      "type": "function"
    },
    {
      "inputs": [
        {
          "internalType": "uint256",
          "name": "optionID",
          "type": "uint256"
        }
      ],
      "name": "unlock",
      "outputs": [],
      "stateMutability": "nonpayable",
      "type": "function"
    },
    {
      "inputs": [
        {
          "internalType": "uint256[]",
          "name": "optionIDs",
          "type": "uint256[]"
        }
      ],
      "name": "unlockAll",
      "outputs": [],
      "stateMutability": "nonpayable",
      "type": "function"
    }
  ],
  "bytecode": "6080604052620f4240600d55600e805460ff1916601217905560006015553480156200002a57600080fd5b5060405162005a1838038062005a188339810160408190526200004d916200030a565b6040805180820182526006815265213ab33332b960d11b60208083019182528351808501909452600384526221232960e91b908401528151919291620000969160009162000264565b508051620000ac90600190602084019062000264565b505050620000c9620000c36200015a60201b60201c565b6200015e565b6001600755620000db600033620001b0565b601080546001600160a01b03199081166001600160a01b038981169190911790925560118054821687841617905560128054821688841617905560198054821685841617905542601c55601a80548216848416179055601480549091169185169190911790556200014e600033620001b0565b505050505050620003f3565b3390565b600680546001600160a01b038381166001600160a01b0319831681179093556040519116919082907f8be0079c531659141344cd1fd0a4f28419497f9722a3daafe3b4186f6b6457e090600090a35050565b620001bc8282620001c0565b5050565b60008281526008602090815260408083206001600160a01b038516845290915290205460ff16620001bc5760008281526008602090815260408083206001600160a01b03851684529091529020805460ff19166001179055620002203390565b6001600160a01b0316816001600160a01b0316837f2f8788117e7eff1d82e926ec794901d17c78024a50270940304540a733656f0d60405160405180910390a45050565b82805462000272906200039d565b90600052602060002090601f016020900481019282620002965760008555620002e1565b82601f10620002b157805160ff1916838001178555620002e1565b82800160010185558215620002e1579182015b82811115620002e1578251825591602001919060010190620002c4565b50620002ef929150620002f3565b5090565b5b80821115620002ef5760008155600101620002f4565b60008060008060008060c0878903121562000323578182fd5b86516200033081620003da565b60208801519096506200034381620003da565b60408801519095506200035681620003da565b60608801519094506200036981620003da565b60808801519093506200037c81620003da565b60a08801519092506200038f81620003da565b809150509295509295509295565b600181811c90821680620003b257607f821691505b60208210811415620003d457634e487b7160e01b600052602260045260246000fd5b50919050565b6001600160a01b0381168114620003f057600080fd5b50565b61561580620004036000396000f3fe608060405234801561001057600080fd5b50600436106102a95760003560e01c806301ffc9a7146102ae57806305271a2a146102d657806306517a29146102eb57806306fdde0314610302578063076d948c14610317578063081812fc1461032a578063095ea7b31461034a5780630c5d12d01461035f578063108348eb1461037257806316dc165b1461038557806316f0115b1461039857806323b872dd146103ab578063248a9ca3146103be578063263f3e7e146103d15780632f2ff15d146103e457806336568abe146103f7578063409e22051461040a578063426a84931461046d57806342842e0e1461048057806342966c68146104935780634aed53c2146104a65780634f558e79146104b95780636198e339146104cc5780636352211e146104df578063645734e6146104f257806367807f7d146104fa578063689ab5ac1461051c57806369c672471461055f57806370a082311461057f578063715018a61461059257806375794a3c1461059a57806378c533ce146105a357806379502c55146105c3578063841edc0e146105d65780638a584118146105f65780638da5cb5b146106415780638dd7d2c11461064957806391d148541461065c57806395d89b411461066f578063a217fddf14610677578063a22cb4651461067f578063a6d14c0214610692578063a88004251461069a578063b07f0a41146106ad578063b888879e146106c0578063b88d4fde146106d3578063bbe33ea5146106e6578063becef607146106f9578063c37e04f61461070c578063c87b56dd1461071f578063d149cc3014610732578063d547741f14610745578063d5a0e67314610758578063dba34e9714610778578063e342b5981461079f578063e345e0bc146107b2578063e985e9c5146107ec578063f2fde38b146107ff578063fe99049a14610812575b600080fd5b6102c16102bc366004614e0a565b610825565b60405190151581526020015b60405180910390f35b600e5460405160ff90911681526020016102cd565b6102f4600d5481565b6040519081526020016102cd565b61030a610836565b6040516102cd91906151e0565b6102f4610325366004614dce565b6108c8565b61033d610338366004614dce565b61090d565b6040516102cd91906150d6565b61035d610358366004614ccb565b61099a565b005b6102f461036d366004614ea3565b610aab565b60125461033d906001600160a01b031681565b60105461033d906001600160a01b031681565b60195461033d906001600160a01b031681565b61035d6103b9366004614b4d565b610fa1565b6102f46103cc366004614dce565b610fd2565b6102f46103df366004614dce565b610fe7565b61035d6103f2366004614de6565b610ff9565b61035d610405366004614de6565b611016565b61045a610418366004614dce565b601660205260009081526040902080546001820154600283015460038401546004850154600586015460069096015460ff958616969495939492939192911687565b6040516102cd9796959493929190615184565b61035d61047b366004614cf6565b611094565b61035d61048e366004614b4d565b6110d8565b61035d6104a1366004614dce565b6110f3565b61035d6104b4366004614c4e565b611138565b6102c16104c7366004614dce565b61125a565b61035d6104da366004614dce565b611265565b61033d6104ed366004614dce565b6114f2565b61035d611569565b61050d610508366004614fa3565b6115f3565b6040516102cd939291906153cd565b61054861052a366004614dce565b60176020526000908152604090205460ff8082169161010090041682565b6040805192151583529015156020830152016102cd565b61057261056d366004614e5a565b61181d565b6040516102cd9190615140565b6102f461058d366004614add565b611c0f565b61035d611c96565b6102f460155481565b6102f46105b1366004614dce565b600f6020526000908152604090205481565b601a5461033d906001600160a01b031681565b6102f46105e4366004614dce565b60186020526000908152604090205481565b610631610604366004614dce565b601b6020526000908152604090208054600182015460029092015490919060ff8082169161010090041684565b6040516102cd9493929190615358565b61033d611cd1565b6102c1610657366004614dce565b611ce0565b6102c161066a366004614de6565b611f75565b61030a611fa0565b6102f4600081565b61035d61068d366004614c9e565b611faf565b6102f4600581565b6102f46106a8366004614dce565b612070565b6102f46106bb366004614dce565b612087565b60145461033d906001600160a01b031681565b61035d6106e1366004614b8d565b61238e565b61035d6106f4366004614d69565b6123c1565b6102f4610707366004614dce565b6125d0565b60115461033d906001600160a01b031681565b61030a61072d366004614dce565b6125e2565b6102f4610740366004614f32565b6125ed565b61035d610753366004614de6565b61260c565b6102f4610766366004614dce565b600a6020526000908152604090205481565b6102f47fdeb3b49547f710c56a925b6e16e3557a50fab4dd8f243bc314f3afba2054ec5b81565b61035d6107ad366004614d2a565b612629565b6102f46107c0366004614de6565b6000828152600b602090815260408083206001600160a01b038516845260010190915290205492915050565b6102c16107fa366004614b15565b612676565b61035d61080d366004614add565b6126a4565b6102f4610820366004614c09565b612741565b600061083082612818565b92915050565b60606000805461084590615488565b80601f016020809104026020016040519081016040528092919081815260200182805461087190615488565b80156108be5780601f10610893576101008083540402835291602001916108be565b820191906000526020600020905b8154815290600101906020018083116108a157829003601f168201915b5050505050905090565b6000805b6108d583612070565b811015610907576108e961070784836125ed565b6108f390836153e3565b9150806108ff816154bd565b9150506108cc565b50919050565b60006109188261283d565b61097e5760405162461bcd60e51b815260206004820152602c60248201527f4552433732313a20617070726f76656420717565727920666f72206e6f6e657860448201526b34b9ba32b73a103a37b5b2b760a11b60648201526084015b60405180910390fd5b506000908152600460205260409020546001600160a01b031690565b60006109a5826114f2565b9050806001600160a01b0316836001600160a01b03161415610a135760405162461bcd60e51b815260206004820152602160248201527f4552433732313a20617070726f76616c20746f2063757272656e74206f776e656044820152603960f91b6064820152608401610975565b336001600160a01b0382161480610a2f5750610a2f8133612676565b610a9c5760405162461bcd60e51b815260206004820152603860248201527f4552433732313a20617070726f76652063616c6c6572206973206e6f74206f776044820152771b995c881b9bdc88185c1c1c9bdd995908199bdc88185b1b60421b6064820152608401610975565b610aa6838361285a565b505050565b600060026007541415610b005760405162461bcd60e51b815260206004820152601f60248201527f5265656e7472616e637947756172643a207265656e7472616e742063616c6c006044820152606401610975565b60026007556019546040805163a834069b60e01b815290516000926001600160a01b03169163a834069b916004808301926020929190829003018186803b158015610b4a57600080fd5b505afa158015610b5e573d6000803e3d6000fd5b505050506040513d601f19601f82011682018060405250810190610b829190614e42565b9050428111610ba35760405162461bcd60e51b815260040161097590615320565b6000610baf428361542e565b905061a8c0811015610bd35760405162461bcd60e51b815260040161097590615320565b6000806000610c6a848c601a60009054906101000a90046001600160a01b03166001600160a01b0316635ee971016040518163ffffffff1660e01b815260040160206040518083038186803b158015610c2b57600080fd5b505afa158015610c3f573d6000803e3d6000fd5b505050506040513d601f19601f82011682018060405250810190610c639190614e42565b8d8d6115f3565b919450925090506005610c7d858d61540f565b610c87919061540f565b610c95846301e1338061540f565b610ca090606461540f565b11610cd25760405162461bcd60e51b8152602060048201526002602482015261279960f11b6044820152606401610975565b6010546040516323b872dd60e01b8152336004820152306024820152604481018590526000916001600160a01b0316906323b872dd90606401602060405180830381600087803b158015610d2557600080fd5b505af1158015610d39573d6000803e3d6000fd5b505050506040513d601f19601f82011682018060405250810190610d5d9190614db2565b905080610d915760405162461bcd60e51b81526020600482015260026024820152614f3360f01b6044820152606401610975565b60018b151581148015610da6575060018b1515145b80610db857508b158015610db857508a155b15610dc1575060025b6040805160e08101825260018152601a548251635ee9710160e01b815292516000936020808501936001600160a01b031692635ee97101926004808201939291829003018186803b158015610e1557600080fd5b505afa158015610e29573d6000803e3d6000fd5b505050506040513d601f19601f82011682018060405250810190610e4d9190614e42565b81526020018f81526020018f81526020018581526020018842610e7091906153e3565b8152602001836002811115610e9557634e487b7160e01b600052602160045260246000fd5b90529050610ea16128c8565b6040805180820182528f151581528e15156020808301918252600085815260179091529290922090518154925161ffff1990931690151561ff00191617610100921515929092029190911790559850610efa89826128e2565b610f188933610f138c85602001518660a001518861299a565b612ad8565b610f22898b612afb565b6000610f2e868d612b05565b9050610f438a83606001518460800151612fc6565b336001600160a01b03168a7f89f823a0225c73a75066e963ce2eea7708b57680ec86102773dbd244f5412892838a8f604051610f81939291906153ae565b60405180910390a35050600160075550959b9a5050505050505050505050565b610fab3382613031565b610fc75760405162461bcd60e51b8152600401610975906152cf565b610aa68383836130fb565b60009081526008602052604090206001015490565b6000908152600a602052604090205490565b61100282610fd2565b61100c8133613294565b610aa683836132f8565b6001600160a01b03811633146110865760405162461bcd60e51b815260206004820152602f60248201527f416363657373436f6e74726f6c3a2063616e206f6e6c792072656e6f756e636560448201526e103937b632b9903337b91039b2b63360891b6064820152608401610975565b611090828261337e565b5050565b61109d826114f2565b6001600160a01b0316336001600160a01b0316146110cd5760405162461bcd60e51b8152600401610975906151f3565b610aa68383836133e5565b610aa68383836040518060200160405280600081525061238e565b6110fc816114f2565b6001600160a01b0316336001600160a01b03161461112c5760405162461bcd60e51b8152600401610975906151f3565b611135816134aa565b50565b6111418261125a565b6111735760405162461bcd60e51b815260206004820152600360248201526227189960e91b6044820152606401610975565b600080600061118286856134c2565b509250925092506000611194866135ef565b90506111d086828484606001516111ab91906153e3565b8785604001516111bb91906153e3565b8786608001516111cb91906153e3565b6136de565b601954606082015160808301516040516357a5c96760e01b81529394506001600160a01b03909216926357a5c96792611210928b929091906004016153cd565b600060405180830381600087803b15801561122a57600080fd5b505af115801561123e573d6000803e3d6000fd5b5050505061124f8989898989613710565b505050505050505050565b60006108308261283d565b600081815260166020526040902060058101544210156112975760405162461bcd60e51b81526004016109759061533c565b6001815460ff1660038111156112bd57634e487b7160e01b600052602160045260246000fd5b146112ef5760405162461bcd60e51b81526020600482015260026024820152614f3560f01b6044820152606401610975565b6005810154600090815260186020526040902054806113205760405162461bcd60e51b815260040161097590615261565b6011546012546040516312add1fd60e21b81526000926001600160a01b0390811692634ab747f49261135a92909116908690600401615127565b604080518083038186803b15801561137157600080fd5b505afa158015611385573d6000803e3d6000fd5b505050506040513d601f19601f820116820180604052508101906113a99190614f53565b915060029050600684015460ff1660028111156113d657634e487b7160e01b600052602160045260246000fd5b1480156113e7575082600101548110155b8061142757506001600684015460ff16600281111561141657634e487b7160e01b600052602160045260246000fd5b148015611427575082600101548111155b1561143b5761143584612087565b506114ec565b825460ff19166003178355601954604051636198e33960e01b8152600481018690526001600160a01b0390911690636198e33990602401600060405180830381600087803b15801561148c57600080fd5b505af11580156114a0573d6000803e3d6000fd5b505050506114ad846134aa565b837f5f36a4a575e512eb69d6d28c3b0ff98cca7ba50ad5bf04e14094ad1d425e0d3184600401546040516114e391815260200190565b60405180910390a25b50505050565b6000818152600260205260408120546001600160a01b0316806108305760405162461bcd60e51b815260206004820152602960248201527f4552433732313a206f776e657220717565727920666f72206e6f6e657869737460448201526832b73a103a37b5b2b760b91b6064820152608401610975565b60105460195460405163095ea7b360e01b81526001600160a01b039283169263095ea7b3926115a19291169060001990600401615127565b602060405180830381600087803b1580156115bb57600080fd5b505af11580156115cf573d6000803e3d6000fd5b505050506040513d601f19601f820116820180604052508101906111359190614db2565b600080600080601460009054906101000a90046001600160a01b03166001600160a01b0316631acf55826040518163ffffffff1660e01b815260040160206040518083038186803b15801561164757600080fd5b505afa15801561165b573d6000803e3d6000fd5b505050506040513d601f19601f8201168201806040525081019061167f9190614e42565b60115460125460405163141ac1e360e11b81529293506000926001600160a01b039283169263283583c6926116b9929116906004016150d6565b60206040518083038186803b1580156116d157600080fd5b505afa1580156116e5573d6000803e3d6000fd5b505050506040513d601f19601f820116820180604052508101906117099190614e42565b6040805160a0810182528c8152602081018c81528183018c81528b1515606084019081528b151560808501908152601a546019549651630381346f60e21b8152865160048201529451602486015292516044850152905115156064840152511515608483015260a4820187905260c482018590526001600160a01b0390811660e483015290921661010483015291925073__FeeCalculator_________________________90630e04d1bc906101240160606040518083038186803b1580156117d157600080fd5b505af41580156117e5573d6000803e3d6000fd5b505050506040513d601f19601f820116820180604052508101906118099190614f76565b919d909c50909a5098505050505050505050565b6060816118515760405162461bcd60e51b81526020600482015260026024820152614e3160f01b6044820152606401610975565b816001600160401b0381111561187757634e487b7160e01b600052604160045260246000fd5b6040519080825280602002602001820160405280156118a0578160200160208202803683370190505b50905060006118ae856135ef565b905060006118bb866125d0565b905060008080805b87811015611ace5760006118d56128c8565b9050808883815181106118f857634e487b7160e01b600052603260045260246000fd5b6020026020010181815250506119358b828c8c8681811061192957634e487b7160e01b600052603260045260246000fd5b90506020020135613956565b6000868b8b8581811061195857634e487b7160e01b600052603260045260246000fd5b90506020020135896040015161196e919061540f565b61197891906153fb565b905061198481876153e3565b95506000878c8c868181106119a957634e487b7160e01b600052603260045260246000fd5b905060200201358a606001516119bf919061540f565b6119c991906153fb565b90506119d581876153e3565b95506000888d8d878181106119fa57634e487b7160e01b600052603260045260246000fd5b905060200201358b60800151611a10919061540f565b611a1a91906153fb565b9050611a2681876153e3565b955060006040518060e001604052808c600001516003811115611a5957634e487b7160e01b600052602160045260246000fd5b81526020018c6020015181526020018581526020018481526020018381526020018c60a0015181526020018c60c001516002811115611aa857634e487b7160e01b600052602160045260246000fd5b90529050611ab685826128e2565b50505050508080611ac6906154bd565b9150506118c3565b50611b048986848860600151611ae4919061542e565b868960400151611af4919061542e565b858a608001516111cb919061542e565b601954606082015160808301516040516357a5c96760e01b81529398506001600160a01b03909216926357a5c96792611b44928e929091906004016153cd565b600060405180830381600087803b158015611b5e57600080fd5b505af1158015611b72573d6000803e3d6000fd5b5050505060005b87811015611c02576000611bb3888381518110611ba657634e487b7160e01b600052603260045260246000fd5b60200260200101516135ef565b9050611bef888381518110611bd857634e487b7160e01b600052603260045260246000fd5b602002602001015182606001518360800151612fc6565b5080611bfa816154bd565b915050611b79565b5050505050509392505050565b60006001600160a01b038216611c7a5760405162461bcd60e51b815260206004820152602a60248201527f4552433732313a2062616c616e636520717565727920666f7220746865207a65604482015269726f206164647265737360b01b6064820152608401610975565b506001600160a01b031660009081526003602052604090205490565b33611c9f611cd1565b6001600160a01b031614611cc55760405162461bcd60e51b81526004016109759061529a565b611ccf6000613a80565b565b6006546001600160a01b031690565b6011546012546040516312add1fd60e21b8152600092839283926001600160a01b0392831692634ab747f492611d1d929116908890600401615127565b604080518083038186803b158015611d3457600080fd5b505afa158015611d48573d6000803e3d6000fd5b505050506040513d601f19601f82011682018060405250810190611d6c9190614f53565b915091506000601960009054906101000a90046001600160a01b03166001600160a01b031663a834069b6040518163ffffffff1660e01b815260040160206040518083038186803b158015611dc057600080fd5b505afa158015611dd4573d6000803e3d6000fd5b505050506040513d601f19601f82011682018060405250810190611df89190614e42565b9050828110611e2e5760405162461bcd60e51b8152602060048201526002602482015261433160f01b6044820152606401610975565b6000611e3b60018761542e565b90505b84611f6c576011546012546040516312add1fd60e21b81526000926001600160a01b0390811692634ab747f492611e7d92909116908690600401615127565b604080518083038186803b158015611e9457600080fd5b505afa158015611ea8573d6000803e3d6000fd5b505050506040513d601f19601f82011682018060405250810190611ecc9190614f53565b50905080611f1b5760008211611f095760405162461bcd60e51b8152602060048201526002602482015261433360f01b6044820152606401610975565b611f1460018361542e565b9150611f66565b82811115611f505760405162461bcd60e51b815260206004820152600260248201526110cd60f21b6044820152606401610975565b6000838152601860205260409020829055600195505b50611e3e565b50505050919050565b60009182526008602090815260408084206001600160a01b0393909316845291905290205460ff1690565b60606001805461084590615488565b6001600160a01b0382163314156120045760405162461bcd60e51b815260206004820152601960248201527822a9219b99189d1030b8383937bb32903a379031b0b63632b960391b6044820152606401610975565b3360008181526005602090815260408083206001600160a01b03871680855290835292819020805460ff191686151590811790915590519081529192917f17307eab39ab6107e8899845ad3d59bd9653f200f220920489ca2b5937696c31910160405180910390a35050565b6000818152600c6020526040812061083090613ad2565b60006120928261125a565b6120c45760405162461bcd60e51b815260206004820152600360248201526204f31360ec1b6044820152606401610975565b600082815260166020526040902060058101544210156120f65760405162461bcd60e51b81526004016109759061533c565b6001815460ff16600381111561211c57634e487b7160e01b600052602160045260246000fd5b1461214f5760405162461bcd60e51b815260206004820152600360248201526213cc4d60ea1b6044820152606401610975565b6005810154600090815260186020526040902054806121805760405162461bcd60e51b815260040161097590615261565b6011546012546040516312add1fd60e21b81526000926001600160a01b0390811692634ab747f4926121ba92909116908690600401615127565b604080518083038186803b1580156121d157600080fd5b505afa1580156121e5573d6000803e3d6000fd5b505050506040513d601f19601f820116820180604052508101906122099190614f53565b915060029050600684015460ff16600281111561223657634e487b7160e01b600052602160045260246000fd5b141561227b5780836001015411156122765760405162461bcd60e51b81526020600482015260036024820152624f313760e81b6044820152606401610975565b6122b5565b80836001015410156122b55760405162461bcd60e51b815260206004820152600360248201526209e62760eb1b6044820152606401610975565b60038301546019549094506001600160a01b03166381b34f15866122d8816114f2565b6040516001600160e01b031960e085901b16815260048101929092526001600160a01b0316602482015260448101879052606401600060405180830381600087803b15801561232657600080fd5b505af115801561233a573d6000803e3d6000fd5b50505050612347856134aa565b825460ff1916600217835560405184815285907e84fe51c7cb34b132b7b6eb5d5a87a489f8d6d284758d00a0402c1bad9a0def9060200160405180910390a2505050919050565b612399335b83613031565b6123b55760405162461bcd60e51b8152600401610975906152cf565b6114ec84848484613adc565b816123f35760405162461bcd60e51b8152602060048201526002602482015261138d60f21b6044820152606401610975565b60006123fe826135ef565b606081015160408201516080830151929350909160005b8681101561255257600061244e89898481811061244257634e487b7160e01b600052603260045260246000fd5b905060200201356135ef565b905080606001518561246091906153e3565b945080604001518461247291906153e3565b935080608001518361248491906153e3565b6019549093506001600160a01b0316630dbf21b08a8a858181106124b857634e487b7160e01b600052603260045260246000fd5b905060200201356040518263ffffffff1660e01b81526004016124dd91815260200190565b600060405180830381600087803b1580156124f757600080fd5b505af115801561250b573d6000803e3d6000fd5b5050505061253f89898481811061253257634e487b7160e01b600052603260045260246000fd5b9050602002013588613b0f565b508061254a816154bd565b915050612415565b5061256085858585856136de565b506019546040516357a5c96760e01b81526001600160a01b03909116906357a5c96790612595908890879086906004016153cd565b600060405180830381600087803b1580156125af57600080fd5b505af11580156125c3573d6000803e3d6000fd5b5050505050505050505050565b6000908152600f602052604090205490565b606061083082613c8b565b6000828152600c602052604081206126059083613ded565b9392505050565b61261582610fd2565b61261f8133613294565b610aa6838361337e565b8060005b818110156114ec5761266484848381811061265857634e487b7160e01b600052603260045260246000fd5b90506020020135611265565b8061266e816154bd565b91505061262d565b6001600160a01b03918216600090815260056020908152604080832093909416825291909152205460ff1690565b336126ad611cd1565b6001600160a01b0316146126d35760405162461bcd60e51b81526004016109759061529a565b6001600160a01b0381166127385760405162461bcd60e51b815260206004820152602660248201527f4f776e61626c653a206e6577206f776e657220697320746865207a65726f206160448201526564647265737360d01b6064820152608401610975565b61113581613a80565b600061274b6128c8565b905060008060008061275d87876134c2565b935093509350935060006040518060e001604052808360000151600381111561279657634e487b7160e01b600052602160045260246000fd5b8152602001836020015181526020018681526020018481526020018581526020018360a0015181526020018360c0015160028111156127e557634e487b7160e01b600052602160045260246000fd5b905290506127f386826128e2565b6127fe868486612fc6565b61280b8a8a8a898b613710565b5050505050949350505050565b60006001600160e01b03198216637965db0b60e01b1480610830575061083082613df9565b6000908152600260205260409020546001600160a01b0316151590565b600081815260046020526040902080546001600160a01b0319166001600160a01b038416908117909155819061288f826114f2565b6001600160a01b03167f8c5be1e5ebec7d5bd14f71427d1e84f3dd0314c0f7b2291e5b200ac8c7c3b92560405160405180910390a45050565b60158054600091826128d9836154bd565b91905055905090565b60008281526016602052604090208151815483929190829060ff1916600183600381111561292057634e487b7160e01b600052602160045260246000fd5b02179055506020820151816001015560408201518160020155606082015181600301556080820151816004015560a0820151816005015560c08201518160060160006101000a81548160ff0219169083600281111561298f57634e487b7160e01b600052602160045260246000fd5b021790555050505050565b6000838383876040516020016129b39493929190615384565b60408051808303601f1901815291815281516020928301206000818152601b909352912060020154909150610100900460ff1615612a195760405162461bcd60e51b8152602060048201526003602482015262138c4d60ea1b6044820152606401610975565b6040518060800160405280858152602001848152602001836002811115612a5057634e487b7160e01b600052602160045260246000fd5b8152600160209182018190526000848152601b8352604090819020845181559284015183830155830151600280840180549293909260ff1916918490811115612aa957634e487b7160e01b600052602160045260246000fd5b021790555060609190910151600290910180549115156101000261ff0019909216919091179055949350505050565b6000838152600a60205260409020819055600d54610aa690839085908490613e49565b6110908282613ed3565b60006064601a60009054906101000a90046001600160a01b03166001600160a01b031663ca535c3b6040518163ffffffff1660e01b815260040160206040518083038186803b158015612b5757600080fd5b505afa158015612b6b573d6000803e3d6000fd5b505050506040513d601f19601f82011682018060405250810190612b8f9190614e42565b612b99908561540f565b612ba391906153fb565b90508015612ca457601054601a5460408051630605cc7760e21b815290516001600160a01b039384169363a9059cbb93169163181731dc916004808301926020929190829003018186803b158015612bfa57600080fd5b505afa158015612c0e573d6000803e3d6000fd5b505050506040513d601f19601f82011682018060405250810190612c329190614af9565b836040518363ffffffff1660e01b8152600401612c50929190615127565b602060405180830381600087803b158015612c6a57600080fd5b505af1158015612c7e573d6000803e3d6000fd5b505050506040513d601f19601f82011682018060405250810190612ca29190614db2565b505b6000612cb0828561542e565b90508015612fbf57601a5460408051634905129f60e11b815290516000926001600160a01b03169163920a253e916004808301926020929190829003018186803b158015612cfd57600080fd5b505afa158015612d11573d6000803e3d6000fd5b505050506040513d601f19601f82011682018060405250810190612d359190614e42565b118015612d5b5750612d45611cd1565b6001600160a01b0316836001600160a01b031614155b8015612d7057506001600160a01b0383163314155b15612eea5760006064601a60009054906101000a90046001600160a01b03166001600160a01b031663920a253e6040518163ffffffff1660e01b815260040160206040518083038186803b158015612dc757600080fd5b505afa158015612ddb573d6000803e3d6000fd5b505050506040513d601f19601f82011682018060405250810190612dff9190614e42565b612e09908461540f565b612e1391906153fb565b9050612e1f818361542e565b60105460405163a9059cbb60e01b81529193506001600160a01b03169063a9059cbb90612e529087908590600401615127565b602060405180830381600087803b158015612e6c57600080fd5b505af1158015612e80573d6000803e3d6000fd5b505050506040513d601f19601f82011682018060405250810190612ea49190614db2565b50836001600160a01b03167f2fc41b7d7df3272c17d9b581fcf235307bc027599c6ed68442c4100bd3a8419882604051612ee091815260200190565b60405180910390a2505b6010546001600160a01b031663a9059cbb612f03611cd1565b836040518363ffffffff1660e01b8152600401612f21929190615127565b602060405180830381600087803b158015612f3b57600080fd5b505af1158015612f4f573d6000803e3d6000fd5b505050506040513d601f19601f82011682018060405250810190612f739190614db2565b50612f7c611cd1565b6001600160a01b03167ff0f0487d8990103573e0e5cf4e87e101e2a1ba84c733c556b7a5807e570e5d4c82604051612fb691815260200190565b60405180910390a25b5092915050565b60195460405163edd0d42160e01b81526001600160a01b039091169063edd0d42190612ffa908690869086906004016153cd565b600060405180830381600087803b15801561301457600080fd5b505af1158015613028573d6000803e3d6000fd5b50505050505050565b600061303c8261283d565b61309d5760405162461bcd60e51b815260206004820152602c60248201527f4552433732313a206f70657261746f7220717565727920666f72206e6f6e657860448201526b34b9ba32b73a103a37b5b2b760a11b6064820152608401610975565b60006130a8836114f2565b9050806001600160a01b0316846001600160a01b031614806130e35750836001600160a01b03166130d88461090d565b6001600160a01b0316145b806130f357506130f38185612676565b949350505050565b826001600160a01b031661310e826114f2565b6001600160a01b0316146131765760405162461bcd60e51b815260206004820152602960248201527f4552433732313a207472616e73666572206f6620746f6b656e2074686174206960448201526839903737ba1037bbb760b91b6064820152608401610975565b6001600160a01b0382166131d85760405162461bcd60e51b8152602060048201526024808201527f4552433732313a207472616e7366657220746f20746865207a65726f206164646044820152637265737360e01b6064820152608401610975565b6131e3838383613f5e565b6131ee60008261285a565b6001600160a01b038316600090815260036020526040812080546001929061321790849061542e565b90915550506001600160a01b03821660009081526003602052604081208054600192906132459084906153e3565b909155505060008181526002602052604080822080546001600160a01b0319166001600160a01b0386811691821790925591518493918716916000805160206155a083398151915291a4505050565b61329e8282611f75565b611090576132b6816001600160a01b03166014613f76565b6132c1836020613f76565b6040516020016132d2929190615067565b60408051601f198184030181529082905262461bcd60e51b8252610975916004016151e0565b6133028282611f75565b6110905760008281526008602090815260408083206001600160a01b03851684529091529020805460ff1916600117905561333a3390565b6001600160a01b0316816001600160a01b0316837f2f8788117e7eff1d82e926ec794901d17c78024a50270940304540a733656f0d60405160405180910390a45050565b6133888282611f75565b156110905760008281526008602090815260408083206001600160a01b0385168085529252808320805460ff1916905551339285917ff6391f5c32d9c69d2a47ea670b442974b53935d1edc7fd64eb21e047a839171b9190a45050565b6000828152600b602090815260408083206001600160a01b0387168452600101909152902054613447576000828152600b602090815260408220805460018101825590835291200180546001600160a01b0319166001600160a01b0385161790555b6000828152600b602090815260408083206001600160a01b0387168085526001909101835292819020849055518381528492917f8a156bd946dc74ec284c5f4b365ce75ef2a5b9d9462b4cdb1d2400cabf136541910160405180910390a3505050565b6000818152600a602052604081205561113581614157565b60008060006134cf61492a565b6134d8866135ef565b905060006134e5876125d0565b9050808683604001516134f8919061540f565b61350291906153fb565b945080868360800151613515919061540f565b61351f91906153fb565b935080868360600151613532919061540f565b61353c91906153fb565b92506135738783858560600151613553919061542e565b888660400151613563919061542e565b8887608001516111cb919061542e565b601954606082015160808301516040516357a5c96760e01b81529395506001600160a01b03909216926357a5c967926135b3928c929091906004016153cd565b600060405180830381600087803b1580156135cd57600080fd5b505af11580156135e1573d6000803e3d6000fd5b505050505092959194509250565b6135f761492a565b60008281526016602052604090819020815160e081019092528054829060ff16600381111561363657634e487b7160e01b600052602160045260246000fd5b600381111561365557634e487b7160e01b600052602160045260246000fd5b81526001820154602082015260028083015460408301526003830154606083015260048301546080830152600583015460a0830152600683015460c09092019160ff16908111156136b657634e487b7160e01b600052602160045260246000fd5b60028111156136d557634e487b7160e01b600052602160045260246000fd5b90525092915050565b6136e661492a565b506060840183905260408401829052608084018190528361370786826128e2565b95945050505050565b613719836114f2565b6001600160a01b0316856001600160a01b03161461375e5760405162461bcd60e51b81526020600482015260026024820152614e3960f01b6044820152606401610975565b6001600160a01b03841661379a5760405162461bcd60e51b815260206004820152600360248201526204e31360ec1b6044820152606401610975565b336001600160a01b038616148015906137ba57506137b88533612676565b155b15613805576000838152600b602090815260408083203384526001019091529020546137e790829061542e565b6000848152600b602090815260408083203384526001019091529020555b6000838152600f602052604090205461381f90829061542e565b6000848152600f60205260409020556138378261283d565b6138545761384f848361384986610fe7565b84613e49565b6138fc565b836001600160a01b0316613867836114f2565b6001600160a01b0316146138a35760405162461bcd60e51b81526020600482015260036024820152624e313160e81b6044820152606401610975565b6138ac82610fe7565b6138b584610fe7565b146138d25760405162461bcd60e51b81526004016109759061527e565b6000828152600f60205260409020546138ec9082906153e3565b6000838152600f60205260409020555b6000838152600a60205260408082205484835291819020919091555183906001600160a01b0380871691908816906000805160206155c08339815191529061394790879087906151d2565b60405180910390a45050505050565b6139603384613031565b6139915760405162461bcd60e51b8152602060048201526002602482015261271960f11b6044820152606401610975565b61399a8261283d565b156139cc5760405162461bcd60e51b81526020600482015260026024820152614e3360f01b6044820152606401610975565b6139eb826139d985610fe7565b6000918252600a602052604090912055565b6000838152600f6020526040902054613a0590829061542e565b6000848152600f6020526040812091909155613a20846114f2565b9050613a368184613a3087610fe7565b85613e49565b83816001600160a01b03167ff66885c33d648fcd0d97e0f2a18e30102169c22763473af0fb716f11b4a17dd68585604051613a729291906151d2565b60405180910390a350505050565b600680546001600160a01b038381166001600160a01b0319831681179093556040519116919082907f8be0079c531659141344cd1fd0a4f28419497f9722a3daafe3b4186f6b6457e090600090a35050565b6000610830825490565b613ae78484846130fb565b613af3848484846141e9565b6114ec5760405162461bcd60e51b81526004016109759061520f565b613b1833612393565b613b495760405162461bcd60e51b81526020600482015260026024820152614e3560f01b6044820152606401610975565b80821415613b7e5760405162461bcd60e51b8152602060048201526002602482015261271b60f11b6044820152606401610975565b613b8781610fe7565b613b9083610fe7565b14613bad5760405162461bcd60e51b81526004016109759061527e565b6000613bb8836114f2565b9050613bc3826114f2565b6001600160a01b0316816001600160a01b031614613c085760405162461bcd60e51b815260206004820152600260248201526109c760f31b6044820152606401610975565b6000838152600f602052604080822054848352912054613c2890826153e3565b6000848152600f6020526040902055613c40846134aa565b8284836001600160a01b03167fb3ce851d16b3bbec3774d5631a3893dfa2a80e067cfad265dd594402ac3d609684604051613c7d91815260200190565b60405180910390a450505050565b6060613c968261283d565b613cfc5760405162461bcd60e51b815260206004820152603160248201527f45524337323155524953746f726167653a2055524920717565727920666f72206044820152703737b732bc34b9ba32b73a103a37b5b2b760791b6064820152608401610975565b60008281526009602052604081208054613d1590615488565b80601f0160208091040260200160405190810160405280929190818152602001828054613d4190615488565b8015613d8e5780601f10613d6357610100808354040283529160200191613d8e565b820191906000526020600020905b815481529060010190602001808311613d7157829003601f168201915b505050505090506000613d9f6142f6565b9050805160001415613db2575092915050565b815115613de4578082604051602001613dcc929190615038565b60405160208183030381529060405292505050919050565b6130f384614316565b600061260583836143e0565b60006001600160e01b031982166380ac58cd60e01b1480613e2a57506001600160e01b03198216635b5e139f60e01b145b8061083057506301ffc9a760e01b6001600160e01b0319831614610830565b613e528361283d565b613e7a57613e608484614418565b6000828152600c60205260409020613e789084614544565b505b6000838152600f6020526040902054613e949082906153e3565b6000848152600f60205260408082209290925590516001600160a01b0386169082906000805160206155c083398151915290613c7d90889087906151d2565b613edc8261283d565b613f3f5760405162461bcd60e51b815260206004820152602e60248201527f45524337323155524953746f726167653a2055524920736574206f66206e6f6e60448201526d32bc34b9ba32b73a103a37b5b2b760911b6064820152608401610975565b60008281526009602090815260409091208251610aa692840190614986565b6001600160a01b03831615610aa657610aa681614550565b60606000613f8583600261540f565b613f909060026153e3565b6001600160401b03811115613fb557634e487b7160e01b600052604160045260246000fd5b6040519080825280601f01601f191660200182016040528015613fdf576020820181803683370190505b509050600360fc1b8160008151811061400857634e487b7160e01b600052603260045260246000fd5b60200101906001600160f81b031916908160001a905350600f60fb1b8160018151811061404557634e487b7160e01b600052603260045260246000fd5b60200101906001600160f81b031916908160001a905350600061406984600261540f565b6140749060016153e3565b90505b6001811115614108576f181899199a1a9b1b9c1cb0b131b232b360811b85600f16601081106140b657634e487b7160e01b600052603260045260246000fd5b1a60f81b8282815181106140da57634e487b7160e01b600052603260045260246000fd5b60200101906001600160f81b031916908160001a90535060049490941c9361410181615471565b9050614077565b5083156126055760405162461bcd60e51b815260206004820181905260248201527f537472696e67733a20686578206c656e67746820696e73756666696369656e746044820152606401610975565b6000614162826114f2565b9050600061416f83610fe7565b6000848152600f6020908152604080832054848452600c9092529091209192509061419a9085614604565b506000848152600f60205260408120556141b384614610565b8360006001600160a01b0316846001600160a01b03166000805160206155c0833981519152600085604051613c7d9291906151d2565b60006001600160a01b0384163b156142eb57604051630a85bd0160e11b81526001600160a01b0385169063150b7a029061422d9033908990889088906004016150ea565b602060405180830381600087803b15801561424757600080fd5b505af1925050508015614277575060408051601f3d908101601f1916820190925261427491810190614e26565b60015b6142d1573d8080156142a5576040519150601f19603f3d011682016040523d82523d6000602084013e6142aa565b606091505b5080516142c95760405162461bcd60e51b81526004016109759061520f565b805181602001fd5b6001600160e01b031916630a85bd0160e11b1490506130f3565b506001949350505050565b606060405180606001604052806022815260200161557e60229139905090565b60606143218261283d565b6143855760405162461bcd60e51b815260206004820152602f60248201527f4552433732314d657461646174613a2055524920717565727920666f72206e6f60448201526e3732bc34b9ba32b73a103a37b5b2b760891b6064820152608401610975565b600061438f6142f6565b905060008151116143af5760405180602001604052806000815250612605565b806143b9846146a5565b6040516020016143ca929190615038565b6040516020818303038152906040529392505050565b600082600001828154811061440557634e487b7160e01b600052603260045260246000fd5b9060005260206000200154905092915050565b6001600160a01b03821661446e5760405162461bcd60e51b815260206004820181905260248201527f4552433732313a206d696e7420746f20746865207a65726f20616464726573736044820152606401610975565b6144778161283d565b156144c35760405162461bcd60e51b815260206004820152601c60248201527b115490cdcc8c4e881d1bdad95b88185b1c9958591e481b5a5b9d195960221b6044820152606401610975565b6144cf60008383613f5e565b6001600160a01b03821660009081526003602052604081208054600192906144f89084906153e3565b909155505060008181526002602052604080822080546001600160a01b0319166001600160a01b03861690811790915590518392906000805160206155a0833981519152908290a45050565b600061260583836147be565b6000818152600b60205260408120905b8154811015610aa65781600101600083600001838154811061459257634e487b7160e01b600052603260045260246000fd5b60009182526020808320909101546001600160a01b0316835282019290925260400181205581548290829081106145d957634e487b7160e01b600052603260045260246000fd5b600091825260209091200180546001600160a01b0319169055806145fc816154bd565b915050614560565b6000612605838361480d565b600061461b826114f2565b905061462981600084613f5e565b61463460008361285a565b6001600160a01b038116600090815260036020526040812080546001929061465d90849061542e565b909155505060008281526002602052604080822080546001600160a01b0319169055518391906001600160a01b038416906000805160206155a0833981519152908390a45050565b6060816146c95750506040805180820190915260018152600360fc1b602082015290565b8160005b81156146f357806146dd816154bd565b91506146ec9050600a836153fb565b91506146cd565b6000816001600160401b0381111561471b57634e487b7160e01b600052604160045260246000fd5b6040519080825280601f01601f191660200182016040528015614745576020820181803683370190505b5090505b84156130f35761475a60018361542e565b9150614767600a866154d8565b6147729060306153e3565b60f81b81838151811061479557634e487b7160e01b600052603260045260246000fd5b60200101906001600160f81b031916908160001a9053506147b7600a866153fb565b9450614749565b600081815260018301602052604081205461480557508154600181810184556000848152602080822090930184905584548482528286019093526040902091909155610830565b506000610830565b6000818152600183016020526040812054801561492057600061483160018361542e565b85549091506000906148459060019061542e565b90508181146148c657600086600001828154811061487357634e487b7160e01b600052603260045260246000fd5b90600052602060002001549050808760000184815481106148a457634e487b7160e01b600052603260045260246000fd5b6000918252602080832090910192909255918252600188019052604090208390555b85548690806148e557634e487b7160e01b600052603160045260246000fd5b600190038181906000526020600020016000905590558560010160008681526020019081526020016000206000905560019350505050610830565b6000915050610830565b6040805160e08101909152806000815260200160008152602001600081526020016000815260200160008152602001600081526020016000600281111561498157634e487b7160e01b600052602160045260246000fd5b905290565b82805461499290615488565b90600052602060002090601f0160209004810192826149b457600085556149fa565b82601f106149cd57805160ff19168380011785556149fa565b828001600101855582156149fa579182015b828111156149fa5782518255916020019190600101906149df565b50614a06929150614a0a565b5090565b5b80821115614a065760008155600101614a0b565b60006001600160401b0380841115614a3957614a3961552e565b604051601f8501601f19908116603f01168101908282118183101715614a6157614a6161552e565b81604052809350858152868686011115614a7a57600080fd5b858560208301376000602087830101525050509392505050565b60008083601f840112614aa5578182fd5b5081356001600160401b03811115614abb578182fd5b6020830191508360208260051b8501011115614ad657600080fd5b9250929050565b600060208284031215614aee578081fd5b813561260581615544565b600060208284031215614b0a578081fd5b815161260581615544565b60008060408385031215614b27578081fd5b8235614b3281615544565b91506020830135614b4281615544565b809150509250929050565b600080600060608486031215614b61578081fd5b8335614b6c81615544565b92506020840135614b7c81615544565b929592945050506040919091013590565b60008060008060808587031215614ba2578081fd5b8435614bad81615544565b93506020850135614bbd81615544565b92506040850135915060608501356001600160401b03811115614bde578182fd5b8501601f81018713614bee578182fd5b614bfd87823560208401614a1f565b91505092959194509250565b60008060008060808587031215614c1e578384fd5b8435614c2981615544565b93506020850135614c3981615544565b93969395505050506040820135916060013590565b600080600080600060a08688031215614c65578081fd5b8535614c7081615544565b94506020860135614c8081615544565b94979496505050506040830135926060810135926080909101359150565b60008060408385031215614cb0578182fd5b8235614cbb81615544565b91506020830135614b4281615559565b60008060408385031215614cdd578182fd5b8235614ce881615544565b946020939093013593505050565b600080600060608486031215614d0a578081fd5b8335614d1581615544565b95602085013595506040909401359392505050565b60008060208385031215614d3c578182fd5b82356001600160401b03811115614d51578283fd5b614d5d85828601614a94565b90969095509350505050565b600080600060408486031215614d7d578081fd5b83356001600160401b03811115614d92578182fd5b614d9e86828701614a94565b909790965060209590950135949350505050565b600060208284031215614dc3578081fd5b815161260581615559565b600060208284031215614ddf578081fd5b5035919050565b60008060408385031215614df8578182fd5b823591506020830135614b4281615544565b600060208284031215614e1b578081fd5b813561260581615567565b600060208284031215614e37578081fd5b815161260581615567565b600060208284031215614e53578081fd5b5051919050565b600080600060408486031215614e6e578081fd5b8335925060208401356001600160401b03811115614e8a578182fd5b614e9686828701614a94565b9497909650939450505050565b600080600080600060a08688031215614eba578283fd5b853594506020860135614ecc81615559565b93506040860135614edc81615559565b92506060860135614eec81615544565b915060808601356001600160401b03811115614f06578182fd5b8601601f81018813614f16578182fd5b614f2588823560208401614a1f565b9150509295509295909350565b60008060408385031215614f44578182fd5b50508035926020909101359150565b60008060408385031215614f65578182fd5b505080516020909101519092909150565b600080600060608486031215614f8a578081fd5b8351925060208401519150604084015190509250925092565b600080600080600060a08688031215614fba578283fd5b8535945060208601359350604086013592506060860135614fda81615559565b91506080860135614fea81615559565b809150509295509295909350565b60008151808452615010816020860160208601615445565b601f01601f19169290920160200192915050565b6003811061503457615034615518565b9052565b6000835161504a818460208801615445565b83519083019061505e818360208801615445565b01949350505050565b76020b1b1b2b9b9a1b7b73a3937b61d1030b1b1b7bab73a1604d1b815260008351615099816017850160208801615445565b7001034b99036b4b9b9b4b733903937b6329607d1b60179184019182015283516150ca816028840160208801615445565b01602801949350505050565b6001600160a01b0391909116815260200190565b6001600160a01b038581168252841660208201526040810183905260806060820181905260009061511d90830184614ff8565b9695505050505050565b6001600160a01b03929092168252602082015260400190565b6020808252825182820181905260009190848201906040850190845b818110156151785783518352928401929184019160010161515c565b50909695505050505050565b60e081016004891061519857615198615518565b8882528760208301528660408301528560608301528460808301528360a08301526151c660c0830184615024565b98975050505050505050565b918252602082015260400190565b6020815260006126056020830184614ff8565b6020808252600290820152614f3960f01b604082015260600190565b60208082526032908201527f4552433732313a207472616e7366657220746f206e6f6e20455243373231526560408201527131b2b4bb32b91034b6b83632b6b2b73a32b960711b606082015260800190565b60208082526003908201526204f32360ec1b604082015260600190565b6020808252600290820152614e3760f01b604082015260600190565b6020808252818101527f4f776e61626c653a2063616c6c6572206973206e6f7420746865206f776e6572604082015260600190565b60208082526031908201527f4552433732313a207472616e736665722063616c6c6572206973206e6f74206f6040820152701ddb995c881b9bdc88185c1c1c9bdd9959607a1b606082015260800190565b6020808252600290820152614f3160f01b604082015260600190565b60208082526002908201526113cd60f21b604082015260600190565b84815260208101849052608081016153736040830185615024565b821515606083015295945050505050565b848152602081018490526080810161539f6040830185615024565b82606083015295945050505050565b8381528260208201526060604082015260006137076060830184614ff8565b9283526020830191909152604082015260600190565b600082198211156153f6576153f66154ec565b500190565b60008261540a5761540a615502565b500490565b6000816000190483118215151615615429576154296154ec565b500290565b600082821015615440576154406154ec565b500390565b60005b83811015615460578181015183820152602001615448565b838111156114ec5750506000910152565b600081615480576154806154ec565b506000190190565b600181811c9082168061549c57607f821691505b6020821081141561090757634e487b7160e01b600052602260045260246000fd5b60006000198214156154d1576154d16154ec565b5060010190565b6000826154e7576154e7615502565b500690565b634e487b7160e01b600052601160045260246000fd5b634e487b7160e01b600052601260045260246000fd5b634e487b7160e01b600052602160045260246000fd5b634e487b7160e01b600052604160045260246000fd5b6001600160a01b038116811461113557600080fd5b801515811461113557600080fd5b6001600160e01b03198116811461113557600080fdfe68747470733a2f2f676174657761792e70696e6174612e636c6f75642f697066732fddf252ad1be2c89b69c2b068fc378daa952ba7f163c4a11628f55a4df523b3ef823a343d1c899e61a4db12247636a6882bf1fefae78bef39170f8d0f5b53e456a26469706673582212206a2ba312a41ee3de6dd87787aaeebbbc134d1ae6478e117e3755e08f747851d864736f6c63430008040033",
  "bytecodeSha1": "b761addc1b5e2307cc756667a392bc9f2c8ca8e2",
  "compiler": {
    "evm_version": "istanbul",
    "optimizer": {
      "enabled": true,
      "runs": 1
    },
    "version": "0.8.4+commit.c7e474f2"
  },
  "contractName": "BufferBinaryEuropeanKPIOptions",
  "deployedBytecode": "608060405234801561001057600080fd5b50600436106102a95760003560e01c806301ffc9a7146102ae57806305271a2a146102d657806306517a29146102eb57806306fdde0314610302578063076d948c14610317578063081812fc1461032a578063095ea7b31461034a5780630c5d12d01461035f578063108348eb1461037257806316dc165b1461038557806316f0115b1461039857806323b872dd146103ab578063248a9ca3146103be578063263f3e7e146103d15780632f2ff15d146103e457806336568abe146103f7578063409e22051461040a578063426a84931461046d57806342842e0e1461048057806342966c68146104935780634aed53c2146104a65780634f558e79146104b95780636198e339146104cc5780636352211e146104df578063645734e6146104f257806367807f7d146104fa578063689ab5ac1461051c57806369c672471461055f57806370a082311461057f578063715018a61461059257806375794a3c1461059a57806378c533ce146105a357806379502c55146105c3578063841edc0e146105d65780638a584118146105f65780638da5cb5b146106415780638dd7d2c11461064957806391d148541461065c57806395d89b411461066f578063a217fddf14610677578063a22cb4651461067f578063a6d14c0214610692578063a88004251461069a578063b07f0a41146106ad578063b888879e146106c0578063b88d4fde146106d3578063bbe33ea5146106e6578063becef607146106f9578063c37e04f61461070c578063c87b56dd1461071f578063d149cc3014610732578063d547741f14610745578063d5a0e67314610758578063dba34e9714610778578063e342b5981461079f578063e345e0bc146107b2578063e985e9c5146107ec578063f2fde38b146107ff578063fe99049a14610812575b600080fd5b6102c16102bc366004614e0a565b610825565b60405190151581526020015b60405180910390f35b600e5460405160ff90911681526020016102cd565b6102f4600d5481565b6040519081526020016102cd565b61030a610836565b6040516102cd91906151e0565b6102f4610325366004614dce565b6108c8565b61033d610338366004614dce565b61090d565b6040516102cd91906150d6565b61035d610358366004614ccb565b61099a565b005b6102f461036d366004614ea3565b610aab565b60125461033d906001600160a01b031681565b60105461033d906001600160a01b031681565b60195461033d906001600160a01b031681565b61035d6103b9366004614b4d565b610fa1565b6102f46103cc366004614dce565b610fd2565b6102f46103df366004614dce565b610fe7565b61035d6103f2366004614de6565b610ff9565b61035d610405366004614de6565b611016565b61045a610418366004614dce565b601660205260009081526040902080546001820154600283015460038401546004850154600586015460069096015460ff958616969495939492939192911687565b6040516102cd9796959493929190615184565b61035d61047b366004614cf6565b611094565b61035d61048e366004614b4d565b6110d8565b61035d6104a1366004614dce565b6110f3565b61035d6104b4366004614c4e565b611138565b6102c16104c7366004614dce565b61125a565b61035d6104da366004614dce565b611265565b61033d6104ed366004614dce565b6114f2565b61035d611569565b61050d610508366004614fa3565b6115f3565b6040516102cd939291906153cd565b61054861052a366004614dce565b60176020526000908152604090205460ff8082169161010090041682565b6040805192151583529015156020830152016102cd565b61057261056d366004614e5a565b61181d565b6040516102cd9190615140565b6102f461058d366004614add565b611c0f565b61035d611c96565b6102f460155481565b6102f46105b1366004614dce565b600f6020526000908152604090205481565b601a5461033d906001600160a01b031681565b6102f46105e4366004614dce565b60186020526000908152604090205481565b610631610604366004614dce565b601b6020526000908152604090208054600182015460029092015490919060ff8082169161010090041684565b6040516102cd9493929190615358565b61033d611cd1565b6102c1610657366004614dce565b611ce0565b6102c161066a366004614de6565b611f75565b61030a611fa0565b6102f4600081565b61035d61068d366004614c9e565b611faf565b6102f4600581565b6102f46106a8366004614dce565b612070565b6102f46106bb366004614dce565b612087565b60145461033d906001600160a01b031681565b61035d6106e1366004614b8d565b61238e565b61035d6106f4366004614d69565b6123c1565b6102f4610707366004614dce565b6125d0565b60115461033d906001600160a01b031681565b61030a61072d366004614dce565b6125e2565b6102f4610740366004614f32565b6125ed565b61035d610753366004614de6565b61260c565b6102f4610766366004614dce565b600a6020526000908152604090205481565b6102f47fdeb3b49547f710c56a925b6e16e3557a50fab4dd8f243bc314f3afba2054ec5b81565b61035d6107ad366004614d2a565b612629565b6102f46107c0366004614de6565b6000828152600b602090815260408083206001600160a01b038516845260010190915290205492915050565b6102c16107fa366004614b15565b612676565b61035d61080d366004614add565b6126a4565b6102f4610820366004614c09565b612741565b600061083082612818565b92915050565b60606000805461084590615488565b80601f016020809104026020016040519081016040528092919081815260200182805461087190615488565b80156108be5780601f10610893576101008083540402835291602001916108be565b820191906000526020600020905b8154815290600101906020018083116108a157829003601f168201915b5050505050905090565b6000805b6108d583612070565b811015610907576108e961070784836125ed565b6108f390836153e3565b9150806108ff816154bd565b9150506108cc565b50919050565b60006109188261283d565b61097e5760405162461bcd60e51b815260206004820152602c60248201527f4552433732313a20617070726f76656420717565727920666f72206e6f6e657860448201526b34b9ba32b73a103a37b5b2b760a11b60648201526084015b60405180910390fd5b506000908152600460205260409020546001600160a01b031690565b60006109a5826114f2565b9050806001600160a01b0316836001600160a01b03161415610a135760405162461bcd60e51b815260206004820152602160248201527f4552433732313a20617070726f76616c20746f2063757272656e74206f776e656044820152603960f91b6064820152608401610975565b336001600160a01b0382161480610a2f5750610a2f8133612676565b610a9c5760405162461bcd60e51b815260206004820152603860248201527f4552433732313a20617070726f76652063616c6c6572206973206e6f74206f776044820152771b995c881b9bdc88185c1c1c9bdd995908199bdc88185b1b60421b6064820152608401610975565b610aa6838361285a565b505050565b600060026007541415610b005760405162461bcd60e51b815260206004820152601f60248201527f5265656e7472616e637947756172643a207265656e7472616e742063616c6c006044820152606401610975565b60026007556019546040805163a834069b60e01b815290516000926001600160a01b03169163a834069b916004808301926020929190829003018186803b158015610b4a57600080fd5b505afa158015610b5e573d6000803e3d6000fd5b505050506040513d601f19601f82011682018060405250810190610b829190614e42565b9050428111610ba35760405162461bcd60e51b815260040161097590615320565b6000610baf428361542e565b905061a8c0811015610bd35760405162461bcd60e51b815260040161097590615320565b6000806000610c6a848c601a60009054906101000a90046001600160a01b03166001600160a01b0316635ee971016040518163ffffffff1660e01b815260040160206040518083038186803b158015610c2b57600080fd5b505afa158015610c3f573d6000803e3d6000fd5b505050506040513d601f19601f82011682018060405250810190610c639190614e42565b8d8d6115f3565b919450925090506005610c7d858d61540f565b610c87919061540f565b610c95846301e1338061540f565b610ca090606461540f565b11610cd25760405162461bcd60e51b8152602060048201526002602482015261279960f11b6044820152606401610975565b6010546040516323b872dd60e01b8152336004820152306024820152604481018590526000916001600160a01b0316906323b872dd90606401602060405180830381600087803b158015610d2557600080fd5b505af1158015610d39573d6000803e3d6000fd5b505050506040513d601f19601f82011682018060405250810190610d5d9190614db2565b905080610d915760405162461bcd60e51b81526020600482015260026024820152614f3360f01b6044820152606401610975565b60018b151581148015610da6575060018b1515145b80610db857508b158015610db857508a155b15610dc1575060025b6040805160e08101825260018152601a548251635ee9710160e01b815292516000936020808501936001600160a01b031692635ee97101926004808201939291829003018186803b158015610e1557600080fd5b505afa158015610e29573d6000803e3d6000fd5b505050506040513d601f19601f82011682018060405250810190610e4d9190614e42565b81526020018f81526020018f81526020018581526020018842610e7091906153e3565b8152602001836002811115610e9557634e487b7160e01b600052602160045260246000fd5b90529050610ea16128c8565b6040805180820182528f151581528e15156020808301918252600085815260179091529290922090518154925161ffff1990931690151561ff00191617610100921515929092029190911790559850610efa89826128e2565b610f188933610f138c85602001518660a001518861299a565b612ad8565b610f22898b612afb565b6000610f2e868d612b05565b9050610f438a83606001518460800151612fc6565b336001600160a01b03168a7f89f823a0225c73a75066e963ce2eea7708b57680ec86102773dbd244f5412892838a8f604051610f81939291906153ae565b60405180910390a35050600160075550959b9a5050505050505050505050565b610fab3382613031565b610fc75760405162461bcd60e51b8152600401610975906152cf565b610aa68383836130fb565b60009081526008602052604090206001015490565b6000908152600a602052604090205490565b61100282610fd2565b61100c8133613294565b610aa683836132f8565b6001600160a01b03811633146110865760405162461bcd60e51b815260206004820152602f60248201527f416363657373436f6e74726f6c3a2063616e206f6e6c792072656e6f756e636560448201526e103937b632b9903337b91039b2b63360891b6064820152608401610975565b611090828261337e565b5050565b61109d826114f2565b6001600160a01b0316336001600160a01b0316146110cd5760405162461bcd60e51b8152600401610975906151f3565b610aa68383836133e5565b610aa68383836040518060200160405280600081525061238e565b6110fc816114f2565b6001600160a01b0316336001600160a01b03161461112c5760405162461bcd60e51b8152600401610975906151f3565b611135816134aa565b50565b6111418261125a565b6111735760405162461bcd60e51b815260206004820152600360248201526227189960e91b6044820152606401610975565b600080600061118286856134c2565b509250925092506000611194866135ef565b90506111d086828484606001516111ab91906153e3565b8785604001516111bb91906153e3565b8786608001516111cb91906153e3565b6136de565b601954606082015160808301516040516357a5c96760e01b81529394506001600160a01b03909216926357a5c96792611210928b929091906004016153cd565b600060405180830381600087803b15801561122a57600080fd5b505af115801561123e573d6000803e3d6000fd5b5050505061124f8989898989613710565b505050505050505050565b60006108308261283d565b600081815260166020526040902060058101544210156112975760405162461bcd60e51b81526004016109759061533c565b6001815460ff1660038111156112bd57634e487b7160e01b600052602160045260246000fd5b146112ef5760405162461bcd60e51b81526020600482015260026024820152614f3560f01b6044820152606401610975565b6005810154600090815260186020526040902054806113205760405162461bcd60e51b815260040161097590615261565b6011546012546040516312add1fd60e21b81526000926001600160a01b0390811692634ab747f49261135a92909116908690600401615127565b604080518083038186803b15801561137157600080fd5b505afa158015611385573d6000803e3d6000fd5b505050506040513d601f19601f820116820180604052508101906113a99190614f53565b915060029050600684015460ff1660028111156113d657634e487b7160e01b600052602160045260246000fd5b1480156113e7575082600101548110155b8061142757506001600684015460ff16600281111561141657634e487b7160e01b600052602160045260246000fd5b148015611427575082600101548111155b1561143b5761143584612087565b506114ec565b825460ff19166003178355601954604051636198e33960e01b8152600481018690526001600160a01b0390911690636198e33990602401600060405180830381600087803b15801561148c57600080fd5b505af11580156114a0573d6000803e3d6000fd5b505050506114ad846134aa565b837f5f36a4a575e512eb69d6d28c3b0ff98cca7ba50ad5bf04e14094ad1d425e0d3184600401546040516114e391815260200190565b60405180910390a25b50505050565b6000818152600260205260408120546001600160a01b0316806108305760405162461bcd60e51b815260206004820152602960248201527f4552433732313a206f776e657220717565727920666f72206e6f6e657869737460448201526832b73a103a37b5b2b760b91b6064820152608401610975565b60105460195460405163095ea7b360e01b81526001600160a01b039283169263095ea7b3926115a19291169060001990600401615127565b602060405180830381600087803b1580156115bb57600080fd5b505af11580156115cf573d6000803e3d6000fd5b505050506040513d601f19601f820116820180604052508101906111359190614db2565b600080600080601460009054906101000a90046001600160a01b03166001600160a01b0316631acf55826040518163ffffffff1660e01b815260040160206040518083038186803b15801561164757600080fd5b505afa15801561165b573d6000803e3d6000fd5b505050506040513d601f19601f8201168201806040525081019061167f9190614e42565b60115460125460405163141ac1e360e11b81529293506000926001600160a01b039283169263283583c6926116b9929116906004016150d6565b60206040518083038186803b1580156116d157600080fd5b505afa1580156116e5573d6000803e3d6000fd5b505050506040513d601f19601f820116820180604052508101906117099190614e42565b6040805160a0810182528c8152602081018c81528183018c81528b1515606084019081528b151560808501908152601a546019549651630381346f60e21b8152865160048201529451602486015292516044850152905115156064840152511515608483015260a4820187905260c482018590526001600160a01b0390811660e483015290921661010483015291925073__$b949255e90277c788dcf25edf1f9288c61$__90630e04d1bc906101240160606040518083038186803b1580156117d157600080fd5b505af41580156117e5573d6000803e3d6000fd5b505050506040513d601f19601f820116820180604052508101906118099190614f76565b919d909c50909a5098505050505050505050565b6060816118515760405162461bcd60e51b81526020600482015260026024820152614e3160f01b6044820152606401610975565b816001600160401b0381111561187757634e487b7160e01b600052604160045260246000fd5b6040519080825280602002602001820160405280156118a0578160200160208202803683370190505b50905060006118ae856135ef565b905060006118bb866125d0565b905060008080805b87811015611ace5760006118d56128c8565b9050808883815181106118f857634e487b7160e01b600052603260045260246000fd5b6020026020010181815250506119358b828c8c8681811061192957634e487b7160e01b600052603260045260246000fd5b90506020020135613956565b6000868b8b8581811061195857634e487b7160e01b600052603260045260246000fd5b90506020020135896040015161196e919061540f565b61197891906153fb565b905061198481876153e3565b95506000878c8c868181106119a957634e487b7160e01b600052603260045260246000fd5b905060200201358a606001516119bf919061540f565b6119c991906153fb565b90506119d581876153e3565b95506000888d8d878181106119fa57634e487b7160e01b600052603260045260246000fd5b905060200201358b60800151611a10919061540f565b611a1a91906153fb565b9050611a2681876153e3565b955060006040518060e001604052808c600001516003811115611a5957634e487b7160e01b600052602160045260246000fd5b81526020018c6020015181526020018581526020018481526020018381526020018c60a0015181526020018c60c001516002811115611aa857634e487b7160e01b600052602160045260246000fd5b90529050611ab685826128e2565b50505050508080611ac6906154bd565b9150506118c3565b50611b048986848860600151611ae4919061542e565b868960400151611af4919061542e565b858a608001516111cb919061542e565b601954606082015160808301516040516357a5c96760e01b81529398506001600160a01b03909216926357a5c96792611b44928e929091906004016153cd565b600060405180830381600087803b158015611b5e57600080fd5b505af1158015611b72573d6000803e3d6000fd5b5050505060005b87811015611c02576000611bb3888381518110611ba657634e487b7160e01b600052603260045260246000fd5b60200260200101516135ef565b9050611bef888381518110611bd857634e487b7160e01b600052603260045260246000fd5b602002602001015182606001518360800151612fc6565b5080611bfa816154bd565b915050611b79565b5050505050509392505050565b60006001600160a01b038216611c7a5760405162461bcd60e51b815260206004820152602a60248201527f4552433732313a2062616c616e636520717565727920666f7220746865207a65604482015269726f206164647265737360b01b6064820152608401610975565b506001600160a01b031660009081526003602052604090205490565b33611c9f611cd1565b6001600160a01b031614611cc55760405162461bcd60e51b81526004016109759061529a565b611ccf6000613a80565b565b6006546001600160a01b031690565b6011546012546040516312add1fd60e21b8152600092839283926001600160a01b0392831692634ab747f492611d1d929116908890600401615127565b604080518083038186803b158015611d3457600080fd5b505afa158015611d48573d6000803e3d6000fd5b505050506040513d601f19601f82011682018060405250810190611d6c9190614f53565b915091506000601960009054906101000a90046001600160a01b03166001600160a01b031663a834069b6040518163ffffffff1660e01b815260040160206040518083038186803b158015611dc057600080fd5b505afa158015611dd4573d6000803e3d6000fd5b505050506040513d601f19601f82011682018060405250810190611df89190614e42565b9050828110611e2e5760405162461bcd60e51b8152602060048201526002602482015261433160f01b6044820152606401610975565b6000611e3b60018761542e565b90505b84611f6c576011546012546040516312add1fd60e21b81526000926001600160a01b0390811692634ab747f492611e7d92909116908690600401615127565b604080518083038186803b158015611e9457600080fd5b505afa158015611ea8573d6000803e3d6000fd5b505050506040513d601f19601f82011682018060405250810190611ecc9190614f53565b50905080611f1b5760008211611f095760405162461bcd60e51b8152602060048201526002602482015261433360f01b6044820152606401610975565b611f1460018361542e565b9150611f66565b82811115611f505760405162461bcd60e51b815260206004820152600260248201526110cd60f21b6044820152606401610975565b6000838152601860205260409020829055600195505b50611e3e565b50505050919050565b60009182526008602090815260408084206001600160a01b0393909316845291905290205460ff1690565b60606001805461084590615488565b6001600160a01b0382163314156120045760405162461bcd60e51b815260206004820152601960248201527822a9219b99189d1030b8383937bb32903a379031b0b63632b960391b6044820152606401610975565b3360008181526005602090815260408083206001600160a01b03871680855290835292819020805460ff191686151590811790915590519081529192917f17307eab39ab6107e8899845ad3d59bd9653f200f220920489ca2b5937696c31910160405180910390a35050565b6000818152600c6020526040812061083090613ad2565b60006120928261125a565b6120c45760405162461bcd60e51b815260206004820152600360248201526204f31360ec1b6044820152606401610975565b600082815260166020526040902060058101544210156120f65760405162461bcd60e51b81526004016109759061533c565b6001815460ff16600381111561211c57634e487b7160e01b600052602160045260246000fd5b1461214f5760405162461bcd60e51b815260206004820152600360248201526213cc4d60ea1b6044820152606401610975565b6005810154600090815260186020526040902054806121805760405162461bcd60e51b815260040161097590615261565b6011546012546040516312add1fd60e21b81526000926001600160a01b0390811692634ab747f4926121ba92909116908690600401615127565b604080518083038186803b1580156121d157600080fd5b505afa1580156121e5573d6000803e3d6000fd5b505050506040513d601f19601f820116820180604052508101906122099190614f53565b915060029050600684015460ff16600281111561223657634e487b7160e01b600052602160045260246000fd5b141561227b5780836001015411156122765760405162461bcd60e51b81526020600482015260036024820152624f313760e81b6044820152606401610975565b6122b5565b80836001015410156122b55760405162461bcd60e51b815260206004820152600360248201526209e62760eb1b6044820152606401610975565b60038301546019549094506001600160a01b03166381b34f15866122d8816114f2565b6040516001600160e01b031960e085901b16815260048101929092526001600160a01b0316602482015260448101879052606401600060405180830381600087803b15801561232657600080fd5b505af115801561233a573d6000803e3d6000fd5b50505050612347856134aa565b825460ff1916600217835560405184815285907e84fe51c7cb34b132b7b6eb5d5a87a489f8d6d284758d00a0402c1bad9a0def9060200160405180910390a2505050919050565b612399335b83613031565b6123b55760405162461bcd60e51b8152600401610975906152cf565b6114ec84848484613adc565b816123f35760405162461bcd60e51b8152602060048201526002602482015261138d60f21b6044820152606401610975565b60006123fe826135ef565b606081015160408201516080830151929350909160005b8681101561255257600061244e89898481811061244257634e487b7160e01b600052603260045260246000fd5b905060200201356135ef565b905080606001518561246091906153e3565b945080604001518461247291906153e3565b935080608001518361248491906153e3565b6019549093506001600160a01b0316630dbf21b08a8a858181106124b857634e487b7160e01b600052603260045260246000fd5b905060200201356040518263ffffffff1660e01b81526004016124dd91815260200190565b600060405180830381600087803b1580156124f757600080fd5b505af115801561250b573d6000803e3d6000fd5b5050505061253f89898481811061253257634e487b7160e01b600052603260045260246000fd5b9050602002013588613b0f565b508061254a816154bd565b915050612415565b5061256085858585856136de565b506019546040516357a5c96760e01b81526001600160a01b03909116906357a5c96790612595908890879086906004016153cd565b600060405180830381600087803b1580156125af57600080fd5b505af11580156125c3573d6000803e3d6000fd5b5050505050505050505050565b6000908152600f602052604090205490565b606061083082613c8b565b6000828152600c602052604081206126059083613ded565b9392505050565b61261582610fd2565b61261f8133613294565b610aa6838361337e565b8060005b818110156114ec5761266484848381811061265857634e487b7160e01b600052603260045260246000fd5b90506020020135611265565b8061266e816154bd565b91505061262d565b6001600160a01b03918216600090815260056020908152604080832093909416825291909152205460ff1690565b336126ad611cd1565b6001600160a01b0316146126d35760405162461bcd60e51b81526004016109759061529a565b6001600160a01b0381166127385760405162461bcd60e51b815260206004820152602660248201527f4f776e61626c653a206e6577206f776e657220697320746865207a65726f206160448201526564647265737360d01b6064820152608401610975565b61113581613a80565b600061274b6128c8565b905060008060008061275d87876134c2565b935093509350935060006040518060e001604052808360000151600381111561279657634e487b7160e01b600052602160045260246000fd5b8152602001836020015181526020018681526020018481526020018581526020018360a0015181526020018360c0015160028111156127e557634e487b7160e01b600052602160045260246000fd5b905290506127f386826128e2565b6127fe868486612fc6565b61280b8a8a8a898b613710565b5050505050949350505050565b60006001600160e01b03198216637965db0b60e01b1480610830575061083082613df9565b6000908152600260205260409020546001600160a01b0316151590565b600081815260046020526040902080546001600160a01b0319166001600160a01b038416908117909155819061288f826114f2565b6001600160a01b03167f8c5be1e5ebec7d5bd14f71427d1e84f3dd0314c0f7b2291e5b200ac8c7c3b92560405160405180910390a45050565b60158054600091826128d9836154bd565b91905055905090565b60008281526016602052604090208151815483929190829060ff1916600183600381111561292057634e487b7160e01b600052602160045260246000fd5b02179055506020820151816001015560408201518160020155606082015181600301556080820151816004015560a0820151816005015560c08201518160060160006101000a81548160ff0219169083600281111561298f57634e487b7160e01b600052602160045260246000fd5b021790555050505050565b6000838383876040516020016129b39493929190615384565b60408051808303601f1901815291815281516020928301206000818152601b909352912060020154909150610100900460ff1615612a195760405162461bcd60e51b8152602060048201526003602482015262138c4d60ea1b6044820152606401610975565b6040518060800160405280858152602001848152602001836002811115612a5057634e487b7160e01b600052602160045260246000fd5b8152600160209182018190526000848152601b8352604090819020845181559284015183830155830151600280840180549293909260ff1916918490811115612aa957634e487b7160e01b600052602160045260246000fd5b021790555060609190910151600290910180549115156101000261ff0019909216919091179055949350505050565b6000838152600a60205260409020819055600d54610aa690839085908490613e49565b6110908282613ed3565b60006064601a60009054906101000a90046001600160a01b03166001600160a01b031663ca535c3b6040518163ffffffff1660e01b815260040160206040518083038186803b158015612b5757600080fd5b505afa158015612b6b573d6000803e3d6000fd5b505050506040513d601f19601f82011682018060405250810190612b8f9190614e42565b612b99908561540f565b612ba391906153fb565b90508015612ca457601054601a5460408051630605cc7760e21b815290516001600160a01b039384169363a9059cbb93169163181731dc916004808301926020929190829003018186803b158015612bfa57600080fd5b505afa158015612c0e573d6000803e3d6000fd5b505050506040513d601f19601f82011682018060405250810190612c329190614af9565b836040518363ffffffff1660e01b8152600401612c50929190615127565b602060405180830381600087803b158015612c6a57600080fd5b505af1158015612c7e573d6000803e3d6000fd5b505050506040513d601f19601f82011682018060405250810190612ca29190614db2565b505b6000612cb0828561542e565b90508015612fbf57601a5460408051634905129f60e11b815290516000926001600160a01b03169163920a253e916004808301926020929190829003018186803b158015612cfd57600080fd5b505afa158015612d11573d6000803e3d6000fd5b505050506040513d601f19601f82011682018060405250810190612d359190614e42565b118015612d5b5750612d45611cd1565b6001600160a01b0316836001600160a01b031614155b8015612d7057506001600160a01b0383163314155b15612eea5760006064601a60009054906101000a90046001600160a01b03166001600160a01b031663920a253e6040518163ffffffff1660e01b815260040160206040518083038186803b158015612dc757600080fd5b505afa158015612ddb573d6000803e3d6000fd5b505050506040513d601f19601f82011682018060405250810190612dff9190614e42565b612e09908461540f565b612e1391906153fb565b9050612e1f818361542e565b60105460405163a9059cbb60e01b81529193506001600160a01b03169063a9059cbb90612e529087908590600401615127565b602060405180830381600087803b158015612e6c57600080fd5b505af1158015612e80573d6000803e3d6000fd5b505050506040513d601f19601f82011682018060405250810190612ea49190614db2565b50836001600160a01b03167f2fc41b7d7df3272c17d9b581fcf235307bc027599c6ed68442c4100bd3a8419882604051612ee091815260200190565b60405180910390a2505b6010546001600160a01b031663a9059cbb612f03611cd1565b836040518363ffffffff1660e01b8152600401612f21929190615127565b602060405180830381600087803b158015612f3b57600080fd5b505af1158015612f4f573d6000803e3d6000fd5b505050506040513d601f19601f82011682018060405250810190612f739190614db2565b50612f7c611cd1565b6001600160a01b03167ff0f0487d8990103573e0e5cf4e87e101e2a1ba84c733c556b7a5807e570e5d4c82604051612fb691815260200190565b60405180910390a25b5092915050565b60195460405163edd0d42160e01b81526001600160a01b039091169063edd0d42190612ffa908690869086906004016153cd565b600060405180830381600087803b15801561301457600080fd5b505af1158015613028573d6000803e3d6000fd5b50505050505050565b600061303c8261283d565b61309d5760405162461bcd60e51b815260206004820152602c60248201527f4552433732313a206f70657261746f7220717565727920666f72206e6f6e657860448201526b34b9ba32b73a103a37b5b2b760a11b6064820152608401610975565b60006130a8836114f2565b9050806001600160a01b0316846001600160a01b031614806130e35750836001600160a01b03166130d88461090d565b6001600160a01b0316145b806130f357506130f38185612676565b949350505050565b826001600160a01b031661310e826114f2565b6001600160a01b0316146131765760405162461bcd60e51b815260206004820152602960248201527f4552433732313a207472616e73666572206f6620746f6b656e2074686174206960448201526839903737ba1037bbb760b91b6064820152608401610975565b6001600160a01b0382166131d85760405162461bcd60e51b8152602060048201526024808201527f4552433732313a207472616e7366657220746f20746865207a65726f206164646044820152637265737360e01b6064820152608401610975565b6131e3838383613f5e565b6131ee60008261285a565b6001600160a01b038316600090815260036020526040812080546001929061321790849061542e565b90915550506001600160a01b03821660009081526003602052604081208054600192906132459084906153e3565b909155505060008181526002602052604080822080546001600160a01b0319166001600160a01b0386811691821790925591518493918716916000805160206155a083398151915291a4505050565b61329e8282611f75565b611090576132b6816001600160a01b03166014613f76565b6132c1836020613f76565b6040516020016132d2929190615067565b60408051601f198184030181529082905262461bcd60e51b8252610975916004016151e0565b6133028282611f75565b6110905760008281526008602090815260408083206001600160a01b03851684529091529020805460ff1916600117905561333a3390565b6001600160a01b0316816001600160a01b0316837f2f8788117e7eff1d82e926ec794901d17c78024a50270940304540a733656f0d60405160405180910390a45050565b6133888282611f75565b156110905760008281526008602090815260408083206001600160a01b0385168085529252808320805460ff1916905551339285917ff6391f5c32d9c69d2a47ea670b442974b53935d1edc7fd64eb21e047a839171b9190a45050565b6000828152600b602090815260408083206001600160a01b0387168452600101909152902054613447576000828152600b602090815260408220805460018101825590835291200180546001600160a01b0319166001600160a01b0385161790555b6000828152600b602090815260408083206001600160a01b0387168085526001909101835292819020849055518381528492917f8a156bd946dc74ec284c5f4b365ce75ef2a5b9d9462b4cdb1d2400cabf136541910160405180910390a3505050565b6000818152600a602052604081205561113581614157565b60008060006134cf61492a565b6134d8866135ef565b905060006134e5876125d0565b9050808683604001516134f8919061540f565b61350291906153fb565b945080868360800151613515919061540f565b61351f91906153fb565b935080868360600151613532919061540f565b61353c91906153fb565b92506135738783858560600151613553919061542e565b888660400151613563919061542e565b8887608001516111cb919061542e565b601954606082015160808301516040516357a5c96760e01b81529395506001600160a01b03909216926357a5c967926135b3928c929091906004016153cd565b600060405180830381600087803b1580156135cd57600080fd5b505af11580156135e1573d6000803e3d6000fd5b505050505092959194509250565b6135f761492a565b60008281526016602052604090819020815160e081019092528054829060ff16600381111561363657634e487b7160e01b600052602160045260246000fd5b600381111561365557634e487b7160e01b600052602160045260246000fd5b81526001820154602082015260028083015460408301526003830154606083015260048301546080830152600583015460a0830152600683015460c09092019160ff16908111156136b657634e487b7160e01b600052602160045260246000fd5b60028111156136d557634e487b7160e01b600052602160045260246000fd5b90525092915050565b6136e661492a565b506060840183905260408401829052608084018190528361370786826128e2565b95945050505050565b613719836114f2565b6001600160a01b0316856001600160a01b03161461375e5760405162461bcd60e51b81526020600482015260026024820152614e3960f01b6044820152606401610975565b6001600160a01b03841661379a5760405162461bcd60e51b815260206004820152600360248201526204e31360ec1b6044820152606401610975565b336001600160a01b038616148015906137ba57506137b88533612676565b155b15613805576000838152600b602090815260408083203384526001019091529020546137e790829061542e565b6000848152600b602090815260408083203384526001019091529020555b6000838152600f602052604090205461381f90829061542e565b6000848152600f60205260409020556138378261283d565b6138545761384f848361384986610fe7565b84613e49565b6138fc565b836001600160a01b0316613867836114f2565b6001600160a01b0316146138a35760405162461bcd60e51b81526020600482015260036024820152624e313160e81b6044820152606401610975565b6138ac82610fe7565b6138b584610fe7565b146138d25760405162461bcd60e51b81526004016109759061527e565b6000828152600f60205260409020546138ec9082906153e3565b6000838152600f60205260409020555b6000838152600a60205260408082205484835291819020919091555183906001600160a01b0380871691908816906000805160206155c08339815191529061394790879087906151d2565b60405180910390a45050505050565b6139603384613031565b6139915760405162461bcd60e51b8152602060048201526002602482015261271960f11b6044820152606401610975565b61399a8261283d565b156139cc5760405162461bcd60e51b81526020600482015260026024820152614e3360f01b6044820152606401610975565b6139eb826139d985610fe7565b6000918252600a602052604090912055565b6000838152600f6020526040902054613a0590829061542e565b6000848152600f6020526040812091909155613a20846114f2565b9050613a368184613a3087610fe7565b85613e49565b83816001600160a01b03167ff66885c33d648fcd0d97e0f2a18e30102169c22763473af0fb716f11b4a17dd68585604051613a729291906151d2565b60405180910390a350505050565b600680546001600160a01b038381166001600160a01b0319831681179093556040519116919082907f8be0079c531659141344cd1fd0a4f28419497f9722a3daafe3b4186f6b6457e090600090a35050565b6000610830825490565b613ae78484846130fb565b613af3848484846141e9565b6114ec5760405162461bcd60e51b81526004016109759061520f565b613b1833612393565b613b495760405162461bcd60e51b81526020600482015260026024820152614e3560f01b6044820152606401610975565b80821415613b7e5760405162461bcd60e51b8152602060048201526002602482015261271b60f11b6044820152606401610975565b613b8781610fe7565b613b9083610fe7565b14613bad5760405162461bcd60e51b81526004016109759061527e565b6000613bb8836114f2565b9050613bc3826114f2565b6001600160a01b0316816001600160a01b031614613c085760405162461bcd60e51b815260206004820152600260248201526109c760f31b6044820152606401610975565b6000838152600f602052604080822054848352912054613c2890826153e3565b6000848152600f6020526040902055613c40846134aa565b8284836001600160a01b03167fb3ce851d16b3bbec3774d5631a3893dfa2a80e067cfad265dd594402ac3d609684604051613c7d91815260200190565b60405180910390a450505050565b6060613c968261283d565b613cfc5760405162461bcd60e51b815260206004820152603160248201527f45524337323155524953746f726167653a2055524920717565727920666f72206044820152703737b732bc34b9ba32b73a103a37b5b2b760791b6064820152608401610975565b60008281526009602052604081208054613d1590615488565b80601f0160208091040260200160405190810160405280929190818152602001828054613d4190615488565b8015613d8e5780601f10613d6357610100808354040283529160200191613d8e565b820191906000526020600020905b815481529060010190602001808311613d7157829003601f168201915b505050505090506000613d9f6142f6565b9050805160001415613db2575092915050565b815115613de4578082604051602001613dcc929190615038565b60405160208183030381529060405292505050919050565b6130f384614316565b600061260583836143e0565b60006001600160e01b031982166380ac58cd60e01b1480613e2a57506001600160e01b03198216635b5e139f60e01b145b8061083057506301ffc9a760e01b6001600160e01b0319831614610830565b613e528361283d565b613e7a57613e608484614418565b6000828152600c60205260409020613e789084614544565b505b6000838152600f6020526040902054613e949082906153e3565b6000848152600f60205260408082209290925590516001600160a01b0386169082906000805160206155c083398151915290613c7d90889087906151d2565b613edc8261283d565b613f3f5760405162461bcd60e51b815260206004820152602e60248201527f45524337323155524953746f726167653a2055524920736574206f66206e6f6e60448201526d32bc34b9ba32b73a103a37b5b2b760911b6064820152608401610975565b60008281526009602090815260409091208251610aa692840190614986565b6001600160a01b03831615610aa657610aa681614550565b60606000613f8583600261540f565b613f909060026153e3565b6001600160401b03811115613fb557634e487b7160e01b600052604160045260246000fd5b6040519080825280601f01601f191660200182016040528015613fdf576020820181803683370190505b509050600360fc1b8160008151811061400857634e487b7160e01b600052603260045260246000fd5b60200101906001600160f81b031916908160001a905350600f60fb1b8160018151811061404557634e487b7160e01b600052603260045260246000fd5b60200101906001600160f81b031916908160001a905350600061406984600261540f565b6140749060016153e3565b90505b6001811115614108576f181899199a1a9b1b9c1cb0b131b232b360811b85600f16601081106140b657634e487b7160e01b600052603260045260246000fd5b1a60f81b8282815181106140da57634e487b7160e01b600052603260045260246000fd5b60200101906001600160f81b031916908160001a90535060049490941c9361410181615471565b9050614077565b5083156126055760405162461bcd60e51b815260206004820181905260248201527f537472696e67733a20686578206c656e67746820696e73756666696369656e746044820152606401610975565b6000614162826114f2565b9050600061416f83610fe7565b6000848152600f6020908152604080832054848452600c9092529091209192509061419a9085614604565b506000848152600f60205260408120556141b384614610565b8360006001600160a01b0316846001600160a01b03166000805160206155c0833981519152600085604051613c7d9291906151d2565b60006001600160a01b0384163b156142eb57604051630a85bd0160e11b81526001600160a01b0385169063150b7a029061422d9033908990889088906004016150ea565b602060405180830381600087803b15801561424757600080fd5b505af1925050508015614277575060408051601f3d908101601f1916820190925261427491810190614e26565b60015b6142d1573d8080156142a5576040519150601f19603f3d011682016040523d82523d6000602084013e6142aa565b606091505b5080516142c95760405162461bcd60e51b81526004016109759061520f565b805181602001fd5b6001600160e01b031916630a85bd0160e11b1490506130f3565b506001949350505050565b606060405180606001604052806022815260200161557e60229139905090565b60606143218261283d565b6143855760405162461bcd60e51b815260206004820152602f60248201527f4552433732314d657461646174613a2055524920717565727920666f72206e6f60448201526e3732bc34b9ba32b73a103a37b5b2b760891b6064820152608401610975565b600061438f6142f6565b905060008151116143af5760405180602001604052806000815250612605565b806143b9846146a5565b6040516020016143ca929190615038565b6040516020818303038152906040529392505050565b600082600001828154811061440557634e487b7160e01b600052603260045260246000fd5b9060005260206000200154905092915050565b6001600160a01b03821661446e5760405162461bcd60e51b815260206004820181905260248201527f4552433732313a206d696e7420746f20746865207a65726f20616464726573736044820152606401610975565b6144778161283d565b156144c35760405162461bcd60e51b815260206004820152601c60248201527b115490cdcc8c4e881d1bdad95b88185b1c9958591e481b5a5b9d195960221b6044820152606401610975565b6144cf60008383613f5e565b6001600160a01b03821660009081526003602052604081208054600192906144f89084906153e3565b909155505060008181526002602052604080822080546001600160a01b0319166001600160a01b03861690811790915590518392906000805160206155a0833981519152908290a45050565b600061260583836147be565b6000818152600b60205260408120905b8154811015610aa65781600101600083600001838154811061459257634e487b7160e01b600052603260045260246000fd5b60009182526020808320909101546001600160a01b0316835282019290925260400181205581548290829081106145d957634e487b7160e01b600052603260045260246000fd5b600091825260209091200180546001600160a01b0319169055806145fc816154bd565b915050614560565b6000612605838361480d565b600061461b826114f2565b905061462981600084613f5e565b61463460008361285a565b6001600160a01b038116600090815260036020526040812080546001929061465d90849061542e565b909155505060008281526002602052604080822080546001600160a01b0319169055518391906001600160a01b038416906000805160206155a0833981519152908390a45050565b6060816146c95750506040805180820190915260018152600360fc1b602082015290565b8160005b81156146f357806146dd816154bd565b91506146ec9050600a836153fb565b91506146cd565b6000816001600160401b0381111561471b57634e487b7160e01b600052604160045260246000fd5b6040519080825280601f01601f191660200182016040528015614745576020820181803683370190505b5090505b84156130f35761475a60018361542e565b9150614767600a866154d8565b6147729060306153e3565b60f81b81838151811061479557634e487b7160e01b600052603260045260246000fd5b60200101906001600160f81b031916908160001a9053506147b7600a866153fb565b9450614749565b600081815260018301602052604081205461480557508154600181810184556000848152602080822090930184905584548482528286019093526040902091909155610830565b506000610830565b6000818152600183016020526040812054801561492057600061483160018361542e565b85549091506000906148459060019061542e565b90508181146148c657600086600001828154811061487357634e487b7160e01b600052603260045260246000fd5b90600052602060002001549050808760000184815481106148a457634e487b7160e01b600052603260045260246000fd5b6000918252602080832090910192909255918252600188019052604090208390555b85548690806148e557634e487b7160e01b600052603160045260246000fd5b600190038181906000526020600020016000905590558560010160008681526020019081526020016000206000905560019350505050610830565b6000915050610830565b6040805160e08101909152806000815260200160008152602001600081526020016000815260200160008152602001600081526020016000600281111561498157634e487b7160e01b600052602160045260246000fd5b905290565b82805461499290615488565b90600052602060002090601f0160209004810192826149b457600085556149fa565b82601f106149cd57805160ff19168380011785556149fa565b828001600101855582156149fa579182015b828111156149fa5782518255916020019190600101906149df565b50614a06929150614a0a565b5090565b5b80821115614a065760008155600101614a0b565b60006001600160401b0380841115614a3957614a3961552e565b604051601f8501601f19908116603f01168101908282118183101715614a6157614a6161552e565b81604052809350858152868686011115614a7a57600080fd5b858560208301376000602087830101525050509392505050565b60008083601f840112614aa5578182fd5b5081356001600160401b03811115614abb578182fd5b6020830191508360208260051b8501011115614ad657600080fd5b9250929050565b600060208284031215614aee578081fd5b813561260581615544565b600060208284031215614b0a578081fd5b815161260581615544565b60008060408385031215614b27578081fd5b8235614b3281615544565b91506020830135614b4281615544565b809150509250929050565b600080600060608486031215614b61578081fd5b8335614b6c81615544565b92506020840135614b7c81615544565b929592945050506040919091013590565b60008060008060808587031215614ba2578081fd5b8435614bad81615544565b93506020850135614bbd81615544565b92506040850135915060608501356001600160401b03811115614bde578182fd5b8501601f81018713614bee578182fd5b614bfd87823560208401614a1f565b91505092959194509250565b60008060008060808587031215614c1e578384fd5b8435614c2981615544565b93506020850135614c3981615544565b93969395505050506040820135916060013590565b600080600080600060a08688031215614c65578081fd5b8535614c7081615544565b94506020860135614c8081615544565b94979496505050506040830135926060810135926080909101359150565b60008060408385031215614cb0578182fd5b8235614cbb81615544565b91506020830135614b4281615559565b60008060408385031215614cdd578182fd5b8235614ce881615544565b946020939093013593505050565b600080600060608486031215614d0a578081fd5b8335614d1581615544565b95602085013595506040909401359392505050565b60008060208385031215614d3c578182fd5b82356001600160401b03811115614d51578283fd5b614d5d85828601614a94565b90969095509350505050565b600080600060408486031215614d7d578081fd5b83356001600160401b03811115614d92578182fd5b614d9e86828701614a94565b909790965060209590950135949350505050565b600060208284031215614dc3578081fd5b815161260581615559565b600060208284031215614ddf578081fd5b5035919050565b60008060408385031215614df8578182fd5b823591506020830135614b4281615544565b600060208284031215614e1b578081fd5b813561260581615567565b600060208284031215614e37578081fd5b815161260581615567565b600060208284031215614e53578081fd5b5051919050565b600080600060408486031215614e6e578081fd5b8335925060208401356001600160401b03811115614e8a578182fd5b614e9686828701614a94565b9497909650939450505050565b600080600080600060a08688031215614eba578283fd5b853594506020860135614ecc81615559565b93506040860135614edc81615559565b92506060860135614eec81615544565b915060808601356001600160401b03811115614f06578182fd5b8601601f81018813614f16578182fd5b614f2588823560208401614a1f565b9150509295509295909350565b60008060408385031215614f44578182fd5b50508035926020909101359150565b60008060408385031215614f65578182fd5b505080516020909101519092909150565b600080600060608486031215614f8a578081fd5b8351925060208401519150604084015190509250925092565b600080600080600060a08688031215614fba578283fd5b8535945060208601359350604086013592506060860135614fda81615559565b91506080860135614fea81615559565b809150509295509295909350565b60008151808452615010816020860160208601615445565b601f01601f19169290920160200192915050565b6003811061503457615034615518565b9052565b6000835161504a818460208801615445565b83519083019061505e818360208801615445565b01949350505050565b76020b1b1b2b9b9a1b7b73a3937b61d1030b1b1b7bab73a1604d1b815260008351615099816017850160208801615445565b7001034b99036b4b9b9b4b733903937b6329607d1b60179184019182015283516150ca816028840160208801615445565b01602801949350505050565b6001600160a01b0391909116815260200190565b6001600160a01b038581168252841660208201526040810183905260806060820181905260009061511d90830184614ff8565b9695505050505050565b6001600160a01b03929092168252602082015260400190565b6020808252825182820181905260009190848201906040850190845b818110156151785783518352928401929184019160010161515c565b50909695505050505050565b60e081016004891061519857615198615518565b8882528760208301528660408301528560608301528460808301528360a08301526151c660c0830184615024565b98975050505050505050565b918252602082015260400190565b6020815260006126056020830184614ff8565b6020808252600290820152614f3960f01b604082015260600190565b60208082526032908201527f4552433732313a207472616e7366657220746f206e6f6e20455243373231526560408201527131b2b4bb32b91034b6b83632b6b2b73a32b960711b606082015260800190565b60208082526003908201526204f32360ec1b604082015260600190565b6020808252600290820152614e3760f01b604082015260600190565b6020808252818101527f4f776e61626c653a2063616c6c6572206973206e6f7420746865206f776e6572604082015260600190565b60208082526031908201527f4552433732313a207472616e736665722063616c6c6572206973206e6f74206f6040820152701ddb995c881b9bdc88185c1c1c9bdd9959607a1b606082015260800190565b6020808252600290820152614f3160f01b604082015260600190565b60208082526002908201526113cd60f21b604082015260600190565b84815260208101849052608081016153736040830185615024565b821515606083015295945050505050565b848152602081018490526080810161539f6040830185615024565b82606083015295945050505050565b8381528260208201526060604082015260006137076060830184614ff8565b9283526020830191909152604082015260600190565b600082198211156153f6576153f66154ec565b500190565b60008261540a5761540a615502565b500490565b6000816000190483118215151615615429576154296154ec565b500290565b600082821015615440576154406154ec565b500390565b60005b83811015615460578181015183820152602001615448565b838111156114ec5750506000910152565b600081615480576154806154ec565b506000190190565b600181811c9082168061549c57607f821691505b6020821081141561090757634e487b7160e01b600052602260045260246000fd5b60006000198214156154d1576154d16154ec565b5060010190565b6000826154e7576154e7615502565b500690565b634e487b7160e01b600052601160045260246000fd5b634e487b7160e01b600052601260045260246000fd5b634e487b7160e01b600052602160045260246000fd5b634e487b7160e01b600052604160045260246000fd5b6001600160a01b038116811461113557600080fd5b801515811461113557600080fd5b6001600160e01b03198116811461113557600080fdfe68747470733a2f2f676174657761792e70696e6174612e636c6f75642f697066732fddf252ad1be2c89b69c2b068fc378daa952ba7f163c4a11628f55a4df523b3ef823a343d1c899e61a4db12247636a6882bf1fefae78bef39170f8d0f5b53e456a26469706673582212206a2ba312a41ee3de6dd87787aaeebbbc134d1ae6478e117e3755e08f747851d864736f6c63430008040033",
  "language": "Solidity",
  "natspec": {
    "author": "Heisenberg",
    "kind": "dev",
    "methods": {
      "approve(address,uint256)": {
        "details": "See {IERC721-approve}."
      },
      "approvePoolToTransferTokenX()": {
        "notice": "Call this to set the max approval for tokenX transfers from the options to pool"
      },
      "balanceOf(address)": {
        "details": "See {IERC721-balanceOf}."
      },
      "create(uint256,bool,bool,address,string)": {
        "notice": "Creates a new option",
        "params": {
          "amount": "Option amount in tokenX",
          "isAbove": "Whether the price will stay above this strike or not",
          "isYes": "Whether the option isAbove or not",
          "referrer": "Referrer address"
        },
        "returns": {
          "optionID": "Created option's ID"
        }
      },
      "exercise(uint256)": {
        "notice": "Exercises an option if it was ITM at the time of expiry",
        "params": {
          "optionID": "ID of your option"
        },
        "returns": {
          "profit": "Profit sent to the user"
        }
      },
      "fees(uint256,uint256,uint256,bool,bool)": {
        "notice": "Used for getting the option's price using blackscholes",
        "params": {
          "amount": "Option amount",
          "isAbove": "whether the price will stay above this strike or not",
          "isYes": "whether the option isAbove or not",
          "period": "Option period in seconds",
          "strike": "Strike price of the option"
        },
        "returns": {
          "premium": "Amount that covers the price difference in the ITM options",
          "settlementFee": "Amount to be distributed to the Buffer token holders",
          "total": "Total price to be paid"
        }
      },
      "getApproved(uint256)": {
        "details": "See {IERC721-getApproved}."
      },
      "getRoleAdmin(bytes32)": {
        "details": "Returns the admin role that controls `role`. See {grantRole} and {revokeRole}. To change a role's admin, use {_setRoleAdmin}."
      },
      "grantRole(bytes32,address)": {
        "details": "Grants `role` to `account`. If `account` had not been already granted `role`, emits a {RoleGranted} event. Requirements: - the caller must have ``role``'s admin role."
      },
      "hasRole(bytes32,address)": {
        "details": "Returns `true` if `account` has been granted `role`."
      },
      "isApprovedForAll(address,address)": {
        "details": "See {IERC721-isApprovedForAll}."
      },
      "merge(uint256[],uint256)": {
        "notice": "Merges the options",
        "params": {
          "optionIDs": "An array of the optionsIds to be merged",
          "targetOptionID": "OptionId to be merged into"
        }
      },
      "name()": {
        "details": "See {IERC721Metadata-name}."
      },
      "owner()": {
        "details": "Returns the address of the current owner."
      },
      "ownerOf(uint256)": {
        "details": "See {IERC721-ownerOf}."
      },
      "renounceOwnership()": {
        "details": "Leaves the contract without owner. It will not be possible to call `onlyOwner` functions anymore. Can only be called by the current owner. NOTE: Renouncing ownership will leave the contract without an owner, thereby removing any functionality that is only available to the owner."
      },
      "renounceRole(bytes32,address)": {
        "details": "Revokes `role` from the calling account. Roles are often managed via {grantRole} and {revokeRole}: this function's purpose is to provide a mechanism for accounts to lose their privileges if they are compromised (such as when a trusted device is misplaced). If the calling account had been granted `role`, emits a {RoleRevoked} event. Requirements: - the caller must be `account`."
      },
      "revokeRole(bytes32,address)": {
        "details": "Revokes `role` from `account`. If `account` had been granted `role`, emits a {RoleRevoked} event. Requirements: - the caller must have ``role``'s admin role."
      },
      "safeTransferFrom(address,address,uint256)": {
        "details": "See {IERC721-safeTransferFrom}."
      },
      "safeTransferFrom(address,address,uint256,bytes)": {
        "details": "See {IERC721-safeTransferFrom}."
      },
      "setApprovalForAll(address,bool)": {
        "details": "See {IERC721-setApprovalForAll}."
      },
      "setRoundIDForExpiry(uint256)": {
        "details": "a roundId must be provided to confirm price validity, which is the first Chainlink price provided after the expiryTimestamp",
        "notice": "Sets the expiry price in the oracle",
        "params": {
          "roundId": "the first roundId after expiryTimestamp"
        },
        "returns": {
          "isCorrectRoundId": "Has the roundID been set"
        }
      },
      "split(uint256,uint256[])": {
        "notice": "Splits the option",
        "params": {
          "optionID": "OptionId to be splitted",
          "splitUnits_": "Units to be splitted into"
        },
        "returns": {
          "newOptionIDs": "An array of the splitted options"
        }
      },
      "symbol()": {
        "details": "See {IERC721Metadata-symbol}."
      },
      "tokenURI(uint256)": {
        "details": "Template code provided by OpenZepplin Code Wizard"
      },
      "transferFrom(address,address,uint256)": {
        "details": "See {IERC721-transferFrom}."
      },
      "transferFrom(address,address,uint256,uint256)": {
        "notice": "Transfer part of units of a option to target address.",
        "params": {
          "from_": "Address of the option sender",
          "optionID": "Id of the option to transfer",
          "to_": "Address of the option recipient",
          "transferUnits_": "Amount of units to transfer"
        }
      },
      "transferFrom(address,address,uint256,uint256,uint256)": {
        "notice": "Transfer part of units of a option to another option.",
        "params": {
          "from_": "Address of the option sender",
          "optionID": "Id of the option to transfer",
          "targetOptionID": "Id of the option to receive",
          "to_": "Address of the option recipient",
          "transferUnits_": "Amount of units to transfer"
        }
      },
      "transferOwnership(address)": {
        "details": "Transfers ownership of the contract to a new account (`newOwner`). Can only be called by the current owner."
      },
      "unlock(uint256)": {
        "notice": "Unlocks the locked funds if the option was OTM at the time of expiry otherwise exercises it",
        "params": {
          "optionID": "ID of the option"
        }
      },
      "unlockAll(uint256[])": {
        "notice": "Unlocks an array of options",
        "params": {
          "optionIDs": "array of options"
        }
      }
    },
    "notice": "Buffer TokenX Options Contract",
    "title": "Buffer TokenX Bidirectional (Call and Put) Options",
    "version": 1
  },
  "opcodes": "PUSH1 0x80 PUSH1 0x40 MSTORE CALLVALUE DUP1 ISZERO PUSH2 0x10 JUMPI PUSH1 0x0 DUP1 REVERT JUMPDEST POP PUSH1 0x4 CALLDATASIZE LT PUSH2 0x2A9 JUMPI PUSH1 0x0 CALLDATALOAD PUSH1 0xE0 SHR DUP1 PUSH4 0x1FFC9A7 EQ PUSH2 0x2AE JUMPI DUP1 PUSH4 0x5271A2A EQ PUSH2 0x2D6 JUMPI DUP1 PUSH4 0x6517A29 EQ PUSH2 0x2EB JUMPI DUP1 PUSH4 0x6FDDE03 EQ PUSH2 0x302 JUMPI DUP1 PUSH4 0x76D948C EQ PUSH2 0x317 JUMPI DUP1 PUSH4 0x81812FC EQ PUSH2 0x32A JUMPI DUP1 PUSH4 0x95EA7B3 EQ PUSH2 0x34A JUMPI DUP1 PUSH4 0xC5D12D0 EQ PUSH2 0x35F JUMPI DUP1 PUSH4 0x108348EB EQ PUSH2 0x372 JUMPI DUP1 PUSH4 0x16DC165B EQ PUSH2 0x385 JUMPI DUP1 PUSH4 0x16F0115B EQ PUSH2 0x398 JUMPI DUP1 PUSH4 0x23B872DD EQ PUSH2 0x3AB JUMPI DUP1 PUSH4 0x248A9CA3 EQ PUSH2 0x3BE JUMPI DUP1 PUSH4 0x263F3E7E EQ PUSH2 0x3D1 JUMPI DUP1 PUSH4 0x2F2FF15D EQ PUSH2 0x3E4 JUMPI DUP1 PUSH4 0x36568ABE EQ PUSH2 0x3F7 JUMPI DUP1 PUSH4 0x409E2205 EQ PUSH2 0x40A JUMPI DUP1 PUSH4 0x426A8493 EQ PUSH2 0x46D JUMPI DUP1 PUSH4 0x42842E0E EQ PUSH2 0x480 JUMPI DUP1 PUSH4 0x42966C68 EQ PUSH2 0x493 JUMPI DUP1 PUSH4 0x4AED53C2 EQ PUSH2 0x4A6 JUMPI DUP1 PUSH4 0x4F558E79 EQ PUSH2 0x4B9 JUMPI DUP1 PUSH4 0x6198E339 EQ PUSH2 0x4CC JUMPI DUP1 PUSH4 0x6352211E EQ PUSH2 0x4DF JUMPI DUP1 PUSH4 0x645734E6 EQ PUSH2 0x4F2 JUMPI DUP1 PUSH4 0x67807F7D EQ PUSH2 0x4FA JUMPI DUP1 PUSH4 0x689AB5AC EQ PUSH2 0x51C JUMPI DUP1 PUSH4 0x69C67247 EQ PUSH2 0x55F JUMPI DUP1 PUSH4 0x70A08231 EQ PUSH2 0x57F JUMPI DUP1 PUSH4 0x715018A6 EQ PUSH2 0x592 JUMPI DUP1 PUSH4 0x75794A3C EQ PUSH2 0x59A JUMPI DUP1 PUSH4 0x78C533CE EQ PUSH2 0x5A3 JUMPI DUP1 PUSH4 0x79502C55 EQ PUSH2 0x5C3 JUMPI DUP1 PUSH4 0x841EDC0E EQ PUSH2 0x5D6 JUMPI DUP1 PUSH4 0x8A584118 EQ PUSH2 0x5F6 JUMPI DUP1 PUSH4 0x8DA5CB5B EQ PUSH2 0x641 JUMPI DUP1 PUSH4 0x8DD7D2C1 EQ PUSH2 0x649 JUMPI DUP1 PUSH4 0x91D14854 EQ PUSH2 0x65C JUMPI DUP1 PUSH4 0x95D89B41 EQ PUSH2 0x66F JUMPI DUP1 PUSH4 0xA217FDDF EQ PUSH2 0x677 JUMPI DUP1 PUSH4 0xA22CB465 EQ PUSH2 0x67F JUMPI DUP1 PUSH4 0xA6D14C02 EQ PUSH2 0x692 JUMPI DUP1 PUSH4 0xA8800425 EQ PUSH2 0x69A JUMPI DUP1 PUSH4 0xB07F0A41 EQ PUSH2 0x6AD JUMPI DUP1 PUSH4 0xB888879E EQ PUSH2 0x6C0 JUMPI DUP1 PUSH4 0xB88D4FDE EQ PUSH2 0x6D3 JUMPI DUP1 PUSH4 0xBBE33EA5 EQ PUSH2 0x6E6 JUMPI DUP1 PUSH4 0xBECEF607 EQ PUSH2 0x6F9 JUMPI DUP1 PUSH4 0xC37E04F6 EQ PUSH2 0x70C JUMPI DUP1 PUSH4 0xC87B56DD EQ PUSH2 0x71F JUMPI DUP1 PUSH4 0xD149CC30 EQ PUSH2 0x732 JUMPI DUP1 PUSH4 0xD547741F EQ PUSH2 0x745 JUMPI DUP1 PUSH4 0xD5A0E673 EQ PUSH2 0x758 JUMPI DUP1 PUSH4 0xDBA34E97 EQ PUSH2 0x778 JUMPI DUP1 PUSH4 0xE342B598 EQ PUSH2 0x79F JUMPI DUP1 PUSH4 0xE345E0BC EQ PUSH2 0x7B2 JUMPI DUP1 PUSH4 0xE985E9C5 EQ PUSH2 0x7EC JUMPI DUP1 PUSH4 0xF2FDE38B EQ PUSH2 0x7FF JUMPI DUP1 PUSH4 0xFE99049A EQ PUSH2 0x812 JUMPI JUMPDEST PUSH1 0x0 DUP1 REVERT JUMPDEST PUSH2 0x2C1 PUSH2 0x2BC CALLDATASIZE PUSH1 0x4 PUSH2 0x4E0A JUMP JUMPDEST PUSH2 0x825 JUMP JUMPDEST PUSH1 0x40 MLOAD SWAP1 ISZERO ISZERO DUP2 MSTORE PUSH1 0x20 ADD JUMPDEST PUSH1 0x40 MLOAD DUP1 SWAP2 SUB SWAP1 RETURN JUMPDEST PUSH1 0xE SLOAD PUSH1 0x40 MLOAD PUSH1 0xFF SWAP1 SWAP2 AND DUP2 MSTORE PUSH1 0x20 ADD PUSH2 0x2CD JUMP JUMPDEST PUSH2 0x2F4 PUSH1 0xD SLOAD DUP2 JUMP JUMPDEST PUSH1 0x40 MLOAD SWAP1 DUP2 MSTORE PUSH1 0x20 ADD PUSH2 0x2CD JUMP JUMPDEST PUSH2 0x30A PUSH2 0x836 JUMP JUMPDEST PUSH1 0x40 MLOAD PUSH2 0x2CD SWAP2 SWAP1 PUSH2 0x51E0 JUMP JUMPDEST PUSH2 0x2F4 PUSH2 0x325 CALLDATASIZE PUSH1 0x4 PUSH2 0x4DCE JUMP JUMPDEST PUSH2 0x8C8 JUMP JUMPDEST PUSH2 0x33D PUSH2 0x338 CALLDATASIZE PUSH1 0x4 PUSH2 0x4DCE JUMP JUMPDEST PUSH2 0x90D JUMP JUMPDEST PUSH1 0x40 MLOAD PUSH2 0x2CD SWAP2 SWAP1 PUSH2 0x50D6 JUMP JUMPDEST PUSH2 0x35D PUSH2 0x358 CALLDATASIZE PUSH1 0x4 PUSH2 0x4CCB JUMP JUMPDEST PUSH2 0x99A JUMP JUMPDEST STOP JUMPDEST PUSH2 0x2F4 PUSH2 0x36D CALLDATASIZE PUSH1 0x4 PUSH2 0x4EA3 JUMP JUMPDEST PUSH2 0xAAB JUMP JUMPDEST PUSH1 0x12 SLOAD PUSH2 0x33D SWAP1 PUSH1 0x1 PUSH1 0x1 PUSH1 0xA0 SHL SUB AND DUP2 JUMP JUMPDEST PUSH1 0x10 SLOAD PUSH2 0x33D SWAP1 PUSH1 0x1 PUSH1 0x1 PUSH1 0xA0 SHL SUB AND DUP2 JUMP JUMPDEST PUSH1 0x19 SLOAD PUSH2 0x33D SWAP1 PUSH1 0x1 PUSH1 0x1 PUSH1 0xA0 SHL SUB AND DUP2 JUMP JUMPDEST PUSH2 0x35D PUSH2 0x3B9 CALLDATASIZE PUSH1 0x4 PUSH2 0x4B4D JUMP JUMPDEST PUSH2 0xFA1 JUMP JUMPDEST PUSH2 0x2F4 PUSH2 0x3CC CALLDATASIZE PUSH1 0x4 PUSH2 0x4DCE JUMP JUMPDEST PUSH2 0xFD2 JUMP JUMPDEST PUSH2 0x2F4 PUSH2 0x3DF CALLDATASIZE PUSH1 0x4 PUSH2 0x4DCE JUMP JUMPDEST PUSH2 0xFE7 JUMP JUMPDEST PUSH2 0x35D PUSH2 0x3F2 CALLDATASIZE PUSH1 0x4 PUSH2 0x4DE6 JUMP JUMPDEST PUSH2 0xFF9 JUMP JUMPDEST PUSH2 0x35D PUSH2 0x405 CALLDATASIZE PUSH1 0x4 PUSH2 0x4DE6 JUMP JUMPDEST PUSH2 0x1016 JUMP JUMPDEST PUSH2 0x45A PUSH2 0x418 CALLDATASIZE PUSH1 0x4 PUSH2 0x4DCE JUMP JUMPDEST PUSH1 0x16 PUSH1 0x20 MSTORE PUSH1 0x0 SWAP1 DUP2 MSTORE PUSH1 0x40 SWAP1 KECCAK256 DUP1 SLOAD PUSH1 0x1 DUP3 ADD SLOAD PUSH1 0x2 DUP4 ADD SLOAD PUSH1 0x3 DUP5 ADD SLOAD PUSH1 0x4 DUP6 ADD SLOAD PUSH1 0x5 DUP7 ADD SLOAD PUSH1 0x6 SWAP1 SWAP7 ADD SLOAD PUSH1 0xFF SWAP6 DUP7 AND SWAP7 SWAP5 SWAP6 SWAP4 SWAP5 SWAP3 SWAP4 SWAP2 SWAP3 SWAP2 AND DUP8 JUMP JUMPDEST PUSH1 0x40 MLOAD PUSH2 0x2CD SWAP8 SWAP7 SWAP6 SWAP5 SWAP4 SWAP3 SWAP2 SWAP1 PUSH2 0x5184 JUMP JUMPDEST PUSH2 0x35D PUSH2 0x47B CALLDATASIZE PUSH1 0x4 PUSH2 0x4CF6 JUMP JUMPDEST PUSH2 0x1094 JUMP JUMPDEST PUSH2 0x35D PUSH2 0x48E CALLDATASIZE PUSH1 0x4 PUSH2 0x4B4D JUMP JUMPDEST PUSH2 0x10D8 JUMP JUMPDEST PUSH2 0x35D PUSH2 0x4A1 CALLDATASIZE PUSH1 0x4 PUSH2 0x4DCE JUMP JUMPDEST PUSH2 0x10F3 JUMP JUMPDEST PUSH2 0x35D PUSH2 0x4B4 CALLDATASIZE PUSH1 0x4 PUSH2 0x4C4E JUMP JUMPDEST PUSH2 0x1138 JUMP JUMPDEST PUSH2 0x2C1 PUSH2 0x4C7 CALLDATASIZE PUSH1 0x4 PUSH2 0x4DCE JUMP JUMPDEST PUSH2 0x125A JUMP JUMPDEST PUSH2 0x35D PUSH2 0x4DA CALLDATASIZE PUSH1 0x4 PUSH2 0x4DCE JUMP JUMPDEST PUSH2 0x1265 JUMP JUMPDEST PUSH2 0x33D PUSH2 0x4ED CALLDATASIZE PUSH1 0x4 PUSH2 0x4DCE JUMP JUMPDEST PUSH2 0x14F2 JUMP JUMPDEST PUSH2 0x35D PUSH2 0x1569 JUMP JUMPDEST PUSH2 0x50D PUSH2 0x508 CALLDATASIZE PUSH1 0x4 PUSH2 0x4FA3 JUMP JUMPDEST PUSH2 0x15F3 JUMP JUMPDEST PUSH1 0x40 MLOAD PUSH2 0x2CD SWAP4 SWAP3 SWAP2 SWAP1 PUSH2 0x53CD JUMP JUMPDEST PUSH2 0x548 PUSH2 0x52A CALLDATASIZE PUSH1 0x4 PUSH2 0x4DCE JUMP JUMPDEST PUSH1 0x17 PUSH1 0x20 MSTORE PUSH1 0x0 SWAP1 DUP2 MSTORE PUSH1 0x40 SWAP1 KECCAK256 SLOAD PUSH1 0xFF DUP1 DUP3 AND SWAP2 PUSH2 0x100 SWAP1 DIV AND DUP3 JUMP JUMPDEST PUSH1 0x40 DUP1 MLOAD SWAP3 ISZERO ISZERO DUP4 MSTORE SWAP1 ISZERO ISZERO PUSH1 0x20 DUP4 ADD MSTORE ADD PUSH2 0x2CD JUMP JUMPDEST PUSH2 0x572 PUSH2 0x56D CALLDATASIZE PUSH1 0x4 PUSH2 0x4E5A JUMP JUMPDEST PUSH2 0x181D JUMP JUMPDEST PUSH1 0x40 MLOAD PUSH2 0x2CD SWAP2 SWAP1 PUSH2 0x5140 JUMP JUMPDEST PUSH2 0x2F4 PUSH2 0x58D CALLDATASIZE PUSH1 0x4 PUSH2 0x4ADD JUMP JUMPDEST PUSH2 0x1C0F JUMP JUMPDEST PUSH2 0x35D PUSH2 0x1C96 JUMP JUMPDEST PUSH2 0x2F4 PUSH1 0x15 SLOAD DUP2 JUMP JUMPDEST PUSH2 0x2F4 PUSH2 0x5B1 CALLDATASIZE PUSH1 0x4 PUSH2 0x4DCE JUMP JUMPDEST PUSH1 0xF PUSH1 0x20 MSTORE PUSH1 0x0 SWAP1 DUP2 MSTORE PUSH1 0x40 SWAP1 KECCAK256 SLOAD DUP2 JUMP JUMPDEST PUSH1 0x1A SLOAD PUSH2 0x33D SWAP1 PUSH1 0x1 PUSH1 0x1 PUSH1 0xA0 SHL SUB AND DUP2 JUMP JUMPDEST PUSH2 0x2F4 PUSH2 0x5E4 CALLDATASIZE PUSH1 0x4 PUSH2 0x4DCE JUMP JUMPDEST PUSH1 0x18 PUSH1 0x20 MSTORE PUSH1 0x0 SWAP1 DUP2 MSTORE PUSH1 0x40 SWAP1 KECCAK256 SLOAD DUP2 JUMP JUMPDEST PUSH2 0x631 PUSH2 0x604 CALLDATASIZE PUSH1 0x4 PUSH2 0x4DCE JUMP JUMPDEST PUSH1 0x1B PUSH1 0x20 MSTORE PUSH1 0x0 SWAP1 DUP2 MSTORE PUSH1 0x40 SWAP1 KECCAK256 DUP1 SLOAD PUSH1 0x1 DUP3 ADD SLOAD PUSH1 0x2 SWAP1 SWAP3 ADD SLOAD SWAP1 SWAP2 SWAP1 PUSH1 0xFF DUP1 DUP3 AND SWAP2 PUSH2 0x100 SWAP1 DIV AND DUP5 JUMP JUMPDEST PUSH1 0x40 MLOAD PUSH2 0x2CD SWAP5 SWAP4 SWAP3 SWAP2 SWAP1 PUSH2 0x5358 JUMP JUMPDEST PUSH2 0x33D PUSH2 0x1CD1 JUMP JUMPDEST PUSH2 0x2C1 PUSH2 0x657 CALLDATASIZE PUSH1 0x4 PUSH2 0x4DCE JUMP JUMPDEST PUSH2 0x1CE0 JUMP JUMPDEST PUSH2 0x2C1 PUSH2 0x66A CALLDATASIZE PUSH1 0x4 PUSH2 0x4DE6 JUMP JUMPDEST PUSH2 0x1F75 JUMP JUMPDEST PUSH2 0x30A PUSH2 0x1FA0 JUMP JUMPDEST PUSH2 0x2F4 PUSH1 0x0 DUP2 JUMP JUMPDEST PUSH2 0x35D PUSH2 0x68D CALLDATASIZE PUSH1 0x4 PUSH2 0x4C9E JUMP JUMPDEST PUSH2 0x1FAF JUMP JUMPDEST PUSH2 0x2F4 PUSH1 0x5 DUP2 JUMP JUMPDEST PUSH2 0x2F4 PUSH2 0x6A8 CALLDATASIZE PUSH1 0x4 PUSH2 0x4DCE JUMP JUMPDEST PUSH2 0x2070 JUMP JUMPDEST PUSH2 0x2F4 PUSH2 0x6BB CALLDATASIZE PUSH1 0x4 PUSH2 0x4DCE JUMP JUMPDEST PUSH2 0x2087 JUMP JUMPDEST PUSH1 0x14 SLOAD PUSH2 0x33D SWAP1 PUSH1 0x1 PUSH1 0x1 PUSH1 0xA0 SHL SUB AND DUP2 JUMP JUMPDEST PUSH2 0x35D PUSH2 0x6E1 CALLDATASIZE PUSH1 0x4 PUSH2 0x4B8D JUMP JUMPDEST PUSH2 0x238E JUMP JUMPDEST PUSH2 0x35D PUSH2 0x6F4 CALLDATASIZE PUSH1 0x4 PUSH2 0x4D69 JUMP JUMPDEST PUSH2 0x23C1 JUMP JUMPDEST PUSH2 0x2F4 PUSH2 0x707 CALLDATASIZE PUSH1 0x4 PUSH2 0x4DCE JUMP JUMPDEST PUSH2 0x25D0 JUMP JUMPDEST PUSH1 0x11 SLOAD PUSH2 0x33D SWAP1 PUSH1 0x1 PUSH1 0x1 PUSH1 0xA0 SHL SUB AND DUP2 JUMP JUMPDEST PUSH2 0x30A PUSH2 0x72D CALLDATASIZE PUSH1 0x4 PUSH2 0x4DCE JUMP JUMPDEST PUSH2 0x25E2 JUMP JUMPDEST PUSH2 0x2F4 PUSH2 0x740 CALLDATASIZE PUSH1 0x4 PUSH2 0x4F32 JUMP JUMPDEST PUSH2 0x25ED JUMP JUMPDEST PUSH2 0x35D PUSH2 0x753 CALLDATASIZE PUSH1 0x4 PUSH2 0x4DE6 JUMP JUMPDEST PUSH2 0x260C JUMP JUMPDEST PUSH2 0x2F4 PUSH2 0x766 CALLDATASIZE PUSH1 0x4 PUSH2 0x4DCE JUMP JUMPDEST PUSH1 0xA PUSH1 0x20 MSTORE PUSH1 0x0 SWAP1 DUP2 MSTORE PUSH1 0x40 SWAP1 KECCAK256 SLOAD DUP2 JUMP JUMPDEST PUSH2 0x2F4 PUSH32 0xDEB3B49547F710C56A925B6E16E3557A50FAB4DD8F243BC314F3AFBA2054EC5B DUP2 JUMP JUMPDEST PUSH2 0x35D PUSH2 0x7AD CALLDATASIZE PUSH1 0x4 PUSH2 0x4D2A JUMP JUMPDEST PUSH2 0x2629 JUMP JUMPDEST PUSH2 0x2F4 PUSH2 0x7C0 CALLDATASIZE PUSH1 0x4 PUSH2 0x4DE6 JUMP JUMPDEST PUSH1 0x0 DUP3 DUP2 MSTORE PUSH1 0xB PUSH1 0x20 SWAP1 DUP2 MSTORE PUSH1 0x40 DUP1 DUP4 KECCAK256 PUSH1 0x1 PUSH1 0x1 PUSH1 0xA0 SHL SUB DUP6 AND DUP5 MSTORE PUSH1 0x1 ADD SWAP1 SWAP2 MSTORE SWAP1 KECCAK256 SLOAD SWAP3 SWAP2 POP POP JUMP JUMPDEST PUSH2 0x2C1 PUSH2 0x7FA CALLDATASIZE PUSH1 0x4 PUSH2 0x4B15 JUMP JUMPDEST PUSH2 0x2676 JUMP JUMPDEST PUSH2 0x35D PUSH2 0x80D CALLDATASIZE PUSH1 0x4 PUSH2 0x4ADD JUMP JUMPDEST PUSH2 0x26A4 JUMP JUMPDEST PUSH2 0x2F4 PUSH2 0x820 CALLDATASIZE PUSH1 0x4 PUSH2 0x4C09 JUMP JUMPDEST PUSH2 0x2741 JUMP JUMPDEST PUSH1 0x0 PUSH2 0x830 DUP3 PUSH2 0x2818 JUMP JUMPDEST SWAP3 SWAP2 POP POP JUMP JUMPDEST PUSH1 0x60 PUSH1 0x0 DUP1 SLOAD PUSH2 0x845 SWAP1 PUSH2 0x5488 JUMP JUMPDEST DUP1 PUSH1 0x1F ADD PUSH1 0x20 DUP1 SWAP2 DIV MUL PUSH1 0x20 ADD PUSH1 0x40 MLOAD SWAP1 DUP2 ADD PUSH1 0x40 MSTORE DUP1 SWAP3 SWAP2 SWAP1 DUP2 DUP2 MSTORE PUSH1 0x20 ADD DUP3 DUP1 SLOAD PUSH2 0x871 SWAP1 PUSH2 0x5488 JUMP JUMPDEST DUP1 ISZERO PUSH2 0x8BE JUMPI DUP1 PUSH1 0x1F LT PUSH2 0x893 JUMPI PUSH2 0x100 DUP1 DUP4 SLOAD DIV MUL DUP4 MSTORE SWAP2 PUSH1 0x20 ADD SWAP2 PUSH2 0x8BE JUMP JUMPDEST DUP3 ADD SWAP2 SWAP1 PUSH1 0x0 MSTORE PUSH1 0x20 PUSH1 0x0 KECCAK256 SWAP1 JUMPDEST DUP2 SLOAD DUP2 MSTORE SWAP1 PUSH1 0x1 ADD SWAP1 PUSH1 0x20 ADD DUP1 DUP4 GT PUSH2 0x8A1 JUMPI DUP3 SWAP1 SUB PUSH1 0x1F AND DUP3 ADD SWAP2 JUMPDEST POP POP POP POP POP SWAP1 POP SWAP1 JUMP JUMPDEST PUSH1 0x0 DUP1 JUMPDEST PUSH2 0x8D5 DUP4 PUSH2 0x2070 JUMP JUMPDEST DUP2 LT ISZERO PUSH2 0x907 JUMPI PUSH2 0x8E9 PUSH2 0x707 DUP5 DUP4 PUSH2 0x25ED JUMP JUMPDEST PUSH2 0x8F3 SWAP1 DUP4 PUSH2 0x53E3 JUMP JUMPDEST SWAP2 POP DUP1 PUSH2 0x8FF DUP2 PUSH2 0x54BD JUMP JUMPDEST SWAP2 POP POP PUSH2 0x8CC JUMP JUMPDEST POP SWAP2 SWAP1 POP JUMP JUMPDEST PUSH1 0x0 PUSH2 0x918 DUP3 PUSH2 0x283D JUMP JUMPDEST PUSH2 0x97E JUMPI PUSH1 0x40 MLOAD PUSH3 0x461BCD PUSH1 0xE5 SHL DUP2 MSTORE PUSH1 0x20 PUSH1 0x4 DUP3 ADD MSTORE PUSH1 0x2C PUSH1 0x24 DUP3 ADD MSTORE PUSH32 0x4552433732313A20617070726F76656420717565727920666F72206E6F6E6578 PUSH1 0x44 DUP3 ADD MSTORE PUSH12 0x34B9BA32B73A103A37B5B2B7 PUSH1 0xA1 SHL PUSH1 0x64 DUP3 ADD MSTORE PUSH1 0x84 ADD JUMPDEST PUSH1 0x40 MLOAD DUP1 SWAP2 SUB SWAP1 REVERT JUMPDEST POP PUSH1 0x0 SWAP1 DUP2 MSTORE PUSH1 0x4 PUSH1 0x20 MSTORE PUSH1 0x40 SWAP1 KECCAK256 SLOAD PUSH1 0x1 PUSH1 0x1 PUSH1 0xA0 SHL SUB AND SWAP1 JUMP JUMPDEST PUSH1 0x0 PUSH2 0x9A5 DUP3 PUSH2 0x14F2 JUMP JUMPDEST SWAP1 POP DUP1 PUSH1 0x1 PUSH1 0x1 PUSH1 0xA0 SHL SUB AND DUP4 PUSH1 0x1 PUSH1 0x1 PUSH1 0xA0 SHL SUB AND EQ ISZERO PUSH2 0xA13 JUMPI PUSH1 0x40 MLOAD PUSH3 0x461BCD PUSH1 0xE5 SHL DUP2 MSTORE PUSH1 0x20 PUSH1 0x4 DUP3 ADD MSTORE PUSH1 0x21 PUSH1 0x24 DUP3 ADD MSTORE PUSH32 0x4552433732313A20617070726F76616C20746F2063757272656E74206F776E65 PUSH1 0x44 DUP3 ADD MSTORE PUSH1 0x39 PUSH1 0xF9 SHL PUSH1 0x64 DUP3 ADD MSTORE PUSH1 0x84 ADD PUSH2 0x975 JUMP JUMPDEST CALLER PUSH1 0x1 PUSH1 0x1 PUSH1 0xA0 SHL SUB DUP3 AND EQ DUP1 PUSH2 0xA2F JUMPI POP PUSH2 0xA2F DUP2 CALLER PUSH2 0x2676 JUMP JUMPDEST PUSH2 0xA9C JUMPI PUSH1 0x40 MLOAD PUSH3 0x461BCD PUSH1 0xE5 SHL DUP2 MSTORE PUSH1 0x20 PUSH1 0x4 DUP3 ADD MSTORE PUSH1 0x38 PUSH1 0x24 DUP3 ADD MSTORE PUSH32 0x4552433732313A20617070726F76652063616C6C6572206973206E6F74206F77 PUSH1 0x44 DUP3 ADD MSTORE PUSH24 0x1B995C881B9BDC88185C1C1C9BDD995908199BDC88185B1B PUSH1 0x42 SHL PUSH1 0x64 DUP3 ADD MSTORE PUSH1 0x84 ADD PUSH2 0x975 JUMP JUMPDEST PUSH2 0xAA6 DUP4 DUP4 PUSH2 0x285A JUMP JUMPDEST POP POP POP JUMP JUMPDEST PUSH1 0x0 PUSH1 0x2 PUSH1 0x7 SLOAD EQ ISZERO PUSH2 0xB00 JUMPI PUSH1 0x40 MLOAD PUSH3 0x461BCD PUSH1 0xE5 SHL DUP2 MSTORE PUSH1 0x20 PUSH1 0x4 DUP3 ADD MSTORE PUSH1 0x1F PUSH1 0x24 DUP3 ADD MSTORE PUSH32 0x5265656E7472616E637947756172643A207265656E7472616E742063616C6C00 PUSH1 0x44 DUP3 ADD MSTORE PUSH1 0x64 ADD PUSH2 0x975 JUMP JUMPDEST PUSH1 0x2 PUSH1 0x7 SSTORE PUSH1 0x19 SLOAD PUSH1 0x40 DUP1 MLOAD PUSH4 0xA834069B PUSH1 0xE0 SHL DUP2 MSTORE SWAP1 MLOAD PUSH1 0x0 SWAP3 PUSH1 0x1 PUSH1 0x1 PUSH1 0xA0 SHL SUB AND SWAP2 PUSH4 0xA834069B SWAP2 PUSH1 0x4 DUP1 DUP4 ADD SWAP3 PUSH1 0x20 SWAP3 SWAP2 SWAP1 DUP3 SWAP1 SUB ADD DUP2 DUP7 DUP1 EXTCODESIZE ISZERO DUP1 ISZERO PUSH2 0xB4A JUMPI PUSH1 0x0 DUP1 REVERT JUMPDEST POP GAS STATICCALL ISZERO DUP1 ISZERO PUSH2 0xB5E JUMPI RETURNDATASIZE PUSH1 0x0 DUP1 RETURNDATACOPY RETURNDATASIZE PUSH1 0x0 REVERT JUMPDEST POP POP POP POP PUSH1 0x40 MLOAD RETURNDATASIZE PUSH1 0x1F NOT PUSH1 0x1F DUP3 ADD AND DUP3 ADD DUP1 PUSH1 0x40 MSTORE POP DUP2 ADD SWAP1 PUSH2 0xB82 SWAP2 SWAP1 PUSH2 0x4E42 JUMP JUMPDEST SWAP1 POP TIMESTAMP DUP2 GT PUSH2 0xBA3 JUMPI PUSH1 0x40 MLOAD PUSH3 0x461BCD PUSH1 0xE5 SHL DUP2 MSTORE PUSH1 0x4 ADD PUSH2 0x975 SWAP1 PUSH2 0x5320 JUMP JUMPDEST PUSH1 0x0 PUSH2 0xBAF TIMESTAMP DUP4 PUSH2 0x542E JUMP JUMPDEST SWAP1 POP PUSH2 0xA8C0 DUP2 LT ISZERO PUSH2 0xBD3 JUMPI PUSH1 0x40 MLOAD PUSH3 0x461BCD PUSH1 0xE5 SHL DUP2 MSTORE PUSH1 0x4 ADD PUSH2 0x975 SWAP1 PUSH2 0x5320 JUMP JUMPDEST PUSH1 0x0 DUP1 PUSH1 0x0 PUSH2 0xC6A DUP5 DUP13 PUSH1 0x1A PUSH1 0x0 SWAP1 SLOAD SWAP1 PUSH2 0x100 EXP SWAP1 DIV PUSH1 0x1 PUSH1 0x1 PUSH1 0xA0 SHL SUB AND PUSH1 0x1 PUSH1 0x1 PUSH1 0xA0 SHL SUB AND PUSH4 0x5EE97101 PUSH1 0x40 MLOAD DUP2 PUSH4 0xFFFFFFFF AND PUSH1 0xE0 SHL DUP2 MSTORE PUSH1 0x4 ADD PUSH1 0x20 PUSH1 0x40 MLOAD DUP1 DUP4 SUB DUP2 DUP7 DUP1 EXTCODESIZE ISZERO DUP1 ISZERO PUSH2 0xC2B JUMPI PUSH1 0x0 DUP1 REVERT JUMPDEST POP GAS STATICCALL ISZERO DUP1 ISZERO PUSH2 0xC3F JUMPI RETURNDATASIZE PUSH1 0x0 DUP1 RETURNDATACOPY RETURNDATASIZE PUSH1 0x0 REVERT JUMPDEST POP POP POP POP PUSH1 0x40 MLOAD RETURNDATASIZE PUSH1 0x1F NOT PUSH1 0x1F DUP3 ADD AND DUP3 ADD DUP1 PUSH1 0x40 MSTORE POP DUP2 ADD SWAP1 PUSH2 0xC63 SWAP2 SWAP1 PUSH2 0x4E42 JUMP JUMPDEST DUP14 DUP14 PUSH2 0x15F3 JUMP JUMPDEST SWAP2 SWAP5 POP SWAP3 POP SWAP1 POP PUSH1 0x5 PUSH2 0xC7D DUP6 DUP14 PUSH2 0x540F JUMP JUMPDEST PUSH2 0xC87 SWAP2 SWAP1 PUSH2 0x540F JUMP JUMPDEST PUSH2 0xC95 DUP5 PUSH4 0x1E13380 PUSH2 0x540F JUMP JUMPDEST PUSH2 0xCA0 SWAP1 PUSH1 0x64 PUSH2 0x540F JUMP JUMPDEST GT PUSH2 0xCD2 JUMPI PUSH1 0x40 MLOAD PUSH3 0x461BCD PUSH1 0xE5 SHL DUP2 MSTORE PUSH1 0x20 PUSH1 0x4 DUP3 ADD MSTORE PUSH1 0x2 PUSH1 0x24 DUP3 ADD MSTORE PUSH2 0x2799 PUSH1 0xF1 SHL PUSH1 0x44 DUP3 ADD MSTORE PUSH1 0x64 ADD PUSH2 0x975 JUMP JUMPDEST PUSH1 0x10 SLOAD PUSH1 0x40 MLOAD PUSH4 0x23B872DD PUSH1 0xE0 SHL DUP2 MSTORE CALLER PUSH1 0x4 DUP3 ADD MSTORE ADDRESS PUSH1 0x24 DUP3 ADD MSTORE PUSH1 0x44 DUP2 ADD DUP6 SWAP1 MSTORE PUSH1 0x0 SWAP2 PUSH1 0x1 PUSH1 0x1 PUSH1 0xA0 SHL SUB AND SWAP1 PUSH4 0x23B872DD SWAP1 PUSH1 0x64 ADD PUSH1 0x20 PUSH1 0x40 MLOAD DUP1 DUP4 SUB DUP2 PUSH1 0x0 DUP8 DUP1 EXTCODESIZE ISZERO DUP1 ISZERO PUSH2 0xD25 JUMPI PUSH1 0x0 DUP1 REVERT JUMPDEST POP GAS CALL ISZERO DUP1 ISZERO PUSH2 0xD39 JUMPI RETURNDATASIZE PUSH1 0x0 DUP1 RETURNDATACOPY RETURNDATASIZE PUSH1 0x0 REVERT JUMPDEST POP POP POP POP PUSH1 0x40 MLOAD RETURNDATASIZE PUSH1 0x1F NOT PUSH1 0x1F DUP3 ADD AND DUP3 ADD DUP1 PUSH1 0x40 MSTORE POP DUP2 ADD SWAP1 PUSH2 0xD5D SWAP2 SWAP1 PUSH2 0x4DB2 JUMP JUMPDEST SWAP1 POP DUP1 PUSH2 0xD91 JUMPI PUSH1 0x40 MLOAD PUSH3 0x461BCD PUSH1 0xE5 SHL DUP2 MSTORE PUSH1 0x20 PUSH1 0x4 DUP3 ADD MSTORE PUSH1 0x2 PUSH1 0x24 DUP3 ADD MSTORE PUSH2 0x4F33 PUSH1 0xF0 SHL PUSH1 0x44 DUP3 ADD MSTORE PUSH1 0x64 ADD PUSH2 0x975 JUMP JUMPDEST PUSH1 0x1 DUP12 ISZERO ISZERO DUP2 EQ DUP1 ISZERO PUSH2 0xDA6 JUMPI POP PUSH1 0x1 DUP12 ISZERO ISZERO EQ JUMPDEST DUP1 PUSH2 0xDB8 JUMPI POP DUP12 ISZERO DUP1 ISZERO PUSH2 0xDB8 JUMPI POP DUP11 ISZERO JUMPDEST ISZERO PUSH2 0xDC1 JUMPI POP PUSH1 0x2 JUMPDEST PUSH1 0x40 DUP1 MLOAD PUSH1 0xE0 DUP2 ADD DUP3 MSTORE PUSH1 0x1 DUP2 MSTORE PUSH1 0x1A SLOAD DUP3 MLOAD PUSH4 0x5EE97101 PUSH1 0xE0 SHL DUP2 MSTORE SWAP3 MLOAD PUSH1 0x0 SWAP4 PUSH1 0x20 DUP1 DUP6 ADD SWAP4 PUSH1 0x1 PUSH1 0x1 PUSH1 0xA0 SHL SUB AND SWAP3 PUSH4 0x5EE97101 SWAP3 PUSH1 0x4 DUP1 DUP3 ADD SWAP4 SWAP3 SWAP2 DUP3 SWAP1 SUB ADD DUP2 DUP7 DUP1 EXTCODESIZE ISZERO DUP1 ISZERO PUSH2 0xE15 JUMPI PUSH1 0x0 DUP1 REVERT JUMPDEST POP GAS STATICCALL ISZERO DUP1 ISZERO PUSH2 0xE29 JUMPI RETURNDATASIZE PUSH1 0x0 DUP1 RETURNDATACOPY RETURNDATASIZE PUSH1 0x0 REVERT JUMPDEST POP POP POP POP PUSH1 0x40 MLOAD RETURNDATASIZE PUSH1 0x1F NOT PUSH1 0x1F DUP3 ADD AND DUP3 ADD DUP1 PUSH1 0x40 MSTORE POP DUP2 ADD SWAP1 PUSH2 0xE4D SWAP2 SWAP1 PUSH2 0x4E42 JUMP JUMPDEST DUP2 MSTORE PUSH1 0x20 ADD DUP16 DUP2 MSTORE PUSH1 0x20 ADD DUP16 DUP2 MSTORE PUSH1 0x20 ADD DUP6 DUP2 MSTORE PUSH1 0x20 ADD DUP9 TIMESTAMP PUSH2 0xE70 SWAP2 SWAP1 PUSH2 0x53E3 JUMP JUMPDEST DUP2 MSTORE PUSH1 0x20 ADD DUP4 PUSH1 0x2 DUP2 GT ISZERO PUSH2 0xE95 JUMPI PUSH4 0x4E487B71 PUSH1 0xE0 SHL PUSH1 0x0 MSTORE PUSH1 0x21 PUSH1 0x4 MSTORE PUSH1 0x24 PUSH1 0x0 REVERT JUMPDEST SWAP1 MSTORE SWAP1 POP PUSH2 0xEA1 PUSH2 0x28C8 JUMP JUMPDEST PUSH1 0x40 DUP1 MLOAD DUP1 DUP3 ADD DUP3 MSTORE DUP16 ISZERO ISZERO DUP2 MSTORE DUP15 ISZERO ISZERO PUSH1 0x20 DUP1 DUP4 ADD SWAP2 DUP3 MSTORE PUSH1 0x0 DUP6 DUP2 MSTORE PUSH1 0x17 SWAP1 SWAP2 MSTORE SWAP3 SWAP1 SWAP3 KECCAK256 SWAP1 MLOAD DUP2 SLOAD SWAP3 MLOAD PUSH2 0xFFFF NOT SWAP1 SWAP4 AND SWAP1 ISZERO ISZERO PUSH2 0xFF00 NOT AND OR PUSH2 0x100 SWAP3 ISZERO ISZERO SWAP3 SWAP1 SWAP3 MUL SWAP2 SWAP1 SWAP2 OR SWAP1 SSTORE SWAP9 POP PUSH2 0xEFA DUP10 DUP3 PUSH2 0x28E2 JUMP JUMPDEST PUSH2 0xF18 DUP10 CALLER PUSH2 0xF13 DUP13 DUP6 PUSH1 0x20 ADD MLOAD DUP7 PUSH1 0xA0 ADD MLOAD DUP9 PUSH2 0x299A JUMP JUMPDEST PUSH2 0x2AD8 JUMP JUMPDEST PUSH2 0xF22 DUP10 DUP12 PUSH2 0x2AFB JUMP JUMPDEST PUSH1 0x0 PUSH2 0xF2E DUP7 DUP14 PUSH2 0x2B05 JUMP JUMPDEST SWAP1 POP PUSH2 0xF43 DUP11 DUP4 PUSH1 0x60 ADD MLOAD DUP5 PUSH1 0x80 ADD MLOAD PUSH2 0x2FC6 JUMP JUMPDEST CALLER PUSH1 0x1 PUSH1 0x1 PUSH1 0xA0 SHL SUB AND DUP11 PUSH32 0x89F823A0225C73A75066E963CE2EEA7708B57680EC86102773DBD244F5412892 DUP4 DUP11 DUP16 PUSH1 0x40 MLOAD PUSH2 0xF81 SWAP4 SWAP3 SWAP2 SWAP1 PUSH2 0x53AE JUMP JUMPDEST PUSH1 0x40 MLOAD DUP1 SWAP2 SUB SWAP1 LOG3 POP POP PUSH1 0x1 PUSH1 0x7 SSTORE POP SWAP6 SWAP12 SWAP11 POP POP POP POP POP POP POP POP POP POP POP JUMP JUMPDEST PUSH2 0xFAB CALLER DUP3 PUSH2 0x3031 JUMP JUMPDEST PUSH2 0xFC7 JUMPI PUSH1 0x40 MLOAD PUSH3 0x461BCD PUSH1 0xE5 SHL DUP2 MSTORE PUSH1 0x4 ADD PUSH2 0x975 SWAP1 PUSH2 0x52CF JUMP JUMPDEST PUSH2 0xAA6 DUP4 DUP4 DUP4 PUSH2 0x30FB JUMP JUMPDEST PUSH1 0x0 SWAP1 DUP2 MSTORE PUSH1 0x8 PUSH1 0x20 MSTORE PUSH1 0x40 SWAP1 KECCAK256 PUSH1 0x1 ADD SLOAD SWAP1 JUMP JUMPDEST PUSH1 0x0 SWAP1 DUP2 MSTORE PUSH1 0xA PUSH1 0x20 MSTORE PUSH1 0x40 SWAP1 KECCAK256 SLOAD SWAP1 JUMP JUMPDEST PUSH2 0x1002 DUP3 PUSH2 0xFD2 JUMP JUMPDEST PUSH2 0x100C DUP2 CALLER PUSH2 0x3294 JUMP JUMPDEST PUSH2 0xAA6 DUP4 DUP4 PUSH2 0x32F8 JUMP JUMPDEST PUSH1 0x1 PUSH1 0x1 PUSH1 0xA0 SHL SUB DUP2 AND CALLER EQ PUSH2 0x1086 JUMPI PUSH1 0x40 MLOAD PUSH3 0x461BCD PUSH1 0xE5 SHL DUP2 MSTORE PUSH1 0x20 PUSH1 0x4 DUP3 ADD MSTORE PUSH1 0x2F PUSH1 0x24 DUP3 ADD MSTORE PUSH32 0x416363657373436F6E74726F6C3A2063616E206F6E6C792072656E6F756E6365 PUSH1 0x44 DUP3 ADD MSTORE PUSH15 0x103937B632B9903337B91039B2B633 PUSH1 0x89 SHL PUSH1 0x64 DUP3 ADD MSTORE PUSH1 0x84 ADD PUSH2 0x975 JUMP JUMPDEST PUSH2 0x1090 DUP3 DUP3 PUSH2 0x337E JUMP JUMPDEST POP POP JUMP JUMPDEST PUSH2 0x109D DUP3 PUSH2 0x14F2 JUMP JUMPDEST PUSH1 0x1 PUSH1 0x1 PUSH1 0xA0 SHL SUB AND CALLER PUSH1 0x1 PUSH1 0x1 PUSH1 0xA0 SHL SUB AND EQ PUSH2 0x10CD JUMPI PUSH1 0x40 MLOAD PUSH3 0x461BCD PUSH1 0xE5 SHL DUP2 MSTORE PUSH1 0x4 ADD PUSH2 0x975 SWAP1 PUSH2 0x51F3 JUMP JUMPDEST PUSH2 0xAA6 DUP4 DUP4 DUP4 PUSH2 0x33E5 JUMP JUMPDEST PUSH2 0xAA6 DUP4 DUP4 DUP4 PUSH1 0x40 MLOAD DUP1 PUSH1 0x20 ADD PUSH1 0x40 MSTORE DUP1 PUSH1 0x0 DUP2 MSTORE POP PUSH2 0x238E JUMP JUMPDEST PUSH2 0x10FC DUP2 PUSH2 0x14F2 JUMP JUMPDEST PUSH1 0x1 PUSH1 0x1 PUSH1 0xA0 SHL SUB AND CALLER PUSH1 0x1 PUSH1 0x1 PUSH1 0xA0 SHL SUB AND EQ PUSH2 0x112C JUMPI PUSH1 0x40 MLOAD PUSH3 0x461BCD PUSH1 0xE5 SHL DUP2 MSTORE PUSH1 0x4 ADD PUSH2 0x975 SWAP1 PUSH2 0x51F3 JUMP JUMPDEST PUSH2 0x1135 DUP2 PUSH2 0x34AA JUMP JUMPDEST POP JUMP JUMPDEST PUSH2 0x1141 DUP3 PUSH2 0x125A JUMP JUMPDEST PUSH2 0x1173 JUMPI PUSH1 0x40 MLOAD PUSH3 0x461BCD PUSH1 0xE5 SHL DUP2 MSTORE PUSH1 0x20 PUSH1 0x4 DUP3 ADD MSTORE PUSH1 0x3 PUSH1 0x24 DUP3 ADD MSTORE PUSH3 0x271899 PUSH1 0xE9 SHL PUSH1 0x44 DUP3 ADD MSTORE PUSH1 0x64 ADD PUSH2 0x975 JUMP JUMPDEST PUSH1 0x0 DUP1 PUSH1 0x0 PUSH2 0x1182 DUP7 DUP6 PUSH2 0x34C2 JUMP JUMPDEST POP SWAP3 POP SWAP3 POP SWAP3 POP PUSH1 0x0 PUSH2 0x1194 DUP7 PUSH2 0x35EF JUMP JUMPDEST SWAP1 POP PUSH2 0x11D0 DUP7 DUP3 DUP5 DUP5 PUSH1 0x60 ADD MLOAD PUSH2 0x11AB SWAP2 SWAP1 PUSH2 0x53E3 JUMP JUMPDEST DUP8 DUP6 PUSH1 0x40 ADD MLOAD PUSH2 0x11BB SWAP2 SWAP1 PUSH2 0x53E3 JUMP JUMPDEST DUP8 DUP7 PUSH1 0x80 ADD MLOAD PUSH2 0x11CB SWAP2 SWAP1 PUSH2 0x53E3 JUMP JUMPDEST PUSH2 0x36DE JUMP JUMPDEST PUSH1 0x19 SLOAD PUSH1 0x60 DUP3 ADD MLOAD PUSH1 0x80 DUP4 ADD MLOAD PUSH1 0x40 MLOAD PUSH4 0x57A5C967 PUSH1 0xE0 SHL DUP2 MSTORE SWAP4 SWAP5 POP PUSH1 0x1 PUSH1 0x1 PUSH1 0xA0 SHL SUB SWAP1 SWAP3 AND SWAP3 PUSH4 0x57A5C967 SWAP3 PUSH2 0x1210 SWAP3 DUP12 SWAP3 SWAP1 SWAP2 SWAP1 PUSH1 0x4 ADD PUSH2 0x53CD JUMP JUMPDEST PUSH1 0x0 PUSH1 0x40 MLOAD DUP1 DUP4 SUB DUP2 PUSH1 0x0 DUP8 DUP1 EXTCODESIZE ISZERO DUP1 ISZERO PUSH2 0x122A JUMPI PUSH1 0x0 DUP1 REVERT JUMPDEST POP GAS CALL ISZERO DUP1 ISZERO PUSH2 0x123E JUMPI RETURNDATASIZE PUSH1 0x0 DUP1 RETURNDATACOPY RETURNDATASIZE PUSH1 0x0 REVERT JUMPDEST POP POP POP POP PUSH2 0x124F DUP10 DUP10 DUP10 DUP10 DUP10 PUSH2 0x3710 JUMP JUMPDEST POP POP POP POP POP POP POP POP POP JUMP JUMPDEST PUSH1 0x0 PUSH2 0x830 DUP3 PUSH2 0x283D JUMP JUMPDEST PUSH1 0x0 DUP2 DUP2 MSTORE PUSH1 0x16 PUSH1 0x20 MSTORE PUSH1 0x40 SWAP1 KECCAK256 PUSH1 0x5 DUP2 ADD SLOAD TIMESTAMP LT ISZERO PUSH2 0x1297 JUMPI PUSH1 0x40 MLOAD PUSH3 0x461BCD PUSH1 0xE5 SHL DUP2 MSTORE PUSH1 0x4 ADD PUSH2 0x975 SWAP1 PUSH2 0x533C JUMP JUMPDEST PUSH1 0x1 DUP2 SLOAD PUSH1 0xFF AND PUSH1 0x3 DUP2 GT ISZERO PUSH2 0x12BD JUMPI PUSH4 0x4E487B71 PUSH1 0xE0 SHL PUSH1 0x0 MSTORE PUSH1 0x21 PUSH1 0x4 MSTORE PUSH1 0x24 PUSH1 0x0 REVERT JUMPDEST EQ PUSH2 0x12EF JUMPI PUSH1 0x40 MLOAD PUSH3 0x461BCD PUSH1 0xE5 SHL DUP2 MSTORE PUSH1 0x20 PUSH1 0x4 DUP3 ADD MSTORE PUSH1 0x2 PUSH1 0x24 DUP3 ADD MSTORE PUSH2 0x4F35 PUSH1 0xF0 SHL PUSH1 0x44 DUP3 ADD MSTORE PUSH1 0x64 ADD PUSH2 0x975 JUMP JUMPDEST PUSH1 0x5 DUP2 ADD SLOAD PUSH1 0x0 SWAP1 DUP2 MSTORE PUSH1 0x18 PUSH1 0x20 MSTORE PUSH1 0x40 SWAP1 KECCAK256 SLOAD DUP1 PUSH2 0x1320 JUMPI PUSH1 0x40 MLOAD PUSH3 0x461BCD PUSH1 0xE5 SHL DUP2 MSTORE PUSH1 0x4 ADD PUSH2 0x975 SWAP1 PUSH2 0x5261 JUMP JUMPDEST PUSH1 0x11 SLOAD PUSH1 0x12 SLOAD PUSH1 0x40 MLOAD PUSH4 0x12ADD1FD PUSH1 0xE2 SHL DUP2 MSTORE PUSH1 0x0 SWAP3 PUSH1 0x1 PUSH1 0x1 PUSH1 0xA0 SHL SUB SWAP1 DUP2 AND SWAP3 PUSH4 0x4AB747F4 SWAP3 PUSH2 0x135A SWAP3 SWAP1 SWAP2 AND SWAP1 DUP7 SWAP1 PUSH1 0x4 ADD PUSH2 0x5127 JUMP JUMPDEST PUSH1 0x40 DUP1 MLOAD DUP1 DUP4 SUB DUP2 DUP7 DUP1 EXTCODESIZE ISZERO DUP1 ISZERO PUSH2 0x1371 JUMPI PUSH1 0x0 DUP1 REVERT JUMPDEST POP GAS STATICCALL ISZERO DUP1 ISZERO PUSH2 0x1385 JUMPI RETURNDATASIZE PUSH1 0x0 DUP1 RETURNDATACOPY RETURNDATASIZE PUSH1 0x0 REVERT JUMPDEST POP POP POP POP PUSH1 0x40 MLOAD RETURNDATASIZE PUSH1 0x1F NOT PUSH1 0x1F DUP3 ADD AND DUP3 ADD DUP1 PUSH1 0x40 MSTORE POP DUP2 ADD SWAP1 PUSH2 0x13A9 SWAP2 SWAP1 PUSH2 0x4F53 JUMP JUMPDEST SWAP2 POP PUSH1 0x2 SWAP1 POP PUSH1 0x6 DUP5 ADD SLOAD PUSH1 0xFF AND PUSH1 0x2 DUP2 GT ISZERO PUSH2 0x13D6 JUMPI PUSH4 0x4E487B71 PUSH1 0xE0 SHL PUSH1 0x0 MSTORE PUSH1 0x21 PUSH1 0x4 MSTORE PUSH1 0x24 PUSH1 0x0 REVERT JUMPDEST EQ DUP1 ISZERO PUSH2 0x13E7 JUMPI POP DUP3 PUSH1 0x1 ADD SLOAD DUP2 LT ISZERO JUMPDEST DUP1 PUSH2 0x1427 JUMPI POP PUSH1 0x1 PUSH1 0x6 DUP5 ADD SLOAD PUSH1 0xFF AND PUSH1 0x2 DUP2 GT ISZERO PUSH2 0x1416 JUMPI PUSH4 0x4E487B71 PUSH1 0xE0 SHL PUSH1 0x0 MSTORE PUSH1 0x21 PUSH1 0x4 MSTORE PUSH1 0x24 PUSH1 0x0 REVERT JUMPDEST EQ DUP1 ISZERO PUSH2 0x1427 JUMPI POP DUP3 PUSH1 0x1 ADD SLOAD DUP2 GT ISZERO JUMPDEST ISZERO PUSH2 0x143B JUMPI PUSH2 0x1435 DUP5 PUSH2 0x2087 JUMP JUMPDEST POP PUSH2 0x14EC JUMP JUMPDEST DUP3 SLOAD PUSH1 0xFF NOT AND PUSH1 0x3 OR DUP4 SSTORE PUSH1 0x19 SLOAD PUSH1 0x40 MLOAD PUSH4 0x6198E339 PUSH1 0xE0 SHL DUP2 MSTORE PUSH1 0x4 DUP2 ADD DUP7 SWAP1 MSTORE PUSH1 0x1 PUSH1 0x1 PUSH1 0xA0 SHL SUB SWAP1 SWAP2 AND SWAP1 PUSH4 0x6198E339 SWAP1 PUSH1 0x24 ADD PUSH1 0x0 PUSH1 0x40 MLOAD DUP1 DUP4 SUB DUP2 PUSH1 0x0 DUP8 DUP1 EXTCODESIZE ISZERO DUP1 ISZERO PUSH2 0x148C JUMPI PUSH1 0x0 DUP1 REVERT JUMPDEST POP GAS CALL ISZERO DUP1 ISZERO PUSH2 0x14A0 JUMPI RETURNDATASIZE PUSH1 0x0 DUP1 RETURNDATACOPY RETURNDATASIZE PUSH1 0x0 REVERT JUMPDEST POP POP POP POP PUSH2 0x14AD DUP5 PUSH2 0x34AA JUMP JUMPDEST DUP4 PUSH32 0x5F36A4A575E512EB69D6D28C3B0FF98CCA7BA50AD5BF04E14094AD1D425E0D31 DUP5 PUSH1 0x4 ADD SLOAD PUSH1 0x40 MLOAD PUSH2 0x14E3 SWAP2 DUP2 MSTORE PUSH1 0x20 ADD SWAP1 JUMP JUMPDEST PUSH1 0x40 MLOAD DUP1 SWAP2 SUB SWAP1 LOG2 JUMPDEST POP POP POP POP JUMP JUMPDEST PUSH1 0x0 DUP2 DUP2 MSTORE PUSH1 0x2 PUSH1 0x20 MSTORE PUSH1 0x40 DUP2 KECCAK256 SLOAD PUSH1 0x1 PUSH1 0x1 PUSH1 0xA0 SHL SUB AND DUP1 PUSH2 0x830 JUMPI PUSH1 0x40 MLOAD PUSH3 0x461BCD PUSH1 0xE5 SHL DUP2 MSTORE PUSH1 0x20 PUSH1 0x4 DUP3 ADD MSTORE PUSH1 0x29 PUSH1 0x24 DUP3 ADD MSTORE PUSH32 0x4552433732313A206F776E657220717565727920666F72206E6F6E6578697374 PUSH1 0x44 DUP3 ADD MSTORE PUSH9 0x32B73A103A37B5B2B7 PUSH1 0xB9 SHL PUSH1 0x64 DUP3 ADD MSTORE PUSH1 0x84 ADD PUSH2 0x975 JUMP JUMPDEST PUSH1 0x10 SLOAD PUSH1 0x19 SLOAD PUSH1 0x40 MLOAD PUSH4 0x95EA7B3 PUSH1 0xE0 SHL DUP2 MSTORE PUSH1 0x1 PUSH1 0x1 PUSH1 0xA0 SHL SUB SWAP3 DUP4 AND SWAP3 PUSH4 0x95EA7B3 SWAP3 PUSH2 0x15A1 SWAP3 SWAP2 AND SWAP1 PUSH1 0x0 NOT SWAP1 PUSH1 0x4 ADD PUSH2 0x5127 JUMP JUMPDEST PUSH1 0x20 PUSH1 0x40 MLOAD DUP1 DUP4 SUB DUP2 PUSH1 0x0 DUP8 DUP1 EXTCODESIZE ISZERO DUP1 ISZERO PUSH2 0x15BB JUMPI PUSH1 0x0 DUP1 REVERT JUMPDEST POP GAS CALL ISZERO DUP1 ISZERO PUSH2 0x15CF JUMPI RETURNDATASIZE PUSH1 0x0 DUP1 RETURNDATACOPY RETURNDATASIZE PUSH1 0x0 REVERT JUMPDEST POP POP POP POP PUSH1 0x40 MLOAD RETURNDATASIZE PUSH1 0x1F NOT PUSH1 0x1F DUP3 ADD AND DUP3 ADD DUP1 PUSH1 0x40 MSTORE POP DUP2 ADD SWAP1 PUSH2 0x1135 SWAP2 SWAP1 PUSH2 0x4DB2 JUMP JUMPDEST PUSH1 0x0 DUP1 PUSH1 0x0 DUP1 PUSH1 0x14 PUSH1 0x0 SWAP1 SLOAD SWAP1 PUSH2 0x100 EXP SWAP1 DIV PUSH1 0x1 PUSH1 0x1 PUSH1 0xA0 SHL SUB AND PUSH1 0x1 PUSH1 0x1 PUSH1 0xA0 SHL SUB AND PUSH4 0x1ACF5582 PUSH1 0x40 MLOAD DUP2 PUSH4 0xFFFFFFFF AND PUSH1 0xE0 SHL DUP2 MSTORE PUSH1 0x4 ADD PUSH1 0x20 PUSH1 0x40 MLOAD DUP1 DUP4 SUB DUP2 DUP7 DUP1 EXTCODESIZE ISZERO DUP1 ISZERO PUSH2 0x1647 JUMPI PUSH1 0x0 DUP1 REVERT JUMPDEST POP GAS STATICCALL ISZERO DUP1 ISZERO PUSH2 0x165B JUMPI RETURNDATASIZE PUSH1 0x0 DUP1 RETURNDATACOPY RETURNDATASIZE PUSH1 0x0 REVERT JUMPDEST POP POP POP POP PUSH1 0x40 MLOAD RETURNDATASIZE PUSH1 0x1F NOT PUSH1 0x1F DUP3 ADD AND DUP3 ADD DUP1 PUSH1 0x40 MSTORE POP DUP2 ADD SWAP1 PUSH2 0x167F SWAP2 SWAP1 PUSH2 0x4E42 JUMP JUMPDEST PUSH1 0x11 SLOAD PUSH1 0x12 SLOAD PUSH1 0x40 MLOAD PUSH4 0x141AC1E3 PUSH1 0xE1 SHL DUP2 MSTORE SWAP3 SWAP4 POP PUSH1 0x0 SWAP3 PUSH1 0x1 PUSH1 0x1 PUSH1 0xA0 SHL SUB SWAP3 DUP4 AND SWAP3 PUSH4 0x283583C6 SWAP3 PUSH2 0x16B9 SWAP3 SWAP2 AND SWAP1 PUSH1 0x4 ADD PUSH2 0x50D6 JUMP JUMPDEST PUSH1 0x20 PUSH1 0x40 MLOAD DUP1 DUP4 SUB DUP2 DUP7 DUP1 EXTCODESIZE ISZERO DUP1 ISZERO PUSH2 0x16D1 JUMPI PUSH1 0x0 DUP1 REVERT JUMPDEST POP GAS STATICCALL ISZERO DUP1 ISZERO PUSH2 0x16E5 JUMPI RETURNDATASIZE PUSH1 0x0 DUP1 RETURNDATACOPY RETURNDATASIZE PUSH1 0x0 REVERT JUMPDEST POP POP POP POP PUSH1 0x40 MLOAD RETURNDATASIZE PUSH1 0x1F NOT PUSH1 0x1F DUP3 ADD AND DUP3 ADD DUP1 PUSH1 0x40 MSTORE POP DUP2 ADD SWAP1 PUSH2 0x1709 SWAP2 SWAP1 PUSH2 0x4E42 JUMP JUMPDEST PUSH1 0x40 DUP1 MLOAD PUSH1 0xA0 DUP2 ADD DUP3 MSTORE DUP13 DUP2 MSTORE PUSH1 0x20 DUP2 ADD DUP13 DUP2 MSTORE DUP2 DUP4 ADD DUP13 DUP2 MSTORE DUP12 ISZERO ISZERO PUSH1 0x60 DUP5 ADD SWAP1 DUP2 MSTORE DUP12 ISZERO ISZERO PUSH1 0x80 DUP6 ADD SWAP1 DUP2 MSTORE PUSH1 0x1A SLOAD PUSH1 0x19 SLOAD SWAP7 MLOAD PUSH4 0x381346F PUSH1 0xE2 SHL DUP2 MSTORE DUP7 MLOAD PUSH1 0x4 DUP3 ADD MSTORE SWAP5 MLOAD PUSH1 0x24 DUP7 ADD MSTORE SWAP3 MLOAD PUSH1 0x44 DUP6 ADD MSTORE SWAP1 MLOAD ISZERO ISZERO PUSH1 0x64 DUP5 ADD MSTORE MLOAD ISZERO ISZERO PUSH1 0x84 DUP4 ADD MSTORE PUSH1 0xA4 DUP3 ADD DUP8 SWAP1 MSTORE PUSH1 0xC4 DUP3 ADD DUP6 SWAP1 MSTORE PUSH1 0x1 PUSH1 0x1 PUSH1 0xA0 SHL SUB SWAP1 DUP2 AND PUSH1 0xE4 DUP4 ADD MSTORE SWAP1 SWAP3 AND PUSH2 0x104 DUP4 ADD MSTORE SWAP2 SWAP3 POP PUSH20 0x0 SWAP1 PUSH4 0xE04D1BC SWAP1 PUSH2 0x124 ADD PUSH1 0x60 PUSH1 0x40 MLOAD DUP1 DUP4 SUB DUP2 DUP7 DUP1 EXTCODESIZE ISZERO DUP1 ISZERO PUSH2 0x17D1 JUMPI PUSH1 0x0 DUP1 REVERT JUMPDEST POP GAS DELEGATECALL ISZERO DUP1 ISZERO PUSH2 0x17E5 JUMPI RETURNDATASIZE PUSH1 0x0 DUP1 RETURNDATACOPY RETURNDATASIZE PUSH1 0x0 REVERT JUMPDEST POP POP POP POP PUSH1 0x40 MLOAD RETURNDATASIZE PUSH1 0x1F NOT PUSH1 0x1F DUP3 ADD AND DUP3 ADD DUP1 PUSH1 0x40 MSTORE POP DUP2 ADD SWAP1 PUSH2 0x1809 SWAP2 SWAP1 PUSH2 0x4F76 JUMP JUMPDEST SWAP2 SWAP14 SWAP1 SWAP13 POP SWAP1 SWAP11 POP SWAP9 POP POP POP POP POP POP POP POP POP JUMP JUMPDEST PUSH1 0x60 DUP2 PUSH2 0x1851 JUMPI PUSH1 0x40 MLOAD PUSH3 0x461BCD PUSH1 0xE5 SHL DUP2 MSTORE PUSH1 0x20 PUSH1 0x4 DUP3 ADD MSTORE PUSH1 0x2 PUSH1 0x24 DUP3 ADD MSTORE PUSH2 0x4E31 PUSH1 0xF0 SHL PUSH1 0x44 DUP3 ADD MSTORE PUSH1 0x64 ADD PUSH2 0x975 JUMP JUMPDEST DUP2 PUSH1 0x1 PUSH1 0x1 PUSH1 0x40 SHL SUB DUP2 GT ISZERO PUSH2 0x1877 JUMPI PUSH4 0x4E487B71 PUSH1 0xE0 SHL PUSH1 0x0 MSTORE PUSH1 0x41 PUSH1 0x4 MSTORE PUSH1 0x24 PUSH1 0x0 REVERT JUMPDEST PUSH1 0x40 MLOAD SWAP1 DUP1 DUP3 MSTORE DUP1 PUSH1 0x20 MUL PUSH1 0x20 ADD DUP3 ADD PUSH1 0x40 MSTORE DUP1 ISZERO PUSH2 0x18A0 JUMPI DUP2 PUSH1 0x20 ADD PUSH1 0x20 DUP3 MUL DUP1 CALLDATASIZE DUP4 CALLDATACOPY ADD SWAP1 POP JUMPDEST POP SWAP1 POP PUSH1 0x0 PUSH2 0x18AE DUP6 PUSH2 0x35EF JUMP JUMPDEST SWAP1 POP PUSH1 0x0 PUSH2 0x18BB DUP7 PUSH2 0x25D0 JUMP JUMPDEST SWAP1 POP PUSH1 0x0 DUP1 DUP1 DUP1 JUMPDEST DUP8 DUP2 LT ISZERO PUSH2 0x1ACE JUMPI PUSH1 0x0 PUSH2 0x18D5 PUSH2 0x28C8 JUMP JUMPDEST SWAP1 POP DUP1 DUP9 DUP4 DUP2 MLOAD DUP2 LT PUSH2 0x18F8 JUMPI PUSH4 0x4E487B71 PUSH1 0xE0 SHL PUSH1 0x0 MSTORE PUSH1 0x32 PUSH1 0x4 MSTORE PUSH1 0x24 PUSH1 0x0 REVERT JUMPDEST PUSH1 0x20 MUL PUSH1 0x20 ADD ADD DUP2 DUP2 MSTORE POP POP PUSH2 0x1935 DUP12 DUP3 DUP13 DUP13 DUP7 DUP2 DUP2 LT PUSH2 0x1929 JUMPI PUSH4 0x4E487B71 PUSH1 0xE0 SHL PUSH1 0x0 MSTORE PUSH1 0x32 PUSH1 0x4 MSTORE PUSH1 0x24 PUSH1 0x0 REVERT JUMPDEST SWAP1 POP PUSH1 0x20 MUL ADD CALLDATALOAD PUSH2 0x3956 JUMP JUMPDEST PUSH1 0x0 DUP7 DUP12 DUP12 DUP6 DUP2 DUP2 LT PUSH2 0x1958 JUMPI PUSH4 0x4E487B71 PUSH1 0xE0 SHL PUSH1 0x0 MSTORE PUSH1 0x32 PUSH1 0x4 MSTORE PUSH1 0x24 PUSH1 0x0 REVERT JUMPDEST SWAP1 POP PUSH1 0x20 MUL ADD CALLDATALOAD DUP10 PUSH1 0x40 ADD MLOAD PUSH2 0x196E SWAP2 SWAP1 PUSH2 0x540F JUMP JUMPDEST PUSH2 0x1978 SWAP2 SWAP1 PUSH2 0x53FB JUMP JUMPDEST SWAP1 POP PUSH2 0x1984 DUP2 DUP8 PUSH2 0x53E3 JUMP JUMPDEST SWAP6 POP PUSH1 0x0 DUP8 DUP13 DUP13 DUP7 DUP2 DUP2 LT PUSH2 0x19A9 JUMPI PUSH4 0x4E487B71 PUSH1 0xE0 SHL PUSH1 0x0 MSTORE PUSH1 0x32 PUSH1 0x4 MSTORE PUSH1 0x24 PUSH1 0x0 REVERT JUMPDEST SWAP1 POP PUSH1 0x20 MUL ADD CALLDATALOAD DUP11 PUSH1 0x60 ADD MLOAD PUSH2 0x19BF SWAP2 SWAP1 PUSH2 0x540F JUMP JUMPDEST PUSH2 0x19C9 SWAP2 SWAP1 PUSH2 0x53FB JUMP JUMPDEST SWAP1 POP PUSH2 0x19D5 DUP2 DUP8 PUSH2 0x53E3 JUMP JUMPDEST SWAP6 POP PUSH1 0x0 DUP9 DUP14 DUP14 DUP8 DUP2 DUP2 LT PUSH2 0x19FA JUMPI PUSH4 0x4E487B71 PUSH1 0xE0 SHL PUSH1 0x0 MSTORE PUSH1 0x32 PUSH1 0x4 MSTORE PUSH1 0x24 PUSH1 0x0 REVERT JUMPDEST SWAP1 POP PUSH1 0x20 MUL ADD CALLDATALOAD DUP12 PUSH1 0x80 ADD MLOAD PUSH2 0x1A10 SWAP2 SWAP1 PUSH2 0x540F JUMP JUMPDEST PUSH2 0x1A1A SWAP2 SWAP1 PUSH2 0x53FB JUMP JUMPDEST SWAP1 POP PUSH2 0x1A26 DUP2 DUP8 PUSH2 0x53E3 JUMP JUMPDEST SWAP6 POP PUSH1 0x0 PUSH1 0x40 MLOAD DUP1 PUSH1 0xE0 ADD PUSH1 0x40 MSTORE DUP1 DUP13 PUSH1 0x0 ADD MLOAD PUSH1 0x3 DUP2 GT ISZERO PUSH2 0x1A59 JUMPI PUSH4 0x4E487B71 PUSH1 0xE0 SHL PUSH1 0x0 MSTORE PUSH1 0x21 PUSH1 0x4 MSTORE PUSH1 0x24 PUSH1 0x0 REVERT JUMPDEST DUP2 MSTORE PUSH1 0x20 ADD DUP13 PUSH1 0x20 ADD MLOAD DUP2 MSTORE PUSH1 0x20 ADD DUP6 DUP2 MSTORE PUSH1 0x20 ADD DUP5 DUP2 MSTORE PUSH1 0x20 ADD DUP4 DUP2 MSTORE PUSH1 0x20 ADD DUP13 PUSH1 0xA0 ADD MLOAD DUP2 MSTORE PUSH1 0x20 ADD DUP13 PUSH1 0xC0 ADD MLOAD PUSH1 0x2 DUP2 GT ISZERO PUSH2 0x1AA8 JUMPI PUSH4 0x4E487B71 PUSH1 0xE0 SHL PUSH1 0x0 MSTORE PUSH1 0x21 PUSH1 0x4 MSTORE PUSH1 0x24 PUSH1 0x0 REVERT JUMPDEST SWAP1 MSTORE SWAP1 POP PUSH2 0x1AB6 DUP6 DUP3 PUSH2 0x28E2 JUMP JUMPDEST POP POP POP POP POP DUP1 DUP1 PUSH2 0x1AC6 SWAP1 PUSH2 0x54BD JUMP JUMPDEST SWAP2 POP POP PUSH2 0x18C3 JUMP JUMPDEST POP PUSH2 0x1B04 DUP10 DUP7 DUP5 DUP9 PUSH1 0x60 ADD MLOAD PUSH2 0x1AE4 SWAP2 SWAP1 PUSH2 0x542E JUMP JUMPDEST DUP7 DUP10 PUSH1 0x40 ADD MLOAD PUSH2 0x1AF4 SWAP2 SWAP1 PUSH2 0x542E JUMP JUMPDEST DUP6 DUP11 PUSH1 0x80 ADD MLOAD PUSH2 0x11CB SWAP2 SWAP1 PUSH2 0x542E JUMP JUMPDEST PUSH1 0x19 SLOAD PUSH1 0x60 DUP3 ADD MLOAD PUSH1 0x80 DUP4 ADD MLOAD PUSH1 0x40 MLOAD PUSH4 0x57A5C967 PUSH1 0xE0 SHL DUP2 MSTORE SWAP4 SWAP9 POP PUSH1 0x1 PUSH1 0x1 PUSH1 0xA0 SHL SUB SWAP1 SWAP3 AND SWAP3 PUSH4 0x57A5C967 SWAP3 PUSH2 0x1B44 SWAP3 DUP15 SWAP3 SWAP1 SWAP2 SWAP1 PUSH1 0x4 ADD PUSH2 0x53CD JUMP JUMPDEST PUSH1 0x0 PUSH1 0x40 MLOAD DUP1 DUP4 SUB DUP2 PUSH1 0x0 DUP8 DUP1 EXTCODESIZE ISZERO DUP1 ISZERO PUSH2 0x1B5E JUMPI PUSH1 0x0 DUP1 REVERT JUMPDEST POP GAS CALL ISZERO DUP1 ISZERO PUSH2 0x1B72 JUMPI RETURNDATASIZE PUSH1 0x0 DUP1 RETURNDATACOPY RETURNDATASIZE PUSH1 0x0 REVERT JUMPDEST POP POP POP POP PUSH1 0x0 JUMPDEST DUP8 DUP2 LT ISZERO PUSH2 0x1C02 JUMPI PUSH1 0x0 PUSH2 0x1BB3 DUP9 DUP4 DUP2 MLOAD DUP2 LT PUSH2 0x1BA6 JUMPI PUSH4 0x4E487B71 PUSH1 0xE0 SHL PUSH1 0x0 MSTORE PUSH1 0x32 PUSH1 0x4 MSTORE PUSH1 0x24 PUSH1 0x0 REVERT JUMPDEST PUSH1 0x20 MUL PUSH1 0x20 ADD ADD MLOAD PUSH2 0x35EF JUMP JUMPDEST SWAP1 POP PUSH2 0x1BEF DUP9 DUP4 DUP2 MLOAD DUP2 LT PUSH2 0x1BD8 JUMPI PUSH4 0x4E487B71 PUSH1 0xE0 SHL PUSH1 0x0 MSTORE PUSH1 0x32 PUSH1 0x4 MSTORE PUSH1 0x24 PUSH1 0x0 REVERT JUMPDEST PUSH1 0x20 MUL PUSH1 0x20 ADD ADD MLOAD DUP3 PUSH1 0x60 ADD MLOAD DUP4 PUSH1 0x80 ADD MLOAD PUSH2 0x2FC6 JUMP JUMPDEST POP DUP1 PUSH2 0x1BFA DUP2 PUSH2 0x54BD JUMP JUMPDEST SWAP2 POP POP PUSH2 0x1B79 JUMP JUMPDEST POP POP POP POP POP POP SWAP4 SWAP3 POP POP POP JUMP JUMPDEST PUSH1 0x0 PUSH1 0x1 PUSH1 0x1 PUSH1 0xA0 SHL SUB DUP3 AND PUSH2 0x1C7A JUMPI PUSH1 0x40 MLOAD PUSH3 0x461BCD PUSH1 0xE5 SHL DUP2 MSTORE PUSH1 0x20 PUSH1 0x4 DUP3 ADD MSTORE PUSH1 0x2A PUSH1 0x24 DUP3 ADD MSTORE PUSH32 0x4552433732313A2062616C616E636520717565727920666F7220746865207A65 PUSH1 0x44 DUP3 ADD MSTORE PUSH10 0x726F2061646472657373 PUSH1 0xB0 SHL PUSH1 0x64 DUP3 ADD MSTORE PUSH1 0x84 ADD PUSH2 0x975 JUMP JUMPDEST POP PUSH1 0x1 PUSH1 0x1 PUSH1 0xA0 SHL SUB AND PUSH1 0x0 SWAP1 DUP2 MSTORE PUSH1 0x3 PUSH1 0x20 MSTORE PUSH1 0x40 SWAP1 KECCAK256 SLOAD SWAP1 JUMP JUMPDEST CALLER PUSH2 0x1C9F PUSH2 0x1CD1 JUMP JUMPDEST PUSH1 0x1 PUSH1 0x1 PUSH1 0xA0 SHL SUB AND EQ PUSH2 0x1CC5 JUMPI PUSH1 0x40 MLOAD PUSH3 0x461BCD PUSH1 0xE5 SHL DUP2 MSTORE PUSH1 0x4 ADD PUSH2 0x975 SWAP1 PUSH2 0x529A JUMP JUMPDEST PUSH2 0x1CCF PUSH1 0x0 PUSH2 0x3A80 JUMP JUMPDEST JUMP JUMPDEST PUSH1 0x6 SLOAD PUSH1 0x1 PUSH1 0x1 PUSH1 0xA0 SHL SUB AND SWAP1 JUMP JUMPDEST PUSH1 0x11 SLOAD PUSH1 0x12 SLOAD PUSH1 0x40 MLOAD PUSH4 0x12ADD1FD PUSH1 0xE2 SHL DUP2 MSTORE PUSH1 0x0 SWAP3 DUP4 SWAP3 DUP4 SWAP3 PUSH1 0x1 PUSH1 0x1 PUSH1 0xA0 SHL SUB SWAP3 DUP4 AND SWAP3 PUSH4 0x4AB747F4 SWAP3 PUSH2 0x1D1D SWAP3 SWAP2 AND SWAP1 DUP9 SWAP1 PUSH1 0x4 ADD PUSH2 0x5127 JUMP JUMPDEST PUSH1 0x40 DUP1 MLOAD DUP1 DUP4 SUB DUP2 DUP7 DUP1 EXTCODESIZE ISZERO DUP1 ISZERO PUSH2 0x1D34 JUMPI PUSH1 0x0 DUP1 REVERT JUMPDEST POP GAS STATICCALL ISZERO DUP1 ISZERO PUSH2 0x1D48 JUMPI RETURNDATASIZE PUSH1 0x0 DUP1 RETURNDATACOPY RETURNDATASIZE PUSH1 0x0 REVERT JUMPDEST POP POP POP POP PUSH1 0x40 MLOAD RETURNDATASIZE PUSH1 0x1F NOT PUSH1 0x1F DUP3 ADD AND DUP3 ADD DUP1 PUSH1 0x40 MSTORE POP DUP2 ADD SWAP1 PUSH2 0x1D6C SWAP2 SWAP1 PUSH2 0x4F53 JUMP JUMPDEST SWAP2 POP SWAP2 POP PUSH1 0x0 PUSH1 0x19 PUSH1 0x0 SWAP1 SLOAD SWAP1 PUSH2 0x100 EXP SWAP1 DIV PUSH1 0x1 PUSH1 0x1 PUSH1 0xA0 SHL SUB AND PUSH1 0x1 PUSH1 0x1 PUSH1 0xA0 SHL SUB AND PUSH4 0xA834069B PUSH1 0x40 MLOAD DUP2 PUSH4 0xFFFFFFFF AND PUSH1 0xE0 SHL DUP2 MSTORE PUSH1 0x4 ADD PUSH1 0x20 PUSH1 0x40 MLOAD DUP1 DUP4 SUB DUP2 DUP7 DUP1 EXTCODESIZE ISZERO DUP1 ISZERO PUSH2 0x1DC0 JUMPI PUSH1 0x0 DUP1 REVERT JUMPDEST POP GAS STATICCALL ISZERO DUP1 ISZERO PUSH2 0x1DD4 JUMPI RETURNDATASIZE PUSH1 0x0 DUP1 RETURNDATACOPY RETURNDATASIZE PUSH1 0x0 REVERT JUMPDEST POP POP POP POP PUSH1 0x40 MLOAD RETURNDATASIZE PUSH1 0x1F NOT PUSH1 0x1F DUP3 ADD AND DUP3 ADD DUP1 PUSH1 0x40 MSTORE POP DUP2 ADD SWAP1 PUSH2 0x1DF8 SWAP2 SWAP1 PUSH2 0x4E42 JUMP JUMPDEST SWAP1 POP DUP3 DUP2 LT PUSH2 0x1E2E JUMPI PUSH1 0x40 MLOAD PUSH3 0x461BCD PUSH1 0xE5 SHL DUP2 MSTORE PUSH1 0x20 PUSH1 0x4 DUP3 ADD MSTORE PUSH1 0x2 PUSH1 0x24 DUP3 ADD MSTORE PUSH2 0x4331 PUSH1 0xF0 SHL PUSH1 0x44 DUP3 ADD MSTORE PUSH1 0x64 ADD PUSH2 0x975 JUMP JUMPDEST PUSH1 0x0 PUSH2 0x1E3B PUSH1 0x1 DUP8 PUSH2 0x542E JUMP JUMPDEST SWAP1 POP JUMPDEST DUP5 PUSH2 0x1F6C JUMPI PUSH1 0x11 SLOAD PUSH1 0x12 SLOAD PUSH1 0x40 MLOAD PUSH4 0x12ADD1FD PUSH1 0xE2 SHL DUP2 MSTORE PUSH1 0x0 SWAP3 PUSH1 0x1 PUSH1 0x1 PUSH1 0xA0 SHL SUB SWAP1 DUP2 AND SWAP3 PUSH4 0x4AB747F4 SWAP3 PUSH2 0x1E7D SWAP3 SWAP1 SWAP2 AND SWAP1 DUP7 SWAP1 PUSH1 0x4 ADD PUSH2 0x5127 JUMP JUMPDEST PUSH1 0x40 DUP1 MLOAD DUP1 DUP4 SUB DUP2 DUP7 DUP1 EXTCODESIZE ISZERO DUP1 ISZERO PUSH2 0x1E94 JUMPI PUSH1 0x0 DUP1 REVERT JUMPDEST POP GAS STATICCALL ISZERO DUP1 ISZERO PUSH2 0x1EA8 JUMPI RETURNDATASIZE PUSH1 0x0 DUP1 RETURNDATACOPY RETURNDATASIZE PUSH1 0x0 REVERT JUMPDEST POP POP POP POP PUSH1 0x40 MLOAD RETURNDATASIZE PUSH1 0x1F NOT PUSH1 0x1F DUP3 ADD AND DUP3 ADD DUP1 PUSH1 0x40 MSTORE POP DUP2 ADD SWAP1 PUSH2 0x1ECC SWAP2 SWAP1 PUSH2 0x4F53 JUMP JUMPDEST POP SWAP1 POP DUP1 PUSH2 0x1F1B JUMPI PUSH1 0x0 DUP3 GT PUSH2 0x1F09 JUMPI PUSH1 0x40 MLOAD PUSH3 0x461BCD PUSH1 0xE5 SHL DUP2 MSTORE PUSH1 0x20 PUSH1 0x4 DUP3 ADD MSTORE PUSH1 0x2 PUSH1 0x24 DUP3 ADD MSTORE PUSH2 0x4333 PUSH1 0xF0 SHL PUSH1 0x44 DUP3 ADD MSTORE PUSH1 0x64 ADD PUSH2 0x975 JUMP JUMPDEST PUSH2 0x1F14 PUSH1 0x1 DUP4 PUSH2 0x542E JUMP JUMPDEST SWAP2 POP PUSH2 0x1F66 JUMP JUMPDEST DUP3 DUP2 GT ISZERO PUSH2 0x1F50 JUMPI PUSH1 0x40 MLOAD PUSH3 0x461BCD PUSH1 0xE5 SHL DUP2 MSTORE PUSH1 0x20 PUSH1 0x4 DUP3 ADD MSTORE PUSH1 0x2 PUSH1 0x24 DUP3 ADD MSTORE PUSH2 0x10CD PUSH1 0xF2 SHL PUSH1 0x44 DUP3 ADD MSTORE PUSH1 0x64 ADD PUSH2 0x975 JUMP JUMPDEST PUSH1 0x0 DUP4 DUP2 MSTORE PUSH1 0x18 PUSH1 0x20 MSTORE PUSH1 0x40 SWAP1 KECCAK256 DUP3 SWAP1 SSTORE PUSH1 0x1 SWAP6 POP JUMPDEST POP PUSH2 0x1E3E JUMP JUMPDEST POP POP POP POP SWAP2 SWAP1 POP JUMP JUMPDEST PUSH1 0x0 SWAP2 DUP3 MSTORE PUSH1 0x8 PUSH1 0x20 SWAP1 DUP2 MSTORE PUSH1 0x40 DUP1 DUP5 KECCAK256 PUSH1 0x1 PUSH1 0x1 PUSH1 0xA0 SHL SUB SWAP4 SWAP1 SWAP4 AND DUP5 MSTORE SWAP2 SWAP1 MSTORE SWAP1 KECCAK256 SLOAD PUSH1 0xFF AND SWAP1 JUMP JUMPDEST PUSH1 0x60 PUSH1 0x1 DUP1 SLOAD PUSH2 0x845 SWAP1 PUSH2 0x5488 JUMP JUMPDEST PUSH1 0x1 PUSH1 0x1 PUSH1 0xA0 SHL SUB DUP3 AND CALLER EQ ISZERO PUSH2 0x2004 JUMPI PUSH1 0x40 MLOAD PUSH3 0x461BCD PUSH1 0xE5 SHL DUP2 MSTORE PUSH1 0x20 PUSH1 0x4 DUP3 ADD MSTORE PUSH1 0x19 PUSH1 0x24 DUP3 ADD MSTORE PUSH25 0x22A9219B99189D1030B8383937BB32903A379031B0B63632B9 PUSH1 0x39 SHL PUSH1 0x44 DUP3 ADD MSTORE PUSH1 0x64 ADD PUSH2 0x975 JUMP JUMPDEST CALLER PUSH1 0x0 DUP2 DUP2 MSTORE PUSH1 0x5 PUSH1 0x20 SWAP1 DUP2 MSTORE PUSH1 0x40 DUP1 DUP4 KECCAK256 PUSH1 0x1 PUSH1 0x1 PUSH1 0xA0 SHL SUB DUP8 AND DUP1 DUP6 MSTORE SWAP1 DUP4 MSTORE SWAP3 DUP2 SWAP1 KECCAK256 DUP1 SLOAD PUSH1 0xFF NOT AND DUP7 ISZERO ISZERO SWAP1 DUP2 OR SWAP1 SWAP2 SSTORE SWAP1 MLOAD SWAP1 DUP2 MSTORE SWAP2 SWAP3 SWAP2 PUSH32 0x17307EAB39AB6107E8899845AD3D59BD9653F200F220920489CA2B5937696C31 SWAP2 ADD PUSH1 0x40 MLOAD DUP1 SWAP2 SUB SWAP1 LOG3 POP POP JUMP JUMPDEST PUSH1 0x0 DUP2 DUP2 MSTORE PUSH1 0xC PUSH1 0x20 MSTORE PUSH1 0x40 DUP2 KECCAK256 PUSH2 0x830 SWAP1 PUSH2 0x3AD2 JUMP JUMPDEST PUSH1 0x0 PUSH2 0x2092 DUP3 PUSH2 0x125A JUMP JUMPDEST PUSH2 0x20C4 JUMPI PUSH1 0x40 MLOAD PUSH3 0x461BCD PUSH1 0xE5 SHL DUP2 MSTORE PUSH1 0x20 PUSH1 0x4 DUP3 ADD MSTORE PUSH1 0x3 PUSH1 0x24 DUP3 ADD MSTORE PUSH3 0x4F313 PUSH1 0xEC SHL PUSH1 0x44 DUP3 ADD MSTORE PUSH1 0x64 ADD PUSH2 0x975 JUMP JUMPDEST PUSH1 0x0 DUP3 DUP2 MSTORE PUSH1 0x16 PUSH1 0x20 MSTORE PUSH1 0x40 SWAP1 KECCAK256 PUSH1 0x5 DUP2 ADD SLOAD TIMESTAMP LT ISZERO PUSH2 0x20F6 JUMPI PUSH1 0x40 MLOAD PUSH3 0x461BCD PUSH1 0xE5 SHL DUP2 MSTORE PUSH1 0x4 ADD PUSH2 0x975 SWAP1 PUSH2 0x533C JUMP JUMPDEST PUSH1 0x1 DUP2 SLOAD PUSH1 0xFF AND PUSH1 0x3 DUP2 GT ISZERO PUSH2 0x211C JUMPI PUSH4 0x4E487B71 PUSH1 0xE0 SHL PUSH1 0x0 MSTORE PUSH1 0x21 PUSH1 0x4 MSTORE PUSH1 0x24 PUSH1 0x0 REVERT JUMPDEST EQ PUSH2 0x214F JUMPI PUSH1 0x40 MLOAD PUSH3 0x461BCD PUSH1 0xE5 SHL DUP2 MSTORE PUSH1 0x20 PUSH1 0x4 DUP3 ADD MSTORE PUSH1 0x3 PUSH1 0x24 DUP3 ADD MSTORE PUSH3 0x13CC4D PUSH1 0xEA SHL PUSH1 0x44 DUP3 ADD MSTORE PUSH1 0x64 ADD PUSH2 0x975 JUMP JUMPDEST PUSH1 0x5 DUP2 ADD SLOAD PUSH1 0x0 SWAP1 DUP2 MSTORE PUSH1 0x18 PUSH1 0x20 MSTORE PUSH1 0x40 SWAP1 KECCAK256 SLOAD DUP1 PUSH2 0x2180 JUMPI PUSH1 0x40 MLOAD PUSH3 0x461BCD PUSH1 0xE5 SHL DUP2 MSTORE PUSH1 0x4 ADD PUSH2 0x975 SWAP1 PUSH2 0x5261 JUMP JUMPDEST PUSH1 0x11 SLOAD PUSH1 0x12 SLOAD PUSH1 0x40 MLOAD PUSH4 0x12ADD1FD PUSH1 0xE2 SHL DUP2 MSTORE PUSH1 0x0 SWAP3 PUSH1 0x1 PUSH1 0x1 PUSH1 0xA0 SHL SUB SWAP1 DUP2 AND SWAP3 PUSH4 0x4AB747F4 SWAP3 PUSH2 0x21BA SWAP3 SWAP1 SWAP2 AND SWAP1 DUP7 SWAP1 PUSH1 0x4 ADD PUSH2 0x5127 JUMP JUMPDEST PUSH1 0x40 DUP1 MLOAD DUP1 DUP4 SUB DUP2 DUP7 DUP1 EXTCODESIZE ISZERO DUP1 ISZERO PUSH2 0x21D1 JUMPI PUSH1 0x0 DUP1 REVERT JUMPDEST POP GAS STATICCALL ISZERO DUP1 ISZERO PUSH2 0x21E5 JUMPI RETURNDATASIZE PUSH1 0x0 DUP1 RETURNDATACOPY RETURNDATASIZE PUSH1 0x0 REVERT JUMPDEST POP POP POP POP PUSH1 0x40 MLOAD RETURNDATASIZE PUSH1 0x1F NOT PUSH1 0x1F DUP3 ADD AND DUP3 ADD DUP1 PUSH1 0x40 MSTORE POP DUP2 ADD SWAP1 PUSH2 0x2209 SWAP2 SWAP1 PUSH2 0x4F53 JUMP JUMPDEST SWAP2 POP PUSH1 0x2 SWAP1 POP PUSH1 0x6 DUP5 ADD SLOAD PUSH1 0xFF AND PUSH1 0x2 DUP2 GT ISZERO PUSH2 0x2236 JUMPI PUSH4 0x4E487B71 PUSH1 0xE0 SHL PUSH1 0x0 MSTORE PUSH1 0x21 PUSH1 0x4 MSTORE PUSH1 0x24 PUSH1 0x0 REVERT JUMPDEST EQ ISZERO PUSH2 0x227B JUMPI DUP1 DUP4 PUSH1 0x1 ADD SLOAD GT ISZERO PUSH2 0x2276 JUMPI PUSH1 0x40 MLOAD PUSH3 0x461BCD PUSH1 0xE5 SHL DUP2 MSTORE PUSH1 0x20 PUSH1 0x4 DUP3 ADD MSTORE PUSH1 0x3 PUSH1 0x24 DUP3 ADD MSTORE PUSH3 0x4F3137 PUSH1 0xE8 SHL PUSH1 0x44 DUP3 ADD MSTORE PUSH1 0x64 ADD PUSH2 0x975 JUMP JUMPDEST PUSH2 0x22B5 JUMP JUMPDEST DUP1 DUP4 PUSH1 0x1 ADD SLOAD LT ISZERO PUSH2 0x22B5 JUMPI PUSH1 0x40 MLOAD PUSH3 0x461BCD PUSH1 0xE5 SHL DUP2 MSTORE PUSH1 0x20 PUSH1 0x4 DUP3 ADD MSTORE PUSH1 0x3 PUSH1 0x24 DUP3 ADD MSTORE PUSH3 0x9E627 PUSH1 0xEB SHL PUSH1 0x44 DUP3 ADD MSTORE PUSH1 0x64 ADD PUSH2 0x975 JUMP JUMPDEST PUSH1 0x3 DUP4 ADD SLOAD PUSH1 0x19 SLOAD SWAP1 SWAP5 POP PUSH1 0x1 PUSH1 0x1 PUSH1 0xA0 SHL SUB AND PUSH4 0x81B34F15 DUP7 PUSH2 0x22D8 DUP2 PUSH2 0x14F2 JUMP JUMPDEST PUSH1 0x40 MLOAD PUSH1 0x1 PUSH1 0x1 PUSH1 0xE0 SHL SUB NOT PUSH1 0xE0 DUP6 SWAP1 SHL AND DUP2 MSTORE PUSH1 0x4 DUP2 ADD SWAP3 SWAP1 SWAP3 MSTORE PUSH1 0x1 PUSH1 0x1 PUSH1 0xA0 SHL SUB AND PUSH1 0x24 DUP3 ADD MSTORE PUSH1 0x44 DUP2 ADD DUP8 SWAP1 MSTORE PUSH1 0x64 ADD PUSH1 0x0 PUSH1 0x40 MLOAD DUP1 DUP4 SUB DUP2 PUSH1 0x0 DUP8 DUP1 EXTCODESIZE ISZERO DUP1 ISZERO PUSH2 0x2326 JUMPI PUSH1 0x0 DUP1 REVERT JUMPDEST POP GAS CALL ISZERO DUP1 ISZERO PUSH2 0x233A JUMPI RETURNDATASIZE PUSH1 0x0 DUP1 RETURNDATACOPY RETURNDATASIZE PUSH1 0x0 REVERT JUMPDEST POP POP POP POP PUSH2 0x2347 DUP6 PUSH2 0x34AA JUMP JUMPDEST DUP3 SLOAD PUSH1 0xFF NOT AND PUSH1 0x2 OR DUP4 SSTORE PUSH1 0x40 MLOAD DUP5 DUP2 MSTORE DUP6 SWAP1 PUSH31 0x84FE51C7CB34B132B7B6EB5D5A87A489F8D6D284758D00A0402C1BAD9A0DEF SWAP1 PUSH1 0x20 ADD PUSH1 0x40 MLOAD DUP1 SWAP2 SUB SWAP1 LOG2 POP POP POP SWAP2 SWAP1 POP JUMP JUMPDEST PUSH2 0x2399 CALLER JUMPDEST DUP4 PUSH2 0x3031 JUMP JUMPDEST PUSH2 0x23B5 JUMPI PUSH1 0x40 MLOAD PUSH3 0x461BCD PUSH1 0xE5 SHL DUP2 MSTORE PUSH1 0x4 ADD PUSH2 0x975 SWAP1 PUSH2 0x52CF JUMP JUMPDEST PUSH2 0x14EC DUP5 DUP5 DUP5 DUP5 PUSH2 0x3ADC JUMP JUMPDEST DUP2 PUSH2 0x23F3 JUMPI PUSH1 0x40 MLOAD PUSH3 0x461BCD PUSH1 0xE5 SHL DUP2 MSTORE PUSH1 0x20 PUSH1 0x4 DUP3 ADD MSTORE PUSH1 0x2 PUSH1 0x24 DUP3 ADD MSTORE PUSH2 0x138D PUSH1 0xF2 SHL PUSH1 0x44 DUP3 ADD MSTORE PUSH1 0x64 ADD PUSH2 0x975 JUMP JUMPDEST PUSH1 0x0 PUSH2 0x23FE DUP3 PUSH2 0x35EF JUMP JUMPDEST PUSH1 0x60 DUP2 ADD MLOAD PUSH1 0x40 DUP3 ADD MLOAD PUSH1 0x80 DUP4 ADD MLOAD SWAP3 SWAP4 POP SWAP1 SWAP2 PUSH1 0x0 JUMPDEST DUP7 DUP2 LT ISZERO PUSH2 0x2552 JUMPI PUSH1 0x0 PUSH2 0x244E DUP10 DUP10 DUP5 DUP2 DUP2 LT PUSH2 0x2442 JUMPI PUSH4 0x4E487B71 PUSH1 0xE0 SHL PUSH1 0x0 MSTORE PUSH1 0x32 PUSH1 0x4 MSTORE PUSH1 0x24 PUSH1 0x0 REVERT JUMPDEST SWAP1 POP PUSH1 0x20 MUL ADD CALLDATALOAD PUSH2 0x35EF JUMP JUMPDEST SWAP1 POP DUP1 PUSH1 0x60 ADD MLOAD DUP6 PUSH2 0x2460 SWAP2 SWAP1 PUSH2 0x53E3 JUMP JUMPDEST SWAP5 POP DUP1 PUSH1 0x40 ADD MLOAD DUP5 PUSH2 0x2472 SWAP2 SWAP1 PUSH2 0x53E3 JUMP JUMPDEST SWAP4 POP DUP1 PUSH1 0x80 ADD MLOAD DUP4 PUSH2 0x2484 SWAP2 SWAP1 PUSH2 0x53E3 JUMP JUMPDEST PUSH1 0x19 SLOAD SWAP1 SWAP4 POP PUSH1 0x1 PUSH1 0x1 PUSH1 0xA0 SHL SUB AND PUSH4 0xDBF21B0 DUP11 DUP11 DUP6 DUP2 DUP2 LT PUSH2 0x24B8 JUMPI PUSH4 0x4E487B71 PUSH1 0xE0 SHL PUSH1 0x0 MSTORE PUSH1 0x32 PUSH1 0x4 MSTORE PUSH1 0x24 PUSH1 0x0 REVERT JUMPDEST SWAP1 POP PUSH1 0x20 MUL ADD CALLDATALOAD PUSH1 0x40 MLOAD DUP3 PUSH4 0xFFFFFFFF AND PUSH1 0xE0 SHL DUP2 MSTORE PUSH1 0x4 ADD PUSH2 0x24DD SWAP2 DUP2 MSTORE PUSH1 0x20 ADD SWAP1 JUMP JUMPDEST PUSH1 0x0 PUSH1 0x40 MLOAD DUP1 DUP4 SUB DUP2 PUSH1 0x0 DUP8 DUP1 EXTCODESIZE ISZERO DUP1 ISZERO PUSH2 0x24F7 JUMPI PUSH1 0x0 DUP1 REVERT JUMPDEST POP GAS CALL ISZERO DUP1 ISZERO PUSH2 0x250B JUMPI RETURNDATASIZE PUSH1 0x0 DUP1 RETURNDATACOPY RETURNDATASIZE PUSH1 0x0 REVERT JUMPDEST POP POP POP POP PUSH2 0x253F DUP10 DUP10 DUP5 DUP2 DUP2 LT PUSH2 0x2532 JUMPI PUSH4 0x4E487B71 PUSH1 0xE0 SHL PUSH1 0x0 MSTORE PUSH1 0x32 PUSH1 0x4 MSTORE PUSH1 0x24 PUSH1 0x0 REVERT JUMPDEST SWAP1 POP PUSH1 0x20 MUL ADD CALLDATALOAD DUP9 PUSH2 0x3B0F JUMP JUMPDEST POP DUP1 PUSH2 0x254A DUP2 PUSH2 0x54BD JUMP JUMPDEST SWAP2 POP POP PUSH2 0x2415 JUMP JUMPDEST POP PUSH2 0x2560 DUP6 DUP6 DUP6 DUP6 DUP6 PUSH2 0x36DE JUMP JUMPDEST POP PUSH1 0x19 SLOAD PUSH1 0x40 MLOAD PUSH4 0x57A5C967 PUSH1 0xE0 SHL DUP2 MSTORE PUSH1 0x1 PUSH1 0x1 PUSH1 0xA0 SHL SUB SWAP1 SWAP2 AND SWAP1 PUSH4 0x57A5C967 SWAP1 PUSH2 0x2595 SWAP1 DUP9 SWAP1 DUP8 SWAP1 DUP7 SWAP1 PUSH1 0x4 ADD PUSH2 0x53CD JUMP JUMPDEST PUSH1 0x0 PUSH1 0x40 MLOAD DUP1 DUP4 SUB DUP2 PUSH1 0x0 DUP8 DUP1 EXTCODESIZE ISZERO DUP1 ISZERO PUSH2 0x25AF JUMPI PUSH1 0x0 DUP1 REVERT JUMPDEST POP GAS CALL ISZERO DUP1 ISZERO PUSH2 0x25C3 JUMPI RETURNDATASIZE PUSH1 0x0 DUP1 RETURNDATACOPY RETURNDATASIZE PUSH1 0x0 REVERT JUMPDEST POP POP POP POP POP POP POP POP POP POP POP JUMP JUMPDEST PUSH1 0x0 SWAP1 DUP2 MSTORE PUSH1 0xF PUSH1 0x20 MSTORE PUSH1 0x40 SWAP1 KECCAK256 SLOAD SWAP1 JUMP JUMPDEST PUSH1 0x60 PUSH2 0x830 DUP3 PUSH2 0x3C8B JUMP JUMPDEST PUSH1 0x0 DUP3 DUP2 MSTORE PUSH1 0xC PUSH1 0x20 MSTORE PUSH1 0x40 DUP2 KECCAK256 PUSH2 0x2605 SWAP1 DUP4 PUSH2 0x3DED JUMP JUMPDEST SWAP4 SWAP3 POP POP POP JUMP JUMPDEST PUSH2 0x2615 DUP3 PUSH2 0xFD2 JUMP JUMPDEST PUSH2 0x261F DUP2 CALLER PUSH2 0x3294 JUMP JUMPDEST PUSH2 0xAA6 DUP4 DUP4 PUSH2 0x337E JUMP JUMPDEST DUP1 PUSH1 0x0 JUMPDEST DUP2 DUP2 LT ISZERO PUSH2 0x14EC JUMPI PUSH2 0x2664 DUP5 DUP5 DUP4 DUP2 DUP2 LT PUSH2 0x2658 JUMPI PUSH4 0x4E487B71 PUSH1 0xE0 SHL PUSH1 0x0 MSTORE PUSH1 0x32 PUSH1 0x4 MSTORE PUSH1 0x24 PUSH1 0x0 REVERT JUMPDEST SWAP1 POP PUSH1 0x20 MUL ADD CALLDATALOAD PUSH2 0x1265 JUMP JUMPDEST DUP1 PUSH2 0x266E DUP2 PUSH2 0x54BD JUMP JUMPDEST SWAP2 POP POP PUSH2 0x262D JUMP JUMPDEST PUSH1 0x1 PUSH1 0x1 PUSH1 0xA0 SHL SUB SWAP2 DUP3 AND PUSH1 0x0 SWAP1 DUP2 MSTORE PUSH1 0x5 PUSH1 0x20 SWAP1 DUP2 MSTORE PUSH1 0x40 DUP1 DUP4 KECCAK256 SWAP4 SWAP1 SWAP5 AND DUP3 MSTORE SWAP2 SWAP1 SWAP2 MSTORE KECCAK256 SLOAD PUSH1 0xFF AND SWAP1 JUMP JUMPDEST CALLER PUSH2 0x26AD PUSH2 0x1CD1 JUMP JUMPDEST PUSH1 0x1 PUSH1 0x1 PUSH1 0xA0 SHL SUB AND EQ PUSH2 0x26D3 JUMPI PUSH1 0x40 MLOAD PUSH3 0x461BCD PUSH1 0xE5 SHL DUP2 MSTORE PUSH1 0x4 ADD PUSH2 0x975 SWAP1 PUSH2 0x529A JUMP JUMPDEST PUSH1 0x1 PUSH1 0x1 PUSH1 0xA0 SHL SUB DUP2 AND PUSH2 0x2738 JUMPI PUSH1 0x40 MLOAD PUSH3 0x461BCD PUSH1 0xE5 SHL DUP2 MSTORE PUSH1 0x20 PUSH1 0x4 DUP3 ADD MSTORE PUSH1 0x26 PUSH1 0x24 DUP3 ADD MSTORE PUSH32 0x4F776E61626C653A206E6577206F776E657220697320746865207A65726F2061 PUSH1 0x44 DUP3 ADD MSTORE PUSH6 0x646472657373 PUSH1 0xD0 SHL PUSH1 0x64 DUP3 ADD MSTORE PUSH1 0x84 ADD PUSH2 0x975 JUMP JUMPDEST PUSH2 0x1135 DUP2 PUSH2 0x3A80 JUMP JUMPDEST PUSH1 0x0 PUSH2 0x274B PUSH2 0x28C8 JUMP JUMPDEST SWAP1 POP PUSH1 0x0 DUP1 PUSH1 0x0 DUP1 PUSH2 0x275D DUP8 DUP8 PUSH2 0x34C2 JUMP JUMPDEST SWAP4 POP SWAP4 POP SWAP4 POP SWAP4 POP PUSH1 0x0 PUSH1 0x40 MLOAD DUP1 PUSH1 0xE0 ADD PUSH1 0x40 MSTORE DUP1 DUP4 PUSH1 0x0 ADD MLOAD PUSH1 0x3 DUP2 GT ISZERO PUSH2 0x2796 JUMPI PUSH4 0x4E487B71 PUSH1 0xE0 SHL PUSH1 0x0 MSTORE PUSH1 0x21 PUSH1 0x4 MSTORE PUSH1 0x24 PUSH1 0x0 REVERT JUMPDEST DUP2 MSTORE PUSH1 0x20 ADD DUP4 PUSH1 0x20 ADD MLOAD DUP2 MSTORE PUSH1 0x20 ADD DUP7 DUP2 MSTORE PUSH1 0x20 ADD DUP5 DUP2 MSTORE PUSH1 0x20 ADD DUP6 DUP2 MSTORE PUSH1 0x20 ADD DUP4 PUSH1 0xA0 ADD MLOAD DUP2 MSTORE PUSH1 0x20 ADD DUP4 PUSH1 0xC0 ADD MLOAD PUSH1 0x2 DUP2 GT ISZERO PUSH2 0x27E5 JUMPI PUSH4 0x4E487B71 PUSH1 0xE0 SHL PUSH1 0x0 MSTORE PUSH1 0x21 PUSH1 0x4 MSTORE PUSH1 0x24 PUSH1 0x0 REVERT JUMPDEST SWAP1 MSTORE SWAP1 POP PUSH2 0x27F3 DUP7 DUP3 PUSH2 0x28E2 JUMP JUMPDEST PUSH2 0x27FE DUP7 DUP5 DUP7 PUSH2 0x2FC6 JUMP JUMPDEST PUSH2 0x280B DUP11 DUP11 DUP11 DUP10 DUP12 PUSH2 0x3710 JUMP JUMPDEST POP POP POP POP POP SWAP5 SWAP4 POP POP POP POP JUMP JUMPDEST PUSH1 0x0 PUSH1 0x1 PUSH1 0x1 PUSH1 0xE0 SHL SUB NOT DUP3 AND PUSH4 0x7965DB0B PUSH1 0xE0 SHL EQ DUP1 PUSH2 0x830 JUMPI POP PUSH2 0x830 DUP3 PUSH2 0x3DF9 JUMP JUMPDEST PUSH1 0x0 SWAP1 DUP2 MSTORE PUSH1 0x2 PUSH1 0x20 MSTORE PUSH1 0x40 SWAP1 KECCAK256 SLOAD PUSH1 0x1 PUSH1 0x1 PUSH1 0xA0 SHL SUB AND ISZERO ISZERO SWAP1 JUMP JUMPDEST PUSH1 0x0 DUP2 DUP2 MSTORE PUSH1 0x4 PUSH1 0x20 MSTORE PUSH1 0x40 SWAP1 KECCAK256 DUP1 SLOAD PUSH1 0x1 PUSH1 0x1 PUSH1 0xA0 SHL SUB NOT AND PUSH1 0x1 PUSH1 0x1 PUSH1 0xA0 SHL SUB DUP5 AND SWAP1 DUP2 OR SWAP1 SWAP2 SSTORE DUP2 SWAP1 PUSH2 0x288F DUP3 PUSH2 0x14F2 JUMP JUMPDEST PUSH1 0x1 PUSH1 0x1 PUSH1 0xA0 SHL SUB AND PUSH32 0x8C5BE1E5EBEC7D5BD14F71427D1E84F3DD0314C0F7B2291E5B200AC8C7C3B925 PUSH1 0x40 MLOAD PUSH1 0x40 MLOAD DUP1 SWAP2 SUB SWAP1 LOG4 POP POP JUMP JUMPDEST PUSH1 0x15 DUP1 SLOAD PUSH1 0x0 SWAP2 DUP3 PUSH2 0x28D9 DUP4 PUSH2 0x54BD JUMP JUMPDEST SWAP2 SWAP1 POP SSTORE SWAP1 POP SWAP1 JUMP JUMPDEST PUSH1 0x0 DUP3 DUP2 MSTORE PUSH1 0x16 PUSH1 0x20 MSTORE PUSH1 0x40 SWAP1 KECCAK256 DUP2 MLOAD DUP2 SLOAD DUP4 SWAP3 SWAP2 SWAP1 DUP3 SWAP1 PUSH1 0xFF NOT AND PUSH1 0x1 DUP4 PUSH1 0x3 DUP2 GT ISZERO PUSH2 0x2920 JUMPI PUSH4 0x4E487B71 PUSH1 0xE0 SHL PUSH1 0x0 MSTORE PUSH1 0x21 PUSH1 0x4 MSTORE PUSH1 0x24 PUSH1 0x0 REVERT JUMPDEST MUL OR SWAP1 SSTORE POP PUSH1 0x20 DUP3 ADD MLOAD DUP2 PUSH1 0x1 ADD SSTORE PUSH1 0x40 DUP3 ADD MLOAD DUP2 PUSH1 0x2 ADD SSTORE PUSH1 0x60 DUP3 ADD MLOAD DUP2 PUSH1 0x3 ADD SSTORE PUSH1 0x80 DUP3 ADD MLOAD DUP2 PUSH1 0x4 ADD SSTORE PUSH1 0xA0 DUP3 ADD MLOAD DUP2 PUSH1 0x5 ADD SSTORE PUSH1 0xC0 DUP3 ADD MLOAD DUP2 PUSH1 0x6 ADD PUSH1 0x0 PUSH2 0x100 EXP DUP2 SLOAD DUP2 PUSH1 0xFF MUL NOT AND SWAP1 DUP4 PUSH1 0x2 DUP2 GT ISZERO PUSH2 0x298F JUMPI PUSH4 0x4E487B71 PUSH1 0xE0 SHL PUSH1 0x0 MSTORE PUSH1 0x21 PUSH1 0x4 MSTORE PUSH1 0x24 PUSH1 0x0 REVERT JUMPDEST MUL OR SWAP1 SSTORE POP POP POP POP POP JUMP JUMPDEST PUSH1 0x0 DUP4 DUP4 DUP4 DUP8 PUSH1 0x40 MLOAD PUSH1 0x20 ADD PUSH2 0x29B3 SWAP5 SWAP4 SWAP3 SWAP2 SWAP1 PUSH2 0x5384 JUMP JUMPDEST PUSH1 0x40 DUP1 MLOAD DUP1 DUP4 SUB PUSH1 0x1F NOT ADD DUP2 MSTORE SWAP2 DUP2 MSTORE DUP2 MLOAD PUSH1 0x20 SWAP3 DUP4 ADD KECCAK256 PUSH1 0x0 DUP2 DUP2 MSTORE PUSH1 0x1B SWAP1 SWAP4 MSTORE SWAP2 KECCAK256 PUSH1 0x2 ADD SLOAD SWAP1 SWAP2 POP PUSH2 0x100 SWAP1 DIV PUSH1 0xFF AND ISZERO PUSH2 0x2A19 JUMPI PUSH1 0x40 MLOAD PUSH3 0x461BCD PUSH1 0xE5 SHL DUP2 MSTORE PUSH1 0x20 PUSH1 0x4 DUP3 ADD MSTORE PUSH1 0x3 PUSH1 0x24 DUP3 ADD MSTORE PUSH3 0x138C4D PUSH1 0xEA SHL PUSH1 0x44 DUP3 ADD MSTORE PUSH1 0x64 ADD PUSH2 0x975 JUMP JUMPDEST PUSH1 0x40 MLOAD DUP1 PUSH1 0x80 ADD PUSH1 0x40 MSTORE DUP1 DUP6 DUP2 MSTORE PUSH1 0x20 ADD DUP5 DUP2 MSTORE PUSH1 0x20 ADD DUP4 PUSH1 0x2 DUP2 GT ISZERO PUSH2 0x2A50 JUMPI PUSH4 0x4E487B71 PUSH1 0xE0 SHL PUSH1 0x0 MSTORE PUSH1 0x21 PUSH1 0x4 MSTORE PUSH1 0x24 PUSH1 0x0 REVERT JUMPDEST DUP2 MSTORE PUSH1 0x1 PUSH1 0x20 SWAP2 DUP3 ADD DUP2 SWAP1 MSTORE PUSH1 0x0 DUP5 DUP2 MSTORE PUSH1 0x1B DUP4 MSTORE PUSH1 0x40 SWAP1 DUP2 SWAP1 KECCAK256 DUP5 MLOAD DUP2 SSTORE SWAP3 DUP5 ADD MLOAD DUP4 DUP4 ADD SSTORE DUP4 ADD MLOAD PUSH1 0x2 DUP1 DUP5 ADD DUP1 SLOAD SWAP3 SWAP4 SWAP1 SWAP3 PUSH1 0xFF NOT AND SWAP2 DUP5 SWAP1 DUP2 GT ISZERO PUSH2 0x2AA9 JUMPI PUSH4 0x4E487B71 PUSH1 0xE0 SHL PUSH1 0x0 MSTORE PUSH1 0x21 PUSH1 0x4 MSTORE PUSH1 0x24 PUSH1 0x0 REVERT JUMPDEST MUL OR SWAP1 SSTORE POP PUSH1 0x60 SWAP2 SWAP1 SWAP2 ADD MLOAD PUSH1 0x2 SWAP1 SWAP2 ADD DUP1 SLOAD SWAP2 ISZERO ISZERO PUSH2 0x100 MUL PUSH2 0xFF00 NOT SWAP1 SWAP3 AND SWAP2 SWAP1 SWAP2 OR SWAP1 SSTORE SWAP5 SWAP4 POP POP POP POP JUMP JUMPDEST PUSH1 0x0 DUP4 DUP2 MSTORE PUSH1 0xA PUSH1 0x20 MSTORE PUSH1 0x40 SWAP1 KECCAK256 DUP2 SWAP1 SSTORE PUSH1 0xD SLOAD PUSH2 0xAA6 SWAP1 DUP4 SWAP1 DUP6 SWAP1 DUP5 SWAP1 PUSH2 0x3E49 JUMP JUMPDEST PUSH2 0x1090 DUP3 DUP3 PUSH2 0x3ED3 JUMP JUMPDEST PUSH1 0x0 PUSH1 0x64 PUSH1 0x1A PUSH1 0x0 SWAP1 SLOAD SWAP1 PUSH2 0x100 EXP SWAP1 DIV PUSH1 0x1 PUSH1 0x1 PUSH1 0xA0 SHL SUB AND PUSH1 0x1 PUSH1 0x1 PUSH1 0xA0 SHL SUB AND PUSH4 0xCA535C3B PUSH1 0x40 MLOAD DUP2 PUSH4 0xFFFFFFFF AND PUSH1 0xE0 SHL DUP2 MSTORE PUSH1 0x4 ADD PUSH1 0x20 PUSH1 0x40 MLOAD DUP1 DUP4 SUB DUP2 DUP7 DUP1 EXTCODESIZE ISZERO DUP1 ISZERO PUSH2 0x2B57 JUMPI PUSH1 0x0 DUP1 REVERT JUMPDEST POP GAS STATICCALL ISZERO DUP1 ISZERO PUSH2 0x2B6B JUMPI RETURNDATASIZE PUSH1 0x0 DUP1 RETURNDATACOPY RETURNDATASIZE PUSH1 0x0 REVERT JUMPDEST POP POP POP POP PUSH1 0x40 MLOAD RETURNDATASIZE PUSH1 0x1F NOT PUSH1 0x1F DUP3 ADD AND DUP3 ADD DUP1 PUSH1 0x40 MSTORE POP DUP2 ADD SWAP1 PUSH2 0x2B8F SWAP2 SWAP1 PUSH2 0x4E42 JUMP JUMPDEST PUSH2 0x2B99 SWAP1 DUP6 PUSH2 0x540F JUMP JUMPDEST PUSH2 0x2BA3 SWAP2 SWAP1 PUSH2 0x53FB JUMP JUMPDEST SWAP1 POP DUP1 ISZERO PUSH2 0x2CA4 JUMPI PUSH1 0x10 SLOAD PUSH1 0x1A SLOAD PUSH1 0x40 DUP1 MLOAD PUSH4 0x605CC77 PUSH1 0xE2 SHL DUP2 MSTORE SWAP1 MLOAD PUSH1 0x1 PUSH1 0x1 PUSH1 0xA0 SHL SUB SWAP4 DUP5 AND SWAP4 PUSH4 0xA9059CBB SWAP4 AND SWAP2 PUSH4 0x181731DC SWAP2 PUSH1 0x4 DUP1 DUP4 ADD SWAP3 PUSH1 0x20 SWAP3 SWAP2 SWAP1 DUP3 SWAP1 SUB ADD DUP2 DUP7 DUP1 EXTCODESIZE ISZERO DUP1 ISZERO PUSH2 0x2BFA JUMPI PUSH1 0x0 DUP1 REVERT JUMPDEST POP GAS STATICCALL ISZERO DUP1 ISZERO PUSH2 0x2C0E JUMPI RETURNDATASIZE PUSH1 0x0 DUP1 RETURNDATACOPY RETURNDATASIZE PUSH1 0x0 REVERT JUMPDEST POP POP POP POP PUSH1 0x40 MLOAD RETURNDATASIZE PUSH1 0x1F NOT PUSH1 0x1F DUP3 ADD AND DUP3 ADD DUP1 PUSH1 0x40 MSTORE POP DUP2 ADD SWAP1 PUSH2 0x2C32 SWAP2 SWAP1 PUSH2 0x4AF9 JUMP JUMPDEST DUP4 PUSH1 0x40 MLOAD DUP4 PUSH4 0xFFFFFFFF AND PUSH1 0xE0 SHL DUP2 MSTORE PUSH1 0x4 ADD PUSH2 0x2C50 SWAP3 SWAP2 SWAP1 PUSH2 0x5127 JUMP JUMPDEST PUSH1 0x20 PUSH1 0x40 MLOAD DUP1 DUP4 SUB DUP2 PUSH1 0x0 DUP8 DUP1 EXTCODESIZE ISZERO DUP1 ISZERO PUSH2 0x2C6A JUMPI PUSH1 0x0 DUP1 REVERT JUMPDEST POP GAS CALL ISZERO DUP1 ISZERO PUSH2 0x2C7E JUMPI RETURNDATASIZE PUSH1 0x0 DUP1 RETURNDATACOPY RETURNDATASIZE PUSH1 0x0 REVERT JUMPDEST POP POP POP POP PUSH1 0x40 MLOAD RETURNDATASIZE PUSH1 0x1F NOT PUSH1 0x1F DUP3 ADD AND DUP3 ADD DUP1 PUSH1 0x40 MSTORE POP DUP2 ADD SWAP1 PUSH2 0x2CA2 SWAP2 SWAP1 PUSH2 0x4DB2 JUMP JUMPDEST POP JUMPDEST PUSH1 0x0 PUSH2 0x2CB0 DUP3 DUP6 PUSH2 0x542E JUMP JUMPDEST SWAP1 POP DUP1 ISZERO PUSH2 0x2FBF JUMPI PUSH1 0x1A SLOAD PUSH1 0x40 DUP1 MLOAD PUSH4 0x4905129F PUSH1 0xE1 SHL DUP2 MSTORE SWAP1 MLOAD PUSH1 0x0 SWAP3 PUSH1 0x1 PUSH1 0x1 PUSH1 0xA0 SHL SUB AND SWAP2 PUSH4 0x920A253E SWAP2 PUSH1 0x4 DUP1 DUP4 ADD SWAP3 PUSH1 0x20 SWAP3 SWAP2 SWAP1 DUP3 SWAP1 SUB ADD DUP2 DUP7 DUP1 EXTCODESIZE ISZERO DUP1 ISZERO PUSH2 0x2CFD JUMPI PUSH1 0x0 DUP1 REVERT JUMPDEST POP GAS STATICCALL ISZERO DUP1 ISZERO PUSH2 0x2D11 JUMPI RETURNDATASIZE PUSH1 0x0 DUP1 RETURNDATACOPY RETURNDATASIZE PUSH1 0x0 REVERT JUMPDEST POP POP POP POP PUSH1 0x40 MLOAD RETURNDATASIZE PUSH1 0x1F NOT PUSH1 0x1F DUP3 ADD AND DUP3 ADD DUP1 PUSH1 0x40 MSTORE POP DUP2 ADD SWAP1 PUSH2 0x2D35 SWAP2 SWAP1 PUSH2 0x4E42 JUMP JUMPDEST GT DUP1 ISZERO PUSH2 0x2D5B JUMPI POP PUSH2 0x2D45 PUSH2 0x1CD1 JUMP JUMPDEST PUSH1 0x1 PUSH1 0x1 PUSH1 0xA0 SHL SUB AND DUP4 PUSH1 0x1 PUSH1 0x1 PUSH1 0xA0 SHL SUB AND EQ ISZERO JUMPDEST DUP1 ISZERO PUSH2 0x2D70 JUMPI POP PUSH1 0x1 PUSH1 0x1 PUSH1 0xA0 SHL SUB DUP4 AND CALLER EQ ISZERO JUMPDEST ISZERO PUSH2 0x2EEA JUMPI PUSH1 0x0 PUSH1 0x64 PUSH1 0x1A PUSH1 0x0 SWAP1 SLOAD SWAP1 PUSH2 0x100 EXP SWAP1 DIV PUSH1 0x1 PUSH1 0x1 PUSH1 0xA0 SHL SUB AND PUSH1 0x1 PUSH1 0x1 PUSH1 0xA0 SHL SUB AND PUSH4 0x920A253E PUSH1 0x40 MLOAD DUP2 PUSH4 0xFFFFFFFF AND PUSH1 0xE0 SHL DUP2 MSTORE PUSH1 0x4 ADD PUSH1 0x20 PUSH1 0x40 MLOAD DUP1 DUP4 SUB DUP2 DUP7 DUP1 EXTCODESIZE ISZERO DUP1 ISZERO PUSH2 0x2DC7 JUMPI PUSH1 0x0 DUP1 REVERT JUMPDEST POP GAS STATICCALL ISZERO DUP1 ISZERO PUSH2 0x2DDB JUMPI RETURNDATASIZE PUSH1 0x0 DUP1 RETURNDATACOPY RETURNDATASIZE PUSH1 0x0 REVERT JUMPDEST POP POP POP POP PUSH1 0x40 MLOAD RETURNDATASIZE PUSH1 0x1F NOT PUSH1 0x1F DUP3 ADD AND DUP3 ADD DUP1 PUSH1 0x40 MSTORE POP DUP2 ADD SWAP1 PUSH2 0x2DFF SWAP2 SWAP1 PUSH2 0x4E42 JUMP JUMPDEST PUSH2 0x2E09 SWAP1 DUP5 PUSH2 0x540F JUMP JUMPDEST PUSH2 0x2E13 SWAP2 SWAP1 PUSH2 0x53FB JUMP JUMPDEST SWAP1 POP PUSH2 0x2E1F DUP2 DUP4 PUSH2 0x542E JUMP JUMPDEST PUSH1 0x10 SLOAD PUSH1 0x40 MLOAD PUSH4 0xA9059CBB PUSH1 0xE0 SHL DUP2 MSTORE SWAP2 SWAP4 POP PUSH1 0x1 PUSH1 0x1 PUSH1 0xA0 SHL SUB AND SWAP1 PUSH4 0xA9059CBB SWAP1 PUSH2 0x2E52 SWAP1 DUP8 SWAP1 DUP6 SWAP1 PUSH1 0x4 ADD PUSH2 0x5127 JUMP JUMPDEST PUSH1 0x20 PUSH1 0x40 MLOAD DUP1 DUP4 SUB DUP2 PUSH1 0x0 DUP8 DUP1 EXTCODESIZE ISZERO DUP1 ISZERO PUSH2 0x2E6C JUMPI PUSH1 0x0 DUP1 REVERT JUMPDEST POP GAS CALL ISZERO DUP1 ISZERO PUSH2 0x2E80 JUMPI RETURNDATASIZE PUSH1 0x0 DUP1 RETURNDATACOPY RETURNDATASIZE PUSH1 0x0 REVERT JUMPDEST POP POP POP POP PUSH1 0x40 MLOAD RETURNDATASIZE PUSH1 0x1F NOT PUSH1 0x1F DUP3 ADD AND DUP3 ADD DUP1 PUSH1 0x40 MSTORE POP DUP2 ADD SWAP1 PUSH2 0x2EA4 SWAP2 SWAP1 PUSH2 0x4DB2 JUMP JUMPDEST POP DUP4 PUSH1 0x1 PUSH1 0x1 PUSH1 0xA0 SHL SUB AND PUSH32 0x2FC41B7D7DF3272C17D9B581FCF235307BC027599C6ED68442C4100BD3A84198 DUP3 PUSH1 0x40 MLOAD PUSH2 0x2EE0 SWAP2 DUP2 MSTORE PUSH1 0x20 ADD SWAP1 JUMP JUMPDEST PUSH1 0x40 MLOAD DUP1 SWAP2 SUB SWAP1 LOG2 POP JUMPDEST PUSH1 0x10 SLOAD PUSH1 0x1 PUSH1 0x1 PUSH1 0xA0 SHL SUB AND PUSH4 0xA9059CBB PUSH2 0x2F03 PUSH2 0x1CD1 JUMP JUMPDEST DUP4 PUSH1 0x40 MLOAD DUP4 PUSH4 0xFFFFFFFF AND PUSH1 0xE0 SHL DUP2 MSTORE PUSH1 0x4 ADD PUSH2 0x2F21 SWAP3 SWAP2 SWAP1 PUSH2 0x5127 JUMP JUMPDEST PUSH1 0x20 PUSH1 0x40 MLOAD DUP1 DUP4 SUB DUP2 PUSH1 0x0 DUP8 DUP1 EXTCODESIZE ISZERO DUP1 ISZERO PUSH2 0x2F3B JUMPI PUSH1 0x0 DUP1 REVERT JUMPDEST POP GAS CALL ISZERO DUP1 ISZERO PUSH2 0x2F4F JUMPI RETURNDATASIZE PUSH1 0x0 DUP1 RETURNDATACOPY RETURNDATASIZE PUSH1 0x0 REVERT JUMPDEST POP POP POP POP PUSH1 0x40 MLOAD RETURNDATASIZE PUSH1 0x1F NOT PUSH1 0x1F DUP3 ADD AND DUP3 ADD DUP1 PUSH1 0x40 MSTORE POP DUP2 ADD SWAP1 PUSH2 0x2F73 SWAP2 SWAP1 PUSH2 0x4DB2 JUMP JUMPDEST POP PUSH2 0x2F7C PUSH2 0x1CD1 JUMP JUMPDEST PUSH1 0x1 PUSH1 0x1 PUSH1 0xA0 SHL SUB AND PUSH32 0xF0F0487D8990103573E0E5CF4E87E101E2A1BA84C733C556B7A5807E570E5D4C DUP3 PUSH1 0x40 MLOAD PUSH2 0x2FB6 SWAP2 DUP2 MSTORE PUSH1 0x20 ADD SWAP1 JUMP JUMPDEST PUSH1 0x40 MLOAD DUP1 SWAP2 SUB SWAP1 LOG2 JUMPDEST POP SWAP3 SWAP2 POP POP JUMP JUMPDEST PUSH1 0x19 SLOAD PUSH1 0x40 MLOAD PUSH4 0xEDD0D421 PUSH1 0xE0 SHL DUP2 MSTORE PUSH1 0x1 PUSH1 0x1 PUSH1 0xA0 SHL SUB SWAP1 SWAP2 AND SWAP1 PUSH4 0xEDD0D421 SWAP1 PUSH2 0x2FFA SWAP1 DUP7 SWAP1 DUP7 SWAP1 DUP7 SWAP1 PUSH1 0x4 ADD PUSH2 0x53CD JUMP JUMPDEST PUSH1 0x0 PUSH1 0x40 MLOAD DUP1 DUP4 SUB DUP2 PUSH1 0x0 DUP8 DUP1 EXTCODESIZE ISZERO DUP1 ISZERO PUSH2 0x3014 JUMPI PUSH1 0x0 DUP1 REVERT JUMPDEST POP GAS CALL ISZERO DUP1 ISZERO PUSH2 0x3028 JUMPI RETURNDATASIZE PUSH1 0x0 DUP1 RETURNDATACOPY RETURNDATASIZE PUSH1 0x0 REVERT JUMPDEST POP POP POP POP POP POP POP JUMP JUMPDEST PUSH1 0x0 PUSH2 0x303C DUP3 PUSH2 0x283D JUMP JUMPDEST PUSH2 0x309D JUMPI PUSH1 0x40 MLOAD PUSH3 0x461BCD PUSH1 0xE5 SHL DUP2 MSTORE PUSH1 0x20 PUSH1 0x4 DUP3 ADD MSTORE PUSH1 0x2C PUSH1 0x24 DUP3 ADD MSTORE PUSH32 0x4552433732313A206F70657261746F7220717565727920666F72206E6F6E6578 PUSH1 0x44 DUP3 ADD MSTORE PUSH12 0x34B9BA32B73A103A37B5B2B7 PUSH1 0xA1 SHL PUSH1 0x64 DUP3 ADD MSTORE PUSH1 0x84 ADD PUSH2 0x975 JUMP JUMPDEST PUSH1 0x0 PUSH2 0x30A8 DUP4 PUSH2 0x14F2 JUMP JUMPDEST SWAP1 POP DUP1 PUSH1 0x1 PUSH1 0x1 PUSH1 0xA0 SHL SUB AND DUP5 PUSH1 0x1 PUSH1 0x1 PUSH1 0xA0 SHL SUB AND EQ DUP1 PUSH2 0x30E3 JUMPI POP DUP4 PUSH1 0x1 PUSH1 0x1 PUSH1 0xA0 SHL SUB AND PUSH2 0x30D8 DUP5 PUSH2 0x90D JUMP JUMPDEST PUSH1 0x1 PUSH1 0x1 PUSH1 0xA0 SHL SUB AND EQ JUMPDEST DUP1 PUSH2 0x30F3 JUMPI POP PUSH2 0x30F3 DUP2 DUP6 PUSH2 0x2676 JUMP JUMPDEST SWAP5 SWAP4 POP POP POP POP JUMP JUMPDEST DUP3 PUSH1 0x1 PUSH1 0x1 PUSH1 0xA0 SHL SUB AND PUSH2 0x310E DUP3 PUSH2 0x14F2 JUMP JUMPDEST PUSH1 0x1 PUSH1 0x1 PUSH1 0xA0 SHL SUB AND EQ PUSH2 0x3176 JUMPI PUSH1 0x40 MLOAD PUSH3 0x461BCD PUSH1 0xE5 SHL DUP2 MSTORE PUSH1 0x20 PUSH1 0x4 DUP3 ADD MSTORE PUSH1 0x29 PUSH1 0x24 DUP3 ADD MSTORE PUSH32 0x4552433732313A207472616E73666572206F6620746F6B656E20746861742069 PUSH1 0x44 DUP3 ADD MSTORE PUSH9 0x39903737BA1037BBB7 PUSH1 0xB9 SHL PUSH1 0x64 DUP3 ADD MSTORE PUSH1 0x84 ADD PUSH2 0x975 JUMP JUMPDEST PUSH1 0x1 PUSH1 0x1 PUSH1 0xA0 SHL SUB DUP3 AND PUSH2 0x31D8 JUMPI PUSH1 0x40 MLOAD PUSH3 0x461BCD PUSH1 0xE5 SHL DUP2 MSTORE PUSH1 0x20 PUSH1 0x4 DUP3 ADD MSTORE PUSH1 0x24 DUP1 DUP3 ADD MSTORE PUSH32 0x4552433732313A207472616E7366657220746F20746865207A65726F20616464 PUSH1 0x44 DUP3 ADD MSTORE PUSH4 0x72657373 PUSH1 0xE0 SHL PUSH1 0x64 DUP3 ADD MSTORE PUSH1 0x84 ADD PUSH2 0x975 JUMP JUMPDEST PUSH2 0x31E3 DUP4 DUP4 DUP4 PUSH2 0x3F5E JUMP JUMPDEST PUSH2 0x31EE PUSH1 0x0 DUP3 PUSH2 0x285A JUMP JUMPDEST PUSH1 0x1 PUSH1 0x1 PUSH1 0xA0 SHL SUB DUP4 AND PUSH1 0x0 SWAP1 DUP2 MSTORE PUSH1 0x3 PUSH1 0x20 MSTORE PUSH1 0x40 DUP2 KECCAK256 DUP1 SLOAD PUSH1 0x1 SWAP3 SWAP1 PUSH2 0x3217 SWAP1 DUP5 SWAP1 PUSH2 0x542E JUMP JUMPDEST SWAP1 SWAP2 SSTORE POP POP PUSH1 0x1 PUSH1 0x1 PUSH1 0xA0 SHL SUB DUP3 AND PUSH1 0x0 SWAP1 DUP2 MSTORE PUSH1 0x3 PUSH1 0x20 MSTORE PUSH1 0x40 DUP2 KECCAK256 DUP1 SLOAD PUSH1 0x1 SWAP3 SWAP1 PUSH2 0x3245 SWAP1 DUP5 SWAP1 PUSH2 0x53E3 JUMP JUMPDEST SWAP1 SWAP2 SSTORE POP POP PUSH1 0x0 DUP2 DUP2 MSTORE PUSH1 0x2 PUSH1 0x20 MSTORE PUSH1 0x40 DUP1 DUP3 KECCAK256 DUP1 SLOAD PUSH1 0x1 PUSH1 0x1 PUSH1 0xA0 SHL SUB NOT AND PUSH1 0x1 PUSH1 0x1 PUSH1 0xA0 SHL SUB DUP7 DUP2 AND SWAP2 DUP3 OR SWAP1 SWAP3 SSTORE SWAP2 MLOAD DUP5 SWAP4 SWAP2 DUP8 AND SWAP2 PUSH1 0x0 DUP1 MLOAD PUSH1 0x20 PUSH2 0x55A0 DUP4 CODECOPY DUP2 MLOAD SWAP2 MSTORE SWAP2 LOG4 POP POP POP JUMP JUMPDEST PUSH2 0x329E DUP3 DUP3 PUSH2 0x1F75 JUMP JUMPDEST PUSH2 0x1090 JUMPI PUSH2 0x32B6 DUP2 PUSH1 0x1 PUSH1 0x1 PUSH1 0xA0 SHL SUB AND PUSH1 0x14 PUSH2 0x3F76 JUMP JUMPDEST PUSH2 0x32C1 DUP4 PUSH1 0x20 PUSH2 0x3F76 JUMP JUMPDEST PUSH1 0x40 MLOAD PUSH1 0x20 ADD PUSH2 0x32D2 SWAP3 SWAP2 SWAP1 PUSH2 0x5067 JUMP JUMPDEST PUSH1 0x40 DUP1 MLOAD PUSH1 0x1F NOT DUP2 DUP5 SUB ADD DUP2 MSTORE SWAP1 DUP3 SWAP1 MSTORE PUSH3 0x461BCD PUSH1 0xE5 SHL DUP3 MSTORE PUSH2 0x975 SWAP2 PUSH1 0x4 ADD PUSH2 0x51E0 JUMP JUMPDEST PUSH2 0x3302 DUP3 DUP3 PUSH2 0x1F75 JUMP JUMPDEST PUSH2 0x1090 JUMPI PUSH1 0x0 DUP3 DUP2 MSTORE PUSH1 0x8 PUSH1 0x20 SWAP1 DUP2 MSTORE PUSH1 0x40 DUP1 DUP4 KECCAK256 PUSH1 0x1 PUSH1 0x1 PUSH1 0xA0 SHL SUB DUP6 AND DUP5 MSTORE SWAP1 SWAP2 MSTORE SWAP1 KECCAK256 DUP1 SLOAD PUSH1 0xFF NOT AND PUSH1 0x1 OR SWAP1 SSTORE PUSH2 0x333A CALLER SWAP1 JUMP JUMPDEST PUSH1 0x1 PUSH1 0x1 PUSH1 0xA0 SHL SUB AND DUP2 PUSH1 0x1 PUSH1 0x1 PUSH1 0xA0 SHL SUB AND DUP4 PUSH32 0x2F8788117E7EFF1D82E926EC794901D17C78024A50270940304540A733656F0D PUSH1 0x40 MLOAD PUSH1 0x40 MLOAD DUP1 SWAP2 SUB SWAP1 LOG4 POP POP JUMP JUMPDEST PUSH2 0x3388 DUP3 DUP3 PUSH2 0x1F75 JUMP JUMPDEST ISZERO PUSH2 0x1090 JUMPI PUSH1 0x0 DUP3 DUP2 MSTORE PUSH1 0x8 PUSH1 0x20 SWAP1 DUP2 MSTORE PUSH1 0x40 DUP1 DUP4 KECCAK256 PUSH1 0x1 PUSH1 0x1 PUSH1 0xA0 SHL SUB DUP6 AND DUP1 DUP6 MSTORE SWAP3 MSTORE DUP1 DUP4 KECCAK256 DUP1 SLOAD PUSH1 0xFF NOT AND SWAP1 SSTORE MLOAD CALLER SWAP3 DUP6 SWAP2 PUSH32 0xF6391F5C32D9C69D2A47EA670B442974B53935D1EDC7FD64EB21E047A839171B SWAP2 SWAP1 LOG4 POP POP JUMP JUMPDEST PUSH1 0x0 DUP3 DUP2 MSTORE PUSH1 0xB PUSH1 0x20 SWAP1 DUP2 MSTORE PUSH1 0x40 DUP1 DUP4 KECCAK256 PUSH1 0x1 PUSH1 0x1 PUSH1 0xA0 SHL SUB DUP8 AND DUP5 MSTORE PUSH1 0x1 ADD SWAP1 SWAP2 MSTORE SWAP1 KECCAK256 SLOAD PUSH2 0x3447 JUMPI PUSH1 0x0 DUP3 DUP2 MSTORE PUSH1 0xB PUSH1 0x20 SWAP1 DUP2 MSTORE PUSH1 0x40 DUP3 KECCAK256 DUP1 SLOAD PUSH1 0x1 DUP2 ADD DUP3 SSTORE SWAP1 DUP4 MSTORE SWAP2 KECCAK256 ADD DUP1 SLOAD PUSH1 0x1 PUSH1 0x1 PUSH1 0xA0 SHL SUB NOT AND PUSH1 0x1 PUSH1 0x1 PUSH1 0xA0 SHL SUB DUP6 AND OR SWAP1 SSTORE JUMPDEST PUSH1 0x0 DUP3 DUP2 MSTORE PUSH1 0xB PUSH1 0x20 SWAP1 DUP2 MSTORE PUSH1 0x40 DUP1 DUP4 KECCAK256 PUSH1 0x1 PUSH1 0x1 PUSH1 0xA0 SHL SUB DUP8 AND DUP1 DUP6 MSTORE PUSH1 0x1 SWAP1 SWAP2 ADD DUP4 MSTORE SWAP3 DUP2 SWAP1 KECCAK256 DUP5 SWAP1 SSTORE MLOAD DUP4 DUP2 MSTORE DUP5 SWAP3 SWAP2 PUSH32 0x8A156BD946DC74EC284C5F4B365CE75EF2A5B9D9462B4CDB1D2400CABF136541 SWAP2 ADD PUSH1 0x40 MLOAD DUP1 SWAP2 SUB SWAP1 LOG3 POP POP POP JUMP JUMPDEST PUSH1 0x0 DUP2 DUP2 MSTORE PUSH1 0xA PUSH1 0x20 MSTORE PUSH1 0x40 DUP2 KECCAK256 SSTORE PUSH2 0x1135 DUP2 PUSH2 0x4157 JUMP JUMPDEST PUSH1 0x0 DUP1 PUSH1 0x0 PUSH2 0x34CF PUSH2 0x492A JUMP JUMPDEST PUSH2 0x34D8 DUP7 PUSH2 0x35EF JUMP JUMPDEST SWAP1 POP PUSH1 0x0 PUSH2 0x34E5 DUP8 PUSH2 0x25D0 JUMP JUMPDEST SWAP1 POP DUP1 DUP7 DUP4 PUSH1 0x40 ADD MLOAD PUSH2 0x34F8 SWAP2 SWAP1 PUSH2 0x540F JUMP JUMPDEST PUSH2 0x3502 SWAP2 SWAP1 PUSH2 0x53FB JUMP JUMPDEST SWAP5 POP DUP1 DUP7 DUP4 PUSH1 0x80 ADD MLOAD PUSH2 0x3515 SWAP2 SWAP1 PUSH2 0x540F JUMP JUMPDEST PUSH2 0x351F SWAP2 SWAP1 PUSH2 0x53FB JUMP JUMPDEST SWAP4 POP DUP1 DUP7 DUP4 PUSH1 0x60 ADD MLOAD PUSH2 0x3532 SWAP2 SWAP1 PUSH2 0x540F JUMP JUMPDEST PUSH2 0x353C SWAP2 SWAP1 PUSH2 0x53FB JUMP JUMPDEST SWAP3 POP PUSH2 0x3573 DUP8 DUP4 DUP6 DUP6 PUSH1 0x60 ADD MLOAD PUSH2 0x3553 SWAP2 SWAP1 PUSH2 0x542E JUMP JUMPDEST DUP9 DUP7 PUSH1 0x40 ADD MLOAD PUSH2 0x3563 SWAP2 SWAP1 PUSH2 0x542E JUMP JUMPDEST DUP9 DUP8 PUSH1 0x80 ADD MLOAD PUSH2 0x11CB SWAP2 SWAP1 PUSH2 0x542E JUMP JUMPDEST PUSH1 0x19 SLOAD PUSH1 0x60 DUP3 ADD MLOAD PUSH1 0x80 DUP4 ADD MLOAD PUSH1 0x40 MLOAD PUSH4 0x57A5C967 PUSH1 0xE0 SHL DUP2 MSTORE SWAP4 SWAP6 POP PUSH1 0x1 PUSH1 0x1 PUSH1 0xA0 SHL SUB SWAP1 SWAP3 AND SWAP3 PUSH4 0x57A5C967 SWAP3 PUSH2 0x35B3 SWAP3 DUP13 SWAP3 SWAP1 SWAP2 SWAP1 PUSH1 0x4 ADD PUSH2 0x53CD JUMP JUMPDEST PUSH1 0x0 PUSH1 0x40 MLOAD DUP1 DUP4 SUB DUP2 PUSH1 0x0 DUP8 DUP1 EXTCODESIZE ISZERO DUP1 ISZERO PUSH2 0x35CD JUMPI PUSH1 0x0 DUP1 REVERT JUMPDEST POP GAS CALL ISZERO DUP1 ISZERO PUSH2 0x35E1 JUMPI RETURNDATASIZE PUSH1 0x0 DUP1 RETURNDATACOPY RETURNDATASIZE PUSH1 0x0 REVERT JUMPDEST POP POP POP POP POP SWAP3 SWAP6 SWAP2 SWAP5 POP SWAP3 POP JUMP JUMPDEST PUSH2 0x35F7 PUSH2 0x492A JUMP JUMPDEST PUSH1 0x0 DUP3 DUP2 MSTORE PUSH1 0x16 PUSH1 0x20 MSTORE PUSH1 0x40 SWAP1 DUP2 SWAP1 KECCAK256 DUP2 MLOAD PUSH1 0xE0 DUP2 ADD SWAP1 SWAP3 MSTORE DUP1 SLOAD DUP3 SWAP1 PUSH1 0xFF AND PUSH1 0x3 DUP2 GT ISZERO PUSH2 0x3636 JUMPI PUSH4 0x4E487B71 PUSH1 0xE0 SHL PUSH1 0x0 MSTORE PUSH1 0x21 PUSH1 0x4 MSTORE PUSH1 0x24 PUSH1 0x0 REVERT JUMPDEST PUSH1 0x3 DUP2 GT ISZERO PUSH2 0x3655 JUMPI PUSH4 0x4E487B71 PUSH1 0xE0 SHL PUSH1 0x0 MSTORE PUSH1 0x21 PUSH1 0x4 MSTORE PUSH1 0x24 PUSH1 0x0 REVERT JUMPDEST DUP2 MSTORE PUSH1 0x1 DUP3 ADD SLOAD PUSH1 0x20 DUP3 ADD MSTORE PUSH1 0x2 DUP1 DUP4 ADD SLOAD PUSH1 0x40 DUP4 ADD MSTORE PUSH1 0x3 DUP4 ADD SLOAD PUSH1 0x60 DUP4 ADD MSTORE PUSH1 0x4 DUP4 ADD SLOAD PUSH1 0x80 DUP4 ADD MSTORE PUSH1 0x5 DUP4 ADD SLOAD PUSH1 0xA0 DUP4 ADD MSTORE PUSH1 0x6 DUP4 ADD SLOAD PUSH1 0xC0 SWAP1 SWAP3 ADD SWAP2 PUSH1 0xFF AND SWAP1 DUP2 GT ISZERO PUSH2 0x36B6 JUMPI PUSH4 0x4E487B71 PUSH1 0xE0 SHL PUSH1 0x0 MSTORE PUSH1 0x21 PUSH1 0x4 MSTORE PUSH1 0x24 PUSH1 0x0 REVERT JUMPDEST PUSH1 0x2 DUP2 GT ISZERO PUSH2 0x36D5 JUMPI PUSH4 0x4E487B71 PUSH1 0xE0 SHL PUSH1 0x0 MSTORE PUSH1 0x21 PUSH1 0x4 MSTORE PUSH1 0x24 PUSH1 0x0 REVERT JUMPDEST SWAP1 MSTORE POP SWAP3 SWAP2 POP POP JUMP JUMPDEST PUSH2 0x36E6 PUSH2 0x492A JUMP JUMPDEST POP PUSH1 0x60 DUP5 ADD DUP4 SWAP1 MSTORE PUSH1 0x40 DUP5 ADD DUP3 SWAP1 MSTORE PUSH1 0x80 DUP5 ADD DUP2 SWAP1 MSTORE DUP4 PUSH2 0x3707 DUP7 DUP3 PUSH2 0x28E2 JUMP JUMPDEST SWAP6 SWAP5 POP POP POP POP POP JUMP JUMPDEST PUSH2 0x3719 DUP4 PUSH2 0x14F2 JUMP JUMPDEST PUSH1 0x1 PUSH1 0x1 PUSH1 0xA0 SHL SUB AND DUP6 PUSH1 0x1 PUSH1 0x1 PUSH1 0xA0 SHL SUB AND EQ PUSH2 0x375E JUMPI PUSH1 0x40 MLOAD PUSH3 0x461BCD PUSH1 0xE5 SHL DUP2 MSTORE PUSH1 0x20 PUSH1 0x4 DUP3 ADD MSTORE PUSH1 0x2 PUSH1 0x24 DUP3 ADD MSTORE PUSH2 0x4E39 PUSH1 0xF0 SHL PUSH1 0x44 DUP3 ADD MSTORE PUSH1 0x64 ADD PUSH2 0x975 JUMP JUMPDEST PUSH1 0x1 PUSH1 0x1 PUSH1 0xA0 SHL SUB DUP5 AND PUSH2 0x379A JUMPI PUSH1 0x40 MLOAD PUSH3 0x461BCD PUSH1 0xE5 SHL DUP2 MSTORE PUSH1 0x20 PUSH1 0x4 DUP3 ADD MSTORE PUSH1 0x3 PUSH1 0x24 DUP3 ADD MSTORE PUSH3 0x4E313 PUSH1 0xEC SHL PUSH1 0x44 DUP3 ADD MSTORE PUSH1 0x64 ADD PUSH2 0x975 JUMP JUMPDEST CALLER PUSH1 0x1 PUSH1 0x1 PUSH1 0xA0 SHL SUB DUP7 AND EQ DUP1 ISZERO SWAP1 PUSH2 0x37BA JUMPI POP PUSH2 0x37B8 DUP6 CALLER PUSH2 0x2676 JUMP JUMPDEST ISZERO JUMPDEST ISZERO PUSH2 0x3805 JUMPI PUSH1 0x0 DUP4 DUP2 MSTORE PUSH1 0xB PUSH1 0x20 SWAP1 DUP2 MSTORE PUSH1 0x40 DUP1 DUP4 KECCAK256 CALLER DUP5 MSTORE PUSH1 0x1 ADD SWAP1 SWAP2 MSTORE SWAP1 KECCAK256 SLOAD PUSH2 0x37E7 SWAP1 DUP3 SWAP1 PUSH2 0x542E JUMP JUMPDEST PUSH1 0x0 DUP5 DUP2 MSTORE PUSH1 0xB PUSH1 0x20 SWAP1 DUP2 MSTORE PUSH1 0x40 DUP1 DUP4 KECCAK256 CALLER DUP5 MSTORE PUSH1 0x1 ADD SWAP1 SWAP2 MSTORE SWAP1 KECCAK256 SSTORE JUMPDEST PUSH1 0x0 DUP4 DUP2 MSTORE PUSH1 0xF PUSH1 0x20 MSTORE PUSH1 0x40 SWAP1 KECCAK256 SLOAD PUSH2 0x381F SWAP1 DUP3 SWAP1 PUSH2 0x542E JUMP JUMPDEST PUSH1 0x0 DUP5 DUP2 MSTORE PUSH1 0xF PUSH1 0x20 MSTORE PUSH1 0x40 SWAP1 KECCAK256 SSTORE PUSH2 0x3837 DUP3 PUSH2 0x283D JUMP JUMPDEST PUSH2 0x3854 JUMPI PUSH2 0x384F DUP5 DUP4 PUSH2 0x3849 DUP7 PUSH2 0xFE7 JUMP JUMPDEST DUP5 PUSH2 0x3E49 JUMP JUMPDEST PUSH2 0x38FC JUMP JUMPDEST DUP4 PUSH1 0x1 PUSH1 0x1 PUSH1 0xA0 SHL SUB AND PUSH2 0x3867 DUP4 PUSH2 0x14F2 JUMP JUMPDEST PUSH1 0x1 PUSH1 0x1 PUSH1 0xA0 SHL SUB AND EQ PUSH2 0x38A3 JUMPI PUSH1 0x40 MLOAD PUSH3 0x461BCD PUSH1 0xE5 SHL DUP2 MSTORE PUSH1 0x20 PUSH1 0x4 DUP3 ADD MSTORE PUSH1 0x3 PUSH1 0x24 DUP3 ADD MSTORE PUSH3 0x4E3131 PUSH1 0xE8 SHL PUSH1 0x44 DUP3 ADD MSTORE PUSH1 0x64 ADD PUSH2 0x975 JUMP JUMPDEST PUSH2 0x38AC DUP3 PUSH2 0xFE7 JUMP JUMPDEST PUSH2 0x38B5 DUP5 PUSH2 0xFE7 JUMP JUMPDEST EQ PUSH2 0x38D2 JUMPI PUSH1 0x40 MLOAD PUSH3 0x461BCD PUSH1 0xE5 SHL DUP2 MSTORE PUSH1 0x4 ADD PUSH2 0x975 SWAP1 PUSH2 0x527E JUMP JUMPDEST PUSH1 0x0 DUP3 DUP2 MSTORE PUSH1 0xF PUSH1 0x20 MSTORE PUSH1 0x40 SWAP1 KECCAK256 SLOAD PUSH2 0x38EC SWAP1 DUP3 SWAP1 PUSH2 0x53E3 JUMP JUMPDEST PUSH1 0x0 DUP4 DUP2 MSTORE PUSH1 0xF PUSH1 0x20 MSTORE PUSH1 0x40 SWAP1 KECCAK256 SSTORE JUMPDEST PUSH1 0x0 DUP4 DUP2 MSTORE PUSH1 0xA PUSH1 0x20 MSTORE PUSH1 0x40 DUP1 DUP3 KECCAK256 SLOAD DUP5 DUP4 MSTORE SWAP2 DUP2 SWAP1 KECCAK256 SWAP2 SWAP1 SWAP2 SSTORE MLOAD DUP4 SWAP1 PUSH1 0x1 PUSH1 0x1 PUSH1 0xA0 SHL SUB DUP1 DUP8 AND SWAP2 SWAP1 DUP9 AND SWAP1 PUSH1 0x0 DUP1 MLOAD PUSH1 0x20 PUSH2 0x55C0 DUP4 CODECOPY DUP2 MLOAD SWAP2 MSTORE SWAP1 PUSH2 0x3947 SWAP1 DUP8 SWAP1 DUP8 SWAP1 PUSH2 0x51D2 JUMP JUMPDEST PUSH1 0x40 MLOAD DUP1 SWAP2 SUB SWAP1 LOG4 POP POP POP POP POP JUMP JUMPDEST PUSH2 0x3960 CALLER DUP5 PUSH2 0x3031 JUMP JUMPDEST PUSH2 0x3991 JUMPI PUSH1 0x40 MLOAD PUSH3 0x461BCD PUSH1 0xE5 SHL DUP2 MSTORE PUSH1 0x20 PUSH1 0x4 DUP3 ADD MSTORE PUSH1 0x2 PUSH1 0x24 DUP3 ADD MSTORE PUSH2 0x2719 PUSH1 0xF1 SHL PUSH1 0x44 DUP3 ADD MSTORE PUSH1 0x64 ADD PUSH2 0x975 JUMP JUMPDEST PUSH2 0x399A DUP3 PUSH2 0x283D JUMP JUMPDEST ISZERO PUSH2 0x39CC JUMPI PUSH1 0x40 MLOAD PUSH3 0x461BCD PUSH1 0xE5 SHL DUP2 MSTORE PUSH1 0x20 PUSH1 0x4 DUP3 ADD MSTORE PUSH1 0x2 PUSH1 0x24 DUP3 ADD MSTORE PUSH2 0x4E33 PUSH1 0xF0 SHL PUSH1 0x44 DUP3 ADD MSTORE PUSH1 0x64 ADD PUSH2 0x975 JUMP JUMPDEST PUSH2 0x39EB DUP3 PUSH2 0x39D9 DUP6 PUSH2 0xFE7 JUMP JUMPDEST PUSH1 0x0 SWAP2 DUP3 MSTORE PUSH1 0xA PUSH1 0x20 MSTORE PUSH1 0x40 SWAP1 SWAP2 KECCAK256 SSTORE JUMP JUMPDEST PUSH1 0x0 DUP4 DUP2 MSTORE PUSH1 0xF PUSH1 0x20 MSTORE PUSH1 0x40 SWAP1 KECCAK256 SLOAD PUSH2 0x3A05 SWAP1 DUP3 SWAP1 PUSH2 0x542E JUMP JUMPDEST PUSH1 0x0 DUP5 DUP2 MSTORE PUSH1 0xF PUSH1 0x20 MSTORE PUSH1 0x40 DUP2 KECCAK256 SWAP2 SWAP1 SWAP2 SSTORE PUSH2 0x3A20 DUP5 PUSH2 0x14F2 JUMP JUMPDEST SWAP1 POP PUSH2 0x3A36 DUP2 DUP5 PUSH2 0x3A30 DUP8 PUSH2 0xFE7 JUMP JUMPDEST DUP6 PUSH2 0x3E49 JUMP JUMPDEST DUP4 DUP2 PUSH1 0x1 PUSH1 0x1 PUSH1 0xA0 SHL SUB AND PUSH32 0xF66885C33D648FCD0D97E0F2A18E30102169C22763473AF0FB716F11B4A17DD6 DUP6 DUP6 PUSH1 0x40 MLOAD PUSH2 0x3A72 SWAP3 SWAP2 SWAP1 PUSH2 0x51D2 JUMP JUMPDEST PUSH1 0x40 MLOAD DUP1 SWAP2 SUB SWAP1 LOG3 POP POP POP POP JUMP JUMPDEST PUSH1 0x6 DUP1 SLOAD PUSH1 0x1 PUSH1 0x1 PUSH1 0xA0 SHL SUB DUP4 DUP2 AND PUSH1 0x1 PUSH1 0x1 PUSH1 0xA0 SHL SUB NOT DUP4 AND DUP2 OR SWAP1 SWAP4 SSTORE PUSH1 0x40 MLOAD SWAP2 AND SWAP2 SWAP1 DUP3 SWAP1 PUSH32 0x8BE0079C531659141344CD1FD0A4F28419497F9722A3DAAFE3B4186F6B6457E0 SWAP1 PUSH1 0x0 SWAP1 LOG3 POP POP JUMP JUMPDEST PUSH1 0x0 PUSH2 0x830 DUP3 SLOAD SWAP1 JUMP JUMPDEST PUSH2 0x3AE7 DUP5 DUP5 DUP5 PUSH2 0x30FB JUMP JUMPDEST PUSH2 0x3AF3 DUP5 DUP5 DUP5 DUP5 PUSH2 0x41E9 JUMP JUMPDEST PUSH2 0x14EC JUMPI PUSH1 0x40 MLOAD PUSH3 0x461BCD PUSH1 0xE5 SHL DUP2 MSTORE PUSH1 0x4 ADD PUSH2 0x975 SWAP1 PUSH2 0x520F JUMP JUMPDEST PUSH2 0x3B18 CALLER PUSH2 0x2393 JUMP JUMPDEST PUSH2 0x3B49 JUMPI PUSH1 0x40 MLOAD PUSH3 0x461BCD PUSH1 0xE5 SHL DUP2 MSTORE PUSH1 0x20 PUSH1 0x4 DUP3 ADD MSTORE PUSH1 0x2 PUSH1 0x24 DUP3 ADD MSTORE PUSH2 0x4E35 PUSH1 0xF0 SHL PUSH1 0x44 DUP3 ADD MSTORE PUSH1 0x64 ADD PUSH2 0x975 JUMP JUMPDEST DUP1 DUP3 EQ ISZERO PUSH2 0x3B7E JUMPI PUSH1 0x40 MLOAD PUSH3 0x461BCD PUSH1 0xE5 SHL DUP2 MSTORE PUSH1 0x20 PUSH1 0x4 DUP3 ADD MSTORE PUSH1 0x2 PUSH1 0x24 DUP3 ADD MSTORE PUSH2 0x271B PUSH1 0xF1 SHL PUSH1 0x44 DUP3 ADD MSTORE PUSH1 0x64 ADD PUSH2 0x975 JUMP JUMPDEST PUSH2 0x3B87 DUP2 PUSH2 0xFE7 JUMP JUMPDEST PUSH2 0x3B90 DUP4 PUSH2 0xFE7 JUMP JUMPDEST EQ PUSH2 0x3BAD JUMPI PUSH1 0x40 MLOAD PUSH3 0x461BCD PUSH1 0xE5 SHL DUP2 MSTORE PUSH1 0x4 ADD PUSH2 0x975 SWAP1 PUSH2 0x527E JUMP JUMPDEST PUSH1 0x0 PUSH2 0x3BB8 DUP4 PUSH2 0x14F2 JUMP JUMPDEST SWAP1 POP PUSH2 0x3BC3 DUP3 PUSH2 0x14F2 JUMP JUMPDEST PUSH1 0x1 PUSH1 0x1 PUSH1 0xA0 SHL SUB AND DUP2 PUSH1 0x1 PUSH1 0x1 PUSH1 0xA0 SHL SUB AND EQ PUSH2 0x3C08 JUMPI PUSH1 0x40 MLOAD PUSH3 0x461BCD PUSH1 0xE5 SHL DUP2 MSTORE PUSH1 0x20 PUSH1 0x4 DUP3 ADD MSTORE PUSH1 0x2 PUSH1 0x24 DUP3 ADD MSTORE PUSH2 0x9C7 PUSH1 0xF3 SHL PUSH1 0x44 DUP3 ADD MSTORE PUSH1 0x64 ADD PUSH2 0x975 JUMP JUMPDEST PUSH1 0x0 DUP4 DUP2 MSTORE PUSH1 0xF PUSH1 0x20 MSTORE PUSH1 0x40 DUP1 DUP3 KECCAK256 SLOAD DUP5 DUP4 MSTORE SWAP2 KECCAK256 SLOAD PUSH2 0x3C28 SWAP1 DUP3 PUSH2 0x53E3 JUMP JUMPDEST PUSH1 0x0 DUP5 DUP2 MSTORE PUSH1 0xF PUSH1 0x20 MSTORE PUSH1 0x40 SWAP1 KECCAK256 SSTORE PUSH2 0x3C40 DUP5 PUSH2 0x34AA JUMP JUMPDEST DUP3 DUP5 DUP4 PUSH1 0x1 PUSH1 0x1 PUSH1 0xA0 SHL SUB AND PUSH32 0xB3CE851D16B3BBEC3774D5631A3893DFA2A80E067CFAD265DD594402AC3D6096 DUP5 PUSH1 0x40 MLOAD PUSH2 0x3C7D SWAP2 DUP2 MSTORE PUSH1 0x20 ADD SWAP1 JUMP JUMPDEST PUSH1 0x40 MLOAD DUP1 SWAP2 SUB SWAP1 LOG4 POP POP POP POP JUMP JUMPDEST PUSH1 0x60 PUSH2 0x3C96 DUP3 PUSH2 0x283D JUMP JUMPDEST PUSH2 0x3CFC JUMPI PUSH1 0x40 MLOAD PUSH3 0x461BCD PUSH1 0xE5 SHL DUP2 MSTORE PUSH1 0x20 PUSH1 0x4 DUP3 ADD MSTORE PUSH1 0x31 PUSH1 0x24 DUP3 ADD MSTORE PUSH32 0x45524337323155524953746F726167653A2055524920717565727920666F7220 PUSH1 0x44 DUP3 ADD MSTORE PUSH17 0x3737B732BC34B9BA32B73A103A37B5B2B7 PUSH1 0x79 SHL PUSH1 0x64 DUP3 ADD MSTORE PUSH1 0x84 ADD PUSH2 0x975 JUMP JUMPDEST PUSH1 0x0 DUP3 DUP2 MSTORE PUSH1 0x9 PUSH1 0x20 MSTORE PUSH1 0x40 DUP2 KECCAK256 DUP1 SLOAD PUSH2 0x3D15 SWAP1 PUSH2 0x5488 JUMP JUMPDEST DUP1 PUSH1 0x1F ADD PUSH1 0x20 DUP1 SWAP2 DIV MUL PUSH1 0x20 ADD PUSH1 0x40 MLOAD SWAP1 DUP2 ADD PUSH1 0x40 MSTORE DUP1 SWAP3 SWAP2 SWAP1 DUP2 DUP2 MSTORE PUSH1 0x20 ADD DUP3 DUP1 SLOAD PUSH2 0x3D41 SWAP1 PUSH2 0x5488 JUMP JUMPDEST DUP1 ISZERO PUSH2 0x3D8E JUMPI DUP1 PUSH1 0x1F LT PUSH2 0x3D63 JUMPI PUSH2 0x100 DUP1 DUP4 SLOAD DIV MUL DUP4 MSTORE SWAP2 PUSH1 0x20 ADD SWAP2 PUSH2 0x3D8E JUMP JUMPDEST DUP3 ADD SWAP2 SWAP1 PUSH1 0x0 MSTORE PUSH1 0x20 PUSH1 0x0 KECCAK256 SWAP1 JUMPDEST DUP2 SLOAD DUP2 MSTORE SWAP1 PUSH1 0x1 ADD SWAP1 PUSH1 0x20 ADD DUP1 DUP4 GT PUSH2 0x3D71 JUMPI DUP3 SWAP1 SUB PUSH1 0x1F AND DUP3 ADD SWAP2 JUMPDEST POP POP POP POP POP SWAP1 POP PUSH1 0x0 PUSH2 0x3D9F PUSH2 0x42F6 JUMP JUMPDEST SWAP1 POP DUP1 MLOAD PUSH1 0x0 EQ ISZERO PUSH2 0x3DB2 JUMPI POP SWAP3 SWAP2 POP POP JUMP JUMPDEST DUP2 MLOAD ISZERO PUSH2 0x3DE4 JUMPI DUP1 DUP3 PUSH1 0x40 MLOAD PUSH1 0x20 ADD PUSH2 0x3DCC SWAP3 SWAP2 SWAP1 PUSH2 0x5038 JUMP JUMPDEST PUSH1 0x40 MLOAD PUSH1 0x20 DUP2 DUP4 SUB SUB DUP2 MSTORE SWAP1 PUSH1 0x40 MSTORE SWAP3 POP POP POP SWAP2 SWAP1 POP JUMP JUMPDEST PUSH2 0x30F3 DUP5 PUSH2 0x4316 JUMP JUMPDEST PUSH1 0x0 PUSH2 0x2605 DUP4 DUP4 PUSH2 0x43E0 JUMP JUMPDEST PUSH1 0x0 PUSH1 0x1 PUSH1 0x1 PUSH1 0xE0 SHL SUB NOT DUP3 AND PUSH4 0x80AC58CD PUSH1 0xE0 SHL EQ DUP1 PUSH2 0x3E2A JUMPI POP PUSH1 0x1 PUSH1 0x1 PUSH1 0xE0 SHL SUB NOT DUP3 AND PUSH4 0x5B5E139F PUSH1 0xE0 SHL EQ JUMPDEST DUP1 PUSH2 0x830 JUMPI POP PUSH4 0x1FFC9A7 PUSH1 0xE0 SHL PUSH1 0x1 PUSH1 0x1 PUSH1 0xE0 SHL SUB NOT DUP4 AND EQ PUSH2 0x830 JUMP JUMPDEST PUSH2 0x3E52 DUP4 PUSH2 0x283D JUMP JUMPDEST PUSH2 0x3E7A JUMPI PUSH2 0x3E60 DUP5 DUP5 PUSH2 0x4418 JUMP JUMPDEST PUSH1 0x0 DUP3 DUP2 MSTORE PUSH1 0xC PUSH1 0x20 MSTORE PUSH1 0x40 SWAP1 KECCAK256 PUSH2 0x3E78 SWAP1 DUP5 PUSH2 0x4544 JUMP JUMPDEST POP JUMPDEST PUSH1 0x0 DUP4 DUP2 MSTORE PUSH1 0xF PUSH1 0x20 MSTORE PUSH1 0x40 SWAP1 KECCAK256 SLOAD PUSH2 0x3E94 SWAP1 DUP3 SWAP1 PUSH2 0x53E3 JUMP JUMPDEST PUSH1 0x0 DUP5 DUP2 MSTORE PUSH1 0xF PUSH1 0x20 MSTORE PUSH1 0x40 DUP1 DUP3 KECCAK256 SWAP3 SWAP1 SWAP3 SSTORE SWAP1 MLOAD PUSH1 0x1 PUSH1 0x1 PUSH1 0xA0 SHL SUB DUP7 AND SWAP1 DUP3 SWAP1 PUSH1 0x0 DUP1 MLOAD PUSH1 0x20 PUSH2 0x55C0 DUP4 CODECOPY DUP2 MLOAD SWAP2 MSTORE SWAP1 PUSH2 0x3C7D SWAP1 DUP9 SWAP1 DUP8 SWAP1 PUSH2 0x51D2 JUMP JUMPDEST PUSH2 0x3EDC DUP3 PUSH2 0x283D JUMP JUMPDEST PUSH2 0x3F3F JUMPI PUSH1 0x40 MLOAD PUSH3 0x461BCD PUSH1 0xE5 SHL DUP2 MSTORE PUSH1 0x20 PUSH1 0x4 DUP3 ADD MSTORE PUSH1 0x2E PUSH1 0x24 DUP3 ADD MSTORE PUSH32 0x45524337323155524953746F726167653A2055524920736574206F66206E6F6E PUSH1 0x44 DUP3 ADD MSTORE PUSH14 0x32BC34B9BA32B73A103A37B5B2B7 PUSH1 0x91 SHL PUSH1 0x64 DUP3 ADD MSTORE PUSH1 0x84 ADD PUSH2 0x975 JUMP JUMPDEST PUSH1 0x0 DUP3 DUP2 MSTORE PUSH1 0x9 PUSH1 0x20 SWAP1 DUP2 MSTORE PUSH1 0x40 SWAP1 SWAP2 KECCAK256 DUP3 MLOAD PUSH2 0xAA6 SWAP3 DUP5 ADD SWAP1 PUSH2 0x4986 JUMP JUMPDEST PUSH1 0x1 PUSH1 0x1 PUSH1 0xA0 SHL SUB DUP4 AND ISZERO PUSH2 0xAA6 JUMPI PUSH2 0xAA6 DUP2 PUSH2 0x4550 JUMP JUMPDEST PUSH1 0x60 PUSH1 0x0 PUSH2 0x3F85 DUP4 PUSH1 0x2 PUSH2 0x540F JUMP JUMPDEST PUSH2 0x3F90 SWAP1 PUSH1 0x2 PUSH2 0x53E3 JUMP JUMPDEST PUSH1 0x1 PUSH1 0x1 PUSH1 0x40 SHL SUB DUP2 GT ISZERO PUSH2 0x3FB5 JUMPI PUSH4 0x4E487B71 PUSH1 0xE0 SHL PUSH1 0x0 MSTORE PUSH1 0x41 PUSH1 0x4 MSTORE PUSH1 0x24 PUSH1 0x0 REVERT JUMPDEST PUSH1 0x40 MLOAD SWAP1 DUP1 DUP3 MSTORE DUP1 PUSH1 0x1F ADD PUSH1 0x1F NOT AND PUSH1 0x20 ADD DUP3 ADD PUSH1 0x40 MSTORE DUP1 ISZERO PUSH2 0x3FDF JUMPI PUSH1 0x20 DUP3 ADD DUP2 DUP1 CALLDATASIZE DUP4 CALLDATACOPY ADD SWAP1 POP JUMPDEST POP SWAP1 POP PUSH1 0x3 PUSH1 0xFC SHL DUP2 PUSH1 0x0 DUP2 MLOAD DUP2 LT PUSH2 0x4008 JUMPI PUSH4 0x4E487B71 PUSH1 0xE0 SHL PUSH1 0x0 MSTORE PUSH1 0x32 PUSH1 0x4 MSTORE PUSH1 0x24 PUSH1 0x0 REVERT JUMPDEST PUSH1 0x20 ADD ADD SWAP1 PUSH1 0x1 PUSH1 0x1 PUSH1 0xF8 SHL SUB NOT AND SWAP1 DUP2 PUSH1 0x0 BYTE SWAP1 MSTORE8 POP PUSH1 0xF PUSH1 0xFB SHL DUP2 PUSH1 0x1 DUP2 MLOAD DUP2 LT PUSH2 0x4045 JUMPI PUSH4 0x4E487B71 PUSH1 0xE0 SHL PUSH1 0x0 MSTORE PUSH1 0x32 PUSH1 0x4 MSTORE PUSH1 0x24 PUSH1 0x0 REVERT JUMPDEST PUSH1 0x20 ADD ADD SWAP1 PUSH1 0x1 PUSH1 0x1 PUSH1 0xF8 SHL SUB NOT AND SWAP1 DUP2 PUSH1 0x0 BYTE SWAP1 MSTORE8 POP PUSH1 0x0 PUSH2 0x4069 DUP5 PUSH1 0x2 PUSH2 0x540F JUMP JUMPDEST PUSH2 0x4074 SWAP1 PUSH1 0x1 PUSH2 0x53E3 JUMP JUMPDEST SWAP1 POP JUMPDEST PUSH1 0x1 DUP2 GT ISZERO PUSH2 0x4108 JUMPI PUSH16 0x181899199A1A9B1B9C1CB0B131B232B3 PUSH1 0x81 SHL DUP6 PUSH1 0xF AND PUSH1 0x10 DUP2 LT PUSH2 0x40B6 JUMPI PUSH4 0x4E487B71 PUSH1 0xE0 SHL PUSH1 0x0 MSTORE PUSH1 0x32 PUSH1 0x4 MSTORE PUSH1 0x24 PUSH1 0x0 REVERT JUMPDEST BYTE PUSH1 0xF8 SHL DUP3 DUP3 DUP2 MLOAD DUP2 LT PUSH2 0x40DA JUMPI PUSH4 0x4E487B71 PUSH1 0xE0 SHL PUSH1 0x0 MSTORE PUSH1 0x32 PUSH1 0x4 MSTORE PUSH1 0x24 PUSH1 0x0 REVERT JUMPDEST PUSH1 0x20 ADD ADD SWAP1 PUSH1 0x1 PUSH1 0x1 PUSH1 0xF8 SHL SUB NOT AND SWAP1 DUP2 PUSH1 0x0 BYTE SWAP1 MSTORE8 POP PUSH1 0x4 SWAP5 SWAP1 SWAP5 SHR SWAP4 PUSH2 0x4101 DUP2 PUSH2 0x5471 JUMP JUMPDEST SWAP1 POP PUSH2 0x4077 JUMP JUMPDEST POP DUP4 ISZERO PUSH2 0x2605 JUMPI PUSH1 0x40 MLOAD PUSH3 0x461BCD PUSH1 0xE5 SHL DUP2 MSTORE PUSH1 0x20 PUSH1 0x4 DUP3 ADD DUP2 SWAP1 MSTORE PUSH1 0x24 DUP3 ADD MSTORE PUSH32 0x537472696E67733A20686578206C656E67746820696E73756666696369656E74 PUSH1 0x44 DUP3 ADD MSTORE PUSH1 0x64 ADD PUSH2 0x975 JUMP JUMPDEST PUSH1 0x0 PUSH2 0x4162 DUP3 PUSH2 0x14F2 JUMP JUMPDEST SWAP1 POP PUSH1 0x0 PUSH2 0x416F DUP4 PUSH2 0xFE7 JUMP JUMPDEST PUSH1 0x0 DUP5 DUP2 MSTORE PUSH1 0xF PUSH1 0x20 SWAP1 DUP2 MSTORE PUSH1 0x40 DUP1 DUP4 KECCAK256 SLOAD DUP5 DUP5 MSTORE PUSH1 0xC SWAP1 SWAP3 MSTORE SWAP1 SWAP2 KECCAK256 SWAP2 SWAP3 POP SWAP1 PUSH2 0x419A SWAP1 DUP6 PUSH2 0x4604 JUMP JUMPDEST POP PUSH1 0x0 DUP5 DUP2 MSTORE PUSH1 0xF PUSH1 0x20 MSTORE PUSH1 0x40 DUP2 KECCAK256 SSTORE PUSH2 0x41B3 DUP5 PUSH2 0x4610 JUMP JUMPDEST DUP4 PUSH1 0x0 PUSH1 0x1 PUSH1 0x1 PUSH1 0xA0 SHL SUB AND DUP5 PUSH1 0x1 PUSH1 0x1 PUSH1 0xA0 SHL SUB AND PUSH1 0x0 DUP1 MLOAD PUSH1 0x20 PUSH2 0x55C0 DUP4 CODECOPY DUP2 MLOAD SWAP2 MSTORE PUSH1 0x0 DUP6 PUSH1 0x40 MLOAD PUSH2 0x3C7D SWAP3 SWAP2 SWAP1 PUSH2 0x51D2 JUMP JUMPDEST PUSH1 0x0 PUSH1 0x1 PUSH1 0x1 PUSH1 0xA0 SHL SUB DUP5 AND EXTCODESIZE ISZERO PUSH2 0x42EB JUMPI PUSH1 0x40 MLOAD PUSH4 0xA85BD01 PUSH1 0xE1 SHL DUP2 MSTORE PUSH1 0x1 PUSH1 0x1 PUSH1 0xA0 SHL SUB DUP6 AND SWAP1 PUSH4 0x150B7A02 SWAP1 PUSH2 0x422D SWAP1 CALLER SWAP1 DUP10 SWAP1 DUP9 SWAP1 DUP9 SWAP1 PUSH1 0x4 ADD PUSH2 0x50EA JUMP JUMPDEST PUSH1 0x20 PUSH1 0x40 MLOAD DUP1 DUP4 SUB DUP2 PUSH1 0x0 DUP8 DUP1 EXTCODESIZE ISZERO DUP1 ISZERO PUSH2 0x4247 JUMPI PUSH1 0x0 DUP1 REVERT JUMPDEST POP GAS CALL SWAP3 POP POP POP DUP1 ISZERO PUSH2 0x4277 JUMPI POP PUSH1 0x40 DUP1 MLOAD PUSH1 0x1F RETURNDATASIZE SWAP1 DUP2 ADD PUSH1 0x1F NOT AND DUP3 ADD SWAP1 SWAP3 MSTORE PUSH2 0x4274 SWAP2 DUP2 ADD SWAP1 PUSH2 0x4E26 JUMP JUMPDEST PUSH1 0x1 JUMPDEST PUSH2 0x42D1 JUMPI RETURNDATASIZE DUP1 DUP1 ISZERO PUSH2 0x42A5 JUMPI PUSH1 0x40 MLOAD SWAP2 POP PUSH1 0x1F NOT PUSH1 0x3F RETURNDATASIZE ADD AND DUP3 ADD PUSH1 0x40 MSTORE RETURNDATASIZE DUP3 MSTORE RETURNDATASIZE PUSH1 0x0 PUSH1 0x20 DUP5 ADD RETURNDATACOPY PUSH2 0x42AA JUMP JUMPDEST PUSH1 0x60 SWAP2 POP JUMPDEST POP DUP1 MLOAD PUSH2 0x42C9 JUMPI PUSH1 0x40 MLOAD PUSH3 0x461BCD PUSH1 0xE5 SHL DUP2 MSTORE PUSH1 0x4 ADD PUSH2 0x975 SWAP1 PUSH2 0x520F JUMP JUMPDEST DUP1 MLOAD DUP2 PUSH1 0x20 ADD REVERT JUMPDEST PUSH1 0x1 PUSH1 0x1 PUSH1 0xE0 SHL SUB NOT AND PUSH4 0xA85BD01 PUSH1 0xE1 SHL EQ SWAP1 POP PUSH2 0x30F3 JUMP JUMPDEST POP PUSH1 0x1 SWAP5 SWAP4 POP POP POP POP JUMP JUMPDEST PUSH1 0x60 PUSH1 0x40 MLOAD DUP1 PUSH1 0x60 ADD PUSH1 0x40 MSTORE DUP1 PUSH1 0x22 DUP2 MSTORE PUSH1 0x20 ADD PUSH2 0x557E PUSH1 0x22 SWAP2 CODECOPY SWAP1 POP SWAP1 JUMP JUMPDEST PUSH1 0x60 PUSH2 0x4321 DUP3 PUSH2 0x283D JUMP JUMPDEST PUSH2 0x4385 JUMPI PUSH1 0x40 MLOAD PUSH3 0x461BCD PUSH1 0xE5 SHL DUP2 MSTORE PUSH1 0x20 PUSH1 0x4 DUP3 ADD MSTORE PUSH1 0x2F PUSH1 0x24 DUP3 ADD MSTORE PUSH32 0x4552433732314D657461646174613A2055524920717565727920666F72206E6F PUSH1 0x44 DUP3 ADD MSTORE PUSH15 0x3732BC34B9BA32B73A103A37B5B2B7 PUSH1 0x89 SHL PUSH1 0x64 DUP3 ADD MSTORE PUSH1 0x84 ADD PUSH2 0x975 JUMP JUMPDEST PUSH1 0x0 PUSH2 0x438F PUSH2 0x42F6 JUMP JUMPDEST SWAP1 POP PUSH1 0x0 DUP2 MLOAD GT PUSH2 0x43AF JUMPI PUSH1 0x40 MLOAD DUP1 PUSH1 0x20 ADD PUSH1 0x40 MSTORE DUP1 PUSH1 0x0 DUP2 MSTORE POP PUSH2 0x2605 JUMP JUMPDEST DUP1 PUSH2 0x43B9 DUP5 PUSH2 0x46A5 JUMP JUMPDEST PUSH1 0x40 MLOAD PUSH1 0x20 ADD PUSH2 0x43CA SWAP3 SWAP2 SWAP1 PUSH2 0x5038 JUMP JUMPDEST PUSH1 0x40 MLOAD PUSH1 0x20 DUP2 DUP4 SUB SUB DUP2 MSTORE SWAP1 PUSH1 0x40 MSTORE SWAP4 SWAP3 POP POP POP JUMP JUMPDEST PUSH1 0x0 DUP3 PUSH1 0x0 ADD DUP3 DUP2 SLOAD DUP2 LT PUSH2 0x4405 JUMPI PUSH4 0x4E487B71 PUSH1 0xE0 SHL PUSH1 0x0 MSTORE PUSH1 0x32 PUSH1 0x4 MSTORE PUSH1 0x24 PUSH1 0x0 REVERT JUMPDEST SWAP1 PUSH1 0x0 MSTORE PUSH1 0x20 PUSH1 0x0 KECCAK256 ADD SLOAD SWAP1 POP SWAP3 SWAP2 POP POP JUMP JUMPDEST PUSH1 0x1 PUSH1 0x1 PUSH1 0xA0 SHL SUB DUP3 AND PUSH2 0x446E JUMPI PUSH1 0x40 MLOAD PUSH3 0x461BCD PUSH1 0xE5 SHL DUP2 MSTORE PUSH1 0x20 PUSH1 0x4 DUP3 ADD DUP2 SWAP1 MSTORE PUSH1 0x24 DUP3 ADD MSTORE PUSH32 0x4552433732313A206D696E7420746F20746865207A65726F2061646472657373 PUSH1 0x44 DUP3 ADD MSTORE PUSH1 0x64 ADD PUSH2 0x975 JUMP JUMPDEST PUSH2 0x4477 DUP2 PUSH2 0x283D JUMP JUMPDEST ISZERO PUSH2 0x44C3 JUMPI PUSH1 0x40 MLOAD PUSH3 0x461BCD PUSH1 0xE5 SHL DUP2 MSTORE PUSH1 0x20 PUSH1 0x4 DUP3 ADD MSTORE PUSH1 0x1C PUSH1 0x24 DUP3 ADD MSTORE PUSH28 0x115490CDCC8C4E881D1BDAD95B88185B1C9958591E481B5A5B9D1959 PUSH1 0x22 SHL PUSH1 0x44 DUP3 ADD MSTORE PUSH1 0x64 ADD PUSH2 0x975 JUMP JUMPDEST PUSH2 0x44CF PUSH1 0x0 DUP4 DUP4 PUSH2 0x3F5E JUMP JUMPDEST PUSH1 0x1 PUSH1 0x1 PUSH1 0xA0 SHL SUB DUP3 AND PUSH1 0x0 SWAP1 DUP2 MSTORE PUSH1 0x3 PUSH1 0x20 MSTORE PUSH1 0x40 DUP2 KECCAK256 DUP1 SLOAD PUSH1 0x1 SWAP3 SWAP1 PUSH2 0x44F8 SWAP1 DUP5 SWAP1 PUSH2 0x53E3 JUMP JUMPDEST SWAP1 SWAP2 SSTORE POP POP PUSH1 0x0 DUP2 DUP2 MSTORE PUSH1 0x2 PUSH1 0x20 MSTORE PUSH1 0x40 DUP1 DUP3 KECCAK256 DUP1 SLOAD PUSH1 0x1 PUSH1 0x1 PUSH1 0xA0 SHL SUB NOT AND PUSH1 0x1 PUSH1 0x1 PUSH1 0xA0 SHL SUB DUP7 AND SWAP1 DUP2 OR SWAP1 SWAP2 SSTORE SWAP1 MLOAD DUP4 SWAP3 SWAP1 PUSH1 0x0 DUP1 MLOAD PUSH1 0x20 PUSH2 0x55A0 DUP4 CODECOPY DUP2 MLOAD SWAP2 MSTORE SWAP1 DUP3 SWAP1 LOG4 POP POP JUMP JUMPDEST PUSH1 0x0 PUSH2 0x2605 DUP4 DUP4 PUSH2 0x47BE JUMP JUMPDEST PUSH1 0x0 DUP2 DUP2 MSTORE PUSH1 0xB PUSH1 0x20 MSTORE PUSH1 0x40 DUP2 KECCAK256 SWAP1 JUMPDEST DUP2 SLOAD DUP2 LT ISZERO PUSH2 0xAA6 JUMPI DUP2 PUSH1 0x1 ADD PUSH1 0x0 DUP4 PUSH1 0x0 ADD DUP4 DUP2 SLOAD DUP2 LT PUSH2 0x4592 JUMPI PUSH4 0x4E487B71 PUSH1 0xE0 SHL PUSH1 0x0 MSTORE PUSH1 0x32 PUSH1 0x4 MSTORE PUSH1 0x24 PUSH1 0x0 REVERT JUMPDEST PUSH1 0x0 SWAP2 DUP3 MSTORE PUSH1 0x20 DUP1 DUP4 KECCAK256 SWAP1 SWAP2 ADD SLOAD PUSH1 0x1 PUSH1 0x1 PUSH1 0xA0 SHL SUB AND DUP4 MSTORE DUP3 ADD SWAP3 SWAP1 SWAP3 MSTORE PUSH1 0x40 ADD DUP2 KECCAK256 SSTORE DUP2 SLOAD DUP3 SWAP1 DUP3 SWAP1 DUP2 LT PUSH2 0x45D9 JUMPI PUSH4 0x4E487B71 PUSH1 0xE0 SHL PUSH1 0x0 MSTORE PUSH1 0x32 PUSH1 0x4 MSTORE PUSH1 0x24 PUSH1 0x0 REVERT JUMPDEST PUSH1 0x0 SWAP2 DUP3 MSTORE PUSH1 0x20 SWAP1 SWAP2 KECCAK256 ADD DUP1 SLOAD PUSH1 0x1 PUSH1 0x1 PUSH1 0xA0 SHL SUB NOT AND SWAP1 SSTORE DUP1 PUSH2 0x45FC DUP2 PUSH2 0x54BD JUMP JUMPDEST SWAP2 POP POP PUSH2 0x4560 JUMP JUMPDEST PUSH1 0x0 PUSH2 0x2605 DUP4 DUP4 PUSH2 0x480D JUMP JUMPDEST PUSH1 0x0 PUSH2 0x461B DUP3 PUSH2 0x14F2 JUMP JUMPDEST SWAP1 POP PUSH2 0x4629 DUP2 PUSH1 0x0 DUP5 PUSH2 0x3F5E JUMP JUMPDEST PUSH2 0x4634 PUSH1 0x0 DUP4 PUSH2 0x285A JUMP JUMPDEST PUSH1 0x1 PUSH1 0x1 PUSH1 0xA0 SHL SUB DUP2 AND PUSH1 0x0 SWAP1 DUP2 MSTORE PUSH1 0x3 PUSH1 0x20 MSTORE PUSH1 0x40 DUP2 KECCAK256 DUP1 SLOAD PUSH1 0x1 SWAP3 SWAP1 PUSH2 0x465D SWAP1 DUP5 SWAP1 PUSH2 0x542E JUMP JUMPDEST SWAP1 SWAP2 SSTORE POP POP PUSH1 0x0 DUP3 DUP2 MSTORE PUSH1 0x2 PUSH1 0x20 MSTORE PUSH1 0x40 DUP1 DUP3 KECCAK256 DUP1 SLOAD PUSH1 0x1 PUSH1 0x1 PUSH1 0xA0 SHL SUB NOT AND SWAP1 SSTORE MLOAD DUP4 SWAP2 SWAP1 PUSH1 0x1 PUSH1 0x1 PUSH1 0xA0 SHL SUB DUP5 AND SWAP1 PUSH1 0x0 DUP1 MLOAD PUSH1 0x20 PUSH2 0x55A0 DUP4 CODECOPY DUP2 MLOAD SWAP2 MSTORE SWAP1 DUP4 SWAP1 LOG4 POP POP JUMP JUMPDEST PUSH1 0x60 DUP2 PUSH2 0x46C9 JUMPI POP POP PUSH1 0x40 DUP1 MLOAD DUP1 DUP3 ADD SWAP1 SWAP2 MSTORE PUSH1 0x1 DUP2 MSTORE PUSH1 0x3 PUSH1 0xFC SHL PUSH1 0x20 DUP3 ADD MSTORE SWAP1 JUMP JUMPDEST DUP2 PUSH1 0x0 JUMPDEST DUP2 ISZERO PUSH2 0x46F3 JUMPI DUP1 PUSH2 0x46DD DUP2 PUSH2 0x54BD JUMP JUMPDEST SWAP2 POP PUSH2 0x46EC SWAP1 POP PUSH1 0xA DUP4 PUSH2 0x53FB JUMP JUMPDEST SWAP2 POP PUSH2 0x46CD JUMP JUMPDEST PUSH1 0x0 DUP2 PUSH1 0x1 PUSH1 0x1 PUSH1 0x40 SHL SUB DUP2 GT ISZERO PUSH2 0x471B JUMPI PUSH4 0x4E487B71 PUSH1 0xE0 SHL PUSH1 0x0 MSTORE PUSH1 0x41 PUSH1 0x4 MSTORE PUSH1 0x24 PUSH1 0x0 REVERT JUMPDEST PUSH1 0x40 MLOAD SWAP1 DUP1 DUP3 MSTORE DUP1 PUSH1 0x1F ADD PUSH1 0x1F NOT AND PUSH1 0x20 ADD DUP3 ADD PUSH1 0x40 MSTORE DUP1 ISZERO PUSH2 0x4745 JUMPI PUSH1 0x20 DUP3 ADD DUP2 DUP1 CALLDATASIZE DUP4 CALLDATACOPY ADD SWAP1 POP JUMPDEST POP SWAP1 POP JUMPDEST DUP5 ISZERO PUSH2 0x30F3 JUMPI PUSH2 0x475A PUSH1 0x1 DUP4 PUSH2 0x542E JUMP JUMPDEST SWAP2 POP PUSH2 0x4767 PUSH1 0xA DUP7 PUSH2 0x54D8 JUMP JUMPDEST PUSH2 0x4772 SWAP1 PUSH1 0x30 PUSH2 0x53E3 JUMP JUMPDEST PUSH1 0xF8 SHL DUP2 DUP4 DUP2 MLOAD DUP2 LT PUSH2 0x4795 JUMPI PUSH4 0x4E487B71 PUSH1 0xE0 SHL PUSH1 0x0 MSTORE PUSH1 0x32 PUSH1 0x4 MSTORE PUSH1 0x24 PUSH1 0x0 REVERT JUMPDEST PUSH1 0x20 ADD ADD SWAP1 PUSH1 0x1 PUSH1 0x1 PUSH1 0xF8 SHL SUB NOT AND SWAP1 DUP2 PUSH1 0x0 BYTE SWAP1 MSTORE8 POP PUSH2 0x47B7 PUSH1 0xA DUP7 PUSH2 0x53FB JUMP JUMPDEST SWAP5 POP PUSH2 0x4749 JUMP JUMPDEST PUSH1 0x0 DUP2 DUP2 MSTORE PUSH1 0x1 DUP4 ADD PUSH1 0x20 MSTORE PUSH1 0x40 DUP2 KECCAK256 SLOAD PUSH2 0x4805 JUMPI POP DUP2 SLOAD PUSH1 0x1 DUP2 DUP2 ADD DUP5 SSTORE PUSH1 0x0 DUP5 DUP2 MSTORE PUSH1 0x20 DUP1 DUP3 KECCAK256 SWAP1 SWAP4 ADD DUP5 SWAP1 SSTORE DUP5 SLOAD DUP5 DUP3 MSTORE DUP3 DUP7 ADD SWAP1 SWAP4 MSTORE PUSH1 0x40 SWAP1 KECCAK256 SWAP2 SWAP1 SWAP2 SSTORE PUSH2 0x830 JUMP JUMPDEST POP PUSH1 0x0 PUSH2 0x830 JUMP JUMPDEST PUSH1 0x0 DUP2 DUP2 MSTORE PUSH1 0x1 DUP4 ADD PUSH1 0x20 MSTORE PUSH1 0x40 DUP2 KECCAK256 SLOAD DUP1 ISZERO PUSH2 0x4920 JUMPI PUSH1 0x0 PUSH2 0x4831 PUSH1 0x1 DUP4 PUSH2 0x542E JUMP JUMPDEST DUP6 SLOAD SWAP1 SWAP2 POP PUSH1 0x0 SWAP1 PUSH2 0x4845 SWAP1 PUSH1 0x1 SWAP1 PUSH2 0x542E JUMP JUMPDEST SWAP1 POP DUP2 DUP2 EQ PUSH2 0x48C6 JUMPI PUSH1 0x0 DUP7 PUSH1 0x0 ADD DUP3 DUP2 SLOAD DUP2 LT PUSH2 0x4873 JUMPI PUSH4 0x4E487B71 PUSH1 0xE0 SHL PUSH1 0x0 MSTORE PUSH1 0x32 PUSH1 0x4 MSTORE PUSH1 0x24 PUSH1 0x0 REVERT JUMPDEST SWAP1 PUSH1 0x0 MSTORE PUSH1 0x20 PUSH1 0x0 KECCAK256 ADD SLOAD SWAP1 POP DUP1 DUP8 PUSH1 0x0 ADD DUP5 DUP2 SLOAD DUP2 LT PUSH2 0x48A4 JUMPI PUSH4 0x4E487B71 PUSH1 0xE0 SHL PUSH1 0x0 MSTORE PUSH1 0x32 PUSH1 0x4 MSTORE PUSH1 0x24 PUSH1 0x0 REVERT JUMPDEST PUSH1 0x0 SWAP2 DUP3 MSTORE PUSH1 0x20 DUP1 DUP4 KECCAK256 SWAP1 SWAP2 ADD SWAP3 SWAP1 SWAP3 SSTORE SWAP2 DUP3 MSTORE PUSH1 0x1 DUP9 ADD SWAP1 MSTORE PUSH1 0x40 SWAP1 KECCAK256 DUP4 SWAP1 SSTORE JUMPDEST DUP6 SLOAD DUP7 SWAP1 DUP1 PUSH2 0x48E5 JUMPI PUSH4 0x4E487B71 PUSH1 0xE0 SHL PUSH1 0x0 MSTORE PUSH1 0x31 PUSH1 0x4 MSTORE PUSH1 0x24 PUSH1 0x0 REVERT JUMPDEST PUSH1 0x1 SWAP1 SUB DUP2 DUP2 SWAP1 PUSH1 0x0 MSTORE PUSH1 0x20 PUSH1 0x0 KECCAK256 ADD PUSH1 0x0 SWAP1 SSTORE SWAP1 SSTORE DUP6 PUSH1 0x1 ADD PUSH1 0x0 DUP7 DUP2 MSTORE PUSH1 0x20 ADD SWAP1 DUP2 MSTORE PUSH1 0x20 ADD PUSH1 0x0 KECCAK256 PUSH1 0x0 SWAP1 SSTORE PUSH1 0x1 SWAP4 POP POP POP POP PUSH2 0x830 JUMP JUMPDEST PUSH1 0x0 SWAP2 POP POP PUSH2 0x830 JUMP JUMPDEST PUSH1 0x40 DUP1 MLOAD PUSH1 0xE0 DUP2 ADD SWAP1 SWAP2 MSTORE DUP1 PUSH1 0x0 DUP2 MSTORE PUSH1 0x20 ADD PUSH1 0x0 DUP2 MSTORE PUSH1 0x20 ADD PUSH1 0x0 DUP2 MSTORE PUSH1 0x20 ADD PUSH1 0x0 DUP2 MSTORE PUSH1 0x20 ADD PUSH1 0x0 DUP2 MSTORE PUSH1 0x20 ADD PUSH1 0x0 DUP2 MSTORE PUSH1 0x20 ADD PUSH1 0x0 PUSH1 0x2 DUP2 GT ISZERO PUSH2 0x4981 JUMPI PUSH4 0x4E487B71 PUSH1 0xE0 SHL PUSH1 0x0 MSTORE PUSH1 0x21 PUSH1 0x4 MSTORE PUSH1 0x24 PUSH1 0x0 REVERT JUMPDEST SWAP1 MSTORE SWAP1 JUMP JUMPDEST DUP3 DUP1 SLOAD PUSH2 0x4992 SWAP1 PUSH2 0x5488 JUMP JUMPDEST SWAP1 PUSH1 0x0 MSTORE PUSH1 0x20 PUSH1 0x0 KECCAK256 SWAP1 PUSH1 0x1F ADD PUSH1 0x20 SWAP1 DIV DUP2 ADD SWAP3 DUP3 PUSH2 0x49B4 JUMPI PUSH1 0x0 DUP6 SSTORE PUSH2 0x49FA JUMP JUMPDEST DUP3 PUSH1 0x1F LT PUSH2 0x49CD JUMPI DUP1 MLOAD PUSH1 0xFF NOT AND DUP4 DUP1 ADD OR DUP6 SSTORE PUSH2 0x49FA JUMP JUMPDEST DUP3 DUP1 ADD PUSH1 0x1 ADD DUP6 SSTORE DUP3 ISZERO PUSH2 0x49FA JUMPI SWAP2 DUP3 ADD JUMPDEST DUP3 DUP2 GT ISZERO PUSH2 0x49FA JUMPI DUP3 MLOAD DUP3 SSTORE SWAP2 PUSH1 0x20 ADD SWAP2 SWAP1 PUSH1 0x1 ADD SWAP1 PUSH2 0x49DF JUMP JUMPDEST POP PUSH2 0x4A06 SWAP3 SWAP2 POP PUSH2 0x4A0A JUMP JUMPDEST POP SWAP1 JUMP JUMPDEST JUMPDEST DUP1 DUP3 GT ISZERO PUSH2 0x4A06 JUMPI PUSH1 0x0 DUP2 SSTORE PUSH1 0x1 ADD PUSH2 0x4A0B JUMP JUMPDEST PUSH1 0x0 PUSH1 0x1 PUSH1 0x1 PUSH1 0x40 SHL SUB DUP1 DUP5 GT ISZERO PUSH2 0x4A39 JUMPI PUSH2 0x4A39 PUSH2 0x552E JUMP JUMPDEST PUSH1 0x40 MLOAD PUSH1 0x1F DUP6 ADD PUSH1 0x1F NOT SWAP1 DUP2 AND PUSH1 0x3F ADD AND DUP2 ADD SWAP1 DUP3 DUP3 GT DUP2 DUP4 LT OR ISZERO PUSH2 0x4A61 JUMPI PUSH2 0x4A61 PUSH2 0x552E JUMP JUMPDEST DUP2 PUSH1 0x40 MSTORE DUP1 SWAP4 POP DUP6 DUP2 MSTORE DUP7 DUP7 DUP7 ADD GT ISZERO PUSH2 0x4A7A JUMPI PUSH1 0x0 DUP1 REVERT JUMPDEST DUP6 DUP6 PUSH1 0x20 DUP4 ADD CALLDATACOPY PUSH1 0x0 PUSH1 0x20 DUP8 DUP4 ADD ADD MSTORE POP POP POP SWAP4 SWAP3 POP POP POP JUMP JUMPDEST PUSH1 0x0 DUP1 DUP4 PUSH1 0x1F DUP5 ADD SLT PUSH2 0x4AA5 JUMPI DUP2 DUP3 REVERT JUMPDEST POP DUP2 CALLDATALOAD PUSH1 0x1 PUSH1 0x1 PUSH1 0x40 SHL SUB DUP2 GT ISZERO PUSH2 0x4ABB JUMPI DUP2 DUP3 REVERT JUMPDEST PUSH1 0x20 DUP4 ADD SWAP2 POP DUP4 PUSH1 0x20 DUP3 PUSH1 0x5 SHL DUP6 ADD ADD GT ISZERO PUSH2 0x4AD6 JUMPI PUSH1 0x0 DUP1 REVERT JUMPDEST SWAP3 POP SWAP3 SWAP1 POP JUMP JUMPDEST PUSH1 0x0 PUSH1 0x20 DUP3 DUP5 SUB SLT ISZERO PUSH2 0x4AEE JUMPI DUP1 DUP2 REVERT JUMPDEST DUP2 CALLDATALOAD PUSH2 0x2605 DUP2 PUSH2 0x5544 JUMP JUMPDEST PUSH1 0x0 PUSH1 0x20 DUP3 DUP5 SUB SLT ISZERO PUSH2 0x4B0A JUMPI DUP1 DUP2 REVERT JUMPDEST DUP2 MLOAD PUSH2 0x2605 DUP2 PUSH2 0x5544 JUMP JUMPDEST PUSH1 0x0 DUP1 PUSH1 0x40 DUP4 DUP6 SUB SLT ISZERO PUSH2 0x4B27 JUMPI DUP1 DUP2 REVERT JUMPDEST DUP3 CALLDATALOAD PUSH2 0x4B32 DUP2 PUSH2 0x5544 JUMP JUMPDEST SWAP2 POP PUSH1 0x20 DUP4 ADD CALLDATALOAD PUSH2 0x4B42 DUP2 PUSH2 0x5544 JUMP JUMPDEST DUP1 SWAP2 POP POP SWAP3 POP SWAP3 SWAP1 POP JUMP JUMPDEST PUSH1 0x0 DUP1 PUSH1 0x0 PUSH1 0x60 DUP5 DUP7 SUB SLT ISZERO PUSH2 0x4B61 JUMPI DUP1 DUP2 REVERT JUMPDEST DUP4 CALLDATALOAD PUSH2 0x4B6C DUP2 PUSH2 0x5544 JUMP JUMPDEST SWAP3 POP PUSH1 0x20 DUP5 ADD CALLDATALOAD PUSH2 0x4B7C DUP2 PUSH2 0x5544 JUMP JUMPDEST SWAP3 SWAP6 SWAP3 SWAP5 POP POP POP PUSH1 0x40 SWAP2 SWAP1 SWAP2 ADD CALLDATALOAD SWAP1 JUMP JUMPDEST PUSH1 0x0 DUP1 PUSH1 0x0 DUP1 PUSH1 0x80 DUP6 DUP8 SUB SLT ISZERO PUSH2 0x4BA2 JUMPI DUP1 DUP2 REVERT JUMPDEST DUP5 CALLDATALOAD PUSH2 0x4BAD DUP2 PUSH2 0x5544 JUMP JUMPDEST SWAP4 POP PUSH1 0x20 DUP6 ADD CALLDATALOAD PUSH2 0x4BBD DUP2 PUSH2 0x5544 JUMP JUMPDEST SWAP3 POP PUSH1 0x40 DUP6 ADD CALLDATALOAD SWAP2 POP PUSH1 0x60 DUP6 ADD CALLDATALOAD PUSH1 0x1 PUSH1 0x1 PUSH1 0x40 SHL SUB DUP2 GT ISZERO PUSH2 0x4BDE JUMPI DUP2 DUP3 REVERT JUMPDEST DUP6 ADD PUSH1 0x1F DUP2 ADD DUP8 SGT PUSH2 0x4BEE JUMPI DUP2 DUP3 REVERT JUMPDEST PUSH2 0x4BFD DUP8 DUP3 CALLDATALOAD PUSH1 0x20 DUP5 ADD PUSH2 0x4A1F JUMP JUMPDEST SWAP2 POP POP SWAP3 SWAP6 SWAP2 SWAP5 POP SWAP3 POP JUMP JUMPDEST PUSH1 0x0 DUP1 PUSH1 0x0 DUP1 PUSH1 0x80 DUP6 DUP8 SUB SLT ISZERO PUSH2 0x4C1E JUMPI DUP4 DUP5 REVERT JUMPDEST DUP5 CALLDATALOAD PUSH2 0x4C29 DUP2 PUSH2 0x5544 JUMP JUMPDEST SWAP4 POP PUSH1 0x20 DUP6 ADD CALLDATALOAD PUSH2 0x4C39 DUP2 PUSH2 0x5544 JUMP JUMPDEST SWAP4 SWAP7 SWAP4 SWAP6 POP POP POP POP PUSH1 0x40 DUP3 ADD CALLDATALOAD SWAP2 PUSH1 0x60 ADD CALLDATALOAD SWAP1 JUMP JUMPDEST PUSH1 0x0 DUP1 PUSH1 0x0 DUP1 PUSH1 0x0 PUSH1 0xA0 DUP7 DUP9 SUB SLT ISZERO PUSH2 0x4C65 JUMPI DUP1 DUP2 REVERT JUMPDEST DUP6 CALLDATALOAD PUSH2 0x4C70 DUP2 PUSH2 0x5544 JUMP JUMPDEST SWAP5 POP PUSH1 0x20 DUP7 ADD CALLDATALOAD PUSH2 0x4C80 DUP2 PUSH2 0x5544 JUMP JUMPDEST SWAP5 SWAP8 SWAP5 SWAP7 POP POP POP POP PUSH1 0x40 DUP4 ADD CALLDATALOAD SWAP3 PUSH1 0x60 DUP2 ADD CALLDATALOAD SWAP3 PUSH1 0x80 SWAP1 SWAP2 ADD CALLDATALOAD SWAP2 POP JUMP JUMPDEST PUSH1 0x0 DUP1 PUSH1 0x40 DUP4 DUP6 SUB SLT ISZERO PUSH2 0x4CB0 JUMPI DUP2 DUP3 REVERT JUMPDEST DUP3 CALLDATALOAD PUSH2 0x4CBB DUP2 PUSH2 0x5544 JUMP JUMPDEST SWAP2 POP PUSH1 0x20 DUP4 ADD CALLDATALOAD PUSH2 0x4B42 DUP2 PUSH2 0x5559 JUMP JUMPDEST PUSH1 0x0 DUP1 PUSH1 0x40 DUP4 DUP6 SUB SLT ISZERO PUSH2 0x4CDD JUMPI DUP2 DUP3 REVERT JUMPDEST DUP3 CALLDATALOAD PUSH2 0x4CE8 DUP2 PUSH2 0x5544 JUMP JUMPDEST SWAP5 PUSH1 0x20 SWAP4 SWAP1 SWAP4 ADD CALLDATALOAD SWAP4 POP POP POP JUMP JUMPDEST PUSH1 0x0 DUP1 PUSH1 0x0 PUSH1 0x60 DUP5 DUP7 SUB SLT ISZERO PUSH2 0x4D0A JUMPI DUP1 DUP2 REVERT JUMPDEST DUP4 CALLDATALOAD PUSH2 0x4D15 DUP2 PUSH2 0x5544 JUMP JUMPDEST SWAP6 PUSH1 0x20 DUP6 ADD CALLDATALOAD SWAP6 POP PUSH1 0x40 SWAP1 SWAP5 ADD CALLDATALOAD SWAP4 SWAP3 POP POP POP JUMP JUMPDEST PUSH1 0x0 DUP1 PUSH1 0x20 DUP4 DUP6 SUB SLT ISZERO PUSH2 0x4D3C JUMPI DUP2 DUP3 REVERT JUMPDEST DUP3 CALLDATALOAD PUSH1 0x1 PUSH1 0x1 PUSH1 0x40 SHL SUB DUP2 GT ISZERO PUSH2 0x4D51 JUMPI DUP3 DUP4 REVERT JUMPDEST PUSH2 0x4D5D DUP6 DUP3 DUP7 ADD PUSH2 0x4A94 JUMP JUMPDEST SWAP1 SWAP7 SWAP1 SWAP6 POP SWAP4 POP POP POP POP JUMP JUMPDEST PUSH1 0x0 DUP1 PUSH1 0x0 PUSH1 0x40 DUP5 DUP7 SUB SLT ISZERO PUSH2 0x4D7D JUMPI DUP1 DUP2 REVERT JUMPDEST DUP4 CALLDATALOAD PUSH1 0x1 PUSH1 0x1 PUSH1 0x40 SHL SUB DUP2 GT ISZERO PUSH2 0x4D92 JUMPI DUP2 DUP3 REVERT JUMPDEST PUSH2 0x4D9E DUP7 DUP3 DUP8 ADD PUSH2 0x4A94 JUMP JUMPDEST SWAP1 SWAP8 SWAP1 SWAP7 POP PUSH1 0x20 SWAP6 SWAP1 SWAP6 ADD CALLDATALOAD SWAP5 SWAP4 POP POP POP POP JUMP JUMPDEST PUSH1 0x0 PUSH1 0x20 DUP3 DUP5 SUB SLT ISZERO PUSH2 0x4DC3 JUMPI DUP1 DUP2 REVERT JUMPDEST DUP2 MLOAD PUSH2 0x2605 DUP2 PUSH2 0x5559 JUMP JUMPDEST PUSH1 0x0 PUSH1 0x20 DUP3 DUP5 SUB SLT ISZERO PUSH2 0x4DDF JUMPI DUP1 DUP2 REVERT JUMPDEST POP CALLDATALOAD SWAP2 SWAP1 POP JUMP JUMPDEST PUSH1 0x0 DUP1 PUSH1 0x40 DUP4 DUP6 SUB SLT ISZERO PUSH2 0x4DF8 JUMPI DUP2 DUP3 REVERT JUMPDEST DUP3 CALLDATALOAD SWAP2 POP PUSH1 0x20 DUP4 ADD CALLDATALOAD PUSH2 0x4B42 DUP2 PUSH2 0x5544 JUMP JUMPDEST PUSH1 0x0 PUSH1 0x20 DUP3 DUP5 SUB SLT ISZERO PUSH2 0x4E1B JUMPI DUP1 DUP2 REVERT JUMPDEST DUP2 CALLDATALOAD PUSH2 0x2605 DUP2 PUSH2 0x5567 JUMP JUMPDEST PUSH1 0x0 PUSH1 0x20 DUP3 DUP5 SUB SLT ISZERO PUSH2 0x4E37 JUMPI DUP1 DUP2 REVERT JUMPDEST DUP2 MLOAD PUSH2 0x2605 DUP2 PUSH2 0x5567 JUMP JUMPDEST PUSH1 0x0 PUSH1 0x20 DUP3 DUP5 SUB SLT ISZERO PUSH2 0x4E53 JUMPI DUP1 DUP2 REVERT JUMPDEST POP MLOAD SWAP2 SWAP1 POP JUMP JUMPDEST PUSH1 0x0 DUP1 PUSH1 0x0 PUSH1 0x40 DUP5 DUP7 SUB SLT ISZERO PUSH2 0x4E6E JUMPI DUP1 DUP2 REVERT JUMPDEST DUP4 CALLDATALOAD SWAP3 POP PUSH1 0x20 DUP5 ADD CALLDATALOAD PUSH1 0x1 PUSH1 0x1 PUSH1 0x40 SHL SUB DUP2 GT ISZERO PUSH2 0x4E8A JUMPI DUP2 DUP3 REVERT JUMPDEST PUSH2 0x4E96 DUP7 DUP3 DUP8 ADD PUSH2 0x4A94 JUMP JUMPDEST SWAP5 SWAP8 SWAP1 SWAP7 POP SWAP4 SWAP5 POP POP POP POP JUMP JUMPDEST PUSH1 0x0 DUP1 PUSH1 0x0 DUP1 PUSH1 0x0 PUSH1 0xA0 DUP7 DUP9 SUB SLT ISZERO PUSH2 0x4EBA JUMPI DUP3 DUP4 REVERT JUMPDEST DUP6 CALLDATALOAD SWAP5 POP PUSH1 0x20 DUP7 ADD CALLDATALOAD PUSH2 0x4ECC DUP2 PUSH2 0x5559 JUMP JUMPDEST SWAP4 POP PUSH1 0x40 DUP7 ADD CALLDATALOAD PUSH2 0x4EDC DUP2 PUSH2 0x5559 JUMP JUMPDEST SWAP3 POP PUSH1 0x60 DUP7 ADD CALLDATALOAD PUSH2 0x4EEC DUP2 PUSH2 0x5544 JUMP JUMPDEST SWAP2 POP PUSH1 0x80 DUP7 ADD CALLDATALOAD PUSH1 0x1 PUSH1 0x1 PUSH1 0x40 SHL SUB DUP2 GT ISZERO PUSH2 0x4F06 JUMPI DUP2 DUP3 REVERT JUMPDEST DUP7 ADD PUSH1 0x1F DUP2 ADD DUP9 SGT PUSH2 0x4F16 JUMPI DUP2 DUP3 REVERT JUMPDEST PUSH2 0x4F25 DUP9 DUP3 CALLDATALOAD PUSH1 0x20 DUP5 ADD PUSH2 0x4A1F JUMP JUMPDEST SWAP2 POP POP SWAP3 SWAP6 POP SWAP3 SWAP6 SWAP1 SWAP4 POP JUMP JUMPDEST PUSH1 0x0 DUP1 PUSH1 0x40 DUP4 DUP6 SUB SLT ISZERO PUSH2 0x4F44 JUMPI DUP2 DUP3 REVERT JUMPDEST POP POP DUP1 CALLDATALOAD SWAP3 PUSH1 0x20 SWAP1 SWAP2 ADD CALLDATALOAD SWAP2 POP JUMP JUMPDEST PUSH1 0x0 DUP1 PUSH1 0x40 DUP4 DUP6 SUB SLT ISZERO PUSH2 0x4F65 JUMPI DUP2 DUP3 REVERT JUMPDEST POP POP DUP1 MLOAD PUSH1 0x20 SWAP1 SWAP2 ADD MLOAD SWAP1 SWAP3 SWAP1 SWAP2 POP JUMP JUMPDEST PUSH1 0x0 DUP1 PUSH1 0x0 PUSH1 0x60 DUP5 DUP7 SUB SLT ISZERO PUSH2 0x4F8A JUMPI DUP1 DUP2 REVERT JUMPDEST DUP4 MLOAD SWAP3 POP PUSH1 0x20 DUP5 ADD MLOAD SWAP2 POP PUSH1 0x40 DUP5 ADD MLOAD SWAP1 POP SWAP3 POP SWAP3 POP SWAP3 JUMP JUMPDEST PUSH1 0x0 DUP1 PUSH1 0x0 DUP1 PUSH1 0x0 PUSH1 0xA0 DUP7 DUP9 SUB SLT ISZERO PUSH2 0x4FBA JUMPI DUP3 DUP4 REVERT JUMPDEST DUP6 CALLDATALOAD SWAP5 POP PUSH1 0x20 DUP7 ADD CALLDATALOAD SWAP4 POP PUSH1 0x40 DUP7 ADD CALLDATALOAD SWAP3 POP PUSH1 0x60 DUP7 ADD CALLDATALOAD PUSH2 0x4FDA DUP2 PUSH2 0x5559 JUMP JUMPDEST SWAP2 POP PUSH1 0x80 DUP7 ADD CALLDATALOAD PUSH2 0x4FEA DUP2 PUSH2 0x5559 JUMP JUMPDEST DUP1 SWAP2 POP POP SWAP3 SWAP6 POP SWAP3 SWAP6 SWAP1 SWAP4 POP JUMP JUMPDEST PUSH1 0x0 DUP2 MLOAD DUP1 DUP5 MSTORE PUSH2 0x5010 DUP2 PUSH1 0x20 DUP7 ADD PUSH1 0x20 DUP7 ADD PUSH2 0x5445 JUMP JUMPDEST PUSH1 0x1F ADD PUSH1 0x1F NOT AND SWAP3 SWAP1 SWAP3 ADD PUSH1 0x20 ADD SWAP3 SWAP2 POP POP JUMP JUMPDEST PUSH1 0x3 DUP2 LT PUSH2 0x5034 JUMPI PUSH2 0x5034 PUSH2 0x5518 JUMP JUMPDEST SWAP1 MSTORE JUMP JUMPDEST PUSH1 0x0 DUP4 MLOAD PUSH2 0x504A DUP2 DUP5 PUSH1 0x20 DUP9 ADD PUSH2 0x5445 JUMP JUMPDEST DUP4 MLOAD SWAP1 DUP4 ADD SWAP1 PUSH2 0x505E DUP2 DUP4 PUSH1 0x20 DUP9 ADD PUSH2 0x5445 JUMP JUMPDEST ADD SWAP5 SWAP4 POP POP POP POP JUMP JUMPDEST PUSH23 0x20B1B1B2B9B9A1B7B73A3937B61D1030B1B1B7BAB73A1 PUSH1 0x4D SHL DUP2 MSTORE PUSH1 0x0 DUP4 MLOAD PUSH2 0x5099 DUP2 PUSH1 0x17 DUP6 ADD PUSH1 0x20 DUP9 ADD PUSH2 0x5445 JUMP JUMPDEST PUSH17 0x1034B99036B4B9B9B4B733903937B6329 PUSH1 0x7D SHL PUSH1 0x17 SWAP2 DUP5 ADD SWAP2 DUP3 ADD MSTORE DUP4 MLOAD PUSH2 0x50CA DUP2 PUSH1 0x28 DUP5 ADD PUSH1 0x20 DUP9 ADD PUSH2 0x5445 JUMP JUMPDEST ADD PUSH1 0x28 ADD SWAP5 SWAP4 POP POP POP POP JUMP JUMPDEST PUSH1 0x1 PUSH1 0x1 PUSH1 0xA0 SHL SUB SWAP2 SWAP1 SWAP2 AND DUP2 MSTORE PUSH1 0x20 ADD SWAP1 JUMP JUMPDEST PUSH1 0x1 PUSH1 0x1 PUSH1 0xA0 SHL SUB DUP6 DUP2 AND DUP3 MSTORE DUP5 AND PUSH1 0x20 DUP3 ADD MSTORE PUSH1 0x40 DUP2 ADD DUP4 SWAP1 MSTORE PUSH1 0x80 PUSH1 0x60 DUP3 ADD DUP2 SWAP1 MSTORE PUSH1 0x0 SWAP1 PUSH2 0x511D SWAP1 DUP4 ADD DUP5 PUSH2 0x4FF8 JUMP JUMPDEST SWAP7 SWAP6 POP POP POP POP POP POP JUMP JUMPDEST PUSH1 0x1 PUSH1 0x1 PUSH1 0xA0 SHL SUB SWAP3 SWAP1 SWAP3 AND DUP3 MSTORE PUSH1 0x20 DUP3 ADD MSTORE PUSH1 0x40 ADD SWAP1 JUMP JUMPDEST PUSH1 0x20 DUP1 DUP3 MSTORE DUP3 MLOAD DUP3 DUP3 ADD DUP2 SWAP1 MSTORE PUSH1 0x0 SWAP2 SWAP1 DUP5 DUP3 ADD SWAP1 PUSH1 0x40 DUP6 ADD SWAP1 DUP5 JUMPDEST DUP2 DUP2 LT ISZERO PUSH2 0x5178 JUMPI DUP4 MLOAD DUP4 MSTORE SWAP3 DUP5 ADD SWAP3 SWAP2 DUP5 ADD SWAP2 PUSH1 0x1 ADD PUSH2 0x515C JUMP JUMPDEST POP SWAP1 SWAP7 SWAP6 POP POP POP POP POP POP JUMP JUMPDEST PUSH1 0xE0 DUP2 ADD PUSH1 0x4 DUP10 LT PUSH2 0x5198 JUMPI PUSH2 0x5198 PUSH2 0x5518 JUMP JUMPDEST DUP9 DUP3 MSTORE DUP8 PUSH1 0x20 DUP4 ADD MSTORE DUP7 PUSH1 0x40 DUP4 ADD MSTORE DUP6 PUSH1 0x60 DUP4 ADD MSTORE DUP5 PUSH1 0x80 DUP4 ADD MSTORE DUP4 PUSH1 0xA0 DUP4 ADD MSTORE PUSH2 0x51C6 PUSH1 0xC0 DUP4 ADD DUP5 PUSH2 0x5024 JUMP JUMPDEST SWAP9 SWAP8 POP POP POP POP POP POP POP POP JUMP JUMPDEST SWAP2 DUP3 MSTORE PUSH1 0x20 DUP3 ADD MSTORE PUSH1 0x40 ADD SWAP1 JUMP JUMPDEST PUSH1 0x20 DUP2 MSTORE PUSH1 0x0 PUSH2 0x2605 PUSH1 0x20 DUP4 ADD DUP5 PUSH2 0x4FF8 JUMP JUMPDEST PUSH1 0x20 DUP1 DUP3 MSTORE PUSH1 0x2 SWAP1 DUP3 ADD MSTORE PUSH2 0x4F39 PUSH1 0xF0 SHL PUSH1 0x40 DUP3 ADD MSTORE PUSH1 0x60 ADD SWAP1 JUMP JUMPDEST PUSH1 0x20 DUP1 DUP3 MSTORE PUSH1 0x32 SWAP1 DUP3 ADD MSTORE PUSH32 0x4552433732313A207472616E7366657220746F206E6F6E204552433732315265 PUSH1 0x40 DUP3 ADD MSTORE PUSH18 0x31B2B4BB32B91034B6B83632B6B2B73A32B9 PUSH1 0x71 SHL PUSH1 0x60 DUP3 ADD MSTORE PUSH1 0x80 ADD SWAP1 JUMP JUMPDEST PUSH1 0x20 DUP1 DUP3 MSTORE PUSH1 0x3 SWAP1 DUP3 ADD MSTORE PUSH3 0x4F323 PUSH1 0xEC SHL PUSH1 0x40 DUP3 ADD MSTORE PUSH1 0x60 ADD SWAP1 JUMP JUMPDEST PUSH1 0x20 DUP1 DUP3 MSTORE PUSH1 0x2 SWAP1 DUP3 ADD MSTORE PUSH2 0x4E37 PUSH1 0xF0 SHL PUSH1 0x40 DUP3 ADD MSTORE PUSH1 0x60 ADD SWAP1 JUMP JUMPDEST PUSH1 0x20 DUP1 DUP3 MSTORE DUP2 DUP2 ADD MSTORE PUSH32 0x4F776E61626C653A2063616C6C6572206973206E6F7420746865206F776E6572 PUSH1 0x40 DUP3 ADD MSTORE PUSH1 0x60 ADD SWAP1 JUMP JUMPDEST PUSH1 0x20 DUP1 DUP3 MSTORE PUSH1 0x31 SWAP1 DUP3 ADD MSTORE PUSH32 0x4552433732313A207472616E736665722063616C6C6572206973206E6F74206F PUSH1 0x40 DUP3 ADD MSTORE PUSH17 0x1DDB995C881B9BDC88185C1C1C9BDD9959 PUSH1 0x7A SHL PUSH1 0x60 DUP3 ADD MSTORE PUSH1 0x80 ADD SWAP1 JUMP JUMPDEST PUSH1 0x20 DUP1 DUP3 MSTORE PUSH1 0x2 SWAP1 DUP3 ADD MSTORE PUSH2 0x4F31 PUSH1 0xF0 SHL PUSH1 0x40 DUP3 ADD MSTORE PUSH1 0x60 ADD SWAP1 JUMP JUMPDEST PUSH1 0x20 DUP1 DUP3 MSTORE PUSH1 0x2 SWAP1 DUP3 ADD MSTORE PUSH2 0x13CD PUSH1 0xF2 SHL PUSH1 0x40 DUP3 ADD MSTORE PUSH1 0x60 ADD SWAP1 JUMP JUMPDEST DUP5 DUP2 MSTORE PUSH1 0x20 DUP2 ADD DUP5 SWAP1 MSTORE PUSH1 0x80 DUP2 ADD PUSH2 0x5373 PUSH1 0x40 DUP4 ADD DUP6 PUSH2 0x5024 JUMP JUMPDEST DUP3 ISZERO ISZERO PUSH1 0x60 DUP4 ADD MSTORE SWAP6 SWAP5 POP POP POP POP POP JUMP JUMPDEST DUP5 DUP2 MSTORE PUSH1 0x20 DUP2 ADD DUP5 SWAP1 MSTORE PUSH1 0x80 DUP2 ADD PUSH2 0x539F PUSH1 0x40 DUP4 ADD DUP6 PUSH2 0x5024 JUMP JUMPDEST DUP3 PUSH1 0x60 DUP4 ADD MSTORE SWAP6 SWAP5 POP POP POP POP POP JUMP JUMPDEST DUP4 DUP2 MSTORE DUP3 PUSH1 0x20 DUP3 ADD MSTORE PUSH1 0x60 PUSH1 0x40 DUP3 ADD MSTORE PUSH1 0x0 PUSH2 0x3707 PUSH1 0x60 DUP4 ADD DUP5 PUSH2 0x4FF8 JUMP JUMPDEST SWAP3 DUP4 MSTORE PUSH1 0x20 DUP4 ADD SWAP2 SWAP1 SWAP2 MSTORE PUSH1 0x40 DUP3 ADD MSTORE PUSH1 0x60 ADD SWAP1 JUMP JUMPDEST PUSH1 0x0 DUP3 NOT DUP3 GT ISZERO PUSH2 0x53F6 JUMPI PUSH2 0x53F6 PUSH2 0x54EC JUMP JUMPDEST POP ADD SWAP1 JUMP JUMPDEST PUSH1 0x0 DUP3 PUSH2 0x540A JUMPI PUSH2 0x540A PUSH2 0x5502 JUMP JUMPDEST POP DIV SWAP1 JUMP JUMPDEST PUSH1 0x0 DUP2 PUSH1 0x0 NOT DIV DUP4 GT DUP3 ISZERO ISZERO AND ISZERO PUSH2 0x5429 JUMPI PUSH2 0x5429 PUSH2 0x54EC JUMP JUMPDEST POP MUL SWAP1 JUMP JUMPDEST PUSH1 0x0 DUP3 DUP3 LT ISZERO PUSH2 0x5440 JUMPI PUSH2 0x5440 PUSH2 0x54EC JUMP JUMPDEST POP SUB SWAP1 JUMP JUMPDEST PUSH1 0x0 JUMPDEST DUP4 DUP2 LT ISZERO PUSH2 0x5460 JUMPI DUP2 DUP2 ADD MLOAD DUP4 DUP3 ADD MSTORE PUSH1 0x20 ADD PUSH2 0x5448 JUMP JUMPDEST DUP4 DUP2 GT ISZERO PUSH2 0x14EC JUMPI POP POP PUSH1 0x0 SWAP2 ADD MSTORE JUMP JUMPDEST PUSH1 0x0 DUP2 PUSH2 0x5480 JUMPI PUSH2 0x5480 PUSH2 0x54EC JUMP JUMPDEST POP PUSH1 0x0 NOT ADD SWAP1 JUMP JUMPDEST PUSH1 0x1 DUP2 DUP2 SHR SWAP1 DUP3 AND DUP1 PUSH2 0x549C JUMPI PUSH1 0x7F DUP3 AND SWAP2 POP JUMPDEST PUSH1 0x20 DUP3 LT DUP2 EQ ISZERO PUSH2 0x907 JUMPI PUSH4 0x4E487B71 PUSH1 0xE0 SHL PUSH1 0x0 MSTORE PUSH1 0x22 PUSH1 0x4 MSTORE PUSH1 0x24 PUSH1 0x0 REVERT JUMPDEST PUSH1 0x0 PUSH1 0x0 NOT DUP3 EQ ISZERO PUSH2 0x54D1 JUMPI PUSH2 0x54D1 PUSH2 0x54EC JUMP JUMPDEST POP PUSH1 0x1 ADD SWAP1 JUMP JUMPDEST PUSH1 0x0 DUP3 PUSH2 0x54E7 JUMPI PUSH2 0x54E7 PUSH2 0x5502 JUMP JUMPDEST POP MOD SWAP1 JUMP JUMPDEST PUSH4 0x4E487B71 PUSH1 0xE0 SHL PUSH1 0x0 MSTORE PUSH1 0x11 PUSH1 0x4 MSTORE PUSH1 0x24 PUSH1 0x0 REVERT JUMPDEST PUSH4 0x4E487B71 PUSH1 0xE0 SHL PUSH1 0x0 MSTORE PUSH1 0x12 PUSH1 0x4 MSTORE PUSH1 0x24 PUSH1 0x0 REVERT JUMPDEST PUSH4 0x4E487B71 PUSH1 0xE0 SHL PUSH1 0x0 MSTORE PUSH1 0x21 PUSH1 0x4 MSTORE PUSH1 0x24 PUSH1 0x0 REVERT JUMPDEST PUSH4 0x4E487B71 PUSH1 0xE0 SHL PUSH1 0x0 MSTORE PUSH1 0x41 PUSH1 0x4 MSTORE PUSH1 0x24 PUSH1 0x0 REVERT JUMPDEST PUSH1 0x1 PUSH1 0x1 PUSH1 0xA0 SHL SUB DUP2 AND DUP2 EQ PUSH2 0x1135 JUMPI PUSH1 0x0 DUP1 REVERT JUMPDEST DUP1 ISZERO ISZERO DUP2 EQ PUSH2 0x1135 JUMPI PUSH1 0x0 DUP1 REVERT JUMPDEST PUSH1 0x1 PUSH1 0x1 PUSH1 0xE0 SHL SUB NOT DUP2 AND DUP2 EQ PUSH2 0x1135 JUMPI PUSH1 0x0 DUP1 REVERT INVALID PUSH9 0x747470733A2F2F6761 PUSH21 0x657761792E70696E6174612E636C6F75642F697066 PUSH20 0x2FDDF252AD1BE2C89B69C2B068FC378DAA952BA7 CALL PUSH4 0xC4A11628 CREATE2 GAS 0x4D CREATE2 0x23 0xB3 0xEF DUP3 GASPRICE CALLVALUE RETURNDATASIZE SHR DUP10 SWAP15 PUSH2 0xA4DB SLT 0x24 PUSH23 0x36A6882BF1FEFAE78BEF39170F8D0F5B53E456A2646970 PUSH7 0x73582212206A2B LOG3 SLT LOG4 0x1E 0xE3 0xDE PUSH14 0xD87787AAEEBBBC134D1AE6478E11 PUSH31 0x3755E08F747851D864736F6C63430008040033000000000000000000000000 ",
  "sha1": "8a5ab36f5231fbcc7bee2b58f070dc8e7bdc4c1b",
  "source": "pragma solidity ^0.8.0;\n\n// SPDX-License-Identifier: BUSL-1.1\n\nimport \"@openzeppelin/contracts/access/Ownable.sol\";\nimport \"@openzeppelin/contracts/security/ReentrancyGuard.sol\";\nimport \"@openzeppelin/contracts/token/ERC20/ERC20.sol\";\nimport \"../OptionConfig.sol\";\nimport \"../BufferNFTCore.sol\";\nimport \"../../Pool/BufferIBFRPoolV2.sol\";\nimport \"../../Libraries/OptionFeeCalculator.sol\";\n\n/**\n * @author Heisenberg\n * @title Buffer TokenX Bidirectional (Call and Put) Options\n * @notice Buffer TokenX Options Contract\n */\ncontract BufferBinaryEuropeanKPIOptions is\n    IBufferOptions,\n    Ownable,\n    ReentrancyGuard,\n    BufferNFTCore\n{\n    ERC20 public tokenX;\n    ISlidingWindowOracle public KPIOracle;\n    address public tvlOracle;\n    mapping(uint256 => string) private _tokenURIs;\n    IPriceProvider public priceProvider;\n    uint256 public nextTokenId = 0;\n    mapping(uint256 => Option) public options;\n    mapping(uint256 => BinaryOptionType) public binaryOptionType;\n    mapping(uint256 => uint256) public expiryToRoundID;\n    BufferIBFRPoolV2 public pool;\n    OptionConfig public config;\n    mapping(uint256 => SlotDetail) public slotDetails;\n    uint256 internal contractCreationTimestamp;\n\n    bytes32 public constant AUTO_CLOSER_ROLE = keccak256(\"AUTO_CLOSER_ROLE\");\n\n    uint256 public constant minimumYield = 5;\n\n    constructor(\n        ERC20 _tokenX,\n        address _tvlOracle,\n        ISlidingWindowOracle _KPIOracle,\n        IPriceProvider pp,\n        BufferIBFRPoolV2 _pool,\n        OptionConfig _config\n    ) {\n        tokenX = _tokenX;\n        KPIOracle = _KPIOracle;\n        tvlOracle = _tvlOracle;\n        pool = _pool;\n        contractCreationTimestamp = block.timestamp;\n        config = _config;\n        priceProvider = pp;\n        _setupRole(DEFAULT_ADMIN_ROLE, msg.sender);\n    }\n\n    /**\n     * @notice Call this to set the max approval for tokenX transfers from the options to pool\n     */\n    function approvePoolToTransferTokenX() public {\n        tokenX.approve(address(pool), ~uint256(0));\n    }\n\n    /************************************************\n     *  OPTIONS CORE\n     ***********************************************/\n    /**\n     * @notice Creates a new option\n     * @param amount Option amount in tokenX\n     * @param isYes Whether the option isAbove or not\n     * @param isAbove Whether the price will stay above this strike or not\n     * @param referrer Referrer address\n     * @param metadata Option metadata\n     * @return optionID Created option's ID\n     */\n    function create(\n        uint256 amount,\n        bool isYes,\n        bool isAbove,\n        address referrer,\n        string memory metadata\n    ) external nonReentrant returns (uint256 optionID) {\n        uint256 poolExpiration = pool.fixedExpiry();\n        require(poolExpiration > block.timestamp, \"O1\");\n        uint256 period = poolExpiration - block.timestamp;\n\n        require(period >= 12 hours, \"O1\");\n\n        (uint256 totalFee, uint256 settlementFee, uint256 premium) = fees(\n            period,\n            amount,\n            config.fixedStrike(),\n            isYes,\n            isAbove\n        );\n\n        require(\n            totalFee * 365 days * 100 > amount * period * minimumYield,\n            \"O2\"\n        );\n\n        // User has to approve first inorder to execute this function\n        bool success = tokenX.transferFrom(msg.sender, address(this), totalFee);\n        require(success, \"O3\");\n        OptionType optionType = OptionType.Put;\n\n        if (\n            (isYes == true && isAbove == true) ||\n            (isYes == false && isAbove == false)\n        ) {\n            optionType = OptionType.Call;\n        }\n        Option memory option = Option(\n            State.Active,\n            config.fixedStrike(),\n            amount,\n            amount,\n            premium,\n            block.timestamp + period,\n            optionType\n        );\n        optionID = _generateTokenId();\n        binaryOptionType[optionID] = BinaryOptionType(isYes, isAbove);\n        _setOption(optionID, option);\n        _mint(\n            optionID,\n            msg.sender,\n            createSlot(optionID, option.strike, option.expiration, optionType)\n        );\n        _setTokenURI(optionID, metadata);\n        uint256 stakingAmount = distributeSettlementFee(\n            settlementFee,\n            referrer\n        );\n\n        _lock(optionID, option.lockedAmount, option.premium);\n        emit Create(optionID, msg.sender, stakingAmount, totalFee, metadata);\n    }\n\n    function distributeSettlementFee(uint256 settlementFee, address referrer)\n        internal\n        returns (uint256 stakingAmount)\n    {\n        stakingAmount = ((settlementFee * config.stakingFeePercentage()) / 100);\n\n        // Incase the stakingAmount is 0\n        if (stakingAmount > 0) {\n            tokenX.transfer(config.settlementFeeRecipient(), stakingAmount);\n        }\n\n        uint256 adminFee = settlementFee - stakingAmount;\n        if (adminFee > 0) {\n            if (\n                config.referralRewardPercentage() > 0 &&\n                referrer != owner() &&\n                referrer != msg.sender\n            ) {\n                uint256 referralReward = (adminFee *\n                    config.referralRewardPercentage()) / 100;\n                adminFee = adminFee - referralReward;\n                tokenX.transfer(referrer, referralReward);\n                emit PayReferralFee(referrer, referralReward);\n            }\n            tokenX.transfer(owner(), adminFee);\n            emit PayAdminFee(owner(), adminFee);\n        }\n    }\n\n    function _modifyOption(\n        uint256 optionID,\n        Option memory option,\n        uint256 lockedAmount,\n        uint256 amount,\n        uint256 premium\n    ) internal returns (Option memory modifiedOption) {\n        option.lockedAmount = lockedAmount;\n        option.amount = amount;\n        option.premium = premium;\n        modifiedOption = option;\n        _setOption(optionID, option);\n    }\n\n    function _lock(\n        uint256 id,\n        uint256 lockedAmount,\n        uint256 premium\n    ) internal {\n        pool.lock(id, lockedAmount, premium);\n    }\n\n    /**\n     * @notice Sets the expiry price in the oracle\n     * @dev a roundId must be provided to confirm price validity,\n     * which is the first Chainlink price provided after the expiryTimestamp\n     * @param roundId the first roundId after expiryTimestamp\n     * @return isCorrectRoundId Has the roundID been set\n     */\n    function setRoundIDForExpiry(uint256 roundId)\n        external\n        returns (bool isCorrectRoundId)\n    {\n        (uint256 roundTimestamp, uint256 KPI) = KPIOracle\n            .getTimeWeightedAverageTVL(tvlOracle, roundId);\n        uint256 expiryTimestamp = pool.fixedExpiry();\n        require(expiryTimestamp < roundTimestamp, \"C1\");\n        require(KPI >= 0, \"C2\");\n        uint256 previousRoundId = roundId - 1;\n        while (!isCorrectRoundId) {\n            (uint256 previousRoundTimestamp, ) = KPIOracle\n                .getTimeWeightedAverageTVL(tvlOracle, previousRoundId);\n\n            if (previousRoundTimestamp == 0) {\n                require(previousRoundId > 0, \"C3\");\n                previousRoundId = previousRoundId - 1;\n            } else if (previousRoundTimestamp > expiryTimestamp) {\n                revert(\"C4\");\n            } else {\n                isCorrectRoundId = true;\n                expiryToRoundID[expiryTimestamp] = previousRoundId;\n            }\n        }\n    }\n\n    /**\n     * @notice Unlocks the locked funds if the option was\n     * OTM at the time of expiry otherwise exercises it\n     * @param optionID ID of the option\n     */\n    function unlock(uint256 optionID) public {\n        Option storage option = options[optionID];\n        require(option.expiration <= block.timestamp, \"O4\");\n        require(option.state == State.Active, \"O5\");\n        uint256 roundID = expiryToRoundID[option.expiration];\n        require(roundID > 0, \"O20\");\n\n        (, uint256 KPIAtExpiration) = KPIOracle.getTimeWeightedAverageTVL(\n            tvlOracle,\n            roundID\n        );\n        if (\n            (option.optionType == OptionType.Call &&\n                KPIAtExpiration >= option.strike) ||\n            (option.optionType == OptionType.Put &&\n                KPIAtExpiration <= option.strike)\n        ) {\n            exercise(optionID);\n        } else {\n            option.state = State.Expired;\n            pool.unlock(optionID);\n            burnToken(optionID);\n            emit Expire(optionID, option.premium);\n        }\n    }\n\n    /**\n     * @notice Unlocks an array of options\n     * @param optionIDs array of options\n     */\n    function unlockAll(uint256[] calldata optionIDs) external {\n        uint256 arrayLength = optionIDs.length;\n        for (uint256 i = 0; i < arrayLength; i++) {\n            unlock(optionIDs[i]);\n        }\n    }\n\n    /**\n     * @notice Exercises an option if it was\n     * ITM at the time of expiry\n     * @param optionID ID of your option\n     * @return profit Profit sent to the user\n     */\n    function exercise(uint256 optionID) public returns (uint256 profit) {\n        require(exists(optionID), \"O10\");\n\n        Option storage option = options[optionID];\n\n        require(option.expiration <= block.timestamp, \"O4\");\n        require(option.state == State.Active, \"O14\");\n        uint256 roundID = expiryToRoundID[option.expiration];\n        require(roundID > 0, \"O20\");\n\n        (, uint256 KPIAtExpiration) = KPIOracle.getTimeWeightedAverageTVL(\n            tvlOracle,\n            roundID\n        );\n\n        if (option.optionType == OptionType.Call) {\n            require(option.strike <= KPIAtExpiration, \"O17\");\n        } else {\n            require(option.strike >= KPIAtExpiration, \"O18\");\n        }\n        profit = option.lockedAmount;\n        pool.send(optionID, ownerOf(optionID), profit);\n        // Burn the option\n        burnToken(optionID);\n        option.state = State.Exercised;\n        emit Exercise(optionID, profit);\n    }\n\n    /**\n     * @notice Used for getting the option's price using blackscholes\n     * @param period Option period in seconds\n     * @param amount Option amount\n     * @param strike Strike price of the option\n     * @param isYes whether the option isAbove or not\n     * @param isAbove whether the price will stay above this strike or not\n     * @return total Total price to be paid\n     * @return settlementFee Amount to be distributed to the Buffer token holders\n     * @return premium Amount that covers the price difference in the ITM options\n     */\n    function fees(\n        uint256 period,\n        uint256 amount,\n        uint256 strike,\n        bool isYes,\n        bool isAbove\n    )\n        public\n        view\n        returns (\n            uint256 total,\n            uint256 settlementFee,\n            uint256 premium\n        )\n    {\n        uint256 currentPrice = priceProvider.getUsdPrice();\n        uint256 KPI = KPIOracle.consult(tvlOracle);\n        OptionDetails memory _optionDetails = OptionDetails(\n            period,\n            amount,\n            strike,\n            isYes,\n            isAbove\n        );\n        (total, settlementFee, premium) = FeeCalculator.feesKPIBinary(\n            _optionDetails,\n            currentPrice,\n            KPI,\n            config,\n            pool\n        );\n    }\n\n    function _generateTokenId() internal returns (uint256) {\n        return nextTokenId++;\n    }\n\n    function _getOption(uint256 optionID)\n        internal\n        view\n        returns (Option memory)\n    {\n        return options[optionID];\n    }\n\n    function _setOption(uint256 optionID, Option memory option) internal {\n        options[optionID] = option;\n    }\n\n    function burn(uint256 tokenId_) external {\n        require(msg.sender == ownerOf(tokenId_), \"O9\");\n        burnToken(tokenId_);\n    }\n\n    /************************************************\n     *  ERC3525 Functions\n     ***********************************************/\n\n    /**\n     * @notice Splits the option\n     * @param optionID OptionId to be splitted\n     * @param splitUnits_ Units to be splitted into\n     * @return newOptionIDs An array of the splitted options\n     */\n    function split(uint256 optionID, uint256[] calldata splitUnits_)\n        external\n        returns (uint256[] memory newOptionIDs)\n    {\n        require(splitUnits_.length > 0, \"N1\");\n        newOptionIDs = new uint256[](splitUnits_.length);\n        Option memory option = _getOption(optionID);\n        uint256 totalUnits = unitsInToken(optionID);\n        uint256 totalChildAmount;\n        uint256 totalChildLockedAmount;\n        uint256 totalChildPremium;\n        // Create child options\n        for (uint256 i = 0; i < splitUnits_.length; i++) {\n            uint256 newOptionID = _generateTokenId();\n            newOptionIDs[i] = newOptionID;\n\n            _split(optionID, newOptionID, splitUnits_[i]);\n\n            uint256 childAmount = (option.amount * splitUnits_[i]) / totalUnits;\n            totalChildAmount += childAmount;\n\n            uint256 childLockedAmount = (option.lockedAmount * splitUnits_[i]) /\n                totalUnits;\n            totalChildLockedAmount += childLockedAmount;\n\n            uint256 childPremium = (option.premium * splitUnits_[i]) /\n                totalUnits;\n            totalChildPremium += childPremium;\n\n            Option memory newOption = Option(\n                option.state,\n                option.strike,\n                childAmount,\n                childLockedAmount,\n                childPremium,\n                option.expiration,\n                option.optionType\n            );\n            _setOption(newOptionID, newOption);\n        }\n        // Modify the parent option once all child options are created\n        option = _modifyOption(\n            optionID,\n            option,\n            option.lockedAmount - totalChildLockedAmount,\n            option.amount - totalChildAmount,\n            option.premium - totalChildPremium\n        );\n        pool.changeLock(optionID, option.lockedAmount, option.premium);\n\n        // Lock the amount in the pool for the child options\n        for (uint256 i = 0; i < splitUnits_.length; i++) {\n            Option memory newOption = _getOption(newOptionIDs[i]);\n            _lock(newOptionIDs[i], newOption.lockedAmount, newOption.premium);\n        }\n    }\n\n    /**\n     * @notice Merges the options\n     * @param optionIDs An array of the optionsIds to be merged\n     * @param targetOptionID OptionId to be merged into\n     */\n    function merge(uint256[] calldata optionIDs, uint256 targetOptionID)\n        external\n    {\n        require(optionIDs.length > 0, \"N4\");\n        Option memory targetOption = _getOption(targetOptionID);\n\n        uint256 totalLockedAmount = targetOption.lockedAmount;\n        uint256 totalAmount = targetOption.amount;\n        uint256 totalPremium = targetOption.premium;\n\n        for (uint256 i = 0; i < optionIDs.length; i++) {\n            Option memory option = _getOption(optionIDs[i]);\n            totalLockedAmount = totalLockedAmount + option.lockedAmount;\n            totalAmount = totalAmount + option.amount;\n            totalPremium = totalPremium + option.premium;\n            pool.unlockWithoutProfit(optionIDs[i]);\n            _merge(optionIDs[i], targetOptionID);\n        }\n        _modifyOption(\n            targetOptionID,\n            targetOption,\n            totalLockedAmount,\n            totalAmount,\n            totalPremium\n        );\n        pool.changeLock(targetOptionID, totalLockedAmount, totalPremium);\n    }\n\n    /**\n     * @notice Transfer part of units of a option to another option.\n     * @param optionID Id of the option to transfer\n     * @param transferUnits_ Amount of units to transfer\n     */\n    function _beforeTransferFrom(uint256 optionID, uint256 transferUnits_)\n        internal\n        returns (\n            uint256 newAmount,\n            uint256 newPremium,\n            uint256 newLockedAmount,\n            Option memory option\n        )\n    {\n        option = _getOption(optionID);\n        uint256 totalUnits = unitsInToken(optionID);\n        newAmount = (option.amount * transferUnits_) / totalUnits;\n        newPremium = (option.premium * transferUnits_) / totalUnits;\n        newLockedAmount = (option.lockedAmount * transferUnits_) / totalUnits;\n\n        option = _modifyOption(\n            optionID,\n            option,\n            option.lockedAmount - newLockedAmount,\n            option.amount - newAmount,\n            option.premium - newPremium\n        );\n        pool.changeLock(optionID, option.lockedAmount, option.premium);\n    }\n\n    /**\n     * @notice Transfer part of units of a option to target address.\n     * @param from_ Address of the option sender\n     * @param to_ Address of the option recipient\n     * @param optionID Id of the option to transfer\n     * @param transferUnits_ Amount of units to transfer\n     */\n    function transferFrom(\n        address from_,\n        address to_,\n        uint256 optionID,\n        uint256 transferUnits_\n    ) external returns (uint256 newOptionID) {\n        newOptionID = _generateTokenId();\n        (\n            uint256 newAmount,\n            uint256 newPremium,\n            uint256 newLockedAmount,\n            Option memory option\n        ) = _beforeTransferFrom(optionID, transferUnits_);\n        Option memory newOption = Option(\n            option.state,\n            option.strike,\n            newAmount,\n            newLockedAmount,\n            newPremium,\n            option.expiration,\n            option.optionType\n        );\n        _setOption(newOptionID, newOption);\n\n        _lock(newOptionID, newLockedAmount, newPremium);\n        _transferUnitsFrom(from_, to_, optionID, newOptionID, transferUnits_);\n    }\n\n    /**\n     * @notice Transfer part of units of a option to another option.\n     * @param from_ Address of the option sender\n     * @param to_ Address of the option recipient\n     * @param optionID Id of the option to transfer\n     * @param targetOptionID Id of the option to receive\n     * @param transferUnits_ Amount of units to transfer\n     */\n    function transferFrom(\n        address from_,\n        address to_,\n        uint256 optionID,\n        uint256 targetOptionID,\n        uint256 transferUnits_\n    ) external virtual {\n        require(exists(targetOptionID), \"N12\");\n        (\n            uint256 newAmount,\n            uint256 newPremium,\n            uint256 newLockedAmount,\n\n        ) = _beforeTransferFrom(optionID, transferUnits_);\n        Option memory targetOption = _getOption(targetOptionID);\n        targetOption = _modifyOption(\n            targetOptionID,\n            targetOption,\n            targetOption.lockedAmount + newLockedAmount,\n            targetOption.amount + newAmount,\n            targetOption.premium + newPremium\n        );\n\n        pool.changeLock(\n            targetOptionID,\n            targetOption.lockedAmount,\n            targetOption.premium\n        );\n        _transferUnitsFrom(\n            from_,\n            to_,\n            optionID,\n            targetOptionID,\n            transferUnits_\n        );\n    }\n\n    function createSlot(\n        uint256 optionID,\n        uint256 strike,\n        uint256 expiration,\n        OptionType optionType\n    ) internal returns (uint256 slot) {\n        slot = uint256(\n            keccak256(abi.encode(strike, expiration, optionType, optionID))\n        );\n        require(!slotDetails[slot].isValid, \"N14\");\n        slotDetails[slot] = SlotDetail(strike, expiration, optionType, true);\n    }\n}\n",
  "sourcePath": "contracts/Options/KPI/BufferBinaryEuropeanKPIOptions.sol",
  "type": "contract"
}