{
  "abi": [
    {
      "inputs": [
        {
          "internalType": "contract ERC20",
          "name": "_tokenX",
          "type": "address"
        },
        {
          "internalType": "contract IPriceProvider",
          "name": "pp",
          "type": "address"
        },
        {
          "internalType": "contract BufferIBFRPoolV2",
          "name": "_pool",
          "type": "address"
        },
        {
          "internalType": "contract OptionConfig",
          "name": "_config",
          "type": "address"
        }
      ],
      "stateMutability": "nonpayable",
      "type": "constructor"
    },
    {
      "anonymous": false,
      "inputs": [
        {
          "indexed": true,
          "internalType": "address",
          "name": "owner",
          "type": "address"
        },
        {
          "indexed": true,
          "internalType": "address",
          "name": "approved",
          "type": "address"
        },
        {
          "indexed": true,
          "internalType": "uint256",
          "name": "tokenId",
          "type": "uint256"
        }
      ],
      "name": "Approval",
      "type": "event"
    },
    {
      "anonymous": false,
      "inputs": [
        {
          "indexed": true,
          "internalType": "address",
          "name": "owner",
          "type": "address"
        },
        {
          "indexed": true,
          "internalType": "address",
          "name": "operator",
          "type": "address"
        },
        {
          "indexed": false,
          "internalType": "bool",
          "name": "approved",
          "type": "bool"
        }
      ],
      "name": "ApprovalForAll",
      "type": "event"
    },
    {
      "anonymous": false,
      "inputs": [
        {
          "indexed": true,
          "internalType": "address",
          "name": "approval",
          "type": "address"
        },
        {
          "indexed": true,
          "internalType": "uint256",
          "name": "tokenId",
          "type": "uint256"
        },
        {
          "indexed": false,
          "internalType": "uint256",
          "name": "allowance",
          "type": "uint256"
        }
      ],
      "name": "ApprovalUnits",
      "type": "event"
    },
    {
      "anonymous": false,
      "inputs": [
        {
          "indexed": true,
          "internalType": "address",
          "name": "account",
          "type": "address"
        },
        {
          "indexed": false,
          "internalType": "bool",
          "name": "status",
          "type": "bool"
        }
      ],
      "name": "AutoExerciseStatusChange",
      "type": "event"
    },
    {
      "anonymous": false,
      "inputs": [
        {
          "indexed": true,
          "internalType": "uint256",
          "name": "id",
          "type": "uint256"
        },
        {
          "indexed": true,
          "internalType": "address",
          "name": "account",
          "type": "address"
        },
        {
          "indexed": false,
          "internalType": "uint256",
          "name": "settlementFee",
          "type": "uint256"
        },
        {
          "indexed": false,
          "internalType": "uint256",
          "name": "totalFee",
          "type": "uint256"
        },
        {
          "indexed": false,
          "internalType": "string",
          "name": "metadata",
          "type": "string"
        }
      ],
      "name": "Create",
      "type": "event"
    },
    {
      "anonymous": false,
      "inputs": [
        {
          "indexed": true,
          "internalType": "uint256",
          "name": "id",
          "type": "uint256"
        },
        {
          "indexed": false,
          "internalType": "uint256",
          "name": "profit",
          "type": "uint256"
        }
      ],
      "name": "Exercise",
      "type": "event"
    },
    {
      "anonymous": false,
      "inputs": [
        {
          "indexed": true,
          "internalType": "uint256",
          "name": "id",
          "type": "uint256"
        },
        {
          "indexed": false,
          "internalType": "uint256",
          "name": "premium",
          "type": "uint256"
        }
      ],
      "name": "Expire",
      "type": "event"
    },
    {
      "anonymous": false,
      "inputs": [
        {
          "indexed": true,
          "internalType": "address",
          "name": "owner",
          "type": "address"
        },
        {
          "indexed": true,
          "internalType": "uint256",
          "name": "tokenId",
          "type": "uint256"
        },
        {
          "indexed": true,
          "internalType": "uint256",
          "name": "targetTokenId",
          "type": "uint256"
        },
        {
          "indexed": false,
          "internalType": "uint256",
          "name": "mergeUnits",
          "type": "uint256"
        }
      ],
      "name": "Merge",
      "type": "event"
    },
    {
      "anonymous": false,
      "inputs": [
        {
          "indexed": true,
          "internalType": "address",
          "name": "previousOwner",
          "type": "address"
        },
        {
          "indexed": true,
          "internalType": "address",
          "name": "newOwner",
          "type": "address"
        }
      ],
      "name": "OwnershipTransferred",
      "type": "event"
    },
    {
      "anonymous": false,
      "inputs": [
        {
          "indexed": true,
          "internalType": "address",
          "name": "owner",
          "type": "address"
        },
        {
          "indexed": false,
          "internalType": "uint256",
          "name": "amount",
          "type": "uint256"
        }
      ],
      "name": "PayAdminFee",
      "type": "event"
    },
    {
      "anonymous": false,
      "inputs": [
        {
          "indexed": true,
          "internalType": "address",
          "name": "referrer",
          "type": "address"
        },
        {
          "indexed": false,
          "internalType": "uint256",
          "name": "amount",
          "type": "uint256"
        }
      ],
      "name": "PayReferralFee",
      "type": "event"
    },
    {
      "anonymous": false,
      "inputs": [
        {
          "indexed": true,
          "internalType": "bytes32",
          "name": "role",
          "type": "bytes32"
        },
        {
          "indexed": true,
          "internalType": "bytes32",
          "name": "previousAdminRole",
          "type": "bytes32"
        },
        {
          "indexed": true,
          "internalType": "bytes32",
          "name": "newAdminRole",
          "type": "bytes32"
        }
      ],
      "name": "RoleAdminChanged",
      "type": "event"
    },
    {
      "anonymous": false,
      "inputs": [
        {
          "indexed": true,
          "internalType": "bytes32",
          "name": "role",
          "type": "bytes32"
        },
        {
          "indexed": true,
          "internalType": "address",
          "name": "account",
          "type": "address"
        },
        {
          "indexed": true,
          "internalType": "address",
          "name": "sender",
          "type": "address"
        }
      ],
      "name": "RoleGranted",
      "type": "event"
    },
    {
      "anonymous": false,
      "inputs": [
        {
          "indexed": true,
          "internalType": "bytes32",
          "name": "role",
          "type": "bytes32"
        },
        {
          "indexed": true,
          "internalType": "address",
          "name": "account",
          "type": "address"
        },
        {
          "indexed": true,
          "internalType": "address",
          "name": "sender",
          "type": "address"
        }
      ],
      "name": "RoleRevoked",
      "type": "event"
    },
    {
      "anonymous": false,
      "inputs": [
        {
          "indexed": true,
          "internalType": "address",
          "name": "owner",
          "type": "address"
        },
        {
          "indexed": true,
          "internalType": "uint256",
          "name": "tokenId",
          "type": "uint256"
        },
        {
          "indexed": false,
          "internalType": "uint256",
          "name": "newTokenId",
          "type": "uint256"
        },
        {
          "indexed": false,
          "internalType": "uint256",
          "name": "splitUnits",
          "type": "uint256"
        }
      ],
      "name": "Split",
      "type": "event"
    },
    {
      "anonymous": false,
      "inputs": [
        {
          "indexed": true,
          "internalType": "address",
          "name": "from",
          "type": "address"
        },
        {
          "indexed": true,
          "internalType": "address",
          "name": "to",
          "type": "address"
        },
        {
          "indexed": true,
          "internalType": "uint256",
          "name": "tokenId",
          "type": "uint256"
        }
      ],
      "name": "Transfer",
      "type": "event"
    },
    {
      "anonymous": false,
      "inputs": [
        {
          "indexed": true,
          "internalType": "address",
          "name": "from",
          "type": "address"
        },
        {
          "indexed": true,
          "internalType": "address",
          "name": "to",
          "type": "address"
        },
        {
          "indexed": true,
          "internalType": "uint256",
          "name": "tokenId",
          "type": "uint256"
        },
        {
          "indexed": false,
          "internalType": "uint256",
          "name": "targetTokenId",
          "type": "uint256"
        },
        {
          "indexed": false,
          "internalType": "uint256",
          "name": "transferUnits",
          "type": "uint256"
        }
      ],
      "name": "TransferUnits",
      "type": "event"
    },
    {
      "anonymous": false,
      "inputs": [
        {
          "indexed": false,
          "internalType": "uint256",
          "name": "startHour",
          "type": "uint256"
        },
        {
          "indexed": false,
          "internalType": "uint256",
          "name": "startMinute",
          "type": "uint256"
        },
        {
          "indexed": false,
          "internalType": "uint256",
          "name": "endHour",
          "type": "uint256"
        },
        {
          "indexed": false,
          "internalType": "uint256",
          "name": "endMinute",
          "type": "uint256"
        }
      ],
      "name": "UpdateOptionCreationWindow",
      "type": "event"
    },
    {
      "inputs": [],
      "name": "AUTO_CLOSER_ROLE",
      "outputs": [
        {
          "internalType": "bytes32",
          "name": "",
          "type": "bytes32"
        }
      ],
      "stateMutability": "view",
      "type": "function"
    },
    {
      "inputs": [],
      "name": "DEFAULT_ADMIN_ROLE",
      "outputs": [
        {
          "internalType": "bytes32",
          "name": "",
          "type": "bytes32"
        }
      ],
      "stateMutability": "view",
      "type": "function"
    },
    {
      "inputs": [
        {
          "internalType": "uint256",
          "name": "",
          "type": "uint256"
        }
      ],
      "name": "_units",
      "outputs": [
        {
          "internalType": "uint256",
          "name": "",
          "type": "uint256"
        }
      ],
      "stateMutability": "view",
      "type": "function"
    },
    {
      "inputs": [
        {
          "internalType": "uint256",
          "name": "optionId_",
          "type": "uint256"
        },
        {
          "internalType": "address",
          "name": "spender_",
          "type": "address"
        }
      ],
      "name": "allowance",
      "outputs": [
        {
          "internalType": "uint256",
          "name": "",
          "type": "uint256"
        }
      ],
      "stateMutability": "view",
      "type": "function"
    },
    {
      "inputs": [
        {
          "internalType": "address",
          "name": "to",
          "type": "address"
        },
        {
          "internalType": "uint256",
          "name": "tokenId",
          "type": "uint256"
        }
      ],
      "name": "approve",
      "outputs": [],
      "stateMutability": "nonpayable",
      "type": "function"
    },
    {
      "inputs": [
        {
          "internalType": "address",
          "name": "to_",
          "type": "address"
        },
        {
          "internalType": "uint256",
          "name": "optionId_",
          "type": "uint256"
        },
        {
          "internalType": "uint256",
          "name": "allowance_",
          "type": "uint256"
        }
      ],
      "name": "approve",
      "outputs": [],
      "stateMutability": "nonpayable",
      "type": "function"
    },
    {
      "inputs": [],
      "name": "approvePoolToTransferTokenX",
      "outputs": [],
      "stateMutability": "nonpayable",
      "type": "function"
    },
    {
      "inputs": [
        {
          "internalType": "address",
          "name": "owner",
          "type": "address"
        }
      ],
      "name": "balanceOf",
      "outputs": [
        {
          "internalType": "uint256",
          "name": "",
          "type": "uint256"
        }
      ],
      "stateMutability": "view",
      "type": "function"
    },
    {
      "inputs": [
        {
          "internalType": "uint256",
          "name": "",
          "type": "uint256"
        }
      ],
      "name": "binaryOptionType",
      "outputs": [
        {
          "internalType": "bool",
          "name": "isYes",
          "type": "bool"
        },
        {
          "internalType": "bool",
          "name": "isAbove",
          "type": "bool"
        }
      ],
      "stateMutability": "view",
      "type": "function"
    },
    {
      "inputs": [
        {
          "internalType": "uint256",
          "name": "tokenId_",
          "type": "uint256"
        }
      ],
      "name": "burn",
      "outputs": [],
      "stateMutability": "nonpayable",
      "type": "function"
    },
    {
      "inputs": [],
      "name": "config",
      "outputs": [
        {
          "internalType": "contract OptionConfig",
          "name": "",
          "type": "address"
        }
      ],
      "stateMutability": "view",
      "type": "function"
    },
    {
      "inputs": [
        {
          "internalType": "uint256",
          "name": "amount",
          "type": "uint256"
        },
        {
          "internalType": "uint256",
          "name": "strike",
          "type": "uint256"
        },
        {
          "internalType": "uint256",
          "name": "expiration",
          "type": "uint256"
        },
        {
          "internalType": "bool",
          "name": "isYes",
          "type": "bool"
        },
        {
          "internalType": "bool",
          "name": "isAbove",
          "type": "bool"
        },
        {
          "internalType": "address",
          "name": "referrer",
          "type": "address"
        },
        {
          "internalType": "string",
          "name": "metadata",
          "type": "string"
        }
      ],
      "name": "create",
      "outputs": [
        {
          "internalType": "uint256",
          "name": "optionID",
          "type": "uint256"
        }
      ],
      "stateMutability": "nonpayable",
      "type": "function"
    },
    {
      "inputs": [
        {
          "internalType": "uint256",
          "name": "optionID",
          "type": "uint256"
        }
      ],
      "name": "exercise",
      "outputs": [
        {
          "internalType": "uint256",
          "name": "profit",
          "type": "uint256"
        }
      ],
      "stateMutability": "nonpayable",
      "type": "function"
    },
    {
      "inputs": [
        {
          "internalType": "uint256",
          "name": "optionID",
          "type": "uint256"
        }
      ],
      "name": "exists",
      "outputs": [
        {
          "internalType": "bool",
          "name": "",
          "type": "bool"
        }
      ],
      "stateMutability": "view",
      "type": "function"
    },
    {
      "inputs": [
        {
          "internalType": "uint256",
          "name": "",
          "type": "uint256"
        }
      ],
      "name": "expiryToRoundID",
      "outputs": [
        {
          "internalType": "uint256",
          "name": "",
          "type": "uint256"
        }
      ],
      "stateMutability": "view",
      "type": "function"
    },
    {
      "inputs": [
        {
          "internalType": "uint256",
          "name": "period",
          "type": "uint256"
        },
        {
          "internalType": "uint256",
          "name": "amount",
          "type": "uint256"
        },
        {
          "internalType": "uint256",
          "name": "strike",
          "type": "uint256"
        },
        {
          "internalType": "bool",
          "name": "isYes",
          "type": "bool"
        },
        {
          "internalType": "bool",
          "name": "isAbove",
          "type": "bool"
        }
      ],
      "name": "fees",
      "outputs": [
        {
          "internalType": "uint256",
          "name": "total",
          "type": "uint256"
        },
        {
          "internalType": "uint256",
          "name": "settlementFee",
          "type": "uint256"
        },
        {
          "internalType": "uint256",
          "name": "premium",
          "type": "uint256"
        }
      ],
      "stateMutability": "view",
      "type": "function"
    },
    {
      "inputs": [
        {
          "internalType": "uint256",
          "name": "tokenId",
          "type": "uint256"
        }
      ],
      "name": "getApproved",
      "outputs": [
        {
          "internalType": "address",
          "name": "",
          "type": "address"
        }
      ],
      "stateMutability": "view",
      "type": "function"
    },
    {
      "inputs": [
        {
          "internalType": "bytes32",
          "name": "role",
          "type": "bytes32"
        }
      ],
      "name": "getRoleAdmin",
      "outputs": [
        {
          "internalType": "bytes32",
          "name": "",
          "type": "bytes32"
        }
      ],
      "stateMutability": "view",
      "type": "function"
    },
    {
      "inputs": [
        {
          "internalType": "bytes32",
          "name": "role",
          "type": "bytes32"
        },
        {
          "internalType": "address",
          "name": "account",
          "type": "address"
        }
      ],
      "name": "grantRole",
      "outputs": [],
      "stateMutability": "nonpayable",
      "type": "function"
    },
    {
      "inputs": [
        {
          "internalType": "bytes32",
          "name": "role",
          "type": "bytes32"
        },
        {
          "internalType": "address",
          "name": "account",
          "type": "address"
        }
      ],
      "name": "hasRole",
      "outputs": [
        {
          "internalType": "bool",
          "name": "",
          "type": "bool"
        }
      ],
      "stateMutability": "view",
      "type": "function"
    },
    {
      "inputs": [
        {
          "internalType": "address",
          "name": "owner",
          "type": "address"
        },
        {
          "internalType": "address",
          "name": "operator",
          "type": "address"
        }
      ],
      "name": "isApprovedForAll",
      "outputs": [
        {
          "internalType": "bool",
          "name": "",
          "type": "bool"
        }
      ],
      "stateMutability": "view",
      "type": "function"
    },
    {
      "inputs": [],
      "name": "maxUnits",
      "outputs": [
        {
          "internalType": "uint256",
          "name": "",
          "type": "uint256"
        }
      ],
      "stateMutability": "view",
      "type": "function"
    },
    {
      "inputs": [
        {
          "internalType": "uint256[]",
          "name": "optionIDs",
          "type": "uint256[]"
        },
        {
          "internalType": "uint256",
          "name": "targetOptionID",
          "type": "uint256"
        }
      ],
      "name": "merge",
      "outputs": [],
      "stateMutability": "nonpayable",
      "type": "function"
    },
    {
      "inputs": [],
      "name": "minimumYield",
      "outputs": [
        {
          "internalType": "uint256",
          "name": "",
          "type": "uint256"
        }
      ],
      "stateMutability": "view",
      "type": "function"
    },
    {
      "inputs": [],
      "name": "name",
      "outputs": [
        {
          "internalType": "string",
          "name": "",
          "type": "string"
        }
      ],
      "stateMutability": "view",
      "type": "function"
    },
    {
      "inputs": [],
      "name": "nextTokenId",
      "outputs": [
        {
          "internalType": "uint256",
          "name": "",
          "type": "uint256"
        }
      ],
      "stateMutability": "view",
      "type": "function"
    },
    {
      "inputs": [
        {
          "internalType": "uint256",
          "name": "",
          "type": "uint256"
        },
        {
          "internalType": "address",
          "name": "",
          "type": "address"
        }
      ],
      "name": "optionSizeBought",
      "outputs": [
        {
          "internalType": "uint256",
          "name": "",
          "type": "uint256"
        }
      ],
      "stateMutability": "view",
      "type": "function"
    },
    {
      "inputs": [
        {
          "internalType": "uint256",
          "name": "",
          "type": "uint256"
        }
      ],
      "name": "optionSlotMapping",
      "outputs": [
        {
          "internalType": "uint256",
          "name": "",
          "type": "uint256"
        }
      ],
      "stateMutability": "view",
      "type": "function"
    },
    {
      "inputs": [
        {
          "internalType": "uint256",
          "name": "",
          "type": "uint256"
        }
      ],
      "name": "options",
      "outputs": [
        {
          "internalType": "enum IBufferOptions.State",
          "name": "state",
          "type": "uint8"
        },
        {
          "internalType": "uint256",
          "name": "strike",
          "type": "uint256"
        },
        {
          "internalType": "uint256",
          "name": "amount",
          "type": "uint256"
        },
        {
          "internalType": "uint256",
          "name": "lockedAmount",
          "type": "uint256"
        },
        {
          "internalType": "uint256",
          "name": "premium",
          "type": "uint256"
        },
        {
          "internalType": "uint256",
          "name": "expiration",
          "type": "uint256"
        },
        {
          "internalType": "enum IBufferOptions.OptionType",
          "name": "optionType",
          "type": "uint8"
        }
      ],
      "stateMutability": "view",
      "type": "function"
    },
    {
      "inputs": [],
      "name": "owner",
      "outputs": [
        {
          "internalType": "address",
          "name": "",
          "type": "address"
        }
      ],
      "stateMutability": "view",
      "type": "function"
    },
    {
      "inputs": [
        {
          "internalType": "uint256",
          "name": "tokenId",
          "type": "uint256"
        }
      ],
      "name": "ownerOf",
      "outputs": [
        {
          "internalType": "address",
          "name": "",
          "type": "address"
        }
      ],
      "stateMutability": "view",
      "type": "function"
    },
    {
      "inputs": [],
      "name": "pool",
      "outputs": [
        {
          "internalType": "contract BufferIBFRPoolV2",
          "name": "",
          "type": "address"
        }
      ],
      "stateMutability": "view",
      "type": "function"
    },
    {
      "inputs": [],
      "name": "priceProvider",
      "outputs": [
        {
          "internalType": "contract IPriceProvider",
          "name": "",
          "type": "address"
        }
      ],
      "stateMutability": "view",
      "type": "function"
    },
    {
      "inputs": [
        {
          "internalType": "uint256",
          "name": "amount",
          "type": "uint256"
        },
        {
          "internalType": "uint256",
          "name": "strike",
          "type": "uint256"
        },
        {
          "internalType": "uint256",
          "name": "period",
          "type": "uint256"
        },
        {
          "internalType": "bool",
          "name": "isYes",
          "type": "bool"
        },
        {
          "internalType": "bool",
          "name": "isAbove",
          "type": "bool"
        },
        {
          "internalType": "address",
          "name": "referrer",
          "type": "address"
        },
        {
          "internalType": "string",
          "name": "metadata",
          "type": "string"
        }
      ],
      "name": "quickCreate",
      "outputs": [
        {
          "internalType": "uint256",
          "name": "optionID",
          "type": "uint256"
        }
      ],
      "stateMutability": "nonpayable",
      "type": "function"
    },
    {
      "inputs": [],
      "name": "renounceOwnership",
      "outputs": [],
      "stateMutability": "nonpayable",
      "type": "function"
    },
    {
      "inputs": [
        {
          "internalType": "bytes32",
          "name": "role",
          "type": "bytes32"
        },
        {
          "internalType": "address",
          "name": "account",
          "type": "address"
        }
      ],
      "name": "renounceRole",
      "outputs": [],
      "stateMutability": "nonpayable",
      "type": "function"
    },
    {
      "inputs": [
        {
          "internalType": "bytes32",
          "name": "role",
          "type": "bytes32"
        },
        {
          "internalType": "address",
          "name": "account",
          "type": "address"
        }
      ],
      "name": "revokeRole",
      "outputs": [],
      "stateMutability": "nonpayable",
      "type": "function"
    },
    {
      "inputs": [
        {
          "internalType": "address",
          "name": "from",
          "type": "address"
        },
        {
          "internalType": "address",
          "name": "to",
          "type": "address"
        },
        {
          "internalType": "uint256",
          "name": "tokenId",
          "type": "uint256"
        }
      ],
      "name": "safeTransferFrom",
      "outputs": [],
      "stateMutability": "nonpayable",
      "type": "function"
    },
    {
      "inputs": [
        {
          "internalType": "address",
          "name": "from",
          "type": "address"
        },
        {
          "internalType": "address",
          "name": "to",
          "type": "address"
        },
        {
          "internalType": "uint256",
          "name": "tokenId",
          "type": "uint256"
        },
        {
          "internalType": "bytes",
          "name": "_data",
          "type": "bytes"
        }
      ],
      "name": "safeTransferFrom",
      "outputs": [],
      "stateMutability": "nonpayable",
      "type": "function"
    },
    {
      "inputs": [
        {
          "internalType": "address",
          "name": "operator",
          "type": "address"
        },
        {
          "internalType": "bool",
          "name": "approved",
          "type": "bool"
        }
      ],
      "name": "setApprovalForAll",
      "outputs": [],
      "stateMutability": "nonpayable",
      "type": "function"
    },
    {
      "inputs": [
        {
          "internalType": "uint256",
          "name": "roundId",
          "type": "uint256"
        },
        {
          "internalType": "uint256",
          "name": "optionID",
          "type": "uint256"
        }
      ],
      "name": "setRoundIDForExpiry",
      "outputs": [
        {
          "internalType": "bool",
          "name": "isCorrectRoundId",
          "type": "bool"
        }
      ],
      "stateMutability": "nonpayable",
      "type": "function"
    },
    {
      "inputs": [
        {
          "internalType": "uint256",
          "name": "",
          "type": "uint256"
        }
      ],
      "name": "slotDetails",
      "outputs": [
        {
          "internalType": "uint256",
          "name": "strike",
          "type": "uint256"
        },
        {
          "internalType": "uint256",
          "name": "expiration",
          "type": "uint256"
        },
        {
          "internalType": "enum IBufferOptions.OptionType",
          "name": "optionType",
          "type": "uint8"
        },
        {
          "internalType": "bool",
          "name": "isValid",
          "type": "bool"
        }
      ],
      "stateMutability": "view",
      "type": "function"
    },
    {
      "inputs": [
        {
          "internalType": "uint256",
          "name": "optionId_",
          "type": "uint256"
        }
      ],
      "name": "slotOf",
      "outputs": [
        {
          "internalType": "uint256",
          "name": "",
          "type": "uint256"
        }
      ],
      "stateMutability": "view",
      "type": "function"
    },
    {
      "inputs": [
        {
          "internalType": "uint256",
          "name": "optionID",
          "type": "uint256"
        },
        {
          "internalType": "uint256[]",
          "name": "splitUnits_",
          "type": "uint256[]"
        }
      ],
      "name": "split",
      "outputs": [
        {
          "internalType": "uint256[]",
          "name": "newOptionIDs",
          "type": "uint256[]"
        }
      ],
      "stateMutability": "nonpayable",
      "type": "function"
    },
    {
      "inputs": [
        {
          "internalType": "bytes4",
          "name": "interfaceId",
          "type": "bytes4"
        }
      ],
      "name": "supportsInterface",
      "outputs": [
        {
          "internalType": "bool",
          "name": "",
          "type": "bool"
        }
      ],
      "stateMutability": "view",
      "type": "function"
    },
    {
      "inputs": [],
      "name": "symbol",
      "outputs": [
        {
          "internalType": "string",
          "name": "",
          "type": "string"
        }
      ],
      "stateMutability": "view",
      "type": "function"
    },
    {
      "inputs": [
        {
          "internalType": "uint256",
          "name": "slot_",
          "type": "uint256"
        },
        {
          "internalType": "uint256",
          "name": "index_",
          "type": "uint256"
        }
      ],
      "name": "tokenOfSlotByIndex",
      "outputs": [
        {
          "internalType": "uint256",
          "name": "",
          "type": "uint256"
        }
      ],
      "stateMutability": "view",
      "type": "function"
    },
    {
      "inputs": [
        {
          "internalType": "uint256",
          "name": "tokenId",
          "type": "uint256"
        }
      ],
      "name": "tokenURI",
      "outputs": [
        {
          "internalType": "string",
          "name": "",
          "type": "string"
        }
      ],
      "stateMutability": "view",
      "type": "function"
    },
    {
      "inputs": [],
      "name": "tokenX",
      "outputs": [
        {
          "internalType": "contract ERC20",
          "name": "",
          "type": "address"
        }
      ],
      "stateMutability": "view",
      "type": "function"
    },
    {
      "inputs": [
        {
          "internalType": "uint256",
          "name": "slot_",
          "type": "uint256"
        }
      ],
      "name": "tokensInSlot",
      "outputs": [
        {
          "internalType": "uint256",
          "name": "",
          "type": "uint256"
        }
      ],
      "stateMutability": "view",
      "type": "function"
    },
    {
      "inputs": [
        {
          "internalType": "address",
          "name": "from",
          "type": "address"
        },
        {
          "internalType": "address",
          "name": "to",
          "type": "address"
        },
        {
          "internalType": "uint256",
          "name": "tokenId",
          "type": "uint256"
        }
      ],
      "name": "transferFrom",
      "outputs": [],
      "stateMutability": "nonpayable",
      "type": "function"
    },
    {
      "inputs": [
        {
          "internalType": "address",
          "name": "from_",
          "type": "address"
        },
        {
          "internalType": "address",
          "name": "to_",
          "type": "address"
        },
        {
          "internalType": "uint256",
          "name": "optionID",
          "type": "uint256"
        },
        {
          "internalType": "uint256",
          "name": "targetOptionID",
          "type": "uint256"
        },
        {
          "internalType": "uint256",
          "name": "transferUnits_",
          "type": "uint256"
        }
      ],
      "name": "transferFrom",
      "outputs": [],
      "stateMutability": "nonpayable",
      "type": "function"
    },
    {
      "inputs": [
        {
          "internalType": "address",
          "name": "from_",
          "type": "address"
        },
        {
          "internalType": "address",
          "name": "to_",
          "type": "address"
        },
        {
          "internalType": "uint256",
          "name": "optionID",
          "type": "uint256"
        },
        {
          "internalType": "uint256",
          "name": "transferUnits_",
          "type": "uint256"
        }
      ],
      "name": "transferFrom",
      "outputs": [
        {
          "internalType": "uint256",
          "name": "newOptionID",
          "type": "uint256"
        }
      ],
      "stateMutability": "nonpayable",
      "type": "function"
    },
    {
      "inputs": [
        {
          "internalType": "address",
          "name": "newOwner",
          "type": "address"
        }
      ],
      "name": "transferOwnership",
      "outputs": [],
      "stateMutability": "nonpayable",
      "type": "function"
    },
    {
      "inputs": [],
      "name": "unitDecimals",
      "outputs": [
        {
          "internalType": "uint8",
          "name": "",
          "type": "uint8"
        }
      ],
      "stateMutability": "view",
      "type": "function"
    },
    {
      "inputs": [
        {
          "internalType": "uint256",
          "name": "slot_",
          "type": "uint256"
        }
      ],
      "name": "unitsInSlot",
      "outputs": [
        {
          "internalType": "uint256",
          "name": "units_",
          "type": "uint256"
        }
      ],
      "stateMutability": "view",
      "type": "function"
    },
    {
      "inputs": [
        {
          "internalType": "uint256",
          "name": "optionId_",
          "type": "uint256"
        }
      ],
      "name": "unitsInToken",
      "outputs": [
        {
          "internalType": "uint256",
          "name": "",
          "type": "uint256"
        }
      ],
      "stateMutability": "view",
      "type": "function"
    },
    {
      "inputs": [
        {
          "internalType": "uint256",
          "name": "optionID",
          "type": "uint256"
        }
      ],
      "name": "unlock",
      "outputs": [],
      "stateMutability": "nonpayable",
      "type": "function"
    },
    {
      "inputs": [
        {
          "internalType": "uint256[]",
          "name": "optionIDs",
          "type": "uint256[]"
        }
      ],
      "name": "unlockAll",
      "outputs": [],
      "stateMutability": "nonpayable",
      "type": "function"
    },
    {
      "inputs": [
        {
          "internalType": "address",
          "name": "",
          "type": "address"
        }
      ],
      "name": "userOptionCount",
      "outputs": [
        {
          "internalType": "uint256",
          "name": "",
          "type": "uint256"
        }
      ],
      "stateMutability": "view",
      "type": "function"
    },
    {
      "inputs": [
        {
          "internalType": "address",
          "name": "",
          "type": "address"
        },
        {
          "internalType": "uint256",
          "name": "",
          "type": "uint256"
        }
      ],
      "name": "userOptionIds",
      "outputs": [
        {
          "internalType": "uint256",
          "name": "",
          "type": "uint256"
        }
      ],
      "stateMutability": "view",
      "type": "function"
    }
  ],
  "bytecode": "6080604052620f4240600d55600e805460ff1916601217905560006013553480156200002a57600080fd5b5060405162005b7138038062005b718339810160408190526200004d91620002f0565b6040805180820182526006815265213ab33332b960d11b60208083019182528351808501909452600384526221232960e91b90840152815191929162000096916000916200024a565b508051620000ac9060019060208401906200024a565b505050620000c9620000c36200014060201b60201c565b62000144565b6001600755620000db60003362000196565b601080546001600160a01b038087166001600160a01b031992831617909255601a805485841690831617905542601d55601b805484841690831617905560128054928616929091169190911790556200013660003362000196565b50505050620003ad565b3390565b600680546001600160a01b038381166001600160a01b0319831681179093556040519116919082907f8be0079c531659141344cd1fd0a4f28419497f9722a3daafe3b4186f6b6457e090600090a35050565b620001a28282620001a6565b5050565b60008281526008602090815260408083206001600160a01b038516845290915290205460ff16620001a25760008281526008602090815260408083206001600160a01b03851684529091529020805460ff19166001179055620002063390565b6001600160a01b0316816001600160a01b0316837f2f8788117e7eff1d82e926ec794901d17c78024a50270940304540a733656f0d60405160405180910390a45050565b828054620002589062000357565b90600052602060002090601f0160209004810192826200027c5760008555620002c7565b82601f106200029757805160ff1916838001178555620002c7565b82800160010185558215620002c7579182015b82811115620002c7578251825591602001919060010190620002aa565b50620002d5929150620002d9565b5090565b5b80821115620002d55760008155600101620002da565b6000806000806080858703121562000306578384fd5b8451620003138162000394565b6020860151909450620003268162000394565b6040860151909350620003398162000394565b60608601519092506200034c8162000394565b939692955090935050565b600181811c908216806200036c57607f821691505b602082108114156200038e57634e487b7160e01b600052602260045260246000fd5b50919050565b6001600160a01b0381168114620003aa57600080fd5b50565b6157b480620003bd6000396000f3fe608060405234801561001057600080fd5b50600436106102bf5760003560e01c806301ffc9a7146102c457806305271a2a146102ec57806306517a291461030157806306fdde0314610318578063076d948c1461032d578063081812fc14610340578063095ea7b31461036b57806316dc165b1461038057806316f0115b1461039357806323b872dd146103a6578063248a9ca3146103b9578063263f3e7e146103cc5780632f2ff15d146103df57806334c01793146103f257806336568abe1461041d578063409e220514610430578063426a84931461049357806342842e0e146104a657806342966c68146104b95780634aed53c2146104cc5780634f558e79146104df5780636198e339146104f25780636352211e14610505578063645734e61461051857806367807f7d14610520578063689ab5ac1461054257806369c672471461058557806370a08231146105a5578063715018a6146105b857806375794a3c146105c057806375a74d84146105c957806378c533ce146105e957806379502c5514610609578063841edc0e1461061c5780638a5841181461063c5780638da5cb5b146106875780638ddaa2671461068f57806391d14854146106a257806395d89b41146106b5578063a217fddf146106bd578063a22cb465146106c5578063a6d14c02146106d8578063a8800425146106e0578063b07f0a41146106f3578063b888879e14610706578063b88d4fde14610719578063bbe33ea51461072c578063becef6071461073f578063c0d720bb14610752578063c87b56dd14610765578063c962ca1214610778578063d149cc301461078b578063d547741f1461079e578063d5a0e673146107b1578063d67a6b70146107d1578063dba34e97146107e4578063e342b5981461080b578063e345e0bc1461081e578063e985e9c514610858578063f2fde38b1461086b578063fe99049a1461087e575b600080fd5b6102d76102d2366004614f90565b610891565b60405190151581526020015b60405180910390f35b600e5460405160ff90911681526020016102e3565b61030a600d5481565b6040519081526020016102e3565b6103206108a2565b6040516102e39190615364565b61030a61033b366004614f54565b610934565b61035361034e366004614f54565b610979565b6040516001600160a01b0390911681526020016102e3565b61037e610379366004614e51565b610a06565b005b601054610353906001600160a01b031681565b601a54610353906001600160a01b031681565b61037e6103b4366004614cd3565b610b17565b61030a6103c7366004614f54565b610b48565b61030a6103da366004614f54565b610b5d565b61037e6103ed366004614f6c565b610b6f565b61030a610400366004614f6c565b601960209081526000928352604080842090915290825290205481565b61037e61042b366004614f6c565b610b8c565b61048061043e366004614f54565b601460205260009081526040902080546001820154600283015460038401546004850154600586015460069096015460ff958616969495939492939192911687565b6040516102e39796959493929190615308565b61037e6104a1366004614e7c565b610c0a565b61037e6104b4366004614cd3565b610c4e565b61037e6104c7366004614f54565b610c69565b61037e6104da366004614dd4565b610cae565b6102d76104ed366004614f54565b610dd0565b61037e610500366004614f54565b610ddb565b610353610513366004614f54565b611064565b61037e6110db565b61053361052e36600461504a565b611165565b6040516102e39392919061556c565b61056e610550366004614f54565b60176020526000908152604090205460ff8082169161010090041682565b6040805192151583529015156020830152016102e3565b610598610593366004614fe0565b61137e565b6040516102e391906152c4565b61030a6105b3366004614c63565b611770565b61037e6117f7565b61030a60135481565b61030a6105d7366004614c63565b60166020526000908152604090205481565b61030a6105f7366004614f54565b600f6020526000908152604090205481565b601b54610353906001600160a01b031681565b61030a61062a366004614f54565b60186020526000908152604090205481565b61067761064a366004614f54565b601c6020526000908152604090208054600182015460029092015490919060ff8082169161010090041684565b6040516102e394939291906154f7565b610353611832565b61030a61069d36600461509f565b611841565b6102d76106b0366004614f6c565b61188b565b6103206118b6565b61030a600081565b61037e6106d3366004614e24565b6118c5565b61030a600581565b61030a6106ee366004614f54565b611986565b61030a610701366004614f54565b61199d565b601254610353906001600160a01b031681565b61037e610727366004614d13565b611ca2565b61037e61073a366004614eef565b611cd5565b61030a61074d366004614f54565b611ee4565b61030a61076036600461509f565b611ef6565b610320610773366004614f54565b611f4f565b61030a610786366004614e51565b611f5a565b61030a610799366004615029565b611f8b565b61037e6107ac366004614f6c565b611faa565b61030a6107bf366004614f54565b600a6020526000908152604090205481565b6102d76107df366004615029565b611fc7565b61030a7fdeb3b49547f710c56a925b6e16e3557a50fab4dd8f243bc314f3afba2054ec5b81565b61037e610819366004614eb0565b6121ef565b61030a61082c366004614f6c565b6000828152600b602090815260408083206001600160a01b038516845260010190915290205492915050565b6102d7610866366004614c9b565b61223c565b61037e610879366004614c63565b61226a565b61030a61088c366004614d8f565b612307565b600061089c826123de565b92915050565b6060600080546108b190615627565b80601f01602080910402602001604051908101604052809291908181526020018280546108dd90615627565b801561092a5780601f106108ff5761010080835404028352916020019161092a565b820191906000526020600020905b81548152906001019060200180831161090d57829003601f168201915b5050505050905090565b6000805b61094183611986565b8110156109735761095561074d8483611f8b565b61095f9083615582565b91508061096b8161565c565b915050610938565b50919050565b600061098482612403565b6109ea5760405162461bcd60e51b815260206004820152602c60248201527f4552433732313a20617070726f76656420717565727920666f72206e6f6e657860448201526b34b9ba32b73a103a37b5b2b760a11b60648201526084015b60405180910390fd5b506000908152600460205260409020546001600160a01b031690565b6000610a1182611064565b9050806001600160a01b0316836001600160a01b03161415610a7f5760405162461bcd60e51b815260206004820152602160248201527f4552433732313a20617070726f76616c20746f2063757272656e74206f776e656044820152603960f91b60648201526084016109e1565b336001600160a01b0382161480610a9b5750610a9b813361223c565b610b085760405162461bcd60e51b815260206004820152603860248201527f4552433732313a20617070726f76652063616c6c6572206973206e6f74206f776044820152771b995c881b9bdc88185c1c1c9bdd995908199bdc88185b1b60421b60648201526084016109e1565b610b128383612420565b505050565b610b21338261248e565b610b3d5760405162461bcd60e51b81526004016109e190615453565b610b12838383612558565b60009081526008602052604090206001015490565b6000908152600a602052604090205490565b610b7882610b48565b610b8281336126f1565b610b128383612755565b6001600160a01b0381163314610bfc5760405162461bcd60e51b815260206004820152602f60248201527f416363657373436f6e74726f6c3a2063616e206f6e6c792072656e6f756e636560448201526e103937b632b9903337b91039b2b63360891b60648201526084016109e1565b610c0682826127db565b5050565b610c1382611064565b6001600160a01b0316336001600160a01b031614610c435760405162461bcd60e51b81526004016109e190615377565b610b12838383612842565b610b1283838360405180602001604052806000815250611ca2565b610c7281611064565b6001600160a01b0316336001600160a01b031614610ca25760405162461bcd60e51b81526004016109e190615377565b610cab81612907565b50565b610cb782610dd0565b610ce95760405162461bcd60e51b815260206004820152600360248201526227189960e91b60448201526064016109e1565b6000806000610cf8868561291f565b509250925092506000610d0a86612a4c565b9050610d468682848460600151610d219190615582565b878560400151610d319190615582565b878660800151610d419190615582565b612b3b565b601a54606082015160808301516040516357a5c96760e01b81529394506001600160a01b03909216926357a5c96792610d86928b9290919060040161556c565b600060405180830381600087803b158015610da057600080fd5b505af1158015610db4573d6000803e3d6000fd5b50505050610dc58989898989612b6d565b505050505050505050565b600061089c82612403565b60008181526014602052604090206005810154421015610e0d5760405162461bcd60e51b81526004016109e1906154db565b6001815460ff166003811115610e3357634e487b7160e01b600052602160045260246000fd5b14610e655760405162461bcd60e51b81526020600482015260026024820152614f3560f01b60448201526064016109e1565b600581015460009081526018602052604090205480610e965760405162461bcd60e51b81526004016109e1906153e5565b6012546040516303906d2960e11b8152600481018390526000916001600160a01b031690630720da529060240160a06040518083038186803b158015610edb57600080fd5b505afa158015610eef573d6000803e3d6000fd5b505050506040513d601f19601f82011682018060405250810190610f139190615141565b5091935060029250610f23915050565b600684015460ff166002811115610f4a57634e487b7160e01b600052602160045260246000fd5b148015610f5a5750826001015481115b80610f9957506001600684015460ff166002811115610f8957634e487b7160e01b600052602160045260246000fd5b148015610f995750826001015481105b15610fad57610fa78461199d565b5061105e565b825460ff19166003178355601a54604051636198e33960e01b8152600481018690526001600160a01b0390911690636198e33990602401600060405180830381600087803b158015610ffe57600080fd5b505af1158015611012573d6000803e3d6000fd5b5050505061101f84612907565b837f5f36a4a575e512eb69d6d28c3b0ff98cca7ba50ad5bf04e14094ad1d425e0d31846004015460405161105591815260200190565b60405180910390a25b50505050565b6000818152600260205260408120546001600160a01b03168061089c5760405162461bcd60e51b815260206004820152602960248201527f4552433732313a206f776e657220717565727920666f72206e6f6e657869737460448201526832b73a103a37b5b2b760b91b60648201526084016109e1565b601054601a5460405163095ea7b360e01b81526001600160a01b039283169263095ea7b39261111392911690600019906004016152ab565b602060405180830381600087803b15801561112d57600080fd5b505af1158015611141573d6000803e3d6000fd5b505050506040513d601f19601f82011682018060405250810190610cab9190614f38565b600080600080601260009054906101000a90046001600160a01b03166001600160a01b0316631acf55826040518163ffffffff1660e01b815260040160206040518083038186803b1580156111b957600080fd5b505afa1580156111cd573d6000803e3d6000fd5b505050506040513d601f19601f820116820180604052508101906111f19190614fc8565b601b54601a5460405163e39d06e960e01b8152600481018d9052602481018c9052604481018b90528915156064820152881515608482015260a481018490526001600160a01b0392831660c4820152911660e482015290915073__FeeCalculator_________________________9063e39d06e9906101040160206040518083038186803b15801561128257600080fd5b505af4158015611296573d6000803e3d6000fd5b505050506040513d601f19601f820116820180604052508101906112ba9190614fc8565b9150601b60009054906101000a90046001600160a01b03166001600160a01b031663f3fa34956040518163ffffffff1660e01b815260040160206040518083038186803b15801561130a57600080fd5b505afa15801561131e573d6000803e3d6000fd5b505050506040513d601f19601f820116820180604052508101906113429190614fc8565b61134e906127106155cd565b61135a836127106155ae565b611364919061559a565b935061137082856155cd565b925050955095509592505050565b6060816113b25760405162461bcd60e51b81526020600482015260026024820152614e3160f01b60448201526064016109e1565b816001600160401b038111156113d857634e487b7160e01b600052604160045260246000fd5b604051908082528060200260200182016040528015611401578160200160208202803683370190505b509050600061140f85612a4c565b9050600061141c86611ee4565b905060008080805b8781101561162f576000611436612db3565b90508088838151811061145957634e487b7160e01b600052603260045260246000fd5b6020026020010181815250506114968b828c8c8681811061148a57634e487b7160e01b600052603260045260246000fd5b90506020020135612dcd565b6000868b8b858181106114b957634e487b7160e01b600052603260045260246000fd5b9050602002013589604001516114cf91906155ae565b6114d9919061559a565b90506114e58187615582565b95506000878c8c8681811061150a57634e487b7160e01b600052603260045260246000fd5b905060200201358a6060015161152091906155ae565b61152a919061559a565b90506115368187615582565b95506000888d8d8781811061155b57634e487b7160e01b600052603260045260246000fd5b905060200201358b6080015161157191906155ae565b61157b919061559a565b90506115878187615582565b955060006040518060e001604052808c6000015160038111156115ba57634e487b7160e01b600052602160045260246000fd5b81526020018c6020015181526020018581526020018481526020018381526020018c60a0015181526020018c60c00151600281111561160957634e487b7160e01b600052602160045260246000fd5b905290506116178582612ef7565b505050505080806116279061565c565b915050611424565b50611665898684886060015161164591906155cd565b86896040015161165591906155cd565b858a60800151610d4191906155cd565b601a54606082015160808301516040516357a5c96760e01b81529398506001600160a01b03909216926357a5c967926116a5928e9290919060040161556c565b600060405180830381600087803b1580156116bf57600080fd5b505af11580156116d3573d6000803e3d6000fd5b5050505060005b8781101561176357600061171488838151811061170757634e487b7160e01b600052603260045260246000fd5b6020026020010151612a4c565b905061175088838151811061173957634e487b7160e01b600052603260045260246000fd5b602002602001015182606001518360800151612faf565b508061175b8161565c565b9150506116da565b5050505050509392505050565b60006001600160a01b0382166117db5760405162461bcd60e51b815260206004820152602a60248201527f4552433732313a2062616c616e636520717565727920666f7220746865207a65604482015269726f206164647265737360b01b60648201526084016109e1565b506001600160a01b031660009081526003602052604090205490565b33611800611832565b6001600160a01b0316146118265760405162461bcd60e51b81526004016109e19061541e565b611830600061301a565b565b6006546001600160a01b031690565b6000600260075414156118665760405162461bcd60e51b81526004016109e1906154a4565b600260075561187a8888888888888861306c565b600160075598975050505050505050565b60009182526008602090815260408084206001600160a01b0393909316845291905290205460ff1690565b6060600180546108b190615627565b6001600160a01b03821633141561191a5760405162461bcd60e51b815260206004820152601960248201527822a9219b99189d1030b8383937bb32903a379031b0b63632b960391b60448201526064016109e1565b3360008181526005602090815260408083206001600160a01b03871680855290835292819020805460ff191686151590811790915590519081529192917f17307eab39ab6107e8899845ad3d59bd9653f200f220920489ca2b5937696c31910160405180910390a35050565b6000818152600c6020526040812061089c90613610565b60006119a882610dd0565b6119da5760405162461bcd60e51b815260206004820152600360248201526204f31360ec1b60448201526064016109e1565b60008281526014602052604090206005810154421015611a0c5760405162461bcd60e51b81526004016109e1906154db565b6001815460ff166003811115611a3257634e487b7160e01b600052602160045260246000fd5b14611a655760405162461bcd60e51b815260206004820152600360248201526213cc4d60ea1b60448201526064016109e1565b600581015460009081526018602052604090205480611a965760405162461bcd60e51b81526004016109e1906153e5565b6012546040516303906d2960e11b8152600481018390526000916001600160a01b031690630720da529060240160a06040518083038186803b158015611adb57600080fd5b505afa158015611aef573d6000803e3d6000fd5b505050506040513d601f19601f82011682018060405250810190611b139190615141565b5091935060029250611b23915050565b600684015460ff166002811115611b4a57634e487b7160e01b600052602160045260246000fd5b1415611b8f578083600101541115611b8a5760405162461bcd60e51b81526020600482015260036024820152624f313760e81b60448201526064016109e1565b611bc9565b8083600101541015611bc95760405162461bcd60e51b815260206004820152600360248201526209e62760eb1b60448201526064016109e1565b6003830154601a549094506001600160a01b03166381b34f1586611bec81611064565b6040516001600160e01b031960e085901b16815260048101929092526001600160a01b0316602482015260448101879052606401600060405180830381600087803b158015611c3a57600080fd5b505af1158015611c4e573d6000803e3d6000fd5b50505050611c5b85612907565b825460ff1916600217835560405184815285907e84fe51c7cb34b132b7b6eb5d5a87a489f8d6d284758d00a0402c1bad9a0def9060200160405180910390a2505050919050565b611cad335b8361248e565b611cc95760405162461bcd60e51b81526004016109e190615453565b61105e8484848461361a565b81611d075760405162461bcd60e51b8152602060048201526002602482015261138d60f21b60448201526064016109e1565b6000611d1282612a4c565b606081015160408201516080830151929350909160005b86811015611e66576000611d62898984818110611d5657634e487b7160e01b600052603260045260246000fd5b90506020020135612a4c565b9050806060015185611d749190615582565b9450806040015184611d869190615582565b9350806080015183611d989190615582565b601a549093506001600160a01b0316630dbf21b08a8a85818110611dcc57634e487b7160e01b600052603260045260246000fd5b905060200201356040518263ffffffff1660e01b8152600401611df191815260200190565b600060405180830381600087803b158015611e0b57600080fd5b505af1158015611e1f573d6000803e3d6000fd5b50505050611e53898984818110611e4657634e487b7160e01b600052603260045260246000fd5b905060200201358861364d565b5080611e5e8161565c565b915050611d29565b50611e748585858585612b3b565b50601a546040516357a5c96760e01b81526001600160a01b03909116906357a5c96790611ea99088908790869060040161556c565b600060405180830381600087803b158015611ec357600080fd5b505af1158015611ed7573d6000803e3d6000fd5b5050505050505050505050565b6000908152600f602052604090205490565b600060026007541415611f1b5760405162461bcd60e51b81526004016109e1906154a4565b60026007556000611f2c42886155cd565b9050611f3d8989838989898961306c565b60016007559998505050505050505050565b606061089c826137c9565b60156020528160005260406000208181548110611f7657600080fd5b90600052602060002001600091509150505481565b6000828152600c60205260408120611fa3908361392b565b9392505050565b611fb382610b48565b611fbd81336126f1565b610b1283836127db565b6012546040516303906d2960e11b815260048101849052600091829182916001600160a01b031690630720da529060240160a06040518083038186803b15801561201057600080fd5b505afa158015612024573d6000803e3d6000fd5b505050506040513d601f19601f820116820180604052508101906120489190615141565b50600088815260146020526040902060058101549396509094509250508281106120995760405162461bcd60e51b8152602060048201526002602482015261433160f01b60448201526064016109e1565b600081815260186020526040902054806121e4576120b86001896155cd565b90505b856121e4576012546040516303906d2960e11b8152600481018390526000916001600160a01b031690630720da529060240160a06040518083038186803b15801561210557600080fd5b505afa158015612119573d6000803e3d6000fd5b505050506040513d601f19601f8201168201806040525081019061213d9190615141565b509350505050806000141561219357600082116121815760405162461bcd60e51b8152602060048201526002602482015261433360f01b60448201526064016109e1565b61218c6001836155cd565b91506121de565b828111156121c85760405162461bcd60e51b815260206004820152600260248201526110cd60f21b60448201526064016109e1565b6000838152601860205260409020829055600196505b506120bb565b505050505092915050565b8060005b8181101561105e5761222a84848381811061221e57634e487b7160e01b600052603260045260246000fd5b90506020020135610ddb565b806122348161565c565b9150506121f3565b6001600160a01b03918216600090815260056020908152604080832093909416825291909152205460ff1690565b33612273611832565b6001600160a01b0316146122995760405162461bcd60e51b81526004016109e19061541e565b6001600160a01b0381166122fe5760405162461bcd60e51b815260206004820152602660248201527f4f776e61626c653a206e6577206f776e657220697320746865207a65726f206160448201526564647265737360d01b60648201526084016109e1565b610cab8161301a565b6000612311612db3565b9050600080600080612323878761291f565b935093509350935060006040518060e001604052808360000151600381111561235c57634e487b7160e01b600052602160045260246000fd5b8152602001836020015181526020018681526020018481526020018581526020018360a0015181526020018360c0015160028111156123ab57634e487b7160e01b600052602160045260246000fd5b905290506123b98682612ef7565b6123c4868486612faf565b6123d18a8a8a898b612b6d565b5050505050949350505050565b60006001600160e01b03198216637965db0b60e01b148061089c575061089c82613937565b6000908152600260205260409020546001600160a01b0316151590565b600081815260046020526040902080546001600160a01b0319166001600160a01b038416908117909155819061245582611064565b6001600160a01b03167f8c5be1e5ebec7d5bd14f71427d1e84f3dd0314c0f7b2291e5b200ac8c7c3b92560405160405180910390a45050565b600061249982612403565b6124fa5760405162461bcd60e51b815260206004820152602c60248201527f4552433732313a206f70657261746f7220717565727920666f72206e6f6e657860448201526b34b9ba32b73a103a37b5b2b760a11b60648201526084016109e1565b600061250583611064565b9050806001600160a01b0316846001600160a01b031614806125405750836001600160a01b031661253584610979565b6001600160a01b0316145b806125505750612550818561223c565b949350505050565b826001600160a01b031661256b82611064565b6001600160a01b0316146125d35760405162461bcd60e51b815260206004820152602960248201527f4552433732313a207472616e73666572206f6620746f6b656e2074686174206960448201526839903737ba1037bbb760b91b60648201526084016109e1565b6001600160a01b0382166126355760405162461bcd60e51b8152602060048201526024808201527f4552433732313a207472616e7366657220746f20746865207a65726f206164646044820152637265737360e01b60648201526084016109e1565b612640838383613987565b61264b600082612420565b6001600160a01b03831660009081526003602052604081208054600192906126749084906155cd565b90915550506001600160a01b03821660009081526003602052604081208054600192906126a2908490615582565b909155505060008181526002602052604080822080546001600160a01b0319166001600160a01b03868116918217909255915184939187169160008051602061573f83398151915291a4505050565b6126fb828261188b565b610c0657612713816001600160a01b0316601461399f565b61271e83602061399f565b60405160200161272f9291906151ff565b60408051601f198184030181529082905262461bcd60e51b82526109e191600401615364565b61275f828261188b565b610c065760008281526008602090815260408083206001600160a01b03851684529091529020805460ff191660011790556127973390565b6001600160a01b0316816001600160a01b0316837f2f8788117e7eff1d82e926ec794901d17c78024a50270940304540a733656f0d60405160405180910390a45050565b6127e5828261188b565b15610c065760008281526008602090815260408083206001600160a01b0385168085529252808320805460ff1916905551339285917ff6391f5c32d9c69d2a47ea670b442974b53935d1edc7fd64eb21e047a839171b9190a45050565b6000828152600b602090815260408083206001600160a01b03871684526001019091529020546128a4576000828152600b602090815260408220805460018101825590835291200180546001600160a01b0319166001600160a01b0385161790555b6000828152600b602090815260408083206001600160a01b0387168085526001909101835292819020849055518381528492917f8a156bd946dc74ec284c5f4b365ce75ef2a5b9d9462b4cdb1d2400cabf136541910160405180910390a3505050565b6000818152600a6020526040812055610cab81613b80565b600080600061292c614a94565b61293586612a4c565b9050600061294287611ee4565b90508086836040015161295591906155ae565b61295f919061559a565b94508086836080015161297291906155ae565b61297c919061559a565b93508086836060015161298f91906155ae565b612999919061559a565b92506129d087838585606001516129b091906155cd565b8886604001516129c091906155cd565b888760800151610d4191906155cd565b601a54606082015160808301516040516357a5c96760e01b81529395506001600160a01b03909216926357a5c96792612a10928c9290919060040161556c565b600060405180830381600087803b158015612a2a57600080fd5b505af1158015612a3e573d6000803e3d6000fd5b505050505092959194509250565b612a54614a94565b60008281526014602052604090819020815160e081019092528054829060ff166003811115612a9357634e487b7160e01b600052602160045260246000fd5b6003811115612ab257634e487b7160e01b600052602160045260246000fd5b81526001820154602082015260028083015460408301526003830154606083015260048301546080830152600583015460a0830152600683015460c09092019160ff1690811115612b1357634e487b7160e01b600052602160045260246000fd5b6002811115612b3257634e487b7160e01b600052602160045260246000fd5b90525092915050565b612b43614a94565b5060608401839052604084018290526080840181905283612b648682612ef7565b95945050505050565b612b7683611064565b6001600160a01b0316856001600160a01b031614612bbb5760405162461bcd60e51b81526020600482015260026024820152614e3960f01b60448201526064016109e1565b6001600160a01b038416612bf75760405162461bcd60e51b815260206004820152600360248201526204e31360ec1b60448201526064016109e1565b336001600160a01b03861614801590612c175750612c15853361223c565b155b15612c62576000838152600b60209081526040808320338452600101909152902054612c449082906155cd565b6000848152600b602090815260408083203384526001019091529020555b6000838152600f6020526040902054612c7c9082906155cd565b6000848152600f6020526040902055612c9482612403565b612cb157612cac8483612ca686610b5d565b84613c12565b612d59565b836001600160a01b0316612cc483611064565b6001600160a01b031614612d005760405162461bcd60e51b81526020600482015260036024820152624e313160e81b60448201526064016109e1565b612d0982610b5d565b612d1284610b5d565b14612d2f5760405162461bcd60e51b81526004016109e190615402565b6000828152600f6020526040902054612d49908290615582565b6000838152600f60205260409020555b6000838152600a60205260408082205484835291819020919091555183906001600160a01b03808716919088169060008051602061575f83398151915290612da49087908790615356565b60405180910390a45050505050565b6013805460009182612dc48361565c565b91905055905090565b612dd7338461248e565b612e085760405162461bcd60e51b8152602060048201526002602482015261271960f11b60448201526064016109e1565b612e1182612403565b15612e435760405162461bcd60e51b81526020600482015260026024820152614e3360f01b60448201526064016109e1565b612e6282612e5085610b5d565b6000918252600a602052604090912055565b6000838152600f6020526040902054612e7c9082906155cd565b6000848152600f6020526040812091909155612e9784611064565b9050612ead8184612ea787610b5d565b85613c12565b83816001600160a01b03167ff66885c33d648fcd0d97e0f2a18e30102169c22763473af0fb716f11b4a17dd68585604051612ee9929190615356565b60405180910390a350505050565b60008281526014602052604090208151815483929190829060ff19166001836003811115612f3557634e487b7160e01b600052602160045260246000fd5b02179055506020820151816001015560408201518160020155606082015181600301556080820151816004015560a0820151816005015560c08201518160060160006101000a81548160ff02191690836002811115612fa457634e487b7160e01b600052602160045260246000fd5b021790555050505050565b601a5460405163edd0d42160e01b81526001600160a01b039091169063edd0d42190612fe39086908690869060040161556c565b600060405180830381600087803b158015612ffd57600080fd5b505af1158015613011573d6000803e3d6000fd5b50505050505050565b600680546001600160a01b038381166001600160a01b0319831681179093556040519116919082907f8be0079c531659141344cd1fd0a4f28419497f9722a3daafe3b4186f6b6457e090600090a35050565b600061012c8610156130a65760405162461bcd60e51b81526020600482015260036024820152624f323160e81b60448201526064016109e1565b6201518086101561316e5786156130e55760405162461bcd60e51b815260206004820152600360248201526227991960e91b60448201526064016109e1565b601260009054906101000a90046001600160a01b03166001600160a01b0316631acf55826040518163ffffffff1660e01b815260040160206040518083038186803b15801561313357600080fd5b505afa158015613147573d6000803e3d6000fd5b505050506040513d601f19601f8201168201806040525081019061316b9190614fc8565b96505b601a546040805163ab2f0e5160e01b815290516064926001600160a01b03169163ab2f0e51916004808301926020929190829003018186803b1580156131b357600080fd5b505afa1580156131c7573d6000803e3d6000fd5b505050506040513d601f19601f820116820180604052508101906131eb9190614fc8565b601b60009054906101000a90046001600160a01b03166001600160a01b03166371bf7e256040518163ffffffff1660e01b815260040160206040518083038186803b15801561323957600080fd5b505afa15801561324d573d6000803e3d6000fd5b505050506040513d601f19601f820116820180604052508101906132719190614fc8565b61327b91906155ae565b613285919061559a565b4360009081526019602090815260408083203384529091529020546132ab908a90615582565b106132de5760405162461bcd60e51b81526020600482015260036024820152624f323360e81b60448201526064016109e1565b436000908152601960209081526040808320338452909152812080548a9290613308908490615582565b9091555060009050808061331f898c8c8b8b611165565b9194509250905060056133328a8d6155ae565b61333c91906155ae565b61334a846301e133806155ae565b6133559060646155ae565b116133875760405162461bcd60e51b8152602060048201526002602482015261279960f11b60448201526064016109e1565b6010546040516323b872dd60e01b8152336004820152306024820152604481018590526000916001600160a01b0316906323b872dd90606401602060405180830381600087803b1580156133da57600080fd5b505af11580156133ee573d6000803e3d6000fd5b505050506040513d601f19601f820116820180604052508101906134129190614f38565b9050806134465760405162461bcd60e51b81526020600482015260026024820152614f3360f01b60448201526064016109e1565b60018915158114801561345b57506001891515145b8061346d57508915801561346d575088155b15613476575060025b6040805160e0810190915260009080600181526020018e81526020018f81526020018f81526020018581526020018d426134b09190615582565b81526020018360028111156134d557634e487b7160e01b600052602160045260246000fd5b905290506134e1612db3565b6040805180820182528d151581528c15156020808301918252600085815260179091529290922090518154925161ffff1990931690151561ff0019161761010092151592909202919091179055965061353a8782612ef7565b3360008181526015602090815260408083208054600181018255818552838520018c9055848452546016835292209190915582015160a083015161358d928a92909161358891849188613c9c565b613dda565b6135978789613dfd565b60006135a3868b613e07565b90506135b88883606001518460800151612faf565b336001600160a01b0316887f89f823a0225c73a75066e963ce2eea7708b57680ec86102773dbd244f5412892838a8d6040516135f69392919061554d565b60405180910390a350505050505050979650505050505050565b600061089c825490565b613625848484612558565b613631848484846142c8565b61105e5760405162461bcd60e51b81526004016109e190615393565b61365633611ca7565b6136875760405162461bcd60e51b81526020600482015260026024820152614e3560f01b60448201526064016109e1565b808214156136bc5760405162461bcd60e51b8152602060048201526002602482015261271b60f11b60448201526064016109e1565b6136c581610b5d565b6136ce83610b5d565b146136eb5760405162461bcd60e51b81526004016109e190615402565b60006136f683611064565b905061370182611064565b6001600160a01b0316816001600160a01b0316146137465760405162461bcd60e51b815260206004820152600260248201526109c760f31b60448201526064016109e1565b6000838152600f6020526040808220548483529120546137669082615582565b6000848152600f602052604090205561377e84612907565b8284836001600160a01b03167fb3ce851d16b3bbec3774d5631a3893dfa2a80e067cfad265dd594402ac3d6096846040516137bb91815260200190565b60405180910390a450505050565b60606137d482612403565b61383a5760405162461bcd60e51b815260206004820152603160248201527f45524337323155524953746f726167653a2055524920717565727920666f72206044820152703737b732bc34b9ba32b73a103a37b5b2b760791b60648201526084016109e1565b6000828152600960205260408120805461385390615627565b80601f016020809104026020016040519081016040528092919081815260200182805461387f90615627565b80156138cc5780601f106138a1576101008083540402835291602001916138cc565b820191906000526020600020905b8154815290600101906020018083116138af57829003601f168201915b5050505050905060006138dd6143d5565b90508051600014156138f0575092915050565b81511561392257808260405160200161390a9291906151d0565b60405160208183030381529060405292505050919050565b612550846143f5565b6000611fa383836144bf565b60006001600160e01b031982166380ac58cd60e01b148061396857506001600160e01b03198216635b5e139f60e01b145b8061089c57506301ffc9a760e01b6001600160e01b031983161461089c565b6001600160a01b03831615610b1257610b12816144f7565b606060006139ae8360026155ae565b6139b9906002615582565b6001600160401b038111156139de57634e487b7160e01b600052604160045260246000fd5b6040519080825280601f01601f191660200182016040528015613a08576020820181803683370190505b509050600360fc1b81600081518110613a3157634e487b7160e01b600052603260045260246000fd5b60200101906001600160f81b031916908160001a905350600f60fb1b81600181518110613a6e57634e487b7160e01b600052603260045260246000fd5b60200101906001600160f81b031916908160001a9053506000613a928460026155ae565b613a9d906001615582565b90505b6001811115613b31576f181899199a1a9b1b9c1cb0b131b232b360811b85600f1660108110613adf57634e487b7160e01b600052603260045260246000fd5b1a60f81b828281518110613b0357634e487b7160e01b600052603260045260246000fd5b60200101906001600160f81b031916908160001a90535060049490941c93613b2a81615610565b9050613aa0565b508315611fa35760405162461bcd60e51b815260206004820181905260248201527f537472696e67733a20686578206c656e67746820696e73756666696369656e7460448201526064016109e1565b6000613b8b82611064565b90506000613b9883610b5d565b6000848152600f6020908152604080832054848452600c90925290912091925090613bc390856145ab565b506000848152600f6020526040812055613bdc846145b7565b8360006001600160a01b0316846001600160a01b031660008051602061575f8339815191526000856040516137bb929190615356565b613c1b83612403565b613c4357613c29848461464c565b6000828152600c60205260409020613c419084614778565b505b6000838152600f6020526040902054613c5d908290615582565b6000848152600f60205260408082209290925590516001600160a01b03861690829060008051602061575f833981519152906137bb9088908790615356565b600083838387604051602001613cb59493929190615523565b60408051808303601f1901815291815281516020928301206000818152601c909352912060020154909150610100900460ff1615613d1b5760405162461bcd60e51b8152602060048201526003602482015262138c4d60ea1b60448201526064016109e1565b6040518060800160405280858152602001848152602001836002811115613d5257634e487b7160e01b600052602160045260246000fd5b8152600160209182018190526000848152601c8352604090819020845181559284015183830155830151600280840180549293909260ff1916918490811115613dab57634e487b7160e01b600052602160045260246000fd5b021790555060609190910151600290910180549115156101000261ff0019909216919091179055949350505050565b6000838152600a60205260409020819055600d54610b1290839085908490613c12565b610c068282614784565b60006064601b60009054906101000a90046001600160a01b03166001600160a01b031663ca535c3b6040518163ffffffff1660e01b815260040160206040518083038186803b158015613e5957600080fd5b505afa158015613e6d573d6000803e3d6000fd5b505050506040513d601f19601f82011682018060405250810190613e919190614fc8565b613e9b90856155ae565b613ea5919061559a565b90508015613fa657601054601b5460408051630605cc7760e21b815290516001600160a01b039384169363a9059cbb93169163181731dc916004808301926020929190829003018186803b158015613efc57600080fd5b505afa158015613f10573d6000803e3d6000fd5b505050506040513d601f19601f82011682018060405250810190613f349190614c7f565b836040518363ffffffff1660e01b8152600401613f529291906152ab565b602060405180830381600087803b158015613f6c57600080fd5b505af1158015613f80573d6000803e3d6000fd5b505050506040513d601f19601f82011682018060405250810190613fa49190614f38565b505b6000613fb282856155cd565b905080156142c157601b5460408051634905129f60e11b815290516000926001600160a01b03169163920a253e916004808301926020929190829003018186803b158015613fff57600080fd5b505afa158015614013573d6000803e3d6000fd5b505050506040513d601f19601f820116820180604052508101906140379190614fc8565b11801561405d5750614047611832565b6001600160a01b0316836001600160a01b031614155b801561407257506001600160a01b0383163314155b156141ec5760006064601b60009054906101000a90046001600160a01b03166001600160a01b031663920a253e6040518163ffffffff1660e01b815260040160206040518083038186803b1580156140c957600080fd5b505afa1580156140dd573d6000803e3d6000fd5b505050506040513d601f19601f820116820180604052508101906141019190614fc8565b61410b90846155ae565b614115919061559a565b905061412181836155cd565b60105460405163a9059cbb60e01b81529193506001600160a01b03169063a9059cbb9061415490879085906004016152ab565b602060405180830381600087803b15801561416e57600080fd5b505af1158015614182573d6000803e3d6000fd5b505050506040513d601f19601f820116820180604052508101906141a69190614f38565b50836001600160a01b03167f2fc41b7d7df3272c17d9b581fcf235307bc027599c6ed68442c4100bd3a84198826040516141e291815260200190565b60405180910390a2505b6010546001600160a01b031663a9059cbb614205611832565b836040518363ffffffff1660e01b81526004016142239291906152ab565b602060405180830381600087803b15801561423d57600080fd5b505af1158015614251573d6000803e3d6000fd5b505050506040513d601f19601f820116820180604052508101906142759190614f38565b5061427e611832565b6001600160a01b03167ff0f0487d8990103573e0e5cf4e87e101e2a1ba84c733c556b7a5807e570e5d4c826040516142b891815260200190565b60405180910390a25b5092915050565b60006001600160a01b0384163b156143ca57604051630a85bd0160e11b81526001600160a01b0385169063150b7a029061430c90339089908890889060040161526e565b602060405180830381600087803b15801561432657600080fd5b505af1925050508015614356575060408051601f3d908101601f1916820190925261435391810190614fac565b60015b6143b0573d808015614384576040519150601f19603f3d011682016040523d82523d6000602084013e614389565b606091505b5080516143a85760405162461bcd60e51b81526004016109e190615393565b805181602001fd5b6001600160e01b031916630a85bd0160e11b149050612550565b506001949350505050565b606060405180606001604052806022815260200161571d60229139905090565b606061440082612403565b6144645760405162461bcd60e51b815260206004820152602f60248201527f4552433732314d657461646174613a2055524920717565727920666f72206e6f60448201526e3732bc34b9ba32b73a103a37b5b2b760891b60648201526084016109e1565b600061446e6143d5565b9050600081511161448e5760405180602001604052806000815250611fa3565b806144988461480f565b6040516020016144a99291906151d0565b6040516020818303038152906040529392505050565b60008260000182815481106144e457634e487b7160e01b600052603260045260246000fd5b9060005260206000200154905092915050565b6000818152600b60205260408120905b8154811015610b125781600101600083600001838154811061453957634e487b7160e01b600052603260045260246000fd5b60009182526020808320909101546001600160a01b03168352820192909252604001812055815482908290811061458057634e487b7160e01b600052603260045260246000fd5b600091825260209091200180546001600160a01b0319169055806145a38161565c565b915050614507565b6000611fa38383614928565b60006145c282611064565b90506145d081600084613987565b6145db600083612420565b6001600160a01b03811660009081526003602052604081208054600192906146049084906155cd565b909155505060008281526002602052604080822080546001600160a01b0319169055518391906001600160a01b0384169060008051602061573f833981519152908390a45050565b6001600160a01b0382166146a25760405162461bcd60e51b815260206004820181905260248201527f4552433732313a206d696e7420746f20746865207a65726f206164647265737360448201526064016109e1565b6146ab81612403565b156146f75760405162461bcd60e51b815260206004820152601c60248201527b115490cdcc8c4e881d1bdad95b88185b1c9958591e481b5a5b9d195960221b60448201526064016109e1565b61470360008383613987565b6001600160a01b038216600090815260036020526040812080546001929061472c908490615582565b909155505060008181526002602052604080822080546001600160a01b0319166001600160a01b038616908117909155905183929060008051602061573f833981519152908290a45050565b6000611fa38383614a45565b61478d82612403565b6147f05760405162461bcd60e51b815260206004820152602e60248201527f45524337323155524953746f726167653a2055524920736574206f66206e6f6e60448201526d32bc34b9ba32b73a103a37b5b2b760911b60648201526084016109e1565b60008281526009602090815260409091208251610b1292840190614af0565b6060816148335750506040805180820190915260018152600360fc1b602082015290565b8160005b811561485d57806148478161565c565b91506148569050600a8361559a565b9150614837565b6000816001600160401b0381111561488557634e487b7160e01b600052604160045260246000fd5b6040519080825280601f01601f1916602001820160405280156148af576020820181803683370190505b5090505b8415612550576148c46001836155cd565b91506148d1600a86615677565b6148dc906030615582565b60f81b8183815181106148ff57634e487b7160e01b600052603260045260246000fd5b60200101906001600160f81b031916908160001a905350614921600a8661559a565b94506148b3565b60008181526001830160205260408120548015614a3b57600061494c6001836155cd565b8554909150600090614960906001906155cd565b90508181146149e157600086600001828154811061498e57634e487b7160e01b600052603260045260246000fd5b90600052602060002001549050808760000184815481106149bf57634e487b7160e01b600052603260045260246000fd5b6000918252602080832090910192909255918252600188019052604090208390555b8554869080614a0057634e487b7160e01b600052603160045260246000fd5b60019003818190600052602060002001600090559055856001016000868152602001908152602001600020600090556001935050505061089c565b600091505061089c565b6000818152600183016020526040812054614a8c5750815460018181018455600084815260208082209093018490558454848252828601909352604090209190915561089c565b50600061089c565b6040805160e081019091528060008152602001600081526020016000815260200160008152602001600081526020016000815260200160006002811115614aeb57634e487b7160e01b600052602160045260246000fd5b905290565b828054614afc90615627565b90600052602060002090601f016020900481019282614b1e5760008555614b64565b82601f10614b3757805160ff1916838001178555614b64565b82800160010185558215614b64579182015b82811115614b64578251825591602001919060010190614b49565b50614b70929150614b74565b5090565b5b80821115614b705760008155600101614b75565b60006001600160401b0380841115614ba357614ba36156cd565b604051601f8501601f19908116603f01168101908282118183101715614bcb57614bcb6156cd565b81604052809350858152868686011115614be457600080fd5b858560208301376000602087830101525050509392505050565b60008083601f840112614c0f578182fd5b5081356001600160401b03811115614c25578182fd5b6020830191508360208260051b8501011115614c4057600080fd5b9250929050565b80516001600160501b0381168114614c5e57600080fd5b919050565b600060208284031215614c74578081fd5b8135611fa3816156e3565b600060208284031215614c90578081fd5b8151611fa3816156e3565b60008060408385031215614cad578081fd5b8235614cb8816156e3565b91506020830135614cc8816156e3565b809150509250929050565b600080600060608486031215614ce7578081fd5b8335614cf2816156e3565b92506020840135614d02816156e3565b929592945050506040919091013590565b60008060008060808587031215614d28578081fd5b8435614d33816156e3565b93506020850135614d43816156e3565b92506040850135915060608501356001600160401b03811115614d64578182fd5b8501601f81018713614d74578182fd5b614d8387823560208401614b89565b91505092959194509250565b60008060008060808587031215614da4578384fd5b8435614daf816156e3565b93506020850135614dbf816156e3565b93969395505050506040820135916060013590565b600080600080600060a08688031215614deb578081fd5b8535614df6816156e3565b94506020860135614e06816156e3565b94979496505050506040830135926060810135926080909101359150565b60008060408385031215614e36578182fd5b8235614e41816156e3565b91506020830135614cc8816156f8565b60008060408385031215614e63578182fd5b8235614e6e816156e3565b946020939093013593505050565b600080600060608486031215614e90578081fd5b8335614e9b816156e3565b95602085013595506040909401359392505050565b60008060208385031215614ec2578182fd5b82356001600160401b03811115614ed7578283fd5b614ee385828601614bfe565b90969095509350505050565b600080600060408486031215614f03578081fd5b83356001600160401b03811115614f18578182fd5b614f2486828701614bfe565b909790965060209590950135949350505050565b600060208284031215614f49578081fd5b8151611fa3816156f8565b600060208284031215614f65578081fd5b5035919050565b60008060408385031215614f7e578182fd5b823591506020830135614cc8816156e3565b600060208284031215614fa1578081fd5b8135611fa381615706565b600060208284031215614fbd578081fd5b8151611fa381615706565b600060208284031215614fd9578081fd5b5051919050565b600080600060408486031215614ff4578081fd5b8335925060208401356001600160401b03811115615010578182fd5b61501c86828701614bfe565b9497909650939450505050565b6000806040838503121561503b578182fd5b50508035926020909101359150565b600080600080600060a08688031215615061578283fd5b8535945060208601359350604086013592506060860135615081816156f8565b91506080860135615091816156f8565b809150509295509295909350565b600080600080600080600060e0888a0312156150b9578485fd5b87359650602088013595506040880135945060608801356150d9816156f8565b935060808801356150e9816156f8565b925060a08801356150f9816156e3565b915060c08801356001600160401b03811115615113578182fd5b8801601f81018a13615123578182fd5b6151328a823560208401614b89565b91505092959891949750929550565b600080600080600060a08688031215615158578283fd5b61516186614c47565b945060208601519350604086015192506060860151915061518460808701614c47565b90509295509295909350565b600081518084526151a88160208601602086016155e4565b601f01601f19169290920160200192915050565b600381106151cc576151cc6156b7565b9052565b600083516151e28184602088016155e4565b8351908301906151f68183602088016155e4565b01949350505050565b76020b1b1b2b9b9a1b7b73a3937b61d1030b1b1b7bab73a1604d1b8152600083516152318160178501602088016155e4565b7001034b99036b4b9b9b4b733903937b6329607d1b60179184019182015283516152628160288401602088016155e4565b01602801949350505050565b6001600160a01b03858116825284166020820152604081018390526080606082018190526000906152a190830184615190565b9695505050505050565b6001600160a01b03929092168252602082015260400190565b6020808252825182820181905260009190848201906040850190845b818110156152fc578351835292840192918401916001016152e0565b50909695505050505050565b60e081016004891061531c5761531c6156b7565b8882528760208301528660408301528560608301528460808301528360a083015261534a60c08301846151bc565b98975050505050505050565b918252602082015260400190565b602081526000611fa36020830184615190565b6020808252600290820152614f3960f01b604082015260600190565b60208082526032908201527f4552433732313a207472616e7366657220746f206e6f6e20455243373231526560408201527131b2b4bb32b91034b6b83632b6b2b73a32b960711b606082015260800190565b60208082526003908201526204f32360ec1b604082015260600190565b6020808252600290820152614e3760f01b604082015260600190565b6020808252818101527f4f776e61626c653a2063616c6c6572206973206e6f7420746865206f776e6572604082015260600190565b60208082526031908201527f4552433732313a207472616e736665722063616c6c6572206973206e6f74206f6040820152701ddb995c881b9bdc88185c1c1c9bdd9959607a1b606082015260800190565b6020808252601f908201527f5265656e7472616e637947756172643a207265656e7472616e742063616c6c00604082015260600190565b60208082526002908201526113cd60f21b604082015260600190565b848152602081018490526080810161551260408301856151bc565b821515606083015295945050505050565b848152602081018490526080810161553e60408301856151bc565b82606083015295945050505050565b838152826020820152606060408201526000612b646060830184615190565b9283526020830191909152604082015260600190565b600082198211156155955761559561568b565b500190565b6000826155a9576155a96156a1565b500490565b60008160001904831182151516156155c8576155c861568b565b500290565b6000828210156155df576155df61568b565b500390565b60005b838110156155ff5781810151838201526020016155e7565b8381111561105e5750506000910152565b60008161561f5761561f61568b565b506000190190565b600181811c9082168061563b57607f821691505b6020821081141561097357634e487b7160e01b600052602260045260246000fd5b60006000198214156156705761567061568b565b5060010190565b600082615686576156866156a1565b500690565b634e487b7160e01b600052601160045260246000fd5b634e487b7160e01b600052601260045260246000fd5b634e487b7160e01b600052602160045260246000fd5b634e487b7160e01b600052604160045260246000fd5b6001600160a01b0381168114610cab57600080fd5b8015158114610cab57600080fd5b6001600160e01b031981168114610cab57600080fdfe68747470733a2f2f676174657761792e70696e6174612e636c6f75642f697066732fddf252ad1be2c89b69c2b068fc378daa952ba7f163c4a11628f55a4df523b3ef823a343d1c899e61a4db12247636a6882bf1fefae78bef39170f8d0f5b53e456a2646970667358221220350fe92efa833220d8fdaab5e3f71537e9b32380ae44817e226be864e77780ee64736f6c63430008040033",
  "bytecodeSha1": "1c24e29c89574673073616f5bb56ed8c8886ad27",
  "compiler": {
    "evm_version": "istanbul",
    "optimizer": {
      "enabled": true,
      "runs": 1
    },
    "version": "0.8.4+commit.c7e474f2"
  },
  "contractName": "BufferBinaryEuropeanTokenXOptions",
  "deployedBytecode": "608060405234801561001057600080fd5b50600436106102bf5760003560e01c806301ffc9a7146102c457806305271a2a146102ec57806306517a291461030157806306fdde0314610318578063076d948c1461032d578063081812fc14610340578063095ea7b31461036b57806316dc165b1461038057806316f0115b1461039357806323b872dd146103a6578063248a9ca3146103b9578063263f3e7e146103cc5780632f2ff15d146103df57806334c01793146103f257806336568abe1461041d578063409e220514610430578063426a84931461049357806342842e0e146104a657806342966c68146104b95780634aed53c2146104cc5780634f558e79146104df5780636198e339146104f25780636352211e14610505578063645734e61461051857806367807f7d14610520578063689ab5ac1461054257806369c672471461058557806370a08231146105a5578063715018a6146105b857806375794a3c146105c057806375a74d84146105c957806378c533ce146105e957806379502c5514610609578063841edc0e1461061c5780638a5841181461063c5780638da5cb5b146106875780638ddaa2671461068f57806391d14854146106a257806395d89b41146106b5578063a217fddf146106bd578063a22cb465146106c5578063a6d14c02146106d8578063a8800425146106e0578063b07f0a41146106f3578063b888879e14610706578063b88d4fde14610719578063bbe33ea51461072c578063becef6071461073f578063c0d720bb14610752578063c87b56dd14610765578063c962ca1214610778578063d149cc301461078b578063d547741f1461079e578063d5a0e673146107b1578063d67a6b70146107d1578063dba34e97146107e4578063e342b5981461080b578063e345e0bc1461081e578063e985e9c514610858578063f2fde38b1461086b578063fe99049a1461087e575b600080fd5b6102d76102d2366004614f90565b610891565b60405190151581526020015b60405180910390f35b600e5460405160ff90911681526020016102e3565b61030a600d5481565b6040519081526020016102e3565b6103206108a2565b6040516102e39190615364565b61030a61033b366004614f54565b610934565b61035361034e366004614f54565b610979565b6040516001600160a01b0390911681526020016102e3565b61037e610379366004614e51565b610a06565b005b601054610353906001600160a01b031681565b601a54610353906001600160a01b031681565b61037e6103b4366004614cd3565b610b17565b61030a6103c7366004614f54565b610b48565b61030a6103da366004614f54565b610b5d565b61037e6103ed366004614f6c565b610b6f565b61030a610400366004614f6c565b601960209081526000928352604080842090915290825290205481565b61037e61042b366004614f6c565b610b8c565b61048061043e366004614f54565b601460205260009081526040902080546001820154600283015460038401546004850154600586015460069096015460ff958616969495939492939192911687565b6040516102e39796959493929190615308565b61037e6104a1366004614e7c565b610c0a565b61037e6104b4366004614cd3565b610c4e565b61037e6104c7366004614f54565b610c69565b61037e6104da366004614dd4565b610cae565b6102d76104ed366004614f54565b610dd0565b61037e610500366004614f54565b610ddb565b610353610513366004614f54565b611064565b61037e6110db565b61053361052e36600461504a565b611165565b6040516102e39392919061556c565b61056e610550366004614f54565b60176020526000908152604090205460ff8082169161010090041682565b6040805192151583529015156020830152016102e3565b610598610593366004614fe0565b61137e565b6040516102e391906152c4565b61030a6105b3366004614c63565b611770565b61037e6117f7565b61030a60135481565b61030a6105d7366004614c63565b60166020526000908152604090205481565b61030a6105f7366004614f54565b600f6020526000908152604090205481565b601b54610353906001600160a01b031681565b61030a61062a366004614f54565b60186020526000908152604090205481565b61067761064a366004614f54565b601c6020526000908152604090208054600182015460029092015490919060ff8082169161010090041684565b6040516102e394939291906154f7565b610353611832565b61030a61069d36600461509f565b611841565b6102d76106b0366004614f6c565b61188b565b6103206118b6565b61030a600081565b61037e6106d3366004614e24565b6118c5565b61030a600581565b61030a6106ee366004614f54565b611986565b61030a610701366004614f54565b61199d565b601254610353906001600160a01b031681565b61037e610727366004614d13565b611ca2565b61037e61073a366004614eef565b611cd5565b61030a61074d366004614f54565b611ee4565b61030a61076036600461509f565b611ef6565b610320610773366004614f54565b611f4f565b61030a610786366004614e51565b611f5a565b61030a610799366004615029565b611f8b565b61037e6107ac366004614f6c565b611faa565b61030a6107bf366004614f54565b600a6020526000908152604090205481565b6102d76107df366004615029565b611fc7565b61030a7fdeb3b49547f710c56a925b6e16e3557a50fab4dd8f243bc314f3afba2054ec5b81565b61037e610819366004614eb0565b6121ef565b61030a61082c366004614f6c565b6000828152600b602090815260408083206001600160a01b038516845260010190915290205492915050565b6102d7610866366004614c9b565b61223c565b61037e610879366004614c63565b61226a565b61030a61088c366004614d8f565b612307565b600061089c826123de565b92915050565b6060600080546108b190615627565b80601f01602080910402602001604051908101604052809291908181526020018280546108dd90615627565b801561092a5780601f106108ff5761010080835404028352916020019161092a565b820191906000526020600020905b81548152906001019060200180831161090d57829003601f168201915b5050505050905090565b6000805b61094183611986565b8110156109735761095561074d8483611f8b565b61095f9083615582565b91508061096b8161565c565b915050610938565b50919050565b600061098482612403565b6109ea5760405162461bcd60e51b815260206004820152602c60248201527f4552433732313a20617070726f76656420717565727920666f72206e6f6e657860448201526b34b9ba32b73a103a37b5b2b760a11b60648201526084015b60405180910390fd5b506000908152600460205260409020546001600160a01b031690565b6000610a1182611064565b9050806001600160a01b0316836001600160a01b03161415610a7f5760405162461bcd60e51b815260206004820152602160248201527f4552433732313a20617070726f76616c20746f2063757272656e74206f776e656044820152603960f91b60648201526084016109e1565b336001600160a01b0382161480610a9b5750610a9b813361223c565b610b085760405162461bcd60e51b815260206004820152603860248201527f4552433732313a20617070726f76652063616c6c6572206973206e6f74206f776044820152771b995c881b9bdc88185c1c1c9bdd995908199bdc88185b1b60421b60648201526084016109e1565b610b128383612420565b505050565b610b21338261248e565b610b3d5760405162461bcd60e51b81526004016109e190615453565b610b12838383612558565b60009081526008602052604090206001015490565b6000908152600a602052604090205490565b610b7882610b48565b610b8281336126f1565b610b128383612755565b6001600160a01b0381163314610bfc5760405162461bcd60e51b815260206004820152602f60248201527f416363657373436f6e74726f6c3a2063616e206f6e6c792072656e6f756e636560448201526e103937b632b9903337b91039b2b63360891b60648201526084016109e1565b610c0682826127db565b5050565b610c1382611064565b6001600160a01b0316336001600160a01b031614610c435760405162461bcd60e51b81526004016109e190615377565b610b12838383612842565b610b1283838360405180602001604052806000815250611ca2565b610c7281611064565b6001600160a01b0316336001600160a01b031614610ca25760405162461bcd60e51b81526004016109e190615377565b610cab81612907565b50565b610cb782610dd0565b610ce95760405162461bcd60e51b815260206004820152600360248201526227189960e91b60448201526064016109e1565b6000806000610cf8868561291f565b509250925092506000610d0a86612a4c565b9050610d468682848460600151610d219190615582565b878560400151610d319190615582565b878660800151610d419190615582565b612b3b565b601a54606082015160808301516040516357a5c96760e01b81529394506001600160a01b03909216926357a5c96792610d86928b9290919060040161556c565b600060405180830381600087803b158015610da057600080fd5b505af1158015610db4573d6000803e3d6000fd5b50505050610dc58989898989612b6d565b505050505050505050565b600061089c82612403565b60008181526014602052604090206005810154421015610e0d5760405162461bcd60e51b81526004016109e1906154db565b6001815460ff166003811115610e3357634e487b7160e01b600052602160045260246000fd5b14610e655760405162461bcd60e51b81526020600482015260026024820152614f3560f01b60448201526064016109e1565b600581015460009081526018602052604090205480610e965760405162461bcd60e51b81526004016109e1906153e5565b6012546040516303906d2960e11b8152600481018390526000916001600160a01b031690630720da529060240160a06040518083038186803b158015610edb57600080fd5b505afa158015610eef573d6000803e3d6000fd5b505050506040513d601f19601f82011682018060405250810190610f139190615141565b5091935060029250610f23915050565b600684015460ff166002811115610f4a57634e487b7160e01b600052602160045260246000fd5b148015610f5a5750826001015481115b80610f9957506001600684015460ff166002811115610f8957634e487b7160e01b600052602160045260246000fd5b148015610f995750826001015481105b15610fad57610fa78461199d565b5061105e565b825460ff19166003178355601a54604051636198e33960e01b8152600481018690526001600160a01b0390911690636198e33990602401600060405180830381600087803b158015610ffe57600080fd5b505af1158015611012573d6000803e3d6000fd5b5050505061101f84612907565b837f5f36a4a575e512eb69d6d28c3b0ff98cca7ba50ad5bf04e14094ad1d425e0d31846004015460405161105591815260200190565b60405180910390a25b50505050565b6000818152600260205260408120546001600160a01b03168061089c5760405162461bcd60e51b815260206004820152602960248201527f4552433732313a206f776e657220717565727920666f72206e6f6e657869737460448201526832b73a103a37b5b2b760b91b60648201526084016109e1565b601054601a5460405163095ea7b360e01b81526001600160a01b039283169263095ea7b39261111392911690600019906004016152ab565b602060405180830381600087803b15801561112d57600080fd5b505af1158015611141573d6000803e3d6000fd5b505050506040513d601f19601f82011682018060405250810190610cab9190614f38565b600080600080601260009054906101000a90046001600160a01b03166001600160a01b0316631acf55826040518163ffffffff1660e01b815260040160206040518083038186803b1580156111b957600080fd5b505afa1580156111cd573d6000803e3d6000fd5b505050506040513d601f19601f820116820180604052508101906111f19190614fc8565b601b54601a5460405163e39d06e960e01b8152600481018d9052602481018c9052604481018b90528915156064820152881515608482015260a481018490526001600160a01b0392831660c4820152911660e482015290915073__$b949255e90277c788dcf25edf1f9288c61$__9063e39d06e9906101040160206040518083038186803b15801561128257600080fd5b505af4158015611296573d6000803e3d6000fd5b505050506040513d601f19601f820116820180604052508101906112ba9190614fc8565b9150601b60009054906101000a90046001600160a01b03166001600160a01b031663f3fa34956040518163ffffffff1660e01b815260040160206040518083038186803b15801561130a57600080fd5b505afa15801561131e573d6000803e3d6000fd5b505050506040513d601f19601f820116820180604052508101906113429190614fc8565b61134e906127106155cd565b61135a836127106155ae565b611364919061559a565b935061137082856155cd565b925050955095509592505050565b6060816113b25760405162461bcd60e51b81526020600482015260026024820152614e3160f01b60448201526064016109e1565b816001600160401b038111156113d857634e487b7160e01b600052604160045260246000fd5b604051908082528060200260200182016040528015611401578160200160208202803683370190505b509050600061140f85612a4c565b9050600061141c86611ee4565b905060008080805b8781101561162f576000611436612db3565b90508088838151811061145957634e487b7160e01b600052603260045260246000fd5b6020026020010181815250506114968b828c8c8681811061148a57634e487b7160e01b600052603260045260246000fd5b90506020020135612dcd565b6000868b8b858181106114b957634e487b7160e01b600052603260045260246000fd5b9050602002013589604001516114cf91906155ae565b6114d9919061559a565b90506114e58187615582565b95506000878c8c8681811061150a57634e487b7160e01b600052603260045260246000fd5b905060200201358a6060015161152091906155ae565b61152a919061559a565b90506115368187615582565b95506000888d8d8781811061155b57634e487b7160e01b600052603260045260246000fd5b905060200201358b6080015161157191906155ae565b61157b919061559a565b90506115878187615582565b955060006040518060e001604052808c6000015160038111156115ba57634e487b7160e01b600052602160045260246000fd5b81526020018c6020015181526020018581526020018481526020018381526020018c60a0015181526020018c60c00151600281111561160957634e487b7160e01b600052602160045260246000fd5b905290506116178582612ef7565b505050505080806116279061565c565b915050611424565b50611665898684886060015161164591906155cd565b86896040015161165591906155cd565b858a60800151610d4191906155cd565b601a54606082015160808301516040516357a5c96760e01b81529398506001600160a01b03909216926357a5c967926116a5928e9290919060040161556c565b600060405180830381600087803b1580156116bf57600080fd5b505af11580156116d3573d6000803e3d6000fd5b5050505060005b8781101561176357600061171488838151811061170757634e487b7160e01b600052603260045260246000fd5b6020026020010151612a4c565b905061175088838151811061173957634e487b7160e01b600052603260045260246000fd5b602002602001015182606001518360800151612faf565b508061175b8161565c565b9150506116da565b5050505050509392505050565b60006001600160a01b0382166117db5760405162461bcd60e51b815260206004820152602a60248201527f4552433732313a2062616c616e636520717565727920666f7220746865207a65604482015269726f206164647265737360b01b60648201526084016109e1565b506001600160a01b031660009081526003602052604090205490565b33611800611832565b6001600160a01b0316146118265760405162461bcd60e51b81526004016109e19061541e565b611830600061301a565b565b6006546001600160a01b031690565b6000600260075414156118665760405162461bcd60e51b81526004016109e1906154a4565b600260075561187a8888888888888861306c565b600160075598975050505050505050565b60009182526008602090815260408084206001600160a01b0393909316845291905290205460ff1690565b6060600180546108b190615627565b6001600160a01b03821633141561191a5760405162461bcd60e51b815260206004820152601960248201527822a9219b99189d1030b8383937bb32903a379031b0b63632b960391b60448201526064016109e1565b3360008181526005602090815260408083206001600160a01b03871680855290835292819020805460ff191686151590811790915590519081529192917f17307eab39ab6107e8899845ad3d59bd9653f200f220920489ca2b5937696c31910160405180910390a35050565b6000818152600c6020526040812061089c90613610565b60006119a882610dd0565b6119da5760405162461bcd60e51b815260206004820152600360248201526204f31360ec1b60448201526064016109e1565b60008281526014602052604090206005810154421015611a0c5760405162461bcd60e51b81526004016109e1906154db565b6001815460ff166003811115611a3257634e487b7160e01b600052602160045260246000fd5b14611a655760405162461bcd60e51b815260206004820152600360248201526213cc4d60ea1b60448201526064016109e1565b600581015460009081526018602052604090205480611a965760405162461bcd60e51b81526004016109e1906153e5565b6012546040516303906d2960e11b8152600481018390526000916001600160a01b031690630720da529060240160a06040518083038186803b158015611adb57600080fd5b505afa158015611aef573d6000803e3d6000fd5b505050506040513d601f19601f82011682018060405250810190611b139190615141565b5091935060029250611b23915050565b600684015460ff166002811115611b4a57634e487b7160e01b600052602160045260246000fd5b1415611b8f578083600101541115611b8a5760405162461bcd60e51b81526020600482015260036024820152624f313760e81b60448201526064016109e1565b611bc9565b8083600101541015611bc95760405162461bcd60e51b815260206004820152600360248201526209e62760eb1b60448201526064016109e1565b6003830154601a549094506001600160a01b03166381b34f1586611bec81611064565b6040516001600160e01b031960e085901b16815260048101929092526001600160a01b0316602482015260448101879052606401600060405180830381600087803b158015611c3a57600080fd5b505af1158015611c4e573d6000803e3d6000fd5b50505050611c5b85612907565b825460ff1916600217835560405184815285907e84fe51c7cb34b132b7b6eb5d5a87a489f8d6d284758d00a0402c1bad9a0def9060200160405180910390a2505050919050565b611cad335b8361248e565b611cc95760405162461bcd60e51b81526004016109e190615453565b61105e8484848461361a565b81611d075760405162461bcd60e51b8152602060048201526002602482015261138d60f21b60448201526064016109e1565b6000611d1282612a4c565b606081015160408201516080830151929350909160005b86811015611e66576000611d62898984818110611d5657634e487b7160e01b600052603260045260246000fd5b90506020020135612a4c565b9050806060015185611d749190615582565b9450806040015184611d869190615582565b9350806080015183611d989190615582565b601a549093506001600160a01b0316630dbf21b08a8a85818110611dcc57634e487b7160e01b600052603260045260246000fd5b905060200201356040518263ffffffff1660e01b8152600401611df191815260200190565b600060405180830381600087803b158015611e0b57600080fd5b505af1158015611e1f573d6000803e3d6000fd5b50505050611e53898984818110611e4657634e487b7160e01b600052603260045260246000fd5b905060200201358861364d565b5080611e5e8161565c565b915050611d29565b50611e748585858585612b3b565b50601a546040516357a5c96760e01b81526001600160a01b03909116906357a5c96790611ea99088908790869060040161556c565b600060405180830381600087803b158015611ec357600080fd5b505af1158015611ed7573d6000803e3d6000fd5b5050505050505050505050565b6000908152600f602052604090205490565b600060026007541415611f1b5760405162461bcd60e51b81526004016109e1906154a4565b60026007556000611f2c42886155cd565b9050611f3d8989838989898961306c565b60016007559998505050505050505050565b606061089c826137c9565b60156020528160005260406000208181548110611f7657600080fd5b90600052602060002001600091509150505481565b6000828152600c60205260408120611fa3908361392b565b9392505050565b611fb382610b48565b611fbd81336126f1565b610b1283836127db565b6012546040516303906d2960e11b815260048101849052600091829182916001600160a01b031690630720da529060240160a06040518083038186803b15801561201057600080fd5b505afa158015612024573d6000803e3d6000fd5b505050506040513d601f19601f820116820180604052508101906120489190615141565b50600088815260146020526040902060058101549396509094509250508281106120995760405162461bcd60e51b8152602060048201526002602482015261433160f01b60448201526064016109e1565b600081815260186020526040902054806121e4576120b86001896155cd565b90505b856121e4576012546040516303906d2960e11b8152600481018390526000916001600160a01b031690630720da529060240160a06040518083038186803b15801561210557600080fd5b505afa158015612119573d6000803e3d6000fd5b505050506040513d601f19601f8201168201806040525081019061213d9190615141565b509350505050806000141561219357600082116121815760405162461bcd60e51b8152602060048201526002602482015261433360f01b60448201526064016109e1565b61218c6001836155cd565b91506121de565b828111156121c85760405162461bcd60e51b815260206004820152600260248201526110cd60f21b60448201526064016109e1565b6000838152601860205260409020829055600196505b506120bb565b505050505092915050565b8060005b8181101561105e5761222a84848381811061221e57634e487b7160e01b600052603260045260246000fd5b90506020020135610ddb565b806122348161565c565b9150506121f3565b6001600160a01b03918216600090815260056020908152604080832093909416825291909152205460ff1690565b33612273611832565b6001600160a01b0316146122995760405162461bcd60e51b81526004016109e19061541e565b6001600160a01b0381166122fe5760405162461bcd60e51b815260206004820152602660248201527f4f776e61626c653a206e6577206f776e657220697320746865207a65726f206160448201526564647265737360d01b60648201526084016109e1565b610cab8161301a565b6000612311612db3565b9050600080600080612323878761291f565b935093509350935060006040518060e001604052808360000151600381111561235c57634e487b7160e01b600052602160045260246000fd5b8152602001836020015181526020018681526020018481526020018581526020018360a0015181526020018360c0015160028111156123ab57634e487b7160e01b600052602160045260246000fd5b905290506123b98682612ef7565b6123c4868486612faf565b6123d18a8a8a898b612b6d565b5050505050949350505050565b60006001600160e01b03198216637965db0b60e01b148061089c575061089c82613937565b6000908152600260205260409020546001600160a01b0316151590565b600081815260046020526040902080546001600160a01b0319166001600160a01b038416908117909155819061245582611064565b6001600160a01b03167f8c5be1e5ebec7d5bd14f71427d1e84f3dd0314c0f7b2291e5b200ac8c7c3b92560405160405180910390a45050565b600061249982612403565b6124fa5760405162461bcd60e51b815260206004820152602c60248201527f4552433732313a206f70657261746f7220717565727920666f72206e6f6e657860448201526b34b9ba32b73a103a37b5b2b760a11b60648201526084016109e1565b600061250583611064565b9050806001600160a01b0316846001600160a01b031614806125405750836001600160a01b031661253584610979565b6001600160a01b0316145b806125505750612550818561223c565b949350505050565b826001600160a01b031661256b82611064565b6001600160a01b0316146125d35760405162461bcd60e51b815260206004820152602960248201527f4552433732313a207472616e73666572206f6620746f6b656e2074686174206960448201526839903737ba1037bbb760b91b60648201526084016109e1565b6001600160a01b0382166126355760405162461bcd60e51b8152602060048201526024808201527f4552433732313a207472616e7366657220746f20746865207a65726f206164646044820152637265737360e01b60648201526084016109e1565b612640838383613987565b61264b600082612420565b6001600160a01b03831660009081526003602052604081208054600192906126749084906155cd565b90915550506001600160a01b03821660009081526003602052604081208054600192906126a2908490615582565b909155505060008181526002602052604080822080546001600160a01b0319166001600160a01b03868116918217909255915184939187169160008051602061573f83398151915291a4505050565b6126fb828261188b565b610c0657612713816001600160a01b0316601461399f565b61271e83602061399f565b60405160200161272f9291906151ff565b60408051601f198184030181529082905262461bcd60e51b82526109e191600401615364565b61275f828261188b565b610c065760008281526008602090815260408083206001600160a01b03851684529091529020805460ff191660011790556127973390565b6001600160a01b0316816001600160a01b0316837f2f8788117e7eff1d82e926ec794901d17c78024a50270940304540a733656f0d60405160405180910390a45050565b6127e5828261188b565b15610c065760008281526008602090815260408083206001600160a01b0385168085529252808320805460ff1916905551339285917ff6391f5c32d9c69d2a47ea670b442974b53935d1edc7fd64eb21e047a839171b9190a45050565b6000828152600b602090815260408083206001600160a01b03871684526001019091529020546128a4576000828152600b602090815260408220805460018101825590835291200180546001600160a01b0319166001600160a01b0385161790555b6000828152600b602090815260408083206001600160a01b0387168085526001909101835292819020849055518381528492917f8a156bd946dc74ec284c5f4b365ce75ef2a5b9d9462b4cdb1d2400cabf136541910160405180910390a3505050565b6000818152600a6020526040812055610cab81613b80565b600080600061292c614a94565b61293586612a4c565b9050600061294287611ee4565b90508086836040015161295591906155ae565b61295f919061559a565b94508086836080015161297291906155ae565b61297c919061559a565b93508086836060015161298f91906155ae565b612999919061559a565b92506129d087838585606001516129b091906155cd565b8886604001516129c091906155cd565b888760800151610d4191906155cd565b601a54606082015160808301516040516357a5c96760e01b81529395506001600160a01b03909216926357a5c96792612a10928c9290919060040161556c565b600060405180830381600087803b158015612a2a57600080fd5b505af1158015612a3e573d6000803e3d6000fd5b505050505092959194509250565b612a54614a94565b60008281526014602052604090819020815160e081019092528054829060ff166003811115612a9357634e487b7160e01b600052602160045260246000fd5b6003811115612ab257634e487b7160e01b600052602160045260246000fd5b81526001820154602082015260028083015460408301526003830154606083015260048301546080830152600583015460a0830152600683015460c09092019160ff1690811115612b1357634e487b7160e01b600052602160045260246000fd5b6002811115612b3257634e487b7160e01b600052602160045260246000fd5b90525092915050565b612b43614a94565b5060608401839052604084018290526080840181905283612b648682612ef7565b95945050505050565b612b7683611064565b6001600160a01b0316856001600160a01b031614612bbb5760405162461bcd60e51b81526020600482015260026024820152614e3960f01b60448201526064016109e1565b6001600160a01b038416612bf75760405162461bcd60e51b815260206004820152600360248201526204e31360ec1b60448201526064016109e1565b336001600160a01b03861614801590612c175750612c15853361223c565b155b15612c62576000838152600b60209081526040808320338452600101909152902054612c449082906155cd565b6000848152600b602090815260408083203384526001019091529020555b6000838152600f6020526040902054612c7c9082906155cd565b6000848152600f6020526040902055612c9482612403565b612cb157612cac8483612ca686610b5d565b84613c12565b612d59565b836001600160a01b0316612cc483611064565b6001600160a01b031614612d005760405162461bcd60e51b81526020600482015260036024820152624e313160e81b60448201526064016109e1565b612d0982610b5d565b612d1284610b5d565b14612d2f5760405162461bcd60e51b81526004016109e190615402565b6000828152600f6020526040902054612d49908290615582565b6000838152600f60205260409020555b6000838152600a60205260408082205484835291819020919091555183906001600160a01b03808716919088169060008051602061575f83398151915290612da49087908790615356565b60405180910390a45050505050565b6013805460009182612dc48361565c565b91905055905090565b612dd7338461248e565b612e085760405162461bcd60e51b8152602060048201526002602482015261271960f11b60448201526064016109e1565b612e1182612403565b15612e435760405162461bcd60e51b81526020600482015260026024820152614e3360f01b60448201526064016109e1565b612e6282612e5085610b5d565b6000918252600a602052604090912055565b6000838152600f6020526040902054612e7c9082906155cd565b6000848152600f6020526040812091909155612e9784611064565b9050612ead8184612ea787610b5d565b85613c12565b83816001600160a01b03167ff66885c33d648fcd0d97e0f2a18e30102169c22763473af0fb716f11b4a17dd68585604051612ee9929190615356565b60405180910390a350505050565b60008281526014602052604090208151815483929190829060ff19166001836003811115612f3557634e487b7160e01b600052602160045260246000fd5b02179055506020820151816001015560408201518160020155606082015181600301556080820151816004015560a0820151816005015560c08201518160060160006101000a81548160ff02191690836002811115612fa457634e487b7160e01b600052602160045260246000fd5b021790555050505050565b601a5460405163edd0d42160e01b81526001600160a01b039091169063edd0d42190612fe39086908690869060040161556c565b600060405180830381600087803b158015612ffd57600080fd5b505af1158015613011573d6000803e3d6000fd5b50505050505050565b600680546001600160a01b038381166001600160a01b0319831681179093556040519116919082907f8be0079c531659141344cd1fd0a4f28419497f9722a3daafe3b4186f6b6457e090600090a35050565b600061012c8610156130a65760405162461bcd60e51b81526020600482015260036024820152624f323160e81b60448201526064016109e1565b6201518086101561316e5786156130e55760405162461bcd60e51b815260206004820152600360248201526227991960e91b60448201526064016109e1565b601260009054906101000a90046001600160a01b03166001600160a01b0316631acf55826040518163ffffffff1660e01b815260040160206040518083038186803b15801561313357600080fd5b505afa158015613147573d6000803e3d6000fd5b505050506040513d601f19601f8201168201806040525081019061316b9190614fc8565b96505b601a546040805163ab2f0e5160e01b815290516064926001600160a01b03169163ab2f0e51916004808301926020929190829003018186803b1580156131b357600080fd5b505afa1580156131c7573d6000803e3d6000fd5b505050506040513d601f19601f820116820180604052508101906131eb9190614fc8565b601b60009054906101000a90046001600160a01b03166001600160a01b03166371bf7e256040518163ffffffff1660e01b815260040160206040518083038186803b15801561323957600080fd5b505afa15801561324d573d6000803e3d6000fd5b505050506040513d601f19601f820116820180604052508101906132719190614fc8565b61327b91906155ae565b613285919061559a565b4360009081526019602090815260408083203384529091529020546132ab908a90615582565b106132de5760405162461bcd60e51b81526020600482015260036024820152624f323360e81b60448201526064016109e1565b436000908152601960209081526040808320338452909152812080548a9290613308908490615582565b9091555060009050808061331f898c8c8b8b611165565b9194509250905060056133328a8d6155ae565b61333c91906155ae565b61334a846301e133806155ae565b6133559060646155ae565b116133875760405162461bcd60e51b8152602060048201526002602482015261279960f11b60448201526064016109e1565b6010546040516323b872dd60e01b8152336004820152306024820152604481018590526000916001600160a01b0316906323b872dd90606401602060405180830381600087803b1580156133da57600080fd5b505af11580156133ee573d6000803e3d6000fd5b505050506040513d601f19601f820116820180604052508101906134129190614f38565b9050806134465760405162461bcd60e51b81526020600482015260026024820152614f3360f01b60448201526064016109e1565b60018915158114801561345b57506001891515145b8061346d57508915801561346d575088155b15613476575060025b6040805160e0810190915260009080600181526020018e81526020018f81526020018f81526020018581526020018d426134b09190615582565b81526020018360028111156134d557634e487b7160e01b600052602160045260246000fd5b905290506134e1612db3565b6040805180820182528d151581528c15156020808301918252600085815260179091529290922090518154925161ffff1990931690151561ff0019161761010092151592909202919091179055965061353a8782612ef7565b3360008181526015602090815260408083208054600181018255818552838520018c9055848452546016835292209190915582015160a083015161358d928a92909161358891849188613c9c565b613dda565b6135978789613dfd565b60006135a3868b613e07565b90506135b88883606001518460800151612faf565b336001600160a01b0316887f89f823a0225c73a75066e963ce2eea7708b57680ec86102773dbd244f5412892838a8d6040516135f69392919061554d565b60405180910390a350505050505050979650505050505050565b600061089c825490565b613625848484612558565b613631848484846142c8565b61105e5760405162461bcd60e51b81526004016109e190615393565b61365633611ca7565b6136875760405162461bcd60e51b81526020600482015260026024820152614e3560f01b60448201526064016109e1565b808214156136bc5760405162461bcd60e51b8152602060048201526002602482015261271b60f11b60448201526064016109e1565b6136c581610b5d565b6136ce83610b5d565b146136eb5760405162461bcd60e51b81526004016109e190615402565b60006136f683611064565b905061370182611064565b6001600160a01b0316816001600160a01b0316146137465760405162461bcd60e51b815260206004820152600260248201526109c760f31b60448201526064016109e1565b6000838152600f6020526040808220548483529120546137669082615582565b6000848152600f602052604090205561377e84612907565b8284836001600160a01b03167fb3ce851d16b3bbec3774d5631a3893dfa2a80e067cfad265dd594402ac3d6096846040516137bb91815260200190565b60405180910390a450505050565b60606137d482612403565b61383a5760405162461bcd60e51b815260206004820152603160248201527f45524337323155524953746f726167653a2055524920717565727920666f72206044820152703737b732bc34b9ba32b73a103a37b5b2b760791b60648201526084016109e1565b6000828152600960205260408120805461385390615627565b80601f016020809104026020016040519081016040528092919081815260200182805461387f90615627565b80156138cc5780601f106138a1576101008083540402835291602001916138cc565b820191906000526020600020905b8154815290600101906020018083116138af57829003601f168201915b5050505050905060006138dd6143d5565b90508051600014156138f0575092915050565b81511561392257808260405160200161390a9291906151d0565b60405160208183030381529060405292505050919050565b612550846143f5565b6000611fa383836144bf565b60006001600160e01b031982166380ac58cd60e01b148061396857506001600160e01b03198216635b5e139f60e01b145b8061089c57506301ffc9a760e01b6001600160e01b031983161461089c565b6001600160a01b03831615610b1257610b12816144f7565b606060006139ae8360026155ae565b6139b9906002615582565b6001600160401b038111156139de57634e487b7160e01b600052604160045260246000fd5b6040519080825280601f01601f191660200182016040528015613a08576020820181803683370190505b509050600360fc1b81600081518110613a3157634e487b7160e01b600052603260045260246000fd5b60200101906001600160f81b031916908160001a905350600f60fb1b81600181518110613a6e57634e487b7160e01b600052603260045260246000fd5b60200101906001600160f81b031916908160001a9053506000613a928460026155ae565b613a9d906001615582565b90505b6001811115613b31576f181899199a1a9b1b9c1cb0b131b232b360811b85600f1660108110613adf57634e487b7160e01b600052603260045260246000fd5b1a60f81b828281518110613b0357634e487b7160e01b600052603260045260246000fd5b60200101906001600160f81b031916908160001a90535060049490941c93613b2a81615610565b9050613aa0565b508315611fa35760405162461bcd60e51b815260206004820181905260248201527f537472696e67733a20686578206c656e67746820696e73756666696369656e7460448201526064016109e1565b6000613b8b82611064565b90506000613b9883610b5d565b6000848152600f6020908152604080832054848452600c90925290912091925090613bc390856145ab565b506000848152600f6020526040812055613bdc846145b7565b8360006001600160a01b0316846001600160a01b031660008051602061575f8339815191526000856040516137bb929190615356565b613c1b83612403565b613c4357613c29848461464c565b6000828152600c60205260409020613c419084614778565b505b6000838152600f6020526040902054613c5d908290615582565b6000848152600f60205260408082209290925590516001600160a01b03861690829060008051602061575f833981519152906137bb9088908790615356565b600083838387604051602001613cb59493929190615523565b60408051808303601f1901815291815281516020928301206000818152601c909352912060020154909150610100900460ff1615613d1b5760405162461bcd60e51b8152602060048201526003602482015262138c4d60ea1b60448201526064016109e1565b6040518060800160405280858152602001848152602001836002811115613d5257634e487b7160e01b600052602160045260246000fd5b8152600160209182018190526000848152601c8352604090819020845181559284015183830155830151600280840180549293909260ff1916918490811115613dab57634e487b7160e01b600052602160045260246000fd5b021790555060609190910151600290910180549115156101000261ff0019909216919091179055949350505050565b6000838152600a60205260409020819055600d54610b1290839085908490613c12565b610c068282614784565b60006064601b60009054906101000a90046001600160a01b03166001600160a01b031663ca535c3b6040518163ffffffff1660e01b815260040160206040518083038186803b158015613e5957600080fd5b505afa158015613e6d573d6000803e3d6000fd5b505050506040513d601f19601f82011682018060405250810190613e919190614fc8565b613e9b90856155ae565b613ea5919061559a565b90508015613fa657601054601b5460408051630605cc7760e21b815290516001600160a01b039384169363a9059cbb93169163181731dc916004808301926020929190829003018186803b158015613efc57600080fd5b505afa158015613f10573d6000803e3d6000fd5b505050506040513d601f19601f82011682018060405250810190613f349190614c7f565b836040518363ffffffff1660e01b8152600401613f529291906152ab565b602060405180830381600087803b158015613f6c57600080fd5b505af1158015613f80573d6000803e3d6000fd5b505050506040513d601f19601f82011682018060405250810190613fa49190614f38565b505b6000613fb282856155cd565b905080156142c157601b5460408051634905129f60e11b815290516000926001600160a01b03169163920a253e916004808301926020929190829003018186803b158015613fff57600080fd5b505afa158015614013573d6000803e3d6000fd5b505050506040513d601f19601f820116820180604052508101906140379190614fc8565b11801561405d5750614047611832565b6001600160a01b0316836001600160a01b031614155b801561407257506001600160a01b0383163314155b156141ec5760006064601b60009054906101000a90046001600160a01b03166001600160a01b031663920a253e6040518163ffffffff1660e01b815260040160206040518083038186803b1580156140c957600080fd5b505afa1580156140dd573d6000803e3d6000fd5b505050506040513d601f19601f820116820180604052508101906141019190614fc8565b61410b90846155ae565b614115919061559a565b905061412181836155cd565b60105460405163a9059cbb60e01b81529193506001600160a01b03169063a9059cbb9061415490879085906004016152ab565b602060405180830381600087803b15801561416e57600080fd5b505af1158015614182573d6000803e3d6000fd5b505050506040513d601f19601f820116820180604052508101906141a69190614f38565b50836001600160a01b03167f2fc41b7d7df3272c17d9b581fcf235307bc027599c6ed68442c4100bd3a84198826040516141e291815260200190565b60405180910390a2505b6010546001600160a01b031663a9059cbb614205611832565b836040518363ffffffff1660e01b81526004016142239291906152ab565b602060405180830381600087803b15801561423d57600080fd5b505af1158015614251573d6000803e3d6000fd5b505050506040513d601f19601f820116820180604052508101906142759190614f38565b5061427e611832565b6001600160a01b03167ff0f0487d8990103573e0e5cf4e87e101e2a1ba84c733c556b7a5807e570e5d4c826040516142b891815260200190565b60405180910390a25b5092915050565b60006001600160a01b0384163b156143ca57604051630a85bd0160e11b81526001600160a01b0385169063150b7a029061430c90339089908890889060040161526e565b602060405180830381600087803b15801561432657600080fd5b505af1925050508015614356575060408051601f3d908101601f1916820190925261435391810190614fac565b60015b6143b0573d808015614384576040519150601f19603f3d011682016040523d82523d6000602084013e614389565b606091505b5080516143a85760405162461bcd60e51b81526004016109e190615393565b805181602001fd5b6001600160e01b031916630a85bd0160e11b149050612550565b506001949350505050565b606060405180606001604052806022815260200161571d60229139905090565b606061440082612403565b6144645760405162461bcd60e51b815260206004820152602f60248201527f4552433732314d657461646174613a2055524920717565727920666f72206e6f60448201526e3732bc34b9ba32b73a103a37b5b2b760891b60648201526084016109e1565b600061446e6143d5565b9050600081511161448e5760405180602001604052806000815250611fa3565b806144988461480f565b6040516020016144a99291906151d0565b6040516020818303038152906040529392505050565b60008260000182815481106144e457634e487b7160e01b600052603260045260246000fd5b9060005260206000200154905092915050565b6000818152600b60205260408120905b8154811015610b125781600101600083600001838154811061453957634e487b7160e01b600052603260045260246000fd5b60009182526020808320909101546001600160a01b03168352820192909252604001812055815482908290811061458057634e487b7160e01b600052603260045260246000fd5b600091825260209091200180546001600160a01b0319169055806145a38161565c565b915050614507565b6000611fa38383614928565b60006145c282611064565b90506145d081600084613987565b6145db600083612420565b6001600160a01b03811660009081526003602052604081208054600192906146049084906155cd565b909155505060008281526002602052604080822080546001600160a01b0319169055518391906001600160a01b0384169060008051602061573f833981519152908390a45050565b6001600160a01b0382166146a25760405162461bcd60e51b815260206004820181905260248201527f4552433732313a206d696e7420746f20746865207a65726f206164647265737360448201526064016109e1565b6146ab81612403565b156146f75760405162461bcd60e51b815260206004820152601c60248201527b115490cdcc8c4e881d1bdad95b88185b1c9958591e481b5a5b9d195960221b60448201526064016109e1565b61470360008383613987565b6001600160a01b038216600090815260036020526040812080546001929061472c908490615582565b909155505060008181526002602052604080822080546001600160a01b0319166001600160a01b038616908117909155905183929060008051602061573f833981519152908290a45050565b6000611fa38383614a45565b61478d82612403565b6147f05760405162461bcd60e51b815260206004820152602e60248201527f45524337323155524953746f726167653a2055524920736574206f66206e6f6e60448201526d32bc34b9ba32b73a103a37b5b2b760911b60648201526084016109e1565b60008281526009602090815260409091208251610b1292840190614af0565b6060816148335750506040805180820190915260018152600360fc1b602082015290565b8160005b811561485d57806148478161565c565b91506148569050600a8361559a565b9150614837565b6000816001600160401b0381111561488557634e487b7160e01b600052604160045260246000fd5b6040519080825280601f01601f1916602001820160405280156148af576020820181803683370190505b5090505b8415612550576148c46001836155cd565b91506148d1600a86615677565b6148dc906030615582565b60f81b8183815181106148ff57634e487b7160e01b600052603260045260246000fd5b60200101906001600160f81b031916908160001a905350614921600a8661559a565b94506148b3565b60008181526001830160205260408120548015614a3b57600061494c6001836155cd565b8554909150600090614960906001906155cd565b90508181146149e157600086600001828154811061498e57634e487b7160e01b600052603260045260246000fd5b90600052602060002001549050808760000184815481106149bf57634e487b7160e01b600052603260045260246000fd5b6000918252602080832090910192909255918252600188019052604090208390555b8554869080614a0057634e487b7160e01b600052603160045260246000fd5b60019003818190600052602060002001600090559055856001016000868152602001908152602001600020600090556001935050505061089c565b600091505061089c565b6000818152600183016020526040812054614a8c5750815460018181018455600084815260208082209093018490558454848252828601909352604090209190915561089c565b50600061089c565b6040805160e081019091528060008152602001600081526020016000815260200160008152602001600081526020016000815260200160006002811115614aeb57634e487b7160e01b600052602160045260246000fd5b905290565b828054614afc90615627565b90600052602060002090601f016020900481019282614b1e5760008555614b64565b82601f10614b3757805160ff1916838001178555614b64565b82800160010185558215614b64579182015b82811115614b64578251825591602001919060010190614b49565b50614b70929150614b74565b5090565b5b80821115614b705760008155600101614b75565b60006001600160401b0380841115614ba357614ba36156cd565b604051601f8501601f19908116603f01168101908282118183101715614bcb57614bcb6156cd565b81604052809350858152868686011115614be457600080fd5b858560208301376000602087830101525050509392505050565b60008083601f840112614c0f578182fd5b5081356001600160401b03811115614c25578182fd5b6020830191508360208260051b8501011115614c4057600080fd5b9250929050565b80516001600160501b0381168114614c5e57600080fd5b919050565b600060208284031215614c74578081fd5b8135611fa3816156e3565b600060208284031215614c90578081fd5b8151611fa3816156e3565b60008060408385031215614cad578081fd5b8235614cb8816156e3565b91506020830135614cc8816156e3565b809150509250929050565b600080600060608486031215614ce7578081fd5b8335614cf2816156e3565b92506020840135614d02816156e3565b929592945050506040919091013590565b60008060008060808587031215614d28578081fd5b8435614d33816156e3565b93506020850135614d43816156e3565b92506040850135915060608501356001600160401b03811115614d64578182fd5b8501601f81018713614d74578182fd5b614d8387823560208401614b89565b91505092959194509250565b60008060008060808587031215614da4578384fd5b8435614daf816156e3565b93506020850135614dbf816156e3565b93969395505050506040820135916060013590565b600080600080600060a08688031215614deb578081fd5b8535614df6816156e3565b94506020860135614e06816156e3565b94979496505050506040830135926060810135926080909101359150565b60008060408385031215614e36578182fd5b8235614e41816156e3565b91506020830135614cc8816156f8565b60008060408385031215614e63578182fd5b8235614e6e816156e3565b946020939093013593505050565b600080600060608486031215614e90578081fd5b8335614e9b816156e3565b95602085013595506040909401359392505050565b60008060208385031215614ec2578182fd5b82356001600160401b03811115614ed7578283fd5b614ee385828601614bfe565b90969095509350505050565b600080600060408486031215614f03578081fd5b83356001600160401b03811115614f18578182fd5b614f2486828701614bfe565b909790965060209590950135949350505050565b600060208284031215614f49578081fd5b8151611fa3816156f8565b600060208284031215614f65578081fd5b5035919050565b60008060408385031215614f7e578182fd5b823591506020830135614cc8816156e3565b600060208284031215614fa1578081fd5b8135611fa381615706565b600060208284031215614fbd578081fd5b8151611fa381615706565b600060208284031215614fd9578081fd5b5051919050565b600080600060408486031215614ff4578081fd5b8335925060208401356001600160401b03811115615010578182fd5b61501c86828701614bfe565b9497909650939450505050565b6000806040838503121561503b578182fd5b50508035926020909101359150565b600080600080600060a08688031215615061578283fd5b8535945060208601359350604086013592506060860135615081816156f8565b91506080860135615091816156f8565b809150509295509295909350565b600080600080600080600060e0888a0312156150b9578485fd5b87359650602088013595506040880135945060608801356150d9816156f8565b935060808801356150e9816156f8565b925060a08801356150f9816156e3565b915060c08801356001600160401b03811115615113578182fd5b8801601f81018a13615123578182fd5b6151328a823560208401614b89565b91505092959891949750929550565b600080600080600060a08688031215615158578283fd5b61516186614c47565b945060208601519350604086015192506060860151915061518460808701614c47565b90509295509295909350565b600081518084526151a88160208601602086016155e4565b601f01601f19169290920160200192915050565b600381106151cc576151cc6156b7565b9052565b600083516151e28184602088016155e4565b8351908301906151f68183602088016155e4565b01949350505050565b76020b1b1b2b9b9a1b7b73a3937b61d1030b1b1b7bab73a1604d1b8152600083516152318160178501602088016155e4565b7001034b99036b4b9b9b4b733903937b6329607d1b60179184019182015283516152628160288401602088016155e4565b01602801949350505050565b6001600160a01b03858116825284166020820152604081018390526080606082018190526000906152a190830184615190565b9695505050505050565b6001600160a01b03929092168252602082015260400190565b6020808252825182820181905260009190848201906040850190845b818110156152fc578351835292840192918401916001016152e0565b50909695505050505050565b60e081016004891061531c5761531c6156b7565b8882528760208301528660408301528560608301528460808301528360a083015261534a60c08301846151bc565b98975050505050505050565b918252602082015260400190565b602081526000611fa36020830184615190565b6020808252600290820152614f3960f01b604082015260600190565b60208082526032908201527f4552433732313a207472616e7366657220746f206e6f6e20455243373231526560408201527131b2b4bb32b91034b6b83632b6b2b73a32b960711b606082015260800190565b60208082526003908201526204f32360ec1b604082015260600190565b6020808252600290820152614e3760f01b604082015260600190565b6020808252818101527f4f776e61626c653a2063616c6c6572206973206e6f7420746865206f776e6572604082015260600190565b60208082526031908201527f4552433732313a207472616e736665722063616c6c6572206973206e6f74206f6040820152701ddb995c881b9bdc88185c1c1c9bdd9959607a1b606082015260800190565b6020808252601f908201527f5265656e7472616e637947756172643a207265656e7472616e742063616c6c00604082015260600190565b60208082526002908201526113cd60f21b604082015260600190565b848152602081018490526080810161551260408301856151bc565b821515606083015295945050505050565b848152602081018490526080810161553e60408301856151bc565b82606083015295945050505050565b838152826020820152606060408201526000612b646060830184615190565b9283526020830191909152604082015260600190565b600082198211156155955761559561568b565b500190565b6000826155a9576155a96156a1565b500490565b60008160001904831182151516156155c8576155c861568b565b500290565b6000828210156155df576155df61568b565b500390565b60005b838110156155ff5781810151838201526020016155e7565b8381111561105e5750506000910152565b60008161561f5761561f61568b565b506000190190565b600181811c9082168061563b57607f821691505b6020821081141561097357634e487b7160e01b600052602260045260246000fd5b60006000198214156156705761567061568b565b5060010190565b600082615686576156866156a1565b500690565b634e487b7160e01b600052601160045260246000fd5b634e487b7160e01b600052601260045260246000fd5b634e487b7160e01b600052602160045260246000fd5b634e487b7160e01b600052604160045260246000fd5b6001600160a01b0381168114610cab57600080fd5b8015158114610cab57600080fd5b6001600160e01b031981168114610cab57600080fdfe68747470733a2f2f676174657761792e70696e6174612e636c6f75642f697066732fddf252ad1be2c89b69c2b068fc378daa952ba7f163c4a11628f55a4df523b3ef823a343d1c899e61a4db12247636a6882bf1fefae78bef39170f8d0f5b53e456a2646970667358221220350fe92efa833220d8fdaab5e3f71537e9b32380ae44817e226be864e77780ee64736f6c63430008040033",
  "language": "Solidity",
  "natspec": {
    "author": "Heisenberg",
    "kind": "dev",
    "methods": {
      "approve(address,uint256)": {
        "details": "See {IERC721-approve}."
      },
      "approvePoolToTransferTokenX()": {
        "notice": "Call this to set the max approval for tokenX transfers from the options to pool"
      },
      "balanceOf(address)": {
        "details": "See {IERC721-balanceOf}."
      },
      "create(uint256,uint256,uint256,bool,bool,address,string)": {
        "notice": "Creates a new option",
        "params": {
          "amount": "Option amount in tokenX",
          "referrer": "Referrer address"
        },
        "returns": {
          "optionID": "Created option's ID"
        }
      },
      "exercise(uint256)": {
        "notice": "Exercises an option if it was ITM at the time of expiry",
        "params": {
          "optionID": "ID of your option"
        },
        "returns": {
          "profit": "Profit sent to the user"
        }
      },
      "fees(uint256,uint256,uint256,bool,bool)": {
        "notice": "Used for getting the option's price using blackscholes",
        "params": {
          "amount": "Option amount",
          "isAbove": "whether the price will stay above this strike or not",
          "isYes": "whether the option isAbove or not",
          "period": "Option period in seconds",
          "strike": "Strike price of the option"
        },
        "returns": {
          "premium": "Amount that covers the price difference in the ITM options",
          "settlementFee": "Amount to be distributed to the Buffer token holders",
          "total": "Total price to be paid"
        }
      },
      "getApproved(uint256)": {
        "details": "See {IERC721-getApproved}."
      },
      "getRoleAdmin(bytes32)": {
        "details": "Returns the admin role that controls `role`. See {grantRole} and {revokeRole}. To change a role's admin, use {_setRoleAdmin}."
      },
      "grantRole(bytes32,address)": {
        "details": "Grants `role` to `account`. If `account` had not been already granted `role`, emits a {RoleGranted} event. Requirements: - the caller must have ``role``'s admin role."
      },
      "hasRole(bytes32,address)": {
        "details": "Returns `true` if `account` has been granted `role`."
      },
      "isApprovedForAll(address,address)": {
        "details": "See {IERC721-isApprovedForAll}."
      },
      "merge(uint256[],uint256)": {
        "notice": "Merges the options",
        "params": {
          "optionIDs": "An array of the optionsIds to be merged",
          "targetOptionID": "OptionId to be merged into"
        }
      },
      "name()": {
        "details": "See {IERC721Metadata-name}."
      },
      "owner()": {
        "details": "Returns the address of the current owner."
      },
      "ownerOf(uint256)": {
        "details": "See {IERC721-ownerOf}."
      },
      "quickCreate(uint256,uint256,uint256,bool,bool,address,string)": {
        "notice": "Creates a new option",
        "params": {
          "amount": "Option amount in tokenX",
          "referrer": "Referrer address"
        },
        "returns": {
          "optionID": "Created option's ID"
        }
      },
      "renounceOwnership()": {
        "details": "Leaves the contract without owner. It will not be possible to call `onlyOwner` functions anymore. Can only be called by the current owner. NOTE: Renouncing ownership will leave the contract without an owner, thereby removing any functionality that is only available to the owner."
      },
      "renounceRole(bytes32,address)": {
        "details": "Revokes `role` from the calling account. Roles are often managed via {grantRole} and {revokeRole}: this function's purpose is to provide a mechanism for accounts to lose their privileges if they are compromised (such as when a trusted device is misplaced). If the calling account had been granted `role`, emits a {RoleRevoked} event. Requirements: - the caller must be `account`."
      },
      "revokeRole(bytes32,address)": {
        "details": "Revokes `role` from `account`. If `account` had been granted `role`, emits a {RoleRevoked} event. Requirements: - the caller must have ``role``'s admin role."
      },
      "safeTransferFrom(address,address,uint256)": {
        "details": "See {IERC721-safeTransferFrom}."
      },
      "safeTransferFrom(address,address,uint256,bytes)": {
        "details": "See {IERC721-safeTransferFrom}."
      },
      "setApprovalForAll(address,bool)": {
        "details": "See {IERC721-setApprovalForAll}."
      },
      "setRoundIDForExpiry(uint256,uint256)": {
        "details": "a roundId must be provided to confirm price validity, which is the first Chainlink price provided after the expiryTimestamp",
        "notice": "Sets the expiry price in the oracle",
        "params": {
          "roundId": "the first roundId after expiryTimestamp"
        }
      },
      "split(uint256,uint256[])": {
        "notice": "Splits the option",
        "params": {
          "optionID": "OptionId to be splitted",
          "splitUnits_": "Units to be splitted into"
        },
        "returns": {
          "newOptionIDs": "An array of the splitted options"
        }
      },
      "symbol()": {
        "details": "See {IERC721Metadata-symbol}."
      },
      "tokenURI(uint256)": {
        "details": "Template code provided by OpenZepplin Code Wizard"
      },
      "transferFrom(address,address,uint256)": {
        "details": "See {IERC721-transferFrom}."
      },
      "transferFrom(address,address,uint256,uint256)": {
        "notice": "Transfer part of units of a option to target address.",
        "params": {
          "from_": "Address of the option sender",
          "optionID": "Id of the option to transfer",
          "to_": "Address of the option recipient",
          "transferUnits_": "Amount of units to transfer"
        }
      },
      "transferFrom(address,address,uint256,uint256,uint256)": {
        "notice": "Transfer part of units of a option to another option.",
        "params": {
          "from_": "Address of the option sender",
          "optionID": "Id of the option to transfer",
          "targetOptionID": "Id of the option to receive",
          "to_": "Address of the option recipient",
          "transferUnits_": "Amount of units to transfer"
        }
      },
      "transferOwnership(address)": {
        "details": "Transfers ownership of the contract to a new account (`newOwner`). Can only be called by the current owner."
      },
      "unlock(uint256)": {
        "notice": "Unlocks the locked funds if the option was OTM at the time of expiry otherwise exercises it",
        "params": {
          "optionID": "ID of the option"
        }
      },
      "unlockAll(uint256[])": {
        "notice": "Unlocks an array of options",
        "params": {
          "optionIDs": "array of options"
        }
      }
    },
    "notice": "Buffer TokenX Options Contract",
    "title": "Buffer TokenX Bidirectional (Call and Put) Options",
    "version": 1
  },
  "opcodes": "PUSH1 0x80 PUSH1 0x40 MSTORE CALLVALUE DUP1 ISZERO PUSH2 0x10 JUMPI PUSH1 0x0 DUP1 REVERT JUMPDEST POP PUSH1 0x4 CALLDATASIZE LT PUSH2 0x2BF JUMPI PUSH1 0x0 CALLDATALOAD PUSH1 0xE0 SHR DUP1 PUSH4 0x1FFC9A7 EQ PUSH2 0x2C4 JUMPI DUP1 PUSH4 0x5271A2A EQ PUSH2 0x2EC JUMPI DUP1 PUSH4 0x6517A29 EQ PUSH2 0x301 JUMPI DUP1 PUSH4 0x6FDDE03 EQ PUSH2 0x318 JUMPI DUP1 PUSH4 0x76D948C EQ PUSH2 0x32D JUMPI DUP1 PUSH4 0x81812FC EQ PUSH2 0x340 JUMPI DUP1 PUSH4 0x95EA7B3 EQ PUSH2 0x36B JUMPI DUP1 PUSH4 0x16DC165B EQ PUSH2 0x380 JUMPI DUP1 PUSH4 0x16F0115B EQ PUSH2 0x393 JUMPI DUP1 PUSH4 0x23B872DD EQ PUSH2 0x3A6 JUMPI DUP1 PUSH4 0x248A9CA3 EQ PUSH2 0x3B9 JUMPI DUP1 PUSH4 0x263F3E7E EQ PUSH2 0x3CC JUMPI DUP1 PUSH4 0x2F2FF15D EQ PUSH2 0x3DF JUMPI DUP1 PUSH4 0x34C01793 EQ PUSH2 0x3F2 JUMPI DUP1 PUSH4 0x36568ABE EQ PUSH2 0x41D JUMPI DUP1 PUSH4 0x409E2205 EQ PUSH2 0x430 JUMPI DUP1 PUSH4 0x426A8493 EQ PUSH2 0x493 JUMPI DUP1 PUSH4 0x42842E0E EQ PUSH2 0x4A6 JUMPI DUP1 PUSH4 0x42966C68 EQ PUSH2 0x4B9 JUMPI DUP1 PUSH4 0x4AED53C2 EQ PUSH2 0x4CC JUMPI DUP1 PUSH4 0x4F558E79 EQ PUSH2 0x4DF JUMPI DUP1 PUSH4 0x6198E339 EQ PUSH2 0x4F2 JUMPI DUP1 PUSH4 0x6352211E EQ PUSH2 0x505 JUMPI DUP1 PUSH4 0x645734E6 EQ PUSH2 0x518 JUMPI DUP1 PUSH4 0x67807F7D EQ PUSH2 0x520 JUMPI DUP1 PUSH4 0x689AB5AC EQ PUSH2 0x542 JUMPI DUP1 PUSH4 0x69C67247 EQ PUSH2 0x585 JUMPI DUP1 PUSH4 0x70A08231 EQ PUSH2 0x5A5 JUMPI DUP1 PUSH4 0x715018A6 EQ PUSH2 0x5B8 JUMPI DUP1 PUSH4 0x75794A3C EQ PUSH2 0x5C0 JUMPI DUP1 PUSH4 0x75A74D84 EQ PUSH2 0x5C9 JUMPI DUP1 PUSH4 0x78C533CE EQ PUSH2 0x5E9 JUMPI DUP1 PUSH4 0x79502C55 EQ PUSH2 0x609 JUMPI DUP1 PUSH4 0x841EDC0E EQ PUSH2 0x61C JUMPI DUP1 PUSH4 0x8A584118 EQ PUSH2 0x63C JUMPI DUP1 PUSH4 0x8DA5CB5B EQ PUSH2 0x687 JUMPI DUP1 PUSH4 0x8DDAA267 EQ PUSH2 0x68F JUMPI DUP1 PUSH4 0x91D14854 EQ PUSH2 0x6A2 JUMPI DUP1 PUSH4 0x95D89B41 EQ PUSH2 0x6B5 JUMPI DUP1 PUSH4 0xA217FDDF EQ PUSH2 0x6BD JUMPI DUP1 PUSH4 0xA22CB465 EQ PUSH2 0x6C5 JUMPI DUP1 PUSH4 0xA6D14C02 EQ PUSH2 0x6D8 JUMPI DUP1 PUSH4 0xA8800425 EQ PUSH2 0x6E0 JUMPI DUP1 PUSH4 0xB07F0A41 EQ PUSH2 0x6F3 JUMPI DUP1 PUSH4 0xB888879E EQ PUSH2 0x706 JUMPI DUP1 PUSH4 0xB88D4FDE EQ PUSH2 0x719 JUMPI DUP1 PUSH4 0xBBE33EA5 EQ PUSH2 0x72C JUMPI DUP1 PUSH4 0xBECEF607 EQ PUSH2 0x73F JUMPI DUP1 PUSH4 0xC0D720BB EQ PUSH2 0x752 JUMPI DUP1 PUSH4 0xC87B56DD EQ PUSH2 0x765 JUMPI DUP1 PUSH4 0xC962CA12 EQ PUSH2 0x778 JUMPI DUP1 PUSH4 0xD149CC30 EQ PUSH2 0x78B JUMPI DUP1 PUSH4 0xD547741F EQ PUSH2 0x79E JUMPI DUP1 PUSH4 0xD5A0E673 EQ PUSH2 0x7B1 JUMPI DUP1 PUSH4 0xD67A6B70 EQ PUSH2 0x7D1 JUMPI DUP1 PUSH4 0xDBA34E97 EQ PUSH2 0x7E4 JUMPI DUP1 PUSH4 0xE342B598 EQ PUSH2 0x80B JUMPI DUP1 PUSH4 0xE345E0BC EQ PUSH2 0x81E JUMPI DUP1 PUSH4 0xE985E9C5 EQ PUSH2 0x858 JUMPI DUP1 PUSH4 0xF2FDE38B EQ PUSH2 0x86B JUMPI DUP1 PUSH4 0xFE99049A EQ PUSH2 0x87E JUMPI JUMPDEST PUSH1 0x0 DUP1 REVERT JUMPDEST PUSH2 0x2D7 PUSH2 0x2D2 CALLDATASIZE PUSH1 0x4 PUSH2 0x4F90 JUMP JUMPDEST PUSH2 0x891 JUMP JUMPDEST PUSH1 0x40 MLOAD SWAP1 ISZERO ISZERO DUP2 MSTORE PUSH1 0x20 ADD JUMPDEST PUSH1 0x40 MLOAD DUP1 SWAP2 SUB SWAP1 RETURN JUMPDEST PUSH1 0xE SLOAD PUSH1 0x40 MLOAD PUSH1 0xFF SWAP1 SWAP2 AND DUP2 MSTORE PUSH1 0x20 ADD PUSH2 0x2E3 JUMP JUMPDEST PUSH2 0x30A PUSH1 0xD SLOAD DUP2 JUMP JUMPDEST PUSH1 0x40 MLOAD SWAP1 DUP2 MSTORE PUSH1 0x20 ADD PUSH2 0x2E3 JUMP JUMPDEST PUSH2 0x320 PUSH2 0x8A2 JUMP JUMPDEST PUSH1 0x40 MLOAD PUSH2 0x2E3 SWAP2 SWAP1 PUSH2 0x5364 JUMP JUMPDEST PUSH2 0x30A PUSH2 0x33B CALLDATASIZE PUSH1 0x4 PUSH2 0x4F54 JUMP JUMPDEST PUSH2 0x934 JUMP JUMPDEST PUSH2 0x353 PUSH2 0x34E CALLDATASIZE PUSH1 0x4 PUSH2 0x4F54 JUMP JUMPDEST PUSH2 0x979 JUMP JUMPDEST PUSH1 0x40 MLOAD PUSH1 0x1 PUSH1 0x1 PUSH1 0xA0 SHL SUB SWAP1 SWAP2 AND DUP2 MSTORE PUSH1 0x20 ADD PUSH2 0x2E3 JUMP JUMPDEST PUSH2 0x37E PUSH2 0x379 CALLDATASIZE PUSH1 0x4 PUSH2 0x4E51 JUMP JUMPDEST PUSH2 0xA06 JUMP JUMPDEST STOP JUMPDEST PUSH1 0x10 SLOAD PUSH2 0x353 SWAP1 PUSH1 0x1 PUSH1 0x1 PUSH1 0xA0 SHL SUB AND DUP2 JUMP JUMPDEST PUSH1 0x1A SLOAD PUSH2 0x353 SWAP1 PUSH1 0x1 PUSH1 0x1 PUSH1 0xA0 SHL SUB AND DUP2 JUMP JUMPDEST PUSH2 0x37E PUSH2 0x3B4 CALLDATASIZE PUSH1 0x4 PUSH2 0x4CD3 JUMP JUMPDEST PUSH2 0xB17 JUMP JUMPDEST PUSH2 0x30A PUSH2 0x3C7 CALLDATASIZE PUSH1 0x4 PUSH2 0x4F54 JUMP JUMPDEST PUSH2 0xB48 JUMP JUMPDEST PUSH2 0x30A PUSH2 0x3DA CALLDATASIZE PUSH1 0x4 PUSH2 0x4F54 JUMP JUMPDEST PUSH2 0xB5D JUMP JUMPDEST PUSH2 0x37E PUSH2 0x3ED CALLDATASIZE PUSH1 0x4 PUSH2 0x4F6C JUMP JUMPDEST PUSH2 0xB6F JUMP JUMPDEST PUSH2 0x30A PUSH2 0x400 CALLDATASIZE PUSH1 0x4 PUSH2 0x4F6C JUMP JUMPDEST PUSH1 0x19 PUSH1 0x20 SWAP1 DUP2 MSTORE PUSH1 0x0 SWAP3 DUP4 MSTORE PUSH1 0x40 DUP1 DUP5 KECCAK256 SWAP1 SWAP2 MSTORE SWAP1 DUP3 MSTORE SWAP1 KECCAK256 SLOAD DUP2 JUMP JUMPDEST PUSH2 0x37E PUSH2 0x42B CALLDATASIZE PUSH1 0x4 PUSH2 0x4F6C JUMP JUMPDEST PUSH2 0xB8C JUMP JUMPDEST PUSH2 0x480 PUSH2 0x43E CALLDATASIZE PUSH1 0x4 PUSH2 0x4F54 JUMP JUMPDEST PUSH1 0x14 PUSH1 0x20 MSTORE PUSH1 0x0 SWAP1 DUP2 MSTORE PUSH1 0x40 SWAP1 KECCAK256 DUP1 SLOAD PUSH1 0x1 DUP3 ADD SLOAD PUSH1 0x2 DUP4 ADD SLOAD PUSH1 0x3 DUP5 ADD SLOAD PUSH1 0x4 DUP6 ADD SLOAD PUSH1 0x5 DUP7 ADD SLOAD PUSH1 0x6 SWAP1 SWAP7 ADD SLOAD PUSH1 0xFF SWAP6 DUP7 AND SWAP7 SWAP5 SWAP6 SWAP4 SWAP5 SWAP3 SWAP4 SWAP2 SWAP3 SWAP2 AND DUP8 JUMP JUMPDEST PUSH1 0x40 MLOAD PUSH2 0x2E3 SWAP8 SWAP7 SWAP6 SWAP5 SWAP4 SWAP3 SWAP2 SWAP1 PUSH2 0x5308 JUMP JUMPDEST PUSH2 0x37E PUSH2 0x4A1 CALLDATASIZE PUSH1 0x4 PUSH2 0x4E7C JUMP JUMPDEST PUSH2 0xC0A JUMP JUMPDEST PUSH2 0x37E PUSH2 0x4B4 CALLDATASIZE PUSH1 0x4 PUSH2 0x4CD3 JUMP JUMPDEST PUSH2 0xC4E JUMP JUMPDEST PUSH2 0x37E PUSH2 0x4C7 CALLDATASIZE PUSH1 0x4 PUSH2 0x4F54 JUMP JUMPDEST PUSH2 0xC69 JUMP JUMPDEST PUSH2 0x37E PUSH2 0x4DA CALLDATASIZE PUSH1 0x4 PUSH2 0x4DD4 JUMP JUMPDEST PUSH2 0xCAE JUMP JUMPDEST PUSH2 0x2D7 PUSH2 0x4ED CALLDATASIZE PUSH1 0x4 PUSH2 0x4F54 JUMP JUMPDEST PUSH2 0xDD0 JUMP JUMPDEST PUSH2 0x37E PUSH2 0x500 CALLDATASIZE PUSH1 0x4 PUSH2 0x4F54 JUMP JUMPDEST PUSH2 0xDDB JUMP JUMPDEST PUSH2 0x353 PUSH2 0x513 CALLDATASIZE PUSH1 0x4 PUSH2 0x4F54 JUMP JUMPDEST PUSH2 0x1064 JUMP JUMPDEST PUSH2 0x37E PUSH2 0x10DB JUMP JUMPDEST PUSH2 0x533 PUSH2 0x52E CALLDATASIZE PUSH1 0x4 PUSH2 0x504A JUMP JUMPDEST PUSH2 0x1165 JUMP JUMPDEST PUSH1 0x40 MLOAD PUSH2 0x2E3 SWAP4 SWAP3 SWAP2 SWAP1 PUSH2 0x556C JUMP JUMPDEST PUSH2 0x56E PUSH2 0x550 CALLDATASIZE PUSH1 0x4 PUSH2 0x4F54 JUMP JUMPDEST PUSH1 0x17 PUSH1 0x20 MSTORE PUSH1 0x0 SWAP1 DUP2 MSTORE PUSH1 0x40 SWAP1 KECCAK256 SLOAD PUSH1 0xFF DUP1 DUP3 AND SWAP2 PUSH2 0x100 SWAP1 DIV AND DUP3 JUMP JUMPDEST PUSH1 0x40 DUP1 MLOAD SWAP3 ISZERO ISZERO DUP4 MSTORE SWAP1 ISZERO ISZERO PUSH1 0x20 DUP4 ADD MSTORE ADD PUSH2 0x2E3 JUMP JUMPDEST PUSH2 0x598 PUSH2 0x593 CALLDATASIZE PUSH1 0x4 PUSH2 0x4FE0 JUMP JUMPDEST PUSH2 0x137E JUMP JUMPDEST PUSH1 0x40 MLOAD PUSH2 0x2E3 SWAP2 SWAP1 PUSH2 0x52C4 JUMP JUMPDEST PUSH2 0x30A PUSH2 0x5B3 CALLDATASIZE PUSH1 0x4 PUSH2 0x4C63 JUMP JUMPDEST PUSH2 0x1770 JUMP JUMPDEST PUSH2 0x37E PUSH2 0x17F7 JUMP JUMPDEST PUSH2 0x30A PUSH1 0x13 SLOAD DUP2 JUMP JUMPDEST PUSH2 0x30A PUSH2 0x5D7 CALLDATASIZE PUSH1 0x4 PUSH2 0x4C63 JUMP JUMPDEST PUSH1 0x16 PUSH1 0x20 MSTORE PUSH1 0x0 SWAP1 DUP2 MSTORE PUSH1 0x40 SWAP1 KECCAK256 SLOAD DUP2 JUMP JUMPDEST PUSH2 0x30A PUSH2 0x5F7 CALLDATASIZE PUSH1 0x4 PUSH2 0x4F54 JUMP JUMPDEST PUSH1 0xF PUSH1 0x20 MSTORE PUSH1 0x0 SWAP1 DUP2 MSTORE PUSH1 0x40 SWAP1 KECCAK256 SLOAD DUP2 JUMP JUMPDEST PUSH1 0x1B SLOAD PUSH2 0x353 SWAP1 PUSH1 0x1 PUSH1 0x1 PUSH1 0xA0 SHL SUB AND DUP2 JUMP JUMPDEST PUSH2 0x30A PUSH2 0x62A CALLDATASIZE PUSH1 0x4 PUSH2 0x4F54 JUMP JUMPDEST PUSH1 0x18 PUSH1 0x20 MSTORE PUSH1 0x0 SWAP1 DUP2 MSTORE PUSH1 0x40 SWAP1 KECCAK256 SLOAD DUP2 JUMP JUMPDEST PUSH2 0x677 PUSH2 0x64A CALLDATASIZE PUSH1 0x4 PUSH2 0x4F54 JUMP JUMPDEST PUSH1 0x1C PUSH1 0x20 MSTORE PUSH1 0x0 SWAP1 DUP2 MSTORE PUSH1 0x40 SWAP1 KECCAK256 DUP1 SLOAD PUSH1 0x1 DUP3 ADD SLOAD PUSH1 0x2 SWAP1 SWAP3 ADD SLOAD SWAP1 SWAP2 SWAP1 PUSH1 0xFF DUP1 DUP3 AND SWAP2 PUSH2 0x100 SWAP1 DIV AND DUP5 JUMP JUMPDEST PUSH1 0x40 MLOAD PUSH2 0x2E3 SWAP5 SWAP4 SWAP3 SWAP2 SWAP1 PUSH2 0x54F7 JUMP JUMPDEST PUSH2 0x353 PUSH2 0x1832 JUMP JUMPDEST PUSH2 0x30A PUSH2 0x69D CALLDATASIZE PUSH1 0x4 PUSH2 0x509F JUMP JUMPDEST PUSH2 0x1841 JUMP JUMPDEST PUSH2 0x2D7 PUSH2 0x6B0 CALLDATASIZE PUSH1 0x4 PUSH2 0x4F6C JUMP JUMPDEST PUSH2 0x188B JUMP JUMPDEST PUSH2 0x320 PUSH2 0x18B6 JUMP JUMPDEST PUSH2 0x30A PUSH1 0x0 DUP2 JUMP JUMPDEST PUSH2 0x37E PUSH2 0x6D3 CALLDATASIZE PUSH1 0x4 PUSH2 0x4E24 JUMP JUMPDEST PUSH2 0x18C5 JUMP JUMPDEST PUSH2 0x30A PUSH1 0x5 DUP2 JUMP JUMPDEST PUSH2 0x30A PUSH2 0x6EE CALLDATASIZE PUSH1 0x4 PUSH2 0x4F54 JUMP JUMPDEST PUSH2 0x1986 JUMP JUMPDEST PUSH2 0x30A PUSH2 0x701 CALLDATASIZE PUSH1 0x4 PUSH2 0x4F54 JUMP JUMPDEST PUSH2 0x199D JUMP JUMPDEST PUSH1 0x12 SLOAD PUSH2 0x353 SWAP1 PUSH1 0x1 PUSH1 0x1 PUSH1 0xA0 SHL SUB AND DUP2 JUMP JUMPDEST PUSH2 0x37E PUSH2 0x727 CALLDATASIZE PUSH1 0x4 PUSH2 0x4D13 JUMP JUMPDEST PUSH2 0x1CA2 JUMP JUMPDEST PUSH2 0x37E PUSH2 0x73A CALLDATASIZE PUSH1 0x4 PUSH2 0x4EEF JUMP JUMPDEST PUSH2 0x1CD5 JUMP JUMPDEST PUSH2 0x30A PUSH2 0x74D CALLDATASIZE PUSH1 0x4 PUSH2 0x4F54 JUMP JUMPDEST PUSH2 0x1EE4 JUMP JUMPDEST PUSH2 0x30A PUSH2 0x760 CALLDATASIZE PUSH1 0x4 PUSH2 0x509F JUMP JUMPDEST PUSH2 0x1EF6 JUMP JUMPDEST PUSH2 0x320 PUSH2 0x773 CALLDATASIZE PUSH1 0x4 PUSH2 0x4F54 JUMP JUMPDEST PUSH2 0x1F4F JUMP JUMPDEST PUSH2 0x30A PUSH2 0x786 CALLDATASIZE PUSH1 0x4 PUSH2 0x4E51 JUMP JUMPDEST PUSH2 0x1F5A JUMP JUMPDEST PUSH2 0x30A PUSH2 0x799 CALLDATASIZE PUSH1 0x4 PUSH2 0x5029 JUMP JUMPDEST PUSH2 0x1F8B JUMP JUMPDEST PUSH2 0x37E PUSH2 0x7AC CALLDATASIZE PUSH1 0x4 PUSH2 0x4F6C JUMP JUMPDEST PUSH2 0x1FAA JUMP JUMPDEST PUSH2 0x30A PUSH2 0x7BF CALLDATASIZE PUSH1 0x4 PUSH2 0x4F54 JUMP JUMPDEST PUSH1 0xA PUSH1 0x20 MSTORE PUSH1 0x0 SWAP1 DUP2 MSTORE PUSH1 0x40 SWAP1 KECCAK256 SLOAD DUP2 JUMP JUMPDEST PUSH2 0x2D7 PUSH2 0x7DF CALLDATASIZE PUSH1 0x4 PUSH2 0x5029 JUMP JUMPDEST PUSH2 0x1FC7 JUMP JUMPDEST PUSH2 0x30A PUSH32 0xDEB3B49547F710C56A925B6E16E3557A50FAB4DD8F243BC314F3AFBA2054EC5B DUP2 JUMP JUMPDEST PUSH2 0x37E PUSH2 0x819 CALLDATASIZE PUSH1 0x4 PUSH2 0x4EB0 JUMP JUMPDEST PUSH2 0x21EF JUMP JUMPDEST PUSH2 0x30A PUSH2 0x82C CALLDATASIZE PUSH1 0x4 PUSH2 0x4F6C JUMP JUMPDEST PUSH1 0x0 DUP3 DUP2 MSTORE PUSH1 0xB PUSH1 0x20 SWAP1 DUP2 MSTORE PUSH1 0x40 DUP1 DUP4 KECCAK256 PUSH1 0x1 PUSH1 0x1 PUSH1 0xA0 SHL SUB DUP6 AND DUP5 MSTORE PUSH1 0x1 ADD SWAP1 SWAP2 MSTORE SWAP1 KECCAK256 SLOAD SWAP3 SWAP2 POP POP JUMP JUMPDEST PUSH2 0x2D7 PUSH2 0x866 CALLDATASIZE PUSH1 0x4 PUSH2 0x4C9B JUMP JUMPDEST PUSH2 0x223C JUMP JUMPDEST PUSH2 0x37E PUSH2 0x879 CALLDATASIZE PUSH1 0x4 PUSH2 0x4C63 JUMP JUMPDEST PUSH2 0x226A JUMP JUMPDEST PUSH2 0x30A PUSH2 0x88C CALLDATASIZE PUSH1 0x4 PUSH2 0x4D8F JUMP JUMPDEST PUSH2 0x2307 JUMP JUMPDEST PUSH1 0x0 PUSH2 0x89C DUP3 PUSH2 0x23DE JUMP JUMPDEST SWAP3 SWAP2 POP POP JUMP JUMPDEST PUSH1 0x60 PUSH1 0x0 DUP1 SLOAD PUSH2 0x8B1 SWAP1 PUSH2 0x5627 JUMP JUMPDEST DUP1 PUSH1 0x1F ADD PUSH1 0x20 DUP1 SWAP2 DIV MUL PUSH1 0x20 ADD PUSH1 0x40 MLOAD SWAP1 DUP2 ADD PUSH1 0x40 MSTORE DUP1 SWAP3 SWAP2 SWAP1 DUP2 DUP2 MSTORE PUSH1 0x20 ADD DUP3 DUP1 SLOAD PUSH2 0x8DD SWAP1 PUSH2 0x5627 JUMP JUMPDEST DUP1 ISZERO PUSH2 0x92A JUMPI DUP1 PUSH1 0x1F LT PUSH2 0x8FF JUMPI PUSH2 0x100 DUP1 DUP4 SLOAD DIV MUL DUP4 MSTORE SWAP2 PUSH1 0x20 ADD SWAP2 PUSH2 0x92A JUMP JUMPDEST DUP3 ADD SWAP2 SWAP1 PUSH1 0x0 MSTORE PUSH1 0x20 PUSH1 0x0 KECCAK256 SWAP1 JUMPDEST DUP2 SLOAD DUP2 MSTORE SWAP1 PUSH1 0x1 ADD SWAP1 PUSH1 0x20 ADD DUP1 DUP4 GT PUSH2 0x90D JUMPI DUP3 SWAP1 SUB PUSH1 0x1F AND DUP3 ADD SWAP2 JUMPDEST POP POP POP POP POP SWAP1 POP SWAP1 JUMP JUMPDEST PUSH1 0x0 DUP1 JUMPDEST PUSH2 0x941 DUP4 PUSH2 0x1986 JUMP JUMPDEST DUP2 LT ISZERO PUSH2 0x973 JUMPI PUSH2 0x955 PUSH2 0x74D DUP5 DUP4 PUSH2 0x1F8B JUMP JUMPDEST PUSH2 0x95F SWAP1 DUP4 PUSH2 0x5582 JUMP JUMPDEST SWAP2 POP DUP1 PUSH2 0x96B DUP2 PUSH2 0x565C JUMP JUMPDEST SWAP2 POP POP PUSH2 0x938 JUMP JUMPDEST POP SWAP2 SWAP1 POP JUMP JUMPDEST PUSH1 0x0 PUSH2 0x984 DUP3 PUSH2 0x2403 JUMP JUMPDEST PUSH2 0x9EA JUMPI PUSH1 0x40 MLOAD PUSH3 0x461BCD PUSH1 0xE5 SHL DUP2 MSTORE PUSH1 0x20 PUSH1 0x4 DUP3 ADD MSTORE PUSH1 0x2C PUSH1 0x24 DUP3 ADD MSTORE PUSH32 0x4552433732313A20617070726F76656420717565727920666F72206E6F6E6578 PUSH1 0x44 DUP3 ADD MSTORE PUSH12 0x34B9BA32B73A103A37B5B2B7 PUSH1 0xA1 SHL PUSH1 0x64 DUP3 ADD MSTORE PUSH1 0x84 ADD JUMPDEST PUSH1 0x40 MLOAD DUP1 SWAP2 SUB SWAP1 REVERT JUMPDEST POP PUSH1 0x0 SWAP1 DUP2 MSTORE PUSH1 0x4 PUSH1 0x20 MSTORE PUSH1 0x40 SWAP1 KECCAK256 SLOAD PUSH1 0x1 PUSH1 0x1 PUSH1 0xA0 SHL SUB AND SWAP1 JUMP JUMPDEST PUSH1 0x0 PUSH2 0xA11 DUP3 PUSH2 0x1064 JUMP JUMPDEST SWAP1 POP DUP1 PUSH1 0x1 PUSH1 0x1 PUSH1 0xA0 SHL SUB AND DUP4 PUSH1 0x1 PUSH1 0x1 PUSH1 0xA0 SHL SUB AND EQ ISZERO PUSH2 0xA7F JUMPI PUSH1 0x40 MLOAD PUSH3 0x461BCD PUSH1 0xE5 SHL DUP2 MSTORE PUSH1 0x20 PUSH1 0x4 DUP3 ADD MSTORE PUSH1 0x21 PUSH1 0x24 DUP3 ADD MSTORE PUSH32 0x4552433732313A20617070726F76616C20746F2063757272656E74206F776E65 PUSH1 0x44 DUP3 ADD MSTORE PUSH1 0x39 PUSH1 0xF9 SHL PUSH1 0x64 DUP3 ADD MSTORE PUSH1 0x84 ADD PUSH2 0x9E1 JUMP JUMPDEST CALLER PUSH1 0x1 PUSH1 0x1 PUSH1 0xA0 SHL SUB DUP3 AND EQ DUP1 PUSH2 0xA9B JUMPI POP PUSH2 0xA9B DUP2 CALLER PUSH2 0x223C JUMP JUMPDEST PUSH2 0xB08 JUMPI PUSH1 0x40 MLOAD PUSH3 0x461BCD PUSH1 0xE5 SHL DUP2 MSTORE PUSH1 0x20 PUSH1 0x4 DUP3 ADD MSTORE PUSH1 0x38 PUSH1 0x24 DUP3 ADD MSTORE PUSH32 0x4552433732313A20617070726F76652063616C6C6572206973206E6F74206F77 PUSH1 0x44 DUP3 ADD MSTORE PUSH24 0x1B995C881B9BDC88185C1C1C9BDD995908199BDC88185B1B PUSH1 0x42 SHL PUSH1 0x64 DUP3 ADD MSTORE PUSH1 0x84 ADD PUSH2 0x9E1 JUMP JUMPDEST PUSH2 0xB12 DUP4 DUP4 PUSH2 0x2420 JUMP JUMPDEST POP POP POP JUMP JUMPDEST PUSH2 0xB21 CALLER DUP3 PUSH2 0x248E JUMP JUMPDEST PUSH2 0xB3D JUMPI PUSH1 0x40 MLOAD PUSH3 0x461BCD PUSH1 0xE5 SHL DUP2 MSTORE PUSH1 0x4 ADD PUSH2 0x9E1 SWAP1 PUSH2 0x5453 JUMP JUMPDEST PUSH2 0xB12 DUP4 DUP4 DUP4 PUSH2 0x2558 JUMP JUMPDEST PUSH1 0x0 SWAP1 DUP2 MSTORE PUSH1 0x8 PUSH1 0x20 MSTORE PUSH1 0x40 SWAP1 KECCAK256 PUSH1 0x1 ADD SLOAD SWAP1 JUMP JUMPDEST PUSH1 0x0 SWAP1 DUP2 MSTORE PUSH1 0xA PUSH1 0x20 MSTORE PUSH1 0x40 SWAP1 KECCAK256 SLOAD SWAP1 JUMP JUMPDEST PUSH2 0xB78 DUP3 PUSH2 0xB48 JUMP JUMPDEST PUSH2 0xB82 DUP2 CALLER PUSH2 0x26F1 JUMP JUMPDEST PUSH2 0xB12 DUP4 DUP4 PUSH2 0x2755 JUMP JUMPDEST PUSH1 0x1 PUSH1 0x1 PUSH1 0xA0 SHL SUB DUP2 AND CALLER EQ PUSH2 0xBFC JUMPI PUSH1 0x40 MLOAD PUSH3 0x461BCD PUSH1 0xE5 SHL DUP2 MSTORE PUSH1 0x20 PUSH1 0x4 DUP3 ADD MSTORE PUSH1 0x2F PUSH1 0x24 DUP3 ADD MSTORE PUSH32 0x416363657373436F6E74726F6C3A2063616E206F6E6C792072656E6F756E6365 PUSH1 0x44 DUP3 ADD MSTORE PUSH15 0x103937B632B9903337B91039B2B633 PUSH1 0x89 SHL PUSH1 0x64 DUP3 ADD MSTORE PUSH1 0x84 ADD PUSH2 0x9E1 JUMP JUMPDEST PUSH2 0xC06 DUP3 DUP3 PUSH2 0x27DB JUMP JUMPDEST POP POP JUMP JUMPDEST PUSH2 0xC13 DUP3 PUSH2 0x1064 JUMP JUMPDEST PUSH1 0x1 PUSH1 0x1 PUSH1 0xA0 SHL SUB AND CALLER PUSH1 0x1 PUSH1 0x1 PUSH1 0xA0 SHL SUB AND EQ PUSH2 0xC43 JUMPI PUSH1 0x40 MLOAD PUSH3 0x461BCD PUSH1 0xE5 SHL DUP2 MSTORE PUSH1 0x4 ADD PUSH2 0x9E1 SWAP1 PUSH2 0x5377 JUMP JUMPDEST PUSH2 0xB12 DUP4 DUP4 DUP4 PUSH2 0x2842 JUMP JUMPDEST PUSH2 0xB12 DUP4 DUP4 DUP4 PUSH1 0x40 MLOAD DUP1 PUSH1 0x20 ADD PUSH1 0x40 MSTORE DUP1 PUSH1 0x0 DUP2 MSTORE POP PUSH2 0x1CA2 JUMP JUMPDEST PUSH2 0xC72 DUP2 PUSH2 0x1064 JUMP JUMPDEST PUSH1 0x1 PUSH1 0x1 PUSH1 0xA0 SHL SUB AND CALLER PUSH1 0x1 PUSH1 0x1 PUSH1 0xA0 SHL SUB AND EQ PUSH2 0xCA2 JUMPI PUSH1 0x40 MLOAD PUSH3 0x461BCD PUSH1 0xE5 SHL DUP2 MSTORE PUSH1 0x4 ADD PUSH2 0x9E1 SWAP1 PUSH2 0x5377 JUMP JUMPDEST PUSH2 0xCAB DUP2 PUSH2 0x2907 JUMP JUMPDEST POP JUMP JUMPDEST PUSH2 0xCB7 DUP3 PUSH2 0xDD0 JUMP JUMPDEST PUSH2 0xCE9 JUMPI PUSH1 0x40 MLOAD PUSH3 0x461BCD PUSH1 0xE5 SHL DUP2 MSTORE PUSH1 0x20 PUSH1 0x4 DUP3 ADD MSTORE PUSH1 0x3 PUSH1 0x24 DUP3 ADD MSTORE PUSH3 0x271899 PUSH1 0xE9 SHL PUSH1 0x44 DUP3 ADD MSTORE PUSH1 0x64 ADD PUSH2 0x9E1 JUMP JUMPDEST PUSH1 0x0 DUP1 PUSH1 0x0 PUSH2 0xCF8 DUP7 DUP6 PUSH2 0x291F JUMP JUMPDEST POP SWAP3 POP SWAP3 POP SWAP3 POP PUSH1 0x0 PUSH2 0xD0A DUP7 PUSH2 0x2A4C JUMP JUMPDEST SWAP1 POP PUSH2 0xD46 DUP7 DUP3 DUP5 DUP5 PUSH1 0x60 ADD MLOAD PUSH2 0xD21 SWAP2 SWAP1 PUSH2 0x5582 JUMP JUMPDEST DUP8 DUP6 PUSH1 0x40 ADD MLOAD PUSH2 0xD31 SWAP2 SWAP1 PUSH2 0x5582 JUMP JUMPDEST DUP8 DUP7 PUSH1 0x80 ADD MLOAD PUSH2 0xD41 SWAP2 SWAP1 PUSH2 0x5582 JUMP JUMPDEST PUSH2 0x2B3B JUMP JUMPDEST PUSH1 0x1A SLOAD PUSH1 0x60 DUP3 ADD MLOAD PUSH1 0x80 DUP4 ADD MLOAD PUSH1 0x40 MLOAD PUSH4 0x57A5C967 PUSH1 0xE0 SHL DUP2 MSTORE SWAP4 SWAP5 POP PUSH1 0x1 PUSH1 0x1 PUSH1 0xA0 SHL SUB SWAP1 SWAP3 AND SWAP3 PUSH4 0x57A5C967 SWAP3 PUSH2 0xD86 SWAP3 DUP12 SWAP3 SWAP1 SWAP2 SWAP1 PUSH1 0x4 ADD PUSH2 0x556C JUMP JUMPDEST PUSH1 0x0 PUSH1 0x40 MLOAD DUP1 DUP4 SUB DUP2 PUSH1 0x0 DUP8 DUP1 EXTCODESIZE ISZERO DUP1 ISZERO PUSH2 0xDA0 JUMPI PUSH1 0x0 DUP1 REVERT JUMPDEST POP GAS CALL ISZERO DUP1 ISZERO PUSH2 0xDB4 JUMPI RETURNDATASIZE PUSH1 0x0 DUP1 RETURNDATACOPY RETURNDATASIZE PUSH1 0x0 REVERT JUMPDEST POP POP POP POP PUSH2 0xDC5 DUP10 DUP10 DUP10 DUP10 DUP10 PUSH2 0x2B6D JUMP JUMPDEST POP POP POP POP POP POP POP POP POP JUMP JUMPDEST PUSH1 0x0 PUSH2 0x89C DUP3 PUSH2 0x2403 JUMP JUMPDEST PUSH1 0x0 DUP2 DUP2 MSTORE PUSH1 0x14 PUSH1 0x20 MSTORE PUSH1 0x40 SWAP1 KECCAK256 PUSH1 0x5 DUP2 ADD SLOAD TIMESTAMP LT ISZERO PUSH2 0xE0D JUMPI PUSH1 0x40 MLOAD PUSH3 0x461BCD PUSH1 0xE5 SHL DUP2 MSTORE PUSH1 0x4 ADD PUSH2 0x9E1 SWAP1 PUSH2 0x54DB JUMP JUMPDEST PUSH1 0x1 DUP2 SLOAD PUSH1 0xFF AND PUSH1 0x3 DUP2 GT ISZERO PUSH2 0xE33 JUMPI PUSH4 0x4E487B71 PUSH1 0xE0 SHL PUSH1 0x0 MSTORE PUSH1 0x21 PUSH1 0x4 MSTORE PUSH1 0x24 PUSH1 0x0 REVERT JUMPDEST EQ PUSH2 0xE65 JUMPI PUSH1 0x40 MLOAD PUSH3 0x461BCD PUSH1 0xE5 SHL DUP2 MSTORE PUSH1 0x20 PUSH1 0x4 DUP3 ADD MSTORE PUSH1 0x2 PUSH1 0x24 DUP3 ADD MSTORE PUSH2 0x4F35 PUSH1 0xF0 SHL PUSH1 0x44 DUP3 ADD MSTORE PUSH1 0x64 ADD PUSH2 0x9E1 JUMP JUMPDEST PUSH1 0x5 DUP2 ADD SLOAD PUSH1 0x0 SWAP1 DUP2 MSTORE PUSH1 0x18 PUSH1 0x20 MSTORE PUSH1 0x40 SWAP1 KECCAK256 SLOAD DUP1 PUSH2 0xE96 JUMPI PUSH1 0x40 MLOAD PUSH3 0x461BCD PUSH1 0xE5 SHL DUP2 MSTORE PUSH1 0x4 ADD PUSH2 0x9E1 SWAP1 PUSH2 0x53E5 JUMP JUMPDEST PUSH1 0x12 SLOAD PUSH1 0x40 MLOAD PUSH4 0x3906D29 PUSH1 0xE1 SHL DUP2 MSTORE PUSH1 0x4 DUP2 ADD DUP4 SWAP1 MSTORE PUSH1 0x0 SWAP2 PUSH1 0x1 PUSH1 0x1 PUSH1 0xA0 SHL SUB AND SWAP1 PUSH4 0x720DA52 SWAP1 PUSH1 0x24 ADD PUSH1 0xA0 PUSH1 0x40 MLOAD DUP1 DUP4 SUB DUP2 DUP7 DUP1 EXTCODESIZE ISZERO DUP1 ISZERO PUSH2 0xEDB JUMPI PUSH1 0x0 DUP1 REVERT JUMPDEST POP GAS STATICCALL ISZERO DUP1 ISZERO PUSH2 0xEEF JUMPI RETURNDATASIZE PUSH1 0x0 DUP1 RETURNDATACOPY RETURNDATASIZE PUSH1 0x0 REVERT JUMPDEST POP POP POP POP PUSH1 0x40 MLOAD RETURNDATASIZE PUSH1 0x1F NOT PUSH1 0x1F DUP3 ADD AND DUP3 ADD DUP1 PUSH1 0x40 MSTORE POP DUP2 ADD SWAP1 PUSH2 0xF13 SWAP2 SWAP1 PUSH2 0x5141 JUMP JUMPDEST POP SWAP2 SWAP4 POP PUSH1 0x2 SWAP3 POP PUSH2 0xF23 SWAP2 POP POP JUMP JUMPDEST PUSH1 0x6 DUP5 ADD SLOAD PUSH1 0xFF AND PUSH1 0x2 DUP2 GT ISZERO PUSH2 0xF4A JUMPI PUSH4 0x4E487B71 PUSH1 0xE0 SHL PUSH1 0x0 MSTORE PUSH1 0x21 PUSH1 0x4 MSTORE PUSH1 0x24 PUSH1 0x0 REVERT JUMPDEST EQ DUP1 ISZERO PUSH2 0xF5A JUMPI POP DUP3 PUSH1 0x1 ADD SLOAD DUP2 GT JUMPDEST DUP1 PUSH2 0xF99 JUMPI POP PUSH1 0x1 PUSH1 0x6 DUP5 ADD SLOAD PUSH1 0xFF AND PUSH1 0x2 DUP2 GT ISZERO PUSH2 0xF89 JUMPI PUSH4 0x4E487B71 PUSH1 0xE0 SHL PUSH1 0x0 MSTORE PUSH1 0x21 PUSH1 0x4 MSTORE PUSH1 0x24 PUSH1 0x0 REVERT JUMPDEST EQ DUP1 ISZERO PUSH2 0xF99 JUMPI POP DUP3 PUSH1 0x1 ADD SLOAD DUP2 LT JUMPDEST ISZERO PUSH2 0xFAD JUMPI PUSH2 0xFA7 DUP5 PUSH2 0x199D JUMP JUMPDEST POP PUSH2 0x105E JUMP JUMPDEST DUP3 SLOAD PUSH1 0xFF NOT AND PUSH1 0x3 OR DUP4 SSTORE PUSH1 0x1A SLOAD PUSH1 0x40 MLOAD PUSH4 0x6198E339 PUSH1 0xE0 SHL DUP2 MSTORE PUSH1 0x4 DUP2 ADD DUP7 SWAP1 MSTORE PUSH1 0x1 PUSH1 0x1 PUSH1 0xA0 SHL SUB SWAP1 SWAP2 AND SWAP1 PUSH4 0x6198E339 SWAP1 PUSH1 0x24 ADD PUSH1 0x0 PUSH1 0x40 MLOAD DUP1 DUP4 SUB DUP2 PUSH1 0x0 DUP8 DUP1 EXTCODESIZE ISZERO DUP1 ISZERO PUSH2 0xFFE JUMPI PUSH1 0x0 DUP1 REVERT JUMPDEST POP GAS CALL ISZERO DUP1 ISZERO PUSH2 0x1012 JUMPI RETURNDATASIZE PUSH1 0x0 DUP1 RETURNDATACOPY RETURNDATASIZE PUSH1 0x0 REVERT JUMPDEST POP POP POP POP PUSH2 0x101F DUP5 PUSH2 0x2907 JUMP JUMPDEST DUP4 PUSH32 0x5F36A4A575E512EB69D6D28C3B0FF98CCA7BA50AD5BF04E14094AD1D425E0D31 DUP5 PUSH1 0x4 ADD SLOAD PUSH1 0x40 MLOAD PUSH2 0x1055 SWAP2 DUP2 MSTORE PUSH1 0x20 ADD SWAP1 JUMP JUMPDEST PUSH1 0x40 MLOAD DUP1 SWAP2 SUB SWAP1 LOG2 JUMPDEST POP POP POP POP JUMP JUMPDEST PUSH1 0x0 DUP2 DUP2 MSTORE PUSH1 0x2 PUSH1 0x20 MSTORE PUSH1 0x40 DUP2 KECCAK256 SLOAD PUSH1 0x1 PUSH1 0x1 PUSH1 0xA0 SHL SUB AND DUP1 PUSH2 0x89C JUMPI PUSH1 0x40 MLOAD PUSH3 0x461BCD PUSH1 0xE5 SHL DUP2 MSTORE PUSH1 0x20 PUSH1 0x4 DUP3 ADD MSTORE PUSH1 0x29 PUSH1 0x24 DUP3 ADD MSTORE PUSH32 0x4552433732313A206F776E657220717565727920666F72206E6F6E6578697374 PUSH1 0x44 DUP3 ADD MSTORE PUSH9 0x32B73A103A37B5B2B7 PUSH1 0xB9 SHL PUSH1 0x64 DUP3 ADD MSTORE PUSH1 0x84 ADD PUSH2 0x9E1 JUMP JUMPDEST PUSH1 0x10 SLOAD PUSH1 0x1A SLOAD PUSH1 0x40 MLOAD PUSH4 0x95EA7B3 PUSH1 0xE0 SHL DUP2 MSTORE PUSH1 0x1 PUSH1 0x1 PUSH1 0xA0 SHL SUB SWAP3 DUP4 AND SWAP3 PUSH4 0x95EA7B3 SWAP3 PUSH2 0x1113 SWAP3 SWAP2 AND SWAP1 PUSH1 0x0 NOT SWAP1 PUSH1 0x4 ADD PUSH2 0x52AB JUMP JUMPDEST PUSH1 0x20 PUSH1 0x40 MLOAD DUP1 DUP4 SUB DUP2 PUSH1 0x0 DUP8 DUP1 EXTCODESIZE ISZERO DUP1 ISZERO PUSH2 0x112D JUMPI PUSH1 0x0 DUP1 REVERT JUMPDEST POP GAS CALL ISZERO DUP1 ISZERO PUSH2 0x1141 JUMPI RETURNDATASIZE PUSH1 0x0 DUP1 RETURNDATACOPY RETURNDATASIZE PUSH1 0x0 REVERT JUMPDEST POP POP POP POP PUSH1 0x40 MLOAD RETURNDATASIZE PUSH1 0x1F NOT PUSH1 0x1F DUP3 ADD AND DUP3 ADD DUP1 PUSH1 0x40 MSTORE POP DUP2 ADD SWAP1 PUSH2 0xCAB SWAP2 SWAP1 PUSH2 0x4F38 JUMP JUMPDEST PUSH1 0x0 DUP1 PUSH1 0x0 DUP1 PUSH1 0x12 PUSH1 0x0 SWAP1 SLOAD SWAP1 PUSH2 0x100 EXP SWAP1 DIV PUSH1 0x1 PUSH1 0x1 PUSH1 0xA0 SHL SUB AND PUSH1 0x1 PUSH1 0x1 PUSH1 0xA0 SHL SUB AND PUSH4 0x1ACF5582 PUSH1 0x40 MLOAD DUP2 PUSH4 0xFFFFFFFF AND PUSH1 0xE0 SHL DUP2 MSTORE PUSH1 0x4 ADD PUSH1 0x20 PUSH1 0x40 MLOAD DUP1 DUP4 SUB DUP2 DUP7 DUP1 EXTCODESIZE ISZERO DUP1 ISZERO PUSH2 0x11B9 JUMPI PUSH1 0x0 DUP1 REVERT JUMPDEST POP GAS STATICCALL ISZERO DUP1 ISZERO PUSH2 0x11CD JUMPI RETURNDATASIZE PUSH1 0x0 DUP1 RETURNDATACOPY RETURNDATASIZE PUSH1 0x0 REVERT JUMPDEST POP POP POP POP PUSH1 0x40 MLOAD RETURNDATASIZE PUSH1 0x1F NOT PUSH1 0x1F DUP3 ADD AND DUP3 ADD DUP1 PUSH1 0x40 MSTORE POP DUP2 ADD SWAP1 PUSH2 0x11F1 SWAP2 SWAP1 PUSH2 0x4FC8 JUMP JUMPDEST PUSH1 0x1B SLOAD PUSH1 0x1A SLOAD PUSH1 0x40 MLOAD PUSH4 0xE39D06E9 PUSH1 0xE0 SHL DUP2 MSTORE PUSH1 0x4 DUP2 ADD DUP14 SWAP1 MSTORE PUSH1 0x24 DUP2 ADD DUP13 SWAP1 MSTORE PUSH1 0x44 DUP2 ADD DUP12 SWAP1 MSTORE DUP10 ISZERO ISZERO PUSH1 0x64 DUP3 ADD MSTORE DUP9 ISZERO ISZERO PUSH1 0x84 DUP3 ADD MSTORE PUSH1 0xA4 DUP2 ADD DUP5 SWAP1 MSTORE PUSH1 0x1 PUSH1 0x1 PUSH1 0xA0 SHL SUB SWAP3 DUP4 AND PUSH1 0xC4 DUP3 ADD MSTORE SWAP2 AND PUSH1 0xE4 DUP3 ADD MSTORE SWAP1 SWAP2 POP PUSH20 0x0 SWAP1 PUSH4 0xE39D06E9 SWAP1 PUSH2 0x104 ADD PUSH1 0x20 PUSH1 0x40 MLOAD DUP1 DUP4 SUB DUP2 DUP7 DUP1 EXTCODESIZE ISZERO DUP1 ISZERO PUSH2 0x1282 JUMPI PUSH1 0x0 DUP1 REVERT JUMPDEST POP GAS DELEGATECALL ISZERO DUP1 ISZERO PUSH2 0x1296 JUMPI RETURNDATASIZE PUSH1 0x0 DUP1 RETURNDATACOPY RETURNDATASIZE PUSH1 0x0 REVERT JUMPDEST POP POP POP POP PUSH1 0x40 MLOAD RETURNDATASIZE PUSH1 0x1F NOT PUSH1 0x1F DUP3 ADD AND DUP3 ADD DUP1 PUSH1 0x40 MSTORE POP DUP2 ADD SWAP1 PUSH2 0x12BA SWAP2 SWAP1 PUSH2 0x4FC8 JUMP JUMPDEST SWAP2 POP PUSH1 0x1B PUSH1 0x0 SWAP1 SLOAD SWAP1 PUSH2 0x100 EXP SWAP1 DIV PUSH1 0x1 PUSH1 0x1 PUSH1 0xA0 SHL SUB AND PUSH1 0x1 PUSH1 0x1 PUSH1 0xA0 SHL SUB AND PUSH4 0xF3FA3495 PUSH1 0x40 MLOAD DUP2 PUSH4 0xFFFFFFFF AND PUSH1 0xE0 SHL DUP2 MSTORE PUSH1 0x4 ADD PUSH1 0x20 PUSH1 0x40 MLOAD DUP1 DUP4 SUB DUP2 DUP7 DUP1 EXTCODESIZE ISZERO DUP1 ISZERO PUSH2 0x130A JUMPI PUSH1 0x0 DUP1 REVERT JUMPDEST POP GAS STATICCALL ISZERO DUP1 ISZERO PUSH2 0x131E JUMPI RETURNDATASIZE PUSH1 0x0 DUP1 RETURNDATACOPY RETURNDATASIZE PUSH1 0x0 REVERT JUMPDEST POP POP POP POP PUSH1 0x40 MLOAD RETURNDATASIZE PUSH1 0x1F NOT PUSH1 0x1F DUP3 ADD AND DUP3 ADD DUP1 PUSH1 0x40 MSTORE POP DUP2 ADD SWAP1 PUSH2 0x1342 SWAP2 SWAP1 PUSH2 0x4FC8 JUMP JUMPDEST PUSH2 0x134E SWAP1 PUSH2 0x2710 PUSH2 0x55CD JUMP JUMPDEST PUSH2 0x135A DUP4 PUSH2 0x2710 PUSH2 0x55AE JUMP JUMPDEST PUSH2 0x1364 SWAP2 SWAP1 PUSH2 0x559A JUMP JUMPDEST SWAP4 POP PUSH2 0x1370 DUP3 DUP6 PUSH2 0x55CD JUMP JUMPDEST SWAP3 POP POP SWAP6 POP SWAP6 POP SWAP6 SWAP3 POP POP POP JUMP JUMPDEST PUSH1 0x60 DUP2 PUSH2 0x13B2 JUMPI PUSH1 0x40 MLOAD PUSH3 0x461BCD PUSH1 0xE5 SHL DUP2 MSTORE PUSH1 0x20 PUSH1 0x4 DUP3 ADD MSTORE PUSH1 0x2 PUSH1 0x24 DUP3 ADD MSTORE PUSH2 0x4E31 PUSH1 0xF0 SHL PUSH1 0x44 DUP3 ADD MSTORE PUSH1 0x64 ADD PUSH2 0x9E1 JUMP JUMPDEST DUP2 PUSH1 0x1 PUSH1 0x1 PUSH1 0x40 SHL SUB DUP2 GT ISZERO PUSH2 0x13D8 JUMPI PUSH4 0x4E487B71 PUSH1 0xE0 SHL PUSH1 0x0 MSTORE PUSH1 0x41 PUSH1 0x4 MSTORE PUSH1 0x24 PUSH1 0x0 REVERT JUMPDEST PUSH1 0x40 MLOAD SWAP1 DUP1 DUP3 MSTORE DUP1 PUSH1 0x20 MUL PUSH1 0x20 ADD DUP3 ADD PUSH1 0x40 MSTORE DUP1 ISZERO PUSH2 0x1401 JUMPI DUP2 PUSH1 0x20 ADD PUSH1 0x20 DUP3 MUL DUP1 CALLDATASIZE DUP4 CALLDATACOPY ADD SWAP1 POP JUMPDEST POP SWAP1 POP PUSH1 0x0 PUSH2 0x140F DUP6 PUSH2 0x2A4C JUMP JUMPDEST SWAP1 POP PUSH1 0x0 PUSH2 0x141C DUP7 PUSH2 0x1EE4 JUMP JUMPDEST SWAP1 POP PUSH1 0x0 DUP1 DUP1 DUP1 JUMPDEST DUP8 DUP2 LT ISZERO PUSH2 0x162F JUMPI PUSH1 0x0 PUSH2 0x1436 PUSH2 0x2DB3 JUMP JUMPDEST SWAP1 POP DUP1 DUP9 DUP4 DUP2 MLOAD DUP2 LT PUSH2 0x1459 JUMPI PUSH4 0x4E487B71 PUSH1 0xE0 SHL PUSH1 0x0 MSTORE PUSH1 0x32 PUSH1 0x4 MSTORE PUSH1 0x24 PUSH1 0x0 REVERT JUMPDEST PUSH1 0x20 MUL PUSH1 0x20 ADD ADD DUP2 DUP2 MSTORE POP POP PUSH2 0x1496 DUP12 DUP3 DUP13 DUP13 DUP7 DUP2 DUP2 LT PUSH2 0x148A JUMPI PUSH4 0x4E487B71 PUSH1 0xE0 SHL PUSH1 0x0 MSTORE PUSH1 0x32 PUSH1 0x4 MSTORE PUSH1 0x24 PUSH1 0x0 REVERT JUMPDEST SWAP1 POP PUSH1 0x20 MUL ADD CALLDATALOAD PUSH2 0x2DCD JUMP JUMPDEST PUSH1 0x0 DUP7 DUP12 DUP12 DUP6 DUP2 DUP2 LT PUSH2 0x14B9 JUMPI PUSH4 0x4E487B71 PUSH1 0xE0 SHL PUSH1 0x0 MSTORE PUSH1 0x32 PUSH1 0x4 MSTORE PUSH1 0x24 PUSH1 0x0 REVERT JUMPDEST SWAP1 POP PUSH1 0x20 MUL ADD CALLDATALOAD DUP10 PUSH1 0x40 ADD MLOAD PUSH2 0x14CF SWAP2 SWAP1 PUSH2 0x55AE JUMP JUMPDEST PUSH2 0x14D9 SWAP2 SWAP1 PUSH2 0x559A JUMP JUMPDEST SWAP1 POP PUSH2 0x14E5 DUP2 DUP8 PUSH2 0x5582 JUMP JUMPDEST SWAP6 POP PUSH1 0x0 DUP8 DUP13 DUP13 DUP7 DUP2 DUP2 LT PUSH2 0x150A JUMPI PUSH4 0x4E487B71 PUSH1 0xE0 SHL PUSH1 0x0 MSTORE PUSH1 0x32 PUSH1 0x4 MSTORE PUSH1 0x24 PUSH1 0x0 REVERT JUMPDEST SWAP1 POP PUSH1 0x20 MUL ADD CALLDATALOAD DUP11 PUSH1 0x60 ADD MLOAD PUSH2 0x1520 SWAP2 SWAP1 PUSH2 0x55AE JUMP JUMPDEST PUSH2 0x152A SWAP2 SWAP1 PUSH2 0x559A JUMP JUMPDEST SWAP1 POP PUSH2 0x1536 DUP2 DUP8 PUSH2 0x5582 JUMP JUMPDEST SWAP6 POP PUSH1 0x0 DUP9 DUP14 DUP14 DUP8 DUP2 DUP2 LT PUSH2 0x155B JUMPI PUSH4 0x4E487B71 PUSH1 0xE0 SHL PUSH1 0x0 MSTORE PUSH1 0x32 PUSH1 0x4 MSTORE PUSH1 0x24 PUSH1 0x0 REVERT JUMPDEST SWAP1 POP PUSH1 0x20 MUL ADD CALLDATALOAD DUP12 PUSH1 0x80 ADD MLOAD PUSH2 0x1571 SWAP2 SWAP1 PUSH2 0x55AE JUMP JUMPDEST PUSH2 0x157B SWAP2 SWAP1 PUSH2 0x559A JUMP JUMPDEST SWAP1 POP PUSH2 0x1587 DUP2 DUP8 PUSH2 0x5582 JUMP JUMPDEST SWAP6 POP PUSH1 0x0 PUSH1 0x40 MLOAD DUP1 PUSH1 0xE0 ADD PUSH1 0x40 MSTORE DUP1 DUP13 PUSH1 0x0 ADD MLOAD PUSH1 0x3 DUP2 GT ISZERO PUSH2 0x15BA JUMPI PUSH4 0x4E487B71 PUSH1 0xE0 SHL PUSH1 0x0 MSTORE PUSH1 0x21 PUSH1 0x4 MSTORE PUSH1 0x24 PUSH1 0x0 REVERT JUMPDEST DUP2 MSTORE PUSH1 0x20 ADD DUP13 PUSH1 0x20 ADD MLOAD DUP2 MSTORE PUSH1 0x20 ADD DUP6 DUP2 MSTORE PUSH1 0x20 ADD DUP5 DUP2 MSTORE PUSH1 0x20 ADD DUP4 DUP2 MSTORE PUSH1 0x20 ADD DUP13 PUSH1 0xA0 ADD MLOAD DUP2 MSTORE PUSH1 0x20 ADD DUP13 PUSH1 0xC0 ADD MLOAD PUSH1 0x2 DUP2 GT ISZERO PUSH2 0x1609 JUMPI PUSH4 0x4E487B71 PUSH1 0xE0 SHL PUSH1 0x0 MSTORE PUSH1 0x21 PUSH1 0x4 MSTORE PUSH1 0x24 PUSH1 0x0 REVERT JUMPDEST SWAP1 MSTORE SWAP1 POP PUSH2 0x1617 DUP6 DUP3 PUSH2 0x2EF7 JUMP JUMPDEST POP POP POP POP POP DUP1 DUP1 PUSH2 0x1627 SWAP1 PUSH2 0x565C JUMP JUMPDEST SWAP2 POP POP PUSH2 0x1424 JUMP JUMPDEST POP PUSH2 0x1665 DUP10 DUP7 DUP5 DUP9 PUSH1 0x60 ADD MLOAD PUSH2 0x1645 SWAP2 SWAP1 PUSH2 0x55CD JUMP JUMPDEST DUP7 DUP10 PUSH1 0x40 ADD MLOAD PUSH2 0x1655 SWAP2 SWAP1 PUSH2 0x55CD JUMP JUMPDEST DUP6 DUP11 PUSH1 0x80 ADD MLOAD PUSH2 0xD41 SWAP2 SWAP1 PUSH2 0x55CD JUMP JUMPDEST PUSH1 0x1A SLOAD PUSH1 0x60 DUP3 ADD MLOAD PUSH1 0x80 DUP4 ADD MLOAD PUSH1 0x40 MLOAD PUSH4 0x57A5C967 PUSH1 0xE0 SHL DUP2 MSTORE SWAP4 SWAP9 POP PUSH1 0x1 PUSH1 0x1 PUSH1 0xA0 SHL SUB SWAP1 SWAP3 AND SWAP3 PUSH4 0x57A5C967 SWAP3 PUSH2 0x16A5 SWAP3 DUP15 SWAP3 SWAP1 SWAP2 SWAP1 PUSH1 0x4 ADD PUSH2 0x556C JUMP JUMPDEST PUSH1 0x0 PUSH1 0x40 MLOAD DUP1 DUP4 SUB DUP2 PUSH1 0x0 DUP8 DUP1 EXTCODESIZE ISZERO DUP1 ISZERO PUSH2 0x16BF JUMPI PUSH1 0x0 DUP1 REVERT JUMPDEST POP GAS CALL ISZERO DUP1 ISZERO PUSH2 0x16D3 JUMPI RETURNDATASIZE PUSH1 0x0 DUP1 RETURNDATACOPY RETURNDATASIZE PUSH1 0x0 REVERT JUMPDEST POP POP POP POP PUSH1 0x0 JUMPDEST DUP8 DUP2 LT ISZERO PUSH2 0x1763 JUMPI PUSH1 0x0 PUSH2 0x1714 DUP9 DUP4 DUP2 MLOAD DUP2 LT PUSH2 0x1707 JUMPI PUSH4 0x4E487B71 PUSH1 0xE0 SHL PUSH1 0x0 MSTORE PUSH1 0x32 PUSH1 0x4 MSTORE PUSH1 0x24 PUSH1 0x0 REVERT JUMPDEST PUSH1 0x20 MUL PUSH1 0x20 ADD ADD MLOAD PUSH2 0x2A4C JUMP JUMPDEST SWAP1 POP PUSH2 0x1750 DUP9 DUP4 DUP2 MLOAD DUP2 LT PUSH2 0x1739 JUMPI PUSH4 0x4E487B71 PUSH1 0xE0 SHL PUSH1 0x0 MSTORE PUSH1 0x32 PUSH1 0x4 MSTORE PUSH1 0x24 PUSH1 0x0 REVERT JUMPDEST PUSH1 0x20 MUL PUSH1 0x20 ADD ADD MLOAD DUP3 PUSH1 0x60 ADD MLOAD DUP4 PUSH1 0x80 ADD MLOAD PUSH2 0x2FAF JUMP JUMPDEST POP DUP1 PUSH2 0x175B DUP2 PUSH2 0x565C JUMP JUMPDEST SWAP2 POP POP PUSH2 0x16DA JUMP JUMPDEST POP POP POP POP POP POP SWAP4 SWAP3 POP POP POP JUMP JUMPDEST PUSH1 0x0 PUSH1 0x1 PUSH1 0x1 PUSH1 0xA0 SHL SUB DUP3 AND PUSH2 0x17DB JUMPI PUSH1 0x40 MLOAD PUSH3 0x461BCD PUSH1 0xE5 SHL DUP2 MSTORE PUSH1 0x20 PUSH1 0x4 DUP3 ADD MSTORE PUSH1 0x2A PUSH1 0x24 DUP3 ADD MSTORE PUSH32 0x4552433732313A2062616C616E636520717565727920666F7220746865207A65 PUSH1 0x44 DUP3 ADD MSTORE PUSH10 0x726F2061646472657373 PUSH1 0xB0 SHL PUSH1 0x64 DUP3 ADD MSTORE PUSH1 0x84 ADD PUSH2 0x9E1 JUMP JUMPDEST POP PUSH1 0x1 PUSH1 0x1 PUSH1 0xA0 SHL SUB AND PUSH1 0x0 SWAP1 DUP2 MSTORE PUSH1 0x3 PUSH1 0x20 MSTORE PUSH1 0x40 SWAP1 KECCAK256 SLOAD SWAP1 JUMP JUMPDEST CALLER PUSH2 0x1800 PUSH2 0x1832 JUMP JUMPDEST PUSH1 0x1 PUSH1 0x1 PUSH1 0xA0 SHL SUB AND EQ PUSH2 0x1826 JUMPI PUSH1 0x40 MLOAD PUSH3 0x461BCD PUSH1 0xE5 SHL DUP2 MSTORE PUSH1 0x4 ADD PUSH2 0x9E1 SWAP1 PUSH2 0x541E JUMP JUMPDEST PUSH2 0x1830 PUSH1 0x0 PUSH2 0x301A JUMP JUMPDEST JUMP JUMPDEST PUSH1 0x6 SLOAD PUSH1 0x1 PUSH1 0x1 PUSH1 0xA0 SHL SUB AND SWAP1 JUMP JUMPDEST PUSH1 0x0 PUSH1 0x2 PUSH1 0x7 SLOAD EQ ISZERO PUSH2 0x1866 JUMPI PUSH1 0x40 MLOAD PUSH3 0x461BCD PUSH1 0xE5 SHL DUP2 MSTORE PUSH1 0x4 ADD PUSH2 0x9E1 SWAP1 PUSH2 0x54A4 JUMP JUMPDEST PUSH1 0x2 PUSH1 0x7 SSTORE PUSH2 0x187A DUP9 DUP9 DUP9 DUP9 DUP9 DUP9 DUP9 PUSH2 0x306C JUMP JUMPDEST PUSH1 0x1 PUSH1 0x7 SSTORE SWAP9 SWAP8 POP POP POP POP POP POP POP POP JUMP JUMPDEST PUSH1 0x0 SWAP2 DUP3 MSTORE PUSH1 0x8 PUSH1 0x20 SWAP1 DUP2 MSTORE PUSH1 0x40 DUP1 DUP5 KECCAK256 PUSH1 0x1 PUSH1 0x1 PUSH1 0xA0 SHL SUB SWAP4 SWAP1 SWAP4 AND DUP5 MSTORE SWAP2 SWAP1 MSTORE SWAP1 KECCAK256 SLOAD PUSH1 0xFF AND SWAP1 JUMP JUMPDEST PUSH1 0x60 PUSH1 0x1 DUP1 SLOAD PUSH2 0x8B1 SWAP1 PUSH2 0x5627 JUMP JUMPDEST PUSH1 0x1 PUSH1 0x1 PUSH1 0xA0 SHL SUB DUP3 AND CALLER EQ ISZERO PUSH2 0x191A JUMPI PUSH1 0x40 MLOAD PUSH3 0x461BCD PUSH1 0xE5 SHL DUP2 MSTORE PUSH1 0x20 PUSH1 0x4 DUP3 ADD MSTORE PUSH1 0x19 PUSH1 0x24 DUP3 ADD MSTORE PUSH25 0x22A9219B99189D1030B8383937BB32903A379031B0B63632B9 PUSH1 0x39 SHL PUSH1 0x44 DUP3 ADD MSTORE PUSH1 0x64 ADD PUSH2 0x9E1 JUMP JUMPDEST CALLER PUSH1 0x0 DUP2 DUP2 MSTORE PUSH1 0x5 PUSH1 0x20 SWAP1 DUP2 MSTORE PUSH1 0x40 DUP1 DUP4 KECCAK256 PUSH1 0x1 PUSH1 0x1 PUSH1 0xA0 SHL SUB DUP8 AND DUP1 DUP6 MSTORE SWAP1 DUP4 MSTORE SWAP3 DUP2 SWAP1 KECCAK256 DUP1 SLOAD PUSH1 0xFF NOT AND DUP7 ISZERO ISZERO SWAP1 DUP2 OR SWAP1 SWAP2 SSTORE SWAP1 MLOAD SWAP1 DUP2 MSTORE SWAP2 SWAP3 SWAP2 PUSH32 0x17307EAB39AB6107E8899845AD3D59BD9653F200F220920489CA2B5937696C31 SWAP2 ADD PUSH1 0x40 MLOAD DUP1 SWAP2 SUB SWAP1 LOG3 POP POP JUMP JUMPDEST PUSH1 0x0 DUP2 DUP2 MSTORE PUSH1 0xC PUSH1 0x20 MSTORE PUSH1 0x40 DUP2 KECCAK256 PUSH2 0x89C SWAP1 PUSH2 0x3610 JUMP JUMPDEST PUSH1 0x0 PUSH2 0x19A8 DUP3 PUSH2 0xDD0 JUMP JUMPDEST PUSH2 0x19DA JUMPI PUSH1 0x40 MLOAD PUSH3 0x461BCD PUSH1 0xE5 SHL DUP2 MSTORE PUSH1 0x20 PUSH1 0x4 DUP3 ADD MSTORE PUSH1 0x3 PUSH1 0x24 DUP3 ADD MSTORE PUSH3 0x4F313 PUSH1 0xEC SHL PUSH1 0x44 DUP3 ADD MSTORE PUSH1 0x64 ADD PUSH2 0x9E1 JUMP JUMPDEST PUSH1 0x0 DUP3 DUP2 MSTORE PUSH1 0x14 PUSH1 0x20 MSTORE PUSH1 0x40 SWAP1 KECCAK256 PUSH1 0x5 DUP2 ADD SLOAD TIMESTAMP LT ISZERO PUSH2 0x1A0C JUMPI PUSH1 0x40 MLOAD PUSH3 0x461BCD PUSH1 0xE5 SHL DUP2 MSTORE PUSH1 0x4 ADD PUSH2 0x9E1 SWAP1 PUSH2 0x54DB JUMP JUMPDEST PUSH1 0x1 DUP2 SLOAD PUSH1 0xFF AND PUSH1 0x3 DUP2 GT ISZERO PUSH2 0x1A32 JUMPI PUSH4 0x4E487B71 PUSH1 0xE0 SHL PUSH1 0x0 MSTORE PUSH1 0x21 PUSH1 0x4 MSTORE PUSH1 0x24 PUSH1 0x0 REVERT JUMPDEST EQ PUSH2 0x1A65 JUMPI PUSH1 0x40 MLOAD PUSH3 0x461BCD PUSH1 0xE5 SHL DUP2 MSTORE PUSH1 0x20 PUSH1 0x4 DUP3 ADD MSTORE PUSH1 0x3 PUSH1 0x24 DUP3 ADD MSTORE PUSH3 0x13CC4D PUSH1 0xEA SHL PUSH1 0x44 DUP3 ADD MSTORE PUSH1 0x64 ADD PUSH2 0x9E1 JUMP JUMPDEST PUSH1 0x5 DUP2 ADD SLOAD PUSH1 0x0 SWAP1 DUP2 MSTORE PUSH1 0x18 PUSH1 0x20 MSTORE PUSH1 0x40 SWAP1 KECCAK256 SLOAD DUP1 PUSH2 0x1A96 JUMPI PUSH1 0x40 MLOAD PUSH3 0x461BCD PUSH1 0xE5 SHL DUP2 MSTORE PUSH1 0x4 ADD PUSH2 0x9E1 SWAP1 PUSH2 0x53E5 JUMP JUMPDEST PUSH1 0x12 SLOAD PUSH1 0x40 MLOAD PUSH4 0x3906D29 PUSH1 0xE1 SHL DUP2 MSTORE PUSH1 0x4 DUP2 ADD DUP4 SWAP1 MSTORE PUSH1 0x0 SWAP2 PUSH1 0x1 PUSH1 0x1 PUSH1 0xA0 SHL SUB AND SWAP1 PUSH4 0x720DA52 SWAP1 PUSH1 0x24 ADD PUSH1 0xA0 PUSH1 0x40 MLOAD DUP1 DUP4 SUB DUP2 DUP7 DUP1 EXTCODESIZE ISZERO DUP1 ISZERO PUSH2 0x1ADB JUMPI PUSH1 0x0 DUP1 REVERT JUMPDEST POP GAS STATICCALL ISZERO DUP1 ISZERO PUSH2 0x1AEF JUMPI RETURNDATASIZE PUSH1 0x0 DUP1 RETURNDATACOPY RETURNDATASIZE PUSH1 0x0 REVERT JUMPDEST POP POP POP POP PUSH1 0x40 MLOAD RETURNDATASIZE PUSH1 0x1F NOT PUSH1 0x1F DUP3 ADD AND DUP3 ADD DUP1 PUSH1 0x40 MSTORE POP DUP2 ADD SWAP1 PUSH2 0x1B13 SWAP2 SWAP1 PUSH2 0x5141 JUMP JUMPDEST POP SWAP2 SWAP4 POP PUSH1 0x2 SWAP3 POP PUSH2 0x1B23 SWAP2 POP POP JUMP JUMPDEST PUSH1 0x6 DUP5 ADD SLOAD PUSH1 0xFF AND PUSH1 0x2 DUP2 GT ISZERO PUSH2 0x1B4A JUMPI PUSH4 0x4E487B71 PUSH1 0xE0 SHL PUSH1 0x0 MSTORE PUSH1 0x21 PUSH1 0x4 MSTORE PUSH1 0x24 PUSH1 0x0 REVERT JUMPDEST EQ ISZERO PUSH2 0x1B8F JUMPI DUP1 DUP4 PUSH1 0x1 ADD SLOAD GT ISZERO PUSH2 0x1B8A JUMPI PUSH1 0x40 MLOAD PUSH3 0x461BCD PUSH1 0xE5 SHL DUP2 MSTORE PUSH1 0x20 PUSH1 0x4 DUP3 ADD MSTORE PUSH1 0x3 PUSH1 0x24 DUP3 ADD MSTORE PUSH3 0x4F3137 PUSH1 0xE8 SHL PUSH1 0x44 DUP3 ADD MSTORE PUSH1 0x64 ADD PUSH2 0x9E1 JUMP JUMPDEST PUSH2 0x1BC9 JUMP JUMPDEST DUP1 DUP4 PUSH1 0x1 ADD SLOAD LT ISZERO PUSH2 0x1BC9 JUMPI PUSH1 0x40 MLOAD PUSH3 0x461BCD PUSH1 0xE5 SHL DUP2 MSTORE PUSH1 0x20 PUSH1 0x4 DUP3 ADD MSTORE PUSH1 0x3 PUSH1 0x24 DUP3 ADD MSTORE PUSH3 0x9E627 PUSH1 0xEB SHL PUSH1 0x44 DUP3 ADD MSTORE PUSH1 0x64 ADD PUSH2 0x9E1 JUMP JUMPDEST PUSH1 0x3 DUP4 ADD SLOAD PUSH1 0x1A SLOAD SWAP1 SWAP5 POP PUSH1 0x1 PUSH1 0x1 PUSH1 0xA0 SHL SUB AND PUSH4 0x81B34F15 DUP7 PUSH2 0x1BEC DUP2 PUSH2 0x1064 JUMP JUMPDEST PUSH1 0x40 MLOAD PUSH1 0x1 PUSH1 0x1 PUSH1 0xE0 SHL SUB NOT PUSH1 0xE0 DUP6 SWAP1 SHL AND DUP2 MSTORE PUSH1 0x4 DUP2 ADD SWAP3 SWAP1 SWAP3 MSTORE PUSH1 0x1 PUSH1 0x1 PUSH1 0xA0 SHL SUB AND PUSH1 0x24 DUP3 ADD MSTORE PUSH1 0x44 DUP2 ADD DUP8 SWAP1 MSTORE PUSH1 0x64 ADD PUSH1 0x0 PUSH1 0x40 MLOAD DUP1 DUP4 SUB DUP2 PUSH1 0x0 DUP8 DUP1 EXTCODESIZE ISZERO DUP1 ISZERO PUSH2 0x1C3A JUMPI PUSH1 0x0 DUP1 REVERT JUMPDEST POP GAS CALL ISZERO DUP1 ISZERO PUSH2 0x1C4E JUMPI RETURNDATASIZE PUSH1 0x0 DUP1 RETURNDATACOPY RETURNDATASIZE PUSH1 0x0 REVERT JUMPDEST POP POP POP POP PUSH2 0x1C5B DUP6 PUSH2 0x2907 JUMP JUMPDEST DUP3 SLOAD PUSH1 0xFF NOT AND PUSH1 0x2 OR DUP4 SSTORE PUSH1 0x40 MLOAD DUP5 DUP2 MSTORE DUP6 SWAP1 PUSH31 0x84FE51C7CB34B132B7B6EB5D5A87A489F8D6D284758D00A0402C1BAD9A0DEF SWAP1 PUSH1 0x20 ADD PUSH1 0x40 MLOAD DUP1 SWAP2 SUB SWAP1 LOG2 POP POP POP SWAP2 SWAP1 POP JUMP JUMPDEST PUSH2 0x1CAD CALLER JUMPDEST DUP4 PUSH2 0x248E JUMP JUMPDEST PUSH2 0x1CC9 JUMPI PUSH1 0x40 MLOAD PUSH3 0x461BCD PUSH1 0xE5 SHL DUP2 MSTORE PUSH1 0x4 ADD PUSH2 0x9E1 SWAP1 PUSH2 0x5453 JUMP JUMPDEST PUSH2 0x105E DUP5 DUP5 DUP5 DUP5 PUSH2 0x361A JUMP JUMPDEST DUP2 PUSH2 0x1D07 JUMPI PUSH1 0x40 MLOAD PUSH3 0x461BCD PUSH1 0xE5 SHL DUP2 MSTORE PUSH1 0x20 PUSH1 0x4 DUP3 ADD MSTORE PUSH1 0x2 PUSH1 0x24 DUP3 ADD MSTORE PUSH2 0x138D PUSH1 0xF2 SHL PUSH1 0x44 DUP3 ADD MSTORE PUSH1 0x64 ADD PUSH2 0x9E1 JUMP JUMPDEST PUSH1 0x0 PUSH2 0x1D12 DUP3 PUSH2 0x2A4C JUMP JUMPDEST PUSH1 0x60 DUP2 ADD MLOAD PUSH1 0x40 DUP3 ADD MLOAD PUSH1 0x80 DUP4 ADD MLOAD SWAP3 SWAP4 POP SWAP1 SWAP2 PUSH1 0x0 JUMPDEST DUP7 DUP2 LT ISZERO PUSH2 0x1E66 JUMPI PUSH1 0x0 PUSH2 0x1D62 DUP10 DUP10 DUP5 DUP2 DUP2 LT PUSH2 0x1D56 JUMPI PUSH4 0x4E487B71 PUSH1 0xE0 SHL PUSH1 0x0 MSTORE PUSH1 0x32 PUSH1 0x4 MSTORE PUSH1 0x24 PUSH1 0x0 REVERT JUMPDEST SWAP1 POP PUSH1 0x20 MUL ADD CALLDATALOAD PUSH2 0x2A4C JUMP JUMPDEST SWAP1 POP DUP1 PUSH1 0x60 ADD MLOAD DUP6 PUSH2 0x1D74 SWAP2 SWAP1 PUSH2 0x5582 JUMP JUMPDEST SWAP5 POP DUP1 PUSH1 0x40 ADD MLOAD DUP5 PUSH2 0x1D86 SWAP2 SWAP1 PUSH2 0x5582 JUMP JUMPDEST SWAP4 POP DUP1 PUSH1 0x80 ADD MLOAD DUP4 PUSH2 0x1D98 SWAP2 SWAP1 PUSH2 0x5582 JUMP JUMPDEST PUSH1 0x1A SLOAD SWAP1 SWAP4 POP PUSH1 0x1 PUSH1 0x1 PUSH1 0xA0 SHL SUB AND PUSH4 0xDBF21B0 DUP11 DUP11 DUP6 DUP2 DUP2 LT PUSH2 0x1DCC JUMPI PUSH4 0x4E487B71 PUSH1 0xE0 SHL PUSH1 0x0 MSTORE PUSH1 0x32 PUSH1 0x4 MSTORE PUSH1 0x24 PUSH1 0x0 REVERT JUMPDEST SWAP1 POP PUSH1 0x20 MUL ADD CALLDATALOAD PUSH1 0x40 MLOAD DUP3 PUSH4 0xFFFFFFFF AND PUSH1 0xE0 SHL DUP2 MSTORE PUSH1 0x4 ADD PUSH2 0x1DF1 SWAP2 DUP2 MSTORE PUSH1 0x20 ADD SWAP1 JUMP JUMPDEST PUSH1 0x0 PUSH1 0x40 MLOAD DUP1 DUP4 SUB DUP2 PUSH1 0x0 DUP8 DUP1 EXTCODESIZE ISZERO DUP1 ISZERO PUSH2 0x1E0B JUMPI PUSH1 0x0 DUP1 REVERT JUMPDEST POP GAS CALL ISZERO DUP1 ISZERO PUSH2 0x1E1F JUMPI RETURNDATASIZE PUSH1 0x0 DUP1 RETURNDATACOPY RETURNDATASIZE PUSH1 0x0 REVERT JUMPDEST POP POP POP POP PUSH2 0x1E53 DUP10 DUP10 DUP5 DUP2 DUP2 LT PUSH2 0x1E46 JUMPI PUSH4 0x4E487B71 PUSH1 0xE0 SHL PUSH1 0x0 MSTORE PUSH1 0x32 PUSH1 0x4 MSTORE PUSH1 0x24 PUSH1 0x0 REVERT JUMPDEST SWAP1 POP PUSH1 0x20 MUL ADD CALLDATALOAD DUP9 PUSH2 0x364D JUMP JUMPDEST POP DUP1 PUSH2 0x1E5E DUP2 PUSH2 0x565C JUMP JUMPDEST SWAP2 POP POP PUSH2 0x1D29 JUMP JUMPDEST POP PUSH2 0x1E74 DUP6 DUP6 DUP6 DUP6 DUP6 PUSH2 0x2B3B JUMP JUMPDEST POP PUSH1 0x1A SLOAD PUSH1 0x40 MLOAD PUSH4 0x57A5C967 PUSH1 0xE0 SHL DUP2 MSTORE PUSH1 0x1 PUSH1 0x1 PUSH1 0xA0 SHL SUB SWAP1 SWAP2 AND SWAP1 PUSH4 0x57A5C967 SWAP1 PUSH2 0x1EA9 SWAP1 DUP9 SWAP1 DUP8 SWAP1 DUP7 SWAP1 PUSH1 0x4 ADD PUSH2 0x556C JUMP JUMPDEST PUSH1 0x0 PUSH1 0x40 MLOAD DUP1 DUP4 SUB DUP2 PUSH1 0x0 DUP8 DUP1 EXTCODESIZE ISZERO DUP1 ISZERO PUSH2 0x1EC3 JUMPI PUSH1 0x0 DUP1 REVERT JUMPDEST POP GAS CALL ISZERO DUP1 ISZERO PUSH2 0x1ED7 JUMPI RETURNDATASIZE PUSH1 0x0 DUP1 RETURNDATACOPY RETURNDATASIZE PUSH1 0x0 REVERT JUMPDEST POP POP POP POP POP POP POP POP POP POP POP JUMP JUMPDEST PUSH1 0x0 SWAP1 DUP2 MSTORE PUSH1 0xF PUSH1 0x20 MSTORE PUSH1 0x40 SWAP1 KECCAK256 SLOAD SWAP1 JUMP JUMPDEST PUSH1 0x0 PUSH1 0x2 PUSH1 0x7 SLOAD EQ ISZERO PUSH2 0x1F1B JUMPI PUSH1 0x40 MLOAD PUSH3 0x461BCD PUSH1 0xE5 SHL DUP2 MSTORE PUSH1 0x4 ADD PUSH2 0x9E1 SWAP1 PUSH2 0x54A4 JUMP JUMPDEST PUSH1 0x2 PUSH1 0x7 SSTORE PUSH1 0x0 PUSH2 0x1F2C TIMESTAMP DUP9 PUSH2 0x55CD JUMP JUMPDEST SWAP1 POP PUSH2 0x1F3D DUP10 DUP10 DUP4 DUP10 DUP10 DUP10 DUP10 PUSH2 0x306C JUMP JUMPDEST PUSH1 0x1 PUSH1 0x7 SSTORE SWAP10 SWAP9 POP POP POP POP POP POP POP POP POP JUMP JUMPDEST PUSH1 0x60 PUSH2 0x89C DUP3 PUSH2 0x37C9 JUMP JUMPDEST PUSH1 0x15 PUSH1 0x20 MSTORE DUP2 PUSH1 0x0 MSTORE PUSH1 0x40 PUSH1 0x0 KECCAK256 DUP2 DUP2 SLOAD DUP2 LT PUSH2 0x1F76 JUMPI PUSH1 0x0 DUP1 REVERT JUMPDEST SWAP1 PUSH1 0x0 MSTORE PUSH1 0x20 PUSH1 0x0 KECCAK256 ADD PUSH1 0x0 SWAP2 POP SWAP2 POP POP SLOAD DUP2 JUMP JUMPDEST PUSH1 0x0 DUP3 DUP2 MSTORE PUSH1 0xC PUSH1 0x20 MSTORE PUSH1 0x40 DUP2 KECCAK256 PUSH2 0x1FA3 SWAP1 DUP4 PUSH2 0x392B JUMP JUMPDEST SWAP4 SWAP3 POP POP POP JUMP JUMPDEST PUSH2 0x1FB3 DUP3 PUSH2 0xB48 JUMP JUMPDEST PUSH2 0x1FBD DUP2 CALLER PUSH2 0x26F1 JUMP JUMPDEST PUSH2 0xB12 DUP4 DUP4 PUSH2 0x27DB JUMP JUMPDEST PUSH1 0x12 SLOAD PUSH1 0x40 MLOAD PUSH4 0x3906D29 PUSH1 0xE1 SHL DUP2 MSTORE PUSH1 0x4 DUP2 ADD DUP5 SWAP1 MSTORE PUSH1 0x0 SWAP2 DUP3 SWAP2 DUP3 SWAP2 PUSH1 0x1 PUSH1 0x1 PUSH1 0xA0 SHL SUB AND SWAP1 PUSH4 0x720DA52 SWAP1 PUSH1 0x24 ADD PUSH1 0xA0 PUSH1 0x40 MLOAD DUP1 DUP4 SUB DUP2 DUP7 DUP1 EXTCODESIZE ISZERO DUP1 ISZERO PUSH2 0x2010 JUMPI PUSH1 0x0 DUP1 REVERT JUMPDEST POP GAS STATICCALL ISZERO DUP1 ISZERO PUSH2 0x2024 JUMPI RETURNDATASIZE PUSH1 0x0 DUP1 RETURNDATACOPY RETURNDATASIZE PUSH1 0x0 REVERT JUMPDEST POP POP POP POP PUSH1 0x40 MLOAD RETURNDATASIZE PUSH1 0x1F NOT PUSH1 0x1F DUP3 ADD AND DUP3 ADD DUP1 PUSH1 0x40 MSTORE POP DUP2 ADD SWAP1 PUSH2 0x2048 SWAP2 SWAP1 PUSH2 0x5141 JUMP JUMPDEST POP PUSH1 0x0 DUP9 DUP2 MSTORE PUSH1 0x14 PUSH1 0x20 MSTORE PUSH1 0x40 SWAP1 KECCAK256 PUSH1 0x5 DUP2 ADD SLOAD SWAP4 SWAP7 POP SWAP1 SWAP5 POP SWAP3 POP POP DUP3 DUP2 LT PUSH2 0x2099 JUMPI PUSH1 0x40 MLOAD PUSH3 0x461BCD PUSH1 0xE5 SHL DUP2 MSTORE PUSH1 0x20 PUSH1 0x4 DUP3 ADD MSTORE PUSH1 0x2 PUSH1 0x24 DUP3 ADD MSTORE PUSH2 0x4331 PUSH1 0xF0 SHL PUSH1 0x44 DUP3 ADD MSTORE PUSH1 0x64 ADD PUSH2 0x9E1 JUMP JUMPDEST PUSH1 0x0 DUP2 DUP2 MSTORE PUSH1 0x18 PUSH1 0x20 MSTORE PUSH1 0x40 SWAP1 KECCAK256 SLOAD DUP1 PUSH2 0x21E4 JUMPI PUSH2 0x20B8 PUSH1 0x1 DUP10 PUSH2 0x55CD JUMP JUMPDEST SWAP1 POP JUMPDEST DUP6 PUSH2 0x21E4 JUMPI PUSH1 0x12 SLOAD PUSH1 0x40 MLOAD PUSH4 0x3906D29 PUSH1 0xE1 SHL DUP2 MSTORE PUSH1 0x4 DUP2 ADD DUP4 SWAP1 MSTORE PUSH1 0x0 SWAP2 PUSH1 0x1 PUSH1 0x1 PUSH1 0xA0 SHL SUB AND SWAP1 PUSH4 0x720DA52 SWAP1 PUSH1 0x24 ADD PUSH1 0xA0 PUSH1 0x40 MLOAD DUP1 DUP4 SUB DUP2 DUP7 DUP1 EXTCODESIZE ISZERO DUP1 ISZERO PUSH2 0x2105 JUMPI PUSH1 0x0 DUP1 REVERT JUMPDEST POP GAS STATICCALL ISZERO DUP1 ISZERO PUSH2 0x2119 JUMPI RETURNDATASIZE PUSH1 0x0 DUP1 RETURNDATACOPY RETURNDATASIZE PUSH1 0x0 REVERT JUMPDEST POP POP POP POP PUSH1 0x40 MLOAD RETURNDATASIZE PUSH1 0x1F NOT PUSH1 0x1F DUP3 ADD AND DUP3 ADD DUP1 PUSH1 0x40 MSTORE POP DUP2 ADD SWAP1 PUSH2 0x213D SWAP2 SWAP1 PUSH2 0x5141 JUMP JUMPDEST POP SWAP4 POP POP POP POP DUP1 PUSH1 0x0 EQ ISZERO PUSH2 0x2193 JUMPI PUSH1 0x0 DUP3 GT PUSH2 0x2181 JUMPI PUSH1 0x40 MLOAD PUSH3 0x461BCD PUSH1 0xE5 SHL DUP2 MSTORE PUSH1 0x20 PUSH1 0x4 DUP3 ADD MSTORE PUSH1 0x2 PUSH1 0x24 DUP3 ADD MSTORE PUSH2 0x4333 PUSH1 0xF0 SHL PUSH1 0x44 DUP3 ADD MSTORE PUSH1 0x64 ADD PUSH2 0x9E1 JUMP JUMPDEST PUSH2 0x218C PUSH1 0x1 DUP4 PUSH2 0x55CD JUMP JUMPDEST SWAP2 POP PUSH2 0x21DE JUMP JUMPDEST DUP3 DUP2 GT ISZERO PUSH2 0x21C8 JUMPI PUSH1 0x40 MLOAD PUSH3 0x461BCD PUSH1 0xE5 SHL DUP2 MSTORE PUSH1 0x20 PUSH1 0x4 DUP3 ADD MSTORE PUSH1 0x2 PUSH1 0x24 DUP3 ADD MSTORE PUSH2 0x10CD PUSH1 0xF2 SHL PUSH1 0x44 DUP3 ADD MSTORE PUSH1 0x64 ADD PUSH2 0x9E1 JUMP JUMPDEST PUSH1 0x0 DUP4 DUP2 MSTORE PUSH1 0x18 PUSH1 0x20 MSTORE PUSH1 0x40 SWAP1 KECCAK256 DUP3 SWAP1 SSTORE PUSH1 0x1 SWAP7 POP JUMPDEST POP PUSH2 0x20BB JUMP JUMPDEST POP POP POP POP POP SWAP3 SWAP2 POP POP JUMP JUMPDEST DUP1 PUSH1 0x0 JUMPDEST DUP2 DUP2 LT ISZERO PUSH2 0x105E JUMPI PUSH2 0x222A DUP5 DUP5 DUP4 DUP2 DUP2 LT PUSH2 0x221E JUMPI PUSH4 0x4E487B71 PUSH1 0xE0 SHL PUSH1 0x0 MSTORE PUSH1 0x32 PUSH1 0x4 MSTORE PUSH1 0x24 PUSH1 0x0 REVERT JUMPDEST SWAP1 POP PUSH1 0x20 MUL ADD CALLDATALOAD PUSH2 0xDDB JUMP JUMPDEST DUP1 PUSH2 0x2234 DUP2 PUSH2 0x565C JUMP JUMPDEST SWAP2 POP POP PUSH2 0x21F3 JUMP JUMPDEST PUSH1 0x1 PUSH1 0x1 PUSH1 0xA0 SHL SUB SWAP2 DUP3 AND PUSH1 0x0 SWAP1 DUP2 MSTORE PUSH1 0x5 PUSH1 0x20 SWAP1 DUP2 MSTORE PUSH1 0x40 DUP1 DUP4 KECCAK256 SWAP4 SWAP1 SWAP5 AND DUP3 MSTORE SWAP2 SWAP1 SWAP2 MSTORE KECCAK256 SLOAD PUSH1 0xFF AND SWAP1 JUMP JUMPDEST CALLER PUSH2 0x2273 PUSH2 0x1832 JUMP JUMPDEST PUSH1 0x1 PUSH1 0x1 PUSH1 0xA0 SHL SUB AND EQ PUSH2 0x2299 JUMPI PUSH1 0x40 MLOAD PUSH3 0x461BCD PUSH1 0xE5 SHL DUP2 MSTORE PUSH1 0x4 ADD PUSH2 0x9E1 SWAP1 PUSH2 0x541E JUMP JUMPDEST PUSH1 0x1 PUSH1 0x1 PUSH1 0xA0 SHL SUB DUP2 AND PUSH2 0x22FE JUMPI PUSH1 0x40 MLOAD PUSH3 0x461BCD PUSH1 0xE5 SHL DUP2 MSTORE PUSH1 0x20 PUSH1 0x4 DUP3 ADD MSTORE PUSH1 0x26 PUSH1 0x24 DUP3 ADD MSTORE PUSH32 0x4F776E61626C653A206E6577206F776E657220697320746865207A65726F2061 PUSH1 0x44 DUP3 ADD MSTORE PUSH6 0x646472657373 PUSH1 0xD0 SHL PUSH1 0x64 DUP3 ADD MSTORE PUSH1 0x84 ADD PUSH2 0x9E1 JUMP JUMPDEST PUSH2 0xCAB DUP2 PUSH2 0x301A JUMP JUMPDEST PUSH1 0x0 PUSH2 0x2311 PUSH2 0x2DB3 JUMP JUMPDEST SWAP1 POP PUSH1 0x0 DUP1 PUSH1 0x0 DUP1 PUSH2 0x2323 DUP8 DUP8 PUSH2 0x291F JUMP JUMPDEST SWAP4 POP SWAP4 POP SWAP4 POP SWAP4 POP PUSH1 0x0 PUSH1 0x40 MLOAD DUP1 PUSH1 0xE0 ADD PUSH1 0x40 MSTORE DUP1 DUP4 PUSH1 0x0 ADD MLOAD PUSH1 0x3 DUP2 GT ISZERO PUSH2 0x235C JUMPI PUSH4 0x4E487B71 PUSH1 0xE0 SHL PUSH1 0x0 MSTORE PUSH1 0x21 PUSH1 0x4 MSTORE PUSH1 0x24 PUSH1 0x0 REVERT JUMPDEST DUP2 MSTORE PUSH1 0x20 ADD DUP4 PUSH1 0x20 ADD MLOAD DUP2 MSTORE PUSH1 0x20 ADD DUP7 DUP2 MSTORE PUSH1 0x20 ADD DUP5 DUP2 MSTORE PUSH1 0x20 ADD DUP6 DUP2 MSTORE PUSH1 0x20 ADD DUP4 PUSH1 0xA0 ADD MLOAD DUP2 MSTORE PUSH1 0x20 ADD DUP4 PUSH1 0xC0 ADD MLOAD PUSH1 0x2 DUP2 GT ISZERO PUSH2 0x23AB JUMPI PUSH4 0x4E487B71 PUSH1 0xE0 SHL PUSH1 0x0 MSTORE PUSH1 0x21 PUSH1 0x4 MSTORE PUSH1 0x24 PUSH1 0x0 REVERT JUMPDEST SWAP1 MSTORE SWAP1 POP PUSH2 0x23B9 DUP7 DUP3 PUSH2 0x2EF7 JUMP JUMPDEST PUSH2 0x23C4 DUP7 DUP5 DUP7 PUSH2 0x2FAF JUMP JUMPDEST PUSH2 0x23D1 DUP11 DUP11 DUP11 DUP10 DUP12 PUSH2 0x2B6D JUMP JUMPDEST POP POP POP POP POP SWAP5 SWAP4 POP POP POP POP JUMP JUMPDEST PUSH1 0x0 PUSH1 0x1 PUSH1 0x1 PUSH1 0xE0 SHL SUB NOT DUP3 AND PUSH4 0x7965DB0B PUSH1 0xE0 SHL EQ DUP1 PUSH2 0x89C JUMPI POP PUSH2 0x89C DUP3 PUSH2 0x3937 JUMP JUMPDEST PUSH1 0x0 SWAP1 DUP2 MSTORE PUSH1 0x2 PUSH1 0x20 MSTORE PUSH1 0x40 SWAP1 KECCAK256 SLOAD PUSH1 0x1 PUSH1 0x1 PUSH1 0xA0 SHL SUB AND ISZERO ISZERO SWAP1 JUMP JUMPDEST PUSH1 0x0 DUP2 DUP2 MSTORE PUSH1 0x4 PUSH1 0x20 MSTORE PUSH1 0x40 SWAP1 KECCAK256 DUP1 SLOAD PUSH1 0x1 PUSH1 0x1 PUSH1 0xA0 SHL SUB NOT AND PUSH1 0x1 PUSH1 0x1 PUSH1 0xA0 SHL SUB DUP5 AND SWAP1 DUP2 OR SWAP1 SWAP2 SSTORE DUP2 SWAP1 PUSH2 0x2455 DUP3 PUSH2 0x1064 JUMP JUMPDEST PUSH1 0x1 PUSH1 0x1 PUSH1 0xA0 SHL SUB AND PUSH32 0x8C5BE1E5EBEC7D5BD14F71427D1E84F3DD0314C0F7B2291E5B200AC8C7C3B925 PUSH1 0x40 MLOAD PUSH1 0x40 MLOAD DUP1 SWAP2 SUB SWAP1 LOG4 POP POP JUMP JUMPDEST PUSH1 0x0 PUSH2 0x2499 DUP3 PUSH2 0x2403 JUMP JUMPDEST PUSH2 0x24FA JUMPI PUSH1 0x40 MLOAD PUSH3 0x461BCD PUSH1 0xE5 SHL DUP2 MSTORE PUSH1 0x20 PUSH1 0x4 DUP3 ADD MSTORE PUSH1 0x2C PUSH1 0x24 DUP3 ADD MSTORE PUSH32 0x4552433732313A206F70657261746F7220717565727920666F72206E6F6E6578 PUSH1 0x44 DUP3 ADD MSTORE PUSH12 0x34B9BA32B73A103A37B5B2B7 PUSH1 0xA1 SHL PUSH1 0x64 DUP3 ADD MSTORE PUSH1 0x84 ADD PUSH2 0x9E1 JUMP JUMPDEST PUSH1 0x0 PUSH2 0x2505 DUP4 PUSH2 0x1064 JUMP JUMPDEST SWAP1 POP DUP1 PUSH1 0x1 PUSH1 0x1 PUSH1 0xA0 SHL SUB AND DUP5 PUSH1 0x1 PUSH1 0x1 PUSH1 0xA0 SHL SUB AND EQ DUP1 PUSH2 0x2540 JUMPI POP DUP4 PUSH1 0x1 PUSH1 0x1 PUSH1 0xA0 SHL SUB AND PUSH2 0x2535 DUP5 PUSH2 0x979 JUMP JUMPDEST PUSH1 0x1 PUSH1 0x1 PUSH1 0xA0 SHL SUB AND EQ JUMPDEST DUP1 PUSH2 0x2550 JUMPI POP PUSH2 0x2550 DUP2 DUP6 PUSH2 0x223C JUMP JUMPDEST SWAP5 SWAP4 POP POP POP POP JUMP JUMPDEST DUP3 PUSH1 0x1 PUSH1 0x1 PUSH1 0xA0 SHL SUB AND PUSH2 0x256B DUP3 PUSH2 0x1064 JUMP JUMPDEST PUSH1 0x1 PUSH1 0x1 PUSH1 0xA0 SHL SUB AND EQ PUSH2 0x25D3 JUMPI PUSH1 0x40 MLOAD PUSH3 0x461BCD PUSH1 0xE5 SHL DUP2 MSTORE PUSH1 0x20 PUSH1 0x4 DUP3 ADD MSTORE PUSH1 0x29 PUSH1 0x24 DUP3 ADD MSTORE PUSH32 0x4552433732313A207472616E73666572206F6620746F6B656E20746861742069 PUSH1 0x44 DUP3 ADD MSTORE PUSH9 0x39903737BA1037BBB7 PUSH1 0xB9 SHL PUSH1 0x64 DUP3 ADD MSTORE PUSH1 0x84 ADD PUSH2 0x9E1 JUMP JUMPDEST PUSH1 0x1 PUSH1 0x1 PUSH1 0xA0 SHL SUB DUP3 AND PUSH2 0x2635 JUMPI PUSH1 0x40 MLOAD PUSH3 0x461BCD PUSH1 0xE5 SHL DUP2 MSTORE PUSH1 0x20 PUSH1 0x4 DUP3 ADD MSTORE PUSH1 0x24 DUP1 DUP3 ADD MSTORE PUSH32 0x4552433732313A207472616E7366657220746F20746865207A65726F20616464 PUSH1 0x44 DUP3 ADD MSTORE PUSH4 0x72657373 PUSH1 0xE0 SHL PUSH1 0x64 DUP3 ADD MSTORE PUSH1 0x84 ADD PUSH2 0x9E1 JUMP JUMPDEST PUSH2 0x2640 DUP4 DUP4 DUP4 PUSH2 0x3987 JUMP JUMPDEST PUSH2 0x264B PUSH1 0x0 DUP3 PUSH2 0x2420 JUMP JUMPDEST PUSH1 0x1 PUSH1 0x1 PUSH1 0xA0 SHL SUB DUP4 AND PUSH1 0x0 SWAP1 DUP2 MSTORE PUSH1 0x3 PUSH1 0x20 MSTORE PUSH1 0x40 DUP2 KECCAK256 DUP1 SLOAD PUSH1 0x1 SWAP3 SWAP1 PUSH2 0x2674 SWAP1 DUP5 SWAP1 PUSH2 0x55CD JUMP JUMPDEST SWAP1 SWAP2 SSTORE POP POP PUSH1 0x1 PUSH1 0x1 PUSH1 0xA0 SHL SUB DUP3 AND PUSH1 0x0 SWAP1 DUP2 MSTORE PUSH1 0x3 PUSH1 0x20 MSTORE PUSH1 0x40 DUP2 KECCAK256 DUP1 SLOAD PUSH1 0x1 SWAP3 SWAP1 PUSH2 0x26A2 SWAP1 DUP5 SWAP1 PUSH2 0x5582 JUMP JUMPDEST SWAP1 SWAP2 SSTORE POP POP PUSH1 0x0 DUP2 DUP2 MSTORE PUSH1 0x2 PUSH1 0x20 MSTORE PUSH1 0x40 DUP1 DUP3 KECCAK256 DUP1 SLOAD PUSH1 0x1 PUSH1 0x1 PUSH1 0xA0 SHL SUB NOT AND PUSH1 0x1 PUSH1 0x1 PUSH1 0xA0 SHL SUB DUP7 DUP2 AND SWAP2 DUP3 OR SWAP1 SWAP3 SSTORE SWAP2 MLOAD DUP5 SWAP4 SWAP2 DUP8 AND SWAP2 PUSH1 0x0 DUP1 MLOAD PUSH1 0x20 PUSH2 0x573F DUP4 CODECOPY DUP2 MLOAD SWAP2 MSTORE SWAP2 LOG4 POP POP POP JUMP JUMPDEST PUSH2 0x26FB DUP3 DUP3 PUSH2 0x188B JUMP JUMPDEST PUSH2 0xC06 JUMPI PUSH2 0x2713 DUP2 PUSH1 0x1 PUSH1 0x1 PUSH1 0xA0 SHL SUB AND PUSH1 0x14 PUSH2 0x399F JUMP JUMPDEST PUSH2 0x271E DUP4 PUSH1 0x20 PUSH2 0x399F JUMP JUMPDEST PUSH1 0x40 MLOAD PUSH1 0x20 ADD PUSH2 0x272F SWAP3 SWAP2 SWAP1 PUSH2 0x51FF JUMP JUMPDEST PUSH1 0x40 DUP1 MLOAD PUSH1 0x1F NOT DUP2 DUP5 SUB ADD DUP2 MSTORE SWAP1 DUP3 SWAP1 MSTORE PUSH3 0x461BCD PUSH1 0xE5 SHL DUP3 MSTORE PUSH2 0x9E1 SWAP2 PUSH1 0x4 ADD PUSH2 0x5364 JUMP JUMPDEST PUSH2 0x275F DUP3 DUP3 PUSH2 0x188B JUMP JUMPDEST PUSH2 0xC06 JUMPI PUSH1 0x0 DUP3 DUP2 MSTORE PUSH1 0x8 PUSH1 0x20 SWAP1 DUP2 MSTORE PUSH1 0x40 DUP1 DUP4 KECCAK256 PUSH1 0x1 PUSH1 0x1 PUSH1 0xA0 SHL SUB DUP6 AND DUP5 MSTORE SWAP1 SWAP2 MSTORE SWAP1 KECCAK256 DUP1 SLOAD PUSH1 0xFF NOT AND PUSH1 0x1 OR SWAP1 SSTORE PUSH2 0x2797 CALLER SWAP1 JUMP JUMPDEST PUSH1 0x1 PUSH1 0x1 PUSH1 0xA0 SHL SUB AND DUP2 PUSH1 0x1 PUSH1 0x1 PUSH1 0xA0 SHL SUB AND DUP4 PUSH32 0x2F8788117E7EFF1D82E926EC794901D17C78024A50270940304540A733656F0D PUSH1 0x40 MLOAD PUSH1 0x40 MLOAD DUP1 SWAP2 SUB SWAP1 LOG4 POP POP JUMP JUMPDEST PUSH2 0x27E5 DUP3 DUP3 PUSH2 0x188B JUMP JUMPDEST ISZERO PUSH2 0xC06 JUMPI PUSH1 0x0 DUP3 DUP2 MSTORE PUSH1 0x8 PUSH1 0x20 SWAP1 DUP2 MSTORE PUSH1 0x40 DUP1 DUP4 KECCAK256 PUSH1 0x1 PUSH1 0x1 PUSH1 0xA0 SHL SUB DUP6 AND DUP1 DUP6 MSTORE SWAP3 MSTORE DUP1 DUP4 KECCAK256 DUP1 SLOAD PUSH1 0xFF NOT AND SWAP1 SSTORE MLOAD CALLER SWAP3 DUP6 SWAP2 PUSH32 0xF6391F5C32D9C69D2A47EA670B442974B53935D1EDC7FD64EB21E047A839171B SWAP2 SWAP1 LOG4 POP POP JUMP JUMPDEST PUSH1 0x0 DUP3 DUP2 MSTORE PUSH1 0xB PUSH1 0x20 SWAP1 DUP2 MSTORE PUSH1 0x40 DUP1 DUP4 KECCAK256 PUSH1 0x1 PUSH1 0x1 PUSH1 0xA0 SHL SUB DUP8 AND DUP5 MSTORE PUSH1 0x1 ADD SWAP1 SWAP2 MSTORE SWAP1 KECCAK256 SLOAD PUSH2 0x28A4 JUMPI PUSH1 0x0 DUP3 DUP2 MSTORE PUSH1 0xB PUSH1 0x20 SWAP1 DUP2 MSTORE PUSH1 0x40 DUP3 KECCAK256 DUP1 SLOAD PUSH1 0x1 DUP2 ADD DUP3 SSTORE SWAP1 DUP4 MSTORE SWAP2 KECCAK256 ADD DUP1 SLOAD PUSH1 0x1 PUSH1 0x1 PUSH1 0xA0 SHL SUB NOT AND PUSH1 0x1 PUSH1 0x1 PUSH1 0xA0 SHL SUB DUP6 AND OR SWAP1 SSTORE JUMPDEST PUSH1 0x0 DUP3 DUP2 MSTORE PUSH1 0xB PUSH1 0x20 SWAP1 DUP2 MSTORE PUSH1 0x40 DUP1 DUP4 KECCAK256 PUSH1 0x1 PUSH1 0x1 PUSH1 0xA0 SHL SUB DUP8 AND DUP1 DUP6 MSTORE PUSH1 0x1 SWAP1 SWAP2 ADD DUP4 MSTORE SWAP3 DUP2 SWAP1 KECCAK256 DUP5 SWAP1 SSTORE MLOAD DUP4 DUP2 MSTORE DUP5 SWAP3 SWAP2 PUSH32 0x8A156BD946DC74EC284C5F4B365CE75EF2A5B9D9462B4CDB1D2400CABF136541 SWAP2 ADD PUSH1 0x40 MLOAD DUP1 SWAP2 SUB SWAP1 LOG3 POP POP POP JUMP JUMPDEST PUSH1 0x0 DUP2 DUP2 MSTORE PUSH1 0xA PUSH1 0x20 MSTORE PUSH1 0x40 DUP2 KECCAK256 SSTORE PUSH2 0xCAB DUP2 PUSH2 0x3B80 JUMP JUMPDEST PUSH1 0x0 DUP1 PUSH1 0x0 PUSH2 0x292C PUSH2 0x4A94 JUMP JUMPDEST PUSH2 0x2935 DUP7 PUSH2 0x2A4C JUMP JUMPDEST SWAP1 POP PUSH1 0x0 PUSH2 0x2942 DUP8 PUSH2 0x1EE4 JUMP JUMPDEST SWAP1 POP DUP1 DUP7 DUP4 PUSH1 0x40 ADD MLOAD PUSH2 0x2955 SWAP2 SWAP1 PUSH2 0x55AE JUMP JUMPDEST PUSH2 0x295F SWAP2 SWAP1 PUSH2 0x559A JUMP JUMPDEST SWAP5 POP DUP1 DUP7 DUP4 PUSH1 0x80 ADD MLOAD PUSH2 0x2972 SWAP2 SWAP1 PUSH2 0x55AE JUMP JUMPDEST PUSH2 0x297C SWAP2 SWAP1 PUSH2 0x559A JUMP JUMPDEST SWAP4 POP DUP1 DUP7 DUP4 PUSH1 0x60 ADD MLOAD PUSH2 0x298F SWAP2 SWAP1 PUSH2 0x55AE JUMP JUMPDEST PUSH2 0x2999 SWAP2 SWAP1 PUSH2 0x559A JUMP JUMPDEST SWAP3 POP PUSH2 0x29D0 DUP8 DUP4 DUP6 DUP6 PUSH1 0x60 ADD MLOAD PUSH2 0x29B0 SWAP2 SWAP1 PUSH2 0x55CD JUMP JUMPDEST DUP9 DUP7 PUSH1 0x40 ADD MLOAD PUSH2 0x29C0 SWAP2 SWAP1 PUSH2 0x55CD JUMP JUMPDEST DUP9 DUP8 PUSH1 0x80 ADD MLOAD PUSH2 0xD41 SWAP2 SWAP1 PUSH2 0x55CD JUMP JUMPDEST PUSH1 0x1A SLOAD PUSH1 0x60 DUP3 ADD MLOAD PUSH1 0x80 DUP4 ADD MLOAD PUSH1 0x40 MLOAD PUSH4 0x57A5C967 PUSH1 0xE0 SHL DUP2 MSTORE SWAP4 SWAP6 POP PUSH1 0x1 PUSH1 0x1 PUSH1 0xA0 SHL SUB SWAP1 SWAP3 AND SWAP3 PUSH4 0x57A5C967 SWAP3 PUSH2 0x2A10 SWAP3 DUP13 SWAP3 SWAP1 SWAP2 SWAP1 PUSH1 0x4 ADD PUSH2 0x556C JUMP JUMPDEST PUSH1 0x0 PUSH1 0x40 MLOAD DUP1 DUP4 SUB DUP2 PUSH1 0x0 DUP8 DUP1 EXTCODESIZE ISZERO DUP1 ISZERO PUSH2 0x2A2A JUMPI PUSH1 0x0 DUP1 REVERT JUMPDEST POP GAS CALL ISZERO DUP1 ISZERO PUSH2 0x2A3E JUMPI RETURNDATASIZE PUSH1 0x0 DUP1 RETURNDATACOPY RETURNDATASIZE PUSH1 0x0 REVERT JUMPDEST POP POP POP POP POP SWAP3 SWAP6 SWAP2 SWAP5 POP SWAP3 POP JUMP JUMPDEST PUSH2 0x2A54 PUSH2 0x4A94 JUMP JUMPDEST PUSH1 0x0 DUP3 DUP2 MSTORE PUSH1 0x14 PUSH1 0x20 MSTORE PUSH1 0x40 SWAP1 DUP2 SWAP1 KECCAK256 DUP2 MLOAD PUSH1 0xE0 DUP2 ADD SWAP1 SWAP3 MSTORE DUP1 SLOAD DUP3 SWAP1 PUSH1 0xFF AND PUSH1 0x3 DUP2 GT ISZERO PUSH2 0x2A93 JUMPI PUSH4 0x4E487B71 PUSH1 0xE0 SHL PUSH1 0x0 MSTORE PUSH1 0x21 PUSH1 0x4 MSTORE PUSH1 0x24 PUSH1 0x0 REVERT JUMPDEST PUSH1 0x3 DUP2 GT ISZERO PUSH2 0x2AB2 JUMPI PUSH4 0x4E487B71 PUSH1 0xE0 SHL PUSH1 0x0 MSTORE PUSH1 0x21 PUSH1 0x4 MSTORE PUSH1 0x24 PUSH1 0x0 REVERT JUMPDEST DUP2 MSTORE PUSH1 0x1 DUP3 ADD SLOAD PUSH1 0x20 DUP3 ADD MSTORE PUSH1 0x2 DUP1 DUP4 ADD SLOAD PUSH1 0x40 DUP4 ADD MSTORE PUSH1 0x3 DUP4 ADD SLOAD PUSH1 0x60 DUP4 ADD MSTORE PUSH1 0x4 DUP4 ADD SLOAD PUSH1 0x80 DUP4 ADD MSTORE PUSH1 0x5 DUP4 ADD SLOAD PUSH1 0xA0 DUP4 ADD MSTORE PUSH1 0x6 DUP4 ADD SLOAD PUSH1 0xC0 SWAP1 SWAP3 ADD SWAP2 PUSH1 0xFF AND SWAP1 DUP2 GT ISZERO PUSH2 0x2B13 JUMPI PUSH4 0x4E487B71 PUSH1 0xE0 SHL PUSH1 0x0 MSTORE PUSH1 0x21 PUSH1 0x4 MSTORE PUSH1 0x24 PUSH1 0x0 REVERT JUMPDEST PUSH1 0x2 DUP2 GT ISZERO PUSH2 0x2B32 JUMPI PUSH4 0x4E487B71 PUSH1 0xE0 SHL PUSH1 0x0 MSTORE PUSH1 0x21 PUSH1 0x4 MSTORE PUSH1 0x24 PUSH1 0x0 REVERT JUMPDEST SWAP1 MSTORE POP SWAP3 SWAP2 POP POP JUMP JUMPDEST PUSH2 0x2B43 PUSH2 0x4A94 JUMP JUMPDEST POP PUSH1 0x60 DUP5 ADD DUP4 SWAP1 MSTORE PUSH1 0x40 DUP5 ADD DUP3 SWAP1 MSTORE PUSH1 0x80 DUP5 ADD DUP2 SWAP1 MSTORE DUP4 PUSH2 0x2B64 DUP7 DUP3 PUSH2 0x2EF7 JUMP JUMPDEST SWAP6 SWAP5 POP POP POP POP POP JUMP JUMPDEST PUSH2 0x2B76 DUP4 PUSH2 0x1064 JUMP JUMPDEST PUSH1 0x1 PUSH1 0x1 PUSH1 0xA0 SHL SUB AND DUP6 PUSH1 0x1 PUSH1 0x1 PUSH1 0xA0 SHL SUB AND EQ PUSH2 0x2BBB JUMPI PUSH1 0x40 MLOAD PUSH3 0x461BCD PUSH1 0xE5 SHL DUP2 MSTORE PUSH1 0x20 PUSH1 0x4 DUP3 ADD MSTORE PUSH1 0x2 PUSH1 0x24 DUP3 ADD MSTORE PUSH2 0x4E39 PUSH1 0xF0 SHL PUSH1 0x44 DUP3 ADD MSTORE PUSH1 0x64 ADD PUSH2 0x9E1 JUMP JUMPDEST PUSH1 0x1 PUSH1 0x1 PUSH1 0xA0 SHL SUB DUP5 AND PUSH2 0x2BF7 JUMPI PUSH1 0x40 MLOAD PUSH3 0x461BCD PUSH1 0xE5 SHL DUP2 MSTORE PUSH1 0x20 PUSH1 0x4 DUP3 ADD MSTORE PUSH1 0x3 PUSH1 0x24 DUP3 ADD MSTORE PUSH3 0x4E313 PUSH1 0xEC SHL PUSH1 0x44 DUP3 ADD MSTORE PUSH1 0x64 ADD PUSH2 0x9E1 JUMP JUMPDEST CALLER PUSH1 0x1 PUSH1 0x1 PUSH1 0xA0 SHL SUB DUP7 AND EQ DUP1 ISZERO SWAP1 PUSH2 0x2C17 JUMPI POP PUSH2 0x2C15 DUP6 CALLER PUSH2 0x223C JUMP JUMPDEST ISZERO JUMPDEST ISZERO PUSH2 0x2C62 JUMPI PUSH1 0x0 DUP4 DUP2 MSTORE PUSH1 0xB PUSH1 0x20 SWAP1 DUP2 MSTORE PUSH1 0x40 DUP1 DUP4 KECCAK256 CALLER DUP5 MSTORE PUSH1 0x1 ADD SWAP1 SWAP2 MSTORE SWAP1 KECCAK256 SLOAD PUSH2 0x2C44 SWAP1 DUP3 SWAP1 PUSH2 0x55CD JUMP JUMPDEST PUSH1 0x0 DUP5 DUP2 MSTORE PUSH1 0xB PUSH1 0x20 SWAP1 DUP2 MSTORE PUSH1 0x40 DUP1 DUP4 KECCAK256 CALLER DUP5 MSTORE PUSH1 0x1 ADD SWAP1 SWAP2 MSTORE SWAP1 KECCAK256 SSTORE JUMPDEST PUSH1 0x0 DUP4 DUP2 MSTORE PUSH1 0xF PUSH1 0x20 MSTORE PUSH1 0x40 SWAP1 KECCAK256 SLOAD PUSH2 0x2C7C SWAP1 DUP3 SWAP1 PUSH2 0x55CD JUMP JUMPDEST PUSH1 0x0 DUP5 DUP2 MSTORE PUSH1 0xF PUSH1 0x20 MSTORE PUSH1 0x40 SWAP1 KECCAK256 SSTORE PUSH2 0x2C94 DUP3 PUSH2 0x2403 JUMP JUMPDEST PUSH2 0x2CB1 JUMPI PUSH2 0x2CAC DUP5 DUP4 PUSH2 0x2CA6 DUP7 PUSH2 0xB5D JUMP JUMPDEST DUP5 PUSH2 0x3C12 JUMP JUMPDEST PUSH2 0x2D59 JUMP JUMPDEST DUP4 PUSH1 0x1 PUSH1 0x1 PUSH1 0xA0 SHL SUB AND PUSH2 0x2CC4 DUP4 PUSH2 0x1064 JUMP JUMPDEST PUSH1 0x1 PUSH1 0x1 PUSH1 0xA0 SHL SUB AND EQ PUSH2 0x2D00 JUMPI PUSH1 0x40 MLOAD PUSH3 0x461BCD PUSH1 0xE5 SHL DUP2 MSTORE PUSH1 0x20 PUSH1 0x4 DUP3 ADD MSTORE PUSH1 0x3 PUSH1 0x24 DUP3 ADD MSTORE PUSH3 0x4E3131 PUSH1 0xE8 SHL PUSH1 0x44 DUP3 ADD MSTORE PUSH1 0x64 ADD PUSH2 0x9E1 JUMP JUMPDEST PUSH2 0x2D09 DUP3 PUSH2 0xB5D JUMP JUMPDEST PUSH2 0x2D12 DUP5 PUSH2 0xB5D JUMP JUMPDEST EQ PUSH2 0x2D2F JUMPI PUSH1 0x40 MLOAD PUSH3 0x461BCD PUSH1 0xE5 SHL DUP2 MSTORE PUSH1 0x4 ADD PUSH2 0x9E1 SWAP1 PUSH2 0x5402 JUMP JUMPDEST PUSH1 0x0 DUP3 DUP2 MSTORE PUSH1 0xF PUSH1 0x20 MSTORE PUSH1 0x40 SWAP1 KECCAK256 SLOAD PUSH2 0x2D49 SWAP1 DUP3 SWAP1 PUSH2 0x5582 JUMP JUMPDEST PUSH1 0x0 DUP4 DUP2 MSTORE PUSH1 0xF PUSH1 0x20 MSTORE PUSH1 0x40 SWAP1 KECCAK256 SSTORE JUMPDEST PUSH1 0x0 DUP4 DUP2 MSTORE PUSH1 0xA PUSH1 0x20 MSTORE PUSH1 0x40 DUP1 DUP3 KECCAK256 SLOAD DUP5 DUP4 MSTORE SWAP2 DUP2 SWAP1 KECCAK256 SWAP2 SWAP1 SWAP2 SSTORE MLOAD DUP4 SWAP1 PUSH1 0x1 PUSH1 0x1 PUSH1 0xA0 SHL SUB DUP1 DUP8 AND SWAP2 SWAP1 DUP9 AND SWAP1 PUSH1 0x0 DUP1 MLOAD PUSH1 0x20 PUSH2 0x575F DUP4 CODECOPY DUP2 MLOAD SWAP2 MSTORE SWAP1 PUSH2 0x2DA4 SWAP1 DUP8 SWAP1 DUP8 SWAP1 PUSH2 0x5356 JUMP JUMPDEST PUSH1 0x40 MLOAD DUP1 SWAP2 SUB SWAP1 LOG4 POP POP POP POP POP JUMP JUMPDEST PUSH1 0x13 DUP1 SLOAD PUSH1 0x0 SWAP2 DUP3 PUSH2 0x2DC4 DUP4 PUSH2 0x565C JUMP JUMPDEST SWAP2 SWAP1 POP SSTORE SWAP1 POP SWAP1 JUMP JUMPDEST PUSH2 0x2DD7 CALLER DUP5 PUSH2 0x248E JUMP JUMPDEST PUSH2 0x2E08 JUMPI PUSH1 0x40 MLOAD PUSH3 0x461BCD PUSH1 0xE5 SHL DUP2 MSTORE PUSH1 0x20 PUSH1 0x4 DUP3 ADD MSTORE PUSH1 0x2 PUSH1 0x24 DUP3 ADD MSTORE PUSH2 0x2719 PUSH1 0xF1 SHL PUSH1 0x44 DUP3 ADD MSTORE PUSH1 0x64 ADD PUSH2 0x9E1 JUMP JUMPDEST PUSH2 0x2E11 DUP3 PUSH2 0x2403 JUMP JUMPDEST ISZERO PUSH2 0x2E43 JUMPI PUSH1 0x40 MLOAD PUSH3 0x461BCD PUSH1 0xE5 SHL DUP2 MSTORE PUSH1 0x20 PUSH1 0x4 DUP3 ADD MSTORE PUSH1 0x2 PUSH1 0x24 DUP3 ADD MSTORE PUSH2 0x4E33 PUSH1 0xF0 SHL PUSH1 0x44 DUP3 ADD MSTORE PUSH1 0x64 ADD PUSH2 0x9E1 JUMP JUMPDEST PUSH2 0x2E62 DUP3 PUSH2 0x2E50 DUP6 PUSH2 0xB5D JUMP JUMPDEST PUSH1 0x0 SWAP2 DUP3 MSTORE PUSH1 0xA PUSH1 0x20 MSTORE PUSH1 0x40 SWAP1 SWAP2 KECCAK256 SSTORE JUMP JUMPDEST PUSH1 0x0 DUP4 DUP2 MSTORE PUSH1 0xF PUSH1 0x20 MSTORE PUSH1 0x40 SWAP1 KECCAK256 SLOAD PUSH2 0x2E7C SWAP1 DUP3 SWAP1 PUSH2 0x55CD JUMP JUMPDEST PUSH1 0x0 DUP5 DUP2 MSTORE PUSH1 0xF PUSH1 0x20 MSTORE PUSH1 0x40 DUP2 KECCAK256 SWAP2 SWAP1 SWAP2 SSTORE PUSH2 0x2E97 DUP5 PUSH2 0x1064 JUMP JUMPDEST SWAP1 POP PUSH2 0x2EAD DUP2 DUP5 PUSH2 0x2EA7 DUP8 PUSH2 0xB5D JUMP JUMPDEST DUP6 PUSH2 0x3C12 JUMP JUMPDEST DUP4 DUP2 PUSH1 0x1 PUSH1 0x1 PUSH1 0xA0 SHL SUB AND PUSH32 0xF66885C33D648FCD0D97E0F2A18E30102169C22763473AF0FB716F11B4A17DD6 DUP6 DUP6 PUSH1 0x40 MLOAD PUSH2 0x2EE9 SWAP3 SWAP2 SWAP1 PUSH2 0x5356 JUMP JUMPDEST PUSH1 0x40 MLOAD DUP1 SWAP2 SUB SWAP1 LOG3 POP POP POP POP JUMP JUMPDEST PUSH1 0x0 DUP3 DUP2 MSTORE PUSH1 0x14 PUSH1 0x20 MSTORE PUSH1 0x40 SWAP1 KECCAK256 DUP2 MLOAD DUP2 SLOAD DUP4 SWAP3 SWAP2 SWAP1 DUP3 SWAP1 PUSH1 0xFF NOT AND PUSH1 0x1 DUP4 PUSH1 0x3 DUP2 GT ISZERO PUSH2 0x2F35 JUMPI PUSH4 0x4E487B71 PUSH1 0xE0 SHL PUSH1 0x0 MSTORE PUSH1 0x21 PUSH1 0x4 MSTORE PUSH1 0x24 PUSH1 0x0 REVERT JUMPDEST MUL OR SWAP1 SSTORE POP PUSH1 0x20 DUP3 ADD MLOAD DUP2 PUSH1 0x1 ADD SSTORE PUSH1 0x40 DUP3 ADD MLOAD DUP2 PUSH1 0x2 ADD SSTORE PUSH1 0x60 DUP3 ADD MLOAD DUP2 PUSH1 0x3 ADD SSTORE PUSH1 0x80 DUP3 ADD MLOAD DUP2 PUSH1 0x4 ADD SSTORE PUSH1 0xA0 DUP3 ADD MLOAD DUP2 PUSH1 0x5 ADD SSTORE PUSH1 0xC0 DUP3 ADD MLOAD DUP2 PUSH1 0x6 ADD PUSH1 0x0 PUSH2 0x100 EXP DUP2 SLOAD DUP2 PUSH1 0xFF MUL NOT AND SWAP1 DUP4 PUSH1 0x2 DUP2 GT ISZERO PUSH2 0x2FA4 JUMPI PUSH4 0x4E487B71 PUSH1 0xE0 SHL PUSH1 0x0 MSTORE PUSH1 0x21 PUSH1 0x4 MSTORE PUSH1 0x24 PUSH1 0x0 REVERT JUMPDEST MUL OR SWAP1 SSTORE POP POP POP POP POP JUMP JUMPDEST PUSH1 0x1A SLOAD PUSH1 0x40 MLOAD PUSH4 0xEDD0D421 PUSH1 0xE0 SHL DUP2 MSTORE PUSH1 0x1 PUSH1 0x1 PUSH1 0xA0 SHL SUB SWAP1 SWAP2 AND SWAP1 PUSH4 0xEDD0D421 SWAP1 PUSH2 0x2FE3 SWAP1 DUP7 SWAP1 DUP7 SWAP1 DUP7 SWAP1 PUSH1 0x4 ADD PUSH2 0x556C JUMP JUMPDEST PUSH1 0x0 PUSH1 0x40 MLOAD DUP1 DUP4 SUB DUP2 PUSH1 0x0 DUP8 DUP1 EXTCODESIZE ISZERO DUP1 ISZERO PUSH2 0x2FFD JUMPI PUSH1 0x0 DUP1 REVERT JUMPDEST POP GAS CALL ISZERO DUP1 ISZERO PUSH2 0x3011 JUMPI RETURNDATASIZE PUSH1 0x0 DUP1 RETURNDATACOPY RETURNDATASIZE PUSH1 0x0 REVERT JUMPDEST POP POP POP POP POP POP POP JUMP JUMPDEST PUSH1 0x6 DUP1 SLOAD PUSH1 0x1 PUSH1 0x1 PUSH1 0xA0 SHL SUB DUP4 DUP2 AND PUSH1 0x1 PUSH1 0x1 PUSH1 0xA0 SHL SUB NOT DUP4 AND DUP2 OR SWAP1 SWAP4 SSTORE PUSH1 0x40 MLOAD SWAP2 AND SWAP2 SWAP1 DUP3 SWAP1 PUSH32 0x8BE0079C531659141344CD1FD0A4F28419497F9722A3DAAFE3B4186F6B6457E0 SWAP1 PUSH1 0x0 SWAP1 LOG3 POP POP JUMP JUMPDEST PUSH1 0x0 PUSH2 0x12C DUP7 LT ISZERO PUSH2 0x30A6 JUMPI PUSH1 0x40 MLOAD PUSH3 0x461BCD PUSH1 0xE5 SHL DUP2 MSTORE PUSH1 0x20 PUSH1 0x4 DUP3 ADD MSTORE PUSH1 0x3 PUSH1 0x24 DUP3 ADD MSTORE PUSH3 0x4F3231 PUSH1 0xE8 SHL PUSH1 0x44 DUP3 ADD MSTORE PUSH1 0x64 ADD PUSH2 0x9E1 JUMP JUMPDEST PUSH3 0x15180 DUP7 LT ISZERO PUSH2 0x316E JUMPI DUP7 ISZERO PUSH2 0x30E5 JUMPI PUSH1 0x40 MLOAD PUSH3 0x461BCD PUSH1 0xE5 SHL DUP2 MSTORE PUSH1 0x20 PUSH1 0x4 DUP3 ADD MSTORE PUSH1 0x3 PUSH1 0x24 DUP3 ADD MSTORE PUSH3 0x279919 PUSH1 0xE9 SHL PUSH1 0x44 DUP3 ADD MSTORE PUSH1 0x64 ADD PUSH2 0x9E1 JUMP JUMPDEST PUSH1 0x12 PUSH1 0x0 SWAP1 SLOAD SWAP1 PUSH2 0x100 EXP SWAP1 DIV PUSH1 0x1 PUSH1 0x1 PUSH1 0xA0 SHL SUB AND PUSH1 0x1 PUSH1 0x1 PUSH1 0xA0 SHL SUB AND PUSH4 0x1ACF5582 PUSH1 0x40 MLOAD DUP2 PUSH4 0xFFFFFFFF AND PUSH1 0xE0 SHL DUP2 MSTORE PUSH1 0x4 ADD PUSH1 0x20 PUSH1 0x40 MLOAD DUP1 DUP4 SUB DUP2 DUP7 DUP1 EXTCODESIZE ISZERO DUP1 ISZERO PUSH2 0x3133 JUMPI PUSH1 0x0 DUP1 REVERT JUMPDEST POP GAS STATICCALL ISZERO DUP1 ISZERO PUSH2 0x3147 JUMPI RETURNDATASIZE PUSH1 0x0 DUP1 RETURNDATACOPY RETURNDATASIZE PUSH1 0x0 REVERT JUMPDEST POP POP POP POP PUSH1 0x40 MLOAD RETURNDATASIZE PUSH1 0x1F NOT PUSH1 0x1F DUP3 ADD AND DUP3 ADD DUP1 PUSH1 0x40 MSTORE POP DUP2 ADD SWAP1 PUSH2 0x316B SWAP2 SWAP1 PUSH2 0x4FC8 JUMP JUMPDEST SWAP7 POP JUMPDEST PUSH1 0x1A SLOAD PUSH1 0x40 DUP1 MLOAD PUSH4 0xAB2F0E51 PUSH1 0xE0 SHL DUP2 MSTORE SWAP1 MLOAD PUSH1 0x64 SWAP3 PUSH1 0x1 PUSH1 0x1 PUSH1 0xA0 SHL SUB AND SWAP2 PUSH4 0xAB2F0E51 SWAP2 PUSH1 0x4 DUP1 DUP4 ADD SWAP3 PUSH1 0x20 SWAP3 SWAP2 SWAP1 DUP3 SWAP1 SUB ADD DUP2 DUP7 DUP1 EXTCODESIZE ISZERO DUP1 ISZERO PUSH2 0x31B3 JUMPI PUSH1 0x0 DUP1 REVERT JUMPDEST POP GAS STATICCALL ISZERO DUP1 ISZERO PUSH2 0x31C7 JUMPI RETURNDATASIZE PUSH1 0x0 DUP1 RETURNDATACOPY RETURNDATASIZE PUSH1 0x0 REVERT JUMPDEST POP POP POP POP PUSH1 0x40 MLOAD RETURNDATASIZE PUSH1 0x1F NOT PUSH1 0x1F DUP3 ADD AND DUP3 ADD DUP1 PUSH1 0x40 MSTORE POP DUP2 ADD SWAP1 PUSH2 0x31EB SWAP2 SWAP1 PUSH2 0x4FC8 JUMP JUMPDEST PUSH1 0x1B PUSH1 0x0 SWAP1 SLOAD SWAP1 PUSH2 0x100 EXP SWAP1 DIV PUSH1 0x1 PUSH1 0x1 PUSH1 0xA0 SHL SUB AND PUSH1 0x1 PUSH1 0x1 PUSH1 0xA0 SHL SUB AND PUSH4 0x71BF7E25 PUSH1 0x40 MLOAD DUP2 PUSH4 0xFFFFFFFF AND PUSH1 0xE0 SHL DUP2 MSTORE PUSH1 0x4 ADD PUSH1 0x20 PUSH1 0x40 MLOAD DUP1 DUP4 SUB DUP2 DUP7 DUP1 EXTCODESIZE ISZERO DUP1 ISZERO PUSH2 0x3239 JUMPI PUSH1 0x0 DUP1 REVERT JUMPDEST POP GAS STATICCALL ISZERO DUP1 ISZERO PUSH2 0x324D JUMPI RETURNDATASIZE PUSH1 0x0 DUP1 RETURNDATACOPY RETURNDATASIZE PUSH1 0x0 REVERT JUMPDEST POP POP POP POP PUSH1 0x40 MLOAD RETURNDATASIZE PUSH1 0x1F NOT PUSH1 0x1F DUP3 ADD AND DUP3 ADD DUP1 PUSH1 0x40 MSTORE POP DUP2 ADD SWAP1 PUSH2 0x3271 SWAP2 SWAP1 PUSH2 0x4FC8 JUMP JUMPDEST PUSH2 0x327B SWAP2 SWAP1 PUSH2 0x55AE JUMP JUMPDEST PUSH2 0x3285 SWAP2 SWAP1 PUSH2 0x559A JUMP JUMPDEST NUMBER PUSH1 0x0 SWAP1 DUP2 MSTORE PUSH1 0x19 PUSH1 0x20 SWAP1 DUP2 MSTORE PUSH1 0x40 DUP1 DUP4 KECCAK256 CALLER DUP5 MSTORE SWAP1 SWAP2 MSTORE SWAP1 KECCAK256 SLOAD PUSH2 0x32AB SWAP1 DUP11 SWAP1 PUSH2 0x5582 JUMP JUMPDEST LT PUSH2 0x32DE JUMPI PUSH1 0x40 MLOAD PUSH3 0x461BCD PUSH1 0xE5 SHL DUP2 MSTORE PUSH1 0x20 PUSH1 0x4 DUP3 ADD MSTORE PUSH1 0x3 PUSH1 0x24 DUP3 ADD MSTORE PUSH3 0x4F3233 PUSH1 0xE8 SHL PUSH1 0x44 DUP3 ADD MSTORE PUSH1 0x64 ADD PUSH2 0x9E1 JUMP JUMPDEST NUMBER PUSH1 0x0 SWAP1 DUP2 MSTORE PUSH1 0x19 PUSH1 0x20 SWAP1 DUP2 MSTORE PUSH1 0x40 DUP1 DUP4 KECCAK256 CALLER DUP5 MSTORE SWAP1 SWAP2 MSTORE DUP2 KECCAK256 DUP1 SLOAD DUP11 SWAP3 SWAP1 PUSH2 0x3308 SWAP1 DUP5 SWAP1 PUSH2 0x5582 JUMP JUMPDEST SWAP1 SWAP2 SSTORE POP PUSH1 0x0 SWAP1 POP DUP1 DUP1 PUSH2 0x331F DUP10 DUP13 DUP13 DUP12 DUP12 PUSH2 0x1165 JUMP JUMPDEST SWAP2 SWAP5 POP SWAP3 POP SWAP1 POP PUSH1 0x5 PUSH2 0x3332 DUP11 DUP14 PUSH2 0x55AE JUMP JUMPDEST PUSH2 0x333C SWAP2 SWAP1 PUSH2 0x55AE JUMP JUMPDEST PUSH2 0x334A DUP5 PUSH4 0x1E13380 PUSH2 0x55AE JUMP JUMPDEST PUSH2 0x3355 SWAP1 PUSH1 0x64 PUSH2 0x55AE JUMP JUMPDEST GT PUSH2 0x3387 JUMPI PUSH1 0x40 MLOAD PUSH3 0x461BCD PUSH1 0xE5 SHL DUP2 MSTORE PUSH1 0x20 PUSH1 0x4 DUP3 ADD MSTORE PUSH1 0x2 PUSH1 0x24 DUP3 ADD MSTORE PUSH2 0x2799 PUSH1 0xF1 SHL PUSH1 0x44 DUP3 ADD MSTORE PUSH1 0x64 ADD PUSH2 0x9E1 JUMP JUMPDEST PUSH1 0x10 SLOAD PUSH1 0x40 MLOAD PUSH4 0x23B872DD PUSH1 0xE0 SHL DUP2 MSTORE CALLER PUSH1 0x4 DUP3 ADD MSTORE ADDRESS PUSH1 0x24 DUP3 ADD MSTORE PUSH1 0x44 DUP2 ADD DUP6 SWAP1 MSTORE PUSH1 0x0 SWAP2 PUSH1 0x1 PUSH1 0x1 PUSH1 0xA0 SHL SUB AND SWAP1 PUSH4 0x23B872DD SWAP1 PUSH1 0x64 ADD PUSH1 0x20 PUSH1 0x40 MLOAD DUP1 DUP4 SUB DUP2 PUSH1 0x0 DUP8 DUP1 EXTCODESIZE ISZERO DUP1 ISZERO PUSH2 0x33DA JUMPI PUSH1 0x0 DUP1 REVERT JUMPDEST POP GAS CALL ISZERO DUP1 ISZERO PUSH2 0x33EE JUMPI RETURNDATASIZE PUSH1 0x0 DUP1 RETURNDATACOPY RETURNDATASIZE PUSH1 0x0 REVERT JUMPDEST POP POP POP POP PUSH1 0x40 MLOAD RETURNDATASIZE PUSH1 0x1F NOT PUSH1 0x1F DUP3 ADD AND DUP3 ADD DUP1 PUSH1 0x40 MSTORE POP DUP2 ADD SWAP1 PUSH2 0x3412 SWAP2 SWAP1 PUSH2 0x4F38 JUMP JUMPDEST SWAP1 POP DUP1 PUSH2 0x3446 JUMPI PUSH1 0x40 MLOAD PUSH3 0x461BCD PUSH1 0xE5 SHL DUP2 MSTORE PUSH1 0x20 PUSH1 0x4 DUP3 ADD MSTORE PUSH1 0x2 PUSH1 0x24 DUP3 ADD MSTORE PUSH2 0x4F33 PUSH1 0xF0 SHL PUSH1 0x44 DUP3 ADD MSTORE PUSH1 0x64 ADD PUSH2 0x9E1 JUMP JUMPDEST PUSH1 0x1 DUP10 ISZERO ISZERO DUP2 EQ DUP1 ISZERO PUSH2 0x345B JUMPI POP PUSH1 0x1 DUP10 ISZERO ISZERO EQ JUMPDEST DUP1 PUSH2 0x346D JUMPI POP DUP10 ISZERO DUP1 ISZERO PUSH2 0x346D JUMPI POP DUP9 ISZERO JUMPDEST ISZERO PUSH2 0x3476 JUMPI POP PUSH1 0x2 JUMPDEST PUSH1 0x40 DUP1 MLOAD PUSH1 0xE0 DUP2 ADD SWAP1 SWAP2 MSTORE PUSH1 0x0 SWAP1 DUP1 PUSH1 0x1 DUP2 MSTORE PUSH1 0x20 ADD DUP15 DUP2 MSTORE PUSH1 0x20 ADD DUP16 DUP2 MSTORE PUSH1 0x20 ADD DUP16 DUP2 MSTORE PUSH1 0x20 ADD DUP6 DUP2 MSTORE PUSH1 0x20 ADD DUP14 TIMESTAMP PUSH2 0x34B0 SWAP2 SWAP1 PUSH2 0x5582 JUMP JUMPDEST DUP2 MSTORE PUSH1 0x20 ADD DUP4 PUSH1 0x2 DUP2 GT ISZERO PUSH2 0x34D5 JUMPI PUSH4 0x4E487B71 PUSH1 0xE0 SHL PUSH1 0x0 MSTORE PUSH1 0x21 PUSH1 0x4 MSTORE PUSH1 0x24 PUSH1 0x0 REVERT JUMPDEST SWAP1 MSTORE SWAP1 POP PUSH2 0x34E1 PUSH2 0x2DB3 JUMP JUMPDEST PUSH1 0x40 DUP1 MLOAD DUP1 DUP3 ADD DUP3 MSTORE DUP14 ISZERO ISZERO DUP2 MSTORE DUP13 ISZERO ISZERO PUSH1 0x20 DUP1 DUP4 ADD SWAP2 DUP3 MSTORE PUSH1 0x0 DUP6 DUP2 MSTORE PUSH1 0x17 SWAP1 SWAP2 MSTORE SWAP3 SWAP1 SWAP3 KECCAK256 SWAP1 MLOAD DUP2 SLOAD SWAP3 MLOAD PUSH2 0xFFFF NOT SWAP1 SWAP4 AND SWAP1 ISZERO ISZERO PUSH2 0xFF00 NOT AND OR PUSH2 0x100 SWAP3 ISZERO ISZERO SWAP3 SWAP1 SWAP3 MUL SWAP2 SWAP1 SWAP2 OR SWAP1 SSTORE SWAP7 POP PUSH2 0x353A DUP8 DUP3 PUSH2 0x2EF7 JUMP JUMPDEST CALLER PUSH1 0x0 DUP2 DUP2 MSTORE PUSH1 0x15 PUSH1 0x20 SWAP1 DUP2 MSTORE PUSH1 0x40 DUP1 DUP4 KECCAK256 DUP1 SLOAD PUSH1 0x1 DUP2 ADD DUP3 SSTORE DUP2 DUP6 MSTORE DUP4 DUP6 KECCAK256 ADD DUP13 SWAP1 SSTORE DUP5 DUP5 MSTORE SLOAD PUSH1 0x16 DUP4 MSTORE SWAP3 KECCAK256 SWAP2 SWAP1 SWAP2 SSTORE DUP3 ADD MLOAD PUSH1 0xA0 DUP4 ADD MLOAD PUSH2 0x358D SWAP3 DUP11 SWAP3 SWAP1 SWAP2 PUSH2 0x3588 SWAP2 DUP5 SWAP2 DUP9 PUSH2 0x3C9C JUMP JUMPDEST PUSH2 0x3DDA JUMP JUMPDEST PUSH2 0x3597 DUP8 DUP10 PUSH2 0x3DFD JUMP JUMPDEST PUSH1 0x0 PUSH2 0x35A3 DUP7 DUP12 PUSH2 0x3E07 JUMP JUMPDEST SWAP1 POP PUSH2 0x35B8 DUP9 DUP4 PUSH1 0x60 ADD MLOAD DUP5 PUSH1 0x80 ADD MLOAD PUSH2 0x2FAF JUMP JUMPDEST CALLER PUSH1 0x1 PUSH1 0x1 PUSH1 0xA0 SHL SUB AND DUP9 PUSH32 0x89F823A0225C73A75066E963CE2EEA7708B57680EC86102773DBD244F5412892 DUP4 DUP11 DUP14 PUSH1 0x40 MLOAD PUSH2 0x35F6 SWAP4 SWAP3 SWAP2 SWAP1 PUSH2 0x554D JUMP JUMPDEST PUSH1 0x40 MLOAD DUP1 SWAP2 SUB SWAP1 LOG3 POP POP POP POP POP POP POP SWAP8 SWAP7 POP POP POP POP POP POP POP JUMP JUMPDEST PUSH1 0x0 PUSH2 0x89C DUP3 SLOAD SWAP1 JUMP JUMPDEST PUSH2 0x3625 DUP5 DUP5 DUP5 PUSH2 0x2558 JUMP JUMPDEST PUSH2 0x3631 DUP5 DUP5 DUP5 DUP5 PUSH2 0x42C8 JUMP JUMPDEST PUSH2 0x105E JUMPI PUSH1 0x40 MLOAD PUSH3 0x461BCD PUSH1 0xE5 SHL DUP2 MSTORE PUSH1 0x4 ADD PUSH2 0x9E1 SWAP1 PUSH2 0x5393 JUMP JUMPDEST PUSH2 0x3656 CALLER PUSH2 0x1CA7 JUMP JUMPDEST PUSH2 0x3687 JUMPI PUSH1 0x40 MLOAD PUSH3 0x461BCD PUSH1 0xE5 SHL DUP2 MSTORE PUSH1 0x20 PUSH1 0x4 DUP3 ADD MSTORE PUSH1 0x2 PUSH1 0x24 DUP3 ADD MSTORE PUSH2 0x4E35 PUSH1 0xF0 SHL PUSH1 0x44 DUP3 ADD MSTORE PUSH1 0x64 ADD PUSH2 0x9E1 JUMP JUMPDEST DUP1 DUP3 EQ ISZERO PUSH2 0x36BC JUMPI PUSH1 0x40 MLOAD PUSH3 0x461BCD PUSH1 0xE5 SHL DUP2 MSTORE PUSH1 0x20 PUSH1 0x4 DUP3 ADD MSTORE PUSH1 0x2 PUSH1 0x24 DUP3 ADD MSTORE PUSH2 0x271B PUSH1 0xF1 SHL PUSH1 0x44 DUP3 ADD MSTORE PUSH1 0x64 ADD PUSH2 0x9E1 JUMP JUMPDEST PUSH2 0x36C5 DUP2 PUSH2 0xB5D JUMP JUMPDEST PUSH2 0x36CE DUP4 PUSH2 0xB5D JUMP JUMPDEST EQ PUSH2 0x36EB JUMPI PUSH1 0x40 MLOAD PUSH3 0x461BCD PUSH1 0xE5 SHL DUP2 MSTORE PUSH1 0x4 ADD PUSH2 0x9E1 SWAP1 PUSH2 0x5402 JUMP JUMPDEST PUSH1 0x0 PUSH2 0x36F6 DUP4 PUSH2 0x1064 JUMP JUMPDEST SWAP1 POP PUSH2 0x3701 DUP3 PUSH2 0x1064 JUMP JUMPDEST PUSH1 0x1 PUSH1 0x1 PUSH1 0xA0 SHL SUB AND DUP2 PUSH1 0x1 PUSH1 0x1 PUSH1 0xA0 SHL SUB AND EQ PUSH2 0x3746 JUMPI PUSH1 0x40 MLOAD PUSH3 0x461BCD PUSH1 0xE5 SHL DUP2 MSTORE PUSH1 0x20 PUSH1 0x4 DUP3 ADD MSTORE PUSH1 0x2 PUSH1 0x24 DUP3 ADD MSTORE PUSH2 0x9C7 PUSH1 0xF3 SHL PUSH1 0x44 DUP3 ADD MSTORE PUSH1 0x64 ADD PUSH2 0x9E1 JUMP JUMPDEST PUSH1 0x0 DUP4 DUP2 MSTORE PUSH1 0xF PUSH1 0x20 MSTORE PUSH1 0x40 DUP1 DUP3 KECCAK256 SLOAD DUP5 DUP4 MSTORE SWAP2 KECCAK256 SLOAD PUSH2 0x3766 SWAP1 DUP3 PUSH2 0x5582 JUMP JUMPDEST PUSH1 0x0 DUP5 DUP2 MSTORE PUSH1 0xF PUSH1 0x20 MSTORE PUSH1 0x40 SWAP1 KECCAK256 SSTORE PUSH2 0x377E DUP5 PUSH2 0x2907 JUMP JUMPDEST DUP3 DUP5 DUP4 PUSH1 0x1 PUSH1 0x1 PUSH1 0xA0 SHL SUB AND PUSH32 0xB3CE851D16B3BBEC3774D5631A3893DFA2A80E067CFAD265DD594402AC3D6096 DUP5 PUSH1 0x40 MLOAD PUSH2 0x37BB SWAP2 DUP2 MSTORE PUSH1 0x20 ADD SWAP1 JUMP JUMPDEST PUSH1 0x40 MLOAD DUP1 SWAP2 SUB SWAP1 LOG4 POP POP POP POP JUMP JUMPDEST PUSH1 0x60 PUSH2 0x37D4 DUP3 PUSH2 0x2403 JUMP JUMPDEST PUSH2 0x383A JUMPI PUSH1 0x40 MLOAD PUSH3 0x461BCD PUSH1 0xE5 SHL DUP2 MSTORE PUSH1 0x20 PUSH1 0x4 DUP3 ADD MSTORE PUSH1 0x31 PUSH1 0x24 DUP3 ADD MSTORE PUSH32 0x45524337323155524953746F726167653A2055524920717565727920666F7220 PUSH1 0x44 DUP3 ADD MSTORE PUSH17 0x3737B732BC34B9BA32B73A103A37B5B2B7 PUSH1 0x79 SHL PUSH1 0x64 DUP3 ADD MSTORE PUSH1 0x84 ADD PUSH2 0x9E1 JUMP JUMPDEST PUSH1 0x0 DUP3 DUP2 MSTORE PUSH1 0x9 PUSH1 0x20 MSTORE PUSH1 0x40 DUP2 KECCAK256 DUP1 SLOAD PUSH2 0x3853 SWAP1 PUSH2 0x5627 JUMP JUMPDEST DUP1 PUSH1 0x1F ADD PUSH1 0x20 DUP1 SWAP2 DIV MUL PUSH1 0x20 ADD PUSH1 0x40 MLOAD SWAP1 DUP2 ADD PUSH1 0x40 MSTORE DUP1 SWAP3 SWAP2 SWAP1 DUP2 DUP2 MSTORE PUSH1 0x20 ADD DUP3 DUP1 SLOAD PUSH2 0x387F SWAP1 PUSH2 0x5627 JUMP JUMPDEST DUP1 ISZERO PUSH2 0x38CC JUMPI DUP1 PUSH1 0x1F LT PUSH2 0x38A1 JUMPI PUSH2 0x100 DUP1 DUP4 SLOAD DIV MUL DUP4 MSTORE SWAP2 PUSH1 0x20 ADD SWAP2 PUSH2 0x38CC JUMP JUMPDEST DUP3 ADD SWAP2 SWAP1 PUSH1 0x0 MSTORE PUSH1 0x20 PUSH1 0x0 KECCAK256 SWAP1 JUMPDEST DUP2 SLOAD DUP2 MSTORE SWAP1 PUSH1 0x1 ADD SWAP1 PUSH1 0x20 ADD DUP1 DUP4 GT PUSH2 0x38AF JUMPI DUP3 SWAP1 SUB PUSH1 0x1F AND DUP3 ADD SWAP2 JUMPDEST POP POP POP POP POP SWAP1 POP PUSH1 0x0 PUSH2 0x38DD PUSH2 0x43D5 JUMP JUMPDEST SWAP1 POP DUP1 MLOAD PUSH1 0x0 EQ ISZERO PUSH2 0x38F0 JUMPI POP SWAP3 SWAP2 POP POP JUMP JUMPDEST DUP2 MLOAD ISZERO PUSH2 0x3922 JUMPI DUP1 DUP3 PUSH1 0x40 MLOAD PUSH1 0x20 ADD PUSH2 0x390A SWAP3 SWAP2 SWAP1 PUSH2 0x51D0 JUMP JUMPDEST PUSH1 0x40 MLOAD PUSH1 0x20 DUP2 DUP4 SUB SUB DUP2 MSTORE SWAP1 PUSH1 0x40 MSTORE SWAP3 POP POP POP SWAP2 SWAP1 POP JUMP JUMPDEST PUSH2 0x2550 DUP5 PUSH2 0x43F5 JUMP JUMPDEST PUSH1 0x0 PUSH2 0x1FA3 DUP4 DUP4 PUSH2 0x44BF JUMP JUMPDEST PUSH1 0x0 PUSH1 0x1 PUSH1 0x1 PUSH1 0xE0 SHL SUB NOT DUP3 AND PUSH4 0x80AC58CD PUSH1 0xE0 SHL EQ DUP1 PUSH2 0x3968 JUMPI POP PUSH1 0x1 PUSH1 0x1 PUSH1 0xE0 SHL SUB NOT DUP3 AND PUSH4 0x5B5E139F PUSH1 0xE0 SHL EQ JUMPDEST DUP1 PUSH2 0x89C JUMPI POP PUSH4 0x1FFC9A7 PUSH1 0xE0 SHL PUSH1 0x1 PUSH1 0x1 PUSH1 0xE0 SHL SUB NOT DUP4 AND EQ PUSH2 0x89C JUMP JUMPDEST PUSH1 0x1 PUSH1 0x1 PUSH1 0xA0 SHL SUB DUP4 AND ISZERO PUSH2 0xB12 JUMPI PUSH2 0xB12 DUP2 PUSH2 0x44F7 JUMP JUMPDEST PUSH1 0x60 PUSH1 0x0 PUSH2 0x39AE DUP4 PUSH1 0x2 PUSH2 0x55AE JUMP JUMPDEST PUSH2 0x39B9 SWAP1 PUSH1 0x2 PUSH2 0x5582 JUMP JUMPDEST PUSH1 0x1 PUSH1 0x1 PUSH1 0x40 SHL SUB DUP2 GT ISZERO PUSH2 0x39DE JUMPI PUSH4 0x4E487B71 PUSH1 0xE0 SHL PUSH1 0x0 MSTORE PUSH1 0x41 PUSH1 0x4 MSTORE PUSH1 0x24 PUSH1 0x0 REVERT JUMPDEST PUSH1 0x40 MLOAD SWAP1 DUP1 DUP3 MSTORE DUP1 PUSH1 0x1F ADD PUSH1 0x1F NOT AND PUSH1 0x20 ADD DUP3 ADD PUSH1 0x40 MSTORE DUP1 ISZERO PUSH2 0x3A08 JUMPI PUSH1 0x20 DUP3 ADD DUP2 DUP1 CALLDATASIZE DUP4 CALLDATACOPY ADD SWAP1 POP JUMPDEST POP SWAP1 POP PUSH1 0x3 PUSH1 0xFC SHL DUP2 PUSH1 0x0 DUP2 MLOAD DUP2 LT PUSH2 0x3A31 JUMPI PUSH4 0x4E487B71 PUSH1 0xE0 SHL PUSH1 0x0 MSTORE PUSH1 0x32 PUSH1 0x4 MSTORE PUSH1 0x24 PUSH1 0x0 REVERT JUMPDEST PUSH1 0x20 ADD ADD SWAP1 PUSH1 0x1 PUSH1 0x1 PUSH1 0xF8 SHL SUB NOT AND SWAP1 DUP2 PUSH1 0x0 BYTE SWAP1 MSTORE8 POP PUSH1 0xF PUSH1 0xFB SHL DUP2 PUSH1 0x1 DUP2 MLOAD DUP2 LT PUSH2 0x3A6E JUMPI PUSH4 0x4E487B71 PUSH1 0xE0 SHL PUSH1 0x0 MSTORE PUSH1 0x32 PUSH1 0x4 MSTORE PUSH1 0x24 PUSH1 0x0 REVERT JUMPDEST PUSH1 0x20 ADD ADD SWAP1 PUSH1 0x1 PUSH1 0x1 PUSH1 0xF8 SHL SUB NOT AND SWAP1 DUP2 PUSH1 0x0 BYTE SWAP1 MSTORE8 POP PUSH1 0x0 PUSH2 0x3A92 DUP5 PUSH1 0x2 PUSH2 0x55AE JUMP JUMPDEST PUSH2 0x3A9D SWAP1 PUSH1 0x1 PUSH2 0x5582 JUMP JUMPDEST SWAP1 POP JUMPDEST PUSH1 0x1 DUP2 GT ISZERO PUSH2 0x3B31 JUMPI PUSH16 0x181899199A1A9B1B9C1CB0B131B232B3 PUSH1 0x81 SHL DUP6 PUSH1 0xF AND PUSH1 0x10 DUP2 LT PUSH2 0x3ADF JUMPI PUSH4 0x4E487B71 PUSH1 0xE0 SHL PUSH1 0x0 MSTORE PUSH1 0x32 PUSH1 0x4 MSTORE PUSH1 0x24 PUSH1 0x0 REVERT JUMPDEST BYTE PUSH1 0xF8 SHL DUP3 DUP3 DUP2 MLOAD DUP2 LT PUSH2 0x3B03 JUMPI PUSH4 0x4E487B71 PUSH1 0xE0 SHL PUSH1 0x0 MSTORE PUSH1 0x32 PUSH1 0x4 MSTORE PUSH1 0x24 PUSH1 0x0 REVERT JUMPDEST PUSH1 0x20 ADD ADD SWAP1 PUSH1 0x1 PUSH1 0x1 PUSH1 0xF8 SHL SUB NOT AND SWAP1 DUP2 PUSH1 0x0 BYTE SWAP1 MSTORE8 POP PUSH1 0x4 SWAP5 SWAP1 SWAP5 SHR SWAP4 PUSH2 0x3B2A DUP2 PUSH2 0x5610 JUMP JUMPDEST SWAP1 POP PUSH2 0x3AA0 JUMP JUMPDEST POP DUP4 ISZERO PUSH2 0x1FA3 JUMPI PUSH1 0x40 MLOAD PUSH3 0x461BCD PUSH1 0xE5 SHL DUP2 MSTORE PUSH1 0x20 PUSH1 0x4 DUP3 ADD DUP2 SWAP1 MSTORE PUSH1 0x24 DUP3 ADD MSTORE PUSH32 0x537472696E67733A20686578206C656E67746820696E73756666696369656E74 PUSH1 0x44 DUP3 ADD MSTORE PUSH1 0x64 ADD PUSH2 0x9E1 JUMP JUMPDEST PUSH1 0x0 PUSH2 0x3B8B DUP3 PUSH2 0x1064 JUMP JUMPDEST SWAP1 POP PUSH1 0x0 PUSH2 0x3B98 DUP4 PUSH2 0xB5D JUMP JUMPDEST PUSH1 0x0 DUP5 DUP2 MSTORE PUSH1 0xF PUSH1 0x20 SWAP1 DUP2 MSTORE PUSH1 0x40 DUP1 DUP4 KECCAK256 SLOAD DUP5 DUP5 MSTORE PUSH1 0xC SWAP1 SWAP3 MSTORE SWAP1 SWAP2 KECCAK256 SWAP2 SWAP3 POP SWAP1 PUSH2 0x3BC3 SWAP1 DUP6 PUSH2 0x45AB JUMP JUMPDEST POP PUSH1 0x0 DUP5 DUP2 MSTORE PUSH1 0xF PUSH1 0x20 MSTORE PUSH1 0x40 DUP2 KECCAK256 SSTORE PUSH2 0x3BDC DUP5 PUSH2 0x45B7 JUMP JUMPDEST DUP4 PUSH1 0x0 PUSH1 0x1 PUSH1 0x1 PUSH1 0xA0 SHL SUB AND DUP5 PUSH1 0x1 PUSH1 0x1 PUSH1 0xA0 SHL SUB AND PUSH1 0x0 DUP1 MLOAD PUSH1 0x20 PUSH2 0x575F DUP4 CODECOPY DUP2 MLOAD SWAP2 MSTORE PUSH1 0x0 DUP6 PUSH1 0x40 MLOAD PUSH2 0x37BB SWAP3 SWAP2 SWAP1 PUSH2 0x5356 JUMP JUMPDEST PUSH2 0x3C1B DUP4 PUSH2 0x2403 JUMP JUMPDEST PUSH2 0x3C43 JUMPI PUSH2 0x3C29 DUP5 DUP5 PUSH2 0x464C JUMP JUMPDEST PUSH1 0x0 DUP3 DUP2 MSTORE PUSH1 0xC PUSH1 0x20 MSTORE PUSH1 0x40 SWAP1 KECCAK256 PUSH2 0x3C41 SWAP1 DUP5 PUSH2 0x4778 JUMP JUMPDEST POP JUMPDEST PUSH1 0x0 DUP4 DUP2 MSTORE PUSH1 0xF PUSH1 0x20 MSTORE PUSH1 0x40 SWAP1 KECCAK256 SLOAD PUSH2 0x3C5D SWAP1 DUP3 SWAP1 PUSH2 0x5582 JUMP JUMPDEST PUSH1 0x0 DUP5 DUP2 MSTORE PUSH1 0xF PUSH1 0x20 MSTORE PUSH1 0x40 DUP1 DUP3 KECCAK256 SWAP3 SWAP1 SWAP3 SSTORE SWAP1 MLOAD PUSH1 0x1 PUSH1 0x1 PUSH1 0xA0 SHL SUB DUP7 AND SWAP1 DUP3 SWAP1 PUSH1 0x0 DUP1 MLOAD PUSH1 0x20 PUSH2 0x575F DUP4 CODECOPY DUP2 MLOAD SWAP2 MSTORE SWAP1 PUSH2 0x37BB SWAP1 DUP9 SWAP1 DUP8 SWAP1 PUSH2 0x5356 JUMP JUMPDEST PUSH1 0x0 DUP4 DUP4 DUP4 DUP8 PUSH1 0x40 MLOAD PUSH1 0x20 ADD PUSH2 0x3CB5 SWAP5 SWAP4 SWAP3 SWAP2 SWAP1 PUSH2 0x5523 JUMP JUMPDEST PUSH1 0x40 DUP1 MLOAD DUP1 DUP4 SUB PUSH1 0x1F NOT ADD DUP2 MSTORE SWAP2 DUP2 MSTORE DUP2 MLOAD PUSH1 0x20 SWAP3 DUP4 ADD KECCAK256 PUSH1 0x0 DUP2 DUP2 MSTORE PUSH1 0x1C SWAP1 SWAP4 MSTORE SWAP2 KECCAK256 PUSH1 0x2 ADD SLOAD SWAP1 SWAP2 POP PUSH2 0x100 SWAP1 DIV PUSH1 0xFF AND ISZERO PUSH2 0x3D1B JUMPI PUSH1 0x40 MLOAD PUSH3 0x461BCD PUSH1 0xE5 SHL DUP2 MSTORE PUSH1 0x20 PUSH1 0x4 DUP3 ADD MSTORE PUSH1 0x3 PUSH1 0x24 DUP3 ADD MSTORE PUSH3 0x138C4D PUSH1 0xEA SHL PUSH1 0x44 DUP3 ADD MSTORE PUSH1 0x64 ADD PUSH2 0x9E1 JUMP JUMPDEST PUSH1 0x40 MLOAD DUP1 PUSH1 0x80 ADD PUSH1 0x40 MSTORE DUP1 DUP6 DUP2 MSTORE PUSH1 0x20 ADD DUP5 DUP2 MSTORE PUSH1 0x20 ADD DUP4 PUSH1 0x2 DUP2 GT ISZERO PUSH2 0x3D52 JUMPI PUSH4 0x4E487B71 PUSH1 0xE0 SHL PUSH1 0x0 MSTORE PUSH1 0x21 PUSH1 0x4 MSTORE PUSH1 0x24 PUSH1 0x0 REVERT JUMPDEST DUP2 MSTORE PUSH1 0x1 PUSH1 0x20 SWAP2 DUP3 ADD DUP2 SWAP1 MSTORE PUSH1 0x0 DUP5 DUP2 MSTORE PUSH1 0x1C DUP4 MSTORE PUSH1 0x40 SWAP1 DUP2 SWAP1 KECCAK256 DUP5 MLOAD DUP2 SSTORE SWAP3 DUP5 ADD MLOAD DUP4 DUP4 ADD SSTORE DUP4 ADD MLOAD PUSH1 0x2 DUP1 DUP5 ADD DUP1 SLOAD SWAP3 SWAP4 SWAP1 SWAP3 PUSH1 0xFF NOT AND SWAP2 DUP5 SWAP1 DUP2 GT ISZERO PUSH2 0x3DAB JUMPI PUSH4 0x4E487B71 PUSH1 0xE0 SHL PUSH1 0x0 MSTORE PUSH1 0x21 PUSH1 0x4 MSTORE PUSH1 0x24 PUSH1 0x0 REVERT JUMPDEST MUL OR SWAP1 SSTORE POP PUSH1 0x60 SWAP2 SWAP1 SWAP2 ADD MLOAD PUSH1 0x2 SWAP1 SWAP2 ADD DUP1 SLOAD SWAP2 ISZERO ISZERO PUSH2 0x100 MUL PUSH2 0xFF00 NOT SWAP1 SWAP3 AND SWAP2 SWAP1 SWAP2 OR SWAP1 SSTORE SWAP5 SWAP4 POP POP POP POP JUMP JUMPDEST PUSH1 0x0 DUP4 DUP2 MSTORE PUSH1 0xA PUSH1 0x20 MSTORE PUSH1 0x40 SWAP1 KECCAK256 DUP2 SWAP1 SSTORE PUSH1 0xD SLOAD PUSH2 0xB12 SWAP1 DUP4 SWAP1 DUP6 SWAP1 DUP5 SWAP1 PUSH2 0x3C12 JUMP JUMPDEST PUSH2 0xC06 DUP3 DUP3 PUSH2 0x4784 JUMP JUMPDEST PUSH1 0x0 PUSH1 0x64 PUSH1 0x1B PUSH1 0x0 SWAP1 SLOAD SWAP1 PUSH2 0x100 EXP SWAP1 DIV PUSH1 0x1 PUSH1 0x1 PUSH1 0xA0 SHL SUB AND PUSH1 0x1 PUSH1 0x1 PUSH1 0xA0 SHL SUB AND PUSH4 0xCA535C3B PUSH1 0x40 MLOAD DUP2 PUSH4 0xFFFFFFFF AND PUSH1 0xE0 SHL DUP2 MSTORE PUSH1 0x4 ADD PUSH1 0x20 PUSH1 0x40 MLOAD DUP1 DUP4 SUB DUP2 DUP7 DUP1 EXTCODESIZE ISZERO DUP1 ISZERO PUSH2 0x3E59 JUMPI PUSH1 0x0 DUP1 REVERT JUMPDEST POP GAS STATICCALL ISZERO DUP1 ISZERO PUSH2 0x3E6D JUMPI RETURNDATASIZE PUSH1 0x0 DUP1 RETURNDATACOPY RETURNDATASIZE PUSH1 0x0 REVERT JUMPDEST POP POP POP POP PUSH1 0x40 MLOAD RETURNDATASIZE PUSH1 0x1F NOT PUSH1 0x1F DUP3 ADD AND DUP3 ADD DUP1 PUSH1 0x40 MSTORE POP DUP2 ADD SWAP1 PUSH2 0x3E91 SWAP2 SWAP1 PUSH2 0x4FC8 JUMP JUMPDEST PUSH2 0x3E9B SWAP1 DUP6 PUSH2 0x55AE JUMP JUMPDEST PUSH2 0x3EA5 SWAP2 SWAP1 PUSH2 0x559A JUMP JUMPDEST SWAP1 POP DUP1 ISZERO PUSH2 0x3FA6 JUMPI PUSH1 0x10 SLOAD PUSH1 0x1B SLOAD PUSH1 0x40 DUP1 MLOAD PUSH4 0x605CC77 PUSH1 0xE2 SHL DUP2 MSTORE SWAP1 MLOAD PUSH1 0x1 PUSH1 0x1 PUSH1 0xA0 SHL SUB SWAP4 DUP5 AND SWAP4 PUSH4 0xA9059CBB SWAP4 AND SWAP2 PUSH4 0x181731DC SWAP2 PUSH1 0x4 DUP1 DUP4 ADD SWAP3 PUSH1 0x20 SWAP3 SWAP2 SWAP1 DUP3 SWAP1 SUB ADD DUP2 DUP7 DUP1 EXTCODESIZE ISZERO DUP1 ISZERO PUSH2 0x3EFC JUMPI PUSH1 0x0 DUP1 REVERT JUMPDEST POP GAS STATICCALL ISZERO DUP1 ISZERO PUSH2 0x3F10 JUMPI RETURNDATASIZE PUSH1 0x0 DUP1 RETURNDATACOPY RETURNDATASIZE PUSH1 0x0 REVERT JUMPDEST POP POP POP POP PUSH1 0x40 MLOAD RETURNDATASIZE PUSH1 0x1F NOT PUSH1 0x1F DUP3 ADD AND DUP3 ADD DUP1 PUSH1 0x40 MSTORE POP DUP2 ADD SWAP1 PUSH2 0x3F34 SWAP2 SWAP1 PUSH2 0x4C7F JUMP JUMPDEST DUP4 PUSH1 0x40 MLOAD DUP4 PUSH4 0xFFFFFFFF AND PUSH1 0xE0 SHL DUP2 MSTORE PUSH1 0x4 ADD PUSH2 0x3F52 SWAP3 SWAP2 SWAP1 PUSH2 0x52AB JUMP JUMPDEST PUSH1 0x20 PUSH1 0x40 MLOAD DUP1 DUP4 SUB DUP2 PUSH1 0x0 DUP8 DUP1 EXTCODESIZE ISZERO DUP1 ISZERO PUSH2 0x3F6C JUMPI PUSH1 0x0 DUP1 REVERT JUMPDEST POP GAS CALL ISZERO DUP1 ISZERO PUSH2 0x3F80 JUMPI RETURNDATASIZE PUSH1 0x0 DUP1 RETURNDATACOPY RETURNDATASIZE PUSH1 0x0 REVERT JUMPDEST POP POP POP POP PUSH1 0x40 MLOAD RETURNDATASIZE PUSH1 0x1F NOT PUSH1 0x1F DUP3 ADD AND DUP3 ADD DUP1 PUSH1 0x40 MSTORE POP DUP2 ADD SWAP1 PUSH2 0x3FA4 SWAP2 SWAP1 PUSH2 0x4F38 JUMP JUMPDEST POP JUMPDEST PUSH1 0x0 PUSH2 0x3FB2 DUP3 DUP6 PUSH2 0x55CD JUMP JUMPDEST SWAP1 POP DUP1 ISZERO PUSH2 0x42C1 JUMPI PUSH1 0x1B SLOAD PUSH1 0x40 DUP1 MLOAD PUSH4 0x4905129F PUSH1 0xE1 SHL DUP2 MSTORE SWAP1 MLOAD PUSH1 0x0 SWAP3 PUSH1 0x1 PUSH1 0x1 PUSH1 0xA0 SHL SUB AND SWAP2 PUSH4 0x920A253E SWAP2 PUSH1 0x4 DUP1 DUP4 ADD SWAP3 PUSH1 0x20 SWAP3 SWAP2 SWAP1 DUP3 SWAP1 SUB ADD DUP2 DUP7 DUP1 EXTCODESIZE ISZERO DUP1 ISZERO PUSH2 0x3FFF JUMPI PUSH1 0x0 DUP1 REVERT JUMPDEST POP GAS STATICCALL ISZERO DUP1 ISZERO PUSH2 0x4013 JUMPI RETURNDATASIZE PUSH1 0x0 DUP1 RETURNDATACOPY RETURNDATASIZE PUSH1 0x0 REVERT JUMPDEST POP POP POP POP PUSH1 0x40 MLOAD RETURNDATASIZE PUSH1 0x1F NOT PUSH1 0x1F DUP3 ADD AND DUP3 ADD DUP1 PUSH1 0x40 MSTORE POP DUP2 ADD SWAP1 PUSH2 0x4037 SWAP2 SWAP1 PUSH2 0x4FC8 JUMP JUMPDEST GT DUP1 ISZERO PUSH2 0x405D JUMPI POP PUSH2 0x4047 PUSH2 0x1832 JUMP JUMPDEST PUSH1 0x1 PUSH1 0x1 PUSH1 0xA0 SHL SUB AND DUP4 PUSH1 0x1 PUSH1 0x1 PUSH1 0xA0 SHL SUB AND EQ ISZERO JUMPDEST DUP1 ISZERO PUSH2 0x4072 JUMPI POP PUSH1 0x1 PUSH1 0x1 PUSH1 0xA0 SHL SUB DUP4 AND CALLER EQ ISZERO JUMPDEST ISZERO PUSH2 0x41EC JUMPI PUSH1 0x0 PUSH1 0x64 PUSH1 0x1B PUSH1 0x0 SWAP1 SLOAD SWAP1 PUSH2 0x100 EXP SWAP1 DIV PUSH1 0x1 PUSH1 0x1 PUSH1 0xA0 SHL SUB AND PUSH1 0x1 PUSH1 0x1 PUSH1 0xA0 SHL SUB AND PUSH4 0x920A253E PUSH1 0x40 MLOAD DUP2 PUSH4 0xFFFFFFFF AND PUSH1 0xE0 SHL DUP2 MSTORE PUSH1 0x4 ADD PUSH1 0x20 PUSH1 0x40 MLOAD DUP1 DUP4 SUB DUP2 DUP7 DUP1 EXTCODESIZE ISZERO DUP1 ISZERO PUSH2 0x40C9 JUMPI PUSH1 0x0 DUP1 REVERT JUMPDEST POP GAS STATICCALL ISZERO DUP1 ISZERO PUSH2 0x40DD JUMPI RETURNDATASIZE PUSH1 0x0 DUP1 RETURNDATACOPY RETURNDATASIZE PUSH1 0x0 REVERT JUMPDEST POP POP POP POP PUSH1 0x40 MLOAD RETURNDATASIZE PUSH1 0x1F NOT PUSH1 0x1F DUP3 ADD AND DUP3 ADD DUP1 PUSH1 0x40 MSTORE POP DUP2 ADD SWAP1 PUSH2 0x4101 SWAP2 SWAP1 PUSH2 0x4FC8 JUMP JUMPDEST PUSH2 0x410B SWAP1 DUP5 PUSH2 0x55AE JUMP JUMPDEST PUSH2 0x4115 SWAP2 SWAP1 PUSH2 0x559A JUMP JUMPDEST SWAP1 POP PUSH2 0x4121 DUP2 DUP4 PUSH2 0x55CD JUMP JUMPDEST PUSH1 0x10 SLOAD PUSH1 0x40 MLOAD PUSH4 0xA9059CBB PUSH1 0xE0 SHL DUP2 MSTORE SWAP2 SWAP4 POP PUSH1 0x1 PUSH1 0x1 PUSH1 0xA0 SHL SUB AND SWAP1 PUSH4 0xA9059CBB SWAP1 PUSH2 0x4154 SWAP1 DUP8 SWAP1 DUP6 SWAP1 PUSH1 0x4 ADD PUSH2 0x52AB JUMP JUMPDEST PUSH1 0x20 PUSH1 0x40 MLOAD DUP1 DUP4 SUB DUP2 PUSH1 0x0 DUP8 DUP1 EXTCODESIZE ISZERO DUP1 ISZERO PUSH2 0x416E JUMPI PUSH1 0x0 DUP1 REVERT JUMPDEST POP GAS CALL ISZERO DUP1 ISZERO PUSH2 0x4182 JUMPI RETURNDATASIZE PUSH1 0x0 DUP1 RETURNDATACOPY RETURNDATASIZE PUSH1 0x0 REVERT JUMPDEST POP POP POP POP PUSH1 0x40 MLOAD RETURNDATASIZE PUSH1 0x1F NOT PUSH1 0x1F DUP3 ADD AND DUP3 ADD DUP1 PUSH1 0x40 MSTORE POP DUP2 ADD SWAP1 PUSH2 0x41A6 SWAP2 SWAP1 PUSH2 0x4F38 JUMP JUMPDEST POP DUP4 PUSH1 0x1 PUSH1 0x1 PUSH1 0xA0 SHL SUB AND PUSH32 0x2FC41B7D7DF3272C17D9B581FCF235307BC027599C6ED68442C4100BD3A84198 DUP3 PUSH1 0x40 MLOAD PUSH2 0x41E2 SWAP2 DUP2 MSTORE PUSH1 0x20 ADD SWAP1 JUMP JUMPDEST PUSH1 0x40 MLOAD DUP1 SWAP2 SUB SWAP1 LOG2 POP JUMPDEST PUSH1 0x10 SLOAD PUSH1 0x1 PUSH1 0x1 PUSH1 0xA0 SHL SUB AND PUSH4 0xA9059CBB PUSH2 0x4205 PUSH2 0x1832 JUMP JUMPDEST DUP4 PUSH1 0x40 MLOAD DUP4 PUSH4 0xFFFFFFFF AND PUSH1 0xE0 SHL DUP2 MSTORE PUSH1 0x4 ADD PUSH2 0x4223 SWAP3 SWAP2 SWAP1 PUSH2 0x52AB JUMP JUMPDEST PUSH1 0x20 PUSH1 0x40 MLOAD DUP1 DUP4 SUB DUP2 PUSH1 0x0 DUP8 DUP1 EXTCODESIZE ISZERO DUP1 ISZERO PUSH2 0x423D JUMPI PUSH1 0x0 DUP1 REVERT JUMPDEST POP GAS CALL ISZERO DUP1 ISZERO PUSH2 0x4251 JUMPI RETURNDATASIZE PUSH1 0x0 DUP1 RETURNDATACOPY RETURNDATASIZE PUSH1 0x0 REVERT JUMPDEST POP POP POP POP PUSH1 0x40 MLOAD RETURNDATASIZE PUSH1 0x1F NOT PUSH1 0x1F DUP3 ADD AND DUP3 ADD DUP1 PUSH1 0x40 MSTORE POP DUP2 ADD SWAP1 PUSH2 0x4275 SWAP2 SWAP1 PUSH2 0x4F38 JUMP JUMPDEST POP PUSH2 0x427E PUSH2 0x1832 JUMP JUMPDEST PUSH1 0x1 PUSH1 0x1 PUSH1 0xA0 SHL SUB AND PUSH32 0xF0F0487D8990103573E0E5CF4E87E101E2A1BA84C733C556B7A5807E570E5D4C DUP3 PUSH1 0x40 MLOAD PUSH2 0x42B8 SWAP2 DUP2 MSTORE PUSH1 0x20 ADD SWAP1 JUMP JUMPDEST PUSH1 0x40 MLOAD DUP1 SWAP2 SUB SWAP1 LOG2 JUMPDEST POP SWAP3 SWAP2 POP POP JUMP JUMPDEST PUSH1 0x0 PUSH1 0x1 PUSH1 0x1 PUSH1 0xA0 SHL SUB DUP5 AND EXTCODESIZE ISZERO PUSH2 0x43CA JUMPI PUSH1 0x40 MLOAD PUSH4 0xA85BD01 PUSH1 0xE1 SHL DUP2 MSTORE PUSH1 0x1 PUSH1 0x1 PUSH1 0xA0 SHL SUB DUP6 AND SWAP1 PUSH4 0x150B7A02 SWAP1 PUSH2 0x430C SWAP1 CALLER SWAP1 DUP10 SWAP1 DUP9 SWAP1 DUP9 SWAP1 PUSH1 0x4 ADD PUSH2 0x526E JUMP JUMPDEST PUSH1 0x20 PUSH1 0x40 MLOAD DUP1 DUP4 SUB DUP2 PUSH1 0x0 DUP8 DUP1 EXTCODESIZE ISZERO DUP1 ISZERO PUSH2 0x4326 JUMPI PUSH1 0x0 DUP1 REVERT JUMPDEST POP GAS CALL SWAP3 POP POP POP DUP1 ISZERO PUSH2 0x4356 JUMPI POP PUSH1 0x40 DUP1 MLOAD PUSH1 0x1F RETURNDATASIZE SWAP1 DUP2 ADD PUSH1 0x1F NOT AND DUP3 ADD SWAP1 SWAP3 MSTORE PUSH2 0x4353 SWAP2 DUP2 ADD SWAP1 PUSH2 0x4FAC JUMP JUMPDEST PUSH1 0x1 JUMPDEST PUSH2 0x43B0 JUMPI RETURNDATASIZE DUP1 DUP1 ISZERO PUSH2 0x4384 JUMPI PUSH1 0x40 MLOAD SWAP2 POP PUSH1 0x1F NOT PUSH1 0x3F RETURNDATASIZE ADD AND DUP3 ADD PUSH1 0x40 MSTORE RETURNDATASIZE DUP3 MSTORE RETURNDATASIZE PUSH1 0x0 PUSH1 0x20 DUP5 ADD RETURNDATACOPY PUSH2 0x4389 JUMP JUMPDEST PUSH1 0x60 SWAP2 POP JUMPDEST POP DUP1 MLOAD PUSH2 0x43A8 JUMPI PUSH1 0x40 MLOAD PUSH3 0x461BCD PUSH1 0xE5 SHL DUP2 MSTORE PUSH1 0x4 ADD PUSH2 0x9E1 SWAP1 PUSH2 0x5393 JUMP JUMPDEST DUP1 MLOAD DUP2 PUSH1 0x20 ADD REVERT JUMPDEST PUSH1 0x1 PUSH1 0x1 PUSH1 0xE0 SHL SUB NOT AND PUSH4 0xA85BD01 PUSH1 0xE1 SHL EQ SWAP1 POP PUSH2 0x2550 JUMP JUMPDEST POP PUSH1 0x1 SWAP5 SWAP4 POP POP POP POP JUMP JUMPDEST PUSH1 0x60 PUSH1 0x40 MLOAD DUP1 PUSH1 0x60 ADD PUSH1 0x40 MSTORE DUP1 PUSH1 0x22 DUP2 MSTORE PUSH1 0x20 ADD PUSH2 0x571D PUSH1 0x22 SWAP2 CODECOPY SWAP1 POP SWAP1 JUMP JUMPDEST PUSH1 0x60 PUSH2 0x4400 DUP3 PUSH2 0x2403 JUMP JUMPDEST PUSH2 0x4464 JUMPI PUSH1 0x40 MLOAD PUSH3 0x461BCD PUSH1 0xE5 SHL DUP2 MSTORE PUSH1 0x20 PUSH1 0x4 DUP3 ADD MSTORE PUSH1 0x2F PUSH1 0x24 DUP3 ADD MSTORE PUSH32 0x4552433732314D657461646174613A2055524920717565727920666F72206E6F PUSH1 0x44 DUP3 ADD MSTORE PUSH15 0x3732BC34B9BA32B73A103A37B5B2B7 PUSH1 0x89 SHL PUSH1 0x64 DUP3 ADD MSTORE PUSH1 0x84 ADD PUSH2 0x9E1 JUMP JUMPDEST PUSH1 0x0 PUSH2 0x446E PUSH2 0x43D5 JUMP JUMPDEST SWAP1 POP PUSH1 0x0 DUP2 MLOAD GT PUSH2 0x448E JUMPI PUSH1 0x40 MLOAD DUP1 PUSH1 0x20 ADD PUSH1 0x40 MSTORE DUP1 PUSH1 0x0 DUP2 MSTORE POP PUSH2 0x1FA3 JUMP JUMPDEST DUP1 PUSH2 0x4498 DUP5 PUSH2 0x480F JUMP JUMPDEST PUSH1 0x40 MLOAD PUSH1 0x20 ADD PUSH2 0x44A9 SWAP3 SWAP2 SWAP1 PUSH2 0x51D0 JUMP JUMPDEST PUSH1 0x40 MLOAD PUSH1 0x20 DUP2 DUP4 SUB SUB DUP2 MSTORE SWAP1 PUSH1 0x40 MSTORE SWAP4 SWAP3 POP POP POP JUMP JUMPDEST PUSH1 0x0 DUP3 PUSH1 0x0 ADD DUP3 DUP2 SLOAD DUP2 LT PUSH2 0x44E4 JUMPI PUSH4 0x4E487B71 PUSH1 0xE0 SHL PUSH1 0x0 MSTORE PUSH1 0x32 PUSH1 0x4 MSTORE PUSH1 0x24 PUSH1 0x0 REVERT JUMPDEST SWAP1 PUSH1 0x0 MSTORE PUSH1 0x20 PUSH1 0x0 KECCAK256 ADD SLOAD SWAP1 POP SWAP3 SWAP2 POP POP JUMP JUMPDEST PUSH1 0x0 DUP2 DUP2 MSTORE PUSH1 0xB PUSH1 0x20 MSTORE PUSH1 0x40 DUP2 KECCAK256 SWAP1 JUMPDEST DUP2 SLOAD DUP2 LT ISZERO PUSH2 0xB12 JUMPI DUP2 PUSH1 0x1 ADD PUSH1 0x0 DUP4 PUSH1 0x0 ADD DUP4 DUP2 SLOAD DUP2 LT PUSH2 0x4539 JUMPI PUSH4 0x4E487B71 PUSH1 0xE0 SHL PUSH1 0x0 MSTORE PUSH1 0x32 PUSH1 0x4 MSTORE PUSH1 0x24 PUSH1 0x0 REVERT JUMPDEST PUSH1 0x0 SWAP2 DUP3 MSTORE PUSH1 0x20 DUP1 DUP4 KECCAK256 SWAP1 SWAP2 ADD SLOAD PUSH1 0x1 PUSH1 0x1 PUSH1 0xA0 SHL SUB AND DUP4 MSTORE DUP3 ADD SWAP3 SWAP1 SWAP3 MSTORE PUSH1 0x40 ADD DUP2 KECCAK256 SSTORE DUP2 SLOAD DUP3 SWAP1 DUP3 SWAP1 DUP2 LT PUSH2 0x4580 JUMPI PUSH4 0x4E487B71 PUSH1 0xE0 SHL PUSH1 0x0 MSTORE PUSH1 0x32 PUSH1 0x4 MSTORE PUSH1 0x24 PUSH1 0x0 REVERT JUMPDEST PUSH1 0x0 SWAP2 DUP3 MSTORE PUSH1 0x20 SWAP1 SWAP2 KECCAK256 ADD DUP1 SLOAD PUSH1 0x1 PUSH1 0x1 PUSH1 0xA0 SHL SUB NOT AND SWAP1 SSTORE DUP1 PUSH2 0x45A3 DUP2 PUSH2 0x565C JUMP JUMPDEST SWAP2 POP POP PUSH2 0x4507 JUMP JUMPDEST PUSH1 0x0 PUSH2 0x1FA3 DUP4 DUP4 PUSH2 0x4928 JUMP JUMPDEST PUSH1 0x0 PUSH2 0x45C2 DUP3 PUSH2 0x1064 JUMP JUMPDEST SWAP1 POP PUSH2 0x45D0 DUP2 PUSH1 0x0 DUP5 PUSH2 0x3987 JUMP JUMPDEST PUSH2 0x45DB PUSH1 0x0 DUP4 PUSH2 0x2420 JUMP JUMPDEST PUSH1 0x1 PUSH1 0x1 PUSH1 0xA0 SHL SUB DUP2 AND PUSH1 0x0 SWAP1 DUP2 MSTORE PUSH1 0x3 PUSH1 0x20 MSTORE PUSH1 0x40 DUP2 KECCAK256 DUP1 SLOAD PUSH1 0x1 SWAP3 SWAP1 PUSH2 0x4604 SWAP1 DUP5 SWAP1 PUSH2 0x55CD JUMP JUMPDEST SWAP1 SWAP2 SSTORE POP POP PUSH1 0x0 DUP3 DUP2 MSTORE PUSH1 0x2 PUSH1 0x20 MSTORE PUSH1 0x40 DUP1 DUP3 KECCAK256 DUP1 SLOAD PUSH1 0x1 PUSH1 0x1 PUSH1 0xA0 SHL SUB NOT AND SWAP1 SSTORE MLOAD DUP4 SWAP2 SWAP1 PUSH1 0x1 PUSH1 0x1 PUSH1 0xA0 SHL SUB DUP5 AND SWAP1 PUSH1 0x0 DUP1 MLOAD PUSH1 0x20 PUSH2 0x573F DUP4 CODECOPY DUP2 MLOAD SWAP2 MSTORE SWAP1 DUP4 SWAP1 LOG4 POP POP JUMP JUMPDEST PUSH1 0x1 PUSH1 0x1 PUSH1 0xA0 SHL SUB DUP3 AND PUSH2 0x46A2 JUMPI PUSH1 0x40 MLOAD PUSH3 0x461BCD PUSH1 0xE5 SHL DUP2 MSTORE PUSH1 0x20 PUSH1 0x4 DUP3 ADD DUP2 SWAP1 MSTORE PUSH1 0x24 DUP3 ADD MSTORE PUSH32 0x4552433732313A206D696E7420746F20746865207A65726F2061646472657373 PUSH1 0x44 DUP3 ADD MSTORE PUSH1 0x64 ADD PUSH2 0x9E1 JUMP JUMPDEST PUSH2 0x46AB DUP2 PUSH2 0x2403 JUMP JUMPDEST ISZERO PUSH2 0x46F7 JUMPI PUSH1 0x40 MLOAD PUSH3 0x461BCD PUSH1 0xE5 SHL DUP2 MSTORE PUSH1 0x20 PUSH1 0x4 DUP3 ADD MSTORE PUSH1 0x1C PUSH1 0x24 DUP3 ADD MSTORE PUSH28 0x115490CDCC8C4E881D1BDAD95B88185B1C9958591E481B5A5B9D1959 PUSH1 0x22 SHL PUSH1 0x44 DUP3 ADD MSTORE PUSH1 0x64 ADD PUSH2 0x9E1 JUMP JUMPDEST PUSH2 0x4703 PUSH1 0x0 DUP4 DUP4 PUSH2 0x3987 JUMP JUMPDEST PUSH1 0x1 PUSH1 0x1 PUSH1 0xA0 SHL SUB DUP3 AND PUSH1 0x0 SWAP1 DUP2 MSTORE PUSH1 0x3 PUSH1 0x20 MSTORE PUSH1 0x40 DUP2 KECCAK256 DUP1 SLOAD PUSH1 0x1 SWAP3 SWAP1 PUSH2 0x472C SWAP1 DUP5 SWAP1 PUSH2 0x5582 JUMP JUMPDEST SWAP1 SWAP2 SSTORE POP POP PUSH1 0x0 DUP2 DUP2 MSTORE PUSH1 0x2 PUSH1 0x20 MSTORE PUSH1 0x40 DUP1 DUP3 KECCAK256 DUP1 SLOAD PUSH1 0x1 PUSH1 0x1 PUSH1 0xA0 SHL SUB NOT AND PUSH1 0x1 PUSH1 0x1 PUSH1 0xA0 SHL SUB DUP7 AND SWAP1 DUP2 OR SWAP1 SWAP2 SSTORE SWAP1 MLOAD DUP4 SWAP3 SWAP1 PUSH1 0x0 DUP1 MLOAD PUSH1 0x20 PUSH2 0x573F DUP4 CODECOPY DUP2 MLOAD SWAP2 MSTORE SWAP1 DUP3 SWAP1 LOG4 POP POP JUMP JUMPDEST PUSH1 0x0 PUSH2 0x1FA3 DUP4 DUP4 PUSH2 0x4A45 JUMP JUMPDEST PUSH2 0x478D DUP3 PUSH2 0x2403 JUMP JUMPDEST PUSH2 0x47F0 JUMPI PUSH1 0x40 MLOAD PUSH3 0x461BCD PUSH1 0xE5 SHL DUP2 MSTORE PUSH1 0x20 PUSH1 0x4 DUP3 ADD MSTORE PUSH1 0x2E PUSH1 0x24 DUP3 ADD MSTORE PUSH32 0x45524337323155524953746F726167653A2055524920736574206F66206E6F6E PUSH1 0x44 DUP3 ADD MSTORE PUSH14 0x32BC34B9BA32B73A103A37B5B2B7 PUSH1 0x91 SHL PUSH1 0x64 DUP3 ADD MSTORE PUSH1 0x84 ADD PUSH2 0x9E1 JUMP JUMPDEST PUSH1 0x0 DUP3 DUP2 MSTORE PUSH1 0x9 PUSH1 0x20 SWAP1 DUP2 MSTORE PUSH1 0x40 SWAP1 SWAP2 KECCAK256 DUP3 MLOAD PUSH2 0xB12 SWAP3 DUP5 ADD SWAP1 PUSH2 0x4AF0 JUMP JUMPDEST PUSH1 0x60 DUP2 PUSH2 0x4833 JUMPI POP POP PUSH1 0x40 DUP1 MLOAD DUP1 DUP3 ADD SWAP1 SWAP2 MSTORE PUSH1 0x1 DUP2 MSTORE PUSH1 0x3 PUSH1 0xFC SHL PUSH1 0x20 DUP3 ADD MSTORE SWAP1 JUMP JUMPDEST DUP2 PUSH1 0x0 JUMPDEST DUP2 ISZERO PUSH2 0x485D JUMPI DUP1 PUSH2 0x4847 DUP2 PUSH2 0x565C JUMP JUMPDEST SWAP2 POP PUSH2 0x4856 SWAP1 POP PUSH1 0xA DUP4 PUSH2 0x559A JUMP JUMPDEST SWAP2 POP PUSH2 0x4837 JUMP JUMPDEST PUSH1 0x0 DUP2 PUSH1 0x1 PUSH1 0x1 PUSH1 0x40 SHL SUB DUP2 GT ISZERO PUSH2 0x4885 JUMPI PUSH4 0x4E487B71 PUSH1 0xE0 SHL PUSH1 0x0 MSTORE PUSH1 0x41 PUSH1 0x4 MSTORE PUSH1 0x24 PUSH1 0x0 REVERT JUMPDEST PUSH1 0x40 MLOAD SWAP1 DUP1 DUP3 MSTORE DUP1 PUSH1 0x1F ADD PUSH1 0x1F NOT AND PUSH1 0x20 ADD DUP3 ADD PUSH1 0x40 MSTORE DUP1 ISZERO PUSH2 0x48AF JUMPI PUSH1 0x20 DUP3 ADD DUP2 DUP1 CALLDATASIZE DUP4 CALLDATACOPY ADD SWAP1 POP JUMPDEST POP SWAP1 POP JUMPDEST DUP5 ISZERO PUSH2 0x2550 JUMPI PUSH2 0x48C4 PUSH1 0x1 DUP4 PUSH2 0x55CD JUMP JUMPDEST SWAP2 POP PUSH2 0x48D1 PUSH1 0xA DUP7 PUSH2 0x5677 JUMP JUMPDEST PUSH2 0x48DC SWAP1 PUSH1 0x30 PUSH2 0x5582 JUMP JUMPDEST PUSH1 0xF8 SHL DUP2 DUP4 DUP2 MLOAD DUP2 LT PUSH2 0x48FF JUMPI PUSH4 0x4E487B71 PUSH1 0xE0 SHL PUSH1 0x0 MSTORE PUSH1 0x32 PUSH1 0x4 MSTORE PUSH1 0x24 PUSH1 0x0 REVERT JUMPDEST PUSH1 0x20 ADD ADD SWAP1 PUSH1 0x1 PUSH1 0x1 PUSH1 0xF8 SHL SUB NOT AND SWAP1 DUP2 PUSH1 0x0 BYTE SWAP1 MSTORE8 POP PUSH2 0x4921 PUSH1 0xA DUP7 PUSH2 0x559A JUMP JUMPDEST SWAP5 POP PUSH2 0x48B3 JUMP JUMPDEST PUSH1 0x0 DUP2 DUP2 MSTORE PUSH1 0x1 DUP4 ADD PUSH1 0x20 MSTORE PUSH1 0x40 DUP2 KECCAK256 SLOAD DUP1 ISZERO PUSH2 0x4A3B JUMPI PUSH1 0x0 PUSH2 0x494C PUSH1 0x1 DUP4 PUSH2 0x55CD JUMP JUMPDEST DUP6 SLOAD SWAP1 SWAP2 POP PUSH1 0x0 SWAP1 PUSH2 0x4960 SWAP1 PUSH1 0x1 SWAP1 PUSH2 0x55CD JUMP JUMPDEST SWAP1 POP DUP2 DUP2 EQ PUSH2 0x49E1 JUMPI PUSH1 0x0 DUP7 PUSH1 0x0 ADD DUP3 DUP2 SLOAD DUP2 LT PUSH2 0x498E JUMPI PUSH4 0x4E487B71 PUSH1 0xE0 SHL PUSH1 0x0 MSTORE PUSH1 0x32 PUSH1 0x4 MSTORE PUSH1 0x24 PUSH1 0x0 REVERT JUMPDEST SWAP1 PUSH1 0x0 MSTORE PUSH1 0x20 PUSH1 0x0 KECCAK256 ADD SLOAD SWAP1 POP DUP1 DUP8 PUSH1 0x0 ADD DUP5 DUP2 SLOAD DUP2 LT PUSH2 0x49BF JUMPI PUSH4 0x4E487B71 PUSH1 0xE0 SHL PUSH1 0x0 MSTORE PUSH1 0x32 PUSH1 0x4 MSTORE PUSH1 0x24 PUSH1 0x0 REVERT JUMPDEST PUSH1 0x0 SWAP2 DUP3 MSTORE PUSH1 0x20 DUP1 DUP4 KECCAK256 SWAP1 SWAP2 ADD SWAP3 SWAP1 SWAP3 SSTORE SWAP2 DUP3 MSTORE PUSH1 0x1 DUP9 ADD SWAP1 MSTORE PUSH1 0x40 SWAP1 KECCAK256 DUP4 SWAP1 SSTORE JUMPDEST DUP6 SLOAD DUP7 SWAP1 DUP1 PUSH2 0x4A00 JUMPI PUSH4 0x4E487B71 PUSH1 0xE0 SHL PUSH1 0x0 MSTORE PUSH1 0x31 PUSH1 0x4 MSTORE PUSH1 0x24 PUSH1 0x0 REVERT JUMPDEST PUSH1 0x1 SWAP1 SUB DUP2 DUP2 SWAP1 PUSH1 0x0 MSTORE PUSH1 0x20 PUSH1 0x0 KECCAK256 ADD PUSH1 0x0 SWAP1 SSTORE SWAP1 SSTORE DUP6 PUSH1 0x1 ADD PUSH1 0x0 DUP7 DUP2 MSTORE PUSH1 0x20 ADD SWAP1 DUP2 MSTORE PUSH1 0x20 ADD PUSH1 0x0 KECCAK256 PUSH1 0x0 SWAP1 SSTORE PUSH1 0x1 SWAP4 POP POP POP POP PUSH2 0x89C JUMP JUMPDEST PUSH1 0x0 SWAP2 POP POP PUSH2 0x89C JUMP JUMPDEST PUSH1 0x0 DUP2 DUP2 MSTORE PUSH1 0x1 DUP4 ADD PUSH1 0x20 MSTORE PUSH1 0x40 DUP2 KECCAK256 SLOAD PUSH2 0x4A8C JUMPI POP DUP2 SLOAD PUSH1 0x1 DUP2 DUP2 ADD DUP5 SSTORE PUSH1 0x0 DUP5 DUP2 MSTORE PUSH1 0x20 DUP1 DUP3 KECCAK256 SWAP1 SWAP4 ADD DUP5 SWAP1 SSTORE DUP5 SLOAD DUP5 DUP3 MSTORE DUP3 DUP7 ADD SWAP1 SWAP4 MSTORE PUSH1 0x40 SWAP1 KECCAK256 SWAP2 SWAP1 SWAP2 SSTORE PUSH2 0x89C JUMP JUMPDEST POP PUSH1 0x0 PUSH2 0x89C JUMP JUMPDEST PUSH1 0x40 DUP1 MLOAD PUSH1 0xE0 DUP2 ADD SWAP1 SWAP2 MSTORE DUP1 PUSH1 0x0 DUP2 MSTORE PUSH1 0x20 ADD PUSH1 0x0 DUP2 MSTORE PUSH1 0x20 ADD PUSH1 0x0 DUP2 MSTORE PUSH1 0x20 ADD PUSH1 0x0 DUP2 MSTORE PUSH1 0x20 ADD PUSH1 0x0 DUP2 MSTORE PUSH1 0x20 ADD PUSH1 0x0 DUP2 MSTORE PUSH1 0x20 ADD PUSH1 0x0 PUSH1 0x2 DUP2 GT ISZERO PUSH2 0x4AEB JUMPI PUSH4 0x4E487B71 PUSH1 0xE0 SHL PUSH1 0x0 MSTORE PUSH1 0x21 PUSH1 0x4 MSTORE PUSH1 0x24 PUSH1 0x0 REVERT JUMPDEST SWAP1 MSTORE SWAP1 JUMP JUMPDEST DUP3 DUP1 SLOAD PUSH2 0x4AFC SWAP1 PUSH2 0x5627 JUMP JUMPDEST SWAP1 PUSH1 0x0 MSTORE PUSH1 0x20 PUSH1 0x0 KECCAK256 SWAP1 PUSH1 0x1F ADD PUSH1 0x20 SWAP1 DIV DUP2 ADD SWAP3 DUP3 PUSH2 0x4B1E JUMPI PUSH1 0x0 DUP6 SSTORE PUSH2 0x4B64 JUMP JUMPDEST DUP3 PUSH1 0x1F LT PUSH2 0x4B37 JUMPI DUP1 MLOAD PUSH1 0xFF NOT AND DUP4 DUP1 ADD OR DUP6 SSTORE PUSH2 0x4B64 JUMP JUMPDEST DUP3 DUP1 ADD PUSH1 0x1 ADD DUP6 SSTORE DUP3 ISZERO PUSH2 0x4B64 JUMPI SWAP2 DUP3 ADD JUMPDEST DUP3 DUP2 GT ISZERO PUSH2 0x4B64 JUMPI DUP3 MLOAD DUP3 SSTORE SWAP2 PUSH1 0x20 ADD SWAP2 SWAP1 PUSH1 0x1 ADD SWAP1 PUSH2 0x4B49 JUMP JUMPDEST POP PUSH2 0x4B70 SWAP3 SWAP2 POP PUSH2 0x4B74 JUMP JUMPDEST POP SWAP1 JUMP JUMPDEST JUMPDEST DUP1 DUP3 GT ISZERO PUSH2 0x4B70 JUMPI PUSH1 0x0 DUP2 SSTORE PUSH1 0x1 ADD PUSH2 0x4B75 JUMP JUMPDEST PUSH1 0x0 PUSH1 0x1 PUSH1 0x1 PUSH1 0x40 SHL SUB DUP1 DUP5 GT ISZERO PUSH2 0x4BA3 JUMPI PUSH2 0x4BA3 PUSH2 0x56CD JUMP JUMPDEST PUSH1 0x40 MLOAD PUSH1 0x1F DUP6 ADD PUSH1 0x1F NOT SWAP1 DUP2 AND PUSH1 0x3F ADD AND DUP2 ADD SWAP1 DUP3 DUP3 GT DUP2 DUP4 LT OR ISZERO PUSH2 0x4BCB JUMPI PUSH2 0x4BCB PUSH2 0x56CD JUMP JUMPDEST DUP2 PUSH1 0x40 MSTORE DUP1 SWAP4 POP DUP6 DUP2 MSTORE DUP7 DUP7 DUP7 ADD GT ISZERO PUSH2 0x4BE4 JUMPI PUSH1 0x0 DUP1 REVERT JUMPDEST DUP6 DUP6 PUSH1 0x20 DUP4 ADD CALLDATACOPY PUSH1 0x0 PUSH1 0x20 DUP8 DUP4 ADD ADD MSTORE POP POP POP SWAP4 SWAP3 POP POP POP JUMP JUMPDEST PUSH1 0x0 DUP1 DUP4 PUSH1 0x1F DUP5 ADD SLT PUSH2 0x4C0F JUMPI DUP2 DUP3 REVERT JUMPDEST POP DUP2 CALLDATALOAD PUSH1 0x1 PUSH1 0x1 PUSH1 0x40 SHL SUB DUP2 GT ISZERO PUSH2 0x4C25 JUMPI DUP2 DUP3 REVERT JUMPDEST PUSH1 0x20 DUP4 ADD SWAP2 POP DUP4 PUSH1 0x20 DUP3 PUSH1 0x5 SHL DUP6 ADD ADD GT ISZERO PUSH2 0x4C40 JUMPI PUSH1 0x0 DUP1 REVERT JUMPDEST SWAP3 POP SWAP3 SWAP1 POP JUMP JUMPDEST DUP1 MLOAD PUSH1 0x1 PUSH1 0x1 PUSH1 0x50 SHL SUB DUP2 AND DUP2 EQ PUSH2 0x4C5E JUMPI PUSH1 0x0 DUP1 REVERT JUMPDEST SWAP2 SWAP1 POP JUMP JUMPDEST PUSH1 0x0 PUSH1 0x20 DUP3 DUP5 SUB SLT ISZERO PUSH2 0x4C74 JUMPI DUP1 DUP2 REVERT JUMPDEST DUP2 CALLDATALOAD PUSH2 0x1FA3 DUP2 PUSH2 0x56E3 JUMP JUMPDEST PUSH1 0x0 PUSH1 0x20 DUP3 DUP5 SUB SLT ISZERO PUSH2 0x4C90 JUMPI DUP1 DUP2 REVERT JUMPDEST DUP2 MLOAD PUSH2 0x1FA3 DUP2 PUSH2 0x56E3 JUMP JUMPDEST PUSH1 0x0 DUP1 PUSH1 0x40 DUP4 DUP6 SUB SLT ISZERO PUSH2 0x4CAD JUMPI DUP1 DUP2 REVERT JUMPDEST DUP3 CALLDATALOAD PUSH2 0x4CB8 DUP2 PUSH2 0x56E3 JUMP JUMPDEST SWAP2 POP PUSH1 0x20 DUP4 ADD CALLDATALOAD PUSH2 0x4CC8 DUP2 PUSH2 0x56E3 JUMP JUMPDEST DUP1 SWAP2 POP POP SWAP3 POP SWAP3 SWAP1 POP JUMP JUMPDEST PUSH1 0x0 DUP1 PUSH1 0x0 PUSH1 0x60 DUP5 DUP7 SUB SLT ISZERO PUSH2 0x4CE7 JUMPI DUP1 DUP2 REVERT JUMPDEST DUP4 CALLDATALOAD PUSH2 0x4CF2 DUP2 PUSH2 0x56E3 JUMP JUMPDEST SWAP3 POP PUSH1 0x20 DUP5 ADD CALLDATALOAD PUSH2 0x4D02 DUP2 PUSH2 0x56E3 JUMP JUMPDEST SWAP3 SWAP6 SWAP3 SWAP5 POP POP POP PUSH1 0x40 SWAP2 SWAP1 SWAP2 ADD CALLDATALOAD SWAP1 JUMP JUMPDEST PUSH1 0x0 DUP1 PUSH1 0x0 DUP1 PUSH1 0x80 DUP6 DUP8 SUB SLT ISZERO PUSH2 0x4D28 JUMPI DUP1 DUP2 REVERT JUMPDEST DUP5 CALLDATALOAD PUSH2 0x4D33 DUP2 PUSH2 0x56E3 JUMP JUMPDEST SWAP4 POP PUSH1 0x20 DUP6 ADD CALLDATALOAD PUSH2 0x4D43 DUP2 PUSH2 0x56E3 JUMP JUMPDEST SWAP3 POP PUSH1 0x40 DUP6 ADD CALLDATALOAD SWAP2 POP PUSH1 0x60 DUP6 ADD CALLDATALOAD PUSH1 0x1 PUSH1 0x1 PUSH1 0x40 SHL SUB DUP2 GT ISZERO PUSH2 0x4D64 JUMPI DUP2 DUP3 REVERT JUMPDEST DUP6 ADD PUSH1 0x1F DUP2 ADD DUP8 SGT PUSH2 0x4D74 JUMPI DUP2 DUP3 REVERT JUMPDEST PUSH2 0x4D83 DUP8 DUP3 CALLDATALOAD PUSH1 0x20 DUP5 ADD PUSH2 0x4B89 JUMP JUMPDEST SWAP2 POP POP SWAP3 SWAP6 SWAP2 SWAP5 POP SWAP3 POP JUMP JUMPDEST PUSH1 0x0 DUP1 PUSH1 0x0 DUP1 PUSH1 0x80 DUP6 DUP8 SUB SLT ISZERO PUSH2 0x4DA4 JUMPI DUP4 DUP5 REVERT JUMPDEST DUP5 CALLDATALOAD PUSH2 0x4DAF DUP2 PUSH2 0x56E3 JUMP JUMPDEST SWAP4 POP PUSH1 0x20 DUP6 ADD CALLDATALOAD PUSH2 0x4DBF DUP2 PUSH2 0x56E3 JUMP JUMPDEST SWAP4 SWAP7 SWAP4 SWAP6 POP POP POP POP PUSH1 0x40 DUP3 ADD CALLDATALOAD SWAP2 PUSH1 0x60 ADD CALLDATALOAD SWAP1 JUMP JUMPDEST PUSH1 0x0 DUP1 PUSH1 0x0 DUP1 PUSH1 0x0 PUSH1 0xA0 DUP7 DUP9 SUB SLT ISZERO PUSH2 0x4DEB JUMPI DUP1 DUP2 REVERT JUMPDEST DUP6 CALLDATALOAD PUSH2 0x4DF6 DUP2 PUSH2 0x56E3 JUMP JUMPDEST SWAP5 POP PUSH1 0x20 DUP7 ADD CALLDATALOAD PUSH2 0x4E06 DUP2 PUSH2 0x56E3 JUMP JUMPDEST SWAP5 SWAP8 SWAP5 SWAP7 POP POP POP POP PUSH1 0x40 DUP4 ADD CALLDATALOAD SWAP3 PUSH1 0x60 DUP2 ADD CALLDATALOAD SWAP3 PUSH1 0x80 SWAP1 SWAP2 ADD CALLDATALOAD SWAP2 POP JUMP JUMPDEST PUSH1 0x0 DUP1 PUSH1 0x40 DUP4 DUP6 SUB SLT ISZERO PUSH2 0x4E36 JUMPI DUP2 DUP3 REVERT JUMPDEST DUP3 CALLDATALOAD PUSH2 0x4E41 DUP2 PUSH2 0x56E3 JUMP JUMPDEST SWAP2 POP PUSH1 0x20 DUP4 ADD CALLDATALOAD PUSH2 0x4CC8 DUP2 PUSH2 0x56F8 JUMP JUMPDEST PUSH1 0x0 DUP1 PUSH1 0x40 DUP4 DUP6 SUB SLT ISZERO PUSH2 0x4E63 JUMPI DUP2 DUP3 REVERT JUMPDEST DUP3 CALLDATALOAD PUSH2 0x4E6E DUP2 PUSH2 0x56E3 JUMP JUMPDEST SWAP5 PUSH1 0x20 SWAP4 SWAP1 SWAP4 ADD CALLDATALOAD SWAP4 POP POP POP JUMP JUMPDEST PUSH1 0x0 DUP1 PUSH1 0x0 PUSH1 0x60 DUP5 DUP7 SUB SLT ISZERO PUSH2 0x4E90 JUMPI DUP1 DUP2 REVERT JUMPDEST DUP4 CALLDATALOAD PUSH2 0x4E9B DUP2 PUSH2 0x56E3 JUMP JUMPDEST SWAP6 PUSH1 0x20 DUP6 ADD CALLDATALOAD SWAP6 POP PUSH1 0x40 SWAP1 SWAP5 ADD CALLDATALOAD SWAP4 SWAP3 POP POP POP JUMP JUMPDEST PUSH1 0x0 DUP1 PUSH1 0x20 DUP4 DUP6 SUB SLT ISZERO PUSH2 0x4EC2 JUMPI DUP2 DUP3 REVERT JUMPDEST DUP3 CALLDATALOAD PUSH1 0x1 PUSH1 0x1 PUSH1 0x40 SHL SUB DUP2 GT ISZERO PUSH2 0x4ED7 JUMPI DUP3 DUP4 REVERT JUMPDEST PUSH2 0x4EE3 DUP6 DUP3 DUP7 ADD PUSH2 0x4BFE JUMP JUMPDEST SWAP1 SWAP7 SWAP1 SWAP6 POP SWAP4 POP POP POP POP JUMP JUMPDEST PUSH1 0x0 DUP1 PUSH1 0x0 PUSH1 0x40 DUP5 DUP7 SUB SLT ISZERO PUSH2 0x4F03 JUMPI DUP1 DUP2 REVERT JUMPDEST DUP4 CALLDATALOAD PUSH1 0x1 PUSH1 0x1 PUSH1 0x40 SHL SUB DUP2 GT ISZERO PUSH2 0x4F18 JUMPI DUP2 DUP3 REVERT JUMPDEST PUSH2 0x4F24 DUP7 DUP3 DUP8 ADD PUSH2 0x4BFE JUMP JUMPDEST SWAP1 SWAP8 SWAP1 SWAP7 POP PUSH1 0x20 SWAP6 SWAP1 SWAP6 ADD CALLDATALOAD SWAP5 SWAP4 POP POP POP POP JUMP JUMPDEST PUSH1 0x0 PUSH1 0x20 DUP3 DUP5 SUB SLT ISZERO PUSH2 0x4F49 JUMPI DUP1 DUP2 REVERT JUMPDEST DUP2 MLOAD PUSH2 0x1FA3 DUP2 PUSH2 0x56F8 JUMP JUMPDEST PUSH1 0x0 PUSH1 0x20 DUP3 DUP5 SUB SLT ISZERO PUSH2 0x4F65 JUMPI DUP1 DUP2 REVERT JUMPDEST POP CALLDATALOAD SWAP2 SWAP1 POP JUMP JUMPDEST PUSH1 0x0 DUP1 PUSH1 0x40 DUP4 DUP6 SUB SLT ISZERO PUSH2 0x4F7E JUMPI DUP2 DUP3 REVERT JUMPDEST DUP3 CALLDATALOAD SWAP2 POP PUSH1 0x20 DUP4 ADD CALLDATALOAD PUSH2 0x4CC8 DUP2 PUSH2 0x56E3 JUMP JUMPDEST PUSH1 0x0 PUSH1 0x20 DUP3 DUP5 SUB SLT ISZERO PUSH2 0x4FA1 JUMPI DUP1 DUP2 REVERT JUMPDEST DUP2 CALLDATALOAD PUSH2 0x1FA3 DUP2 PUSH2 0x5706 JUMP JUMPDEST PUSH1 0x0 PUSH1 0x20 DUP3 DUP5 SUB SLT ISZERO PUSH2 0x4FBD JUMPI DUP1 DUP2 REVERT JUMPDEST DUP2 MLOAD PUSH2 0x1FA3 DUP2 PUSH2 0x5706 JUMP JUMPDEST PUSH1 0x0 PUSH1 0x20 DUP3 DUP5 SUB SLT ISZERO PUSH2 0x4FD9 JUMPI DUP1 DUP2 REVERT JUMPDEST POP MLOAD SWAP2 SWAP1 POP JUMP JUMPDEST PUSH1 0x0 DUP1 PUSH1 0x0 PUSH1 0x40 DUP5 DUP7 SUB SLT ISZERO PUSH2 0x4FF4 JUMPI DUP1 DUP2 REVERT JUMPDEST DUP4 CALLDATALOAD SWAP3 POP PUSH1 0x20 DUP5 ADD CALLDATALOAD PUSH1 0x1 PUSH1 0x1 PUSH1 0x40 SHL SUB DUP2 GT ISZERO PUSH2 0x5010 JUMPI DUP2 DUP3 REVERT JUMPDEST PUSH2 0x501C DUP7 DUP3 DUP8 ADD PUSH2 0x4BFE JUMP JUMPDEST SWAP5 SWAP8 SWAP1 SWAP7 POP SWAP4 SWAP5 POP POP POP POP JUMP JUMPDEST PUSH1 0x0 DUP1 PUSH1 0x40 DUP4 DUP6 SUB SLT ISZERO PUSH2 0x503B JUMPI DUP2 DUP3 REVERT JUMPDEST POP POP DUP1 CALLDATALOAD SWAP3 PUSH1 0x20 SWAP1 SWAP2 ADD CALLDATALOAD SWAP2 POP JUMP JUMPDEST PUSH1 0x0 DUP1 PUSH1 0x0 DUP1 PUSH1 0x0 PUSH1 0xA0 DUP7 DUP9 SUB SLT ISZERO PUSH2 0x5061 JUMPI DUP3 DUP4 REVERT JUMPDEST DUP6 CALLDATALOAD SWAP5 POP PUSH1 0x20 DUP7 ADD CALLDATALOAD SWAP4 POP PUSH1 0x40 DUP7 ADD CALLDATALOAD SWAP3 POP PUSH1 0x60 DUP7 ADD CALLDATALOAD PUSH2 0x5081 DUP2 PUSH2 0x56F8 JUMP JUMPDEST SWAP2 POP PUSH1 0x80 DUP7 ADD CALLDATALOAD PUSH2 0x5091 DUP2 PUSH2 0x56F8 JUMP JUMPDEST DUP1 SWAP2 POP POP SWAP3 SWAP6 POP SWAP3 SWAP6 SWAP1 SWAP4 POP JUMP JUMPDEST PUSH1 0x0 DUP1 PUSH1 0x0 DUP1 PUSH1 0x0 DUP1 PUSH1 0x0 PUSH1 0xE0 DUP9 DUP11 SUB SLT ISZERO PUSH2 0x50B9 JUMPI DUP5 DUP6 REVERT JUMPDEST DUP8 CALLDATALOAD SWAP7 POP PUSH1 0x20 DUP9 ADD CALLDATALOAD SWAP6 POP PUSH1 0x40 DUP9 ADD CALLDATALOAD SWAP5 POP PUSH1 0x60 DUP9 ADD CALLDATALOAD PUSH2 0x50D9 DUP2 PUSH2 0x56F8 JUMP JUMPDEST SWAP4 POP PUSH1 0x80 DUP9 ADD CALLDATALOAD PUSH2 0x50E9 DUP2 PUSH2 0x56F8 JUMP JUMPDEST SWAP3 POP PUSH1 0xA0 DUP9 ADD CALLDATALOAD PUSH2 0x50F9 DUP2 PUSH2 0x56E3 JUMP JUMPDEST SWAP2 POP PUSH1 0xC0 DUP9 ADD CALLDATALOAD PUSH1 0x1 PUSH1 0x1 PUSH1 0x40 SHL SUB DUP2 GT ISZERO PUSH2 0x5113 JUMPI DUP2 DUP3 REVERT JUMPDEST DUP9 ADD PUSH1 0x1F DUP2 ADD DUP11 SGT PUSH2 0x5123 JUMPI DUP2 DUP3 REVERT JUMPDEST PUSH2 0x5132 DUP11 DUP3 CALLDATALOAD PUSH1 0x20 DUP5 ADD PUSH2 0x4B89 JUMP JUMPDEST SWAP2 POP POP SWAP3 SWAP6 SWAP9 SWAP2 SWAP5 SWAP8 POP SWAP3 SWAP6 POP JUMP JUMPDEST PUSH1 0x0 DUP1 PUSH1 0x0 DUP1 PUSH1 0x0 PUSH1 0xA0 DUP7 DUP9 SUB SLT ISZERO PUSH2 0x5158 JUMPI DUP3 DUP4 REVERT JUMPDEST PUSH2 0x5161 DUP7 PUSH2 0x4C47 JUMP JUMPDEST SWAP5 POP PUSH1 0x20 DUP7 ADD MLOAD SWAP4 POP PUSH1 0x40 DUP7 ADD MLOAD SWAP3 POP PUSH1 0x60 DUP7 ADD MLOAD SWAP2 POP PUSH2 0x5184 PUSH1 0x80 DUP8 ADD PUSH2 0x4C47 JUMP JUMPDEST SWAP1 POP SWAP3 SWAP6 POP SWAP3 SWAP6 SWAP1 SWAP4 POP JUMP JUMPDEST PUSH1 0x0 DUP2 MLOAD DUP1 DUP5 MSTORE PUSH2 0x51A8 DUP2 PUSH1 0x20 DUP7 ADD PUSH1 0x20 DUP7 ADD PUSH2 0x55E4 JUMP JUMPDEST PUSH1 0x1F ADD PUSH1 0x1F NOT AND SWAP3 SWAP1 SWAP3 ADD PUSH1 0x20 ADD SWAP3 SWAP2 POP POP JUMP JUMPDEST PUSH1 0x3 DUP2 LT PUSH2 0x51CC JUMPI PUSH2 0x51CC PUSH2 0x56B7 JUMP JUMPDEST SWAP1 MSTORE JUMP JUMPDEST PUSH1 0x0 DUP4 MLOAD PUSH2 0x51E2 DUP2 DUP5 PUSH1 0x20 DUP9 ADD PUSH2 0x55E4 JUMP JUMPDEST DUP4 MLOAD SWAP1 DUP4 ADD SWAP1 PUSH2 0x51F6 DUP2 DUP4 PUSH1 0x20 DUP9 ADD PUSH2 0x55E4 JUMP JUMPDEST ADD SWAP5 SWAP4 POP POP POP POP JUMP JUMPDEST PUSH23 0x20B1B1B2B9B9A1B7B73A3937B61D1030B1B1B7BAB73A1 PUSH1 0x4D SHL DUP2 MSTORE PUSH1 0x0 DUP4 MLOAD PUSH2 0x5231 DUP2 PUSH1 0x17 DUP6 ADD PUSH1 0x20 DUP9 ADD PUSH2 0x55E4 JUMP JUMPDEST PUSH17 0x1034B99036B4B9B9B4B733903937B6329 PUSH1 0x7D SHL PUSH1 0x17 SWAP2 DUP5 ADD SWAP2 DUP3 ADD MSTORE DUP4 MLOAD PUSH2 0x5262 DUP2 PUSH1 0x28 DUP5 ADD PUSH1 0x20 DUP9 ADD PUSH2 0x55E4 JUMP JUMPDEST ADD PUSH1 0x28 ADD SWAP5 SWAP4 POP POP POP POP JUMP JUMPDEST PUSH1 0x1 PUSH1 0x1 PUSH1 0xA0 SHL SUB DUP6 DUP2 AND DUP3 MSTORE DUP5 AND PUSH1 0x20 DUP3 ADD MSTORE PUSH1 0x40 DUP2 ADD DUP4 SWAP1 MSTORE PUSH1 0x80 PUSH1 0x60 DUP3 ADD DUP2 SWAP1 MSTORE PUSH1 0x0 SWAP1 PUSH2 0x52A1 SWAP1 DUP4 ADD DUP5 PUSH2 0x5190 JUMP JUMPDEST SWAP7 SWAP6 POP POP POP POP POP POP JUMP JUMPDEST PUSH1 0x1 PUSH1 0x1 PUSH1 0xA0 SHL SUB SWAP3 SWAP1 SWAP3 AND DUP3 MSTORE PUSH1 0x20 DUP3 ADD MSTORE PUSH1 0x40 ADD SWAP1 JUMP JUMPDEST PUSH1 0x20 DUP1 DUP3 MSTORE DUP3 MLOAD DUP3 DUP3 ADD DUP2 SWAP1 MSTORE PUSH1 0x0 SWAP2 SWAP1 DUP5 DUP3 ADD SWAP1 PUSH1 0x40 DUP6 ADD SWAP1 DUP5 JUMPDEST DUP2 DUP2 LT ISZERO PUSH2 0x52FC JUMPI DUP4 MLOAD DUP4 MSTORE SWAP3 DUP5 ADD SWAP3 SWAP2 DUP5 ADD SWAP2 PUSH1 0x1 ADD PUSH2 0x52E0 JUMP JUMPDEST POP SWAP1 SWAP7 SWAP6 POP POP POP POP POP POP JUMP JUMPDEST PUSH1 0xE0 DUP2 ADD PUSH1 0x4 DUP10 LT PUSH2 0x531C JUMPI PUSH2 0x531C PUSH2 0x56B7 JUMP JUMPDEST DUP9 DUP3 MSTORE DUP8 PUSH1 0x20 DUP4 ADD MSTORE DUP7 PUSH1 0x40 DUP4 ADD MSTORE DUP6 PUSH1 0x60 DUP4 ADD MSTORE DUP5 PUSH1 0x80 DUP4 ADD MSTORE DUP4 PUSH1 0xA0 DUP4 ADD MSTORE PUSH2 0x534A PUSH1 0xC0 DUP4 ADD DUP5 PUSH2 0x51BC JUMP JUMPDEST SWAP9 SWAP8 POP POP POP POP POP POP POP POP JUMP JUMPDEST SWAP2 DUP3 MSTORE PUSH1 0x20 DUP3 ADD MSTORE PUSH1 0x40 ADD SWAP1 JUMP JUMPDEST PUSH1 0x20 DUP2 MSTORE PUSH1 0x0 PUSH2 0x1FA3 PUSH1 0x20 DUP4 ADD DUP5 PUSH2 0x5190 JUMP JUMPDEST PUSH1 0x20 DUP1 DUP3 MSTORE PUSH1 0x2 SWAP1 DUP3 ADD MSTORE PUSH2 0x4F39 PUSH1 0xF0 SHL PUSH1 0x40 DUP3 ADD MSTORE PUSH1 0x60 ADD SWAP1 JUMP JUMPDEST PUSH1 0x20 DUP1 DUP3 MSTORE PUSH1 0x32 SWAP1 DUP3 ADD MSTORE PUSH32 0x4552433732313A207472616E7366657220746F206E6F6E204552433732315265 PUSH1 0x40 DUP3 ADD MSTORE PUSH18 0x31B2B4BB32B91034B6B83632B6B2B73A32B9 PUSH1 0x71 SHL PUSH1 0x60 DUP3 ADD MSTORE PUSH1 0x80 ADD SWAP1 JUMP JUMPDEST PUSH1 0x20 DUP1 DUP3 MSTORE PUSH1 0x3 SWAP1 DUP3 ADD MSTORE PUSH3 0x4F323 PUSH1 0xEC SHL PUSH1 0x40 DUP3 ADD MSTORE PUSH1 0x60 ADD SWAP1 JUMP JUMPDEST PUSH1 0x20 DUP1 DUP3 MSTORE PUSH1 0x2 SWAP1 DUP3 ADD MSTORE PUSH2 0x4E37 PUSH1 0xF0 SHL PUSH1 0x40 DUP3 ADD MSTORE PUSH1 0x60 ADD SWAP1 JUMP JUMPDEST PUSH1 0x20 DUP1 DUP3 MSTORE DUP2 DUP2 ADD MSTORE PUSH32 0x4F776E61626C653A2063616C6C6572206973206E6F7420746865206F776E6572 PUSH1 0x40 DUP3 ADD MSTORE PUSH1 0x60 ADD SWAP1 JUMP JUMPDEST PUSH1 0x20 DUP1 DUP3 MSTORE PUSH1 0x31 SWAP1 DUP3 ADD MSTORE PUSH32 0x4552433732313A207472616E736665722063616C6C6572206973206E6F74206F PUSH1 0x40 DUP3 ADD MSTORE PUSH17 0x1DDB995C881B9BDC88185C1C1C9BDD9959 PUSH1 0x7A SHL PUSH1 0x60 DUP3 ADD MSTORE PUSH1 0x80 ADD SWAP1 JUMP JUMPDEST PUSH1 0x20 DUP1 DUP3 MSTORE PUSH1 0x1F SWAP1 DUP3 ADD MSTORE PUSH32 0x5265656E7472616E637947756172643A207265656E7472616E742063616C6C00 PUSH1 0x40 DUP3 ADD MSTORE PUSH1 0x60 ADD SWAP1 JUMP JUMPDEST PUSH1 0x20 DUP1 DUP3 MSTORE PUSH1 0x2 SWAP1 DUP3 ADD MSTORE PUSH2 0x13CD PUSH1 0xF2 SHL PUSH1 0x40 DUP3 ADD MSTORE PUSH1 0x60 ADD SWAP1 JUMP JUMPDEST DUP5 DUP2 MSTORE PUSH1 0x20 DUP2 ADD DUP5 SWAP1 MSTORE PUSH1 0x80 DUP2 ADD PUSH2 0x5512 PUSH1 0x40 DUP4 ADD DUP6 PUSH2 0x51BC JUMP JUMPDEST DUP3 ISZERO ISZERO PUSH1 0x60 DUP4 ADD MSTORE SWAP6 SWAP5 POP POP POP POP POP JUMP JUMPDEST DUP5 DUP2 MSTORE PUSH1 0x20 DUP2 ADD DUP5 SWAP1 MSTORE PUSH1 0x80 DUP2 ADD PUSH2 0x553E PUSH1 0x40 DUP4 ADD DUP6 PUSH2 0x51BC JUMP JUMPDEST DUP3 PUSH1 0x60 DUP4 ADD MSTORE SWAP6 SWAP5 POP POP POP POP POP JUMP JUMPDEST DUP4 DUP2 MSTORE DUP3 PUSH1 0x20 DUP3 ADD MSTORE PUSH1 0x60 PUSH1 0x40 DUP3 ADD MSTORE PUSH1 0x0 PUSH2 0x2B64 PUSH1 0x60 DUP4 ADD DUP5 PUSH2 0x5190 JUMP JUMPDEST SWAP3 DUP4 MSTORE PUSH1 0x20 DUP4 ADD SWAP2 SWAP1 SWAP2 MSTORE PUSH1 0x40 DUP3 ADD MSTORE PUSH1 0x60 ADD SWAP1 JUMP JUMPDEST PUSH1 0x0 DUP3 NOT DUP3 GT ISZERO PUSH2 0x5595 JUMPI PUSH2 0x5595 PUSH2 0x568B JUMP JUMPDEST POP ADD SWAP1 JUMP JUMPDEST PUSH1 0x0 DUP3 PUSH2 0x55A9 JUMPI PUSH2 0x55A9 PUSH2 0x56A1 JUMP JUMPDEST POP DIV SWAP1 JUMP JUMPDEST PUSH1 0x0 DUP2 PUSH1 0x0 NOT DIV DUP4 GT DUP3 ISZERO ISZERO AND ISZERO PUSH2 0x55C8 JUMPI PUSH2 0x55C8 PUSH2 0x568B JUMP JUMPDEST POP MUL SWAP1 JUMP JUMPDEST PUSH1 0x0 DUP3 DUP3 LT ISZERO PUSH2 0x55DF JUMPI PUSH2 0x55DF PUSH2 0x568B JUMP JUMPDEST POP SUB SWAP1 JUMP JUMPDEST PUSH1 0x0 JUMPDEST DUP4 DUP2 LT ISZERO PUSH2 0x55FF JUMPI DUP2 DUP2 ADD MLOAD DUP4 DUP3 ADD MSTORE PUSH1 0x20 ADD PUSH2 0x55E7 JUMP JUMPDEST DUP4 DUP2 GT ISZERO PUSH2 0x105E JUMPI POP POP PUSH1 0x0 SWAP2 ADD MSTORE JUMP JUMPDEST PUSH1 0x0 DUP2 PUSH2 0x561F JUMPI PUSH2 0x561F PUSH2 0x568B JUMP JUMPDEST POP PUSH1 0x0 NOT ADD SWAP1 JUMP JUMPDEST PUSH1 0x1 DUP2 DUP2 SHR SWAP1 DUP3 AND DUP1 PUSH2 0x563B JUMPI PUSH1 0x7F DUP3 AND SWAP2 POP JUMPDEST PUSH1 0x20 DUP3 LT DUP2 EQ ISZERO PUSH2 0x973 JUMPI PUSH4 0x4E487B71 PUSH1 0xE0 SHL PUSH1 0x0 MSTORE PUSH1 0x22 PUSH1 0x4 MSTORE PUSH1 0x24 PUSH1 0x0 REVERT JUMPDEST PUSH1 0x0 PUSH1 0x0 NOT DUP3 EQ ISZERO PUSH2 0x5670 JUMPI PUSH2 0x5670 PUSH2 0x568B JUMP JUMPDEST POP PUSH1 0x1 ADD SWAP1 JUMP JUMPDEST PUSH1 0x0 DUP3 PUSH2 0x5686 JUMPI PUSH2 0x5686 PUSH2 0x56A1 JUMP JUMPDEST POP MOD SWAP1 JUMP JUMPDEST PUSH4 0x4E487B71 PUSH1 0xE0 SHL PUSH1 0x0 MSTORE PUSH1 0x11 PUSH1 0x4 MSTORE PUSH1 0x24 PUSH1 0x0 REVERT JUMPDEST PUSH4 0x4E487B71 PUSH1 0xE0 SHL PUSH1 0x0 MSTORE PUSH1 0x12 PUSH1 0x4 MSTORE PUSH1 0x24 PUSH1 0x0 REVERT JUMPDEST PUSH4 0x4E487B71 PUSH1 0xE0 SHL PUSH1 0x0 MSTORE PUSH1 0x21 PUSH1 0x4 MSTORE PUSH1 0x24 PUSH1 0x0 REVERT JUMPDEST PUSH4 0x4E487B71 PUSH1 0xE0 SHL PUSH1 0x0 MSTORE PUSH1 0x41 PUSH1 0x4 MSTORE PUSH1 0x24 PUSH1 0x0 REVERT JUMPDEST PUSH1 0x1 PUSH1 0x1 PUSH1 0xA0 SHL SUB DUP2 AND DUP2 EQ PUSH2 0xCAB JUMPI PUSH1 0x0 DUP1 REVERT JUMPDEST DUP1 ISZERO ISZERO DUP2 EQ PUSH2 0xCAB JUMPI PUSH1 0x0 DUP1 REVERT JUMPDEST PUSH1 0x1 PUSH1 0x1 PUSH1 0xE0 SHL SUB NOT DUP2 AND DUP2 EQ PUSH2 0xCAB JUMPI PUSH1 0x0 DUP1 REVERT INVALID PUSH9 0x747470733A2F2F6761 PUSH21 0x657761792E70696E6174612E636C6F75642F697066 PUSH20 0x2FDDF252AD1BE2C89B69C2B068FC378DAA952BA7 CALL PUSH4 0xC4A11628 CREATE2 GAS 0x4D CREATE2 0x23 0xB3 0xEF DUP3 GASPRICE CALLVALUE RETURNDATASIZE SHR DUP10 SWAP15 PUSH2 0xA4DB SLT 0x24 PUSH23 0x36A6882BF1FEFAE78BEF39170F8D0F5B53E456A2646970 PUSH7 0x7358221220350F 0xE9 0x2E STATICCALL DUP4 ORIGIN KECCAK256 0xD8 REVERT 0xAA 0xB5 0xE3 0xF7 ISZERO CALLDATACOPY 0xE9 0xB3 0x23 DUP1 0xAE DIFFICULTY DUP2 PUSH31 0x226BE864E77780EE64736F6C63430008040033000000000000000000000000 ",
  "sha1": "a3af363f40b7012406185df99aeb80be79f782a4",
  "source": "pragma solidity ^0.8.0;\n\n// SPDX-License-Identifier: BUSL-1.1\n\nimport \"@openzeppelin/contracts/access/Ownable.sol\";\nimport \"@openzeppelin/contracts/security/ReentrancyGuard.sol\";\nimport \"@openzeppelin/contracts/token/ERC20/ERC20.sol\";\nimport \"./OptionConfig.sol\";\nimport \"./BufferNFTCore.sol\";\nimport \"./TraderNFT.sol\";\nimport \"../Pool/BufferIBFRPoolV2.sol\";\nimport \"../Libraries/OptionFeeCalculator.sol\";\n\n/**\n * @author Heisenberg\n * @title Buffer TokenX Bidirectional (Call and Put) Options\n * @notice Buffer TokenX Options Contract\n */\ncontract BufferBinaryEuropeanTokenXOptions is\n    IBufferOptions,\n    Ownable,\n    ReentrancyGuard,\n    BufferNFTCore\n{\n    ERC20 public tokenX;\n    mapping(uint256 => string) private _tokenURIs;\n    IPriceProvider public priceProvider;\n    uint256 public nextTokenId = 0;\n    mapping(uint256 => Option) public options;\n    mapping(address => uint256[]) public userOptionIds;\n    mapping(address => uint256) public userOptionCount;\n    mapping(uint256 => BinaryOptionType) public binaryOptionType;\n    mapping(uint256 => uint256) public expiryToRoundID;\n    mapping(uint256 => mapping(address => uint256)) public optionSizeBought;\n    BufferIBFRPoolV2 public pool;\n    OptionConfig public config;\n    mapping(uint256 => SlotDetail) public slotDetails;\n    uint256 internal contractCreationTimestamp;\n\n    bytes32 public constant AUTO_CLOSER_ROLE = keccak256(\"AUTO_CLOSER_ROLE\");\n\n    uint256 public constant minimumYield = 5;\n\n    constructor(\n        ERC20 _tokenX,\n        IPriceProvider pp,\n        BufferIBFRPoolV2 _pool,\n        OptionConfig _config\n    ) {\n        tokenX = _tokenX;\n        pool = _pool;\n        contractCreationTimestamp = block.timestamp;\n        config = _config;\n        priceProvider = pp;\n        _setupRole(DEFAULT_ADMIN_ROLE, msg.sender);\n    }\n\n    /**\n     * @notice Call this to set the max approval for tokenX transfers from the options to pool\n     */\n    function approvePoolToTransferTokenX() public {\n        tokenX.approve(address(pool), ~uint256(0));\n    }\n\n    /************************************************\n     *  OPTIONS CORE\n     ***********************************************/\n\n    /**\n     * @notice Creates a new option\n     * @param amount Option amount in tokenX\n     * @param referrer Referrer address\n     * @param metadata Option metadata\n     * @return optionID Created option's ID\n     */\n    function create(\n        uint256 amount,\n        uint256 strike,\n        uint256 expiration,\n        bool isYes,\n        bool isAbove,\n        address referrer,\n        string memory metadata\n    ) external nonReentrant returns (uint256 optionID) {\n        uint256 period = expiration - block.timestamp;\n        optionID = _quickCreate(\n            amount,\n            strike,\n            period,\n            isYes,\n            isAbove,\n            referrer,\n            metadata\n        );\n    }\n\n    /**\n     * @notice Creates a new option\n     * @param amount Option amount in tokenX\n     * @param referrer Referrer address\n     * @param metadata Option metadata\n     * @return optionID Created option's ID\n     */\n    function quickCreate(\n        uint256 amount,\n        uint256 strike,\n        uint256 period,\n        bool isYes,\n        bool isAbove,\n        address referrer,\n        string memory metadata\n    ) external nonReentrant returns (uint256 optionID) {\n        optionID = _quickCreate(\n            amount,\n            strike,\n            period,\n            isYes,\n            isAbove,\n            referrer,\n            metadata\n        );\n    }\n\n    /**\n     * @notice Creates a new option by specifying the period instead\n     * @param amount Option amount in tokenX\n     * @param referrer Referrer address\n     * @param metadata Option metadata\n     * @return optionID Created option's ID\n     */\n    function _quickCreate(\n        uint256 amount,\n        uint256 strike,\n        uint256 period,\n        bool isYes,\n        bool isAbove,\n        address referrer,\n        string memory metadata\n    ) internal returns (uint256 optionID) {\n        // Check if the option period is higher the 5 mins\n        require((period) >= 5 minutes, \"O21\");\n\n        // if the period is lower than 24 hours then assert that the option be an ATM one and deduct a small fee\n        if ((period) < 24 hours) {\n            require(strike == 0, \"O22\");\n            strike = priceProvider.getUsdPrice();\n        }\n\n        // A user is only allowed to buy a n amount size per block\n        // so we'll have to keep track of the amount bought per block\n        require(\n            optionSizeBought[block.number][msg.sender] + amount <\n                (config.optionSizePerBlockLimitPercent() *\n                    pool.availableBalance()) /\n                    100,\n            \"O23\"\n        );\n        optionSizeBought[block.number][msg.sender] += amount;\n        (uint256 totalFee, uint256 settlementFee, uint256 premium) = fees(\n            period,\n            amount,\n            strike,\n            isYes,\n            isAbove\n        );\n\n        require(\n            totalFee * 365 days * 100 > amount * (period) * minimumYield,\n            \"O2\"\n        );\n\n        // User has to approve first inorder to execute this function\n        bool success = tokenX.transferFrom(msg.sender, address(this), totalFee);\n        require(success, \"O3\");\n        OptionType optionType = OptionType.Put;\n\n        if (\n            (isYes == true && isAbove == true) ||\n            (isYes == false && isAbove == false)\n        ) {\n            optionType = OptionType.Call;\n        }\n        Option memory option = Option(\n            State.Active,\n            strike,\n            amount,\n            amount,\n            premium,\n            block.timestamp + period,\n            optionType\n        );\n        optionID = _generateTokenId();\n        binaryOptionType[optionID] = BinaryOptionType(isYes, isAbove);\n        _setOption(optionID, option);\n        userOptionIds[msg.sender].push(optionID);\n        userOptionCount[msg.sender] = userOptionIds[msg.sender].length;\n        _mint(\n            optionID,\n            msg.sender,\n            createSlot(optionID, option.strike, option.expiration, optionType)\n        );\n        _setTokenURI(optionID, metadata);\n        uint256 stakingAmount = distributeSettlementFee(\n            settlementFee,\n            referrer\n        );\n\n        _lock(optionID, option.lockedAmount, option.premium);\n        emit Create(optionID, msg.sender, stakingAmount, totalFee, metadata);\n    }\n\n    function distributeSettlementFee(uint256 settlementFee, address referrer)\n        internal\n        returns (uint256 stakingAmount)\n    {\n        stakingAmount = ((settlementFee * config.stakingFeePercentage()) / 100);\n\n        // Incase the stakingAmount is 0\n        if (stakingAmount > 0) {\n            tokenX.transfer(config.settlementFeeRecipient(), stakingAmount);\n        }\n\n        uint256 adminFee = settlementFee - stakingAmount;\n        if (adminFee > 0) {\n            if (\n                config.referralRewardPercentage() > 0 &&\n                referrer != owner() &&\n                referrer != msg.sender\n            ) {\n                uint256 referralReward = (adminFee *\n                    config.referralRewardPercentage()) / 100;\n                adminFee = adminFee - referralReward;\n                tokenX.transfer(referrer, referralReward);\n                emit PayReferralFee(referrer, referralReward);\n            }\n            tokenX.transfer(owner(), adminFee);\n            emit PayAdminFee(owner(), adminFee);\n        }\n    }\n\n    function _modifyOption(\n        uint256 optionID,\n        Option memory option,\n        uint256 lockedAmount,\n        uint256 amount,\n        uint256 premium\n    ) internal returns (Option memory modifiedOption) {\n        option.lockedAmount = lockedAmount;\n        option.amount = amount;\n        option.premium = premium;\n        modifiedOption = option;\n        _setOption(optionID, option);\n    }\n\n    function _lock(\n        uint256 id,\n        uint256 lockedAmount,\n        uint256 premium\n    ) internal {\n        pool.lock(id, lockedAmount, premium);\n    }\n\n    /**\n     * @notice Sets the expiry price in the oracle\n     * @dev a roundId must be provided to confirm price validity,\n     * which is the first Chainlink price provided after the expiryTimestamp\n     * @param roundId the first roundId after expiryTimestamp\n     */\n    function setRoundIDForExpiry(uint256 roundId, uint256 optionID)\n        external\n        returns (bool isCorrectRoundId)\n    {\n        (, uint256 price, , uint256 roundTimestamp, ) = priceProvider\n            .getRoundData(roundId);\n        Option storage option = options[optionID];\n        uint256 expiryTimestamp = option.expiration;\n        require(expiryTimestamp < roundTimestamp, \"C1\");\n        require(price >= 0, \"C2\");\n        uint256 previousRoundId = expiryToRoundID[expiryTimestamp];\n        if (previousRoundId <= 0) {\n            previousRoundId = roundId - 1;\n            while (!isCorrectRoundId) {\n                (, , , uint256 previousRoundTimestamp, ) = priceProvider\n                    .getRoundData(previousRoundId);\n                if (previousRoundTimestamp == 0) {\n                    require(previousRoundId > 0, \"C3\");\n                    previousRoundId = previousRoundId - 1;\n                } else if (previousRoundTimestamp > expiryTimestamp) {\n                    revert(\"C4\");\n                } else {\n                    isCorrectRoundId = true;\n                    expiryToRoundID[expiryTimestamp] = previousRoundId;\n                }\n            }\n        }\n    }\n\n    /**\n     * @notice Unlocks the locked funds if the option was\n     * OTM at the time of expiry otherwise exercises it\n     * @param optionID ID of the option\n     */\n    function unlock(uint256 optionID) public {\n        Option storage option = options[optionID];\n        require(option.expiration <= block.timestamp, \"O4\");\n        require(option.state == State.Active, \"O5\");\n        uint256 roundID = expiryToRoundID[option.expiration];\n        require(roundID > 0, \"O20\");\n        (, uint256 priceAtExpiration, , , ) = priceProvider.getRoundData(\n            roundID\n        );\n        if (\n            (option.optionType == OptionType.Call &&\n                priceAtExpiration > option.strike) ||\n            (option.optionType == OptionType.Put &&\n                priceAtExpiration < option.strike)\n        ) {\n            exercise(optionID);\n        } else {\n            option.state = State.Expired;\n            pool.unlock(optionID);\n            burnToken(optionID);\n            emit Expire(optionID, option.premium);\n        }\n    }\n\n    /**\n     * @notice Unlocks an array of options\n     * @param optionIDs array of options\n     */\n    function unlockAll(uint256[] calldata optionIDs) external {\n        uint256 arrayLength = optionIDs.length;\n        for (uint256 i = 0; i < arrayLength; i++) {\n            unlock(optionIDs[i]);\n        }\n    }\n\n    /**\n     * @notice Exercises an option if it was\n     * ITM at the time of expiry\n     * @param optionID ID of your option\n     * @return profit Profit sent to the user\n     */\n    function exercise(uint256 optionID) public returns (uint256 profit) {\n        require(exists(optionID), \"O10\");\n\n        Option storage option = options[optionID];\n\n        require(option.expiration <= block.timestamp, \"O4\");\n        require(option.state == State.Active, \"O14\");\n        uint256 roundID = expiryToRoundID[option.expiration];\n        require(roundID > 0, \"O20\");\n        (, uint256 priceAtExpiration, , , ) = priceProvider.getRoundData(\n            roundID\n        );\n\n        if (option.optionType == OptionType.Call) {\n            require(option.strike <= priceAtExpiration, \"O17\");\n        } else {\n            require(option.strike >= priceAtExpiration, \"O18\");\n        }\n        profit = option.lockedAmount;\n        pool.send(optionID, ownerOf(optionID), profit);\n        // Burn the option\n        burnToken(optionID);\n        option.state = State.Exercised;\n        emit Exercise(optionID, profit);\n    }\n\n    /**\n     * @notice Used for getting the option's price using blackscholes\n     * @param period Option period in seconds\n     * @param amount Option amount\n     * @param strike Strike price of the option\n     * @param isYes whether the option isAbove or not\n     * @param isAbove whether the price will stay above this strike or not\n     * @return total Total price to be paid\n     * @return settlementFee Amount to be distributed to the Buffer token holders\n     * @return premium Amount that covers the price difference in the ITM options\n     */\n    function fees(\n        uint256 period,\n        uint256 amount,\n        uint256 strike,\n        bool isYes,\n        bool isAbove\n    )\n        public\n        view\n        returns (\n            uint256 total,\n            uint256 settlementFee,\n            uint256 premium\n        )\n    {\n        uint256 currentPrice = priceProvider.getUsdPrice();\n\n        premium = FeeCalculator.feesTokenXBinary(\n            period,\n            amount,\n            strike,\n            isYes,\n            isAbove,\n            currentPrice,\n            config,\n            pool\n        );\n        total = (premium * 1e4) / (1e4 - config.settlementFeePercentage());\n        settlementFee = total - premium;\n    }\n\n    function _generateTokenId() internal returns (uint256) {\n        return nextTokenId++;\n    }\n\n    function _getOption(uint256 optionID)\n        internal\n        view\n        returns (Option memory)\n    {\n        return options[optionID];\n    }\n\n    function _setOption(uint256 optionID, Option memory option) internal {\n        options[optionID] = option;\n    }\n\n    function burn(uint256 tokenId_) external {\n        require(msg.sender == ownerOf(tokenId_), \"O9\");\n        burnToken(tokenId_);\n    }\n\n    /************************************************\n     *  ERC3525 Functions\n     ***********************************************/\n\n    /**\n     * @notice Splits the option\n     * @param optionID OptionId to be splitted\n     * @param splitUnits_ Units to be splitted into\n     * @return newOptionIDs An array of the splitted options\n     */\n    function split(uint256 optionID, uint256[] calldata splitUnits_)\n        external\n        returns (uint256[] memory newOptionIDs)\n    {\n        require(splitUnits_.length > 0, \"N1\");\n        newOptionIDs = new uint256[](splitUnits_.length);\n        Option memory option = _getOption(optionID);\n        uint256 totalUnits = unitsInToken(optionID);\n        uint256 totalChildAmount;\n        uint256 totalChildLockedAmount;\n        uint256 totalChildPremium;\n        // Create child options\n        for (uint256 i = 0; i < splitUnits_.length; i++) {\n            uint256 newOptionID = _generateTokenId();\n            newOptionIDs[i] = newOptionID;\n\n            _split(optionID, newOptionID, splitUnits_[i]);\n\n            uint256 childAmount = (option.amount * splitUnits_[i]) / totalUnits;\n            totalChildAmount += childAmount;\n\n            uint256 childLockedAmount = (option.lockedAmount * splitUnits_[i]) /\n                totalUnits;\n            totalChildLockedAmount += childLockedAmount;\n\n            uint256 childPremium = (option.premium * splitUnits_[i]) /\n                totalUnits;\n            totalChildPremium += childPremium;\n\n            Option memory newOption = Option(\n                option.state,\n                option.strike,\n                childAmount,\n                childLockedAmount,\n                childPremium,\n                option.expiration,\n                option.optionType\n            );\n            _setOption(newOptionID, newOption);\n        }\n        // Modify the parent option once all child options are created\n        option = _modifyOption(\n            optionID,\n            option,\n            option.lockedAmount - totalChildLockedAmount,\n            option.amount - totalChildAmount,\n            option.premium - totalChildPremium\n        );\n        pool.changeLock(optionID, option.lockedAmount, option.premium);\n\n        // Lock the amount in the pool for the child options\n        for (uint256 i = 0; i < splitUnits_.length; i++) {\n            Option memory newOption = _getOption(newOptionIDs[i]);\n            _lock(newOptionIDs[i], newOption.lockedAmount, newOption.premium);\n        }\n    }\n\n    /**\n     * @notice Merges the options\n     * @param optionIDs An array of the optionsIds to be merged\n     * @param targetOptionID OptionId to be merged into\n     */\n    function merge(uint256[] calldata optionIDs, uint256 targetOptionID)\n        external\n    {\n        require(optionIDs.length > 0, \"N4\");\n        Option memory targetOption = _getOption(targetOptionID);\n\n        uint256 totalLockedAmount = targetOption.lockedAmount;\n        uint256 totalAmount = targetOption.amount;\n        uint256 totalPremium = targetOption.premium;\n\n        for (uint256 i = 0; i < optionIDs.length; i++) {\n            Option memory option = _getOption(optionIDs[i]);\n            totalLockedAmount = totalLockedAmount + option.lockedAmount;\n            totalAmount = totalAmount + option.amount;\n            totalPremium = totalPremium + option.premium;\n            pool.unlockWithoutProfit(optionIDs[i]);\n            _merge(optionIDs[i], targetOptionID);\n        }\n        _modifyOption(\n            targetOptionID,\n            targetOption,\n            totalLockedAmount,\n            totalAmount,\n            totalPremium\n        );\n        pool.changeLock(targetOptionID, totalLockedAmount, totalPremium);\n    }\n\n    /**\n     * @notice Transfer part of units of a option to another option.\n     * @param optionID Id of the option to transfer\n     * @param transferUnits_ Amount of units to transfer\n     */\n    function _beforeTransferFrom(uint256 optionID, uint256 transferUnits_)\n        internal\n        returns (\n            uint256 newAmount,\n            uint256 newPremium,\n            uint256 newLockedAmount,\n            Option memory option\n        )\n    {\n        option = _getOption(optionID);\n        uint256 totalUnits = unitsInToken(optionID);\n        newAmount = (option.amount * transferUnits_) / totalUnits;\n        newPremium = (option.premium * transferUnits_) / totalUnits;\n        newLockedAmount = (option.lockedAmount * transferUnits_) / totalUnits;\n\n        option = _modifyOption(\n            optionID,\n            option,\n            option.lockedAmount - newLockedAmount,\n            option.amount - newAmount,\n            option.premium - newPremium\n        );\n        pool.changeLock(optionID, option.lockedAmount, option.premium);\n    }\n\n    /**\n     * @notice Transfer part of units of a option to target address.\n     * @param from_ Address of the option sender\n     * @param to_ Address of the option recipient\n     * @param optionID Id of the option to transfer\n     * @param transferUnits_ Amount of units to transfer\n     */\n    function transferFrom(\n        address from_,\n        address to_,\n        uint256 optionID,\n        uint256 transferUnits_\n    ) external returns (uint256 newOptionID) {\n        newOptionID = _generateTokenId();\n        (\n            uint256 newAmount,\n            uint256 newPremium,\n            uint256 newLockedAmount,\n            Option memory option\n        ) = _beforeTransferFrom(optionID, transferUnits_);\n        Option memory newOption = Option(\n            option.state,\n            option.strike,\n            newAmount,\n            newLockedAmount,\n            newPremium,\n            option.expiration,\n            option.optionType\n        );\n        _setOption(newOptionID, newOption);\n\n        _lock(newOptionID, newLockedAmount, newPremium);\n        _transferUnitsFrom(from_, to_, optionID, newOptionID, transferUnits_);\n    }\n\n    /**\n     * @notice Transfer part of units of a option to another option.\n     * @param from_ Address of the option sender\n     * @param to_ Address of the option recipient\n     * @param optionID Id of the option to transfer\n     * @param targetOptionID Id of the option to receive\n     * @param transferUnits_ Amount of units to transfer\n     */\n    function transferFrom(\n        address from_,\n        address to_,\n        uint256 optionID,\n        uint256 targetOptionID,\n        uint256 transferUnits_\n    ) external virtual {\n        require(exists(targetOptionID), \"N12\");\n        (\n            uint256 newAmount,\n            uint256 newPremium,\n            uint256 newLockedAmount,\n\n        ) = _beforeTransferFrom(optionID, transferUnits_);\n        Option memory targetOption = _getOption(targetOptionID);\n        targetOption = _modifyOption(\n            targetOptionID,\n            targetOption,\n            targetOption.lockedAmount + newLockedAmount,\n            targetOption.amount + newAmount,\n            targetOption.premium + newPremium\n        );\n\n        pool.changeLock(\n            targetOptionID,\n            targetOption.lockedAmount,\n            targetOption.premium\n        );\n        _transferUnitsFrom(\n            from_,\n            to_,\n            optionID,\n            targetOptionID,\n            transferUnits_\n        );\n    }\n\n    function createSlot(\n        uint256 optionID,\n        uint256 strike,\n        uint256 expiration,\n        OptionType optionType\n    ) internal returns (uint256 slot) {\n        slot = uint256(\n            keccak256(abi.encode(strike, expiration, optionType, optionID))\n        );\n        require(!slotDetails[slot].isValid, \"N14\");\n        slotDetails[slot] = SlotDetail(strike, expiration, optionType, true);\n    }\n}\n",
  "sourcePath": "contracts/Options/BufferBinaryEuropeanTokenXOptions.sol",
  "type": "contract"
}