{
  "abi": [
    {
      "inputs": [
        {
          "internalType": "contract ERC20",
          "name": "_tokenX",
          "type": "address"
        }
      ],
      "stateMutability": "nonpayable",
      "type": "constructor"
    },
    {
      "anonymous": false,
      "inputs": [
        {
          "indexed": true,
          "internalType": "address",
          "name": "owner",
          "type": "address"
        },
        {
          "indexed": true,
          "internalType": "address",
          "name": "spender",
          "type": "address"
        },
        {
          "indexed": false,
          "internalType": "uint256",
          "name": "value",
          "type": "uint256"
        }
      ],
      "name": "Approval",
      "type": "event"
    },
    {
      "anonymous": false,
      "inputs": [
        {
          "indexed": false,
          "internalType": "uint256",
          "name": "tokenXAmount",
          "type": "uint256"
        },
        {
          "indexed": false,
          "internalType": "address",
          "name": "account",
          "type": "address"
        }
      ],
      "name": "InitiateWithdraw",
      "type": "event"
    },
    {
      "anonymous": false,
      "inputs": [
        {
          "indexed": true,
          "internalType": "uint256",
          "name": "id",
          "type": "uint256"
        },
        {
          "indexed": false,
          "internalType": "uint256",
          "name": "amount",
          "type": "uint256"
        }
      ],
      "name": "Loss",
      "type": "event"
    },
    {
      "anonymous": false,
      "inputs": [
        {
          "indexed": false,
          "internalType": "uint256",
          "name": "round",
          "type": "uint256"
        }
      ],
      "name": "PoolRollOver",
      "type": "event"
    },
    {
      "anonymous": false,
      "inputs": [
        {
          "indexed": false,
          "internalType": "uint256",
          "name": "tokenXAmount",
          "type": "uint256"
        },
        {
          "indexed": false,
          "internalType": "address",
          "name": "account",
          "type": "address"
        }
      ],
      "name": "ProcessWithdrawRequest",
      "type": "event"
    },
    {
      "anonymous": false,
      "inputs": [
        {
          "indexed": true,
          "internalType": "uint256",
          "name": "id",
          "type": "uint256"
        },
        {
          "indexed": false,
          "internalType": "uint256",
          "name": "amount",
          "type": "uint256"
        }
      ],
      "name": "Profit",
      "type": "event"
    },
    {
      "anonymous": false,
      "inputs": [
        {
          "indexed": true,
          "internalType": "address",
          "name": "account",
          "type": "address"
        },
        {
          "indexed": false,
          "internalType": "uint256",
          "name": "amount",
          "type": "uint256"
        },
        {
          "indexed": false,
          "internalType": "uint256",
          "name": "writeAmount",
          "type": "uint256"
        }
      ],
      "name": "Provide",
      "type": "event"
    },
    {
      "anonymous": false,
      "inputs": [
        {
          "indexed": true,
          "internalType": "bytes32",
          "name": "role",
          "type": "bytes32"
        },
        {
          "indexed": true,
          "internalType": "bytes32",
          "name": "previousAdminRole",
          "type": "bytes32"
        },
        {
          "indexed": true,
          "internalType": "bytes32",
          "name": "newAdminRole",
          "type": "bytes32"
        }
      ],
      "name": "RoleAdminChanged",
      "type": "event"
    },
    {
      "anonymous": false,
      "inputs": [
        {
          "indexed": true,
          "internalType": "bytes32",
          "name": "role",
          "type": "bytes32"
        },
        {
          "indexed": true,
          "internalType": "address",
          "name": "account",
          "type": "address"
        },
        {
          "indexed": true,
          "internalType": "address",
          "name": "sender",
          "type": "address"
        }
      ],
      "name": "RoleGranted",
      "type": "event"
    },
    {
      "anonymous": false,
      "inputs": [
        {
          "indexed": true,
          "internalType": "bytes32",
          "name": "role",
          "type": "bytes32"
        },
        {
          "indexed": true,
          "internalType": "address",
          "name": "account",
          "type": "address"
        },
        {
          "indexed": true,
          "internalType": "address",
          "name": "sender",
          "type": "address"
        }
      ],
      "name": "RoleRevoked",
      "type": "event"
    },
    {
      "anonymous": false,
      "inputs": [
        {
          "indexed": true,
          "internalType": "address",
          "name": "from",
          "type": "address"
        },
        {
          "indexed": true,
          "internalType": "address",
          "name": "to",
          "type": "address"
        },
        {
          "indexed": false,
          "internalType": "uint256",
          "name": "value",
          "type": "uint256"
        }
      ],
      "name": "Transfer",
      "type": "event"
    },
    {
      "anonymous": false,
      "inputs": [
        {
          "indexed": false,
          "internalType": "uint256",
          "name": "expiry",
          "type": "uint256"
        }
      ],
      "name": "UpdateExpiry",
      "type": "event"
    },
    {
      "anonymous": false,
      "inputs": [
        {
          "indexed": true,
          "internalType": "uint256",
          "name": "maxLiquidity",
          "type": "uint256"
        }
      ],
      "name": "UpdateMaxLiquidity",
      "type": "event"
    },
    {
      "anonymous": false,
      "inputs": [
        {
          "indexed": false,
          "internalType": "bool",
          "name": "hasPoolEnded",
          "type": "bool"
        }
      ],
      "name": "UpdatePoolState",
      "type": "event"
    },
    {
      "anonymous": false,
      "inputs": [
        {
          "indexed": false,
          "internalType": "address",
          "name": "account",
          "type": "address"
        }
      ],
      "name": "UpdateProjectOwner",
      "type": "event"
    },
    {
      "anonymous": false,
      "inputs": [
        {
          "indexed": true,
          "internalType": "address",
          "name": "account",
          "type": "address"
        },
        {
          "indexed": false,
          "internalType": "bool",
          "name": "value",
          "type": "bool"
        }
      ],
      "name": "UpdateRevertTransfersInLockUpPeriod",
      "type": "event"
    },
    {
      "anonymous": false,
      "inputs": [
        {
          "indexed": true,
          "internalType": "address",
          "name": "account",
          "type": "address"
        },
        {
          "indexed": false,
          "internalType": "uint256",
          "name": "amount",
          "type": "uint256"
        },
        {
          "indexed": false,
          "internalType": "uint256",
          "name": "writeAmount",
          "type": "uint256"
        }
      ],
      "name": "Withdraw",
      "type": "event"
    },
    {
      "inputs": [],
      "name": "ACCURACY",
      "outputs": [
        {
          "internalType": "uint256",
          "name": "",
          "type": "uint256"
        }
      ],
      "stateMutability": "view",
      "type": "function"
    },
    {
      "inputs": [],
      "name": "DEFAULT_ADMIN_ROLE",
      "outputs": [
        {
          "internalType": "bytes32",
          "name": "",
          "type": "bytes32"
        }
      ],
      "stateMutability": "view",
      "type": "function"
    },
    {
      "inputs": [],
      "name": "INITIAL_RATE",
      "outputs": [
        {
          "internalType": "uint256",
          "name": "",
          "type": "uint256"
        }
      ],
      "stateMutability": "view",
      "type": "function"
    },
    {
      "inputs": [],
      "name": "OPTION_ISSUER_ROLE",
      "outputs": [
        {
          "internalType": "bytes32",
          "name": "",
          "type": "bytes32"
        }
      ],
      "stateMutability": "view",
      "type": "function"
    },
    {
      "inputs": [],
      "name": "PROJECT_OWNER_ROLE",
      "outputs": [
        {
          "internalType": "bytes32",
          "name": "",
          "type": "bytes32"
        }
      ],
      "stateMutability": "view",
      "type": "function"
    },
    {
      "inputs": [
        {
          "internalType": "address",
          "name": "user",
          "type": "address"
        },
        {
          "internalType": "uint256",
          "name": "tokenXAmount",
          "type": "uint256"
        }
      ],
      "name": "adminWithdraw",
      "outputs": [],
      "stateMutability": "nonpayable",
      "type": "function"
    },
    {
      "inputs": [
        {
          "internalType": "address",
          "name": "owner",
          "type": "address"
        },
        {
          "internalType": "address",
          "name": "spender",
          "type": "address"
        }
      ],
      "name": "allowance",
      "outputs": [
        {
          "internalType": "uint256",
          "name": "",
          "type": "uint256"
        }
      ],
      "stateMutability": "view",
      "type": "function"
    },
    {
      "inputs": [
        {
          "internalType": "address",
          "name": "spender",
          "type": "address"
        },
        {
          "internalType": "uint256",
          "name": "amount",
          "type": "uint256"
        }
      ],
      "name": "approve",
      "outputs": [
        {
          "internalType": "bool",
          "name": "",
          "type": "bool"
        }
      ],
      "stateMutability": "nonpayable",
      "type": "function"
    },
    {
      "inputs": [],
      "name": "availableBalance",
      "outputs": [
        {
          "internalType": "uint256",
          "name": "balance",
          "type": "uint256"
        }
      ],
      "stateMutability": "view",
      "type": "function"
    },
    {
      "inputs": [
        {
          "internalType": "address",
          "name": "account",
          "type": "address"
        }
      ],
      "name": "balanceOf",
      "outputs": [
        {
          "internalType": "uint256",
          "name": "",
          "type": "uint256"
        }
      ],
      "stateMutability": "view",
      "type": "function"
    },
    {
      "inputs": [
        {
          "internalType": "uint256",
          "name": "id",
          "type": "uint256"
        },
        {
          "internalType": "uint256",
          "name": "tokenXAmount",
          "type": "uint256"
        },
        {
          "internalType": "uint256",
          "name": "premium",
          "type": "uint256"
        }
      ],
      "name": "changeLock",
      "outputs": [],
      "stateMutability": "nonpayable",
      "type": "function"
    },
    {
      "inputs": [],
      "name": "decimals",
      "outputs": [
        {
          "internalType": "uint8",
          "name": "",
          "type": "uint8"
        }
      ],
      "stateMutability": "view",
      "type": "function"
    },
    {
      "inputs": [
        {
          "internalType": "address",
          "name": "spender",
          "type": "address"
        },
        {
          "internalType": "uint256",
          "name": "subtractedValue",
          "type": "uint256"
        }
      ],
      "name": "decreaseAllowance",
      "outputs": [
        {
          "internalType": "bool",
          "name": "",
          "type": "bool"
        }
      ],
      "stateMutability": "nonpayable",
      "type": "function"
    },
    {
      "inputs": [
        {
          "internalType": "bytes32",
          "name": "role",
          "type": "bytes32"
        }
      ],
      "name": "getRoleAdmin",
      "outputs": [
        {
          "internalType": "bytes32",
          "name": "",
          "type": "bytes32"
        }
      ],
      "stateMutability": "view",
      "type": "function"
    },
    {
      "inputs": [
        {
          "internalType": "bytes32",
          "name": "role",
          "type": "bytes32"
        },
        {
          "internalType": "address",
          "name": "account",
          "type": "address"
        }
      ],
      "name": "grantRole",
      "outputs": [],
      "stateMutability": "nonpayable",
      "type": "function"
    },
    {
      "inputs": [
        {
          "internalType": "bytes32",
          "name": "role",
          "type": "bytes32"
        },
        {
          "internalType": "address",
          "name": "account",
          "type": "address"
        }
      ],
      "name": "hasRole",
      "outputs": [
        {
          "internalType": "bool",
          "name": "",
          "type": "bool"
        }
      ],
      "stateMutability": "view",
      "type": "function"
    },
    {
      "inputs": [
        {
          "internalType": "address",
          "name": "spender",
          "type": "address"
        },
        {
          "internalType": "uint256",
          "name": "addedValue",
          "type": "uint256"
        }
      ],
      "name": "increaseAllowance",
      "outputs": [
        {
          "internalType": "bool",
          "name": "",
          "type": "bool"
        }
      ],
      "stateMutability": "nonpayable",
      "type": "function"
    },
    {
      "inputs": [
        {
          "internalType": "uint256",
          "name": "id",
          "type": "uint256"
        },
        {
          "internalType": "uint256",
          "name": "tokenXAmount",
          "type": "uint256"
        },
        {
          "internalType": "uint256",
          "name": "premium",
          "type": "uint256"
        }
      ],
      "name": "lock",
      "outputs": [],
      "stateMutability": "nonpayable",
      "type": "function"
    },
    {
      "inputs": [],
      "name": "lockedAmount",
      "outputs": [
        {
          "internalType": "uint256",
          "name": "",
          "type": "uint256"
        }
      ],
      "stateMutability": "view",
      "type": "function"
    },
    {
      "inputs": [
        {
          "internalType": "address",
          "name": "",
          "type": "address"
        },
        {
          "internalType": "uint256",
          "name": "",
          "type": "uint256"
        }
      ],
      "name": "lockedLiquidity",
      "outputs": [
        {
          "internalType": "uint256",
          "name": "amount",
          "type": "uint256"
        },
        {
          "internalType": "uint256",
          "name": "premium",
          "type": "uint256"
        },
        {
          "internalType": "bool",
          "name": "locked",
          "type": "bool"
        }
      ],
      "stateMutability": "view",
      "type": "function"
    },
    {
      "inputs": [],
      "name": "lockedPremium",
      "outputs": [
        {
          "internalType": "uint256",
          "name": "",
          "type": "uint256"
        }
      ],
      "stateMutability": "view",
      "type": "function"
    },
    {
      "inputs": [],
      "name": "maxLiquidity",
      "outputs": [
        {
          "internalType": "uint256",
          "name": "",
          "type": "uint256"
        }
      ],
      "stateMutability": "view",
      "type": "function"
    },
    {
      "inputs": [],
      "name": "name",
      "outputs": [
        {
          "internalType": "string",
          "name": "",
          "type": "string"
        }
      ],
      "stateMutability": "view",
      "type": "function"
    },
    {
      "inputs": [],
      "name": "owner",
      "outputs": [
        {
          "internalType": "address",
          "name": "",
          "type": "address"
        }
      ],
      "stateMutability": "view",
      "type": "function"
    },
    {
      "inputs": [],
      "name": "projectOwner",
      "outputs": [
        {
          "internalType": "address",
          "name": "",
          "type": "address"
        }
      ],
      "stateMutability": "view",
      "type": "function"
    },
    {
      "inputs": [
        {
          "internalType": "uint256",
          "name": "tokenXAmount",
          "type": "uint256"
        },
        {
          "internalType": "uint256",
          "name": "minMint",
          "type": "uint256"
        }
      ],
      "name": "provide",
      "outputs": [
        {
          "internalType": "uint256",
          "name": "mint",
          "type": "uint256"
        }
      ],
      "stateMutability": "nonpayable",
      "type": "function"
    },
    {
      "inputs": [
        {
          "internalType": "bytes32",
          "name": "role",
          "type": "bytes32"
        },
        {
          "internalType": "address",
          "name": "account",
          "type": "address"
        }
      ],
      "name": "renounceRole",
      "outputs": [],
      "stateMutability": "nonpayable",
      "type": "function"
    },
    {
      "inputs": [
        {
          "internalType": "bytes32",
          "name": "role",
          "type": "bytes32"
        },
        {
          "internalType": "address",
          "name": "account",
          "type": "address"
        }
      ],
      "name": "revokeRole",
      "outputs": [],
      "stateMutability": "nonpayable",
      "type": "function"
    },
    {
      "inputs": [
        {
          "internalType": "uint256",
          "name": "id",
          "type": "uint256"
        },
        {
          "internalType": "address",
          "name": "to",
          "type": "address"
        },
        {
          "internalType": "uint256",
          "name": "tokenXAmount",
          "type": "uint256"
        }
      ],
      "name": "send",
      "outputs": [],
      "stateMutability": "nonpayable",
      "type": "function"
    },
    {
      "inputs": [
        {
          "internalType": "uint256",
          "name": "_maxLiquidity",
          "type": "uint256"
        }
      ],
      "name": "setMaxLiquidity",
      "outputs": [],
      "stateMutability": "nonpayable",
      "type": "function"
    },
    {
      "inputs": [
        {
          "internalType": "address",
          "name": "account",
          "type": "address"
        }
      ],
      "name": "setProjectOwner",
      "outputs": [],
      "stateMutability": "nonpayable",
      "type": "function"
    },
    {
      "inputs": [
        {
          "internalType": "address",
          "name": "account",
          "type": "address"
        }
      ],
      "name": "shareOf",
      "outputs": [
        {
          "internalType": "uint256",
          "name": "share",
          "type": "uint256"
        }
      ],
      "stateMutability": "view",
      "type": "function"
    },
    {
      "inputs": [
        {
          "internalType": "bytes4",
          "name": "interfaceId",
          "type": "bytes4"
        }
      ],
      "name": "supportsInterface",
      "outputs": [
        {
          "internalType": "bool",
          "name": "",
          "type": "bool"
        }
      ],
      "stateMutability": "view",
      "type": "function"
    },
    {
      "inputs": [],
      "name": "symbol",
      "outputs": [
        {
          "internalType": "string",
          "name": "",
          "type": "string"
        }
      ],
      "stateMutability": "view",
      "type": "function"
    },
    {
      "inputs": [],
      "name": "tokenX",
      "outputs": [
        {
          "internalType": "contract ERC20",
          "name": "",
          "type": "address"
        }
      ],
      "stateMutability": "view",
      "type": "function"
    },
    {
      "inputs": [],
      "name": "totalSupply",
      "outputs": [
        {
          "internalType": "uint256",
          "name": "",
          "type": "uint256"
        }
      ],
      "stateMutability": "view",
      "type": "function"
    },
    {
      "inputs": [],
      "name": "totalTokenXBalance",
      "outputs": [
        {
          "internalType": "uint256",
          "name": "balance",
          "type": "uint256"
        }
      ],
      "stateMutability": "view",
      "type": "function"
    },
    {
      "inputs": [
        {
          "internalType": "address",
          "name": "recipient",
          "type": "address"
        },
        {
          "internalType": "uint256",
          "name": "amount",
          "type": "uint256"
        }
      ],
      "name": "transfer",
      "outputs": [
        {
          "internalType": "bool",
          "name": "",
          "type": "bool"
        }
      ],
      "stateMutability": "nonpayable",
      "type": "function"
    },
    {
      "inputs": [
        {
          "internalType": "address",
          "name": "sender",
          "type": "address"
        },
        {
          "internalType": "address",
          "name": "recipient",
          "type": "address"
        },
        {
          "internalType": "uint256",
          "name": "amount",
          "type": "uint256"
        }
      ],
      "name": "transferFrom",
      "outputs": [
        {
          "internalType": "bool",
          "name": "",
          "type": "bool"
        }
      ],
      "stateMutability": "nonpayable",
      "type": "function"
    },
    {
      "inputs": [
        {
          "internalType": "uint256",
          "name": "id",
          "type": "uint256"
        }
      ],
      "name": "unlock",
      "outputs": [],
      "stateMutability": "nonpayable",
      "type": "function"
    },
    {
      "inputs": [
        {
          "internalType": "uint256",
          "name": "id",
          "type": "uint256"
        }
      ],
      "name": "unlockWithoutProfit",
      "outputs": [],
      "stateMutability": "nonpayable",
      "type": "function"
    },
    {
      "inputs": [
        {
          "internalType": "uint256",
          "name": "tokenXAmount",
          "type": "uint256"
        }
      ],
      "name": "withdraw",
      "outputs": [],
      "stateMutability": "nonpayable",
      "type": "function"
    }
  ],
  "bytecode": "60806040523480156200001157600080fd5b5060405162002ca438038062002ca4833981016040819052620000349162000440565b604080518082018252600f81526e213ab33332b9102628102a37b5b2b760891b6020808301918252835180850190945260048452633921232960e11b90840152815191929162000087916003916200039a565b5080516200009d9060049060208401906200039a565b505050806001600160a01b03166395d89b416040518163ffffffff1660e01b815260040160006040518083038186803b158015620000da57600080fd5b505afa158015620000ef573d6000803e3d6000fd5b505050506040513d6000823e601f3d908101601f1916820160405262000119919081019062000470565b6040516020016200012b919062000572565b60405160208183030381529060405260069080519060200190620001519291906200039a565b50806001600160a01b03166395d89b416040518163ffffffff1660e01b815260040160006040518083038186803b1580156200018c57600080fd5b505afa158015620001a1573d6000803e3d6000fd5b505050506040513d6000823e601f3d908101601f19168201604052620001cb919081019062000470565b604051602001620001dd919062000547565b60405160208183030381529060405260079080519060200190620002039291906200039a565b50600e80546001600160a01b0383166001600160a01b03199182168117909255600c8054909116331790556040805163313ce56760e01b8152905163313ce56791600480820192602092909190829003018186803b1580156200026557600080fd5b505afa1580156200027a573d6000803e3d6000fd5b505050506040513d601f19601f82011682018060405250810190620002a0919062000524565b620002ad90600a62000607565b620002bc90624c4b40620006c6565b600a55620002cc600033620002d3565b5062000784565b620002df8282620002e3565b5050565b620002ef82826200036d565b620002df5760008281526005602090815260408083206001600160a01b03851684529091529020805460ff19166001179055620003293390565b6001600160a01b0316816001600160a01b0316837f2f8788117e7eff1d82e926ec794901d17c78024a50270940304540a733656f0d60405160405180910390a45050565b60008281526005602090815260408083206001600160a01b038516845290915290205460ff165b92915050565b828054620003a8906200071b565b90600052602060002090601f016020900481019282620003cc576000855562000417565b82601f10620003e757805160ff191683800117855562000417565b8280016001018555821562000417579182015b8281111562000417578251825591602001919060010190620003fa565b506200042592915062000429565b5090565b5b808211156200042557600081556001016200042a565b60006020828403121562000452578081fd5b81516001600160a01b038116811462000469578182fd5b9392505050565b60006020828403121562000482578081fd5b81516001600160401b038082111562000499578283fd5b818401915084601f830112620004ad578283fd5b815181811115620004c257620004c26200076e565b604051601f8201601f19908116603f01168101908382118183101715620004ed57620004ed6200076e565b8160405282815287602084870101111562000506578586fd5b62000519836020830160208801620006e8565b979650505050505050565b60006020828403121562000536578081fd5b815160ff8116811462000469578182fd5b603960f91b81526000825162000565816001850160208701620006e8565b9190910160010192915050565b6e0213ab33332b91023b2b732b934b19608d1b8152600082516200059e81600f850160208701620006e8565b68102628102a37b5b2b760b91b600f939091019283015250601801919050565b600181815b80851115620005ff578160001904821115620005e357620005e362000758565b80851615620005f157918102915b93841c9390800290620005c3565b509250929050565b60006200046960ff841683600082620006235750600162000394565b81620006325750600062000394565b81600181146200064b5760028114620006565762000676565b600191505062000394565b60ff8411156200066a576200066a62000758565b50506001821b62000394565b5060208310610133831016604e8410600b84101617156200069b575081810a62000394565b620006a78383620005be565b8060001904821115620006be57620006be62000758565b029392505050565b6000816000190483118215151615620006e357620006e362000758565b500290565b60005b8381101562000705578181015183820152602001620006eb565b8381111562000715576000848401525b50505050565b600181811c908216806200073057607f821691505b602082108114156200075257634e487b7160e01b600052602260045260246000fd5b50919050565b634e487b7160e01b600052601160045260246000fd5b634e487b7160e01b600052604160045260246000fd5b61251080620007946000396000f3fe608060405234801561001057600080fd5b50600436106101ee5760003560e01c806301ffc9a7146101f357806306fdde031461021b578063095ea7b3146102305780630dbf21b01461024357806316dc165b1461025857806318160ddd1461027857806321e5e2c41461028a57806323b872dd1461029d578063248a9ca3146102b05780632e1a7d4d146102c35780632f2ff15d146102d6578063313ce567146102e957806336568abe146103035780633950935114610316578063401d4482146103295780634dbac7331461033c57806357a5c967146103455780636198e339146103585780636ab28bc81461036b57806370a082311461037457806370c0345c1461038757806371081c8e14610390578063797be55e146103a357806381b34f15146103ac5780638da5cb5b146103bf57806391d14854146103d257806395d89b41146103e5578063a217fddf146103ed578063a2416f74146103f5578063a4475ce414610408578063a457c2d71461041b578063a9059cbb1461042e578063ab2f0e5114610441578063b9cfe34814610449578063be62da0e14610479578063d547741f1461048e578063d9ac10d9146104a1578063dd62ed3e146104a9578063e8c3c54f146104e2578063ec277a66146104f5578063edd0d4211461050a578063fbcd9b051461033c575b600080fd5b6102066102013660046120fd565b61051d565b60405190151581526020015b60405180910390f35b610223610554565b604051610212919061228e565b61020661023e36600461207a565b6105e6565b6102566102513660046120c3565b6105fc565b005b600e5461026b906001600160a01b031681565b604051610212919061223d565b6002545b604051908152602001610212565b61027c610298366004611ff3565b610609565b6102066102ab36600461203f565b61064c565b61027c6102be3660046120c3565b6106fb565b6102566102d13660046120c3565b610710565b6102566102e43660046120db565b61071a565b6102f161073c565b60405160ff9091168152602001610212565b6102566103113660046120db565b6107be565b61020661032436600461207a565b610838565b61025661033736600461207a565b610874565b61027c6103e881565b610256610353366004612182565b61089d565b6102566103663660046120c3565b610a3a565b61027c60085481565b61027c610382366004611ff3565b610a73565b61027c600a5481565b61025661039e3660046120c3565b610a8e565b61027c60095481565b6102566103ba36600461213d565b610adb565b600c5461026b906001600160a01b031681565b6102066103e03660046120db565b610d2f565b610223610d5a565b61027c600081565b610256610403366004611ff3565b610d69565b600b5461026b906001600160a01b031681565b61020661042936600461207a565b610de4565b61020661043c36600461207a565b610e7d565b61027c610e8a565b61045c61045736600461207a565b610ea1565b604080519384526020840192909252151590820152606001610212565b61027c60008051602061247b83398151915281565b61025661049c3660046120db565b610ee6565b61027c610f03565b61027c6104b736600461200d565b6001600160a01b03918216600090815260016020908152604080832093909416825291909152205490565b61027c6104f0366004612161565b610f88565b61027c60008051602061249b83398151915281565b610256610518366004612182565b6111f1565b60006001600160e01b03198216637965db0b60e01b148061054e57506301ffc9a760e01b6001600160e01b03198316145b92915050565b606060068054610563906123df565b80601f016020809104026020016040519081016040528092919081815260200182805461058f906123df565b80156105dc5780601f106105b1576101008083540402835291602001916105dc565b820191906000526020600020905b8154815290600101906020018083116105bf57829003601f168201915b5050505050905090565b60006105f3338484611421565b50600192915050565b61060581611545565b5050565b60008061061560025490565b11156106435760025461062783610a73565b61062f610f03565b6106399190612366565b61054e9190612352565b5060005b919050565b6000610659848484611604565b6001600160a01b0384166000908152600160209081526040808320338452909152902054828110156106e35760405162461bcd60e51b815260206004820152602860248201527f45524332303a207472616e7366657220616d6f756e74206578636565647320616044820152676c6c6f77616e636560c01b60648201526084015b60405180910390fd5b6106f08533858403611421565b506001949350505050565b60009081526005602052604090206001015490565b61060581336117c0565b610723826106fb565b61072d8133611a61565b6107378383611ac5565b505050565b600e546040805163313ce56760e01b815290516000926001600160a01b03169163313ce567916004808301926020929190829003018186803b15801561078157600080fd5b505afa158015610795573d6000803e3d6000fd5b505050506040513d601f19601f820116820180604052508101906107b991906121ad565b905090565b6001600160a01b038116331461082e5760405162461bcd60e51b815260206004820152602f60248201527f416363657373436f6e74726f6c3a2063616e206f6e6c792072656e6f756e636560448201526e103937b632b9903337b91039b2b63360891b60648201526084016106da565b6106058282611b4b565b3360008181526001602090815260408083206001600160a01b038716845290915281205490916105f391859061086f90869061233a565b611421565b60008051602061247b83398151915261088d8133611a61565b61089782846117c0565b50505050565b60008051602061249b8339815191526108b68133611a61565b336000908152600d602052604081208054869081106108e557634e487b7160e01b600052603260045260246000fd5b60009182526020909120600390910201600281015490915060ff1661094c5760405162461bcd60e51b815260206004820181905260248201527f6c6f636b6564416d6f756e7420697320616c726561647920756e6c6f636b656460448201526064016106da565b82816001015411156109f057600e5460018201546001600160a01b039091169063a9059cbb90339061097f908790612385565b6040518363ffffffff1660e01b815260040161099c929190612275565b602060405180830381600087803b1580156109b657600080fd5b505af11580156109ca573d6000803e3d6000fd5b505050506040513d601f19601f820116820180604052508101906109ee91906120a3565b505b828160010154600954610a039190612385565b610a0d919061233a565b60095580546008548591610a2091612385565b610a2a919061233a565b6008556001810192909255505550565b6000610a4582611545565b90508160008051602061245b83398151915282604051610a6791815260200190565b60405180910390a25050565b6001600160a01b031660009081526020819052604090205490565b60008051602061247b833981519152610aa78133611a61565b600a82905560405182907f2138d5b63f1e1fc5996475c0d8565b0f4ce68622680c894db2bfd3ece685d25790600090a25050565b60008051602061249b833981519152610af48133611a61565b336000908152600d60205260408120805486908110610b2357634e487b7160e01b600052603260045260246000fd5b60009182526020909120600390910201600281015490915060ff16610b5a5760405162461bcd60e51b81526004016106da906122c1565b6001600160a01b038416610b6d57600080fd5b60028101805460ff191690556001810154600954610b8b9190612385565b6009558054600854610b9d9190612385565b60085580546000908411610bb15783610bb4565b81545b600e5460405163a9059cbb60e01b81529192506000916001600160a01b039091169063a9059cbb90610bec9089908690600401612275565b602060405180830381600087803b158015610c0657600080fd5b505af1158015610c1a573d6000803e3d6000fd5b505050506040513d601f19601f82011682018060405250810190610c3e91906120a3565b905080610ca15760405162461bcd60e51b815260206004820152602b60248201527f506f6f6c3a20546865205061796f7574207472616e73666572206469646e277460448201526a040cede40e8d0e4deeaced60ab1b60648201526084016106da565b82600101548211610ce2578660008051602061245b833981519152838560010154610ccc9190612385565b60405190815260200160405180910390a2610d26565b867f86f83f021a5ecb92d6dcaec11be9da0e65b5401ce748ac3c1f0ddbae029f55ce846001015484610d149190612385565b60405190815260200160405180910390a25b50505050505050565b60009182526005602090815260408084206001600160a01b0393909316845291905290205460ff1690565b606060078054610563906123df565b6000610d758133611a61565b610d8d60008051602061247b8339815191528361071a565b600b80546001600160a01b0319166001600160a01b0384161790556040517fb36db503700bf425dc3b747b57da91cb2e39a0d909ada3206bd18b034d7053ca90610dd890849061223d565b60405180910390a15050565b3360009081526001602090815260408083206001600160a01b038616845290915281205482811015610e665760405162461bcd60e51b815260206004820152602560248201527f45524332303a2064656372656173656420616c6c6f77616e63652062656c6f77604482015264207a65726f60d81b60648201526084016106da565b610e733385858403611421565b5060019392505050565b60006105f3338484611604565b6000600854610e97610f03565b6107b99190612385565b600d6020528160005260406000208181548110610ebd57600080fd5b600091825260209091206003909102018054600182015460029092015490935090915060ff1683565b610eef826106fb565b610ef98133611a61565b6107378383611b4b565b600954600e546040516370a0823160e01b8152600092916001600160a01b0316906370a0823190610f3890309060040161223d565b60206040518083038186803b158015610f5057600080fd5b505afa158015610f64573d6000803e3d6000fd5b505050506040513d601f19601f82011682018060405250810190610e979190612125565b600080610f9460025490565b90506000610fa0610f03565b600a54909150610fb0868361233a565b111561100e5760405162461bcd60e51b815260206004820152602760248201527f506f6f6c2068617320616c726561647920726561636865642069742773206d616044820152661e081b1a5b5a5d60ca1b60648201526084016106da565b60008211801561101e5750600081115b1561103f578061102e8387612366565b6110389190612352565b925061104e565b61104b6103e886612366565b92505b8383101561109e5760405162461bcd60e51b815260206004820152601d60248201527f506f6f6c3a204d696e74206c696d697420697320746f6f206c6172676500000060448201526064016106da565b600083116110be5760405162461bcd60e51b81526004016106da90612307565b600e546040516323b872dd60e01b81526000916001600160a01b0316906323b872dd906110f390339030908b90600401612251565b602060405180830381600087803b15801561110d57600080fd5b505af1158015611121573d6000803e3d6000fd5b505050506040513d601f19601f8201168201806040525081019061114591906120a3565b9050806111a35760405162461bcd60e51b815260206004820152602660248201527f5468652050726f76696465207472616e73666572206469646e277420676f20746044820152650d0e4deeaced60d31b60648201526084016106da565b6111ad3385611bb2565b604080518781526020810186905233917f4089141ea5e4c16575f5ebf65f1786497ea07c175846fc7745ef8d8986a4ff65910160405180910390a250505092915050565b60008051602061249b83398151915261120a8133611a61565b336000908152600d602052604090205484146112535760405162461bcd60e51b815260206004820152600860248201526715dc9bdb99c81a5960c21b60448201526064016106da565b61125b610f03565b83600854611269919061233a565b11156112b45760405162461bcd60e51b815260206004820152601a6024820152792837b7b61d1020b6b7bab73a1034b9903a37b7903630b933b29760311b60448201526064016106da565b600e546040516323b872dd60e01b81526000916001600160a01b0316906323b872dd906112e990339030908890600401612251565b602060405180830381600087803b15801561130357600080fd5b505af1158015611317573d6000803e3d6000fd5b505050506040513d601f19601f8201168201806040525081019061133b91906120a3565b9050806113995760405162461bcd60e51b815260206004820152602660248201527f546865205072656d69756d207472616e73666572206469646e277420676f20746044820152650d0e4deeaced60d31b60648201526084016106da565b336000908152600d602090815260408083208151606081018352888152808401888152600193820184815283548086018555938752949095209051600390920201908155925190830155516002909101805460ff191691151591909117905560095461140690849061233a565b60095560085461141790859061233a565b6008555050505050565b6001600160a01b0383166114835760405162461bcd60e51b8152602060048201526024808201527f45524332303a20617070726f76652066726f6d20746865207a65726f206164646044820152637265737360e01b60648201526084016106da565b6001600160a01b0382166114e45760405162461bcd60e51b815260206004820152602260248201527f45524332303a20617070726f766520746f20746865207a65726f206164647265604482015261737360f01b60648201526084016106da565b6001600160a01b0383811660008181526001602090815260408083209487168084529482529182902085905590518481527f8c5be1e5ebec7d5bd14f71427d1e84f3dd0314c0f7b2291e5b200ac8c7c3b925910160405180910390a3505050565b600060008051602061249b8339815191526115608133611a61565b336000908152600d6020526040812080548590811061158f57634e487b7160e01b600052603260045260246000fd5b60009182526020909120600390910201600281015490915060ff166115c65760405162461bcd60e51b81526004016106da906122c1565b60028101805460ff1916905560018101546009546115e49190612385565b60095580546008546115f69190612385565b600855600101549392505050565b6001600160a01b0383166116685760405162461bcd60e51b815260206004820152602560248201527f45524332303a207472616e736665722066726f6d20746865207a65726f206164604482015264647265737360d81b60648201526084016106da565b6001600160a01b0382166116ca5760405162461bcd60e51b815260206004820152602360248201527f45524332303a207472616e7366657220746f20746865207a65726f206164647260448201526265737360e81b60648201526084016106da565b6001600160a01b038316600090815260208190526040902054818110156117425760405162461bcd60e51b815260206004820152602660248201527f45524332303a207472616e7366657220616d6f756e7420657863656564732062604482015265616c616e636560d01b60648201526084016106da565b6001600160a01b0380851660009081526020819052604080822085850390559185168152908120805484929061177990849061233a565b92505081905550826001600160a01b0316846001600160a01b03166000805160206124bb833981519152846040516117b391815260200190565b60405180910390a3610897565b60006117ca610e8a565b83111561184d5760405162461bcd60e51b815260206004820152604560248201527f506f6f6c3a204e6f7420656e6f7567682066756e6473206f6e2074686520706f60448201527f6f6c20636f6e74726163742e20506c65617365206c6f7765722074686520616d60648201526437bab73a1760d91b608482015260a4016106da565b600061185860025490565b90506000611864610f03565b90506000828261187387610a73565b61187d9190612366565b6118879190612352565b90506000868210611898578661189a565b815b90506118af6118a98583612366565b84611c7f565b94506118ba86610a73565b8511156119055760405162461bcd60e51b8152602060048201526019602482015278506f6f6c3a20416d6f756e7420697320746f6f206c6172676560381b60448201526064016106da565b600085116119255760405162461bcd60e51b81526004016106da90612307565b61192f8686611cbf565b600e5460405163a9059cbb60e01b81526000916001600160a01b03169063a9059cbb90611962908a908690600401612275565b602060405180830381600087803b15801561197c57600080fd5b505af1158015611990573d6000803e3d6000fd5b505050506040513d601f19601f820116820180604052508101906119b491906120a3565b905080611a125760405162461bcd60e51b815260206004820152602660248201527f506f6f6c3a20546865205769746864726177616c206469646e277420676f20746044820152650d0e4deeaced60d31b60648201526084016106da565b60408051838152602081018890526001600160a01b038916917ff279e6a1f5e320cca91135676d9cb6e44ca8a08c0b88342bcdb1144f6511b568910160405180910390a2505050505092915050565b611a6b8282610d2f565b61060557611a83816001600160a01b03166014611dfb565b611a8e836020611dfb565b604051602001611a9f9291906121ce565b60408051601f198184030181529082905262461bcd60e51b82526106da9160040161228e565b611acf8282610d2f565b6106055760008281526005602090815260408083206001600160a01b03851684529091529020805460ff19166001179055611b073390565b6001600160a01b0316816001600160a01b0316837f2f8788117e7eff1d82e926ec794901d17c78024a50270940304540a733656f0d60405160405180910390a45050565b611b558282610d2f565b156106055760008281526005602090815260408083206001600160a01b0385168085529252808320805460ff1916905551339285917ff6391f5c32d9c69d2a47ea670b442974b53935d1edc7fd64eb21e047a839171b9190a45050565b6001600160a01b038216611c085760405162461bcd60e51b815260206004820152601f60248201527f45524332303a206d696e7420746f20746865207a65726f20616464726573730060448201526064016106da565b8060026000828254611c1a919061233a565b90915550506001600160a01b03821660009081526020819052604081208054839290611c4790849061233a565b90915550506040518181526001600160a01b038316906000906000805160206124bb8339815191529060200160405180910390a35050565b6000808211611c8d57600080fd5b6000611c998385612352565b9050611ca5838561241a565b15611cb857611cb581600161233a565b90505b9392505050565b6001600160a01b038216611d1f5760405162461bcd60e51b815260206004820152602160248201527f45524332303a206275726e2066726f6d20746865207a65726f206164647265736044820152607360f81b60648201526084016106da565b6001600160a01b03821660009081526020819052604090205481811015611d935760405162461bcd60e51b815260206004820152602260248201527f45524332303a206275726e20616d6f756e7420657863656564732062616c616e604482015261636560f01b60648201526084016106da565b6001600160a01b0383166000908152602081905260408120838303905560028054849290611dc2908490612385565b90915550506040518281526000906001600160a01b038516906000805160206124bb8339815191529060200160405180910390a3505050565b60606000611e0a836002612366565b611e1590600261233a565b6001600160401b03811115611e3a57634e487b7160e01b600052604160045260246000fd5b6040519080825280601f01601f191660200182016040528015611e64576020820181803683370190505b509050600360fc1b81600081518110611e8d57634e487b7160e01b600052603260045260246000fd5b60200101906001600160f81b031916908160001a905350600f60fb1b81600181518110611eca57634e487b7160e01b600052603260045260246000fd5b60200101906001600160f81b031916908160001a9053506000611eee846002612366565b611ef990600161233a565b90505b6001811115611f8d576f181899199a1a9b1b9c1cb0b131b232b360811b85600f1660108110611f3b57634e487b7160e01b600052603260045260246000fd5b1a60f81b828281518110611f5f57634e487b7160e01b600052603260045260246000fd5b60200101906001600160f81b031916908160001a90535060049490941c93611f86816123c8565b9050611efc565b508315611cb85760405162461bcd60e51b815260206004820181905260248201527f537472696e67733a20686578206c656e67746820696e73756666696369656e7460448201526064016106da565b80356001600160a01b038116811461064757600080fd5b600060208284031215612004578081fd5b611cb882611fdc565b6000806040838503121561201f578081fd5b61202883611fdc565b915061203660208401611fdc565b90509250929050565b600080600060608486031215612053578081fd5b61205c84611fdc565b925061206a60208501611fdc565b9150604084013590509250925092565b6000806040838503121561208c578182fd5b61209583611fdc565b946020939093013593505050565b6000602082840312156120b4578081fd5b81518015158114611cb8578182fd5b6000602082840312156120d4578081fd5b5035919050565b600080604083850312156120ed578182fd5b8235915061203660208401611fdc565b60006020828403121561210e578081fd5b81356001600160e01b031981168114611cb8578182fd5b600060208284031215612136578081fd5b5051919050565b600080600060608486031215612151578283fd5b8335925061206a60208501611fdc565b60008060408385031215612173578182fd5b50508035926020909101359150565b600080600060608486031215612196578283fd5b505081359360208301359350604090920135919050565b6000602082840312156121be578081fd5b815160ff81168114611cb8578182fd5b76020b1b1b2b9b9a1b7b73a3937b61d1030b1b1b7bab73a1604d1b81526000835161220081601785016020880161239c565b7001034b99036b4b9b9b4b733903937b6329607d1b601791840191820152835161223181602884016020880161239c565b01602801949350505050565b6001600160a01b0391909116815260200190565b6001600160a01b039384168152919092166020820152604081019190915260600190565b6001600160a01b03929092168252602082015260400190565b60208152600082518060208401526122ad81604085016020870161239c565b601f01601f19169190910160400192915050565b60208082526026908201527f506f6f6c3a206c6f636b6564416d6f756e7420697320616c726561647920756e6040820152651b1bd8dad95960d21b606082015260800190565b602080825260199082015278141bdbdb0e88105b5bdd5b9d081a5cc81d1bdbc81cdb585b1b603a1b604082015260600190565b6000821982111561234d5761234d61242e565b500190565b60008261236157612361612444565b500490565b60008160001904831182151516156123805761238061242e565b500290565b6000828210156123975761239761242e565b500390565b60005b838110156123b757818101518382015260200161239f565b838111156108975750506000910152565b6000816123d7576123d761242e565b506000190190565b600181811c908216806123f357607f821691505b6020821081141561241457634e487b7160e01b600052602260045260246000fd5b50919050565b60008261242957612429612444565b500690565b634e487b7160e01b600052601160045260246000fd5b634e487b7160e01b600052601260045260246000fdfe9f78baa7a8e3640efadcbedc2d00f5930ade7a7bb66038dbf88684d49972957a770fadb28e0e3026382976ee8b810cb0eb8666922148dd9e10b20cfb9b477ba802b0c433c31e2b44fbbb341ca2a1a7c86f98b5158b42b073f63efe02d35ea89fddf252ad1be2c89b69c2b068fc378daa952ba7f163c4a11628f55a4df523b3efa26469706673582212206af79ca88d1e2b6f561b2fb4ec2050eb7e5656d148a837a2bee800231b5260ce64736f6c63430008040033",
  "bytecodeSha1": "e999b413f75240ddbf6d2c62dca46b98f82d8bb4",
  "compiler": {
    "evm_version": "istanbul",
    "optimizer": {
      "enabled": true,
      "runs": 1
    },
    "version": "0.8.4+commit.c7e474f2"
  },
  "contractName": "BufferBinaryIBFRPoolBinary",
  "language": "Solidity",
  "natspec": {
    "author": "Heisenberg",
    "kind": "dev",
    "methods": {
      "adminWithdraw(address,uint256)": {
        "notice": "allows admin to send back the funds of the depositer",
        "params": {
          "tokenXAmount": "Amount of X to receive",
          "user": "User address for which the withdrawal has to be made"
        }
      },
      "allowance(address,address)": {
        "details": "See {IERC20-allowance}."
      },
      "approve(address,uint256)": {
        "details": "See {IERC20-approve}. Requirements: - `spender` cannot be the zero address."
      },
      "availableBalance()": {
        "notice": "Returns the amount of X available for withdrawals",
        "returns": {
          "balance": "Unlocked amount"
        }
      },
      "balanceOf(address)": {
        "details": "See {IERC20-balanceOf}."
      },
      "changeLock(uint256,uint256,uint256)": {
        "notice": "Called by BufferCallOptions to change the locked funds",
        "params": {
          "tokenXAmount": "Amount of funds that should be locked in an option"
        }
      },
      "decimals()": {
        "details": "Returns the decimals of the token."
      },
      "decreaseAllowance(address,uint256)": {
        "details": "Atomically decreases the allowance granted to `spender` by the caller. This is an alternative to {approve} that can be used as a mitigation for problems described in {IERC20-approve}. Emits an {Approval} event indicating the updated allowance. Requirements: - `spender` cannot be the zero address. - `spender` must have allowance for the caller of at least `subtractedValue`."
      },
      "getRoleAdmin(bytes32)": {
        "details": "Returns the admin role that controls `role`. See {grantRole} and {revokeRole}. To change a role's admin, use {_setRoleAdmin}."
      },
      "grantRole(bytes32,address)": {
        "details": "Grants `role` to `account`. If `account` had not been already granted `role`, emits a {RoleGranted} event. Requirements: - the caller must have ``role``'s admin role."
      },
      "hasRole(bytes32,address)": {
        "details": "Returns `true` if `account` has been granted `role`."
      },
      "increaseAllowance(address,uint256)": {
        "details": "Atomically increases the allowance granted to `spender` by the caller. This is an alternative to {approve} that can be used as a mitigation for problems described in {IERC20-approve}. Emits an {Approval} event indicating the updated allowance. Requirements: - `spender` cannot be the zero address."
      },
      "lock(uint256,uint256,uint256)": {
        "notice": "Called by BufferCallOptions to lock the funds",
        "params": {
          "tokenXAmount": "Amount of funds that should be locked in an option"
        }
      },
      "name()": {
        "details": "Returns the name of the token."
      },
      "provide(uint256,uint256)": {
        "notice": "A provider supplies tokenX to the pool and receives rBFR-X tokens",
        "params": {
          "minMint": "Minimum amount of tokens that should be received by a provider. Calling the provide function will require the minimum amount of tokens to be minted. The actual amount that will be minted could vary but can only be higher (not lower) than the minimum value."
        },
        "returns": {
          "mint": "Amount of tokens to be received"
        }
      },
      "renounceRole(bytes32,address)": {
        "details": "Revokes `role` from the calling account. Roles are often managed via {grantRole} and {revokeRole}: this function's purpose is to provide a mechanism for accounts to lose their privileges if they are compromised (such as when a trusted device is misplaced). If the calling account had been granted `role`, emits a {RoleRevoked} event. Requirements: - the caller must be `account`."
      },
      "revokeRole(bytes32,address)": {
        "details": "Revokes `role` from `account`. If `account` had been granted `role`, emits a {RoleRevoked} event. Requirements: - the caller must have ``role``'s admin role."
      },
      "send(uint256,address,uint256)": {
        "notice": "Called by BufferCallOptions to send funds to liquidity providers after an option's expiration",
        "params": {
          "to": "Provider",
          "tokenXAmount": "Funds that should be sent"
        }
      },
      "setMaxLiquidity(uint256)": {
        "notice": "Used for adjusting the max limit of the pool",
        "params": {
          "_maxLiquidity": "New limit"
        }
      },
      "setProjectOwner(address)": {
        "notice": "Used for setting owner",
        "params": {
          "account": "owner account"
        }
      },
      "shareOf(address)": {
        "notice": "Returns provider's share in X",
        "params": {
          "account": "Provider's address"
        },
        "returns": {
          "share": "Provider's share in X"
        }
      },
      "supportsInterface(bytes4)": {
        "details": "See {IERC165-supportsInterface}."
      },
      "symbol()": {
        "details": "Returns the symbol of the token, usually a shorter version of the name."
      },
      "totalSupply()": {
        "details": "See {IERC20-totalSupply}."
      },
      "totalTokenXBalance()": {
        "notice": "Returns the total balance of X provided to the pool",
        "returns": {
          "balance": "Pool balance"
        }
      },
      "transfer(address,uint256)": {
        "details": "See {IERC20-transfer}. Requirements: - `recipient` cannot be the zero address. - the caller must have a balance of at least `amount`."
      },
      "transferFrom(address,address,uint256)": {
        "details": "See {IERC20-transferFrom}. Emits an {Approval} event indicating the updated allowance. This is not required by the EIP. See the note at the beginning of {ERC20}. Requirements: - `sender` and `recipient` cannot be the zero address. - `sender` must have a balance of at least `amount`. - the caller must have allowance for ``sender``'s tokens of at least `amount`."
      },
      "unlock(uint256)": {
        "notice": "Called by BufferOptions to unlock the funds",
        "params": {
          "id": "Id of LockedLiquidity that should be unlocked"
        }
      },
      "unlockWithoutProfit(uint256)": {
        "notice": "Called by BufferOptions to unlock the funds",
        "params": {
          "id": "Id of LockedLiquidity that should be unlocked"
        }
      },
      "withdraw(uint256)": {
        "notice": "withdraw burns rBFR-X and receives X from the pool",
        "params": {
          "tokenXAmount": "Amount Amount of X to receive"
        }
      }
    },
    "notice": "Accumulates liquidity in TokenX from LPs and distributes P&L in TokenX",
    "title": "Buffer TokenX Liquidity Pool",
    "version": 1
  },
  "opcodes": "PUSH1 0x80 PUSH1 0x40 MSTORE CALLVALUE DUP1 ISZERO PUSH2 0x10 JUMPI PUSH1 0x0 DUP1 REVERT JUMPDEST POP PUSH1 0x4 CALLDATASIZE LT PUSH2 0x1EE JUMPI PUSH1 0x0 CALLDATALOAD PUSH1 0xE0 SHR DUP1 PUSH4 0x1FFC9A7 EQ PUSH2 0x1F3 JUMPI DUP1 PUSH4 0x6FDDE03 EQ PUSH2 0x21B JUMPI DUP1 PUSH4 0x95EA7B3 EQ PUSH2 0x230 JUMPI DUP1 PUSH4 0xDBF21B0 EQ PUSH2 0x243 JUMPI DUP1 PUSH4 0x16DC165B EQ PUSH2 0x258 JUMPI DUP1 PUSH4 0x18160DDD EQ PUSH2 0x278 JUMPI DUP1 PUSH4 0x21E5E2C4 EQ PUSH2 0x28A JUMPI DUP1 PUSH4 0x23B872DD EQ PUSH2 0x29D JUMPI DUP1 PUSH4 0x248A9CA3 EQ PUSH2 0x2B0 JUMPI DUP1 PUSH4 0x2E1A7D4D EQ PUSH2 0x2C3 JUMPI DUP1 PUSH4 0x2F2FF15D EQ PUSH2 0x2D6 JUMPI DUP1 PUSH4 0x313CE567 EQ PUSH2 0x2E9 JUMPI DUP1 PUSH4 0x36568ABE EQ PUSH2 0x303 JUMPI DUP1 PUSH4 0x39509351 EQ PUSH2 0x316 JUMPI DUP1 PUSH4 0x401D4482 EQ PUSH2 0x329 JUMPI DUP1 PUSH4 0x4DBAC733 EQ PUSH2 0x33C JUMPI DUP1 PUSH4 0x57A5C967 EQ PUSH2 0x345 JUMPI DUP1 PUSH4 0x6198E339 EQ PUSH2 0x358 JUMPI DUP1 PUSH4 0x6AB28BC8 EQ PUSH2 0x36B JUMPI DUP1 PUSH4 0x70A08231 EQ PUSH2 0x374 JUMPI DUP1 PUSH4 0x70C0345C EQ PUSH2 0x387 JUMPI DUP1 PUSH4 0x71081C8E EQ PUSH2 0x390 JUMPI DUP1 PUSH4 0x797BE55E EQ PUSH2 0x3A3 JUMPI DUP1 PUSH4 0x81B34F15 EQ PUSH2 0x3AC JUMPI DUP1 PUSH4 0x8DA5CB5B EQ PUSH2 0x3BF JUMPI DUP1 PUSH4 0x91D14854 EQ PUSH2 0x3D2 JUMPI DUP1 PUSH4 0x95D89B41 EQ PUSH2 0x3E5 JUMPI DUP1 PUSH4 0xA217FDDF EQ PUSH2 0x3ED JUMPI DUP1 PUSH4 0xA2416F74 EQ PUSH2 0x3F5 JUMPI DUP1 PUSH4 0xA4475CE4 EQ PUSH2 0x408 JUMPI DUP1 PUSH4 0xA457C2D7 EQ PUSH2 0x41B JUMPI DUP1 PUSH4 0xA9059CBB EQ PUSH2 0x42E JUMPI DUP1 PUSH4 0xAB2F0E51 EQ PUSH2 0x441 JUMPI DUP1 PUSH4 0xB9CFE348 EQ PUSH2 0x449 JUMPI DUP1 PUSH4 0xBE62DA0E EQ PUSH2 0x479 JUMPI DUP1 PUSH4 0xD547741F EQ PUSH2 0x48E JUMPI DUP1 PUSH4 0xD9AC10D9 EQ PUSH2 0x4A1 JUMPI DUP1 PUSH4 0xDD62ED3E EQ PUSH2 0x4A9 JUMPI DUP1 PUSH4 0xE8C3C54F EQ PUSH2 0x4E2 JUMPI DUP1 PUSH4 0xEC277A66 EQ PUSH2 0x4F5 JUMPI DUP1 PUSH4 0xEDD0D421 EQ PUSH2 0x50A JUMPI DUP1 PUSH4 0xFBCD9B05 EQ PUSH2 0x33C JUMPI JUMPDEST PUSH1 0x0 DUP1 REVERT JUMPDEST PUSH2 0x206 PUSH2 0x201 CALLDATASIZE PUSH1 0x4 PUSH2 0x20FD JUMP JUMPDEST PUSH2 0x51D JUMP JUMPDEST PUSH1 0x40 MLOAD SWAP1 ISZERO ISZERO DUP2 MSTORE PUSH1 0x20 ADD JUMPDEST PUSH1 0x40 MLOAD DUP1 SWAP2 SUB SWAP1 RETURN JUMPDEST PUSH2 0x223 PUSH2 0x554 JUMP JUMPDEST PUSH1 0x40 MLOAD PUSH2 0x212 SWAP2 SWAP1 PUSH2 0x228E JUMP JUMPDEST PUSH2 0x206 PUSH2 0x23E CALLDATASIZE PUSH1 0x4 PUSH2 0x207A JUMP JUMPDEST PUSH2 0x5E6 JUMP JUMPDEST PUSH2 0x256 PUSH2 0x251 CALLDATASIZE PUSH1 0x4 PUSH2 0x20C3 JUMP JUMPDEST PUSH2 0x5FC JUMP JUMPDEST STOP JUMPDEST PUSH1 0xE SLOAD PUSH2 0x26B SWAP1 PUSH1 0x1 PUSH1 0x1 PUSH1 0xA0 SHL SUB AND DUP2 JUMP JUMPDEST PUSH1 0x40 MLOAD PUSH2 0x212 SWAP2 SWAP1 PUSH2 0x223D JUMP JUMPDEST PUSH1 0x2 SLOAD JUMPDEST PUSH1 0x40 MLOAD SWAP1 DUP2 MSTORE PUSH1 0x20 ADD PUSH2 0x212 JUMP JUMPDEST PUSH2 0x27C PUSH2 0x298 CALLDATASIZE PUSH1 0x4 PUSH2 0x1FF3 JUMP JUMPDEST PUSH2 0x609 JUMP JUMPDEST PUSH2 0x206 PUSH2 0x2AB CALLDATASIZE PUSH1 0x4 PUSH2 0x203F JUMP JUMPDEST PUSH2 0x64C JUMP JUMPDEST PUSH2 0x27C PUSH2 0x2BE CALLDATASIZE PUSH1 0x4 PUSH2 0x20C3 JUMP JUMPDEST PUSH2 0x6FB JUMP JUMPDEST PUSH2 0x256 PUSH2 0x2D1 CALLDATASIZE PUSH1 0x4 PUSH2 0x20C3 JUMP JUMPDEST PUSH2 0x710 JUMP JUMPDEST PUSH2 0x256 PUSH2 0x2E4 CALLDATASIZE PUSH1 0x4 PUSH2 0x20DB JUMP JUMPDEST PUSH2 0x71A JUMP JUMPDEST PUSH2 0x2F1 PUSH2 0x73C JUMP JUMPDEST PUSH1 0x40 MLOAD PUSH1 0xFF SWAP1 SWAP2 AND DUP2 MSTORE PUSH1 0x20 ADD PUSH2 0x212 JUMP JUMPDEST PUSH2 0x256 PUSH2 0x311 CALLDATASIZE PUSH1 0x4 PUSH2 0x20DB JUMP JUMPDEST PUSH2 0x7BE JUMP JUMPDEST PUSH2 0x206 PUSH2 0x324 CALLDATASIZE PUSH1 0x4 PUSH2 0x207A JUMP JUMPDEST PUSH2 0x838 JUMP JUMPDEST PUSH2 0x256 PUSH2 0x337 CALLDATASIZE PUSH1 0x4 PUSH2 0x207A JUMP JUMPDEST PUSH2 0x874 JUMP JUMPDEST PUSH2 0x27C PUSH2 0x3E8 DUP2 JUMP JUMPDEST PUSH2 0x256 PUSH2 0x353 CALLDATASIZE PUSH1 0x4 PUSH2 0x2182 JUMP JUMPDEST PUSH2 0x89D JUMP JUMPDEST PUSH2 0x256 PUSH2 0x366 CALLDATASIZE PUSH1 0x4 PUSH2 0x20C3 JUMP JUMPDEST PUSH2 0xA3A JUMP JUMPDEST PUSH2 0x27C PUSH1 0x8 SLOAD DUP2 JUMP JUMPDEST PUSH2 0x27C PUSH2 0x382 CALLDATASIZE PUSH1 0x4 PUSH2 0x1FF3 JUMP JUMPDEST PUSH2 0xA73 JUMP JUMPDEST PUSH2 0x27C PUSH1 0xA SLOAD DUP2 JUMP JUMPDEST PUSH2 0x256 PUSH2 0x39E CALLDATASIZE PUSH1 0x4 PUSH2 0x20C3 JUMP JUMPDEST PUSH2 0xA8E JUMP JUMPDEST PUSH2 0x27C PUSH1 0x9 SLOAD DUP2 JUMP JUMPDEST PUSH2 0x256 PUSH2 0x3BA CALLDATASIZE PUSH1 0x4 PUSH2 0x213D JUMP JUMPDEST PUSH2 0xADB JUMP JUMPDEST PUSH1 0xC SLOAD PUSH2 0x26B SWAP1 PUSH1 0x1 PUSH1 0x1 PUSH1 0xA0 SHL SUB AND DUP2 JUMP JUMPDEST PUSH2 0x206 PUSH2 0x3E0 CALLDATASIZE PUSH1 0x4 PUSH2 0x20DB JUMP JUMPDEST PUSH2 0xD2F JUMP JUMPDEST PUSH2 0x223 PUSH2 0xD5A JUMP JUMPDEST PUSH2 0x27C PUSH1 0x0 DUP2 JUMP JUMPDEST PUSH2 0x256 PUSH2 0x403 CALLDATASIZE PUSH1 0x4 PUSH2 0x1FF3 JUMP JUMPDEST PUSH2 0xD69 JUMP JUMPDEST PUSH1 0xB SLOAD PUSH2 0x26B SWAP1 PUSH1 0x1 PUSH1 0x1 PUSH1 0xA0 SHL SUB AND DUP2 JUMP JUMPDEST PUSH2 0x206 PUSH2 0x429 CALLDATASIZE PUSH1 0x4 PUSH2 0x207A JUMP JUMPDEST PUSH2 0xDE4 JUMP JUMPDEST PUSH2 0x206 PUSH2 0x43C CALLDATASIZE PUSH1 0x4 PUSH2 0x207A JUMP JUMPDEST PUSH2 0xE7D JUMP JUMPDEST PUSH2 0x27C PUSH2 0xE8A JUMP JUMPDEST PUSH2 0x45C PUSH2 0x457 CALLDATASIZE PUSH1 0x4 PUSH2 0x207A JUMP JUMPDEST PUSH2 0xEA1 JUMP JUMPDEST PUSH1 0x40 DUP1 MLOAD SWAP4 DUP5 MSTORE PUSH1 0x20 DUP5 ADD SWAP3 SWAP1 SWAP3 MSTORE ISZERO ISZERO SWAP1 DUP3 ADD MSTORE PUSH1 0x60 ADD PUSH2 0x212 JUMP JUMPDEST PUSH2 0x27C PUSH1 0x0 DUP1 MLOAD PUSH1 0x20 PUSH2 0x247B DUP4 CODECOPY DUP2 MLOAD SWAP2 MSTORE DUP2 JUMP JUMPDEST PUSH2 0x256 PUSH2 0x49C CALLDATASIZE PUSH1 0x4 PUSH2 0x20DB JUMP JUMPDEST PUSH2 0xEE6 JUMP JUMPDEST PUSH2 0x27C PUSH2 0xF03 JUMP JUMPDEST PUSH2 0x27C PUSH2 0x4B7 CALLDATASIZE PUSH1 0x4 PUSH2 0x200D JUMP JUMPDEST PUSH1 0x1 PUSH1 0x1 PUSH1 0xA0 SHL SUB SWAP2 DUP3 AND PUSH1 0x0 SWAP1 DUP2 MSTORE PUSH1 0x1 PUSH1 0x20 SWAP1 DUP2 MSTORE PUSH1 0x40 DUP1 DUP4 KECCAK256 SWAP4 SWAP1 SWAP5 AND DUP3 MSTORE SWAP2 SWAP1 SWAP2 MSTORE KECCAK256 SLOAD SWAP1 JUMP JUMPDEST PUSH2 0x27C PUSH2 0x4F0 CALLDATASIZE PUSH1 0x4 PUSH2 0x2161 JUMP JUMPDEST PUSH2 0xF88 JUMP JUMPDEST PUSH2 0x27C PUSH1 0x0 DUP1 MLOAD PUSH1 0x20 PUSH2 0x249B DUP4 CODECOPY DUP2 MLOAD SWAP2 MSTORE DUP2 JUMP JUMPDEST PUSH2 0x256 PUSH2 0x518 CALLDATASIZE PUSH1 0x4 PUSH2 0x2182 JUMP JUMPDEST PUSH2 0x11F1 JUMP JUMPDEST PUSH1 0x0 PUSH1 0x1 PUSH1 0x1 PUSH1 0xE0 SHL SUB NOT DUP3 AND PUSH4 0x7965DB0B PUSH1 0xE0 SHL EQ DUP1 PUSH2 0x54E JUMPI POP PUSH4 0x1FFC9A7 PUSH1 0xE0 SHL PUSH1 0x1 PUSH1 0x1 PUSH1 0xE0 SHL SUB NOT DUP4 AND EQ JUMPDEST SWAP3 SWAP2 POP POP JUMP JUMPDEST PUSH1 0x60 PUSH1 0x6 DUP1 SLOAD PUSH2 0x563 SWAP1 PUSH2 0x23DF JUMP JUMPDEST DUP1 PUSH1 0x1F ADD PUSH1 0x20 DUP1 SWAP2 DIV MUL PUSH1 0x20 ADD PUSH1 0x40 MLOAD SWAP1 DUP2 ADD PUSH1 0x40 MSTORE DUP1 SWAP3 SWAP2 SWAP1 DUP2 DUP2 MSTORE PUSH1 0x20 ADD DUP3 DUP1 SLOAD PUSH2 0x58F SWAP1 PUSH2 0x23DF JUMP JUMPDEST DUP1 ISZERO PUSH2 0x5DC JUMPI DUP1 PUSH1 0x1F LT PUSH2 0x5B1 JUMPI PUSH2 0x100 DUP1 DUP4 SLOAD DIV MUL DUP4 MSTORE SWAP2 PUSH1 0x20 ADD SWAP2 PUSH2 0x5DC JUMP JUMPDEST DUP3 ADD SWAP2 SWAP1 PUSH1 0x0 MSTORE PUSH1 0x20 PUSH1 0x0 KECCAK256 SWAP1 JUMPDEST DUP2 SLOAD DUP2 MSTORE SWAP1 PUSH1 0x1 ADD SWAP1 PUSH1 0x20 ADD DUP1 DUP4 GT PUSH2 0x5BF JUMPI DUP3 SWAP1 SUB PUSH1 0x1F AND DUP3 ADD SWAP2 JUMPDEST POP POP POP POP POP SWAP1 POP SWAP1 JUMP JUMPDEST PUSH1 0x0 PUSH2 0x5F3 CALLER DUP5 DUP5 PUSH2 0x1421 JUMP JUMPDEST POP PUSH1 0x1 SWAP3 SWAP2 POP POP JUMP JUMPDEST PUSH2 0x605 DUP2 PUSH2 0x1545 JUMP JUMPDEST POP POP JUMP JUMPDEST PUSH1 0x0 DUP1 PUSH2 0x615 PUSH1 0x2 SLOAD SWAP1 JUMP JUMPDEST GT ISZERO PUSH2 0x643 JUMPI PUSH1 0x2 SLOAD PUSH2 0x627 DUP4 PUSH2 0xA73 JUMP JUMPDEST PUSH2 0x62F PUSH2 0xF03 JUMP JUMPDEST PUSH2 0x639 SWAP2 SWAP1 PUSH2 0x2366 JUMP JUMPDEST PUSH2 0x54E SWAP2 SWAP1 PUSH2 0x2352 JUMP JUMPDEST POP PUSH1 0x0 JUMPDEST SWAP2 SWAP1 POP JUMP JUMPDEST PUSH1 0x0 PUSH2 0x659 DUP5 DUP5 DUP5 PUSH2 0x1604 JUMP JUMPDEST PUSH1 0x1 PUSH1 0x1 PUSH1 0xA0 SHL SUB DUP5 AND PUSH1 0x0 SWAP1 DUP2 MSTORE PUSH1 0x1 PUSH1 0x20 SWAP1 DUP2 MSTORE PUSH1 0x40 DUP1 DUP4 KECCAK256 CALLER DUP5 MSTORE SWAP1 SWAP2 MSTORE SWAP1 KECCAK256 SLOAD DUP3 DUP2 LT ISZERO PUSH2 0x6E3 JUMPI PUSH1 0x40 MLOAD PUSH3 0x461BCD PUSH1 0xE5 SHL DUP2 MSTORE PUSH1 0x20 PUSH1 0x4 DUP3 ADD MSTORE PUSH1 0x28 PUSH1 0x24 DUP3 ADD MSTORE PUSH32 0x45524332303A207472616E7366657220616D6F756E7420657863656564732061 PUSH1 0x44 DUP3 ADD MSTORE PUSH8 0x6C6C6F77616E6365 PUSH1 0xC0 SHL PUSH1 0x64 DUP3 ADD MSTORE PUSH1 0x84 ADD JUMPDEST PUSH1 0x40 MLOAD DUP1 SWAP2 SUB SWAP1 REVERT JUMPDEST PUSH2 0x6F0 DUP6 CALLER DUP6 DUP5 SUB PUSH2 0x1421 JUMP JUMPDEST POP PUSH1 0x1 SWAP5 SWAP4 POP POP POP POP JUMP JUMPDEST PUSH1 0x0 SWAP1 DUP2 MSTORE PUSH1 0x5 PUSH1 0x20 MSTORE PUSH1 0x40 SWAP1 KECCAK256 PUSH1 0x1 ADD SLOAD SWAP1 JUMP JUMPDEST PUSH2 0x605 DUP2 CALLER PUSH2 0x17C0 JUMP JUMPDEST PUSH2 0x723 DUP3 PUSH2 0x6FB JUMP JUMPDEST PUSH2 0x72D DUP2 CALLER PUSH2 0x1A61 JUMP JUMPDEST PUSH2 0x737 DUP4 DUP4 PUSH2 0x1AC5 JUMP JUMPDEST POP POP POP JUMP JUMPDEST PUSH1 0xE SLOAD PUSH1 0x40 DUP1 MLOAD PUSH4 0x313CE567 PUSH1 0xE0 SHL DUP2 MSTORE SWAP1 MLOAD PUSH1 0x0 SWAP3 PUSH1 0x1 PUSH1 0x1 PUSH1 0xA0 SHL SUB AND SWAP2 PUSH4 0x313CE567 SWAP2 PUSH1 0x4 DUP1 DUP4 ADD SWAP3 PUSH1 0x20 SWAP3 SWAP2 SWAP1 DUP3 SWAP1 SUB ADD DUP2 DUP7 DUP1 EXTCODESIZE ISZERO DUP1 ISZERO PUSH2 0x781 JUMPI PUSH1 0x0 DUP1 REVERT JUMPDEST POP GAS STATICCALL ISZERO DUP1 ISZERO PUSH2 0x795 JUMPI RETURNDATASIZE PUSH1 0x0 DUP1 RETURNDATACOPY RETURNDATASIZE PUSH1 0x0 REVERT JUMPDEST POP POP POP POP PUSH1 0x40 MLOAD RETURNDATASIZE PUSH1 0x1F NOT PUSH1 0x1F DUP3 ADD AND DUP3 ADD DUP1 PUSH1 0x40 MSTORE POP DUP2 ADD SWAP1 PUSH2 0x7B9 SWAP2 SWAP1 PUSH2 0x21AD JUMP JUMPDEST SWAP1 POP SWAP1 JUMP JUMPDEST PUSH1 0x1 PUSH1 0x1 PUSH1 0xA0 SHL SUB DUP2 AND CALLER EQ PUSH2 0x82E JUMPI PUSH1 0x40 MLOAD PUSH3 0x461BCD PUSH1 0xE5 SHL DUP2 MSTORE PUSH1 0x20 PUSH1 0x4 DUP3 ADD MSTORE PUSH1 0x2F PUSH1 0x24 DUP3 ADD MSTORE PUSH32 0x416363657373436F6E74726F6C3A2063616E206F6E6C792072656E6F756E6365 PUSH1 0x44 DUP3 ADD MSTORE PUSH15 0x103937B632B9903337B91039B2B633 PUSH1 0x89 SHL PUSH1 0x64 DUP3 ADD MSTORE PUSH1 0x84 ADD PUSH2 0x6DA JUMP JUMPDEST PUSH2 0x605 DUP3 DUP3 PUSH2 0x1B4B JUMP JUMPDEST CALLER PUSH1 0x0 DUP2 DUP2 MSTORE PUSH1 0x1 PUSH1 0x20 SWAP1 DUP2 MSTORE PUSH1 0x40 DUP1 DUP4 KECCAK256 PUSH1 0x1 PUSH1 0x1 PUSH1 0xA0 SHL SUB DUP8 AND DUP5 MSTORE SWAP1 SWAP2 MSTORE DUP2 KECCAK256 SLOAD SWAP1 SWAP2 PUSH2 0x5F3 SWAP2 DUP6 SWAP1 PUSH2 0x86F SWAP1 DUP7 SWAP1 PUSH2 0x233A JUMP JUMPDEST PUSH2 0x1421 JUMP JUMPDEST PUSH1 0x0 DUP1 MLOAD PUSH1 0x20 PUSH2 0x247B DUP4 CODECOPY DUP2 MLOAD SWAP2 MSTORE PUSH2 0x88D DUP2 CALLER PUSH2 0x1A61 JUMP JUMPDEST PUSH2 0x897 DUP3 DUP5 PUSH2 0x17C0 JUMP JUMPDEST POP POP POP POP JUMP JUMPDEST PUSH1 0x0 DUP1 MLOAD PUSH1 0x20 PUSH2 0x249B DUP4 CODECOPY DUP2 MLOAD SWAP2 MSTORE PUSH2 0x8B6 DUP2 CALLER PUSH2 0x1A61 JUMP JUMPDEST CALLER PUSH1 0x0 SWAP1 DUP2 MSTORE PUSH1 0xD PUSH1 0x20 MSTORE PUSH1 0x40 DUP2 KECCAK256 DUP1 SLOAD DUP7 SWAP1 DUP2 LT PUSH2 0x8E5 JUMPI PUSH4 0x4E487B71 PUSH1 0xE0 SHL PUSH1 0x0 MSTORE PUSH1 0x32 PUSH1 0x4 MSTORE PUSH1 0x24 PUSH1 0x0 REVERT JUMPDEST PUSH1 0x0 SWAP2 DUP3 MSTORE PUSH1 0x20 SWAP1 SWAP2 KECCAK256 PUSH1 0x3 SWAP1 SWAP2 MUL ADD PUSH1 0x2 DUP2 ADD SLOAD SWAP1 SWAP2 POP PUSH1 0xFF AND PUSH2 0x94C JUMPI PUSH1 0x40 MLOAD PUSH3 0x461BCD PUSH1 0xE5 SHL DUP2 MSTORE PUSH1 0x20 PUSH1 0x4 DUP3 ADD DUP2 SWAP1 MSTORE PUSH1 0x24 DUP3 ADD MSTORE PUSH32 0x6C6F636B6564416D6F756E7420697320616C726561647920756E6C6F636B6564 PUSH1 0x44 DUP3 ADD MSTORE PUSH1 0x64 ADD PUSH2 0x6DA JUMP JUMPDEST DUP3 DUP2 PUSH1 0x1 ADD SLOAD GT ISZERO PUSH2 0x9F0 JUMPI PUSH1 0xE SLOAD PUSH1 0x1 DUP3 ADD SLOAD PUSH1 0x1 PUSH1 0x1 PUSH1 0xA0 SHL SUB SWAP1 SWAP2 AND SWAP1 PUSH4 0xA9059CBB SWAP1 CALLER SWAP1 PUSH2 0x97F SWAP1 DUP8 SWAP1 PUSH2 0x2385 JUMP JUMPDEST PUSH1 0x40 MLOAD DUP4 PUSH4 0xFFFFFFFF AND PUSH1 0xE0 SHL DUP2 MSTORE PUSH1 0x4 ADD PUSH2 0x99C SWAP3 SWAP2 SWAP1 PUSH2 0x2275 JUMP JUMPDEST PUSH1 0x20 PUSH1 0x40 MLOAD DUP1 DUP4 SUB DUP2 PUSH1 0x0 DUP8 DUP1 EXTCODESIZE ISZERO DUP1 ISZERO PUSH2 0x9B6 JUMPI PUSH1 0x0 DUP1 REVERT JUMPDEST POP GAS CALL ISZERO DUP1 ISZERO PUSH2 0x9CA JUMPI RETURNDATASIZE PUSH1 0x0 DUP1 RETURNDATACOPY RETURNDATASIZE PUSH1 0x0 REVERT JUMPDEST POP POP POP POP PUSH1 0x40 MLOAD RETURNDATASIZE PUSH1 0x1F NOT PUSH1 0x1F DUP3 ADD AND DUP3 ADD DUP1 PUSH1 0x40 MSTORE POP DUP2 ADD SWAP1 PUSH2 0x9EE SWAP2 SWAP1 PUSH2 0x20A3 JUMP JUMPDEST POP JUMPDEST DUP3 DUP2 PUSH1 0x1 ADD SLOAD PUSH1 0x9 SLOAD PUSH2 0xA03 SWAP2 SWAP1 PUSH2 0x2385 JUMP JUMPDEST PUSH2 0xA0D SWAP2 SWAP1 PUSH2 0x233A JUMP JUMPDEST PUSH1 0x9 SSTORE DUP1 SLOAD PUSH1 0x8 SLOAD DUP6 SWAP2 PUSH2 0xA20 SWAP2 PUSH2 0x2385 JUMP JUMPDEST PUSH2 0xA2A SWAP2 SWAP1 PUSH2 0x233A JUMP JUMPDEST PUSH1 0x8 SSTORE PUSH1 0x1 DUP2 ADD SWAP3 SWAP1 SWAP3 SSTORE POP SSTORE POP JUMP JUMPDEST PUSH1 0x0 PUSH2 0xA45 DUP3 PUSH2 0x1545 JUMP JUMPDEST SWAP1 POP DUP2 PUSH1 0x0 DUP1 MLOAD PUSH1 0x20 PUSH2 0x245B DUP4 CODECOPY DUP2 MLOAD SWAP2 MSTORE DUP3 PUSH1 0x40 MLOAD PUSH2 0xA67 SWAP2 DUP2 MSTORE PUSH1 0x20 ADD SWAP1 JUMP JUMPDEST PUSH1 0x40 MLOAD DUP1 SWAP2 SUB SWAP1 LOG2 POP POP JUMP JUMPDEST PUSH1 0x1 PUSH1 0x1 PUSH1 0xA0 SHL SUB AND PUSH1 0x0 SWAP1 DUP2 MSTORE PUSH1 0x20 DUP2 SWAP1 MSTORE PUSH1 0x40 SWAP1 KECCAK256 SLOAD SWAP1 JUMP JUMPDEST PUSH1 0x0 DUP1 MLOAD PUSH1 0x20 PUSH2 0x247B DUP4 CODECOPY DUP2 MLOAD SWAP2 MSTORE PUSH2 0xAA7 DUP2 CALLER PUSH2 0x1A61 JUMP JUMPDEST PUSH1 0xA DUP3 SWAP1 SSTORE PUSH1 0x40 MLOAD DUP3 SWAP1 PUSH32 0x2138D5B63F1E1FC5996475C0D8565B0F4CE68622680C894DB2BFD3ECE685D257 SWAP1 PUSH1 0x0 SWAP1 LOG2 POP POP JUMP JUMPDEST PUSH1 0x0 DUP1 MLOAD PUSH1 0x20 PUSH2 0x249B DUP4 CODECOPY DUP2 MLOAD SWAP2 MSTORE PUSH2 0xAF4 DUP2 CALLER PUSH2 0x1A61 JUMP JUMPDEST CALLER PUSH1 0x0 SWAP1 DUP2 MSTORE PUSH1 0xD PUSH1 0x20 MSTORE PUSH1 0x40 DUP2 KECCAK256 DUP1 SLOAD DUP7 SWAP1 DUP2 LT PUSH2 0xB23 JUMPI PUSH4 0x4E487B71 PUSH1 0xE0 SHL PUSH1 0x0 MSTORE PUSH1 0x32 PUSH1 0x4 MSTORE PUSH1 0x24 PUSH1 0x0 REVERT JUMPDEST PUSH1 0x0 SWAP2 DUP3 MSTORE PUSH1 0x20 SWAP1 SWAP2 KECCAK256 PUSH1 0x3 SWAP1 SWAP2 MUL ADD PUSH1 0x2 DUP2 ADD SLOAD SWAP1 SWAP2 POP PUSH1 0xFF AND PUSH2 0xB5A JUMPI PUSH1 0x40 MLOAD PUSH3 0x461BCD PUSH1 0xE5 SHL DUP2 MSTORE PUSH1 0x4 ADD PUSH2 0x6DA SWAP1 PUSH2 0x22C1 JUMP JUMPDEST PUSH1 0x1 PUSH1 0x1 PUSH1 0xA0 SHL SUB DUP5 AND PUSH2 0xB6D JUMPI PUSH1 0x0 DUP1 REVERT JUMPDEST PUSH1 0x2 DUP2 ADD DUP1 SLOAD PUSH1 0xFF NOT AND SWAP1 SSTORE PUSH1 0x1 DUP2 ADD SLOAD PUSH1 0x9 SLOAD PUSH2 0xB8B SWAP2 SWAP1 PUSH2 0x2385 JUMP JUMPDEST PUSH1 0x9 SSTORE DUP1 SLOAD PUSH1 0x8 SLOAD PUSH2 0xB9D SWAP2 SWAP1 PUSH2 0x2385 JUMP JUMPDEST PUSH1 0x8 SSTORE DUP1 SLOAD PUSH1 0x0 SWAP1 DUP5 GT PUSH2 0xBB1 JUMPI DUP4 PUSH2 0xBB4 JUMP JUMPDEST DUP2 SLOAD JUMPDEST PUSH1 0xE SLOAD PUSH1 0x40 MLOAD PUSH4 0xA9059CBB PUSH1 0xE0 SHL DUP2 MSTORE SWAP2 SWAP3 POP PUSH1 0x0 SWAP2 PUSH1 0x1 PUSH1 0x1 PUSH1 0xA0 SHL SUB SWAP1 SWAP2 AND SWAP1 PUSH4 0xA9059CBB SWAP1 PUSH2 0xBEC SWAP1 DUP10 SWAP1 DUP7 SWAP1 PUSH1 0x4 ADD PUSH2 0x2275 JUMP JUMPDEST PUSH1 0x20 PUSH1 0x40 MLOAD DUP1 DUP4 SUB DUP2 PUSH1 0x0 DUP8 DUP1 EXTCODESIZE ISZERO DUP1 ISZERO PUSH2 0xC06 JUMPI PUSH1 0x0 DUP1 REVERT JUMPDEST POP GAS CALL ISZERO DUP1 ISZERO PUSH2 0xC1A JUMPI RETURNDATASIZE PUSH1 0x0 DUP1 RETURNDATACOPY RETURNDATASIZE PUSH1 0x0 REVERT JUMPDEST POP POP POP POP PUSH1 0x40 MLOAD RETURNDATASIZE PUSH1 0x1F NOT PUSH1 0x1F DUP3 ADD AND DUP3 ADD DUP1 PUSH1 0x40 MSTORE POP DUP2 ADD SWAP1 PUSH2 0xC3E SWAP2 SWAP1 PUSH2 0x20A3 JUMP JUMPDEST SWAP1 POP DUP1 PUSH2 0xCA1 JUMPI PUSH1 0x40 MLOAD PUSH3 0x461BCD PUSH1 0xE5 SHL DUP2 MSTORE PUSH1 0x20 PUSH1 0x4 DUP3 ADD MSTORE PUSH1 0x2B PUSH1 0x24 DUP3 ADD MSTORE PUSH32 0x506F6F6C3A20546865205061796F7574207472616E73666572206469646E2774 PUSH1 0x44 DUP3 ADD MSTORE PUSH11 0x40CEDE40E8D0E4DEEACED PUSH1 0xAB SHL PUSH1 0x64 DUP3 ADD MSTORE PUSH1 0x84 ADD PUSH2 0x6DA JUMP JUMPDEST DUP3 PUSH1 0x1 ADD SLOAD DUP3 GT PUSH2 0xCE2 JUMPI DUP7 PUSH1 0x0 DUP1 MLOAD PUSH1 0x20 PUSH2 0x245B DUP4 CODECOPY DUP2 MLOAD SWAP2 MSTORE DUP4 DUP6 PUSH1 0x1 ADD SLOAD PUSH2 0xCCC SWAP2 SWAP1 PUSH2 0x2385 JUMP JUMPDEST PUSH1 0x40 MLOAD SWAP1 DUP2 MSTORE PUSH1 0x20 ADD PUSH1 0x40 MLOAD DUP1 SWAP2 SUB SWAP1 LOG2 PUSH2 0xD26 JUMP JUMPDEST DUP7 PUSH32 0x86F83F021A5ECB92D6DCAEC11BE9DA0E65B5401CE748AC3C1F0DDBAE029F55CE DUP5 PUSH1 0x1 ADD SLOAD DUP5 PUSH2 0xD14 SWAP2 SWAP1 PUSH2 0x2385 JUMP JUMPDEST PUSH1 0x40 MLOAD SWAP1 DUP2 MSTORE PUSH1 0x20 ADD PUSH1 0x40 MLOAD DUP1 SWAP2 SUB SWAP1 LOG2 JUMPDEST POP POP POP POP POP POP POP JUMP JUMPDEST PUSH1 0x0 SWAP2 DUP3 MSTORE PUSH1 0x5 PUSH1 0x20 SWAP1 DUP2 MSTORE PUSH1 0x40 DUP1 DUP5 KECCAK256 PUSH1 0x1 PUSH1 0x1 PUSH1 0xA0 SHL SUB SWAP4 SWAP1 SWAP4 AND DUP5 MSTORE SWAP2 SWAP1 MSTORE SWAP1 KECCAK256 SLOAD PUSH1 0xFF AND SWAP1 JUMP JUMPDEST PUSH1 0x60 PUSH1 0x7 DUP1 SLOAD PUSH2 0x563 SWAP1 PUSH2 0x23DF JUMP JUMPDEST PUSH1 0x0 PUSH2 0xD75 DUP2 CALLER PUSH2 0x1A61 JUMP JUMPDEST PUSH2 0xD8D PUSH1 0x0 DUP1 MLOAD PUSH1 0x20 PUSH2 0x247B DUP4 CODECOPY DUP2 MLOAD SWAP2 MSTORE DUP4 PUSH2 0x71A JUMP JUMPDEST PUSH1 0xB DUP1 SLOAD PUSH1 0x1 PUSH1 0x1 PUSH1 0xA0 SHL SUB NOT AND PUSH1 0x1 PUSH1 0x1 PUSH1 0xA0 SHL SUB DUP5 AND OR SWAP1 SSTORE PUSH1 0x40 MLOAD PUSH32 0xB36DB503700BF425DC3B747B57DA91CB2E39A0D909ADA3206BD18B034D7053CA SWAP1 PUSH2 0xDD8 SWAP1 DUP5 SWAP1 PUSH2 0x223D JUMP JUMPDEST PUSH1 0x40 MLOAD DUP1 SWAP2 SUB SWAP1 LOG1 POP POP JUMP JUMPDEST CALLER PUSH1 0x0 SWAP1 DUP2 MSTORE PUSH1 0x1 PUSH1 0x20 SWAP1 DUP2 MSTORE PUSH1 0x40 DUP1 DUP4 KECCAK256 PUSH1 0x1 PUSH1 0x1 PUSH1 0xA0 SHL SUB DUP7 AND DUP5 MSTORE SWAP1 SWAP2 MSTORE DUP2 KECCAK256 SLOAD DUP3 DUP2 LT ISZERO PUSH2 0xE66 JUMPI PUSH1 0x40 MLOAD PUSH3 0x461BCD PUSH1 0xE5 SHL DUP2 MSTORE PUSH1 0x20 PUSH1 0x4 DUP3 ADD MSTORE PUSH1 0x25 PUSH1 0x24 DUP3 ADD MSTORE PUSH32 0x45524332303A2064656372656173656420616C6C6F77616E63652062656C6F77 PUSH1 0x44 DUP3 ADD MSTORE PUSH5 0x207A65726F PUSH1 0xD8 SHL PUSH1 0x64 DUP3 ADD MSTORE PUSH1 0x84 ADD PUSH2 0x6DA JUMP JUMPDEST PUSH2 0xE73 CALLER DUP6 DUP6 DUP5 SUB PUSH2 0x1421 JUMP JUMPDEST POP PUSH1 0x1 SWAP4 SWAP3 POP POP POP JUMP JUMPDEST PUSH1 0x0 PUSH2 0x5F3 CALLER DUP5 DUP5 PUSH2 0x1604 JUMP JUMPDEST PUSH1 0x0 PUSH1 0x8 SLOAD PUSH2 0xE97 PUSH2 0xF03 JUMP JUMPDEST PUSH2 0x7B9 SWAP2 SWAP1 PUSH2 0x2385 JUMP JUMPDEST PUSH1 0xD PUSH1 0x20 MSTORE DUP2 PUSH1 0x0 MSTORE PUSH1 0x40 PUSH1 0x0 KECCAK256 DUP2 DUP2 SLOAD DUP2 LT PUSH2 0xEBD JUMPI PUSH1 0x0 DUP1 REVERT JUMPDEST PUSH1 0x0 SWAP2 DUP3 MSTORE PUSH1 0x20 SWAP1 SWAP2 KECCAK256 PUSH1 0x3 SWAP1 SWAP2 MUL ADD DUP1 SLOAD PUSH1 0x1 DUP3 ADD SLOAD PUSH1 0x2 SWAP1 SWAP3 ADD SLOAD SWAP1 SWAP4 POP SWAP1 SWAP2 POP PUSH1 0xFF AND DUP4 JUMP JUMPDEST PUSH2 0xEEF DUP3 PUSH2 0x6FB JUMP JUMPDEST PUSH2 0xEF9 DUP2 CALLER PUSH2 0x1A61 JUMP JUMPDEST PUSH2 0x737 DUP4 DUP4 PUSH2 0x1B4B JUMP JUMPDEST PUSH1 0x9 SLOAD PUSH1 0xE SLOAD PUSH1 0x40 MLOAD PUSH4 0x70A08231 PUSH1 0xE0 SHL DUP2 MSTORE PUSH1 0x0 SWAP3 SWAP2 PUSH1 0x1 PUSH1 0x1 PUSH1 0xA0 SHL SUB AND SWAP1 PUSH4 0x70A08231 SWAP1 PUSH2 0xF38 SWAP1 ADDRESS SWAP1 PUSH1 0x4 ADD PUSH2 0x223D JUMP JUMPDEST PUSH1 0x20 PUSH1 0x40 MLOAD DUP1 DUP4 SUB DUP2 DUP7 DUP1 EXTCODESIZE ISZERO DUP1 ISZERO PUSH2 0xF50 JUMPI PUSH1 0x0 DUP1 REVERT JUMPDEST POP GAS STATICCALL ISZERO DUP1 ISZERO PUSH2 0xF64 JUMPI RETURNDATASIZE PUSH1 0x0 DUP1 RETURNDATACOPY RETURNDATASIZE PUSH1 0x0 REVERT JUMPDEST POP POP POP POP PUSH1 0x40 MLOAD RETURNDATASIZE PUSH1 0x1F NOT PUSH1 0x1F DUP3 ADD AND DUP3 ADD DUP1 PUSH1 0x40 MSTORE POP DUP2 ADD SWAP1 PUSH2 0xE97 SWAP2 SWAP1 PUSH2 0x2125 JUMP JUMPDEST PUSH1 0x0 DUP1 PUSH2 0xF94 PUSH1 0x2 SLOAD SWAP1 JUMP JUMPDEST SWAP1 POP PUSH1 0x0 PUSH2 0xFA0 PUSH2 0xF03 JUMP JUMPDEST PUSH1 0xA SLOAD SWAP1 SWAP2 POP PUSH2 0xFB0 DUP7 DUP4 PUSH2 0x233A JUMP JUMPDEST GT ISZERO PUSH2 0x100E JUMPI PUSH1 0x40 MLOAD PUSH3 0x461BCD PUSH1 0xE5 SHL DUP2 MSTORE PUSH1 0x20 PUSH1 0x4 DUP3 ADD MSTORE PUSH1 0x27 PUSH1 0x24 DUP3 ADD MSTORE PUSH32 0x506F6F6C2068617320616C726561647920726561636865642069742773206D61 PUSH1 0x44 DUP3 ADD MSTORE PUSH7 0x1E081B1A5B5A5D PUSH1 0xCA SHL PUSH1 0x64 DUP3 ADD MSTORE PUSH1 0x84 ADD PUSH2 0x6DA JUMP JUMPDEST PUSH1 0x0 DUP3 GT DUP1 ISZERO PUSH2 0x101E JUMPI POP PUSH1 0x0 DUP2 GT JUMPDEST ISZERO PUSH2 0x103F JUMPI DUP1 PUSH2 0x102E DUP4 DUP8 PUSH2 0x2366 JUMP JUMPDEST PUSH2 0x1038 SWAP2 SWAP1 PUSH2 0x2352 JUMP JUMPDEST SWAP3 POP PUSH2 0x104E JUMP JUMPDEST PUSH2 0x104B PUSH2 0x3E8 DUP7 PUSH2 0x2366 JUMP JUMPDEST SWAP3 POP JUMPDEST DUP4 DUP4 LT ISZERO PUSH2 0x109E JUMPI PUSH1 0x40 MLOAD PUSH3 0x461BCD PUSH1 0xE5 SHL DUP2 MSTORE PUSH1 0x20 PUSH1 0x4 DUP3 ADD MSTORE PUSH1 0x1D PUSH1 0x24 DUP3 ADD MSTORE PUSH32 0x506F6F6C3A204D696E74206C696D697420697320746F6F206C61726765000000 PUSH1 0x44 DUP3 ADD MSTORE PUSH1 0x64 ADD PUSH2 0x6DA JUMP JUMPDEST PUSH1 0x0 DUP4 GT PUSH2 0x10BE JUMPI PUSH1 0x40 MLOAD PUSH3 0x461BCD PUSH1 0xE5 SHL DUP2 MSTORE PUSH1 0x4 ADD PUSH2 0x6DA SWAP1 PUSH2 0x2307 JUMP JUMPDEST PUSH1 0xE SLOAD PUSH1 0x40 MLOAD PUSH4 0x23B872DD PUSH1 0xE0 SHL DUP2 MSTORE PUSH1 0x0 SWAP2 PUSH1 0x1 PUSH1 0x1 PUSH1 0xA0 SHL SUB AND SWAP1 PUSH4 0x23B872DD SWAP1 PUSH2 0x10F3 SWAP1 CALLER SWAP1 ADDRESS SWAP1 DUP12 SWAP1 PUSH1 0x4 ADD PUSH2 0x2251 JUMP JUMPDEST PUSH1 0x20 PUSH1 0x40 MLOAD DUP1 DUP4 SUB DUP2 PUSH1 0x0 DUP8 DUP1 EXTCODESIZE ISZERO DUP1 ISZERO PUSH2 0x110D JUMPI PUSH1 0x0 DUP1 REVERT JUMPDEST POP GAS CALL ISZERO DUP1 ISZERO PUSH2 0x1121 JUMPI RETURNDATASIZE PUSH1 0x0 DUP1 RETURNDATACOPY RETURNDATASIZE PUSH1 0x0 REVERT JUMPDEST POP POP POP POP PUSH1 0x40 MLOAD RETURNDATASIZE PUSH1 0x1F NOT PUSH1 0x1F DUP3 ADD AND DUP3 ADD DUP1 PUSH1 0x40 MSTORE POP DUP2 ADD SWAP1 PUSH2 0x1145 SWAP2 SWAP1 PUSH2 0x20A3 JUMP JUMPDEST SWAP1 POP DUP1 PUSH2 0x11A3 JUMPI PUSH1 0x40 MLOAD PUSH3 0x461BCD PUSH1 0xE5 SHL DUP2 MSTORE PUSH1 0x20 PUSH1 0x4 DUP3 ADD MSTORE PUSH1 0x26 PUSH1 0x24 DUP3 ADD MSTORE PUSH32 0x5468652050726F76696465207472616E73666572206469646E277420676F2074 PUSH1 0x44 DUP3 ADD MSTORE PUSH6 0xD0E4DEEACED PUSH1 0xD3 SHL PUSH1 0x64 DUP3 ADD MSTORE PUSH1 0x84 ADD PUSH2 0x6DA JUMP JUMPDEST PUSH2 0x11AD CALLER DUP6 PUSH2 0x1BB2 JUMP JUMPDEST PUSH1 0x40 DUP1 MLOAD DUP8 DUP2 MSTORE PUSH1 0x20 DUP2 ADD DUP7 SWAP1 MSTORE CALLER SWAP2 PUSH32 0x4089141EA5E4C16575F5EBF65F1786497EA07C175846FC7745EF8D8986A4FF65 SWAP2 ADD PUSH1 0x40 MLOAD DUP1 SWAP2 SUB SWAP1 LOG2 POP POP POP SWAP3 SWAP2 POP POP JUMP JUMPDEST PUSH1 0x0 DUP1 MLOAD PUSH1 0x20 PUSH2 0x249B DUP4 CODECOPY DUP2 MLOAD SWAP2 MSTORE PUSH2 0x120A DUP2 CALLER PUSH2 0x1A61 JUMP JUMPDEST CALLER PUSH1 0x0 SWAP1 DUP2 MSTORE PUSH1 0xD PUSH1 0x20 MSTORE PUSH1 0x40 SWAP1 KECCAK256 SLOAD DUP5 EQ PUSH2 0x1253 JUMPI PUSH1 0x40 MLOAD PUSH3 0x461BCD PUSH1 0xE5 SHL DUP2 MSTORE PUSH1 0x20 PUSH1 0x4 DUP3 ADD MSTORE PUSH1 0x8 PUSH1 0x24 DUP3 ADD MSTORE PUSH8 0x15DC9BDB99C81A59 PUSH1 0xC2 SHL PUSH1 0x44 DUP3 ADD MSTORE PUSH1 0x64 ADD PUSH2 0x6DA JUMP JUMPDEST PUSH2 0x125B PUSH2 0xF03 JUMP JUMPDEST DUP4 PUSH1 0x8 SLOAD PUSH2 0x1269 SWAP2 SWAP1 PUSH2 0x233A JUMP JUMPDEST GT ISZERO PUSH2 0x12B4 JUMPI PUSH1 0x40 MLOAD PUSH3 0x461BCD PUSH1 0xE5 SHL DUP2 MSTORE PUSH1 0x20 PUSH1 0x4 DUP3 ADD MSTORE PUSH1 0x1A PUSH1 0x24 DUP3 ADD MSTORE PUSH26 0x2837B7B61D1020B6B7BAB73A1034B9903A37B7903630B933B297 PUSH1 0x31 SHL PUSH1 0x44 DUP3 ADD MSTORE PUSH1 0x64 ADD PUSH2 0x6DA JUMP JUMPDEST PUSH1 0xE SLOAD PUSH1 0x40 MLOAD PUSH4 0x23B872DD PUSH1 0xE0 SHL DUP2 MSTORE PUSH1 0x0 SWAP2 PUSH1 0x1 PUSH1 0x1 PUSH1 0xA0 SHL SUB AND SWAP1 PUSH4 0x23B872DD SWAP1 PUSH2 0x12E9 SWAP1 CALLER SWAP1 ADDRESS SWAP1 DUP9 SWAP1 PUSH1 0x4 ADD PUSH2 0x2251 JUMP JUMPDEST PUSH1 0x20 PUSH1 0x40 MLOAD DUP1 DUP4 SUB DUP2 PUSH1 0x0 DUP8 DUP1 EXTCODESIZE ISZERO DUP1 ISZERO PUSH2 0x1303 JUMPI PUSH1 0x0 DUP1 REVERT JUMPDEST POP GAS CALL ISZERO DUP1 ISZERO PUSH2 0x1317 JUMPI RETURNDATASIZE PUSH1 0x0 DUP1 RETURNDATACOPY RETURNDATASIZE PUSH1 0x0 REVERT JUMPDEST POP POP POP POP PUSH1 0x40 MLOAD RETURNDATASIZE PUSH1 0x1F NOT PUSH1 0x1F DUP3 ADD AND DUP3 ADD DUP1 PUSH1 0x40 MSTORE POP DUP2 ADD SWAP1 PUSH2 0x133B SWAP2 SWAP1 PUSH2 0x20A3 JUMP JUMPDEST SWAP1 POP DUP1 PUSH2 0x1399 JUMPI PUSH1 0x40 MLOAD PUSH3 0x461BCD PUSH1 0xE5 SHL DUP2 MSTORE PUSH1 0x20 PUSH1 0x4 DUP3 ADD MSTORE PUSH1 0x26 PUSH1 0x24 DUP3 ADD MSTORE PUSH32 0x546865205072656D69756D207472616E73666572206469646E277420676F2074 PUSH1 0x44 DUP3 ADD MSTORE PUSH6 0xD0E4DEEACED PUSH1 0xD3 SHL PUSH1 0x64 DUP3 ADD MSTORE PUSH1 0x84 ADD PUSH2 0x6DA JUMP JUMPDEST CALLER PUSH1 0x0 SWAP1 DUP2 MSTORE PUSH1 0xD PUSH1 0x20 SWAP1 DUP2 MSTORE PUSH1 0x40 DUP1 DUP4 KECCAK256 DUP2 MLOAD PUSH1 0x60 DUP2 ADD DUP4 MSTORE DUP9 DUP2 MSTORE DUP1 DUP5 ADD DUP9 DUP2 MSTORE PUSH1 0x1 SWAP4 DUP3 ADD DUP5 DUP2 MSTORE DUP4 SLOAD DUP1 DUP7 ADD DUP6 SSTORE SWAP4 DUP8 MSTORE SWAP5 SWAP1 SWAP6 KECCAK256 SWAP1 MLOAD PUSH1 0x3 SWAP1 SWAP3 MUL ADD SWAP1 DUP2 SSTORE SWAP3 MLOAD SWAP1 DUP4 ADD SSTORE MLOAD PUSH1 0x2 SWAP1 SWAP2 ADD DUP1 SLOAD PUSH1 0xFF NOT AND SWAP2 ISZERO ISZERO SWAP2 SWAP1 SWAP2 OR SWAP1 SSTORE PUSH1 0x9 SLOAD PUSH2 0x1406 SWAP1 DUP5 SWAP1 PUSH2 0x233A JUMP JUMPDEST PUSH1 0x9 SSTORE PUSH1 0x8 SLOAD PUSH2 0x1417 SWAP1 DUP6 SWAP1 PUSH2 0x233A JUMP JUMPDEST PUSH1 0x8 SSTORE POP POP POP POP POP JUMP JUMPDEST PUSH1 0x1 PUSH1 0x1 PUSH1 0xA0 SHL SUB DUP4 AND PUSH2 0x1483 JUMPI PUSH1 0x40 MLOAD PUSH3 0x461BCD PUSH1 0xE5 SHL DUP2 MSTORE PUSH1 0x20 PUSH1 0x4 DUP3 ADD MSTORE PUSH1 0x24 DUP1 DUP3 ADD MSTORE PUSH32 0x45524332303A20617070726F76652066726F6D20746865207A65726F20616464 PUSH1 0x44 DUP3 ADD MSTORE PUSH4 0x72657373 PUSH1 0xE0 SHL PUSH1 0x64 DUP3 ADD MSTORE PUSH1 0x84 ADD PUSH2 0x6DA JUMP JUMPDEST PUSH1 0x1 PUSH1 0x1 PUSH1 0xA0 SHL SUB DUP3 AND PUSH2 0x14E4 JUMPI PUSH1 0x40 MLOAD PUSH3 0x461BCD PUSH1 0xE5 SHL DUP2 MSTORE PUSH1 0x20 PUSH1 0x4 DUP3 ADD MSTORE PUSH1 0x22 PUSH1 0x24 DUP3 ADD MSTORE PUSH32 0x45524332303A20617070726F766520746F20746865207A65726F206164647265 PUSH1 0x44 DUP3 ADD MSTORE PUSH2 0x7373 PUSH1 0xF0 SHL PUSH1 0x64 DUP3 ADD MSTORE PUSH1 0x84 ADD PUSH2 0x6DA JUMP JUMPDEST PUSH1 0x1 PUSH1 0x1 PUSH1 0xA0 SHL SUB DUP4 DUP2 AND PUSH1 0x0 DUP2 DUP2 MSTORE PUSH1 0x1 PUSH1 0x20 SWAP1 DUP2 MSTORE PUSH1 0x40 DUP1 DUP4 KECCAK256 SWAP5 DUP8 AND DUP1 DUP5 MSTORE SWAP5 DUP3 MSTORE SWAP2 DUP3 SWAP1 KECCAK256 DUP6 SWAP1 SSTORE SWAP1 MLOAD DUP5 DUP2 MSTORE PUSH32 0x8C5BE1E5EBEC7D5BD14F71427D1E84F3DD0314C0F7B2291E5B200AC8C7C3B925 SWAP2 ADD PUSH1 0x40 MLOAD DUP1 SWAP2 SUB SWAP1 LOG3 POP POP POP JUMP JUMPDEST PUSH1 0x0 PUSH1 0x0 DUP1 MLOAD PUSH1 0x20 PUSH2 0x249B DUP4 CODECOPY DUP2 MLOAD SWAP2 MSTORE PUSH2 0x1560 DUP2 CALLER PUSH2 0x1A61 JUMP JUMPDEST CALLER PUSH1 0x0 SWAP1 DUP2 MSTORE PUSH1 0xD PUSH1 0x20 MSTORE PUSH1 0x40 DUP2 KECCAK256 DUP1 SLOAD DUP6 SWAP1 DUP2 LT PUSH2 0x158F JUMPI PUSH4 0x4E487B71 PUSH1 0xE0 SHL PUSH1 0x0 MSTORE PUSH1 0x32 PUSH1 0x4 MSTORE PUSH1 0x24 PUSH1 0x0 REVERT JUMPDEST PUSH1 0x0 SWAP2 DUP3 MSTORE PUSH1 0x20 SWAP1 SWAP2 KECCAK256 PUSH1 0x3 SWAP1 SWAP2 MUL ADD PUSH1 0x2 DUP2 ADD SLOAD SWAP1 SWAP2 POP PUSH1 0xFF AND PUSH2 0x15C6 JUMPI PUSH1 0x40 MLOAD PUSH3 0x461BCD PUSH1 0xE5 SHL DUP2 MSTORE PUSH1 0x4 ADD PUSH2 0x6DA SWAP1 PUSH2 0x22C1 JUMP JUMPDEST PUSH1 0x2 DUP2 ADD DUP1 SLOAD PUSH1 0xFF NOT AND SWAP1 SSTORE PUSH1 0x1 DUP2 ADD SLOAD PUSH1 0x9 SLOAD PUSH2 0x15E4 SWAP2 SWAP1 PUSH2 0x2385 JUMP JUMPDEST PUSH1 0x9 SSTORE DUP1 SLOAD PUSH1 0x8 SLOAD PUSH2 0x15F6 SWAP2 SWAP1 PUSH2 0x2385 JUMP JUMPDEST PUSH1 0x8 SSTORE PUSH1 0x1 ADD SLOAD SWAP4 SWAP3 POP POP POP JUMP JUMPDEST PUSH1 0x1 PUSH1 0x1 PUSH1 0xA0 SHL SUB DUP4 AND PUSH2 0x1668 JUMPI PUSH1 0x40 MLOAD PUSH3 0x461BCD PUSH1 0xE5 SHL DUP2 MSTORE PUSH1 0x20 PUSH1 0x4 DUP3 ADD MSTORE PUSH1 0x25 PUSH1 0x24 DUP3 ADD MSTORE PUSH32 0x45524332303A207472616E736665722066726F6D20746865207A65726F206164 PUSH1 0x44 DUP3 ADD MSTORE PUSH5 0x6472657373 PUSH1 0xD8 SHL PUSH1 0x64 DUP3 ADD MSTORE PUSH1 0x84 ADD PUSH2 0x6DA JUMP JUMPDEST PUSH1 0x1 PUSH1 0x1 PUSH1 0xA0 SHL SUB DUP3 AND PUSH2 0x16CA JUMPI PUSH1 0x40 MLOAD PUSH3 0x461BCD PUSH1 0xE5 SHL DUP2 MSTORE PUSH1 0x20 PUSH1 0x4 DUP3 ADD MSTORE PUSH1 0x23 PUSH1 0x24 DUP3 ADD MSTORE PUSH32 0x45524332303A207472616E7366657220746F20746865207A65726F2061646472 PUSH1 0x44 DUP3 ADD MSTORE PUSH3 0x657373 PUSH1 0xE8 SHL PUSH1 0x64 DUP3 ADD MSTORE PUSH1 0x84 ADD PUSH2 0x6DA JUMP JUMPDEST PUSH1 0x1 PUSH1 0x1 PUSH1 0xA0 SHL SUB DUP4 AND PUSH1 0x0 SWAP1 DUP2 MSTORE PUSH1 0x20 DUP2 SWAP1 MSTORE PUSH1 0x40 SWAP1 KECCAK256 SLOAD DUP2 DUP2 LT ISZERO PUSH2 0x1742 JUMPI PUSH1 0x40 MLOAD PUSH3 0x461BCD PUSH1 0xE5 SHL DUP2 MSTORE PUSH1 0x20 PUSH1 0x4 DUP3 ADD MSTORE PUSH1 0x26 PUSH1 0x24 DUP3 ADD MSTORE PUSH32 0x45524332303A207472616E7366657220616D6F756E7420657863656564732062 PUSH1 0x44 DUP3 ADD MSTORE PUSH6 0x616C616E6365 PUSH1 0xD0 SHL PUSH1 0x64 DUP3 ADD MSTORE PUSH1 0x84 ADD PUSH2 0x6DA JUMP JUMPDEST PUSH1 0x1 PUSH1 0x1 PUSH1 0xA0 SHL SUB DUP1 DUP6 AND PUSH1 0x0 SWAP1 DUP2 MSTORE PUSH1 0x20 DUP2 SWAP1 MSTORE PUSH1 0x40 DUP1 DUP3 KECCAK256 DUP6 DUP6 SUB SWAP1 SSTORE SWAP2 DUP6 AND DUP2 MSTORE SWAP1 DUP2 KECCAK256 DUP1 SLOAD DUP5 SWAP3 SWAP1 PUSH2 0x1779 SWAP1 DUP5 SWAP1 PUSH2 0x233A JUMP JUMPDEST SWAP3 POP POP DUP2 SWAP1 SSTORE POP DUP3 PUSH1 0x1 PUSH1 0x1 PUSH1 0xA0 SHL SUB AND DUP5 PUSH1 0x1 PUSH1 0x1 PUSH1 0xA0 SHL SUB AND PUSH1 0x0 DUP1 MLOAD PUSH1 0x20 PUSH2 0x24BB DUP4 CODECOPY DUP2 MLOAD SWAP2 MSTORE DUP5 PUSH1 0x40 MLOAD PUSH2 0x17B3 SWAP2 DUP2 MSTORE PUSH1 0x20 ADD SWAP1 JUMP JUMPDEST PUSH1 0x40 MLOAD DUP1 SWAP2 SUB SWAP1 LOG3 PUSH2 0x897 JUMP JUMPDEST PUSH1 0x0 PUSH2 0x17CA PUSH2 0xE8A JUMP JUMPDEST DUP4 GT ISZERO PUSH2 0x184D JUMPI PUSH1 0x40 MLOAD PUSH3 0x461BCD PUSH1 0xE5 SHL DUP2 MSTORE PUSH1 0x20 PUSH1 0x4 DUP3 ADD MSTORE PUSH1 0x45 PUSH1 0x24 DUP3 ADD MSTORE PUSH32 0x506F6F6C3A204E6F7420656E6F7567682066756E6473206F6E2074686520706F PUSH1 0x44 DUP3 ADD MSTORE PUSH32 0x6F6C20636F6E74726163742E20506C65617365206C6F7765722074686520616D PUSH1 0x64 DUP3 ADD MSTORE PUSH5 0x37BAB73A17 PUSH1 0xD9 SHL PUSH1 0x84 DUP3 ADD MSTORE PUSH1 0xA4 ADD PUSH2 0x6DA JUMP JUMPDEST PUSH1 0x0 PUSH2 0x1858 PUSH1 0x2 SLOAD SWAP1 JUMP JUMPDEST SWAP1 POP PUSH1 0x0 PUSH2 0x1864 PUSH2 0xF03 JUMP JUMPDEST SWAP1 POP PUSH1 0x0 DUP3 DUP3 PUSH2 0x1873 DUP8 PUSH2 0xA73 JUMP JUMPDEST PUSH2 0x187D SWAP2 SWAP1 PUSH2 0x2366 JUMP JUMPDEST PUSH2 0x1887 SWAP2 SWAP1 PUSH2 0x2352 JUMP JUMPDEST SWAP1 POP PUSH1 0x0 DUP7 DUP3 LT PUSH2 0x1898 JUMPI DUP7 PUSH2 0x189A JUMP JUMPDEST DUP2 JUMPDEST SWAP1 POP PUSH2 0x18AF PUSH2 0x18A9 DUP6 DUP4 PUSH2 0x2366 JUMP JUMPDEST DUP5 PUSH2 0x1C7F JUMP JUMPDEST SWAP5 POP PUSH2 0x18BA DUP7 PUSH2 0xA73 JUMP JUMPDEST DUP6 GT ISZERO PUSH2 0x1905 JUMPI PUSH1 0x40 MLOAD PUSH3 0x461BCD PUSH1 0xE5 SHL DUP2 MSTORE PUSH1 0x20 PUSH1 0x4 DUP3 ADD MSTORE PUSH1 0x19 PUSH1 0x24 DUP3 ADD MSTORE PUSH25 0x506F6F6C3A20416D6F756E7420697320746F6F206C61726765 PUSH1 0x38 SHL PUSH1 0x44 DUP3 ADD MSTORE PUSH1 0x64 ADD PUSH2 0x6DA JUMP JUMPDEST PUSH1 0x0 DUP6 GT PUSH2 0x1925 JUMPI PUSH1 0x40 MLOAD PUSH3 0x461BCD PUSH1 0xE5 SHL DUP2 MSTORE PUSH1 0x4 ADD PUSH2 0x6DA SWAP1 PUSH2 0x2307 JUMP JUMPDEST PUSH2 0x192F DUP7 DUP7 PUSH2 0x1CBF JUMP JUMPDEST PUSH1 0xE SLOAD PUSH1 0x40 MLOAD PUSH4 0xA9059CBB PUSH1 0xE0 SHL DUP2 MSTORE PUSH1 0x0 SWAP2 PUSH1 0x1 PUSH1 0x1 PUSH1 0xA0 SHL SUB AND SWAP1 PUSH4 0xA9059CBB SWAP1 PUSH2 0x1962 SWAP1 DUP11 SWAP1 DUP7 SWAP1 PUSH1 0x4 ADD PUSH2 0x2275 JUMP JUMPDEST PUSH1 0x20 PUSH1 0x40 MLOAD DUP1 DUP4 SUB DUP2 PUSH1 0x0 DUP8 DUP1 EXTCODESIZE ISZERO DUP1 ISZERO PUSH2 0x197C JUMPI PUSH1 0x0 DUP1 REVERT JUMPDEST POP GAS CALL ISZERO DUP1 ISZERO PUSH2 0x1990 JUMPI RETURNDATASIZE PUSH1 0x0 DUP1 RETURNDATACOPY RETURNDATASIZE PUSH1 0x0 REVERT JUMPDEST POP POP POP POP PUSH1 0x40 MLOAD RETURNDATASIZE PUSH1 0x1F NOT PUSH1 0x1F DUP3 ADD AND DUP3 ADD DUP1 PUSH1 0x40 MSTORE POP DUP2 ADD SWAP1 PUSH2 0x19B4 SWAP2 SWAP1 PUSH2 0x20A3 JUMP JUMPDEST SWAP1 POP DUP1 PUSH2 0x1A12 JUMPI PUSH1 0x40 MLOAD PUSH3 0x461BCD PUSH1 0xE5 SHL DUP2 MSTORE PUSH1 0x20 PUSH1 0x4 DUP3 ADD MSTORE PUSH1 0x26 PUSH1 0x24 DUP3 ADD MSTORE PUSH32 0x506F6F6C3A20546865205769746864726177616C206469646E277420676F2074 PUSH1 0x44 DUP3 ADD MSTORE PUSH6 0xD0E4DEEACED PUSH1 0xD3 SHL PUSH1 0x64 DUP3 ADD MSTORE PUSH1 0x84 ADD PUSH2 0x6DA JUMP JUMPDEST PUSH1 0x40 DUP1 MLOAD DUP4 DUP2 MSTORE PUSH1 0x20 DUP2 ADD DUP9 SWAP1 MSTORE PUSH1 0x1 PUSH1 0x1 PUSH1 0xA0 SHL SUB DUP10 AND SWAP2 PUSH32 0xF279E6A1F5E320CCA91135676D9CB6E44CA8A08C0B88342BCDB1144F6511B568 SWAP2 ADD PUSH1 0x40 MLOAD DUP1 SWAP2 SUB SWAP1 LOG2 POP POP POP POP POP SWAP3 SWAP2 POP POP JUMP JUMPDEST PUSH2 0x1A6B DUP3 DUP3 PUSH2 0xD2F JUMP JUMPDEST PUSH2 0x605 JUMPI PUSH2 0x1A83 DUP2 PUSH1 0x1 PUSH1 0x1 PUSH1 0xA0 SHL SUB AND PUSH1 0x14 PUSH2 0x1DFB JUMP JUMPDEST PUSH2 0x1A8E DUP4 PUSH1 0x20 PUSH2 0x1DFB JUMP JUMPDEST PUSH1 0x40 MLOAD PUSH1 0x20 ADD PUSH2 0x1A9F SWAP3 SWAP2 SWAP1 PUSH2 0x21CE JUMP JUMPDEST PUSH1 0x40 DUP1 MLOAD PUSH1 0x1F NOT DUP2 DUP5 SUB ADD DUP2 MSTORE SWAP1 DUP3 SWAP1 MSTORE PUSH3 0x461BCD PUSH1 0xE5 SHL DUP3 MSTORE PUSH2 0x6DA SWAP2 PUSH1 0x4 ADD PUSH2 0x228E JUMP JUMPDEST PUSH2 0x1ACF DUP3 DUP3 PUSH2 0xD2F JUMP JUMPDEST PUSH2 0x605 JUMPI PUSH1 0x0 DUP3 DUP2 MSTORE PUSH1 0x5 PUSH1 0x20 SWAP1 DUP2 MSTORE PUSH1 0x40 DUP1 DUP4 KECCAK256 PUSH1 0x1 PUSH1 0x1 PUSH1 0xA0 SHL SUB DUP6 AND DUP5 MSTORE SWAP1 SWAP2 MSTORE SWAP1 KECCAK256 DUP1 SLOAD PUSH1 0xFF NOT AND PUSH1 0x1 OR SWAP1 SSTORE PUSH2 0x1B07 CALLER SWAP1 JUMP JUMPDEST PUSH1 0x1 PUSH1 0x1 PUSH1 0xA0 SHL SUB AND DUP2 PUSH1 0x1 PUSH1 0x1 PUSH1 0xA0 SHL SUB AND DUP4 PUSH32 0x2F8788117E7EFF1D82E926EC794901D17C78024A50270940304540A733656F0D PUSH1 0x40 MLOAD PUSH1 0x40 MLOAD DUP1 SWAP2 SUB SWAP1 LOG4 POP POP JUMP JUMPDEST PUSH2 0x1B55 DUP3 DUP3 PUSH2 0xD2F JUMP JUMPDEST ISZERO PUSH2 0x605 JUMPI PUSH1 0x0 DUP3 DUP2 MSTORE PUSH1 0x5 PUSH1 0x20 SWAP1 DUP2 MSTORE PUSH1 0x40 DUP1 DUP4 KECCAK256 PUSH1 0x1 PUSH1 0x1 PUSH1 0xA0 SHL SUB DUP6 AND DUP1 DUP6 MSTORE SWAP3 MSTORE DUP1 DUP4 KECCAK256 DUP1 SLOAD PUSH1 0xFF NOT AND SWAP1 SSTORE MLOAD CALLER SWAP3 DUP6 SWAP2 PUSH32 0xF6391F5C32D9C69D2A47EA670B442974B53935D1EDC7FD64EB21E047A839171B SWAP2 SWAP1 LOG4 POP POP JUMP JUMPDEST PUSH1 0x1 PUSH1 0x1 PUSH1 0xA0 SHL SUB DUP3 AND PUSH2 0x1C08 JUMPI PUSH1 0x40 MLOAD PUSH3 0x461BCD PUSH1 0xE5 SHL DUP2 MSTORE PUSH1 0x20 PUSH1 0x4 DUP3 ADD MSTORE PUSH1 0x1F PUSH1 0x24 DUP3 ADD MSTORE PUSH32 0x45524332303A206D696E7420746F20746865207A65726F206164647265737300 PUSH1 0x44 DUP3 ADD MSTORE PUSH1 0x64 ADD PUSH2 0x6DA JUMP JUMPDEST DUP1 PUSH1 0x2 PUSH1 0x0 DUP3 DUP3 SLOAD PUSH2 0x1C1A SWAP2 SWAP1 PUSH2 0x233A JUMP JUMPDEST SWAP1 SWAP2 SSTORE POP POP PUSH1 0x1 PUSH1 0x1 PUSH1 0xA0 SHL SUB DUP3 AND PUSH1 0x0 SWAP1 DUP2 MSTORE PUSH1 0x20 DUP2 SWAP1 MSTORE PUSH1 0x40 DUP2 KECCAK256 DUP1 SLOAD DUP4 SWAP3 SWAP1 PUSH2 0x1C47 SWAP1 DUP5 SWAP1 PUSH2 0x233A JUMP JUMPDEST SWAP1 SWAP2 SSTORE POP POP PUSH1 0x40 MLOAD DUP2 DUP2 MSTORE PUSH1 0x1 PUSH1 0x1 PUSH1 0xA0 SHL SUB DUP4 AND SWAP1 PUSH1 0x0 SWAP1 PUSH1 0x0 DUP1 MLOAD PUSH1 0x20 PUSH2 0x24BB DUP4 CODECOPY DUP2 MLOAD SWAP2 MSTORE SWAP1 PUSH1 0x20 ADD PUSH1 0x40 MLOAD DUP1 SWAP2 SUB SWAP1 LOG3 POP POP JUMP JUMPDEST PUSH1 0x0 DUP1 DUP3 GT PUSH2 0x1C8D JUMPI PUSH1 0x0 DUP1 REVERT JUMPDEST PUSH1 0x0 PUSH2 0x1C99 DUP4 DUP6 PUSH2 0x2352 JUMP JUMPDEST SWAP1 POP PUSH2 0x1CA5 DUP4 DUP6 PUSH2 0x241A JUMP JUMPDEST ISZERO PUSH2 0x1CB8 JUMPI PUSH2 0x1CB5 DUP2 PUSH1 0x1 PUSH2 0x233A JUMP JUMPDEST SWAP1 POP JUMPDEST SWAP4 SWAP3 POP POP POP JUMP JUMPDEST PUSH1 0x1 PUSH1 0x1 PUSH1 0xA0 SHL SUB DUP3 AND PUSH2 0x1D1F JUMPI PUSH1 0x40 MLOAD PUSH3 0x461BCD PUSH1 0xE5 SHL DUP2 MSTORE PUSH1 0x20 PUSH1 0x4 DUP3 ADD MSTORE PUSH1 0x21 PUSH1 0x24 DUP3 ADD MSTORE PUSH32 0x45524332303A206275726E2066726F6D20746865207A65726F20616464726573 PUSH1 0x44 DUP3 ADD MSTORE PUSH1 0x73 PUSH1 0xF8 SHL PUSH1 0x64 DUP3 ADD MSTORE PUSH1 0x84 ADD PUSH2 0x6DA JUMP JUMPDEST PUSH1 0x1 PUSH1 0x1 PUSH1 0xA0 SHL SUB DUP3 AND PUSH1 0x0 SWAP1 DUP2 MSTORE PUSH1 0x20 DUP2 SWAP1 MSTORE PUSH1 0x40 SWAP1 KECCAK256 SLOAD DUP2 DUP2 LT ISZERO PUSH2 0x1D93 JUMPI PUSH1 0x40 MLOAD PUSH3 0x461BCD PUSH1 0xE5 SHL DUP2 MSTORE PUSH1 0x20 PUSH1 0x4 DUP3 ADD MSTORE PUSH1 0x22 PUSH1 0x24 DUP3 ADD MSTORE PUSH32 0x45524332303A206275726E20616D6F756E7420657863656564732062616C616E PUSH1 0x44 DUP3 ADD MSTORE PUSH2 0x6365 PUSH1 0xF0 SHL PUSH1 0x64 DUP3 ADD MSTORE PUSH1 0x84 ADD PUSH2 0x6DA JUMP JUMPDEST PUSH1 0x1 PUSH1 0x1 PUSH1 0xA0 SHL SUB DUP4 AND PUSH1 0x0 SWAP1 DUP2 MSTORE PUSH1 0x20 DUP2 SWAP1 MSTORE PUSH1 0x40 DUP2 KECCAK256 DUP4 DUP4 SUB SWAP1 SSTORE PUSH1 0x2 DUP1 SLOAD DUP5 SWAP3 SWAP1 PUSH2 0x1DC2 SWAP1 DUP5 SWAP1 PUSH2 0x2385 JUMP JUMPDEST SWAP1 SWAP2 SSTORE POP POP PUSH1 0x40 MLOAD DUP3 DUP2 MSTORE PUSH1 0x0 SWAP1 PUSH1 0x1 PUSH1 0x1 PUSH1 0xA0 SHL SUB DUP6 AND SWAP1 PUSH1 0x0 DUP1 MLOAD PUSH1 0x20 PUSH2 0x24BB DUP4 CODECOPY DUP2 MLOAD SWAP2 MSTORE SWAP1 PUSH1 0x20 ADD PUSH1 0x40 MLOAD DUP1 SWAP2 SUB SWAP1 LOG3 POP POP POP JUMP JUMPDEST PUSH1 0x60 PUSH1 0x0 PUSH2 0x1E0A DUP4 PUSH1 0x2 PUSH2 0x2366 JUMP JUMPDEST PUSH2 0x1E15 SWAP1 PUSH1 0x2 PUSH2 0x233A JUMP JUMPDEST PUSH1 0x1 PUSH1 0x1 PUSH1 0x40 SHL SUB DUP2 GT ISZERO PUSH2 0x1E3A JUMPI PUSH4 0x4E487B71 PUSH1 0xE0 SHL PUSH1 0x0 MSTORE PUSH1 0x41 PUSH1 0x4 MSTORE PUSH1 0x24 PUSH1 0x0 REVERT JUMPDEST PUSH1 0x40 MLOAD SWAP1 DUP1 DUP3 MSTORE DUP1 PUSH1 0x1F ADD PUSH1 0x1F NOT AND PUSH1 0x20 ADD DUP3 ADD PUSH1 0x40 MSTORE DUP1 ISZERO PUSH2 0x1E64 JUMPI PUSH1 0x20 DUP3 ADD DUP2 DUP1 CALLDATASIZE DUP4 CALLDATACOPY ADD SWAP1 POP JUMPDEST POP SWAP1 POP PUSH1 0x3 PUSH1 0xFC SHL DUP2 PUSH1 0x0 DUP2 MLOAD DUP2 LT PUSH2 0x1E8D JUMPI PUSH4 0x4E487B71 PUSH1 0xE0 SHL PUSH1 0x0 MSTORE PUSH1 0x32 PUSH1 0x4 MSTORE PUSH1 0x24 PUSH1 0x0 REVERT JUMPDEST PUSH1 0x20 ADD ADD SWAP1 PUSH1 0x1 PUSH1 0x1 PUSH1 0xF8 SHL SUB NOT AND SWAP1 DUP2 PUSH1 0x0 BYTE SWAP1 MSTORE8 POP PUSH1 0xF PUSH1 0xFB SHL DUP2 PUSH1 0x1 DUP2 MLOAD DUP2 LT PUSH2 0x1ECA JUMPI PUSH4 0x4E487B71 PUSH1 0xE0 SHL PUSH1 0x0 MSTORE PUSH1 0x32 PUSH1 0x4 MSTORE PUSH1 0x24 PUSH1 0x0 REVERT JUMPDEST PUSH1 0x20 ADD ADD SWAP1 PUSH1 0x1 PUSH1 0x1 PUSH1 0xF8 SHL SUB NOT AND SWAP1 DUP2 PUSH1 0x0 BYTE SWAP1 MSTORE8 POP PUSH1 0x0 PUSH2 0x1EEE DUP5 PUSH1 0x2 PUSH2 0x2366 JUMP JUMPDEST PUSH2 0x1EF9 SWAP1 PUSH1 0x1 PUSH2 0x233A JUMP JUMPDEST SWAP1 POP JUMPDEST PUSH1 0x1 DUP2 GT ISZERO PUSH2 0x1F8D JUMPI PUSH16 0x181899199A1A9B1B9C1CB0B131B232B3 PUSH1 0x81 SHL DUP6 PUSH1 0xF AND PUSH1 0x10 DUP2 LT PUSH2 0x1F3B JUMPI PUSH4 0x4E487B71 PUSH1 0xE0 SHL PUSH1 0x0 MSTORE PUSH1 0x32 PUSH1 0x4 MSTORE PUSH1 0x24 PUSH1 0x0 REVERT JUMPDEST BYTE PUSH1 0xF8 SHL DUP3 DUP3 DUP2 MLOAD DUP2 LT PUSH2 0x1F5F JUMPI PUSH4 0x4E487B71 PUSH1 0xE0 SHL PUSH1 0x0 MSTORE PUSH1 0x32 PUSH1 0x4 MSTORE PUSH1 0x24 PUSH1 0x0 REVERT JUMPDEST PUSH1 0x20 ADD ADD SWAP1 PUSH1 0x1 PUSH1 0x1 PUSH1 0xF8 SHL SUB NOT AND SWAP1 DUP2 PUSH1 0x0 BYTE SWAP1 MSTORE8 POP PUSH1 0x4 SWAP5 SWAP1 SWAP5 SHR SWAP4 PUSH2 0x1F86 DUP2 PUSH2 0x23C8 JUMP JUMPDEST SWAP1 POP PUSH2 0x1EFC JUMP JUMPDEST POP DUP4 ISZERO PUSH2 0x1CB8 JUMPI PUSH1 0x40 MLOAD PUSH3 0x461BCD PUSH1 0xE5 SHL DUP2 MSTORE PUSH1 0x20 PUSH1 0x4 DUP3 ADD DUP2 SWAP1 MSTORE PUSH1 0x24 DUP3 ADD MSTORE PUSH32 0x537472696E67733A20686578206C656E67746820696E73756666696369656E74 PUSH1 0x44 DUP3 ADD MSTORE PUSH1 0x64 ADD PUSH2 0x6DA JUMP JUMPDEST DUP1 CALLDATALOAD PUSH1 0x1 PUSH1 0x1 PUSH1 0xA0 SHL SUB DUP2 AND DUP2 EQ PUSH2 0x647 JUMPI PUSH1 0x0 DUP1 REVERT JUMPDEST PUSH1 0x0 PUSH1 0x20 DUP3 DUP5 SUB SLT ISZERO PUSH2 0x2004 JUMPI DUP1 DUP2 REVERT JUMPDEST PUSH2 0x1CB8 DUP3 PUSH2 0x1FDC JUMP JUMPDEST PUSH1 0x0 DUP1 PUSH1 0x40 DUP4 DUP6 SUB SLT ISZERO PUSH2 0x201F JUMPI DUP1 DUP2 REVERT JUMPDEST PUSH2 0x2028 DUP4 PUSH2 0x1FDC JUMP JUMPDEST SWAP2 POP PUSH2 0x2036 PUSH1 0x20 DUP5 ADD PUSH2 0x1FDC JUMP JUMPDEST SWAP1 POP SWAP3 POP SWAP3 SWAP1 POP JUMP JUMPDEST PUSH1 0x0 DUP1 PUSH1 0x0 PUSH1 0x60 DUP5 DUP7 SUB SLT ISZERO PUSH2 0x2053 JUMPI DUP1 DUP2 REVERT JUMPDEST PUSH2 0x205C DUP5 PUSH2 0x1FDC JUMP JUMPDEST SWAP3 POP PUSH2 0x206A PUSH1 0x20 DUP6 ADD PUSH2 0x1FDC JUMP JUMPDEST SWAP2 POP PUSH1 0x40 DUP5 ADD CALLDATALOAD SWAP1 POP SWAP3 POP SWAP3 POP SWAP3 JUMP JUMPDEST PUSH1 0x0 DUP1 PUSH1 0x40 DUP4 DUP6 SUB SLT ISZERO PUSH2 0x208C JUMPI DUP2 DUP3 REVERT JUMPDEST PUSH2 0x2095 DUP4 PUSH2 0x1FDC JUMP JUMPDEST SWAP5 PUSH1 0x20 SWAP4 SWAP1 SWAP4 ADD CALLDATALOAD SWAP4 POP POP POP JUMP JUMPDEST PUSH1 0x0 PUSH1 0x20 DUP3 DUP5 SUB SLT ISZERO PUSH2 0x20B4 JUMPI DUP1 DUP2 REVERT JUMPDEST DUP2 MLOAD DUP1 ISZERO ISZERO DUP2 EQ PUSH2 0x1CB8 JUMPI DUP2 DUP3 REVERT JUMPDEST PUSH1 0x0 PUSH1 0x20 DUP3 DUP5 SUB SLT ISZERO PUSH2 0x20D4 JUMPI DUP1 DUP2 REVERT JUMPDEST POP CALLDATALOAD SWAP2 SWAP1 POP JUMP JUMPDEST PUSH1 0x0 DUP1 PUSH1 0x40 DUP4 DUP6 SUB SLT ISZERO PUSH2 0x20ED JUMPI DUP2 DUP3 REVERT JUMPDEST DUP3 CALLDATALOAD SWAP2 POP PUSH2 0x2036 PUSH1 0x20 DUP5 ADD PUSH2 0x1FDC JUMP JUMPDEST PUSH1 0x0 PUSH1 0x20 DUP3 DUP5 SUB SLT ISZERO PUSH2 0x210E JUMPI DUP1 DUP2 REVERT JUMPDEST DUP2 CALLDATALOAD PUSH1 0x1 PUSH1 0x1 PUSH1 0xE0 SHL SUB NOT DUP2 AND DUP2 EQ PUSH2 0x1CB8 JUMPI DUP2 DUP3 REVERT JUMPDEST PUSH1 0x0 PUSH1 0x20 DUP3 DUP5 SUB SLT ISZERO PUSH2 0x2136 JUMPI DUP1 DUP2 REVERT JUMPDEST POP MLOAD SWAP2 SWAP1 POP JUMP JUMPDEST PUSH1 0x0 DUP1 PUSH1 0x0 PUSH1 0x60 DUP5 DUP7 SUB SLT ISZERO PUSH2 0x2151 JUMPI DUP3 DUP4 REVERT JUMPDEST DUP4 CALLDATALOAD SWAP3 POP PUSH2 0x206A PUSH1 0x20 DUP6 ADD PUSH2 0x1FDC JUMP JUMPDEST PUSH1 0x0 DUP1 PUSH1 0x40 DUP4 DUP6 SUB SLT ISZERO PUSH2 0x2173 JUMPI DUP2 DUP3 REVERT JUMPDEST POP POP DUP1 CALLDATALOAD SWAP3 PUSH1 0x20 SWAP1 SWAP2 ADD CALLDATALOAD SWAP2 POP JUMP JUMPDEST PUSH1 0x0 DUP1 PUSH1 0x0 PUSH1 0x60 DUP5 DUP7 SUB SLT ISZERO PUSH2 0x2196 JUMPI DUP3 DUP4 REVERT JUMPDEST POP POP DUP2 CALLDATALOAD SWAP4 PUSH1 0x20 DUP4 ADD CALLDATALOAD SWAP4 POP PUSH1 0x40 SWAP1 SWAP3 ADD CALLDATALOAD SWAP2 SWAP1 POP JUMP JUMPDEST PUSH1 0x0 PUSH1 0x20 DUP3 DUP5 SUB SLT ISZERO PUSH2 0x21BE JUMPI DUP1 DUP2 REVERT JUMPDEST DUP2 MLOAD PUSH1 0xFF DUP2 AND DUP2 EQ PUSH2 0x1CB8 JUMPI DUP2 DUP3 REVERT JUMPDEST PUSH23 0x20B1B1B2B9B9A1B7B73A3937B61D1030B1B1B7BAB73A1 PUSH1 0x4D SHL DUP2 MSTORE PUSH1 0x0 DUP4 MLOAD PUSH2 0x2200 DUP2 PUSH1 0x17 DUP6 ADD PUSH1 0x20 DUP9 ADD PUSH2 0x239C JUMP JUMPDEST PUSH17 0x1034B99036B4B9B9B4B733903937B6329 PUSH1 0x7D SHL PUSH1 0x17 SWAP2 DUP5 ADD SWAP2 DUP3 ADD MSTORE DUP4 MLOAD PUSH2 0x2231 DUP2 PUSH1 0x28 DUP5 ADD PUSH1 0x20 DUP9 ADD PUSH2 0x239C JUMP JUMPDEST ADD PUSH1 0x28 ADD SWAP5 SWAP4 POP POP POP POP JUMP JUMPDEST PUSH1 0x1 PUSH1 0x1 PUSH1 0xA0 SHL SUB SWAP2 SWAP1 SWAP2 AND DUP2 MSTORE PUSH1 0x20 ADD SWAP1 JUMP JUMPDEST PUSH1 0x1 PUSH1 0x1 PUSH1 0xA0 SHL SUB SWAP4 DUP5 AND DUP2 MSTORE SWAP2 SWAP1 SWAP3 AND PUSH1 0x20 DUP3 ADD MSTORE PUSH1 0x40 DUP2 ADD SWAP2 SWAP1 SWAP2 MSTORE PUSH1 0x60 ADD SWAP1 JUMP JUMPDEST PUSH1 0x1 PUSH1 0x1 PUSH1 0xA0 SHL SUB SWAP3 SWAP1 SWAP3 AND DUP3 MSTORE PUSH1 0x20 DUP3 ADD MSTORE PUSH1 0x40 ADD SWAP1 JUMP JUMPDEST PUSH1 0x20 DUP2 MSTORE PUSH1 0x0 DUP3 MLOAD DUP1 PUSH1 0x20 DUP5 ADD MSTORE PUSH2 0x22AD DUP2 PUSH1 0x40 DUP6 ADD PUSH1 0x20 DUP8 ADD PUSH2 0x239C JUMP JUMPDEST PUSH1 0x1F ADD PUSH1 0x1F NOT AND SWAP2 SWAP1 SWAP2 ADD PUSH1 0x40 ADD SWAP3 SWAP2 POP POP JUMP JUMPDEST PUSH1 0x20 DUP1 DUP3 MSTORE PUSH1 0x26 SWAP1 DUP3 ADD MSTORE PUSH32 0x506F6F6C3A206C6F636B6564416D6F756E7420697320616C726561647920756E PUSH1 0x40 DUP3 ADD MSTORE PUSH6 0x1B1BD8DAD959 PUSH1 0xD2 SHL PUSH1 0x60 DUP3 ADD MSTORE PUSH1 0x80 ADD SWAP1 JUMP JUMPDEST PUSH1 0x20 DUP1 DUP3 MSTORE PUSH1 0x19 SWAP1 DUP3 ADD MSTORE PUSH25 0x141BDBDB0E88105B5BDD5B9D081A5CC81D1BDBC81CDB585B1B PUSH1 0x3A SHL PUSH1 0x40 DUP3 ADD MSTORE PUSH1 0x60 ADD SWAP1 JUMP JUMPDEST PUSH1 0x0 DUP3 NOT DUP3 GT ISZERO PUSH2 0x234D JUMPI PUSH2 0x234D PUSH2 0x242E JUMP JUMPDEST POP ADD SWAP1 JUMP JUMPDEST PUSH1 0x0 DUP3 PUSH2 0x2361 JUMPI PUSH2 0x2361 PUSH2 0x2444 JUMP JUMPDEST POP DIV SWAP1 JUMP JUMPDEST PUSH1 0x0 DUP2 PUSH1 0x0 NOT DIV DUP4 GT DUP3 ISZERO ISZERO AND ISZERO PUSH2 0x2380 JUMPI PUSH2 0x2380 PUSH2 0x242E JUMP JUMPDEST POP MUL SWAP1 JUMP JUMPDEST PUSH1 0x0 DUP3 DUP3 LT ISZERO PUSH2 0x2397 JUMPI PUSH2 0x2397 PUSH2 0x242E JUMP JUMPDEST POP SUB SWAP1 JUMP JUMPDEST PUSH1 0x0 JUMPDEST DUP4 DUP2 LT ISZERO PUSH2 0x23B7 JUMPI DUP2 DUP2 ADD MLOAD DUP4 DUP3 ADD MSTORE PUSH1 0x20 ADD PUSH2 0x239F JUMP JUMPDEST DUP4 DUP2 GT ISZERO PUSH2 0x897 JUMPI POP POP PUSH1 0x0 SWAP2 ADD MSTORE JUMP JUMPDEST PUSH1 0x0 DUP2 PUSH2 0x23D7 JUMPI PUSH2 0x23D7 PUSH2 0x242E JUMP JUMPDEST POP PUSH1 0x0 NOT ADD SWAP1 JUMP JUMPDEST PUSH1 0x1 DUP2 DUP2 SHR SWAP1 DUP3 AND DUP1 PUSH2 0x23F3 JUMPI PUSH1 0x7F DUP3 AND SWAP2 POP JUMPDEST PUSH1 0x20 DUP3 LT DUP2 EQ ISZERO PUSH2 0x2414 JUMPI PUSH4 0x4E487B71 PUSH1 0xE0 SHL PUSH1 0x0 MSTORE PUSH1 0x22 PUSH1 0x4 MSTORE PUSH1 0x24 PUSH1 0x0 REVERT JUMPDEST POP SWAP2 SWAP1 POP JUMP JUMPDEST PUSH1 0x0 DUP3 PUSH2 0x2429 JUMPI PUSH2 0x2429 PUSH2 0x2444 JUMP JUMPDEST POP MOD SWAP1 JUMP JUMPDEST PUSH4 0x4E487B71 PUSH1 0xE0 SHL PUSH1 0x0 MSTORE PUSH1 0x11 PUSH1 0x4 MSTORE PUSH1 0x24 PUSH1 0x0 REVERT JUMPDEST PUSH4 0x4E487B71 PUSH1 0xE0 SHL PUSH1 0x0 MSTORE PUSH1 0x12 PUSH1 0x4 MSTORE PUSH1 0x24 PUSH1 0x0 REVERT INVALID SWAP16 PUSH25 0xBAA7A8E3640EFADCBEDC2D00F5930ADE7A7BB66038DBF88684 0xD4 SWAP10 PUSH19 0x957A770FADB28E0E3026382976EE8B810CB0EB DUP7 PUSH7 0x922148DD9E10B2 0xC 0xFB SWAP12 SELFBALANCE PUSH28 0xA802B0C433C31E2B44FBBB341CA2A1A7C86F98B5158B42B073F63EFE MUL 0xD3 0x5E 0xA8 SWAP16 0xDD CALLCODE MSTORE 0xAD SHL 0xE2 0xC8 SWAP12 PUSH10 0xC2B068FC378DAA952BA7 CALL PUSH4 0xC4A11628 CREATE2 GAS 0x4D CREATE2 0x23 0xB3 0xEF LOG2 PUSH5 0x6970667358 0x22 SLT KECCAK256 PUSH11 0xF79CA88D1E2B6F561B2FB4 0xEC KECCAK256 POP 0xEB PUSH31 0x5656D148A837A2BEE800231B5260CE64736F6C634300080400330000000000 ",
  "sha1": "7fa95c3440d91762a54ca7f444a6728631be4da1",
  "source": "pragma solidity ^0.8.0;\n\n// SPDX-License-Identifier: BUSL-1.1\n\nimport \"./InterfacesBinary.sol\";\nimport \"@openzeppelin/contracts/access/AccessControl.sol\";\nimport \"@openzeppelin/contracts/token/ERC20/ERC20.sol\";\n\n/**\n * @author Heisenberg\n * @title Buffer TokenX Liquidity Pool\n * @notice Accumulates liquidity in TokenX from LPs and distributes P&L in TokenX\n */\ncontract BufferBinaryIBFRPoolBinary is\n    ERC20(\"Buffer LP Token\", \"rBFR\"),\n    AccessControl,\n    ILiquidityPool\n{\n    string private _name;\n    string private _symbol;\n    uint256 public constant ACCURACY = 1e3;\n    uint256 public constant INITIAL_RATE = 1e3;\n    uint256 public lockedAmount;\n    uint256 public lockedPremium;\n    uint256 public maxLiquidity;\n    address public projectOwner;\n    address public owner;\n    mapping(address => LockedLiquidity[]) public lockedLiquidity;\n\n    bytes32 public constant OPTION_ISSUER_ROLE =\n        keccak256(\"OPTION_ISSUER_ROLE\");\n\n    bytes32 public constant PROJECT_OWNER_ROLE =\n        keccak256(\"PROJECT_OWNER_ROLE\");\n\n    ERC20 public tokenX;\n\n    constructor(ERC20 _tokenX) {\n        _name = string(\n            bytes.concat(\n                \"Buffer Generic \",\n                bytes(_tokenX.symbol()),\n                \" LP Token\"\n            )\n        );\n        _symbol = string(bytes.concat(\"r\", bytes(_tokenX.symbol())));\n        tokenX = _tokenX;\n        owner = msg.sender;\n        maxLiquidity = 5000000 * 10**_tokenX.decimals();\n        _setupRole(DEFAULT_ADMIN_ROLE, msg.sender);\n    }\n\n    /**\n     * @dev Returns the name of the token.\n     */\n    function name() public view virtual override returns (string memory) {\n        return _name;\n    }\n\n    /**\n     * @dev Returns the symbol of the token, usually a shorter version of the\n     * name.\n     */\n    function symbol() public view virtual override returns (string memory) {\n        return _symbol;\n    }\n\n    /**\n     * @dev Returns the decimals of the token.\n     */\n    function decimals() public view virtual override returns (uint8) {\n        return tokenX.decimals();\n    }\n\n    /**\n     * @notice Used for setting owner\n     * @param account owner account\n     */\n    function setProjectOwner(address account)\n        external\n        onlyRole(DEFAULT_ADMIN_ROLE)\n    {\n        grantRole(PROJECT_OWNER_ROLE, account);\n        projectOwner = account;\n        emit UpdateProjectOwner(account);\n    }\n\n    /**\n     * @notice Used for adjusting the max limit of the pool\n     * @param _maxLiquidity New limit\n     */\n    function setMaxLiquidity(uint256 _maxLiquidity)\n        external\n        onlyRole(PROJECT_OWNER_ROLE)\n    {\n        maxLiquidity = _maxLiquidity;\n        emit UpdateMaxLiquidity(_maxLiquidity);\n    }\n\n    /**\n     * @notice A provider supplies tokenX to the pool and receives rBFR-X tokens\n     * @param minMint Minimum amount of tokens that should be received by a provider.\n                      Calling the provide function will require the minimum amount of tokens to be minted.\n                      The actual amount that will be minted could vary but can only be higher (not lower) than the minimum value.\n     * @return mint Amount of tokens to be received\n     */\n    function provide(uint256 tokenXAmount, uint256 minMint)\n        external\n        returns (uint256 mint)\n    {\n        uint256 supply = totalSupply();\n        uint256 balance = totalTokenXBalance();\n\n        require(\n            balance + tokenXAmount <= maxLiquidity,\n            \"Pool has already reached it's max limit\"\n        );\n\n        if (supply > 0 && balance > 0)\n            mint = (tokenXAmount * supply) / (balance);\n        else mint = tokenXAmount * INITIAL_RATE;\n\n        require(mint >= minMint, \"Pool: Mint limit is too large\");\n        require(mint > 0, \"Pool: Amount is too small\");\n\n        bool success = tokenX.transferFrom(\n            msg.sender,\n            address(this),\n            tokenXAmount\n        );\n        require(success, \"The Provide transfer didn't go through\");\n\n        _mint(msg.sender, mint);\n\n        emit Provide(msg.sender, tokenXAmount, mint);\n    }\n\n    /**\n     * @notice Provider burns rBFR-X and receives X from the pool\n     * @param tokenXAmount Amount of X to receive\n     * @param account User address for which the withdrawal has to be initiated\n     * @return burn Amount of tokens to be burnt\n     */\n    function _withdraw(uint256 tokenXAmount, address account)\n        internal\n        returns (uint256 burn)\n    {\n        require(\n            tokenXAmount <= availableBalance(),\n            \"Pool: Not enough funds on the pool contract. Please lower the amount.\"\n        );\n        uint256 totalSupply = totalSupply();\n        uint256 balance = totalTokenXBalance();\n\n        uint256 maxUserTokenXWithdrawal = (balanceOf(account) * balance) /\n            totalSupply;\n\n        uint256 tokenXAmountToWithdraw = maxUserTokenXWithdrawal < tokenXAmount\n            ? maxUserTokenXWithdrawal\n            : tokenXAmount;\n\n        burn = divCeil((tokenXAmountToWithdraw * totalSupply), balance);\n\n        require(burn <= balanceOf(account), \"Pool: Amount is too large\");\n        require(burn > 0, \"Pool: Amount is too small\");\n\n        _burn(account, burn);\n\n        bool success = tokenX.transfer(account, tokenXAmountToWithdraw);\n        require(success, \"Pool: The Withdrawal didn't go through\");\n        emit Withdraw(account, tokenXAmountToWithdraw, burn);\n    }\n\n    /**\n     * @notice withdraw burns rBFR-X and receives X from the pool\n     * @param tokenXAmount Amount Amount of X to receive\n     */\n    function withdraw(uint256 tokenXAmount) external {\n        _withdraw(tokenXAmount, msg.sender);\n    }\n\n    /**\n     * @notice allows admin to send back the funds of the depositer\n     * @param user  User address for which the withdrawal has to be made\n     * @param tokenXAmount  Amount of X to receive\n     */\n    function adminWithdraw(address user, uint256 tokenXAmount)\n        external\n        onlyRole(PROJECT_OWNER_ROLE)\n    {\n        _withdraw(tokenXAmount, user);\n    }\n\n    /**\n     * @notice Called by BufferCallOptions to lock the funds\n     * @param tokenXAmount Amount of funds that should be locked in an option\n     */\n    function lock(\n        uint256 id,\n        uint256 tokenXAmount,\n        uint256 premium\n    ) external override onlyRole(OPTION_ISSUER_ROLE) {\n        require(id == lockedLiquidity[msg.sender].length, \"Wrong id\");\n\n        require(\n            (lockedAmount + tokenXAmount) <= totalTokenXBalance(),\n            \"Pool: Amount is too large.\"\n        );\n\n        bool success = tokenX.transferFrom(msg.sender, address(this), premium);\n        require(success, \"The Premium transfer didn't go through\");\n\n        lockedLiquidity[msg.sender].push(\n            LockedLiquidity(tokenXAmount, premium, true)\n        );\n        lockedPremium = lockedPremium + premium;\n        lockedAmount = lockedAmount + tokenXAmount;\n    }\n\n    /**\n     * @notice Called by BufferCallOptions to change the locked funds\n     * @param tokenXAmount Amount of funds that should be locked in an option\n     */\n    function changeLock(\n        uint256 id,\n        uint256 tokenXAmount,\n        uint256 premium\n    ) public override onlyRole(OPTION_ISSUER_ROLE) {\n        LockedLiquidity storage ll = lockedLiquidity[msg.sender][id];\n        require(ll.locked, \"lockedAmount is already unlocked\");\n        if (ll.premium > premium) {\n            tokenX.transfer(msg.sender, ll.premium - premium);\n        }\n        lockedPremium = lockedPremium - ll.premium + premium;\n        lockedAmount = lockedAmount - ll.amount + tokenXAmount;\n        ll.premium = premium;\n        ll.amount = tokenXAmount;\n    }\n\n    /**\n     * @notice Called by BufferOptions to unlock the funds\n     * @param id Id of LockedLiquidity that should be unlocked\n     */\n    function _unlock(uint256 id)\n        internal\n        onlyRole(OPTION_ISSUER_ROLE)\n        returns (uint256 premium)\n    {\n        LockedLiquidity storage ll = lockedLiquidity[msg.sender][id];\n        require(ll.locked, \"Pool: lockedAmount is already unlocked\");\n        ll.locked = false;\n\n        lockedPremium = lockedPremium - ll.premium;\n        lockedAmount = lockedAmount - ll.amount;\n        premium = ll.premium;\n    }\n\n    /**\n     * @notice Called by BufferOptions to unlock the funds\n     * @param id Id of LockedLiquidity that should be unlocked\n     */\n    function unlock(uint256 id) external override {\n        uint256 premium = _unlock(id);\n\n        emit Profit(id, premium);\n    }\n\n    /**\n     * @notice Called by BufferOptions to unlock the funds\n     * @param id Id of LockedLiquidity that should be unlocked\n     */\n    function unlockWithoutProfit(uint256 id) external override {\n        _unlock(id);\n    }\n\n    /**\n     * @notice Called by BufferCallOptions to send funds to liquidity providers after an option's expiration\n     * @param to Provider\n     * @param tokenXAmount Funds that should be sent\n     */\n    function send(\n        uint256 id,\n        address to,\n        uint256 tokenXAmount\n    ) external override onlyRole(OPTION_ISSUER_ROLE) {\n        LockedLiquidity storage ll = lockedLiquidity[msg.sender][id];\n        require(ll.locked, \"Pool: lockedAmount is already unlocked\");\n        require(to != address(0));\n\n        ll.locked = false;\n        lockedPremium = lockedPremium - ll.premium;\n        lockedAmount = lockedAmount - ll.amount;\n\n        uint256 transferTokenXAmount = tokenXAmount > ll.amount\n            ? ll.amount\n            : tokenXAmount;\n\n        bool success = tokenX.transfer(to, transferTokenXAmount);\n        require(success, \"Pool: The Payout transfer didn't go through\");\n\n        if (transferTokenXAmount <= ll.premium)\n            emit Profit(id, ll.premium - transferTokenXAmount);\n        else emit Loss(id, transferTokenXAmount - ll.premium);\n    }\n\n    /**\n     * @notice Returns provider's share in X\n     * @param account Provider's address\n     * @return share Provider's share in X\n     */\n    function shareOf(address account) external view returns (uint256 share) {\n        if (totalSupply() > 0)\n            share = (totalTokenXBalance() * balanceOf(account)) / totalSupply();\n        else share = 0;\n    }\n\n    /**\n     * @notice Returns the amount of X available for withdrawals\n     * @return balance Unlocked amount\n     */\n    function availableBalance() public view returns (uint256 balance) {\n        return totalTokenXBalance() - lockedAmount;\n    }\n\n    /**\n     * @notice Returns the total balance of X provided to the pool\n     * @return balance Pool balance\n     */\n    function totalTokenXBalance()\n        public\n        view\n        override\n        returns (uint256 balance)\n    {\n        return tokenX.balanceOf(address(this)) - lockedPremium;\n    }\n\n    function divCeil(uint256 a, uint256 b) internal pure returns (uint256) {\n        require(b > 0);\n        uint256 c = a / b;\n        if (a % b != 0) c = c + 1;\n        return c;\n    }\n}\n",
  "sourcePath": "contracts/Binary ATM Options/BufferBinaryIBFRPoolBinary.sol",
  "type": "contract"
}