{
  "abi": [
    {
      "inputs": [
        {
          "internalType": "contract ERC20",
          "name": "_tokenX",
          "type": "address"
        },
        {
          "internalType": "contract IPriceProvider",
          "name": "pp",
          "type": "address"
        },
        {
          "internalType": "contract BufferIBFRPoolV2",
          "name": "_pool",
          "type": "address"
        },
        {
          "internalType": "contract OptionConfig",
          "name": "_config",
          "type": "address"
        },
        {
          "internalType": "contract ERC20",
          "name": "_USDC",
          "type": "address"
        }
      ],
      "stateMutability": "nonpayable",
      "type": "constructor"
    },
    {
      "anonymous": false,
      "inputs": [
        {
          "indexed": true,
          "internalType": "address",
          "name": "owner",
          "type": "address"
        },
        {
          "indexed": true,
          "internalType": "address",
          "name": "approved",
          "type": "address"
        },
        {
          "indexed": true,
          "internalType": "uint256",
          "name": "tokenId",
          "type": "uint256"
        }
      ],
      "name": "Approval",
      "type": "event"
    },
    {
      "anonymous": false,
      "inputs": [
        {
          "indexed": true,
          "internalType": "address",
          "name": "owner",
          "type": "address"
        },
        {
          "indexed": true,
          "internalType": "address",
          "name": "operator",
          "type": "address"
        },
        {
          "indexed": false,
          "internalType": "bool",
          "name": "approved",
          "type": "bool"
        }
      ],
      "name": "ApprovalForAll",
      "type": "event"
    },
    {
      "anonymous": false,
      "inputs": [
        {
          "indexed": true,
          "internalType": "address",
          "name": "approval",
          "type": "address"
        },
        {
          "indexed": true,
          "internalType": "uint256",
          "name": "tokenId",
          "type": "uint256"
        },
        {
          "indexed": false,
          "internalType": "uint256",
          "name": "allowance",
          "type": "uint256"
        }
      ],
      "name": "ApprovalUnits",
      "type": "event"
    },
    {
      "anonymous": false,
      "inputs": [
        {
          "indexed": true,
          "internalType": "address",
          "name": "account",
          "type": "address"
        },
        {
          "indexed": false,
          "internalType": "bool",
          "name": "status",
          "type": "bool"
        }
      ],
      "name": "AutoExerciseStatusChange",
      "type": "event"
    },
    {
      "anonymous": false,
      "inputs": [
        {
          "indexed": true,
          "internalType": "uint256",
          "name": "id",
          "type": "uint256"
        },
        {
          "indexed": true,
          "internalType": "address",
          "name": "account",
          "type": "address"
        },
        {
          "indexed": false,
          "internalType": "uint256",
          "name": "settlementFee",
          "type": "uint256"
        },
        {
          "indexed": false,
          "internalType": "uint256",
          "name": "totalFee",
          "type": "uint256"
        },
        {
          "indexed": false,
          "internalType": "string",
          "name": "metadata",
          "type": "string"
        }
      ],
      "name": "Create",
      "type": "event"
    },
    {
      "anonymous": false,
      "inputs": [
        {
          "indexed": true,
          "internalType": "uint256",
          "name": "id",
          "type": "uint256"
        },
        {
          "indexed": false,
          "internalType": "uint256",
          "name": "profit",
          "type": "uint256"
        }
      ],
      "name": "Exercise",
      "type": "event"
    },
    {
      "anonymous": false,
      "inputs": [
        {
          "indexed": true,
          "internalType": "uint256",
          "name": "id",
          "type": "uint256"
        },
        {
          "indexed": false,
          "internalType": "uint256",
          "name": "premium",
          "type": "uint256"
        }
      ],
      "name": "Expire",
      "type": "event"
    },
    {
      "anonymous": false,
      "inputs": [
        {
          "indexed": true,
          "internalType": "address",
          "name": "owner",
          "type": "address"
        },
        {
          "indexed": true,
          "internalType": "uint256",
          "name": "tokenId",
          "type": "uint256"
        },
        {
          "indexed": true,
          "internalType": "uint256",
          "name": "targetTokenId",
          "type": "uint256"
        },
        {
          "indexed": false,
          "internalType": "uint256",
          "name": "mergeUnits",
          "type": "uint256"
        }
      ],
      "name": "Merge",
      "type": "event"
    },
    {
      "anonymous": false,
      "inputs": [
        {
          "indexed": true,
          "internalType": "address",
          "name": "previousOwner",
          "type": "address"
        },
        {
          "indexed": true,
          "internalType": "address",
          "name": "newOwner",
          "type": "address"
        }
      ],
      "name": "OwnershipTransferred",
      "type": "event"
    },
    {
      "anonymous": false,
      "inputs": [
        {
          "indexed": true,
          "internalType": "address",
          "name": "owner",
          "type": "address"
        },
        {
          "indexed": false,
          "internalType": "uint256",
          "name": "amount",
          "type": "uint256"
        }
      ],
      "name": "PayAdminFee",
      "type": "event"
    },
    {
      "anonymous": false,
      "inputs": [
        {
          "indexed": true,
          "internalType": "address",
          "name": "referrer",
          "type": "address"
        },
        {
          "indexed": false,
          "internalType": "uint256",
          "name": "amount",
          "type": "uint256"
        }
      ],
      "name": "PayReferralFee",
      "type": "event"
    },
    {
      "anonymous": false,
      "inputs": [
        {
          "indexed": true,
          "internalType": "bytes32",
          "name": "role",
          "type": "bytes32"
        },
        {
          "indexed": true,
          "internalType": "bytes32",
          "name": "previousAdminRole",
          "type": "bytes32"
        },
        {
          "indexed": true,
          "internalType": "bytes32",
          "name": "newAdminRole",
          "type": "bytes32"
        }
      ],
      "name": "RoleAdminChanged",
      "type": "event"
    },
    {
      "anonymous": false,
      "inputs": [
        {
          "indexed": true,
          "internalType": "bytes32",
          "name": "role",
          "type": "bytes32"
        },
        {
          "indexed": true,
          "internalType": "address",
          "name": "account",
          "type": "address"
        },
        {
          "indexed": true,
          "internalType": "address",
          "name": "sender",
          "type": "address"
        }
      ],
      "name": "RoleGranted",
      "type": "event"
    },
    {
      "anonymous": false,
      "inputs": [
        {
          "indexed": true,
          "internalType": "bytes32",
          "name": "role",
          "type": "bytes32"
        },
        {
          "indexed": true,
          "internalType": "address",
          "name": "account",
          "type": "address"
        },
        {
          "indexed": true,
          "internalType": "address",
          "name": "sender",
          "type": "address"
        }
      ],
      "name": "RoleRevoked",
      "type": "event"
    },
    {
      "anonymous": false,
      "inputs": [
        {
          "indexed": true,
          "internalType": "address",
          "name": "owner",
          "type": "address"
        },
        {
          "indexed": true,
          "internalType": "uint256",
          "name": "tokenId",
          "type": "uint256"
        },
        {
          "indexed": false,
          "internalType": "uint256",
          "name": "newTokenId",
          "type": "uint256"
        },
        {
          "indexed": false,
          "internalType": "uint256",
          "name": "splitUnits",
          "type": "uint256"
        }
      ],
      "name": "Split",
      "type": "event"
    },
    {
      "anonymous": false,
      "inputs": [
        {
          "indexed": true,
          "internalType": "address",
          "name": "from",
          "type": "address"
        },
        {
          "indexed": true,
          "internalType": "address",
          "name": "to",
          "type": "address"
        },
        {
          "indexed": true,
          "internalType": "uint256",
          "name": "tokenId",
          "type": "uint256"
        }
      ],
      "name": "Transfer",
      "type": "event"
    },
    {
      "anonymous": false,
      "inputs": [
        {
          "indexed": true,
          "internalType": "address",
          "name": "from",
          "type": "address"
        },
        {
          "indexed": true,
          "internalType": "address",
          "name": "to",
          "type": "address"
        },
        {
          "indexed": true,
          "internalType": "uint256",
          "name": "tokenId",
          "type": "uint256"
        },
        {
          "indexed": false,
          "internalType": "uint256",
          "name": "targetTokenId",
          "type": "uint256"
        },
        {
          "indexed": false,
          "internalType": "uint256",
          "name": "transferUnits",
          "type": "uint256"
        }
      ],
      "name": "TransferUnits",
      "type": "event"
    },
    {
      "anonymous": false,
      "inputs": [
        {
          "indexed": false,
          "internalType": "uint256",
          "name": "startHour",
          "type": "uint256"
        },
        {
          "indexed": false,
          "internalType": "uint256",
          "name": "startMinute",
          "type": "uint256"
        },
        {
          "indexed": false,
          "internalType": "uint256",
          "name": "endHour",
          "type": "uint256"
        },
        {
          "indexed": false,
          "internalType": "uint256",
          "name": "endMinute",
          "type": "uint256"
        }
      ],
      "name": "UpdateOptionCreationWindow",
      "type": "event"
    },
    {
      "inputs": [],
      "name": "AUTO_CLOSER_ROLE",
      "outputs": [
        {
          "internalType": "bytes32",
          "name": "",
          "type": "bytes32"
        }
      ],
      "stateMutability": "view",
      "type": "function"
    },
    {
      "inputs": [],
      "name": "DEFAULT_ADMIN_ROLE",
      "outputs": [
        {
          "internalType": "bytes32",
          "name": "",
          "type": "bytes32"
        }
      ],
      "stateMutability": "view",
      "type": "function"
    },
    {
      "inputs": [],
      "name": "USDC",
      "outputs": [
        {
          "internalType": "contract ERC20",
          "name": "",
          "type": "address"
        }
      ],
      "stateMutability": "view",
      "type": "function"
    },
    {
      "inputs": [
        {
          "internalType": "uint256",
          "name": "",
          "type": "uint256"
        }
      ],
      "name": "_units",
      "outputs": [
        {
          "internalType": "uint256",
          "name": "",
          "type": "uint256"
        }
      ],
      "stateMutability": "view",
      "type": "function"
    },
    {
      "inputs": [
        {
          "internalType": "uint256",
          "name": "optionId_",
          "type": "uint256"
        },
        {
          "internalType": "address",
          "name": "spender_",
          "type": "address"
        }
      ],
      "name": "allowance",
      "outputs": [
        {
          "internalType": "uint256",
          "name": "",
          "type": "uint256"
        }
      ],
      "stateMutability": "view",
      "type": "function"
    },
    {
      "inputs": [
        {
          "internalType": "address",
          "name": "to",
          "type": "address"
        },
        {
          "internalType": "uint256",
          "name": "tokenId",
          "type": "uint256"
        }
      ],
      "name": "approve",
      "outputs": [],
      "stateMutability": "nonpayable",
      "type": "function"
    },
    {
      "inputs": [
        {
          "internalType": "address",
          "name": "to_",
          "type": "address"
        },
        {
          "internalType": "uint256",
          "name": "optionId_",
          "type": "uint256"
        },
        {
          "internalType": "uint256",
          "name": "allowance_",
          "type": "uint256"
        }
      ],
      "name": "approve",
      "outputs": [],
      "stateMutability": "nonpayable",
      "type": "function"
    },
    {
      "inputs": [],
      "name": "approvePoolToTransferTokenX",
      "outputs": [],
      "stateMutability": "nonpayable",
      "type": "function"
    },
    {
      "inputs": [
        {
          "internalType": "address",
          "name": "owner",
          "type": "address"
        }
      ],
      "name": "balanceOf",
      "outputs": [
        {
          "internalType": "uint256",
          "name": "",
          "type": "uint256"
        }
      ],
      "stateMutability": "view",
      "type": "function"
    },
    {
      "inputs": [
        {
          "internalType": "uint256",
          "name": "tokenId_",
          "type": "uint256"
        }
      ],
      "name": "burn",
      "outputs": [],
      "stateMutability": "nonpayable",
      "type": "function"
    },
    {
      "inputs": [],
      "name": "config",
      "outputs": [
        {
          "internalType": "contract OptionConfig",
          "name": "",
          "type": "address"
        }
      ],
      "stateMutability": "view",
      "type": "function"
    },
    {
      "inputs": [
        {
          "internalType": "uint256",
          "name": "amount",
          "type": "uint256"
        },
        {
          "internalType": "address",
          "name": "referrer",
          "type": "address"
        },
        {
          "internalType": "string",
          "name": "metadata",
          "type": "string"
        },
        {
          "internalType": "enum IBufferOptions.PaymentMethod",
          "name": "_paymentMethod",
          "type": "uint8"
        }
      ],
      "name": "create",
      "outputs": [
        {
          "internalType": "uint256",
          "name": "optionID",
          "type": "uint256"
        }
      ],
      "stateMutability": "nonpayable",
      "type": "function"
    },
    {
      "inputs": [
        {
          "internalType": "uint256",
          "name": "optionID",
          "type": "uint256"
        }
      ],
      "name": "exercise",
      "outputs": [
        {
          "internalType": "uint256",
          "name": "profit",
          "type": "uint256"
        }
      ],
      "stateMutability": "nonpayable",
      "type": "function"
    },
    {
      "inputs": [
        {
          "internalType": "uint256",
          "name": "optionID",
          "type": "uint256"
        }
      ],
      "name": "exists",
      "outputs": [
        {
          "internalType": "bool",
          "name": "",
          "type": "bool"
        }
      ],
      "stateMutability": "view",
      "type": "function"
    },
    {
      "inputs": [
        {
          "internalType": "uint256",
          "name": "",
          "type": "uint256"
        }
      ],
      "name": "expiryToRoundID",
      "outputs": [
        {
          "internalType": "uint256",
          "name": "",
          "type": "uint256"
        }
      ],
      "stateMutability": "view",
      "type": "function"
    },
    {
      "inputs": [
        {
          "internalType": "uint256",
          "name": "period",
          "type": "uint256"
        },
        {
          "internalType": "uint256",
          "name": "amount",
          "type": "uint256"
        },
        {
          "internalType": "uint256",
          "name": "strike",
          "type": "uint256"
        },
        {
          "internalType": "enum IBufferOptions.OptionType",
          "name": "optionType",
          "type": "uint8"
        }
      ],
      "name": "fees",
      "outputs": [
        {
          "internalType": "uint256",
          "name": "total",
          "type": "uint256"
        },
        {
          "internalType": "uint256",
          "name": "settlementFee",
          "type": "uint256"
        },
        {
          "internalType": "uint256",
          "name": "premium",
          "type": "uint256"
        }
      ],
      "stateMutability": "view",
      "type": "function"
    },
    {
      "inputs": [],
      "name": "fixedOptionType",
      "outputs": [
        {
          "internalType": "enum IBufferOptions.OptionType",
          "name": "",
          "type": "uint8"
        }
      ],
      "stateMutability": "view",
      "type": "function"
    },
    {
      "inputs": [
        {
          "internalType": "uint256",
          "name": "tokenId",
          "type": "uint256"
        }
      ],
      "name": "getApproved",
      "outputs": [
        {
          "internalType": "address",
          "name": "",
          "type": "address"
        }
      ],
      "stateMutability": "view",
      "type": "function"
    },
    {
      "inputs": [
        {
          "internalType": "bytes32",
          "name": "role",
          "type": "bytes32"
        }
      ],
      "name": "getRoleAdmin",
      "outputs": [
        {
          "internalType": "bytes32",
          "name": "",
          "type": "bytes32"
        }
      ],
      "stateMutability": "view",
      "type": "function"
    },
    {
      "inputs": [
        {
          "internalType": "bytes32",
          "name": "role",
          "type": "bytes32"
        },
        {
          "internalType": "address",
          "name": "account",
          "type": "address"
        }
      ],
      "name": "grantRole",
      "outputs": [],
      "stateMutability": "nonpayable",
      "type": "function"
    },
    {
      "inputs": [
        {
          "internalType": "bytes32",
          "name": "role",
          "type": "bytes32"
        },
        {
          "internalType": "address",
          "name": "account",
          "type": "address"
        }
      ],
      "name": "hasRole",
      "outputs": [
        {
          "internalType": "bool",
          "name": "",
          "type": "bool"
        }
      ],
      "stateMutability": "view",
      "type": "function"
    },
    {
      "inputs": [
        {
          "internalType": "address",
          "name": "owner",
          "type": "address"
        },
        {
          "internalType": "address",
          "name": "operator",
          "type": "address"
        }
      ],
      "name": "isApprovedForAll",
      "outputs": [
        {
          "internalType": "bool",
          "name": "",
          "type": "bool"
        }
      ],
      "stateMutability": "view",
      "type": "function"
    },
    {
      "inputs": [],
      "name": "maxUnits",
      "outputs": [
        {
          "internalType": "uint256",
          "name": "",
          "type": "uint256"
        }
      ],
      "stateMutability": "view",
      "type": "function"
    },
    {
      "inputs": [
        {
          "internalType": "uint256[]",
          "name": "optionIDs",
          "type": "uint256[]"
        },
        {
          "internalType": "uint256",
          "name": "targetOptionID",
          "type": "uint256"
        }
      ],
      "name": "merge",
      "outputs": [],
      "stateMutability": "nonpayable",
      "type": "function"
    },
    {
      "inputs": [],
      "name": "minimumYield",
      "outputs": [
        {
          "internalType": "uint256",
          "name": "",
          "type": "uint256"
        }
      ],
      "stateMutability": "view",
      "type": "function"
    },
    {
      "inputs": [],
      "name": "name",
      "outputs": [
        {
          "internalType": "string",
          "name": "",
          "type": "string"
        }
      ],
      "stateMutability": "view",
      "type": "function"
    },
    {
      "inputs": [],
      "name": "nextTokenId",
      "outputs": [
        {
          "internalType": "uint256",
          "name": "",
          "type": "uint256"
        }
      ],
      "stateMutability": "view",
      "type": "function"
    },
    {
      "inputs": [
        {
          "internalType": "uint256",
          "name": "",
          "type": "uint256"
        }
      ],
      "name": "optionSlotMapping",
      "outputs": [
        {
          "internalType": "uint256",
          "name": "",
          "type": "uint256"
        }
      ],
      "stateMutability": "view",
      "type": "function"
    },
    {
      "inputs": [
        {
          "internalType": "uint256",
          "name": "",
          "type": "uint256"
        }
      ],
      "name": "options",
      "outputs": [
        {
          "internalType": "enum IBufferOptions.State",
          "name": "state",
          "type": "uint8"
        },
        {
          "internalType": "uint256",
          "name": "strike",
          "type": "uint256"
        },
        {
          "internalType": "uint256",
          "name": "amount",
          "type": "uint256"
        },
        {
          "internalType": "uint256",
          "name": "lockedAmount",
          "type": "uint256"
        },
        {
          "internalType": "uint256",
          "name": "premium",
          "type": "uint256"
        },
        {
          "internalType": "uint256",
          "name": "expiration",
          "type": "uint256"
        },
        {
          "internalType": "enum IBufferOptions.OptionType",
          "name": "optionType",
          "type": "uint8"
        }
      ],
      "stateMutability": "view",
      "type": "function"
    },
    {
      "inputs": [],
      "name": "owner",
      "outputs": [
        {
          "internalType": "address",
          "name": "",
          "type": "address"
        }
      ],
      "stateMutability": "view",
      "type": "function"
    },
    {
      "inputs": [
        {
          "internalType": "uint256",
          "name": "tokenId",
          "type": "uint256"
        }
      ],
      "name": "ownerOf",
      "outputs": [
        {
          "internalType": "address",
          "name": "",
          "type": "address"
        }
      ],
      "stateMutability": "view",
      "type": "function"
    },
    {
      "inputs": [],
      "name": "pool",
      "outputs": [
        {
          "internalType": "contract BufferIBFRPoolV2",
          "name": "",
          "type": "address"
        }
      ],
      "stateMutability": "view",
      "type": "function"
    },
    {
      "inputs": [],
      "name": "priceProvider",
      "outputs": [
        {
          "internalType": "contract IPriceProvider",
          "name": "",
          "type": "address"
        }
      ],
      "stateMutability": "view",
      "type": "function"
    },
    {
      "inputs": [],
      "name": "renounceOwnership",
      "outputs": [],
      "stateMutability": "nonpayable",
      "type": "function"
    },
    {
      "inputs": [
        {
          "internalType": "bytes32",
          "name": "role",
          "type": "bytes32"
        },
        {
          "internalType": "address",
          "name": "account",
          "type": "address"
        }
      ],
      "name": "renounceRole",
      "outputs": [],
      "stateMutability": "nonpayable",
      "type": "function"
    },
    {
      "inputs": [
        {
          "internalType": "bytes32",
          "name": "role",
          "type": "bytes32"
        },
        {
          "internalType": "address",
          "name": "account",
          "type": "address"
        }
      ],
      "name": "revokeRole",
      "outputs": [],
      "stateMutability": "nonpayable",
      "type": "function"
    },
    {
      "inputs": [
        {
          "internalType": "address",
          "name": "from",
          "type": "address"
        },
        {
          "internalType": "address",
          "name": "to",
          "type": "address"
        },
        {
          "internalType": "uint256",
          "name": "tokenId",
          "type": "uint256"
        }
      ],
      "name": "safeTransferFrom",
      "outputs": [],
      "stateMutability": "nonpayable",
      "type": "function"
    },
    {
      "inputs": [
        {
          "internalType": "address",
          "name": "from",
          "type": "address"
        },
        {
          "internalType": "address",
          "name": "to",
          "type": "address"
        },
        {
          "internalType": "uint256",
          "name": "tokenId",
          "type": "uint256"
        },
        {
          "internalType": "bytes",
          "name": "_data",
          "type": "bytes"
        }
      ],
      "name": "safeTransferFrom",
      "outputs": [],
      "stateMutability": "nonpayable",
      "type": "function"
    },
    {
      "inputs": [
        {
          "internalType": "address",
          "name": "operator",
          "type": "address"
        },
        {
          "internalType": "bool",
          "name": "approved",
          "type": "bool"
        }
      ],
      "name": "setApprovalForAll",
      "outputs": [],
      "stateMutability": "nonpayable",
      "type": "function"
    },
    {
      "inputs": [
        {
          "internalType": "uint256",
          "name": "roundId",
          "type": "uint256"
        }
      ],
      "name": "setRoundIDForExpiry",
      "outputs": [
        {
          "internalType": "bool",
          "name": "isCorrectRoundId",
          "type": "bool"
        }
      ],
      "stateMutability": "nonpayable",
      "type": "function"
    },
    {
      "inputs": [
        {
          "internalType": "uint256",
          "name": "",
          "type": "uint256"
        }
      ],
      "name": "slotDetails",
      "outputs": [
        {
          "internalType": "uint256",
          "name": "strike",
          "type": "uint256"
        },
        {
          "internalType": "uint256",
          "name": "expiration",
          "type": "uint256"
        },
        {
          "internalType": "enum IBufferOptions.OptionType",
          "name": "optionType",
          "type": "uint8"
        },
        {
          "internalType": "bool",
          "name": "isValid",
          "type": "bool"
        }
      ],
      "stateMutability": "view",
      "type": "function"
    },
    {
      "inputs": [
        {
          "internalType": "uint256",
          "name": "optionId_",
          "type": "uint256"
        }
      ],
      "name": "slotOf",
      "outputs": [
        {
          "internalType": "uint256",
          "name": "",
          "type": "uint256"
        }
      ],
      "stateMutability": "view",
      "type": "function"
    },
    {
      "inputs": [
        {
          "internalType": "uint256",
          "name": "optionID",
          "type": "uint256"
        },
        {
          "internalType": "uint256[]",
          "name": "splitUnits_",
          "type": "uint256[]"
        }
      ],
      "name": "split",
      "outputs": [
        {
          "internalType": "uint256[]",
          "name": "newOptionIDs",
          "type": "uint256[]"
        }
      ],
      "stateMutability": "nonpayable",
      "type": "function"
    },
    {
      "inputs": [
        {
          "internalType": "bytes4",
          "name": "interfaceId",
          "type": "bytes4"
        }
      ],
      "name": "supportsInterface",
      "outputs": [
        {
          "internalType": "bool",
          "name": "",
          "type": "bool"
        }
      ],
      "stateMutability": "view",
      "type": "function"
    },
    {
      "inputs": [],
      "name": "symbol",
      "outputs": [
        {
          "internalType": "string",
          "name": "",
          "type": "string"
        }
      ],
      "stateMutability": "view",
      "type": "function"
    },
    {
      "inputs": [
        {
          "internalType": "uint256",
          "name": "slot_",
          "type": "uint256"
        },
        {
          "internalType": "uint256",
          "name": "index_",
          "type": "uint256"
        }
      ],
      "name": "tokenOfSlotByIndex",
      "outputs": [
        {
          "internalType": "uint256",
          "name": "",
          "type": "uint256"
        }
      ],
      "stateMutability": "view",
      "type": "function"
    },
    {
      "inputs": [
        {
          "internalType": "uint256",
          "name": "tokenId",
          "type": "uint256"
        }
      ],
      "name": "tokenURI",
      "outputs": [
        {
          "internalType": "string",
          "name": "",
          "type": "string"
        }
      ],
      "stateMutability": "view",
      "type": "function"
    },
    {
      "inputs": [],
      "name": "tokenX",
      "outputs": [
        {
          "internalType": "contract ERC20",
          "name": "",
          "type": "address"
        }
      ],
      "stateMutability": "view",
      "type": "function"
    },
    {
      "inputs": [
        {
          "internalType": "uint256",
          "name": "slot_",
          "type": "uint256"
        }
      ],
      "name": "tokensInSlot",
      "outputs": [
        {
          "internalType": "uint256",
          "name": "",
          "type": "uint256"
        }
      ],
      "stateMutability": "view",
      "type": "function"
    },
    {
      "inputs": [
        {
          "internalType": "address",
          "name": "from",
          "type": "address"
        },
        {
          "internalType": "address",
          "name": "to",
          "type": "address"
        },
        {
          "internalType": "uint256",
          "name": "tokenId",
          "type": "uint256"
        }
      ],
      "name": "transferFrom",
      "outputs": [],
      "stateMutability": "nonpayable",
      "type": "function"
    },
    {
      "inputs": [
        {
          "internalType": "address",
          "name": "from_",
          "type": "address"
        },
        {
          "internalType": "address",
          "name": "to_",
          "type": "address"
        },
        {
          "internalType": "uint256",
          "name": "optionID",
          "type": "uint256"
        },
        {
          "internalType": "uint256",
          "name": "targetOptionID",
          "type": "uint256"
        },
        {
          "internalType": "uint256",
          "name": "transferUnits_",
          "type": "uint256"
        }
      ],
      "name": "transferFrom",
      "outputs": [],
      "stateMutability": "nonpayable",
      "type": "function"
    },
    {
      "inputs": [
        {
          "internalType": "address",
          "name": "from_",
          "type": "address"
        },
        {
          "internalType": "address",
          "name": "to_",
          "type": "address"
        },
        {
          "internalType": "uint256",
          "name": "optionID",
          "type": "uint256"
        },
        {
          "internalType": "uint256",
          "name": "transferUnits_",
          "type": "uint256"
        }
      ],
      "name": "transferFrom",
      "outputs": [
        {
          "internalType": "uint256",
          "name": "newOptionID",
          "type": "uint256"
        }
      ],
      "stateMutability": "nonpayable",
      "type": "function"
    },
    {
      "inputs": [
        {
          "internalType": "address",
          "name": "newOwner",
          "type": "address"
        }
      ],
      "name": "transferOwnership",
      "outputs": [],
      "stateMutability": "nonpayable",
      "type": "function"
    },
    {
      "inputs": [],
      "name": "unitDecimals",
      "outputs": [
        {
          "internalType": "uint8",
          "name": "",
          "type": "uint8"
        }
      ],
      "stateMutability": "view",
      "type": "function"
    },
    {
      "inputs": [
        {
          "internalType": "uint256",
          "name": "slot_",
          "type": "uint256"
        }
      ],
      "name": "unitsInSlot",
      "outputs": [
        {
          "internalType": "uint256",
          "name": "units_",
          "type": "uint256"
        }
      ],
      "stateMutability": "view",
      "type": "function"
    },
    {
      "inputs": [
        {
          "internalType": "uint256",
          "name": "optionId_",
          "type": "uint256"
        }
      ],
      "name": "unitsInToken",
      "outputs": [
        {
          "internalType": "uint256",
          "name": "",
          "type": "uint256"
        }
      ],
      "stateMutability": "view",
      "type": "function"
    },
    {
      "inputs": [
        {
          "internalType": "uint256",
          "name": "optionID",
          "type": "uint256"
        }
      ],
      "name": "unlock",
      "outputs": [],
      "stateMutability": "nonpayable",
      "type": "function"
    },
    {
      "inputs": [
        {
          "internalType": "uint256[]",
          "name": "optionIDs",
          "type": "uint256[]"
        }
      ],
      "name": "unlockAll",
      "outputs": [],
      "stateMutability": "nonpayable",
      "type": "function"
    },
    {
      "inputs": [],
      "name": "withdrawFunds",
      "outputs": [],
      "stateMutability": "nonpayable",
      "type": "function"
    }
  ],
  "bytecode": "6080604052620f4240600d55600e805460ff191660121790556013805460ff60a01b1916600160a11b17905560006014553480156200003d57600080fd5b50604051620060c1380380620060c1833981016040819052620000609162000310565b6040805180820182526006815265213ab33332b960d11b60208083019182528351808501909452600384526221232960e91b908401528151919291620000a9916000916200026a565b508051620000bf9060019060208401906200026a565b505050620000dc620000d66200016060201b60201c565b62000164565b6001600755620000ee600033620001b6565b601180546001600160a01b03199081166001600160a01b038881169190911790925560178054821686841617905542601a556018805482168584161790556010805482168484161790556013805490911691861691909117905562000155600033620001b6565b5050505050620003e5565b3390565b600680546001600160a01b038381166001600160a01b0319831681179093556040519116919082907f8be0079c531659141344cd1fd0a4f28419497f9722a3daafe3b4186f6b6457e090600090a35050565b620001c28282620001c6565b5050565b60008281526008602090815260408083206001600160a01b038516845290915290205460ff16620001c25760008281526008602090815260408083206001600160a01b03851684529091529020805460ff19166001179055620002263390565b6001600160a01b0316816001600160a01b0316837f2f8788117e7eff1d82e926ec794901d17c78024a50270940304540a733656f0d60405160405180910390a45050565b82805462000278906200038f565b90600052602060002090601f0160209004810192826200029c5760008555620002e7565b82601f10620002b757805160ff1916838001178555620002e7565b82800160010185558215620002e7579182015b82811115620002e7578251825591602001919060010190620002ca565b50620002f5929150620002f9565b5090565b5b80821115620002f55760008155600101620002fa565b600080600080600060a0868803121562000328578081fd5b85516200033581620003cc565b60208701519095506200034881620003cc565b60408701519094506200035b81620003cc565b60608701519093506200036e81620003cc565b60808701519092506200038181620003cc565b809150509295509295909350565b600181811c90821680620003a457607f821691505b60208210811415620003c657634e487b7160e01b600052602260045260246000fd5b50919050565b6001600160a01b0381168114620003e257600080fd5b50565b615ccc80620003f56000396000f3fe608060405234801561001057600080fd5b50600436106102a95760003560e01c806301ffc9a7146102ae57806305271a2a146102d657806306517a29146102eb57806306fdde0314610302578063076d948c14610317578063081812fc1461032a578063095ea7b31461034a5780630ee2d59b1461035f57806316dc165b1461037257806316f0115b146103855780631cecaa311461039857806323b872dd146103b957806324600fc3146103cc578063248a9ca3146103d4578063263f3e7e146103e75780632f2ff15d146103fa57806336568abe1461040d578063409e220514610420578063426a84931461048357806342842e0e1461049657806342966c68146104a95780634aed53c2146104bc5780634f558e79146104cf5780636198e339146104e25780636352211e146104f5578063645734e61461050857806369c672471461051057806370a0823114610530578063715018a61461054357806375794a3c1461054b57806378c533ce1461055457806379502c5514610574578063841edc0e1461058757806389a30271146105a75780638a584118146105ba5780638da5cb5b146106055780638dd7d2c11461060d57806391d148541461062057806395d89b4114610633578063a217fddf1461063b578063a22cb46514610643578063a6d14c0214610656578063a88004251461065e578063b07f0a4114610671578063b888879e14610684578063b88d4fde14610697578063bbe33ea5146106aa578063becef607146106bd578063c7c3b53f146106d0578063c87b56dd146106f2578063d149cc3014610705578063d547741f14610718578063d5a0e6731461072b578063dba34e971461074b578063e342b59814610772578063e345e0bc14610785578063e985e9c5146107bf578063f2fde38b146107d2578063fe99049a146107e5575b600080fd5b6102c16102bc36600461531b565b6107f8565b60405190151581526020015b60405180910390f35b600e5460405160ff90911681526020016102cd565b6102f4600d5481565b6040519081526020016102cd565b61030a610809565b6040516102cd9190615743565b6102f46103253660046152df565b61089b565b61033d6103383660046152df565b6108e0565b6040516102cd9190615607565b61035d6103583660046151dc565b61096d565b005b6102f461036d36600461536b565b610a7e565b60115461033d906001600160a01b031681565b60175461033d906001600160a01b031681565b6013546103ac90600160a01b900460ff1681565b6040516102cd91906156d9565b61035d6103c736600461505e565b61137c565b61035d6113ad565b6102f46103e23660046152df565b611561565b6102f46103f53660046152df565b611576565b61035d6104083660046152f7565b611588565b61035d61041b3660046152f7565b6115a5565b61047061042e3660046152df565b601560205260009081526040902080546001820154600283015460038401546004850154600586015460069096015460ff958616969495939492939192911687565b6040516102cd97969594939291906156e7565b61035d610491366004615207565b61161f565b61035d6104a436600461505e565b611663565b61035d6104b73660046152df565b61167e565b61035d6104ca36600461515f565b6116c0565b6102c16104dd3660046152df565b6117e2565b61035d6104f03660046152df565b6117ed565b61033d6105033660046152df565b611a78565b61035d611aef565b61052361051e3660046153ea565b611b79565b6040516102cd9190615695565b6102f461053e366004614fee565b611f6b565b61035d611ff2565b6102f460145481565b6102f46105623660046152df565b600f6020526000908152604090205481565b60185461033d906001600160a01b031681565b6102f46105953660046152df565b60166020526000908152604090205481565b60105461033d906001600160a01b031681565b6105f56105c83660046152df565b60196020526000908152604090208054600182015460029092015490919060ff8082169161010090041684565b6040516102cd94939291906158d7565b61033d61202d565b6102c161061b3660046152df565b61203c565b6102c161062e3660046152f7565b6122c4565b61030a6122ef565b6102f4600081565b61035d6106513660046151af565b6122fe565b6102f4600581565b6102f461066c3660046152df565b6123bf565b6102f461067f3660046152df565b6123d6565b60135461033d906001600160a01b031681565b61035d6106a536600461509e565b612740565b61035d6106b836600461527a565b612773565b6102f46106cb3660046152df565b612982565b6106e36106de366004615481565b612994565b6040516102cd9392919061594c565b61030a6107003660046152df565b612ad7565b6102f4610713366004615433565b612ae2565b61035d6107263660046152f7565b612b01565b6102f46107393660046152df565b600a6020526000908152604090205481565b6102f47fdeb3b49547f710c56a925b6e16e3557a50fab4dd8f243bc314f3afba2054ec5b81565b61035d61078036600461523b565b612b1e565b6102f46107933660046152f7565b6000828152600b602090815260408083206001600160a01b038516845260010190915290205492915050565b6102c16107cd366004615026565b612b6b565b61035d6107e0366004614fee565b612b99565b6102f46107f336600461511a565b612c36565b600061080382612d0d565b92915050565b60606000805461081890615b3f565b80601f016020809104026020016040519081016040528092919081815260200182805461084490615b3f565b80156108915780601f1061086657610100808354040283529160200191610891565b820191906000526020600020905b81548152906001019060200180831161087457829003601f168201915b5050505050905090565b6000805b6108a8836123bf565b8110156108da576108bc6106cb8483612ae2565b6108c690836159ac565b9150806108d281615b74565b91505061089f565b50919050565b60006108eb82612d32565b6109515760405162461bcd60e51b815260206004820152602c60248201527f4552433732313a20617070726f76656420717565727920666f72206e6f6e657860448201526b34b9ba32b73a103a37b5b2b760a11b60648201526084015b60405180910390fd5b506000908152600460205260409020546001600160a01b031690565b600061097882611a78565b9050806001600160a01b0316836001600160a01b031614156109e65760405162461bcd60e51b815260206004820152602160248201527f4552433732313a20617070726f76616c20746f2063757272656e74206f776e656044820152603960f91b6064820152608401610948565b336001600160a01b0382161480610a025750610a028133612b6b565b610a6f5760405162461bcd60e51b815260206004820152603860248201527f4552433732313a20617070726f76652063616c6c6572206973206e6f74206f776044820152771b995c881b9bdc88185c1c1c9bdd995908199bdc88185b1b60421b6064820152608401610948565b610a798383612d4f565b505050565b600060026007541415610ad35760405162461bcd60e51b815260206004820152601f60248201527f5265656e7472616e637947756172643a207265656e7472616e742063616c6c006044820152606401610948565b60026007556017546040805163a834069b60e01b815290516000926001600160a01b03169163a834069b916004808301926020929190829003018186803b158015610b1d57600080fd5b505afa158015610b31573d6000803e3d6000fd5b505050506040513d601f19601f82011682018060405250810190610b559190615353565b9050428111610b765760405162461bcd60e51b81526004016109489061589f565b6000610b824283615ae5565b90506000601360009054906101000a90046001600160a01b03166001600160a01b0316631acf55826040518163ffffffff1660e01b815260040160206040518083038186803b158015610bd457600080fd5b505afa158015610be8573d6000803e3d6000fd5b505050506040513d601f19601f82011682018060405250810190610c0c9190615353565b905061a8c0821015610c305760405162461bcd60e51b81526004016109489061589f565b6000806000610cd2858c601860009054906101000a90046001600160a01b03166001600160a01b0316635ee971016040518163ffffffff1660e01b815260040160206040518083038186803b158015610c8857600080fd5b505afa158015610c9c573d6000803e3d6000fd5b505050506040513d601f19601f82011682018060405250810190610cc09190615353565b601354600160a01b900460ff16612994565b919450925090506005610ce5868d615ac6565b610cef9190615ac6565b610cfd846301e13380615ac6565b610d08906064615ac6565b11610d3a5760405162461bcd60e51b8152602060048201526002602482015261279960f11b6044820152606401610948565b6001886001811115610d5c57634e487b7160e01b600052602160045260246000fd5b1415610e0e576011546040516323b872dd60e01b81526000916001600160a01b0316906323b872dd90610d979033903090899060040161561b565b602060405180830381600087803b158015610db157600080fd5b505af1158015610dc5573d6000803e3d6000fd5b505050506040513d601f19601f82011682018060405250810190610de991906152c3565b905080610e085760405162461bcd60e51b8152600401610948906157e1565b50611132565b6011546040516370a0823160e01b815284916001600160a01b0316906370a0823190610e3e903090600401615607565b60206040518083038186803b158015610e5657600080fd5b505afa158015610e6a573d6000803e3d6000fd5b505050506040513d601f19601f82011682018060405250810190610e8e9190615353565b1015610ec25760405162461bcd60e51b81526020600482015260036024820152624f313560e81b6044820152606401610948565b60105460175460408051632911d73960e21b815290516000936001600160a01b03908116936323b872dd933393919092169163a4475ce4916004808301926020929190829003018186803b158015610f1957600080fd5b505afa158015610f2d573d6000803e3d6000fd5b505050506040513d601f19601f82011682018060405250810190610f51919061500a565b6305f5e10089601160009054906101000a90046001600160a01b03166001600160a01b031663313ce5676040518163ffffffff1660e01b815260040160206040518083038186803b158015610fa557600080fd5b505afa158015610fb9573d6000803e3d6000fd5b505050506040513d601f19601f82011682018060405250810190610fdd9190615508565b610fe890600a615a1b565b601060009054906101000a90046001600160a01b03166001600160a01b031663313ce5676040518163ffffffff1660e01b815260040160206040518083038186803b15801561103657600080fd5b505afa15801561104a573d6000803e3d6000fd5b505050506040513d601f19601f8201168201806040525081019061106e9190615508565b61107990600a615a1b565b611083908c615ac6565b61108d91906159c4565b6110979190615ac6565b6110a191906159c4565b6040518463ffffffff1660e01b81526004016110bf9392919061561b565b602060405180830381600087803b1580156110d957600080fd5b505af11580156110ed573d6000803e3d6000fd5b505050506040513d601f19601f8201168201806040525081019061111191906152c3565b9050806111305760405162461bcd60e51b8152600401610948906157e1565b505b6040805160e081018252600181526018548251635ee9710160e01b815292516000936020808501936001600160a01b031692635ee97101926004808201939291829003018186803b15801561118657600080fd5b505afa15801561119a573d6000803e3d6000fd5b505050506040513d601f19601f820116820180604052508101906111be9190615353565b81526020018d81526020016064601860009054906101000a90046001600160a01b03166001600160a01b031663302ce6516040518163ffffffff1660e01b815260040160206040518083038186803b15801561121957600080fd5b505afa15801561122d573d6000803e3d6000fd5b505050506040513d601f19601f820116820180604052508101906112519190615353565b8f61125c9190615ac6565b61126691906159c4565b81526020810184905260400161127c88426159ac565b8152602001601360149054906101000a900460ff1660028111156112b057634e487b7160e01b600052602160045260246000fd5b905290506112bc612dbd565b97506112c88882612dd7565b6112f588336112f08b85602001518660a00151601360149054906101000a900460ff16612e8f565b612fcd565b6112ff888b612ff0565b600061130b848d612ffa565b905061132089836060015184608001516134bb565b336001600160a01b0316897f89f823a0225c73a75066e963ce2eea7708b57680ec86102773dbd244f541289283888f60405161135e9392919061592d565b60405180910390a35050600160075550949998505050505050505050565b6113863382613526565b6113a25760405162461bcd60e51b81526004016109489061584e565b610a798383836135f0565b336113b661202d565b6001600160a01b0316146113dc5760405162461bcd60e51b815260040161094890615819565b6011546040516370a0823160e01b81526000916001600160a01b0316906370a082319061140d903090600401615607565b60206040518083038186803b15801561142557600080fd5b505afa158015611439573d6000803e3d6000fd5b505050506040513d601f19601f8201168201806040525081019061145d9190615353565b9050801561155e5760115460175460408051632911d73960e21b815290516001600160a01b039384169363a9059cbb93169163a4475ce4916004808301926020929190829003018186803b1580156114b457600080fd5b505afa1580156114c8573d6000803e3d6000fd5b505050506040513d601f19601f820116820180604052508101906114ec919061500a565b836040518363ffffffff1660e01b815260040161150a92919061567c565b602060405180830381600087803b15801561152457600080fd5b505af1158015611538573d6000803e3d6000fd5b505050506040513d601f19601f8201168201806040525081019061155c91906152c3565b505b50565b60009081526008602052604090206001015490565b6000908152600a602052604090205490565b61159182611561565b61159b8133613789565b610a7983836137ed565b6001600160a01b03811633146116155760405162461bcd60e51b815260206004820152602f60248201527f416363657373436f6e74726f6c3a2063616e206f6e6c792072656e6f756e636560448201526e103937b632b9903337b91039b2b63360891b6064820152608401610948565b61155c8282613873565b61162882611a78565b6001600160a01b0316336001600160a01b0316146116585760405162461bcd60e51b815260040161094890615756565b610a798383836138da565b610a7983838360405180602001604052806000815250612740565b61168781611a78565b6001600160a01b0316336001600160a01b0316146116b75760405162461bcd60e51b815260040161094890615756565b61155e8161399f565b6116c9826117e2565b6116fb5760405162461bcd60e51b815260206004820152600360248201526227189960e91b6044820152606401610948565b600080600061170a86856139b7565b50925092509250600061171c86613ae4565b9050611758868284846060015161173391906159ac565b87856040015161174391906159ac565b87866080015161175391906159ac565b613bd3565b601754606082015160808301516040516357a5c96760e01b81529394506001600160a01b03909216926357a5c96792611798928b9290919060040161594c565b600060405180830381600087803b1580156117b257600080fd5b505af11580156117c6573d6000803e3d6000fd5b505050506117d78989898989613c05565b505050505050505050565b600061080382612d32565b6000818152601560205260409020600581015442101561181f5760405162461bcd60e51b8152600401610948906158bb565b6001815460ff16600381111561184557634e487b7160e01b600052602160045260246000fd5b146118775760405162461bcd60e51b81526020600482015260026024820152614f3560f01b6044820152606401610948565b6005810154600090815260166020526040902054806118a85760405162461bcd60e51b8152600401610948906157c4565b6013546040516303906d2960e11b8152600481018390526000916001600160a01b031690630720da529060240160a06040518083038186803b1580156118ed57600080fd5b505afa158015611901573d6000803e3d6000fd5b505050506040513d601f19601f8201168201806040525081019061192591906154b9565b5091935060029250611935915050565b600684015460ff16600281111561195c57634e487b7160e01b600052602160045260246000fd5b14801561196d575082600101548110155b806119ad57506001600684015460ff16600281111561199c57634e487b7160e01b600052602160045260246000fd5b1480156119ad575082600101548111155b156119c1576119bb846123d6565b50611a72565b825460ff19166003178355601754604051636198e33960e01b8152600481018690526001600160a01b0390911690636198e33990602401600060405180830381600087803b158015611a1257600080fd5b505af1158015611a26573d6000803e3d6000fd5b50505050611a338461399f565b837f5f36a4a575e512eb69d6d28c3b0ff98cca7ba50ad5bf04e14094ad1d425e0d318460040154604051611a6991815260200190565b60405180910390a25b50505050565b6000818152600260205260408120546001600160a01b0316806108035760405162461bcd60e51b815260206004820152602960248201527f4552433732313a206f776e657220717565727920666f72206e6f6e657869737460448201526832b73a103a37b5b2b760b91b6064820152608401610948565b60115460175460405163095ea7b360e01b81526001600160a01b039283169263095ea7b392611b27929116906000199060040161567c565b602060405180830381600087803b158015611b4157600080fd5b505af1158015611b55573d6000803e3d6000fd5b505050506040513d601f19601f8201168201806040525081019061155e91906152c3565b606081611bad5760405162461bcd60e51b81526020600482015260026024820152614e3160f01b6044820152606401610948565b816001600160401b03811115611bd357634e487b7160e01b600052604160045260246000fd5b604051908082528060200260200182016040528015611bfc578160200160208202803683370190505b5090506000611c0a85613ae4565b90506000611c1786612982565b905060008080805b87811015611e2a576000611c31612dbd565b905080888381518110611c5457634e487b7160e01b600052603260045260246000fd5b602002602001018181525050611c918b828c8c86818110611c8557634e487b7160e01b600052603260045260246000fd5b90506020020135613e4b565b6000868b8b85818110611cb457634e487b7160e01b600052603260045260246000fd5b905060200201358960400151611cca9190615ac6565b611cd491906159c4565b9050611ce081876159ac565b95506000878c8c86818110611d0557634e487b7160e01b600052603260045260246000fd5b905060200201358a60600151611d1b9190615ac6565b611d2591906159c4565b9050611d3181876159ac565b95506000888d8d87818110611d5657634e487b7160e01b600052603260045260246000fd5b905060200201358b60800151611d6c9190615ac6565b611d7691906159c4565b9050611d8281876159ac565b955060006040518060e001604052808c600001516003811115611db557634e487b7160e01b600052602160045260246000fd5b81526020018c6020015181526020018581526020018481526020018381526020018c60a0015181526020018c60c001516002811115611e0457634e487b7160e01b600052602160045260246000fd5b90529050611e128582612dd7565b50505050508080611e2290615b74565b915050611c1f565b50611e608986848860600151611e409190615ae5565b868960400151611e509190615ae5565b858a608001516117539190615ae5565b601754606082015160808301516040516357a5c96760e01b81529398506001600160a01b03909216926357a5c96792611ea0928e9290919060040161594c565b600060405180830381600087803b158015611eba57600080fd5b505af1158015611ece573d6000803e3d6000fd5b5050505060005b87811015611f5e576000611f0f888381518110611f0257634e487b7160e01b600052603260045260246000fd5b6020026020010151613ae4565b9050611f4b888381518110611f3457634e487b7160e01b600052603260045260246000fd5b6020026020010151826060015183608001516134bb565b5080611f5681615b74565b915050611ed5565b5050505050509392505050565b60006001600160a01b038216611fd65760405162461bcd60e51b815260206004820152602a60248201527f4552433732313a2062616c616e636520717565727920666f7220746865207a65604482015269726f206164647265737360b01b6064820152608401610948565b506001600160a01b031660009081526003602052604090205490565b33611ffb61202d565b6001600160a01b0316146120215760405162461bcd60e51b815260040161094890615819565b61202b6000613f75565b565b6006546001600160a01b031690565b6013546040516303906d2960e11b815260048101839052600091829182916001600160a01b031690630720da529060240160a06040518083038186803b15801561208557600080fd5b505afa158015612099573d6000803e3d6000fd5b505050506040513d601f19601f820116820180604052508101906120bd91906154b9565b509350509250506000601760009054906101000a90046001600160a01b03166001600160a01b031663a834069b6040518163ffffffff1660e01b815260040160206040518083038186803b15801561211457600080fd5b505afa158015612128573d6000803e3d6000fd5b505050506040513d601f19601f8201168201806040525081019061214c9190615353565b90508181106121825760405162461bcd60e51b8152602060048201526002602482015261433160f01b6044820152606401610948565b600061218f600187615ae5565b90505b846122bb576013546040516303906d2960e11b8152600481018390526000916001600160a01b031690630720da529060240160a06040518083038186803b1580156121dc57600080fd5b505afa1580156121f0573d6000803e3d6000fd5b505050506040513d601f19601f8201168201806040525081019061221491906154b9565b509350505050806000141561226a57600082116122585760405162461bcd60e51b8152602060048201526002602482015261433360f01b6044820152606401610948565b612263600183615ae5565b91506122b5565b8281111561229f5760405162461bcd60e51b815260206004820152600260248201526110cd60f21b6044820152606401610948565b6000838152601660205260409020829055600195505b50612192565b50505050919050565b60009182526008602090815260408084206001600160a01b0393909316845291905290205460ff1690565b60606001805461081890615b3f565b6001600160a01b0382163314156123535760405162461bcd60e51b815260206004820152601960248201527822a9219b99189d1030b8383937bb32903a379031b0b63632b960391b6044820152606401610948565b3360008181526005602090815260408083206001600160a01b03871680855290835292819020805460ff191686151590811790915590519081529192917f17307eab39ab6107e8899845ad3d59bd9653f200f220920489ca2b5937696c31910160405180910390a35050565b6000818152600c6020526040812061080390613fc7565b60006123e1826117e2565b6124135760405162461bcd60e51b815260206004820152600360248201526204f31360ec1b6044820152606401610948565b600082815260156020526040902060058101544210156124455760405162461bcd60e51b8152600401610948906158bb565b6001815460ff16600381111561246b57634e487b7160e01b600052602160045260246000fd5b1461249e5760405162461bcd60e51b815260206004820152600360248201526213cc4d60ea1b6044820152606401610948565b6005810154600090815260166020526040902054806124cf5760405162461bcd60e51b8152600401610948906157c4565b6013546040516303906d2960e11b8152600481018390526000916001600160a01b031690630720da529060240160a06040518083038186803b15801561251457600080fd5b505afa158015612528573d6000803e3d6000fd5b505050506040513d601f19601f8201168201806040525081019061254c91906154b9565b509193506002925061255c915050565b600684015460ff16600281111561258357634e487b7160e01b600052602160045260246000fd5b14156125f45780836001015411156125c35760405162461bcd60e51b81526020600482015260036024820152624f313760e81b6044820152606401610948565b8083600201548460010154836125d99190615ae5565b6125e39190615ac6565b6125ed91906159c4565b935061265b565b808360010154101561262e5760405162461bcd60e51b815260206004820152600360248201526209e62760eb1b6044820152606401610948565b8083600201548285600101546126449190615ae5565b61264e9190615ac6565b61265891906159c4565b93505b826003015484111561266f57826003015493505b6017546001600160a01b03166381b34f158661268a81611a78565b6040516001600160e01b031960e085901b16815260048101929092526001600160a01b0316602482015260448101879052606401600060405180830381600087803b1580156126d857600080fd5b505af11580156126ec573d6000803e3d6000fd5b505050506126f98561399f565b825460ff1916600217835560405184815285907e84fe51c7cb34b132b7b6eb5d5a87a489f8d6d284758d00a0402c1bad9a0def9060200160405180910390a2505050919050565b61274b335b83613526565b6127675760405162461bcd60e51b81526004016109489061584e565b611a7284848484613fd1565b816127a55760405162461bcd60e51b8152602060048201526002602482015261138d60f21b6044820152606401610948565b60006127b082613ae4565b606081015160408201516080830151929350909160005b868110156129045760006128008989848181106127f457634e487b7160e01b600052603260045260246000fd5b90506020020135613ae4565b905080606001518561281291906159ac565b945080604001518461282491906159ac565b935080608001518361283691906159ac565b6017549093506001600160a01b0316630dbf21b08a8a8581811061286a57634e487b7160e01b600052603260045260246000fd5b905060200201356040518263ffffffff1660e01b815260040161288f91815260200190565b600060405180830381600087803b1580156128a957600080fd5b505af11580156128bd573d6000803e3d6000fd5b505050506128f18989848181106128e457634e487b7160e01b600052603260045260246000fd5b9050602002013588614004565b50806128fc81615b74565b9150506127c7565b506129128585858585613bd3565b506017546040516357a5c96760e01b81526001600160a01b03909116906357a5c967906129479088908790869060040161594c565b600060405180830381600087803b15801561296157600080fd5b505af1158015612975573d6000803e3d6000fd5b5050505050505050505050565b6000908152600f602052604090205490565b600080600080601360009054906101000a90046001600160a01b03166001600160a01b0316631acf55826040518163ffffffff1660e01b815260040160206040518083038186803b1580156129e857600080fd5b505afa1580156129fc573d6000803e3d6000fd5b505050506040513d601f19601f82011682018060405250810190612a209190615353565b6018546017546040516304e2a02960e31b815292935073__FeeCalculator_________________________92632715014892612a76928d928d928d928d928a926001600160a01b03908116921690600401615962565b60606040518083038186803b158015612a8e57600080fd5b505af4158015612aa2573d6000803e3d6000fd5b505050506040513d601f19601f82011682018060405250810190612ac69190615454565b919a90995090975095505050505050565b606061080382614180565b6000828152600c60205260408120612afa90836142e2565b9392505050565b612b0a82611561565b612b148133613789565b610a798383613873565b8060005b81811015611a7257612b59848483818110612b4d57634e487b7160e01b600052603260045260246000fd5b905060200201356117ed565b80612b6381615b74565b915050612b22565b6001600160a01b03918216600090815260056020908152604080832093909416825291909152205460ff1690565b33612ba261202d565b6001600160a01b031614612bc85760405162461bcd60e51b815260040161094890615819565b6001600160a01b038116612c2d5760405162461bcd60e51b815260206004820152602660248201527f4f776e61626c653a206e6577206f776e657220697320746865207a65726f206160448201526564647265737360d01b6064820152608401610948565b61155e81613f75565b6000612c40612dbd565b9050600080600080612c5287876139b7565b935093509350935060006040518060e0016040528083600001516003811115612c8b57634e487b7160e01b600052602160045260246000fd5b8152602001836020015181526020018681526020018481526020018581526020018360a0015181526020018360c001516002811115612cda57634e487b7160e01b600052602160045260246000fd5b90529050612ce88682612dd7565b612cf38684866134bb565b612d008a8a8a898b613c05565b5050505050949350505050565b60006001600160e01b03198216637965db0b60e01b14806108035750610803826142ee565b6000908152600260205260409020546001600160a01b0316151590565b600081815260046020526040902080546001600160a01b0319166001600160a01b0384169081179091558190612d8482611a78565b6001600160a01b03167f8c5be1e5ebec7d5bd14f71427d1e84f3dd0314c0f7b2291e5b200ac8c7c3b92560405160405180910390a45050565b6014805460009182612dce83615b74565b91905055905090565b60008281526015602052604090208151815483929190829060ff19166001836003811115612e1557634e487b7160e01b600052602160045260246000fd5b02179055506020820151816001015560408201518160020155606082015181600301556080820151816004015560a0820151816005015560c08201518160060160006101000a81548160ff02191690836002811115612e8457634e487b7160e01b600052602160045260246000fd5b021790555050505050565b600083838387604051602001612ea89493929190615903565b60408051808303601f19018152918152815160209283012060008181526019909352912060020154909150610100900460ff1615612f0e5760405162461bcd60e51b8152602060048201526003602482015262138c4d60ea1b6044820152606401610948565b6040518060800160405280858152602001848152602001836002811115612f4557634e487b7160e01b600052602160045260246000fd5b815260016020918201819052600084815260198352604090819020845181559284015183830155830151600280840180549293909260ff1916918490811115612f9e57634e487b7160e01b600052602160045260246000fd5b021790555060609190910151600290910180549115156101000261ff0019909216919091179055949350505050565b6000838152600a60205260409020819055600d54610a799083908590849061433e565b61155c82826143c8565b60006064601860009054906101000a90046001600160a01b03166001600160a01b031663ca535c3b6040518163ffffffff1660e01b815260040160206040518083038186803b15801561304c57600080fd5b505afa158015613060573d6000803e3d6000fd5b505050506040513d601f19601f820116820180604052508101906130849190615353565b61308e9085615ac6565b61309891906159c4565b905080156131995760115460185460408051630605cc7760e21b815290516001600160a01b039384169363a9059cbb93169163181731dc916004808301926020929190829003018186803b1580156130ef57600080fd5b505afa158015613103573d6000803e3d6000fd5b505050506040513d601f19601f82011682018060405250810190613127919061500a565b836040518363ffffffff1660e01b815260040161314592919061567c565b602060405180830381600087803b15801561315f57600080fd5b505af1158015613173573d6000803e3d6000fd5b505050506040513d601f19601f8201168201806040525081019061319791906152c3565b505b60006131a58285615ae5565b905080156134b45760185460408051634905129f60e11b815290516000926001600160a01b03169163920a253e916004808301926020929190829003018186803b1580156131f257600080fd5b505afa158015613206573d6000803e3d6000fd5b505050506040513d601f19601f8201168201806040525081019061322a9190615353565b118015613250575061323a61202d565b6001600160a01b0316836001600160a01b031614155b801561326557506001600160a01b0383163314155b156133df5760006064601860009054906101000a90046001600160a01b03166001600160a01b031663920a253e6040518163ffffffff1660e01b815260040160206040518083038186803b1580156132bc57600080fd5b505afa1580156132d0573d6000803e3d6000fd5b505050506040513d601f19601f820116820180604052508101906132f49190615353565b6132fe9084615ac6565b61330891906159c4565b90506133148183615ae5565b60115460405163a9059cbb60e01b81529193506001600160a01b03169063a9059cbb90613347908790859060040161567c565b602060405180830381600087803b15801561336157600080fd5b505af1158015613375573d6000803e3d6000fd5b505050506040513d601f19601f8201168201806040525081019061339991906152c3565b50836001600160a01b03167f2fc41b7d7df3272c17d9b581fcf235307bc027599c6ed68442c4100bd3a84198826040516133d591815260200190565b60405180910390a2505b6011546001600160a01b031663a9059cbb6133f861202d565b836040518363ffffffff1660e01b815260040161341692919061567c565b602060405180830381600087803b15801561343057600080fd5b505af1158015613444573d6000803e3d6000fd5b505050506040513d601f19601f8201168201806040525081019061346891906152c3565b5061347161202d565b6001600160a01b03167ff0f0487d8990103573e0e5cf4e87e101e2a1ba84c733c556b7a5807e570e5d4c826040516134ab91815260200190565b60405180910390a25b5092915050565b60175460405163edd0d42160e01b81526001600160a01b039091169063edd0d421906134ef9086908690869060040161594c565b600060405180830381600087803b15801561350957600080fd5b505af115801561351d573d6000803e3d6000fd5b50505050505050565b600061353182612d32565b6135925760405162461bcd60e51b815260206004820152602c60248201527f4552433732313a206f70657261746f7220717565727920666f72206e6f6e657860448201526b34b9ba32b73a103a37b5b2b760a11b6064820152608401610948565b600061359d83611a78565b9050806001600160a01b0316846001600160a01b031614806135d85750836001600160a01b03166135cd846108e0565b6001600160a01b0316145b806135e857506135e88185612b6b565b949350505050565b826001600160a01b031661360382611a78565b6001600160a01b03161461366b5760405162461bcd60e51b815260206004820152602960248201527f4552433732313a207472616e73666572206f6620746f6b656e2074686174206960448201526839903737ba1037bbb760b91b6064820152608401610948565b6001600160a01b0382166136cd5760405162461bcd60e51b8152602060048201526024808201527f4552433732313a207472616e7366657220746f20746865207a65726f206164646044820152637265737360e01b6064820152608401610948565b6136d8838383614453565b6136e3600082612d4f565b6001600160a01b038316600090815260036020526040812080546001929061370c908490615ae5565b90915550506001600160a01b038216600090815260036020526040812080546001929061373a9084906159ac565b909155505060008181526002602052604080822080546001600160a01b0319166001600160a01b038681169182179092559151849391871691600080516020615c5783398151915291a4505050565b61379382826122c4565b61155c576137ab816001600160a01b0316601461446b565b6137b683602061446b565b6040516020016137c7929190615598565b60408051601f198184030181529082905262461bcd60e51b825261094891600401615743565b6137f782826122c4565b61155c5760008281526008602090815260408083206001600160a01b03851684529091529020805460ff1916600117905561382f3390565b6001600160a01b0316816001600160a01b0316837f2f8788117e7eff1d82e926ec794901d17c78024a50270940304540a733656f0d60405160405180910390a45050565b61387d82826122c4565b1561155c5760008281526008602090815260408083206001600160a01b0385168085529252808320805460ff1916905551339285917ff6391f5c32d9c69d2a47ea670b442974b53935d1edc7fd64eb21e047a839171b9190a45050565b6000828152600b602090815260408083206001600160a01b038716845260010190915290205461393c576000828152600b602090815260408220805460018101825590835291200180546001600160a01b0319166001600160a01b0385161790555b6000828152600b602090815260408083206001600160a01b0387168085526001909101835292819020849055518381528492917f8a156bd946dc74ec284c5f4b365ce75ef2a5b9d9462b4cdb1d2400cabf136541910160405180910390a3505050565b6000818152600a602052604081205561155e8161464c565b60008060006139c4614e1f565b6139cd86613ae4565b905060006139da87612982565b9050808683604001516139ed9190615ac6565b6139f791906159c4565b945080868360800151613a0a9190615ac6565b613a1491906159c4565b935080868360600151613a279190615ac6565b613a3191906159c4565b9250613a688783858560600151613a489190615ae5565b888660400151613a589190615ae5565b8887608001516117539190615ae5565b601754606082015160808301516040516357a5c96760e01b81529395506001600160a01b03909216926357a5c96792613aa8928c9290919060040161594c565b600060405180830381600087803b158015613ac257600080fd5b505af1158015613ad6573d6000803e3d6000fd5b505050505092959194509250565b613aec614e1f565b60008281526015602052604090819020815160e081019092528054829060ff166003811115613b2b57634e487b7160e01b600052602160045260246000fd5b6003811115613b4a57634e487b7160e01b600052602160045260246000fd5b81526001820154602082015260028083015460408301526003830154606083015260048301546080830152600583015460a0830152600683015460c09092019160ff1690811115613bab57634e487b7160e01b600052602160045260246000fd5b6002811115613bca57634e487b7160e01b600052602160045260246000fd5b90525092915050565b613bdb614e1f565b5060608401839052604084018290526080840181905283613bfc8682612dd7565b95945050505050565b613c0e83611a78565b6001600160a01b0316856001600160a01b031614613c535760405162461bcd60e51b81526020600482015260026024820152614e3960f01b6044820152606401610948565b6001600160a01b038416613c8f5760405162461bcd60e51b815260206004820152600360248201526204e31360ec1b6044820152606401610948565b336001600160a01b03861614801590613caf5750613cad8533612b6b565b155b15613cfa576000838152600b60209081526040808320338452600101909152902054613cdc908290615ae5565b6000848152600b602090815260408083203384526001019091529020555b6000838152600f6020526040902054613d14908290615ae5565b6000848152600f6020526040902055613d2c82612d32565b613d4957613d448483613d3e86611576565b8461433e565b613df1565b836001600160a01b0316613d5c83611a78565b6001600160a01b031614613d985760405162461bcd60e51b81526020600482015260036024820152624e313160e81b6044820152606401610948565b613da182611576565b613daa84611576565b14613dc75760405162461bcd60e51b8152600401610948906157fd565b6000828152600f6020526040902054613de19082906159ac565b6000838152600f60205260409020555b6000838152600a60205260408082205484835291819020919091555183906001600160a01b038087169190881690600080516020615c7783398151915290613e3c9087908790615735565b60405180910390a45050505050565b613e553384613526565b613e865760405162461bcd60e51b8152602060048201526002602482015261271960f11b6044820152606401610948565b613e8f82612d32565b15613ec15760405162461bcd60e51b81526020600482015260026024820152614e3360f01b6044820152606401610948565b613ee082613ece85611576565b6000918252600a602052604090912055565b6000838152600f6020526040902054613efa908290615ae5565b6000848152600f6020526040812091909155613f1584611a78565b9050613f2b8184613f2587611576565b8561433e565b83816001600160a01b03167ff66885c33d648fcd0d97e0f2a18e30102169c22763473af0fb716f11b4a17dd68585604051613f67929190615735565b60405180910390a350505050565b600680546001600160a01b038381166001600160a01b0319831681179093556040519116919082907f8be0079c531659141344cd1fd0a4f28419497f9722a3daafe3b4186f6b6457e090600090a35050565b6000610803825490565b613fdc8484846135f0565b613fe8848484846146de565b611a725760405162461bcd60e51b815260040161094890615772565b61400d33612745565b61403e5760405162461bcd60e51b81526020600482015260026024820152614e3560f01b6044820152606401610948565b808214156140735760405162461bcd60e51b8152602060048201526002602482015261271b60f11b6044820152606401610948565b61407c81611576565b61408583611576565b146140a25760405162461bcd60e51b8152600401610948906157fd565b60006140ad83611a78565b90506140b882611a78565b6001600160a01b0316816001600160a01b0316146140fd5760405162461bcd60e51b815260206004820152600260248201526109c760f31b6044820152606401610948565b6000838152600f60205260408082205484835291205461411d90826159ac565b6000848152600f60205260409020556141358461399f565b8284836001600160a01b03167fb3ce851d16b3bbec3774d5631a3893dfa2a80e067cfad265dd594402ac3d60968460405161417291815260200190565b60405180910390a450505050565b606061418b82612d32565b6141f15760405162461bcd60e51b815260206004820152603160248201527f45524337323155524953746f726167653a2055524920717565727920666f72206044820152703737b732bc34b9ba32b73a103a37b5b2b760791b6064820152608401610948565b6000828152600960205260408120805461420a90615b3f565b80601f016020809104026020016040519081016040528092919081815260200182805461423690615b3f565b80156142835780601f1061425857610100808354040283529160200191614283565b820191906000526020600020905b81548152906001019060200180831161426657829003601f168201915b5050505050905060006142946147eb565b90508051600014156142a7575092915050565b8151156142d95780826040516020016142c1929190615569565b60405160208183030381529060405292505050919050565b6135e88461480b565b6000612afa83836148d5565b60006001600160e01b031982166380ac58cd60e01b148061431f57506001600160e01b03198216635b5e139f60e01b145b8061080357506301ffc9a760e01b6001600160e01b0319831614610803565b61434783612d32565b61436f57614355848461490d565b6000828152600c6020526040902061436d9084614a39565b505b6000838152600f60205260409020546143899082906159ac565b6000848152600f60205260408082209290925590516001600160a01b038616908290600080516020615c77833981519152906141729088908790615735565b6143d182612d32565b6144345760405162461bcd60e51b815260206004820152602e60248201527f45524337323155524953746f726167653a2055524920736574206f66206e6f6e60448201526d32bc34b9ba32b73a103a37b5b2b760911b6064820152608401610948565b60008281526009602090815260409091208251610a7992840190614e7b565b6001600160a01b03831615610a7957610a7981614a45565b6060600061447a836002615ac6565b6144859060026159ac565b6001600160401b038111156144aa57634e487b7160e01b600052604160045260246000fd5b6040519080825280601f01601f1916602001820160405280156144d4576020820181803683370190505b509050600360fc1b816000815181106144fd57634e487b7160e01b600052603260045260246000fd5b60200101906001600160f81b031916908160001a905350600f60fb1b8160018151811061453a57634e487b7160e01b600052603260045260246000fd5b60200101906001600160f81b031916908160001a905350600061455e846002615ac6565b6145699060016159ac565b90505b60018111156145fd576f181899199a1a9b1b9c1cb0b131b232b360811b85600f16601081106145ab57634e487b7160e01b600052603260045260246000fd5b1a60f81b8282815181106145cf57634e487b7160e01b600052603260045260246000fd5b60200101906001600160f81b031916908160001a90535060049490941c936145f681615b28565b905061456c565b508315612afa5760405162461bcd60e51b815260206004820181905260248201527f537472696e67733a20686578206c656e67746820696e73756666696369656e746044820152606401610948565b600061465782611a78565b9050600061466483611576565b6000848152600f6020908152604080832054848452600c9092529091209192509061468f9085614af9565b506000848152600f60205260408120556146a884614b05565b8360006001600160a01b0316846001600160a01b0316600080516020615c77833981519152600085604051614172929190615735565b60006001600160a01b0384163b156147e057604051630a85bd0160e11b81526001600160a01b0385169063150b7a029061472290339089908890889060040161563f565b602060405180830381600087803b15801561473c57600080fd5b505af192505050801561476c575060408051601f3d908101601f1916820190925261476991810190615337565b60015b6147c6573d80801561479a576040519150601f19603f3d011682016040523d82523d6000602084013e61479f565b606091505b5080516147be5760405162461bcd60e51b815260040161094890615772565b805181602001fd5b6001600160e01b031916630a85bd0160e11b1490506135e8565b506001949350505050565b6060604051806060016040528060228152602001615c3560229139905090565b606061481682612d32565b61487a5760405162461bcd60e51b815260206004820152602f60248201527f4552433732314d657461646174613a2055524920717565727920666f72206e6f60448201526e3732bc34b9ba32b73a103a37b5b2b760891b6064820152608401610948565b60006148846147eb565b905060008151116148a45760405180602001604052806000815250612afa565b806148ae84614b9a565b6040516020016148bf929190615569565b6040516020818303038152906040529392505050565b60008260000182815481106148fa57634e487b7160e01b600052603260045260246000fd5b9060005260206000200154905092915050565b6001600160a01b0382166149635760405162461bcd60e51b815260206004820181905260248201527f4552433732313a206d696e7420746f20746865207a65726f20616464726573736044820152606401610948565b61496c81612d32565b156149b85760405162461bcd60e51b815260206004820152601c60248201527b115490cdcc8c4e881d1bdad95b88185b1c9958591e481b5a5b9d195960221b6044820152606401610948565b6149c460008383614453565b6001600160a01b03821660009081526003602052604081208054600192906149ed9084906159ac565b909155505060008181526002602052604080822080546001600160a01b0319166001600160a01b0386169081179091559051839290600080516020615c57833981519152908290a45050565b6000612afa8383614cb3565b6000818152600b60205260408120905b8154811015610a7957816001016000836000018381548110614a8757634e487b7160e01b600052603260045260246000fd5b60009182526020808320909101546001600160a01b031683528201929092526040018120558154829082908110614ace57634e487b7160e01b600052603260045260246000fd5b600091825260209091200180546001600160a01b031916905580614af181615b74565b915050614a55565b6000612afa8383614d02565b6000614b1082611a78565b9050614b1e81600084614453565b614b29600083612d4f565b6001600160a01b0381166000908152600360205260408120805460019290614b52908490615ae5565b909155505060008281526002602052604080822080546001600160a01b0319169055518391906001600160a01b03841690600080516020615c57833981519152908390a45050565b606081614bbe5750506040805180820190915260018152600360fc1b602082015290565b8160005b8115614be85780614bd281615b74565b9150614be19050600a836159c4565b9150614bc2565b6000816001600160401b03811115614c1057634e487b7160e01b600052604160045260246000fd5b6040519080825280601f01601f191660200182016040528015614c3a576020820181803683370190505b5090505b84156135e857614c4f600183615ae5565b9150614c5c600a86615b8f565b614c679060306159ac565b60f81b818381518110614c8a57634e487b7160e01b600052603260045260246000fd5b60200101906001600160f81b031916908160001a905350614cac600a866159c4565b9450614c3e565b6000818152600183016020526040812054614cfa57508154600181810184556000848152602080822090930184905584548482528286019093526040902091909155610803565b506000610803565b60008181526001830160205260408120548015614e15576000614d26600183615ae5565b8554909150600090614d3a90600190615ae5565b9050818114614dbb576000866000018281548110614d6857634e487b7160e01b600052603260045260246000fd5b9060005260206000200154905080876000018481548110614d9957634e487b7160e01b600052603260045260246000fd5b6000918252602080832090910192909255918252600188019052604090208390555b8554869080614dda57634e487b7160e01b600052603160045260246000fd5b600190038181906000526020600020016000905590558560010160008681526020019081526020016000206000905560019350505050610803565b6000915050610803565b6040805160e081019091528060008152602001600081526020016000815260200160008152602001600081526020016000815260200160006002811115614e7657634e487b7160e01b600052602160045260246000fd5b905290565b828054614e8790615b3f565b90600052602060002090601f016020900481019282614ea95760008555614eef565b82601f10614ec257805160ff1916838001178555614eef565b82800160010185558215614eef579182015b82811115614eef578251825591602001919060010190614ed4565b50614efb929150614eff565b5090565b5b80821115614efb5760008155600101614f00565b60006001600160401b0380841115614f2e57614f2e615be5565b604051601f8501601f19908116603f01168101908282118183101715614f5657614f56615be5565b81604052809350858152868686011115614f6f57600080fd5b858560208301376000602087830101525050509392505050565b60008083601f840112614f9a578182fd5b5081356001600160401b03811115614fb0578182fd5b6020830191508360208260051b8501011115614fcb57600080fd5b9250929050565b80516001600160501b0381168114614fe957600080fd5b919050565b600060208284031215614fff578081fd5b8135612afa81615bfb565b60006020828403121561501b578081fd5b8151612afa81615bfb565b60008060408385031215615038578081fd5b823561504381615bfb565b9150602083013561505381615bfb565b809150509250929050565b600080600060608486031215615072578081fd5b833561507d81615bfb565b9250602084013561508d81615bfb565b929592945050506040919091013590565b600080600080608085870312156150b3578081fd5b84356150be81615bfb565b935060208501356150ce81615bfb565b92506040850135915060608501356001600160401b038111156150ef578182fd5b8501601f810187136150ff578182fd5b61510e87823560208401614f14565b91505092959194509250565b6000806000806080858703121561512f578384fd5b843561513a81615bfb565b9350602085013561514a81615bfb565b93969395505050506040820135916060013590565b600080600080600060a08688031215615176578081fd5b853561518181615bfb565b9450602086013561519181615bfb565b94979496505050506040830135926060810135926080909101359150565b600080604083850312156151c1578182fd5b82356151cc81615bfb565b9150602083013561505381615c10565b600080604083850312156151ee578182fd5b82356151f981615bfb565b946020939093013593505050565b60008060006060848603121561521b578081fd5b833561522681615bfb565b95602085013595506040909401359392505050565b6000806020838503121561524d578182fd5b82356001600160401b03811115615262578283fd5b61526e85828601614f89565b90969095509350505050565b60008060006040848603121561528e578081fd5b83356001600160401b038111156152a3578182fd5b6152af86828701614f89565b909790965060209590950135949350505050565b6000602082840312156152d4578081fd5b8151612afa81615c10565b6000602082840312156152f0578081fd5b5035919050565b60008060408385031215615309578182fd5b82359150602083013561505381615bfb565b60006020828403121561532c578081fd5b8135612afa81615c1e565b600060208284031215615348578081fd5b8151612afa81615c1e565b600060208284031215615364578081fd5b5051919050565b60008060008060808587031215615380578182fd5b84359350602085013561539281615bfb565b925060408501356001600160401b038111156153ac578283fd5b8501601f810187136153bc578283fd5b6153cb87823560208401614f14565b9250506060850135600281106153df578182fd5b939692955090935050565b6000806000604084860312156153fe578081fd5b8335925060208401356001600160401b0381111561541a578182fd5b61542686828701614f89565b9497909650939450505050565b60008060408385031215615445578182fd5b50508035926020909101359150565b600080600060608486031215615468578081fd5b8351925060208401519150604084015190509250925092565b60008060008060808587031215615496578182fd5b8435935060208501359250604085013591506060850135600381106153df578182fd5b600080600080600060a086880312156154d0578283fd5b6154d986614fd2565b94506020860151935060408601519250606086015191506154fc60808701614fd2565b90509295509295909350565b600060208284031215615519578081fd5b815160ff81168114612afa578182fd5b60008151808452615541816020860160208601615afc565b601f01601f19169290920160200192915050565b6003811061556557615565615bcf565b9052565b6000835161557b818460208801615afc565b83519083019061558f818360208801615afc565b01949350505050565b76020b1b1b2b9b9a1b7b73a3937b61d1030b1b1b7bab73a1604d1b8152600083516155ca816017850160208801615afc565b7001034b99036b4b9b9b4b733903937b6329607d1b60179184019182015283516155fb816028840160208801615afc565b01602801949350505050565b6001600160a01b0391909116815260200190565b6001600160a01b039384168152919092166020820152604081019190915260600190565b6001600160a01b038581168252841660208201526040810183905260806060820181905260009061567290830184615529565b9695505050505050565b6001600160a01b03929092168252602082015260400190565b6020808252825182820181905260009190848201906040850190845b818110156156cd578351835292840192918401916001016156b1565b50909695505050505050565b602081016108038284615555565b60e08101600489106156fb576156fb615bcf565b8882528760208301528660408301528560608301528460808301528360a083015261572960c0830184615555565b98975050505050505050565b918252602082015260400190565b602081526000612afa6020830184615529565b6020808252600290820152614f3960f01b604082015260600190565b60208082526032908201527f4552433732313a207472616e7366657220746f206e6f6e20455243373231526560408201527131b2b4bb32b91034b6b83632b6b2b73a32b960711b606082015260800190565b60208082526003908201526204f32360ec1b604082015260600190565b6020808252600290820152614f3360f01b604082015260600190565b6020808252600290820152614e3760f01b604082015260600190565b6020808252818101527f4f776e61626c653a2063616c6c6572206973206e6f7420746865206f776e6572604082015260600190565b60208082526031908201527f4552433732313a207472616e736665722063616c6c6572206973206e6f74206f6040820152701ddb995c881b9bdc88185c1c1c9bdd9959607a1b606082015260800190565b6020808252600290820152614f3160f01b604082015260600190565b60208082526002908201526113cd60f21b604082015260600190565b84815260208101849052608081016158f26040830185615555565b821515606083015295945050505050565b848152602081018490526080810161591e6040830185615555565b82606083015295945050505050565b838152826020820152606060408201526000613bfc6060830184615529565b9283526020830191909152604082015260600190565b878152602081018790526040810186905260e081016159846060830187615555565b60808201949094526001600160a01b0392831660a0820152911660c090910152949350505050565b600082198211156159bf576159bf615ba3565b500190565b6000826159d3576159d3615bb9565b500490565b600181815b80851115615a135781600019048211156159f9576159f9615ba3565b80851615615a0657918102915b93841c93908002906159dd565b509250929050565b6000612afa60ff841683600082615a3457506001610803565b81615a4157506000610803565b8160018114615a575760028114615a6157615a7d565b6001915050610803565b60ff841115615a7257615a72615ba3565b50506001821b610803565b5060208310610133831016604e8410600b8410161715615aa0575081810a610803565b615aaa83836159d8565b8060001904821115615abe57615abe615ba3565b029392505050565b6000816000190483118215151615615ae057615ae0615ba3565b500290565b600082821015615af757615af7615ba3565b500390565b60005b83811015615b17578181015183820152602001615aff565b83811115611a725750506000910152565b600081615b3757615b37615ba3565b506000190190565b600181811c90821680615b5357607f821691505b602082108114156108da57634e487b7160e01b600052602260045260246000fd5b6000600019821415615b8857615b88615ba3565b5060010190565b600082615b9e57615b9e615bb9565b500690565b634e487b7160e01b600052601160045260246000fd5b634e487b7160e01b600052601260045260246000fd5b634e487b7160e01b600052602160045260246000fd5b634e487b7160e01b600052604160045260246000fd5b6001600160a01b038116811461155e57600080fd5b801515811461155e57600080fd5b6001600160e01b03198116811461155e57600080fdfe68747470733a2f2f676174657761792e70696e6174612e636c6f75642f697066732fddf252ad1be2c89b69c2b068fc378daa952ba7f163c4a11628f55a4df523b3ef823a343d1c899e61a4db12247636a6882bf1fefae78bef39170f8d0f5b53e456a2646970667358221220f653585cf15c6686f609ef7db9e56ce540b3d0fd297030950b14071d3a4ad1e064736f6c63430008040033",
  "bytecodeSha1": "4002fec7e75cb61c471a56b35c8f0aee6b77f238",
  "compiler": {
    "evm_version": "istanbul",
    "optimizer": {
      "enabled": true,
      "runs": 1
    },
    "version": "0.8.4+commit.c7e474f2"
  },
  "contractName": "BufferEuropeanUSDCTokenXOptions",
  "deployedBytecode": "608060405234801561001057600080fd5b50600436106102a95760003560e01c806301ffc9a7146102ae57806305271a2a146102d657806306517a29146102eb57806306fdde0314610302578063076d948c14610317578063081812fc1461032a578063095ea7b31461034a5780630ee2d59b1461035f57806316dc165b1461037257806316f0115b146103855780631cecaa311461039857806323b872dd146103b957806324600fc3146103cc578063248a9ca3146103d4578063263f3e7e146103e75780632f2ff15d146103fa57806336568abe1461040d578063409e220514610420578063426a84931461048357806342842e0e1461049657806342966c68146104a95780634aed53c2146104bc5780634f558e79146104cf5780636198e339146104e25780636352211e146104f5578063645734e61461050857806369c672471461051057806370a0823114610530578063715018a61461054357806375794a3c1461054b57806378c533ce1461055457806379502c5514610574578063841edc0e1461058757806389a30271146105a75780638a584118146105ba5780638da5cb5b146106055780638dd7d2c11461060d57806391d148541461062057806395d89b4114610633578063a217fddf1461063b578063a22cb46514610643578063a6d14c0214610656578063a88004251461065e578063b07f0a4114610671578063b888879e14610684578063b88d4fde14610697578063bbe33ea5146106aa578063becef607146106bd578063c7c3b53f146106d0578063c87b56dd146106f2578063d149cc3014610705578063d547741f14610718578063d5a0e6731461072b578063dba34e971461074b578063e342b59814610772578063e345e0bc14610785578063e985e9c5146107bf578063f2fde38b146107d2578063fe99049a146107e5575b600080fd5b6102c16102bc36600461531b565b6107f8565b60405190151581526020015b60405180910390f35b600e5460405160ff90911681526020016102cd565b6102f4600d5481565b6040519081526020016102cd565b61030a610809565b6040516102cd9190615743565b6102f46103253660046152df565b61089b565b61033d6103383660046152df565b6108e0565b6040516102cd9190615607565b61035d6103583660046151dc565b61096d565b005b6102f461036d36600461536b565b610a7e565b60115461033d906001600160a01b031681565b60175461033d906001600160a01b031681565b6013546103ac90600160a01b900460ff1681565b6040516102cd91906156d9565b61035d6103c736600461505e565b61137c565b61035d6113ad565b6102f46103e23660046152df565b611561565b6102f46103f53660046152df565b611576565b61035d6104083660046152f7565b611588565b61035d61041b3660046152f7565b6115a5565b61047061042e3660046152df565b601560205260009081526040902080546001820154600283015460038401546004850154600586015460069096015460ff958616969495939492939192911687565b6040516102cd97969594939291906156e7565b61035d610491366004615207565b61161f565b61035d6104a436600461505e565b611663565b61035d6104b73660046152df565b61167e565b61035d6104ca36600461515f565b6116c0565b6102c16104dd3660046152df565b6117e2565b61035d6104f03660046152df565b6117ed565b61033d6105033660046152df565b611a78565b61035d611aef565b61052361051e3660046153ea565b611b79565b6040516102cd9190615695565b6102f461053e366004614fee565b611f6b565b61035d611ff2565b6102f460145481565b6102f46105623660046152df565b600f6020526000908152604090205481565b60185461033d906001600160a01b031681565b6102f46105953660046152df565b60166020526000908152604090205481565b60105461033d906001600160a01b031681565b6105f56105c83660046152df565b60196020526000908152604090208054600182015460029092015490919060ff8082169161010090041684565b6040516102cd94939291906158d7565b61033d61202d565b6102c161061b3660046152df565b61203c565b6102c161062e3660046152f7565b6122c4565b61030a6122ef565b6102f4600081565b61035d6106513660046151af565b6122fe565b6102f4600581565b6102f461066c3660046152df565b6123bf565b6102f461067f3660046152df565b6123d6565b60135461033d906001600160a01b031681565b61035d6106a536600461509e565b612740565b61035d6106b836600461527a565b612773565b6102f46106cb3660046152df565b612982565b6106e36106de366004615481565b612994565b6040516102cd9392919061594c565b61030a6107003660046152df565b612ad7565b6102f4610713366004615433565b612ae2565b61035d6107263660046152f7565b612b01565b6102f46107393660046152df565b600a6020526000908152604090205481565b6102f47fdeb3b49547f710c56a925b6e16e3557a50fab4dd8f243bc314f3afba2054ec5b81565b61035d61078036600461523b565b612b1e565b6102f46107933660046152f7565b6000828152600b602090815260408083206001600160a01b038516845260010190915290205492915050565b6102c16107cd366004615026565b612b6b565b61035d6107e0366004614fee565b612b99565b6102f46107f336600461511a565b612c36565b600061080382612d0d565b92915050565b60606000805461081890615b3f565b80601f016020809104026020016040519081016040528092919081815260200182805461084490615b3f565b80156108915780601f1061086657610100808354040283529160200191610891565b820191906000526020600020905b81548152906001019060200180831161087457829003601f168201915b5050505050905090565b6000805b6108a8836123bf565b8110156108da576108bc6106cb8483612ae2565b6108c690836159ac565b9150806108d281615b74565b91505061089f565b50919050565b60006108eb82612d32565b6109515760405162461bcd60e51b815260206004820152602c60248201527f4552433732313a20617070726f76656420717565727920666f72206e6f6e657860448201526b34b9ba32b73a103a37b5b2b760a11b60648201526084015b60405180910390fd5b506000908152600460205260409020546001600160a01b031690565b600061097882611a78565b9050806001600160a01b0316836001600160a01b031614156109e65760405162461bcd60e51b815260206004820152602160248201527f4552433732313a20617070726f76616c20746f2063757272656e74206f776e656044820152603960f91b6064820152608401610948565b336001600160a01b0382161480610a025750610a028133612b6b565b610a6f5760405162461bcd60e51b815260206004820152603860248201527f4552433732313a20617070726f76652063616c6c6572206973206e6f74206f776044820152771b995c881b9bdc88185c1c1c9bdd995908199bdc88185b1b60421b6064820152608401610948565b610a798383612d4f565b505050565b600060026007541415610ad35760405162461bcd60e51b815260206004820152601f60248201527f5265656e7472616e637947756172643a207265656e7472616e742063616c6c006044820152606401610948565b60026007556017546040805163a834069b60e01b815290516000926001600160a01b03169163a834069b916004808301926020929190829003018186803b158015610b1d57600080fd5b505afa158015610b31573d6000803e3d6000fd5b505050506040513d601f19601f82011682018060405250810190610b559190615353565b9050428111610b765760405162461bcd60e51b81526004016109489061589f565b6000610b824283615ae5565b90506000601360009054906101000a90046001600160a01b03166001600160a01b0316631acf55826040518163ffffffff1660e01b815260040160206040518083038186803b158015610bd457600080fd5b505afa158015610be8573d6000803e3d6000fd5b505050506040513d601f19601f82011682018060405250810190610c0c9190615353565b905061a8c0821015610c305760405162461bcd60e51b81526004016109489061589f565b6000806000610cd2858c601860009054906101000a90046001600160a01b03166001600160a01b0316635ee971016040518163ffffffff1660e01b815260040160206040518083038186803b158015610c8857600080fd5b505afa158015610c9c573d6000803e3d6000fd5b505050506040513d601f19601f82011682018060405250810190610cc09190615353565b601354600160a01b900460ff16612994565b919450925090506005610ce5868d615ac6565b610cef9190615ac6565b610cfd846301e13380615ac6565b610d08906064615ac6565b11610d3a5760405162461bcd60e51b8152602060048201526002602482015261279960f11b6044820152606401610948565b6001886001811115610d5c57634e487b7160e01b600052602160045260246000fd5b1415610e0e576011546040516323b872dd60e01b81526000916001600160a01b0316906323b872dd90610d979033903090899060040161561b565b602060405180830381600087803b158015610db157600080fd5b505af1158015610dc5573d6000803e3d6000fd5b505050506040513d601f19601f82011682018060405250810190610de991906152c3565b905080610e085760405162461bcd60e51b8152600401610948906157e1565b50611132565b6011546040516370a0823160e01b815284916001600160a01b0316906370a0823190610e3e903090600401615607565b60206040518083038186803b158015610e5657600080fd5b505afa158015610e6a573d6000803e3d6000fd5b505050506040513d601f19601f82011682018060405250810190610e8e9190615353565b1015610ec25760405162461bcd60e51b81526020600482015260036024820152624f313560e81b6044820152606401610948565b60105460175460408051632911d73960e21b815290516000936001600160a01b03908116936323b872dd933393919092169163a4475ce4916004808301926020929190829003018186803b158015610f1957600080fd5b505afa158015610f2d573d6000803e3d6000fd5b505050506040513d601f19601f82011682018060405250810190610f51919061500a565b6305f5e10089601160009054906101000a90046001600160a01b03166001600160a01b031663313ce5676040518163ffffffff1660e01b815260040160206040518083038186803b158015610fa557600080fd5b505afa158015610fb9573d6000803e3d6000fd5b505050506040513d601f19601f82011682018060405250810190610fdd9190615508565b610fe890600a615a1b565b601060009054906101000a90046001600160a01b03166001600160a01b031663313ce5676040518163ffffffff1660e01b815260040160206040518083038186803b15801561103657600080fd5b505afa15801561104a573d6000803e3d6000fd5b505050506040513d601f19601f8201168201806040525081019061106e9190615508565b61107990600a615a1b565b611083908c615ac6565b61108d91906159c4565b6110979190615ac6565b6110a191906159c4565b6040518463ffffffff1660e01b81526004016110bf9392919061561b565b602060405180830381600087803b1580156110d957600080fd5b505af11580156110ed573d6000803e3d6000fd5b505050506040513d601f19601f8201168201806040525081019061111191906152c3565b9050806111305760405162461bcd60e51b8152600401610948906157e1565b505b6040805160e081018252600181526018548251635ee9710160e01b815292516000936020808501936001600160a01b031692635ee97101926004808201939291829003018186803b15801561118657600080fd5b505afa15801561119a573d6000803e3d6000fd5b505050506040513d601f19601f820116820180604052508101906111be9190615353565b81526020018d81526020016064601860009054906101000a90046001600160a01b03166001600160a01b031663302ce6516040518163ffffffff1660e01b815260040160206040518083038186803b15801561121957600080fd5b505afa15801561122d573d6000803e3d6000fd5b505050506040513d601f19601f820116820180604052508101906112519190615353565b8f61125c9190615ac6565b61126691906159c4565b81526020810184905260400161127c88426159ac565b8152602001601360149054906101000a900460ff1660028111156112b057634e487b7160e01b600052602160045260246000fd5b905290506112bc612dbd565b97506112c88882612dd7565b6112f588336112f08b85602001518660a00151601360149054906101000a900460ff16612e8f565b612fcd565b6112ff888b612ff0565b600061130b848d612ffa565b905061132089836060015184608001516134bb565b336001600160a01b0316897f89f823a0225c73a75066e963ce2eea7708b57680ec86102773dbd244f541289283888f60405161135e9392919061592d565b60405180910390a35050600160075550949998505050505050505050565b6113863382613526565b6113a25760405162461bcd60e51b81526004016109489061584e565b610a798383836135f0565b336113b661202d565b6001600160a01b0316146113dc5760405162461bcd60e51b815260040161094890615819565b6011546040516370a0823160e01b81526000916001600160a01b0316906370a082319061140d903090600401615607565b60206040518083038186803b15801561142557600080fd5b505afa158015611439573d6000803e3d6000fd5b505050506040513d601f19601f8201168201806040525081019061145d9190615353565b9050801561155e5760115460175460408051632911d73960e21b815290516001600160a01b039384169363a9059cbb93169163a4475ce4916004808301926020929190829003018186803b1580156114b457600080fd5b505afa1580156114c8573d6000803e3d6000fd5b505050506040513d601f19601f820116820180604052508101906114ec919061500a565b836040518363ffffffff1660e01b815260040161150a92919061567c565b602060405180830381600087803b15801561152457600080fd5b505af1158015611538573d6000803e3d6000fd5b505050506040513d601f19601f8201168201806040525081019061155c91906152c3565b505b50565b60009081526008602052604090206001015490565b6000908152600a602052604090205490565b61159182611561565b61159b8133613789565b610a7983836137ed565b6001600160a01b03811633146116155760405162461bcd60e51b815260206004820152602f60248201527f416363657373436f6e74726f6c3a2063616e206f6e6c792072656e6f756e636560448201526e103937b632b9903337b91039b2b63360891b6064820152608401610948565b61155c8282613873565b61162882611a78565b6001600160a01b0316336001600160a01b0316146116585760405162461bcd60e51b815260040161094890615756565b610a798383836138da565b610a7983838360405180602001604052806000815250612740565b61168781611a78565b6001600160a01b0316336001600160a01b0316146116b75760405162461bcd60e51b815260040161094890615756565b61155e8161399f565b6116c9826117e2565b6116fb5760405162461bcd60e51b815260206004820152600360248201526227189960e91b6044820152606401610948565b600080600061170a86856139b7565b50925092509250600061171c86613ae4565b9050611758868284846060015161173391906159ac565b87856040015161174391906159ac565b87866080015161175391906159ac565b613bd3565b601754606082015160808301516040516357a5c96760e01b81529394506001600160a01b03909216926357a5c96792611798928b9290919060040161594c565b600060405180830381600087803b1580156117b257600080fd5b505af11580156117c6573d6000803e3d6000fd5b505050506117d78989898989613c05565b505050505050505050565b600061080382612d32565b6000818152601560205260409020600581015442101561181f5760405162461bcd60e51b8152600401610948906158bb565b6001815460ff16600381111561184557634e487b7160e01b600052602160045260246000fd5b146118775760405162461bcd60e51b81526020600482015260026024820152614f3560f01b6044820152606401610948565b6005810154600090815260166020526040902054806118a85760405162461bcd60e51b8152600401610948906157c4565b6013546040516303906d2960e11b8152600481018390526000916001600160a01b031690630720da529060240160a06040518083038186803b1580156118ed57600080fd5b505afa158015611901573d6000803e3d6000fd5b505050506040513d601f19601f8201168201806040525081019061192591906154b9565b5091935060029250611935915050565b600684015460ff16600281111561195c57634e487b7160e01b600052602160045260246000fd5b14801561196d575082600101548110155b806119ad57506001600684015460ff16600281111561199c57634e487b7160e01b600052602160045260246000fd5b1480156119ad575082600101548111155b156119c1576119bb846123d6565b50611a72565b825460ff19166003178355601754604051636198e33960e01b8152600481018690526001600160a01b0390911690636198e33990602401600060405180830381600087803b158015611a1257600080fd5b505af1158015611a26573d6000803e3d6000fd5b50505050611a338461399f565b837f5f36a4a575e512eb69d6d28c3b0ff98cca7ba50ad5bf04e14094ad1d425e0d318460040154604051611a6991815260200190565b60405180910390a25b50505050565b6000818152600260205260408120546001600160a01b0316806108035760405162461bcd60e51b815260206004820152602960248201527f4552433732313a206f776e657220717565727920666f72206e6f6e657869737460448201526832b73a103a37b5b2b760b91b6064820152608401610948565b60115460175460405163095ea7b360e01b81526001600160a01b039283169263095ea7b392611b27929116906000199060040161567c565b602060405180830381600087803b158015611b4157600080fd5b505af1158015611b55573d6000803e3d6000fd5b505050506040513d601f19601f8201168201806040525081019061155e91906152c3565b606081611bad5760405162461bcd60e51b81526020600482015260026024820152614e3160f01b6044820152606401610948565b816001600160401b03811115611bd357634e487b7160e01b600052604160045260246000fd5b604051908082528060200260200182016040528015611bfc578160200160208202803683370190505b5090506000611c0a85613ae4565b90506000611c1786612982565b905060008080805b87811015611e2a576000611c31612dbd565b905080888381518110611c5457634e487b7160e01b600052603260045260246000fd5b602002602001018181525050611c918b828c8c86818110611c8557634e487b7160e01b600052603260045260246000fd5b90506020020135613e4b565b6000868b8b85818110611cb457634e487b7160e01b600052603260045260246000fd5b905060200201358960400151611cca9190615ac6565b611cd491906159c4565b9050611ce081876159ac565b95506000878c8c86818110611d0557634e487b7160e01b600052603260045260246000fd5b905060200201358a60600151611d1b9190615ac6565b611d2591906159c4565b9050611d3181876159ac565b95506000888d8d87818110611d5657634e487b7160e01b600052603260045260246000fd5b905060200201358b60800151611d6c9190615ac6565b611d7691906159c4565b9050611d8281876159ac565b955060006040518060e001604052808c600001516003811115611db557634e487b7160e01b600052602160045260246000fd5b81526020018c6020015181526020018581526020018481526020018381526020018c60a0015181526020018c60c001516002811115611e0457634e487b7160e01b600052602160045260246000fd5b90529050611e128582612dd7565b50505050508080611e2290615b74565b915050611c1f565b50611e608986848860600151611e409190615ae5565b868960400151611e509190615ae5565b858a608001516117539190615ae5565b601754606082015160808301516040516357a5c96760e01b81529398506001600160a01b03909216926357a5c96792611ea0928e9290919060040161594c565b600060405180830381600087803b158015611eba57600080fd5b505af1158015611ece573d6000803e3d6000fd5b5050505060005b87811015611f5e576000611f0f888381518110611f0257634e487b7160e01b600052603260045260246000fd5b6020026020010151613ae4565b9050611f4b888381518110611f3457634e487b7160e01b600052603260045260246000fd5b6020026020010151826060015183608001516134bb565b5080611f5681615b74565b915050611ed5565b5050505050509392505050565b60006001600160a01b038216611fd65760405162461bcd60e51b815260206004820152602a60248201527f4552433732313a2062616c616e636520717565727920666f7220746865207a65604482015269726f206164647265737360b01b6064820152608401610948565b506001600160a01b031660009081526003602052604090205490565b33611ffb61202d565b6001600160a01b0316146120215760405162461bcd60e51b815260040161094890615819565b61202b6000613f75565b565b6006546001600160a01b031690565b6013546040516303906d2960e11b815260048101839052600091829182916001600160a01b031690630720da529060240160a06040518083038186803b15801561208557600080fd5b505afa158015612099573d6000803e3d6000fd5b505050506040513d601f19601f820116820180604052508101906120bd91906154b9565b509350509250506000601760009054906101000a90046001600160a01b03166001600160a01b031663a834069b6040518163ffffffff1660e01b815260040160206040518083038186803b15801561211457600080fd5b505afa158015612128573d6000803e3d6000fd5b505050506040513d601f19601f8201168201806040525081019061214c9190615353565b90508181106121825760405162461bcd60e51b8152602060048201526002602482015261433160f01b6044820152606401610948565b600061218f600187615ae5565b90505b846122bb576013546040516303906d2960e11b8152600481018390526000916001600160a01b031690630720da529060240160a06040518083038186803b1580156121dc57600080fd5b505afa1580156121f0573d6000803e3d6000fd5b505050506040513d601f19601f8201168201806040525081019061221491906154b9565b509350505050806000141561226a57600082116122585760405162461bcd60e51b8152602060048201526002602482015261433360f01b6044820152606401610948565b612263600183615ae5565b91506122b5565b8281111561229f5760405162461bcd60e51b815260206004820152600260248201526110cd60f21b6044820152606401610948565b6000838152601660205260409020829055600195505b50612192565b50505050919050565b60009182526008602090815260408084206001600160a01b0393909316845291905290205460ff1690565b60606001805461081890615b3f565b6001600160a01b0382163314156123535760405162461bcd60e51b815260206004820152601960248201527822a9219b99189d1030b8383937bb32903a379031b0b63632b960391b6044820152606401610948565b3360008181526005602090815260408083206001600160a01b03871680855290835292819020805460ff191686151590811790915590519081529192917f17307eab39ab6107e8899845ad3d59bd9653f200f220920489ca2b5937696c31910160405180910390a35050565b6000818152600c6020526040812061080390613fc7565b60006123e1826117e2565b6124135760405162461bcd60e51b815260206004820152600360248201526204f31360ec1b6044820152606401610948565b600082815260156020526040902060058101544210156124455760405162461bcd60e51b8152600401610948906158bb565b6001815460ff16600381111561246b57634e487b7160e01b600052602160045260246000fd5b1461249e5760405162461bcd60e51b815260206004820152600360248201526213cc4d60ea1b6044820152606401610948565b6005810154600090815260166020526040902054806124cf5760405162461bcd60e51b8152600401610948906157c4565b6013546040516303906d2960e11b8152600481018390526000916001600160a01b031690630720da529060240160a06040518083038186803b15801561251457600080fd5b505afa158015612528573d6000803e3d6000fd5b505050506040513d601f19601f8201168201806040525081019061254c91906154b9565b509193506002925061255c915050565b600684015460ff16600281111561258357634e487b7160e01b600052602160045260246000fd5b14156125f45780836001015411156125c35760405162461bcd60e51b81526020600482015260036024820152624f313760e81b6044820152606401610948565b8083600201548460010154836125d99190615ae5565b6125e39190615ac6565b6125ed91906159c4565b935061265b565b808360010154101561262e5760405162461bcd60e51b815260206004820152600360248201526209e62760eb1b6044820152606401610948565b8083600201548285600101546126449190615ae5565b61264e9190615ac6565b61265891906159c4565b93505b826003015484111561266f57826003015493505b6017546001600160a01b03166381b34f158661268a81611a78565b6040516001600160e01b031960e085901b16815260048101929092526001600160a01b0316602482015260448101879052606401600060405180830381600087803b1580156126d857600080fd5b505af11580156126ec573d6000803e3d6000fd5b505050506126f98561399f565b825460ff1916600217835560405184815285907e84fe51c7cb34b132b7b6eb5d5a87a489f8d6d284758d00a0402c1bad9a0def9060200160405180910390a2505050919050565b61274b335b83613526565b6127675760405162461bcd60e51b81526004016109489061584e565b611a7284848484613fd1565b816127a55760405162461bcd60e51b8152602060048201526002602482015261138d60f21b6044820152606401610948565b60006127b082613ae4565b606081015160408201516080830151929350909160005b868110156129045760006128008989848181106127f457634e487b7160e01b600052603260045260246000fd5b90506020020135613ae4565b905080606001518561281291906159ac565b945080604001518461282491906159ac565b935080608001518361283691906159ac565b6017549093506001600160a01b0316630dbf21b08a8a8581811061286a57634e487b7160e01b600052603260045260246000fd5b905060200201356040518263ffffffff1660e01b815260040161288f91815260200190565b600060405180830381600087803b1580156128a957600080fd5b505af11580156128bd573d6000803e3d6000fd5b505050506128f18989848181106128e457634e487b7160e01b600052603260045260246000fd5b9050602002013588614004565b50806128fc81615b74565b9150506127c7565b506129128585858585613bd3565b506017546040516357a5c96760e01b81526001600160a01b03909116906357a5c967906129479088908790869060040161594c565b600060405180830381600087803b15801561296157600080fd5b505af1158015612975573d6000803e3d6000fd5b5050505050505050505050565b6000908152600f602052604090205490565b600080600080601360009054906101000a90046001600160a01b03166001600160a01b0316631acf55826040518163ffffffff1660e01b815260040160206040518083038186803b1580156129e857600080fd5b505afa1580156129fc573d6000803e3d6000fd5b505050506040513d601f19601f82011682018060405250810190612a209190615353565b6018546017546040516304e2a02960e31b815292935073__$b949255e90277c788dcf25edf1f9288c61$__92632715014892612a76928d928d928d928d928a926001600160a01b03908116921690600401615962565b60606040518083038186803b158015612a8e57600080fd5b505af4158015612aa2573d6000803e3d6000fd5b505050506040513d601f19601f82011682018060405250810190612ac69190615454565b919a90995090975095505050505050565b606061080382614180565b6000828152600c60205260408120612afa90836142e2565b9392505050565b612b0a82611561565b612b148133613789565b610a798383613873565b8060005b81811015611a7257612b59848483818110612b4d57634e487b7160e01b600052603260045260246000fd5b905060200201356117ed565b80612b6381615b74565b915050612b22565b6001600160a01b03918216600090815260056020908152604080832093909416825291909152205460ff1690565b33612ba261202d565b6001600160a01b031614612bc85760405162461bcd60e51b815260040161094890615819565b6001600160a01b038116612c2d5760405162461bcd60e51b815260206004820152602660248201527f4f776e61626c653a206e6577206f776e657220697320746865207a65726f206160448201526564647265737360d01b6064820152608401610948565b61155e81613f75565b6000612c40612dbd565b9050600080600080612c5287876139b7565b935093509350935060006040518060e0016040528083600001516003811115612c8b57634e487b7160e01b600052602160045260246000fd5b8152602001836020015181526020018681526020018481526020018581526020018360a0015181526020018360c001516002811115612cda57634e487b7160e01b600052602160045260246000fd5b90529050612ce88682612dd7565b612cf38684866134bb565b612d008a8a8a898b613c05565b5050505050949350505050565b60006001600160e01b03198216637965db0b60e01b14806108035750610803826142ee565b6000908152600260205260409020546001600160a01b0316151590565b600081815260046020526040902080546001600160a01b0319166001600160a01b0384169081179091558190612d8482611a78565b6001600160a01b03167f8c5be1e5ebec7d5bd14f71427d1e84f3dd0314c0f7b2291e5b200ac8c7c3b92560405160405180910390a45050565b6014805460009182612dce83615b74565b91905055905090565b60008281526015602052604090208151815483929190829060ff19166001836003811115612e1557634e487b7160e01b600052602160045260246000fd5b02179055506020820151816001015560408201518160020155606082015181600301556080820151816004015560a0820151816005015560c08201518160060160006101000a81548160ff02191690836002811115612e8457634e487b7160e01b600052602160045260246000fd5b021790555050505050565b600083838387604051602001612ea89493929190615903565b60408051808303601f19018152918152815160209283012060008181526019909352912060020154909150610100900460ff1615612f0e5760405162461bcd60e51b8152602060048201526003602482015262138c4d60ea1b6044820152606401610948565b6040518060800160405280858152602001848152602001836002811115612f4557634e487b7160e01b600052602160045260246000fd5b815260016020918201819052600084815260198352604090819020845181559284015183830155830151600280840180549293909260ff1916918490811115612f9e57634e487b7160e01b600052602160045260246000fd5b021790555060609190910151600290910180549115156101000261ff0019909216919091179055949350505050565b6000838152600a60205260409020819055600d54610a799083908590849061433e565b61155c82826143c8565b60006064601860009054906101000a90046001600160a01b03166001600160a01b031663ca535c3b6040518163ffffffff1660e01b815260040160206040518083038186803b15801561304c57600080fd5b505afa158015613060573d6000803e3d6000fd5b505050506040513d601f19601f820116820180604052508101906130849190615353565b61308e9085615ac6565b61309891906159c4565b905080156131995760115460185460408051630605cc7760e21b815290516001600160a01b039384169363a9059cbb93169163181731dc916004808301926020929190829003018186803b1580156130ef57600080fd5b505afa158015613103573d6000803e3d6000fd5b505050506040513d601f19601f82011682018060405250810190613127919061500a565b836040518363ffffffff1660e01b815260040161314592919061567c565b602060405180830381600087803b15801561315f57600080fd5b505af1158015613173573d6000803e3d6000fd5b505050506040513d601f19601f8201168201806040525081019061319791906152c3565b505b60006131a58285615ae5565b905080156134b45760185460408051634905129f60e11b815290516000926001600160a01b03169163920a253e916004808301926020929190829003018186803b1580156131f257600080fd5b505afa158015613206573d6000803e3d6000fd5b505050506040513d601f19601f8201168201806040525081019061322a9190615353565b118015613250575061323a61202d565b6001600160a01b0316836001600160a01b031614155b801561326557506001600160a01b0383163314155b156133df5760006064601860009054906101000a90046001600160a01b03166001600160a01b031663920a253e6040518163ffffffff1660e01b815260040160206040518083038186803b1580156132bc57600080fd5b505afa1580156132d0573d6000803e3d6000fd5b505050506040513d601f19601f820116820180604052508101906132f49190615353565b6132fe9084615ac6565b61330891906159c4565b90506133148183615ae5565b60115460405163a9059cbb60e01b81529193506001600160a01b03169063a9059cbb90613347908790859060040161567c565b602060405180830381600087803b15801561336157600080fd5b505af1158015613375573d6000803e3d6000fd5b505050506040513d601f19601f8201168201806040525081019061339991906152c3565b50836001600160a01b03167f2fc41b7d7df3272c17d9b581fcf235307bc027599c6ed68442c4100bd3a84198826040516133d591815260200190565b60405180910390a2505b6011546001600160a01b031663a9059cbb6133f861202d565b836040518363ffffffff1660e01b815260040161341692919061567c565b602060405180830381600087803b15801561343057600080fd5b505af1158015613444573d6000803e3d6000fd5b505050506040513d601f19601f8201168201806040525081019061346891906152c3565b5061347161202d565b6001600160a01b03167ff0f0487d8990103573e0e5cf4e87e101e2a1ba84c733c556b7a5807e570e5d4c826040516134ab91815260200190565b60405180910390a25b5092915050565b60175460405163edd0d42160e01b81526001600160a01b039091169063edd0d421906134ef9086908690869060040161594c565b600060405180830381600087803b15801561350957600080fd5b505af115801561351d573d6000803e3d6000fd5b50505050505050565b600061353182612d32565b6135925760405162461bcd60e51b815260206004820152602c60248201527f4552433732313a206f70657261746f7220717565727920666f72206e6f6e657860448201526b34b9ba32b73a103a37b5b2b760a11b6064820152608401610948565b600061359d83611a78565b9050806001600160a01b0316846001600160a01b031614806135d85750836001600160a01b03166135cd846108e0565b6001600160a01b0316145b806135e857506135e88185612b6b565b949350505050565b826001600160a01b031661360382611a78565b6001600160a01b03161461366b5760405162461bcd60e51b815260206004820152602960248201527f4552433732313a207472616e73666572206f6620746f6b656e2074686174206960448201526839903737ba1037bbb760b91b6064820152608401610948565b6001600160a01b0382166136cd5760405162461bcd60e51b8152602060048201526024808201527f4552433732313a207472616e7366657220746f20746865207a65726f206164646044820152637265737360e01b6064820152608401610948565b6136d8838383614453565b6136e3600082612d4f565b6001600160a01b038316600090815260036020526040812080546001929061370c908490615ae5565b90915550506001600160a01b038216600090815260036020526040812080546001929061373a9084906159ac565b909155505060008181526002602052604080822080546001600160a01b0319166001600160a01b038681169182179092559151849391871691600080516020615c5783398151915291a4505050565b61379382826122c4565b61155c576137ab816001600160a01b0316601461446b565b6137b683602061446b565b6040516020016137c7929190615598565b60408051601f198184030181529082905262461bcd60e51b825261094891600401615743565b6137f782826122c4565b61155c5760008281526008602090815260408083206001600160a01b03851684529091529020805460ff1916600117905561382f3390565b6001600160a01b0316816001600160a01b0316837f2f8788117e7eff1d82e926ec794901d17c78024a50270940304540a733656f0d60405160405180910390a45050565b61387d82826122c4565b1561155c5760008281526008602090815260408083206001600160a01b0385168085529252808320805460ff1916905551339285917ff6391f5c32d9c69d2a47ea670b442974b53935d1edc7fd64eb21e047a839171b9190a45050565b6000828152600b602090815260408083206001600160a01b038716845260010190915290205461393c576000828152600b602090815260408220805460018101825590835291200180546001600160a01b0319166001600160a01b0385161790555b6000828152600b602090815260408083206001600160a01b0387168085526001909101835292819020849055518381528492917f8a156bd946dc74ec284c5f4b365ce75ef2a5b9d9462b4cdb1d2400cabf136541910160405180910390a3505050565b6000818152600a602052604081205561155e8161464c565b60008060006139c4614e1f565b6139cd86613ae4565b905060006139da87612982565b9050808683604001516139ed9190615ac6565b6139f791906159c4565b945080868360800151613a0a9190615ac6565b613a1491906159c4565b935080868360600151613a279190615ac6565b613a3191906159c4565b9250613a688783858560600151613a489190615ae5565b888660400151613a589190615ae5565b8887608001516117539190615ae5565b601754606082015160808301516040516357a5c96760e01b81529395506001600160a01b03909216926357a5c96792613aa8928c9290919060040161594c565b600060405180830381600087803b158015613ac257600080fd5b505af1158015613ad6573d6000803e3d6000fd5b505050505092959194509250565b613aec614e1f565b60008281526015602052604090819020815160e081019092528054829060ff166003811115613b2b57634e487b7160e01b600052602160045260246000fd5b6003811115613b4a57634e487b7160e01b600052602160045260246000fd5b81526001820154602082015260028083015460408301526003830154606083015260048301546080830152600583015460a0830152600683015460c09092019160ff1690811115613bab57634e487b7160e01b600052602160045260246000fd5b6002811115613bca57634e487b7160e01b600052602160045260246000fd5b90525092915050565b613bdb614e1f565b5060608401839052604084018290526080840181905283613bfc8682612dd7565b95945050505050565b613c0e83611a78565b6001600160a01b0316856001600160a01b031614613c535760405162461bcd60e51b81526020600482015260026024820152614e3960f01b6044820152606401610948565b6001600160a01b038416613c8f5760405162461bcd60e51b815260206004820152600360248201526204e31360ec1b6044820152606401610948565b336001600160a01b03861614801590613caf5750613cad8533612b6b565b155b15613cfa576000838152600b60209081526040808320338452600101909152902054613cdc908290615ae5565b6000848152600b602090815260408083203384526001019091529020555b6000838152600f6020526040902054613d14908290615ae5565b6000848152600f6020526040902055613d2c82612d32565b613d4957613d448483613d3e86611576565b8461433e565b613df1565b836001600160a01b0316613d5c83611a78565b6001600160a01b031614613d985760405162461bcd60e51b81526020600482015260036024820152624e313160e81b6044820152606401610948565b613da182611576565b613daa84611576565b14613dc75760405162461bcd60e51b8152600401610948906157fd565b6000828152600f6020526040902054613de19082906159ac565b6000838152600f60205260409020555b6000838152600a60205260408082205484835291819020919091555183906001600160a01b038087169190881690600080516020615c7783398151915290613e3c9087908790615735565b60405180910390a45050505050565b613e553384613526565b613e865760405162461bcd60e51b8152602060048201526002602482015261271960f11b6044820152606401610948565b613e8f82612d32565b15613ec15760405162461bcd60e51b81526020600482015260026024820152614e3360f01b6044820152606401610948565b613ee082613ece85611576565b6000918252600a602052604090912055565b6000838152600f6020526040902054613efa908290615ae5565b6000848152600f6020526040812091909155613f1584611a78565b9050613f2b8184613f2587611576565b8561433e565b83816001600160a01b03167ff66885c33d648fcd0d97e0f2a18e30102169c22763473af0fb716f11b4a17dd68585604051613f67929190615735565b60405180910390a350505050565b600680546001600160a01b038381166001600160a01b0319831681179093556040519116919082907f8be0079c531659141344cd1fd0a4f28419497f9722a3daafe3b4186f6b6457e090600090a35050565b6000610803825490565b613fdc8484846135f0565b613fe8848484846146de565b611a725760405162461bcd60e51b815260040161094890615772565b61400d33612745565b61403e5760405162461bcd60e51b81526020600482015260026024820152614e3560f01b6044820152606401610948565b808214156140735760405162461bcd60e51b8152602060048201526002602482015261271b60f11b6044820152606401610948565b61407c81611576565b61408583611576565b146140a25760405162461bcd60e51b8152600401610948906157fd565b60006140ad83611a78565b90506140b882611a78565b6001600160a01b0316816001600160a01b0316146140fd5760405162461bcd60e51b815260206004820152600260248201526109c760f31b6044820152606401610948565b6000838152600f60205260408082205484835291205461411d90826159ac565b6000848152600f60205260409020556141358461399f565b8284836001600160a01b03167fb3ce851d16b3bbec3774d5631a3893dfa2a80e067cfad265dd594402ac3d60968460405161417291815260200190565b60405180910390a450505050565b606061418b82612d32565b6141f15760405162461bcd60e51b815260206004820152603160248201527f45524337323155524953746f726167653a2055524920717565727920666f72206044820152703737b732bc34b9ba32b73a103a37b5b2b760791b6064820152608401610948565b6000828152600960205260408120805461420a90615b3f565b80601f016020809104026020016040519081016040528092919081815260200182805461423690615b3f565b80156142835780601f1061425857610100808354040283529160200191614283565b820191906000526020600020905b81548152906001019060200180831161426657829003601f168201915b5050505050905060006142946147eb565b90508051600014156142a7575092915050565b8151156142d95780826040516020016142c1929190615569565b60405160208183030381529060405292505050919050565b6135e88461480b565b6000612afa83836148d5565b60006001600160e01b031982166380ac58cd60e01b148061431f57506001600160e01b03198216635b5e139f60e01b145b8061080357506301ffc9a760e01b6001600160e01b0319831614610803565b61434783612d32565b61436f57614355848461490d565b6000828152600c6020526040902061436d9084614a39565b505b6000838152600f60205260409020546143899082906159ac565b6000848152600f60205260408082209290925590516001600160a01b038616908290600080516020615c77833981519152906141729088908790615735565b6143d182612d32565b6144345760405162461bcd60e51b815260206004820152602e60248201527f45524337323155524953746f726167653a2055524920736574206f66206e6f6e60448201526d32bc34b9ba32b73a103a37b5b2b760911b6064820152608401610948565b60008281526009602090815260409091208251610a7992840190614e7b565b6001600160a01b03831615610a7957610a7981614a45565b6060600061447a836002615ac6565b6144859060026159ac565b6001600160401b038111156144aa57634e487b7160e01b600052604160045260246000fd5b6040519080825280601f01601f1916602001820160405280156144d4576020820181803683370190505b509050600360fc1b816000815181106144fd57634e487b7160e01b600052603260045260246000fd5b60200101906001600160f81b031916908160001a905350600f60fb1b8160018151811061453a57634e487b7160e01b600052603260045260246000fd5b60200101906001600160f81b031916908160001a905350600061455e846002615ac6565b6145699060016159ac565b90505b60018111156145fd576f181899199a1a9b1b9c1cb0b131b232b360811b85600f16601081106145ab57634e487b7160e01b600052603260045260246000fd5b1a60f81b8282815181106145cf57634e487b7160e01b600052603260045260246000fd5b60200101906001600160f81b031916908160001a90535060049490941c936145f681615b28565b905061456c565b508315612afa5760405162461bcd60e51b815260206004820181905260248201527f537472696e67733a20686578206c656e67746820696e73756666696369656e746044820152606401610948565b600061465782611a78565b9050600061466483611576565b6000848152600f6020908152604080832054848452600c9092529091209192509061468f9085614af9565b506000848152600f60205260408120556146a884614b05565b8360006001600160a01b0316846001600160a01b0316600080516020615c77833981519152600085604051614172929190615735565b60006001600160a01b0384163b156147e057604051630a85bd0160e11b81526001600160a01b0385169063150b7a029061472290339089908890889060040161563f565b602060405180830381600087803b15801561473c57600080fd5b505af192505050801561476c575060408051601f3d908101601f1916820190925261476991810190615337565b60015b6147c6573d80801561479a576040519150601f19603f3d011682016040523d82523d6000602084013e61479f565b606091505b5080516147be5760405162461bcd60e51b815260040161094890615772565b805181602001fd5b6001600160e01b031916630a85bd0160e11b1490506135e8565b506001949350505050565b6060604051806060016040528060228152602001615c3560229139905090565b606061481682612d32565b61487a5760405162461bcd60e51b815260206004820152602f60248201527f4552433732314d657461646174613a2055524920717565727920666f72206e6f60448201526e3732bc34b9ba32b73a103a37b5b2b760891b6064820152608401610948565b60006148846147eb565b905060008151116148a45760405180602001604052806000815250612afa565b806148ae84614b9a565b6040516020016148bf929190615569565b6040516020818303038152906040529392505050565b60008260000182815481106148fa57634e487b7160e01b600052603260045260246000fd5b9060005260206000200154905092915050565b6001600160a01b0382166149635760405162461bcd60e51b815260206004820181905260248201527f4552433732313a206d696e7420746f20746865207a65726f20616464726573736044820152606401610948565b61496c81612d32565b156149b85760405162461bcd60e51b815260206004820152601c60248201527b115490cdcc8c4e881d1bdad95b88185b1c9958591e481b5a5b9d195960221b6044820152606401610948565b6149c460008383614453565b6001600160a01b03821660009081526003602052604081208054600192906149ed9084906159ac565b909155505060008181526002602052604080822080546001600160a01b0319166001600160a01b0386169081179091559051839290600080516020615c57833981519152908290a45050565b6000612afa8383614cb3565b6000818152600b60205260408120905b8154811015610a7957816001016000836000018381548110614a8757634e487b7160e01b600052603260045260246000fd5b60009182526020808320909101546001600160a01b031683528201929092526040018120558154829082908110614ace57634e487b7160e01b600052603260045260246000fd5b600091825260209091200180546001600160a01b031916905580614af181615b74565b915050614a55565b6000612afa8383614d02565b6000614b1082611a78565b9050614b1e81600084614453565b614b29600083612d4f565b6001600160a01b0381166000908152600360205260408120805460019290614b52908490615ae5565b909155505060008281526002602052604080822080546001600160a01b0319169055518391906001600160a01b03841690600080516020615c57833981519152908390a45050565b606081614bbe5750506040805180820190915260018152600360fc1b602082015290565b8160005b8115614be85780614bd281615b74565b9150614be19050600a836159c4565b9150614bc2565b6000816001600160401b03811115614c1057634e487b7160e01b600052604160045260246000fd5b6040519080825280601f01601f191660200182016040528015614c3a576020820181803683370190505b5090505b84156135e857614c4f600183615ae5565b9150614c5c600a86615b8f565b614c679060306159ac565b60f81b818381518110614c8a57634e487b7160e01b600052603260045260246000fd5b60200101906001600160f81b031916908160001a905350614cac600a866159c4565b9450614c3e565b6000818152600183016020526040812054614cfa57508154600181810184556000848152602080822090930184905584548482528286019093526040902091909155610803565b506000610803565b60008181526001830160205260408120548015614e15576000614d26600183615ae5565b8554909150600090614d3a90600190615ae5565b9050818114614dbb576000866000018281548110614d6857634e487b7160e01b600052603260045260246000fd5b9060005260206000200154905080876000018481548110614d9957634e487b7160e01b600052603260045260246000fd5b6000918252602080832090910192909255918252600188019052604090208390555b8554869080614dda57634e487b7160e01b600052603160045260246000fd5b600190038181906000526020600020016000905590558560010160008681526020019081526020016000206000905560019350505050610803565b6000915050610803565b6040805160e081019091528060008152602001600081526020016000815260200160008152602001600081526020016000815260200160006002811115614e7657634e487b7160e01b600052602160045260246000fd5b905290565b828054614e8790615b3f565b90600052602060002090601f016020900481019282614ea95760008555614eef565b82601f10614ec257805160ff1916838001178555614eef565b82800160010185558215614eef579182015b82811115614eef578251825591602001919060010190614ed4565b50614efb929150614eff565b5090565b5b80821115614efb5760008155600101614f00565b60006001600160401b0380841115614f2e57614f2e615be5565b604051601f8501601f19908116603f01168101908282118183101715614f5657614f56615be5565b81604052809350858152868686011115614f6f57600080fd5b858560208301376000602087830101525050509392505050565b60008083601f840112614f9a578182fd5b5081356001600160401b03811115614fb0578182fd5b6020830191508360208260051b8501011115614fcb57600080fd5b9250929050565b80516001600160501b0381168114614fe957600080fd5b919050565b600060208284031215614fff578081fd5b8135612afa81615bfb565b60006020828403121561501b578081fd5b8151612afa81615bfb565b60008060408385031215615038578081fd5b823561504381615bfb565b9150602083013561505381615bfb565b809150509250929050565b600080600060608486031215615072578081fd5b833561507d81615bfb565b9250602084013561508d81615bfb565b929592945050506040919091013590565b600080600080608085870312156150b3578081fd5b84356150be81615bfb565b935060208501356150ce81615bfb565b92506040850135915060608501356001600160401b038111156150ef578182fd5b8501601f810187136150ff578182fd5b61510e87823560208401614f14565b91505092959194509250565b6000806000806080858703121561512f578384fd5b843561513a81615bfb565b9350602085013561514a81615bfb565b93969395505050506040820135916060013590565b600080600080600060a08688031215615176578081fd5b853561518181615bfb565b9450602086013561519181615bfb565b94979496505050506040830135926060810135926080909101359150565b600080604083850312156151c1578182fd5b82356151cc81615bfb565b9150602083013561505381615c10565b600080604083850312156151ee578182fd5b82356151f981615bfb565b946020939093013593505050565b60008060006060848603121561521b578081fd5b833561522681615bfb565b95602085013595506040909401359392505050565b6000806020838503121561524d578182fd5b82356001600160401b03811115615262578283fd5b61526e85828601614f89565b90969095509350505050565b60008060006040848603121561528e578081fd5b83356001600160401b038111156152a3578182fd5b6152af86828701614f89565b909790965060209590950135949350505050565b6000602082840312156152d4578081fd5b8151612afa81615c10565b6000602082840312156152f0578081fd5b5035919050565b60008060408385031215615309578182fd5b82359150602083013561505381615bfb565b60006020828403121561532c578081fd5b8135612afa81615c1e565b600060208284031215615348578081fd5b8151612afa81615c1e565b600060208284031215615364578081fd5b5051919050565b60008060008060808587031215615380578182fd5b84359350602085013561539281615bfb565b925060408501356001600160401b038111156153ac578283fd5b8501601f810187136153bc578283fd5b6153cb87823560208401614f14565b9250506060850135600281106153df578182fd5b939692955090935050565b6000806000604084860312156153fe578081fd5b8335925060208401356001600160401b0381111561541a578182fd5b61542686828701614f89565b9497909650939450505050565b60008060408385031215615445578182fd5b50508035926020909101359150565b600080600060608486031215615468578081fd5b8351925060208401519150604084015190509250925092565b60008060008060808587031215615496578182fd5b8435935060208501359250604085013591506060850135600381106153df578182fd5b600080600080600060a086880312156154d0578283fd5b6154d986614fd2565b94506020860151935060408601519250606086015191506154fc60808701614fd2565b90509295509295909350565b600060208284031215615519578081fd5b815160ff81168114612afa578182fd5b60008151808452615541816020860160208601615afc565b601f01601f19169290920160200192915050565b6003811061556557615565615bcf565b9052565b6000835161557b818460208801615afc565b83519083019061558f818360208801615afc565b01949350505050565b76020b1b1b2b9b9a1b7b73a3937b61d1030b1b1b7bab73a1604d1b8152600083516155ca816017850160208801615afc565b7001034b99036b4b9b9b4b733903937b6329607d1b60179184019182015283516155fb816028840160208801615afc565b01602801949350505050565b6001600160a01b0391909116815260200190565b6001600160a01b039384168152919092166020820152604081019190915260600190565b6001600160a01b038581168252841660208201526040810183905260806060820181905260009061567290830184615529565b9695505050505050565b6001600160a01b03929092168252602082015260400190565b6020808252825182820181905260009190848201906040850190845b818110156156cd578351835292840192918401916001016156b1565b50909695505050505050565b602081016108038284615555565b60e08101600489106156fb576156fb615bcf565b8882528760208301528660408301528560608301528460808301528360a083015261572960c0830184615555565b98975050505050505050565b918252602082015260400190565b602081526000612afa6020830184615529565b6020808252600290820152614f3960f01b604082015260600190565b60208082526032908201527f4552433732313a207472616e7366657220746f206e6f6e20455243373231526560408201527131b2b4bb32b91034b6b83632b6b2b73a32b960711b606082015260800190565b60208082526003908201526204f32360ec1b604082015260600190565b6020808252600290820152614f3360f01b604082015260600190565b6020808252600290820152614e3760f01b604082015260600190565b6020808252818101527f4f776e61626c653a2063616c6c6572206973206e6f7420746865206f776e6572604082015260600190565b60208082526031908201527f4552433732313a207472616e736665722063616c6c6572206973206e6f74206f6040820152701ddb995c881b9bdc88185c1c1c9bdd9959607a1b606082015260800190565b6020808252600290820152614f3160f01b604082015260600190565b60208082526002908201526113cd60f21b604082015260600190565b84815260208101849052608081016158f26040830185615555565b821515606083015295945050505050565b848152602081018490526080810161591e6040830185615555565b82606083015295945050505050565b838152826020820152606060408201526000613bfc6060830184615529565b9283526020830191909152604082015260600190565b878152602081018790526040810186905260e081016159846060830187615555565b60808201949094526001600160a01b0392831660a0820152911660c090910152949350505050565b600082198211156159bf576159bf615ba3565b500190565b6000826159d3576159d3615bb9565b500490565b600181815b80851115615a135781600019048211156159f9576159f9615ba3565b80851615615a0657918102915b93841c93908002906159dd565b509250929050565b6000612afa60ff841683600082615a3457506001610803565b81615a4157506000610803565b8160018114615a575760028114615a6157615a7d565b6001915050610803565b60ff841115615a7257615a72615ba3565b50506001821b610803565b5060208310610133831016604e8410600b8410161715615aa0575081810a610803565b615aaa83836159d8565b8060001904821115615abe57615abe615ba3565b029392505050565b6000816000190483118215151615615ae057615ae0615ba3565b500290565b600082821015615af757615af7615ba3565b500390565b60005b83811015615b17578181015183820152602001615aff565b83811115611a725750506000910152565b600081615b3757615b37615ba3565b506000190190565b600181811c90821680615b5357607f821691505b602082108114156108da57634e487b7160e01b600052602260045260246000fd5b6000600019821415615b8857615b88615ba3565b5060010190565b600082615b9e57615b9e615bb9565b500690565b634e487b7160e01b600052601160045260246000fd5b634e487b7160e01b600052601260045260246000fd5b634e487b7160e01b600052602160045260246000fd5b634e487b7160e01b600052604160045260246000fd5b6001600160a01b038116811461155e57600080fd5b801515811461155e57600080fd5b6001600160e01b03198116811461155e57600080fdfe68747470733a2f2f676174657761792e70696e6174612e636c6f75642f697066732fddf252ad1be2c89b69c2b068fc378daa952ba7f163c4a11628f55a4df523b3ef823a343d1c899e61a4db12247636a6882bf1fefae78bef39170f8d0f5b53e456a2646970667358221220f653585cf15c6686f609ef7db9e56ce540b3d0fd297030950b14071d3a4ad1e064736f6c63430008040033",
  "language": "Solidity",
  "natspec": {
    "author": "Heisenberg",
    "kind": "dev",
    "methods": {
      "approve(address,uint256)": {
        "details": "See {IERC721-approve}."
      },
      "approvePoolToTransferTokenX()": {
        "notice": "Call this to set the max approval for tokenX transfers from the options to pool"
      },
      "balanceOf(address)": {
        "details": "See {IERC721-balanceOf}."
      },
      "create(uint256,address,string,uint8)": {
        "notice": "Creates a new option",
        "params": {
          "_paymentMethod": "Option payment method for buying",
          "amount": "Option amount in tokenX",
          "referrer": "Referrer address"
        },
        "returns": {
          "optionID": "Created option's ID"
        }
      },
      "exercise(uint256)": {
        "notice": "Exercises an option if it was ITM at the time of expiry",
        "params": {
          "optionID": "ID of your option"
        }
      },
      "fees(uint256,uint256,uint256,uint8)": {
        "notice": "Used for getting the option's price using blackscholes",
        "params": {
          "amount": "Option amount",
          "optionType": "call/put",
          "period": "Option period in seconds",
          "strike": "Strike price of the option"
        },
        "returns": {
          "premium": "Amount that covers the price difference in the ITM options",
          "settlementFee": "Amount to be distributed to the Buffer token holders",
          "total": "Total price to be paid"
        }
      },
      "getApproved(uint256)": {
        "details": "See {IERC721-getApproved}."
      },
      "getRoleAdmin(bytes32)": {
        "details": "Returns the admin role that controls `role`. See {grantRole} and {revokeRole}. To change a role's admin, use {_setRoleAdmin}."
      },
      "grantRole(bytes32,address)": {
        "details": "Grants `role` to `account`. If `account` had not been already granted `role`, emits a {RoleGranted} event. Requirements: - the caller must have ``role``'s admin role."
      },
      "hasRole(bytes32,address)": {
        "details": "Returns `true` if `account` has been granted `role`."
      },
      "isApprovedForAll(address,address)": {
        "details": "See {IERC721-isApprovedForAll}."
      },
      "merge(uint256[],uint256)": {
        "notice": "Merges the options",
        "params": {
          "optionIDs": "An array of the optionsIds to be merged",
          "targetOptionID": "OptionId to be merged into"
        }
      },
      "name()": {
        "details": "See {IERC721Metadata-name}."
      },
      "owner()": {
        "details": "Returns the address of the current owner."
      },
      "ownerOf(uint256)": {
        "details": "See {IERC721-ownerOf}."
      },
      "renounceOwnership()": {
        "details": "Leaves the contract without owner. It will not be possible to call `onlyOwner` functions anymore. Can only be called by the current owner. NOTE: Renouncing ownership will leave the contract without an owner, thereby removing any functionality that is only available to the owner."
      },
      "renounceRole(bytes32,address)": {
        "details": "Revokes `role` from the calling account. Roles are often managed via {grantRole} and {revokeRole}: this function's purpose is to provide a mechanism for accounts to lose their privileges if they are compromised (such as when a trusted device is misplaced). If the calling account had been granted `role`, emits a {RoleRevoked} event. Requirements: - the caller must be `account`."
      },
      "revokeRole(bytes32,address)": {
        "details": "Revokes `role` from `account`. If `account` had been granted `role`, emits a {RoleRevoked} event. Requirements: - the caller must have ``role``'s admin role."
      },
      "safeTransferFrom(address,address,uint256)": {
        "details": "See {IERC721-safeTransferFrom}."
      },
      "safeTransferFrom(address,address,uint256,bytes)": {
        "details": "See {IERC721-safeTransferFrom}."
      },
      "setApprovalForAll(address,bool)": {
        "details": "See {IERC721-setApprovalForAll}."
      },
      "setRoundIDForExpiry(uint256)": {
        "details": "a roundId must be provided to confirm price validity, which is the first Chainlink price provided after the expiryTimestamp",
        "notice": "Sets the expiry price in the oracle",
        "params": {
          "roundId": "the first roundId after expiryTimestamp"
        }
      },
      "split(uint256,uint256[])": {
        "notice": "Splits the option",
        "params": {
          "optionID": "OptionId to be splitted",
          "splitUnits_": "Units to be splitted into"
        },
        "returns": {
          "newOptionIDs": "An array of the splitted options"
        }
      },
      "symbol()": {
        "details": "See {IERC721Metadata-symbol}."
      },
      "tokenURI(uint256)": {
        "details": "Template code provided by OpenZepplin Code Wizard"
      },
      "transferFrom(address,address,uint256)": {
        "details": "See {IERC721-transferFrom}."
      },
      "transferFrom(address,address,uint256,uint256)": {
        "notice": "Transfer part of units of a option to target address.",
        "params": {
          "from_": "Address of the option sender",
          "optionID": "Id of the option to transfer",
          "to_": "Address of the option recipient",
          "transferUnits_": "Amount of units to transfer"
        }
      },
      "transferFrom(address,address,uint256,uint256,uint256)": {
        "notice": "Transfer part of units of a option to another option.",
        "params": {
          "from_": "Address of the option sender",
          "optionID": "Id of the option to transfer",
          "targetOptionID": "Id of the option to receive",
          "to_": "Address of the option recipient",
          "transferUnits_": "Amount of units to transfer"
        }
      },
      "transferOwnership(address)": {
        "details": "Transfers ownership of the contract to a new account (`newOwner`). Can only be called by the current owner."
      },
      "unlock(uint256)": {
        "notice": "Unlocks the locked funds if the option was OTM at the time of expiry otherwise exercises it",
        "params": {
          "optionID": "ID of the option"
        }
      },
      "unlockAll(uint256[])": {
        "notice": "Unlocks an array of options",
        "params": {
          "optionIDs": "array of options"
        }
      },
      "withdrawFunds()": {
        "notice": "Sends all the tokenX in the contract back to the project owner"
      }
    },
    "notice": "Buffer TokenX Options Contract",
    "title": "Buffer TokenX Bidirectional (Call and Put) Options",
    "version": 1
  },
  "opcodes": "PUSH1 0x80 PUSH1 0x40 MSTORE CALLVALUE DUP1 ISZERO PUSH2 0x10 JUMPI PUSH1 0x0 DUP1 REVERT JUMPDEST POP PUSH1 0x4 CALLDATASIZE LT PUSH2 0x2A9 JUMPI PUSH1 0x0 CALLDATALOAD PUSH1 0xE0 SHR DUP1 PUSH4 0x1FFC9A7 EQ PUSH2 0x2AE JUMPI DUP1 PUSH4 0x5271A2A EQ PUSH2 0x2D6 JUMPI DUP1 PUSH4 0x6517A29 EQ PUSH2 0x2EB JUMPI DUP1 PUSH4 0x6FDDE03 EQ PUSH2 0x302 JUMPI DUP1 PUSH4 0x76D948C EQ PUSH2 0x317 JUMPI DUP1 PUSH4 0x81812FC EQ PUSH2 0x32A JUMPI DUP1 PUSH4 0x95EA7B3 EQ PUSH2 0x34A JUMPI DUP1 PUSH4 0xEE2D59B EQ PUSH2 0x35F JUMPI DUP1 PUSH4 0x16DC165B EQ PUSH2 0x372 JUMPI DUP1 PUSH4 0x16F0115B EQ PUSH2 0x385 JUMPI DUP1 PUSH4 0x1CECAA31 EQ PUSH2 0x398 JUMPI DUP1 PUSH4 0x23B872DD EQ PUSH2 0x3B9 JUMPI DUP1 PUSH4 0x24600FC3 EQ PUSH2 0x3CC JUMPI DUP1 PUSH4 0x248A9CA3 EQ PUSH2 0x3D4 JUMPI DUP1 PUSH4 0x263F3E7E EQ PUSH2 0x3E7 JUMPI DUP1 PUSH4 0x2F2FF15D EQ PUSH2 0x3FA JUMPI DUP1 PUSH4 0x36568ABE EQ PUSH2 0x40D JUMPI DUP1 PUSH4 0x409E2205 EQ PUSH2 0x420 JUMPI DUP1 PUSH4 0x426A8493 EQ PUSH2 0x483 JUMPI DUP1 PUSH4 0x42842E0E EQ PUSH2 0x496 JUMPI DUP1 PUSH4 0x42966C68 EQ PUSH2 0x4A9 JUMPI DUP1 PUSH4 0x4AED53C2 EQ PUSH2 0x4BC JUMPI DUP1 PUSH4 0x4F558E79 EQ PUSH2 0x4CF JUMPI DUP1 PUSH4 0x6198E339 EQ PUSH2 0x4E2 JUMPI DUP1 PUSH4 0x6352211E EQ PUSH2 0x4F5 JUMPI DUP1 PUSH4 0x645734E6 EQ PUSH2 0x508 JUMPI DUP1 PUSH4 0x69C67247 EQ PUSH2 0x510 JUMPI DUP1 PUSH4 0x70A08231 EQ PUSH2 0x530 JUMPI DUP1 PUSH4 0x715018A6 EQ PUSH2 0x543 JUMPI DUP1 PUSH4 0x75794A3C EQ PUSH2 0x54B JUMPI DUP1 PUSH4 0x78C533CE EQ PUSH2 0x554 JUMPI DUP1 PUSH4 0x79502C55 EQ PUSH2 0x574 JUMPI DUP1 PUSH4 0x841EDC0E EQ PUSH2 0x587 JUMPI DUP1 PUSH4 0x89A30271 EQ PUSH2 0x5A7 JUMPI DUP1 PUSH4 0x8A584118 EQ PUSH2 0x5BA JUMPI DUP1 PUSH4 0x8DA5CB5B EQ PUSH2 0x605 JUMPI DUP1 PUSH4 0x8DD7D2C1 EQ PUSH2 0x60D JUMPI DUP1 PUSH4 0x91D14854 EQ PUSH2 0x620 JUMPI DUP1 PUSH4 0x95D89B41 EQ PUSH2 0x633 JUMPI DUP1 PUSH4 0xA217FDDF EQ PUSH2 0x63B JUMPI DUP1 PUSH4 0xA22CB465 EQ PUSH2 0x643 JUMPI DUP1 PUSH4 0xA6D14C02 EQ PUSH2 0x656 JUMPI DUP1 PUSH4 0xA8800425 EQ PUSH2 0x65E JUMPI DUP1 PUSH4 0xB07F0A41 EQ PUSH2 0x671 JUMPI DUP1 PUSH4 0xB888879E EQ PUSH2 0x684 JUMPI DUP1 PUSH4 0xB88D4FDE EQ PUSH2 0x697 JUMPI DUP1 PUSH4 0xBBE33EA5 EQ PUSH2 0x6AA JUMPI DUP1 PUSH4 0xBECEF607 EQ PUSH2 0x6BD JUMPI DUP1 PUSH4 0xC7C3B53F EQ PUSH2 0x6D0 JUMPI DUP1 PUSH4 0xC87B56DD EQ PUSH2 0x6F2 JUMPI DUP1 PUSH4 0xD149CC30 EQ PUSH2 0x705 JUMPI DUP1 PUSH4 0xD547741F EQ PUSH2 0x718 JUMPI DUP1 PUSH4 0xD5A0E673 EQ PUSH2 0x72B JUMPI DUP1 PUSH4 0xDBA34E97 EQ PUSH2 0x74B JUMPI DUP1 PUSH4 0xE342B598 EQ PUSH2 0x772 JUMPI DUP1 PUSH4 0xE345E0BC EQ PUSH2 0x785 JUMPI DUP1 PUSH4 0xE985E9C5 EQ PUSH2 0x7BF JUMPI DUP1 PUSH4 0xF2FDE38B EQ PUSH2 0x7D2 JUMPI DUP1 PUSH4 0xFE99049A EQ PUSH2 0x7E5 JUMPI JUMPDEST PUSH1 0x0 DUP1 REVERT JUMPDEST PUSH2 0x2C1 PUSH2 0x2BC CALLDATASIZE PUSH1 0x4 PUSH2 0x531B JUMP JUMPDEST PUSH2 0x7F8 JUMP JUMPDEST PUSH1 0x40 MLOAD SWAP1 ISZERO ISZERO DUP2 MSTORE PUSH1 0x20 ADD JUMPDEST PUSH1 0x40 MLOAD DUP1 SWAP2 SUB SWAP1 RETURN JUMPDEST PUSH1 0xE SLOAD PUSH1 0x40 MLOAD PUSH1 0xFF SWAP1 SWAP2 AND DUP2 MSTORE PUSH1 0x20 ADD PUSH2 0x2CD JUMP JUMPDEST PUSH2 0x2F4 PUSH1 0xD SLOAD DUP2 JUMP JUMPDEST PUSH1 0x40 MLOAD SWAP1 DUP2 MSTORE PUSH1 0x20 ADD PUSH2 0x2CD JUMP JUMPDEST PUSH2 0x30A PUSH2 0x809 JUMP JUMPDEST PUSH1 0x40 MLOAD PUSH2 0x2CD SWAP2 SWAP1 PUSH2 0x5743 JUMP JUMPDEST PUSH2 0x2F4 PUSH2 0x325 CALLDATASIZE PUSH1 0x4 PUSH2 0x52DF JUMP JUMPDEST PUSH2 0x89B JUMP JUMPDEST PUSH2 0x33D PUSH2 0x338 CALLDATASIZE PUSH1 0x4 PUSH2 0x52DF JUMP JUMPDEST PUSH2 0x8E0 JUMP JUMPDEST PUSH1 0x40 MLOAD PUSH2 0x2CD SWAP2 SWAP1 PUSH2 0x5607 JUMP JUMPDEST PUSH2 0x35D PUSH2 0x358 CALLDATASIZE PUSH1 0x4 PUSH2 0x51DC JUMP JUMPDEST PUSH2 0x96D JUMP JUMPDEST STOP JUMPDEST PUSH2 0x2F4 PUSH2 0x36D CALLDATASIZE PUSH1 0x4 PUSH2 0x536B JUMP JUMPDEST PUSH2 0xA7E JUMP JUMPDEST PUSH1 0x11 SLOAD PUSH2 0x33D SWAP1 PUSH1 0x1 PUSH1 0x1 PUSH1 0xA0 SHL SUB AND DUP2 JUMP JUMPDEST PUSH1 0x17 SLOAD PUSH2 0x33D SWAP1 PUSH1 0x1 PUSH1 0x1 PUSH1 0xA0 SHL SUB AND DUP2 JUMP JUMPDEST PUSH1 0x13 SLOAD PUSH2 0x3AC SWAP1 PUSH1 0x1 PUSH1 0xA0 SHL SWAP1 DIV PUSH1 0xFF AND DUP2 JUMP JUMPDEST PUSH1 0x40 MLOAD PUSH2 0x2CD SWAP2 SWAP1 PUSH2 0x56D9 JUMP JUMPDEST PUSH2 0x35D PUSH2 0x3C7 CALLDATASIZE PUSH1 0x4 PUSH2 0x505E JUMP JUMPDEST PUSH2 0x137C JUMP JUMPDEST PUSH2 0x35D PUSH2 0x13AD JUMP JUMPDEST PUSH2 0x2F4 PUSH2 0x3E2 CALLDATASIZE PUSH1 0x4 PUSH2 0x52DF JUMP JUMPDEST PUSH2 0x1561 JUMP JUMPDEST PUSH2 0x2F4 PUSH2 0x3F5 CALLDATASIZE PUSH1 0x4 PUSH2 0x52DF JUMP JUMPDEST PUSH2 0x1576 JUMP JUMPDEST PUSH2 0x35D PUSH2 0x408 CALLDATASIZE PUSH1 0x4 PUSH2 0x52F7 JUMP JUMPDEST PUSH2 0x1588 JUMP JUMPDEST PUSH2 0x35D PUSH2 0x41B CALLDATASIZE PUSH1 0x4 PUSH2 0x52F7 JUMP JUMPDEST PUSH2 0x15A5 JUMP JUMPDEST PUSH2 0x470 PUSH2 0x42E CALLDATASIZE PUSH1 0x4 PUSH2 0x52DF JUMP JUMPDEST PUSH1 0x15 PUSH1 0x20 MSTORE PUSH1 0x0 SWAP1 DUP2 MSTORE PUSH1 0x40 SWAP1 KECCAK256 DUP1 SLOAD PUSH1 0x1 DUP3 ADD SLOAD PUSH1 0x2 DUP4 ADD SLOAD PUSH1 0x3 DUP5 ADD SLOAD PUSH1 0x4 DUP6 ADD SLOAD PUSH1 0x5 DUP7 ADD SLOAD PUSH1 0x6 SWAP1 SWAP7 ADD SLOAD PUSH1 0xFF SWAP6 DUP7 AND SWAP7 SWAP5 SWAP6 SWAP4 SWAP5 SWAP3 SWAP4 SWAP2 SWAP3 SWAP2 AND DUP8 JUMP JUMPDEST PUSH1 0x40 MLOAD PUSH2 0x2CD SWAP8 SWAP7 SWAP6 SWAP5 SWAP4 SWAP3 SWAP2 SWAP1 PUSH2 0x56E7 JUMP JUMPDEST PUSH2 0x35D PUSH2 0x491 CALLDATASIZE PUSH1 0x4 PUSH2 0x5207 JUMP JUMPDEST PUSH2 0x161F JUMP JUMPDEST PUSH2 0x35D PUSH2 0x4A4 CALLDATASIZE PUSH1 0x4 PUSH2 0x505E JUMP JUMPDEST PUSH2 0x1663 JUMP JUMPDEST PUSH2 0x35D PUSH2 0x4B7 CALLDATASIZE PUSH1 0x4 PUSH2 0x52DF JUMP JUMPDEST PUSH2 0x167E JUMP JUMPDEST PUSH2 0x35D PUSH2 0x4CA CALLDATASIZE PUSH1 0x4 PUSH2 0x515F JUMP JUMPDEST PUSH2 0x16C0 JUMP JUMPDEST PUSH2 0x2C1 PUSH2 0x4DD CALLDATASIZE PUSH1 0x4 PUSH2 0x52DF JUMP JUMPDEST PUSH2 0x17E2 JUMP JUMPDEST PUSH2 0x35D PUSH2 0x4F0 CALLDATASIZE PUSH1 0x4 PUSH2 0x52DF JUMP JUMPDEST PUSH2 0x17ED JUMP JUMPDEST PUSH2 0x33D PUSH2 0x503 CALLDATASIZE PUSH1 0x4 PUSH2 0x52DF JUMP JUMPDEST PUSH2 0x1A78 JUMP JUMPDEST PUSH2 0x35D PUSH2 0x1AEF JUMP JUMPDEST PUSH2 0x523 PUSH2 0x51E CALLDATASIZE PUSH1 0x4 PUSH2 0x53EA JUMP JUMPDEST PUSH2 0x1B79 JUMP JUMPDEST PUSH1 0x40 MLOAD PUSH2 0x2CD SWAP2 SWAP1 PUSH2 0x5695 JUMP JUMPDEST PUSH2 0x2F4 PUSH2 0x53E CALLDATASIZE PUSH1 0x4 PUSH2 0x4FEE JUMP JUMPDEST PUSH2 0x1F6B JUMP JUMPDEST PUSH2 0x35D PUSH2 0x1FF2 JUMP JUMPDEST PUSH2 0x2F4 PUSH1 0x14 SLOAD DUP2 JUMP JUMPDEST PUSH2 0x2F4 PUSH2 0x562 CALLDATASIZE PUSH1 0x4 PUSH2 0x52DF JUMP JUMPDEST PUSH1 0xF PUSH1 0x20 MSTORE PUSH1 0x0 SWAP1 DUP2 MSTORE PUSH1 0x40 SWAP1 KECCAK256 SLOAD DUP2 JUMP JUMPDEST PUSH1 0x18 SLOAD PUSH2 0x33D SWAP1 PUSH1 0x1 PUSH1 0x1 PUSH1 0xA0 SHL SUB AND DUP2 JUMP JUMPDEST PUSH2 0x2F4 PUSH2 0x595 CALLDATASIZE PUSH1 0x4 PUSH2 0x52DF JUMP JUMPDEST PUSH1 0x16 PUSH1 0x20 MSTORE PUSH1 0x0 SWAP1 DUP2 MSTORE PUSH1 0x40 SWAP1 KECCAK256 SLOAD DUP2 JUMP JUMPDEST PUSH1 0x10 SLOAD PUSH2 0x33D SWAP1 PUSH1 0x1 PUSH1 0x1 PUSH1 0xA0 SHL SUB AND DUP2 JUMP JUMPDEST PUSH2 0x5F5 PUSH2 0x5C8 CALLDATASIZE PUSH1 0x4 PUSH2 0x52DF JUMP JUMPDEST PUSH1 0x19 PUSH1 0x20 MSTORE PUSH1 0x0 SWAP1 DUP2 MSTORE PUSH1 0x40 SWAP1 KECCAK256 DUP1 SLOAD PUSH1 0x1 DUP3 ADD SLOAD PUSH1 0x2 SWAP1 SWAP3 ADD SLOAD SWAP1 SWAP2 SWAP1 PUSH1 0xFF DUP1 DUP3 AND SWAP2 PUSH2 0x100 SWAP1 DIV AND DUP5 JUMP JUMPDEST PUSH1 0x40 MLOAD PUSH2 0x2CD SWAP5 SWAP4 SWAP3 SWAP2 SWAP1 PUSH2 0x58D7 JUMP JUMPDEST PUSH2 0x33D PUSH2 0x202D JUMP JUMPDEST PUSH2 0x2C1 PUSH2 0x61B CALLDATASIZE PUSH1 0x4 PUSH2 0x52DF JUMP JUMPDEST PUSH2 0x203C JUMP JUMPDEST PUSH2 0x2C1 PUSH2 0x62E CALLDATASIZE PUSH1 0x4 PUSH2 0x52F7 JUMP JUMPDEST PUSH2 0x22C4 JUMP JUMPDEST PUSH2 0x30A PUSH2 0x22EF JUMP JUMPDEST PUSH2 0x2F4 PUSH1 0x0 DUP2 JUMP JUMPDEST PUSH2 0x35D PUSH2 0x651 CALLDATASIZE PUSH1 0x4 PUSH2 0x51AF JUMP JUMPDEST PUSH2 0x22FE JUMP JUMPDEST PUSH2 0x2F4 PUSH1 0x5 DUP2 JUMP JUMPDEST PUSH2 0x2F4 PUSH2 0x66C CALLDATASIZE PUSH1 0x4 PUSH2 0x52DF JUMP JUMPDEST PUSH2 0x23BF JUMP JUMPDEST PUSH2 0x2F4 PUSH2 0x67F CALLDATASIZE PUSH1 0x4 PUSH2 0x52DF JUMP JUMPDEST PUSH2 0x23D6 JUMP JUMPDEST PUSH1 0x13 SLOAD PUSH2 0x33D SWAP1 PUSH1 0x1 PUSH1 0x1 PUSH1 0xA0 SHL SUB AND DUP2 JUMP JUMPDEST PUSH2 0x35D PUSH2 0x6A5 CALLDATASIZE PUSH1 0x4 PUSH2 0x509E JUMP JUMPDEST PUSH2 0x2740 JUMP JUMPDEST PUSH2 0x35D PUSH2 0x6B8 CALLDATASIZE PUSH1 0x4 PUSH2 0x527A JUMP JUMPDEST PUSH2 0x2773 JUMP JUMPDEST PUSH2 0x2F4 PUSH2 0x6CB CALLDATASIZE PUSH1 0x4 PUSH2 0x52DF JUMP JUMPDEST PUSH2 0x2982 JUMP JUMPDEST PUSH2 0x6E3 PUSH2 0x6DE CALLDATASIZE PUSH1 0x4 PUSH2 0x5481 JUMP JUMPDEST PUSH2 0x2994 JUMP JUMPDEST PUSH1 0x40 MLOAD PUSH2 0x2CD SWAP4 SWAP3 SWAP2 SWAP1 PUSH2 0x594C JUMP JUMPDEST PUSH2 0x30A PUSH2 0x700 CALLDATASIZE PUSH1 0x4 PUSH2 0x52DF JUMP JUMPDEST PUSH2 0x2AD7 JUMP JUMPDEST PUSH2 0x2F4 PUSH2 0x713 CALLDATASIZE PUSH1 0x4 PUSH2 0x5433 JUMP JUMPDEST PUSH2 0x2AE2 JUMP JUMPDEST PUSH2 0x35D PUSH2 0x726 CALLDATASIZE PUSH1 0x4 PUSH2 0x52F7 JUMP JUMPDEST PUSH2 0x2B01 JUMP JUMPDEST PUSH2 0x2F4 PUSH2 0x739 CALLDATASIZE PUSH1 0x4 PUSH2 0x52DF JUMP JUMPDEST PUSH1 0xA PUSH1 0x20 MSTORE PUSH1 0x0 SWAP1 DUP2 MSTORE PUSH1 0x40 SWAP1 KECCAK256 SLOAD DUP2 JUMP JUMPDEST PUSH2 0x2F4 PUSH32 0xDEB3B49547F710C56A925B6E16E3557A50FAB4DD8F243BC314F3AFBA2054EC5B DUP2 JUMP JUMPDEST PUSH2 0x35D PUSH2 0x780 CALLDATASIZE PUSH1 0x4 PUSH2 0x523B JUMP JUMPDEST PUSH2 0x2B1E JUMP JUMPDEST PUSH2 0x2F4 PUSH2 0x793 CALLDATASIZE PUSH1 0x4 PUSH2 0x52F7 JUMP JUMPDEST PUSH1 0x0 DUP3 DUP2 MSTORE PUSH1 0xB PUSH1 0x20 SWAP1 DUP2 MSTORE PUSH1 0x40 DUP1 DUP4 KECCAK256 PUSH1 0x1 PUSH1 0x1 PUSH1 0xA0 SHL SUB DUP6 AND DUP5 MSTORE PUSH1 0x1 ADD SWAP1 SWAP2 MSTORE SWAP1 KECCAK256 SLOAD SWAP3 SWAP2 POP POP JUMP JUMPDEST PUSH2 0x2C1 PUSH2 0x7CD CALLDATASIZE PUSH1 0x4 PUSH2 0x5026 JUMP JUMPDEST PUSH2 0x2B6B JUMP JUMPDEST PUSH2 0x35D PUSH2 0x7E0 CALLDATASIZE PUSH1 0x4 PUSH2 0x4FEE JUMP JUMPDEST PUSH2 0x2B99 JUMP JUMPDEST PUSH2 0x2F4 PUSH2 0x7F3 CALLDATASIZE PUSH1 0x4 PUSH2 0x511A JUMP JUMPDEST PUSH2 0x2C36 JUMP JUMPDEST PUSH1 0x0 PUSH2 0x803 DUP3 PUSH2 0x2D0D JUMP JUMPDEST SWAP3 SWAP2 POP POP JUMP JUMPDEST PUSH1 0x60 PUSH1 0x0 DUP1 SLOAD PUSH2 0x818 SWAP1 PUSH2 0x5B3F JUMP JUMPDEST DUP1 PUSH1 0x1F ADD PUSH1 0x20 DUP1 SWAP2 DIV MUL PUSH1 0x20 ADD PUSH1 0x40 MLOAD SWAP1 DUP2 ADD PUSH1 0x40 MSTORE DUP1 SWAP3 SWAP2 SWAP1 DUP2 DUP2 MSTORE PUSH1 0x20 ADD DUP3 DUP1 SLOAD PUSH2 0x844 SWAP1 PUSH2 0x5B3F JUMP JUMPDEST DUP1 ISZERO PUSH2 0x891 JUMPI DUP1 PUSH1 0x1F LT PUSH2 0x866 JUMPI PUSH2 0x100 DUP1 DUP4 SLOAD DIV MUL DUP4 MSTORE SWAP2 PUSH1 0x20 ADD SWAP2 PUSH2 0x891 JUMP JUMPDEST DUP3 ADD SWAP2 SWAP1 PUSH1 0x0 MSTORE PUSH1 0x20 PUSH1 0x0 KECCAK256 SWAP1 JUMPDEST DUP2 SLOAD DUP2 MSTORE SWAP1 PUSH1 0x1 ADD SWAP1 PUSH1 0x20 ADD DUP1 DUP4 GT PUSH2 0x874 JUMPI DUP3 SWAP1 SUB PUSH1 0x1F AND DUP3 ADD SWAP2 JUMPDEST POP POP POP POP POP SWAP1 POP SWAP1 JUMP JUMPDEST PUSH1 0x0 DUP1 JUMPDEST PUSH2 0x8A8 DUP4 PUSH2 0x23BF JUMP JUMPDEST DUP2 LT ISZERO PUSH2 0x8DA JUMPI PUSH2 0x8BC PUSH2 0x6CB DUP5 DUP4 PUSH2 0x2AE2 JUMP JUMPDEST PUSH2 0x8C6 SWAP1 DUP4 PUSH2 0x59AC JUMP JUMPDEST SWAP2 POP DUP1 PUSH2 0x8D2 DUP2 PUSH2 0x5B74 JUMP JUMPDEST SWAP2 POP POP PUSH2 0x89F JUMP JUMPDEST POP SWAP2 SWAP1 POP JUMP JUMPDEST PUSH1 0x0 PUSH2 0x8EB DUP3 PUSH2 0x2D32 JUMP JUMPDEST PUSH2 0x951 JUMPI PUSH1 0x40 MLOAD PUSH3 0x461BCD PUSH1 0xE5 SHL DUP2 MSTORE PUSH1 0x20 PUSH1 0x4 DUP3 ADD MSTORE PUSH1 0x2C PUSH1 0x24 DUP3 ADD MSTORE PUSH32 0x4552433732313A20617070726F76656420717565727920666F72206E6F6E6578 PUSH1 0x44 DUP3 ADD MSTORE PUSH12 0x34B9BA32B73A103A37B5B2B7 PUSH1 0xA1 SHL PUSH1 0x64 DUP3 ADD MSTORE PUSH1 0x84 ADD JUMPDEST PUSH1 0x40 MLOAD DUP1 SWAP2 SUB SWAP1 REVERT JUMPDEST POP PUSH1 0x0 SWAP1 DUP2 MSTORE PUSH1 0x4 PUSH1 0x20 MSTORE PUSH1 0x40 SWAP1 KECCAK256 SLOAD PUSH1 0x1 PUSH1 0x1 PUSH1 0xA0 SHL SUB AND SWAP1 JUMP JUMPDEST PUSH1 0x0 PUSH2 0x978 DUP3 PUSH2 0x1A78 JUMP JUMPDEST SWAP1 POP DUP1 PUSH1 0x1 PUSH1 0x1 PUSH1 0xA0 SHL SUB AND DUP4 PUSH1 0x1 PUSH1 0x1 PUSH1 0xA0 SHL SUB AND EQ ISZERO PUSH2 0x9E6 JUMPI PUSH1 0x40 MLOAD PUSH3 0x461BCD PUSH1 0xE5 SHL DUP2 MSTORE PUSH1 0x20 PUSH1 0x4 DUP3 ADD MSTORE PUSH1 0x21 PUSH1 0x24 DUP3 ADD MSTORE PUSH32 0x4552433732313A20617070726F76616C20746F2063757272656E74206F776E65 PUSH1 0x44 DUP3 ADD MSTORE PUSH1 0x39 PUSH1 0xF9 SHL PUSH1 0x64 DUP3 ADD MSTORE PUSH1 0x84 ADD PUSH2 0x948 JUMP JUMPDEST CALLER PUSH1 0x1 PUSH1 0x1 PUSH1 0xA0 SHL SUB DUP3 AND EQ DUP1 PUSH2 0xA02 JUMPI POP PUSH2 0xA02 DUP2 CALLER PUSH2 0x2B6B JUMP JUMPDEST PUSH2 0xA6F JUMPI PUSH1 0x40 MLOAD PUSH3 0x461BCD PUSH1 0xE5 SHL DUP2 MSTORE PUSH1 0x20 PUSH1 0x4 DUP3 ADD MSTORE PUSH1 0x38 PUSH1 0x24 DUP3 ADD MSTORE PUSH32 0x4552433732313A20617070726F76652063616C6C6572206973206E6F74206F77 PUSH1 0x44 DUP3 ADD MSTORE PUSH24 0x1B995C881B9BDC88185C1C1C9BDD995908199BDC88185B1B PUSH1 0x42 SHL PUSH1 0x64 DUP3 ADD MSTORE PUSH1 0x84 ADD PUSH2 0x948 JUMP JUMPDEST PUSH2 0xA79 DUP4 DUP4 PUSH2 0x2D4F JUMP JUMPDEST POP POP POP JUMP JUMPDEST PUSH1 0x0 PUSH1 0x2 PUSH1 0x7 SLOAD EQ ISZERO PUSH2 0xAD3 JUMPI PUSH1 0x40 MLOAD PUSH3 0x461BCD PUSH1 0xE5 SHL DUP2 MSTORE PUSH1 0x20 PUSH1 0x4 DUP3 ADD MSTORE PUSH1 0x1F PUSH1 0x24 DUP3 ADD MSTORE PUSH32 0x5265656E7472616E637947756172643A207265656E7472616E742063616C6C00 PUSH1 0x44 DUP3 ADD MSTORE PUSH1 0x64 ADD PUSH2 0x948 JUMP JUMPDEST PUSH1 0x2 PUSH1 0x7 SSTORE PUSH1 0x17 SLOAD PUSH1 0x40 DUP1 MLOAD PUSH4 0xA834069B PUSH1 0xE0 SHL DUP2 MSTORE SWAP1 MLOAD PUSH1 0x0 SWAP3 PUSH1 0x1 PUSH1 0x1 PUSH1 0xA0 SHL SUB AND SWAP2 PUSH4 0xA834069B SWAP2 PUSH1 0x4 DUP1 DUP4 ADD SWAP3 PUSH1 0x20 SWAP3 SWAP2 SWAP1 DUP3 SWAP1 SUB ADD DUP2 DUP7 DUP1 EXTCODESIZE ISZERO DUP1 ISZERO PUSH2 0xB1D JUMPI PUSH1 0x0 DUP1 REVERT JUMPDEST POP GAS STATICCALL ISZERO DUP1 ISZERO PUSH2 0xB31 JUMPI RETURNDATASIZE PUSH1 0x0 DUP1 RETURNDATACOPY RETURNDATASIZE PUSH1 0x0 REVERT JUMPDEST POP POP POP POP PUSH1 0x40 MLOAD RETURNDATASIZE PUSH1 0x1F NOT PUSH1 0x1F DUP3 ADD AND DUP3 ADD DUP1 PUSH1 0x40 MSTORE POP DUP2 ADD SWAP1 PUSH2 0xB55 SWAP2 SWAP1 PUSH2 0x5353 JUMP JUMPDEST SWAP1 POP TIMESTAMP DUP2 GT PUSH2 0xB76 JUMPI PUSH1 0x40 MLOAD PUSH3 0x461BCD PUSH1 0xE5 SHL DUP2 MSTORE PUSH1 0x4 ADD PUSH2 0x948 SWAP1 PUSH2 0x589F JUMP JUMPDEST PUSH1 0x0 PUSH2 0xB82 TIMESTAMP DUP4 PUSH2 0x5AE5 JUMP JUMPDEST SWAP1 POP PUSH1 0x0 PUSH1 0x13 PUSH1 0x0 SWAP1 SLOAD SWAP1 PUSH2 0x100 EXP SWAP1 DIV PUSH1 0x1 PUSH1 0x1 PUSH1 0xA0 SHL SUB AND PUSH1 0x1 PUSH1 0x1 PUSH1 0xA0 SHL SUB AND PUSH4 0x1ACF5582 PUSH1 0x40 MLOAD DUP2 PUSH4 0xFFFFFFFF AND PUSH1 0xE0 SHL DUP2 MSTORE PUSH1 0x4 ADD PUSH1 0x20 PUSH1 0x40 MLOAD DUP1 DUP4 SUB DUP2 DUP7 DUP1 EXTCODESIZE ISZERO DUP1 ISZERO PUSH2 0xBD4 JUMPI PUSH1 0x0 DUP1 REVERT JUMPDEST POP GAS STATICCALL ISZERO DUP1 ISZERO PUSH2 0xBE8 JUMPI RETURNDATASIZE PUSH1 0x0 DUP1 RETURNDATACOPY RETURNDATASIZE PUSH1 0x0 REVERT JUMPDEST POP POP POP POP PUSH1 0x40 MLOAD RETURNDATASIZE PUSH1 0x1F NOT PUSH1 0x1F DUP3 ADD AND DUP3 ADD DUP1 PUSH1 0x40 MSTORE POP DUP2 ADD SWAP1 PUSH2 0xC0C SWAP2 SWAP1 PUSH2 0x5353 JUMP JUMPDEST SWAP1 POP PUSH2 0xA8C0 DUP3 LT ISZERO PUSH2 0xC30 JUMPI PUSH1 0x40 MLOAD PUSH3 0x461BCD PUSH1 0xE5 SHL DUP2 MSTORE PUSH1 0x4 ADD PUSH2 0x948 SWAP1 PUSH2 0x589F JUMP JUMPDEST PUSH1 0x0 DUP1 PUSH1 0x0 PUSH2 0xCD2 DUP6 DUP13 PUSH1 0x18 PUSH1 0x0 SWAP1 SLOAD SWAP1 PUSH2 0x100 EXP SWAP1 DIV PUSH1 0x1 PUSH1 0x1 PUSH1 0xA0 SHL SUB AND PUSH1 0x1 PUSH1 0x1 PUSH1 0xA0 SHL SUB AND PUSH4 0x5EE97101 PUSH1 0x40 MLOAD DUP2 PUSH4 0xFFFFFFFF AND PUSH1 0xE0 SHL DUP2 MSTORE PUSH1 0x4 ADD PUSH1 0x20 PUSH1 0x40 MLOAD DUP1 DUP4 SUB DUP2 DUP7 DUP1 EXTCODESIZE ISZERO DUP1 ISZERO PUSH2 0xC88 JUMPI PUSH1 0x0 DUP1 REVERT JUMPDEST POP GAS STATICCALL ISZERO DUP1 ISZERO PUSH2 0xC9C JUMPI RETURNDATASIZE PUSH1 0x0 DUP1 RETURNDATACOPY RETURNDATASIZE PUSH1 0x0 REVERT JUMPDEST POP POP POP POP PUSH1 0x40 MLOAD RETURNDATASIZE PUSH1 0x1F NOT PUSH1 0x1F DUP3 ADD AND DUP3 ADD DUP1 PUSH1 0x40 MSTORE POP DUP2 ADD SWAP1 PUSH2 0xCC0 SWAP2 SWAP1 PUSH2 0x5353 JUMP JUMPDEST PUSH1 0x13 SLOAD PUSH1 0x1 PUSH1 0xA0 SHL SWAP1 DIV PUSH1 0xFF AND PUSH2 0x2994 JUMP JUMPDEST SWAP2 SWAP5 POP SWAP3 POP SWAP1 POP PUSH1 0x5 PUSH2 0xCE5 DUP7 DUP14 PUSH2 0x5AC6 JUMP JUMPDEST PUSH2 0xCEF SWAP2 SWAP1 PUSH2 0x5AC6 JUMP JUMPDEST PUSH2 0xCFD DUP5 PUSH4 0x1E13380 PUSH2 0x5AC6 JUMP JUMPDEST PUSH2 0xD08 SWAP1 PUSH1 0x64 PUSH2 0x5AC6 JUMP JUMPDEST GT PUSH2 0xD3A JUMPI PUSH1 0x40 MLOAD PUSH3 0x461BCD PUSH1 0xE5 SHL DUP2 MSTORE PUSH1 0x20 PUSH1 0x4 DUP3 ADD MSTORE PUSH1 0x2 PUSH1 0x24 DUP3 ADD MSTORE PUSH2 0x2799 PUSH1 0xF1 SHL PUSH1 0x44 DUP3 ADD MSTORE PUSH1 0x64 ADD PUSH2 0x948 JUMP JUMPDEST PUSH1 0x1 DUP9 PUSH1 0x1 DUP2 GT ISZERO PUSH2 0xD5C JUMPI PUSH4 0x4E487B71 PUSH1 0xE0 SHL PUSH1 0x0 MSTORE PUSH1 0x21 PUSH1 0x4 MSTORE PUSH1 0x24 PUSH1 0x0 REVERT JUMPDEST EQ ISZERO PUSH2 0xE0E JUMPI PUSH1 0x11 SLOAD PUSH1 0x40 MLOAD PUSH4 0x23B872DD PUSH1 0xE0 SHL DUP2 MSTORE PUSH1 0x0 SWAP2 PUSH1 0x1 PUSH1 0x1 PUSH1 0xA0 SHL SUB AND SWAP1 PUSH4 0x23B872DD SWAP1 PUSH2 0xD97 SWAP1 CALLER SWAP1 ADDRESS SWAP1 DUP10 SWAP1 PUSH1 0x4 ADD PUSH2 0x561B JUMP JUMPDEST PUSH1 0x20 PUSH1 0x40 MLOAD DUP1 DUP4 SUB DUP2 PUSH1 0x0 DUP8 DUP1 EXTCODESIZE ISZERO DUP1 ISZERO PUSH2 0xDB1 JUMPI PUSH1 0x0 DUP1 REVERT JUMPDEST POP GAS CALL ISZERO DUP1 ISZERO PUSH2 0xDC5 JUMPI RETURNDATASIZE PUSH1 0x0 DUP1 RETURNDATACOPY RETURNDATASIZE PUSH1 0x0 REVERT JUMPDEST POP POP POP POP PUSH1 0x40 MLOAD RETURNDATASIZE PUSH1 0x1F NOT PUSH1 0x1F DUP3 ADD AND DUP3 ADD DUP1 PUSH1 0x40 MSTORE POP DUP2 ADD SWAP1 PUSH2 0xDE9 SWAP2 SWAP1 PUSH2 0x52C3 JUMP JUMPDEST SWAP1 POP DUP1 PUSH2 0xE08 JUMPI PUSH1 0x40 MLOAD PUSH3 0x461BCD PUSH1 0xE5 SHL DUP2 MSTORE PUSH1 0x4 ADD PUSH2 0x948 SWAP1 PUSH2 0x57E1 JUMP JUMPDEST POP PUSH2 0x1132 JUMP JUMPDEST PUSH1 0x11 SLOAD PUSH1 0x40 MLOAD PUSH4 0x70A08231 PUSH1 0xE0 SHL DUP2 MSTORE DUP5 SWAP2 PUSH1 0x1 PUSH1 0x1 PUSH1 0xA0 SHL SUB AND SWAP1 PUSH4 0x70A08231 SWAP1 PUSH2 0xE3E SWAP1 ADDRESS SWAP1 PUSH1 0x4 ADD PUSH2 0x5607 JUMP JUMPDEST PUSH1 0x20 PUSH1 0x40 MLOAD DUP1 DUP4 SUB DUP2 DUP7 DUP1 EXTCODESIZE ISZERO DUP1 ISZERO PUSH2 0xE56 JUMPI PUSH1 0x0 DUP1 REVERT JUMPDEST POP GAS STATICCALL ISZERO DUP1 ISZERO PUSH2 0xE6A JUMPI RETURNDATASIZE PUSH1 0x0 DUP1 RETURNDATACOPY RETURNDATASIZE PUSH1 0x0 REVERT JUMPDEST POP POP POP POP PUSH1 0x40 MLOAD RETURNDATASIZE PUSH1 0x1F NOT PUSH1 0x1F DUP3 ADD AND DUP3 ADD DUP1 PUSH1 0x40 MSTORE POP DUP2 ADD SWAP1 PUSH2 0xE8E SWAP2 SWAP1 PUSH2 0x5353 JUMP JUMPDEST LT ISZERO PUSH2 0xEC2 JUMPI PUSH1 0x40 MLOAD PUSH3 0x461BCD PUSH1 0xE5 SHL DUP2 MSTORE PUSH1 0x20 PUSH1 0x4 DUP3 ADD MSTORE PUSH1 0x3 PUSH1 0x24 DUP3 ADD MSTORE PUSH3 0x4F3135 PUSH1 0xE8 SHL PUSH1 0x44 DUP3 ADD MSTORE PUSH1 0x64 ADD PUSH2 0x948 JUMP JUMPDEST PUSH1 0x10 SLOAD PUSH1 0x17 SLOAD PUSH1 0x40 DUP1 MLOAD PUSH4 0x2911D739 PUSH1 0xE2 SHL DUP2 MSTORE SWAP1 MLOAD PUSH1 0x0 SWAP4 PUSH1 0x1 PUSH1 0x1 PUSH1 0xA0 SHL SUB SWAP1 DUP2 AND SWAP4 PUSH4 0x23B872DD SWAP4 CALLER SWAP4 SWAP2 SWAP1 SWAP3 AND SWAP2 PUSH4 0xA4475CE4 SWAP2 PUSH1 0x4 DUP1 DUP4 ADD SWAP3 PUSH1 0x20 SWAP3 SWAP2 SWAP1 DUP3 SWAP1 SUB ADD DUP2 DUP7 DUP1 EXTCODESIZE ISZERO DUP1 ISZERO PUSH2 0xF19 JUMPI PUSH1 0x0 DUP1 REVERT JUMPDEST POP GAS STATICCALL ISZERO DUP1 ISZERO PUSH2 0xF2D JUMPI RETURNDATASIZE PUSH1 0x0 DUP1 RETURNDATACOPY RETURNDATASIZE PUSH1 0x0 REVERT JUMPDEST POP POP POP POP PUSH1 0x40 MLOAD RETURNDATASIZE PUSH1 0x1F NOT PUSH1 0x1F DUP3 ADD AND DUP3 ADD DUP1 PUSH1 0x40 MSTORE POP DUP2 ADD SWAP1 PUSH2 0xF51 SWAP2 SWAP1 PUSH2 0x500A JUMP JUMPDEST PUSH4 0x5F5E100 DUP10 PUSH1 0x11 PUSH1 0x0 SWAP1 SLOAD SWAP1 PUSH2 0x100 EXP SWAP1 DIV PUSH1 0x1 PUSH1 0x1 PUSH1 0xA0 SHL SUB AND PUSH1 0x1 PUSH1 0x1 PUSH1 0xA0 SHL SUB AND PUSH4 0x313CE567 PUSH1 0x40 MLOAD DUP2 PUSH4 0xFFFFFFFF AND PUSH1 0xE0 SHL DUP2 MSTORE PUSH1 0x4 ADD PUSH1 0x20 PUSH1 0x40 MLOAD DUP1 DUP4 SUB DUP2 DUP7 DUP1 EXTCODESIZE ISZERO DUP1 ISZERO PUSH2 0xFA5 JUMPI PUSH1 0x0 DUP1 REVERT JUMPDEST POP GAS STATICCALL ISZERO DUP1 ISZERO PUSH2 0xFB9 JUMPI RETURNDATASIZE PUSH1 0x0 DUP1 RETURNDATACOPY RETURNDATASIZE PUSH1 0x0 REVERT JUMPDEST POP POP POP POP PUSH1 0x40 MLOAD RETURNDATASIZE PUSH1 0x1F NOT PUSH1 0x1F DUP3 ADD AND DUP3 ADD DUP1 PUSH1 0x40 MSTORE POP DUP2 ADD SWAP1 PUSH2 0xFDD SWAP2 SWAP1 PUSH2 0x5508 JUMP JUMPDEST PUSH2 0xFE8 SWAP1 PUSH1 0xA PUSH2 0x5A1B JUMP JUMPDEST PUSH1 0x10 PUSH1 0x0 SWAP1 SLOAD SWAP1 PUSH2 0x100 EXP SWAP1 DIV PUSH1 0x1 PUSH1 0x1 PUSH1 0xA0 SHL SUB AND PUSH1 0x1 PUSH1 0x1 PUSH1 0xA0 SHL SUB AND PUSH4 0x313CE567 PUSH1 0x40 MLOAD DUP2 PUSH4 0xFFFFFFFF AND PUSH1 0xE0 SHL DUP2 MSTORE PUSH1 0x4 ADD PUSH1 0x20 PUSH1 0x40 MLOAD DUP1 DUP4 SUB DUP2 DUP7 DUP1 EXTCODESIZE ISZERO DUP1 ISZERO PUSH2 0x1036 JUMPI PUSH1 0x0 DUP1 REVERT JUMPDEST POP GAS STATICCALL ISZERO DUP1 ISZERO PUSH2 0x104A JUMPI RETURNDATASIZE PUSH1 0x0 DUP1 RETURNDATACOPY RETURNDATASIZE PUSH1 0x0 REVERT JUMPDEST POP POP POP POP PUSH1 0x40 MLOAD RETURNDATASIZE PUSH1 0x1F NOT PUSH1 0x1F DUP3 ADD AND DUP3 ADD DUP1 PUSH1 0x40 MSTORE POP DUP2 ADD SWAP1 PUSH2 0x106E SWAP2 SWAP1 PUSH2 0x5508 JUMP JUMPDEST PUSH2 0x1079 SWAP1 PUSH1 0xA PUSH2 0x5A1B JUMP JUMPDEST PUSH2 0x1083 SWAP1 DUP13 PUSH2 0x5AC6 JUMP JUMPDEST PUSH2 0x108D SWAP2 SWAP1 PUSH2 0x59C4 JUMP JUMPDEST PUSH2 0x1097 SWAP2 SWAP1 PUSH2 0x5AC6 JUMP JUMPDEST PUSH2 0x10A1 SWAP2 SWAP1 PUSH2 0x59C4 JUMP JUMPDEST PUSH1 0x40 MLOAD DUP5 PUSH4 0xFFFFFFFF AND PUSH1 0xE0 SHL DUP2 MSTORE PUSH1 0x4 ADD PUSH2 0x10BF SWAP4 SWAP3 SWAP2 SWAP1 PUSH2 0x561B JUMP JUMPDEST PUSH1 0x20 PUSH1 0x40 MLOAD DUP1 DUP4 SUB DUP2 PUSH1 0x0 DUP8 DUP1 EXTCODESIZE ISZERO DUP1 ISZERO PUSH2 0x10D9 JUMPI PUSH1 0x0 DUP1 REVERT JUMPDEST POP GAS CALL ISZERO DUP1 ISZERO PUSH2 0x10ED JUMPI RETURNDATASIZE PUSH1 0x0 DUP1 RETURNDATACOPY RETURNDATASIZE PUSH1 0x0 REVERT JUMPDEST POP POP POP POP PUSH1 0x40 MLOAD RETURNDATASIZE PUSH1 0x1F NOT PUSH1 0x1F DUP3 ADD AND DUP3 ADD DUP1 PUSH1 0x40 MSTORE POP DUP2 ADD SWAP1 PUSH2 0x1111 SWAP2 SWAP1 PUSH2 0x52C3 JUMP JUMPDEST SWAP1 POP DUP1 PUSH2 0x1130 JUMPI PUSH1 0x40 MLOAD PUSH3 0x461BCD PUSH1 0xE5 SHL DUP2 MSTORE PUSH1 0x4 ADD PUSH2 0x948 SWAP1 PUSH2 0x57E1 JUMP JUMPDEST POP JUMPDEST PUSH1 0x40 DUP1 MLOAD PUSH1 0xE0 DUP2 ADD DUP3 MSTORE PUSH1 0x1 DUP2 MSTORE PUSH1 0x18 SLOAD DUP3 MLOAD PUSH4 0x5EE97101 PUSH1 0xE0 SHL DUP2 MSTORE SWAP3 MLOAD PUSH1 0x0 SWAP4 PUSH1 0x20 DUP1 DUP6 ADD SWAP4 PUSH1 0x1 PUSH1 0x1 PUSH1 0xA0 SHL SUB AND SWAP3 PUSH4 0x5EE97101 SWAP3 PUSH1 0x4 DUP1 DUP3 ADD SWAP4 SWAP3 SWAP2 DUP3 SWAP1 SUB ADD DUP2 DUP7 DUP1 EXTCODESIZE ISZERO DUP1 ISZERO PUSH2 0x1186 JUMPI PUSH1 0x0 DUP1 REVERT JUMPDEST POP GAS STATICCALL ISZERO DUP1 ISZERO PUSH2 0x119A JUMPI RETURNDATASIZE PUSH1 0x0 DUP1 RETURNDATACOPY RETURNDATASIZE PUSH1 0x0 REVERT JUMPDEST POP POP POP POP PUSH1 0x40 MLOAD RETURNDATASIZE PUSH1 0x1F NOT PUSH1 0x1F DUP3 ADD AND DUP3 ADD DUP1 PUSH1 0x40 MSTORE POP DUP2 ADD SWAP1 PUSH2 0x11BE SWAP2 SWAP1 PUSH2 0x5353 JUMP JUMPDEST DUP2 MSTORE PUSH1 0x20 ADD DUP14 DUP2 MSTORE PUSH1 0x20 ADD PUSH1 0x64 PUSH1 0x18 PUSH1 0x0 SWAP1 SLOAD SWAP1 PUSH2 0x100 EXP SWAP1 DIV PUSH1 0x1 PUSH1 0x1 PUSH1 0xA0 SHL SUB AND PUSH1 0x1 PUSH1 0x1 PUSH1 0xA0 SHL SUB AND PUSH4 0x302CE651 PUSH1 0x40 MLOAD DUP2 PUSH4 0xFFFFFFFF AND PUSH1 0xE0 SHL DUP2 MSTORE PUSH1 0x4 ADD PUSH1 0x20 PUSH1 0x40 MLOAD DUP1 DUP4 SUB DUP2 DUP7 DUP1 EXTCODESIZE ISZERO DUP1 ISZERO PUSH2 0x1219 JUMPI PUSH1 0x0 DUP1 REVERT JUMPDEST POP GAS STATICCALL ISZERO DUP1 ISZERO PUSH2 0x122D JUMPI RETURNDATASIZE PUSH1 0x0 DUP1 RETURNDATACOPY RETURNDATASIZE PUSH1 0x0 REVERT JUMPDEST POP POP POP POP PUSH1 0x40 MLOAD RETURNDATASIZE PUSH1 0x1F NOT PUSH1 0x1F DUP3 ADD AND DUP3 ADD DUP1 PUSH1 0x40 MSTORE POP DUP2 ADD SWAP1 PUSH2 0x1251 SWAP2 SWAP1 PUSH2 0x5353 JUMP JUMPDEST DUP16 PUSH2 0x125C SWAP2 SWAP1 PUSH2 0x5AC6 JUMP JUMPDEST PUSH2 0x1266 SWAP2 SWAP1 PUSH2 0x59C4 JUMP JUMPDEST DUP2 MSTORE PUSH1 0x20 DUP2 ADD DUP5 SWAP1 MSTORE PUSH1 0x40 ADD PUSH2 0x127C DUP9 TIMESTAMP PUSH2 0x59AC JUMP JUMPDEST DUP2 MSTORE PUSH1 0x20 ADD PUSH1 0x13 PUSH1 0x14 SWAP1 SLOAD SWAP1 PUSH2 0x100 EXP SWAP1 DIV PUSH1 0xFF AND PUSH1 0x2 DUP2 GT ISZERO PUSH2 0x12B0 JUMPI PUSH4 0x4E487B71 PUSH1 0xE0 SHL PUSH1 0x0 MSTORE PUSH1 0x21 PUSH1 0x4 MSTORE PUSH1 0x24 PUSH1 0x0 REVERT JUMPDEST SWAP1 MSTORE SWAP1 POP PUSH2 0x12BC PUSH2 0x2DBD JUMP JUMPDEST SWAP8 POP PUSH2 0x12C8 DUP9 DUP3 PUSH2 0x2DD7 JUMP JUMPDEST PUSH2 0x12F5 DUP9 CALLER PUSH2 0x12F0 DUP12 DUP6 PUSH1 0x20 ADD MLOAD DUP7 PUSH1 0xA0 ADD MLOAD PUSH1 0x13 PUSH1 0x14 SWAP1 SLOAD SWAP1 PUSH2 0x100 EXP SWAP1 DIV PUSH1 0xFF AND PUSH2 0x2E8F JUMP JUMPDEST PUSH2 0x2FCD JUMP JUMPDEST PUSH2 0x12FF DUP9 DUP12 PUSH2 0x2FF0 JUMP JUMPDEST PUSH1 0x0 PUSH2 0x130B DUP5 DUP14 PUSH2 0x2FFA JUMP JUMPDEST SWAP1 POP PUSH2 0x1320 DUP10 DUP4 PUSH1 0x60 ADD MLOAD DUP5 PUSH1 0x80 ADD MLOAD PUSH2 0x34BB JUMP JUMPDEST CALLER PUSH1 0x1 PUSH1 0x1 PUSH1 0xA0 SHL SUB AND DUP10 PUSH32 0x89F823A0225C73A75066E963CE2EEA7708B57680EC86102773DBD244F5412892 DUP4 DUP9 DUP16 PUSH1 0x40 MLOAD PUSH2 0x135E SWAP4 SWAP3 SWAP2 SWAP1 PUSH2 0x592D JUMP JUMPDEST PUSH1 0x40 MLOAD DUP1 SWAP2 SUB SWAP1 LOG3 POP POP PUSH1 0x1 PUSH1 0x7 SSTORE POP SWAP5 SWAP10 SWAP9 POP POP POP POP POP POP POP POP POP JUMP JUMPDEST PUSH2 0x1386 CALLER DUP3 PUSH2 0x3526 JUMP JUMPDEST PUSH2 0x13A2 JUMPI PUSH1 0x40 MLOAD PUSH3 0x461BCD PUSH1 0xE5 SHL DUP2 MSTORE PUSH1 0x4 ADD PUSH2 0x948 SWAP1 PUSH2 0x584E JUMP JUMPDEST PUSH2 0xA79 DUP4 DUP4 DUP4 PUSH2 0x35F0 JUMP JUMPDEST CALLER PUSH2 0x13B6 PUSH2 0x202D JUMP JUMPDEST PUSH1 0x1 PUSH1 0x1 PUSH1 0xA0 SHL SUB AND EQ PUSH2 0x13DC JUMPI PUSH1 0x40 MLOAD PUSH3 0x461BCD PUSH1 0xE5 SHL DUP2 MSTORE PUSH1 0x4 ADD PUSH2 0x948 SWAP1 PUSH2 0x5819 JUMP JUMPDEST PUSH1 0x11 SLOAD PUSH1 0x40 MLOAD PUSH4 0x70A08231 PUSH1 0xE0 SHL DUP2 MSTORE PUSH1 0x0 SWAP2 PUSH1 0x1 PUSH1 0x1 PUSH1 0xA0 SHL SUB AND SWAP1 PUSH4 0x70A08231 SWAP1 PUSH2 0x140D SWAP1 ADDRESS SWAP1 PUSH1 0x4 ADD PUSH2 0x5607 JUMP JUMPDEST PUSH1 0x20 PUSH1 0x40 MLOAD DUP1 DUP4 SUB DUP2 DUP7 DUP1 EXTCODESIZE ISZERO DUP1 ISZERO PUSH2 0x1425 JUMPI PUSH1 0x0 DUP1 REVERT JUMPDEST POP GAS STATICCALL ISZERO DUP1 ISZERO PUSH2 0x1439 JUMPI RETURNDATASIZE PUSH1 0x0 DUP1 RETURNDATACOPY RETURNDATASIZE PUSH1 0x0 REVERT JUMPDEST POP POP POP POP PUSH1 0x40 MLOAD RETURNDATASIZE PUSH1 0x1F NOT PUSH1 0x1F DUP3 ADD AND DUP3 ADD DUP1 PUSH1 0x40 MSTORE POP DUP2 ADD SWAP1 PUSH2 0x145D SWAP2 SWAP1 PUSH2 0x5353 JUMP JUMPDEST SWAP1 POP DUP1 ISZERO PUSH2 0x155E JUMPI PUSH1 0x11 SLOAD PUSH1 0x17 SLOAD PUSH1 0x40 DUP1 MLOAD PUSH4 0x2911D739 PUSH1 0xE2 SHL DUP2 MSTORE SWAP1 MLOAD PUSH1 0x1 PUSH1 0x1 PUSH1 0xA0 SHL SUB SWAP4 DUP5 AND SWAP4 PUSH4 0xA9059CBB SWAP4 AND SWAP2 PUSH4 0xA4475CE4 SWAP2 PUSH1 0x4 DUP1 DUP4 ADD SWAP3 PUSH1 0x20 SWAP3 SWAP2 SWAP1 DUP3 SWAP1 SUB ADD DUP2 DUP7 DUP1 EXTCODESIZE ISZERO DUP1 ISZERO PUSH2 0x14B4 JUMPI PUSH1 0x0 DUP1 REVERT JUMPDEST POP GAS STATICCALL ISZERO DUP1 ISZERO PUSH2 0x14C8 JUMPI RETURNDATASIZE PUSH1 0x0 DUP1 RETURNDATACOPY RETURNDATASIZE PUSH1 0x0 REVERT JUMPDEST POP POP POP POP PUSH1 0x40 MLOAD RETURNDATASIZE PUSH1 0x1F NOT PUSH1 0x1F DUP3 ADD AND DUP3 ADD DUP1 PUSH1 0x40 MSTORE POP DUP2 ADD SWAP1 PUSH2 0x14EC SWAP2 SWAP1 PUSH2 0x500A JUMP JUMPDEST DUP4 PUSH1 0x40 MLOAD DUP4 PUSH4 0xFFFFFFFF AND PUSH1 0xE0 SHL DUP2 MSTORE PUSH1 0x4 ADD PUSH2 0x150A SWAP3 SWAP2 SWAP1 PUSH2 0x567C JUMP JUMPDEST PUSH1 0x20 PUSH1 0x40 MLOAD DUP1 DUP4 SUB DUP2 PUSH1 0x0 DUP8 DUP1 EXTCODESIZE ISZERO DUP1 ISZERO PUSH2 0x1524 JUMPI PUSH1 0x0 DUP1 REVERT JUMPDEST POP GAS CALL ISZERO DUP1 ISZERO PUSH2 0x1538 JUMPI RETURNDATASIZE PUSH1 0x0 DUP1 RETURNDATACOPY RETURNDATASIZE PUSH1 0x0 REVERT JUMPDEST POP POP POP POP PUSH1 0x40 MLOAD RETURNDATASIZE PUSH1 0x1F NOT PUSH1 0x1F DUP3 ADD AND DUP3 ADD DUP1 PUSH1 0x40 MSTORE POP DUP2 ADD SWAP1 PUSH2 0x155C SWAP2 SWAP1 PUSH2 0x52C3 JUMP JUMPDEST POP JUMPDEST POP JUMP JUMPDEST PUSH1 0x0 SWAP1 DUP2 MSTORE PUSH1 0x8 PUSH1 0x20 MSTORE PUSH1 0x40 SWAP1 KECCAK256 PUSH1 0x1 ADD SLOAD SWAP1 JUMP JUMPDEST PUSH1 0x0 SWAP1 DUP2 MSTORE PUSH1 0xA PUSH1 0x20 MSTORE PUSH1 0x40 SWAP1 KECCAK256 SLOAD SWAP1 JUMP JUMPDEST PUSH2 0x1591 DUP3 PUSH2 0x1561 JUMP JUMPDEST PUSH2 0x159B DUP2 CALLER PUSH2 0x3789 JUMP JUMPDEST PUSH2 0xA79 DUP4 DUP4 PUSH2 0x37ED JUMP JUMPDEST PUSH1 0x1 PUSH1 0x1 PUSH1 0xA0 SHL SUB DUP2 AND CALLER EQ PUSH2 0x1615 JUMPI PUSH1 0x40 MLOAD PUSH3 0x461BCD PUSH1 0xE5 SHL DUP2 MSTORE PUSH1 0x20 PUSH1 0x4 DUP3 ADD MSTORE PUSH1 0x2F PUSH1 0x24 DUP3 ADD MSTORE PUSH32 0x416363657373436F6E74726F6C3A2063616E206F6E6C792072656E6F756E6365 PUSH1 0x44 DUP3 ADD MSTORE PUSH15 0x103937B632B9903337B91039B2B633 PUSH1 0x89 SHL PUSH1 0x64 DUP3 ADD MSTORE PUSH1 0x84 ADD PUSH2 0x948 JUMP JUMPDEST PUSH2 0x155C DUP3 DUP3 PUSH2 0x3873 JUMP JUMPDEST PUSH2 0x1628 DUP3 PUSH2 0x1A78 JUMP JUMPDEST PUSH1 0x1 PUSH1 0x1 PUSH1 0xA0 SHL SUB AND CALLER PUSH1 0x1 PUSH1 0x1 PUSH1 0xA0 SHL SUB AND EQ PUSH2 0x1658 JUMPI PUSH1 0x40 MLOAD PUSH3 0x461BCD PUSH1 0xE5 SHL DUP2 MSTORE PUSH1 0x4 ADD PUSH2 0x948 SWAP1 PUSH2 0x5756 JUMP JUMPDEST PUSH2 0xA79 DUP4 DUP4 DUP4 PUSH2 0x38DA JUMP JUMPDEST PUSH2 0xA79 DUP4 DUP4 DUP4 PUSH1 0x40 MLOAD DUP1 PUSH1 0x20 ADD PUSH1 0x40 MSTORE DUP1 PUSH1 0x0 DUP2 MSTORE POP PUSH2 0x2740 JUMP JUMPDEST PUSH2 0x1687 DUP2 PUSH2 0x1A78 JUMP JUMPDEST PUSH1 0x1 PUSH1 0x1 PUSH1 0xA0 SHL SUB AND CALLER PUSH1 0x1 PUSH1 0x1 PUSH1 0xA0 SHL SUB AND EQ PUSH2 0x16B7 JUMPI PUSH1 0x40 MLOAD PUSH3 0x461BCD PUSH1 0xE5 SHL DUP2 MSTORE PUSH1 0x4 ADD PUSH2 0x948 SWAP1 PUSH2 0x5756 JUMP JUMPDEST PUSH2 0x155E DUP2 PUSH2 0x399F JUMP JUMPDEST PUSH2 0x16C9 DUP3 PUSH2 0x17E2 JUMP JUMPDEST PUSH2 0x16FB JUMPI PUSH1 0x40 MLOAD PUSH3 0x461BCD PUSH1 0xE5 SHL DUP2 MSTORE PUSH1 0x20 PUSH1 0x4 DUP3 ADD MSTORE PUSH1 0x3 PUSH1 0x24 DUP3 ADD MSTORE PUSH3 0x271899 PUSH1 0xE9 SHL PUSH1 0x44 DUP3 ADD MSTORE PUSH1 0x64 ADD PUSH2 0x948 JUMP JUMPDEST PUSH1 0x0 DUP1 PUSH1 0x0 PUSH2 0x170A DUP7 DUP6 PUSH2 0x39B7 JUMP JUMPDEST POP SWAP3 POP SWAP3 POP SWAP3 POP PUSH1 0x0 PUSH2 0x171C DUP7 PUSH2 0x3AE4 JUMP JUMPDEST SWAP1 POP PUSH2 0x1758 DUP7 DUP3 DUP5 DUP5 PUSH1 0x60 ADD MLOAD PUSH2 0x1733 SWAP2 SWAP1 PUSH2 0x59AC JUMP JUMPDEST DUP8 DUP6 PUSH1 0x40 ADD MLOAD PUSH2 0x1743 SWAP2 SWAP1 PUSH2 0x59AC JUMP JUMPDEST DUP8 DUP7 PUSH1 0x80 ADD MLOAD PUSH2 0x1753 SWAP2 SWAP1 PUSH2 0x59AC JUMP JUMPDEST PUSH2 0x3BD3 JUMP JUMPDEST PUSH1 0x17 SLOAD PUSH1 0x60 DUP3 ADD MLOAD PUSH1 0x80 DUP4 ADD MLOAD PUSH1 0x40 MLOAD PUSH4 0x57A5C967 PUSH1 0xE0 SHL DUP2 MSTORE SWAP4 SWAP5 POP PUSH1 0x1 PUSH1 0x1 PUSH1 0xA0 SHL SUB SWAP1 SWAP3 AND SWAP3 PUSH4 0x57A5C967 SWAP3 PUSH2 0x1798 SWAP3 DUP12 SWAP3 SWAP1 SWAP2 SWAP1 PUSH1 0x4 ADD PUSH2 0x594C JUMP JUMPDEST PUSH1 0x0 PUSH1 0x40 MLOAD DUP1 DUP4 SUB DUP2 PUSH1 0x0 DUP8 DUP1 EXTCODESIZE ISZERO DUP1 ISZERO PUSH2 0x17B2 JUMPI PUSH1 0x0 DUP1 REVERT JUMPDEST POP GAS CALL ISZERO DUP1 ISZERO PUSH2 0x17C6 JUMPI RETURNDATASIZE PUSH1 0x0 DUP1 RETURNDATACOPY RETURNDATASIZE PUSH1 0x0 REVERT JUMPDEST POP POP POP POP PUSH2 0x17D7 DUP10 DUP10 DUP10 DUP10 DUP10 PUSH2 0x3C05 JUMP JUMPDEST POP POP POP POP POP POP POP POP POP JUMP JUMPDEST PUSH1 0x0 PUSH2 0x803 DUP3 PUSH2 0x2D32 JUMP JUMPDEST PUSH1 0x0 DUP2 DUP2 MSTORE PUSH1 0x15 PUSH1 0x20 MSTORE PUSH1 0x40 SWAP1 KECCAK256 PUSH1 0x5 DUP2 ADD SLOAD TIMESTAMP LT ISZERO PUSH2 0x181F JUMPI PUSH1 0x40 MLOAD PUSH3 0x461BCD PUSH1 0xE5 SHL DUP2 MSTORE PUSH1 0x4 ADD PUSH2 0x948 SWAP1 PUSH2 0x58BB JUMP JUMPDEST PUSH1 0x1 DUP2 SLOAD PUSH1 0xFF AND PUSH1 0x3 DUP2 GT ISZERO PUSH2 0x1845 JUMPI PUSH4 0x4E487B71 PUSH1 0xE0 SHL PUSH1 0x0 MSTORE PUSH1 0x21 PUSH1 0x4 MSTORE PUSH1 0x24 PUSH1 0x0 REVERT JUMPDEST EQ PUSH2 0x1877 JUMPI PUSH1 0x40 MLOAD PUSH3 0x461BCD PUSH1 0xE5 SHL DUP2 MSTORE PUSH1 0x20 PUSH1 0x4 DUP3 ADD MSTORE PUSH1 0x2 PUSH1 0x24 DUP3 ADD MSTORE PUSH2 0x4F35 PUSH1 0xF0 SHL PUSH1 0x44 DUP3 ADD MSTORE PUSH1 0x64 ADD PUSH2 0x948 JUMP JUMPDEST PUSH1 0x5 DUP2 ADD SLOAD PUSH1 0x0 SWAP1 DUP2 MSTORE PUSH1 0x16 PUSH1 0x20 MSTORE PUSH1 0x40 SWAP1 KECCAK256 SLOAD DUP1 PUSH2 0x18A8 JUMPI PUSH1 0x40 MLOAD PUSH3 0x461BCD PUSH1 0xE5 SHL DUP2 MSTORE PUSH1 0x4 ADD PUSH2 0x948 SWAP1 PUSH2 0x57C4 JUMP JUMPDEST PUSH1 0x13 SLOAD PUSH1 0x40 MLOAD PUSH4 0x3906D29 PUSH1 0xE1 SHL DUP2 MSTORE PUSH1 0x4 DUP2 ADD DUP4 SWAP1 MSTORE PUSH1 0x0 SWAP2 PUSH1 0x1 PUSH1 0x1 PUSH1 0xA0 SHL SUB AND SWAP1 PUSH4 0x720DA52 SWAP1 PUSH1 0x24 ADD PUSH1 0xA0 PUSH1 0x40 MLOAD DUP1 DUP4 SUB DUP2 DUP7 DUP1 EXTCODESIZE ISZERO DUP1 ISZERO PUSH2 0x18ED JUMPI PUSH1 0x0 DUP1 REVERT JUMPDEST POP GAS STATICCALL ISZERO DUP1 ISZERO PUSH2 0x1901 JUMPI RETURNDATASIZE PUSH1 0x0 DUP1 RETURNDATACOPY RETURNDATASIZE PUSH1 0x0 REVERT JUMPDEST POP POP POP POP PUSH1 0x40 MLOAD RETURNDATASIZE PUSH1 0x1F NOT PUSH1 0x1F DUP3 ADD AND DUP3 ADD DUP1 PUSH1 0x40 MSTORE POP DUP2 ADD SWAP1 PUSH2 0x1925 SWAP2 SWAP1 PUSH2 0x54B9 JUMP JUMPDEST POP SWAP2 SWAP4 POP PUSH1 0x2 SWAP3 POP PUSH2 0x1935 SWAP2 POP POP JUMP JUMPDEST PUSH1 0x6 DUP5 ADD SLOAD PUSH1 0xFF AND PUSH1 0x2 DUP2 GT ISZERO PUSH2 0x195C JUMPI PUSH4 0x4E487B71 PUSH1 0xE0 SHL PUSH1 0x0 MSTORE PUSH1 0x21 PUSH1 0x4 MSTORE PUSH1 0x24 PUSH1 0x0 REVERT JUMPDEST EQ DUP1 ISZERO PUSH2 0x196D JUMPI POP DUP3 PUSH1 0x1 ADD SLOAD DUP2 LT ISZERO JUMPDEST DUP1 PUSH2 0x19AD JUMPI POP PUSH1 0x1 PUSH1 0x6 DUP5 ADD SLOAD PUSH1 0xFF AND PUSH1 0x2 DUP2 GT ISZERO PUSH2 0x199C JUMPI PUSH4 0x4E487B71 PUSH1 0xE0 SHL PUSH1 0x0 MSTORE PUSH1 0x21 PUSH1 0x4 MSTORE PUSH1 0x24 PUSH1 0x0 REVERT JUMPDEST EQ DUP1 ISZERO PUSH2 0x19AD JUMPI POP DUP3 PUSH1 0x1 ADD SLOAD DUP2 GT ISZERO JUMPDEST ISZERO PUSH2 0x19C1 JUMPI PUSH2 0x19BB DUP5 PUSH2 0x23D6 JUMP JUMPDEST POP PUSH2 0x1A72 JUMP JUMPDEST DUP3 SLOAD PUSH1 0xFF NOT AND PUSH1 0x3 OR DUP4 SSTORE PUSH1 0x17 SLOAD PUSH1 0x40 MLOAD PUSH4 0x6198E339 PUSH1 0xE0 SHL DUP2 MSTORE PUSH1 0x4 DUP2 ADD DUP7 SWAP1 MSTORE PUSH1 0x1 PUSH1 0x1 PUSH1 0xA0 SHL SUB SWAP1 SWAP2 AND SWAP1 PUSH4 0x6198E339 SWAP1 PUSH1 0x24 ADD PUSH1 0x0 PUSH1 0x40 MLOAD DUP1 DUP4 SUB DUP2 PUSH1 0x0 DUP8 DUP1 EXTCODESIZE ISZERO DUP1 ISZERO PUSH2 0x1A12 JUMPI PUSH1 0x0 DUP1 REVERT JUMPDEST POP GAS CALL ISZERO DUP1 ISZERO PUSH2 0x1A26 JUMPI RETURNDATASIZE PUSH1 0x0 DUP1 RETURNDATACOPY RETURNDATASIZE PUSH1 0x0 REVERT JUMPDEST POP POP POP POP PUSH2 0x1A33 DUP5 PUSH2 0x399F JUMP JUMPDEST DUP4 PUSH32 0x5F36A4A575E512EB69D6D28C3B0FF98CCA7BA50AD5BF04E14094AD1D425E0D31 DUP5 PUSH1 0x4 ADD SLOAD PUSH1 0x40 MLOAD PUSH2 0x1A69 SWAP2 DUP2 MSTORE PUSH1 0x20 ADD SWAP1 JUMP JUMPDEST PUSH1 0x40 MLOAD DUP1 SWAP2 SUB SWAP1 LOG2 JUMPDEST POP POP POP POP JUMP JUMPDEST PUSH1 0x0 DUP2 DUP2 MSTORE PUSH1 0x2 PUSH1 0x20 MSTORE PUSH1 0x40 DUP2 KECCAK256 SLOAD PUSH1 0x1 PUSH1 0x1 PUSH1 0xA0 SHL SUB AND DUP1 PUSH2 0x803 JUMPI PUSH1 0x40 MLOAD PUSH3 0x461BCD PUSH1 0xE5 SHL DUP2 MSTORE PUSH1 0x20 PUSH1 0x4 DUP3 ADD MSTORE PUSH1 0x29 PUSH1 0x24 DUP3 ADD MSTORE PUSH32 0x4552433732313A206F776E657220717565727920666F72206E6F6E6578697374 PUSH1 0x44 DUP3 ADD MSTORE PUSH9 0x32B73A103A37B5B2B7 PUSH1 0xB9 SHL PUSH1 0x64 DUP3 ADD MSTORE PUSH1 0x84 ADD PUSH2 0x948 JUMP JUMPDEST PUSH1 0x11 SLOAD PUSH1 0x17 SLOAD PUSH1 0x40 MLOAD PUSH4 0x95EA7B3 PUSH1 0xE0 SHL DUP2 MSTORE PUSH1 0x1 PUSH1 0x1 PUSH1 0xA0 SHL SUB SWAP3 DUP4 AND SWAP3 PUSH4 0x95EA7B3 SWAP3 PUSH2 0x1B27 SWAP3 SWAP2 AND SWAP1 PUSH1 0x0 NOT SWAP1 PUSH1 0x4 ADD PUSH2 0x567C JUMP JUMPDEST PUSH1 0x20 PUSH1 0x40 MLOAD DUP1 DUP4 SUB DUP2 PUSH1 0x0 DUP8 DUP1 EXTCODESIZE ISZERO DUP1 ISZERO PUSH2 0x1B41 JUMPI PUSH1 0x0 DUP1 REVERT JUMPDEST POP GAS CALL ISZERO DUP1 ISZERO PUSH2 0x1B55 JUMPI RETURNDATASIZE PUSH1 0x0 DUP1 RETURNDATACOPY RETURNDATASIZE PUSH1 0x0 REVERT JUMPDEST POP POP POP POP PUSH1 0x40 MLOAD RETURNDATASIZE PUSH1 0x1F NOT PUSH1 0x1F DUP3 ADD AND DUP3 ADD DUP1 PUSH1 0x40 MSTORE POP DUP2 ADD SWAP1 PUSH2 0x155E SWAP2 SWAP1 PUSH2 0x52C3 JUMP JUMPDEST PUSH1 0x60 DUP2 PUSH2 0x1BAD JUMPI PUSH1 0x40 MLOAD PUSH3 0x461BCD PUSH1 0xE5 SHL DUP2 MSTORE PUSH1 0x20 PUSH1 0x4 DUP3 ADD MSTORE PUSH1 0x2 PUSH1 0x24 DUP3 ADD MSTORE PUSH2 0x4E31 PUSH1 0xF0 SHL PUSH1 0x44 DUP3 ADD MSTORE PUSH1 0x64 ADD PUSH2 0x948 JUMP JUMPDEST DUP2 PUSH1 0x1 PUSH1 0x1 PUSH1 0x40 SHL SUB DUP2 GT ISZERO PUSH2 0x1BD3 JUMPI PUSH4 0x4E487B71 PUSH1 0xE0 SHL PUSH1 0x0 MSTORE PUSH1 0x41 PUSH1 0x4 MSTORE PUSH1 0x24 PUSH1 0x0 REVERT JUMPDEST PUSH1 0x40 MLOAD SWAP1 DUP1 DUP3 MSTORE DUP1 PUSH1 0x20 MUL PUSH1 0x20 ADD DUP3 ADD PUSH1 0x40 MSTORE DUP1 ISZERO PUSH2 0x1BFC JUMPI DUP2 PUSH1 0x20 ADD PUSH1 0x20 DUP3 MUL DUP1 CALLDATASIZE DUP4 CALLDATACOPY ADD SWAP1 POP JUMPDEST POP SWAP1 POP PUSH1 0x0 PUSH2 0x1C0A DUP6 PUSH2 0x3AE4 JUMP JUMPDEST SWAP1 POP PUSH1 0x0 PUSH2 0x1C17 DUP7 PUSH2 0x2982 JUMP JUMPDEST SWAP1 POP PUSH1 0x0 DUP1 DUP1 DUP1 JUMPDEST DUP8 DUP2 LT ISZERO PUSH2 0x1E2A JUMPI PUSH1 0x0 PUSH2 0x1C31 PUSH2 0x2DBD JUMP JUMPDEST SWAP1 POP DUP1 DUP9 DUP4 DUP2 MLOAD DUP2 LT PUSH2 0x1C54 JUMPI PUSH4 0x4E487B71 PUSH1 0xE0 SHL PUSH1 0x0 MSTORE PUSH1 0x32 PUSH1 0x4 MSTORE PUSH1 0x24 PUSH1 0x0 REVERT JUMPDEST PUSH1 0x20 MUL PUSH1 0x20 ADD ADD DUP2 DUP2 MSTORE POP POP PUSH2 0x1C91 DUP12 DUP3 DUP13 DUP13 DUP7 DUP2 DUP2 LT PUSH2 0x1C85 JUMPI PUSH4 0x4E487B71 PUSH1 0xE0 SHL PUSH1 0x0 MSTORE PUSH1 0x32 PUSH1 0x4 MSTORE PUSH1 0x24 PUSH1 0x0 REVERT JUMPDEST SWAP1 POP PUSH1 0x20 MUL ADD CALLDATALOAD PUSH2 0x3E4B JUMP JUMPDEST PUSH1 0x0 DUP7 DUP12 DUP12 DUP6 DUP2 DUP2 LT PUSH2 0x1CB4 JUMPI PUSH4 0x4E487B71 PUSH1 0xE0 SHL PUSH1 0x0 MSTORE PUSH1 0x32 PUSH1 0x4 MSTORE PUSH1 0x24 PUSH1 0x0 REVERT JUMPDEST SWAP1 POP PUSH1 0x20 MUL ADD CALLDATALOAD DUP10 PUSH1 0x40 ADD MLOAD PUSH2 0x1CCA SWAP2 SWAP1 PUSH2 0x5AC6 JUMP JUMPDEST PUSH2 0x1CD4 SWAP2 SWAP1 PUSH2 0x59C4 JUMP JUMPDEST SWAP1 POP PUSH2 0x1CE0 DUP2 DUP8 PUSH2 0x59AC JUMP JUMPDEST SWAP6 POP PUSH1 0x0 DUP8 DUP13 DUP13 DUP7 DUP2 DUP2 LT PUSH2 0x1D05 JUMPI PUSH4 0x4E487B71 PUSH1 0xE0 SHL PUSH1 0x0 MSTORE PUSH1 0x32 PUSH1 0x4 MSTORE PUSH1 0x24 PUSH1 0x0 REVERT JUMPDEST SWAP1 POP PUSH1 0x20 MUL ADD CALLDATALOAD DUP11 PUSH1 0x60 ADD MLOAD PUSH2 0x1D1B SWAP2 SWAP1 PUSH2 0x5AC6 JUMP JUMPDEST PUSH2 0x1D25 SWAP2 SWAP1 PUSH2 0x59C4 JUMP JUMPDEST SWAP1 POP PUSH2 0x1D31 DUP2 DUP8 PUSH2 0x59AC JUMP JUMPDEST SWAP6 POP PUSH1 0x0 DUP9 DUP14 DUP14 DUP8 DUP2 DUP2 LT PUSH2 0x1D56 JUMPI PUSH4 0x4E487B71 PUSH1 0xE0 SHL PUSH1 0x0 MSTORE PUSH1 0x32 PUSH1 0x4 MSTORE PUSH1 0x24 PUSH1 0x0 REVERT JUMPDEST SWAP1 POP PUSH1 0x20 MUL ADD CALLDATALOAD DUP12 PUSH1 0x80 ADD MLOAD PUSH2 0x1D6C SWAP2 SWAP1 PUSH2 0x5AC6 JUMP JUMPDEST PUSH2 0x1D76 SWAP2 SWAP1 PUSH2 0x59C4 JUMP JUMPDEST SWAP1 POP PUSH2 0x1D82 DUP2 DUP8 PUSH2 0x59AC JUMP JUMPDEST SWAP6 POP PUSH1 0x0 PUSH1 0x40 MLOAD DUP1 PUSH1 0xE0 ADD PUSH1 0x40 MSTORE DUP1 DUP13 PUSH1 0x0 ADD MLOAD PUSH1 0x3 DUP2 GT ISZERO PUSH2 0x1DB5 JUMPI PUSH4 0x4E487B71 PUSH1 0xE0 SHL PUSH1 0x0 MSTORE PUSH1 0x21 PUSH1 0x4 MSTORE PUSH1 0x24 PUSH1 0x0 REVERT JUMPDEST DUP2 MSTORE PUSH1 0x20 ADD DUP13 PUSH1 0x20 ADD MLOAD DUP2 MSTORE PUSH1 0x20 ADD DUP6 DUP2 MSTORE PUSH1 0x20 ADD DUP5 DUP2 MSTORE PUSH1 0x20 ADD DUP4 DUP2 MSTORE PUSH1 0x20 ADD DUP13 PUSH1 0xA0 ADD MLOAD DUP2 MSTORE PUSH1 0x20 ADD DUP13 PUSH1 0xC0 ADD MLOAD PUSH1 0x2 DUP2 GT ISZERO PUSH2 0x1E04 JUMPI PUSH4 0x4E487B71 PUSH1 0xE0 SHL PUSH1 0x0 MSTORE PUSH1 0x21 PUSH1 0x4 MSTORE PUSH1 0x24 PUSH1 0x0 REVERT JUMPDEST SWAP1 MSTORE SWAP1 POP PUSH2 0x1E12 DUP6 DUP3 PUSH2 0x2DD7 JUMP JUMPDEST POP POP POP POP POP DUP1 DUP1 PUSH2 0x1E22 SWAP1 PUSH2 0x5B74 JUMP JUMPDEST SWAP2 POP POP PUSH2 0x1C1F JUMP JUMPDEST POP PUSH2 0x1E60 DUP10 DUP7 DUP5 DUP9 PUSH1 0x60 ADD MLOAD PUSH2 0x1E40 SWAP2 SWAP1 PUSH2 0x5AE5 JUMP JUMPDEST DUP7 DUP10 PUSH1 0x40 ADD MLOAD PUSH2 0x1E50 SWAP2 SWAP1 PUSH2 0x5AE5 JUMP JUMPDEST DUP6 DUP11 PUSH1 0x80 ADD MLOAD PUSH2 0x1753 SWAP2 SWAP1 PUSH2 0x5AE5 JUMP JUMPDEST PUSH1 0x17 SLOAD PUSH1 0x60 DUP3 ADD MLOAD PUSH1 0x80 DUP4 ADD MLOAD PUSH1 0x40 MLOAD PUSH4 0x57A5C967 PUSH1 0xE0 SHL DUP2 MSTORE SWAP4 SWAP9 POP PUSH1 0x1 PUSH1 0x1 PUSH1 0xA0 SHL SUB SWAP1 SWAP3 AND SWAP3 PUSH4 0x57A5C967 SWAP3 PUSH2 0x1EA0 SWAP3 DUP15 SWAP3 SWAP1 SWAP2 SWAP1 PUSH1 0x4 ADD PUSH2 0x594C JUMP JUMPDEST PUSH1 0x0 PUSH1 0x40 MLOAD DUP1 DUP4 SUB DUP2 PUSH1 0x0 DUP8 DUP1 EXTCODESIZE ISZERO DUP1 ISZERO PUSH2 0x1EBA JUMPI PUSH1 0x0 DUP1 REVERT JUMPDEST POP GAS CALL ISZERO DUP1 ISZERO PUSH2 0x1ECE JUMPI RETURNDATASIZE PUSH1 0x0 DUP1 RETURNDATACOPY RETURNDATASIZE PUSH1 0x0 REVERT JUMPDEST POP POP POP POP PUSH1 0x0 JUMPDEST DUP8 DUP2 LT ISZERO PUSH2 0x1F5E JUMPI PUSH1 0x0 PUSH2 0x1F0F DUP9 DUP4 DUP2 MLOAD DUP2 LT PUSH2 0x1F02 JUMPI PUSH4 0x4E487B71 PUSH1 0xE0 SHL PUSH1 0x0 MSTORE PUSH1 0x32 PUSH1 0x4 MSTORE PUSH1 0x24 PUSH1 0x0 REVERT JUMPDEST PUSH1 0x20 MUL PUSH1 0x20 ADD ADD MLOAD PUSH2 0x3AE4 JUMP JUMPDEST SWAP1 POP PUSH2 0x1F4B DUP9 DUP4 DUP2 MLOAD DUP2 LT PUSH2 0x1F34 JUMPI PUSH4 0x4E487B71 PUSH1 0xE0 SHL PUSH1 0x0 MSTORE PUSH1 0x32 PUSH1 0x4 MSTORE PUSH1 0x24 PUSH1 0x0 REVERT JUMPDEST PUSH1 0x20 MUL PUSH1 0x20 ADD ADD MLOAD DUP3 PUSH1 0x60 ADD MLOAD DUP4 PUSH1 0x80 ADD MLOAD PUSH2 0x34BB JUMP JUMPDEST POP DUP1 PUSH2 0x1F56 DUP2 PUSH2 0x5B74 JUMP JUMPDEST SWAP2 POP POP PUSH2 0x1ED5 JUMP JUMPDEST POP POP POP POP POP POP SWAP4 SWAP3 POP POP POP JUMP JUMPDEST PUSH1 0x0 PUSH1 0x1 PUSH1 0x1 PUSH1 0xA0 SHL SUB DUP3 AND PUSH2 0x1FD6 JUMPI PUSH1 0x40 MLOAD PUSH3 0x461BCD PUSH1 0xE5 SHL DUP2 MSTORE PUSH1 0x20 PUSH1 0x4 DUP3 ADD MSTORE PUSH1 0x2A PUSH1 0x24 DUP3 ADD MSTORE PUSH32 0x4552433732313A2062616C616E636520717565727920666F7220746865207A65 PUSH1 0x44 DUP3 ADD MSTORE PUSH10 0x726F2061646472657373 PUSH1 0xB0 SHL PUSH1 0x64 DUP3 ADD MSTORE PUSH1 0x84 ADD PUSH2 0x948 JUMP JUMPDEST POP PUSH1 0x1 PUSH1 0x1 PUSH1 0xA0 SHL SUB AND PUSH1 0x0 SWAP1 DUP2 MSTORE PUSH1 0x3 PUSH1 0x20 MSTORE PUSH1 0x40 SWAP1 KECCAK256 SLOAD SWAP1 JUMP JUMPDEST CALLER PUSH2 0x1FFB PUSH2 0x202D JUMP JUMPDEST PUSH1 0x1 PUSH1 0x1 PUSH1 0xA0 SHL SUB AND EQ PUSH2 0x2021 JUMPI PUSH1 0x40 MLOAD PUSH3 0x461BCD PUSH1 0xE5 SHL DUP2 MSTORE PUSH1 0x4 ADD PUSH2 0x948 SWAP1 PUSH2 0x5819 JUMP JUMPDEST PUSH2 0x202B PUSH1 0x0 PUSH2 0x3F75 JUMP JUMPDEST JUMP JUMPDEST PUSH1 0x6 SLOAD PUSH1 0x1 PUSH1 0x1 PUSH1 0xA0 SHL SUB AND SWAP1 JUMP JUMPDEST PUSH1 0x13 SLOAD PUSH1 0x40 MLOAD PUSH4 0x3906D29 PUSH1 0xE1 SHL DUP2 MSTORE PUSH1 0x4 DUP2 ADD DUP4 SWAP1 MSTORE PUSH1 0x0 SWAP2 DUP3 SWAP2 DUP3 SWAP2 PUSH1 0x1 PUSH1 0x1 PUSH1 0xA0 SHL SUB AND SWAP1 PUSH4 0x720DA52 SWAP1 PUSH1 0x24 ADD PUSH1 0xA0 PUSH1 0x40 MLOAD DUP1 DUP4 SUB DUP2 DUP7 DUP1 EXTCODESIZE ISZERO DUP1 ISZERO PUSH2 0x2085 JUMPI PUSH1 0x0 DUP1 REVERT JUMPDEST POP GAS STATICCALL ISZERO DUP1 ISZERO PUSH2 0x2099 JUMPI RETURNDATASIZE PUSH1 0x0 DUP1 RETURNDATACOPY RETURNDATASIZE PUSH1 0x0 REVERT JUMPDEST POP POP POP POP PUSH1 0x40 MLOAD RETURNDATASIZE PUSH1 0x1F NOT PUSH1 0x1F DUP3 ADD AND DUP3 ADD DUP1 PUSH1 0x40 MSTORE POP DUP2 ADD SWAP1 PUSH2 0x20BD SWAP2 SWAP1 PUSH2 0x54B9 JUMP JUMPDEST POP SWAP4 POP POP SWAP3 POP POP PUSH1 0x0 PUSH1 0x17 PUSH1 0x0 SWAP1 SLOAD SWAP1 PUSH2 0x100 EXP SWAP1 DIV PUSH1 0x1 PUSH1 0x1 PUSH1 0xA0 SHL SUB AND PUSH1 0x1 PUSH1 0x1 PUSH1 0xA0 SHL SUB AND PUSH4 0xA834069B PUSH1 0x40 MLOAD DUP2 PUSH4 0xFFFFFFFF AND PUSH1 0xE0 SHL DUP2 MSTORE PUSH1 0x4 ADD PUSH1 0x20 PUSH1 0x40 MLOAD DUP1 DUP4 SUB DUP2 DUP7 DUP1 EXTCODESIZE ISZERO DUP1 ISZERO PUSH2 0x2114 JUMPI PUSH1 0x0 DUP1 REVERT JUMPDEST POP GAS STATICCALL ISZERO DUP1 ISZERO PUSH2 0x2128 JUMPI RETURNDATASIZE PUSH1 0x0 DUP1 RETURNDATACOPY RETURNDATASIZE PUSH1 0x0 REVERT JUMPDEST POP POP POP POP PUSH1 0x40 MLOAD RETURNDATASIZE PUSH1 0x1F NOT PUSH1 0x1F DUP3 ADD AND DUP3 ADD DUP1 PUSH1 0x40 MSTORE POP DUP2 ADD SWAP1 PUSH2 0x214C SWAP2 SWAP1 PUSH2 0x5353 JUMP JUMPDEST SWAP1 POP DUP2 DUP2 LT PUSH2 0x2182 JUMPI PUSH1 0x40 MLOAD PUSH3 0x461BCD PUSH1 0xE5 SHL DUP2 MSTORE PUSH1 0x20 PUSH1 0x4 DUP3 ADD MSTORE PUSH1 0x2 PUSH1 0x24 DUP3 ADD MSTORE PUSH2 0x4331 PUSH1 0xF0 SHL PUSH1 0x44 DUP3 ADD MSTORE PUSH1 0x64 ADD PUSH2 0x948 JUMP JUMPDEST PUSH1 0x0 PUSH2 0x218F PUSH1 0x1 DUP8 PUSH2 0x5AE5 JUMP JUMPDEST SWAP1 POP JUMPDEST DUP5 PUSH2 0x22BB JUMPI PUSH1 0x13 SLOAD PUSH1 0x40 MLOAD PUSH4 0x3906D29 PUSH1 0xE1 SHL DUP2 MSTORE PUSH1 0x4 DUP2 ADD DUP4 SWAP1 MSTORE PUSH1 0x0 SWAP2 PUSH1 0x1 PUSH1 0x1 PUSH1 0xA0 SHL SUB AND SWAP1 PUSH4 0x720DA52 SWAP1 PUSH1 0x24 ADD PUSH1 0xA0 PUSH1 0x40 MLOAD DUP1 DUP4 SUB DUP2 DUP7 DUP1 EXTCODESIZE ISZERO DUP1 ISZERO PUSH2 0x21DC JUMPI PUSH1 0x0 DUP1 REVERT JUMPDEST POP GAS STATICCALL ISZERO DUP1 ISZERO PUSH2 0x21F0 JUMPI RETURNDATASIZE PUSH1 0x0 DUP1 RETURNDATACOPY RETURNDATASIZE PUSH1 0x0 REVERT JUMPDEST POP POP POP POP PUSH1 0x40 MLOAD RETURNDATASIZE PUSH1 0x1F NOT PUSH1 0x1F DUP3 ADD AND DUP3 ADD DUP1 PUSH1 0x40 MSTORE POP DUP2 ADD SWAP1 PUSH2 0x2214 SWAP2 SWAP1 PUSH2 0x54B9 JUMP JUMPDEST POP SWAP4 POP POP POP POP DUP1 PUSH1 0x0 EQ ISZERO PUSH2 0x226A JUMPI PUSH1 0x0 DUP3 GT PUSH2 0x2258 JUMPI PUSH1 0x40 MLOAD PUSH3 0x461BCD PUSH1 0xE5 SHL DUP2 MSTORE PUSH1 0x20 PUSH1 0x4 DUP3 ADD MSTORE PUSH1 0x2 PUSH1 0x24 DUP3 ADD MSTORE PUSH2 0x4333 PUSH1 0xF0 SHL PUSH1 0x44 DUP3 ADD MSTORE PUSH1 0x64 ADD PUSH2 0x948 JUMP JUMPDEST PUSH2 0x2263 PUSH1 0x1 DUP4 PUSH2 0x5AE5 JUMP JUMPDEST SWAP2 POP PUSH2 0x22B5 JUMP JUMPDEST DUP3 DUP2 GT ISZERO PUSH2 0x229F JUMPI PUSH1 0x40 MLOAD PUSH3 0x461BCD PUSH1 0xE5 SHL DUP2 MSTORE PUSH1 0x20 PUSH1 0x4 DUP3 ADD MSTORE PUSH1 0x2 PUSH1 0x24 DUP3 ADD MSTORE PUSH2 0x10CD PUSH1 0xF2 SHL PUSH1 0x44 DUP3 ADD MSTORE PUSH1 0x64 ADD PUSH2 0x948 JUMP JUMPDEST PUSH1 0x0 DUP4 DUP2 MSTORE PUSH1 0x16 PUSH1 0x20 MSTORE PUSH1 0x40 SWAP1 KECCAK256 DUP3 SWAP1 SSTORE PUSH1 0x1 SWAP6 POP JUMPDEST POP PUSH2 0x2192 JUMP JUMPDEST POP POP POP POP SWAP2 SWAP1 POP JUMP JUMPDEST PUSH1 0x0 SWAP2 DUP3 MSTORE PUSH1 0x8 PUSH1 0x20 SWAP1 DUP2 MSTORE PUSH1 0x40 DUP1 DUP5 KECCAK256 PUSH1 0x1 PUSH1 0x1 PUSH1 0xA0 SHL SUB SWAP4 SWAP1 SWAP4 AND DUP5 MSTORE SWAP2 SWAP1 MSTORE SWAP1 KECCAK256 SLOAD PUSH1 0xFF AND SWAP1 JUMP JUMPDEST PUSH1 0x60 PUSH1 0x1 DUP1 SLOAD PUSH2 0x818 SWAP1 PUSH2 0x5B3F JUMP JUMPDEST PUSH1 0x1 PUSH1 0x1 PUSH1 0xA0 SHL SUB DUP3 AND CALLER EQ ISZERO PUSH2 0x2353 JUMPI PUSH1 0x40 MLOAD PUSH3 0x461BCD PUSH1 0xE5 SHL DUP2 MSTORE PUSH1 0x20 PUSH1 0x4 DUP3 ADD MSTORE PUSH1 0x19 PUSH1 0x24 DUP3 ADD MSTORE PUSH25 0x22A9219B99189D1030B8383937BB32903A379031B0B63632B9 PUSH1 0x39 SHL PUSH1 0x44 DUP3 ADD MSTORE PUSH1 0x64 ADD PUSH2 0x948 JUMP JUMPDEST CALLER PUSH1 0x0 DUP2 DUP2 MSTORE PUSH1 0x5 PUSH1 0x20 SWAP1 DUP2 MSTORE PUSH1 0x40 DUP1 DUP4 KECCAK256 PUSH1 0x1 PUSH1 0x1 PUSH1 0xA0 SHL SUB DUP8 AND DUP1 DUP6 MSTORE SWAP1 DUP4 MSTORE SWAP3 DUP2 SWAP1 KECCAK256 DUP1 SLOAD PUSH1 0xFF NOT AND DUP7 ISZERO ISZERO SWAP1 DUP2 OR SWAP1 SWAP2 SSTORE SWAP1 MLOAD SWAP1 DUP2 MSTORE SWAP2 SWAP3 SWAP2 PUSH32 0x17307EAB39AB6107E8899845AD3D59BD9653F200F220920489CA2B5937696C31 SWAP2 ADD PUSH1 0x40 MLOAD DUP1 SWAP2 SUB SWAP1 LOG3 POP POP JUMP JUMPDEST PUSH1 0x0 DUP2 DUP2 MSTORE PUSH1 0xC PUSH1 0x20 MSTORE PUSH1 0x40 DUP2 KECCAK256 PUSH2 0x803 SWAP1 PUSH2 0x3FC7 JUMP JUMPDEST PUSH1 0x0 PUSH2 0x23E1 DUP3 PUSH2 0x17E2 JUMP JUMPDEST PUSH2 0x2413 JUMPI PUSH1 0x40 MLOAD PUSH3 0x461BCD PUSH1 0xE5 SHL DUP2 MSTORE PUSH1 0x20 PUSH1 0x4 DUP3 ADD MSTORE PUSH1 0x3 PUSH1 0x24 DUP3 ADD MSTORE PUSH3 0x4F313 PUSH1 0xEC SHL PUSH1 0x44 DUP3 ADD MSTORE PUSH1 0x64 ADD PUSH2 0x948 JUMP JUMPDEST PUSH1 0x0 DUP3 DUP2 MSTORE PUSH1 0x15 PUSH1 0x20 MSTORE PUSH1 0x40 SWAP1 KECCAK256 PUSH1 0x5 DUP2 ADD SLOAD TIMESTAMP LT ISZERO PUSH2 0x2445 JUMPI PUSH1 0x40 MLOAD PUSH3 0x461BCD PUSH1 0xE5 SHL DUP2 MSTORE PUSH1 0x4 ADD PUSH2 0x948 SWAP1 PUSH2 0x58BB JUMP JUMPDEST PUSH1 0x1 DUP2 SLOAD PUSH1 0xFF AND PUSH1 0x3 DUP2 GT ISZERO PUSH2 0x246B JUMPI PUSH4 0x4E487B71 PUSH1 0xE0 SHL PUSH1 0x0 MSTORE PUSH1 0x21 PUSH1 0x4 MSTORE PUSH1 0x24 PUSH1 0x0 REVERT JUMPDEST EQ PUSH2 0x249E JUMPI PUSH1 0x40 MLOAD PUSH3 0x461BCD PUSH1 0xE5 SHL DUP2 MSTORE PUSH1 0x20 PUSH1 0x4 DUP3 ADD MSTORE PUSH1 0x3 PUSH1 0x24 DUP3 ADD MSTORE PUSH3 0x13CC4D PUSH1 0xEA SHL PUSH1 0x44 DUP3 ADD MSTORE PUSH1 0x64 ADD PUSH2 0x948 JUMP JUMPDEST PUSH1 0x5 DUP2 ADD SLOAD PUSH1 0x0 SWAP1 DUP2 MSTORE PUSH1 0x16 PUSH1 0x20 MSTORE PUSH1 0x40 SWAP1 KECCAK256 SLOAD DUP1 PUSH2 0x24CF JUMPI PUSH1 0x40 MLOAD PUSH3 0x461BCD PUSH1 0xE5 SHL DUP2 MSTORE PUSH1 0x4 ADD PUSH2 0x948 SWAP1 PUSH2 0x57C4 JUMP JUMPDEST PUSH1 0x13 SLOAD PUSH1 0x40 MLOAD PUSH4 0x3906D29 PUSH1 0xE1 SHL DUP2 MSTORE PUSH1 0x4 DUP2 ADD DUP4 SWAP1 MSTORE PUSH1 0x0 SWAP2 PUSH1 0x1 PUSH1 0x1 PUSH1 0xA0 SHL SUB AND SWAP1 PUSH4 0x720DA52 SWAP1 PUSH1 0x24 ADD PUSH1 0xA0 PUSH1 0x40 MLOAD DUP1 DUP4 SUB DUP2 DUP7 DUP1 EXTCODESIZE ISZERO DUP1 ISZERO PUSH2 0x2514 JUMPI PUSH1 0x0 DUP1 REVERT JUMPDEST POP GAS STATICCALL ISZERO DUP1 ISZERO PUSH2 0x2528 JUMPI RETURNDATASIZE PUSH1 0x0 DUP1 RETURNDATACOPY RETURNDATASIZE PUSH1 0x0 REVERT JUMPDEST POP POP POP POP PUSH1 0x40 MLOAD RETURNDATASIZE PUSH1 0x1F NOT PUSH1 0x1F DUP3 ADD AND DUP3 ADD DUP1 PUSH1 0x40 MSTORE POP DUP2 ADD SWAP1 PUSH2 0x254C SWAP2 SWAP1 PUSH2 0x54B9 JUMP JUMPDEST POP SWAP2 SWAP4 POP PUSH1 0x2 SWAP3 POP PUSH2 0x255C SWAP2 POP POP JUMP JUMPDEST PUSH1 0x6 DUP5 ADD SLOAD PUSH1 0xFF AND PUSH1 0x2 DUP2 GT ISZERO PUSH2 0x2583 JUMPI PUSH4 0x4E487B71 PUSH1 0xE0 SHL PUSH1 0x0 MSTORE PUSH1 0x21 PUSH1 0x4 MSTORE PUSH1 0x24 PUSH1 0x0 REVERT JUMPDEST EQ ISZERO PUSH2 0x25F4 JUMPI DUP1 DUP4 PUSH1 0x1 ADD SLOAD GT ISZERO PUSH2 0x25C3 JUMPI PUSH1 0x40 MLOAD PUSH3 0x461BCD PUSH1 0xE5 SHL DUP2 MSTORE PUSH1 0x20 PUSH1 0x4 DUP3 ADD MSTORE PUSH1 0x3 PUSH1 0x24 DUP3 ADD MSTORE PUSH3 0x4F3137 PUSH1 0xE8 SHL PUSH1 0x44 DUP3 ADD MSTORE PUSH1 0x64 ADD PUSH2 0x948 JUMP JUMPDEST DUP1 DUP4 PUSH1 0x2 ADD SLOAD DUP5 PUSH1 0x1 ADD SLOAD DUP4 PUSH2 0x25D9 SWAP2 SWAP1 PUSH2 0x5AE5 JUMP JUMPDEST PUSH2 0x25E3 SWAP2 SWAP1 PUSH2 0x5AC6 JUMP JUMPDEST PUSH2 0x25ED SWAP2 SWAP1 PUSH2 0x59C4 JUMP JUMPDEST SWAP4 POP PUSH2 0x265B JUMP JUMPDEST DUP1 DUP4 PUSH1 0x1 ADD SLOAD LT ISZERO PUSH2 0x262E JUMPI PUSH1 0x40 MLOAD PUSH3 0x461BCD PUSH1 0xE5 SHL DUP2 MSTORE PUSH1 0x20 PUSH1 0x4 DUP3 ADD MSTORE PUSH1 0x3 PUSH1 0x24 DUP3 ADD MSTORE PUSH3 0x9E627 PUSH1 0xEB SHL PUSH1 0x44 DUP3 ADD MSTORE PUSH1 0x64 ADD PUSH2 0x948 JUMP JUMPDEST DUP1 DUP4 PUSH1 0x2 ADD SLOAD DUP3 DUP6 PUSH1 0x1 ADD SLOAD PUSH2 0x2644 SWAP2 SWAP1 PUSH2 0x5AE5 JUMP JUMPDEST PUSH2 0x264E SWAP2 SWAP1 PUSH2 0x5AC6 JUMP JUMPDEST PUSH2 0x2658 SWAP2 SWAP1 PUSH2 0x59C4 JUMP JUMPDEST SWAP4 POP JUMPDEST DUP3 PUSH1 0x3 ADD SLOAD DUP5 GT ISZERO PUSH2 0x266F JUMPI DUP3 PUSH1 0x3 ADD SLOAD SWAP4 POP JUMPDEST PUSH1 0x17 SLOAD PUSH1 0x1 PUSH1 0x1 PUSH1 0xA0 SHL SUB AND PUSH4 0x81B34F15 DUP7 PUSH2 0x268A DUP2 PUSH2 0x1A78 JUMP JUMPDEST PUSH1 0x40 MLOAD PUSH1 0x1 PUSH1 0x1 PUSH1 0xE0 SHL SUB NOT PUSH1 0xE0 DUP6 SWAP1 SHL AND DUP2 MSTORE PUSH1 0x4 DUP2 ADD SWAP3 SWAP1 SWAP3 MSTORE PUSH1 0x1 PUSH1 0x1 PUSH1 0xA0 SHL SUB AND PUSH1 0x24 DUP3 ADD MSTORE PUSH1 0x44 DUP2 ADD DUP8 SWAP1 MSTORE PUSH1 0x64 ADD PUSH1 0x0 PUSH1 0x40 MLOAD DUP1 DUP4 SUB DUP2 PUSH1 0x0 DUP8 DUP1 EXTCODESIZE ISZERO DUP1 ISZERO PUSH2 0x26D8 JUMPI PUSH1 0x0 DUP1 REVERT JUMPDEST POP GAS CALL ISZERO DUP1 ISZERO PUSH2 0x26EC JUMPI RETURNDATASIZE PUSH1 0x0 DUP1 RETURNDATACOPY RETURNDATASIZE PUSH1 0x0 REVERT JUMPDEST POP POP POP POP PUSH2 0x26F9 DUP6 PUSH2 0x399F JUMP JUMPDEST DUP3 SLOAD PUSH1 0xFF NOT AND PUSH1 0x2 OR DUP4 SSTORE PUSH1 0x40 MLOAD DUP5 DUP2 MSTORE DUP6 SWAP1 PUSH31 0x84FE51C7CB34B132B7B6EB5D5A87A489F8D6D284758D00A0402C1BAD9A0DEF SWAP1 PUSH1 0x20 ADD PUSH1 0x40 MLOAD DUP1 SWAP2 SUB SWAP1 LOG2 POP POP POP SWAP2 SWAP1 POP JUMP JUMPDEST PUSH2 0x274B CALLER JUMPDEST DUP4 PUSH2 0x3526 JUMP JUMPDEST PUSH2 0x2767 JUMPI PUSH1 0x40 MLOAD PUSH3 0x461BCD PUSH1 0xE5 SHL DUP2 MSTORE PUSH1 0x4 ADD PUSH2 0x948 SWAP1 PUSH2 0x584E JUMP JUMPDEST PUSH2 0x1A72 DUP5 DUP5 DUP5 DUP5 PUSH2 0x3FD1 JUMP JUMPDEST DUP2 PUSH2 0x27A5 JUMPI PUSH1 0x40 MLOAD PUSH3 0x461BCD PUSH1 0xE5 SHL DUP2 MSTORE PUSH1 0x20 PUSH1 0x4 DUP3 ADD MSTORE PUSH1 0x2 PUSH1 0x24 DUP3 ADD MSTORE PUSH2 0x138D PUSH1 0xF2 SHL PUSH1 0x44 DUP3 ADD MSTORE PUSH1 0x64 ADD PUSH2 0x948 JUMP JUMPDEST PUSH1 0x0 PUSH2 0x27B0 DUP3 PUSH2 0x3AE4 JUMP JUMPDEST PUSH1 0x60 DUP2 ADD MLOAD PUSH1 0x40 DUP3 ADD MLOAD PUSH1 0x80 DUP4 ADD MLOAD SWAP3 SWAP4 POP SWAP1 SWAP2 PUSH1 0x0 JUMPDEST DUP7 DUP2 LT ISZERO PUSH2 0x2904 JUMPI PUSH1 0x0 PUSH2 0x2800 DUP10 DUP10 DUP5 DUP2 DUP2 LT PUSH2 0x27F4 JUMPI PUSH4 0x4E487B71 PUSH1 0xE0 SHL PUSH1 0x0 MSTORE PUSH1 0x32 PUSH1 0x4 MSTORE PUSH1 0x24 PUSH1 0x0 REVERT JUMPDEST SWAP1 POP PUSH1 0x20 MUL ADD CALLDATALOAD PUSH2 0x3AE4 JUMP JUMPDEST SWAP1 POP DUP1 PUSH1 0x60 ADD MLOAD DUP6 PUSH2 0x2812 SWAP2 SWAP1 PUSH2 0x59AC JUMP JUMPDEST SWAP5 POP DUP1 PUSH1 0x40 ADD MLOAD DUP5 PUSH2 0x2824 SWAP2 SWAP1 PUSH2 0x59AC JUMP JUMPDEST SWAP4 POP DUP1 PUSH1 0x80 ADD MLOAD DUP4 PUSH2 0x2836 SWAP2 SWAP1 PUSH2 0x59AC JUMP JUMPDEST PUSH1 0x17 SLOAD SWAP1 SWAP4 POP PUSH1 0x1 PUSH1 0x1 PUSH1 0xA0 SHL SUB AND PUSH4 0xDBF21B0 DUP11 DUP11 DUP6 DUP2 DUP2 LT PUSH2 0x286A JUMPI PUSH4 0x4E487B71 PUSH1 0xE0 SHL PUSH1 0x0 MSTORE PUSH1 0x32 PUSH1 0x4 MSTORE PUSH1 0x24 PUSH1 0x0 REVERT JUMPDEST SWAP1 POP PUSH1 0x20 MUL ADD CALLDATALOAD PUSH1 0x40 MLOAD DUP3 PUSH4 0xFFFFFFFF AND PUSH1 0xE0 SHL DUP2 MSTORE PUSH1 0x4 ADD PUSH2 0x288F SWAP2 DUP2 MSTORE PUSH1 0x20 ADD SWAP1 JUMP JUMPDEST PUSH1 0x0 PUSH1 0x40 MLOAD DUP1 DUP4 SUB DUP2 PUSH1 0x0 DUP8 DUP1 EXTCODESIZE ISZERO DUP1 ISZERO PUSH2 0x28A9 JUMPI PUSH1 0x0 DUP1 REVERT JUMPDEST POP GAS CALL ISZERO DUP1 ISZERO PUSH2 0x28BD JUMPI RETURNDATASIZE PUSH1 0x0 DUP1 RETURNDATACOPY RETURNDATASIZE PUSH1 0x0 REVERT JUMPDEST POP POP POP POP PUSH2 0x28F1 DUP10 DUP10 DUP5 DUP2 DUP2 LT PUSH2 0x28E4 JUMPI PUSH4 0x4E487B71 PUSH1 0xE0 SHL PUSH1 0x0 MSTORE PUSH1 0x32 PUSH1 0x4 MSTORE PUSH1 0x24 PUSH1 0x0 REVERT JUMPDEST SWAP1 POP PUSH1 0x20 MUL ADD CALLDATALOAD DUP9 PUSH2 0x4004 JUMP JUMPDEST POP DUP1 PUSH2 0x28FC DUP2 PUSH2 0x5B74 JUMP JUMPDEST SWAP2 POP POP PUSH2 0x27C7 JUMP JUMPDEST POP PUSH2 0x2912 DUP6 DUP6 DUP6 DUP6 DUP6 PUSH2 0x3BD3 JUMP JUMPDEST POP PUSH1 0x17 SLOAD PUSH1 0x40 MLOAD PUSH4 0x57A5C967 PUSH1 0xE0 SHL DUP2 MSTORE PUSH1 0x1 PUSH1 0x1 PUSH1 0xA0 SHL SUB SWAP1 SWAP2 AND SWAP1 PUSH4 0x57A5C967 SWAP1 PUSH2 0x2947 SWAP1 DUP9 SWAP1 DUP8 SWAP1 DUP7 SWAP1 PUSH1 0x4 ADD PUSH2 0x594C JUMP JUMPDEST PUSH1 0x0 PUSH1 0x40 MLOAD DUP1 DUP4 SUB DUP2 PUSH1 0x0 DUP8 DUP1 EXTCODESIZE ISZERO DUP1 ISZERO PUSH2 0x2961 JUMPI PUSH1 0x0 DUP1 REVERT JUMPDEST POP GAS CALL ISZERO DUP1 ISZERO PUSH2 0x2975 JUMPI RETURNDATASIZE PUSH1 0x0 DUP1 RETURNDATACOPY RETURNDATASIZE PUSH1 0x0 REVERT JUMPDEST POP POP POP POP POP POP POP POP POP POP POP JUMP JUMPDEST PUSH1 0x0 SWAP1 DUP2 MSTORE PUSH1 0xF PUSH1 0x20 MSTORE PUSH1 0x40 SWAP1 KECCAK256 SLOAD SWAP1 JUMP JUMPDEST PUSH1 0x0 DUP1 PUSH1 0x0 DUP1 PUSH1 0x13 PUSH1 0x0 SWAP1 SLOAD SWAP1 PUSH2 0x100 EXP SWAP1 DIV PUSH1 0x1 PUSH1 0x1 PUSH1 0xA0 SHL SUB AND PUSH1 0x1 PUSH1 0x1 PUSH1 0xA0 SHL SUB AND PUSH4 0x1ACF5582 PUSH1 0x40 MLOAD DUP2 PUSH4 0xFFFFFFFF AND PUSH1 0xE0 SHL DUP2 MSTORE PUSH1 0x4 ADD PUSH1 0x20 PUSH1 0x40 MLOAD DUP1 DUP4 SUB DUP2 DUP7 DUP1 EXTCODESIZE ISZERO DUP1 ISZERO PUSH2 0x29E8 JUMPI PUSH1 0x0 DUP1 REVERT JUMPDEST POP GAS STATICCALL ISZERO DUP1 ISZERO PUSH2 0x29FC JUMPI RETURNDATASIZE PUSH1 0x0 DUP1 RETURNDATACOPY RETURNDATASIZE PUSH1 0x0 REVERT JUMPDEST POP POP POP POP PUSH1 0x40 MLOAD RETURNDATASIZE PUSH1 0x1F NOT PUSH1 0x1F DUP3 ADD AND DUP3 ADD DUP1 PUSH1 0x40 MSTORE POP DUP2 ADD SWAP1 PUSH2 0x2A20 SWAP2 SWAP1 PUSH2 0x5353 JUMP JUMPDEST PUSH1 0x18 SLOAD PUSH1 0x17 SLOAD PUSH1 0x40 MLOAD PUSH4 0x4E2A029 PUSH1 0xE3 SHL DUP2 MSTORE SWAP3 SWAP4 POP PUSH20 0x0 SWAP3 PUSH4 0x27150148 SWAP3 PUSH2 0x2A76 SWAP3 DUP14 SWAP3 DUP14 SWAP3 DUP14 SWAP3 DUP14 SWAP3 DUP11 SWAP3 PUSH1 0x1 PUSH1 0x1 PUSH1 0xA0 SHL SUB SWAP1 DUP2 AND SWAP3 AND SWAP1 PUSH1 0x4 ADD PUSH2 0x5962 JUMP JUMPDEST PUSH1 0x60 PUSH1 0x40 MLOAD DUP1 DUP4 SUB DUP2 DUP7 DUP1 EXTCODESIZE ISZERO DUP1 ISZERO PUSH2 0x2A8E JUMPI PUSH1 0x0 DUP1 REVERT JUMPDEST POP GAS DELEGATECALL ISZERO DUP1 ISZERO PUSH2 0x2AA2 JUMPI RETURNDATASIZE PUSH1 0x0 DUP1 RETURNDATACOPY RETURNDATASIZE PUSH1 0x0 REVERT JUMPDEST POP POP POP POP PUSH1 0x40 MLOAD RETURNDATASIZE PUSH1 0x1F NOT PUSH1 0x1F DUP3 ADD AND DUP3 ADD DUP1 PUSH1 0x40 MSTORE POP DUP2 ADD SWAP1 PUSH2 0x2AC6 SWAP2 SWAP1 PUSH2 0x5454 JUMP JUMPDEST SWAP2 SWAP11 SWAP1 SWAP10 POP SWAP1 SWAP8 POP SWAP6 POP POP POP POP POP POP JUMP JUMPDEST PUSH1 0x60 PUSH2 0x803 DUP3 PUSH2 0x4180 JUMP JUMPDEST PUSH1 0x0 DUP3 DUP2 MSTORE PUSH1 0xC PUSH1 0x20 MSTORE PUSH1 0x40 DUP2 KECCAK256 PUSH2 0x2AFA SWAP1 DUP4 PUSH2 0x42E2 JUMP JUMPDEST SWAP4 SWAP3 POP POP POP JUMP JUMPDEST PUSH2 0x2B0A DUP3 PUSH2 0x1561 JUMP JUMPDEST PUSH2 0x2B14 DUP2 CALLER PUSH2 0x3789 JUMP JUMPDEST PUSH2 0xA79 DUP4 DUP4 PUSH2 0x3873 JUMP JUMPDEST DUP1 PUSH1 0x0 JUMPDEST DUP2 DUP2 LT ISZERO PUSH2 0x1A72 JUMPI PUSH2 0x2B59 DUP5 DUP5 DUP4 DUP2 DUP2 LT PUSH2 0x2B4D JUMPI PUSH4 0x4E487B71 PUSH1 0xE0 SHL PUSH1 0x0 MSTORE PUSH1 0x32 PUSH1 0x4 MSTORE PUSH1 0x24 PUSH1 0x0 REVERT JUMPDEST SWAP1 POP PUSH1 0x20 MUL ADD CALLDATALOAD PUSH2 0x17ED JUMP JUMPDEST DUP1 PUSH2 0x2B63 DUP2 PUSH2 0x5B74 JUMP JUMPDEST SWAP2 POP POP PUSH2 0x2B22 JUMP JUMPDEST PUSH1 0x1 PUSH1 0x1 PUSH1 0xA0 SHL SUB SWAP2 DUP3 AND PUSH1 0x0 SWAP1 DUP2 MSTORE PUSH1 0x5 PUSH1 0x20 SWAP1 DUP2 MSTORE PUSH1 0x40 DUP1 DUP4 KECCAK256 SWAP4 SWAP1 SWAP5 AND DUP3 MSTORE SWAP2 SWAP1 SWAP2 MSTORE KECCAK256 SLOAD PUSH1 0xFF AND SWAP1 JUMP JUMPDEST CALLER PUSH2 0x2BA2 PUSH2 0x202D JUMP JUMPDEST PUSH1 0x1 PUSH1 0x1 PUSH1 0xA0 SHL SUB AND EQ PUSH2 0x2BC8 JUMPI PUSH1 0x40 MLOAD PUSH3 0x461BCD PUSH1 0xE5 SHL DUP2 MSTORE PUSH1 0x4 ADD PUSH2 0x948 SWAP1 PUSH2 0x5819 JUMP JUMPDEST PUSH1 0x1 PUSH1 0x1 PUSH1 0xA0 SHL SUB DUP2 AND PUSH2 0x2C2D JUMPI PUSH1 0x40 MLOAD PUSH3 0x461BCD PUSH1 0xE5 SHL DUP2 MSTORE PUSH1 0x20 PUSH1 0x4 DUP3 ADD MSTORE PUSH1 0x26 PUSH1 0x24 DUP3 ADD MSTORE PUSH32 0x4F776E61626C653A206E6577206F776E657220697320746865207A65726F2061 PUSH1 0x44 DUP3 ADD MSTORE PUSH6 0x646472657373 PUSH1 0xD0 SHL PUSH1 0x64 DUP3 ADD MSTORE PUSH1 0x84 ADD PUSH2 0x948 JUMP JUMPDEST PUSH2 0x155E DUP2 PUSH2 0x3F75 JUMP JUMPDEST PUSH1 0x0 PUSH2 0x2C40 PUSH2 0x2DBD JUMP JUMPDEST SWAP1 POP PUSH1 0x0 DUP1 PUSH1 0x0 DUP1 PUSH2 0x2C52 DUP8 DUP8 PUSH2 0x39B7 JUMP JUMPDEST SWAP4 POP SWAP4 POP SWAP4 POP SWAP4 POP PUSH1 0x0 PUSH1 0x40 MLOAD DUP1 PUSH1 0xE0 ADD PUSH1 0x40 MSTORE DUP1 DUP4 PUSH1 0x0 ADD MLOAD PUSH1 0x3 DUP2 GT ISZERO PUSH2 0x2C8B JUMPI PUSH4 0x4E487B71 PUSH1 0xE0 SHL PUSH1 0x0 MSTORE PUSH1 0x21 PUSH1 0x4 MSTORE PUSH1 0x24 PUSH1 0x0 REVERT JUMPDEST DUP2 MSTORE PUSH1 0x20 ADD DUP4 PUSH1 0x20 ADD MLOAD DUP2 MSTORE PUSH1 0x20 ADD DUP7 DUP2 MSTORE PUSH1 0x20 ADD DUP5 DUP2 MSTORE PUSH1 0x20 ADD DUP6 DUP2 MSTORE PUSH1 0x20 ADD DUP4 PUSH1 0xA0 ADD MLOAD DUP2 MSTORE PUSH1 0x20 ADD DUP4 PUSH1 0xC0 ADD MLOAD PUSH1 0x2 DUP2 GT ISZERO PUSH2 0x2CDA JUMPI PUSH4 0x4E487B71 PUSH1 0xE0 SHL PUSH1 0x0 MSTORE PUSH1 0x21 PUSH1 0x4 MSTORE PUSH1 0x24 PUSH1 0x0 REVERT JUMPDEST SWAP1 MSTORE SWAP1 POP PUSH2 0x2CE8 DUP7 DUP3 PUSH2 0x2DD7 JUMP JUMPDEST PUSH2 0x2CF3 DUP7 DUP5 DUP7 PUSH2 0x34BB JUMP JUMPDEST PUSH2 0x2D00 DUP11 DUP11 DUP11 DUP10 DUP12 PUSH2 0x3C05 JUMP JUMPDEST POP POP POP POP POP SWAP5 SWAP4 POP POP POP POP JUMP JUMPDEST PUSH1 0x0 PUSH1 0x1 PUSH1 0x1 PUSH1 0xE0 SHL SUB NOT DUP3 AND PUSH4 0x7965DB0B PUSH1 0xE0 SHL EQ DUP1 PUSH2 0x803 JUMPI POP PUSH2 0x803 DUP3 PUSH2 0x42EE JUMP JUMPDEST PUSH1 0x0 SWAP1 DUP2 MSTORE PUSH1 0x2 PUSH1 0x20 MSTORE PUSH1 0x40 SWAP1 KECCAK256 SLOAD PUSH1 0x1 PUSH1 0x1 PUSH1 0xA0 SHL SUB AND ISZERO ISZERO SWAP1 JUMP JUMPDEST PUSH1 0x0 DUP2 DUP2 MSTORE PUSH1 0x4 PUSH1 0x20 MSTORE PUSH1 0x40 SWAP1 KECCAK256 DUP1 SLOAD PUSH1 0x1 PUSH1 0x1 PUSH1 0xA0 SHL SUB NOT AND PUSH1 0x1 PUSH1 0x1 PUSH1 0xA0 SHL SUB DUP5 AND SWAP1 DUP2 OR SWAP1 SWAP2 SSTORE DUP2 SWAP1 PUSH2 0x2D84 DUP3 PUSH2 0x1A78 JUMP JUMPDEST PUSH1 0x1 PUSH1 0x1 PUSH1 0xA0 SHL SUB AND PUSH32 0x8C5BE1E5EBEC7D5BD14F71427D1E84F3DD0314C0F7B2291E5B200AC8C7C3B925 PUSH1 0x40 MLOAD PUSH1 0x40 MLOAD DUP1 SWAP2 SUB SWAP1 LOG4 POP POP JUMP JUMPDEST PUSH1 0x14 DUP1 SLOAD PUSH1 0x0 SWAP2 DUP3 PUSH2 0x2DCE DUP4 PUSH2 0x5B74 JUMP JUMPDEST SWAP2 SWAP1 POP SSTORE SWAP1 POP SWAP1 JUMP JUMPDEST PUSH1 0x0 DUP3 DUP2 MSTORE PUSH1 0x15 PUSH1 0x20 MSTORE PUSH1 0x40 SWAP1 KECCAK256 DUP2 MLOAD DUP2 SLOAD DUP4 SWAP3 SWAP2 SWAP1 DUP3 SWAP1 PUSH1 0xFF NOT AND PUSH1 0x1 DUP4 PUSH1 0x3 DUP2 GT ISZERO PUSH2 0x2E15 JUMPI PUSH4 0x4E487B71 PUSH1 0xE0 SHL PUSH1 0x0 MSTORE PUSH1 0x21 PUSH1 0x4 MSTORE PUSH1 0x24 PUSH1 0x0 REVERT JUMPDEST MUL OR SWAP1 SSTORE POP PUSH1 0x20 DUP3 ADD MLOAD DUP2 PUSH1 0x1 ADD SSTORE PUSH1 0x40 DUP3 ADD MLOAD DUP2 PUSH1 0x2 ADD SSTORE PUSH1 0x60 DUP3 ADD MLOAD DUP2 PUSH1 0x3 ADD SSTORE PUSH1 0x80 DUP3 ADD MLOAD DUP2 PUSH1 0x4 ADD SSTORE PUSH1 0xA0 DUP3 ADD MLOAD DUP2 PUSH1 0x5 ADD SSTORE PUSH1 0xC0 DUP3 ADD MLOAD DUP2 PUSH1 0x6 ADD PUSH1 0x0 PUSH2 0x100 EXP DUP2 SLOAD DUP2 PUSH1 0xFF MUL NOT AND SWAP1 DUP4 PUSH1 0x2 DUP2 GT ISZERO PUSH2 0x2E84 JUMPI PUSH4 0x4E487B71 PUSH1 0xE0 SHL PUSH1 0x0 MSTORE PUSH1 0x21 PUSH1 0x4 MSTORE PUSH1 0x24 PUSH1 0x0 REVERT JUMPDEST MUL OR SWAP1 SSTORE POP POP POP POP POP JUMP JUMPDEST PUSH1 0x0 DUP4 DUP4 DUP4 DUP8 PUSH1 0x40 MLOAD PUSH1 0x20 ADD PUSH2 0x2EA8 SWAP5 SWAP4 SWAP3 SWAP2 SWAP1 PUSH2 0x5903 JUMP JUMPDEST PUSH1 0x40 DUP1 MLOAD DUP1 DUP4 SUB PUSH1 0x1F NOT ADD DUP2 MSTORE SWAP2 DUP2 MSTORE DUP2 MLOAD PUSH1 0x20 SWAP3 DUP4 ADD KECCAK256 PUSH1 0x0 DUP2 DUP2 MSTORE PUSH1 0x19 SWAP1 SWAP4 MSTORE SWAP2 KECCAK256 PUSH1 0x2 ADD SLOAD SWAP1 SWAP2 POP PUSH2 0x100 SWAP1 DIV PUSH1 0xFF AND ISZERO PUSH2 0x2F0E JUMPI PUSH1 0x40 MLOAD PUSH3 0x461BCD PUSH1 0xE5 SHL DUP2 MSTORE PUSH1 0x20 PUSH1 0x4 DUP3 ADD MSTORE PUSH1 0x3 PUSH1 0x24 DUP3 ADD MSTORE PUSH3 0x138C4D PUSH1 0xEA SHL PUSH1 0x44 DUP3 ADD MSTORE PUSH1 0x64 ADD PUSH2 0x948 JUMP JUMPDEST PUSH1 0x40 MLOAD DUP1 PUSH1 0x80 ADD PUSH1 0x40 MSTORE DUP1 DUP6 DUP2 MSTORE PUSH1 0x20 ADD DUP5 DUP2 MSTORE PUSH1 0x20 ADD DUP4 PUSH1 0x2 DUP2 GT ISZERO PUSH2 0x2F45 JUMPI PUSH4 0x4E487B71 PUSH1 0xE0 SHL PUSH1 0x0 MSTORE PUSH1 0x21 PUSH1 0x4 MSTORE PUSH1 0x24 PUSH1 0x0 REVERT JUMPDEST DUP2 MSTORE PUSH1 0x1 PUSH1 0x20 SWAP2 DUP3 ADD DUP2 SWAP1 MSTORE PUSH1 0x0 DUP5 DUP2 MSTORE PUSH1 0x19 DUP4 MSTORE PUSH1 0x40 SWAP1 DUP2 SWAP1 KECCAK256 DUP5 MLOAD DUP2 SSTORE SWAP3 DUP5 ADD MLOAD DUP4 DUP4 ADD SSTORE DUP4 ADD MLOAD PUSH1 0x2 DUP1 DUP5 ADD DUP1 SLOAD SWAP3 SWAP4 SWAP1 SWAP3 PUSH1 0xFF NOT AND SWAP2 DUP5 SWAP1 DUP2 GT ISZERO PUSH2 0x2F9E JUMPI PUSH4 0x4E487B71 PUSH1 0xE0 SHL PUSH1 0x0 MSTORE PUSH1 0x21 PUSH1 0x4 MSTORE PUSH1 0x24 PUSH1 0x0 REVERT JUMPDEST MUL OR SWAP1 SSTORE POP PUSH1 0x60 SWAP2 SWAP1 SWAP2 ADD MLOAD PUSH1 0x2 SWAP1 SWAP2 ADD DUP1 SLOAD SWAP2 ISZERO ISZERO PUSH2 0x100 MUL PUSH2 0xFF00 NOT SWAP1 SWAP3 AND SWAP2 SWAP1 SWAP2 OR SWAP1 SSTORE SWAP5 SWAP4 POP POP POP POP JUMP JUMPDEST PUSH1 0x0 DUP4 DUP2 MSTORE PUSH1 0xA PUSH1 0x20 MSTORE PUSH1 0x40 SWAP1 KECCAK256 DUP2 SWAP1 SSTORE PUSH1 0xD SLOAD PUSH2 0xA79 SWAP1 DUP4 SWAP1 DUP6 SWAP1 DUP5 SWAP1 PUSH2 0x433E JUMP JUMPDEST PUSH2 0x155C DUP3 DUP3 PUSH2 0x43C8 JUMP JUMPDEST PUSH1 0x0 PUSH1 0x64 PUSH1 0x18 PUSH1 0x0 SWAP1 SLOAD SWAP1 PUSH2 0x100 EXP SWAP1 DIV PUSH1 0x1 PUSH1 0x1 PUSH1 0xA0 SHL SUB AND PUSH1 0x1 PUSH1 0x1 PUSH1 0xA0 SHL SUB AND PUSH4 0xCA535C3B PUSH1 0x40 MLOAD DUP2 PUSH4 0xFFFFFFFF AND PUSH1 0xE0 SHL DUP2 MSTORE PUSH1 0x4 ADD PUSH1 0x20 PUSH1 0x40 MLOAD DUP1 DUP4 SUB DUP2 DUP7 DUP1 EXTCODESIZE ISZERO DUP1 ISZERO PUSH2 0x304C JUMPI PUSH1 0x0 DUP1 REVERT JUMPDEST POP GAS STATICCALL ISZERO DUP1 ISZERO PUSH2 0x3060 JUMPI RETURNDATASIZE PUSH1 0x0 DUP1 RETURNDATACOPY RETURNDATASIZE PUSH1 0x0 REVERT JUMPDEST POP POP POP POP PUSH1 0x40 MLOAD RETURNDATASIZE PUSH1 0x1F NOT PUSH1 0x1F DUP3 ADD AND DUP3 ADD DUP1 PUSH1 0x40 MSTORE POP DUP2 ADD SWAP1 PUSH2 0x3084 SWAP2 SWAP1 PUSH2 0x5353 JUMP JUMPDEST PUSH2 0x308E SWAP1 DUP6 PUSH2 0x5AC6 JUMP JUMPDEST PUSH2 0x3098 SWAP2 SWAP1 PUSH2 0x59C4 JUMP JUMPDEST SWAP1 POP DUP1 ISZERO PUSH2 0x3199 JUMPI PUSH1 0x11 SLOAD PUSH1 0x18 SLOAD PUSH1 0x40 DUP1 MLOAD PUSH4 0x605CC77 PUSH1 0xE2 SHL DUP2 MSTORE SWAP1 MLOAD PUSH1 0x1 PUSH1 0x1 PUSH1 0xA0 SHL SUB SWAP4 DUP5 AND SWAP4 PUSH4 0xA9059CBB SWAP4 AND SWAP2 PUSH4 0x181731DC SWAP2 PUSH1 0x4 DUP1 DUP4 ADD SWAP3 PUSH1 0x20 SWAP3 SWAP2 SWAP1 DUP3 SWAP1 SUB ADD DUP2 DUP7 DUP1 EXTCODESIZE ISZERO DUP1 ISZERO PUSH2 0x30EF JUMPI PUSH1 0x0 DUP1 REVERT JUMPDEST POP GAS STATICCALL ISZERO DUP1 ISZERO PUSH2 0x3103 JUMPI RETURNDATASIZE PUSH1 0x0 DUP1 RETURNDATACOPY RETURNDATASIZE PUSH1 0x0 REVERT JUMPDEST POP POP POP POP PUSH1 0x40 MLOAD RETURNDATASIZE PUSH1 0x1F NOT PUSH1 0x1F DUP3 ADD AND DUP3 ADD DUP1 PUSH1 0x40 MSTORE POP DUP2 ADD SWAP1 PUSH2 0x3127 SWAP2 SWAP1 PUSH2 0x500A JUMP JUMPDEST DUP4 PUSH1 0x40 MLOAD DUP4 PUSH4 0xFFFFFFFF AND PUSH1 0xE0 SHL DUP2 MSTORE PUSH1 0x4 ADD PUSH2 0x3145 SWAP3 SWAP2 SWAP1 PUSH2 0x567C JUMP JUMPDEST PUSH1 0x20 PUSH1 0x40 MLOAD DUP1 DUP4 SUB DUP2 PUSH1 0x0 DUP8 DUP1 EXTCODESIZE ISZERO DUP1 ISZERO PUSH2 0x315F JUMPI PUSH1 0x0 DUP1 REVERT JUMPDEST POP GAS CALL ISZERO DUP1 ISZERO PUSH2 0x3173 JUMPI RETURNDATASIZE PUSH1 0x0 DUP1 RETURNDATACOPY RETURNDATASIZE PUSH1 0x0 REVERT JUMPDEST POP POP POP POP PUSH1 0x40 MLOAD RETURNDATASIZE PUSH1 0x1F NOT PUSH1 0x1F DUP3 ADD AND DUP3 ADD DUP1 PUSH1 0x40 MSTORE POP DUP2 ADD SWAP1 PUSH2 0x3197 SWAP2 SWAP1 PUSH2 0x52C3 JUMP JUMPDEST POP JUMPDEST PUSH1 0x0 PUSH2 0x31A5 DUP3 DUP6 PUSH2 0x5AE5 JUMP JUMPDEST SWAP1 POP DUP1 ISZERO PUSH2 0x34B4 JUMPI PUSH1 0x18 SLOAD PUSH1 0x40 DUP1 MLOAD PUSH4 0x4905129F PUSH1 0xE1 SHL DUP2 MSTORE SWAP1 MLOAD PUSH1 0x0 SWAP3 PUSH1 0x1 PUSH1 0x1 PUSH1 0xA0 SHL SUB AND SWAP2 PUSH4 0x920A253E SWAP2 PUSH1 0x4 DUP1 DUP4 ADD SWAP3 PUSH1 0x20 SWAP3 SWAP2 SWAP1 DUP3 SWAP1 SUB ADD DUP2 DUP7 DUP1 EXTCODESIZE ISZERO DUP1 ISZERO PUSH2 0x31F2 JUMPI PUSH1 0x0 DUP1 REVERT JUMPDEST POP GAS STATICCALL ISZERO DUP1 ISZERO PUSH2 0x3206 JUMPI RETURNDATASIZE PUSH1 0x0 DUP1 RETURNDATACOPY RETURNDATASIZE PUSH1 0x0 REVERT JUMPDEST POP POP POP POP PUSH1 0x40 MLOAD RETURNDATASIZE PUSH1 0x1F NOT PUSH1 0x1F DUP3 ADD AND DUP3 ADD DUP1 PUSH1 0x40 MSTORE POP DUP2 ADD SWAP1 PUSH2 0x322A SWAP2 SWAP1 PUSH2 0x5353 JUMP JUMPDEST GT DUP1 ISZERO PUSH2 0x3250 JUMPI POP PUSH2 0x323A PUSH2 0x202D JUMP JUMPDEST PUSH1 0x1 PUSH1 0x1 PUSH1 0xA0 SHL SUB AND DUP4 PUSH1 0x1 PUSH1 0x1 PUSH1 0xA0 SHL SUB AND EQ ISZERO JUMPDEST DUP1 ISZERO PUSH2 0x3265 JUMPI POP PUSH1 0x1 PUSH1 0x1 PUSH1 0xA0 SHL SUB DUP4 AND CALLER EQ ISZERO JUMPDEST ISZERO PUSH2 0x33DF JUMPI PUSH1 0x0 PUSH1 0x64 PUSH1 0x18 PUSH1 0x0 SWAP1 SLOAD SWAP1 PUSH2 0x100 EXP SWAP1 DIV PUSH1 0x1 PUSH1 0x1 PUSH1 0xA0 SHL SUB AND PUSH1 0x1 PUSH1 0x1 PUSH1 0xA0 SHL SUB AND PUSH4 0x920A253E PUSH1 0x40 MLOAD DUP2 PUSH4 0xFFFFFFFF AND PUSH1 0xE0 SHL DUP2 MSTORE PUSH1 0x4 ADD PUSH1 0x20 PUSH1 0x40 MLOAD DUP1 DUP4 SUB DUP2 DUP7 DUP1 EXTCODESIZE ISZERO DUP1 ISZERO PUSH2 0x32BC JUMPI PUSH1 0x0 DUP1 REVERT JUMPDEST POP GAS STATICCALL ISZERO DUP1 ISZERO PUSH2 0x32D0 JUMPI RETURNDATASIZE PUSH1 0x0 DUP1 RETURNDATACOPY RETURNDATASIZE PUSH1 0x0 REVERT JUMPDEST POP POP POP POP PUSH1 0x40 MLOAD RETURNDATASIZE PUSH1 0x1F NOT PUSH1 0x1F DUP3 ADD AND DUP3 ADD DUP1 PUSH1 0x40 MSTORE POP DUP2 ADD SWAP1 PUSH2 0x32F4 SWAP2 SWAP1 PUSH2 0x5353 JUMP JUMPDEST PUSH2 0x32FE SWAP1 DUP5 PUSH2 0x5AC6 JUMP JUMPDEST PUSH2 0x3308 SWAP2 SWAP1 PUSH2 0x59C4 JUMP JUMPDEST SWAP1 POP PUSH2 0x3314 DUP2 DUP4 PUSH2 0x5AE5 JUMP JUMPDEST PUSH1 0x11 SLOAD PUSH1 0x40 MLOAD PUSH4 0xA9059CBB PUSH1 0xE0 SHL DUP2 MSTORE SWAP2 SWAP4 POP PUSH1 0x1 PUSH1 0x1 PUSH1 0xA0 SHL SUB AND SWAP1 PUSH4 0xA9059CBB SWAP1 PUSH2 0x3347 SWAP1 DUP8 SWAP1 DUP6 SWAP1 PUSH1 0x4 ADD PUSH2 0x567C JUMP JUMPDEST PUSH1 0x20 PUSH1 0x40 MLOAD DUP1 DUP4 SUB DUP2 PUSH1 0x0 DUP8 DUP1 EXTCODESIZE ISZERO DUP1 ISZERO PUSH2 0x3361 JUMPI PUSH1 0x0 DUP1 REVERT JUMPDEST POP GAS CALL ISZERO DUP1 ISZERO PUSH2 0x3375 JUMPI RETURNDATASIZE PUSH1 0x0 DUP1 RETURNDATACOPY RETURNDATASIZE PUSH1 0x0 REVERT JUMPDEST POP POP POP POP PUSH1 0x40 MLOAD RETURNDATASIZE PUSH1 0x1F NOT PUSH1 0x1F DUP3 ADD AND DUP3 ADD DUP1 PUSH1 0x40 MSTORE POP DUP2 ADD SWAP1 PUSH2 0x3399 SWAP2 SWAP1 PUSH2 0x52C3 JUMP JUMPDEST POP DUP4 PUSH1 0x1 PUSH1 0x1 PUSH1 0xA0 SHL SUB AND PUSH32 0x2FC41B7D7DF3272C17D9B581FCF235307BC027599C6ED68442C4100BD3A84198 DUP3 PUSH1 0x40 MLOAD PUSH2 0x33D5 SWAP2 DUP2 MSTORE PUSH1 0x20 ADD SWAP1 JUMP JUMPDEST PUSH1 0x40 MLOAD DUP1 SWAP2 SUB SWAP1 LOG2 POP JUMPDEST PUSH1 0x11 SLOAD PUSH1 0x1 PUSH1 0x1 PUSH1 0xA0 SHL SUB AND PUSH4 0xA9059CBB PUSH2 0x33F8 PUSH2 0x202D JUMP JUMPDEST DUP4 PUSH1 0x40 MLOAD DUP4 PUSH4 0xFFFFFFFF AND PUSH1 0xE0 SHL DUP2 MSTORE PUSH1 0x4 ADD PUSH2 0x3416 SWAP3 SWAP2 SWAP1 PUSH2 0x567C JUMP JUMPDEST PUSH1 0x20 PUSH1 0x40 MLOAD DUP1 DUP4 SUB DUP2 PUSH1 0x0 DUP8 DUP1 EXTCODESIZE ISZERO DUP1 ISZERO PUSH2 0x3430 JUMPI PUSH1 0x0 DUP1 REVERT JUMPDEST POP GAS CALL ISZERO DUP1 ISZERO PUSH2 0x3444 JUMPI RETURNDATASIZE PUSH1 0x0 DUP1 RETURNDATACOPY RETURNDATASIZE PUSH1 0x0 REVERT JUMPDEST POP POP POP POP PUSH1 0x40 MLOAD RETURNDATASIZE PUSH1 0x1F NOT PUSH1 0x1F DUP3 ADD AND DUP3 ADD DUP1 PUSH1 0x40 MSTORE POP DUP2 ADD SWAP1 PUSH2 0x3468 SWAP2 SWAP1 PUSH2 0x52C3 JUMP JUMPDEST POP PUSH2 0x3471 PUSH2 0x202D JUMP JUMPDEST PUSH1 0x1 PUSH1 0x1 PUSH1 0xA0 SHL SUB AND PUSH32 0xF0F0487D8990103573E0E5CF4E87E101E2A1BA84C733C556B7A5807E570E5D4C DUP3 PUSH1 0x40 MLOAD PUSH2 0x34AB SWAP2 DUP2 MSTORE PUSH1 0x20 ADD SWAP1 JUMP JUMPDEST PUSH1 0x40 MLOAD DUP1 SWAP2 SUB SWAP1 LOG2 JUMPDEST POP SWAP3 SWAP2 POP POP JUMP JUMPDEST PUSH1 0x17 SLOAD PUSH1 0x40 MLOAD PUSH4 0xEDD0D421 PUSH1 0xE0 SHL DUP2 MSTORE PUSH1 0x1 PUSH1 0x1 PUSH1 0xA0 SHL SUB SWAP1 SWAP2 AND SWAP1 PUSH4 0xEDD0D421 SWAP1 PUSH2 0x34EF SWAP1 DUP7 SWAP1 DUP7 SWAP1 DUP7 SWAP1 PUSH1 0x4 ADD PUSH2 0x594C JUMP JUMPDEST PUSH1 0x0 PUSH1 0x40 MLOAD DUP1 DUP4 SUB DUP2 PUSH1 0x0 DUP8 DUP1 EXTCODESIZE ISZERO DUP1 ISZERO PUSH2 0x3509 JUMPI PUSH1 0x0 DUP1 REVERT JUMPDEST POP GAS CALL ISZERO DUP1 ISZERO PUSH2 0x351D JUMPI RETURNDATASIZE PUSH1 0x0 DUP1 RETURNDATACOPY RETURNDATASIZE PUSH1 0x0 REVERT JUMPDEST POP POP POP POP POP POP POP JUMP JUMPDEST PUSH1 0x0 PUSH2 0x3531 DUP3 PUSH2 0x2D32 JUMP JUMPDEST PUSH2 0x3592 JUMPI PUSH1 0x40 MLOAD PUSH3 0x461BCD PUSH1 0xE5 SHL DUP2 MSTORE PUSH1 0x20 PUSH1 0x4 DUP3 ADD MSTORE PUSH1 0x2C PUSH1 0x24 DUP3 ADD MSTORE PUSH32 0x4552433732313A206F70657261746F7220717565727920666F72206E6F6E6578 PUSH1 0x44 DUP3 ADD MSTORE PUSH12 0x34B9BA32B73A103A37B5B2B7 PUSH1 0xA1 SHL PUSH1 0x64 DUP3 ADD MSTORE PUSH1 0x84 ADD PUSH2 0x948 JUMP JUMPDEST PUSH1 0x0 PUSH2 0x359D DUP4 PUSH2 0x1A78 JUMP JUMPDEST SWAP1 POP DUP1 PUSH1 0x1 PUSH1 0x1 PUSH1 0xA0 SHL SUB AND DUP5 PUSH1 0x1 PUSH1 0x1 PUSH1 0xA0 SHL SUB AND EQ DUP1 PUSH2 0x35D8 JUMPI POP DUP4 PUSH1 0x1 PUSH1 0x1 PUSH1 0xA0 SHL SUB AND PUSH2 0x35CD DUP5 PUSH2 0x8E0 JUMP JUMPDEST PUSH1 0x1 PUSH1 0x1 PUSH1 0xA0 SHL SUB AND EQ JUMPDEST DUP1 PUSH2 0x35E8 JUMPI POP PUSH2 0x35E8 DUP2 DUP6 PUSH2 0x2B6B JUMP JUMPDEST SWAP5 SWAP4 POP POP POP POP JUMP JUMPDEST DUP3 PUSH1 0x1 PUSH1 0x1 PUSH1 0xA0 SHL SUB AND PUSH2 0x3603 DUP3 PUSH2 0x1A78 JUMP JUMPDEST PUSH1 0x1 PUSH1 0x1 PUSH1 0xA0 SHL SUB AND EQ PUSH2 0x366B JUMPI PUSH1 0x40 MLOAD PUSH3 0x461BCD PUSH1 0xE5 SHL DUP2 MSTORE PUSH1 0x20 PUSH1 0x4 DUP3 ADD MSTORE PUSH1 0x29 PUSH1 0x24 DUP3 ADD MSTORE PUSH32 0x4552433732313A207472616E73666572206F6620746F6B656E20746861742069 PUSH1 0x44 DUP3 ADD MSTORE PUSH9 0x39903737BA1037BBB7 PUSH1 0xB9 SHL PUSH1 0x64 DUP3 ADD MSTORE PUSH1 0x84 ADD PUSH2 0x948 JUMP JUMPDEST PUSH1 0x1 PUSH1 0x1 PUSH1 0xA0 SHL SUB DUP3 AND PUSH2 0x36CD JUMPI PUSH1 0x40 MLOAD PUSH3 0x461BCD PUSH1 0xE5 SHL DUP2 MSTORE PUSH1 0x20 PUSH1 0x4 DUP3 ADD MSTORE PUSH1 0x24 DUP1 DUP3 ADD MSTORE PUSH32 0x4552433732313A207472616E7366657220746F20746865207A65726F20616464 PUSH1 0x44 DUP3 ADD MSTORE PUSH4 0x72657373 PUSH1 0xE0 SHL PUSH1 0x64 DUP3 ADD MSTORE PUSH1 0x84 ADD PUSH2 0x948 JUMP JUMPDEST PUSH2 0x36D8 DUP4 DUP4 DUP4 PUSH2 0x4453 JUMP JUMPDEST PUSH2 0x36E3 PUSH1 0x0 DUP3 PUSH2 0x2D4F JUMP JUMPDEST PUSH1 0x1 PUSH1 0x1 PUSH1 0xA0 SHL SUB DUP4 AND PUSH1 0x0 SWAP1 DUP2 MSTORE PUSH1 0x3 PUSH1 0x20 MSTORE PUSH1 0x40 DUP2 KECCAK256 DUP1 SLOAD PUSH1 0x1 SWAP3 SWAP1 PUSH2 0x370C SWAP1 DUP5 SWAP1 PUSH2 0x5AE5 JUMP JUMPDEST SWAP1 SWAP2 SSTORE POP POP PUSH1 0x1 PUSH1 0x1 PUSH1 0xA0 SHL SUB DUP3 AND PUSH1 0x0 SWAP1 DUP2 MSTORE PUSH1 0x3 PUSH1 0x20 MSTORE PUSH1 0x40 DUP2 KECCAK256 DUP1 SLOAD PUSH1 0x1 SWAP3 SWAP1 PUSH2 0x373A SWAP1 DUP5 SWAP1 PUSH2 0x59AC JUMP JUMPDEST SWAP1 SWAP2 SSTORE POP POP PUSH1 0x0 DUP2 DUP2 MSTORE PUSH1 0x2 PUSH1 0x20 MSTORE PUSH1 0x40 DUP1 DUP3 KECCAK256 DUP1 SLOAD PUSH1 0x1 PUSH1 0x1 PUSH1 0xA0 SHL SUB NOT AND PUSH1 0x1 PUSH1 0x1 PUSH1 0xA0 SHL SUB DUP7 DUP2 AND SWAP2 DUP3 OR SWAP1 SWAP3 SSTORE SWAP2 MLOAD DUP5 SWAP4 SWAP2 DUP8 AND SWAP2 PUSH1 0x0 DUP1 MLOAD PUSH1 0x20 PUSH2 0x5C57 DUP4 CODECOPY DUP2 MLOAD SWAP2 MSTORE SWAP2 LOG4 POP POP POP JUMP JUMPDEST PUSH2 0x3793 DUP3 DUP3 PUSH2 0x22C4 JUMP JUMPDEST PUSH2 0x155C JUMPI PUSH2 0x37AB DUP2 PUSH1 0x1 PUSH1 0x1 PUSH1 0xA0 SHL SUB AND PUSH1 0x14 PUSH2 0x446B JUMP JUMPDEST PUSH2 0x37B6 DUP4 PUSH1 0x20 PUSH2 0x446B JUMP JUMPDEST PUSH1 0x40 MLOAD PUSH1 0x20 ADD PUSH2 0x37C7 SWAP3 SWAP2 SWAP1 PUSH2 0x5598 JUMP JUMPDEST PUSH1 0x40 DUP1 MLOAD PUSH1 0x1F NOT DUP2 DUP5 SUB ADD DUP2 MSTORE SWAP1 DUP3 SWAP1 MSTORE PUSH3 0x461BCD PUSH1 0xE5 SHL DUP3 MSTORE PUSH2 0x948 SWAP2 PUSH1 0x4 ADD PUSH2 0x5743 JUMP JUMPDEST PUSH2 0x37F7 DUP3 DUP3 PUSH2 0x22C4 JUMP JUMPDEST PUSH2 0x155C JUMPI PUSH1 0x0 DUP3 DUP2 MSTORE PUSH1 0x8 PUSH1 0x20 SWAP1 DUP2 MSTORE PUSH1 0x40 DUP1 DUP4 KECCAK256 PUSH1 0x1 PUSH1 0x1 PUSH1 0xA0 SHL SUB DUP6 AND DUP5 MSTORE SWAP1 SWAP2 MSTORE SWAP1 KECCAK256 DUP1 SLOAD PUSH1 0xFF NOT AND PUSH1 0x1 OR SWAP1 SSTORE PUSH2 0x382F CALLER SWAP1 JUMP JUMPDEST PUSH1 0x1 PUSH1 0x1 PUSH1 0xA0 SHL SUB AND DUP2 PUSH1 0x1 PUSH1 0x1 PUSH1 0xA0 SHL SUB AND DUP4 PUSH32 0x2F8788117E7EFF1D82E926EC794901D17C78024A50270940304540A733656F0D PUSH1 0x40 MLOAD PUSH1 0x40 MLOAD DUP1 SWAP2 SUB SWAP1 LOG4 POP POP JUMP JUMPDEST PUSH2 0x387D DUP3 DUP3 PUSH2 0x22C4 JUMP JUMPDEST ISZERO PUSH2 0x155C JUMPI PUSH1 0x0 DUP3 DUP2 MSTORE PUSH1 0x8 PUSH1 0x20 SWAP1 DUP2 MSTORE PUSH1 0x40 DUP1 DUP4 KECCAK256 PUSH1 0x1 PUSH1 0x1 PUSH1 0xA0 SHL SUB DUP6 AND DUP1 DUP6 MSTORE SWAP3 MSTORE DUP1 DUP4 KECCAK256 DUP1 SLOAD PUSH1 0xFF NOT AND SWAP1 SSTORE MLOAD CALLER SWAP3 DUP6 SWAP2 PUSH32 0xF6391F5C32D9C69D2A47EA670B442974B53935D1EDC7FD64EB21E047A839171B SWAP2 SWAP1 LOG4 POP POP JUMP JUMPDEST PUSH1 0x0 DUP3 DUP2 MSTORE PUSH1 0xB PUSH1 0x20 SWAP1 DUP2 MSTORE PUSH1 0x40 DUP1 DUP4 KECCAK256 PUSH1 0x1 PUSH1 0x1 PUSH1 0xA0 SHL SUB DUP8 AND DUP5 MSTORE PUSH1 0x1 ADD SWAP1 SWAP2 MSTORE SWAP1 KECCAK256 SLOAD PUSH2 0x393C JUMPI PUSH1 0x0 DUP3 DUP2 MSTORE PUSH1 0xB PUSH1 0x20 SWAP1 DUP2 MSTORE PUSH1 0x40 DUP3 KECCAK256 DUP1 SLOAD PUSH1 0x1 DUP2 ADD DUP3 SSTORE SWAP1 DUP4 MSTORE SWAP2 KECCAK256 ADD DUP1 SLOAD PUSH1 0x1 PUSH1 0x1 PUSH1 0xA0 SHL SUB NOT AND PUSH1 0x1 PUSH1 0x1 PUSH1 0xA0 SHL SUB DUP6 AND OR SWAP1 SSTORE JUMPDEST PUSH1 0x0 DUP3 DUP2 MSTORE PUSH1 0xB PUSH1 0x20 SWAP1 DUP2 MSTORE PUSH1 0x40 DUP1 DUP4 KECCAK256 PUSH1 0x1 PUSH1 0x1 PUSH1 0xA0 SHL SUB DUP8 AND DUP1 DUP6 MSTORE PUSH1 0x1 SWAP1 SWAP2 ADD DUP4 MSTORE SWAP3 DUP2 SWAP1 KECCAK256 DUP5 SWAP1 SSTORE MLOAD DUP4 DUP2 MSTORE DUP5 SWAP3 SWAP2 PUSH32 0x8A156BD946DC74EC284C5F4B365CE75EF2A5B9D9462B4CDB1D2400CABF136541 SWAP2 ADD PUSH1 0x40 MLOAD DUP1 SWAP2 SUB SWAP1 LOG3 POP POP POP JUMP JUMPDEST PUSH1 0x0 DUP2 DUP2 MSTORE PUSH1 0xA PUSH1 0x20 MSTORE PUSH1 0x40 DUP2 KECCAK256 SSTORE PUSH2 0x155E DUP2 PUSH2 0x464C JUMP JUMPDEST PUSH1 0x0 DUP1 PUSH1 0x0 PUSH2 0x39C4 PUSH2 0x4E1F JUMP JUMPDEST PUSH2 0x39CD DUP7 PUSH2 0x3AE4 JUMP JUMPDEST SWAP1 POP PUSH1 0x0 PUSH2 0x39DA DUP8 PUSH2 0x2982 JUMP JUMPDEST SWAP1 POP DUP1 DUP7 DUP4 PUSH1 0x40 ADD MLOAD PUSH2 0x39ED SWAP2 SWAP1 PUSH2 0x5AC6 JUMP JUMPDEST PUSH2 0x39F7 SWAP2 SWAP1 PUSH2 0x59C4 JUMP JUMPDEST SWAP5 POP DUP1 DUP7 DUP4 PUSH1 0x80 ADD MLOAD PUSH2 0x3A0A SWAP2 SWAP1 PUSH2 0x5AC6 JUMP JUMPDEST PUSH2 0x3A14 SWAP2 SWAP1 PUSH2 0x59C4 JUMP JUMPDEST SWAP4 POP DUP1 DUP7 DUP4 PUSH1 0x60 ADD MLOAD PUSH2 0x3A27 SWAP2 SWAP1 PUSH2 0x5AC6 JUMP JUMPDEST PUSH2 0x3A31 SWAP2 SWAP1 PUSH2 0x59C4 JUMP JUMPDEST SWAP3 POP PUSH2 0x3A68 DUP8 DUP4 DUP6 DUP6 PUSH1 0x60 ADD MLOAD PUSH2 0x3A48 SWAP2 SWAP1 PUSH2 0x5AE5 JUMP JUMPDEST DUP9 DUP7 PUSH1 0x40 ADD MLOAD PUSH2 0x3A58 SWAP2 SWAP1 PUSH2 0x5AE5 JUMP JUMPDEST DUP9 DUP8 PUSH1 0x80 ADD MLOAD PUSH2 0x1753 SWAP2 SWAP1 PUSH2 0x5AE5 JUMP JUMPDEST PUSH1 0x17 SLOAD PUSH1 0x60 DUP3 ADD MLOAD PUSH1 0x80 DUP4 ADD MLOAD PUSH1 0x40 MLOAD PUSH4 0x57A5C967 PUSH1 0xE0 SHL DUP2 MSTORE SWAP4 SWAP6 POP PUSH1 0x1 PUSH1 0x1 PUSH1 0xA0 SHL SUB SWAP1 SWAP3 AND SWAP3 PUSH4 0x57A5C967 SWAP3 PUSH2 0x3AA8 SWAP3 DUP13 SWAP3 SWAP1 SWAP2 SWAP1 PUSH1 0x4 ADD PUSH2 0x594C JUMP JUMPDEST PUSH1 0x0 PUSH1 0x40 MLOAD DUP1 DUP4 SUB DUP2 PUSH1 0x0 DUP8 DUP1 EXTCODESIZE ISZERO DUP1 ISZERO PUSH2 0x3AC2 JUMPI PUSH1 0x0 DUP1 REVERT JUMPDEST POP GAS CALL ISZERO DUP1 ISZERO PUSH2 0x3AD6 JUMPI RETURNDATASIZE PUSH1 0x0 DUP1 RETURNDATACOPY RETURNDATASIZE PUSH1 0x0 REVERT JUMPDEST POP POP POP POP POP SWAP3 SWAP6 SWAP2 SWAP5 POP SWAP3 POP JUMP JUMPDEST PUSH2 0x3AEC PUSH2 0x4E1F JUMP JUMPDEST PUSH1 0x0 DUP3 DUP2 MSTORE PUSH1 0x15 PUSH1 0x20 MSTORE PUSH1 0x40 SWAP1 DUP2 SWAP1 KECCAK256 DUP2 MLOAD PUSH1 0xE0 DUP2 ADD SWAP1 SWAP3 MSTORE DUP1 SLOAD DUP3 SWAP1 PUSH1 0xFF AND PUSH1 0x3 DUP2 GT ISZERO PUSH2 0x3B2B JUMPI PUSH4 0x4E487B71 PUSH1 0xE0 SHL PUSH1 0x0 MSTORE PUSH1 0x21 PUSH1 0x4 MSTORE PUSH1 0x24 PUSH1 0x0 REVERT JUMPDEST PUSH1 0x3 DUP2 GT ISZERO PUSH2 0x3B4A JUMPI PUSH4 0x4E487B71 PUSH1 0xE0 SHL PUSH1 0x0 MSTORE PUSH1 0x21 PUSH1 0x4 MSTORE PUSH1 0x24 PUSH1 0x0 REVERT JUMPDEST DUP2 MSTORE PUSH1 0x1 DUP3 ADD SLOAD PUSH1 0x20 DUP3 ADD MSTORE PUSH1 0x2 DUP1 DUP4 ADD SLOAD PUSH1 0x40 DUP4 ADD MSTORE PUSH1 0x3 DUP4 ADD SLOAD PUSH1 0x60 DUP4 ADD MSTORE PUSH1 0x4 DUP4 ADD SLOAD PUSH1 0x80 DUP4 ADD MSTORE PUSH1 0x5 DUP4 ADD SLOAD PUSH1 0xA0 DUP4 ADD MSTORE PUSH1 0x6 DUP4 ADD SLOAD PUSH1 0xC0 SWAP1 SWAP3 ADD SWAP2 PUSH1 0xFF AND SWAP1 DUP2 GT ISZERO PUSH2 0x3BAB JUMPI PUSH4 0x4E487B71 PUSH1 0xE0 SHL PUSH1 0x0 MSTORE PUSH1 0x21 PUSH1 0x4 MSTORE PUSH1 0x24 PUSH1 0x0 REVERT JUMPDEST PUSH1 0x2 DUP2 GT ISZERO PUSH2 0x3BCA JUMPI PUSH4 0x4E487B71 PUSH1 0xE0 SHL PUSH1 0x0 MSTORE PUSH1 0x21 PUSH1 0x4 MSTORE PUSH1 0x24 PUSH1 0x0 REVERT JUMPDEST SWAP1 MSTORE POP SWAP3 SWAP2 POP POP JUMP JUMPDEST PUSH2 0x3BDB PUSH2 0x4E1F JUMP JUMPDEST POP PUSH1 0x60 DUP5 ADD DUP4 SWAP1 MSTORE PUSH1 0x40 DUP5 ADD DUP3 SWAP1 MSTORE PUSH1 0x80 DUP5 ADD DUP2 SWAP1 MSTORE DUP4 PUSH2 0x3BFC DUP7 DUP3 PUSH2 0x2DD7 JUMP JUMPDEST SWAP6 SWAP5 POP POP POP POP POP JUMP JUMPDEST PUSH2 0x3C0E DUP4 PUSH2 0x1A78 JUMP JUMPDEST PUSH1 0x1 PUSH1 0x1 PUSH1 0xA0 SHL SUB AND DUP6 PUSH1 0x1 PUSH1 0x1 PUSH1 0xA0 SHL SUB AND EQ PUSH2 0x3C53 JUMPI PUSH1 0x40 MLOAD PUSH3 0x461BCD PUSH1 0xE5 SHL DUP2 MSTORE PUSH1 0x20 PUSH1 0x4 DUP3 ADD MSTORE PUSH1 0x2 PUSH1 0x24 DUP3 ADD MSTORE PUSH2 0x4E39 PUSH1 0xF0 SHL PUSH1 0x44 DUP3 ADD MSTORE PUSH1 0x64 ADD PUSH2 0x948 JUMP JUMPDEST PUSH1 0x1 PUSH1 0x1 PUSH1 0xA0 SHL SUB DUP5 AND PUSH2 0x3C8F JUMPI PUSH1 0x40 MLOAD PUSH3 0x461BCD PUSH1 0xE5 SHL DUP2 MSTORE PUSH1 0x20 PUSH1 0x4 DUP3 ADD MSTORE PUSH1 0x3 PUSH1 0x24 DUP3 ADD MSTORE PUSH3 0x4E313 PUSH1 0xEC SHL PUSH1 0x44 DUP3 ADD MSTORE PUSH1 0x64 ADD PUSH2 0x948 JUMP JUMPDEST CALLER PUSH1 0x1 PUSH1 0x1 PUSH1 0xA0 SHL SUB DUP7 AND EQ DUP1 ISZERO SWAP1 PUSH2 0x3CAF JUMPI POP PUSH2 0x3CAD DUP6 CALLER PUSH2 0x2B6B JUMP JUMPDEST ISZERO JUMPDEST ISZERO PUSH2 0x3CFA JUMPI PUSH1 0x0 DUP4 DUP2 MSTORE PUSH1 0xB PUSH1 0x20 SWAP1 DUP2 MSTORE PUSH1 0x40 DUP1 DUP4 KECCAK256 CALLER DUP5 MSTORE PUSH1 0x1 ADD SWAP1 SWAP2 MSTORE SWAP1 KECCAK256 SLOAD PUSH2 0x3CDC SWAP1 DUP3 SWAP1 PUSH2 0x5AE5 JUMP JUMPDEST PUSH1 0x0 DUP5 DUP2 MSTORE PUSH1 0xB PUSH1 0x20 SWAP1 DUP2 MSTORE PUSH1 0x40 DUP1 DUP4 KECCAK256 CALLER DUP5 MSTORE PUSH1 0x1 ADD SWAP1 SWAP2 MSTORE SWAP1 KECCAK256 SSTORE JUMPDEST PUSH1 0x0 DUP4 DUP2 MSTORE PUSH1 0xF PUSH1 0x20 MSTORE PUSH1 0x40 SWAP1 KECCAK256 SLOAD PUSH2 0x3D14 SWAP1 DUP3 SWAP1 PUSH2 0x5AE5 JUMP JUMPDEST PUSH1 0x0 DUP5 DUP2 MSTORE PUSH1 0xF PUSH1 0x20 MSTORE PUSH1 0x40 SWAP1 KECCAK256 SSTORE PUSH2 0x3D2C DUP3 PUSH2 0x2D32 JUMP JUMPDEST PUSH2 0x3D49 JUMPI PUSH2 0x3D44 DUP5 DUP4 PUSH2 0x3D3E DUP7 PUSH2 0x1576 JUMP JUMPDEST DUP5 PUSH2 0x433E JUMP JUMPDEST PUSH2 0x3DF1 JUMP JUMPDEST DUP4 PUSH1 0x1 PUSH1 0x1 PUSH1 0xA0 SHL SUB AND PUSH2 0x3D5C DUP4 PUSH2 0x1A78 JUMP JUMPDEST PUSH1 0x1 PUSH1 0x1 PUSH1 0xA0 SHL SUB AND EQ PUSH2 0x3D98 JUMPI PUSH1 0x40 MLOAD PUSH3 0x461BCD PUSH1 0xE5 SHL DUP2 MSTORE PUSH1 0x20 PUSH1 0x4 DUP3 ADD MSTORE PUSH1 0x3 PUSH1 0x24 DUP3 ADD MSTORE PUSH3 0x4E3131 PUSH1 0xE8 SHL PUSH1 0x44 DUP3 ADD MSTORE PUSH1 0x64 ADD PUSH2 0x948 JUMP JUMPDEST PUSH2 0x3DA1 DUP3 PUSH2 0x1576 JUMP JUMPDEST PUSH2 0x3DAA DUP5 PUSH2 0x1576 JUMP JUMPDEST EQ PUSH2 0x3DC7 JUMPI PUSH1 0x40 MLOAD PUSH3 0x461BCD PUSH1 0xE5 SHL DUP2 MSTORE PUSH1 0x4 ADD PUSH2 0x948 SWAP1 PUSH2 0x57FD JUMP JUMPDEST PUSH1 0x0 DUP3 DUP2 MSTORE PUSH1 0xF PUSH1 0x20 MSTORE PUSH1 0x40 SWAP1 KECCAK256 SLOAD PUSH2 0x3DE1 SWAP1 DUP3 SWAP1 PUSH2 0x59AC JUMP JUMPDEST PUSH1 0x0 DUP4 DUP2 MSTORE PUSH1 0xF PUSH1 0x20 MSTORE PUSH1 0x40 SWAP1 KECCAK256 SSTORE JUMPDEST PUSH1 0x0 DUP4 DUP2 MSTORE PUSH1 0xA PUSH1 0x20 MSTORE PUSH1 0x40 DUP1 DUP3 KECCAK256 SLOAD DUP5 DUP4 MSTORE SWAP2 DUP2 SWAP1 KECCAK256 SWAP2 SWAP1 SWAP2 SSTORE MLOAD DUP4 SWAP1 PUSH1 0x1 PUSH1 0x1 PUSH1 0xA0 SHL SUB DUP1 DUP8 AND SWAP2 SWAP1 DUP9 AND SWAP1 PUSH1 0x0 DUP1 MLOAD PUSH1 0x20 PUSH2 0x5C77 DUP4 CODECOPY DUP2 MLOAD SWAP2 MSTORE SWAP1 PUSH2 0x3E3C SWAP1 DUP8 SWAP1 DUP8 SWAP1 PUSH2 0x5735 JUMP JUMPDEST PUSH1 0x40 MLOAD DUP1 SWAP2 SUB SWAP1 LOG4 POP POP POP POP POP JUMP JUMPDEST PUSH2 0x3E55 CALLER DUP5 PUSH2 0x3526 JUMP JUMPDEST PUSH2 0x3E86 JUMPI PUSH1 0x40 MLOAD PUSH3 0x461BCD PUSH1 0xE5 SHL DUP2 MSTORE PUSH1 0x20 PUSH1 0x4 DUP3 ADD MSTORE PUSH1 0x2 PUSH1 0x24 DUP3 ADD MSTORE PUSH2 0x2719 PUSH1 0xF1 SHL PUSH1 0x44 DUP3 ADD MSTORE PUSH1 0x64 ADD PUSH2 0x948 JUMP JUMPDEST PUSH2 0x3E8F DUP3 PUSH2 0x2D32 JUMP JUMPDEST ISZERO PUSH2 0x3EC1 JUMPI PUSH1 0x40 MLOAD PUSH3 0x461BCD PUSH1 0xE5 SHL DUP2 MSTORE PUSH1 0x20 PUSH1 0x4 DUP3 ADD MSTORE PUSH1 0x2 PUSH1 0x24 DUP3 ADD MSTORE PUSH2 0x4E33 PUSH1 0xF0 SHL PUSH1 0x44 DUP3 ADD MSTORE PUSH1 0x64 ADD PUSH2 0x948 JUMP JUMPDEST PUSH2 0x3EE0 DUP3 PUSH2 0x3ECE DUP6 PUSH2 0x1576 JUMP JUMPDEST PUSH1 0x0 SWAP2 DUP3 MSTORE PUSH1 0xA PUSH1 0x20 MSTORE PUSH1 0x40 SWAP1 SWAP2 KECCAK256 SSTORE JUMP JUMPDEST PUSH1 0x0 DUP4 DUP2 MSTORE PUSH1 0xF PUSH1 0x20 MSTORE PUSH1 0x40 SWAP1 KECCAK256 SLOAD PUSH2 0x3EFA SWAP1 DUP3 SWAP1 PUSH2 0x5AE5 JUMP JUMPDEST PUSH1 0x0 DUP5 DUP2 MSTORE PUSH1 0xF PUSH1 0x20 MSTORE PUSH1 0x40 DUP2 KECCAK256 SWAP2 SWAP1 SWAP2 SSTORE PUSH2 0x3F15 DUP5 PUSH2 0x1A78 JUMP JUMPDEST SWAP1 POP PUSH2 0x3F2B DUP2 DUP5 PUSH2 0x3F25 DUP8 PUSH2 0x1576 JUMP JUMPDEST DUP6 PUSH2 0x433E JUMP JUMPDEST DUP4 DUP2 PUSH1 0x1 PUSH1 0x1 PUSH1 0xA0 SHL SUB AND PUSH32 0xF66885C33D648FCD0D97E0F2A18E30102169C22763473AF0FB716F11B4A17DD6 DUP6 DUP6 PUSH1 0x40 MLOAD PUSH2 0x3F67 SWAP3 SWAP2 SWAP1 PUSH2 0x5735 JUMP JUMPDEST PUSH1 0x40 MLOAD DUP1 SWAP2 SUB SWAP1 LOG3 POP POP POP POP JUMP JUMPDEST PUSH1 0x6 DUP1 SLOAD PUSH1 0x1 PUSH1 0x1 PUSH1 0xA0 SHL SUB DUP4 DUP2 AND PUSH1 0x1 PUSH1 0x1 PUSH1 0xA0 SHL SUB NOT DUP4 AND DUP2 OR SWAP1 SWAP4 SSTORE PUSH1 0x40 MLOAD SWAP2 AND SWAP2 SWAP1 DUP3 SWAP1 PUSH32 0x8BE0079C531659141344CD1FD0A4F28419497F9722A3DAAFE3B4186F6B6457E0 SWAP1 PUSH1 0x0 SWAP1 LOG3 POP POP JUMP JUMPDEST PUSH1 0x0 PUSH2 0x803 DUP3 SLOAD SWAP1 JUMP JUMPDEST PUSH2 0x3FDC DUP5 DUP5 DUP5 PUSH2 0x35F0 JUMP JUMPDEST PUSH2 0x3FE8 DUP5 DUP5 DUP5 DUP5 PUSH2 0x46DE JUMP JUMPDEST PUSH2 0x1A72 JUMPI PUSH1 0x40 MLOAD PUSH3 0x461BCD PUSH1 0xE5 SHL DUP2 MSTORE PUSH1 0x4 ADD PUSH2 0x948 SWAP1 PUSH2 0x5772 JUMP JUMPDEST PUSH2 0x400D CALLER PUSH2 0x2745 JUMP JUMPDEST PUSH2 0x403E JUMPI PUSH1 0x40 MLOAD PUSH3 0x461BCD PUSH1 0xE5 SHL DUP2 MSTORE PUSH1 0x20 PUSH1 0x4 DUP3 ADD MSTORE PUSH1 0x2 PUSH1 0x24 DUP3 ADD MSTORE PUSH2 0x4E35 PUSH1 0xF0 SHL PUSH1 0x44 DUP3 ADD MSTORE PUSH1 0x64 ADD PUSH2 0x948 JUMP JUMPDEST DUP1 DUP3 EQ ISZERO PUSH2 0x4073 JUMPI PUSH1 0x40 MLOAD PUSH3 0x461BCD PUSH1 0xE5 SHL DUP2 MSTORE PUSH1 0x20 PUSH1 0x4 DUP3 ADD MSTORE PUSH1 0x2 PUSH1 0x24 DUP3 ADD MSTORE PUSH2 0x271B PUSH1 0xF1 SHL PUSH1 0x44 DUP3 ADD MSTORE PUSH1 0x64 ADD PUSH2 0x948 JUMP JUMPDEST PUSH2 0x407C DUP2 PUSH2 0x1576 JUMP JUMPDEST PUSH2 0x4085 DUP4 PUSH2 0x1576 JUMP JUMPDEST EQ PUSH2 0x40A2 JUMPI PUSH1 0x40 MLOAD PUSH3 0x461BCD PUSH1 0xE5 SHL DUP2 MSTORE PUSH1 0x4 ADD PUSH2 0x948 SWAP1 PUSH2 0x57FD JUMP JUMPDEST PUSH1 0x0 PUSH2 0x40AD DUP4 PUSH2 0x1A78 JUMP JUMPDEST SWAP1 POP PUSH2 0x40B8 DUP3 PUSH2 0x1A78 JUMP JUMPDEST PUSH1 0x1 PUSH1 0x1 PUSH1 0xA0 SHL SUB AND DUP2 PUSH1 0x1 PUSH1 0x1 PUSH1 0xA0 SHL SUB AND EQ PUSH2 0x40FD JUMPI PUSH1 0x40 MLOAD PUSH3 0x461BCD PUSH1 0xE5 SHL DUP2 MSTORE PUSH1 0x20 PUSH1 0x4 DUP3 ADD MSTORE PUSH1 0x2 PUSH1 0x24 DUP3 ADD MSTORE PUSH2 0x9C7 PUSH1 0xF3 SHL PUSH1 0x44 DUP3 ADD MSTORE PUSH1 0x64 ADD PUSH2 0x948 JUMP JUMPDEST PUSH1 0x0 DUP4 DUP2 MSTORE PUSH1 0xF PUSH1 0x20 MSTORE PUSH1 0x40 DUP1 DUP3 KECCAK256 SLOAD DUP5 DUP4 MSTORE SWAP2 KECCAK256 SLOAD PUSH2 0x411D SWAP1 DUP3 PUSH2 0x59AC JUMP JUMPDEST PUSH1 0x0 DUP5 DUP2 MSTORE PUSH1 0xF PUSH1 0x20 MSTORE PUSH1 0x40 SWAP1 KECCAK256 SSTORE PUSH2 0x4135 DUP5 PUSH2 0x399F JUMP JUMPDEST DUP3 DUP5 DUP4 PUSH1 0x1 PUSH1 0x1 PUSH1 0xA0 SHL SUB AND PUSH32 0xB3CE851D16B3BBEC3774D5631A3893DFA2A80E067CFAD265DD594402AC3D6096 DUP5 PUSH1 0x40 MLOAD PUSH2 0x4172 SWAP2 DUP2 MSTORE PUSH1 0x20 ADD SWAP1 JUMP JUMPDEST PUSH1 0x40 MLOAD DUP1 SWAP2 SUB SWAP1 LOG4 POP POP POP POP JUMP JUMPDEST PUSH1 0x60 PUSH2 0x418B DUP3 PUSH2 0x2D32 JUMP JUMPDEST PUSH2 0x41F1 JUMPI PUSH1 0x40 MLOAD PUSH3 0x461BCD PUSH1 0xE5 SHL DUP2 MSTORE PUSH1 0x20 PUSH1 0x4 DUP3 ADD MSTORE PUSH1 0x31 PUSH1 0x24 DUP3 ADD MSTORE PUSH32 0x45524337323155524953746F726167653A2055524920717565727920666F7220 PUSH1 0x44 DUP3 ADD MSTORE PUSH17 0x3737B732BC34B9BA32B73A103A37B5B2B7 PUSH1 0x79 SHL PUSH1 0x64 DUP3 ADD MSTORE PUSH1 0x84 ADD PUSH2 0x948 JUMP JUMPDEST PUSH1 0x0 DUP3 DUP2 MSTORE PUSH1 0x9 PUSH1 0x20 MSTORE PUSH1 0x40 DUP2 KECCAK256 DUP1 SLOAD PUSH2 0x420A SWAP1 PUSH2 0x5B3F JUMP JUMPDEST DUP1 PUSH1 0x1F ADD PUSH1 0x20 DUP1 SWAP2 DIV MUL PUSH1 0x20 ADD PUSH1 0x40 MLOAD SWAP1 DUP2 ADD PUSH1 0x40 MSTORE DUP1 SWAP3 SWAP2 SWAP1 DUP2 DUP2 MSTORE PUSH1 0x20 ADD DUP3 DUP1 SLOAD PUSH2 0x4236 SWAP1 PUSH2 0x5B3F JUMP JUMPDEST DUP1 ISZERO PUSH2 0x4283 JUMPI DUP1 PUSH1 0x1F LT PUSH2 0x4258 JUMPI PUSH2 0x100 DUP1 DUP4 SLOAD DIV MUL DUP4 MSTORE SWAP2 PUSH1 0x20 ADD SWAP2 PUSH2 0x4283 JUMP JUMPDEST DUP3 ADD SWAP2 SWAP1 PUSH1 0x0 MSTORE PUSH1 0x20 PUSH1 0x0 KECCAK256 SWAP1 JUMPDEST DUP2 SLOAD DUP2 MSTORE SWAP1 PUSH1 0x1 ADD SWAP1 PUSH1 0x20 ADD DUP1 DUP4 GT PUSH2 0x4266 JUMPI DUP3 SWAP1 SUB PUSH1 0x1F AND DUP3 ADD SWAP2 JUMPDEST POP POP POP POP POP SWAP1 POP PUSH1 0x0 PUSH2 0x4294 PUSH2 0x47EB JUMP JUMPDEST SWAP1 POP DUP1 MLOAD PUSH1 0x0 EQ ISZERO PUSH2 0x42A7 JUMPI POP SWAP3 SWAP2 POP POP JUMP JUMPDEST DUP2 MLOAD ISZERO PUSH2 0x42D9 JUMPI DUP1 DUP3 PUSH1 0x40 MLOAD PUSH1 0x20 ADD PUSH2 0x42C1 SWAP3 SWAP2 SWAP1 PUSH2 0x5569 JUMP JUMPDEST PUSH1 0x40 MLOAD PUSH1 0x20 DUP2 DUP4 SUB SUB DUP2 MSTORE SWAP1 PUSH1 0x40 MSTORE SWAP3 POP POP POP SWAP2 SWAP1 POP JUMP JUMPDEST PUSH2 0x35E8 DUP5 PUSH2 0x480B JUMP JUMPDEST PUSH1 0x0 PUSH2 0x2AFA DUP4 DUP4 PUSH2 0x48D5 JUMP JUMPDEST PUSH1 0x0 PUSH1 0x1 PUSH1 0x1 PUSH1 0xE0 SHL SUB NOT DUP3 AND PUSH4 0x80AC58CD PUSH1 0xE0 SHL EQ DUP1 PUSH2 0x431F JUMPI POP PUSH1 0x1 PUSH1 0x1 PUSH1 0xE0 SHL SUB NOT DUP3 AND PUSH4 0x5B5E139F PUSH1 0xE0 SHL EQ JUMPDEST DUP1 PUSH2 0x803 JUMPI POP PUSH4 0x1FFC9A7 PUSH1 0xE0 SHL PUSH1 0x1 PUSH1 0x1 PUSH1 0xE0 SHL SUB NOT DUP4 AND EQ PUSH2 0x803 JUMP JUMPDEST PUSH2 0x4347 DUP4 PUSH2 0x2D32 JUMP JUMPDEST PUSH2 0x436F JUMPI PUSH2 0x4355 DUP5 DUP5 PUSH2 0x490D JUMP JUMPDEST PUSH1 0x0 DUP3 DUP2 MSTORE PUSH1 0xC PUSH1 0x20 MSTORE PUSH1 0x40 SWAP1 KECCAK256 PUSH2 0x436D SWAP1 DUP5 PUSH2 0x4A39 JUMP JUMPDEST POP JUMPDEST PUSH1 0x0 DUP4 DUP2 MSTORE PUSH1 0xF PUSH1 0x20 MSTORE PUSH1 0x40 SWAP1 KECCAK256 SLOAD PUSH2 0x4389 SWAP1 DUP3 SWAP1 PUSH2 0x59AC JUMP JUMPDEST PUSH1 0x0 DUP5 DUP2 MSTORE PUSH1 0xF PUSH1 0x20 MSTORE PUSH1 0x40 DUP1 DUP3 KECCAK256 SWAP3 SWAP1 SWAP3 SSTORE SWAP1 MLOAD PUSH1 0x1 PUSH1 0x1 PUSH1 0xA0 SHL SUB DUP7 AND SWAP1 DUP3 SWAP1 PUSH1 0x0 DUP1 MLOAD PUSH1 0x20 PUSH2 0x5C77 DUP4 CODECOPY DUP2 MLOAD SWAP2 MSTORE SWAP1 PUSH2 0x4172 SWAP1 DUP9 SWAP1 DUP8 SWAP1 PUSH2 0x5735 JUMP JUMPDEST PUSH2 0x43D1 DUP3 PUSH2 0x2D32 JUMP JUMPDEST PUSH2 0x4434 JUMPI PUSH1 0x40 MLOAD PUSH3 0x461BCD PUSH1 0xE5 SHL DUP2 MSTORE PUSH1 0x20 PUSH1 0x4 DUP3 ADD MSTORE PUSH1 0x2E PUSH1 0x24 DUP3 ADD MSTORE PUSH32 0x45524337323155524953746F726167653A2055524920736574206F66206E6F6E PUSH1 0x44 DUP3 ADD MSTORE PUSH14 0x32BC34B9BA32B73A103A37B5B2B7 PUSH1 0x91 SHL PUSH1 0x64 DUP3 ADD MSTORE PUSH1 0x84 ADD PUSH2 0x948 JUMP JUMPDEST PUSH1 0x0 DUP3 DUP2 MSTORE PUSH1 0x9 PUSH1 0x20 SWAP1 DUP2 MSTORE PUSH1 0x40 SWAP1 SWAP2 KECCAK256 DUP3 MLOAD PUSH2 0xA79 SWAP3 DUP5 ADD SWAP1 PUSH2 0x4E7B JUMP JUMPDEST PUSH1 0x1 PUSH1 0x1 PUSH1 0xA0 SHL SUB DUP4 AND ISZERO PUSH2 0xA79 JUMPI PUSH2 0xA79 DUP2 PUSH2 0x4A45 JUMP JUMPDEST PUSH1 0x60 PUSH1 0x0 PUSH2 0x447A DUP4 PUSH1 0x2 PUSH2 0x5AC6 JUMP JUMPDEST PUSH2 0x4485 SWAP1 PUSH1 0x2 PUSH2 0x59AC JUMP JUMPDEST PUSH1 0x1 PUSH1 0x1 PUSH1 0x40 SHL SUB DUP2 GT ISZERO PUSH2 0x44AA JUMPI PUSH4 0x4E487B71 PUSH1 0xE0 SHL PUSH1 0x0 MSTORE PUSH1 0x41 PUSH1 0x4 MSTORE PUSH1 0x24 PUSH1 0x0 REVERT JUMPDEST PUSH1 0x40 MLOAD SWAP1 DUP1 DUP3 MSTORE DUP1 PUSH1 0x1F ADD PUSH1 0x1F NOT AND PUSH1 0x20 ADD DUP3 ADD PUSH1 0x40 MSTORE DUP1 ISZERO PUSH2 0x44D4 JUMPI PUSH1 0x20 DUP3 ADD DUP2 DUP1 CALLDATASIZE DUP4 CALLDATACOPY ADD SWAP1 POP JUMPDEST POP SWAP1 POP PUSH1 0x3 PUSH1 0xFC SHL DUP2 PUSH1 0x0 DUP2 MLOAD DUP2 LT PUSH2 0x44FD JUMPI PUSH4 0x4E487B71 PUSH1 0xE0 SHL PUSH1 0x0 MSTORE PUSH1 0x32 PUSH1 0x4 MSTORE PUSH1 0x24 PUSH1 0x0 REVERT JUMPDEST PUSH1 0x20 ADD ADD SWAP1 PUSH1 0x1 PUSH1 0x1 PUSH1 0xF8 SHL SUB NOT AND SWAP1 DUP2 PUSH1 0x0 BYTE SWAP1 MSTORE8 POP PUSH1 0xF PUSH1 0xFB SHL DUP2 PUSH1 0x1 DUP2 MLOAD DUP2 LT PUSH2 0x453A JUMPI PUSH4 0x4E487B71 PUSH1 0xE0 SHL PUSH1 0x0 MSTORE PUSH1 0x32 PUSH1 0x4 MSTORE PUSH1 0x24 PUSH1 0x0 REVERT JUMPDEST PUSH1 0x20 ADD ADD SWAP1 PUSH1 0x1 PUSH1 0x1 PUSH1 0xF8 SHL SUB NOT AND SWAP1 DUP2 PUSH1 0x0 BYTE SWAP1 MSTORE8 POP PUSH1 0x0 PUSH2 0x455E DUP5 PUSH1 0x2 PUSH2 0x5AC6 JUMP JUMPDEST PUSH2 0x4569 SWAP1 PUSH1 0x1 PUSH2 0x59AC JUMP JUMPDEST SWAP1 POP JUMPDEST PUSH1 0x1 DUP2 GT ISZERO PUSH2 0x45FD JUMPI PUSH16 0x181899199A1A9B1B9C1CB0B131B232B3 PUSH1 0x81 SHL DUP6 PUSH1 0xF AND PUSH1 0x10 DUP2 LT PUSH2 0x45AB JUMPI PUSH4 0x4E487B71 PUSH1 0xE0 SHL PUSH1 0x0 MSTORE PUSH1 0x32 PUSH1 0x4 MSTORE PUSH1 0x24 PUSH1 0x0 REVERT JUMPDEST BYTE PUSH1 0xF8 SHL DUP3 DUP3 DUP2 MLOAD DUP2 LT PUSH2 0x45CF JUMPI PUSH4 0x4E487B71 PUSH1 0xE0 SHL PUSH1 0x0 MSTORE PUSH1 0x32 PUSH1 0x4 MSTORE PUSH1 0x24 PUSH1 0x0 REVERT JUMPDEST PUSH1 0x20 ADD ADD SWAP1 PUSH1 0x1 PUSH1 0x1 PUSH1 0xF8 SHL SUB NOT AND SWAP1 DUP2 PUSH1 0x0 BYTE SWAP1 MSTORE8 POP PUSH1 0x4 SWAP5 SWAP1 SWAP5 SHR SWAP4 PUSH2 0x45F6 DUP2 PUSH2 0x5B28 JUMP JUMPDEST SWAP1 POP PUSH2 0x456C JUMP JUMPDEST POP DUP4 ISZERO PUSH2 0x2AFA JUMPI PUSH1 0x40 MLOAD PUSH3 0x461BCD PUSH1 0xE5 SHL DUP2 MSTORE PUSH1 0x20 PUSH1 0x4 DUP3 ADD DUP2 SWAP1 MSTORE PUSH1 0x24 DUP3 ADD MSTORE PUSH32 0x537472696E67733A20686578206C656E67746820696E73756666696369656E74 PUSH1 0x44 DUP3 ADD MSTORE PUSH1 0x64 ADD PUSH2 0x948 JUMP JUMPDEST PUSH1 0x0 PUSH2 0x4657 DUP3 PUSH2 0x1A78 JUMP JUMPDEST SWAP1 POP PUSH1 0x0 PUSH2 0x4664 DUP4 PUSH2 0x1576 JUMP JUMPDEST PUSH1 0x0 DUP5 DUP2 MSTORE PUSH1 0xF PUSH1 0x20 SWAP1 DUP2 MSTORE PUSH1 0x40 DUP1 DUP4 KECCAK256 SLOAD DUP5 DUP5 MSTORE PUSH1 0xC SWAP1 SWAP3 MSTORE SWAP1 SWAP2 KECCAK256 SWAP2 SWAP3 POP SWAP1 PUSH2 0x468F SWAP1 DUP6 PUSH2 0x4AF9 JUMP JUMPDEST POP PUSH1 0x0 DUP5 DUP2 MSTORE PUSH1 0xF PUSH1 0x20 MSTORE PUSH1 0x40 DUP2 KECCAK256 SSTORE PUSH2 0x46A8 DUP5 PUSH2 0x4B05 JUMP JUMPDEST DUP4 PUSH1 0x0 PUSH1 0x1 PUSH1 0x1 PUSH1 0xA0 SHL SUB AND DUP5 PUSH1 0x1 PUSH1 0x1 PUSH1 0xA0 SHL SUB AND PUSH1 0x0 DUP1 MLOAD PUSH1 0x20 PUSH2 0x5C77 DUP4 CODECOPY DUP2 MLOAD SWAP2 MSTORE PUSH1 0x0 DUP6 PUSH1 0x40 MLOAD PUSH2 0x4172 SWAP3 SWAP2 SWAP1 PUSH2 0x5735 JUMP JUMPDEST PUSH1 0x0 PUSH1 0x1 PUSH1 0x1 PUSH1 0xA0 SHL SUB DUP5 AND EXTCODESIZE ISZERO PUSH2 0x47E0 JUMPI PUSH1 0x40 MLOAD PUSH4 0xA85BD01 PUSH1 0xE1 SHL DUP2 MSTORE PUSH1 0x1 PUSH1 0x1 PUSH1 0xA0 SHL SUB DUP6 AND SWAP1 PUSH4 0x150B7A02 SWAP1 PUSH2 0x4722 SWAP1 CALLER SWAP1 DUP10 SWAP1 DUP9 SWAP1 DUP9 SWAP1 PUSH1 0x4 ADD PUSH2 0x563F JUMP JUMPDEST PUSH1 0x20 PUSH1 0x40 MLOAD DUP1 DUP4 SUB DUP2 PUSH1 0x0 DUP8 DUP1 EXTCODESIZE ISZERO DUP1 ISZERO PUSH2 0x473C JUMPI PUSH1 0x0 DUP1 REVERT JUMPDEST POP GAS CALL SWAP3 POP POP POP DUP1 ISZERO PUSH2 0x476C JUMPI POP PUSH1 0x40 DUP1 MLOAD PUSH1 0x1F RETURNDATASIZE SWAP1 DUP2 ADD PUSH1 0x1F NOT AND DUP3 ADD SWAP1 SWAP3 MSTORE PUSH2 0x4769 SWAP2 DUP2 ADD SWAP1 PUSH2 0x5337 JUMP JUMPDEST PUSH1 0x1 JUMPDEST PUSH2 0x47C6 JUMPI RETURNDATASIZE DUP1 DUP1 ISZERO PUSH2 0x479A JUMPI PUSH1 0x40 MLOAD SWAP2 POP PUSH1 0x1F NOT PUSH1 0x3F RETURNDATASIZE ADD AND DUP3 ADD PUSH1 0x40 MSTORE RETURNDATASIZE DUP3 MSTORE RETURNDATASIZE PUSH1 0x0 PUSH1 0x20 DUP5 ADD RETURNDATACOPY PUSH2 0x479F JUMP JUMPDEST PUSH1 0x60 SWAP2 POP JUMPDEST POP DUP1 MLOAD PUSH2 0x47BE JUMPI PUSH1 0x40 MLOAD PUSH3 0x461BCD PUSH1 0xE5 SHL DUP2 MSTORE PUSH1 0x4 ADD PUSH2 0x948 SWAP1 PUSH2 0x5772 JUMP JUMPDEST DUP1 MLOAD DUP2 PUSH1 0x20 ADD REVERT JUMPDEST PUSH1 0x1 PUSH1 0x1 PUSH1 0xE0 SHL SUB NOT AND PUSH4 0xA85BD01 PUSH1 0xE1 SHL EQ SWAP1 POP PUSH2 0x35E8 JUMP JUMPDEST POP PUSH1 0x1 SWAP5 SWAP4 POP POP POP POP JUMP JUMPDEST PUSH1 0x60 PUSH1 0x40 MLOAD DUP1 PUSH1 0x60 ADD PUSH1 0x40 MSTORE DUP1 PUSH1 0x22 DUP2 MSTORE PUSH1 0x20 ADD PUSH2 0x5C35 PUSH1 0x22 SWAP2 CODECOPY SWAP1 POP SWAP1 JUMP JUMPDEST PUSH1 0x60 PUSH2 0x4816 DUP3 PUSH2 0x2D32 JUMP JUMPDEST PUSH2 0x487A JUMPI PUSH1 0x40 MLOAD PUSH3 0x461BCD PUSH1 0xE5 SHL DUP2 MSTORE PUSH1 0x20 PUSH1 0x4 DUP3 ADD MSTORE PUSH1 0x2F PUSH1 0x24 DUP3 ADD MSTORE PUSH32 0x4552433732314D657461646174613A2055524920717565727920666F72206E6F PUSH1 0x44 DUP3 ADD MSTORE PUSH15 0x3732BC34B9BA32B73A103A37B5B2B7 PUSH1 0x89 SHL PUSH1 0x64 DUP3 ADD MSTORE PUSH1 0x84 ADD PUSH2 0x948 JUMP JUMPDEST PUSH1 0x0 PUSH2 0x4884 PUSH2 0x47EB JUMP JUMPDEST SWAP1 POP PUSH1 0x0 DUP2 MLOAD GT PUSH2 0x48A4 JUMPI PUSH1 0x40 MLOAD DUP1 PUSH1 0x20 ADD PUSH1 0x40 MSTORE DUP1 PUSH1 0x0 DUP2 MSTORE POP PUSH2 0x2AFA JUMP JUMPDEST DUP1 PUSH2 0x48AE DUP5 PUSH2 0x4B9A JUMP JUMPDEST PUSH1 0x40 MLOAD PUSH1 0x20 ADD PUSH2 0x48BF SWAP3 SWAP2 SWAP1 PUSH2 0x5569 JUMP JUMPDEST PUSH1 0x40 MLOAD PUSH1 0x20 DUP2 DUP4 SUB SUB DUP2 MSTORE SWAP1 PUSH1 0x40 MSTORE SWAP4 SWAP3 POP POP POP JUMP JUMPDEST PUSH1 0x0 DUP3 PUSH1 0x0 ADD DUP3 DUP2 SLOAD DUP2 LT PUSH2 0x48FA JUMPI PUSH4 0x4E487B71 PUSH1 0xE0 SHL PUSH1 0x0 MSTORE PUSH1 0x32 PUSH1 0x4 MSTORE PUSH1 0x24 PUSH1 0x0 REVERT JUMPDEST SWAP1 PUSH1 0x0 MSTORE PUSH1 0x20 PUSH1 0x0 KECCAK256 ADD SLOAD SWAP1 POP SWAP3 SWAP2 POP POP JUMP JUMPDEST PUSH1 0x1 PUSH1 0x1 PUSH1 0xA0 SHL SUB DUP3 AND PUSH2 0x4963 JUMPI PUSH1 0x40 MLOAD PUSH3 0x461BCD PUSH1 0xE5 SHL DUP2 MSTORE PUSH1 0x20 PUSH1 0x4 DUP3 ADD DUP2 SWAP1 MSTORE PUSH1 0x24 DUP3 ADD MSTORE PUSH32 0x4552433732313A206D696E7420746F20746865207A65726F2061646472657373 PUSH1 0x44 DUP3 ADD MSTORE PUSH1 0x64 ADD PUSH2 0x948 JUMP JUMPDEST PUSH2 0x496C DUP2 PUSH2 0x2D32 JUMP JUMPDEST ISZERO PUSH2 0x49B8 JUMPI PUSH1 0x40 MLOAD PUSH3 0x461BCD PUSH1 0xE5 SHL DUP2 MSTORE PUSH1 0x20 PUSH1 0x4 DUP3 ADD MSTORE PUSH1 0x1C PUSH1 0x24 DUP3 ADD MSTORE PUSH28 0x115490CDCC8C4E881D1BDAD95B88185B1C9958591E481B5A5B9D1959 PUSH1 0x22 SHL PUSH1 0x44 DUP3 ADD MSTORE PUSH1 0x64 ADD PUSH2 0x948 JUMP JUMPDEST PUSH2 0x49C4 PUSH1 0x0 DUP4 DUP4 PUSH2 0x4453 JUMP JUMPDEST PUSH1 0x1 PUSH1 0x1 PUSH1 0xA0 SHL SUB DUP3 AND PUSH1 0x0 SWAP1 DUP2 MSTORE PUSH1 0x3 PUSH1 0x20 MSTORE PUSH1 0x40 DUP2 KECCAK256 DUP1 SLOAD PUSH1 0x1 SWAP3 SWAP1 PUSH2 0x49ED SWAP1 DUP5 SWAP1 PUSH2 0x59AC JUMP JUMPDEST SWAP1 SWAP2 SSTORE POP POP PUSH1 0x0 DUP2 DUP2 MSTORE PUSH1 0x2 PUSH1 0x20 MSTORE PUSH1 0x40 DUP1 DUP3 KECCAK256 DUP1 SLOAD PUSH1 0x1 PUSH1 0x1 PUSH1 0xA0 SHL SUB NOT AND PUSH1 0x1 PUSH1 0x1 PUSH1 0xA0 SHL SUB DUP7 AND SWAP1 DUP2 OR SWAP1 SWAP2 SSTORE SWAP1 MLOAD DUP4 SWAP3 SWAP1 PUSH1 0x0 DUP1 MLOAD PUSH1 0x20 PUSH2 0x5C57 DUP4 CODECOPY DUP2 MLOAD SWAP2 MSTORE SWAP1 DUP3 SWAP1 LOG4 POP POP JUMP JUMPDEST PUSH1 0x0 PUSH2 0x2AFA DUP4 DUP4 PUSH2 0x4CB3 JUMP JUMPDEST PUSH1 0x0 DUP2 DUP2 MSTORE PUSH1 0xB PUSH1 0x20 MSTORE PUSH1 0x40 DUP2 KECCAK256 SWAP1 JUMPDEST DUP2 SLOAD DUP2 LT ISZERO PUSH2 0xA79 JUMPI DUP2 PUSH1 0x1 ADD PUSH1 0x0 DUP4 PUSH1 0x0 ADD DUP4 DUP2 SLOAD DUP2 LT PUSH2 0x4A87 JUMPI PUSH4 0x4E487B71 PUSH1 0xE0 SHL PUSH1 0x0 MSTORE PUSH1 0x32 PUSH1 0x4 MSTORE PUSH1 0x24 PUSH1 0x0 REVERT JUMPDEST PUSH1 0x0 SWAP2 DUP3 MSTORE PUSH1 0x20 DUP1 DUP4 KECCAK256 SWAP1 SWAP2 ADD SLOAD PUSH1 0x1 PUSH1 0x1 PUSH1 0xA0 SHL SUB AND DUP4 MSTORE DUP3 ADD SWAP3 SWAP1 SWAP3 MSTORE PUSH1 0x40 ADD DUP2 KECCAK256 SSTORE DUP2 SLOAD DUP3 SWAP1 DUP3 SWAP1 DUP2 LT PUSH2 0x4ACE JUMPI PUSH4 0x4E487B71 PUSH1 0xE0 SHL PUSH1 0x0 MSTORE PUSH1 0x32 PUSH1 0x4 MSTORE PUSH1 0x24 PUSH1 0x0 REVERT JUMPDEST PUSH1 0x0 SWAP2 DUP3 MSTORE PUSH1 0x20 SWAP1 SWAP2 KECCAK256 ADD DUP1 SLOAD PUSH1 0x1 PUSH1 0x1 PUSH1 0xA0 SHL SUB NOT AND SWAP1 SSTORE DUP1 PUSH2 0x4AF1 DUP2 PUSH2 0x5B74 JUMP JUMPDEST SWAP2 POP POP PUSH2 0x4A55 JUMP JUMPDEST PUSH1 0x0 PUSH2 0x2AFA DUP4 DUP4 PUSH2 0x4D02 JUMP JUMPDEST PUSH1 0x0 PUSH2 0x4B10 DUP3 PUSH2 0x1A78 JUMP JUMPDEST SWAP1 POP PUSH2 0x4B1E DUP2 PUSH1 0x0 DUP5 PUSH2 0x4453 JUMP JUMPDEST PUSH2 0x4B29 PUSH1 0x0 DUP4 PUSH2 0x2D4F JUMP JUMPDEST PUSH1 0x1 PUSH1 0x1 PUSH1 0xA0 SHL SUB DUP2 AND PUSH1 0x0 SWAP1 DUP2 MSTORE PUSH1 0x3 PUSH1 0x20 MSTORE PUSH1 0x40 DUP2 KECCAK256 DUP1 SLOAD PUSH1 0x1 SWAP3 SWAP1 PUSH2 0x4B52 SWAP1 DUP5 SWAP1 PUSH2 0x5AE5 JUMP JUMPDEST SWAP1 SWAP2 SSTORE POP POP PUSH1 0x0 DUP3 DUP2 MSTORE PUSH1 0x2 PUSH1 0x20 MSTORE PUSH1 0x40 DUP1 DUP3 KECCAK256 DUP1 SLOAD PUSH1 0x1 PUSH1 0x1 PUSH1 0xA0 SHL SUB NOT AND SWAP1 SSTORE MLOAD DUP4 SWAP2 SWAP1 PUSH1 0x1 PUSH1 0x1 PUSH1 0xA0 SHL SUB DUP5 AND SWAP1 PUSH1 0x0 DUP1 MLOAD PUSH1 0x20 PUSH2 0x5C57 DUP4 CODECOPY DUP2 MLOAD SWAP2 MSTORE SWAP1 DUP4 SWAP1 LOG4 POP POP JUMP JUMPDEST PUSH1 0x60 DUP2 PUSH2 0x4BBE JUMPI POP POP PUSH1 0x40 DUP1 MLOAD DUP1 DUP3 ADD SWAP1 SWAP2 MSTORE PUSH1 0x1 DUP2 MSTORE PUSH1 0x3 PUSH1 0xFC SHL PUSH1 0x20 DUP3 ADD MSTORE SWAP1 JUMP JUMPDEST DUP2 PUSH1 0x0 JUMPDEST DUP2 ISZERO PUSH2 0x4BE8 JUMPI DUP1 PUSH2 0x4BD2 DUP2 PUSH2 0x5B74 JUMP JUMPDEST SWAP2 POP PUSH2 0x4BE1 SWAP1 POP PUSH1 0xA DUP4 PUSH2 0x59C4 JUMP JUMPDEST SWAP2 POP PUSH2 0x4BC2 JUMP JUMPDEST PUSH1 0x0 DUP2 PUSH1 0x1 PUSH1 0x1 PUSH1 0x40 SHL SUB DUP2 GT ISZERO PUSH2 0x4C10 JUMPI PUSH4 0x4E487B71 PUSH1 0xE0 SHL PUSH1 0x0 MSTORE PUSH1 0x41 PUSH1 0x4 MSTORE PUSH1 0x24 PUSH1 0x0 REVERT JUMPDEST PUSH1 0x40 MLOAD SWAP1 DUP1 DUP3 MSTORE DUP1 PUSH1 0x1F ADD PUSH1 0x1F NOT AND PUSH1 0x20 ADD DUP3 ADD PUSH1 0x40 MSTORE DUP1 ISZERO PUSH2 0x4C3A JUMPI PUSH1 0x20 DUP3 ADD DUP2 DUP1 CALLDATASIZE DUP4 CALLDATACOPY ADD SWAP1 POP JUMPDEST POP SWAP1 POP JUMPDEST DUP5 ISZERO PUSH2 0x35E8 JUMPI PUSH2 0x4C4F PUSH1 0x1 DUP4 PUSH2 0x5AE5 JUMP JUMPDEST SWAP2 POP PUSH2 0x4C5C PUSH1 0xA DUP7 PUSH2 0x5B8F JUMP JUMPDEST PUSH2 0x4C67 SWAP1 PUSH1 0x30 PUSH2 0x59AC JUMP JUMPDEST PUSH1 0xF8 SHL DUP2 DUP4 DUP2 MLOAD DUP2 LT PUSH2 0x4C8A JUMPI PUSH4 0x4E487B71 PUSH1 0xE0 SHL PUSH1 0x0 MSTORE PUSH1 0x32 PUSH1 0x4 MSTORE PUSH1 0x24 PUSH1 0x0 REVERT JUMPDEST PUSH1 0x20 ADD ADD SWAP1 PUSH1 0x1 PUSH1 0x1 PUSH1 0xF8 SHL SUB NOT AND SWAP1 DUP2 PUSH1 0x0 BYTE SWAP1 MSTORE8 POP PUSH2 0x4CAC PUSH1 0xA DUP7 PUSH2 0x59C4 JUMP JUMPDEST SWAP5 POP PUSH2 0x4C3E JUMP JUMPDEST PUSH1 0x0 DUP2 DUP2 MSTORE PUSH1 0x1 DUP4 ADD PUSH1 0x20 MSTORE PUSH1 0x40 DUP2 KECCAK256 SLOAD PUSH2 0x4CFA JUMPI POP DUP2 SLOAD PUSH1 0x1 DUP2 DUP2 ADD DUP5 SSTORE PUSH1 0x0 DUP5 DUP2 MSTORE PUSH1 0x20 DUP1 DUP3 KECCAK256 SWAP1 SWAP4 ADD DUP5 SWAP1 SSTORE DUP5 SLOAD DUP5 DUP3 MSTORE DUP3 DUP7 ADD SWAP1 SWAP4 MSTORE PUSH1 0x40 SWAP1 KECCAK256 SWAP2 SWAP1 SWAP2 SSTORE PUSH2 0x803 JUMP JUMPDEST POP PUSH1 0x0 PUSH2 0x803 JUMP JUMPDEST PUSH1 0x0 DUP2 DUP2 MSTORE PUSH1 0x1 DUP4 ADD PUSH1 0x20 MSTORE PUSH1 0x40 DUP2 KECCAK256 SLOAD DUP1 ISZERO PUSH2 0x4E15 JUMPI PUSH1 0x0 PUSH2 0x4D26 PUSH1 0x1 DUP4 PUSH2 0x5AE5 JUMP JUMPDEST DUP6 SLOAD SWAP1 SWAP2 POP PUSH1 0x0 SWAP1 PUSH2 0x4D3A SWAP1 PUSH1 0x1 SWAP1 PUSH2 0x5AE5 JUMP JUMPDEST SWAP1 POP DUP2 DUP2 EQ PUSH2 0x4DBB JUMPI PUSH1 0x0 DUP7 PUSH1 0x0 ADD DUP3 DUP2 SLOAD DUP2 LT PUSH2 0x4D68 JUMPI PUSH4 0x4E487B71 PUSH1 0xE0 SHL PUSH1 0x0 MSTORE PUSH1 0x32 PUSH1 0x4 MSTORE PUSH1 0x24 PUSH1 0x0 REVERT JUMPDEST SWAP1 PUSH1 0x0 MSTORE PUSH1 0x20 PUSH1 0x0 KECCAK256 ADD SLOAD SWAP1 POP DUP1 DUP8 PUSH1 0x0 ADD DUP5 DUP2 SLOAD DUP2 LT PUSH2 0x4D99 JUMPI PUSH4 0x4E487B71 PUSH1 0xE0 SHL PUSH1 0x0 MSTORE PUSH1 0x32 PUSH1 0x4 MSTORE PUSH1 0x24 PUSH1 0x0 REVERT JUMPDEST PUSH1 0x0 SWAP2 DUP3 MSTORE PUSH1 0x20 DUP1 DUP4 KECCAK256 SWAP1 SWAP2 ADD SWAP3 SWAP1 SWAP3 SSTORE SWAP2 DUP3 MSTORE PUSH1 0x1 DUP9 ADD SWAP1 MSTORE PUSH1 0x40 SWAP1 KECCAK256 DUP4 SWAP1 SSTORE JUMPDEST DUP6 SLOAD DUP7 SWAP1 DUP1 PUSH2 0x4DDA JUMPI PUSH4 0x4E487B71 PUSH1 0xE0 SHL PUSH1 0x0 MSTORE PUSH1 0x31 PUSH1 0x4 MSTORE PUSH1 0x24 PUSH1 0x0 REVERT JUMPDEST PUSH1 0x1 SWAP1 SUB DUP2 DUP2 SWAP1 PUSH1 0x0 MSTORE PUSH1 0x20 PUSH1 0x0 KECCAK256 ADD PUSH1 0x0 SWAP1 SSTORE SWAP1 SSTORE DUP6 PUSH1 0x1 ADD PUSH1 0x0 DUP7 DUP2 MSTORE PUSH1 0x20 ADD SWAP1 DUP2 MSTORE PUSH1 0x20 ADD PUSH1 0x0 KECCAK256 PUSH1 0x0 SWAP1 SSTORE PUSH1 0x1 SWAP4 POP POP POP POP PUSH2 0x803 JUMP JUMPDEST PUSH1 0x0 SWAP2 POP POP PUSH2 0x803 JUMP JUMPDEST PUSH1 0x40 DUP1 MLOAD PUSH1 0xE0 DUP2 ADD SWAP1 SWAP2 MSTORE DUP1 PUSH1 0x0 DUP2 MSTORE PUSH1 0x20 ADD PUSH1 0x0 DUP2 MSTORE PUSH1 0x20 ADD PUSH1 0x0 DUP2 MSTORE PUSH1 0x20 ADD PUSH1 0x0 DUP2 MSTORE PUSH1 0x20 ADD PUSH1 0x0 DUP2 MSTORE PUSH1 0x20 ADD PUSH1 0x0 DUP2 MSTORE PUSH1 0x20 ADD PUSH1 0x0 PUSH1 0x2 DUP2 GT ISZERO PUSH2 0x4E76 JUMPI PUSH4 0x4E487B71 PUSH1 0xE0 SHL PUSH1 0x0 MSTORE PUSH1 0x21 PUSH1 0x4 MSTORE PUSH1 0x24 PUSH1 0x0 REVERT JUMPDEST SWAP1 MSTORE SWAP1 JUMP JUMPDEST DUP3 DUP1 SLOAD PUSH2 0x4E87 SWAP1 PUSH2 0x5B3F JUMP JUMPDEST SWAP1 PUSH1 0x0 MSTORE PUSH1 0x20 PUSH1 0x0 KECCAK256 SWAP1 PUSH1 0x1F ADD PUSH1 0x20 SWAP1 DIV DUP2 ADD SWAP3 DUP3 PUSH2 0x4EA9 JUMPI PUSH1 0x0 DUP6 SSTORE PUSH2 0x4EEF JUMP JUMPDEST DUP3 PUSH1 0x1F LT PUSH2 0x4EC2 JUMPI DUP1 MLOAD PUSH1 0xFF NOT AND DUP4 DUP1 ADD OR DUP6 SSTORE PUSH2 0x4EEF JUMP JUMPDEST DUP3 DUP1 ADD PUSH1 0x1 ADD DUP6 SSTORE DUP3 ISZERO PUSH2 0x4EEF JUMPI SWAP2 DUP3 ADD JUMPDEST DUP3 DUP2 GT ISZERO PUSH2 0x4EEF JUMPI DUP3 MLOAD DUP3 SSTORE SWAP2 PUSH1 0x20 ADD SWAP2 SWAP1 PUSH1 0x1 ADD SWAP1 PUSH2 0x4ED4 JUMP JUMPDEST POP PUSH2 0x4EFB SWAP3 SWAP2 POP PUSH2 0x4EFF JUMP JUMPDEST POP SWAP1 JUMP JUMPDEST JUMPDEST DUP1 DUP3 GT ISZERO PUSH2 0x4EFB JUMPI PUSH1 0x0 DUP2 SSTORE PUSH1 0x1 ADD PUSH2 0x4F00 JUMP JUMPDEST PUSH1 0x0 PUSH1 0x1 PUSH1 0x1 PUSH1 0x40 SHL SUB DUP1 DUP5 GT ISZERO PUSH2 0x4F2E JUMPI PUSH2 0x4F2E PUSH2 0x5BE5 JUMP JUMPDEST PUSH1 0x40 MLOAD PUSH1 0x1F DUP6 ADD PUSH1 0x1F NOT SWAP1 DUP2 AND PUSH1 0x3F ADD AND DUP2 ADD SWAP1 DUP3 DUP3 GT DUP2 DUP4 LT OR ISZERO PUSH2 0x4F56 JUMPI PUSH2 0x4F56 PUSH2 0x5BE5 JUMP JUMPDEST DUP2 PUSH1 0x40 MSTORE DUP1 SWAP4 POP DUP6 DUP2 MSTORE DUP7 DUP7 DUP7 ADD GT ISZERO PUSH2 0x4F6F JUMPI PUSH1 0x0 DUP1 REVERT JUMPDEST DUP6 DUP6 PUSH1 0x20 DUP4 ADD CALLDATACOPY PUSH1 0x0 PUSH1 0x20 DUP8 DUP4 ADD ADD MSTORE POP POP POP SWAP4 SWAP3 POP POP POP JUMP JUMPDEST PUSH1 0x0 DUP1 DUP4 PUSH1 0x1F DUP5 ADD SLT PUSH2 0x4F9A JUMPI DUP2 DUP3 REVERT JUMPDEST POP DUP2 CALLDATALOAD PUSH1 0x1 PUSH1 0x1 PUSH1 0x40 SHL SUB DUP2 GT ISZERO PUSH2 0x4FB0 JUMPI DUP2 DUP3 REVERT JUMPDEST PUSH1 0x20 DUP4 ADD SWAP2 POP DUP4 PUSH1 0x20 DUP3 PUSH1 0x5 SHL DUP6 ADD ADD GT ISZERO PUSH2 0x4FCB JUMPI PUSH1 0x0 DUP1 REVERT JUMPDEST SWAP3 POP SWAP3 SWAP1 POP JUMP JUMPDEST DUP1 MLOAD PUSH1 0x1 PUSH1 0x1 PUSH1 0x50 SHL SUB DUP2 AND DUP2 EQ PUSH2 0x4FE9 JUMPI PUSH1 0x0 DUP1 REVERT JUMPDEST SWAP2 SWAP1 POP JUMP JUMPDEST PUSH1 0x0 PUSH1 0x20 DUP3 DUP5 SUB SLT ISZERO PUSH2 0x4FFF JUMPI DUP1 DUP2 REVERT JUMPDEST DUP2 CALLDATALOAD PUSH2 0x2AFA DUP2 PUSH2 0x5BFB JUMP JUMPDEST PUSH1 0x0 PUSH1 0x20 DUP3 DUP5 SUB SLT ISZERO PUSH2 0x501B JUMPI DUP1 DUP2 REVERT JUMPDEST DUP2 MLOAD PUSH2 0x2AFA DUP2 PUSH2 0x5BFB JUMP JUMPDEST PUSH1 0x0 DUP1 PUSH1 0x40 DUP4 DUP6 SUB SLT ISZERO PUSH2 0x5038 JUMPI DUP1 DUP2 REVERT JUMPDEST DUP3 CALLDATALOAD PUSH2 0x5043 DUP2 PUSH2 0x5BFB JUMP JUMPDEST SWAP2 POP PUSH1 0x20 DUP4 ADD CALLDATALOAD PUSH2 0x5053 DUP2 PUSH2 0x5BFB JUMP JUMPDEST DUP1 SWAP2 POP POP SWAP3 POP SWAP3 SWAP1 POP JUMP JUMPDEST PUSH1 0x0 DUP1 PUSH1 0x0 PUSH1 0x60 DUP5 DUP7 SUB SLT ISZERO PUSH2 0x5072 JUMPI DUP1 DUP2 REVERT JUMPDEST DUP4 CALLDATALOAD PUSH2 0x507D DUP2 PUSH2 0x5BFB JUMP JUMPDEST SWAP3 POP PUSH1 0x20 DUP5 ADD CALLDATALOAD PUSH2 0x508D DUP2 PUSH2 0x5BFB JUMP JUMPDEST SWAP3 SWAP6 SWAP3 SWAP5 POP POP POP PUSH1 0x40 SWAP2 SWAP1 SWAP2 ADD CALLDATALOAD SWAP1 JUMP JUMPDEST PUSH1 0x0 DUP1 PUSH1 0x0 DUP1 PUSH1 0x80 DUP6 DUP8 SUB SLT ISZERO PUSH2 0x50B3 JUMPI DUP1 DUP2 REVERT JUMPDEST DUP5 CALLDATALOAD PUSH2 0x50BE DUP2 PUSH2 0x5BFB JUMP JUMPDEST SWAP4 POP PUSH1 0x20 DUP6 ADD CALLDATALOAD PUSH2 0x50CE DUP2 PUSH2 0x5BFB JUMP JUMPDEST SWAP3 POP PUSH1 0x40 DUP6 ADD CALLDATALOAD SWAP2 POP PUSH1 0x60 DUP6 ADD CALLDATALOAD PUSH1 0x1 PUSH1 0x1 PUSH1 0x40 SHL SUB DUP2 GT ISZERO PUSH2 0x50EF JUMPI DUP2 DUP3 REVERT JUMPDEST DUP6 ADD PUSH1 0x1F DUP2 ADD DUP8 SGT PUSH2 0x50FF JUMPI DUP2 DUP3 REVERT JUMPDEST PUSH2 0x510E DUP8 DUP3 CALLDATALOAD PUSH1 0x20 DUP5 ADD PUSH2 0x4F14 JUMP JUMPDEST SWAP2 POP POP SWAP3 SWAP6 SWAP2 SWAP5 POP SWAP3 POP JUMP JUMPDEST PUSH1 0x0 DUP1 PUSH1 0x0 DUP1 PUSH1 0x80 DUP6 DUP8 SUB SLT ISZERO PUSH2 0x512F JUMPI DUP4 DUP5 REVERT JUMPDEST DUP5 CALLDATALOAD PUSH2 0x513A DUP2 PUSH2 0x5BFB JUMP JUMPDEST SWAP4 POP PUSH1 0x20 DUP6 ADD CALLDATALOAD PUSH2 0x514A DUP2 PUSH2 0x5BFB JUMP JUMPDEST SWAP4 SWAP7 SWAP4 SWAP6 POP POP POP POP PUSH1 0x40 DUP3 ADD CALLDATALOAD SWAP2 PUSH1 0x60 ADD CALLDATALOAD SWAP1 JUMP JUMPDEST PUSH1 0x0 DUP1 PUSH1 0x0 DUP1 PUSH1 0x0 PUSH1 0xA0 DUP7 DUP9 SUB SLT ISZERO PUSH2 0x5176 JUMPI DUP1 DUP2 REVERT JUMPDEST DUP6 CALLDATALOAD PUSH2 0x5181 DUP2 PUSH2 0x5BFB JUMP JUMPDEST SWAP5 POP PUSH1 0x20 DUP7 ADD CALLDATALOAD PUSH2 0x5191 DUP2 PUSH2 0x5BFB JUMP JUMPDEST SWAP5 SWAP8 SWAP5 SWAP7 POP POP POP POP PUSH1 0x40 DUP4 ADD CALLDATALOAD SWAP3 PUSH1 0x60 DUP2 ADD CALLDATALOAD SWAP3 PUSH1 0x80 SWAP1 SWAP2 ADD CALLDATALOAD SWAP2 POP JUMP JUMPDEST PUSH1 0x0 DUP1 PUSH1 0x40 DUP4 DUP6 SUB SLT ISZERO PUSH2 0x51C1 JUMPI DUP2 DUP3 REVERT JUMPDEST DUP3 CALLDATALOAD PUSH2 0x51CC DUP2 PUSH2 0x5BFB JUMP JUMPDEST SWAP2 POP PUSH1 0x20 DUP4 ADD CALLDATALOAD PUSH2 0x5053 DUP2 PUSH2 0x5C10 JUMP JUMPDEST PUSH1 0x0 DUP1 PUSH1 0x40 DUP4 DUP6 SUB SLT ISZERO PUSH2 0x51EE JUMPI DUP2 DUP3 REVERT JUMPDEST DUP3 CALLDATALOAD PUSH2 0x51F9 DUP2 PUSH2 0x5BFB JUMP JUMPDEST SWAP5 PUSH1 0x20 SWAP4 SWAP1 SWAP4 ADD CALLDATALOAD SWAP4 POP POP POP JUMP JUMPDEST PUSH1 0x0 DUP1 PUSH1 0x0 PUSH1 0x60 DUP5 DUP7 SUB SLT ISZERO PUSH2 0x521B JUMPI DUP1 DUP2 REVERT JUMPDEST DUP4 CALLDATALOAD PUSH2 0x5226 DUP2 PUSH2 0x5BFB JUMP JUMPDEST SWAP6 PUSH1 0x20 DUP6 ADD CALLDATALOAD SWAP6 POP PUSH1 0x40 SWAP1 SWAP5 ADD CALLDATALOAD SWAP4 SWAP3 POP POP POP JUMP JUMPDEST PUSH1 0x0 DUP1 PUSH1 0x20 DUP4 DUP6 SUB SLT ISZERO PUSH2 0x524D JUMPI DUP2 DUP3 REVERT JUMPDEST DUP3 CALLDATALOAD PUSH1 0x1 PUSH1 0x1 PUSH1 0x40 SHL SUB DUP2 GT ISZERO PUSH2 0x5262 JUMPI DUP3 DUP4 REVERT JUMPDEST PUSH2 0x526E DUP6 DUP3 DUP7 ADD PUSH2 0x4F89 JUMP JUMPDEST SWAP1 SWAP7 SWAP1 SWAP6 POP SWAP4 POP POP POP POP JUMP JUMPDEST PUSH1 0x0 DUP1 PUSH1 0x0 PUSH1 0x40 DUP5 DUP7 SUB SLT ISZERO PUSH2 0x528E JUMPI DUP1 DUP2 REVERT JUMPDEST DUP4 CALLDATALOAD PUSH1 0x1 PUSH1 0x1 PUSH1 0x40 SHL SUB DUP2 GT ISZERO PUSH2 0x52A3 JUMPI DUP2 DUP3 REVERT JUMPDEST PUSH2 0x52AF DUP7 DUP3 DUP8 ADD PUSH2 0x4F89 JUMP JUMPDEST SWAP1 SWAP8 SWAP1 SWAP7 POP PUSH1 0x20 SWAP6 SWAP1 SWAP6 ADD CALLDATALOAD SWAP5 SWAP4 POP POP POP POP JUMP JUMPDEST PUSH1 0x0 PUSH1 0x20 DUP3 DUP5 SUB SLT ISZERO PUSH2 0x52D4 JUMPI DUP1 DUP2 REVERT JUMPDEST DUP2 MLOAD PUSH2 0x2AFA DUP2 PUSH2 0x5C10 JUMP JUMPDEST PUSH1 0x0 PUSH1 0x20 DUP3 DUP5 SUB SLT ISZERO PUSH2 0x52F0 JUMPI DUP1 DUP2 REVERT JUMPDEST POP CALLDATALOAD SWAP2 SWAP1 POP JUMP JUMPDEST PUSH1 0x0 DUP1 PUSH1 0x40 DUP4 DUP6 SUB SLT ISZERO PUSH2 0x5309 JUMPI DUP2 DUP3 REVERT JUMPDEST DUP3 CALLDATALOAD SWAP2 POP PUSH1 0x20 DUP4 ADD CALLDATALOAD PUSH2 0x5053 DUP2 PUSH2 0x5BFB JUMP JUMPDEST PUSH1 0x0 PUSH1 0x20 DUP3 DUP5 SUB SLT ISZERO PUSH2 0x532C JUMPI DUP1 DUP2 REVERT JUMPDEST DUP2 CALLDATALOAD PUSH2 0x2AFA DUP2 PUSH2 0x5C1E JUMP JUMPDEST PUSH1 0x0 PUSH1 0x20 DUP3 DUP5 SUB SLT ISZERO PUSH2 0x5348 JUMPI DUP1 DUP2 REVERT JUMPDEST DUP2 MLOAD PUSH2 0x2AFA DUP2 PUSH2 0x5C1E JUMP JUMPDEST PUSH1 0x0 PUSH1 0x20 DUP3 DUP5 SUB SLT ISZERO PUSH2 0x5364 JUMPI DUP1 DUP2 REVERT JUMPDEST POP MLOAD SWAP2 SWAP1 POP JUMP JUMPDEST PUSH1 0x0 DUP1 PUSH1 0x0 DUP1 PUSH1 0x80 DUP6 DUP8 SUB SLT ISZERO PUSH2 0x5380 JUMPI DUP2 DUP3 REVERT JUMPDEST DUP5 CALLDATALOAD SWAP4 POP PUSH1 0x20 DUP6 ADD CALLDATALOAD PUSH2 0x5392 DUP2 PUSH2 0x5BFB JUMP JUMPDEST SWAP3 POP PUSH1 0x40 DUP6 ADD CALLDATALOAD PUSH1 0x1 PUSH1 0x1 PUSH1 0x40 SHL SUB DUP2 GT ISZERO PUSH2 0x53AC JUMPI DUP3 DUP4 REVERT JUMPDEST DUP6 ADD PUSH1 0x1F DUP2 ADD DUP8 SGT PUSH2 0x53BC JUMPI DUP3 DUP4 REVERT JUMPDEST PUSH2 0x53CB DUP8 DUP3 CALLDATALOAD PUSH1 0x20 DUP5 ADD PUSH2 0x4F14 JUMP JUMPDEST SWAP3 POP POP PUSH1 0x60 DUP6 ADD CALLDATALOAD PUSH1 0x2 DUP2 LT PUSH2 0x53DF JUMPI DUP2 DUP3 REVERT JUMPDEST SWAP4 SWAP7 SWAP3 SWAP6 POP SWAP1 SWAP4 POP POP JUMP JUMPDEST PUSH1 0x0 DUP1 PUSH1 0x0 PUSH1 0x40 DUP5 DUP7 SUB SLT ISZERO PUSH2 0x53FE JUMPI DUP1 DUP2 REVERT JUMPDEST DUP4 CALLDATALOAD SWAP3 POP PUSH1 0x20 DUP5 ADD CALLDATALOAD PUSH1 0x1 PUSH1 0x1 PUSH1 0x40 SHL SUB DUP2 GT ISZERO PUSH2 0x541A JUMPI DUP2 DUP3 REVERT JUMPDEST PUSH2 0x5426 DUP7 DUP3 DUP8 ADD PUSH2 0x4F89 JUMP JUMPDEST SWAP5 SWAP8 SWAP1 SWAP7 POP SWAP4 SWAP5 POP POP POP POP JUMP JUMPDEST PUSH1 0x0 DUP1 PUSH1 0x40 DUP4 DUP6 SUB SLT ISZERO PUSH2 0x5445 JUMPI DUP2 DUP3 REVERT JUMPDEST POP POP DUP1 CALLDATALOAD SWAP3 PUSH1 0x20 SWAP1 SWAP2 ADD CALLDATALOAD SWAP2 POP JUMP JUMPDEST PUSH1 0x0 DUP1 PUSH1 0x0 PUSH1 0x60 DUP5 DUP7 SUB SLT ISZERO PUSH2 0x5468 JUMPI DUP1 DUP2 REVERT JUMPDEST DUP4 MLOAD SWAP3 POP PUSH1 0x20 DUP5 ADD MLOAD SWAP2 POP PUSH1 0x40 DUP5 ADD MLOAD SWAP1 POP SWAP3 POP SWAP3 POP SWAP3 JUMP JUMPDEST PUSH1 0x0 DUP1 PUSH1 0x0 DUP1 PUSH1 0x80 DUP6 DUP8 SUB SLT ISZERO PUSH2 0x5496 JUMPI DUP2 DUP3 REVERT JUMPDEST DUP5 CALLDATALOAD SWAP4 POP PUSH1 0x20 DUP6 ADD CALLDATALOAD SWAP3 POP PUSH1 0x40 DUP6 ADD CALLDATALOAD SWAP2 POP PUSH1 0x60 DUP6 ADD CALLDATALOAD PUSH1 0x3 DUP2 LT PUSH2 0x53DF JUMPI DUP2 DUP3 REVERT JUMPDEST PUSH1 0x0 DUP1 PUSH1 0x0 DUP1 PUSH1 0x0 PUSH1 0xA0 DUP7 DUP9 SUB SLT ISZERO PUSH2 0x54D0 JUMPI DUP3 DUP4 REVERT JUMPDEST PUSH2 0x54D9 DUP7 PUSH2 0x4FD2 JUMP JUMPDEST SWAP5 POP PUSH1 0x20 DUP7 ADD MLOAD SWAP4 POP PUSH1 0x40 DUP7 ADD MLOAD SWAP3 POP PUSH1 0x60 DUP7 ADD MLOAD SWAP2 POP PUSH2 0x54FC PUSH1 0x80 DUP8 ADD PUSH2 0x4FD2 JUMP JUMPDEST SWAP1 POP SWAP3 SWAP6 POP SWAP3 SWAP6 SWAP1 SWAP4 POP JUMP JUMPDEST PUSH1 0x0 PUSH1 0x20 DUP3 DUP5 SUB SLT ISZERO PUSH2 0x5519 JUMPI DUP1 DUP2 REVERT JUMPDEST DUP2 MLOAD PUSH1 0xFF DUP2 AND DUP2 EQ PUSH2 0x2AFA JUMPI DUP2 DUP3 REVERT JUMPDEST PUSH1 0x0 DUP2 MLOAD DUP1 DUP5 MSTORE PUSH2 0x5541 DUP2 PUSH1 0x20 DUP7 ADD PUSH1 0x20 DUP7 ADD PUSH2 0x5AFC JUMP JUMPDEST PUSH1 0x1F ADD PUSH1 0x1F NOT AND SWAP3 SWAP1 SWAP3 ADD PUSH1 0x20 ADD SWAP3 SWAP2 POP POP JUMP JUMPDEST PUSH1 0x3 DUP2 LT PUSH2 0x5565 JUMPI PUSH2 0x5565 PUSH2 0x5BCF JUMP JUMPDEST SWAP1 MSTORE JUMP JUMPDEST PUSH1 0x0 DUP4 MLOAD PUSH2 0x557B DUP2 DUP5 PUSH1 0x20 DUP9 ADD PUSH2 0x5AFC JUMP JUMPDEST DUP4 MLOAD SWAP1 DUP4 ADD SWAP1 PUSH2 0x558F DUP2 DUP4 PUSH1 0x20 DUP9 ADD PUSH2 0x5AFC JUMP JUMPDEST ADD SWAP5 SWAP4 POP POP POP POP JUMP JUMPDEST PUSH23 0x20B1B1B2B9B9A1B7B73A3937B61D1030B1B1B7BAB73A1 PUSH1 0x4D SHL DUP2 MSTORE PUSH1 0x0 DUP4 MLOAD PUSH2 0x55CA DUP2 PUSH1 0x17 DUP6 ADD PUSH1 0x20 DUP9 ADD PUSH2 0x5AFC JUMP JUMPDEST PUSH17 0x1034B99036B4B9B9B4B733903937B6329 PUSH1 0x7D SHL PUSH1 0x17 SWAP2 DUP5 ADD SWAP2 DUP3 ADD MSTORE DUP4 MLOAD PUSH2 0x55FB DUP2 PUSH1 0x28 DUP5 ADD PUSH1 0x20 DUP9 ADD PUSH2 0x5AFC JUMP JUMPDEST ADD PUSH1 0x28 ADD SWAP5 SWAP4 POP POP POP POP JUMP JUMPDEST PUSH1 0x1 PUSH1 0x1 PUSH1 0xA0 SHL SUB SWAP2 SWAP1 SWAP2 AND DUP2 MSTORE PUSH1 0x20 ADD SWAP1 JUMP JUMPDEST PUSH1 0x1 PUSH1 0x1 PUSH1 0xA0 SHL SUB SWAP4 DUP5 AND DUP2 MSTORE SWAP2 SWAP1 SWAP3 AND PUSH1 0x20 DUP3 ADD MSTORE PUSH1 0x40 DUP2 ADD SWAP2 SWAP1 SWAP2 MSTORE PUSH1 0x60 ADD SWAP1 JUMP JUMPDEST PUSH1 0x1 PUSH1 0x1 PUSH1 0xA0 SHL SUB DUP6 DUP2 AND DUP3 MSTORE DUP5 AND PUSH1 0x20 DUP3 ADD MSTORE PUSH1 0x40 DUP2 ADD DUP4 SWAP1 MSTORE PUSH1 0x80 PUSH1 0x60 DUP3 ADD DUP2 SWAP1 MSTORE PUSH1 0x0 SWAP1 PUSH2 0x5672 SWAP1 DUP4 ADD DUP5 PUSH2 0x5529 JUMP JUMPDEST SWAP7 SWAP6 POP POP POP POP POP POP JUMP JUMPDEST PUSH1 0x1 PUSH1 0x1 PUSH1 0xA0 SHL SUB SWAP3 SWAP1 SWAP3 AND DUP3 MSTORE PUSH1 0x20 DUP3 ADD MSTORE PUSH1 0x40 ADD SWAP1 JUMP JUMPDEST PUSH1 0x20 DUP1 DUP3 MSTORE DUP3 MLOAD DUP3 DUP3 ADD DUP2 SWAP1 MSTORE PUSH1 0x0 SWAP2 SWAP1 DUP5 DUP3 ADD SWAP1 PUSH1 0x40 DUP6 ADD SWAP1 DUP5 JUMPDEST DUP2 DUP2 LT ISZERO PUSH2 0x56CD JUMPI DUP4 MLOAD DUP4 MSTORE SWAP3 DUP5 ADD SWAP3 SWAP2 DUP5 ADD SWAP2 PUSH1 0x1 ADD PUSH2 0x56B1 JUMP JUMPDEST POP SWAP1 SWAP7 SWAP6 POP POP POP POP POP POP JUMP JUMPDEST PUSH1 0x20 DUP2 ADD PUSH2 0x803 DUP3 DUP5 PUSH2 0x5555 JUMP JUMPDEST PUSH1 0xE0 DUP2 ADD PUSH1 0x4 DUP10 LT PUSH2 0x56FB JUMPI PUSH2 0x56FB PUSH2 0x5BCF JUMP JUMPDEST DUP9 DUP3 MSTORE DUP8 PUSH1 0x20 DUP4 ADD MSTORE DUP7 PUSH1 0x40 DUP4 ADD MSTORE DUP6 PUSH1 0x60 DUP4 ADD MSTORE DUP5 PUSH1 0x80 DUP4 ADD MSTORE DUP4 PUSH1 0xA0 DUP4 ADD MSTORE PUSH2 0x5729 PUSH1 0xC0 DUP4 ADD DUP5 PUSH2 0x5555 JUMP JUMPDEST SWAP9 SWAP8 POP POP POP POP POP POP POP POP JUMP JUMPDEST SWAP2 DUP3 MSTORE PUSH1 0x20 DUP3 ADD MSTORE PUSH1 0x40 ADD SWAP1 JUMP JUMPDEST PUSH1 0x20 DUP2 MSTORE PUSH1 0x0 PUSH2 0x2AFA PUSH1 0x20 DUP4 ADD DUP5 PUSH2 0x5529 JUMP JUMPDEST PUSH1 0x20 DUP1 DUP3 MSTORE PUSH1 0x2 SWAP1 DUP3 ADD MSTORE PUSH2 0x4F39 PUSH1 0xF0 SHL PUSH1 0x40 DUP3 ADD MSTORE PUSH1 0x60 ADD SWAP1 JUMP JUMPDEST PUSH1 0x20 DUP1 DUP3 MSTORE PUSH1 0x32 SWAP1 DUP3 ADD MSTORE PUSH32 0x4552433732313A207472616E7366657220746F206E6F6E204552433732315265 PUSH1 0x40 DUP3 ADD MSTORE PUSH18 0x31B2B4BB32B91034B6B83632B6B2B73A32B9 PUSH1 0x71 SHL PUSH1 0x60 DUP3 ADD MSTORE PUSH1 0x80 ADD SWAP1 JUMP JUMPDEST PUSH1 0x20 DUP1 DUP3 MSTORE PUSH1 0x3 SWAP1 DUP3 ADD MSTORE PUSH3 0x4F323 PUSH1 0xEC SHL PUSH1 0x40 DUP3 ADD MSTORE PUSH1 0x60 ADD SWAP1 JUMP JUMPDEST PUSH1 0x20 DUP1 DUP3 MSTORE PUSH1 0x2 SWAP1 DUP3 ADD MSTORE PUSH2 0x4F33 PUSH1 0xF0 SHL PUSH1 0x40 DUP3 ADD MSTORE PUSH1 0x60 ADD SWAP1 JUMP JUMPDEST PUSH1 0x20 DUP1 DUP3 MSTORE PUSH1 0x2 SWAP1 DUP3 ADD MSTORE PUSH2 0x4E37 PUSH1 0xF0 SHL PUSH1 0x40 DUP3 ADD MSTORE PUSH1 0x60 ADD SWAP1 JUMP JUMPDEST PUSH1 0x20 DUP1 DUP3 MSTORE DUP2 DUP2 ADD MSTORE PUSH32 0x4F776E61626C653A2063616C6C6572206973206E6F7420746865206F776E6572 PUSH1 0x40 DUP3 ADD MSTORE PUSH1 0x60 ADD SWAP1 JUMP JUMPDEST PUSH1 0x20 DUP1 DUP3 MSTORE PUSH1 0x31 SWAP1 DUP3 ADD MSTORE PUSH32 0x4552433732313A207472616E736665722063616C6C6572206973206E6F74206F PUSH1 0x40 DUP3 ADD MSTORE PUSH17 0x1DDB995C881B9BDC88185C1C1C9BDD9959 PUSH1 0x7A SHL PUSH1 0x60 DUP3 ADD MSTORE PUSH1 0x80 ADD SWAP1 JUMP JUMPDEST PUSH1 0x20 DUP1 DUP3 MSTORE PUSH1 0x2 SWAP1 DUP3 ADD MSTORE PUSH2 0x4F31 PUSH1 0xF0 SHL PUSH1 0x40 DUP3 ADD MSTORE PUSH1 0x60 ADD SWAP1 JUMP JUMPDEST PUSH1 0x20 DUP1 DUP3 MSTORE PUSH1 0x2 SWAP1 DUP3 ADD MSTORE PUSH2 0x13CD PUSH1 0xF2 SHL PUSH1 0x40 DUP3 ADD MSTORE PUSH1 0x60 ADD SWAP1 JUMP JUMPDEST DUP5 DUP2 MSTORE PUSH1 0x20 DUP2 ADD DUP5 SWAP1 MSTORE PUSH1 0x80 DUP2 ADD PUSH2 0x58F2 PUSH1 0x40 DUP4 ADD DUP6 PUSH2 0x5555 JUMP JUMPDEST DUP3 ISZERO ISZERO PUSH1 0x60 DUP4 ADD MSTORE SWAP6 SWAP5 POP POP POP POP POP JUMP JUMPDEST DUP5 DUP2 MSTORE PUSH1 0x20 DUP2 ADD DUP5 SWAP1 MSTORE PUSH1 0x80 DUP2 ADD PUSH2 0x591E PUSH1 0x40 DUP4 ADD DUP6 PUSH2 0x5555 JUMP JUMPDEST DUP3 PUSH1 0x60 DUP4 ADD MSTORE SWAP6 SWAP5 POP POP POP POP POP JUMP JUMPDEST DUP4 DUP2 MSTORE DUP3 PUSH1 0x20 DUP3 ADD MSTORE PUSH1 0x60 PUSH1 0x40 DUP3 ADD MSTORE PUSH1 0x0 PUSH2 0x3BFC PUSH1 0x60 DUP4 ADD DUP5 PUSH2 0x5529 JUMP JUMPDEST SWAP3 DUP4 MSTORE PUSH1 0x20 DUP4 ADD SWAP2 SWAP1 SWAP2 MSTORE PUSH1 0x40 DUP3 ADD MSTORE PUSH1 0x60 ADD SWAP1 JUMP JUMPDEST DUP8 DUP2 MSTORE PUSH1 0x20 DUP2 ADD DUP8 SWAP1 MSTORE PUSH1 0x40 DUP2 ADD DUP7 SWAP1 MSTORE PUSH1 0xE0 DUP2 ADD PUSH2 0x5984 PUSH1 0x60 DUP4 ADD DUP8 PUSH2 0x5555 JUMP JUMPDEST PUSH1 0x80 DUP3 ADD SWAP5 SWAP1 SWAP5 MSTORE PUSH1 0x1 PUSH1 0x1 PUSH1 0xA0 SHL SUB SWAP3 DUP4 AND PUSH1 0xA0 DUP3 ADD MSTORE SWAP2 AND PUSH1 0xC0 SWAP1 SWAP2 ADD MSTORE SWAP5 SWAP4 POP POP POP POP JUMP JUMPDEST PUSH1 0x0 DUP3 NOT DUP3 GT ISZERO PUSH2 0x59BF JUMPI PUSH2 0x59BF PUSH2 0x5BA3 JUMP JUMPDEST POP ADD SWAP1 JUMP JUMPDEST PUSH1 0x0 DUP3 PUSH2 0x59D3 JUMPI PUSH2 0x59D3 PUSH2 0x5BB9 JUMP JUMPDEST POP DIV SWAP1 JUMP JUMPDEST PUSH1 0x1 DUP2 DUP2 JUMPDEST DUP1 DUP6 GT ISZERO PUSH2 0x5A13 JUMPI DUP2 PUSH1 0x0 NOT DIV DUP3 GT ISZERO PUSH2 0x59F9 JUMPI PUSH2 0x59F9 PUSH2 0x5BA3 JUMP JUMPDEST DUP1 DUP6 AND ISZERO PUSH2 0x5A06 JUMPI SWAP2 DUP2 MUL SWAP2 JUMPDEST SWAP4 DUP5 SHR SWAP4 SWAP1 DUP1 MUL SWAP1 PUSH2 0x59DD JUMP JUMPDEST POP SWAP3 POP SWAP3 SWAP1 POP JUMP JUMPDEST PUSH1 0x0 PUSH2 0x2AFA PUSH1 0xFF DUP5 AND DUP4 PUSH1 0x0 DUP3 PUSH2 0x5A34 JUMPI POP PUSH1 0x1 PUSH2 0x803 JUMP JUMPDEST DUP2 PUSH2 0x5A41 JUMPI POP PUSH1 0x0 PUSH2 0x803 JUMP JUMPDEST DUP2 PUSH1 0x1 DUP2 EQ PUSH2 0x5A57 JUMPI PUSH1 0x2 DUP2 EQ PUSH2 0x5A61 JUMPI PUSH2 0x5A7D JUMP JUMPDEST PUSH1 0x1 SWAP2 POP POP PUSH2 0x803 JUMP JUMPDEST PUSH1 0xFF DUP5 GT ISZERO PUSH2 0x5A72 JUMPI PUSH2 0x5A72 PUSH2 0x5BA3 JUMP JUMPDEST POP POP PUSH1 0x1 DUP3 SHL PUSH2 0x803 JUMP JUMPDEST POP PUSH1 0x20 DUP4 LT PUSH2 0x133 DUP4 LT AND PUSH1 0x4E DUP5 LT PUSH1 0xB DUP5 LT AND OR ISZERO PUSH2 0x5AA0 JUMPI POP DUP2 DUP2 EXP PUSH2 0x803 JUMP JUMPDEST PUSH2 0x5AAA DUP4 DUP4 PUSH2 0x59D8 JUMP JUMPDEST DUP1 PUSH1 0x0 NOT DIV DUP3 GT ISZERO PUSH2 0x5ABE JUMPI PUSH2 0x5ABE PUSH2 0x5BA3 JUMP JUMPDEST MUL SWAP4 SWAP3 POP POP POP JUMP JUMPDEST PUSH1 0x0 DUP2 PUSH1 0x0 NOT DIV DUP4 GT DUP3 ISZERO ISZERO AND ISZERO PUSH2 0x5AE0 JUMPI PUSH2 0x5AE0 PUSH2 0x5BA3 JUMP JUMPDEST POP MUL SWAP1 JUMP JUMPDEST PUSH1 0x0 DUP3 DUP3 LT ISZERO PUSH2 0x5AF7 JUMPI PUSH2 0x5AF7 PUSH2 0x5BA3 JUMP JUMPDEST POP SUB SWAP1 JUMP JUMPDEST PUSH1 0x0 JUMPDEST DUP4 DUP2 LT ISZERO PUSH2 0x5B17 JUMPI DUP2 DUP2 ADD MLOAD DUP4 DUP3 ADD MSTORE PUSH1 0x20 ADD PUSH2 0x5AFF JUMP JUMPDEST DUP4 DUP2 GT ISZERO PUSH2 0x1A72 JUMPI POP POP PUSH1 0x0 SWAP2 ADD MSTORE JUMP JUMPDEST PUSH1 0x0 DUP2 PUSH2 0x5B37 JUMPI PUSH2 0x5B37 PUSH2 0x5BA3 JUMP JUMPDEST POP PUSH1 0x0 NOT ADD SWAP1 JUMP JUMPDEST PUSH1 0x1 DUP2 DUP2 SHR SWAP1 DUP3 AND DUP1 PUSH2 0x5B53 JUMPI PUSH1 0x7F DUP3 AND SWAP2 POP JUMPDEST PUSH1 0x20 DUP3 LT DUP2 EQ ISZERO PUSH2 0x8DA JUMPI PUSH4 0x4E487B71 PUSH1 0xE0 SHL PUSH1 0x0 MSTORE PUSH1 0x22 PUSH1 0x4 MSTORE PUSH1 0x24 PUSH1 0x0 REVERT JUMPDEST PUSH1 0x0 PUSH1 0x0 NOT DUP3 EQ ISZERO PUSH2 0x5B88 JUMPI PUSH2 0x5B88 PUSH2 0x5BA3 JUMP JUMPDEST POP PUSH1 0x1 ADD SWAP1 JUMP JUMPDEST PUSH1 0x0 DUP3 PUSH2 0x5B9E JUMPI PUSH2 0x5B9E PUSH2 0x5BB9 JUMP JUMPDEST POP MOD SWAP1 JUMP JUMPDEST PUSH4 0x4E487B71 PUSH1 0xE0 SHL PUSH1 0x0 MSTORE PUSH1 0x11 PUSH1 0x4 MSTORE PUSH1 0x24 PUSH1 0x0 REVERT JUMPDEST PUSH4 0x4E487B71 PUSH1 0xE0 SHL PUSH1 0x0 MSTORE PUSH1 0x12 PUSH1 0x4 MSTORE PUSH1 0x24 PUSH1 0x0 REVERT JUMPDEST PUSH4 0x4E487B71 PUSH1 0xE0 SHL PUSH1 0x0 MSTORE PUSH1 0x21 PUSH1 0x4 MSTORE PUSH1 0x24 PUSH1 0x0 REVERT JUMPDEST PUSH4 0x4E487B71 PUSH1 0xE0 SHL PUSH1 0x0 MSTORE PUSH1 0x41 PUSH1 0x4 MSTORE PUSH1 0x24 PUSH1 0x0 REVERT JUMPDEST PUSH1 0x1 PUSH1 0x1 PUSH1 0xA0 SHL SUB DUP2 AND DUP2 EQ PUSH2 0x155E JUMPI PUSH1 0x0 DUP1 REVERT JUMPDEST DUP1 ISZERO ISZERO DUP2 EQ PUSH2 0x155E JUMPI PUSH1 0x0 DUP1 REVERT JUMPDEST PUSH1 0x1 PUSH1 0x1 PUSH1 0xE0 SHL SUB NOT DUP2 AND DUP2 EQ PUSH2 0x155E JUMPI PUSH1 0x0 DUP1 REVERT INVALID PUSH9 0x747470733A2F2F6761 PUSH21 0x657761792E70696E6174612E636C6F75642F697066 PUSH20 0x2FDDF252AD1BE2C89B69C2B068FC378DAA952BA7 CALL PUSH4 0xC4A11628 CREATE2 GAS 0x4D CREATE2 0x23 0xB3 0xEF DUP3 GASPRICE CALLVALUE RETURNDATASIZE SHR DUP10 SWAP15 PUSH2 0xA4DB SLT 0x24 PUSH23 0x36A6882BF1FEFAE78BEF39170F8D0F5B53E456A2646970 PUSH7 0x7358221220F653 PC 0x5C CALL 0x5C PUSH7 0x86F609EF7DB9E5 PUSH13 0xE540B3D0FD297030950B14071D GASPRICE 0x4A 0xD1 0xE0 PUSH5 0x736F6C6343 STOP ADDMOD DIV STOP CALLER ",
  "sha1": "54d4cda22ac7029f28e7245c2375edfc1165793c",
  "source": "pragma solidity ^0.8.0;\n\n// SPDX-License-Identifier: BUSL-1.1\n\nimport \"@openzeppelin/contracts/access/Ownable.sol\";\nimport \"@openzeppelin/contracts/security/ReentrancyGuard.sol\";\nimport \"@openzeppelin/contracts/token/ERC20/ERC20.sol\";\nimport \"./OptionConfig.sol\";\nimport \"./BufferNFTCore.sol\";\nimport \"../Pool/BufferIBFRPoolV2.sol\";\nimport \"../Libraries/OptionFeeCalculator.sol\";\n\n/**\n * @author Heisenberg\n * @title Buffer TokenX Bidirectional (Call and Put) Options\n * @notice Buffer TokenX Options Contract\n */\ncontract BufferEuropeanUSDCTokenXOptions is\n    IBufferOptions,\n    Ownable,\n    ReentrancyGuard,\n    BufferNFTCore\n{\n    ERC20 public USDC;\n    ERC20 public tokenX;\n    mapping(uint256 => string) private _tokenURIs;\n    IPriceProvider public priceProvider;\n    OptionType public fixedOptionType = OptionType.Call;\n    uint256 public nextTokenId = 0;\n    mapping(uint256 => Option) public options;\n    mapping(uint256 => uint256) public expiryToRoundID;\n    BufferIBFRPoolV2 public pool;\n    OptionConfig public config;\n    mapping(uint256 => SlotDetail) public slotDetails;\n    uint256 internal contractCreationTimestamp;\n\n    bytes32 public constant AUTO_CLOSER_ROLE = keccak256(\"AUTO_CLOSER_ROLE\");\n\n    uint256 public constant minimumYield = 5;\n\n    constructor(\n        ERC20 _tokenX,\n        IPriceProvider pp,\n        BufferIBFRPoolV2 _pool,\n        OptionConfig _config,\n        ERC20 _USDC\n    ) {\n        tokenX = _tokenX;\n        pool = _pool;\n        contractCreationTimestamp = block.timestamp;\n        config = _config;\n        USDC = _USDC;\n        priceProvider = pp;\n        _setupRole(DEFAULT_ADMIN_ROLE, msg.sender);\n    }\n\n    /**\n     * @notice Call this to set the max approval for tokenX transfers from the options to pool\n     */\n    function approvePoolToTransferTokenX() public {\n        tokenX.approve(address(pool), ~uint256(0));\n    }\n\n    /************************************************\n     *  OPTIONS CORE\n     ***********************************************/\n    /**\n     * @notice Creates a new option\n     * @param amount Option amount in tokenX\n     * @param referrer Referrer address\n     * @param metadata Option metadata\n     * @param _paymentMethod Option payment method for buying\n     * @return optionID Created option's ID\n     */\n    function create(\n        uint256 amount,\n        address referrer,\n        string memory metadata,\n        PaymentMethod _paymentMethod\n    ) external nonReentrant returns (uint256 optionID) {\n        uint256 poolExpiration = pool.fixedExpiry();\n        require(poolExpiration > block.timestamp, \"O1\");\n        uint256 period = poolExpiration - block.timestamp;\n\n        uint256 currentPrice = priceProvider.getUsdPrice();\n\n        require(period >= 12 hours, \"O1\");\n\n        (uint256 totalFee, uint256 settlementFee, uint256 premium) = fees(\n            period,\n            amount,\n            config.fixedStrike(),\n            fixedOptionType\n        );\n\n        require(\n            totalFee * 365 days * 100 > amount * period * minimumYield,\n            \"O2\"\n        );\n\n        // User has to approve first inorder to execute this function\n        if (_paymentMethod == PaymentMethod.TokenX) {\n            bool success = tokenX.transferFrom(\n                msg.sender,\n                address(this),\n                totalFee\n            );\n            require(success, \"O3\");\n        } else {\n            require(tokenX.balanceOf(address(this)) >= totalFee, \"O15\");\n\n            bool success = USDC.transferFrom(\n                msg.sender,\n                pool.projectOwner(),\n                (((totalFee * 10**USDC.decimals()) / 10**tokenX.decimals()) *\n                    currentPrice) / 1e8\n            );\n            require(success, \"O3\");\n        }\n\n        Option memory option = Option(\n            State.Active,\n            config.fixedStrike(),\n            amount,\n            (amount * config.optionCollateralizationRatio()) / 100,\n            premium,\n            block.timestamp + period,\n            fixedOptionType\n        );\n        optionID = _generateTokenId();\n        _setOption(optionID, option);\n        _mint(\n            optionID,\n            msg.sender,\n            createSlot(\n                optionID,\n                option.strike,\n                option.expiration,\n                fixedOptionType\n            )\n        );\n        _setTokenURI(optionID, metadata);\n        uint256 stakingAmount = distributeSettlementFee(\n            settlementFee,\n            referrer\n        );\n\n        _lock(optionID, option.lockedAmount, option.premium);\n        emit Create(optionID, msg.sender, stakingAmount, totalFee, metadata);\n    }\n\n    function distributeSettlementFee(uint256 settlementFee, address referrer)\n        internal\n        returns (uint256 stakingAmount)\n    {\n        stakingAmount = ((settlementFee * config.stakingFeePercentage()) / 100);\n\n        // Incase the stakingAmount is 0\n        if (stakingAmount > 0) {\n            tokenX.transfer(config.settlementFeeRecipient(), stakingAmount);\n        }\n\n        uint256 adminFee = settlementFee - stakingAmount;\n        if (adminFee > 0) {\n            if (\n                config.referralRewardPercentage() > 0 &&\n                referrer != owner() &&\n                referrer != msg.sender\n            ) {\n                uint256 referralReward = (adminFee *\n                    config.referralRewardPercentage()) / 100;\n                adminFee = adminFee - referralReward;\n                tokenX.transfer(referrer, referralReward);\n                emit PayReferralFee(referrer, referralReward);\n            }\n            tokenX.transfer(owner(), adminFee);\n            emit PayAdminFee(owner(), adminFee);\n        }\n    }\n\n    function _modifyOption(\n        uint256 optionID,\n        Option memory option,\n        uint256 lockedAmount,\n        uint256 amount,\n        uint256 premium\n    ) internal returns (Option memory modifiedOption) {\n        option.lockedAmount = lockedAmount;\n        option.amount = amount;\n        option.premium = premium;\n        modifiedOption = option;\n        _setOption(optionID, option);\n    }\n\n    function _lock(\n        uint256 id,\n        uint256 lockedAmount,\n        uint256 premium\n    ) internal {\n        pool.lock(id, lockedAmount, premium);\n    }\n\n    /**\n     * @notice Sets the expiry price in the oracle\n     * @dev a roundId must be provided to confirm price validity,\n     * which is the first Chainlink price provided after the expiryTimestamp\n     * @param roundId the first roundId after expiryTimestamp\n     */\n    function setRoundIDForExpiry(uint256 roundId)\n        external\n        returns (bool isCorrectRoundId)\n    {\n        (, uint256 price, , uint256 roundTimestamp, ) = priceProvider\n            .getRoundData(roundId);\n        uint256 expiryTimestamp = pool.fixedExpiry();\n        require(expiryTimestamp < roundTimestamp, \"C1\");\n        require(price >= 0, \"C2\");\n        uint256 previousRoundId = roundId - 1;\n        while (!isCorrectRoundId) {\n            (, , , uint256 previousRoundTimestamp, ) = priceProvider\n                .getRoundData(previousRoundId);\n            if (previousRoundTimestamp == 0) {\n                require(previousRoundId > 0, \"C3\");\n                previousRoundId = previousRoundId - 1;\n            } else if (previousRoundTimestamp > expiryTimestamp) {\n                revert(\"C4\");\n            } else {\n                isCorrectRoundId = true;\n                expiryToRoundID[expiryTimestamp] = previousRoundId;\n            }\n        }\n    }\n\n    /**\n     * @notice Unlocks the locked funds if the option was\n     * OTM at the time of expiry otherwise exercises it\n     * @param optionID ID of the option\n     */\n    function unlock(uint256 optionID) public {\n        Option storage option = options[optionID];\n        require(option.expiration <= block.timestamp, \"O4\");\n        require(option.state == State.Active, \"O5\");\n        uint256 roundID = expiryToRoundID[option.expiration];\n        require(roundID > 0, \"O20\");\n        (, uint256 priceAtExpiration, , , ) = priceProvider.getRoundData(\n            roundID\n        );\n        if (\n            (option.optionType == OptionType.Call &&\n                priceAtExpiration >= option.strike) ||\n            (option.optionType == OptionType.Put &&\n                priceAtExpiration <= option.strike)\n        ) {\n            exercise(optionID);\n        } else {\n            option.state = State.Expired;\n            pool.unlock(optionID);\n            burnToken(optionID);\n            emit Expire(optionID, option.premium);\n        }\n    }\n\n    /**\n     * @notice Unlocks an array of options\n     * @param optionIDs array of options\n     */\n    function unlockAll(uint256[] calldata optionIDs) external {\n        uint256 arrayLength = optionIDs.length;\n        for (uint256 i = 0; i < arrayLength; i++) {\n            unlock(optionIDs[i]);\n        }\n    }\n\n    /**\n     * @notice Exercises an option if it was\n     * ITM at the time of expiry\n     * @param optionID ID of your option\n     */\n    function exercise(uint256 optionID) public returns (uint256 profit) {\n        require(exists(optionID), \"O10\");\n\n        Option storage option = options[optionID];\n\n        require(option.expiration <= block.timestamp, \"O4\");\n        require(option.state == State.Active, \"O14\");\n        uint256 roundID = expiryToRoundID[option.expiration];\n        require(roundID > 0, \"O20\");\n        (, uint256 priceAtExpiration, , , ) = priceProvider.getRoundData(\n            roundID\n        );\n\n        if (option.optionType == OptionType.Call) {\n            require(option.strike <= priceAtExpiration, \"O17\");\n            profit =\n                ((priceAtExpiration - option.strike) * option.amount) /\n                priceAtExpiration;\n        } else {\n            require(option.strike >= priceAtExpiration, \"O18\");\n            profit =\n                ((option.strike - priceAtExpiration) * option.amount) /\n                priceAtExpiration;\n        }\n        if (profit > option.lockedAmount) profit = option.lockedAmount;\n        pool.send(optionID, ownerOf(optionID), profit);\n        // Burn the option\n        burnToken(optionID);\n        option.state = State.Exercised;\n        emit Exercise(optionID, profit);\n    }\n\n    /**\n     * @notice Sends all the tokenX in the contract\n     * back to the project owner\n     */\n    function withdrawFunds() external onlyOwner {\n        uint256 tokenBalance = tokenX.balanceOf(address(this));\n        if (tokenBalance > 0) {\n            tokenX.transfer(pool.projectOwner(), tokenBalance);\n        }\n    }\n\n    /**\n     * @notice Used for getting the option's price using blackscholes\n     * @param period Option period in seconds\n     * @param amount Option amount\n     * @param strike Strike price of the option\n     * @param optionType call/put\n     * @return total Total price to be paid\n     * @return settlementFee Amount to be distributed to the Buffer token holders\n     * @return premium Amount that covers the price difference in the ITM options\n     */\n    function fees(\n        uint256 period,\n        uint256 amount,\n        uint256 strike,\n        OptionType optionType\n    )\n        public\n        view\n        returns (\n            uint256 total,\n            uint256 settlementFee,\n            uint256 premium\n        )\n    {\n        uint256 currentPrice = priceProvider.getUsdPrice();\n\n        (total, settlementFee, premium) = FeeCalculator.fees(\n            period,\n            amount,\n            strike,\n            optionType,\n            currentPrice,\n            config,\n            pool\n        );\n    }\n\n    function _generateTokenId() internal returns (uint256) {\n        return nextTokenId++;\n    }\n\n    function _getOption(uint256 optionID)\n        internal\n        view\n        returns (Option memory)\n    {\n        return options[optionID];\n    }\n\n    function _setOption(uint256 optionID, Option memory option) internal {\n        options[optionID] = option;\n    }\n\n    function burn(uint256 tokenId_) external {\n        require(msg.sender == ownerOf(tokenId_), \"O9\");\n        burnToken(tokenId_);\n    }\n\n    /************************************************\n     *  ERC3525 Functions\n     ***********************************************/\n\n    /**\n     * @notice Splits the option\n     * @param optionID OptionId to be splitted\n     * @param splitUnits_ Units to be splitted into\n     * @return newOptionIDs An array of the splitted options\n     */\n    function split(uint256 optionID, uint256[] calldata splitUnits_)\n        external\n        returns (uint256[] memory newOptionIDs)\n    {\n        require(splitUnits_.length > 0, \"N1\");\n        newOptionIDs = new uint256[](splitUnits_.length);\n        Option memory option = _getOption(optionID);\n        uint256 totalUnits = unitsInToken(optionID);\n        uint256 totalChildAmount;\n        uint256 totalChildLockedAmount;\n        uint256 totalChildPremium;\n        // Create child options\n        for (uint256 i = 0; i < splitUnits_.length; i++) {\n            uint256 newOptionID = _generateTokenId();\n            newOptionIDs[i] = newOptionID;\n\n            _split(optionID, newOptionID, splitUnits_[i]);\n\n            uint256 childAmount = (option.amount * splitUnits_[i]) / totalUnits;\n            totalChildAmount += childAmount;\n\n            uint256 childLockedAmount = (option.lockedAmount * splitUnits_[i]) /\n                totalUnits;\n            totalChildLockedAmount += childLockedAmount;\n\n            uint256 childPremium = (option.premium * splitUnits_[i]) /\n                totalUnits;\n            totalChildPremium += childPremium;\n\n            Option memory newOption = Option(\n                option.state,\n                option.strike,\n                childAmount,\n                childLockedAmount,\n                childPremium,\n                option.expiration,\n                option.optionType\n            );\n            _setOption(newOptionID, newOption);\n        }\n        // Modify the parent option once all child options are created\n        option = _modifyOption(\n            optionID,\n            option,\n            option.lockedAmount - totalChildLockedAmount,\n            option.amount - totalChildAmount,\n            option.premium - totalChildPremium\n        );\n        pool.changeLock(optionID, option.lockedAmount, option.premium);\n\n        // Lock the amount in the pool for the child options\n        for (uint256 i = 0; i < splitUnits_.length; i++) {\n            Option memory newOption = _getOption(newOptionIDs[i]);\n            _lock(newOptionIDs[i], newOption.lockedAmount, newOption.premium);\n        }\n    }\n\n    /**\n     * @notice Merges the options\n     * @param optionIDs An array of the optionsIds to be merged\n     * @param targetOptionID OptionId to be merged into\n     */\n    function merge(uint256[] calldata optionIDs, uint256 targetOptionID)\n        external\n    {\n        require(optionIDs.length > 0, \"N4\");\n        Option memory targetOption = _getOption(targetOptionID);\n\n        uint256 totalLockedAmount = targetOption.lockedAmount;\n        uint256 totalAmount = targetOption.amount;\n        uint256 totalPremium = targetOption.premium;\n\n        for (uint256 i = 0; i < optionIDs.length; i++) {\n            Option memory option = _getOption(optionIDs[i]);\n            totalLockedAmount = totalLockedAmount + option.lockedAmount;\n            totalAmount = totalAmount + option.amount;\n            totalPremium = totalPremium + option.premium;\n            pool.unlockWithoutProfit(optionIDs[i]);\n            _merge(optionIDs[i], targetOptionID);\n        }\n        _modifyOption(\n            targetOptionID,\n            targetOption,\n            totalLockedAmount,\n            totalAmount,\n            totalPremium\n        );\n        pool.changeLock(targetOptionID, totalLockedAmount, totalPremium);\n    }\n\n    /**\n     * @notice Transfer part of units of a option to another option.\n     * @param optionID Id of the option to transfer\n     * @param transferUnits_ Amount of units to transfer\n     */\n    function _beforeTransferFrom(uint256 optionID, uint256 transferUnits_)\n        internal\n        returns (\n            uint256 newAmount,\n            uint256 newPremium,\n            uint256 newLockedAmount,\n            Option memory option\n        )\n    {\n        option = _getOption(optionID);\n        uint256 totalUnits = unitsInToken(optionID);\n        newAmount = (option.amount * transferUnits_) / totalUnits;\n        newPremium = (option.premium * transferUnits_) / totalUnits;\n        newLockedAmount = (option.lockedAmount * transferUnits_) / totalUnits;\n\n        option = _modifyOption(\n            optionID,\n            option,\n            option.lockedAmount - newLockedAmount,\n            option.amount - newAmount,\n            option.premium - newPremium\n        );\n        pool.changeLock(optionID, option.lockedAmount, option.premium);\n    }\n\n    /**\n     * @notice Transfer part of units of a option to target address.\n     * @param from_ Address of the option sender\n     * @param to_ Address of the option recipient\n     * @param optionID Id of the option to transfer\n     * @param transferUnits_ Amount of units to transfer\n     */\n    function transferFrom(\n        address from_,\n        address to_,\n        uint256 optionID,\n        uint256 transferUnits_\n    ) external returns (uint256 newOptionID) {\n        newOptionID = _generateTokenId();\n        (\n            uint256 newAmount,\n            uint256 newPremium,\n            uint256 newLockedAmount,\n            Option memory option\n        ) = _beforeTransferFrom(optionID, transferUnits_);\n        Option memory newOption = Option(\n            option.state,\n            option.strike,\n            newAmount,\n            newLockedAmount,\n            newPremium,\n            option.expiration,\n            option.optionType\n        );\n        _setOption(newOptionID, newOption);\n\n        _lock(newOptionID, newLockedAmount, newPremium);\n        _transferUnitsFrom(from_, to_, optionID, newOptionID, transferUnits_);\n    }\n\n    /**\n     * @notice Transfer part of units of a option to another option.\n     * @param from_ Address of the option sender\n     * @param to_ Address of the option recipient\n     * @param optionID Id of the option to transfer\n     * @param targetOptionID Id of the option to receive\n     * @param transferUnits_ Amount of units to transfer\n     */\n    function transferFrom(\n        address from_,\n        address to_,\n        uint256 optionID,\n        uint256 targetOptionID,\n        uint256 transferUnits_\n    ) external virtual {\n        require(exists(targetOptionID), \"N12\");\n        (\n            uint256 newAmount,\n            uint256 newPremium,\n            uint256 newLockedAmount,\n\n        ) = _beforeTransferFrom(optionID, transferUnits_);\n        Option memory targetOption = _getOption(targetOptionID);\n        targetOption = _modifyOption(\n            targetOptionID,\n            targetOption,\n            targetOption.lockedAmount + newLockedAmount,\n            targetOption.amount + newAmount,\n            targetOption.premium + newPremium\n        );\n\n        pool.changeLock(\n            targetOptionID,\n            targetOption.lockedAmount,\n            targetOption.premium\n        );\n        _transferUnitsFrom(\n            from_,\n            to_,\n            optionID,\n            targetOptionID,\n            transferUnits_\n        );\n    }\n\n    function createSlot(\n        uint256 optionID,\n        uint256 strike,\n        uint256 expiration,\n        OptionType optionType\n    ) internal returns (uint256 slot) {\n        slot = uint256(\n            keccak256(abi.encode(strike, expiration, optionType, optionID))\n        );\n        require(!slotDetails[slot].isValid, \"N14\");\n        slotDetails[slot] = SlotDetail(strike, expiration, optionType, true);\n    }\n}\n",
  "sourcePath": "contracts/Options/BufferEuropeanUSDCTokenXOptions.sol",
  "type": "contract"
}