{
  "abi": [
    {
      "inputs": [
        {
          "internalType": "contract ERC20",
          "name": "_tokenX",
          "type": "address"
        },
        {
          "internalType": "uint256",
          "name": "initialExpiry",
          "type": "uint256"
        }
      ],
      "stateMutability": "nonpayable",
      "type": "constructor"
    },
    {
      "anonymous": false,
      "inputs": [
        {
          "indexed": true,
          "internalType": "address",
          "name": "owner",
          "type": "address"
        },
        {
          "indexed": true,
          "internalType": "address",
          "name": "spender",
          "type": "address"
        },
        {
          "indexed": false,
          "internalType": "uint256",
          "name": "value",
          "type": "uint256"
        }
      ],
      "name": "Approval",
      "type": "event"
    },
    {
      "anonymous": false,
      "inputs": [
        {
          "indexed": false,
          "internalType": "uint256",
          "name": "tokenXAmount",
          "type": "uint256"
        },
        {
          "indexed": false,
          "internalType": "address",
          "name": "account",
          "type": "address"
        }
      ],
      "name": "InitiateWithdraw",
      "type": "event"
    },
    {
      "anonymous": false,
      "inputs": [
        {
          "indexed": true,
          "internalType": "uint256",
          "name": "id",
          "type": "uint256"
        },
        {
          "indexed": false,
          "internalType": "uint256",
          "name": "amount",
          "type": "uint256"
        }
      ],
      "name": "Loss",
      "type": "event"
    },
    {
      "anonymous": false,
      "inputs": [
        {
          "indexed": false,
          "internalType": "uint256",
          "name": "round",
          "type": "uint256"
        }
      ],
      "name": "PoolRollOver",
      "type": "event"
    },
    {
      "anonymous": false,
      "inputs": [
        {
          "indexed": false,
          "internalType": "uint256",
          "name": "tokenXAmount",
          "type": "uint256"
        },
        {
          "indexed": false,
          "internalType": "address",
          "name": "account",
          "type": "address"
        }
      ],
      "name": "ProcessWithdrawRequest",
      "type": "event"
    },
    {
      "anonymous": false,
      "inputs": [
        {
          "indexed": true,
          "internalType": "uint256",
          "name": "id",
          "type": "uint256"
        },
        {
          "indexed": false,
          "internalType": "uint256",
          "name": "amount",
          "type": "uint256"
        }
      ],
      "name": "Profit",
      "type": "event"
    },
    {
      "anonymous": false,
      "inputs": [
        {
          "indexed": true,
          "internalType": "address",
          "name": "account",
          "type": "address"
        },
        {
          "indexed": false,
          "internalType": "uint256",
          "name": "amount",
          "type": "uint256"
        },
        {
          "indexed": false,
          "internalType": "uint256",
          "name": "writeAmount",
          "type": "uint256"
        }
      ],
      "name": "Provide",
      "type": "event"
    },
    {
      "anonymous": false,
      "inputs": [
        {
          "indexed": true,
          "internalType": "bytes32",
          "name": "role",
          "type": "bytes32"
        },
        {
          "indexed": true,
          "internalType": "bytes32",
          "name": "previousAdminRole",
          "type": "bytes32"
        },
        {
          "indexed": true,
          "internalType": "bytes32",
          "name": "newAdminRole",
          "type": "bytes32"
        }
      ],
      "name": "RoleAdminChanged",
      "type": "event"
    },
    {
      "anonymous": false,
      "inputs": [
        {
          "indexed": true,
          "internalType": "bytes32",
          "name": "role",
          "type": "bytes32"
        },
        {
          "indexed": true,
          "internalType": "address",
          "name": "account",
          "type": "address"
        },
        {
          "indexed": true,
          "internalType": "address",
          "name": "sender",
          "type": "address"
        }
      ],
      "name": "RoleGranted",
      "type": "event"
    },
    {
      "anonymous": false,
      "inputs": [
        {
          "indexed": true,
          "internalType": "bytes32",
          "name": "role",
          "type": "bytes32"
        },
        {
          "indexed": true,
          "internalType": "address",
          "name": "account",
          "type": "address"
        },
        {
          "indexed": true,
          "internalType": "address",
          "name": "sender",
          "type": "address"
        }
      ],
      "name": "RoleRevoked",
      "type": "event"
    },
    {
      "anonymous": false,
      "inputs": [
        {
          "indexed": true,
          "internalType": "address",
          "name": "from",
          "type": "address"
        },
        {
          "indexed": true,
          "internalType": "address",
          "name": "to",
          "type": "address"
        },
        {
          "indexed": false,
          "internalType": "uint256",
          "name": "value",
          "type": "uint256"
        }
      ],
      "name": "Transfer",
      "type": "event"
    },
    {
      "anonymous": false,
      "inputs": [
        {
          "indexed": false,
          "internalType": "uint256",
          "name": "expiry",
          "type": "uint256"
        }
      ],
      "name": "UpdateExpiry",
      "type": "event"
    },
    {
      "anonymous": false,
      "inputs": [
        {
          "indexed": true,
          "internalType": "uint256",
          "name": "maxLiquidity",
          "type": "uint256"
        }
      ],
      "name": "UpdateMaxLiquidity",
      "type": "event"
    },
    {
      "anonymous": false,
      "inputs": [
        {
          "indexed": false,
          "internalType": "bool",
          "name": "hasPoolEnded",
          "type": "bool"
        }
      ],
      "name": "UpdatePoolState",
      "type": "event"
    },
    {
      "anonymous": false,
      "inputs": [
        {
          "indexed": false,
          "internalType": "address",
          "name": "account",
          "type": "address"
        }
      ],
      "name": "UpdateProjectOwner",
      "type": "event"
    },
    {
      "anonymous": false,
      "inputs": [
        {
          "indexed": true,
          "internalType": "address",
          "name": "account",
          "type": "address"
        },
        {
          "indexed": false,
          "internalType": "bool",
          "name": "value",
          "type": "bool"
        }
      ],
      "name": "UpdateRevertTransfersInLockUpPeriod",
      "type": "event"
    },
    {
      "anonymous": false,
      "inputs": [
        {
          "indexed": true,
          "internalType": "address",
          "name": "account",
          "type": "address"
        },
        {
          "indexed": false,
          "internalType": "uint256",
          "name": "amount",
          "type": "uint256"
        },
        {
          "indexed": false,
          "internalType": "uint256",
          "name": "writeAmount",
          "type": "uint256"
        }
      ],
      "name": "Withdraw",
      "type": "event"
    },
    {
      "inputs": [],
      "name": "ACCURACY",
      "outputs": [
        {
          "internalType": "uint256",
          "name": "",
          "type": "uint256"
        }
      ],
      "stateMutability": "view",
      "type": "function"
    },
    {
      "inputs": [
        {
          "internalType": "address",
          "name": "",
          "type": "address"
        }
      ],
      "name": "AddressToWithdrawRequest",
      "outputs": [
        {
          "internalType": "uint256",
          "name": "requestIndex",
          "type": "uint256"
        },
        {
          "internalType": "bool",
          "name": "exists",
          "type": "bool"
        }
      ],
      "stateMutability": "view",
      "type": "function"
    },
    {
      "inputs": [],
      "name": "DEFAULT_ADMIN_ROLE",
      "outputs": [
        {
          "internalType": "bytes32",
          "name": "",
          "type": "bytes32"
        }
      ],
      "stateMutability": "view",
      "type": "function"
    },
    {
      "inputs": [],
      "name": "INITIAL_RATE",
      "outputs": [
        {
          "internalType": "uint256",
          "name": "",
          "type": "uint256"
        }
      ],
      "stateMutability": "view",
      "type": "function"
    },
    {
      "inputs": [],
      "name": "OPTION_ISSUER_ROLE",
      "outputs": [
        {
          "internalType": "bytes32",
          "name": "",
          "type": "bytes32"
        }
      ],
      "stateMutability": "view",
      "type": "function"
    },
    {
      "inputs": [],
      "name": "PROJECT_OWNER_ROLE",
      "outputs": [
        {
          "internalType": "bytes32",
          "name": "",
          "type": "bytes32"
        }
      ],
      "stateMutability": "view",
      "type": "function"
    },
    {
      "inputs": [
        {
          "internalType": "uint256",
          "name": "",
          "type": "uint256"
        }
      ],
      "name": "WithdrawRequestQueue",
      "outputs": [
        {
          "internalType": "uint256",
          "name": "withdrawAmount",
          "type": "uint256"
        },
        {
          "internalType": "uint256",
          "name": "round",
          "type": "uint256"
        },
        {
          "internalType": "address",
          "name": "account",
          "type": "address"
        }
      ],
      "stateMutability": "view",
      "type": "function"
    },
    {
      "inputs": [
        {
          "internalType": "address",
          "name": "user",
          "type": "address"
        },
        {
          "internalType": "uint256",
          "name": "tokenXAmount",
          "type": "uint256"
        }
      ],
      "name": "adminWithdraw",
      "outputs": [],
      "stateMutability": "nonpayable",
      "type": "function"
    },
    {
      "inputs": [
        {
          "internalType": "address",
          "name": "owner",
          "type": "address"
        },
        {
          "internalType": "address",
          "name": "spender",
          "type": "address"
        }
      ],
      "name": "allowance",
      "outputs": [
        {
          "internalType": "uint256",
          "name": "",
          "type": "uint256"
        }
      ],
      "stateMutability": "view",
      "type": "function"
    },
    {
      "inputs": [
        {
          "internalType": "address",
          "name": "spender",
          "type": "address"
        },
        {
          "internalType": "uint256",
          "name": "amount",
          "type": "uint256"
        }
      ],
      "name": "approve",
      "outputs": [
        {
          "internalType": "bool",
          "name": "",
          "type": "bool"
        }
      ],
      "stateMutability": "nonpayable",
      "type": "function"
    },
    {
      "inputs": [],
      "name": "availableBalance",
      "outputs": [
        {
          "internalType": "uint256",
          "name": "balance",
          "type": "uint256"
        }
      ],
      "stateMutability": "view",
      "type": "function"
    },
    {
      "inputs": [
        {
          "internalType": "address",
          "name": "account",
          "type": "address"
        }
      ],
      "name": "balanceOf",
      "outputs": [
        {
          "internalType": "uint256",
          "name": "",
          "type": "uint256"
        }
      ],
      "stateMutability": "view",
      "type": "function"
    },
    {
      "inputs": [
        {
          "internalType": "uint256",
          "name": "id",
          "type": "uint256"
        },
        {
          "internalType": "uint256",
          "name": "tokenXAmount",
          "type": "uint256"
        },
        {
          "internalType": "uint256",
          "name": "premium",
          "type": "uint256"
        }
      ],
      "name": "changeLock",
      "outputs": [],
      "stateMutability": "nonpayable",
      "type": "function"
    },
    {
      "inputs": [],
      "name": "currentRound",
      "outputs": [
        {
          "internalType": "uint256",
          "name": "",
          "type": "uint256"
        }
      ],
      "stateMutability": "view",
      "type": "function"
    },
    {
      "inputs": [],
      "name": "decimals",
      "outputs": [
        {
          "internalType": "uint8",
          "name": "",
          "type": "uint8"
        }
      ],
      "stateMutability": "view",
      "type": "function"
    },
    {
      "inputs": [
        {
          "internalType": "address",
          "name": "spender",
          "type": "address"
        },
        {
          "internalType": "uint256",
          "name": "subtractedValue",
          "type": "uint256"
        }
      ],
      "name": "decreaseAllowance",
      "outputs": [
        {
          "internalType": "bool",
          "name": "",
          "type": "bool"
        }
      ],
      "stateMutability": "nonpayable",
      "type": "function"
    },
    {
      "inputs": [],
      "name": "fixedExpiry",
      "outputs": [
        {
          "internalType": "uint256",
          "name": "",
          "type": "uint256"
        }
      ],
      "stateMutability": "view",
      "type": "function"
    },
    {
      "inputs": [
        {
          "internalType": "bytes32",
          "name": "role",
          "type": "bytes32"
        }
      ],
      "name": "getRoleAdmin",
      "outputs": [
        {
          "internalType": "bytes32",
          "name": "",
          "type": "bytes32"
        }
      ],
      "stateMutability": "view",
      "type": "function"
    },
    {
      "inputs": [
        {
          "internalType": "bytes32",
          "name": "role",
          "type": "bytes32"
        },
        {
          "internalType": "address",
          "name": "account",
          "type": "address"
        }
      ],
      "name": "grantRole",
      "outputs": [],
      "stateMutability": "nonpayable",
      "type": "function"
    },
    {
      "inputs": [],
      "name": "hasPoolEnded",
      "outputs": [
        {
          "internalType": "bool",
          "name": "",
          "type": "bool"
        }
      ],
      "stateMutability": "view",
      "type": "function"
    },
    {
      "inputs": [
        {
          "internalType": "bytes32",
          "name": "role",
          "type": "bytes32"
        },
        {
          "internalType": "address",
          "name": "account",
          "type": "address"
        }
      ],
      "name": "hasRole",
      "outputs": [
        {
          "internalType": "bool",
          "name": "",
          "type": "bool"
        }
      ],
      "stateMutability": "view",
      "type": "function"
    },
    {
      "inputs": [
        {
          "internalType": "address",
          "name": "spender",
          "type": "address"
        },
        {
          "internalType": "uint256",
          "name": "addedValue",
          "type": "uint256"
        }
      ],
      "name": "increaseAllowance",
      "outputs": [
        {
          "internalType": "bool",
          "name": "",
          "type": "bool"
        }
      ],
      "stateMutability": "nonpayable",
      "type": "function"
    },
    {
      "inputs": [],
      "name": "isAcceptingWithdrawRequests",
      "outputs": [
        {
          "internalType": "bool",
          "name": "",
          "type": "bool"
        }
      ],
      "stateMutability": "view",
      "type": "function"
    },
    {
      "inputs": [
        {
          "internalType": "uint256",
          "name": "id",
          "type": "uint256"
        },
        {
          "internalType": "uint256",
          "name": "tokenXAmount",
          "type": "uint256"
        },
        {
          "internalType": "uint256",
          "name": "premium",
          "type": "uint256"
        }
      ],
      "name": "lock",
      "outputs": [],
      "stateMutability": "nonpayable",
      "type": "function"
    },
    {
      "inputs": [],
      "name": "lockedAmount",
      "outputs": [
        {
          "internalType": "uint256",
          "name": "",
          "type": "uint256"
        }
      ],
      "stateMutability": "view",
      "type": "function"
    },
    {
      "inputs": [
        {
          "internalType": "address",
          "name": "",
          "type": "address"
        },
        {
          "internalType": "uint256",
          "name": "",
          "type": "uint256"
        }
      ],
      "name": "lockedLiquidity",
      "outputs": [
        {
          "internalType": "uint256",
          "name": "amount",
          "type": "uint256"
        },
        {
          "internalType": "uint256",
          "name": "premium",
          "type": "uint256"
        },
        {
          "internalType": "bool",
          "name": "locked",
          "type": "bool"
        }
      ],
      "stateMutability": "view",
      "type": "function"
    },
    {
      "inputs": [],
      "name": "lockedPremium",
      "outputs": [
        {
          "internalType": "uint256",
          "name": "",
          "type": "uint256"
        }
      ],
      "stateMutability": "view",
      "type": "function"
    },
    {
      "inputs": [],
      "name": "maxLiquidity",
      "outputs": [
        {
          "internalType": "uint256",
          "name": "",
          "type": "uint256"
        }
      ],
      "stateMutability": "view",
      "type": "function"
    },
    {
      "inputs": [],
      "name": "name",
      "outputs": [
        {
          "internalType": "string",
          "name": "",
          "type": "string"
        }
      ],
      "stateMutability": "view",
      "type": "function"
    },
    {
      "inputs": [],
      "name": "owner",
      "outputs": [
        {
          "internalType": "address",
          "name": "",
          "type": "address"
        }
      ],
      "stateMutability": "view",
      "type": "function"
    },
    {
      "inputs": [
        {
          "internalType": "uint256",
          "name": "requestsToProcess",
          "type": "uint256"
        }
      ],
      "name": "processWithdrawRequests",
      "outputs": [],
      "stateMutability": "nonpayable",
      "type": "function"
    },
    {
      "inputs": [],
      "name": "projectOwner",
      "outputs": [
        {
          "internalType": "address",
          "name": "",
          "type": "address"
        }
      ],
      "stateMutability": "view",
      "type": "function"
    },
    {
      "inputs": [
        {
          "internalType": "uint256",
          "name": "tokenXAmount",
          "type": "uint256"
        },
        {
          "internalType": "uint256",
          "name": "minMint",
          "type": "uint256"
        }
      ],
      "name": "provide",
      "outputs": [
        {
          "internalType": "uint256",
          "name": "mint",
          "type": "uint256"
        }
      ],
      "stateMutability": "nonpayable",
      "type": "function"
    },
    {
      "inputs": [],
      "name": "queueEnd",
      "outputs": [
        {
          "internalType": "uint256",
          "name": "",
          "type": "uint256"
        }
      ],
      "stateMutability": "view",
      "type": "function"
    },
    {
      "inputs": [],
      "name": "queueStart",
      "outputs": [
        {
          "internalType": "uint256",
          "name": "",
          "type": "uint256"
        }
      ],
      "stateMutability": "view",
      "type": "function"
    },
    {
      "inputs": [
        {
          "internalType": "bytes32",
          "name": "role",
          "type": "bytes32"
        },
        {
          "internalType": "address",
          "name": "account",
          "type": "address"
        }
      ],
      "name": "renounceRole",
      "outputs": [],
      "stateMutability": "nonpayable",
      "type": "function"
    },
    {
      "inputs": [
        {
          "internalType": "bytes32",
          "name": "role",
          "type": "bytes32"
        },
        {
          "internalType": "address",
          "name": "account",
          "type": "address"
        }
      ],
      "name": "revokeRole",
      "outputs": [],
      "stateMutability": "nonpayable",
      "type": "function"
    },
    {
      "inputs": [
        {
          "internalType": "uint256",
          "name": "expiry",
          "type": "uint256"
        }
      ],
      "name": "rollOver",
      "outputs": [],
      "stateMutability": "nonpayable",
      "type": "function"
    },
    {
      "inputs": [
        {
          "internalType": "uint256",
          "name": "id",
          "type": "uint256"
        },
        {
          "internalType": "address",
          "name": "to",
          "type": "address"
        },
        {
          "internalType": "uint256",
          "name": "tokenXAmount",
          "type": "uint256"
        }
      ],
      "name": "send",
      "outputs": [],
      "stateMutability": "nonpayable",
      "type": "function"
    },
    {
      "inputs": [
        {
          "internalType": "uint256",
          "name": "_maxLiquidity",
          "type": "uint256"
        }
      ],
      "name": "setMaxLiquidity",
      "outputs": [],
      "stateMutability": "nonpayable",
      "type": "function"
    },
    {
      "inputs": [
        {
          "internalType": "bool",
          "name": "_hasPoolEnded",
          "type": "bool"
        }
      ],
      "name": "setPoolState",
      "outputs": [],
      "stateMutability": "nonpayable",
      "type": "function"
    },
    {
      "inputs": [
        {
          "internalType": "address",
          "name": "account",
          "type": "address"
        }
      ],
      "name": "setProjectOwner",
      "outputs": [],
      "stateMutability": "nonpayable",
      "type": "function"
    },
    {
      "inputs": [
        {
          "internalType": "address",
          "name": "account",
          "type": "address"
        }
      ],
      "name": "shareOf",
      "outputs": [
        {
          "internalType": "uint256",
          "name": "share",
          "type": "uint256"
        }
      ],
      "stateMutability": "view",
      "type": "function"
    },
    {
      "inputs": [
        {
          "internalType": "bytes4",
          "name": "interfaceId",
          "type": "bytes4"
        }
      ],
      "name": "supportsInterface",
      "outputs": [
        {
          "internalType": "bool",
          "name": "",
          "type": "bool"
        }
      ],
      "stateMutability": "view",
      "type": "function"
    },
    {
      "inputs": [],
      "name": "symbol",
      "outputs": [
        {
          "internalType": "string",
          "name": "",
          "type": "string"
        }
      ],
      "stateMutability": "view",
      "type": "function"
    },
    {
      "inputs": [],
      "name": "tokenX",
      "outputs": [
        {
          "internalType": "contract ERC20",
          "name": "",
          "type": "address"
        }
      ],
      "stateMutability": "view",
      "type": "function"
    },
    {
      "inputs": [],
      "name": "totalSupply",
      "outputs": [
        {
          "internalType": "uint256",
          "name": "",
          "type": "uint256"
        }
      ],
      "stateMutability": "view",
      "type": "function"
    },
    {
      "inputs": [],
      "name": "totalTokenXBalance",
      "outputs": [
        {
          "internalType": "uint256",
          "name": "balance",
          "type": "uint256"
        }
      ],
      "stateMutability": "view",
      "type": "function"
    },
    {
      "inputs": [
        {
          "internalType": "address",
          "name": "recipient",
          "type": "address"
        },
        {
          "internalType": "uint256",
          "name": "amount",
          "type": "uint256"
        }
      ],
      "name": "transfer",
      "outputs": [
        {
          "internalType": "bool",
          "name": "",
          "type": "bool"
        }
      ],
      "stateMutability": "nonpayable",
      "type": "function"
    },
    {
      "inputs": [
        {
          "internalType": "address",
          "name": "sender",
          "type": "address"
        },
        {
          "internalType": "address",
          "name": "recipient",
          "type": "address"
        },
        {
          "internalType": "uint256",
          "name": "amount",
          "type": "uint256"
        }
      ],
      "name": "transferFrom",
      "outputs": [
        {
          "internalType": "bool",
          "name": "",
          "type": "bool"
        }
      ],
      "stateMutability": "nonpayable",
      "type": "function"
    },
    {
      "inputs": [
        {
          "internalType": "uint256",
          "name": "id",
          "type": "uint256"
        }
      ],
      "name": "unlock",
      "outputs": [],
      "stateMutability": "nonpayable",
      "type": "function"
    },
    {
      "inputs": [
        {
          "internalType": "uint256",
          "name": "id",
          "type": "uint256"
        }
      ],
      "name": "unlockWithoutProfit",
      "outputs": [],
      "stateMutability": "nonpayable",
      "type": "function"
    },
    {
      "inputs": [
        {
          "internalType": "uint256",
          "name": "tokenXAmount",
          "type": "uint256"
        }
      ],
      "name": "withdraw",
      "outputs": [],
      "stateMutability": "nonpayable",
      "type": "function"
    }
  ],
  "bytecode": "60806040526001600c55600d805461ffff1916610100179055600060138190556014553480156200002f57600080fd5b50604051620035a7380380620035a7833981016040819052620000529162000464565b604080518082018252600f81526e213ab33332b9102628102a37b5b2b760891b6020808301918252835180850190945260048452633921232960e11b908401528151919291620000a591600391620003be565b508051620000bb906004906020840190620003be565b505050816001600160a01b03166395d89b416040518163ffffffff1660e01b815260040160006040518083038186803b158015620000f857600080fd5b505afa1580156200010d573d6000803e3d6000fd5b505050506040513d6000823e601f3d908101601f191682016040526200013791908101906200049e565b604051602001620001499190620005a7565b604051602081830303815290604052600690805190602001906200016f929190620003be565b50816001600160a01b03166395d89b416040518163ffffffff1660e01b815260040160006040518083038186803b158015620001aa57600080fd5b505afa158015620001bf573d6000803e3d6000fd5b505050506040513d6000823e601f3d908101601f19168201604052620001e991908101906200049e565b604051602001620001fb91906200057c565b6040516020818303038152906040526007908051906020019062000221929190620003be565b50601080546001600160a01b0384166001600160a01b03199182168117909255600b839055600e8054909116331790556040805163313ce56760e01b8152905163313ce56791600480820192602092909190829003018186803b1580156200028857600080fd5b505afa1580156200029d573d6000803e3d6000fd5b505050506040513d601f19601f82011682018060405250810190620002c3919062000552565b620002d090600a6200063c565b620002df90624c4b40620006fb565b600a55620002ef600033620002f7565b5050620007b9565b62000303828262000307565b5050565b62000313828262000391565b620003035760008281526005602090815260408083206001600160a01b03851684529091529020805460ff191660011790556200034d3390565b6001600160a01b0316816001600160a01b0316837f2f8788117e7eff1d82e926ec794901d17c78024a50270940304540a733656f0d60405160405180910390a45050565b60008281526005602090815260408083206001600160a01b038516845290915290205460ff165b92915050565b828054620003cc9062000750565b90600052602060002090601f016020900481019282620003f057600085556200043b565b82601f106200040b57805160ff19168380011785556200043b565b828001600101855582156200043b579182015b828111156200043b5782518255916020019190600101906200041e565b50620004499291506200044d565b5090565b5b808211156200044957600081556001016200044e565b6000806040838503121562000477578182fd5b82516001600160a01b03811681146200048e578283fd5b6020939093015192949293505050565b600060208284031215620004b0578081fd5b81516001600160401b0380821115620004c7578283fd5b818401915084601f830112620004db578283fd5b815181811115620004f057620004f0620007a3565b604051601f8201601f19908116603f011681019083821181831017156200051b576200051b620007a3565b8160405282815287602084870101111562000534578586fd5b620005478360208301602088016200071d565b979650505050505050565b60006020828403121562000564578081fd5b815160ff8116811462000575578182fd5b9392505050565b603960f91b8152600082516200059a8160018501602087016200071d565b9190910160010192915050565b6e0213ab33332b91023b2b732b934b19608d1b815260008251620005d381600f8501602087016200071d565b68102628102a37b5b2b760b91b600f939091019283015250601801919050565b600181815b80851115620006345781600019048211156200061857620006186200078d565b808516156200062657918102915b93841c9390800290620005f8565b509250929050565b60006200057560ff8416836000826200065857506001620003b8565b816200066757506000620003b8565b81600181146200068057600281146200068b57620006ab565b6001915050620003b8565b60ff8411156200069f576200069f6200078d565b50506001821b620003b8565b5060208310610133831016604e8410600b8410161715620006d0575081810a620003b8565b620006dc8383620005f3565b8060001904821115620006f357620006f36200078d565b029392505050565b60008160001904831182151516156200071857620007186200078d565b500290565b60005b838110156200073a57818101518382015260200162000720565b838111156200074a576000848401525b50505050565b600181811c908216806200076557607f821691505b602082108114156200078757634e487b7160e01b600052602260045260246000fd5b50919050565b634e487b7160e01b600052601160045260246000fd5b634e487b7160e01b600052604160045260246000fd5b612dde80620007c96000396000f3fe608060405234801561001057600080fd5b50600436106102675760003560e01c806301ffc9a71461026c57806304c104c41461029457806306fdde03146102d3578063095ea7b3146102e85780630dbf21b0146102fb57806316dc165b1461031057806318160ddd1461033057806321e5e2c41461034257806323b872dd14610355578063248a9ca3146103685780632e1a7d4d1461037b5780632f2ff15d1461038e578063313ce567146103a1578063350392b1146103bb57806336482e6a1461041757806336568abe1461042a578063395093511461043d578063401d4482146104505780634dbac733146104635780635572e0d91461046c57806357a5c9671461047f5780636198e339146104925780636ab28bc8146104a557806370a08231146104ae57806370c0345c146104c157806371081c8e146104ca578063797be55e146104dd57806381b34f15146104e65780638a19c8bc146104f95780638da5cb5b1461050257806391d148541461051557806395d89b4114610528578063a217fddf14610530578063a2416f7414610538578063a3d887fd1461054b578063a4475ce414610554578063a457c2d71461056d578063a834069b14610580578063a9059cbb14610589578063ab2f0e511461059c578063b9cfe348146105a4578063be62da0e146105d4578063d27411ce146105e9578063d547741f146105fc578063d9ac10d91461060f578063dacdc8da14610617578063dd62ed3e14610624578063e8c3c54f1461065d578063ec277a6614610670578063edd0d42114610685578063f4ab796614610698578063f6d16102146106aa578063fbcd9b0514610463575b600080fd5b61027f61027a36600461298b565b6106b3565b60405190151581526020015b60405180910390f35b6102be6102a2366004612869565b6012602052600090815260409020805460019091015460ff1682565b6040805192835290151560208301520161028b565b6102db6106ea565b60405161028b9190612b1c565b61027f6102f63660046128f0565b61077c565b61030e610309366004612951565b610792565b005b601054610323906001600160a01b031681565b60405161028b9190612acb565b6002545b60405190815260200161028b565b610334610350366004612869565b61079f565b61027f6103633660046128b5565b6107e2565b610334610376366004612951565b610891565b61030e610389366004612951565b6108a6565b61030e61039c366004612969565b610937565b6103a9610959565b60405160ff909116815260200161028b565b6103f36103c9366004612951565b6011602052600090815260409020805460018201546002909201549091906001600160a01b031683565b6040805193845260208401929092526001600160a01b03169082015260600161028b565b61030e610425366004612919565b6109db565b61030e610438366004612969565b610a43565b61027f61044b3660046128f0565b610abd565b61030e61045e3660046128f0565b610af9565b6103346103e881565b61030e61047a366004612951565b610b22565b61030e61048d366004612a10565b610cec565b61030e6104a0366004612951565b610e89565b61033460085481565b6103346104bc366004612869565b610ec2565b610334600a5481565b61030e6104d8366004612951565b610edd565b61033460095481565b61030e6104f43660046129cb565b610f2a565b610334600c5481565b600e54610323906001600160a01b031681565b61027f610523366004612969565b61117e565b6102db6111a9565b610334600081565b61030e610546366004612869565b6111b8565b61033460135481565b600d54610323906201000090046001600160a01b031681565b61027f61057b3660046128f0565b61122e565b610334600b5481565b61027f6105973660046128f0565b6112c7565b6103346112d4565b6105b76105b23660046128f0565b6112eb565b60408051938452602084019290925215159082015260600161028b565b610334600080516020612d4983398151915281565b61030e6105f7366004612951565b611330565b61030e61060a366004612969565b61146f565b61033461148c565b600d5461027f9060ff1681565b610334610632366004612883565b6001600160a01b03918216600090815260016020908152604080832093909416825291909152205490565b61033461066b3660046129ef565b611511565b610334600080516020612d6983398151915281565b61030e610693366004612a10565b611879565b600d5461027f90610100900460ff1681565b61033460145481565b60006001600160e01b03198216637965db0b60e01b14806106e457506301ffc9a760e01b6001600160e01b03198316145b92915050565b6060600680546106f990612c84565b80601f016020809104026020016040519081016040528092919081815260200182805461072590612c84565b80156107725780601f1061074757610100808354040283529160200191610772565b820191906000526020600020905b81548152906001019060200180831161075557829003601f168201915b5050505050905090565b6000610789338484611aa9565b50600192915050565b61079b81611bcd565b5050565b6000806107ab60025490565b11156107d9576002546107bd83610ec2565b6107c561148c565b6107cf9190612c0b565b6106e49190612bf7565b5060005b919050565b60006107ef848484611c8c565b6001600160a01b0384166000908152600160209081526040808320338452909152902054828110156108795760405162461bcd60e51b815260206004820152602860248201527f45524332303a207472616e7366657220616d6f756e74206578636565647320616044820152676c6c6f77616e636560c01b60648201526084015b60405180910390fd5b6108868533858403611aa9565b506001949350505050565b60009081526005602052604090206001015490565b600d5460ff16156108bb5761079b8133611e48565b600d54610100900460ff1661092a5760405162461bcd60e51b815260206004820152602f60248201527f506f6f6c3a204e6f7420616363657074696e672077697468647261772072657160448201526e75657374732063757272656e746c7960881b6064820152608401610870565b61093481336120db565b50565b61094082610891565b61094a813361229c565b6109548383612300565b505050565b6010546040805163313ce56760e01b815290516000926001600160a01b03169163313ce567916004808301926020929190829003018186803b15801561099e57600080fd5b505afa1580156109b2573d6000803e3d6000fd5b505050506040513d601f19601f820116820180604052508101906109d69190612a3b565b905090565b600080516020612d498339815191526109f4813361229c565b600d805460ff191683151590811790915560405160ff909116151581527f66dcc649b45c6952c1670ec25ef87365aa2dd37383ba36a7696b30b304932d9f906020015b60405180910390a15050565b6001600160a01b0381163314610ab35760405162461bcd60e51b815260206004820152602f60248201527f416363657373436f6e74726f6c3a2063616e206f6e6c792072656e6f756e636560448201526e103937b632b9903337b91039b2b63360891b6064820152608401610870565b61079b8282612386565b3360008181526001602090815260408083206001600160a01b03871684529091528120549091610789918590610af4908690612bdf565b611aa9565b600080516020612d49833981519152610b12813361229c565b610b1c8284611e48565b50505050565b600060145482601354610b359190612bdf565b11610b4d5781601354610b489190612bdf565b610b51565b6014545b6013549091505b81811015610cc257600081815260116020908152604080832060028101546001600160a01b031684526012909252909120600c5460018301541415610bfb5760405162461bcd60e51b815260206004820152603360248201527f43616e27742070726f6365737320746865207265717565737473207768656e2060448201527274686520726f756e642069732061637469766560681b6064820152608401610870565b81546002830154610c1591906001600160a01b0316611e48565b50815460028301546040517f54ac4a5d811f70f5cce2fff90e3af1383f24319f7366866408898370416057b492610c599290916001600160a01b0390911690612bc8565b60405180910390a160008381526011602052604081208181556001808201839055600290910180546001600160a01b03191690558183558201805460ff191690556013805491610ca883612cbf565b919050555050508080610cba90612cbf565b915050610b58565b50601454601354141561079b5760006013819055601455600d805461ff0019166101001790555050565b600080516020612d69833981519152610d05813361229c565b336000908152600f60205260408120805486908110610d3457634e487b7160e01b600052603260045260246000fd5b60009182526020909120600390910201600281015490915060ff16610d9b5760405162461bcd60e51b815260206004820181905260248201527f6c6f636b6564416d6f756e7420697320616c726561647920756e6c6f636b65646044820152606401610870565b8281600101541115610e3f5760105460018201546001600160a01b039091169063a9059cbb903390610dce908790612c2a565b6040518363ffffffff1660e01b8152600401610deb929190612b03565b602060405180830381600087803b158015610e0557600080fd5b505af1158015610e19573d6000803e3d6000fd5b505050506040513d601f19601f82011682018060405250810190610e3d9190612935565b505b828160010154600954610e529190612c2a565b610e5c9190612bdf565b60095580546008548591610e6f91612c2a565b610e799190612bdf565b6008556001810192909255505550565b6000610e9482611bcd565b905081600080516020612d2983398151915282604051610eb691815260200190565b60405180910390a25050565b6001600160a01b031660009081526020819052604090205490565b600080516020612d49833981519152610ef6813361229c565b600a82905560405182907f2138d5b63f1e1fc5996475c0d8565b0f4ce68622680c894db2bfd3ece685d25790600090a25050565b600080516020612d69833981519152610f43813361229c565b336000908152600f60205260408120805486908110610f7257634e487b7160e01b600052603260045260246000fd5b60009182526020909120600390910201600281015490915060ff16610fa95760405162461bcd60e51b815260040161087090612b4f565b6001600160a01b038416610fbc57600080fd5b60028101805460ff191690556001810154600954610fda9190612c2a565b6009558054600854610fec9190612c2a565b600855805460009084116110005783611003565b81545b60105460405163a9059cbb60e01b81529192506000916001600160a01b039091169063a9059cbb9061103b9089908690600401612b03565b602060405180830381600087803b15801561105557600080fd5b505af1158015611069573d6000803e3d6000fd5b505050506040513d601f19601f8201168201806040525081019061108d9190612935565b9050806110f05760405162461bcd60e51b815260206004820152602b60248201527f506f6f6c3a20546865205061796f7574207472616e73666572206469646e277460448201526a040cede40e8d0e4deeaced60ab1b6064820152608401610870565b826001015482116111315786600080516020612d2983398151915283856001015461111b9190612c2a565b60405190815260200160405180910390a2611175565b867f86f83f021a5ecb92d6dcaec11be9da0e65b5401ce748ac3c1f0ddbae029f55ce8460010154846111639190612c2a565b60405190815260200160405180910390a25b50505050505050565b60009182526005602090815260408084206001600160a01b0393909316845291905290205460ff1690565b6060600780546106f990612c84565b60006111c4813361229c565b6111dc600080516020612d4983398151915283610937565b600d805462010000600160b01b031916620100006001600160a01b038516021790556040517fb36db503700bf425dc3b747b57da91cb2e39a0d909ada3206bd18b034d7053ca90610a37908490612acb565b3360009081526001602090815260408083206001600160a01b0386168452909152812054828110156112b05760405162461bcd60e51b815260206004820152602560248201527f45524332303a2064656372656173656420616c6c6f77616e63652062656c6f77604482015264207a65726f60d81b6064820152608401610870565b6112bd3385858403611aa9565b5060019392505050565b6000610789338484611c8c565b60006008546112e161148c565b6109d69190612c2a565b600f602052816000526040600020818154811061130757600080fd5b600091825260209091206003909102018054600182015460029092015490935090915060ff1683565b600080516020612d49833981519152611349813361229c565b600b5442116113a95760405162461bcd60e51b815260206004820152602660248201527f43616e277420726f6c6c206f766572206265666f7265207468652065787069726044820152657920656e647360d01b6064820152608401610870565b6008541580156113b95750600954155b6114135760405162461bcd60e51b815260206004820152602560248201527f43757272656e7420726f756e64206861736e277420656e64656420636f6d706c6044820152646574656c7960d81b6064820152608401610870565b61141c826123ed565b600c805490600061142c83612cbf565b9091555050600d805461ff0019169055600c546040519081527fb7d59f17fd712066f944b068e5f63958fb182dab57679a35484f59e033361e5b90602001610a37565b61147882610891565b611482813361229c565b6109548383612386565b6009546010546040516370a0823160e01b8152600092916001600160a01b0316906370a08231906114c1903090600401612acb565b60206040518083038186803b1580156114d957600080fd5b505afa1580156114ed573d6000803e3d6000fd5b505050506040513d601f19601f820116820180604052508101906112e191906129b3565b600d5460009060ff16156115605760405162461bcd60e51b8152602060048201526016602482015275141bdbdb081a185cc8185b1c9958591e48195b99195960521b6044820152606401610870565b600061156b60025490565b6010546040516370a0823160e01b81529192506000916001600160a01b03909116906370a08231906115a1903090600401612acb565b60206040518083038186803b1580156115b957600080fd5b505afa1580156115cd573d6000803e3d6000fd5b505050506040513d601f19601f820116820180604052508101906115f191906129b3565b600a549091506116018683612bdf565b111561165f5760405162461bcd60e51b815260206004820152602760248201527f506f6f6c2068617320616c726561647920726561636865642069742773206d616044820152661e081b1a5b5a5d60ca1b6064820152608401610870565b60008211801561166f5750600081115b15611690578061167f8387612c0b565b6116899190612bf7565b925061169f565b61169c6103e886612c0b565b92505b838310156116ef5760405162461bcd60e51b815260206004820152601d60248201527f506f6f6c3a204d696e74206c696d697420697320746f6f206c617267650000006044820152606401610870565b6000831161170f5760405162461bcd60e51b815260040161087090612b95565b6010546040516323b872dd60e01b81526000916001600160a01b0316906323b872dd9061174490339030908b90600401612adf565b602060405180830381600087803b15801561175e57600080fd5b505af1158015611772573d6000803e3d6000fd5b505050506040513d601f19601f820116820180604052508101906117969190612935565b9050806117f45760405162461bcd60e51b815260206004820152602660248201527f5468652050726f76696465207472616e73666572206469646e277420676f20746044820152650d0e4deeaced60d31b6064820152608401610870565b60006118026103e886612bf7565b905060006118108287612c2a565b905061181c3382612428565b600e54611832906001600160a01b031683612428565b604080518981526020810183905233917f4089141ea5e4c16575f5ebf65f1786497ea07c175846fc7745ef8d8986a4ff6591015b60405180910390a2505050505092915050565b600080516020612d69833981519152611892813361229c565b336000908152600f602052604090205484146118db5760405162461bcd60e51b815260206004820152600860248201526715dc9bdb99c81a5960c21b6044820152606401610870565b6118e361148c565b836008546118f19190612bdf565b111561193c5760405162461bcd60e51b815260206004820152601a6024820152792837b7b61d1020b6b7bab73a1034b9903a37b7903630b933b29760311b6044820152606401610870565b6010546040516323b872dd60e01b81526000916001600160a01b0316906323b872dd9061197190339030908890600401612adf565b602060405180830381600087803b15801561198b57600080fd5b505af115801561199f573d6000803e3d6000fd5b505050506040513d601f19601f820116820180604052508101906119c39190612935565b905080611a215760405162461bcd60e51b815260206004820152602660248201527f546865205072656d69756d207472616e73666572206469646e277420676f20746044820152650d0e4deeaced60d31b6064820152608401610870565b336000908152600f602090815260408083208151606081018352888152808401888152600193820184815283548086018555938752949095209051600390920201908155925190830155516002909101805460ff1916911515919091179055600954611a8e908490612bdf565b600955600854611a9f908590612bdf565b6008555050505050565b6001600160a01b038316611b0b5760405162461bcd60e51b8152602060048201526024808201527f45524332303a20617070726f76652066726f6d20746865207a65726f206164646044820152637265737360e01b6064820152608401610870565b6001600160a01b038216611b6c5760405162461bcd60e51b815260206004820152602260248201527f45524332303a20617070726f766520746f20746865207a65726f206164647265604482015261737360f01b6064820152608401610870565b6001600160a01b0383811660008181526001602090815260408083209487168084529482529182902085905590518481527f8c5be1e5ebec7d5bd14f71427d1e84f3dd0314c0f7b2291e5b200ac8c7c3b925910160405180910390a3505050565b6000600080516020612d69833981519152611be8813361229c565b336000908152600f60205260408120805485908110611c1757634e487b7160e01b600052603260045260246000fd5b60009182526020909120600390910201600281015490915060ff16611c4e5760405162461bcd60e51b815260040161087090612b4f565b60028101805460ff191690556001810154600954611c6c9190612c2a565b6009558054600854611c7e9190612c2a565b600855600101549392505050565b6001600160a01b038316611cf05760405162461bcd60e51b815260206004820152602560248201527f45524332303a207472616e736665722066726f6d20746865207a65726f206164604482015264647265737360d81b6064820152608401610870565b6001600160a01b038216611d525760405162461bcd60e51b815260206004820152602360248201527f45524332303a207472616e7366657220746f20746865207a65726f206164647260448201526265737360e81b6064820152608401610870565b6001600160a01b03831660009081526020819052604090205481811015611dca5760405162461bcd60e51b815260206004820152602660248201527f45524332303a207472616e7366657220616d6f756e7420657863656564732062604482015265616c616e636560d01b6064820152608401610870565b6001600160a01b03808516600090815260208190526040808220858503905591851681529081208054849290611e01908490612bdf565b92505081905550826001600160a01b0316846001600160a01b0316600080516020612d8983398151915284604051611e3b91815260200190565b60405180910390a3610b1c565b6000611e526112d4565b831115611ed55760405162461bcd60e51b815260206004820152604560248201527f506f6f6c3a204e6f7420656e6f7567682066756e6473206f6e2074686520706f60448201527f6f6c20636f6e74726163742e20506c65617365206c6f7765722074686520616d60648201526437bab73a1760d91b608482015260a401610870565b6000611ee060025490565b90506000611eec61148c565b905060008282611efb87610ec2565b611f059190612c0b565b611f0f9190612bf7565b90506000868210611f205786611f22565b815b9050611f37611f318583612c0b565b846124f5565b9450611f4286610ec2565b851115611f8d5760405162461bcd60e51b8152602060048201526019602482015278506f6f6c3a20416d6f756e7420697320746f6f206c6172676560381b6044820152606401610870565b60008511611fad5760405162461bcd60e51b815260040161087090612b95565b611fb78686612535565b60105460405163a9059cbb60e01b81526000916001600160a01b03169063a9059cbb90611fea908a908690600401612b03565b602060405180830381600087803b15801561200457600080fd5b505af1158015612018573d6000803e3d6000fd5b505050506040513d601f19601f8201168201806040525081019061203c9190612935565b90508061209a5760405162461bcd60e51b815260206004820152602660248201527f506f6f6c3a20546865205769746864726177616c206469646e277420676f20746044820152650d0e4deeaced60d31b6064820152608401610870565b60408051838152602081018890526001600160a01b038916917ff279e6a1f5e320cca91135676d9cb6e44ca8a08c0b88342bcdb1144f6511b5689101611866565b60006120e682610ec2565b1161212f5760405162461bcd60e51b8152602060048201526019602482015278506f6f6c3a204e6f7468696e6720746f20776974686472617760381b6044820152606401610870565b6001600160a01b0381166000908152601260205260409020600181015460ff16156121d25780546000908152601160205260409020600c546001820154148061217a57506001810154155b6121be5760405162461bcd60e51b81526020600482015260156024820152740506f6f6c3a205374617465206c6f636b656420757605c1b6044820152606401610870565b80546121cb908590612bdf565b905561225e565b60408051606081018252848152600c5460208083019182526001600160a01b0386811684860190815260148054600090815260119094529583209451855592516001808601919091559251600290940180546001600160a01b031916949091169390931790925582548455838101805460ff191690911790558154919061225883612cbf565b91905055505b7f08e544170e8e5e6c868a252670b8aa06077b96dee38dcbb4b645909db2fb3481838360405161228f929190612bc8565b60405180910390a1505050565b6122a6828261117e565b61079b576122be816001600160a01b03166014612671565b6122c9836020612671565b6040516020016122da929190612a5c565b60408051601f198184030181529082905262461bcd60e51b825261087091600401612b1c565b61230a828261117e565b61079b5760008281526005602090815260408083206001600160a01b03851684529091529020805460ff191660011790556123423390565b6001600160a01b0316816001600160a01b0316837f2f8788117e7eff1d82e926ec794901d17c78024a50270940304540a733656f0d60405160405180910390a45050565b612390828261117e565b1561079b5760008281526005602090815260408083206001600160a01b0385168085529252808320805460ff1916905551339285917ff6391f5c32d9c69d2a47ea670b442974b53935d1edc7fd64eb21e047a839171b9190a45050565b600b8190556040518181527f9c73644bcd0a85b158fe496d03c38c93fc8a1f28ed476b2779df681d212534859060200160405180910390a150565b6001600160a01b03821661247e5760405162461bcd60e51b815260206004820152601f60248201527f45524332303a206d696e7420746f20746865207a65726f2061646472657373006044820152606401610870565b80600260008282546124909190612bdf565b90915550506001600160a01b038216600090815260208190526040812080548392906124bd908490612bdf565b90915550506040518181526001600160a01b03831690600090600080516020612d898339815191529060200160405180910390a35050565b600080821161250357600080fd5b600061250f8385612bf7565b905061251b8385612cda565b1561252e5761252b816001612bdf565b90505b9392505050565b6001600160a01b0382166125955760405162461bcd60e51b815260206004820152602160248201527f45524332303a206275726e2066726f6d20746865207a65726f206164647265736044820152607360f81b6064820152608401610870565b6001600160a01b038216600090815260208190526040902054818110156126095760405162461bcd60e51b815260206004820152602260248201527f45524332303a206275726e20616d6f756e7420657863656564732062616c616e604482015261636560f01b6064820152608401610870565b6001600160a01b0383166000908152602081905260408120838303905560028054849290612638908490612c2a565b90915550506040518281526000906001600160a01b03851690600080516020612d898339815191529060200160405180910390a3505050565b60606000612680836002612c0b565b61268b906002612bdf565b6001600160401b038111156126b057634e487b7160e01b600052604160045260246000fd5b6040519080825280601f01601f1916602001820160405280156126da576020820181803683370190505b509050600360fc1b8160008151811061270357634e487b7160e01b600052603260045260246000fd5b60200101906001600160f81b031916908160001a905350600f60fb1b8160018151811061274057634e487b7160e01b600052603260045260246000fd5b60200101906001600160f81b031916908160001a9053506000612764846002612c0b565b61276f906001612bdf565b90505b6001811115612803576f181899199a1a9b1b9c1cb0b131b232b360811b85600f16601081106127b157634e487b7160e01b600052603260045260246000fd5b1a60f81b8282815181106127d557634e487b7160e01b600052603260045260246000fd5b60200101906001600160f81b031916908160001a90535060049490941c936127fc81612c6d565b9050612772565b50831561252e5760405162461bcd60e51b815260206004820181905260248201527f537472696e67733a20686578206c656e67746820696e73756666696369656e746044820152606401610870565b80356001600160a01b03811681146107dd57600080fd5b60006020828403121561287a578081fd5b61252e82612852565b60008060408385031215612895578081fd5b61289e83612852565b91506128ac60208401612852565b90509250929050565b6000806000606084860312156128c9578081fd5b6128d284612852565b92506128e060208501612852565b9150604084013590509250925092565b60008060408385031215612902578182fd5b61290b83612852565b946020939093013593505050565b60006020828403121561292a578081fd5b813561252e81612d1a565b600060208284031215612946578081fd5b815161252e81612d1a565b600060208284031215612962578081fd5b5035919050565b6000806040838503121561297b578182fd5b823591506128ac60208401612852565b60006020828403121561299c578081fd5b81356001600160e01b03198116811461252e578182fd5b6000602082840312156129c4578081fd5b5051919050565b6000806000606084860312156129df578283fd5b833592506128e060208501612852565b60008060408385031215612a01578182fd5b50508035926020909101359150565b600080600060608486031215612a24578283fd5b505081359360208301359350604090920135919050565b600060208284031215612a4c578081fd5b815160ff8116811461252e578182fd5b76020b1b1b2b9b9a1b7b73a3937b61d1030b1b1b7bab73a1604d1b815260008351612a8e816017850160208801612c41565b7001034b99036b4b9b9b4b733903937b6329607d1b6017918401918201528351612abf816028840160208801612c41565b01602801949350505050565b6001600160a01b0391909116815260200190565b6001600160a01b039384168152919092166020820152604081019190915260600190565b6001600160a01b03929092168252602082015260400190565b6020815260008251806020840152612b3b816040850160208701612c41565b601f01601f19169190910160400192915050565b60208082526026908201527f506f6f6c3a206c6f636b6564416d6f756e7420697320616c726561647920756e6040820152651b1bd8dad95960d21b606082015260800190565b602080825260199082015278141bdbdb0e88105b5bdd5b9d081a5cc81d1bdbc81cdb585b1b603a1b604082015260600190565b9182526001600160a01b0316602082015260400190565b60008219821115612bf257612bf2612cee565b500190565b600082612c0657612c06612d04565b500490565b6000816000190483118215151615612c2557612c25612cee565b500290565b600082821015612c3c57612c3c612cee565b500390565b60005b83811015612c5c578181015183820152602001612c44565b83811115610b1c5750506000910152565b600081612c7c57612c7c612cee565b506000190190565b600181811c90821680612c9857607f821691505b60208210811415612cb957634e487b7160e01b600052602260045260246000fd5b50919050565b6000600019821415612cd357612cd3612cee565b5060010190565b600082612ce957612ce9612d04565b500690565b634e487b7160e01b600052601160045260246000fd5b634e487b7160e01b600052601260045260246000fd5b801515811461093457600080fdfe9f78baa7a8e3640efadcbedc2d00f5930ade7a7bb66038dbf88684d49972957a770fadb28e0e3026382976ee8b810cb0eb8666922148dd9e10b20cfb9b477ba802b0c433c31e2b44fbbb341ca2a1a7c86f98b5158b42b073f63efe02d35ea89fddf252ad1be2c89b69c2b068fc378daa952ba7f163c4a11628f55a4df523b3efa2646970667358221220af04ba15fa2a12c4dcc0dd3e18d497fdcd41f94af628b1594f07f262f17c0a7964736f6c63430008040033",
  "bytecodeSha1": "bf4c484a7cd9dca28fbf0eea51fb6c1533cbd5ec",
  "compiler": {
    "evm_version": "istanbul",
    "optimizer": {
      "enabled": true,
      "runs": 1
    },
    "version": "0.8.4+commit.c7e474f2"
  },
  "contractName": "BufferIBFRPoolV2",
  "language": "Solidity",
  "natspec": {
    "author": "Heisenberg",
    "kind": "dev",
    "methods": {
      "adminWithdraw(address,uint256)": {
        "notice": "allows admin to send back the funds of the depositer",
        "params": {
          "tokenXAmount": "Amount of X to receive",
          "user": "User address for which the withdrawal has to be made"
        }
      },
      "allowance(address,address)": {
        "details": "See {IERC20-allowance}."
      },
      "approve(address,uint256)": {
        "details": "See {IERC20-approve}. Requirements: - `spender` cannot be the zero address."
      },
      "availableBalance()": {
        "notice": "Returns the amount of X available for withdrawals",
        "returns": {
          "balance": "Unlocked amount"
        }
      },
      "balanceOf(address)": {
        "details": "See {IERC20-balanceOf}."
      },
      "changeLock(uint256,uint256,uint256)": {
        "notice": "Called by BufferCallOptions to change the locked funds",
        "params": {
          "tokenXAmount": "Amount of funds that should be locked in an option"
        }
      },
      "decimals()": {
        "details": "Returns the decimals of the token."
      },
      "decreaseAllowance(address,uint256)": {
        "details": "Atomically decreases the allowance granted to `spender` by the caller. This is an alternative to {approve} that can be used as a mitigation for problems described in {IERC20-approve}. Emits an {Approval} event indicating the updated allowance. Requirements: - `spender` cannot be the zero address. - `spender` must have allowance for the caller of at least `subtractedValue`."
      },
      "getRoleAdmin(bytes32)": {
        "details": "Returns the admin role that controls `role`. See {grantRole} and {revokeRole}. To change a role's admin, use {_setRoleAdmin}."
      },
      "grantRole(bytes32,address)": {
        "details": "Grants `role` to `account`. If `account` had not been already granted `role`, emits a {RoleGranted} event. Requirements: - the caller must have ``role``'s admin role."
      },
      "hasRole(bytes32,address)": {
        "details": "Returns `true` if `account` has been granted `role`."
      },
      "increaseAllowance(address,uint256)": {
        "details": "Atomically increases the allowance granted to `spender` by the caller. This is an alternative to {approve} that can be used as a mitigation for problems described in {IERC20-approve}. Emits an {Approval} event indicating the updated allowance. Requirements: - `spender` cannot be the zero address."
      },
      "lock(uint256,uint256,uint256)": {
        "notice": "Called by BufferCallOptions to lock the funds",
        "params": {
          "tokenXAmount": "Amount of funds that should be locked in an option"
        }
      },
      "name()": {
        "details": "Returns the name of the token."
      },
      "processWithdrawRequests(uint256)": {
        "notice": "Processes all the withdraw requests once the round ends",
        "params": {
          "requestsToProcess": "Number of requests to process"
        }
      },
      "provide(uint256,uint256)": {
        "notice": "A provider supplies tokenX to the pool and receives rBFR-X tokens",
        "params": {
          "minMint": "Minimum amount of tokens that should be received by a provider. Calling the provide function will require the minimum amount of tokens to be minted. The actual amount that will be minted could vary but can only be higher (not lower) than the minimum value."
        },
        "returns": {
          "mint": "Amount of tokens to be received"
        }
      },
      "renounceRole(bytes32,address)": {
        "details": "Revokes `role` from the calling account. Roles are often managed via {grantRole} and {revokeRole}: this function's purpose is to provide a mechanism for accounts to lose their privileges if they are compromised (such as when a trusted device is misplaced). If the calling account had been granted `role`, emits a {RoleRevoked} event. Requirements: - the caller must be `account`."
      },
      "revokeRole(bytes32,address)": {
        "details": "Revokes `role` from `account`. If `account` had been granted `role`, emits a {RoleRevoked} event. Requirements: - the caller must have ``role``'s admin role."
      },
      "rollOver(uint256)": {
        "notice": "Used to start a new round",
        "params": {
          "expiry": "New limit"
        }
      },
      "send(uint256,address,uint256)": {
        "notice": "Called by BufferCallOptions to send funds to liquidity providers after an option's expiration",
        "params": {
          "to": "Provider",
          "tokenXAmount": "Funds that should be sent"
        }
      },
      "setMaxLiquidity(uint256)": {
        "notice": "Used for adjusting the max limit of the pool",
        "params": {
          "_maxLiquidity": "New limit"
        }
      },
      "setPoolState(bool)": {
        "notice": "Used for setting the liquidity pool's state",
        "params": {
          "_hasPoolEnded": "New limit"
        }
      },
      "setProjectOwner(address)": {
        "notice": "Used for setting owner",
        "params": {
          "account": "owner account"
        }
      },
      "shareOf(address)": {
        "notice": "Returns provider's share in X",
        "params": {
          "account": "Provider's address"
        },
        "returns": {
          "share": "Provider's share in X"
        }
      },
      "supportsInterface(bytes4)": {
        "details": "See {IERC165-supportsInterface}."
      },
      "symbol()": {
        "details": "Returns the symbol of the token, usually a shorter version of the name."
      },
      "totalSupply()": {
        "details": "See {IERC20-totalSupply}."
      },
      "totalTokenXBalance()": {
        "notice": "Returns the total balance of X provided to the pool",
        "returns": {
          "balance": "Pool balance"
        }
      },
      "transfer(address,uint256)": {
        "details": "See {IERC20-transfer}. Requirements: - `recipient` cannot be the zero address. - the caller must have a balance of at least `amount`."
      },
      "transferFrom(address,address,uint256)": {
        "details": "See {IERC20-transferFrom}. Emits an {Approval} event indicating the updated allowance. This is not required by the EIP. See the note at the beginning of {ERC20}. Requirements: - `sender` and `recipient` cannot be the zero address. - `sender` must have a balance of at least `amount`. - the caller must have allowance for ``sender``'s tokens of at least `amount`."
      },
      "unlock(uint256)": {
        "notice": "Called by BufferOptions to unlock the funds",
        "params": {
          "id": "Id of LockedLiquidity that should be unlocked"
        }
      },
      "unlockWithoutProfit(uint256)": {
        "notice": "Called by BufferOptions to unlock the funds",
        "params": {
          "id": "Id of LockedLiquidity that should be unlocked"
        }
      },
      "withdraw(uint256)": {
        "notice": "withdraw burns rBFR-X and receives X from the pool",
        "params": {
          "tokenXAmount": "Amount Amount of X to receive"
        }
      }
    },
    "notice": "Accumulates liquidity in TokenX from LPs and distributes P&L in TokenX",
    "title": "Buffer TokenX Liquidity Pool",
    "version": 1
  },
  "opcodes": "PUSH1 0x80 PUSH1 0x40 MSTORE CALLVALUE DUP1 ISZERO PUSH2 0x10 JUMPI PUSH1 0x0 DUP1 REVERT JUMPDEST POP PUSH1 0x4 CALLDATASIZE LT PUSH2 0x267 JUMPI PUSH1 0x0 CALLDATALOAD PUSH1 0xE0 SHR DUP1 PUSH4 0x1FFC9A7 EQ PUSH2 0x26C JUMPI DUP1 PUSH4 0x4C104C4 EQ PUSH2 0x294 JUMPI DUP1 PUSH4 0x6FDDE03 EQ PUSH2 0x2D3 JUMPI DUP1 PUSH4 0x95EA7B3 EQ PUSH2 0x2E8 JUMPI DUP1 PUSH4 0xDBF21B0 EQ PUSH2 0x2FB JUMPI DUP1 PUSH4 0x16DC165B EQ PUSH2 0x310 JUMPI DUP1 PUSH4 0x18160DDD EQ PUSH2 0x330 JUMPI DUP1 PUSH4 0x21E5E2C4 EQ PUSH2 0x342 JUMPI DUP1 PUSH4 0x23B872DD EQ PUSH2 0x355 JUMPI DUP1 PUSH4 0x248A9CA3 EQ PUSH2 0x368 JUMPI DUP1 PUSH4 0x2E1A7D4D EQ PUSH2 0x37B JUMPI DUP1 PUSH4 0x2F2FF15D EQ PUSH2 0x38E JUMPI DUP1 PUSH4 0x313CE567 EQ PUSH2 0x3A1 JUMPI DUP1 PUSH4 0x350392B1 EQ PUSH2 0x3BB JUMPI DUP1 PUSH4 0x36482E6A EQ PUSH2 0x417 JUMPI DUP1 PUSH4 0x36568ABE EQ PUSH2 0x42A JUMPI DUP1 PUSH4 0x39509351 EQ PUSH2 0x43D JUMPI DUP1 PUSH4 0x401D4482 EQ PUSH2 0x450 JUMPI DUP1 PUSH4 0x4DBAC733 EQ PUSH2 0x463 JUMPI DUP1 PUSH4 0x5572E0D9 EQ PUSH2 0x46C JUMPI DUP1 PUSH4 0x57A5C967 EQ PUSH2 0x47F JUMPI DUP1 PUSH4 0x6198E339 EQ PUSH2 0x492 JUMPI DUP1 PUSH4 0x6AB28BC8 EQ PUSH2 0x4A5 JUMPI DUP1 PUSH4 0x70A08231 EQ PUSH2 0x4AE JUMPI DUP1 PUSH4 0x70C0345C EQ PUSH2 0x4C1 JUMPI DUP1 PUSH4 0x71081C8E EQ PUSH2 0x4CA JUMPI DUP1 PUSH4 0x797BE55E EQ PUSH2 0x4DD JUMPI DUP1 PUSH4 0x81B34F15 EQ PUSH2 0x4E6 JUMPI DUP1 PUSH4 0x8A19C8BC EQ PUSH2 0x4F9 JUMPI DUP1 PUSH4 0x8DA5CB5B EQ PUSH2 0x502 JUMPI DUP1 PUSH4 0x91D14854 EQ PUSH2 0x515 JUMPI DUP1 PUSH4 0x95D89B41 EQ PUSH2 0x528 JUMPI DUP1 PUSH4 0xA217FDDF EQ PUSH2 0x530 JUMPI DUP1 PUSH4 0xA2416F74 EQ PUSH2 0x538 JUMPI DUP1 PUSH4 0xA3D887FD EQ PUSH2 0x54B JUMPI DUP1 PUSH4 0xA4475CE4 EQ PUSH2 0x554 JUMPI DUP1 PUSH4 0xA457C2D7 EQ PUSH2 0x56D JUMPI DUP1 PUSH4 0xA834069B EQ PUSH2 0x580 JUMPI DUP1 PUSH4 0xA9059CBB EQ PUSH2 0x589 JUMPI DUP1 PUSH4 0xAB2F0E51 EQ PUSH2 0x59C JUMPI DUP1 PUSH4 0xB9CFE348 EQ PUSH2 0x5A4 JUMPI DUP1 PUSH4 0xBE62DA0E EQ PUSH2 0x5D4 JUMPI DUP1 PUSH4 0xD27411CE EQ PUSH2 0x5E9 JUMPI DUP1 PUSH4 0xD547741F EQ PUSH2 0x5FC JUMPI DUP1 PUSH4 0xD9AC10D9 EQ PUSH2 0x60F JUMPI DUP1 PUSH4 0xDACDC8DA EQ PUSH2 0x617 JUMPI DUP1 PUSH4 0xDD62ED3E EQ PUSH2 0x624 JUMPI DUP1 PUSH4 0xE8C3C54F EQ PUSH2 0x65D JUMPI DUP1 PUSH4 0xEC277A66 EQ PUSH2 0x670 JUMPI DUP1 PUSH4 0xEDD0D421 EQ PUSH2 0x685 JUMPI DUP1 PUSH4 0xF4AB7966 EQ PUSH2 0x698 JUMPI DUP1 PUSH4 0xF6D16102 EQ PUSH2 0x6AA JUMPI DUP1 PUSH4 0xFBCD9B05 EQ PUSH2 0x463 JUMPI JUMPDEST PUSH1 0x0 DUP1 REVERT JUMPDEST PUSH2 0x27F PUSH2 0x27A CALLDATASIZE PUSH1 0x4 PUSH2 0x298B JUMP JUMPDEST PUSH2 0x6B3 JUMP JUMPDEST PUSH1 0x40 MLOAD SWAP1 ISZERO ISZERO DUP2 MSTORE PUSH1 0x20 ADD JUMPDEST PUSH1 0x40 MLOAD DUP1 SWAP2 SUB SWAP1 RETURN JUMPDEST PUSH2 0x2BE PUSH2 0x2A2 CALLDATASIZE PUSH1 0x4 PUSH2 0x2869 JUMP JUMPDEST PUSH1 0x12 PUSH1 0x20 MSTORE PUSH1 0x0 SWAP1 DUP2 MSTORE PUSH1 0x40 SWAP1 KECCAK256 DUP1 SLOAD PUSH1 0x1 SWAP1 SWAP2 ADD SLOAD PUSH1 0xFF AND DUP3 JUMP JUMPDEST PUSH1 0x40 DUP1 MLOAD SWAP3 DUP4 MSTORE SWAP1 ISZERO ISZERO PUSH1 0x20 DUP4 ADD MSTORE ADD PUSH2 0x28B JUMP JUMPDEST PUSH2 0x2DB PUSH2 0x6EA JUMP JUMPDEST PUSH1 0x40 MLOAD PUSH2 0x28B SWAP2 SWAP1 PUSH2 0x2B1C JUMP JUMPDEST PUSH2 0x27F PUSH2 0x2F6 CALLDATASIZE PUSH1 0x4 PUSH2 0x28F0 JUMP JUMPDEST PUSH2 0x77C JUMP JUMPDEST PUSH2 0x30E PUSH2 0x309 CALLDATASIZE PUSH1 0x4 PUSH2 0x2951 JUMP JUMPDEST PUSH2 0x792 JUMP JUMPDEST STOP JUMPDEST PUSH1 0x10 SLOAD PUSH2 0x323 SWAP1 PUSH1 0x1 PUSH1 0x1 PUSH1 0xA0 SHL SUB AND DUP2 JUMP JUMPDEST PUSH1 0x40 MLOAD PUSH2 0x28B SWAP2 SWAP1 PUSH2 0x2ACB JUMP JUMPDEST PUSH1 0x2 SLOAD JUMPDEST PUSH1 0x40 MLOAD SWAP1 DUP2 MSTORE PUSH1 0x20 ADD PUSH2 0x28B JUMP JUMPDEST PUSH2 0x334 PUSH2 0x350 CALLDATASIZE PUSH1 0x4 PUSH2 0x2869 JUMP JUMPDEST PUSH2 0x79F JUMP JUMPDEST PUSH2 0x27F PUSH2 0x363 CALLDATASIZE PUSH1 0x4 PUSH2 0x28B5 JUMP JUMPDEST PUSH2 0x7E2 JUMP JUMPDEST PUSH2 0x334 PUSH2 0x376 CALLDATASIZE PUSH1 0x4 PUSH2 0x2951 JUMP JUMPDEST PUSH2 0x891 JUMP JUMPDEST PUSH2 0x30E PUSH2 0x389 CALLDATASIZE PUSH1 0x4 PUSH2 0x2951 JUMP JUMPDEST PUSH2 0x8A6 JUMP JUMPDEST PUSH2 0x30E PUSH2 0x39C CALLDATASIZE PUSH1 0x4 PUSH2 0x2969 JUMP JUMPDEST PUSH2 0x937 JUMP JUMPDEST PUSH2 0x3A9 PUSH2 0x959 JUMP JUMPDEST PUSH1 0x40 MLOAD PUSH1 0xFF SWAP1 SWAP2 AND DUP2 MSTORE PUSH1 0x20 ADD PUSH2 0x28B JUMP JUMPDEST PUSH2 0x3F3 PUSH2 0x3C9 CALLDATASIZE PUSH1 0x4 PUSH2 0x2951 JUMP JUMPDEST PUSH1 0x11 PUSH1 0x20 MSTORE PUSH1 0x0 SWAP1 DUP2 MSTORE PUSH1 0x40 SWAP1 KECCAK256 DUP1 SLOAD PUSH1 0x1 DUP3 ADD SLOAD PUSH1 0x2 SWAP1 SWAP3 ADD SLOAD SWAP1 SWAP2 SWAP1 PUSH1 0x1 PUSH1 0x1 PUSH1 0xA0 SHL SUB AND DUP4 JUMP JUMPDEST PUSH1 0x40 DUP1 MLOAD SWAP4 DUP5 MSTORE PUSH1 0x20 DUP5 ADD SWAP3 SWAP1 SWAP3 MSTORE PUSH1 0x1 PUSH1 0x1 PUSH1 0xA0 SHL SUB AND SWAP1 DUP3 ADD MSTORE PUSH1 0x60 ADD PUSH2 0x28B JUMP JUMPDEST PUSH2 0x30E PUSH2 0x425 CALLDATASIZE PUSH1 0x4 PUSH2 0x2919 JUMP JUMPDEST PUSH2 0x9DB JUMP JUMPDEST PUSH2 0x30E PUSH2 0x438 CALLDATASIZE PUSH1 0x4 PUSH2 0x2969 JUMP JUMPDEST PUSH2 0xA43 JUMP JUMPDEST PUSH2 0x27F PUSH2 0x44B CALLDATASIZE PUSH1 0x4 PUSH2 0x28F0 JUMP JUMPDEST PUSH2 0xABD JUMP JUMPDEST PUSH2 0x30E PUSH2 0x45E CALLDATASIZE PUSH1 0x4 PUSH2 0x28F0 JUMP JUMPDEST PUSH2 0xAF9 JUMP JUMPDEST PUSH2 0x334 PUSH2 0x3E8 DUP2 JUMP JUMPDEST PUSH2 0x30E PUSH2 0x47A CALLDATASIZE PUSH1 0x4 PUSH2 0x2951 JUMP JUMPDEST PUSH2 0xB22 JUMP JUMPDEST PUSH2 0x30E PUSH2 0x48D CALLDATASIZE PUSH1 0x4 PUSH2 0x2A10 JUMP JUMPDEST PUSH2 0xCEC JUMP JUMPDEST PUSH2 0x30E PUSH2 0x4A0 CALLDATASIZE PUSH1 0x4 PUSH2 0x2951 JUMP JUMPDEST PUSH2 0xE89 JUMP JUMPDEST PUSH2 0x334 PUSH1 0x8 SLOAD DUP2 JUMP JUMPDEST PUSH2 0x334 PUSH2 0x4BC CALLDATASIZE PUSH1 0x4 PUSH2 0x2869 JUMP JUMPDEST PUSH2 0xEC2 JUMP JUMPDEST PUSH2 0x334 PUSH1 0xA SLOAD DUP2 JUMP JUMPDEST PUSH2 0x30E PUSH2 0x4D8 CALLDATASIZE PUSH1 0x4 PUSH2 0x2951 JUMP JUMPDEST PUSH2 0xEDD JUMP JUMPDEST PUSH2 0x334 PUSH1 0x9 SLOAD DUP2 JUMP JUMPDEST PUSH2 0x30E PUSH2 0x4F4 CALLDATASIZE PUSH1 0x4 PUSH2 0x29CB JUMP JUMPDEST PUSH2 0xF2A JUMP JUMPDEST PUSH2 0x334 PUSH1 0xC SLOAD DUP2 JUMP JUMPDEST PUSH1 0xE SLOAD PUSH2 0x323 SWAP1 PUSH1 0x1 PUSH1 0x1 PUSH1 0xA0 SHL SUB AND DUP2 JUMP JUMPDEST PUSH2 0x27F PUSH2 0x523 CALLDATASIZE PUSH1 0x4 PUSH2 0x2969 JUMP JUMPDEST PUSH2 0x117E JUMP JUMPDEST PUSH2 0x2DB PUSH2 0x11A9 JUMP JUMPDEST PUSH2 0x334 PUSH1 0x0 DUP2 JUMP JUMPDEST PUSH2 0x30E PUSH2 0x546 CALLDATASIZE PUSH1 0x4 PUSH2 0x2869 JUMP JUMPDEST PUSH2 0x11B8 JUMP JUMPDEST PUSH2 0x334 PUSH1 0x13 SLOAD DUP2 JUMP JUMPDEST PUSH1 0xD SLOAD PUSH2 0x323 SWAP1 PUSH3 0x10000 SWAP1 DIV PUSH1 0x1 PUSH1 0x1 PUSH1 0xA0 SHL SUB AND DUP2 JUMP JUMPDEST PUSH2 0x27F PUSH2 0x57B CALLDATASIZE PUSH1 0x4 PUSH2 0x28F0 JUMP JUMPDEST PUSH2 0x122E JUMP JUMPDEST PUSH2 0x334 PUSH1 0xB SLOAD DUP2 JUMP JUMPDEST PUSH2 0x27F PUSH2 0x597 CALLDATASIZE PUSH1 0x4 PUSH2 0x28F0 JUMP JUMPDEST PUSH2 0x12C7 JUMP JUMPDEST PUSH2 0x334 PUSH2 0x12D4 JUMP JUMPDEST PUSH2 0x5B7 PUSH2 0x5B2 CALLDATASIZE PUSH1 0x4 PUSH2 0x28F0 JUMP JUMPDEST PUSH2 0x12EB JUMP JUMPDEST PUSH1 0x40 DUP1 MLOAD SWAP4 DUP5 MSTORE PUSH1 0x20 DUP5 ADD SWAP3 SWAP1 SWAP3 MSTORE ISZERO ISZERO SWAP1 DUP3 ADD MSTORE PUSH1 0x60 ADD PUSH2 0x28B JUMP JUMPDEST PUSH2 0x334 PUSH1 0x0 DUP1 MLOAD PUSH1 0x20 PUSH2 0x2D49 DUP4 CODECOPY DUP2 MLOAD SWAP2 MSTORE DUP2 JUMP JUMPDEST PUSH2 0x30E PUSH2 0x5F7 CALLDATASIZE PUSH1 0x4 PUSH2 0x2951 JUMP JUMPDEST PUSH2 0x1330 JUMP JUMPDEST PUSH2 0x30E PUSH2 0x60A CALLDATASIZE PUSH1 0x4 PUSH2 0x2969 JUMP JUMPDEST PUSH2 0x146F JUMP JUMPDEST PUSH2 0x334 PUSH2 0x148C JUMP JUMPDEST PUSH1 0xD SLOAD PUSH2 0x27F SWAP1 PUSH1 0xFF AND DUP2 JUMP JUMPDEST PUSH2 0x334 PUSH2 0x632 CALLDATASIZE PUSH1 0x4 PUSH2 0x2883 JUMP JUMPDEST PUSH1 0x1 PUSH1 0x1 PUSH1 0xA0 SHL SUB SWAP2 DUP3 AND PUSH1 0x0 SWAP1 DUP2 MSTORE PUSH1 0x1 PUSH1 0x20 SWAP1 DUP2 MSTORE PUSH1 0x40 DUP1 DUP4 KECCAK256 SWAP4 SWAP1 SWAP5 AND DUP3 MSTORE SWAP2 SWAP1 SWAP2 MSTORE KECCAK256 SLOAD SWAP1 JUMP JUMPDEST PUSH2 0x334 PUSH2 0x66B CALLDATASIZE PUSH1 0x4 PUSH2 0x29EF JUMP JUMPDEST PUSH2 0x1511 JUMP JUMPDEST PUSH2 0x334 PUSH1 0x0 DUP1 MLOAD PUSH1 0x20 PUSH2 0x2D69 DUP4 CODECOPY DUP2 MLOAD SWAP2 MSTORE DUP2 JUMP JUMPDEST PUSH2 0x30E PUSH2 0x693 CALLDATASIZE PUSH1 0x4 PUSH2 0x2A10 JUMP JUMPDEST PUSH2 0x1879 JUMP JUMPDEST PUSH1 0xD SLOAD PUSH2 0x27F SWAP1 PUSH2 0x100 SWAP1 DIV PUSH1 0xFF AND DUP2 JUMP JUMPDEST PUSH2 0x334 PUSH1 0x14 SLOAD DUP2 JUMP JUMPDEST PUSH1 0x0 PUSH1 0x1 PUSH1 0x1 PUSH1 0xE0 SHL SUB NOT DUP3 AND PUSH4 0x7965DB0B PUSH1 0xE0 SHL EQ DUP1 PUSH2 0x6E4 JUMPI POP PUSH4 0x1FFC9A7 PUSH1 0xE0 SHL PUSH1 0x1 PUSH1 0x1 PUSH1 0xE0 SHL SUB NOT DUP4 AND EQ JUMPDEST SWAP3 SWAP2 POP POP JUMP JUMPDEST PUSH1 0x60 PUSH1 0x6 DUP1 SLOAD PUSH2 0x6F9 SWAP1 PUSH2 0x2C84 JUMP JUMPDEST DUP1 PUSH1 0x1F ADD PUSH1 0x20 DUP1 SWAP2 DIV MUL PUSH1 0x20 ADD PUSH1 0x40 MLOAD SWAP1 DUP2 ADD PUSH1 0x40 MSTORE DUP1 SWAP3 SWAP2 SWAP1 DUP2 DUP2 MSTORE PUSH1 0x20 ADD DUP3 DUP1 SLOAD PUSH2 0x725 SWAP1 PUSH2 0x2C84 JUMP JUMPDEST DUP1 ISZERO PUSH2 0x772 JUMPI DUP1 PUSH1 0x1F LT PUSH2 0x747 JUMPI PUSH2 0x100 DUP1 DUP4 SLOAD DIV MUL DUP4 MSTORE SWAP2 PUSH1 0x20 ADD SWAP2 PUSH2 0x772 JUMP JUMPDEST DUP3 ADD SWAP2 SWAP1 PUSH1 0x0 MSTORE PUSH1 0x20 PUSH1 0x0 KECCAK256 SWAP1 JUMPDEST DUP2 SLOAD DUP2 MSTORE SWAP1 PUSH1 0x1 ADD SWAP1 PUSH1 0x20 ADD DUP1 DUP4 GT PUSH2 0x755 JUMPI DUP3 SWAP1 SUB PUSH1 0x1F AND DUP3 ADD SWAP2 JUMPDEST POP POP POP POP POP SWAP1 POP SWAP1 JUMP JUMPDEST PUSH1 0x0 PUSH2 0x789 CALLER DUP5 DUP5 PUSH2 0x1AA9 JUMP JUMPDEST POP PUSH1 0x1 SWAP3 SWAP2 POP POP JUMP JUMPDEST PUSH2 0x79B DUP2 PUSH2 0x1BCD JUMP JUMPDEST POP POP JUMP JUMPDEST PUSH1 0x0 DUP1 PUSH2 0x7AB PUSH1 0x2 SLOAD SWAP1 JUMP JUMPDEST GT ISZERO PUSH2 0x7D9 JUMPI PUSH1 0x2 SLOAD PUSH2 0x7BD DUP4 PUSH2 0xEC2 JUMP JUMPDEST PUSH2 0x7C5 PUSH2 0x148C JUMP JUMPDEST PUSH2 0x7CF SWAP2 SWAP1 PUSH2 0x2C0B JUMP JUMPDEST PUSH2 0x6E4 SWAP2 SWAP1 PUSH2 0x2BF7 JUMP JUMPDEST POP PUSH1 0x0 JUMPDEST SWAP2 SWAP1 POP JUMP JUMPDEST PUSH1 0x0 PUSH2 0x7EF DUP5 DUP5 DUP5 PUSH2 0x1C8C JUMP JUMPDEST PUSH1 0x1 PUSH1 0x1 PUSH1 0xA0 SHL SUB DUP5 AND PUSH1 0x0 SWAP1 DUP2 MSTORE PUSH1 0x1 PUSH1 0x20 SWAP1 DUP2 MSTORE PUSH1 0x40 DUP1 DUP4 KECCAK256 CALLER DUP5 MSTORE SWAP1 SWAP2 MSTORE SWAP1 KECCAK256 SLOAD DUP3 DUP2 LT ISZERO PUSH2 0x879 JUMPI PUSH1 0x40 MLOAD PUSH3 0x461BCD PUSH1 0xE5 SHL DUP2 MSTORE PUSH1 0x20 PUSH1 0x4 DUP3 ADD MSTORE PUSH1 0x28 PUSH1 0x24 DUP3 ADD MSTORE PUSH32 0x45524332303A207472616E7366657220616D6F756E7420657863656564732061 PUSH1 0x44 DUP3 ADD MSTORE PUSH8 0x6C6C6F77616E6365 PUSH1 0xC0 SHL PUSH1 0x64 DUP3 ADD MSTORE PUSH1 0x84 ADD JUMPDEST PUSH1 0x40 MLOAD DUP1 SWAP2 SUB SWAP1 REVERT JUMPDEST PUSH2 0x886 DUP6 CALLER DUP6 DUP5 SUB PUSH2 0x1AA9 JUMP JUMPDEST POP PUSH1 0x1 SWAP5 SWAP4 POP POP POP POP JUMP JUMPDEST PUSH1 0x0 SWAP1 DUP2 MSTORE PUSH1 0x5 PUSH1 0x20 MSTORE PUSH1 0x40 SWAP1 KECCAK256 PUSH1 0x1 ADD SLOAD SWAP1 JUMP JUMPDEST PUSH1 0xD SLOAD PUSH1 0xFF AND ISZERO PUSH2 0x8BB JUMPI PUSH2 0x79B DUP2 CALLER PUSH2 0x1E48 JUMP JUMPDEST PUSH1 0xD SLOAD PUSH2 0x100 SWAP1 DIV PUSH1 0xFF AND PUSH2 0x92A JUMPI PUSH1 0x40 MLOAD PUSH3 0x461BCD PUSH1 0xE5 SHL DUP2 MSTORE PUSH1 0x20 PUSH1 0x4 DUP3 ADD MSTORE PUSH1 0x2F PUSH1 0x24 DUP3 ADD MSTORE PUSH32 0x506F6F6C3A204E6F7420616363657074696E6720776974686472617720726571 PUSH1 0x44 DUP3 ADD MSTORE PUSH15 0x75657374732063757272656E746C79 PUSH1 0x88 SHL PUSH1 0x64 DUP3 ADD MSTORE PUSH1 0x84 ADD PUSH2 0x870 JUMP JUMPDEST PUSH2 0x934 DUP2 CALLER PUSH2 0x20DB JUMP JUMPDEST POP JUMP JUMPDEST PUSH2 0x940 DUP3 PUSH2 0x891 JUMP JUMPDEST PUSH2 0x94A DUP2 CALLER PUSH2 0x229C JUMP JUMPDEST PUSH2 0x954 DUP4 DUP4 PUSH2 0x2300 JUMP JUMPDEST POP POP POP JUMP JUMPDEST PUSH1 0x10 SLOAD PUSH1 0x40 DUP1 MLOAD PUSH4 0x313CE567 PUSH1 0xE0 SHL DUP2 MSTORE SWAP1 MLOAD PUSH1 0x0 SWAP3 PUSH1 0x1 PUSH1 0x1 PUSH1 0xA0 SHL SUB AND SWAP2 PUSH4 0x313CE567 SWAP2 PUSH1 0x4 DUP1 DUP4 ADD SWAP3 PUSH1 0x20 SWAP3 SWAP2 SWAP1 DUP3 SWAP1 SUB ADD DUP2 DUP7 DUP1 EXTCODESIZE ISZERO DUP1 ISZERO PUSH2 0x99E JUMPI PUSH1 0x0 DUP1 REVERT JUMPDEST POP GAS STATICCALL ISZERO DUP1 ISZERO PUSH2 0x9B2 JUMPI RETURNDATASIZE PUSH1 0x0 DUP1 RETURNDATACOPY RETURNDATASIZE PUSH1 0x0 REVERT JUMPDEST POP POP POP POP PUSH1 0x40 MLOAD RETURNDATASIZE PUSH1 0x1F NOT PUSH1 0x1F DUP3 ADD AND DUP3 ADD DUP1 PUSH1 0x40 MSTORE POP DUP2 ADD SWAP1 PUSH2 0x9D6 SWAP2 SWAP1 PUSH2 0x2A3B JUMP JUMPDEST SWAP1 POP SWAP1 JUMP JUMPDEST PUSH1 0x0 DUP1 MLOAD PUSH1 0x20 PUSH2 0x2D49 DUP4 CODECOPY DUP2 MLOAD SWAP2 MSTORE PUSH2 0x9F4 DUP2 CALLER PUSH2 0x229C JUMP JUMPDEST PUSH1 0xD DUP1 SLOAD PUSH1 0xFF NOT AND DUP4 ISZERO ISZERO SWAP1 DUP2 OR SWAP1 SWAP2 SSTORE PUSH1 0x40 MLOAD PUSH1 0xFF SWAP1 SWAP2 AND ISZERO ISZERO DUP2 MSTORE PUSH32 0x66DCC649B45C6952C1670EC25EF87365AA2DD37383BA36A7696B30B304932D9F SWAP1 PUSH1 0x20 ADD JUMPDEST PUSH1 0x40 MLOAD DUP1 SWAP2 SUB SWAP1 LOG1 POP POP JUMP JUMPDEST PUSH1 0x1 PUSH1 0x1 PUSH1 0xA0 SHL SUB DUP2 AND CALLER EQ PUSH2 0xAB3 JUMPI PUSH1 0x40 MLOAD PUSH3 0x461BCD PUSH1 0xE5 SHL DUP2 MSTORE PUSH1 0x20 PUSH1 0x4 DUP3 ADD MSTORE PUSH1 0x2F PUSH1 0x24 DUP3 ADD MSTORE PUSH32 0x416363657373436F6E74726F6C3A2063616E206F6E6C792072656E6F756E6365 PUSH1 0x44 DUP3 ADD MSTORE PUSH15 0x103937B632B9903337B91039B2B633 PUSH1 0x89 SHL PUSH1 0x64 DUP3 ADD MSTORE PUSH1 0x84 ADD PUSH2 0x870 JUMP JUMPDEST PUSH2 0x79B DUP3 DUP3 PUSH2 0x2386 JUMP JUMPDEST CALLER PUSH1 0x0 DUP2 DUP2 MSTORE PUSH1 0x1 PUSH1 0x20 SWAP1 DUP2 MSTORE PUSH1 0x40 DUP1 DUP4 KECCAK256 PUSH1 0x1 PUSH1 0x1 PUSH1 0xA0 SHL SUB DUP8 AND DUP5 MSTORE SWAP1 SWAP2 MSTORE DUP2 KECCAK256 SLOAD SWAP1 SWAP2 PUSH2 0x789 SWAP2 DUP6 SWAP1 PUSH2 0xAF4 SWAP1 DUP7 SWAP1 PUSH2 0x2BDF JUMP JUMPDEST PUSH2 0x1AA9 JUMP JUMPDEST PUSH1 0x0 DUP1 MLOAD PUSH1 0x20 PUSH2 0x2D49 DUP4 CODECOPY DUP2 MLOAD SWAP2 MSTORE PUSH2 0xB12 DUP2 CALLER PUSH2 0x229C JUMP JUMPDEST PUSH2 0xB1C DUP3 DUP5 PUSH2 0x1E48 JUMP JUMPDEST POP POP POP POP JUMP JUMPDEST PUSH1 0x0 PUSH1 0x14 SLOAD DUP3 PUSH1 0x13 SLOAD PUSH2 0xB35 SWAP2 SWAP1 PUSH2 0x2BDF JUMP JUMPDEST GT PUSH2 0xB4D JUMPI DUP2 PUSH1 0x13 SLOAD PUSH2 0xB48 SWAP2 SWAP1 PUSH2 0x2BDF JUMP JUMPDEST PUSH2 0xB51 JUMP JUMPDEST PUSH1 0x14 SLOAD JUMPDEST PUSH1 0x13 SLOAD SWAP1 SWAP2 POP JUMPDEST DUP2 DUP2 LT ISZERO PUSH2 0xCC2 JUMPI PUSH1 0x0 DUP2 DUP2 MSTORE PUSH1 0x11 PUSH1 0x20 SWAP1 DUP2 MSTORE PUSH1 0x40 DUP1 DUP4 KECCAK256 PUSH1 0x2 DUP2 ADD SLOAD PUSH1 0x1 PUSH1 0x1 PUSH1 0xA0 SHL SUB AND DUP5 MSTORE PUSH1 0x12 SWAP1 SWAP3 MSTORE SWAP1 SWAP2 KECCAK256 PUSH1 0xC SLOAD PUSH1 0x1 DUP4 ADD SLOAD EQ ISZERO PUSH2 0xBFB JUMPI PUSH1 0x40 MLOAD PUSH3 0x461BCD PUSH1 0xE5 SHL DUP2 MSTORE PUSH1 0x20 PUSH1 0x4 DUP3 ADD MSTORE PUSH1 0x33 PUSH1 0x24 DUP3 ADD MSTORE PUSH32 0x43616E27742070726F6365737320746865207265717565737473207768656E20 PUSH1 0x44 DUP3 ADD MSTORE PUSH19 0x74686520726F756E6420697320616374697665 PUSH1 0x68 SHL PUSH1 0x64 DUP3 ADD MSTORE PUSH1 0x84 ADD PUSH2 0x870 JUMP JUMPDEST DUP2 SLOAD PUSH1 0x2 DUP4 ADD SLOAD PUSH2 0xC15 SWAP2 SWAP1 PUSH1 0x1 PUSH1 0x1 PUSH1 0xA0 SHL SUB AND PUSH2 0x1E48 JUMP JUMPDEST POP DUP2 SLOAD PUSH1 0x2 DUP4 ADD SLOAD PUSH1 0x40 MLOAD PUSH32 0x54AC4A5D811F70F5CCE2FFF90E3AF1383F24319F7366866408898370416057B4 SWAP3 PUSH2 0xC59 SWAP3 SWAP1 SWAP2 PUSH1 0x1 PUSH1 0x1 PUSH1 0xA0 SHL SUB SWAP1 SWAP2 AND SWAP1 PUSH2 0x2BC8 JUMP JUMPDEST PUSH1 0x40 MLOAD DUP1 SWAP2 SUB SWAP1 LOG1 PUSH1 0x0 DUP4 DUP2 MSTORE PUSH1 0x11 PUSH1 0x20 MSTORE PUSH1 0x40 DUP2 KECCAK256 DUP2 DUP2 SSTORE PUSH1 0x1 DUP1 DUP3 ADD DUP4 SWAP1 SSTORE PUSH1 0x2 SWAP1 SWAP2 ADD DUP1 SLOAD PUSH1 0x1 PUSH1 0x1 PUSH1 0xA0 SHL SUB NOT AND SWAP1 SSTORE DUP2 DUP4 SSTORE DUP3 ADD DUP1 SLOAD PUSH1 0xFF NOT AND SWAP1 SSTORE PUSH1 0x13 DUP1 SLOAD SWAP2 PUSH2 0xCA8 DUP4 PUSH2 0x2CBF JUMP JUMPDEST SWAP2 SWAP1 POP SSTORE POP POP POP DUP1 DUP1 PUSH2 0xCBA SWAP1 PUSH2 0x2CBF JUMP JUMPDEST SWAP2 POP POP PUSH2 0xB58 JUMP JUMPDEST POP PUSH1 0x14 SLOAD PUSH1 0x13 SLOAD EQ ISZERO PUSH2 0x79B JUMPI PUSH1 0x0 PUSH1 0x13 DUP2 SWAP1 SSTORE PUSH1 0x14 SSTORE PUSH1 0xD DUP1 SLOAD PUSH2 0xFF00 NOT AND PUSH2 0x100 OR SWAP1 SSTORE POP POP JUMP JUMPDEST PUSH1 0x0 DUP1 MLOAD PUSH1 0x20 PUSH2 0x2D69 DUP4 CODECOPY DUP2 MLOAD SWAP2 MSTORE PUSH2 0xD05 DUP2 CALLER PUSH2 0x229C JUMP JUMPDEST CALLER PUSH1 0x0 SWAP1 DUP2 MSTORE PUSH1 0xF PUSH1 0x20 MSTORE PUSH1 0x40 DUP2 KECCAK256 DUP1 SLOAD DUP7 SWAP1 DUP2 LT PUSH2 0xD34 JUMPI PUSH4 0x4E487B71 PUSH1 0xE0 SHL PUSH1 0x0 MSTORE PUSH1 0x32 PUSH1 0x4 MSTORE PUSH1 0x24 PUSH1 0x0 REVERT JUMPDEST PUSH1 0x0 SWAP2 DUP3 MSTORE PUSH1 0x20 SWAP1 SWAP2 KECCAK256 PUSH1 0x3 SWAP1 SWAP2 MUL ADD PUSH1 0x2 DUP2 ADD SLOAD SWAP1 SWAP2 POP PUSH1 0xFF AND PUSH2 0xD9B JUMPI PUSH1 0x40 MLOAD PUSH3 0x461BCD PUSH1 0xE5 SHL DUP2 MSTORE PUSH1 0x20 PUSH1 0x4 DUP3 ADD DUP2 SWAP1 MSTORE PUSH1 0x24 DUP3 ADD MSTORE PUSH32 0x6C6F636B6564416D6F756E7420697320616C726561647920756E6C6F636B6564 PUSH1 0x44 DUP3 ADD MSTORE PUSH1 0x64 ADD PUSH2 0x870 JUMP JUMPDEST DUP3 DUP2 PUSH1 0x1 ADD SLOAD GT ISZERO PUSH2 0xE3F JUMPI PUSH1 0x10 SLOAD PUSH1 0x1 DUP3 ADD SLOAD PUSH1 0x1 PUSH1 0x1 PUSH1 0xA0 SHL SUB SWAP1 SWAP2 AND SWAP1 PUSH4 0xA9059CBB SWAP1 CALLER SWAP1 PUSH2 0xDCE SWAP1 DUP8 SWAP1 PUSH2 0x2C2A JUMP JUMPDEST PUSH1 0x40 MLOAD DUP4 PUSH4 0xFFFFFFFF AND PUSH1 0xE0 SHL DUP2 MSTORE PUSH1 0x4 ADD PUSH2 0xDEB SWAP3 SWAP2 SWAP1 PUSH2 0x2B03 JUMP JUMPDEST PUSH1 0x20 PUSH1 0x40 MLOAD DUP1 DUP4 SUB DUP2 PUSH1 0x0 DUP8 DUP1 EXTCODESIZE ISZERO DUP1 ISZERO PUSH2 0xE05 JUMPI PUSH1 0x0 DUP1 REVERT JUMPDEST POP GAS CALL ISZERO DUP1 ISZERO PUSH2 0xE19 JUMPI RETURNDATASIZE PUSH1 0x0 DUP1 RETURNDATACOPY RETURNDATASIZE PUSH1 0x0 REVERT JUMPDEST POP POP POP POP PUSH1 0x40 MLOAD RETURNDATASIZE PUSH1 0x1F NOT PUSH1 0x1F DUP3 ADD AND DUP3 ADD DUP1 PUSH1 0x40 MSTORE POP DUP2 ADD SWAP1 PUSH2 0xE3D SWAP2 SWAP1 PUSH2 0x2935 JUMP JUMPDEST POP JUMPDEST DUP3 DUP2 PUSH1 0x1 ADD SLOAD PUSH1 0x9 SLOAD PUSH2 0xE52 SWAP2 SWAP1 PUSH2 0x2C2A JUMP JUMPDEST PUSH2 0xE5C SWAP2 SWAP1 PUSH2 0x2BDF JUMP JUMPDEST PUSH1 0x9 SSTORE DUP1 SLOAD PUSH1 0x8 SLOAD DUP6 SWAP2 PUSH2 0xE6F SWAP2 PUSH2 0x2C2A JUMP JUMPDEST PUSH2 0xE79 SWAP2 SWAP1 PUSH2 0x2BDF JUMP JUMPDEST PUSH1 0x8 SSTORE PUSH1 0x1 DUP2 ADD SWAP3 SWAP1 SWAP3 SSTORE POP SSTORE POP JUMP JUMPDEST PUSH1 0x0 PUSH2 0xE94 DUP3 PUSH2 0x1BCD JUMP JUMPDEST SWAP1 POP DUP2 PUSH1 0x0 DUP1 MLOAD PUSH1 0x20 PUSH2 0x2D29 DUP4 CODECOPY DUP2 MLOAD SWAP2 MSTORE DUP3 PUSH1 0x40 MLOAD PUSH2 0xEB6 SWAP2 DUP2 MSTORE PUSH1 0x20 ADD SWAP1 JUMP JUMPDEST PUSH1 0x40 MLOAD DUP1 SWAP2 SUB SWAP1 LOG2 POP POP JUMP JUMPDEST PUSH1 0x1 PUSH1 0x1 PUSH1 0xA0 SHL SUB AND PUSH1 0x0 SWAP1 DUP2 MSTORE PUSH1 0x20 DUP2 SWAP1 MSTORE PUSH1 0x40 SWAP1 KECCAK256 SLOAD SWAP1 JUMP JUMPDEST PUSH1 0x0 DUP1 MLOAD PUSH1 0x20 PUSH2 0x2D49 DUP4 CODECOPY DUP2 MLOAD SWAP2 MSTORE PUSH2 0xEF6 DUP2 CALLER PUSH2 0x229C JUMP JUMPDEST PUSH1 0xA DUP3 SWAP1 SSTORE PUSH1 0x40 MLOAD DUP3 SWAP1 PUSH32 0x2138D5B63F1E1FC5996475C0D8565B0F4CE68622680C894DB2BFD3ECE685D257 SWAP1 PUSH1 0x0 SWAP1 LOG2 POP POP JUMP JUMPDEST PUSH1 0x0 DUP1 MLOAD PUSH1 0x20 PUSH2 0x2D69 DUP4 CODECOPY DUP2 MLOAD SWAP2 MSTORE PUSH2 0xF43 DUP2 CALLER PUSH2 0x229C JUMP JUMPDEST CALLER PUSH1 0x0 SWAP1 DUP2 MSTORE PUSH1 0xF PUSH1 0x20 MSTORE PUSH1 0x40 DUP2 KECCAK256 DUP1 SLOAD DUP7 SWAP1 DUP2 LT PUSH2 0xF72 JUMPI PUSH4 0x4E487B71 PUSH1 0xE0 SHL PUSH1 0x0 MSTORE PUSH1 0x32 PUSH1 0x4 MSTORE PUSH1 0x24 PUSH1 0x0 REVERT JUMPDEST PUSH1 0x0 SWAP2 DUP3 MSTORE PUSH1 0x20 SWAP1 SWAP2 KECCAK256 PUSH1 0x3 SWAP1 SWAP2 MUL ADD PUSH1 0x2 DUP2 ADD SLOAD SWAP1 SWAP2 POP PUSH1 0xFF AND PUSH2 0xFA9 JUMPI PUSH1 0x40 MLOAD PUSH3 0x461BCD PUSH1 0xE5 SHL DUP2 MSTORE PUSH1 0x4 ADD PUSH2 0x870 SWAP1 PUSH2 0x2B4F JUMP JUMPDEST PUSH1 0x1 PUSH1 0x1 PUSH1 0xA0 SHL SUB DUP5 AND PUSH2 0xFBC JUMPI PUSH1 0x0 DUP1 REVERT JUMPDEST PUSH1 0x2 DUP2 ADD DUP1 SLOAD PUSH1 0xFF NOT AND SWAP1 SSTORE PUSH1 0x1 DUP2 ADD SLOAD PUSH1 0x9 SLOAD PUSH2 0xFDA SWAP2 SWAP1 PUSH2 0x2C2A JUMP JUMPDEST PUSH1 0x9 SSTORE DUP1 SLOAD PUSH1 0x8 SLOAD PUSH2 0xFEC SWAP2 SWAP1 PUSH2 0x2C2A JUMP JUMPDEST PUSH1 0x8 SSTORE DUP1 SLOAD PUSH1 0x0 SWAP1 DUP5 GT PUSH2 0x1000 JUMPI DUP4 PUSH2 0x1003 JUMP JUMPDEST DUP2 SLOAD JUMPDEST PUSH1 0x10 SLOAD PUSH1 0x40 MLOAD PUSH4 0xA9059CBB PUSH1 0xE0 SHL DUP2 MSTORE SWAP2 SWAP3 POP PUSH1 0x0 SWAP2 PUSH1 0x1 PUSH1 0x1 PUSH1 0xA0 SHL SUB SWAP1 SWAP2 AND SWAP1 PUSH4 0xA9059CBB SWAP1 PUSH2 0x103B SWAP1 DUP10 SWAP1 DUP7 SWAP1 PUSH1 0x4 ADD PUSH2 0x2B03 JUMP JUMPDEST PUSH1 0x20 PUSH1 0x40 MLOAD DUP1 DUP4 SUB DUP2 PUSH1 0x0 DUP8 DUP1 EXTCODESIZE ISZERO DUP1 ISZERO PUSH2 0x1055 JUMPI PUSH1 0x0 DUP1 REVERT JUMPDEST POP GAS CALL ISZERO DUP1 ISZERO PUSH2 0x1069 JUMPI RETURNDATASIZE PUSH1 0x0 DUP1 RETURNDATACOPY RETURNDATASIZE PUSH1 0x0 REVERT JUMPDEST POP POP POP POP PUSH1 0x40 MLOAD RETURNDATASIZE PUSH1 0x1F NOT PUSH1 0x1F DUP3 ADD AND DUP3 ADD DUP1 PUSH1 0x40 MSTORE POP DUP2 ADD SWAP1 PUSH2 0x108D SWAP2 SWAP1 PUSH2 0x2935 JUMP JUMPDEST SWAP1 POP DUP1 PUSH2 0x10F0 JUMPI PUSH1 0x40 MLOAD PUSH3 0x461BCD PUSH1 0xE5 SHL DUP2 MSTORE PUSH1 0x20 PUSH1 0x4 DUP3 ADD MSTORE PUSH1 0x2B PUSH1 0x24 DUP3 ADD MSTORE PUSH32 0x506F6F6C3A20546865205061796F7574207472616E73666572206469646E2774 PUSH1 0x44 DUP3 ADD MSTORE PUSH11 0x40CEDE40E8D0E4DEEACED PUSH1 0xAB SHL PUSH1 0x64 DUP3 ADD MSTORE PUSH1 0x84 ADD PUSH2 0x870 JUMP JUMPDEST DUP3 PUSH1 0x1 ADD SLOAD DUP3 GT PUSH2 0x1131 JUMPI DUP7 PUSH1 0x0 DUP1 MLOAD PUSH1 0x20 PUSH2 0x2D29 DUP4 CODECOPY DUP2 MLOAD SWAP2 MSTORE DUP4 DUP6 PUSH1 0x1 ADD SLOAD PUSH2 0x111B SWAP2 SWAP1 PUSH2 0x2C2A JUMP JUMPDEST PUSH1 0x40 MLOAD SWAP1 DUP2 MSTORE PUSH1 0x20 ADD PUSH1 0x40 MLOAD DUP1 SWAP2 SUB SWAP1 LOG2 PUSH2 0x1175 JUMP JUMPDEST DUP7 PUSH32 0x86F83F021A5ECB92D6DCAEC11BE9DA0E65B5401CE748AC3C1F0DDBAE029F55CE DUP5 PUSH1 0x1 ADD SLOAD DUP5 PUSH2 0x1163 SWAP2 SWAP1 PUSH2 0x2C2A JUMP JUMPDEST PUSH1 0x40 MLOAD SWAP1 DUP2 MSTORE PUSH1 0x20 ADD PUSH1 0x40 MLOAD DUP1 SWAP2 SUB SWAP1 LOG2 JUMPDEST POP POP POP POP POP POP POP JUMP JUMPDEST PUSH1 0x0 SWAP2 DUP3 MSTORE PUSH1 0x5 PUSH1 0x20 SWAP1 DUP2 MSTORE PUSH1 0x40 DUP1 DUP5 KECCAK256 PUSH1 0x1 PUSH1 0x1 PUSH1 0xA0 SHL SUB SWAP4 SWAP1 SWAP4 AND DUP5 MSTORE SWAP2 SWAP1 MSTORE SWAP1 KECCAK256 SLOAD PUSH1 0xFF AND SWAP1 JUMP JUMPDEST PUSH1 0x60 PUSH1 0x7 DUP1 SLOAD PUSH2 0x6F9 SWAP1 PUSH2 0x2C84 JUMP JUMPDEST PUSH1 0x0 PUSH2 0x11C4 DUP2 CALLER PUSH2 0x229C JUMP JUMPDEST PUSH2 0x11DC PUSH1 0x0 DUP1 MLOAD PUSH1 0x20 PUSH2 0x2D49 DUP4 CODECOPY DUP2 MLOAD SWAP2 MSTORE DUP4 PUSH2 0x937 JUMP JUMPDEST PUSH1 0xD DUP1 SLOAD PUSH3 0x10000 PUSH1 0x1 PUSH1 0xB0 SHL SUB NOT AND PUSH3 0x10000 PUSH1 0x1 PUSH1 0x1 PUSH1 0xA0 SHL SUB DUP6 AND MUL OR SWAP1 SSTORE PUSH1 0x40 MLOAD PUSH32 0xB36DB503700BF425DC3B747B57DA91CB2E39A0D909ADA3206BD18B034D7053CA SWAP1 PUSH2 0xA37 SWAP1 DUP5 SWAP1 PUSH2 0x2ACB JUMP JUMPDEST CALLER PUSH1 0x0 SWAP1 DUP2 MSTORE PUSH1 0x1 PUSH1 0x20 SWAP1 DUP2 MSTORE PUSH1 0x40 DUP1 DUP4 KECCAK256 PUSH1 0x1 PUSH1 0x1 PUSH1 0xA0 SHL SUB DUP7 AND DUP5 MSTORE SWAP1 SWAP2 MSTORE DUP2 KECCAK256 SLOAD DUP3 DUP2 LT ISZERO PUSH2 0x12B0 JUMPI PUSH1 0x40 MLOAD PUSH3 0x461BCD PUSH1 0xE5 SHL DUP2 MSTORE PUSH1 0x20 PUSH1 0x4 DUP3 ADD MSTORE PUSH1 0x25 PUSH1 0x24 DUP3 ADD MSTORE PUSH32 0x45524332303A2064656372656173656420616C6C6F77616E63652062656C6F77 PUSH1 0x44 DUP3 ADD MSTORE PUSH5 0x207A65726F PUSH1 0xD8 SHL PUSH1 0x64 DUP3 ADD MSTORE PUSH1 0x84 ADD PUSH2 0x870 JUMP JUMPDEST PUSH2 0x12BD CALLER DUP6 DUP6 DUP5 SUB PUSH2 0x1AA9 JUMP JUMPDEST POP PUSH1 0x1 SWAP4 SWAP3 POP POP POP JUMP JUMPDEST PUSH1 0x0 PUSH2 0x789 CALLER DUP5 DUP5 PUSH2 0x1C8C JUMP JUMPDEST PUSH1 0x0 PUSH1 0x8 SLOAD PUSH2 0x12E1 PUSH2 0x148C JUMP JUMPDEST PUSH2 0x9D6 SWAP2 SWAP1 PUSH2 0x2C2A JUMP JUMPDEST PUSH1 0xF PUSH1 0x20 MSTORE DUP2 PUSH1 0x0 MSTORE PUSH1 0x40 PUSH1 0x0 KECCAK256 DUP2 DUP2 SLOAD DUP2 LT PUSH2 0x1307 JUMPI PUSH1 0x0 DUP1 REVERT JUMPDEST PUSH1 0x0 SWAP2 DUP3 MSTORE PUSH1 0x20 SWAP1 SWAP2 KECCAK256 PUSH1 0x3 SWAP1 SWAP2 MUL ADD DUP1 SLOAD PUSH1 0x1 DUP3 ADD SLOAD PUSH1 0x2 SWAP1 SWAP3 ADD SLOAD SWAP1 SWAP4 POP SWAP1 SWAP2 POP PUSH1 0xFF AND DUP4 JUMP JUMPDEST PUSH1 0x0 DUP1 MLOAD PUSH1 0x20 PUSH2 0x2D49 DUP4 CODECOPY DUP2 MLOAD SWAP2 MSTORE PUSH2 0x1349 DUP2 CALLER PUSH2 0x229C JUMP JUMPDEST PUSH1 0xB SLOAD TIMESTAMP GT PUSH2 0x13A9 JUMPI PUSH1 0x40 MLOAD PUSH3 0x461BCD PUSH1 0xE5 SHL DUP2 MSTORE PUSH1 0x20 PUSH1 0x4 DUP3 ADD MSTORE PUSH1 0x26 PUSH1 0x24 DUP3 ADD MSTORE PUSH32 0x43616E277420726F6C6C206F766572206265666F726520746865206578706972 PUSH1 0x44 DUP3 ADD MSTORE PUSH6 0x7920656E6473 PUSH1 0xD0 SHL PUSH1 0x64 DUP3 ADD MSTORE PUSH1 0x84 ADD PUSH2 0x870 JUMP JUMPDEST PUSH1 0x8 SLOAD ISZERO DUP1 ISZERO PUSH2 0x13B9 JUMPI POP PUSH1 0x9 SLOAD ISZERO JUMPDEST PUSH2 0x1413 JUMPI PUSH1 0x40 MLOAD PUSH3 0x461BCD PUSH1 0xE5 SHL DUP2 MSTORE PUSH1 0x20 PUSH1 0x4 DUP3 ADD MSTORE PUSH1 0x25 PUSH1 0x24 DUP3 ADD MSTORE PUSH32 0x43757272656E7420726F756E64206861736E277420656E64656420636F6D706C PUSH1 0x44 DUP3 ADD MSTORE PUSH5 0x6574656C79 PUSH1 0xD8 SHL PUSH1 0x64 DUP3 ADD MSTORE PUSH1 0x84 ADD PUSH2 0x870 JUMP JUMPDEST PUSH2 0x141C DUP3 PUSH2 0x23ED JUMP JUMPDEST PUSH1 0xC DUP1 SLOAD SWAP1 PUSH1 0x0 PUSH2 0x142C DUP4 PUSH2 0x2CBF JUMP JUMPDEST SWAP1 SWAP2 SSTORE POP POP PUSH1 0xD DUP1 SLOAD PUSH2 0xFF00 NOT AND SWAP1 SSTORE PUSH1 0xC SLOAD PUSH1 0x40 MLOAD SWAP1 DUP2 MSTORE PUSH32 0xB7D59F17FD712066F944B068E5F63958FB182DAB57679A35484F59E033361E5B SWAP1 PUSH1 0x20 ADD PUSH2 0xA37 JUMP JUMPDEST PUSH2 0x1478 DUP3 PUSH2 0x891 JUMP JUMPDEST PUSH2 0x1482 DUP2 CALLER PUSH2 0x229C JUMP JUMPDEST PUSH2 0x954 DUP4 DUP4 PUSH2 0x2386 JUMP JUMPDEST PUSH1 0x9 SLOAD PUSH1 0x10 SLOAD PUSH1 0x40 MLOAD PUSH4 0x70A08231 PUSH1 0xE0 SHL DUP2 MSTORE PUSH1 0x0 SWAP3 SWAP2 PUSH1 0x1 PUSH1 0x1 PUSH1 0xA0 SHL SUB AND SWAP1 PUSH4 0x70A08231 SWAP1 PUSH2 0x14C1 SWAP1 ADDRESS SWAP1 PUSH1 0x4 ADD PUSH2 0x2ACB JUMP JUMPDEST PUSH1 0x20 PUSH1 0x40 MLOAD DUP1 DUP4 SUB DUP2 DUP7 DUP1 EXTCODESIZE ISZERO DUP1 ISZERO PUSH2 0x14D9 JUMPI PUSH1 0x0 DUP1 REVERT JUMPDEST POP GAS STATICCALL ISZERO DUP1 ISZERO PUSH2 0x14ED JUMPI RETURNDATASIZE PUSH1 0x0 DUP1 RETURNDATACOPY RETURNDATASIZE PUSH1 0x0 REVERT JUMPDEST POP POP POP POP PUSH1 0x40 MLOAD RETURNDATASIZE PUSH1 0x1F NOT PUSH1 0x1F DUP3 ADD AND DUP3 ADD DUP1 PUSH1 0x40 MSTORE POP DUP2 ADD SWAP1 PUSH2 0x12E1 SWAP2 SWAP1 PUSH2 0x29B3 JUMP JUMPDEST PUSH1 0xD SLOAD PUSH1 0x0 SWAP1 PUSH1 0xFF AND ISZERO PUSH2 0x1560 JUMPI PUSH1 0x40 MLOAD PUSH3 0x461BCD PUSH1 0xE5 SHL DUP2 MSTORE PUSH1 0x20 PUSH1 0x4 DUP3 ADD MSTORE PUSH1 0x16 PUSH1 0x24 DUP3 ADD MSTORE PUSH22 0x141BDBDB081A185CC8185B1C9958591E48195B991959 PUSH1 0x52 SHL PUSH1 0x44 DUP3 ADD MSTORE PUSH1 0x64 ADD PUSH2 0x870 JUMP JUMPDEST PUSH1 0x0 PUSH2 0x156B PUSH1 0x2 SLOAD SWAP1 JUMP JUMPDEST PUSH1 0x10 SLOAD PUSH1 0x40 MLOAD PUSH4 0x70A08231 PUSH1 0xE0 SHL DUP2 MSTORE SWAP2 SWAP3 POP PUSH1 0x0 SWAP2 PUSH1 0x1 PUSH1 0x1 PUSH1 0xA0 SHL SUB SWAP1 SWAP2 AND SWAP1 PUSH4 0x70A08231 SWAP1 PUSH2 0x15A1 SWAP1 ADDRESS SWAP1 PUSH1 0x4 ADD PUSH2 0x2ACB JUMP JUMPDEST PUSH1 0x20 PUSH1 0x40 MLOAD DUP1 DUP4 SUB DUP2 DUP7 DUP1 EXTCODESIZE ISZERO DUP1 ISZERO PUSH2 0x15B9 JUMPI PUSH1 0x0 DUP1 REVERT JUMPDEST POP GAS STATICCALL ISZERO DUP1 ISZERO PUSH2 0x15CD JUMPI RETURNDATASIZE PUSH1 0x0 DUP1 RETURNDATACOPY RETURNDATASIZE PUSH1 0x0 REVERT JUMPDEST POP POP POP POP PUSH1 0x40 MLOAD RETURNDATASIZE PUSH1 0x1F NOT PUSH1 0x1F DUP3 ADD AND DUP3 ADD DUP1 PUSH1 0x40 MSTORE POP DUP2 ADD SWAP1 PUSH2 0x15F1 SWAP2 SWAP1 PUSH2 0x29B3 JUMP JUMPDEST PUSH1 0xA SLOAD SWAP1 SWAP2 POP PUSH2 0x1601 DUP7 DUP4 PUSH2 0x2BDF JUMP JUMPDEST GT ISZERO PUSH2 0x165F JUMPI PUSH1 0x40 MLOAD PUSH3 0x461BCD PUSH1 0xE5 SHL DUP2 MSTORE PUSH1 0x20 PUSH1 0x4 DUP3 ADD MSTORE PUSH1 0x27 PUSH1 0x24 DUP3 ADD MSTORE PUSH32 0x506F6F6C2068617320616C726561647920726561636865642069742773206D61 PUSH1 0x44 DUP3 ADD MSTORE PUSH7 0x1E081B1A5B5A5D PUSH1 0xCA SHL PUSH1 0x64 DUP3 ADD MSTORE PUSH1 0x84 ADD PUSH2 0x870 JUMP JUMPDEST PUSH1 0x0 DUP3 GT DUP1 ISZERO PUSH2 0x166F JUMPI POP PUSH1 0x0 DUP2 GT JUMPDEST ISZERO PUSH2 0x1690 JUMPI DUP1 PUSH2 0x167F DUP4 DUP8 PUSH2 0x2C0B JUMP JUMPDEST PUSH2 0x1689 SWAP2 SWAP1 PUSH2 0x2BF7 JUMP JUMPDEST SWAP3 POP PUSH2 0x169F JUMP JUMPDEST PUSH2 0x169C PUSH2 0x3E8 DUP7 PUSH2 0x2C0B JUMP JUMPDEST SWAP3 POP JUMPDEST DUP4 DUP4 LT ISZERO PUSH2 0x16EF JUMPI PUSH1 0x40 MLOAD PUSH3 0x461BCD PUSH1 0xE5 SHL DUP2 MSTORE PUSH1 0x20 PUSH1 0x4 DUP3 ADD MSTORE PUSH1 0x1D PUSH1 0x24 DUP3 ADD MSTORE PUSH32 0x506F6F6C3A204D696E74206C696D697420697320746F6F206C61726765000000 PUSH1 0x44 DUP3 ADD MSTORE PUSH1 0x64 ADD PUSH2 0x870 JUMP JUMPDEST PUSH1 0x0 DUP4 GT PUSH2 0x170F JUMPI PUSH1 0x40 MLOAD PUSH3 0x461BCD PUSH1 0xE5 SHL DUP2 MSTORE PUSH1 0x4 ADD PUSH2 0x870 SWAP1 PUSH2 0x2B95 JUMP JUMPDEST PUSH1 0x10 SLOAD PUSH1 0x40 MLOAD PUSH4 0x23B872DD PUSH1 0xE0 SHL DUP2 MSTORE PUSH1 0x0 SWAP2 PUSH1 0x1 PUSH1 0x1 PUSH1 0xA0 SHL SUB AND SWAP1 PUSH4 0x23B872DD SWAP1 PUSH2 0x1744 SWAP1 CALLER SWAP1 ADDRESS SWAP1 DUP12 SWAP1 PUSH1 0x4 ADD PUSH2 0x2ADF JUMP JUMPDEST PUSH1 0x20 PUSH1 0x40 MLOAD DUP1 DUP4 SUB DUP2 PUSH1 0x0 DUP8 DUP1 EXTCODESIZE ISZERO DUP1 ISZERO PUSH2 0x175E JUMPI PUSH1 0x0 DUP1 REVERT JUMPDEST POP GAS CALL ISZERO DUP1 ISZERO PUSH2 0x1772 JUMPI RETURNDATASIZE PUSH1 0x0 DUP1 RETURNDATACOPY RETURNDATASIZE PUSH1 0x0 REVERT JUMPDEST POP POP POP POP PUSH1 0x40 MLOAD RETURNDATASIZE PUSH1 0x1F NOT PUSH1 0x1F DUP3 ADD AND DUP3 ADD DUP1 PUSH1 0x40 MSTORE POP DUP2 ADD SWAP1 PUSH2 0x1796 SWAP2 SWAP1 PUSH2 0x2935 JUMP JUMPDEST SWAP1 POP DUP1 PUSH2 0x17F4 JUMPI PUSH1 0x40 MLOAD PUSH3 0x461BCD PUSH1 0xE5 SHL DUP2 MSTORE PUSH1 0x20 PUSH1 0x4 DUP3 ADD MSTORE PUSH1 0x26 PUSH1 0x24 DUP3 ADD MSTORE PUSH32 0x5468652050726F76696465207472616E73666572206469646E277420676F2074 PUSH1 0x44 DUP3 ADD MSTORE PUSH6 0xD0E4DEEACED PUSH1 0xD3 SHL PUSH1 0x64 DUP3 ADD MSTORE PUSH1 0x84 ADD PUSH2 0x870 JUMP JUMPDEST PUSH1 0x0 PUSH2 0x1802 PUSH2 0x3E8 DUP7 PUSH2 0x2BF7 JUMP JUMPDEST SWAP1 POP PUSH1 0x0 PUSH2 0x1810 DUP3 DUP8 PUSH2 0x2C2A JUMP JUMPDEST SWAP1 POP PUSH2 0x181C CALLER DUP3 PUSH2 0x2428 JUMP JUMPDEST PUSH1 0xE SLOAD PUSH2 0x1832 SWAP1 PUSH1 0x1 PUSH1 0x1 PUSH1 0xA0 SHL SUB AND DUP4 PUSH2 0x2428 JUMP JUMPDEST PUSH1 0x40 DUP1 MLOAD DUP10 DUP2 MSTORE PUSH1 0x20 DUP2 ADD DUP4 SWAP1 MSTORE CALLER SWAP2 PUSH32 0x4089141EA5E4C16575F5EBF65F1786497EA07C175846FC7745EF8D8986A4FF65 SWAP2 ADD JUMPDEST PUSH1 0x40 MLOAD DUP1 SWAP2 SUB SWAP1 LOG2 POP POP POP POP POP SWAP3 SWAP2 POP POP JUMP JUMPDEST PUSH1 0x0 DUP1 MLOAD PUSH1 0x20 PUSH2 0x2D69 DUP4 CODECOPY DUP2 MLOAD SWAP2 MSTORE PUSH2 0x1892 DUP2 CALLER PUSH2 0x229C JUMP JUMPDEST CALLER PUSH1 0x0 SWAP1 DUP2 MSTORE PUSH1 0xF PUSH1 0x20 MSTORE PUSH1 0x40 SWAP1 KECCAK256 SLOAD DUP5 EQ PUSH2 0x18DB JUMPI PUSH1 0x40 MLOAD PUSH3 0x461BCD PUSH1 0xE5 SHL DUP2 MSTORE PUSH1 0x20 PUSH1 0x4 DUP3 ADD MSTORE PUSH1 0x8 PUSH1 0x24 DUP3 ADD MSTORE PUSH8 0x15DC9BDB99C81A59 PUSH1 0xC2 SHL PUSH1 0x44 DUP3 ADD MSTORE PUSH1 0x64 ADD PUSH2 0x870 JUMP JUMPDEST PUSH2 0x18E3 PUSH2 0x148C JUMP JUMPDEST DUP4 PUSH1 0x8 SLOAD PUSH2 0x18F1 SWAP2 SWAP1 PUSH2 0x2BDF JUMP JUMPDEST GT ISZERO PUSH2 0x193C JUMPI PUSH1 0x40 MLOAD PUSH3 0x461BCD PUSH1 0xE5 SHL DUP2 MSTORE PUSH1 0x20 PUSH1 0x4 DUP3 ADD MSTORE PUSH1 0x1A PUSH1 0x24 DUP3 ADD MSTORE PUSH26 0x2837B7B61D1020B6B7BAB73A1034B9903A37B7903630B933B297 PUSH1 0x31 SHL PUSH1 0x44 DUP3 ADD MSTORE PUSH1 0x64 ADD PUSH2 0x870 JUMP JUMPDEST PUSH1 0x10 SLOAD PUSH1 0x40 MLOAD PUSH4 0x23B872DD PUSH1 0xE0 SHL DUP2 MSTORE PUSH1 0x0 SWAP2 PUSH1 0x1 PUSH1 0x1 PUSH1 0xA0 SHL SUB AND SWAP1 PUSH4 0x23B872DD SWAP1 PUSH2 0x1971 SWAP1 CALLER SWAP1 ADDRESS SWAP1 DUP9 SWAP1 PUSH1 0x4 ADD PUSH2 0x2ADF JUMP JUMPDEST PUSH1 0x20 PUSH1 0x40 MLOAD DUP1 DUP4 SUB DUP2 PUSH1 0x0 DUP8 DUP1 EXTCODESIZE ISZERO DUP1 ISZERO PUSH2 0x198B JUMPI PUSH1 0x0 DUP1 REVERT JUMPDEST POP GAS CALL ISZERO DUP1 ISZERO PUSH2 0x199F JUMPI RETURNDATASIZE PUSH1 0x0 DUP1 RETURNDATACOPY RETURNDATASIZE PUSH1 0x0 REVERT JUMPDEST POP POP POP POP PUSH1 0x40 MLOAD RETURNDATASIZE PUSH1 0x1F NOT PUSH1 0x1F DUP3 ADD AND DUP3 ADD DUP1 PUSH1 0x40 MSTORE POP DUP2 ADD SWAP1 PUSH2 0x19C3 SWAP2 SWAP1 PUSH2 0x2935 JUMP JUMPDEST SWAP1 POP DUP1 PUSH2 0x1A21 JUMPI PUSH1 0x40 MLOAD PUSH3 0x461BCD PUSH1 0xE5 SHL DUP2 MSTORE PUSH1 0x20 PUSH1 0x4 DUP3 ADD MSTORE PUSH1 0x26 PUSH1 0x24 DUP3 ADD MSTORE PUSH32 0x546865205072656D69756D207472616E73666572206469646E277420676F2074 PUSH1 0x44 DUP3 ADD MSTORE PUSH6 0xD0E4DEEACED PUSH1 0xD3 SHL PUSH1 0x64 DUP3 ADD MSTORE PUSH1 0x84 ADD PUSH2 0x870 JUMP JUMPDEST CALLER PUSH1 0x0 SWAP1 DUP2 MSTORE PUSH1 0xF PUSH1 0x20 SWAP1 DUP2 MSTORE PUSH1 0x40 DUP1 DUP4 KECCAK256 DUP2 MLOAD PUSH1 0x60 DUP2 ADD DUP4 MSTORE DUP9 DUP2 MSTORE DUP1 DUP5 ADD DUP9 DUP2 MSTORE PUSH1 0x1 SWAP4 DUP3 ADD DUP5 DUP2 MSTORE DUP4 SLOAD DUP1 DUP7 ADD DUP6 SSTORE SWAP4 DUP8 MSTORE SWAP5 SWAP1 SWAP6 KECCAK256 SWAP1 MLOAD PUSH1 0x3 SWAP1 SWAP3 MUL ADD SWAP1 DUP2 SSTORE SWAP3 MLOAD SWAP1 DUP4 ADD SSTORE MLOAD PUSH1 0x2 SWAP1 SWAP2 ADD DUP1 SLOAD PUSH1 0xFF NOT AND SWAP2 ISZERO ISZERO SWAP2 SWAP1 SWAP2 OR SWAP1 SSTORE PUSH1 0x9 SLOAD PUSH2 0x1A8E SWAP1 DUP5 SWAP1 PUSH2 0x2BDF JUMP JUMPDEST PUSH1 0x9 SSTORE PUSH1 0x8 SLOAD PUSH2 0x1A9F SWAP1 DUP6 SWAP1 PUSH2 0x2BDF JUMP JUMPDEST PUSH1 0x8 SSTORE POP POP POP POP POP JUMP JUMPDEST PUSH1 0x1 PUSH1 0x1 PUSH1 0xA0 SHL SUB DUP4 AND PUSH2 0x1B0B JUMPI PUSH1 0x40 MLOAD PUSH3 0x461BCD PUSH1 0xE5 SHL DUP2 MSTORE PUSH1 0x20 PUSH1 0x4 DUP3 ADD MSTORE PUSH1 0x24 DUP1 DUP3 ADD MSTORE PUSH32 0x45524332303A20617070726F76652066726F6D20746865207A65726F20616464 PUSH1 0x44 DUP3 ADD MSTORE PUSH4 0x72657373 PUSH1 0xE0 SHL PUSH1 0x64 DUP3 ADD MSTORE PUSH1 0x84 ADD PUSH2 0x870 JUMP JUMPDEST PUSH1 0x1 PUSH1 0x1 PUSH1 0xA0 SHL SUB DUP3 AND PUSH2 0x1B6C JUMPI PUSH1 0x40 MLOAD PUSH3 0x461BCD PUSH1 0xE5 SHL DUP2 MSTORE PUSH1 0x20 PUSH1 0x4 DUP3 ADD MSTORE PUSH1 0x22 PUSH1 0x24 DUP3 ADD MSTORE PUSH32 0x45524332303A20617070726F766520746F20746865207A65726F206164647265 PUSH1 0x44 DUP3 ADD MSTORE PUSH2 0x7373 PUSH1 0xF0 SHL PUSH1 0x64 DUP3 ADD MSTORE PUSH1 0x84 ADD PUSH2 0x870 JUMP JUMPDEST PUSH1 0x1 PUSH1 0x1 PUSH1 0xA0 SHL SUB DUP4 DUP2 AND PUSH1 0x0 DUP2 DUP2 MSTORE PUSH1 0x1 PUSH1 0x20 SWAP1 DUP2 MSTORE PUSH1 0x40 DUP1 DUP4 KECCAK256 SWAP5 DUP8 AND DUP1 DUP5 MSTORE SWAP5 DUP3 MSTORE SWAP2 DUP3 SWAP1 KECCAK256 DUP6 SWAP1 SSTORE SWAP1 MLOAD DUP5 DUP2 MSTORE PUSH32 0x8C5BE1E5EBEC7D5BD14F71427D1E84F3DD0314C0F7B2291E5B200AC8C7C3B925 SWAP2 ADD PUSH1 0x40 MLOAD DUP1 SWAP2 SUB SWAP1 LOG3 POP POP POP JUMP JUMPDEST PUSH1 0x0 PUSH1 0x0 DUP1 MLOAD PUSH1 0x20 PUSH2 0x2D69 DUP4 CODECOPY DUP2 MLOAD SWAP2 MSTORE PUSH2 0x1BE8 DUP2 CALLER PUSH2 0x229C JUMP JUMPDEST CALLER PUSH1 0x0 SWAP1 DUP2 MSTORE PUSH1 0xF PUSH1 0x20 MSTORE PUSH1 0x40 DUP2 KECCAK256 DUP1 SLOAD DUP6 SWAP1 DUP2 LT PUSH2 0x1C17 JUMPI PUSH4 0x4E487B71 PUSH1 0xE0 SHL PUSH1 0x0 MSTORE PUSH1 0x32 PUSH1 0x4 MSTORE PUSH1 0x24 PUSH1 0x0 REVERT JUMPDEST PUSH1 0x0 SWAP2 DUP3 MSTORE PUSH1 0x20 SWAP1 SWAP2 KECCAK256 PUSH1 0x3 SWAP1 SWAP2 MUL ADD PUSH1 0x2 DUP2 ADD SLOAD SWAP1 SWAP2 POP PUSH1 0xFF AND PUSH2 0x1C4E JUMPI PUSH1 0x40 MLOAD PUSH3 0x461BCD PUSH1 0xE5 SHL DUP2 MSTORE PUSH1 0x4 ADD PUSH2 0x870 SWAP1 PUSH2 0x2B4F JUMP JUMPDEST PUSH1 0x2 DUP2 ADD DUP1 SLOAD PUSH1 0xFF NOT AND SWAP1 SSTORE PUSH1 0x1 DUP2 ADD SLOAD PUSH1 0x9 SLOAD PUSH2 0x1C6C SWAP2 SWAP1 PUSH2 0x2C2A JUMP JUMPDEST PUSH1 0x9 SSTORE DUP1 SLOAD PUSH1 0x8 SLOAD PUSH2 0x1C7E SWAP2 SWAP1 PUSH2 0x2C2A JUMP JUMPDEST PUSH1 0x8 SSTORE PUSH1 0x1 ADD SLOAD SWAP4 SWAP3 POP POP POP JUMP JUMPDEST PUSH1 0x1 PUSH1 0x1 PUSH1 0xA0 SHL SUB DUP4 AND PUSH2 0x1CF0 JUMPI PUSH1 0x40 MLOAD PUSH3 0x461BCD PUSH1 0xE5 SHL DUP2 MSTORE PUSH1 0x20 PUSH1 0x4 DUP3 ADD MSTORE PUSH1 0x25 PUSH1 0x24 DUP3 ADD MSTORE PUSH32 0x45524332303A207472616E736665722066726F6D20746865207A65726F206164 PUSH1 0x44 DUP3 ADD MSTORE PUSH5 0x6472657373 PUSH1 0xD8 SHL PUSH1 0x64 DUP3 ADD MSTORE PUSH1 0x84 ADD PUSH2 0x870 JUMP JUMPDEST PUSH1 0x1 PUSH1 0x1 PUSH1 0xA0 SHL SUB DUP3 AND PUSH2 0x1D52 JUMPI PUSH1 0x40 MLOAD PUSH3 0x461BCD PUSH1 0xE5 SHL DUP2 MSTORE PUSH1 0x20 PUSH1 0x4 DUP3 ADD MSTORE PUSH1 0x23 PUSH1 0x24 DUP3 ADD MSTORE PUSH32 0x45524332303A207472616E7366657220746F20746865207A65726F2061646472 PUSH1 0x44 DUP3 ADD MSTORE PUSH3 0x657373 PUSH1 0xE8 SHL PUSH1 0x64 DUP3 ADD MSTORE PUSH1 0x84 ADD PUSH2 0x870 JUMP JUMPDEST PUSH1 0x1 PUSH1 0x1 PUSH1 0xA0 SHL SUB DUP4 AND PUSH1 0x0 SWAP1 DUP2 MSTORE PUSH1 0x20 DUP2 SWAP1 MSTORE PUSH1 0x40 SWAP1 KECCAK256 SLOAD DUP2 DUP2 LT ISZERO PUSH2 0x1DCA JUMPI PUSH1 0x40 MLOAD PUSH3 0x461BCD PUSH1 0xE5 SHL DUP2 MSTORE PUSH1 0x20 PUSH1 0x4 DUP3 ADD MSTORE PUSH1 0x26 PUSH1 0x24 DUP3 ADD MSTORE PUSH32 0x45524332303A207472616E7366657220616D6F756E7420657863656564732062 PUSH1 0x44 DUP3 ADD MSTORE PUSH6 0x616C616E6365 PUSH1 0xD0 SHL PUSH1 0x64 DUP3 ADD MSTORE PUSH1 0x84 ADD PUSH2 0x870 JUMP JUMPDEST PUSH1 0x1 PUSH1 0x1 PUSH1 0xA0 SHL SUB DUP1 DUP6 AND PUSH1 0x0 SWAP1 DUP2 MSTORE PUSH1 0x20 DUP2 SWAP1 MSTORE PUSH1 0x40 DUP1 DUP3 KECCAK256 DUP6 DUP6 SUB SWAP1 SSTORE SWAP2 DUP6 AND DUP2 MSTORE SWAP1 DUP2 KECCAK256 DUP1 SLOAD DUP5 SWAP3 SWAP1 PUSH2 0x1E01 SWAP1 DUP5 SWAP1 PUSH2 0x2BDF JUMP JUMPDEST SWAP3 POP POP DUP2 SWAP1 SSTORE POP DUP3 PUSH1 0x1 PUSH1 0x1 PUSH1 0xA0 SHL SUB AND DUP5 PUSH1 0x1 PUSH1 0x1 PUSH1 0xA0 SHL SUB AND PUSH1 0x0 DUP1 MLOAD PUSH1 0x20 PUSH2 0x2D89 DUP4 CODECOPY DUP2 MLOAD SWAP2 MSTORE DUP5 PUSH1 0x40 MLOAD PUSH2 0x1E3B SWAP2 DUP2 MSTORE PUSH1 0x20 ADD SWAP1 JUMP JUMPDEST PUSH1 0x40 MLOAD DUP1 SWAP2 SUB SWAP1 LOG3 PUSH2 0xB1C JUMP JUMPDEST PUSH1 0x0 PUSH2 0x1E52 PUSH2 0x12D4 JUMP JUMPDEST DUP4 GT ISZERO PUSH2 0x1ED5 JUMPI PUSH1 0x40 MLOAD PUSH3 0x461BCD PUSH1 0xE5 SHL DUP2 MSTORE PUSH1 0x20 PUSH1 0x4 DUP3 ADD MSTORE PUSH1 0x45 PUSH1 0x24 DUP3 ADD MSTORE PUSH32 0x506F6F6C3A204E6F7420656E6F7567682066756E6473206F6E2074686520706F PUSH1 0x44 DUP3 ADD MSTORE PUSH32 0x6F6C20636F6E74726163742E20506C65617365206C6F7765722074686520616D PUSH1 0x64 DUP3 ADD MSTORE PUSH5 0x37BAB73A17 PUSH1 0xD9 SHL PUSH1 0x84 DUP3 ADD MSTORE PUSH1 0xA4 ADD PUSH2 0x870 JUMP JUMPDEST PUSH1 0x0 PUSH2 0x1EE0 PUSH1 0x2 SLOAD SWAP1 JUMP JUMPDEST SWAP1 POP PUSH1 0x0 PUSH2 0x1EEC PUSH2 0x148C JUMP JUMPDEST SWAP1 POP PUSH1 0x0 DUP3 DUP3 PUSH2 0x1EFB DUP8 PUSH2 0xEC2 JUMP JUMPDEST PUSH2 0x1F05 SWAP2 SWAP1 PUSH2 0x2C0B JUMP JUMPDEST PUSH2 0x1F0F SWAP2 SWAP1 PUSH2 0x2BF7 JUMP JUMPDEST SWAP1 POP PUSH1 0x0 DUP7 DUP3 LT PUSH2 0x1F20 JUMPI DUP7 PUSH2 0x1F22 JUMP JUMPDEST DUP2 JUMPDEST SWAP1 POP PUSH2 0x1F37 PUSH2 0x1F31 DUP6 DUP4 PUSH2 0x2C0B JUMP JUMPDEST DUP5 PUSH2 0x24F5 JUMP JUMPDEST SWAP5 POP PUSH2 0x1F42 DUP7 PUSH2 0xEC2 JUMP JUMPDEST DUP6 GT ISZERO PUSH2 0x1F8D JUMPI PUSH1 0x40 MLOAD PUSH3 0x461BCD PUSH1 0xE5 SHL DUP2 MSTORE PUSH1 0x20 PUSH1 0x4 DUP3 ADD MSTORE PUSH1 0x19 PUSH1 0x24 DUP3 ADD MSTORE PUSH25 0x506F6F6C3A20416D6F756E7420697320746F6F206C61726765 PUSH1 0x38 SHL PUSH1 0x44 DUP3 ADD MSTORE PUSH1 0x64 ADD PUSH2 0x870 JUMP JUMPDEST PUSH1 0x0 DUP6 GT PUSH2 0x1FAD JUMPI PUSH1 0x40 MLOAD PUSH3 0x461BCD PUSH1 0xE5 SHL DUP2 MSTORE PUSH1 0x4 ADD PUSH2 0x870 SWAP1 PUSH2 0x2B95 JUMP JUMPDEST PUSH2 0x1FB7 DUP7 DUP7 PUSH2 0x2535 JUMP JUMPDEST PUSH1 0x10 SLOAD PUSH1 0x40 MLOAD PUSH4 0xA9059CBB PUSH1 0xE0 SHL DUP2 MSTORE PUSH1 0x0 SWAP2 PUSH1 0x1 PUSH1 0x1 PUSH1 0xA0 SHL SUB AND SWAP1 PUSH4 0xA9059CBB SWAP1 PUSH2 0x1FEA SWAP1 DUP11 SWAP1 DUP7 SWAP1 PUSH1 0x4 ADD PUSH2 0x2B03 JUMP JUMPDEST PUSH1 0x20 PUSH1 0x40 MLOAD DUP1 DUP4 SUB DUP2 PUSH1 0x0 DUP8 DUP1 EXTCODESIZE ISZERO DUP1 ISZERO PUSH2 0x2004 JUMPI PUSH1 0x0 DUP1 REVERT JUMPDEST POP GAS CALL ISZERO DUP1 ISZERO PUSH2 0x2018 JUMPI RETURNDATASIZE PUSH1 0x0 DUP1 RETURNDATACOPY RETURNDATASIZE PUSH1 0x0 REVERT JUMPDEST POP POP POP POP PUSH1 0x40 MLOAD RETURNDATASIZE PUSH1 0x1F NOT PUSH1 0x1F DUP3 ADD AND DUP3 ADD DUP1 PUSH1 0x40 MSTORE POP DUP2 ADD SWAP1 PUSH2 0x203C SWAP2 SWAP1 PUSH2 0x2935 JUMP JUMPDEST SWAP1 POP DUP1 PUSH2 0x209A JUMPI PUSH1 0x40 MLOAD PUSH3 0x461BCD PUSH1 0xE5 SHL DUP2 MSTORE PUSH1 0x20 PUSH1 0x4 DUP3 ADD MSTORE PUSH1 0x26 PUSH1 0x24 DUP3 ADD MSTORE PUSH32 0x506F6F6C3A20546865205769746864726177616C206469646E277420676F2074 PUSH1 0x44 DUP3 ADD MSTORE PUSH6 0xD0E4DEEACED PUSH1 0xD3 SHL PUSH1 0x64 DUP3 ADD MSTORE PUSH1 0x84 ADD PUSH2 0x870 JUMP JUMPDEST PUSH1 0x40 DUP1 MLOAD DUP4 DUP2 MSTORE PUSH1 0x20 DUP2 ADD DUP9 SWAP1 MSTORE PUSH1 0x1 PUSH1 0x1 PUSH1 0xA0 SHL SUB DUP10 AND SWAP2 PUSH32 0xF279E6A1F5E320CCA91135676D9CB6E44CA8A08C0B88342BCDB1144F6511B568 SWAP2 ADD PUSH2 0x1866 JUMP JUMPDEST PUSH1 0x0 PUSH2 0x20E6 DUP3 PUSH2 0xEC2 JUMP JUMPDEST GT PUSH2 0x212F JUMPI PUSH1 0x40 MLOAD PUSH3 0x461BCD PUSH1 0xE5 SHL DUP2 MSTORE PUSH1 0x20 PUSH1 0x4 DUP3 ADD MSTORE PUSH1 0x19 PUSH1 0x24 DUP3 ADD MSTORE PUSH25 0x506F6F6C3A204E6F7468696E6720746F207769746864726177 PUSH1 0x38 SHL PUSH1 0x44 DUP3 ADD MSTORE PUSH1 0x64 ADD PUSH2 0x870 JUMP JUMPDEST PUSH1 0x1 PUSH1 0x1 PUSH1 0xA0 SHL SUB DUP2 AND PUSH1 0x0 SWAP1 DUP2 MSTORE PUSH1 0x12 PUSH1 0x20 MSTORE PUSH1 0x40 SWAP1 KECCAK256 PUSH1 0x1 DUP2 ADD SLOAD PUSH1 0xFF AND ISZERO PUSH2 0x21D2 JUMPI DUP1 SLOAD PUSH1 0x0 SWAP1 DUP2 MSTORE PUSH1 0x11 PUSH1 0x20 MSTORE PUSH1 0x40 SWAP1 KECCAK256 PUSH1 0xC SLOAD PUSH1 0x1 DUP3 ADD SLOAD EQ DUP1 PUSH2 0x217A JUMPI POP PUSH1 0x1 DUP2 ADD SLOAD ISZERO JUMPDEST PUSH2 0x21BE JUMPI PUSH1 0x40 MLOAD PUSH3 0x461BCD PUSH1 0xE5 SHL DUP2 MSTORE PUSH1 0x20 PUSH1 0x4 DUP3 ADD MSTORE PUSH1 0x15 PUSH1 0x24 DUP3 ADD MSTORE PUSH21 0x506F6F6C3A205374617465206C6F636B656420757 PUSH1 0x5C SHL PUSH1 0x44 DUP3 ADD MSTORE PUSH1 0x64 ADD PUSH2 0x870 JUMP JUMPDEST DUP1 SLOAD PUSH2 0x21CB SWAP1 DUP6 SWAP1 PUSH2 0x2BDF JUMP JUMPDEST SWAP1 SSTORE PUSH2 0x225E JUMP JUMPDEST PUSH1 0x40 DUP1 MLOAD PUSH1 0x60 DUP2 ADD DUP3 MSTORE DUP5 DUP2 MSTORE PUSH1 0xC SLOAD PUSH1 0x20 DUP1 DUP4 ADD SWAP2 DUP3 MSTORE PUSH1 0x1 PUSH1 0x1 PUSH1 0xA0 SHL SUB DUP7 DUP2 AND DUP5 DUP7 ADD SWAP1 DUP2 MSTORE PUSH1 0x14 DUP1 SLOAD PUSH1 0x0 SWAP1 DUP2 MSTORE PUSH1 0x11 SWAP1 SWAP5 MSTORE SWAP6 DUP4 KECCAK256 SWAP5 MLOAD DUP6 SSTORE SWAP3 MLOAD PUSH1 0x1 DUP1 DUP7 ADD SWAP2 SWAP1 SWAP2 SSTORE SWAP3 MLOAD PUSH1 0x2 SWAP1 SWAP5 ADD DUP1 SLOAD PUSH1 0x1 PUSH1 0x1 PUSH1 0xA0 SHL SUB NOT AND SWAP5 SWAP1 SWAP2 AND SWAP4 SWAP1 SWAP4 OR SWAP1 SWAP3 SSTORE DUP3 SLOAD DUP5 SSTORE DUP4 DUP2 ADD DUP1 SLOAD PUSH1 0xFF NOT AND SWAP1 SWAP2 OR SWAP1 SSTORE DUP2 SLOAD SWAP2 SWAP1 PUSH2 0x2258 DUP4 PUSH2 0x2CBF JUMP JUMPDEST SWAP2 SWAP1 POP SSTORE POP JUMPDEST PUSH32 0x8E544170E8E5E6C868A252670B8AA06077B96DEE38DCBB4B645909DB2FB3481 DUP4 DUP4 PUSH1 0x40 MLOAD PUSH2 0x228F SWAP3 SWAP2 SWAP1 PUSH2 0x2BC8 JUMP JUMPDEST PUSH1 0x40 MLOAD DUP1 SWAP2 SUB SWAP1 LOG1 POP POP POP JUMP JUMPDEST PUSH2 0x22A6 DUP3 DUP3 PUSH2 0x117E JUMP JUMPDEST PUSH2 0x79B JUMPI PUSH2 0x22BE DUP2 PUSH1 0x1 PUSH1 0x1 PUSH1 0xA0 SHL SUB AND PUSH1 0x14 PUSH2 0x2671 JUMP JUMPDEST PUSH2 0x22C9 DUP4 PUSH1 0x20 PUSH2 0x2671 JUMP JUMPDEST PUSH1 0x40 MLOAD PUSH1 0x20 ADD PUSH2 0x22DA SWAP3 SWAP2 SWAP1 PUSH2 0x2A5C JUMP JUMPDEST PUSH1 0x40 DUP1 MLOAD PUSH1 0x1F NOT DUP2 DUP5 SUB ADD DUP2 MSTORE SWAP1 DUP3 SWAP1 MSTORE PUSH3 0x461BCD PUSH1 0xE5 SHL DUP3 MSTORE PUSH2 0x870 SWAP2 PUSH1 0x4 ADD PUSH2 0x2B1C JUMP JUMPDEST PUSH2 0x230A DUP3 DUP3 PUSH2 0x117E JUMP JUMPDEST PUSH2 0x79B JUMPI PUSH1 0x0 DUP3 DUP2 MSTORE PUSH1 0x5 PUSH1 0x20 SWAP1 DUP2 MSTORE PUSH1 0x40 DUP1 DUP4 KECCAK256 PUSH1 0x1 PUSH1 0x1 PUSH1 0xA0 SHL SUB DUP6 AND DUP5 MSTORE SWAP1 SWAP2 MSTORE SWAP1 KECCAK256 DUP1 SLOAD PUSH1 0xFF NOT AND PUSH1 0x1 OR SWAP1 SSTORE PUSH2 0x2342 CALLER SWAP1 JUMP JUMPDEST PUSH1 0x1 PUSH1 0x1 PUSH1 0xA0 SHL SUB AND DUP2 PUSH1 0x1 PUSH1 0x1 PUSH1 0xA0 SHL SUB AND DUP4 PUSH32 0x2F8788117E7EFF1D82E926EC794901D17C78024A50270940304540A733656F0D PUSH1 0x40 MLOAD PUSH1 0x40 MLOAD DUP1 SWAP2 SUB SWAP1 LOG4 POP POP JUMP JUMPDEST PUSH2 0x2390 DUP3 DUP3 PUSH2 0x117E JUMP JUMPDEST ISZERO PUSH2 0x79B JUMPI PUSH1 0x0 DUP3 DUP2 MSTORE PUSH1 0x5 PUSH1 0x20 SWAP1 DUP2 MSTORE PUSH1 0x40 DUP1 DUP4 KECCAK256 PUSH1 0x1 PUSH1 0x1 PUSH1 0xA0 SHL SUB DUP6 AND DUP1 DUP6 MSTORE SWAP3 MSTORE DUP1 DUP4 KECCAK256 DUP1 SLOAD PUSH1 0xFF NOT AND SWAP1 SSTORE MLOAD CALLER SWAP3 DUP6 SWAP2 PUSH32 0xF6391F5C32D9C69D2A47EA670B442974B53935D1EDC7FD64EB21E047A839171B SWAP2 SWAP1 LOG4 POP POP JUMP JUMPDEST PUSH1 0xB DUP2 SWAP1 SSTORE PUSH1 0x40 MLOAD DUP2 DUP2 MSTORE PUSH32 0x9C73644BCD0A85B158FE496D03C38C93FC8A1F28ED476B2779DF681D21253485 SWAP1 PUSH1 0x20 ADD PUSH1 0x40 MLOAD DUP1 SWAP2 SUB SWAP1 LOG1 POP JUMP JUMPDEST PUSH1 0x1 PUSH1 0x1 PUSH1 0xA0 SHL SUB DUP3 AND PUSH2 0x247E JUMPI PUSH1 0x40 MLOAD PUSH3 0x461BCD PUSH1 0xE5 SHL DUP2 MSTORE PUSH1 0x20 PUSH1 0x4 DUP3 ADD MSTORE PUSH1 0x1F PUSH1 0x24 DUP3 ADD MSTORE PUSH32 0x45524332303A206D696E7420746F20746865207A65726F206164647265737300 PUSH1 0x44 DUP3 ADD MSTORE PUSH1 0x64 ADD PUSH2 0x870 JUMP JUMPDEST DUP1 PUSH1 0x2 PUSH1 0x0 DUP3 DUP3 SLOAD PUSH2 0x2490 SWAP2 SWAP1 PUSH2 0x2BDF JUMP JUMPDEST SWAP1 SWAP2 SSTORE POP POP PUSH1 0x1 PUSH1 0x1 PUSH1 0xA0 SHL SUB DUP3 AND PUSH1 0x0 SWAP1 DUP2 MSTORE PUSH1 0x20 DUP2 SWAP1 MSTORE PUSH1 0x40 DUP2 KECCAK256 DUP1 SLOAD DUP4 SWAP3 SWAP1 PUSH2 0x24BD SWAP1 DUP5 SWAP1 PUSH2 0x2BDF JUMP JUMPDEST SWAP1 SWAP2 SSTORE POP POP PUSH1 0x40 MLOAD DUP2 DUP2 MSTORE PUSH1 0x1 PUSH1 0x1 PUSH1 0xA0 SHL SUB DUP4 AND SWAP1 PUSH1 0x0 SWAP1 PUSH1 0x0 DUP1 MLOAD PUSH1 0x20 PUSH2 0x2D89 DUP4 CODECOPY DUP2 MLOAD SWAP2 MSTORE SWAP1 PUSH1 0x20 ADD PUSH1 0x40 MLOAD DUP1 SWAP2 SUB SWAP1 LOG3 POP POP JUMP JUMPDEST PUSH1 0x0 DUP1 DUP3 GT PUSH2 0x2503 JUMPI PUSH1 0x0 DUP1 REVERT JUMPDEST PUSH1 0x0 PUSH2 0x250F DUP4 DUP6 PUSH2 0x2BF7 JUMP JUMPDEST SWAP1 POP PUSH2 0x251B DUP4 DUP6 PUSH2 0x2CDA JUMP JUMPDEST ISZERO PUSH2 0x252E JUMPI PUSH2 0x252B DUP2 PUSH1 0x1 PUSH2 0x2BDF JUMP JUMPDEST SWAP1 POP JUMPDEST SWAP4 SWAP3 POP POP POP JUMP JUMPDEST PUSH1 0x1 PUSH1 0x1 PUSH1 0xA0 SHL SUB DUP3 AND PUSH2 0x2595 JUMPI PUSH1 0x40 MLOAD PUSH3 0x461BCD PUSH1 0xE5 SHL DUP2 MSTORE PUSH1 0x20 PUSH1 0x4 DUP3 ADD MSTORE PUSH1 0x21 PUSH1 0x24 DUP3 ADD MSTORE PUSH32 0x45524332303A206275726E2066726F6D20746865207A65726F20616464726573 PUSH1 0x44 DUP3 ADD MSTORE PUSH1 0x73 PUSH1 0xF8 SHL PUSH1 0x64 DUP3 ADD MSTORE PUSH1 0x84 ADD PUSH2 0x870 JUMP JUMPDEST PUSH1 0x1 PUSH1 0x1 PUSH1 0xA0 SHL SUB DUP3 AND PUSH1 0x0 SWAP1 DUP2 MSTORE PUSH1 0x20 DUP2 SWAP1 MSTORE PUSH1 0x40 SWAP1 KECCAK256 SLOAD DUP2 DUP2 LT ISZERO PUSH2 0x2609 JUMPI PUSH1 0x40 MLOAD PUSH3 0x461BCD PUSH1 0xE5 SHL DUP2 MSTORE PUSH1 0x20 PUSH1 0x4 DUP3 ADD MSTORE PUSH1 0x22 PUSH1 0x24 DUP3 ADD MSTORE PUSH32 0x45524332303A206275726E20616D6F756E7420657863656564732062616C616E PUSH1 0x44 DUP3 ADD MSTORE PUSH2 0x6365 PUSH1 0xF0 SHL PUSH1 0x64 DUP3 ADD MSTORE PUSH1 0x84 ADD PUSH2 0x870 JUMP JUMPDEST PUSH1 0x1 PUSH1 0x1 PUSH1 0xA0 SHL SUB DUP4 AND PUSH1 0x0 SWAP1 DUP2 MSTORE PUSH1 0x20 DUP2 SWAP1 MSTORE PUSH1 0x40 DUP2 KECCAK256 DUP4 DUP4 SUB SWAP1 SSTORE PUSH1 0x2 DUP1 SLOAD DUP5 SWAP3 SWAP1 PUSH2 0x2638 SWAP1 DUP5 SWAP1 PUSH2 0x2C2A JUMP JUMPDEST SWAP1 SWAP2 SSTORE POP POP PUSH1 0x40 MLOAD DUP3 DUP2 MSTORE PUSH1 0x0 SWAP1 PUSH1 0x1 PUSH1 0x1 PUSH1 0xA0 SHL SUB DUP6 AND SWAP1 PUSH1 0x0 DUP1 MLOAD PUSH1 0x20 PUSH2 0x2D89 DUP4 CODECOPY DUP2 MLOAD SWAP2 MSTORE SWAP1 PUSH1 0x20 ADD PUSH1 0x40 MLOAD DUP1 SWAP2 SUB SWAP1 LOG3 POP POP POP JUMP JUMPDEST PUSH1 0x60 PUSH1 0x0 PUSH2 0x2680 DUP4 PUSH1 0x2 PUSH2 0x2C0B JUMP JUMPDEST PUSH2 0x268B SWAP1 PUSH1 0x2 PUSH2 0x2BDF JUMP JUMPDEST PUSH1 0x1 PUSH1 0x1 PUSH1 0x40 SHL SUB DUP2 GT ISZERO PUSH2 0x26B0 JUMPI PUSH4 0x4E487B71 PUSH1 0xE0 SHL PUSH1 0x0 MSTORE PUSH1 0x41 PUSH1 0x4 MSTORE PUSH1 0x24 PUSH1 0x0 REVERT JUMPDEST PUSH1 0x40 MLOAD SWAP1 DUP1 DUP3 MSTORE DUP1 PUSH1 0x1F ADD PUSH1 0x1F NOT AND PUSH1 0x20 ADD DUP3 ADD PUSH1 0x40 MSTORE DUP1 ISZERO PUSH2 0x26DA JUMPI PUSH1 0x20 DUP3 ADD DUP2 DUP1 CALLDATASIZE DUP4 CALLDATACOPY ADD SWAP1 POP JUMPDEST POP SWAP1 POP PUSH1 0x3 PUSH1 0xFC SHL DUP2 PUSH1 0x0 DUP2 MLOAD DUP2 LT PUSH2 0x2703 JUMPI PUSH4 0x4E487B71 PUSH1 0xE0 SHL PUSH1 0x0 MSTORE PUSH1 0x32 PUSH1 0x4 MSTORE PUSH1 0x24 PUSH1 0x0 REVERT JUMPDEST PUSH1 0x20 ADD ADD SWAP1 PUSH1 0x1 PUSH1 0x1 PUSH1 0xF8 SHL SUB NOT AND SWAP1 DUP2 PUSH1 0x0 BYTE SWAP1 MSTORE8 POP PUSH1 0xF PUSH1 0xFB SHL DUP2 PUSH1 0x1 DUP2 MLOAD DUP2 LT PUSH2 0x2740 JUMPI PUSH4 0x4E487B71 PUSH1 0xE0 SHL PUSH1 0x0 MSTORE PUSH1 0x32 PUSH1 0x4 MSTORE PUSH1 0x24 PUSH1 0x0 REVERT JUMPDEST PUSH1 0x20 ADD ADD SWAP1 PUSH1 0x1 PUSH1 0x1 PUSH1 0xF8 SHL SUB NOT AND SWAP1 DUP2 PUSH1 0x0 BYTE SWAP1 MSTORE8 POP PUSH1 0x0 PUSH2 0x2764 DUP5 PUSH1 0x2 PUSH2 0x2C0B JUMP JUMPDEST PUSH2 0x276F SWAP1 PUSH1 0x1 PUSH2 0x2BDF JUMP JUMPDEST SWAP1 POP JUMPDEST PUSH1 0x1 DUP2 GT ISZERO PUSH2 0x2803 JUMPI PUSH16 0x181899199A1A9B1B9C1CB0B131B232B3 PUSH1 0x81 SHL DUP6 PUSH1 0xF AND PUSH1 0x10 DUP2 LT PUSH2 0x27B1 JUMPI PUSH4 0x4E487B71 PUSH1 0xE0 SHL PUSH1 0x0 MSTORE PUSH1 0x32 PUSH1 0x4 MSTORE PUSH1 0x24 PUSH1 0x0 REVERT JUMPDEST BYTE PUSH1 0xF8 SHL DUP3 DUP3 DUP2 MLOAD DUP2 LT PUSH2 0x27D5 JUMPI PUSH4 0x4E487B71 PUSH1 0xE0 SHL PUSH1 0x0 MSTORE PUSH1 0x32 PUSH1 0x4 MSTORE PUSH1 0x24 PUSH1 0x0 REVERT JUMPDEST PUSH1 0x20 ADD ADD SWAP1 PUSH1 0x1 PUSH1 0x1 PUSH1 0xF8 SHL SUB NOT AND SWAP1 DUP2 PUSH1 0x0 BYTE SWAP1 MSTORE8 POP PUSH1 0x4 SWAP5 SWAP1 SWAP5 SHR SWAP4 PUSH2 0x27FC DUP2 PUSH2 0x2C6D JUMP JUMPDEST SWAP1 POP PUSH2 0x2772 JUMP JUMPDEST POP DUP4 ISZERO PUSH2 0x252E JUMPI PUSH1 0x40 MLOAD PUSH3 0x461BCD PUSH1 0xE5 SHL DUP2 MSTORE PUSH1 0x20 PUSH1 0x4 DUP3 ADD DUP2 SWAP1 MSTORE PUSH1 0x24 DUP3 ADD MSTORE PUSH32 0x537472696E67733A20686578206C656E67746820696E73756666696369656E74 PUSH1 0x44 DUP3 ADD MSTORE PUSH1 0x64 ADD PUSH2 0x870 JUMP JUMPDEST DUP1 CALLDATALOAD PUSH1 0x1 PUSH1 0x1 PUSH1 0xA0 SHL SUB DUP2 AND DUP2 EQ PUSH2 0x7DD JUMPI PUSH1 0x0 DUP1 REVERT JUMPDEST PUSH1 0x0 PUSH1 0x20 DUP3 DUP5 SUB SLT ISZERO PUSH2 0x287A JUMPI DUP1 DUP2 REVERT JUMPDEST PUSH2 0x252E DUP3 PUSH2 0x2852 JUMP JUMPDEST PUSH1 0x0 DUP1 PUSH1 0x40 DUP4 DUP6 SUB SLT ISZERO PUSH2 0x2895 JUMPI DUP1 DUP2 REVERT JUMPDEST PUSH2 0x289E DUP4 PUSH2 0x2852 JUMP JUMPDEST SWAP2 POP PUSH2 0x28AC PUSH1 0x20 DUP5 ADD PUSH2 0x2852 JUMP JUMPDEST SWAP1 POP SWAP3 POP SWAP3 SWAP1 POP JUMP JUMPDEST PUSH1 0x0 DUP1 PUSH1 0x0 PUSH1 0x60 DUP5 DUP7 SUB SLT ISZERO PUSH2 0x28C9 JUMPI DUP1 DUP2 REVERT JUMPDEST PUSH2 0x28D2 DUP5 PUSH2 0x2852 JUMP JUMPDEST SWAP3 POP PUSH2 0x28E0 PUSH1 0x20 DUP6 ADD PUSH2 0x2852 JUMP JUMPDEST SWAP2 POP PUSH1 0x40 DUP5 ADD CALLDATALOAD SWAP1 POP SWAP3 POP SWAP3 POP SWAP3 JUMP JUMPDEST PUSH1 0x0 DUP1 PUSH1 0x40 DUP4 DUP6 SUB SLT ISZERO PUSH2 0x2902 JUMPI DUP2 DUP3 REVERT JUMPDEST PUSH2 0x290B DUP4 PUSH2 0x2852 JUMP JUMPDEST SWAP5 PUSH1 0x20 SWAP4 SWAP1 SWAP4 ADD CALLDATALOAD SWAP4 POP POP POP JUMP JUMPDEST PUSH1 0x0 PUSH1 0x20 DUP3 DUP5 SUB SLT ISZERO PUSH2 0x292A JUMPI DUP1 DUP2 REVERT JUMPDEST DUP2 CALLDATALOAD PUSH2 0x252E DUP2 PUSH2 0x2D1A JUMP JUMPDEST PUSH1 0x0 PUSH1 0x20 DUP3 DUP5 SUB SLT ISZERO PUSH2 0x2946 JUMPI DUP1 DUP2 REVERT JUMPDEST DUP2 MLOAD PUSH2 0x252E DUP2 PUSH2 0x2D1A JUMP JUMPDEST PUSH1 0x0 PUSH1 0x20 DUP3 DUP5 SUB SLT ISZERO PUSH2 0x2962 JUMPI DUP1 DUP2 REVERT JUMPDEST POP CALLDATALOAD SWAP2 SWAP1 POP JUMP JUMPDEST PUSH1 0x0 DUP1 PUSH1 0x40 DUP4 DUP6 SUB SLT ISZERO PUSH2 0x297B JUMPI DUP2 DUP3 REVERT JUMPDEST DUP3 CALLDATALOAD SWAP2 POP PUSH2 0x28AC PUSH1 0x20 DUP5 ADD PUSH2 0x2852 JUMP JUMPDEST PUSH1 0x0 PUSH1 0x20 DUP3 DUP5 SUB SLT ISZERO PUSH2 0x299C JUMPI DUP1 DUP2 REVERT JUMPDEST DUP2 CALLDATALOAD PUSH1 0x1 PUSH1 0x1 PUSH1 0xE0 SHL SUB NOT DUP2 AND DUP2 EQ PUSH2 0x252E JUMPI DUP2 DUP3 REVERT JUMPDEST PUSH1 0x0 PUSH1 0x20 DUP3 DUP5 SUB SLT ISZERO PUSH2 0x29C4 JUMPI DUP1 DUP2 REVERT JUMPDEST POP MLOAD SWAP2 SWAP1 POP JUMP JUMPDEST PUSH1 0x0 DUP1 PUSH1 0x0 PUSH1 0x60 DUP5 DUP7 SUB SLT ISZERO PUSH2 0x29DF JUMPI DUP3 DUP4 REVERT JUMPDEST DUP4 CALLDATALOAD SWAP3 POP PUSH2 0x28E0 PUSH1 0x20 DUP6 ADD PUSH2 0x2852 JUMP JUMPDEST PUSH1 0x0 DUP1 PUSH1 0x40 DUP4 DUP6 SUB SLT ISZERO PUSH2 0x2A01 JUMPI DUP2 DUP3 REVERT JUMPDEST POP POP DUP1 CALLDATALOAD SWAP3 PUSH1 0x20 SWAP1 SWAP2 ADD CALLDATALOAD SWAP2 POP JUMP JUMPDEST PUSH1 0x0 DUP1 PUSH1 0x0 PUSH1 0x60 DUP5 DUP7 SUB SLT ISZERO PUSH2 0x2A24 JUMPI DUP3 DUP4 REVERT JUMPDEST POP POP DUP2 CALLDATALOAD SWAP4 PUSH1 0x20 DUP4 ADD CALLDATALOAD SWAP4 POP PUSH1 0x40 SWAP1 SWAP3 ADD CALLDATALOAD SWAP2 SWAP1 POP JUMP JUMPDEST PUSH1 0x0 PUSH1 0x20 DUP3 DUP5 SUB SLT ISZERO PUSH2 0x2A4C JUMPI DUP1 DUP2 REVERT JUMPDEST DUP2 MLOAD PUSH1 0xFF DUP2 AND DUP2 EQ PUSH2 0x252E JUMPI DUP2 DUP3 REVERT JUMPDEST PUSH23 0x20B1B1B2B9B9A1B7B73A3937B61D1030B1B1B7BAB73A1 PUSH1 0x4D SHL DUP2 MSTORE PUSH1 0x0 DUP4 MLOAD PUSH2 0x2A8E DUP2 PUSH1 0x17 DUP6 ADD PUSH1 0x20 DUP9 ADD PUSH2 0x2C41 JUMP JUMPDEST PUSH17 0x1034B99036B4B9B9B4B733903937B6329 PUSH1 0x7D SHL PUSH1 0x17 SWAP2 DUP5 ADD SWAP2 DUP3 ADD MSTORE DUP4 MLOAD PUSH2 0x2ABF DUP2 PUSH1 0x28 DUP5 ADD PUSH1 0x20 DUP9 ADD PUSH2 0x2C41 JUMP JUMPDEST ADD PUSH1 0x28 ADD SWAP5 SWAP4 POP POP POP POP JUMP JUMPDEST PUSH1 0x1 PUSH1 0x1 PUSH1 0xA0 SHL SUB SWAP2 SWAP1 SWAP2 AND DUP2 MSTORE PUSH1 0x20 ADD SWAP1 JUMP JUMPDEST PUSH1 0x1 PUSH1 0x1 PUSH1 0xA0 SHL SUB SWAP4 DUP5 AND DUP2 MSTORE SWAP2 SWAP1 SWAP3 AND PUSH1 0x20 DUP3 ADD MSTORE PUSH1 0x40 DUP2 ADD SWAP2 SWAP1 SWAP2 MSTORE PUSH1 0x60 ADD SWAP1 JUMP JUMPDEST PUSH1 0x1 PUSH1 0x1 PUSH1 0xA0 SHL SUB SWAP3 SWAP1 SWAP3 AND DUP3 MSTORE PUSH1 0x20 DUP3 ADD MSTORE PUSH1 0x40 ADD SWAP1 JUMP JUMPDEST PUSH1 0x20 DUP2 MSTORE PUSH1 0x0 DUP3 MLOAD DUP1 PUSH1 0x20 DUP5 ADD MSTORE PUSH2 0x2B3B DUP2 PUSH1 0x40 DUP6 ADD PUSH1 0x20 DUP8 ADD PUSH2 0x2C41 JUMP JUMPDEST PUSH1 0x1F ADD PUSH1 0x1F NOT AND SWAP2 SWAP1 SWAP2 ADD PUSH1 0x40 ADD SWAP3 SWAP2 POP POP JUMP JUMPDEST PUSH1 0x20 DUP1 DUP3 MSTORE PUSH1 0x26 SWAP1 DUP3 ADD MSTORE PUSH32 0x506F6F6C3A206C6F636B6564416D6F756E7420697320616C726561647920756E PUSH1 0x40 DUP3 ADD MSTORE PUSH6 0x1B1BD8DAD959 PUSH1 0xD2 SHL PUSH1 0x60 DUP3 ADD MSTORE PUSH1 0x80 ADD SWAP1 JUMP JUMPDEST PUSH1 0x20 DUP1 DUP3 MSTORE PUSH1 0x19 SWAP1 DUP3 ADD MSTORE PUSH25 0x141BDBDB0E88105B5BDD5B9D081A5CC81D1BDBC81CDB585B1B PUSH1 0x3A SHL PUSH1 0x40 DUP3 ADD MSTORE PUSH1 0x60 ADD SWAP1 JUMP JUMPDEST SWAP2 DUP3 MSTORE PUSH1 0x1 PUSH1 0x1 PUSH1 0xA0 SHL SUB AND PUSH1 0x20 DUP3 ADD MSTORE PUSH1 0x40 ADD SWAP1 JUMP JUMPDEST PUSH1 0x0 DUP3 NOT DUP3 GT ISZERO PUSH2 0x2BF2 JUMPI PUSH2 0x2BF2 PUSH2 0x2CEE JUMP JUMPDEST POP ADD SWAP1 JUMP JUMPDEST PUSH1 0x0 DUP3 PUSH2 0x2C06 JUMPI PUSH2 0x2C06 PUSH2 0x2D04 JUMP JUMPDEST POP DIV SWAP1 JUMP JUMPDEST PUSH1 0x0 DUP2 PUSH1 0x0 NOT DIV DUP4 GT DUP3 ISZERO ISZERO AND ISZERO PUSH2 0x2C25 JUMPI PUSH2 0x2C25 PUSH2 0x2CEE JUMP JUMPDEST POP MUL SWAP1 JUMP JUMPDEST PUSH1 0x0 DUP3 DUP3 LT ISZERO PUSH2 0x2C3C JUMPI PUSH2 0x2C3C PUSH2 0x2CEE JUMP JUMPDEST POP SUB SWAP1 JUMP JUMPDEST PUSH1 0x0 JUMPDEST DUP4 DUP2 LT ISZERO PUSH2 0x2C5C JUMPI DUP2 DUP2 ADD MLOAD DUP4 DUP3 ADD MSTORE PUSH1 0x20 ADD PUSH2 0x2C44 JUMP JUMPDEST DUP4 DUP2 GT ISZERO PUSH2 0xB1C JUMPI POP POP PUSH1 0x0 SWAP2 ADD MSTORE JUMP JUMPDEST PUSH1 0x0 DUP2 PUSH2 0x2C7C JUMPI PUSH2 0x2C7C PUSH2 0x2CEE JUMP JUMPDEST POP PUSH1 0x0 NOT ADD SWAP1 JUMP JUMPDEST PUSH1 0x1 DUP2 DUP2 SHR SWAP1 DUP3 AND DUP1 PUSH2 0x2C98 JUMPI PUSH1 0x7F DUP3 AND SWAP2 POP JUMPDEST PUSH1 0x20 DUP3 LT DUP2 EQ ISZERO PUSH2 0x2CB9 JUMPI PUSH4 0x4E487B71 PUSH1 0xE0 SHL PUSH1 0x0 MSTORE PUSH1 0x22 PUSH1 0x4 MSTORE PUSH1 0x24 PUSH1 0x0 REVERT JUMPDEST POP SWAP2 SWAP1 POP JUMP JUMPDEST PUSH1 0x0 PUSH1 0x0 NOT DUP3 EQ ISZERO PUSH2 0x2CD3 JUMPI PUSH2 0x2CD3 PUSH2 0x2CEE JUMP JUMPDEST POP PUSH1 0x1 ADD SWAP1 JUMP JUMPDEST PUSH1 0x0 DUP3 PUSH2 0x2CE9 JUMPI PUSH2 0x2CE9 PUSH2 0x2D04 JUMP JUMPDEST POP MOD SWAP1 JUMP JUMPDEST PUSH4 0x4E487B71 PUSH1 0xE0 SHL PUSH1 0x0 MSTORE PUSH1 0x11 PUSH1 0x4 MSTORE PUSH1 0x24 PUSH1 0x0 REVERT JUMPDEST PUSH4 0x4E487B71 PUSH1 0xE0 SHL PUSH1 0x0 MSTORE PUSH1 0x12 PUSH1 0x4 MSTORE PUSH1 0x24 PUSH1 0x0 REVERT JUMPDEST DUP1 ISZERO ISZERO DUP2 EQ PUSH2 0x934 JUMPI PUSH1 0x0 DUP1 REVERT INVALID SWAP16 PUSH25 0xBAA7A8E3640EFADCBEDC2D00F5930ADE7A7BB66038DBF88684 0xD4 SWAP10 PUSH19 0x957A770FADB28E0E3026382976EE8B810CB0EB DUP7 PUSH7 0x922148DD9E10B2 0xC 0xFB SWAP12 SELFBALANCE PUSH28 0xA802B0C433C31E2B44FBBB341CA2A1A7C86F98B5158B42B073F63EFE MUL 0xD3 0x5E 0xA8 SWAP16 0xDD CALLCODE MSTORE 0xAD SHL 0xE2 0xC8 SWAP12 PUSH10 0xC2B068FC378DAA952BA7 CALL PUSH4 0xC4A11628 CREATE2 GAS 0x4D CREATE2 0x23 0xB3 0xEF LOG2 PUSH5 0x6970667358 0x22 SLT KECCAK256 0xAF DIV 0xBA ISZERO STATICCALL 0x2A SLT 0xC4 0xDC 0xC0 0xDD RETURNDATACOPY XOR 0xD4 SWAP8 REVERT 0xCD COINBASE 0xF9 0x4A 0xF6 0x28 0xB1 MSIZE 0x4F SMOD CALLCODE PUSH3 0xF17C0A PUSH26 0x64736F6C63430008040033000000000000000000000000000000 ",
  "sha1": "6d6b51c794ec7bdcb9907e7b18c03da38885adb9",
  "source": "pragma solidity ^0.8.0;\n\n// SPDX-License-Identifier: BUSL-1.1\n\nimport \"../Interfaces/Interfaces.sol\";\nimport \"@openzeppelin/contracts/access/AccessControl.sol\";\nimport \"@openzeppelin/contracts/token/ERC20/ERC20.sol\";\n\n/**\n * @author Heisenberg\n * @title Buffer TokenX Liquidity Pool\n * @notice Accumulates liquidity in TokenX from LPs and distributes P&L in TokenX\n */\ncontract BufferIBFRPoolV2 is\n    ERC20(\"Buffer LP Token\", \"rBFR\"),\n    AccessControl,\n    ILiquidityPool\n{\n    string private _name;\n    string private _symbol;\n    uint256 public constant ACCURACY = 1e3;\n    uint256 public constant INITIAL_RATE = 1e3;\n    uint256 public lockedAmount;\n    uint256 public lockedPremium;\n    uint256 public maxLiquidity;\n    uint256 public fixedExpiry;\n    uint256 public currentRound = 1;\n    bool public hasPoolEnded = false;\n    bool public isAcceptingWithdrawRequests = true;\n    address public projectOwner;\n    address public owner;\n    mapping(address => LockedLiquidity[]) public lockedLiquidity;\n\n    bytes32 public constant OPTION_ISSUER_ROLE =\n        keccak256(\"OPTION_ISSUER_ROLE\");\n\n    bytes32 public constant PROJECT_OWNER_ROLE =\n        keccak256(\"PROJECT_OWNER_ROLE\");\n\n    ERC20 public tokenX;\n\n    struct WithdrawRequest {\n        uint256 withdrawAmount;\n        uint256 round;\n        address account;\n    }\n    struct User {\n        uint256 requestIndex; // Pointer to the withdraw request\n        bool exists;\n    }\n\n    mapping(uint256 => WithdrawRequest) public WithdrawRequestQueue;\n    mapping(address => User) public AddressToWithdrawRequest;\n    uint256 public queueStart = 0;\n    uint256 public queueEnd = 0;\n\n    constructor(ERC20 _tokenX, uint256 initialExpiry) {\n        _name = string(\n            bytes.concat(\n                \"Buffer Generic \",\n                bytes(_tokenX.symbol()),\n                \" LP Token\"\n            )\n        );\n        _symbol = string(bytes.concat(\"r\", bytes(_tokenX.symbol())));\n        tokenX = _tokenX;\n        fixedExpiry = initialExpiry;\n        owner = msg.sender;\n        maxLiquidity = 5000000 * 10**_tokenX.decimals();\n        _setupRole(DEFAULT_ADMIN_ROLE, msg.sender);\n    }\n\n    /**\n     * @dev Returns the name of the token.\n     */\n    function name() public view virtual override returns (string memory) {\n        return _name;\n    }\n\n    /**\n     * @dev Returns the symbol of the token, usually a shorter version of the\n     * name.\n     */\n    function symbol() public view virtual override returns (string memory) {\n        return _symbol;\n    }\n\n    /**\n     * @dev Returns the decimals of the token.\n     */\n    function decimals() public view virtual override returns (uint8) {\n        return tokenX.decimals();\n    }\n\n    /**\n     * @notice Used for changing expiry\n     * @param value New fixedExpiry value\n     */\n    function setExpiry(uint256 value) internal {\n        fixedExpiry = value;\n        emit UpdateExpiry(value);\n    }\n\n    /**\n     * @notice Used for setting owner\n     * @param account owner account\n     */\n    function setProjectOwner(address account)\n        external\n        onlyRole(DEFAULT_ADMIN_ROLE)\n    {\n        grantRole(PROJECT_OWNER_ROLE, account);\n        projectOwner = account;\n        emit UpdateProjectOwner(account);\n    }\n\n    /**\n     * @notice Used for adjusting the max limit of the pool\n     * @param _maxLiquidity New limit\n     */\n    function setMaxLiquidity(uint256 _maxLiquidity)\n        external\n        onlyRole(PROJECT_OWNER_ROLE)\n    {\n        maxLiquidity = _maxLiquidity;\n        emit UpdateMaxLiquidity(_maxLiquidity);\n    }\n\n    /**\n     * @notice Used for setting the liquidity pool's state\n     * @param _hasPoolEnded New limit\n     */\n    function setPoolState(bool _hasPoolEnded)\n        external\n        onlyRole(PROJECT_OWNER_ROLE)\n    {\n        hasPoolEnded = _hasPoolEnded;\n        emit UpdatePoolState(hasPoolEnded);\n    }\n\n    /**\n     * @notice Used to start a new round\n     * @param expiry New limit\n     */\n    function rollOver(uint256 expiry) external onlyRole(PROJECT_OWNER_ROLE) {\n        require(\n            block.timestamp > fixedExpiry,\n            \"Can't roll over before the expiry ends\"\n        );\n        require(\n            lockedAmount == 0 && lockedPremium == 0,\n            \"Current round hasn't ended completely\"\n        );\n        setExpiry(expiry);\n        currentRound++;\n        isAcceptingWithdrawRequests = false;\n        emit PoolRollOver(currentRound);\n    }\n\n    /**\n     * @notice A provider supplies tokenX to the pool and receives rBFR-X tokens\n     * @param minMint Minimum amount of tokens that should be received by a provider.\n                      Calling the provide function will require the minimum amount of tokens to be minted.\n                      The actual amount that will be minted could vary but can only be higher (not lower) than the minimum value.\n     * @return mint Amount of tokens to be received\n     */\n    function provide(uint256 tokenXAmount, uint256 minMint)\n        external\n        returns (uint256 mint)\n    {\n        require(!hasPoolEnded, \"Pool has already ended\");\n\n        uint256 supply = totalSupply();\n        uint256 balance = tokenX.balanceOf(address(this));\n\n        require(\n            balance + tokenXAmount <= maxLiquidity,\n            \"Pool has already reached it's max limit\"\n        );\n\n        if (supply > 0 && balance > 0)\n            mint = (tokenXAmount * supply) / (balance);\n        else mint = tokenXAmount * INITIAL_RATE;\n\n        require(mint >= minMint, \"Pool: Mint limit is too large\");\n        require(mint > 0, \"Pool: Amount is too small\");\n\n        bool success = tokenX.transferFrom(\n            msg.sender,\n            address(this),\n            tokenXAmount\n        );\n        require(success, \"The Provide transfer didn't go through\");\n\n        uint256 adminCut = mint / 1000;\n        uint256 userMint = mint - adminCut;\n\n        _mint(msg.sender, userMint);\n        _mint(owner, adminCut);\n\n        emit Provide(msg.sender, tokenXAmount, userMint);\n    }\n\n    /**\n     * @notice Provider burns rBFR-X and receives X from the pool\n     * @param tokenXAmount Amount of X to receive\n     * @param account User address for which the withdrawal has to be initiated\n     * @return burn Amount of tokens to be burnt\n     */\n    function _withdraw(uint256 tokenXAmount, address account)\n        internal\n        returns (uint256 burn)\n    {\n        require(\n            tokenXAmount <= availableBalance(),\n            \"Pool: Not enough funds on the pool contract. Please lower the amount.\"\n        );\n        uint256 totalSupply = totalSupply();\n        uint256 balance = totalTokenXBalance();\n\n        uint256 maxUserTokenXWithdrawal = (balanceOf(account) * balance) /\n            totalSupply;\n\n        uint256 tokenXAmountToWithdraw = maxUserTokenXWithdrawal < tokenXAmount\n            ? maxUserTokenXWithdrawal\n            : tokenXAmount;\n\n        burn = divCeil((tokenXAmountToWithdraw * totalSupply), balance);\n\n        require(burn <= balanceOf(account), \"Pool: Amount is too large\");\n        require(burn > 0, \"Pool: Amount is too small\");\n\n        _burn(account, burn);\n\n        bool success = tokenX.transfer(account, tokenXAmountToWithdraw);\n        require(success, \"Pool: The Withdrawal didn't go through\");\n        emit Withdraw(account, tokenXAmountToWithdraw, burn);\n    }\n\n    /**\n     * @notice Initiates withdraw requests for users\n     * @param tokenXAmount Amount of X to receive\n     * @param account User address for which the withdrawal has to be initiated\n     */\n    function _initiateWithdraw(uint256 tokenXAmount, address account) internal {\n        require(balanceOf(account) > 0, \"Pool: Nothing to withdraw\");\n\n        User storage addressToWithdrawRequest = AddressToWithdrawRequest[\n            account\n        ];\n        if (addressToWithdrawRequest.exists) {\n            WithdrawRequest storage withdrawRequest = WithdrawRequestQueue[\n                addressToWithdrawRequest.requestIndex\n            ];\n            require(\n                (withdrawRequest.round == currentRound ||\n                    withdrawRequest.round == 0),\n                \"Pool: State locked up\"\n            );\n            withdrawRequest.withdrawAmount =\n                withdrawRequest.withdrawAmount +\n                tokenXAmount;\n        } else {\n            WithdrawRequestQueue[queueEnd] = WithdrawRequest(\n                tokenXAmount,\n                currentRound,\n                account\n            );\n            addressToWithdrawRequest.requestIndex = queueEnd;\n            addressToWithdrawRequest.exists = true;\n            queueEnd++;\n        }\n\n        emit InitiateWithdraw(tokenXAmount, account);\n    }\n\n    /**\n     * @notice withdraw burns rBFR-X and receives X from the pool\n     * @param tokenXAmount Amount Amount of X to receive\n     */\n    function withdraw(uint256 tokenXAmount) external {\n        if (hasPoolEnded) {\n            _withdraw(tokenXAmount, msg.sender);\n        } else {\n            require(\n                isAcceptingWithdrawRequests,\n                \"Pool: Not accepting withdraw requests currently\"\n            );\n            _initiateWithdraw(tokenXAmount, msg.sender);\n        }\n    }\n\n    /**\n     * @notice allows admin to send back the funds of the depositer\n     * @param user  User address for which the withdrawal has to be made\n     * @param tokenXAmount  Amount of X to receive\n     */\n    function adminWithdraw(address user, uint256 tokenXAmount)\n        external\n        onlyRole(PROJECT_OWNER_ROLE)\n    {\n        _withdraw(tokenXAmount, user);\n    }\n\n    /**\n     * @notice Processes all the withdraw requests once the round ends\n     * @param requestsToProcess Number of requests to process\n     */\n    function processWithdrawRequests(uint256 requestsToProcess) external {\n        uint256 endIndex = queueStart + requestsToProcess > queueEnd\n            ? queueEnd\n            : queueStart + requestsToProcess;\n        for (uint256 i = queueStart; i < endIndex; i++) {\n            WithdrawRequest storage withdrawRequest = WithdrawRequestQueue[i];\n            User storage addressToWithdrawRequest = AddressToWithdrawRequest[\n                withdrawRequest.account\n            ];\n\n            require(\n                withdrawRequest.round != currentRound,\n                \"Can't process the requests when the round is active\"\n            );\n\n            _withdraw(withdrawRequest.withdrawAmount, withdrawRequest.account);\n            emit ProcessWithdrawRequest(\n                withdrawRequest.withdrawAmount,\n                withdrawRequest.account\n            );\n\n            delete WithdrawRequestQueue[i];\n            addressToWithdrawRequest.requestIndex = 0;\n            addressToWithdrawRequest.exists = false;\n            queueStart++;\n        }\n\n        // When all requests have been processed reset the queue\n        if (queueStart == queueEnd) {\n            queueEnd = queueStart = 0;\n            isAcceptingWithdrawRequests = true;\n        }\n    }\n\n    /**\n     * @notice Called by BufferCallOptions to lock the funds\n     * @param tokenXAmount Amount of funds that should be locked in an option\n     */\n    function lock(\n        uint256 id,\n        uint256 tokenXAmount,\n        uint256 premium\n    ) external override onlyRole(OPTION_ISSUER_ROLE) {\n        require(id == lockedLiquidity[msg.sender].length, \"Wrong id\");\n\n        require(\n            (lockedAmount + tokenXAmount) <= totalTokenXBalance(),\n            \"Pool: Amount is too large.\"\n        );\n\n        bool success = tokenX.transferFrom(msg.sender, address(this), premium);\n        require(success, \"The Premium transfer didn't go through\");\n\n        lockedLiquidity[msg.sender].push(\n            LockedLiquidity(tokenXAmount, premium, true)\n        );\n        lockedPremium = lockedPremium + premium;\n        lockedAmount = lockedAmount + tokenXAmount;\n    }\n\n    /**\n     * @notice Called by BufferCallOptions to change the locked funds\n     * @param tokenXAmount Amount of funds that should be locked in an option\n     */\n    function changeLock(\n        uint256 id,\n        uint256 tokenXAmount,\n        uint256 premium\n    ) public override onlyRole(OPTION_ISSUER_ROLE) {\n        LockedLiquidity storage ll = lockedLiquidity[msg.sender][id];\n        require(ll.locked, \"lockedAmount is already unlocked\");\n        if (ll.premium > premium) {\n            tokenX.transfer(msg.sender, ll.premium - premium);\n        }\n        lockedPremium = lockedPremium - ll.premium + premium;\n        lockedAmount = lockedAmount - ll.amount + tokenXAmount;\n        ll.premium = premium;\n        ll.amount = tokenXAmount;\n    }\n\n    /**\n     * @notice Called by BufferOptions to unlock the funds\n     * @param id Id of LockedLiquidity that should be unlocked\n     */\n    function _unlock(uint256 id)\n        internal\n        onlyRole(OPTION_ISSUER_ROLE)\n        returns (uint256 premium)\n    {\n        LockedLiquidity storage ll = lockedLiquidity[msg.sender][id];\n        require(ll.locked, \"Pool: lockedAmount is already unlocked\");\n        ll.locked = false;\n\n        lockedPremium = lockedPremium - ll.premium;\n        lockedAmount = lockedAmount - ll.amount;\n        premium = ll.premium;\n    }\n\n    /**\n     * @notice Called by BufferOptions to unlock the funds\n     * @param id Id of LockedLiquidity that should be unlocked\n     */\n    function unlock(uint256 id) external override {\n        uint256 premium = _unlock(id);\n\n        emit Profit(id, premium);\n    }\n\n    /**\n     * @notice Called by BufferOptions to unlock the funds\n     * @param id Id of LockedLiquidity that should be unlocked\n     */\n    function unlockWithoutProfit(uint256 id) external override {\n        _unlock(id);\n    }\n\n    /**\n     * @notice Called by BufferCallOptions to send funds to liquidity providers after an option's expiration\n     * @param to Provider\n     * @param tokenXAmount Funds that should be sent\n     */\n    function send(\n        uint256 id,\n        address to,\n        uint256 tokenXAmount\n    ) external override onlyRole(OPTION_ISSUER_ROLE) {\n        LockedLiquidity storage ll = lockedLiquidity[msg.sender][id];\n        require(ll.locked, \"Pool: lockedAmount is already unlocked\");\n        require(to != address(0));\n\n        ll.locked = false;\n        lockedPremium = lockedPremium - ll.premium;\n        lockedAmount = lockedAmount - ll.amount;\n\n        uint256 transferTokenXAmount = tokenXAmount > ll.amount\n            ? ll.amount\n            : tokenXAmount;\n\n        bool success = tokenX.transfer(to, transferTokenXAmount);\n        require(success, \"Pool: The Payout transfer didn't go through\");\n\n        if (transferTokenXAmount <= ll.premium)\n            emit Profit(id, ll.premium - transferTokenXAmount);\n        else emit Loss(id, transferTokenXAmount - ll.premium);\n    }\n\n    /**\n     * @notice Returns provider's share in X\n     * @param account Provider's address\n     * @return share Provider's share in X\n     */\n    function shareOf(address account) external view returns (uint256 share) {\n        if (totalSupply() > 0)\n            share = (totalTokenXBalance() * balanceOf(account)) / totalSupply();\n        else share = 0;\n    }\n\n    /**\n     * @notice Returns the amount of X available for withdrawals\n     * @return balance Unlocked amount\n     */\n    function availableBalance() public view returns (uint256 balance) {\n        return totalTokenXBalance() - lockedAmount;\n    }\n\n    /**\n     * @notice Returns the total balance of X provided to the pool\n     * @return balance Pool balance\n     */\n    function totalTokenXBalance()\n        public\n        view\n        override\n        returns (uint256 balance)\n    {\n        return tokenX.balanceOf(address(this)) - lockedPremium;\n    }\n\n    function divCeil(uint256 a, uint256 b) internal pure returns (uint256) {\n        require(b > 0);\n        uint256 c = a / b;\n        if (a % b != 0) c = c + 1;\n        return c;\n    }\n}\n",
  "sourcePath": "contracts/Pool/BufferIBFRPoolV2.sol",
  "type": "contract"
}