{
  "abi": [
    {
      "inputs": [
        {
          "internalType": "contract ERC20",
          "name": "_tokenX",
          "type": "address"
        },
        {
          "internalType": "contract IPriceProvider",
          "name": "pp",
          "type": "address"
        },
        {
          "internalType": "contract BufferIBFRPoolV2",
          "name": "_pool",
          "type": "address"
        },
        {
          "internalType": "contract OptionConfig",
          "name": "_config",
          "type": "address"
        },
        {
          "internalType": "contract ERC20",
          "name": "_USDC",
          "type": "address"
        }
      ],
      "stateMutability": "nonpayable",
      "type": "constructor"
    },
    {
      "anonymous": false,
      "inputs": [
        {
          "indexed": true,
          "internalType": "address",
          "name": "owner",
          "type": "address"
        },
        {
          "indexed": true,
          "internalType": "address",
          "name": "approved",
          "type": "address"
        },
        {
          "indexed": true,
          "internalType": "uint256",
          "name": "tokenId",
          "type": "uint256"
        }
      ],
      "name": "Approval",
      "type": "event"
    },
    {
      "anonymous": false,
      "inputs": [
        {
          "indexed": true,
          "internalType": "address",
          "name": "owner",
          "type": "address"
        },
        {
          "indexed": true,
          "internalType": "address",
          "name": "operator",
          "type": "address"
        },
        {
          "indexed": false,
          "internalType": "bool",
          "name": "approved",
          "type": "bool"
        }
      ],
      "name": "ApprovalForAll",
      "type": "event"
    },
    {
      "anonymous": false,
      "inputs": [
        {
          "indexed": true,
          "internalType": "address",
          "name": "approval",
          "type": "address"
        },
        {
          "indexed": true,
          "internalType": "uint256",
          "name": "tokenId",
          "type": "uint256"
        },
        {
          "indexed": false,
          "internalType": "uint256",
          "name": "allowance",
          "type": "uint256"
        }
      ],
      "name": "ApprovalUnits",
      "type": "event"
    },
    {
      "anonymous": false,
      "inputs": [
        {
          "indexed": true,
          "internalType": "address",
          "name": "account",
          "type": "address"
        },
        {
          "indexed": false,
          "internalType": "bool",
          "name": "status",
          "type": "bool"
        }
      ],
      "name": "AutoExerciseStatusChange",
      "type": "event"
    },
    {
      "anonymous": false,
      "inputs": [
        {
          "indexed": true,
          "internalType": "uint256",
          "name": "id",
          "type": "uint256"
        },
        {
          "indexed": true,
          "internalType": "address",
          "name": "account",
          "type": "address"
        },
        {
          "indexed": false,
          "internalType": "uint256",
          "name": "settlementFee",
          "type": "uint256"
        },
        {
          "indexed": false,
          "internalType": "uint256",
          "name": "totalFee",
          "type": "uint256"
        },
        {
          "indexed": false,
          "internalType": "string",
          "name": "metadata",
          "type": "string"
        }
      ],
      "name": "Create",
      "type": "event"
    },
    {
      "anonymous": false,
      "inputs": [
        {
          "indexed": true,
          "internalType": "uint256",
          "name": "id",
          "type": "uint256"
        },
        {
          "indexed": false,
          "internalType": "uint256",
          "name": "profit",
          "type": "uint256"
        }
      ],
      "name": "Exercise",
      "type": "event"
    },
    {
      "anonymous": false,
      "inputs": [
        {
          "indexed": true,
          "internalType": "uint256",
          "name": "id",
          "type": "uint256"
        },
        {
          "indexed": false,
          "internalType": "uint256",
          "name": "premium",
          "type": "uint256"
        }
      ],
      "name": "Expire",
      "type": "event"
    },
    {
      "anonymous": false,
      "inputs": [
        {
          "indexed": true,
          "internalType": "address",
          "name": "owner",
          "type": "address"
        },
        {
          "indexed": true,
          "internalType": "uint256",
          "name": "tokenId",
          "type": "uint256"
        },
        {
          "indexed": true,
          "internalType": "uint256",
          "name": "targetTokenId",
          "type": "uint256"
        },
        {
          "indexed": false,
          "internalType": "uint256",
          "name": "mergeUnits",
          "type": "uint256"
        }
      ],
      "name": "Merge",
      "type": "event"
    },
    {
      "anonymous": false,
      "inputs": [
        {
          "indexed": true,
          "internalType": "address",
          "name": "previousOwner",
          "type": "address"
        },
        {
          "indexed": true,
          "internalType": "address",
          "name": "newOwner",
          "type": "address"
        }
      ],
      "name": "OwnershipTransferred",
      "type": "event"
    },
    {
      "anonymous": false,
      "inputs": [
        {
          "indexed": true,
          "internalType": "address",
          "name": "owner",
          "type": "address"
        },
        {
          "indexed": false,
          "internalType": "uint256",
          "name": "amount",
          "type": "uint256"
        }
      ],
      "name": "PayAdminFee",
      "type": "event"
    },
    {
      "anonymous": false,
      "inputs": [
        {
          "indexed": true,
          "internalType": "address",
          "name": "referrer",
          "type": "address"
        },
        {
          "indexed": false,
          "internalType": "uint256",
          "name": "amount",
          "type": "uint256"
        }
      ],
      "name": "PayReferralFee",
      "type": "event"
    },
    {
      "anonymous": false,
      "inputs": [
        {
          "indexed": true,
          "internalType": "bytes32",
          "name": "role",
          "type": "bytes32"
        },
        {
          "indexed": true,
          "internalType": "bytes32",
          "name": "previousAdminRole",
          "type": "bytes32"
        },
        {
          "indexed": true,
          "internalType": "bytes32",
          "name": "newAdminRole",
          "type": "bytes32"
        }
      ],
      "name": "RoleAdminChanged",
      "type": "event"
    },
    {
      "anonymous": false,
      "inputs": [
        {
          "indexed": true,
          "internalType": "bytes32",
          "name": "role",
          "type": "bytes32"
        },
        {
          "indexed": true,
          "internalType": "address",
          "name": "account",
          "type": "address"
        },
        {
          "indexed": true,
          "internalType": "address",
          "name": "sender",
          "type": "address"
        }
      ],
      "name": "RoleGranted",
      "type": "event"
    },
    {
      "anonymous": false,
      "inputs": [
        {
          "indexed": true,
          "internalType": "bytes32",
          "name": "role",
          "type": "bytes32"
        },
        {
          "indexed": true,
          "internalType": "address",
          "name": "account",
          "type": "address"
        },
        {
          "indexed": true,
          "internalType": "address",
          "name": "sender",
          "type": "address"
        }
      ],
      "name": "RoleRevoked",
      "type": "event"
    },
    {
      "anonymous": false,
      "inputs": [
        {
          "indexed": true,
          "internalType": "address",
          "name": "owner",
          "type": "address"
        },
        {
          "indexed": true,
          "internalType": "uint256",
          "name": "tokenId",
          "type": "uint256"
        },
        {
          "indexed": false,
          "internalType": "uint256",
          "name": "newTokenId",
          "type": "uint256"
        },
        {
          "indexed": false,
          "internalType": "uint256",
          "name": "splitUnits",
          "type": "uint256"
        }
      ],
      "name": "Split",
      "type": "event"
    },
    {
      "anonymous": false,
      "inputs": [
        {
          "indexed": true,
          "internalType": "address",
          "name": "from",
          "type": "address"
        },
        {
          "indexed": true,
          "internalType": "address",
          "name": "to",
          "type": "address"
        },
        {
          "indexed": true,
          "internalType": "uint256",
          "name": "tokenId",
          "type": "uint256"
        }
      ],
      "name": "Transfer",
      "type": "event"
    },
    {
      "anonymous": false,
      "inputs": [
        {
          "indexed": true,
          "internalType": "address",
          "name": "from",
          "type": "address"
        },
        {
          "indexed": true,
          "internalType": "address",
          "name": "to",
          "type": "address"
        },
        {
          "indexed": true,
          "internalType": "uint256",
          "name": "tokenId",
          "type": "uint256"
        },
        {
          "indexed": false,
          "internalType": "uint256",
          "name": "targetTokenId",
          "type": "uint256"
        },
        {
          "indexed": false,
          "internalType": "uint256",
          "name": "transferUnits",
          "type": "uint256"
        }
      ],
      "name": "TransferUnits",
      "type": "event"
    },
    {
      "anonymous": false,
      "inputs": [
        {
          "indexed": false,
          "internalType": "uint256",
          "name": "startHour",
          "type": "uint256"
        },
        {
          "indexed": false,
          "internalType": "uint256",
          "name": "startMinute",
          "type": "uint256"
        },
        {
          "indexed": false,
          "internalType": "uint256",
          "name": "endHour",
          "type": "uint256"
        },
        {
          "indexed": false,
          "internalType": "uint256",
          "name": "endMinute",
          "type": "uint256"
        }
      ],
      "name": "UpdateOptionCreationWindow",
      "type": "event"
    },
    {
      "inputs": [],
      "name": "AUTO_CLOSER_ROLE",
      "outputs": [
        {
          "internalType": "bytes32",
          "name": "",
          "type": "bytes32"
        }
      ],
      "stateMutability": "view",
      "type": "function"
    },
    {
      "inputs": [],
      "name": "DEFAULT_ADMIN_ROLE",
      "outputs": [
        {
          "internalType": "bytes32",
          "name": "",
          "type": "bytes32"
        }
      ],
      "stateMutability": "view",
      "type": "function"
    },
    {
      "inputs": [],
      "name": "USDC",
      "outputs": [
        {
          "internalType": "contract ERC20",
          "name": "",
          "type": "address"
        }
      ],
      "stateMutability": "view",
      "type": "function"
    },
    {
      "inputs": [
        {
          "internalType": "uint256",
          "name": "",
          "type": "uint256"
        }
      ],
      "name": "_units",
      "outputs": [
        {
          "internalType": "uint256",
          "name": "",
          "type": "uint256"
        }
      ],
      "stateMutability": "view",
      "type": "function"
    },
    {
      "inputs": [
        {
          "internalType": "uint256",
          "name": "optionId_",
          "type": "uint256"
        },
        {
          "internalType": "address",
          "name": "spender_",
          "type": "address"
        }
      ],
      "name": "allowance",
      "outputs": [
        {
          "internalType": "uint256",
          "name": "",
          "type": "uint256"
        }
      ],
      "stateMutability": "view",
      "type": "function"
    },
    {
      "inputs": [
        {
          "internalType": "address",
          "name": "to",
          "type": "address"
        },
        {
          "internalType": "uint256",
          "name": "tokenId",
          "type": "uint256"
        }
      ],
      "name": "approve",
      "outputs": [],
      "stateMutability": "nonpayable",
      "type": "function"
    },
    {
      "inputs": [
        {
          "internalType": "address",
          "name": "to_",
          "type": "address"
        },
        {
          "internalType": "uint256",
          "name": "optionId_",
          "type": "uint256"
        },
        {
          "internalType": "uint256",
          "name": "allowance_",
          "type": "uint256"
        }
      ],
      "name": "approve",
      "outputs": [],
      "stateMutability": "nonpayable",
      "type": "function"
    },
    {
      "inputs": [],
      "name": "approvePoolToTransferTokenX",
      "outputs": [],
      "stateMutability": "nonpayable",
      "type": "function"
    },
    {
      "inputs": [
        {
          "internalType": "address",
          "name": "",
          "type": "address"
        }
      ],
      "name": "autoExerciseStatus",
      "outputs": [
        {
          "internalType": "bool",
          "name": "",
          "type": "bool"
        }
      ],
      "stateMutability": "view",
      "type": "function"
    },
    {
      "inputs": [
        {
          "internalType": "address",
          "name": "owner",
          "type": "address"
        }
      ],
      "name": "balanceOf",
      "outputs": [
        {
          "internalType": "uint256",
          "name": "",
          "type": "uint256"
        }
      ],
      "stateMutability": "view",
      "type": "function"
    },
    {
      "inputs": [
        {
          "internalType": "uint256",
          "name": "tokenId_",
          "type": "uint256"
        }
      ],
      "name": "burn",
      "outputs": [],
      "stateMutability": "nonpayable",
      "type": "function"
    },
    {
      "inputs": [],
      "name": "config",
      "outputs": [
        {
          "internalType": "contract OptionConfig",
          "name": "",
          "type": "address"
        }
      ],
      "stateMutability": "view",
      "type": "function"
    },
    {
      "inputs": [
        {
          "internalType": "uint256",
          "name": "amount",
          "type": "uint256"
        },
        {
          "internalType": "address",
          "name": "referrer",
          "type": "address"
        },
        {
          "internalType": "string",
          "name": "metadata",
          "type": "string"
        },
        {
          "internalType": "enum IBufferOptions.PaymentMethod",
          "name": "_paymentMethod",
          "type": "uint8"
        }
      ],
      "name": "create",
      "outputs": [
        {
          "internalType": "uint256",
          "name": "optionID",
          "type": "uint256"
        }
      ],
      "stateMutability": "nonpayable",
      "type": "function"
    },
    {
      "inputs": [
        {
          "internalType": "uint256",
          "name": "optionID",
          "type": "uint256"
        }
      ],
      "name": "exercise",
      "outputs": [
        {
          "internalType": "uint256",
          "name": "profit",
          "type": "uint256"
        }
      ],
      "stateMutability": "nonpayable",
      "type": "function"
    },
    {
      "inputs": [
        {
          "internalType": "uint256",
          "name": "optionID",
          "type": "uint256"
        }
      ],
      "name": "exists",
      "outputs": [
        {
          "internalType": "bool",
          "name": "",
          "type": "bool"
        }
      ],
      "stateMutability": "view",
      "type": "function"
    },
    {
      "inputs": [
        {
          "internalType": "uint256",
          "name": "period",
          "type": "uint256"
        },
        {
          "internalType": "uint256",
          "name": "amount",
          "type": "uint256"
        },
        {
          "internalType": "uint256",
          "name": "strike",
          "type": "uint256"
        },
        {
          "internalType": "enum IBufferOptions.OptionType",
          "name": "optionType",
          "type": "uint8"
        }
      ],
      "name": "fees",
      "outputs": [
        {
          "internalType": "uint256",
          "name": "total",
          "type": "uint256"
        },
        {
          "internalType": "uint256",
          "name": "settlementFee",
          "type": "uint256"
        },
        {
          "internalType": "uint256",
          "name": "premium",
          "type": "uint256"
        }
      ],
      "stateMutability": "view",
      "type": "function"
    },
    {
      "inputs": [],
      "name": "fixedOptionType",
      "outputs": [
        {
          "internalType": "enum IBufferOptions.OptionType",
          "name": "",
          "type": "uint8"
        }
      ],
      "stateMutability": "view",
      "type": "function"
    },
    {
      "inputs": [
        {
          "internalType": "uint256",
          "name": "tokenId",
          "type": "uint256"
        }
      ],
      "name": "getApproved",
      "outputs": [
        {
          "internalType": "address",
          "name": "",
          "type": "address"
        }
      ],
      "stateMutability": "view",
      "type": "function"
    },
    {
      "inputs": [
        {
          "internalType": "bytes32",
          "name": "role",
          "type": "bytes32"
        }
      ],
      "name": "getRoleAdmin",
      "outputs": [
        {
          "internalType": "bytes32",
          "name": "",
          "type": "bytes32"
        }
      ],
      "stateMutability": "view",
      "type": "function"
    },
    {
      "inputs": [
        {
          "internalType": "bytes32",
          "name": "role",
          "type": "bytes32"
        },
        {
          "internalType": "address",
          "name": "account",
          "type": "address"
        }
      ],
      "name": "grantRole",
      "outputs": [],
      "stateMutability": "nonpayable",
      "type": "function"
    },
    {
      "inputs": [
        {
          "internalType": "bytes32",
          "name": "role",
          "type": "bytes32"
        },
        {
          "internalType": "address",
          "name": "account",
          "type": "address"
        }
      ],
      "name": "hasRole",
      "outputs": [
        {
          "internalType": "bool",
          "name": "",
          "type": "bool"
        }
      ],
      "stateMutability": "view",
      "type": "function"
    },
    {
      "inputs": [
        {
          "internalType": "address",
          "name": "",
          "type": "address"
        }
      ],
      "name": "hasUserBoughtFirstOption",
      "outputs": [
        {
          "internalType": "bool",
          "name": "",
          "type": "bool"
        }
      ],
      "stateMutability": "view",
      "type": "function"
    },
    {
      "inputs": [
        {
          "internalType": "address",
          "name": "owner",
          "type": "address"
        },
        {
          "internalType": "address",
          "name": "operator",
          "type": "address"
        }
      ],
      "name": "isApprovedForAll",
      "outputs": [
        {
          "internalType": "bool",
          "name": "",
          "type": "bool"
        }
      ],
      "stateMutability": "view",
      "type": "function"
    },
    {
      "inputs": [],
      "name": "maxUnits",
      "outputs": [
        {
          "internalType": "uint256",
          "name": "",
          "type": "uint256"
        }
      ],
      "stateMutability": "view",
      "type": "function"
    },
    {
      "inputs": [
        {
          "internalType": "uint256[]",
          "name": "optionIDs",
          "type": "uint256[]"
        },
        {
          "internalType": "uint256",
          "name": "targetOptionID",
          "type": "uint256"
        }
      ],
      "name": "merge",
      "outputs": [],
      "stateMutability": "nonpayable",
      "type": "function"
    },
    {
      "inputs": [],
      "name": "minimumYield",
      "outputs": [
        {
          "internalType": "uint256",
          "name": "",
          "type": "uint256"
        }
      ],
      "stateMutability": "view",
      "type": "function"
    },
    {
      "inputs": [],
      "name": "name",
      "outputs": [
        {
          "internalType": "string",
          "name": "",
          "type": "string"
        }
      ],
      "stateMutability": "view",
      "type": "function"
    },
    {
      "inputs": [],
      "name": "nextTokenId",
      "outputs": [
        {
          "internalType": "uint256",
          "name": "",
          "type": "uint256"
        }
      ],
      "stateMutability": "view",
      "type": "function"
    },
    {
      "inputs": [
        {
          "internalType": "uint256",
          "name": "",
          "type": "uint256"
        }
      ],
      "name": "optionSlotMapping",
      "outputs": [
        {
          "internalType": "uint256",
          "name": "",
          "type": "uint256"
        }
      ],
      "stateMutability": "view",
      "type": "function"
    },
    {
      "inputs": [
        {
          "internalType": "uint256",
          "name": "",
          "type": "uint256"
        }
      ],
      "name": "options",
      "outputs": [
        {
          "internalType": "enum IBufferOptions.State",
          "name": "state",
          "type": "uint8"
        },
        {
          "internalType": "uint256",
          "name": "strike",
          "type": "uint256"
        },
        {
          "internalType": "uint256",
          "name": "amount",
          "type": "uint256"
        },
        {
          "internalType": "uint256",
          "name": "lockedAmount",
          "type": "uint256"
        },
        {
          "internalType": "uint256",
          "name": "premium",
          "type": "uint256"
        },
        {
          "internalType": "uint256",
          "name": "expiration",
          "type": "uint256"
        },
        {
          "internalType": "enum IBufferOptions.OptionType",
          "name": "optionType",
          "type": "uint8"
        }
      ],
      "stateMutability": "view",
      "type": "function"
    },
    {
      "inputs": [],
      "name": "owner",
      "outputs": [
        {
          "internalType": "address",
          "name": "",
          "type": "address"
        }
      ],
      "stateMutability": "view",
      "type": "function"
    },
    {
      "inputs": [
        {
          "internalType": "uint256",
          "name": "tokenId",
          "type": "uint256"
        }
      ],
      "name": "ownerOf",
      "outputs": [
        {
          "internalType": "address",
          "name": "",
          "type": "address"
        }
      ],
      "stateMutability": "view",
      "type": "function"
    },
    {
      "inputs": [],
      "name": "pool",
      "outputs": [
        {
          "internalType": "contract BufferIBFRPoolV2",
          "name": "",
          "type": "address"
        }
      ],
      "stateMutability": "view",
      "type": "function"
    },
    {
      "inputs": [],
      "name": "priceProvider",
      "outputs": [
        {
          "internalType": "contract IPriceProvider",
          "name": "",
          "type": "address"
        }
      ],
      "stateMutability": "view",
      "type": "function"
    },
    {
      "inputs": [],
      "name": "renounceOwnership",
      "outputs": [],
      "stateMutability": "nonpayable",
      "type": "function"
    },
    {
      "inputs": [
        {
          "internalType": "bytes32",
          "name": "role",
          "type": "bytes32"
        },
        {
          "internalType": "address",
          "name": "account",
          "type": "address"
        }
      ],
      "name": "renounceRole",
      "outputs": [],
      "stateMutability": "nonpayable",
      "type": "function"
    },
    {
      "inputs": [
        {
          "internalType": "bytes32",
          "name": "role",
          "type": "bytes32"
        },
        {
          "internalType": "address",
          "name": "account",
          "type": "address"
        }
      ],
      "name": "revokeRole",
      "outputs": [],
      "stateMutability": "nonpayable",
      "type": "function"
    },
    {
      "inputs": [
        {
          "internalType": "address",
          "name": "from",
          "type": "address"
        },
        {
          "internalType": "address",
          "name": "to",
          "type": "address"
        },
        {
          "internalType": "uint256",
          "name": "tokenId",
          "type": "uint256"
        }
      ],
      "name": "safeTransferFrom",
      "outputs": [],
      "stateMutability": "nonpayable",
      "type": "function"
    },
    {
      "inputs": [
        {
          "internalType": "address",
          "name": "from",
          "type": "address"
        },
        {
          "internalType": "address",
          "name": "to",
          "type": "address"
        },
        {
          "internalType": "uint256",
          "name": "tokenId",
          "type": "uint256"
        },
        {
          "internalType": "bytes",
          "name": "_data",
          "type": "bytes"
        }
      ],
      "name": "safeTransferFrom",
      "outputs": [],
      "stateMutability": "nonpayable",
      "type": "function"
    },
    {
      "inputs": [
        {
          "internalType": "address",
          "name": "operator",
          "type": "address"
        },
        {
          "internalType": "bool",
          "name": "approved",
          "type": "bool"
        }
      ],
      "name": "setApprovalForAll",
      "outputs": [],
      "stateMutability": "nonpayable",
      "type": "function"
    },
    {
      "inputs": [
        {
          "internalType": "bool",
          "name": "status",
          "type": "bool"
        }
      ],
      "name": "setAutoExerciseStatus",
      "outputs": [],
      "stateMutability": "nonpayable",
      "type": "function"
    },
    {
      "inputs": [],
      "name": "settlementFeeRecipient",
      "outputs": [
        {
          "internalType": "address",
          "name": "",
          "type": "address"
        }
      ],
      "stateMutability": "view",
      "type": "function"
    },
    {
      "inputs": [
        {
          "internalType": "uint256",
          "name": "",
          "type": "uint256"
        }
      ],
      "name": "slotDetails",
      "outputs": [
        {
          "internalType": "uint256",
          "name": "strike",
          "type": "uint256"
        },
        {
          "internalType": "uint256",
          "name": "expiration",
          "type": "uint256"
        },
        {
          "internalType": "enum IBufferOptions.OptionType",
          "name": "optionType",
          "type": "uint8"
        },
        {
          "internalType": "bool",
          "name": "isValid",
          "type": "bool"
        }
      ],
      "stateMutability": "view",
      "type": "function"
    },
    {
      "inputs": [
        {
          "internalType": "uint256",
          "name": "optionId_",
          "type": "uint256"
        }
      ],
      "name": "slotOf",
      "outputs": [
        {
          "internalType": "uint256",
          "name": "",
          "type": "uint256"
        }
      ],
      "stateMutability": "view",
      "type": "function"
    },
    {
      "inputs": [
        {
          "internalType": "uint256",
          "name": "optionID",
          "type": "uint256"
        },
        {
          "internalType": "uint256[]",
          "name": "splitUnits_",
          "type": "uint256[]"
        }
      ],
      "name": "split",
      "outputs": [
        {
          "internalType": "uint256[]",
          "name": "newOptionIDs",
          "type": "uint256[]"
        }
      ],
      "stateMutability": "nonpayable",
      "type": "function"
    },
    {
      "inputs": [
        {
          "internalType": "bytes4",
          "name": "interfaceId",
          "type": "bytes4"
        }
      ],
      "name": "supportsInterface",
      "outputs": [
        {
          "internalType": "bool",
          "name": "",
          "type": "bool"
        }
      ],
      "stateMutability": "view",
      "type": "function"
    },
    {
      "inputs": [],
      "name": "symbol",
      "outputs": [
        {
          "internalType": "string",
          "name": "",
          "type": "string"
        }
      ],
      "stateMutability": "view",
      "type": "function"
    },
    {
      "inputs": [
        {
          "internalType": "uint256",
          "name": "slot_",
          "type": "uint256"
        },
        {
          "internalType": "uint256",
          "name": "index_",
          "type": "uint256"
        }
      ],
      "name": "tokenOfSlotByIndex",
      "outputs": [
        {
          "internalType": "uint256",
          "name": "",
          "type": "uint256"
        }
      ],
      "stateMutability": "view",
      "type": "function"
    },
    {
      "inputs": [
        {
          "internalType": "uint256",
          "name": "tokenId",
          "type": "uint256"
        }
      ],
      "name": "tokenURI",
      "outputs": [
        {
          "internalType": "string",
          "name": "",
          "type": "string"
        }
      ],
      "stateMutability": "view",
      "type": "function"
    },
    {
      "inputs": [],
      "name": "tokenX",
      "outputs": [
        {
          "internalType": "contract ERC20",
          "name": "",
          "type": "address"
        }
      ],
      "stateMutability": "view",
      "type": "function"
    },
    {
      "inputs": [
        {
          "internalType": "uint256",
          "name": "slot_",
          "type": "uint256"
        }
      ],
      "name": "tokensInSlot",
      "outputs": [
        {
          "internalType": "uint256",
          "name": "",
          "type": "uint256"
        }
      ],
      "stateMutability": "view",
      "type": "function"
    },
    {
      "inputs": [
        {
          "internalType": "address",
          "name": "from",
          "type": "address"
        },
        {
          "internalType": "address",
          "name": "to",
          "type": "address"
        },
        {
          "internalType": "uint256",
          "name": "tokenId",
          "type": "uint256"
        }
      ],
      "name": "transferFrom",
      "outputs": [],
      "stateMutability": "nonpayable",
      "type": "function"
    },
    {
      "inputs": [
        {
          "internalType": "address",
          "name": "from_",
          "type": "address"
        },
        {
          "internalType": "address",
          "name": "to_",
          "type": "address"
        },
        {
          "internalType": "uint256",
          "name": "optionID",
          "type": "uint256"
        },
        {
          "internalType": "uint256",
          "name": "targetOptionID",
          "type": "uint256"
        },
        {
          "internalType": "uint256",
          "name": "transferUnits_",
          "type": "uint256"
        }
      ],
      "name": "transferFrom",
      "outputs": [],
      "stateMutability": "nonpayable",
      "type": "function"
    },
    {
      "inputs": [
        {
          "internalType": "address",
          "name": "from_",
          "type": "address"
        },
        {
          "internalType": "address",
          "name": "to_",
          "type": "address"
        },
        {
          "internalType": "uint256",
          "name": "optionID",
          "type": "uint256"
        },
        {
          "internalType": "uint256",
          "name": "transferUnits_",
          "type": "uint256"
        }
      ],
      "name": "transferFrom",
      "outputs": [
        {
          "internalType": "uint256",
          "name": "newOptionID",
          "type": "uint256"
        }
      ],
      "stateMutability": "nonpayable",
      "type": "function"
    },
    {
      "inputs": [
        {
          "internalType": "address",
          "name": "newOwner",
          "type": "address"
        }
      ],
      "name": "transferOwnership",
      "outputs": [],
      "stateMutability": "nonpayable",
      "type": "function"
    },
    {
      "inputs": [],
      "name": "unitDecimals",
      "outputs": [
        {
          "internalType": "uint8",
          "name": "",
          "type": "uint8"
        }
      ],
      "stateMutability": "view",
      "type": "function"
    },
    {
      "inputs": [
        {
          "internalType": "uint256",
          "name": "slot_",
          "type": "uint256"
        }
      ],
      "name": "unitsInSlot",
      "outputs": [
        {
          "internalType": "uint256",
          "name": "units_",
          "type": "uint256"
        }
      ],
      "stateMutability": "view",
      "type": "function"
    },
    {
      "inputs": [
        {
          "internalType": "uint256",
          "name": "optionId_",
          "type": "uint256"
        }
      ],
      "name": "unitsInToken",
      "outputs": [
        {
          "internalType": "uint256",
          "name": "",
          "type": "uint256"
        }
      ],
      "stateMutability": "view",
      "type": "function"
    },
    {
      "inputs": [
        {
          "internalType": "uint256",
          "name": "optionID",
          "type": "uint256"
        }
      ],
      "name": "unlock",
      "outputs": [],
      "stateMutability": "nonpayable",
      "type": "function"
    },
    {
      "inputs": [
        {
          "internalType": "uint256[]",
          "name": "optionIDs",
          "type": "uint256[]"
        }
      ],
      "name": "unlockAll",
      "outputs": [],
      "stateMutability": "nonpayable",
      "type": "function"
    },
    {
      "inputs": [],
      "name": "withdrawFunds",
      "outputs": [],
      "stateMutability": "nonpayable",
      "type": "function"
    }
  ],
  "bytecode": "60a0604052620f4240600d55600e805460ff19166012908117909155805460ff60a01b1916600160a11b17905560006013553480156200003e57600080fd5b506040516200608338038062006083833981016040819052620000619162000317565b6040805180820182526006815265213ab33332b960d11b60208083019182528351808501909452600384526221232960e91b908401528151919291620000aa9160009162000271565b508051620000c090600190602084019062000271565b505050620000dd620000d76200016760201b60201c565b6200016b565b6001600755620000ef600033620001bd565b6001600160601b0319606086901b16608052601680546001600160a01b038581166001600160a01b03199283161790925542601b55601780548584169083161790556010805484841690831617905560128054928716929091169190911790556200015c600033620001bd565b5050505050620003ec565b3390565b600680546001600160a01b038381166001600160a01b0319831681179093556040519116919082907f8be0079c531659141344cd1fd0a4f28419497f9722a3daafe3b4186f6b6457e090600090a35050565b620001c98282620001cd565b5050565b60008281526008602090815260408083206001600160a01b038516845290915290205460ff16620001c95760008281526008602090815260408083206001600160a01b03851684529091529020805460ff191660011790556200022d3390565b6001600160a01b0316816001600160a01b0316837f2f8788117e7eff1d82e926ec794901d17c78024a50270940304540a733656f0d60405160405180910390a45050565b8280546200027f9062000396565b90600052602060002090601f016020900481019282620002a35760008555620002ee565b82601f10620002be57805160ff1916838001178555620002ee565b82800160010185558215620002ee579182015b82811115620002ee578251825591602001919060010190620002d1565b50620002fc92915062000300565b5090565b5b80821115620002fc576000815560010162000301565b600080600080600060a086880312156200032f578081fd5b85516200033c81620003d3565b60208701519095506200034f81620003d3565b60408701519094506200036281620003d3565b60608701519093506200037581620003d3565b60808701519092506200038881620003d3565b809150509295509295909350565b600181811c90821680620003ab57607f821691505b60208210811415620003cd57634e487b7160e01b600052602260045260246000fd5b50919050565b6001600160a01b0381168114620003e957600080fd5b50565b60805160601c615c396200044a6000396000818161038d01528181610e4f01528181610f1801528181611068015281816115970152818161162601528181611c0001528181612f22015281816131dc01526132ad0152615c396000f3fe608060405234801561001057600080fd5b50600436106102bf5760003560e01c806301ffc9a7146102c457806305271a2a146102ec57806306517a291461030157806306fdde0314610318578063076d948c1461032d578063081812fc14610340578063095ea7b3146103605780630ee2d59b1461037557806316dc165b1461038857806316f0115b146103af578063181731dc146103c25780631cecaa31146103d557806323b872dd146103f657806324600fc314610409578063248a9ca314610411578063263f3e7e146104245780632f2ff15d1461043757806336568abe1461044a578063409e22051461045d578063426a8493146104c057806342842e0e146104d357806342966c68146104e65780634aed53c2146104f95780634f558e791461050c5780635ce6e26e1461051f5780636198e339146105325780636352211e14610545578063645734e61461055857806369c672471461056057806370a0823114610580578063715018a61461059357806375794a3c1461059b57806378c533ce146105a457806379502c55146105c457806389a30271146105d75780638a584118146105ea5780638da5cb5b1461063557806391d148541461063d57806395d89b4114610650578063a217fddf14610658578063a22cb46514610660578063a6d14c0214610673578063a88004251461067b578063b07f0a411461068e578063b7c9a6b0146106a1578063b888879e146106c4578063b88d4fde146106d7578063bbe33ea5146106ea578063becef607146106fd578063c7c3b53f14610710578063c87b56dd14610732578063d149cc3014610745578063d547741f14610758578063d5a0e6731461076b578063dba34e971461078b578063e11d1da2146107a0578063e342b598146107c3578063e345e0bc146107d6578063e985e9c514610810578063f2fde38b14610823578063fe99049a14610836575b600080fd5b6102d76102d23660046152da565b610849565b60405190151581526020015b60405180910390f35b600e5460405160ff90911681526020016102e3565b61030a600d5481565b6040519081526020016102e3565b61032061085a565b6040516102e391906156a9565b61030a61033b36600461529e565b6108ec565b61035361034e36600461529e565b610931565b6040516102e39190615577565b61037361036e36600461517f565b6109be565b005b61030a61038336600461532a565b610acf565b6103537f000000000000000000000000000000000000000000000000000000000000000081565b601654610353906001600160a01b031681565b601454610353906001600160a01b031681565b6012546103e990600160a01b900460ff1681565b6040516102e3919061563f565b610373610404366004615001565b61151d565b61037361154e565b61030a61041f36600461529e565b61174e565b61030a61043236600461529e565b611763565b6103736104453660046152b6565b611775565b6103736104583660046152b6565b611792565b6104ad61046b36600461529e565b601560205260009081526040902080546001820154600283015460038401546004850154600586015460069096015460ff958616969495939492939192911687565b6040516102e3979695949392919061564d565b6103736104ce3660046151aa565b61180c565b6103736104e1366004615001565b611850565b6103736104f436600461529e565b61186b565b610373610507366004615102565b6118ad565b6102d761051a36600461529e565b6119cf565b61037361052d366004615266565b6119da565b61037361054036600461529e565b611a1d565b61035361055336600461529e565b611b6f565b610373611be6565b61057361056e3660046153a9565b611c8f565b6040516102e391906155fb565b61030a61058e366004614f91565b612081565b610373612108565b61030a60135481565b61030a6105b236600461529e565b600f6020526000908152604090205481565b601754610353906001600160a01b031681565b601054610353906001600160a01b031681565b6106256105f836600461529e565b60186020526000908152604090208054600182015460029092015490919060ff8082169161010090041684565b6040516102e39493929190615804565b610353612143565b6102d761064b3660046152b6565b612152565b61032061217d565b61030a600081565b61037361066e366004615152565b61218c565b61030a600581565b61030a61068936600461529e565b61224d565b61030a61069c36600461529e565b612264565b6102d76106af366004614f91565b601a6020526000908152604090205460ff1681565b601254610353906001600160a01b031681565b6103736106e5366004615041565b6125a9565b6103736106f836600461521d565b6125e2565b61030a61070b36600461529e565b6127f1565b61072361071e366004615440565b612803565b6040516102e393929190615879565b61032061074036600461529e565b612946565b61030a6107533660046153f2565b612951565b6103736107663660046152b6565b612970565b61030a61077936600461529e565b600a6020526000908152604090205481565b61030a600080516020615bc483398151915281565b6102d76107ae366004614f91565b60196020526000908152604090205460ff1681565b6103736107d13660046151de565b61298d565b61030a6107e43660046152b6565b6000828152600b602090815260408083206001600160a01b038516845260010190915290205492915050565b6102d761081e366004614fc9565b6129da565b610373610831366004614f91565b612a08565b61030a6108443660046150bd565b612aa5565b600061085482612b7c565b92915050565b60606000805461086990615a6c565b80601f016020809104026020016040519081016040528092919081815260200182805461089590615a6c565b80156108e25780601f106108b7576101008083540402835291602001916108e2565b820191906000526020600020905b8154815290600101906020018083116108c557829003601f168201915b5050505050905090565b6000805b6108f98361224d565b81101561092b5761090d61070b8483612951565b61091790836158d9565b91508061092381615aa1565b9150506108f0565b50919050565b600061093c82612ba1565b6109a25760405162461bcd60e51b815260206004820152602c60248201527f4552433732313a20617070726f76656420717565727920666f72206e6f6e657860448201526b34b9ba32b73a103a37b5b2b760a11b60648201526084015b60405180910390fd5b506000908152600460205260409020546001600160a01b031690565b60006109c982611b6f565b9050806001600160a01b0316836001600160a01b03161415610a375760405162461bcd60e51b815260206004820152602160248201527f4552433732313a20617070726f76616c20746f2063757272656e74206f776e656044820152603960f91b6064820152608401610999565b336001600160a01b0382161480610a535750610a5381336129da565b610ac05760405162461bcd60e51b815260206004820152603860248201527f4552433732313a20617070726f76652063616c6c6572206973206e6f74206f776044820152771b995c881b9bdc88185c1c1c9bdd995908199bdc88185b1b60421b6064820152608401610999565b610aca8383612bbe565b505050565b600060026007541415610b245760405162461bcd60e51b815260206004820152601f60248201527f5265656e7472616e637947756172643a207265656e7472616e742063616c6c006044820152606401610999565b60026007556016546040805163a834069b60e01b8152905142926001600160a01b03169163a834069b916004808301926020929190829003018186803b158015610b6d57600080fd5b505afa158015610b81573d6000803e3d6000fd5b505050506040513d601f19601f82011682018060405250810190610ba59190615312565b11610bc25760405162461bcd60e51b8152600401610999906157e8565b600042601660009054906101000a90046001600160a01b03166001600160a01b031663a834069b6040518163ffffffff1660e01b815260040160206040518083038186803b158015610c1357600080fd5b505afa158015610c27573d6000803e3d6000fd5b505050506040513d601f19601f82011682018060405250810190610c4b9190615312565b610c559190615a12565b90506000601260009054906101000a90046001600160a01b03166001600160a01b0316631acf55826040518163ffffffff1660e01b815260040160206040518083038186803b158015610ca757600080fd5b505afa158015610cbb573d6000803e3d6000fd5b505050506040513d601f19601f82011682018060405250810190610cdf9190615312565b905061a8c0821015610d035760405162461bcd60e51b8152600401610999906157e8565b6000806000610da5858b601760009054906101000a90046001600160a01b03166001600160a01b0316635ee971016040518163ffffffff1660e01b815260040160206040518083038186803b158015610d5b57600080fd5b505afa158015610d6f573d6000803e3d6000fd5b505050506040513d601f19601f82011682018060405250810190610d939190615312565b601254600160a01b900460ff16612803565b919450925090506005610db8868c6159f3565b610dc291906159f3565b610dd0846301e133806159f3565b610ddb9060646159f3565b11610e0d5760405162461bcd60e51b8152602060048201526002602482015261279960f11b6044820152606401610999565b6001876001811115610e2f57634e487b7160e01b600052602160045260246000fd5b1415610eff576040516323b872dd60e01b81526000906001600160a01b037f000000000000000000000000000000000000000000000000000000000000000016906323b872dd90610e889033903090899060040161558b565b602060405180830381600087803b158015610ea257600080fd5b505af1158015610eb6573d6000803e3d6000fd5b505050506040513d601f19601f82011682018060405250810190610eda9190615282565b905080610ef95760405162461bcd60e51b81526004016109999061572a565b5061124c565b6040516370a0823160e01b815283906001600160a01b037f000000000000000000000000000000000000000000000000000000000000000016906370a0823190610f4d903090600401615577565b60206040518083038186803b158015610f6557600080fd5b505afa158015610f79573d6000803e3d6000fd5b505050506040513d601f19601f82011682018060405250810190610f9d9190615312565b1015610fd15760405162461bcd60e51b81526020600482015260036024820152624f313560e81b6044820152606401610999565b60105460165460408051632911d73960e21b815290516000936001600160a01b03908116936323b872dd933393919092169163a4475ce4916004808301926020929190829003018186803b15801561102857600080fd5b505afa15801561103c573d6000803e3d6000fd5b505050506040513d601f19601f820116820180604052508101906110609190614fad565b6305f5e100897f00000000000000000000000000000000000000000000000000000000000000006001600160a01b031663313ce5676040518163ffffffff1660e01b815260040160206040518083038186803b1580156110bf57600080fd5b505afa1580156110d3573d6000803e3d6000fd5b505050506040513d601f19601f820116820180604052508101906110f79190615478565b61110290600a615948565b601060009054906101000a90046001600160a01b03166001600160a01b031663313ce5676040518163ffffffff1660e01b815260040160206040518083038186803b15801561115057600080fd5b505afa158015611164573d6000803e3d6000fd5b505050506040513d601f19601f820116820180604052508101906111889190615478565b61119390600a615948565b61119d908c6159f3565b6111a791906158f1565b6111b191906159f3565b6111bb91906158f1565b6040518463ffffffff1660e01b81526004016111d99392919061558b565b602060405180830381600087803b1580156111f357600080fd5b505af1158015611207573d6000803e3d6000fd5b505050506040513d601f19601f8201168201806040525081019061122b9190615282565b90508061124a5760405162461bcd60e51b81526004016109999061572a565b505b6040805160e081018252600181526017548251635ee9710160e01b815292516000936020808501936001600160a01b031692635ee97101926004808201939291829003018186803b1580156112a057600080fd5b505afa1580156112b4573d6000803e3d6000fd5b505050506040513d601f19601f820116820180604052508101906112d89190615312565b81526020018c81526020016064601760009054906101000a90046001600160a01b03166001600160a01b031663302ce6516040518163ffffffff1660e01b815260040160206040518083038186803b15801561133357600080fd5b505afa158015611347573d6000803e3d6000fd5b505050506040513d601f19601f8201168201806040525081019061136b9190615312565b611375908f6159f3565b61137f91906158f1565b81526020810184905260400161139588426158d9565b8152602001601260149054906101000a900460ff1660028111156113c957634e487b7160e01b600052602160045260246000fd5b905290506113d5612c2c565b96506113e18782612c46565b61140e87336114098a85602001518660a00151601260149054906101000a900460ff16612cfe565b612e4d565b611418878a612e70565b6000611424848c612e7a565b905061143988836060015184608001516133a5565b336000908152601a602052604090205460ff166114c2573360009081526019602052604090205460ff166114a75733600081815260196020908152604091829020805460ff191660019081179091559151918252600080516020615b84833981519152910160405180910390a25b336000908152601a60205260409020805460ff191660011790555b336001600160a01b0316887f89f823a0225c73a75066e963ce2eea7708b57680ec86102773dbd244f541289283888e6040516115009392919061585a565b60405180910390a350506001600755509398975050505050505050565b6115273382613410565b6115435760405162461bcd60e51b815260040161099990615797565b610aca8383836134da565b33611557612143565b6001600160a01b03161461157d5760405162461bcd60e51b815260040161099990615762565b6040516370a0823160e01b81526000906001600160a01b037f000000000000000000000000000000000000000000000000000000000000000016906370a08231906115cc903090600401615577565b60206040518083038186803b1580156115e457600080fd5b505afa1580156115f8573d6000803e3d6000fd5b505050506040513d601f19601f8201168201806040525081019061161c9190615312565b9050801561174b577f00000000000000000000000000000000000000000000000000000000000000006001600160a01b031663a9059cbb601660009054906101000a90046001600160a01b03166001600160a01b031663a4475ce46040518163ffffffff1660e01b815260040160206040518083038186803b1580156116a157600080fd5b505afa1580156116b5573d6000803e3d6000fd5b505050506040513d601f19601f820116820180604052508101906116d99190614fad565b836040518363ffffffff1660e01b81526004016116f79291906155e2565b602060405180830381600087803b15801561171157600080fd5b505af1158015611725573d6000803e3d6000fd5b505050506040513d601f19601f820116820180604052508101906117499190615282565b505b50565b60009081526008602052604090206001015490565b6000908152600a602052604090205490565b61177e8261174e565b6117888133613673565b610aca83836136d7565b6001600160a01b03811633146118025760405162461bcd60e51b815260206004820152602f60248201527f416363657373436f6e74726f6c3a2063616e206f6e6c792072656e6f756e636560448201526e103937b632b9903337b91039b2b63360891b6064820152608401610999565b611749828261375d565b61181582611b6f565b6001600160a01b0316336001600160a01b0316146118455760405162461bcd60e51b8152600401610999906156bc565b610aca8383836137c4565b610aca838383604051806020016040528060008152506125a9565b61187481611b6f565b6001600160a01b0316336001600160a01b0316146118a45760405162461bcd60e51b8152600401610999906156bc565b61174b81613889565b6118b6826119cf565b6118e85760405162461bcd60e51b815260206004820152600360248201526227189960e91b6044820152606401610999565b60008060006118f786856138a1565b509250925092506000611909866139ce565b9050611945868284846060015161192091906158d9565b87856040015161193091906158d9565b87866080015161194091906158d9565b613abd565b601654606082015160808301516040516357a5c96760e01b81529394506001600160a01b03909216926357a5c96792611985928b92909190600401615879565b600060405180830381600087803b15801561199f57600080fd5b505af11580156119b3573d6000803e3d6000fd5b505050506119c48989898989613aef565b505050505050505050565b600061085482612ba1565b33600081815260196020908152604091829020805460ff19168515159081179091559151918252600080516020615b84833981519152910160405180910390a250565b600081815260156020526040902060058101544211611a635760405162461bcd60e51b815260206004820152600260248201526113cd60f21b6044820152606401610999565b6001815460ff166003811115611a8957634e487b7160e01b600052602160045260246000fd5b14611abb5760405162461bcd60e51b81526020600482015260026024820152614f3560f01b6044820152606401610999565b805460ff19166003178155601654604051636198e33960e01b8152600481018490526001600160a01b0390911690636198e33990602401600060405180830381600087803b158015611b0c57600080fd5b505af1158015611b20573d6000803e3d6000fd5b50505050611b2d82613889565b817f5f36a4a575e512eb69d6d28c3b0ff98cca7ba50ad5bf04e14094ad1d425e0d318260040154604051611b6391815260200190565b60405180910390a25050565b6000818152600260205260408120546001600160a01b0316806108545760405162461bcd60e51b815260206004820152602960248201527f4552433732313a206f776e657220717565727920666f72206e6f6e657869737460448201526832b73a103a37b5b2b760b91b6064820152608401610999565b60165460405163095ea7b360e01b81526001600160a01b037f000000000000000000000000000000000000000000000000000000000000000081169263095ea7b392611c3d929190911690600019906004016155e2565b602060405180830381600087803b158015611c5757600080fd5b505af1158015611c6b573d6000803e3d6000fd5b505050506040513d601f19601f8201168201806040525081019061174b9190615282565b606081611cc35760405162461bcd60e51b81526020600482015260026024820152614e3160f01b6044820152606401610999565b816001600160401b03811115611ce957634e487b7160e01b600052604160045260246000fd5b604051908082528060200260200182016040528015611d12578160200160208202803683370190505b5090506000611d20856139ce565b90506000611d2d866127f1565b905060008080805b87811015611f40576000611d47612c2c565b905080888381518110611d6a57634e487b7160e01b600052603260045260246000fd5b602002602001018181525050611da78b828c8c86818110611d9b57634e487b7160e01b600052603260045260246000fd5b90506020020135613d35565b6000868b8b85818110611dca57634e487b7160e01b600052603260045260246000fd5b905060200201358960400151611de091906159f3565b611dea91906158f1565b9050611df681876158d9565b95506000878c8c86818110611e1b57634e487b7160e01b600052603260045260246000fd5b905060200201358a60600151611e3191906159f3565b611e3b91906158f1565b9050611e4781876158d9565b95506000888d8d87818110611e6c57634e487b7160e01b600052603260045260246000fd5b905060200201358b60800151611e8291906159f3565b611e8c91906158f1565b9050611e9881876158d9565b955060006040518060e001604052808c600001516003811115611ecb57634e487b7160e01b600052602160045260246000fd5b81526020018c6020015181526020018581526020018481526020018381526020018c60a0015181526020018c60c001516002811115611f1a57634e487b7160e01b600052602160045260246000fd5b90529050611f288582612c46565b50505050508080611f3890615aa1565b915050611d35565b50611f768986848860600151611f569190615a12565b868960400151611f669190615a12565b858a608001516119409190615a12565b601654606082015160808301516040516357a5c96760e01b81529398506001600160a01b03909216926357a5c96792611fb6928e92909190600401615879565b600060405180830381600087803b158015611fd057600080fd5b505af1158015611fe4573d6000803e3d6000fd5b5050505060005b8781101561207457600061202588838151811061201857634e487b7160e01b600052603260045260246000fd5b60200260200101516139ce565b905061206188838151811061204a57634e487b7160e01b600052603260045260246000fd5b6020026020010151826060015183608001516133a5565b508061206c81615aa1565b915050611feb565b5050505050509392505050565b60006001600160a01b0382166120ec5760405162461bcd60e51b815260206004820152602a60248201527f4552433732313a2062616c616e636520717565727920666f7220746865207a65604482015269726f206164647265737360b01b6064820152608401610999565b506001600160a01b031660009081526003602052604090205490565b33612111612143565b6001600160a01b0316146121375760405162461bcd60e51b815260040161099990615762565b6121416000613e5f565b565b6006546001600160a01b031690565b60009182526008602090815260408084206001600160a01b0393909316845291905290205460ff1690565b60606001805461086990615a6c565b6001600160a01b0382163314156121e15760405162461bcd60e51b815260206004820152601960248201527822a9219b99189d1030b8383937bb32903a379031b0b63632b960391b6044820152606401610999565b3360008181526005602090815260408083206001600160a01b03871680855290835292819020805460ff191686151590811790915590519081529192917f17307eab39ab6107e8899845ad3d59bd9653f200f220920489ca2b5937696c31910160405180910390a35050565b6000818152600c6020526040812061085490613eb1565b600061226f82613ebb565b6122a15760405162461bcd60e51b815260206004820152600360248201526227989960e91b6044820152606401610999565b600082815260156020526040902060058101544211156122e95760405162461bcd60e51b81526020600482015260036024820152624f313360e81b6044820152606401610999565b6001815460ff16600381111561230f57634e487b7160e01b600052602160045260246000fd5b146123425760405162461bcd60e51b815260206004820152600360248201526213cc4d60ea1b6044820152606401610999565b805460ff1916600217815560125460408051630d67aac160e11b815290516000926001600160a01b031691631acf5582916004808301926020929190829003018186803b15801561239257600080fd5b505afa1580156123a6573d6000803e3d6000fd5b505050506040513d601f19601f820116820180604052508101906123ca9190615312565b90506002600683015460ff1660028111156123f557634e487b7160e01b600052602160045260246000fd5b14156124655780826001015411156124345760405162461bcd60e51b8152602060048201526002602482015261279b60f11b6044820152606401610999565b80826002015483600101548361244a9190615a12565b61245491906159f3565b61245e91906158f1565b92506124cb565b808260010154101561249e5760405162461bcd60e51b81526020600482015260026024820152614f3760f01b6044820152606401610999565b8082600201548284600101546124b49190615a12565b6124be91906159f3565b6124c891906158f1565b92505b81600301548311156124df57816003015492505b6016546001600160a01b03166381b34f15856124fa81611b6f565b6040516001600160e01b031960e085901b16815260048101929092526001600160a01b0316602482015260448101869052606401600060405180830381600087803b15801561254857600080fd5b505af115801561255c573d6000803e3d6000fd5b5050505061256984613889565b837e84fe51c7cb34b132b7b6eb5d5a87a489f8d6d284758d00a0402c1bad9a0def8460405161259a91815260200190565b60405180910390a25050919050565b6125b4335b83613410565b6125d05760405162461bcd60e51b815260040161099990615797565b6125dc84848484613f90565b50505050565b816126145760405162461bcd60e51b8152602060048201526002602482015261138d60f21b6044820152606401610999565b600061261f826139ce565b606081015160408201516080830151929350909160005b8681101561277357600061266f89898481811061266357634e487b7160e01b600052603260045260246000fd5b905060200201356139ce565b905080606001518561268191906158d9565b945080604001518461269391906158d9565b93508060800151836126a591906158d9565b6016549093506001600160a01b0316630dbf21b08a8a858181106126d957634e487b7160e01b600052603260045260246000fd5b905060200201356040518263ffffffff1660e01b81526004016126fe91815260200190565b600060405180830381600087803b15801561271857600080fd5b505af115801561272c573d6000803e3d6000fd5b5050505061276089898481811061275357634e487b7160e01b600052603260045260246000fd5b9050602002013588613fc3565b508061276b81615aa1565b915050612636565b506127818585858585613abd565b506016546040516357a5c96760e01b81526001600160a01b03909116906357a5c967906127b690889087908690600401615879565b600060405180830381600087803b1580156127d057600080fd5b505af11580156127e4573d6000803e3d6000fd5b5050505050505050505050565b6000908152600f602052604090205490565b600080600080601260009054906101000a90046001600160a01b03166001600160a01b0316631acf55826040518163ffffffff1660e01b815260040160206040518083038186803b15801561285757600080fd5b505afa15801561286b573d6000803e3d6000fd5b505050506040513d601f19601f8201168201806040525081019061288f9190615312565b6017546016546040516304e2a02960e31b815292935073__FeeCalculator_________________________926327150148926128e5928d928d928d928d928a926001600160a01b0390811692169060040161588f565b60606040518083038186803b1580156128fd57600080fd5b505af4158015612911573d6000803e3d6000fd5b505050506040513d601f19601f820116820180604052508101906129359190615413565b919a90995090975095505050505050565b60606108548261413f565b6000828152600c6020526040812061296990836142a1565b9392505050565b6129798261174e565b6129838133613673565b610aca838361375d565b8060005b818110156125dc576129c88484838181106129bc57634e487b7160e01b600052603260045260246000fd5b90506020020135611a1d565b806129d281615aa1565b915050612991565b6001600160a01b03918216600090815260056020908152604080832093909416825291909152205460ff1690565b33612a11612143565b6001600160a01b031614612a375760405162461bcd60e51b815260040161099990615762565b6001600160a01b038116612a9c5760405162461bcd60e51b815260206004820152602660248201527f4f776e61626c653a206e6577206f776e657220697320746865207a65726f206160448201526564647265737360d01b6064820152608401610999565b61174b81613e5f565b6000612aaf612c2c565b9050600080600080612ac187876138a1565b935093509350935060006040518060e0016040528083600001516003811115612afa57634e487b7160e01b600052602160045260246000fd5b8152602001836020015181526020018681526020018481526020018581526020018360a0015181526020018360c001516002811115612b4957634e487b7160e01b600052602160045260246000fd5b90529050612b578682612c46565b612b628684866133a5565b612b6f8a8a8a898b613aef565b5050505050949350505050565b60006001600160e01b03198216637965db0b60e01b14806108545750610854826142ad565b6000908152600260205260409020546001600160a01b0316151590565b600081815260046020526040902080546001600160a01b0319166001600160a01b0384169081179091558190612bf382611b6f565b6001600160a01b03167f8c5be1e5ebec7d5bd14f71427d1e84f3dd0314c0f7b2291e5b200ac8c7c3b92560405160405180910390a45050565b6013805460009182612c3d83615aa1565b91905055905090565b60008281526015602052604090208151815483929190829060ff19166001836003811115612c8457634e487b7160e01b600052602160045260246000fd5b02179055506020820151816001015560408201518160020155606082015181600301556080820151816004015560a0820151816005015560c08201518160060160006101000a81548160ff02191690836002811115612cf357634e487b7160e01b600052602160045260246000fd5b021790555050505050565b600083838387604051602001612d179493929190615830565b60408051808303601f19018152918152815160209283012060008181526018909352912060020154909150610100900460ff1615612d8e5760405162461bcd60e51b81526020600482015260146024820152731cdb1bdd08185b1c9958591e48195e1a5cdd195960621b6044820152606401610999565b6040518060800160405280858152602001848152602001836002811115612dc557634e487b7160e01b600052602160045260246000fd5b815260016020918201819052600084815260188352604090819020845181559284015183830155830151600280840180549293909260ff1916918490811115612e1e57634e487b7160e01b600052602160045260246000fd5b021790555060609190910151600290910180549115156101000261ff0019909216919091179055949350505050565b6000838152600a60205260409020819055600d54610aca908390859084906142fd565b6117498282614387565b60006064601760009054906101000a90046001600160a01b03166001600160a01b031663ca535c3b6040518163ffffffff1660e01b815260040160206040518083038186803b158015612ecc57600080fd5b505afa158015612ee0573d6000803e3d6000fd5b505050506040513d601f19601f82011682018060405250810190612f049190615312565b612f0e90856159f3565b612f1891906158f1565b90508015613047577f00000000000000000000000000000000000000000000000000000000000000006001600160a01b031663a9059cbb601760009054906101000a90046001600160a01b03166001600160a01b031663181731dc6040518163ffffffff1660e01b815260040160206040518083038186803b158015612f9d57600080fd5b505afa158015612fb1573d6000803e3d6000fd5b505050506040513d601f19601f82011682018060405250810190612fd59190614fad565b836040518363ffffffff1660e01b8152600401612ff39291906155e2565b602060405180830381600087803b15801561300d57600080fd5b505af1158015613021573d6000803e3d6000fd5b505050506040513d601f19601f820116820180604052508101906130459190615282565b505b60006130538285615a12565b9050801561339e5760175460408051634905129f60e11b815290516000926001600160a01b03169163920a253e916004808301926020929190829003018186803b1580156130a057600080fd5b505afa1580156130b4573d6000803e3d6000fd5b505050506040513d601f19601f820116820180604052508101906130d89190615312565b1180156130fe57506130e8612143565b6001600160a01b0316836001600160a01b031614155b801561311357506001600160a01b0383163314155b156132ab5760006064601760009054906101000a90046001600160a01b03166001600160a01b031663920a253e6040518163ffffffff1660e01b815260040160206040518083038186803b15801561316a57600080fd5b505afa15801561317e573d6000803e3d6000fd5b505050506040513d601f19601f820116820180604052508101906131a29190615312565b6131ac90846159f3565b6131b691906158f1565b90506131c28183615a12565b60405163a9059cbb60e01b81529092506001600160a01b037f0000000000000000000000000000000000000000000000000000000000000000169063a9059cbb9061321390879085906004016155e2565b602060405180830381600087803b15801561322d57600080fd5b505af1158015613241573d6000803e3d6000fd5b505050506040513d601f19601f820116820180604052508101906132659190615282565b50836001600160a01b03167f2fc41b7d7df3272c17d9b581fcf235307bc027599c6ed68442c4100bd3a84198826040516132a191815260200190565b60405180910390a2505b7f00000000000000000000000000000000000000000000000000000000000000006001600160a01b031663a9059cbb6132e2612143565b836040518363ffffffff1660e01b81526004016133009291906155e2565b602060405180830381600087803b15801561331a57600080fd5b505af115801561332e573d6000803e3d6000fd5b505050506040513d601f19601f820116820180604052508101906133529190615282565b5061335b612143565b6001600160a01b03167ff0f0487d8990103573e0e5cf4e87e101e2a1ba84c733c556b7a5807e570e5d4c8260405161339591815260200190565b60405180910390a25b5092915050565b60165460405163edd0d42160e01b81526001600160a01b039091169063edd0d421906133d990869086908690600401615879565b600060405180830381600087803b1580156133f357600080fd5b505af1158015613407573d6000803e3d6000fd5b50505050505050565b600061341b82612ba1565b61347c5760405162461bcd60e51b815260206004820152602c60248201527f4552433732313a206f70657261746f7220717565727920666f72206e6f6e657860448201526b34b9ba32b73a103a37b5b2b760a11b6064820152608401610999565b600061348783611b6f565b9050806001600160a01b0316846001600160a01b031614806134c25750836001600160a01b03166134b784610931565b6001600160a01b0316145b806134d257506134d281856129da565b949350505050565b826001600160a01b03166134ed82611b6f565b6001600160a01b0316146135555760405162461bcd60e51b815260206004820152602960248201527f4552433732313a207472616e73666572206f6620746f6b656e2074686174206960448201526839903737ba1037bbb760b91b6064820152608401610999565b6001600160a01b0382166135b75760405162461bcd60e51b8152602060048201526024808201527f4552433732313a207472616e7366657220746f20746865207a65726f206164646044820152637265737360e01b6064820152608401610999565b6135c2838383614412565b6135cd600082612bbe565b6001600160a01b03831660009081526003602052604081208054600192906135f6908490615a12565b90915550506001600160a01b03821660009081526003602052604081208054600192906136249084906158d9565b909155505060008181526002602052604080822080546001600160a01b0319166001600160a01b038681169182179092559151849391871691600080516020615ba483398151915291a4505050565b61367d8282612152565b61174957613695816001600160a01b0316601461442a565b6136a083602061442a565b6040516020016136b1929190615508565b60408051601f198184030181529082905262461bcd60e51b8252610999916004016156a9565b6136e18282612152565b6117495760008281526008602090815260408083206001600160a01b03851684529091529020805460ff191660011790556137193390565b6001600160a01b0316816001600160a01b0316837f2f8788117e7eff1d82e926ec794901d17c78024a50270940304540a733656f0d60405160405180910390a45050565b6137678282612152565b156117495760008281526008602090815260408083206001600160a01b0385168085529252808320805460ff1916905551339285917ff6391f5c32d9c69d2a47ea670b442974b53935d1edc7fd64eb21e047a839171b9190a45050565b6000828152600b602090815260408083206001600160a01b0387168452600101909152902054613826576000828152600b602090815260408220805460018101825590835291200180546001600160a01b0319166001600160a01b0385161790555b6000828152600b602090815260408083206001600160a01b0387168085526001909101835292819020849055518381528492917f8a156bd946dc74ec284c5f4b365ce75ef2a5b9d9462b4cdb1d2400cabf136541910160405180910390a3505050565b6000818152600a602052604081205561174b8161460b565b60008060006138ae614dde565b6138b7866139ce565b905060006138c4876127f1565b9050808683604001516138d791906159f3565b6138e191906158f1565b9450808683608001516138f491906159f3565b6138fe91906158f1565b93508086836060015161391191906159f3565b61391b91906158f1565b925061395287838585606001516139329190615a12565b8886604001516139429190615a12565b8887608001516119409190615a12565b601654606082015160808301516040516357a5c96760e01b81529395506001600160a01b03909216926357a5c96792613992928c92909190600401615879565b600060405180830381600087803b1580156139ac57600080fd5b505af11580156139c0573d6000803e3d6000fd5b505050505092959194509250565b6139d6614dde565b60008281526015602052604090819020815160e081019092528054829060ff166003811115613a1557634e487b7160e01b600052602160045260246000fd5b6003811115613a3457634e487b7160e01b600052602160045260246000fd5b81526001820154602082015260028083015460408301526003830154606083015260048301546080830152600583015460a0830152600683015460c09092019160ff1690811115613a9557634e487b7160e01b600052602160045260246000fd5b6002811115613ab457634e487b7160e01b600052602160045260246000fd5b90525092915050565b613ac5614dde565b5060608401839052604084018290526080840181905283613ae68682612c46565b95945050505050565b613af883611b6f565b6001600160a01b0316856001600160a01b031614613b3d5760405162461bcd60e51b81526020600482015260026024820152614e3960f01b6044820152606401610999565b6001600160a01b038416613b795760405162461bcd60e51b815260206004820152600360248201526204e31360ec1b6044820152606401610999565b336001600160a01b03861614801590613b995750613b9785336129da565b155b15613be4576000838152600b60209081526040808320338452600101909152902054613bc6908290615a12565b6000848152600b602090815260408083203384526001019091529020555b6000838152600f6020526040902054613bfe908290615a12565b6000848152600f6020526040902055613c1682612ba1565b613c3357613c2e8483613c2886611763565b846142fd565b613cdb565b836001600160a01b0316613c4683611b6f565b6001600160a01b031614613c825760405162461bcd60e51b81526020600482015260036024820152624e313160e81b6044820152606401610999565b613c8b82611763565b613c9484611763565b14613cb15760405162461bcd60e51b815260040161099990615746565b6000828152600f6020526040902054613ccb9082906158d9565b6000838152600f60205260409020555b6000838152600a60205260408082205484835291819020919091555183906001600160a01b038087169190881690600080516020615be483398151915290613d26908790879061569b565b60405180910390a45050505050565b613d3f3384613410565b613d705760405162461bcd60e51b8152602060048201526002602482015261271960f11b6044820152606401610999565b613d7982612ba1565b15613dab5760405162461bcd60e51b81526020600482015260026024820152614e3360f01b6044820152606401610999565b613dca82613db885611763565b6000918252600a602052604090912055565b6000838152600f6020526040902054613de4908290615a12565b6000848152600f6020526040812091909155613dff84611b6f565b9050613e158184613e0f87611763565b856142fd565b83816001600160a01b03167ff66885c33d648fcd0d97e0f2a18e30102169c22763473af0fb716f11b4a17dd68585604051613e5192919061569b565b60405180910390a350505050565b600680546001600160a01b038381166001600160a01b0319831681179093556040519116919082907f8be0079c531659141344cd1fd0a4f28419497f9722a3daafe3b4186f6b6457e090600090a35050565b6000610854825490565b6000613ec6826119cf565b613ef85760405162461bcd60e51b815260206004820152600360248201526204f31360ec1b6044820152606401610999565b6000613f0383611b6f565b6001600160a01b0381166000908152601960205260408120549192509060ff168015613f425750613f42600080516020615bc483398151915233612152565b6000858152601560205260408120600581015492935091613f669061070890615a12565b421190506001600160a01b038416331480613f865750828015613f865750805b9695505050505050565b613f9b8484846134da565b613fa78484848461469d565b6125dc5760405162461bcd60e51b8152600401610999906156d8565b613fcc336125ae565b613ffd5760405162461bcd60e51b81526020600482015260026024820152614e3560f01b6044820152606401610999565b808214156140325760405162461bcd60e51b8152602060048201526002602482015261271b60f11b6044820152606401610999565b61403b81611763565b61404483611763565b146140615760405162461bcd60e51b815260040161099990615746565b600061406c83611b6f565b905061407782611b6f565b6001600160a01b0316816001600160a01b0316146140bc5760405162461bcd60e51b815260206004820152600260248201526109c760f31b6044820152606401610999565b6000838152600f6020526040808220548483529120546140dc90826158d9565b6000848152600f60205260409020556140f484613889565b8284836001600160a01b03167fb3ce851d16b3bbec3774d5631a3893dfa2a80e067cfad265dd594402ac3d60968460405161413191815260200190565b60405180910390a450505050565b606061414a82612ba1565b6141b05760405162461bcd60e51b815260206004820152603160248201527f45524337323155524953746f726167653a2055524920717565727920666f72206044820152703737b732bc34b9ba32b73a103a37b5b2b760791b6064820152608401610999565b600082815260096020526040812080546141c990615a6c565b80601f01602080910402602001604051908101604052809291908181526020018280546141f590615a6c565b80156142425780601f1061421757610100808354040283529160200191614242565b820191906000526020600020905b81548152906001019060200180831161422557829003601f168201915b5050505050905060006142536147aa565b9050805160001415614266575092915050565b8151156142985780826040516020016142809291906154d9565b60405160208183030381529060405292505050919050565b6134d2846147ca565b60006129698383614894565b60006001600160e01b031982166380ac58cd60e01b14806142de57506001600160e01b03198216635b5e139f60e01b145b8061085457506301ffc9a760e01b6001600160e01b0319831614610854565b61430683612ba1565b61432e5761431484846148cc565b6000828152600c6020526040902061432c90846149f8565b505b6000838152600f60205260409020546143489082906158d9565b6000848152600f60205260408082209290925590516001600160a01b038616908290600080516020615be483398151915290614131908890879061569b565b61439082612ba1565b6143f35760405162461bcd60e51b815260206004820152602e60248201527f45524337323155524953746f726167653a2055524920736574206f66206e6f6e60448201526d32bc34b9ba32b73a103a37b5b2b760911b6064820152608401610999565b60008281526009602090815260409091208251610aca92840190614e3a565b6001600160a01b03831615610aca57610aca81614a04565b606060006144398360026159f3565b6144449060026158d9565b6001600160401b0381111561446957634e487b7160e01b600052604160045260246000fd5b6040519080825280601f01601f191660200182016040528015614493576020820181803683370190505b509050600360fc1b816000815181106144bc57634e487b7160e01b600052603260045260246000fd5b60200101906001600160f81b031916908160001a905350600f60fb1b816001815181106144f957634e487b7160e01b600052603260045260246000fd5b60200101906001600160f81b031916908160001a905350600061451d8460026159f3565b6145289060016158d9565b90505b60018111156145bc576f181899199a1a9b1b9c1cb0b131b232b360811b85600f166010811061456a57634e487b7160e01b600052603260045260246000fd5b1a60f81b82828151811061458e57634e487b7160e01b600052603260045260246000fd5b60200101906001600160f81b031916908160001a90535060049490941c936145b581615a55565b905061452b565b5083156129695760405162461bcd60e51b815260206004820181905260248201527f537472696e67733a20686578206c656e67746820696e73756666696369656e746044820152606401610999565b600061461682611b6f565b9050600061462383611763565b6000848152600f6020908152604080832054848452600c9092529091209192509061464e9085614ab8565b506000848152600f602052604081205561466784614ac4565b8360006001600160a01b0316846001600160a01b0316600080516020615be483398151915260008560405161413192919061569b565b60006001600160a01b0384163b1561479f57604051630a85bd0160e11b81526001600160a01b0385169063150b7a02906146e19033908990889088906004016155af565b602060405180830381600087803b1580156146fb57600080fd5b505af192505050801561472b575060408051601f3d908101601f19168201909252614728918101906152f6565b60015b614785573d808015614759576040519150601f19603f3d011682016040523d82523d6000602084013e61475e565b606091505b50805161477d5760405162461bcd60e51b8152600401610999906156d8565b805181602001fd5b6001600160e01b031916630a85bd0160e11b1490506134d2565b506001949350505050565b6060604051806060016040528060228152602001615b6260229139905090565b60606147d582612ba1565b6148395760405162461bcd60e51b815260206004820152602f60248201527f4552433732314d657461646174613a2055524920717565727920666f72206e6f60448201526e3732bc34b9ba32b73a103a37b5b2b760891b6064820152608401610999565b60006148436147aa565b905060008151116148635760405180602001604052806000815250612969565b8061486d84614b59565b60405160200161487e9291906154d9565b6040516020818303038152906040529392505050565b60008260000182815481106148b957634e487b7160e01b600052603260045260246000fd5b9060005260206000200154905092915050565b6001600160a01b0382166149225760405162461bcd60e51b815260206004820181905260248201527f4552433732313a206d696e7420746f20746865207a65726f20616464726573736044820152606401610999565b61492b81612ba1565b156149775760405162461bcd60e51b815260206004820152601c60248201527b115490cdcc8c4e881d1bdad95b88185b1c9958591e481b5a5b9d195960221b6044820152606401610999565b61498360008383614412565b6001600160a01b03821660009081526003602052604081208054600192906149ac9084906158d9565b909155505060008181526002602052604080822080546001600160a01b0319166001600160a01b0386169081179091559051839290600080516020615ba4833981519152908290a45050565b60006129698383614c72565b6000818152600b60205260408120905b8154811015610aca57816001016000836000018381548110614a4657634e487b7160e01b600052603260045260246000fd5b60009182526020808320909101546001600160a01b031683528201929092526040018120558154829082908110614a8d57634e487b7160e01b600052603260045260246000fd5b600091825260209091200180546001600160a01b031916905580614ab081615aa1565b915050614a14565b60006129698383614cc1565b6000614acf82611b6f565b9050614add81600084614412565b614ae8600083612bbe565b6001600160a01b0381166000908152600360205260408120805460019290614b11908490615a12565b909155505060008281526002602052604080822080546001600160a01b0319169055518391906001600160a01b03841690600080516020615ba4833981519152908390a45050565b606081614b7d5750506040805180820190915260018152600360fc1b602082015290565b8160005b8115614ba75780614b9181615aa1565b9150614ba09050600a836158f1565b9150614b81565b6000816001600160401b03811115614bcf57634e487b7160e01b600052604160045260246000fd5b6040519080825280601f01601f191660200182016040528015614bf9576020820181803683370190505b5090505b84156134d257614c0e600183615a12565b9150614c1b600a86615abc565b614c269060306158d9565b60f81b818381518110614c4957634e487b7160e01b600052603260045260246000fd5b60200101906001600160f81b031916908160001a905350614c6b600a866158f1565b9450614bfd565b6000818152600183016020526040812054614cb957508154600181810184556000848152602080822090930184905584548482528286019093526040902091909155610854565b506000610854565b60008181526001830160205260408120548015614dd4576000614ce5600183615a12565b8554909150600090614cf990600190615a12565b9050818114614d7a576000866000018281548110614d2757634e487b7160e01b600052603260045260246000fd5b9060005260206000200154905080876000018481548110614d5857634e487b7160e01b600052603260045260246000fd5b6000918252602080832090910192909255918252600188019052604090208390555b8554869080614d9957634e487b7160e01b600052603160045260246000fd5b600190038181906000526020600020016000905590558560010160008681526020019081526020016000206000905560019350505050610854565b6000915050610854565b6040805160e081019091528060008152602001600081526020016000815260200160008152602001600081526020016000815260200160006002811115614e3557634e487b7160e01b600052602160045260246000fd5b905290565b828054614e4690615a6c565b90600052602060002090601f016020900481019282614e685760008555614eae565b82601f10614e8157805160ff1916838001178555614eae565b82800160010185558215614eae579182015b82811115614eae578251825591602001919060010190614e93565b50614eba929150614ebe565b5090565b5b80821115614eba5760008155600101614ebf565b60006001600160401b0380841115614eed57614eed615b12565b604051601f8501601f19908116603f01168101908282118183101715614f1557614f15615b12565b81604052809350858152868686011115614f2e57600080fd5b858560208301376000602087830101525050509392505050565b60008083601f840112614f59578182fd5b5081356001600160401b03811115614f6f578182fd5b6020830191508360208260051b8501011115614f8a57600080fd5b9250929050565b600060208284031215614fa2578081fd5b813561296981615b28565b600060208284031215614fbe578081fd5b815161296981615b28565b60008060408385031215614fdb578081fd5b8235614fe681615b28565b91506020830135614ff681615b28565b809150509250929050565b600080600060608486031215615015578081fd5b833561502081615b28565b9250602084013561503081615b28565b929592945050506040919091013590565b60008060008060808587031215615056578081fd5b843561506181615b28565b9350602085013561507181615b28565b92506040850135915060608501356001600160401b03811115615092578182fd5b8501601f810187136150a2578182fd5b6150b187823560208401614ed3565b91505092959194509250565b600080600080608085870312156150d2578384fd5b84356150dd81615b28565b935060208501356150ed81615b28565b93969395505050506040820135916060013590565b600080600080600060a08688031215615119578081fd5b853561512481615b28565b9450602086013561513481615b28565b94979496505050506040830135926060810135926080909101359150565b60008060408385031215615164578182fd5b823561516f81615b28565b91506020830135614ff681615b3d565b60008060408385031215615191578182fd5b823561519c81615b28565b946020939093013593505050565b6000806000606084860312156151be578081fd5b83356151c981615b28565b95602085013595506040909401359392505050565b600080602083850312156151f0578182fd5b82356001600160401b03811115615205578283fd5b61521185828601614f48565b90969095509350505050565b600080600060408486031215615231578081fd5b83356001600160401b03811115615246578182fd5b61525286828701614f48565b909790965060209590950135949350505050565b600060208284031215615277578081fd5b813561296981615b3d565b600060208284031215615293578081fd5b815161296981615b3d565b6000602082840312156152af578081fd5b5035919050565b600080604083850312156152c8578182fd5b823591506020830135614ff681615b28565b6000602082840312156152eb578081fd5b813561296981615b4b565b600060208284031215615307578081fd5b815161296981615b4b565b600060208284031215615323578081fd5b5051919050565b6000806000806080858703121561533f578182fd5b84359350602085013561535181615b28565b925060408501356001600160401b0381111561536b578283fd5b8501601f8101871361537b578283fd5b61538a87823560208401614ed3565b92505060608501356002811061539e578182fd5b939692955090935050565b6000806000604084860312156153bd578081fd5b8335925060208401356001600160401b038111156153d9578182fd5b6153e586828701614f48565b9497909650939450505050565b60008060408385031215615404578182fd5b50508035926020909101359150565b600080600060608486031215615427578081fd5b8351925060208401519150604084015190509250925092565b60008060008060808587031215615455578182fd5b84359350602085013592506040850135915060608501356003811061539e578182fd5b600060208284031215615489578081fd5b815160ff81168114612969578182fd5b600081518084526154b1816020860160208601615a29565b601f01601f19169290920160200192915050565b600381106154d5576154d5615afc565b9052565b600083516154eb818460208801615a29565b8351908301906154ff818360208801615a29565b01949350505050565b76020b1b1b2b9b9a1b7b73a3937b61d1030b1b1b7bab73a1604d1b81526000835161553a816017850160208801615a29565b7001034b99036b4b9b9b4b733903937b6329607d1b601791840191820152835161556b816028840160208801615a29565b01602801949350505050565b6001600160a01b0391909116815260200190565b6001600160a01b039384168152919092166020820152604081019190915260600190565b6001600160a01b0385811682528416602082015260408101839052608060608201819052600090613f8690830184615499565b6001600160a01b03929092168252602082015260400190565b6020808252825182820181905260009190848201906040850190845b8181101561563357835183529284019291840191600101615617565b50909695505050505050565b6020810161085482846154c5565b60e081016004891061566157615661615afc565b8882528760208301528660408301528560608301528460808301528360a083015261568f60c08301846154c5565b98975050505050505050565b918252602082015260400190565b6020815260006129696020830184615499565b6020808252600290820152614f3960f01b604082015260600190565b60208082526032908201527f4552433732313a207472616e7366657220746f206e6f6e20455243373231526560408201527131b2b4bb32b91034b6b83632b6b2b73a32b960711b606082015260800190565b6020808252600290820152614f3360f01b604082015260600190565b6020808252600290820152614e3760f01b604082015260600190565b6020808252818101527f4f776e61626c653a2063616c6c6572206973206e6f7420746865206f776e6572604082015260600190565b60208082526031908201527f4552433732313a207472616e736665722063616c6c6572206973206e6f74206f6040820152701ddb995c881b9bdc88185c1c1c9bdd9959607a1b606082015260800190565b6020808252600290820152614f3160f01b604082015260600190565b848152602081018490526080810161581f60408301856154c5565b821515606083015295945050505050565b848152602081018490526080810161584b60408301856154c5565b82606083015295945050505050565b838152826020820152606060408201526000613ae66060830184615499565b9283526020830191909152604082015260600190565b878152602081018790526040810186905260e081016158b160608301876154c5565b60808201949094526001600160a01b0392831660a0820152911660c090910152949350505050565b600082198211156158ec576158ec615ad0565b500190565b60008261590057615900615ae6565b500490565b600181815b8085111561594057816000190482111561592657615926615ad0565b8085161561593357918102915b93841c939080029061590a565b509250929050565b600061296960ff84168360008261596157506001610854565b8161596e57506000610854565b8160018114615984576002811461598e576159aa565b6001915050610854565b60ff84111561599f5761599f615ad0565b50506001821b610854565b5060208310610133831016604e8410600b84101617156159cd575081810a610854565b6159d78383615905565b80600019048211156159eb576159eb615ad0565b029392505050565b6000816000190483118215151615615a0d57615a0d615ad0565b500290565b600082821015615a2457615a24615ad0565b500390565b60005b83811015615a44578181015183820152602001615a2c565b838111156125dc5750506000910152565b600081615a6457615a64615ad0565b506000190190565b600181811c90821680615a8057607f821691505b6020821081141561092b57634e487b7160e01b600052602260045260246000fd5b6000600019821415615ab557615ab5615ad0565b5060010190565b600082615acb57615acb615ae6565b500690565b634e487b7160e01b600052601160045260246000fd5b634e487b7160e01b600052601260045260246000fd5b634e487b7160e01b600052602160045260246000fd5b634e487b7160e01b600052604160045260246000fd5b6001600160a01b038116811461174b57600080fd5b801515811461174b57600080fd5b6001600160e01b03198116811461174b57600080fdfe68747470733a2f2f676174657761792e70696e6174612e636c6f75642f697066732f68d3d9b231e6283ecc485a9fb1e1d0a8c3feaa987c41cdb49c30fad64e5af997ddf252ad1be2c89b69c2b068fc378daa952ba7f163c4a11628f55a4df523b3efdeb3b49547f710c56a925b6e16e3557a50fab4dd8f243bc314f3afba2054ec5b823a343d1c899e61a4db12247636a6882bf1fefae78bef39170f8d0f5b53e456a26469706673582212204732b80ffbcc01030ee5ecbb2728ca1949fde8f4af46fa891db696147a3221d864736f6c63430008040033",
  "bytecodeSha1": "6edf9b873ed961201a0949aeedc4ae3b25d812cc",
  "compiler": {
    "evm_version": "istanbul",
    "optimizer": {
      "enabled": true,
      "runs": 1
    },
    "version": "0.8.4+commit.c7e474f2"
  },
  "contractName": "BufferUSDCTokenXOptions",
  "deployedBytecode": "608060405234801561001057600080fd5b50600436106102bf5760003560e01c806301ffc9a7146102c457806305271a2a146102ec57806306517a291461030157806306fdde0314610318578063076d948c1461032d578063081812fc14610340578063095ea7b3146103605780630ee2d59b1461037557806316dc165b1461038857806316f0115b146103af578063181731dc146103c25780631cecaa31146103d557806323b872dd146103f657806324600fc314610409578063248a9ca314610411578063263f3e7e146104245780632f2ff15d1461043757806336568abe1461044a578063409e22051461045d578063426a8493146104c057806342842e0e146104d357806342966c68146104e65780634aed53c2146104f95780634f558e791461050c5780635ce6e26e1461051f5780636198e339146105325780636352211e14610545578063645734e61461055857806369c672471461056057806370a0823114610580578063715018a61461059357806375794a3c1461059b57806378c533ce146105a457806379502c55146105c457806389a30271146105d75780638a584118146105ea5780638da5cb5b1461063557806391d148541461063d57806395d89b4114610650578063a217fddf14610658578063a22cb46514610660578063a6d14c0214610673578063a88004251461067b578063b07f0a411461068e578063b7c9a6b0146106a1578063b888879e146106c4578063b88d4fde146106d7578063bbe33ea5146106ea578063becef607146106fd578063c7c3b53f14610710578063c87b56dd14610732578063d149cc3014610745578063d547741f14610758578063d5a0e6731461076b578063dba34e971461078b578063e11d1da2146107a0578063e342b598146107c3578063e345e0bc146107d6578063e985e9c514610810578063f2fde38b14610823578063fe99049a14610836575b600080fd5b6102d76102d23660046152da565b610849565b60405190151581526020015b60405180910390f35b600e5460405160ff90911681526020016102e3565b61030a600d5481565b6040519081526020016102e3565b61032061085a565b6040516102e391906156a9565b61030a61033b36600461529e565b6108ec565b61035361034e36600461529e565b610931565b6040516102e39190615577565b61037361036e36600461517f565b6109be565b005b61030a61038336600461532a565b610acf565b6103537f000000000000000000000000000000000000000000000000000000000000000081565b601654610353906001600160a01b031681565b601454610353906001600160a01b031681565b6012546103e990600160a01b900460ff1681565b6040516102e3919061563f565b610373610404366004615001565b61151d565b61037361154e565b61030a61041f36600461529e565b61174e565b61030a61043236600461529e565b611763565b6103736104453660046152b6565b611775565b6103736104583660046152b6565b611792565b6104ad61046b36600461529e565b601560205260009081526040902080546001820154600283015460038401546004850154600586015460069096015460ff958616969495939492939192911687565b6040516102e3979695949392919061564d565b6103736104ce3660046151aa565b61180c565b6103736104e1366004615001565b611850565b6103736104f436600461529e565b61186b565b610373610507366004615102565b6118ad565b6102d761051a36600461529e565b6119cf565b61037361052d366004615266565b6119da565b61037361054036600461529e565b611a1d565b61035361055336600461529e565b611b6f565b610373611be6565b61057361056e3660046153a9565b611c8f565b6040516102e391906155fb565b61030a61058e366004614f91565b612081565b610373612108565b61030a60135481565b61030a6105b236600461529e565b600f6020526000908152604090205481565b601754610353906001600160a01b031681565b601054610353906001600160a01b031681565b6106256105f836600461529e565b60186020526000908152604090208054600182015460029092015490919060ff8082169161010090041684565b6040516102e39493929190615804565b610353612143565b6102d761064b3660046152b6565b612152565b61032061217d565b61030a600081565b61037361066e366004615152565b61218c565b61030a600581565b61030a61068936600461529e565b61224d565b61030a61069c36600461529e565b612264565b6102d76106af366004614f91565b601a6020526000908152604090205460ff1681565b601254610353906001600160a01b031681565b6103736106e5366004615041565b6125a9565b6103736106f836600461521d565b6125e2565b61030a61070b36600461529e565b6127f1565b61072361071e366004615440565b612803565b6040516102e393929190615879565b61032061074036600461529e565b612946565b61030a6107533660046153f2565b612951565b6103736107663660046152b6565b612970565b61030a61077936600461529e565b600a6020526000908152604090205481565b61030a600080516020615bc483398151915281565b6102d76107ae366004614f91565b60196020526000908152604090205460ff1681565b6103736107d13660046151de565b61298d565b61030a6107e43660046152b6565b6000828152600b602090815260408083206001600160a01b038516845260010190915290205492915050565b6102d761081e366004614fc9565b6129da565b610373610831366004614f91565b612a08565b61030a6108443660046150bd565b612aa5565b600061085482612b7c565b92915050565b60606000805461086990615a6c565b80601f016020809104026020016040519081016040528092919081815260200182805461089590615a6c565b80156108e25780601f106108b7576101008083540402835291602001916108e2565b820191906000526020600020905b8154815290600101906020018083116108c557829003601f168201915b5050505050905090565b6000805b6108f98361224d565b81101561092b5761090d61070b8483612951565b61091790836158d9565b91508061092381615aa1565b9150506108f0565b50919050565b600061093c82612ba1565b6109a25760405162461bcd60e51b815260206004820152602c60248201527f4552433732313a20617070726f76656420717565727920666f72206e6f6e657860448201526b34b9ba32b73a103a37b5b2b760a11b60648201526084015b60405180910390fd5b506000908152600460205260409020546001600160a01b031690565b60006109c982611b6f565b9050806001600160a01b0316836001600160a01b03161415610a375760405162461bcd60e51b815260206004820152602160248201527f4552433732313a20617070726f76616c20746f2063757272656e74206f776e656044820152603960f91b6064820152608401610999565b336001600160a01b0382161480610a535750610a5381336129da565b610ac05760405162461bcd60e51b815260206004820152603860248201527f4552433732313a20617070726f76652063616c6c6572206973206e6f74206f776044820152771b995c881b9bdc88185c1c1c9bdd995908199bdc88185b1b60421b6064820152608401610999565b610aca8383612bbe565b505050565b600060026007541415610b245760405162461bcd60e51b815260206004820152601f60248201527f5265656e7472616e637947756172643a207265656e7472616e742063616c6c006044820152606401610999565b60026007556016546040805163a834069b60e01b8152905142926001600160a01b03169163a834069b916004808301926020929190829003018186803b158015610b6d57600080fd5b505afa158015610b81573d6000803e3d6000fd5b505050506040513d601f19601f82011682018060405250810190610ba59190615312565b11610bc25760405162461bcd60e51b8152600401610999906157e8565b600042601660009054906101000a90046001600160a01b03166001600160a01b031663a834069b6040518163ffffffff1660e01b815260040160206040518083038186803b158015610c1357600080fd5b505afa158015610c27573d6000803e3d6000fd5b505050506040513d601f19601f82011682018060405250810190610c4b9190615312565b610c559190615a12565b90506000601260009054906101000a90046001600160a01b03166001600160a01b0316631acf55826040518163ffffffff1660e01b815260040160206040518083038186803b158015610ca757600080fd5b505afa158015610cbb573d6000803e3d6000fd5b505050506040513d601f19601f82011682018060405250810190610cdf9190615312565b905061a8c0821015610d035760405162461bcd60e51b8152600401610999906157e8565b6000806000610da5858b601760009054906101000a90046001600160a01b03166001600160a01b0316635ee971016040518163ffffffff1660e01b815260040160206040518083038186803b158015610d5b57600080fd5b505afa158015610d6f573d6000803e3d6000fd5b505050506040513d601f19601f82011682018060405250810190610d939190615312565b601254600160a01b900460ff16612803565b919450925090506005610db8868c6159f3565b610dc291906159f3565b610dd0846301e133806159f3565b610ddb9060646159f3565b11610e0d5760405162461bcd60e51b8152602060048201526002602482015261279960f11b6044820152606401610999565b6001876001811115610e2f57634e487b7160e01b600052602160045260246000fd5b1415610eff576040516323b872dd60e01b81526000906001600160a01b037f000000000000000000000000000000000000000000000000000000000000000016906323b872dd90610e889033903090899060040161558b565b602060405180830381600087803b158015610ea257600080fd5b505af1158015610eb6573d6000803e3d6000fd5b505050506040513d601f19601f82011682018060405250810190610eda9190615282565b905080610ef95760405162461bcd60e51b81526004016109999061572a565b5061124c565b6040516370a0823160e01b815283906001600160a01b037f000000000000000000000000000000000000000000000000000000000000000016906370a0823190610f4d903090600401615577565b60206040518083038186803b158015610f6557600080fd5b505afa158015610f79573d6000803e3d6000fd5b505050506040513d601f19601f82011682018060405250810190610f9d9190615312565b1015610fd15760405162461bcd60e51b81526020600482015260036024820152624f313560e81b6044820152606401610999565b60105460165460408051632911d73960e21b815290516000936001600160a01b03908116936323b872dd933393919092169163a4475ce4916004808301926020929190829003018186803b15801561102857600080fd5b505afa15801561103c573d6000803e3d6000fd5b505050506040513d601f19601f820116820180604052508101906110609190614fad565b6305f5e100897f00000000000000000000000000000000000000000000000000000000000000006001600160a01b031663313ce5676040518163ffffffff1660e01b815260040160206040518083038186803b1580156110bf57600080fd5b505afa1580156110d3573d6000803e3d6000fd5b505050506040513d601f19601f820116820180604052508101906110f79190615478565b61110290600a615948565b601060009054906101000a90046001600160a01b03166001600160a01b031663313ce5676040518163ffffffff1660e01b815260040160206040518083038186803b15801561115057600080fd5b505afa158015611164573d6000803e3d6000fd5b505050506040513d601f19601f820116820180604052508101906111889190615478565b61119390600a615948565b61119d908c6159f3565b6111a791906158f1565b6111b191906159f3565b6111bb91906158f1565b6040518463ffffffff1660e01b81526004016111d99392919061558b565b602060405180830381600087803b1580156111f357600080fd5b505af1158015611207573d6000803e3d6000fd5b505050506040513d601f19601f8201168201806040525081019061122b9190615282565b90508061124a5760405162461bcd60e51b81526004016109999061572a565b505b6040805160e081018252600181526017548251635ee9710160e01b815292516000936020808501936001600160a01b031692635ee97101926004808201939291829003018186803b1580156112a057600080fd5b505afa1580156112b4573d6000803e3d6000fd5b505050506040513d601f19601f820116820180604052508101906112d89190615312565b81526020018c81526020016064601760009054906101000a90046001600160a01b03166001600160a01b031663302ce6516040518163ffffffff1660e01b815260040160206040518083038186803b15801561133357600080fd5b505afa158015611347573d6000803e3d6000fd5b505050506040513d601f19601f8201168201806040525081019061136b9190615312565b611375908f6159f3565b61137f91906158f1565b81526020810184905260400161139588426158d9565b8152602001601260149054906101000a900460ff1660028111156113c957634e487b7160e01b600052602160045260246000fd5b905290506113d5612c2c565b96506113e18782612c46565b61140e87336114098a85602001518660a00151601260149054906101000a900460ff16612cfe565b612e4d565b611418878a612e70565b6000611424848c612e7a565b905061143988836060015184608001516133a5565b336000908152601a602052604090205460ff166114c2573360009081526019602052604090205460ff166114a75733600081815260196020908152604091829020805460ff191660019081179091559151918252600080516020615b84833981519152910160405180910390a25b336000908152601a60205260409020805460ff191660011790555b336001600160a01b0316887f89f823a0225c73a75066e963ce2eea7708b57680ec86102773dbd244f541289283888e6040516115009392919061585a565b60405180910390a350506001600755509398975050505050505050565b6115273382613410565b6115435760405162461bcd60e51b815260040161099990615797565b610aca8383836134da565b33611557612143565b6001600160a01b03161461157d5760405162461bcd60e51b815260040161099990615762565b6040516370a0823160e01b81526000906001600160a01b037f000000000000000000000000000000000000000000000000000000000000000016906370a08231906115cc903090600401615577565b60206040518083038186803b1580156115e457600080fd5b505afa1580156115f8573d6000803e3d6000fd5b505050506040513d601f19601f8201168201806040525081019061161c9190615312565b9050801561174b577f00000000000000000000000000000000000000000000000000000000000000006001600160a01b031663a9059cbb601660009054906101000a90046001600160a01b03166001600160a01b031663a4475ce46040518163ffffffff1660e01b815260040160206040518083038186803b1580156116a157600080fd5b505afa1580156116b5573d6000803e3d6000fd5b505050506040513d601f19601f820116820180604052508101906116d99190614fad565b836040518363ffffffff1660e01b81526004016116f79291906155e2565b602060405180830381600087803b15801561171157600080fd5b505af1158015611725573d6000803e3d6000fd5b505050506040513d601f19601f820116820180604052508101906117499190615282565b505b50565b60009081526008602052604090206001015490565b6000908152600a602052604090205490565b61177e8261174e565b6117888133613673565b610aca83836136d7565b6001600160a01b03811633146118025760405162461bcd60e51b815260206004820152602f60248201527f416363657373436f6e74726f6c3a2063616e206f6e6c792072656e6f756e636560448201526e103937b632b9903337b91039b2b63360891b6064820152608401610999565b611749828261375d565b61181582611b6f565b6001600160a01b0316336001600160a01b0316146118455760405162461bcd60e51b8152600401610999906156bc565b610aca8383836137c4565b610aca838383604051806020016040528060008152506125a9565b61187481611b6f565b6001600160a01b0316336001600160a01b0316146118a45760405162461bcd60e51b8152600401610999906156bc565b61174b81613889565b6118b6826119cf565b6118e85760405162461bcd60e51b815260206004820152600360248201526227189960e91b6044820152606401610999565b60008060006118f786856138a1565b509250925092506000611909866139ce565b9050611945868284846060015161192091906158d9565b87856040015161193091906158d9565b87866080015161194091906158d9565b613abd565b601654606082015160808301516040516357a5c96760e01b81529394506001600160a01b03909216926357a5c96792611985928b92909190600401615879565b600060405180830381600087803b15801561199f57600080fd5b505af11580156119b3573d6000803e3d6000fd5b505050506119c48989898989613aef565b505050505050505050565b600061085482612ba1565b33600081815260196020908152604091829020805460ff19168515159081179091559151918252600080516020615b84833981519152910160405180910390a250565b600081815260156020526040902060058101544211611a635760405162461bcd60e51b815260206004820152600260248201526113cd60f21b6044820152606401610999565b6001815460ff166003811115611a8957634e487b7160e01b600052602160045260246000fd5b14611abb5760405162461bcd60e51b81526020600482015260026024820152614f3560f01b6044820152606401610999565b805460ff19166003178155601654604051636198e33960e01b8152600481018490526001600160a01b0390911690636198e33990602401600060405180830381600087803b158015611b0c57600080fd5b505af1158015611b20573d6000803e3d6000fd5b50505050611b2d82613889565b817f5f36a4a575e512eb69d6d28c3b0ff98cca7ba50ad5bf04e14094ad1d425e0d318260040154604051611b6391815260200190565b60405180910390a25050565b6000818152600260205260408120546001600160a01b0316806108545760405162461bcd60e51b815260206004820152602960248201527f4552433732313a206f776e657220717565727920666f72206e6f6e657869737460448201526832b73a103a37b5b2b760b91b6064820152608401610999565b60165460405163095ea7b360e01b81526001600160a01b037f000000000000000000000000000000000000000000000000000000000000000081169263095ea7b392611c3d929190911690600019906004016155e2565b602060405180830381600087803b158015611c5757600080fd5b505af1158015611c6b573d6000803e3d6000fd5b505050506040513d601f19601f8201168201806040525081019061174b9190615282565b606081611cc35760405162461bcd60e51b81526020600482015260026024820152614e3160f01b6044820152606401610999565b816001600160401b03811115611ce957634e487b7160e01b600052604160045260246000fd5b604051908082528060200260200182016040528015611d12578160200160208202803683370190505b5090506000611d20856139ce565b90506000611d2d866127f1565b905060008080805b87811015611f40576000611d47612c2c565b905080888381518110611d6a57634e487b7160e01b600052603260045260246000fd5b602002602001018181525050611da78b828c8c86818110611d9b57634e487b7160e01b600052603260045260246000fd5b90506020020135613d35565b6000868b8b85818110611dca57634e487b7160e01b600052603260045260246000fd5b905060200201358960400151611de091906159f3565b611dea91906158f1565b9050611df681876158d9565b95506000878c8c86818110611e1b57634e487b7160e01b600052603260045260246000fd5b905060200201358a60600151611e3191906159f3565b611e3b91906158f1565b9050611e4781876158d9565b95506000888d8d87818110611e6c57634e487b7160e01b600052603260045260246000fd5b905060200201358b60800151611e8291906159f3565b611e8c91906158f1565b9050611e9881876158d9565b955060006040518060e001604052808c600001516003811115611ecb57634e487b7160e01b600052602160045260246000fd5b81526020018c6020015181526020018581526020018481526020018381526020018c60a0015181526020018c60c001516002811115611f1a57634e487b7160e01b600052602160045260246000fd5b90529050611f288582612c46565b50505050508080611f3890615aa1565b915050611d35565b50611f768986848860600151611f569190615a12565b868960400151611f669190615a12565b858a608001516119409190615a12565b601654606082015160808301516040516357a5c96760e01b81529398506001600160a01b03909216926357a5c96792611fb6928e92909190600401615879565b600060405180830381600087803b158015611fd057600080fd5b505af1158015611fe4573d6000803e3d6000fd5b5050505060005b8781101561207457600061202588838151811061201857634e487b7160e01b600052603260045260246000fd5b60200260200101516139ce565b905061206188838151811061204a57634e487b7160e01b600052603260045260246000fd5b6020026020010151826060015183608001516133a5565b508061206c81615aa1565b915050611feb565b5050505050509392505050565b60006001600160a01b0382166120ec5760405162461bcd60e51b815260206004820152602a60248201527f4552433732313a2062616c616e636520717565727920666f7220746865207a65604482015269726f206164647265737360b01b6064820152608401610999565b506001600160a01b031660009081526003602052604090205490565b33612111612143565b6001600160a01b0316146121375760405162461bcd60e51b815260040161099990615762565b6121416000613e5f565b565b6006546001600160a01b031690565b60009182526008602090815260408084206001600160a01b0393909316845291905290205460ff1690565b60606001805461086990615a6c565b6001600160a01b0382163314156121e15760405162461bcd60e51b815260206004820152601960248201527822a9219b99189d1030b8383937bb32903a379031b0b63632b960391b6044820152606401610999565b3360008181526005602090815260408083206001600160a01b03871680855290835292819020805460ff191686151590811790915590519081529192917f17307eab39ab6107e8899845ad3d59bd9653f200f220920489ca2b5937696c31910160405180910390a35050565b6000818152600c6020526040812061085490613eb1565b600061226f82613ebb565b6122a15760405162461bcd60e51b815260206004820152600360248201526227989960e91b6044820152606401610999565b600082815260156020526040902060058101544211156122e95760405162461bcd60e51b81526020600482015260036024820152624f313360e81b6044820152606401610999565b6001815460ff16600381111561230f57634e487b7160e01b600052602160045260246000fd5b146123425760405162461bcd60e51b815260206004820152600360248201526213cc4d60ea1b6044820152606401610999565b805460ff1916600217815560125460408051630d67aac160e11b815290516000926001600160a01b031691631acf5582916004808301926020929190829003018186803b15801561239257600080fd5b505afa1580156123a6573d6000803e3d6000fd5b505050506040513d601f19601f820116820180604052508101906123ca9190615312565b90506002600683015460ff1660028111156123f557634e487b7160e01b600052602160045260246000fd5b14156124655780826001015411156124345760405162461bcd60e51b8152602060048201526002602482015261279b60f11b6044820152606401610999565b80826002015483600101548361244a9190615a12565b61245491906159f3565b61245e91906158f1565b92506124cb565b808260010154101561249e5760405162461bcd60e51b81526020600482015260026024820152614f3760f01b6044820152606401610999565b8082600201548284600101546124b49190615a12565b6124be91906159f3565b6124c891906158f1565b92505b81600301548311156124df57816003015492505b6016546001600160a01b03166381b34f15856124fa81611b6f565b6040516001600160e01b031960e085901b16815260048101929092526001600160a01b0316602482015260448101869052606401600060405180830381600087803b15801561254857600080fd5b505af115801561255c573d6000803e3d6000fd5b5050505061256984613889565b837e84fe51c7cb34b132b7b6eb5d5a87a489f8d6d284758d00a0402c1bad9a0def8460405161259a91815260200190565b60405180910390a25050919050565b6125b4335b83613410565b6125d05760405162461bcd60e51b815260040161099990615797565b6125dc84848484613f90565b50505050565b816126145760405162461bcd60e51b8152602060048201526002602482015261138d60f21b6044820152606401610999565b600061261f826139ce565b606081015160408201516080830151929350909160005b8681101561277357600061266f89898481811061266357634e487b7160e01b600052603260045260246000fd5b905060200201356139ce565b905080606001518561268191906158d9565b945080604001518461269391906158d9565b93508060800151836126a591906158d9565b6016549093506001600160a01b0316630dbf21b08a8a858181106126d957634e487b7160e01b600052603260045260246000fd5b905060200201356040518263ffffffff1660e01b81526004016126fe91815260200190565b600060405180830381600087803b15801561271857600080fd5b505af115801561272c573d6000803e3d6000fd5b5050505061276089898481811061275357634e487b7160e01b600052603260045260246000fd5b9050602002013588613fc3565b508061276b81615aa1565b915050612636565b506127818585858585613abd565b506016546040516357a5c96760e01b81526001600160a01b03909116906357a5c967906127b690889087908690600401615879565b600060405180830381600087803b1580156127d057600080fd5b505af11580156127e4573d6000803e3d6000fd5b5050505050505050505050565b6000908152600f602052604090205490565b600080600080601260009054906101000a90046001600160a01b03166001600160a01b0316631acf55826040518163ffffffff1660e01b815260040160206040518083038186803b15801561285757600080fd5b505afa15801561286b573d6000803e3d6000fd5b505050506040513d601f19601f8201168201806040525081019061288f9190615312565b6017546016546040516304e2a02960e31b815292935073__$b949255e90277c788dcf25edf1f9288c61$__926327150148926128e5928d928d928d928d928a926001600160a01b0390811692169060040161588f565b60606040518083038186803b1580156128fd57600080fd5b505af4158015612911573d6000803e3d6000fd5b505050506040513d601f19601f820116820180604052508101906129359190615413565b919a90995090975095505050505050565b60606108548261413f565b6000828152600c6020526040812061296990836142a1565b9392505050565b6129798261174e565b6129838133613673565b610aca838361375d565b8060005b818110156125dc576129c88484838181106129bc57634e487b7160e01b600052603260045260246000fd5b90506020020135611a1d565b806129d281615aa1565b915050612991565b6001600160a01b03918216600090815260056020908152604080832093909416825291909152205460ff1690565b33612a11612143565b6001600160a01b031614612a375760405162461bcd60e51b815260040161099990615762565b6001600160a01b038116612a9c5760405162461bcd60e51b815260206004820152602660248201527f4f776e61626c653a206e6577206f776e657220697320746865207a65726f206160448201526564647265737360d01b6064820152608401610999565b61174b81613e5f565b6000612aaf612c2c565b9050600080600080612ac187876138a1565b935093509350935060006040518060e0016040528083600001516003811115612afa57634e487b7160e01b600052602160045260246000fd5b8152602001836020015181526020018681526020018481526020018581526020018360a0015181526020018360c001516002811115612b4957634e487b7160e01b600052602160045260246000fd5b90529050612b578682612c46565b612b628684866133a5565b612b6f8a8a8a898b613aef565b5050505050949350505050565b60006001600160e01b03198216637965db0b60e01b14806108545750610854826142ad565b6000908152600260205260409020546001600160a01b0316151590565b600081815260046020526040902080546001600160a01b0319166001600160a01b0384169081179091558190612bf382611b6f565b6001600160a01b03167f8c5be1e5ebec7d5bd14f71427d1e84f3dd0314c0f7b2291e5b200ac8c7c3b92560405160405180910390a45050565b6013805460009182612c3d83615aa1565b91905055905090565b60008281526015602052604090208151815483929190829060ff19166001836003811115612c8457634e487b7160e01b600052602160045260246000fd5b02179055506020820151816001015560408201518160020155606082015181600301556080820151816004015560a0820151816005015560c08201518160060160006101000a81548160ff02191690836002811115612cf357634e487b7160e01b600052602160045260246000fd5b021790555050505050565b600083838387604051602001612d179493929190615830565b60408051808303601f19018152918152815160209283012060008181526018909352912060020154909150610100900460ff1615612d8e5760405162461bcd60e51b81526020600482015260146024820152731cdb1bdd08185b1c9958591e48195e1a5cdd195960621b6044820152606401610999565b6040518060800160405280858152602001848152602001836002811115612dc557634e487b7160e01b600052602160045260246000fd5b815260016020918201819052600084815260188352604090819020845181559284015183830155830151600280840180549293909260ff1916918490811115612e1e57634e487b7160e01b600052602160045260246000fd5b021790555060609190910151600290910180549115156101000261ff0019909216919091179055949350505050565b6000838152600a60205260409020819055600d54610aca908390859084906142fd565b6117498282614387565b60006064601760009054906101000a90046001600160a01b03166001600160a01b031663ca535c3b6040518163ffffffff1660e01b815260040160206040518083038186803b158015612ecc57600080fd5b505afa158015612ee0573d6000803e3d6000fd5b505050506040513d601f19601f82011682018060405250810190612f049190615312565b612f0e90856159f3565b612f1891906158f1565b90508015613047577f00000000000000000000000000000000000000000000000000000000000000006001600160a01b031663a9059cbb601760009054906101000a90046001600160a01b03166001600160a01b031663181731dc6040518163ffffffff1660e01b815260040160206040518083038186803b158015612f9d57600080fd5b505afa158015612fb1573d6000803e3d6000fd5b505050506040513d601f19601f82011682018060405250810190612fd59190614fad565b836040518363ffffffff1660e01b8152600401612ff39291906155e2565b602060405180830381600087803b15801561300d57600080fd5b505af1158015613021573d6000803e3d6000fd5b505050506040513d601f19601f820116820180604052508101906130459190615282565b505b60006130538285615a12565b9050801561339e5760175460408051634905129f60e11b815290516000926001600160a01b03169163920a253e916004808301926020929190829003018186803b1580156130a057600080fd5b505afa1580156130b4573d6000803e3d6000fd5b505050506040513d601f19601f820116820180604052508101906130d89190615312565b1180156130fe57506130e8612143565b6001600160a01b0316836001600160a01b031614155b801561311357506001600160a01b0383163314155b156132ab5760006064601760009054906101000a90046001600160a01b03166001600160a01b031663920a253e6040518163ffffffff1660e01b815260040160206040518083038186803b15801561316a57600080fd5b505afa15801561317e573d6000803e3d6000fd5b505050506040513d601f19601f820116820180604052508101906131a29190615312565b6131ac90846159f3565b6131b691906158f1565b90506131c28183615a12565b60405163a9059cbb60e01b81529092506001600160a01b037f0000000000000000000000000000000000000000000000000000000000000000169063a9059cbb9061321390879085906004016155e2565b602060405180830381600087803b15801561322d57600080fd5b505af1158015613241573d6000803e3d6000fd5b505050506040513d601f19601f820116820180604052508101906132659190615282565b50836001600160a01b03167f2fc41b7d7df3272c17d9b581fcf235307bc027599c6ed68442c4100bd3a84198826040516132a191815260200190565b60405180910390a2505b7f00000000000000000000000000000000000000000000000000000000000000006001600160a01b031663a9059cbb6132e2612143565b836040518363ffffffff1660e01b81526004016133009291906155e2565b602060405180830381600087803b15801561331a57600080fd5b505af115801561332e573d6000803e3d6000fd5b505050506040513d601f19601f820116820180604052508101906133529190615282565b5061335b612143565b6001600160a01b03167ff0f0487d8990103573e0e5cf4e87e101e2a1ba84c733c556b7a5807e570e5d4c8260405161339591815260200190565b60405180910390a25b5092915050565b60165460405163edd0d42160e01b81526001600160a01b039091169063edd0d421906133d990869086908690600401615879565b600060405180830381600087803b1580156133f357600080fd5b505af1158015613407573d6000803e3d6000fd5b50505050505050565b600061341b82612ba1565b61347c5760405162461bcd60e51b815260206004820152602c60248201527f4552433732313a206f70657261746f7220717565727920666f72206e6f6e657860448201526b34b9ba32b73a103a37b5b2b760a11b6064820152608401610999565b600061348783611b6f565b9050806001600160a01b0316846001600160a01b031614806134c25750836001600160a01b03166134b784610931565b6001600160a01b0316145b806134d257506134d281856129da565b949350505050565b826001600160a01b03166134ed82611b6f565b6001600160a01b0316146135555760405162461bcd60e51b815260206004820152602960248201527f4552433732313a207472616e73666572206f6620746f6b656e2074686174206960448201526839903737ba1037bbb760b91b6064820152608401610999565b6001600160a01b0382166135b75760405162461bcd60e51b8152602060048201526024808201527f4552433732313a207472616e7366657220746f20746865207a65726f206164646044820152637265737360e01b6064820152608401610999565b6135c2838383614412565b6135cd600082612bbe565b6001600160a01b03831660009081526003602052604081208054600192906135f6908490615a12565b90915550506001600160a01b03821660009081526003602052604081208054600192906136249084906158d9565b909155505060008181526002602052604080822080546001600160a01b0319166001600160a01b038681169182179092559151849391871691600080516020615ba483398151915291a4505050565b61367d8282612152565b61174957613695816001600160a01b0316601461442a565b6136a083602061442a565b6040516020016136b1929190615508565b60408051601f198184030181529082905262461bcd60e51b8252610999916004016156a9565b6136e18282612152565b6117495760008281526008602090815260408083206001600160a01b03851684529091529020805460ff191660011790556137193390565b6001600160a01b0316816001600160a01b0316837f2f8788117e7eff1d82e926ec794901d17c78024a50270940304540a733656f0d60405160405180910390a45050565b6137678282612152565b156117495760008281526008602090815260408083206001600160a01b0385168085529252808320805460ff1916905551339285917ff6391f5c32d9c69d2a47ea670b442974b53935d1edc7fd64eb21e047a839171b9190a45050565b6000828152600b602090815260408083206001600160a01b0387168452600101909152902054613826576000828152600b602090815260408220805460018101825590835291200180546001600160a01b0319166001600160a01b0385161790555b6000828152600b602090815260408083206001600160a01b0387168085526001909101835292819020849055518381528492917f8a156bd946dc74ec284c5f4b365ce75ef2a5b9d9462b4cdb1d2400cabf136541910160405180910390a3505050565b6000818152600a602052604081205561174b8161460b565b60008060006138ae614dde565b6138b7866139ce565b905060006138c4876127f1565b9050808683604001516138d791906159f3565b6138e191906158f1565b9450808683608001516138f491906159f3565b6138fe91906158f1565b93508086836060015161391191906159f3565b61391b91906158f1565b925061395287838585606001516139329190615a12565b8886604001516139429190615a12565b8887608001516119409190615a12565b601654606082015160808301516040516357a5c96760e01b81529395506001600160a01b03909216926357a5c96792613992928c92909190600401615879565b600060405180830381600087803b1580156139ac57600080fd5b505af11580156139c0573d6000803e3d6000fd5b505050505092959194509250565b6139d6614dde565b60008281526015602052604090819020815160e081019092528054829060ff166003811115613a1557634e487b7160e01b600052602160045260246000fd5b6003811115613a3457634e487b7160e01b600052602160045260246000fd5b81526001820154602082015260028083015460408301526003830154606083015260048301546080830152600583015460a0830152600683015460c09092019160ff1690811115613a9557634e487b7160e01b600052602160045260246000fd5b6002811115613ab457634e487b7160e01b600052602160045260246000fd5b90525092915050565b613ac5614dde565b5060608401839052604084018290526080840181905283613ae68682612c46565b95945050505050565b613af883611b6f565b6001600160a01b0316856001600160a01b031614613b3d5760405162461bcd60e51b81526020600482015260026024820152614e3960f01b6044820152606401610999565b6001600160a01b038416613b795760405162461bcd60e51b815260206004820152600360248201526204e31360ec1b6044820152606401610999565b336001600160a01b03861614801590613b995750613b9785336129da565b155b15613be4576000838152600b60209081526040808320338452600101909152902054613bc6908290615a12565b6000848152600b602090815260408083203384526001019091529020555b6000838152600f6020526040902054613bfe908290615a12565b6000848152600f6020526040902055613c1682612ba1565b613c3357613c2e8483613c2886611763565b846142fd565b613cdb565b836001600160a01b0316613c4683611b6f565b6001600160a01b031614613c825760405162461bcd60e51b81526020600482015260036024820152624e313160e81b6044820152606401610999565b613c8b82611763565b613c9484611763565b14613cb15760405162461bcd60e51b815260040161099990615746565b6000828152600f6020526040902054613ccb9082906158d9565b6000838152600f60205260409020555b6000838152600a60205260408082205484835291819020919091555183906001600160a01b038087169190881690600080516020615be483398151915290613d26908790879061569b565b60405180910390a45050505050565b613d3f3384613410565b613d705760405162461bcd60e51b8152602060048201526002602482015261271960f11b6044820152606401610999565b613d7982612ba1565b15613dab5760405162461bcd60e51b81526020600482015260026024820152614e3360f01b6044820152606401610999565b613dca82613db885611763565b6000918252600a602052604090912055565b6000838152600f6020526040902054613de4908290615a12565b6000848152600f6020526040812091909155613dff84611b6f565b9050613e158184613e0f87611763565b856142fd565b83816001600160a01b03167ff66885c33d648fcd0d97e0f2a18e30102169c22763473af0fb716f11b4a17dd68585604051613e5192919061569b565b60405180910390a350505050565b600680546001600160a01b038381166001600160a01b0319831681179093556040519116919082907f8be0079c531659141344cd1fd0a4f28419497f9722a3daafe3b4186f6b6457e090600090a35050565b6000610854825490565b6000613ec6826119cf565b613ef85760405162461bcd60e51b815260206004820152600360248201526204f31360ec1b6044820152606401610999565b6000613f0383611b6f565b6001600160a01b0381166000908152601960205260408120549192509060ff168015613f425750613f42600080516020615bc483398151915233612152565b6000858152601560205260408120600581015492935091613f669061070890615a12565b421190506001600160a01b038416331480613f865750828015613f865750805b9695505050505050565b613f9b8484846134da565b613fa78484848461469d565b6125dc5760405162461bcd60e51b8152600401610999906156d8565b613fcc336125ae565b613ffd5760405162461bcd60e51b81526020600482015260026024820152614e3560f01b6044820152606401610999565b808214156140325760405162461bcd60e51b8152602060048201526002602482015261271b60f11b6044820152606401610999565b61403b81611763565b61404483611763565b146140615760405162461bcd60e51b815260040161099990615746565b600061406c83611b6f565b905061407782611b6f565b6001600160a01b0316816001600160a01b0316146140bc5760405162461bcd60e51b815260206004820152600260248201526109c760f31b6044820152606401610999565b6000838152600f6020526040808220548483529120546140dc90826158d9565b6000848152600f60205260409020556140f484613889565b8284836001600160a01b03167fb3ce851d16b3bbec3774d5631a3893dfa2a80e067cfad265dd594402ac3d60968460405161413191815260200190565b60405180910390a450505050565b606061414a82612ba1565b6141b05760405162461bcd60e51b815260206004820152603160248201527f45524337323155524953746f726167653a2055524920717565727920666f72206044820152703737b732bc34b9ba32b73a103a37b5b2b760791b6064820152608401610999565b600082815260096020526040812080546141c990615a6c565b80601f01602080910402602001604051908101604052809291908181526020018280546141f590615a6c565b80156142425780601f1061421757610100808354040283529160200191614242565b820191906000526020600020905b81548152906001019060200180831161422557829003601f168201915b5050505050905060006142536147aa565b9050805160001415614266575092915050565b8151156142985780826040516020016142809291906154d9565b60405160208183030381529060405292505050919050565b6134d2846147ca565b60006129698383614894565b60006001600160e01b031982166380ac58cd60e01b14806142de57506001600160e01b03198216635b5e139f60e01b145b8061085457506301ffc9a760e01b6001600160e01b0319831614610854565b61430683612ba1565b61432e5761431484846148cc565b6000828152600c6020526040902061432c90846149f8565b505b6000838152600f60205260409020546143489082906158d9565b6000848152600f60205260408082209290925590516001600160a01b038616908290600080516020615be483398151915290614131908890879061569b565b61439082612ba1565b6143f35760405162461bcd60e51b815260206004820152602e60248201527f45524337323155524953746f726167653a2055524920736574206f66206e6f6e60448201526d32bc34b9ba32b73a103a37b5b2b760911b6064820152608401610999565b60008281526009602090815260409091208251610aca92840190614e3a565b6001600160a01b03831615610aca57610aca81614a04565b606060006144398360026159f3565b6144449060026158d9565b6001600160401b0381111561446957634e487b7160e01b600052604160045260246000fd5b6040519080825280601f01601f191660200182016040528015614493576020820181803683370190505b509050600360fc1b816000815181106144bc57634e487b7160e01b600052603260045260246000fd5b60200101906001600160f81b031916908160001a905350600f60fb1b816001815181106144f957634e487b7160e01b600052603260045260246000fd5b60200101906001600160f81b031916908160001a905350600061451d8460026159f3565b6145289060016158d9565b90505b60018111156145bc576f181899199a1a9b1b9c1cb0b131b232b360811b85600f166010811061456a57634e487b7160e01b600052603260045260246000fd5b1a60f81b82828151811061458e57634e487b7160e01b600052603260045260246000fd5b60200101906001600160f81b031916908160001a90535060049490941c936145b581615a55565b905061452b565b5083156129695760405162461bcd60e51b815260206004820181905260248201527f537472696e67733a20686578206c656e67746820696e73756666696369656e746044820152606401610999565b600061461682611b6f565b9050600061462383611763565b6000848152600f6020908152604080832054848452600c9092529091209192509061464e9085614ab8565b506000848152600f602052604081205561466784614ac4565b8360006001600160a01b0316846001600160a01b0316600080516020615be483398151915260008560405161413192919061569b565b60006001600160a01b0384163b1561479f57604051630a85bd0160e11b81526001600160a01b0385169063150b7a02906146e19033908990889088906004016155af565b602060405180830381600087803b1580156146fb57600080fd5b505af192505050801561472b575060408051601f3d908101601f19168201909252614728918101906152f6565b60015b614785573d808015614759576040519150601f19603f3d011682016040523d82523d6000602084013e61475e565b606091505b50805161477d5760405162461bcd60e51b8152600401610999906156d8565b805181602001fd5b6001600160e01b031916630a85bd0160e11b1490506134d2565b506001949350505050565b6060604051806060016040528060228152602001615b6260229139905090565b60606147d582612ba1565b6148395760405162461bcd60e51b815260206004820152602f60248201527f4552433732314d657461646174613a2055524920717565727920666f72206e6f60448201526e3732bc34b9ba32b73a103a37b5b2b760891b6064820152608401610999565b60006148436147aa565b905060008151116148635760405180602001604052806000815250612969565b8061486d84614b59565b60405160200161487e9291906154d9565b6040516020818303038152906040529392505050565b60008260000182815481106148b957634e487b7160e01b600052603260045260246000fd5b9060005260206000200154905092915050565b6001600160a01b0382166149225760405162461bcd60e51b815260206004820181905260248201527f4552433732313a206d696e7420746f20746865207a65726f20616464726573736044820152606401610999565b61492b81612ba1565b156149775760405162461bcd60e51b815260206004820152601c60248201527b115490cdcc8c4e881d1bdad95b88185b1c9958591e481b5a5b9d195960221b6044820152606401610999565b61498360008383614412565b6001600160a01b03821660009081526003602052604081208054600192906149ac9084906158d9565b909155505060008181526002602052604080822080546001600160a01b0319166001600160a01b0386169081179091559051839290600080516020615ba4833981519152908290a45050565b60006129698383614c72565b6000818152600b60205260408120905b8154811015610aca57816001016000836000018381548110614a4657634e487b7160e01b600052603260045260246000fd5b60009182526020808320909101546001600160a01b031683528201929092526040018120558154829082908110614a8d57634e487b7160e01b600052603260045260246000fd5b600091825260209091200180546001600160a01b031916905580614ab081615aa1565b915050614a14565b60006129698383614cc1565b6000614acf82611b6f565b9050614add81600084614412565b614ae8600083612bbe565b6001600160a01b0381166000908152600360205260408120805460019290614b11908490615a12565b909155505060008281526002602052604080822080546001600160a01b0319169055518391906001600160a01b03841690600080516020615ba4833981519152908390a45050565b606081614b7d5750506040805180820190915260018152600360fc1b602082015290565b8160005b8115614ba75780614b9181615aa1565b9150614ba09050600a836158f1565b9150614b81565b6000816001600160401b03811115614bcf57634e487b7160e01b600052604160045260246000fd5b6040519080825280601f01601f191660200182016040528015614bf9576020820181803683370190505b5090505b84156134d257614c0e600183615a12565b9150614c1b600a86615abc565b614c269060306158d9565b60f81b818381518110614c4957634e487b7160e01b600052603260045260246000fd5b60200101906001600160f81b031916908160001a905350614c6b600a866158f1565b9450614bfd565b6000818152600183016020526040812054614cb957508154600181810184556000848152602080822090930184905584548482528286019093526040902091909155610854565b506000610854565b60008181526001830160205260408120548015614dd4576000614ce5600183615a12565b8554909150600090614cf990600190615a12565b9050818114614d7a576000866000018281548110614d2757634e487b7160e01b600052603260045260246000fd5b9060005260206000200154905080876000018481548110614d5857634e487b7160e01b600052603260045260246000fd5b6000918252602080832090910192909255918252600188019052604090208390555b8554869080614d9957634e487b7160e01b600052603160045260246000fd5b600190038181906000526020600020016000905590558560010160008681526020019081526020016000206000905560019350505050610854565b6000915050610854565b6040805160e081019091528060008152602001600081526020016000815260200160008152602001600081526020016000815260200160006002811115614e3557634e487b7160e01b600052602160045260246000fd5b905290565b828054614e4690615a6c565b90600052602060002090601f016020900481019282614e685760008555614eae565b82601f10614e8157805160ff1916838001178555614eae565b82800160010185558215614eae579182015b82811115614eae578251825591602001919060010190614e93565b50614eba929150614ebe565b5090565b5b80821115614eba5760008155600101614ebf565b60006001600160401b0380841115614eed57614eed615b12565b604051601f8501601f19908116603f01168101908282118183101715614f1557614f15615b12565b81604052809350858152868686011115614f2e57600080fd5b858560208301376000602087830101525050509392505050565b60008083601f840112614f59578182fd5b5081356001600160401b03811115614f6f578182fd5b6020830191508360208260051b8501011115614f8a57600080fd5b9250929050565b600060208284031215614fa2578081fd5b813561296981615b28565b600060208284031215614fbe578081fd5b815161296981615b28565b60008060408385031215614fdb578081fd5b8235614fe681615b28565b91506020830135614ff681615b28565b809150509250929050565b600080600060608486031215615015578081fd5b833561502081615b28565b9250602084013561503081615b28565b929592945050506040919091013590565b60008060008060808587031215615056578081fd5b843561506181615b28565b9350602085013561507181615b28565b92506040850135915060608501356001600160401b03811115615092578182fd5b8501601f810187136150a2578182fd5b6150b187823560208401614ed3565b91505092959194509250565b600080600080608085870312156150d2578384fd5b84356150dd81615b28565b935060208501356150ed81615b28565b93969395505050506040820135916060013590565b600080600080600060a08688031215615119578081fd5b853561512481615b28565b9450602086013561513481615b28565b94979496505050506040830135926060810135926080909101359150565b60008060408385031215615164578182fd5b823561516f81615b28565b91506020830135614ff681615b3d565b60008060408385031215615191578182fd5b823561519c81615b28565b946020939093013593505050565b6000806000606084860312156151be578081fd5b83356151c981615b28565b95602085013595506040909401359392505050565b600080602083850312156151f0578182fd5b82356001600160401b03811115615205578283fd5b61521185828601614f48565b90969095509350505050565b600080600060408486031215615231578081fd5b83356001600160401b03811115615246578182fd5b61525286828701614f48565b909790965060209590950135949350505050565b600060208284031215615277578081fd5b813561296981615b3d565b600060208284031215615293578081fd5b815161296981615b3d565b6000602082840312156152af578081fd5b5035919050565b600080604083850312156152c8578182fd5b823591506020830135614ff681615b28565b6000602082840312156152eb578081fd5b813561296981615b4b565b600060208284031215615307578081fd5b815161296981615b4b565b600060208284031215615323578081fd5b5051919050565b6000806000806080858703121561533f578182fd5b84359350602085013561535181615b28565b925060408501356001600160401b0381111561536b578283fd5b8501601f8101871361537b578283fd5b61538a87823560208401614ed3565b92505060608501356002811061539e578182fd5b939692955090935050565b6000806000604084860312156153bd578081fd5b8335925060208401356001600160401b038111156153d9578182fd5b6153e586828701614f48565b9497909650939450505050565b60008060408385031215615404578182fd5b50508035926020909101359150565b600080600060608486031215615427578081fd5b8351925060208401519150604084015190509250925092565b60008060008060808587031215615455578182fd5b84359350602085013592506040850135915060608501356003811061539e578182fd5b600060208284031215615489578081fd5b815160ff81168114612969578182fd5b600081518084526154b1816020860160208601615a29565b601f01601f19169290920160200192915050565b600381106154d5576154d5615afc565b9052565b600083516154eb818460208801615a29565b8351908301906154ff818360208801615a29565b01949350505050565b76020b1b1b2b9b9a1b7b73a3937b61d1030b1b1b7bab73a1604d1b81526000835161553a816017850160208801615a29565b7001034b99036b4b9b9b4b733903937b6329607d1b601791840191820152835161556b816028840160208801615a29565b01602801949350505050565b6001600160a01b0391909116815260200190565b6001600160a01b039384168152919092166020820152604081019190915260600190565b6001600160a01b0385811682528416602082015260408101839052608060608201819052600090613f8690830184615499565b6001600160a01b03929092168252602082015260400190565b6020808252825182820181905260009190848201906040850190845b8181101561563357835183529284019291840191600101615617565b50909695505050505050565b6020810161085482846154c5565b60e081016004891061566157615661615afc565b8882528760208301528660408301528560608301528460808301528360a083015261568f60c08301846154c5565b98975050505050505050565b918252602082015260400190565b6020815260006129696020830184615499565b6020808252600290820152614f3960f01b604082015260600190565b60208082526032908201527f4552433732313a207472616e7366657220746f206e6f6e20455243373231526560408201527131b2b4bb32b91034b6b83632b6b2b73a32b960711b606082015260800190565b6020808252600290820152614f3360f01b604082015260600190565b6020808252600290820152614e3760f01b604082015260600190565b6020808252818101527f4f776e61626c653a2063616c6c6572206973206e6f7420746865206f776e6572604082015260600190565b60208082526031908201527f4552433732313a207472616e736665722063616c6c6572206973206e6f74206f6040820152701ddb995c881b9bdc88185c1c1c9bdd9959607a1b606082015260800190565b6020808252600290820152614f3160f01b604082015260600190565b848152602081018490526080810161581f60408301856154c5565b821515606083015295945050505050565b848152602081018490526080810161584b60408301856154c5565b82606083015295945050505050565b838152826020820152606060408201526000613ae66060830184615499565b9283526020830191909152604082015260600190565b878152602081018790526040810186905260e081016158b160608301876154c5565b60808201949094526001600160a01b0392831660a0820152911660c090910152949350505050565b600082198211156158ec576158ec615ad0565b500190565b60008261590057615900615ae6565b500490565b600181815b8085111561594057816000190482111561592657615926615ad0565b8085161561593357918102915b93841c939080029061590a565b509250929050565b600061296960ff84168360008261596157506001610854565b8161596e57506000610854565b8160018114615984576002811461598e576159aa565b6001915050610854565b60ff84111561599f5761599f615ad0565b50506001821b610854565b5060208310610133831016604e8410600b84101617156159cd575081810a610854565b6159d78383615905565b80600019048211156159eb576159eb615ad0565b029392505050565b6000816000190483118215151615615a0d57615a0d615ad0565b500290565b600082821015615a2457615a24615ad0565b500390565b60005b83811015615a44578181015183820152602001615a2c565b838111156125dc5750506000910152565b600081615a6457615a64615ad0565b506000190190565b600181811c90821680615a8057607f821691505b6020821081141561092b57634e487b7160e01b600052602260045260246000fd5b6000600019821415615ab557615ab5615ad0565b5060010190565b600082615acb57615acb615ae6565b500690565b634e487b7160e01b600052601160045260246000fd5b634e487b7160e01b600052601260045260246000fd5b634e487b7160e01b600052602160045260246000fd5b634e487b7160e01b600052604160045260246000fd5b6001600160a01b038116811461174b57600080fd5b801515811461174b57600080fd5b6001600160e01b03198116811461174b57600080fdfe68747470733a2f2f676174657761792e70696e6174612e636c6f75642f697066732f68d3d9b231e6283ecc485a9fb1e1d0a8c3feaa987c41cdb49c30fad64e5af997ddf252ad1be2c89b69c2b068fc378daa952ba7f163c4a11628f55a4df523b3efdeb3b49547f710c56a925b6e16e3557a50fab4dd8f243bc314f3afba2054ec5b823a343d1c899e61a4db12247636a6882bf1fefae78bef39170f8d0f5b53e456a26469706673582212204732b80ffbcc01030ee5ecbb2728ca1949fde8f4af46fa891db696147a3221d864736f6c63430008040033",
  "language": "Solidity",
  "natspec": {
    "author": "Heisenberg",
    "kind": "dev",
    "methods": {
      "approve(address,uint256)": {
        "details": "See {IERC721-approve}."
      },
      "approvePoolToTransferTokenX()": {
        "notice": "Call this to set the max approval for tokenX transfers from the options to pool"
      },
      "balanceOf(address)": {
        "details": "See {IERC721-balanceOf}."
      },
      "create(uint256,address,string,uint8)": {
        "notice": "Creates a new option",
        "params": {
          "amount": "Option amount in tokenX"
        },
        "returns": {
          "optionID": "Created option's ID"
        }
      },
      "exercise(uint256)": {
        "notice": "Exercises an active option",
        "params": {
          "optionID": "ID of your option"
        }
      },
      "fees(uint256,uint256,uint256,uint8)": {
        "notice": "Used for getting the actual options prices",
        "params": {
          "amount": "Option amount",
          "optionType": "call/put",
          "period": "Option period in seconds (1 days <= period <= 4 weeks)",
          "strike": "Strike price of the option"
        },
        "returns": {
          "premium": "Amount that covers the price difference in the ITM options",
          "settlementFee": "Amount to be distributed to the Buffer token holders",
          "total": "Total price to be paid"
        }
      },
      "getApproved(uint256)": {
        "details": "See {IERC721-getApproved}."
      },
      "getRoleAdmin(bytes32)": {
        "details": "Returns the admin role that controls `role`. See {grantRole} and {revokeRole}. To change a role's admin, use {_setRoleAdmin}."
      },
      "grantRole(bytes32,address)": {
        "details": "Grants `role` to `account`. If `account` had not been already granted `role`, emits a {RoleGranted} event. Requirements: - the caller must have ``role``'s admin role."
      },
      "hasRole(bytes32,address)": {
        "details": "Returns `true` if `account` has been granted `role`."
      },
      "isApprovedForAll(address,address)": {
        "details": "See {IERC721-isApprovedForAll}."
      },
      "name()": {
        "details": "See {IERC721Metadata-name}."
      },
      "owner()": {
        "details": "Returns the address of the current owner."
      },
      "ownerOf(uint256)": {
        "details": "See {IERC721-ownerOf}."
      },
      "renounceOwnership()": {
        "details": "Leaves the contract without owner. It will not be possible to call `onlyOwner` functions anymore. Can only be called by the current owner. NOTE: Renouncing ownership will leave the contract without an owner, thereby removing any functionality that is only available to the owner."
      },
      "renounceRole(bytes32,address)": {
        "details": "Revokes `role` from the calling account. Roles are often managed via {grantRole} and {revokeRole}: this function's purpose is to provide a mechanism for accounts to lose their privileges if they are compromised (such as when a trusted device is misplaced). If the calling account had been granted `role`, emits a {RoleRevoked} event. Requirements: - the caller must be `account`."
      },
      "revokeRole(bytes32,address)": {
        "details": "Revokes `role` from `account`. If `account` had been granted `role`, emits a {RoleRevoked} event. Requirements: - the caller must have ``role``'s admin role."
      },
      "safeTransferFrom(address,address,uint256)": {
        "details": "See {IERC721-safeTransferFrom}."
      },
      "safeTransferFrom(address,address,uint256,bytes)": {
        "details": "See {IERC721-safeTransferFrom}."
      },
      "setApprovalForAll(address,bool)": {
        "details": "See {IERC721-setApprovalForAll}."
      },
      "setAutoExerciseStatus(bool)": {
        "notice": "Exercise Approval"
      },
      "symbol()": {
        "details": "See {IERC721Metadata-symbol}."
      },
      "tokenURI(uint256)": {
        "details": "Template code provided by OpenZepplin Code Wizard"
      },
      "transferFrom(address,address,uint256)": {
        "details": "See {IERC721-transferFrom}."
      },
      "transferFrom(address,address,uint256,uint256)": {
        "notice": "Transfer part of units of a nft to target address.",
        "params": {
          "from_": "Address of the nft sender",
          "optionID": "Id of the nft to transfer",
          "to_": "Address of the nft recipient",
          "transferUnits_": "Amount of units to transfer"
        }
      },
      "transferFrom(address,address,uint256,uint256,uint256)": {
        "notice": "Transfer part of units of a nft to another nft.",
        "params": {
          "from_": "Address of the nft sender",
          "optionID": "Id of the nft to transfer",
          "targetOptionID": "Id of the nft to receive",
          "to_": "Address of the nft recipient",
          "transferUnits_": "Amount of units to transfer"
        }
      },
      "transferOwnership(address)": {
        "details": "Transfers ownership of the contract to a new account (`newOwner`). Can only be called by the current owner."
      },
      "unlock(uint256)": {
        "notice": "Unlock funds locked in the expired options",
        "params": {
          "optionID": "ID of the option"
        }
      },
      "unlockAll(uint256[])": {
        "notice": "Unlocks an array of options",
        "params": {
          "optionIDs": "array of options"
        }
      }
    },
    "notice": "Buffer TokenX Options Contract",
    "title": "Buffer TokenX Bidirectional (Call and Put) Options",
    "version": 1
  },
  "opcodes": "PUSH1 0x80 PUSH1 0x40 MSTORE CALLVALUE DUP1 ISZERO PUSH2 0x10 JUMPI PUSH1 0x0 DUP1 REVERT JUMPDEST POP PUSH1 0x4 CALLDATASIZE LT PUSH2 0x2BF JUMPI PUSH1 0x0 CALLDATALOAD PUSH1 0xE0 SHR DUP1 PUSH4 0x1FFC9A7 EQ PUSH2 0x2C4 JUMPI DUP1 PUSH4 0x5271A2A EQ PUSH2 0x2EC JUMPI DUP1 PUSH4 0x6517A29 EQ PUSH2 0x301 JUMPI DUP1 PUSH4 0x6FDDE03 EQ PUSH2 0x318 JUMPI DUP1 PUSH4 0x76D948C EQ PUSH2 0x32D JUMPI DUP1 PUSH4 0x81812FC EQ PUSH2 0x340 JUMPI DUP1 PUSH4 0x95EA7B3 EQ PUSH2 0x360 JUMPI DUP1 PUSH4 0xEE2D59B EQ PUSH2 0x375 JUMPI DUP1 PUSH4 0x16DC165B EQ PUSH2 0x388 JUMPI DUP1 PUSH4 0x16F0115B EQ PUSH2 0x3AF JUMPI DUP1 PUSH4 0x181731DC EQ PUSH2 0x3C2 JUMPI DUP1 PUSH4 0x1CECAA31 EQ PUSH2 0x3D5 JUMPI DUP1 PUSH4 0x23B872DD EQ PUSH2 0x3F6 JUMPI DUP1 PUSH4 0x24600FC3 EQ PUSH2 0x409 JUMPI DUP1 PUSH4 0x248A9CA3 EQ PUSH2 0x411 JUMPI DUP1 PUSH4 0x263F3E7E EQ PUSH2 0x424 JUMPI DUP1 PUSH4 0x2F2FF15D EQ PUSH2 0x437 JUMPI DUP1 PUSH4 0x36568ABE EQ PUSH2 0x44A JUMPI DUP1 PUSH4 0x409E2205 EQ PUSH2 0x45D JUMPI DUP1 PUSH4 0x426A8493 EQ PUSH2 0x4C0 JUMPI DUP1 PUSH4 0x42842E0E EQ PUSH2 0x4D3 JUMPI DUP1 PUSH4 0x42966C68 EQ PUSH2 0x4E6 JUMPI DUP1 PUSH4 0x4AED53C2 EQ PUSH2 0x4F9 JUMPI DUP1 PUSH4 0x4F558E79 EQ PUSH2 0x50C JUMPI DUP1 PUSH4 0x5CE6E26E EQ PUSH2 0x51F JUMPI DUP1 PUSH4 0x6198E339 EQ PUSH2 0x532 JUMPI DUP1 PUSH4 0x6352211E EQ PUSH2 0x545 JUMPI DUP1 PUSH4 0x645734E6 EQ PUSH2 0x558 JUMPI DUP1 PUSH4 0x69C67247 EQ PUSH2 0x560 JUMPI DUP1 PUSH4 0x70A08231 EQ PUSH2 0x580 JUMPI DUP1 PUSH4 0x715018A6 EQ PUSH2 0x593 JUMPI DUP1 PUSH4 0x75794A3C EQ PUSH2 0x59B JUMPI DUP1 PUSH4 0x78C533CE EQ PUSH2 0x5A4 JUMPI DUP1 PUSH4 0x79502C55 EQ PUSH2 0x5C4 JUMPI DUP1 PUSH4 0x89A30271 EQ PUSH2 0x5D7 JUMPI DUP1 PUSH4 0x8A584118 EQ PUSH2 0x5EA JUMPI DUP1 PUSH4 0x8DA5CB5B EQ PUSH2 0x635 JUMPI DUP1 PUSH4 0x91D14854 EQ PUSH2 0x63D JUMPI DUP1 PUSH4 0x95D89B41 EQ PUSH2 0x650 JUMPI DUP1 PUSH4 0xA217FDDF EQ PUSH2 0x658 JUMPI DUP1 PUSH4 0xA22CB465 EQ PUSH2 0x660 JUMPI DUP1 PUSH4 0xA6D14C02 EQ PUSH2 0x673 JUMPI DUP1 PUSH4 0xA8800425 EQ PUSH2 0x67B JUMPI DUP1 PUSH4 0xB07F0A41 EQ PUSH2 0x68E JUMPI DUP1 PUSH4 0xB7C9A6B0 EQ PUSH2 0x6A1 JUMPI DUP1 PUSH4 0xB888879E EQ PUSH2 0x6C4 JUMPI DUP1 PUSH4 0xB88D4FDE EQ PUSH2 0x6D7 JUMPI DUP1 PUSH4 0xBBE33EA5 EQ PUSH2 0x6EA JUMPI DUP1 PUSH4 0xBECEF607 EQ PUSH2 0x6FD JUMPI DUP1 PUSH4 0xC7C3B53F EQ PUSH2 0x710 JUMPI DUP1 PUSH4 0xC87B56DD EQ PUSH2 0x732 JUMPI DUP1 PUSH4 0xD149CC30 EQ PUSH2 0x745 JUMPI DUP1 PUSH4 0xD547741F EQ PUSH2 0x758 JUMPI DUP1 PUSH4 0xD5A0E673 EQ PUSH2 0x76B JUMPI DUP1 PUSH4 0xDBA34E97 EQ PUSH2 0x78B JUMPI DUP1 PUSH4 0xE11D1DA2 EQ PUSH2 0x7A0 JUMPI DUP1 PUSH4 0xE342B598 EQ PUSH2 0x7C3 JUMPI DUP1 PUSH4 0xE345E0BC EQ PUSH2 0x7D6 JUMPI DUP1 PUSH4 0xE985E9C5 EQ PUSH2 0x810 JUMPI DUP1 PUSH4 0xF2FDE38B EQ PUSH2 0x823 JUMPI DUP1 PUSH4 0xFE99049A EQ PUSH2 0x836 JUMPI JUMPDEST PUSH1 0x0 DUP1 REVERT JUMPDEST PUSH2 0x2D7 PUSH2 0x2D2 CALLDATASIZE PUSH1 0x4 PUSH2 0x52DA JUMP JUMPDEST PUSH2 0x849 JUMP JUMPDEST PUSH1 0x40 MLOAD SWAP1 ISZERO ISZERO DUP2 MSTORE PUSH1 0x20 ADD JUMPDEST PUSH1 0x40 MLOAD DUP1 SWAP2 SUB SWAP1 RETURN JUMPDEST PUSH1 0xE SLOAD PUSH1 0x40 MLOAD PUSH1 0xFF SWAP1 SWAP2 AND DUP2 MSTORE PUSH1 0x20 ADD PUSH2 0x2E3 JUMP JUMPDEST PUSH2 0x30A PUSH1 0xD SLOAD DUP2 JUMP JUMPDEST PUSH1 0x40 MLOAD SWAP1 DUP2 MSTORE PUSH1 0x20 ADD PUSH2 0x2E3 JUMP JUMPDEST PUSH2 0x320 PUSH2 0x85A JUMP JUMPDEST PUSH1 0x40 MLOAD PUSH2 0x2E3 SWAP2 SWAP1 PUSH2 0x56A9 JUMP JUMPDEST PUSH2 0x30A PUSH2 0x33B CALLDATASIZE PUSH1 0x4 PUSH2 0x529E JUMP JUMPDEST PUSH2 0x8EC JUMP JUMPDEST PUSH2 0x353 PUSH2 0x34E CALLDATASIZE PUSH1 0x4 PUSH2 0x529E JUMP JUMPDEST PUSH2 0x931 JUMP JUMPDEST PUSH1 0x40 MLOAD PUSH2 0x2E3 SWAP2 SWAP1 PUSH2 0x5577 JUMP JUMPDEST PUSH2 0x373 PUSH2 0x36E CALLDATASIZE PUSH1 0x4 PUSH2 0x517F JUMP JUMPDEST PUSH2 0x9BE JUMP JUMPDEST STOP JUMPDEST PUSH2 0x30A PUSH2 0x383 CALLDATASIZE PUSH1 0x4 PUSH2 0x532A JUMP JUMPDEST PUSH2 0xACF JUMP JUMPDEST PUSH2 0x353 PUSH32 0x0 DUP2 JUMP JUMPDEST PUSH1 0x16 SLOAD PUSH2 0x353 SWAP1 PUSH1 0x1 PUSH1 0x1 PUSH1 0xA0 SHL SUB AND DUP2 JUMP JUMPDEST PUSH1 0x14 SLOAD PUSH2 0x353 SWAP1 PUSH1 0x1 PUSH1 0x1 PUSH1 0xA0 SHL SUB AND DUP2 JUMP JUMPDEST PUSH1 0x12 SLOAD PUSH2 0x3E9 SWAP1 PUSH1 0x1 PUSH1 0xA0 SHL SWAP1 DIV PUSH1 0xFF AND DUP2 JUMP JUMPDEST PUSH1 0x40 MLOAD PUSH2 0x2E3 SWAP2 SWAP1 PUSH2 0x563F JUMP JUMPDEST PUSH2 0x373 PUSH2 0x404 CALLDATASIZE PUSH1 0x4 PUSH2 0x5001 JUMP JUMPDEST PUSH2 0x151D JUMP JUMPDEST PUSH2 0x373 PUSH2 0x154E JUMP JUMPDEST PUSH2 0x30A PUSH2 0x41F CALLDATASIZE PUSH1 0x4 PUSH2 0x529E JUMP JUMPDEST PUSH2 0x174E JUMP JUMPDEST PUSH2 0x30A PUSH2 0x432 CALLDATASIZE PUSH1 0x4 PUSH2 0x529E JUMP JUMPDEST PUSH2 0x1763 JUMP JUMPDEST PUSH2 0x373 PUSH2 0x445 CALLDATASIZE PUSH1 0x4 PUSH2 0x52B6 JUMP JUMPDEST PUSH2 0x1775 JUMP JUMPDEST PUSH2 0x373 PUSH2 0x458 CALLDATASIZE PUSH1 0x4 PUSH2 0x52B6 JUMP JUMPDEST PUSH2 0x1792 JUMP JUMPDEST PUSH2 0x4AD PUSH2 0x46B CALLDATASIZE PUSH1 0x4 PUSH2 0x529E JUMP JUMPDEST PUSH1 0x15 PUSH1 0x20 MSTORE PUSH1 0x0 SWAP1 DUP2 MSTORE PUSH1 0x40 SWAP1 KECCAK256 DUP1 SLOAD PUSH1 0x1 DUP3 ADD SLOAD PUSH1 0x2 DUP4 ADD SLOAD PUSH1 0x3 DUP5 ADD SLOAD PUSH1 0x4 DUP6 ADD SLOAD PUSH1 0x5 DUP7 ADD SLOAD PUSH1 0x6 SWAP1 SWAP7 ADD SLOAD PUSH1 0xFF SWAP6 DUP7 AND SWAP7 SWAP5 SWAP6 SWAP4 SWAP5 SWAP3 SWAP4 SWAP2 SWAP3 SWAP2 AND DUP8 JUMP JUMPDEST PUSH1 0x40 MLOAD PUSH2 0x2E3 SWAP8 SWAP7 SWAP6 SWAP5 SWAP4 SWAP3 SWAP2 SWAP1 PUSH2 0x564D JUMP JUMPDEST PUSH2 0x373 PUSH2 0x4CE CALLDATASIZE PUSH1 0x4 PUSH2 0x51AA JUMP JUMPDEST PUSH2 0x180C JUMP JUMPDEST PUSH2 0x373 PUSH2 0x4E1 CALLDATASIZE PUSH1 0x4 PUSH2 0x5001 JUMP JUMPDEST PUSH2 0x1850 JUMP JUMPDEST PUSH2 0x373 PUSH2 0x4F4 CALLDATASIZE PUSH1 0x4 PUSH2 0x529E JUMP JUMPDEST PUSH2 0x186B JUMP JUMPDEST PUSH2 0x373 PUSH2 0x507 CALLDATASIZE PUSH1 0x4 PUSH2 0x5102 JUMP JUMPDEST PUSH2 0x18AD JUMP JUMPDEST PUSH2 0x2D7 PUSH2 0x51A CALLDATASIZE PUSH1 0x4 PUSH2 0x529E JUMP JUMPDEST PUSH2 0x19CF JUMP JUMPDEST PUSH2 0x373 PUSH2 0x52D CALLDATASIZE PUSH1 0x4 PUSH2 0x5266 JUMP JUMPDEST PUSH2 0x19DA JUMP JUMPDEST PUSH2 0x373 PUSH2 0x540 CALLDATASIZE PUSH1 0x4 PUSH2 0x529E JUMP JUMPDEST PUSH2 0x1A1D JUMP JUMPDEST PUSH2 0x353 PUSH2 0x553 CALLDATASIZE PUSH1 0x4 PUSH2 0x529E JUMP JUMPDEST PUSH2 0x1B6F JUMP JUMPDEST PUSH2 0x373 PUSH2 0x1BE6 JUMP JUMPDEST PUSH2 0x573 PUSH2 0x56E CALLDATASIZE PUSH1 0x4 PUSH2 0x53A9 JUMP JUMPDEST PUSH2 0x1C8F JUMP JUMPDEST PUSH1 0x40 MLOAD PUSH2 0x2E3 SWAP2 SWAP1 PUSH2 0x55FB JUMP JUMPDEST PUSH2 0x30A PUSH2 0x58E CALLDATASIZE PUSH1 0x4 PUSH2 0x4F91 JUMP JUMPDEST PUSH2 0x2081 JUMP JUMPDEST PUSH2 0x373 PUSH2 0x2108 JUMP JUMPDEST PUSH2 0x30A PUSH1 0x13 SLOAD DUP2 JUMP JUMPDEST PUSH2 0x30A PUSH2 0x5B2 CALLDATASIZE PUSH1 0x4 PUSH2 0x529E JUMP JUMPDEST PUSH1 0xF PUSH1 0x20 MSTORE PUSH1 0x0 SWAP1 DUP2 MSTORE PUSH1 0x40 SWAP1 KECCAK256 SLOAD DUP2 JUMP JUMPDEST PUSH1 0x17 SLOAD PUSH2 0x353 SWAP1 PUSH1 0x1 PUSH1 0x1 PUSH1 0xA0 SHL SUB AND DUP2 JUMP JUMPDEST PUSH1 0x10 SLOAD PUSH2 0x353 SWAP1 PUSH1 0x1 PUSH1 0x1 PUSH1 0xA0 SHL SUB AND DUP2 JUMP JUMPDEST PUSH2 0x625 PUSH2 0x5F8 CALLDATASIZE PUSH1 0x4 PUSH2 0x529E JUMP JUMPDEST PUSH1 0x18 PUSH1 0x20 MSTORE PUSH1 0x0 SWAP1 DUP2 MSTORE PUSH1 0x40 SWAP1 KECCAK256 DUP1 SLOAD PUSH1 0x1 DUP3 ADD SLOAD PUSH1 0x2 SWAP1 SWAP3 ADD SLOAD SWAP1 SWAP2 SWAP1 PUSH1 0xFF DUP1 DUP3 AND SWAP2 PUSH2 0x100 SWAP1 DIV AND DUP5 JUMP JUMPDEST PUSH1 0x40 MLOAD PUSH2 0x2E3 SWAP5 SWAP4 SWAP3 SWAP2 SWAP1 PUSH2 0x5804 JUMP JUMPDEST PUSH2 0x353 PUSH2 0x2143 JUMP JUMPDEST PUSH2 0x2D7 PUSH2 0x64B CALLDATASIZE PUSH1 0x4 PUSH2 0x52B6 JUMP JUMPDEST PUSH2 0x2152 JUMP JUMPDEST PUSH2 0x320 PUSH2 0x217D JUMP JUMPDEST PUSH2 0x30A PUSH1 0x0 DUP2 JUMP JUMPDEST PUSH2 0x373 PUSH2 0x66E CALLDATASIZE PUSH1 0x4 PUSH2 0x5152 JUMP JUMPDEST PUSH2 0x218C JUMP JUMPDEST PUSH2 0x30A PUSH1 0x5 DUP2 JUMP JUMPDEST PUSH2 0x30A PUSH2 0x689 CALLDATASIZE PUSH1 0x4 PUSH2 0x529E JUMP JUMPDEST PUSH2 0x224D JUMP JUMPDEST PUSH2 0x30A PUSH2 0x69C CALLDATASIZE PUSH1 0x4 PUSH2 0x529E JUMP JUMPDEST PUSH2 0x2264 JUMP JUMPDEST PUSH2 0x2D7 PUSH2 0x6AF CALLDATASIZE PUSH1 0x4 PUSH2 0x4F91 JUMP JUMPDEST PUSH1 0x1A PUSH1 0x20 MSTORE PUSH1 0x0 SWAP1 DUP2 MSTORE PUSH1 0x40 SWAP1 KECCAK256 SLOAD PUSH1 0xFF AND DUP2 JUMP JUMPDEST PUSH1 0x12 SLOAD PUSH2 0x353 SWAP1 PUSH1 0x1 PUSH1 0x1 PUSH1 0xA0 SHL SUB AND DUP2 JUMP JUMPDEST PUSH2 0x373 PUSH2 0x6E5 CALLDATASIZE PUSH1 0x4 PUSH2 0x5041 JUMP JUMPDEST PUSH2 0x25A9 JUMP JUMPDEST PUSH2 0x373 PUSH2 0x6F8 CALLDATASIZE PUSH1 0x4 PUSH2 0x521D JUMP JUMPDEST PUSH2 0x25E2 JUMP JUMPDEST PUSH2 0x30A PUSH2 0x70B CALLDATASIZE PUSH1 0x4 PUSH2 0x529E JUMP JUMPDEST PUSH2 0x27F1 JUMP JUMPDEST PUSH2 0x723 PUSH2 0x71E CALLDATASIZE PUSH1 0x4 PUSH2 0x5440 JUMP JUMPDEST PUSH2 0x2803 JUMP JUMPDEST PUSH1 0x40 MLOAD PUSH2 0x2E3 SWAP4 SWAP3 SWAP2 SWAP1 PUSH2 0x5879 JUMP JUMPDEST PUSH2 0x320 PUSH2 0x740 CALLDATASIZE PUSH1 0x4 PUSH2 0x529E JUMP JUMPDEST PUSH2 0x2946 JUMP JUMPDEST PUSH2 0x30A PUSH2 0x753 CALLDATASIZE PUSH1 0x4 PUSH2 0x53F2 JUMP JUMPDEST PUSH2 0x2951 JUMP JUMPDEST PUSH2 0x373 PUSH2 0x766 CALLDATASIZE PUSH1 0x4 PUSH2 0x52B6 JUMP JUMPDEST PUSH2 0x2970 JUMP JUMPDEST PUSH2 0x30A PUSH2 0x779 CALLDATASIZE PUSH1 0x4 PUSH2 0x529E JUMP JUMPDEST PUSH1 0xA PUSH1 0x20 MSTORE PUSH1 0x0 SWAP1 DUP2 MSTORE PUSH1 0x40 SWAP1 KECCAK256 SLOAD DUP2 JUMP JUMPDEST PUSH2 0x30A PUSH1 0x0 DUP1 MLOAD PUSH1 0x20 PUSH2 0x5BC4 DUP4 CODECOPY DUP2 MLOAD SWAP2 MSTORE DUP2 JUMP JUMPDEST PUSH2 0x2D7 PUSH2 0x7AE CALLDATASIZE PUSH1 0x4 PUSH2 0x4F91 JUMP JUMPDEST PUSH1 0x19 PUSH1 0x20 MSTORE PUSH1 0x0 SWAP1 DUP2 MSTORE PUSH1 0x40 SWAP1 KECCAK256 SLOAD PUSH1 0xFF AND DUP2 JUMP JUMPDEST PUSH2 0x373 PUSH2 0x7D1 CALLDATASIZE PUSH1 0x4 PUSH2 0x51DE JUMP JUMPDEST PUSH2 0x298D JUMP JUMPDEST PUSH2 0x30A PUSH2 0x7E4 CALLDATASIZE PUSH1 0x4 PUSH2 0x52B6 JUMP JUMPDEST PUSH1 0x0 DUP3 DUP2 MSTORE PUSH1 0xB PUSH1 0x20 SWAP1 DUP2 MSTORE PUSH1 0x40 DUP1 DUP4 KECCAK256 PUSH1 0x1 PUSH1 0x1 PUSH1 0xA0 SHL SUB DUP6 AND DUP5 MSTORE PUSH1 0x1 ADD SWAP1 SWAP2 MSTORE SWAP1 KECCAK256 SLOAD SWAP3 SWAP2 POP POP JUMP JUMPDEST PUSH2 0x2D7 PUSH2 0x81E CALLDATASIZE PUSH1 0x4 PUSH2 0x4FC9 JUMP JUMPDEST PUSH2 0x29DA JUMP JUMPDEST PUSH2 0x373 PUSH2 0x831 CALLDATASIZE PUSH1 0x4 PUSH2 0x4F91 JUMP JUMPDEST PUSH2 0x2A08 JUMP JUMPDEST PUSH2 0x30A PUSH2 0x844 CALLDATASIZE PUSH1 0x4 PUSH2 0x50BD JUMP JUMPDEST PUSH2 0x2AA5 JUMP JUMPDEST PUSH1 0x0 PUSH2 0x854 DUP3 PUSH2 0x2B7C JUMP JUMPDEST SWAP3 SWAP2 POP POP JUMP JUMPDEST PUSH1 0x60 PUSH1 0x0 DUP1 SLOAD PUSH2 0x869 SWAP1 PUSH2 0x5A6C JUMP JUMPDEST DUP1 PUSH1 0x1F ADD PUSH1 0x20 DUP1 SWAP2 DIV MUL PUSH1 0x20 ADD PUSH1 0x40 MLOAD SWAP1 DUP2 ADD PUSH1 0x40 MSTORE DUP1 SWAP3 SWAP2 SWAP1 DUP2 DUP2 MSTORE PUSH1 0x20 ADD DUP3 DUP1 SLOAD PUSH2 0x895 SWAP1 PUSH2 0x5A6C JUMP JUMPDEST DUP1 ISZERO PUSH2 0x8E2 JUMPI DUP1 PUSH1 0x1F LT PUSH2 0x8B7 JUMPI PUSH2 0x100 DUP1 DUP4 SLOAD DIV MUL DUP4 MSTORE SWAP2 PUSH1 0x20 ADD SWAP2 PUSH2 0x8E2 JUMP JUMPDEST DUP3 ADD SWAP2 SWAP1 PUSH1 0x0 MSTORE PUSH1 0x20 PUSH1 0x0 KECCAK256 SWAP1 JUMPDEST DUP2 SLOAD DUP2 MSTORE SWAP1 PUSH1 0x1 ADD SWAP1 PUSH1 0x20 ADD DUP1 DUP4 GT PUSH2 0x8C5 JUMPI DUP3 SWAP1 SUB PUSH1 0x1F AND DUP3 ADD SWAP2 JUMPDEST POP POP POP POP POP SWAP1 POP SWAP1 JUMP JUMPDEST PUSH1 0x0 DUP1 JUMPDEST PUSH2 0x8F9 DUP4 PUSH2 0x224D JUMP JUMPDEST DUP2 LT ISZERO PUSH2 0x92B JUMPI PUSH2 0x90D PUSH2 0x70B DUP5 DUP4 PUSH2 0x2951 JUMP JUMPDEST PUSH2 0x917 SWAP1 DUP4 PUSH2 0x58D9 JUMP JUMPDEST SWAP2 POP DUP1 PUSH2 0x923 DUP2 PUSH2 0x5AA1 JUMP JUMPDEST SWAP2 POP POP PUSH2 0x8F0 JUMP JUMPDEST POP SWAP2 SWAP1 POP JUMP JUMPDEST PUSH1 0x0 PUSH2 0x93C DUP3 PUSH2 0x2BA1 JUMP JUMPDEST PUSH2 0x9A2 JUMPI PUSH1 0x40 MLOAD PUSH3 0x461BCD PUSH1 0xE5 SHL DUP2 MSTORE PUSH1 0x20 PUSH1 0x4 DUP3 ADD MSTORE PUSH1 0x2C PUSH1 0x24 DUP3 ADD MSTORE PUSH32 0x4552433732313A20617070726F76656420717565727920666F72206E6F6E6578 PUSH1 0x44 DUP3 ADD MSTORE PUSH12 0x34B9BA32B73A103A37B5B2B7 PUSH1 0xA1 SHL PUSH1 0x64 DUP3 ADD MSTORE PUSH1 0x84 ADD JUMPDEST PUSH1 0x40 MLOAD DUP1 SWAP2 SUB SWAP1 REVERT JUMPDEST POP PUSH1 0x0 SWAP1 DUP2 MSTORE PUSH1 0x4 PUSH1 0x20 MSTORE PUSH1 0x40 SWAP1 KECCAK256 SLOAD PUSH1 0x1 PUSH1 0x1 PUSH1 0xA0 SHL SUB AND SWAP1 JUMP JUMPDEST PUSH1 0x0 PUSH2 0x9C9 DUP3 PUSH2 0x1B6F JUMP JUMPDEST SWAP1 POP DUP1 PUSH1 0x1 PUSH1 0x1 PUSH1 0xA0 SHL SUB AND DUP4 PUSH1 0x1 PUSH1 0x1 PUSH1 0xA0 SHL SUB AND EQ ISZERO PUSH2 0xA37 JUMPI PUSH1 0x40 MLOAD PUSH3 0x461BCD PUSH1 0xE5 SHL DUP2 MSTORE PUSH1 0x20 PUSH1 0x4 DUP3 ADD MSTORE PUSH1 0x21 PUSH1 0x24 DUP3 ADD MSTORE PUSH32 0x4552433732313A20617070726F76616C20746F2063757272656E74206F776E65 PUSH1 0x44 DUP3 ADD MSTORE PUSH1 0x39 PUSH1 0xF9 SHL PUSH1 0x64 DUP3 ADD MSTORE PUSH1 0x84 ADD PUSH2 0x999 JUMP JUMPDEST CALLER PUSH1 0x1 PUSH1 0x1 PUSH1 0xA0 SHL SUB DUP3 AND EQ DUP1 PUSH2 0xA53 JUMPI POP PUSH2 0xA53 DUP2 CALLER PUSH2 0x29DA JUMP JUMPDEST PUSH2 0xAC0 JUMPI PUSH1 0x40 MLOAD PUSH3 0x461BCD PUSH1 0xE5 SHL DUP2 MSTORE PUSH1 0x20 PUSH1 0x4 DUP3 ADD MSTORE PUSH1 0x38 PUSH1 0x24 DUP3 ADD MSTORE PUSH32 0x4552433732313A20617070726F76652063616C6C6572206973206E6F74206F77 PUSH1 0x44 DUP3 ADD MSTORE PUSH24 0x1B995C881B9BDC88185C1C1C9BDD995908199BDC88185B1B PUSH1 0x42 SHL PUSH1 0x64 DUP3 ADD MSTORE PUSH1 0x84 ADD PUSH2 0x999 JUMP JUMPDEST PUSH2 0xACA DUP4 DUP4 PUSH2 0x2BBE JUMP JUMPDEST POP POP POP JUMP JUMPDEST PUSH1 0x0 PUSH1 0x2 PUSH1 0x7 SLOAD EQ ISZERO PUSH2 0xB24 JUMPI PUSH1 0x40 MLOAD PUSH3 0x461BCD PUSH1 0xE5 SHL DUP2 MSTORE PUSH1 0x20 PUSH1 0x4 DUP3 ADD MSTORE PUSH1 0x1F PUSH1 0x24 DUP3 ADD MSTORE PUSH32 0x5265656E7472616E637947756172643A207265656E7472616E742063616C6C00 PUSH1 0x44 DUP3 ADD MSTORE PUSH1 0x64 ADD PUSH2 0x999 JUMP JUMPDEST PUSH1 0x2 PUSH1 0x7 SSTORE PUSH1 0x16 SLOAD PUSH1 0x40 DUP1 MLOAD PUSH4 0xA834069B PUSH1 0xE0 SHL DUP2 MSTORE SWAP1 MLOAD TIMESTAMP SWAP3 PUSH1 0x1 PUSH1 0x1 PUSH1 0xA0 SHL SUB AND SWAP2 PUSH4 0xA834069B SWAP2 PUSH1 0x4 DUP1 DUP4 ADD SWAP3 PUSH1 0x20 SWAP3 SWAP2 SWAP1 DUP3 SWAP1 SUB ADD DUP2 DUP7 DUP1 EXTCODESIZE ISZERO DUP1 ISZERO PUSH2 0xB6D JUMPI PUSH1 0x0 DUP1 REVERT JUMPDEST POP GAS STATICCALL ISZERO DUP1 ISZERO PUSH2 0xB81 JUMPI RETURNDATASIZE PUSH1 0x0 DUP1 RETURNDATACOPY RETURNDATASIZE PUSH1 0x0 REVERT JUMPDEST POP POP POP POP PUSH1 0x40 MLOAD RETURNDATASIZE PUSH1 0x1F NOT PUSH1 0x1F DUP3 ADD AND DUP3 ADD DUP1 PUSH1 0x40 MSTORE POP DUP2 ADD SWAP1 PUSH2 0xBA5 SWAP2 SWAP1 PUSH2 0x5312 JUMP JUMPDEST GT PUSH2 0xBC2 JUMPI PUSH1 0x40 MLOAD PUSH3 0x461BCD PUSH1 0xE5 SHL DUP2 MSTORE PUSH1 0x4 ADD PUSH2 0x999 SWAP1 PUSH2 0x57E8 JUMP JUMPDEST PUSH1 0x0 TIMESTAMP PUSH1 0x16 PUSH1 0x0 SWAP1 SLOAD SWAP1 PUSH2 0x100 EXP SWAP1 DIV PUSH1 0x1 PUSH1 0x1 PUSH1 0xA0 SHL SUB AND PUSH1 0x1 PUSH1 0x1 PUSH1 0xA0 SHL SUB AND PUSH4 0xA834069B PUSH1 0x40 MLOAD DUP2 PUSH4 0xFFFFFFFF AND PUSH1 0xE0 SHL DUP2 MSTORE PUSH1 0x4 ADD PUSH1 0x20 PUSH1 0x40 MLOAD DUP1 DUP4 SUB DUP2 DUP7 DUP1 EXTCODESIZE ISZERO DUP1 ISZERO PUSH2 0xC13 JUMPI PUSH1 0x0 DUP1 REVERT JUMPDEST POP GAS STATICCALL ISZERO DUP1 ISZERO PUSH2 0xC27 JUMPI RETURNDATASIZE PUSH1 0x0 DUP1 RETURNDATACOPY RETURNDATASIZE PUSH1 0x0 REVERT JUMPDEST POP POP POP POP PUSH1 0x40 MLOAD RETURNDATASIZE PUSH1 0x1F NOT PUSH1 0x1F DUP3 ADD AND DUP3 ADD DUP1 PUSH1 0x40 MSTORE POP DUP2 ADD SWAP1 PUSH2 0xC4B SWAP2 SWAP1 PUSH2 0x5312 JUMP JUMPDEST PUSH2 0xC55 SWAP2 SWAP1 PUSH2 0x5A12 JUMP JUMPDEST SWAP1 POP PUSH1 0x0 PUSH1 0x12 PUSH1 0x0 SWAP1 SLOAD SWAP1 PUSH2 0x100 EXP SWAP1 DIV PUSH1 0x1 PUSH1 0x1 PUSH1 0xA0 SHL SUB AND PUSH1 0x1 PUSH1 0x1 PUSH1 0xA0 SHL SUB AND PUSH4 0x1ACF5582 PUSH1 0x40 MLOAD DUP2 PUSH4 0xFFFFFFFF AND PUSH1 0xE0 SHL DUP2 MSTORE PUSH1 0x4 ADD PUSH1 0x20 PUSH1 0x40 MLOAD DUP1 DUP4 SUB DUP2 DUP7 DUP1 EXTCODESIZE ISZERO DUP1 ISZERO PUSH2 0xCA7 JUMPI PUSH1 0x0 DUP1 REVERT JUMPDEST POP GAS STATICCALL ISZERO DUP1 ISZERO PUSH2 0xCBB JUMPI RETURNDATASIZE PUSH1 0x0 DUP1 RETURNDATACOPY RETURNDATASIZE PUSH1 0x0 REVERT JUMPDEST POP POP POP POP PUSH1 0x40 MLOAD RETURNDATASIZE PUSH1 0x1F NOT PUSH1 0x1F DUP3 ADD AND DUP3 ADD DUP1 PUSH1 0x40 MSTORE POP DUP2 ADD SWAP1 PUSH2 0xCDF SWAP2 SWAP1 PUSH2 0x5312 JUMP JUMPDEST SWAP1 POP PUSH2 0xA8C0 DUP3 LT ISZERO PUSH2 0xD03 JUMPI PUSH1 0x40 MLOAD PUSH3 0x461BCD PUSH1 0xE5 SHL DUP2 MSTORE PUSH1 0x4 ADD PUSH2 0x999 SWAP1 PUSH2 0x57E8 JUMP JUMPDEST PUSH1 0x0 DUP1 PUSH1 0x0 PUSH2 0xDA5 DUP6 DUP12 PUSH1 0x17 PUSH1 0x0 SWAP1 SLOAD SWAP1 PUSH2 0x100 EXP SWAP1 DIV PUSH1 0x1 PUSH1 0x1 PUSH1 0xA0 SHL SUB AND PUSH1 0x1 PUSH1 0x1 PUSH1 0xA0 SHL SUB AND PUSH4 0x5EE97101 PUSH1 0x40 MLOAD DUP2 PUSH4 0xFFFFFFFF AND PUSH1 0xE0 SHL DUP2 MSTORE PUSH1 0x4 ADD PUSH1 0x20 PUSH1 0x40 MLOAD DUP1 DUP4 SUB DUP2 DUP7 DUP1 EXTCODESIZE ISZERO DUP1 ISZERO PUSH2 0xD5B JUMPI PUSH1 0x0 DUP1 REVERT JUMPDEST POP GAS STATICCALL ISZERO DUP1 ISZERO PUSH2 0xD6F JUMPI RETURNDATASIZE PUSH1 0x0 DUP1 RETURNDATACOPY RETURNDATASIZE PUSH1 0x0 REVERT JUMPDEST POP POP POP POP PUSH1 0x40 MLOAD RETURNDATASIZE PUSH1 0x1F NOT PUSH1 0x1F DUP3 ADD AND DUP3 ADD DUP1 PUSH1 0x40 MSTORE POP DUP2 ADD SWAP1 PUSH2 0xD93 SWAP2 SWAP1 PUSH2 0x5312 JUMP JUMPDEST PUSH1 0x12 SLOAD PUSH1 0x1 PUSH1 0xA0 SHL SWAP1 DIV PUSH1 0xFF AND PUSH2 0x2803 JUMP JUMPDEST SWAP2 SWAP5 POP SWAP3 POP SWAP1 POP PUSH1 0x5 PUSH2 0xDB8 DUP7 DUP13 PUSH2 0x59F3 JUMP JUMPDEST PUSH2 0xDC2 SWAP2 SWAP1 PUSH2 0x59F3 JUMP JUMPDEST PUSH2 0xDD0 DUP5 PUSH4 0x1E13380 PUSH2 0x59F3 JUMP JUMPDEST PUSH2 0xDDB SWAP1 PUSH1 0x64 PUSH2 0x59F3 JUMP JUMPDEST GT PUSH2 0xE0D JUMPI PUSH1 0x40 MLOAD PUSH3 0x461BCD PUSH1 0xE5 SHL DUP2 MSTORE PUSH1 0x20 PUSH1 0x4 DUP3 ADD MSTORE PUSH1 0x2 PUSH1 0x24 DUP3 ADD MSTORE PUSH2 0x2799 PUSH1 0xF1 SHL PUSH1 0x44 DUP3 ADD MSTORE PUSH1 0x64 ADD PUSH2 0x999 JUMP JUMPDEST PUSH1 0x1 DUP8 PUSH1 0x1 DUP2 GT ISZERO PUSH2 0xE2F JUMPI PUSH4 0x4E487B71 PUSH1 0xE0 SHL PUSH1 0x0 MSTORE PUSH1 0x21 PUSH1 0x4 MSTORE PUSH1 0x24 PUSH1 0x0 REVERT JUMPDEST EQ ISZERO PUSH2 0xEFF JUMPI PUSH1 0x40 MLOAD PUSH4 0x23B872DD PUSH1 0xE0 SHL DUP2 MSTORE PUSH1 0x0 SWAP1 PUSH1 0x1 PUSH1 0x1 PUSH1 0xA0 SHL SUB PUSH32 0x0 AND SWAP1 PUSH4 0x23B872DD SWAP1 PUSH2 0xE88 SWAP1 CALLER SWAP1 ADDRESS SWAP1 DUP10 SWAP1 PUSH1 0x4 ADD PUSH2 0x558B JUMP JUMPDEST PUSH1 0x20 PUSH1 0x40 MLOAD DUP1 DUP4 SUB DUP2 PUSH1 0x0 DUP8 DUP1 EXTCODESIZE ISZERO DUP1 ISZERO PUSH2 0xEA2 JUMPI PUSH1 0x0 DUP1 REVERT JUMPDEST POP GAS CALL ISZERO DUP1 ISZERO PUSH2 0xEB6 JUMPI RETURNDATASIZE PUSH1 0x0 DUP1 RETURNDATACOPY RETURNDATASIZE PUSH1 0x0 REVERT JUMPDEST POP POP POP POP PUSH1 0x40 MLOAD RETURNDATASIZE PUSH1 0x1F NOT PUSH1 0x1F DUP3 ADD AND DUP3 ADD DUP1 PUSH1 0x40 MSTORE POP DUP2 ADD SWAP1 PUSH2 0xEDA SWAP2 SWAP1 PUSH2 0x5282 JUMP JUMPDEST SWAP1 POP DUP1 PUSH2 0xEF9 JUMPI PUSH1 0x40 MLOAD PUSH3 0x461BCD PUSH1 0xE5 SHL DUP2 MSTORE PUSH1 0x4 ADD PUSH2 0x999 SWAP1 PUSH2 0x572A JUMP JUMPDEST POP PUSH2 0x124C JUMP JUMPDEST PUSH1 0x40 MLOAD PUSH4 0x70A08231 PUSH1 0xE0 SHL DUP2 MSTORE DUP4 SWAP1 PUSH1 0x1 PUSH1 0x1 PUSH1 0xA0 SHL SUB PUSH32 0x0 AND SWAP1 PUSH4 0x70A08231 SWAP1 PUSH2 0xF4D SWAP1 ADDRESS SWAP1 PUSH1 0x4 ADD PUSH2 0x5577 JUMP JUMPDEST PUSH1 0x20 PUSH1 0x40 MLOAD DUP1 DUP4 SUB DUP2 DUP7 DUP1 EXTCODESIZE ISZERO DUP1 ISZERO PUSH2 0xF65 JUMPI PUSH1 0x0 DUP1 REVERT JUMPDEST POP GAS STATICCALL ISZERO DUP1 ISZERO PUSH2 0xF79 JUMPI RETURNDATASIZE PUSH1 0x0 DUP1 RETURNDATACOPY RETURNDATASIZE PUSH1 0x0 REVERT JUMPDEST POP POP POP POP PUSH1 0x40 MLOAD RETURNDATASIZE PUSH1 0x1F NOT PUSH1 0x1F DUP3 ADD AND DUP3 ADD DUP1 PUSH1 0x40 MSTORE POP DUP2 ADD SWAP1 PUSH2 0xF9D SWAP2 SWAP1 PUSH2 0x5312 JUMP JUMPDEST LT ISZERO PUSH2 0xFD1 JUMPI PUSH1 0x40 MLOAD PUSH3 0x461BCD PUSH1 0xE5 SHL DUP2 MSTORE PUSH1 0x20 PUSH1 0x4 DUP3 ADD MSTORE PUSH1 0x3 PUSH1 0x24 DUP3 ADD MSTORE PUSH3 0x4F3135 PUSH1 0xE8 SHL PUSH1 0x44 DUP3 ADD MSTORE PUSH1 0x64 ADD PUSH2 0x999 JUMP JUMPDEST PUSH1 0x10 SLOAD PUSH1 0x16 SLOAD PUSH1 0x40 DUP1 MLOAD PUSH4 0x2911D739 PUSH1 0xE2 SHL DUP2 MSTORE SWAP1 MLOAD PUSH1 0x0 SWAP4 PUSH1 0x1 PUSH1 0x1 PUSH1 0xA0 SHL SUB SWAP1 DUP2 AND SWAP4 PUSH4 0x23B872DD SWAP4 CALLER SWAP4 SWAP2 SWAP1 SWAP3 AND SWAP2 PUSH4 0xA4475CE4 SWAP2 PUSH1 0x4 DUP1 DUP4 ADD SWAP3 PUSH1 0x20 SWAP3 SWAP2 SWAP1 DUP3 SWAP1 SUB ADD DUP2 DUP7 DUP1 EXTCODESIZE ISZERO DUP1 ISZERO PUSH2 0x1028 JUMPI PUSH1 0x0 DUP1 REVERT JUMPDEST POP GAS STATICCALL ISZERO DUP1 ISZERO PUSH2 0x103C JUMPI RETURNDATASIZE PUSH1 0x0 DUP1 RETURNDATACOPY RETURNDATASIZE PUSH1 0x0 REVERT JUMPDEST POP POP POP POP PUSH1 0x40 MLOAD RETURNDATASIZE PUSH1 0x1F NOT PUSH1 0x1F DUP3 ADD AND DUP3 ADD DUP1 PUSH1 0x40 MSTORE POP DUP2 ADD SWAP1 PUSH2 0x1060 SWAP2 SWAP1 PUSH2 0x4FAD JUMP JUMPDEST PUSH4 0x5F5E100 DUP10 PUSH32 0x0 PUSH1 0x1 PUSH1 0x1 PUSH1 0xA0 SHL SUB AND PUSH4 0x313CE567 PUSH1 0x40 MLOAD DUP2 PUSH4 0xFFFFFFFF AND PUSH1 0xE0 SHL DUP2 MSTORE PUSH1 0x4 ADD PUSH1 0x20 PUSH1 0x40 MLOAD DUP1 DUP4 SUB DUP2 DUP7 DUP1 EXTCODESIZE ISZERO DUP1 ISZERO PUSH2 0x10BF JUMPI PUSH1 0x0 DUP1 REVERT JUMPDEST POP GAS STATICCALL ISZERO DUP1 ISZERO PUSH2 0x10D3 JUMPI RETURNDATASIZE PUSH1 0x0 DUP1 RETURNDATACOPY RETURNDATASIZE PUSH1 0x0 REVERT JUMPDEST POP POP POP POP PUSH1 0x40 MLOAD RETURNDATASIZE PUSH1 0x1F NOT PUSH1 0x1F DUP3 ADD AND DUP3 ADD DUP1 PUSH1 0x40 MSTORE POP DUP2 ADD SWAP1 PUSH2 0x10F7 SWAP2 SWAP1 PUSH2 0x5478 JUMP JUMPDEST PUSH2 0x1102 SWAP1 PUSH1 0xA PUSH2 0x5948 JUMP JUMPDEST PUSH1 0x10 PUSH1 0x0 SWAP1 SLOAD SWAP1 PUSH2 0x100 EXP SWAP1 DIV PUSH1 0x1 PUSH1 0x1 PUSH1 0xA0 SHL SUB AND PUSH1 0x1 PUSH1 0x1 PUSH1 0xA0 SHL SUB AND PUSH4 0x313CE567 PUSH1 0x40 MLOAD DUP2 PUSH4 0xFFFFFFFF AND PUSH1 0xE0 SHL DUP2 MSTORE PUSH1 0x4 ADD PUSH1 0x20 PUSH1 0x40 MLOAD DUP1 DUP4 SUB DUP2 DUP7 DUP1 EXTCODESIZE ISZERO DUP1 ISZERO PUSH2 0x1150 JUMPI PUSH1 0x0 DUP1 REVERT JUMPDEST POP GAS STATICCALL ISZERO DUP1 ISZERO PUSH2 0x1164 JUMPI RETURNDATASIZE PUSH1 0x0 DUP1 RETURNDATACOPY RETURNDATASIZE PUSH1 0x0 REVERT JUMPDEST POP POP POP POP PUSH1 0x40 MLOAD RETURNDATASIZE PUSH1 0x1F NOT PUSH1 0x1F DUP3 ADD AND DUP3 ADD DUP1 PUSH1 0x40 MSTORE POP DUP2 ADD SWAP1 PUSH2 0x1188 SWAP2 SWAP1 PUSH2 0x5478 JUMP JUMPDEST PUSH2 0x1193 SWAP1 PUSH1 0xA PUSH2 0x5948 JUMP JUMPDEST PUSH2 0x119D SWAP1 DUP13 PUSH2 0x59F3 JUMP JUMPDEST PUSH2 0x11A7 SWAP2 SWAP1 PUSH2 0x58F1 JUMP JUMPDEST PUSH2 0x11B1 SWAP2 SWAP1 PUSH2 0x59F3 JUMP JUMPDEST PUSH2 0x11BB SWAP2 SWAP1 PUSH2 0x58F1 JUMP JUMPDEST PUSH1 0x40 MLOAD DUP5 PUSH4 0xFFFFFFFF AND PUSH1 0xE0 SHL DUP2 MSTORE PUSH1 0x4 ADD PUSH2 0x11D9 SWAP4 SWAP3 SWAP2 SWAP1 PUSH2 0x558B JUMP JUMPDEST PUSH1 0x20 PUSH1 0x40 MLOAD DUP1 DUP4 SUB DUP2 PUSH1 0x0 DUP8 DUP1 EXTCODESIZE ISZERO DUP1 ISZERO PUSH2 0x11F3 JUMPI PUSH1 0x0 DUP1 REVERT JUMPDEST POP GAS CALL ISZERO DUP1 ISZERO PUSH2 0x1207 JUMPI RETURNDATASIZE PUSH1 0x0 DUP1 RETURNDATACOPY RETURNDATASIZE PUSH1 0x0 REVERT JUMPDEST POP POP POP POP PUSH1 0x40 MLOAD RETURNDATASIZE PUSH1 0x1F NOT PUSH1 0x1F DUP3 ADD AND DUP3 ADD DUP1 PUSH1 0x40 MSTORE POP DUP2 ADD SWAP1 PUSH2 0x122B SWAP2 SWAP1 PUSH2 0x5282 JUMP JUMPDEST SWAP1 POP DUP1 PUSH2 0x124A JUMPI PUSH1 0x40 MLOAD PUSH3 0x461BCD PUSH1 0xE5 SHL DUP2 MSTORE PUSH1 0x4 ADD PUSH2 0x999 SWAP1 PUSH2 0x572A JUMP JUMPDEST POP JUMPDEST PUSH1 0x40 DUP1 MLOAD PUSH1 0xE0 DUP2 ADD DUP3 MSTORE PUSH1 0x1 DUP2 MSTORE PUSH1 0x17 SLOAD DUP3 MLOAD PUSH4 0x5EE97101 PUSH1 0xE0 SHL DUP2 MSTORE SWAP3 MLOAD PUSH1 0x0 SWAP4 PUSH1 0x20 DUP1 DUP6 ADD SWAP4 PUSH1 0x1 PUSH1 0x1 PUSH1 0xA0 SHL SUB AND SWAP3 PUSH4 0x5EE97101 SWAP3 PUSH1 0x4 DUP1 DUP3 ADD SWAP4 SWAP3 SWAP2 DUP3 SWAP1 SUB ADD DUP2 DUP7 DUP1 EXTCODESIZE ISZERO DUP1 ISZERO PUSH2 0x12A0 JUMPI PUSH1 0x0 DUP1 REVERT JUMPDEST POP GAS STATICCALL ISZERO DUP1 ISZERO PUSH2 0x12B4 JUMPI RETURNDATASIZE PUSH1 0x0 DUP1 RETURNDATACOPY RETURNDATASIZE PUSH1 0x0 REVERT JUMPDEST POP POP POP POP PUSH1 0x40 MLOAD RETURNDATASIZE PUSH1 0x1F NOT PUSH1 0x1F DUP3 ADD AND DUP3 ADD DUP1 PUSH1 0x40 MSTORE POP DUP2 ADD SWAP1 PUSH2 0x12D8 SWAP2 SWAP1 PUSH2 0x5312 JUMP JUMPDEST DUP2 MSTORE PUSH1 0x20 ADD DUP13 DUP2 MSTORE PUSH1 0x20 ADD PUSH1 0x64 PUSH1 0x17 PUSH1 0x0 SWAP1 SLOAD SWAP1 PUSH2 0x100 EXP SWAP1 DIV PUSH1 0x1 PUSH1 0x1 PUSH1 0xA0 SHL SUB AND PUSH1 0x1 PUSH1 0x1 PUSH1 0xA0 SHL SUB AND PUSH4 0x302CE651 PUSH1 0x40 MLOAD DUP2 PUSH4 0xFFFFFFFF AND PUSH1 0xE0 SHL DUP2 MSTORE PUSH1 0x4 ADD PUSH1 0x20 PUSH1 0x40 MLOAD DUP1 DUP4 SUB DUP2 DUP7 DUP1 EXTCODESIZE ISZERO DUP1 ISZERO PUSH2 0x1333 JUMPI PUSH1 0x0 DUP1 REVERT JUMPDEST POP GAS STATICCALL ISZERO DUP1 ISZERO PUSH2 0x1347 JUMPI RETURNDATASIZE PUSH1 0x0 DUP1 RETURNDATACOPY RETURNDATASIZE PUSH1 0x0 REVERT JUMPDEST POP POP POP POP PUSH1 0x40 MLOAD RETURNDATASIZE PUSH1 0x1F NOT PUSH1 0x1F DUP3 ADD AND DUP3 ADD DUP1 PUSH1 0x40 MSTORE POP DUP2 ADD SWAP1 PUSH2 0x136B SWAP2 SWAP1 PUSH2 0x5312 JUMP JUMPDEST PUSH2 0x1375 SWAP1 DUP16 PUSH2 0x59F3 JUMP JUMPDEST PUSH2 0x137F SWAP2 SWAP1 PUSH2 0x58F1 JUMP JUMPDEST DUP2 MSTORE PUSH1 0x20 DUP2 ADD DUP5 SWAP1 MSTORE PUSH1 0x40 ADD PUSH2 0x1395 DUP9 TIMESTAMP PUSH2 0x58D9 JUMP JUMPDEST DUP2 MSTORE PUSH1 0x20 ADD PUSH1 0x12 PUSH1 0x14 SWAP1 SLOAD SWAP1 PUSH2 0x100 EXP SWAP1 DIV PUSH1 0xFF AND PUSH1 0x2 DUP2 GT ISZERO PUSH2 0x13C9 JUMPI PUSH4 0x4E487B71 PUSH1 0xE0 SHL PUSH1 0x0 MSTORE PUSH1 0x21 PUSH1 0x4 MSTORE PUSH1 0x24 PUSH1 0x0 REVERT JUMPDEST SWAP1 MSTORE SWAP1 POP PUSH2 0x13D5 PUSH2 0x2C2C JUMP JUMPDEST SWAP7 POP PUSH2 0x13E1 DUP8 DUP3 PUSH2 0x2C46 JUMP JUMPDEST PUSH2 0x140E DUP8 CALLER PUSH2 0x1409 DUP11 DUP6 PUSH1 0x20 ADD MLOAD DUP7 PUSH1 0xA0 ADD MLOAD PUSH1 0x12 PUSH1 0x14 SWAP1 SLOAD SWAP1 PUSH2 0x100 EXP SWAP1 DIV PUSH1 0xFF AND PUSH2 0x2CFE JUMP JUMPDEST PUSH2 0x2E4D JUMP JUMPDEST PUSH2 0x1418 DUP8 DUP11 PUSH2 0x2E70 JUMP JUMPDEST PUSH1 0x0 PUSH2 0x1424 DUP5 DUP13 PUSH2 0x2E7A JUMP JUMPDEST SWAP1 POP PUSH2 0x1439 DUP9 DUP4 PUSH1 0x60 ADD MLOAD DUP5 PUSH1 0x80 ADD MLOAD PUSH2 0x33A5 JUMP JUMPDEST CALLER PUSH1 0x0 SWAP1 DUP2 MSTORE PUSH1 0x1A PUSH1 0x20 MSTORE PUSH1 0x40 SWAP1 KECCAK256 SLOAD PUSH1 0xFF AND PUSH2 0x14C2 JUMPI CALLER PUSH1 0x0 SWAP1 DUP2 MSTORE PUSH1 0x19 PUSH1 0x20 MSTORE PUSH1 0x40 SWAP1 KECCAK256 SLOAD PUSH1 0xFF AND PUSH2 0x14A7 JUMPI CALLER PUSH1 0x0 DUP2 DUP2 MSTORE PUSH1 0x19 PUSH1 0x20 SWAP1 DUP2 MSTORE PUSH1 0x40 SWAP2 DUP3 SWAP1 KECCAK256 DUP1 SLOAD PUSH1 0xFF NOT AND PUSH1 0x1 SWAP1 DUP2 OR SWAP1 SWAP2 SSTORE SWAP2 MLOAD SWAP2 DUP3 MSTORE PUSH1 0x0 DUP1 MLOAD PUSH1 0x20 PUSH2 0x5B84 DUP4 CODECOPY DUP2 MLOAD SWAP2 MSTORE SWAP2 ADD PUSH1 0x40 MLOAD DUP1 SWAP2 SUB SWAP1 LOG2 JUMPDEST CALLER PUSH1 0x0 SWAP1 DUP2 MSTORE PUSH1 0x1A PUSH1 0x20 MSTORE PUSH1 0x40 SWAP1 KECCAK256 DUP1 SLOAD PUSH1 0xFF NOT AND PUSH1 0x1 OR SWAP1 SSTORE JUMPDEST CALLER PUSH1 0x1 PUSH1 0x1 PUSH1 0xA0 SHL SUB AND DUP9 PUSH32 0x89F823A0225C73A75066E963CE2EEA7708B57680EC86102773DBD244F5412892 DUP4 DUP9 DUP15 PUSH1 0x40 MLOAD PUSH2 0x1500 SWAP4 SWAP3 SWAP2 SWAP1 PUSH2 0x585A JUMP JUMPDEST PUSH1 0x40 MLOAD DUP1 SWAP2 SUB SWAP1 LOG3 POP POP PUSH1 0x1 PUSH1 0x7 SSTORE POP SWAP4 SWAP9 SWAP8 POP POP POP POP POP POP POP POP JUMP JUMPDEST PUSH2 0x1527 CALLER DUP3 PUSH2 0x3410 JUMP JUMPDEST PUSH2 0x1543 JUMPI PUSH1 0x40 MLOAD PUSH3 0x461BCD PUSH1 0xE5 SHL DUP2 MSTORE PUSH1 0x4 ADD PUSH2 0x999 SWAP1 PUSH2 0x5797 JUMP JUMPDEST PUSH2 0xACA DUP4 DUP4 DUP4 PUSH2 0x34DA JUMP JUMPDEST CALLER PUSH2 0x1557 PUSH2 0x2143 JUMP JUMPDEST PUSH1 0x1 PUSH1 0x1 PUSH1 0xA0 SHL SUB AND EQ PUSH2 0x157D JUMPI PUSH1 0x40 MLOAD PUSH3 0x461BCD PUSH1 0xE5 SHL DUP2 MSTORE PUSH1 0x4 ADD PUSH2 0x999 SWAP1 PUSH2 0x5762 JUMP JUMPDEST PUSH1 0x40 MLOAD PUSH4 0x70A08231 PUSH1 0xE0 SHL DUP2 MSTORE PUSH1 0x0 SWAP1 PUSH1 0x1 PUSH1 0x1 PUSH1 0xA0 SHL SUB PUSH32 0x0 AND SWAP1 PUSH4 0x70A08231 SWAP1 PUSH2 0x15CC SWAP1 ADDRESS SWAP1 PUSH1 0x4 ADD PUSH2 0x5577 JUMP JUMPDEST PUSH1 0x20 PUSH1 0x40 MLOAD DUP1 DUP4 SUB DUP2 DUP7 DUP1 EXTCODESIZE ISZERO DUP1 ISZERO PUSH2 0x15E4 JUMPI PUSH1 0x0 DUP1 REVERT JUMPDEST POP GAS STATICCALL ISZERO DUP1 ISZERO PUSH2 0x15F8 JUMPI RETURNDATASIZE PUSH1 0x0 DUP1 RETURNDATACOPY RETURNDATASIZE PUSH1 0x0 REVERT JUMPDEST POP POP POP POP PUSH1 0x40 MLOAD RETURNDATASIZE PUSH1 0x1F NOT PUSH1 0x1F DUP3 ADD AND DUP3 ADD DUP1 PUSH1 0x40 MSTORE POP DUP2 ADD SWAP1 PUSH2 0x161C SWAP2 SWAP1 PUSH2 0x5312 JUMP JUMPDEST SWAP1 POP DUP1 ISZERO PUSH2 0x174B JUMPI PUSH32 0x0 PUSH1 0x1 PUSH1 0x1 PUSH1 0xA0 SHL SUB AND PUSH4 0xA9059CBB PUSH1 0x16 PUSH1 0x0 SWAP1 SLOAD SWAP1 PUSH2 0x100 EXP SWAP1 DIV PUSH1 0x1 PUSH1 0x1 PUSH1 0xA0 SHL SUB AND PUSH1 0x1 PUSH1 0x1 PUSH1 0xA0 SHL SUB AND PUSH4 0xA4475CE4 PUSH1 0x40 MLOAD DUP2 PUSH4 0xFFFFFFFF AND PUSH1 0xE0 SHL DUP2 MSTORE PUSH1 0x4 ADD PUSH1 0x20 PUSH1 0x40 MLOAD DUP1 DUP4 SUB DUP2 DUP7 DUP1 EXTCODESIZE ISZERO DUP1 ISZERO PUSH2 0x16A1 JUMPI PUSH1 0x0 DUP1 REVERT JUMPDEST POP GAS STATICCALL ISZERO DUP1 ISZERO PUSH2 0x16B5 JUMPI RETURNDATASIZE PUSH1 0x0 DUP1 RETURNDATACOPY RETURNDATASIZE PUSH1 0x0 REVERT JUMPDEST POP POP POP POP PUSH1 0x40 MLOAD RETURNDATASIZE PUSH1 0x1F NOT PUSH1 0x1F DUP3 ADD AND DUP3 ADD DUP1 PUSH1 0x40 MSTORE POP DUP2 ADD SWAP1 PUSH2 0x16D9 SWAP2 SWAP1 PUSH2 0x4FAD JUMP JUMPDEST DUP4 PUSH1 0x40 MLOAD DUP4 PUSH4 0xFFFFFFFF AND PUSH1 0xE0 SHL DUP2 MSTORE PUSH1 0x4 ADD PUSH2 0x16F7 SWAP3 SWAP2 SWAP1 PUSH2 0x55E2 JUMP JUMPDEST PUSH1 0x20 PUSH1 0x40 MLOAD DUP1 DUP4 SUB DUP2 PUSH1 0x0 DUP8 DUP1 EXTCODESIZE ISZERO DUP1 ISZERO PUSH2 0x1711 JUMPI PUSH1 0x0 DUP1 REVERT JUMPDEST POP GAS CALL ISZERO DUP1 ISZERO PUSH2 0x1725 JUMPI RETURNDATASIZE PUSH1 0x0 DUP1 RETURNDATACOPY RETURNDATASIZE PUSH1 0x0 REVERT JUMPDEST POP POP POP POP PUSH1 0x40 MLOAD RETURNDATASIZE PUSH1 0x1F NOT PUSH1 0x1F DUP3 ADD AND DUP3 ADD DUP1 PUSH1 0x40 MSTORE POP DUP2 ADD SWAP1 PUSH2 0x1749 SWAP2 SWAP1 PUSH2 0x5282 JUMP JUMPDEST POP JUMPDEST POP JUMP JUMPDEST PUSH1 0x0 SWAP1 DUP2 MSTORE PUSH1 0x8 PUSH1 0x20 MSTORE PUSH1 0x40 SWAP1 KECCAK256 PUSH1 0x1 ADD SLOAD SWAP1 JUMP JUMPDEST PUSH1 0x0 SWAP1 DUP2 MSTORE PUSH1 0xA PUSH1 0x20 MSTORE PUSH1 0x40 SWAP1 KECCAK256 SLOAD SWAP1 JUMP JUMPDEST PUSH2 0x177E DUP3 PUSH2 0x174E JUMP JUMPDEST PUSH2 0x1788 DUP2 CALLER PUSH2 0x3673 JUMP JUMPDEST PUSH2 0xACA DUP4 DUP4 PUSH2 0x36D7 JUMP JUMPDEST PUSH1 0x1 PUSH1 0x1 PUSH1 0xA0 SHL SUB DUP2 AND CALLER EQ PUSH2 0x1802 JUMPI PUSH1 0x40 MLOAD PUSH3 0x461BCD PUSH1 0xE5 SHL DUP2 MSTORE PUSH1 0x20 PUSH1 0x4 DUP3 ADD MSTORE PUSH1 0x2F PUSH1 0x24 DUP3 ADD MSTORE PUSH32 0x416363657373436F6E74726F6C3A2063616E206F6E6C792072656E6F756E6365 PUSH1 0x44 DUP3 ADD MSTORE PUSH15 0x103937B632B9903337B91039B2B633 PUSH1 0x89 SHL PUSH1 0x64 DUP3 ADD MSTORE PUSH1 0x84 ADD PUSH2 0x999 JUMP JUMPDEST PUSH2 0x1749 DUP3 DUP3 PUSH2 0x375D JUMP JUMPDEST PUSH2 0x1815 DUP3 PUSH2 0x1B6F JUMP JUMPDEST PUSH1 0x1 PUSH1 0x1 PUSH1 0xA0 SHL SUB AND CALLER PUSH1 0x1 PUSH1 0x1 PUSH1 0xA0 SHL SUB AND EQ PUSH2 0x1845 JUMPI PUSH1 0x40 MLOAD PUSH3 0x461BCD PUSH1 0xE5 SHL DUP2 MSTORE PUSH1 0x4 ADD PUSH2 0x999 SWAP1 PUSH2 0x56BC JUMP JUMPDEST PUSH2 0xACA DUP4 DUP4 DUP4 PUSH2 0x37C4 JUMP JUMPDEST PUSH2 0xACA DUP4 DUP4 DUP4 PUSH1 0x40 MLOAD DUP1 PUSH1 0x20 ADD PUSH1 0x40 MSTORE DUP1 PUSH1 0x0 DUP2 MSTORE POP PUSH2 0x25A9 JUMP JUMPDEST PUSH2 0x1874 DUP2 PUSH2 0x1B6F JUMP JUMPDEST PUSH1 0x1 PUSH1 0x1 PUSH1 0xA0 SHL SUB AND CALLER PUSH1 0x1 PUSH1 0x1 PUSH1 0xA0 SHL SUB AND EQ PUSH2 0x18A4 JUMPI PUSH1 0x40 MLOAD PUSH3 0x461BCD PUSH1 0xE5 SHL DUP2 MSTORE PUSH1 0x4 ADD PUSH2 0x999 SWAP1 PUSH2 0x56BC JUMP JUMPDEST PUSH2 0x174B DUP2 PUSH2 0x3889 JUMP JUMPDEST PUSH2 0x18B6 DUP3 PUSH2 0x19CF JUMP JUMPDEST PUSH2 0x18E8 JUMPI PUSH1 0x40 MLOAD PUSH3 0x461BCD PUSH1 0xE5 SHL DUP2 MSTORE PUSH1 0x20 PUSH1 0x4 DUP3 ADD MSTORE PUSH1 0x3 PUSH1 0x24 DUP3 ADD MSTORE PUSH3 0x271899 PUSH1 0xE9 SHL PUSH1 0x44 DUP3 ADD MSTORE PUSH1 0x64 ADD PUSH2 0x999 JUMP JUMPDEST PUSH1 0x0 DUP1 PUSH1 0x0 PUSH2 0x18F7 DUP7 DUP6 PUSH2 0x38A1 JUMP JUMPDEST POP SWAP3 POP SWAP3 POP SWAP3 POP PUSH1 0x0 PUSH2 0x1909 DUP7 PUSH2 0x39CE JUMP JUMPDEST SWAP1 POP PUSH2 0x1945 DUP7 DUP3 DUP5 DUP5 PUSH1 0x60 ADD MLOAD PUSH2 0x1920 SWAP2 SWAP1 PUSH2 0x58D9 JUMP JUMPDEST DUP8 DUP6 PUSH1 0x40 ADD MLOAD PUSH2 0x1930 SWAP2 SWAP1 PUSH2 0x58D9 JUMP JUMPDEST DUP8 DUP7 PUSH1 0x80 ADD MLOAD PUSH2 0x1940 SWAP2 SWAP1 PUSH2 0x58D9 JUMP JUMPDEST PUSH2 0x3ABD JUMP JUMPDEST PUSH1 0x16 SLOAD PUSH1 0x60 DUP3 ADD MLOAD PUSH1 0x80 DUP4 ADD MLOAD PUSH1 0x40 MLOAD PUSH4 0x57A5C967 PUSH1 0xE0 SHL DUP2 MSTORE SWAP4 SWAP5 POP PUSH1 0x1 PUSH1 0x1 PUSH1 0xA0 SHL SUB SWAP1 SWAP3 AND SWAP3 PUSH4 0x57A5C967 SWAP3 PUSH2 0x1985 SWAP3 DUP12 SWAP3 SWAP1 SWAP2 SWAP1 PUSH1 0x4 ADD PUSH2 0x5879 JUMP JUMPDEST PUSH1 0x0 PUSH1 0x40 MLOAD DUP1 DUP4 SUB DUP2 PUSH1 0x0 DUP8 DUP1 EXTCODESIZE ISZERO DUP1 ISZERO PUSH2 0x199F JUMPI PUSH1 0x0 DUP1 REVERT JUMPDEST POP GAS CALL ISZERO DUP1 ISZERO PUSH2 0x19B3 JUMPI RETURNDATASIZE PUSH1 0x0 DUP1 RETURNDATACOPY RETURNDATASIZE PUSH1 0x0 REVERT JUMPDEST POP POP POP POP PUSH2 0x19C4 DUP10 DUP10 DUP10 DUP10 DUP10 PUSH2 0x3AEF JUMP JUMPDEST POP POP POP POP POP POP POP POP POP JUMP JUMPDEST PUSH1 0x0 PUSH2 0x854 DUP3 PUSH2 0x2BA1 JUMP JUMPDEST CALLER PUSH1 0x0 DUP2 DUP2 MSTORE PUSH1 0x19 PUSH1 0x20 SWAP1 DUP2 MSTORE PUSH1 0x40 SWAP2 DUP3 SWAP1 KECCAK256 DUP1 SLOAD PUSH1 0xFF NOT AND DUP6 ISZERO ISZERO SWAP1 DUP2 OR SWAP1 SWAP2 SSTORE SWAP2 MLOAD SWAP2 DUP3 MSTORE PUSH1 0x0 DUP1 MLOAD PUSH1 0x20 PUSH2 0x5B84 DUP4 CODECOPY DUP2 MLOAD SWAP2 MSTORE SWAP2 ADD PUSH1 0x40 MLOAD DUP1 SWAP2 SUB SWAP1 LOG2 POP JUMP JUMPDEST PUSH1 0x0 DUP2 DUP2 MSTORE PUSH1 0x15 PUSH1 0x20 MSTORE PUSH1 0x40 SWAP1 KECCAK256 PUSH1 0x5 DUP2 ADD SLOAD TIMESTAMP GT PUSH2 0x1A63 JUMPI PUSH1 0x40 MLOAD PUSH3 0x461BCD PUSH1 0xE5 SHL DUP2 MSTORE PUSH1 0x20 PUSH1 0x4 DUP3 ADD MSTORE PUSH1 0x2 PUSH1 0x24 DUP3 ADD MSTORE PUSH2 0x13CD PUSH1 0xF2 SHL PUSH1 0x44 DUP3 ADD MSTORE PUSH1 0x64 ADD PUSH2 0x999 JUMP JUMPDEST PUSH1 0x1 DUP2 SLOAD PUSH1 0xFF AND PUSH1 0x3 DUP2 GT ISZERO PUSH2 0x1A89 JUMPI PUSH4 0x4E487B71 PUSH1 0xE0 SHL PUSH1 0x0 MSTORE PUSH1 0x21 PUSH1 0x4 MSTORE PUSH1 0x24 PUSH1 0x0 REVERT JUMPDEST EQ PUSH2 0x1ABB JUMPI PUSH1 0x40 MLOAD PUSH3 0x461BCD PUSH1 0xE5 SHL DUP2 MSTORE PUSH1 0x20 PUSH1 0x4 DUP3 ADD MSTORE PUSH1 0x2 PUSH1 0x24 DUP3 ADD MSTORE PUSH2 0x4F35 PUSH1 0xF0 SHL PUSH1 0x44 DUP3 ADD MSTORE PUSH1 0x64 ADD PUSH2 0x999 JUMP JUMPDEST DUP1 SLOAD PUSH1 0xFF NOT AND PUSH1 0x3 OR DUP2 SSTORE PUSH1 0x16 SLOAD PUSH1 0x40 MLOAD PUSH4 0x6198E339 PUSH1 0xE0 SHL DUP2 MSTORE PUSH1 0x4 DUP2 ADD DUP5 SWAP1 MSTORE PUSH1 0x1 PUSH1 0x1 PUSH1 0xA0 SHL SUB SWAP1 SWAP2 AND SWAP1 PUSH4 0x6198E339 SWAP1 PUSH1 0x24 ADD PUSH1 0x0 PUSH1 0x40 MLOAD DUP1 DUP4 SUB DUP2 PUSH1 0x0 DUP8 DUP1 EXTCODESIZE ISZERO DUP1 ISZERO PUSH2 0x1B0C JUMPI PUSH1 0x0 DUP1 REVERT JUMPDEST POP GAS CALL ISZERO DUP1 ISZERO PUSH2 0x1B20 JUMPI RETURNDATASIZE PUSH1 0x0 DUP1 RETURNDATACOPY RETURNDATASIZE PUSH1 0x0 REVERT JUMPDEST POP POP POP POP PUSH2 0x1B2D DUP3 PUSH2 0x3889 JUMP JUMPDEST DUP2 PUSH32 0x5F36A4A575E512EB69D6D28C3B0FF98CCA7BA50AD5BF04E14094AD1D425E0D31 DUP3 PUSH1 0x4 ADD SLOAD PUSH1 0x40 MLOAD PUSH2 0x1B63 SWAP2 DUP2 MSTORE PUSH1 0x20 ADD SWAP1 JUMP JUMPDEST PUSH1 0x40 MLOAD DUP1 SWAP2 SUB SWAP1 LOG2 POP POP JUMP JUMPDEST PUSH1 0x0 DUP2 DUP2 MSTORE PUSH1 0x2 PUSH1 0x20 MSTORE PUSH1 0x40 DUP2 KECCAK256 SLOAD PUSH1 0x1 PUSH1 0x1 PUSH1 0xA0 SHL SUB AND DUP1 PUSH2 0x854 JUMPI PUSH1 0x40 MLOAD PUSH3 0x461BCD PUSH1 0xE5 SHL DUP2 MSTORE PUSH1 0x20 PUSH1 0x4 DUP3 ADD MSTORE PUSH1 0x29 PUSH1 0x24 DUP3 ADD MSTORE PUSH32 0x4552433732313A206F776E657220717565727920666F72206E6F6E6578697374 PUSH1 0x44 DUP3 ADD MSTORE PUSH9 0x32B73A103A37B5B2B7 PUSH1 0xB9 SHL PUSH1 0x64 DUP3 ADD MSTORE PUSH1 0x84 ADD PUSH2 0x999 JUMP JUMPDEST PUSH1 0x16 SLOAD PUSH1 0x40 MLOAD PUSH4 0x95EA7B3 PUSH1 0xE0 SHL DUP2 MSTORE PUSH1 0x1 PUSH1 0x1 PUSH1 0xA0 SHL SUB PUSH32 0x0 DUP2 AND SWAP3 PUSH4 0x95EA7B3 SWAP3 PUSH2 0x1C3D SWAP3 SWAP2 SWAP1 SWAP2 AND SWAP1 PUSH1 0x0 NOT SWAP1 PUSH1 0x4 ADD PUSH2 0x55E2 JUMP JUMPDEST PUSH1 0x20 PUSH1 0x40 MLOAD DUP1 DUP4 SUB DUP2 PUSH1 0x0 DUP8 DUP1 EXTCODESIZE ISZERO DUP1 ISZERO PUSH2 0x1C57 JUMPI PUSH1 0x0 DUP1 REVERT JUMPDEST POP GAS CALL ISZERO DUP1 ISZERO PUSH2 0x1C6B JUMPI RETURNDATASIZE PUSH1 0x0 DUP1 RETURNDATACOPY RETURNDATASIZE PUSH1 0x0 REVERT JUMPDEST POP POP POP POP PUSH1 0x40 MLOAD RETURNDATASIZE PUSH1 0x1F NOT PUSH1 0x1F DUP3 ADD AND DUP3 ADD DUP1 PUSH1 0x40 MSTORE POP DUP2 ADD SWAP1 PUSH2 0x174B SWAP2 SWAP1 PUSH2 0x5282 JUMP JUMPDEST PUSH1 0x60 DUP2 PUSH2 0x1CC3 JUMPI PUSH1 0x40 MLOAD PUSH3 0x461BCD PUSH1 0xE5 SHL DUP2 MSTORE PUSH1 0x20 PUSH1 0x4 DUP3 ADD MSTORE PUSH1 0x2 PUSH1 0x24 DUP3 ADD MSTORE PUSH2 0x4E31 PUSH1 0xF0 SHL PUSH1 0x44 DUP3 ADD MSTORE PUSH1 0x64 ADD PUSH2 0x999 JUMP JUMPDEST DUP2 PUSH1 0x1 PUSH1 0x1 PUSH1 0x40 SHL SUB DUP2 GT ISZERO PUSH2 0x1CE9 JUMPI PUSH4 0x4E487B71 PUSH1 0xE0 SHL PUSH1 0x0 MSTORE PUSH1 0x41 PUSH1 0x4 MSTORE PUSH1 0x24 PUSH1 0x0 REVERT JUMPDEST PUSH1 0x40 MLOAD SWAP1 DUP1 DUP3 MSTORE DUP1 PUSH1 0x20 MUL PUSH1 0x20 ADD DUP3 ADD PUSH1 0x40 MSTORE DUP1 ISZERO PUSH2 0x1D12 JUMPI DUP2 PUSH1 0x20 ADD PUSH1 0x20 DUP3 MUL DUP1 CALLDATASIZE DUP4 CALLDATACOPY ADD SWAP1 POP JUMPDEST POP SWAP1 POP PUSH1 0x0 PUSH2 0x1D20 DUP6 PUSH2 0x39CE JUMP JUMPDEST SWAP1 POP PUSH1 0x0 PUSH2 0x1D2D DUP7 PUSH2 0x27F1 JUMP JUMPDEST SWAP1 POP PUSH1 0x0 DUP1 DUP1 DUP1 JUMPDEST DUP8 DUP2 LT ISZERO PUSH2 0x1F40 JUMPI PUSH1 0x0 PUSH2 0x1D47 PUSH2 0x2C2C JUMP JUMPDEST SWAP1 POP DUP1 DUP9 DUP4 DUP2 MLOAD DUP2 LT PUSH2 0x1D6A JUMPI PUSH4 0x4E487B71 PUSH1 0xE0 SHL PUSH1 0x0 MSTORE PUSH1 0x32 PUSH1 0x4 MSTORE PUSH1 0x24 PUSH1 0x0 REVERT JUMPDEST PUSH1 0x20 MUL PUSH1 0x20 ADD ADD DUP2 DUP2 MSTORE POP POP PUSH2 0x1DA7 DUP12 DUP3 DUP13 DUP13 DUP7 DUP2 DUP2 LT PUSH2 0x1D9B JUMPI PUSH4 0x4E487B71 PUSH1 0xE0 SHL PUSH1 0x0 MSTORE PUSH1 0x32 PUSH1 0x4 MSTORE PUSH1 0x24 PUSH1 0x0 REVERT JUMPDEST SWAP1 POP PUSH1 0x20 MUL ADD CALLDATALOAD PUSH2 0x3D35 JUMP JUMPDEST PUSH1 0x0 DUP7 DUP12 DUP12 DUP6 DUP2 DUP2 LT PUSH2 0x1DCA JUMPI PUSH4 0x4E487B71 PUSH1 0xE0 SHL PUSH1 0x0 MSTORE PUSH1 0x32 PUSH1 0x4 MSTORE PUSH1 0x24 PUSH1 0x0 REVERT JUMPDEST SWAP1 POP PUSH1 0x20 MUL ADD CALLDATALOAD DUP10 PUSH1 0x40 ADD MLOAD PUSH2 0x1DE0 SWAP2 SWAP1 PUSH2 0x59F3 JUMP JUMPDEST PUSH2 0x1DEA SWAP2 SWAP1 PUSH2 0x58F1 JUMP JUMPDEST SWAP1 POP PUSH2 0x1DF6 DUP2 DUP8 PUSH2 0x58D9 JUMP JUMPDEST SWAP6 POP PUSH1 0x0 DUP8 DUP13 DUP13 DUP7 DUP2 DUP2 LT PUSH2 0x1E1B JUMPI PUSH4 0x4E487B71 PUSH1 0xE0 SHL PUSH1 0x0 MSTORE PUSH1 0x32 PUSH1 0x4 MSTORE PUSH1 0x24 PUSH1 0x0 REVERT JUMPDEST SWAP1 POP PUSH1 0x20 MUL ADD CALLDATALOAD DUP11 PUSH1 0x60 ADD MLOAD PUSH2 0x1E31 SWAP2 SWAP1 PUSH2 0x59F3 JUMP JUMPDEST PUSH2 0x1E3B SWAP2 SWAP1 PUSH2 0x58F1 JUMP JUMPDEST SWAP1 POP PUSH2 0x1E47 DUP2 DUP8 PUSH2 0x58D9 JUMP JUMPDEST SWAP6 POP PUSH1 0x0 DUP9 DUP14 DUP14 DUP8 DUP2 DUP2 LT PUSH2 0x1E6C JUMPI PUSH4 0x4E487B71 PUSH1 0xE0 SHL PUSH1 0x0 MSTORE PUSH1 0x32 PUSH1 0x4 MSTORE PUSH1 0x24 PUSH1 0x0 REVERT JUMPDEST SWAP1 POP PUSH1 0x20 MUL ADD CALLDATALOAD DUP12 PUSH1 0x80 ADD MLOAD PUSH2 0x1E82 SWAP2 SWAP1 PUSH2 0x59F3 JUMP JUMPDEST PUSH2 0x1E8C SWAP2 SWAP1 PUSH2 0x58F1 JUMP JUMPDEST SWAP1 POP PUSH2 0x1E98 DUP2 DUP8 PUSH2 0x58D9 JUMP JUMPDEST SWAP6 POP PUSH1 0x0 PUSH1 0x40 MLOAD DUP1 PUSH1 0xE0 ADD PUSH1 0x40 MSTORE DUP1 DUP13 PUSH1 0x0 ADD MLOAD PUSH1 0x3 DUP2 GT ISZERO PUSH2 0x1ECB JUMPI PUSH4 0x4E487B71 PUSH1 0xE0 SHL PUSH1 0x0 MSTORE PUSH1 0x21 PUSH1 0x4 MSTORE PUSH1 0x24 PUSH1 0x0 REVERT JUMPDEST DUP2 MSTORE PUSH1 0x20 ADD DUP13 PUSH1 0x20 ADD MLOAD DUP2 MSTORE PUSH1 0x20 ADD DUP6 DUP2 MSTORE PUSH1 0x20 ADD DUP5 DUP2 MSTORE PUSH1 0x20 ADD DUP4 DUP2 MSTORE PUSH1 0x20 ADD DUP13 PUSH1 0xA0 ADD MLOAD DUP2 MSTORE PUSH1 0x20 ADD DUP13 PUSH1 0xC0 ADD MLOAD PUSH1 0x2 DUP2 GT ISZERO PUSH2 0x1F1A JUMPI PUSH4 0x4E487B71 PUSH1 0xE0 SHL PUSH1 0x0 MSTORE PUSH1 0x21 PUSH1 0x4 MSTORE PUSH1 0x24 PUSH1 0x0 REVERT JUMPDEST SWAP1 MSTORE SWAP1 POP PUSH2 0x1F28 DUP6 DUP3 PUSH2 0x2C46 JUMP JUMPDEST POP POP POP POP POP DUP1 DUP1 PUSH2 0x1F38 SWAP1 PUSH2 0x5AA1 JUMP JUMPDEST SWAP2 POP POP PUSH2 0x1D35 JUMP JUMPDEST POP PUSH2 0x1F76 DUP10 DUP7 DUP5 DUP9 PUSH1 0x60 ADD MLOAD PUSH2 0x1F56 SWAP2 SWAP1 PUSH2 0x5A12 JUMP JUMPDEST DUP7 DUP10 PUSH1 0x40 ADD MLOAD PUSH2 0x1F66 SWAP2 SWAP1 PUSH2 0x5A12 JUMP JUMPDEST DUP6 DUP11 PUSH1 0x80 ADD MLOAD PUSH2 0x1940 SWAP2 SWAP1 PUSH2 0x5A12 JUMP JUMPDEST PUSH1 0x16 SLOAD PUSH1 0x60 DUP3 ADD MLOAD PUSH1 0x80 DUP4 ADD MLOAD PUSH1 0x40 MLOAD PUSH4 0x57A5C967 PUSH1 0xE0 SHL DUP2 MSTORE SWAP4 SWAP9 POP PUSH1 0x1 PUSH1 0x1 PUSH1 0xA0 SHL SUB SWAP1 SWAP3 AND SWAP3 PUSH4 0x57A5C967 SWAP3 PUSH2 0x1FB6 SWAP3 DUP15 SWAP3 SWAP1 SWAP2 SWAP1 PUSH1 0x4 ADD PUSH2 0x5879 JUMP JUMPDEST PUSH1 0x0 PUSH1 0x40 MLOAD DUP1 DUP4 SUB DUP2 PUSH1 0x0 DUP8 DUP1 EXTCODESIZE ISZERO DUP1 ISZERO PUSH2 0x1FD0 JUMPI PUSH1 0x0 DUP1 REVERT JUMPDEST POP GAS CALL ISZERO DUP1 ISZERO PUSH2 0x1FE4 JUMPI RETURNDATASIZE PUSH1 0x0 DUP1 RETURNDATACOPY RETURNDATASIZE PUSH1 0x0 REVERT JUMPDEST POP POP POP POP PUSH1 0x0 JUMPDEST DUP8 DUP2 LT ISZERO PUSH2 0x2074 JUMPI PUSH1 0x0 PUSH2 0x2025 DUP9 DUP4 DUP2 MLOAD DUP2 LT PUSH2 0x2018 JUMPI PUSH4 0x4E487B71 PUSH1 0xE0 SHL PUSH1 0x0 MSTORE PUSH1 0x32 PUSH1 0x4 MSTORE PUSH1 0x24 PUSH1 0x0 REVERT JUMPDEST PUSH1 0x20 MUL PUSH1 0x20 ADD ADD MLOAD PUSH2 0x39CE JUMP JUMPDEST SWAP1 POP PUSH2 0x2061 DUP9 DUP4 DUP2 MLOAD DUP2 LT PUSH2 0x204A JUMPI PUSH4 0x4E487B71 PUSH1 0xE0 SHL PUSH1 0x0 MSTORE PUSH1 0x32 PUSH1 0x4 MSTORE PUSH1 0x24 PUSH1 0x0 REVERT JUMPDEST PUSH1 0x20 MUL PUSH1 0x20 ADD ADD MLOAD DUP3 PUSH1 0x60 ADD MLOAD DUP4 PUSH1 0x80 ADD MLOAD PUSH2 0x33A5 JUMP JUMPDEST POP DUP1 PUSH2 0x206C DUP2 PUSH2 0x5AA1 JUMP JUMPDEST SWAP2 POP POP PUSH2 0x1FEB JUMP JUMPDEST POP POP POP POP POP POP SWAP4 SWAP3 POP POP POP JUMP JUMPDEST PUSH1 0x0 PUSH1 0x1 PUSH1 0x1 PUSH1 0xA0 SHL SUB DUP3 AND PUSH2 0x20EC JUMPI PUSH1 0x40 MLOAD PUSH3 0x461BCD PUSH1 0xE5 SHL DUP2 MSTORE PUSH1 0x20 PUSH1 0x4 DUP3 ADD MSTORE PUSH1 0x2A PUSH1 0x24 DUP3 ADD MSTORE PUSH32 0x4552433732313A2062616C616E636520717565727920666F7220746865207A65 PUSH1 0x44 DUP3 ADD MSTORE PUSH10 0x726F2061646472657373 PUSH1 0xB0 SHL PUSH1 0x64 DUP3 ADD MSTORE PUSH1 0x84 ADD PUSH2 0x999 JUMP JUMPDEST POP PUSH1 0x1 PUSH1 0x1 PUSH1 0xA0 SHL SUB AND PUSH1 0x0 SWAP1 DUP2 MSTORE PUSH1 0x3 PUSH1 0x20 MSTORE PUSH1 0x40 SWAP1 KECCAK256 SLOAD SWAP1 JUMP JUMPDEST CALLER PUSH2 0x2111 PUSH2 0x2143 JUMP JUMPDEST PUSH1 0x1 PUSH1 0x1 PUSH1 0xA0 SHL SUB AND EQ PUSH2 0x2137 JUMPI PUSH1 0x40 MLOAD PUSH3 0x461BCD PUSH1 0xE5 SHL DUP2 MSTORE PUSH1 0x4 ADD PUSH2 0x999 SWAP1 PUSH2 0x5762 JUMP JUMPDEST PUSH2 0x2141 PUSH1 0x0 PUSH2 0x3E5F JUMP JUMPDEST JUMP JUMPDEST PUSH1 0x6 SLOAD PUSH1 0x1 PUSH1 0x1 PUSH1 0xA0 SHL SUB AND SWAP1 JUMP JUMPDEST PUSH1 0x0 SWAP2 DUP3 MSTORE PUSH1 0x8 PUSH1 0x20 SWAP1 DUP2 MSTORE PUSH1 0x40 DUP1 DUP5 KECCAK256 PUSH1 0x1 PUSH1 0x1 PUSH1 0xA0 SHL SUB SWAP4 SWAP1 SWAP4 AND DUP5 MSTORE SWAP2 SWAP1 MSTORE SWAP1 KECCAK256 SLOAD PUSH1 0xFF AND SWAP1 JUMP JUMPDEST PUSH1 0x60 PUSH1 0x1 DUP1 SLOAD PUSH2 0x869 SWAP1 PUSH2 0x5A6C JUMP JUMPDEST PUSH1 0x1 PUSH1 0x1 PUSH1 0xA0 SHL SUB DUP3 AND CALLER EQ ISZERO PUSH2 0x21E1 JUMPI PUSH1 0x40 MLOAD PUSH3 0x461BCD PUSH1 0xE5 SHL DUP2 MSTORE PUSH1 0x20 PUSH1 0x4 DUP3 ADD MSTORE PUSH1 0x19 PUSH1 0x24 DUP3 ADD MSTORE PUSH25 0x22A9219B99189D1030B8383937BB32903A379031B0B63632B9 PUSH1 0x39 SHL PUSH1 0x44 DUP3 ADD MSTORE PUSH1 0x64 ADD PUSH2 0x999 JUMP JUMPDEST CALLER PUSH1 0x0 DUP2 DUP2 MSTORE PUSH1 0x5 PUSH1 0x20 SWAP1 DUP2 MSTORE PUSH1 0x40 DUP1 DUP4 KECCAK256 PUSH1 0x1 PUSH1 0x1 PUSH1 0xA0 SHL SUB DUP8 AND DUP1 DUP6 MSTORE SWAP1 DUP4 MSTORE SWAP3 DUP2 SWAP1 KECCAK256 DUP1 SLOAD PUSH1 0xFF NOT AND DUP7 ISZERO ISZERO SWAP1 DUP2 OR SWAP1 SWAP2 SSTORE SWAP1 MLOAD SWAP1 DUP2 MSTORE SWAP2 SWAP3 SWAP2 PUSH32 0x17307EAB39AB6107E8899845AD3D59BD9653F200F220920489CA2B5937696C31 SWAP2 ADD PUSH1 0x40 MLOAD DUP1 SWAP2 SUB SWAP1 LOG3 POP POP JUMP JUMPDEST PUSH1 0x0 DUP2 DUP2 MSTORE PUSH1 0xC PUSH1 0x20 MSTORE PUSH1 0x40 DUP2 KECCAK256 PUSH2 0x854 SWAP1 PUSH2 0x3EB1 JUMP JUMPDEST PUSH1 0x0 PUSH2 0x226F DUP3 PUSH2 0x3EBB JUMP JUMPDEST PUSH2 0x22A1 JUMPI PUSH1 0x40 MLOAD PUSH3 0x461BCD PUSH1 0xE5 SHL DUP2 MSTORE PUSH1 0x20 PUSH1 0x4 DUP3 ADD MSTORE PUSH1 0x3 PUSH1 0x24 DUP3 ADD MSTORE PUSH3 0x279899 PUSH1 0xE9 SHL PUSH1 0x44 DUP3 ADD MSTORE PUSH1 0x64 ADD PUSH2 0x999 JUMP JUMPDEST PUSH1 0x0 DUP3 DUP2 MSTORE PUSH1 0x15 PUSH1 0x20 MSTORE PUSH1 0x40 SWAP1 KECCAK256 PUSH1 0x5 DUP2 ADD SLOAD TIMESTAMP GT ISZERO PUSH2 0x22E9 JUMPI PUSH1 0x40 MLOAD PUSH3 0x461BCD PUSH1 0xE5 SHL DUP2 MSTORE PUSH1 0x20 PUSH1 0x4 DUP3 ADD MSTORE PUSH1 0x3 PUSH1 0x24 DUP3 ADD MSTORE PUSH3 0x4F3133 PUSH1 0xE8 SHL PUSH1 0x44 DUP3 ADD MSTORE PUSH1 0x64 ADD PUSH2 0x999 JUMP JUMPDEST PUSH1 0x1 DUP2 SLOAD PUSH1 0xFF AND PUSH1 0x3 DUP2 GT ISZERO PUSH2 0x230F JUMPI PUSH4 0x4E487B71 PUSH1 0xE0 SHL PUSH1 0x0 MSTORE PUSH1 0x21 PUSH1 0x4 MSTORE PUSH1 0x24 PUSH1 0x0 REVERT JUMPDEST EQ PUSH2 0x2342 JUMPI PUSH1 0x40 MLOAD PUSH3 0x461BCD PUSH1 0xE5 SHL DUP2 MSTORE PUSH1 0x20 PUSH1 0x4 DUP3 ADD MSTORE PUSH1 0x3 PUSH1 0x24 DUP3 ADD MSTORE PUSH3 0x13CC4D PUSH1 0xEA SHL PUSH1 0x44 DUP3 ADD MSTORE PUSH1 0x64 ADD PUSH2 0x999 JUMP JUMPDEST DUP1 SLOAD PUSH1 0xFF NOT AND PUSH1 0x2 OR DUP2 SSTORE PUSH1 0x12 SLOAD PUSH1 0x40 DUP1 MLOAD PUSH4 0xD67AAC1 PUSH1 0xE1 SHL DUP2 MSTORE SWAP1 MLOAD PUSH1 0x0 SWAP3 PUSH1 0x1 PUSH1 0x1 PUSH1 0xA0 SHL SUB AND SWAP2 PUSH4 0x1ACF5582 SWAP2 PUSH1 0x4 DUP1 DUP4 ADD SWAP3 PUSH1 0x20 SWAP3 SWAP2 SWAP1 DUP3 SWAP1 SUB ADD DUP2 DUP7 DUP1 EXTCODESIZE ISZERO DUP1 ISZERO PUSH2 0x2392 JUMPI PUSH1 0x0 DUP1 REVERT JUMPDEST POP GAS STATICCALL ISZERO DUP1 ISZERO PUSH2 0x23A6 JUMPI RETURNDATASIZE PUSH1 0x0 DUP1 RETURNDATACOPY RETURNDATASIZE PUSH1 0x0 REVERT JUMPDEST POP POP POP POP PUSH1 0x40 MLOAD RETURNDATASIZE PUSH1 0x1F NOT PUSH1 0x1F DUP3 ADD AND DUP3 ADD DUP1 PUSH1 0x40 MSTORE POP DUP2 ADD SWAP1 PUSH2 0x23CA SWAP2 SWAP1 PUSH2 0x5312 JUMP JUMPDEST SWAP1 POP PUSH1 0x2 PUSH1 0x6 DUP4 ADD SLOAD PUSH1 0xFF AND PUSH1 0x2 DUP2 GT ISZERO PUSH2 0x23F5 JUMPI PUSH4 0x4E487B71 PUSH1 0xE0 SHL PUSH1 0x0 MSTORE PUSH1 0x21 PUSH1 0x4 MSTORE PUSH1 0x24 PUSH1 0x0 REVERT JUMPDEST EQ ISZERO PUSH2 0x2465 JUMPI DUP1 DUP3 PUSH1 0x1 ADD SLOAD GT ISZERO PUSH2 0x2434 JUMPI PUSH1 0x40 MLOAD PUSH3 0x461BCD PUSH1 0xE5 SHL DUP2 MSTORE PUSH1 0x20 PUSH1 0x4 DUP3 ADD MSTORE PUSH1 0x2 PUSH1 0x24 DUP3 ADD MSTORE PUSH2 0x279B PUSH1 0xF1 SHL PUSH1 0x44 DUP3 ADD MSTORE PUSH1 0x64 ADD PUSH2 0x999 JUMP JUMPDEST DUP1 DUP3 PUSH1 0x2 ADD SLOAD DUP4 PUSH1 0x1 ADD SLOAD DUP4 PUSH2 0x244A SWAP2 SWAP1 PUSH2 0x5A12 JUMP JUMPDEST PUSH2 0x2454 SWAP2 SWAP1 PUSH2 0x59F3 JUMP JUMPDEST PUSH2 0x245E SWAP2 SWAP1 PUSH2 0x58F1 JUMP JUMPDEST SWAP3 POP PUSH2 0x24CB JUMP JUMPDEST DUP1 DUP3 PUSH1 0x1 ADD SLOAD LT ISZERO PUSH2 0x249E JUMPI PUSH1 0x40 MLOAD PUSH3 0x461BCD PUSH1 0xE5 SHL DUP2 MSTORE PUSH1 0x20 PUSH1 0x4 DUP3 ADD MSTORE PUSH1 0x2 PUSH1 0x24 DUP3 ADD MSTORE PUSH2 0x4F37 PUSH1 0xF0 SHL PUSH1 0x44 DUP3 ADD MSTORE PUSH1 0x64 ADD PUSH2 0x999 JUMP JUMPDEST DUP1 DUP3 PUSH1 0x2 ADD SLOAD DUP3 DUP5 PUSH1 0x1 ADD SLOAD PUSH2 0x24B4 SWAP2 SWAP1 PUSH2 0x5A12 JUMP JUMPDEST PUSH2 0x24BE SWAP2 SWAP1 PUSH2 0x59F3 JUMP JUMPDEST PUSH2 0x24C8 SWAP2 SWAP1 PUSH2 0x58F1 JUMP JUMPDEST SWAP3 POP JUMPDEST DUP2 PUSH1 0x3 ADD SLOAD DUP4 GT ISZERO PUSH2 0x24DF JUMPI DUP2 PUSH1 0x3 ADD SLOAD SWAP3 POP JUMPDEST PUSH1 0x16 SLOAD PUSH1 0x1 PUSH1 0x1 PUSH1 0xA0 SHL SUB AND PUSH4 0x81B34F15 DUP6 PUSH2 0x24FA DUP2 PUSH2 0x1B6F JUMP JUMPDEST PUSH1 0x40 MLOAD PUSH1 0x1 PUSH1 0x1 PUSH1 0xE0 SHL SUB NOT PUSH1 0xE0 DUP6 SWAP1 SHL AND DUP2 MSTORE PUSH1 0x4 DUP2 ADD SWAP3 SWAP1 SWAP3 MSTORE PUSH1 0x1 PUSH1 0x1 PUSH1 0xA0 SHL SUB AND PUSH1 0x24 DUP3 ADD MSTORE PUSH1 0x44 DUP2 ADD DUP7 SWAP1 MSTORE PUSH1 0x64 ADD PUSH1 0x0 PUSH1 0x40 MLOAD DUP1 DUP4 SUB DUP2 PUSH1 0x0 DUP8 DUP1 EXTCODESIZE ISZERO DUP1 ISZERO PUSH2 0x2548 JUMPI PUSH1 0x0 DUP1 REVERT JUMPDEST POP GAS CALL ISZERO DUP1 ISZERO PUSH2 0x255C JUMPI RETURNDATASIZE PUSH1 0x0 DUP1 RETURNDATACOPY RETURNDATASIZE PUSH1 0x0 REVERT JUMPDEST POP POP POP POP PUSH2 0x2569 DUP5 PUSH2 0x3889 JUMP JUMPDEST DUP4 PUSH31 0x84FE51C7CB34B132B7B6EB5D5A87A489F8D6D284758D00A0402C1BAD9A0DEF DUP5 PUSH1 0x40 MLOAD PUSH2 0x259A SWAP2 DUP2 MSTORE PUSH1 0x20 ADD SWAP1 JUMP JUMPDEST PUSH1 0x40 MLOAD DUP1 SWAP2 SUB SWAP1 LOG2 POP POP SWAP2 SWAP1 POP JUMP JUMPDEST PUSH2 0x25B4 CALLER JUMPDEST DUP4 PUSH2 0x3410 JUMP JUMPDEST PUSH2 0x25D0 JUMPI PUSH1 0x40 MLOAD PUSH3 0x461BCD PUSH1 0xE5 SHL DUP2 MSTORE PUSH1 0x4 ADD PUSH2 0x999 SWAP1 PUSH2 0x5797 JUMP JUMPDEST PUSH2 0x25DC DUP5 DUP5 DUP5 DUP5 PUSH2 0x3F90 JUMP JUMPDEST POP POP POP POP JUMP JUMPDEST DUP2 PUSH2 0x2614 JUMPI PUSH1 0x40 MLOAD PUSH3 0x461BCD PUSH1 0xE5 SHL DUP2 MSTORE PUSH1 0x20 PUSH1 0x4 DUP3 ADD MSTORE PUSH1 0x2 PUSH1 0x24 DUP3 ADD MSTORE PUSH2 0x138D PUSH1 0xF2 SHL PUSH1 0x44 DUP3 ADD MSTORE PUSH1 0x64 ADD PUSH2 0x999 JUMP JUMPDEST PUSH1 0x0 PUSH2 0x261F DUP3 PUSH2 0x39CE JUMP JUMPDEST PUSH1 0x60 DUP2 ADD MLOAD PUSH1 0x40 DUP3 ADD MLOAD PUSH1 0x80 DUP4 ADD MLOAD SWAP3 SWAP4 POP SWAP1 SWAP2 PUSH1 0x0 JUMPDEST DUP7 DUP2 LT ISZERO PUSH2 0x2773 JUMPI PUSH1 0x0 PUSH2 0x266F DUP10 DUP10 DUP5 DUP2 DUP2 LT PUSH2 0x2663 JUMPI PUSH4 0x4E487B71 PUSH1 0xE0 SHL PUSH1 0x0 MSTORE PUSH1 0x32 PUSH1 0x4 MSTORE PUSH1 0x24 PUSH1 0x0 REVERT JUMPDEST SWAP1 POP PUSH1 0x20 MUL ADD CALLDATALOAD PUSH2 0x39CE JUMP JUMPDEST SWAP1 POP DUP1 PUSH1 0x60 ADD MLOAD DUP6 PUSH2 0x2681 SWAP2 SWAP1 PUSH2 0x58D9 JUMP JUMPDEST SWAP5 POP DUP1 PUSH1 0x40 ADD MLOAD DUP5 PUSH2 0x2693 SWAP2 SWAP1 PUSH2 0x58D9 JUMP JUMPDEST SWAP4 POP DUP1 PUSH1 0x80 ADD MLOAD DUP4 PUSH2 0x26A5 SWAP2 SWAP1 PUSH2 0x58D9 JUMP JUMPDEST PUSH1 0x16 SLOAD SWAP1 SWAP4 POP PUSH1 0x1 PUSH1 0x1 PUSH1 0xA0 SHL SUB AND PUSH4 0xDBF21B0 DUP11 DUP11 DUP6 DUP2 DUP2 LT PUSH2 0x26D9 JUMPI PUSH4 0x4E487B71 PUSH1 0xE0 SHL PUSH1 0x0 MSTORE PUSH1 0x32 PUSH1 0x4 MSTORE PUSH1 0x24 PUSH1 0x0 REVERT JUMPDEST SWAP1 POP PUSH1 0x20 MUL ADD CALLDATALOAD PUSH1 0x40 MLOAD DUP3 PUSH4 0xFFFFFFFF AND PUSH1 0xE0 SHL DUP2 MSTORE PUSH1 0x4 ADD PUSH2 0x26FE SWAP2 DUP2 MSTORE PUSH1 0x20 ADD SWAP1 JUMP JUMPDEST PUSH1 0x0 PUSH1 0x40 MLOAD DUP1 DUP4 SUB DUP2 PUSH1 0x0 DUP8 DUP1 EXTCODESIZE ISZERO DUP1 ISZERO PUSH2 0x2718 JUMPI PUSH1 0x0 DUP1 REVERT JUMPDEST POP GAS CALL ISZERO DUP1 ISZERO PUSH2 0x272C JUMPI RETURNDATASIZE PUSH1 0x0 DUP1 RETURNDATACOPY RETURNDATASIZE PUSH1 0x0 REVERT JUMPDEST POP POP POP POP PUSH2 0x2760 DUP10 DUP10 DUP5 DUP2 DUP2 LT PUSH2 0x2753 JUMPI PUSH4 0x4E487B71 PUSH1 0xE0 SHL PUSH1 0x0 MSTORE PUSH1 0x32 PUSH1 0x4 MSTORE PUSH1 0x24 PUSH1 0x0 REVERT JUMPDEST SWAP1 POP PUSH1 0x20 MUL ADD CALLDATALOAD DUP9 PUSH2 0x3FC3 JUMP JUMPDEST POP DUP1 PUSH2 0x276B DUP2 PUSH2 0x5AA1 JUMP JUMPDEST SWAP2 POP POP PUSH2 0x2636 JUMP JUMPDEST POP PUSH2 0x2781 DUP6 DUP6 DUP6 DUP6 DUP6 PUSH2 0x3ABD JUMP JUMPDEST POP PUSH1 0x16 SLOAD PUSH1 0x40 MLOAD PUSH4 0x57A5C967 PUSH1 0xE0 SHL DUP2 MSTORE PUSH1 0x1 PUSH1 0x1 PUSH1 0xA0 SHL SUB SWAP1 SWAP2 AND SWAP1 PUSH4 0x57A5C967 SWAP1 PUSH2 0x27B6 SWAP1 DUP9 SWAP1 DUP8 SWAP1 DUP7 SWAP1 PUSH1 0x4 ADD PUSH2 0x5879 JUMP JUMPDEST PUSH1 0x0 PUSH1 0x40 MLOAD DUP1 DUP4 SUB DUP2 PUSH1 0x0 DUP8 DUP1 EXTCODESIZE ISZERO DUP1 ISZERO PUSH2 0x27D0 JUMPI PUSH1 0x0 DUP1 REVERT JUMPDEST POP GAS CALL ISZERO DUP1 ISZERO PUSH2 0x27E4 JUMPI RETURNDATASIZE PUSH1 0x0 DUP1 RETURNDATACOPY RETURNDATASIZE PUSH1 0x0 REVERT JUMPDEST POP POP POP POP POP POP POP POP POP POP POP JUMP JUMPDEST PUSH1 0x0 SWAP1 DUP2 MSTORE PUSH1 0xF PUSH1 0x20 MSTORE PUSH1 0x40 SWAP1 KECCAK256 SLOAD SWAP1 JUMP JUMPDEST PUSH1 0x0 DUP1 PUSH1 0x0 DUP1 PUSH1 0x12 PUSH1 0x0 SWAP1 SLOAD SWAP1 PUSH2 0x100 EXP SWAP1 DIV PUSH1 0x1 PUSH1 0x1 PUSH1 0xA0 SHL SUB AND PUSH1 0x1 PUSH1 0x1 PUSH1 0xA0 SHL SUB AND PUSH4 0x1ACF5582 PUSH1 0x40 MLOAD DUP2 PUSH4 0xFFFFFFFF AND PUSH1 0xE0 SHL DUP2 MSTORE PUSH1 0x4 ADD PUSH1 0x20 PUSH1 0x40 MLOAD DUP1 DUP4 SUB DUP2 DUP7 DUP1 EXTCODESIZE ISZERO DUP1 ISZERO PUSH2 0x2857 JUMPI PUSH1 0x0 DUP1 REVERT JUMPDEST POP GAS STATICCALL ISZERO DUP1 ISZERO PUSH2 0x286B JUMPI RETURNDATASIZE PUSH1 0x0 DUP1 RETURNDATACOPY RETURNDATASIZE PUSH1 0x0 REVERT JUMPDEST POP POP POP POP PUSH1 0x40 MLOAD RETURNDATASIZE PUSH1 0x1F NOT PUSH1 0x1F DUP3 ADD AND DUP3 ADD DUP1 PUSH1 0x40 MSTORE POP DUP2 ADD SWAP1 PUSH2 0x288F SWAP2 SWAP1 PUSH2 0x5312 JUMP JUMPDEST PUSH1 0x17 SLOAD PUSH1 0x16 SLOAD PUSH1 0x40 MLOAD PUSH4 0x4E2A029 PUSH1 0xE3 SHL DUP2 MSTORE SWAP3 SWAP4 POP PUSH20 0x0 SWAP3 PUSH4 0x27150148 SWAP3 PUSH2 0x28E5 SWAP3 DUP14 SWAP3 DUP14 SWAP3 DUP14 SWAP3 DUP14 SWAP3 DUP11 SWAP3 PUSH1 0x1 PUSH1 0x1 PUSH1 0xA0 SHL SUB SWAP1 DUP2 AND SWAP3 AND SWAP1 PUSH1 0x4 ADD PUSH2 0x588F JUMP JUMPDEST PUSH1 0x60 PUSH1 0x40 MLOAD DUP1 DUP4 SUB DUP2 DUP7 DUP1 EXTCODESIZE ISZERO DUP1 ISZERO PUSH2 0x28FD JUMPI PUSH1 0x0 DUP1 REVERT JUMPDEST POP GAS DELEGATECALL ISZERO DUP1 ISZERO PUSH2 0x2911 JUMPI RETURNDATASIZE PUSH1 0x0 DUP1 RETURNDATACOPY RETURNDATASIZE PUSH1 0x0 REVERT JUMPDEST POP POP POP POP PUSH1 0x40 MLOAD RETURNDATASIZE PUSH1 0x1F NOT PUSH1 0x1F DUP3 ADD AND DUP3 ADD DUP1 PUSH1 0x40 MSTORE POP DUP2 ADD SWAP1 PUSH2 0x2935 SWAP2 SWAP1 PUSH2 0x5413 JUMP JUMPDEST SWAP2 SWAP11 SWAP1 SWAP10 POP SWAP1 SWAP8 POP SWAP6 POP POP POP POP POP POP JUMP JUMPDEST PUSH1 0x60 PUSH2 0x854 DUP3 PUSH2 0x413F JUMP JUMPDEST PUSH1 0x0 DUP3 DUP2 MSTORE PUSH1 0xC PUSH1 0x20 MSTORE PUSH1 0x40 DUP2 KECCAK256 PUSH2 0x2969 SWAP1 DUP4 PUSH2 0x42A1 JUMP JUMPDEST SWAP4 SWAP3 POP POP POP JUMP JUMPDEST PUSH2 0x2979 DUP3 PUSH2 0x174E JUMP JUMPDEST PUSH2 0x2983 DUP2 CALLER PUSH2 0x3673 JUMP JUMPDEST PUSH2 0xACA DUP4 DUP4 PUSH2 0x375D JUMP JUMPDEST DUP1 PUSH1 0x0 JUMPDEST DUP2 DUP2 LT ISZERO PUSH2 0x25DC JUMPI PUSH2 0x29C8 DUP5 DUP5 DUP4 DUP2 DUP2 LT PUSH2 0x29BC JUMPI PUSH4 0x4E487B71 PUSH1 0xE0 SHL PUSH1 0x0 MSTORE PUSH1 0x32 PUSH1 0x4 MSTORE PUSH1 0x24 PUSH1 0x0 REVERT JUMPDEST SWAP1 POP PUSH1 0x20 MUL ADD CALLDATALOAD PUSH2 0x1A1D JUMP JUMPDEST DUP1 PUSH2 0x29D2 DUP2 PUSH2 0x5AA1 JUMP JUMPDEST SWAP2 POP POP PUSH2 0x2991 JUMP JUMPDEST PUSH1 0x1 PUSH1 0x1 PUSH1 0xA0 SHL SUB SWAP2 DUP3 AND PUSH1 0x0 SWAP1 DUP2 MSTORE PUSH1 0x5 PUSH1 0x20 SWAP1 DUP2 MSTORE PUSH1 0x40 DUP1 DUP4 KECCAK256 SWAP4 SWAP1 SWAP5 AND DUP3 MSTORE SWAP2 SWAP1 SWAP2 MSTORE KECCAK256 SLOAD PUSH1 0xFF AND SWAP1 JUMP JUMPDEST CALLER PUSH2 0x2A11 PUSH2 0x2143 JUMP JUMPDEST PUSH1 0x1 PUSH1 0x1 PUSH1 0xA0 SHL SUB AND EQ PUSH2 0x2A37 JUMPI PUSH1 0x40 MLOAD PUSH3 0x461BCD PUSH1 0xE5 SHL DUP2 MSTORE PUSH1 0x4 ADD PUSH2 0x999 SWAP1 PUSH2 0x5762 JUMP JUMPDEST PUSH1 0x1 PUSH1 0x1 PUSH1 0xA0 SHL SUB DUP2 AND PUSH2 0x2A9C JUMPI PUSH1 0x40 MLOAD PUSH3 0x461BCD PUSH1 0xE5 SHL DUP2 MSTORE PUSH1 0x20 PUSH1 0x4 DUP3 ADD MSTORE PUSH1 0x26 PUSH1 0x24 DUP3 ADD MSTORE PUSH32 0x4F776E61626C653A206E6577206F776E657220697320746865207A65726F2061 PUSH1 0x44 DUP3 ADD MSTORE PUSH6 0x646472657373 PUSH1 0xD0 SHL PUSH1 0x64 DUP3 ADD MSTORE PUSH1 0x84 ADD PUSH2 0x999 JUMP JUMPDEST PUSH2 0x174B DUP2 PUSH2 0x3E5F JUMP JUMPDEST PUSH1 0x0 PUSH2 0x2AAF PUSH2 0x2C2C JUMP JUMPDEST SWAP1 POP PUSH1 0x0 DUP1 PUSH1 0x0 DUP1 PUSH2 0x2AC1 DUP8 DUP8 PUSH2 0x38A1 JUMP JUMPDEST SWAP4 POP SWAP4 POP SWAP4 POP SWAP4 POP PUSH1 0x0 PUSH1 0x40 MLOAD DUP1 PUSH1 0xE0 ADD PUSH1 0x40 MSTORE DUP1 DUP4 PUSH1 0x0 ADD MLOAD PUSH1 0x3 DUP2 GT ISZERO PUSH2 0x2AFA JUMPI PUSH4 0x4E487B71 PUSH1 0xE0 SHL PUSH1 0x0 MSTORE PUSH1 0x21 PUSH1 0x4 MSTORE PUSH1 0x24 PUSH1 0x0 REVERT JUMPDEST DUP2 MSTORE PUSH1 0x20 ADD DUP4 PUSH1 0x20 ADD MLOAD DUP2 MSTORE PUSH1 0x20 ADD DUP7 DUP2 MSTORE PUSH1 0x20 ADD DUP5 DUP2 MSTORE PUSH1 0x20 ADD DUP6 DUP2 MSTORE PUSH1 0x20 ADD DUP4 PUSH1 0xA0 ADD MLOAD DUP2 MSTORE PUSH1 0x20 ADD DUP4 PUSH1 0xC0 ADD MLOAD PUSH1 0x2 DUP2 GT ISZERO PUSH2 0x2B49 JUMPI PUSH4 0x4E487B71 PUSH1 0xE0 SHL PUSH1 0x0 MSTORE PUSH1 0x21 PUSH1 0x4 MSTORE PUSH1 0x24 PUSH1 0x0 REVERT JUMPDEST SWAP1 MSTORE SWAP1 POP PUSH2 0x2B57 DUP7 DUP3 PUSH2 0x2C46 JUMP JUMPDEST PUSH2 0x2B62 DUP7 DUP5 DUP7 PUSH2 0x33A5 JUMP JUMPDEST PUSH2 0x2B6F DUP11 DUP11 DUP11 DUP10 DUP12 PUSH2 0x3AEF JUMP JUMPDEST POP POP POP POP POP SWAP5 SWAP4 POP POP POP POP JUMP JUMPDEST PUSH1 0x0 PUSH1 0x1 PUSH1 0x1 PUSH1 0xE0 SHL SUB NOT DUP3 AND PUSH4 0x7965DB0B PUSH1 0xE0 SHL EQ DUP1 PUSH2 0x854 JUMPI POP PUSH2 0x854 DUP3 PUSH2 0x42AD JUMP JUMPDEST PUSH1 0x0 SWAP1 DUP2 MSTORE PUSH1 0x2 PUSH1 0x20 MSTORE PUSH1 0x40 SWAP1 KECCAK256 SLOAD PUSH1 0x1 PUSH1 0x1 PUSH1 0xA0 SHL SUB AND ISZERO ISZERO SWAP1 JUMP JUMPDEST PUSH1 0x0 DUP2 DUP2 MSTORE PUSH1 0x4 PUSH1 0x20 MSTORE PUSH1 0x40 SWAP1 KECCAK256 DUP1 SLOAD PUSH1 0x1 PUSH1 0x1 PUSH1 0xA0 SHL SUB NOT AND PUSH1 0x1 PUSH1 0x1 PUSH1 0xA0 SHL SUB DUP5 AND SWAP1 DUP2 OR SWAP1 SWAP2 SSTORE DUP2 SWAP1 PUSH2 0x2BF3 DUP3 PUSH2 0x1B6F JUMP JUMPDEST PUSH1 0x1 PUSH1 0x1 PUSH1 0xA0 SHL SUB AND PUSH32 0x8C5BE1E5EBEC7D5BD14F71427D1E84F3DD0314C0F7B2291E5B200AC8C7C3B925 PUSH1 0x40 MLOAD PUSH1 0x40 MLOAD DUP1 SWAP2 SUB SWAP1 LOG4 POP POP JUMP JUMPDEST PUSH1 0x13 DUP1 SLOAD PUSH1 0x0 SWAP2 DUP3 PUSH2 0x2C3D DUP4 PUSH2 0x5AA1 JUMP JUMPDEST SWAP2 SWAP1 POP SSTORE SWAP1 POP SWAP1 JUMP JUMPDEST PUSH1 0x0 DUP3 DUP2 MSTORE PUSH1 0x15 PUSH1 0x20 MSTORE PUSH1 0x40 SWAP1 KECCAK256 DUP2 MLOAD DUP2 SLOAD DUP4 SWAP3 SWAP2 SWAP1 DUP3 SWAP1 PUSH1 0xFF NOT AND PUSH1 0x1 DUP4 PUSH1 0x3 DUP2 GT ISZERO PUSH2 0x2C84 JUMPI PUSH4 0x4E487B71 PUSH1 0xE0 SHL PUSH1 0x0 MSTORE PUSH1 0x21 PUSH1 0x4 MSTORE PUSH1 0x24 PUSH1 0x0 REVERT JUMPDEST MUL OR SWAP1 SSTORE POP PUSH1 0x20 DUP3 ADD MLOAD DUP2 PUSH1 0x1 ADD SSTORE PUSH1 0x40 DUP3 ADD MLOAD DUP2 PUSH1 0x2 ADD SSTORE PUSH1 0x60 DUP3 ADD MLOAD DUP2 PUSH1 0x3 ADD SSTORE PUSH1 0x80 DUP3 ADD MLOAD DUP2 PUSH1 0x4 ADD SSTORE PUSH1 0xA0 DUP3 ADD MLOAD DUP2 PUSH1 0x5 ADD SSTORE PUSH1 0xC0 DUP3 ADD MLOAD DUP2 PUSH1 0x6 ADD PUSH1 0x0 PUSH2 0x100 EXP DUP2 SLOAD DUP2 PUSH1 0xFF MUL NOT AND SWAP1 DUP4 PUSH1 0x2 DUP2 GT ISZERO PUSH2 0x2CF3 JUMPI PUSH4 0x4E487B71 PUSH1 0xE0 SHL PUSH1 0x0 MSTORE PUSH1 0x21 PUSH1 0x4 MSTORE PUSH1 0x24 PUSH1 0x0 REVERT JUMPDEST MUL OR SWAP1 SSTORE POP POP POP POP POP JUMP JUMPDEST PUSH1 0x0 DUP4 DUP4 DUP4 DUP8 PUSH1 0x40 MLOAD PUSH1 0x20 ADD PUSH2 0x2D17 SWAP5 SWAP4 SWAP3 SWAP2 SWAP1 PUSH2 0x5830 JUMP JUMPDEST PUSH1 0x40 DUP1 MLOAD DUP1 DUP4 SUB PUSH1 0x1F NOT ADD DUP2 MSTORE SWAP2 DUP2 MSTORE DUP2 MLOAD PUSH1 0x20 SWAP3 DUP4 ADD KECCAK256 PUSH1 0x0 DUP2 DUP2 MSTORE PUSH1 0x18 SWAP1 SWAP4 MSTORE SWAP2 KECCAK256 PUSH1 0x2 ADD SLOAD SWAP1 SWAP2 POP PUSH2 0x100 SWAP1 DIV PUSH1 0xFF AND ISZERO PUSH2 0x2D8E JUMPI PUSH1 0x40 MLOAD PUSH3 0x461BCD PUSH1 0xE5 SHL DUP2 MSTORE PUSH1 0x20 PUSH1 0x4 DUP3 ADD MSTORE PUSH1 0x14 PUSH1 0x24 DUP3 ADD MSTORE PUSH20 0x1CDB1BDD08185B1C9958591E48195E1A5CDD1959 PUSH1 0x62 SHL PUSH1 0x44 DUP3 ADD MSTORE PUSH1 0x64 ADD PUSH2 0x999 JUMP JUMPDEST PUSH1 0x40 MLOAD DUP1 PUSH1 0x80 ADD PUSH1 0x40 MSTORE DUP1 DUP6 DUP2 MSTORE PUSH1 0x20 ADD DUP5 DUP2 MSTORE PUSH1 0x20 ADD DUP4 PUSH1 0x2 DUP2 GT ISZERO PUSH2 0x2DC5 JUMPI PUSH4 0x4E487B71 PUSH1 0xE0 SHL PUSH1 0x0 MSTORE PUSH1 0x21 PUSH1 0x4 MSTORE PUSH1 0x24 PUSH1 0x0 REVERT JUMPDEST DUP2 MSTORE PUSH1 0x1 PUSH1 0x20 SWAP2 DUP3 ADD DUP2 SWAP1 MSTORE PUSH1 0x0 DUP5 DUP2 MSTORE PUSH1 0x18 DUP4 MSTORE PUSH1 0x40 SWAP1 DUP2 SWAP1 KECCAK256 DUP5 MLOAD DUP2 SSTORE SWAP3 DUP5 ADD MLOAD DUP4 DUP4 ADD SSTORE DUP4 ADD MLOAD PUSH1 0x2 DUP1 DUP5 ADD DUP1 SLOAD SWAP3 SWAP4 SWAP1 SWAP3 PUSH1 0xFF NOT AND SWAP2 DUP5 SWAP1 DUP2 GT ISZERO PUSH2 0x2E1E JUMPI PUSH4 0x4E487B71 PUSH1 0xE0 SHL PUSH1 0x0 MSTORE PUSH1 0x21 PUSH1 0x4 MSTORE PUSH1 0x24 PUSH1 0x0 REVERT JUMPDEST MUL OR SWAP1 SSTORE POP PUSH1 0x60 SWAP2 SWAP1 SWAP2 ADD MLOAD PUSH1 0x2 SWAP1 SWAP2 ADD DUP1 SLOAD SWAP2 ISZERO ISZERO PUSH2 0x100 MUL PUSH2 0xFF00 NOT SWAP1 SWAP3 AND SWAP2 SWAP1 SWAP2 OR SWAP1 SSTORE SWAP5 SWAP4 POP POP POP POP JUMP JUMPDEST PUSH1 0x0 DUP4 DUP2 MSTORE PUSH1 0xA PUSH1 0x20 MSTORE PUSH1 0x40 SWAP1 KECCAK256 DUP2 SWAP1 SSTORE PUSH1 0xD SLOAD PUSH2 0xACA SWAP1 DUP4 SWAP1 DUP6 SWAP1 DUP5 SWAP1 PUSH2 0x42FD JUMP JUMPDEST PUSH2 0x1749 DUP3 DUP3 PUSH2 0x4387 JUMP JUMPDEST PUSH1 0x0 PUSH1 0x64 PUSH1 0x17 PUSH1 0x0 SWAP1 SLOAD SWAP1 PUSH2 0x100 EXP SWAP1 DIV PUSH1 0x1 PUSH1 0x1 PUSH1 0xA0 SHL SUB AND PUSH1 0x1 PUSH1 0x1 PUSH1 0xA0 SHL SUB AND PUSH4 0xCA535C3B PUSH1 0x40 MLOAD DUP2 PUSH4 0xFFFFFFFF AND PUSH1 0xE0 SHL DUP2 MSTORE PUSH1 0x4 ADD PUSH1 0x20 PUSH1 0x40 MLOAD DUP1 DUP4 SUB DUP2 DUP7 DUP1 EXTCODESIZE ISZERO DUP1 ISZERO PUSH2 0x2ECC JUMPI PUSH1 0x0 DUP1 REVERT JUMPDEST POP GAS STATICCALL ISZERO DUP1 ISZERO PUSH2 0x2EE0 JUMPI RETURNDATASIZE PUSH1 0x0 DUP1 RETURNDATACOPY RETURNDATASIZE PUSH1 0x0 REVERT JUMPDEST POP POP POP POP PUSH1 0x40 MLOAD RETURNDATASIZE PUSH1 0x1F NOT PUSH1 0x1F DUP3 ADD AND DUP3 ADD DUP1 PUSH1 0x40 MSTORE POP DUP2 ADD SWAP1 PUSH2 0x2F04 SWAP2 SWAP1 PUSH2 0x5312 JUMP JUMPDEST PUSH2 0x2F0E SWAP1 DUP6 PUSH2 0x59F3 JUMP JUMPDEST PUSH2 0x2F18 SWAP2 SWAP1 PUSH2 0x58F1 JUMP JUMPDEST SWAP1 POP DUP1 ISZERO PUSH2 0x3047 JUMPI PUSH32 0x0 PUSH1 0x1 PUSH1 0x1 PUSH1 0xA0 SHL SUB AND PUSH4 0xA9059CBB PUSH1 0x17 PUSH1 0x0 SWAP1 SLOAD SWAP1 PUSH2 0x100 EXP SWAP1 DIV PUSH1 0x1 PUSH1 0x1 PUSH1 0xA0 SHL SUB AND PUSH1 0x1 PUSH1 0x1 PUSH1 0xA0 SHL SUB AND PUSH4 0x181731DC PUSH1 0x40 MLOAD DUP2 PUSH4 0xFFFFFFFF AND PUSH1 0xE0 SHL DUP2 MSTORE PUSH1 0x4 ADD PUSH1 0x20 PUSH1 0x40 MLOAD DUP1 DUP4 SUB DUP2 DUP7 DUP1 EXTCODESIZE ISZERO DUP1 ISZERO PUSH2 0x2F9D JUMPI PUSH1 0x0 DUP1 REVERT JUMPDEST POP GAS STATICCALL ISZERO DUP1 ISZERO PUSH2 0x2FB1 JUMPI RETURNDATASIZE PUSH1 0x0 DUP1 RETURNDATACOPY RETURNDATASIZE PUSH1 0x0 REVERT JUMPDEST POP POP POP POP PUSH1 0x40 MLOAD RETURNDATASIZE PUSH1 0x1F NOT PUSH1 0x1F DUP3 ADD AND DUP3 ADD DUP1 PUSH1 0x40 MSTORE POP DUP2 ADD SWAP1 PUSH2 0x2FD5 SWAP2 SWAP1 PUSH2 0x4FAD JUMP JUMPDEST DUP4 PUSH1 0x40 MLOAD DUP4 PUSH4 0xFFFFFFFF AND PUSH1 0xE0 SHL DUP2 MSTORE PUSH1 0x4 ADD PUSH2 0x2FF3 SWAP3 SWAP2 SWAP1 PUSH2 0x55E2 JUMP JUMPDEST PUSH1 0x20 PUSH1 0x40 MLOAD DUP1 DUP4 SUB DUP2 PUSH1 0x0 DUP8 DUP1 EXTCODESIZE ISZERO DUP1 ISZERO PUSH2 0x300D JUMPI PUSH1 0x0 DUP1 REVERT JUMPDEST POP GAS CALL ISZERO DUP1 ISZERO PUSH2 0x3021 JUMPI RETURNDATASIZE PUSH1 0x0 DUP1 RETURNDATACOPY RETURNDATASIZE PUSH1 0x0 REVERT JUMPDEST POP POP POP POP PUSH1 0x40 MLOAD RETURNDATASIZE PUSH1 0x1F NOT PUSH1 0x1F DUP3 ADD AND DUP3 ADD DUP1 PUSH1 0x40 MSTORE POP DUP2 ADD SWAP1 PUSH2 0x3045 SWAP2 SWAP1 PUSH2 0x5282 JUMP JUMPDEST POP JUMPDEST PUSH1 0x0 PUSH2 0x3053 DUP3 DUP6 PUSH2 0x5A12 JUMP JUMPDEST SWAP1 POP DUP1 ISZERO PUSH2 0x339E JUMPI PUSH1 0x17 SLOAD PUSH1 0x40 DUP1 MLOAD PUSH4 0x4905129F PUSH1 0xE1 SHL DUP2 MSTORE SWAP1 MLOAD PUSH1 0x0 SWAP3 PUSH1 0x1 PUSH1 0x1 PUSH1 0xA0 SHL SUB AND SWAP2 PUSH4 0x920A253E SWAP2 PUSH1 0x4 DUP1 DUP4 ADD SWAP3 PUSH1 0x20 SWAP3 SWAP2 SWAP1 DUP3 SWAP1 SUB ADD DUP2 DUP7 DUP1 EXTCODESIZE ISZERO DUP1 ISZERO PUSH2 0x30A0 JUMPI PUSH1 0x0 DUP1 REVERT JUMPDEST POP GAS STATICCALL ISZERO DUP1 ISZERO PUSH2 0x30B4 JUMPI RETURNDATASIZE PUSH1 0x0 DUP1 RETURNDATACOPY RETURNDATASIZE PUSH1 0x0 REVERT JUMPDEST POP POP POP POP PUSH1 0x40 MLOAD RETURNDATASIZE PUSH1 0x1F NOT PUSH1 0x1F DUP3 ADD AND DUP3 ADD DUP1 PUSH1 0x40 MSTORE POP DUP2 ADD SWAP1 PUSH2 0x30D8 SWAP2 SWAP1 PUSH2 0x5312 JUMP JUMPDEST GT DUP1 ISZERO PUSH2 0x30FE JUMPI POP PUSH2 0x30E8 PUSH2 0x2143 JUMP JUMPDEST PUSH1 0x1 PUSH1 0x1 PUSH1 0xA0 SHL SUB AND DUP4 PUSH1 0x1 PUSH1 0x1 PUSH1 0xA0 SHL SUB AND EQ ISZERO JUMPDEST DUP1 ISZERO PUSH2 0x3113 JUMPI POP PUSH1 0x1 PUSH1 0x1 PUSH1 0xA0 SHL SUB DUP4 AND CALLER EQ ISZERO JUMPDEST ISZERO PUSH2 0x32AB JUMPI PUSH1 0x0 PUSH1 0x64 PUSH1 0x17 PUSH1 0x0 SWAP1 SLOAD SWAP1 PUSH2 0x100 EXP SWAP1 DIV PUSH1 0x1 PUSH1 0x1 PUSH1 0xA0 SHL SUB AND PUSH1 0x1 PUSH1 0x1 PUSH1 0xA0 SHL SUB AND PUSH4 0x920A253E PUSH1 0x40 MLOAD DUP2 PUSH4 0xFFFFFFFF AND PUSH1 0xE0 SHL DUP2 MSTORE PUSH1 0x4 ADD PUSH1 0x20 PUSH1 0x40 MLOAD DUP1 DUP4 SUB DUP2 DUP7 DUP1 EXTCODESIZE ISZERO DUP1 ISZERO PUSH2 0x316A JUMPI PUSH1 0x0 DUP1 REVERT JUMPDEST POP GAS STATICCALL ISZERO DUP1 ISZERO PUSH2 0x317E JUMPI RETURNDATASIZE PUSH1 0x0 DUP1 RETURNDATACOPY RETURNDATASIZE PUSH1 0x0 REVERT JUMPDEST POP POP POP POP PUSH1 0x40 MLOAD RETURNDATASIZE PUSH1 0x1F NOT PUSH1 0x1F DUP3 ADD AND DUP3 ADD DUP1 PUSH1 0x40 MSTORE POP DUP2 ADD SWAP1 PUSH2 0x31A2 SWAP2 SWAP1 PUSH2 0x5312 JUMP JUMPDEST PUSH2 0x31AC SWAP1 DUP5 PUSH2 0x59F3 JUMP JUMPDEST PUSH2 0x31B6 SWAP2 SWAP1 PUSH2 0x58F1 JUMP JUMPDEST SWAP1 POP PUSH2 0x31C2 DUP2 DUP4 PUSH2 0x5A12 JUMP JUMPDEST PUSH1 0x40 MLOAD PUSH4 0xA9059CBB PUSH1 0xE0 SHL DUP2 MSTORE SWAP1 SWAP3 POP PUSH1 0x1 PUSH1 0x1 PUSH1 0xA0 SHL SUB PUSH32 0x0 AND SWAP1 PUSH4 0xA9059CBB SWAP1 PUSH2 0x3213 SWAP1 DUP8 SWAP1 DUP6 SWAP1 PUSH1 0x4 ADD PUSH2 0x55E2 JUMP JUMPDEST PUSH1 0x20 PUSH1 0x40 MLOAD DUP1 DUP4 SUB DUP2 PUSH1 0x0 DUP8 DUP1 EXTCODESIZE ISZERO DUP1 ISZERO PUSH2 0x322D JUMPI PUSH1 0x0 DUP1 REVERT JUMPDEST POP GAS CALL ISZERO DUP1 ISZERO PUSH2 0x3241 JUMPI RETURNDATASIZE PUSH1 0x0 DUP1 RETURNDATACOPY RETURNDATASIZE PUSH1 0x0 REVERT JUMPDEST POP POP POP POP PUSH1 0x40 MLOAD RETURNDATASIZE PUSH1 0x1F NOT PUSH1 0x1F DUP3 ADD AND DUP3 ADD DUP1 PUSH1 0x40 MSTORE POP DUP2 ADD SWAP1 PUSH2 0x3265 SWAP2 SWAP1 PUSH2 0x5282 JUMP JUMPDEST POP DUP4 PUSH1 0x1 PUSH1 0x1 PUSH1 0xA0 SHL SUB AND PUSH32 0x2FC41B7D7DF3272C17D9B581FCF235307BC027599C6ED68442C4100BD3A84198 DUP3 PUSH1 0x40 MLOAD PUSH2 0x32A1 SWAP2 DUP2 MSTORE PUSH1 0x20 ADD SWAP1 JUMP JUMPDEST PUSH1 0x40 MLOAD DUP1 SWAP2 SUB SWAP1 LOG2 POP JUMPDEST PUSH32 0x0 PUSH1 0x1 PUSH1 0x1 PUSH1 0xA0 SHL SUB AND PUSH4 0xA9059CBB PUSH2 0x32E2 PUSH2 0x2143 JUMP JUMPDEST DUP4 PUSH1 0x40 MLOAD DUP4 PUSH4 0xFFFFFFFF AND PUSH1 0xE0 SHL DUP2 MSTORE PUSH1 0x4 ADD PUSH2 0x3300 SWAP3 SWAP2 SWAP1 PUSH2 0x55E2 JUMP JUMPDEST PUSH1 0x20 PUSH1 0x40 MLOAD DUP1 DUP4 SUB DUP2 PUSH1 0x0 DUP8 DUP1 EXTCODESIZE ISZERO DUP1 ISZERO PUSH2 0x331A JUMPI PUSH1 0x0 DUP1 REVERT JUMPDEST POP GAS CALL ISZERO DUP1 ISZERO PUSH2 0x332E JUMPI RETURNDATASIZE PUSH1 0x0 DUP1 RETURNDATACOPY RETURNDATASIZE PUSH1 0x0 REVERT JUMPDEST POP POP POP POP PUSH1 0x40 MLOAD RETURNDATASIZE PUSH1 0x1F NOT PUSH1 0x1F DUP3 ADD AND DUP3 ADD DUP1 PUSH1 0x40 MSTORE POP DUP2 ADD SWAP1 PUSH2 0x3352 SWAP2 SWAP1 PUSH2 0x5282 JUMP JUMPDEST POP PUSH2 0x335B PUSH2 0x2143 JUMP JUMPDEST PUSH1 0x1 PUSH1 0x1 PUSH1 0xA0 SHL SUB AND PUSH32 0xF0F0487D8990103573E0E5CF4E87E101E2A1BA84C733C556B7A5807E570E5D4C DUP3 PUSH1 0x40 MLOAD PUSH2 0x3395 SWAP2 DUP2 MSTORE PUSH1 0x20 ADD SWAP1 JUMP JUMPDEST PUSH1 0x40 MLOAD DUP1 SWAP2 SUB SWAP1 LOG2 JUMPDEST POP SWAP3 SWAP2 POP POP JUMP JUMPDEST PUSH1 0x16 SLOAD PUSH1 0x40 MLOAD PUSH4 0xEDD0D421 PUSH1 0xE0 SHL DUP2 MSTORE PUSH1 0x1 PUSH1 0x1 PUSH1 0xA0 SHL SUB SWAP1 SWAP2 AND SWAP1 PUSH4 0xEDD0D421 SWAP1 PUSH2 0x33D9 SWAP1 DUP7 SWAP1 DUP7 SWAP1 DUP7 SWAP1 PUSH1 0x4 ADD PUSH2 0x5879 JUMP JUMPDEST PUSH1 0x0 PUSH1 0x40 MLOAD DUP1 DUP4 SUB DUP2 PUSH1 0x0 DUP8 DUP1 EXTCODESIZE ISZERO DUP1 ISZERO PUSH2 0x33F3 JUMPI PUSH1 0x0 DUP1 REVERT JUMPDEST POP GAS CALL ISZERO DUP1 ISZERO PUSH2 0x3407 JUMPI RETURNDATASIZE PUSH1 0x0 DUP1 RETURNDATACOPY RETURNDATASIZE PUSH1 0x0 REVERT JUMPDEST POP POP POP POP POP POP POP JUMP JUMPDEST PUSH1 0x0 PUSH2 0x341B DUP3 PUSH2 0x2BA1 JUMP JUMPDEST PUSH2 0x347C JUMPI PUSH1 0x40 MLOAD PUSH3 0x461BCD PUSH1 0xE5 SHL DUP2 MSTORE PUSH1 0x20 PUSH1 0x4 DUP3 ADD MSTORE PUSH1 0x2C PUSH1 0x24 DUP3 ADD MSTORE PUSH32 0x4552433732313A206F70657261746F7220717565727920666F72206E6F6E6578 PUSH1 0x44 DUP3 ADD MSTORE PUSH12 0x34B9BA32B73A103A37B5B2B7 PUSH1 0xA1 SHL PUSH1 0x64 DUP3 ADD MSTORE PUSH1 0x84 ADD PUSH2 0x999 JUMP JUMPDEST PUSH1 0x0 PUSH2 0x3487 DUP4 PUSH2 0x1B6F JUMP JUMPDEST SWAP1 POP DUP1 PUSH1 0x1 PUSH1 0x1 PUSH1 0xA0 SHL SUB AND DUP5 PUSH1 0x1 PUSH1 0x1 PUSH1 0xA0 SHL SUB AND EQ DUP1 PUSH2 0x34C2 JUMPI POP DUP4 PUSH1 0x1 PUSH1 0x1 PUSH1 0xA0 SHL SUB AND PUSH2 0x34B7 DUP5 PUSH2 0x931 JUMP JUMPDEST PUSH1 0x1 PUSH1 0x1 PUSH1 0xA0 SHL SUB AND EQ JUMPDEST DUP1 PUSH2 0x34D2 JUMPI POP PUSH2 0x34D2 DUP2 DUP6 PUSH2 0x29DA JUMP JUMPDEST SWAP5 SWAP4 POP POP POP POP JUMP JUMPDEST DUP3 PUSH1 0x1 PUSH1 0x1 PUSH1 0xA0 SHL SUB AND PUSH2 0x34ED DUP3 PUSH2 0x1B6F JUMP JUMPDEST PUSH1 0x1 PUSH1 0x1 PUSH1 0xA0 SHL SUB AND EQ PUSH2 0x3555 JUMPI PUSH1 0x40 MLOAD PUSH3 0x461BCD PUSH1 0xE5 SHL DUP2 MSTORE PUSH1 0x20 PUSH1 0x4 DUP3 ADD MSTORE PUSH1 0x29 PUSH1 0x24 DUP3 ADD MSTORE PUSH32 0x4552433732313A207472616E73666572206F6620746F6B656E20746861742069 PUSH1 0x44 DUP3 ADD MSTORE PUSH9 0x39903737BA1037BBB7 PUSH1 0xB9 SHL PUSH1 0x64 DUP3 ADD MSTORE PUSH1 0x84 ADD PUSH2 0x999 JUMP JUMPDEST PUSH1 0x1 PUSH1 0x1 PUSH1 0xA0 SHL SUB DUP3 AND PUSH2 0x35B7 JUMPI PUSH1 0x40 MLOAD PUSH3 0x461BCD PUSH1 0xE5 SHL DUP2 MSTORE PUSH1 0x20 PUSH1 0x4 DUP3 ADD MSTORE PUSH1 0x24 DUP1 DUP3 ADD MSTORE PUSH32 0x4552433732313A207472616E7366657220746F20746865207A65726F20616464 PUSH1 0x44 DUP3 ADD MSTORE PUSH4 0x72657373 PUSH1 0xE0 SHL PUSH1 0x64 DUP3 ADD MSTORE PUSH1 0x84 ADD PUSH2 0x999 JUMP JUMPDEST PUSH2 0x35C2 DUP4 DUP4 DUP4 PUSH2 0x4412 JUMP JUMPDEST PUSH2 0x35CD PUSH1 0x0 DUP3 PUSH2 0x2BBE JUMP JUMPDEST PUSH1 0x1 PUSH1 0x1 PUSH1 0xA0 SHL SUB DUP4 AND PUSH1 0x0 SWAP1 DUP2 MSTORE PUSH1 0x3 PUSH1 0x20 MSTORE PUSH1 0x40 DUP2 KECCAK256 DUP1 SLOAD PUSH1 0x1 SWAP3 SWAP1 PUSH2 0x35F6 SWAP1 DUP5 SWAP1 PUSH2 0x5A12 JUMP JUMPDEST SWAP1 SWAP2 SSTORE POP POP PUSH1 0x1 PUSH1 0x1 PUSH1 0xA0 SHL SUB DUP3 AND PUSH1 0x0 SWAP1 DUP2 MSTORE PUSH1 0x3 PUSH1 0x20 MSTORE PUSH1 0x40 DUP2 KECCAK256 DUP1 SLOAD PUSH1 0x1 SWAP3 SWAP1 PUSH2 0x3624 SWAP1 DUP5 SWAP1 PUSH2 0x58D9 JUMP JUMPDEST SWAP1 SWAP2 SSTORE POP POP PUSH1 0x0 DUP2 DUP2 MSTORE PUSH1 0x2 PUSH1 0x20 MSTORE PUSH1 0x40 DUP1 DUP3 KECCAK256 DUP1 SLOAD PUSH1 0x1 PUSH1 0x1 PUSH1 0xA0 SHL SUB NOT AND PUSH1 0x1 PUSH1 0x1 PUSH1 0xA0 SHL SUB DUP7 DUP2 AND SWAP2 DUP3 OR SWAP1 SWAP3 SSTORE SWAP2 MLOAD DUP5 SWAP4 SWAP2 DUP8 AND SWAP2 PUSH1 0x0 DUP1 MLOAD PUSH1 0x20 PUSH2 0x5BA4 DUP4 CODECOPY DUP2 MLOAD SWAP2 MSTORE SWAP2 LOG4 POP POP POP JUMP JUMPDEST PUSH2 0x367D DUP3 DUP3 PUSH2 0x2152 JUMP JUMPDEST PUSH2 0x1749 JUMPI PUSH2 0x3695 DUP2 PUSH1 0x1 PUSH1 0x1 PUSH1 0xA0 SHL SUB AND PUSH1 0x14 PUSH2 0x442A JUMP JUMPDEST PUSH2 0x36A0 DUP4 PUSH1 0x20 PUSH2 0x442A JUMP JUMPDEST PUSH1 0x40 MLOAD PUSH1 0x20 ADD PUSH2 0x36B1 SWAP3 SWAP2 SWAP1 PUSH2 0x5508 JUMP JUMPDEST PUSH1 0x40 DUP1 MLOAD PUSH1 0x1F NOT DUP2 DUP5 SUB ADD DUP2 MSTORE SWAP1 DUP3 SWAP1 MSTORE PUSH3 0x461BCD PUSH1 0xE5 SHL DUP3 MSTORE PUSH2 0x999 SWAP2 PUSH1 0x4 ADD PUSH2 0x56A9 JUMP JUMPDEST PUSH2 0x36E1 DUP3 DUP3 PUSH2 0x2152 JUMP JUMPDEST PUSH2 0x1749 JUMPI PUSH1 0x0 DUP3 DUP2 MSTORE PUSH1 0x8 PUSH1 0x20 SWAP1 DUP2 MSTORE PUSH1 0x40 DUP1 DUP4 KECCAK256 PUSH1 0x1 PUSH1 0x1 PUSH1 0xA0 SHL SUB DUP6 AND DUP5 MSTORE SWAP1 SWAP2 MSTORE SWAP1 KECCAK256 DUP1 SLOAD PUSH1 0xFF NOT AND PUSH1 0x1 OR SWAP1 SSTORE PUSH2 0x3719 CALLER SWAP1 JUMP JUMPDEST PUSH1 0x1 PUSH1 0x1 PUSH1 0xA0 SHL SUB AND DUP2 PUSH1 0x1 PUSH1 0x1 PUSH1 0xA0 SHL SUB AND DUP4 PUSH32 0x2F8788117E7EFF1D82E926EC794901D17C78024A50270940304540A733656F0D PUSH1 0x40 MLOAD PUSH1 0x40 MLOAD DUP1 SWAP2 SUB SWAP1 LOG4 POP POP JUMP JUMPDEST PUSH2 0x3767 DUP3 DUP3 PUSH2 0x2152 JUMP JUMPDEST ISZERO PUSH2 0x1749 JUMPI PUSH1 0x0 DUP3 DUP2 MSTORE PUSH1 0x8 PUSH1 0x20 SWAP1 DUP2 MSTORE PUSH1 0x40 DUP1 DUP4 KECCAK256 PUSH1 0x1 PUSH1 0x1 PUSH1 0xA0 SHL SUB DUP6 AND DUP1 DUP6 MSTORE SWAP3 MSTORE DUP1 DUP4 KECCAK256 DUP1 SLOAD PUSH1 0xFF NOT AND SWAP1 SSTORE MLOAD CALLER SWAP3 DUP6 SWAP2 PUSH32 0xF6391F5C32D9C69D2A47EA670B442974B53935D1EDC7FD64EB21E047A839171B SWAP2 SWAP1 LOG4 POP POP JUMP JUMPDEST PUSH1 0x0 DUP3 DUP2 MSTORE PUSH1 0xB PUSH1 0x20 SWAP1 DUP2 MSTORE PUSH1 0x40 DUP1 DUP4 KECCAK256 PUSH1 0x1 PUSH1 0x1 PUSH1 0xA0 SHL SUB DUP8 AND DUP5 MSTORE PUSH1 0x1 ADD SWAP1 SWAP2 MSTORE SWAP1 KECCAK256 SLOAD PUSH2 0x3826 JUMPI PUSH1 0x0 DUP3 DUP2 MSTORE PUSH1 0xB PUSH1 0x20 SWAP1 DUP2 MSTORE PUSH1 0x40 DUP3 KECCAK256 DUP1 SLOAD PUSH1 0x1 DUP2 ADD DUP3 SSTORE SWAP1 DUP4 MSTORE SWAP2 KECCAK256 ADD DUP1 SLOAD PUSH1 0x1 PUSH1 0x1 PUSH1 0xA0 SHL SUB NOT AND PUSH1 0x1 PUSH1 0x1 PUSH1 0xA0 SHL SUB DUP6 AND OR SWAP1 SSTORE JUMPDEST PUSH1 0x0 DUP3 DUP2 MSTORE PUSH1 0xB PUSH1 0x20 SWAP1 DUP2 MSTORE PUSH1 0x40 DUP1 DUP4 KECCAK256 PUSH1 0x1 PUSH1 0x1 PUSH1 0xA0 SHL SUB DUP8 AND DUP1 DUP6 MSTORE PUSH1 0x1 SWAP1 SWAP2 ADD DUP4 MSTORE SWAP3 DUP2 SWAP1 KECCAK256 DUP5 SWAP1 SSTORE MLOAD DUP4 DUP2 MSTORE DUP5 SWAP3 SWAP2 PUSH32 0x8A156BD946DC74EC284C5F4B365CE75EF2A5B9D9462B4CDB1D2400CABF136541 SWAP2 ADD PUSH1 0x40 MLOAD DUP1 SWAP2 SUB SWAP1 LOG3 POP POP POP JUMP JUMPDEST PUSH1 0x0 DUP2 DUP2 MSTORE PUSH1 0xA PUSH1 0x20 MSTORE PUSH1 0x40 DUP2 KECCAK256 SSTORE PUSH2 0x174B DUP2 PUSH2 0x460B JUMP JUMPDEST PUSH1 0x0 DUP1 PUSH1 0x0 PUSH2 0x38AE PUSH2 0x4DDE JUMP JUMPDEST PUSH2 0x38B7 DUP7 PUSH2 0x39CE JUMP JUMPDEST SWAP1 POP PUSH1 0x0 PUSH2 0x38C4 DUP8 PUSH2 0x27F1 JUMP JUMPDEST SWAP1 POP DUP1 DUP7 DUP4 PUSH1 0x40 ADD MLOAD PUSH2 0x38D7 SWAP2 SWAP1 PUSH2 0x59F3 JUMP JUMPDEST PUSH2 0x38E1 SWAP2 SWAP1 PUSH2 0x58F1 JUMP JUMPDEST SWAP5 POP DUP1 DUP7 DUP4 PUSH1 0x80 ADD MLOAD PUSH2 0x38F4 SWAP2 SWAP1 PUSH2 0x59F3 JUMP JUMPDEST PUSH2 0x38FE SWAP2 SWAP1 PUSH2 0x58F1 JUMP JUMPDEST SWAP4 POP DUP1 DUP7 DUP4 PUSH1 0x60 ADD MLOAD PUSH2 0x3911 SWAP2 SWAP1 PUSH2 0x59F3 JUMP JUMPDEST PUSH2 0x391B SWAP2 SWAP1 PUSH2 0x58F1 JUMP JUMPDEST SWAP3 POP PUSH2 0x3952 DUP8 DUP4 DUP6 DUP6 PUSH1 0x60 ADD MLOAD PUSH2 0x3932 SWAP2 SWAP1 PUSH2 0x5A12 JUMP JUMPDEST DUP9 DUP7 PUSH1 0x40 ADD MLOAD PUSH2 0x3942 SWAP2 SWAP1 PUSH2 0x5A12 JUMP JUMPDEST DUP9 DUP8 PUSH1 0x80 ADD MLOAD PUSH2 0x1940 SWAP2 SWAP1 PUSH2 0x5A12 JUMP JUMPDEST PUSH1 0x16 SLOAD PUSH1 0x60 DUP3 ADD MLOAD PUSH1 0x80 DUP4 ADD MLOAD PUSH1 0x40 MLOAD PUSH4 0x57A5C967 PUSH1 0xE0 SHL DUP2 MSTORE SWAP4 SWAP6 POP PUSH1 0x1 PUSH1 0x1 PUSH1 0xA0 SHL SUB SWAP1 SWAP3 AND SWAP3 PUSH4 0x57A5C967 SWAP3 PUSH2 0x3992 SWAP3 DUP13 SWAP3 SWAP1 SWAP2 SWAP1 PUSH1 0x4 ADD PUSH2 0x5879 JUMP JUMPDEST PUSH1 0x0 PUSH1 0x40 MLOAD DUP1 DUP4 SUB DUP2 PUSH1 0x0 DUP8 DUP1 EXTCODESIZE ISZERO DUP1 ISZERO PUSH2 0x39AC JUMPI PUSH1 0x0 DUP1 REVERT JUMPDEST POP GAS CALL ISZERO DUP1 ISZERO PUSH2 0x39C0 JUMPI RETURNDATASIZE PUSH1 0x0 DUP1 RETURNDATACOPY RETURNDATASIZE PUSH1 0x0 REVERT JUMPDEST POP POP POP POP POP SWAP3 SWAP6 SWAP2 SWAP5 POP SWAP3 POP JUMP JUMPDEST PUSH2 0x39D6 PUSH2 0x4DDE JUMP JUMPDEST PUSH1 0x0 DUP3 DUP2 MSTORE PUSH1 0x15 PUSH1 0x20 MSTORE PUSH1 0x40 SWAP1 DUP2 SWAP1 KECCAK256 DUP2 MLOAD PUSH1 0xE0 DUP2 ADD SWAP1 SWAP3 MSTORE DUP1 SLOAD DUP3 SWAP1 PUSH1 0xFF AND PUSH1 0x3 DUP2 GT ISZERO PUSH2 0x3A15 JUMPI PUSH4 0x4E487B71 PUSH1 0xE0 SHL PUSH1 0x0 MSTORE PUSH1 0x21 PUSH1 0x4 MSTORE PUSH1 0x24 PUSH1 0x0 REVERT JUMPDEST PUSH1 0x3 DUP2 GT ISZERO PUSH2 0x3A34 JUMPI PUSH4 0x4E487B71 PUSH1 0xE0 SHL PUSH1 0x0 MSTORE PUSH1 0x21 PUSH1 0x4 MSTORE PUSH1 0x24 PUSH1 0x0 REVERT JUMPDEST DUP2 MSTORE PUSH1 0x1 DUP3 ADD SLOAD PUSH1 0x20 DUP3 ADD MSTORE PUSH1 0x2 DUP1 DUP4 ADD SLOAD PUSH1 0x40 DUP4 ADD MSTORE PUSH1 0x3 DUP4 ADD SLOAD PUSH1 0x60 DUP4 ADD MSTORE PUSH1 0x4 DUP4 ADD SLOAD PUSH1 0x80 DUP4 ADD MSTORE PUSH1 0x5 DUP4 ADD SLOAD PUSH1 0xA0 DUP4 ADD MSTORE PUSH1 0x6 DUP4 ADD SLOAD PUSH1 0xC0 SWAP1 SWAP3 ADD SWAP2 PUSH1 0xFF AND SWAP1 DUP2 GT ISZERO PUSH2 0x3A95 JUMPI PUSH4 0x4E487B71 PUSH1 0xE0 SHL PUSH1 0x0 MSTORE PUSH1 0x21 PUSH1 0x4 MSTORE PUSH1 0x24 PUSH1 0x0 REVERT JUMPDEST PUSH1 0x2 DUP2 GT ISZERO PUSH2 0x3AB4 JUMPI PUSH4 0x4E487B71 PUSH1 0xE0 SHL PUSH1 0x0 MSTORE PUSH1 0x21 PUSH1 0x4 MSTORE PUSH1 0x24 PUSH1 0x0 REVERT JUMPDEST SWAP1 MSTORE POP SWAP3 SWAP2 POP POP JUMP JUMPDEST PUSH2 0x3AC5 PUSH2 0x4DDE JUMP JUMPDEST POP PUSH1 0x60 DUP5 ADD DUP4 SWAP1 MSTORE PUSH1 0x40 DUP5 ADD DUP3 SWAP1 MSTORE PUSH1 0x80 DUP5 ADD DUP2 SWAP1 MSTORE DUP4 PUSH2 0x3AE6 DUP7 DUP3 PUSH2 0x2C46 JUMP JUMPDEST SWAP6 SWAP5 POP POP POP POP POP JUMP JUMPDEST PUSH2 0x3AF8 DUP4 PUSH2 0x1B6F JUMP JUMPDEST PUSH1 0x1 PUSH1 0x1 PUSH1 0xA0 SHL SUB AND DUP6 PUSH1 0x1 PUSH1 0x1 PUSH1 0xA0 SHL SUB AND EQ PUSH2 0x3B3D JUMPI PUSH1 0x40 MLOAD PUSH3 0x461BCD PUSH1 0xE5 SHL DUP2 MSTORE PUSH1 0x20 PUSH1 0x4 DUP3 ADD MSTORE PUSH1 0x2 PUSH1 0x24 DUP3 ADD MSTORE PUSH2 0x4E39 PUSH1 0xF0 SHL PUSH1 0x44 DUP3 ADD MSTORE PUSH1 0x64 ADD PUSH2 0x999 JUMP JUMPDEST PUSH1 0x1 PUSH1 0x1 PUSH1 0xA0 SHL SUB DUP5 AND PUSH2 0x3B79 JUMPI PUSH1 0x40 MLOAD PUSH3 0x461BCD PUSH1 0xE5 SHL DUP2 MSTORE PUSH1 0x20 PUSH1 0x4 DUP3 ADD MSTORE PUSH1 0x3 PUSH1 0x24 DUP3 ADD MSTORE PUSH3 0x4E313 PUSH1 0xEC SHL PUSH1 0x44 DUP3 ADD MSTORE PUSH1 0x64 ADD PUSH2 0x999 JUMP JUMPDEST CALLER PUSH1 0x1 PUSH1 0x1 PUSH1 0xA0 SHL SUB DUP7 AND EQ DUP1 ISZERO SWAP1 PUSH2 0x3B99 JUMPI POP PUSH2 0x3B97 DUP6 CALLER PUSH2 0x29DA JUMP JUMPDEST ISZERO JUMPDEST ISZERO PUSH2 0x3BE4 JUMPI PUSH1 0x0 DUP4 DUP2 MSTORE PUSH1 0xB PUSH1 0x20 SWAP1 DUP2 MSTORE PUSH1 0x40 DUP1 DUP4 KECCAK256 CALLER DUP5 MSTORE PUSH1 0x1 ADD SWAP1 SWAP2 MSTORE SWAP1 KECCAK256 SLOAD PUSH2 0x3BC6 SWAP1 DUP3 SWAP1 PUSH2 0x5A12 JUMP JUMPDEST PUSH1 0x0 DUP5 DUP2 MSTORE PUSH1 0xB PUSH1 0x20 SWAP1 DUP2 MSTORE PUSH1 0x40 DUP1 DUP4 KECCAK256 CALLER DUP5 MSTORE PUSH1 0x1 ADD SWAP1 SWAP2 MSTORE SWAP1 KECCAK256 SSTORE JUMPDEST PUSH1 0x0 DUP4 DUP2 MSTORE PUSH1 0xF PUSH1 0x20 MSTORE PUSH1 0x40 SWAP1 KECCAK256 SLOAD PUSH2 0x3BFE SWAP1 DUP3 SWAP1 PUSH2 0x5A12 JUMP JUMPDEST PUSH1 0x0 DUP5 DUP2 MSTORE PUSH1 0xF PUSH1 0x20 MSTORE PUSH1 0x40 SWAP1 KECCAK256 SSTORE PUSH2 0x3C16 DUP3 PUSH2 0x2BA1 JUMP JUMPDEST PUSH2 0x3C33 JUMPI PUSH2 0x3C2E DUP5 DUP4 PUSH2 0x3C28 DUP7 PUSH2 0x1763 JUMP JUMPDEST DUP5 PUSH2 0x42FD JUMP JUMPDEST PUSH2 0x3CDB JUMP JUMPDEST DUP4 PUSH1 0x1 PUSH1 0x1 PUSH1 0xA0 SHL SUB AND PUSH2 0x3C46 DUP4 PUSH2 0x1B6F JUMP JUMPDEST PUSH1 0x1 PUSH1 0x1 PUSH1 0xA0 SHL SUB AND EQ PUSH2 0x3C82 JUMPI PUSH1 0x40 MLOAD PUSH3 0x461BCD PUSH1 0xE5 SHL DUP2 MSTORE PUSH1 0x20 PUSH1 0x4 DUP3 ADD MSTORE PUSH1 0x3 PUSH1 0x24 DUP3 ADD MSTORE PUSH3 0x4E3131 PUSH1 0xE8 SHL PUSH1 0x44 DUP3 ADD MSTORE PUSH1 0x64 ADD PUSH2 0x999 JUMP JUMPDEST PUSH2 0x3C8B DUP3 PUSH2 0x1763 JUMP JUMPDEST PUSH2 0x3C94 DUP5 PUSH2 0x1763 JUMP JUMPDEST EQ PUSH2 0x3CB1 JUMPI PUSH1 0x40 MLOAD PUSH3 0x461BCD PUSH1 0xE5 SHL DUP2 MSTORE PUSH1 0x4 ADD PUSH2 0x999 SWAP1 PUSH2 0x5746 JUMP JUMPDEST PUSH1 0x0 DUP3 DUP2 MSTORE PUSH1 0xF PUSH1 0x20 MSTORE PUSH1 0x40 SWAP1 KECCAK256 SLOAD PUSH2 0x3CCB SWAP1 DUP3 SWAP1 PUSH2 0x58D9 JUMP JUMPDEST PUSH1 0x0 DUP4 DUP2 MSTORE PUSH1 0xF PUSH1 0x20 MSTORE PUSH1 0x40 SWAP1 KECCAK256 SSTORE JUMPDEST PUSH1 0x0 DUP4 DUP2 MSTORE PUSH1 0xA PUSH1 0x20 MSTORE PUSH1 0x40 DUP1 DUP3 KECCAK256 SLOAD DUP5 DUP4 MSTORE SWAP2 DUP2 SWAP1 KECCAK256 SWAP2 SWAP1 SWAP2 SSTORE MLOAD DUP4 SWAP1 PUSH1 0x1 PUSH1 0x1 PUSH1 0xA0 SHL SUB DUP1 DUP8 AND SWAP2 SWAP1 DUP9 AND SWAP1 PUSH1 0x0 DUP1 MLOAD PUSH1 0x20 PUSH2 0x5BE4 DUP4 CODECOPY DUP2 MLOAD SWAP2 MSTORE SWAP1 PUSH2 0x3D26 SWAP1 DUP8 SWAP1 DUP8 SWAP1 PUSH2 0x569B JUMP JUMPDEST PUSH1 0x40 MLOAD DUP1 SWAP2 SUB SWAP1 LOG4 POP POP POP POP POP JUMP JUMPDEST PUSH2 0x3D3F CALLER DUP5 PUSH2 0x3410 JUMP JUMPDEST PUSH2 0x3D70 JUMPI PUSH1 0x40 MLOAD PUSH3 0x461BCD PUSH1 0xE5 SHL DUP2 MSTORE PUSH1 0x20 PUSH1 0x4 DUP3 ADD MSTORE PUSH1 0x2 PUSH1 0x24 DUP3 ADD MSTORE PUSH2 0x2719 PUSH1 0xF1 SHL PUSH1 0x44 DUP3 ADD MSTORE PUSH1 0x64 ADD PUSH2 0x999 JUMP JUMPDEST PUSH2 0x3D79 DUP3 PUSH2 0x2BA1 JUMP JUMPDEST ISZERO PUSH2 0x3DAB JUMPI PUSH1 0x40 MLOAD PUSH3 0x461BCD PUSH1 0xE5 SHL DUP2 MSTORE PUSH1 0x20 PUSH1 0x4 DUP3 ADD MSTORE PUSH1 0x2 PUSH1 0x24 DUP3 ADD MSTORE PUSH2 0x4E33 PUSH1 0xF0 SHL PUSH1 0x44 DUP3 ADD MSTORE PUSH1 0x64 ADD PUSH2 0x999 JUMP JUMPDEST PUSH2 0x3DCA DUP3 PUSH2 0x3DB8 DUP6 PUSH2 0x1763 JUMP JUMPDEST PUSH1 0x0 SWAP2 DUP3 MSTORE PUSH1 0xA PUSH1 0x20 MSTORE PUSH1 0x40 SWAP1 SWAP2 KECCAK256 SSTORE JUMP JUMPDEST PUSH1 0x0 DUP4 DUP2 MSTORE PUSH1 0xF PUSH1 0x20 MSTORE PUSH1 0x40 SWAP1 KECCAK256 SLOAD PUSH2 0x3DE4 SWAP1 DUP3 SWAP1 PUSH2 0x5A12 JUMP JUMPDEST PUSH1 0x0 DUP5 DUP2 MSTORE PUSH1 0xF PUSH1 0x20 MSTORE PUSH1 0x40 DUP2 KECCAK256 SWAP2 SWAP1 SWAP2 SSTORE PUSH2 0x3DFF DUP5 PUSH2 0x1B6F JUMP JUMPDEST SWAP1 POP PUSH2 0x3E15 DUP2 DUP5 PUSH2 0x3E0F DUP8 PUSH2 0x1763 JUMP JUMPDEST DUP6 PUSH2 0x42FD JUMP JUMPDEST DUP4 DUP2 PUSH1 0x1 PUSH1 0x1 PUSH1 0xA0 SHL SUB AND PUSH32 0xF66885C33D648FCD0D97E0F2A18E30102169C22763473AF0FB716F11B4A17DD6 DUP6 DUP6 PUSH1 0x40 MLOAD PUSH2 0x3E51 SWAP3 SWAP2 SWAP1 PUSH2 0x569B JUMP JUMPDEST PUSH1 0x40 MLOAD DUP1 SWAP2 SUB SWAP1 LOG3 POP POP POP POP JUMP JUMPDEST PUSH1 0x6 DUP1 SLOAD PUSH1 0x1 PUSH1 0x1 PUSH1 0xA0 SHL SUB DUP4 DUP2 AND PUSH1 0x1 PUSH1 0x1 PUSH1 0xA0 SHL SUB NOT DUP4 AND DUP2 OR SWAP1 SWAP4 SSTORE PUSH1 0x40 MLOAD SWAP2 AND SWAP2 SWAP1 DUP3 SWAP1 PUSH32 0x8BE0079C531659141344CD1FD0A4F28419497F9722A3DAAFE3B4186F6B6457E0 SWAP1 PUSH1 0x0 SWAP1 LOG3 POP POP JUMP JUMPDEST PUSH1 0x0 PUSH2 0x854 DUP3 SLOAD SWAP1 JUMP JUMPDEST PUSH1 0x0 PUSH2 0x3EC6 DUP3 PUSH2 0x19CF JUMP JUMPDEST PUSH2 0x3EF8 JUMPI PUSH1 0x40 MLOAD PUSH3 0x461BCD PUSH1 0xE5 SHL DUP2 MSTORE PUSH1 0x20 PUSH1 0x4 DUP3 ADD MSTORE PUSH1 0x3 PUSH1 0x24 DUP3 ADD MSTORE PUSH3 0x4F313 PUSH1 0xEC SHL PUSH1 0x44 DUP3 ADD MSTORE PUSH1 0x64 ADD PUSH2 0x999 JUMP JUMPDEST PUSH1 0x0 PUSH2 0x3F03 DUP4 PUSH2 0x1B6F JUMP JUMPDEST PUSH1 0x1 PUSH1 0x1 PUSH1 0xA0 SHL SUB DUP2 AND PUSH1 0x0 SWAP1 DUP2 MSTORE PUSH1 0x19 PUSH1 0x20 MSTORE PUSH1 0x40 DUP2 KECCAK256 SLOAD SWAP2 SWAP3 POP SWAP1 PUSH1 0xFF AND DUP1 ISZERO PUSH2 0x3F42 JUMPI POP PUSH2 0x3F42 PUSH1 0x0 DUP1 MLOAD PUSH1 0x20 PUSH2 0x5BC4 DUP4 CODECOPY DUP2 MLOAD SWAP2 MSTORE CALLER PUSH2 0x2152 JUMP JUMPDEST PUSH1 0x0 DUP6 DUP2 MSTORE PUSH1 0x15 PUSH1 0x20 MSTORE PUSH1 0x40 DUP2 KECCAK256 PUSH1 0x5 DUP2 ADD SLOAD SWAP3 SWAP4 POP SWAP2 PUSH2 0x3F66 SWAP1 PUSH2 0x708 SWAP1 PUSH2 0x5A12 JUMP JUMPDEST TIMESTAMP GT SWAP1 POP PUSH1 0x1 PUSH1 0x1 PUSH1 0xA0 SHL SUB DUP5 AND CALLER EQ DUP1 PUSH2 0x3F86 JUMPI POP DUP3 DUP1 ISZERO PUSH2 0x3F86 JUMPI POP DUP1 JUMPDEST SWAP7 SWAP6 POP POP POP POP POP POP JUMP JUMPDEST PUSH2 0x3F9B DUP5 DUP5 DUP5 PUSH2 0x34DA JUMP JUMPDEST PUSH2 0x3FA7 DUP5 DUP5 DUP5 DUP5 PUSH2 0x469D JUMP JUMPDEST PUSH2 0x25DC JUMPI PUSH1 0x40 MLOAD PUSH3 0x461BCD PUSH1 0xE5 SHL DUP2 MSTORE PUSH1 0x4 ADD PUSH2 0x999 SWAP1 PUSH2 0x56D8 JUMP JUMPDEST PUSH2 0x3FCC CALLER PUSH2 0x25AE JUMP JUMPDEST PUSH2 0x3FFD JUMPI PUSH1 0x40 MLOAD PUSH3 0x461BCD PUSH1 0xE5 SHL DUP2 MSTORE PUSH1 0x20 PUSH1 0x4 DUP3 ADD MSTORE PUSH1 0x2 PUSH1 0x24 DUP3 ADD MSTORE PUSH2 0x4E35 PUSH1 0xF0 SHL PUSH1 0x44 DUP3 ADD MSTORE PUSH1 0x64 ADD PUSH2 0x999 JUMP JUMPDEST DUP1 DUP3 EQ ISZERO PUSH2 0x4032 JUMPI PUSH1 0x40 MLOAD PUSH3 0x461BCD PUSH1 0xE5 SHL DUP2 MSTORE PUSH1 0x20 PUSH1 0x4 DUP3 ADD MSTORE PUSH1 0x2 PUSH1 0x24 DUP3 ADD MSTORE PUSH2 0x271B PUSH1 0xF1 SHL PUSH1 0x44 DUP3 ADD MSTORE PUSH1 0x64 ADD PUSH2 0x999 JUMP JUMPDEST PUSH2 0x403B DUP2 PUSH2 0x1763 JUMP JUMPDEST PUSH2 0x4044 DUP4 PUSH2 0x1763 JUMP JUMPDEST EQ PUSH2 0x4061 JUMPI PUSH1 0x40 MLOAD PUSH3 0x461BCD PUSH1 0xE5 SHL DUP2 MSTORE PUSH1 0x4 ADD PUSH2 0x999 SWAP1 PUSH2 0x5746 JUMP JUMPDEST PUSH1 0x0 PUSH2 0x406C DUP4 PUSH2 0x1B6F JUMP JUMPDEST SWAP1 POP PUSH2 0x4077 DUP3 PUSH2 0x1B6F JUMP JUMPDEST PUSH1 0x1 PUSH1 0x1 PUSH1 0xA0 SHL SUB AND DUP2 PUSH1 0x1 PUSH1 0x1 PUSH1 0xA0 SHL SUB AND EQ PUSH2 0x40BC JUMPI PUSH1 0x40 MLOAD PUSH3 0x461BCD PUSH1 0xE5 SHL DUP2 MSTORE PUSH1 0x20 PUSH1 0x4 DUP3 ADD MSTORE PUSH1 0x2 PUSH1 0x24 DUP3 ADD MSTORE PUSH2 0x9C7 PUSH1 0xF3 SHL PUSH1 0x44 DUP3 ADD MSTORE PUSH1 0x64 ADD PUSH2 0x999 JUMP JUMPDEST PUSH1 0x0 DUP4 DUP2 MSTORE PUSH1 0xF PUSH1 0x20 MSTORE PUSH1 0x40 DUP1 DUP3 KECCAK256 SLOAD DUP5 DUP4 MSTORE SWAP2 KECCAK256 SLOAD PUSH2 0x40DC SWAP1 DUP3 PUSH2 0x58D9 JUMP JUMPDEST PUSH1 0x0 DUP5 DUP2 MSTORE PUSH1 0xF PUSH1 0x20 MSTORE PUSH1 0x40 SWAP1 KECCAK256 SSTORE PUSH2 0x40F4 DUP5 PUSH2 0x3889 JUMP JUMPDEST DUP3 DUP5 DUP4 PUSH1 0x1 PUSH1 0x1 PUSH1 0xA0 SHL SUB AND PUSH32 0xB3CE851D16B3BBEC3774D5631A3893DFA2A80E067CFAD265DD594402AC3D6096 DUP5 PUSH1 0x40 MLOAD PUSH2 0x4131 SWAP2 DUP2 MSTORE PUSH1 0x20 ADD SWAP1 JUMP JUMPDEST PUSH1 0x40 MLOAD DUP1 SWAP2 SUB SWAP1 LOG4 POP POP POP POP JUMP JUMPDEST PUSH1 0x60 PUSH2 0x414A DUP3 PUSH2 0x2BA1 JUMP JUMPDEST PUSH2 0x41B0 JUMPI PUSH1 0x40 MLOAD PUSH3 0x461BCD PUSH1 0xE5 SHL DUP2 MSTORE PUSH1 0x20 PUSH1 0x4 DUP3 ADD MSTORE PUSH1 0x31 PUSH1 0x24 DUP3 ADD MSTORE PUSH32 0x45524337323155524953746F726167653A2055524920717565727920666F7220 PUSH1 0x44 DUP3 ADD MSTORE PUSH17 0x3737B732BC34B9BA32B73A103A37B5B2B7 PUSH1 0x79 SHL PUSH1 0x64 DUP3 ADD MSTORE PUSH1 0x84 ADD PUSH2 0x999 JUMP JUMPDEST PUSH1 0x0 DUP3 DUP2 MSTORE PUSH1 0x9 PUSH1 0x20 MSTORE PUSH1 0x40 DUP2 KECCAK256 DUP1 SLOAD PUSH2 0x41C9 SWAP1 PUSH2 0x5A6C JUMP JUMPDEST DUP1 PUSH1 0x1F ADD PUSH1 0x20 DUP1 SWAP2 DIV MUL PUSH1 0x20 ADD PUSH1 0x40 MLOAD SWAP1 DUP2 ADD PUSH1 0x40 MSTORE DUP1 SWAP3 SWAP2 SWAP1 DUP2 DUP2 MSTORE PUSH1 0x20 ADD DUP3 DUP1 SLOAD PUSH2 0x41F5 SWAP1 PUSH2 0x5A6C JUMP JUMPDEST DUP1 ISZERO PUSH2 0x4242 JUMPI DUP1 PUSH1 0x1F LT PUSH2 0x4217 JUMPI PUSH2 0x100 DUP1 DUP4 SLOAD DIV MUL DUP4 MSTORE SWAP2 PUSH1 0x20 ADD SWAP2 PUSH2 0x4242 JUMP JUMPDEST DUP3 ADD SWAP2 SWAP1 PUSH1 0x0 MSTORE PUSH1 0x20 PUSH1 0x0 KECCAK256 SWAP1 JUMPDEST DUP2 SLOAD DUP2 MSTORE SWAP1 PUSH1 0x1 ADD SWAP1 PUSH1 0x20 ADD DUP1 DUP4 GT PUSH2 0x4225 JUMPI DUP3 SWAP1 SUB PUSH1 0x1F AND DUP3 ADD SWAP2 JUMPDEST POP POP POP POP POP SWAP1 POP PUSH1 0x0 PUSH2 0x4253 PUSH2 0x47AA JUMP JUMPDEST SWAP1 POP DUP1 MLOAD PUSH1 0x0 EQ ISZERO PUSH2 0x4266 JUMPI POP SWAP3 SWAP2 POP POP JUMP JUMPDEST DUP2 MLOAD ISZERO PUSH2 0x4298 JUMPI DUP1 DUP3 PUSH1 0x40 MLOAD PUSH1 0x20 ADD PUSH2 0x4280 SWAP3 SWAP2 SWAP1 PUSH2 0x54D9 JUMP JUMPDEST PUSH1 0x40 MLOAD PUSH1 0x20 DUP2 DUP4 SUB SUB DUP2 MSTORE SWAP1 PUSH1 0x40 MSTORE SWAP3 POP POP POP SWAP2 SWAP1 POP JUMP JUMPDEST PUSH2 0x34D2 DUP5 PUSH2 0x47CA JUMP JUMPDEST PUSH1 0x0 PUSH2 0x2969 DUP4 DUP4 PUSH2 0x4894 JUMP JUMPDEST PUSH1 0x0 PUSH1 0x1 PUSH1 0x1 PUSH1 0xE0 SHL SUB NOT DUP3 AND PUSH4 0x80AC58CD PUSH1 0xE0 SHL EQ DUP1 PUSH2 0x42DE JUMPI POP PUSH1 0x1 PUSH1 0x1 PUSH1 0xE0 SHL SUB NOT DUP3 AND PUSH4 0x5B5E139F PUSH1 0xE0 SHL EQ JUMPDEST DUP1 PUSH2 0x854 JUMPI POP PUSH4 0x1FFC9A7 PUSH1 0xE0 SHL PUSH1 0x1 PUSH1 0x1 PUSH1 0xE0 SHL SUB NOT DUP4 AND EQ PUSH2 0x854 JUMP JUMPDEST PUSH2 0x4306 DUP4 PUSH2 0x2BA1 JUMP JUMPDEST PUSH2 0x432E JUMPI PUSH2 0x4314 DUP5 DUP5 PUSH2 0x48CC JUMP JUMPDEST PUSH1 0x0 DUP3 DUP2 MSTORE PUSH1 0xC PUSH1 0x20 MSTORE PUSH1 0x40 SWAP1 KECCAK256 PUSH2 0x432C SWAP1 DUP5 PUSH2 0x49F8 JUMP JUMPDEST POP JUMPDEST PUSH1 0x0 DUP4 DUP2 MSTORE PUSH1 0xF PUSH1 0x20 MSTORE PUSH1 0x40 SWAP1 KECCAK256 SLOAD PUSH2 0x4348 SWAP1 DUP3 SWAP1 PUSH2 0x58D9 JUMP JUMPDEST PUSH1 0x0 DUP5 DUP2 MSTORE PUSH1 0xF PUSH1 0x20 MSTORE PUSH1 0x40 DUP1 DUP3 KECCAK256 SWAP3 SWAP1 SWAP3 SSTORE SWAP1 MLOAD PUSH1 0x1 PUSH1 0x1 PUSH1 0xA0 SHL SUB DUP7 AND SWAP1 DUP3 SWAP1 PUSH1 0x0 DUP1 MLOAD PUSH1 0x20 PUSH2 0x5BE4 DUP4 CODECOPY DUP2 MLOAD SWAP2 MSTORE SWAP1 PUSH2 0x4131 SWAP1 DUP9 SWAP1 DUP8 SWAP1 PUSH2 0x569B JUMP JUMPDEST PUSH2 0x4390 DUP3 PUSH2 0x2BA1 JUMP JUMPDEST PUSH2 0x43F3 JUMPI PUSH1 0x40 MLOAD PUSH3 0x461BCD PUSH1 0xE5 SHL DUP2 MSTORE PUSH1 0x20 PUSH1 0x4 DUP3 ADD MSTORE PUSH1 0x2E PUSH1 0x24 DUP3 ADD MSTORE PUSH32 0x45524337323155524953746F726167653A2055524920736574206F66206E6F6E PUSH1 0x44 DUP3 ADD MSTORE PUSH14 0x32BC34B9BA32B73A103A37B5B2B7 PUSH1 0x91 SHL PUSH1 0x64 DUP3 ADD MSTORE PUSH1 0x84 ADD PUSH2 0x999 JUMP JUMPDEST PUSH1 0x0 DUP3 DUP2 MSTORE PUSH1 0x9 PUSH1 0x20 SWAP1 DUP2 MSTORE PUSH1 0x40 SWAP1 SWAP2 KECCAK256 DUP3 MLOAD PUSH2 0xACA SWAP3 DUP5 ADD SWAP1 PUSH2 0x4E3A JUMP JUMPDEST PUSH1 0x1 PUSH1 0x1 PUSH1 0xA0 SHL SUB DUP4 AND ISZERO PUSH2 0xACA JUMPI PUSH2 0xACA DUP2 PUSH2 0x4A04 JUMP JUMPDEST PUSH1 0x60 PUSH1 0x0 PUSH2 0x4439 DUP4 PUSH1 0x2 PUSH2 0x59F3 JUMP JUMPDEST PUSH2 0x4444 SWAP1 PUSH1 0x2 PUSH2 0x58D9 JUMP JUMPDEST PUSH1 0x1 PUSH1 0x1 PUSH1 0x40 SHL SUB DUP2 GT ISZERO PUSH2 0x4469 JUMPI PUSH4 0x4E487B71 PUSH1 0xE0 SHL PUSH1 0x0 MSTORE PUSH1 0x41 PUSH1 0x4 MSTORE PUSH1 0x24 PUSH1 0x0 REVERT JUMPDEST PUSH1 0x40 MLOAD SWAP1 DUP1 DUP3 MSTORE DUP1 PUSH1 0x1F ADD PUSH1 0x1F NOT AND PUSH1 0x20 ADD DUP3 ADD PUSH1 0x40 MSTORE DUP1 ISZERO PUSH2 0x4493 JUMPI PUSH1 0x20 DUP3 ADD DUP2 DUP1 CALLDATASIZE DUP4 CALLDATACOPY ADD SWAP1 POP JUMPDEST POP SWAP1 POP PUSH1 0x3 PUSH1 0xFC SHL DUP2 PUSH1 0x0 DUP2 MLOAD DUP2 LT PUSH2 0x44BC JUMPI PUSH4 0x4E487B71 PUSH1 0xE0 SHL PUSH1 0x0 MSTORE PUSH1 0x32 PUSH1 0x4 MSTORE PUSH1 0x24 PUSH1 0x0 REVERT JUMPDEST PUSH1 0x20 ADD ADD SWAP1 PUSH1 0x1 PUSH1 0x1 PUSH1 0xF8 SHL SUB NOT AND SWAP1 DUP2 PUSH1 0x0 BYTE SWAP1 MSTORE8 POP PUSH1 0xF PUSH1 0xFB SHL DUP2 PUSH1 0x1 DUP2 MLOAD DUP2 LT PUSH2 0x44F9 JUMPI PUSH4 0x4E487B71 PUSH1 0xE0 SHL PUSH1 0x0 MSTORE PUSH1 0x32 PUSH1 0x4 MSTORE PUSH1 0x24 PUSH1 0x0 REVERT JUMPDEST PUSH1 0x20 ADD ADD SWAP1 PUSH1 0x1 PUSH1 0x1 PUSH1 0xF8 SHL SUB NOT AND SWAP1 DUP2 PUSH1 0x0 BYTE SWAP1 MSTORE8 POP PUSH1 0x0 PUSH2 0x451D DUP5 PUSH1 0x2 PUSH2 0x59F3 JUMP JUMPDEST PUSH2 0x4528 SWAP1 PUSH1 0x1 PUSH2 0x58D9 JUMP JUMPDEST SWAP1 POP JUMPDEST PUSH1 0x1 DUP2 GT ISZERO PUSH2 0x45BC JUMPI PUSH16 0x181899199A1A9B1B9C1CB0B131B232B3 PUSH1 0x81 SHL DUP6 PUSH1 0xF AND PUSH1 0x10 DUP2 LT PUSH2 0x456A JUMPI PUSH4 0x4E487B71 PUSH1 0xE0 SHL PUSH1 0x0 MSTORE PUSH1 0x32 PUSH1 0x4 MSTORE PUSH1 0x24 PUSH1 0x0 REVERT JUMPDEST BYTE PUSH1 0xF8 SHL DUP3 DUP3 DUP2 MLOAD DUP2 LT PUSH2 0x458E JUMPI PUSH4 0x4E487B71 PUSH1 0xE0 SHL PUSH1 0x0 MSTORE PUSH1 0x32 PUSH1 0x4 MSTORE PUSH1 0x24 PUSH1 0x0 REVERT JUMPDEST PUSH1 0x20 ADD ADD SWAP1 PUSH1 0x1 PUSH1 0x1 PUSH1 0xF8 SHL SUB NOT AND SWAP1 DUP2 PUSH1 0x0 BYTE SWAP1 MSTORE8 POP PUSH1 0x4 SWAP5 SWAP1 SWAP5 SHR SWAP4 PUSH2 0x45B5 DUP2 PUSH2 0x5A55 JUMP JUMPDEST SWAP1 POP PUSH2 0x452B JUMP JUMPDEST POP DUP4 ISZERO PUSH2 0x2969 JUMPI PUSH1 0x40 MLOAD PUSH3 0x461BCD PUSH1 0xE5 SHL DUP2 MSTORE PUSH1 0x20 PUSH1 0x4 DUP3 ADD DUP2 SWAP1 MSTORE PUSH1 0x24 DUP3 ADD MSTORE PUSH32 0x537472696E67733A20686578206C656E67746820696E73756666696369656E74 PUSH1 0x44 DUP3 ADD MSTORE PUSH1 0x64 ADD PUSH2 0x999 JUMP JUMPDEST PUSH1 0x0 PUSH2 0x4616 DUP3 PUSH2 0x1B6F JUMP JUMPDEST SWAP1 POP PUSH1 0x0 PUSH2 0x4623 DUP4 PUSH2 0x1763 JUMP JUMPDEST PUSH1 0x0 DUP5 DUP2 MSTORE PUSH1 0xF PUSH1 0x20 SWAP1 DUP2 MSTORE PUSH1 0x40 DUP1 DUP4 KECCAK256 SLOAD DUP5 DUP5 MSTORE PUSH1 0xC SWAP1 SWAP3 MSTORE SWAP1 SWAP2 KECCAK256 SWAP2 SWAP3 POP SWAP1 PUSH2 0x464E SWAP1 DUP6 PUSH2 0x4AB8 JUMP JUMPDEST POP PUSH1 0x0 DUP5 DUP2 MSTORE PUSH1 0xF PUSH1 0x20 MSTORE PUSH1 0x40 DUP2 KECCAK256 SSTORE PUSH2 0x4667 DUP5 PUSH2 0x4AC4 JUMP JUMPDEST DUP4 PUSH1 0x0 PUSH1 0x1 PUSH1 0x1 PUSH1 0xA0 SHL SUB AND DUP5 PUSH1 0x1 PUSH1 0x1 PUSH1 0xA0 SHL SUB AND PUSH1 0x0 DUP1 MLOAD PUSH1 0x20 PUSH2 0x5BE4 DUP4 CODECOPY DUP2 MLOAD SWAP2 MSTORE PUSH1 0x0 DUP6 PUSH1 0x40 MLOAD PUSH2 0x4131 SWAP3 SWAP2 SWAP1 PUSH2 0x569B JUMP JUMPDEST PUSH1 0x0 PUSH1 0x1 PUSH1 0x1 PUSH1 0xA0 SHL SUB DUP5 AND EXTCODESIZE ISZERO PUSH2 0x479F JUMPI PUSH1 0x40 MLOAD PUSH4 0xA85BD01 PUSH1 0xE1 SHL DUP2 MSTORE PUSH1 0x1 PUSH1 0x1 PUSH1 0xA0 SHL SUB DUP6 AND SWAP1 PUSH4 0x150B7A02 SWAP1 PUSH2 0x46E1 SWAP1 CALLER SWAP1 DUP10 SWAP1 DUP9 SWAP1 DUP9 SWAP1 PUSH1 0x4 ADD PUSH2 0x55AF JUMP JUMPDEST PUSH1 0x20 PUSH1 0x40 MLOAD DUP1 DUP4 SUB DUP2 PUSH1 0x0 DUP8 DUP1 EXTCODESIZE ISZERO DUP1 ISZERO PUSH2 0x46FB JUMPI PUSH1 0x0 DUP1 REVERT JUMPDEST POP GAS CALL SWAP3 POP POP POP DUP1 ISZERO PUSH2 0x472B JUMPI POP PUSH1 0x40 DUP1 MLOAD PUSH1 0x1F RETURNDATASIZE SWAP1 DUP2 ADD PUSH1 0x1F NOT AND DUP3 ADD SWAP1 SWAP3 MSTORE PUSH2 0x4728 SWAP2 DUP2 ADD SWAP1 PUSH2 0x52F6 JUMP JUMPDEST PUSH1 0x1 JUMPDEST PUSH2 0x4785 JUMPI RETURNDATASIZE DUP1 DUP1 ISZERO PUSH2 0x4759 JUMPI PUSH1 0x40 MLOAD SWAP2 POP PUSH1 0x1F NOT PUSH1 0x3F RETURNDATASIZE ADD AND DUP3 ADD PUSH1 0x40 MSTORE RETURNDATASIZE DUP3 MSTORE RETURNDATASIZE PUSH1 0x0 PUSH1 0x20 DUP5 ADD RETURNDATACOPY PUSH2 0x475E JUMP JUMPDEST PUSH1 0x60 SWAP2 POP JUMPDEST POP DUP1 MLOAD PUSH2 0x477D JUMPI PUSH1 0x40 MLOAD PUSH3 0x461BCD PUSH1 0xE5 SHL DUP2 MSTORE PUSH1 0x4 ADD PUSH2 0x999 SWAP1 PUSH2 0x56D8 JUMP JUMPDEST DUP1 MLOAD DUP2 PUSH1 0x20 ADD REVERT JUMPDEST PUSH1 0x1 PUSH1 0x1 PUSH1 0xE0 SHL SUB NOT AND PUSH4 0xA85BD01 PUSH1 0xE1 SHL EQ SWAP1 POP PUSH2 0x34D2 JUMP JUMPDEST POP PUSH1 0x1 SWAP5 SWAP4 POP POP POP POP JUMP JUMPDEST PUSH1 0x60 PUSH1 0x40 MLOAD DUP1 PUSH1 0x60 ADD PUSH1 0x40 MSTORE DUP1 PUSH1 0x22 DUP2 MSTORE PUSH1 0x20 ADD PUSH2 0x5B62 PUSH1 0x22 SWAP2 CODECOPY SWAP1 POP SWAP1 JUMP JUMPDEST PUSH1 0x60 PUSH2 0x47D5 DUP3 PUSH2 0x2BA1 JUMP JUMPDEST PUSH2 0x4839 JUMPI PUSH1 0x40 MLOAD PUSH3 0x461BCD PUSH1 0xE5 SHL DUP2 MSTORE PUSH1 0x20 PUSH1 0x4 DUP3 ADD MSTORE PUSH1 0x2F PUSH1 0x24 DUP3 ADD MSTORE PUSH32 0x4552433732314D657461646174613A2055524920717565727920666F72206E6F PUSH1 0x44 DUP3 ADD MSTORE PUSH15 0x3732BC34B9BA32B73A103A37B5B2B7 PUSH1 0x89 SHL PUSH1 0x64 DUP3 ADD MSTORE PUSH1 0x84 ADD PUSH2 0x999 JUMP JUMPDEST PUSH1 0x0 PUSH2 0x4843 PUSH2 0x47AA JUMP JUMPDEST SWAP1 POP PUSH1 0x0 DUP2 MLOAD GT PUSH2 0x4863 JUMPI PUSH1 0x40 MLOAD DUP1 PUSH1 0x20 ADD PUSH1 0x40 MSTORE DUP1 PUSH1 0x0 DUP2 MSTORE POP PUSH2 0x2969 JUMP JUMPDEST DUP1 PUSH2 0x486D DUP5 PUSH2 0x4B59 JUMP JUMPDEST PUSH1 0x40 MLOAD PUSH1 0x20 ADD PUSH2 0x487E SWAP3 SWAP2 SWAP1 PUSH2 0x54D9 JUMP JUMPDEST PUSH1 0x40 MLOAD PUSH1 0x20 DUP2 DUP4 SUB SUB DUP2 MSTORE SWAP1 PUSH1 0x40 MSTORE SWAP4 SWAP3 POP POP POP JUMP JUMPDEST PUSH1 0x0 DUP3 PUSH1 0x0 ADD DUP3 DUP2 SLOAD DUP2 LT PUSH2 0x48B9 JUMPI PUSH4 0x4E487B71 PUSH1 0xE0 SHL PUSH1 0x0 MSTORE PUSH1 0x32 PUSH1 0x4 MSTORE PUSH1 0x24 PUSH1 0x0 REVERT JUMPDEST SWAP1 PUSH1 0x0 MSTORE PUSH1 0x20 PUSH1 0x0 KECCAK256 ADD SLOAD SWAP1 POP SWAP3 SWAP2 POP POP JUMP JUMPDEST PUSH1 0x1 PUSH1 0x1 PUSH1 0xA0 SHL SUB DUP3 AND PUSH2 0x4922 JUMPI PUSH1 0x40 MLOAD PUSH3 0x461BCD PUSH1 0xE5 SHL DUP2 MSTORE PUSH1 0x20 PUSH1 0x4 DUP3 ADD DUP2 SWAP1 MSTORE PUSH1 0x24 DUP3 ADD MSTORE PUSH32 0x4552433732313A206D696E7420746F20746865207A65726F2061646472657373 PUSH1 0x44 DUP3 ADD MSTORE PUSH1 0x64 ADD PUSH2 0x999 JUMP JUMPDEST PUSH2 0x492B DUP2 PUSH2 0x2BA1 JUMP JUMPDEST ISZERO PUSH2 0x4977 JUMPI PUSH1 0x40 MLOAD PUSH3 0x461BCD PUSH1 0xE5 SHL DUP2 MSTORE PUSH1 0x20 PUSH1 0x4 DUP3 ADD MSTORE PUSH1 0x1C PUSH1 0x24 DUP3 ADD MSTORE PUSH28 0x115490CDCC8C4E881D1BDAD95B88185B1C9958591E481B5A5B9D1959 PUSH1 0x22 SHL PUSH1 0x44 DUP3 ADD MSTORE PUSH1 0x64 ADD PUSH2 0x999 JUMP JUMPDEST PUSH2 0x4983 PUSH1 0x0 DUP4 DUP4 PUSH2 0x4412 JUMP JUMPDEST PUSH1 0x1 PUSH1 0x1 PUSH1 0xA0 SHL SUB DUP3 AND PUSH1 0x0 SWAP1 DUP2 MSTORE PUSH1 0x3 PUSH1 0x20 MSTORE PUSH1 0x40 DUP2 KECCAK256 DUP1 SLOAD PUSH1 0x1 SWAP3 SWAP1 PUSH2 0x49AC SWAP1 DUP5 SWAP1 PUSH2 0x58D9 JUMP JUMPDEST SWAP1 SWAP2 SSTORE POP POP PUSH1 0x0 DUP2 DUP2 MSTORE PUSH1 0x2 PUSH1 0x20 MSTORE PUSH1 0x40 DUP1 DUP3 KECCAK256 DUP1 SLOAD PUSH1 0x1 PUSH1 0x1 PUSH1 0xA0 SHL SUB NOT AND PUSH1 0x1 PUSH1 0x1 PUSH1 0xA0 SHL SUB DUP7 AND SWAP1 DUP2 OR SWAP1 SWAP2 SSTORE SWAP1 MLOAD DUP4 SWAP3 SWAP1 PUSH1 0x0 DUP1 MLOAD PUSH1 0x20 PUSH2 0x5BA4 DUP4 CODECOPY DUP2 MLOAD SWAP2 MSTORE SWAP1 DUP3 SWAP1 LOG4 POP POP JUMP JUMPDEST PUSH1 0x0 PUSH2 0x2969 DUP4 DUP4 PUSH2 0x4C72 JUMP JUMPDEST PUSH1 0x0 DUP2 DUP2 MSTORE PUSH1 0xB PUSH1 0x20 MSTORE PUSH1 0x40 DUP2 KECCAK256 SWAP1 JUMPDEST DUP2 SLOAD DUP2 LT ISZERO PUSH2 0xACA JUMPI DUP2 PUSH1 0x1 ADD PUSH1 0x0 DUP4 PUSH1 0x0 ADD DUP4 DUP2 SLOAD DUP2 LT PUSH2 0x4A46 JUMPI PUSH4 0x4E487B71 PUSH1 0xE0 SHL PUSH1 0x0 MSTORE PUSH1 0x32 PUSH1 0x4 MSTORE PUSH1 0x24 PUSH1 0x0 REVERT JUMPDEST PUSH1 0x0 SWAP2 DUP3 MSTORE PUSH1 0x20 DUP1 DUP4 KECCAK256 SWAP1 SWAP2 ADD SLOAD PUSH1 0x1 PUSH1 0x1 PUSH1 0xA0 SHL SUB AND DUP4 MSTORE DUP3 ADD SWAP3 SWAP1 SWAP3 MSTORE PUSH1 0x40 ADD DUP2 KECCAK256 SSTORE DUP2 SLOAD DUP3 SWAP1 DUP3 SWAP1 DUP2 LT PUSH2 0x4A8D JUMPI PUSH4 0x4E487B71 PUSH1 0xE0 SHL PUSH1 0x0 MSTORE PUSH1 0x32 PUSH1 0x4 MSTORE PUSH1 0x24 PUSH1 0x0 REVERT JUMPDEST PUSH1 0x0 SWAP2 DUP3 MSTORE PUSH1 0x20 SWAP1 SWAP2 KECCAK256 ADD DUP1 SLOAD PUSH1 0x1 PUSH1 0x1 PUSH1 0xA0 SHL SUB NOT AND SWAP1 SSTORE DUP1 PUSH2 0x4AB0 DUP2 PUSH2 0x5AA1 JUMP JUMPDEST SWAP2 POP POP PUSH2 0x4A14 JUMP JUMPDEST PUSH1 0x0 PUSH2 0x2969 DUP4 DUP4 PUSH2 0x4CC1 JUMP JUMPDEST PUSH1 0x0 PUSH2 0x4ACF DUP3 PUSH2 0x1B6F JUMP JUMPDEST SWAP1 POP PUSH2 0x4ADD DUP2 PUSH1 0x0 DUP5 PUSH2 0x4412 JUMP JUMPDEST PUSH2 0x4AE8 PUSH1 0x0 DUP4 PUSH2 0x2BBE JUMP JUMPDEST PUSH1 0x1 PUSH1 0x1 PUSH1 0xA0 SHL SUB DUP2 AND PUSH1 0x0 SWAP1 DUP2 MSTORE PUSH1 0x3 PUSH1 0x20 MSTORE PUSH1 0x40 DUP2 KECCAK256 DUP1 SLOAD PUSH1 0x1 SWAP3 SWAP1 PUSH2 0x4B11 SWAP1 DUP5 SWAP1 PUSH2 0x5A12 JUMP JUMPDEST SWAP1 SWAP2 SSTORE POP POP PUSH1 0x0 DUP3 DUP2 MSTORE PUSH1 0x2 PUSH1 0x20 MSTORE PUSH1 0x40 DUP1 DUP3 KECCAK256 DUP1 SLOAD PUSH1 0x1 PUSH1 0x1 PUSH1 0xA0 SHL SUB NOT AND SWAP1 SSTORE MLOAD DUP4 SWAP2 SWAP1 PUSH1 0x1 PUSH1 0x1 PUSH1 0xA0 SHL SUB DUP5 AND SWAP1 PUSH1 0x0 DUP1 MLOAD PUSH1 0x20 PUSH2 0x5BA4 DUP4 CODECOPY DUP2 MLOAD SWAP2 MSTORE SWAP1 DUP4 SWAP1 LOG4 POP POP JUMP JUMPDEST PUSH1 0x60 DUP2 PUSH2 0x4B7D JUMPI POP POP PUSH1 0x40 DUP1 MLOAD DUP1 DUP3 ADD SWAP1 SWAP2 MSTORE PUSH1 0x1 DUP2 MSTORE PUSH1 0x3 PUSH1 0xFC SHL PUSH1 0x20 DUP3 ADD MSTORE SWAP1 JUMP JUMPDEST DUP2 PUSH1 0x0 JUMPDEST DUP2 ISZERO PUSH2 0x4BA7 JUMPI DUP1 PUSH2 0x4B91 DUP2 PUSH2 0x5AA1 JUMP JUMPDEST SWAP2 POP PUSH2 0x4BA0 SWAP1 POP PUSH1 0xA DUP4 PUSH2 0x58F1 JUMP JUMPDEST SWAP2 POP PUSH2 0x4B81 JUMP JUMPDEST PUSH1 0x0 DUP2 PUSH1 0x1 PUSH1 0x1 PUSH1 0x40 SHL SUB DUP2 GT ISZERO PUSH2 0x4BCF JUMPI PUSH4 0x4E487B71 PUSH1 0xE0 SHL PUSH1 0x0 MSTORE PUSH1 0x41 PUSH1 0x4 MSTORE PUSH1 0x24 PUSH1 0x0 REVERT JUMPDEST PUSH1 0x40 MLOAD SWAP1 DUP1 DUP3 MSTORE DUP1 PUSH1 0x1F ADD PUSH1 0x1F NOT AND PUSH1 0x20 ADD DUP3 ADD PUSH1 0x40 MSTORE DUP1 ISZERO PUSH2 0x4BF9 JUMPI PUSH1 0x20 DUP3 ADD DUP2 DUP1 CALLDATASIZE DUP4 CALLDATACOPY ADD SWAP1 POP JUMPDEST POP SWAP1 POP JUMPDEST DUP5 ISZERO PUSH2 0x34D2 JUMPI PUSH2 0x4C0E PUSH1 0x1 DUP4 PUSH2 0x5A12 JUMP JUMPDEST SWAP2 POP PUSH2 0x4C1B PUSH1 0xA DUP7 PUSH2 0x5ABC JUMP JUMPDEST PUSH2 0x4C26 SWAP1 PUSH1 0x30 PUSH2 0x58D9 JUMP JUMPDEST PUSH1 0xF8 SHL DUP2 DUP4 DUP2 MLOAD DUP2 LT PUSH2 0x4C49 JUMPI PUSH4 0x4E487B71 PUSH1 0xE0 SHL PUSH1 0x0 MSTORE PUSH1 0x32 PUSH1 0x4 MSTORE PUSH1 0x24 PUSH1 0x0 REVERT JUMPDEST PUSH1 0x20 ADD ADD SWAP1 PUSH1 0x1 PUSH1 0x1 PUSH1 0xF8 SHL SUB NOT AND SWAP1 DUP2 PUSH1 0x0 BYTE SWAP1 MSTORE8 POP PUSH2 0x4C6B PUSH1 0xA DUP7 PUSH2 0x58F1 JUMP JUMPDEST SWAP5 POP PUSH2 0x4BFD JUMP JUMPDEST PUSH1 0x0 DUP2 DUP2 MSTORE PUSH1 0x1 DUP4 ADD PUSH1 0x20 MSTORE PUSH1 0x40 DUP2 KECCAK256 SLOAD PUSH2 0x4CB9 JUMPI POP DUP2 SLOAD PUSH1 0x1 DUP2 DUP2 ADD DUP5 SSTORE PUSH1 0x0 DUP5 DUP2 MSTORE PUSH1 0x20 DUP1 DUP3 KECCAK256 SWAP1 SWAP4 ADD DUP5 SWAP1 SSTORE DUP5 SLOAD DUP5 DUP3 MSTORE DUP3 DUP7 ADD SWAP1 SWAP4 MSTORE PUSH1 0x40 SWAP1 KECCAK256 SWAP2 SWAP1 SWAP2 SSTORE PUSH2 0x854 JUMP JUMPDEST POP PUSH1 0x0 PUSH2 0x854 JUMP JUMPDEST PUSH1 0x0 DUP2 DUP2 MSTORE PUSH1 0x1 DUP4 ADD PUSH1 0x20 MSTORE PUSH1 0x40 DUP2 KECCAK256 SLOAD DUP1 ISZERO PUSH2 0x4DD4 JUMPI PUSH1 0x0 PUSH2 0x4CE5 PUSH1 0x1 DUP4 PUSH2 0x5A12 JUMP JUMPDEST DUP6 SLOAD SWAP1 SWAP2 POP PUSH1 0x0 SWAP1 PUSH2 0x4CF9 SWAP1 PUSH1 0x1 SWAP1 PUSH2 0x5A12 JUMP JUMPDEST SWAP1 POP DUP2 DUP2 EQ PUSH2 0x4D7A JUMPI PUSH1 0x0 DUP7 PUSH1 0x0 ADD DUP3 DUP2 SLOAD DUP2 LT PUSH2 0x4D27 JUMPI PUSH4 0x4E487B71 PUSH1 0xE0 SHL PUSH1 0x0 MSTORE PUSH1 0x32 PUSH1 0x4 MSTORE PUSH1 0x24 PUSH1 0x0 REVERT JUMPDEST SWAP1 PUSH1 0x0 MSTORE PUSH1 0x20 PUSH1 0x0 KECCAK256 ADD SLOAD SWAP1 POP DUP1 DUP8 PUSH1 0x0 ADD DUP5 DUP2 SLOAD DUP2 LT PUSH2 0x4D58 JUMPI PUSH4 0x4E487B71 PUSH1 0xE0 SHL PUSH1 0x0 MSTORE PUSH1 0x32 PUSH1 0x4 MSTORE PUSH1 0x24 PUSH1 0x0 REVERT JUMPDEST PUSH1 0x0 SWAP2 DUP3 MSTORE PUSH1 0x20 DUP1 DUP4 KECCAK256 SWAP1 SWAP2 ADD SWAP3 SWAP1 SWAP3 SSTORE SWAP2 DUP3 MSTORE PUSH1 0x1 DUP9 ADD SWAP1 MSTORE PUSH1 0x40 SWAP1 KECCAK256 DUP4 SWAP1 SSTORE JUMPDEST DUP6 SLOAD DUP7 SWAP1 DUP1 PUSH2 0x4D99 JUMPI PUSH4 0x4E487B71 PUSH1 0xE0 SHL PUSH1 0x0 MSTORE PUSH1 0x31 PUSH1 0x4 MSTORE PUSH1 0x24 PUSH1 0x0 REVERT JUMPDEST PUSH1 0x1 SWAP1 SUB DUP2 DUP2 SWAP1 PUSH1 0x0 MSTORE PUSH1 0x20 PUSH1 0x0 KECCAK256 ADD PUSH1 0x0 SWAP1 SSTORE SWAP1 SSTORE DUP6 PUSH1 0x1 ADD PUSH1 0x0 DUP7 DUP2 MSTORE PUSH1 0x20 ADD SWAP1 DUP2 MSTORE PUSH1 0x20 ADD PUSH1 0x0 KECCAK256 PUSH1 0x0 SWAP1 SSTORE PUSH1 0x1 SWAP4 POP POP POP POP PUSH2 0x854 JUMP JUMPDEST PUSH1 0x0 SWAP2 POP POP PUSH2 0x854 JUMP JUMPDEST PUSH1 0x40 DUP1 MLOAD PUSH1 0xE0 DUP2 ADD SWAP1 SWAP2 MSTORE DUP1 PUSH1 0x0 DUP2 MSTORE PUSH1 0x20 ADD PUSH1 0x0 DUP2 MSTORE PUSH1 0x20 ADD PUSH1 0x0 DUP2 MSTORE PUSH1 0x20 ADD PUSH1 0x0 DUP2 MSTORE PUSH1 0x20 ADD PUSH1 0x0 DUP2 MSTORE PUSH1 0x20 ADD PUSH1 0x0 DUP2 MSTORE PUSH1 0x20 ADD PUSH1 0x0 PUSH1 0x2 DUP2 GT ISZERO PUSH2 0x4E35 JUMPI PUSH4 0x4E487B71 PUSH1 0xE0 SHL PUSH1 0x0 MSTORE PUSH1 0x21 PUSH1 0x4 MSTORE PUSH1 0x24 PUSH1 0x0 REVERT JUMPDEST SWAP1 MSTORE SWAP1 JUMP JUMPDEST DUP3 DUP1 SLOAD PUSH2 0x4E46 SWAP1 PUSH2 0x5A6C JUMP JUMPDEST SWAP1 PUSH1 0x0 MSTORE PUSH1 0x20 PUSH1 0x0 KECCAK256 SWAP1 PUSH1 0x1F ADD PUSH1 0x20 SWAP1 DIV DUP2 ADD SWAP3 DUP3 PUSH2 0x4E68 JUMPI PUSH1 0x0 DUP6 SSTORE PUSH2 0x4EAE JUMP JUMPDEST DUP3 PUSH1 0x1F LT PUSH2 0x4E81 JUMPI DUP1 MLOAD PUSH1 0xFF NOT AND DUP4 DUP1 ADD OR DUP6 SSTORE PUSH2 0x4EAE JUMP JUMPDEST DUP3 DUP1 ADD PUSH1 0x1 ADD DUP6 SSTORE DUP3 ISZERO PUSH2 0x4EAE JUMPI SWAP2 DUP3 ADD JUMPDEST DUP3 DUP2 GT ISZERO PUSH2 0x4EAE JUMPI DUP3 MLOAD DUP3 SSTORE SWAP2 PUSH1 0x20 ADD SWAP2 SWAP1 PUSH1 0x1 ADD SWAP1 PUSH2 0x4E93 JUMP JUMPDEST POP PUSH2 0x4EBA SWAP3 SWAP2 POP PUSH2 0x4EBE JUMP JUMPDEST POP SWAP1 JUMP JUMPDEST JUMPDEST DUP1 DUP3 GT ISZERO PUSH2 0x4EBA JUMPI PUSH1 0x0 DUP2 SSTORE PUSH1 0x1 ADD PUSH2 0x4EBF JUMP JUMPDEST PUSH1 0x0 PUSH1 0x1 PUSH1 0x1 PUSH1 0x40 SHL SUB DUP1 DUP5 GT ISZERO PUSH2 0x4EED JUMPI PUSH2 0x4EED PUSH2 0x5B12 JUMP JUMPDEST PUSH1 0x40 MLOAD PUSH1 0x1F DUP6 ADD PUSH1 0x1F NOT SWAP1 DUP2 AND PUSH1 0x3F ADD AND DUP2 ADD SWAP1 DUP3 DUP3 GT DUP2 DUP4 LT OR ISZERO PUSH2 0x4F15 JUMPI PUSH2 0x4F15 PUSH2 0x5B12 JUMP JUMPDEST DUP2 PUSH1 0x40 MSTORE DUP1 SWAP4 POP DUP6 DUP2 MSTORE DUP7 DUP7 DUP7 ADD GT ISZERO PUSH2 0x4F2E JUMPI PUSH1 0x0 DUP1 REVERT JUMPDEST DUP6 DUP6 PUSH1 0x20 DUP4 ADD CALLDATACOPY PUSH1 0x0 PUSH1 0x20 DUP8 DUP4 ADD ADD MSTORE POP POP POP SWAP4 SWAP3 POP POP POP JUMP JUMPDEST PUSH1 0x0 DUP1 DUP4 PUSH1 0x1F DUP5 ADD SLT PUSH2 0x4F59 JUMPI DUP2 DUP3 REVERT JUMPDEST POP DUP2 CALLDATALOAD PUSH1 0x1 PUSH1 0x1 PUSH1 0x40 SHL SUB DUP2 GT ISZERO PUSH2 0x4F6F JUMPI DUP2 DUP3 REVERT JUMPDEST PUSH1 0x20 DUP4 ADD SWAP2 POP DUP4 PUSH1 0x20 DUP3 PUSH1 0x5 SHL DUP6 ADD ADD GT ISZERO PUSH2 0x4F8A JUMPI PUSH1 0x0 DUP1 REVERT JUMPDEST SWAP3 POP SWAP3 SWAP1 POP JUMP JUMPDEST PUSH1 0x0 PUSH1 0x20 DUP3 DUP5 SUB SLT ISZERO PUSH2 0x4FA2 JUMPI DUP1 DUP2 REVERT JUMPDEST DUP2 CALLDATALOAD PUSH2 0x2969 DUP2 PUSH2 0x5B28 JUMP JUMPDEST PUSH1 0x0 PUSH1 0x20 DUP3 DUP5 SUB SLT ISZERO PUSH2 0x4FBE JUMPI DUP1 DUP2 REVERT JUMPDEST DUP2 MLOAD PUSH2 0x2969 DUP2 PUSH2 0x5B28 JUMP JUMPDEST PUSH1 0x0 DUP1 PUSH1 0x40 DUP4 DUP6 SUB SLT ISZERO PUSH2 0x4FDB JUMPI DUP1 DUP2 REVERT JUMPDEST DUP3 CALLDATALOAD PUSH2 0x4FE6 DUP2 PUSH2 0x5B28 JUMP JUMPDEST SWAP2 POP PUSH1 0x20 DUP4 ADD CALLDATALOAD PUSH2 0x4FF6 DUP2 PUSH2 0x5B28 JUMP JUMPDEST DUP1 SWAP2 POP POP SWAP3 POP SWAP3 SWAP1 POP JUMP JUMPDEST PUSH1 0x0 DUP1 PUSH1 0x0 PUSH1 0x60 DUP5 DUP7 SUB SLT ISZERO PUSH2 0x5015 JUMPI DUP1 DUP2 REVERT JUMPDEST DUP4 CALLDATALOAD PUSH2 0x5020 DUP2 PUSH2 0x5B28 JUMP JUMPDEST SWAP3 POP PUSH1 0x20 DUP5 ADD CALLDATALOAD PUSH2 0x5030 DUP2 PUSH2 0x5B28 JUMP JUMPDEST SWAP3 SWAP6 SWAP3 SWAP5 POP POP POP PUSH1 0x40 SWAP2 SWAP1 SWAP2 ADD CALLDATALOAD SWAP1 JUMP JUMPDEST PUSH1 0x0 DUP1 PUSH1 0x0 DUP1 PUSH1 0x80 DUP6 DUP8 SUB SLT ISZERO PUSH2 0x5056 JUMPI DUP1 DUP2 REVERT JUMPDEST DUP5 CALLDATALOAD PUSH2 0x5061 DUP2 PUSH2 0x5B28 JUMP JUMPDEST SWAP4 POP PUSH1 0x20 DUP6 ADD CALLDATALOAD PUSH2 0x5071 DUP2 PUSH2 0x5B28 JUMP JUMPDEST SWAP3 POP PUSH1 0x40 DUP6 ADD CALLDATALOAD SWAP2 POP PUSH1 0x60 DUP6 ADD CALLDATALOAD PUSH1 0x1 PUSH1 0x1 PUSH1 0x40 SHL SUB DUP2 GT ISZERO PUSH2 0x5092 JUMPI DUP2 DUP3 REVERT JUMPDEST DUP6 ADD PUSH1 0x1F DUP2 ADD DUP8 SGT PUSH2 0x50A2 JUMPI DUP2 DUP3 REVERT JUMPDEST PUSH2 0x50B1 DUP8 DUP3 CALLDATALOAD PUSH1 0x20 DUP5 ADD PUSH2 0x4ED3 JUMP JUMPDEST SWAP2 POP POP SWAP3 SWAP6 SWAP2 SWAP5 POP SWAP3 POP JUMP JUMPDEST PUSH1 0x0 DUP1 PUSH1 0x0 DUP1 PUSH1 0x80 DUP6 DUP8 SUB SLT ISZERO PUSH2 0x50D2 JUMPI DUP4 DUP5 REVERT JUMPDEST DUP5 CALLDATALOAD PUSH2 0x50DD DUP2 PUSH2 0x5B28 JUMP JUMPDEST SWAP4 POP PUSH1 0x20 DUP6 ADD CALLDATALOAD PUSH2 0x50ED DUP2 PUSH2 0x5B28 JUMP JUMPDEST SWAP4 SWAP7 SWAP4 SWAP6 POP POP POP POP PUSH1 0x40 DUP3 ADD CALLDATALOAD SWAP2 PUSH1 0x60 ADD CALLDATALOAD SWAP1 JUMP JUMPDEST PUSH1 0x0 DUP1 PUSH1 0x0 DUP1 PUSH1 0x0 PUSH1 0xA0 DUP7 DUP9 SUB SLT ISZERO PUSH2 0x5119 JUMPI DUP1 DUP2 REVERT JUMPDEST DUP6 CALLDATALOAD PUSH2 0x5124 DUP2 PUSH2 0x5B28 JUMP JUMPDEST SWAP5 POP PUSH1 0x20 DUP7 ADD CALLDATALOAD PUSH2 0x5134 DUP2 PUSH2 0x5B28 JUMP JUMPDEST SWAP5 SWAP8 SWAP5 SWAP7 POP POP POP POP PUSH1 0x40 DUP4 ADD CALLDATALOAD SWAP3 PUSH1 0x60 DUP2 ADD CALLDATALOAD SWAP3 PUSH1 0x80 SWAP1 SWAP2 ADD CALLDATALOAD SWAP2 POP JUMP JUMPDEST PUSH1 0x0 DUP1 PUSH1 0x40 DUP4 DUP6 SUB SLT ISZERO PUSH2 0x5164 JUMPI DUP2 DUP3 REVERT JUMPDEST DUP3 CALLDATALOAD PUSH2 0x516F DUP2 PUSH2 0x5B28 JUMP JUMPDEST SWAP2 POP PUSH1 0x20 DUP4 ADD CALLDATALOAD PUSH2 0x4FF6 DUP2 PUSH2 0x5B3D JUMP JUMPDEST PUSH1 0x0 DUP1 PUSH1 0x40 DUP4 DUP6 SUB SLT ISZERO PUSH2 0x5191 JUMPI DUP2 DUP3 REVERT JUMPDEST DUP3 CALLDATALOAD PUSH2 0x519C DUP2 PUSH2 0x5B28 JUMP JUMPDEST SWAP5 PUSH1 0x20 SWAP4 SWAP1 SWAP4 ADD CALLDATALOAD SWAP4 POP POP POP JUMP JUMPDEST PUSH1 0x0 DUP1 PUSH1 0x0 PUSH1 0x60 DUP5 DUP7 SUB SLT ISZERO PUSH2 0x51BE JUMPI DUP1 DUP2 REVERT JUMPDEST DUP4 CALLDATALOAD PUSH2 0x51C9 DUP2 PUSH2 0x5B28 JUMP JUMPDEST SWAP6 PUSH1 0x20 DUP6 ADD CALLDATALOAD SWAP6 POP PUSH1 0x40 SWAP1 SWAP5 ADD CALLDATALOAD SWAP4 SWAP3 POP POP POP JUMP JUMPDEST PUSH1 0x0 DUP1 PUSH1 0x20 DUP4 DUP6 SUB SLT ISZERO PUSH2 0x51F0 JUMPI DUP2 DUP3 REVERT JUMPDEST DUP3 CALLDATALOAD PUSH1 0x1 PUSH1 0x1 PUSH1 0x40 SHL SUB DUP2 GT ISZERO PUSH2 0x5205 JUMPI DUP3 DUP4 REVERT JUMPDEST PUSH2 0x5211 DUP6 DUP3 DUP7 ADD PUSH2 0x4F48 JUMP JUMPDEST SWAP1 SWAP7 SWAP1 SWAP6 POP SWAP4 POP POP POP POP JUMP JUMPDEST PUSH1 0x0 DUP1 PUSH1 0x0 PUSH1 0x40 DUP5 DUP7 SUB SLT ISZERO PUSH2 0x5231 JUMPI DUP1 DUP2 REVERT JUMPDEST DUP4 CALLDATALOAD PUSH1 0x1 PUSH1 0x1 PUSH1 0x40 SHL SUB DUP2 GT ISZERO PUSH2 0x5246 JUMPI DUP2 DUP3 REVERT JUMPDEST PUSH2 0x5252 DUP7 DUP3 DUP8 ADD PUSH2 0x4F48 JUMP JUMPDEST SWAP1 SWAP8 SWAP1 SWAP7 POP PUSH1 0x20 SWAP6 SWAP1 SWAP6 ADD CALLDATALOAD SWAP5 SWAP4 POP POP POP POP JUMP JUMPDEST PUSH1 0x0 PUSH1 0x20 DUP3 DUP5 SUB SLT ISZERO PUSH2 0x5277 JUMPI DUP1 DUP2 REVERT JUMPDEST DUP2 CALLDATALOAD PUSH2 0x2969 DUP2 PUSH2 0x5B3D JUMP JUMPDEST PUSH1 0x0 PUSH1 0x20 DUP3 DUP5 SUB SLT ISZERO PUSH2 0x5293 JUMPI DUP1 DUP2 REVERT JUMPDEST DUP2 MLOAD PUSH2 0x2969 DUP2 PUSH2 0x5B3D JUMP JUMPDEST PUSH1 0x0 PUSH1 0x20 DUP3 DUP5 SUB SLT ISZERO PUSH2 0x52AF JUMPI DUP1 DUP2 REVERT JUMPDEST POP CALLDATALOAD SWAP2 SWAP1 POP JUMP JUMPDEST PUSH1 0x0 DUP1 PUSH1 0x40 DUP4 DUP6 SUB SLT ISZERO PUSH2 0x52C8 JUMPI DUP2 DUP3 REVERT JUMPDEST DUP3 CALLDATALOAD SWAP2 POP PUSH1 0x20 DUP4 ADD CALLDATALOAD PUSH2 0x4FF6 DUP2 PUSH2 0x5B28 JUMP JUMPDEST PUSH1 0x0 PUSH1 0x20 DUP3 DUP5 SUB SLT ISZERO PUSH2 0x52EB JUMPI DUP1 DUP2 REVERT JUMPDEST DUP2 CALLDATALOAD PUSH2 0x2969 DUP2 PUSH2 0x5B4B JUMP JUMPDEST PUSH1 0x0 PUSH1 0x20 DUP3 DUP5 SUB SLT ISZERO PUSH2 0x5307 JUMPI DUP1 DUP2 REVERT JUMPDEST DUP2 MLOAD PUSH2 0x2969 DUP2 PUSH2 0x5B4B JUMP JUMPDEST PUSH1 0x0 PUSH1 0x20 DUP3 DUP5 SUB SLT ISZERO PUSH2 0x5323 JUMPI DUP1 DUP2 REVERT JUMPDEST POP MLOAD SWAP2 SWAP1 POP JUMP JUMPDEST PUSH1 0x0 DUP1 PUSH1 0x0 DUP1 PUSH1 0x80 DUP6 DUP8 SUB SLT ISZERO PUSH2 0x533F JUMPI DUP2 DUP3 REVERT JUMPDEST DUP5 CALLDATALOAD SWAP4 POP PUSH1 0x20 DUP6 ADD CALLDATALOAD PUSH2 0x5351 DUP2 PUSH2 0x5B28 JUMP JUMPDEST SWAP3 POP PUSH1 0x40 DUP6 ADD CALLDATALOAD PUSH1 0x1 PUSH1 0x1 PUSH1 0x40 SHL SUB DUP2 GT ISZERO PUSH2 0x536B JUMPI DUP3 DUP4 REVERT JUMPDEST DUP6 ADD PUSH1 0x1F DUP2 ADD DUP8 SGT PUSH2 0x537B JUMPI DUP3 DUP4 REVERT JUMPDEST PUSH2 0x538A DUP8 DUP3 CALLDATALOAD PUSH1 0x20 DUP5 ADD PUSH2 0x4ED3 JUMP JUMPDEST SWAP3 POP POP PUSH1 0x60 DUP6 ADD CALLDATALOAD PUSH1 0x2 DUP2 LT PUSH2 0x539E JUMPI DUP2 DUP3 REVERT JUMPDEST SWAP4 SWAP7 SWAP3 SWAP6 POP SWAP1 SWAP4 POP POP JUMP JUMPDEST PUSH1 0x0 DUP1 PUSH1 0x0 PUSH1 0x40 DUP5 DUP7 SUB SLT ISZERO PUSH2 0x53BD JUMPI DUP1 DUP2 REVERT JUMPDEST DUP4 CALLDATALOAD SWAP3 POP PUSH1 0x20 DUP5 ADD CALLDATALOAD PUSH1 0x1 PUSH1 0x1 PUSH1 0x40 SHL SUB DUP2 GT ISZERO PUSH2 0x53D9 JUMPI DUP2 DUP3 REVERT JUMPDEST PUSH2 0x53E5 DUP7 DUP3 DUP8 ADD PUSH2 0x4F48 JUMP JUMPDEST SWAP5 SWAP8 SWAP1 SWAP7 POP SWAP4 SWAP5 POP POP POP POP JUMP JUMPDEST PUSH1 0x0 DUP1 PUSH1 0x40 DUP4 DUP6 SUB SLT ISZERO PUSH2 0x5404 JUMPI DUP2 DUP3 REVERT JUMPDEST POP POP DUP1 CALLDATALOAD SWAP3 PUSH1 0x20 SWAP1 SWAP2 ADD CALLDATALOAD SWAP2 POP JUMP JUMPDEST PUSH1 0x0 DUP1 PUSH1 0x0 PUSH1 0x60 DUP5 DUP7 SUB SLT ISZERO PUSH2 0x5427 JUMPI DUP1 DUP2 REVERT JUMPDEST DUP4 MLOAD SWAP3 POP PUSH1 0x20 DUP5 ADD MLOAD SWAP2 POP PUSH1 0x40 DUP5 ADD MLOAD SWAP1 POP SWAP3 POP SWAP3 POP SWAP3 JUMP JUMPDEST PUSH1 0x0 DUP1 PUSH1 0x0 DUP1 PUSH1 0x80 DUP6 DUP8 SUB SLT ISZERO PUSH2 0x5455 JUMPI DUP2 DUP3 REVERT JUMPDEST DUP5 CALLDATALOAD SWAP4 POP PUSH1 0x20 DUP6 ADD CALLDATALOAD SWAP3 POP PUSH1 0x40 DUP6 ADD CALLDATALOAD SWAP2 POP PUSH1 0x60 DUP6 ADD CALLDATALOAD PUSH1 0x3 DUP2 LT PUSH2 0x539E JUMPI DUP2 DUP3 REVERT JUMPDEST PUSH1 0x0 PUSH1 0x20 DUP3 DUP5 SUB SLT ISZERO PUSH2 0x5489 JUMPI DUP1 DUP2 REVERT JUMPDEST DUP2 MLOAD PUSH1 0xFF DUP2 AND DUP2 EQ PUSH2 0x2969 JUMPI DUP2 DUP3 REVERT JUMPDEST PUSH1 0x0 DUP2 MLOAD DUP1 DUP5 MSTORE PUSH2 0x54B1 DUP2 PUSH1 0x20 DUP7 ADD PUSH1 0x20 DUP7 ADD PUSH2 0x5A29 JUMP JUMPDEST PUSH1 0x1F ADD PUSH1 0x1F NOT AND SWAP3 SWAP1 SWAP3 ADD PUSH1 0x20 ADD SWAP3 SWAP2 POP POP JUMP JUMPDEST PUSH1 0x3 DUP2 LT PUSH2 0x54D5 JUMPI PUSH2 0x54D5 PUSH2 0x5AFC JUMP JUMPDEST SWAP1 MSTORE JUMP JUMPDEST PUSH1 0x0 DUP4 MLOAD PUSH2 0x54EB DUP2 DUP5 PUSH1 0x20 DUP9 ADD PUSH2 0x5A29 JUMP JUMPDEST DUP4 MLOAD SWAP1 DUP4 ADD SWAP1 PUSH2 0x54FF DUP2 DUP4 PUSH1 0x20 DUP9 ADD PUSH2 0x5A29 JUMP JUMPDEST ADD SWAP5 SWAP4 POP POP POP POP JUMP JUMPDEST PUSH23 0x20B1B1B2B9B9A1B7B73A3937B61D1030B1B1B7BAB73A1 PUSH1 0x4D SHL DUP2 MSTORE PUSH1 0x0 DUP4 MLOAD PUSH2 0x553A DUP2 PUSH1 0x17 DUP6 ADD PUSH1 0x20 DUP9 ADD PUSH2 0x5A29 JUMP JUMPDEST PUSH17 0x1034B99036B4B9B9B4B733903937B6329 PUSH1 0x7D SHL PUSH1 0x17 SWAP2 DUP5 ADD SWAP2 DUP3 ADD MSTORE DUP4 MLOAD PUSH2 0x556B DUP2 PUSH1 0x28 DUP5 ADD PUSH1 0x20 DUP9 ADD PUSH2 0x5A29 JUMP JUMPDEST ADD PUSH1 0x28 ADD SWAP5 SWAP4 POP POP POP POP JUMP JUMPDEST PUSH1 0x1 PUSH1 0x1 PUSH1 0xA0 SHL SUB SWAP2 SWAP1 SWAP2 AND DUP2 MSTORE PUSH1 0x20 ADD SWAP1 JUMP JUMPDEST PUSH1 0x1 PUSH1 0x1 PUSH1 0xA0 SHL SUB SWAP4 DUP5 AND DUP2 MSTORE SWAP2 SWAP1 SWAP3 AND PUSH1 0x20 DUP3 ADD MSTORE PUSH1 0x40 DUP2 ADD SWAP2 SWAP1 SWAP2 MSTORE PUSH1 0x60 ADD SWAP1 JUMP JUMPDEST PUSH1 0x1 PUSH1 0x1 PUSH1 0xA0 SHL SUB DUP6 DUP2 AND DUP3 MSTORE DUP5 AND PUSH1 0x20 DUP3 ADD MSTORE PUSH1 0x40 DUP2 ADD DUP4 SWAP1 MSTORE PUSH1 0x80 PUSH1 0x60 DUP3 ADD DUP2 SWAP1 MSTORE PUSH1 0x0 SWAP1 PUSH2 0x3F86 SWAP1 DUP4 ADD DUP5 PUSH2 0x5499 JUMP JUMPDEST PUSH1 0x1 PUSH1 0x1 PUSH1 0xA0 SHL SUB SWAP3 SWAP1 SWAP3 AND DUP3 MSTORE PUSH1 0x20 DUP3 ADD MSTORE PUSH1 0x40 ADD SWAP1 JUMP JUMPDEST PUSH1 0x20 DUP1 DUP3 MSTORE DUP3 MLOAD DUP3 DUP3 ADD DUP2 SWAP1 MSTORE PUSH1 0x0 SWAP2 SWAP1 DUP5 DUP3 ADD SWAP1 PUSH1 0x40 DUP6 ADD SWAP1 DUP5 JUMPDEST DUP2 DUP2 LT ISZERO PUSH2 0x5633 JUMPI DUP4 MLOAD DUP4 MSTORE SWAP3 DUP5 ADD SWAP3 SWAP2 DUP5 ADD SWAP2 PUSH1 0x1 ADD PUSH2 0x5617 JUMP JUMPDEST POP SWAP1 SWAP7 SWAP6 POP POP POP POP POP POP JUMP JUMPDEST PUSH1 0x20 DUP2 ADD PUSH2 0x854 DUP3 DUP5 PUSH2 0x54C5 JUMP JUMPDEST PUSH1 0xE0 DUP2 ADD PUSH1 0x4 DUP10 LT PUSH2 0x5661 JUMPI PUSH2 0x5661 PUSH2 0x5AFC JUMP JUMPDEST DUP9 DUP3 MSTORE DUP8 PUSH1 0x20 DUP4 ADD MSTORE DUP7 PUSH1 0x40 DUP4 ADD MSTORE DUP6 PUSH1 0x60 DUP4 ADD MSTORE DUP5 PUSH1 0x80 DUP4 ADD MSTORE DUP4 PUSH1 0xA0 DUP4 ADD MSTORE PUSH2 0x568F PUSH1 0xC0 DUP4 ADD DUP5 PUSH2 0x54C5 JUMP JUMPDEST SWAP9 SWAP8 POP POP POP POP POP POP POP POP JUMP JUMPDEST SWAP2 DUP3 MSTORE PUSH1 0x20 DUP3 ADD MSTORE PUSH1 0x40 ADD SWAP1 JUMP JUMPDEST PUSH1 0x20 DUP2 MSTORE PUSH1 0x0 PUSH2 0x2969 PUSH1 0x20 DUP4 ADD DUP5 PUSH2 0x5499 JUMP JUMPDEST PUSH1 0x20 DUP1 DUP3 MSTORE PUSH1 0x2 SWAP1 DUP3 ADD MSTORE PUSH2 0x4F39 PUSH1 0xF0 SHL PUSH1 0x40 DUP3 ADD MSTORE PUSH1 0x60 ADD SWAP1 JUMP JUMPDEST PUSH1 0x20 DUP1 DUP3 MSTORE PUSH1 0x32 SWAP1 DUP3 ADD MSTORE PUSH32 0x4552433732313A207472616E7366657220746F206E6F6E204552433732315265 PUSH1 0x40 DUP3 ADD MSTORE PUSH18 0x31B2B4BB32B91034B6B83632B6B2B73A32B9 PUSH1 0x71 SHL PUSH1 0x60 DUP3 ADD MSTORE PUSH1 0x80 ADD SWAP1 JUMP JUMPDEST PUSH1 0x20 DUP1 DUP3 MSTORE PUSH1 0x2 SWAP1 DUP3 ADD MSTORE PUSH2 0x4F33 PUSH1 0xF0 SHL PUSH1 0x40 DUP3 ADD MSTORE PUSH1 0x60 ADD SWAP1 JUMP JUMPDEST PUSH1 0x20 DUP1 DUP3 MSTORE PUSH1 0x2 SWAP1 DUP3 ADD MSTORE PUSH2 0x4E37 PUSH1 0xF0 SHL PUSH1 0x40 DUP3 ADD MSTORE PUSH1 0x60 ADD SWAP1 JUMP JUMPDEST PUSH1 0x20 DUP1 DUP3 MSTORE DUP2 DUP2 ADD MSTORE PUSH32 0x4F776E61626C653A2063616C6C6572206973206E6F7420746865206F776E6572 PUSH1 0x40 DUP3 ADD MSTORE PUSH1 0x60 ADD SWAP1 JUMP JUMPDEST PUSH1 0x20 DUP1 DUP3 MSTORE PUSH1 0x31 SWAP1 DUP3 ADD MSTORE PUSH32 0x4552433732313A207472616E736665722063616C6C6572206973206E6F74206F PUSH1 0x40 DUP3 ADD MSTORE PUSH17 0x1DDB995C881B9BDC88185C1C1C9BDD9959 PUSH1 0x7A SHL PUSH1 0x60 DUP3 ADD MSTORE PUSH1 0x80 ADD SWAP1 JUMP JUMPDEST PUSH1 0x20 DUP1 DUP3 MSTORE PUSH1 0x2 SWAP1 DUP3 ADD MSTORE PUSH2 0x4F31 PUSH1 0xF0 SHL PUSH1 0x40 DUP3 ADD MSTORE PUSH1 0x60 ADD SWAP1 JUMP JUMPDEST DUP5 DUP2 MSTORE PUSH1 0x20 DUP2 ADD DUP5 SWAP1 MSTORE PUSH1 0x80 DUP2 ADD PUSH2 0x581F PUSH1 0x40 DUP4 ADD DUP6 PUSH2 0x54C5 JUMP JUMPDEST DUP3 ISZERO ISZERO PUSH1 0x60 DUP4 ADD MSTORE SWAP6 SWAP5 POP POP POP POP POP JUMP JUMPDEST DUP5 DUP2 MSTORE PUSH1 0x20 DUP2 ADD DUP5 SWAP1 MSTORE PUSH1 0x80 DUP2 ADD PUSH2 0x584B PUSH1 0x40 DUP4 ADD DUP6 PUSH2 0x54C5 JUMP JUMPDEST DUP3 PUSH1 0x60 DUP4 ADD MSTORE SWAP6 SWAP5 POP POP POP POP POP JUMP JUMPDEST DUP4 DUP2 MSTORE DUP3 PUSH1 0x20 DUP3 ADD MSTORE PUSH1 0x60 PUSH1 0x40 DUP3 ADD MSTORE PUSH1 0x0 PUSH2 0x3AE6 PUSH1 0x60 DUP4 ADD DUP5 PUSH2 0x5499 JUMP JUMPDEST SWAP3 DUP4 MSTORE PUSH1 0x20 DUP4 ADD SWAP2 SWAP1 SWAP2 MSTORE PUSH1 0x40 DUP3 ADD MSTORE PUSH1 0x60 ADD SWAP1 JUMP JUMPDEST DUP8 DUP2 MSTORE PUSH1 0x20 DUP2 ADD DUP8 SWAP1 MSTORE PUSH1 0x40 DUP2 ADD DUP7 SWAP1 MSTORE PUSH1 0xE0 DUP2 ADD PUSH2 0x58B1 PUSH1 0x60 DUP4 ADD DUP8 PUSH2 0x54C5 JUMP JUMPDEST PUSH1 0x80 DUP3 ADD SWAP5 SWAP1 SWAP5 MSTORE PUSH1 0x1 PUSH1 0x1 PUSH1 0xA0 SHL SUB SWAP3 DUP4 AND PUSH1 0xA0 DUP3 ADD MSTORE SWAP2 AND PUSH1 0xC0 SWAP1 SWAP2 ADD MSTORE SWAP5 SWAP4 POP POP POP POP JUMP JUMPDEST PUSH1 0x0 DUP3 NOT DUP3 GT ISZERO PUSH2 0x58EC JUMPI PUSH2 0x58EC PUSH2 0x5AD0 JUMP JUMPDEST POP ADD SWAP1 JUMP JUMPDEST PUSH1 0x0 DUP3 PUSH2 0x5900 JUMPI PUSH2 0x5900 PUSH2 0x5AE6 JUMP JUMPDEST POP DIV SWAP1 JUMP JUMPDEST PUSH1 0x1 DUP2 DUP2 JUMPDEST DUP1 DUP6 GT ISZERO PUSH2 0x5940 JUMPI DUP2 PUSH1 0x0 NOT DIV DUP3 GT ISZERO PUSH2 0x5926 JUMPI PUSH2 0x5926 PUSH2 0x5AD0 JUMP JUMPDEST DUP1 DUP6 AND ISZERO PUSH2 0x5933 JUMPI SWAP2 DUP2 MUL SWAP2 JUMPDEST SWAP4 DUP5 SHR SWAP4 SWAP1 DUP1 MUL SWAP1 PUSH2 0x590A JUMP JUMPDEST POP SWAP3 POP SWAP3 SWAP1 POP JUMP JUMPDEST PUSH1 0x0 PUSH2 0x2969 PUSH1 0xFF DUP5 AND DUP4 PUSH1 0x0 DUP3 PUSH2 0x5961 JUMPI POP PUSH1 0x1 PUSH2 0x854 JUMP JUMPDEST DUP2 PUSH2 0x596E JUMPI POP PUSH1 0x0 PUSH2 0x854 JUMP JUMPDEST DUP2 PUSH1 0x1 DUP2 EQ PUSH2 0x5984 JUMPI PUSH1 0x2 DUP2 EQ PUSH2 0x598E JUMPI PUSH2 0x59AA JUMP JUMPDEST PUSH1 0x1 SWAP2 POP POP PUSH2 0x854 JUMP JUMPDEST PUSH1 0xFF DUP5 GT ISZERO PUSH2 0x599F JUMPI PUSH2 0x599F PUSH2 0x5AD0 JUMP JUMPDEST POP POP PUSH1 0x1 DUP3 SHL PUSH2 0x854 JUMP JUMPDEST POP PUSH1 0x20 DUP4 LT PUSH2 0x133 DUP4 LT AND PUSH1 0x4E DUP5 LT PUSH1 0xB DUP5 LT AND OR ISZERO PUSH2 0x59CD JUMPI POP DUP2 DUP2 EXP PUSH2 0x854 JUMP JUMPDEST PUSH2 0x59D7 DUP4 DUP4 PUSH2 0x5905 JUMP JUMPDEST DUP1 PUSH1 0x0 NOT DIV DUP3 GT ISZERO PUSH2 0x59EB JUMPI PUSH2 0x59EB PUSH2 0x5AD0 JUMP JUMPDEST MUL SWAP4 SWAP3 POP POP POP JUMP JUMPDEST PUSH1 0x0 DUP2 PUSH1 0x0 NOT DIV DUP4 GT DUP3 ISZERO ISZERO AND ISZERO PUSH2 0x5A0D JUMPI PUSH2 0x5A0D PUSH2 0x5AD0 JUMP JUMPDEST POP MUL SWAP1 JUMP JUMPDEST PUSH1 0x0 DUP3 DUP3 LT ISZERO PUSH2 0x5A24 JUMPI PUSH2 0x5A24 PUSH2 0x5AD0 JUMP JUMPDEST POP SUB SWAP1 JUMP JUMPDEST PUSH1 0x0 JUMPDEST DUP4 DUP2 LT ISZERO PUSH2 0x5A44 JUMPI DUP2 DUP2 ADD MLOAD DUP4 DUP3 ADD MSTORE PUSH1 0x20 ADD PUSH2 0x5A2C JUMP JUMPDEST DUP4 DUP2 GT ISZERO PUSH2 0x25DC JUMPI POP POP PUSH1 0x0 SWAP2 ADD MSTORE JUMP JUMPDEST PUSH1 0x0 DUP2 PUSH2 0x5A64 JUMPI PUSH2 0x5A64 PUSH2 0x5AD0 JUMP JUMPDEST POP PUSH1 0x0 NOT ADD SWAP1 JUMP JUMPDEST PUSH1 0x1 DUP2 DUP2 SHR SWAP1 DUP3 AND DUP1 PUSH2 0x5A80 JUMPI PUSH1 0x7F DUP3 AND SWAP2 POP JUMPDEST PUSH1 0x20 DUP3 LT DUP2 EQ ISZERO PUSH2 0x92B JUMPI PUSH4 0x4E487B71 PUSH1 0xE0 SHL PUSH1 0x0 MSTORE PUSH1 0x22 PUSH1 0x4 MSTORE PUSH1 0x24 PUSH1 0x0 REVERT JUMPDEST PUSH1 0x0 PUSH1 0x0 NOT DUP3 EQ ISZERO PUSH2 0x5AB5 JUMPI PUSH2 0x5AB5 PUSH2 0x5AD0 JUMP JUMPDEST POP PUSH1 0x1 ADD SWAP1 JUMP JUMPDEST PUSH1 0x0 DUP3 PUSH2 0x5ACB JUMPI PUSH2 0x5ACB PUSH2 0x5AE6 JUMP JUMPDEST POP MOD SWAP1 JUMP JUMPDEST PUSH4 0x4E487B71 PUSH1 0xE0 SHL PUSH1 0x0 MSTORE PUSH1 0x11 PUSH1 0x4 MSTORE PUSH1 0x24 PUSH1 0x0 REVERT JUMPDEST PUSH4 0x4E487B71 PUSH1 0xE0 SHL PUSH1 0x0 MSTORE PUSH1 0x12 PUSH1 0x4 MSTORE PUSH1 0x24 PUSH1 0x0 REVERT JUMPDEST PUSH4 0x4E487B71 PUSH1 0xE0 SHL PUSH1 0x0 MSTORE PUSH1 0x21 PUSH1 0x4 MSTORE PUSH1 0x24 PUSH1 0x0 REVERT JUMPDEST PUSH4 0x4E487B71 PUSH1 0xE0 SHL PUSH1 0x0 MSTORE PUSH1 0x41 PUSH1 0x4 MSTORE PUSH1 0x24 PUSH1 0x0 REVERT JUMPDEST PUSH1 0x1 PUSH1 0x1 PUSH1 0xA0 SHL SUB DUP2 AND DUP2 EQ PUSH2 0x174B JUMPI PUSH1 0x0 DUP1 REVERT JUMPDEST DUP1 ISZERO ISZERO DUP2 EQ PUSH2 0x174B JUMPI PUSH1 0x0 DUP1 REVERT JUMPDEST PUSH1 0x1 PUSH1 0x1 PUSH1 0xE0 SHL SUB NOT DUP2 AND DUP2 EQ PUSH2 0x174B JUMPI PUSH1 0x0 DUP1 REVERT INVALID PUSH9 0x747470733A2F2F6761 PUSH21 0x657761792E70696E6174612E636C6F75642F697066 PUSH20 0x2F68D3D9B231E6283ECC485A9FB1E1D0A8C3FEAA SWAP9 PUSH29 0x41CDB49C30FAD64E5AF997DDF252AD1BE2C89B69C2B068FC378DAA952B 0xA7 CALL PUSH4 0xC4A11628 CREATE2 GAS 0x4D CREATE2 0x23 0xB3 0xEF 0xDE 0xB3 0xB4 SWAP6 SELFBALANCE 0xF7 LT 0xC5 PUSH11 0x925B6E16E3557A50FAB4DD DUP16 0x24 EXTCODESIZE 0xC3 EQ RETURN 0xAF 0xBA KECCAK256 SLOAD 0xEC JUMPDEST DUP3 GASPRICE CALLVALUE RETURNDATASIZE SHR DUP10 SWAP15 PUSH2 0xA4DB SLT 0x24 PUSH23 0x36A6882BF1FEFAE78BEF39170F8D0F5B53E456A2646970 PUSH7 0x73582212204732 0xB8 0xF 0xFB 0xCC ADD SUB 0xE 0xE5 0xEC 0xBB 0x27 0x28 0xCA NOT 0x49 REVERT 0xE8 DELEGATECALL 0xAF CHAINID STATICCALL DUP10 SAR 0xB6 SWAP7 EQ PUSH27 0x3221D864736F6C6343000804003300000000000000000000000000 ",
  "sha1": "d0d6d27d184c05f1c4a10b36671542551ec1c119",
  "source": "pragma solidity ^0.8.0;\n\n// SPDX-License-Identifier: BUSL-1.1\n\nimport \"@openzeppelin/contracts/access/Ownable.sol\";\nimport \"@openzeppelin/contracts/security/ReentrancyGuard.sol\";\nimport \"@openzeppelin/contracts/token/ERC20/ERC20.sol\";\nimport \"./OptionConfig.sol\";\nimport \"./BufferNFTCore.sol\";\nimport \"../Pool/BufferIBFRPoolV2.sol\";\nimport \"../Libraries/OptionFeeCalculator.sol\";\n\n/**\n * @author Heisenberg\n * @title Buffer TokenX Bidirectional (Call and Put) Options\n * @notice Buffer TokenX Options Contract\n */\ncontract BufferUSDCTokenXOptions is\n    IBufferOptions,\n    Ownable,\n    ReentrancyGuard,\n    BufferNFTCore\n{\n    ERC20 public USDC;\n    ERC20 public immutable tokenX;\n    mapping(uint256 => string) private _tokenURIs;\n    IPriceProvider public priceProvider;\n    OptionType public fixedOptionType = OptionType.Call;\n    uint256 public nextTokenId = 0;\n    address public settlementFeeRecipient;\n    mapping(uint256 => Option) public options;\n    BufferIBFRPoolV2 public pool;\n    OptionConfig public config;\n    mapping(uint256 => SlotDetail) public slotDetails;\n    // Mapping from owner to exerciser approvals\n    mapping(address => bool) public autoExerciseStatus;\n    mapping(address => bool) public hasUserBoughtFirstOption;\n\n    uint256 internal contractCreationTimestamp;\n\n    bytes32 public constant AUTO_CLOSER_ROLE = keccak256(\"AUTO_CLOSER_ROLE\");\n\n    uint256 public constant minimumYield = 5;\n\n    constructor(\n        ERC20 _tokenX,\n        IPriceProvider pp,\n        BufferIBFRPoolV2 _pool,\n        OptionConfig _config,\n        ERC20 _USDC\n    ) {\n        tokenX = _tokenX;\n        pool = _pool;\n        contractCreationTimestamp = block.timestamp;\n        config = _config;\n        USDC = _USDC;\n        priceProvider = pp;\n        _setupRole(DEFAULT_ADMIN_ROLE, msg.sender);\n    }\n\n    /**\n     * @notice Call this to set the max approval for tokenX transfers from the options to pool\n     */\n    function approvePoolToTransferTokenX() public {\n        tokenX.approve(address(pool), ~uint256(0));\n    }\n\n    /************************************************\n     *  OPTIONS CORE\n     ***********************************************/\n    /**\n     * @notice Creates a new option\n     * @param amount Option amount in tokenX\n     * @return optionID Created option's ID\n     */\n    function create(\n        uint256 amount,\n        address referrer,\n        string memory metadata,\n        PaymentMethod _paymentMethod\n    ) external nonReentrant returns (uint256 optionID) {\n        require(pool.fixedExpiry() > block.timestamp, \"O1\");\n        uint256 period = pool.fixedExpiry() - block.timestamp;\n\n        uint256 currentPrice = priceProvider.getUsdPrice();\n\n        require(period >= 12 hours, \"O1\");\n\n        (uint256 totalFee, uint256 settlementFee, uint256 premium) = fees(\n            period,\n            amount,\n            config.fixedStrike(),\n            fixedOptionType\n        );\n\n        require(\n            totalFee * 365 days * 100 > amount * period * minimumYield,\n            \"O2\"\n        );\n\n        // User has to approve first inorder to execute this function\n        if (_paymentMethod == PaymentMethod.TokenX) {\n            bool success = tokenX.transferFrom(\n                msg.sender,\n                address(this),\n                totalFee\n            );\n            require(success, \"O3\");\n        } else {\n            require(tokenX.balanceOf(address(this)) >= totalFee, \"O15\");\n\n            bool success = USDC.transferFrom(\n                msg.sender,\n                pool.projectOwner(),\n                (((totalFee * 10**USDC.decimals()) / 10**tokenX.decimals()) *\n                    currentPrice) / 1e8\n            );\n            require(success, \"O3\");\n        }\n\n        Option memory option = Option(\n            State.Active,\n            config.fixedStrike(),\n            amount,\n            (amount * config.optionCollateralizationRatio()) / 100,\n            premium,\n            block.timestamp + period,\n            fixedOptionType\n        );\n        optionID = _generateTokenId();\n        _setOption(optionID, option);\n        _mint(\n            optionID,\n            msg.sender,\n            createSlot(\n                optionID,\n                option.strike,\n                option.expiration,\n                fixedOptionType\n            )\n        );\n        _setTokenURI(optionID, metadata);\n        uint256 stakingAmount = distributeSettlementFee(\n            settlementFee,\n            referrer\n        );\n\n        _lock(optionID, option.lockedAmount, option.premium);\n\n        // Set User's Auto Close Status to True by default\n        // Check if this is the user's first option from this contract\n        if (!hasUserBoughtFirstOption[msg.sender]) {\n            // if yes then set the auto close for the user to True\n            if (!autoExerciseStatus[msg.sender]) {\n                autoExerciseStatus[msg.sender] = true;\n                emit AutoExerciseStatusChange(msg.sender, true);\n            }\n            hasUserBoughtFirstOption[msg.sender] = true;\n        }\n\n        emit Create(optionID, msg.sender, stakingAmount, totalFee, metadata);\n    }\n\n    function distributeSettlementFee(uint256 settlementFee, address referrer)\n        internal\n        returns (uint256 stakingAmount)\n    {\n        stakingAmount = ((settlementFee * config.stakingFeePercentage()) / 100);\n\n        // Incase the stakingAmount is 0\n        if (stakingAmount > 0) {\n            tokenX.transfer(config.settlementFeeRecipient(), stakingAmount);\n        }\n\n        uint256 adminFee = settlementFee - stakingAmount;\n        if (adminFee > 0) {\n            if (\n                config.referralRewardPercentage() > 0 &&\n                referrer != owner() &&\n                referrer != msg.sender\n            ) {\n                uint256 referralReward = (adminFee *\n                    config.referralRewardPercentage()) / 100;\n                adminFee = adminFee - referralReward;\n                tokenX.transfer(referrer, referralReward);\n                emit PayReferralFee(referrer, referralReward);\n            }\n            tokenX.transfer(owner(), adminFee);\n            emit PayAdminFee(owner(), adminFee);\n        }\n    }\n\n    function _modifyOption(\n        uint256 optionID,\n        Option memory option,\n        uint256 lockedAmount,\n        uint256 amount,\n        uint256 premium\n    ) internal returns (Option memory modifiedOption) {\n        option.lockedAmount = lockedAmount;\n        option.amount = amount;\n        option.premium = premium;\n        modifiedOption = option;\n        _setOption(optionID, option);\n    }\n\n    function _lock(\n        uint256 id,\n        uint256 lockedAmount,\n        uint256 premium\n    ) internal {\n        pool.lock(id, lockedAmount, premium);\n    }\n\n    /**\n     * @notice Unlock funds locked in the expired options\n     * @param optionID ID of the option\n     */\n    function unlock(uint256 optionID) public {\n        Option storage option = options[optionID];\n        require(option.expiration < block.timestamp, \"O4\");\n        require(option.state == State.Active, \"O5\");\n        option.state = State.Expired;\n        pool.unlock(optionID);\n\n        // Burn the option\n        burnToken(optionID);\n\n        emit Expire(optionID, option.premium);\n    }\n\n    /**\n     * @notice Unlocks an array of options\n     * @param optionIDs array of options\n     */\n    function unlockAll(uint256[] calldata optionIDs) external {\n        uint256 arrayLength = optionIDs.length;\n        for (uint256 i = 0; i < arrayLength; i++) {\n            unlock(optionIDs[i]);\n        }\n    }\n\n    /**\n     * @notice Check if the sender can exercise an active option\n     * @param optionID ID of your option\n     */\n    function canExercise(uint256 optionID) internal view returns (bool) {\n        require(exists(optionID), \"O10\");\n\n        address tokenOwner = ownerOf(optionID);\n        bool isAutoExerciseTrue = autoExerciseStatus[tokenOwner] &&\n            hasRole(AUTO_CLOSER_ROLE, msg.sender);\n\n        Option storage option = options[optionID];\n        bool isWithinLastHalfHourOfExpiry = block.timestamp >\n            (option.expiration - 30 minutes);\n\n        return\n            (tokenOwner == msg.sender) ||\n            (isAutoExerciseTrue && isWithinLastHalfHourOfExpiry);\n    }\n\n    /**\n     * @notice Exercises an active option\n     * @param optionID ID of your option\n     */\n    function exercise(uint256 optionID) external returns (uint256 profit) {\n        require(canExercise(optionID), \"O12\");\n\n        Option storage option = options[optionID];\n\n        require(option.expiration >= block.timestamp, \"O13\");\n        require(option.state == State.Active, \"O14\");\n\n        option.state = State.Exercised;\n        uint256 currentPrice = priceProvider.getUsdPrice();\n        if (option.optionType == OptionType.Call) {\n            require(option.strike <= currentPrice, \"O6\");\n            profit =\n                ((currentPrice - option.strike) * option.amount) /\n                currentPrice;\n        } else {\n            require(option.strike >= currentPrice, \"O7\");\n            profit =\n                ((option.strike - currentPrice) * option.amount) /\n                currentPrice;\n        }\n        if (profit > option.lockedAmount) profit = option.lockedAmount;\n        pool.send(optionID, ownerOf(optionID), profit);\n        // Burn the option\n        burnToken(optionID);\n\n        emit Exercise(optionID, profit);\n    }\n\n    /**\n     * Exercise Approval\n     */\n\n    function setAutoExerciseStatus(bool status) public {\n        autoExerciseStatus[msg.sender] = status;\n        emit AutoExerciseStatusChange(msg.sender, status);\n    }\n\n    function withdrawFunds() external onlyOwner {\n        uint256 tokenBalance = tokenX.balanceOf(address(this));\n        if (tokenBalance > 0) {\n            tokenX.transfer(pool.projectOwner(), tokenBalance);\n        }\n    }\n\n    /**\n     * @notice Used for getting the actual options prices\n     * @param period Option period in seconds (1 days <= period <= 4 weeks)\n     * @param amount Option amount\n     * @param strike Strike price of the option\n     * @param optionType call/put\n     * @return total Total price to be paid\n     * @return settlementFee Amount to be distributed to the Buffer token holders\n     * @return premium Amount that covers the price difference in the ITM options\n     */\n    function fees(\n        uint256 period,\n        uint256 amount,\n        uint256 strike,\n        OptionType optionType\n    )\n        public\n        view\n        returns (\n            uint256 total,\n            uint256 settlementFee,\n            uint256 premium\n        )\n    {\n        uint256 currentPrice = priceProvider.getUsdPrice();\n\n        (total, settlementFee, premium) = FeeCalculator.fees(\n            period,\n            amount,\n            strike,\n            optionType,\n            currentPrice,\n            config,\n            pool\n        );\n    }\n\n    function _generateTokenId() internal returns (uint256) {\n        return nextTokenId++;\n    }\n\n    function _getOption(uint256 optionID)\n        internal\n        view\n        returns (Option memory)\n    {\n        return options[optionID];\n    }\n\n    function _setOption(uint256 optionID, Option memory option) internal {\n        options[optionID] = option;\n    }\n\n    function burn(uint256 tokenId_) external {\n        require(msg.sender == ownerOf(tokenId_), \"O9\");\n        burnToken(tokenId_);\n    }\n\n    /************************************************\n     *  ERC3525 Functions\n     ***********************************************/\n\n    function split(uint256 optionID, uint256[] calldata splitUnits_)\n        public\n        returns (uint256[] memory newOptionIDs)\n    {\n        require(splitUnits_.length > 0, \"N1\");\n        newOptionIDs = new uint256[](splitUnits_.length);\n        Option memory option = _getOption(optionID);\n        uint256 totalUnits = unitsInToken(optionID);\n        uint256 totalChildAmount;\n        uint256 totalChildLockedAmount;\n        uint256 totalChildPremium;\n        // Create child options\n        for (uint256 i = 0; i < splitUnits_.length; i++) {\n            uint256 newOptionID = _generateTokenId();\n            newOptionIDs[i] = newOptionID;\n\n            _split(optionID, newOptionID, splitUnits_[i]);\n\n            uint256 childAmount = (option.amount * splitUnits_[i]) / totalUnits;\n            totalChildAmount += childAmount;\n\n            uint256 childLockedAmount = (option.lockedAmount * splitUnits_[i]) /\n                totalUnits;\n            totalChildLockedAmount += childLockedAmount;\n\n            uint256 childPremium = (option.premium * splitUnits_[i]) /\n                totalUnits;\n            totalChildPremium += childPremium;\n\n            Option memory newOption = Option(\n                option.state,\n                option.strike,\n                childAmount,\n                childLockedAmount,\n                childPremium,\n                option.expiration,\n                option.optionType\n            );\n            _setOption(newOptionID, newOption);\n        }\n        // Modify the parent option once all child options are created\n        option = _modifyOption(\n            optionID,\n            option,\n            option.lockedAmount - totalChildLockedAmount,\n            option.amount - totalChildAmount,\n            option.premium - totalChildPremium\n        );\n        pool.changeLock(optionID, option.lockedAmount, option.premium);\n\n        // Lock the amount in the pool for the child options\n        for (uint256 i = 0; i < splitUnits_.length; i++) {\n            Option memory newOption = _getOption(newOptionIDs[i]);\n            _lock(newOptionIDs[i], newOption.lockedAmount, newOption.premium);\n        }\n    }\n\n    function merge(uint256[] calldata optionIDs, uint256 targetOptionID)\n        public\n    {\n        require(optionIDs.length > 0, \"N4\");\n        Option memory targetOption = _getOption(targetOptionID);\n\n        uint256 totalLockedAmount = targetOption.lockedAmount;\n        uint256 totalAmount = targetOption.amount;\n        uint256 totalPremium = targetOption.premium;\n\n        for (uint256 i = 0; i < optionIDs.length; i++) {\n            Option memory option = _getOption(optionIDs[i]);\n            totalLockedAmount = totalLockedAmount + option.lockedAmount;\n            totalAmount = totalAmount + option.amount;\n            totalPremium = totalPremium + option.premium;\n            pool.unlockWithoutProfit(optionIDs[i]);\n            _merge(optionIDs[i], targetOptionID);\n        }\n        _modifyOption(\n            targetOptionID,\n            targetOption,\n            totalLockedAmount,\n            totalAmount,\n            totalPremium\n        );\n        pool.changeLock(targetOptionID, totalLockedAmount, totalPremium);\n    }\n\n    /**\n     * @notice Transfer part of units of a nft to another nft.\n     * @param optionID Id of the nft to transfer\n     * @param transferUnits_ Amount of units to transfer\n     */\n    function _beforeTransferFrom(uint256 optionID, uint256 transferUnits_)\n        internal\n        returns (\n            uint256 newAmount,\n            uint256 newPremium,\n            uint256 newLockedAmount,\n            Option memory option\n        )\n    {\n        option = _getOption(optionID);\n        uint256 totalUnits = unitsInToken(optionID);\n        newAmount = (option.amount * transferUnits_) / totalUnits;\n        newPremium = (option.premium * transferUnits_) / totalUnits;\n        newLockedAmount = (option.lockedAmount * transferUnits_) / totalUnits;\n\n        option = _modifyOption(\n            optionID,\n            option,\n            option.lockedAmount - newLockedAmount,\n            option.amount - newAmount,\n            option.premium - newPremium\n        );\n        pool.changeLock(optionID, option.lockedAmount, option.premium);\n    }\n\n    /**\n     * @notice Transfer part of units of a nft to target address.\n     * @param from_ Address of the nft sender\n     * @param to_ Address of the nft recipient\n     * @param optionID Id of the nft to transfer\n     * @param transferUnits_ Amount of units to transfer\n     */\n    function transferFrom(\n        address from_,\n        address to_,\n        uint256 optionID,\n        uint256 transferUnits_\n    ) public returns (uint256 newOptionID) {\n        newOptionID = _generateTokenId();\n        (\n            uint256 newAmount,\n            uint256 newPremium,\n            uint256 newLockedAmount,\n            Option memory option\n        ) = _beforeTransferFrom(optionID, transferUnits_);\n        Option memory newOption = Option(\n            option.state,\n            option.strike,\n            newAmount,\n            newLockedAmount,\n            newPremium,\n            option.expiration,\n            option.optionType\n        );\n        _setOption(newOptionID, newOption);\n\n        _lock(newOptionID, newLockedAmount, newPremium);\n        _transferUnitsFrom(from_, to_, optionID, newOptionID, transferUnits_);\n    }\n\n    /**\n     * @notice Transfer part of units of a nft to another nft.\n     * @param from_ Address of the nft sender\n     * @param to_ Address of the nft recipient\n     * @param optionID Id of the nft to transfer\n     * @param targetOptionID Id of the nft to receive\n     * @param transferUnits_ Amount of units to transfer\n     */\n    function transferFrom(\n        address from_,\n        address to_,\n        uint256 optionID,\n        uint256 targetOptionID,\n        uint256 transferUnits_\n    ) public virtual {\n        require(exists(targetOptionID), \"N12\");\n        (\n            uint256 newAmount,\n            uint256 newPremium,\n            uint256 newLockedAmount,\n\n        ) = _beforeTransferFrom(optionID, transferUnits_);\n        Option memory targetOption = _getOption(targetOptionID);\n        targetOption = _modifyOption(\n            targetOptionID,\n            targetOption,\n            targetOption.lockedAmount + newLockedAmount,\n            targetOption.amount + newAmount,\n            targetOption.premium + newPremium\n        );\n\n        pool.changeLock(\n            targetOptionID,\n            targetOption.lockedAmount,\n            targetOption.premium\n        );\n        _transferUnitsFrom(\n            from_,\n            to_,\n            optionID,\n            targetOptionID,\n            transferUnits_\n        );\n    }\n\n    function createSlot(\n        uint256 optionID,\n        uint256 strike,\n        uint256 expiration,\n        OptionType optionType\n    ) internal returns (uint256 slot) {\n        slot = uint256(\n            keccak256(abi.encode(strike, expiration, optionType, optionID))\n        );\n        require(!slotDetails[slot].isValid, \"slot already existed\");\n        slotDetails[slot] = SlotDetail(strike, expiration, optionType, true);\n    }\n}\n",
  "sourcePath": "contracts/Options/BufferUSDCTokenXOptions.sol",
  "type": "contract"
}