{
  "abi": [
    {
      "inputs": [
        {
          "internalType": "address",
          "name": "_underlying",
          "type": "address"
        },
        {
          "internalType": "uint256",
          "name": "_cash",
          "type": "uint256"
        }
      ],
      "stateMutability": "nonpayable",
      "type": "constructor"
    },
    {
      "inputs": [],
      "name": "cash",
      "outputs": [
        {
          "internalType": "uint256",
          "name": "",
          "type": "uint256"
        }
      ],
      "stateMutability": "view",
      "type": "function"
    },
    {
      "inputs": [],
      "name": "getCash",
      "outputs": [
        {
          "internalType": "uint256",
          "name": "",
          "type": "uint256"
        }
      ],
      "stateMutability": "view",
      "type": "function"
    },
    {
      "inputs": [
        {
          "internalType": "uint256",
          "name": "_cash",
          "type": "uint256"
        }
      ],
      "name": "setCash",
      "outputs": [],
      "stateMutability": "nonpayable",
      "type": "function"
    },
    {
      "inputs": [],
      "name": "underlying",
      "outputs": [
        {
          "internalType": "address",
          "name": "",
          "type": "address"
        }
      ],
      "stateMutability": "view",
      "type": "function"
    },
    {
      "inputs": [],
      "name": "underlyingAsset",
      "outputs": [
        {
          "internalType": "address",
          "name": "",
          "type": "address"
        }
      ],
      "stateMutability": "view",
      "type": "function"
    }
  ],
  "bytecode": "608060405234801561001057600080fd5b506040516101a83803806101a883398101604081905261002f91610058565b600180546001600160a01b0319166001600160a01b039390931692909217909155600055610090565b6000806040838503121561006a578182fd5b82516001600160a01b0381168114610080578283fd5b6020939093015192949293505050565b6101098061009f6000396000f3fe6080604052348015600f57600080fd5b506004361060505760003560e01c80633b1d21a21460555780636f307dc314606c5780637158da7c1460905780637ac1141f1460a2578063961be3911460b4575b600080fd5b6000545b6040519081526020015b60405180910390f35b6001546001600160a01b03165b6040516001600160a01b0390911681526020016063565b6001546079906001600160a01b031681565b60b260ad36600460bc565b600055565b005b605960005481565b60006020828403121560cc578081fd5b503591905056fea264697066735822122075ffefc0c25aa73caf8eadea50e2b79762cda2a7ff2ba0286052200efb2e906c64736f6c63430008040033",
  "bytecodeSha1": "c3fa6720f32900b7d940d27129e5b89003c45849",
  "compiler": {
    "evm_version": "istanbul",
    "optimizer": {
      "enabled": true,
      "runs": 1
    },
    "version": "0.8.4+commit.c7e474f2"
  },
  "contractName": "FakeCToken",
  "language": "Solidity",
  "natspec": {
    "kind": "dev",
    "methods": {},
    "version": 1
  },
  "opcodes": "PUSH1 0x80 PUSH1 0x40 MSTORE CALLVALUE DUP1 ISZERO PUSH1 0xF JUMPI PUSH1 0x0 DUP1 REVERT JUMPDEST POP PUSH1 0x4 CALLDATASIZE LT PUSH1 0x50 JUMPI PUSH1 0x0 CALLDATALOAD PUSH1 0xE0 SHR DUP1 PUSH4 0x3B1D21A2 EQ PUSH1 0x55 JUMPI DUP1 PUSH4 0x6F307DC3 EQ PUSH1 0x6C JUMPI DUP1 PUSH4 0x7158DA7C EQ PUSH1 0x90 JUMPI DUP1 PUSH4 0x7AC1141F EQ PUSH1 0xA2 JUMPI DUP1 PUSH4 0x961BE391 EQ PUSH1 0xB4 JUMPI JUMPDEST PUSH1 0x0 DUP1 REVERT JUMPDEST PUSH1 0x0 SLOAD JUMPDEST PUSH1 0x40 MLOAD SWAP1 DUP2 MSTORE PUSH1 0x20 ADD JUMPDEST PUSH1 0x40 MLOAD DUP1 SWAP2 SUB SWAP1 RETURN JUMPDEST PUSH1 0x1 SLOAD PUSH1 0x1 PUSH1 0x1 PUSH1 0xA0 SHL SUB AND JUMPDEST PUSH1 0x40 MLOAD PUSH1 0x1 PUSH1 0x1 PUSH1 0xA0 SHL SUB SWAP1 SWAP2 AND DUP2 MSTORE PUSH1 0x20 ADD PUSH1 0x63 JUMP JUMPDEST PUSH1 0x1 SLOAD PUSH1 0x79 SWAP1 PUSH1 0x1 PUSH1 0x1 PUSH1 0xA0 SHL SUB AND DUP2 JUMP JUMPDEST PUSH1 0xB2 PUSH1 0xAD CALLDATASIZE PUSH1 0x4 PUSH1 0xBC JUMP JUMPDEST PUSH1 0x0 SSTORE JUMP JUMPDEST STOP JUMPDEST PUSH1 0x59 PUSH1 0x0 SLOAD DUP2 JUMP JUMPDEST PUSH1 0x0 PUSH1 0x20 DUP3 DUP5 SUB SLT ISZERO PUSH1 0xCC JUMPI DUP1 DUP2 REVERT JUMPDEST POP CALLDATALOAD SWAP2 SWAP1 POP JUMP INVALID LOG2 PUSH5 0x6970667358 0x22 SLT KECCAK256 PUSH22 0xFFEFC0C25AA73CAF8EADEA50E2B79762CDA2A7FF2BA0 0x28 PUSH1 0x52 KECCAK256 0xE 0xFB 0x2E SWAP1 PUSH13 0x64736F6C634300080400330000 ",
  "sha1": "9110b72ea6d439c5f914dcab4538dccbc0d69aaf",
  "source": "// SPDX-License-Identifier: BUSL-1.1\npragma solidity =0.8.4;\n\nimport \"../Interfaces/Interfaces.sol\";\n\ncontract FakeCToken {\n    uint256 public cash;\n    address public underlyingAsset;\n\n    constructor(address _underlying, uint256 _cash) public {\n        underlyingAsset = _underlying;\n        cash = _cash;\n    }\n\n    function underlying() external view returns (address) {\n        return underlyingAsset;\n    }\n\n    function getCash() external view returns (uint256) {\n        return cash;\n    }\n\n    function setCash(uint256 _cash) external {\n        cash = _cash;\n    }\n}\n",
  "sourcePath": "contracts/Twap/TestContracts/FakeCToken.sol",
  "type": "contract"
}