{
  "abi": [
    {
      "inputs": [
        {
          "internalType": "uint256",
          "name": "_price",
          "type": "uint256"
        }
      ],
      "stateMutability": "nonpayable",
      "type": "constructor"
    },
    {
      "inputs": [],
      "name": "decimals",
      "outputs": [
        {
          "internalType": "uint8",
          "name": "",
          "type": "uint8"
        }
      ],
      "stateMutability": "pure",
      "type": "function"
    },
    {
      "inputs": [
        {
          "internalType": "uint256",
          "name": "roundID",
          "type": "uint256"
        }
      ],
      "name": "getRoundData",
      "outputs": [
        {
          "internalType": "uint80",
          "name": "roundId",
          "type": "uint80"
        },
        {
          "internalType": "uint256",
          "name": "_price",
          "type": "uint256"
        },
        {
          "internalType": "uint256",
          "name": "startedAt",
          "type": "uint256"
        },
        {
          "internalType": "uint256",
          "name": "updatedAt",
          "type": "uint256"
        },
        {
          "internalType": "uint80",
          "name": "answeredInRound",
          "type": "uint80"
        }
      ],
      "stateMutability": "view",
      "type": "function"
    },
    {
      "inputs": [],
      "name": "getUsdPrice",
      "outputs": [
        {
          "internalType": "uint256",
          "name": "",
          "type": "uint256"
        }
      ],
      "stateMutability": "view",
      "type": "function"
    },
    {
      "inputs": [
        {
          "internalType": "uint256",
          "name": "roundID",
          "type": "uint256"
        }
      ],
      "name": "latestRoundData",
      "outputs": [
        {
          "internalType": "uint80",
          "name": "roundId",
          "type": "uint80"
        },
        {
          "internalType": "uint256",
          "name": "_price",
          "type": "uint256"
        },
        {
          "internalType": "uint256",
          "name": "startedAt",
          "type": "uint256"
        },
        {
          "internalType": "uint256",
          "name": "updatedAt",
          "type": "uint256"
        },
        {
          "internalType": "uint80",
          "name": "answeredInRound",
          "type": "uint80"
        }
      ],
      "stateMutability": "view",
      "type": "function"
    },
    {
      "inputs": [],
      "name": "price",
      "outputs": [
        {
          "internalType": "uint256",
          "name": "",
          "type": "uint256"
        }
      ],
      "stateMutability": "view",
      "type": "function"
    },
    {
      "inputs": [
        {
          "internalType": "uint256",
          "name": "",
          "type": "uint256"
        }
      ],
      "name": "roundIDToExpiry",
      "outputs": [
        {
          "internalType": "uint256",
          "name": "",
          "type": "uint256"
        }
      ],
      "stateMutability": "view",
      "type": "function"
    },
    {
      "inputs": [
        {
          "internalType": "uint256",
          "name": "",
          "type": "uint256"
        }
      ],
      "name": "roundIDToPrice",
      "outputs": [
        {
          "internalType": "uint256",
          "name": "",
          "type": "uint256"
        }
      ],
      "stateMutability": "view",
      "type": "function"
    },
    {
      "inputs": [
        {
          "internalType": "uint256",
          "name": "_price",
          "type": "uint256"
        }
      ],
      "name": "setPrice",
      "outputs": [],
      "stateMutability": "nonpayable",
      "type": "function"
    },
    {
      "inputs": [
        {
          "internalType": "uint256",
          "name": "roundID",
          "type": "uint256"
        },
        {
          "internalType": "uint256",
          "name": "expiry",
          "type": "uint256"
        },
        {
          "internalType": "uint256",
          "name": "_price",
          "type": "uint256"
        }
      ],
      "name": "setRoundData",
      "outputs": [],
      "stateMutability": "nonpayable",
      "type": "function"
    }
  ],
  "bytecode": "608060405234801561001057600080fd5b5060405161026b38038061026b83398101604081905261002f91610037565b60005561004f565b600060208284031215610048578081fd5b5051919050565b61020d8061005e6000396000f3fe608060405234801561001057600080fd5b50600436106100835760003560e01c80630720da521461008857806319c2653c146100e95780631acf5582146101175780631d3fd93214610129578063313ce56714610149578063777f77881461015857806391b7f5ed146101785780639bbf750114610088578063a035b1fe1461018b575b600080fd5b6100b0610096366004610194565b600080548282526001602052604082205492939092908290565b604080516001600160501b03968716815260208101959095528401929092526060830152909116608082015260a0015b60405180910390f35b6101156100f73660046101ac565b60009283526001602090815260408085209390935560029052912055565b005b6000545b6040519081526020016100e0565b61011b610137366004610194565b60016020526000908152604090205481565b604051600881526020016100e0565b61011b610166366004610194565b60026020526000908152604090205481565b610115610186366004610194565b600055565b61011b60005481565b6000602082840312156101a5578081fd5b5035919050565b6000806000606084860312156101c0578182fd5b50508135936020830135935060409092013591905056fea264697066735822122061668fc0ff6d82ea70c87e194734eacef8c2567d696873eeaf48ed5f96e90c9d64736f6c63430008040033",
  "bytecodeSha1": "8694cf782dc0ea43e43e21bd414098a09a26fb3b",
  "compiler": {
    "evm_version": "istanbul",
    "optimizer": {
      "enabled": true,
      "runs": 1
    },
    "version": "0.8.4+commit.c7e474f2"
  },
  "contractName": "FakePriceProvider",
  "language": "Solidity",
  "natspec": {
    "kind": "dev",
    "methods": {},
    "version": 1
  },
  "opcodes": "PUSH1 0x80 PUSH1 0x40 MSTORE CALLVALUE DUP1 ISZERO PUSH2 0x10 JUMPI PUSH1 0x0 DUP1 REVERT JUMPDEST POP PUSH1 0x4 CALLDATASIZE LT PUSH2 0x83 JUMPI PUSH1 0x0 CALLDATALOAD PUSH1 0xE0 SHR DUP1 PUSH4 0x720DA52 EQ PUSH2 0x88 JUMPI DUP1 PUSH4 0x19C2653C EQ PUSH2 0xE9 JUMPI DUP1 PUSH4 0x1ACF5582 EQ PUSH2 0x117 JUMPI DUP1 PUSH4 0x1D3FD932 EQ PUSH2 0x129 JUMPI DUP1 PUSH4 0x313CE567 EQ PUSH2 0x149 JUMPI DUP1 PUSH4 0x777F7788 EQ PUSH2 0x158 JUMPI DUP1 PUSH4 0x91B7F5ED EQ PUSH2 0x178 JUMPI DUP1 PUSH4 0x9BBF7501 EQ PUSH2 0x88 JUMPI DUP1 PUSH4 0xA035B1FE EQ PUSH2 0x18B JUMPI JUMPDEST PUSH1 0x0 DUP1 REVERT JUMPDEST PUSH2 0xB0 PUSH2 0x96 CALLDATASIZE PUSH1 0x4 PUSH2 0x194 JUMP JUMPDEST PUSH1 0x0 DUP1 SLOAD DUP3 DUP3 MSTORE PUSH1 0x1 PUSH1 0x20 MSTORE PUSH1 0x40 DUP3 KECCAK256 SLOAD SWAP3 SWAP4 SWAP1 SWAP3 SWAP1 DUP3 SWAP1 JUMP JUMPDEST PUSH1 0x40 DUP1 MLOAD PUSH1 0x1 PUSH1 0x1 PUSH1 0x50 SHL SUB SWAP7 DUP8 AND DUP2 MSTORE PUSH1 0x20 DUP2 ADD SWAP6 SWAP1 SWAP6 MSTORE DUP5 ADD SWAP3 SWAP1 SWAP3 MSTORE PUSH1 0x60 DUP4 ADD MSTORE SWAP1 SWAP2 AND PUSH1 0x80 DUP3 ADD MSTORE PUSH1 0xA0 ADD JUMPDEST PUSH1 0x40 MLOAD DUP1 SWAP2 SUB SWAP1 RETURN JUMPDEST PUSH2 0x115 PUSH2 0xF7 CALLDATASIZE PUSH1 0x4 PUSH2 0x1AC JUMP JUMPDEST PUSH1 0x0 SWAP3 DUP4 MSTORE PUSH1 0x1 PUSH1 0x20 SWAP1 DUP2 MSTORE PUSH1 0x40 DUP1 DUP6 KECCAK256 SWAP4 SWAP1 SWAP4 SSTORE PUSH1 0x2 SWAP1 MSTORE SWAP2 KECCAK256 SSTORE JUMP JUMPDEST STOP JUMPDEST PUSH1 0x0 SLOAD JUMPDEST PUSH1 0x40 MLOAD SWAP1 DUP2 MSTORE PUSH1 0x20 ADD PUSH2 0xE0 JUMP JUMPDEST PUSH2 0x11B PUSH2 0x137 CALLDATASIZE PUSH1 0x4 PUSH2 0x194 JUMP JUMPDEST PUSH1 0x1 PUSH1 0x20 MSTORE PUSH1 0x0 SWAP1 DUP2 MSTORE PUSH1 0x40 SWAP1 KECCAK256 SLOAD DUP2 JUMP JUMPDEST PUSH1 0x40 MLOAD PUSH1 0x8 DUP2 MSTORE PUSH1 0x20 ADD PUSH2 0xE0 JUMP JUMPDEST PUSH2 0x11B PUSH2 0x166 CALLDATASIZE PUSH1 0x4 PUSH2 0x194 JUMP JUMPDEST PUSH1 0x2 PUSH1 0x20 MSTORE PUSH1 0x0 SWAP1 DUP2 MSTORE PUSH1 0x40 SWAP1 KECCAK256 SLOAD DUP2 JUMP JUMPDEST PUSH2 0x115 PUSH2 0x186 CALLDATASIZE PUSH1 0x4 PUSH2 0x194 JUMP JUMPDEST PUSH1 0x0 SSTORE JUMP JUMPDEST PUSH2 0x11B PUSH1 0x0 SLOAD DUP2 JUMP JUMPDEST PUSH1 0x0 PUSH1 0x20 DUP3 DUP5 SUB SLT ISZERO PUSH2 0x1A5 JUMPI DUP1 DUP2 REVERT JUMPDEST POP CALLDATALOAD SWAP2 SWAP1 POP JUMP JUMPDEST PUSH1 0x0 DUP1 PUSH1 0x0 PUSH1 0x60 DUP5 DUP7 SUB SLT ISZERO PUSH2 0x1C0 JUMPI DUP2 DUP3 REVERT JUMPDEST POP POP DUP2 CALLDATALOAD SWAP4 PUSH1 0x20 DUP4 ADD CALLDATALOAD SWAP4 POP PUSH1 0x40 SWAP1 SWAP3 ADD CALLDATALOAD SWAP2 SWAP1 POP JUMP INVALID LOG2 PUSH5 0x6970667358 0x22 SLT KECCAK256 PUSH2 0x668F 0xC0 SELFDESTRUCT PUSH14 0x82EA70C87E194734EACEF8C2567D PUSH10 0x6873EEAF48ED5F96E90C SWAP14 PUSH5 0x736F6C6343 STOP ADDMOD DIV STOP CALLER ",
  "sha1": "f08b01aeaf0cca31aaf85b3c6b2b96fd1d9e0b01",
  "source": "pragma solidity ^0.8.0;\n\n// SPDX-License-Identifier: BUSL-1.1\n\nimport \"./Interfaces/Interfaces.sol\";\n\ncontract PriceProvider {\n    AggregatorV3Interface public priceProvider;\n\n    constructor(AggregatorV3Interface pp) {\n        priceProvider = pp;\n    }\n\n    // Should return USD price\n    function getUsdPrice() external view returns (uint256 _price) {\n        (, int256 latestPrice, , , ) = priceProvider.latestRoundData();\n        _price = uint256(latestPrice);\n    }\n\n    // Should return timestamp of corresponding round\n    function getRoundData(uint256 roundID)\n        external\n        view\n        returns (\n            uint80 roundId,\n            uint256 price,\n            uint256 startedAt,\n            uint256 updatedAt,\n            uint80 answeredInRound\n        )\n    {\n        int256 _price;\n        (roundId, _price, startedAt, updatedAt, answeredInRound) = priceProvider\n            .getRoundData(uint80(roundID));\n        price = uint256(_price);\n    }\n\n    function latestRoundData()\n        external\n        view\n        returns (\n            uint80 roundId,\n            int256 answer,\n            uint256 startedAt,\n            uint256 updatedAt,\n            uint80 answeredInRound\n        )\n    {\n        (roundId, answer, startedAt, updatedAt, answeredInRound) = priceProvider\n            .latestRoundData();\n    }\n\n    function decimals() external view returns (uint8) {\n        return priceProvider.decimals();\n    }\n}\n\ncontract FakePriceProvider {\n    uint256 public price;\n    mapping(uint256 => uint256) public roundIDToExpiry;\n    mapping(uint256 => uint256) public roundIDToPrice;\n\n    constructor(uint256 _price) {\n        price = _price;\n    }\n\n    function getRoundData(uint256 roundID)\n        external\n        view\n        returns (\n            uint80 roundId,\n            uint256 _price,\n            uint256 startedAt,\n            uint256 updatedAt,\n            uint80 answeredInRound\n        )\n    {\n        (roundId, _price, startedAt, updatedAt, answeredInRound) = (\n            uint80(roundID),\n            price,\n            0,\n            roundIDToExpiry[roundID],\n            0\n        );\n    }\n\n\n    function latestRoundData(uint256 roundID)\n        external\n        view\n        returns (\n            uint80 roundId,\n            uint256 _price,\n            uint256 startedAt,\n            uint256 updatedAt,\n            uint80 answeredInRound\n        )\n    {\n        (roundId, _price, startedAt, updatedAt, answeredInRound) = (\n            uint80(roundID),\n            price,\n            0,\n            roundIDToExpiry[roundID],\n            0\n        );\n    }\n\n    function setRoundData(\n        uint256 roundID,\n        uint256 expiry,\n        uint256 _price\n    ) external {\n        roundIDToExpiry[roundID] = expiry;\n        roundIDToPrice[roundID] = _price;\n    }\n\n    function setPrice(uint256 _price) external {\n        price = _price;\n    }\n\n    // Should return USD price\n    function getUsdPrice() external view returns (uint256) {\n        return price;\n    }\n\n    function decimals() external pure returns (uint8) {\n        return 8;\n    }\n}\n",
  "sourcePath": "contracts/PriceProvider.sol",
  "type": "contract"
}