{
  "abi": [
    {
      "inputs": [
        {
          "internalType": "uint256",
          "name": "_price",
          "type": "uint256"
        }
      ],
      "stateMutability": "nonpayable",
      "type": "constructor"
    },
    {
      "inputs": [],
      "name": "latestAnswer",
      "outputs": [
        {
          "internalType": "uint256",
          "name": "",
          "type": "uint256"
        }
      ],
      "stateMutability": "view",
      "type": "function"
    },
    {
      "inputs": [],
      "name": "price",
      "outputs": [
        {
          "internalType": "uint256",
          "name": "",
          "type": "uint256"
        }
      ],
      "stateMutability": "view",
      "type": "function"
    },
    {
      "inputs": [
        {
          "internalType": "uint256",
          "name": "_price",
          "type": "uint256"
        }
      ],
      "name": "setPrice",
      "outputs": [],
      "stateMutability": "nonpayable",
      "type": "function"
    }
  ],
  "bytecode": "608060405234801561001057600080fd5b5060405161011b38038061011b83398101604081905261002f91610037565b60005561004f565b600060208284031215610048578081fd5b5051919050565b60be8061005d6000396000f3fe6080604052348015600f57600080fd5b5060043610603c5760003560e01c806350d25bcd14604157806391b7f5ed146057578063a035b1fe146069575b600080fd5b6000545b60405190815260200160405180910390f35b606760623660046071565b600055565b005b604560005481565b6000602082840312156081578081fd5b503591905056fea26469706673582212204c9fc1a058047cb9d4ec8f45b0744e3f6808c5a18f6d80fcdc5726fcf0227bd664736f6c63430008040033",
  "bytecodeSha1": "966a5f5700dd4c1cb1ca7123e0b9caabe8fff52b",
  "compiler": {
    "evm_version": "istanbul",
    "optimizer": {
      "enabled": true,
      "runs": 1
    },
    "version": "0.8.4+commit.c7e474f2"
  },
  "contractName": "FakePriceProviderv2",
  "language": "Solidity",
  "natspec": {
    "kind": "dev",
    "methods": {},
    "version": 1
  },
  "opcodes": "PUSH1 0x80 PUSH1 0x40 MSTORE CALLVALUE DUP1 ISZERO PUSH1 0xF JUMPI PUSH1 0x0 DUP1 REVERT JUMPDEST POP PUSH1 0x4 CALLDATASIZE LT PUSH1 0x3C JUMPI PUSH1 0x0 CALLDATALOAD PUSH1 0xE0 SHR DUP1 PUSH4 0x50D25BCD EQ PUSH1 0x41 JUMPI DUP1 PUSH4 0x91B7F5ED EQ PUSH1 0x57 JUMPI DUP1 PUSH4 0xA035B1FE EQ PUSH1 0x69 JUMPI JUMPDEST PUSH1 0x0 DUP1 REVERT JUMPDEST PUSH1 0x0 SLOAD JUMPDEST PUSH1 0x40 MLOAD SWAP1 DUP2 MSTORE PUSH1 0x20 ADD PUSH1 0x40 MLOAD DUP1 SWAP2 SUB SWAP1 RETURN JUMPDEST PUSH1 0x67 PUSH1 0x62 CALLDATASIZE PUSH1 0x4 PUSH1 0x71 JUMP JUMPDEST PUSH1 0x0 SSTORE JUMP JUMPDEST STOP JUMPDEST PUSH1 0x45 PUSH1 0x0 SLOAD DUP2 JUMP JUMPDEST PUSH1 0x0 PUSH1 0x20 DUP3 DUP5 SUB SLT ISZERO PUSH1 0x81 JUMPI DUP1 DUP2 REVERT JUMPDEST POP CALLDATALOAD SWAP2 SWAP1 POP JUMP INVALID LOG2 PUSH5 0x6970667358 0x22 SLT KECCAK256 0x4C SWAP16 0xC1 LOG0 PC DIV PUSH29 0xB9D4EC8F45B0744E3F6808C5A18F6D80FCDC5726FCF0227BD664736F6C PUSH4 0x43000804 STOP CALLER ",
  "sha1": "8cf560fa85a7bf7a12f90b5e164272d32ff903bb",
  "source": "// SPDX-License-Identifier: BUSL-1.1\npragma solidity =0.8.4;\n\nimport \"../Interfaces/Interfaces.sol\";\n\ncontract FakePriceProviderv2 {\n    uint256 public price;\n\n    constructor(uint256 _price) public {\n        price = _price;\n    }\n\n    function setPrice(uint256 _price) external {\n        price = _price;\n    }\n\n    // Should return USD price\n    function latestAnswer() external view returns (uint256) {\n        return price;\n    }\n}\n",
  "sourcePath": "contracts/Twap/TestContracts/FakePriceProviderv2.sol",
  "type": "contract"
}