{
  "abi": [
    {
      "inputs": [
        {
          "internalType": "address",
          "name": "staking",
          "type": "address"
        },
        {
          "internalType": "uint256",
          "name": "initialImpliedVolRate",
          "type": "uint256"
        },
        {
          "internalType": "uint256",
          "name": "initialStrike",
          "type": "uint256"
        },
        {
          "internalType": "contract BufferIBFRPoolV2",
          "name": "_pool",
          "type": "address"
        }
      ],
      "stateMutability": "nonpayable",
      "type": "constructor"
    },
    {
      "anonymous": false,
      "inputs": [
        {
          "indexed": true,
          "internalType": "address",
          "name": "approval",
          "type": "address"
        },
        {
          "indexed": true,
          "internalType": "uint256",
          "name": "tokenId",
          "type": "uint256"
        },
        {
          "indexed": false,
          "internalType": "uint256",
          "name": "allowance",
          "type": "uint256"
        }
      ],
      "name": "ApprovalUnits",
      "type": "event"
    },
    {
      "anonymous": false,
      "inputs": [
        {
          "indexed": true,
          "internalType": "address",
          "name": "account",
          "type": "address"
        },
        {
          "indexed": false,
          "internalType": "bool",
          "name": "status",
          "type": "bool"
        }
      ],
      "name": "AutoExerciseStatusChange",
      "type": "event"
    },
    {
      "anonymous": false,
      "inputs": [
        {
          "indexed": true,
          "internalType": "uint256",
          "name": "id",
          "type": "uint256"
        },
        {
          "indexed": true,
          "internalType": "address",
          "name": "account",
          "type": "address"
        },
        {
          "indexed": false,
          "internalType": "uint256",
          "name": "settlementFee",
          "type": "uint256"
        },
        {
          "indexed": false,
          "internalType": "uint256",
          "name": "totalFee",
          "type": "uint256"
        },
        {
          "indexed": false,
          "internalType": "string",
          "name": "metadata",
          "type": "string"
        }
      ],
      "name": "Create",
      "type": "event"
    },
    {
      "anonymous": false,
      "inputs": [
        {
          "indexed": true,
          "internalType": "uint256",
          "name": "id",
          "type": "uint256"
        },
        {
          "indexed": false,
          "internalType": "uint256",
          "name": "profit",
          "type": "uint256"
        }
      ],
      "name": "Exercise",
      "type": "event"
    },
    {
      "anonymous": false,
      "inputs": [
        {
          "indexed": true,
          "internalType": "uint256",
          "name": "id",
          "type": "uint256"
        },
        {
          "indexed": false,
          "internalType": "uint256",
          "name": "premium",
          "type": "uint256"
        }
      ],
      "name": "Expire",
      "type": "event"
    },
    {
      "anonymous": false,
      "inputs": [
        {
          "indexed": true,
          "internalType": "address",
          "name": "owner",
          "type": "address"
        },
        {
          "indexed": true,
          "internalType": "uint256",
          "name": "tokenId",
          "type": "uint256"
        },
        {
          "indexed": true,
          "internalType": "uint256",
          "name": "targetTokenId",
          "type": "uint256"
        },
        {
          "indexed": false,
          "internalType": "uint256",
          "name": "mergeUnits",
          "type": "uint256"
        }
      ],
      "name": "Merge",
      "type": "event"
    },
    {
      "anonymous": false,
      "inputs": [
        {
          "indexed": true,
          "internalType": "address",
          "name": "previousOwner",
          "type": "address"
        },
        {
          "indexed": true,
          "internalType": "address",
          "name": "newOwner",
          "type": "address"
        }
      ],
      "name": "OwnershipTransferred",
      "type": "event"
    },
    {
      "anonymous": false,
      "inputs": [
        {
          "indexed": true,
          "internalType": "address",
          "name": "owner",
          "type": "address"
        },
        {
          "indexed": false,
          "internalType": "uint256",
          "name": "amount",
          "type": "uint256"
        }
      ],
      "name": "PayAdminFee",
      "type": "event"
    },
    {
      "anonymous": false,
      "inputs": [
        {
          "indexed": true,
          "internalType": "address",
          "name": "referrer",
          "type": "address"
        },
        {
          "indexed": false,
          "internalType": "uint256",
          "name": "amount",
          "type": "uint256"
        }
      ],
      "name": "PayReferralFee",
      "type": "event"
    },
    {
      "anonymous": false,
      "inputs": [
        {
          "indexed": true,
          "internalType": "address",
          "name": "owner",
          "type": "address"
        },
        {
          "indexed": true,
          "internalType": "uint256",
          "name": "tokenId",
          "type": "uint256"
        },
        {
          "indexed": false,
          "internalType": "uint256",
          "name": "newTokenId",
          "type": "uint256"
        },
        {
          "indexed": false,
          "internalType": "uint256",
          "name": "splitUnits",
          "type": "uint256"
        }
      ],
      "name": "Split",
      "type": "event"
    },
    {
      "anonymous": false,
      "inputs": [
        {
          "indexed": true,
          "internalType": "address",
          "name": "from",
          "type": "address"
        },
        {
          "indexed": true,
          "internalType": "address",
          "name": "to",
          "type": "address"
        },
        {
          "indexed": true,
          "internalType": "uint256",
          "name": "tokenId",
          "type": "uint256"
        },
        {
          "indexed": false,
          "internalType": "uint256",
          "name": "targetTokenId",
          "type": "uint256"
        },
        {
          "indexed": false,
          "internalType": "uint256",
          "name": "transferUnits",
          "type": "uint256"
        }
      ],
      "name": "TransferUnits",
      "type": "event"
    },
    {
      "anonymous": false,
      "inputs": [
        {
          "indexed": false,
          "internalType": "uint256",
          "name": "value",
          "type": "uint256"
        }
      ],
      "name": "UpdateImpliedVolatility",
      "type": "event"
    },
    {
      "anonymous": false,
      "inputs": [
        {
          "indexed": false,
          "internalType": "uint256",
          "name": "value",
          "type": "uint256"
        }
      ],
      "name": "UpdateMaxPeriod",
      "type": "event"
    },
    {
      "anonymous": false,
      "inputs": [
        {
          "indexed": false,
          "internalType": "uint256",
          "name": "value",
          "type": "uint256"
        }
      ],
      "name": "UpdateNFTSaleRoyaltyPercentage",
      "type": "event"
    },
    {
      "anonymous": false,
      "inputs": [
        {
          "indexed": false,
          "internalType": "uint256",
          "name": "value",
          "type": "uint256"
        }
      ],
      "name": "UpdateOptionCollaterizationRatio",
      "type": "event"
    },
    {
      "anonymous": false,
      "inputs": [
        {
          "indexed": false,
          "internalType": "uint256",
          "name": "startHour",
          "type": "uint256"
        },
        {
          "indexed": false,
          "internalType": "uint256",
          "name": "startMinute",
          "type": "uint256"
        },
        {
          "indexed": false,
          "internalType": "uint256",
          "name": "endHour",
          "type": "uint256"
        },
        {
          "indexed": false,
          "internalType": "uint256",
          "name": "endMinute",
          "type": "uint256"
        }
      ],
      "name": "UpdateOptionCreationWindow",
      "type": "event"
    },
    {
      "anonymous": false,
      "inputs": [
        {
          "indexed": false,
          "internalType": "uint256",
          "name": "value",
          "type": "uint256"
        }
      ],
      "name": "UpdateOptionSizePerBlockLimitPercent",
      "type": "event"
    },
    {
      "anonymous": false,
      "inputs": [
        {
          "indexed": false,
          "internalType": "uint256",
          "name": "value",
          "type": "uint256"
        }
      ],
      "name": "UpdateReferralRewardPercentage",
      "type": "event"
    },
    {
      "anonymous": false,
      "inputs": [
        {
          "indexed": false,
          "internalType": "uint256",
          "name": "value",
          "type": "uint256"
        }
      ],
      "name": "UpdateSettlementFeePercentage",
      "type": "event"
    },
    {
      "anonymous": false,
      "inputs": [
        {
          "indexed": false,
          "internalType": "address",
          "name": "account",
          "type": "address"
        }
      ],
      "name": "UpdateSettlementFeeRecipient",
      "type": "event"
    },
    {
      "anonymous": false,
      "inputs": [
        {
          "indexed": false,
          "internalType": "uint256",
          "name": "value",
          "type": "uint256"
        }
      ],
      "name": "UpdateStakingFeePercentage",
      "type": "event"
    },
    {
      "anonymous": false,
      "inputs": [
        {
          "indexed": false,
          "internalType": "uint256",
          "name": "value",
          "type": "uint256"
        }
      ],
      "name": "UpdateStrike",
      "type": "event"
    },
    {
      "anonymous": false,
      "inputs": [
        {
          "indexed": false,
          "internalType": "enum IOptionsConfig.PermittedTradingType",
          "name": "permissionType",
          "type": "uint8"
        }
      ],
      "name": "UpdateTradingPermission",
      "type": "event"
    },
    {
      "anonymous": false,
      "inputs": [
        {
          "indexed": false,
          "internalType": "uint256",
          "name": "value",
          "type": "uint256"
        }
      ],
      "name": "UpdateUnits",
      "type": "event"
    },
    {
      "inputs": [
        {
          "internalType": "enum IBufferOptions.OptionType",
          "name": "optionType",
          "type": "uint8"
        },
        {
          "internalType": "uint256",
          "name": "period",
          "type": "uint256"
        },
        {
          "internalType": "uint256",
          "name": "amount",
          "type": "uint256"
        },
        {
          "internalType": "uint256",
          "name": "strikeFee",
          "type": "uint256"
        },
        {
          "internalType": "uint256",
          "name": "totalFee",
          "type": "uint256"
        },
        {
          "internalType": "uint256",
          "name": "msgValue",
          "type": "uint256"
        }
      ],
      "name": "checkParams",
      "outputs": [],
      "stateMutability": "pure",
      "type": "function"
    },
    {
      "inputs": [],
      "name": "fixedStrike",
      "outputs": [
        {
          "internalType": "uint256",
          "name": "",
          "type": "uint256"
        }
      ],
      "stateMutability": "view",
      "type": "function"
    },
    {
      "inputs": [],
      "name": "impliedVolRate",
      "outputs": [
        {
          "internalType": "uint256",
          "name": "",
          "type": "uint256"
        }
      ],
      "stateMutability": "view",
      "type": "function"
    },
    {
      "inputs": [],
      "name": "maxPeriod",
      "outputs": [
        {
          "internalType": "uint256",
          "name": "",
          "type": "uint256"
        }
      ],
      "stateMutability": "view",
      "type": "function"
    },
    {
      "inputs": [],
      "name": "nftSaleRoyaltyPercentage",
      "outputs": [
        {
          "internalType": "uint256",
          "name": "",
          "type": "uint256"
        }
      ],
      "stateMutability": "view",
      "type": "function"
    },
    {
      "inputs": [],
      "name": "optionCollateralizationRatio",
      "outputs": [
        {
          "internalType": "uint256",
          "name": "",
          "type": "uint256"
        }
      ],
      "stateMutability": "view",
      "type": "function"
    },
    {
      "inputs": [],
      "name": "optionSizePerBlockLimitPercent",
      "outputs": [
        {
          "internalType": "uint256",
          "name": "",
          "type": "uint256"
        }
      ],
      "stateMutability": "view",
      "type": "function"
    },
    {
      "inputs": [],
      "name": "owner",
      "outputs": [
        {
          "internalType": "address",
          "name": "",
          "type": "address"
        }
      ],
      "stateMutability": "view",
      "type": "function"
    },
    {
      "inputs": [],
      "name": "permittedTradingType",
      "outputs": [
        {
          "internalType": "enum IOptionsConfig.PermittedTradingType",
          "name": "",
          "type": "uint8"
        }
      ],
      "stateMutability": "view",
      "type": "function"
    },
    {
      "inputs": [],
      "name": "pool",
      "outputs": [
        {
          "internalType": "contract BufferIBFRPoolV2",
          "name": "",
          "type": "address"
        }
      ],
      "stateMutability": "view",
      "type": "function"
    },
    {
      "inputs": [],
      "name": "referralRewardPercentage",
      "outputs": [
        {
          "internalType": "uint256",
          "name": "",
          "type": "uint256"
        }
      ],
      "stateMutability": "view",
      "type": "function"
    },
    {
      "inputs": [],
      "name": "renounceOwnership",
      "outputs": [],
      "stateMutability": "nonpayable",
      "type": "function"
    },
    {
      "inputs": [
        {
          "internalType": "uint256",
          "name": "value",
          "type": "uint256"
        }
      ],
      "name": "setImpliedVolRate",
      "outputs": [],
      "stateMutability": "nonpayable",
      "type": "function"
    },
    {
      "inputs": [
        {
          "internalType": "uint256",
          "name": "value",
          "type": "uint256"
        }
      ],
      "name": "setMaxPeriod",
      "outputs": [],
      "stateMutability": "nonpayable",
      "type": "function"
    },
    {
      "inputs": [
        {
          "internalType": "uint256",
          "name": "value",
          "type": "uint256"
        }
      ],
      "name": "setNFTSaleRoyaltyPercentage",
      "outputs": [],
      "stateMutability": "nonpayable",
      "type": "function"
    },
    {
      "inputs": [
        {
          "internalType": "uint256",
          "name": "value",
          "type": "uint256"
        }
      ],
      "name": "setOptionCollaterizationRatio",
      "outputs": [],
      "stateMutability": "nonpayable",
      "type": "function"
    },
    {
      "inputs": [
        {
          "internalType": "uint256",
          "name": "value",
          "type": "uint256"
        }
      ],
      "name": "setOptionSizePerBlockLimitPercent",
      "outputs": [],
      "stateMutability": "nonpayable",
      "type": "function"
    },
    {
      "inputs": [
        {
          "internalType": "uint256",
          "name": "value",
          "type": "uint256"
        }
      ],
      "name": "setReferralRewardPercentage",
      "outputs": [],
      "stateMutability": "nonpayable",
      "type": "function"
    },
    {
      "inputs": [
        {
          "internalType": "uint256",
          "name": "value",
          "type": "uint256"
        }
      ],
      "name": "setSettlementFeePercentage",
      "outputs": [],
      "stateMutability": "nonpayable",
      "type": "function"
    },
    {
      "inputs": [
        {
          "internalType": "address",
          "name": "recipient",
          "type": "address"
        }
      ],
      "name": "setSettlementFeeRecipient",
      "outputs": [],
      "stateMutability": "nonpayable",
      "type": "function"
    },
    {
      "inputs": [
        {
          "internalType": "uint256",
          "name": "value",
          "type": "uint256"
        }
      ],
      "name": "setStakingFeePercentage",
      "outputs": [],
      "stateMutability": "nonpayable",
      "type": "function"
    },
    {
      "inputs": [
        {
          "internalType": "uint256",
          "name": "value",
          "type": "uint256"
        }
      ],
      "name": "setStrike",
      "outputs": [],
      "stateMutability": "nonpayable",
      "type": "function"
    },
    {
      "inputs": [
        {
          "internalType": "enum IOptionsConfig.PermittedTradingType",
          "name": "permissionType",
          "type": "uint8"
        }
      ],
      "name": "setTradingPermission",
      "outputs": [],
      "stateMutability": "nonpayable",
      "type": "function"
    },
    {
      "inputs": [
        {
          "internalType": "uint256",
          "name": "value",
          "type": "uint256"
        }
      ],
      "name": "setUtilizationRate",
      "outputs": [],
      "stateMutability": "nonpayable",
      "type": "function"
    },
    {
      "inputs": [],
      "name": "settlementFeePercentage",
      "outputs": [
        {
          "internalType": "uint256",
          "name": "",
          "type": "uint256"
        }
      ],
      "stateMutability": "view",
      "type": "function"
    },
    {
      "inputs": [],
      "name": "settlementFeeRecipient",
      "outputs": [
        {
          "internalType": "address",
          "name": "",
          "type": "address"
        }
      ],
      "stateMutability": "view",
      "type": "function"
    },
    {
      "inputs": [],
      "name": "stakingFeePercentage",
      "outputs": [
        {
          "internalType": "uint256",
          "name": "",
          "type": "uint256"
        }
      ],
      "stateMutability": "view",
      "type": "function"
    },
    {
      "inputs": [
        {
          "internalType": "address",
          "name": "newOwner",
          "type": "address"
        }
      ],
      "name": "transferOwnership",
      "outputs": [],
      "stateMutability": "nonpayable",
      "type": "function"
    },
    {
      "inputs": [],
      "name": "utilizationRate",
      "outputs": [
        {
          "internalType": "uint256",
          "name": "",
          "type": "uint256"
        }
      ],
      "stateMutability": "view",
      "type": "function"
    }
  ],
  "bytecode": "608060405260646002556101f4600355603260045560006005556005600655640165a0bc0060085562015180600a556005600b5534801561003f57600080fd5b5060405161118d38038061118d83398101604081905261005e916100f4565b610067336100a4565b600780546001600160a01b039586166001600160a01b031991821617909155600992909255600192909255600c8054929093169116179055610157565b600080546001600160a01b038381166001600160a01b0319831681178455604051919092169283917f8be0079c531659141344cd1fd0a4f28419497f9722a3daafe3b4186f6b6457e09190a35050565b60008060008060808587031215610109578384fd5b84516101148161013f565b80945050602085015192506040850151915060608501516101348161013f565b939692955090935050565b6001600160a01b038116811461015457600080fd5b50565b611027806101666000396000f3fe608060405234801561001057600080fd5b506004361061015f5760003560e01c806316f0115b14610164578063180acf6e1461018d578063181731dc146101a257806318f88e5b146101b55780631ec3ad1d146101cc578063302ce651146101df57806340774ff6146101e857806349b9a67f146101fb5780635cb6bc81146102045780635ee971011461021757806364ac2655146102205780636c321c8a14610233578063715018a61461023c57806371bf7e25146102445780638da5cb5b1461024d578063920a253e1461025557806396350a851461025e578063a08d874c14610271578063ae1c9fc114610284578063ca535c3b14610297578063ceaeeba9146102a0578063cedcc6da146102b3578063e2bef754146102c6578063e97b86e7146102d9578063ed0974c7146102ec578063f12a0466146102f5578063f2fde38b14610316578063f3fa349514610329578063ff0b025d14610332575b600080fd5b600c54610177906001600160a01b031681565b6040516101849190610f5b565b60405180910390f35b6101a061019b366004610f2b565b610345565b005b600754610177906001600160a01b031681565b6101be60015481565b604051908152602001610184565b6101a06101da366004610f2b565b61040a565b6101be60025481565b6101a06101f6366004610f2b565b6104ca565b6101be600a5481565b6101a0610212366004610f2b565b6104fe565b6101be60095481565b6101a061022e366004610ebe565b610583565b6101be60085481565b6101a0610736565b6101be600b5481565b610177610771565b6101be60055481565b6101a061026c366004610e90565b610780565b6101a061027f366004610f2b565b61080d565b6101a0610292366004610f2b565b610958565b6101be60045481565b6101a06102ae366004610f2b565b610a23565b6101a06102c1366004610f2b565b610ae2565b6101a06102d4366004610f2b565b610ba3565b6101a06102e7366004610f2b565b610c35565b6101be60065481565b600c5461030990600160a01b900460ff1681565b6040516101849190610f6f565b6101a0610324366004610e90565b610d0a565b6101be60035481565b6101a0610340366004610f0c565b610daa565b3361034e610771565b6001600160a01b03161461037d5760405162461bcd60e51b815260040161037490610fbc565b60405180910390fd5b60648111156103ce5760405162461bcd60e51b815260206004820181905260248201527f5374616b696e6746656550657263656e7461676520697320746f6f20686967686044820152606401610374565b60048190556040518181527f7ab3467fb06d3d8716698bece5f22a665374115bd3d0a43d6e11b76fcec1dfbb906020015b60405180910390a150565b33610413610771565b6001600160a01b0316146104395760405162461bcd60e51b815260040161037490610fbc565b601481106104955760405162461bcd60e51b815260206004820152602360248201527f536574746c656d656e7446656550657263656e7461676520697320746f6f20686044820152620d2ced60eb1b6064820152608401610374565b60038190556040518181527f803e7bbaebadbda418ec6dd788e57c29c1cf3faeb7e139d21247e624c9e6d119906020016103ff565b336104d3610771565b6001600160a01b0316146104f95760405162461bcd60e51b815260040161037490610fbc565b600855565b33610507610771565b6001600160a01b03161461052d5760405162461bcd60e51b815260040161037490610fbc565b600a81111561054e5760405162461bcd60e51b815260040161037490610f97565b60068190556040518181527f8fb679aa627958fc7143b0829745d581e0f5e98599847e7097749ce89d8c88e0906020016103ff565b60028660028111156105a557634e487b7160e01b600052602160045260246000fd5b14806105d0575060018660028111156105ce57634e487b7160e01b600052602160045260246000fd5b145b6106105760405162461bcd60e51b815260206004820152601160248201527057726f6e67206f7074696f6e207479706560781b6044820152606401610374565b620151808510156106595760405162461bcd60e51b815260206004820152601360248201527214195c9a5bd9081a5cc81d1bdbc81cda1bdc9d606a1b6044820152606401610374565b6276a7008511156106a15760405162461bcd60e51b8152602060048201526012602482015271506572696f6420697320746f6f206c6f6e6760701b6044820152606401610374565b8284116106f05760405162461bcd60e51b815260206004820152601d60248201527f507269636520646966666572656e636520697320746f6f206c617267650000006044820152606401610374565b8181101561072e5760405162461bcd60e51b815260206004820152600b60248201526a57726f6e672076616c756560a81b6044820152606401610374565b505050505050565b3361073f610771565b6001600160a01b0316146107655760405162461bcd60e51b815260040161037490610fbc565b61076f6000610e40565b565b6000546001600160a01b031690565b33610789610771565b6001600160a01b0316146107af5760405162461bcd60e51b815260040161037490610fbc565b6001600160a01b0381166107c257600080fd5b600780546001600160a01b0319166001600160a01b0383161790556040517f92f6c1e8df34c666f737a2407b4e63d3a77f133b69fdf70f01b5e3b8072551f6906103ff908390610f5b565b33610816610771565b6001600160a01b03161461083c5760405162461bcd60e51b815260040161037490610fbc565b600c60009054906101000a90046001600160a01b03166001600160a01b031663a834069b6040518163ffffffff1660e01b815260040160206040518083038186803b15801561088a57600080fd5b505afa15801561089e573d6000803e3d6000fd5b505050506040513d601f19601f820116820180604052508101906108c29190610f43565b42116109235760405162461bcd60e51b815260206004820152602a60248201527f43616e2774206368616e676520737472696b65206265666f7265207468652065604482015269787069727920656e647360b01b6064820152608401610374565b60098190556040518181527fd7120ae25ffb24b73b21c585f172272cce904bdd03d819732ecc914f4ce49cf0906020016103ff565b33610961610771565b6001600160a01b0316146109875760405162461bcd60e51b815260040161037490610fbc565b61012c8110156109ee5760405162461bcd60e51b815260206004820152602c60248201527f4d6178506572696f64206e6565647320746f206265206772656174657220746860448201526b616e2035206d696e7574657360a01b6064820152608401610374565b600a8190556040518181527f0967eeac7ccaa5705556859408ddb017bac37afa817dd8ff3d27cf4ea1171a66906020016103ff565b33610a2c610771565b6001600160a01b031614610a525760405162461bcd60e51b815260040161037490610fbc565b6064811015610aad5760405162461bcd60e51b815260206004820152602160248201527f496d706c696564566f6c52617465206c696d697420697320746f6f20736d616c6044820152601b60fa1b6064820152608401610374565b60018190556040518181527f3e0c59249d1a9c5f08383bdbdfbc45517a71b76e72223ae649c576e4d1258696906020016103ff565b33610aeb610771565b6001600160a01b031614610b115760405162461bcd60e51b815260040161037490610fbc565b6064811115610b6e5760405162461bcd60e51b8152602060048201526024808201527f526566657272616c52657761726450657263656e7461676520697320746f6f206044820152630d0d2ced60e31b6064820152608401610374565b60058190556040518181527f0c089466003b94ffb5787d1d1affe1c743f8ca63f949d2296cfa4d7986601ade906020016103ff565b33610bac610771565b6001600160a01b031614610bd25760405162461bcd60e51b815260040161037490610fbc565b80603211158015610be4575060648111155b610c005760405162461bcd60e51b815260040161037490610f97565b60028190556040518181527f66b26a0dfaa5fc9f5c7432381208aa4bd7f13f4489299b52f09f1af7669bb93b906020016103ff565b33610c3e610771565b6001600160a01b031614610c645760405162461bcd60e51b815260040161037490610fbc565b60648110610cd55760405162461bcd60e51b815260206004820152603860248201527f4f7074696f6e53697a65506572426c6f636b4c696d697450657263656e74206e60448201527706565647320746f206265206c657373207468616e203130360441b6064820152608401610374565b600b8190556040518181527f5ca84f51f1b091675330abc6e5665566a97744b04121dabc6bda4b3d3503945f906020016103ff565b33610d13610771565b6001600160a01b031614610d395760405162461bcd60e51b815260040161037490610fbc565b6001600160a01b038116610d9e5760405162461bcd60e51b815260206004820152602660248201527f4f776e61626c653a206e6577206f776e657220697320746865207a65726f206160448201526564647265737360d01b6064820152608401610374565b610da781610e40565b50565b33610db3610771565b6001600160a01b031614610dd95760405162461bcd60e51b815260040161037490610fbc565b600c805482919060ff60a01b1916600160a01b836003811115610e0c57634e487b7160e01b600052602160045260246000fd5b02179055507f75e98309d621801fc34e8ce7fa6eaa10b82599a58639171fe865e39bb4728d48816040516103ff9190610f6f565b600080546001600160a01b038381166001600160a01b0319831681178455604051919092169283917f8be0079c531659141344cd1fd0a4f28419497f9722a3daafe3b4186f6b6457e09190a35050565b600060208284031215610ea1578081fd5b81356001600160a01b0381168114610eb7578182fd5b9392505050565b60008060008060008060c08789031215610ed6578182fd5b863560038110610ee4578283fd5b9860208801359850604088013597606081013597506080810135965060a00135945092505050565b600060208284031215610f1d578081fd5b813560048110610eb7578182fd5b600060208284031215610f3c578081fd5b5035919050565b600060208284031215610f54578081fd5b5051919050565b6001600160a01b0391909116815260200190565b6020810160048310610f9157634e487b7160e01b600052602160045260246000fd5b91905290565b6020808252600b908201526a77726f6e672076616c756560a81b604082015260600190565b6020808252818101527f4f776e61626c653a2063616c6c6572206973206e6f7420746865206f776e657260408201526060019056fea26469706673582212208fbd553239180086a1918f4f277ea8a7776ec49e962921af82b736ed034d086964736f6c63430008040033",
  "bytecodeSha1": "c5caffd6b8bbdbdd61e7c5b40264ecbb63b42b69",
  "compiler": {
    "evm_version": "istanbul",
    "optimizer": {
      "enabled": true,
      "runs": 1
    },
    "version": "0.8.4+commit.c7e474f2"
  },
  "contractName": "OptionConfig",
  "language": "Solidity",
  "natspec": {
    "author": "Heisenberg",
    "kind": "dev",
    "methods": {
      "checkParams(uint8,uint256,uint256,uint256,uint256,uint256)": {
        "notice": "Check the validity of the input params",
        "params": {
          "amount": "Option amount",
          "msgValue": "the msg.value given to the Create function",
          "optionType": "Call or Put option type",
          "period": "Option period in seconds (1 days <= period <= 90 days)",
          "strikeFee": "strike fee for the option",
          "totalFee": "total fee for the option"
        }
      },
      "owner()": {
        "details": "Returns the address of the current owner."
      },
      "renounceOwnership()": {
        "details": "Leaves the contract without owner. It will not be possible to call `onlyOwner` functions anymore. Can only be called by the current owner. NOTE: Renouncing ownership will leave the contract without an owner, thereby removing any functionality that is only available to the owner."
      },
      "setImpliedVolRate(uint256)": {
        "notice": "Used for adjusting the options prices while balancing asset's implied volatility rate",
        "params": {
          "value": "New IVRate value"
        }
      },
      "setMaxPeriod(uint256)": {
        "notice": "Used for adjusting the maxPeriod",
        "params": {
          "value": "New maxPeriod"
        }
      },
      "setNFTSaleRoyaltyPercentage(uint256)": {
        "notice": "Used for changing nftSaleRoyaltyPercentage",
        "params": {
          "value": "New nftSaleRoyaltyPercentage value"
        }
      },
      "setOptionCollaterizationRatio(uint256)": {
        "notice": "Used for changing option collateralization ratio",
        "params": {
          "value": "New optionCollateralizationRatio value"
        }
      },
      "setOptionSizePerBlockLimitPercent(uint256)": {
        "notice": "Used for adjusting the option size per block limit percent",
        "params": {
          "value": "New option size per block limit percent value"
        }
      },
      "setReferralRewardPercentage(uint256)": {
        "notice": "Used for adjusting the referral reward percentage",
        "params": {
          "value": "New Referral Reward Percentage"
        }
      },
      "setSettlementFeePercentage(uint256)": {
        "notice": "Used for adjusting the settlement fee percentage",
        "params": {
          "value": "New Settlement Fee Percentage"
        }
      },
      "setSettlementFeeRecipient(address)": {
        "notice": "Used for changing settlementFeeRecipient",
        "params": {
          "recipient": "New settlementFee recipient address"
        }
      },
      "setStakingFeePercentage(uint256)": {
        "notice": "Used for adjusting the staking fee percentage",
        "params": {
          "value": "New Staking Fee Percentage"
        }
      },
      "setStrike(uint256)": {
        "notice": "Used for changing strike",
        "params": {
          "value": "New fixedStrike value"
        }
      },
      "setUtilizationRate(uint256)": {
        "notice": "Used for updating utilizationRate value",
        "params": {
          "value": "New utilizationRate value*"
        }
      },
      "transferOwnership(address)": {
        "details": "Transfers ownership of the contract to a new account (`newOwner`). Can only be called by the current owner."
      }
    },
    "notice": "Buffer BNB Options Contract",
    "title": "Buffer BNB Bidirectional (Call and Put) Options",
    "version": 1
  },
  "opcodes": "PUSH1 0x80 PUSH1 0x40 MSTORE CALLVALUE DUP1 ISZERO PUSH2 0x10 JUMPI PUSH1 0x0 DUP1 REVERT JUMPDEST POP PUSH1 0x4 CALLDATASIZE LT PUSH2 0x15F JUMPI PUSH1 0x0 CALLDATALOAD PUSH1 0xE0 SHR DUP1 PUSH4 0x16F0115B EQ PUSH2 0x164 JUMPI DUP1 PUSH4 0x180ACF6E EQ PUSH2 0x18D JUMPI DUP1 PUSH4 0x181731DC EQ PUSH2 0x1A2 JUMPI DUP1 PUSH4 0x18F88E5B EQ PUSH2 0x1B5 JUMPI DUP1 PUSH4 0x1EC3AD1D EQ PUSH2 0x1CC JUMPI DUP1 PUSH4 0x302CE651 EQ PUSH2 0x1DF JUMPI DUP1 PUSH4 0x40774FF6 EQ PUSH2 0x1E8 JUMPI DUP1 PUSH4 0x49B9A67F EQ PUSH2 0x1FB JUMPI DUP1 PUSH4 0x5CB6BC81 EQ PUSH2 0x204 JUMPI DUP1 PUSH4 0x5EE97101 EQ PUSH2 0x217 JUMPI DUP1 PUSH4 0x64AC2655 EQ PUSH2 0x220 JUMPI DUP1 PUSH4 0x6C321C8A EQ PUSH2 0x233 JUMPI DUP1 PUSH4 0x715018A6 EQ PUSH2 0x23C JUMPI DUP1 PUSH4 0x71BF7E25 EQ PUSH2 0x244 JUMPI DUP1 PUSH4 0x8DA5CB5B EQ PUSH2 0x24D JUMPI DUP1 PUSH4 0x920A253E EQ PUSH2 0x255 JUMPI DUP1 PUSH4 0x96350A85 EQ PUSH2 0x25E JUMPI DUP1 PUSH4 0xA08D874C EQ PUSH2 0x271 JUMPI DUP1 PUSH4 0xAE1C9FC1 EQ PUSH2 0x284 JUMPI DUP1 PUSH4 0xCA535C3B EQ PUSH2 0x297 JUMPI DUP1 PUSH4 0xCEAEEBA9 EQ PUSH2 0x2A0 JUMPI DUP1 PUSH4 0xCEDCC6DA EQ PUSH2 0x2B3 JUMPI DUP1 PUSH4 0xE2BEF754 EQ PUSH2 0x2C6 JUMPI DUP1 PUSH4 0xE97B86E7 EQ PUSH2 0x2D9 JUMPI DUP1 PUSH4 0xED0974C7 EQ PUSH2 0x2EC JUMPI DUP1 PUSH4 0xF12A0466 EQ PUSH2 0x2F5 JUMPI DUP1 PUSH4 0xF2FDE38B EQ PUSH2 0x316 JUMPI DUP1 PUSH4 0xF3FA3495 EQ PUSH2 0x329 JUMPI DUP1 PUSH4 0xFF0B025D EQ PUSH2 0x332 JUMPI JUMPDEST PUSH1 0x0 DUP1 REVERT JUMPDEST PUSH1 0xC SLOAD PUSH2 0x177 SWAP1 PUSH1 0x1 PUSH1 0x1 PUSH1 0xA0 SHL SUB AND DUP2 JUMP JUMPDEST PUSH1 0x40 MLOAD PUSH2 0x184 SWAP2 SWAP1 PUSH2 0xF5B JUMP JUMPDEST PUSH1 0x40 MLOAD DUP1 SWAP2 SUB SWAP1 RETURN JUMPDEST PUSH2 0x1A0 PUSH2 0x19B CALLDATASIZE PUSH1 0x4 PUSH2 0xF2B JUMP JUMPDEST PUSH2 0x345 JUMP JUMPDEST STOP JUMPDEST PUSH1 0x7 SLOAD PUSH2 0x177 SWAP1 PUSH1 0x1 PUSH1 0x1 PUSH1 0xA0 SHL SUB AND DUP2 JUMP JUMPDEST PUSH2 0x1BE PUSH1 0x1 SLOAD DUP2 JUMP JUMPDEST PUSH1 0x40 MLOAD SWAP1 DUP2 MSTORE PUSH1 0x20 ADD PUSH2 0x184 JUMP JUMPDEST PUSH2 0x1A0 PUSH2 0x1DA CALLDATASIZE PUSH1 0x4 PUSH2 0xF2B JUMP JUMPDEST PUSH2 0x40A JUMP JUMPDEST PUSH2 0x1BE PUSH1 0x2 SLOAD DUP2 JUMP JUMPDEST PUSH2 0x1A0 PUSH2 0x1F6 CALLDATASIZE PUSH1 0x4 PUSH2 0xF2B JUMP JUMPDEST PUSH2 0x4CA JUMP JUMPDEST PUSH2 0x1BE PUSH1 0xA SLOAD DUP2 JUMP JUMPDEST PUSH2 0x1A0 PUSH2 0x212 CALLDATASIZE PUSH1 0x4 PUSH2 0xF2B JUMP JUMPDEST PUSH2 0x4FE JUMP JUMPDEST PUSH2 0x1BE PUSH1 0x9 SLOAD DUP2 JUMP JUMPDEST PUSH2 0x1A0 PUSH2 0x22E CALLDATASIZE PUSH1 0x4 PUSH2 0xEBE JUMP JUMPDEST PUSH2 0x583 JUMP JUMPDEST PUSH2 0x1BE PUSH1 0x8 SLOAD DUP2 JUMP JUMPDEST PUSH2 0x1A0 PUSH2 0x736 JUMP JUMPDEST PUSH2 0x1BE PUSH1 0xB SLOAD DUP2 JUMP JUMPDEST PUSH2 0x177 PUSH2 0x771 JUMP JUMPDEST PUSH2 0x1BE PUSH1 0x5 SLOAD DUP2 JUMP JUMPDEST PUSH2 0x1A0 PUSH2 0x26C CALLDATASIZE PUSH1 0x4 PUSH2 0xE90 JUMP JUMPDEST PUSH2 0x780 JUMP JUMPDEST PUSH2 0x1A0 PUSH2 0x27F CALLDATASIZE PUSH1 0x4 PUSH2 0xF2B JUMP JUMPDEST PUSH2 0x80D JUMP JUMPDEST PUSH2 0x1A0 PUSH2 0x292 CALLDATASIZE PUSH1 0x4 PUSH2 0xF2B JUMP JUMPDEST PUSH2 0x958 JUMP JUMPDEST PUSH2 0x1BE PUSH1 0x4 SLOAD DUP2 JUMP JUMPDEST PUSH2 0x1A0 PUSH2 0x2AE CALLDATASIZE PUSH1 0x4 PUSH2 0xF2B JUMP JUMPDEST PUSH2 0xA23 JUMP JUMPDEST PUSH2 0x1A0 PUSH2 0x2C1 CALLDATASIZE PUSH1 0x4 PUSH2 0xF2B JUMP JUMPDEST PUSH2 0xAE2 JUMP JUMPDEST PUSH2 0x1A0 PUSH2 0x2D4 CALLDATASIZE PUSH1 0x4 PUSH2 0xF2B JUMP JUMPDEST PUSH2 0xBA3 JUMP JUMPDEST PUSH2 0x1A0 PUSH2 0x2E7 CALLDATASIZE PUSH1 0x4 PUSH2 0xF2B JUMP JUMPDEST PUSH2 0xC35 JUMP JUMPDEST PUSH2 0x1BE PUSH1 0x6 SLOAD DUP2 JUMP JUMPDEST PUSH1 0xC SLOAD PUSH2 0x309 SWAP1 PUSH1 0x1 PUSH1 0xA0 SHL SWAP1 DIV PUSH1 0xFF AND DUP2 JUMP JUMPDEST PUSH1 0x40 MLOAD PUSH2 0x184 SWAP2 SWAP1 PUSH2 0xF6F JUMP JUMPDEST PUSH2 0x1A0 PUSH2 0x324 CALLDATASIZE PUSH1 0x4 PUSH2 0xE90 JUMP JUMPDEST PUSH2 0xD0A JUMP JUMPDEST PUSH2 0x1BE PUSH1 0x3 SLOAD DUP2 JUMP JUMPDEST PUSH2 0x1A0 PUSH2 0x340 CALLDATASIZE PUSH1 0x4 PUSH2 0xF0C JUMP JUMPDEST PUSH2 0xDAA JUMP JUMPDEST CALLER PUSH2 0x34E PUSH2 0x771 JUMP JUMPDEST PUSH1 0x1 PUSH1 0x1 PUSH1 0xA0 SHL SUB AND EQ PUSH2 0x37D JUMPI PUSH1 0x40 MLOAD PUSH3 0x461BCD PUSH1 0xE5 SHL DUP2 MSTORE PUSH1 0x4 ADD PUSH2 0x374 SWAP1 PUSH2 0xFBC JUMP JUMPDEST PUSH1 0x40 MLOAD DUP1 SWAP2 SUB SWAP1 REVERT JUMPDEST PUSH1 0x64 DUP2 GT ISZERO PUSH2 0x3CE JUMPI PUSH1 0x40 MLOAD PUSH3 0x461BCD PUSH1 0xE5 SHL DUP2 MSTORE PUSH1 0x20 PUSH1 0x4 DUP3 ADD DUP2 SWAP1 MSTORE PUSH1 0x24 DUP3 ADD MSTORE PUSH32 0x5374616B696E6746656550657263656E7461676520697320746F6F2068696768 PUSH1 0x44 DUP3 ADD MSTORE PUSH1 0x64 ADD PUSH2 0x374 JUMP JUMPDEST PUSH1 0x4 DUP2 SWAP1 SSTORE PUSH1 0x40 MLOAD DUP2 DUP2 MSTORE PUSH32 0x7AB3467FB06D3D8716698BECE5F22A665374115BD3D0A43D6E11B76FCEC1DFBB SWAP1 PUSH1 0x20 ADD JUMPDEST PUSH1 0x40 MLOAD DUP1 SWAP2 SUB SWAP1 LOG1 POP JUMP JUMPDEST CALLER PUSH2 0x413 PUSH2 0x771 JUMP JUMPDEST PUSH1 0x1 PUSH1 0x1 PUSH1 0xA0 SHL SUB AND EQ PUSH2 0x439 JUMPI PUSH1 0x40 MLOAD PUSH3 0x461BCD PUSH1 0xE5 SHL DUP2 MSTORE PUSH1 0x4 ADD PUSH2 0x374 SWAP1 PUSH2 0xFBC JUMP JUMPDEST PUSH1 0x14 DUP2 LT PUSH2 0x495 JUMPI PUSH1 0x40 MLOAD PUSH3 0x461BCD PUSH1 0xE5 SHL DUP2 MSTORE PUSH1 0x20 PUSH1 0x4 DUP3 ADD MSTORE PUSH1 0x23 PUSH1 0x24 DUP3 ADD MSTORE PUSH32 0x536574746C656D656E7446656550657263656E7461676520697320746F6F2068 PUSH1 0x44 DUP3 ADD MSTORE PUSH3 0xD2CED PUSH1 0xEB SHL PUSH1 0x64 DUP3 ADD MSTORE PUSH1 0x84 ADD PUSH2 0x374 JUMP JUMPDEST PUSH1 0x3 DUP2 SWAP1 SSTORE PUSH1 0x40 MLOAD DUP2 DUP2 MSTORE PUSH32 0x803E7BBAEBADBDA418EC6DD788E57C29C1CF3FAEB7E139D21247E624C9E6D119 SWAP1 PUSH1 0x20 ADD PUSH2 0x3FF JUMP JUMPDEST CALLER PUSH2 0x4D3 PUSH2 0x771 JUMP JUMPDEST PUSH1 0x1 PUSH1 0x1 PUSH1 0xA0 SHL SUB AND EQ PUSH2 0x4F9 JUMPI PUSH1 0x40 MLOAD PUSH3 0x461BCD PUSH1 0xE5 SHL DUP2 MSTORE PUSH1 0x4 ADD PUSH2 0x374 SWAP1 PUSH2 0xFBC JUMP JUMPDEST PUSH1 0x8 SSTORE JUMP JUMPDEST CALLER PUSH2 0x507 PUSH2 0x771 JUMP JUMPDEST PUSH1 0x1 PUSH1 0x1 PUSH1 0xA0 SHL SUB AND EQ PUSH2 0x52D JUMPI PUSH1 0x40 MLOAD PUSH3 0x461BCD PUSH1 0xE5 SHL DUP2 MSTORE PUSH1 0x4 ADD PUSH2 0x374 SWAP1 PUSH2 0xFBC JUMP JUMPDEST PUSH1 0xA DUP2 GT ISZERO PUSH2 0x54E JUMPI PUSH1 0x40 MLOAD PUSH3 0x461BCD PUSH1 0xE5 SHL DUP2 MSTORE PUSH1 0x4 ADD PUSH2 0x374 SWAP1 PUSH2 0xF97 JUMP JUMPDEST PUSH1 0x6 DUP2 SWAP1 SSTORE PUSH1 0x40 MLOAD DUP2 DUP2 MSTORE PUSH32 0x8FB679AA627958FC7143B0829745D581E0F5E98599847E7097749CE89D8C88E0 SWAP1 PUSH1 0x20 ADD PUSH2 0x3FF JUMP JUMPDEST PUSH1 0x2 DUP7 PUSH1 0x2 DUP2 GT ISZERO PUSH2 0x5A5 JUMPI PUSH4 0x4E487B71 PUSH1 0xE0 SHL PUSH1 0x0 MSTORE PUSH1 0x21 PUSH1 0x4 MSTORE PUSH1 0x24 PUSH1 0x0 REVERT JUMPDEST EQ DUP1 PUSH2 0x5D0 JUMPI POP PUSH1 0x1 DUP7 PUSH1 0x2 DUP2 GT ISZERO PUSH2 0x5CE JUMPI PUSH4 0x4E487B71 PUSH1 0xE0 SHL PUSH1 0x0 MSTORE PUSH1 0x21 PUSH1 0x4 MSTORE PUSH1 0x24 PUSH1 0x0 REVERT JUMPDEST EQ JUMPDEST PUSH2 0x610 JUMPI PUSH1 0x40 MLOAD PUSH3 0x461BCD PUSH1 0xE5 SHL DUP2 MSTORE PUSH1 0x20 PUSH1 0x4 DUP3 ADD MSTORE PUSH1 0x11 PUSH1 0x24 DUP3 ADD MSTORE PUSH17 0x57726F6E67206F7074696F6E2074797065 PUSH1 0x78 SHL PUSH1 0x44 DUP3 ADD MSTORE PUSH1 0x64 ADD PUSH2 0x374 JUMP JUMPDEST PUSH3 0x15180 DUP6 LT ISZERO PUSH2 0x659 JUMPI PUSH1 0x40 MLOAD PUSH3 0x461BCD PUSH1 0xE5 SHL DUP2 MSTORE PUSH1 0x20 PUSH1 0x4 DUP3 ADD MSTORE PUSH1 0x13 PUSH1 0x24 DUP3 ADD MSTORE PUSH19 0x14195C9A5BD9081A5CC81D1BDBC81CDA1BDC9D PUSH1 0x6A SHL PUSH1 0x44 DUP3 ADD MSTORE PUSH1 0x64 ADD PUSH2 0x374 JUMP JUMPDEST PUSH3 0x76A700 DUP6 GT ISZERO PUSH2 0x6A1 JUMPI PUSH1 0x40 MLOAD PUSH3 0x461BCD PUSH1 0xE5 SHL DUP2 MSTORE PUSH1 0x20 PUSH1 0x4 DUP3 ADD MSTORE PUSH1 0x12 PUSH1 0x24 DUP3 ADD MSTORE PUSH18 0x506572696F6420697320746F6F206C6F6E67 PUSH1 0x70 SHL PUSH1 0x44 DUP3 ADD MSTORE PUSH1 0x64 ADD PUSH2 0x374 JUMP JUMPDEST DUP3 DUP5 GT PUSH2 0x6F0 JUMPI PUSH1 0x40 MLOAD PUSH3 0x461BCD PUSH1 0xE5 SHL DUP2 MSTORE PUSH1 0x20 PUSH1 0x4 DUP3 ADD MSTORE PUSH1 0x1D PUSH1 0x24 DUP3 ADD MSTORE PUSH32 0x507269636520646966666572656E636520697320746F6F206C61726765000000 PUSH1 0x44 DUP3 ADD MSTORE PUSH1 0x64 ADD PUSH2 0x374 JUMP JUMPDEST DUP2 DUP2 LT ISZERO PUSH2 0x72E JUMPI PUSH1 0x40 MLOAD PUSH3 0x461BCD PUSH1 0xE5 SHL DUP2 MSTORE PUSH1 0x20 PUSH1 0x4 DUP3 ADD MSTORE PUSH1 0xB PUSH1 0x24 DUP3 ADD MSTORE PUSH11 0x57726F6E672076616C7565 PUSH1 0xA8 SHL PUSH1 0x44 DUP3 ADD MSTORE PUSH1 0x64 ADD PUSH2 0x374 JUMP JUMPDEST POP POP POP POP POP POP JUMP JUMPDEST CALLER PUSH2 0x73F PUSH2 0x771 JUMP JUMPDEST PUSH1 0x1 PUSH1 0x1 PUSH1 0xA0 SHL SUB AND EQ PUSH2 0x765 JUMPI PUSH1 0x40 MLOAD PUSH3 0x461BCD PUSH1 0xE5 SHL DUP2 MSTORE PUSH1 0x4 ADD PUSH2 0x374 SWAP1 PUSH2 0xFBC JUMP JUMPDEST PUSH2 0x76F PUSH1 0x0 PUSH2 0xE40 JUMP JUMPDEST JUMP JUMPDEST PUSH1 0x0 SLOAD PUSH1 0x1 PUSH1 0x1 PUSH1 0xA0 SHL SUB AND SWAP1 JUMP JUMPDEST CALLER PUSH2 0x789 PUSH2 0x771 JUMP JUMPDEST PUSH1 0x1 PUSH1 0x1 PUSH1 0xA0 SHL SUB AND EQ PUSH2 0x7AF JUMPI PUSH1 0x40 MLOAD PUSH3 0x461BCD PUSH1 0xE5 SHL DUP2 MSTORE PUSH1 0x4 ADD PUSH2 0x374 SWAP1 PUSH2 0xFBC JUMP JUMPDEST PUSH1 0x1 PUSH1 0x1 PUSH1 0xA0 SHL SUB DUP2 AND PUSH2 0x7C2 JUMPI PUSH1 0x0 DUP1 REVERT JUMPDEST PUSH1 0x7 DUP1 SLOAD PUSH1 0x1 PUSH1 0x1 PUSH1 0xA0 SHL SUB NOT AND PUSH1 0x1 PUSH1 0x1 PUSH1 0xA0 SHL SUB DUP4 AND OR SWAP1 SSTORE PUSH1 0x40 MLOAD PUSH32 0x92F6C1E8DF34C666F737A2407B4E63D3A77F133B69FDF70F01B5E3B8072551F6 SWAP1 PUSH2 0x3FF SWAP1 DUP4 SWAP1 PUSH2 0xF5B JUMP JUMPDEST CALLER PUSH2 0x816 PUSH2 0x771 JUMP JUMPDEST PUSH1 0x1 PUSH1 0x1 PUSH1 0xA0 SHL SUB AND EQ PUSH2 0x83C JUMPI PUSH1 0x40 MLOAD PUSH3 0x461BCD PUSH1 0xE5 SHL DUP2 MSTORE PUSH1 0x4 ADD PUSH2 0x374 SWAP1 PUSH2 0xFBC JUMP JUMPDEST PUSH1 0xC PUSH1 0x0 SWAP1 SLOAD SWAP1 PUSH2 0x100 EXP SWAP1 DIV PUSH1 0x1 PUSH1 0x1 PUSH1 0xA0 SHL SUB AND PUSH1 0x1 PUSH1 0x1 PUSH1 0xA0 SHL SUB AND PUSH4 0xA834069B PUSH1 0x40 MLOAD DUP2 PUSH4 0xFFFFFFFF AND PUSH1 0xE0 SHL DUP2 MSTORE PUSH1 0x4 ADD PUSH1 0x20 PUSH1 0x40 MLOAD DUP1 DUP4 SUB DUP2 DUP7 DUP1 EXTCODESIZE ISZERO DUP1 ISZERO PUSH2 0x88A JUMPI PUSH1 0x0 DUP1 REVERT JUMPDEST POP GAS STATICCALL ISZERO DUP1 ISZERO PUSH2 0x89E JUMPI RETURNDATASIZE PUSH1 0x0 DUP1 RETURNDATACOPY RETURNDATASIZE PUSH1 0x0 REVERT JUMPDEST POP POP POP POP PUSH1 0x40 MLOAD RETURNDATASIZE PUSH1 0x1F NOT PUSH1 0x1F DUP3 ADD AND DUP3 ADD DUP1 PUSH1 0x40 MSTORE POP DUP2 ADD SWAP1 PUSH2 0x8C2 SWAP2 SWAP1 PUSH2 0xF43 JUMP JUMPDEST TIMESTAMP GT PUSH2 0x923 JUMPI PUSH1 0x40 MLOAD PUSH3 0x461BCD PUSH1 0xE5 SHL DUP2 MSTORE PUSH1 0x20 PUSH1 0x4 DUP3 ADD MSTORE PUSH1 0x2A PUSH1 0x24 DUP3 ADD MSTORE PUSH32 0x43616E2774206368616E676520737472696B65206265666F7265207468652065 PUSH1 0x44 DUP3 ADD MSTORE PUSH10 0x787069727920656E6473 PUSH1 0xB0 SHL PUSH1 0x64 DUP3 ADD MSTORE PUSH1 0x84 ADD PUSH2 0x374 JUMP JUMPDEST PUSH1 0x9 DUP2 SWAP1 SSTORE PUSH1 0x40 MLOAD DUP2 DUP2 MSTORE PUSH32 0xD7120AE25FFB24B73B21C585F172272CCE904BDD03D819732ECC914F4CE49CF0 SWAP1 PUSH1 0x20 ADD PUSH2 0x3FF JUMP JUMPDEST CALLER PUSH2 0x961 PUSH2 0x771 JUMP JUMPDEST PUSH1 0x1 PUSH1 0x1 PUSH1 0xA0 SHL SUB AND EQ PUSH2 0x987 JUMPI PUSH1 0x40 MLOAD PUSH3 0x461BCD PUSH1 0xE5 SHL DUP2 MSTORE PUSH1 0x4 ADD PUSH2 0x374 SWAP1 PUSH2 0xFBC JUMP JUMPDEST PUSH2 0x12C DUP2 LT ISZERO PUSH2 0x9EE JUMPI PUSH1 0x40 MLOAD PUSH3 0x461BCD PUSH1 0xE5 SHL DUP2 MSTORE PUSH1 0x20 PUSH1 0x4 DUP3 ADD MSTORE PUSH1 0x2C PUSH1 0x24 DUP3 ADD MSTORE PUSH32 0x4D6178506572696F64206E6565647320746F2062652067726561746572207468 PUSH1 0x44 DUP3 ADD MSTORE PUSH12 0x616E2035206D696E75746573 PUSH1 0xA0 SHL PUSH1 0x64 DUP3 ADD MSTORE PUSH1 0x84 ADD PUSH2 0x374 JUMP JUMPDEST PUSH1 0xA DUP2 SWAP1 SSTORE PUSH1 0x40 MLOAD DUP2 DUP2 MSTORE PUSH32 0x967EEAC7CCAA5705556859408DDB017BAC37AFA817DD8FF3D27CF4EA1171A66 SWAP1 PUSH1 0x20 ADD PUSH2 0x3FF JUMP JUMPDEST CALLER PUSH2 0xA2C PUSH2 0x771 JUMP JUMPDEST PUSH1 0x1 PUSH1 0x1 PUSH1 0xA0 SHL SUB AND EQ PUSH2 0xA52 JUMPI PUSH1 0x40 MLOAD PUSH3 0x461BCD PUSH1 0xE5 SHL DUP2 MSTORE PUSH1 0x4 ADD PUSH2 0x374 SWAP1 PUSH2 0xFBC JUMP JUMPDEST PUSH1 0x64 DUP2 LT ISZERO PUSH2 0xAAD JUMPI PUSH1 0x40 MLOAD PUSH3 0x461BCD PUSH1 0xE5 SHL DUP2 MSTORE PUSH1 0x20 PUSH1 0x4 DUP3 ADD MSTORE PUSH1 0x21 PUSH1 0x24 DUP3 ADD MSTORE PUSH32 0x496D706C696564566F6C52617465206C696D697420697320746F6F20736D616C PUSH1 0x44 DUP3 ADD MSTORE PUSH1 0x1B PUSH1 0xFA SHL PUSH1 0x64 DUP3 ADD MSTORE PUSH1 0x84 ADD PUSH2 0x374 JUMP JUMPDEST PUSH1 0x1 DUP2 SWAP1 SSTORE PUSH1 0x40 MLOAD DUP2 DUP2 MSTORE PUSH32 0x3E0C59249D1A9C5F08383BDBDFBC45517A71B76E72223AE649C576E4D1258696 SWAP1 PUSH1 0x20 ADD PUSH2 0x3FF JUMP JUMPDEST CALLER PUSH2 0xAEB PUSH2 0x771 JUMP JUMPDEST PUSH1 0x1 PUSH1 0x1 PUSH1 0xA0 SHL SUB AND EQ PUSH2 0xB11 JUMPI PUSH1 0x40 MLOAD PUSH3 0x461BCD PUSH1 0xE5 SHL DUP2 MSTORE PUSH1 0x4 ADD PUSH2 0x374 SWAP1 PUSH2 0xFBC JUMP JUMPDEST PUSH1 0x64 DUP2 GT ISZERO PUSH2 0xB6E JUMPI PUSH1 0x40 MLOAD PUSH3 0x461BCD PUSH1 0xE5 SHL DUP2 MSTORE PUSH1 0x20 PUSH1 0x4 DUP3 ADD MSTORE PUSH1 0x24 DUP1 DUP3 ADD MSTORE PUSH32 0x526566657272616C52657761726450657263656E7461676520697320746F6F20 PUSH1 0x44 DUP3 ADD MSTORE PUSH4 0xD0D2CED PUSH1 0xE3 SHL PUSH1 0x64 DUP3 ADD MSTORE PUSH1 0x84 ADD PUSH2 0x374 JUMP JUMPDEST PUSH1 0x5 DUP2 SWAP1 SSTORE PUSH1 0x40 MLOAD DUP2 DUP2 MSTORE PUSH32 0xC089466003B94FFB5787D1D1AFFE1C743F8CA63F949D2296CFA4D7986601ADE SWAP1 PUSH1 0x20 ADD PUSH2 0x3FF JUMP JUMPDEST CALLER PUSH2 0xBAC PUSH2 0x771 JUMP JUMPDEST PUSH1 0x1 PUSH1 0x1 PUSH1 0xA0 SHL SUB AND EQ PUSH2 0xBD2 JUMPI PUSH1 0x40 MLOAD PUSH3 0x461BCD PUSH1 0xE5 SHL DUP2 MSTORE PUSH1 0x4 ADD PUSH2 0x374 SWAP1 PUSH2 0xFBC JUMP JUMPDEST DUP1 PUSH1 0x32 GT ISZERO DUP1 ISZERO PUSH2 0xBE4 JUMPI POP PUSH1 0x64 DUP2 GT ISZERO JUMPDEST PUSH2 0xC00 JUMPI PUSH1 0x40 MLOAD PUSH3 0x461BCD PUSH1 0xE5 SHL DUP2 MSTORE PUSH1 0x4 ADD PUSH2 0x374 SWAP1 PUSH2 0xF97 JUMP JUMPDEST PUSH1 0x2 DUP2 SWAP1 SSTORE PUSH1 0x40 MLOAD DUP2 DUP2 MSTORE PUSH32 0x66B26A0DFAA5FC9F5C7432381208AA4BD7F13F4489299B52F09F1AF7669BB93B SWAP1 PUSH1 0x20 ADD PUSH2 0x3FF JUMP JUMPDEST CALLER PUSH2 0xC3E PUSH2 0x771 JUMP JUMPDEST PUSH1 0x1 PUSH1 0x1 PUSH1 0xA0 SHL SUB AND EQ PUSH2 0xC64 JUMPI PUSH1 0x40 MLOAD PUSH3 0x461BCD PUSH1 0xE5 SHL DUP2 MSTORE PUSH1 0x4 ADD PUSH2 0x374 SWAP1 PUSH2 0xFBC JUMP JUMPDEST PUSH1 0x64 DUP2 LT PUSH2 0xCD5 JUMPI PUSH1 0x40 MLOAD PUSH3 0x461BCD PUSH1 0xE5 SHL DUP2 MSTORE PUSH1 0x20 PUSH1 0x4 DUP3 ADD MSTORE PUSH1 0x38 PUSH1 0x24 DUP3 ADD MSTORE PUSH32 0x4F7074696F6E53697A65506572426C6F636B4C696D697450657263656E74206E PUSH1 0x44 DUP3 ADD MSTORE PUSH24 0x6565647320746F206265206C657373207468616E2031303 PUSH1 0x44 SHL PUSH1 0x64 DUP3 ADD MSTORE PUSH1 0x84 ADD PUSH2 0x374 JUMP JUMPDEST PUSH1 0xB DUP2 SWAP1 SSTORE PUSH1 0x40 MLOAD DUP2 DUP2 MSTORE PUSH32 0x5CA84F51F1B091675330ABC6E5665566A97744B04121DABC6BDA4B3D3503945F SWAP1 PUSH1 0x20 ADD PUSH2 0x3FF JUMP JUMPDEST CALLER PUSH2 0xD13 PUSH2 0x771 JUMP JUMPDEST PUSH1 0x1 PUSH1 0x1 PUSH1 0xA0 SHL SUB AND EQ PUSH2 0xD39 JUMPI PUSH1 0x40 MLOAD PUSH3 0x461BCD PUSH1 0xE5 SHL DUP2 MSTORE PUSH1 0x4 ADD PUSH2 0x374 SWAP1 PUSH2 0xFBC JUMP JUMPDEST PUSH1 0x1 PUSH1 0x1 PUSH1 0xA0 SHL SUB DUP2 AND PUSH2 0xD9E JUMPI PUSH1 0x40 MLOAD PUSH3 0x461BCD PUSH1 0xE5 SHL DUP2 MSTORE PUSH1 0x20 PUSH1 0x4 DUP3 ADD MSTORE PUSH1 0x26 PUSH1 0x24 DUP3 ADD MSTORE PUSH32 0x4F776E61626C653A206E6577206F776E657220697320746865207A65726F2061 PUSH1 0x44 DUP3 ADD MSTORE PUSH6 0x646472657373 PUSH1 0xD0 SHL PUSH1 0x64 DUP3 ADD MSTORE PUSH1 0x84 ADD PUSH2 0x374 JUMP JUMPDEST PUSH2 0xDA7 DUP2 PUSH2 0xE40 JUMP JUMPDEST POP JUMP JUMPDEST CALLER PUSH2 0xDB3 PUSH2 0x771 JUMP JUMPDEST PUSH1 0x1 PUSH1 0x1 PUSH1 0xA0 SHL SUB AND EQ PUSH2 0xDD9 JUMPI PUSH1 0x40 MLOAD PUSH3 0x461BCD PUSH1 0xE5 SHL DUP2 MSTORE PUSH1 0x4 ADD PUSH2 0x374 SWAP1 PUSH2 0xFBC JUMP JUMPDEST PUSH1 0xC DUP1 SLOAD DUP3 SWAP2 SWAP1 PUSH1 0xFF PUSH1 0xA0 SHL NOT AND PUSH1 0x1 PUSH1 0xA0 SHL DUP4 PUSH1 0x3 DUP2 GT ISZERO PUSH2 0xE0C JUMPI PUSH4 0x4E487B71 PUSH1 0xE0 SHL PUSH1 0x0 MSTORE PUSH1 0x21 PUSH1 0x4 MSTORE PUSH1 0x24 PUSH1 0x0 REVERT JUMPDEST MUL OR SWAP1 SSTORE POP PUSH32 0x75E98309D621801FC34E8CE7FA6EAA10B82599A58639171FE865E39BB4728D48 DUP2 PUSH1 0x40 MLOAD PUSH2 0x3FF SWAP2 SWAP1 PUSH2 0xF6F JUMP JUMPDEST PUSH1 0x0 DUP1 SLOAD PUSH1 0x1 PUSH1 0x1 PUSH1 0xA0 SHL SUB DUP4 DUP2 AND PUSH1 0x1 PUSH1 0x1 PUSH1 0xA0 SHL SUB NOT DUP4 AND DUP2 OR DUP5 SSTORE PUSH1 0x40 MLOAD SWAP2 SWAP1 SWAP3 AND SWAP3 DUP4 SWAP2 PUSH32 0x8BE0079C531659141344CD1FD0A4F28419497F9722A3DAAFE3B4186F6B6457E0 SWAP2 SWAP1 LOG3 POP POP JUMP JUMPDEST PUSH1 0x0 PUSH1 0x20 DUP3 DUP5 SUB SLT ISZERO PUSH2 0xEA1 JUMPI DUP1 DUP2 REVERT JUMPDEST DUP2 CALLDATALOAD PUSH1 0x1 PUSH1 0x1 PUSH1 0xA0 SHL SUB DUP2 AND DUP2 EQ PUSH2 0xEB7 JUMPI DUP2 DUP3 REVERT JUMPDEST SWAP4 SWAP3 POP POP POP JUMP JUMPDEST PUSH1 0x0 DUP1 PUSH1 0x0 DUP1 PUSH1 0x0 DUP1 PUSH1 0xC0 DUP8 DUP10 SUB SLT ISZERO PUSH2 0xED6 JUMPI DUP2 DUP3 REVERT JUMPDEST DUP7 CALLDATALOAD PUSH1 0x3 DUP2 LT PUSH2 0xEE4 JUMPI DUP3 DUP4 REVERT JUMPDEST SWAP9 PUSH1 0x20 DUP9 ADD CALLDATALOAD SWAP9 POP PUSH1 0x40 DUP9 ADD CALLDATALOAD SWAP8 PUSH1 0x60 DUP2 ADD CALLDATALOAD SWAP8 POP PUSH1 0x80 DUP2 ADD CALLDATALOAD SWAP7 POP PUSH1 0xA0 ADD CALLDATALOAD SWAP5 POP SWAP3 POP POP POP JUMP JUMPDEST PUSH1 0x0 PUSH1 0x20 DUP3 DUP5 SUB SLT ISZERO PUSH2 0xF1D JUMPI DUP1 DUP2 REVERT JUMPDEST DUP2 CALLDATALOAD PUSH1 0x4 DUP2 LT PUSH2 0xEB7 JUMPI DUP2 DUP3 REVERT JUMPDEST PUSH1 0x0 PUSH1 0x20 DUP3 DUP5 SUB SLT ISZERO PUSH2 0xF3C JUMPI DUP1 DUP2 REVERT JUMPDEST POP CALLDATALOAD SWAP2 SWAP1 POP JUMP JUMPDEST PUSH1 0x0 PUSH1 0x20 DUP3 DUP5 SUB SLT ISZERO PUSH2 0xF54 JUMPI DUP1 DUP2 REVERT JUMPDEST POP MLOAD SWAP2 SWAP1 POP JUMP JUMPDEST PUSH1 0x1 PUSH1 0x1 PUSH1 0xA0 SHL SUB SWAP2 SWAP1 SWAP2 AND DUP2 MSTORE PUSH1 0x20 ADD SWAP1 JUMP JUMPDEST PUSH1 0x20 DUP2 ADD PUSH1 0x4 DUP4 LT PUSH2 0xF91 JUMPI PUSH4 0x4E487B71 PUSH1 0xE0 SHL PUSH1 0x0 MSTORE PUSH1 0x21 PUSH1 0x4 MSTORE PUSH1 0x24 PUSH1 0x0 REVERT JUMPDEST SWAP2 SWAP1 MSTORE SWAP1 JUMP JUMPDEST PUSH1 0x20 DUP1 DUP3 MSTORE PUSH1 0xB SWAP1 DUP3 ADD MSTORE PUSH11 0x77726F6E672076616C7565 PUSH1 0xA8 SHL PUSH1 0x40 DUP3 ADD MSTORE PUSH1 0x60 ADD SWAP1 JUMP JUMPDEST PUSH1 0x20 DUP1 DUP3 MSTORE DUP2 DUP2 ADD MSTORE PUSH32 0x4F776E61626C653A2063616C6C6572206973206E6F7420746865206F776E6572 PUSH1 0x40 DUP3 ADD MSTORE PUSH1 0x60 ADD SWAP1 JUMP INVALID LOG2 PUSH5 0x6970667358 0x22 SLT KECCAK256 DUP16 0xBD SSTORE ORIGIN CODECOPY XOR STOP DUP7 LOG1 SWAP2 DUP16 0x4F 0x27 PUSH31 0xA8A7776EC49E962921AF82B736ED034D086964736F6C634300080400330000 ",
  "sha1": "3310f891ae2e68a177b08ff1c4f4ecca03634433",
  "source": "pragma solidity ^0.8.0;\n\n// SPDX-License-Identifier: BUSL-1.1\n\nimport \"@openzeppelin/contracts/access/Ownable.sol\";\nimport \"../Pool/BufferIBFRPoolV2.sol\";\n\n/**\n * @author Heisenberg\n * @title Buffer BNB Bidirectional (Call and Put) Options\n * @notice Buffer BNB Options Contract\n */\ncontract OptionConfig is Ownable, IBufferOptions, IOptionsConfig {\n    uint256 public impliedVolRate;\n    uint256 public optionCollateralizationRatio = 100;\n    uint256 public settlementFeePercentage = 500; // Adding 2 more decimal places for precision, eg. 1.55%\n    uint256 public stakingFeePercentage = 50;\n    uint256 public referralRewardPercentage = 0;\n    uint256 public nftSaleRoyaltyPercentage = 5;\n    uint256 internal constant PRICE_DECIMALS = 1e8;\n    address public settlementFeeRecipient;\n    uint256 public utilizationRate = 60e8;\n    uint256 public fixedStrike;\n    uint256 public maxPeriod = 24 hours;\n    uint256 public optionSizePerBlockLimitPercent = 5;\n    BufferIBFRPoolV2 public pool;\n    PermittedTradingType public permittedTradingType;\n\n    constructor(\n        address staking,\n        uint256 initialImpliedVolRate,\n        uint256 initialStrike,\n        BufferIBFRPoolV2 _pool\n    ) {\n        settlementFeeRecipient = staking;\n        fixedStrike = initialStrike;\n        impliedVolRate = initialImpliedVolRate;\n        pool = _pool;\n    }\n\n    /**\n     * @notice Check the validity of the input params\n     * @param optionType Call or Put option type\n     * @param period Option period in seconds (1 days <= period <= 90 days)\n     * @param amount Option amount\n     * @param strikeFee strike fee for the option\n     * @param totalFee total fee for the option\n     * @param msgValue the msg.value given to the Create function\n     */\n    function checkParams(\n        IBufferOptions.OptionType optionType,\n        uint256 period,\n        uint256 amount,\n        uint256 strikeFee,\n        uint256 totalFee,\n        uint256 msgValue\n    ) external pure {\n        require(\n            optionType == IBufferOptions.OptionType.Call ||\n                optionType == IBufferOptions.OptionType.Put,\n            \"Wrong option type\"\n        );\n        require(period >= 1 days, \"Period is too short\");\n        require(period <= 90 days, \"Period is too long\");\n        require(amount > strikeFee, \"Price difference is too large\");\n        require(msgValue >= totalFee, \"Wrong value\");\n    }\n\n    /**\n     * @notice Used for adjusting the maxPeriod\n     * @param value New maxPeriod\n     */\n    function setMaxPeriod(uint256 value) external onlyOwner {\n        require(\n            value >= 5 minutes,\n            \"MaxPeriod needs to be greater than 5 minutes\"\n        );\n        maxPeriod = value;\n        emit UpdateMaxPeriod(value);\n    }\n\n    /**\n     * @notice Used for adjusting the option size per block limit percent\n     * @param value New option size per block limit percent value\n     */\n    function setOptionSizePerBlockLimitPercent(uint256 value)\n        external\n        onlyOwner\n    {\n        require(\n            value < 100,\n            \"OptionSizePerBlockLimitPercent needs to be less than 100\"\n        );\n        optionSizePerBlockLimitPercent = value;\n        emit UpdateOptionSizePerBlockLimitPercent(value);\n    }\n\n    /**\n     * @notice Used for adjusting the options prices while balancing asset's implied volatility rate\n     * @param value New IVRate value\n     */\n    function setImpliedVolRate(uint256 value) external onlyOwner {\n        require(value >= 100, \"ImpliedVolRate limit is too small\");\n        impliedVolRate = value;\n        emit UpdateImpliedVolatility(value);\n    }\n\n    function setTradingPermission(PermittedTradingType permissionType)\n        external\n        onlyOwner\n    {\n        permittedTradingType = permissionType;\n        emit UpdateTradingPermission(permissionType);\n    }\n\n    /**\n     * @notice Used for changing strike\n     * @param value New fixedStrike value\n     */\n    function setStrike(uint256 value) external onlyOwner {\n        require(\n            block.timestamp > pool.fixedExpiry(),\n            \"Can't change strike before the expiry ends\"\n        );\n        fixedStrike = value;\n        emit UpdateStrike(value);\n    }\n\n    /**\n     * @notice Used for adjusting the settlement fee percentage\n     * @param value New Settlement Fee Percentage\n     */\n    function setSettlementFeePercentage(uint256 value) external onlyOwner {\n        require(value < 20, \"SettlementFeePercentage is too high\");\n        settlementFeePercentage = value;\n        emit UpdateSettlementFeePercentage(value);\n    }\n\n    /**\n     * @notice Used for changing settlementFeeRecipient\n     * @param recipient New settlementFee recipient address\n     */\n    function setSettlementFeeRecipient(address recipient) external onlyOwner {\n        require(address(recipient) != address(0));\n        settlementFeeRecipient = recipient;\n        emit UpdateSettlementFeeRecipient(address(recipient));\n    }\n\n    /**\n     * @notice Used for adjusting the staking fee percentage\n     * @param value New Staking Fee Percentage\n     */\n    function setStakingFeePercentage(uint256 value) external onlyOwner {\n        require(value <= 100, \"StakingFeePercentage is too high\");\n        stakingFeePercentage = value;\n        emit UpdateStakingFeePercentage(value);\n    }\n\n    /**\n     * @notice Used for adjusting the referral reward percentage\n     * @param value New Referral Reward Percentage\n     */\n    function setReferralRewardPercentage(uint256 value) external onlyOwner {\n        require(value <= 100, \"ReferralRewardPercentage is too high\");\n        referralRewardPercentage = value;\n        emit UpdateReferralRewardPercentage(value);\n    }\n\n    /**\n     * @notice Used for changing option collateralization ratio\n     * @param value New optionCollateralizationRatio value\n     */\n    function setOptionCollaterizationRatio(uint256 value) external onlyOwner {\n        require(50 <= value && value <= 100, \"wrong value\");\n        optionCollateralizationRatio = value;\n        emit UpdateOptionCollaterizationRatio(value);\n    }\n\n    /**\n     * @notice Used for changing nftSaleRoyaltyPercentage\n     * @param value New nftSaleRoyaltyPercentage value\n     */\n    function setNFTSaleRoyaltyPercentage(uint256 value) external onlyOwner {\n        require(value <= 10, \"wrong value\");\n        nftSaleRoyaltyPercentage = value;\n        emit UpdateNFTSaleRoyaltyPercentage(value);\n    }\n\n    /**\n     * @notice Used for updating utilizationRate value\n     * @param value New utilizationRate value\n     **/\n    function setUtilizationRate(uint256 value) external onlyOwner {\n        utilizationRate = value;\n    }\n}\n",
  "sourcePath": "contracts/Options/OptionConfig.sol",
  "type": "contract"
}