{
  "abi": [
    {
      "inputs": [
        {
          "internalType": "address[]",
          "name": "_cTokens",
          "type": "address[]"
        },
        {
          "internalType": "address[]",
          "name": "_assets",
          "type": "address[]"
        },
        {
          "internalType": "address[]",
          "name": "_priceProviders",
          "type": "address[]"
        }
      ],
      "stateMutability": "nonpayable",
      "type": "constructor"
    },
    {
      "anonymous": false,
      "inputs": [
        {
          "indexed": false,
          "internalType": "uint256",
          "name": "totalTvl",
          "type": "uint256"
        }
      ],
      "name": "Sync",
      "type": "event"
    },
    {
      "inputs": [],
      "name": "blockTimestampLast",
      "outputs": [
        {
          "internalType": "uint256",
          "name": "",
          "type": "uint256"
        }
      ],
      "stateMutability": "view",
      "type": "function"
    },
    {
      "inputs": [
        {
          "internalType": "uint256",
          "name": "",
          "type": "uint256"
        }
      ],
      "name": "cTokens",
      "outputs": [
        {
          "internalType": "address",
          "name": "",
          "type": "address"
        }
      ],
      "stateMutability": "view",
      "type": "function"
    },
    {
      "inputs": [],
      "name": "getCurrentCumulativeTvl",
      "outputs": [
        {
          "internalType": "uint256",
          "name": "currentCumulativeTvl",
          "type": "uint256"
        },
        {
          "internalType": "uint256",
          "name": "blockTimestamp",
          "type": "uint256"
        },
        {
          "internalType": "uint256",
          "name": "updatedTotalTvl",
          "type": "uint256"
        }
      ],
      "stateMutability": "view",
      "type": "function"
    },
    {
      "inputs": [],
      "name": "getTotalTvl",
      "outputs": [
        {
          "internalType": "uint256",
          "name": "tvl",
          "type": "uint256"
        }
      ],
      "stateMutability": "view",
      "type": "function"
    },
    {
      "inputs": [
        {
          "internalType": "address",
          "name": "",
          "type": "address"
        }
      ],
      "name": "priceProviders",
      "outputs": [
        {
          "internalType": "address",
          "name": "",
          "type": "address"
        }
      ],
      "stateMutability": "view",
      "type": "function"
    },
    {
      "inputs": [],
      "name": "totalTvl",
      "outputs": [
        {
          "internalType": "uint256",
          "name": "",
          "type": "uint256"
        }
      ],
      "stateMutability": "view",
      "type": "function"
    },
    {
      "inputs": [],
      "name": "tvlCumulativeLast",
      "outputs": [
        {
          "internalType": "uint256",
          "name": "",
          "type": "uint256"
        }
      ],
      "stateMutability": "view",
      "type": "function"
    },
    {
      "inputs": [],
      "name": "update",
      "outputs": [],
      "stateMutability": "nonpayable",
      "type": "function"
    }
  ],
  "bytecode": "60806040523480156200001157600080fd5b5060405162000ee038038062000ee083398101604081905262000034916200025f565b82516200004990600090602086019062000111565b5060005b825181101562000107578181815181106200007857634e487b7160e01b600052603260045260246000fd5b602002602001015160046000858481518110620000a557634e487b7160e01b600052603260045260246000fd5b60200260200101516001600160a01b03166001600160a01b0316815260200190815260200160002060006101000a8154816001600160a01b0302191690836001600160a01b031602179055508080620000fe90620002ec565b9150506200004d565b505050506200032a565b82805482825590600052602060002090810192821562000169579160200282015b828111156200016957825182546001600160a01b0319166001600160a01b0390911617825560209092019160019091019062000132565b50620001779291506200017b565b5090565b5b808211156200017757600081556001016200017c565b80516001600160a01b0381168114620001aa57600080fd5b919050565b600082601f830112620001c0578081fd5b815160206001600160401b0380831115620001df57620001df62000314565b8260051b604051601f19603f8301168101818110848211171562000207576200020762000314565b6040528481528381019250868401828801850189101562000226578687fd5b8692505b8583101562000253576200023e8162000192565b8452928401926001929092019184016200022a565b50979650505050505050565b60008060006060848603121562000274578283fd5b83516001600160401b03808211156200028b578485fd5b6200029987838801620001af565b94506020860151915080821115620002af578384fd5b620002bd87838801620001af565b93506040860151915080821115620002d3578283fd5b50620002e286828701620001af565b9150509250925092565b60006000198214156200030d57634e487b7160e01b81526011600452602481fd5b5060010190565b634e487b7160e01b600052604160045260246000fd5b610ba6806200033a6000396000f3fe608060405234801561001057600080fd5b50600436106100785760003560e01c8063143b85f71461007d57806315e57993146100995780635d54e395146100bc5780639c0a2b16146100fd578063a2e6204514610105578063c2d141be1461010f578063c5700a0214610122578063e0ca79e41461012b575b600080fd5b61008660015481565b6040519081526020015b60405180910390f35b6100a1610134565b60408051938452602084019290925290820152606001610090565b6100e56100ca366004610948565b6004602052600090815260409020546001600160a01b031681565b6040516001600160a01b039091168152602001610090565b6100866101f1565b61010d61045e565b005b6100e561011d366004610980565b6104ca565b61008660025481565b61008660035481565b60008080610146600160201b42610b18565b91506000600254836101589190610ae6565b90506101626101f1565b9150600082600354116101815760035461017c9084610ae6565b61018f565b8260035461018f9190610ae6565b9050600083600354116101a4576003546101a6565b835b905082156101e957826101d26101cd6101be856104f4565b6101c860026104f4565b610558565b610827565b6101dc90836109b0565b6101e69190610ac7565b95505b505050909192565b6000805b60005481101561045a57600080828154811061022157634e487b7160e01b600052603260045260246000fd5b600091825260208083209091015460408051636f307dc360e01b815290516001600160a01b0390921694508492636f307dc392600480840193829003018186803b15801561026e57600080fd5b505afa158015610282573d6000803e3d6000fd5b505050506040513d601f19601f820116820180604052508101906102a69190610964565b6001600160a01b03808216600081815260046020818152604080842054815163313ce56760e01b81529151979850889796169593949363313ce567938281019392829003018186803b1580156102fb57600080fd5b505afa15801561030f573d6000803e3d6000fd5b505050506040513d601f19601f820116820180604052508101906103339190610998565b61033e90600a610a1f565b826001600160a01b03166350d25bcd6040518163ffffffff1660e01b815260040160206040518083038186803b15801561037757600080fd5b505afa15801561038b573d6000803e3d6000fd5b505050506040513d601f19601f820116820180604052508101906103af9190610998565b866001600160a01b0316633b1d21a26040518163ffffffff1660e01b815260040160206040518083038186803b1580156103e857600080fd5b505afa1580156103fc573d6000803e3d6000fd5b505050506040513d601f19601f820116820180604052508101906104209190610998565b61042a9190610ac7565b61043491906109c8565b905061044081886109b0565b96505050505050808061045290610afd565b9150506101f5565b5090565b600080600061046b610134565b925092509250826001600082825461048391906109b0565b9091555050600381905560028290556040518181527f8a0df8ef054fae2c3d2d19a7b322e864870cc9fd3cb07fb9526309c596244bf49060200160405180910390a1505050565b600081815481106104da57600080fd5b6000918252602090912001546001600160a01b0316905081565b60008161050357506000919050565b81600061050f826108ab565b90506070811015610528578060700382901b915061053b565b607081111561053b576070810382901c91505b613fff0160701b6001600160701b03919091161760801b92915050565b6000617fff60f084811c8216919084901c81169082141561059e5780617fff141561058d575061ffff60ef1b91506108219050565b505050600160ff1b81168218610821565b80617fff14156105db57600160801b600160f01b038416156105ca575061ffff60ef1b91506108219050565b505050808218600160ff1b16610821565b600160801b600160ff1b03841661062557600160801b600160ff1b03851661060d575061ffff60ef1b91506108219050565b505050808218600160ff1b16617fff60f01b17610821565b6001600160701b03608085901c16816106415760019150610648565b600160701b175b6001600160701b03608087901c168361068757801561068257600061066c826108ab565b6001955060e20393840160711901939190911b90505b610691565b600160701b1760721b5b8181816106ae57634e487b7160e01b600052601260045260246000fd5b049050806106db57600160ff1b878718166106ca5760006106d0565b600160ff1b5b945050505050610821565b6001606c1b8110156106fd57634e487b7160e01b600052600160045260246000fd5b6000600160731b82101561073c57600160721b82101561073157600160711b82101561072a576070610734565b6071610734565b60725b60ff16610745565b610745826108ab565b90508361407101818601111561076357617fff9450600091506107f6565b83818601613ffc01101561077e5760009450600091506107f6565b83818601613f8c0110156107cb578385613ffc0111156107a9578385613ffc010382901b91506107c2565b8385613ffc0110156107c257613ffc8585030382901c91505b600094506107f6565b60708111156107de576070810382901c91505b6001600160701b038216915083818601613f8d010394505b81607086901b888a186001607f1b60801b1660801c6001600160801b0316171760801b955050505050505b92915050565b6000617fff60f083901c16613fff8110156108455750600092915050565b6001607f1b608084901c1061085957600080fd5b6140fe81111561086857600080fd5b600160701b6001600160701b03608085901c161761406f8210156108925761406f8290031c6108a4565b61406f8211156108a45761406e1982011b5b9392505050565b60008082116108b957600080fd5b6000600160801b83106108ce57608092831c92015b600160401b83106108e157604092831c92015b600160201b83106108f457602092831c92015b62010000831061090657601092831c92015b610100831061091757600892831c92015b6010831061092757600492831c92015b6004831061093757600292831c92015b600283106108215760010192915050565b600060208284031215610959578081fd5b81356108a481610b58565b600060208284031215610975578081fd5b81516108a481610b58565b600060208284031215610991578081fd5b5035919050565b6000602082840312156109a9578081fd5b5051919050565b600082198211156109c3576109c3610b2c565b500190565b6000826109d7576109d7610b42565b500490565b600181815b80851115610a175781600019048211156109fd576109fd610b2c565b80851615610a0a57918102915b93841c93908002906109e1565b509250929050565b60006108a48383600082610a3557506001610821565b81610a4257506000610821565b8160018114610a585760028114610a6257610a7e565b6001915050610821565b60ff841115610a7357610a73610b2c565b50506001821b610821565b5060208310610133831016604e8410600b8410161715610aa1575081810a610821565b610aab83836109dc565b8060001904821115610abf57610abf610b2c565b029392505050565b6000816000190483118215151615610ae157610ae1610b2c565b500290565b600082821015610af857610af8610b2c565b500390565b6000600019821415610b1157610b11610b2c565b5060010190565b600082610b2757610b27610b42565b500690565b634e487b7160e01b600052601160045260246000fd5b634e487b7160e01b600052601260045260246000fd5b6001600160a01b0381168114610b6d57600080fd5b5056fea2646970667358221220dfb1712453a33827ccb34d379652a5c02c6066236b99b3c6ddbc94ef369b753464736f6c63430008040033",
  "bytecodeSha1": "4244e0b367724061f1a94bbdf92e3c880d257191",
  "compiler": {
    "evm_version": "istanbul",
    "optimizer": {
      "enabled": true,
      "runs": 1
    },
    "version": "0.8.4+commit.c7e474f2"
  },
  "contractName": "TvlOracle",
  "language": "Solidity",
  "natspec": {
    "kind": "dev",
    "methods": {
      "getCurrentCumulativeTvl()": {
        "notice": "Returns latest Cumulative",
        "returns": {
          "blockTimestamp": "Current block timestamp",
          "currentCumulativeTvl": "Current cumulative",
          "updatedTotalTvl": "Current TVL"
        }
      },
      "getTotalTvl()": {
        "notice": "Returns the current tvl across all the cTokens",
        "returns": {
          "tvl": "Current tvl"
        }
      },
      "update()": {
        "notice": "Updates the tvl"
      }
    },
    "version": 1
  },
  "opcodes": "PUSH1 0x80 PUSH1 0x40 MSTORE CALLVALUE DUP1 ISZERO PUSH2 0x10 JUMPI PUSH1 0x0 DUP1 REVERT JUMPDEST POP PUSH1 0x4 CALLDATASIZE LT PUSH2 0x78 JUMPI PUSH1 0x0 CALLDATALOAD PUSH1 0xE0 SHR DUP1 PUSH4 0x143B85F7 EQ PUSH2 0x7D JUMPI DUP1 PUSH4 0x15E57993 EQ PUSH2 0x99 JUMPI DUP1 PUSH4 0x5D54E395 EQ PUSH2 0xBC JUMPI DUP1 PUSH4 0x9C0A2B16 EQ PUSH2 0xFD JUMPI DUP1 PUSH4 0xA2E62045 EQ PUSH2 0x105 JUMPI DUP1 PUSH4 0xC2D141BE EQ PUSH2 0x10F JUMPI DUP1 PUSH4 0xC5700A02 EQ PUSH2 0x122 JUMPI DUP1 PUSH4 0xE0CA79E4 EQ PUSH2 0x12B JUMPI JUMPDEST PUSH1 0x0 DUP1 REVERT JUMPDEST PUSH2 0x86 PUSH1 0x1 SLOAD DUP2 JUMP JUMPDEST PUSH1 0x40 MLOAD SWAP1 DUP2 MSTORE PUSH1 0x20 ADD JUMPDEST PUSH1 0x40 MLOAD DUP1 SWAP2 SUB SWAP1 RETURN JUMPDEST PUSH2 0xA1 PUSH2 0x134 JUMP JUMPDEST PUSH1 0x40 DUP1 MLOAD SWAP4 DUP5 MSTORE PUSH1 0x20 DUP5 ADD SWAP3 SWAP1 SWAP3 MSTORE SWAP1 DUP3 ADD MSTORE PUSH1 0x60 ADD PUSH2 0x90 JUMP JUMPDEST PUSH2 0xE5 PUSH2 0xCA CALLDATASIZE PUSH1 0x4 PUSH2 0x948 JUMP JUMPDEST PUSH1 0x4 PUSH1 0x20 MSTORE PUSH1 0x0 SWAP1 DUP2 MSTORE PUSH1 0x40 SWAP1 KECCAK256 SLOAD PUSH1 0x1 PUSH1 0x1 PUSH1 0xA0 SHL SUB AND DUP2 JUMP JUMPDEST PUSH1 0x40 MLOAD PUSH1 0x1 PUSH1 0x1 PUSH1 0xA0 SHL SUB SWAP1 SWAP2 AND DUP2 MSTORE PUSH1 0x20 ADD PUSH2 0x90 JUMP JUMPDEST PUSH2 0x86 PUSH2 0x1F1 JUMP JUMPDEST PUSH2 0x10D PUSH2 0x45E JUMP JUMPDEST STOP JUMPDEST PUSH2 0xE5 PUSH2 0x11D CALLDATASIZE PUSH1 0x4 PUSH2 0x980 JUMP JUMPDEST PUSH2 0x4CA JUMP JUMPDEST PUSH2 0x86 PUSH1 0x2 SLOAD DUP2 JUMP JUMPDEST PUSH2 0x86 PUSH1 0x3 SLOAD DUP2 JUMP JUMPDEST PUSH1 0x0 DUP1 DUP1 PUSH2 0x146 PUSH1 0x1 PUSH1 0x20 SHL TIMESTAMP PUSH2 0xB18 JUMP JUMPDEST SWAP2 POP PUSH1 0x0 PUSH1 0x2 SLOAD DUP4 PUSH2 0x158 SWAP2 SWAP1 PUSH2 0xAE6 JUMP JUMPDEST SWAP1 POP PUSH2 0x162 PUSH2 0x1F1 JUMP JUMPDEST SWAP2 POP PUSH1 0x0 DUP3 PUSH1 0x3 SLOAD GT PUSH2 0x181 JUMPI PUSH1 0x3 SLOAD PUSH2 0x17C SWAP1 DUP5 PUSH2 0xAE6 JUMP JUMPDEST PUSH2 0x18F JUMP JUMPDEST DUP3 PUSH1 0x3 SLOAD PUSH2 0x18F SWAP2 SWAP1 PUSH2 0xAE6 JUMP JUMPDEST SWAP1 POP PUSH1 0x0 DUP4 PUSH1 0x3 SLOAD GT PUSH2 0x1A4 JUMPI PUSH1 0x3 SLOAD PUSH2 0x1A6 JUMP JUMPDEST DUP4 JUMPDEST SWAP1 POP DUP3 ISZERO PUSH2 0x1E9 JUMPI DUP3 PUSH2 0x1D2 PUSH2 0x1CD PUSH2 0x1BE DUP6 PUSH2 0x4F4 JUMP JUMPDEST PUSH2 0x1C8 PUSH1 0x2 PUSH2 0x4F4 JUMP JUMPDEST PUSH2 0x558 JUMP JUMPDEST PUSH2 0x827 JUMP JUMPDEST PUSH2 0x1DC SWAP1 DUP4 PUSH2 0x9B0 JUMP JUMPDEST PUSH2 0x1E6 SWAP2 SWAP1 PUSH2 0xAC7 JUMP JUMPDEST SWAP6 POP JUMPDEST POP POP POP SWAP1 SWAP2 SWAP3 JUMP JUMPDEST PUSH1 0x0 DUP1 JUMPDEST PUSH1 0x0 SLOAD DUP2 LT ISZERO PUSH2 0x45A JUMPI PUSH1 0x0 DUP1 DUP3 DUP2 SLOAD DUP2 LT PUSH2 0x221 JUMPI PUSH4 0x4E487B71 PUSH1 0xE0 SHL PUSH1 0x0 MSTORE PUSH1 0x32 PUSH1 0x4 MSTORE PUSH1 0x24 PUSH1 0x0 REVERT JUMPDEST PUSH1 0x0 SWAP2 DUP3 MSTORE PUSH1 0x20 DUP1 DUP4 KECCAK256 SWAP1 SWAP2 ADD SLOAD PUSH1 0x40 DUP1 MLOAD PUSH4 0x6F307DC3 PUSH1 0xE0 SHL DUP2 MSTORE SWAP1 MLOAD PUSH1 0x1 PUSH1 0x1 PUSH1 0xA0 SHL SUB SWAP1 SWAP3 AND SWAP5 POP DUP5 SWAP3 PUSH4 0x6F307DC3 SWAP3 PUSH1 0x4 DUP1 DUP5 ADD SWAP4 DUP3 SWAP1 SUB ADD DUP2 DUP7 DUP1 EXTCODESIZE ISZERO DUP1 ISZERO PUSH2 0x26E JUMPI PUSH1 0x0 DUP1 REVERT JUMPDEST POP GAS STATICCALL ISZERO DUP1 ISZERO PUSH2 0x282 JUMPI RETURNDATASIZE PUSH1 0x0 DUP1 RETURNDATACOPY RETURNDATASIZE PUSH1 0x0 REVERT JUMPDEST POP POP POP POP PUSH1 0x40 MLOAD RETURNDATASIZE PUSH1 0x1F NOT PUSH1 0x1F DUP3 ADD AND DUP3 ADD DUP1 PUSH1 0x40 MSTORE POP DUP2 ADD SWAP1 PUSH2 0x2A6 SWAP2 SWAP1 PUSH2 0x964 JUMP JUMPDEST PUSH1 0x1 PUSH1 0x1 PUSH1 0xA0 SHL SUB DUP1 DUP3 AND PUSH1 0x0 DUP2 DUP2 MSTORE PUSH1 0x4 PUSH1 0x20 DUP2 DUP2 MSTORE PUSH1 0x40 DUP1 DUP5 KECCAK256 SLOAD DUP2 MLOAD PUSH4 0x313CE567 PUSH1 0xE0 SHL DUP2 MSTORE SWAP2 MLOAD SWAP8 SWAP9 POP DUP9 SWAP8 SWAP7 AND SWAP6 SWAP4 SWAP5 SWAP4 PUSH4 0x313CE567 SWAP4 DUP3 DUP2 ADD SWAP4 SWAP3 DUP3 SWAP1 SUB ADD DUP2 DUP7 DUP1 EXTCODESIZE ISZERO DUP1 ISZERO PUSH2 0x2FB JUMPI PUSH1 0x0 DUP1 REVERT JUMPDEST POP GAS STATICCALL ISZERO DUP1 ISZERO PUSH2 0x30F JUMPI RETURNDATASIZE PUSH1 0x0 DUP1 RETURNDATACOPY RETURNDATASIZE PUSH1 0x0 REVERT JUMPDEST POP POP POP POP PUSH1 0x40 MLOAD RETURNDATASIZE PUSH1 0x1F NOT PUSH1 0x1F DUP3 ADD AND DUP3 ADD DUP1 PUSH1 0x40 MSTORE POP DUP2 ADD SWAP1 PUSH2 0x333 SWAP2 SWAP1 PUSH2 0x998 JUMP JUMPDEST PUSH2 0x33E SWAP1 PUSH1 0xA PUSH2 0xA1F JUMP JUMPDEST DUP3 PUSH1 0x1 PUSH1 0x1 PUSH1 0xA0 SHL SUB AND PUSH4 0x50D25BCD PUSH1 0x40 MLOAD DUP2 PUSH4 0xFFFFFFFF AND PUSH1 0xE0 SHL DUP2 MSTORE PUSH1 0x4 ADD PUSH1 0x20 PUSH1 0x40 MLOAD DUP1 DUP4 SUB DUP2 DUP7 DUP1 EXTCODESIZE ISZERO DUP1 ISZERO PUSH2 0x377 JUMPI PUSH1 0x0 DUP1 REVERT JUMPDEST POP GAS STATICCALL ISZERO DUP1 ISZERO PUSH2 0x38B JUMPI RETURNDATASIZE PUSH1 0x0 DUP1 RETURNDATACOPY RETURNDATASIZE PUSH1 0x0 REVERT JUMPDEST POP POP POP POP PUSH1 0x40 MLOAD RETURNDATASIZE PUSH1 0x1F NOT PUSH1 0x1F DUP3 ADD AND DUP3 ADD DUP1 PUSH1 0x40 MSTORE POP DUP2 ADD SWAP1 PUSH2 0x3AF SWAP2 SWAP1 PUSH2 0x998 JUMP JUMPDEST DUP7 PUSH1 0x1 PUSH1 0x1 PUSH1 0xA0 SHL SUB AND PUSH4 0x3B1D21A2 PUSH1 0x40 MLOAD DUP2 PUSH4 0xFFFFFFFF AND PUSH1 0xE0 SHL DUP2 MSTORE PUSH1 0x4 ADD PUSH1 0x20 PUSH1 0x40 MLOAD DUP1 DUP4 SUB DUP2 DUP7 DUP1 EXTCODESIZE ISZERO DUP1 ISZERO PUSH2 0x3E8 JUMPI PUSH1 0x0 DUP1 REVERT JUMPDEST POP GAS STATICCALL ISZERO DUP1 ISZERO PUSH2 0x3FC JUMPI RETURNDATASIZE PUSH1 0x0 DUP1 RETURNDATACOPY RETURNDATASIZE PUSH1 0x0 REVERT JUMPDEST POP POP POP POP PUSH1 0x40 MLOAD RETURNDATASIZE PUSH1 0x1F NOT PUSH1 0x1F DUP3 ADD AND DUP3 ADD DUP1 PUSH1 0x40 MSTORE POP DUP2 ADD SWAP1 PUSH2 0x420 SWAP2 SWAP1 PUSH2 0x998 JUMP JUMPDEST PUSH2 0x42A SWAP2 SWAP1 PUSH2 0xAC7 JUMP JUMPDEST PUSH2 0x434 SWAP2 SWAP1 PUSH2 0x9C8 JUMP JUMPDEST SWAP1 POP PUSH2 0x440 DUP2 DUP9 PUSH2 0x9B0 JUMP JUMPDEST SWAP7 POP POP POP POP POP POP DUP1 DUP1 PUSH2 0x452 SWAP1 PUSH2 0xAFD JUMP JUMPDEST SWAP2 POP POP PUSH2 0x1F5 JUMP JUMPDEST POP SWAP1 JUMP JUMPDEST PUSH1 0x0 DUP1 PUSH1 0x0 PUSH2 0x46B PUSH2 0x134 JUMP JUMPDEST SWAP3 POP SWAP3 POP SWAP3 POP DUP3 PUSH1 0x1 PUSH1 0x0 DUP3 DUP3 SLOAD PUSH2 0x483 SWAP2 SWAP1 PUSH2 0x9B0 JUMP JUMPDEST SWAP1 SWAP2 SSTORE POP POP PUSH1 0x3 DUP2 SWAP1 SSTORE PUSH1 0x2 DUP3 SWAP1 SSTORE PUSH1 0x40 MLOAD DUP2 DUP2 MSTORE PUSH32 0x8A0DF8EF054FAE2C3D2D19A7B322E864870CC9FD3CB07FB9526309C596244BF4 SWAP1 PUSH1 0x20 ADD PUSH1 0x40 MLOAD DUP1 SWAP2 SUB SWAP1 LOG1 POP POP POP JUMP JUMPDEST PUSH1 0x0 DUP2 DUP2 SLOAD DUP2 LT PUSH2 0x4DA JUMPI PUSH1 0x0 DUP1 REVERT JUMPDEST PUSH1 0x0 SWAP2 DUP3 MSTORE PUSH1 0x20 SWAP1 SWAP2 KECCAK256 ADD SLOAD PUSH1 0x1 PUSH1 0x1 PUSH1 0xA0 SHL SUB AND SWAP1 POP DUP2 JUMP JUMPDEST PUSH1 0x0 DUP2 PUSH2 0x503 JUMPI POP PUSH1 0x0 SWAP2 SWAP1 POP JUMP JUMPDEST DUP2 PUSH1 0x0 PUSH2 0x50F DUP3 PUSH2 0x8AB JUMP JUMPDEST SWAP1 POP PUSH1 0x70 DUP2 LT ISZERO PUSH2 0x528 JUMPI DUP1 PUSH1 0x70 SUB DUP3 SWAP1 SHL SWAP2 POP PUSH2 0x53B JUMP JUMPDEST PUSH1 0x70 DUP2 GT ISZERO PUSH2 0x53B JUMPI PUSH1 0x70 DUP2 SUB DUP3 SWAP1 SHR SWAP2 POP JUMPDEST PUSH2 0x3FFF ADD PUSH1 0x70 SHL PUSH1 0x1 PUSH1 0x1 PUSH1 0x70 SHL SUB SWAP2 SWAP1 SWAP2 AND OR PUSH1 0x80 SHL SWAP3 SWAP2 POP POP JUMP JUMPDEST PUSH1 0x0 PUSH2 0x7FFF PUSH1 0xF0 DUP5 DUP2 SHR DUP3 AND SWAP2 SWAP1 DUP5 SWAP1 SHR DUP2 AND SWAP1 DUP3 EQ ISZERO PUSH2 0x59E JUMPI DUP1 PUSH2 0x7FFF EQ ISZERO PUSH2 0x58D JUMPI POP PUSH2 0xFFFF PUSH1 0xEF SHL SWAP2 POP PUSH2 0x821 SWAP1 POP JUMP JUMPDEST POP POP POP PUSH1 0x1 PUSH1 0xFF SHL DUP2 AND DUP3 XOR PUSH2 0x821 JUMP JUMPDEST DUP1 PUSH2 0x7FFF EQ ISZERO PUSH2 0x5DB JUMPI PUSH1 0x1 PUSH1 0x80 SHL PUSH1 0x1 PUSH1 0xF0 SHL SUB DUP5 AND ISZERO PUSH2 0x5CA JUMPI POP PUSH2 0xFFFF PUSH1 0xEF SHL SWAP2 POP PUSH2 0x821 SWAP1 POP JUMP JUMPDEST POP POP POP DUP1 DUP3 XOR PUSH1 0x1 PUSH1 0xFF SHL AND PUSH2 0x821 JUMP JUMPDEST PUSH1 0x1 PUSH1 0x80 SHL PUSH1 0x1 PUSH1 0xFF SHL SUB DUP5 AND PUSH2 0x625 JUMPI PUSH1 0x1 PUSH1 0x80 SHL PUSH1 0x1 PUSH1 0xFF SHL SUB DUP6 AND PUSH2 0x60D JUMPI POP PUSH2 0xFFFF PUSH1 0xEF SHL SWAP2 POP PUSH2 0x821 SWAP1 POP JUMP JUMPDEST POP POP POP DUP1 DUP3 XOR PUSH1 0x1 PUSH1 0xFF SHL AND PUSH2 0x7FFF PUSH1 0xF0 SHL OR PUSH2 0x821 JUMP JUMPDEST PUSH1 0x1 PUSH1 0x1 PUSH1 0x70 SHL SUB PUSH1 0x80 DUP6 SWAP1 SHR AND DUP2 PUSH2 0x641 JUMPI PUSH1 0x1 SWAP2 POP PUSH2 0x648 JUMP JUMPDEST PUSH1 0x1 PUSH1 0x70 SHL OR JUMPDEST PUSH1 0x1 PUSH1 0x1 PUSH1 0x70 SHL SUB PUSH1 0x80 DUP8 SWAP1 SHR AND DUP4 PUSH2 0x687 JUMPI DUP1 ISZERO PUSH2 0x682 JUMPI PUSH1 0x0 PUSH2 0x66C DUP3 PUSH2 0x8AB JUMP JUMPDEST PUSH1 0x1 SWAP6 POP PUSH1 0xE2 SUB SWAP4 DUP5 ADD PUSH1 0x71 NOT ADD SWAP4 SWAP2 SWAP1 SWAP2 SHL SWAP1 POP JUMPDEST PUSH2 0x691 JUMP JUMPDEST PUSH1 0x1 PUSH1 0x70 SHL OR PUSH1 0x72 SHL JUMPDEST DUP2 DUP2 DUP2 PUSH2 0x6AE JUMPI PUSH4 0x4E487B71 PUSH1 0xE0 SHL PUSH1 0x0 MSTORE PUSH1 0x12 PUSH1 0x4 MSTORE PUSH1 0x24 PUSH1 0x0 REVERT JUMPDEST DIV SWAP1 POP DUP1 PUSH2 0x6DB JUMPI PUSH1 0x1 PUSH1 0xFF SHL DUP8 DUP8 XOR AND PUSH2 0x6CA JUMPI PUSH1 0x0 PUSH2 0x6D0 JUMP JUMPDEST PUSH1 0x1 PUSH1 0xFF SHL JUMPDEST SWAP5 POP POP POP POP POP PUSH2 0x821 JUMP JUMPDEST PUSH1 0x1 PUSH1 0x6C SHL DUP2 LT ISZERO PUSH2 0x6FD JUMPI PUSH4 0x4E487B71 PUSH1 0xE0 SHL PUSH1 0x0 MSTORE PUSH1 0x1 PUSH1 0x4 MSTORE PUSH1 0x24 PUSH1 0x0 REVERT JUMPDEST PUSH1 0x0 PUSH1 0x1 PUSH1 0x73 SHL DUP3 LT ISZERO PUSH2 0x73C JUMPI PUSH1 0x1 PUSH1 0x72 SHL DUP3 LT ISZERO PUSH2 0x731 JUMPI PUSH1 0x1 PUSH1 0x71 SHL DUP3 LT ISZERO PUSH2 0x72A JUMPI PUSH1 0x70 PUSH2 0x734 JUMP JUMPDEST PUSH1 0x71 PUSH2 0x734 JUMP JUMPDEST PUSH1 0x72 JUMPDEST PUSH1 0xFF AND PUSH2 0x745 JUMP JUMPDEST PUSH2 0x745 DUP3 PUSH2 0x8AB JUMP JUMPDEST SWAP1 POP DUP4 PUSH2 0x4071 ADD DUP2 DUP7 ADD GT ISZERO PUSH2 0x763 JUMPI PUSH2 0x7FFF SWAP5 POP PUSH1 0x0 SWAP2 POP PUSH2 0x7F6 JUMP JUMPDEST DUP4 DUP2 DUP7 ADD PUSH2 0x3FFC ADD LT ISZERO PUSH2 0x77E JUMPI PUSH1 0x0 SWAP5 POP PUSH1 0x0 SWAP2 POP PUSH2 0x7F6 JUMP JUMPDEST DUP4 DUP2 DUP7 ADD PUSH2 0x3F8C ADD LT ISZERO PUSH2 0x7CB JUMPI DUP4 DUP6 PUSH2 0x3FFC ADD GT ISZERO PUSH2 0x7A9 JUMPI DUP4 DUP6 PUSH2 0x3FFC ADD SUB DUP3 SWAP1 SHL SWAP2 POP PUSH2 0x7C2 JUMP JUMPDEST DUP4 DUP6 PUSH2 0x3FFC ADD LT ISZERO PUSH2 0x7C2 JUMPI PUSH2 0x3FFC DUP6 DUP6 SUB SUB DUP3 SWAP1 SHR SWAP2 POP JUMPDEST PUSH1 0x0 SWAP5 POP PUSH2 0x7F6 JUMP JUMPDEST PUSH1 0x70 DUP2 GT ISZERO PUSH2 0x7DE JUMPI PUSH1 0x70 DUP2 SUB DUP3 SWAP1 SHR SWAP2 POP JUMPDEST PUSH1 0x1 PUSH1 0x1 PUSH1 0x70 SHL SUB DUP3 AND SWAP2 POP DUP4 DUP2 DUP7 ADD PUSH2 0x3F8D ADD SUB SWAP5 POP JUMPDEST DUP2 PUSH1 0x70 DUP7 SWAP1 SHL DUP9 DUP11 XOR PUSH1 0x1 PUSH1 0x7F SHL PUSH1 0x80 SHL AND PUSH1 0x80 SHR PUSH1 0x1 PUSH1 0x1 PUSH1 0x80 SHL SUB AND OR OR PUSH1 0x80 SHL SWAP6 POP POP POP POP POP POP JUMPDEST SWAP3 SWAP2 POP POP JUMP JUMPDEST PUSH1 0x0 PUSH2 0x7FFF PUSH1 0xF0 DUP4 SWAP1 SHR AND PUSH2 0x3FFF DUP2 LT ISZERO PUSH2 0x845 JUMPI POP PUSH1 0x0 SWAP3 SWAP2 POP POP JUMP JUMPDEST PUSH1 0x1 PUSH1 0x7F SHL PUSH1 0x80 DUP5 SWAP1 SHR LT PUSH2 0x859 JUMPI PUSH1 0x0 DUP1 REVERT JUMPDEST PUSH2 0x40FE DUP2 GT ISZERO PUSH2 0x868 JUMPI PUSH1 0x0 DUP1 REVERT JUMPDEST PUSH1 0x1 PUSH1 0x70 SHL PUSH1 0x1 PUSH1 0x1 PUSH1 0x70 SHL SUB PUSH1 0x80 DUP6 SWAP1 SHR AND OR PUSH2 0x406F DUP3 LT ISZERO PUSH2 0x892 JUMPI PUSH2 0x406F DUP3 SWAP1 SUB SHR PUSH2 0x8A4 JUMP JUMPDEST PUSH2 0x406F DUP3 GT ISZERO PUSH2 0x8A4 JUMPI PUSH2 0x406E NOT DUP3 ADD SHL JUMPDEST SWAP4 SWAP3 POP POP POP JUMP JUMPDEST PUSH1 0x0 DUP1 DUP3 GT PUSH2 0x8B9 JUMPI PUSH1 0x0 DUP1 REVERT JUMPDEST PUSH1 0x0 PUSH1 0x1 PUSH1 0x80 SHL DUP4 LT PUSH2 0x8CE JUMPI PUSH1 0x80 SWAP3 DUP4 SHR SWAP3 ADD JUMPDEST PUSH1 0x1 PUSH1 0x40 SHL DUP4 LT PUSH2 0x8E1 JUMPI PUSH1 0x40 SWAP3 DUP4 SHR SWAP3 ADD JUMPDEST PUSH1 0x1 PUSH1 0x20 SHL DUP4 LT PUSH2 0x8F4 JUMPI PUSH1 0x20 SWAP3 DUP4 SHR SWAP3 ADD JUMPDEST PUSH3 0x10000 DUP4 LT PUSH2 0x906 JUMPI PUSH1 0x10 SWAP3 DUP4 SHR SWAP3 ADD JUMPDEST PUSH2 0x100 DUP4 LT PUSH2 0x917 JUMPI PUSH1 0x8 SWAP3 DUP4 SHR SWAP3 ADD JUMPDEST PUSH1 0x10 DUP4 LT PUSH2 0x927 JUMPI PUSH1 0x4 SWAP3 DUP4 SHR SWAP3 ADD JUMPDEST PUSH1 0x4 DUP4 LT PUSH2 0x937 JUMPI PUSH1 0x2 SWAP3 DUP4 SHR SWAP3 ADD JUMPDEST PUSH1 0x2 DUP4 LT PUSH2 0x821 JUMPI PUSH1 0x1 ADD SWAP3 SWAP2 POP POP JUMP JUMPDEST PUSH1 0x0 PUSH1 0x20 DUP3 DUP5 SUB SLT ISZERO PUSH2 0x959 JUMPI DUP1 DUP2 REVERT JUMPDEST DUP2 CALLDATALOAD PUSH2 0x8A4 DUP2 PUSH2 0xB58 JUMP JUMPDEST PUSH1 0x0 PUSH1 0x20 DUP3 DUP5 SUB SLT ISZERO PUSH2 0x975 JUMPI DUP1 DUP2 REVERT JUMPDEST DUP2 MLOAD PUSH2 0x8A4 DUP2 PUSH2 0xB58 JUMP JUMPDEST PUSH1 0x0 PUSH1 0x20 DUP3 DUP5 SUB SLT ISZERO PUSH2 0x991 JUMPI DUP1 DUP2 REVERT JUMPDEST POP CALLDATALOAD SWAP2 SWAP1 POP JUMP JUMPDEST PUSH1 0x0 PUSH1 0x20 DUP3 DUP5 SUB SLT ISZERO PUSH2 0x9A9 JUMPI DUP1 DUP2 REVERT JUMPDEST POP MLOAD SWAP2 SWAP1 POP JUMP JUMPDEST PUSH1 0x0 DUP3 NOT DUP3 GT ISZERO PUSH2 0x9C3 JUMPI PUSH2 0x9C3 PUSH2 0xB2C JUMP JUMPDEST POP ADD SWAP1 JUMP JUMPDEST PUSH1 0x0 DUP3 PUSH2 0x9D7 JUMPI PUSH2 0x9D7 PUSH2 0xB42 JUMP JUMPDEST POP DIV SWAP1 JUMP JUMPDEST PUSH1 0x1 DUP2 DUP2 JUMPDEST DUP1 DUP6 GT ISZERO PUSH2 0xA17 JUMPI DUP2 PUSH1 0x0 NOT DIV DUP3 GT ISZERO PUSH2 0x9FD JUMPI PUSH2 0x9FD PUSH2 0xB2C JUMP JUMPDEST DUP1 DUP6 AND ISZERO PUSH2 0xA0A JUMPI SWAP2 DUP2 MUL SWAP2 JUMPDEST SWAP4 DUP5 SHR SWAP4 SWAP1 DUP1 MUL SWAP1 PUSH2 0x9E1 JUMP JUMPDEST POP SWAP3 POP SWAP3 SWAP1 POP JUMP JUMPDEST PUSH1 0x0 PUSH2 0x8A4 DUP4 DUP4 PUSH1 0x0 DUP3 PUSH2 0xA35 JUMPI POP PUSH1 0x1 PUSH2 0x821 JUMP JUMPDEST DUP2 PUSH2 0xA42 JUMPI POP PUSH1 0x0 PUSH2 0x821 JUMP JUMPDEST DUP2 PUSH1 0x1 DUP2 EQ PUSH2 0xA58 JUMPI PUSH1 0x2 DUP2 EQ PUSH2 0xA62 JUMPI PUSH2 0xA7E JUMP JUMPDEST PUSH1 0x1 SWAP2 POP POP PUSH2 0x821 JUMP JUMPDEST PUSH1 0xFF DUP5 GT ISZERO PUSH2 0xA73 JUMPI PUSH2 0xA73 PUSH2 0xB2C JUMP JUMPDEST POP POP PUSH1 0x1 DUP3 SHL PUSH2 0x821 JUMP JUMPDEST POP PUSH1 0x20 DUP4 LT PUSH2 0x133 DUP4 LT AND PUSH1 0x4E DUP5 LT PUSH1 0xB DUP5 LT AND OR ISZERO PUSH2 0xAA1 JUMPI POP DUP2 DUP2 EXP PUSH2 0x821 JUMP JUMPDEST PUSH2 0xAAB DUP4 DUP4 PUSH2 0x9DC JUMP JUMPDEST DUP1 PUSH1 0x0 NOT DIV DUP3 GT ISZERO PUSH2 0xABF JUMPI PUSH2 0xABF PUSH2 0xB2C JUMP JUMPDEST MUL SWAP4 SWAP3 POP POP POP JUMP JUMPDEST PUSH1 0x0 DUP2 PUSH1 0x0 NOT DIV DUP4 GT DUP3 ISZERO ISZERO AND ISZERO PUSH2 0xAE1 JUMPI PUSH2 0xAE1 PUSH2 0xB2C JUMP JUMPDEST POP MUL SWAP1 JUMP JUMPDEST PUSH1 0x0 DUP3 DUP3 LT ISZERO PUSH2 0xAF8 JUMPI PUSH2 0xAF8 PUSH2 0xB2C JUMP JUMPDEST POP SUB SWAP1 JUMP JUMPDEST PUSH1 0x0 PUSH1 0x0 NOT DUP3 EQ ISZERO PUSH2 0xB11 JUMPI PUSH2 0xB11 PUSH2 0xB2C JUMP JUMPDEST POP PUSH1 0x1 ADD SWAP1 JUMP JUMPDEST PUSH1 0x0 DUP3 PUSH2 0xB27 JUMPI PUSH2 0xB27 PUSH2 0xB42 JUMP JUMPDEST POP MOD SWAP1 JUMP JUMPDEST PUSH4 0x4E487B71 PUSH1 0xE0 SHL PUSH1 0x0 MSTORE PUSH1 0x11 PUSH1 0x4 MSTORE PUSH1 0x24 PUSH1 0x0 REVERT JUMPDEST PUSH4 0x4E487B71 PUSH1 0xE0 SHL PUSH1 0x0 MSTORE PUSH1 0x12 PUSH1 0x4 MSTORE PUSH1 0x24 PUSH1 0x0 REVERT JUMPDEST PUSH1 0x1 PUSH1 0x1 PUSH1 0xA0 SHL SUB DUP2 AND DUP2 EQ PUSH2 0xB6D JUMPI PUSH1 0x0 DUP1 REVERT JUMPDEST POP JUMP INVALID LOG2 PUSH5 0x6970667358 0x22 SLT KECCAK256 0xDF 0xB1 PUSH18 0x2453A33827CCB34D379652A5C02C6066236B SWAP10 0xB3 0xC6 0xDD 0xBC SWAP5 0xEF CALLDATASIZE SWAP12 PUSH22 0x3464736F6C6343000804003300000000000000000000 ",
  "sha1": "68232e603e619395cf3ec6aa1f0df7d4ee526f4b",
  "source": "// SPDX-License-Identifier: BUSL-1.1\npragma solidity =0.8.4;\n\nimport \"./Interfaces/Interfaces.sol\";\nimport \"./Libraries/ABDKMathQuad.sol\";\n\ncontract TvlOracle is ITvlOracle {\n    using ABDKMathQuad for int128;\n\n    address[] public cTokens;\n    uint256 public tvlCumulativeLast;\n    uint256 public blockTimestampLast;\n    uint256 public totalTvl;\n    // mapping from underlying address to a corresponding priceProvider\n    mapping(address => address) public priceProviders;\n\n    constructor(\n        address[] memory _cTokens,\n        address[] memory _assets,\n        address[] memory _priceProviders\n    ) public {\n        // Initializing cTokens\n        cTokens = _cTokens;\n\n        // Initializing Price providers\n        for (uint256 i = 0; i < _assets.length; i++) {\n            priceProviders[_assets[i]] = _priceProviders[i];\n        }\n    }\n\n    /**\n     * @notice Returns the current tvl across all the cTokens\n     * @return tvl Current tvl\n     */\n    function getTotalTvl() public view returns (uint256 tvl) {\n        for (uint256 i = 0; i < cTokens.length; i++) {\n            ICErc20Delegator cToken = ICErc20Delegator(cTokens[i]);\n            address underlyingAsset = cToken.underlying();\n            IERC20 underlyingAssetContract = IERC20(underlyingAsset);\n            IPriceProvider priceProvider = IPriceProvider(\n                priceProviders[underlyingAsset]\n            );\n            uint256 usdBalance = ((cToken.getCash() *\n                priceProvider.latestAnswer()) /\n                (10**underlyingAssetContract.decimals()));\n            tvl += usdBalance;\n        }\n    }\n\n    /**\n     * @notice Returns latest Cumulative\n     * @return currentCumulativeTvl Current cumulative\n     * @return blockTimestamp Current block timestamp\n     * @return updatedTotalTvl Current TVL\n     */\n    function getCurrentCumulativeTvl()\n        public\n        view\n        returns (\n            uint256 currentCumulativeTvl,\n            uint256 blockTimestamp,\n            uint256 updatedTotalTvl\n        )\n    {\n        blockTimestamp = uint256(block.timestamp % 2**32);\n        uint256 timeElapsed = blockTimestamp - blockTimestampLast; // overflow is desired\n        updatedTotalTvl = getTotalTvl();\n        uint256 tvlDifference = totalTvl > updatedTotalTvl\n            ? (totalTvl - updatedTotalTvl)\n            : (updatedTotalTvl - totalTvl);\n        uint256 minTvl = totalTvl > updatedTotalTvl\n            ? updatedTotalTvl\n            : totalTvl;\n        if (timeElapsed > 0) {\n            currentCumulativeTvl =\n                (minTvl +\n                    uint256(\n                        ABDKMathQuad.toUInt(\n                            ABDKMathQuad.div(\n                                ABDKMathQuad.fromUInt(tvlDifference),\n                                ABDKMathQuad.fromUInt(2)\n                            )\n                        )\n                    )) *\n                timeElapsed;\n        }\n    }\n\n    /**\n     * @notice Updates the tvl\n     */\n    function update() external override {\n        (\n            uint256 currentCumulativeTvl,\n            uint256 blockTimestamp,\n            uint256 updatedTotalTvl\n        ) = getCurrentCumulativeTvl();\n\n        tvlCumulativeLast += currentCumulativeTvl;\n        totalTvl = updatedTotalTvl;\n        blockTimestampLast = blockTimestamp;\n        emit Sync(totalTvl);\n    }\n}\n",
  "sourcePath": "contracts/Twap/TvlOracle.sol",
  "type": "contract"
}