{
  "abi": [
    {
      "inputs": [
        {
          "internalType": "uint256",
          "name": "windowSize_",
          "type": "uint256"
        },
        {
          "internalType": "uint8",
          "name": "granularity_",
          "type": "uint8"
        }
      ],
      "stateMutability": "nonpayable",
      "type": "constructor"
    },
    {
      "inputs": [
        {
          "internalType": "address",
          "name": "tvlOracle",
          "type": "address"
        }
      ],
      "name": "canConsult",
      "outputs": [
        {
          "internalType": "bool",
          "name": "",
          "type": "bool"
        }
      ],
      "stateMutability": "view",
      "type": "function"
    },
    {
      "inputs": [
        {
          "internalType": "address",
          "name": "tvlOracle",
          "type": "address"
        }
      ],
      "name": "canUpdate",
      "outputs": [
        {
          "internalType": "bool",
          "name": "",
          "type": "bool"
        }
      ],
      "stateMutability": "view",
      "type": "function"
    },
    {
      "inputs": [
        {
          "internalType": "uint256",
          "name": "tvlCumulativeStart",
          "type": "uint256"
        },
        {
          "internalType": "uint256",
          "name": "tvlCumulativeEnd",
          "type": "uint256"
        },
        {
          "internalType": "uint256",
          "name": "timeElapsed",
          "type": "uint256"
        }
      ],
      "name": "computeTimeWeightedAverage",
      "outputs": [
        {
          "internalType": "uint256",
          "name": "weightedAverage",
          "type": "uint256"
        }
      ],
      "stateMutability": "pure",
      "type": "function"
    },
    {
      "inputs": [
        {
          "internalType": "address",
          "name": "tvlOracle",
          "type": "address"
        }
      ],
      "name": "consult",
      "outputs": [
        {
          "internalType": "uint256",
          "name": "weightedAverage",
          "type": "uint256"
        }
      ],
      "stateMutability": "view",
      "type": "function"
    },
    {
      "inputs": [
        {
          "internalType": "address",
          "name": "tvlOracle",
          "type": "address"
        }
      ],
      "name": "getLatestId",
      "outputs": [
        {
          "internalType": "uint256",
          "name": "",
          "type": "uint256"
        }
      ],
      "stateMutability": "view",
      "type": "function"
    },
    {
      "inputs": [
        {
          "internalType": "address",
          "name": "tvlOracle",
          "type": "address"
        },
        {
          "internalType": "uint256",
          "name": "roundId",
          "type": "uint256"
        }
      ],
      "name": "getTimeWeightedAverageTVL",
      "outputs": [
        {
          "internalType": "uint256",
          "name": "roundTimestamp",
          "type": "uint256"
        },
        {
          "internalType": "uint256",
          "name": "KPI",
          "type": "uint256"
        }
      ],
      "stateMutability": "view",
      "type": "function"
    },
    {
      "inputs": [],
      "name": "granularity",
      "outputs": [
        {
          "internalType": "uint8",
          "name": "",
          "type": "uint8"
        }
      ],
      "stateMutability": "view",
      "type": "function"
    },
    {
      "inputs": [
        {
          "internalType": "uint256",
          "name": "timestamp",
          "type": "uint256"
        }
      ],
      "name": "observationIndexOf",
      "outputs": [
        {
          "internalType": "uint8",
          "name": "index",
          "type": "uint8"
        }
      ],
      "stateMutability": "view",
      "type": "function"
    },
    {
      "inputs": [],
      "name": "periodSize",
      "outputs": [
        {
          "internalType": "uint256",
          "name": "",
          "type": "uint256"
        }
      ],
      "stateMutability": "view",
      "type": "function"
    },
    {
      "inputs": [
        {
          "internalType": "address",
          "name": "",
          "type": "address"
        },
        {
          "internalType": "uint256",
          "name": "",
          "type": "uint256"
        }
      ],
      "name": "timeWeightedAverageTVL",
      "outputs": [
        {
          "internalType": "uint256",
          "name": "timestamp",
          "type": "uint256"
        },
        {
          "internalType": "uint256",
          "name": "tvl",
          "type": "uint256"
        }
      ],
      "stateMutability": "view",
      "type": "function"
    },
    {
      "inputs": [
        {
          "internalType": "address",
          "name": "",
          "type": "address"
        },
        {
          "internalType": "uint256",
          "name": "",
          "type": "uint256"
        }
      ],
      "name": "tvlObservations",
      "outputs": [
        {
          "internalType": "uint256",
          "name": "timestamp",
          "type": "uint256"
        },
        {
          "internalType": "uint256",
          "name": "tvlCumulative",
          "type": "uint256"
        }
      ],
      "stateMutability": "view",
      "type": "function"
    },
    {
      "inputs": [
        {
          "internalType": "address",
          "name": "tvlOracle",
          "type": "address"
        }
      ],
      "name": "update",
      "outputs": [],
      "stateMutability": "nonpayable",
      "type": "function"
    },
    {
      "inputs": [],
      "name": "windowSize",
      "outputs": [
        {
          "internalType": "uint256",
          "name": "",
          "type": "uint256"
        }
      ],
      "stateMutability": "view",
      "type": "function"
    }
  ],
  "bytecode": "60e06040523480156200001157600080fd5b506040516200148c3803806200148c83398101604081905262000034916200014b565b60018160ff16116200008d5760405162461bcd60e51b815260206004820181905260248201527f536c6964696e6757696e646f774f7261636c653a204752414e554c415249545960448201526064015b60405180910390fd5b8160ff82166200009e818362000181565b60c0819052620000af9190620001a2565b14620001175760405162461bcd60e51b815260206004820152603060248201527f536c6964696e6757696e646f774f7261636c653a2057494e444f575f4e4f545f60448201526f4556454e4c595f444956495349424c4560801b606482015260840162000084565b60809190915260f81b7fff000000000000000000000000000000000000000000000000000000000000001660a052620001ce565b600080604083850312156200015e578182fd5b82519150602083015160ff8116811462000176578182fd5b809150509250929050565b6000826200019d57634e487b7160e01b81526012600452602481fd5b500490565b6000816000190483118215151615620001c957634e487b7160e01b81526011600452602481fd5b500290565b60805160a05160f81c60c0516112376200025560003960008181610214015281816103bc01528181610464015281816105c30152818161072c01526107f5015260008181610165015281816102f20152818161075a0152610edf0152600081816101da01528181610436015281816104900152818161052f01526105ef01526112376000f3fe608060405234801561001057600080fd5b50600436106100af5760003560e01c806305768767146100b45780631c1b8772146100da57806324f70962146100ef578063272e5e0d14610112578063283583c61461013a5780634ab747f41461014d578063556f0dc71461016057806359b5bb78146101995780637a493a98146101ac5780638a14117a146101d5578063dbaad32f146101fc578063e4463eb21461020f578063e73872b914610236575b600080fd5b6100c76100c23660046110a5565b610249565b6040519081526020015b60405180910390f35b6100ed6100e8366004611032565b610283565b005b6101026100fd366004611032565b610414565b60405190151581526020016100d1565b61012561012036600461104c565b6104d1565b604080519283526020830191909152016100d1565b6100c7610148366004611032565b61050d565b61012561015b36600461104c565b610693565b6101877f000000000000000000000000000000000000000000000000000000000000000081565b60405160ff90911681526020016100d1565b6101256101a736600461104c565b610708565b6100c76101ba366004611032565b6001600160a01b031660009081526001602052604090205490565b6100c77f000000000000000000000000000000000000000000000000000000000000000081565b61018761020a366004611075565b610724565b6100c77f000000000000000000000000000000000000000000000000000000000000000081565b610102610244366004611032565b610787565b60008061026f61026161025c878761116d565b610831565b61026a85610831565b61089a565b905061027a81610b69565b95945050505050565b806001600160a01b031663a2e620456040518163ffffffff1660e01b8152600401600060405180830381600087803b1580156102be57600080fd5b505af11580156102d2573d6000803e3d6000fd5b505050506001600160a01b0381166000908152602081905260409020545b7f000000000000000000000000000000000000000000000000000000000000000060ff1681101561034e576001600160a01b03821660009081526020819052604081208054600101815590528061034681611184565b9150506102f0565b50600061035a42610724565b6001600160a01b03831660009081526020819052604081208054929350909160ff841690811061039a57634e487b7160e01b600052603260045260246000fd5b60009182526020822060029091020180549092506103b8904261116d565b90507f00000000000000000000000000000000000000000000000000000000000000008111156103f75760006103ed85610bec565b4284556001840155505b61040084610414565b1561040e5761040e84610e6e565b50505050565b60008061042083610ecd565b8054909150600090610432904261116d565b90507f000000000000000000000000000000000000000000000000000000000000000081111580156104b8575061048a7f0000000000000000000000000000000000000000000000000000000000000000600261114e565b6104b4907f000000000000000000000000000000000000000000000000000000000000000061116d565b8110155b156104c7575060019392505050565b5060009392505050565b600060205281600052604060002081815481106104ed57600080fd5b600091825260209091206002909102018054600190910154909250905082565b60008061051983610ecd565b805490915060009061052b904261116d565b90507f00000000000000000000000000000000000000000000000000000000000000008111156105be5760405162461bcd60e51b815260206004820152603360248201527f536c6964696e6757696e646f774f7261636c653a204d495353494e475f4849536044820152722a27a924a1a0a62fa7a129a2a92b20aa24a7a760691b60648201526084015b60405180910390fd5b6105e97f0000000000000000000000000000000000000000000000000000000000000000600261114e565b610613907f000000000000000000000000000000000000000000000000000000000000000061116d565b8110156106775760405162461bcd60e51b815260206004820152602c60248201527f536c6964696e6757696e646f774f7261636c653a20554e45585045435445445f60448201526b1512535157d153105414d15160a21b60648201526084016105b5565b600061068285610bec565b905061027a83600101548284610249565b6001600160a01b0382166000908152600160205260408120805482918291859081106106cf57634e487b7160e01b600052603260045260246000fd5b60009182526020918290206040805180820190915260029092020180548083526001909101549190920181905290969095509350505050565b600160205281600052604060002081815481106104ed57600080fd5b6000806107517f00000000000000000000000000000000000000000000000000000000000000008461113a565b905061078060ff7f0000000000000000000000000000000000000000000000000000000000000000168261119f565b9392505050565b60008061079342610724565b6001600160a01b03841660009081526020819052604081208054929350909160ff84169081106107d357634e487b7160e01b600052603260045260246000fd5b60009182526020822060029091020180549092506107f1904261116d565b90507f000000000000000000000000000000000000000000000000000000000000000081111561082657506001949350505050565b506000949350505050565b60008161084057506000919050565b81600061084c82610f69565b90506070811015610865578060700382901b9150610878565b6070811115610878576070810382901c91505b613fff0160701b6001600160701b03919091161760801b92915050565b919050565b6000617fff60f084811c8216919084901c8116908214156108e05780617fff14156108cf575061ffff60ef1b9150610b639050565b505050600160ff1b81168218610b63565b80617fff141561091d57600160801b600160f01b0384161561090c575061ffff60ef1b9150610b639050565b505050808218600160ff1b16610b63565b600160801b600160ff1b03841661096757600160801b600160ff1b03851661094f575061ffff60ef1b9150610b639050565b505050808218600160ff1b16617fff60f01b17610b63565b6001600160701b03608085901c1681610983576001915061098a565b600160701b175b6001600160701b03608087901c16836109c95780156109c45760006109ae82610f69565b6001955060e20393840160711901939190911b90505b6109d3565b600160701b1760721b5b8181816109f057634e487b7160e01b600052601260045260246000fd5b04905080610a1d57600160ff1b87871816610a0c576000610a12565b600160ff1b5b945050505050610b63565b6001606c1b811015610a3f57634e487b7160e01b600052600160045260246000fd5b6000600160731b821015610a7e57600160721b821015610a7357600160711b821015610a6c576070610a76565b6071610a76565b60725b60ff16610a87565b610a8782610f69565b905083614071018186011115610aa557617fff945060009150610b38565b83818601613ffc011015610ac0576000945060009150610b38565b83818601613f8c011015610b0d578385613ffc011115610aeb578385613ffc010382901b9150610b04565b8385613ffc011015610b0457613ffc8585030382901c91505b60009450610b38565b6070811115610b20576070810382901c91505b6001600160701b038216915083818601613f8d010394505b81607086901b888a186001607f1b60801b1660801c6001600160801b0316171760801b955050505050505b92915050565b6000617fff60f083901c16613fff811015610b875750600092915050565b6001607f1b608084901c10610b9b57600080fd5b6140fe811115610baa57600080fd5b600160701b6001600160701b03608085901c161761406f821015610bd45761406f8290031c610780565b61406f8211156107805761406e1982011b9392505050565b600080829050806001600160a01b031663143b85f76040518163ffffffff1660e01b815260040160206040518083038186803b158015610c2b57600080fd5b505afa158015610c3f573d6000803e3d6000fd5b505050506040513d601f19601f82011682018060405250810190610c63919061108d565b91506000816001600160a01b0316639c0a2b166040518163ffffffff1660e01b815260040160206040518083038186803b158015610ca057600080fd5b505afa158015610cb4573d6000803e3d6000fd5b505050506040513d601f19601f82011682018060405250810190610cd8919061108d565b90506000826001600160a01b031663e0ca79e46040518163ffffffff1660e01b815260040160206040518083038186803b158015610d1557600080fd5b505afa158015610d29573d6000803e3d6000fd5b505050506040513d601f19601f82011682018060405250810190610d4d919061108d565b90506000610d59611006565b63ffffffff1690506000846001600160a01b031663c5700a026040518163ffffffff1660e01b815260040160206040518083038186803b158015610d9c57600080fd5b505afa158015610db0573d6000803e3d6000fd5b505050506040513d601f19601f82011682018060405250810190610dd4919061108d565b9050818114610e64576000856001600160a01b03166315e579936040518163ffffffff1660e01b815260040160606040518083038186803b158015610e1857600080fd5b505afa158015610e2c573d6000803e3d6000fd5b505050506040513d601f19601f82011682018060405250810190610e5091906110d0565b505090508087610e6091906110fd565b9650505b5050505050919050565b60006040518060400160405280428152602001610e8a8461050d565b90526001600160a01b0390921660009081526001602081815260408320805480840182559084529281902085516002909402019283559093015192019190915550565b600080610ed942610724565b905060007f0000000000000000000000000000000000000000000000000000000000000000610f09836001611115565b610f1391906111b3565b6001600160a01b038516600090815260208190526040902080549192509060ff8316908110610f5257634e487b7160e01b600052603260045260246000fd5b906000526020600020906002020192505050919050565b6000808211610f7757600080fd5b6000600160801b8310610f8c57608092831c92015b600160401b8310610f9f57604092831c92015b600160201b8310610fb257602092831c92015b620100008310610fc457601092831c92015b6101008310610fd557600892831c92015b60108310610fe557600492831c92015b60048310610ff557600292831c92015b60028310610b635760010192915050565b6000611016600160201b4261119f565b905090565b80356001600160a01b038116811461089557600080fd5b600060208284031215611043578081fd5b6107808261101b565b6000806040838503121561105e578081fd5b6110678361101b565b946020939093013593505050565b600060208284031215611086578081fd5b5035919050565b60006020828403121561109e578081fd5b5051919050565b6000806000606084860312156110b9578081fd5b505081359360208301359350604090920135919050565b6000806000606084860312156110e4578283fd5b8351925060208401519150604084015190509250925092565b60008219821115611110576111106111d5565b500190565b600060ff821660ff84168060ff03821115611132576111326111d5565b019392505050565b600082611149576111496111eb565b500490565b6000816000190483118215151615611168576111686111d5565b500290565b60008282101561117f5761117f6111d5565b500390565b6000600019821415611198576111986111d5565b5060010190565b6000826111ae576111ae6111eb565b500690565b600060ff8316806111c6576111c66111eb565b8060ff84160691505092915050565b634e487b7160e01b600052601160045260246000fd5b634e487b7160e01b600052601260045260246000fdfea26469706673582212207834d81477785ce3cadbead6ef90402c0def3cdfd838e1b04d4dfa4588ac250a64736f6c63430008040033",
  "bytecodeSha1": "6b196b38a9da6e036dd4d8a9b568611237ed1333",
  "compiler": {
    "evm_version": "istanbul",
    "optimizer": {
      "enabled": true,
      "runs": 1
    },
    "version": "0.8.4+commit.c7e474f2"
  },
  "contractName": "TvlSlidingWindowOracle",
  "language": "Solidity",
  "natspec": {
    "kind": "dev",
    "methods": {
      "computeTimeWeightedAverage(uint256,uint256,uint256)": {
        "notice": "Given the cumulative tvls of the start and end of a period, and the length of the period, compute the average",
        "params": {
          "timeElapsed": "Time elapsed since the start",
          "tvlCumulativeEnd": "Ending cumulative of the window",
          "tvlCumulativeStart": "Starting cumulative of the window"
        }
      },
      "consult(address)": {
        "notice": "returns the amount out corresponding to the amount in for a given token using the moving average over the time range [now - [windowSize, windowSize - periodSize * 2], now] update must have been called for the bucket corresponding to timestamp `now - windowSize`",
        "params": {
          "tvlOracle": "address of the TVL oracle to update"
        }
      },
      "getLatestId(address)": {
        "notice": "Gives the latest roundId",
        "params": {
          "tvlOracle": "address of the TVL oracle"
        }
      },
      "getTimeWeightedAverageTVL(address,uint256)": {
        "notice": "Gives the timestamp and weighted average for a roundId",
        "params": {
          "roundId": "roundID",
          "tvlOracle": "address of the TVL oracle"
        }
      },
      "update(address)": {
        "notice": "update the cumulative tvl for the observation at the current timestamp and saves the current weighted average. Each observation is updated at most once per epoch period",
        "params": {
          "tvlOracle": "address of the TVL oracle to update"
        }
      }
    },
    "version": 1
  },
  "opcodes": "PUSH1 0x80 PUSH1 0x40 MSTORE CALLVALUE DUP1 ISZERO PUSH2 0x10 JUMPI PUSH1 0x0 DUP1 REVERT JUMPDEST POP PUSH1 0x4 CALLDATASIZE LT PUSH2 0xAF JUMPI PUSH1 0x0 CALLDATALOAD PUSH1 0xE0 SHR DUP1 PUSH4 0x5768767 EQ PUSH2 0xB4 JUMPI DUP1 PUSH4 0x1C1B8772 EQ PUSH2 0xDA JUMPI DUP1 PUSH4 0x24F70962 EQ PUSH2 0xEF JUMPI DUP1 PUSH4 0x272E5E0D EQ PUSH2 0x112 JUMPI DUP1 PUSH4 0x283583C6 EQ PUSH2 0x13A JUMPI DUP1 PUSH4 0x4AB747F4 EQ PUSH2 0x14D JUMPI DUP1 PUSH4 0x556F0DC7 EQ PUSH2 0x160 JUMPI DUP1 PUSH4 0x59B5BB78 EQ PUSH2 0x199 JUMPI DUP1 PUSH4 0x7A493A98 EQ PUSH2 0x1AC JUMPI DUP1 PUSH4 0x8A14117A EQ PUSH2 0x1D5 JUMPI DUP1 PUSH4 0xDBAAD32F EQ PUSH2 0x1FC JUMPI DUP1 PUSH4 0xE4463EB2 EQ PUSH2 0x20F JUMPI DUP1 PUSH4 0xE73872B9 EQ PUSH2 0x236 JUMPI JUMPDEST PUSH1 0x0 DUP1 REVERT JUMPDEST PUSH2 0xC7 PUSH2 0xC2 CALLDATASIZE PUSH1 0x4 PUSH2 0x10A5 JUMP JUMPDEST PUSH2 0x249 JUMP JUMPDEST PUSH1 0x40 MLOAD SWAP1 DUP2 MSTORE PUSH1 0x20 ADD JUMPDEST PUSH1 0x40 MLOAD DUP1 SWAP2 SUB SWAP1 RETURN JUMPDEST PUSH2 0xED PUSH2 0xE8 CALLDATASIZE PUSH1 0x4 PUSH2 0x1032 JUMP JUMPDEST PUSH2 0x283 JUMP JUMPDEST STOP JUMPDEST PUSH2 0x102 PUSH2 0xFD CALLDATASIZE PUSH1 0x4 PUSH2 0x1032 JUMP JUMPDEST PUSH2 0x414 JUMP JUMPDEST PUSH1 0x40 MLOAD SWAP1 ISZERO ISZERO DUP2 MSTORE PUSH1 0x20 ADD PUSH2 0xD1 JUMP JUMPDEST PUSH2 0x125 PUSH2 0x120 CALLDATASIZE PUSH1 0x4 PUSH2 0x104C JUMP JUMPDEST PUSH2 0x4D1 JUMP JUMPDEST PUSH1 0x40 DUP1 MLOAD SWAP3 DUP4 MSTORE PUSH1 0x20 DUP4 ADD SWAP2 SWAP1 SWAP2 MSTORE ADD PUSH2 0xD1 JUMP JUMPDEST PUSH2 0xC7 PUSH2 0x148 CALLDATASIZE PUSH1 0x4 PUSH2 0x1032 JUMP JUMPDEST PUSH2 0x50D JUMP JUMPDEST PUSH2 0x125 PUSH2 0x15B CALLDATASIZE PUSH1 0x4 PUSH2 0x104C JUMP JUMPDEST PUSH2 0x693 JUMP JUMPDEST PUSH2 0x187 PUSH32 0x0 DUP2 JUMP JUMPDEST PUSH1 0x40 MLOAD PUSH1 0xFF SWAP1 SWAP2 AND DUP2 MSTORE PUSH1 0x20 ADD PUSH2 0xD1 JUMP JUMPDEST PUSH2 0x125 PUSH2 0x1A7 CALLDATASIZE PUSH1 0x4 PUSH2 0x104C JUMP JUMPDEST PUSH2 0x708 JUMP JUMPDEST PUSH2 0xC7 PUSH2 0x1BA CALLDATASIZE PUSH1 0x4 PUSH2 0x1032 JUMP JUMPDEST PUSH1 0x1 PUSH1 0x1 PUSH1 0xA0 SHL SUB AND PUSH1 0x0 SWAP1 DUP2 MSTORE PUSH1 0x1 PUSH1 0x20 MSTORE PUSH1 0x40 SWAP1 KECCAK256 SLOAD SWAP1 JUMP JUMPDEST PUSH2 0xC7 PUSH32 0x0 DUP2 JUMP JUMPDEST PUSH2 0x187 PUSH2 0x20A CALLDATASIZE PUSH1 0x4 PUSH2 0x1075 JUMP JUMPDEST PUSH2 0x724 JUMP JUMPDEST PUSH2 0xC7 PUSH32 0x0 DUP2 JUMP JUMPDEST PUSH2 0x102 PUSH2 0x244 CALLDATASIZE PUSH1 0x4 PUSH2 0x1032 JUMP JUMPDEST PUSH2 0x787 JUMP JUMPDEST PUSH1 0x0 DUP1 PUSH2 0x26F PUSH2 0x261 PUSH2 0x25C DUP8 DUP8 PUSH2 0x116D JUMP JUMPDEST PUSH2 0x831 JUMP JUMPDEST PUSH2 0x26A DUP6 PUSH2 0x831 JUMP JUMPDEST PUSH2 0x89A JUMP JUMPDEST SWAP1 POP PUSH2 0x27A DUP2 PUSH2 0xB69 JUMP JUMPDEST SWAP6 SWAP5 POP POP POP POP POP JUMP JUMPDEST DUP1 PUSH1 0x1 PUSH1 0x1 PUSH1 0xA0 SHL SUB AND PUSH4 0xA2E62045 PUSH1 0x40 MLOAD DUP2 PUSH4 0xFFFFFFFF AND PUSH1 0xE0 SHL DUP2 MSTORE PUSH1 0x4 ADD PUSH1 0x0 PUSH1 0x40 MLOAD DUP1 DUP4 SUB DUP2 PUSH1 0x0 DUP8 DUP1 EXTCODESIZE ISZERO DUP1 ISZERO PUSH2 0x2BE JUMPI PUSH1 0x0 DUP1 REVERT JUMPDEST POP GAS CALL ISZERO DUP1 ISZERO PUSH2 0x2D2 JUMPI RETURNDATASIZE PUSH1 0x0 DUP1 RETURNDATACOPY RETURNDATASIZE PUSH1 0x0 REVERT JUMPDEST POP POP POP POP PUSH1 0x1 PUSH1 0x1 PUSH1 0xA0 SHL SUB DUP2 AND PUSH1 0x0 SWAP1 DUP2 MSTORE PUSH1 0x20 DUP2 SWAP1 MSTORE PUSH1 0x40 SWAP1 KECCAK256 SLOAD JUMPDEST PUSH32 0x0 PUSH1 0xFF AND DUP2 LT ISZERO PUSH2 0x34E JUMPI PUSH1 0x1 PUSH1 0x1 PUSH1 0xA0 SHL SUB DUP3 AND PUSH1 0x0 SWAP1 DUP2 MSTORE PUSH1 0x20 DUP2 SWAP1 MSTORE PUSH1 0x40 DUP2 KECCAK256 DUP1 SLOAD PUSH1 0x1 ADD DUP2 SSTORE SWAP1 MSTORE DUP1 PUSH2 0x346 DUP2 PUSH2 0x1184 JUMP JUMPDEST SWAP2 POP POP PUSH2 0x2F0 JUMP JUMPDEST POP PUSH1 0x0 PUSH2 0x35A TIMESTAMP PUSH2 0x724 JUMP JUMPDEST PUSH1 0x1 PUSH1 0x1 PUSH1 0xA0 SHL SUB DUP4 AND PUSH1 0x0 SWAP1 DUP2 MSTORE PUSH1 0x20 DUP2 SWAP1 MSTORE PUSH1 0x40 DUP2 KECCAK256 DUP1 SLOAD SWAP3 SWAP4 POP SWAP1 SWAP2 PUSH1 0xFF DUP5 AND SWAP1 DUP2 LT PUSH2 0x39A JUMPI PUSH4 0x4E487B71 PUSH1 0xE0 SHL PUSH1 0x0 MSTORE PUSH1 0x32 PUSH1 0x4 MSTORE PUSH1 0x24 PUSH1 0x0 REVERT JUMPDEST PUSH1 0x0 SWAP2 DUP3 MSTORE PUSH1 0x20 DUP3 KECCAK256 PUSH1 0x2 SWAP1 SWAP2 MUL ADD DUP1 SLOAD SWAP1 SWAP3 POP PUSH2 0x3B8 SWAP1 TIMESTAMP PUSH2 0x116D JUMP JUMPDEST SWAP1 POP PUSH32 0x0 DUP2 GT ISZERO PUSH2 0x3F7 JUMPI PUSH1 0x0 PUSH2 0x3ED DUP6 PUSH2 0xBEC JUMP JUMPDEST TIMESTAMP DUP5 SSTORE PUSH1 0x1 DUP5 ADD SSTORE POP JUMPDEST PUSH2 0x400 DUP5 PUSH2 0x414 JUMP JUMPDEST ISZERO PUSH2 0x40E JUMPI PUSH2 0x40E DUP5 PUSH2 0xE6E JUMP JUMPDEST POP POP POP POP JUMP JUMPDEST PUSH1 0x0 DUP1 PUSH2 0x420 DUP4 PUSH2 0xECD JUMP JUMPDEST DUP1 SLOAD SWAP1 SWAP2 POP PUSH1 0x0 SWAP1 PUSH2 0x432 SWAP1 TIMESTAMP PUSH2 0x116D JUMP JUMPDEST SWAP1 POP PUSH32 0x0 DUP2 GT ISZERO DUP1 ISZERO PUSH2 0x4B8 JUMPI POP PUSH2 0x48A PUSH32 0x0 PUSH1 0x2 PUSH2 0x114E JUMP JUMPDEST PUSH2 0x4B4 SWAP1 PUSH32 0x0 PUSH2 0x116D JUMP JUMPDEST DUP2 LT ISZERO JUMPDEST ISZERO PUSH2 0x4C7 JUMPI POP PUSH1 0x1 SWAP4 SWAP3 POP POP POP JUMP JUMPDEST POP PUSH1 0x0 SWAP4 SWAP3 POP POP POP JUMP JUMPDEST PUSH1 0x0 PUSH1 0x20 MSTORE DUP2 PUSH1 0x0 MSTORE PUSH1 0x40 PUSH1 0x0 KECCAK256 DUP2 DUP2 SLOAD DUP2 LT PUSH2 0x4ED JUMPI PUSH1 0x0 DUP1 REVERT JUMPDEST PUSH1 0x0 SWAP2 DUP3 MSTORE PUSH1 0x20 SWAP1 SWAP2 KECCAK256 PUSH1 0x2 SWAP1 SWAP2 MUL ADD DUP1 SLOAD PUSH1 0x1 SWAP1 SWAP2 ADD SLOAD SWAP1 SWAP3 POP SWAP1 POP DUP3 JUMP JUMPDEST PUSH1 0x0 DUP1 PUSH2 0x519 DUP4 PUSH2 0xECD JUMP JUMPDEST DUP1 SLOAD SWAP1 SWAP2 POP PUSH1 0x0 SWAP1 PUSH2 0x52B SWAP1 TIMESTAMP PUSH2 0x116D JUMP JUMPDEST SWAP1 POP PUSH32 0x0 DUP2 GT ISZERO PUSH2 0x5BE JUMPI PUSH1 0x40 MLOAD PUSH3 0x461BCD PUSH1 0xE5 SHL DUP2 MSTORE PUSH1 0x20 PUSH1 0x4 DUP3 ADD MSTORE PUSH1 0x33 PUSH1 0x24 DUP3 ADD MSTORE PUSH32 0x536C6964696E6757696E646F774F7261636C653A204D495353494E475F484953 PUSH1 0x44 DUP3 ADD MSTORE PUSH19 0x2A27A924A1A0A62FA7A129A2A92B20AA24A7A7 PUSH1 0x69 SHL PUSH1 0x64 DUP3 ADD MSTORE PUSH1 0x84 ADD JUMPDEST PUSH1 0x40 MLOAD DUP1 SWAP2 SUB SWAP1 REVERT JUMPDEST PUSH2 0x5E9 PUSH32 0x0 PUSH1 0x2 PUSH2 0x114E JUMP JUMPDEST PUSH2 0x613 SWAP1 PUSH32 0x0 PUSH2 0x116D JUMP JUMPDEST DUP2 LT ISZERO PUSH2 0x677 JUMPI PUSH1 0x40 MLOAD PUSH3 0x461BCD PUSH1 0xE5 SHL DUP2 MSTORE PUSH1 0x20 PUSH1 0x4 DUP3 ADD MSTORE PUSH1 0x2C PUSH1 0x24 DUP3 ADD MSTORE PUSH32 0x536C6964696E6757696E646F774F7261636C653A20554E45585045435445445F PUSH1 0x44 DUP3 ADD MSTORE PUSH12 0x1512535157D153105414D151 PUSH1 0xA2 SHL PUSH1 0x64 DUP3 ADD MSTORE PUSH1 0x84 ADD PUSH2 0x5B5 JUMP JUMPDEST PUSH1 0x0 PUSH2 0x682 DUP6 PUSH2 0xBEC JUMP JUMPDEST SWAP1 POP PUSH2 0x27A DUP4 PUSH1 0x1 ADD SLOAD DUP3 DUP5 PUSH2 0x249 JUMP JUMPDEST PUSH1 0x1 PUSH1 0x1 PUSH1 0xA0 SHL SUB DUP3 AND PUSH1 0x0 SWAP1 DUP2 MSTORE PUSH1 0x1 PUSH1 0x20 MSTORE PUSH1 0x40 DUP2 KECCAK256 DUP1 SLOAD DUP3 SWAP2 DUP3 SWAP2 DUP6 SWAP1 DUP2 LT PUSH2 0x6CF JUMPI PUSH4 0x4E487B71 PUSH1 0xE0 SHL PUSH1 0x0 MSTORE PUSH1 0x32 PUSH1 0x4 MSTORE PUSH1 0x24 PUSH1 0x0 REVERT JUMPDEST PUSH1 0x0 SWAP2 DUP3 MSTORE PUSH1 0x20 SWAP2 DUP3 SWAP1 KECCAK256 PUSH1 0x40 DUP1 MLOAD DUP1 DUP3 ADD SWAP1 SWAP2 MSTORE PUSH1 0x2 SWAP1 SWAP3 MUL ADD DUP1 SLOAD DUP1 DUP4 MSTORE PUSH1 0x1 SWAP1 SWAP2 ADD SLOAD SWAP2 SWAP1 SWAP3 ADD DUP2 SWAP1 MSTORE SWAP1 SWAP7 SWAP1 SWAP6 POP SWAP4 POP POP POP POP JUMP JUMPDEST PUSH1 0x1 PUSH1 0x20 MSTORE DUP2 PUSH1 0x0 MSTORE PUSH1 0x40 PUSH1 0x0 KECCAK256 DUP2 DUP2 SLOAD DUP2 LT PUSH2 0x4ED JUMPI PUSH1 0x0 DUP1 REVERT JUMPDEST PUSH1 0x0 DUP1 PUSH2 0x751 PUSH32 0x0 DUP5 PUSH2 0x113A JUMP JUMPDEST SWAP1 POP PUSH2 0x780 PUSH1 0xFF PUSH32 0x0 AND DUP3 PUSH2 0x119F JUMP JUMPDEST SWAP4 SWAP3 POP POP POP JUMP JUMPDEST PUSH1 0x0 DUP1 PUSH2 0x793 TIMESTAMP PUSH2 0x724 JUMP JUMPDEST PUSH1 0x1 PUSH1 0x1 PUSH1 0xA0 SHL SUB DUP5 AND PUSH1 0x0 SWAP1 DUP2 MSTORE PUSH1 0x20 DUP2 SWAP1 MSTORE PUSH1 0x40 DUP2 KECCAK256 DUP1 SLOAD SWAP3 SWAP4 POP SWAP1 SWAP2 PUSH1 0xFF DUP5 AND SWAP1 DUP2 LT PUSH2 0x7D3 JUMPI PUSH4 0x4E487B71 PUSH1 0xE0 SHL PUSH1 0x0 MSTORE PUSH1 0x32 PUSH1 0x4 MSTORE PUSH1 0x24 PUSH1 0x0 REVERT JUMPDEST PUSH1 0x0 SWAP2 DUP3 MSTORE PUSH1 0x20 DUP3 KECCAK256 PUSH1 0x2 SWAP1 SWAP2 MUL ADD DUP1 SLOAD SWAP1 SWAP3 POP PUSH2 0x7F1 SWAP1 TIMESTAMP PUSH2 0x116D JUMP JUMPDEST SWAP1 POP PUSH32 0x0 DUP2 GT ISZERO PUSH2 0x826 JUMPI POP PUSH1 0x1 SWAP5 SWAP4 POP POP POP POP JUMP JUMPDEST POP PUSH1 0x0 SWAP5 SWAP4 POP POP POP POP JUMP JUMPDEST PUSH1 0x0 DUP2 PUSH2 0x840 JUMPI POP PUSH1 0x0 SWAP2 SWAP1 POP JUMP JUMPDEST DUP2 PUSH1 0x0 PUSH2 0x84C DUP3 PUSH2 0xF69 JUMP JUMPDEST SWAP1 POP PUSH1 0x70 DUP2 LT ISZERO PUSH2 0x865 JUMPI DUP1 PUSH1 0x70 SUB DUP3 SWAP1 SHL SWAP2 POP PUSH2 0x878 JUMP JUMPDEST PUSH1 0x70 DUP2 GT ISZERO PUSH2 0x878 JUMPI PUSH1 0x70 DUP2 SUB DUP3 SWAP1 SHR SWAP2 POP JUMPDEST PUSH2 0x3FFF ADD PUSH1 0x70 SHL PUSH1 0x1 PUSH1 0x1 PUSH1 0x70 SHL SUB SWAP2 SWAP1 SWAP2 AND OR PUSH1 0x80 SHL SWAP3 SWAP2 POP POP JUMP JUMPDEST SWAP2 SWAP1 POP JUMP JUMPDEST PUSH1 0x0 PUSH2 0x7FFF PUSH1 0xF0 DUP5 DUP2 SHR DUP3 AND SWAP2 SWAP1 DUP5 SWAP1 SHR DUP2 AND SWAP1 DUP3 EQ ISZERO PUSH2 0x8E0 JUMPI DUP1 PUSH2 0x7FFF EQ ISZERO PUSH2 0x8CF JUMPI POP PUSH2 0xFFFF PUSH1 0xEF SHL SWAP2 POP PUSH2 0xB63 SWAP1 POP JUMP JUMPDEST POP POP POP PUSH1 0x1 PUSH1 0xFF SHL DUP2 AND DUP3 XOR PUSH2 0xB63 JUMP JUMPDEST DUP1 PUSH2 0x7FFF EQ ISZERO PUSH2 0x91D JUMPI PUSH1 0x1 PUSH1 0x80 SHL PUSH1 0x1 PUSH1 0xF0 SHL SUB DUP5 AND ISZERO PUSH2 0x90C JUMPI POP PUSH2 0xFFFF PUSH1 0xEF SHL SWAP2 POP PUSH2 0xB63 SWAP1 POP JUMP JUMPDEST POP POP POP DUP1 DUP3 XOR PUSH1 0x1 PUSH1 0xFF SHL AND PUSH2 0xB63 JUMP JUMPDEST PUSH1 0x1 PUSH1 0x80 SHL PUSH1 0x1 PUSH1 0xFF SHL SUB DUP5 AND PUSH2 0x967 JUMPI PUSH1 0x1 PUSH1 0x80 SHL PUSH1 0x1 PUSH1 0xFF SHL SUB DUP6 AND PUSH2 0x94F JUMPI POP PUSH2 0xFFFF PUSH1 0xEF SHL SWAP2 POP PUSH2 0xB63 SWAP1 POP JUMP JUMPDEST POP POP POP DUP1 DUP3 XOR PUSH1 0x1 PUSH1 0xFF SHL AND PUSH2 0x7FFF PUSH1 0xF0 SHL OR PUSH2 0xB63 JUMP JUMPDEST PUSH1 0x1 PUSH1 0x1 PUSH1 0x70 SHL SUB PUSH1 0x80 DUP6 SWAP1 SHR AND DUP2 PUSH2 0x983 JUMPI PUSH1 0x1 SWAP2 POP PUSH2 0x98A JUMP JUMPDEST PUSH1 0x1 PUSH1 0x70 SHL OR JUMPDEST PUSH1 0x1 PUSH1 0x1 PUSH1 0x70 SHL SUB PUSH1 0x80 DUP8 SWAP1 SHR AND DUP4 PUSH2 0x9C9 JUMPI DUP1 ISZERO PUSH2 0x9C4 JUMPI PUSH1 0x0 PUSH2 0x9AE DUP3 PUSH2 0xF69 JUMP JUMPDEST PUSH1 0x1 SWAP6 POP PUSH1 0xE2 SUB SWAP4 DUP5 ADD PUSH1 0x71 NOT ADD SWAP4 SWAP2 SWAP1 SWAP2 SHL SWAP1 POP JUMPDEST PUSH2 0x9D3 JUMP JUMPDEST PUSH1 0x1 PUSH1 0x70 SHL OR PUSH1 0x72 SHL JUMPDEST DUP2 DUP2 DUP2 PUSH2 0x9F0 JUMPI PUSH4 0x4E487B71 PUSH1 0xE0 SHL PUSH1 0x0 MSTORE PUSH1 0x12 PUSH1 0x4 MSTORE PUSH1 0x24 PUSH1 0x0 REVERT JUMPDEST DIV SWAP1 POP DUP1 PUSH2 0xA1D JUMPI PUSH1 0x1 PUSH1 0xFF SHL DUP8 DUP8 XOR AND PUSH2 0xA0C JUMPI PUSH1 0x0 PUSH2 0xA12 JUMP JUMPDEST PUSH1 0x1 PUSH1 0xFF SHL JUMPDEST SWAP5 POP POP POP POP POP PUSH2 0xB63 JUMP JUMPDEST PUSH1 0x1 PUSH1 0x6C SHL DUP2 LT ISZERO PUSH2 0xA3F JUMPI PUSH4 0x4E487B71 PUSH1 0xE0 SHL PUSH1 0x0 MSTORE PUSH1 0x1 PUSH1 0x4 MSTORE PUSH1 0x24 PUSH1 0x0 REVERT JUMPDEST PUSH1 0x0 PUSH1 0x1 PUSH1 0x73 SHL DUP3 LT ISZERO PUSH2 0xA7E JUMPI PUSH1 0x1 PUSH1 0x72 SHL DUP3 LT ISZERO PUSH2 0xA73 JUMPI PUSH1 0x1 PUSH1 0x71 SHL DUP3 LT ISZERO PUSH2 0xA6C JUMPI PUSH1 0x70 PUSH2 0xA76 JUMP JUMPDEST PUSH1 0x71 PUSH2 0xA76 JUMP JUMPDEST PUSH1 0x72 JUMPDEST PUSH1 0xFF AND PUSH2 0xA87 JUMP JUMPDEST PUSH2 0xA87 DUP3 PUSH2 0xF69 JUMP JUMPDEST SWAP1 POP DUP4 PUSH2 0x4071 ADD DUP2 DUP7 ADD GT ISZERO PUSH2 0xAA5 JUMPI PUSH2 0x7FFF SWAP5 POP PUSH1 0x0 SWAP2 POP PUSH2 0xB38 JUMP JUMPDEST DUP4 DUP2 DUP7 ADD PUSH2 0x3FFC ADD LT ISZERO PUSH2 0xAC0 JUMPI PUSH1 0x0 SWAP5 POP PUSH1 0x0 SWAP2 POP PUSH2 0xB38 JUMP JUMPDEST DUP4 DUP2 DUP7 ADD PUSH2 0x3F8C ADD LT ISZERO PUSH2 0xB0D JUMPI DUP4 DUP6 PUSH2 0x3FFC ADD GT ISZERO PUSH2 0xAEB JUMPI DUP4 DUP6 PUSH2 0x3FFC ADD SUB DUP3 SWAP1 SHL SWAP2 POP PUSH2 0xB04 JUMP JUMPDEST DUP4 DUP6 PUSH2 0x3FFC ADD LT ISZERO PUSH2 0xB04 JUMPI PUSH2 0x3FFC DUP6 DUP6 SUB SUB DUP3 SWAP1 SHR SWAP2 POP JUMPDEST PUSH1 0x0 SWAP5 POP PUSH2 0xB38 JUMP JUMPDEST PUSH1 0x70 DUP2 GT ISZERO PUSH2 0xB20 JUMPI PUSH1 0x70 DUP2 SUB DUP3 SWAP1 SHR SWAP2 POP JUMPDEST PUSH1 0x1 PUSH1 0x1 PUSH1 0x70 SHL SUB DUP3 AND SWAP2 POP DUP4 DUP2 DUP7 ADD PUSH2 0x3F8D ADD SUB SWAP5 POP JUMPDEST DUP2 PUSH1 0x70 DUP7 SWAP1 SHL DUP9 DUP11 XOR PUSH1 0x1 PUSH1 0x7F SHL PUSH1 0x80 SHL AND PUSH1 0x80 SHR PUSH1 0x1 PUSH1 0x1 PUSH1 0x80 SHL SUB AND OR OR PUSH1 0x80 SHL SWAP6 POP POP POP POP POP POP JUMPDEST SWAP3 SWAP2 POP POP JUMP JUMPDEST PUSH1 0x0 PUSH2 0x7FFF PUSH1 0xF0 DUP4 SWAP1 SHR AND PUSH2 0x3FFF DUP2 LT ISZERO PUSH2 0xB87 JUMPI POP PUSH1 0x0 SWAP3 SWAP2 POP POP JUMP JUMPDEST PUSH1 0x1 PUSH1 0x7F SHL PUSH1 0x80 DUP5 SWAP1 SHR LT PUSH2 0xB9B JUMPI PUSH1 0x0 DUP1 REVERT JUMPDEST PUSH2 0x40FE DUP2 GT ISZERO PUSH2 0xBAA JUMPI PUSH1 0x0 DUP1 REVERT JUMPDEST PUSH1 0x1 PUSH1 0x70 SHL PUSH1 0x1 PUSH1 0x1 PUSH1 0x70 SHL SUB PUSH1 0x80 DUP6 SWAP1 SHR AND OR PUSH2 0x406F DUP3 LT ISZERO PUSH2 0xBD4 JUMPI PUSH2 0x406F DUP3 SWAP1 SUB SHR PUSH2 0x780 JUMP JUMPDEST PUSH2 0x406F DUP3 GT ISZERO PUSH2 0x780 JUMPI PUSH2 0x406E NOT DUP3 ADD SHL SWAP4 SWAP3 POP POP POP JUMP JUMPDEST PUSH1 0x0 DUP1 DUP3 SWAP1 POP DUP1 PUSH1 0x1 PUSH1 0x1 PUSH1 0xA0 SHL SUB AND PUSH4 0x143B85F7 PUSH1 0x40 MLOAD DUP2 PUSH4 0xFFFFFFFF AND PUSH1 0xE0 SHL DUP2 MSTORE PUSH1 0x4 ADD PUSH1 0x20 PUSH1 0x40 MLOAD DUP1 DUP4 SUB DUP2 DUP7 DUP1 EXTCODESIZE ISZERO DUP1 ISZERO PUSH2 0xC2B JUMPI PUSH1 0x0 DUP1 REVERT JUMPDEST POP GAS STATICCALL ISZERO DUP1 ISZERO PUSH2 0xC3F JUMPI RETURNDATASIZE PUSH1 0x0 DUP1 RETURNDATACOPY RETURNDATASIZE PUSH1 0x0 REVERT JUMPDEST POP POP POP POP PUSH1 0x40 MLOAD RETURNDATASIZE PUSH1 0x1F NOT PUSH1 0x1F DUP3 ADD AND DUP3 ADD DUP1 PUSH1 0x40 MSTORE POP DUP2 ADD SWAP1 PUSH2 0xC63 SWAP2 SWAP1 PUSH2 0x108D JUMP JUMPDEST SWAP2 POP PUSH1 0x0 DUP2 PUSH1 0x1 PUSH1 0x1 PUSH1 0xA0 SHL SUB AND PUSH4 0x9C0A2B16 PUSH1 0x40 MLOAD DUP2 PUSH4 0xFFFFFFFF AND PUSH1 0xE0 SHL DUP2 MSTORE PUSH1 0x4 ADD PUSH1 0x20 PUSH1 0x40 MLOAD DUP1 DUP4 SUB DUP2 DUP7 DUP1 EXTCODESIZE ISZERO DUP1 ISZERO PUSH2 0xCA0 JUMPI PUSH1 0x0 DUP1 REVERT JUMPDEST POP GAS STATICCALL ISZERO DUP1 ISZERO PUSH2 0xCB4 JUMPI RETURNDATASIZE PUSH1 0x0 DUP1 RETURNDATACOPY RETURNDATASIZE PUSH1 0x0 REVERT JUMPDEST POP POP POP POP PUSH1 0x40 MLOAD RETURNDATASIZE PUSH1 0x1F NOT PUSH1 0x1F DUP3 ADD AND DUP3 ADD DUP1 PUSH1 0x40 MSTORE POP DUP2 ADD SWAP1 PUSH2 0xCD8 SWAP2 SWAP1 PUSH2 0x108D JUMP JUMPDEST SWAP1 POP PUSH1 0x0 DUP3 PUSH1 0x1 PUSH1 0x1 PUSH1 0xA0 SHL SUB AND PUSH4 0xE0CA79E4 PUSH1 0x40 MLOAD DUP2 PUSH4 0xFFFFFFFF AND PUSH1 0xE0 SHL DUP2 MSTORE PUSH1 0x4 ADD PUSH1 0x20 PUSH1 0x40 MLOAD DUP1 DUP4 SUB DUP2 DUP7 DUP1 EXTCODESIZE ISZERO DUP1 ISZERO PUSH2 0xD15 JUMPI PUSH1 0x0 DUP1 REVERT JUMPDEST POP GAS STATICCALL ISZERO DUP1 ISZERO PUSH2 0xD29 JUMPI RETURNDATASIZE PUSH1 0x0 DUP1 RETURNDATACOPY RETURNDATASIZE PUSH1 0x0 REVERT JUMPDEST POP POP POP POP PUSH1 0x40 MLOAD RETURNDATASIZE PUSH1 0x1F NOT PUSH1 0x1F DUP3 ADD AND DUP3 ADD DUP1 PUSH1 0x40 MSTORE POP DUP2 ADD SWAP1 PUSH2 0xD4D SWAP2 SWAP1 PUSH2 0x108D JUMP JUMPDEST SWAP1 POP PUSH1 0x0 PUSH2 0xD59 PUSH2 0x1006 JUMP JUMPDEST PUSH4 0xFFFFFFFF AND SWAP1 POP PUSH1 0x0 DUP5 PUSH1 0x1 PUSH1 0x1 PUSH1 0xA0 SHL SUB AND PUSH4 0xC5700A02 PUSH1 0x40 MLOAD DUP2 PUSH4 0xFFFFFFFF AND PUSH1 0xE0 SHL DUP2 MSTORE PUSH1 0x4 ADD PUSH1 0x20 PUSH1 0x40 MLOAD DUP1 DUP4 SUB DUP2 DUP7 DUP1 EXTCODESIZE ISZERO DUP1 ISZERO PUSH2 0xD9C JUMPI PUSH1 0x0 DUP1 REVERT JUMPDEST POP GAS STATICCALL ISZERO DUP1 ISZERO PUSH2 0xDB0 JUMPI RETURNDATASIZE PUSH1 0x0 DUP1 RETURNDATACOPY RETURNDATASIZE PUSH1 0x0 REVERT JUMPDEST POP POP POP POP PUSH1 0x40 MLOAD RETURNDATASIZE PUSH1 0x1F NOT PUSH1 0x1F DUP3 ADD AND DUP3 ADD DUP1 PUSH1 0x40 MSTORE POP DUP2 ADD SWAP1 PUSH2 0xDD4 SWAP2 SWAP1 PUSH2 0x108D JUMP JUMPDEST SWAP1 POP DUP2 DUP2 EQ PUSH2 0xE64 JUMPI PUSH1 0x0 DUP6 PUSH1 0x1 PUSH1 0x1 PUSH1 0xA0 SHL SUB AND PUSH4 0x15E57993 PUSH1 0x40 MLOAD DUP2 PUSH4 0xFFFFFFFF AND PUSH1 0xE0 SHL DUP2 MSTORE PUSH1 0x4 ADD PUSH1 0x60 PUSH1 0x40 MLOAD DUP1 DUP4 SUB DUP2 DUP7 DUP1 EXTCODESIZE ISZERO DUP1 ISZERO PUSH2 0xE18 JUMPI PUSH1 0x0 DUP1 REVERT JUMPDEST POP GAS STATICCALL ISZERO DUP1 ISZERO PUSH2 0xE2C JUMPI RETURNDATASIZE PUSH1 0x0 DUP1 RETURNDATACOPY RETURNDATASIZE PUSH1 0x0 REVERT JUMPDEST POP POP POP POP PUSH1 0x40 MLOAD RETURNDATASIZE PUSH1 0x1F NOT PUSH1 0x1F DUP3 ADD AND DUP3 ADD DUP1 PUSH1 0x40 MSTORE POP DUP2 ADD SWAP1 PUSH2 0xE50 SWAP2 SWAP1 PUSH2 0x10D0 JUMP JUMPDEST POP POP SWAP1 POP DUP1 DUP8 PUSH2 0xE60 SWAP2 SWAP1 PUSH2 0x10FD JUMP JUMPDEST SWAP7 POP POP JUMPDEST POP POP POP POP POP SWAP2 SWAP1 POP JUMP JUMPDEST PUSH1 0x0 PUSH1 0x40 MLOAD DUP1 PUSH1 0x40 ADD PUSH1 0x40 MSTORE DUP1 TIMESTAMP DUP2 MSTORE PUSH1 0x20 ADD PUSH2 0xE8A DUP5 PUSH2 0x50D JUMP JUMPDEST SWAP1 MSTORE PUSH1 0x1 PUSH1 0x1 PUSH1 0xA0 SHL SUB SWAP1 SWAP3 AND PUSH1 0x0 SWAP1 DUP2 MSTORE PUSH1 0x1 PUSH1 0x20 DUP2 DUP2 MSTORE PUSH1 0x40 DUP4 KECCAK256 DUP1 SLOAD DUP1 DUP5 ADD DUP3 SSTORE SWAP1 DUP5 MSTORE SWAP3 DUP2 SWAP1 KECCAK256 DUP6 MLOAD PUSH1 0x2 SWAP1 SWAP5 MUL ADD SWAP3 DUP4 SSTORE SWAP1 SWAP4 ADD MLOAD SWAP3 ADD SWAP2 SWAP1 SWAP2 SSTORE POP JUMP JUMPDEST PUSH1 0x0 DUP1 PUSH2 0xED9 TIMESTAMP PUSH2 0x724 JUMP JUMPDEST SWAP1 POP PUSH1 0x0 PUSH32 0x0 PUSH2 0xF09 DUP4 PUSH1 0x1 PUSH2 0x1115 JUMP JUMPDEST PUSH2 0xF13 SWAP2 SWAP1 PUSH2 0x11B3 JUMP JUMPDEST PUSH1 0x1 PUSH1 0x1 PUSH1 0xA0 SHL SUB DUP6 AND PUSH1 0x0 SWAP1 DUP2 MSTORE PUSH1 0x20 DUP2 SWAP1 MSTORE PUSH1 0x40 SWAP1 KECCAK256 DUP1 SLOAD SWAP2 SWAP3 POP SWAP1 PUSH1 0xFF DUP4 AND SWAP1 DUP2 LT PUSH2 0xF52 JUMPI PUSH4 0x4E487B71 PUSH1 0xE0 SHL PUSH1 0x0 MSTORE PUSH1 0x32 PUSH1 0x4 MSTORE PUSH1 0x24 PUSH1 0x0 REVERT JUMPDEST SWAP1 PUSH1 0x0 MSTORE PUSH1 0x20 PUSH1 0x0 KECCAK256 SWAP1 PUSH1 0x2 MUL ADD SWAP3 POP POP POP SWAP2 SWAP1 POP JUMP JUMPDEST PUSH1 0x0 DUP1 DUP3 GT PUSH2 0xF77 JUMPI PUSH1 0x0 DUP1 REVERT JUMPDEST PUSH1 0x0 PUSH1 0x1 PUSH1 0x80 SHL DUP4 LT PUSH2 0xF8C JUMPI PUSH1 0x80 SWAP3 DUP4 SHR SWAP3 ADD JUMPDEST PUSH1 0x1 PUSH1 0x40 SHL DUP4 LT PUSH2 0xF9F JUMPI PUSH1 0x40 SWAP3 DUP4 SHR SWAP3 ADD JUMPDEST PUSH1 0x1 PUSH1 0x20 SHL DUP4 LT PUSH2 0xFB2 JUMPI PUSH1 0x20 SWAP3 DUP4 SHR SWAP3 ADD JUMPDEST PUSH3 0x10000 DUP4 LT PUSH2 0xFC4 JUMPI PUSH1 0x10 SWAP3 DUP4 SHR SWAP3 ADD JUMPDEST PUSH2 0x100 DUP4 LT PUSH2 0xFD5 JUMPI PUSH1 0x8 SWAP3 DUP4 SHR SWAP3 ADD JUMPDEST PUSH1 0x10 DUP4 LT PUSH2 0xFE5 JUMPI PUSH1 0x4 SWAP3 DUP4 SHR SWAP3 ADD JUMPDEST PUSH1 0x4 DUP4 LT PUSH2 0xFF5 JUMPI PUSH1 0x2 SWAP3 DUP4 SHR SWAP3 ADD JUMPDEST PUSH1 0x2 DUP4 LT PUSH2 0xB63 JUMPI PUSH1 0x1 ADD SWAP3 SWAP2 POP POP JUMP JUMPDEST PUSH1 0x0 PUSH2 0x1016 PUSH1 0x1 PUSH1 0x20 SHL TIMESTAMP PUSH2 0x119F JUMP JUMPDEST SWAP1 POP SWAP1 JUMP JUMPDEST DUP1 CALLDATALOAD PUSH1 0x1 PUSH1 0x1 PUSH1 0xA0 SHL SUB DUP2 AND DUP2 EQ PUSH2 0x895 JUMPI PUSH1 0x0 DUP1 REVERT JUMPDEST PUSH1 0x0 PUSH1 0x20 DUP3 DUP5 SUB SLT ISZERO PUSH2 0x1043 JUMPI DUP1 DUP2 REVERT JUMPDEST PUSH2 0x780 DUP3 PUSH2 0x101B JUMP JUMPDEST PUSH1 0x0 DUP1 PUSH1 0x40 DUP4 DUP6 SUB SLT ISZERO PUSH2 0x105E JUMPI DUP1 DUP2 REVERT JUMPDEST PUSH2 0x1067 DUP4 PUSH2 0x101B JUMP JUMPDEST SWAP5 PUSH1 0x20 SWAP4 SWAP1 SWAP4 ADD CALLDATALOAD SWAP4 POP POP POP JUMP JUMPDEST PUSH1 0x0 PUSH1 0x20 DUP3 DUP5 SUB SLT ISZERO PUSH2 0x1086 JUMPI DUP1 DUP2 REVERT JUMPDEST POP CALLDATALOAD SWAP2 SWAP1 POP JUMP JUMPDEST PUSH1 0x0 PUSH1 0x20 DUP3 DUP5 SUB SLT ISZERO PUSH2 0x109E JUMPI DUP1 DUP2 REVERT JUMPDEST POP MLOAD SWAP2 SWAP1 POP JUMP JUMPDEST PUSH1 0x0 DUP1 PUSH1 0x0 PUSH1 0x60 DUP5 DUP7 SUB SLT ISZERO PUSH2 0x10B9 JUMPI DUP1 DUP2 REVERT JUMPDEST POP POP DUP2 CALLDATALOAD SWAP4 PUSH1 0x20 DUP4 ADD CALLDATALOAD SWAP4 POP PUSH1 0x40 SWAP1 SWAP3 ADD CALLDATALOAD SWAP2 SWAP1 POP JUMP JUMPDEST PUSH1 0x0 DUP1 PUSH1 0x0 PUSH1 0x60 DUP5 DUP7 SUB SLT ISZERO PUSH2 0x10E4 JUMPI DUP3 DUP4 REVERT JUMPDEST DUP4 MLOAD SWAP3 POP PUSH1 0x20 DUP5 ADD MLOAD SWAP2 POP PUSH1 0x40 DUP5 ADD MLOAD SWAP1 POP SWAP3 POP SWAP3 POP SWAP3 JUMP JUMPDEST PUSH1 0x0 DUP3 NOT DUP3 GT ISZERO PUSH2 0x1110 JUMPI PUSH2 0x1110 PUSH2 0x11D5 JUMP JUMPDEST POP ADD SWAP1 JUMP JUMPDEST PUSH1 0x0 PUSH1 0xFF DUP3 AND PUSH1 0xFF DUP5 AND DUP1 PUSH1 0xFF SUB DUP3 GT ISZERO PUSH2 0x1132 JUMPI PUSH2 0x1132 PUSH2 0x11D5 JUMP JUMPDEST ADD SWAP4 SWAP3 POP POP POP JUMP JUMPDEST PUSH1 0x0 DUP3 PUSH2 0x1149 JUMPI PUSH2 0x1149 PUSH2 0x11EB JUMP JUMPDEST POP DIV SWAP1 JUMP JUMPDEST PUSH1 0x0 DUP2 PUSH1 0x0 NOT DIV DUP4 GT DUP3 ISZERO ISZERO AND ISZERO PUSH2 0x1168 JUMPI PUSH2 0x1168 PUSH2 0x11D5 JUMP JUMPDEST POP MUL SWAP1 JUMP JUMPDEST PUSH1 0x0 DUP3 DUP3 LT ISZERO PUSH2 0x117F JUMPI PUSH2 0x117F PUSH2 0x11D5 JUMP JUMPDEST POP SUB SWAP1 JUMP JUMPDEST PUSH1 0x0 PUSH1 0x0 NOT DUP3 EQ ISZERO PUSH2 0x1198 JUMPI PUSH2 0x1198 PUSH2 0x11D5 JUMP JUMPDEST POP PUSH1 0x1 ADD SWAP1 JUMP JUMPDEST PUSH1 0x0 DUP3 PUSH2 0x11AE JUMPI PUSH2 0x11AE PUSH2 0x11EB JUMP JUMPDEST POP MOD SWAP1 JUMP JUMPDEST PUSH1 0x0 PUSH1 0xFF DUP4 AND DUP1 PUSH2 0x11C6 JUMPI PUSH2 0x11C6 PUSH2 0x11EB JUMP JUMPDEST DUP1 PUSH1 0xFF DUP5 AND MOD SWAP2 POP POP SWAP3 SWAP2 POP POP JUMP JUMPDEST PUSH4 0x4E487B71 PUSH1 0xE0 SHL PUSH1 0x0 MSTORE PUSH1 0x11 PUSH1 0x4 MSTORE PUSH1 0x24 PUSH1 0x0 REVERT JUMPDEST PUSH4 0x4E487B71 PUSH1 0xE0 SHL PUSH1 0x0 MSTORE PUSH1 0x12 PUSH1 0x4 MSTORE PUSH1 0x24 PUSH1 0x0 REVERT INVALID LOG2 PUSH5 0x6970667358 0x22 SLT KECCAK256 PUSH25 0x34D81477785CE3CADBEAD6EF90402C0DEF3CDFD838E1B04D4D STATICCALL GASLIMIT DUP9 0xAC 0x25 EXP PUSH5 0x736F6C6343 STOP ADDMOD DIV STOP CALLER ",
  "sha1": "f78e196f5b86b3253771c4370dc335eff27f5d5e",
  "source": "// SPDX-License-Identifier: BUSL-1.1\npragma solidity =0.8.4;\n\nimport \"./Libraries/SafeMath.sol\";\nimport \"./Libraries/ABDKMathQuad.sol\";\nimport \"./Libraries/TvlOracleLibrary.sol\";\nimport \"./Interfaces/Interfaces.sol\";\n\n// sliding window oracle that uses observations collected over a window to provide moving tvl averages in the past\n// `windowSize` with a precision of `windowSize / granularity`\n// note this is a singleton oracle and only needs to be deployed once per desired parameters, which\n// differs from the simple oracle which must be deployed once per tvlOracle.\ncontract TvlSlidingWindowOracle {\n    using ABDKMathQuad for int128;\n\n    struct Observation {\n        uint256 timestamp;\n        uint256 tvlCumulative;\n    }\n    struct TimeWeightedAverageTVL {\n        uint256 timestamp;\n        uint256 tvl;\n    }\n\n    // the desired amount of time over which the moving average should be computed, e.g. 24 hours\n    uint256 public immutable windowSize;\n    // the number of observations stored for each tvlOracle, i.e. how many tvl observations are stored for the window.\n    // as granularity increases from 1, more frequent updates are needed, but moving averages become more precise.\n    // averages are computed over intervals with sizes in the range:\n    //   [windowSize - (windowSize / granularity) * 2, windowSize]\n    // e.g. if the window size is 24 hours, and the granularity is 24, the oracle will return the average tvl for\n    //   the period:\n    //   [now - [22 hours, 24 hours], now]\n    uint8 public immutable granularity;\n    // this is redundant with granularity and windowSize, but stored for gas savings & informational purposes.\n    uint256 public immutable periodSize;\n\n    // mapping from tvl oracle address to a list of tvl observations of that tvl oracle\n    mapping(address => Observation[]) public tvlObservations;\n    mapping(address => TimeWeightedAverageTVL[]) public timeWeightedAverageTVL;\n\n    constructor(uint256 windowSize_, uint8 granularity_) public {\n        require(granularity_ > 1, \"SlidingWindowOracle: GRANULARITY\");\n        require(\n            (periodSize = windowSize_ / granularity_) * granularity_ ==\n                windowSize_,\n            \"SlidingWindowOracle: WINDOW_NOT_EVENLY_DIVISIBLE\"\n        );\n        windowSize = windowSize_;\n        granularity = granularity_;\n    }\n\n    // returns the index of the observation corresponding to the given timestamp\n    function observationIndexOf(uint256 timestamp)\n        public\n        view\n        returns (uint8 index)\n    {\n        uint256 epochPeriod = timestamp / periodSize;\n        return uint8(epochPeriod % granularity);\n    }\n\n    // returns the observation from the oldest epoch (at the beginning of the window) relative to the current time\n    function getFirstObservationInWindow(address tvlOracle)\n        private\n        view\n        returns (Observation storage firstObservation)\n    {\n        uint8 observationIndex = observationIndexOf(block.timestamp);\n        // no overflow issue. if observationIndex + 1 overflows, result is still zero.\n        uint8 firstObservationIndex = (observationIndex + 1) % granularity;\n        firstObservation = tvlObservations[tvlOracle][firstObservationIndex];\n    }\n\n    /**\n     * @notice update the cumulative tvl for the observation at the current timestamp\n     * and saves the current weighted average.\n     * Each observation is updated at most once per epoch period\n     * @param tvlOracle address of the TVL oracle to update\n     */\n    function update(address tvlOracle) external {\n        TvlOracle(tvlOracle).update();\n\n        // populate the array with empty observations (first call only)\n        for (\n            uint256 i = tvlObservations[tvlOracle].length;\n            i < granularity;\n            i++\n        ) {\n            tvlObservations[tvlOracle].push();\n        }\n\n        // get the observation for the current period\n        uint8 observationIndex = observationIndexOf(block.timestamp);\n        Observation storage observation = tvlObservations[tvlOracle][\n            observationIndex\n        ];\n\n        // we only want to commit updates once per period (i.e. windowSize / granularity)\n        uint256 timeElapsed = block.timestamp - observation.timestamp;\n        if (timeElapsed > periodSize) {\n            uint256 tvlCumulative = TvlOracleLibrary.currentCumulativeTvl(\n                tvlOracle\n            );\n            observation.timestamp = block.timestamp;\n            observation.tvlCumulative = tvlCumulative;\n        }\n        if (canConsult(tvlOracle)) {\n            updateTimeWeightedAverageTVL(tvlOracle);\n        }\n    }\n\n    function updateTimeWeightedAverageTVL(address tvlOracle) internal {\n        TimeWeightedAverageTVL\n            memory _timeWeightedAverageTVL = TimeWeightedAverageTVL(\n                block.timestamp,\n                consult(tvlOracle)\n            );\n        timeWeightedAverageTVL[tvlOracle].push(_timeWeightedAverageTVL);\n    }\n\n    /**\n     * @notice Gives the latest roundId\n     * @param tvlOracle address of the TVL oracle\n     */\n    function getLatestId(address tvlOracle) external view returns (uint256) {\n        return timeWeightedAverageTVL[tvlOracle].length;\n    }\n\n    /**\n     * @notice Gives the timestamp and weighted average for a roundId\n     * @param tvlOracle address of the TVL oracle\n     * @param roundId roundID\n     */\n    function getTimeWeightedAverageTVL(address tvlOracle, uint256 roundId)\n        external\n        view\n        returns (uint256 roundTimestamp, uint256 KPI)\n    {\n        TimeWeightedAverageTVL memory _tvl = timeWeightedAverageTVL[tvlOracle][\n            roundId\n        ];\n        roundTimestamp = _tvl.timestamp;\n        KPI = _tvl.tvl;\n    }\n\n    // Checks if its time to call the update function\n    function canUpdate(address tvlOracle) public view returns (bool) {\n        // get the observation for the current period\n        uint8 observationIndex = observationIndexOf(block.timestamp);\n        Observation storage observation = tvlObservations[tvlOracle][\n            observationIndex\n        ];\n\n        // we only want to commit updates once per period (i.e. windowSize / granularity)\n        uint256 timeElapsed = block.timestamp - observation.timestamp;\n        if (timeElapsed > periodSize) {\n            return true;\n        }\n        return false;\n    }\n\n    // Checks if the consult can be called\n    function canConsult(address tvlOracle) public view returns (bool) {\n        Observation storage firstObservation = getFirstObservationInWindow(\n            tvlOracle\n        );\n\n        uint256 timeElapsed = block.timestamp - firstObservation.timestamp;\n        if (\n            (timeElapsed <= windowSize) &&\n            (timeElapsed >= windowSize - periodSize * 2)\n        ) {\n            return true;\n        }\n\n        return false;\n    }\n\n    /**\n     * @notice Given the cumulative tvls of the start and end of a period,\n     * and the length of the period, compute the average\n     * @param tvlCumulativeStart Starting cumulative of the window\n     * @param tvlCumulativeEnd Ending cumulative of the window\n     * @param timeElapsed Time elapsed since the start\n     */\n    function computeTimeWeightedAverage(\n        uint256 tvlCumulativeStart,\n        uint256 tvlCumulativeEnd,\n        uint256 timeElapsed\n    ) public pure returns (uint256 weightedAverage) {\n        bytes16 _weightedAverage = ABDKMathQuad.div(\n            ABDKMathQuad.fromUInt(tvlCumulativeEnd - tvlCumulativeStart),\n            ABDKMathQuad.fromUInt(timeElapsed)\n        );\n\n        weightedAverage = uint256(ABDKMathQuad.toUInt(_weightedAverage));\n    }\n\n    /**\n     * @notice returns the amount out corresponding to the amount in for a\n     * given token using the moving average over the time\n     * range [now - [windowSize, windowSize - periodSize * 2], now]\n     * update must have been called for the bucket corresponding to timestamp `now - windowSize`\n     * @param tvlOracle address of the TVL oracle to update\n     */\n    function consult(address tvlOracle)\n        public\n        view\n        returns (uint256 weightedAverage)\n    {\n        Observation storage firstObservation = getFirstObservationInWindow(\n            tvlOracle\n        );\n\n        uint256 timeElapsed = block.timestamp - firstObservation.timestamp;\n        require(\n            timeElapsed <= windowSize,\n            \"SlidingWindowOracle: MISSING_HISTORICAL_OBSERVATION\"\n        );\n\n        // should never happen.\n        require(\n            timeElapsed >= windowSize - periodSize * 2,\n            \"SlidingWindowOracle: UNEXPECTED_TIME_ELAPSED\"\n        );\n\n        uint256 tvlCumulative = TvlOracleLibrary.currentCumulativeTvl(\n            tvlOracle\n        );\n\n        weightedAverage = computeTimeWeightedAverage(\n            firstObservation.tvlCumulative,\n            tvlCumulative,\n            timeElapsed\n        );\n    }\n}\n",
  "sourcePath": "contracts/Twap/TvlSlidingWindowOracle.sol",
  "type": "contract"
}