{"bytecode":"610c9661003a600b82828239805160001a60731461002d57634e487b7160e01b600052600060045260246000fd5b30600052607381538281f3fe73000000000000000000000000000000000000000030146080604052600436106100775760003560e01c80630cd5f90f1461007c5780630e04d1bc146100a257806327150148146100d0578063c4653f31146100e3578063ce460184146100f6578063d13a79bc14610109578063e39d06e91461011c575b600080fd5b61008f61008a366004610a0f565b61012f565b6040519081526020015b60405180910390f35b6100b56100b036600461092c565b61027c565b60408051938452602084019290925290820152606001610099565b6100b56100de366004610aff565b6102b7565b6100b56100f1366004610aff565b6103b7565b61008f610104366004610a3e565b6104a7565b6100b5610117366004610a7f565b6105de565b61008f61012a366004610a7f565b61061b565b600080826001600160a01b031663d9ac10d96040518163ffffffff1660e01b815260040160206040518083038186803b15801561016b57600080fd5b505afa15801561017f573d6000803e3d6000fd5b505050506040513d601f19601f820116820180604052508101906101a391906109f7565b9050600081116101de5760405162461bcd60e51b815260206004820152600260248201526109e760f31b604482015260640160405180910390fd5b8084846001600160a01b0316636ab28bc86040518163ffffffff1660e01b815260040160206040518083038186803b15801561021957600080fd5b505afa15801561022d573d6000803e3d6000fd5b505050506040513d601f19601f8201168201806040525081019061025191906109f7565b61025b9190610bc4565b61026a906402540be400610bfc565b6102749190610bdc565b949350505050565b600080600061028e8885878a8a6106df565b905061029e8860200151866107b9565b91506102aa8183610bc4565b9250955095509592505050565b60008060008073__OptionMath____________________________632c607c3b6102e28c888a6104a7565b8b8a8f60028e600281111561030757634e487b7160e01b600052602160045260246000fd5b146040518663ffffffff1660e01b8152600401610328959493929190610b73565b60206040518083038186803b15801561034057600080fd5b505af4158015610354573d6000803e3d6000fd5b505050506040513d601f19601f8201168201806040525081019061037891906109f7565b9050866103858b83610bfc565b61038f9190610bdc565b915061039b8a876107b9565b92506103a78284610bc4565b9350509750975097945050505050565b60008060008073__OptionMath____________________________632c607c3b6103e28c888a6104a7565b8b8a8f60028e600281111561040757634e487b7160e01b600052602160045260246000fd5b146040518663ffffffff1660e01b8152600401610428959493929190610b73565b60206040518083038186803b15801561044057600080fd5b505af4158015610454573d6000803e3d6000fd5b505050506040513d601f19601f8201168201806040525081019061047891906109f7565b90506104848a876107b9565b9250866104918b83610bfc565b61049b9190610bdc565b91506103a78284610bc4565b6000816001600160a01b03166318f88e5b6040518163ffffffff1660e01b815260040160206040518083038186803b1580156104e257600080fd5b505afa1580156104f6573d6000803e3d6000fd5b505050506040513d601f19601f8201168201806040525081019061051a91906109f7565b90506000610528858561012f565b905063ee6b28008111156105d657826001600160a01b0316636c321c8a6040518163ffffffff1660e01b815260040160206040518083038186803b15801561056f57600080fd5b505afa158015610583573d6000803e3d6000fd5b505050506040513d601f19601f820116820180604052508101906105a791906109f7565b6105b563ee6b280083610c1b565b6105bf9084610bfc565b6105c99190610bdc565b6105d39083610bc4565b91505b509392505050565b60008060006105f38a85878c8f8b8e8e610849565b90506105ff8a866107b9565b915061060b8183610bc4565b9250985098509895505050505050565b60006305f5e1008873__OptionMath____________________________63d573d6156106488c87896104a7565b8b898f8d8d6040518763ffffffff1660e01b815260040161066e96959493929190610b98565b60206040518083038186803b15801561068657600080fd5b505af415801561069a573d6000803e3d6000fd5b505050506040513d601f19601f820116820180604052508101906106be91906109f7565b6106c89190610bfc565b6106d29190610bdc565b9998505050505050505050565b60008073__OptionMath____________________________63d573d61561070b896020015189896104a7565b6040808b01518b5160608d015160808e015193516001600160e01b031960e088901b16815261074195948b939291600401610b98565b60206040518083038186803b15801561075957600080fd5b505af415801561076d573d6000803e3d6000fd5b505050506040513d601f19601f8201168201806040525081019061079191906109f7565b9050838760200151826107a49190610bfc565b6107ae9190610bdc565b979650505050505050565b60006064826001600160a01b031663f3fa34956040518163ffffffff1660e01b815260040160206040518083038186803b1580156107f657600080fd5b505afa15801561080a573d6000803e3d6000fd5b505050506040513d601f19601f8201168201806040525081019061082e91906109f7565b6108389085610bfc565b6108429190610bdc565b9392505050565b60008073__OptionMath____________________________63d573d6156108718c8c8c6104a7565b89888a89896040518763ffffffff1660e01b815260040161089796959493929190610b98565b60206040518083038186803b1580156108af57600080fd5b505af41580156108c3573d6000803e3d6000fd5b505050506040513d601f19601f820116820180604052508101906108e791906109f7565b9050846108f48b83610bfc565b6108fe9190610bdc565b9a9950505050505050505050565b8035801515811461091c57600080fd5b919050565b803561091c81610c48565b6000806000806000858703610120811215610945578182fd5b60a0811215610952578182fd5b5060405160a081016001600160401b038111828210171561098157634e487b7160e01b83526041600452602483fd5b80604052508635815260208701356020820152604087013560408201526109aa6060880161090c565b60608201526109bb6080880161090c565b6080820152945060a0860135935060c086013592506109dc60e08701610921565b91506109eb6101008701610921565b90509295509295909350565b600060208284031215610a08578081fd5b5051919050565b60008060408385031215610a21578182fd5b823591506020830135610a3381610c48565b809150509250929050565b600080600060608486031215610a52578283fd5b833592506020840135610a6481610c48565b91506040840135610a7481610c48565b809150509250925092565b600080600080600080600080610100898b031215610a9b578283fd5b883597506020890135965060408901359550610ab960608a0161090c565b9450610ac760808a0161090c565b935060a0890135925060c0890135610ade81610c48565b915060e0890135610aee81610c48565b809150509295985092959890939650565b600080600080600080600060e0888a031215610b19578283fd5b873596506020880135955060408801359450606088013560038110610b3c578384fd5b93506080880135925060a0880135610b5381610c48565b915060c0880135610b6381610c48565b8091505092959891949750929550565b9485526020850193909352604084019190915260608301521515608082015260a00190565b95865260208601949094526040850192909252606084015215156080830152151560a082015260c00190565b60008219821115610bd757610bd7610c32565b500190565b600082610bf757634e487b7160e01b81526012600452602481fd5b500490565b6000816000190483118215151615610c1657610c16610c32565b500290565b600082821015610c2d57610c2d610c32565b500390565b634e487b7160e01b600052601160045260246000fd5b6001600160a01b0381168114610c5d57600080fd5b5056fea26469706673582212204718cc67318816a547e043d04e886f3154ceacf08e3ac1e83de0647cead34ada64736f6c63430008040033","bytecodeSha1":"26e45cff2ec04c40fa1a0c99acc0b1897bf54732","type":"library","abi":[{"inputs":[{"internalType":"uint256","name":"amount","type":"uint256"},{"internalType":"contract BufferIBFRPoolV2","name":"pool","type":"BufferIBFRPoolV2"},{"internalType":"contract OptionConfig","name":"config","type":"OptionConfig"}],"name":"currentImpliedVolatility","outputs":[{"internalType":"uint256","name":"iv","type":"uint256"}],"stateMutability":"view","type":"function"},{"inputs":[{"internalType":"uint256","name":"period","type":"uint256"},{"internalType":"uint256","name":"amount","type":"uint256"},{"internalType":"uint256","name":"strike","type":"uint256"},{"internalType":"enum IBufferOptions.OptionType","name":"optionType","type":"IBufferOptions.OptionType"},{"internalType":"uint256","name":"currentPrice","type":"uint256"},{"internalType":"contract OptionConfig","name":"config","type":"OptionConfig"},{"internalType":"contract BufferIBFRPoolV2","name":"pool","type":"BufferIBFRPoolV2"}],"name":"fees","outputs":[{"internalType":"uint256","name":"total","type":"uint256"},{"internalType":"uint256","name":"settlementFee","type":"uint256"},{"internalType":"uint256","name":"premium","type":"uint256"}],"stateMutability":"view","type":"function"},{"inputs":[{"internalType":"uint256","name":"period","type":"uint256"},{"internalType":"uint256","name":"amount","type":"uint256"},{"internalType":"uint256","name":"strike","type":"uint256"},{"internalType":"bool","name":"isYes","type":"bool"},{"internalType":"bool","name":"isAbove","type":"bool"},{"internalType":"uint256","name":"currentPrice","type":"uint256"},{"internalType":"contract OptionConfig","name":"config","type":"OptionConfig"},{"internalType":"contract BufferIBFRPoolV2","name":"pool","type":"BufferIBFRPoolV2"}],"name":"feesBinary","outputs":[{"internalType":"uint256","name":"total","type":"uint256"},{"internalType":"uint256","name":"settlementFee","type":"uint256"},{"internalType":"uint256","name":"premium","type":"uint256"}],"stateMutability":"view","type":"function"},{"inputs":[{"components":[{"internalType":"uint256","name":"period","type":"uint256"},{"internalType":"uint256","name":"amount","type":"uint256"},{"internalType":"uint256","name":"strike","type":"uint256"},{"internalType":"bool","name":"isYes","type":"bool"},{"internalType":"bool","name":"isAbove","type":"bool"}],"internalType":"struct IBufferOptions.OptionDetails","name":"optionDetails","type":"tuple"},{"internalType":"uint256","name":"currentPrice","type":"uint256"},{"internalType":"uint256","name":"KPI","type":"uint256"},{"internalType":"contract OptionConfig","name":"config","type":"OptionConfig"},{"internalType":"contract BufferIBFRPoolV2","name":"pool","type":"BufferIBFRPoolV2"}],"name":"feesKPIBinary","outputs":[{"internalType":"uint256","name":"total","type":"uint256"},{"internalType":"uint256","name":"settlementFee","type":"uint256"},{"internalType":"uint256","name":"premium","type":"uint256"}],"stateMutability":"view","type":"function"},{"inputs":[{"internalType":"uint256","name":"period","type":"uint256"},{"internalType":"uint256","name":"amount","type":"uint256"},{"internalType":"uint256","name":"strike","type":"uint256"},{"internalType":"bool","name":"isYes","type":"bool"},{"internalType":"bool","name":"isAbove","type":"bool"},{"internalType":"uint256","name":"currentPrice","type":"uint256"},{"internalType":"contract OptionConfig","name":"config","type":"OptionConfig"},{"internalType":"contract BufferIBFRPoolV2","name":"pool","type":"BufferIBFRPoolV2"}],"name":"feesTokenXBinary","outputs":[{"internalType":"uint256","name":"premium","type":"uint256"}],"stateMutability":"view","type":"function"},{"inputs":[{"internalType":"uint256","name":"period","type":"uint256"},{"internalType":"uint256","name":"amount","type":"uint256"},{"internalType":"uint256","name":"strike","type":"uint256"},{"internalType":"enum IBufferOptions.OptionType","name":"optionType","type":"IBufferOptions.OptionType"},{"internalType":"uint256","name":"currentPrice","type":"uint256"},{"internalType":"contract OptionConfig","name":"config","type":"OptionConfig"},{"internalType":"contract BufferIBFRPoolV2","name":"pool","type":"BufferIBFRPoolV2"}],"name":"feesUsd","outputs":[{"internalType":"uint256","name":"total","type":"uint256"},{"internalType":"uint256","name":"settlementFee","type":"uint256"},{"internalType":"uint256","name":"premium","type":"uint256"}],"stateMutability":"view","type":"function"},{"inputs":[{"internalType":"uint256","name":"amount","type":"uint256"},{"internalType":"contract BufferIBFRPoolV2","name":"pool","type":"BufferIBFRPoolV2"}],"name":"getNewUtilisation","outputs":[{"internalType":"uint256","name":"utilization","type":"uint256"}],"stateMutability":"view","type":"function"}],"compiler":{"version":"0.8.4+commit.c7e474f2","evm_version":"istanbul","optimizer":{"enabled":true,"runs":1}},"contractName":"FeeCalculator","deployedBytecode":"73000000000000000000000000000000000000000030146080604052600436106100775760003560e01c80630cd5f90f1461007c5780630e04d1bc146100a257806327150148146100d0578063c4653f31146100e3578063ce460184146100f6578063d13a79bc14610109578063e39d06e91461011c575b600080fd5b61008f61008a366004610a0f565b61012f565b6040519081526020015b60405180910390f35b6100b56100b036600461092c565b61027c565b60408051938452602084019290925290820152606001610099565b6100b56100de366004610aff565b6102b7565b6100b56100f1366004610aff565b6103b7565b61008f610104366004610a3e565b6104a7565b6100b5610117366004610a7f565b6105de565b61008f61012a366004610a7f565b61061b565b600080826001600160a01b031663d9ac10d96040518163ffffffff1660e01b815260040160206040518083038186803b15801561016b57600080fd5b505afa15801561017f573d6000803e3d6000fd5b505050506040513d601f19601f820116820180604052508101906101a391906109f7565b9050600081116101de5760405162461bcd60e51b815260206004820152600260248201526109e760f31b604482015260640160405180910390fd5b8084846001600160a01b0316636ab28bc86040518163ffffffff1660e01b815260040160206040518083038186803b15801561021957600080fd5b505afa15801561022d573d6000803e3d6000fd5b505050506040513d601f19601f8201168201806040525081019061025191906109f7565b61025b9190610bc4565b61026a906402540be400610bfc565b6102749190610bdc565b949350505050565b600080600061028e8885878a8a6106df565b905061029e8860200151866107b9565b91506102aa8183610bc4565b9250955095509592505050565b60008060008073__$21a7d244ba8ae9c6f13b9eaa6b054f8aee$__632c607c3b6102e28c888a6104a7565b8b8a8f60028e600281111561030757634e487b7160e01b600052602160045260246000fd5b146040518663ffffffff1660e01b8152600401610328959493929190610b73565b60206040518083038186803b15801561034057600080fd5b505af4158015610354573d6000803e3d6000fd5b505050506040513d601f19601f8201168201806040525081019061037891906109f7565b9050866103858b83610bfc565b61038f9190610bdc565b915061039b8a876107b9565b92506103a78284610bc4565b9350509750975097945050505050565b60008060008073__$21a7d244ba8ae9c6f13b9eaa6b054f8aee$__632c607c3b6103e28c888a6104a7565b8b8a8f60028e600281111561040757634e487b7160e01b600052602160045260246000fd5b146040518663ffffffff1660e01b8152600401610428959493929190610b73565b60206040518083038186803b15801561044057600080fd5b505af4158015610454573d6000803e3d6000fd5b505050506040513d601f19601f8201168201806040525081019061047891906109f7565b90506104848a876107b9565b9250866104918b83610bfc565b61049b9190610bdc565b91506103a78284610bc4565b6000816001600160a01b03166318f88e5b6040518163ffffffff1660e01b815260040160206040518083038186803b1580156104e257600080fd5b505afa1580156104f6573d6000803e3d6000fd5b505050506040513d601f19601f8201168201806040525081019061051a91906109f7565b90506000610528858561012f565b905063ee6b28008111156105d657826001600160a01b0316636c321c8a6040518163ffffffff1660e01b815260040160206040518083038186803b15801561056f57600080fd5b505afa158015610583573d6000803e3d6000fd5b505050506040513d601f19601f820116820180604052508101906105a791906109f7565b6105b563ee6b280083610c1b565b6105bf9084610bfc565b6105c99190610bdc565b6105d39083610bc4565b91505b509392505050565b60008060006105f38a85878c8f8b8e8e610849565b90506105ff8a866107b9565b915061060b8183610bc4565b9250985098509895505050505050565b60006305f5e1008873__$21a7d244ba8ae9c6f13b9eaa6b054f8aee$__63d573d6156106488c87896104a7565b8b898f8d8d6040518763ffffffff1660e01b815260040161066e96959493929190610b98565b60206040518083038186803b15801561068657600080fd5b505af415801561069a573d6000803e3d6000fd5b505050506040513d601f19601f820116820180604052508101906106be91906109f7565b6106c89190610bfc565b6106d29190610bdc565b9998505050505050505050565b60008073__$21a7d244ba8ae9c6f13b9eaa6b054f8aee$__63d573d61561070b896020015189896104a7565b6040808b01518b5160608d015160808e015193516001600160e01b031960e088901b16815261074195948b939291600401610b98565b60206040518083038186803b15801561075957600080fd5b505af415801561076d573d6000803e3d6000fd5b505050506040513d601f19601f8201168201806040525081019061079191906109f7565b9050838760200151826107a49190610bfc565b6107ae9190610bdc565b979650505050505050565b60006064826001600160a01b031663f3fa34956040518163ffffffff1660e01b815260040160206040518083038186803b1580156107f657600080fd5b505afa15801561080a573d6000803e3d6000fd5b505050506040513d601f19601f8201168201806040525081019061082e91906109f7565b6108389085610bfc565b6108429190610bdc565b9392505050565b60008073__$21a7d244ba8ae9c6f13b9eaa6b054f8aee$__63d573d6156108718c8c8c6104a7565b89888a89896040518763ffffffff1660e01b815260040161089796959493929190610b98565b60206040518083038186803b1580156108af57600080fd5b505af41580156108c3573d6000803e3d6000fd5b505050506040513d601f19601f820116820180604052508101906108e791906109f7565b9050846108f48b83610bfc565b6108fe9190610bdc565b9a9950505050505050505050565b8035801515811461091c57600080fd5b919050565b803561091c81610c48565b6000806000806000858703610120811215610945578182fd5b60a0811215610952578182fd5b5060405160a081016001600160401b038111828210171561098157634e487b7160e01b83526041600452602483fd5b80604052508635815260208701356020820152604087013560408201526109aa6060880161090c565b60608201526109bb6080880161090c565b6080820152945060a0860135935060c086013592506109dc60e08701610921565b91506109eb6101008701610921565b90509295509295909350565b600060208284031215610a08578081fd5b5051919050565b60008060408385031215610a21578182fd5b823591506020830135610a3381610c48565b809150509250929050565b600080600060608486031215610a52578283fd5b833592506020840135610a6481610c48565b91506040840135610a7481610c48565b809150509250925092565b600080600080600080600080610100898b031215610a9b578283fd5b883597506020890135965060408901359550610ab960608a0161090c565b9450610ac760808a0161090c565b935060a0890135925060c0890135610ade81610c48565b915060e0890135610aee81610c48565b809150509295985092959890939650565b600080600080600080600060e0888a031215610b19578283fd5b873596506020880135955060408801359450606088013560038110610b3c578384fd5b93506080880135925060a0880135610b5381610c48565b915060c0880135610b6381610c48565b8091505092959891949750929550565b9485526020850193909352604084019190915260608301521515608082015260a00190565b95865260208601949094526040850192909252606084015215156080830152151560a082015260c00190565b60008219821115610bd757610bd7610c32565b500190565b600082610bf757634e487b7160e01b81526012600452602481fd5b500490565b6000816000190483118215151615610c1657610c16610c32565b500290565b600082821015610c2d57610c2d610c32565b500390565b634e487b7160e01b600052601160045260246000fd5b6001600160a01b0381168114610c5d57600080fd5b5056fea26469706673582212204718cc67318816a547e043d04e886f3154ceacf08e3ac1e83de0647cead34ada64736f6c63430008040033","language":"Solidity","natspec":{"methods":{"currentImpliedVolatility(uint256,BufferIBFRPoolV2,OptionConfig)":{"notice":"Calculate the Utilisation adjusted ImpliedVol for the pool according to https://www.desmos.com/calculator/xdmhn97opd","params":{"amount":"Option amount","config":"The option configuration","pool":"The pool selling the option"},"returns":{"iv":"The adjusted ImpliedVol"}},"fees(uint256,uint256,uint256,IBufferOptions.OptionType,uint256,OptionConfig,BufferIBFRPoolV2)":{"notice":"Used for getting the price for Options in tokenX","params":{"amount":"Option amount","config":"The option configuration","currentPrice":"Current price of the underlying asset","optionType":"Type of the Option","period":"Option period in seconds (1 days <= period <= 4 weeks)","pool":"The pool selling the option","strike":"Strike price of the option"},"returns":{"premium":"Amount that covers the price difference in the ITM options","settlementFee":"Amount to be distributed to the Buffer token holders","total":"Total price to be paid"}},"feesBinary(uint256,uint256,uint256,bool,bool,uint256,OptionConfig,BufferIBFRPoolV2)":{"notice":"Used for getting the price for Binary Options","params":{"amount":"Option amount","config":"The option configuration","currentPrice":"Current price of the underlying asset","isAbove":"whether the price will stay above this strike or not","isYes":"whether the option isAbove or not","period":"Option period in seconds (1 days <= period <= 4 weeks)","pool":"The pool selling the option","strike":"Strike price of the option"},"returns":{"premium":"Amount that covers the price difference in the ITM options","settlementFee":"Amount to be distributed to the Buffer token holders","total":"Total price to be paid"}},"feesKPIBinary(IBufferOptions.OptionDetails,uint256,uint256,OptionConfig,BufferIBFRPoolV2)":{"notice":"Used for getting the price for Binary KPI Options","params":{"KPI":"KPI value for option","config":"Option config","currentPrice":"Current price of the tokenX","optionDetails":"Details of the option to be priced","pool":"pool contract"},"returns":{"premium":"Amount that covers the price difference in the ITM options","settlementFee":"Amount to be distributed to the Buffer token holders","total":"Total price to be paid"}},"feesTokenXBinary(uint256,uint256,uint256,bool,bool,uint256,OptionConfig,BufferIBFRPoolV2)":{"notice":"Used for getting the price for Binary Options","params":{"amount":"Option amount","config":"The option configuration","currentPrice":"Current price of the underlying asset","isAbove":"whether the price will stay above this strike or not","isYes":"whether the option isAbove or not","period":"Option period in seconds (1 days <= period <= 4 weeks)","pool":"The pool selling the option","strike":"Strike price of the option"},"returns":{"premium":"Amount that covers the price difference in the ITM options"}},"feesUsd(uint256,uint256,uint256,IBufferOptions.OptionType,uint256,OptionConfig,BufferIBFRPoolV2)":{"notice":"Used for getting the price for Options in USD","params":{"amount":"Option amount","config":"The option configuration","currentPrice":"Current price of the underlying asset","optionType":"Type of the Option","period":"Option period in seconds (1 days <= period <= 4 weeks)","pool":"The pool selling the option","strike":"Strike price of the option"},"returns":{"premium":"Amount that covers the price difference in the ITM options in USD","settlementFee":"Amount to be distributed to the Buffer token holders in USD","total":"Total price to be paid in USD"}},"getNewUtilisation(uint256,BufferIBFRPoolV2)":{"notice":"Calculate the current Utilisation","params":{"amount":"Option amount","pool":"The pool selling the option"},"returns":{"utilization":"Current utilization"}}},"kind":"dev","version":1},"opcodes":"PUSH20 0x0 ADDRESS EQ PUSH1 0x80 PUSH1 0x40 MSTORE PUSH1 0x4 CALLDATASIZE LT PUSH2 0x77 JUMPI PUSH1 0x0 CALLDATALOAD PUSH1 0xE0 SHR DUP1 PUSH4 0xCD5F90F EQ PUSH2 0x7C JUMPI DUP1 PUSH4 0xE04D1BC EQ PUSH2 0xA2 JUMPI DUP1 PUSH4 0x27150148 EQ PUSH2 0xD0 JUMPI DUP1 PUSH4 0xC4653F31 EQ PUSH2 0xE3 JUMPI DUP1 PUSH4 0xCE460184 EQ PUSH2 0xF6 JUMPI DUP1 PUSH4 0xD13A79BC EQ PUSH2 0x109 JUMPI DUP1 PUSH4 0xE39D06E9 EQ PUSH2 0x11C JUMPI JUMPDEST PUSH1 0x0 DUP1 REVERT JUMPDEST PUSH2 0x8F PUSH2 0x8A CALLDATASIZE PUSH1 0x4 PUSH2 0xA0F JUMP JUMPDEST PUSH2 0x12F JUMP JUMPDEST PUSH1 0x40 MLOAD SWAP1 DUP2 MSTORE PUSH1 0x20 ADD JUMPDEST PUSH1 0x40 MLOAD DUP1 SWAP2 SUB SWAP1 RETURN JUMPDEST PUSH2 0xB5 PUSH2 0xB0 CALLDATASIZE PUSH1 0x4 PUSH2 0x92C JUMP JUMPDEST PUSH2 0x27C JUMP JUMPDEST PUSH1 0x40 DUP1 MLOAD SWAP4 DUP5 MSTORE PUSH1 0x20 DUP5 ADD SWAP3 SWAP1 SWAP3 MSTORE SWAP1 DUP3 ADD MSTORE PUSH1 0x60 ADD PUSH2 0x99 JUMP JUMPDEST PUSH2 0xB5 PUSH2 0xDE CALLDATASIZE PUSH1 0x4 PUSH2 0xAFF JUMP JUMPDEST PUSH2 0x2B7 JUMP JUMPDEST PUSH2 0xB5 PUSH2 0xF1 CALLDATASIZE PUSH1 0x4 PUSH2 0xAFF JUMP JUMPDEST PUSH2 0x3B7 JUMP JUMPDEST PUSH2 0x8F PUSH2 0x104 CALLDATASIZE PUSH1 0x4 PUSH2 0xA3E JUMP JUMPDEST PUSH2 0x4A7 JUMP JUMPDEST PUSH2 0xB5 PUSH2 0x117 CALLDATASIZE PUSH1 0x4 PUSH2 0xA7F JUMP JUMPDEST PUSH2 0x5DE JUMP JUMPDEST PUSH2 0x8F PUSH2 0x12A CALLDATASIZE PUSH1 0x4 PUSH2 0xA7F JUMP JUMPDEST PUSH2 0x61B JUMP JUMPDEST PUSH1 0x0 DUP1 DUP3 PUSH1 0x1 PUSH1 0x1 PUSH1 0xA0 SHL SUB AND PUSH4 0xD9AC10D9 PUSH1 0x40 MLOAD DUP2 PUSH4 0xFFFFFFFF AND PUSH1 0xE0 SHL DUP2 MSTORE PUSH1 0x4 ADD PUSH1 0x20 PUSH1 0x40 MLOAD DUP1 DUP4 SUB DUP2 DUP7 DUP1 EXTCODESIZE ISZERO DUP1 ISZERO PUSH2 0x16B JUMPI PUSH1 0x0 DUP1 REVERT JUMPDEST POP GAS STATICCALL ISZERO DUP1 ISZERO PUSH2 0x17F JUMPI RETURNDATASIZE PUSH1 0x0 DUP1 RETURNDATACOPY RETURNDATASIZE PUSH1 0x0 REVERT JUMPDEST POP POP POP POP PUSH1 0x40 MLOAD RETURNDATASIZE PUSH1 0x1F NOT PUSH1 0x1F DUP3 ADD AND DUP3 ADD DUP1 PUSH1 0x40 MSTORE POP DUP2 ADD SWAP1 PUSH2 0x1A3 SWAP2 SWAP1 PUSH2 0x9F7 JUMP JUMPDEST SWAP1 POP PUSH1 0x0 DUP2 GT PUSH2 0x1DE JUMPI PUSH1 0x40 MLOAD PUSH3 0x461BCD PUSH1 0xE5 SHL DUP2 MSTORE PUSH1 0x20 PUSH1 0x4 DUP3 ADD MSTORE PUSH1 0x2 PUSH1 0x24 DUP3 ADD MSTORE PUSH2 0x9E7 PUSH1 0xF3 SHL PUSH1 0x44 DUP3 ADD MSTORE PUSH1 0x64 ADD PUSH1 0x40 MLOAD DUP1 SWAP2 SUB SWAP1 REVERT JUMPDEST DUP1 DUP5 DUP5 PUSH1 0x1 PUSH1 0x1 PUSH1 0xA0 SHL SUB AND PUSH4 0x6AB28BC8 PUSH1 0x40 MLOAD DUP2 PUSH4 0xFFFFFFFF AND PUSH1 0xE0 SHL DUP2 MSTORE PUSH1 0x4 ADD PUSH1 0x20 PUSH1 0x40 MLOAD DUP1 DUP4 SUB DUP2 DUP7 DUP1 EXTCODESIZE ISZERO DUP1 ISZERO PUSH2 0x219 JUMPI PUSH1 0x0 DUP1 REVERT JUMPDEST POP GAS STATICCALL ISZERO DUP1 ISZERO PUSH2 0x22D JUMPI RETURNDATASIZE PUSH1 0x0 DUP1 RETURNDATACOPY RETURNDATASIZE PUSH1 0x0 REVERT JUMPDEST POP POP POP POP PUSH1 0x40 MLOAD RETURNDATASIZE PUSH1 0x1F NOT PUSH1 0x1F DUP3 ADD AND DUP3 ADD DUP1 PUSH1 0x40 MSTORE POP DUP2 ADD SWAP1 PUSH2 0x251 SWAP2 SWAP1 PUSH2 0x9F7 JUMP JUMPDEST PUSH2 0x25B SWAP2 SWAP1 PUSH2 0xBC4 JUMP JUMPDEST PUSH2 0x26A SWAP1 PUSH5 0x2540BE400 PUSH2 0xBFC JUMP JUMPDEST PUSH2 0x274 SWAP2 SWAP1 PUSH2 0xBDC JUMP JUMPDEST SWAP5 SWAP4 POP POP POP POP JUMP JUMPDEST PUSH1 0x0 DUP1 PUSH1 0x0 PUSH2 0x28E DUP9 DUP6 DUP8 DUP11 DUP11 PUSH2 0x6DF JUMP JUMPDEST SWAP1 POP PUSH2 0x29E DUP9 PUSH1 0x20 ADD MLOAD DUP7 PUSH2 0x7B9 JUMP JUMPDEST SWAP2 POP PUSH2 0x2AA DUP2 DUP4 PUSH2 0xBC4 JUMP JUMPDEST SWAP3 POP SWAP6 POP SWAP6 POP SWAP6 SWAP3 POP POP POP JUMP JUMPDEST PUSH1 0x0 DUP1 PUSH1 0x0 DUP1 PUSH20 0x0 PUSH4 0x2C607C3B PUSH2 0x2E2 DUP13 DUP9 DUP11 PUSH2 0x4A7 JUMP JUMPDEST DUP12 DUP11 DUP16 PUSH1 0x2 DUP15 PUSH1 0x2 DUP2 GT ISZERO PUSH2 0x307 JUMPI PUSH4 0x4E487B71 PUSH1 0xE0 SHL PUSH1 0x0 MSTORE PUSH1 0x21 PUSH1 0x4 MSTORE PUSH1 0x24 PUSH1 0x0 REVERT JUMPDEST EQ PUSH1 0x40 MLOAD DUP7 PUSH4 0xFFFFFFFF AND PUSH1 0xE0 SHL DUP2 MSTORE PUSH1 0x4 ADD PUSH2 0x328 SWAP6 SWAP5 SWAP4 SWAP3 SWAP2 SWAP1 PUSH2 0xB73 JUMP JUMPDEST PUSH1 0x20 PUSH1 0x40 MLOAD DUP1 DUP4 SUB DUP2 DUP7 DUP1 EXTCODESIZE ISZERO DUP1 ISZERO PUSH2 0x340 JUMPI PUSH1 0x0 DUP1 REVERT JUMPDEST POP GAS DELEGATECALL ISZERO DUP1 ISZERO PUSH2 0x354 JUMPI RETURNDATASIZE PUSH1 0x0 DUP1 RETURNDATACOPY RETURNDATASIZE PUSH1 0x0 REVERT JUMPDEST POP POP POP POP PUSH1 0x40 MLOAD RETURNDATASIZE PUSH1 0x1F NOT PUSH1 0x1F DUP3 ADD AND DUP3 ADD DUP1 PUSH1 0x40 MSTORE POP DUP2 ADD SWAP1 PUSH2 0x378 SWAP2 SWAP1 PUSH2 0x9F7 JUMP JUMPDEST SWAP1 POP DUP7 PUSH2 0x385 DUP12 DUP4 PUSH2 0xBFC JUMP JUMPDEST PUSH2 0x38F SWAP2 SWAP1 PUSH2 0xBDC JUMP JUMPDEST SWAP2 POP PUSH2 0x39B DUP11 DUP8 PUSH2 0x7B9 JUMP JUMPDEST SWAP3 POP PUSH2 0x3A7 DUP3 DUP5 PUSH2 0xBC4 JUMP JUMPDEST SWAP4 POP POP SWAP8 POP SWAP8 POP SWAP8 SWAP5 POP POP POP POP POP JUMP JUMPDEST PUSH1 0x0 DUP1 PUSH1 0x0 DUP1 PUSH20 0x0 PUSH4 0x2C607C3B PUSH2 0x3E2 DUP13 DUP9 DUP11 PUSH2 0x4A7 JUMP JUMPDEST DUP12 DUP11 DUP16 PUSH1 0x2 DUP15 PUSH1 0x2 DUP2 GT ISZERO PUSH2 0x407 JUMPI PUSH4 0x4E487B71 PUSH1 0xE0 SHL PUSH1 0x0 MSTORE PUSH1 0x21 PUSH1 0x4 MSTORE PUSH1 0x24 PUSH1 0x0 REVERT JUMPDEST EQ PUSH1 0x40 MLOAD DUP7 PUSH4 0xFFFFFFFF AND PUSH1 0xE0 SHL DUP2 MSTORE PUSH1 0x4 ADD PUSH2 0x428 SWAP6 SWAP5 SWAP4 SWAP3 SWAP2 SWAP1 PUSH2 0xB73 JUMP JUMPDEST PUSH1 0x20 PUSH1 0x40 MLOAD DUP1 DUP4 SUB DUP2 DUP7 DUP1 EXTCODESIZE ISZERO DUP1 ISZERO PUSH2 0x440 JUMPI PUSH1 0x0 DUP1 REVERT JUMPDEST POP GAS DELEGATECALL ISZERO DUP1 ISZERO PUSH2 0x454 JUMPI RETURNDATASIZE PUSH1 0x0 DUP1 RETURNDATACOPY RETURNDATASIZE PUSH1 0x0 REVERT JUMPDEST POP POP POP POP PUSH1 0x40 MLOAD RETURNDATASIZE PUSH1 0x1F NOT PUSH1 0x1F DUP3 ADD AND DUP3 ADD DUP1 PUSH1 0x40 MSTORE POP DUP2 ADD SWAP1 PUSH2 0x478 SWAP2 SWAP1 PUSH2 0x9F7 JUMP JUMPDEST SWAP1 POP PUSH2 0x484 DUP11 DUP8 PUSH2 0x7B9 JUMP JUMPDEST SWAP3 POP DUP7 PUSH2 0x491 DUP12 DUP4 PUSH2 0xBFC JUMP JUMPDEST PUSH2 0x49B SWAP2 SWAP1 PUSH2 0xBDC JUMP JUMPDEST SWAP2 POP PUSH2 0x3A7 DUP3 DUP5 PUSH2 0xBC4 JUMP JUMPDEST PUSH1 0x0 DUP2 PUSH1 0x1 PUSH1 0x1 PUSH1 0xA0 SHL SUB AND PUSH4 0x18F88E5B PUSH1 0x40 MLOAD DUP2 PUSH4 0xFFFFFFFF AND PUSH1 0xE0 SHL DUP2 MSTORE PUSH1 0x4 ADD PUSH1 0x20 PUSH1 0x40 MLOAD DUP1 DUP4 SUB DUP2 DUP7 DUP1 EXTCODESIZE ISZERO DUP1 ISZERO PUSH2 0x4E2 JUMPI PUSH1 0x0 DUP1 REVERT JUMPDEST POP GAS STATICCALL ISZERO DUP1 ISZERO PUSH2 0x4F6 JUMPI RETURNDATASIZE PUSH1 0x0 DUP1 RETURNDATACOPY RETURNDATASIZE PUSH1 0x0 REVERT JUMPDEST POP POP POP POP PUSH1 0x40 MLOAD RETURNDATASIZE PUSH1 0x1F NOT PUSH1 0x1F DUP3 ADD AND DUP3 ADD DUP1 PUSH1 0x40 MSTORE POP DUP2 ADD SWAP1 PUSH2 0x51A SWAP2 SWAP1 PUSH2 0x9F7 JUMP JUMPDEST SWAP1 POP PUSH1 0x0 PUSH2 0x528 DUP6 DUP6 PUSH2 0x12F JUMP JUMPDEST SWAP1 POP PUSH4 0xEE6B2800 DUP2 GT ISZERO PUSH2 0x5D6 JUMPI DUP3 PUSH1 0x1 PUSH1 0x1 PUSH1 0xA0 SHL SUB AND PUSH4 0x6C321C8A PUSH1 0x40 MLOAD DUP2 PUSH4 0xFFFFFFFF AND PUSH1 0xE0 SHL DUP2 MSTORE PUSH1 0x4 ADD PUSH1 0x20 PUSH1 0x40 MLOAD DUP1 DUP4 SUB DUP2 DUP7 DUP1 EXTCODESIZE ISZERO DUP1 ISZERO PUSH2 0x56F JUMPI PUSH1 0x0 DUP1 REVERT JUMPDEST POP GAS STATICCALL ISZERO DUP1 ISZERO PUSH2 0x583 JUMPI RETURNDATASIZE PUSH1 0x0 DUP1 RETURNDATACOPY RETURNDATASIZE PUSH1 0x0 REVERT JUMPDEST POP POP POP POP PUSH1 0x40 MLOAD RETURNDATASIZE PUSH1 0x1F NOT PUSH1 0x1F DUP3 ADD AND DUP3 ADD DUP1 PUSH1 0x40 MSTORE POP DUP2 ADD SWAP1 PUSH2 0x5A7 SWAP2 SWAP1 PUSH2 0x9F7 JUMP JUMPDEST PUSH2 0x5B5 PUSH4 0xEE6B2800 DUP4 PUSH2 0xC1B JUMP JUMPDEST PUSH2 0x5BF SWAP1 DUP5 PUSH2 0xBFC JUMP JUMPDEST PUSH2 0x5C9 SWAP2 SWAP1 PUSH2 0xBDC JUMP JUMPDEST PUSH2 0x5D3 SWAP1 DUP4 PUSH2 0xBC4 JUMP JUMPDEST SWAP2 POP JUMPDEST POP SWAP4 SWAP3 POP POP POP JUMP JUMPDEST PUSH1 0x0 DUP1 PUSH1 0x0 PUSH2 0x5F3 DUP11 DUP6 DUP8 DUP13 DUP16 DUP12 DUP15 DUP15 PUSH2 0x849 JUMP JUMPDEST SWAP1 POP PUSH2 0x5FF DUP11 DUP7 PUSH2 0x7B9 JUMP JUMPDEST SWAP2 POP PUSH2 0x60B DUP2 DUP4 PUSH2 0xBC4 JUMP JUMPDEST SWAP3 POP SWAP9 POP SWAP9 POP SWAP9 SWAP6 POP POP POP POP POP POP JUMP JUMPDEST PUSH1 0x0 PUSH4 0x5F5E100 DUP9 PUSH20 0x0 PUSH4 0xD573D615 PUSH2 0x648 DUP13 DUP8 DUP10 PUSH2 0x4A7 JUMP JUMPDEST DUP12 DUP10 DUP16 DUP14 DUP14 PUSH1 0x40 MLOAD DUP8 PUSH4 0xFFFFFFFF AND PUSH1 0xE0 SHL DUP2 MSTORE PUSH1 0x4 ADD PUSH2 0x66E SWAP7 SWAP6 SWAP5 SWAP4 SWAP3 SWAP2 SWAP1 PUSH2 0xB98 JUMP JUMPDEST PUSH1 0x20 PUSH1 0x40 MLOAD DUP1 DUP4 SUB DUP2 DUP7 DUP1 EXTCODESIZE ISZERO DUP1 ISZERO PUSH2 0x686 JUMPI PUSH1 0x0 DUP1 REVERT JUMPDEST POP GAS DELEGATECALL ISZERO DUP1 ISZERO PUSH2 0x69A JUMPI RETURNDATASIZE PUSH1 0x0 DUP1 RETURNDATACOPY RETURNDATASIZE PUSH1 0x0 REVERT JUMPDEST POP POP POP POP PUSH1 0x40 MLOAD RETURNDATASIZE PUSH1 0x1F NOT PUSH1 0x1F DUP3 ADD AND DUP3 ADD DUP1 PUSH1 0x40 MSTORE POP DUP2 ADD SWAP1 PUSH2 0x6BE SWAP2 SWAP1 PUSH2 0x9F7 JUMP JUMPDEST PUSH2 0x6C8 SWAP2 SWAP1 PUSH2 0xBFC JUMP JUMPDEST PUSH2 0x6D2 SWAP2 SWAP1 PUSH2 0xBDC JUMP JUMPDEST SWAP10 SWAP9 POP POP POP POP POP POP POP POP POP JUMP JUMPDEST PUSH1 0x0 DUP1 PUSH20 0x0 PUSH4 0xD573D615 PUSH2 0x70B DUP10 PUSH1 0x20 ADD MLOAD DUP10 DUP10 PUSH2 0x4A7 JUMP JUMPDEST PUSH1 0x40 DUP1 DUP12 ADD MLOAD DUP12 MLOAD PUSH1 0x60 DUP14 ADD MLOAD PUSH1 0x80 DUP15 ADD MLOAD SWAP4 MLOAD PUSH1 0x1 PUSH1 0x1 PUSH1 0xE0 SHL SUB NOT PUSH1 0xE0 DUP9 SWAP1 SHL AND DUP2 MSTORE PUSH2 0x741 SWAP6 SWAP5 DUP12 SWAP4 SWAP3 SWAP2 PUSH1 0x4 ADD PUSH2 0xB98 JUMP JUMPDEST PUSH1 0x20 PUSH1 0x40 MLOAD DUP1 DUP4 SUB DUP2 DUP7 DUP1 EXTCODESIZE ISZERO DUP1 ISZERO PUSH2 0x759 JUMPI PUSH1 0x0 DUP1 REVERT JUMPDEST POP GAS DELEGATECALL ISZERO DUP1 ISZERO PUSH2 0x76D JUMPI RETURNDATASIZE PUSH1 0x0 DUP1 RETURNDATACOPY RETURNDATASIZE PUSH1 0x0 REVERT JUMPDEST POP POP POP POP PUSH1 0x40 MLOAD RETURNDATASIZE PUSH1 0x1F NOT PUSH1 0x1F DUP3 ADD AND DUP3 ADD DUP1 PUSH1 0x40 MSTORE POP DUP2 ADD SWAP1 PUSH2 0x791 SWAP2 SWAP1 PUSH2 0x9F7 JUMP JUMPDEST SWAP1 POP DUP4 DUP8 PUSH1 0x20 ADD MLOAD DUP3 PUSH2 0x7A4 SWAP2 SWAP1 PUSH2 0xBFC JUMP JUMPDEST PUSH2 0x7AE SWAP2 SWAP1 PUSH2 0xBDC JUMP JUMPDEST SWAP8 SWAP7 POP POP POP POP POP POP POP JUMP JUMPDEST PUSH1 0x0 PUSH1 0x64 DUP3 PUSH1 0x1 PUSH1 0x1 PUSH1 0xA0 SHL SUB AND PUSH4 0xF3FA3495 PUSH1 0x40 MLOAD DUP2 PUSH4 0xFFFFFFFF AND PUSH1 0xE0 SHL DUP2 MSTORE PUSH1 0x4 ADD PUSH1 0x20 PUSH1 0x40 MLOAD DUP1 DUP4 SUB DUP2 DUP7 DUP1 EXTCODESIZE ISZERO DUP1 ISZERO PUSH2 0x7F6 JUMPI PUSH1 0x0 DUP1 REVERT JUMPDEST POP GAS STATICCALL ISZERO DUP1 ISZERO PUSH2 0x80A JUMPI RETURNDATASIZE PUSH1 0x0 DUP1 RETURNDATACOPY RETURNDATASIZE PUSH1 0x0 REVERT JUMPDEST POP POP POP POP PUSH1 0x40 MLOAD RETURNDATASIZE PUSH1 0x1F NOT PUSH1 0x1F DUP3 ADD AND DUP3 ADD DUP1 PUSH1 0x40 MSTORE POP DUP2 ADD SWAP1 PUSH2 0x82E SWAP2 SWAP1 PUSH2 0x9F7 JUMP JUMPDEST PUSH2 0x838 SWAP1 DUP6 PUSH2 0xBFC JUMP JUMPDEST PUSH2 0x842 SWAP2 SWAP1 PUSH2 0xBDC JUMP JUMPDEST SWAP4 SWAP3 POP POP POP JUMP JUMPDEST PUSH1 0x0 DUP1 PUSH20 0x0 PUSH4 0xD573D615 PUSH2 0x871 DUP13 DUP13 DUP13 PUSH2 0x4A7 JUMP JUMPDEST DUP10 DUP9 DUP11 DUP10 DUP10 PUSH1 0x40 MLOAD DUP8 PUSH4 0xFFFFFFFF AND PUSH1 0xE0 SHL DUP2 MSTORE PUSH1 0x4 ADD PUSH2 0x897 SWAP7 SWAP6 SWAP5 SWAP4 SWAP3 SWAP2 SWAP1 PUSH2 0xB98 JUMP JUMPDEST PUSH1 0x20 PUSH1 0x40 MLOAD DUP1 DUP4 SUB DUP2 DUP7 DUP1 EXTCODESIZE ISZERO DUP1 ISZERO PUSH2 0x8AF JUMPI PUSH1 0x0 DUP1 REVERT JUMPDEST POP GAS DELEGATECALL ISZERO DUP1 ISZERO PUSH2 0x8C3 JUMPI RETURNDATASIZE PUSH1 0x0 DUP1 RETURNDATACOPY RETURNDATASIZE PUSH1 0x0 REVERT JUMPDEST POP POP POP POP PUSH1 0x40 MLOAD RETURNDATASIZE PUSH1 0x1F NOT PUSH1 0x1F DUP3 ADD AND DUP3 ADD DUP1 PUSH1 0x40 MSTORE POP DUP2 ADD SWAP1 PUSH2 0x8E7 SWAP2 SWAP1 PUSH2 0x9F7 JUMP JUMPDEST SWAP1 POP DUP5 PUSH2 0x8F4 DUP12 DUP4 PUSH2 0xBFC JUMP JUMPDEST PUSH2 0x8FE SWAP2 SWAP1 PUSH2 0xBDC JUMP JUMPDEST SWAP11 SWAP10 POP POP POP POP POP POP POP POP POP POP JUMP JUMPDEST DUP1 CALLDATALOAD DUP1 ISZERO ISZERO DUP2 EQ PUSH2 0x91C JUMPI PUSH1 0x0 DUP1 REVERT JUMPDEST SWAP2 SWAP1 POP JUMP JUMPDEST DUP1 CALLDATALOAD PUSH2 0x91C DUP2 PUSH2 0xC48 JUMP JUMPDEST PUSH1 0x0 DUP1 PUSH1 0x0 DUP1 PUSH1 0x0 DUP6 DUP8 SUB PUSH2 0x120 DUP2 SLT ISZERO PUSH2 0x945 JUMPI DUP2 DUP3 REVERT JUMPDEST PUSH1 0xA0 DUP2 SLT ISZERO PUSH2 0x952 JUMPI DUP2 DUP3 REVERT JUMPDEST POP PUSH1 0x40 MLOAD PUSH1 0xA0 DUP2 ADD PUSH1 0x1 PUSH1 0x1 PUSH1 0x40 SHL SUB DUP2 GT DUP3 DUP3 LT OR ISZERO PUSH2 0x981 JUMPI PUSH4 0x4E487B71 PUSH1 0xE0 SHL DUP4 MSTORE PUSH1 0x41 PUSH1 0x4 MSTORE PUSH1 0x24 DUP4 REVERT JUMPDEST DUP1 PUSH1 0x40 MSTORE POP DUP7 CALLDATALOAD DUP2 MSTORE PUSH1 0x20 DUP8 ADD CALLDATALOAD PUSH1 0x20 DUP3 ADD MSTORE PUSH1 0x40 DUP8 ADD CALLDATALOAD PUSH1 0x40 DUP3 ADD MSTORE PUSH2 0x9AA PUSH1 0x60 DUP9 ADD PUSH2 0x90C JUMP JUMPDEST PUSH1 0x60 DUP3 ADD MSTORE PUSH2 0x9BB PUSH1 0x80 DUP9 ADD PUSH2 0x90C JUMP JUMPDEST PUSH1 0x80 DUP3 ADD MSTORE SWAP5 POP PUSH1 0xA0 DUP7 ADD CALLDATALOAD SWAP4 POP PUSH1 0xC0 DUP7 ADD CALLDATALOAD SWAP3 POP PUSH2 0x9DC PUSH1 0xE0 DUP8 ADD PUSH2 0x921 JUMP JUMPDEST SWAP2 POP PUSH2 0x9EB PUSH2 0x100 DUP8 ADD PUSH2 0x921 JUMP JUMPDEST SWAP1 POP SWAP3 SWAP6 POP SWAP3 SWAP6 SWAP1 SWAP4 POP JUMP JUMPDEST PUSH1 0x0 PUSH1 0x20 DUP3 DUP5 SUB SLT ISZERO PUSH2 0xA08 JUMPI DUP1 DUP2 REVERT JUMPDEST POP MLOAD SWAP2 SWAP1 POP JUMP JUMPDEST PUSH1 0x0 DUP1 PUSH1 0x40 DUP4 DUP6 SUB SLT ISZERO PUSH2 0xA21 JUMPI DUP2 DUP3 REVERT JUMPDEST DUP3 CALLDATALOAD SWAP2 POP PUSH1 0x20 DUP4 ADD CALLDATALOAD PUSH2 0xA33 DUP2 PUSH2 0xC48 JUMP JUMPDEST DUP1 SWAP2 POP POP SWAP3 POP SWAP3 SWAP1 POP JUMP JUMPDEST PUSH1 0x0 DUP1 PUSH1 0x0 PUSH1 0x60 DUP5 DUP7 SUB SLT ISZERO PUSH2 0xA52 JUMPI DUP3 DUP4 REVERT JUMPDEST DUP4 CALLDATALOAD SWAP3 POP PUSH1 0x20 DUP5 ADD CALLDATALOAD PUSH2 0xA64 DUP2 PUSH2 0xC48 JUMP JUMPDEST SWAP2 POP PUSH1 0x40 DUP5 ADD CALLDATALOAD PUSH2 0xA74 DUP2 PUSH2 0xC48 JUMP JUMPDEST DUP1 SWAP2 POP POP SWAP3 POP SWAP3 POP SWAP3 JUMP JUMPDEST PUSH1 0x0 DUP1 PUSH1 0x0 DUP1 PUSH1 0x0 DUP1 PUSH1 0x0 DUP1 PUSH2 0x100 DUP10 DUP12 SUB SLT ISZERO PUSH2 0xA9B JUMPI DUP3 DUP4 REVERT JUMPDEST DUP9 CALLDATALOAD SWAP8 POP PUSH1 0x20 DUP10 ADD CALLDATALOAD SWAP7 POP PUSH1 0x40 DUP10 ADD CALLDATALOAD SWAP6 POP PUSH2 0xAB9 PUSH1 0x60 DUP11 ADD PUSH2 0x90C JUMP JUMPDEST SWAP5 POP PUSH2 0xAC7 PUSH1 0x80 DUP11 ADD PUSH2 0x90C JUMP JUMPDEST SWAP4 POP PUSH1 0xA0 DUP10 ADD CALLDATALOAD SWAP3 POP PUSH1 0xC0 DUP10 ADD CALLDATALOAD PUSH2 0xADE DUP2 PUSH2 0xC48 JUMP JUMPDEST SWAP2 POP PUSH1 0xE0 DUP10 ADD CALLDATALOAD PUSH2 0xAEE DUP2 PUSH2 0xC48 JUMP JUMPDEST DUP1 SWAP2 POP POP SWAP3 SWAP6 SWAP9 POP SWAP3 SWAP6 SWAP9 SWAP1 SWAP4 SWAP7 POP JUMP JUMPDEST PUSH1 0x0 DUP1 PUSH1 0x0 DUP1 PUSH1 0x0 DUP1 PUSH1 0x0 PUSH1 0xE0 DUP9 DUP11 SUB SLT ISZERO PUSH2 0xB19 JUMPI DUP3 DUP4 REVERT JUMPDEST DUP8 CALLDATALOAD SWAP7 POP PUSH1 0x20 DUP9 ADD CALLDATALOAD SWAP6 POP PUSH1 0x40 DUP9 ADD CALLDATALOAD SWAP5 POP PUSH1 0x60 DUP9 ADD CALLDATALOAD PUSH1 0x3 DUP2 LT PUSH2 0xB3C JUMPI DUP4 DUP5 REVERT JUMPDEST SWAP4 POP PUSH1 0x80 DUP9 ADD CALLDATALOAD SWAP3 POP PUSH1 0xA0 DUP9 ADD CALLDATALOAD PUSH2 0xB53 DUP2 PUSH2 0xC48 JUMP JUMPDEST SWAP2 POP PUSH1 0xC0 DUP9 ADD CALLDATALOAD PUSH2 0xB63 DUP2 PUSH2 0xC48 JUMP JUMPDEST DUP1 SWAP2 POP POP SWAP3 SWAP6 SWAP9 SWAP2 SWAP5 SWAP8 POP SWAP3 SWAP6 POP JUMP JUMPDEST SWAP5 DUP6 MSTORE PUSH1 0x20 DUP6 ADD SWAP4 SWAP1 SWAP4 MSTORE PUSH1 0x40 DUP5 ADD SWAP2 SWAP1 SWAP2 MSTORE PUSH1 0x60 DUP4 ADD MSTORE ISZERO ISZERO PUSH1 0x80 DUP3 ADD MSTORE PUSH1 0xA0 ADD SWAP1 JUMP JUMPDEST SWAP6 DUP7 MSTORE PUSH1 0x20 DUP7 ADD SWAP5 SWAP1 SWAP5 MSTORE PUSH1 0x40 DUP6 ADD SWAP3 SWAP1 SWAP3 MSTORE PUSH1 0x60 DUP5 ADD MSTORE ISZERO ISZERO PUSH1 0x80 DUP4 ADD MSTORE ISZERO ISZERO PUSH1 0xA0 DUP3 ADD MSTORE PUSH1 0xC0 ADD SWAP1 JUMP JUMPDEST PUSH1 0x0 DUP3 NOT DUP3 GT ISZERO PUSH2 0xBD7 JUMPI PUSH2 0xBD7 PUSH2 0xC32 JUMP JUMPDEST POP ADD SWAP1 JUMP JUMPDEST PUSH1 0x0 DUP3 PUSH2 0xBF7 JUMPI PUSH4 0x4E487B71 PUSH1 0xE0 SHL DUP2 MSTORE PUSH1 0x12 PUSH1 0x4 MSTORE PUSH1 0x24 DUP2 REVERT JUMPDEST POP DIV SWAP1 JUMP JUMPDEST PUSH1 0x0 DUP2 PUSH1 0x0 NOT DIV DUP4 GT DUP3 ISZERO ISZERO AND ISZERO PUSH2 0xC16 JUMPI PUSH2 0xC16 PUSH2 0xC32 JUMP JUMPDEST POP MUL SWAP1 JUMP JUMPDEST PUSH1 0x0 DUP3 DUP3 LT ISZERO PUSH2 0xC2D JUMPI PUSH2 0xC2D PUSH2 0xC32 JUMP JUMPDEST POP SUB SWAP1 JUMP JUMPDEST PUSH4 0x4E487B71 PUSH1 0xE0 SHL PUSH1 0x0 MSTORE PUSH1 0x11 PUSH1 0x4 MSTORE PUSH1 0x24 PUSH1 0x0 REVERT JUMPDEST PUSH1 0x1 PUSH1 0x1 PUSH1 0xA0 SHL SUB DUP2 AND DUP2 EQ PUSH2 0xC5D JUMPI PUSH1 0x0 DUP1 REVERT JUMPDEST POP JUMP INVALID LOG2 PUSH5 0x6970667358 0x22 SLT KECCAK256 SELFBALANCE XOR 0xCC PUSH8 0x318816A547E043D0 0x4E DUP9 PUSH16 0x3154CEACF08E3AC1E83DE0647CEAD34A 0xDA PUSH5 0x736F6C6343 STOP ADDMOD DIV STOP CALLER ","sha1":"6ff361dfb1ab3644e9a38fb36195f3b261612340","source":"// SPDX-License-Identifier: BUSL-1.1\n\npragma solidity ^0.8.0;\n\n/**\n * Smart contract library of mathematical functions operating with signed\n * 64.64-bit fixed point numbers.  Signed 64.64-bit fixed point number is\n * basically a simple fraction whose numerator is signed 128-bit integer and\n * denominator is 2^64.  As long as denominator is always the same, there is no\n * need to store it, thus in Solidity signed 64.64-bit fixed point numbers are\n * represented by int128 type holding only the numerator.\n */\nimport \"../Libraries/OptionMath.sol\";\nimport \"../Options/OptionConfig.sol\";\nimport \"../Interfaces/Interfaces.sol\";\nimport \"../Pool/BufferIBFRPoolV2.sol\";\n\nlibrary FeeCalculator {\n    /**\n     * @notice Calculate the current Utilisation\n     * @param amount Option amount\n     * @param pool The pool selling the option\n     * @return utilization Current utilization\n     */\n    function getNewUtilisation(uint256 amount, BufferIBFRPoolV2 pool)\n        public\n        view\n        returns (uint256 utilization)\n    {\n        uint256 poolBalance = pool.totalTokenXBalance();\n        require(poolBalance > 0, \"O8\");\n\n        utilization = ((pool.lockedAmount() + amount) * 100e8) / poolBalance;\n    }\n\n    /**\n     * @notice Calculate the Utilisation adjusted ImpliedVol for the pool according to https://www.desmos.com/calculator/xdmhn97opd\n     * @param amount Option amount\n     * @param pool The pool selling the option\n     * @param config The option configuration\n     * @return iv The adjusted ImpliedVol\n     */\n    function currentImpliedVolatility(\n        uint256 amount,\n        BufferIBFRPoolV2 pool,\n        OptionConfig config\n    ) public view returns (uint256 iv) {\n        iv = config.impliedVolRate();\n        uint256 utilization = getNewUtilisation(amount, pool);\n        if (utilization > 40e8) {\n            iv += (iv * (utilization - 40e8)) / config.utilizationRate();\n        }\n    }\n\n    /**\n     * @notice Used for getting the price for Options in tokenX\n     * @param period Option period in seconds (1 days <= period <= 4 weeks)\n     * @param amount Option amount\n     * @param strike Strike price of the option\n     * @param optionType Type of the Option\n     * @param currentPrice Current price of the underlying asset\n     * @param config The option configuration\n     * @param pool The pool selling the option\n     * @return total Total price to be paid\n     * @return settlementFee Amount to be distributed to the Buffer token holders\n     * @return premium Amount that covers the price difference in the ITM options\n     */\n    function fees(\n        uint256 period,\n        uint256 amount,\n        uint256 strike,\n        IBufferOptions.OptionType optionType,\n        uint256 currentPrice,\n        OptionConfig config,\n        BufferIBFRPoolV2 pool\n    )\n        public\n        view\n        returns (\n            uint256 total,\n            uint256 settlementFee,\n            uint256 premium\n        )\n    {\n        // usdPremium per amount is USD Price of the option in 1e8\n        uint256 usdPremium = OptionMath.blackScholesPrice(\n            currentImpliedVolatility(amount, pool, config),\n            strike,\n            currentPrice,\n            period,\n            optionType == IBufferOptions.OptionType.Call\n        );\n        premium = (usdPremium * amount) / currentPrice;\n        settlementFee = getSettlementFee(amount, config);\n        total = settlementFee + premium;\n    }\n\n    /**\n     * @notice Used for getting the price for Options in USD\n     * @param period Option period in seconds (1 days <= period <= 4 weeks)\n     * @param amount Option amount\n     * @param strike Strike price of the option\n     * @param optionType Type of the Option\n     * @param currentPrice Current price of the underlying asset\n     * @param config The option configuration\n     * @param pool The pool selling the option\n     * @return total Total price to be paid in USD\n     * @return settlementFee Amount to be distributed to the Buffer token holders in USD\n     * @return premium Amount that covers the price difference in the ITM options in USD\n     */\n    function feesUsd(\n        uint256 period,\n        uint256 amount,\n        uint256 strike,\n        IBufferOptions.OptionType optionType,\n        uint256 currentPrice,\n        OptionConfig config,\n        BufferIBFRPoolV2 pool\n    )\n        public\n        view\n        returns (\n            uint256 total,\n            uint256 settlementFee,\n            uint256 premium\n        )\n    {\n        // usdPremium per asset amount is USD Price of the option in 1e8\n        uint256 usdPremium = OptionMath.blackScholesPrice(\n            currentImpliedVolatility(amount, pool, config),\n            strike,\n            currentPrice,\n            period,\n            optionType == IBufferOptions.OptionType.Call\n        );\n        settlementFee = getSettlementFee(amount, config);\n        premium = (usdPremium * amount) / currentPrice;\n        total = settlementFee + premium;\n    }\n\n    /**\n     * @notice Used for getting the price for Binary Options\n     * @param period Option period in seconds (1 days <= period <= 4 weeks)\n     * @param amount Option amount\n     * @param strike Strike price of the option\n     * @param isYes whether the option isAbove or not\n     * @param isAbove whether the price will stay above this strike or not\n     * @param currentPrice Current price of the underlying asset\n     * @param config The option configuration\n     * @param pool The pool selling the option\n     * @return premium Amount that covers the price difference in the ITM options\n     */\n    function feesTokenXBinary(\n        uint256 period,\n        uint256 amount,\n        uint256 strike,\n        bool isYes,\n        bool isAbove,\n        uint256 currentPrice,\n        OptionConfig config,\n        BufferIBFRPoolV2 pool\n    )\n        external\n        view\n        returns (\n            uint256 premium\n        )\n    {\n        premium = OptionMath.blackScholesPriceBinary(\n            currentImpliedVolatility(amount, pool, config),\n            strike,\n            currentPrice,\n            period,\n            isYes,\n            isAbove\n        ) * amount / 1e8;\n    }\n\n\n    /**\n     * @notice Used for getting the price for Binary Options\n     * @param period Option period in seconds (1 days <= period <= 4 weeks)\n     * @param amount Option amount\n     * @param strike Strike price of the option\n     * @param isYes whether the option isAbove or not\n     * @param isAbove whether the price will stay above this strike or not\n     * @param currentPrice Current price of the underlying asset\n     * @param config The option configuration\n     * @param pool The pool selling the option\n     * @return total Total price to be paid\n     * @return settlementFee Amount to be distributed to the Buffer token holders\n     * @return premium Amount that covers the price difference in the ITM options\n     */\n    function feesBinary(\n        uint256 period,\n        uint256 amount,\n        uint256 strike,\n        bool isYes,\n        bool isAbove,\n        uint256 currentPrice,\n        OptionConfig config,\n        BufferIBFRPoolV2 pool\n    )\n        external\n        view\n        returns (\n            uint256 total,\n            uint256 settlementFee,\n            uint256 premium\n        )\n    {\n        premium = getPremium(\n            amount,\n            pool,\n            config,\n            strike,\n            period,\n            currentPrice,\n            isYes,\n            isAbove\n        );\n        settlementFee = getSettlementFee(amount, config);\n        total = settlementFee + premium;\n    }\n\n    /**\n     * @notice Used for getting the price for Binary KPI Options\n     * @param optionDetails Details of the option to be priced\n     * @param currentPrice Current price of the tokenX\n     * @param KPI KPI value for option\n     * @param config Option config\n     * @param pool pool contract\n     * @return total Total price to be paid\n     * @return settlementFee Amount to be distributed to the Buffer token holders\n     * @return premium Amount that covers the price difference in the ITM options\n     */\n    function feesKPIBinary(\n        IBufferOptions.OptionDetails memory optionDetails,\n        uint256 currentPrice,\n        uint256 KPI,\n        OptionConfig config,\n        BufferIBFRPoolV2 pool\n    )\n        external\n        view\n        returns (\n            uint256 total,\n            uint256 settlementFee,\n            uint256 premium\n        )\n    {\n        premium = getPremiumBinary(\n            optionDetails,\n            pool,\n            config,\n            currentPrice,\n            KPI\n        );\n        settlementFee = getSettlementFee(optionDetails.amount, config);\n        total = settlementFee + premium;\n    }\n\n    /**\n     * @notice Calculates settlementFee\n     * @param amount Option amount\n     * @return fee Settlement fee amount\n     */\n    function getSettlementFee(uint256 amount, OptionConfig config)\n        internal\n        view\n        returns (uint256 fee)\n    {\n        return (amount * config.settlementFeePercentage()) / 100;\n    }\n\n    function getPremium(\n        uint256 amount,\n        BufferIBFRPoolV2 pool,\n        OptionConfig config,\n        uint256 strike,\n        uint256 period,\n        uint256 currentPrice,\n        bool isYes,\n        bool isAbove\n    ) internal view returns (uint256 premium) {\n        // usdPremium per amount is USD Price of the option in 1e8\n        uint256 usdPremium = OptionMath.blackScholesPriceBinary(\n            currentImpliedVolatility(amount, pool, config),\n            strike,\n            currentPrice,\n            period,\n            isYes,\n            isAbove\n        );\n        premium = (usdPremium * amount) / currentPrice;\n    }\n\n    function getPremiumBinary(\n        IBufferOptions.OptionDetails memory optionDetails,\n        BufferIBFRPoolV2 pool,\n        OptionConfig config,\n        uint256 currentPrice,\n        uint256 KPI\n    ) internal view returns (uint256 premium) {\n        // usdPremium per amount is USD Price of the option in 1e8\n        uint256 usdPremium = OptionMath.blackScholesPriceBinary(\n            currentImpliedVolatility(optionDetails.amount, pool, config),\n            optionDetails.strike,\n            KPI,\n            optionDetails.period,\n            optionDetails.isYes,\n            optionDetails.isAbove\n        );\n        premium = (usdPremium * optionDetails.amount) / currentPrice;\n    }\n}\n","sourcePath":"contracts/Libraries/OptionFeeCalculator.sol","deployment":{"address":"0x98ecb38A7dBf2518C24F3Dd793284a24d2B39629","chainid":"1819","blockHeight":1841207}}