{"abi":[{"inputs":[{"components":[{"internalType":"address","name":"target","type":"address"},{"internalType":"bytes","name":"callData","type":"bytes"}],"internalType":"struct Multicall.Call[]","name":"calls","type":"tuple[]"}],"name":"aggregate","outputs":[{"internalType":"uint256","name":"blockNumber","type":"uint256"},{"internalType":"bytes[]","name":"returnData","type":"bytes[]"}],"stateMutability":"nonpayable","type":"function"},{"inputs":[{"internalType":"uint256","name":"blockNumber","type":"uint256"}],"name":"getBlockHash","outputs":[{"internalType":"bytes32","name":"blockHash","type":"bytes32"}],"stateMutability":"view","type":"function"},{"inputs":[],"name":"getCurrentBlockCoinbase","outputs":[{"internalType":"address","name":"coinbase","type":"address"}],"stateMutability":"view","type":"function"},{"inputs":[],"name":"getCurrentBlockDifficulty","outputs":[{"internalType":"uint256","name":"difficulty","type":"uint256"}],"stateMutability":"view","type":"function"},{"inputs":[],"name":"getCurrentBlockGasLimit","outputs":[{"internalType":"uint256","name":"gaslimit","type":"uint256"}],"stateMutability":"view","type":"function"},{"inputs":[],"name":"getCurrentBlockTimestamp","outputs":[{"internalType":"uint256","name":"timestamp","type":"uint256"}],"stateMutability":"view","type":"function"},{"inputs":[{"internalType":"address","name":"addr","type":"address"}],"name":"getEthBalance","outputs":[{"internalType":"uint256","name":"balance","type":"uint256"}],"stateMutability":"view","type":"function"},{"inputs":[],"name":"getLastBlockHash","outputs":[{"internalType":"bytes32","name":"blockHash","type":"bytes32"}],"stateMutability":"view","type":"function"}],"bytecode":"608060405234801561001057600080fd5b50610608806100206000396000f3fe608060405234801561001057600080fd5b50600436106100785760003560e01c80630f28c97d1461007d578063252dba421461009257806327e86d6e146100b35780634d2301cc146100bb57806372425d9d146100d657806386d516e8146100dc578063a8b0574e146100e2578063ee82ac5e146100f0575b600080fd5b425b6040519081526020015b60405180910390f35b6100a56100a0366004610376565b610102565b60405161008992919061046b565b61007f610279565b61007f6100c9366004610355565b6001600160a01b03163190565b4461007f565b4561007f565b604051418152602001610089565b61007f6100fe366004610437565b4090565b805143906060906001600160401b0381111561012e57634e487b7160e01b600052604160045260246000fd5b60405190808252806020026020018201604052801561016157816020015b606081526020019060019003908161014c5790505b50905060005b83518110156102735760008085838151811061019357634e487b7160e01b600052603260045260246000fd5b6020026020010151600001516001600160a01b03168684815181106101c857634e487b7160e01b600052603260045260246000fd5b6020026020010151602001516040516101e1919061044f565b6000604051808303816000865af19150503d806000811461021e576040519150601f19603f3d011682016040523d82523d6000602084013e610223565b606091505b50915091508161023257600080fd5b8084848151811061025357634e487b7160e01b600052603260045260246000fd5b60200260200101819052505050808061026b9061058b565b915050610167565b50915091565b6000610286600143610544565b40905090565b80356001600160a01b03811681146102a357600080fd5b919050565b6000604082840312156102b9578081fd5b6102c16104ec565b90506102cc8261028c565b81526020828101356001600160401b03808211156102e957600080fd5b818501915085601f8301126102fd57600080fd5b81358181111561030f5761030f6105bc565b610321601f8201601f19168501610514565b9150808252868482850101111561033757600080fd5b80848401858401376000908201840152918301919091525092915050565b600060208284031215610366578081fd5b61036f8261028c565b9392505050565b60006020808385031215610388578182fd5b82356001600160401b038082111561039e578384fd5b818501915085601f8301126103b1578384fd5b8135818111156103c3576103c36105bc565b8060051b6103d2858201610514565b8281528581019085870183870188018b10156103ec578889fd5b8893505b848410156104295780358681111561040657898afd5b6104148c8a838b01016102a8565b845250600193909301929187019187016103f0565b509998505050505050505050565b600060208284031215610448578081fd5b5035919050565b6000825161046181846020870161055b565b9190910192915050565b600060408201848352602060408185015281855180845260608601915060608160051b8701019350828701855b828110156104de57878603605f19018452815180518088526104bf81888a0189850161055b565b601f01601f191696909601850195509284019290840190600101610498565b509398975050505050505050565b604080519081016001600160401b038111828210171561050e5761050e6105bc565b60405290565b604051601f8201601f191681016001600160401b038111828210171561053c5761053c6105bc565b604052919050565b600082821015610556576105566105a6565b500390565b60005b8381101561057657818101518382015260200161055e565b83811115610585576000848401525b50505050565b600060001982141561059f5761059f6105a6565b5060010190565b634e487b7160e01b600052601160045260246000fd5b634e487b7160e01b600052604160045260246000fdfea2646970667358221220abae0d65d1c51f2d7f0075b732232db57c88b14ecad421d98ae8f46c69344da464736f6c63430008040033","bytecodeSha1":"f49b9dea3963df6c20700592a30d0b75d8dc952f","compiler":{"evm_version":"istanbul","optimizer":{"enabled":true,"runs":1},"version":"0.8.4+commit.c7e474f2"},"contractName":"Multicall","language":"Solidity","natspec":{"author":"Michael Elliot <mike@makerdao.com>Joshua Levine <joshua@makerdao.com>Nick Johnson <arachnid@notdot.net>","kind":"dev","methods":{},"title":"Multicall - Aggregate results from multiple read-only function calls","version":1},"opcodes":"PUSH1 0x80 PUSH1 0x40 MSTORE CALLVALUE DUP1 ISZERO PUSH2 0x10 JUMPI PUSH1 0x0 DUP1 REVERT JUMPDEST POP PUSH1 0x4 CALLDATASIZE LT PUSH2 0x78 JUMPI PUSH1 0x0 CALLDATALOAD PUSH1 0xE0 SHR DUP1 PUSH4 0xF28C97D EQ PUSH2 0x7D JUMPI DUP1 PUSH4 0x252DBA42 EQ PUSH2 0x92 JUMPI DUP1 PUSH4 0x27E86D6E EQ PUSH2 0xB3 JUMPI DUP1 PUSH4 0x4D2301CC EQ PUSH2 0xBB JUMPI DUP1 PUSH4 0x72425D9D EQ PUSH2 0xD6 JUMPI DUP1 PUSH4 0x86D516E8 EQ PUSH2 0xDC JUMPI DUP1 PUSH4 0xA8B0574E EQ PUSH2 0xE2 JUMPI DUP1 PUSH4 0xEE82AC5E EQ PUSH2 0xF0 JUMPI JUMPDEST PUSH1 0x0 DUP1 REVERT JUMPDEST TIMESTAMP JUMPDEST PUSH1 0x40 MLOAD SWAP1 DUP2 MSTORE PUSH1 0x20 ADD JUMPDEST PUSH1 0x40 MLOAD DUP1 SWAP2 SUB SWAP1 RETURN JUMPDEST PUSH2 0xA5 PUSH2 0xA0 CALLDATASIZE PUSH1 0x4 PUSH2 0x376 JUMP JUMPDEST PUSH2 0x102 JUMP JUMPDEST PUSH1 0x40 MLOAD PUSH2 0x89 SWAP3 SWAP2 SWAP1 PUSH2 0x46B JUMP JUMPDEST PUSH2 0x7F PUSH2 0x279 JUMP JUMPDEST PUSH2 0x7F PUSH2 0xC9 CALLDATASIZE PUSH1 0x4 PUSH2 0x355 JUMP JUMPDEST PUSH1 0x1 PUSH1 0x1 PUSH1 0xA0 SHL SUB AND BALANCE SWAP1 JUMP JUMPDEST DIFFICULTY PUSH2 0x7F JUMP JUMPDEST GASLIMIT PUSH2 0x7F JUMP JUMPDEST PUSH1 0x40 MLOAD COINBASE DUP2 MSTORE PUSH1 0x20 ADD PUSH2 0x89 JUMP JUMPDEST PUSH2 0x7F PUSH2 0xFE CALLDATASIZE PUSH1 0x4 PUSH2 0x437 JUMP JUMPDEST BLOCKHASH SWAP1 JUMP JUMPDEST DUP1 MLOAD NUMBER SWAP1 PUSH1 0x60 SWAP1 PUSH1 0x1 PUSH1 0x1 PUSH1 0x40 SHL SUB DUP2 GT ISZERO PUSH2 0x12E JUMPI PUSH4 0x4E487B71 PUSH1 0xE0 SHL PUSH1 0x0 MSTORE PUSH1 0x41 PUSH1 0x4 MSTORE PUSH1 0x24 PUSH1 0x0 REVERT JUMPDEST PUSH1 0x40 MLOAD SWAP1 DUP1 DUP3 MSTORE DUP1 PUSH1 0x20 MUL PUSH1 0x20 ADD DUP3 ADD PUSH1 0x40 MSTORE DUP1 ISZERO PUSH2 0x161 JUMPI DUP2 PUSH1 0x20 ADD JUMPDEST PUSH1 0x60 DUP2 MSTORE PUSH1 0x20 ADD SWAP1 PUSH1 0x1 SWAP1 SUB SWAP1 DUP2 PUSH2 0x14C JUMPI SWAP1 POP JUMPDEST POP SWAP1 POP PUSH1 0x0 JUMPDEST DUP4 MLOAD DUP2 LT ISZERO PUSH2 0x273 JUMPI PUSH1 0x0 DUP1 DUP6 DUP4 DUP2 MLOAD DUP2 LT PUSH2 0x193 JUMPI PUSH4 0x4E487B71 PUSH1 0xE0 SHL PUSH1 0x0 MSTORE PUSH1 0x32 PUSH1 0x4 MSTORE PUSH1 0x24 PUSH1 0x0 REVERT JUMPDEST PUSH1 0x20 MUL PUSH1 0x20 ADD ADD MLOAD PUSH1 0x0 ADD MLOAD PUSH1 0x1 PUSH1 0x1 PUSH1 0xA0 SHL SUB AND DUP7 DUP5 DUP2 MLOAD DUP2 LT PUSH2 0x1C8 JUMPI PUSH4 0x4E487B71 PUSH1 0xE0 SHL PUSH1 0x0 MSTORE PUSH1 0x32 PUSH1 0x4 MSTORE PUSH1 0x24 PUSH1 0x0 REVERT JUMPDEST PUSH1 0x20 MUL PUSH1 0x20 ADD ADD MLOAD PUSH1 0x20 ADD MLOAD PUSH1 0x40 MLOAD PUSH2 0x1E1 SWAP2 SWAP1 PUSH2 0x44F JUMP JUMPDEST PUSH1 0x0 PUSH1 0x40 MLOAD DUP1 DUP4 SUB DUP2 PUSH1 0x0 DUP7 GAS CALL SWAP2 POP POP RETURNDATASIZE DUP1 PUSH1 0x0 DUP2 EQ PUSH2 0x21E JUMPI PUSH1 0x40 MLOAD SWAP2 POP PUSH1 0x1F NOT PUSH1 0x3F RETURNDATASIZE ADD AND DUP3 ADD PUSH1 0x40 MSTORE RETURNDATASIZE DUP3 MSTORE RETURNDATASIZE PUSH1 0x0 PUSH1 0x20 DUP5 ADD RETURNDATACOPY PUSH2 0x223 JUMP JUMPDEST PUSH1 0x60 SWAP2 POP JUMPDEST POP SWAP2 POP SWAP2 POP DUP2 PUSH2 0x232 JUMPI PUSH1 0x0 DUP1 REVERT JUMPDEST DUP1 DUP5 DUP5 DUP2 MLOAD DUP2 LT PUSH2 0x253 JUMPI PUSH4 0x4E487B71 PUSH1 0xE0 SHL PUSH1 0x0 MSTORE PUSH1 0x32 PUSH1 0x4 MSTORE PUSH1 0x24 PUSH1 0x0 REVERT JUMPDEST PUSH1 0x20 MUL PUSH1 0x20 ADD ADD DUP2 SWAP1 MSTORE POP POP POP DUP1 DUP1 PUSH2 0x26B SWAP1 PUSH2 0x58B JUMP JUMPDEST SWAP2 POP POP PUSH2 0x167 JUMP JUMPDEST POP SWAP2 POP SWAP2 JUMP JUMPDEST PUSH1 0x0 PUSH2 0x286 PUSH1 0x1 NUMBER PUSH2 0x544 JUMP JUMPDEST BLOCKHASH SWAP1 POP SWAP1 JUMP JUMPDEST DUP1 CALLDATALOAD PUSH1 0x1 PUSH1 0x1 PUSH1 0xA0 SHL SUB DUP2 AND DUP2 EQ PUSH2 0x2A3 JUMPI PUSH1 0x0 DUP1 REVERT JUMPDEST SWAP2 SWAP1 POP JUMP JUMPDEST PUSH1 0x0 PUSH1 0x40 DUP3 DUP5 SUB SLT ISZERO PUSH2 0x2B9 JUMPI DUP1 DUP2 REVERT JUMPDEST PUSH2 0x2C1 PUSH2 0x4EC JUMP JUMPDEST SWAP1 POP PUSH2 0x2CC DUP3 PUSH2 0x28C JUMP JUMPDEST DUP2 MSTORE PUSH1 0x20 DUP3 DUP2 ADD CALLDATALOAD PUSH1 0x1 PUSH1 0x1 PUSH1 0x40 SHL SUB DUP1 DUP3 GT ISZERO PUSH2 0x2E9 JUMPI PUSH1 0x0 DUP1 REVERT JUMPDEST DUP2 DUP6 ADD SWAP2 POP DUP6 PUSH1 0x1F DUP4 ADD SLT PUSH2 0x2FD JUMPI PUSH1 0x0 DUP1 REVERT JUMPDEST DUP2 CALLDATALOAD DUP2 DUP2 GT ISZERO PUSH2 0x30F JUMPI PUSH2 0x30F PUSH2 0x5BC JUMP JUMPDEST PUSH2 0x321 PUSH1 0x1F DUP3 ADD PUSH1 0x1F NOT AND DUP6 ADD PUSH2 0x514 JUMP JUMPDEST SWAP2 POP DUP1 DUP3 MSTORE DUP7 DUP5 DUP3 DUP6 ADD ADD GT ISZERO PUSH2 0x337 JUMPI PUSH1 0x0 DUP1 REVERT JUMPDEST DUP1 DUP5 DUP5 ADD DUP6 DUP5 ADD CALLDATACOPY PUSH1 0x0 SWAP1 DUP3 ADD DUP5 ADD MSTORE SWAP2 DUP4 ADD SWAP2 SWAP1 SWAP2 MSTORE POP SWAP3 SWAP2 POP POP JUMP JUMPDEST PUSH1 0x0 PUSH1 0x20 DUP3 DUP5 SUB SLT ISZERO PUSH2 0x366 JUMPI DUP1 DUP2 REVERT JUMPDEST PUSH2 0x36F DUP3 PUSH2 0x28C JUMP JUMPDEST SWAP4 SWAP3 POP POP POP JUMP JUMPDEST PUSH1 0x0 PUSH1 0x20 DUP1 DUP4 DUP6 SUB SLT ISZERO PUSH2 0x388 JUMPI DUP2 DUP3 REVERT JUMPDEST DUP3 CALLDATALOAD PUSH1 0x1 PUSH1 0x1 PUSH1 0x40 SHL SUB DUP1 DUP3 GT ISZERO PUSH2 0x39E JUMPI DUP4 DUP5 REVERT JUMPDEST DUP2 DUP6 ADD SWAP2 POP DUP6 PUSH1 0x1F DUP4 ADD SLT PUSH2 0x3B1 JUMPI DUP4 DUP5 REVERT JUMPDEST DUP2 CALLDATALOAD DUP2 DUP2 GT ISZERO PUSH2 0x3C3 JUMPI PUSH2 0x3C3 PUSH2 0x5BC JUMP JUMPDEST DUP1 PUSH1 0x5 SHL PUSH2 0x3D2 DUP6 DUP3 ADD PUSH2 0x514 JUMP JUMPDEST DUP3 DUP2 MSTORE DUP6 DUP2 ADD SWAP1 DUP6 DUP8 ADD DUP4 DUP8 ADD DUP9 ADD DUP12 LT ISZERO PUSH2 0x3EC JUMPI DUP9 DUP10 REVERT JUMPDEST DUP9 SWAP4 POP JUMPDEST DUP5 DUP5 LT ISZERO PUSH2 0x429 JUMPI DUP1 CALLDATALOAD DUP7 DUP2 GT ISZERO PUSH2 0x406 JUMPI DUP10 DUP11 REVERT JUMPDEST PUSH2 0x414 DUP13 DUP11 DUP4 DUP12 ADD ADD PUSH2 0x2A8 JUMP JUMPDEST DUP5 MSTORE POP PUSH1 0x1 SWAP4 SWAP1 SWAP4 ADD SWAP3 SWAP2 DUP8 ADD SWAP2 DUP8 ADD PUSH2 0x3F0 JUMP JUMPDEST POP SWAP10 SWAP9 POP POP POP POP POP POP POP POP POP JUMP JUMPDEST PUSH1 0x0 PUSH1 0x20 DUP3 DUP5 SUB SLT ISZERO PUSH2 0x448 JUMPI DUP1 DUP2 REVERT JUMPDEST POP CALLDATALOAD SWAP2 SWAP1 POP JUMP JUMPDEST PUSH1 0x0 DUP3 MLOAD PUSH2 0x461 DUP2 DUP5 PUSH1 0x20 DUP8 ADD PUSH2 0x55B JUMP JUMPDEST SWAP2 SWAP1 SWAP2 ADD SWAP3 SWAP2 POP POP JUMP JUMPDEST PUSH1 0x0 PUSH1 0x40 DUP3 ADD DUP5 DUP4 MSTORE PUSH1 0x20 PUSH1 0x40 DUP2 DUP6 ADD MSTORE DUP2 DUP6 MLOAD DUP1 DUP5 MSTORE PUSH1 0x60 DUP7 ADD SWAP2 POP PUSH1 0x60 DUP2 PUSH1 0x5 SHL DUP8 ADD ADD SWAP4 POP DUP3 DUP8 ADD DUP6 JUMPDEST DUP3 DUP2 LT ISZERO PUSH2 0x4DE JUMPI DUP8 DUP7 SUB PUSH1 0x5F NOT ADD DUP5 MSTORE DUP2 MLOAD DUP1 MLOAD DUP1 DUP9 MSTORE PUSH2 0x4BF DUP2 DUP9 DUP11 ADD DUP10 DUP6 ADD PUSH2 0x55B JUMP JUMPDEST PUSH1 0x1F ADD PUSH1 0x1F NOT AND SWAP7 SWAP1 SWAP7 ADD DUP6 ADD SWAP6 POP SWAP3 DUP5 ADD SWAP3 SWAP1 DUP5 ADD SWAP1 PUSH1 0x1 ADD PUSH2 0x498 JUMP JUMPDEST POP SWAP4 SWAP9 SWAP8 POP POP POP POP POP POP POP POP JUMP JUMPDEST PUSH1 0x40 DUP1 MLOAD SWAP1 DUP2 ADD PUSH1 0x1 PUSH1 0x1 PUSH1 0x40 SHL SUB DUP2 GT DUP3 DUP3 LT OR ISZERO PUSH2 0x50E JUMPI PUSH2 0x50E PUSH2 0x5BC JUMP JUMPDEST PUSH1 0x40 MSTORE SWAP1 JUMP JUMPDEST PUSH1 0x40 MLOAD PUSH1 0x1F DUP3 ADD PUSH1 0x1F NOT AND DUP2 ADD PUSH1 0x1 PUSH1 0x1 PUSH1 0x40 SHL SUB DUP2 GT DUP3 DUP3 LT OR ISZERO PUSH2 0x53C JUMPI PUSH2 0x53C PUSH2 0x5BC JUMP JUMPDEST PUSH1 0x40 MSTORE SWAP2 SWAP1 POP JUMP JUMPDEST PUSH1 0x0 DUP3 DUP3 LT ISZERO PUSH2 0x556 JUMPI PUSH2 0x556 PUSH2 0x5A6 JUMP JUMPDEST POP SUB SWAP1 JUMP JUMPDEST PUSH1 0x0 JUMPDEST DUP4 DUP2 LT ISZERO PUSH2 0x576 JUMPI DUP2 DUP2 ADD MLOAD DUP4 DUP3 ADD MSTORE PUSH1 0x20 ADD PUSH2 0x55E JUMP JUMPDEST DUP4 DUP2 GT ISZERO PUSH2 0x585 JUMPI PUSH1 0x0 DUP5 DUP5 ADD MSTORE JUMPDEST POP POP POP POP JUMP JUMPDEST PUSH1 0x0 PUSH1 0x0 NOT DUP3 EQ ISZERO PUSH2 0x59F JUMPI PUSH2 0x59F PUSH2 0x5A6 JUMP JUMPDEST POP PUSH1 0x1 ADD SWAP1 JUMP JUMPDEST PUSH4 0x4E487B71 PUSH1 0xE0 SHL PUSH1 0x0 MSTORE PUSH1 0x11 PUSH1 0x4 MSTORE PUSH1 0x24 PUSH1 0x0 REVERT JUMPDEST PUSH4 0x4E487B71 PUSH1 0xE0 SHL PUSH1 0x0 MSTORE PUSH1 0x41 PUSH1 0x4 MSTORE PUSH1 0x24 PUSH1 0x0 REVERT INVALID LOG2 PUSH5 0x6970667358 0x22 SLT KECCAK256 0xAB 0xAE 0xD PUSH6 0xD1C51F2D7F00 PUSH22 0xB732232DB57C88B14ECAD421D98AE8F46C69344DA464 PUSH20 0x6F6C634300080400330000000000000000000000 ","sha1":"3e251c7e964d04f8d80985a95257122c3418e20d","source":"/**\n *Submitted for verification at polygonscan.com on 2021-06-30\n */\n\n// SPDX-License-Identifier: GPL-3.0-or-later\npragma solidity >=0.5.0;\npragma experimental ABIEncoderV2;\n\n/// @title Multicall - Aggregate results from multiple read-only function calls\n/// @author Michael Elliot <mike@makerdao.com>\n/// @author Joshua Levine <joshua@makerdao.com>\n/// @author Nick Johnson <arachnid@notdot.net>\n\ncontract Multicall {\n    struct Call {\n        address target;\n        bytes callData;\n    }\n\n    function aggregate(Call[] memory calls)\n        public\n        returns (uint256 blockNumber, bytes[] memory returnData)\n    {\n        blockNumber = block.number;\n        returnData = new bytes[](calls.length);\n        for (uint256 i = 0; i < calls.length; i++) {\n            (bool success, bytes memory ret) = calls[i].target.call(\n                calls[i].callData\n            );\n            require(success);\n            returnData[i] = ret;\n        }\n    }\n\n    // Helper functions\n    function getEthBalance(address addr) public view returns (uint256 balance) {\n        balance = addr.balance;\n    }\n\n    function getBlockHash(uint256 blockNumber)\n        public\n        view\n        returns (bytes32 blockHash)\n    {\n        blockHash = blockhash(blockNumber);\n    }\n\n    function getLastBlockHash() public view returns (bytes32 blockHash) {\n        blockHash = blockhash(block.number - 1);\n    }\n\n    function getCurrentBlockTimestamp()\n        public\n        view\n        returns (uint256 timestamp)\n    {\n        timestamp = block.timestamp;\n    }\n\n    function getCurrentBlockDifficulty()\n        public\n        view\n        returns (uint256 difficulty)\n    {\n        difficulty = block.difficulty;\n    }\n\n    function getCurrentBlockGasLimit() public view returns (uint256 gaslimit) {\n        gaslimit = block.gaslimit;\n    }\n\n    function getCurrentBlockCoinbase() public view returns (address coinbase) {\n        coinbase = block.coinbase;\n    }\n}\n","sourcePath":"contracts/Multicall.sol","type":"contract","deployment":{"address":"0xd94Cc219D0306774B4F44b4cC27F91556b904E41","chainid":"1819","blockHeight":1842046}}